{
  "_format": "hh-sol-artifact-1",
  "contractName": "BaseUpgradeabilityProxy-ovm",
  "sourceName": "contracts/upgradability/BaseUpgradeabilityProxy.sol",
  "abi": [
    {
      "anonymous": false,
      "inputs": [
        {
          "indexed": true,
          "internalType": "address",
          "name": "implementation",
          "type": "address"
        }
      ],
      "name": "Upgraded",
      "type": "event"
    },
    {
      "stateMutability": "payable",
      "type": "fallback"
    },
    {
      "inputs": [
        {
          "internalType": "bytes32",
          "name": "c__0x48440863",
          "type": "bytes32"
        }
      ],
      "name": "c_0x48440863",
      "outputs": [],
      "stateMutability": "pure",
      "type": "function"
    },
    {
      "inputs": [
        {
          "internalType": "bytes32",
          "name": "c__0x7ae02a76",
          "type": "bytes32"
        }
      ],
      "name": "c_0x7ae02a76",
      "outputs": [],
      "stateMutability": "pure",
      "type": "function"
    },
    {
      "stateMutability": "payable",
      "type": "receive"
    }
  ],
  "bytecode": "0x60806040523480156100195760008061001661001f565b50505b5061008d565b632a2a7adb598160e01b8152600481016020815285602082015260005b8681101561005a57808601518160408401015260208101905061003c565b506020828760640184336000905af158600e01573d6000803e3d6000fd5b3d6001141558600a015760016000f35b505050565b610ba38061009c6000396000f3fe60806040526004361061002d5760003560e01c806399fcc3af146100f65780639fca14891461014357610068565b366100685761005e7fc6b4e05c8886da748779e3730e8c17790f4949c297c98f69c0e25769046b382860001b610190565b610066610193565b005b6100947f7cac60e495c25cc9e216dd3d679b6fd06d90acd829d30d51b0b95c15961f9ce860001b610190565b6100c07fa498bb8916b0b37a35deaa8b1accf938c042e340ce4efc8012c9bc9f2d9a158260001b610190565b6100ec7fb98f83d464d19b3956a82d774c19111c6b015ef12927ca07b8c336ee6ed5c83260001b610190565b6100f4610193565b005b34801561010b5760008061010861086f565b50505b506101416004803603602081101561012b5760008061012861086f565b50505b8101908080359060200190929190505050610190565b005b3480156101585760008061015561086f565b50505b5061018e600480360360208110156101785760008061017561086f565b50505b8101908080359060200190929190505050610289565b005b50565b6101bf7fcc50f323444403c69b72c742f10568fd580356f98ea0b8a61244432b4b8329aa60001b610190565b6101eb7f91459de950b72cb048d7c2381f9b9aa525ffd2583f54ee2b5d56207fdd63c5f260001b610190565b6102177f2a63a560972ad1e96b63734e142fb213f07cc296632536b43fa61424677948a660001b610190565b61021f61028c565b61024b7f77edd1b383a85548630fa7bfd95f57342f38b1ebd03fe4ad3dbba6c3b573793560001b610190565b6102777fb07c5e61b7983b69d2f2e8e63be5cea8d7d53b55b03a0cf98e73a5d19bd6ae6e60001b610190565b6102876102826102ba565b610639565b565b50565b6102b87f276b633fb1946cc03b9c844674afbbfa8f3e77bc0ffafeb39b77dabc1886667560001b610190565b565b60006102e87f077de034f5c7298f11d849c35541287460ab2175e9265eed7f948784b84b95e260001b610289565b6103147feb5666e3ff94584d3f43ed9d4226fb55c9d5fd656f201fc448d94a7cce59b0fd60001b610289565b6103407fec433353424e2aa184bc7059a893e4fab799c68e834318eccef10e441687f7f360001b610289565b600061036e7f53ce0dd4617f9997965c4e7a52f203163a3f5c80d8f29d8c471110aca611c11660001b610289565b61039a7f76c6db1ab825a57a577f977ff80e0f30540ebcfa89671fe345afaa15aff79ae960001b610289565b60007f360894a13ba1a3210667c828492db98dca3e2076cc3735a920a3ca505d382bbc60001b90506103ee7fa5793ed3e454c6da632434d6ad8ba3e21aadb69ec0eaaf4673ec86a9b565275560001b610289565b806103f76108dd565b91506104257fdd8e92d4de16353bc86e626af17fe8b09f1a11017635c855fb0a7fadc4baf2dd60001b610289565b6104517f3f022d8f69f42c34354a868b842611bc7e9f34010c7962d6223657785b28042860001b610289565b600073ffffffffffffffffffffffffffffffffffffffff168273ffffffffffffffffffffffffffffffffffffffff1614156104e9576104b27f173b1db32db0581166a1cec716d6f825d30035adb4043fa1faf667f6e1ba39f460001b610289565b6104de7f1b2cc020f945581b6d8d02f38ca4e6283cf5fa2b06ac14a640cb20689274816760001b610289565b600092505050610636565b6105157fbea1bee21992abdd1abf0c189d41f808e091c05595bbba731a69bc489fdcf68e60001b610289565b6105417f6f9f753bde1a19cfbaba68d5a9e501237dec3e9ffd52d9f8cd9263cdec9ad2b560001b610289565b61056d7fc3f9a96809e79305f42491aae649f233d7b0c9bf585bb625e37e63514c3507c860001b610289565b8173ffffffffffffffffffffffffffffffffffffffff1663ecef89d56105916106d0565b6040518263ffffffff1660e01b8152600401808260ff16815260200191505060206040518083038186806105c3610940565b1580156105d8576000806105d561086f565b50505b505a6105e26109a3565b5050505050158015610601573d6000803e3d60006105fe61086f565b50505b505050506040513d60208110156106205760008061061d61086f565b50505b8101908080519060200190929190505050925050505b90565b6106657f6553b3bbf61b84602ae382fedcbbf6290bc154e245b87926d62e3f86240a4bf260001b610190565b6106917fde788fbfc1fb399d6b655d570b484725b445d3bb4cf78879e20863a893557b0060001b610190565b3660008037600080366000845a6106a6610aa3565b50505050503d6000803e80600081146106be573d6000f35b3d60006106c961086f565b5050505050565b60006106fe7f9678d93bcdb7e8ebd2d49fa07be99cbcb83c3977ae8ad3058c2ea2daaefab51e60001b610289565b61072a7ff18a944a5a9a44a81768adb2f6707f7dc7b98dad5f0f42f84fb5f333a3acf1b360001b610289565b6107567f3faeaf931136d7c21b99a41ba1c4022c5eef76d609e347679d6dfbf3d117b0ec60001b610289565b60006107847f9e8b25b038102415cca03a970994a70109eeef5e5be0f613784662482e2e19c660001b610289565b6107b07fdd8cdda75d04b380d725cdb7fa79f7cc8829c6d1df58515e90bfa757016b8a5a60001b610289565b60007f100000000000000000000000000000000000000000000000000000000000000060001b90506108047f45c698179387c7d3079bd5738e6b04085f039528bec62a361fcd921001601bae60001b610289565b8061080d6108dd565b915061083b7f1e9bce0245cc028ace68fe7e6ef5e100315b0879da647cb93eb9c121d3d832b760001b610289565b6108677f0ec1f28fb7f1c508d86cd00feb7f41ae8d18bfa0c5d0ac20d867bce5a8fccc6460001b610289565b819250505090565b632a2a7adb598160e01b8152600481016020815285602082015260005b868110156108aa57808601518160408401015260208101905061088c565b506020828760640184336000905af158600e01573d6000803e3d6000fd5b3d6001141558600a015760016000f35b505050565b6303daa959598160e01b8152836004820152602081602483336000905af158600e01573d6000803e3d6000fd5b3d6001141558600a015760016000f35b8051935060005b604081101561093b57600081830152602081019050610921565b505050565b638435035b598160e01b8152836004820152602081602483336000905af158600e01573d6000803e3d6000fd5b3d6001141558600a015760016000f35b8051935060005b604081101561099e57600081830152602081019050610984565b505050565b638540661f598160e01b81526109e2565b6000819050818311156109c5578290505b92915050565b6000819050818310156109dc578290505b92915050565b836004820152846024820152606060448201528660648201526084810160005b88811015610a1d578088015181830152602081019050610a02565b506060828960a40184336000905af158600e01573d6000803e3d6000fd5b3d6001141558600a015760016000f35b815160408301513d6000853e8b8b82606087013350600060045af15059610a728d3d6109cb565b8c01610a7e81876109b4565b5b82811015610a965760008152602081019050610a7f565b50839d5050505050505050565b63ffe73914598160e01b8152610ae2565b600081905081831115610ac5578290505b92915050565b600081905081831015610adc578290505b92915050565b836004820152846024820152606060448201528660648201526084810160005b88811015610b1d578088015181830152602081019050610b02565b506060828960a40184336000905af158600e01573d6000803e3d6000fd5b3d6001141558600a015760016000f35b815160408301513d6000853e8b8b82606087013350600060045af15059610b728d3d610acb565b8c01610b7e8187610ab4565b5b82811015610b965760008152602081019050610b7f565b50839d505050505050505056",
  "deployedBytecode": "0x60806040526004361061002d5760003560e01c806399fcc3af146100f65780639fca14891461014357610068565b366100685761005e7fc6b4e05c8886da748779e3730e8c17790f4949c297c98f69c0e25769046b382860001b610190565b610066610193565b005b6100947f7cac60e495c25cc9e216dd3d679b6fd06d90acd829d30d51b0b95c15961f9ce860001b610190565b6100c07fa498bb8916b0b37a35deaa8b1accf938c042e340ce4efc8012c9bc9f2d9a158260001b610190565b6100ec7fb98f83d464d19b3956a82d774c19111c6b015ef12927ca07b8c336ee6ed5c83260001b610190565b6100f4610193565b005b34801561010b5760008061010861086f565b50505b506101416004803603602081101561012b5760008061012861086f565b50505b8101908080359060200190929190505050610190565b005b3480156101585760008061015561086f565b50505b5061018e600480360360208110156101785760008061017561086f565b50505b8101908080359060200190929190505050610289565b005b50565b6101bf7fcc50f323444403c69b72c742f10568fd580356f98ea0b8a61244432b4b8329aa60001b610190565b6101eb7f91459de950b72cb048d7c2381f9b9aa525ffd2583f54ee2b5d56207fdd63c5f260001b610190565b6102177f2a63a560972ad1e96b63734e142fb213f07cc296632536b43fa61424677948a660001b610190565b61021f61028c565b61024b7f77edd1b383a85548630fa7bfd95f57342f38b1ebd03fe4ad3dbba6c3b573793560001b610190565b6102777fb07c5e61b7983b69d2f2e8e63be5cea8d7d53b55b03a0cf98e73a5d19bd6ae6e60001b610190565b6102876102826102ba565b610639565b565b50565b6102b87f276b633fb1946cc03b9c844674afbbfa8f3e77bc0ffafeb39b77dabc1886667560001b610190565b565b60006102e87f077de034f5c7298f11d849c35541287460ab2175e9265eed7f948784b84b95e260001b610289565b6103147feb5666e3ff94584d3f43ed9d4226fb55c9d5fd656f201fc448d94a7cce59b0fd60001b610289565b6103407fec433353424e2aa184bc7059a893e4fab799c68e834318eccef10e441687f7f360001b610289565b600061036e7f53ce0dd4617f9997965c4e7a52f203163a3f5c80d8f29d8c471110aca611c11660001b610289565b61039a7f76c6db1ab825a57a577f977ff80e0f30540ebcfa89671fe345afaa15aff79ae960001b610289565b60007f360894a13ba1a3210667c828492db98dca3e2076cc3735a920a3ca505d382bbc60001b90506103ee7fa5793ed3e454c6da632434d6ad8ba3e21aadb69ec0eaaf4673ec86a9b565275560001b610289565b806103f76108dd565b91506104257fdd8e92d4de16353bc86e626af17fe8b09f1a11017635c855fb0a7fadc4baf2dd60001b610289565b6104517f3f022d8f69f42c34354a868b842611bc7e9f34010c7962d6223657785b28042860001b610289565b600073ffffffffffffffffffffffffffffffffffffffff168273ffffffffffffffffffffffffffffffffffffffff1614156104e9576104b27f173b1db32db0581166a1cec716d6f825d30035adb4043fa1faf667f6e1ba39f460001b610289565b6104de7f1b2cc020f945581b6d8d02f38ca4e6283cf5fa2b06ac14a640cb20689274816760001b610289565b600092505050610636565b6105157fbea1bee21992abdd1abf0c189d41f808e091c05595bbba731a69bc489fdcf68e60001b610289565b6105417f6f9f753bde1a19cfbaba68d5a9e501237dec3e9ffd52d9f8cd9263cdec9ad2b560001b610289565b61056d7fc3f9a96809e79305f42491aae649f233d7b0c9bf585bb625e37e63514c3507c860001b610289565b8173ffffffffffffffffffffffffffffffffffffffff1663ecef89d56105916106d0565b6040518263ffffffff1660e01b8152600401808260ff16815260200191505060206040518083038186806105c3610940565b1580156105d8576000806105d561086f565b50505b505a6105e26109a3565b5050505050158015610601573d6000803e3d60006105fe61086f565b50505b505050506040513d60208110156106205760008061061d61086f565b50505b8101908080519060200190929190505050925050505b90565b6106657f6553b3bbf61b84602ae382fedcbbf6290bc154e245b87926d62e3f86240a4bf260001b610190565b6106917fde788fbfc1fb399d6b655d570b484725b445d3bb4cf78879e20863a893557b0060001b610190565b3660008037600080366000845a6106a6610aa3565b50505050503d6000803e80600081146106be573d6000f35b3d60006106c961086f565b5050505050565b60006106fe7f9678d93bcdb7e8ebd2d49fa07be99cbcb83c3977ae8ad3058c2ea2daaefab51e60001b610289565b61072a7ff18a944a5a9a44a81768adb2f6707f7dc7b98dad5f0f42f84fb5f333a3acf1b360001b610289565b6107567f3faeaf931136d7c21b99a41ba1c4022c5eef76d609e347679d6dfbf3d117b0ec60001b610289565b60006107847f9e8b25b038102415cca03a970994a70109eeef5e5be0f613784662482e2e19c660001b610289565b6107b07fdd8cdda75d04b380d725cdb7fa79f7cc8829c6d1df58515e90bfa757016b8a5a60001b610289565b60007f100000000000000000000000000000000000000000000000000000000000000060001b90506108047f45c698179387c7d3079bd5738e6b04085f039528bec62a361fcd921001601bae60001b610289565b8061080d6108dd565b915061083b7f1e9bce0245cc028ace68fe7e6ef5e100315b0879da647cb93eb9c121d3d832b760001b610289565b6108677f0ec1f28fb7f1c508d86cd00feb7f41ae8d18bfa0c5d0ac20d867bce5a8fccc6460001b610289565b819250505090565b632a2a7adb598160e01b8152600481016020815285602082015260005b868110156108aa57808601518160408401015260208101905061088c565b506020828760640184336000905af158601d01573d60011458600c01573d6000803e3d621234565260ea61109c52505050565b6303daa959598160e01b8152836004820152602081602483336000905af158601d01573d60011458600c01573d6000803e3d621234565260ea61109c528051935060005b604081101561093b57600081830152602081019050610921565b505050565b638435035b598160e01b8152836004820152602081602483336000905af158601d01573d60011458600c01573d6000803e3d621234565260ea61109c528051935060005b604081101561099e57600081830152602081019050610984565b505050565b638540661f598160e01b81526109e2565b6000819050818311156109c5578290505b92915050565b6000819050818310156109dc578290505b92915050565b836004820152846024820152606060448201528660648201526084810160005b88811015610a1d578088015181830152602081019050610a02565b506060828960a40184336000905af158601d01573d60011458600c01573d6000803e3d621234565260ea61109c52815160408301513d6000853e8b8b82606087013350600060045af15059610a728d3d6109cb565b8c01610a7e81876109b4565b5b82811015610a965760008152602081019050610a7f565b50839d5050505050505050565b63ffe73914598160e01b8152610ae2565b600081905081831115610ac5578290505b92915050565b600081905081831015610adc578290505b92915050565b836004820152846024820152606060448201528660648201526084810160005b88811015610b1d578088015181830152602081019050610b02565b506060828960a40184336000905af158601d01573d60011458600c01573d6000803e3d621234565260ea61109c52815160408301513d6000853e8b8b82606087013350600060045af15059610b728d3d610acb565b8c01610b7e8187610ab4565b5b82811015610b965760008152602081019050610b7f565b50839d505050505050505056",
  "linkReferences": {},
  "deployedLinkReferences": {}
}