{
  "_format": "hh-sol-artifact-1",
  "contractName": "BaseUpgradeabilityProxy",
  "sourceName": "contracts/upgradability/BaseUpgradeabilityProxy.sol",
  "abi": [
    {
      "anonymous": false,
      "inputs": [
        {
          "indexed": true,
          "internalType": "address",
          "name": "implementation",
          "type": "address"
        }
      ],
      "name": "Upgraded",
      "type": "event"
    },
    {
      "stateMutability": "payable",
      "type": "fallback"
    },
    {
      "inputs": [
        {
          "internalType": "bytes32",
          "name": "c__0x48440863",
          "type": "bytes32"
        }
      ],
      "name": "c_0x48440863",
      "outputs": [],
      "stateMutability": "pure",
      "type": "function"
    },
    {
      "inputs": [
        {
          "internalType": "bytes32",
          "name": "c__0x7ae02a76",
          "type": "bytes32"
        }
      ],
      "name": "c_0x7ae02a76",
      "outputs": [],
      "stateMutability": "pure",
      "type": "function"
    },
    {
      "stateMutability": "payable",
      "type": "receive"
    }
  ],
  "bytecode": "0x608060405234801561001057600080fd5b5061082c806100206000396000f3fe60806040526004361061002d5760003560e01c806399fcc3af146100f65780639fca14891461013157610068565b366100685761005e7fc6b4e05c8886da748779e3730e8c17790f4949c297c98f69c0e25769046b382860001b61016c565b61006661016f565b005b6100947f7cac60e495c25cc9e216dd3d679b6fd06d90acd829d30d51b0b95c15961f9ce860001b61016c565b6100c07fa498bb8916b0b37a35deaa8b1accf938c042e340ce4efc8012c9bc9f2d9a158260001b61016c565b6100ec7fb98f83d464d19b3956a82d774c19111c6b015ef12927ca07b8c336ee6ed5c83260001b61016c565b6100f461016f565b005b34801561010257600080fd5b5061012f6004803603602081101561011957600080fd5b810190808035906020019092919050505061016c565b005b34801561013d57600080fd5b5061016a6004803603602081101561015457600080fd5b8101908080359060200190929190505050610265565b005b50565b61019b7fcc50f323444403c69b72c742f10568fd580356f98ea0b8a61244432b4b8329aa60001b61016c565b6101c77f91459de950b72cb048d7c2381f9b9aa525ffd2583f54ee2b5d56207fdd63c5f260001b61016c565b6101f37f2a63a560972ad1e96b63734e142fb213f07cc296632536b43fa61424677948a660001b61016c565b6101fb610268565b6102277f77edd1b383a85548630fa7bfd95f57342f38b1ebd03fe4ad3dbba6c3b573793560001b61016c565b6102537fb07c5e61b7983b69d2f2e8e63be5cea8d7d53b55b03a0cf98e73a5d19bd6ae6e60001b61016c565b61026361025e610296565b6105e0565b565b50565b6102947f276b633fb1946cc03b9c844674afbbfa8f3e77bc0ffafeb39b77dabc1886667560001b61016c565b565b60006102c47f077de034f5c7298f11d849c35541287460ab2175e9265eed7f948784b84b95e260001b610265565b6102f07feb5666e3ff94584d3f43ed9d4226fb55c9d5fd656f201fc448d94a7cce59b0fd60001b610265565b61031c7fec433353424e2aa184bc7059a893e4fab799c68e834318eccef10e441687f7f360001b610265565b600061034a7f53ce0dd4617f9997965c4e7a52f203163a3f5c80d8f29d8c471110aca611c11660001b610265565b6103767f76c6db1ab825a57a577f977ff80e0f30540ebcfa89671fe345afaa15aff79ae960001b610265565b60007f360894a13ba1a3210667c828492db98dca3e2076cc3735a920a3ca505d382bbc60001b90506103ca7fa5793ed3e454c6da632434d6ad8ba3e21aadb69ec0eaaf4673ec86a9b565275560001b610265565b805491506103fa7fdd8e92d4de16353bc86e626af17fe8b09f1a11017635c855fb0a7fadc4baf2dd60001b610265565b6104267f3f022d8f69f42c34354a868b842611bc7e9f34010c7962d6223657785b28042860001b610265565b600073ffffffffffffffffffffffffffffffffffffffff168273ffffffffffffffffffffffffffffffffffffffff1614156104be576104877f173b1db32db0581166a1cec716d6f825d30035adb4043fa1faf667f6e1ba39f460001b610265565b6104b37f1b2cc020f945581b6d8d02f38ca4e6283cf5fa2b06ac14a640cb20689274816760001b610265565b6000925050506105dd565b6104ea7fbea1bee21992abdd1abf0c189d41f808e091c05595bbba731a69bc489fdcf68e60001b610265565b6105167f6f9f753bde1a19cfbaba68d5a9e501237dec3e9ffd52d9f8cd9263cdec9ad2b560001b610265565b6105427fc3f9a96809e79305f42491aae649f233d7b0c9bf585bb625e37e63514c3507c860001b610265565b8173ffffffffffffffffffffffffffffffffffffffff1663ecef89d561056661065e565b6040518263ffffffff1660e01b8152600401808260ff16815260200191505060206040518083038186803b15801561059d57600080fd5b505afa1580156105b1573d6000803e3d6000fd5b505050506040513d60208110156105c757600080fd5b8101908080519060200190929190505050925050505b90565b61060c7f6553b3bbf61b84602ae382fedcbbf6290bc154e245b87926d62e3f86240a4bf260001b61016c565b6106387fde788fbfc1fb399d6b655d570b484725b445d3bb4cf78879e20863a893557b0060001b61016c565b3660008037600080366000845af43d6000803e8060008114610659573d6000f35b3d6000fd5b600061068c7f9678d93bcdb7e8ebd2d49fa07be99cbcb83c3977ae8ad3058c2ea2daaefab51e60001b610265565b6106b87ff18a944a5a9a44a81768adb2f6707f7dc7b98dad5f0f42f84fb5f333a3acf1b360001b610265565b6106e47f3faeaf931136d7c21b99a41ba1c4022c5eef76d609e347679d6dfbf3d117b0ec60001b610265565b60006107127f9e8b25b038102415cca03a970994a70109eeef5e5be0f613784662482e2e19c660001b610265565b61073e7fdd8cdda75d04b380d725cdb7fa79f7cc8829c6d1df58515e90bfa757016b8a5a60001b610265565b60007f100000000000000000000000000000000000000000000000000000000000000060001b90506107927f45c698179387c7d3079bd5738e6b04085f039528bec62a361fcd921001601bae60001b610265565b805491506107c27f1e9bce0245cc028ace68fe7e6ef5e100315b0879da647cb93eb9c121d3d832b760001b610265565b6107ee7f0ec1f28fb7f1c508d86cd00feb7f41ae8d18bfa0c5d0ac20d867bce5a8fccc6460001b610265565b81925050509056fea264697066735822122015166863d13457270d99f6626f78608f8c5e0113e90881f43ee4d84d16f5e88964736f6c634300060c0033",
  "linkReferences": {},
  "deployedLinkReferences": {}
}