{
  "_format": "hh-sol-artifact-1",
  "contractName": "AssetHandler",
  "sourceName": "contracts/assets/AssetHandler.sol",
  "abi": [
    {
      "anonymous": false,
      "inputs": [
        {
          "indexed": false,
          "internalType": "address",
          "name": "asset",
          "type": "address"
        },
        {
          "indexed": false,
          "internalType": "uint8",
          "name": "assetType",
          "type": "uint8"
        },
        {
          "indexed": false,
          "internalType": "address",
          "name": "aggregator",
          "type": "address"
        }
      ],
      "name": "AddedAsset",
      "type": "event"
    },
    {
      "anonymous": false,
      "inputs": [
        {
          "indexed": true,
          "internalType": "address",
          "name": "previousOwner",
          "type": "address"
        },
        {
          "indexed": true,
          "internalType": "address",
          "name": "newOwner",
          "type": "address"
        }
      ],
      "name": "OwnershipTransferred",
      "type": "event"
    },
    {
      "anonymous": false,
      "inputs": [
        {
          "indexed": false,
          "internalType": "address",
          "name": "asset",
          "type": "address"
        }
      ],
      "name": "RemovedAsset",
      "type": "event"
    },
    {
      "inputs": [
        {
          "internalType": "address",
          "name": "asset",
          "type": "address"
        },
        {
          "internalType": "uint8",
          "name": "assetType",
          "type": "uint8"
        },
        {
          "internalType": "address",
          "name": "aggregator",
          "type": "address"
        }
      ],
      "name": "addAsset",
      "outputs": [],
      "stateMutability": "nonpayable",
      "type": "function"
    },
    {
      "inputs": [
        {
          "components": [
            {
              "internalType": "address",
              "name": "asset",
              "type": "address"
            },
            {
              "internalType": "uint8",
              "name": "assetType",
              "type": "uint8"
            },
            {
              "internalType": "address",
              "name": "aggregator",
              "type": "address"
            }
          ],
          "internalType": "struct IAssetHandler.Asset[]",
          "name": "assets",
          "type": "tuple[]"
        }
      ],
      "name": "addAssets",
      "outputs": [],
      "stateMutability": "nonpayable",
      "type": "function"
    },
    {
      "inputs": [
        {
          "internalType": "address",
          "name": "",
          "type": "address"
        }
      ],
      "name": "assetTypes",
      "outputs": [
        {
          "internalType": "uint8",
          "name": "",
          "type": "uint8"
        }
      ],
      "stateMutability": "view",
      "type": "function"
    },
    {
      "inputs": [],
      "name": "disableChainlink",
      "outputs": [],
      "stateMutability": "nonpayable",
      "type": "function"
    },
    {
      "inputs": [],
      "name": "enableChainlink",
      "outputs": [],
      "stateMutability": "nonpayable",
      "type": "function"
    },
    {
      "inputs": [
        {
          "internalType": "address",
          "name": "asset",
          "type": "address"
        }
      ],
      "name": "getAssetTypeAndAggregator",
      "outputs": [
        {
          "internalType": "uint8",
          "name": "",
          "type": "uint8"
        },
        {
          "internalType": "address",
          "name": "",
          "type": "address"
        }
      ],
      "stateMutability": "view",
      "type": "function"
    },
    {
      "inputs": [
        {
          "internalType": "address",
          "name": "asset",
          "type": "address"
        }
      ],
      "name": "getUSDPrice",
      "outputs": [
        {
          "internalType": "uint256",
          "name": "",
          "type": "uint256"
        }
      ],
      "stateMutability": "view",
      "type": "function"
    },
    {
      "inputs": [
        {
          "internalType": "address",
          "name": "_poolFactory",
          "type": "address"
        },
        {
          "components": [
            {
              "internalType": "address",
              "name": "asset",
              "type": "address"
            },
            {
              "internalType": "uint8",
              "name": "assetType",
              "type": "uint8"
            },
            {
              "internalType": "address",
              "name": "aggregator",
              "type": "address"
            }
          ],
          "internalType": "struct IAssetHandler.Asset[]",
          "name": "assets",
          "type": "tuple[]"
        }
      ],
      "name": "initialize",
      "outputs": [],
      "stateMutability": "nonpayable",
      "type": "function"
    },
    {
      "inputs": [],
      "name": "isDisabledChainlink",
      "outputs": [
        {
          "internalType": "bool",
          "name": "",
          "type": "bool"
        }
      ],
      "stateMutability": "view",
      "type": "function"
    },
    {
      "inputs": [],
      "name": "owner",
      "outputs": [
        {
          "internalType": "address",
          "name": "",
          "type": "address"
        }
      ],
      "stateMutability": "view",
      "type": "function"
    },
    {
      "inputs": [],
      "name": "poolFactory",
      "outputs": [
        {
          "internalType": "address",
          "name": "",
          "type": "address"
        }
      ],
      "stateMutability": "view",
      "type": "function"
    },
    {
      "inputs": [
        {
          "internalType": "address",
          "name": "",
          "type": "address"
        }
      ],
      "name": "priceAggregators",
      "outputs": [
        {
          "internalType": "address",
          "name": "",
          "type": "address"
        }
      ],
      "stateMutability": "view",
      "type": "function"
    },
    {
      "inputs": [
        {
          "internalType": "address",
          "name": "asset",
          "type": "address"
        }
      ],
      "name": "removeAsset",
      "outputs": [],
      "stateMutability": "nonpayable",
      "type": "function"
    },
    {
      "inputs": [],
      "name": "renounceOwnership",
      "outputs": [],
      "stateMutability": "nonpayable",
      "type": "function"
    },
    {
      "inputs": [
        {
          "internalType": "address",
          "name": "_poolFactory",
          "type": "address"
        }
      ],
      "name": "setPoolFactory",
      "outputs": [],
      "stateMutability": "nonpayable",
      "type": "function"
    },
    {
      "inputs": [
        {
          "internalType": "address",
          "name": "newOwner",
          "type": "address"
        }
      ],
      "name": "transferOwnership",
      "outputs": [],
      "stateMutability": "nonpayable",
      "type": "function"
    }
  ],
  "bytecode": "0x608060405234801561001057600080fd5b506110ab806100206000396000f3fe608060405234801561001057600080fd5b50600436106101005760003560e01c8063b02e786f11610097578063cf45ba1b11610066578063cf45ba1b146101fd578063d54e96d214610212578063eee681201461021a578063f2fde38b1461022d57610100565b8063b02e786f146101af578063b2806001146101cf578063b4fb1279146101d7578063b91ba548146101ea57610100565b8063715018a6116100d3578063715018a61461016c578063752d4bcb146101745780638b2f0f4f146101875780638da5cb5b146101a757610100565b80634219dc4014610105578063473597a0146101235780634a5e42b11461013857806368efa6261461014b575b600080fd5b61010d610240565b60405161011a9190610dd0565b60405180910390f35b610136610131366004610c8c565b610254565b005b610136610146366004610c8c565b6102ba565b61015e610159366004610c8c565b610362565b60405161011a929190611032565b610136610393565b610136610182366004610d4c565b610412565b61019a610195366004610c8c565b6104bb565b60405161011a919061101b565b61010d610619565b6101c26101bd366004610c8c565b610628565b60405161011a9190611024565b61013661063d565b61010d6101e5366004610c8c565b610681565b6101366101f8366004610d07565b61069c565b610205610758565b60405161011a9190610e0a565b610136610761565b610136610228366004610cae565b6107a2565b61013661023b366004610c8c565b610858565b60975461010090046001600160a01b031681565b61025c61090f565b6065546001600160a01b039081169116146102925760405162461bcd60e51b815260040161028990610f37565b60405180910390fd5b609780546001600160a01b0390921661010002610100600160a81b0319909216919091179055565b6102c261090f565b6065546001600160a01b039081169116146102ef5760405162461bcd60e51b815260040161028990610f37565b6001600160a01b0381166000908152609860209081526040808320805460ff1916905560999091529081902080546001600160a01b0319169055517fb5c3bd787b070cfb84ba6afb620405d01603f2dff7019495776c0fa8be3c909590610357908390610dd0565b60405180910390a150565b6001600160a01b0390811660009081526098602090815260408083205460999092529091205460ff90911692911690565b61039b61090f565b6065546001600160a01b039081169116146103c85760405162461bcd60e51b815260040161028990610f37565b6065546040516000916001600160a01b0316907f8be0079c531659141344cd1fd0a4f28419497f9722a3daafe3b4186f6b6457e0908390a3606580546001600160a01b0319169055565b61041a61090f565b6065546001600160a01b039081169116146104475760405162461bcd60e51b815260040161028990610f37565b60005b81518160ff1610156104b7576104af828260ff168151811061046857fe5b602002602001015160000151838360ff168151811061048357fe5b602002602001015160200151848460ff168151811061049e57fe5b60200260200101516040015161069c565b60010161044a565b5050565b6001600160a01b0380821660009081526099602090815260408083205460989092528220549192169060ff16816105045760405162461bcd60e51b815260040161028990610fba565b600060ff821615801561051a575060975460ff16155b156105f157826001600160a01b031663feaf968c6040518163ffffffff1660e01b815260040160a06040518083038186803b15801561055857600080fd5b505afa925050508015610588575060408051601f3d908101601f1916820190925261058591810190610d7f565b60015b6105a45760405162461bcd60e51b815260040161028990610ff1565b426105b28362015f90610913565b10156105d05760405162461bcd60e51b815260040161028990610e15565b60008413156105eb576105e8846402540be400610941565b95505b50505050505b600081116106115760405162461bcd60e51b815260040161028990610ec9565b949350505050565b6065546001600160a01b031690565b60986020526000908152604090205460ff1681565b61064561090f565b6065546001600160a01b039081169116146106725760405162461bcd60e51b815260040161028990610f37565b6097805460ff19166001179055565b6099602052600090815260409020546001600160a01b031681565b6106a461090f565b6065546001600160a01b039081169116146106d15760405162461bcd60e51b815260040161028990610f37565b6001600160a01b038381166000908152609860209081526040808320805460ff191660ff881617905560999091529081902080546001600160a01b03191692841692909217909155517fc5c8c14f537465c45219816a52dc841f2c2d567961cc2929e3be355a419fa3719061074b90859085908590610de4565b60405180910390a1505050565b60975460ff1681565b61076961090f565b6065546001600160a01b039081169116146107965760405162461bcd60e51b815260040161028990610f37565b6097805460ff19169055565b600054610100900460ff16806107bb57506107bb61097b565b806107c9575060005460ff16155b6107e55760405162461bcd60e51b815260040161028990610f6c565b600054610100900460ff16158015610810576000805460ff1961ff0019909116610100171660011790555b610818610981565b60978054610100600160a81b0319166101006001600160a01b0386160217905561084182610412565b8015610853576000805461ff00191690555b505050565b61086061090f565b6065546001600160a01b0390811691161461088d5760405162461bcd60e51b815260040161028990610f37565b6001600160a01b0381166108b35760405162461bcd60e51b815260040161028990610e4c565b6065546040516001600160a01b038084169216907f8be0079c531659141344cd1fd0a4f28419497f9722a3daafe3b4186f6b6457e090600090a3606580546001600160a01b0319166001600160a01b0392909216919091179055565b3390565b6000828201838110156109385760405162461bcd60e51b815260040161028990610e92565b90505b92915050565b6000826109505750600061093b565b8282028284828161095d57fe5b04146109385760405162461bcd60e51b815260040161028990610ef6565b303b1590565b600054610100900460ff168061099a575061099a61097b565b806109a8575060005460ff16155b6109c45760405162461bcd60e51b815260040161028990610f6c565b600054610100900460ff161580156109ef576000805460ff1961ff0019909116610100171660011790555b6109f7610a14565b6109ff610a95565b8015610a11576000805461ff00191690555b50565b600054610100900460ff1680610a2d5750610a2d61097b565b80610a3b575060005460ff16155b610a575760405162461bcd60e51b815260040161028990610f6c565b600054610100900460ff161580156109ff576000805460ff1961ff0019909116610100171660011790558015610a11576000805461ff001916905550565b600054610100900460ff1680610aae5750610aae61097b565b80610abc575060005460ff16155b610ad85760405162461bcd60e51b815260040161028990610f6c565b600054610100900460ff16158015610b03576000805460ff1961ff0019909116610100171660011790555b6000610b0d61090f565b606580546001600160a01b0319166001600160a01b038316908117909155604051919250906000907f8be0079c531659141344cd1fd0a4f28419497f9722a3daafe3b4186f6b6457e0908290a3508015610a11576000805461ff001916905550565b80356001600160a01b038116811461093b57600080fd5b600082601f830112610b96578081fd5b813567ffffffffffffffff811115610bac578182fd5b6020610bbb818284020161104e565b8281529250808301848201606080850287018401881015610bdb57600080fd5b60005b85811015610c0257610bf08984610c0e565b84529284019291810191600101610bde565b50505050505092915050565b600060608284031215610c1f578081fd5b610c29606061104e565b9050610c358383610b6f565b8152610c448360208401610c61565b6020820152610c568360408401610b6f565b604082015292915050565b803560ff8116811461093b57600080fd5b805169ffffffffffffffffffff8116811461093b57600080fd5b600060208284031215610c9d578081fd5b610ca78383610b6f565b9392505050565b60008060408385031215610cc0578081fd5b82356001600160a01b0381168114610cd6578182fd5b9150602083013567ffffffffffffffff811115610cf1578182fd5b610cfd85828601610b86565b9150509250929050565b600080600060608486031215610d1b578081fd5b610d258585610b6f565b9250610d348560208601610c61565b9150610d438560408601610b6f565b90509250925092565b600060208284031215610d5d578081fd5b813567ffffffffffffffff811115610d73578182fd5b61061184828501610b86565b600080600080600060a08688031215610d96578081fd5b610da08787610c72565b9450602086015193506040860151925060608601519150610dc48760808801610c72565b90509295509295909350565b6001600160a01b0391909116815260200190565b6001600160a01b03938416815260ff929092166020830152909116604082015260600190565b901515815260200190565b60208082526017908201527f436861696e6c696e6b2070726963652065787069726564000000000000000000604082015260600190565b60208082526026908201527f4f776e61626c653a206e6577206f776e657220697320746865207a65726f206160408201526564647265737360d01b606082015260800190565b6020808252601b908201527f536166654d6174683a206164646974696f6e206f766572666c6f770000000000604082015260600190565b6020808252601390820152725072696365206e6f7420617661696c61626c6560681b604082015260600190565b60208082526021908201527f536166654d6174683a206d756c7469706c69636174696f6e206f766572666c6f6040820152607760f81b606082015260800190565b6020808252818101527f4f776e61626c653a2063616c6c6572206973206e6f7420746865206f776e6572604082015260600190565b6020808252602e908201527f436f6e747261637420696e7374616e63652068617320616c726561647920626560408201526d195b881a5b9a5d1a585b1a5e995960921b606082015260800190565b6020808252601a908201527f50726963652061676772656761746f72206e6f7420666f756e64000000000000604082015260600190565b60208082526010908201526f141c9a58d94819d95d0819985a5b195960821b604082015260600190565b90815260200190565b60ff91909116815260200190565b60ff9290921682526001600160a01b0316602082015260400190565b60405181810167ffffffffffffffff8111828210171561106d57600080fd5b60405291905056fea264697066735822122024b98dc1cd919a71c37e25c4315113ef11662b80d527b00c5654885c607a919f64736f6c634300060c0033",
  "linkReferences": {},
  "deployedLinkReferences": {}
}