{
  "_format": "hh-sol-artifact-1",
  "contractName": "AssetHandler-ovm",
  "sourceName": "contracts/assets/AssetHandler.sol",
  "abi": [
    {
      "anonymous": false,
      "inputs": [
        {
          "indexed": false,
          "internalType": "address",
          "name": "asset",
          "type": "address"
        },
        {
          "indexed": false,
          "internalType": "uint8",
          "name": "assetType",
          "type": "uint8"
        },
        {
          "indexed": false,
          "internalType": "address",
          "name": "aggregator",
          "type": "address"
        }
      ],
      "name": "AddedAsset",
      "type": "event"
    },
    {
      "anonymous": false,
      "inputs": [
        {
          "indexed": true,
          "internalType": "address",
          "name": "previousOwner",
          "type": "address"
        },
        {
          "indexed": true,
          "internalType": "address",
          "name": "newOwner",
          "type": "address"
        }
      ],
      "name": "OwnershipTransferred",
      "type": "event"
    },
    {
      "anonymous": false,
      "inputs": [
        {
          "indexed": false,
          "internalType": "address",
          "name": "asset",
          "type": "address"
        }
      ],
      "name": "RemovedAsset",
      "type": "event"
    },
    {
      "inputs": [
        {
          "internalType": "address",
          "name": "asset",
          "type": "address"
        },
        {
          "internalType": "uint8",
          "name": "assetType",
          "type": "uint8"
        },
        {
          "internalType": "address",
          "name": "aggregator",
          "type": "address"
        }
      ],
      "name": "addAsset",
      "outputs": [],
      "stateMutability": "nonpayable",
      "type": "function"
    },
    {
      "inputs": [
        {
          "components": [
            {
              "internalType": "address",
              "name": "asset",
              "type": "address"
            },
            {
              "internalType": "uint8",
              "name": "assetType",
              "type": "uint8"
            },
            {
              "internalType": "address",
              "name": "aggregator",
              "type": "address"
            }
          ],
          "internalType": "struct IAssetHandler.Asset[]",
          "name": "assets",
          "type": "tuple[]"
        }
      ],
      "name": "addAssets",
      "outputs": [],
      "stateMutability": "nonpayable",
      "type": "function"
    },
    {
      "inputs": [
        {
          "internalType": "address",
          "name": "",
          "type": "address"
        }
      ],
      "name": "assetTypes",
      "outputs": [
        {
          "internalType": "uint8",
          "name": "",
          "type": "uint8"
        }
      ],
      "stateMutability": "view",
      "type": "function"
    },
    {
      "inputs": [],
      "name": "disableChainlink",
      "outputs": [],
      "stateMutability": "nonpayable",
      "type": "function"
    },
    {
      "inputs": [],
      "name": "enableChainlink",
      "outputs": [],
      "stateMutability": "nonpayable",
      "type": "function"
    },
    {
      "inputs": [
        {
          "internalType": "address",
          "name": "asset",
          "type": "address"
        }
      ],
      "name": "getAssetTypeAndAggregator",
      "outputs": [
        {
          "internalType": "uint8",
          "name": "",
          "type": "uint8"
        },
        {
          "internalType": "address",
          "name": "",
          "type": "address"
        }
      ],
      "stateMutability": "view",
      "type": "function"
    },
    {
      "inputs": [
        {
          "internalType": "address",
          "name": "asset",
          "type": "address"
        }
      ],
      "name": "getUSDPrice",
      "outputs": [
        {
          "internalType": "uint256",
          "name": "",
          "type": "uint256"
        }
      ],
      "stateMutability": "view",
      "type": "function"
    },
    {
      "inputs": [
        {
          "internalType": "address",
          "name": "_poolFactory",
          "type": "address"
        },
        {
          "components": [
            {
              "internalType": "address",
              "name": "asset",
              "type": "address"
            },
            {
              "internalType": "uint8",
              "name": "assetType",
              "type": "uint8"
            },
            {
              "internalType": "address",
              "name": "aggregator",
              "type": "address"
            }
          ],
          "internalType": "struct IAssetHandler.Asset[]",
          "name": "assets",
          "type": "tuple[]"
        }
      ],
      "name": "initialize",
      "outputs": [],
      "stateMutability": "nonpayable",
      "type": "function"
    },
    {
      "inputs": [],
      "name": "isDisabledChainlink",
      "outputs": [
        {
          "internalType": "bool",
          "name": "",
          "type": "bool"
        }
      ],
      "stateMutability": "view",
      "type": "function"
    },
    {
      "inputs": [],
      "name": "owner",
      "outputs": [
        {
          "internalType": "address",
          "name": "",
          "type": "address"
        }
      ],
      "stateMutability": "view",
      "type": "function"
    },
    {
      "inputs": [],
      "name": "poolFactory",
      "outputs": [
        {
          "internalType": "address",
          "name": "",
          "type": "address"
        }
      ],
      "stateMutability": "view",
      "type": "function"
    },
    {
      "inputs": [
        {
          "internalType": "address",
          "name": "",
          "type": "address"
        }
      ],
      "name": "priceAggregators",
      "outputs": [
        {
          "internalType": "address",
          "name": "",
          "type": "address"
        }
      ],
      "stateMutability": "view",
      "type": "function"
    },
    {
      "inputs": [
        {
          "internalType": "address",
          "name": "asset",
          "type": "address"
        }
      ],
      "name": "removeAsset",
      "outputs": [],
      "stateMutability": "nonpayable",
      "type": "function"
    },
    {
      "inputs": [],
      "name": "renounceOwnership",
      "outputs": [],
      "stateMutability": "nonpayable",
      "type": "function"
    },
    {
      "inputs": [
        {
          "internalType": "address",
          "name": "_poolFactory",
          "type": "address"
        }
      ],
      "name": "setPoolFactory",
      "outputs": [],
      "stateMutability": "nonpayable",
      "type": "function"
    },
    {
      "inputs": [
        {
          "internalType": "address",
          "name": "newOwner",
          "type": "address"
        }
      ],
      "name": "transferOwnership",
      "outputs": [],
      "stateMutability": "nonpayable",
      "type": "function"
    }
  ],
  "bytecode": "0x60806040523480156100195760008061001661001f565b50505b5061008a565b632a2a7adb598160e01b8152600481016020815285602082015260005b8681101561005757808601518282016040015260200161003c565b506020828760640184336000905af158600e01573d6000803e3d6000fd5b3d6001141558600a015760016000f35b505050565b611a72806100996000396000f3fe6080604052348015610019576000806100166111fe565b50505b50600436106101095760003560e01c8063b02e786f116100a0578063cf45ba1b1161006f578063cf45ba1b1461020f578063d54e96d214610224578063eee681201461022c578063f2fde38b1461023f57610109565b8063b02e786f146101c1578063b2806001146101e1578063b4fb1279146101e9578063b91ba548146101fc57610109565b8063715018a6116100dc578063715018a61461017e578063752d4bcb146101865780638b2f0f4f146101995780638da5cb5b146101b957610109565b80634219dc4014610117578063473597a0146101355780634a5e42b11461014a57806368efa6261461015d575b6000806101146111fe565b50505b61011f610252565b60405161012c91906117c0565b60405180910390f35b610148610143366004611634565b610271565b005b610148610158366004611634565b61030d565b61017061016b366004611634565b610430565b60405161012c929190611a22565b6101486104a7565b610148610194366004611721565b610594565b6101ac6101a7366004611634565b61066a565b60405161012c9190611a0b565b61011f610888565b6101d46101cf366004611634565b6108aa565b60405161012c9190611a14565b6101486108d1565b61011f6101f7366004611634565b610959565b61014861020a3660046116d3565b610973565b610217610aa0565b60405161012c91906117fa565b610148610aac565b61014861023a36600461165f565b610b20565b61014861024d366004611634565b610c79565b6001609761025e611269565b906101000a90046001600160a01b031681565b610279610d7f565b6001600160a01b03166000606561028e611269565b906101000a90046001600160a01b03166001600160a01b0316146102d65760405162461bcd60e51b81526004016102c490611927565b604051809103906102d36111fe565b50505b806097610100816102e5611269565b816001600160a01b0302191690836001600160a01b03160217906103076112c4565b50505050565b610315610d7f565b6001600160a01b03166000606561032a611269565b906101000a90046001600160a01b03166001600160a01b0316146103725760405162461bcd60e51b815260040161036090611927565b6040518091039061036f6111fe565b50505b6001600160a01b0381166000908152609860205260408120600181610395611269565b8160ff021916908360ff160217906103ab6112c4565b5050506001600160a01b03811660009081526099602052604081206001816103d1611269565b816001600160a01b0302191690836001600160a01b03160217906103f36112c4565b5050507fb5c3bd787b070cfb84ba6afb620405d01603f2dff7019495776c0fa8be3c90958160405161042591906117c0565b60405180910390a150565b6001600160a01b038116600090815260986020528060408120600090610454611269565b906101000a900460ff1660996000856001600160a01b03166001600160a01b0316815260200190815260200160002060009061048e611269565b906101000a90046001600160a01b031691509150915091565b6104af610d7f565b6001600160a01b0316600060656104c4611269565b906101000a90046001600160a01b03166001600160a01b03161461050c5760405162461bcd60e51b81526004016104fa90611927565b604051809103906105096111fe565b50505b6000806065610519611269565b906101000a90046001600160a01b03166001600160a01b03167f8be0079c531659141344cd1fd0a4f28419497f9722a3daafe3b4186f6b6457e060405160405180910390a36000606560018161056d611269565b816001600160a01b0302191690836001600160a01b031602179061058f6112c4565b505050565b61059c610d7f565b6001600160a01b0316600060656105b1611269565b906101000a90046001600160a01b03166001600160a01b0316146105f95760405162461bcd60e51b81526004016105e790611927565b604051809103906105f66111fe565b50505b60005b81518160ff1610156106665761065e828260ff168151811061061a57fe5b602002602001015151838360ff168151811061063257fe5b602002602001015160200151848460ff168151811061064d57fe5b602002602001015160400151610973565b6001016105fc565b5050565b6001600160a01b03811660009081526099602052806040812060009061068e611269565b6001600160a01b03858116600090815260986020526101009390930a909104169150604081206000906106bf611269565b60ff6101009290920a90041690506001600160a01b0382166107055760405162461bcd60e51b81526004016106f3906119aa565b604051809103906107026111fe565b50505b600060ff821615801561072b57506000609761071f611269565b906101000a900460ff16155b1561084e57826001600160a01b031663feaf968c6040518163ffffffff1660e01b815260040160a0604051808303818680610764611312565b158015610779576000806107766111fe565b50505b505a61078361135e565b50505050509250505080156107b55750604051601f3d908101601f191682016040526107b29190810190611766565b60015b6107e75760405162461bcd60e51b81526004016107d1906119e1565b604051809103906107e06111fe565b505061084e565b5a6107f0611449565b6107fd8362015f90610d8f565b101561082d5760405162461bcd60e51b815260040161081b90611805565b6040518091039061082a6111fe565b50505b600084131561084857610845846402540be400610dcf565b95505b50505050505b600081116108805760405162461bcd60e51b815260040161086e906118b9565b6040518091039061087d6111fe565b50505b949350505050565b6000806065610895611269565b906101000a90046001600160a01b0316905090565b6098602052806000526040600020600091506108c4611269565b906101000a900460ff1681565b6108d9610d7f565b6001600160a01b0316600060656108ee611269565b906101000a90046001600160a01b03166001600160a01b0316146109365760405162461bcd60e51b815260040161092490611927565b604051809103906109336111fe565b50505b600160978181610944611269565b8160ff0219169083151502179061058f6112c4565b60996020528060005260406000206000915061025e611269565b61097b610d7f565b6001600160a01b031660006065610990611269565b906101000a90046001600160a01b03166001600160a01b0316146109d85760405162461bcd60e51b81526004016109c690611927565b604051809103906109d56111fe565b50505b6001600160a01b038316600090815260986020528290604090206001816109fd611269565b8160ff021916908360ff16021790610a136112c4565b5050506001600160a01b03831660009081526099602052819060409020600181610a3b611269565b816001600160a01b0302191690836001600160a01b0316021790610a5d6112c4565b5050507fc5c8c14f537465c45219816a52dc841f2c2d567961cc2929e3be355a419fa371838383604051610a93939291906117d4565b60405180910390a1505050565b600060976108c4611269565b610ab4610d7f565b6001600160a01b031660006065610ac9611269565b906101000a90046001600160a01b03166001600160a01b031614610b115760405162461bcd60e51b8152600401610aff90611927565b60405180910390610b0e6111fe565b50505b60006097600181610944611269565b60016000610b2c611269565b906101000a900460ff1680610b445750610b44610e09565b80610b615750600080610b55611269565b906101000a900460ff16155b610b8f5760405162461bcd60e51b8152600401610b7d9061195c565b60405180910390610b8c6111fe565b50505b6000600181610b9c611269565b906101000a900460ff161590508015610c02576001600061010081610bbf611269565b8160ff02191690831515021790610bd46112c4565b50505060016000806101000a81610be9611269565b8160ff02191690831515021790610bfe6112c4565b5050505b610c0a610e7a565b82609761010081610c19611269565b816001600160a01b0302191690836001600160a01b0316021790610c3b6112c4565b505050610c4782610594565b801561058f5760008061010081610c5c611269565b8160ff02191690831515021790610c716112c4565b505050505050565b610c81610d7f565b6001600160a01b031660006065610c96611269565b906101000a90046001600160a01b03166001600160a01b031614610cde5760405162461bcd60e51b8152600401610ccc90611927565b60405180910390610cdb6111fe565b50505b6001600160a01b038116610d165760405162461bcd60e51b8152600401610d049061183c565b60405180910390610d136111fe565b50505b6001600160a01b03811660006065610d2c611269565b906101000a90046001600160a01b03166001600160a01b03167f8be0079c531659141344cd1fd0a4f28419497f9722a3daafe3b4186f6b6457e060405160405180910390a38060656001816102e5611269565b60005a610d8a61148f565b905090565b600082820183811015610dc65760405162461bcd60e51b8152600401610db490611882565b60405180910390610dc36111fe565b50505b90505b92915050565b600082610dde57506000610dc9565b82820282848281610deb57fe5b0414610dc65760405162461bcd60e51b8152600401610db4906118e6565b6000805a63996d79a5598160e01b8152602081600483336000905af158600e01573d6000803e3d6000fd5b3d6001141558600a015760016000f35b8051925060005b6040811015610e6257600082820152602001610e4b565b5050509050600081610e72611312565b159250505090565b60016000610e86611269565b906101000a900460ff1680610e9e5750610e9e610e09565b80610ebb5750600080610eaf611269565b906101000a900460ff16155b610ee95760405162461bcd60e51b8152600401610ed79061195c565b60405180910390610ee66111fe565b50505b6000600181610ef6611269565b906101000a900460ff161590508015610f5c576001600061010081610f19611269565b8160ff02191690831515021790610f2e6112c4565b50505060016000806101000a81610f43611269565b8160ff02191690831515021790610f586112c4565b5050505b610f64610f99565b610f6c61108f565b8015610f965760008061010081610f81611269565b8160ff021916908315150217906103076112c4565b50565b60016000610fa5611269565b906101000a900460ff1680610fbd5750610fbd610e09565b80610fda5750600080610fce611269565b906101000a900460ff16155b6110085760405162461bcd60e51b8152600401610ff69061195c565b604051809103906110056111fe565b50505b6000600181611015611269565b906101000a900460ff161590508015610f6c576001600061010081611038611269565b8160ff0219169083151502179061104d6112c4565b50505060016000806101000a81611062611269565b8160ff021916908315150217906110776112c4565b5050508015610f965760008061010081610f81611269565b6001600061109b611269565b906101000a900460ff16806110b357506110b3610e09565b806110d057506000806110c4611269565b906101000a900460ff16155b6110fe5760405162461bcd60e51b81526004016110ec9061195c565b604051809103906110fb6111fe565b50505b600060018161110b611269565b906101000a900460ff16159050801561117157600160006101008161112e611269565b8160ff021916908315150217906111436112c4565b50505060016000806101000a81611158611269565b8160ff0219169083151502179061116d6112c4565b5050505b600061117b610d7f565b905080606560018161118b611269565b816001600160a01b0302191690836001600160a01b03160217906111ad6112c4565b5050506001600160a01b03811660007f8be0079c531659141344cd1fd0a4f28419497f9722a3daafe3b4186f6b6457e060405160405180910390a3508015610f965760008061010081610f81611269565b632a2a7adb598160e01b8152600481016020815285602082015260005b8681101561123657808601518282016040015260200161121b565b506020828760640184336000905af158600e01573d6000803e3d6000fd5b3d6001141558600a015760016000f35b505050565b6303daa959598160e01b8152836004820152602081602483336000905af158600e01573d6000803e3d6000fd5b3d6001141558600a015760016000f35b8051935060005b604081101561058f576000828201526020016112ad565b6322bd64c0598160e01b8152836004820152846024820152600081604483336000905af158600e01573d6000803e3d6000fd5b3d6001141558600a015760016000f35b6000815260206112ad565b638435035b598160e01b8152836004820152602081602483336000905af158600e01573d6000803e3d6000fd5b3d6001141558600a015760016000f35b805160008252935060206112ad565b638540661f598160e01b815261138f565b8080831115610dc9575090919050565b8080831015610dc9575090919050565b836004820152846024820152606060448201528660648201526084810160005b888110156113c75780880151828201526020016113af565b506060828960a40184336000905af158600e01573d6000803e3d6000fd5b3d6001141558600a015760016000f35b815160408301513d6000853e8b8b82606087013350600060045af1505961141c8d3d61137f565b8c01611428818761136f565b5b8281101561143d5760008152602001611429565b50929c50505050505050565b63bdbf8c36598160e01b8152602081600483336000905af158600e01573d6000803e3d6000fd5b3d6001141558600a015760016000f35b805160008252935060206112ad565b6373509064598160e01b8152602081600483336000905af158600e01573d6000803e3d6000fd5b3d6001141558600a015760016000f35b805160008252935060206112ad565b80356001600160a01b0381168114610dc9576000806114f26111fe565b505092915050565b600082601f8301126115135780816115106111fe565b50505b813567ffffffffffffffff81111561153257818261152f6111fe565b50505b60206115418182840201611a3e565b828152925080830184820160608085028701840188101561156a576000806115676111fe565b50505b60005b858110156115915761157f898461159d565b8452928401929181019160010161156d565b50505050505092915050565b6000606082840312156115b75780816115b46111fe565b50505b6115c16060611a3e565b90506115cd83836114d5565b81526115dc83602084016115f9565b60208201526115ee83604084016114d5565b604082015292915050565b803560ff81168114610dc9576000806114f26111fe565b60008151905069ffffffffffffffffffff81168114610dc9576000806114f26111fe565b60006020828403121561164e57808161164b6111fe565b50505b61165883836114d5565b9392505050565b6000806040838503121561167a5780816116776111fe565b50505b82356001600160a01b03811681146116995781826116966111fe565b50505b9150602083013567ffffffffffffffff8111156116bd5781826116ba6111fe565b50505b6116c9858286016114fa565b9150509250929050565b6000806000606084860312156116f05780816116ed6111fe565b50505b6116fa85856114d5565b925061170985602086016115f9565b915061171885604086016114d5565b90509250925092565b60006020828403121561173b5780816117386111fe565b50505b813567ffffffffffffffff81111561175a5781826117576111fe565b50505b610880848285016114fa565b600080600080600060a086880312156117865780816117836111fe565b50505b6117908787611610565b94506020860151935060408601519250606086015191506117b48760808801611610565b90509295509295909350565b6001600160a01b0391909116815260200190565b6001600160a01b03938416815260ff929092166020830152909116604082015260600190565b901515815260200190565b60208082526017908201527f436861696e6c696e6b2070726963652065787069726564000000000000000000604082015260600190565b60208082526026908201527f4f776e61626c653a206e6577206f776e657220697320746865207a65726f206160408201526564647265737360d01b606082015260800190565b6020808252601b908201527f536166654d6174683a206164646974696f6e206f766572666c6f770000000000604082015260600190565b6020808252601390820152725072696365206e6f7420617661696c61626c6560681b604082015260600190565b60208082526021908201527f536166654d6174683a206d756c7469706c69636174696f6e206f766572666c6f6040820152607760f81b606082015260800190565b6020808252818101527f4f776e61626c653a2063616c6c6572206973206e6f7420746865206f776e6572604082015260600190565b6020808252602e908201527f436f6e747261637420696e7374616e63652068617320616c726561647920626560408201526d195b881a5b9a5d1a585b1a5e995960921b606082015260800190565b6020808252601a908201527f50726963652061676772656761746f72206e6f7420666f756e64000000000000604082015260600190565b60208082526010908201526f141c9a58d94819d95d0819985a5b195960821b604082015260600190565b90815260200190565b60ff91909116815260200190565b60ff9290921682526001600160a01b0316602082015260400190565b6000604051905081810181811067ffffffffffffffff82111715611a6a57600080611a676111fe565b50505b60405291905056",
  "deployedBytecode": "0x6080604052348015610019576000806100166111fe565b50505b50600436106101095760003560e01c8063b02e786f116100a0578063cf45ba1b1161006f578063cf45ba1b1461020f578063d54e96d214610224578063eee681201461022c578063f2fde38b1461023f57610109565b8063b02e786f146101c1578063b2806001146101e1578063b4fb1279146101e9578063b91ba548146101fc57610109565b8063715018a6116100dc578063715018a61461017e578063752d4bcb146101865780638b2f0f4f146101995780638da5cb5b146101b957610109565b80634219dc4014610117578063473597a0146101355780634a5e42b11461014a57806368efa6261461015d575b6000806101146111fe565b50505b61011f610252565b60405161012c91906117c0565b60405180910390f35b610148610143366004611634565b610271565b005b610148610158366004611634565b61030d565b61017061016b366004611634565b610430565b60405161012c929190611a22565b6101486104a7565b610148610194366004611721565b610594565b6101ac6101a7366004611634565b61066a565b60405161012c9190611a0b565b61011f610888565b6101d46101cf366004611634565b6108aa565b60405161012c9190611a14565b6101486108d1565b61011f6101f7366004611634565b610959565b61014861020a3660046116d3565b610973565b610217610aa0565b60405161012c91906117fa565b610148610aac565b61014861023a36600461165f565b610b20565b61014861024d366004611634565b610c79565b6001609761025e611269565b906101000a90046001600160a01b031681565b610279610d7f565b6001600160a01b03166000606561028e611269565b906101000a90046001600160a01b03166001600160a01b0316146102d65760405162461bcd60e51b81526004016102c490611927565b604051809103906102d36111fe565b50505b806097610100816102e5611269565b816001600160a01b0302191690836001600160a01b03160217906103076112c4565b50505050565b610315610d7f565b6001600160a01b03166000606561032a611269565b906101000a90046001600160a01b03166001600160a01b0316146103725760405162461bcd60e51b815260040161036090611927565b6040518091039061036f6111fe565b50505b6001600160a01b0381166000908152609860205260408120600181610395611269565b8160ff021916908360ff160217906103ab6112c4565b5050506001600160a01b03811660009081526099602052604081206001816103d1611269565b816001600160a01b0302191690836001600160a01b03160217906103f36112c4565b5050507fb5c3bd787b070cfb84ba6afb620405d01603f2dff7019495776c0fa8be3c90958160405161042591906117c0565b60405180910390a150565b6001600160a01b038116600090815260986020528060408120600090610454611269565b906101000a900460ff1660996000856001600160a01b03166001600160a01b0316815260200190815260200160002060009061048e611269565b906101000a90046001600160a01b031691509150915091565b6104af610d7f565b6001600160a01b0316600060656104c4611269565b906101000a90046001600160a01b03166001600160a01b03161461050c5760405162461bcd60e51b81526004016104fa90611927565b604051809103906105096111fe565b50505b6000806065610519611269565b906101000a90046001600160a01b03166001600160a01b03167f8be0079c531659141344cd1fd0a4f28419497f9722a3daafe3b4186f6b6457e060405160405180910390a36000606560018161056d611269565b816001600160a01b0302191690836001600160a01b031602179061058f6112c4565b505050565b61059c610d7f565b6001600160a01b0316600060656105b1611269565b906101000a90046001600160a01b03166001600160a01b0316146105f95760405162461bcd60e51b81526004016105e790611927565b604051809103906105f66111fe565b50505b60005b81518160ff1610156106665761065e828260ff168151811061061a57fe5b602002602001015151838360ff168151811061063257fe5b602002602001015160200151848460ff168151811061064d57fe5b602002602001015160400151610973565b6001016105fc565b5050565b6001600160a01b03811660009081526099602052806040812060009061068e611269565b6001600160a01b03858116600090815260986020526101009390930a909104169150604081206000906106bf611269565b60ff6101009290920a90041690506001600160a01b0382166107055760405162461bcd60e51b81526004016106f3906119aa565b604051809103906107026111fe565b50505b600060ff821615801561072b57506000609761071f611269565b906101000a900460ff16155b1561084e57826001600160a01b031663feaf968c6040518163ffffffff1660e01b815260040160a0604051808303818680610764611312565b158015610779576000806107766111fe565b50505b505a61078361135e565b50505050509250505080156107b55750604051601f3d908101601f191682016040526107b29190810190611766565b60015b6107e75760405162461bcd60e51b81526004016107d1906119e1565b604051809103906107e06111fe565b505061084e565b5a6107f0611449565b6107fd8362015f90610d8f565b101561082d5760405162461bcd60e51b815260040161081b90611805565b6040518091039061082a6111fe565b50505b600084131561084857610845846402540be400610dcf565b95505b50505050505b600081116108805760405162461bcd60e51b815260040161086e906118b9565b6040518091039061087d6111fe565b50505b949350505050565b6000806065610895611269565b906101000a90046001600160a01b0316905090565b6098602052806000526040600020600091506108c4611269565b906101000a900460ff1681565b6108d9610d7f565b6001600160a01b0316600060656108ee611269565b906101000a90046001600160a01b03166001600160a01b0316146109365760405162461bcd60e51b815260040161092490611927565b604051809103906109336111fe565b50505b600160978181610944611269565b8160ff0219169083151502179061058f6112c4565b60996020528060005260406000206000915061025e611269565b61097b610d7f565b6001600160a01b031660006065610990611269565b906101000a90046001600160a01b03166001600160a01b0316146109d85760405162461bcd60e51b81526004016109c690611927565b604051809103906109d56111fe565b50505b6001600160a01b038316600090815260986020528290604090206001816109fd611269565b8160ff021916908360ff16021790610a136112c4565b5050506001600160a01b03831660009081526099602052819060409020600181610a3b611269565b816001600160a01b0302191690836001600160a01b0316021790610a5d6112c4565b5050507fc5c8c14f537465c45219816a52dc841f2c2d567961cc2929e3be355a419fa371838383604051610a93939291906117d4565b60405180910390a1505050565b600060976108c4611269565b610ab4610d7f565b6001600160a01b031660006065610ac9611269565b906101000a90046001600160a01b03166001600160a01b031614610b115760405162461bcd60e51b8152600401610aff90611927565b60405180910390610b0e6111fe565b50505b60006097600181610944611269565b60016000610b2c611269565b906101000a900460ff1680610b445750610b44610e09565b80610b615750600080610b55611269565b906101000a900460ff16155b610b8f5760405162461bcd60e51b8152600401610b7d9061195c565b60405180910390610b8c6111fe565b50505b6000600181610b9c611269565b906101000a900460ff161590508015610c02576001600061010081610bbf611269565b8160ff02191690831515021790610bd46112c4565b50505060016000806101000a81610be9611269565b8160ff02191690831515021790610bfe6112c4565b5050505b610c0a610e7a565b82609761010081610c19611269565b816001600160a01b0302191690836001600160a01b0316021790610c3b6112c4565b505050610c4782610594565b801561058f5760008061010081610c5c611269565b8160ff02191690831515021790610c716112c4565b505050505050565b610c81610d7f565b6001600160a01b031660006065610c96611269565b906101000a90046001600160a01b03166001600160a01b031614610cde5760405162461bcd60e51b8152600401610ccc90611927565b60405180910390610cdb6111fe565b50505b6001600160a01b038116610d165760405162461bcd60e51b8152600401610d049061183c565b60405180910390610d136111fe565b50505b6001600160a01b03811660006065610d2c611269565b906101000a90046001600160a01b03166001600160a01b03167f8be0079c531659141344cd1fd0a4f28419497f9722a3daafe3b4186f6b6457e060405160405180910390a38060656001816102e5611269565b60005a610d8a61148f565b905090565b600082820183811015610dc65760405162461bcd60e51b8152600401610db490611882565b60405180910390610dc36111fe565b50505b90505b92915050565b600082610dde57506000610dc9565b82820282848281610deb57fe5b0414610dc65760405162461bcd60e51b8152600401610db4906118e6565b6000805a63996d79a5598160e01b8152602081600483336000905af158601d01573d60011458600c01573d6000803e3d621234565260ea61109c528051925060005b6040811015610e6257600082820152602001610e4b565b5050509050600081610e72611312565b159250505090565b60016000610e86611269565b906101000a900460ff1680610e9e5750610e9e610e09565b80610ebb5750600080610eaf611269565b906101000a900460ff16155b610ee95760405162461bcd60e51b8152600401610ed79061195c565b60405180910390610ee66111fe565b50505b6000600181610ef6611269565b906101000a900460ff161590508015610f5c576001600061010081610f19611269565b8160ff02191690831515021790610f2e6112c4565b50505060016000806101000a81610f43611269565b8160ff02191690831515021790610f586112c4565b5050505b610f64610f99565b610f6c61108f565b8015610f965760008061010081610f81611269565b8160ff021916908315150217906103076112c4565b50565b60016000610fa5611269565b906101000a900460ff1680610fbd5750610fbd610e09565b80610fda5750600080610fce611269565b906101000a900460ff16155b6110085760405162461bcd60e51b8152600401610ff69061195c565b604051809103906110056111fe565b50505b6000600181611015611269565b906101000a900460ff161590508015610f6c576001600061010081611038611269565b8160ff0219169083151502179061104d6112c4565b50505060016000806101000a81611062611269565b8160ff021916908315150217906110776112c4565b5050508015610f965760008061010081610f81611269565b6001600061109b611269565b906101000a900460ff16806110b357506110b3610e09565b806110d057506000806110c4611269565b906101000a900460ff16155b6110fe5760405162461bcd60e51b81526004016110ec9061195c565b604051809103906110fb6111fe565b50505b600060018161110b611269565b906101000a900460ff16159050801561117157600160006101008161112e611269565b8160ff021916908315150217906111436112c4565b50505060016000806101000a81611158611269565b8160ff0219169083151502179061116d6112c4565b5050505b600061117b610d7f565b905080606560018161118b611269565b816001600160a01b0302191690836001600160a01b03160217906111ad6112c4565b5050506001600160a01b03811660007f8be0079c531659141344cd1fd0a4f28419497f9722a3daafe3b4186f6b6457e060405160405180910390a3508015610f965760008061010081610f81611269565b632a2a7adb598160e01b8152600481016020815285602082015260005b8681101561123657808601518282016040015260200161121b565b506020828760640184336000905af158601d01573d60011458600c01573d6000803e3d621234565260ea61109c52505050565b6303daa959598160e01b8152836004820152602081602483336000905af158601d01573d60011458600c01573d6000803e3d621234565260ea61109c528051935060005b604081101561058f576000828201526020016112ad565b6322bd64c0598160e01b8152836004820152846024820152600081604483336000905af158601d01573d60011458600c01573d6000803e3d621234565260ea61109c526000815260206112ad565b638435035b598160e01b8152836004820152602081602483336000905af158601d01573d60011458600c01573d6000803e3d621234565260ea61109c52805160008252935060206112ad565b638540661f598160e01b815261138f565b8080831115610dc9575090919050565b8080831015610dc9575090919050565b836004820152846024820152606060448201528660648201526084810160005b888110156113c75780880151828201526020016113af565b506060828960a40184336000905af158601d01573d60011458600c01573d6000803e3d621234565260ea61109c52815160408301513d6000853e8b8b82606087013350600060045af1505961141c8d3d61137f565b8c01611428818761136f565b5b8281101561143d5760008152602001611429565b50929c50505050505050565b63bdbf8c36598160e01b8152602081600483336000905af158601d01573d60011458600c01573d6000803e3d621234565260ea61109c52805160008252935060206112ad565b6373509064598160e01b8152602081600483336000905af158601d01573d60011458600c01573d6000803e3d621234565260ea61109c52805160008252935060206112ad565b80356001600160a01b0381168114610dc9576000806114f26111fe565b505092915050565b600082601f8301126115135780816115106111fe565b50505b813567ffffffffffffffff81111561153257818261152f6111fe565b50505b60206115418182840201611a3e565b828152925080830184820160608085028701840188101561156a576000806115676111fe565b50505b60005b858110156115915761157f898461159d565b8452928401929181019160010161156d565b50505050505092915050565b6000606082840312156115b75780816115b46111fe565b50505b6115c16060611a3e565b90506115cd83836114d5565b81526115dc83602084016115f9565b60208201526115ee83604084016114d5565b604082015292915050565b803560ff81168114610dc9576000806114f26111fe565b60008151905069ffffffffffffffffffff81168114610dc9576000806114f26111fe565b60006020828403121561164e57808161164b6111fe565b50505b61165883836114d5565b9392505050565b6000806040838503121561167a5780816116776111fe565b50505b82356001600160a01b03811681146116995781826116966111fe565b50505b9150602083013567ffffffffffffffff8111156116bd5781826116ba6111fe565b50505b6116c9858286016114fa565b9150509250929050565b6000806000606084860312156116f05780816116ed6111fe565b50505b6116fa85856114d5565b925061170985602086016115f9565b915061171885604086016114d5565b90509250925092565b60006020828403121561173b5780816117386111fe565b50505b813567ffffffffffffffff81111561175a5781826117576111fe565b50505b610880848285016114fa565b600080600080600060a086880312156117865780816117836111fe565b50505b6117908787611610565b94506020860151935060408601519250606086015191506117b48760808801611610565b90509295509295909350565b6001600160a01b0391909116815260200190565b6001600160a01b03938416815260ff929092166020830152909116604082015260600190565b901515815260200190565b60208082526017908201527f436861696e6c696e6b2070726963652065787069726564000000000000000000604082015260600190565b60208082526026908201527f4f776e61626c653a206e6577206f776e657220697320746865207a65726f206160408201526564647265737360d01b606082015260800190565b6020808252601b908201527f536166654d6174683a206164646974696f6e206f766572666c6f770000000000604082015260600190565b6020808252601390820152725072696365206e6f7420617661696c61626c6560681b604082015260600190565b60208082526021908201527f536166654d6174683a206d756c7469706c69636174696f6e206f766572666c6f6040820152607760f81b606082015260800190565b6020808252818101527f4f776e61626c653a2063616c6c6572206973206e6f7420746865206f776e6572604082015260600190565b6020808252602e908201527f436f6e747261637420696e7374616e63652068617320616c726561647920626560408201526d195b881a5b9a5d1a585b1a5e995960921b606082015260800190565b6020808252601a908201527f50726963652061676772656761746f72206e6f7420666f756e64000000000000604082015260600190565b60208082526010908201526f141c9a58d94819d95d0819985a5b195960821b604082015260600190565b90815260200190565b60ff91909116815260200190565b60ff9290921682526001600160a01b0316602082015260400190565b6000604051905081810181811067ffffffffffffffff82111715611a6a57600080611a676111fe565b50505b60405291905056",
  "linkReferences": {},
  "deployedLinkReferences": {}
}