{
  "_format": "hh-sol-artifact-1",
  "contractName": "TxDataUtils",
  "sourceName": "contracts/utils/TxDataUtils.sol",
  "abi": [
    {
      "inputs": [
        {
          "internalType": "bytes32",
          "name": "data",
          "type": "bytes32"
        }
      ],
      "name": "convert32toAddress",
      "outputs": [
        {
          "internalType": "address",
          "name": "o",
          "type": "address"
        }
      ],
      "stateMutability": "pure",
      "type": "function"
    },
    {
      "inputs": [
        {
          "internalType": "bytes",
          "name": "data",
          "type": "bytes"
        },
        {
          "internalType": "uint8",
          "name": "inputNum",
          "type": "uint8"
        },
        {
          "internalType": "uint8",
          "name": "arrayIndex",
          "type": "uint8"
        }
      ],
      "name": "getArrayIndex",
      "outputs": [
        {
          "internalType": "bytes32",
          "name": "",
          "type": "bytes32"
        }
      ],
      "stateMutability": "pure",
      "type": "function"
    },
    {
      "inputs": [
        {
          "internalType": "bytes",
          "name": "data",
          "type": "bytes"
        },
        {
          "internalType": "uint8",
          "name": "inputNum",
          "type": "uint8"
        }
      ],
      "name": "getArrayLast",
      "outputs": [
        {
          "internalType": "bytes32",
          "name": "",
          "type": "bytes32"
        }
      ],
      "stateMutability": "pure",
      "type": "function"
    },
    {
      "inputs": [
        {
          "internalType": "bytes",
          "name": "data",
          "type": "bytes"
        },
        {
          "internalType": "uint8",
          "name": "inputNum",
          "type": "uint8"
        }
      ],
      "name": "getArrayLength",
      "outputs": [
        {
          "internalType": "uint256",
          "name": "",
          "type": "uint256"
        }
      ],
      "stateMutability": "pure",
      "type": "function"
    },
    {
      "inputs": [
        {
          "internalType": "bytes",
          "name": "data",
          "type": "bytes"
        },
        {
          "internalType": "uint8",
          "name": "inputNum",
          "type": "uint8"
        },
        {
          "internalType": "uint256",
          "name": "offset",
          "type": "uint256"
        }
      ],
      "name": "getBytes",
      "outputs": [
        {
          "internalType": "bytes",
          "name": "",
          "type": "bytes"
        }
      ],
      "stateMutability": "pure",
      "type": "function"
    },
    {
      "inputs": [
        {
          "internalType": "bytes",
          "name": "data",
          "type": "bytes"
        },
        {
          "internalType": "uint8",
          "name": "inputNum",
          "type": "uint8"
        }
      ],
      "name": "getInput",
      "outputs": [
        {
          "internalType": "bytes32",
          "name": "",
          "type": "bytes32"
        }
      ],
      "stateMutability": "pure",
      "type": "function"
    },
    {
      "inputs": [
        {
          "internalType": "bytes",
          "name": "data",
          "type": "bytes"
        }
      ],
      "name": "getMethod",
      "outputs": [
        {
          "internalType": "bytes4",
          "name": "",
          "type": "bytes4"
        }
      ],
      "stateMutability": "pure",
      "type": "function"
    },
    {
      "inputs": [
        {
          "internalType": "bytes",
          "name": "data",
          "type": "bytes"
        }
      ],
      "name": "getParams",
      "outputs": [
        {
          "internalType": "bytes",
          "name": "",
          "type": "bytes"
        }
      ],
      "stateMutability": "pure",
      "type": "function"
    },
    {
      "inputs": [
        {
          "internalType": "bytes",
          "name": "data",
          "type": "bytes"
        },
        {
          "internalType": "uint256",
          "name": "offset",
          "type": "uint256"
        },
        {
          "internalType": "uint256",
          "name": "length",
          "type": "uint256"
        }
      ],
      "name": "read32",
      "outputs": [
        {
          "internalType": "bytes32",
          "name": "o",
          "type": "bytes32"
        }
      ],
      "stateMutability": "pure",
      "type": "function"
    },
    {
      "inputs": [
        {
          "internalType": "bytes",
          "name": "data",
          "type": "bytes"
        },
        {
          "internalType": "uint256",
          "name": "offset",
          "type": "uint256"
        }
      ],
      "name": "read4left",
      "outputs": [
        {
          "internalType": "bytes4",
          "name": "o",
          "type": "bytes4"
        }
      ],
      "stateMutability": "pure",
      "type": "function"
    }
  ],
  "bytecode": "0x608060405234801561001057600080fd5b50610c65806100206000396000f3fe608060405234801561001057600080fd5b506004361061009e5760003560e01c80636890151311610066578063689015131461042f57806382f86acc146104d3578063998546e31461057c578063c3c6279f14610625578063db896b57146106c95761009e565b806309ff5c7d146100a35780631053f9521461015e5780631eba30771461027f578063293d8063146102b857806341dc16c31461037b575b600080fd5b61014c600480360360408110156100b957600080fd5b810190602081018135600160201b8111156100d357600080fd5b8201836020820111156100e557600080fd5b803590602001918460018302840111600160201b8311171561010657600080fd5b91908080601f0160208091040260200160405190810160405280939291908181526020018383808284376000920191909152509295505050903560ff1691506107729050565b60408051918252519081900360200190f35b61020a6004803603606081101561017457600080fd5b810190602081018135600160201b81111561018e57600080fd5b8201836020820111156101a057600080fd5b803590602001918460018302840111600160201b831117156101c157600080fd5b91908080601f0160208091040260200160405190810160405280939291908181526020018383808284376000920191909152509295505060ff8335169350505060200135610803565b6040805160208082528351818301528351919283929083019185019080838360005b8381101561024457818101518382015260200161022c565b50505050905090810190601f1680156102715780820380516001836020036101000a031916815260200191505b509250505060405180910390f35b61029c6004803603602081101561029557600080fd5b503561089b565b604080516001600160a01b039092168252519081900360200190f35b61035e600480360360408110156102ce57600080fd5b810190602081018135600160201b8111156102e857600080fd5b8201836020820111156102fa57600080fd5b803590602001918460018302840111600160201b8311171561031b57600080fd5b91908080601f016020809104026020016040519081016040528093929190818152602001838380828437600092019190915250929550509135925061089e915050565b604080516001600160e01b03199092168252519081900360200190f35b61014c6004803603606081101561039157600080fd5b810190602081018135600160201b8111156103ab57600080fd5b8201836020820111156103bd57600080fd5b803590602001918460018302840111600160201b831117156103de57600080fd5b91908080601f0160208091040260200160405190810160405280939291908181526020018383808284376000920191909152509295505060ff83358116945060209093013590921691506109029050565b61020a6004803603602081101561044557600080fd5b810190602081018135600160201b81111561045f57600080fd5b82018360208201111561047157600080fd5b803590602001918460018302840111600160201b8311171561049257600080fd5b91908080601f0160208091040260200160405190810160405280939291908181526020018383808284376000920191909152509295506109e0945050505050565b61014c600480360360408110156104e957600080fd5b810190602081018135600160201b81111561050357600080fd5b82018360208201111561051557600080fd5b803590602001918460018302840111600160201b8311171561053657600080fd5b91908080601f0160208091040260200160405190810160405280939291908181526020018383808284376000920191909152509295505050903560ff169150610a019050565b61014c6004803603604081101561059257600080fd5b810190602081018135600160201b8111156105ac57600080fd5b8201836020820111156105be57600080fd5b803590602001918460018302840111600160201b831117156105df57600080fd5b91908080601f0160208091040260200160405190810160405280939291908181526020018383808284376000920191909152509295505050903560ff169150610a1f9050565b61035e6004803603602081101561063b57600080fd5b810190602081018135600160201b81111561065557600080fd5b82018360208201111561066757600080fd5b803590602001918460018302840111600160201b8311171561068857600080fd5b91908080601f016020809104026020016040519081016040528093929190818152602001838380828437600092019190915250929550610a50945050505050565b61014c600480360360608110156106df57600080fd5b810190602081018135600160201b8111156106f957600080fd5b82018360208201111561070b57600080fd5b803590602001918460018302840111600160201b8311171561072c57600080fd5b91908080601f0160208091040260200160405190810160405280939291908181526020018383808284376000920191909152509295505082359350505060200135610a5d565b60008061078a848460200260040160ff166020610a5d565b9050600061079d85600484016020610a5d565b9050806107e6576040805162461bcd60e51b8152602060048201526012602482015271696e707574206973206e6f7420617272617960701b604482015290519081900360640190fd5b6107fa856020808402850160040190610a5d565b95945050505050565b60606014821061084b576040805162461bcd60e51b815260206004820152600e60248201526d1a5b9d985b1a59081bd9999cd95d60921b604482015290519081900360640190fd5b816020029150600061086a85848660200260040160ff16016020610a5d565b9050600061087f868584016004016020610a5d565b90506108918660248487010183610ade565b9695505050505050565b90565b600081600401835110156108f9576040805162461bcd60e51b815260206004820152601b60248201527f52656164696e67206279746573206f7574206f6620626f756e64730000000000604482015290519081900360640190fd5b50016020015190565b60008061091a858560200260040160ff166020610a5d565b9050600061092d86600484016020610a5d565b905080610976576040805162461bcd60e51b8152602060048201526012602482015271696e707574206973206e6f7420617272617960701b604482015290519081900360640190fd5b60ff841681116109c6576040805162461bcd60e51b815260206004820152601660248201527534b73b30b634b21030b93930bc903837b9b4ba34b7b760511b604482015290519081900360640190fd5b610891866020600160ff8816018102850160040190610a5d565b60606109fb60048084510384610ade9092919063ffffffff16565b92915050565b6000610a18838360200260040160ff166020610a5d565b9392505050565b600080610a37848460200260040160ff166020610a5d565b9050610a4884600483016020610a5d565b949350505050565b60006109fb82600061089e565b600081830184511015610ab7576040805162461bcd60e51b815260206004820152601b60248201527f52656164696e67206279746573206f7574206f6620626f756e64730000000000604482015290519081900360640190fd5b826020018401519050816020038015610ad6576008810260020a820491505b509392505050565b60608182601f011015610b29576040805162461bcd60e51b815260206004820152600e60248201526d736c6963655f6f766572666c6f7760901b604482015290519081900360640190fd5b828284011015610b71576040805162461bcd60e51b815260206004820152600e60248201526d736c6963655f6f766572666c6f7760901b604482015290519081900360640190fd5b81830184511015610bbd576040805162461bcd60e51b8152602060048201526011602482015270736c6963655f6f75744f66426f756e647360781b604482015290519081900360640190fd5b606082158015610bdc5760405191506000825260208201604052610c26565b6040519150601f8416801560200281840101858101878315602002848b0101015b81831015610c15578051835260209283019201610bfd565b5050858452601f01601f1916604052505b5094935050505056fea2646970667358221220ae51fbffe9c79871f1370c3e959994602e44d02bb1d1fb58e633d801fb2babb964736f6c634300060c0033",
  "linkReferences": {},
  "deployedLinkReferences": {}
}