{
  "_format": "hh-sol-artifact-1",
  "contractName": "TxDataUtils-ovm",
  "sourceName": "contracts/utils/TxDataUtils.sol",
  "abi": [
    {
      "inputs": [
        {
          "internalType": "bytes32",
          "name": "data",
          "type": "bytes32"
        }
      ],
      "name": "convert32toAddress",
      "outputs": [
        {
          "internalType": "address",
          "name": "o",
          "type": "address"
        }
      ],
      "stateMutability": "pure",
      "type": "function"
    },
    {
      "inputs": [
        {
          "internalType": "bytes",
          "name": "data",
          "type": "bytes"
        },
        {
          "internalType": "uint8",
          "name": "inputNum",
          "type": "uint8"
        },
        {
          "internalType": "uint8",
          "name": "arrayIndex",
          "type": "uint8"
        }
      ],
      "name": "getArrayIndex",
      "outputs": [
        {
          "internalType": "bytes32",
          "name": "",
          "type": "bytes32"
        }
      ],
      "stateMutability": "pure",
      "type": "function"
    },
    {
      "inputs": [
        {
          "internalType": "bytes",
          "name": "data",
          "type": "bytes"
        },
        {
          "internalType": "uint8",
          "name": "inputNum",
          "type": "uint8"
        }
      ],
      "name": "getArrayLast",
      "outputs": [
        {
          "internalType": "bytes32",
          "name": "",
          "type": "bytes32"
        }
      ],
      "stateMutability": "pure",
      "type": "function"
    },
    {
      "inputs": [
        {
          "internalType": "bytes",
          "name": "data",
          "type": "bytes"
        },
        {
          "internalType": "uint8",
          "name": "inputNum",
          "type": "uint8"
        }
      ],
      "name": "getArrayLength",
      "outputs": [
        {
          "internalType": "uint256",
          "name": "",
          "type": "uint256"
        }
      ],
      "stateMutability": "pure",
      "type": "function"
    },
    {
      "inputs": [
        {
          "internalType": "bytes",
          "name": "data",
          "type": "bytes"
        },
        {
          "internalType": "uint8",
          "name": "inputNum",
          "type": "uint8"
        },
        {
          "internalType": "uint256",
          "name": "offset",
          "type": "uint256"
        }
      ],
      "name": "getBytes",
      "outputs": [
        {
          "internalType": "bytes",
          "name": "",
          "type": "bytes"
        }
      ],
      "stateMutability": "pure",
      "type": "function"
    },
    {
      "inputs": [
        {
          "internalType": "bytes",
          "name": "data",
          "type": "bytes"
        },
        {
          "internalType": "uint8",
          "name": "inputNum",
          "type": "uint8"
        }
      ],
      "name": "getInput",
      "outputs": [
        {
          "internalType": "bytes32",
          "name": "",
          "type": "bytes32"
        }
      ],
      "stateMutability": "pure",
      "type": "function"
    },
    {
      "inputs": [
        {
          "internalType": "bytes",
          "name": "data",
          "type": "bytes"
        }
      ],
      "name": "getMethod",
      "outputs": [
        {
          "internalType": "bytes4",
          "name": "",
          "type": "bytes4"
        }
      ],
      "stateMutability": "pure",
      "type": "function"
    },
    {
      "inputs": [
        {
          "internalType": "bytes",
          "name": "data",
          "type": "bytes"
        }
      ],
      "name": "getParams",
      "outputs": [
        {
          "internalType": "bytes",
          "name": "",
          "type": "bytes"
        }
      ],
      "stateMutability": "pure",
      "type": "function"
    },
    {
      "inputs": [
        {
          "internalType": "bytes",
          "name": "data",
          "type": "bytes"
        },
        {
          "internalType": "uint256",
          "name": "offset",
          "type": "uint256"
        },
        {
          "internalType": "uint256",
          "name": "length",
          "type": "uint256"
        }
      ],
      "name": "read32",
      "outputs": [
        {
          "internalType": "bytes32",
          "name": "o",
          "type": "bytes32"
        }
      ],
      "stateMutability": "pure",
      "type": "function"
    },
    {
      "inputs": [
        {
          "internalType": "bytes",
          "name": "data",
          "type": "bytes"
        },
        {
          "internalType": "uint256",
          "name": "offset",
          "type": "uint256"
        }
      ],
      "name": "read4left",
      "outputs": [
        {
          "internalType": "bytes4",
          "name": "o",
          "type": "bytes4"
        }
      ],
      "stateMutability": "pure",
      "type": "function"
    }
  ],
  "bytecode": "0x60806040523480156100195760008061001661001f565b50505b5061008a565b632a2a7adb598160e01b8152600481016020815285602082015260005b8681101561005757808601518282016040015260200161003c565b506020828760640184336000905af158600e01573d6000803e3d6000fd5b3d6001141558600a015760016000f35b505050565b610e38806100996000396000f3fe608060405234801561001957600080610016610dcd565b50505b50600436106100a75760003560e01c8063689015131161006f57806368901513146104d857806382f86acc1461059f578063998546e31461066b578063c3c6279f14610737578063db896b57146107fe576100a7565b806309ff5c7d146100b55780631053f952146101935780631eba3077146102d9578063293d80631461031b57806341dc16c314610401575b6000806100b2610dcd565b50505b610181600480360360408110156100d4576000806100d1610dcd565b50505b810190602081018135600160201b8111156100f7576000806100f4610dcd565b50505b8201836020820111156101125760008061010f610dcd565b50505b803590602001918460018302840111600160201b8311171561013c57600080610139610dcd565b50505b91908080601f01602080910402602001604051908101604052818152929190602084018383808284376000920191909152509295505050903560ff1691506108ca9050565b60405190815260200160405180910390f35b610262600480360360608110156101b2576000806101af610dcd565b50505b810190602081018135600160201b8111156101d5576000806101d2610dcd565b50505b8201836020820111156101f0576000806101ed610dcd565b50505b803590602001918460018302840111600160201b8311171561021a57600080610217610dcd565b50505b91908080601f01602080910402602001604051908101604052818152929190602084018383808284376000920191909152509295505060ff8335169350505060200135610963565b60405160208082528190810183818151815260200191508051906020019080838360005b8381101561029e578082015183820152602001610286565b50505050905090810190601f1680156102cb5780820380516001836020036101000a031916815260200191505b509250505060405180910390f35b6102ff600480360360208110156102f8576000806102f5610dcd565b50505b5035610a03565b6040516001600160a01b03909116815260200160405180910390f35b6103e46004803603604081101561033a57600080610337610dcd565b50505b810190602081018135600160201b81111561035d5760008061035a610dcd565b50505b82018360208201111561037857600080610375610dcd565b50505b803590602001918460018302840111600160201b831117156103a25760008061039f610dcd565b50505b91908080601f01602080910402602001604051908101604052818152929190602084018383808284376000920191909152509295505091359250610a06915050565b6040516001600160e01b0319909116815260200160405180910390f35b610181600480360360608110156104205760008061041d610dcd565b50505b810190602081018135600160201b81111561044357600080610440610dcd565b50505b82018360208201111561045e5760008061045b610dcd565b50505b803590602001918460018302840111600160201b8311171561048857600080610485610dcd565b50505b91908080601f01602080910402602001604051908101604052818152929190602084018383808284376000920191909152509295505060ff8335811694506020909301359092169150610a779050565b610262600480360360208110156104f7576000806104f4610dcd565b50505b810190602081018135600160201b81111561051a57600080610517610dcd565b50505b82018360208201111561053557600080610532610dcd565b50505b803590602001918460018302840111600160201b8311171561055f5760008061055c610dcd565b50505b91908080601f0160208091040260200160405190810160405281815292919060208401838380828437600092019190915250929550610b65945050505050565b610181600480360360408110156105be576000806105bb610dcd565b50505b810190602081018135600160201b8111156105e1576000806105de610dcd565b50505b8201836020820111156105fc576000806105f9610dcd565b50505b803590602001918460018302840111600160201b8311171561062657600080610623610dcd565b50505b91908080601f01602080910402602001604051908101604052818152929190602084018383808284376000920191909152509295505050903560ff169150610b7f9050565b6101816004803603604081101561068a57600080610687610dcd565b50505b810190602081018135600160201b8111156106ad576000806106aa610dcd565b50505b8201836020820111156106c8576000806106c5610dcd565b50505b803590602001918460018302840111600160201b831117156106f2576000806106ef610dcd565b50505b91908080601f01602080910402602001604051908101604052818152929190602084018383808284376000920191909152509295505050903560ff169150610b9d9050565b6103e46004803603602081101561075657600080610753610dcd565b50505b810190602081018135600160201b81111561077957600080610776610dcd565b50505b82018360208201111561079457600080610791610dcd565b50505b803590602001918460018302840111600160201b831117156107be576000806107bb610dcd565b50505b91908080601f0160208091040260200160405190810160405281815292919060208401838380828437600092019190915250929550610bce945050505050565b6101816004803603606081101561081d5760008061081a610dcd565b50505b810190602081018135600160201b8111156108405760008061083d610dcd565b50505b82018360208201111561085b57600080610858610dcd565b50505b803590602001918460018302840111600160201b8311171561088557600080610882610dcd565b50505b91908080601f01602080910402602001604051908101604052818152929190602084018383808284376000920191909152509295505082359350505060200135610bdb565b6000806108e2848460200260040160ff166020610bdb565b905060006108f585600484016020610bdb565b9050806109465760405162461bcd60e51b8152602060048201526012602482015271696e707574206973206e6f7420617272617960701b604482015260640160405180910390610943610dcd565b50505b61095a856020808402850160040190610bdb565b95945050505050565b6060601482106109b35760405162461bcd60e51b815260206004820152600e60248201526d1a5b9d985b1a59081bd9999cd95d60921b6044820152606401604051809103906109b0610dcd565b50505b81602002915060006109d285848660200260040160ff16016020610bdb565b905060006109e7868584016004016020610bdb565b90506109f98660248487010183610c64565b9695505050505050565b90565b60008160040183511015610a695760405162461bcd60e51b815260206004820152601b60248201527f52656164696e67206279746573206f7574206f6620626f756e64730000000000604482015260640160405180910390610a66610dcd565b50505b816020018301519392505050565b600080610a8f858560200260040160ff166020610bdb565b90506000610aa286600484016020610bdb565b905080610af35760405162461bcd60e51b8152602060048201526012602482015271696e707574206973206e6f7420617272617960701b604482015260640160405180910390610af0610dcd565b50505b60ff84168111610b4b5760405162461bcd60e51b815260206004820152601660248201527534b73b30b634b21030b93930bc903837b9b4ba34b7b760511b604482015260640160405180910390610b48610dcd565b50505b6109f9866020600160ff8816018102850160040190610bdb565b6060610b7960048084518592919003610c64565b92915050565b6000610b96838360200260040160ff166020610bdb565b9392505050565b600080610bb5848460200260040160ff166020610bdb565b9050610bc684600483016020610bdb565b949350505050565b6000610b79826000610a06565b600081830184511015610c3d5760405162461bcd60e51b815260206004820152601b60248201527f52656164696e67206279746573206f7574206f6620626f756e64730000000000604482015260640160405180910390610c3a610dcd565b50505b826020018401519050816020038015610c5c576008810260020a820491505b509392505050565b60608182601f011015610cb75760405162461bcd60e51b815260206004820152600e60248201526d736c6963655f6f766572666c6f7760901b604482015260640160405180910390610cb4610dcd565b50505b828284011015610d075760405162461bcd60e51b815260206004820152600e60248201526d736c6963655f6f766572666c6f7760901b604482015260640160405180910390610d04610dcd565b50505b81830184511015610d5b5760405162461bcd60e51b8152602060048201526011602482015270736c6963655f6f75744f66426f756e647360781b604482015260640160405180910390610d58610dcd565b50505b606082158015610d7a5760405191506000825260208201604052610dc4565b6040519150601f8416801560200281840101858101878315602002848b0101015b81831015610db3578051835260209283019201610d9b565b5050858452601f01601f1916604052505b50949350505050565b632a2a7adb598160e01b8152600481016020815285602082015260005b86811015610e05578086015182820160400152602001610dea565b506020828760640184336000905af158600e01573d6000803e3d6000fd5b3d6001141558600a015760016000f35b50505056",
  "deployedBytecode": "0x608060405234801561001957600080610016610dcd565b50505b50600436106100a75760003560e01c8063689015131161006f57806368901513146104d857806382f86acc1461059f578063998546e31461066b578063c3c6279f14610737578063db896b57146107fe576100a7565b806309ff5c7d146100b55780631053f952146101935780631eba3077146102d9578063293d80631461031b57806341dc16c314610401575b6000806100b2610dcd565b50505b610181600480360360408110156100d4576000806100d1610dcd565b50505b810190602081018135600160201b8111156100f7576000806100f4610dcd565b50505b8201836020820111156101125760008061010f610dcd565b50505b803590602001918460018302840111600160201b8311171561013c57600080610139610dcd565b50505b91908080601f01602080910402602001604051908101604052818152929190602084018383808284376000920191909152509295505050903560ff1691506108ca9050565b60405190815260200160405180910390f35b610262600480360360608110156101b2576000806101af610dcd565b50505b810190602081018135600160201b8111156101d5576000806101d2610dcd565b50505b8201836020820111156101f0576000806101ed610dcd565b50505b803590602001918460018302840111600160201b8311171561021a57600080610217610dcd565b50505b91908080601f01602080910402602001604051908101604052818152929190602084018383808284376000920191909152509295505060ff8335169350505060200135610963565b60405160208082528190810183818151815260200191508051906020019080838360005b8381101561029e578082015183820152602001610286565b50505050905090810190601f1680156102cb5780820380516001836020036101000a031916815260200191505b509250505060405180910390f35b6102ff600480360360208110156102f8576000806102f5610dcd565b50505b5035610a03565b6040516001600160a01b03909116815260200160405180910390f35b6103e46004803603604081101561033a57600080610337610dcd565b50505b810190602081018135600160201b81111561035d5760008061035a610dcd565b50505b82018360208201111561037857600080610375610dcd565b50505b803590602001918460018302840111600160201b831117156103a25760008061039f610dcd565b50505b91908080601f01602080910402602001604051908101604052818152929190602084018383808284376000920191909152509295505091359250610a06915050565b6040516001600160e01b0319909116815260200160405180910390f35b610181600480360360608110156104205760008061041d610dcd565b50505b810190602081018135600160201b81111561044357600080610440610dcd565b50505b82018360208201111561045e5760008061045b610dcd565b50505b803590602001918460018302840111600160201b8311171561048857600080610485610dcd565b50505b91908080601f01602080910402602001604051908101604052818152929190602084018383808284376000920191909152509295505060ff8335811694506020909301359092169150610a779050565b610262600480360360208110156104f7576000806104f4610dcd565b50505b810190602081018135600160201b81111561051a57600080610517610dcd565b50505b82018360208201111561053557600080610532610dcd565b50505b803590602001918460018302840111600160201b8311171561055f5760008061055c610dcd565b50505b91908080601f0160208091040260200160405190810160405281815292919060208401838380828437600092019190915250929550610b65945050505050565b610181600480360360408110156105be576000806105bb610dcd565b50505b810190602081018135600160201b8111156105e1576000806105de610dcd565b50505b8201836020820111156105fc576000806105f9610dcd565b50505b803590602001918460018302840111600160201b8311171561062657600080610623610dcd565b50505b91908080601f01602080910402602001604051908101604052818152929190602084018383808284376000920191909152509295505050903560ff169150610b7f9050565b6101816004803603604081101561068a57600080610687610dcd565b50505b810190602081018135600160201b8111156106ad576000806106aa610dcd565b50505b8201836020820111156106c8576000806106c5610dcd565b50505b803590602001918460018302840111600160201b831117156106f2576000806106ef610dcd565b50505b91908080601f01602080910402602001604051908101604052818152929190602084018383808284376000920191909152509295505050903560ff169150610b9d9050565b6103e46004803603602081101561075657600080610753610dcd565b50505b810190602081018135600160201b81111561077957600080610776610dcd565b50505b82018360208201111561079457600080610791610dcd565b50505b803590602001918460018302840111600160201b831117156107be576000806107bb610dcd565b50505b91908080601f0160208091040260200160405190810160405281815292919060208401838380828437600092019190915250929550610bce945050505050565b6101816004803603606081101561081d5760008061081a610dcd565b50505b810190602081018135600160201b8111156108405760008061083d610dcd565b50505b82018360208201111561085b57600080610858610dcd565b50505b803590602001918460018302840111600160201b8311171561088557600080610882610dcd565b50505b91908080601f01602080910402602001604051908101604052818152929190602084018383808284376000920191909152509295505082359350505060200135610bdb565b6000806108e2848460200260040160ff166020610bdb565b905060006108f585600484016020610bdb565b9050806109465760405162461bcd60e51b8152602060048201526012602482015271696e707574206973206e6f7420617272617960701b604482015260640160405180910390610943610dcd565b50505b61095a856020808402850160040190610bdb565b95945050505050565b6060601482106109b35760405162461bcd60e51b815260206004820152600e60248201526d1a5b9d985b1a59081bd9999cd95d60921b6044820152606401604051809103906109b0610dcd565b50505b81602002915060006109d285848660200260040160ff16016020610bdb565b905060006109e7868584016004016020610bdb565b90506109f98660248487010183610c64565b9695505050505050565b90565b60008160040183511015610a695760405162461bcd60e51b815260206004820152601b60248201527f52656164696e67206279746573206f7574206f6620626f756e64730000000000604482015260640160405180910390610a66610dcd565b50505b816020018301519392505050565b600080610a8f858560200260040160ff166020610bdb565b90506000610aa286600484016020610bdb565b905080610af35760405162461bcd60e51b8152602060048201526012602482015271696e707574206973206e6f7420617272617960701b604482015260640160405180910390610af0610dcd565b50505b60ff84168111610b4b5760405162461bcd60e51b815260206004820152601660248201527534b73b30b634b21030b93930bc903837b9b4ba34b7b760511b604482015260640160405180910390610b48610dcd565b50505b6109f9866020600160ff8816018102850160040190610bdb565b6060610b7960048084518592919003610c64565b92915050565b6000610b96838360200260040160ff166020610bdb565b9392505050565b600080610bb5848460200260040160ff166020610bdb565b9050610bc684600483016020610bdb565b949350505050565b6000610b79826000610a06565b600081830184511015610c3d5760405162461bcd60e51b815260206004820152601b60248201527f52656164696e67206279746573206f7574206f6620626f756e64730000000000604482015260640160405180910390610c3a610dcd565b50505b826020018401519050816020038015610c5c576008810260020a820491505b509392505050565b60608182601f011015610cb75760405162461bcd60e51b815260206004820152600e60248201526d736c6963655f6f766572666c6f7760901b604482015260640160405180910390610cb4610dcd565b50505b828284011015610d075760405162461bcd60e51b815260206004820152600e60248201526d736c6963655f6f766572666c6f7760901b604482015260640160405180910390610d04610dcd565b50505b81830184511015610d5b5760405162461bcd60e51b8152602060048201526011602482015270736c6963655f6f75744f66426f756e647360781b604482015260640160405180910390610d58610dcd565b50505b606082158015610d7a5760405191506000825260208201604052610dc4565b6040519150601f8416801560200281840101858101878315602002848b0101015b81831015610db3578051835260209283019201610d9b565b5050858452601f01601f1916604052505b50949350505050565b632a2a7adb598160e01b8152600481016020815285602082015260005b86811015610e05578086015182820160400152602001610dea565b506020828760640184336000905af158601d01573d60011458600c01573d6000803e3d621234565260ea61109c5250505056",
  "linkReferences": {},
  "deployedLinkReferences": {}
}