{
  "_format": "hh-sol-artifact-1",
  "contractName": "PriceConsumerV3-ovm",
  "sourceName": "contracts/PriceConsumerV3.sol",
  "abi": [
    {
      "inputs": [],
      "stateMutability": "nonpayable",
      "type": "constructor"
    },
    {
      "inputs": [
        {
          "internalType": "bytes32",
          "name": "c__0x963a8c0f",
          "type": "bytes32"
        }
      ],
      "name": "c_0x963a8c0f",
      "outputs": [],
      "stateMutability": "pure",
      "type": "function"
    },
    {
      "inputs": [
        {
          "internalType": "address",
          "name": "_asset",
          "type": "address"
        }
      ],
      "name": "getUSDPrice",
      "outputs": [
        {
          "internalType": "uint256",
          "name": "",
          "type": "uint256"
        }
      ],
      "stateMutability": "view",
      "type": "function"
    }
  ],
  "bytecode": "0x608060405234801561001957600080610016610054565b50505b5061004c7f6fcd44f92f19ab4ae7b5941dda288659c1ad1e97a5b1612e7486fb3705feb69560001b61005160201b60201c565b6100c2565b50565b632a2a7adb598160e01b8152600481016020815285602082015260005b8681101561008f578086015181604084010152602081019050610071565b506020828760640184336000905af158600e01573d6000803e3d6000fd5b3d6001141558600a015760016000f35b505050565b610d70806100d16000396000f3fe608060405234801561001957600080610016610a6d565b50505b506004361061003f5760003560e01c80638b2f0f4f1461004d57806393eff36c146100ae575b60008061004a610a6d565b50505b6100986004803603602081101561006c57600080610069610a6d565b50505b81019080803573ffffffffffffffffffffffffffffffffffffffff1690602001909291905050506100e5565b6040518082815260200191505060405180910390f35b6100e3600480360360208110156100cd576000806100ca610a6d565b50505b81019080803590602001909291905050506109d9565b005b60006101137ff67f2417b3e31f5e2cbad4f04eba4902377630cd90d26f257646545a2bf84f8460001b6109d9565b61013f7f99398754977caf85639e96b210e04976c6abdcbf656093cad55c02aee69f542b60001b6109d9565b61016b7f14edc2f00070db217712b1d5a066a22b6da264b3eeabee8fe1113b93b62dc3f660001b6109d9565b6000600160008473ffffffffffffffffffffffffffffffffffffffff1673ffffffffffffffffffffffffffffffffffffffff1681526020019081526020016000206000906101b7610adb565b906101000a900473ffffffffffffffffffffffffffffffffffffffff1690506102017e49b963a7204d11bd6192994399773ff9941728a05382e023f0d7f8e9f4ce7760001b6109d9565b61022d7f7ac4ff0090418571bff0a30fa14a7fb65daf8cc5e4e857ba967d8c9989d4246660001b6109d9565b6102597f7e39a546a99d56abe41ebc3b601576de2dca5a5e555efc8eb10f9b372b7710c360001b6109d9565b600073ffffffffffffffffffffffffffffffffffffffff168173ffffffffffffffffffffffffffffffffffffffff1614156102e8576040517f08c379a0000000000000000000000000000000000000000000000000000000008152600401808060200182810382526025815260200180610cff60259139604001915050604051809103906102e5610a6d565b50505b6103147f23e0bb287645e47bb882854280519143416c6e0a4b950fbd3755a04c8fd930a560001b6109d9565b6103407f54cb56bf6453b720b41b9a19ad3f4df89a0b2ff0fcb4835e0760cb5cb0e6b6e560001b6109d9565b61036c7f77e5894f2e29688300cafc369817a88d4df05aa12da0fba6ebd80cb1a4edccec60001b6109d9565b600061039a7fb89baaa79829ac26e19e2f6b5be841fa4130f9de8a1ef0618d4f558a11d6d59760001b6109d9565b6103c67f29a423fff5deb2a4fa5462e7006f43f416a06143e16639d7794383358bcac41160001b6109d9565b6000806103d1610adb565b906101000a900460ff166108385761040b7f5f1d27f3b0d401fd5bab36c4a24e62ec3f5d0045659c56fe1e257308befe267560001b6109d9565b6104377f64efdaaf3dabce3750a666d1e73291d77817ab109f5b6762b26e021519c9ae6560001b6109d9565b6104637f785197ff24291e0c6f07cb52bb03b679998995b9e4239c645b5ea5f15c81e12960001b6109d9565b8173ffffffffffffffffffffffffffffffffffffffff1663feaf968c6040518163ffffffff1660e01b815260040160a06040518083038186806104a4610b3e565b1580156104b9576000806104b6610a6d565b50505b505a6104c3610ba1565b505050505092505050801561052a57506040513d60a08110156104ee576000806104eb610a6d565b50505b81019080805190602001909291908051906020019092919080519060200190929190805190602001909291908051906020019092919050505060015b6105e45761055a7f0876bee710acfe84eb418ce9c631a3abf81f3f3afc0805868ec5021e30307d2660001b6109d9565b6105867f340082257eccd5f8b78c4014a92ba9826f6b24555950e527d1b6abc06a81754260001b6109d9565b6040517f08c379a0000000000000000000000000000000000000000000000000000000008152600401808060200182810382526024815260200180610d2460249139604001915050604051809103906105dd610a6d565b5050610833565b6106107fcf3a3ffc0a1c8829a33aab23ebdcd53722dc846bceef25ecf4a4c177579af1fe60001b6109d9565b61063c7fa1e96a03716f9222f105fbfffa14ce67c5369772c9db53cae423bb8bdc15023060001b6109d9565b6106687f30aa93cba7cefea8918aac32d387725c21558139c87462d20eb91408d23c420060001b6109d9565b5a610671610ca1565b61068762015f90846109dc90919063ffffffff16565b10156106e7576040517f08c379a0000000000000000000000000000000000000000000000000000000008152600401808060200182810382526028815260200180610d4860289139604001915050604051809103906106e4610a6d565b50505b6107137f11fba02caa6044c0257eb224cfcbb8cf7721b3dc1a9286f502c00db4d424ea6e60001b6109d9565b61073f7fd2c5b87629deafa9dc752957d58435e7cc9dd96257976bbd76fb9ce4297807af60001b6109d9565b61076b7fca9471dfcec4893cdce4fb7dd0b7a7e0971d761a1a2e9c1768b8adf5d4321f1f60001b6109d9565b6000841315610800576107a07fba132eb20588196a6950c3783f9ddfef93f958351497d5e052852411caaf57a560001b6109d9565b6107cc7f16e3329179f6bcea42713406963fe5cb316f71109007113266dc73eaaf3410e460001b6109d9565b6107f87f017f70c97a727ca5b282ca419cd55fa361adedb24d1d8a39d863c796997c178060001b6109d9565b83955061082d565b61082c7fe6878e3790eac00ec483beb14444ecc8c3c4958ae79cf5cc9c6eb0eea4b3607960001b6109d9565b5b50505050505b610865565b6108647fc2373b3d8ef5baa0e03e89d6f143a6f380aaa47cdd394a5776bfc6dedd47196e60001b6109d9565b5b6108917f4e2e93e35253551079e1eb62032ccad994369be21a78620ed63fe4261c1f0a5b60001b6109d9565b6108bd7fd6c289f94ffcd31e7fde1033c34cf4cd1e3e2a54d2d0809aad571daa9d851f0e60001b6109d9565b6108e97f87e60872230e8b2c310ed78894dc28078fee73a946acffbd2ddcc286549a591b60001b6109d9565b6000811161094b576040517f08c379a0000000000000000000000000000000000000000000000000000000008152600401808060200182810382526024815260200180610d246024913960400191505060405180910390610948610a6d565b50505b6109777f6308e4abcbe6fda9bc7e95aa628401eea08313b8a18abfb2cc396e35b93d295c60001b6109d9565b6109a37fb2463499ada00ae36c561403e716987771939734f19ad1ec2c76d71a49e33f5260001b6109d9565b6109cf7fff4806b626a5582df1c50b0b644c04877473b2f77ee2ff42de5564fe8861a72260001b6109d9565b8092505050919050565b50565b600080828401905083811015610a63576040517f08c379a000000000000000000000000000000000000000000000000000000000815260040180806020018281038252601b8152602001807f536166654d6174683a206164646974696f6e206f766572666c6f77000000000081525060200191505060405180910390610a60610a6d565b50505b8091505092915050565b632a2a7adb598160e01b8152600481016020815285602082015260005b86811015610aa8578086015181604084010152602081019050610a8a565b506020828760640184336000905af158600e01573d6000803e3d6000fd5b3d6001141558600a015760016000f35b505050565b6303daa959598160e01b8152836004820152602081602483336000905af158600e01573d6000803e3d6000fd5b3d6001141558600a015760016000f35b8051935060005b6040811015610b3957600081830152602081019050610b1f565b505050565b638435035b598160e01b8152836004820152602081602483336000905af158600e01573d6000803e3d6000fd5b3d6001141558600a015760016000f35b8051935060005b6040811015610b9c57600081830152602081019050610b82565b505050565b638540661f598160e01b8152610be0565b600081905081831115610bc3578290505b92915050565b600081905081831015610bda578290505b92915050565b836004820152846024820152606060448201528660648201526084810160005b88811015610c1b578088015181830152602081019050610c00565b506060828960a40184336000905af158600e01573d6000803e3d6000fd5b3d6001141558600a015760016000f35b815160408301513d6000853e8b8b82606087013350600060045af15059610c708d3d610bc9565b8c01610c7c8187610bb2565b5b82811015610c945760008152602081019050610c7d565b50839d5050505050505050565b63bdbf8c36598160e01b8152602081600483336000905af158600e01573d6000803e3d6000fd5b3d6001141558600a015760016000f35b8051935060005b6040811015610cf957600081830152602081019050610cdf565b50505056fe5072696365436f6e73756d657256333a2061676772656761746f72206e6f7420666f756e645072696365436f6e73756d657256333a207072696365206e6f7420617661696c61626c655072696365436f6e73756d657256333a20636861696e6c696e6b2070726963652065787069726564",
  "deployedBytecode": "0x608060405234801561001957600080610016610a6d565b50505b506004361061003f5760003560e01c80638b2f0f4f1461004d57806393eff36c146100ae575b60008061004a610a6d565b50505b6100986004803603602081101561006c57600080610069610a6d565b50505b81019080803573ffffffffffffffffffffffffffffffffffffffff1690602001909291905050506100e5565b6040518082815260200191505060405180910390f35b6100e3600480360360208110156100cd576000806100ca610a6d565b50505b81019080803590602001909291905050506109d9565b005b60006101137ff67f2417b3e31f5e2cbad4f04eba4902377630cd90d26f257646545a2bf84f8460001b6109d9565b61013f7f99398754977caf85639e96b210e04976c6abdcbf656093cad55c02aee69f542b60001b6109d9565b61016b7f14edc2f00070db217712b1d5a066a22b6da264b3eeabee8fe1113b93b62dc3f660001b6109d9565b6000600160008473ffffffffffffffffffffffffffffffffffffffff1673ffffffffffffffffffffffffffffffffffffffff1681526020019081526020016000206000906101b7610adb565b906101000a900473ffffffffffffffffffffffffffffffffffffffff1690506102017e49b963a7204d11bd6192994399773ff9941728a05382e023f0d7f8e9f4ce7760001b6109d9565b61022d7f7ac4ff0090418571bff0a30fa14a7fb65daf8cc5e4e857ba967d8c9989d4246660001b6109d9565b6102597f7e39a546a99d56abe41ebc3b601576de2dca5a5e555efc8eb10f9b372b7710c360001b6109d9565b600073ffffffffffffffffffffffffffffffffffffffff168173ffffffffffffffffffffffffffffffffffffffff1614156102e8576040517f08c379a0000000000000000000000000000000000000000000000000000000008152600401808060200182810382526025815260200180610cff60259139604001915050604051809103906102e5610a6d565b50505b6103147f23e0bb287645e47bb882854280519143416c6e0a4b950fbd3755a04c8fd930a560001b6109d9565b6103407f54cb56bf6453b720b41b9a19ad3f4df89a0b2ff0fcb4835e0760cb5cb0e6b6e560001b6109d9565b61036c7f77e5894f2e29688300cafc369817a88d4df05aa12da0fba6ebd80cb1a4edccec60001b6109d9565b600061039a7fb89baaa79829ac26e19e2f6b5be841fa4130f9de8a1ef0618d4f558a11d6d59760001b6109d9565b6103c67f29a423fff5deb2a4fa5462e7006f43f416a06143e16639d7794383358bcac41160001b6109d9565b6000806103d1610adb565b906101000a900460ff166108385761040b7f5f1d27f3b0d401fd5bab36c4a24e62ec3f5d0045659c56fe1e257308befe267560001b6109d9565b6104377f64efdaaf3dabce3750a666d1e73291d77817ab109f5b6762b26e021519c9ae6560001b6109d9565b6104637f785197ff24291e0c6f07cb52bb03b679998995b9e4239c645b5ea5f15c81e12960001b6109d9565b8173ffffffffffffffffffffffffffffffffffffffff1663feaf968c6040518163ffffffff1660e01b815260040160a06040518083038186806104a4610b3e565b1580156104b9576000806104b6610a6d565b50505b505a6104c3610ba1565b505050505092505050801561052a57506040513d60a08110156104ee576000806104eb610a6d565b50505b81019080805190602001909291908051906020019092919080519060200190929190805190602001909291908051906020019092919050505060015b6105e45761055a7f0876bee710acfe84eb418ce9c631a3abf81f3f3afc0805868ec5021e30307d2660001b6109d9565b6105867f340082257eccd5f8b78c4014a92ba9826f6b24555950e527d1b6abc06a81754260001b6109d9565b6040517f08c379a0000000000000000000000000000000000000000000000000000000008152600401808060200182810382526024815260200180610d2460249139604001915050604051809103906105dd610a6d565b5050610833565b6106107fcf3a3ffc0a1c8829a33aab23ebdcd53722dc846bceef25ecf4a4c177579af1fe60001b6109d9565b61063c7fa1e96a03716f9222f105fbfffa14ce67c5369772c9db53cae423bb8bdc15023060001b6109d9565b6106687f30aa93cba7cefea8918aac32d387725c21558139c87462d20eb91408d23c420060001b6109d9565b5a610671610ca1565b61068762015f90846109dc90919063ffffffff16565b10156106e7576040517f08c379a0000000000000000000000000000000000000000000000000000000008152600401808060200182810382526028815260200180610d4860289139604001915050604051809103906106e4610a6d565b50505b6107137f11fba02caa6044c0257eb224cfcbb8cf7721b3dc1a9286f502c00db4d424ea6e60001b6109d9565b61073f7fd2c5b87629deafa9dc752957d58435e7cc9dd96257976bbd76fb9ce4297807af60001b6109d9565b61076b7fca9471dfcec4893cdce4fb7dd0b7a7e0971d761a1a2e9c1768b8adf5d4321f1f60001b6109d9565b6000841315610800576107a07fba132eb20588196a6950c3783f9ddfef93f958351497d5e052852411caaf57a560001b6109d9565b6107cc7f16e3329179f6bcea42713406963fe5cb316f71109007113266dc73eaaf3410e460001b6109d9565b6107f87f017f70c97a727ca5b282ca419cd55fa361adedb24d1d8a39d863c796997c178060001b6109d9565b83955061082d565b61082c7fe6878e3790eac00ec483beb14444ecc8c3c4958ae79cf5cc9c6eb0eea4b3607960001b6109d9565b5b50505050505b610865565b6108647fc2373b3d8ef5baa0e03e89d6f143a6f380aaa47cdd394a5776bfc6dedd47196e60001b6109d9565b5b6108917f4e2e93e35253551079e1eb62032ccad994369be21a78620ed63fe4261c1f0a5b60001b6109d9565b6108bd7fd6c289f94ffcd31e7fde1033c34cf4cd1e3e2a54d2d0809aad571daa9d851f0e60001b6109d9565b6108e97f87e60872230e8b2c310ed78894dc28078fee73a946acffbd2ddcc286549a591b60001b6109d9565b6000811161094b576040517f08c379a0000000000000000000000000000000000000000000000000000000008152600401808060200182810382526024815260200180610d246024913960400191505060405180910390610948610a6d565b50505b6109777f6308e4abcbe6fda9bc7e95aa628401eea08313b8a18abfb2cc396e35b93d295c60001b6109d9565b6109a37fb2463499ada00ae36c561403e716987771939734f19ad1ec2c76d71a49e33f5260001b6109d9565b6109cf7fff4806b626a5582df1c50b0b644c04877473b2f77ee2ff42de5564fe8861a72260001b6109d9565b8092505050919050565b50565b600080828401905083811015610a63576040517f08c379a000000000000000000000000000000000000000000000000000000000815260040180806020018281038252601b8152602001807f536166654d6174683a206164646974696f6e206f766572666c6f77000000000081525060200191505060405180910390610a60610a6d565b50505b8091505092915050565b632a2a7adb598160e01b8152600481016020815285602082015260005b86811015610aa8578086015181604084010152602081019050610a8a565b506020828760640184336000905af158601d01573d60011458600c01573d6000803e3d621234565260ea61109c52505050565b6303daa959598160e01b8152836004820152602081602483336000905af158601d01573d60011458600c01573d6000803e3d621234565260ea61109c528051935060005b6040811015610b3957600081830152602081019050610b1f565b505050565b638435035b598160e01b8152836004820152602081602483336000905af158601d01573d60011458600c01573d6000803e3d621234565260ea61109c528051935060005b6040811015610b9c57600081830152602081019050610b82565b505050565b638540661f598160e01b8152610be0565b600081905081831115610bc3578290505b92915050565b600081905081831015610bda578290505b92915050565b836004820152846024820152606060448201528660648201526084810160005b88811015610c1b578088015181830152602081019050610c00565b506060828960a40184336000905af158601d01573d60011458600c01573d6000803e3d621234565260ea61109c52815160408301513d6000853e8b8b82606087013350600060045af15059610c708d3d610bc9565b8c01610c7c8187610bb2565b5b82811015610c945760008152602081019050610c7d565b50839d5050505050505050565b63bdbf8c36598160e01b8152602081600483336000905af158601d01573d60011458600c01573d6000803e3d621234565260ea61109c528051935060005b6040811015610cf957600081830152602081019050610cdf565b50505056fe5072696365436f6e73756d657256333a2061676772656761746f72206e6f7420666f756e645072696365436f6e73756d657256333a207072696365206e6f7420617661696c61626c655072696365436f6e73756d657256333a20636861696e6c696e6b2070726963652065787069726564",
  "linkReferences": {},
  "deployedLinkReferences": {}
}