{
  "_format": "hh-sol-artifact-1",
  "contractName": "PriceConsumerV3-ovm",
  "sourceName": "contracts/PriceConsumerV3.sol",
  "abi": [
    {
      "inputs": [],
      "stateMutability": "nonpayable",
      "type": "constructor"
    },
    {
      "inputs": [
        {
          "internalType": "address",
          "name": "_asset",
          "type": "address"
        }
      ],
      "name": "getUSDPrice",
      "outputs": [
        {
          "internalType": "uint256",
          "name": "",
          "type": "uint256"
        }
      ],
      "stateMutability": "view",
      "type": "function"
    }
  ],
  "bytecode": "0x60806040523480156100195760008061001661001f565b50505b5061008a565b632a2a7adb598160e01b8152600481016020815285602082015260005b8681101561005757808601518282016040015260200161003c565b506020828760640184336000905af158600e01573d6000803e3d6000fd5b3d6001141558600a015760016000f35b505050565b6107ee806100996000396000f3fe608060405234801561001957600080610016610513565b50505b50600436106100345760003560e01c80638b2f0f4f14610042575b60008061003f610513565b50505b610071600480360360208110156100615760008061005e610513565b50505b50356001600160a01b0316610083565b60405190815260200160405180910390f35b6001600160a01b0381166000908152600160205280604081206000906100a761057e565b6001600160a01b036101009290920a9004169050806101005760405162461bcd60e51b815260040180806020018281038252602581526020018061075c60259139604001915050604051809103906100fd610513565b50505b6000808061010c61057e565b906101000a900460ff1661024c57600080836001600160a01b031663feaf968c6040518163ffffffff1660e01b815260040160a06040518083038186806101516105de565b15801561016657600080610163610513565b50505b505a61017061062a565b505050505015801561018f573d6000803e3d600061018c610513565b50505b505050506040513d60a08110156101ae576000806101ab610513565b50505b81019080805192919060200180519291906020018051929190602001805192919060200180515094975091955050505050505a6101e9610715565b6101f68262015f90610363565b101561023c5760405162461bcd60e51b81526004018080602001828103825260288152602001806107c66028913960400191505060405180910390610239610513565b50505b6000821315610249578192505b50505b600081116102945760405162461bcd60e51b81526004018080602001828103825260248152602001806107816024913960400191505060405180910390610291610513565b50505b6000846001600160a01b031663313ce5676040518163ffffffff1660e01b815260040160206040518083038186806102ca6105de565b1580156102df576000806102dc610513565b50505b505a6102e961062a565b5050505050158015610308573d6000803e3d6000610305610513565b50505b505050506040513d602081101561032757600080610324610513565b50505b81019080805160ff16935061035a92505050600a82900a610354846b204fce5e3e250261100000006103ce565b9061042d565b95945050505050565b6000828201838110156103c55760405162461bcd60e51b815260206004820152601b60248201527f536166654d6174683a206164646974696f6e206f766572666c6f7700000000006044820152606401604051809103906103c2610513565b50505b90505b92915050565b6000826103dd575060006103c8565b828202828482816103ea57fe5b04146103c55760405162461bcd60e51b81526004018080602001828103825260218152602001806107a560219139604001915050604051809103906103c2610513565b60006103c5838360405160408082019052601a81527f536166654d6174683a206469766973696f6e206279207a65726f0000000000006020820152600081836104fd5760405162461bcd60e51b81526004018080602001828103825283818151815260200191508051906020019080838360005b838110156104b95780820151838201526020016104a1565b50505050905090810190601f1680156104e65780820380516001836020036101000a031916815260200191505b5092505050604051809103906104fa610513565b50505b50600083858161050957fe5b0495945050505050565b632a2a7adb598160e01b8152600481016020815285602082015260005b8681101561054b578086015182820160400152602001610530565b506020828760640184336000905af158600e01573d6000803e3d6000fd5b3d6001141558600a015760016000f35b505050565b6303daa959598160e01b8152836004820152602081602483336000905af158600e01573d6000803e3d6000fd5b3d6001141558600a015760016000f35b8051935060005b60408110156105d9576000828201526020016105c2565b505050565b638435035b598160e01b8152836004820152602081602483336000905af158600e01573d6000803e3d6000fd5b3d6001141558600a015760016000f35b805160008252935060206105c2565b638540661f598160e01b815261065b565b80808311156103c8575090919050565b80808310156103c8575090919050565b836004820152846024820152606060448201528660648201526084810160005b8881101561069357808801518282015260200161067b565b506060828960a40184336000905af158600e01573d6000803e3d6000fd5b3d6001141558600a015760016000f35b815160408301513d6000853e8b8b82606087013350600060045af150596106e88d3d61064b565b8c016106f4818761063b565b5b8281101561070957600081526020016106f5565b50929c50505050505050565b63bdbf8c36598160e01b8152602081600483336000905af158600e01573d6000803e3d6000fd5b3d6001141558600a015760016000f35b805160008252935060206105c256fe5072696365436f6e73756d657256333a2061676772656761746f72206e6f7420666f756e645072696365436f6e73756d657256333a207072696365206e6f7420617661696c61626c65536166654d6174683a206d756c7469706c69636174696f6e206f766572666c6f775072696365436f6e73756d657256333a20636861696e6c696e6b2070726963652065787069726564",
  "deployedBytecode": "0x608060405234801561001957600080610016610513565b50505b50600436106100345760003560e01c80638b2f0f4f14610042575b60008061003f610513565b50505b610071600480360360208110156100615760008061005e610513565b50505b50356001600160a01b0316610083565b60405190815260200160405180910390f35b6001600160a01b0381166000908152600160205280604081206000906100a761057e565b6001600160a01b036101009290920a9004169050806101005760405162461bcd60e51b815260040180806020018281038252602581526020018061075c60259139604001915050604051809103906100fd610513565b50505b6000808061010c61057e565b906101000a900460ff1661024c57600080836001600160a01b031663feaf968c6040518163ffffffff1660e01b815260040160a06040518083038186806101516105de565b15801561016657600080610163610513565b50505b505a61017061062a565b505050505015801561018f573d6000803e3d600061018c610513565b50505b505050506040513d60a08110156101ae576000806101ab610513565b50505b81019080805192919060200180519291906020018051929190602001805192919060200180515094975091955050505050505a6101e9610715565b6101f68262015f90610363565b101561023c5760405162461bcd60e51b81526004018080602001828103825260288152602001806107c66028913960400191505060405180910390610239610513565b50505b6000821315610249578192505b50505b600081116102945760405162461bcd60e51b81526004018080602001828103825260248152602001806107816024913960400191505060405180910390610291610513565b50505b6000846001600160a01b031663313ce5676040518163ffffffff1660e01b815260040160206040518083038186806102ca6105de565b1580156102df576000806102dc610513565b50505b505a6102e961062a565b5050505050158015610308573d6000803e3d6000610305610513565b50505b505050506040513d602081101561032757600080610324610513565b50505b81019080805160ff16935061035a92505050600a82900a610354846b204fce5e3e250261100000006103ce565b9061042d565b95945050505050565b6000828201838110156103c55760405162461bcd60e51b815260206004820152601b60248201527f536166654d6174683a206164646974696f6e206f766572666c6f7700000000006044820152606401604051809103906103c2610513565b50505b90505b92915050565b6000826103dd575060006103c8565b828202828482816103ea57fe5b04146103c55760405162461bcd60e51b81526004018080602001828103825260218152602001806107a560219139604001915050604051809103906103c2610513565b60006103c5838360405160408082019052601a81527f536166654d6174683a206469766973696f6e206279207a65726f0000000000006020820152600081836104fd5760405162461bcd60e51b81526004018080602001828103825283818151815260200191508051906020019080838360005b838110156104b95780820151838201526020016104a1565b50505050905090810190601f1680156104e65780820380516001836020036101000a031916815260200191505b5092505050604051809103906104fa610513565b50505b50600083858161050957fe5b0495945050505050565b632a2a7adb598160e01b8152600481016020815285602082015260005b8681101561054b578086015182820160400152602001610530565b506020828760640184336000905af158601d01573d60011458600c01573d6000803e3d621234565260ea61109c52505050565b6303daa959598160e01b8152836004820152602081602483336000905af158601d01573d60011458600c01573d6000803e3d621234565260ea61109c528051935060005b60408110156105d9576000828201526020016105c2565b505050565b638435035b598160e01b8152836004820152602081602483336000905af158601d01573d60011458600c01573d6000803e3d621234565260ea61109c52805160008252935060206105c2565b638540661f598160e01b815261065b565b80808311156103c8575090919050565b80808310156103c8575090919050565b836004820152846024820152606060448201528660648201526084810160005b8881101561069357808801518282015260200161067b565b506060828960a40184336000905af158601d01573d60011458600c01573d6000803e3d621234565260ea61109c52815160408301513d6000853e8b8b82606087013350600060045af150596106e88d3d61064b565b8c016106f4818761063b565b5b8281101561070957600081526020016106f5565b50929c50505050505050565b63bdbf8c36598160e01b8152602081600483336000905af158601d01573d60011458600c01573d6000803e3d621234565260ea61109c52805160008252935060206105c256fe5072696365436f6e73756d657256333a2061676772656761746f72206e6f7420666f756e645072696365436f6e73756d657256333a207072696365206e6f7420617661696c61626c65536166654d6174683a206d756c7469706c69636174696f6e206f766572666c6f775072696365436f6e73756d657256333a20636861696e6c696e6b2070726963652065787069726564",
  "linkReferences": {},
  "deployedLinkReferences": {}
}