{
  "_format": "hh-sol-artifact-1",
  "contractName": "PriceConsumerV3",
  "sourceName": "contracts/PriceConsumerV3.sol",
  "abi": [
    {
      "inputs": [],
      "stateMutability": "nonpayable",
      "type": "constructor"
    },
    {
      "inputs": [
        {
          "internalType": "bytes32",
          "name": "c__0x963a8c0f",
          "type": "bytes32"
        }
      ],
      "name": "c_0x963a8c0f",
      "outputs": [],
      "stateMutability": "pure",
      "type": "function"
    },
    {
      "inputs": [
        {
          "internalType": "address",
          "name": "_asset",
          "type": "address"
        }
      ],
      "name": "getUSDPrice",
      "outputs": [
        {
          "internalType": "uint256",
          "name": "",
          "type": "uint256"
        }
      ],
      "stateMutability": "view",
      "type": "function"
    }
  ],
  "bytecode": "0x608060405234801561001057600080fd5b506100437f6fcd44f92f19ab4ae7b5941dda288659c1ad1e97a5b1612e7486fb3705feb69560001b61004860201b60201c565b61004b565b50565b610a838061005a6000396000f3fe608060405234801561001057600080fd5b50600436106100365760003560e01c80638b2f0f4f1461003b57806393eff36c14610093575b600080fd5b61007d6004803603602081101561005157600080fd5b81019080803573ffffffffffffffffffffffffffffffffffffffff1690602001909291905050506100c1565b6040518082815260200191505060405180910390f35b6100bf600480360360208110156100a957600080fd5b8101908080359060200190929190505050610951565b005b60006100ef7ff67f2417b3e31f5e2cbad4f04eba4902377630cd90d26f257646545a2bf84f8460001b610951565b61011b7f99398754977caf85639e96b210e04976c6abdcbf656093cad55c02aee69f542b60001b610951565b6101477f14edc2f00070db217712b1d5a066a22b6da264b3eeabee8fe1113b93b62dc3f660001b610951565b6000600160008473ffffffffffffffffffffffffffffffffffffffff1673ffffffffffffffffffffffffffffffffffffffff16815260200190815260200160002060009054906101000a900473ffffffffffffffffffffffffffffffffffffffff1690506101d67e49b963a7204d11bd6192994399773ff9941728a05382e023f0d7f8e9f4ce7760001b610951565b6102027f7ac4ff0090418571bff0a30fa14a7fb65daf8cc5e4e857ba967d8c9989d4246660001b610951565b61022e7f7e39a546a99d56abe41ebc3b601576de2dca5a5e555efc8eb10f9b372b7710c360001b610951565b600073ffffffffffffffffffffffffffffffffffffffff168173ffffffffffffffffffffffffffffffffffffffff1614156102b4576040517f08c379a00000000000000000000000000000000000000000000000000000000081526004018080602001828103825260258152602001806109dd6025913960400191505060405180910390fd5b6102e07f23e0bb287645e47bb882854280519143416c6e0a4b950fbd3755a04c8fd930a560001b610951565b61030c7f54cb56bf6453b720b41b9a19ad3f4df89a0b2ff0fcb4835e0760cb5cb0e6b6e560001b610951565b6103387f77e5894f2e29688300cafc369817a88d4df05aa12da0fba6ebd80cb1a4edccec60001b610951565b60006103667fb89baaa79829ac26e19e2f6b5be841fa4130f9de8a1ef0618d4f558a11d6d59760001b610951565b6103927f29a423fff5deb2a4fa5462e7006f43f416a06143e16639d7794383358bcac41160001b610951565b60008054906101000a900460ff166107b9576103d07f5f1d27f3b0d401fd5bab36c4a24e62ec3f5d0045659c56fe1e257308befe267560001b610951565b6103fc7f64efdaaf3dabce3750a666d1e73291d77817ab109f5b6762b26e021519c9ae6560001b610951565b6104287f785197ff24291e0c6f07cb52bb03b679998995b9e4239c645b5ea5f15c81e12960001b610951565b8173ffffffffffffffffffffffffffffffffffffffff1663feaf968c6040518163ffffffff1660e01b815260040160a06040518083038186803b15801561046e57600080fd5b505afa9250505080156104ca57506040513d60a081101561048e57600080fd5b81019080805190602001909291908051906020019092919080519060200190929190805190602001909291908051906020019092919050505060015b610577576104fa7f0876bee710acfe84eb418ce9c631a3abf81f3f3afc0805868ec5021e30307d2660001b610951565b6105267f340082257eccd5f8b78c4014a92ba9826f6b24555950e527d1b6abc06a81754260001b610951565b6040517f08c379a0000000000000000000000000000000000000000000000000000000008152600401808060200182810382526024815260200180610a026024913960400191505060405180910390fd5b6105a37fcf3a3ffc0a1c8829a33aab23ebdcd53722dc846bceef25ecf4a4c177579af1fe60001b610951565b6105cf7fa1e96a03716f9222f105fbfffa14ce67c5369772c9db53cae423bb8bdc15023060001b610951565b6105fb7f30aa93cba7cefea8918aac32d387725c21558139c87462d20eb91408d23c420060001b610951565b4261061262015f908461095490919063ffffffff16565b1015610669576040517f08c379a0000000000000000000000000000000000000000000000000000000008152600401808060200182810382526028815260200180610a266028913960400191505060405180910390fd5b6106957f11fba02caa6044c0257eb224cfcbb8cf7721b3dc1a9286f502c00db4d424ea6e60001b610951565b6106c17fd2c5b87629deafa9dc752957d58435e7cc9dd96257976bbd76fb9ce4297807af60001b610951565b6106ed7fca9471dfcec4893cdce4fb7dd0b7a7e0971d761a1a2e9c1768b8adf5d4321f1f60001b610951565b6000841315610782576107227fba132eb20588196a6950c3783f9ddfef93f958351497d5e052852411caaf57a560001b610951565b61074e7f16e3329179f6bcea42713406963fe5cb316f71109007113266dc73eaaf3410e460001b610951565b61077a7f017f70c97a727ca5b282ca419cd55fa361adedb24d1d8a39d863c796997c178060001b610951565b8395506107af565b6107ae7fe6878e3790eac00ec483beb14444ecc8c3c4958ae79cf5cc9c6eb0eea4b3607960001b610951565b5b50505050506107e6565b6107e57fc2373b3d8ef5baa0e03e89d6f143a6f380aaa47cdd394a5776bfc6dedd47196e60001b610951565b5b6108127f4e2e93e35253551079e1eb62032ccad994369be21a78620ed63fe4261c1f0a5b60001b610951565b61083e7fd6c289f94ffcd31e7fde1033c34cf4cd1e3e2a54d2d0809aad571daa9d851f0e60001b610951565b61086a7f87e60872230e8b2c310ed78894dc28078fee73a946acffbd2ddcc286549a591b60001b610951565b600081116108c3576040517f08c379a0000000000000000000000000000000000000000000000000000000008152600401808060200182810382526024815260200180610a026024913960400191505060405180910390fd5b6108ef7f6308e4abcbe6fda9bc7e95aa628401eea08313b8a18abfb2cc396e35b93d295c60001b610951565b61091b7fb2463499ada00ae36c561403e716987771939734f19ad1ec2c76d71a49e33f5260001b610951565b6109477fff4806b626a5582df1c50b0b644c04877473b2f77ee2ff42de5564fe8861a72260001b610951565b8092505050919050565b50565b6000808284019050838110156109d2576040517f08c379a000000000000000000000000000000000000000000000000000000000815260040180806020018281038252601b8152602001807f536166654d6174683a206164646974696f6e206f766572666c6f77000000000081525060200191505060405180910390fd5b809150509291505056fe5072696365436f6e73756d657256333a2061676772656761746f72206e6f7420666f756e645072696365436f6e73756d657256333a207072696365206e6f7420617661696c61626c655072696365436f6e73756d657256333a20636861696e6c696e6b2070726963652065787069726564a2646970667358221220deeba773efdd26839a0868e007a2c682cfa17af50d5ab7e36fd294b641d2413d64736f6c634300060c0033",
  "linkReferences": {},
  "deployedLinkReferences": {}
}