{
  "_format": "hh-sol-artifact-1",
  "contractName": "PriceConsumerV3",
  "sourceName": "contracts/PriceConsumerV3.sol",
  "abi": [
    {
      "inputs": [],
      "stateMutability": "nonpayable",
      "type": "constructor"
    },
    {
      "inputs": [
        {
          "internalType": "address",
          "name": "_asset",
          "type": "address"
        }
      ],
      "name": "getUSDPrice",
      "outputs": [
        {
          "internalType": "uint256",
          "name": "",
          "type": "uint256"
        }
      ],
      "stateMutability": "view",
      "type": "function"
    }
  ],
  "bytecode": "0x608060405234801561001057600080fd5b50610327806100206000396000f3fe608060405234801561001057600080fd5b506004361061002b5760003560e01c80638b2f0f4f14610030575b600080fd5b6100566004803603602081101561004657600080fd5b50356001600160a01b0316610068565b60408051918252519081900360200190f35b6001600160a01b03808216600090815260016020526040812054909116806100c15760405162461bcd60e51b81526004018080602001828103825260258152602001806102816025913960400191505060405180910390fd5b6000805460ff166101e057816001600160a01b031663feaf968c6040518163ffffffff1660e01b815260040160a06040518083038186803b15801561010557600080fd5b505afa92505050801561014757506040513d60a081101561012557600080fd5b5080516020820151604083015160608401516080909401519293919290919060015b6101825760405162461bcd60e51b81526004018080602001828103825260248152602001806102a66024913960400191505060405180910390fd5b426101908362015f90610226565b10156101cd5760405162461bcd60e51b81526004018080602001828103825260288152602001806102ca6028913960400191505060405180910390fd5b60008413156101da578395505b50505050505b6000811161021f5760405162461bcd60e51b81526004018080602001828103825260248152602001806102a66024913960400191505060405180910390fd5b9392505050565b60008282018381101561021f576040805162461bcd60e51b815260206004820152601b60248201527f536166654d6174683a206164646974696f6e206f766572666c6f770000000000604482015290519081900360640190fdfe5072696365436f6e73756d657256333a2061676772656761746f72206e6f7420666f756e645072696365436f6e73756d657256333a207072696365206e6f7420617661696c61626c655072696365436f6e73756d657256333a20636861696e6c696e6b2070726963652065787069726564a26469706673582212208ba4b9128d0835b5bb49a7d8603920c26cc75e55ee05c9ff5fee5fe9cc002d2264736f6c634300060c0033",
  "linkReferences": {},
  "deployedLinkReferences": {}
}