{
  "_format": "hh-sol-artifact-1",
  "contractName": "InitializableUpgradeabilityProxy",
  "sourceName": "contracts/upgradability/InitializableUpgradeabilityProxy.sol",
  "abi": [
    {
      "anonymous": false,
      "inputs": [
        {
          "indexed": true,
          "internalType": "address",
          "name": "implementation",
          "type": "address"
        }
      ],
      "name": "Upgraded",
      "type": "event"
    },
    {
      "stateMutability": "payable",
      "type": "fallback"
    },
    {
      "inputs": [
        {
          "internalType": "bytes32",
          "name": "c__0x48440863",
          "type": "bytes32"
        }
      ],
      "name": "c_0x48440863",
      "outputs": [],
      "stateMutability": "pure",
      "type": "function"
    },
    {
      "inputs": [
        {
          "internalType": "bytes32",
          "name": "c__0x7ae02a76",
          "type": "bytes32"
        }
      ],
      "name": "c_0x7ae02a76",
      "outputs": [],
      "stateMutability": "pure",
      "type": "function"
    },
    {
      "inputs": [
        {
          "internalType": "bytes32",
          "name": "c__0x9f393e5a",
          "type": "bytes32"
        }
      ],
      "name": "c_0x9f393e5a",
      "outputs": [],
      "stateMutability": "pure",
      "type": "function"
    },
    {
      "inputs": [
        {
          "internalType": "address",
          "name": "_factory",
          "type": "address"
        },
        {
          "internalType": "bytes",
          "name": "_data",
          "type": "bytes"
        },
        {
          "internalType": "uint8",
          "name": "_proxyType",
          "type": "uint8"
        }
      ],
      "name": "initialize",
      "outputs": [],
      "stateMutability": "payable",
      "type": "function"
    },
    {
      "stateMutability": "payable",
      "type": "receive"
    }
  ],
  "bytecode": "0x608060405234801561001057600080fd5b50611362806100206000396000f3fe6080604052600436106100435760003560e01c806399fcc3af1461010c5780639fca148914610147578063a4d57bee14610182578063e74a474a146101bd5761007e565b3661007e576100747fc6b4e05c8886da748779e3730e8c17790f4949c297c98f69c0e25769046b382860001b6102a5565b61007c6102a8565b005b6100aa7f7cac60e495c25cc9e216dd3d679b6fd06d90acd829d30d51b0b95c15961f9ce860001b6102a5565b6100d67fa498bb8916b0b37a35deaa8b1accf938c042e340ce4efc8012c9bc9f2d9a158260001b6102a5565b6101027fb98f83d464d19b3956a82d774c19111c6b015ef12927ca07b8c336ee6ed5c83260001b6102a5565b61010a6102a8565b005b34801561011857600080fd5b506101456004803603602081101561012f57600080fd5b81019080803590602001909291905050506102a5565b005b34801561015357600080fd5b506101806004803603602081101561016a57600080fd5b810190808035906020019092919050505061039e565b005b34801561018e57600080fd5b506101bb600480360360208110156101a557600080fd5b81019080803590602001909291905050506103a1565b005b6102a3600480360360608110156101d357600080fd5b81019080803573ffffffffffffffffffffffffffffffffffffffff1690602001909291908035906020019064010000000081111561021057600080fd5b82018360208201111561022257600080fd5b8035906020019184600183028401116401000000008311171561024457600080fd5b91908080601f016020809104026020016040519081016040528093929190818152602001838380828437600081840152601f19601f820116905080830192505050505050509192919290803560ff1690602001909291905050506103a4565b005b50565b6102d47fcc50f323444403c69b72c742f10568fd580356f98ea0b8a61244432b4b8329aa60001b6102a5565b6103007f91459de950b72cb048d7c2381f9b9aa525ffd2583f54ee2b5d56207fdd63c5f260001b6102a5565b61032c7f2a63a560972ad1e96b63734e142fb213f07cc296632536b43fa61424677948a660001b6102a5565b610334610996565b6103607f77edd1b383a85548630fa7bfd95f57342f38b1ebd03fe4ad3dbba6c3b573793560001b6102a5565b61038c7fb07c5e61b7983b69d2f2e8e63be5cea8d7d53b55b03a0cf98e73a5d19bd6ae6e60001b6102a5565b61039c6103976109c4565b610d0e565b565b50565b50565b6103d07f3a2cb568b5f0c02143f547f22155e22d641ae73b092cf7be91b2a48baf5d27b660001b6103a1565b6103fc7f77b59016394b667c232007d5d7f351405335dadba38fd8efce4f3dfb78997e1d60001b6103a1565b6104287f4808f7f9c1c39002a44520b8cdbe298ebcfcd1cebba3ddda7c3c306fca2cba8060001b6103a1565b6104547f7a97ee10ea7a8eda5e03c8bc7e3f193cb948f9814608c10ad1de4b1b88f60c3760001b6103a1565b600073ffffffffffffffffffffffffffffffffffffffff166104746109c4565b73ffffffffffffffffffffffffffffffffffffffff16146104fd576040517f08c379a000000000000000000000000000000000000000000000000000000000815260040180806020018281038252600d8152602001807f496d706c206e6f74207a65726f0000000000000000000000000000000000000081525060200191505060405180910390fd5b6105297f3a215253b6e6c1dba9e36d7e09433efb0eaab4fbd542af9a2ad7275c15ea576a60001b6103a1565b6105557f8e03d80b97a7e1e6eb80137f094a73f60a308817bab257efd2f68722745dcaea60001b6103a1565b6105817f8de64bd6bbf8d5a366f32c7e120e3cc8c821adb94ed23cb745cfd0bf7f90fff560001b6103a1565b60017f360894a13ba1a3210667c828492db98dca3e2076cc3735a920a3ca505d382bbd60001c0360001b7f360894a13ba1a3210667c828492db98dca3e2076cc3735a920a3ca505d382bbc60001b146105d657fe5b6106027f1bfe6fc8a642589c190af97973b30fc181f621e68ea3fc530134f2c9960d66c760001b6103a1565b61062e7f26da551a6a926ba9dba93b2820059c1008c782601820a25d21c2a8ee4b4d024560001b6103a1565b61063783610d8c565b6106637f062aa06dbe01d194bba31b85e273757d6336e6bf1e87409032d1fc917f1a731760001b6103a1565b61068f7f7e21962afbd4b7de92ac7eeae1bb8c663e2b123195c725e12fb5d71f3863a03160001b6103a1565b61069881610f96565b6106c47ff6e6b478580a83b05883b3e7feb1d09ce95b547c04198ba48de5aee8183acc5e60001b6103a1565b6106f07f8965cdf8c1d2f0888f33a3d43c74902372c94e17b01677d6a81c030f4671307b60001b6103a1565b600082511115610964576107267f115c9352b821f67eac063ff66d255887a6023e7ed2a2043aca73dbe8fb47bd8360001b6103a1565b6107527fbff092917c7b1f4508c4411509a64a2e7be6129d44ca4eb9111fb0e4a900910f60001b6103a1565b61077e7f3f21e28976af0f6f8446da03b470231c7db787d35cec72dc33011588a197501660001b6103a1565b60006107886109c4565b73ffffffffffffffffffffffffffffffffffffffff16836040518082805190602001908083835b602083106107d257805182526020820191506020810190506020830392506107af565b6001836020036101000a038019825116818451168082178552505050505050905001915050600060405180830381855af49150503d8060008114610832576040519150601f19603f3d011682016040523d82523d6000602084013e610837565b606091505b505090506108677f23de363b5e338d9543c99d138b972416e84bfdbb99e884708202df8ce169a3c960001b6103a1565b6108937f015f525def9afaa0242af4bbb13399182ea70edcc69e6160e0f3222180acf68460001b6103a1565b6108bf7f1cc7ae8bc4414ecccd28794dbd32704e951176f54b750d298ea49ccaf9afa56060001b6103a1565b80610932576040517f08c379a000000000000000000000000000000000000000000000000000000000815260040180806020018281038252601a8152602001807f496d706c656d656e746174696f6e20696e6974206661696c656400000000000081525060200191505060405180910390fd5b61095e7f0851853b63f6d8b4dbb98458c7ed10f33f41bb03b22e873c1091d57429c6e39360001b6103a1565b50610991565b6109907f4e41306208c109d267c3db0a422978c4db16e863c7ebbc6603365e29c547b5b060001b6103a1565b5b505050565b6109c27f276b633fb1946cc03b9c844674afbbfa8f3e77bc0ffafeb39b77dabc1886667560001b6102a5565b565b60006109f27f077de034f5c7298f11d849c35541287460ab2175e9265eed7f948784b84b95e260001b61039e565b610a1e7feb5666e3ff94584d3f43ed9d4226fb55c9d5fd656f201fc448d94a7cce59b0fd60001b61039e565b610a4a7fec433353424e2aa184bc7059a893e4fab799c68e834318eccef10e441687f7f360001b61039e565b6000610a787f53ce0dd4617f9997965c4e7a52f203163a3f5c80d8f29d8c471110aca611c11660001b61039e565b610aa47f76c6db1ab825a57a577f977ff80e0f30540ebcfa89671fe345afaa15aff79ae960001b61039e565b60007f360894a13ba1a3210667c828492db98dca3e2076cc3735a920a3ca505d382bbc60001b9050610af87fa5793ed3e454c6da632434d6ad8ba3e21aadb69ec0eaaf4673ec86a9b565275560001b61039e565b80549150610b287fdd8e92d4de16353bc86e626af17fe8b09f1a11017635c855fb0a7fadc4baf2dd60001b61039e565b610b547f3f022d8f69f42c34354a868b842611bc7e9f34010c7962d6223657785b28042860001b61039e565b600073ffffffffffffffffffffffffffffffffffffffff168273ffffffffffffffffffffffffffffffffffffffff161415610bec57610bb57f173b1db32db0581166a1cec716d6f825d30035adb4043fa1faf667f6e1ba39f460001b61039e565b610be17f1b2cc020f945581b6d8d02f38ca4e6283cf5fa2b06ac14a640cb20689274816760001b61039e565b600092505050610d0b565b610c187fbea1bee21992abdd1abf0c189d41f808e091c05595bbba731a69bc489fdcf68e60001b61039e565b610c447f6f9f753bde1a19cfbaba68d5a9e501237dec3e9ffd52d9f8cd9263cdec9ad2b560001b61039e565b610c707fc3f9a96809e79305f42491aae649f233d7b0c9bf585bb625e37e63514c3507c860001b61039e565b8173ffffffffffffffffffffffffffffffffffffffff1663ecef89d5610c94611075565b6040518263ffffffff1660e01b8152600401808260ff16815260200191505060206040518083038186803b158015610ccb57600080fd5b505afa158015610cdf573d6000803e3d6000fd5b505050506040513d6020811015610cf557600080fd5b8101908080519060200190929190505050925050505b90565b610d3a7f6553b3bbf61b84602ae382fedcbbf6290bc154e245b87926d62e3f86240a4bf260001b6102a5565b610d667fde788fbfc1fb399d6b655d570b484725b445d3bb4cf78879e20863a893557b0060001b6102a5565b3660008037600080366000845af43d6000803e8060008114610d87573d6000f35b3d6000fd5b610db87f91eb2693086155afa1a63324ebcb4f2967f172d990060602d776bb717f04d54660001b61039e565b610de47f629ad5a2c2f16cfad67fc9298c8549c3b857d49865451687ff0926b6fa8885c660001b61039e565b610e107fe1c0a344e7e819566bfd4ab41d97f31d1409abbc35ee34d7b4f5161435de78e560001b61039e565b610e3c7f7ab470c380fc0752790480bda347ca04794e83e6222fc0021fccf1cc82a7f62560001b61039e565b610e458161120d565b610eb7576040517f08c379a00000000000000000000000000000000000000000000000000000000081526004018080602001828103825260208152602001807f43616e6e6f742073657420696d706c656d656e746174696f6e20746f20454f4181525060200191505060405180910390fd5b610ee37f70accb29c12468c14362f4b65efb2efa6adf4a1a2aab7e801bde3a803939c05560001b61039e565b610f0f7f6455548ba1bb40a10c79cb9b45afb5f85aea883cd4416e069ce504078869386160001b61039e565b610f3b7f9dde5da54c56e76ac05f69b0d6cfc5337cb767b4473dbbf71901fd6fed42972f60001b61039e565b60007f360894a13ba1a3210667c828492db98dca3e2076cc3735a920a3ca505d382bbc60001b9050610f8f7fee9707930db6602f53581706bde146ff5c1089a64af5fbb50c5be9e9b7f96ab960001b61039e565b8181555050565b610fc27fbc81e88c2edd168034892c20512aa682a4868d292d05737b3dffa83cad7037dc60001b61039e565b610fee7f987d71e7dc06ab5c788f4c9a0129e58572dd551161646eadafc6681843482b3860001b61039e565b61101a7f64f8535121c0c8606762fc4f486ebb7f5b493d79a2c012479e94427203f1aa3460001b61039e565b60007f100000000000000000000000000000000000000000000000000000000000000060001b905061106e7f6824280e261c39488edbfa7a475a691b312d5c522dfa40bf9f6ae2b79bd6840f60001b61039e565b8181555050565b60006110a37f9678d93bcdb7e8ebd2d49fa07be99cbcb83c3977ae8ad3058c2ea2daaefab51e60001b61039e565b6110cf7ff18a944a5a9a44a81768adb2f6707f7dc7b98dad5f0f42f84fb5f333a3acf1b360001b61039e565b6110fb7f3faeaf931136d7c21b99a41ba1c4022c5eef76d609e347679d6dfbf3d117b0ec60001b61039e565b60006111297f9e8b25b038102415cca03a970994a70109eeef5e5be0f613784662482e2e19c660001b61039e565b6111557fdd8cdda75d04b380d725cdb7fa79f7cc8829c6d1df58515e90bfa757016b8a5a60001b61039e565b60007f100000000000000000000000000000000000000000000000000000000000000060001b90506111a97f45c698179387c7d3079bd5738e6b04085f039528bec62a361fcd921001601bae60001b61039e565b805491506111d97f1e9bce0245cc028ace68fe7e6ef5e100315b0879da647cb93eb9c121d3d832b760001b61039e565b6112057f0ec1f28fb7f1c508d86cd00feb7f41ae8d18bfa0c5d0ac20d867bce5a8fccc6460001b61039e565b819250505090565b600061123b7f17b6a0c44ed2f5553cfcbcfdac44c59dff4727457b669adb5d55bd0063077d8b60001b611329565b6112677f2748d44997f6bf7fba63b3249775817425de6f3bc535ba457f02b96c476714e660001b611329565b6112937f4d9960f45a6cd5d5a67ffbf0fec1c641e98a7a63e9fd82635c7d94436118ceb260001b611329565b60006112c17f2da09769987cc7b599e1411a5c3604dd9825e89e29a9890444d270d86d9121b260001b611329565b823b90506112f17fb8684c3fbea589324b71d8ac61740117361d861f5b224982f3a2d46349b3a39060001b611329565b61131d7f2ba6b82a203e9740df351b6f679eff0e15187876af68dd271196c030bd5660d260001b611329565b60008111915050919050565b5056fea2646970667358221220daa7272fbf5803787d0c555b353a611732cd24c163067a780cc8f9a824ef4ac164736f6c634300060c0033",
  "linkReferences": {},
  "deployedLinkReferences": {}
}