{
  "_format": "hh-sol-artifact-1",
  "contractName": "ProxyAdmin",
  "sourceName": "contracts/ProxyAdmin.sol",
  "abi": [
    {
      "anonymous": false,
      "inputs": [
        {
          "indexed": true,
          "internalType": "address",
          "name": "previousOwner",
          "type": "address"
        },
        {
          "indexed": true,
          "internalType": "address",
          "name": "newOwner",
          "type": "address"
        }
      ],
      "name": "OwnershipTransferred",
      "type": "event"
    },
    {
      "inputs": [
        {
          "internalType": "bytes32",
          "name": "c__0x68d1c12b",
          "type": "bytes32"
        }
      ],
      "name": "c_0x68d1c12b",
      "outputs": [],
      "stateMutability": "pure",
      "type": "function"
    },
    {
      "inputs": [
        {
          "internalType": "contract TransparentUpgradeableProxy",
          "name": "proxy",
          "type": "address"
        },
        {
          "internalType": "address",
          "name": "newAdmin",
          "type": "address"
        }
      ],
      "name": "changeProxyAdmin",
      "outputs": [],
      "stateMutability": "nonpayable",
      "type": "function"
    },
    {
      "inputs": [
        {
          "internalType": "contract TransparentUpgradeableProxy",
          "name": "proxy",
          "type": "address"
        }
      ],
      "name": "getProxyAdmin",
      "outputs": [
        {
          "internalType": "address",
          "name": "",
          "type": "address"
        }
      ],
      "stateMutability": "view",
      "type": "function"
    },
    {
      "inputs": [
        {
          "internalType": "contract TransparentUpgradeableProxy",
          "name": "proxy",
          "type": "address"
        }
      ],
      "name": "getProxyImplementation",
      "outputs": [
        {
          "internalType": "address",
          "name": "",
          "type": "address"
        }
      ],
      "stateMutability": "view",
      "type": "function"
    },
    {
      "inputs": [],
      "name": "owner",
      "outputs": [
        {
          "internalType": "address",
          "name": "",
          "type": "address"
        }
      ],
      "stateMutability": "view",
      "type": "function"
    },
    {
      "inputs": [],
      "name": "renounceOwnership",
      "outputs": [],
      "stateMutability": "nonpayable",
      "type": "function"
    },
    {
      "inputs": [
        {
          "internalType": "address",
          "name": "newOwner",
          "type": "address"
        }
      ],
      "name": "transferOwnership",
      "outputs": [],
      "stateMutability": "nonpayable",
      "type": "function"
    },
    {
      "inputs": [
        {
          "internalType": "contract TransparentUpgradeableProxy",
          "name": "proxy",
          "type": "address"
        },
        {
          "internalType": "address",
          "name": "implementation",
          "type": "address"
        }
      ],
      "name": "upgrade",
      "outputs": [],
      "stateMutability": "nonpayable",
      "type": "function"
    },
    {
      "inputs": [
        {
          "internalType": "contract TransparentUpgradeableProxy",
          "name": "proxy",
          "type": "address"
        },
        {
          "internalType": "address",
          "name": "implementation",
          "type": "address"
        },
        {
          "internalType": "bytes",
          "name": "data",
          "type": "bytes"
        }
      ],
      "name": "upgradeAndCall",
      "outputs": [],
      "stateMutability": "nonpayable",
      "type": "function"
    }
  ],
  "bytecode": "0x608060405234801561001057600080fd5b5060006100216100c460201b60201c565b9050806000806101000a81548173ffffffffffffffffffffffffffffffffffffffff021916908373ffffffffffffffffffffffffffffffffffffffff1602179055508073ffffffffffffffffffffffffffffffffffffffff16600073ffffffffffffffffffffffffffffffffffffffff167f8be0079c531659141344cd1fd0a4f28419497f9722a3daafe3b4186f6b6457e060405160405180910390a3506100cc565b600033905090565b6112e8806100db6000396000f3fe608060405234801561001057600080fd5b50600436106100935760003560e01c80638da5cb5b116100665780638da5cb5b146101a25780639623609d146101d657806399a88ec4146102d1578063f2fde38b14610335578063f3b7dead1461037957610093565b8063173d5dee14610098578063204e1c7a146100c6578063715018a6146101345780637eff275e1461013e575b600080fd5b6100c4600480360360208110156100ae57600080fd5b81019080803590602001909291905050506103e7565b005b610108600480360360208110156100dc57600080fd5b81019080803573ffffffffffffffffffffffffffffffffffffffff1690602001909291905050506103ea565b604051808273ffffffffffffffffffffffffffffffffffffffff16815260200191505060405180910390f35b61013c6106a8565b005b6101a06004803603604081101561015457600080fd5b81019080803573ffffffffffffffffffffffffffffffffffffffff169060200190929190803573ffffffffffffffffffffffffffffffffffffffff169060200190929190505050610815565b005b6101aa6109cd565b604051808273ffffffffffffffffffffffffffffffffffffffff16815260200191505060405180910390f35b6102cf600480360360608110156101ec57600080fd5b81019080803573ffffffffffffffffffffffffffffffffffffffff169060200190929190803573ffffffffffffffffffffffffffffffffffffffff1690602001909291908035906020019064010000000081111561024957600080fd5b82018360208201111561025b57600080fd5b8035906020019184600183028401116401000000008311171561027d57600080fd5b91908080601f016020809104026020016040519081016040528093929190818152602001838380828437600081840152601f19601f8201169050808301925050505050505091929192905050506109f6565b005b610333600480360360408110156102e757600080fd5b81019080803573ffffffffffffffffffffffffffffffffffffffff169060200190929190803573ffffffffffffffffffffffffffffffffffffffff169060200190929190505050610c1c565b005b6103776004803603602081101561034b57600080fd5b81019080803573ffffffffffffffffffffffffffffffffffffffff169060200190929190505050610dd4565b005b6103bb6004803603602081101561038f57600080fd5b81019080803573ffffffffffffffffffffffffffffffffffffffff169060200190929190505050610fc6565b604051808273ffffffffffffffffffffffffffffffffffffffff16815260200191505060405180910390f35b50565b60006104187f8f7e96cfabbae685b801ec3a726b9dfe13aaf74703f6da0452cca9d7c088fb6f60001b6103e7565b6104447f29a3f8b194b8b458eb09a12941f512ce3700ead587a4ff2a79c24f45a3e4285c60001b6103e7565b6104707fa4a74156ca3cc3af0d1beb349267fd57611a7b5e9270f31ffbcdcc834edf8f6760001b6103e7565b600060608373ffffffffffffffffffffffffffffffffffffffff1660405180807f5c60da1b000000000000000000000000000000000000000000000000000000008152506004019050600060405180830381855afa9150503d80600081146104f4576040519150601f19603f3d011682016040523d82523d6000602084013e6104f9565b606091505b509150915061052a7f75679b8a1172f1c2b96e8eb0e0ade5d0836203689e7e58395c78977e133943c560001b6103e7565b6105567fec985fd9b30f799862b7a0ff5d2c4a39b253b7bfed1c56eaac6a0a15d829215260001b6103e7565b6105827fabe3458797e3fec609d9bf6cc14ab547e1bbb3275d0be814051732212bc139c260001b6103e7565b816105f5576040517f08c379a00000000000000000000000000000000000000000000000000000000081526004018080602001828103825260138152602001807f4e6565647320746f20626520737563636573730000000000000000000000000081525060200191505060405180910390fd5b6106217f21865ad7c11c88de69b0f02bb43d7633f1f7b9e82fb6e85f558fda597c69db0160001b6103e7565b61064d7f9a0121c0f37f452e4cba1f953fc9366f68512cd7c0e018743ef8ea6ea7d34f0b60001b6103e7565b6106797faea9c4d3cbc0c17f2fcdc9523e222b64571960c147f8f3110e1dad7ba34d44ca60001b6103e7565b80806020019051602081101561068e57600080fd5b810190808051906020019092919050505092505050919050565b6106b0611284565b73ffffffffffffffffffffffffffffffffffffffff166106ce6109cd565b73ffffffffffffffffffffffffffffffffffffffff1614610757576040517f08c379a00000000000000000000000000000000000000000000000000000000081526004018080602001828103825260208152602001807f4f776e61626c653a2063616c6c6572206973206e6f7420746865206f776e657281525060200191505060405180910390fd5b600073ffffffffffffffffffffffffffffffffffffffff1660008054906101000a900473ffffffffffffffffffffffffffffffffffffffff1673ffffffffffffffffffffffffffffffffffffffff167f8be0079c531659141344cd1fd0a4f28419497f9722a3daafe3b4186f6b6457e060405160405180910390a360008060006101000a81548173ffffffffffffffffffffffffffffffffffffffff021916908373ffffffffffffffffffffffffffffffffffffffff160217905550565b61081d611284565b73ffffffffffffffffffffffffffffffffffffffff1661083b6109cd565b73ffffffffffffffffffffffffffffffffffffffff16146108c4576040517f08c379a00000000000000000000000000000000000000000000000000000000081526004018080602001828103825260208152602001807f4f776e61626c653a2063616c6c6572206973206e6f7420746865206f776e657281525060200191505060405180910390fd5b6108f07f2446a62cc540181d19c00fd816e290861f29ccc64940f3a89e85f48f1bc6c8ba60001b6103e7565b61091c7f2e5460c3a9e45a8c96e42f2cc177149744f565421120e6629d4eee33bef5c2a860001b6103e7565b6109487f21cac4a101446c7df4c649d17f12003bc28583436e2a806197fdec8bf48dfbee60001b6103e7565b8173ffffffffffffffffffffffffffffffffffffffff16638f283970826040518263ffffffff1660e01b8152600401808273ffffffffffffffffffffffffffffffffffffffff168152602001915050600060405180830381600087803b1580156109b157600080fd5b505af11580156109c5573d6000803e3d6000fd5b505050505050565b60008060009054906101000a900473ffffffffffffffffffffffffffffffffffffffff16905090565b6109fe611284565b73ffffffffffffffffffffffffffffffffffffffff16610a1c6109cd565b73ffffffffffffffffffffffffffffffffffffffff1614610aa5576040517f08c379a00000000000000000000000000000000000000000000000000000000081526004018080602001828103825260208152602001807f4f776e61626c653a2063616c6c6572206973206e6f7420746865206f776e657281525060200191505060405180910390fd5b610ad17fa2758d8cdd0c5662d1061897e240e5e7e3d9987a7c008bb075ffe12bbc05c9a760001b6103e7565b610afd7f6a50414d79a3d7363c8d1da738c5927cb0dc09deb43a4e8b06e65e6be9e38ab360001b6103e7565b610b297f6d0f45c3189eb43f60b19779d02c7bd2ded68f3fc175f89f7684f9b4157c2b9b60001b6103e7565b8273ffffffffffffffffffffffffffffffffffffffff16634f1ef28683836040518363ffffffff1660e01b8152600401808373ffffffffffffffffffffffffffffffffffffffff16815260200180602001828103825283818151815260200191508051906020019080838360005b83811015610bb2578082015181840152602081019050610b97565b50505050905090810190601f168015610bdf5780820380516001836020036101000a031916815260200191505b509350505050600060405180830381600087803b158015610bff57600080fd5b505af1158015610c13573d6000803e3d6000fd5b50505050505050565b610c24611284565b73ffffffffffffffffffffffffffffffffffffffff16610c426109cd565b73ffffffffffffffffffffffffffffffffffffffff1614610ccb576040517f08c379a00000000000000000000000000000000000000000000000000000000081526004018080602001828103825260208152602001807f4f776e61626c653a2063616c6c6572206973206e6f7420746865206f776e657281525060200191505060405180910390fd5b610cf77f5f06a6ab0d4efed1fb87442a32d2a9105ef2ada614302f0a62111a3ef3e9b03760001b6103e7565b610d237f46f65e256dd47a8be2c9d72f2b7977adc716aea9b90a15b7e9363fb5aea5277460001b6103e7565b610d4f7f6f69f169c366d35f8009bfca0674652a5c29585ab629ab5c7c29611a26b6bd7360001b6103e7565b8173ffffffffffffffffffffffffffffffffffffffff16633659cfe6826040518263ffffffff1660e01b8152600401808273ffffffffffffffffffffffffffffffffffffffff168152602001915050600060405180830381600087803b158015610db857600080fd5b505af1158015610dcc573d6000803e3d6000fd5b505050505050565b610ddc611284565b73ffffffffffffffffffffffffffffffffffffffff16610dfa6109cd565b73ffffffffffffffffffffffffffffffffffffffff1614610e83576040517f08c379a00000000000000000000000000000000000000000000000000000000081526004018080602001828103825260208152602001807f4f776e61626c653a2063616c6c6572206973206e6f7420746865206f776e657281525060200191505060405180910390fd5b600073ffffffffffffffffffffffffffffffffffffffff168173ffffffffffffffffffffffffffffffffffffffff161415610f09576040517f08c379a000000000000000000000000000000000000000000000000000000000815260040180806020018281038252602681526020018061128d6026913960400191505060405180910390fd5b8073ffffffffffffffffffffffffffffffffffffffff1660008054906101000a900473ffffffffffffffffffffffffffffffffffffffff1673ffffffffffffffffffffffffffffffffffffffff167f8be0079c531659141344cd1fd0a4f28419497f9722a3daafe3b4186f6b6457e060405160405180910390a3806000806101000a81548173ffffffffffffffffffffffffffffffffffffffff021916908373ffffffffffffffffffffffffffffffffffffffff16021790555050565b6000610ff47f01d4428566de29656f1b02ee3533f3bd11d4435160485512d0f081c52721704d60001b6103e7565b6110207ff3c208bfbaa8c72fb139d2e2b5184e4b06461335ebee6020a47758621e360ddb60001b6103e7565b61104c7ffa5c3e55cd7e6e111811c8cf4b1ece80cfa20f110daeafe91b345baf8e0b4ba360001b6103e7565b600060608373ffffffffffffffffffffffffffffffffffffffff1660405180807ff851a440000000000000000000000000000000000000000000000000000000008152506004019050600060405180830381855afa9150503d80600081146110d0576040519150601f19603f3d011682016040523d82523d6000602084013e6110d5565b606091505b50915091506111067f3dc800cca84b95c4a65a559235db11f1922ca67cf7bd9c8db72e2df286459cf460001b6103e7565b6111327fa444bfb153a8df57320f21464462d1588fb8f2075304745c1b801047004cd69060001b6103e7565b61115e7f1884b44dd84e90d0d5cc05cb474c642176ce1be348ebfda1515f00e51421c5d560001b6103e7565b816111d1576040517f08c379a00000000000000000000000000000000000000000000000000000000081526004018080602001828103825260138152602001807f4e6565647320746f20626520737563636573730000000000000000000000000081525060200191505060405180910390fd5b6111fd7fb3a15c3443030868d96039579ba2b844bae527d2d45db6c2f92c7d06b64c9c6460001b6103e7565b6112297fc46ba1da2e6c741886eb5425bd6fd617e718c5dc781cb20edd3cdf8a9025684660001b6103e7565b6112557f82ad27ad58bed0c4b429ddedf3be906c2e1194e42fc2f8114fc7df7b402ae7fc60001b6103e7565b80806020019051602081101561126a57600080fd5b810190808051906020019092919050505092505050919050565b60003390509056fe4f776e61626c653a206e6577206f776e657220697320746865207a65726f2061646472657373a26469706673582212207f4486646d7a3164c790030d73d0fc84bf318cd86f9cafb478afc6f8a6fde63164736f6c634300060c0033",
  "linkReferences": {},
  "deployedLinkReferences": {}
}