{
  "_format": "hh-sol-artifact-1",
  "contractName": "ProxyAdmin-ovm",
  "sourceName": "contracts/ProxyAdmin.sol",
  "abi": [
    {
      "anonymous": false,
      "inputs": [
        {
          "indexed": true,
          "internalType": "address",
          "name": "previousOwner",
          "type": "address"
        },
        {
          "indexed": true,
          "internalType": "address",
          "name": "newOwner",
          "type": "address"
        }
      ],
      "name": "OwnershipTransferred",
      "type": "event"
    },
    {
      "inputs": [
        {
          "internalType": "contract TransparentUpgradeableProxy",
          "name": "proxy",
          "type": "address"
        },
        {
          "internalType": "address",
          "name": "newAdmin",
          "type": "address"
        }
      ],
      "name": "changeProxyAdmin",
      "outputs": [],
      "stateMutability": "nonpayable",
      "type": "function"
    },
    {
      "inputs": [
        {
          "internalType": "contract TransparentUpgradeableProxy",
          "name": "proxy",
          "type": "address"
        }
      ],
      "name": "getProxyAdmin",
      "outputs": [
        {
          "internalType": "address",
          "name": "",
          "type": "address"
        }
      ],
      "stateMutability": "view",
      "type": "function"
    },
    {
      "inputs": [
        {
          "internalType": "contract TransparentUpgradeableProxy",
          "name": "proxy",
          "type": "address"
        }
      ],
      "name": "getProxyImplementation",
      "outputs": [
        {
          "internalType": "address",
          "name": "",
          "type": "address"
        }
      ],
      "stateMutability": "view",
      "type": "function"
    },
    {
      "inputs": [],
      "name": "owner",
      "outputs": [
        {
          "internalType": "address",
          "name": "",
          "type": "address"
        }
      ],
      "stateMutability": "view",
      "type": "function"
    },
    {
      "inputs": [],
      "name": "renounceOwnership",
      "outputs": [],
      "stateMutability": "nonpayable",
      "type": "function"
    },
    {
      "inputs": [
        {
          "internalType": "address",
          "name": "newOwner",
          "type": "address"
        }
      ],
      "name": "transferOwnership",
      "outputs": [],
      "stateMutability": "nonpayable",
      "type": "function"
    },
    {
      "inputs": [
        {
          "internalType": "contract TransparentUpgradeableProxy",
          "name": "proxy",
          "type": "address"
        },
        {
          "internalType": "address",
          "name": "implementation",
          "type": "address"
        }
      ],
      "name": "upgrade",
      "outputs": [],
      "stateMutability": "nonpayable",
      "type": "function"
    },
    {
      "inputs": [
        {
          "internalType": "contract TransparentUpgradeableProxy",
          "name": "proxy",
          "type": "address"
        },
        {
          "internalType": "address",
          "name": "implementation",
          "type": "address"
        },
        {
          "internalType": "bytes",
          "name": "data",
          "type": "bytes"
        }
      ],
      "name": "upgradeAndCall",
      "outputs": [],
      "stateMutability": "nonpayable",
      "type": "function"
    }
  ],
  "bytecode": "0x6080604052348015610019576000806100166100a7565b50505b506000610024610097565b9050806000600181610034610112565b816001600160a01b0302191690836001600160a01b0316021790610056610172565b5050506001600160a01b03811660007f8be0079c531659141344cd1fd0a4f28419497f9722a3daafe3b4186f6b6457e060405160405180910390a350610206565b60005a6100a26101c0565b905090565b632a2a7adb598160e01b8152600481016020815285602082015260005b868110156100df5780860151828201604001526020016100c4565b506020828760640184336000905af158600e01573d6000803e3d6000fd5b3d6001141558600a015760016000f35b505050565b6303daa959598160e01b8152836004820152602081602483336000905af158600e01573d6000803e3d6000fd5b3d6001141558600a015760016000f35b8051935060005b604081101561016d57600082820152602001610156565b505050565b6322bd64c0598160e01b8152836004820152846024820152600081604483336000905af158600e01573d6000803e3d6000fd5b3d6001141558600a015760016000f35b600081526020610156565b6373509064598160e01b8152602081600483336000905af158600e01573d6000803e3d6000fd5b3d6001141558600a015760016000f35b80516000825293506020610156565b610cec806102156000396000f3fe60806040523480156100195760008061001661094c565b50505b50600436106100915760003560e01c80639623609d116100645780639623609d1461013357806399a88ec414610215578063f2fde38b1461024c578063f3b7dead1461027b57610091565b8063204e1c7a1461009f578063715018a6146100ea5780637eff275e146100f45780638da5cb5b1461012b575b60008061009c61094c565b50505b6100ce600480360360208110156100be576000806100bb61094c565b50505b50356001600160a01b03166102aa565b6040516001600160a01b03909116815260200160405180910390f35b6100f2610398565b005b6100f2600480360360408110156101135760008061011061094c565b50505b506001600160a01b0381358116916020013516610488565b6100ce610585565b6100f2600480360360608110156101525760008061014f61094c565b50505b6001600160a01b03823581169260208101359091169181019060608101604082013564010000000081111561018f5760008061018c61094c565b50505b8201836020820111156101aa576000806101a761094c565b50505b803590602001918460018302840111640100000000831117156101d5576000806101d261094c565b50505b91908080601f01602080910402602001604051908101604052818152929190602084018383808284376000920191909152509295506105a6945050505050565b6100f2600480360360408110156102345760008061023161094c565b50505b506001600160a01b038135811691602001351661070c565b6100f26004803603602081101561026b5760008061026861094c565b50505b50356001600160a01b03166107c2565b6100ce6004803603602081101561029a5760008061029761094c565b50505b50356001600160a01b031661090a565b6000806060836001600160a01b0316604051635c60da1b60e01b8152600401600060405180830381855a6102dc6109b7565b50505050509150503d8060008114610310576040513d603f01601f191681016040523d815291503d6000602084013e610315565b606091505b50915091508161036a5760405162461bcd60e51b81526020600482015260136024820152724e6565647320746f206265207375636365737360681b60448201526064016040518091039061036761094c565b50505b60208101815160208110156103875760008061038461094c565b50505b810190808051979650505050505050565b6103a061093c565b6001600160a01b03166103b1610585565b6001600160a01b0316146104025760405162461bcd60e51b81526020600482018190526024820152600080516020610ccc8339815191526044820152606401604051809103906103ff61094c565b50505b6000808061040e610aa4565b906101000a90046001600160a01b03166001600160a01b03167f8be0079c531659141344cd1fd0a4f28419497f9722a3daafe3b4186f6b6457e060405160405180910390a3600080600181610461610aa4565b816001600160a01b0302191690836001600160a01b0316021790610483610aff565b505050565b61049061093c565b6001600160a01b03166104a1610585565b6001600160a01b0316146104f25760405162461bcd60e51b81526020600482018190526024820152600080516020610ccc8339815191526044820152606401604051809103906104ef61094c565b50505b816001600160a01b0316638f283970826040516001600160e01b031960e084901b1681526001600160a01b0390911660048201526024016000604051808303816000878061053e610b4d565b1580156105535760008061055061094c565b50505b505a61055d610b99565b50505050505015801561057d573d6000803e3d600061057a61094c565b50505b505050505050565b60008080610591610aa4565b906101000a90046001600160a01b0316905090565b6105ae61093c565b6001600160a01b03166105bf610585565b6001600160a01b0316146106105760405162461bcd60e51b81526020600482018190526024820152600080516020610ccc83398151915260448201526064016040518091039061060d61094c565b50505b826001600160a01b0316634f1ef28683836040518363ffffffff1660e01b815260040180836001600160a01b0316815260200180602001828103825283818151815260200191508051906020019080838360005b8381101561067c578082015183820152602001610664565b50505050905090810190601f1680156106a95780820380516001836020036101000a031916815260200191505b509350505050600060405180830381600087806106c4610b4d565b1580156106d9576000806106d661094c565b50505b505a6106e3610b99565b505050505050158015610703573d6000803e3d600061070061094c565b50505b50505050505050565b61071461093c565b6001600160a01b0316610725610585565b6001600160a01b0316146107765760405162461bcd60e51b81526020600482018190526024820152600080516020610ccc83398151915260448201526064016040518091039061077361094c565b50505b816001600160a01b0316633659cfe6826040516001600160e01b031960e084901b1681526001600160a01b0390911660048201526024016000604051808303816000878061053e610b4d565b6107ca61093c565b6001600160a01b03166107db610585565b6001600160a01b03161461082c5760405162461bcd60e51b81526020600482018190526024820152600080516020610ccc83398151915260448201526064016040518091039061082961094c565b50505b6001600160a01b03811661087a5760405162461bcd60e51b8152600401808060200182810382526026815260200180610ca6602691396040019150506040518091039061087761094c565b50505b806001600160a01b031660008061088f610aa4565b906101000a90046001600160a01b03166001600160a01b03167f8be0079c531659141344cd1fd0a4f28419497f9722a3daafe3b4186f6b6457e060405160405180910390a38060006001816108e2610aa4565b816001600160a01b0302191690836001600160a01b0316021790610904610aff565b50505050565b6000806060836001600160a01b03166040516303e1469160e61b8152600401600060405180830381855a6102dc6109b7565b60005a610947610c5f565b905090565b632a2a7adb598160e01b8152600481016020815285602082015260005b86811015610984578086015182820160400152602001610969565b506020828760640184336000905af158600e01573d6000803e3d6000fd5b3d6001141558600a015760016000f35b505050565b638540661f598160e01b81526109ea565b80808311156109d45750815b92915050565b80808310156109d4575090919050565b836004820152846024820152606060448201528660648201526084810160005b88811015610a22578088015182820152602001610a0a565b506060828960a40184336000905af158600e01573d6000803e3d6000fd5b3d6001141558600a015760016000f35b815160408301513d6000853e8b8b82606087013350600060045af15059610a778d3d6109da565b8c01610a8381876109c8565b5b82811015610a985760008152602001610a84565b50929c50505050505050565b6303daa959598160e01b8152836004820152602081602483336000905af158600e01573d6000803e3d6000fd5b3d6001141558600a015760016000f35b8051935060005b604081101561048357600082820152602001610ae8565b6322bd64c0598160e01b8152836004820152846024820152600081604483336000905af158600e01573d6000803e3d6000fd5b3d6001141558600a015760016000f35b600081526020610ae8565b638435035b598160e01b8152836004820152602081602483336000905af158600e01573d6000803e3d6000fd5b3d6001141558600a015760016000f35b80516000825293506020610ae8565b6385979f76598160e01b8152836004820152846024820152606060448201528760648201526084810160005b89811015610bdd578089015182820152602001610bc5565b506060828a60a40184336000905af158600e01573d6000803e3d6000fd5b3d6001141558600a015760016000f35b815160408301513d6000853e8c8c82606087013350600060045af15059610c328e3d6109da565b8d01610c3e81876109c8565b5b82811015610c535760008152602001610c3f565b50929d50505050505050565b6373509064598160e01b8152602081600483336000905af158600e01573d6000803e3d6000fd5b3d6001141558600a015760016000f35b80516000825293506020610ae856fe4f776e61626c653a206e6577206f776e657220697320746865207a65726f20616464726573734f776e61626c653a2063616c6c6572206973206e6f7420746865206f776e6572",
  "deployedBytecode": "0x60806040523480156100195760008061001661094c565b50505b50600436106100915760003560e01c80639623609d116100645780639623609d1461013357806399a88ec414610215578063f2fde38b1461024c578063f3b7dead1461027b57610091565b8063204e1c7a1461009f578063715018a6146100ea5780637eff275e146100f45780638da5cb5b1461012b575b60008061009c61094c565b50505b6100ce600480360360208110156100be576000806100bb61094c565b50505b50356001600160a01b03166102aa565b6040516001600160a01b03909116815260200160405180910390f35b6100f2610398565b005b6100f2600480360360408110156101135760008061011061094c565b50505b506001600160a01b0381358116916020013516610488565b6100ce610585565b6100f2600480360360608110156101525760008061014f61094c565b50505b6001600160a01b03823581169260208101359091169181019060608101604082013564010000000081111561018f5760008061018c61094c565b50505b8201836020820111156101aa576000806101a761094c565b50505b803590602001918460018302840111640100000000831117156101d5576000806101d261094c565b50505b91908080601f01602080910402602001604051908101604052818152929190602084018383808284376000920191909152509295506105a6945050505050565b6100f2600480360360408110156102345760008061023161094c565b50505b506001600160a01b038135811691602001351661070c565b6100f26004803603602081101561026b5760008061026861094c565b50505b50356001600160a01b03166107c2565b6100ce6004803603602081101561029a5760008061029761094c565b50505b50356001600160a01b031661090a565b6000806060836001600160a01b0316604051635c60da1b60e01b8152600401600060405180830381855a6102dc6109b7565b50505050509150503d8060008114610310576040513d603f01601f191681016040523d815291503d6000602084013e610315565b606091505b50915091508161036a5760405162461bcd60e51b81526020600482015260136024820152724e6565647320746f206265207375636365737360681b60448201526064016040518091039061036761094c565b50505b60208101815160208110156103875760008061038461094c565b50505b810190808051979650505050505050565b6103a061093c565b6001600160a01b03166103b1610585565b6001600160a01b0316146104025760405162461bcd60e51b81526020600482018190526024820152600080516020610ccc8339815191526044820152606401604051809103906103ff61094c565b50505b6000808061040e610aa4565b906101000a90046001600160a01b03166001600160a01b03167f8be0079c531659141344cd1fd0a4f28419497f9722a3daafe3b4186f6b6457e060405160405180910390a3600080600181610461610aa4565b816001600160a01b0302191690836001600160a01b0316021790610483610aff565b505050565b61049061093c565b6001600160a01b03166104a1610585565b6001600160a01b0316146104f25760405162461bcd60e51b81526020600482018190526024820152600080516020610ccc8339815191526044820152606401604051809103906104ef61094c565b50505b816001600160a01b0316638f283970826040516001600160e01b031960e084901b1681526001600160a01b0390911660048201526024016000604051808303816000878061053e610b4d565b1580156105535760008061055061094c565b50505b505a61055d610b99565b50505050505015801561057d573d6000803e3d600061057a61094c565b50505b505050505050565b60008080610591610aa4565b906101000a90046001600160a01b0316905090565b6105ae61093c565b6001600160a01b03166105bf610585565b6001600160a01b0316146106105760405162461bcd60e51b81526020600482018190526024820152600080516020610ccc83398151915260448201526064016040518091039061060d61094c565b50505b826001600160a01b0316634f1ef28683836040518363ffffffff1660e01b815260040180836001600160a01b0316815260200180602001828103825283818151815260200191508051906020019080838360005b8381101561067c578082015183820152602001610664565b50505050905090810190601f1680156106a95780820380516001836020036101000a031916815260200191505b509350505050600060405180830381600087806106c4610b4d565b1580156106d9576000806106d661094c565b50505b505a6106e3610b99565b505050505050158015610703573d6000803e3d600061070061094c565b50505b50505050505050565b61071461093c565b6001600160a01b0316610725610585565b6001600160a01b0316146107765760405162461bcd60e51b81526020600482018190526024820152600080516020610ccc83398151915260448201526064016040518091039061077361094c565b50505b816001600160a01b0316633659cfe6826040516001600160e01b031960e084901b1681526001600160a01b0390911660048201526024016000604051808303816000878061053e610b4d565b6107ca61093c565b6001600160a01b03166107db610585565b6001600160a01b03161461082c5760405162461bcd60e51b81526020600482018190526024820152600080516020610ccc83398151915260448201526064016040518091039061082961094c565b50505b6001600160a01b03811661087a5760405162461bcd60e51b8152600401808060200182810382526026815260200180610ca6602691396040019150506040518091039061087761094c565b50505b806001600160a01b031660008061088f610aa4565b906101000a90046001600160a01b03166001600160a01b03167f8be0079c531659141344cd1fd0a4f28419497f9722a3daafe3b4186f6b6457e060405160405180910390a38060006001816108e2610aa4565b816001600160a01b0302191690836001600160a01b0316021790610904610aff565b50505050565b6000806060836001600160a01b03166040516303e1469160e61b8152600401600060405180830381855a6102dc6109b7565b60005a610947610c5f565b905090565b632a2a7adb598160e01b8152600481016020815285602082015260005b86811015610984578086015182820160400152602001610969565b506020828760640184336000905af158601d01573d60011458600c01573d6000803e3d621234565260ea61109c52505050565b638540661f598160e01b81526109ea565b80808311156109d45750815b92915050565b80808310156109d4575090919050565b836004820152846024820152606060448201528660648201526084810160005b88811015610a22578088015182820152602001610a0a565b506060828960a40184336000905af158601d01573d60011458600c01573d6000803e3d621234565260ea61109c52815160408301513d6000853e8b8b82606087013350600060045af15059610a778d3d6109da565b8c01610a8381876109c8565b5b82811015610a985760008152602001610a84565b50929c50505050505050565b6303daa959598160e01b8152836004820152602081602483336000905af158601d01573d60011458600c01573d6000803e3d621234565260ea61109c528051935060005b604081101561048357600082820152602001610ae8565b6322bd64c0598160e01b8152836004820152846024820152600081604483336000905af158601d01573d60011458600c01573d6000803e3d621234565260ea61109c52600081526020610ae8565b638435035b598160e01b8152836004820152602081602483336000905af158601d01573d60011458600c01573d6000803e3d621234565260ea61109c5280516000825293506020610ae8565b6385979f76598160e01b8152836004820152846024820152606060448201528760648201526084810160005b89811015610bdd578089015182820152602001610bc5565b506060828a60a40184336000905af158601d01573d60011458600c01573d6000803e3d621234565260ea61109c52815160408301513d6000853e8c8c82606087013350600060045af15059610c328e3d6109da565b8d01610c3e81876109c8565b5b82811015610c535760008152602001610c3f565b50929d50505050505050565b6373509064598160e01b8152602081600483336000905af158601d01573d60011458600c01573d6000803e3d621234565260ea61109c5280516000825293506020610ae856fe4f776e61626c653a206e6577206f776e657220697320746865207a65726f20616464726573734f776e61626c653a2063616c6c6572206973206e6f7420746865206f776e6572",
  "linkReferences": {},
  "deployedLinkReferences": {}
}