{
  "_format": "hh-sol-artifact-1",
  "contractName": "ProxyAdmin-ovm",
  "sourceName": "contracts/ProxyAdmin.sol",
  "abi": [
    {
      "anonymous": false,
      "inputs": [
        {
          "indexed": true,
          "internalType": "address",
          "name": "previousOwner",
          "type": "address"
        },
        {
          "indexed": true,
          "internalType": "address",
          "name": "newOwner",
          "type": "address"
        }
      ],
      "name": "OwnershipTransferred",
      "type": "event"
    },
    {
      "inputs": [
        {
          "internalType": "bytes32",
          "name": "c__0x68d1c12b",
          "type": "bytes32"
        }
      ],
      "name": "c_0x68d1c12b",
      "outputs": [],
      "stateMutability": "pure",
      "type": "function"
    },
    {
      "inputs": [
        {
          "internalType": "contract TransparentUpgradeableProxy",
          "name": "proxy",
          "type": "address"
        },
        {
          "internalType": "address",
          "name": "newAdmin",
          "type": "address"
        }
      ],
      "name": "changeProxyAdmin",
      "outputs": [],
      "stateMutability": "nonpayable",
      "type": "function"
    },
    {
      "inputs": [
        {
          "internalType": "contract TransparentUpgradeableProxy",
          "name": "proxy",
          "type": "address"
        }
      ],
      "name": "getProxyAdmin",
      "outputs": [
        {
          "internalType": "address",
          "name": "",
          "type": "address"
        }
      ],
      "stateMutability": "view",
      "type": "function"
    },
    {
      "inputs": [
        {
          "internalType": "contract TransparentUpgradeableProxy",
          "name": "proxy",
          "type": "address"
        }
      ],
      "name": "getProxyImplementation",
      "outputs": [
        {
          "internalType": "address",
          "name": "",
          "type": "address"
        }
      ],
      "stateMutability": "view",
      "type": "function"
    },
    {
      "inputs": [],
      "name": "owner",
      "outputs": [
        {
          "internalType": "address",
          "name": "",
          "type": "address"
        }
      ],
      "stateMutability": "view",
      "type": "function"
    },
    {
      "inputs": [],
      "name": "renounceOwnership",
      "outputs": [],
      "stateMutability": "nonpayable",
      "type": "function"
    },
    {
      "inputs": [
        {
          "internalType": "address",
          "name": "newOwner",
          "type": "address"
        }
      ],
      "name": "transferOwnership",
      "outputs": [],
      "stateMutability": "nonpayable",
      "type": "function"
    },
    {
      "inputs": [
        {
          "internalType": "contract TransparentUpgradeableProxy",
          "name": "proxy",
          "type": "address"
        },
        {
          "internalType": "address",
          "name": "implementation",
          "type": "address"
        }
      ],
      "name": "upgrade",
      "outputs": [],
      "stateMutability": "nonpayable",
      "type": "function"
    },
    {
      "inputs": [
        {
          "internalType": "contract TransparentUpgradeableProxy",
          "name": "proxy",
          "type": "address"
        },
        {
          "internalType": "address",
          "name": "implementation",
          "type": "address"
        },
        {
          "internalType": "bytes",
          "name": "data",
          "type": "bytes"
        }
      ],
      "name": "upgradeAndCall",
      "outputs": [],
      "stateMutability": "nonpayable",
      "type": "function"
    }
  ],
  "bytecode": "0x60806040523480156200001c5760008062000019620000f9565b50505b5060006200002f620000e760201b60201c565b9050806000806101000a816200004462000169565b8173ffffffffffffffffffffffffffffffffffffffff021916908373ffffffffffffffffffffffffffffffffffffffff1602179062000082620001ce565b5050508073ffffffffffffffffffffffffffffffffffffffff16600073ffffffffffffffffffffffffffffffffffffffff167f8be0079c531659141344cd1fd0a4f28419497f9722a3daafe3b4186f6b6457e060405160405180910390a35062000294565b60005a620000f462000235565b905090565b632a2a7adb598160e01b8152600481016020815285602082015260005b868110156200013657808601518160408401015260208101905062000116565b506020828760640184336000905af158600e01573d6000803e3d6000fd5b3d6001141558600a015760016000f35b505050565b6303daa959598160e01b8152836004820152602081602483336000905af158600e01573d6000803e3d6000fd5b3d6001141558600a015760016000f35b8051935060005b6040811015620001c957600081830152602081019050620001ad565b505050565b6322bd64c0598160e01b8152836004820152846024820152600081604483336000905af158600e01573d6000803e3d6000fd5b3d6001141558600a015760016000f35b60005b6040811015620002305760008183015260208101905062000214565b505050565b6373509064598160e01b8152602081600483336000905af158600e01573d6000803e3d6000fd5b3d6001141558600a015760016000f35b8051935060005b60408110156200028f5760008183015260208101905062000273565b505050565b61183680620002a46000396000f3fe608060405234801561001957600080610016611419565b50505b506004361061009c5760003560e01c80638da5cb5b1161006f5780638da5cb5b146101cf5780639623609d1461020357806399a88ec414610322578063f2fde38b1461038f578063f3b7dead146103dc5761009c565b8063173d5dee146100aa578063204e1c7a146100e1578063715018a6146101585780637eff275e14610162575b6000806100a7611419565b50505b6100df600480360360208110156100c9576000806100c6611419565b50505b8101908080359060200190929190505050610453565b005b61012c60048036036020811015610100576000806100fd611419565b50505b81019080803573ffffffffffffffffffffffffffffffffffffffff169060200190929190505050610456565b604051808273ffffffffffffffffffffffffffffffffffffffff16815260200191505060405180910390f35b610160610732565b005b6101cd600480360360408110156101815760008061017e611419565b50505b81019080803573ffffffffffffffffffffffffffffffffffffffff169060200190929190803573ffffffffffffffffffffffffffffffffffffffff1690602001909291905050506108bf565b005b6101d7610aa6565b604051808273ffffffffffffffffffffffffffffffffffffffff16815260200191505060405180910390f35b610320600480360360608110156102225760008061021f611419565b50505b81019080803573ffffffffffffffffffffffffffffffffffffffff169060200190929190803573ffffffffffffffffffffffffffffffffffffffff1690602001909291908035906020019064010000000081111561028857600080610285611419565b50505b8201836020820111156102a3576000806102a0611419565b50505b803590602001918460018302840111640100000000831117156102ce576000806102cb611419565b50505b91908080601f016020809104026020016040519081016040528093929190818152602001838380828437600081840152601f19601f820116905080830192505050505050509192919290505050610ad6565b005b61038d600480360360408110156103415760008061033e611419565b50505b81019080803573ffffffffffffffffffffffffffffffffffffffff169060200190929190803573ffffffffffffffffffffffffffffffffffffffff169060200190929190505050610d2b565b005b6103da600480360360208110156103ae576000806103ab611419565b50505b81019080803573ffffffffffffffffffffffffffffffffffffffff169060200190929190505050610f12565b005b610427600480360360208110156103fb576000806103f8611419565b50505b81019080803573ffffffffffffffffffffffffffffffffffffffff16906020019092919050505061112d565b604051808273ffffffffffffffffffffffffffffffffffffffff16815260200191505060405180910390f35b50565b60006104847f8f7e96cfabbae685b801ec3a726b9dfe13aaf74703f6da0452cca9d7c088fb6f60001b610453565b6104b07f29a3f8b194b8b458eb09a12941f512ce3700ead587a4ff2a79c24f45a3e4285c60001b610453565b6104dc7fa4a74156ca3cc3af0d1beb349267fd57611a7b5e9270f31ffbcdcc834edf8f6760001b610453565b600060608373ffffffffffffffffffffffffffffffffffffffff1660405180807f5c60da1b000000000000000000000000000000000000000000000000000000008152506004019050600060405180830381855a610538611487565b50505050509150503d806000811461056c576040519150601f19603f3d011682016040523d82523d6000602084013e610571565b606091505b50915091506105a27f75679b8a1172f1c2b96e8eb0e0ade5d0836203689e7e58395c78977e133943c560001b610453565b6105ce7fec985fd9b30f799862b7a0ff5d2c4a39b253b7bfed1c56eaac6a0a15d829215260001b610453565b6105fa7fabe3458797e3fec609d9bf6cc14ab547e1bbb3275d0be814051732212bc139c260001b610453565b81610676576040517f08c379a00000000000000000000000000000000000000000000000000000000081526004018080602001828103825260138152602001807f4e6565647320746f20626520737563636573730000000000000000000000000081525060200191505060405180910390610673611419565b50505b6106a27f21865ad7c11c88de69b0f02bb43d7633f1f7b9e82fb6e85f558fda597c69db0160001b610453565b6106ce7f9a0121c0f37f452e4cba1f953fc9366f68512cd7c0e018743ef8ea6ea7d34f0b60001b610453565b6106fa7faea9c4d3cbc0c17f2fcdc9523e222b64571960c147f8f3110e1dad7ba34d44ca60001b610453565b80806020019051602081101561071857600080610715611419565b50505b810190808051906020019092919050505092505050919050565b61073a611409565b73ffffffffffffffffffffffffffffffffffffffff16610758610aa6565b73ffffffffffffffffffffffffffffffffffffffff16146107ea576040517f08c379a00000000000000000000000000000000000000000000000000000000081526004018080602001828103825260208152602001807f4f776e61626c653a2063616c6c6572206973206e6f7420746865206f776e6572815250602001915050604051809103906107e7611419565b50505b600073ffffffffffffffffffffffffffffffffffffffff1660008061080d611587565b906101000a900473ffffffffffffffffffffffffffffffffffffffff1673ffffffffffffffffffffffffffffffffffffffff167f8be0079c531659141344cd1fd0a4f28419497f9722a3daafe3b4186f6b6457e060405160405180910390a360008060006101000a8161087e611587565b8173ffffffffffffffffffffffffffffffffffffffff021916908373ffffffffffffffffffffffffffffffffffffffff160217906108ba6115ea565b505050565b6108c7611409565b73ffffffffffffffffffffffffffffffffffffffff166108e5610aa6565b73ffffffffffffffffffffffffffffffffffffffff1614610977576040517f08c379a00000000000000000000000000000000000000000000000000000000081526004018080602001828103825260208152602001807f4f776e61626c653a2063616c6c6572206973206e6f7420746865206f776e657281525060200191505060405180910390610974611419565b50505b6109a37f2446a62cc540181d19c00fd816e290861f29ccc64940f3a89e85f48f1bc6c8ba60001b610453565b6109cf7f2e5460c3a9e45a8c96e42f2cc177149744f565421120e6629d4eee33bef5c2a860001b610453565b6109fb7f21cac4a101446c7df4c649d17f12003bc28583436e2a806197fdec8bf48dfbee60001b610453565b8173ffffffffffffffffffffffffffffffffffffffff16638f283970826040518263ffffffff1660e01b8152600401808273ffffffffffffffffffffffffffffffffffffffff16815260200191505060006040518083038160008780610a5f61164f565b158015610a7457600080610a71611419565b50505b505a610a7e6116b2565b505050505050158015610a9e573d6000803e3d6000610a9b611419565b50505b505050505050565b600080600090610ab4611587565b906101000a900473ffffffffffffffffffffffffffffffffffffffff16905090565b610ade611409565b73ffffffffffffffffffffffffffffffffffffffff16610afc610aa6565b73ffffffffffffffffffffffffffffffffffffffff1614610b8e576040517f08c379a00000000000000000000000000000000000000000000000000000000081526004018080602001828103825260208152602001807f4f776e61626c653a2063616c6c6572206973206e6f7420746865206f776e657281525060200191505060405180910390610b8b611419565b50505b610bba7fa2758d8cdd0c5662d1061897e240e5e7e3d9987a7c008bb075ffe12bbc05c9a760001b610453565b610be67f6a50414d79a3d7363c8d1da738c5927cb0dc09deb43a4e8b06e65e6be9e38ab360001b610453565b610c127f6d0f45c3189eb43f60b19779d02c7bd2ded68f3fc175f89f7684f9b4157c2b9b60001b610453565b8273ffffffffffffffffffffffffffffffffffffffff16634f1ef28683836040518363ffffffff1660e01b8152600401808373ffffffffffffffffffffffffffffffffffffffff16815260200180602001828103825283818151815260200191508051906020019080838360005b83811015610c9b578082015181840152602081019050610c80565b50505050905090810190601f168015610cc85780820380516001836020036101000a031916815260200191505b50935050505060006040518083038160008780610ce361164f565b158015610cf857600080610cf5611419565b50505b505a610d026116b2565b505050505050158015610d22573d6000803e3d6000610d1f611419565b50505b50505050505050565b610d33611409565b73ffffffffffffffffffffffffffffffffffffffff16610d51610aa6565b73ffffffffffffffffffffffffffffffffffffffff1614610de3576040517f08c379a00000000000000000000000000000000000000000000000000000000081526004018080602001828103825260208152602001807f4f776e61626c653a2063616c6c6572206973206e6f7420746865206f776e657281525060200191505060405180910390610de0611419565b50505b610e0f7f5f06a6ab0d4efed1fb87442a32d2a9105ef2ada614302f0a62111a3ef3e9b03760001b610453565b610e3b7f46f65e256dd47a8be2c9d72f2b7977adc716aea9b90a15b7e9363fb5aea5277460001b610453565b610e677f6f69f169c366d35f8009bfca0674652a5c29585ab629ab5c7c29611a26b6bd7360001b610453565b8173ffffffffffffffffffffffffffffffffffffffff16633659cfe6826040518263ffffffff1660e01b8152600401808273ffffffffffffffffffffffffffffffffffffffff16815260200191505060006040518083038160008780610ecb61164f565b158015610ee057600080610edd611419565b50505b505a610eea6116b2565b505050505050158015610f0a573d6000803e3d6000610f07611419565b50505b505050505050565b610f1a611409565b73ffffffffffffffffffffffffffffffffffffffff16610f38610aa6565b73ffffffffffffffffffffffffffffffffffffffff1614610fca576040517f08c379a00000000000000000000000000000000000000000000000000000000081526004018080602001828103825260208152602001807f4f776e61626c653a2063616c6c6572206973206e6f7420746865206f776e657281525060200191505060405180910390610fc7611419565b50505b600073ffffffffffffffffffffffffffffffffffffffff168173ffffffffffffffffffffffffffffffffffffffff161415611059576040517f08c379a00000000000000000000000000000000000000000000000000000000081526004018080602001828103825260268152602001806118106026913960400191505060405180910390611056611419565b50505b8073ffffffffffffffffffffffffffffffffffffffff1660008061107b611587565b906101000a900473ffffffffffffffffffffffffffffffffffffffff1673ffffffffffffffffffffffffffffffffffffffff167f8be0079c531659141344cd1fd0a4f28419497f9722a3daafe3b4186f6b6457e060405160405180910390a3806000806101000a816110eb611587565b8173ffffffffffffffffffffffffffffffffffffffff021916908373ffffffffffffffffffffffffffffffffffffffff160217906111276115ea565b50505050565b600061115b7f01d4428566de29656f1b02ee3533f3bd11d4435160485512d0f081c52721704d60001b610453565b6111877ff3c208bfbaa8c72fb139d2e2b5184e4b06461335ebee6020a47758621e360ddb60001b610453565b6111b37ffa5c3e55cd7e6e111811c8cf4b1ece80cfa20f110daeafe91b345baf8e0b4ba360001b610453565b600060608373ffffffffffffffffffffffffffffffffffffffff1660405180807ff851a440000000000000000000000000000000000000000000000000000000008152506004019050600060405180830381855a61120f611487565b50505050509150503d8060008114611243576040519150601f19603f3d011682016040523d82523d6000602084013e611248565b606091505b50915091506112797f3dc800cca84b95c4a65a559235db11f1922ca67cf7bd9c8db72e2df286459cf460001b610453565b6112a57fa444bfb153a8df57320f21464462d1588fb8f2075304745c1b801047004cd69060001b610453565b6112d17f1884b44dd84e90d0d5cc05cb474c642176ce1be348ebfda1515f00e51421c5d560001b610453565b8161134d576040517f08c379a00000000000000000000000000000000000000000000000000000000081526004018080602001828103825260138152602001807f4e6565647320746f2062652073756363657373000000000000000000000000008152506020019150506040518091039061134a611419565b50505b6113797fb3a15c3443030868d96039579ba2b844bae527d2d45db6c2f92c7d06b64c9c6460001b610453565b6113a57fc46ba1da2e6c741886eb5425bd6fd617e718c5dc781cb20edd3cdf8a9025684660001b610453565b6113d17f82ad27ad58bed0c4b429ddedf3be906c2e1194e42fc2f8114fc7df7b402ae7fc60001b610453565b8080602001905160208110156113ef576000806113ec611419565b50505b810190808051906020019092919050505092505050919050565b60005a6114146117b2565b905090565b632a2a7adb598160e01b8152600481016020815285602082015260005b86811015611454578086015181604084010152602081019050611436565b506020828760640184336000905af158600e01573d6000803e3d6000fd5b3d6001141558600a015760016000f35b505050565b638540661f598160e01b81526114c6565b6000819050818311156114a9578290505b92915050565b6000819050818310156114c0578290505b92915050565b836004820152846024820152606060448201528660648201526084810160005b888110156115015780880151818301526020810190506114e6565b506060828960a40184336000905af158600e01573d6000803e3d6000fd5b3d6001141558600a015760016000f35b815160408301513d6000853e8b8b82606087013350600060045af150596115568d3d6114af565b8c016115628187611498565b5b8281101561157a5760008152602081019050611563565b50839d5050505050505050565b6303daa959598160e01b8152836004820152602081602483336000905af158600e01573d6000803e3d6000fd5b3d6001141558600a015760016000f35b8051935060005b60408110156115e5576000818301526020810190506115cb565b505050565b6322bd64c0598160e01b8152836004820152846024820152600081604483336000905af158600e01573d6000803e3d6000fd5b3d6001141558600a015760016000f35b60005b604081101561164a57600081830152602081019050611630565b505050565b638435035b598160e01b8152836004820152602081602483336000905af158600e01573d6000803e3d6000fd5b3d6001141558600a015760016000f35b8051935060005b60408110156116ad57600081830152602081019050611693565b505050565b6385979f76598160e01b81526116f1565b6000819050818311156116d4578290505b92915050565b6000819050818310156116eb578290505b92915050565b836004820152846024820152606060448201528760648201526084810160005b8981101561172c578089015181830152602081019050611711565b506060828a60a40184336000905af158600e01573d6000803e3d6000fd5b3d6001141558600a015760016000f35b815160408301513d6000853e8c8c82606087013350600060045af150596117818e3d6116da565b8d0161178d81876116c3565b5b828110156117a5576000815260208101905061178e565b50839e5050505050505050565b6373509064598160e01b8152602081600483336000905af158600e01573d6000803e3d6000fd5b3d6001141558600a015760016000f35b8051935060005b604081101561180a576000818301526020810190506117f0565b50505056fe4f776e61626c653a206e6577206f776e657220697320746865207a65726f2061646472657373",
  "deployedBytecode": "0x608060405234801561001957600080610016611419565b50505b506004361061009c5760003560e01c80638da5cb5b1161006f5780638da5cb5b146101cf5780639623609d1461020357806399a88ec414610322578063f2fde38b1461038f578063f3b7dead146103dc5761009c565b8063173d5dee146100aa578063204e1c7a146100e1578063715018a6146101585780637eff275e14610162575b6000806100a7611419565b50505b6100df600480360360208110156100c9576000806100c6611419565b50505b8101908080359060200190929190505050610453565b005b61012c60048036036020811015610100576000806100fd611419565b50505b81019080803573ffffffffffffffffffffffffffffffffffffffff169060200190929190505050610456565b604051808273ffffffffffffffffffffffffffffffffffffffff16815260200191505060405180910390f35b610160610732565b005b6101cd600480360360408110156101815760008061017e611419565b50505b81019080803573ffffffffffffffffffffffffffffffffffffffff169060200190929190803573ffffffffffffffffffffffffffffffffffffffff1690602001909291905050506108bf565b005b6101d7610aa6565b604051808273ffffffffffffffffffffffffffffffffffffffff16815260200191505060405180910390f35b610320600480360360608110156102225760008061021f611419565b50505b81019080803573ffffffffffffffffffffffffffffffffffffffff169060200190929190803573ffffffffffffffffffffffffffffffffffffffff1690602001909291908035906020019064010000000081111561028857600080610285611419565b50505b8201836020820111156102a3576000806102a0611419565b50505b803590602001918460018302840111640100000000831117156102ce576000806102cb611419565b50505b91908080601f016020809104026020016040519081016040528093929190818152602001838380828437600081840152601f19601f820116905080830192505050505050509192919290505050610ad6565b005b61038d600480360360408110156103415760008061033e611419565b50505b81019080803573ffffffffffffffffffffffffffffffffffffffff169060200190929190803573ffffffffffffffffffffffffffffffffffffffff169060200190929190505050610d2b565b005b6103da600480360360208110156103ae576000806103ab611419565b50505b81019080803573ffffffffffffffffffffffffffffffffffffffff169060200190929190505050610f12565b005b610427600480360360208110156103fb576000806103f8611419565b50505b81019080803573ffffffffffffffffffffffffffffffffffffffff16906020019092919050505061112d565b604051808273ffffffffffffffffffffffffffffffffffffffff16815260200191505060405180910390f35b50565b60006104847f8f7e96cfabbae685b801ec3a726b9dfe13aaf74703f6da0452cca9d7c088fb6f60001b610453565b6104b07f29a3f8b194b8b458eb09a12941f512ce3700ead587a4ff2a79c24f45a3e4285c60001b610453565b6104dc7fa4a74156ca3cc3af0d1beb349267fd57611a7b5e9270f31ffbcdcc834edf8f6760001b610453565b600060608373ffffffffffffffffffffffffffffffffffffffff1660405180807f5c60da1b000000000000000000000000000000000000000000000000000000008152506004019050600060405180830381855a610538611487565b50505050509150503d806000811461056c576040519150601f19603f3d011682016040523d82523d6000602084013e610571565b606091505b50915091506105a27f75679b8a1172f1c2b96e8eb0e0ade5d0836203689e7e58395c78977e133943c560001b610453565b6105ce7fec985fd9b30f799862b7a0ff5d2c4a39b253b7bfed1c56eaac6a0a15d829215260001b610453565b6105fa7fabe3458797e3fec609d9bf6cc14ab547e1bbb3275d0be814051732212bc139c260001b610453565b81610676576040517f08c379a00000000000000000000000000000000000000000000000000000000081526004018080602001828103825260138152602001807f4e6565647320746f20626520737563636573730000000000000000000000000081525060200191505060405180910390610673611419565b50505b6106a27f21865ad7c11c88de69b0f02bb43d7633f1f7b9e82fb6e85f558fda597c69db0160001b610453565b6106ce7f9a0121c0f37f452e4cba1f953fc9366f68512cd7c0e018743ef8ea6ea7d34f0b60001b610453565b6106fa7faea9c4d3cbc0c17f2fcdc9523e222b64571960c147f8f3110e1dad7ba34d44ca60001b610453565b80806020019051602081101561071857600080610715611419565b50505b810190808051906020019092919050505092505050919050565b61073a611409565b73ffffffffffffffffffffffffffffffffffffffff16610758610aa6565b73ffffffffffffffffffffffffffffffffffffffff16146107ea576040517f08c379a00000000000000000000000000000000000000000000000000000000081526004018080602001828103825260208152602001807f4f776e61626c653a2063616c6c6572206973206e6f7420746865206f776e6572815250602001915050604051809103906107e7611419565b50505b600073ffffffffffffffffffffffffffffffffffffffff1660008061080d611587565b906101000a900473ffffffffffffffffffffffffffffffffffffffff1673ffffffffffffffffffffffffffffffffffffffff167f8be0079c531659141344cd1fd0a4f28419497f9722a3daafe3b4186f6b6457e060405160405180910390a360008060006101000a8161087e611587565b8173ffffffffffffffffffffffffffffffffffffffff021916908373ffffffffffffffffffffffffffffffffffffffff160217906108ba6115ea565b505050565b6108c7611409565b73ffffffffffffffffffffffffffffffffffffffff166108e5610aa6565b73ffffffffffffffffffffffffffffffffffffffff1614610977576040517f08c379a00000000000000000000000000000000000000000000000000000000081526004018080602001828103825260208152602001807f4f776e61626c653a2063616c6c6572206973206e6f7420746865206f776e657281525060200191505060405180910390610974611419565b50505b6109a37f2446a62cc540181d19c00fd816e290861f29ccc64940f3a89e85f48f1bc6c8ba60001b610453565b6109cf7f2e5460c3a9e45a8c96e42f2cc177149744f565421120e6629d4eee33bef5c2a860001b610453565b6109fb7f21cac4a101446c7df4c649d17f12003bc28583436e2a806197fdec8bf48dfbee60001b610453565b8173ffffffffffffffffffffffffffffffffffffffff16638f283970826040518263ffffffff1660e01b8152600401808273ffffffffffffffffffffffffffffffffffffffff16815260200191505060006040518083038160008780610a5f61164f565b158015610a7457600080610a71611419565b50505b505a610a7e6116b2565b505050505050158015610a9e573d6000803e3d6000610a9b611419565b50505b505050505050565b600080600090610ab4611587565b906101000a900473ffffffffffffffffffffffffffffffffffffffff16905090565b610ade611409565b73ffffffffffffffffffffffffffffffffffffffff16610afc610aa6565b73ffffffffffffffffffffffffffffffffffffffff1614610b8e576040517f08c379a00000000000000000000000000000000000000000000000000000000081526004018080602001828103825260208152602001807f4f776e61626c653a2063616c6c6572206973206e6f7420746865206f776e657281525060200191505060405180910390610b8b611419565b50505b610bba7fa2758d8cdd0c5662d1061897e240e5e7e3d9987a7c008bb075ffe12bbc05c9a760001b610453565b610be67f6a50414d79a3d7363c8d1da738c5927cb0dc09deb43a4e8b06e65e6be9e38ab360001b610453565b610c127f6d0f45c3189eb43f60b19779d02c7bd2ded68f3fc175f89f7684f9b4157c2b9b60001b610453565b8273ffffffffffffffffffffffffffffffffffffffff16634f1ef28683836040518363ffffffff1660e01b8152600401808373ffffffffffffffffffffffffffffffffffffffff16815260200180602001828103825283818151815260200191508051906020019080838360005b83811015610c9b578082015181840152602081019050610c80565b50505050905090810190601f168015610cc85780820380516001836020036101000a031916815260200191505b50935050505060006040518083038160008780610ce361164f565b158015610cf857600080610cf5611419565b50505b505a610d026116b2565b505050505050158015610d22573d6000803e3d6000610d1f611419565b50505b50505050505050565b610d33611409565b73ffffffffffffffffffffffffffffffffffffffff16610d51610aa6565b73ffffffffffffffffffffffffffffffffffffffff1614610de3576040517f08c379a00000000000000000000000000000000000000000000000000000000081526004018080602001828103825260208152602001807f4f776e61626c653a2063616c6c6572206973206e6f7420746865206f776e657281525060200191505060405180910390610de0611419565b50505b610e0f7f5f06a6ab0d4efed1fb87442a32d2a9105ef2ada614302f0a62111a3ef3e9b03760001b610453565b610e3b7f46f65e256dd47a8be2c9d72f2b7977adc716aea9b90a15b7e9363fb5aea5277460001b610453565b610e677f6f69f169c366d35f8009bfca0674652a5c29585ab629ab5c7c29611a26b6bd7360001b610453565b8173ffffffffffffffffffffffffffffffffffffffff16633659cfe6826040518263ffffffff1660e01b8152600401808273ffffffffffffffffffffffffffffffffffffffff16815260200191505060006040518083038160008780610ecb61164f565b158015610ee057600080610edd611419565b50505b505a610eea6116b2565b505050505050158015610f0a573d6000803e3d6000610f07611419565b50505b505050505050565b610f1a611409565b73ffffffffffffffffffffffffffffffffffffffff16610f38610aa6565b73ffffffffffffffffffffffffffffffffffffffff1614610fca576040517f08c379a00000000000000000000000000000000000000000000000000000000081526004018080602001828103825260208152602001807f4f776e61626c653a2063616c6c6572206973206e6f7420746865206f776e657281525060200191505060405180910390610fc7611419565b50505b600073ffffffffffffffffffffffffffffffffffffffff168173ffffffffffffffffffffffffffffffffffffffff161415611059576040517f08c379a00000000000000000000000000000000000000000000000000000000081526004018080602001828103825260268152602001806118106026913960400191505060405180910390611056611419565b50505b8073ffffffffffffffffffffffffffffffffffffffff1660008061107b611587565b906101000a900473ffffffffffffffffffffffffffffffffffffffff1673ffffffffffffffffffffffffffffffffffffffff167f8be0079c531659141344cd1fd0a4f28419497f9722a3daafe3b4186f6b6457e060405160405180910390a3806000806101000a816110eb611587565b8173ffffffffffffffffffffffffffffffffffffffff021916908373ffffffffffffffffffffffffffffffffffffffff160217906111276115ea565b50505050565b600061115b7f01d4428566de29656f1b02ee3533f3bd11d4435160485512d0f081c52721704d60001b610453565b6111877ff3c208bfbaa8c72fb139d2e2b5184e4b06461335ebee6020a47758621e360ddb60001b610453565b6111b37ffa5c3e55cd7e6e111811c8cf4b1ece80cfa20f110daeafe91b345baf8e0b4ba360001b610453565b600060608373ffffffffffffffffffffffffffffffffffffffff1660405180807ff851a440000000000000000000000000000000000000000000000000000000008152506004019050600060405180830381855a61120f611487565b50505050509150503d8060008114611243576040519150601f19603f3d011682016040523d82523d6000602084013e611248565b606091505b50915091506112797f3dc800cca84b95c4a65a559235db11f1922ca67cf7bd9c8db72e2df286459cf460001b610453565b6112a57fa444bfb153a8df57320f21464462d1588fb8f2075304745c1b801047004cd69060001b610453565b6112d17f1884b44dd84e90d0d5cc05cb474c642176ce1be348ebfda1515f00e51421c5d560001b610453565b8161134d576040517f08c379a00000000000000000000000000000000000000000000000000000000081526004018080602001828103825260138152602001807f4e6565647320746f2062652073756363657373000000000000000000000000008152506020019150506040518091039061134a611419565b50505b6113797fb3a15c3443030868d96039579ba2b844bae527d2d45db6c2f92c7d06b64c9c6460001b610453565b6113a57fc46ba1da2e6c741886eb5425bd6fd617e718c5dc781cb20edd3cdf8a9025684660001b610453565b6113d17f82ad27ad58bed0c4b429ddedf3be906c2e1194e42fc2f8114fc7df7b402ae7fc60001b610453565b8080602001905160208110156113ef576000806113ec611419565b50505b810190808051906020019092919050505092505050919050565b60005a6114146117b2565b905090565b632a2a7adb598160e01b8152600481016020815285602082015260005b86811015611454578086015181604084010152602081019050611436565b506020828760640184336000905af158601d01573d60011458600c01573d6000803e3d621234565260ea61109c52505050565b638540661f598160e01b81526114c6565b6000819050818311156114a9578290505b92915050565b6000819050818310156114c0578290505b92915050565b836004820152846024820152606060448201528660648201526084810160005b888110156115015780880151818301526020810190506114e6565b506060828960a40184336000905af158601d01573d60011458600c01573d6000803e3d621234565260ea61109c52815160408301513d6000853e8b8b82606087013350600060045af150596115568d3d6114af565b8c016115628187611498565b5b8281101561157a5760008152602081019050611563565b50839d5050505050505050565b6303daa959598160e01b8152836004820152602081602483336000905af158601d01573d60011458600c01573d6000803e3d621234565260ea61109c528051935060005b60408110156115e5576000818301526020810190506115cb565b505050565b6322bd64c0598160e01b8152836004820152846024820152600081604483336000905af158601d01573d60011458600c01573d6000803e3d621234565260ea61109c5260005b604081101561164a57600081830152602081019050611630565b505050565b638435035b598160e01b8152836004820152602081602483336000905af158601d01573d60011458600c01573d6000803e3d621234565260ea61109c528051935060005b60408110156116ad57600081830152602081019050611693565b505050565b6385979f76598160e01b81526116f1565b6000819050818311156116d4578290505b92915050565b6000819050818310156116eb578290505b92915050565b836004820152846024820152606060448201528760648201526084810160005b8981101561172c578089015181830152602081019050611711565b506060828a60a40184336000905af158601d01573d60011458600c01573d6000803e3d621234565260ea61109c52815160408301513d6000853e8c8c82606087013350600060045af150596117818e3d6116da565b8d0161178d81876116c3565b5b828110156117a5576000815260208101905061178e565b50839e5050505050505050565b6373509064598160e01b8152602081600483336000905af158601d01573d60011458600c01573d6000803e3d621234565260ea61109c528051935060005b604081101561180a576000818301526020810190506117f0565b50505056fe4f776e61626c653a206e6577206f776e657220697320746865207a65726f2061646472657373",
  "linkReferences": {},
  "deployedLinkReferences": {}
}