{
  "_format": "hh-sol-artifact-1",
  "contractName": "OpenZeppelinUpgradesAddress-ovm",
  "sourceName": "contracts/upgradability/Address.sol",
  "abi": [
    {
      "inputs": [
        {
          "internalType": "bytes32",
          "name": "c__0x09d3aa8e",
          "type": "bytes32"
        }
      ],
      "name": "c_0x09d3aa8e",
      "outputs": [],
      "stateMutability": "pure",
      "type": "function"
    }
  ],
  "bytecode": "0x610146610081600b82828239805160001a60731461001957fe5b5a63996d79a5598160e01b8152602081600483336000905af158600e01573d6000803e3d6000fd5b3d6001141558600a015760016000f35b8051925060005b604081101561007257600081830152602081019050610058565b505050600052607381538281f3fe7300000000000000000000000000000000000000005a63996d79a5598160e01b8152602081600483336000905af158600e01573d6000803e3d6000fd5b3d6001141558600a015760016000f35b8051925060005b604081101561006d57600081830152602081019050610053565b505050146080604052600436106100905760003560e01c806312ef08871461009e575b60008061009b6100d8565b50505b6100d3600480360360208110156100bd576000806100ba6100d8565b50505b81019080803590602001909291905050506100d5565b005b50565b632a2a7adb598160e01b8152600481016020815285602082015260005b868110156101135780860151816040840101526020810190506100f5565b506020828760640184336000905af158600e01573d6000803e3d6000fd5b3d6001141558600a015760016000f35b50505056",
  "deployedBytecode": "0x7300000000000000000000000000000000000000005a63996d79a5598160e01b8152602081600483336000905af158601d01573d60011458600c01573d6000803e3d621234565260ea61109c528051925060005b604081101561006d57600081830152602081019050610053565b505050146080604052600436106100905760003560e01c806312ef08871461009e575b60008061009b6100d8565b50505b6100d3600480360360208110156100bd576000806100ba6100d8565b50505b81019080803590602001909291905050506100d5565b005b50565b632a2a7adb598160e01b8152600481016020815285602082015260005b868110156101135780860151816040840101526020810190506100f5565b506020828760640184336000905af158601d01573d60011458600c01573d6000803e3d621234565260ea61109c5250505056",
  "linkReferences": {},
  "deployedLinkReferences": {}
}