{
  "_format": "hh-sol-artifact-1",
  "contractName": "OpenZeppelinUpgradesAddress",
  "sourceName": "contracts/upgradability/Address.sol",
  "abi": [
    {
      "inputs": [
        {
          "internalType": "bytes32",
          "name": "c__0x09d3aa8e",
          "type": "bytes32"
        }
      ],
      "name": "c_0x09d3aa8e",
      "outputs": [],
      "stateMutability": "pure",
      "type": "function"
    }
  ],
  "bytecode": "0x609c610024600b82828239805160001a607314601757fe5b30600052607381538281f3fe730000000000000000000000000000000000000000301460806040526004361060335760003560e01c806312ef0887146038575b600080fd5b606160048036036020811015604c57600080fd5b81019080803590602001909291905050506063565b005b5056fea2646970667358221220b5a8278f62876089845334328d058e71b038570df8c7821380b42f38e3606a7564736f6c634300060c0033",
  "linkReferences": {},
  "deployedLinkReferences": {}
}