{
  "_format": "hh-sol-artifact-1",
  "contractName": "PoolLogic",
  "sourceName": "contracts/PoolLogic.sol",
  "abi": [
    {
      "anonymous": false,
      "inputs": [
        {
          "indexed": true,
          "internalType": "address",
          "name": "owner",
          "type": "address"
        },
        {
          "indexed": true,
          "internalType": "address",
          "name": "spender",
          "type": "address"
        },
        {
          "indexed": false,
          "internalType": "uint256",
          "name": "value",
          "type": "uint256"
        }
      ],
      "name": "Approval",
      "type": "event"
    },
    {
      "anonymous": false,
      "inputs": [
        {
          "indexed": false,
          "internalType": "address",
          "name": "fundAddress",
          "type": "address"
        },
        {
          "indexed": false,
          "internalType": "address",
          "name": "investor",
          "type": "address"
        },
        {
          "indexed": false,
          "internalType": "uint256",
          "name": "valueDeposited",
          "type": "uint256"
        },
        {
          "indexed": false,
          "internalType": "uint256",
          "name": "fundTokensReceived",
          "type": "uint256"
        },
        {
          "indexed": false,
          "internalType": "uint256",
          "name": "totalInvestorFundTokens",
          "type": "uint256"
        },
        {
          "indexed": false,
          "internalType": "uint256",
          "name": "fundValue",
          "type": "uint256"
        },
        {
          "indexed": false,
          "internalType": "uint256",
          "name": "totalSupply",
          "type": "uint256"
        },
        {
          "indexed": false,
          "internalType": "uint256",
          "name": "time",
          "type": "uint256"
        }
      ],
      "name": "Deposit",
      "type": "event"
    },
    {
      "anonymous": false,
      "inputs": [
        {
          "indexed": false,
          "internalType": "address",
          "name": "pool",
          "type": "address"
        },
        {
          "indexed": false,
          "internalType": "address",
          "name": "manager",
          "type": "address"
        },
        {
          "indexed": false,
          "internalType": "uint256",
          "name": "available",
          "type": "uint256"
        },
        {
          "indexed": false,
          "internalType": "uint256",
          "name": "daoFee",
          "type": "uint256"
        },
        {
          "indexed": false,
          "internalType": "uint256",
          "name": "managerFee",
          "type": "uint256"
        },
        {
          "indexed": false,
          "internalType": "uint256",
          "name": "tokenPriceAtLastFeeMint",
          "type": "uint256"
        }
      ],
      "name": "ManagerFeeMinted",
      "type": "event"
    },
    {
      "anonymous": false,
      "inputs": [
        {
          "indexed": false,
          "internalType": "address",
          "name": "poolManagerLogic",
          "type": "address"
        },
        {
          "indexed": false,
          "internalType": "address",
          "name": "from",
          "type": "address"
        }
      ],
      "name": "PoolManagerLogicSet",
      "type": "event"
    },
    {
      "anonymous": false,
      "inputs": [
        {
          "indexed": false,
          "internalType": "bool",
          "name": "isPoolPrivate",
          "type": "bool"
        }
      ],
      "name": "PoolPrivacyUpdated",
      "type": "event"
    },
    {
      "anonymous": false,
      "inputs": [
        {
          "indexed": false,
          "internalType": "address",
          "name": "manager",
          "type": "address"
        },
        {
          "indexed": false,
          "internalType": "uint256",
          "name": "time",
          "type": "uint256"
        }
      ],
      "name": "TransactionExecuted",
      "type": "event"
    },
    {
      "anonymous": false,
      "inputs": [
        {
          "indexed": true,
          "internalType": "address",
          "name": "from",
          "type": "address"
        },
        {
          "indexed": true,
          "internalType": "address",
          "name": "to",
          "type": "address"
        },
        {
          "indexed": false,
          "internalType": "uint256",
          "name": "value",
          "type": "uint256"
        }
      ],
      "name": "Transfer",
      "type": "event"
    },
    {
      "anonymous": false,
      "inputs": [
        {
          "indexed": false,
          "internalType": "address",
          "name": "fundAddress",
          "type": "address"
        },
        {
          "indexed": false,
          "internalType": "address",
          "name": "investor",
          "type": "address"
        },
        {
          "indexed": false,
          "internalType": "uint256",
          "name": "valueWithdrawn",
          "type": "uint256"
        },
        {
          "indexed": false,
          "internalType": "uint256",
          "name": "fundTokensWithdrawn",
          "type": "uint256"
        },
        {
          "indexed": false,
          "internalType": "uint256",
          "name": "totalInvestorFundTokens",
          "type": "uint256"
        },
        {
          "indexed": false,
          "internalType": "uint256",
          "name": "fundValue",
          "type": "uint256"
        },
        {
          "indexed": false,
          "internalType": "uint256",
          "name": "totalSupply",
          "type": "uint256"
        },
        {
          "indexed": false,
          "internalType": "uint256",
          "name": "time",
          "type": "uint256"
        }
      ],
      "name": "Withdrawal",
      "type": "event"
    },
    {
      "inputs": [
        {
          "internalType": "address",
          "name": "owner",
          "type": "address"
        },
        {
          "internalType": "address",
          "name": "spender",
          "type": "address"
        }
      ],
      "name": "allowance",
      "outputs": [
        {
          "internalType": "uint256",
          "name": "",
          "type": "uint256"
        }
      ],
      "stateMutability": "view",
      "type": "function"
    },
    {
      "inputs": [
        {
          "internalType": "address",
          "name": "spender",
          "type": "address"
        },
        {
          "internalType": "uint256",
          "name": "amount",
          "type": "uint256"
        }
      ],
      "name": "approve",
      "outputs": [
        {
          "internalType": "bool",
          "name": "",
          "type": "bool"
        }
      ],
      "stateMutability": "nonpayable",
      "type": "function"
    },
    {
      "inputs": [],
      "name": "availableManagerFee",
      "outputs": [
        {
          "internalType": "uint256",
          "name": "",
          "type": "uint256"
        }
      ],
      "stateMutability": "view",
      "type": "function"
    },
    {
      "inputs": [
        {
          "internalType": "address",
          "name": "account",
          "type": "address"
        }
      ],
      "name": "balanceOf",
      "outputs": [
        {
          "internalType": "uint256",
          "name": "",
          "type": "uint256"
        }
      ],
      "stateMutability": "view",
      "type": "function"
    },
    {
      "inputs": [
        {
          "internalType": "bytes32",
          "name": "data",
          "type": "bytes32"
        }
      ],
      "name": "convert32toAddress",
      "outputs": [
        {
          "internalType": "address",
          "name": "o",
          "type": "address"
        }
      ],
      "stateMutability": "pure",
      "type": "function"
    },
    {
      "inputs": [],
      "name": "creationTime",
      "outputs": [
        {
          "internalType": "uint256",
          "name": "",
          "type": "uint256"
        }
      ],
      "stateMutability": "view",
      "type": "function"
    },
    {
      "inputs": [],
      "name": "creator",
      "outputs": [
        {
          "internalType": "address",
          "name": "",
          "type": "address"
        }
      ],
      "stateMutability": "view",
      "type": "function"
    },
    {
      "inputs": [],
      "name": "decimals",
      "outputs": [
        {
          "internalType": "uint8",
          "name": "",
          "type": "uint8"
        }
      ],
      "stateMutability": "view",
      "type": "function"
    },
    {
      "inputs": [
        {
          "internalType": "address",
          "name": "spender",
          "type": "address"
        },
        {
          "internalType": "uint256",
          "name": "subtractedValue",
          "type": "uint256"
        }
      ],
      "name": "decreaseAllowance",
      "outputs": [
        {
          "internalType": "bool",
          "name": "",
          "type": "bool"
        }
      ],
      "stateMutability": "nonpayable",
      "type": "function"
    },
    {
      "inputs": [
        {
          "internalType": "address",
          "name": "_asset",
          "type": "address"
        },
        {
          "internalType": "uint256",
          "name": "_amount",
          "type": "uint256"
        }
      ],
      "name": "deposit",
      "outputs": [
        {
          "internalType": "uint256",
          "name": "",
          "type": "uint256"
        }
      ],
      "stateMutability": "nonpayable",
      "type": "function"
    },
    {
      "inputs": [
        {
          "internalType": "address",
          "name": "to",
          "type": "address"
        },
        {
          "internalType": "bytes",
          "name": "data",
          "type": "bytes"
        }
      ],
      "name": "execTransaction",
      "outputs": [
        {
          "internalType": "bool",
          "name": "",
          "type": "bool"
        }
      ],
      "stateMutability": "nonpayable",
      "type": "function"
    },
    {
      "inputs": [],
      "name": "factory",
      "outputs": [
        {
          "internalType": "address",
          "name": "",
          "type": "address"
        }
      ],
      "stateMutability": "view",
      "type": "function"
    },
    {
      "inputs": [
        {
          "internalType": "bytes",
          "name": "data",
          "type": "bytes"
        },
        {
          "internalType": "uint8",
          "name": "inputNum",
          "type": "uint8"
        },
        {
          "internalType": "uint8",
          "name": "arrayIndex",
          "type": "uint8"
        }
      ],
      "name": "getArrayIndex",
      "outputs": [
        {
          "internalType": "bytes32",
          "name": "",
          "type": "bytes32"
        }
      ],
      "stateMutability": "pure",
      "type": "function"
    },
    {
      "inputs": [
        {
          "internalType": "bytes",
          "name": "data",
          "type": "bytes"
        },
        {
          "internalType": "uint8",
          "name": "inputNum",
          "type": "uint8"
        }
      ],
      "name": "getArrayLast",
      "outputs": [
        {
          "internalType": "bytes32",
          "name": "",
          "type": "bytes32"
        }
      ],
      "stateMutability": "pure",
      "type": "function"
    },
    {
      "inputs": [
        {
          "internalType": "bytes",
          "name": "data",
          "type": "bytes"
        },
        {
          "internalType": "uint8",
          "name": "inputNum",
          "type": "uint8"
        }
      ],
      "name": "getArrayLength",
      "outputs": [
        {
          "internalType": "uint256",
          "name": "",
          "type": "uint256"
        }
      ],
      "stateMutability": "pure",
      "type": "function"
    },
    {
      "inputs": [
        {
          "internalType": "bytes",
          "name": "data",
          "type": "bytes"
        },
        {
          "internalType": "uint8",
          "name": "inputNum",
          "type": "uint8"
        },
        {
          "internalType": "uint256",
          "name": "offset",
          "type": "uint256"
        }
      ],
      "name": "getBytes",
      "outputs": [
        {
          "internalType": "bytes",
          "name": "",
          "type": "bytes"
        }
      ],
      "stateMutability": "pure",
      "type": "function"
    },
    {
      "inputs": [],
      "name": "getExitCooldown",
      "outputs": [
        {
          "internalType": "uint256",
          "name": "",
          "type": "uint256"
        }
      ],
      "stateMutability": "view",
      "type": "function"
    },
    {
      "inputs": [
        {
          "internalType": "address",
          "name": "sender",
          "type": "address"
        }
      ],
      "name": "getExitRemainingCooldown",
      "outputs": [
        {
          "internalType": "uint256",
          "name": "",
          "type": "uint256"
        }
      ],
      "stateMutability": "view",
      "type": "function"
    },
    {
      "inputs": [],
      "name": "getFundSummary",
      "outputs": [
        {
          "internalType": "string",
          "name": "",
          "type": "string"
        },
        {
          "internalType": "uint256",
          "name": "",
          "type": "uint256"
        },
        {
          "internalType": "uint256",
          "name": "",
          "type": "uint256"
        },
        {
          "internalType": "address",
          "name": "",
          "type": "address"
        },
        {
          "internalType": "string",
          "name": "",
          "type": "string"
        },
        {
          "internalType": "uint256",
          "name": "",
          "type": "uint256"
        },
        {
          "internalType": "bool",
          "name": "",
          "type": "bool"
        },
        {
          "internalType": "uint256",
          "name": "",
          "type": "uint256"
        },
        {
          "internalType": "uint256",
          "name": "",
          "type": "uint256"
        }
      ],
      "stateMutability": "view",
      "type": "function"
    },
    {
      "inputs": [
        {
          "internalType": "bytes",
          "name": "data",
          "type": "bytes"
        },
        {
          "internalType": "uint8",
          "name": "inputNum",
          "type": "uint8"
        }
      ],
      "name": "getInput",
      "outputs": [
        {
          "internalType": "bytes32",
          "name": "",
          "type": "bytes32"
        }
      ],
      "stateMutability": "pure",
      "type": "function"
    },
    {
      "inputs": [
        {
          "internalType": "bytes",
          "name": "data",
          "type": "bytes"
        }
      ],
      "name": "getMethod",
      "outputs": [
        {
          "internalType": "bytes4",
          "name": "",
          "type": "bytes4"
        }
      ],
      "stateMutability": "pure",
      "type": "function"
    },
    {
      "inputs": [
        {
          "internalType": "bytes",
          "name": "data",
          "type": "bytes"
        }
      ],
      "name": "getParams",
      "outputs": [
        {
          "internalType": "bytes",
          "name": "",
          "type": "bytes"
        }
      ],
      "stateMutability": "pure",
      "type": "function"
    },
    {
      "inputs": [
        {
          "internalType": "address",
          "name": "spender",
          "type": "address"
        },
        {
          "internalType": "uint256",
          "name": "addedValue",
          "type": "uint256"
        }
      ],
      "name": "increaseAllowance",
      "outputs": [
        {
          "internalType": "bool",
          "name": "",
          "type": "bool"
        }
      ],
      "stateMutability": "nonpayable",
      "type": "function"
    },
    {
      "inputs": [
        {
          "internalType": "address",
          "name": "_factory",
          "type": "address"
        },
        {
          "internalType": "bool",
          "name": "_privatePool",
          "type": "bool"
        },
        {
          "internalType": "string",
          "name": "_fundName",
          "type": "string"
        },
        {
          "internalType": "string",
          "name": "_fundSymbol",
          "type": "string"
        },
        {
          "internalType": "address",
          "name": "_poolManagerLogic",
          "type": "address"
        }
      ],
      "name": "initialize",
      "outputs": [],
      "stateMutability": "nonpayable",
      "type": "function"
    },
    {
      "inputs": [
        {
          "internalType": "address",
          "name": "member",
          "type": "address"
        }
      ],
      "name": "isMemberAllowed",
      "outputs": [
        {
          "internalType": "bool",
          "name": "",
          "type": "bool"
        }
      ],
      "stateMutability": "view",
      "type": "function"
    },
    {
      "inputs": [
        {
          "internalType": "address",
          "name": "",
          "type": "address"
        }
      ],
      "name": "lastDeposit",
      "outputs": [
        {
          "internalType": "uint256",
          "name": "",
          "type": "uint256"
        }
      ],
      "stateMutability": "view",
      "type": "function"
    },
    {
      "inputs": [],
      "name": "managerName",
      "outputs": [
        {
          "internalType": "string",
          "name": "",
          "type": "string"
        }
      ],
      "stateMutability": "view",
      "type": "function"
    },
    {
      "inputs": [],
      "name": "mintManagerFee",
      "outputs": [],
      "stateMutability": "nonpayable",
      "type": "function"
    },
    {
      "inputs": [],
      "name": "name",
      "outputs": [
        {
          "internalType": "string",
          "name": "",
          "type": "string"
        }
      ],
      "stateMutability": "view",
      "type": "function"
    },
    {
      "inputs": [],
      "name": "poolManagerLogic",
      "outputs": [
        {
          "internalType": "address",
          "name": "",
          "type": "address"
        }
      ],
      "stateMutability": "view",
      "type": "function"
    },
    {
      "inputs": [],
      "name": "privatePool",
      "outputs": [
        {
          "internalType": "bool",
          "name": "",
          "type": "bool"
        }
      ],
      "stateMutability": "view",
      "type": "function"
    },
    {
      "inputs": [
        {
          "internalType": "bytes",
          "name": "data",
          "type": "bytes"
        },
        {
          "internalType": "uint256",
          "name": "offset",
          "type": "uint256"
        },
        {
          "internalType": "uint256",
          "name": "length",
          "type": "uint256"
        }
      ],
      "name": "read32",
      "outputs": [
        {
          "internalType": "bytes32",
          "name": "o",
          "type": "bytes32"
        }
      ],
      "stateMutability": "pure",
      "type": "function"
    },
    {
      "inputs": [
        {
          "internalType": "bytes",
          "name": "data",
          "type": "bytes"
        },
        {
          "internalType": "uint256",
          "name": "offset",
          "type": "uint256"
        }
      ],
      "name": "read4left",
      "outputs": [
        {
          "internalType": "bytes4",
          "name": "o",
          "type": "bytes4"
        }
      ],
      "stateMutability": "pure",
      "type": "function"
    },
    {
      "inputs": [
        {
          "internalType": "address",
          "name": "_poolManagerLogic",
          "type": "address"
        }
      ],
      "name": "setPoolManagerLogic",
      "outputs": [
        {
          "internalType": "bool",
          "name": "",
          "type": "bool"
        }
      ],
      "stateMutability": "nonpayable",
      "type": "function"
    },
    {
      "inputs": [
        {
          "internalType": "bool",
          "name": "_privatePool",
          "type": "bool"
        }
      ],
      "name": "setPoolPrivate",
      "outputs": [],
      "stateMutability": "nonpayable",
      "type": "function"
    },
    {
      "inputs": [],
      "name": "symbol",
      "outputs": [
        {
          "internalType": "string",
          "name": "",
          "type": "string"
        }
      ],
      "stateMutability": "view",
      "type": "function"
    },
    {
      "inputs": [],
      "name": "tokenPrice",
      "outputs": [
        {
          "internalType": "uint256",
          "name": "",
          "type": "uint256"
        }
      ],
      "stateMutability": "view",
      "type": "function"
    },
    {
      "inputs": [],
      "name": "tokenPriceAtLastFeeMint",
      "outputs": [
        {
          "internalType": "uint256",
          "name": "",
          "type": "uint256"
        }
      ],
      "stateMutability": "view",
      "type": "function"
    },
    {
      "inputs": [],
      "name": "totalFundValue",
      "outputs": [
        {
          "internalType": "uint256",
          "name": "",
          "type": "uint256"
        }
      ],
      "stateMutability": "view",
      "type": "function"
    },
    {
      "inputs": [],
      "name": "totalSupply",
      "outputs": [
        {
          "internalType": "uint256",
          "name": "",
          "type": "uint256"
        }
      ],
      "stateMutability": "view",
      "type": "function"
    },
    {
      "inputs": [
        {
          "internalType": "address",
          "name": "recipient",
          "type": "address"
        },
        {
          "internalType": "uint256",
          "name": "amount",
          "type": "uint256"
        }
      ],
      "name": "transfer",
      "outputs": [
        {
          "internalType": "bool",
          "name": "",
          "type": "bool"
        }
      ],
      "stateMutability": "nonpayable",
      "type": "function"
    },
    {
      "inputs": [
        {
          "internalType": "address",
          "name": "sender",
          "type": "address"
        },
        {
          "internalType": "address",
          "name": "recipient",
          "type": "address"
        },
        {
          "internalType": "uint256",
          "name": "amount",
          "type": "uint256"
        }
      ],
      "name": "transferFrom",
      "outputs": [
        {
          "internalType": "bool",
          "name": "",
          "type": "bool"
        }
      ],
      "stateMutability": "nonpayable",
      "type": "function"
    },
    {
      "inputs": [
        {
          "internalType": "uint256",
          "name": "_fundTokenAmount",
          "type": "uint256"
        }
      ],
      "name": "withdraw",
      "outputs": [],
      "stateMutability": "nonpayable",
      "type": "function"
    }
  ],
  "bytecode": "0x608060405234801561001057600080fd5b50614188806100206000396000f3fe608060405234801561001057600080fd5b50600436106102695760003560e01c80636890151311610151578063ad60ffcc116100c3578063cc3c6df611610087578063cc3c6df614610e4d578063d8270dce14610e55578063db896b5714610e5d578063dd62ed3e14610f06578063edbf6f5014610f34578063fed4416a14610f3c57610269565b8063ad60ffcc14610d4d578063b8ea2b6e14610d55578063bbbf725b14610d7b578063c3c6279f14610da1578063c45a015514610e4557610269565b80637ff9b596116101155780637ff9b59614610b9357806382f86acc14610b9b57806395d89b4114610c44578063998546e314610c4c578063a457c2d714610cf5578063a9059cbb14610d2157610269565b806368901513146109e757806370a0823114610a8b578063750226de14610ab15780637714f39d14610ad75780637ae7cfb514610adf57610269565b806323b872dd116101ea57806339509351116101ae57806339509351146108ac5780633babaad5146108d857806341dc16c3146108f75780634501b088146109ab57806347e7ef24146109b357806359b5e75e146109df57610269565b806323b872dd14610752578063293d80631461078857806329d16ee81461084b5780632e1a7d4d14610871578063313ce5671461088e57610269565b80631053f952116102315780631053f9521461055757806318160ddd146106035780631c5918d21461060b5780631e50a4a61461072d5780631eba30771461073557610269565b806302d05d3f1461026e57806306fdde0314610292578063095ea7b31461030f57806309ff5c7d1461034f5780630ccb30c71461040a575b600080fd5b610276610f44565b604080516001600160a01b039092168252519081900360200190f35b61029a610f58565b6040805160208082528351818301528351919283929083019185019080838360005b838110156102d45781810151838201526020016102bc565b50505050905090810190601f1680156103015780820380516001836020036101000a031916815260200191505b509250505060405180910390f35b61033b6004803603604081101561032557600080fd5b506001600160a01b038135169060200135610fee565b604080519115158252519081900360200190f35b6103f86004803603604081101561036557600080fd5b810190602081018135600160201b81111561037f57600080fd5b82018360208201111561039157600080fd5b803590602001918460018302840111600160201b831117156103b257600080fd5b91908080601f0160208091040260200160405190810160405280939291908181526020018383808284376000920191909152509295505050903560ff16915061100c9050565b60408051918252519081900360200190f35b610555600480360360a081101561042057600080fd5b6001600160a01b03823516916020810135151591810190606081016040820135600160201b81111561045157600080fd5b82018360208201111561046357600080fd5b803590602001918460018302840111600160201b8311171561048457600080fd5b91908080601f0160208091040260200160405190810160405280939291908181526020018383808284376000920191909152509295949360208101935035915050600160201b8111156104d657600080fd5b8201836020820111156104e857600080fd5b803590602001918460018302840111600160201b8311171561050957600080fd5b91908080601f016020809104026020016040519081016040528093929190818152602001838380828437600092019190915250929550505090356001600160a01b0316915061109d9050565b005b61029a6004803603606081101561056d57600080fd5b810190602081018135600160201b81111561058757600080fd5b82018360208201111561059957600080fd5b803590602001918460018302840111600160201b831117156105ba57600080fd5b91908080601f0160208091040260200160405190810160405280939291908181526020018383808284376000920191909152509295505060ff83351693505050602001356111bc565b6103f8611254565b61061361125a565b60405180806020018a8152602001898152602001886001600160a01b0316815260200180602001878152602001861515815260200185815260200184815260200183810383528c818151815260200191508051906020019080838360005b83811015610689578181015183820152602001610671565b50505050905090810190601f1680156106b65780820380516001836020036101000a031916815260200191505b5083810382528851815288516020918201918a019080838360005b838110156106e95781810151838201526020016106d1565b50505050905090810190601f1680156107165780820380516001836020036101000a031916815260200191505b509b50505050505050505050505060405180910390f35b610276611361565b6102766004803603602081101561074b57600080fd5b5035611370565b61033b6004803603606081101561076857600080fd5b506001600160a01b03813581169160208101359091169060400135611377565b61082e6004803603604081101561079e57600080fd5b810190602081018135600160201b8111156107b857600080fd5b8201836020820111156107ca57600080fd5b803590602001918460018302840111600160201b831117156107eb57600080fd5b91908080601f01602080910402602001604051908101604052809392919081815260200183838082843760009201919091525092955050913592506113fe915050565b604080516001600160e01b03199092168252519081900360200190f35b6103f86004803603602081101561086157600080fd5b50356001600160a01b0316611462565b6105556004803603602081101561088757600080fd5b5035611474565b61089661198a565b6040805160ff9092168252519081900360200190f35b61033b600480360360408110156108c257600080fd5b506001600160a01b038135169060200135611993565b610555600480360360208110156108ee57600080fd5b503515156119e1565b6103f86004803603606081101561090d57600080fd5b810190602081018135600160201b81111561092757600080fd5b82018360208201111561093957600080fd5b803590602001918460018302840111600160201b8311171561095a57600080fd5b91908080601f0160208091040260200160405190810160405280939291908181526020018383808284376000920191909152509295505060ff8335811694506020909301359092169150611aa09050565b6103f8611b7e565b6103f8600480360360408110156109c957600080fd5b506001600160a01b038135169060200135611bf4565b61033b61203c565b61029a600480360360208110156109fd57600080fd5b810190602081018135600160201b811115610a1757600080fd5b820183602082011115610a2957600080fd5b803590602001918460018302840111600160201b83111715610a4a57600080fd5b91908080601f016020809104026020016040519081016040528093929190818152602001838380828437600092019190915250929550612045945050505050565b6103f860048036036020811015610aa157600080fd5b50356001600160a01b0316612060565b61033b60048036036020811015610ac757600080fd5b50356001600160a01b031661207b565b6103f86121b7565b61033b60048036036040811015610af557600080fd5b6001600160a01b038235169190810190604081016020820135600160201b811115610b1f57600080fd5b820183602082011115610b3157600080fd5b803590602001918460018302840111600160201b83111715610b5257600080fd5b91908080601f0160208091040260200160405190810160405280939291908181526020018383808284376000920191909152509295506121bd945050505050565b6103f86127f4565b6103f860048036036040811015610bb157600080fd5b810190602081018135600160201b811115610bcb57600080fd5b820183602082011115610bdd57600080fd5b803590602001918460018302840111600160201b83111715610bfe57600080fd5b91908080601f0160208091040260200160405190810160405280939291908181526020018383808284376000920191909152509295505050903560ff16915061281e9050565b61029a61283c565b6103f860048036036040811015610c6257600080fd5b810190602081018135600160201b811115610c7c57600080fd5b820183602082011115610c8e57600080fd5b803590602001918460018302840111600160201b83111715610caf57600080fd5b91908080601f0160208091040260200160405190810160405280939291908181526020018383808284376000920191909152509295505050903560ff16915061289d9050565b61033b60048036036040811015610d0b57600080fd5b506001600160a01b0381351690602001356128ce565b61033b60048036036040811015610d3757600080fd5b506001600160a01b038135169060200135612936565b6103f861294a565b6103f860048036036020811015610d6b57600080fd5b50356001600160a01b0316612b1c565b61033b60048036036020811015610d9157600080fd5b50356001600160a01b0316612b6d565b61082e60048036036020811015610db757600080fd5b810190602081018135600160201b811115610dd157600080fd5b820183602082011115610de357600080fd5b803590602001918460018302840111600160201b83111715610e0457600080fd5b91908080601f016020809104026020016040519081016040528093929190818152602001838380828437600092019190915250929550612bf0945050505050565b610276612bfd565b610555612c0c565b6103f8612cd5565b6103f860048036036060811015610e7357600080fd5b810190602081018135600160201b811115610e8d57600080fd5b820183602082011115610e9f57600080fd5b803590602001918460018302840111600160201b83111715610ec057600080fd5b91908080601f0160208091040260200160405190810160405280939291908181526020018383808284376000920191909152509295505082359350505060200135612cdb565b6103f860048036036040811015610f1c57600080fd5b506001600160a01b0381358116916020013516612d5c565b6103f8612d87565b61029a612e3d565b60c95461010090046001600160a01b031681565b60688054604080516020601f6002600019610100600188161502019095169490940493840181900481028201810190925282815260609390929091830182828015610fe45780601f10610fb957610100808354040283529160200191610fe4565b820191906000526020600020905b815481529060010190602001808311610fc757829003601f168201915b5050505050905090565b6000611002610ffb612f72565b8484612f76565b5060015b92915050565b600080611024848460200260040160ff166020612cdb565b9050600061103785600484016020612cdb565b905080611080576040805162461bcd60e51b8152602060048201526012602482015271696e707574206973206e6f7420617272617960701b604482015290519081900360640190fd5b611094856020808402850160040190612cdb565b95945050505050565b600054610100900460ff16806110b657506110b6613062565b806110c4575060005460ff16155b6110ff5760405162461bcd60e51b815260040180806020018281038252602e815260200180614096602e913960400191505060405180910390fd5b600054610100900460ff1615801561112a576000805460ff1961ff0019909116610100171660011790555b6111348484613068565b61113c61311e565b60cb80546001600160a01b0319166001600160a01b038816179055611160856131c7565b60c98054610100600160a81b03191633610100021790554260ca55670de0b6b3a764000060cc5560ce80546001600160a01b0319166001600160a01b03841617905580156111b4576000805461ff00191690555b505050505050565b606060148210611204576040805162461bcd60e51b815260206004820152600e60248201526d1a5b9d985b1a59081bd9999cd95d60921b604482015290519081900360640190fd5b816020029150600061122385848660200260040160ff16016020612cdb565b90506000611238868584016004016020612cdb565b905061124a866024848701018361320e565b9695505050505050565b60675490565b60606000806000606060008060008060008060cb60009054906101000a90046001600160a01b03166001600160a01b031663b7a54526306040518263ffffffff1660e01b815260040180826001600160a01b03168152602001915050604080518083038186803b1580156112cd57600080fd5b505afa1580156112e1573d6000803e3d6000fd5b505050506040513d60408110156112f757600080fd5b508051602090910151909250905061130d610f58565b611315611254565b61131d61294a565b61132561335f565b61132d612e3d565b60ca5460c960009054906101000a900460ff1688889a509a509a509a509a509a509a509a509a505050909192939495969798565b60ce546001600160a01b031681565b805b919050565b60006113848484846133a4565b6113f484611390612f72565b6113ef8560405180606001604052806028815260200161406e602891396001600160a01b038a166000908152606660205260408120906113ce612f72565b6001600160a01b031681526020810191909152604001600020549190613501565b612f76565b5060019392505050565b60008160040183511015611459576040805162461bcd60e51b815260206004820152601b60248201527f52656164696e67206279746573206f7574206f6620626f756e64730000000000604482015290519081900360640190fd5b50016020015190565b60cd6020526000908152604090205481565b60975460ff166114cb576040805162461bcd60e51b815260206004820152601f60248201527f5265656e7472616e637947756172643a207265656e7472616e742063616c6c00604482015290519081900360640190fd5b6097805460ff1916905560cb54604080516358c3de9360e11b815290516001600160a01b039092169163b187bd2691600480820192602092909190829003018186803b15801561151a57600080fd5b505afa15801561152e573d6000803e3d6000fd5b505050506040513d602081101561154457600080fd5b50511561158b576040805162461bcd60e51b815260206004820152601060248201526f18dbdb9d1c9858dd1cc81c185d5cd95960821b604482015290519081900360640190fd5b8061159533612060565b10156115df576040805162461bcd60e51b8152602060048201526014602482015273696e73756666696369656e742062616c616e636560601b604482015290519081900360640190fd5b6115e833612b1c565b1561162c576040805162461bcd60e51b815260206004820152600f60248201526e636f6f6c646f776e2061637469766560881b604482015290519081900360640190fd5b611634613598565b600061163e61294a565b9050600061166561164d611254565b61165f85670de0b6b3a7640000613816565b9061386f565b905061167133846138b1565b60ce546040805163e5406dbf60e01b815290516001600160a01b0390921691606091839163e5406dbf91600480820192600092909190829003018186803b1580156116bb57600080fd5b505afa1580156116cf573d6000803e3d6000fd5b505050506040513d6000823e601f3d908101601f1916820160405260208110156116f857600080fd5b8101908080516040519392919084600160201b82111561171757600080fd5b90830190602082018581111561172c57600080fd5b82518660208202830111600160201b8211171561174857600080fd5b82525081516020918201928201910280838360005b8381101561177557818101518382015260200161175d565b50505050905001604052505050905060008151905060005b818110156118d15760008382815181106117a357fe5b602002602001015190506000816001600160a01b03166370a08231306040518263ffffffff1660e01b815260040180826001600160a01b0316815260200191505060206040518083038186803b1580156117fc57600080fd5b505afa158015611810573d6000803e3d6000fd5b505050506040513d602081101561182657600080fd5b505190506000611842670de0b6b3a764000061165f848b613816565b905080156118c6576040805163a9059cbb60e01b81523360048201526024810183905290516001600160a01b0385169163a9059cbb9160448083019260209291908290030181600087803b15801561189957600080fd5b505af11580156118ad573d6000803e3d6000fd5b505050506040513d60208110156118c357600080fd5b50505b50505060010161178d565b5060006118ea670de0b6b3a764000061165f8789613816565b90507f79d44cc8beeed36226f14818b2ecaca7ef252bcd56c9ae35f5a86869dbdefb973033838a61191a33612060565b61192261294a565b61192a611254565b604080516001600160a01b039889168152969097166020870152858701949094526060850192909252608084015260a083015260c08201524260e08201529051908190036101000190a150506097805460ff191660011790555050505050565b606a5460ff1690565b60006110026119a0612f72565b846113ef85606660006119b1612f72565b6001600160a01b03908116825260208083019390935260409182016000908120918c1681529252902054906139ad565b6119e961335f565b6001600160a01b0316336001600160a01b031614611a3d576040805162461bcd60e51b815260206004820152600c60248201526b37b7363c9036b0b730b3b2b960a11b604482015290519081900360640190fd5b60c95460ff1615158115151415611a94576040805162461bcd60e51b8152602060048201526016602482015275199b1859c81b5d5cdd08189948191a5999995c995b9d60521b604482015290519081900360640190fd5b611a9d816131c7565b50565b600080611ab8858560200260040160ff166020612cdb565b90506000611acb86600484016020612cdb565b905080611b14576040805162461bcd60e51b8152602060048201526012602482015271696e707574206973206e6f7420617272617960701b604482015290519081900360640190fd5b60ff84168111611b64576040805162461bcd60e51b815260206004820152601660248201527534b73b30b634b21030b93930bc903837b9b4ba34b7b760511b604482015290519081900360640190fd5b61124a866020600160ff8816018102850160040190612cdb565b60cb54604080516308a0361160e31b815290516000926001600160a01b031691634501b088916004808301926020929190829003018186803b158015611bc357600080fd5b505afa158015611bd7573d6000803e3d6000fd5b505050506040513d6020811015611bed57600080fd5b5051905090565b6000611bfe61335f565b6001600160a01b0316336001600160a01b03161480611c20575060c95460ff16155b80611c2f5750611c2f33612b6d565b611c77576040805162461bcd60e51b81526020600482015260146024820152731bdb9b1e481b595b58995c9cc8185b1b1bddd95960621b604482015290519081900360640190fd5b60cb60009054906101000a90046001600160a01b03166001600160a01b031663b187bd266040518163ffffffff1660e01b815260040160206040518083038186803b158015611cc557600080fd5b505afa158015611cd9573d6000803e3d6000fd5b505050506040513d6020811015611cef57600080fd5b505115611d36576040805162461bcd60e51b815260206004820152601060248201526f18dbdb9d1c9858dd1cc81c185d5cd95960821b604482015290519081900360640190fd5b60ce546040805163bdbef07d60e01b81526001600160a01b0386811660048301529151919092169163bdbef07d916024808301926020929190829003018186803b158015611d8357600080fd5b505afa158015611d97573d6000803e3d6000fd5b505050506040513d6020811015611dad57600080fd5b5051611df8576040805162461bcd60e51b81526020600482015260156024820152741a5b9d985b1a590819195c1bdcda5d08185cdcd95d605a1b604482015290519081900360640190fd5b33600090815260cd60205260409020429055611e12613598565b6000611e1c61294a565b90506000611e28611254565b604080516323b872dd60e01b81523360048201523060248201526044810187905290519192506001600160a01b038716916323b872dd916064808201926020929091908290030181600087803b158015611e8157600080fd5b505af1158015611e95573d6000803e3d6000fd5b505050506040513d6020811015611eab57600080fd5b5051611ef6576040805162461bcd60e51b81526020600482015260156024820152741d1bdad95b881d1c985b9cd9995c8819985a5b1959605a1b604482015290519081900360640190fd5b60ce54604080516314e03fdd60e11b81526001600160a01b03888116600483015260248201889052915160009392909216916329c07fba91604480820192602092909190829003018186803b158015611f4e57600080fd5b505afa158015611f62573d6000803e3d6000fd5b505050506040513d6020811015611f7857600080fd5b5051905060008215611f9957611f928461165f8486613816565b9050611f9c565b50805b611fa63382613a07565b7f87fdcba84e083ebb8fd661bbafee3eb38764ec6f0cbeea8ed52deffa67bd45dc30338484611fd433612060565b611fde8a896139ad565b611fe88a896139ad565b604080516001600160a01b039889168152969097166020870152858701949094526060850192909252608084015260a083015260c08201524260e08201529051908190036101000190a19695505050505050565b60c95460ff1681565b60606110066004808451038461320e9092919063ffffffff16565b6001600160a01b031660009081526065602052604090205490565b60008060cb60009054906101000a90046001600160a01b03166001600160a01b0316631d68702d6040518163ffffffff1660e01b815260040160206040518083038186803b1580156120cc57600080fd5b505afa1580156120e0573d6000803e3d6000fd5b505050506040513d60208110156120f657600080fd5b50519050336001600160a01b03821614612157576040805162461bcd60e51b815260206004820152601860248201527f6f6e6c792044414f206164647265737320616c6c6f7765640000000000000000604482015290519081900360640190fd5b60ce80546001600160a01b0319166001600160a01b0385169081179091556040805191825233602083015280517f63fb64c359a4cae97e1bf003c1ab11390b5f0e18cc5b3d67b90bd61c0f5c52fd9281900390910190a150600192915050565b60cc5481565b60006121c761335f565b6001600160a01b0316336001600160a01b031614806121fe57506121e9613af9565b6001600160a01b0316336001600160a01b0316145b612248576040805162461bcd60e51b815260206004820152601660248201527537b7363c9036b0b730b3b2b91037b9103a3930b232b960511b604482015290519081900360640190fd5b60cb60009054906101000a90046001600160a01b03166001600160a01b031663b187bd266040518163ffffffff1660e01b815260040160206040518083038186803b15801561229657600080fd5b505afa1580156122aa573d6000803e3d6000fd5b505050506040513d60208110156122c057600080fd5b505115612307576040805162461bcd60e51b815260206004820152601060248201526f18dbdb9d1c9858dd1cc81c185d5cd95960821b604482015290519081900360640190fd5b6001600160a01b038316612362576040805162461bcd60e51b815260206004820152601c60248201527f6e6f6e2d7a65726f206164647265737320697320726571756972656400000000604482015290519081900360640190fd5b60cb5460408051631c09fa9b60e21b81526001600160a01b03868116600483015291516000939290921691637027ea6c91602480820192602092909190829003018186803b1580156123b357600080fd5b505afa1580156123c7573d6000803e3d6000fd5b505050506040513d60208110156123dd57600080fd5b505190506001600160a01b038116612432576040805162461bcd60e51b815260206004820152601360248201527234b73b30b634b2103232b9ba34b730ba34b7b760691b604482015290519081900360640190fd5b60cb60009054906101000a90046001600160a01b03166001600160a01b0316638d554cad6040518163ffffffff1660e01b815260040160206040518083038186803b15801561248057600080fd5b505afa158015612494573d6000803e3d6000fd5b505050506040513d60208110156124aa57600080fd5b50516001600160a01b03828116911614158061253b575060ce5460408051634df48c7360e11b81526001600160a01b03878116600483015291519190921691639be918e6916024808301926020929190829003018186803b15801561250e57600080fd5b505afa158015612522573d6000803e3d6000fd5b505050506040513d602081101561253857600080fd5b50515b6125765760405162461bcd60e51b815260040180806020018281038252602a815260200180614023602a913960400191505060405180910390fd5b60ce546040805163e23ff43760e01b81526001600160a01b0392831660048201818152602483019384528751604484015287519486169463e23ff437949293899391606490910190602085019080838360005b838110156125e15781810151838201526020016125c9565b50505050905090810190601f16801561260e5780820380516001836020036101000a031916815260200191505b509350505050602060405180830381600087803b15801561262e57600080fd5b505af1158015612642573d6000803e3d6000fd5b505050506040513d602081101561265857600080fd5b50516126a1576040805162461bcd60e51b815260206004820152601360248201527234b73b30b634b2103a3930b739b0b1ba34b7b760691b604482015290519081900360640190fd5b6000846001600160a01b0316846040518082805190602001908083835b602083106126dd5780518252601f1990920191602091820191016126be565b6001836020036101000a0380198251168184511680821785525050505050509050019150506000604051808303816000865af19150503d806000811461273f576040519150601f19603f3d011682016040523d82523d6000602084013e612744565b606091505b50909150506001811515146127a0576040805162461bcd60e51b815260206004820152601a60248201527f6661696c656420746f2065786563757465207468652063616c6c000000000000604482015290519081900360640190fd5b7f4e86ad0da28cbaaaa7e93e36c43b32696e970535225b316f1b84fbf30bdc04e86127c961335f565b604080516001600160a01b0390921682524260208301528051918290030190a1506001949350505050565b6000806127ff61294a565b9050600061280b611254565b90506128178282613b3e565b9250505090565b6000612835838360200260040160ff166020612cdb565b9392505050565b60698054604080516020601f6002600019610100600188161502019095169490940493840181900481028201810190925282815260609390929091830182828015610fe45780601f10610fb957610100808354040283529160200191610fe4565b6000806128b5848460200260040160ff166020612cdb565b90506128c684600483016020612cdb565b949350505050565b60006110026128db612f72565b846113ef8560405180606001604052806025815260200161412e6025913960666000612905612f72565b6001600160a01b03908116825260208083019390935260409182016000908120918d16815292529020549190613501565b6000611002612943612f72565b84846133a4565b60ce546040805163e5406dbf60e01b8152905160009283926001600160a01b0390911691606091839163e5406dbf916004808201928892909190829003018186803b15801561299857600080fd5b505afa1580156129ac573d6000803e3d6000fd5b505050506040513d6000823e601f3d908101601f1916820160405260208110156129d557600080fd5b8101908080516040519392919084600160201b8211156129f457600080fd5b908301906020820185811115612a0957600080fd5b82518660208202830111600160201b82111715612a2557600080fd5b82525081516020918201928201910280838360005b83811015612a52578181015183820152602001612a3a565b50505050905001604052505050905060008151905060005b81811015612b1257612b08846001600160a01b031663d8af8ed4858481518110612a9057fe5b60200260200101516040518263ffffffff1660e01b815260040180826001600160a01b0316815260200191505060206040518083038186803b158015612ad557600080fd5b505afa158015612ae9573d6000803e3d6000fd5b505050506040513d6020811015612aff57600080fd5b505186906139ad565b9450600101612a6a565b5092935050505090565b600080612b27611b7e565b6001600160a01b038416600090815260cd602052604081205491925090612b4e90836139ad565b905042811015612b6357600092505050611372565b6128c68142613b6e565b60ce546040805163bbbf725b60e01b81526001600160a01b0384811660048301529151600093929092169163bbbf725b91602480820192602092909190829003018186803b158015612bbe57600080fd5b505afa158015612bd2573d6000803e3d6000fd5b505050506040513d6020811015612be857600080fd5b505192915050565b60006110068260006113fe565b60cb546001600160a01b031681565b60cb60009054906101000a90046001600160a01b03166001600160a01b031663b187bd266040518163ffffffff1660e01b815260040160206040518083038186803b158015612c5a57600080fd5b505afa158015612c6e573d6000803e3d6000fd5b505050506040513d6020811015612c8457600080fd5b505115612ccb576040805162461bcd60e51b815260206004820152601060248201526f18dbdb9d1c9858dd1cc81c185d5cd95960821b604482015290519081900360640190fd5b612cd3613598565b565b60ca5481565b600081830184511015612d35576040805162461bcd60e51b815260206004820152601b60248201527f52656164696e67206279746573206f7574206f6620626f756e64730000000000604482015290519081900360640190fd5b826020018401519050816020038015612d54576008810260020a820491505b509392505050565b6001600160a01b03918216600090815260666020908152604080832093909416825291909152205490565b600080612d9261294a565b90506000612d9e611254565b60cb5460408051635bd2a29360e11b8152306004820152815193945060009384936001600160a01b03169263b7a545269260248082019391829003018186803b158015612dea57600080fd5b505afa158015612dfe573d6000803e3d6000fd5b505050506040513d6040811015612e1457600080fd5b50805160209091015160cc549193509150612e3490859085908585613bb0565b94505050505090565b60ce5460408051637f6a20b560e11b815290516060926001600160a01b03169163fed4416a916004808301926000929190829003018186803b158015612e8257600080fd5b505afa158015612e96573d6000803e3d6000fd5b505050506040513d6000823e601f3d908101601f191682016040526020811015612ebf57600080fd5b8101908080516040519392919084600160201b821115612ede57600080fd5b908301906020820185811115612ef357600080fd5b8251600160201b811182820188101715612f0c57600080fd5b82525081516020918201929091019080838360005b83811015612f39578181015183820152602001612f21565b50505050905090810190601f168015612f665780820380516001836020036101000a031916815260200191505b50604052505050905090565b3390565b6001600160a01b038316612fbb5760405162461bcd60e51b815260040180806020018281038252602481526020018061410a6024913960400191505060405180910390fd5b6001600160a01b0382166130005760405162461bcd60e51b8152600401808060200182810382526022815260200180613fdb6022913960400191505060405180910390fd5b6001600160a01b03808416600081815260666020908152604080832094871680845294825291829020859055815185815291517f8c5be1e5ebec7d5bd14f71427d1e84f3dd0314c0f7b2291e5b200ac8c7c3b9259281900390910190a3505050565b303b1590565b600054610100900460ff16806130815750613081613062565b8061308f575060005460ff16155b6130ca5760405162461bcd60e51b815260040180806020018281038252602e815260200180614096602e913960400191505060405180910390fd5b600054610100900460ff161580156130f5576000805460ff1961ff0019909116610100171660011790555b6130fd613c1f565b6131078383613cbf565b8015613119576000805461ff00191690555b505050565b600054610100900460ff16806131375750613137613062565b80613145575060005460ff16155b6131805760405162461bcd60e51b815260040180806020018281038252602e815260200180614096602e913960400191505060405180910390fd5b600054610100900460ff161580156131ab576000805460ff1961ff0019909116610100171660011790555b6131b3613d97565b8015611a9d576000805461ff001916905550565b60c9805482151560ff19909116811790915560408051918252517f8d75e9ede4188432084b863d70b3416010c97547dfeb4fc17734d2e997ee0f399181900360200190a150565b60608182601f011015613259576040805162461bcd60e51b815260206004820152600e60248201526d736c6963655f6f766572666c6f7760901b604482015290519081900360640190fd5b8282840110156132a1576040805162461bcd60e51b815260206004820152600e60248201526d736c6963655f6f766572666c6f7760901b604482015290519081900360640190fd5b818301845110156132ed576040805162461bcd60e51b8152602060048201526011602482015270736c6963655f6f75744f66426f756e647360781b604482015290519081900360640190fd5b60608215801561330c5760405191506000825260208201604052613356565b6040519150601f8416801560200281840101858101878315602002848b0101015b8183101561334557805183526020928301920161332d565b5050858452601f01601f1916604052505b50949350505050565b60ce546040805163481c6a7560e01b815290516000926001600160a01b03169163481c6a75916004808301926020929190829003018186803b158015611bc357600080fd5b6001600160a01b0383166133e95760405162461bcd60e51b81526004018080602001828103825260258152602001806140e56025913960400191505060405180910390fd5b6001600160a01b03821661342e5760405162461bcd60e51b8152600401808060200182810382526023815260200180613f966023913960400191505060405180910390fd5b613439838383613e45565b61347681604051806060016040528060268152602001613ffd602691396001600160a01b0386166000908152606560205260409020549190613501565b6001600160a01b0380851660009081526065602052604080822093909355908416815220546134a590826139ad565b6001600160a01b0380841660008181526065602090815260409182902094909455805185815290519193928716927fddf252ad1be2c89b69c2b068fc378daa952ba7f163c4a11628f55a4df523b3ef92918290030190a3505050565b600081848411156135905760405162461bcd60e51b81526004018080602001828103825283818151815260200191508051906020019080838360005b8381101561355557818101518382015260200161353d565b50505050905090810190601f1680156135825780820380516001836020036101000a031916815260200191505b509250505060405180910390fd5b505050900390565b60006135a261294a565b905060006135ae611254565b60cb5460408051635bd2a29360e11b8152306004820152815193945060009384936001600160a01b03169263b7a545269260248082019391829003018186803b1580156135fa57600080fd5b505afa15801561360e573d6000803e3d6000fd5b505050506040513d604081101561362457600080fd5b50805160209091015160cc54919350915060009061364790869086908686613bb0565b9050606481101561365c575050505050612cd3565b60cb5460408051631d68702d60e01b815290516000926001600160a01b031691631d68702d916004808301926020929190829003018186803b1580156136a157600080fd5b505afa1580156136b5573d6000803e3d6000fd5b505050506040513d60208110156136cb57600080fd5b505160cb546040805163272b69b960e21b8152815193945060009384936001600160a01b031692639cada6e49260048082019391829003018186803b15801561371357600080fd5b505afa158015613727573d6000803e3d6000fd5b505050506040513d604081101561373d57600080fd5b5080516020909101519092509050600061375b8261165f8786613816565b905060006137698683613b6e565b9050811561377b5761377b8583613a07565b80156137925761379261378c61335f565b82613a07565b61379c8a8a613b3e565b60cc557f755a8059d66d8d243bc9f6913f429a811f154599d0538bb0b6a2ac23f23d2ccd306137c961335f565b60cc54604080516001600160a01b0394851681529290931660208301528183018a9052606082018690526080820185905260a082015290519081900360c00190a150505050505050505050565b60008261382557506000611006565b8282028284828161383257fe5b04146128355760405162461bcd60e51b815260040180806020018281038252602181526020018061404d6021913960400191505060405180910390fd5b600061283583836040518060400160405280601a81526020017f536166654d6174683a206469766973696f6e206279207a65726f000000000000815250613e9d565b6001600160a01b0382166138f65760405162461bcd60e51b81526004018080602001828103825260218152602001806140c46021913960400191505060405180910390fd5b61390282600083613e45565b61393f81604051806060016040528060228152602001613fb9602291396001600160a01b0385166000908152606560205260409020549190613501565b6001600160a01b0383166000908152606560205260409020556067546139659082613b6e565b6067556040805182815290516000916001600160a01b038516917fddf252ad1be2c89b69c2b068fc378daa952ba7f163c4a11628f55a4df523b3ef9181900360200190a35050565b600082820183811015612835576040805162461bcd60e51b815260206004820152601b60248201527f536166654d6174683a206164646974696f6e206f766572666c6f770000000000604482015290519081900360640190fd5b6001600160a01b038216613a62576040805162461bcd60e51b815260206004820152601f60248201527f45524332303a206d696e7420746f20746865207a65726f206164647265737300604482015290519081900360640190fd5b613a6e60008383613e45565b606754613a7b90826139ad565b6067556001600160a01b038216600090815260656020526040902054613aa190826139ad565b6001600160a01b03831660008181526065602090815260408083209490945583518581529351929391927fddf252ad1be2c89b69c2b068fc378daa952ba7f163c4a11628f55a4df523b3ef9281900390910190a35050565b60ce5460408051631758078b60e01b815290516000926001600160a01b031691631758078b916004808301926020929190829003018186803b158015611bc357600080fd5b6000811580613b4b575082155b15613b5857506000611006565b6128358261165f85670de0b6b3a7640000613816565b600061283583836040518060400160405280601e81526020017f536166654d6174683a207375627472616374696f6e206f766572666c6f770000815250613501565b6000841580613bbd575085155b15613bca57506000611094565b6000613be28661165f89670de0b6b3a7640000613816565b9050848111613bf5576000915050611094565b6000613c138261165f868189613c0d8d81878f613b6e565b90613816565b98975050505050505050565b600054610100900460ff1680613c385750613c38613062565b80613c46575060005460ff16155b613c815760405162461bcd60e51b815260040180806020018281038252602e815260200180614096602e913960400191505060405180910390fd5b600054610100900460ff161580156131b3576000805460ff1961ff0019909116610100171660011790558015611a9d576000805461ff001916905550565b600054610100900460ff1680613cd85750613cd8613062565b80613ce6575060005460ff16155b613d215760405162461bcd60e51b815260040180806020018281038252602e815260200180614096602e913960400191505060405180910390fd5b600054610100900460ff16158015613d4c576000805460ff1961ff0019909116610100171660011790555b8251613d5f906068906020860190613f02565b508151613d73906069906020850190613f02565b50606a805460ff191660121790558015613119576000805461ff0019169055505050565b600054610100900460ff1680613db05750613db0613062565b80613dbe575060005460ff16155b613df95760405162461bcd60e51b815260040180806020018281038252602e815260200180614096602e913960400191505060405180910390fd5b600054610100900460ff16158015613e24576000805460ff1961ff0019909116610100171660011790555b6097805460ff191660011790558015611a9d576000805461ff001916905550565b613e50838383613119565b613e5983612b1c565b15613119576040805162461bcd60e51b815260206004820152600f60248201526e636f6f6c646f776e2061637469766560881b604482015290519081900360640190fd5b60008183613eec5760405162461bcd60e51b815260206004820181815283516024840152835190928392604490910191908501908083836000831561355557818101518382015260200161353d565b506000838581613ef857fe5b0495945050505050565b828054600181600116156101000203166002900490600052602060002090601f016020900481019282601f10613f4357805160ff1916838001178555613f70565b82800160010185558215613f70579182015b82811115613f70578251825591602001919060010190613f55565b50613f7c929150613f80565b5090565b5b80821115613f7c5760008155600101613f8156fe45524332303a207472616e7366657220746f20746865207a65726f206164647265737345524332303a206275726e20616d6f756e7420657863656564732062616c616e636545524332303a20617070726f766520746f20746865207a65726f206164647265737345524332303a207472616e7366657220616d6f756e7420657863656564732062616c616e6365696e76616c69642064657374696e6174696f6e206f72206173736574206e6f7420737570706f72746564536166654d6174683a206d756c7469706c69636174696f6e206f766572666c6f7745524332303a207472616e7366657220616d6f756e74206578636565647320616c6c6f77616e6365436f6e747261637420696e7374616e63652068617320616c7265616479206265656e20696e697469616c697a656445524332303a206275726e2066726f6d20746865207a65726f206164647265737345524332303a207472616e736665722066726f6d20746865207a65726f206164647265737345524332303a20617070726f76652066726f6d20746865207a65726f206164647265737345524332303a2064656372656173656420616c6c6f77616e63652062656c6f77207a65726fa26469706673582212206f4be3450099edb58cea117a8d61988e1e992ff43cceebf329eb1fb43ee4bec964736f6c634300060c0033",
  "linkReferences": {},
  "deployedLinkReferences": {}
}