{
  "_format": "hh-sol-artifact-1",
  "contractName": "PoolLogic-ovm",
  "sourceName": "contracts/PoolLogic.sol",
  "abi": [
    {
      "anonymous": false,
      "inputs": [
        {
          "indexed": true,
          "internalType": "address",
          "name": "owner",
          "type": "address"
        },
        {
          "indexed": true,
          "internalType": "address",
          "name": "spender",
          "type": "address"
        },
        {
          "indexed": false,
          "internalType": "uint256",
          "name": "value",
          "type": "uint256"
        }
      ],
      "name": "Approval",
      "type": "event"
    },
    {
      "anonymous": false,
      "inputs": [
        {
          "indexed": false,
          "internalType": "address",
          "name": "fundAddress",
          "type": "address"
        },
        {
          "indexed": false,
          "internalType": "address",
          "name": "investor",
          "type": "address"
        },
        {
          "indexed": false,
          "internalType": "uint256",
          "name": "valueDeposited",
          "type": "uint256"
        },
        {
          "indexed": false,
          "internalType": "uint256",
          "name": "fundTokensReceived",
          "type": "uint256"
        },
        {
          "indexed": false,
          "internalType": "uint256",
          "name": "totalInvestorFundTokens",
          "type": "uint256"
        },
        {
          "indexed": false,
          "internalType": "uint256",
          "name": "fundValue",
          "type": "uint256"
        },
        {
          "indexed": false,
          "internalType": "uint256",
          "name": "totalSupply",
          "type": "uint256"
        },
        {
          "indexed": false,
          "internalType": "uint256",
          "name": "time",
          "type": "uint256"
        }
      ],
      "name": "Deposit",
      "type": "event"
    },
    {
      "anonymous": false,
      "inputs": [
        {
          "indexed": false,
          "internalType": "address",
          "name": "pool",
          "type": "address"
        },
        {
          "indexed": false,
          "internalType": "address",
          "name": "manager",
          "type": "address"
        },
        {
          "indexed": false,
          "internalType": "uint256",
          "name": "available",
          "type": "uint256"
        },
        {
          "indexed": false,
          "internalType": "uint256",
          "name": "daoFee",
          "type": "uint256"
        },
        {
          "indexed": false,
          "internalType": "uint256",
          "name": "managerFee",
          "type": "uint256"
        },
        {
          "indexed": false,
          "internalType": "uint256",
          "name": "tokenPriceAtLastFeeMint",
          "type": "uint256"
        }
      ],
      "name": "ManagerFeeMinted",
      "type": "event"
    },
    {
      "anonymous": false,
      "inputs": [
        {
          "indexed": false,
          "internalType": "address",
          "name": "newManager",
          "type": "address"
        },
        {
          "indexed": false,
          "internalType": "string",
          "name": "newManagerName",
          "type": "string"
        }
      ],
      "name": "ManagerUpdated",
      "type": "event"
    },
    {
      "anonymous": false,
      "inputs": [
        {
          "indexed": false,
          "internalType": "address",
          "name": "poolManagerLogic",
          "type": "address"
        },
        {
          "indexed": false,
          "internalType": "address",
          "name": "from",
          "type": "address"
        }
      ],
      "name": "PoolManagerLogicSet",
      "type": "event"
    },
    {
      "anonymous": false,
      "inputs": [
        {
          "indexed": false,
          "internalType": "bool",
          "name": "isPoolPrivate",
          "type": "bool"
        }
      ],
      "name": "PoolPrivacyUpdated",
      "type": "event"
    },
    {
      "anonymous": false,
      "inputs": [
        {
          "indexed": true,
          "internalType": "address",
          "name": "from",
          "type": "address"
        },
        {
          "indexed": true,
          "internalType": "address",
          "name": "to",
          "type": "address"
        },
        {
          "indexed": false,
          "internalType": "uint256",
          "name": "value",
          "type": "uint256"
        }
      ],
      "name": "Transfer",
      "type": "event"
    },
    {
      "anonymous": false,
      "inputs": [
        {
          "indexed": false,
          "internalType": "address",
          "name": "fundAddress",
          "type": "address"
        },
        {
          "indexed": false,
          "internalType": "address",
          "name": "investor",
          "type": "address"
        },
        {
          "indexed": false,
          "internalType": "uint256",
          "name": "valueWithdrawn",
          "type": "uint256"
        },
        {
          "indexed": false,
          "internalType": "uint256",
          "name": "fundTokensWithdrawn",
          "type": "uint256"
        },
        {
          "indexed": false,
          "internalType": "uint256",
          "name": "totalInvestorFundTokens",
          "type": "uint256"
        },
        {
          "indexed": false,
          "internalType": "uint256",
          "name": "fundValue",
          "type": "uint256"
        },
        {
          "indexed": false,
          "internalType": "uint256",
          "name": "totalSupply",
          "type": "uint256"
        },
        {
          "indexed": false,
          "internalType": "uint256",
          "name": "time",
          "type": "uint256"
        }
      ],
      "name": "Withdrawal",
      "type": "event"
    },
    {
      "inputs": [
        {
          "internalType": "address",
          "name": "member",
          "type": "address"
        }
      ],
      "name": "addMember",
      "outputs": [],
      "stateMutability": "nonpayable",
      "type": "function"
    },
    {
      "inputs": [
        {
          "internalType": "address[]",
          "name": "members",
          "type": "address[]"
        }
      ],
      "name": "addMembers",
      "outputs": [],
      "stateMutability": "nonpayable",
      "type": "function"
    },
    {
      "inputs": [
        {
          "internalType": "address",
          "name": "owner",
          "type": "address"
        },
        {
          "internalType": "address",
          "name": "spender",
          "type": "address"
        }
      ],
      "name": "allowance",
      "outputs": [
        {
          "internalType": "uint256",
          "name": "",
          "type": "uint256"
        }
      ],
      "stateMutability": "view",
      "type": "function"
    },
    {
      "inputs": [
        {
          "internalType": "address",
          "name": "spender",
          "type": "address"
        },
        {
          "internalType": "uint256",
          "name": "amount",
          "type": "uint256"
        }
      ],
      "name": "approve",
      "outputs": [
        {
          "internalType": "bool",
          "name": "",
          "type": "bool"
        }
      ],
      "stateMutability": "nonpayable",
      "type": "function"
    },
    {
      "inputs": [],
      "name": "availableManagerFee",
      "outputs": [
        {
          "internalType": "uint256",
          "name": "",
          "type": "uint256"
        }
      ],
      "stateMutability": "view",
      "type": "function"
    },
    {
      "inputs": [
        {
          "internalType": "address",
          "name": "account",
          "type": "address"
        }
      ],
      "name": "balanceOf",
      "outputs": [
        {
          "internalType": "uint256",
          "name": "",
          "type": "uint256"
        }
      ],
      "stateMutability": "view",
      "type": "function"
    },
    {
      "inputs": [
        {
          "internalType": "address",
          "name": "newManager",
          "type": "address"
        },
        {
          "internalType": "string",
          "name": "newManagerName",
          "type": "string"
        }
      ],
      "name": "changeManager",
      "outputs": [],
      "stateMutability": "nonpayable",
      "type": "function"
    },
    {
      "inputs": [],
      "name": "creationTime",
      "outputs": [
        {
          "internalType": "uint256",
          "name": "",
          "type": "uint256"
        }
      ],
      "stateMutability": "view",
      "type": "function"
    },
    {
      "inputs": [],
      "name": "creator",
      "outputs": [
        {
          "internalType": "address",
          "name": "",
          "type": "address"
        }
      ],
      "stateMutability": "view",
      "type": "function"
    },
    {
      "inputs": [],
      "name": "decimals",
      "outputs": [
        {
          "internalType": "uint8",
          "name": "",
          "type": "uint8"
        }
      ],
      "stateMutability": "view",
      "type": "function"
    },
    {
      "inputs": [
        {
          "internalType": "address",
          "name": "spender",
          "type": "address"
        },
        {
          "internalType": "uint256",
          "name": "subtractedValue",
          "type": "uint256"
        }
      ],
      "name": "decreaseAllowance",
      "outputs": [
        {
          "internalType": "bool",
          "name": "",
          "type": "bool"
        }
      ],
      "stateMutability": "nonpayable",
      "type": "function"
    },
    {
      "inputs": [
        {
          "internalType": "uint256",
          "name": "_susdAmount",
          "type": "uint256"
        }
      ],
      "name": "deposit",
      "outputs": [
        {
          "internalType": "uint256",
          "name": "",
          "type": "uint256"
        }
      ],
      "stateMutability": "nonpayable",
      "type": "function"
    },
    {
      "inputs": [],
      "name": "factory",
      "outputs": [
        {
          "internalType": "address",
          "name": "",
          "type": "address"
        }
      ],
      "stateMutability": "view",
      "type": "function"
    },
    {
      "inputs": [],
      "name": "getExitFeeCooldown",
      "outputs": [
        {
          "internalType": "uint256",
          "name": "",
          "type": "uint256"
        }
      ],
      "stateMutability": "view",
      "type": "function"
    },
    {
      "inputs": [
        {
          "internalType": "address",
          "name": "sender",
          "type": "address"
        }
      ],
      "name": "getExitFeeRemainingCooldown",
      "outputs": [
        {
          "internalType": "uint256",
          "name": "",
          "type": "uint256"
        }
      ],
      "stateMutability": "view",
      "type": "function"
    },
    {
      "inputs": [],
      "name": "getFundSummary",
      "outputs": [
        {
          "internalType": "string",
          "name": "",
          "type": "string"
        },
        {
          "internalType": "uint256",
          "name": "",
          "type": "uint256"
        },
        {
          "internalType": "uint256",
          "name": "",
          "type": "uint256"
        },
        {
          "internalType": "address",
          "name": "",
          "type": "address"
        },
        {
          "internalType": "string",
          "name": "",
          "type": "string"
        },
        {
          "internalType": "uint256",
          "name": "",
          "type": "uint256"
        },
        {
          "internalType": "bool",
          "name": "",
          "type": "bool"
        },
        {
          "internalType": "uint256",
          "name": "",
          "type": "uint256"
        },
        {
          "internalType": "uint256",
          "name": "",
          "type": "uint256"
        },
        {
          "internalType": "uint256",
          "name": "",
          "type": "uint256"
        },
        {
          "internalType": "uint256",
          "name": "",
          "type": "uint256"
        }
      ],
      "stateMutability": "view",
      "type": "function"
    },
    {
      "inputs": [],
      "name": "getMembers",
      "outputs": [
        {
          "internalType": "address[]",
          "name": "",
          "type": "address[]"
        }
      ],
      "stateMutability": "view",
      "type": "function"
    },
    {
      "inputs": [],
      "name": "getPoolManagerLogic",
      "outputs": [
        {
          "internalType": "address",
          "name": "",
          "type": "address"
        }
      ],
      "stateMutability": "view",
      "type": "function"
    },
    {
      "inputs": [
        {
          "internalType": "address",
          "name": "spender",
          "type": "address"
        },
        {
          "internalType": "uint256",
          "name": "addedValue",
          "type": "uint256"
        }
      ],
      "name": "increaseAllowance",
      "outputs": [
        {
          "internalType": "bool",
          "name": "",
          "type": "bool"
        }
      ],
      "stateMutability": "nonpayable",
      "type": "function"
    },
    {
      "inputs": [
        {
          "internalType": "address",
          "name": "_factory",
          "type": "address"
        },
        {
          "internalType": "bool",
          "name": "_privatePool",
          "type": "bool"
        },
        {
          "internalType": "address",
          "name": "_manager",
          "type": "address"
        },
        {
          "internalType": "string",
          "name": "_managerName",
          "type": "string"
        },
        {
          "internalType": "string",
          "name": "_fundName",
          "type": "string"
        },
        {
          "internalType": "address",
          "name": "_poolManagerLogic",
          "type": "address"
        }
      ],
      "name": "initialize",
      "outputs": [],
      "stateMutability": "nonpayable",
      "type": "function"
    },
    {
      "inputs": [
        {
          "internalType": "address",
          "name": "member",
          "type": "address"
        }
      ],
      "name": "isMemberAllowed",
      "outputs": [
        {
          "internalType": "bool",
          "name": "",
          "type": "bool"
        }
      ],
      "stateMutability": "view",
      "type": "function"
    },
    {
      "inputs": [
        {
          "internalType": "address",
          "name": "",
          "type": "address"
        }
      ],
      "name": "lastDeposit",
      "outputs": [
        {
          "internalType": "uint256",
          "name": "",
          "type": "uint256"
        }
      ],
      "stateMutability": "view",
      "type": "function"
    },
    {
      "inputs": [],
      "name": "manager",
      "outputs": [
        {
          "internalType": "address",
          "name": "",
          "type": "address"
        }
      ],
      "stateMutability": "view",
      "type": "function"
    },
    {
      "inputs": [],
      "name": "managerName",
      "outputs": [
        {
          "internalType": "string",
          "name": "",
          "type": "string"
        }
      ],
      "stateMutability": "view",
      "type": "function"
    },
    {
      "inputs": [],
      "name": "mintManagerFee",
      "outputs": [],
      "stateMutability": "nonpayable",
      "type": "function"
    },
    {
      "inputs": [],
      "name": "name",
      "outputs": [
        {
          "internalType": "string",
          "name": "",
          "type": "string"
        }
      ],
      "stateMutability": "view",
      "type": "function"
    },
    {
      "inputs": [],
      "name": "numberOfMembers",
      "outputs": [
        {
          "internalType": "uint256",
          "name": "",
          "type": "uint256"
        }
      ],
      "stateMutability": "view",
      "type": "function"
    },
    {
      "inputs": [],
      "name": "poolManagerLogic",
      "outputs": [
        {
          "internalType": "address",
          "name": "",
          "type": "address"
        }
      ],
      "stateMutability": "view",
      "type": "function"
    },
    {
      "inputs": [],
      "name": "privatePool",
      "outputs": [
        {
          "internalType": "bool",
          "name": "",
          "type": "bool"
        }
      ],
      "stateMutability": "view",
      "type": "function"
    },
    {
      "inputs": [
        {
          "internalType": "address",
          "name": "member",
          "type": "address"
        }
      ],
      "name": "removeMember",
      "outputs": [],
      "stateMutability": "nonpayable",
      "type": "function"
    },
    {
      "inputs": [
        {
          "internalType": "address[]",
          "name": "members",
          "type": "address[]"
        }
      ],
      "name": "removeMembers",
      "outputs": [],
      "stateMutability": "nonpayable",
      "type": "function"
    },
    {
      "inputs": [
        {
          "internalType": "address",
          "name": "_poolManagerLogic",
          "type": "address"
        }
      ],
      "name": "setPoolManagerLogic",
      "outputs": [
        {
          "internalType": "bool",
          "name": "",
          "type": "bool"
        }
      ],
      "stateMutability": "nonpayable",
      "type": "function"
    },
    {
      "inputs": [
        {
          "internalType": "bool",
          "name": "_privatePool",
          "type": "bool"
        }
      ],
      "name": "setPoolPrivate",
      "outputs": [],
      "stateMutability": "nonpayable",
      "type": "function"
    },
    {
      "inputs": [],
      "name": "symbol",
      "outputs": [
        {
          "internalType": "string",
          "name": "",
          "type": "string"
        }
      ],
      "stateMutability": "view",
      "type": "function"
    },
    {
      "inputs": [],
      "name": "tokenPrice",
      "outputs": [
        {
          "internalType": "uint256",
          "name": "",
          "type": "uint256"
        }
      ],
      "stateMutability": "view",
      "type": "function"
    },
    {
      "inputs": [],
      "name": "tokenPriceAtLastFeeMint",
      "outputs": [
        {
          "internalType": "uint256",
          "name": "",
          "type": "uint256"
        }
      ],
      "stateMutability": "view",
      "type": "function"
    },
    {
      "inputs": [],
      "name": "totalFundValue",
      "outputs": [
        {
          "internalType": "uint256",
          "name": "",
          "type": "uint256"
        }
      ],
      "stateMutability": "view",
      "type": "function"
    },
    {
      "inputs": [],
      "name": "totalSupply",
      "outputs": [
        {
          "internalType": "uint256",
          "name": "",
          "type": "uint256"
        }
      ],
      "stateMutability": "view",
      "type": "function"
    },
    {
      "inputs": [
        {
          "internalType": "address",
          "name": "recipient",
          "type": "address"
        },
        {
          "internalType": "uint256",
          "name": "amount",
          "type": "uint256"
        }
      ],
      "name": "transfer",
      "outputs": [
        {
          "internalType": "bool",
          "name": "",
          "type": "bool"
        }
      ],
      "stateMutability": "nonpayable",
      "type": "function"
    },
    {
      "inputs": [
        {
          "internalType": "address",
          "name": "sender",
          "type": "address"
        },
        {
          "internalType": "address",
          "name": "recipient",
          "type": "address"
        },
        {
          "internalType": "uint256",
          "name": "amount",
          "type": "uint256"
        }
      ],
      "name": "transferFrom",
      "outputs": [
        {
          "internalType": "bool",
          "name": "",
          "type": "bool"
        }
      ],
      "stateMutability": "nonpayable",
      "type": "function"
    },
    {
      "inputs": [
        {
          "internalType": "uint256",
          "name": "_fundTokenAmount",
          "type": "uint256"
        }
      ],
      "name": "withdraw",
      "outputs": [],
      "stateMutability": "nonpayable",
      "type": "function"
    }
  ],
  "bytecode": "0x60806040523480156200001c576000806200001962000023565b50505b5062000090565b632a2a7adb598160e01b8152600481016020815285602082015260005b868110156200005d57808601518282016040015260200162000040565b506020828760640184336000905af158600e01573d6000803e3d6000fd5b3d6001141558600a015760016000f35b505050565b614e9580620000a06000396000f3fe608060405234801561001957600080610016614882565b50505b506004361061025c5760003560e01c8063750226de1161014f578063adefd871116100cc578063cc3c6df611610090578063cc3c6df614610bfc578063d8270dce14610c04578063dd62ed3e14610c0c578063eda96ea914610c43578063edbf6f5014610c4b578063fed4416a14610c535761025c565b8063adefd87114610b41578063b6b55f2514610b70578063bbbf725b14610b96578063c45a015514610bc5578063ca6d56dc14610bcd5761025c565b80639eab5253116101135780639eab525314610a6c578063a30e3fa914610ac7578063a457c2d714610acf578063a9059cbb14610b04578063ad60ffcc14610b395761025c565b8063750226de14610a1d5780637714f39d14610a4c5780637ff9b59614610a5457806395d89b4114610a5c5780639e24b07f14610a645761025c565b8063313ce567116101dd57806352213663116101a157806352213663146106b857806359b5e75e1461078f57806359c25f20146107975780636f4d469b1461092957806370a08231146109ee5761025c565b8063313ce56714610570578063395093511461058e5780633babaad5146105c357806346ee84b0146105eb578063481c6a75146106b05761025c565b80631c5918d2116102245780631c5918d2146103a15780631e50a4a6146104d457806323b872dd146104dc57806329d16ee81461051b5780632e1a7d4d1461054a5761025c565b806302d05d3f1461026a57806306fdde031461028e578063095ea7b31461030d5780630b1ca49a1461035657806318160ddd14610387575b600080610267614882565b50505b610272610c5b565b6040516001600160a01b03909116815260200160405180910390f35b610296610c7a565b60405160208082528190810183818151815260200191508051906020019080838360005b838110156102d25780820151838201526020016102ba565b50505050905090810190601f1680156102ff5780820380516001836020036101000a031916815260200191505b509250505060405180910390f35b6103426004803603604081101561032c57600080610329614882565b50505b506001600160a01b038135169060200135610d37565b604051901515815260200160405180910390f35b6103856004803603602081101561037557600080610372614882565b50505b50356001600160a01b0316610d55565b005b61038f610df3565b60405190815260200160405180910390f35b6103a9610e04565b60405180806020018c81526020018b81526020018a6001600160a01b0316815260200180602001898152602001881515815260200187815260200186815260200185815260200184815260200183810383528e818151815260200191508051906020019080838360005b8381101561042b578082015183820152602001610413565b50505050905090810190601f1680156104585780820380516001836020036101000a031916815260200191505b5083810382528a818151815260200191508051906020019080838360005b8381101561048e578082015183820152602001610476565b50505050905090810190601f1680156104bb5780820380516001836020036101000a031916815260200191505b509d505050505050505050505050505060405180910390f35b61027261107e565b610342600480360360608110156104fb576000806104f8614882565b50505b506001600160a01b0381358116916020810135909116906040013561108a565b61038f6004803603602081101561053a57600080610537614882565b50505b50356001600160a01b031661111e565b6103856004803603602081101561056957600080610566614882565b50505b5035611139565b610578611144565b60405160ff909116815260200160405180910390f35b610342600480360360408110156105ad576000806105aa614882565b50505b506001600160a01b038135169060200135611160565b610385600480360360208110156105e2576000806105df614882565b50505b503515156111c5565b6103856004803603602081101561060a57600080610607614882565b50505b810190602081018135600160201b81111561062d5760008061062a614882565b50505b82018360208201111561064857600080610645614882565b50505b803590602001918460208302840111600160201b831117156106725760008061066f614882565b50505b9190808060200260200160405190810160405280939291908181526020018383602002808284376000920191909152509295506112bd945050505050565b610272611396565b610385600480360360408110156106d7576000806106d4614882565b50505b6001600160a01b038235169190810190604081016020820135600160201b81111561070a57600080610707614882565b50505b82018360208201111561072557600080610722614882565b50505b803590602001918460018302840111600160201b8311171561074f5760008061074c614882565b50505b91908080601f01602080910402602001604051908101604052818152929190602084018383808284376000920191909152509295506113b8945050505050565b61034261152d565b610385600480360360c08110156107b6576000806107b3614882565b50505b6001600160a01b0382358116926020810135151592604082013590921691810190608081016060820135600160201b8111156107fa576000806107f7614882565b50505b82018360208201111561081557600080610812614882565b50505b803590602001918460018302840111600160201b8311171561083f5760008061083c614882565b50505b91908080601f01602080910402602001604051908101604052818152929190602084018383808284376000920191909152509295949360208101935035915050600160201b81111561089957600080610896614882565b50505b8201836020820111156108b4576000806108b1614882565b50505b803590602001918460018302840111600160201b831117156108de576000806108db614882565b50505b91908080601f0160208091040260200160405190810160405281815292919060208401838380828437600092019190915250929550505090356001600160a01b031691506115469050565b6103856004803603602081101561094857600080610945614882565b50505b810190602081018135600160201b81111561096b57600080610968614882565b50505b82018360208201111561098657600080610983614882565b50505b803590602001918460208302840111600160201b831117156109b0576000806109ad614882565b50505b919080806020026020016040519081016040528093929190818152602001838360200280828437600092019190915250929550611781945050505050565b61038f60048036036020811015610a0d57600080610a0a614882565b50505b50356001600160a01b031661184a565b61034260048036036020811015610a3c57600080610a39614882565b50505b50356001600160a01b0316611872565b61038f61197c565b61038f611986565b6102966119b0565b610272611a56565b610a74611a63565b60405160208082528190810183818151815260200191508051906020019060200280838360005b83811015610ab3578082015183820152602001610a9b565b505050509050019250505060405180910390f35b61038f611ae9565b61034260048036036040811015610aee57600080610aeb614882565b50505b506001600160a01b038135169060200135611afc565b61034260048036036040811015610b2357600080610b20614882565b50505b506001600160a01b038135169060200135611b72565b61038f611b86565b61038f60048036036020811015610b6057600080610b5d614882565b50505b50356001600160a01b0316611de1565b61038f60048036036020811015610b8f57600080610b8c614882565b50505b5035611efa565b61034260048036036020811015610bb557600080610bb2614882565b50505b50356001600160a01b0316612393565b6102726123bb565b61038560048036036020811015610bec57600080610be9614882565b50505b50356001600160a01b03166123c7565b610385612463565b61038f61246d565b61038f60048036036040811015610c2b57600080610c28614882565b50505b506001600160a01b0381358116916020013516612477565b61038f6124b7565b61038f612572565b6102966126df565b600160cd610c676148ed565b906101000a90046001600160a01b031681565b6060606880610c876148ed565b600181600116156101000203166002900480601f016020809104026020016040519081016040528181529190602083018280610cc16148ed565b60018160011615610100020316600290048015610d2d5780601f10610cfb576101008083610ced6148ed565b040283529160200191610d2d565b820191906000526020600020905b81610d126148ed565b81529060010190602001808311610d0957829003601f168201915b5050505050905090565b6000610d4b610d44612785565b8484612790565b5060015b92915050565b60006097610d616148ed565b906101000a90046001600160a01b03166001600160a01b03165a610d83614948565b6001600160a01b031614610dd55760405162461bcd60e51b815260206004820152600c60248201526b37b7363c9036b0b730b3b2b960a11b604482015260640160405180910390610dd2614882565b50505b610dde81612393565b610de757610df0565b610df0816128b8565b50565b60006067610dff6148ed565b905090565b6060600080808381808080808080808060cf610e1e6148ed565b906101000a90046001600160a01b03166001600160a01b031663b7a545265a63996d79a5598160e01b8152602081600483336000905af158600e01573d6000803e3d6000fd5b3d6001141558600a015760016000f35b8051925060005b6040811015610e9257600082820152602001610e7b565b5050506040516001600160e01b031960e084901b1681526001600160a01b03909116600482015260240160408051808303818680610ece61498e565b158015610ee357600080610ee0614882565b50505b505a610eed6149da565b5050505050158015610f0c573d6000803e3d6000610f09614882565b50505b505050506040513d6040811015610f2b57600080610f28614882565b50505b81019080805192919060200180519395509293506000925082915081905060cf610f536148ed565b906101000a90046001600160a01b03166001600160a01b031663ecb0116a6040518163ffffffff1660e01b815260040160408051808303818680610f9561498e565b158015610faa57600080610fa7614882565b50505b505a610fb46149da565b5050505050158015610fd3573d6000803e3d6000610fd0614882565b50505b505050506040513d6040811015610ff257600080610fef614882565b50505b81019080805192919060200180519395509293506110139250610c7a915050565b61101b610df3565b611023611b86565b61102b611396565b6110336126df565b60ce61103d6148ed565b600060cd6110496148ed565b906101000a900460ff168a8a8a8a9e509e509e509e509e509e509e509e509e509e509e5050505050909192939495969798999a565b600060d2610c676148ed565b6000611097848484612a39565b611114846110a3612785565b61110f85604051606081016040526028808252614d8d60208301396001600160a01b038a16600090815260666020526040902060006110e0612785565b6001600160a01b03166001600160a01b031681526020019081526020016000206111086148ed565b9190612bd7565b612790565b5060019392505050565b60d160205280600052604060002090506111366148ed565b81565b610df0816000612c77565b600080606a6111516148ed565b906101000a900460ff16905090565b6000610d4b61116d612785565b8461110f856066600061117e612785565b6001600160a01b03166001600160a01b031681526020019081526020016000206001600160a01b0389166000908152602091909152604090206111bf6148ed565b906139bf565b600060976111d16148ed565b906101000a90046001600160a01b03166001600160a01b03165a6111f3614948565b6001600160a01b0316146112455760405162461bcd60e51b815260206004820152600c60248201526b37b7363c9036b0b730b3b2b960a11b604482015260640160405180910390611242614882565b50505b801515600060cd6112546148ed565b906101000a900460ff16151514156112b45760405162461bcd60e51b8152602060048201526016602482015275199b1859c81b5d5cdd08189948191a5999995c995b9d60521b6044820152606401604051809103906112b1614882565b50505b610df081613a27565b600060976112c96148ed565b906101000a90046001600160a01b03166001600160a01b03165a6112eb614948565b6001600160a01b03161461133d5760405162461bcd60e51b815260206004820152600c60248201526b37b7363c9036b0b730b3b2b960a11b60448201526064016040518091039061133a614882565b50505b60005b81518110156113925761136582828151811061135857fe5b6020026020010151612393565b61136e5761138a565b61138a82828151811061137d57fe5b60200260200101516128b8565b600101611340565b5050565b60008060976113a36148ed565b906101000a90046001600160a01b0316905090565b600060976113c46148ed565b906101000a90046001600160a01b03166001600160a01b03165a6113e6614948565b6001600160a01b0316146114385760405162461bcd60e51b815260206004820152600c60248201526b37b7363c9036b0b730b3b2b960a11b604482015260640160405180910390611435614882565b50505b8160976001816114466148ed565b816001600160a01b0302191690836001600160a01b0316021790611468614ac5565b50505080609890805161147f929160200190614b13565b507f6ed15082ad038474841528b5badca105106d4463e44b5d434130dfb299aa366982826040516001600160a01b038316815260406020820181815290820183818151815260200191508051906020019080838360005b838110156114ee5780820151838201526020016114d6565b50505050905090810190601f16801561151b5780820380516001836020036101000a031916815260200191505b50935050505060405180910390a15050565b600060cd6115396148ed565b906101000a900460ff1681565b600160006115526148ed565b906101000a900460ff168061156a575061156a613a85565b80611587575060008061157b6148ed565b906101000a900460ff16155b6115cb5760405162461bcd60e51b815260040180806020018281038252602e815260200180614db5602e9139604001915050604051809103906115c8614882565b50505b60006001816115d86148ed565b906101000a900460ff16159050801561163e5760016000610100816115fb6148ed565b8160ff02191690831515021790611610614ac5565b50505060016000806101000a816116256148ed565b8160ff0219169083151502179061163a614ac5565b5050505b611662836040516040808201905260048152631112141560e21b6020820152613af6565b61166c8585613c2f565b8660cf60018161167a6148ed565b816001600160a01b0302191690836001600160a01b031602179061169c614ac5565b5050506116a886613a27565b5a6116b1614948565b60cd610100816116bf6148ed565b816001600160a01b0302191690836001600160a01b03160217906116e1614ac5565b5050505a6116ed614bb3565b8060ce6116f8614ac5565b505050670de0b6b3a764000060d08190611710614ac5565b5050508160d260006101000a816117256148ed565b816001600160a01b0302191690836001600160a01b0316021790611747614ac5565b5050508015611778576000806101008161175f6148ed565b8160ff02191690831515021790611774614ac5565b5050505b50505050505050565b6000609761178d6148ed565b906101000a90046001600160a01b03166001600160a01b03165a6117af614948565b6001600160a01b0316146118015760405162461bcd60e51b815260206004820152600c60248201526b37b7363c9036b0b730b3b2b960a11b6044820152606401604051809103906117fe614882565b50505b60005b81518110156113925761181c82828151811061135857fe5b1561182657611842565b61184282828151811061183557fe5b6020026020010151613c76565b600101611804565b6001600160a01b038116600090815260656020526040812061186a6148ed565b90505b919050565b600080609761187f6148ed565b906101000a90046001600160a01b03166001600160a01b03165a6118a1614948565b6001600160a01b0316146118f35760405162461bcd60e51b815260206004820152600c60248201526b37b7363c9036b0b730b3b2b960a11b6044820152606401604051809103906118f0614882565b50505b8160d26001816119016148ed565b816001600160a01b0302191690836001600160a01b0316021790611923614ac5565b5050507f63fb64c359a4cae97e1bf003c1ab11390b5f0e18cc5b3d67b90bd61c0f5c52fd825a611951614948565b6040516001600160a01b039283168152911660208201526040908101905180910390a1506001919050565b60d06111366148ed565b600080611991611b86565b9050600061199d610df3565b90506119a98282613d08565b9250505090565b60606069806119bd6148ed565b600181600116156101000203166002900480601f0160208091040260200160405190810160405281815291906020830182806119f76148ed565b60018160011615610100020316600290048015610d2d5780601f10611a23576101008083610ced6148ed565b820191906000526020600020905b81611a3a6148ed565b81529060010190602001808311611a3157509395945050505050565b60008060d26113a36148ed565b6060609980611a706148ed565b806020026020016040519081016040528181529190602083018280611a936148ed565b8015610d2d57602002820191906000526020600020905b600082611ab56148ed565b906101000a90046001600160a01b03166001600160a01b031681526020019060010190808311611aaa575050505050905090565b6000609980611af66148ed565b91505090565b6000610d4b611b09612785565b8461110f85604051606081016040526025808252614e4d602083013960666000611b31612785565b6001600160a01b03166001600160a01b031681526020019081526020016000206001600160a01b038a166000908152602091909152604090206111086148ed565b6000610d4b611b7f612785565b8484612a39565b600080808060d2611b956148ed565b906101000a90046001600160a01b031690506060816001600160a01b031663e5406dbf6040518163ffffffff1660e01b81526004016000604051808303818680611bdd61498e565b158015611bf257600080611bef614882565b50505b505a611bfc6149da565b5050505050158015611c1b573d6000803e3d6000611c18614882565b50505b505050506040513d6000823e601f3d908101601f191682016040526020811015611c4d57600080611c4a614882565b50505b8101908080516040519392919084600160201b821115611c7557600080611c72614882565b50505b908301906020820185811115611c9357600080611c90614882565b50505b82518660208202830111600160201b82111715611cb857600080611cb5614882565b50505b825250602001908051906020019060200280838360005b83811015611ce7578082015183820152602001611ccf565b50505050905001604052505050905060008151905060005b81811015611dd757611dcd846001600160a01b0316630499123f858481518110611d2557fe5b60200260200101516040516001600160e01b031960e084901b16815260048101919091526024016020604051808303818680611d5f61498e565b158015611d7457600080611d71614882565b50505b505a611d7e6149da565b5050505050158015611d9d573d6000803e3d6000611d9a614882565b50505b505050506040513d6020811015611dbc57600080611db9614882565b50505b8101908080518993509150506139bf565b9450600101611cff565b5092935050505090565b6000808060cf611def6148ed565b906101000a90046001600160a01b03166001600160a01b031663eda96ea96040518163ffffffff1660e01b81526004016020604051808303818680611e3261498e565b158015611e4757600080611e44614882565b50505b505a611e516149da565b5050505050158015611e70573d6000803e3d6000611e6d614882565b50505b505050506040513d6020811015611e8f57600080611e8c614882565b50505b8101908080516001600160a01b038716600090815260d16020529094509250611ec29150839050604083206111bf6148ed565b90505a611ecd614bb3565b811015611edf5760009250505061186d565b611ef25a611eeb614bb3565b8290613d38565b949350505050565b6000611f04611396565b6001600160a01b03165a611f16614948565b6001600160a01b03161480611f3e5750600060cd611f326148ed565b906101000a900460ff16155b80611f555750611f555a611f50614948565b612393565b611fa55760405162461bcd60e51b81526020600482015260146024820152731bdb9b1e481b595b58995c9cc8185b1b1bddd95960621b604482015260640160405180910390611fa2614882565b50505b5a611fae614bb3565b60d160005a611fbb614948565b6001600160a01b03166001600160a01b031681526020019081526020016000208190611fe5614ac5565b505050611ff0613d78565b6000611ffa611b86565b90506000612006610df3565b905060008060d26120156148ed565b906101000a90046001600160a01b03169050806001600160a01b0316633ded6530631cd554d160e21b6040516001600160e01b031960e084901b1681526004810191909152602401602060405180830381868061207061498e565b15801561208557600080612082614882565b50505b505a61208f6149da565b50505050501580156120ae573d6000803e3d60006120ab614882565b50505b505050506040513d60208110156120cd576000806120ca614882565b50505b8101908080516001600160a01b031692506323b872dd9150505a6120ef614948565b5a63996d79a5598160e01b8152602081600483336000905af158600e01573d6000803e3d6000fd5b3d6001141558600a015760016000f35b8051925060005b60408110156121455760008282015260200161212e565b505050886040516001600160e01b031960e086901b1681526001600160a01b03938416600482015291909216602482015260448101919091526064016020604051808303816000878061219661498e565b1580156121ab576000806121a8614882565b50505b505a6121b5614bf9565b5050505050501580156121d5573d6000803e3d60006121d2614882565b50505b505050506040513d60208110156121f4576000806121f1614882565b50505b81019080805192506122509150505760405162461bcd60e51b81526020600482015260156024820152741d1bdad95b881d1c985b9cd9995c8819985a5b1959605a1b60448201526064016040518091039061224d614882565b50505b600082156122735761226c8461226688866141a9565b90614208565b9050612276565b50845b6122885a612282614948565b82614248565b7f87fdcba84e083ebb8fd661bbafee3eb38764ec6f0cbeea8ed52deffa67bd45dc5a63996d79a5598160e01b8152602081600483336000905af158600e01573d6000803e3d6000fd5b3d6001141558600a015760016000f35b8051925060005b60408110156122ff576000828201526020016122e8565b5050505a61230b614948565b888461231e5a612319614948565b61184a565b6123288a8d6139bf565b6123328a896139bf565b5a61233b614bb3565b6040516001600160a01b0398891681529690971660208701526040808701959095526060860193909352608085019190915260a084015260c083015260e082019290925261010001905180910390a195945050505050565b6001600160a01b0381166000908152609a602052604081206123b36148ed565b151592915050565b600060cf610c676148ed565b600060976123d36148ed565b906101000a90046001600160a01b03166001600160a01b03165a6123f5614948565b6001600160a01b0316146124475760405162461bcd60e51b815260206004820152600c60248201526b37b7363c9036b0b730b3b2b960a11b604482015260640160405180910390612444614882565b50505b61245081612393565b1561245a57610df0565b610df081613c76565b61246b613d78565b565b60ce6111366148ed565b6001600160a01b03821660009081526066602052604081206001600160a01b0383166000908152602091909152604090206124b06148ed565b9392505050565b60008060cf6124c46148ed565b906101000a90046001600160a01b03166001600160a01b031663eda96ea96040518163ffffffff1660e01b8152600401602060405180830381868061250761498e565b15801561251c57600080612519614882565b50505b505a6125266149da565b5050505050158015612545573d6000803e3d6000612542614882565b50505b505050506040513d602081101561256457600080612561614882565b50505b810190808051935050505090565b60008061257d611b86565b90506000612589610df3565b90506000808060cf6125996148ed565b906101000a90046001600160a01b03166001600160a01b031663b7a545265a63996d79a5598160e01b8152602081600483336000905af158600e01573d6000803e3d6000fd5b3d6001141558600a015760016000f35b8051925060005b604081101561260d576000828201526020016125f6565b5050506040516001600160e01b031960e084901b1681526001600160a01b0390911660048201526024016040805180830381868061264961498e565b15801561265e5760008061265b614882565b50505b505a6126686149da565b5050505050158015612687573d6000803e3d6000612684614882565b50505b505050506040513d60408110156126a6576000806126a3614882565b50505b81019080805192919060200180519395509293506126d6925086915085905060d06126cf6148ed565b8585614361565b94505050505090565b60606098806126ec6148ed565b600181600116156101000203166002900480601f0160208091040260200160405190810160405281815291906020830182806127266148ed565b60018160011615610100020316600290048015610d2d5780601f10612752576101008083610ced6148ed565b820191906000526020600020905b816127696148ed565b8152906001019060200180831161276057509395945050505050565b60005a610dff614948565b6001600160a01b0383166127de5760405162461bcd60e51b8152600401808060200182810382526024815260200180614e2960249139604001915050604051809103906127db614882565b50505b6001600160a01b03821661282c5760405162461bcd60e51b8152600401808060200182810382526022815260200180614d246022913960400191505060405180910390612829614882565b50505b6001600160a01b038316600090815260666020528190604090206001600160a01b0384166000908152602091909152604090208190612869614ac5565b505050816001600160a01b0316836001600160a01b03167f8c5be1e5ebec7d5bd14f71427d1e84f3dd0314c0f7b2291e5b200ac8c7c3b9258360405190815260200160405180910390a3505050565b60006099806128c56148ed565b6001600160a01b0384166000908152609a60205290925090506128f56001604083206128ef6148ed565b90613d38565b905060006099612906846001613d38565b8161290f6148ed565b811061291757fe5b9060005260206000200160009061292c6148ed565b906101000a90046001600160a01b03169050806099838161294b6148ed565b811061295357fe5b906000526020600020016001816129686148ed565b816001600160a01b0302191690836001600160a01b031602179061298a614ac5565b5061299a915083905060016139bf565b6001600160a01b0382166000908152609a6020526040902081906129bc614ac5565b5050506001600160a01b0384166000908152609a6020526040812081906129e1614ac5565b5050506099806129ef6148ed565b806129f657fe5b60019003818190600052602060002001600181612a116148ed565b906001600160a01b0302191690612a26614ac5565b505090612a31614ac5565b505050505050565b6001600160a01b038316612a875760405162461bcd60e51b8152600401808060200182810382526025815260200180614e046025913960400191505060405180910390612a84614882565b50505b6001600160a01b038216612ad55760405162461bcd60e51b8152600401808060200182810382526023815260200180614cdf6023913960400191505060405180910390612ad2614882565b50505b612ae08383836143da565b612b1b81604051606081016040526026808252614d4660208301396001600160a01b03861660009081526065602052604090206111086148ed565b6001600160a01b03841660009081526065602052604090208190612b3d614ac5565b5050506001600160a01b03821660009081526065602052612b66908290604090206111bf6148ed565b6001600160a01b03831660009081526065602052604090208190612b88614ac5565b505050816001600160a01b0316836001600160a01b03167fddf252ad1be2c89b69c2b068fc378daa952ba7f163c4a11628f55a4df523b3ef8360405190815260200160405180910390a3505050565b60008184841115612c6f5760405162461bcd60e51b81526004018080602001828103825283818151815260200191508051906020019080838360005b83811015612c2b578082015183820152602001612c13565b50505050905090810190601f168015612c585780820380516001836020036101000a031916815260200191505b509250505060405180910390612c6c614882565b50505b505050900390565b81612c845a612319614948565b1015612cca5760405162461bcd60e51b8152600401808060200182810382526023815260200180614e726023913960400191505060405180910390612cc7614882565b50505b6000806000612ce05a612cdb614948565b611de1565b1115612dae57600060cf612cf26148ed565b906101000a90046001600160a01b03166001600160a01b031663ecb0116a6040518163ffffffff1660e01b815260040160408051808303818680612d3461498e565b158015612d4957600080612d46614882565b50505b505a612d536149da565b5050505050158015612d72573d6000803e3d6000612d6f614882565b50505b505050506040513d6040811015612d9157600080612d8e614882565b50505b8101908080519291906020018051939550929350612db692505050565b506000905060015b6000612dc68261226687866141a9565b9050600060d160005a612dd7614948565b6001600160a01b03166001600160a01b03168152602001908152602001600020612dff6148ed565b9050600060d160005a612e10614948565b6001600160a01b03166001600160a01b031681526020019081526020016000208190612e3a614ac5565b505082159050612f125760008060cf612e516148ed565b906101000a90046001600160a01b03166001600160a01b0316631d68702d6040518163ffffffff1660e01b81526004016020604051808303818680612e9461498e565b158015612ea957600080612ea6614882565b50505b505a612eb36149da565b5050505050158015612ed2573d6000803e3d6000612ecf614882565b50505b505050506040513d6020811015612ef157600080612eee614882565b50505b8101908080519350612f10925050505a612f09614948565b8285612a39565b505b612f1a613d78565b6000612f24611b86565b9050612f308784613d38565b96506000612f51612f3f610df3565b6122668a670de0b6b3a76400006141a9565b9050612f655a612f5f614948565b8961443e565b60008060d2612f726148ed565b906101000a90046001600160a01b031690506060816001600160a01b031663e5406dbf6040518163ffffffff1660e01b81526004016000604051808303818680612fba61498e565b158015612fcf57600080612fcc614882565b50505b505a612fd96149da565b5050505050158015612ff8573d6000803e3d6000612ff5614882565b50505b505050506040513d6000823e601f3d908101601f19168201604052602081101561302a57600080613027614882565b50505b8101908080516040519392919084600160201b8211156130525760008061304f614882565b50505b9083019060208201858111156130705760008061306d614882565b50505b82518660208202830111600160201b8211171561309557600080613092614882565b50505b825250602001908051906020019060200280838360005b838110156130c45780820151838201526020016130ac565b5050505090500160405250505090506000815190508915613598576000836001600160a01b03166305a2ee2a6040518163ffffffff1660e01b8152600401602060405180830381868061311561498e565b15801561312a57600080613127614882565b50505b505a6131346149da565b5050505050158015613153573d6000803e3d6000613150614882565b50505b505050506040513d60208110156131725760008061316f614882565b50505b8101908080516001600160a01b031692506321f8a72191506b53797374656d53746174757360a01b90506040516001600160e01b031960e084901b168152600481019190915260240160206040518083038186806131ce61498e565b1580156131e3576000806131e0614882565b50505b505a6131ed6149da565b505050505015801561320c573d6000803e3d6000613209614882565b50505b505050506040513d602081101561322b57600080613228614882565b50505b81019080805193506000925050505b8281101561359157816001600160a01b03166342a28e2185838151811061325d57fe5b60200260200101516040516001600160e01b031960e084901b1681526004810191909152602401600060405180830381868061329761498e565b1580156132ac576000806132a9614882565b50505b505a6132b66149da565b50505050509250505080156132c9575060015b6132d257613589565b6000856001600160a01b0316633ded65308684815181106132ef57fe5b60200260200101516040516001600160e01b031960e084901b1681526004810191909152602401602060405180830381868061332961498e565b15801561333e5760008061333b614882565b50505b505a6133486149da565b5050505050158015613367573d6000803e3d6000613364614882565b50505b505050506040513d602081101561338657600080613383614882565b50505b810190808051935060009250506001600160a01b03831690506370a082315a63996d79a5598160e01b8152602081600483336000905af158600e01573d6000803e3d6000fd5b3d6001141558600a015760016000f35b8051925060005b60408110156133fa576000828201526020016133e3565b5050506040516001600160e01b031960e084901b1681526001600160a01b039091166004820152602401602060405180830381868061343761498e565b15801561344c57600080613449614882565b50505b505a6134566149da565b5050505050158015613475573d6000803e3d6000613472614882565b50505b505050506040513d602081101561349457600080613491614882565b50505b8101908080519350600092506134ba9150670de0b6b3a76400009050612266848c6141a9565b9050801561358557826001600160a01b031663a9059cbb5a6134da614948565b836040516001600160e01b031960e085901b1681526001600160a01b03909216600483015260248201526044016020604051808303816000878061351c61498e565b1580156135315760008061352e614882565b50505b505a61353b614bf9565b50505050505015801561355b573d6000803e3d6000613558614882565b50505b505050506040513d602081101561357a57600080613577614882565b50505b810190808051505050505b5050505b60010161323a565b5050613863565b60005b81811015613861576000846001600160a01b0316633ded65308584815181106135c057fe5b60200260200101516040516001600160e01b031960e084901b168152600481019190915260240160206040518083038186806135fa61498e565b15801561360f5760008061360c614882565b50505b505a6136196149da565b5050505050158015613638573d6000803e3d6000613635614882565b50505b505050506040513d602081101561365757600080613654614882565b50505b810190808051935060009250506001600160a01b03831690506370a082315a63996d79a5598160e01b8152602081600483336000905af158600e01573d6000803e3d6000fd5b3d6001141558600a015760016000f35b8051925060005b60408110156136cb576000828201526020016136b4565b5050506040516001600160e01b031960e084901b1681526001600160a01b039091166004820152602401602060405180830381868061370861498e565b15801561371d5760008061371a614882565b50505b505a6137276149da565b5050505050158015613746573d6000803e3d6000613743614882565b50505b505050506040513d602081101561376557600080613762614882565b50505b81019080805193506000925061378b9150670de0b6b3a76400009050612266848b6141a9565b9050801561385657826001600160a01b031663a9059cbb5a6137ab614948565b836040516001600160e01b031960e085901b1681526001600160a01b0390921660048301526024820152604401602060405180830381600087806137ed61498e565b158015613802576000806137ff614882565b50505b505a61380c614bf9565b50505050505015801561382c573d6000803e3d6000613829614882565b50505b505050506040513d602081101561384b57600080613848614882565b50505b810190808051505050505b50505060010161359b565b505b600061387b670de0b6b3a764000061226687896141a9565b90508660d160005a61388b614948565b6001600160a01b03166001600160a01b0316815260200190815260200160002081906138b5614ac5565b5050507f79d44cc8beeed36226f14818b2ecaca7ef252bcd56c9ae35f5a86869dbdefb975a63996d79a5598160e01b8152602081600483336000905af158600e01573d6000803e3d6000fd5b3d6001141558600a015760016000f35b8051925060005b604081101561392f57600082820152602001613918565b5050505a61393b614948565b838f6139495a612319614948565b613951611b86565b613959610df3565b5a613962614bb3565b6040516001600160a01b0398891681529690971660208701526040808701959095526060860193909352608085019190915260a084015260c083015260e082019290925261010001905180910390a1505050505050505050505050565b6000828201838110156124b05760405162461bcd60e51b815260206004820152601b60248201527f536166654d6174683a206164646974696f6e206f766572666c6f770000000000604482015260640160405180910390613a1e614882565b50509392505050565b8060cd600181613a356148ed565b8160ff02191690831515021790613a4a614ac5565b5050507f8d75e9ede4188432084b863d70b3416010c97547dfeb4fc17734d2e997ee0f3981604051901515815260200160405180910390a150565b6000805a63996d79a5598160e01b8152602081600483336000905af158600e01573d6000803e3d6000fd5b3d6001141558600a015760016000f35b8051925060005b6040811015613ade57600082820152602001613ac7565b5050509050600081613aee61498e565b159250505090565b60016000613b026148ed565b906101000a900460ff1680613b1a5750613b1a613a85565b80613b375750600080613b2b6148ed565b906101000a900460ff16155b613b7b5760405162461bcd60e51b815260040180806020018281038252602e815260200180614db5602e913960400191505060405180910390613b78614882565b50505b6000600181613b886148ed565b906101000a900460ff161590508015613bee576001600061010081613bab6148ed565b8160ff02191690831515021790613bc0614ac5565b50505060016000806101000a81613bd56148ed565b8160ff02191690831515021790613bea614ac5565b5050505b613bf6614558565b613c00838361467a565b8015613c2a5760008061010081613c156148ed565b8160ff02191690831515021790612a31614ac5565b505050565b816097600181613c3d6148ed565b816001600160a01b0302191690836001600160a01b0316021790613c5f614ac5565b505050806098908051613c2a929160200190614b13565b80609980600181613c856148ed565b018082613c90614ac5565b505060009283526000190191602091502001600181613cad6148ed565b816001600160a01b0302191690836001600160a01b0316021790613ccf614ac5565b505050609980613cdd6148ed565b6001600160a01b0383166000908152609a602052909150604090208190613d02614ac5565b50505050565b6000811580613d15575082155b15613d2257506000610d4f565b6124b08261226685670de0b6b3a76400006141a9565b60006124b0838360405160408082019052601e81527f536166654d6174683a207375627472616374696f6e206f766572666c6f7700006020820152612bd7565b6000613d82611b86565b90506000613d8e610df3565b90506000808060cf613d9e6148ed565b906101000a90046001600160a01b03166001600160a01b031663b7a545265a63996d79a5598160e01b8152602081600483336000905af158600e01573d6000803e3d6000fd5b3d6001141558600a015760016000f35b8051925060005b6040811015613e1257600082820152602001613dfb565b5050506040516001600160e01b031960e084901b1681526001600160a01b03909116600482015260240160408051808303818680613e4e61498e565b158015613e6357600080613e60614882565b50505b505a613e6d6149da565b5050505050158015613e8c573d6000803e3d6000613e89614882565b50505b505050506040513d6040811015613eab57600080613ea8614882565b50505b810190808051929190602001805193955092935060009250613edd91508690508560d0613ed66148ed565b8686614361565b90506064811015613ef257505050505061246b565b60008060cf613eff6148ed565b906101000a90046001600160a01b03166001600160a01b0316631d68702d6040518163ffffffff1660e01b81526004016020604051808303818680613f4261498e565b158015613f5757600080613f54614882565b50505b505a613f616149da565b5050505050158015613f80573d6000803e3d6000613f7d614882565b50505b505050506040513d6020811015613f9f57600080613f9c614882565b50505b81019080805193506000925082915081905060cf613fbb6148ed565b906101000a90046001600160a01b03166001600160a01b0316639cada6e46040518163ffffffff1660e01b815260040160408051808303818680613ffd61498e565b1580156140125760008061400f614882565b50505b505a61401c6149da565b505050505015801561403b573d6000803e3d6000614038614882565b50505b505050506040513d604081101561405a57600080614057614882565b50505b810190808051929190602001805193955092935060009250614084915083905061226687866141a9565b905060006140928683613d38565b905081156140a4576140a48583614248565b80156140b5576140b5612282611396565b6140bf8a8a613d08565b8060d06140ca614ac5565b5050507f755a8059d66d8d243bc9f6913f429a811f154599d0538bb0b6a2ac23f23d2ccd5a63996d79a5598160e01b8152602081600483336000905af158600e01573d6000803e3d6000fd5b3d6001141558600a015760016000f35b8051925060005b60408110156141445760008282015260200161412d565b50505061414f611396565b88858560d061415c6148ed565b6040516001600160a01b0396871681529490951660208501526040808501939093526060840191909152608083015260a082019290925260c001905180910390a150505050505050505050565b6000826141b857506000610d4f565b828202828482816141c557fe5b04146124b05760405162461bcd60e51b8152600401808060200182810382526021815260200180614d6c6021913960400191505060405180910390613a1e614882565b60006124b0838360405160408082019052601a81527f536166654d6174683a206469766973696f6e206279207a65726f00000000000060208201526147d7565b6001600160a01b0382166142ab5760405162461bcd60e51b815260206004820152601f60248201527f45524332303a206d696e7420746f20746865207a65726f2061646472657373006044820152606401604051809103906142a8614882565b50505b6142b7600083836143da565b6142c58160676111bf6148ed565b8060676142d0614ac5565b5050506001600160a01b038216600090815260656020526142f9908290604090206111bf6148ed565b6001600160a01b0383166000908152606560205260409020819061431b614ac5565b5050506001600160a01b03821660007fddf252ad1be2c89b69c2b068fc378daa952ba7f163c4a11628f55a4df523b3ef8360405190815260200160405180910390a35050565b600084158061436e575085155b1561437b575060006143d1565b60006143938661226689670de0b6b3a76400006141a9565b90508481116143a65760009150506143d1565b60006143cc670de0b6b3a76400006122668681896143c68d818a8f613d38565b906141a9565b925050505b95945050505050565b6143e5838383613c2a565b6143ee83611de1565b15613c2a5760405162461bcd60e51b815260206004820152600f60248201526e636f6f6c646f776e2061637469766560881b604482015260640160405180910390614437614882565b5050505050565b6001600160a01b03821661448c5760405162461bcd60e51b8152600401808060200182810382526021815260200180614de36021913960400191505060405180910390614489614882565b50505b614498826000836143da565b6144d381604051606081016040526022808252614d0260208301396001600160a01b03851660009081526065602052604090206111086148ed565b6001600160a01b038316600090815260656020526040902081906144f5614ac5565b5050506145068160676128ef6148ed565b806067614511614ac5565b5060009150506001600160a01b0383167fddf252ad1be2c89b69c2b068fc378daa952ba7f163c4a11628f55a4df523b3ef8360405190815260200160405180910390a35050565b600160006145646148ed565b906101000a900460ff168061457c575061457c613a85565b80614599575060008061458d6148ed565b906101000a900460ff16155b6145dd5760405162461bcd60e51b815260040180806020018281038252602e815260200180614db5602e9139604001915050604051809103906145da614882565b50505b60006001816145ea6148ed565b906101000a900460ff16159050801561465057600160006101008161460d6148ed565b8160ff02191690831515021790614622614ac5565b50505060016000806101000a816146376148ed565b8160ff0219169083151502179061464c614ac5565b5050505b8015610df057600080610100816146656148ed565b8160ff02191690831515021790613d02614ac5565b600160006146866148ed565b906101000a900460ff168061469e575061469e613a85565b806146bb57506000806146af6148ed565b906101000a900460ff16155b6146ff5760405162461bcd60e51b815260040180806020018281038252602e815260200180614db5602e9139604001915050604051809103906146fc614882565b50505b600060018161470c6148ed565b906101000a900460ff16159050801561477257600160006101008161472f6148ed565b8160ff02191690831515021790614744614ac5565b50505060016000806101000a816147596148ed565b8160ff0219169083151502179061476e614ac5565b5050505b6068838051614785929160200190614b13565b506069828051614799929160200190614b13565b506012606a6001816147a96148ed565b8160ff021916908360ff160217906147bf614ac5565b5050508015613c2a5760008061010081613c156148ed565b6000818361486c5760405162461bcd60e51b81526004018080602001828103825283818151815260200191508051906020019080838360005b83811015614828578082015183820152602001614810565b50505050905090810190601f1680156148555780820380516001836020036101000a031916815260200191505b509250505060405180910390614869614882565b50505b50600083858161487857fe5b0495945050505050565b632a2a7adb598160e01b8152600481016020815285602082015260005b868110156148ba57808601518282016040015260200161489f565b506020828760640184336000905af158600e01573d6000803e3d6000fd5b3d6001141558600a015760016000f35b505050565b6303daa959598160e01b8152836004820152602081602483336000905af158600e01573d6000803e3d6000fd5b3d6001141558600a015760016000f35b8051935060005b6040811015613c2a57600082820152602001614931565b6373509064598160e01b8152602081600483336000905af158600e01573d6000803e3d6000fd5b3d6001141558600a015760016000f35b80516000825293506020614931565b638435035b598160e01b8152836004820152602081602483336000905af158600e01573d6000803e3d6000fd5b3d6001141558600a015760016000f35b80516000825293506020614931565b638540661f598160e01b8152614a0b565b8080831115610d4f575090919050565b8080831015610d4f575090919050565b836004820152846024820152606060448201528660648201526084810160005b88811015614a43578088015182820152602001614a2b565b506060828960a40184336000905af158600e01573d6000803e3d6000fd5b3d6001141558600a015760016000f35b815160408301513d6000853e8b8b82606087013350600060045af15059614a988d3d6149fb565b8c01614aa481876149eb565b5b82811015614ab95760008152602001614aa5565b50929c50505050505050565b6322bd64c0598160e01b8152836004820152846024820152600081604483336000905af158600e01573d6000803e3d6000fd5b3d6001141558600a015760016000f35b600081526020614931565b8280614b1d6148ed565b600181600116156101000203166002900490600052602060002090601f016020900481019282601f10614b6457805160ff19168380011785614b5d614ac5565b5050614ba3565b82800160010185614b73614ac5565b50508215614ba3579182015b82811115614ba357825182614b92614ac5565b505091602001919060010190614b7f565b50614baf929150614cbf565b5090565b63bdbf8c36598160e01b8152602081600483336000905af158600e01573d6000803e3d6000fd5b3d6001141558600a015760016000f35b80516000825293506020614931565b6385979f76598160e01b8152836004820152846024820152606060448201528760648201526084810160005b89811015614c3d578089015182820152602001614c25565b506060828a60a40184336000905af158600e01573d6000803e3d6000fd5b3d6001141558600a015760016000f35b815160408301513d6000853e8c8c82606087013350600060045af15059614c928e3d6149fb565b8d01614c9e81876149eb565b5b82811015614cb35760008152602001614c9f565b50929d50505050505050565b80821115614baf5760008082614cd3614ac5565b505050600101614cbf56fe45524332303a207472616e7366657220746f20746865207a65726f206164647265737345524332303a206275726e20616d6f756e7420657863656564732062616c616e636545524332303a20617070726f766520746f20746865207a65726f206164647265737345524332303a207472616e7366657220616d6f756e7420657863656564732062616c616e6365536166654d6174683a206d756c7469706c69636174696f6e206f766572666c6f7745524332303a207472616e7366657220616d6f756e74206578636565647320616c6c6f77616e6365436f6e747261637420696e7374616e63652068617320616c7265616479206265656e20696e697469616c697a656445524332303a206275726e2066726f6d20746865207a65726f206164647265737345524332303a207472616e736665722066726f6d20746865207a65726f206164647265737345524332303a20617070726f76652066726f6d20746865207a65726f206164647265737345524332303a2064656372656173656420616c6c6f77616e63652062656c6f77207a65726f696e73756666696369656e742062616c616e6365206f662066756e6420746f6b656e73",
  "deployedBytecode": "0x608060405234801561001957600080610016614882565b50505b506004361061025c5760003560e01c8063750226de1161014f578063adefd871116100cc578063cc3c6df611610090578063cc3c6df614610bfc578063d8270dce14610c04578063dd62ed3e14610c0c578063eda96ea914610c43578063edbf6f5014610c4b578063fed4416a14610c535761025c565b8063adefd87114610b41578063b6b55f2514610b70578063bbbf725b14610b96578063c45a015514610bc5578063ca6d56dc14610bcd5761025c565b80639eab5253116101135780639eab525314610a6c578063a30e3fa914610ac7578063a457c2d714610acf578063a9059cbb14610b04578063ad60ffcc14610b395761025c565b8063750226de14610a1d5780637714f39d14610a4c5780637ff9b59614610a5457806395d89b4114610a5c5780639e24b07f14610a645761025c565b8063313ce567116101dd57806352213663116101a157806352213663146106b857806359b5e75e1461078f57806359c25f20146107975780636f4d469b1461092957806370a08231146109ee5761025c565b8063313ce56714610570578063395093511461058e5780633babaad5146105c357806346ee84b0146105eb578063481c6a75146106b05761025c565b80631c5918d2116102245780631c5918d2146103a15780631e50a4a6146104d457806323b872dd146104dc57806329d16ee81461051b5780632e1a7d4d1461054a5761025c565b806302d05d3f1461026a57806306fdde031461028e578063095ea7b31461030d5780630b1ca49a1461035657806318160ddd14610387575b600080610267614882565b50505b610272610c5b565b6040516001600160a01b03909116815260200160405180910390f35b610296610c7a565b60405160208082528190810183818151815260200191508051906020019080838360005b838110156102d25780820151838201526020016102ba565b50505050905090810190601f1680156102ff5780820380516001836020036101000a031916815260200191505b509250505060405180910390f35b6103426004803603604081101561032c57600080610329614882565b50505b506001600160a01b038135169060200135610d37565b604051901515815260200160405180910390f35b6103856004803603602081101561037557600080610372614882565b50505b50356001600160a01b0316610d55565b005b61038f610df3565b60405190815260200160405180910390f35b6103a9610e04565b60405180806020018c81526020018b81526020018a6001600160a01b0316815260200180602001898152602001881515815260200187815260200186815260200185815260200184815260200183810383528e818151815260200191508051906020019080838360005b8381101561042b578082015183820152602001610413565b50505050905090810190601f1680156104585780820380516001836020036101000a031916815260200191505b5083810382528a818151815260200191508051906020019080838360005b8381101561048e578082015183820152602001610476565b50505050905090810190601f1680156104bb5780820380516001836020036101000a031916815260200191505b509d505050505050505050505050505060405180910390f35b61027261107e565b610342600480360360608110156104fb576000806104f8614882565b50505b506001600160a01b0381358116916020810135909116906040013561108a565b61038f6004803603602081101561053a57600080610537614882565b50505b50356001600160a01b031661111e565b6103856004803603602081101561056957600080610566614882565b50505b5035611139565b610578611144565b60405160ff909116815260200160405180910390f35b610342600480360360408110156105ad576000806105aa614882565b50505b506001600160a01b038135169060200135611160565b610385600480360360208110156105e2576000806105df614882565b50505b503515156111c5565b6103856004803603602081101561060a57600080610607614882565b50505b810190602081018135600160201b81111561062d5760008061062a614882565b50505b82018360208201111561064857600080610645614882565b50505b803590602001918460208302840111600160201b831117156106725760008061066f614882565b50505b9190808060200260200160405190810160405280939291908181526020018383602002808284376000920191909152509295506112bd945050505050565b610272611396565b610385600480360360408110156106d7576000806106d4614882565b50505b6001600160a01b038235169190810190604081016020820135600160201b81111561070a57600080610707614882565b50505b82018360208201111561072557600080610722614882565b50505b803590602001918460018302840111600160201b8311171561074f5760008061074c614882565b50505b91908080601f01602080910402602001604051908101604052818152929190602084018383808284376000920191909152509295506113b8945050505050565b61034261152d565b610385600480360360c08110156107b6576000806107b3614882565b50505b6001600160a01b0382358116926020810135151592604082013590921691810190608081016060820135600160201b8111156107fa576000806107f7614882565b50505b82018360208201111561081557600080610812614882565b50505b803590602001918460018302840111600160201b8311171561083f5760008061083c614882565b50505b91908080601f01602080910402602001604051908101604052818152929190602084018383808284376000920191909152509295949360208101935035915050600160201b81111561089957600080610896614882565b50505b8201836020820111156108b4576000806108b1614882565b50505b803590602001918460018302840111600160201b831117156108de576000806108db614882565b50505b91908080601f0160208091040260200160405190810160405281815292919060208401838380828437600092019190915250929550505090356001600160a01b031691506115469050565b6103856004803603602081101561094857600080610945614882565b50505b810190602081018135600160201b81111561096b57600080610968614882565b50505b82018360208201111561098657600080610983614882565b50505b803590602001918460208302840111600160201b831117156109b0576000806109ad614882565b50505b919080806020026020016040519081016040528093929190818152602001838360200280828437600092019190915250929550611781945050505050565b61038f60048036036020811015610a0d57600080610a0a614882565b50505b50356001600160a01b031661184a565b61034260048036036020811015610a3c57600080610a39614882565b50505b50356001600160a01b0316611872565b61038f61197c565b61038f611986565b6102966119b0565b610272611a56565b610a74611a63565b60405160208082528190810183818151815260200191508051906020019060200280838360005b83811015610ab3578082015183820152602001610a9b565b505050509050019250505060405180910390f35b61038f611ae9565b61034260048036036040811015610aee57600080610aeb614882565b50505b506001600160a01b038135169060200135611afc565b61034260048036036040811015610b2357600080610b20614882565b50505b506001600160a01b038135169060200135611b72565b61038f611b86565b61038f60048036036020811015610b6057600080610b5d614882565b50505b50356001600160a01b0316611de1565b61038f60048036036020811015610b8f57600080610b8c614882565b50505b5035611efa565b61034260048036036020811015610bb557600080610bb2614882565b50505b50356001600160a01b0316612393565b6102726123bb565b61038560048036036020811015610bec57600080610be9614882565b50505b50356001600160a01b03166123c7565b610385612463565b61038f61246d565b61038f60048036036040811015610c2b57600080610c28614882565b50505b506001600160a01b0381358116916020013516612477565b61038f6124b7565b61038f612572565b6102966126df565b600160cd610c676148ed565b906101000a90046001600160a01b031681565b6060606880610c876148ed565b600181600116156101000203166002900480601f016020809104026020016040519081016040528181529190602083018280610cc16148ed565b60018160011615610100020316600290048015610d2d5780601f10610cfb576101008083610ced6148ed565b040283529160200191610d2d565b820191906000526020600020905b81610d126148ed565b81529060010190602001808311610d0957829003601f168201915b5050505050905090565b6000610d4b610d44612785565b8484612790565b5060015b92915050565b60006097610d616148ed565b906101000a90046001600160a01b03166001600160a01b03165a610d83614948565b6001600160a01b031614610dd55760405162461bcd60e51b815260206004820152600c60248201526b37b7363c9036b0b730b3b2b960a11b604482015260640160405180910390610dd2614882565b50505b610dde81612393565b610de757610df0565b610df0816128b8565b50565b60006067610dff6148ed565b905090565b6060600080808381808080808080808060cf610e1e6148ed565b906101000a90046001600160a01b03166001600160a01b031663b7a545265a63996d79a5598160e01b8152602081600483336000905af158601d01573d60011458600c01573d6000803e3d621234565260ea61109c528051925060005b6040811015610e9257600082820152602001610e7b565b5050506040516001600160e01b031960e084901b1681526001600160a01b03909116600482015260240160408051808303818680610ece61498e565b158015610ee357600080610ee0614882565b50505b505a610eed6149da565b5050505050158015610f0c573d6000803e3d6000610f09614882565b50505b505050506040513d6040811015610f2b57600080610f28614882565b50505b81019080805192919060200180519395509293506000925082915081905060cf610f536148ed565b906101000a90046001600160a01b03166001600160a01b031663ecb0116a6040518163ffffffff1660e01b815260040160408051808303818680610f9561498e565b158015610faa57600080610fa7614882565b50505b505a610fb46149da565b5050505050158015610fd3573d6000803e3d6000610fd0614882565b50505b505050506040513d6040811015610ff257600080610fef614882565b50505b81019080805192919060200180519395509293506110139250610c7a915050565b61101b610df3565b611023611b86565b61102b611396565b6110336126df565b60ce61103d6148ed565b600060cd6110496148ed565b906101000a900460ff168a8a8a8a9e509e509e509e509e509e509e509e509e509e509e5050505050909192939495969798999a565b600060d2610c676148ed565b6000611097848484612a39565b611114846110a3612785565b61110f85604051606081016040526028808252614d8d60208301396001600160a01b038a16600090815260666020526040902060006110e0612785565b6001600160a01b03166001600160a01b031681526020019081526020016000206111086148ed565b9190612bd7565b612790565b5060019392505050565b60d160205280600052604060002090506111366148ed565b81565b610df0816000612c77565b600080606a6111516148ed565b906101000a900460ff16905090565b6000610d4b61116d612785565b8461110f856066600061117e612785565b6001600160a01b03166001600160a01b031681526020019081526020016000206001600160a01b0389166000908152602091909152604090206111bf6148ed565b906139bf565b600060976111d16148ed565b906101000a90046001600160a01b03166001600160a01b03165a6111f3614948565b6001600160a01b0316146112455760405162461bcd60e51b815260206004820152600c60248201526b37b7363c9036b0b730b3b2b960a11b604482015260640160405180910390611242614882565b50505b801515600060cd6112546148ed565b906101000a900460ff16151514156112b45760405162461bcd60e51b8152602060048201526016602482015275199b1859c81b5d5cdd08189948191a5999995c995b9d60521b6044820152606401604051809103906112b1614882565b50505b610df081613a27565b600060976112c96148ed565b906101000a90046001600160a01b03166001600160a01b03165a6112eb614948565b6001600160a01b03161461133d5760405162461bcd60e51b815260206004820152600c60248201526b37b7363c9036b0b730b3b2b960a11b60448201526064016040518091039061133a614882565b50505b60005b81518110156113925761136582828151811061135857fe5b6020026020010151612393565b61136e5761138a565b61138a82828151811061137d57fe5b60200260200101516128b8565b600101611340565b5050565b60008060976113a36148ed565b906101000a90046001600160a01b0316905090565b600060976113c46148ed565b906101000a90046001600160a01b03166001600160a01b03165a6113e6614948565b6001600160a01b0316146114385760405162461bcd60e51b815260206004820152600c60248201526b37b7363c9036b0b730b3b2b960a11b604482015260640160405180910390611435614882565b50505b8160976001816114466148ed565b816001600160a01b0302191690836001600160a01b0316021790611468614ac5565b50505080609890805161147f929160200190614b13565b507f6ed15082ad038474841528b5badca105106d4463e44b5d434130dfb299aa366982826040516001600160a01b038316815260406020820181815290820183818151815260200191508051906020019080838360005b838110156114ee5780820151838201526020016114d6565b50505050905090810190601f16801561151b5780820380516001836020036101000a031916815260200191505b50935050505060405180910390a15050565b600060cd6115396148ed565b906101000a900460ff1681565b600160006115526148ed565b906101000a900460ff168061156a575061156a613a85565b80611587575060008061157b6148ed565b906101000a900460ff16155b6115cb5760405162461bcd60e51b815260040180806020018281038252602e815260200180614db5602e9139604001915050604051809103906115c8614882565b50505b60006001816115d86148ed565b906101000a900460ff16159050801561163e5760016000610100816115fb6148ed565b8160ff02191690831515021790611610614ac5565b50505060016000806101000a816116256148ed565b8160ff0219169083151502179061163a614ac5565b5050505b611662836040516040808201905260048152631112141560e21b6020820152613af6565b61166c8585613c2f565b8660cf60018161167a6148ed565b816001600160a01b0302191690836001600160a01b031602179061169c614ac5565b5050506116a886613a27565b5a6116b1614948565b60cd610100816116bf6148ed565b816001600160a01b0302191690836001600160a01b03160217906116e1614ac5565b5050505a6116ed614bb3565b8060ce6116f8614ac5565b505050670de0b6b3a764000060d08190611710614ac5565b5050508160d260006101000a816117256148ed565b816001600160a01b0302191690836001600160a01b0316021790611747614ac5565b5050508015611778576000806101008161175f6148ed565b8160ff02191690831515021790611774614ac5565b5050505b50505050505050565b6000609761178d6148ed565b906101000a90046001600160a01b03166001600160a01b03165a6117af614948565b6001600160a01b0316146118015760405162461bcd60e51b815260206004820152600c60248201526b37b7363c9036b0b730b3b2b960a11b6044820152606401604051809103906117fe614882565b50505b60005b81518110156113925761181c82828151811061135857fe5b1561182657611842565b61184282828151811061183557fe5b6020026020010151613c76565b600101611804565b6001600160a01b038116600090815260656020526040812061186a6148ed565b90505b919050565b600080609761187f6148ed565b906101000a90046001600160a01b03166001600160a01b03165a6118a1614948565b6001600160a01b0316146118f35760405162461bcd60e51b815260206004820152600c60248201526b37b7363c9036b0b730b3b2b960a11b6044820152606401604051809103906118f0614882565b50505b8160d26001816119016148ed565b816001600160a01b0302191690836001600160a01b0316021790611923614ac5565b5050507f63fb64c359a4cae97e1bf003c1ab11390b5f0e18cc5b3d67b90bd61c0f5c52fd825a611951614948565b6040516001600160a01b039283168152911660208201526040908101905180910390a1506001919050565b60d06111366148ed565b600080611991611b86565b9050600061199d610df3565b90506119a98282613d08565b9250505090565b60606069806119bd6148ed565b600181600116156101000203166002900480601f0160208091040260200160405190810160405281815291906020830182806119f76148ed565b60018160011615610100020316600290048015610d2d5780601f10611a23576101008083610ced6148ed565b820191906000526020600020905b81611a3a6148ed565b81529060010190602001808311611a3157509395945050505050565b60008060d26113a36148ed565b6060609980611a706148ed565b806020026020016040519081016040528181529190602083018280611a936148ed565b8015610d2d57602002820191906000526020600020905b600082611ab56148ed565b906101000a90046001600160a01b03166001600160a01b031681526020019060010190808311611aaa575050505050905090565b6000609980611af66148ed565b91505090565b6000610d4b611b09612785565b8461110f85604051606081016040526025808252614e4d602083013960666000611b31612785565b6001600160a01b03166001600160a01b031681526020019081526020016000206001600160a01b038a166000908152602091909152604090206111086148ed565b6000610d4b611b7f612785565b8484612a39565b600080808060d2611b956148ed565b906101000a90046001600160a01b031690506060816001600160a01b031663e5406dbf6040518163ffffffff1660e01b81526004016000604051808303818680611bdd61498e565b158015611bf257600080611bef614882565b50505b505a611bfc6149da565b5050505050158015611c1b573d6000803e3d6000611c18614882565b50505b505050506040513d6000823e601f3d908101601f191682016040526020811015611c4d57600080611c4a614882565b50505b8101908080516040519392919084600160201b821115611c7557600080611c72614882565b50505b908301906020820185811115611c9357600080611c90614882565b50505b82518660208202830111600160201b82111715611cb857600080611cb5614882565b50505b825250602001908051906020019060200280838360005b83811015611ce7578082015183820152602001611ccf565b50505050905001604052505050905060008151905060005b81811015611dd757611dcd846001600160a01b0316630499123f858481518110611d2557fe5b60200260200101516040516001600160e01b031960e084901b16815260048101919091526024016020604051808303818680611d5f61498e565b158015611d7457600080611d71614882565b50505b505a611d7e6149da565b5050505050158015611d9d573d6000803e3d6000611d9a614882565b50505b505050506040513d6020811015611dbc57600080611db9614882565b50505b8101908080518993509150506139bf565b9450600101611cff565b5092935050505090565b6000808060cf611def6148ed565b906101000a90046001600160a01b03166001600160a01b031663eda96ea96040518163ffffffff1660e01b81526004016020604051808303818680611e3261498e565b158015611e4757600080611e44614882565b50505b505a611e516149da565b5050505050158015611e70573d6000803e3d6000611e6d614882565b50505b505050506040513d6020811015611e8f57600080611e8c614882565b50505b8101908080516001600160a01b038716600090815260d16020529094509250611ec29150839050604083206111bf6148ed565b90505a611ecd614bb3565b811015611edf5760009250505061186d565b611ef25a611eeb614bb3565b8290613d38565b949350505050565b6000611f04611396565b6001600160a01b03165a611f16614948565b6001600160a01b03161480611f3e5750600060cd611f326148ed565b906101000a900460ff16155b80611f555750611f555a611f50614948565b612393565b611fa55760405162461bcd60e51b81526020600482015260146024820152731bdb9b1e481b595b58995c9cc8185b1b1bddd95960621b604482015260640160405180910390611fa2614882565b50505b5a611fae614bb3565b60d160005a611fbb614948565b6001600160a01b03166001600160a01b031681526020019081526020016000208190611fe5614ac5565b505050611ff0613d78565b6000611ffa611b86565b90506000612006610df3565b905060008060d26120156148ed565b906101000a90046001600160a01b03169050806001600160a01b0316633ded6530631cd554d160e21b6040516001600160e01b031960e084901b1681526004810191909152602401602060405180830381868061207061498e565b15801561208557600080612082614882565b50505b505a61208f6149da565b50505050501580156120ae573d6000803e3d60006120ab614882565b50505b505050506040513d60208110156120cd576000806120ca614882565b50505b8101908080516001600160a01b031692506323b872dd9150505a6120ef614948565b5a63996d79a5598160e01b8152602081600483336000905af158601d01573d60011458600c01573d6000803e3d621234565260ea61109c528051925060005b60408110156121455760008282015260200161212e565b505050886040516001600160e01b031960e086901b1681526001600160a01b03938416600482015291909216602482015260448101919091526064016020604051808303816000878061219661498e565b1580156121ab576000806121a8614882565b50505b505a6121b5614bf9565b5050505050501580156121d5573d6000803e3d60006121d2614882565b50505b505050506040513d60208110156121f4576000806121f1614882565b50505b81019080805192506122509150505760405162461bcd60e51b81526020600482015260156024820152741d1bdad95b881d1c985b9cd9995c8819985a5b1959605a1b60448201526064016040518091039061224d614882565b50505b600082156122735761226c8461226688866141a9565b90614208565b9050612276565b50845b6122885a612282614948565b82614248565b7f87fdcba84e083ebb8fd661bbafee3eb38764ec6f0cbeea8ed52deffa67bd45dc5a63996d79a5598160e01b8152602081600483336000905af158601d01573d60011458600c01573d6000803e3d621234565260ea61109c528051925060005b60408110156122ff576000828201526020016122e8565b5050505a61230b614948565b888461231e5a612319614948565b61184a565b6123288a8d6139bf565b6123328a896139bf565b5a61233b614bb3565b6040516001600160a01b0398891681529690971660208701526040808701959095526060860193909352608085019190915260a084015260c083015260e082019290925261010001905180910390a195945050505050565b6001600160a01b0381166000908152609a602052604081206123b36148ed565b151592915050565b600060cf610c676148ed565b600060976123d36148ed565b906101000a90046001600160a01b03166001600160a01b03165a6123f5614948565b6001600160a01b0316146124475760405162461bcd60e51b815260206004820152600c60248201526b37b7363c9036b0b730b3b2b960a11b604482015260640160405180910390612444614882565b50505b61245081612393565b1561245a57610df0565b610df081613c76565b61246b613d78565b565b60ce6111366148ed565b6001600160a01b03821660009081526066602052604081206001600160a01b0383166000908152602091909152604090206124b06148ed565b9392505050565b60008060cf6124c46148ed565b906101000a90046001600160a01b03166001600160a01b031663eda96ea96040518163ffffffff1660e01b8152600401602060405180830381868061250761498e565b15801561251c57600080612519614882565b50505b505a6125266149da565b5050505050158015612545573d6000803e3d6000612542614882565b50505b505050506040513d602081101561256457600080612561614882565b50505b810190808051935050505090565b60008061257d611b86565b90506000612589610df3565b90506000808060cf6125996148ed565b906101000a90046001600160a01b03166001600160a01b031663b7a545265a63996d79a5598160e01b8152602081600483336000905af158601d01573d60011458600c01573d6000803e3d621234565260ea61109c528051925060005b604081101561260d576000828201526020016125f6565b5050506040516001600160e01b031960e084901b1681526001600160a01b0390911660048201526024016040805180830381868061264961498e565b15801561265e5760008061265b614882565b50505b505a6126686149da565b5050505050158015612687573d6000803e3d6000612684614882565b50505b505050506040513d60408110156126a6576000806126a3614882565b50505b81019080805192919060200180519395509293506126d6925086915085905060d06126cf6148ed565b8585614361565b94505050505090565b60606098806126ec6148ed565b600181600116156101000203166002900480601f0160208091040260200160405190810160405281815291906020830182806127266148ed565b60018160011615610100020316600290048015610d2d5780601f10612752576101008083610ced6148ed565b820191906000526020600020905b816127696148ed565b8152906001019060200180831161276057509395945050505050565b60005a610dff614948565b6001600160a01b0383166127de5760405162461bcd60e51b8152600401808060200182810382526024815260200180614e2960249139604001915050604051809103906127db614882565b50505b6001600160a01b03821661282c5760405162461bcd60e51b8152600401808060200182810382526022815260200180614d246022913960400191505060405180910390612829614882565b50505b6001600160a01b038316600090815260666020528190604090206001600160a01b0384166000908152602091909152604090208190612869614ac5565b505050816001600160a01b0316836001600160a01b03167f8c5be1e5ebec7d5bd14f71427d1e84f3dd0314c0f7b2291e5b200ac8c7c3b9258360405190815260200160405180910390a3505050565b60006099806128c56148ed565b6001600160a01b0384166000908152609a60205290925090506128f56001604083206128ef6148ed565b90613d38565b905060006099612906846001613d38565b8161290f6148ed565b811061291757fe5b9060005260206000200160009061292c6148ed565b906101000a90046001600160a01b03169050806099838161294b6148ed565b811061295357fe5b906000526020600020016001816129686148ed565b816001600160a01b0302191690836001600160a01b031602179061298a614ac5565b5061299a915083905060016139bf565b6001600160a01b0382166000908152609a6020526040902081906129bc614ac5565b5050506001600160a01b0384166000908152609a6020526040812081906129e1614ac5565b5050506099806129ef6148ed565b806129f657fe5b60019003818190600052602060002001600181612a116148ed565b906001600160a01b0302191690612a26614ac5565b505090612a31614ac5565b505050505050565b6001600160a01b038316612a875760405162461bcd60e51b8152600401808060200182810382526025815260200180614e046025913960400191505060405180910390612a84614882565b50505b6001600160a01b038216612ad55760405162461bcd60e51b8152600401808060200182810382526023815260200180614cdf6023913960400191505060405180910390612ad2614882565b50505b612ae08383836143da565b612b1b81604051606081016040526026808252614d4660208301396001600160a01b03861660009081526065602052604090206111086148ed565b6001600160a01b03841660009081526065602052604090208190612b3d614ac5565b5050506001600160a01b03821660009081526065602052612b66908290604090206111bf6148ed565b6001600160a01b03831660009081526065602052604090208190612b88614ac5565b505050816001600160a01b0316836001600160a01b03167fddf252ad1be2c89b69c2b068fc378daa952ba7f163c4a11628f55a4df523b3ef8360405190815260200160405180910390a3505050565b60008184841115612c6f5760405162461bcd60e51b81526004018080602001828103825283818151815260200191508051906020019080838360005b83811015612c2b578082015183820152602001612c13565b50505050905090810190601f168015612c585780820380516001836020036101000a031916815260200191505b509250505060405180910390612c6c614882565b50505b505050900390565b81612c845a612319614948565b1015612cca5760405162461bcd60e51b8152600401808060200182810382526023815260200180614e726023913960400191505060405180910390612cc7614882565b50505b6000806000612ce05a612cdb614948565b611de1565b1115612dae57600060cf612cf26148ed565b906101000a90046001600160a01b03166001600160a01b031663ecb0116a6040518163ffffffff1660e01b815260040160408051808303818680612d3461498e565b158015612d4957600080612d46614882565b50505b505a612d536149da565b5050505050158015612d72573d6000803e3d6000612d6f614882565b50505b505050506040513d6040811015612d9157600080612d8e614882565b50505b8101908080519291906020018051939550929350612db692505050565b506000905060015b6000612dc68261226687866141a9565b9050600060d160005a612dd7614948565b6001600160a01b03166001600160a01b03168152602001908152602001600020612dff6148ed565b9050600060d160005a612e10614948565b6001600160a01b03166001600160a01b031681526020019081526020016000208190612e3a614ac5565b505082159050612f125760008060cf612e516148ed565b906101000a90046001600160a01b03166001600160a01b0316631d68702d6040518163ffffffff1660e01b81526004016020604051808303818680612e9461498e565b158015612ea957600080612ea6614882565b50505b505a612eb36149da565b5050505050158015612ed2573d6000803e3d6000612ecf614882565b50505b505050506040513d6020811015612ef157600080612eee614882565b50505b8101908080519350612f10925050505a612f09614948565b8285612a39565b505b612f1a613d78565b6000612f24611b86565b9050612f308784613d38565b96506000612f51612f3f610df3565b6122668a670de0b6b3a76400006141a9565b9050612f655a612f5f614948565b8961443e565b60008060d2612f726148ed565b906101000a90046001600160a01b031690506060816001600160a01b031663e5406dbf6040518163ffffffff1660e01b81526004016000604051808303818680612fba61498e565b158015612fcf57600080612fcc614882565b50505b505a612fd96149da565b5050505050158015612ff8573d6000803e3d6000612ff5614882565b50505b505050506040513d6000823e601f3d908101601f19168201604052602081101561302a57600080613027614882565b50505b8101908080516040519392919084600160201b8211156130525760008061304f614882565b50505b9083019060208201858111156130705760008061306d614882565b50505b82518660208202830111600160201b8211171561309557600080613092614882565b50505b825250602001908051906020019060200280838360005b838110156130c45780820151838201526020016130ac565b5050505090500160405250505090506000815190508915613598576000836001600160a01b03166305a2ee2a6040518163ffffffff1660e01b8152600401602060405180830381868061311561498e565b15801561312a57600080613127614882565b50505b505a6131346149da565b5050505050158015613153573d6000803e3d6000613150614882565b50505b505050506040513d60208110156131725760008061316f614882565b50505b8101908080516001600160a01b031692506321f8a72191506b53797374656d53746174757360a01b90506040516001600160e01b031960e084901b168152600481019190915260240160206040518083038186806131ce61498e565b1580156131e3576000806131e0614882565b50505b505a6131ed6149da565b505050505015801561320c573d6000803e3d6000613209614882565b50505b505050506040513d602081101561322b57600080613228614882565b50505b81019080805193506000925050505b8281101561359157816001600160a01b03166342a28e2185838151811061325d57fe5b60200260200101516040516001600160e01b031960e084901b1681526004810191909152602401600060405180830381868061329761498e565b1580156132ac576000806132a9614882565b50505b505a6132b66149da565b50505050509250505080156132c9575060015b6132d257613589565b6000856001600160a01b0316633ded65308684815181106132ef57fe5b60200260200101516040516001600160e01b031960e084901b1681526004810191909152602401602060405180830381868061332961498e565b15801561333e5760008061333b614882565b50505b505a6133486149da565b5050505050158015613367573d6000803e3d6000613364614882565b50505b505050506040513d602081101561338657600080613383614882565b50505b810190808051935060009250506001600160a01b03831690506370a082315a63996d79a5598160e01b8152602081600483336000905af158601d01573d60011458600c01573d6000803e3d621234565260ea61109c528051925060005b60408110156133fa576000828201526020016133e3565b5050506040516001600160e01b031960e084901b1681526001600160a01b039091166004820152602401602060405180830381868061343761498e565b15801561344c57600080613449614882565b50505b505a6134566149da565b5050505050158015613475573d6000803e3d6000613472614882565b50505b505050506040513d602081101561349457600080613491614882565b50505b8101908080519350600092506134ba9150670de0b6b3a76400009050612266848c6141a9565b9050801561358557826001600160a01b031663a9059cbb5a6134da614948565b836040516001600160e01b031960e085901b1681526001600160a01b03909216600483015260248201526044016020604051808303816000878061351c61498e565b1580156135315760008061352e614882565b50505b505a61353b614bf9565b50505050505015801561355b573d6000803e3d6000613558614882565b50505b505050506040513d602081101561357a57600080613577614882565b50505b810190808051505050505b5050505b60010161323a565b5050613863565b60005b81811015613861576000846001600160a01b0316633ded65308584815181106135c057fe5b60200260200101516040516001600160e01b031960e084901b168152600481019190915260240160206040518083038186806135fa61498e565b15801561360f5760008061360c614882565b50505b505a6136196149da565b5050505050158015613638573d6000803e3d6000613635614882565b50505b505050506040513d602081101561365757600080613654614882565b50505b810190808051935060009250506001600160a01b03831690506370a082315a63996d79a5598160e01b8152602081600483336000905af158601d01573d60011458600c01573d6000803e3d621234565260ea61109c528051925060005b60408110156136cb576000828201526020016136b4565b5050506040516001600160e01b031960e084901b1681526001600160a01b039091166004820152602401602060405180830381868061370861498e565b15801561371d5760008061371a614882565b50505b505a6137276149da565b5050505050158015613746573d6000803e3d6000613743614882565b50505b505050506040513d602081101561376557600080613762614882565b50505b81019080805193506000925061378b9150670de0b6b3a76400009050612266848b6141a9565b9050801561385657826001600160a01b031663a9059cbb5a6137ab614948565b836040516001600160e01b031960e085901b1681526001600160a01b0390921660048301526024820152604401602060405180830381600087806137ed61498e565b158015613802576000806137ff614882565b50505b505a61380c614bf9565b50505050505015801561382c573d6000803e3d6000613829614882565b50505b505050506040513d602081101561384b57600080613848614882565b50505b810190808051505050505b50505060010161359b565b505b600061387b670de0b6b3a764000061226687896141a9565b90508660d160005a61388b614948565b6001600160a01b03166001600160a01b0316815260200190815260200160002081906138b5614ac5565b5050507f79d44cc8beeed36226f14818b2ecaca7ef252bcd56c9ae35f5a86869dbdefb975a63996d79a5598160e01b8152602081600483336000905af158601d01573d60011458600c01573d6000803e3d621234565260ea61109c528051925060005b604081101561392f57600082820152602001613918565b5050505a61393b614948565b838f6139495a612319614948565b613951611b86565b613959610df3565b5a613962614bb3565b6040516001600160a01b0398891681529690971660208701526040808701959095526060860193909352608085019190915260a084015260c083015260e082019290925261010001905180910390a1505050505050505050505050565b6000828201838110156124b05760405162461bcd60e51b815260206004820152601b60248201527f536166654d6174683a206164646974696f6e206f766572666c6f770000000000604482015260640160405180910390613a1e614882565b50509392505050565b8060cd600181613a356148ed565b8160ff02191690831515021790613a4a614ac5565b5050507f8d75e9ede4188432084b863d70b3416010c97547dfeb4fc17734d2e997ee0f3981604051901515815260200160405180910390a150565b6000805a63996d79a5598160e01b8152602081600483336000905af158601d01573d60011458600c01573d6000803e3d621234565260ea61109c528051925060005b6040811015613ade57600082820152602001613ac7565b5050509050600081613aee61498e565b159250505090565b60016000613b026148ed565b906101000a900460ff1680613b1a5750613b1a613a85565b80613b375750600080613b2b6148ed565b906101000a900460ff16155b613b7b5760405162461bcd60e51b815260040180806020018281038252602e815260200180614db5602e913960400191505060405180910390613b78614882565b50505b6000600181613b886148ed565b906101000a900460ff161590508015613bee576001600061010081613bab6148ed565b8160ff02191690831515021790613bc0614ac5565b50505060016000806101000a81613bd56148ed565b8160ff02191690831515021790613bea614ac5565b5050505b613bf6614558565b613c00838361467a565b8015613c2a5760008061010081613c156148ed565b8160ff02191690831515021790612a31614ac5565b505050565b816097600181613c3d6148ed565b816001600160a01b0302191690836001600160a01b0316021790613c5f614ac5565b505050806098908051613c2a929160200190614b13565b80609980600181613c856148ed565b018082613c90614ac5565b505060009283526000190191602091502001600181613cad6148ed565b816001600160a01b0302191690836001600160a01b0316021790613ccf614ac5565b505050609980613cdd6148ed565b6001600160a01b0383166000908152609a602052909150604090208190613d02614ac5565b50505050565b6000811580613d15575082155b15613d2257506000610d4f565b6124b08261226685670de0b6b3a76400006141a9565b60006124b0838360405160408082019052601e81527f536166654d6174683a207375627472616374696f6e206f766572666c6f7700006020820152612bd7565b6000613d82611b86565b90506000613d8e610df3565b90506000808060cf613d9e6148ed565b906101000a90046001600160a01b03166001600160a01b031663b7a545265a63996d79a5598160e01b8152602081600483336000905af158601d01573d60011458600c01573d6000803e3d621234565260ea61109c528051925060005b6040811015613e1257600082820152602001613dfb565b5050506040516001600160e01b031960e084901b1681526001600160a01b03909116600482015260240160408051808303818680613e4e61498e565b158015613e6357600080613e60614882565b50505b505a613e6d6149da565b5050505050158015613e8c573d6000803e3d6000613e89614882565b50505b505050506040513d6040811015613eab57600080613ea8614882565b50505b810190808051929190602001805193955092935060009250613edd91508690508560d0613ed66148ed565b8686614361565b90506064811015613ef257505050505061246b565b60008060cf613eff6148ed565b906101000a90046001600160a01b03166001600160a01b0316631d68702d6040518163ffffffff1660e01b81526004016020604051808303818680613f4261498e565b158015613f5757600080613f54614882565b50505b505a613f616149da565b5050505050158015613f80573d6000803e3d6000613f7d614882565b50505b505050506040513d6020811015613f9f57600080613f9c614882565b50505b81019080805193506000925082915081905060cf613fbb6148ed565b906101000a90046001600160a01b03166001600160a01b0316639cada6e46040518163ffffffff1660e01b815260040160408051808303818680613ffd61498e565b1580156140125760008061400f614882565b50505b505a61401c6149da565b505050505015801561403b573d6000803e3d6000614038614882565b50505b505050506040513d604081101561405a57600080614057614882565b50505b810190808051929190602001805193955092935060009250614084915083905061226687866141a9565b905060006140928683613d38565b905081156140a4576140a48583614248565b80156140b5576140b5612282611396565b6140bf8a8a613d08565b8060d06140ca614ac5565b5050507f755a8059d66d8d243bc9f6913f429a811f154599d0538bb0b6a2ac23f23d2ccd5a63996d79a5598160e01b8152602081600483336000905af158601d01573d60011458600c01573d6000803e3d621234565260ea61109c528051925060005b60408110156141445760008282015260200161412d565b50505061414f611396565b88858560d061415c6148ed565b6040516001600160a01b0396871681529490951660208501526040808501939093526060840191909152608083015260a082019290925260c001905180910390a150505050505050505050565b6000826141b857506000610d4f565b828202828482816141c557fe5b04146124b05760405162461bcd60e51b8152600401808060200182810382526021815260200180614d6c6021913960400191505060405180910390613a1e614882565b60006124b0838360405160408082019052601a81527f536166654d6174683a206469766973696f6e206279207a65726f00000000000060208201526147d7565b6001600160a01b0382166142ab5760405162461bcd60e51b815260206004820152601f60248201527f45524332303a206d696e7420746f20746865207a65726f2061646472657373006044820152606401604051809103906142a8614882565b50505b6142b7600083836143da565b6142c58160676111bf6148ed565b8060676142d0614ac5565b5050506001600160a01b038216600090815260656020526142f9908290604090206111bf6148ed565b6001600160a01b0383166000908152606560205260409020819061431b614ac5565b5050506001600160a01b03821660007fddf252ad1be2c89b69c2b068fc378daa952ba7f163c4a11628f55a4df523b3ef8360405190815260200160405180910390a35050565b600084158061436e575085155b1561437b575060006143d1565b60006143938661226689670de0b6b3a76400006141a9565b90508481116143a65760009150506143d1565b60006143cc670de0b6b3a76400006122668681896143c68d818a8f613d38565b906141a9565b925050505b95945050505050565b6143e5838383613c2a565b6143ee83611de1565b15613c2a5760405162461bcd60e51b815260206004820152600f60248201526e636f6f6c646f776e2061637469766560881b604482015260640160405180910390614437614882565b5050505050565b6001600160a01b03821661448c5760405162461bcd60e51b8152600401808060200182810382526021815260200180614de36021913960400191505060405180910390614489614882565b50505b614498826000836143da565b6144d381604051606081016040526022808252614d0260208301396001600160a01b03851660009081526065602052604090206111086148ed565b6001600160a01b038316600090815260656020526040902081906144f5614ac5565b5050506145068160676128ef6148ed565b806067614511614ac5565b5060009150506001600160a01b0383167fddf252ad1be2c89b69c2b068fc378daa952ba7f163c4a11628f55a4df523b3ef8360405190815260200160405180910390a35050565b600160006145646148ed565b906101000a900460ff168061457c575061457c613a85565b80614599575060008061458d6148ed565b906101000a900460ff16155b6145dd5760405162461bcd60e51b815260040180806020018281038252602e815260200180614db5602e9139604001915050604051809103906145da614882565b50505b60006001816145ea6148ed565b906101000a900460ff16159050801561465057600160006101008161460d6148ed565b8160ff02191690831515021790614622614ac5565b50505060016000806101000a816146376148ed565b8160ff0219169083151502179061464c614ac5565b5050505b8015610df057600080610100816146656148ed565b8160ff02191690831515021790613d02614ac5565b600160006146866148ed565b906101000a900460ff168061469e575061469e613a85565b806146bb57506000806146af6148ed565b906101000a900460ff16155b6146ff5760405162461bcd60e51b815260040180806020018281038252602e815260200180614db5602e9139604001915050604051809103906146fc614882565b50505b600060018161470c6148ed565b906101000a900460ff16159050801561477257600160006101008161472f6148ed565b8160ff02191690831515021790614744614ac5565b50505060016000806101000a816147596148ed565b8160ff0219169083151502179061476e614ac5565b5050505b6068838051614785929160200190614b13565b506069828051614799929160200190614b13565b506012606a6001816147a96148ed565b8160ff021916908360ff160217906147bf614ac5565b5050508015613c2a5760008061010081613c156148ed565b6000818361486c5760405162461bcd60e51b81526004018080602001828103825283818151815260200191508051906020019080838360005b83811015614828578082015183820152602001614810565b50505050905090810190601f1680156148555780820380516001836020036101000a031916815260200191505b509250505060405180910390614869614882565b50505b50600083858161487857fe5b0495945050505050565b632a2a7adb598160e01b8152600481016020815285602082015260005b868110156148ba57808601518282016040015260200161489f565b506020828760640184336000905af158601d01573d60011458600c01573d6000803e3d621234565260ea61109c52505050565b6303daa959598160e01b8152836004820152602081602483336000905af158601d01573d60011458600c01573d6000803e3d621234565260ea61109c528051935060005b6040811015613c2a57600082820152602001614931565b6373509064598160e01b8152602081600483336000905af158601d01573d60011458600c01573d6000803e3d621234565260ea61109c5280516000825293506020614931565b638435035b598160e01b8152836004820152602081602483336000905af158601d01573d60011458600c01573d6000803e3d621234565260ea61109c5280516000825293506020614931565b638540661f598160e01b8152614a0b565b8080831115610d4f575090919050565b8080831015610d4f575090919050565b836004820152846024820152606060448201528660648201526084810160005b88811015614a43578088015182820152602001614a2b565b506060828960a40184336000905af158601d01573d60011458600c01573d6000803e3d621234565260ea61109c52815160408301513d6000853e8b8b82606087013350600060045af15059614a988d3d6149fb565b8c01614aa481876149eb565b5b82811015614ab95760008152602001614aa5565b50929c50505050505050565b6322bd64c0598160e01b8152836004820152846024820152600081604483336000905af158601d01573d60011458600c01573d6000803e3d621234565260ea61109c52600081526020614931565b8280614b1d6148ed565b600181600116156101000203166002900490600052602060002090601f016020900481019282601f10614b6457805160ff19168380011785614b5d614ac5565b5050614ba3565b82800160010185614b73614ac5565b50508215614ba3579182015b82811115614ba357825182614b92614ac5565b505091602001919060010190614b7f565b50614baf929150614cbf565b5090565b63bdbf8c36598160e01b8152602081600483336000905af158601d01573d60011458600c01573d6000803e3d621234565260ea61109c5280516000825293506020614931565b6385979f76598160e01b8152836004820152846024820152606060448201528760648201526084810160005b89811015614c3d578089015182820152602001614c25565b506060828a60a40184336000905af158601d01573d60011458600c01573d6000803e3d621234565260ea61109c52815160408301513d6000853e8c8c82606087013350600060045af15059614c928e3d6149fb565b8d01614c9e81876149eb565b5b82811015614cb35760008152602001614c9f565b50929d50505050505050565b80821115614baf5760008082614cd3614ac5565b505050600101614cbf56fe45524332303a207472616e7366657220746f20746865207a65726f206164647265737345524332303a206275726e20616d6f756e7420657863656564732062616c616e636545524332303a20617070726f766520746f20746865207a65726f206164647265737345524332303a207472616e7366657220616d6f756e7420657863656564732062616c616e6365536166654d6174683a206d756c7469706c69636174696f6e206f766572666c6f7745524332303a207472616e7366657220616d6f756e74206578636565647320616c6c6f77616e6365436f6e747261637420696e7374616e63652068617320616c7265616479206265656e20696e697469616c697a656445524332303a206275726e2066726f6d20746865207a65726f206164647265737345524332303a207472616e736665722066726f6d20746865207a65726f206164647265737345524332303a20617070726f76652066726f6d20746865207a65726f206164647265737345524332303a2064656372656173656420616c6c6f77616e63652062656c6f77207a65726f696e73756666696369656e742062616c616e6365206f662066756e6420746f6b656e73",
  "linkReferences": {},
  "deployedLinkReferences": {}
}