{
  "_format": "hh-sol-artifact-1",
  "contractName": "PoolLogic-ovm",
  "sourceName": "contracts/PoolLogic.sol",
  "abi": [
    {
      "anonymous": false,
      "inputs": [
        {
          "indexed": true,
          "internalType": "address",
          "name": "owner",
          "type": "address"
        },
        {
          "indexed": true,
          "internalType": "address",
          "name": "spender",
          "type": "address"
        },
        {
          "indexed": false,
          "internalType": "uint256",
          "name": "value",
          "type": "uint256"
        }
      ],
      "name": "Approval",
      "type": "event"
    },
    {
      "anonymous": false,
      "inputs": [
        {
          "indexed": false,
          "internalType": "address",
          "name": "fundAddress",
          "type": "address"
        },
        {
          "indexed": false,
          "internalType": "address",
          "name": "investor",
          "type": "address"
        },
        {
          "indexed": false,
          "internalType": "uint256",
          "name": "valueDeposited",
          "type": "uint256"
        },
        {
          "indexed": false,
          "internalType": "uint256",
          "name": "fundTokensReceived",
          "type": "uint256"
        },
        {
          "indexed": false,
          "internalType": "uint256",
          "name": "totalInvestorFundTokens",
          "type": "uint256"
        },
        {
          "indexed": false,
          "internalType": "uint256",
          "name": "fundValue",
          "type": "uint256"
        },
        {
          "indexed": false,
          "internalType": "uint256",
          "name": "totalSupply",
          "type": "uint256"
        },
        {
          "indexed": false,
          "internalType": "uint256",
          "name": "time",
          "type": "uint256"
        }
      ],
      "name": "Deposit",
      "type": "event"
    },
    {
      "anonymous": false,
      "inputs": [
        {
          "indexed": false,
          "internalType": "address",
          "name": "pool",
          "type": "address"
        },
        {
          "indexed": false,
          "internalType": "address",
          "name": "manager",
          "type": "address"
        },
        {
          "indexed": false,
          "internalType": "uint256",
          "name": "available",
          "type": "uint256"
        },
        {
          "indexed": false,
          "internalType": "uint256",
          "name": "daoFee",
          "type": "uint256"
        },
        {
          "indexed": false,
          "internalType": "uint256",
          "name": "managerFee",
          "type": "uint256"
        },
        {
          "indexed": false,
          "internalType": "uint256",
          "name": "tokenPriceAtLastFeeMint",
          "type": "uint256"
        }
      ],
      "name": "ManagerFeeMinted",
      "type": "event"
    },
    {
      "anonymous": false,
      "inputs": [
        {
          "indexed": false,
          "internalType": "address",
          "name": "newManager",
          "type": "address"
        },
        {
          "indexed": false,
          "internalType": "string",
          "name": "newManagerName",
          "type": "string"
        }
      ],
      "name": "ManagerUpdated",
      "type": "event"
    },
    {
      "anonymous": false,
      "inputs": [
        {
          "indexed": false,
          "internalType": "address",
          "name": "poolManagerLogic",
          "type": "address"
        },
        {
          "indexed": false,
          "internalType": "address",
          "name": "from",
          "type": "address"
        }
      ],
      "name": "PoolManagerLogicSet",
      "type": "event"
    },
    {
      "anonymous": false,
      "inputs": [
        {
          "indexed": false,
          "internalType": "bool",
          "name": "isPoolPrivate",
          "type": "bool"
        }
      ],
      "name": "PoolPrivacyUpdated",
      "type": "event"
    },
    {
      "anonymous": false,
      "inputs": [
        {
          "indexed": true,
          "internalType": "address",
          "name": "from",
          "type": "address"
        },
        {
          "indexed": true,
          "internalType": "address",
          "name": "to",
          "type": "address"
        },
        {
          "indexed": false,
          "internalType": "uint256",
          "name": "value",
          "type": "uint256"
        }
      ],
      "name": "Transfer",
      "type": "event"
    },
    {
      "anonymous": false,
      "inputs": [
        {
          "indexed": false,
          "internalType": "address",
          "name": "fundAddress",
          "type": "address"
        },
        {
          "indexed": false,
          "internalType": "address",
          "name": "investor",
          "type": "address"
        },
        {
          "indexed": false,
          "internalType": "uint256",
          "name": "valueWithdrawn",
          "type": "uint256"
        },
        {
          "indexed": false,
          "internalType": "uint256",
          "name": "fundTokensWithdrawn",
          "type": "uint256"
        },
        {
          "indexed": false,
          "internalType": "uint256",
          "name": "totalInvestorFundTokens",
          "type": "uint256"
        },
        {
          "indexed": false,
          "internalType": "uint256",
          "name": "fundValue",
          "type": "uint256"
        },
        {
          "indexed": false,
          "internalType": "uint256",
          "name": "totalSupply",
          "type": "uint256"
        },
        {
          "indexed": false,
          "internalType": "uint256",
          "name": "time",
          "type": "uint256"
        }
      ],
      "name": "Withdrawal",
      "type": "event"
    },
    {
      "inputs": [
        {
          "internalType": "address",
          "name": "member",
          "type": "address"
        }
      ],
      "name": "addMember",
      "outputs": [],
      "stateMutability": "nonpayable",
      "type": "function"
    },
    {
      "inputs": [
        {
          "internalType": "address[]",
          "name": "members",
          "type": "address[]"
        }
      ],
      "name": "addMembers",
      "outputs": [],
      "stateMutability": "nonpayable",
      "type": "function"
    },
    {
      "inputs": [
        {
          "internalType": "address",
          "name": "owner",
          "type": "address"
        },
        {
          "internalType": "address",
          "name": "spender",
          "type": "address"
        }
      ],
      "name": "allowance",
      "outputs": [
        {
          "internalType": "uint256",
          "name": "",
          "type": "uint256"
        }
      ],
      "stateMutability": "view",
      "type": "function"
    },
    {
      "inputs": [
        {
          "internalType": "address",
          "name": "spender",
          "type": "address"
        },
        {
          "internalType": "uint256",
          "name": "amount",
          "type": "uint256"
        }
      ],
      "name": "approve",
      "outputs": [
        {
          "internalType": "bool",
          "name": "",
          "type": "bool"
        }
      ],
      "stateMutability": "nonpayable",
      "type": "function"
    },
    {
      "inputs": [],
      "name": "availableManagerFee",
      "outputs": [
        {
          "internalType": "uint256",
          "name": "",
          "type": "uint256"
        }
      ],
      "stateMutability": "view",
      "type": "function"
    },
    {
      "inputs": [
        {
          "internalType": "address",
          "name": "account",
          "type": "address"
        }
      ],
      "name": "balanceOf",
      "outputs": [
        {
          "internalType": "uint256",
          "name": "",
          "type": "uint256"
        }
      ],
      "stateMutability": "view",
      "type": "function"
    },
    {
      "inputs": [
        {
          "internalType": "address",
          "name": "newManager",
          "type": "address"
        },
        {
          "internalType": "string",
          "name": "newManagerName",
          "type": "string"
        }
      ],
      "name": "changeManager",
      "outputs": [],
      "stateMutability": "nonpayable",
      "type": "function"
    },
    {
      "inputs": [],
      "name": "creationTime",
      "outputs": [
        {
          "internalType": "uint256",
          "name": "",
          "type": "uint256"
        }
      ],
      "stateMutability": "view",
      "type": "function"
    },
    {
      "inputs": [],
      "name": "creator",
      "outputs": [
        {
          "internalType": "address",
          "name": "",
          "type": "address"
        }
      ],
      "stateMutability": "view",
      "type": "function"
    },
    {
      "inputs": [],
      "name": "decimals",
      "outputs": [
        {
          "internalType": "uint8",
          "name": "",
          "type": "uint8"
        }
      ],
      "stateMutability": "view",
      "type": "function"
    },
    {
      "inputs": [
        {
          "internalType": "address",
          "name": "spender",
          "type": "address"
        },
        {
          "internalType": "uint256",
          "name": "subtractedValue",
          "type": "uint256"
        }
      ],
      "name": "decreaseAllowance",
      "outputs": [
        {
          "internalType": "bool",
          "name": "",
          "type": "bool"
        }
      ],
      "stateMutability": "nonpayable",
      "type": "function"
    },
    {
      "inputs": [
        {
          "internalType": "uint256",
          "name": "_susdAmount",
          "type": "uint256"
        }
      ],
      "name": "deposit",
      "outputs": [
        {
          "internalType": "uint256",
          "name": "",
          "type": "uint256"
        }
      ],
      "stateMutability": "nonpayable",
      "type": "function"
    },
    {
      "inputs": [],
      "name": "factory",
      "outputs": [
        {
          "internalType": "address",
          "name": "",
          "type": "address"
        }
      ],
      "stateMutability": "view",
      "type": "function"
    },
    {
      "inputs": [],
      "name": "getExitFeeCooldown",
      "outputs": [
        {
          "internalType": "uint256",
          "name": "",
          "type": "uint256"
        }
      ],
      "stateMutability": "view",
      "type": "function"
    },
    {
      "inputs": [
        {
          "internalType": "address",
          "name": "sender",
          "type": "address"
        }
      ],
      "name": "getExitFeeRemainingCooldown",
      "outputs": [
        {
          "internalType": "uint256",
          "name": "",
          "type": "uint256"
        }
      ],
      "stateMutability": "view",
      "type": "function"
    },
    {
      "inputs": [],
      "name": "getFundSummary",
      "outputs": [
        {
          "internalType": "string",
          "name": "",
          "type": "string"
        },
        {
          "internalType": "uint256",
          "name": "",
          "type": "uint256"
        },
        {
          "internalType": "uint256",
          "name": "",
          "type": "uint256"
        },
        {
          "internalType": "address",
          "name": "",
          "type": "address"
        },
        {
          "internalType": "string",
          "name": "",
          "type": "string"
        },
        {
          "internalType": "uint256",
          "name": "",
          "type": "uint256"
        },
        {
          "internalType": "bool",
          "name": "",
          "type": "bool"
        },
        {
          "internalType": "uint256",
          "name": "",
          "type": "uint256"
        },
        {
          "internalType": "uint256",
          "name": "",
          "type": "uint256"
        },
        {
          "internalType": "uint256",
          "name": "",
          "type": "uint256"
        },
        {
          "internalType": "uint256",
          "name": "",
          "type": "uint256"
        }
      ],
      "stateMutability": "view",
      "type": "function"
    },
    {
      "inputs": [],
      "name": "getMembers",
      "outputs": [
        {
          "internalType": "address[]",
          "name": "",
          "type": "address[]"
        }
      ],
      "stateMutability": "view",
      "type": "function"
    },
    {
      "inputs": [],
      "name": "getPoolManagerLogic",
      "outputs": [
        {
          "internalType": "address",
          "name": "",
          "type": "address"
        }
      ],
      "stateMutability": "view",
      "type": "function"
    },
    {
      "inputs": [
        {
          "internalType": "address",
          "name": "spender",
          "type": "address"
        },
        {
          "internalType": "uint256",
          "name": "addedValue",
          "type": "uint256"
        }
      ],
      "name": "increaseAllowance",
      "outputs": [
        {
          "internalType": "bool",
          "name": "",
          "type": "bool"
        }
      ],
      "stateMutability": "nonpayable",
      "type": "function"
    },
    {
      "inputs": [
        {
          "internalType": "address",
          "name": "_factory",
          "type": "address"
        },
        {
          "internalType": "bool",
          "name": "_privatePool",
          "type": "bool"
        },
        {
          "internalType": "address",
          "name": "_manager",
          "type": "address"
        },
        {
          "internalType": "string",
          "name": "_managerName",
          "type": "string"
        },
        {
          "internalType": "string",
          "name": "_fundName",
          "type": "string"
        },
        {
          "internalType": "string",
          "name": "_fundSymbol",
          "type": "string"
        },
        {
          "internalType": "address",
          "name": "_poolManagerLogic",
          "type": "address"
        }
      ],
      "name": "initialize",
      "outputs": [],
      "stateMutability": "nonpayable",
      "type": "function"
    },
    {
      "inputs": [
        {
          "internalType": "address",
          "name": "member",
          "type": "address"
        }
      ],
      "name": "isMemberAllowed",
      "outputs": [
        {
          "internalType": "bool",
          "name": "",
          "type": "bool"
        }
      ],
      "stateMutability": "view",
      "type": "function"
    },
    {
      "inputs": [
        {
          "internalType": "address",
          "name": "",
          "type": "address"
        }
      ],
      "name": "lastDeposit",
      "outputs": [
        {
          "internalType": "uint256",
          "name": "",
          "type": "uint256"
        }
      ],
      "stateMutability": "view",
      "type": "function"
    },
    {
      "inputs": [],
      "name": "manager",
      "outputs": [
        {
          "internalType": "address",
          "name": "",
          "type": "address"
        }
      ],
      "stateMutability": "view",
      "type": "function"
    },
    {
      "inputs": [],
      "name": "managerName",
      "outputs": [
        {
          "internalType": "string",
          "name": "",
          "type": "string"
        }
      ],
      "stateMutability": "view",
      "type": "function"
    },
    {
      "inputs": [],
      "name": "mintManagerFee",
      "outputs": [],
      "stateMutability": "nonpayable",
      "type": "function"
    },
    {
      "inputs": [],
      "name": "name",
      "outputs": [
        {
          "internalType": "string",
          "name": "",
          "type": "string"
        }
      ],
      "stateMutability": "view",
      "type": "function"
    },
    {
      "inputs": [],
      "name": "numberOfMembers",
      "outputs": [
        {
          "internalType": "uint256",
          "name": "",
          "type": "uint256"
        }
      ],
      "stateMutability": "view",
      "type": "function"
    },
    {
      "inputs": [],
      "name": "poolManagerLogic",
      "outputs": [
        {
          "internalType": "address",
          "name": "",
          "type": "address"
        }
      ],
      "stateMutability": "view",
      "type": "function"
    },
    {
      "inputs": [],
      "name": "privatePool",
      "outputs": [
        {
          "internalType": "bool",
          "name": "",
          "type": "bool"
        }
      ],
      "stateMutability": "view",
      "type": "function"
    },
    {
      "inputs": [
        {
          "internalType": "address",
          "name": "member",
          "type": "address"
        }
      ],
      "name": "removeMember",
      "outputs": [],
      "stateMutability": "nonpayable",
      "type": "function"
    },
    {
      "inputs": [
        {
          "internalType": "address[]",
          "name": "members",
          "type": "address[]"
        }
      ],
      "name": "removeMembers",
      "outputs": [],
      "stateMutability": "nonpayable",
      "type": "function"
    },
    {
      "inputs": [],
      "name": "removeTrader",
      "outputs": [],
      "stateMutability": "nonpayable",
      "type": "function"
    },
    {
      "inputs": [
        {
          "internalType": "address",
          "name": "investor",
          "type": "address"
        }
      ],
      "name": "setLastDeposit",
      "outputs": [],
      "stateMutability": "nonpayable",
      "type": "function"
    },
    {
      "inputs": [
        {
          "internalType": "address",
          "name": "_poolManagerLogic",
          "type": "address"
        }
      ],
      "name": "setPoolManagerLogic",
      "outputs": [
        {
          "internalType": "bool",
          "name": "",
          "type": "bool"
        }
      ],
      "stateMutability": "nonpayable",
      "type": "function"
    },
    {
      "inputs": [
        {
          "internalType": "bool",
          "name": "_privatePool",
          "type": "bool"
        }
      ],
      "name": "setPoolPrivate",
      "outputs": [],
      "stateMutability": "nonpayable",
      "type": "function"
    },
    {
      "inputs": [
        {
          "internalType": "address",
          "name": "newTrader",
          "type": "address"
        }
      ],
      "name": "setTrader",
      "outputs": [],
      "stateMutability": "nonpayable",
      "type": "function"
    },
    {
      "inputs": [],
      "name": "symbol",
      "outputs": [
        {
          "internalType": "string",
          "name": "",
          "type": "string"
        }
      ],
      "stateMutability": "view",
      "type": "function"
    },
    {
      "inputs": [],
      "name": "tokenPrice",
      "outputs": [
        {
          "internalType": "uint256",
          "name": "",
          "type": "uint256"
        }
      ],
      "stateMutability": "view",
      "type": "function"
    },
    {
      "inputs": [],
      "name": "tokenPriceAtLastFeeMint",
      "outputs": [
        {
          "internalType": "uint256",
          "name": "",
          "type": "uint256"
        }
      ],
      "stateMutability": "view",
      "type": "function"
    },
    {
      "inputs": [],
      "name": "totalFundValue",
      "outputs": [
        {
          "internalType": "uint256",
          "name": "",
          "type": "uint256"
        }
      ],
      "stateMutability": "view",
      "type": "function"
    },
    {
      "inputs": [],
      "name": "totalSupply",
      "outputs": [
        {
          "internalType": "uint256",
          "name": "",
          "type": "uint256"
        }
      ],
      "stateMutability": "view",
      "type": "function"
    },
    {
      "inputs": [],
      "name": "trader",
      "outputs": [
        {
          "internalType": "address",
          "name": "",
          "type": "address"
        }
      ],
      "stateMutability": "view",
      "type": "function"
    },
    {
      "inputs": [
        {
          "internalType": "address",
          "name": "recipient",
          "type": "address"
        },
        {
          "internalType": "uint256",
          "name": "amount",
          "type": "uint256"
        }
      ],
      "name": "transfer",
      "outputs": [
        {
          "internalType": "bool",
          "name": "",
          "type": "bool"
        }
      ],
      "stateMutability": "nonpayable",
      "type": "function"
    },
    {
      "inputs": [
        {
          "internalType": "address",
          "name": "sender",
          "type": "address"
        },
        {
          "internalType": "address",
          "name": "recipient",
          "type": "address"
        },
        {
          "internalType": "uint256",
          "name": "amount",
          "type": "uint256"
        }
      ],
      "name": "transferFrom",
      "outputs": [
        {
          "internalType": "bool",
          "name": "",
          "type": "bool"
        }
      ],
      "stateMutability": "nonpayable",
      "type": "function"
    },
    {
      "inputs": [
        {
          "internalType": "uint256",
          "name": "_fundTokenAmount",
          "type": "uint256"
        }
      ],
      "name": "withdraw",
      "outputs": [],
      "stateMutability": "nonpayable",
      "type": "function"
    }
  ],
  "bytecode": "0x60806040523480156200001c576000806200001962000023565b50505b5062000090565b632a2a7adb598160e01b8152600481016020815285602082015260005b868110156200005d57808601518282016040015260200162000040565b506020828760640184336000905af158600e01573d6000803e3d6000fd5b3d6001141558600a015760016000f35b505050565b614b5780620000a06000396000f3fe608060405234801561001957600080610016614544565b50505b50600436106102885760003560e01c80637714f39d11610165578063adefd871116100d7578063cdfa79d211610090578063cdfa79d214610b0c578063d8270dce14610d3d578063dd62ed3e14610d45578063eda96ea914610d7c578063edbf6f5014610d84578063fed4416a14610d8c57610288565b8063adefd87114610a49578063b6b55f2514610a78578063bbbf725b14610a9e578063c45a015514610acd578063ca6d56dc14610ad5578063cc3c6df614610b0457610288565b80639eab5253116101295780639eab525314610945578063a30e3fa9146109a0578063a457c2d7146109a8578063a6bc18f9146109dd578063a9059cbb14610a0c578063ad60ffcc14610a4157610288565b80637714f39d1461091d5780637c8afd51146109255780637ff9b5961461092d57806395d89b41146109355780639e24b07f1461093d57610288565b8063313ce567116101fe578063481c6a75116101c2578063481c6a7514610713578063522136631461071b57806359b5e75e146107f25780636f4d469b146107fa57806370a08231146108bf578063750226de146108ee57610288565b8063313ce567146105a4578063323725b1146105c257806339509351146105f15780633babaad51461062657806346ee84b01461064e57610288565b806318160ddd1161025057806318160ddd146103bb5780631c5918d2146103d55780631e50a4a61461050857806323b872dd1461051057806329d16ee81461054f5780632e1a7d4d1461057e57610288565b806302d05d3f1461029657806306fdde03146102ba578063095ea7b3146103395780630b1ca49a146103825780631758078b146103b3575b600080610293614544565b50505b61029e610d94565b6040516001600160a01b03909116815260200160405180910390f35b6102c2610db3565b60405160208082528190810183818151815260200191508051906020019080838360005b838110156102fe5780820151838201526020016102e6565b50505050905090810190601f16801561032b5780820380516001836020036101000a031916815260200191505b509250505060405180910390f35b61036e6004803603604081101561035857600080610355614544565b50505b506001600160a01b038135169060200135610e70565b604051901515815260200160405180910390f35b6103b1600480360360208110156103a15760008061039e614544565b50505b50356001600160a01b0316610e8e565b005b61029e610f2c565b6103c3610f4e565b60405190815260200160405180910390f35b6103dd610f5f565b60405180806020018c81526020018b81526020018a6001600160a01b0316815260200180602001898152602001881515815260200187815260200186815260200185815260200184815260200183810383528e818151815260200191508051906020019080838360005b8381101561045f578082015183820152602001610447565b50505050905090810190601f16801561048c5780820380516001836020036101000a031916815260200191505b5083810382528a818151815260200191508051906020019080838360005b838110156104c25780820151838201526020016104aa565b50505050905090810190601f1680156104ef5780820380516001836020036101000a031916815260200191505b509d505050505050505050505050505060405180910390f35b61029e6111d9565b61036e6004803603606081101561052f5760008061052c614544565b50505b506001600160a01b038135811691602081013590911690604001356111e5565b6103c36004803603602081101561056e5760008061056b614544565b50505b50356001600160a01b0316611279565b6103b16004803603602081101561059d5760008061059a614544565b50505b5035611294565b6105ac6118df565b60405160ff909116815260200160405180910390f35b6103b1600480360360208110156105e1576000806105de614544565b50505b50356001600160a01b03166118fb565b61036e600480360360408110156106105760008061060d614544565b50505b506001600160a01b038135169060200135611a51565b6103b16004803603602081101561064557600080610642614544565b50505b50351515611ab6565b6103b16004803603602081101561066d5760008061066a614544565b50505b810190602081018135600160201b8111156106905760008061068d614544565b50505b8201836020820111156106ab576000806106a8614544565b50505b803590602001918460208302840111600160201b831117156106d5576000806106d2614544565b50505b919080806020026020016040519081016040528093929190818152602001838360200280828437600092019190915250929550611bae945050505050565b61029e611c87565b6103b16004803603604081101561073a57600080610737614544565b50505b6001600160a01b038235169190810190604081016020820135600160201b81111561076d5760008061076a614544565b50505b82018360208201111561078857600080610785614544565b50505b803590602001918460018302840111600160201b831117156107b2576000806107af614544565b50505b91908080601f0160208091040260200160405190810160405281815292919060208401838380828437600092019190915250929550611c94945050505050565b61036e611e09565b6103b16004803603602081101561081957600080610816614544565b50505b810190602081018135600160201b81111561083c57600080610839614544565b50505b82018360208201111561085757600080610854614544565b50505b803590602001918460208302840111600160201b831117156108815760008061087e614544565b50505b919080806020026020016040519081016040528093929190818152602001838360200280828437600092019190915250929550611e22945050505050565b6103c3600480360360208110156108de576000806108db614544565b50505b50356001600160a01b0316611eeb565b61036e6004803603602081101561090d5760008061090a614544565b50505b50356001600160a01b0316611f13565b6103c361201d565b6103b1612027565b6103c36120dd565b6102c2612107565b61029e6121ad565b61094d6121ba565b60405160208082528190810183818151815260200191508051906020019060200280838360005b8381101561098c578082015183820152602001610974565b505050509050019250505060405180910390f35b6103c3612240565b61036e600480360360408110156109c7576000806109c4614544565b50505b506001600160a01b038135169060200135612253565b6103b1600480360360208110156109fc576000806109f9614544565b50505b50356001600160a01b03166122c9565b61036e60048036036040811015610a2b57600080610a28614544565b50505b506001600160a01b03813516906020013561237f565b6103c3612393565b6103c360048036036020811015610a6857600080610a65614544565b50505b50356001600160a01b03166125ee565b6103c360048036036020811015610a9757600080610a94614544565b50505b5035612707565b61036e60048036036020811015610abd57600080610aba614544565b50505b50356001600160a01b0316612b95565b61029e612bbd565b6103b160048036036020811015610af457600080610af1614544565b50505b50356001600160a01b0316612bc9565b6103b1612c65565b6103b1600480360360e0811015610b2b57600080610b28614544565b50505b6001600160a01b0382358116926020810135151592604082013590921691810190608081016060820135600160201b811115610b6f57600080610b6c614544565b50505b820183602082011115610b8a57600080610b87614544565b50505b803590602001918460018302840111600160201b83111715610bb457600080610bb1614544565b50505b91908080601f01602080910402602001604051908101604052818152929190602084018383808284376000920191909152509295949360208101935035915050600160201b811115610c0e57600080610c0b614544565b50505b820183602082011115610c2957600080610c26614544565b50505b803590602001918460018302840111600160201b83111715610c5357600080610c50614544565b50505b91908080601f01602080910402602001604051908101604052818152929190602084018383808284376000920191909152509295949360208101935035915050600160201b811115610cad57600080610caa614544565b50505b820183602082011115610cc857600080610cc5614544565b50505b803590602001918460018302840111600160201b83111715610cf257600080610cef614544565b50505b91908080601f0160208091040260200160405190810160405281815292919060208401838380828437600092019190915250929550505090356001600160a01b03169150612c6f9050565b6103c3612e91565b6103c360048036036040811015610d6457600080610d61614544565b50505b506001600160a01b0381358116916020013516612e9b565b6103c3612edb565b6103c3612f96565b6102c2613103565b600160cd610da06145af565b906101000a90046001600160a01b031681565b6060606880610dc06145af565b600181600116156101000203166002900480601f016020809104026020016040519081016040528181529190602083018280610dfa6145af565b60018160011615610100020316600290048015610e665780601f10610e34576101008083610e266145af565b040283529160200191610e66565b820191906000526020600020905b81610e4b6145af565b81529060010190602001808311610e4257829003601f168201915b5050505050905090565b6000610e84610e7d6131a9565b84846131b4565b5060015b92915050565b60006097610e9a6145af565b906101000a90046001600160a01b03166001600160a01b03165a610ebc61460a565b6001600160a01b031614610f0e5760405162461bcd60e51b815260206004820152600c60248201526b37b7363c9036b0b730b3b2b960a11b604482015260640160405180910390610f0b614544565b50505b610f1781612b95565b610f2057610f29565b610f29816132dc565b50565b600080609b610f396145af565b906101000a90046001600160a01b0316905090565b60006067610f5a6145af565b905090565b6060600080808381808080808080808060cf610f796145af565b906101000a90046001600160a01b03166001600160a01b031663b7a545265a63996d79a5598160e01b8152602081600483336000905af158600e01573d6000803e3d6000fd5b3d6001141558600a015760016000f35b8051925060005b6040811015610fed57600082820152602001610fd6565b5050506040516001600160e01b031960e084901b1681526001600160a01b03909116600482015260240160408051808303818680611029614650565b15801561103e5760008061103b614544565b50505b505a61104861469c565b5050505050158015611067573d6000803e3d6000611064614544565b50505b505050506040513d604081101561108657600080611083614544565b50505b81019080805192919060200180519395509293506000925082915081905060cf6110ae6145af565b906101000a90046001600160a01b03166001600160a01b031663ecb0116a6040518163ffffffff1660e01b8152600401604080518083038186806110f0614650565b15801561110557600080611102614544565b50505b505a61110f61469c565b505050505015801561112e573d6000803e3d600061112b614544565b50505b505050506040513d604081101561114d5760008061114a614544565b50505b810190808051929190602001805193955092935061116e9250610db3915050565b611176610f4e565b61117e612393565b611186611c87565b61118e613103565b60ce6111986145af565b600060cd6111a46145af565b906101000a900460ff168a8a8a8a9e509e509e509e509e509e509e509e509e509e509e5050505050909192939495969798999a565b600060d2610da06145af565b60006111f284848461345d565b61126f846111fe6131a9565b61126a85604051606081016040526028808252614a4f60208301396001600160a01b038a166000908152606660205260409020600061123b6131a9565b6001600160a01b03166001600160a01b031681526020019081526020016000206112636145af565b91906135fb565b6131b4565b5060019392505050565b60d160205280600052604060002090506112916145af565b81565b806112a65a6112a161460a565b611eeb565b10156112ec5760405162461bcd60e51b8152600401808060200182810382526023815260200180614b3460239139604001915050604051809103906112e9614544565b50505b6112fd5a6112f861460a565b6125ee565b156113495760405162461bcd60e51b815260206004820152600f60248201526e636f6f6c646f776e2061637469766560881b604482015260640160405180910390611346614544565b50505b61135161369b565b600061135b612393565b9050600061138261136a610f4e565b61137c85670de0b6b3a7640000613acc565b90613b34565b90506113965a61139061460a565b84613b74565b60008060d26113a36145af565b906101000a90046001600160a01b031690506060816001600160a01b031663e5406dbf6040518163ffffffff1660e01b815260040160006040518083038186806113eb614650565b158015611400576000806113fd614544565b50505b505a61140a61469c565b5050505050158015611429573d6000803e3d6000611426614544565b50505b505050506040513d6000823e601f3d908101601f19168201604052602081101561145b57600080611458614544565b50505b8101908080516040519392919084600160201b82111561148357600080611480614544565b50505b9083019060208201858111156114a15760008061149e614544565b50505b82518660208202830111600160201b821117156114c6576000806114c3614544565b50505b825250602001908051906020019060200280838360005b838110156114f55780820151838201526020016114dd565b50505050905001604052505050905060008151905060005b818110156117d3576000846001600160a01b0316633ded653085848151811061153257fe5b60200260200101516040516001600160e01b031960e084901b1681526004810191909152602401602060405180830381868061156c614650565b1580156115815760008061157e614544565b50505b505a61158b61469c565b50505050501580156115aa573d6000803e3d60006115a7614544565b50505b505050506040513d60208110156115c9576000806115c6614544565b50505b810190808051935060009250506001600160a01b03831690506370a082315a63996d79a5598160e01b8152602081600483336000905af158600e01573d6000803e3d6000fd5b3d6001141558600a015760016000f35b8051925060005b604081101561163d57600082820152602001611626565b5050506040516001600160e01b031960e084901b1681526001600160a01b039091166004820152602401602060405180830381868061167a614650565b15801561168f5760008061168c614544565b50505b505a61169961469c565b50505050501580156116b8573d6000803e3d60006116b5614544565b50505b505050506040513d60208110156116d7576000806116d4614544565b50505b8101908080519350600092506116fd9150670de0b6b3a7640000905061137c848b613acc565b905080156117c857826001600160a01b031663a9059cbb5a61171d61460a565b836040516001600160e01b031960e085901b1681526001600160a01b03909216600483015260248201526044016020604051808303816000878061175f614650565b15801561177457600080611771614544565b50505b505a61177e614787565b50505050505015801561179e573d6000803e3d600061179b614544565b50505b505050506040513d60208110156117bd576000806117ba614544565b50505b810190808051505050505b50505060010161150d565b5060006117de612393565b90508086037f79d44cc8beeed36226f14818b2ecaca7ef252bcd56c9ae35f5a86869dbdefb975a63996d79a5598160e01b8152602081600483336000905af158600e01573d6000803e3d6000fd5b3d6001141558600a015760016000f35b8051925060005b604081101561185a57600082820152602001611843565b5050505a61186661460a565b838b6118745a6112a161460a565b8761187d610f4e565b5a61188661484d565b6040516001600160a01b0398891681529690971660208701526040808701959095526060860193909352608085019190915260a084015260c083015260e082019290925261010001905180910390a15050505050505050565b600080606a6118ec6145af565b906101000a900460ff16905090565b60008060cf6119086145af565b906101000a90046001600160a01b03166001600160a01b031663fcf616576040518163ffffffff1660e01b8152600401602060405180830381868061194b614650565b1580156119605760008061195d614544565b50505b505a61196a61469c565b5050505050158015611989573d6000803e3d6000611986614544565b50505b505050506040513d60208110156119a8576000806119a5614544565b50505b8101908080519350506001600160a01b0383169150505a6119c761460a565b6001600160a01b031614611a1f5760405162461bcd60e51b81526020600482015260126024820152711bdb9b1e481cddd85c0818dbdb9d1c9858dd60721b604482015260640160405180910390611a1c614544565b50505b5a611a2861484d565b6001600160a01b038316600090815260d1602052604090208190611a4a614893565b5050505050565b6000610e84611a5e6131a9565b8461126a8560666000611a6f6131a9565b6001600160a01b03166001600160a01b031681526020019081526020016000206001600160a01b038916600090815260209190915260409020611ab06145af565b90613c8e565b60006097611ac26145af565b906101000a90046001600160a01b03166001600160a01b03165a611ae461460a565b6001600160a01b031614611b365760405162461bcd60e51b815260206004820152600c60248201526b37b7363c9036b0b730b3b2b960a11b604482015260640160405180910390611b33614544565b50505b801515600060cd611b456145af565b906101000a900460ff1615151415611ba55760405162461bcd60e51b8152602060048201526016602482015275199b1859c81b5d5cdd08189948191a5999995c995b9d60521b604482015260640160405180910390611ba2614544565b50505b610f2981613ced565b60006097611bba6145af565b906101000a90046001600160a01b03166001600160a01b03165a611bdc61460a565b6001600160a01b031614611c2e5760405162461bcd60e51b815260206004820152600c60248201526b37b7363c9036b0b730b3b2b960a11b604482015260640160405180910390611c2b614544565b50505b60005b8151811015611c8357611c56828281518110611c4957fe5b6020026020010151612b95565b611c5f57611c7b565b611c7b828281518110611c6e57fe5b60200260200101516132dc565b600101611c31565b5050565b6000806097610f396145af565b60006097611ca06145af565b906101000a90046001600160a01b03166001600160a01b03165a611cc261460a565b6001600160a01b031614611d145760405162461bcd60e51b815260206004820152600c60248201526b37b7363c9036b0b730b3b2b960a11b604482015260640160405180910390611d11614544565b50505b816097600181611d226145af565b816001600160a01b0302191690836001600160a01b0316021790611d44614893565b505050806098908051611d5b9291602001906148e1565b507f6ed15082ad038474841528b5badca105106d4463e44b5d434130dfb299aa366982826040516001600160a01b038316815260406020820181815290820183818151815260200191508051906020019080838360005b83811015611dca578082015183820152602001611db2565b50505050905090810190601f168015611df75780820380516001836020036101000a031916815260200191505b50935050505060405180910390a15050565b600060cd611e156145af565b906101000a900460ff1681565b60006097611e2e6145af565b906101000a90046001600160a01b03166001600160a01b03165a611e5061460a565b6001600160a01b031614611ea25760405162461bcd60e51b815260206004820152600c60248201526b37b7363c9036b0b730b3b2b960a11b604482015260640160405180910390611e9f614544565b50505b60005b8151811015611c8357611ebd828281518110611c4957fe5b15611ec757611ee3565b611ee3828281518110611ed657fe5b6020026020010151613d4b565b600101611ea5565b6001600160a01b0381166000908152606560205260408120611f0b6145af565b90505b919050565b6000806097611f206145af565b906101000a90046001600160a01b03166001600160a01b03165a611f4261460a565b6001600160a01b031614611f945760405162461bcd60e51b815260206004820152600c60248201526b37b7363c9036b0b730b3b2b960a11b604482015260640160405180910390611f91614544565b50505b8160d2600181611fa26145af565b816001600160a01b0302191690836001600160a01b0316021790611fc4614893565b5050507f63fb64c359a4cae97e1bf003c1ab11390b5f0e18cc5b3d67b90bd61c0f5c52fd825a611ff261460a565b6040516001600160a01b039283168152911660208201526040908101905180910390a1506001919050565b60d06112916145af565b600060976120336145af565b906101000a90046001600160a01b03166001600160a01b03165a61205561460a565b6001600160a01b0316146120a75760405162461bcd60e51b815260206004820152600c60248201526b37b7363c9036b0b730b3b2b960a11b6044820152606401604051809103906120a4614544565b50505b6000609b6001816120b66145af565b816001600160a01b0302191690836001600160a01b03160217906120d8614893565b505050565b6000806120e8612393565b905060006120f4610f4e565b90506121008282613dd7565b9250505090565b60606069806121146145af565b600181600116156101000203166002900480601f01602080910402602001604051908101604052818152919060208301828061214e6145af565b60018160011615610100020316600290048015610e665780601f1061217a576101008083610e266145af565b820191906000526020600020905b816121916145af565b8152906001019060200180831161218857509395945050505050565b60008060d2610f396145af565b60606099806121c76145af565b8060200260200160405190810160405281815291906020830182806121ea6145af565b8015610e6657602002820191906000526020600020905b60008261220c6145af565b906101000a90046001600160a01b03166001600160a01b031681526020019060010190808311612201575050505050905090565b600060998061224d6145af565b91505090565b6000610e846122606131a9565b8461126a85604051606081016040526025808252614b0f6020830139606660006122886131a9565b6001600160a01b03166001600160a01b031681526020019081526020016000206001600160a01b038a166000908152602091909152604090206112636145af565b600060976122d56145af565b906101000a90046001600160a01b03166001600160a01b03165a6122f761460a565b6001600160a01b0316146123495760405162461bcd60e51b815260206004820152600c60248201526b37b7363c9036b0b730b3b2b960a11b604482015260640160405180910390612346614544565b50505b80609b6001816123576145af565b816001600160a01b0302191690836001600160a01b0316021790612379614893565b50505050565b6000610e8461238c6131a9565b848461345d565b600080808060d26123a26145af565b906101000a90046001600160a01b031690506060816001600160a01b031663e5406dbf6040518163ffffffff1660e01b815260040160006040518083038186806123ea614650565b1580156123ff576000806123fc614544565b50505b505a61240961469c565b5050505050158015612428573d6000803e3d6000612425614544565b50505b505050506040513d6000823e601f3d908101601f19168201604052602081101561245a57600080612457614544565b50505b8101908080516040519392919084600160201b8211156124825760008061247f614544565b50505b9083019060208201858111156124a05760008061249d614544565b50505b82518660208202830111600160201b821117156124c5576000806124c2614544565b50505b825250602001908051906020019060200280838360005b838110156124f45780820151838201526020016124dc565b50505050905001604052505050905060008151905060005b818110156125e4576125da846001600160a01b0316630499123f85848151811061253257fe5b60200260200101516040516001600160e01b031960e084901b1681526004810191909152602401602060405180830381868061256c614650565b1580156125815760008061257e614544565b50505b505a61258b61469c565b50505050501580156125aa573d6000803e3d60006125a7614544565b50505b505050506040513d60208110156125c9576000806125c6614544565b50505b810190808051899350915050613c8e565b945060010161250c565b5092935050505090565b6000808060cf6125fc6145af565b906101000a90046001600160a01b03166001600160a01b031663eda96ea96040518163ffffffff1660e01b8152600401602060405180830381868061263f614650565b15801561265457600080612651614544565b50505b505a61265e61469c565b505050505015801561267d573d6000803e3d600061267a614544565b50505b505050506040513d602081101561269c57600080612699614544565b50505b8101908080516001600160a01b038716600090815260d160205290945092506126cf915083905060408320611ab06145af565b90505a6126da61484d565b8110156126ec57600092505050611f0e565b6126ff5a6126f861484d565b8290613e07565b949350505050565b6000612711611c87565b6001600160a01b03165a61272361460a565b6001600160a01b0316148061274b5750600060cd61273f6145af565b906101000a900460ff16155b8061276257506127625a61275d61460a565b612b95565b6127b25760405162461bcd60e51b81526020600482015260146024820152731bdb9b1e481b595b58995c9cc8185b1b1bddd95960621b6044820152606401604051809103906127af614544565b50505b5a6127bb61484d565b60d160005a6127c861460a565b6001600160a01b03166001600160a01b0316815260200190815260200160002081906127f2614893565b5050506127fd61369b565b6000612807612393565b90506000612813610f4e565b905060008060d26128226145af565b906101000a90046001600160a01b03169050806001600160a01b0316633ded6530631cd554d160e21b6040516001600160e01b031960e084901b1681526004810191909152602401602060405180830381868061287d614650565b1580156128925760008061288f614544565b50505b505a61289c61469c565b50505050501580156128bb573d6000803e3d60006128b8614544565b50505b505050506040513d60208110156128da576000806128d7614544565b50505b8101908080516001600160a01b031692506323b872dd9150505a6128fc61460a565b5a63996d79a5598160e01b8152602081600483336000905af158600e01573d6000803e3d6000fd5b3d6001141558600a015760016000f35b8051925060005b60408110156129525760008282015260200161293b565b505050886040516001600160e01b031960e086901b1681526001600160a01b0393841660048201529190921660248201526044810191909152606401602060405180830381600087806129a3614650565b1580156129b8576000806129b5614544565b50505b505a6129c2614787565b5050505050501580156129e2573d6000803e3d60006129df614544565b50505b505050506040513d6020811015612a01576000806129fe614544565b50505b8101908080519250612a5d9150505760405162461bcd60e51b81526020600482015260156024820152741d1bdad95b881d1c985b9cd9995c8819985a5b1959605a1b604482015260640160405180910390612a5a614544565b50505b60008215612a7a57612a738461137c8886613acc565b9050612a7d565b50845b612a8f5a612a8961460a565b82613e47565b7f87fdcba84e083ebb8fd661bbafee3eb38764ec6f0cbeea8ed52deffa67bd45dc5a63996d79a5598160e01b8152602081600483336000905af158600e01573d6000803e3d6000fd5b3d6001141558600a015760016000f35b8051925060005b6040811015612b0657600082820152602001612aef565b5050505a612b1261460a565b8884612b205a6112a161460a565b612b2a8a8d613c8e565b612b348a89613c8e565b5a612b3d61484d565b6040516001600160a01b0398891681529690971660208701526040808701959095526060860193909352608085019190915260a084015260c083015260e082019290925261010001905180910390a195945050505050565b6001600160a01b0381166000908152609a60205260408120612bb56145af565b151592915050565b600060cf610da06145af565b60006097612bd56145af565b906101000a90046001600160a01b03166001600160a01b03165a612bf761460a565b6001600160a01b031614612c495760405162461bcd60e51b815260206004820152600c60248201526b37b7363c9036b0b730b3b2b960a11b604482015260640160405180910390612c46614544565b50505b612c5281612b95565b15612c5c57610f29565b610f2981613d4b565b612c6d61369b565b565b60016000612c7b6145af565b906101000a900460ff1680612c935750612c93613f60565b80612cb05750600080612ca46145af565b906101000a900460ff16155b612cf45760405162461bcd60e51b815260040180806020018281038252602e815260200180614a77602e913960400191505060405180910390612cf1614544565b50505b6000600181612d016145af565b906101000a900460ff161590508015612d67576001600061010081612d246145af565b8160ff02191690831515021790612d39614893565b50505060016000806101000a81612d4e6145af565b8160ff02191690831515021790612d63614893565b5050505b612d718484613fd1565b612d7b8686614105565b8760cf600181612d896145af565b816001600160a01b0302191690836001600160a01b0316021790612dab614893565b505050612db787613ced565b5a612dc061460a565b60cd61010081612dce6145af565b816001600160a01b0302191690836001600160a01b0316021790612df0614893565b5050505a612dfc61484d565b8060ce612e07614893565b505050670de0b6b3a764000060d08190612e1f614893565b5050508160d260006101000a81612e346145af565b816001600160a01b0302191690836001600160a01b0316021790612e56614893565b5050508015612e875760008061010081612e6e6145af565b8160ff02191690831515021790612e83614893565b5050505b5050505050505050565b60ce6112916145af565b6001600160a01b03821660009081526066602052604081206001600160a01b038316600090815260209190915260409020612ed46145af565b9392505050565b60008060cf612ee86145af565b906101000a90046001600160a01b03166001600160a01b031663eda96ea96040518163ffffffff1660e01b81526004016020604051808303818680612f2b614650565b158015612f4057600080612f3d614544565b50505b505a612f4a61469c565b5050505050158015612f69573d6000803e3d6000612f66614544565b50505b505050506040513d6020811015612f8857600080612f85614544565b50505b810190808051935050505090565b600080612fa1612393565b90506000612fad610f4e565b90506000808060cf612fbd6145af565b906101000a90046001600160a01b03166001600160a01b031663b7a545265a63996d79a5598160e01b8152602081600483336000905af158600e01573d6000803e3d6000fd5b3d6001141558600a015760016000f35b8051925060005b60408110156130315760008282015260200161301a565b5050506040516001600160e01b031960e084901b1681526001600160a01b0390911660048201526024016040805180830381868061306d614650565b1580156130825760008061307f614544565b50505b505a61308c61469c565b50505050501580156130ab573d6000803e3d60006130a8614544565b50505b505050506040513d60408110156130ca576000806130c7614544565b50505b81019080805192919060200180519395509293506130fa925086915085905060d06130f36145af565b858561414c565b94505050505090565b60606098806131106145af565b600181600116156101000203166002900480601f01602080910402602001604051908101604052818152919060208301828061314a6145af565b60018160011615610100020316600290048015610e665780601f10613176576101008083610e266145af565b820191906000526020600020905b8161318d6145af565b8152906001019060200180831161318457509395945050505050565b60005a610f5a61460a565b6001600160a01b0383166132025760405162461bcd60e51b8152600401808060200182810382526024815260200180614aeb60249139604001915050604051809103906131ff614544565b50505b6001600160a01b0382166132505760405162461bcd60e51b81526004018080602001828103825260228152602001806149e6602291396040019150506040518091039061324d614544565b50505b6001600160a01b038316600090815260666020528190604090206001600160a01b038416600090815260209190915260409020819061328d614893565b505050816001600160a01b0316836001600160a01b03167f8c5be1e5ebec7d5bd14f71427d1e84f3dd0314c0f7b2291e5b200ac8c7c3b9258360405190815260200160405180910390a3505050565b60006099806132e96145af565b6001600160a01b0384166000908152609a60205290925090506133196001604083206133136145af565b90613e07565b90506000609961332a846001613e07565b816133336145af565b811061333b57fe5b906000526020600020016000906133506145af565b906101000a90046001600160a01b03169050806099838161336f6145af565b811061337757fe5b9060005260206000200160018161338c6145af565b816001600160a01b0302191690836001600160a01b03160217906133ae614893565b506133be91508390506001613c8e565b6001600160a01b0382166000908152609a6020526040902081906133e0614893565b5050506001600160a01b0384166000908152609a602052604081208190613405614893565b5050506099806134136145af565b8061341a57fe5b600190038181906000526020600020016001816134356145af565b906001600160a01b030219169061344a614893565b505090613455614893565b505050505050565b6001600160a01b0383166134ab5760405162461bcd60e51b8152600401808060200182810382526025815260200180614ac660259139604001915050604051809103906134a8614544565b50505b6001600160a01b0382166134f95760405162461bcd60e51b81526004018080602001828103825260238152602001806149a160239139604001915050604051809103906134f6614544565b50505b6135048383836141bd565b61353f81604051606081016040526026808252614a0860208301396001600160a01b03861660009081526065602052604090206112636145af565b6001600160a01b03841660009081526065602052604090208190613561614893565b5050506001600160a01b0382166000908152606560205261358a90829060409020611ab06145af565b6001600160a01b038316600090815260656020526040902081906135ac614893565b505050816001600160a01b0316836001600160a01b03167fddf252ad1be2c89b69c2b068fc378daa952ba7f163c4a11628f55a4df523b3ef8360405190815260200160405180910390a3505050565b600081848411156136935760405162461bcd60e51b81526004018080602001828103825283818151815260200191508051906020019080838360005b8381101561364f578082015183820152602001613637565b50505050905090810190601f16801561367c5780820380516001836020036101000a031916815260200191505b509250505060405180910390613690614544565b50505b505050900390565b60006136a5612393565b905060006136b1610f4e565b90506000808060cf6136c16145af565b906101000a90046001600160a01b03166001600160a01b031663b7a545265a63996d79a5598160e01b8152602081600483336000905af158600e01573d6000803e3d6000fd5b3d6001141558600a015760016000f35b8051925060005b60408110156137355760008282015260200161371e565b5050506040516001600160e01b031960e084901b1681526001600160a01b03909116600482015260240160408051808303818680613771614650565b15801561378657600080613783614544565b50505b505a61379061469c565b50505050501580156137af573d6000803e3d60006137ac614544565b50505b505050506040513d60408110156137ce576000806137cb614544565b50505b81019080805192919060200180519395509293506000925061380091508690508560d06137f96145af565b868661414c565b90506064811015613815575050505050612c6d565b60008060cf6138226145af565b906101000a90046001600160a01b03166001600160a01b0316631d68702d6040518163ffffffff1660e01b81526004016020604051808303818680613865614650565b15801561387a57600080613877614544565b50505b505a61388461469c565b50505050501580156138a3573d6000803e3d60006138a0614544565b50505b505050506040513d60208110156138c2576000806138bf614544565b50505b81019080805193506000925082915081905060cf6138de6145af565b906101000a90046001600160a01b03166001600160a01b0316639cada6e46040518163ffffffff1660e01b815260040160408051808303818680613920614650565b15801561393557600080613932614544565b50505b505a61393f61469c565b505050505015801561395e573d6000803e3d600061395b614544565b50505b505050506040513d604081101561397d5760008061397a614544565b50505b8101908080519291906020018051939550929350600092506139a7915083905061137c8786613acc565b905060006139b58683613e07565b905081156139c7576139c78583613e47565b80156139d8576139d8612a89611c87565b6139e28a8a613dd7565b8060d06139ed614893565b5050507f755a8059d66d8d243bc9f6913f429a811f154599d0538bb0b6a2ac23f23d2ccd5a63996d79a5598160e01b8152602081600483336000905af158600e01573d6000803e3d6000fd5b3d6001141558600a015760016000f35b8051925060005b6040811015613a6757600082820152602001613a50565b505050613a72611c87565b88858560d0613a7f6145af565b6040516001600160a01b0396871681529490951660208501526040808501939093526060840191909152608083015260a082019290925260c001905180910390a150505050505050505050565b600082613adb57506000610e88565b82820282848281613ae857fe5b0414612ed45760405162461bcd60e51b8152600401808060200182810382526021815260200180614a2e6021913960400191505060405180910390613b2b614544565b50509392505050565b6000612ed4838360405160408082019052601a81527f536166654d6174683a206469766973696f6e206279207a65726f000000000000602082015261421a565b6001600160a01b038216613bc25760405162461bcd60e51b8152600401808060200182810382526021815260200180614aa56021913960400191505060405180910390613bbf614544565b50505b613bce826000836141bd565b613c09816040516060810160405260228082526149c460208301396001600160a01b03851660009081526065602052604090206112636145af565b6001600160a01b03831660009081526065602052604090208190613c2b614893565b505050613c3c8160676133136145af565b806067613c47614893565b5060009150506001600160a01b0383167fddf252ad1be2c89b69c2b068fc378daa952ba7f163c4a11628f55a4df523b3ef8360405190815260200160405180910390a35050565b600082820183811015612ed45760405162461bcd60e51b815260206004820152601b60248201527f536166654d6174683a206164646974696f6e206f766572666c6f770000000000604482015260640160405180910390613b2b614544565b8060cd600181613cfb6145af565b8160ff02191690831515021790613d10614893565b5050507f8d75e9ede4188432084b863d70b3416010c97547dfeb4fc17734d2e997ee0f3981604051901515815260200160405180910390a150565b80609980600181613d5a6145af565b018082613d65614893565b505060009283526000190191602091502001600181613d826145af565b816001600160a01b0302191690836001600160a01b0316021790613da4614893565b505050609980613db26145af565b6001600160a01b0383166000908152609a602052909150604090208190612379614893565b6000811580613de4575082155b15613df157506000610e88565b612ed48261137c85670de0b6b3a7640000613acc565b6000612ed4838360405160408082019052601e81527f536166654d6174683a207375627472616374696f6e206f766572666c6f77000060208201526135fb565b6001600160a01b038216613eaa5760405162461bcd60e51b815260206004820152601f60248201527f45524332303a206d696e7420746f20746865207a65726f206164647265737300604482015260640160405180910390613ea7614544565b50505b613eb6600083836141bd565b613ec4816067611ab06145af565b806067613ecf614893565b5050506001600160a01b03821660009081526065602052613ef890829060409020611ab06145af565b6001600160a01b03831660009081526065602052604090208190613f1a614893565b5050506001600160a01b03821660007fddf252ad1be2c89b69c2b068fc378daa952ba7f163c4a11628f55a4df523b3ef8360405190815260200160405180910390a35050565b6000805a63996d79a5598160e01b8152602081600483336000905af158600e01573d6000803e3d6000fd5b3d6001141558600a015760016000f35b8051925060005b6040811015613fb957600082820152602001613fa2565b5050509050600081613fc9614650565b159250505090565b60016000613fdd6145af565b906101000a900460ff1680613ff55750613ff5613f60565b8061401257506000806140066145af565b906101000a900460ff16155b6140565760405162461bcd60e51b815260040180806020018281038252602e815260200180614a77602e913960400191505060405180910390614053614544565b50505b60006001816140636145af565b906101000a900460ff1615905080156140c95760016000610100816140866145af565b8160ff0219169083151502179061409b614893565b50505060016000806101000a816140b06145af565b8160ff021916908315150217906140c5614893565b5050505b6140d16142c5565b6140db83836143e7565b80156120d857600080610100816140f06145af565b8160ff02191690831515021790613455614893565b8160976001816141136145af565b816001600160a01b0302191690836001600160a01b0316021790614135614893565b5050508060989080516120d89291602001906148e1565b6000841580614159575085155b15614166575060006141b4565b600061417e8661137c89670de0b6b3a7640000613acc565b90508481116141915760009150506141b4565b60006141af8261137c8681896141a98d81878f613e07565b90613acc565b925050505b95945050505050565b6141c88383836120d8565b6141d1836125ee565b156120d85760405162461bcd60e51b815260206004820152600f60248201526e636f6f6c646f776e2061637469766560881b604482015260640160405180910390611a4a614544565b600081836142af5760405162461bcd60e51b81526004018080602001828103825283818151815260200191508051906020019080838360005b8381101561426b578082015183820152602001614253565b50505050905090810190601f1680156142985780820380516001836020036101000a031916815260200191505b5092505050604051809103906142ac614544565b50505b5060008385816142bb57fe5b0495945050505050565b600160006142d16145af565b906101000a900460ff16806142e957506142e9613f60565b8061430657506000806142fa6145af565b906101000a900460ff16155b61434a5760405162461bcd60e51b815260040180806020018281038252602e815260200180614a77602e913960400191505060405180910390614347614544565b50505b60006001816143576145af565b906101000a900460ff1615905080156143bd57600160006101008161437a6145af565b8160ff0219169083151502179061438f614893565b50505060016000806101000a816143a46145af565b8160ff021916908315150217906143b9614893565b5050505b8015610f2957600080610100816143d26145af565b8160ff02191690831515021790612379614893565b600160006143f36145af565b906101000a900460ff168061440b575061440b613f60565b80614428575060008061441c6145af565b906101000a900460ff16155b61446c5760405162461bcd60e51b815260040180806020018281038252602e815260200180614a77602e913960400191505060405180910390614469614544565b50505b60006001816144796145af565b906101000a900460ff1615905080156144df57600160006101008161449c6145af565b8160ff021916908315150217906144b1614893565b50505060016000806101000a816144c66145af565b8160ff021916908315150217906144db614893565b5050505b60688380516144f29291602001906148e1565b5060698280516145069291602001906148e1565b506012606a6001816145166145af565b8160ff021916908360ff1602179061452c614893565b50505080156120d857600080610100816140f06145af565b632a2a7adb598160e01b8152600481016020815285602082015260005b8681101561457c578086015182820160400152602001614561565b506020828760640184336000905af158600e01573d6000803e3d6000fd5b3d6001141558600a015760016000f35b505050565b6303daa959598160e01b8152836004820152602081602483336000905af158600e01573d6000803e3d6000fd5b3d6001141558600a015760016000f35b8051935060005b60408110156120d8576000828201526020016145f3565b6373509064598160e01b8152602081600483336000905af158600e01573d6000803e3d6000fd5b3d6001141558600a015760016000f35b805160008252935060206145f3565b638435035b598160e01b8152836004820152602081602483336000905af158600e01573d6000803e3d6000fd5b3d6001141558600a015760016000f35b805160008252935060206145f3565b638540661f598160e01b81526146cd565b8080831115610e88575090919050565b8080831015610e88575090919050565b836004820152846024820152606060448201528660648201526084810160005b888110156147055780880151828201526020016146ed565b506060828960a40184336000905af158600e01573d6000803e3d6000fd5b3d6001141558600a015760016000f35b815160408301513d6000853e8b8b82606087013350600060045af1505961475a8d3d6146bd565b8c0161476681876146ad565b5b8281101561477b5760008152602001614767565b50929c50505050505050565b6385979f76598160e01b8152836004820152846024820152606060448201528760648201526084810160005b898110156147cb5780890151828201526020016147b3565b506060828a60a40184336000905af158600e01573d6000803e3d6000fd5b3d6001141558600a015760016000f35b815160408301513d6000853e8c8c82606087013350600060045af150596148208e3d6146bd565b8d0161482c81876146ad565b5b82811015614841576000815260200161482d565b50929d50505050505050565b63bdbf8c36598160e01b8152602081600483336000905af158600e01573d6000803e3d6000fd5b3d6001141558600a015760016000f35b805160008252935060206145f3565b6322bd64c0598160e01b8152836004820152846024820152600081604483336000905af158600e01573d6000803e3d6000fd5b3d6001141558600a015760016000f35b6000815260206145f3565b82806148eb6145af565b600181600116156101000203166002900490600052602060002090601f016020900481019282601f1061493257805160ff1916838001178561492b614893565b5050614971565b82800160010185614941614893565b50508215614971579182015b8281111561497157825182614960614893565b50509160200191906001019061494d565b5061497d929150614981565b5090565b8082111561497d5760008082614995614893565b50505060010161498156fe45524332303a207472616e7366657220746f20746865207a65726f206164647265737345524332303a206275726e20616d6f756e7420657863656564732062616c616e636545524332303a20617070726f766520746f20746865207a65726f206164647265737345524332303a207472616e7366657220616d6f756e7420657863656564732062616c616e6365536166654d6174683a206d756c7469706c69636174696f6e206f766572666c6f7745524332303a207472616e7366657220616d6f756e74206578636565647320616c6c6f77616e6365436f6e747261637420696e7374616e63652068617320616c7265616479206265656e20696e697469616c697a656445524332303a206275726e2066726f6d20746865207a65726f206164647265737345524332303a207472616e736665722066726f6d20746865207a65726f206164647265737345524332303a20617070726f76652066726f6d20746865207a65726f206164647265737345524332303a2064656372656173656420616c6c6f77616e63652062656c6f77207a65726f696e73756666696369656e742062616c616e6365206f662066756e6420746f6b656e73",
  "deployedBytecode": "0x608060405234801561001957600080610016614544565b50505b50600436106102885760003560e01c80637714f39d11610165578063adefd871116100d7578063cdfa79d211610090578063cdfa79d214610b0c578063d8270dce14610d3d578063dd62ed3e14610d45578063eda96ea914610d7c578063edbf6f5014610d84578063fed4416a14610d8c57610288565b8063adefd87114610a49578063b6b55f2514610a78578063bbbf725b14610a9e578063c45a015514610acd578063ca6d56dc14610ad5578063cc3c6df614610b0457610288565b80639eab5253116101295780639eab525314610945578063a30e3fa9146109a0578063a457c2d7146109a8578063a6bc18f9146109dd578063a9059cbb14610a0c578063ad60ffcc14610a4157610288565b80637714f39d1461091d5780637c8afd51146109255780637ff9b5961461092d57806395d89b41146109355780639e24b07f1461093d57610288565b8063313ce567116101fe578063481c6a75116101c2578063481c6a7514610713578063522136631461071b57806359b5e75e146107f25780636f4d469b146107fa57806370a08231146108bf578063750226de146108ee57610288565b8063313ce567146105a4578063323725b1146105c257806339509351146105f15780633babaad51461062657806346ee84b01461064e57610288565b806318160ddd1161025057806318160ddd146103bb5780631c5918d2146103d55780631e50a4a61461050857806323b872dd1461051057806329d16ee81461054f5780632e1a7d4d1461057e57610288565b806302d05d3f1461029657806306fdde03146102ba578063095ea7b3146103395780630b1ca49a146103825780631758078b146103b3575b600080610293614544565b50505b61029e610d94565b6040516001600160a01b03909116815260200160405180910390f35b6102c2610db3565b60405160208082528190810183818151815260200191508051906020019080838360005b838110156102fe5780820151838201526020016102e6565b50505050905090810190601f16801561032b5780820380516001836020036101000a031916815260200191505b509250505060405180910390f35b61036e6004803603604081101561035857600080610355614544565b50505b506001600160a01b038135169060200135610e70565b604051901515815260200160405180910390f35b6103b1600480360360208110156103a15760008061039e614544565b50505b50356001600160a01b0316610e8e565b005b61029e610f2c565b6103c3610f4e565b60405190815260200160405180910390f35b6103dd610f5f565b60405180806020018c81526020018b81526020018a6001600160a01b0316815260200180602001898152602001881515815260200187815260200186815260200185815260200184815260200183810383528e818151815260200191508051906020019080838360005b8381101561045f578082015183820152602001610447565b50505050905090810190601f16801561048c5780820380516001836020036101000a031916815260200191505b5083810382528a818151815260200191508051906020019080838360005b838110156104c25780820151838201526020016104aa565b50505050905090810190601f1680156104ef5780820380516001836020036101000a031916815260200191505b509d505050505050505050505050505060405180910390f35b61029e6111d9565b61036e6004803603606081101561052f5760008061052c614544565b50505b506001600160a01b038135811691602081013590911690604001356111e5565b6103c36004803603602081101561056e5760008061056b614544565b50505b50356001600160a01b0316611279565b6103b16004803603602081101561059d5760008061059a614544565b50505b5035611294565b6105ac6118df565b60405160ff909116815260200160405180910390f35b6103b1600480360360208110156105e1576000806105de614544565b50505b50356001600160a01b03166118fb565b61036e600480360360408110156106105760008061060d614544565b50505b506001600160a01b038135169060200135611a51565b6103b16004803603602081101561064557600080610642614544565b50505b50351515611ab6565b6103b16004803603602081101561066d5760008061066a614544565b50505b810190602081018135600160201b8111156106905760008061068d614544565b50505b8201836020820111156106ab576000806106a8614544565b50505b803590602001918460208302840111600160201b831117156106d5576000806106d2614544565b50505b919080806020026020016040519081016040528093929190818152602001838360200280828437600092019190915250929550611bae945050505050565b61029e611c87565b6103b16004803603604081101561073a57600080610737614544565b50505b6001600160a01b038235169190810190604081016020820135600160201b81111561076d5760008061076a614544565b50505b82018360208201111561078857600080610785614544565b50505b803590602001918460018302840111600160201b831117156107b2576000806107af614544565b50505b91908080601f0160208091040260200160405190810160405281815292919060208401838380828437600092019190915250929550611c94945050505050565b61036e611e09565b6103b16004803603602081101561081957600080610816614544565b50505b810190602081018135600160201b81111561083c57600080610839614544565b50505b82018360208201111561085757600080610854614544565b50505b803590602001918460208302840111600160201b831117156108815760008061087e614544565b50505b919080806020026020016040519081016040528093929190818152602001838360200280828437600092019190915250929550611e22945050505050565b6103c3600480360360208110156108de576000806108db614544565b50505b50356001600160a01b0316611eeb565b61036e6004803603602081101561090d5760008061090a614544565b50505b50356001600160a01b0316611f13565b6103c361201d565b6103b1612027565b6103c36120dd565b6102c2612107565b61029e6121ad565b61094d6121ba565b60405160208082528190810183818151815260200191508051906020019060200280838360005b8381101561098c578082015183820152602001610974565b505050509050019250505060405180910390f35b6103c3612240565b61036e600480360360408110156109c7576000806109c4614544565b50505b506001600160a01b038135169060200135612253565b6103b1600480360360208110156109fc576000806109f9614544565b50505b50356001600160a01b03166122c9565b61036e60048036036040811015610a2b57600080610a28614544565b50505b506001600160a01b03813516906020013561237f565b6103c3612393565b6103c360048036036020811015610a6857600080610a65614544565b50505b50356001600160a01b03166125ee565b6103c360048036036020811015610a9757600080610a94614544565b50505b5035612707565b61036e60048036036020811015610abd57600080610aba614544565b50505b50356001600160a01b0316612b95565b61029e612bbd565b6103b160048036036020811015610af457600080610af1614544565b50505b50356001600160a01b0316612bc9565b6103b1612c65565b6103b1600480360360e0811015610b2b57600080610b28614544565b50505b6001600160a01b0382358116926020810135151592604082013590921691810190608081016060820135600160201b811115610b6f57600080610b6c614544565b50505b820183602082011115610b8a57600080610b87614544565b50505b803590602001918460018302840111600160201b83111715610bb457600080610bb1614544565b50505b91908080601f01602080910402602001604051908101604052818152929190602084018383808284376000920191909152509295949360208101935035915050600160201b811115610c0e57600080610c0b614544565b50505b820183602082011115610c2957600080610c26614544565b50505b803590602001918460018302840111600160201b83111715610c5357600080610c50614544565b50505b91908080601f01602080910402602001604051908101604052818152929190602084018383808284376000920191909152509295949360208101935035915050600160201b811115610cad57600080610caa614544565b50505b820183602082011115610cc857600080610cc5614544565b50505b803590602001918460018302840111600160201b83111715610cf257600080610cef614544565b50505b91908080601f0160208091040260200160405190810160405281815292919060208401838380828437600092019190915250929550505090356001600160a01b03169150612c6f9050565b6103c3612e91565b6103c360048036036040811015610d6457600080610d61614544565b50505b506001600160a01b0381358116916020013516612e9b565b6103c3612edb565b6103c3612f96565b6102c2613103565b600160cd610da06145af565b906101000a90046001600160a01b031681565b6060606880610dc06145af565b600181600116156101000203166002900480601f016020809104026020016040519081016040528181529190602083018280610dfa6145af565b60018160011615610100020316600290048015610e665780601f10610e34576101008083610e266145af565b040283529160200191610e66565b820191906000526020600020905b81610e4b6145af565b81529060010190602001808311610e4257829003601f168201915b5050505050905090565b6000610e84610e7d6131a9565b84846131b4565b5060015b92915050565b60006097610e9a6145af565b906101000a90046001600160a01b03166001600160a01b03165a610ebc61460a565b6001600160a01b031614610f0e5760405162461bcd60e51b815260206004820152600c60248201526b37b7363c9036b0b730b3b2b960a11b604482015260640160405180910390610f0b614544565b50505b610f1781612b95565b610f2057610f29565b610f29816132dc565b50565b600080609b610f396145af565b906101000a90046001600160a01b0316905090565b60006067610f5a6145af565b905090565b6060600080808381808080808080808060cf610f796145af565b906101000a90046001600160a01b03166001600160a01b031663b7a545265a63996d79a5598160e01b8152602081600483336000905af158601d01573d60011458600c01573d6000803e3d621234565260ea61109c528051925060005b6040811015610fed57600082820152602001610fd6565b5050506040516001600160e01b031960e084901b1681526001600160a01b03909116600482015260240160408051808303818680611029614650565b15801561103e5760008061103b614544565b50505b505a61104861469c565b5050505050158015611067573d6000803e3d6000611064614544565b50505b505050506040513d604081101561108657600080611083614544565b50505b81019080805192919060200180519395509293506000925082915081905060cf6110ae6145af565b906101000a90046001600160a01b03166001600160a01b031663ecb0116a6040518163ffffffff1660e01b8152600401604080518083038186806110f0614650565b15801561110557600080611102614544565b50505b505a61110f61469c565b505050505015801561112e573d6000803e3d600061112b614544565b50505b505050506040513d604081101561114d5760008061114a614544565b50505b810190808051929190602001805193955092935061116e9250610db3915050565b611176610f4e565b61117e612393565b611186611c87565b61118e613103565b60ce6111986145af565b600060cd6111a46145af565b906101000a900460ff168a8a8a8a9e509e509e509e509e509e509e509e509e509e509e5050505050909192939495969798999a565b600060d2610da06145af565b60006111f284848461345d565b61126f846111fe6131a9565b61126a85604051606081016040526028808252614a4f60208301396001600160a01b038a166000908152606660205260409020600061123b6131a9565b6001600160a01b03166001600160a01b031681526020019081526020016000206112636145af565b91906135fb565b6131b4565b5060019392505050565b60d160205280600052604060002090506112916145af565b81565b806112a65a6112a161460a565b611eeb565b10156112ec5760405162461bcd60e51b8152600401808060200182810382526023815260200180614b3460239139604001915050604051809103906112e9614544565b50505b6112fd5a6112f861460a565b6125ee565b156113495760405162461bcd60e51b815260206004820152600f60248201526e636f6f6c646f776e2061637469766560881b604482015260640160405180910390611346614544565b50505b61135161369b565b600061135b612393565b9050600061138261136a610f4e565b61137c85670de0b6b3a7640000613acc565b90613b34565b90506113965a61139061460a565b84613b74565b60008060d26113a36145af565b906101000a90046001600160a01b031690506060816001600160a01b031663e5406dbf6040518163ffffffff1660e01b815260040160006040518083038186806113eb614650565b158015611400576000806113fd614544565b50505b505a61140a61469c565b5050505050158015611429573d6000803e3d6000611426614544565b50505b505050506040513d6000823e601f3d908101601f19168201604052602081101561145b57600080611458614544565b50505b8101908080516040519392919084600160201b82111561148357600080611480614544565b50505b9083019060208201858111156114a15760008061149e614544565b50505b82518660208202830111600160201b821117156114c6576000806114c3614544565b50505b825250602001908051906020019060200280838360005b838110156114f55780820151838201526020016114dd565b50505050905001604052505050905060008151905060005b818110156117d3576000846001600160a01b0316633ded653085848151811061153257fe5b60200260200101516040516001600160e01b031960e084901b1681526004810191909152602401602060405180830381868061156c614650565b1580156115815760008061157e614544565b50505b505a61158b61469c565b50505050501580156115aa573d6000803e3d60006115a7614544565b50505b505050506040513d60208110156115c9576000806115c6614544565b50505b810190808051935060009250506001600160a01b03831690506370a082315a63996d79a5598160e01b8152602081600483336000905af158601d01573d60011458600c01573d6000803e3d621234565260ea61109c528051925060005b604081101561163d57600082820152602001611626565b5050506040516001600160e01b031960e084901b1681526001600160a01b039091166004820152602401602060405180830381868061167a614650565b15801561168f5760008061168c614544565b50505b505a61169961469c565b50505050501580156116b8573d6000803e3d60006116b5614544565b50505b505050506040513d60208110156116d7576000806116d4614544565b50505b8101908080519350600092506116fd9150670de0b6b3a7640000905061137c848b613acc565b905080156117c857826001600160a01b031663a9059cbb5a61171d61460a565b836040516001600160e01b031960e085901b1681526001600160a01b03909216600483015260248201526044016020604051808303816000878061175f614650565b15801561177457600080611771614544565b50505b505a61177e614787565b50505050505015801561179e573d6000803e3d600061179b614544565b50505b505050506040513d60208110156117bd576000806117ba614544565b50505b810190808051505050505b50505060010161150d565b5060006117de612393565b90508086037f79d44cc8beeed36226f14818b2ecaca7ef252bcd56c9ae35f5a86869dbdefb975a63996d79a5598160e01b8152602081600483336000905af158601d01573d60011458600c01573d6000803e3d621234565260ea61109c528051925060005b604081101561185a57600082820152602001611843565b5050505a61186661460a565b838b6118745a6112a161460a565b8761187d610f4e565b5a61188661484d565b6040516001600160a01b0398891681529690971660208701526040808701959095526060860193909352608085019190915260a084015260c083015260e082019290925261010001905180910390a15050505050505050565b600080606a6118ec6145af565b906101000a900460ff16905090565b60008060cf6119086145af565b906101000a90046001600160a01b03166001600160a01b031663fcf616576040518163ffffffff1660e01b8152600401602060405180830381868061194b614650565b1580156119605760008061195d614544565b50505b505a61196a61469c565b5050505050158015611989573d6000803e3d6000611986614544565b50505b505050506040513d60208110156119a8576000806119a5614544565b50505b8101908080519350506001600160a01b0383169150505a6119c761460a565b6001600160a01b031614611a1f5760405162461bcd60e51b81526020600482015260126024820152711bdb9b1e481cddd85c0818dbdb9d1c9858dd60721b604482015260640160405180910390611a1c614544565b50505b5a611a2861484d565b6001600160a01b038316600090815260d1602052604090208190611a4a614893565b5050505050565b6000610e84611a5e6131a9565b8461126a8560666000611a6f6131a9565b6001600160a01b03166001600160a01b031681526020019081526020016000206001600160a01b038916600090815260209190915260409020611ab06145af565b90613c8e565b60006097611ac26145af565b906101000a90046001600160a01b03166001600160a01b03165a611ae461460a565b6001600160a01b031614611b365760405162461bcd60e51b815260206004820152600c60248201526b37b7363c9036b0b730b3b2b960a11b604482015260640160405180910390611b33614544565b50505b801515600060cd611b456145af565b906101000a900460ff1615151415611ba55760405162461bcd60e51b8152602060048201526016602482015275199b1859c81b5d5cdd08189948191a5999995c995b9d60521b604482015260640160405180910390611ba2614544565b50505b610f2981613ced565b60006097611bba6145af565b906101000a90046001600160a01b03166001600160a01b03165a611bdc61460a565b6001600160a01b031614611c2e5760405162461bcd60e51b815260206004820152600c60248201526b37b7363c9036b0b730b3b2b960a11b604482015260640160405180910390611c2b614544565b50505b60005b8151811015611c8357611c56828281518110611c4957fe5b6020026020010151612b95565b611c5f57611c7b565b611c7b828281518110611c6e57fe5b60200260200101516132dc565b600101611c31565b5050565b6000806097610f396145af565b60006097611ca06145af565b906101000a90046001600160a01b03166001600160a01b03165a611cc261460a565b6001600160a01b031614611d145760405162461bcd60e51b815260206004820152600c60248201526b37b7363c9036b0b730b3b2b960a11b604482015260640160405180910390611d11614544565b50505b816097600181611d226145af565b816001600160a01b0302191690836001600160a01b0316021790611d44614893565b505050806098908051611d5b9291602001906148e1565b507f6ed15082ad038474841528b5badca105106d4463e44b5d434130dfb299aa366982826040516001600160a01b038316815260406020820181815290820183818151815260200191508051906020019080838360005b83811015611dca578082015183820152602001611db2565b50505050905090810190601f168015611df75780820380516001836020036101000a031916815260200191505b50935050505060405180910390a15050565b600060cd611e156145af565b906101000a900460ff1681565b60006097611e2e6145af565b906101000a90046001600160a01b03166001600160a01b03165a611e5061460a565b6001600160a01b031614611ea25760405162461bcd60e51b815260206004820152600c60248201526b37b7363c9036b0b730b3b2b960a11b604482015260640160405180910390611e9f614544565b50505b60005b8151811015611c8357611ebd828281518110611c4957fe5b15611ec757611ee3565b611ee3828281518110611ed657fe5b6020026020010151613d4b565b600101611ea5565b6001600160a01b0381166000908152606560205260408120611f0b6145af565b90505b919050565b6000806097611f206145af565b906101000a90046001600160a01b03166001600160a01b03165a611f4261460a565b6001600160a01b031614611f945760405162461bcd60e51b815260206004820152600c60248201526b37b7363c9036b0b730b3b2b960a11b604482015260640160405180910390611f91614544565b50505b8160d2600181611fa26145af565b816001600160a01b0302191690836001600160a01b0316021790611fc4614893565b5050507f63fb64c359a4cae97e1bf003c1ab11390b5f0e18cc5b3d67b90bd61c0f5c52fd825a611ff261460a565b6040516001600160a01b039283168152911660208201526040908101905180910390a1506001919050565b60d06112916145af565b600060976120336145af565b906101000a90046001600160a01b03166001600160a01b03165a61205561460a565b6001600160a01b0316146120a75760405162461bcd60e51b815260206004820152600c60248201526b37b7363c9036b0b730b3b2b960a11b6044820152606401604051809103906120a4614544565b50505b6000609b6001816120b66145af565b816001600160a01b0302191690836001600160a01b03160217906120d8614893565b505050565b6000806120e8612393565b905060006120f4610f4e565b90506121008282613dd7565b9250505090565b60606069806121146145af565b600181600116156101000203166002900480601f01602080910402602001604051908101604052818152919060208301828061214e6145af565b60018160011615610100020316600290048015610e665780601f1061217a576101008083610e266145af565b820191906000526020600020905b816121916145af565b8152906001019060200180831161218857509395945050505050565b60008060d2610f396145af565b60606099806121c76145af565b8060200260200160405190810160405281815291906020830182806121ea6145af565b8015610e6657602002820191906000526020600020905b60008261220c6145af565b906101000a90046001600160a01b03166001600160a01b031681526020019060010190808311612201575050505050905090565b600060998061224d6145af565b91505090565b6000610e846122606131a9565b8461126a85604051606081016040526025808252614b0f6020830139606660006122886131a9565b6001600160a01b03166001600160a01b031681526020019081526020016000206001600160a01b038a166000908152602091909152604090206112636145af565b600060976122d56145af565b906101000a90046001600160a01b03166001600160a01b03165a6122f761460a565b6001600160a01b0316146123495760405162461bcd60e51b815260206004820152600c60248201526b37b7363c9036b0b730b3b2b960a11b604482015260640160405180910390612346614544565b50505b80609b6001816123576145af565b816001600160a01b0302191690836001600160a01b0316021790612379614893565b50505050565b6000610e8461238c6131a9565b848461345d565b600080808060d26123a26145af565b906101000a90046001600160a01b031690506060816001600160a01b031663e5406dbf6040518163ffffffff1660e01b815260040160006040518083038186806123ea614650565b1580156123ff576000806123fc614544565b50505b505a61240961469c565b5050505050158015612428573d6000803e3d6000612425614544565b50505b505050506040513d6000823e601f3d908101601f19168201604052602081101561245a57600080612457614544565b50505b8101908080516040519392919084600160201b8211156124825760008061247f614544565b50505b9083019060208201858111156124a05760008061249d614544565b50505b82518660208202830111600160201b821117156124c5576000806124c2614544565b50505b825250602001908051906020019060200280838360005b838110156124f45780820151838201526020016124dc565b50505050905001604052505050905060008151905060005b818110156125e4576125da846001600160a01b0316630499123f85848151811061253257fe5b60200260200101516040516001600160e01b031960e084901b1681526004810191909152602401602060405180830381868061256c614650565b1580156125815760008061257e614544565b50505b505a61258b61469c565b50505050501580156125aa573d6000803e3d60006125a7614544565b50505b505050506040513d60208110156125c9576000806125c6614544565b50505b810190808051899350915050613c8e565b945060010161250c565b5092935050505090565b6000808060cf6125fc6145af565b906101000a90046001600160a01b03166001600160a01b031663eda96ea96040518163ffffffff1660e01b8152600401602060405180830381868061263f614650565b15801561265457600080612651614544565b50505b505a61265e61469c565b505050505015801561267d573d6000803e3d600061267a614544565b50505b505050506040513d602081101561269c57600080612699614544565b50505b8101908080516001600160a01b038716600090815260d160205290945092506126cf915083905060408320611ab06145af565b90505a6126da61484d565b8110156126ec57600092505050611f0e565b6126ff5a6126f861484d565b8290613e07565b949350505050565b6000612711611c87565b6001600160a01b03165a61272361460a565b6001600160a01b0316148061274b5750600060cd61273f6145af565b906101000a900460ff16155b8061276257506127625a61275d61460a565b612b95565b6127b25760405162461bcd60e51b81526020600482015260146024820152731bdb9b1e481b595b58995c9cc8185b1b1bddd95960621b6044820152606401604051809103906127af614544565b50505b5a6127bb61484d565b60d160005a6127c861460a565b6001600160a01b03166001600160a01b0316815260200190815260200160002081906127f2614893565b5050506127fd61369b565b6000612807612393565b90506000612813610f4e565b905060008060d26128226145af565b906101000a90046001600160a01b03169050806001600160a01b0316633ded6530631cd554d160e21b6040516001600160e01b031960e084901b1681526004810191909152602401602060405180830381868061287d614650565b1580156128925760008061288f614544565b50505b505a61289c61469c565b50505050501580156128bb573d6000803e3d60006128b8614544565b50505b505050506040513d60208110156128da576000806128d7614544565b50505b8101908080516001600160a01b031692506323b872dd9150505a6128fc61460a565b5a63996d79a5598160e01b8152602081600483336000905af158601d01573d60011458600c01573d6000803e3d621234565260ea61109c528051925060005b60408110156129525760008282015260200161293b565b505050886040516001600160e01b031960e086901b1681526001600160a01b0393841660048201529190921660248201526044810191909152606401602060405180830381600087806129a3614650565b1580156129b8576000806129b5614544565b50505b505a6129c2614787565b5050505050501580156129e2573d6000803e3d60006129df614544565b50505b505050506040513d6020811015612a01576000806129fe614544565b50505b8101908080519250612a5d9150505760405162461bcd60e51b81526020600482015260156024820152741d1bdad95b881d1c985b9cd9995c8819985a5b1959605a1b604482015260640160405180910390612a5a614544565b50505b60008215612a7a57612a738461137c8886613acc565b9050612a7d565b50845b612a8f5a612a8961460a565b82613e47565b7f87fdcba84e083ebb8fd661bbafee3eb38764ec6f0cbeea8ed52deffa67bd45dc5a63996d79a5598160e01b8152602081600483336000905af158601d01573d60011458600c01573d6000803e3d621234565260ea61109c528051925060005b6040811015612b0657600082820152602001612aef565b5050505a612b1261460a565b8884612b205a6112a161460a565b612b2a8a8d613c8e565b612b348a89613c8e565b5a612b3d61484d565b6040516001600160a01b0398891681529690971660208701526040808701959095526060860193909352608085019190915260a084015260c083015260e082019290925261010001905180910390a195945050505050565b6001600160a01b0381166000908152609a60205260408120612bb56145af565b151592915050565b600060cf610da06145af565b60006097612bd56145af565b906101000a90046001600160a01b03166001600160a01b03165a612bf761460a565b6001600160a01b031614612c495760405162461bcd60e51b815260206004820152600c60248201526b37b7363c9036b0b730b3b2b960a11b604482015260640160405180910390612c46614544565b50505b612c5281612b95565b15612c5c57610f29565b610f2981613d4b565b612c6d61369b565b565b60016000612c7b6145af565b906101000a900460ff1680612c935750612c93613f60565b80612cb05750600080612ca46145af565b906101000a900460ff16155b612cf45760405162461bcd60e51b815260040180806020018281038252602e815260200180614a77602e913960400191505060405180910390612cf1614544565b50505b6000600181612d016145af565b906101000a900460ff161590508015612d67576001600061010081612d246145af565b8160ff02191690831515021790612d39614893565b50505060016000806101000a81612d4e6145af565b8160ff02191690831515021790612d63614893565b5050505b612d718484613fd1565b612d7b8686614105565b8760cf600181612d896145af565b816001600160a01b0302191690836001600160a01b0316021790612dab614893565b505050612db787613ced565b5a612dc061460a565b60cd61010081612dce6145af565b816001600160a01b0302191690836001600160a01b0316021790612df0614893565b5050505a612dfc61484d565b8060ce612e07614893565b505050670de0b6b3a764000060d08190612e1f614893565b5050508160d260006101000a81612e346145af565b816001600160a01b0302191690836001600160a01b0316021790612e56614893565b5050508015612e875760008061010081612e6e6145af565b8160ff02191690831515021790612e83614893565b5050505b5050505050505050565b60ce6112916145af565b6001600160a01b03821660009081526066602052604081206001600160a01b038316600090815260209190915260409020612ed46145af565b9392505050565b60008060cf612ee86145af565b906101000a90046001600160a01b03166001600160a01b031663eda96ea96040518163ffffffff1660e01b81526004016020604051808303818680612f2b614650565b158015612f4057600080612f3d614544565b50505b505a612f4a61469c565b5050505050158015612f69573d6000803e3d6000612f66614544565b50505b505050506040513d6020811015612f8857600080612f85614544565b50505b810190808051935050505090565b600080612fa1612393565b90506000612fad610f4e565b90506000808060cf612fbd6145af565b906101000a90046001600160a01b03166001600160a01b031663b7a545265a63996d79a5598160e01b8152602081600483336000905af158601d01573d60011458600c01573d6000803e3d621234565260ea61109c528051925060005b60408110156130315760008282015260200161301a565b5050506040516001600160e01b031960e084901b1681526001600160a01b0390911660048201526024016040805180830381868061306d614650565b1580156130825760008061307f614544565b50505b505a61308c61469c565b50505050501580156130ab573d6000803e3d60006130a8614544565b50505b505050506040513d60408110156130ca576000806130c7614544565b50505b81019080805192919060200180519395509293506130fa925086915085905060d06130f36145af565b858561414c565b94505050505090565b60606098806131106145af565b600181600116156101000203166002900480601f01602080910402602001604051908101604052818152919060208301828061314a6145af565b60018160011615610100020316600290048015610e665780601f10613176576101008083610e266145af565b820191906000526020600020905b8161318d6145af565b8152906001019060200180831161318457509395945050505050565b60005a610f5a61460a565b6001600160a01b0383166132025760405162461bcd60e51b8152600401808060200182810382526024815260200180614aeb60249139604001915050604051809103906131ff614544565b50505b6001600160a01b0382166132505760405162461bcd60e51b81526004018080602001828103825260228152602001806149e6602291396040019150506040518091039061324d614544565b50505b6001600160a01b038316600090815260666020528190604090206001600160a01b038416600090815260209190915260409020819061328d614893565b505050816001600160a01b0316836001600160a01b03167f8c5be1e5ebec7d5bd14f71427d1e84f3dd0314c0f7b2291e5b200ac8c7c3b9258360405190815260200160405180910390a3505050565b60006099806132e96145af565b6001600160a01b0384166000908152609a60205290925090506133196001604083206133136145af565b90613e07565b90506000609961332a846001613e07565b816133336145af565b811061333b57fe5b906000526020600020016000906133506145af565b906101000a90046001600160a01b03169050806099838161336f6145af565b811061337757fe5b9060005260206000200160018161338c6145af565b816001600160a01b0302191690836001600160a01b03160217906133ae614893565b506133be91508390506001613c8e565b6001600160a01b0382166000908152609a6020526040902081906133e0614893565b5050506001600160a01b0384166000908152609a602052604081208190613405614893565b5050506099806134136145af565b8061341a57fe5b600190038181906000526020600020016001816134356145af565b906001600160a01b030219169061344a614893565b505090613455614893565b505050505050565b6001600160a01b0383166134ab5760405162461bcd60e51b8152600401808060200182810382526025815260200180614ac660259139604001915050604051809103906134a8614544565b50505b6001600160a01b0382166134f95760405162461bcd60e51b81526004018080602001828103825260238152602001806149a160239139604001915050604051809103906134f6614544565b50505b6135048383836141bd565b61353f81604051606081016040526026808252614a0860208301396001600160a01b03861660009081526065602052604090206112636145af565b6001600160a01b03841660009081526065602052604090208190613561614893565b5050506001600160a01b0382166000908152606560205261358a90829060409020611ab06145af565b6001600160a01b038316600090815260656020526040902081906135ac614893565b505050816001600160a01b0316836001600160a01b03167fddf252ad1be2c89b69c2b068fc378daa952ba7f163c4a11628f55a4df523b3ef8360405190815260200160405180910390a3505050565b600081848411156136935760405162461bcd60e51b81526004018080602001828103825283818151815260200191508051906020019080838360005b8381101561364f578082015183820152602001613637565b50505050905090810190601f16801561367c5780820380516001836020036101000a031916815260200191505b509250505060405180910390613690614544565b50505b505050900390565b60006136a5612393565b905060006136b1610f4e565b90506000808060cf6136c16145af565b906101000a90046001600160a01b03166001600160a01b031663b7a545265a63996d79a5598160e01b8152602081600483336000905af158601d01573d60011458600c01573d6000803e3d621234565260ea61109c528051925060005b60408110156137355760008282015260200161371e565b5050506040516001600160e01b031960e084901b1681526001600160a01b03909116600482015260240160408051808303818680613771614650565b15801561378657600080613783614544565b50505b505a61379061469c565b50505050501580156137af573d6000803e3d60006137ac614544565b50505b505050506040513d60408110156137ce576000806137cb614544565b50505b81019080805192919060200180519395509293506000925061380091508690508560d06137f96145af565b868661414c565b90506064811015613815575050505050612c6d565b60008060cf6138226145af565b906101000a90046001600160a01b03166001600160a01b0316631d68702d6040518163ffffffff1660e01b81526004016020604051808303818680613865614650565b15801561387a57600080613877614544565b50505b505a61388461469c565b50505050501580156138a3573d6000803e3d60006138a0614544565b50505b505050506040513d60208110156138c2576000806138bf614544565b50505b81019080805193506000925082915081905060cf6138de6145af565b906101000a90046001600160a01b03166001600160a01b0316639cada6e46040518163ffffffff1660e01b815260040160408051808303818680613920614650565b15801561393557600080613932614544565b50505b505a61393f61469c565b505050505015801561395e573d6000803e3d600061395b614544565b50505b505050506040513d604081101561397d5760008061397a614544565b50505b8101908080519291906020018051939550929350600092506139a7915083905061137c8786613acc565b905060006139b58683613e07565b905081156139c7576139c78583613e47565b80156139d8576139d8612a89611c87565b6139e28a8a613dd7565b8060d06139ed614893565b5050507f755a8059d66d8d243bc9f6913f429a811f154599d0538bb0b6a2ac23f23d2ccd5a63996d79a5598160e01b8152602081600483336000905af158601d01573d60011458600c01573d6000803e3d621234565260ea61109c528051925060005b6040811015613a6757600082820152602001613a50565b505050613a72611c87565b88858560d0613a7f6145af565b6040516001600160a01b0396871681529490951660208501526040808501939093526060840191909152608083015260a082019290925260c001905180910390a150505050505050505050565b600082613adb57506000610e88565b82820282848281613ae857fe5b0414612ed45760405162461bcd60e51b8152600401808060200182810382526021815260200180614a2e6021913960400191505060405180910390613b2b614544565b50509392505050565b6000612ed4838360405160408082019052601a81527f536166654d6174683a206469766973696f6e206279207a65726f000000000000602082015261421a565b6001600160a01b038216613bc25760405162461bcd60e51b8152600401808060200182810382526021815260200180614aa56021913960400191505060405180910390613bbf614544565b50505b613bce826000836141bd565b613c09816040516060810160405260228082526149c460208301396001600160a01b03851660009081526065602052604090206112636145af565b6001600160a01b03831660009081526065602052604090208190613c2b614893565b505050613c3c8160676133136145af565b806067613c47614893565b5060009150506001600160a01b0383167fddf252ad1be2c89b69c2b068fc378daa952ba7f163c4a11628f55a4df523b3ef8360405190815260200160405180910390a35050565b600082820183811015612ed45760405162461bcd60e51b815260206004820152601b60248201527f536166654d6174683a206164646974696f6e206f766572666c6f770000000000604482015260640160405180910390613b2b614544565b8060cd600181613cfb6145af565b8160ff02191690831515021790613d10614893565b5050507f8d75e9ede4188432084b863d70b3416010c97547dfeb4fc17734d2e997ee0f3981604051901515815260200160405180910390a150565b80609980600181613d5a6145af565b018082613d65614893565b505060009283526000190191602091502001600181613d826145af565b816001600160a01b0302191690836001600160a01b0316021790613da4614893565b505050609980613db26145af565b6001600160a01b0383166000908152609a602052909150604090208190612379614893565b6000811580613de4575082155b15613df157506000610e88565b612ed48261137c85670de0b6b3a7640000613acc565b6000612ed4838360405160408082019052601e81527f536166654d6174683a207375627472616374696f6e206f766572666c6f77000060208201526135fb565b6001600160a01b038216613eaa5760405162461bcd60e51b815260206004820152601f60248201527f45524332303a206d696e7420746f20746865207a65726f206164647265737300604482015260640160405180910390613ea7614544565b50505b613eb6600083836141bd565b613ec4816067611ab06145af565b806067613ecf614893565b5050506001600160a01b03821660009081526065602052613ef890829060409020611ab06145af565b6001600160a01b03831660009081526065602052604090208190613f1a614893565b5050506001600160a01b03821660007fddf252ad1be2c89b69c2b068fc378daa952ba7f163c4a11628f55a4df523b3ef8360405190815260200160405180910390a35050565b6000805a63996d79a5598160e01b8152602081600483336000905af158601d01573d60011458600c01573d6000803e3d621234565260ea61109c528051925060005b6040811015613fb957600082820152602001613fa2565b5050509050600081613fc9614650565b159250505090565b60016000613fdd6145af565b906101000a900460ff1680613ff55750613ff5613f60565b8061401257506000806140066145af565b906101000a900460ff16155b6140565760405162461bcd60e51b815260040180806020018281038252602e815260200180614a77602e913960400191505060405180910390614053614544565b50505b60006001816140636145af565b906101000a900460ff1615905080156140c95760016000610100816140866145af565b8160ff0219169083151502179061409b614893565b50505060016000806101000a816140b06145af565b8160ff021916908315150217906140c5614893565b5050505b6140d16142c5565b6140db83836143e7565b80156120d857600080610100816140f06145af565b8160ff02191690831515021790613455614893565b8160976001816141136145af565b816001600160a01b0302191690836001600160a01b0316021790614135614893565b5050508060989080516120d89291602001906148e1565b6000841580614159575085155b15614166575060006141b4565b600061417e8661137c89670de0b6b3a7640000613acc565b90508481116141915760009150506141b4565b60006141af8261137c8681896141a98d81878f613e07565b90613acc565b925050505b95945050505050565b6141c88383836120d8565b6141d1836125ee565b156120d85760405162461bcd60e51b815260206004820152600f60248201526e636f6f6c646f776e2061637469766560881b604482015260640160405180910390611a4a614544565b600081836142af5760405162461bcd60e51b81526004018080602001828103825283818151815260200191508051906020019080838360005b8381101561426b578082015183820152602001614253565b50505050905090810190601f1680156142985780820380516001836020036101000a031916815260200191505b5092505050604051809103906142ac614544565b50505b5060008385816142bb57fe5b0495945050505050565b600160006142d16145af565b906101000a900460ff16806142e957506142e9613f60565b8061430657506000806142fa6145af565b906101000a900460ff16155b61434a5760405162461bcd60e51b815260040180806020018281038252602e815260200180614a77602e913960400191505060405180910390614347614544565b50505b60006001816143576145af565b906101000a900460ff1615905080156143bd57600160006101008161437a6145af565b8160ff0219169083151502179061438f614893565b50505060016000806101000a816143a46145af565b8160ff021916908315150217906143b9614893565b5050505b8015610f2957600080610100816143d26145af565b8160ff02191690831515021790612379614893565b600160006143f36145af565b906101000a900460ff168061440b575061440b613f60565b80614428575060008061441c6145af565b906101000a900460ff16155b61446c5760405162461bcd60e51b815260040180806020018281038252602e815260200180614a77602e913960400191505060405180910390614469614544565b50505b60006001816144796145af565b906101000a900460ff1615905080156144df57600160006101008161449c6145af565b8160ff021916908315150217906144b1614893565b50505060016000806101000a816144c66145af565b8160ff021916908315150217906144db614893565b5050505b60688380516144f29291602001906148e1565b5060698280516145069291602001906148e1565b506012606a6001816145166145af565b8160ff021916908360ff1602179061452c614893565b50505080156120d857600080610100816140f06145af565b632a2a7adb598160e01b8152600481016020815285602082015260005b8681101561457c578086015182820160400152602001614561565b506020828760640184336000905af158601d01573d60011458600c01573d6000803e3d621234565260ea61109c52505050565b6303daa959598160e01b8152836004820152602081602483336000905af158601d01573d60011458600c01573d6000803e3d621234565260ea61109c528051935060005b60408110156120d8576000828201526020016145f3565b6373509064598160e01b8152602081600483336000905af158601d01573d60011458600c01573d6000803e3d621234565260ea61109c52805160008252935060206145f3565b638435035b598160e01b8152836004820152602081602483336000905af158601d01573d60011458600c01573d6000803e3d621234565260ea61109c52805160008252935060206145f3565b638540661f598160e01b81526146cd565b8080831115610e88575090919050565b8080831015610e88575090919050565b836004820152846024820152606060448201528660648201526084810160005b888110156147055780880151828201526020016146ed565b506060828960a40184336000905af158601d01573d60011458600c01573d6000803e3d621234565260ea61109c52815160408301513d6000853e8b8b82606087013350600060045af1505961475a8d3d6146bd565b8c0161476681876146ad565b5b8281101561477b5760008152602001614767565b50929c50505050505050565b6385979f76598160e01b8152836004820152846024820152606060448201528760648201526084810160005b898110156147cb5780890151828201526020016147b3565b506060828a60a40184336000905af158601d01573d60011458600c01573d6000803e3d621234565260ea61109c52815160408301513d6000853e8c8c82606087013350600060045af150596148208e3d6146bd565b8d0161482c81876146ad565b5b82811015614841576000815260200161482d565b50929d50505050505050565b63bdbf8c36598160e01b8152602081600483336000905af158601d01573d60011458600c01573d6000803e3d621234565260ea61109c52805160008252935060206145f3565b6322bd64c0598160e01b8152836004820152846024820152600081604483336000905af158601d01573d60011458600c01573d6000803e3d621234565260ea61109c526000815260206145f3565b82806148eb6145af565b600181600116156101000203166002900490600052602060002090601f016020900481019282601f1061493257805160ff1916838001178561492b614893565b5050614971565b82800160010185614941614893565b50508215614971579182015b8281111561497157825182614960614893565b50509160200191906001019061494d565b5061497d929150614981565b5090565b8082111561497d5760008082614995614893565b50505060010161498156fe45524332303a207472616e7366657220746f20746865207a65726f206164647265737345524332303a206275726e20616d6f756e7420657863656564732062616c616e636545524332303a20617070726f766520746f20746865207a65726f206164647265737345524332303a207472616e7366657220616d6f756e7420657863656564732062616c616e6365536166654d6174683a206d756c7469706c69636174696f6e206f766572666c6f7745524332303a207472616e7366657220616d6f756e74206578636565647320616c6c6f77616e6365436f6e747261637420696e7374616e63652068617320616c7265616479206265656e20696e697469616c697a656445524332303a206275726e2066726f6d20746865207a65726f206164647265737345524332303a207472616e736665722066726f6d20746865207a65726f206164647265737345524332303a20617070726f76652066726f6d20746865207a65726f206164647265737345524332303a2064656372656173656420616c6c6f77616e63652062656c6f77207a65726f696e73756666696369656e742062616c616e6365206f662066756e6420746f6b656e73",
  "linkReferences": {},
  "deployedLinkReferences": {}
}