{
  "_format": "hh-sol-artifact-1",
  "contractName": "PoolLogic-ovm",
  "sourceName": "contracts/PoolLogic.sol",
  "abi": [
    {
      "anonymous": false,
      "inputs": [
        {
          "indexed": true,
          "internalType": "address",
          "name": "owner",
          "type": "address"
        },
        {
          "indexed": true,
          "internalType": "address",
          "name": "spender",
          "type": "address"
        },
        {
          "indexed": false,
          "internalType": "uint256",
          "name": "value",
          "type": "uint256"
        }
      ],
      "name": "Approval",
      "type": "event"
    },
    {
      "anonymous": false,
      "inputs": [
        {
          "indexed": false,
          "internalType": "address",
          "name": "fundAddress",
          "type": "address"
        },
        {
          "indexed": false,
          "internalType": "address",
          "name": "investor",
          "type": "address"
        },
        {
          "indexed": false,
          "internalType": "uint256",
          "name": "valueDeposited",
          "type": "uint256"
        },
        {
          "indexed": false,
          "internalType": "uint256",
          "name": "fundTokensReceived",
          "type": "uint256"
        },
        {
          "indexed": false,
          "internalType": "uint256",
          "name": "totalInvestorFundTokens",
          "type": "uint256"
        },
        {
          "indexed": false,
          "internalType": "uint256",
          "name": "fundValue",
          "type": "uint256"
        },
        {
          "indexed": false,
          "internalType": "uint256",
          "name": "totalSupply",
          "type": "uint256"
        },
        {
          "indexed": false,
          "internalType": "uint256",
          "name": "time",
          "type": "uint256"
        }
      ],
      "name": "Deposit",
      "type": "event"
    },
    {
      "anonymous": false,
      "inputs": [
        {
          "indexed": false,
          "internalType": "address",
          "name": "pool",
          "type": "address"
        },
        {
          "indexed": false,
          "internalType": "address",
          "name": "manager",
          "type": "address"
        },
        {
          "indexed": false,
          "internalType": "uint256",
          "name": "available",
          "type": "uint256"
        },
        {
          "indexed": false,
          "internalType": "uint256",
          "name": "daoFee",
          "type": "uint256"
        },
        {
          "indexed": false,
          "internalType": "uint256",
          "name": "managerFee",
          "type": "uint256"
        },
        {
          "indexed": false,
          "internalType": "uint256",
          "name": "tokenPriceAtLastFeeMint",
          "type": "uint256"
        }
      ],
      "name": "ManagerFeeMinted",
      "type": "event"
    },
    {
      "anonymous": false,
      "inputs": [
        {
          "indexed": false,
          "internalType": "address",
          "name": "poolManagerLogic",
          "type": "address"
        },
        {
          "indexed": false,
          "internalType": "address",
          "name": "from",
          "type": "address"
        }
      ],
      "name": "PoolManagerLogicSet",
      "type": "event"
    },
    {
      "anonymous": false,
      "inputs": [
        {
          "indexed": false,
          "internalType": "bool",
          "name": "isPoolPrivate",
          "type": "bool"
        }
      ],
      "name": "PoolPrivacyUpdated",
      "type": "event"
    },
    {
      "anonymous": false,
      "inputs": [
        {
          "indexed": false,
          "internalType": "address",
          "name": "manager",
          "type": "address"
        },
        {
          "indexed": false,
          "internalType": "uint256",
          "name": "time",
          "type": "uint256"
        }
      ],
      "name": "TransactionExecuted",
      "type": "event"
    },
    {
      "anonymous": false,
      "inputs": [
        {
          "indexed": true,
          "internalType": "address",
          "name": "from",
          "type": "address"
        },
        {
          "indexed": true,
          "internalType": "address",
          "name": "to",
          "type": "address"
        },
        {
          "indexed": false,
          "internalType": "uint256",
          "name": "value",
          "type": "uint256"
        }
      ],
      "name": "Transfer",
      "type": "event"
    },
    {
      "anonymous": false,
      "inputs": [
        {
          "indexed": false,
          "internalType": "address",
          "name": "fundAddress",
          "type": "address"
        },
        {
          "indexed": false,
          "internalType": "address",
          "name": "investor",
          "type": "address"
        },
        {
          "indexed": false,
          "internalType": "uint256",
          "name": "valueWithdrawn",
          "type": "uint256"
        },
        {
          "indexed": false,
          "internalType": "uint256",
          "name": "fundTokensWithdrawn",
          "type": "uint256"
        },
        {
          "indexed": false,
          "internalType": "uint256",
          "name": "totalInvestorFundTokens",
          "type": "uint256"
        },
        {
          "indexed": false,
          "internalType": "uint256",
          "name": "fundValue",
          "type": "uint256"
        },
        {
          "indexed": false,
          "internalType": "uint256",
          "name": "totalSupply",
          "type": "uint256"
        },
        {
          "indexed": false,
          "internalType": "uint256",
          "name": "time",
          "type": "uint256"
        }
      ],
      "name": "Withdrawal",
      "type": "event"
    },
    {
      "inputs": [
        {
          "internalType": "address",
          "name": "owner",
          "type": "address"
        },
        {
          "internalType": "address",
          "name": "spender",
          "type": "address"
        }
      ],
      "name": "allowance",
      "outputs": [
        {
          "internalType": "uint256",
          "name": "",
          "type": "uint256"
        }
      ],
      "stateMutability": "view",
      "type": "function"
    },
    {
      "inputs": [
        {
          "internalType": "address",
          "name": "spender",
          "type": "address"
        },
        {
          "internalType": "uint256",
          "name": "amount",
          "type": "uint256"
        }
      ],
      "name": "approve",
      "outputs": [
        {
          "internalType": "bool",
          "name": "",
          "type": "bool"
        }
      ],
      "stateMutability": "nonpayable",
      "type": "function"
    },
    {
      "inputs": [],
      "name": "availableManagerFee",
      "outputs": [
        {
          "internalType": "uint256",
          "name": "",
          "type": "uint256"
        }
      ],
      "stateMutability": "view",
      "type": "function"
    },
    {
      "inputs": [
        {
          "internalType": "address",
          "name": "account",
          "type": "address"
        }
      ],
      "name": "balanceOf",
      "outputs": [
        {
          "internalType": "uint256",
          "name": "",
          "type": "uint256"
        }
      ],
      "stateMutability": "view",
      "type": "function"
    },
    {
      "inputs": [
        {
          "internalType": "bytes32",
          "name": "data",
          "type": "bytes32"
        }
      ],
      "name": "convert32toAddress",
      "outputs": [
        {
          "internalType": "address",
          "name": "o",
          "type": "address"
        }
      ],
      "stateMutability": "pure",
      "type": "function"
    },
    {
      "inputs": [],
      "name": "creationTime",
      "outputs": [
        {
          "internalType": "uint256",
          "name": "",
          "type": "uint256"
        }
      ],
      "stateMutability": "view",
      "type": "function"
    },
    {
      "inputs": [],
      "name": "creator",
      "outputs": [
        {
          "internalType": "address",
          "name": "",
          "type": "address"
        }
      ],
      "stateMutability": "view",
      "type": "function"
    },
    {
      "inputs": [],
      "name": "decimals",
      "outputs": [
        {
          "internalType": "uint8",
          "name": "",
          "type": "uint8"
        }
      ],
      "stateMutability": "view",
      "type": "function"
    },
    {
      "inputs": [
        {
          "internalType": "address",
          "name": "spender",
          "type": "address"
        },
        {
          "internalType": "uint256",
          "name": "subtractedValue",
          "type": "uint256"
        }
      ],
      "name": "decreaseAllowance",
      "outputs": [
        {
          "internalType": "bool",
          "name": "",
          "type": "bool"
        }
      ],
      "stateMutability": "nonpayable",
      "type": "function"
    },
    {
      "inputs": [
        {
          "internalType": "address",
          "name": "_asset",
          "type": "address"
        },
        {
          "internalType": "uint256",
          "name": "_amount",
          "type": "uint256"
        }
      ],
      "name": "deposit",
      "outputs": [
        {
          "internalType": "uint256",
          "name": "",
          "type": "uint256"
        }
      ],
      "stateMutability": "nonpayable",
      "type": "function"
    },
    {
      "inputs": [
        {
          "internalType": "address",
          "name": "to",
          "type": "address"
        },
        {
          "internalType": "bytes",
          "name": "data",
          "type": "bytes"
        }
      ],
      "name": "execTransaction",
      "outputs": [
        {
          "internalType": "bool",
          "name": "",
          "type": "bool"
        }
      ],
      "stateMutability": "nonpayable",
      "type": "function"
    },
    {
      "inputs": [],
      "name": "factory",
      "outputs": [
        {
          "internalType": "address",
          "name": "",
          "type": "address"
        }
      ],
      "stateMutability": "view",
      "type": "function"
    },
    {
      "inputs": [
        {
          "internalType": "bytes",
          "name": "data",
          "type": "bytes"
        },
        {
          "internalType": "uint8",
          "name": "inputNum",
          "type": "uint8"
        },
        {
          "internalType": "uint8",
          "name": "arrayIndex",
          "type": "uint8"
        }
      ],
      "name": "getArrayIndex",
      "outputs": [
        {
          "internalType": "bytes32",
          "name": "",
          "type": "bytes32"
        }
      ],
      "stateMutability": "pure",
      "type": "function"
    },
    {
      "inputs": [
        {
          "internalType": "bytes",
          "name": "data",
          "type": "bytes"
        },
        {
          "internalType": "uint8",
          "name": "inputNum",
          "type": "uint8"
        }
      ],
      "name": "getArrayLast",
      "outputs": [
        {
          "internalType": "bytes32",
          "name": "",
          "type": "bytes32"
        }
      ],
      "stateMutability": "pure",
      "type": "function"
    },
    {
      "inputs": [
        {
          "internalType": "bytes",
          "name": "data",
          "type": "bytes"
        },
        {
          "internalType": "uint8",
          "name": "inputNum",
          "type": "uint8"
        }
      ],
      "name": "getArrayLength",
      "outputs": [
        {
          "internalType": "uint256",
          "name": "",
          "type": "uint256"
        }
      ],
      "stateMutability": "pure",
      "type": "function"
    },
    {
      "inputs": [],
      "name": "getExitCooldown",
      "outputs": [
        {
          "internalType": "uint256",
          "name": "",
          "type": "uint256"
        }
      ],
      "stateMutability": "view",
      "type": "function"
    },
    {
      "inputs": [
        {
          "internalType": "address",
          "name": "sender",
          "type": "address"
        }
      ],
      "name": "getExitRemainingCooldown",
      "outputs": [
        {
          "internalType": "uint256",
          "name": "",
          "type": "uint256"
        }
      ],
      "stateMutability": "view",
      "type": "function"
    },
    {
      "inputs": [],
      "name": "getFundSummary",
      "outputs": [
        {
          "internalType": "string",
          "name": "",
          "type": "string"
        },
        {
          "internalType": "uint256",
          "name": "",
          "type": "uint256"
        },
        {
          "internalType": "uint256",
          "name": "",
          "type": "uint256"
        },
        {
          "internalType": "address",
          "name": "",
          "type": "address"
        },
        {
          "internalType": "string",
          "name": "",
          "type": "string"
        },
        {
          "internalType": "uint256",
          "name": "",
          "type": "uint256"
        },
        {
          "internalType": "bool",
          "name": "",
          "type": "bool"
        },
        {
          "internalType": "uint256",
          "name": "",
          "type": "uint256"
        },
        {
          "internalType": "uint256",
          "name": "",
          "type": "uint256"
        }
      ],
      "stateMutability": "view",
      "type": "function"
    },
    {
      "inputs": [
        {
          "internalType": "bytes",
          "name": "data",
          "type": "bytes"
        },
        {
          "internalType": "uint8",
          "name": "inputNum",
          "type": "uint8"
        }
      ],
      "name": "getInput",
      "outputs": [
        {
          "internalType": "bytes32",
          "name": "",
          "type": "bytes32"
        }
      ],
      "stateMutability": "pure",
      "type": "function"
    },
    {
      "inputs": [
        {
          "internalType": "bytes",
          "name": "data",
          "type": "bytes"
        }
      ],
      "name": "getMethod",
      "outputs": [
        {
          "internalType": "bytes4",
          "name": "",
          "type": "bytes4"
        }
      ],
      "stateMutability": "pure",
      "type": "function"
    },
    {
      "inputs": [
        {
          "internalType": "address",
          "name": "spender",
          "type": "address"
        },
        {
          "internalType": "uint256",
          "name": "addedValue",
          "type": "uint256"
        }
      ],
      "name": "increaseAllowance",
      "outputs": [
        {
          "internalType": "bool",
          "name": "",
          "type": "bool"
        }
      ],
      "stateMutability": "nonpayable",
      "type": "function"
    },
    {
      "inputs": [
        {
          "internalType": "address",
          "name": "_factory",
          "type": "address"
        },
        {
          "internalType": "bool",
          "name": "_privatePool",
          "type": "bool"
        },
        {
          "internalType": "string",
          "name": "_fundName",
          "type": "string"
        },
        {
          "internalType": "string",
          "name": "_fundSymbol",
          "type": "string"
        },
        {
          "internalType": "address",
          "name": "_poolManagerLogic",
          "type": "address"
        }
      ],
      "name": "initialize",
      "outputs": [],
      "stateMutability": "nonpayable",
      "type": "function"
    },
    {
      "inputs": [
        {
          "internalType": "address",
          "name": "member",
          "type": "address"
        }
      ],
      "name": "isMemberAllowed",
      "outputs": [
        {
          "internalType": "bool",
          "name": "",
          "type": "bool"
        }
      ],
      "stateMutability": "view",
      "type": "function"
    },
    {
      "inputs": [
        {
          "internalType": "address",
          "name": "",
          "type": "address"
        }
      ],
      "name": "lastDeposit",
      "outputs": [
        {
          "internalType": "uint256",
          "name": "",
          "type": "uint256"
        }
      ],
      "stateMutability": "view",
      "type": "function"
    },
    {
      "inputs": [],
      "name": "managerName",
      "outputs": [
        {
          "internalType": "string",
          "name": "",
          "type": "string"
        }
      ],
      "stateMutability": "view",
      "type": "function"
    },
    {
      "inputs": [],
      "name": "mintManagerFee",
      "outputs": [],
      "stateMutability": "nonpayable",
      "type": "function"
    },
    {
      "inputs": [],
      "name": "name",
      "outputs": [
        {
          "internalType": "string",
          "name": "",
          "type": "string"
        }
      ],
      "stateMutability": "view",
      "type": "function"
    },
    {
      "inputs": [],
      "name": "poolManagerLogic",
      "outputs": [
        {
          "internalType": "address",
          "name": "",
          "type": "address"
        }
      ],
      "stateMutability": "view",
      "type": "function"
    },
    {
      "inputs": [],
      "name": "privatePool",
      "outputs": [
        {
          "internalType": "bool",
          "name": "",
          "type": "bool"
        }
      ],
      "stateMutability": "view",
      "type": "function"
    },
    {
      "inputs": [
        {
          "internalType": "bytes",
          "name": "data",
          "type": "bytes"
        },
        {
          "internalType": "uint256",
          "name": "offset",
          "type": "uint256"
        },
        {
          "internalType": "uint256",
          "name": "length",
          "type": "uint256"
        }
      ],
      "name": "read32",
      "outputs": [
        {
          "internalType": "bytes32",
          "name": "o",
          "type": "bytes32"
        }
      ],
      "stateMutability": "pure",
      "type": "function"
    },
    {
      "inputs": [
        {
          "internalType": "bytes",
          "name": "data",
          "type": "bytes"
        },
        {
          "internalType": "uint256",
          "name": "offset",
          "type": "uint256"
        },
        {
          "internalType": "uint256",
          "name": "length",
          "type": "uint256"
        }
      ],
      "name": "read4left",
      "outputs": [
        {
          "internalType": "bytes4",
          "name": "o",
          "type": "bytes4"
        }
      ],
      "stateMutability": "pure",
      "type": "function"
    },
    {
      "inputs": [
        {
          "internalType": "address",
          "name": "_poolManagerLogic",
          "type": "address"
        }
      ],
      "name": "setPoolManagerLogic",
      "outputs": [
        {
          "internalType": "bool",
          "name": "",
          "type": "bool"
        }
      ],
      "stateMutability": "nonpayable",
      "type": "function"
    },
    {
      "inputs": [
        {
          "internalType": "bool",
          "name": "_privatePool",
          "type": "bool"
        }
      ],
      "name": "setPoolPrivate",
      "outputs": [],
      "stateMutability": "nonpayable",
      "type": "function"
    },
    {
      "inputs": [],
      "name": "symbol",
      "outputs": [
        {
          "internalType": "string",
          "name": "",
          "type": "string"
        }
      ],
      "stateMutability": "view",
      "type": "function"
    },
    {
      "inputs": [],
      "name": "tokenPrice",
      "outputs": [
        {
          "internalType": "uint256",
          "name": "",
          "type": "uint256"
        }
      ],
      "stateMutability": "view",
      "type": "function"
    },
    {
      "inputs": [],
      "name": "tokenPriceAtLastFeeMint",
      "outputs": [
        {
          "internalType": "uint256",
          "name": "",
          "type": "uint256"
        }
      ],
      "stateMutability": "view",
      "type": "function"
    },
    {
      "inputs": [],
      "name": "totalFundValue",
      "outputs": [
        {
          "internalType": "uint256",
          "name": "",
          "type": "uint256"
        }
      ],
      "stateMutability": "view",
      "type": "function"
    },
    {
      "inputs": [],
      "name": "totalSupply",
      "outputs": [
        {
          "internalType": "uint256",
          "name": "",
          "type": "uint256"
        }
      ],
      "stateMutability": "view",
      "type": "function"
    },
    {
      "inputs": [
        {
          "internalType": "address",
          "name": "recipient",
          "type": "address"
        },
        {
          "internalType": "uint256",
          "name": "amount",
          "type": "uint256"
        }
      ],
      "name": "transfer",
      "outputs": [
        {
          "internalType": "bool",
          "name": "",
          "type": "bool"
        }
      ],
      "stateMutability": "nonpayable",
      "type": "function"
    },
    {
      "inputs": [
        {
          "internalType": "address",
          "name": "sender",
          "type": "address"
        },
        {
          "internalType": "address",
          "name": "recipient",
          "type": "address"
        },
        {
          "internalType": "uint256",
          "name": "amount",
          "type": "uint256"
        }
      ],
      "name": "transferFrom",
      "outputs": [
        {
          "internalType": "bool",
          "name": "",
          "type": "bool"
        }
      ],
      "stateMutability": "nonpayable",
      "type": "function"
    },
    {
      "inputs": [
        {
          "internalType": "uint256",
          "name": "_fundTokenAmount",
          "type": "uint256"
        }
      ],
      "name": "withdraw",
      "outputs": [],
      "stateMutability": "nonpayable",
      "type": "function"
    }
  ],
  "bytecode": "0x60806040523480156200001c576000806200001962000023565b50505b5062000090565b632a2a7adb598160e01b8152600481016020815285602082015260005b868110156200005d57808601518282016040015260200162000040565b506020828760640184336000905af158600e01573d6000803e3d6000fd5b3d6001141558600a015760016000f35b505050565b61562680620000a06000396000f3fe60806040523480156100195760008061001661500c565b50505b506004361061025c5760003560e01c806370a082311161014f578063ad60ffcc116100cc578063cc3c6df611610090578063cc3c6df614610eb1578063d8270dce14610eb9578063db896b5714610ec1578063dd62ed3e14610f8d578063edbf6f5014610fc4578063fed4416a14610fcc5761025c565b8063ad60ffcc14610d7c578063b8ea2b6e14610d84578063bbbf725b14610db3578063c3c6279f14610de2578063c45a015514610ea95761025c565b806382f86acc1161011357806382f86acc14610b7257806395d89b4114610c3e578063998546e314610c46578063a457c2d714610d12578063a9059cbb14610d475761025c565b806370a0823114610a2d578063750226de14610a5c5780637714f39d14610a8b5780637ae7cfb514610a935780637ff9b59614610b6a5761025c565b806329d16ee8116101dd57806341dc16c3116101a157806341dc16c3146108285780634501b088146108ff57806347e7ef2414610907578063568b5a2f1461093c57806359b5e75e14610a255761025c565b806329d16ee8146107585780632e1a7d4d14610787578063313ce567146107ad57806339509351146107cb5780633babaad5146108005761025c565b806318160ddd1161022457806318160ddd146105be5780631c5918d2146105c65780631e50a4a6146106eb5780631eba3077146106f357806323b872dd146107195761025c565b806302d05d3f1461026a57806306fdde031461028e578063095ea7b31461030d57806309ff5c7d146103565780630ccb30c714610434575b60008061026761500c565b50505b610272610fd4565b6040516001600160a01b03909116815260200160405180910390f35b610296610ff3565b60405160208082528190810183818151815260200191508051906020019080838360005b838110156102d25780820151838201526020016102ba565b50505050905090810190601f1680156102ff5780820380516001836020036101000a031916815260200191505b509250505060405180910390f35b6103426004803603604081101561032c5760008061032961500c565b50505b506001600160a01b0381351690602001356110b0565b604051901515815260200160405180910390f35b610422600480360360408110156103755760008061037261500c565b50505b810190602081018135600160201b8111156103985760008061039561500c565b50505b8201836020820111156103b3576000806103b061500c565b50505b803590602001918460018302840111600160201b831117156103dd576000806103da61500c565b50505b91908080601f01602080910402602001604051908101604052818152929190602084018383808284376000920191909152509295505050903560ff1691506110ce9050565b60405190815260200160405180910390f35b6105bc600480360360a08110156104535760008061045061500c565b50505b6001600160a01b03823516916020810135151591810190606081016040820135600160201b81111561048d5760008061048a61500c565b50505b8201836020820111156104a8576000806104a561500c565b50505b803590602001918460018302840111600160201b831117156104d2576000806104cf61500c565b50505b91908080601f01602080910402602001604051908101604052818152929190602084018383808284376000920191909152509295949360208101935035915050600160201b81111561052c5760008061052961500c565b50505b8201836020820111156105475760008061054461500c565b50505b803590602001918460018302840111600160201b831117156105715760008061056e61500c565b50505b91908080601f0160208091040260200160405190810160405281815292919060208401838380828437600092019190915250929550505090356001600160a01b031691506111679050565b005b610422611385565b6105ce611396565b60405180806020018a8152602001898152602001886001600160a01b0316815260200180602001878152602001861515815260200185815260200184815260200183810383528c818151815260200191508051906020019080838360005b8381101561064457808201518382015260200161062c565b50505050905090810190601f1680156106715780820380516001836020036101000a031916815260200191505b50838103825288818151815260200191508051906020019080838360005b838110156106a757808201518382015260200161068f565b50505050905090810190601f1680156106d45780820380516001836020036101000a031916815260200191505b509b50505050505050505050505060405180910390f35b61027261153d565b610272600480360360208110156107125760008061070f61500c565b50505b5035611549565b610342600480360360608110156107385760008061073561500c565b50505b506001600160a01b03813581169160208101359091169060400135611550565b610422600480360360208110156107775760008061077461500c565b50505b50356001600160a01b03166115e4565b6105bc600480360360208110156107a6576000806107a361500c565b50505b50356115ff565b6107b5611d84565b60405160ff909116815260200160405180910390f35b610342600480360360408110156107ea576000806107e761500c565b50505b506001600160a01b038135169060200135611da0565b6105bc6004803603602081101561081f5760008061081c61500c565b50505b50351515611e05565b610422600480360360608110156108475760008061084461500c565b50505b810190602081018135600160201b81111561086a5760008061086761500c565b50505b8201836020820111156108855760008061088261500c565b50505b803590602001918460018302840111600160201b831117156108af576000806108ac61500c565b50505b91908080601f01602080910402602001604051908101604052818152929190602084018383808284376000920191909152509295505060ff8335811694506020909301359092169150611eec9050565b610422611fe4565b610422600480360360408110156109265760008061092361500c565b50505b506001600160a01b03813516906020013561209f565b610a086004803603606081101561095b5760008061095861500c565b50505b810190602081018135600160201b81111561097e5760008061097b61500c565b50505b8201836020820111156109995760008061099661500c565b50505b803590602001918460018302840111600160201b831117156109c3576000806109c061500c565b50505b91908080601f01602080910402602001604051908101604052818152929190602084018383808284376000920191909152509295505082359350505060200135612757565b6040516001600160e01b0319909116815260200160405180910390f35b6103426127e0565b61042260048036036020811015610a4c57600080610a4961500c565b50505b50356001600160a01b03166127f9565b61034260048036036020811015610a7b57600080610a7861500c565b50505b50356001600160a01b0316612819565b6104226129d3565b61034260048036036040811015610ab257600080610aaf61500c565b50505b6001600160a01b038235169190810190604081016020820135600160201b811115610ae557600080610ae261500c565b50505b820183602082011115610b0057600080610afd61500c565b50505b803590602001918460018302840111600160201b83111715610b2a57600080610b2761500c565b50505b91908080601f01602080910402602001604051908101604052818152929190602084018383808284376000920191909152509295506129dd945050505050565b6104226131e5565b61042260048036036040811015610b9157600080610b8e61500c565b50505b810190602081018135600160201b811115610bb457600080610bb161500c565b50505b820183602082011115610bcf57600080610bcc61500c565b50505b803590602001918460018302840111600160201b83111715610bf957600080610bf661500c565b50505b91908080601f01602080910402602001604051908101604052818152929190602084018383808284376000920191909152509295505050903560ff16915061320f9050565b61029661322d565b61042260048036036040811015610c6557600080610c6261500c565b50505b810190602081018135600160201b811115610c8857600080610c8561500c565b50505b820183602082011115610ca357600080610ca061500c565b50505b803590602001918460018302840111600160201b83111715610ccd57600080610cca61500c565b50505b91908080601f01602080910402602001604051908101604052818152929190602084018383808284376000920191909152509295505050903560ff1691506132d39050565b61034260048036036040811015610d3157600080610d2e61500c565b50505b506001600160a01b038135169060200135613304565b61034260048036036040811015610d6657600080610d6361500c565b50505b506001600160a01b03813516906020013561337a565b61042261338e565b61042260048036036020811015610da357600080610da061500c565b50505b50356001600160a01b03166135f1565b61034260048036036020811015610dd257600080610dcf61500c565b50505b50356001600160a01b0316613653565b610a0860048036036020811015610e0157600080610dfe61500c565b50505b810190602081018135600160201b811115610e2457600080610e2161500c565b50505b820183602082011115610e3f57600080610e3c61500c565b50505b803590602001918460018302840111600160201b83111715610e6957600080610e6661500c565b50505b91908080601f0160208091040260200160405190810160405281815292919060208401838380828437600092019190915250929550613725945050505050565b610272613734565b6105bc613740565b61042261384e565b61042260048036036060811015610ee057600080610edd61500c565b50505b810190602081018135600160201b811115610f0357600080610f0061500c565b50505b820183602082011115610f1e57600080610f1b61500c565b50505b803590602001918460018302840111600160201b83111715610f4857600080610f4561500c565b50505b91908080601f01602080910402602001604051908101604052818152929190602084018383808284376000920191909152509295505082359350505060200135613858565b61042260048036036040811015610fac57600080610fa961500c565b50505b506001600160a01b03813581169160200135166138dc565b610422613915565b610296613a82565b600160c9610fe0615077565b906101000a90046001600160a01b031681565b6060606880611000615077565b600181600116156101000203166002900480601f01602080910402602001604051908101604052818152919060208301828061103a615077565b600181600116156101000203166002900480156110a65780601f10611074576101008083611066615077565b0402835291602001916110a6565b820191906000526020600020905b8161108b615077565b8152906001019060200180831161108257829003601f168201915b5050505050905090565b60006110c46110bd613c10565b8484613c1b565b5060015b92915050565b6000806110e6848460200260040160ff166020613858565b905060006110f985600484016020613858565b90508061114a5760405162461bcd60e51b8152602060048201526012602482015271696e707574206973206e6f7420617272617960701b60448201526064016040518091039061114761500c565b50505b61115e856020808402850160040190613858565b95945050505050565b60016000611173615077565b906101000a900460ff168061118b575061118b613d43565b806111a8575060008061119c615077565b906101000a900460ff16155b6111ec5760405162461bcd60e51b815260040180806020018281038252602e815260200180615569602e9139604001915050604051809103906111e961500c565b50505b60006001816111f9615077565b906101000a900460ff16159050801561125f57600160006101008161121c615077565b8160ff021916908315150217906112316150d2565b50505060016000806101000a81611246615077565b8160ff0219169083151502179061125b6150d2565b5050505b6112698484613db4565b611271613eed565b8560cb60018161127f615077565b816001600160a01b0302191690836001600160a01b03160217906112a16150d2565b5050506112ad85614002565b5a6112b6615120565b60c9610100816112c4615077565b816001600160a01b0302191690836001600160a01b03160217906112e66150d2565b5050505a6112f2615166565b8060ca6112fd6150d2565b505050670de0b6b3a764000060cc81906113156150d2565b5050508160ce60006101000a8161132a615077565b816001600160a01b0302191690836001600160a01b031602179061134c6150d2565b505050801561137d5760008061010081611364615077565b8160ff021916908315150217906113796150d2565b5050505b505050505050565b60006067611391615077565b905090565b606060008080838180808080808060cb6113ae615077565b906101000a90046001600160a01b03166001600160a01b031663b7a545265a63996d79a5598160e01b8152602081600483336000905af158600e01573d6000803e3d6000fd5b3d6001141558600a015760016000f35b8051925060005b60408110156114225760008282015260200161140b565b5050506040516001600160e01b031960e084901b1681526001600160a01b0390911660048201526024016040805180830381868061145e6151ac565b1580156114735760008061147061500c565b50505b505a61147d6151f8565b505050505015801561149c573d6000803e3d600061149961500c565b50505b505050506040513d60408110156114bb576000806114b861500c565b50505b81019080805192919060200180519395509293506114dc9250610ff3915050565b6114e4611385565b6114ec61338e565b6114f4614060565b6114fc613a82565b60ca611506615077565b600060c9611512615077565b906101000a900460ff1688889a509a509a509a509a509a509a509a509a505050909192939495969798565b600060ce610fe0615077565b805b919050565b600061155d8484846140b0565b6115da84611569613c10565b6115d58560405160608101604052602880825261554160208301396001600160a01b038a16600090815260666020526040902060006115a6613c10565b6001600160a01b03166001600160a01b031681526020019081526020016000206115ce615077565b919061424e565b613c1b565b5060019392505050565b60cd60205280600052604060002090506115fc615077565b81565b6000609761160b615077565b906101000a900460ff1661166e5760405162461bcd60e51b815260206004820152601f60248201527f5265656e7472616e637947756172643a207265656e7472616e742063616c6c0060448201526064016040518091039061166b61500c565b50505b6000609760018161167d615077565b8160ff021916908315150217906116926150d2565b50505060cb6000906116a2615077565b906101000a90046001600160a01b03166001600160a01b031663b187bd266040518163ffffffff1660e01b815260040160206040518083038186806116e56151ac565b1580156116fa576000806116f761500c565b50505b505a6117046151f8565b5050505050158015611723573d6000803e3d600061172061500c565b50505b505050506040513d60208110156117425760008061173f61500c565b50505b81019080805115925061179a9150505760405162461bcd60e51b815260206004820152601060248201526f18dbdb9d1c9858dd1cc81c185d5cd95960821b60448201526064016040518091039061179761500c565b50505b806117ac5a6117a7615120565b6127f9565b10156117fe5760405162461bcd60e51b8152602060048201526014602482015273696e73756666696369656e742062616c616e636560601b6044820152606401604051809103906117fb61500c565b50505b61180f5a61180a615120565b6135f1565b1561185b5760405162461bcd60e51b815260206004820152600f60248201526e636f6f6c646f776e2061637469766560881b60448201526064016040518091039061185861500c565b50505b6118636142ee565b600061186d61338e565b9050600061189461187c611385565b61188e85670de0b6b3a764000061471f565b90614787565b90506118a85a6118a2615120565b846147c7565b60008060ce6118b5615077565b906101000a90046001600160a01b031690506060816001600160a01b031663e5406dbf6040518163ffffffff1660e01b815260040160006040518083038186806118fd6151ac565b1580156119125760008061190f61500c565b50505b505a61191c6151f8565b505050505015801561193b573d6000803e3d600061193861500c565b50505b505050506040513d6000823e601f3d908101601f19168201604052602081101561196d5760008061196a61500c565b50505b8101908080516040519392919084600160201b8211156119955760008061199261500c565b50505b9083019060208201858111156119b3576000806119b061500c565b50505b82518660208202830111600160201b821117156119d8576000806119d561500c565b50505b825250602001908051906020019060200280838360005b83811015611a075780820151838201526020016119ef565b50505050905001604052505050905060008151905060005b81811015611c3c576000838281518110611a3557fe5b602002602001015190506000816001600160a01b03166370a082315a63996d79a5598160e01b8152602081600483336000905af158600e01573d6000803e3d6000fd5b3d6001141558600a015760016000f35b8051925060005b6040811015611aa657600082820152602001611a8f565b5050506040516001600160e01b031960e084901b1681526001600160a01b0390911660048201526024016020604051808303818680611ae36151ac565b158015611af857600080611af561500c565b50505b505a611b026151f8565b5050505050158015611b21573d6000803e3d6000611b1e61500c565b50505b505050506040513d6020811015611b4057600080611b3d61500c565b50505b810190808051935060009250611b669150670de0b6b3a7640000905061188e848b61471f565b90508015611c3157826001600160a01b031663a9059cbb5a611b86615120565b836040516001600160e01b031960e085901b1681526001600160a01b039092166004830152602482015260440160206040518083038160008780611bc86151ac565b158015611bdd57600080611bda61500c565b50505b505a611be76152e3565b505050505050158015611c07573d6000803e3d6000611c0461500c565b50505b505050506040513d6020811015611c2657600080611c2361500c565b50505b810190808051505050505b505050600101611a1f565b506000611c55670de0b6b3a764000061188e878961471f565b90507f79d44cc8beeed36226f14818b2ecaca7ef252bcd56c9ae35f5a86869dbdefb975a63996d79a5598160e01b8152602081600483336000905af158600e01573d6000803e3d6000fd5b3d6001141558600a015760016000f35b8051925060005b6040811015611cce57600082820152602001611cb7565b5050505a611cda615120565b838a611ce85a6117a7615120565b611cf061338e565b611cf8611385565b5a611d01615166565b6040516001600160a01b0398891681529690971660208701526040808701959095526060860193909352608085019190915260a084015260c083015260e082019290925261010001905180910390a15050505050506001609760006101000a81611d69615077565b8160ff02191690831515021790611d7e6150d2565b50505050565b600080606a611d91615077565b906101000a900460ff16905090565b60006110c4611dad613c10565b846115d58560666000611dbe613c10565b6001600160a01b03166001600160a01b031681526020019081526020016000206001600160a01b038916600090815260209190915260409020611dff615077565b906148e7565b611e0d614060565b6001600160a01b03165a611e1f615120565b6001600160a01b031614611e715760405162461bcd60e51b815260206004820152600c60248201526b37b7363c9036b0b730b3b2b960a11b604482015260640160405180910390611e6e61500c565b50505b801515600060c9611e80615077565b906101000a900460ff1615151415611ee05760405162461bcd60e51b8152602060048201526016602482015275199b1859c81b5d5cdd08189948191a5999995c995b9d60521b604482015260640160405180910390611edd61500c565b50505b611ee981614002565b50565b600080611f04858560200260040160ff166020613858565b90506000611f1786600484016020613858565b905080611f685760405162461bcd60e51b8152602060048201526012602482015271696e707574206973206e6f7420617272617960701b604482015260640160405180910390611f6561500c565b50505b60ff84168111611fc05760405162461bcd60e51b815260206004820152601660248201527534b73b30b634b21030b93930bc903837b9b4ba34b7b760511b604482015260640160405180910390611fbd61500c565b50505b611fda866020600160ff8816018102850160040190613858565b9695505050505050565b60008060cb611ff1615077565b906101000a90046001600160a01b03166001600160a01b0316634501b0886040518163ffffffff1660e01b815260040160206040518083038186806120346151ac565b1580156120495760008061204661500c565b50505b505a6120536151f8565b5050505050158015612072573d6000803e3d600061206f61500c565b50505b505050506040513d60208110156120915760008061208e61500c565b50505b810190808051935050505090565b60006120a9614060565b6001600160a01b03165a6120bb615120565b6001600160a01b031614806120e35750600060c96120d7615077565b906101000a900460ff16155b806120fa57506120fa5a6120f5615120565b613653565b61214a5760405162461bcd60e51b81526020600482015260146024820152731bdb9b1e481b595b58995c9cc8185b1b1bddd95960621b60448201526064016040518091039061214761500c565b50505b600060cb612156615077565b906101000a90046001600160a01b03166001600160a01b031663b187bd266040518163ffffffff1660e01b815260040160206040518083038186806121996151ac565b1580156121ae576000806121ab61500c565b50505b505a6121b86151f8565b50505050501580156121d7573d6000803e3d60006121d461500c565b50505b505050506040513d60208110156121f6576000806121f361500c565b50505b81019080805115925061224e9150505760405162461bcd60e51b815260206004820152601060248201526f18dbdb9d1c9858dd1cc81c185d5cd95960821b60448201526064016040518091039061224b61500c565b50505b600060ce61225a615077565b906101000a90046001600160a01b03166001600160a01b031663bdbef07d846040516001600160e01b031960e084901b1681526001600160a01b03909116600482015260240160206040518083038186806122b36151ac565b1580156122c8576000806122c561500c565b50505b505a6122d26151f8565b50505050501580156122f1573d6000803e3d60006122ee61500c565b50505b505050506040513d60208110156123105760008061230d61500c565b50505b810190808051925061236c9150505760405162461bcd60e51b81526020600482015260156024820152741a5b9d985b1a590819195c1bdcda5d08185cdcd95d605a1b60448201526064016040518091039061236961500c565b50505b5a612375615166565b60cd60005a612382615120565b6001600160a01b03166001600160a01b0316815260200190815260200160002081906123ac6150d2565b5050506123b76142ee565b60006123c161338e565b905060006123cd611385565b9050846001600160a01b03166323b872dd5a6123e7615120565b5a63996d79a5598160e01b8152602081600483336000905af158600e01573d6000803e3d6000fd5b3d6001141558600a015760016000f35b8051925060005b604081101561243d57600082820152602001612426565b505050876040516001600160e01b031960e086901b1681526001600160a01b03938416600482015291909216602482015260448101919091526064016020604051808303816000878061248e6151ac565b1580156124a3576000806124a061500c565b50505b505a6124ad6152e3565b5050505050501580156124cd573d6000803e3d60006124ca61500c565b50505b505050506040513d60208110156124ec576000806124e961500c565b50505b81019080805192506125489150505760405162461bcd60e51b81526020600482015260156024820152741d1bdad95b881d1c985b9cd9995c8819985a5b1959605a1b60448201526064016040518091039061254561500c565b50505b60008060ce612555615077565b906101000a90046001600160a01b03166001600160a01b03166329c07fba87876040516001600160e01b031960e085901b1681526001600160a01b039092166004830152602482015260440160206040518083038186806125b46151ac565b1580156125c9576000806125c661500c565b50505b505a6125d36151f8565b50505050501580156125f2573d6000803e3d60006125ef61500c565b50505b505050506040513d60208110156126115760008061260e61500c565b50505b810190808051935060009250508315905061263b576126348461188e848661471f565b905061263e565b50805b6126505a61264a615120565b82614946565b7f87fdcba84e083ebb8fd661bbafee3eb38764ec6f0cbeea8ed52deffa67bd45dc5a63996d79a5598160e01b8152602081600483336000905af158600e01573d6000803e3d6000fd5b3d6001141558600a015760016000f35b8051925060005b60408110156126c7576000828201526020016126b0565b5050505a6126d3615120565b84846126e15a6117a7615120565b6126eb8a896148e7565b6126f58a896148e7565b5a6126fe615166565b6040516001600160a01b0398891681529690971660208701526040808701959095526060860193909352608085019190915260a084015260c083015260e082019290925261010001905180910390a19695505050505050565b6000818301845110156127b95760405162461bcd60e51b815260206004820152601b60248201527f52656164696e67206279746573206f7574206f6620626f756e647300000000006044820152606401604051809103906127b661500c565b50505b8260200184015190508160040380156127d8576008810260020a820491505b509392505050565b600060c96127ec615077565b906101000a900460ff1681565b6001600160a01b03811660009081526065602052604081206110c8615077565b6000808060cb612827615077565b906101000a90046001600160a01b03166001600160a01b0316631d68702d6040518163ffffffff1660e01b8152600401602060405180830381868061286a6151ac565b15801561287f5760008061287c61500c565b50505b505a6128896151f8565b50505050501580156128a8573d6000803e3d60006128a561500c565b50505b505050506040513d60208110156128c7576000806128c461500c565b50505b8101908080519350506001600160a01b0383169150505a6128e6615120565b6001600160a01b0316146129495760405162461bcd60e51b815260206004820152601860248201527f6f6e6c792044414f206164647265737320616c6c6f776564000000000000000060448201526064016040518091039061294661500c565b50505b8260ce600181612957615077565b816001600160a01b0302191690836001600160a01b03160217906129796150d2565b5050507f63fb64c359a4cae97e1bf003c1ab11390b5f0e18cc5b3d67b90bd61c0f5c52fd835a6129a7615120565b6040516001600160a01b039283168152911660208201526040908101905180910390a150600192915050565b60cc6115fc615077565b60006129e7614060565b6001600160a01b03165a6129f9615120565b6001600160a01b03161480612a2e5750612a11614a5f565b6001600160a01b03165a612a23615120565b6001600160a01b0316145b612a805760405162461bcd60e51b815260206004820152601660248201527537b7363c9036b0b730b3b2b91037b9103a3930b232b960511b604482015260640160405180910390612a7d61500c565b50505b600060cb612a8c615077565b906101000a90046001600160a01b03166001600160a01b031663b187bd266040518163ffffffff1660e01b81526004016020604051808303818680612acf6151ac565b158015612ae457600080612ae161500c565b50505b505a612aee6151f8565b5050505050158015612b0d573d6000803e3d6000612b0a61500c565b50505b505050506040513d6020811015612b2c57600080612b2961500c565b50505b810190808051159250612b849150505760405162461bcd60e51b815260206004820152601060248201526f18dbdb9d1c9858dd1cc81c185d5cd95960821b604482015260640160405180910390612b8161500c565b50505b6001600160a01b038316612be75760405162461bcd60e51b815260206004820152601c60248201527f6e6f6e2d7a65726f206164647265737320697320726571756972656400000000604482015260640160405180910390612be461500c565b50505b60008060cb612bf4615077565b906101000a90046001600160a01b03166001600160a01b0316637027ea6c856040516001600160e01b031960e084901b1681526001600160a01b0390911660048201526024016020604051808303818680612c4d6151ac565b158015612c6257600080612c5f61500c565b50505b505a612c6c6151f8565b5050505050158015612c8b573d6000803e3d6000612c8861500c565b50505b505050506040513d6020811015612caa57600080612ca761500c565b50505b81019080805193505050506001600160a01b038116612d0e5760405162461bcd60e51b815260206004820152601360248201527234b73b30b634b2103232b9ba34b730ba34b7b760691b604482015260640160405180910390612d0b61500c565b50505b600060cb612d1a615077565b906101000a90046001600160a01b03166001600160a01b0316638d554cad6040518163ffffffff1660e01b81526004016020604051808303818680612d5d6151ac565b158015612d7257600080612d6f61500c565b50505b505a612d7c6151f8565b5050505050158015612d9b573d6000803e3d6000612d9861500c565b50505b505050506040513d6020811015612dba57600080612db761500c565b50505b8101908080516001600160a01b03858116911614159250829150612ea890505750600060ce612de7615077565b906101000a90046001600160a01b03166001600160a01b0316639be918e6856040516001600160e01b031960e084901b1681526001600160a01b0390911660048201526024016020604051808303818680612e406151ac565b158015612e5557600080612e5261500c565b50505b505a612e5f6151f8565b5050505050158015612e7e573d6000803e3d6000612e7b61500c565b50505b505050506040513d6020811015612e9d57600080612e9a61500c565b50505b810190808051925050505b612eec5760405162461bcd60e51b815260040180806020018281038252602a8152602001806154f6602a913960400191505060405180910390612ee961500c565b50505b6001600160a01b03811663e23ff437600060ce612f07615077565b906101000a90046001600160a01b0316856040518363ffffffff1660e01b815260040180836001600160a01b0316815260200180602001828103825283818151815260200191508051906020019080838360005b83811015612f73578082015183820152602001612f5b565b50505050905090810190601f168015612fa05780820380516001836020036101000a031916815260200191505b50935050505060206040518083038160008780612fbb6151ac565b158015612fd057600080612fcd61500c565b50505b505a612fda6152e3565b505050505050158015612ffa573d6000803e3d6000612ff761500c565b50505b505050506040513d60208110156130195760008061301661500c565b50505b81019080805192506130739150505760405162461bcd60e51b815260206004820152601360248201527234b73b30b634b2103a3930b739b0b1ba34b7b760691b60448201526064016040518091039061307061500c565b50505b6000846001600160a01b0316846040518082805190602001908083835b602083106130af5780518252601f199092019160209182019101613090565b6001836020036101000a0380198251168184511680821785525050505050509050019150506000604051808303816000865a6130e96152e3565b5050505050509150503d806000811461311e576040513d603f01601f191681016040523d815291503d6000602084013e613123565b606091505b50909150506001811515146131875760405162461bcd60e51b815260206004820152601a60248201527f6661696c656420746f2065786563757465207468652063616c6c00000000000060448201526064016040518091039061318461500c565b50505b7f4e86ad0da28cbaaaa7e93e36c43b32696e970535225b316f1b84fbf30bdc04e86131b0614060565b5a6131b9615166565b6040516001600160a01b03909216825260208201526040908101905180910390a1506001949350505050565b6000806131f061338e565b905060006131fc611385565b90506132088282614aaf565b9250505090565b6000613226838360200260040160ff166020613858565b9392505050565b606060698061323a615077565b600181600116156101000203166002900480601f016020809104026020016040519081016040528181529190602083018280613274615077565b600181600116156101000203166002900480156110a65780601f106132a0576101008083611066615077565b820191906000526020600020905b816132b7615077565b815290600101906020018083116132ae57509395945050505050565b6000806132eb848460200260040160ff166020613858565b90506132fc84600483016020613858565b949350505050565b60006110c4613311613c10565b846115d585604051606081016040526025808252615601602083013960666000613339613c10565b6001600160a01b03166001600160a01b031681526020019081526020016000206001600160a01b038a166000908152602091909152604090206115ce615077565b60006110c4613387613c10565b84846140b0565b600080808060ce61339d615077565b906101000a90046001600160a01b031690506060816001600160a01b031663e5406dbf6040518163ffffffff1660e01b815260040160006040518083038186806133e56151ac565b1580156133fa576000806133f761500c565b50505b505a6134046151f8565b5050505050158015613423573d6000803e3d600061342061500c565b50505b505050506040513d6000823e601f3d908101601f1916820160405260208110156134555760008061345261500c565b50505b8101908080516040519392919084600160201b82111561347d5760008061347a61500c565b50505b90830190602082018581111561349b5760008061349861500c565b50505b82518660208202830111600160201b821117156134c0576000806134bd61500c565b50505b825250602001908051906020019060200280838360005b838110156134ef5780820151838201526020016134d7565b50505050905001604052505050905060008151905060005b818110156135e7576135dd846001600160a01b031663d8af8ed485848151811061352d57fe5b60200260200101516040516001600160e01b031960e084901b1681526001600160a01b039091166004820152602401602060405180830381868061356f6151ac565b1580156135845760008061358161500c565b50505b505a61358e6151f8565b50505050501580156135ad573d6000803e3d60006135aa61500c565b50505b505050506040513d60208110156135cc576000806135c961500c565b50505b8101908080518993509150506148e7565b9450600101613507565b5092935050505090565b6000806135fc611fe4565b6001600160a01b038416600090815260cd6020529091506136238260408320611dff615077565b90505a61362e615166565b8110156136405760009250505061154b565b6132fc5a61364c615166565b8290614adf565b60008060ce613660615077565b906101000a90046001600160a01b03166001600160a01b031663bbbf725b836040516001600160e01b031960e084901b1681526001600160a01b03909116600482015260240160206040518083038186806136b96151ac565b1580156136ce576000806136cb61500c565b50505b505a6136d86151f8565b50505050501580156136f7573d6000803e3d60006136f461500c565b50505b505050506040513d60208110156137165760008061371361500c565b50505b81019080805195945050505050565b60006110c88260006004612757565b600060cb610fe0615077565b600060cb61374c615077565b906101000a90046001600160a01b03166001600160a01b031663b187bd266040518163ffffffff1660e01b8152600401602060405180830381868061378f6151ac565b1580156137a4576000806137a161500c565b50505b505a6137ae6151f8565b50505050501580156137cd573d6000803e3d60006137ca61500c565b50505b505050506040513d60208110156137ec576000806137e961500c565b50505b8101908080511592506138449150505760405162461bcd60e51b815260206004820152601060248201526f18dbdb9d1c9858dd1cc81c185d5cd95960821b60448201526064016040518091039061384161500c565b50505b61384c6142ee565b565b60ca6115fc615077565b6000818301845110156138ba5760405162461bcd60e51b815260206004820152601b60248201527f52656164696e67206279746573206f7574206f6620626f756e647300000000006044820152606401604051809103906138b761500c565b50505b8260200184015190508160200380156127d85760080260020a90049392505050565b6001600160a01b03821660009081526066602052604081206001600160a01b038316600090815260209190915260409020613226615077565b60008061392061338e565b9050600061392c611385565b90506000808060cb61393c615077565b906101000a90046001600160a01b03166001600160a01b031663b7a545265a63996d79a5598160e01b8152602081600483336000905af158600e01573d6000803e3d6000fd5b3d6001141558600a015760016000f35b8051925060005b60408110156139b057600082820152602001613999565b5050506040516001600160e01b031960e084901b1681526001600160a01b039091166004820152602401604080518083038186806139ec6151ac565b158015613a01576000806139fe61500c565b50505b505a613a0b6151f8565b5050505050158015613a2a573d6000803e3d6000613a2761500c565b50505b505050506040513d6040811015613a4957600080613a4661500c565b50505b8101908080519291906020018051939550929350613a79925086915085905060cc613a72615077565b8585614b1f565b94505050505090565b6060600060ce613a90615077565b906101000a90046001600160a01b03166001600160a01b031663fed4416a6040518163ffffffff1660e01b81526004016000604051808303818680613ad36151ac565b158015613ae857600080613ae561500c565b50505b505a613af26151f8565b5050505050158015613b11573d6000803e3d6000613b0e61500c565b50505b505050506040513d6000823e601f3d908101601f191682016040526020811015613b4357600080613b4061500c565b50505b8101908080516040519392919084600160201b821115613b6b57600080613b6861500c565b50505b908301906020820185811115613b8957600080613b8661500c565b50505b8251600160201b811182820188101715613bab57600080613ba861500c565b50505b825250602001908051906020019080838360005b83811015613bd7578082015183820152602001613bbf565b50505050905090810190601f168015613c045780820380516001836020036101000a031916815260200191505b50604052505050905090565b60005a611391615120565b6001600160a01b038316613c695760405162461bcd60e51b81526004018080602001828103825260248152602001806155dd6024913960400191505060405180910390613c6661500c565b50505b6001600160a01b038216613cb75760405162461bcd60e51b81526004018080602001828103825260228152602001806154ae6022913960400191505060405180910390613cb461500c565b50505b6001600160a01b038316600090815260666020528190604090206001600160a01b0384166000908152602091909152604090208190613cf46150d2565b505050816001600160a01b0316836001600160a01b03167f8c5be1e5ebec7d5bd14f71427d1e84f3dd0314c0f7b2291e5b200ac8c7c3b9258360405190815260200160405180910390a3505050565b6000805a63996d79a5598160e01b8152602081600483336000905af158600e01573d6000803e3d6000fd5b3d6001141558600a015760016000f35b8051925060005b6040811015613d9c57600082820152602001613d85565b5050509050600081613dac6151ac565b159250505090565b60016000613dc0615077565b906101000a900460ff1680613dd85750613dd8613d43565b80613df55750600080613de9615077565b906101000a900460ff16155b613e395760405162461bcd60e51b815260040180806020018281038252602e815260200180615569602e913960400191505060405180910390613e3661500c565b50505b6000600181613e46615077565b906101000a900460ff161590508015613eac576001600061010081613e69615077565b8160ff02191690831515021790613e7e6150d2565b50505060016000806101000a81613e93615077565b8160ff02191690831515021790613ea86150d2565b5050505b613eb4614b8e565b613ebe8383614c9a565b8015613ee85760008061010081613ed3615077565b8160ff0219169083151502179061137d6150d2565b505050565b60016000613ef9615077565b906101000a900460ff1680613f115750613f11613d43565b80613f2e5750600080613f22615077565b906101000a900460ff16155b613f725760405162461bcd60e51b815260040180806020018281038252602e815260200180615569602e913960400191505060405180910390613f6f61500c565b50505b6000600181613f7f615077565b906101000a900460ff161590508015613fe5576001600061010081613fa2615077565b8160ff02191690831515021790613fb76150d2565b50505060016000806101000a81613fcc615077565b8160ff02191690831515021790613fe16150d2565b5050505b613fed614df7565b8015611ee95760008061010081611d69615077565b8060c9600181614010615077565b8160ff021916908315150217906140256150d2565b5050507f8d75e9ede4188432084b863d70b3416010c97547dfeb4fc17734d2e997ee0f3981604051901515815260200160405180910390a150565b60008060ce61406d615077565b906101000a90046001600160a01b03166001600160a01b031663481c6a756040518163ffffffff1660e01b815260040160206040518083038186806120346151ac565b6001600160a01b0383166140fe5760405162461bcd60e51b81526004018080602001828103825260258152602001806155b860259139604001915050604051809103906140fb61500c565b50505b6001600160a01b03821661414c5760405162461bcd60e51b8152600401808060200182810382526023815260200180615469602391396040019150506040518091039061414961500c565b50505b614157838383614efd565b614192816040516060810160405260268082526154d060208301396001600160a01b03861660009081526065602052604090206115ce615077565b6001600160a01b038416600090815260656020526040902081906141b46150d2565b5050506001600160a01b038216600090815260656020526141dd90829060409020611dff615077565b6001600160a01b038316600090815260656020526040902081906141ff6150d2565b505050816001600160a01b0316836001600160a01b03167fddf252ad1be2c89b69c2b068fc378daa952ba7f163c4a11628f55a4df523b3ef8360405190815260200160405180910390a3505050565b600081848411156142e65760405162461bcd60e51b81526004018080602001828103825283818151815260200191508051906020019080838360005b838110156142a257808201518382015260200161428a565b50505050905090810190601f1680156142cf5780820380516001836020036101000a031916815260200191505b5092505050604051809103906142e361500c565b50505b505050900390565b60006142f861338e565b90506000614304611385565b90506000808060cb614314615077565b906101000a90046001600160a01b03166001600160a01b031663b7a545265a63996d79a5598160e01b8152602081600483336000905af158600e01573d6000803e3d6000fd5b3d6001141558600a015760016000f35b8051925060005b604081101561438857600082820152602001614371565b5050506040516001600160e01b031960e084901b1681526001600160a01b039091166004820152602401604080518083038186806143c46151ac565b1580156143d9576000806143d661500c565b50505b505a6143e36151f8565b5050505050158015614402573d6000803e3d60006143ff61500c565b50505b505050506040513d60408110156144215760008061441e61500c565b50505b81019080805192919060200180519395509293506000925061445391508690508560cc61444c615077565b8686614b1f565b9050606481101561446857505050505061384c565b60008060cb614475615077565b906101000a90046001600160a01b03166001600160a01b0316631d68702d6040518163ffffffff1660e01b815260040160206040518083038186806144b86151ac565b1580156144cd576000806144ca61500c565b50505b505a6144d76151f8565b50505050501580156144f6573d6000803e3d60006144f361500c565b50505b505050506040513d60208110156145155760008061451261500c565b50505b81019080805193506000925082915081905060cb614531615077565b906101000a90046001600160a01b03166001600160a01b0316639cada6e46040518163ffffffff1660e01b8152600401604080518083038186806145736151ac565b1580156145885760008061458561500c565b50505b505a6145926151f8565b50505050501580156145b1573d6000803e3d60006145ae61500c565b50505b505050506040513d60408110156145d0576000806145cd61500c565b50505b8101908080519291906020018051939550929350600092506145fa915083905061188e878661471f565b905060006146088683614adf565b9050811561461a5761461a8583614946565b801561462b5761462b61264a614060565b6146358a8a614aaf565b8060cc6146406150d2565b5050507f755a8059d66d8d243bc9f6913f429a811f154599d0538bb0b6a2ac23f23d2ccd5a63996d79a5598160e01b8152602081600483336000905af158600e01573d6000803e3d6000fd5b3d6001141558600a015760016000f35b8051925060005b60408110156146ba576000828201526020016146a3565b5050506146c5614060565b88858560cc6146d2615077565b6040516001600160a01b0396871681529490951660208501526040808501939093526060840191909152608083015260a082019290925260c001905180910390a150505050505050505050565b60008261472e575060006110c8565b8282028284828161473b57fe5b04146132265760405162461bcd60e51b8152600401808060200182810382526021815260200180615520602191396040019150506040518091039061477e61500c565b50509392505050565b6000613226838360405160408082019052601a81527f536166654d6174683a206469766973696f6e206279207a65726f0000000000006020820152614f61565b6001600160a01b0382166148155760405162461bcd60e51b8152600401808060200182810382526021815260200180615597602191396040019150506040518091039061481261500c565b50505b61482182600083614efd565b61485c8160405160608101604052602280825261548c60208301396001600160a01b03851660009081526065602052604090206115ce615077565b6001600160a01b0383166000908152606560205260409020819061487e6150d2565b50505061489581606761488f615077565b90614adf565b8060676148a06150d2565b5060009150506001600160a01b0383167fddf252ad1be2c89b69c2b068fc378daa952ba7f163c4a11628f55a4df523b3ef8360405190815260200160405180910390a35050565b6000828201838110156132265760405162461bcd60e51b815260206004820152601b60248201527f536166654d6174683a206164646974696f6e206f766572666c6f77000000000060448201526064016040518091039061477e61500c565b6001600160a01b0382166149a95760405162461bcd60e51b815260206004820152601f60248201527f45524332303a206d696e7420746f20746865207a65726f2061646472657373006044820152606401604051809103906149a661500c565b50505b6149b560008383614efd565b6149c3816067611dff615077565b8060676149ce6150d2565b5050506001600160a01b038216600090815260656020526149f790829060409020611dff615077565b6001600160a01b03831660009081526065602052604090208190614a196150d2565b5050506001600160a01b03821660007fddf252ad1be2c89b69c2b068fc378daa952ba7f163c4a11628f55a4df523b3ef8360405190815260200160405180910390a35050565b60008060ce614a6c615077565b906101000a90046001600160a01b03166001600160a01b0316631758078b6040518163ffffffff1660e01b815260040160206040518083038186806120346151ac565b6000811580614abc575082155b15614ac9575060006110c8565b6132268261188e85670de0b6b3a764000061471f565b6000613226838360405160408082019052601e81527f536166654d6174683a207375627472616374696f6e206f766572666c6f770000602082015261424e565b6000841580614b2c575085155b15614b395750600061115e565b6000614b518661188e89670de0b6b3a764000061471f565b9050848111614b6457600091505061115e565b6000614b828261188e868189614b7c8d81878f614adf565b9061471f565b98975050505050505050565b60016000614b9a615077565b906101000a900460ff1680614bb25750614bb2613d43565b80614bcf5750600080614bc3615077565b906101000a900460ff16155b614c135760405162461bcd60e51b815260040180806020018281038252602e815260200180615569602e913960400191505060405180910390614c1061500c565b50505b6000600181614c20615077565b906101000a900460ff161590508015613fed576001600061010081614c43615077565b8160ff02191690831515021790614c586150d2565b50505060016000806101000a81614c6d615077565b8160ff02191690831515021790614c826150d2565b5050508015611ee95760008061010081611d69615077565b60016000614ca6615077565b906101000a900460ff1680614cbe5750614cbe613d43565b80614cdb5750600080614ccf615077565b906101000a900460ff16155b614d1f5760405162461bcd60e51b815260040180806020018281038252602e815260200180615569602e913960400191505060405180910390614d1c61500c565b50505b6000600181614d2c615077565b906101000a900460ff161590508015614d92576001600061010081614d4f615077565b8160ff02191690831515021790614d646150d2565b50505060016000806101000a81614d79615077565b8160ff02191690831515021790614d8e6150d2565b5050505b6068838051614da59291602001906153a9565b506069828051614db99291602001906153a9565b506012606a600181614dc9615077565b8160ff021916908360ff16021790614ddf6150d2565b5050508015613ee85760008061010081613ed3615077565b60016000614e03615077565b906101000a900460ff1680614e1b5750614e1b613d43565b80614e385750600080614e2c615077565b906101000a900460ff16155b614e7c5760405162461bcd60e51b815260040180806020018281038252602e815260200180615569602e913960400191505060405180910390614e7961500c565b50505b6000600181614e89615077565b906101000a900460ff161590508015614eef576001600061010081614eac615077565b8160ff02191690831515021790614ec16150d2565b50505060016000806101000a81614ed6615077565b8160ff02191690831515021790614eeb6150d2565b5050505b600160978181614c6d615077565b614f08838383613ee8565b614f11836135f1565b15613ee85760405162461bcd60e51b815260206004820152600f60248201526e636f6f6c646f776e2061637469766560881b604482015260640160405180910390614f5a61500c565b5050505050565b60008183614ff65760405162461bcd60e51b81526004018080602001828103825283818151815260200191508051906020019080838360005b83811015614fb2578082015183820152602001614f9a565b50505050905090810190601f168015614fdf5780820380516001836020036101000a031916815260200191505b509250505060405180910390614ff361500c565b50505b50600083858161500257fe5b0495945050505050565b632a2a7adb598160e01b8152600481016020815285602082015260005b86811015615044578086015182820160400152602001615029565b506020828760640184336000905af158600e01573d6000803e3d6000fd5b3d6001141558600a015760016000f35b505050565b6303daa959598160e01b8152836004820152602081602483336000905af158600e01573d6000803e3d6000fd5b3d6001141558600a015760016000f35b8051935060005b6040811015613ee8576000828201526020016150bb565b6322bd64c0598160e01b8152836004820152846024820152600081604483336000905af158600e01573d6000803e3d6000fd5b3d6001141558600a015760016000f35b6000815260206150bb565b6373509064598160e01b8152602081600483336000905af158600e01573d6000803e3d6000fd5b3d6001141558600a015760016000f35b805160008252935060206150bb565b63bdbf8c36598160e01b8152602081600483336000905af158600e01573d6000803e3d6000fd5b3d6001141558600a015760016000f35b805160008252935060206150bb565b638435035b598160e01b8152836004820152602081602483336000905af158600e01573d6000803e3d6000fd5b3d6001141558600a015760016000f35b805160008252935060206150bb565b638540661f598160e01b8152615229565b80808311156110c8575090919050565b80808310156110c8575090919050565b836004820152846024820152606060448201528660648201526084810160005b88811015615261578088015182820152602001615249565b506060828960a40184336000905af158600e01573d6000803e3d6000fd5b3d6001141558600a015760016000f35b815160408301513d6000853e8b8b82606087013350600060045af150596152b68d3d615219565b8c016152c28187615209565b5b828110156152d757600081526020016152c3565b50929c50505050505050565b6385979f76598160e01b8152836004820152846024820152606060448201528760648201526084810160005b8981101561532757808901518282015260200161530f565b506060828a60a40184336000905af158600e01573d6000803e3d6000fd5b3d6001141558600a015760016000f35b815160408301513d6000853e8c8c82606087013350600060045af1505961537c8e3d615219565b8d016153888187615209565b5b8281101561539d5760008152602001615389565b50929d50505050505050565b82806153b3615077565b600181600116156101000203166002900490600052602060002090601f016020900481019282601f106153fa57805160ff191683800117856153f36150d2565b5050615439565b828001600101856154096150d2565b50508215615439579182015b82811115615439578251826154286150d2565b505091602001919060010190615415565b50615445929150615449565b5090565b80821115615445576000808261545d6150d2565b50505060010161544956fe45524332303a207472616e7366657220746f20746865207a65726f206164647265737345524332303a206275726e20616d6f756e7420657863656564732062616c616e636545524332303a20617070726f766520746f20746865207a65726f206164647265737345524332303a207472616e7366657220616d6f756e7420657863656564732062616c616e6365696e76616c69642064657374696e6174696f6e206f72206173736574206e6f7420737570706f72746564536166654d6174683a206d756c7469706c69636174696f6e206f766572666c6f7745524332303a207472616e7366657220616d6f756e74206578636565647320616c6c6f77616e6365436f6e747261637420696e7374616e63652068617320616c7265616479206265656e20696e697469616c697a656445524332303a206275726e2066726f6d20746865207a65726f206164647265737345524332303a207472616e736665722066726f6d20746865207a65726f206164647265737345524332303a20617070726f76652066726f6d20746865207a65726f206164647265737345524332303a2064656372656173656420616c6c6f77616e63652062656c6f77207a65726f",
  "deployedBytecode": "0x60806040523480156100195760008061001661500c565b50505b506004361061025c5760003560e01c806370a082311161014f578063ad60ffcc116100cc578063cc3c6df611610090578063cc3c6df614610eb1578063d8270dce14610eb9578063db896b5714610ec1578063dd62ed3e14610f8d578063edbf6f5014610fc4578063fed4416a14610fcc5761025c565b8063ad60ffcc14610d7c578063b8ea2b6e14610d84578063bbbf725b14610db3578063c3c6279f14610de2578063c45a015514610ea95761025c565b806382f86acc1161011357806382f86acc14610b7257806395d89b4114610c3e578063998546e314610c46578063a457c2d714610d12578063a9059cbb14610d475761025c565b806370a0823114610a2d578063750226de14610a5c5780637714f39d14610a8b5780637ae7cfb514610a935780637ff9b59614610b6a5761025c565b806329d16ee8116101dd57806341dc16c3116101a157806341dc16c3146108285780634501b088146108ff57806347e7ef2414610907578063568b5a2f1461093c57806359b5e75e14610a255761025c565b806329d16ee8146107585780632e1a7d4d14610787578063313ce567146107ad57806339509351146107cb5780633babaad5146108005761025c565b806318160ddd1161022457806318160ddd146105be5780631c5918d2146105c65780631e50a4a6146106eb5780631eba3077146106f357806323b872dd146107195761025c565b806302d05d3f1461026a57806306fdde031461028e578063095ea7b31461030d57806309ff5c7d146103565780630ccb30c714610434575b60008061026761500c565b50505b610272610fd4565b6040516001600160a01b03909116815260200160405180910390f35b610296610ff3565b60405160208082528190810183818151815260200191508051906020019080838360005b838110156102d25780820151838201526020016102ba565b50505050905090810190601f1680156102ff5780820380516001836020036101000a031916815260200191505b509250505060405180910390f35b6103426004803603604081101561032c5760008061032961500c565b50505b506001600160a01b0381351690602001356110b0565b604051901515815260200160405180910390f35b610422600480360360408110156103755760008061037261500c565b50505b810190602081018135600160201b8111156103985760008061039561500c565b50505b8201836020820111156103b3576000806103b061500c565b50505b803590602001918460018302840111600160201b831117156103dd576000806103da61500c565b50505b91908080601f01602080910402602001604051908101604052818152929190602084018383808284376000920191909152509295505050903560ff1691506110ce9050565b60405190815260200160405180910390f35b6105bc600480360360a08110156104535760008061045061500c565b50505b6001600160a01b03823516916020810135151591810190606081016040820135600160201b81111561048d5760008061048a61500c565b50505b8201836020820111156104a8576000806104a561500c565b50505b803590602001918460018302840111600160201b831117156104d2576000806104cf61500c565b50505b91908080601f01602080910402602001604051908101604052818152929190602084018383808284376000920191909152509295949360208101935035915050600160201b81111561052c5760008061052961500c565b50505b8201836020820111156105475760008061054461500c565b50505b803590602001918460018302840111600160201b831117156105715760008061056e61500c565b50505b91908080601f0160208091040260200160405190810160405281815292919060208401838380828437600092019190915250929550505090356001600160a01b031691506111679050565b005b610422611385565b6105ce611396565b60405180806020018a8152602001898152602001886001600160a01b0316815260200180602001878152602001861515815260200185815260200184815260200183810383528c818151815260200191508051906020019080838360005b8381101561064457808201518382015260200161062c565b50505050905090810190601f1680156106715780820380516001836020036101000a031916815260200191505b50838103825288818151815260200191508051906020019080838360005b838110156106a757808201518382015260200161068f565b50505050905090810190601f1680156106d45780820380516001836020036101000a031916815260200191505b509b50505050505050505050505060405180910390f35b61027261153d565b610272600480360360208110156107125760008061070f61500c565b50505b5035611549565b610342600480360360608110156107385760008061073561500c565b50505b506001600160a01b03813581169160208101359091169060400135611550565b610422600480360360208110156107775760008061077461500c565b50505b50356001600160a01b03166115e4565b6105bc600480360360208110156107a6576000806107a361500c565b50505b50356115ff565b6107b5611d84565b60405160ff909116815260200160405180910390f35b610342600480360360408110156107ea576000806107e761500c565b50505b506001600160a01b038135169060200135611da0565b6105bc6004803603602081101561081f5760008061081c61500c565b50505b50351515611e05565b610422600480360360608110156108475760008061084461500c565b50505b810190602081018135600160201b81111561086a5760008061086761500c565b50505b8201836020820111156108855760008061088261500c565b50505b803590602001918460018302840111600160201b831117156108af576000806108ac61500c565b50505b91908080601f01602080910402602001604051908101604052818152929190602084018383808284376000920191909152509295505060ff8335811694506020909301359092169150611eec9050565b610422611fe4565b610422600480360360408110156109265760008061092361500c565b50505b506001600160a01b03813516906020013561209f565b610a086004803603606081101561095b5760008061095861500c565b50505b810190602081018135600160201b81111561097e5760008061097b61500c565b50505b8201836020820111156109995760008061099661500c565b50505b803590602001918460018302840111600160201b831117156109c3576000806109c061500c565b50505b91908080601f01602080910402602001604051908101604052818152929190602084018383808284376000920191909152509295505082359350505060200135612757565b6040516001600160e01b0319909116815260200160405180910390f35b6103426127e0565b61042260048036036020811015610a4c57600080610a4961500c565b50505b50356001600160a01b03166127f9565b61034260048036036020811015610a7b57600080610a7861500c565b50505b50356001600160a01b0316612819565b6104226129d3565b61034260048036036040811015610ab257600080610aaf61500c565b50505b6001600160a01b038235169190810190604081016020820135600160201b811115610ae557600080610ae261500c565b50505b820183602082011115610b0057600080610afd61500c565b50505b803590602001918460018302840111600160201b83111715610b2a57600080610b2761500c565b50505b91908080601f01602080910402602001604051908101604052818152929190602084018383808284376000920191909152509295506129dd945050505050565b6104226131e5565b61042260048036036040811015610b9157600080610b8e61500c565b50505b810190602081018135600160201b811115610bb457600080610bb161500c565b50505b820183602082011115610bcf57600080610bcc61500c565b50505b803590602001918460018302840111600160201b83111715610bf957600080610bf661500c565b50505b91908080601f01602080910402602001604051908101604052818152929190602084018383808284376000920191909152509295505050903560ff16915061320f9050565b61029661322d565b61042260048036036040811015610c6557600080610c6261500c565b50505b810190602081018135600160201b811115610c8857600080610c8561500c565b50505b820183602082011115610ca357600080610ca061500c565b50505b803590602001918460018302840111600160201b83111715610ccd57600080610cca61500c565b50505b91908080601f01602080910402602001604051908101604052818152929190602084018383808284376000920191909152509295505050903560ff1691506132d39050565b61034260048036036040811015610d3157600080610d2e61500c565b50505b506001600160a01b038135169060200135613304565b61034260048036036040811015610d6657600080610d6361500c565b50505b506001600160a01b03813516906020013561337a565b61042261338e565b61042260048036036020811015610da357600080610da061500c565b50505b50356001600160a01b03166135f1565b61034260048036036020811015610dd257600080610dcf61500c565b50505b50356001600160a01b0316613653565b610a0860048036036020811015610e0157600080610dfe61500c565b50505b810190602081018135600160201b811115610e2457600080610e2161500c565b50505b820183602082011115610e3f57600080610e3c61500c565b50505b803590602001918460018302840111600160201b83111715610e6957600080610e6661500c565b50505b91908080601f0160208091040260200160405190810160405281815292919060208401838380828437600092019190915250929550613725945050505050565b610272613734565b6105bc613740565b61042261384e565b61042260048036036060811015610ee057600080610edd61500c565b50505b810190602081018135600160201b811115610f0357600080610f0061500c565b50505b820183602082011115610f1e57600080610f1b61500c565b50505b803590602001918460018302840111600160201b83111715610f4857600080610f4561500c565b50505b91908080601f01602080910402602001604051908101604052818152929190602084018383808284376000920191909152509295505082359350505060200135613858565b61042260048036036040811015610fac57600080610fa961500c565b50505b506001600160a01b03813581169160200135166138dc565b610422613915565b610296613a82565b600160c9610fe0615077565b906101000a90046001600160a01b031681565b6060606880611000615077565b600181600116156101000203166002900480601f01602080910402602001604051908101604052818152919060208301828061103a615077565b600181600116156101000203166002900480156110a65780601f10611074576101008083611066615077565b0402835291602001916110a6565b820191906000526020600020905b8161108b615077565b8152906001019060200180831161108257829003601f168201915b5050505050905090565b60006110c46110bd613c10565b8484613c1b565b5060015b92915050565b6000806110e6848460200260040160ff166020613858565b905060006110f985600484016020613858565b90508061114a5760405162461bcd60e51b8152602060048201526012602482015271696e707574206973206e6f7420617272617960701b60448201526064016040518091039061114761500c565b50505b61115e856020808402850160040190613858565b95945050505050565b60016000611173615077565b906101000a900460ff168061118b575061118b613d43565b806111a8575060008061119c615077565b906101000a900460ff16155b6111ec5760405162461bcd60e51b815260040180806020018281038252602e815260200180615569602e9139604001915050604051809103906111e961500c565b50505b60006001816111f9615077565b906101000a900460ff16159050801561125f57600160006101008161121c615077565b8160ff021916908315150217906112316150d2565b50505060016000806101000a81611246615077565b8160ff0219169083151502179061125b6150d2565b5050505b6112698484613db4565b611271613eed565b8560cb60018161127f615077565b816001600160a01b0302191690836001600160a01b03160217906112a16150d2565b5050506112ad85614002565b5a6112b6615120565b60c9610100816112c4615077565b816001600160a01b0302191690836001600160a01b03160217906112e66150d2565b5050505a6112f2615166565b8060ca6112fd6150d2565b505050670de0b6b3a764000060cc81906113156150d2565b5050508160ce60006101000a8161132a615077565b816001600160a01b0302191690836001600160a01b031602179061134c6150d2565b505050801561137d5760008061010081611364615077565b8160ff021916908315150217906113796150d2565b5050505b505050505050565b60006067611391615077565b905090565b606060008080838180808080808060cb6113ae615077565b906101000a90046001600160a01b03166001600160a01b031663b7a545265a63996d79a5598160e01b8152602081600483336000905af158601d01573d60011458600c01573d6000803e3d621234565260ea61109c528051925060005b60408110156114225760008282015260200161140b565b5050506040516001600160e01b031960e084901b1681526001600160a01b0390911660048201526024016040805180830381868061145e6151ac565b1580156114735760008061147061500c565b50505b505a61147d6151f8565b505050505015801561149c573d6000803e3d600061149961500c565b50505b505050506040513d60408110156114bb576000806114b861500c565b50505b81019080805192919060200180519395509293506114dc9250610ff3915050565b6114e4611385565b6114ec61338e565b6114f4614060565b6114fc613a82565b60ca611506615077565b600060c9611512615077565b906101000a900460ff1688889a509a509a509a509a509a509a509a509a505050909192939495969798565b600060ce610fe0615077565b805b919050565b600061155d8484846140b0565b6115da84611569613c10565b6115d58560405160608101604052602880825261554160208301396001600160a01b038a16600090815260666020526040902060006115a6613c10565b6001600160a01b03166001600160a01b031681526020019081526020016000206115ce615077565b919061424e565b613c1b565b5060019392505050565b60cd60205280600052604060002090506115fc615077565b81565b6000609761160b615077565b906101000a900460ff1661166e5760405162461bcd60e51b815260206004820152601f60248201527f5265656e7472616e637947756172643a207265656e7472616e742063616c6c0060448201526064016040518091039061166b61500c565b50505b6000609760018161167d615077565b8160ff021916908315150217906116926150d2565b50505060cb6000906116a2615077565b906101000a90046001600160a01b03166001600160a01b031663b187bd266040518163ffffffff1660e01b815260040160206040518083038186806116e56151ac565b1580156116fa576000806116f761500c565b50505b505a6117046151f8565b5050505050158015611723573d6000803e3d600061172061500c565b50505b505050506040513d60208110156117425760008061173f61500c565b50505b81019080805115925061179a9150505760405162461bcd60e51b815260206004820152601060248201526f18dbdb9d1c9858dd1cc81c185d5cd95960821b60448201526064016040518091039061179761500c565b50505b806117ac5a6117a7615120565b6127f9565b10156117fe5760405162461bcd60e51b8152602060048201526014602482015273696e73756666696369656e742062616c616e636560601b6044820152606401604051809103906117fb61500c565b50505b61180f5a61180a615120565b6135f1565b1561185b5760405162461bcd60e51b815260206004820152600f60248201526e636f6f6c646f776e2061637469766560881b60448201526064016040518091039061185861500c565b50505b6118636142ee565b600061186d61338e565b9050600061189461187c611385565b61188e85670de0b6b3a764000061471f565b90614787565b90506118a85a6118a2615120565b846147c7565b60008060ce6118b5615077565b906101000a90046001600160a01b031690506060816001600160a01b031663e5406dbf6040518163ffffffff1660e01b815260040160006040518083038186806118fd6151ac565b1580156119125760008061190f61500c565b50505b505a61191c6151f8565b505050505015801561193b573d6000803e3d600061193861500c565b50505b505050506040513d6000823e601f3d908101601f19168201604052602081101561196d5760008061196a61500c565b50505b8101908080516040519392919084600160201b8211156119955760008061199261500c565b50505b9083019060208201858111156119b3576000806119b061500c565b50505b82518660208202830111600160201b821117156119d8576000806119d561500c565b50505b825250602001908051906020019060200280838360005b83811015611a075780820151838201526020016119ef565b50505050905001604052505050905060008151905060005b81811015611c3c576000838281518110611a3557fe5b602002602001015190506000816001600160a01b03166370a082315a63996d79a5598160e01b8152602081600483336000905af158601d01573d60011458600c01573d6000803e3d621234565260ea61109c528051925060005b6040811015611aa657600082820152602001611a8f565b5050506040516001600160e01b031960e084901b1681526001600160a01b0390911660048201526024016020604051808303818680611ae36151ac565b158015611af857600080611af561500c565b50505b505a611b026151f8565b5050505050158015611b21573d6000803e3d6000611b1e61500c565b50505b505050506040513d6020811015611b4057600080611b3d61500c565b50505b810190808051935060009250611b669150670de0b6b3a7640000905061188e848b61471f565b90508015611c3157826001600160a01b031663a9059cbb5a611b86615120565b836040516001600160e01b031960e085901b1681526001600160a01b039092166004830152602482015260440160206040518083038160008780611bc86151ac565b158015611bdd57600080611bda61500c565b50505b505a611be76152e3565b505050505050158015611c07573d6000803e3d6000611c0461500c565b50505b505050506040513d6020811015611c2657600080611c2361500c565b50505b810190808051505050505b505050600101611a1f565b506000611c55670de0b6b3a764000061188e878961471f565b90507f79d44cc8beeed36226f14818b2ecaca7ef252bcd56c9ae35f5a86869dbdefb975a63996d79a5598160e01b8152602081600483336000905af158601d01573d60011458600c01573d6000803e3d621234565260ea61109c528051925060005b6040811015611cce57600082820152602001611cb7565b5050505a611cda615120565b838a611ce85a6117a7615120565b611cf061338e565b611cf8611385565b5a611d01615166565b6040516001600160a01b0398891681529690971660208701526040808701959095526060860193909352608085019190915260a084015260c083015260e082019290925261010001905180910390a15050505050506001609760006101000a81611d69615077565b8160ff02191690831515021790611d7e6150d2565b50505050565b600080606a611d91615077565b906101000a900460ff16905090565b60006110c4611dad613c10565b846115d58560666000611dbe613c10565b6001600160a01b03166001600160a01b031681526020019081526020016000206001600160a01b038916600090815260209190915260409020611dff615077565b906148e7565b611e0d614060565b6001600160a01b03165a611e1f615120565b6001600160a01b031614611e715760405162461bcd60e51b815260206004820152600c60248201526b37b7363c9036b0b730b3b2b960a11b604482015260640160405180910390611e6e61500c565b50505b801515600060c9611e80615077565b906101000a900460ff1615151415611ee05760405162461bcd60e51b8152602060048201526016602482015275199b1859c81b5d5cdd08189948191a5999995c995b9d60521b604482015260640160405180910390611edd61500c565b50505b611ee981614002565b50565b600080611f04858560200260040160ff166020613858565b90506000611f1786600484016020613858565b905080611f685760405162461bcd60e51b8152602060048201526012602482015271696e707574206973206e6f7420617272617960701b604482015260640160405180910390611f6561500c565b50505b60ff84168111611fc05760405162461bcd60e51b815260206004820152601660248201527534b73b30b634b21030b93930bc903837b9b4ba34b7b760511b604482015260640160405180910390611fbd61500c565b50505b611fda866020600160ff8816018102850160040190613858565b9695505050505050565b60008060cb611ff1615077565b906101000a90046001600160a01b03166001600160a01b0316634501b0886040518163ffffffff1660e01b815260040160206040518083038186806120346151ac565b1580156120495760008061204661500c565b50505b505a6120536151f8565b5050505050158015612072573d6000803e3d600061206f61500c565b50505b505050506040513d60208110156120915760008061208e61500c565b50505b810190808051935050505090565b60006120a9614060565b6001600160a01b03165a6120bb615120565b6001600160a01b031614806120e35750600060c96120d7615077565b906101000a900460ff16155b806120fa57506120fa5a6120f5615120565b613653565b61214a5760405162461bcd60e51b81526020600482015260146024820152731bdb9b1e481b595b58995c9cc8185b1b1bddd95960621b60448201526064016040518091039061214761500c565b50505b600060cb612156615077565b906101000a90046001600160a01b03166001600160a01b031663b187bd266040518163ffffffff1660e01b815260040160206040518083038186806121996151ac565b1580156121ae576000806121ab61500c565b50505b505a6121b86151f8565b50505050501580156121d7573d6000803e3d60006121d461500c565b50505b505050506040513d60208110156121f6576000806121f361500c565b50505b81019080805115925061224e9150505760405162461bcd60e51b815260206004820152601060248201526f18dbdb9d1c9858dd1cc81c185d5cd95960821b60448201526064016040518091039061224b61500c565b50505b600060ce61225a615077565b906101000a90046001600160a01b03166001600160a01b031663bdbef07d846040516001600160e01b031960e084901b1681526001600160a01b03909116600482015260240160206040518083038186806122b36151ac565b1580156122c8576000806122c561500c565b50505b505a6122d26151f8565b50505050501580156122f1573d6000803e3d60006122ee61500c565b50505b505050506040513d60208110156123105760008061230d61500c565b50505b810190808051925061236c9150505760405162461bcd60e51b81526020600482015260156024820152741a5b9d985b1a590819195c1bdcda5d08185cdcd95d605a1b60448201526064016040518091039061236961500c565b50505b5a612375615166565b60cd60005a612382615120565b6001600160a01b03166001600160a01b0316815260200190815260200160002081906123ac6150d2565b5050506123b76142ee565b60006123c161338e565b905060006123cd611385565b9050846001600160a01b03166323b872dd5a6123e7615120565b5a63996d79a5598160e01b8152602081600483336000905af158601d01573d60011458600c01573d6000803e3d621234565260ea61109c528051925060005b604081101561243d57600082820152602001612426565b505050876040516001600160e01b031960e086901b1681526001600160a01b03938416600482015291909216602482015260448101919091526064016020604051808303816000878061248e6151ac565b1580156124a3576000806124a061500c565b50505b505a6124ad6152e3565b5050505050501580156124cd573d6000803e3d60006124ca61500c565b50505b505050506040513d60208110156124ec576000806124e961500c565b50505b81019080805192506125489150505760405162461bcd60e51b81526020600482015260156024820152741d1bdad95b881d1c985b9cd9995c8819985a5b1959605a1b60448201526064016040518091039061254561500c565b50505b60008060ce612555615077565b906101000a90046001600160a01b03166001600160a01b03166329c07fba87876040516001600160e01b031960e085901b1681526001600160a01b039092166004830152602482015260440160206040518083038186806125b46151ac565b1580156125c9576000806125c661500c565b50505b505a6125d36151f8565b50505050501580156125f2573d6000803e3d60006125ef61500c565b50505b505050506040513d60208110156126115760008061260e61500c565b50505b810190808051935060009250508315905061263b576126348461188e848661471f565b905061263e565b50805b6126505a61264a615120565b82614946565b7f87fdcba84e083ebb8fd661bbafee3eb38764ec6f0cbeea8ed52deffa67bd45dc5a63996d79a5598160e01b8152602081600483336000905af158601d01573d60011458600c01573d6000803e3d621234565260ea61109c528051925060005b60408110156126c7576000828201526020016126b0565b5050505a6126d3615120565b84846126e15a6117a7615120565b6126eb8a896148e7565b6126f58a896148e7565b5a6126fe615166565b6040516001600160a01b0398891681529690971660208701526040808701959095526060860193909352608085019190915260a084015260c083015260e082019290925261010001905180910390a19695505050505050565b6000818301845110156127b95760405162461bcd60e51b815260206004820152601b60248201527f52656164696e67206279746573206f7574206f6620626f756e647300000000006044820152606401604051809103906127b661500c565b50505b8260200184015190508160040380156127d8576008810260020a820491505b509392505050565b600060c96127ec615077565b906101000a900460ff1681565b6001600160a01b03811660009081526065602052604081206110c8615077565b6000808060cb612827615077565b906101000a90046001600160a01b03166001600160a01b0316631d68702d6040518163ffffffff1660e01b8152600401602060405180830381868061286a6151ac565b15801561287f5760008061287c61500c565b50505b505a6128896151f8565b50505050501580156128a8573d6000803e3d60006128a561500c565b50505b505050506040513d60208110156128c7576000806128c461500c565b50505b8101908080519350506001600160a01b0383169150505a6128e6615120565b6001600160a01b0316146129495760405162461bcd60e51b815260206004820152601860248201527f6f6e6c792044414f206164647265737320616c6c6f776564000000000000000060448201526064016040518091039061294661500c565b50505b8260ce600181612957615077565b816001600160a01b0302191690836001600160a01b03160217906129796150d2565b5050507f63fb64c359a4cae97e1bf003c1ab11390b5f0e18cc5b3d67b90bd61c0f5c52fd835a6129a7615120565b6040516001600160a01b039283168152911660208201526040908101905180910390a150600192915050565b60cc6115fc615077565b60006129e7614060565b6001600160a01b03165a6129f9615120565b6001600160a01b03161480612a2e5750612a11614a5f565b6001600160a01b03165a612a23615120565b6001600160a01b0316145b612a805760405162461bcd60e51b815260206004820152601660248201527537b7363c9036b0b730b3b2b91037b9103a3930b232b960511b604482015260640160405180910390612a7d61500c565b50505b600060cb612a8c615077565b906101000a90046001600160a01b03166001600160a01b031663b187bd266040518163ffffffff1660e01b81526004016020604051808303818680612acf6151ac565b158015612ae457600080612ae161500c565b50505b505a612aee6151f8565b5050505050158015612b0d573d6000803e3d6000612b0a61500c565b50505b505050506040513d6020811015612b2c57600080612b2961500c565b50505b810190808051159250612b849150505760405162461bcd60e51b815260206004820152601060248201526f18dbdb9d1c9858dd1cc81c185d5cd95960821b604482015260640160405180910390612b8161500c565b50505b6001600160a01b038316612be75760405162461bcd60e51b815260206004820152601c60248201527f6e6f6e2d7a65726f206164647265737320697320726571756972656400000000604482015260640160405180910390612be461500c565b50505b60008060cb612bf4615077565b906101000a90046001600160a01b03166001600160a01b0316637027ea6c856040516001600160e01b031960e084901b1681526001600160a01b0390911660048201526024016020604051808303818680612c4d6151ac565b158015612c6257600080612c5f61500c565b50505b505a612c6c6151f8565b5050505050158015612c8b573d6000803e3d6000612c8861500c565b50505b505050506040513d6020811015612caa57600080612ca761500c565b50505b81019080805193505050506001600160a01b038116612d0e5760405162461bcd60e51b815260206004820152601360248201527234b73b30b634b2103232b9ba34b730ba34b7b760691b604482015260640160405180910390612d0b61500c565b50505b600060cb612d1a615077565b906101000a90046001600160a01b03166001600160a01b0316638d554cad6040518163ffffffff1660e01b81526004016020604051808303818680612d5d6151ac565b158015612d7257600080612d6f61500c565b50505b505a612d7c6151f8565b5050505050158015612d9b573d6000803e3d6000612d9861500c565b50505b505050506040513d6020811015612dba57600080612db761500c565b50505b8101908080516001600160a01b03858116911614159250829150612ea890505750600060ce612de7615077565b906101000a90046001600160a01b03166001600160a01b0316639be918e6856040516001600160e01b031960e084901b1681526001600160a01b0390911660048201526024016020604051808303818680612e406151ac565b158015612e5557600080612e5261500c565b50505b505a612e5f6151f8565b5050505050158015612e7e573d6000803e3d6000612e7b61500c565b50505b505050506040513d6020811015612e9d57600080612e9a61500c565b50505b810190808051925050505b612eec5760405162461bcd60e51b815260040180806020018281038252602a8152602001806154f6602a913960400191505060405180910390612ee961500c565b50505b6001600160a01b03811663e23ff437600060ce612f07615077565b906101000a90046001600160a01b0316856040518363ffffffff1660e01b815260040180836001600160a01b0316815260200180602001828103825283818151815260200191508051906020019080838360005b83811015612f73578082015183820152602001612f5b565b50505050905090810190601f168015612fa05780820380516001836020036101000a031916815260200191505b50935050505060206040518083038160008780612fbb6151ac565b158015612fd057600080612fcd61500c565b50505b505a612fda6152e3565b505050505050158015612ffa573d6000803e3d6000612ff761500c565b50505b505050506040513d60208110156130195760008061301661500c565b50505b81019080805192506130739150505760405162461bcd60e51b815260206004820152601360248201527234b73b30b634b2103a3930b739b0b1ba34b7b760691b60448201526064016040518091039061307061500c565b50505b6000846001600160a01b0316846040518082805190602001908083835b602083106130af5780518252601f199092019160209182019101613090565b6001836020036101000a0380198251168184511680821785525050505050509050019150506000604051808303816000865a6130e96152e3565b5050505050509150503d806000811461311e576040513d603f01601f191681016040523d815291503d6000602084013e613123565b606091505b50909150506001811515146131875760405162461bcd60e51b815260206004820152601a60248201527f6661696c656420746f2065786563757465207468652063616c6c00000000000060448201526064016040518091039061318461500c565b50505b7f4e86ad0da28cbaaaa7e93e36c43b32696e970535225b316f1b84fbf30bdc04e86131b0614060565b5a6131b9615166565b6040516001600160a01b03909216825260208201526040908101905180910390a1506001949350505050565b6000806131f061338e565b905060006131fc611385565b90506132088282614aaf565b9250505090565b6000613226838360200260040160ff166020613858565b9392505050565b606060698061323a615077565b600181600116156101000203166002900480601f016020809104026020016040519081016040528181529190602083018280613274615077565b600181600116156101000203166002900480156110a65780601f106132a0576101008083611066615077565b820191906000526020600020905b816132b7615077565b815290600101906020018083116132ae57509395945050505050565b6000806132eb848460200260040160ff166020613858565b90506132fc84600483016020613858565b949350505050565b60006110c4613311613c10565b846115d585604051606081016040526025808252615601602083013960666000613339613c10565b6001600160a01b03166001600160a01b031681526020019081526020016000206001600160a01b038a166000908152602091909152604090206115ce615077565b60006110c4613387613c10565b84846140b0565b600080808060ce61339d615077565b906101000a90046001600160a01b031690506060816001600160a01b031663e5406dbf6040518163ffffffff1660e01b815260040160006040518083038186806133e56151ac565b1580156133fa576000806133f761500c565b50505b505a6134046151f8565b5050505050158015613423573d6000803e3d600061342061500c565b50505b505050506040513d6000823e601f3d908101601f1916820160405260208110156134555760008061345261500c565b50505b8101908080516040519392919084600160201b82111561347d5760008061347a61500c565b50505b90830190602082018581111561349b5760008061349861500c565b50505b82518660208202830111600160201b821117156134c0576000806134bd61500c565b50505b825250602001908051906020019060200280838360005b838110156134ef5780820151838201526020016134d7565b50505050905001604052505050905060008151905060005b818110156135e7576135dd846001600160a01b031663d8af8ed485848151811061352d57fe5b60200260200101516040516001600160e01b031960e084901b1681526001600160a01b039091166004820152602401602060405180830381868061356f6151ac565b1580156135845760008061358161500c565b50505b505a61358e6151f8565b50505050501580156135ad573d6000803e3d60006135aa61500c565b50505b505050506040513d60208110156135cc576000806135c961500c565b50505b8101908080518993509150506148e7565b9450600101613507565b5092935050505090565b6000806135fc611fe4565b6001600160a01b038416600090815260cd6020529091506136238260408320611dff615077565b90505a61362e615166565b8110156136405760009250505061154b565b6132fc5a61364c615166565b8290614adf565b60008060ce613660615077565b906101000a90046001600160a01b03166001600160a01b031663bbbf725b836040516001600160e01b031960e084901b1681526001600160a01b03909116600482015260240160206040518083038186806136b96151ac565b1580156136ce576000806136cb61500c565b50505b505a6136d86151f8565b50505050501580156136f7573d6000803e3d60006136f461500c565b50505b505050506040513d60208110156137165760008061371361500c565b50505b81019080805195945050505050565b60006110c88260006004612757565b600060cb610fe0615077565b600060cb61374c615077565b906101000a90046001600160a01b03166001600160a01b031663b187bd266040518163ffffffff1660e01b8152600401602060405180830381868061378f6151ac565b1580156137a4576000806137a161500c565b50505b505a6137ae6151f8565b50505050501580156137cd573d6000803e3d60006137ca61500c565b50505b505050506040513d60208110156137ec576000806137e961500c565b50505b8101908080511592506138449150505760405162461bcd60e51b815260206004820152601060248201526f18dbdb9d1c9858dd1cc81c185d5cd95960821b60448201526064016040518091039061384161500c565b50505b61384c6142ee565b565b60ca6115fc615077565b6000818301845110156138ba5760405162461bcd60e51b815260206004820152601b60248201527f52656164696e67206279746573206f7574206f6620626f756e647300000000006044820152606401604051809103906138b761500c565b50505b8260200184015190508160200380156127d85760080260020a90049392505050565b6001600160a01b03821660009081526066602052604081206001600160a01b038316600090815260209190915260409020613226615077565b60008061392061338e565b9050600061392c611385565b90506000808060cb61393c615077565b906101000a90046001600160a01b03166001600160a01b031663b7a545265a63996d79a5598160e01b8152602081600483336000905af158601d01573d60011458600c01573d6000803e3d621234565260ea61109c528051925060005b60408110156139b057600082820152602001613999565b5050506040516001600160e01b031960e084901b1681526001600160a01b039091166004820152602401604080518083038186806139ec6151ac565b158015613a01576000806139fe61500c565b50505b505a613a0b6151f8565b5050505050158015613a2a573d6000803e3d6000613a2761500c565b50505b505050506040513d6040811015613a4957600080613a4661500c565b50505b8101908080519291906020018051939550929350613a79925086915085905060cc613a72615077565b8585614b1f565b94505050505090565b6060600060ce613a90615077565b906101000a90046001600160a01b03166001600160a01b031663fed4416a6040518163ffffffff1660e01b81526004016000604051808303818680613ad36151ac565b158015613ae857600080613ae561500c565b50505b505a613af26151f8565b5050505050158015613b11573d6000803e3d6000613b0e61500c565b50505b505050506040513d6000823e601f3d908101601f191682016040526020811015613b4357600080613b4061500c565b50505b8101908080516040519392919084600160201b821115613b6b57600080613b6861500c565b50505b908301906020820185811115613b8957600080613b8661500c565b50505b8251600160201b811182820188101715613bab57600080613ba861500c565b50505b825250602001908051906020019080838360005b83811015613bd7578082015183820152602001613bbf565b50505050905090810190601f168015613c045780820380516001836020036101000a031916815260200191505b50604052505050905090565b60005a611391615120565b6001600160a01b038316613c695760405162461bcd60e51b81526004018080602001828103825260248152602001806155dd6024913960400191505060405180910390613c6661500c565b50505b6001600160a01b038216613cb75760405162461bcd60e51b81526004018080602001828103825260228152602001806154ae6022913960400191505060405180910390613cb461500c565b50505b6001600160a01b038316600090815260666020528190604090206001600160a01b0384166000908152602091909152604090208190613cf46150d2565b505050816001600160a01b0316836001600160a01b03167f8c5be1e5ebec7d5bd14f71427d1e84f3dd0314c0f7b2291e5b200ac8c7c3b9258360405190815260200160405180910390a3505050565b6000805a63996d79a5598160e01b8152602081600483336000905af158601d01573d60011458600c01573d6000803e3d621234565260ea61109c528051925060005b6040811015613d9c57600082820152602001613d85565b5050509050600081613dac6151ac565b159250505090565b60016000613dc0615077565b906101000a900460ff1680613dd85750613dd8613d43565b80613df55750600080613de9615077565b906101000a900460ff16155b613e395760405162461bcd60e51b815260040180806020018281038252602e815260200180615569602e913960400191505060405180910390613e3661500c565b50505b6000600181613e46615077565b906101000a900460ff161590508015613eac576001600061010081613e69615077565b8160ff02191690831515021790613e7e6150d2565b50505060016000806101000a81613e93615077565b8160ff02191690831515021790613ea86150d2565b5050505b613eb4614b8e565b613ebe8383614c9a565b8015613ee85760008061010081613ed3615077565b8160ff0219169083151502179061137d6150d2565b505050565b60016000613ef9615077565b906101000a900460ff1680613f115750613f11613d43565b80613f2e5750600080613f22615077565b906101000a900460ff16155b613f725760405162461bcd60e51b815260040180806020018281038252602e815260200180615569602e913960400191505060405180910390613f6f61500c565b50505b6000600181613f7f615077565b906101000a900460ff161590508015613fe5576001600061010081613fa2615077565b8160ff02191690831515021790613fb76150d2565b50505060016000806101000a81613fcc615077565b8160ff02191690831515021790613fe16150d2565b5050505b613fed614df7565b8015611ee95760008061010081611d69615077565b8060c9600181614010615077565b8160ff021916908315150217906140256150d2565b5050507f8d75e9ede4188432084b863d70b3416010c97547dfeb4fc17734d2e997ee0f3981604051901515815260200160405180910390a150565b60008060ce61406d615077565b906101000a90046001600160a01b03166001600160a01b031663481c6a756040518163ffffffff1660e01b815260040160206040518083038186806120346151ac565b6001600160a01b0383166140fe5760405162461bcd60e51b81526004018080602001828103825260258152602001806155b860259139604001915050604051809103906140fb61500c565b50505b6001600160a01b03821661414c5760405162461bcd60e51b8152600401808060200182810382526023815260200180615469602391396040019150506040518091039061414961500c565b50505b614157838383614efd565b614192816040516060810160405260268082526154d060208301396001600160a01b03861660009081526065602052604090206115ce615077565b6001600160a01b038416600090815260656020526040902081906141b46150d2565b5050506001600160a01b038216600090815260656020526141dd90829060409020611dff615077565b6001600160a01b038316600090815260656020526040902081906141ff6150d2565b505050816001600160a01b0316836001600160a01b03167fddf252ad1be2c89b69c2b068fc378daa952ba7f163c4a11628f55a4df523b3ef8360405190815260200160405180910390a3505050565b600081848411156142e65760405162461bcd60e51b81526004018080602001828103825283818151815260200191508051906020019080838360005b838110156142a257808201518382015260200161428a565b50505050905090810190601f1680156142cf5780820380516001836020036101000a031916815260200191505b5092505050604051809103906142e361500c565b50505b505050900390565b60006142f861338e565b90506000614304611385565b90506000808060cb614314615077565b906101000a90046001600160a01b03166001600160a01b031663b7a545265a63996d79a5598160e01b8152602081600483336000905af158601d01573d60011458600c01573d6000803e3d621234565260ea61109c528051925060005b604081101561438857600082820152602001614371565b5050506040516001600160e01b031960e084901b1681526001600160a01b039091166004820152602401604080518083038186806143c46151ac565b1580156143d9576000806143d661500c565b50505b505a6143e36151f8565b5050505050158015614402573d6000803e3d60006143ff61500c565b50505b505050506040513d60408110156144215760008061441e61500c565b50505b81019080805192919060200180519395509293506000925061445391508690508560cc61444c615077565b8686614b1f565b9050606481101561446857505050505061384c565b60008060cb614475615077565b906101000a90046001600160a01b03166001600160a01b0316631d68702d6040518163ffffffff1660e01b815260040160206040518083038186806144b86151ac565b1580156144cd576000806144ca61500c565b50505b505a6144d76151f8565b50505050501580156144f6573d6000803e3d60006144f361500c565b50505b505050506040513d60208110156145155760008061451261500c565b50505b81019080805193506000925082915081905060cb614531615077565b906101000a90046001600160a01b03166001600160a01b0316639cada6e46040518163ffffffff1660e01b8152600401604080518083038186806145736151ac565b1580156145885760008061458561500c565b50505b505a6145926151f8565b50505050501580156145b1573d6000803e3d60006145ae61500c565b50505b505050506040513d60408110156145d0576000806145cd61500c565b50505b8101908080519291906020018051939550929350600092506145fa915083905061188e878661471f565b905060006146088683614adf565b9050811561461a5761461a8583614946565b801561462b5761462b61264a614060565b6146358a8a614aaf565b8060cc6146406150d2565b5050507f755a8059d66d8d243bc9f6913f429a811f154599d0538bb0b6a2ac23f23d2ccd5a63996d79a5598160e01b8152602081600483336000905af158601d01573d60011458600c01573d6000803e3d621234565260ea61109c528051925060005b60408110156146ba576000828201526020016146a3565b5050506146c5614060565b88858560cc6146d2615077565b6040516001600160a01b0396871681529490951660208501526040808501939093526060840191909152608083015260a082019290925260c001905180910390a150505050505050505050565b60008261472e575060006110c8565b8282028284828161473b57fe5b04146132265760405162461bcd60e51b8152600401808060200182810382526021815260200180615520602191396040019150506040518091039061477e61500c565b50509392505050565b6000613226838360405160408082019052601a81527f536166654d6174683a206469766973696f6e206279207a65726f0000000000006020820152614f61565b6001600160a01b0382166148155760405162461bcd60e51b8152600401808060200182810382526021815260200180615597602191396040019150506040518091039061481261500c565b50505b61482182600083614efd565b61485c8160405160608101604052602280825261548c60208301396001600160a01b03851660009081526065602052604090206115ce615077565b6001600160a01b0383166000908152606560205260409020819061487e6150d2565b50505061489581606761488f615077565b90614adf565b8060676148a06150d2565b5060009150506001600160a01b0383167fddf252ad1be2c89b69c2b068fc378daa952ba7f163c4a11628f55a4df523b3ef8360405190815260200160405180910390a35050565b6000828201838110156132265760405162461bcd60e51b815260206004820152601b60248201527f536166654d6174683a206164646974696f6e206f766572666c6f77000000000060448201526064016040518091039061477e61500c565b6001600160a01b0382166149a95760405162461bcd60e51b815260206004820152601f60248201527f45524332303a206d696e7420746f20746865207a65726f2061646472657373006044820152606401604051809103906149a661500c565b50505b6149b560008383614efd565b6149c3816067611dff615077565b8060676149ce6150d2565b5050506001600160a01b038216600090815260656020526149f790829060409020611dff615077565b6001600160a01b03831660009081526065602052604090208190614a196150d2565b5050506001600160a01b03821660007fddf252ad1be2c89b69c2b068fc378daa952ba7f163c4a11628f55a4df523b3ef8360405190815260200160405180910390a35050565b60008060ce614a6c615077565b906101000a90046001600160a01b03166001600160a01b0316631758078b6040518163ffffffff1660e01b815260040160206040518083038186806120346151ac565b6000811580614abc575082155b15614ac9575060006110c8565b6132268261188e85670de0b6b3a764000061471f565b6000613226838360405160408082019052601e81527f536166654d6174683a207375627472616374696f6e206f766572666c6f770000602082015261424e565b6000841580614b2c575085155b15614b395750600061115e565b6000614b518661188e89670de0b6b3a764000061471f565b9050848111614b6457600091505061115e565b6000614b828261188e868189614b7c8d81878f614adf565b9061471f565b98975050505050505050565b60016000614b9a615077565b906101000a900460ff1680614bb25750614bb2613d43565b80614bcf5750600080614bc3615077565b906101000a900460ff16155b614c135760405162461bcd60e51b815260040180806020018281038252602e815260200180615569602e913960400191505060405180910390614c1061500c565b50505b6000600181614c20615077565b906101000a900460ff161590508015613fed576001600061010081614c43615077565b8160ff02191690831515021790614c586150d2565b50505060016000806101000a81614c6d615077565b8160ff02191690831515021790614c826150d2565b5050508015611ee95760008061010081611d69615077565b60016000614ca6615077565b906101000a900460ff1680614cbe5750614cbe613d43565b80614cdb5750600080614ccf615077565b906101000a900460ff16155b614d1f5760405162461bcd60e51b815260040180806020018281038252602e815260200180615569602e913960400191505060405180910390614d1c61500c565b50505b6000600181614d2c615077565b906101000a900460ff161590508015614d92576001600061010081614d4f615077565b8160ff02191690831515021790614d646150d2565b50505060016000806101000a81614d79615077565b8160ff02191690831515021790614d8e6150d2565b5050505b6068838051614da59291602001906153a9565b506069828051614db99291602001906153a9565b506012606a600181614dc9615077565b8160ff021916908360ff16021790614ddf6150d2565b5050508015613ee85760008061010081613ed3615077565b60016000614e03615077565b906101000a900460ff1680614e1b5750614e1b613d43565b80614e385750600080614e2c615077565b906101000a900460ff16155b614e7c5760405162461bcd60e51b815260040180806020018281038252602e815260200180615569602e913960400191505060405180910390614e7961500c565b50505b6000600181614e89615077565b906101000a900460ff161590508015614eef576001600061010081614eac615077565b8160ff02191690831515021790614ec16150d2565b50505060016000806101000a81614ed6615077565b8160ff02191690831515021790614eeb6150d2565b5050505b600160978181614c6d615077565b614f08838383613ee8565b614f11836135f1565b15613ee85760405162461bcd60e51b815260206004820152600f60248201526e636f6f6c646f776e2061637469766560881b604482015260640160405180910390614f5a61500c565b5050505050565b60008183614ff65760405162461bcd60e51b81526004018080602001828103825283818151815260200191508051906020019080838360005b83811015614fb2578082015183820152602001614f9a565b50505050905090810190601f168015614fdf5780820380516001836020036101000a031916815260200191505b509250505060405180910390614ff361500c565b50505b50600083858161500257fe5b0495945050505050565b632a2a7adb598160e01b8152600481016020815285602082015260005b86811015615044578086015182820160400152602001615029565b506020828760640184336000905af158601d01573d60011458600c01573d6000803e3d621234565260ea61109c52505050565b6303daa959598160e01b8152836004820152602081602483336000905af158601d01573d60011458600c01573d6000803e3d621234565260ea61109c528051935060005b6040811015613ee8576000828201526020016150bb565b6322bd64c0598160e01b8152836004820152846024820152600081604483336000905af158601d01573d60011458600c01573d6000803e3d621234565260ea61109c526000815260206150bb565b6373509064598160e01b8152602081600483336000905af158601d01573d60011458600c01573d6000803e3d621234565260ea61109c52805160008252935060206150bb565b63bdbf8c36598160e01b8152602081600483336000905af158601d01573d60011458600c01573d6000803e3d621234565260ea61109c52805160008252935060206150bb565b638435035b598160e01b8152836004820152602081602483336000905af158601d01573d60011458600c01573d6000803e3d621234565260ea61109c52805160008252935060206150bb565b638540661f598160e01b8152615229565b80808311156110c8575090919050565b80808310156110c8575090919050565b836004820152846024820152606060448201528660648201526084810160005b88811015615261578088015182820152602001615249565b506060828960a40184336000905af158601d01573d60011458600c01573d6000803e3d621234565260ea61109c52815160408301513d6000853e8b8b82606087013350600060045af150596152b68d3d615219565b8c016152c28187615209565b5b828110156152d757600081526020016152c3565b50929c50505050505050565b6385979f76598160e01b8152836004820152846024820152606060448201528760648201526084810160005b8981101561532757808901518282015260200161530f565b506060828a60a40184336000905af158601d01573d60011458600c01573d6000803e3d621234565260ea61109c52815160408301513d6000853e8c8c82606087013350600060045af1505961537c8e3d615219565b8d016153888187615209565b5b8281101561539d5760008152602001615389565b50929d50505050505050565b82806153b3615077565b600181600116156101000203166002900490600052602060002090601f016020900481019282601f106153fa57805160ff191683800117856153f36150d2565b5050615439565b828001600101856154096150d2565b50508215615439579182015b82811115615439578251826154286150d2565b505091602001919060010190615415565b50615445929150615449565b5090565b80821115615445576000808261545d6150d2565b50505060010161544956fe45524332303a207472616e7366657220746f20746865207a65726f206164647265737345524332303a206275726e20616d6f756e7420657863656564732062616c616e636545524332303a20617070726f766520746f20746865207a65726f206164647265737345524332303a207472616e7366657220616d6f756e7420657863656564732062616c616e6365696e76616c69642064657374696e6174696f6e206f72206173736574206e6f7420737570706f72746564536166654d6174683a206d756c7469706c69636174696f6e206f766572666c6f7745524332303a207472616e7366657220616d6f756e74206578636565647320616c6c6f77616e6365436f6e747261637420696e7374616e63652068617320616c7265616479206265656e20696e697469616c697a656445524332303a206275726e2066726f6d20746865207a65726f206164647265737345524332303a207472616e736665722066726f6d20746865207a65726f206164647265737345524332303a20617070726f76652066726f6d20746865207a65726f206164647265737345524332303a2064656372656173656420616c6c6f77616e63652062656c6f77207a65726f",
  "linkReferences": {},
  "deployedLinkReferences": {}
}