{
  "_format": "hh-sol-artifact-1",
  "contractName": "PoolLogic-ovm",
  "sourceName": "contracts/PoolLogic.sol",
  "abi": [
    {
      "anonymous": false,
      "inputs": [
        {
          "indexed": true,
          "internalType": "address",
          "name": "owner",
          "type": "address"
        },
        {
          "indexed": true,
          "internalType": "address",
          "name": "spender",
          "type": "address"
        },
        {
          "indexed": false,
          "internalType": "uint256",
          "name": "value",
          "type": "uint256"
        }
      ],
      "name": "Approval",
      "type": "event"
    },
    {
      "anonymous": false,
      "inputs": [
        {
          "indexed": false,
          "internalType": "address",
          "name": "fundAddress",
          "type": "address"
        },
        {
          "indexed": false,
          "internalType": "address",
          "name": "investor",
          "type": "address"
        },
        {
          "indexed": false,
          "internalType": "uint256",
          "name": "valueDeposited",
          "type": "uint256"
        },
        {
          "indexed": false,
          "internalType": "uint256",
          "name": "fundTokensReceived",
          "type": "uint256"
        },
        {
          "indexed": false,
          "internalType": "uint256",
          "name": "totalInvestorFundTokens",
          "type": "uint256"
        },
        {
          "indexed": false,
          "internalType": "uint256",
          "name": "fundValue",
          "type": "uint256"
        },
        {
          "indexed": false,
          "internalType": "uint256",
          "name": "totalSupply",
          "type": "uint256"
        },
        {
          "indexed": false,
          "internalType": "uint256",
          "name": "time",
          "type": "uint256"
        }
      ],
      "name": "Deposit",
      "type": "event"
    },
    {
      "anonymous": false,
      "inputs": [
        {
          "indexed": false,
          "internalType": "address",
          "name": "pool",
          "type": "address"
        },
        {
          "indexed": false,
          "internalType": "address",
          "name": "manager",
          "type": "address"
        },
        {
          "indexed": false,
          "internalType": "uint256",
          "name": "available",
          "type": "uint256"
        },
        {
          "indexed": false,
          "internalType": "uint256",
          "name": "daoFee",
          "type": "uint256"
        },
        {
          "indexed": false,
          "internalType": "uint256",
          "name": "managerFee",
          "type": "uint256"
        },
        {
          "indexed": false,
          "internalType": "uint256",
          "name": "tokenPriceAtLastFeeMint",
          "type": "uint256"
        }
      ],
      "name": "ManagerFeeMinted",
      "type": "event"
    },
    {
      "anonymous": false,
      "inputs": [
        {
          "indexed": false,
          "internalType": "address",
          "name": "poolManagerLogic",
          "type": "address"
        },
        {
          "indexed": false,
          "internalType": "address",
          "name": "from",
          "type": "address"
        }
      ],
      "name": "PoolManagerLogicSet",
      "type": "event"
    },
    {
      "anonymous": false,
      "inputs": [
        {
          "indexed": false,
          "internalType": "bool",
          "name": "isPoolPrivate",
          "type": "bool"
        }
      ],
      "name": "PoolPrivacyUpdated",
      "type": "event"
    },
    {
      "anonymous": false,
      "inputs": [
        {
          "indexed": true,
          "internalType": "address",
          "name": "from",
          "type": "address"
        },
        {
          "indexed": true,
          "internalType": "address",
          "name": "to",
          "type": "address"
        },
        {
          "indexed": false,
          "internalType": "uint256",
          "name": "value",
          "type": "uint256"
        }
      ],
      "name": "Transfer",
      "type": "event"
    },
    {
      "anonymous": false,
      "inputs": [
        {
          "indexed": false,
          "internalType": "address",
          "name": "fundAddress",
          "type": "address"
        },
        {
          "indexed": false,
          "internalType": "address",
          "name": "investor",
          "type": "address"
        },
        {
          "indexed": false,
          "internalType": "uint256",
          "name": "valueWithdrawn",
          "type": "uint256"
        },
        {
          "indexed": false,
          "internalType": "uint256",
          "name": "fundTokensWithdrawn",
          "type": "uint256"
        },
        {
          "indexed": false,
          "internalType": "uint256",
          "name": "totalInvestorFundTokens",
          "type": "uint256"
        },
        {
          "indexed": false,
          "internalType": "uint256",
          "name": "fundValue",
          "type": "uint256"
        },
        {
          "indexed": false,
          "internalType": "uint256",
          "name": "totalSupply",
          "type": "uint256"
        },
        {
          "indexed": false,
          "internalType": "uint256",
          "name": "time",
          "type": "uint256"
        }
      ],
      "name": "Withdrawal",
      "type": "event"
    },
    {
      "inputs": [
        {
          "internalType": "address",
          "name": "owner",
          "type": "address"
        },
        {
          "internalType": "address",
          "name": "spender",
          "type": "address"
        }
      ],
      "name": "allowance",
      "outputs": [
        {
          "internalType": "uint256",
          "name": "",
          "type": "uint256"
        }
      ],
      "stateMutability": "view",
      "type": "function"
    },
    {
      "inputs": [
        {
          "internalType": "address",
          "name": "spender",
          "type": "address"
        },
        {
          "internalType": "uint256",
          "name": "amount",
          "type": "uint256"
        }
      ],
      "name": "approve",
      "outputs": [
        {
          "internalType": "bool",
          "name": "",
          "type": "bool"
        }
      ],
      "stateMutability": "nonpayable",
      "type": "function"
    },
    {
      "inputs": [],
      "name": "availableManagerFee",
      "outputs": [
        {
          "internalType": "uint256",
          "name": "",
          "type": "uint256"
        }
      ],
      "stateMutability": "view",
      "type": "function"
    },
    {
      "inputs": [
        {
          "internalType": "address",
          "name": "account",
          "type": "address"
        }
      ],
      "name": "balanceOf",
      "outputs": [
        {
          "internalType": "uint256",
          "name": "",
          "type": "uint256"
        }
      ],
      "stateMutability": "view",
      "type": "function"
    },
    {
      "inputs": [],
      "name": "creationTime",
      "outputs": [
        {
          "internalType": "uint256",
          "name": "",
          "type": "uint256"
        }
      ],
      "stateMutability": "view",
      "type": "function"
    },
    {
      "inputs": [],
      "name": "creator",
      "outputs": [
        {
          "internalType": "address",
          "name": "",
          "type": "address"
        }
      ],
      "stateMutability": "view",
      "type": "function"
    },
    {
      "inputs": [],
      "name": "decimals",
      "outputs": [
        {
          "internalType": "uint8",
          "name": "",
          "type": "uint8"
        }
      ],
      "stateMutability": "view",
      "type": "function"
    },
    {
      "inputs": [
        {
          "internalType": "address",
          "name": "spender",
          "type": "address"
        },
        {
          "internalType": "uint256",
          "name": "subtractedValue",
          "type": "uint256"
        }
      ],
      "name": "decreaseAllowance",
      "outputs": [
        {
          "internalType": "bool",
          "name": "",
          "type": "bool"
        }
      ],
      "stateMutability": "nonpayable",
      "type": "function"
    },
    {
      "inputs": [
        {
          "internalType": "address",
          "name": "_asset",
          "type": "address"
        },
        {
          "internalType": "uint256",
          "name": "_amount",
          "type": "uint256"
        }
      ],
      "name": "deposit",
      "outputs": [
        {
          "internalType": "uint256",
          "name": "",
          "type": "uint256"
        }
      ],
      "stateMutability": "nonpayable",
      "type": "function"
    },
    {
      "inputs": [],
      "name": "factory",
      "outputs": [
        {
          "internalType": "address",
          "name": "",
          "type": "address"
        }
      ],
      "stateMutability": "view",
      "type": "function"
    },
    {
      "inputs": [],
      "name": "getExitCooldown",
      "outputs": [
        {
          "internalType": "uint256",
          "name": "",
          "type": "uint256"
        }
      ],
      "stateMutability": "view",
      "type": "function"
    },
    {
      "inputs": [
        {
          "internalType": "address",
          "name": "sender",
          "type": "address"
        }
      ],
      "name": "getExitRemainingCooldown",
      "outputs": [
        {
          "internalType": "uint256",
          "name": "",
          "type": "uint256"
        }
      ],
      "stateMutability": "view",
      "type": "function"
    },
    {
      "inputs": [],
      "name": "getFundSummary",
      "outputs": [
        {
          "internalType": "string",
          "name": "",
          "type": "string"
        },
        {
          "internalType": "uint256",
          "name": "",
          "type": "uint256"
        },
        {
          "internalType": "uint256",
          "name": "",
          "type": "uint256"
        },
        {
          "internalType": "address",
          "name": "",
          "type": "address"
        },
        {
          "internalType": "string",
          "name": "",
          "type": "string"
        },
        {
          "internalType": "uint256",
          "name": "",
          "type": "uint256"
        },
        {
          "internalType": "bool",
          "name": "",
          "type": "bool"
        },
        {
          "internalType": "uint256",
          "name": "",
          "type": "uint256"
        },
        {
          "internalType": "uint256",
          "name": "",
          "type": "uint256"
        }
      ],
      "stateMutability": "view",
      "type": "function"
    },
    {
      "inputs": [
        {
          "internalType": "address",
          "name": "spender",
          "type": "address"
        },
        {
          "internalType": "uint256",
          "name": "addedValue",
          "type": "uint256"
        }
      ],
      "name": "increaseAllowance",
      "outputs": [
        {
          "internalType": "bool",
          "name": "",
          "type": "bool"
        }
      ],
      "stateMutability": "nonpayable",
      "type": "function"
    },
    {
      "inputs": [
        {
          "internalType": "address",
          "name": "_factory",
          "type": "address"
        },
        {
          "internalType": "bool",
          "name": "_privatePool",
          "type": "bool"
        },
        {
          "internalType": "string",
          "name": "_fundName",
          "type": "string"
        },
        {
          "internalType": "string",
          "name": "_fundSymbol",
          "type": "string"
        },
        {
          "internalType": "address",
          "name": "_poolManagerLogic",
          "type": "address"
        }
      ],
      "name": "initialize",
      "outputs": [],
      "stateMutability": "nonpayable",
      "type": "function"
    },
    {
      "inputs": [
        {
          "internalType": "address",
          "name": "member",
          "type": "address"
        }
      ],
      "name": "isMemberAllowed",
      "outputs": [
        {
          "internalType": "bool",
          "name": "",
          "type": "bool"
        }
      ],
      "stateMutability": "view",
      "type": "function"
    },
    {
      "inputs": [
        {
          "internalType": "address",
          "name": "",
          "type": "address"
        }
      ],
      "name": "lastDeposit",
      "outputs": [
        {
          "internalType": "uint256",
          "name": "",
          "type": "uint256"
        }
      ],
      "stateMutability": "view",
      "type": "function"
    },
    {
      "inputs": [],
      "name": "managerName",
      "outputs": [
        {
          "internalType": "string",
          "name": "",
          "type": "string"
        }
      ],
      "stateMutability": "view",
      "type": "function"
    },
    {
      "inputs": [],
      "name": "mintManagerFee",
      "outputs": [],
      "stateMutability": "nonpayable",
      "type": "function"
    },
    {
      "inputs": [],
      "name": "name",
      "outputs": [
        {
          "internalType": "string",
          "name": "",
          "type": "string"
        }
      ],
      "stateMutability": "view",
      "type": "function"
    },
    {
      "inputs": [],
      "name": "poolManagerLogic",
      "outputs": [
        {
          "internalType": "address",
          "name": "",
          "type": "address"
        }
      ],
      "stateMutability": "view",
      "type": "function"
    },
    {
      "inputs": [],
      "name": "privatePool",
      "outputs": [
        {
          "internalType": "bool",
          "name": "",
          "type": "bool"
        }
      ],
      "stateMutability": "view",
      "type": "function"
    },
    {
      "inputs": [
        {
          "internalType": "address",
          "name": "_poolManagerLogic",
          "type": "address"
        }
      ],
      "name": "setPoolManagerLogic",
      "outputs": [
        {
          "internalType": "bool",
          "name": "",
          "type": "bool"
        }
      ],
      "stateMutability": "nonpayable",
      "type": "function"
    },
    {
      "inputs": [
        {
          "internalType": "bool",
          "name": "_privatePool",
          "type": "bool"
        }
      ],
      "name": "setPoolPrivate",
      "outputs": [],
      "stateMutability": "nonpayable",
      "type": "function"
    },
    {
      "inputs": [],
      "name": "symbol",
      "outputs": [
        {
          "internalType": "string",
          "name": "",
          "type": "string"
        }
      ],
      "stateMutability": "view",
      "type": "function"
    },
    {
      "inputs": [],
      "name": "tokenPrice",
      "outputs": [
        {
          "internalType": "uint256",
          "name": "",
          "type": "uint256"
        }
      ],
      "stateMutability": "view",
      "type": "function"
    },
    {
      "inputs": [],
      "name": "tokenPriceAtLastFeeMint",
      "outputs": [
        {
          "internalType": "uint256",
          "name": "",
          "type": "uint256"
        }
      ],
      "stateMutability": "view",
      "type": "function"
    },
    {
      "inputs": [],
      "name": "totalFundValue",
      "outputs": [
        {
          "internalType": "uint256",
          "name": "",
          "type": "uint256"
        }
      ],
      "stateMutability": "view",
      "type": "function"
    },
    {
      "inputs": [],
      "name": "totalSupply",
      "outputs": [
        {
          "internalType": "uint256",
          "name": "",
          "type": "uint256"
        }
      ],
      "stateMutability": "view",
      "type": "function"
    },
    {
      "inputs": [
        {
          "internalType": "address",
          "name": "recipient",
          "type": "address"
        },
        {
          "internalType": "uint256",
          "name": "amount",
          "type": "uint256"
        }
      ],
      "name": "transfer",
      "outputs": [
        {
          "internalType": "bool",
          "name": "",
          "type": "bool"
        }
      ],
      "stateMutability": "nonpayable",
      "type": "function"
    },
    {
      "inputs": [
        {
          "internalType": "address",
          "name": "sender",
          "type": "address"
        },
        {
          "internalType": "address",
          "name": "recipient",
          "type": "address"
        },
        {
          "internalType": "uint256",
          "name": "amount",
          "type": "uint256"
        }
      ],
      "name": "transferFrom",
      "outputs": [
        {
          "internalType": "bool",
          "name": "",
          "type": "bool"
        }
      ],
      "stateMutability": "nonpayable",
      "type": "function"
    },
    {
      "inputs": [
        {
          "internalType": "uint256",
          "name": "_fundTokenAmount",
          "type": "uint256"
        }
      ],
      "name": "withdraw",
      "outputs": [],
      "stateMutability": "nonpayable",
      "type": "function"
    }
  ],
  "bytecode": "0x60806040523480156200001c576000806200001962000023565b50505b5062000090565b632a2a7adb598160e01b8152600481016020815285602082015260005b868110156200005d57808601518282016040015260200162000040565b506020828760640184336000905af158600e01573d6000803e3d6000fd5b3d6001141558600a015760016000f35b505050565b613f7880620000a06000396000f3fe608060405234801561001957600080610016613988565b50505b50600436106101f95760003560e01c806370a0823111610118578063b8ea2b6e116100ab578063d8270dce1161007a578063d8270dce1461086e578063dd62ed3e14610876578063edbf6f50146108ad578063fed4416a146108b5576101f9565b8063b8ea2b6e14610800578063bbbf725b1461082f578063c45a01551461085e578063cc3c6df614610866576101f9565b806395d89b41116100e757806395d89b4114610786578063a457c2d71461078e578063a9059cbb146107c3578063ad60ffcc146107f8576101f9565b806370a0823114610718578063750226de146107475780637714f39d146107765780637ff9b5961461077e576101f9565b806329d16ee8116101905780633babaad51161015f5780633babaad5146106ab5780634501b088146106d357806347e7ef24146106db57806359b5e75e14610710576101f9565b806329d16ee8146106035780632e1a7d4d14610632578063313ce567146106585780633950935114610676576101f9565b806318160ddd116101cc57806318160ddd1461047d5780631c5918d2146104975780631e50a4a6146105bc57806323b872dd146105c4576101f9565b806302d05d3f1461020757806306fdde031461022b578063095ea7b3146102aa5780630ccb30c7146102f3575b600080610204613988565b50505b61020f6108bd565b6040516001600160a01b03909116815260200160405180910390f35b6102336108dc565b60405160208082528190810183818151815260200191508051906020019080838360005b8381101561026f578082015183820152602001610257565b50505050905090810190601f16801561029c5780820380516001836020036101000a031916815260200191505b509250505060405180910390f35b6102df600480360360408110156102c9576000806102c6613988565b50505b506001600160a01b038135169060200135610999565b604051901515815260200160405180910390f35b61047b600480360360a08110156103125760008061030f613988565b50505b6001600160a01b03823516916020810135151591810190606081016040820135600160201b81111561034c57600080610349613988565b50505b82018360208201111561036757600080610364613988565b50505b803590602001918460018302840111600160201b831117156103915760008061038e613988565b50505b91908080601f01602080910402602001604051908101604052818152929190602084018383808284376000920191909152509295949360208101935035915050600160201b8111156103eb576000806103e8613988565b50505b82018360208201111561040657600080610403613988565b50505b803590602001918460018302840111600160201b831117156104305760008061042d613988565b50505b91908080601f0160208091040260200160405190810160405281815292919060208401838380828437600092019190915250929550505090356001600160a01b031691506109b79050565b005b610485610bd5565b60405190815260200160405180910390f35b61049f610be6565b60405180806020018a8152602001898152602001886001600160a01b0316815260200180602001878152602001861515815260200185815260200184815260200183810383528c818151815260200191508051906020019080838360005b838110156105155780820151838201526020016104fd565b50505050905090810190601f1680156105425780820380516001836020036101000a031916815260200191505b50838103825288818151815260200191508051906020019080838360005b83811015610578578082015183820152602001610560565b50505050905090810190601f1680156105a55780820380516001836020036101000a031916815260200191505b509b50505050505050505050505060405180910390f35b61020f610d8d565b6102df600480360360608110156105e3576000806105e0613988565b50505b506001600160a01b03813581169160208101359091169060400135610d99565b610485600480360360208110156106225760008061061f613988565b50505b50356001600160a01b0316610e2d565b61047b600480360360208110156106515760008061064e613988565b50505b5035610e48565b6106606114c8565b60405160ff909116815260200160405180910390f35b6102df6004803603604081101561069557600080610692613988565b50505b506001600160a01b0381351690602001356114e4565b61047b600480360360208110156106ca576000806106c7613988565b50505b50351515611549565b610485611630565b610485600480360360408110156106fa576000806106f7613988565b50505b506001600160a01b0381351690602001356116eb565b6102df611b81565b6104856004803603602081101561073757600080610734613988565b50505b50356001600160a01b0316611b9a565b6102df6004803603602081101561076657600080610763613988565b50505b50356001600160a01b0316611bc2565b610485611d7c565b610485611d86565b610233611db0565b6102df600480360360408110156107ad576000806107aa613988565b50505b506001600160a01b038135169060200135611e56565b6102df600480360360408110156107e2576000806107df613988565b50505b506001600160a01b038135169060200135611ecc565b610485611ee0565b6104856004803603602081101561081f5760008061081c613988565b50505b50356001600160a01b0316612143565b6102df6004803603602081101561084e5760008061084b613988565b50505b50356001600160a01b03166121ad565b61020f61227f565b61047b61228b565b610485612295565b6104856004803603604081101561089557600080610892613988565b50505b506001600160a01b038135811691602001351661229f565b6104856122df565b61023361244c565b600160c96108c96139f3565b906101000a90046001600160a01b031681565b60606068806108e96139f3565b600181600116156101000203166002900480601f0160208091040260200160405190810160405281815291906020830182806109236139f3565b6001816001161561010002031660029004801561098f5780601f1061095d57610100808361094f6139f3565b04028352916020019161098f565b820191906000526020600020905b816109746139f3565b8152906001019060200180831161096b57829003601f168201915b5050505050905090565b60006109ad6109a66125da565b84846125e5565b5060015b92915050565b600160006109c36139f3565b906101000a900460ff16806109db57506109db61270d565b806109f857506000806109ec6139f3565b906101000a900460ff16155b610a3c5760405162461bcd60e51b815260040180806020018281038252602e815260200180613ebb602e913960400191505060405180910390610a39613988565b50505b6000600181610a496139f3565b906101000a900460ff161590508015610aaf576001600061010081610a6c6139f3565b8160ff02191690831515021790610a81613a4e565b50505060016000806101000a81610a966139f3565b8160ff02191690831515021790610aab613a4e565b5050505b610ab9848461277e565b610ac16128b7565b8560cb600181610acf6139f3565b816001600160a01b0302191690836001600160a01b0316021790610af1613a4e565b505050610afd856129cc565b5a610b06613a9c565b60c961010081610b146139f3565b816001600160a01b0302191690836001600160a01b0316021790610b36613a4e565b5050505a610b42613ae2565b8060ca610b4d613a4e565b505050670de0b6b3a764000060cc8190610b65613a4e565b5050508160ce60006101000a81610b7a6139f3565b816001600160a01b0302191690836001600160a01b0316021790610b9c613a4e565b5050508015610bcd5760008061010081610bb46139f3565b8160ff02191690831515021790610bc9613a4e565b5050505b505050505050565b60006067610be16139f3565b905090565b606060008080838180808080808060cb610bfe6139f3565b906101000a90046001600160a01b03166001600160a01b031663b7a545265a63996d79a5598160e01b8152602081600483336000905af158600e01573d6000803e3d6000fd5b3d6001141558600a015760016000f35b8051925060005b6040811015610c7257600082820152602001610c5b565b5050506040516001600160e01b031960e084901b1681526001600160a01b03909116600482015260240160408051808303818680610cae613b28565b158015610cc357600080610cc0613988565b50505b505a610ccd613b74565b5050505050158015610cec573d6000803e3d6000610ce9613988565b50505b505050506040513d6040811015610d0b57600080610d08613988565b50505b8101908080519291906020018051939550929350610d2c92506108dc915050565b610d34610bd5565b610d3c611ee0565b610d44612a2a565b610d4c61244c565b60ca610d566139f3565b600060c9610d626139f3565b906101000a900460ff1688889a509a509a509a509a509a509a509a509a505050909192939495969798565b600060ce6108c96139f3565b6000610da6848484612a7a565b610e2384610db26125da565b610e1e85604051606081016040526028808252613e9360208301396001600160a01b038a1660009081526066602052604090206000610def6125da565b6001600160a01b03166001600160a01b03168152602001908152602001600020610e176139f3565b9190612c18565b6125e5565b5060019392505050565b60cd6020528060005260406000209050610e456139f3565b81565b60006097610e546139f3565b906101000a900460ff16610eb75760405162461bcd60e51b815260206004820152601f60248201527f5265656e7472616e637947756172643a207265656e7472616e742063616c6c00604482015260640160405180910390610eb4613988565b50505b60006097600181610ec66139f3565b8160ff02191690831515021790610edb613a4e565b50505080610ef05a610eeb613a9c565b611b9a565b1015610f425760405162461bcd60e51b8152602060048201526014602482015273696e73756666696369656e742062616c616e636560601b604482015260640160405180910390610f3f613988565b50505b610f535a610f4e613a9c565b612143565b15610f9f5760405162461bcd60e51b815260206004820152600f60248201526e636f6f6c646f776e2061637469766560881b604482015260640160405180910390610f9c613988565b50505b610fa7612cb8565b6000610fb1611ee0565b90506000610fd8610fc0610bd5565b610fd285670de0b6b3a76400006130e9565b90613151565b9050610fec5a610fe6613a9c565b84613191565b60008060ce610ff96139f3565b906101000a90046001600160a01b031690506060816001600160a01b031663e5406dbf6040518163ffffffff1660e01b81526004016000604051808303818680611041613b28565b15801561105657600080611053613988565b50505b505a611060613b74565b505050505015801561107f573d6000803e3d600061107c613988565b50505b505050506040513d6000823e601f3d908101601f1916820160405260208110156110b1576000806110ae613988565b50505b8101908080516040519392919084600160201b8211156110d9576000806110d6613988565b50505b9083019060208201858111156110f7576000806110f4613988565b50505b82518660208202830111600160201b8211171561111c57600080611119613988565b50505b825250602001908051906020019060200280838360005b8381101561114b578082015183820152602001611133565b50505050905001604052505050905060008151905060005b8181101561138057600083828151811061117957fe5b602002602001015190506000816001600160a01b03166370a082315a63996d79a5598160e01b8152602081600483336000905af158600e01573d6000803e3d6000fd5b3d6001141558600a015760016000f35b8051925060005b60408110156111ea576000828201526020016111d3565b5050506040516001600160e01b031960e084901b1681526001600160a01b0390911660048201526024016020604051808303818680611227613b28565b15801561123c57600080611239613988565b50505b505a611246613b74565b5050505050158015611265573d6000803e3d6000611262613988565b50505b505050506040513d602081101561128457600080611281613988565b50505b8101908080519350600092506112aa9150670de0b6b3a76400009050610fd2848b6130e9565b9050801561137557826001600160a01b031663a9059cbb5a6112ca613a9c565b836040516001600160e01b031960e085901b1681526001600160a01b03909216600483015260248201526044016020604051808303816000878061130c613b28565b1580156113215760008061131e613988565b50505b505a61132b613c5f565b50505050505015801561134b573d6000803e3d6000611348613988565b50505b505050506040513d602081101561136a57600080611367613988565b50505b810190808051505050505b505050600101611163565b506000611399670de0b6b3a7640000610fd287896130e9565b90507f79d44cc8beeed36226f14818b2ecaca7ef252bcd56c9ae35f5a86869dbdefb975a63996d79a5598160e01b8152602081600483336000905af158600e01573d6000803e3d6000fd5b3d6001141558600a015760016000f35b8051925060005b6040811015611412576000828201526020016113fb565b5050505a61141e613a9c565b838a61142c5a610eeb613a9c565b611434611ee0565b61143c610bd5565b5a611445613ae2565b6040516001600160a01b0398891681529690971660208701526040808701959095526060860193909352608085019190915260a084015260c083015260e082019290925261010001905180910390a15050505050506001609760006101000a816114ad6139f3565b8160ff021916908315150217906114c2613a4e565b50505050565b600080606a6114d56139f3565b906101000a900460ff16905090565b60006109ad6114f16125da565b84610e1e85606660006115026125da565b6001600160a01b03166001600160a01b031681526020019081526020016000206001600160a01b0389166000908152602091909152604090206115436139f3565b906132b1565b611551612a2a565b6001600160a01b03165a611563613a9c565b6001600160a01b0316146115b55760405162461bcd60e51b815260206004820152600c60248201526b37b7363c9036b0b730b3b2b960a11b6044820152606401604051809103906115b2613988565b50505b801515600060c96115c46139f3565b906101000a900460ff16151514156116245760405162461bcd60e51b8152602060048201526016602482015275199b1859c81b5d5cdd08189948191a5999995c995b9d60521b604482015260640160405180910390611621613988565b50505b61162d816129cc565b50565b60008060cb61163d6139f3565b906101000a90046001600160a01b03166001600160a01b0316634501b0886040518163ffffffff1660e01b81526004016020604051808303818680611680613b28565b15801561169557600080611692613988565b50505b505a61169f613b74565b50505050501580156116be573d6000803e3d60006116bb613988565b50505b505050506040513d60208110156116dd576000806116da613988565b50505b810190808051935050505090565b60006116f5612a2a565b6001600160a01b03165a611707613a9c565b6001600160a01b0316148061172f5750600060c96117236139f3565b906101000a900460ff16155b8061174657506117465a611741613a9c565b6121ad565b6117965760405162461bcd60e51b81526020600482015260146024820152731bdb9b1e481b595b58995c9cc8185b1b1bddd95960621b604482015260640160405180910390611793613988565b50505b5a61179f613ae2565b60cd60005a6117ac613a9c565b6001600160a01b03166001600160a01b0316815260200190815260200160002081906117d6613a4e565b5050506117e1612cb8565b60006117eb611ee0565b905060006117f7610bd5565b9050846001600160a01b03166323b872dd5a611811613a9c565b5a63996d79a5598160e01b8152602081600483336000905af158600e01573d6000803e3d6000fd5b3d6001141558600a015760016000f35b8051925060005b604081101561186757600082820152602001611850565b505050876040516001600160e01b031960e086901b1681526001600160a01b0393841660048201529190921660248201526044810191909152606401602060405180830381600087806118b8613b28565b1580156118cd576000806118ca613988565b50505b505a6118d7613c5f565b5050505050501580156118f7573d6000803e3d60006118f4613988565b50505b505050506040513d602081101561191657600080611913613988565b50505b81019080805192506119729150505760405162461bcd60e51b81526020600482015260156024820152741d1bdad95b881d1c985b9cd9995c8819985a5b1959605a1b60448201526064016040518091039061196f613988565b50505b60008060ce61197f6139f3565b906101000a90046001600160a01b03166001600160a01b03166329c07fba87876040516001600160e01b031960e085901b1681526001600160a01b039092166004830152602482015260440160206040518083038186806119de613b28565b1580156119f3576000806119f0613988565b50505b505a6119fd613b74565b5050505050158015611a1c573d6000803e3d6000611a19613988565b50505b505050506040513d6020811015611a3b57600080611a38613988565b50505b8101908080519350600092505083159050611a6557611a5e84610fd284866130e9565b9050611a68565b50805b611a7a5a611a74613a9c565b82613310565b7f87fdcba84e083ebb8fd661bbafee3eb38764ec6f0cbeea8ed52deffa67bd45dc5a63996d79a5598160e01b8152602081600483336000905af158600e01573d6000803e3d6000fd5b3d6001141558600a015760016000f35b8051925060005b6040811015611af157600082820152602001611ada565b5050505a611afd613a9c565b8484611b0b5a610eeb613a9c565b611b158a896132b1565b611b1f8a896132b1565b5a611b28613ae2565b6040516001600160a01b0398891681529690971660208701526040808701959095526060860193909352608085019190915260a084015260c083015260e082019290925261010001905180910390a19695505050505050565b600060c9611b8d6139f3565b906101000a900460ff1681565b6001600160a01b0381166000908152606560205260408120611bba6139f3565b90505b919050565b6000808060cb611bd06139f3565b906101000a90046001600160a01b03166001600160a01b0316631d68702d6040518163ffffffff1660e01b81526004016020604051808303818680611c13613b28565b158015611c2857600080611c25613988565b50505b505a611c32613b74565b5050505050158015611c51573d6000803e3d6000611c4e613988565b50505b505050506040513d6020811015611c7057600080611c6d613988565b50505b8101908080519350506001600160a01b0383169150505a611c8f613a9c565b6001600160a01b031614611cf25760405162461bcd60e51b815260206004820152601860248201527f6f6e6c792044414f206164647265737320616c6c6f7765640000000000000000604482015260640160405180910390611cef613988565b50505b8260ce600181611d006139f3565b816001600160a01b0302191690836001600160a01b0316021790611d22613a4e565b5050507f63fb64c359a4cae97e1bf003c1ab11390b5f0e18cc5b3d67b90bd61c0f5c52fd835a611d50613a9c565b6040516001600160a01b039283168152911660208201526040908101905180910390a150600192915050565b60cc610e456139f3565b600080611d91611ee0565b90506000611d9d610bd5565b9050611da98282613429565b9250505090565b6060606980611dbd6139f3565b600181600116156101000203166002900480601f016020809104026020016040519081016040528181529190602083018280611df76139f3565b6001816001161561010002031660029004801561098f5780601f10611e2357610100808361094f6139f3565b820191906000526020600020905b81611e3a6139f3565b81529060010190602001808311611e3157509395945050505050565b60006109ad611e636125da565b84610e1e85604051606081016040526025808252613f53602083013960666000611e8b6125da565b6001600160a01b03166001600160a01b031681526020019081526020016000206001600160a01b038a16600090815260209190915260409020610e176139f3565b60006109ad611ed96125da565b8484612a7a565b600080808060ce611eef6139f3565b906101000a90046001600160a01b031690506060816001600160a01b031663e5406dbf6040518163ffffffff1660e01b81526004016000604051808303818680611f37613b28565b158015611f4c57600080611f49613988565b50505b505a611f56613b74565b5050505050158015611f75573d6000803e3d6000611f72613988565b50505b505050506040513d6000823e601f3d908101601f191682016040526020811015611fa757600080611fa4613988565b50505b8101908080516040519392919084600160201b821115611fcf57600080611fcc613988565b50505b908301906020820185811115611fed57600080611fea613988565b50505b82518660208202830111600160201b821117156120125760008061200f613988565b50505b825250602001908051906020019060200280838360005b83811015612041578082015183820152602001612029565b50505050905001604052505050905060008151905060005b818110156121395761212f846001600160a01b031663d8af8ed485848151811061207f57fe5b60200260200101516040516001600160e01b031960e084901b1681526001600160a01b03909116600482015260240160206040518083038186806120c1613b28565b1580156120d6576000806120d3613988565b50505b505a6120e0613b74565b50505050501580156120ff573d6000803e3d60006120fc613988565b50505b505050506040513d602081101561211e5760008061211b613988565b50505b8101908080518993509150506132b1565b9450600101612059565b5092935050505090565b60008061214e611630565b6001600160a01b038416600090815260cd60205290915061217582604083206115436139f3565b90505a612180613ae2565b81101561219257600092505050611bbd565b6121a55a61219e613ae2565b8290613459565b949350505050565b60008060ce6121ba6139f3565b906101000a90046001600160a01b03166001600160a01b031663bbbf725b836040516001600160e01b031960e084901b1681526001600160a01b0390911660048201526024016020604051808303818680612213613b28565b15801561222857600080612225613988565b50505b505a612232613b74565b5050505050158015612251573d6000803e3d600061224e613988565b50505b505050506040513d60208110156122705760008061226d613988565b50505b81019080805195945050505050565b600060cb6108c96139f3565b612293612cb8565b565b60ca610e456139f3565b6001600160a01b03821660009081526066602052604081206001600160a01b0383166000908152602091909152604090206122d86139f3565b9392505050565b6000806122ea611ee0565b905060006122f6610bd5565b90506000808060cb6123066139f3565b906101000a90046001600160a01b03166001600160a01b031663b7a545265a63996d79a5598160e01b8152602081600483336000905af158600e01573d6000803e3d6000fd5b3d6001141558600a015760016000f35b8051925060005b604081101561237a57600082820152602001612363565b5050506040516001600160e01b031960e084901b1681526001600160a01b039091166004820152602401604080518083038186806123b6613b28565b1580156123cb576000806123c8613988565b50505b505a6123d5613b74565b50505050501580156123f4573d6000803e3d60006123f1613988565b50505b505050506040513d604081101561241357600080612410613988565b50505b8101908080519291906020018051939550929350612443925086915085905060cc61243c6139f3565b8585613499565b94505050505090565b6060600060ce61245a6139f3565b906101000a90046001600160a01b03166001600160a01b031663fed4416a6040518163ffffffff1660e01b8152600401600060405180830381868061249d613b28565b1580156124b2576000806124af613988565b50505b505a6124bc613b74565b50505050501580156124db573d6000803e3d60006124d8613988565b50505b505050506040513d6000823e601f3d908101601f19168201604052602081101561250d5760008061250a613988565b50505b8101908080516040519392919084600160201b82111561253557600080612532613988565b50505b90830190602082018581111561255357600080612550613988565b50505b8251600160201b81118282018810171561257557600080612572613988565b50505b825250602001908051906020019080838360005b838110156125a1578082015183820152602001612589565b50505050905090810190601f1680156125ce5780820380516001836020036101000a031916815260200191505b50604052505050905090565b60005a610be1613a9c565b6001600160a01b0383166126335760405162461bcd60e51b8152600401808060200182810382526024815260200180613f2f6024913960400191505060405180910390612630613988565b50505b6001600160a01b0382166126815760405162461bcd60e51b8152600401808060200182810382526022815260200180613e2a602291396040019150506040518091039061267e613988565b50505b6001600160a01b038316600090815260666020528190604090206001600160a01b03841660009081526020919091526040902081906126be613a4e565b505050816001600160a01b0316836001600160a01b03167f8c5be1e5ebec7d5bd14f71427d1e84f3dd0314c0f7b2291e5b200ac8c7c3b9258360405190815260200160405180910390a3505050565b6000805a63996d79a5598160e01b8152602081600483336000905af158600e01573d6000803e3d6000fd5b3d6001141558600a015760016000f35b8051925060005b60408110156127665760008282015260200161274f565b5050509050600081612776613b28565b159250505090565b6001600061278a6139f3565b906101000a900460ff16806127a257506127a261270d565b806127bf57506000806127b36139f3565b906101000a900460ff16155b6128035760405162461bcd60e51b815260040180806020018281038252602e815260200180613ebb602e913960400191505060405180910390612800613988565b50505b60006001816128106139f3565b906101000a900460ff1615905080156128765760016000610100816128336139f3565b8160ff02191690831515021790612848613a4e565b50505060016000806101000a8161285d6139f3565b8160ff02191690831515021790612872613a4e565b5050505b61287e61350a565b6128888383613616565b80156128b2576000806101008161289d6139f3565b8160ff02191690831515021790610bcd613a4e565b505050565b600160006128c36139f3565b906101000a900460ff16806128db57506128db61270d565b806128f857506000806128ec6139f3565b906101000a900460ff16155b61293c5760405162461bcd60e51b815260040180806020018281038252602e815260200180613ebb602e913960400191505060405180910390612939613988565b50505b60006001816129496139f3565b906101000a900460ff1615905080156129af57600160006101008161296c6139f3565b8160ff02191690831515021790612981613a4e565b50505060016000806101000a816129966139f3565b8160ff021916908315150217906129ab613a4e565b5050505b6129b7613773565b801561162d57600080610100816114ad6139f3565b8060c96001816129da6139f3565b8160ff021916908315150217906129ef613a4e565b5050507f8d75e9ede4188432084b863d70b3416010c97547dfeb4fc17734d2e997ee0f3981604051901515815260200160405180910390a150565b60008060ce612a376139f3565b906101000a90046001600160a01b03166001600160a01b031663481c6a756040518163ffffffff1660e01b81526004016020604051808303818680611680613b28565b6001600160a01b038316612ac85760405162461bcd60e51b8152600401808060200182810382526025815260200180613f0a6025913960400191505060405180910390612ac5613988565b50505b6001600160a01b038216612b165760405162461bcd60e51b8152600401808060200182810382526023815260200180613de56023913960400191505060405180910390612b13613988565b50505b612b21838383613879565b612b5c81604051606081016040526026808252613e4c60208301396001600160a01b0386166000908152606560205260409020610e176139f3565b6001600160a01b03841660009081526065602052604090208190612b7e613a4e565b5050506001600160a01b03821660009081526065602052612ba7908290604090206115436139f3565b6001600160a01b03831660009081526065602052604090208190612bc9613a4e565b505050816001600160a01b0316836001600160a01b03167fddf252ad1be2c89b69c2b068fc378daa952ba7f163c4a11628f55a4df523b3ef8360405190815260200160405180910390a3505050565b60008184841115612cb05760405162461bcd60e51b81526004018080602001828103825283818151815260200191508051906020019080838360005b83811015612c6c578082015183820152602001612c54565b50505050905090810190601f168015612c995780820380516001836020036101000a031916815260200191505b509250505060405180910390612cad613988565b50505b505050900390565b6000612cc2611ee0565b90506000612cce610bd5565b90506000808060cb612cde6139f3565b906101000a90046001600160a01b03166001600160a01b031663b7a545265a63996d79a5598160e01b8152602081600483336000905af158600e01573d6000803e3d6000fd5b3d6001141558600a015760016000f35b8051925060005b6040811015612d5257600082820152602001612d3b565b5050506040516001600160e01b031960e084901b1681526001600160a01b03909116600482015260240160408051808303818680612d8e613b28565b158015612da357600080612da0613988565b50505b505a612dad613b74565b5050505050158015612dcc573d6000803e3d6000612dc9613988565b50505b505050506040513d6040811015612deb57600080612de8613988565b50505b810190808051929190602001805193955092935060009250612e1d91508690508560cc612e166139f3565b8686613499565b90506064811015612e32575050505050612293565b60008060cb612e3f6139f3565b906101000a90046001600160a01b03166001600160a01b0316631d68702d6040518163ffffffff1660e01b81526004016020604051808303818680612e82613b28565b158015612e9757600080612e94613988565b50505b505a612ea1613b74565b5050505050158015612ec0573d6000803e3d6000612ebd613988565b50505b505050506040513d6020811015612edf57600080612edc613988565b50505b81019080805193506000925082915081905060cb612efb6139f3565b906101000a90046001600160a01b03166001600160a01b0316639cada6e46040518163ffffffff1660e01b815260040160408051808303818680612f3d613b28565b158015612f5257600080612f4f613988565b50505b505a612f5c613b74565b5050505050158015612f7b573d6000803e3d6000612f78613988565b50505b505050506040513d6040811015612f9a57600080612f97613988565b50505b810190808051929190602001805193955092935060009250612fc49150839050610fd287866130e9565b90506000612fd28683613459565b90508115612fe457612fe48583613310565b8015612ff557612ff5611a74612a2a565b612fff8a8a613429565b8060cc61300a613a4e565b5050507f755a8059d66d8d243bc9f6913f429a811f154599d0538bb0b6a2ac23f23d2ccd5a63996d79a5598160e01b8152602081600483336000905af158600e01573d6000803e3d6000fd5b3d6001141558600a015760016000f35b8051925060005b60408110156130845760008282015260200161306d565b50505061308f612a2a565b88858560cc61309c6139f3565b6040516001600160a01b0396871681529490951660208501526040808501939093526060840191909152608083015260a082019290925260c001905180910390a150505050505050505050565b6000826130f8575060006109b1565b8282028284828161310557fe5b04146122d85760405162461bcd60e51b8152600401808060200182810382526021815260200180613e726021913960400191505060405180910390613148613988565b50509392505050565b60006122d8838360405160408082019052601a81527f536166654d6174683a206469766973696f6e206279207a65726f00000000000060208201526138dd565b6001600160a01b0382166131df5760405162461bcd60e51b8152600401808060200182810382526021815260200180613ee960219139604001915050604051809103906131dc613988565b50505b6131eb82600083613879565b61322681604051606081016040526022808252613e0860208301396001600160a01b0385166000908152606560205260409020610e176139f3565b6001600160a01b03831660009081526065602052604090208190613248613a4e565b50505061325f8160676132596139f3565b90613459565b80606761326a613a4e565b5060009150506001600160a01b0383167fddf252ad1be2c89b69c2b068fc378daa952ba7f163c4a11628f55a4df523b3ef8360405190815260200160405180910390a35050565b6000828201838110156122d85760405162461bcd60e51b815260206004820152601b60248201527f536166654d6174683a206164646974696f6e206f766572666c6f770000000000604482015260640160405180910390613148613988565b6001600160a01b0382166133735760405162461bcd60e51b815260206004820152601f60248201527f45524332303a206d696e7420746f20746865207a65726f206164647265737300604482015260640160405180910390613370613988565b50505b61337f60008383613879565b61338d8160676115436139f3565b806067613398613a4e565b5050506001600160a01b038216600090815260656020526133c1908290604090206115436139f3565b6001600160a01b038316600090815260656020526040902081906133e3613a4e565b5050506001600160a01b03821660007fddf252ad1be2c89b69c2b068fc378daa952ba7f163c4a11628f55a4df523b3ef8360405190815260200160405180910390a35050565b6000811580613436575082155b15613443575060006109b1565b6122d882610fd285670de0b6b3a76400006130e9565b60006122d8838360405160408082019052601e81527f536166654d6174683a207375627472616374696f6e206f766572666c6f7700006020820152612c18565b60008415806134a6575085155b156134b357506000613501565b60006134cb86610fd289670de0b6b3a76400006130e9565b90508481116134de576000915050613501565b60006134fc82610fd28681896134f68d81878f613459565b906130e9565b925050505b95945050505050565b600160006135166139f3565b906101000a900460ff168061352e575061352e61270d565b8061354b575060008061353f6139f3565b906101000a900460ff16155b61358f5760405162461bcd60e51b815260040180806020018281038252602e815260200180613ebb602e91396040019150506040518091039061358c613988565b50505b600060018161359c6139f3565b906101000a900460ff1615905080156129b75760016000610100816135bf6139f3565b8160ff021916908315150217906135d4613a4e565b50505060016000806101000a816135e96139f3565b8160ff021916908315150217906135fe613a4e565b505050801561162d57600080610100816114ad6139f3565b600160006136226139f3565b906101000a900460ff168061363a575061363a61270d565b80613657575060008061364b6139f3565b906101000a900460ff16155b61369b5760405162461bcd60e51b815260040180806020018281038252602e815260200180613ebb602e913960400191505060405180910390613698613988565b50505b60006001816136a86139f3565b906101000a900460ff16159050801561370e5760016000610100816136cb6139f3565b8160ff021916908315150217906136e0613a4e565b50505060016000806101000a816136f56139f3565b8160ff0219169083151502179061370a613a4e565b5050505b6068838051613721929160200190613d25565b506069828051613735929160200190613d25565b506012606a6001816137456139f3565b8160ff021916908360ff1602179061375b613a4e565b50505080156128b2576000806101008161289d6139f3565b6001600061377f6139f3565b906101000a900460ff1680613797575061379761270d565b806137b457506000806137a86139f3565b906101000a900460ff16155b6137f85760405162461bcd60e51b815260040180806020018281038252602e815260200180613ebb602e9139604001915050604051809103906137f5613988565b50505b60006001816138056139f3565b906101000a900460ff16159050801561386b5760016000610100816138286139f3565b8160ff0219169083151502179061383d613a4e565b50505060016000806101000a816138526139f3565b8160ff02191690831515021790613867613a4e565b5050505b6001609781816135e96139f3565b6138848383836128b2565b61388d83612143565b156128b25760405162461bcd60e51b815260206004820152600f60248201526e636f6f6c646f776e2061637469766560881b6044820152606401604051809103906138d6613988565b5050505050565b600081836139725760405162461bcd60e51b81526004018080602001828103825283818151815260200191508051906020019080838360005b8381101561392e578082015183820152602001613916565b50505050905090810190601f16801561395b5780820380516001836020036101000a031916815260200191505b50925050506040518091039061396f613988565b50505b50600083858161397e57fe5b0495945050505050565b632a2a7adb598160e01b8152600481016020815285602082015260005b868110156139c05780860151828201604001526020016139a5565b506020828760640184336000905af158600e01573d6000803e3d6000fd5b3d6001141558600a015760016000f35b505050565b6303daa959598160e01b8152836004820152602081602483336000905af158600e01573d6000803e3d6000fd5b3d6001141558600a015760016000f35b8051935060005b60408110156128b257600082820152602001613a37565b6322bd64c0598160e01b8152836004820152846024820152600081604483336000905af158600e01573d6000803e3d6000fd5b3d6001141558600a015760016000f35b600081526020613a37565b6373509064598160e01b8152602081600483336000905af158600e01573d6000803e3d6000fd5b3d6001141558600a015760016000f35b80516000825293506020613a37565b63bdbf8c36598160e01b8152602081600483336000905af158600e01573d6000803e3d6000fd5b3d6001141558600a015760016000f35b80516000825293506020613a37565b638435035b598160e01b8152836004820152602081602483336000905af158600e01573d6000803e3d6000fd5b3d6001141558600a015760016000f35b80516000825293506020613a37565b638540661f598160e01b8152613ba5565b80808311156109b1575090919050565b80808310156109b1575090919050565b836004820152846024820152606060448201528660648201526084810160005b88811015613bdd578088015182820152602001613bc5565b506060828960a40184336000905af158600e01573d6000803e3d6000fd5b3d6001141558600a015760016000f35b815160408301513d6000853e8b8b82606087013350600060045af15059613c328d3d613b95565b8c01613c3e8187613b85565b5b82811015613c535760008152602001613c3f565b50929c50505050505050565b6385979f76598160e01b8152836004820152846024820152606060448201528760648201526084810160005b89811015613ca3578089015182820152602001613c8b565b506060828a60a40184336000905af158600e01573d6000803e3d6000fd5b3d6001141558600a015760016000f35b815160408301513d6000853e8c8c82606087013350600060045af15059613cf88e3d613b95565b8d01613d048187613b85565b5b82811015613d195760008152602001613d05565b50929d50505050505050565b8280613d2f6139f3565b600181600116156101000203166002900490600052602060002090601f016020900481019282601f10613d7657805160ff19168380011785613d6f613a4e565b5050613db5565b82800160010185613d85613a4e565b50508215613db5579182015b82811115613db557825182613da4613a4e565b505091602001919060010190613d91565b50613dc1929150613dc5565b5090565b80821115613dc15760008082613dd9613a4e565b505050600101613dc556fe45524332303a207472616e7366657220746f20746865207a65726f206164647265737345524332303a206275726e20616d6f756e7420657863656564732062616c616e636545524332303a20617070726f766520746f20746865207a65726f206164647265737345524332303a207472616e7366657220616d6f756e7420657863656564732062616c616e6365536166654d6174683a206d756c7469706c69636174696f6e206f766572666c6f7745524332303a207472616e7366657220616d6f756e74206578636565647320616c6c6f77616e6365436f6e747261637420696e7374616e63652068617320616c7265616479206265656e20696e697469616c697a656445524332303a206275726e2066726f6d20746865207a65726f206164647265737345524332303a207472616e736665722066726f6d20746865207a65726f206164647265737345524332303a20617070726f76652066726f6d20746865207a65726f206164647265737345524332303a2064656372656173656420616c6c6f77616e63652062656c6f77207a65726f",
  "deployedBytecode": "0x608060405234801561001957600080610016613988565b50505b50600436106101f95760003560e01c806370a0823111610118578063b8ea2b6e116100ab578063d8270dce1161007a578063d8270dce1461086e578063dd62ed3e14610876578063edbf6f50146108ad578063fed4416a146108b5576101f9565b8063b8ea2b6e14610800578063bbbf725b1461082f578063c45a01551461085e578063cc3c6df614610866576101f9565b806395d89b41116100e757806395d89b4114610786578063a457c2d71461078e578063a9059cbb146107c3578063ad60ffcc146107f8576101f9565b806370a0823114610718578063750226de146107475780637714f39d146107765780637ff9b5961461077e576101f9565b806329d16ee8116101905780633babaad51161015f5780633babaad5146106ab5780634501b088146106d357806347e7ef24146106db57806359b5e75e14610710576101f9565b806329d16ee8146106035780632e1a7d4d14610632578063313ce567146106585780633950935114610676576101f9565b806318160ddd116101cc57806318160ddd1461047d5780631c5918d2146104975780631e50a4a6146105bc57806323b872dd146105c4576101f9565b806302d05d3f1461020757806306fdde031461022b578063095ea7b3146102aa5780630ccb30c7146102f3575b600080610204613988565b50505b61020f6108bd565b6040516001600160a01b03909116815260200160405180910390f35b6102336108dc565b60405160208082528190810183818151815260200191508051906020019080838360005b8381101561026f578082015183820152602001610257565b50505050905090810190601f16801561029c5780820380516001836020036101000a031916815260200191505b509250505060405180910390f35b6102df600480360360408110156102c9576000806102c6613988565b50505b506001600160a01b038135169060200135610999565b604051901515815260200160405180910390f35b61047b600480360360a08110156103125760008061030f613988565b50505b6001600160a01b03823516916020810135151591810190606081016040820135600160201b81111561034c57600080610349613988565b50505b82018360208201111561036757600080610364613988565b50505b803590602001918460018302840111600160201b831117156103915760008061038e613988565b50505b91908080601f01602080910402602001604051908101604052818152929190602084018383808284376000920191909152509295949360208101935035915050600160201b8111156103eb576000806103e8613988565b50505b82018360208201111561040657600080610403613988565b50505b803590602001918460018302840111600160201b831117156104305760008061042d613988565b50505b91908080601f0160208091040260200160405190810160405281815292919060208401838380828437600092019190915250929550505090356001600160a01b031691506109b79050565b005b610485610bd5565b60405190815260200160405180910390f35b61049f610be6565b60405180806020018a8152602001898152602001886001600160a01b0316815260200180602001878152602001861515815260200185815260200184815260200183810383528c818151815260200191508051906020019080838360005b838110156105155780820151838201526020016104fd565b50505050905090810190601f1680156105425780820380516001836020036101000a031916815260200191505b50838103825288818151815260200191508051906020019080838360005b83811015610578578082015183820152602001610560565b50505050905090810190601f1680156105a55780820380516001836020036101000a031916815260200191505b509b50505050505050505050505060405180910390f35b61020f610d8d565b6102df600480360360608110156105e3576000806105e0613988565b50505b506001600160a01b03813581169160208101359091169060400135610d99565b610485600480360360208110156106225760008061061f613988565b50505b50356001600160a01b0316610e2d565b61047b600480360360208110156106515760008061064e613988565b50505b5035610e48565b6106606114c8565b60405160ff909116815260200160405180910390f35b6102df6004803603604081101561069557600080610692613988565b50505b506001600160a01b0381351690602001356114e4565b61047b600480360360208110156106ca576000806106c7613988565b50505b50351515611549565b610485611630565b610485600480360360408110156106fa576000806106f7613988565b50505b506001600160a01b0381351690602001356116eb565b6102df611b81565b6104856004803603602081101561073757600080610734613988565b50505b50356001600160a01b0316611b9a565b6102df6004803603602081101561076657600080610763613988565b50505b50356001600160a01b0316611bc2565b610485611d7c565b610485611d86565b610233611db0565b6102df600480360360408110156107ad576000806107aa613988565b50505b506001600160a01b038135169060200135611e56565b6102df600480360360408110156107e2576000806107df613988565b50505b506001600160a01b038135169060200135611ecc565b610485611ee0565b6104856004803603602081101561081f5760008061081c613988565b50505b50356001600160a01b0316612143565b6102df6004803603602081101561084e5760008061084b613988565b50505b50356001600160a01b03166121ad565b61020f61227f565b61047b61228b565b610485612295565b6104856004803603604081101561089557600080610892613988565b50505b506001600160a01b038135811691602001351661229f565b6104856122df565b61023361244c565b600160c96108c96139f3565b906101000a90046001600160a01b031681565b60606068806108e96139f3565b600181600116156101000203166002900480601f0160208091040260200160405190810160405281815291906020830182806109236139f3565b6001816001161561010002031660029004801561098f5780601f1061095d57610100808361094f6139f3565b04028352916020019161098f565b820191906000526020600020905b816109746139f3565b8152906001019060200180831161096b57829003601f168201915b5050505050905090565b60006109ad6109a66125da565b84846125e5565b5060015b92915050565b600160006109c36139f3565b906101000a900460ff16806109db57506109db61270d565b806109f857506000806109ec6139f3565b906101000a900460ff16155b610a3c5760405162461bcd60e51b815260040180806020018281038252602e815260200180613ebb602e913960400191505060405180910390610a39613988565b50505b6000600181610a496139f3565b906101000a900460ff161590508015610aaf576001600061010081610a6c6139f3565b8160ff02191690831515021790610a81613a4e565b50505060016000806101000a81610a966139f3565b8160ff02191690831515021790610aab613a4e565b5050505b610ab9848461277e565b610ac16128b7565b8560cb600181610acf6139f3565b816001600160a01b0302191690836001600160a01b0316021790610af1613a4e565b505050610afd856129cc565b5a610b06613a9c565b60c961010081610b146139f3565b816001600160a01b0302191690836001600160a01b0316021790610b36613a4e565b5050505a610b42613ae2565b8060ca610b4d613a4e565b505050670de0b6b3a764000060cc8190610b65613a4e565b5050508160ce60006101000a81610b7a6139f3565b816001600160a01b0302191690836001600160a01b0316021790610b9c613a4e565b5050508015610bcd5760008061010081610bb46139f3565b8160ff02191690831515021790610bc9613a4e565b5050505b505050505050565b60006067610be16139f3565b905090565b606060008080838180808080808060cb610bfe6139f3565b906101000a90046001600160a01b03166001600160a01b031663b7a545265a63996d79a5598160e01b8152602081600483336000905af158601d01573d60011458600c01573d6000803e3d621234565260ea61109c528051925060005b6040811015610c7257600082820152602001610c5b565b5050506040516001600160e01b031960e084901b1681526001600160a01b03909116600482015260240160408051808303818680610cae613b28565b158015610cc357600080610cc0613988565b50505b505a610ccd613b74565b5050505050158015610cec573d6000803e3d6000610ce9613988565b50505b505050506040513d6040811015610d0b57600080610d08613988565b50505b8101908080519291906020018051939550929350610d2c92506108dc915050565b610d34610bd5565b610d3c611ee0565b610d44612a2a565b610d4c61244c565b60ca610d566139f3565b600060c9610d626139f3565b906101000a900460ff1688889a509a509a509a509a509a509a509a509a505050909192939495969798565b600060ce6108c96139f3565b6000610da6848484612a7a565b610e2384610db26125da565b610e1e85604051606081016040526028808252613e9360208301396001600160a01b038a1660009081526066602052604090206000610def6125da565b6001600160a01b03166001600160a01b03168152602001908152602001600020610e176139f3565b9190612c18565b6125e5565b5060019392505050565b60cd6020528060005260406000209050610e456139f3565b81565b60006097610e546139f3565b906101000a900460ff16610eb75760405162461bcd60e51b815260206004820152601f60248201527f5265656e7472616e637947756172643a207265656e7472616e742063616c6c00604482015260640160405180910390610eb4613988565b50505b60006097600181610ec66139f3565b8160ff02191690831515021790610edb613a4e565b50505080610ef05a610eeb613a9c565b611b9a565b1015610f425760405162461bcd60e51b8152602060048201526014602482015273696e73756666696369656e742062616c616e636560601b604482015260640160405180910390610f3f613988565b50505b610f535a610f4e613a9c565b612143565b15610f9f5760405162461bcd60e51b815260206004820152600f60248201526e636f6f6c646f776e2061637469766560881b604482015260640160405180910390610f9c613988565b50505b610fa7612cb8565b6000610fb1611ee0565b90506000610fd8610fc0610bd5565b610fd285670de0b6b3a76400006130e9565b90613151565b9050610fec5a610fe6613a9c565b84613191565b60008060ce610ff96139f3565b906101000a90046001600160a01b031690506060816001600160a01b031663e5406dbf6040518163ffffffff1660e01b81526004016000604051808303818680611041613b28565b15801561105657600080611053613988565b50505b505a611060613b74565b505050505015801561107f573d6000803e3d600061107c613988565b50505b505050506040513d6000823e601f3d908101601f1916820160405260208110156110b1576000806110ae613988565b50505b8101908080516040519392919084600160201b8211156110d9576000806110d6613988565b50505b9083019060208201858111156110f7576000806110f4613988565b50505b82518660208202830111600160201b8211171561111c57600080611119613988565b50505b825250602001908051906020019060200280838360005b8381101561114b578082015183820152602001611133565b50505050905001604052505050905060008151905060005b8181101561138057600083828151811061117957fe5b602002602001015190506000816001600160a01b03166370a082315a63996d79a5598160e01b8152602081600483336000905af158601d01573d60011458600c01573d6000803e3d621234565260ea61109c528051925060005b60408110156111ea576000828201526020016111d3565b5050506040516001600160e01b031960e084901b1681526001600160a01b0390911660048201526024016020604051808303818680611227613b28565b15801561123c57600080611239613988565b50505b505a611246613b74565b5050505050158015611265573d6000803e3d6000611262613988565b50505b505050506040513d602081101561128457600080611281613988565b50505b8101908080519350600092506112aa9150670de0b6b3a76400009050610fd2848b6130e9565b9050801561137557826001600160a01b031663a9059cbb5a6112ca613a9c565b836040516001600160e01b031960e085901b1681526001600160a01b03909216600483015260248201526044016020604051808303816000878061130c613b28565b1580156113215760008061131e613988565b50505b505a61132b613c5f565b50505050505015801561134b573d6000803e3d6000611348613988565b50505b505050506040513d602081101561136a57600080611367613988565b50505b810190808051505050505b505050600101611163565b506000611399670de0b6b3a7640000610fd287896130e9565b90507f79d44cc8beeed36226f14818b2ecaca7ef252bcd56c9ae35f5a86869dbdefb975a63996d79a5598160e01b8152602081600483336000905af158601d01573d60011458600c01573d6000803e3d621234565260ea61109c528051925060005b6040811015611412576000828201526020016113fb565b5050505a61141e613a9c565b838a61142c5a610eeb613a9c565b611434611ee0565b61143c610bd5565b5a611445613ae2565b6040516001600160a01b0398891681529690971660208701526040808701959095526060860193909352608085019190915260a084015260c083015260e082019290925261010001905180910390a15050505050506001609760006101000a816114ad6139f3565b8160ff021916908315150217906114c2613a4e565b50505050565b600080606a6114d56139f3565b906101000a900460ff16905090565b60006109ad6114f16125da565b84610e1e85606660006115026125da565b6001600160a01b03166001600160a01b031681526020019081526020016000206001600160a01b0389166000908152602091909152604090206115436139f3565b906132b1565b611551612a2a565b6001600160a01b03165a611563613a9c565b6001600160a01b0316146115b55760405162461bcd60e51b815260206004820152600c60248201526b37b7363c9036b0b730b3b2b960a11b6044820152606401604051809103906115b2613988565b50505b801515600060c96115c46139f3565b906101000a900460ff16151514156116245760405162461bcd60e51b8152602060048201526016602482015275199b1859c81b5d5cdd08189948191a5999995c995b9d60521b604482015260640160405180910390611621613988565b50505b61162d816129cc565b50565b60008060cb61163d6139f3565b906101000a90046001600160a01b03166001600160a01b0316634501b0886040518163ffffffff1660e01b81526004016020604051808303818680611680613b28565b15801561169557600080611692613988565b50505b505a61169f613b74565b50505050501580156116be573d6000803e3d60006116bb613988565b50505b505050506040513d60208110156116dd576000806116da613988565b50505b810190808051935050505090565b60006116f5612a2a565b6001600160a01b03165a611707613a9c565b6001600160a01b0316148061172f5750600060c96117236139f3565b906101000a900460ff16155b8061174657506117465a611741613a9c565b6121ad565b6117965760405162461bcd60e51b81526020600482015260146024820152731bdb9b1e481b595b58995c9cc8185b1b1bddd95960621b604482015260640160405180910390611793613988565b50505b5a61179f613ae2565b60cd60005a6117ac613a9c565b6001600160a01b03166001600160a01b0316815260200190815260200160002081906117d6613a4e565b5050506117e1612cb8565b60006117eb611ee0565b905060006117f7610bd5565b9050846001600160a01b03166323b872dd5a611811613a9c565b5a63996d79a5598160e01b8152602081600483336000905af158601d01573d60011458600c01573d6000803e3d621234565260ea61109c528051925060005b604081101561186757600082820152602001611850565b505050876040516001600160e01b031960e086901b1681526001600160a01b0393841660048201529190921660248201526044810191909152606401602060405180830381600087806118b8613b28565b1580156118cd576000806118ca613988565b50505b505a6118d7613c5f565b5050505050501580156118f7573d6000803e3d60006118f4613988565b50505b505050506040513d602081101561191657600080611913613988565b50505b81019080805192506119729150505760405162461bcd60e51b81526020600482015260156024820152741d1bdad95b881d1c985b9cd9995c8819985a5b1959605a1b60448201526064016040518091039061196f613988565b50505b60008060ce61197f6139f3565b906101000a90046001600160a01b03166001600160a01b03166329c07fba87876040516001600160e01b031960e085901b1681526001600160a01b039092166004830152602482015260440160206040518083038186806119de613b28565b1580156119f3576000806119f0613988565b50505b505a6119fd613b74565b5050505050158015611a1c573d6000803e3d6000611a19613988565b50505b505050506040513d6020811015611a3b57600080611a38613988565b50505b8101908080519350600092505083159050611a6557611a5e84610fd284866130e9565b9050611a68565b50805b611a7a5a611a74613a9c565b82613310565b7f87fdcba84e083ebb8fd661bbafee3eb38764ec6f0cbeea8ed52deffa67bd45dc5a63996d79a5598160e01b8152602081600483336000905af158601d01573d60011458600c01573d6000803e3d621234565260ea61109c528051925060005b6040811015611af157600082820152602001611ada565b5050505a611afd613a9c565b8484611b0b5a610eeb613a9c565b611b158a896132b1565b611b1f8a896132b1565b5a611b28613ae2565b6040516001600160a01b0398891681529690971660208701526040808701959095526060860193909352608085019190915260a084015260c083015260e082019290925261010001905180910390a19695505050505050565b600060c9611b8d6139f3565b906101000a900460ff1681565b6001600160a01b0381166000908152606560205260408120611bba6139f3565b90505b919050565b6000808060cb611bd06139f3565b906101000a90046001600160a01b03166001600160a01b0316631d68702d6040518163ffffffff1660e01b81526004016020604051808303818680611c13613b28565b158015611c2857600080611c25613988565b50505b505a611c32613b74565b5050505050158015611c51573d6000803e3d6000611c4e613988565b50505b505050506040513d6020811015611c7057600080611c6d613988565b50505b8101908080519350506001600160a01b0383169150505a611c8f613a9c565b6001600160a01b031614611cf25760405162461bcd60e51b815260206004820152601860248201527f6f6e6c792044414f206164647265737320616c6c6f7765640000000000000000604482015260640160405180910390611cef613988565b50505b8260ce600181611d006139f3565b816001600160a01b0302191690836001600160a01b0316021790611d22613a4e565b5050507f63fb64c359a4cae97e1bf003c1ab11390b5f0e18cc5b3d67b90bd61c0f5c52fd835a611d50613a9c565b6040516001600160a01b039283168152911660208201526040908101905180910390a150600192915050565b60cc610e456139f3565b600080611d91611ee0565b90506000611d9d610bd5565b9050611da98282613429565b9250505090565b6060606980611dbd6139f3565b600181600116156101000203166002900480601f016020809104026020016040519081016040528181529190602083018280611df76139f3565b6001816001161561010002031660029004801561098f5780601f10611e2357610100808361094f6139f3565b820191906000526020600020905b81611e3a6139f3565b81529060010190602001808311611e3157509395945050505050565b60006109ad611e636125da565b84610e1e85604051606081016040526025808252613f53602083013960666000611e8b6125da565b6001600160a01b03166001600160a01b031681526020019081526020016000206001600160a01b038a16600090815260209190915260409020610e176139f3565b60006109ad611ed96125da565b8484612a7a565b600080808060ce611eef6139f3565b906101000a90046001600160a01b031690506060816001600160a01b031663e5406dbf6040518163ffffffff1660e01b81526004016000604051808303818680611f37613b28565b158015611f4c57600080611f49613988565b50505b505a611f56613b74565b5050505050158015611f75573d6000803e3d6000611f72613988565b50505b505050506040513d6000823e601f3d908101601f191682016040526020811015611fa757600080611fa4613988565b50505b8101908080516040519392919084600160201b821115611fcf57600080611fcc613988565b50505b908301906020820185811115611fed57600080611fea613988565b50505b82518660208202830111600160201b821117156120125760008061200f613988565b50505b825250602001908051906020019060200280838360005b83811015612041578082015183820152602001612029565b50505050905001604052505050905060008151905060005b818110156121395761212f846001600160a01b031663d8af8ed485848151811061207f57fe5b60200260200101516040516001600160e01b031960e084901b1681526001600160a01b03909116600482015260240160206040518083038186806120c1613b28565b1580156120d6576000806120d3613988565b50505b505a6120e0613b74565b50505050501580156120ff573d6000803e3d60006120fc613988565b50505b505050506040513d602081101561211e5760008061211b613988565b50505b8101908080518993509150506132b1565b9450600101612059565b5092935050505090565b60008061214e611630565b6001600160a01b038416600090815260cd60205290915061217582604083206115436139f3565b90505a612180613ae2565b81101561219257600092505050611bbd565b6121a55a61219e613ae2565b8290613459565b949350505050565b60008060ce6121ba6139f3565b906101000a90046001600160a01b03166001600160a01b031663bbbf725b836040516001600160e01b031960e084901b1681526001600160a01b0390911660048201526024016020604051808303818680612213613b28565b15801561222857600080612225613988565b50505b505a612232613b74565b5050505050158015612251573d6000803e3d600061224e613988565b50505b505050506040513d60208110156122705760008061226d613988565b50505b81019080805195945050505050565b600060cb6108c96139f3565b612293612cb8565b565b60ca610e456139f3565b6001600160a01b03821660009081526066602052604081206001600160a01b0383166000908152602091909152604090206122d86139f3565b9392505050565b6000806122ea611ee0565b905060006122f6610bd5565b90506000808060cb6123066139f3565b906101000a90046001600160a01b03166001600160a01b031663b7a545265a63996d79a5598160e01b8152602081600483336000905af158601d01573d60011458600c01573d6000803e3d621234565260ea61109c528051925060005b604081101561237a57600082820152602001612363565b5050506040516001600160e01b031960e084901b1681526001600160a01b039091166004820152602401604080518083038186806123b6613b28565b1580156123cb576000806123c8613988565b50505b505a6123d5613b74565b50505050501580156123f4573d6000803e3d60006123f1613988565b50505b505050506040513d604081101561241357600080612410613988565b50505b8101908080519291906020018051939550929350612443925086915085905060cc61243c6139f3565b8585613499565b94505050505090565b6060600060ce61245a6139f3565b906101000a90046001600160a01b03166001600160a01b031663fed4416a6040518163ffffffff1660e01b8152600401600060405180830381868061249d613b28565b1580156124b2576000806124af613988565b50505b505a6124bc613b74565b50505050501580156124db573d6000803e3d60006124d8613988565b50505b505050506040513d6000823e601f3d908101601f19168201604052602081101561250d5760008061250a613988565b50505b8101908080516040519392919084600160201b82111561253557600080612532613988565b50505b90830190602082018581111561255357600080612550613988565b50505b8251600160201b81118282018810171561257557600080612572613988565b50505b825250602001908051906020019080838360005b838110156125a1578082015183820152602001612589565b50505050905090810190601f1680156125ce5780820380516001836020036101000a031916815260200191505b50604052505050905090565b60005a610be1613a9c565b6001600160a01b0383166126335760405162461bcd60e51b8152600401808060200182810382526024815260200180613f2f6024913960400191505060405180910390612630613988565b50505b6001600160a01b0382166126815760405162461bcd60e51b8152600401808060200182810382526022815260200180613e2a602291396040019150506040518091039061267e613988565b50505b6001600160a01b038316600090815260666020528190604090206001600160a01b03841660009081526020919091526040902081906126be613a4e565b505050816001600160a01b0316836001600160a01b03167f8c5be1e5ebec7d5bd14f71427d1e84f3dd0314c0f7b2291e5b200ac8c7c3b9258360405190815260200160405180910390a3505050565b6000805a63996d79a5598160e01b8152602081600483336000905af158601d01573d60011458600c01573d6000803e3d621234565260ea61109c528051925060005b60408110156127665760008282015260200161274f565b5050509050600081612776613b28565b159250505090565b6001600061278a6139f3565b906101000a900460ff16806127a257506127a261270d565b806127bf57506000806127b36139f3565b906101000a900460ff16155b6128035760405162461bcd60e51b815260040180806020018281038252602e815260200180613ebb602e913960400191505060405180910390612800613988565b50505b60006001816128106139f3565b906101000a900460ff1615905080156128765760016000610100816128336139f3565b8160ff02191690831515021790612848613a4e565b50505060016000806101000a8161285d6139f3565b8160ff02191690831515021790612872613a4e565b5050505b61287e61350a565b6128888383613616565b80156128b2576000806101008161289d6139f3565b8160ff02191690831515021790610bcd613a4e565b505050565b600160006128c36139f3565b906101000a900460ff16806128db57506128db61270d565b806128f857506000806128ec6139f3565b906101000a900460ff16155b61293c5760405162461bcd60e51b815260040180806020018281038252602e815260200180613ebb602e913960400191505060405180910390612939613988565b50505b60006001816129496139f3565b906101000a900460ff1615905080156129af57600160006101008161296c6139f3565b8160ff02191690831515021790612981613a4e565b50505060016000806101000a816129966139f3565b8160ff021916908315150217906129ab613a4e565b5050505b6129b7613773565b801561162d57600080610100816114ad6139f3565b8060c96001816129da6139f3565b8160ff021916908315150217906129ef613a4e565b5050507f8d75e9ede4188432084b863d70b3416010c97547dfeb4fc17734d2e997ee0f3981604051901515815260200160405180910390a150565b60008060ce612a376139f3565b906101000a90046001600160a01b03166001600160a01b031663481c6a756040518163ffffffff1660e01b81526004016020604051808303818680611680613b28565b6001600160a01b038316612ac85760405162461bcd60e51b8152600401808060200182810382526025815260200180613f0a6025913960400191505060405180910390612ac5613988565b50505b6001600160a01b038216612b165760405162461bcd60e51b8152600401808060200182810382526023815260200180613de56023913960400191505060405180910390612b13613988565b50505b612b21838383613879565b612b5c81604051606081016040526026808252613e4c60208301396001600160a01b0386166000908152606560205260409020610e176139f3565b6001600160a01b03841660009081526065602052604090208190612b7e613a4e565b5050506001600160a01b03821660009081526065602052612ba7908290604090206115436139f3565b6001600160a01b03831660009081526065602052604090208190612bc9613a4e565b505050816001600160a01b0316836001600160a01b03167fddf252ad1be2c89b69c2b068fc378daa952ba7f163c4a11628f55a4df523b3ef8360405190815260200160405180910390a3505050565b60008184841115612cb05760405162461bcd60e51b81526004018080602001828103825283818151815260200191508051906020019080838360005b83811015612c6c578082015183820152602001612c54565b50505050905090810190601f168015612c995780820380516001836020036101000a031916815260200191505b509250505060405180910390612cad613988565b50505b505050900390565b6000612cc2611ee0565b90506000612cce610bd5565b90506000808060cb612cde6139f3565b906101000a90046001600160a01b03166001600160a01b031663b7a545265a63996d79a5598160e01b8152602081600483336000905af158601d01573d60011458600c01573d6000803e3d621234565260ea61109c528051925060005b6040811015612d5257600082820152602001612d3b565b5050506040516001600160e01b031960e084901b1681526001600160a01b03909116600482015260240160408051808303818680612d8e613b28565b158015612da357600080612da0613988565b50505b505a612dad613b74565b5050505050158015612dcc573d6000803e3d6000612dc9613988565b50505b505050506040513d6040811015612deb57600080612de8613988565b50505b810190808051929190602001805193955092935060009250612e1d91508690508560cc612e166139f3565b8686613499565b90506064811015612e32575050505050612293565b60008060cb612e3f6139f3565b906101000a90046001600160a01b03166001600160a01b0316631d68702d6040518163ffffffff1660e01b81526004016020604051808303818680612e82613b28565b158015612e9757600080612e94613988565b50505b505a612ea1613b74565b5050505050158015612ec0573d6000803e3d6000612ebd613988565b50505b505050506040513d6020811015612edf57600080612edc613988565b50505b81019080805193506000925082915081905060cb612efb6139f3565b906101000a90046001600160a01b03166001600160a01b0316639cada6e46040518163ffffffff1660e01b815260040160408051808303818680612f3d613b28565b158015612f5257600080612f4f613988565b50505b505a612f5c613b74565b5050505050158015612f7b573d6000803e3d6000612f78613988565b50505b505050506040513d6040811015612f9a57600080612f97613988565b50505b810190808051929190602001805193955092935060009250612fc49150839050610fd287866130e9565b90506000612fd28683613459565b90508115612fe457612fe48583613310565b8015612ff557612ff5611a74612a2a565b612fff8a8a613429565b8060cc61300a613a4e565b5050507f755a8059d66d8d243bc9f6913f429a811f154599d0538bb0b6a2ac23f23d2ccd5a63996d79a5598160e01b8152602081600483336000905af158601d01573d60011458600c01573d6000803e3d621234565260ea61109c528051925060005b60408110156130845760008282015260200161306d565b50505061308f612a2a565b88858560cc61309c6139f3565b6040516001600160a01b0396871681529490951660208501526040808501939093526060840191909152608083015260a082019290925260c001905180910390a150505050505050505050565b6000826130f8575060006109b1565b8282028284828161310557fe5b04146122d85760405162461bcd60e51b8152600401808060200182810382526021815260200180613e726021913960400191505060405180910390613148613988565b50509392505050565b60006122d8838360405160408082019052601a81527f536166654d6174683a206469766973696f6e206279207a65726f00000000000060208201526138dd565b6001600160a01b0382166131df5760405162461bcd60e51b8152600401808060200182810382526021815260200180613ee960219139604001915050604051809103906131dc613988565b50505b6131eb82600083613879565b61322681604051606081016040526022808252613e0860208301396001600160a01b0385166000908152606560205260409020610e176139f3565b6001600160a01b03831660009081526065602052604090208190613248613a4e565b50505061325f8160676132596139f3565b90613459565b80606761326a613a4e565b5060009150506001600160a01b0383167fddf252ad1be2c89b69c2b068fc378daa952ba7f163c4a11628f55a4df523b3ef8360405190815260200160405180910390a35050565b6000828201838110156122d85760405162461bcd60e51b815260206004820152601b60248201527f536166654d6174683a206164646974696f6e206f766572666c6f770000000000604482015260640160405180910390613148613988565b6001600160a01b0382166133735760405162461bcd60e51b815260206004820152601f60248201527f45524332303a206d696e7420746f20746865207a65726f206164647265737300604482015260640160405180910390613370613988565b50505b61337f60008383613879565b61338d8160676115436139f3565b806067613398613a4e565b5050506001600160a01b038216600090815260656020526133c1908290604090206115436139f3565b6001600160a01b038316600090815260656020526040902081906133e3613a4e565b5050506001600160a01b03821660007fddf252ad1be2c89b69c2b068fc378daa952ba7f163c4a11628f55a4df523b3ef8360405190815260200160405180910390a35050565b6000811580613436575082155b15613443575060006109b1565b6122d882610fd285670de0b6b3a76400006130e9565b60006122d8838360405160408082019052601e81527f536166654d6174683a207375627472616374696f6e206f766572666c6f7700006020820152612c18565b60008415806134a6575085155b156134b357506000613501565b60006134cb86610fd289670de0b6b3a76400006130e9565b90508481116134de576000915050613501565b60006134fc82610fd28681896134f68d81878f613459565b906130e9565b925050505b95945050505050565b600160006135166139f3565b906101000a900460ff168061352e575061352e61270d565b8061354b575060008061353f6139f3565b906101000a900460ff16155b61358f5760405162461bcd60e51b815260040180806020018281038252602e815260200180613ebb602e91396040019150506040518091039061358c613988565b50505b600060018161359c6139f3565b906101000a900460ff1615905080156129b75760016000610100816135bf6139f3565b8160ff021916908315150217906135d4613a4e565b50505060016000806101000a816135e96139f3565b8160ff021916908315150217906135fe613a4e565b505050801561162d57600080610100816114ad6139f3565b600160006136226139f3565b906101000a900460ff168061363a575061363a61270d565b80613657575060008061364b6139f3565b906101000a900460ff16155b61369b5760405162461bcd60e51b815260040180806020018281038252602e815260200180613ebb602e913960400191505060405180910390613698613988565b50505b60006001816136a86139f3565b906101000a900460ff16159050801561370e5760016000610100816136cb6139f3565b8160ff021916908315150217906136e0613a4e565b50505060016000806101000a816136f56139f3565b8160ff0219169083151502179061370a613a4e565b5050505b6068838051613721929160200190613d25565b506069828051613735929160200190613d25565b506012606a6001816137456139f3565b8160ff021916908360ff1602179061375b613a4e565b50505080156128b2576000806101008161289d6139f3565b6001600061377f6139f3565b906101000a900460ff1680613797575061379761270d565b806137b457506000806137a86139f3565b906101000a900460ff16155b6137f85760405162461bcd60e51b815260040180806020018281038252602e815260200180613ebb602e9139604001915050604051809103906137f5613988565b50505b60006001816138056139f3565b906101000a900460ff16159050801561386b5760016000610100816138286139f3565b8160ff0219169083151502179061383d613a4e565b50505060016000806101000a816138526139f3565b8160ff02191690831515021790613867613a4e565b5050505b6001609781816135e96139f3565b6138848383836128b2565b61388d83612143565b156128b25760405162461bcd60e51b815260206004820152600f60248201526e636f6f6c646f776e2061637469766560881b6044820152606401604051809103906138d6613988565b5050505050565b600081836139725760405162461bcd60e51b81526004018080602001828103825283818151815260200191508051906020019080838360005b8381101561392e578082015183820152602001613916565b50505050905090810190601f16801561395b5780820380516001836020036101000a031916815260200191505b50925050506040518091039061396f613988565b50505b50600083858161397e57fe5b0495945050505050565b632a2a7adb598160e01b8152600481016020815285602082015260005b868110156139c05780860151828201604001526020016139a5565b506020828760640184336000905af158601d01573d60011458600c01573d6000803e3d621234565260ea61109c52505050565b6303daa959598160e01b8152836004820152602081602483336000905af158601d01573d60011458600c01573d6000803e3d621234565260ea61109c528051935060005b60408110156128b257600082820152602001613a37565b6322bd64c0598160e01b8152836004820152846024820152600081604483336000905af158601d01573d60011458600c01573d6000803e3d621234565260ea61109c52600081526020613a37565b6373509064598160e01b8152602081600483336000905af158601d01573d60011458600c01573d6000803e3d621234565260ea61109c5280516000825293506020613a37565b63bdbf8c36598160e01b8152602081600483336000905af158601d01573d60011458600c01573d6000803e3d621234565260ea61109c5280516000825293506020613a37565b638435035b598160e01b8152836004820152602081602483336000905af158601d01573d60011458600c01573d6000803e3d621234565260ea61109c5280516000825293506020613a37565b638540661f598160e01b8152613ba5565b80808311156109b1575090919050565b80808310156109b1575090919050565b836004820152846024820152606060448201528660648201526084810160005b88811015613bdd578088015182820152602001613bc5565b506060828960a40184336000905af158601d01573d60011458600c01573d6000803e3d621234565260ea61109c52815160408301513d6000853e8b8b82606087013350600060045af15059613c328d3d613b95565b8c01613c3e8187613b85565b5b82811015613c535760008152602001613c3f565b50929c50505050505050565b6385979f76598160e01b8152836004820152846024820152606060448201528760648201526084810160005b89811015613ca3578089015182820152602001613c8b565b506060828a60a40184336000905af158601d01573d60011458600c01573d6000803e3d621234565260ea61109c52815160408301513d6000853e8c8c82606087013350600060045af15059613cf88e3d613b95565b8d01613d048187613b85565b5b82811015613d195760008152602001613d05565b50929d50505050505050565b8280613d2f6139f3565b600181600116156101000203166002900490600052602060002090601f016020900481019282601f10613d7657805160ff19168380011785613d6f613a4e565b5050613db5565b82800160010185613d85613a4e565b50508215613db5579182015b82811115613db557825182613da4613a4e565b505091602001919060010190613d91565b50613dc1929150613dc5565b5090565b80821115613dc15760008082613dd9613a4e565b505050600101613dc556fe45524332303a207472616e7366657220746f20746865207a65726f206164647265737345524332303a206275726e20616d6f756e7420657863656564732062616c616e636545524332303a20617070726f766520746f20746865207a65726f206164647265737345524332303a207472616e7366657220616d6f756e7420657863656564732062616c616e6365536166654d6174683a206d756c7469706c69636174696f6e206f766572666c6f7745524332303a207472616e7366657220616d6f756e74206578636565647320616c6c6f77616e6365436f6e747261637420696e7374616e63652068617320616c7265616479206265656e20696e697469616c697a656445524332303a206275726e2066726f6d20746865207a65726f206164647265737345524332303a207472616e736665722066726f6d20746865207a65726f206164647265737345524332303a20617070726f76652066726f6d20746865207a65726f206164647265737345524332303a2064656372656173656420616c6c6f77616e63652062656c6f77207a65726f",
  "linkReferences": {},
  "deployedLinkReferences": {}
}