{
  "_format": "hh-sol-artifact-1",
  "contractName": "PoolLogic",
  "sourceName": "contracts/PoolLogic.sol",
  "abi": [
    {
      "anonymous": false,
      "inputs": [
        {
          "indexed": true,
          "internalType": "address",
          "name": "owner",
          "type": "address"
        },
        {
          "indexed": true,
          "internalType": "address",
          "name": "spender",
          "type": "address"
        },
        {
          "indexed": false,
          "internalType": "uint256",
          "name": "value",
          "type": "uint256"
        }
      ],
      "name": "Approval",
      "type": "event"
    },
    {
      "anonymous": false,
      "inputs": [
        {
          "indexed": false,
          "internalType": "address",
          "name": "fundAddress",
          "type": "address"
        },
        {
          "indexed": false,
          "internalType": "address",
          "name": "investor",
          "type": "address"
        },
        {
          "indexed": false,
          "internalType": "uint256",
          "name": "valueDeposited",
          "type": "uint256"
        },
        {
          "indexed": false,
          "internalType": "uint256",
          "name": "fundTokensReceived",
          "type": "uint256"
        },
        {
          "indexed": false,
          "internalType": "uint256",
          "name": "totalInvestorFundTokens",
          "type": "uint256"
        },
        {
          "indexed": false,
          "internalType": "uint256",
          "name": "fundValue",
          "type": "uint256"
        },
        {
          "indexed": false,
          "internalType": "uint256",
          "name": "totalSupply",
          "type": "uint256"
        },
        {
          "indexed": false,
          "internalType": "uint256",
          "name": "time",
          "type": "uint256"
        }
      ],
      "name": "Deposit",
      "type": "event"
    },
    {
      "anonymous": false,
      "inputs": [
        {
          "indexed": false,
          "internalType": "address",
          "name": "pool",
          "type": "address"
        },
        {
          "indexed": false,
          "internalType": "address",
          "name": "manager",
          "type": "address"
        },
        {
          "indexed": false,
          "internalType": "uint256",
          "name": "available",
          "type": "uint256"
        },
        {
          "indexed": false,
          "internalType": "uint256",
          "name": "daoFee",
          "type": "uint256"
        },
        {
          "indexed": false,
          "internalType": "uint256",
          "name": "managerFee",
          "type": "uint256"
        },
        {
          "indexed": false,
          "internalType": "uint256",
          "name": "tokenPriceAtLastFeeMint",
          "type": "uint256"
        }
      ],
      "name": "ManagerFeeMinted",
      "type": "event"
    },
    {
      "anonymous": false,
      "inputs": [
        {
          "indexed": false,
          "internalType": "address",
          "name": "account",
          "type": "address"
        }
      ],
      "name": "Paused",
      "type": "event"
    },
    {
      "anonymous": false,
      "inputs": [
        {
          "indexed": false,
          "internalType": "address",
          "name": "poolManagerLogic",
          "type": "address"
        },
        {
          "indexed": false,
          "internalType": "address",
          "name": "from",
          "type": "address"
        }
      ],
      "name": "PoolManagerLogicSet",
      "type": "event"
    },
    {
      "anonymous": false,
      "inputs": [
        {
          "indexed": false,
          "internalType": "bool",
          "name": "isPoolPrivate",
          "type": "bool"
        }
      ],
      "name": "PoolPrivacyUpdated",
      "type": "event"
    },
    {
      "anonymous": false,
      "inputs": [
        {
          "indexed": true,
          "internalType": "address",
          "name": "from",
          "type": "address"
        },
        {
          "indexed": true,
          "internalType": "address",
          "name": "to",
          "type": "address"
        },
        {
          "indexed": false,
          "internalType": "uint256",
          "name": "value",
          "type": "uint256"
        }
      ],
      "name": "Transfer",
      "type": "event"
    },
    {
      "anonymous": false,
      "inputs": [
        {
          "indexed": false,
          "internalType": "address",
          "name": "account",
          "type": "address"
        }
      ],
      "name": "Unpaused",
      "type": "event"
    },
    {
      "anonymous": false,
      "inputs": [
        {
          "indexed": false,
          "internalType": "address",
          "name": "fundAddress",
          "type": "address"
        },
        {
          "indexed": false,
          "internalType": "address",
          "name": "investor",
          "type": "address"
        },
        {
          "indexed": false,
          "internalType": "uint256",
          "name": "valueWithdrawn",
          "type": "uint256"
        },
        {
          "indexed": false,
          "internalType": "uint256",
          "name": "fundTokensWithdrawn",
          "type": "uint256"
        },
        {
          "indexed": false,
          "internalType": "uint256",
          "name": "totalInvestorFundTokens",
          "type": "uint256"
        },
        {
          "indexed": false,
          "internalType": "uint256",
          "name": "fundValue",
          "type": "uint256"
        },
        {
          "indexed": false,
          "internalType": "uint256",
          "name": "totalSupply",
          "type": "uint256"
        },
        {
          "indexed": false,
          "internalType": "uint256",
          "name": "time",
          "type": "uint256"
        }
      ],
      "name": "Withdrawal",
      "type": "event"
    },
    {
      "inputs": [
        {
          "internalType": "address",
          "name": "owner",
          "type": "address"
        },
        {
          "internalType": "address",
          "name": "spender",
          "type": "address"
        }
      ],
      "name": "allowance",
      "outputs": [
        {
          "internalType": "uint256",
          "name": "",
          "type": "uint256"
        }
      ],
      "stateMutability": "view",
      "type": "function"
    },
    {
      "inputs": [
        {
          "internalType": "address",
          "name": "spender",
          "type": "address"
        },
        {
          "internalType": "uint256",
          "name": "amount",
          "type": "uint256"
        }
      ],
      "name": "approve",
      "outputs": [
        {
          "internalType": "bool",
          "name": "",
          "type": "bool"
        }
      ],
      "stateMutability": "nonpayable",
      "type": "function"
    },
    {
      "inputs": [],
      "name": "availableManagerFee",
      "outputs": [
        {
          "internalType": "uint256",
          "name": "",
          "type": "uint256"
        }
      ],
      "stateMutability": "view",
      "type": "function"
    },
    {
      "inputs": [
        {
          "internalType": "address",
          "name": "account",
          "type": "address"
        }
      ],
      "name": "balanceOf",
      "outputs": [
        {
          "internalType": "uint256",
          "name": "",
          "type": "uint256"
        }
      ],
      "stateMutability": "view",
      "type": "function"
    },
    {
      "inputs": [],
      "name": "creationTime",
      "outputs": [
        {
          "internalType": "uint256",
          "name": "",
          "type": "uint256"
        }
      ],
      "stateMutability": "view",
      "type": "function"
    },
    {
      "inputs": [],
      "name": "creator",
      "outputs": [
        {
          "internalType": "address",
          "name": "",
          "type": "address"
        }
      ],
      "stateMutability": "view",
      "type": "function"
    },
    {
      "inputs": [],
      "name": "decimals",
      "outputs": [
        {
          "internalType": "uint8",
          "name": "",
          "type": "uint8"
        }
      ],
      "stateMutability": "view",
      "type": "function"
    },
    {
      "inputs": [
        {
          "internalType": "address",
          "name": "spender",
          "type": "address"
        },
        {
          "internalType": "uint256",
          "name": "subtractedValue",
          "type": "uint256"
        }
      ],
      "name": "decreaseAllowance",
      "outputs": [
        {
          "internalType": "bool",
          "name": "",
          "type": "bool"
        }
      ],
      "stateMutability": "nonpayable",
      "type": "function"
    },
    {
      "inputs": [
        {
          "internalType": "address",
          "name": "_asset",
          "type": "address"
        },
        {
          "internalType": "uint256",
          "name": "_amount",
          "type": "uint256"
        }
      ],
      "name": "deposit",
      "outputs": [
        {
          "internalType": "uint256",
          "name": "",
          "type": "uint256"
        }
      ],
      "stateMutability": "nonpayable",
      "type": "function"
    },
    {
      "inputs": [],
      "name": "factory",
      "outputs": [
        {
          "internalType": "address",
          "name": "",
          "type": "address"
        }
      ],
      "stateMutability": "view",
      "type": "function"
    },
    {
      "inputs": [],
      "name": "getExitCooldown",
      "outputs": [
        {
          "internalType": "uint256",
          "name": "",
          "type": "uint256"
        }
      ],
      "stateMutability": "view",
      "type": "function"
    },
    {
      "inputs": [
        {
          "internalType": "address",
          "name": "sender",
          "type": "address"
        }
      ],
      "name": "getExitRemainingCooldown",
      "outputs": [
        {
          "internalType": "uint256",
          "name": "",
          "type": "uint256"
        }
      ],
      "stateMutability": "view",
      "type": "function"
    },
    {
      "inputs": [],
      "name": "getFundSummary",
      "outputs": [
        {
          "internalType": "string",
          "name": "",
          "type": "string"
        },
        {
          "internalType": "uint256",
          "name": "",
          "type": "uint256"
        },
        {
          "internalType": "uint256",
          "name": "",
          "type": "uint256"
        },
        {
          "internalType": "address",
          "name": "",
          "type": "address"
        },
        {
          "internalType": "string",
          "name": "",
          "type": "string"
        },
        {
          "internalType": "uint256",
          "name": "",
          "type": "uint256"
        },
        {
          "internalType": "bool",
          "name": "",
          "type": "bool"
        },
        {
          "internalType": "uint256",
          "name": "",
          "type": "uint256"
        },
        {
          "internalType": "uint256",
          "name": "",
          "type": "uint256"
        }
      ],
      "stateMutability": "view",
      "type": "function"
    },
    {
      "inputs": [
        {
          "internalType": "address",
          "name": "spender",
          "type": "address"
        },
        {
          "internalType": "uint256",
          "name": "addedValue",
          "type": "uint256"
        }
      ],
      "name": "increaseAllowance",
      "outputs": [
        {
          "internalType": "bool",
          "name": "",
          "type": "bool"
        }
      ],
      "stateMutability": "nonpayable",
      "type": "function"
    },
    {
      "inputs": [
        {
          "internalType": "address",
          "name": "_factory",
          "type": "address"
        },
        {
          "internalType": "bool",
          "name": "_privatePool",
          "type": "bool"
        },
        {
          "internalType": "string",
          "name": "_fundName",
          "type": "string"
        },
        {
          "internalType": "string",
          "name": "_fundSymbol",
          "type": "string"
        },
        {
          "internalType": "address",
          "name": "_poolManagerLogic",
          "type": "address"
        }
      ],
      "name": "initialize",
      "outputs": [],
      "stateMutability": "nonpayable",
      "type": "function"
    },
    {
      "inputs": [
        {
          "internalType": "address",
          "name": "member",
          "type": "address"
        }
      ],
      "name": "isMemberAllowed",
      "outputs": [
        {
          "internalType": "bool",
          "name": "",
          "type": "bool"
        }
      ],
      "stateMutability": "view",
      "type": "function"
    },
    {
      "inputs": [
        {
          "internalType": "address",
          "name": "",
          "type": "address"
        }
      ],
      "name": "lastDeposit",
      "outputs": [
        {
          "internalType": "uint256",
          "name": "",
          "type": "uint256"
        }
      ],
      "stateMutability": "view",
      "type": "function"
    },
    {
      "inputs": [],
      "name": "managerName",
      "outputs": [
        {
          "internalType": "string",
          "name": "",
          "type": "string"
        }
      ],
      "stateMutability": "view",
      "type": "function"
    },
    {
      "inputs": [],
      "name": "mintManagerFee",
      "outputs": [],
      "stateMutability": "nonpayable",
      "type": "function"
    },
    {
      "inputs": [],
      "name": "name",
      "outputs": [
        {
          "internalType": "string",
          "name": "",
          "type": "string"
        }
      ],
      "stateMutability": "view",
      "type": "function"
    },
    {
      "inputs": [],
      "name": "paused",
      "outputs": [
        {
          "internalType": "bool",
          "name": "",
          "type": "bool"
        }
      ],
      "stateMutability": "view",
      "type": "function"
    },
    {
      "inputs": [],
      "name": "poolManagerLogic",
      "outputs": [
        {
          "internalType": "address",
          "name": "",
          "type": "address"
        }
      ],
      "stateMutability": "view",
      "type": "function"
    },
    {
      "inputs": [],
      "name": "privatePool",
      "outputs": [
        {
          "internalType": "bool",
          "name": "",
          "type": "bool"
        }
      ],
      "stateMutability": "view",
      "type": "function"
    },
    {
      "inputs": [
        {
          "internalType": "address",
          "name": "_poolManagerLogic",
          "type": "address"
        }
      ],
      "name": "setPoolManagerLogic",
      "outputs": [
        {
          "internalType": "bool",
          "name": "",
          "type": "bool"
        }
      ],
      "stateMutability": "nonpayable",
      "type": "function"
    },
    {
      "inputs": [
        {
          "internalType": "bool",
          "name": "_privatePool",
          "type": "bool"
        }
      ],
      "name": "setPoolPrivate",
      "outputs": [],
      "stateMutability": "nonpayable",
      "type": "function"
    },
    {
      "inputs": [],
      "name": "symbol",
      "outputs": [
        {
          "internalType": "string",
          "name": "",
          "type": "string"
        }
      ],
      "stateMutability": "view",
      "type": "function"
    },
    {
      "inputs": [],
      "name": "tokenPrice",
      "outputs": [
        {
          "internalType": "uint256",
          "name": "",
          "type": "uint256"
        }
      ],
      "stateMutability": "view",
      "type": "function"
    },
    {
      "inputs": [],
      "name": "tokenPriceAtLastFeeMint",
      "outputs": [
        {
          "internalType": "uint256",
          "name": "",
          "type": "uint256"
        }
      ],
      "stateMutability": "view",
      "type": "function"
    },
    {
      "inputs": [],
      "name": "totalFundValue",
      "outputs": [
        {
          "internalType": "uint256",
          "name": "",
          "type": "uint256"
        }
      ],
      "stateMutability": "view",
      "type": "function"
    },
    {
      "inputs": [],
      "name": "totalSupply",
      "outputs": [
        {
          "internalType": "uint256",
          "name": "",
          "type": "uint256"
        }
      ],
      "stateMutability": "view",
      "type": "function"
    },
    {
      "inputs": [
        {
          "internalType": "address",
          "name": "recipient",
          "type": "address"
        },
        {
          "internalType": "uint256",
          "name": "amount",
          "type": "uint256"
        }
      ],
      "name": "transfer",
      "outputs": [
        {
          "internalType": "bool",
          "name": "",
          "type": "bool"
        }
      ],
      "stateMutability": "nonpayable",
      "type": "function"
    },
    {
      "inputs": [
        {
          "internalType": "address",
          "name": "sender",
          "type": "address"
        },
        {
          "internalType": "address",
          "name": "recipient",
          "type": "address"
        },
        {
          "internalType": "uint256",
          "name": "amount",
          "type": "uint256"
        }
      ],
      "name": "transferFrom",
      "outputs": [
        {
          "internalType": "bool",
          "name": "",
          "type": "bool"
        }
      ],
      "stateMutability": "nonpayable",
      "type": "function"
    },
    {
      "inputs": [
        {
          "internalType": "uint256",
          "name": "_fundTokenAmount",
          "type": "uint256"
        }
      ],
      "name": "withdraw",
      "outputs": [],
      "stateMutability": "nonpayable",
      "type": "function"
    }
  ],
  "bytecode": "0x608060405234801561001057600080fd5b50612cab806100206000396000f3fe608060405234801561001057600080fd5b50600436106101fb5760003560e01c80635c975abb1161011a578063ad60ffcc116100ad578063cc3c6df61161007c578063cc3c6df6146107b0578063d8270dce146107b8578063dd62ed3e146107c0578063edbf6f50146107ee578063fed4416a146107f6576101fb565b8063ad60ffcc14610754578063b8ea2b6e1461075c578063bbbf725b14610782578063c45a0155146107a8576101fb565b80637ff9b596116100e95780637ff9b596146106ec57806395d89b41146106f4578063a457c2d7146106fc578063a9059cbb14610728576101fb565b80635c975abb1461069057806370a0823114610698578063750226de146106be5780637714f39d146106e4576101fb565b806329d16ee8116101925780633babaad5116101615780633babaad5146106355780634501b0881461065457806347e7ef241461065c57806359b5e75e14610688576101fb565b806329d16ee8146105a85780632e1a7d4d146105ce578063313ce567146105eb5780633950935114610609576101fb565b806318160ddd116101ce57806318160ddd1461042e5780631c5918d2146104485780631e50a4a61461056a57806323b872dd14610572576101fb565b806302d05d3f1461020057806306fdde0314610224578063095ea7b3146102a15780630ccb30c7146102e1575b600080fd5b6102086107fe565b604080516001600160a01b039092168252519081900360200190f35b61022c610812565b6040805160208082528351818301528351919283929083019185019080838360005b8381101561026657818101518382015260200161024e565b50505050905090810190601f1680156102935780820380516001836020036101000a031916815260200191505b509250505060405180910390f35b6102cd600480360360408110156102b757600080fd5b506001600160a01b0381351690602001356108a8565b604080519115158252519081900360200190f35b61042c600480360360a08110156102f757600080fd5b6001600160a01b03823516916020810135151591810190606081016040820135600160201b81111561032857600080fd5b82018360208201111561033a57600080fd5b803590602001918460018302840111600160201b8311171561035b57600080fd5b91908080601f0160208091040260200160405190810160405280939291908181526020018383808284376000920191909152509295949360208101935035915050600160201b8111156103ad57600080fd5b8201836020820111156103bf57600080fd5b803590602001918460018302840111600160201b831117156103e057600080fd5b91908080601f016020809104026020016040519081016040528093929190818152602001838380828437600092019190915250929550505090356001600160a01b031691506108c69050565b005b6104366109e9565b60408051918252519081900360200190f35b6104506109ef565b60405180806020018a8152602001898152602001886001600160a01b0316815260200180602001878152602001861515815260200185815260200184815260200183810383528c818151815260200191508051906020019080838360005b838110156104c65781810151838201526020016104ae565b50505050905090810190601f1680156104f35780820380516001836020036101000a031916815260200191505b5083810382528851815288516020918201918a019080838360005b8381101561052657818101518382015260200161050e565b50505050905090810190601f1680156105535780820380516001836020036101000a031916815260200191505b509b50505050505050505050505060405180910390f35b610208610af6565b6102cd6004803603606081101561058857600080fd5b506001600160a01b03813581169160208101359091169060400135610b06565b610436600480360360208110156105be57600080fd5b50356001600160a01b0316610b8d565b61042c600480360360208110156105e457600080fd5b5035610b9f565b6105f361104b565b6040805160ff9092168252519081900360200190f35b6102cd6004803603604081101561061f57600080fd5b506001600160a01b038135169060200135611054565b61042c6004803603602081101561064b57600080fd5b503515156110a2565b610436611161565b6104366004803603604081101561067257600080fd5b506001600160a01b0381351690602001356111d7565b6102cd6114ea565b6102cd6114f3565b610436600480360360208110156106ae57600080fd5b50356001600160a01b03166114fc565b6102cd600480360360208110156106d457600080fd5b50356001600160a01b031661151b565b610436611658565b61043661165e565b61022c611688565b6102cd6004803603604081101561071257600080fd5b506001600160a01b0381351690602001356116e9565b6102cd6004803603604081101561073e57600080fd5b506001600160a01b038135169060200135611751565b610436611765565b6104366004803603602081101561077257600080fd5b50356001600160a01b0316611938565b6102cd6004803603602081101561079857600080fd5b50356001600160a01b0316611991565b610208611a15565b61042c611a24565b610436611a2e565b610436600480360360408110156107d657600080fd5b506001600160a01b0381358116916020013516611a34565b610436611a5f565b61022c611b15565b60fb5461010090046001600160a01b031681565b60688054604080516020601f600260001961010060018816150201909516949094049384018190048102820181019092528281526060939092909183018282801561089e5780601f106108735761010080835404028352916020019161089e565b820191906000526020600020905b81548152906001019060200180831161088157829003601f168201915b5050505050905090565b60006108bc6108b5611c4b565b8484611c4f565b5060015b92915050565b600054610100900460ff16806108df57506108df611d3b565b806108ed575060005460ff16155b6109285760405162461bcd60e51b815260040180806020018281038252602e815260200180612bb9602e913960400191505060405180910390fd5b600054610100900460ff16158015610953576000805460ff1961ff0019909116610100171660011790555b61095d8484611d41565b610965611df7565b60fd80546001600160a01b0319166001600160a01b03881617905561098985611ea0565b60fb8054610100600160a81b03191633610100908102919091179091554260fc55670de0b6b3a764000060fe5580546001600160a01b0319166001600160a01b03841617905580156109e1576000805461ff00191690555b505050505050565b60675490565b60606000806000606060008060008060008060fd60009054906101000a90046001600160a01b03166001600160a01b031663b7a54526306040518263ffffffff1660e01b815260040180826001600160a01b03168152602001915050604080518083038186803b158015610a6257600080fd5b505afa158015610a76573d6000803e3d6000fd5b505050506040513d6040811015610a8c57600080fd5b5080516020909101519092509050610aa2610812565b610aaa6109e9565b610ab2611765565b610aba611ee7565b610ac2611b15565b60fc5460fb60009054906101000a900460ff1688889a509a509a509a509a509a509a509a509a505050909192939495969798565b610100546001600160a01b031681565b6000610b13848484611f2d565b610b8384610b1f611c4b565b610b7e85604051806060016040528060288152602001612b91602891396001600160a01b038a16600090815260666020526040812090610b5d611c4b565b6001600160a01b03168152602081019190915260400160002054919061208a565b611c4f565b5060019392505050565b60ff6020526000908152604090205481565b60975460ff16610bf6576040805162461bcd60e51b815260206004820152601f60248201527f5265656e7472616e637947756172643a207265656e7472616e742063616c6c00604482015290519081900360640190fd5b6097805460ff1916905560c95460ff1615610c4b576040805162461bcd60e51b815260206004820152601060248201526f14185d5cd8589b194e881c185d5cd95960821b604482015290519081900360640190fd5b80610c55336114fc565b1015610c9f576040805162461bcd60e51b8152602060048201526014602482015273696e73756666696369656e742062616c616e636560601b604482015290519081900360640190fd5b610ca833611938565b15610cec576040805162461bcd60e51b815260206004820152600f60248201526e636f6f6c646f776e2061637469766560881b604482015290519081900360640190fd5b610cf4612121565b6000610cfe611765565b90506000610d25610d0d6109e9565b610d1f85670de0b6b3a764000061239f565b906123ff565b9050610d313384612441565b610100546040805163e5406dbf60e01b815290516001600160a01b0390921691606091839163e5406dbf91600480820192600092909190829003018186803b158015610d7c57600080fd5b505afa158015610d90573d6000803e3d6000fd5b505050506040513d6000823e601f3d908101601f191682016040526020811015610db957600080fd5b8101908080516040519392919084600160201b821115610dd857600080fd5b908301906020820185811115610ded57600080fd5b82518660208202830111600160201b82111715610e0957600080fd5b82525081516020918201928201910280838360005b83811015610e36578181015183820152602001610e1e565b50505050905001604052505050905060008151905060005b81811015610f92576000838281518110610e6457fe5b602002602001015190506000816001600160a01b03166370a08231306040518263ffffffff1660e01b815260040180826001600160a01b0316815260200191505060206040518083038186803b158015610ebd57600080fd5b505afa158015610ed1573d6000803e3d6000fd5b505050506040513d6020811015610ee757600080fd5b505190506000610f03670de0b6b3a7640000610d1f848b61239f565b90508015610f87576040805163a9059cbb60e01b81523360048201526024810183905290516001600160a01b0385169163a9059cbb9160448083019260209291908290030181600087803b158015610f5a57600080fd5b505af1158015610f6e573d6000803e3d6000fd5b505050506040513d6020811015610f8457600080fd5b50505b505050600101610e4e565b506000610fab670de0b6b3a7640000610d1f878961239f565b90507f79d44cc8beeed36226f14818b2ecaca7ef252bcd56c9ae35f5a86869dbdefb973033838a610fdb336114fc565b610fe3611765565b610feb6109e9565b604080516001600160a01b039889168152969097166020870152858701949094526060850192909252608084015260a083015260c08201524260e08201529051908190036101000190a150506097805460ff191660011790555050505050565b606a5460ff1690565b60006108bc611061611c4b565b84610b7e8560666000611072611c4b565b6001600160a01b03908116825260208083019390935260409182016000908120918c16815292529020549061253d565b6110aa611ee7565b6001600160a01b0316336001600160a01b0316146110fe576040805162461bcd60e51b815260206004820152600c60248201526b37b7363c9036b0b730b3b2b960a11b604482015290519081900360640190fd5b60fb5460ff1615158115151415611155576040805162461bcd60e51b8152602060048201526016602482015275199b1859c81b5d5cdd08189948191a5999995c995b9d60521b604482015290519081900360640190fd5b61115e81611ea0565b50565b60fd54604080516308a0361160e31b815290516000926001600160a01b031691634501b088916004808301926020929190829003018186803b1580156111a657600080fd5b505afa1580156111ba573d6000803e3d6000fd5b505050506040513d60208110156111d057600080fd5b5051905090565b60006111e1611ee7565b6001600160a01b0316336001600160a01b03161480611203575060fb5460ff16155b80611212575061121233611991565b61125a576040805162461bcd60e51b81526020600482015260146024820152731bdb9b1e481b595b58995c9cc8185b1b1bddd95960621b604482015290519081900360640190fd5b60c95460ff16156112a5576040805162461bcd60e51b815260206004820152601060248201526f14185d5cd8589b194e881c185d5cd95960821b604482015290519081900360640190fd5b33600090815260ff602052604090204290556112bf612121565b60006112c9611765565b905060006112d56109e9565b604080516323b872dd60e01b81523360048201523060248201526044810187905290519192506001600160a01b038716916323b872dd916064808201926020929091908290030181600087803b15801561132e57600080fd5b505af1158015611342573d6000803e3d6000fd5b505050506040513d602081101561135857600080fd5b50516113a3576040805162461bcd60e51b81526020600482015260156024820152741d1bdad95b881d1c985b9cd9995c8819985a5b1959605a1b604482015290519081900360640190fd5b61010054604080516314e03fdd60e11b81526001600160a01b03888116600483015260248201889052915160009392909216916329c07fba91604480820192602092909190829003018186803b1580156113fc57600080fd5b505afa158015611410573d6000803e3d6000fd5b505050506040513d602081101561142657600080fd5b50519050600082156114475761144084610d1f848661239f565b905061144a565b50805b6114543382612597565b7f87fdcba84e083ebb8fd661bbafee3eb38764ec6f0cbeea8ed52deffa67bd45dc30338484611482336114fc565b61148c8a8961253d565b6114968a8961253d565b604080516001600160a01b039889168152969097166020870152858701949094526060850192909252608084015260a083015260c08201524260e08201529051908190036101000190a19695505050505050565b60fb5460ff1681565b60c95460ff1690565b6001600160a01b0381166000908152606560205260409020545b919050565b60008060fd60009054906101000a90046001600160a01b03166001600160a01b0316631d68702d6040518163ffffffff1660e01b815260040160206040518083038186803b15801561156c57600080fd5b505afa158015611580573d6000803e3d6000fd5b505050506040513d602081101561159657600080fd5b50519050336001600160a01b038216146115f7576040805162461bcd60e51b815260206004820152601860248201527f6f6e6c792044414f206164647265737320616c6c6f7765640000000000000000604482015290519081900360640190fd5b61010080546001600160a01b0319166001600160a01b0385169081179091556040805191825233602083015280517f63fb64c359a4cae97e1bf003c1ab11390b5f0e18cc5b3d67b90bd61c0f5c52fd9281900390910190a150600192915050565b60fe5481565b600080611669611765565b905060006116756109e9565b90506116818282612689565b9250505090565b60698054604080516020601f600260001961010060018816150201909516949094049384018190048102820181019092528281526060939092909183018282801561089e5780601f106108735761010080835404028352916020019161089e565b60006108bc6116f6611c4b565b84610b7e85604051806060016040528060258152602001612c516025913960666000611720611c4b565b6001600160a01b03908116825260208083019390935260409182016000908120918d1681529252902054919061208a565b60006108bc61175e611c4b565b8484611f2d565b610100546040805163e5406dbf60e01b8152905160009283926001600160a01b0390911691606091839163e5406dbf916004808201928892909190829003018186803b1580156117b457600080fd5b505afa1580156117c8573d6000803e3d6000fd5b505050506040513d6000823e601f3d908101601f1916820160405260208110156117f157600080fd5b8101908080516040519392919084600160201b82111561181057600080fd5b90830190602082018581111561182557600080fd5b82518660208202830111600160201b8211171561184157600080fd5b82525081516020918201928201910280838360005b8381101561186e578181015183820152602001611856565b50505050905001604052505050905060008151905060005b8181101561192e57611924846001600160a01b031663d8af8ed48584815181106118ac57fe5b60200260200101516040518263ffffffff1660e01b815260040180826001600160a01b0316815260200191505060206040518083038186803b1580156118f157600080fd5b505afa158015611905573d6000803e3d6000fd5b505050506040513d602081101561191b57600080fd5b5051869061253d565b9450600101611886565b5092935050505090565b600080611943611161565b6001600160a01b038416600090815260ff60205260408120549192509061196a908361253d565b90504281101561197f57600092505050611516565b61198981426126b9565b949350505050565b610100546040805163bbbf725b60e01b81526001600160a01b0384811660048301529151600093929092169163bbbf725b91602480820192602092909190829003018186803b1580156119e357600080fd5b505afa1580156119f7573d6000803e3d6000fd5b505050506040513d6020811015611a0d57600080fd5b505192915050565b60fd546001600160a01b031681565b611a2c612121565b565b60fc5481565b6001600160a01b03918216600090815260666020908152604080832093909416825291909152205490565b600080611a6a611765565b90506000611a766109e9565b60fd5460408051635bd2a29360e11b8152306004820152815193945060009384936001600160a01b03169263b7a545269260248082019391829003018186803b158015611ac257600080fd5b505afa158015611ad6573d6000803e3d6000fd5b505050506040513d6040811015611aec57600080fd5b50805160209091015160fe549193509150611b0c908590859085856126fb565b94505050505090565b6101005460408051637f6a20b560e11b815290516060926001600160a01b03169163fed4416a916004808301926000929190829003018186803b158015611b5b57600080fd5b505afa158015611b6f573d6000803e3d6000fd5b505050506040513d6000823e601f3d908101601f191682016040526020811015611b9857600080fd5b8101908080516040519392919084600160201b821115611bb757600080fd5b908301906020820185811115611bcc57600080fd5b8251600160201b811182820188101715611be557600080fd5b82525081516020918201929091019080838360005b83811015611c12578181015183820152602001611bfa565b50505050905090810190601f168015611c3f5780820380516001836020036101000a031916815260200191505b50604052505050905090565b3390565b6001600160a01b038316611c945760405162461bcd60e51b8152600401808060200182810382526024815260200180612c2d6024913960400191505060405180910390fd5b6001600160a01b038216611cd95760405162461bcd60e51b8152600401808060200182810382526022815260200180612b286022913960400191505060405180910390fd5b6001600160a01b03808416600081815260666020908152604080832094871680845294825291829020859055815185815291517f8c5be1e5ebec7d5bd14f71427d1e84f3dd0314c0f7b2291e5b200ac8c7c3b9259281900390910190a3505050565b303b1590565b600054610100900460ff1680611d5a5750611d5a611d3b565b80611d68575060005460ff16155b611da35760405162461bcd60e51b815260040180806020018281038252602e815260200180612bb9602e913960400191505060405180910390fd5b600054610100900460ff16158015611dce576000805460ff1961ff0019909116610100171660011790555b611dd661276c565b611de0838361280c565b8015611df2576000805461ff00191690555b505050565b600054610100900460ff1680611e105750611e10611d3b565b80611e1e575060005460ff16155b611e595760405162461bcd60e51b815260040180806020018281038252602e815260200180612bb9602e913960400191505060405180910390fd5b600054610100900460ff16158015611e84576000805460ff1961ff0019909116610100171660011790555b611e8c6128e4565b801561115e576000805461ff001916905550565b60fb805482151560ff19909116811790915560408051918252517f8d75e9ede4188432084b863d70b3416010c97547dfeb4fc17734d2e997ee0f399181900360200190a150565b610100546040805163481c6a7560e01b815290516000926001600160a01b03169163481c6a75916004808301926020929190829003018186803b1580156111a657600080fd5b6001600160a01b038316611f725760405162461bcd60e51b8152600401808060200182810382526025815260200180612c086025913960400191505060405180910390fd5b6001600160a01b038216611fb75760405162461bcd60e51b8152600401808060200182810382526023815260200180612ae36023913960400191505060405180910390fd5b611fc2838383612992565b611fff81604051806060016040528060268152602001612b4a602691396001600160a01b038616600090815260656020526040902054919061208a565b6001600160a01b03808516600090815260656020526040808220939093559084168152205461202e908261253d565b6001600160a01b0380841660008181526065602090815260409182902094909455805185815290519193928716927fddf252ad1be2c89b69c2b068fc378daa952ba7f163c4a11628f55a4df523b3ef92918290030190a3505050565b600081848411156121195760405162461bcd60e51b81526004018080602001828103825283818151815260200191508051906020019080838360005b838110156120de5781810151838201526020016120c6565b50505050905090810190601f16801561210b5780820380516001836020036101000a031916815260200191505b509250505060405180910390fd5b505050900390565b600061212b611765565b905060006121376109e9565b60fd5460408051635bd2a29360e11b8152306004820152815193945060009384936001600160a01b03169263b7a545269260248082019391829003018186803b15801561218357600080fd5b505afa158015612197573d6000803e3d6000fd5b505050506040513d60408110156121ad57600080fd5b50805160209091015160fe5491935091506000906121d0908690869086866126fb565b905060648110156121e5575050505050611a2c565b60fd5460408051631d68702d60e01b815290516000926001600160a01b031691631d68702d916004808301926020929190829003018186803b15801561222a57600080fd5b505afa15801561223e573d6000803e3d6000fd5b505050506040513d602081101561225457600080fd5b505160fd546040805163272b69b960e21b8152815193945060009384936001600160a01b031692639cada6e49260048082019391829003018186803b15801561229c57600080fd5b505afa1580156122b0573d6000803e3d6000fd5b505050506040513d60408110156122c657600080fd5b508051602090910151909250905060006122e482610d1f878661239f565b905060006122f286836126b9565b90508115612304576123048583612597565b801561231b5761231b612315611ee7565b82612597565b6123258a8a612689565b60fe557f755a8059d66d8d243bc9f6913f429a811f154599d0538bb0b6a2ac23f23d2ccd30612352611ee7565b60fe54604080516001600160a01b0394851681529290931660208301528183018a9052606082018690526080820185905260a082015290519081900360c00190a150505050505050505050565b6000826123ae575060006108c0565b828202828482816123bb57fe5b04146123f85760405162461bcd60e51b8152600401808060200182810382526021815260200180612b706021913960400191505060405180910390fd5b9392505050565b60006123f883836040518060400160405280601a81526020017f536166654d6174683a206469766973696f6e206279207a65726f0000000000008152506129ea565b6001600160a01b0382166124865760405162461bcd60e51b8152600401808060200182810382526021815260200180612be76021913960400191505060405180910390fd5b61249282600083612992565b6124cf81604051806060016040528060228152602001612b06602291396001600160a01b038516600090815260656020526040902054919061208a565b6001600160a01b0383166000908152606560205260409020556067546124f590826126b9565b6067556040805182815290516000916001600160a01b038516917fddf252ad1be2c89b69c2b068fc378daa952ba7f163c4a11628f55a4df523b3ef9181900360200190a35050565b6000828201838110156123f8576040805162461bcd60e51b815260206004820152601b60248201527f536166654d6174683a206164646974696f6e206f766572666c6f770000000000604482015290519081900360640190fd5b6001600160a01b0382166125f2576040805162461bcd60e51b815260206004820152601f60248201527f45524332303a206d696e7420746f20746865207a65726f206164647265737300604482015290519081900360640190fd5b6125fe60008383612992565b60675461260b908261253d565b6067556001600160a01b038216600090815260656020526040902054612631908261253d565b6001600160a01b03831660008181526065602090815260408083209490945583518581529351929391927fddf252ad1be2c89b69c2b068fc378daa952ba7f163c4a11628f55a4df523b3ef9281900390910190a35050565b6000811580612696575082155b156126a3575060006108c0565b6123f882610d1f85670de0b6b3a764000061239f565b60006123f883836040518060400160405280601e81526020017f536166654d6174683a207375627472616374696f6e206f766572666c6f77000081525061208a565b6000841580612708575085155b1561271557506000612763565b600061272d86610d1f89670de0b6b3a764000061239f565b9050848111612740576000915050612763565b600061275e82610d1f8681896127588d81878f6126b9565b9061239f565b925050505b95945050505050565b600054610100900460ff16806127855750612785611d3b565b80612793575060005460ff16155b6127ce5760405162461bcd60e51b815260040180806020018281038252602e815260200180612bb9602e913960400191505060405180910390fd5b600054610100900460ff16158015611e8c576000805460ff1961ff001990911661010017166001179055801561115e576000805461ff001916905550565b600054610100900460ff16806128255750612825611d3b565b80612833575060005460ff16155b61286e5760405162461bcd60e51b815260040180806020018281038252602e815260200180612bb9602e913960400191505060405180910390fd5b600054610100900460ff16158015612899576000805460ff1961ff0019909116610100171660011790555b82516128ac906068906020860190612a4f565b5081516128c0906069906020850190612a4f565b50606a805460ff191660121790558015611df2576000805461ff0019169055505050565b600054610100900460ff16806128fd57506128fd611d3b565b8061290b575060005460ff16155b6129465760405162461bcd60e51b815260040180806020018281038252602e815260200180612bb9602e913960400191505060405180910390fd5b600054610100900460ff16158015612971576000805460ff1961ff0019909116610100171660011790555b6097805460ff19166001179055801561115e576000805461ff001916905550565b61299d838383611df2565b6129a683611938565b15611df2576040805162461bcd60e51b815260206004820152600f60248201526e636f6f6c646f776e2061637469766560881b604482015290519081900360640190fd5b60008183612a395760405162461bcd60e51b81526020600482018181528351602484015283519092839260449091019190850190808383600083156120de5781810151838201526020016120c6565b506000838581612a4557fe5b0495945050505050565b828054600181600116156101000203166002900490600052602060002090601f016020900481019282601f10612a9057805160ff1916838001178555612abd565b82800160010185558215612abd579182015b82811115612abd578251825591602001919060010190612aa2565b50612ac9929150612acd565b5090565b5b80821115612ac95760008155600101612ace56fe45524332303a207472616e7366657220746f20746865207a65726f206164647265737345524332303a206275726e20616d6f756e7420657863656564732062616c616e636545524332303a20617070726f766520746f20746865207a65726f206164647265737345524332303a207472616e7366657220616d6f756e7420657863656564732062616c616e6365536166654d6174683a206d756c7469706c69636174696f6e206f766572666c6f7745524332303a207472616e7366657220616d6f756e74206578636565647320616c6c6f77616e6365436f6e747261637420696e7374616e63652068617320616c7265616479206265656e20696e697469616c697a656445524332303a206275726e2066726f6d20746865207a65726f206164647265737345524332303a207472616e736665722066726f6d20746865207a65726f206164647265737345524332303a20617070726f76652066726f6d20746865207a65726f206164647265737345524332303a2064656372656173656420616c6c6f77616e63652062656c6f77207a65726fa26469706673582212205bfa454a2730d638325632b882bdd656340992284efb110f97b7a52dfb4977b964736f6c634300060c0033",
  "linkReferences": {},
  "deployedLinkReferences": {}
}