{
  "_format": "hh-sol-artifact-1",
  "contractName": "PoolLogic-ovm",
  "sourceName": "contracts/PoolLogic.sol",
  "abi": [
    {
      "anonymous": false,
      "inputs": [
        {
          "indexed": true,
          "internalType": "address",
          "name": "owner",
          "type": "address"
        },
        {
          "indexed": true,
          "internalType": "address",
          "name": "spender",
          "type": "address"
        },
        {
          "indexed": false,
          "internalType": "uint256",
          "name": "value",
          "type": "uint256"
        }
      ],
      "name": "Approval",
      "type": "event"
    },
    {
      "anonymous": false,
      "inputs": [
        {
          "indexed": false,
          "internalType": "address",
          "name": "fundAddress",
          "type": "address"
        },
        {
          "indexed": false,
          "internalType": "address",
          "name": "investor",
          "type": "address"
        },
        {
          "indexed": false,
          "internalType": "uint256",
          "name": "valueDeposited",
          "type": "uint256"
        },
        {
          "indexed": false,
          "internalType": "uint256",
          "name": "fundTokensReceived",
          "type": "uint256"
        },
        {
          "indexed": false,
          "internalType": "uint256",
          "name": "totalInvestorFundTokens",
          "type": "uint256"
        },
        {
          "indexed": false,
          "internalType": "uint256",
          "name": "fundValue",
          "type": "uint256"
        },
        {
          "indexed": false,
          "internalType": "uint256",
          "name": "totalSupply",
          "type": "uint256"
        },
        {
          "indexed": false,
          "internalType": "uint256",
          "name": "time",
          "type": "uint256"
        }
      ],
      "name": "Deposit",
      "type": "event"
    },
    {
      "anonymous": false,
      "inputs": [
        {
          "indexed": false,
          "internalType": "address",
          "name": "pool",
          "type": "address"
        },
        {
          "indexed": false,
          "internalType": "address",
          "name": "manager",
          "type": "address"
        },
        {
          "indexed": false,
          "internalType": "uint256",
          "name": "available",
          "type": "uint256"
        },
        {
          "indexed": false,
          "internalType": "uint256",
          "name": "daoFee",
          "type": "uint256"
        },
        {
          "indexed": false,
          "internalType": "uint256",
          "name": "managerFee",
          "type": "uint256"
        },
        {
          "indexed": false,
          "internalType": "uint256",
          "name": "tokenPriceAtLastFeeMint",
          "type": "uint256"
        }
      ],
      "name": "ManagerFeeMinted",
      "type": "event"
    },
    {
      "anonymous": false,
      "inputs": [
        {
          "indexed": false,
          "internalType": "address",
          "name": "newManager",
          "type": "address"
        },
        {
          "indexed": false,
          "internalType": "string",
          "name": "newManagerName",
          "type": "string"
        }
      ],
      "name": "ManagerUpdated",
      "type": "event"
    },
    {
      "anonymous": false,
      "inputs": [
        {
          "indexed": false,
          "internalType": "address",
          "name": "poolManagerLogic",
          "type": "address"
        },
        {
          "indexed": false,
          "internalType": "address",
          "name": "from",
          "type": "address"
        }
      ],
      "name": "PoolManagerLogicSet",
      "type": "event"
    },
    {
      "anonymous": false,
      "inputs": [
        {
          "indexed": false,
          "internalType": "bool",
          "name": "isPoolPrivate",
          "type": "bool"
        }
      ],
      "name": "PoolPrivacyUpdated",
      "type": "event"
    },
    {
      "anonymous": false,
      "inputs": [
        {
          "indexed": true,
          "internalType": "address",
          "name": "from",
          "type": "address"
        },
        {
          "indexed": true,
          "internalType": "address",
          "name": "to",
          "type": "address"
        },
        {
          "indexed": false,
          "internalType": "uint256",
          "name": "value",
          "type": "uint256"
        }
      ],
      "name": "Transfer",
      "type": "event"
    },
    {
      "anonymous": false,
      "inputs": [
        {
          "indexed": false,
          "internalType": "address",
          "name": "fundAddress",
          "type": "address"
        },
        {
          "indexed": false,
          "internalType": "address",
          "name": "investor",
          "type": "address"
        },
        {
          "indexed": false,
          "internalType": "uint256",
          "name": "valueWithdrawn",
          "type": "uint256"
        },
        {
          "indexed": false,
          "internalType": "uint256",
          "name": "fundTokensWithdrawn",
          "type": "uint256"
        },
        {
          "indexed": false,
          "internalType": "uint256",
          "name": "totalInvestorFundTokens",
          "type": "uint256"
        },
        {
          "indexed": false,
          "internalType": "uint256",
          "name": "fundValue",
          "type": "uint256"
        },
        {
          "indexed": false,
          "internalType": "uint256",
          "name": "totalSupply",
          "type": "uint256"
        },
        {
          "indexed": false,
          "internalType": "uint256",
          "name": "time",
          "type": "uint256"
        }
      ],
      "name": "Withdrawal",
      "type": "event"
    },
    {
      "inputs": [
        {
          "internalType": "address",
          "name": "member",
          "type": "address"
        }
      ],
      "name": "addMember",
      "outputs": [],
      "stateMutability": "nonpayable",
      "type": "function"
    },
    {
      "inputs": [
        {
          "internalType": "address[]",
          "name": "members",
          "type": "address[]"
        }
      ],
      "name": "addMembers",
      "outputs": [],
      "stateMutability": "nonpayable",
      "type": "function"
    },
    {
      "inputs": [
        {
          "internalType": "address",
          "name": "owner",
          "type": "address"
        },
        {
          "internalType": "address",
          "name": "spender",
          "type": "address"
        }
      ],
      "name": "allowance",
      "outputs": [
        {
          "internalType": "uint256",
          "name": "",
          "type": "uint256"
        }
      ],
      "stateMutability": "view",
      "type": "function"
    },
    {
      "inputs": [
        {
          "internalType": "address",
          "name": "spender",
          "type": "address"
        },
        {
          "internalType": "uint256",
          "name": "amount",
          "type": "uint256"
        }
      ],
      "name": "approve",
      "outputs": [
        {
          "internalType": "bool",
          "name": "",
          "type": "bool"
        }
      ],
      "stateMutability": "nonpayable",
      "type": "function"
    },
    {
      "inputs": [],
      "name": "availableManagerFee",
      "outputs": [
        {
          "internalType": "uint256",
          "name": "",
          "type": "uint256"
        }
      ],
      "stateMutability": "view",
      "type": "function"
    },
    {
      "inputs": [
        {
          "internalType": "address",
          "name": "account",
          "type": "address"
        }
      ],
      "name": "balanceOf",
      "outputs": [
        {
          "internalType": "uint256",
          "name": "",
          "type": "uint256"
        }
      ],
      "stateMutability": "view",
      "type": "function"
    },
    {
      "inputs": [
        {
          "internalType": "address",
          "name": "newManager",
          "type": "address"
        },
        {
          "internalType": "string",
          "name": "newManagerName",
          "type": "string"
        }
      ],
      "name": "changeManager",
      "outputs": [],
      "stateMutability": "nonpayable",
      "type": "function"
    },
    {
      "inputs": [],
      "name": "creationTime",
      "outputs": [
        {
          "internalType": "uint256",
          "name": "",
          "type": "uint256"
        }
      ],
      "stateMutability": "view",
      "type": "function"
    },
    {
      "inputs": [],
      "name": "creator",
      "outputs": [
        {
          "internalType": "address",
          "name": "",
          "type": "address"
        }
      ],
      "stateMutability": "view",
      "type": "function"
    },
    {
      "inputs": [],
      "name": "decimals",
      "outputs": [
        {
          "internalType": "uint8",
          "name": "",
          "type": "uint8"
        }
      ],
      "stateMutability": "view",
      "type": "function"
    },
    {
      "inputs": [
        {
          "internalType": "address",
          "name": "spender",
          "type": "address"
        },
        {
          "internalType": "uint256",
          "name": "subtractedValue",
          "type": "uint256"
        }
      ],
      "name": "decreaseAllowance",
      "outputs": [
        {
          "internalType": "bool",
          "name": "",
          "type": "bool"
        }
      ],
      "stateMutability": "nonpayable",
      "type": "function"
    },
    {
      "inputs": [
        {
          "internalType": "uint256",
          "name": "_susdAmount",
          "type": "uint256"
        }
      ],
      "name": "deposit",
      "outputs": [
        {
          "internalType": "uint256",
          "name": "",
          "type": "uint256"
        }
      ],
      "stateMutability": "nonpayable",
      "type": "function"
    },
    {
      "inputs": [],
      "name": "factory",
      "outputs": [
        {
          "internalType": "address",
          "name": "",
          "type": "address"
        }
      ],
      "stateMutability": "view",
      "type": "function"
    },
    {
      "inputs": [],
      "name": "getExitCooldown",
      "outputs": [
        {
          "internalType": "uint256",
          "name": "",
          "type": "uint256"
        }
      ],
      "stateMutability": "view",
      "type": "function"
    },
    {
      "inputs": [
        {
          "internalType": "address",
          "name": "sender",
          "type": "address"
        }
      ],
      "name": "getExitRemainingCooldown",
      "outputs": [
        {
          "internalType": "uint256",
          "name": "",
          "type": "uint256"
        }
      ],
      "stateMutability": "view",
      "type": "function"
    },
    {
      "inputs": [],
      "name": "getFundSummary",
      "outputs": [
        {
          "internalType": "string",
          "name": "",
          "type": "string"
        },
        {
          "internalType": "uint256",
          "name": "",
          "type": "uint256"
        },
        {
          "internalType": "uint256",
          "name": "",
          "type": "uint256"
        },
        {
          "internalType": "address",
          "name": "",
          "type": "address"
        },
        {
          "internalType": "string",
          "name": "",
          "type": "string"
        },
        {
          "internalType": "uint256",
          "name": "",
          "type": "uint256"
        },
        {
          "internalType": "bool",
          "name": "",
          "type": "bool"
        },
        {
          "internalType": "uint256",
          "name": "",
          "type": "uint256"
        },
        {
          "internalType": "uint256",
          "name": "",
          "type": "uint256"
        }
      ],
      "stateMutability": "view",
      "type": "function"
    },
    {
      "inputs": [],
      "name": "getMembers",
      "outputs": [
        {
          "internalType": "address[]",
          "name": "",
          "type": "address[]"
        }
      ],
      "stateMutability": "view",
      "type": "function"
    },
    {
      "inputs": [],
      "name": "getPoolManagerLogic",
      "outputs": [
        {
          "internalType": "address",
          "name": "",
          "type": "address"
        }
      ],
      "stateMutability": "view",
      "type": "function"
    },
    {
      "inputs": [
        {
          "internalType": "address",
          "name": "spender",
          "type": "address"
        },
        {
          "internalType": "uint256",
          "name": "addedValue",
          "type": "uint256"
        }
      ],
      "name": "increaseAllowance",
      "outputs": [
        {
          "internalType": "bool",
          "name": "",
          "type": "bool"
        }
      ],
      "stateMutability": "nonpayable",
      "type": "function"
    },
    {
      "inputs": [
        {
          "internalType": "address",
          "name": "_factory",
          "type": "address"
        },
        {
          "internalType": "bool",
          "name": "_privatePool",
          "type": "bool"
        },
        {
          "internalType": "address",
          "name": "_manager",
          "type": "address"
        },
        {
          "internalType": "string",
          "name": "_managerName",
          "type": "string"
        },
        {
          "internalType": "string",
          "name": "_fundName",
          "type": "string"
        },
        {
          "internalType": "string",
          "name": "_fundSymbol",
          "type": "string"
        },
        {
          "internalType": "address",
          "name": "_poolManagerLogic",
          "type": "address"
        }
      ],
      "name": "initialize",
      "outputs": [],
      "stateMutability": "nonpayable",
      "type": "function"
    },
    {
      "inputs": [
        {
          "internalType": "address",
          "name": "member",
          "type": "address"
        }
      ],
      "name": "isMemberAllowed",
      "outputs": [
        {
          "internalType": "bool",
          "name": "",
          "type": "bool"
        }
      ],
      "stateMutability": "view",
      "type": "function"
    },
    {
      "inputs": [
        {
          "internalType": "address",
          "name": "",
          "type": "address"
        }
      ],
      "name": "lastDeposit",
      "outputs": [
        {
          "internalType": "uint256",
          "name": "",
          "type": "uint256"
        }
      ],
      "stateMutability": "view",
      "type": "function"
    },
    {
      "inputs": [],
      "name": "manager",
      "outputs": [
        {
          "internalType": "address",
          "name": "",
          "type": "address"
        }
      ],
      "stateMutability": "view",
      "type": "function"
    },
    {
      "inputs": [],
      "name": "managerName",
      "outputs": [
        {
          "internalType": "string",
          "name": "",
          "type": "string"
        }
      ],
      "stateMutability": "view",
      "type": "function"
    },
    {
      "inputs": [],
      "name": "mintManagerFee",
      "outputs": [],
      "stateMutability": "nonpayable",
      "type": "function"
    },
    {
      "inputs": [],
      "name": "name",
      "outputs": [
        {
          "internalType": "string",
          "name": "",
          "type": "string"
        }
      ],
      "stateMutability": "view",
      "type": "function"
    },
    {
      "inputs": [],
      "name": "numberOfMembers",
      "outputs": [
        {
          "internalType": "uint256",
          "name": "",
          "type": "uint256"
        }
      ],
      "stateMutability": "view",
      "type": "function"
    },
    {
      "inputs": [],
      "name": "poolManagerLogic",
      "outputs": [
        {
          "internalType": "address",
          "name": "",
          "type": "address"
        }
      ],
      "stateMutability": "view",
      "type": "function"
    },
    {
      "inputs": [],
      "name": "privatePool",
      "outputs": [
        {
          "internalType": "bool",
          "name": "",
          "type": "bool"
        }
      ],
      "stateMutability": "view",
      "type": "function"
    },
    {
      "inputs": [
        {
          "internalType": "address",
          "name": "member",
          "type": "address"
        }
      ],
      "name": "removeMember",
      "outputs": [],
      "stateMutability": "nonpayable",
      "type": "function"
    },
    {
      "inputs": [
        {
          "internalType": "address[]",
          "name": "members",
          "type": "address[]"
        }
      ],
      "name": "removeMembers",
      "outputs": [],
      "stateMutability": "nonpayable",
      "type": "function"
    },
    {
      "inputs": [],
      "name": "removeTrader",
      "outputs": [],
      "stateMutability": "nonpayable",
      "type": "function"
    },
    {
      "inputs": [
        {
          "internalType": "address",
          "name": "_poolManagerLogic",
          "type": "address"
        }
      ],
      "name": "setPoolManagerLogic",
      "outputs": [
        {
          "internalType": "bool",
          "name": "",
          "type": "bool"
        }
      ],
      "stateMutability": "nonpayable",
      "type": "function"
    },
    {
      "inputs": [
        {
          "internalType": "bool",
          "name": "_privatePool",
          "type": "bool"
        }
      ],
      "name": "setPoolPrivate",
      "outputs": [],
      "stateMutability": "nonpayable",
      "type": "function"
    },
    {
      "inputs": [
        {
          "internalType": "address",
          "name": "newTrader",
          "type": "address"
        }
      ],
      "name": "setTrader",
      "outputs": [],
      "stateMutability": "nonpayable",
      "type": "function"
    },
    {
      "inputs": [],
      "name": "symbol",
      "outputs": [
        {
          "internalType": "string",
          "name": "",
          "type": "string"
        }
      ],
      "stateMutability": "view",
      "type": "function"
    },
    {
      "inputs": [],
      "name": "tokenPrice",
      "outputs": [
        {
          "internalType": "uint256",
          "name": "",
          "type": "uint256"
        }
      ],
      "stateMutability": "view",
      "type": "function"
    },
    {
      "inputs": [],
      "name": "tokenPriceAtLastFeeMint",
      "outputs": [
        {
          "internalType": "uint256",
          "name": "",
          "type": "uint256"
        }
      ],
      "stateMutability": "view",
      "type": "function"
    },
    {
      "inputs": [],
      "name": "totalFundValue",
      "outputs": [
        {
          "internalType": "uint256",
          "name": "",
          "type": "uint256"
        }
      ],
      "stateMutability": "view",
      "type": "function"
    },
    {
      "inputs": [],
      "name": "totalSupply",
      "outputs": [
        {
          "internalType": "uint256",
          "name": "",
          "type": "uint256"
        }
      ],
      "stateMutability": "view",
      "type": "function"
    },
    {
      "inputs": [],
      "name": "trader",
      "outputs": [
        {
          "internalType": "address",
          "name": "",
          "type": "address"
        }
      ],
      "stateMutability": "view",
      "type": "function"
    },
    {
      "inputs": [
        {
          "internalType": "address",
          "name": "recipient",
          "type": "address"
        },
        {
          "internalType": "uint256",
          "name": "amount",
          "type": "uint256"
        }
      ],
      "name": "transfer",
      "outputs": [
        {
          "internalType": "bool",
          "name": "",
          "type": "bool"
        }
      ],
      "stateMutability": "nonpayable",
      "type": "function"
    },
    {
      "inputs": [
        {
          "internalType": "address",
          "name": "sender",
          "type": "address"
        },
        {
          "internalType": "address",
          "name": "recipient",
          "type": "address"
        },
        {
          "internalType": "uint256",
          "name": "amount",
          "type": "uint256"
        }
      ],
      "name": "transferFrom",
      "outputs": [
        {
          "internalType": "bool",
          "name": "",
          "type": "bool"
        }
      ],
      "stateMutability": "nonpayable",
      "type": "function"
    },
    {
      "inputs": [
        {
          "internalType": "uint256",
          "name": "_fundTokenAmount",
          "type": "uint256"
        }
      ],
      "name": "withdraw",
      "outputs": [],
      "stateMutability": "nonpayable",
      "type": "function"
    }
  ],
  "bytecode": "0x60806040523480156200001c576000806200001962000023565b50505b5062000090565b632a2a7adb598160e01b8152600481016020815285602082015260005b868110156200005d57808601518282016040015260200162000040565b506020828760640184336000905af158600e01573d6000803e3d6000fd5b3d6001141558600a015760016000f35b505050565b61490180620000a06000396000f3fe6080604052348015610019576000806100166142ee565b50505b506004361061027d5760003560e01c80637714f39d1161015a578063b6b55f25116100cc578063cc3c6df611610090578063cc3c6df614610ac4578063cdfa79d214610acc578063d8270dce14610cfd578063dd62ed3e14610d05578063edbf6f5014610d3c578063fed4416a14610d445761027d565b8063b6b55f2514610a09578063b8ea2b6e14610a2f578063bbbf725b14610a5e578063c45a015514610a8d578063ca6d56dc14610a955761027d565b80639eab52531161011e5780639eab525314610905578063a30e3fa914610960578063a457c2d714610968578063a6bc18f91461099d578063a9059cbb146109cc578063ad60ffcc14610a015761027d565b80637714f39d146108dd5780637c8afd51146108e55780637ff9b596146108ed57806395d89b41146108f55780639e24b07f146108fd5761027d565b8063313ce567116101f3578063481c6a75116101b7578063481c6a75146106d357806352213663146106db57806359b5e75e146107b25780636f4d469b146107ba57806370a082311461087f578063750226de146108ae5761027d565b8063313ce5671461058b57806339509351146105a95780633babaad5146105de5780634501b0881461060657806346ee84b01461060e5761027d565b806318160ddd1161024557806318160ddd146103b05780631c5918d2146103ca5780631e50a4a6146104ef57806323b872dd146104f757806329d16ee8146105365780632e1a7d4d146105655761027d565b806302d05d3f1461028b57806306fdde03146102af578063095ea7b31461032e5780630b1ca49a146103775780631758078b146103a8575b6000806102886142ee565b50505b610293610d4c565b6040516001600160a01b03909116815260200160405180910390f35b6102b7610d6b565b60405160208082528190810183818151815260200191508051906020019080838360005b838110156102f35780820151838201526020016102db565b50505050905090810190601f1680156103205780820380516001836020036101000a031916815260200191505b509250505060405180910390f35b6103636004803603604081101561034d5760008061034a6142ee565b50505b506001600160a01b038135169060200135610e28565b604051901515815260200160405180910390f35b6103a660048036036020811015610396576000806103936142ee565b50505b50356001600160a01b0316610e46565b005b610293610ee4565b6103b8610f06565b60405190815260200160405180910390f35b6103d2610f17565b60405180806020018a8152602001898152602001886001600160a01b0316815260200180602001878152602001861515815260200185815260200184815260200183810383528c818151815260200191508051906020019080838360005b83811015610448578082015183820152602001610430565b50505050905090810190601f1680156104755780820380516001836020036101000a031916815260200191505b50838103825288818151815260200191508051906020019080838360005b838110156104ab578082015183820152602001610493565b50505050905090810190601f1680156104d85780820380516001836020036101000a031916815260200191505b509b50505050505050505050505060405180910390f35b6102936110be565b61036360048036036060811015610516576000806105136142ee565b50505b506001600160a01b038135811691602081013590911690604001356110ca565b6103b860048036036020811015610555576000806105526142ee565b50505b50356001600160a01b031661115e565b6103a660048036036020811015610584576000806105816142ee565b50505b5035611179565b6105936117d5565b60405160ff909116815260200160405180910390f35b610363600480360360408110156105c8576000806105c56142ee565b50505b506001600160a01b0381351690602001356117f1565b6103a6600480360360208110156105fd576000806105fa6142ee565b50505b50351515611856565b6103b861194e565b6103a66004803603602081101561062d5760008061062a6142ee565b50505b810190602081018135600160201b8111156106505760008061064d6142ee565b50505b82018360208201111561066b576000806106686142ee565b50505b803590602001918460208302840111600160201b83111715610695576000806106926142ee565b50505b919080806020026020016040519081016040528093929190818152602001838360200280828437600092019190915250929550611a09945050505050565b610293611ae2565b6103a6600480360360408110156106fa576000806106f76142ee565b50505b6001600160a01b038235169190810190604081016020820135600160201b81111561072d5760008061072a6142ee565b50505b820183602082011115610748576000806107456142ee565b50505b803590602001918460018302840111600160201b831117156107725760008061076f6142ee565b50505b91908080601f0160208091040260200160405190810160405281815292919060208401838380828437600092019190915250929550611aef945050505050565b610363611c64565b6103a6600480360360208110156107d9576000806107d66142ee565b50505b810190602081018135600160201b8111156107fc576000806107f96142ee565b50505b820183602082011115610817576000806108146142ee565b50505b803590602001918460208302840111600160201b831117156108415760008061083e6142ee565b50505b919080806020026020016040519081016040528093929190818152602001838360200280828437600092019190915250929550611c7d945050505050565b6103b86004803603602081101561089e5760008061089b6142ee565b50505b50356001600160a01b0316611d46565b610363600480360360208110156108cd576000806108ca6142ee565b50505b50356001600160a01b0316611d6e565b6103b8611f28565b6103a6611f32565b6103b8611fe8565b6102b7612012565b6102936120b8565b61090d6120c5565b60405160208082528190810183818151815260200191508051906020019060200280838360005b8381101561094c578082015183820152602001610934565b505050509050019250505060405180910390f35b6103b861214b565b61036360048036036040811015610987576000806109846142ee565b50505b506001600160a01b03813516906020013561215e565b6103a6600480360360208110156109bc576000806109b96142ee565b50505b50356001600160a01b03166121d4565b610363600480360360408110156109eb576000806109e86142ee565b50505b506001600160a01b03813516906020013561228a565b6103b861229e565b6103b860048036036020811015610a2857600080610a256142ee565b50505b50356124f9565b6103b860048036036020811015610a4e57600080610a4b6142ee565b50505b50356001600160a01b0316612987565b61036360048036036020811015610a7d57600080610a7a6142ee565b50505b50356001600160a01b03166129f1565b610293612a19565b6103a660048036036020811015610ab457600080610ab16142ee565b50505b50356001600160a01b0316612a25565b6103a6612ac1565b6103a6600480360360e0811015610aeb57600080610ae86142ee565b50505b6001600160a01b0382358116926020810135151592604082013590921691810190608081016060820135600160201b811115610b2f57600080610b2c6142ee565b50505b820183602082011115610b4a57600080610b476142ee565b50505b803590602001918460018302840111600160201b83111715610b7457600080610b716142ee565b50505b91908080601f01602080910402602001604051908101604052818152929190602084018383808284376000920191909152509295949360208101935035915050600160201b811115610bce57600080610bcb6142ee565b50505b820183602082011115610be957600080610be66142ee565b50505b803590602001918460018302840111600160201b83111715610c1357600080610c106142ee565b50505b91908080601f01602080910402602001604051908101604052818152929190602084018383808284376000920191909152509295949360208101935035915050600160201b811115610c6d57600080610c6a6142ee565b50505b820183602082011115610c8857600080610c856142ee565b50505b803590602001918460018302840111600160201b83111715610cb257600080610caf6142ee565b50505b91908080601f0160208091040260200160405190810160405281815292919060208401838380828437600092019190915250929550505090356001600160a01b03169150612acb9050565b6103b8612cec565b6103b860048036036040811015610d2457600080610d216142ee565b50505b506001600160a01b0381358116916020013516612cf6565b6103b8612d36565b6102b7612ea3565b6000609c610d58614359565b906101000a90046001600160a01b031681565b6060606880610d78614359565b600181600116156101000203166002900480601f016020809104026020016040519081016040528181529190602083018280610db2614359565b60018160011615610100020316600290048015610e1e5780601f10610dec576101008083610dde614359565b040283529160200191610e1e565b820191906000526020600020905b81610e03614359565b81529060010190602001808311610dfa57829003601f168201915b5050505050905090565b6000610e3c610e35612f49565b8484612f54565b5060015b92915050565b60006097610e52614359565b906101000a90046001600160a01b03166001600160a01b03165a610e746143b4565b6001600160a01b031614610ec65760405162461bcd60e51b815260206004820152600c60248201526b37b7363c9036b0b730b3b2b960a11b604482015260640160405180910390610ec36142ee565b50505b610ecf816129f1565b610ed857610ee1565b610ee18161307c565b50565b600080609b610ef1614359565b906101000a90046001600160a01b0316905090565b60006067610f12614359565b905090565b6060600080808381808080808080609e610f2f614359565b906101000a90046001600160a01b03166001600160a01b031663b7a545265a63996d79a5598160e01b8152602081600483336000905af158600e01573d6000803e3d6000fd5b3d6001141558600a015760016000f35b8051925060005b6040811015610fa357600082820152602001610f8c565b5050506040516001600160e01b031960e084901b1681526001600160a01b03909116600482015260240160408051808303818680610fdf6143fa565b158015610ff457600080610ff16142ee565b50505b505a610ffe614446565b505050505015801561101d573d6000803e3d600061101a6142ee565b50505b505050506040513d604081101561103c576000806110396142ee565b50505b810190808051929190602001805193955092935061105d9250610d6b915050565b611065610f06565b61106d61229e565b611075611ae2565b61107d612ea3565b609d611087614359565b6014609b611093614359565b906101000a900460ff1688889a509a509a509a509a509a509a509a509a505050909192939495969798565b600060a1610d58614359565b60006110d78484846131fd565b611154846110e3612f49565b61114f856040516060810160405260288082526147f960208301396001600160a01b038a1660009081526066602052604090206000611120612f49565b6001600160a01b03166001600160a01b03168152602001908152602001600020611148614359565b919061339b565b612f54565b5060019392505050565b60a06020528060005260406000209050611176614359565b81565b8061118b5a6111866143b4565b611d46565b10156111d15760405162461bcd60e51b81526004018080602001828103825260238152602001806148de60239139604001915050604051809103906111ce6142ee565b50505b6111e25a6111dd6143b4565b612987565b1561122e5760405162461bcd60e51b815260206004820152600f60248201526e636f6f6c646f776e2061637469766560881b60448201526064016040518091039061122b6142ee565b50505b61123661343b565b600061124061229e565b9050600061126761124f610f06565b61126185670de0b6b3a764000061386c565b906138d4565b905061127b5a6112756143b4565b84613914565b60008060a1611288614359565b906101000a90046001600160a01b031690506060816001600160a01b031663e5406dbf6040518163ffffffff1660e01b815260040160006040518083038186806112d06143fa565b1580156112e5576000806112e26142ee565b50505b505a6112ef614446565b505050505015801561130e573d6000803e3d600061130b6142ee565b50505b505050506040513d6000823e601f3d908101601f1916820160405260208110156113405760008061133d6142ee565b50505b8101908080516040519392919084600160201b821115611368576000806113656142ee565b50505b908301906020820185811115611386576000806113836142ee565b50505b82518660208202830111600160201b821117156113ab576000806113a86142ee565b50505b825250602001908051906020019060200280838360005b838110156113da5780820151838201526020016113c2565b50505050905001604052505050905060008151905060005b818110156116b8576000846001600160a01b0316633ded653085848151811061141757fe5b60200260200101516040516001600160e01b031960e084901b168152600481019190915260240160206040518083038186806114516143fa565b158015611466576000806114636142ee565b50505b505a611470614446565b505050505015801561148f573d6000803e3d600061148c6142ee565b50505b505050506040513d60208110156114ae576000806114ab6142ee565b50505b810190808051935060009250506001600160a01b03831690506370a082315a63996d79a5598160e01b8152602081600483336000905af158600e01573d6000803e3d6000fd5b3d6001141558600a015760016000f35b8051925060005b60408110156115225760008282015260200161150b565b5050506040516001600160e01b031960e084901b1681526001600160a01b039091166004820152602401602060405180830381868061155f6143fa565b158015611574576000806115716142ee565b50505b505a61157e614446565b505050505015801561159d573d6000803e3d600061159a6142ee565b50505b505050506040513d60208110156115bc576000806115b96142ee565b50505b8101908080519350600092506115e29150670de0b6b3a76400009050611261848b61386c565b905080156116ad57826001600160a01b031663a9059cbb5a6116026143b4565b836040516001600160e01b031960e085901b1681526001600160a01b0390921660048301526024820152604401602060405180830381600087806116446143fa565b158015611659576000806116566142ee565b50505b505a611663614531565b505050505050158015611683573d6000803e3d60006116806142ee565b50505b505050506040513d60208110156116a25760008061169f6142ee565b50505b810190808051505050505b5050506001016113f2565b5060006116d1670de0b6b3a7640000611261878961386c565b90507f79d44cc8beeed36226f14818b2ecaca7ef252bcd56c9ae35f5a86869dbdefb975a63996d79a5598160e01b8152602081600483336000905af158600e01573d6000803e3d6000fd5b3d6001141558600a015760016000f35b8051925060005b604081101561174a57600082820152602001611733565b5050505a6117566143b4565b838a6117645a6111866143b4565b61176c61229e565b611774610f06565b5a61177d6145f7565b6040516001600160a01b0398891681529690971660208701526040808701959095526060860193909352608085019190915260a084015260c083015260e082019290925261010001905180910390a150505050505050565b600080606a6117e2614359565b906101000a900460ff16905090565b6000610e3c6117fe612f49565b8461114f856066600061180f612f49565b6001600160a01b03166001600160a01b031681526020019081526020016000206001600160a01b038916600090815260209190915260409020611850614359565b90613a2e565b60006097611862614359565b906101000a90046001600160a01b03166001600160a01b03165a6118846143b4565b6001600160a01b0316146118d65760405162461bcd60e51b815260206004820152600c60248201526b37b7363c9036b0b730b3b2b960a11b6044820152606401604051809103906118d36142ee565b50505b8015156014609b6118e5614359565b906101000a900460ff16151514156119455760405162461bcd60e51b8152602060048201526016602482015275199b1859c81b5d5cdd08189948191a5999995c995b9d60521b6044820152606401604051809103906119426142ee565b50505b610ee181613a8d565b600080609e61195b614359565b906101000a90046001600160a01b03166001600160a01b0316634501b0886040518163ffffffff1660e01b8152600401602060405180830381868061199e6143fa565b1580156119b3576000806119b06142ee565b50505b505a6119bd614446565b50505050501580156119dc573d6000803e3d60006119d96142ee565b50505b505050506040513d60208110156119fb576000806119f86142ee565b50505b810190808051935050505090565b60006097611a15614359565b906101000a90046001600160a01b03166001600160a01b03165a611a376143b4565b6001600160a01b031614611a895760405162461bcd60e51b815260206004820152600c60248201526b37b7363c9036b0b730b3b2b960a11b604482015260640160405180910390611a866142ee565b50505b60005b8151811015611ade57611ab1828281518110611aa457fe5b60200260200101516129f1565b611aba57611ad6565b611ad6828281518110611ac957fe5b602002602001015161307c565b600101611a8c565b5050565b6000806097610ef1614359565b60006097611afb614359565b906101000a90046001600160a01b03166001600160a01b03165a611b1d6143b4565b6001600160a01b031614611b6f5760405162461bcd60e51b815260206004820152600c60248201526b37b7363c9036b0b730b3b2b960a11b604482015260640160405180910390611b6c6142ee565b50505b816097600181611b7d614359565b816001600160a01b0302191690836001600160a01b0316021790611b9f61463d565b505050806098908051611bb692916020019061468b565b507f6ed15082ad038474841528b5badca105106d4463e44b5d434130dfb299aa366982826040516001600160a01b038316815260406020820181815290820183818151815260200191508051906020019080838360005b83811015611c25578082015183820152602001611c0d565b50505050905090810190601f168015611c525780820380516001836020036101000a031916815260200191505b50935050505060405180910390a15050565b6014609b611c70614359565b906101000a900460ff1681565b60006097611c89614359565b906101000a90046001600160a01b03166001600160a01b03165a611cab6143b4565b6001600160a01b031614611cfd5760405162461bcd60e51b815260206004820152600c60248201526b37b7363c9036b0b730b3b2b960a11b604482015260640160405180910390611cfa6142ee565b50505b60005b8151811015611ade57611d18828281518110611aa457fe5b15611d2257611d3e565b611d3e828281518110611d3157fe5b6020026020010151613aee565b600101611d00565b6001600160a01b0381166000908152606560205260408120611d66614359565b90505b919050565b60008080609e611d7c614359565b906101000a90046001600160a01b03166001600160a01b0316631d68702d6040518163ffffffff1660e01b81526004016020604051808303818680611dbf6143fa565b158015611dd457600080611dd16142ee565b50505b505a611dde614446565b5050505050158015611dfd573d6000803e3d6000611dfa6142ee565b50505b505050506040513d6020811015611e1c57600080611e196142ee565b50505b8101908080519350506001600160a01b0383169150505a611e3b6143b4565b6001600160a01b031614611e9e5760405162461bcd60e51b815260206004820152601860248201527f6f6e6c792044414f206164647265737320616c6c6f7765640000000000000000604482015260640160405180910390611e9b6142ee565b50505b8260a1600181611eac614359565b816001600160a01b0302191690836001600160a01b0316021790611ece61463d565b5050507f63fb64c359a4cae97e1bf003c1ab11390b5f0e18cc5b3d67b90bd61c0f5c52fd835a611efc6143b4565b6040516001600160a01b039283168152911660208201526040908101905180910390a150600192915050565b609f611176614359565b60006097611f3e614359565b906101000a90046001600160a01b03166001600160a01b03165a611f606143b4565b6001600160a01b031614611fb25760405162461bcd60e51b815260206004820152600c60248201526b37b7363c9036b0b730b3b2b960a11b604482015260640160405180910390611faf6142ee565b50505b6000609b600181611fc1614359565b816001600160a01b0302191690836001600160a01b0316021790611fe361463d565b505050565b600080611ff361229e565b90506000611fff610f06565b905061200b8282613b7a565b9250505090565b606060698061201f614359565b600181600116156101000203166002900480601f016020809104026020016040519081016040528181529190602083018280612059614359565b60018160011615610100020316600290048015610e1e5780601f10612085576101008083610dde614359565b820191906000526020600020905b8161209c614359565b8152906001019060200180831161209357509395945050505050565b60008060a1610ef1614359565b60606099806120d2614359565b8060200260200160405190810160405281815291906020830182806120f5614359565b8015610e1e57602002820191906000526020600020905b600082612117614359565b906101000a90046001600160a01b03166001600160a01b03168152602001906001019080831161210c575050505050905090565b6000609980612158614359565b91505090565b6000610e3c61216b612f49565b8461114f856040516060810160405260258082526148b9602083013960666000612193612f49565b6001600160a01b03166001600160a01b031681526020019081526020016000206001600160a01b038a16600090815260209190915260409020611148614359565b600060976121e0614359565b906101000a90046001600160a01b03166001600160a01b03165a6122026143b4565b6001600160a01b0316146122545760405162461bcd60e51b815260206004820152600c60248201526b37b7363c9036b0b730b3b2b960a11b6044820152606401604051809103906122516142ee565b50505b80609b600181612262614359565b816001600160a01b0302191690836001600160a01b031602179061228461463d565b50505050565b6000610e3c612297612f49565b84846131fd565b600080808060a16122ad614359565b906101000a90046001600160a01b031690506060816001600160a01b031663e5406dbf6040518163ffffffff1660e01b815260040160006040518083038186806122f56143fa565b15801561230a576000806123076142ee565b50505b505a612314614446565b5050505050158015612333573d6000803e3d60006123306142ee565b50505b505050506040513d6000823e601f3d908101601f191682016040526020811015612365576000806123626142ee565b50505b8101908080516040519392919084600160201b82111561238d5760008061238a6142ee565b50505b9083019060208201858111156123ab576000806123a86142ee565b50505b82518660208202830111600160201b821117156123d0576000806123cd6142ee565b50505b825250602001908051906020019060200280838360005b838110156123ff5780820151838201526020016123e7565b50505050905001604052505050905060008151905060005b818110156124ef576124e5846001600160a01b0316630499123f85848151811061243d57fe5b60200260200101516040516001600160e01b031960e084901b168152600481019190915260240160206040518083038186806124776143fa565b15801561248c576000806124896142ee565b50505b505a612496614446565b50505050501580156124b5573d6000803e3d60006124b26142ee565b50505b505050506040513d60208110156124d4576000806124d16142ee565b50505b810190808051899350915050613a2e565b9450600101612417565b5092935050505090565b6000612503611ae2565b6001600160a01b03165a6125156143b4565b6001600160a01b0316148061253d57506014609b612531614359565b906101000a900460ff16155b8061255457506125545a61254f6143b4565b6129f1565b6125a45760405162461bcd60e51b81526020600482015260146024820152731bdb9b1e481b595b58995c9cc8185b1b1bddd95960621b6044820152606401604051809103906125a16142ee565b50505b5a6125ad6145f7565b60a060005a6125ba6143b4565b6001600160a01b03166001600160a01b0316815260200190815260200160002081906125e461463d565b5050506125ef61343b565b60006125f961229e565b90506000612605610f06565b905060008060a1612614614359565b906101000a90046001600160a01b03169050806001600160a01b0316633ded6530631cd554d160e21b6040516001600160e01b031960e084901b1681526004810191909152602401602060405180830381868061266f6143fa565b158015612684576000806126816142ee565b50505b505a61268e614446565b50505050501580156126ad573d6000803e3d60006126aa6142ee565b50505b505050506040513d60208110156126cc576000806126c96142ee565b50505b8101908080516001600160a01b031692506323b872dd9150505a6126ee6143b4565b5a63996d79a5598160e01b8152602081600483336000905af158600e01573d6000803e3d6000fd5b3d6001141558600a015760016000f35b8051925060005b60408110156127445760008282015260200161272d565b505050886040516001600160e01b031960e086901b1681526001600160a01b0393841660048201529190921660248201526044810191909152606401602060405180830381600087806127956143fa565b1580156127aa576000806127a76142ee565b50505b505a6127b4614531565b5050505050501580156127d4573d6000803e3d60006127d16142ee565b50505b505050506040513d60208110156127f3576000806127f06142ee565b50505b810190808051925061284f9150505760405162461bcd60e51b81526020600482015260156024820152741d1bdad95b881d1c985b9cd9995c8819985a5b1959605a1b60448201526064016040518091039061284c6142ee565b50505b6000821561286c5761286584611261888661386c565b905061286f565b50845b6128815a61287b6143b4565b82613baa565b7f87fdcba84e083ebb8fd661bbafee3eb38764ec6f0cbeea8ed52deffa67bd45dc5a63996d79a5598160e01b8152602081600483336000905af158600e01573d6000803e3d6000fd5b3d6001141558600a015760016000f35b8051925060005b60408110156128f8576000828201526020016128e1565b5050505a6129046143b4565b88846129125a6111866143b4565b61291c8a8d613a2e565b6129268a89613a2e565b5a61292f6145f7565b6040516001600160a01b0398891681529690971660208701526040808701959095526060860193909352608085019190915260a084015260c083015260e082019290925261010001905180910390a195945050505050565b60008061299261194e565b6001600160a01b038416600090815260a06020529091506129b98260408320611850614359565b90505a6129c46145f7565b8110156129d657600092505050611d69565b6129e95a6129e26145f7565b8290613cc3565b949350505050565b6001600160a01b0381166000908152609a60205260408120612a11614359565b151592915050565b6000609e610d58614359565b60006097612a31614359565b906101000a90046001600160a01b03166001600160a01b03165a612a536143b4565b6001600160a01b031614612aa55760405162461bcd60e51b815260206004820152600c60248201526b37b7363c9036b0b730b3b2b960a11b604482015260640160405180910390612aa26142ee565b50505b612aae816129f1565b15612ab857610ee1565b610ee181613aee565b612ac961343b565b565b60016000612ad7614359565b906101000a900460ff1680612aef5750612aef613d03565b80612b0c5750600080612b00614359565b906101000a900460ff16155b612b505760405162461bcd60e51b815260040180806020018281038252602e815260200180614821602e913960400191505060405180910390612b4d6142ee565b50505b6000600181612b5d614359565b906101000a900460ff161590508015612bc3576001600061010081612b80614359565b8160ff02191690831515021790612b9561463d565b50505060016000806101000a81612baa614359565b8160ff02191690831515021790612bbf61463d565b5050505b612bcd8484613d74565b612bd78686613ea8565b87609e600181612be5614359565b816001600160a01b0302191690836001600160a01b0316021790612c0761463d565b505050612c1387613a8d565b5a612c1c6143b4565b609c600181612c29614359565b816001600160a01b0302191690836001600160a01b0316021790612c4b61463d565b5050505a612c576145f7565b80609d612c6261463d565b505050670de0b6b3a7640000609f8190612c7a61463d565b5050508160a160006101000a81612c8f614359565b816001600160a01b0302191690836001600160a01b0316021790612cb161463d565b5050508015612ce25760008061010081612cc9614359565b8160ff02191690831515021790612cde61463d565b5050505b5050505050505050565b609d611176614359565b6001600160a01b03821660009081526066602052604081206001600160a01b038316600090815260209190915260409020612d2f614359565b9392505050565b600080612d4161229e565b90506000612d4d610f06565b905060008080609e612d5d614359565b906101000a90046001600160a01b03166001600160a01b031663b7a545265a63996d79a5598160e01b8152602081600483336000905af158600e01573d6000803e3d6000fd5b3d6001141558600a015760016000f35b8051925060005b6040811015612dd157600082820152602001612dba565b5050506040516001600160e01b031960e084901b1681526001600160a01b03909116600482015260240160408051808303818680612e0d6143fa565b158015612e2257600080612e1f6142ee565b50505b505a612e2c614446565b5050505050158015612e4b573d6000803e3d6000612e486142ee565b50505b505050506040513d6040811015612e6a57600080612e676142ee565b50505b8101908080519291906020018051939550929350612e9a9250869150859050609f612e93614359565b8585613eef565b94505050505090565b6060609880612eb0614359565b600181600116156101000203166002900480601f016020809104026020016040519081016040528181529190602083018280612eea614359565b60018160011615610100020316600290048015610e1e5780601f10612f16576101008083610dde614359565b820191906000526020600020905b81612f2d614359565b81529060010190602001808311612f2457509395945050505050565b60005a610f126143b4565b6001600160a01b038316612fa25760405162461bcd60e51b81526004018080602001828103825260248152602001806148956024913960400191505060405180910390612f9f6142ee565b50505b6001600160a01b038216612ff05760405162461bcd60e51b81526004018080602001828103825260228152602001806147906022913960400191505060405180910390612fed6142ee565b50505b6001600160a01b038316600090815260666020528190604090206001600160a01b038416600090815260209190915260409020819061302d61463d565b505050816001600160a01b0316836001600160a01b03167f8c5be1e5ebec7d5bd14f71427d1e84f3dd0314c0f7b2291e5b200ac8c7c3b9258360405190815260200160405180910390a3505050565b6000609980613089614359565b6001600160a01b0384166000908152609a60205290925090506130b96001604083206130b3614359565b90613cc3565b9050600060996130ca846001613cc3565b816130d3614359565b81106130db57fe5b906000526020600020016000906130f0614359565b906101000a90046001600160a01b03169050806099838161310f614359565b811061311757fe5b9060005260206000200160018161312c614359565b816001600160a01b0302191690836001600160a01b031602179061314e61463d565b5061315e91508390506001613a2e565b6001600160a01b0382166000908152609a60205260409020819061318061463d565b5050506001600160a01b0384166000908152609a6020526040812081906131a561463d565b5050506099806131b3614359565b806131ba57fe5b600190038181906000526020600020016001816131d5614359565b906001600160a01b03021916906131ea61463d565b5050906131f561463d565b505050505050565b6001600160a01b03831661324b5760405162461bcd60e51b815260040180806020018281038252602581526020018061487060259139604001915050604051809103906132486142ee565b50505b6001600160a01b0382166132995760405162461bcd60e51b815260040180806020018281038252602381526020018061474b60239139604001915050604051809103906132966142ee565b50505b6132a4838383613f60565b6132df816040516060810160405260268082526147b260208301396001600160a01b0386166000908152606560205260409020611148614359565b6001600160a01b0384166000908152606560205260409020819061330161463d565b5050506001600160a01b0382166000908152606560205261332a90829060409020611850614359565b6001600160a01b0383166000908152606560205260409020819061334c61463d565b505050816001600160a01b0316836001600160a01b03167fddf252ad1be2c89b69c2b068fc378daa952ba7f163c4a11628f55a4df523b3ef8360405190815260200160405180910390a3505050565b600081848411156134335760405162461bcd60e51b81526004018080602001828103825283818151815260200191508051906020019080838360005b838110156133ef5780820151838201526020016133d7565b50505050905090810190601f16801561341c5780820380516001836020036101000a031916815260200191505b5092505050604051809103906134306142ee565b50505b505050900390565b600061344561229e565b90506000613451610f06565b905060008080609e613461614359565b906101000a90046001600160a01b03166001600160a01b031663b7a545265a63996d79a5598160e01b8152602081600483336000905af158600e01573d6000803e3d6000fd5b3d6001141558600a015760016000f35b8051925060005b60408110156134d5576000828201526020016134be565b5050506040516001600160e01b031960e084901b1681526001600160a01b039091166004820152602401604080518083038186806135116143fa565b158015613526576000806135236142ee565b50505b505a613530614446565b505050505015801561354f573d6000803e3d600061354c6142ee565b50505b505050506040513d604081101561356e5760008061356b6142ee565b50505b8101908080519291906020018051939550929350600092506135a0915086905085609f613599614359565b8686613eef565b905060648110156135b5575050505050612ac9565b600080609e6135c2614359565b906101000a90046001600160a01b03166001600160a01b0316631d68702d6040518163ffffffff1660e01b815260040160206040518083038186806136056143fa565b15801561361a576000806136176142ee565b50505b505a613624614446565b5050505050158015613643573d6000803e3d60006136406142ee565b50505b505050506040513d60208110156136625760008061365f6142ee565b50505b810190808051935060009250829150819050609e61367e614359565b906101000a90046001600160a01b03166001600160a01b0316639cada6e46040518163ffffffff1660e01b8152600401604080518083038186806136c06143fa565b1580156136d5576000806136d26142ee565b50505b505a6136df614446565b50505050501580156136fe573d6000803e3d60006136fb6142ee565b50505b505050506040513d604081101561371d5760008061371a6142ee565b50505b8101908080519291906020018051939550929350600092506137479150839050611261878661386c565b905060006137558683613cc3565b90508115613767576137678583613baa565b80156137785761377861287b611ae2565b6137828a8a613b7a565b80609f61378d61463d565b5050507f755a8059d66d8d243bc9f6913f429a811f154599d0538bb0b6a2ac23f23d2ccd5a63996d79a5598160e01b8152602081600483336000905af158600e01573d6000803e3d6000fd5b3d6001141558600a015760016000f35b8051925060005b6040811015613807576000828201526020016137f0565b505050613812611ae2565b888585609f61381f614359565b6040516001600160a01b0396871681529490951660208501526040808501939093526060840191909152608083015260a082019290925260c001905180910390a150505050505050505050565b60008261387b57506000610e40565b8282028284828161388857fe5b0414612d2f5760405162461bcd60e51b81526004018080602001828103825260218152602001806147d860219139604001915050604051809103906138cb6142ee565b50509392505050565b6000612d2f838360405160408082019052601a81527f536166654d6174683a206469766973696f6e206279207a65726f0000000000006020820152613fc4565b6001600160a01b0382166139625760405162461bcd60e51b815260040180806020018281038252602181526020018061484f602191396040019150506040518091039061395f6142ee565b50505b61396e82600083613f60565b6139a98160405160608101604052602280825261476e60208301396001600160a01b0385166000908152606560205260409020611148614359565b6001600160a01b038316600090815260656020526040902081906139cb61463d565b5050506139dc8160676130b3614359565b8060676139e761463d565b5060009150506001600160a01b0383167fddf252ad1be2c89b69c2b068fc378daa952ba7f163c4a11628f55a4df523b3ef8360405190815260200160405180910390a35050565b600082820183811015612d2f5760405162461bcd60e51b815260206004820152601b60248201527f536166654d6174683a206164646974696f6e206f766572666c6f7700000000006044820152606401604051809103906138cb6142ee565b80609b600160a01b81613a9e614359565b8160ff02191690831515021790613ab361463d565b5050507f8d75e9ede4188432084b863d70b3416010c97547dfeb4fc17734d2e997ee0f3981604051901515815260200160405180910390a150565b80609980600181613afd614359565b018082613b0861463d565b505060009283526000190191602091502001600181613b25614359565b816001600160a01b0302191690836001600160a01b0316021790613b4761463d565b505050609980613b55614359565b6001600160a01b0383166000908152609a60205290915060409020819061228461463d565b6000811580613b87575082155b15613b9457506000610e40565b612d2f8261126185670de0b6b3a764000061386c565b6001600160a01b038216613c0d5760405162461bcd60e51b815260206004820152601f60248201527f45524332303a206d696e7420746f20746865207a65726f206164647265737300604482015260640160405180910390613c0a6142ee565b50505b613c1960008383613f60565b613c27816067611850614359565b806067613c3261463d565b5050506001600160a01b03821660009081526065602052613c5b90829060409020611850614359565b6001600160a01b03831660009081526065602052604090208190613c7d61463d565b5050506001600160a01b03821660007fddf252ad1be2c89b69c2b068fc378daa952ba7f163c4a11628f55a4df523b3ef8360405190815260200160405180910390a35050565b6000612d2f838360405160408082019052601e81527f536166654d6174683a207375627472616374696f6e206f766572666c6f770000602082015261339b565b6000805a63996d79a5598160e01b8152602081600483336000905af158600e01573d6000803e3d6000fd5b3d6001141558600a015760016000f35b8051925060005b6040811015613d5c57600082820152602001613d45565b5050509050600081613d6c6143fa565b159250505090565b60016000613d80614359565b906101000a900460ff1680613d985750613d98613d03565b80613db55750600080613da9614359565b906101000a900460ff16155b613df95760405162461bcd60e51b815260040180806020018281038252602e815260200180614821602e913960400191505060405180910390613df66142ee565b50505b6000600181613e06614359565b906101000a900460ff161590508015613e6c576001600061010081613e29614359565b8160ff02191690831515021790613e3e61463d565b50505060016000806101000a81613e53614359565b8160ff02191690831515021790613e6861463d565b5050505b613e7461406f565b613e7e8383614191565b8015611fe35760008061010081613e93614359565b8160ff021916908315150217906131f561463d565b816097600181613eb6614359565b816001600160a01b0302191690836001600160a01b0316021790613ed861463d565b505050806098908051611fe392916020019061468b565b6000841580613efc575085155b15613f0957506000613f57565b6000613f218661126189670de0b6b3a764000061386c565b9050848111613f34576000915050613f57565b6000613f5282611261868189613f4c8d81878f613cc3565b9061386c565b925050505b95945050505050565b613f6b838383611fe3565b613f7483612987565b15611fe35760405162461bcd60e51b815260206004820152600f60248201526e636f6f6c646f776e2061637469766560881b604482015260640160405180910390613fbd6142ee565b5050505050565b600081836140595760405162461bcd60e51b81526004018080602001828103825283818151815260200191508051906020019080838360005b83811015614015578082015183820152602001613ffd565b50505050905090810190601f1680156140425780820380516001836020036101000a031916815260200191505b5092505050604051809103906140566142ee565b50505b50600083858161406557fe5b0495945050505050565b6001600061407b614359565b906101000a900460ff16806140935750614093613d03565b806140b057506000806140a4614359565b906101000a900460ff16155b6140f45760405162461bcd60e51b815260040180806020018281038252602e815260200180614821602e9139604001915050604051809103906140f16142ee565b50505b6000600181614101614359565b906101000a900460ff161590508015614167576001600061010081614124614359565b8160ff0219169083151502179061413961463d565b50505060016000806101000a8161414e614359565b8160ff0219169083151502179061416361463d565b5050505b8015610ee1576000806101008161417c614359565b8160ff0219169083151502179061228461463d565b6001600061419d614359565b906101000a900460ff16806141b557506141b5613d03565b806141d257506000806141c6614359565b906101000a900460ff16155b6142165760405162461bcd60e51b815260040180806020018281038252602e815260200180614821602e9139604001915050604051809103906142136142ee565b50505b6000600181614223614359565b906101000a900460ff161590508015614289576001600061010081614246614359565b8160ff0219169083151502179061425b61463d565b50505060016000806101000a81614270614359565b8160ff0219169083151502179061428561463d565b5050505b606883805161429c92916020019061468b565b5060698280516142b092916020019061468b565b506012606a6001816142c0614359565b8160ff021916908360ff160217906142d661463d565b5050508015611fe35760008061010081613e93614359565b632a2a7adb598160e01b8152600481016020815285602082015260005b8681101561432657808601518282016040015260200161430b565b506020828760640184336000905af158600e01573d6000803e3d6000fd5b3d6001141558600a015760016000f35b505050565b6303daa959598160e01b8152836004820152602081602483336000905af158600e01573d6000803e3d6000fd5b3d6001141558600a015760016000f35b8051935060005b6040811015611fe35760008282015260200161439d565b6373509064598160e01b8152602081600483336000905af158600e01573d6000803e3d6000fd5b3d6001141558600a015760016000f35b8051600082529350602061439d565b638435035b598160e01b8152836004820152602081602483336000905af158600e01573d6000803e3d6000fd5b3d6001141558600a015760016000f35b8051600082529350602061439d565b638540661f598160e01b8152614477565b8080831115610e40575090919050565b8080831015610e40575090919050565b836004820152846024820152606060448201528660648201526084810160005b888110156144af578088015182820152602001614497565b506060828960a40184336000905af158600e01573d6000803e3d6000fd5b3d6001141558600a015760016000f35b815160408301513d6000853e8b8b82606087013350600060045af150596145048d3d614467565b8c016145108187614457565b5b828110156145255760008152602001614511565b50929c50505050505050565b6385979f76598160e01b8152836004820152846024820152606060448201528760648201526084810160005b8981101561457557808901518282015260200161455d565b506060828a60a40184336000905af158600e01573d6000803e3d6000fd5b3d6001141558600a015760016000f35b815160408301513d6000853e8c8c82606087013350600060045af150596145ca8e3d614467565b8d016145d68187614457565b5b828110156145eb57600081526020016145d7565b50929d50505050505050565b63bdbf8c36598160e01b8152602081600483336000905af158600e01573d6000803e3d6000fd5b3d6001141558600a015760016000f35b8051600082529350602061439d565b6322bd64c0598160e01b8152836004820152846024820152600081604483336000905af158600e01573d6000803e3d6000fd5b3d6001141558600a015760016000f35b60008152602061439d565b8280614695614359565b600181600116156101000203166002900490600052602060002090601f016020900481019282601f106146dc57805160ff191683800117856146d561463d565b505061471b565b828001600101856146eb61463d565b5050821561471b579182015b8281111561471b5782518261470a61463d565b5050916020019190600101906146f7565b5061472792915061472b565b5090565b80821115614727576000808261473f61463d565b50505060010161472b56fe45524332303a207472616e7366657220746f20746865207a65726f206164647265737345524332303a206275726e20616d6f756e7420657863656564732062616c616e636545524332303a20617070726f766520746f20746865207a65726f206164647265737345524332303a207472616e7366657220616d6f756e7420657863656564732062616c616e6365536166654d6174683a206d756c7469706c69636174696f6e206f766572666c6f7745524332303a207472616e7366657220616d6f756e74206578636565647320616c6c6f77616e6365436f6e747261637420696e7374616e63652068617320616c7265616479206265656e20696e697469616c697a656445524332303a206275726e2066726f6d20746865207a65726f206164647265737345524332303a207472616e736665722066726f6d20746865207a65726f206164647265737345524332303a20617070726f76652066726f6d20746865207a65726f206164647265737345524332303a2064656372656173656420616c6c6f77616e63652062656c6f77207a65726f696e73756666696369656e742062616c616e6365206f662066756e6420746f6b656e73",
  "deployedBytecode": "0x6080604052348015610019576000806100166142ee565b50505b506004361061027d5760003560e01c80637714f39d1161015a578063b6b55f25116100cc578063cc3c6df611610090578063cc3c6df614610ac4578063cdfa79d214610acc578063d8270dce14610cfd578063dd62ed3e14610d05578063edbf6f5014610d3c578063fed4416a14610d445761027d565b8063b6b55f2514610a09578063b8ea2b6e14610a2f578063bbbf725b14610a5e578063c45a015514610a8d578063ca6d56dc14610a955761027d565b80639eab52531161011e5780639eab525314610905578063a30e3fa914610960578063a457c2d714610968578063a6bc18f91461099d578063a9059cbb146109cc578063ad60ffcc14610a015761027d565b80637714f39d146108dd5780637c8afd51146108e55780637ff9b596146108ed57806395d89b41146108f55780639e24b07f146108fd5761027d565b8063313ce567116101f3578063481c6a75116101b7578063481c6a75146106d357806352213663146106db57806359b5e75e146107b25780636f4d469b146107ba57806370a082311461087f578063750226de146108ae5761027d565b8063313ce5671461058b57806339509351146105a95780633babaad5146105de5780634501b0881461060657806346ee84b01461060e5761027d565b806318160ddd1161024557806318160ddd146103b05780631c5918d2146103ca5780631e50a4a6146104ef57806323b872dd146104f757806329d16ee8146105365780632e1a7d4d146105655761027d565b806302d05d3f1461028b57806306fdde03146102af578063095ea7b31461032e5780630b1ca49a146103775780631758078b146103a8575b6000806102886142ee565b50505b610293610d4c565b6040516001600160a01b03909116815260200160405180910390f35b6102b7610d6b565b60405160208082528190810183818151815260200191508051906020019080838360005b838110156102f35780820151838201526020016102db565b50505050905090810190601f1680156103205780820380516001836020036101000a031916815260200191505b509250505060405180910390f35b6103636004803603604081101561034d5760008061034a6142ee565b50505b506001600160a01b038135169060200135610e28565b604051901515815260200160405180910390f35b6103a660048036036020811015610396576000806103936142ee565b50505b50356001600160a01b0316610e46565b005b610293610ee4565b6103b8610f06565b60405190815260200160405180910390f35b6103d2610f17565b60405180806020018a8152602001898152602001886001600160a01b0316815260200180602001878152602001861515815260200185815260200184815260200183810383528c818151815260200191508051906020019080838360005b83811015610448578082015183820152602001610430565b50505050905090810190601f1680156104755780820380516001836020036101000a031916815260200191505b50838103825288818151815260200191508051906020019080838360005b838110156104ab578082015183820152602001610493565b50505050905090810190601f1680156104d85780820380516001836020036101000a031916815260200191505b509b50505050505050505050505060405180910390f35b6102936110be565b61036360048036036060811015610516576000806105136142ee565b50505b506001600160a01b038135811691602081013590911690604001356110ca565b6103b860048036036020811015610555576000806105526142ee565b50505b50356001600160a01b031661115e565b6103a660048036036020811015610584576000806105816142ee565b50505b5035611179565b6105936117d5565b60405160ff909116815260200160405180910390f35b610363600480360360408110156105c8576000806105c56142ee565b50505b506001600160a01b0381351690602001356117f1565b6103a6600480360360208110156105fd576000806105fa6142ee565b50505b50351515611856565b6103b861194e565b6103a66004803603602081101561062d5760008061062a6142ee565b50505b810190602081018135600160201b8111156106505760008061064d6142ee565b50505b82018360208201111561066b576000806106686142ee565b50505b803590602001918460208302840111600160201b83111715610695576000806106926142ee565b50505b919080806020026020016040519081016040528093929190818152602001838360200280828437600092019190915250929550611a09945050505050565b610293611ae2565b6103a6600480360360408110156106fa576000806106f76142ee565b50505b6001600160a01b038235169190810190604081016020820135600160201b81111561072d5760008061072a6142ee565b50505b820183602082011115610748576000806107456142ee565b50505b803590602001918460018302840111600160201b831117156107725760008061076f6142ee565b50505b91908080601f0160208091040260200160405190810160405281815292919060208401838380828437600092019190915250929550611aef945050505050565b610363611c64565b6103a6600480360360208110156107d9576000806107d66142ee565b50505b810190602081018135600160201b8111156107fc576000806107f96142ee565b50505b820183602082011115610817576000806108146142ee565b50505b803590602001918460208302840111600160201b831117156108415760008061083e6142ee565b50505b919080806020026020016040519081016040528093929190818152602001838360200280828437600092019190915250929550611c7d945050505050565b6103b86004803603602081101561089e5760008061089b6142ee565b50505b50356001600160a01b0316611d46565b610363600480360360208110156108cd576000806108ca6142ee565b50505b50356001600160a01b0316611d6e565b6103b8611f28565b6103a6611f32565b6103b8611fe8565b6102b7612012565b6102936120b8565b61090d6120c5565b60405160208082528190810183818151815260200191508051906020019060200280838360005b8381101561094c578082015183820152602001610934565b505050509050019250505060405180910390f35b6103b861214b565b61036360048036036040811015610987576000806109846142ee565b50505b506001600160a01b03813516906020013561215e565b6103a6600480360360208110156109bc576000806109b96142ee565b50505b50356001600160a01b03166121d4565b610363600480360360408110156109eb576000806109e86142ee565b50505b506001600160a01b03813516906020013561228a565b6103b861229e565b6103b860048036036020811015610a2857600080610a256142ee565b50505b50356124f9565b6103b860048036036020811015610a4e57600080610a4b6142ee565b50505b50356001600160a01b0316612987565b61036360048036036020811015610a7d57600080610a7a6142ee565b50505b50356001600160a01b03166129f1565b610293612a19565b6103a660048036036020811015610ab457600080610ab16142ee565b50505b50356001600160a01b0316612a25565b6103a6612ac1565b6103a6600480360360e0811015610aeb57600080610ae86142ee565b50505b6001600160a01b0382358116926020810135151592604082013590921691810190608081016060820135600160201b811115610b2f57600080610b2c6142ee565b50505b820183602082011115610b4a57600080610b476142ee565b50505b803590602001918460018302840111600160201b83111715610b7457600080610b716142ee565b50505b91908080601f01602080910402602001604051908101604052818152929190602084018383808284376000920191909152509295949360208101935035915050600160201b811115610bce57600080610bcb6142ee565b50505b820183602082011115610be957600080610be66142ee565b50505b803590602001918460018302840111600160201b83111715610c1357600080610c106142ee565b50505b91908080601f01602080910402602001604051908101604052818152929190602084018383808284376000920191909152509295949360208101935035915050600160201b811115610c6d57600080610c6a6142ee565b50505b820183602082011115610c8857600080610c856142ee565b50505b803590602001918460018302840111600160201b83111715610cb257600080610caf6142ee565b50505b91908080601f0160208091040260200160405190810160405281815292919060208401838380828437600092019190915250929550505090356001600160a01b03169150612acb9050565b6103b8612cec565b6103b860048036036040811015610d2457600080610d216142ee565b50505b506001600160a01b0381358116916020013516612cf6565b6103b8612d36565b6102b7612ea3565b6000609c610d58614359565b906101000a90046001600160a01b031681565b6060606880610d78614359565b600181600116156101000203166002900480601f016020809104026020016040519081016040528181529190602083018280610db2614359565b60018160011615610100020316600290048015610e1e5780601f10610dec576101008083610dde614359565b040283529160200191610e1e565b820191906000526020600020905b81610e03614359565b81529060010190602001808311610dfa57829003601f168201915b5050505050905090565b6000610e3c610e35612f49565b8484612f54565b5060015b92915050565b60006097610e52614359565b906101000a90046001600160a01b03166001600160a01b03165a610e746143b4565b6001600160a01b031614610ec65760405162461bcd60e51b815260206004820152600c60248201526b37b7363c9036b0b730b3b2b960a11b604482015260640160405180910390610ec36142ee565b50505b610ecf816129f1565b610ed857610ee1565b610ee18161307c565b50565b600080609b610ef1614359565b906101000a90046001600160a01b0316905090565b60006067610f12614359565b905090565b6060600080808381808080808080609e610f2f614359565b906101000a90046001600160a01b03166001600160a01b031663b7a545265a63996d79a5598160e01b8152602081600483336000905af158601d01573d60011458600c01573d6000803e3d621234565260ea61109c528051925060005b6040811015610fa357600082820152602001610f8c565b5050506040516001600160e01b031960e084901b1681526001600160a01b03909116600482015260240160408051808303818680610fdf6143fa565b158015610ff457600080610ff16142ee565b50505b505a610ffe614446565b505050505015801561101d573d6000803e3d600061101a6142ee565b50505b505050506040513d604081101561103c576000806110396142ee565b50505b810190808051929190602001805193955092935061105d9250610d6b915050565b611065610f06565b61106d61229e565b611075611ae2565b61107d612ea3565b609d611087614359565b6014609b611093614359565b906101000a900460ff1688889a509a509a509a509a509a509a509a509a505050909192939495969798565b600060a1610d58614359565b60006110d78484846131fd565b611154846110e3612f49565b61114f856040516060810160405260288082526147f960208301396001600160a01b038a1660009081526066602052604090206000611120612f49565b6001600160a01b03166001600160a01b03168152602001908152602001600020611148614359565b919061339b565b612f54565b5060019392505050565b60a06020528060005260406000209050611176614359565b81565b8061118b5a6111866143b4565b611d46565b10156111d15760405162461bcd60e51b81526004018080602001828103825260238152602001806148de60239139604001915050604051809103906111ce6142ee565b50505b6111e25a6111dd6143b4565b612987565b1561122e5760405162461bcd60e51b815260206004820152600f60248201526e636f6f6c646f776e2061637469766560881b60448201526064016040518091039061122b6142ee565b50505b61123661343b565b600061124061229e565b9050600061126761124f610f06565b61126185670de0b6b3a764000061386c565b906138d4565b905061127b5a6112756143b4565b84613914565b60008060a1611288614359565b906101000a90046001600160a01b031690506060816001600160a01b031663e5406dbf6040518163ffffffff1660e01b815260040160006040518083038186806112d06143fa565b1580156112e5576000806112e26142ee565b50505b505a6112ef614446565b505050505015801561130e573d6000803e3d600061130b6142ee565b50505b505050506040513d6000823e601f3d908101601f1916820160405260208110156113405760008061133d6142ee565b50505b8101908080516040519392919084600160201b821115611368576000806113656142ee565b50505b908301906020820185811115611386576000806113836142ee565b50505b82518660208202830111600160201b821117156113ab576000806113a86142ee565b50505b825250602001908051906020019060200280838360005b838110156113da5780820151838201526020016113c2565b50505050905001604052505050905060008151905060005b818110156116b8576000846001600160a01b0316633ded653085848151811061141757fe5b60200260200101516040516001600160e01b031960e084901b168152600481019190915260240160206040518083038186806114516143fa565b158015611466576000806114636142ee565b50505b505a611470614446565b505050505015801561148f573d6000803e3d600061148c6142ee565b50505b505050506040513d60208110156114ae576000806114ab6142ee565b50505b810190808051935060009250506001600160a01b03831690506370a082315a63996d79a5598160e01b8152602081600483336000905af158601d01573d60011458600c01573d6000803e3d621234565260ea61109c528051925060005b60408110156115225760008282015260200161150b565b5050506040516001600160e01b031960e084901b1681526001600160a01b039091166004820152602401602060405180830381868061155f6143fa565b158015611574576000806115716142ee565b50505b505a61157e614446565b505050505015801561159d573d6000803e3d600061159a6142ee565b50505b505050506040513d60208110156115bc576000806115b96142ee565b50505b8101908080519350600092506115e29150670de0b6b3a76400009050611261848b61386c565b905080156116ad57826001600160a01b031663a9059cbb5a6116026143b4565b836040516001600160e01b031960e085901b1681526001600160a01b0390921660048301526024820152604401602060405180830381600087806116446143fa565b158015611659576000806116566142ee565b50505b505a611663614531565b505050505050158015611683573d6000803e3d60006116806142ee565b50505b505050506040513d60208110156116a25760008061169f6142ee565b50505b810190808051505050505b5050506001016113f2565b5060006116d1670de0b6b3a7640000611261878961386c565b90507f79d44cc8beeed36226f14818b2ecaca7ef252bcd56c9ae35f5a86869dbdefb975a63996d79a5598160e01b8152602081600483336000905af158601d01573d60011458600c01573d6000803e3d621234565260ea61109c528051925060005b604081101561174a57600082820152602001611733565b5050505a6117566143b4565b838a6117645a6111866143b4565b61176c61229e565b611774610f06565b5a61177d6145f7565b6040516001600160a01b0398891681529690971660208701526040808701959095526060860193909352608085019190915260a084015260c083015260e082019290925261010001905180910390a150505050505050565b600080606a6117e2614359565b906101000a900460ff16905090565b6000610e3c6117fe612f49565b8461114f856066600061180f612f49565b6001600160a01b03166001600160a01b031681526020019081526020016000206001600160a01b038916600090815260209190915260409020611850614359565b90613a2e565b60006097611862614359565b906101000a90046001600160a01b03166001600160a01b03165a6118846143b4565b6001600160a01b0316146118d65760405162461bcd60e51b815260206004820152600c60248201526b37b7363c9036b0b730b3b2b960a11b6044820152606401604051809103906118d36142ee565b50505b8015156014609b6118e5614359565b906101000a900460ff16151514156119455760405162461bcd60e51b8152602060048201526016602482015275199b1859c81b5d5cdd08189948191a5999995c995b9d60521b6044820152606401604051809103906119426142ee565b50505b610ee181613a8d565b600080609e61195b614359565b906101000a90046001600160a01b03166001600160a01b0316634501b0886040518163ffffffff1660e01b8152600401602060405180830381868061199e6143fa565b1580156119b3576000806119b06142ee565b50505b505a6119bd614446565b50505050501580156119dc573d6000803e3d60006119d96142ee565b50505b505050506040513d60208110156119fb576000806119f86142ee565b50505b810190808051935050505090565b60006097611a15614359565b906101000a90046001600160a01b03166001600160a01b03165a611a376143b4565b6001600160a01b031614611a895760405162461bcd60e51b815260206004820152600c60248201526b37b7363c9036b0b730b3b2b960a11b604482015260640160405180910390611a866142ee565b50505b60005b8151811015611ade57611ab1828281518110611aa457fe5b60200260200101516129f1565b611aba57611ad6565b611ad6828281518110611ac957fe5b602002602001015161307c565b600101611a8c565b5050565b6000806097610ef1614359565b60006097611afb614359565b906101000a90046001600160a01b03166001600160a01b03165a611b1d6143b4565b6001600160a01b031614611b6f5760405162461bcd60e51b815260206004820152600c60248201526b37b7363c9036b0b730b3b2b960a11b604482015260640160405180910390611b6c6142ee565b50505b816097600181611b7d614359565b816001600160a01b0302191690836001600160a01b0316021790611b9f61463d565b505050806098908051611bb692916020019061468b565b507f6ed15082ad038474841528b5badca105106d4463e44b5d434130dfb299aa366982826040516001600160a01b038316815260406020820181815290820183818151815260200191508051906020019080838360005b83811015611c25578082015183820152602001611c0d565b50505050905090810190601f168015611c525780820380516001836020036101000a031916815260200191505b50935050505060405180910390a15050565b6014609b611c70614359565b906101000a900460ff1681565b60006097611c89614359565b906101000a90046001600160a01b03166001600160a01b03165a611cab6143b4565b6001600160a01b031614611cfd5760405162461bcd60e51b815260206004820152600c60248201526b37b7363c9036b0b730b3b2b960a11b604482015260640160405180910390611cfa6142ee565b50505b60005b8151811015611ade57611d18828281518110611aa457fe5b15611d2257611d3e565b611d3e828281518110611d3157fe5b6020026020010151613aee565b600101611d00565b6001600160a01b0381166000908152606560205260408120611d66614359565b90505b919050565b60008080609e611d7c614359565b906101000a90046001600160a01b03166001600160a01b0316631d68702d6040518163ffffffff1660e01b81526004016020604051808303818680611dbf6143fa565b158015611dd457600080611dd16142ee565b50505b505a611dde614446565b5050505050158015611dfd573d6000803e3d6000611dfa6142ee565b50505b505050506040513d6020811015611e1c57600080611e196142ee565b50505b8101908080519350506001600160a01b0383169150505a611e3b6143b4565b6001600160a01b031614611e9e5760405162461bcd60e51b815260206004820152601860248201527f6f6e6c792044414f206164647265737320616c6c6f7765640000000000000000604482015260640160405180910390611e9b6142ee565b50505b8260a1600181611eac614359565b816001600160a01b0302191690836001600160a01b0316021790611ece61463d565b5050507f63fb64c359a4cae97e1bf003c1ab11390b5f0e18cc5b3d67b90bd61c0f5c52fd835a611efc6143b4565b6040516001600160a01b039283168152911660208201526040908101905180910390a150600192915050565b609f611176614359565b60006097611f3e614359565b906101000a90046001600160a01b03166001600160a01b03165a611f606143b4565b6001600160a01b031614611fb25760405162461bcd60e51b815260206004820152600c60248201526b37b7363c9036b0b730b3b2b960a11b604482015260640160405180910390611faf6142ee565b50505b6000609b600181611fc1614359565b816001600160a01b0302191690836001600160a01b0316021790611fe361463d565b505050565b600080611ff361229e565b90506000611fff610f06565b905061200b8282613b7a565b9250505090565b606060698061201f614359565b600181600116156101000203166002900480601f016020809104026020016040519081016040528181529190602083018280612059614359565b60018160011615610100020316600290048015610e1e5780601f10612085576101008083610dde614359565b820191906000526020600020905b8161209c614359565b8152906001019060200180831161209357509395945050505050565b60008060a1610ef1614359565b60606099806120d2614359565b8060200260200160405190810160405281815291906020830182806120f5614359565b8015610e1e57602002820191906000526020600020905b600082612117614359565b906101000a90046001600160a01b03166001600160a01b03168152602001906001019080831161210c575050505050905090565b6000609980612158614359565b91505090565b6000610e3c61216b612f49565b8461114f856040516060810160405260258082526148b9602083013960666000612193612f49565b6001600160a01b03166001600160a01b031681526020019081526020016000206001600160a01b038a16600090815260209190915260409020611148614359565b600060976121e0614359565b906101000a90046001600160a01b03166001600160a01b03165a6122026143b4565b6001600160a01b0316146122545760405162461bcd60e51b815260206004820152600c60248201526b37b7363c9036b0b730b3b2b960a11b6044820152606401604051809103906122516142ee565b50505b80609b600181612262614359565b816001600160a01b0302191690836001600160a01b031602179061228461463d565b50505050565b6000610e3c612297612f49565b84846131fd565b600080808060a16122ad614359565b906101000a90046001600160a01b031690506060816001600160a01b031663e5406dbf6040518163ffffffff1660e01b815260040160006040518083038186806122f56143fa565b15801561230a576000806123076142ee565b50505b505a612314614446565b5050505050158015612333573d6000803e3d60006123306142ee565b50505b505050506040513d6000823e601f3d908101601f191682016040526020811015612365576000806123626142ee565b50505b8101908080516040519392919084600160201b82111561238d5760008061238a6142ee565b50505b9083019060208201858111156123ab576000806123a86142ee565b50505b82518660208202830111600160201b821117156123d0576000806123cd6142ee565b50505b825250602001908051906020019060200280838360005b838110156123ff5780820151838201526020016123e7565b50505050905001604052505050905060008151905060005b818110156124ef576124e5846001600160a01b0316630499123f85848151811061243d57fe5b60200260200101516040516001600160e01b031960e084901b168152600481019190915260240160206040518083038186806124776143fa565b15801561248c576000806124896142ee565b50505b505a612496614446565b50505050501580156124b5573d6000803e3d60006124b26142ee565b50505b505050506040513d60208110156124d4576000806124d16142ee565b50505b810190808051899350915050613a2e565b9450600101612417565b5092935050505090565b6000612503611ae2565b6001600160a01b03165a6125156143b4565b6001600160a01b0316148061253d57506014609b612531614359565b906101000a900460ff16155b8061255457506125545a61254f6143b4565b6129f1565b6125a45760405162461bcd60e51b81526020600482015260146024820152731bdb9b1e481b595b58995c9cc8185b1b1bddd95960621b6044820152606401604051809103906125a16142ee565b50505b5a6125ad6145f7565b60a060005a6125ba6143b4565b6001600160a01b03166001600160a01b0316815260200190815260200160002081906125e461463d565b5050506125ef61343b565b60006125f961229e565b90506000612605610f06565b905060008060a1612614614359565b906101000a90046001600160a01b03169050806001600160a01b0316633ded6530631cd554d160e21b6040516001600160e01b031960e084901b1681526004810191909152602401602060405180830381868061266f6143fa565b158015612684576000806126816142ee565b50505b505a61268e614446565b50505050501580156126ad573d6000803e3d60006126aa6142ee565b50505b505050506040513d60208110156126cc576000806126c96142ee565b50505b8101908080516001600160a01b031692506323b872dd9150505a6126ee6143b4565b5a63996d79a5598160e01b8152602081600483336000905af158601d01573d60011458600c01573d6000803e3d621234565260ea61109c528051925060005b60408110156127445760008282015260200161272d565b505050886040516001600160e01b031960e086901b1681526001600160a01b0393841660048201529190921660248201526044810191909152606401602060405180830381600087806127956143fa565b1580156127aa576000806127a76142ee565b50505b505a6127b4614531565b5050505050501580156127d4573d6000803e3d60006127d16142ee565b50505b505050506040513d60208110156127f3576000806127f06142ee565b50505b810190808051925061284f9150505760405162461bcd60e51b81526020600482015260156024820152741d1bdad95b881d1c985b9cd9995c8819985a5b1959605a1b60448201526064016040518091039061284c6142ee565b50505b6000821561286c5761286584611261888661386c565b905061286f565b50845b6128815a61287b6143b4565b82613baa565b7f87fdcba84e083ebb8fd661bbafee3eb38764ec6f0cbeea8ed52deffa67bd45dc5a63996d79a5598160e01b8152602081600483336000905af158601d01573d60011458600c01573d6000803e3d621234565260ea61109c528051925060005b60408110156128f8576000828201526020016128e1565b5050505a6129046143b4565b88846129125a6111866143b4565b61291c8a8d613a2e565b6129268a89613a2e565b5a61292f6145f7565b6040516001600160a01b0398891681529690971660208701526040808701959095526060860193909352608085019190915260a084015260c083015260e082019290925261010001905180910390a195945050505050565b60008061299261194e565b6001600160a01b038416600090815260a06020529091506129b98260408320611850614359565b90505a6129c46145f7565b8110156129d657600092505050611d69565b6129e95a6129e26145f7565b8290613cc3565b949350505050565b6001600160a01b0381166000908152609a60205260408120612a11614359565b151592915050565b6000609e610d58614359565b60006097612a31614359565b906101000a90046001600160a01b03166001600160a01b03165a612a536143b4565b6001600160a01b031614612aa55760405162461bcd60e51b815260206004820152600c60248201526b37b7363c9036b0b730b3b2b960a11b604482015260640160405180910390612aa26142ee565b50505b612aae816129f1565b15612ab857610ee1565b610ee181613aee565b612ac961343b565b565b60016000612ad7614359565b906101000a900460ff1680612aef5750612aef613d03565b80612b0c5750600080612b00614359565b906101000a900460ff16155b612b505760405162461bcd60e51b815260040180806020018281038252602e815260200180614821602e913960400191505060405180910390612b4d6142ee565b50505b6000600181612b5d614359565b906101000a900460ff161590508015612bc3576001600061010081612b80614359565b8160ff02191690831515021790612b9561463d565b50505060016000806101000a81612baa614359565b8160ff02191690831515021790612bbf61463d565b5050505b612bcd8484613d74565b612bd78686613ea8565b87609e600181612be5614359565b816001600160a01b0302191690836001600160a01b0316021790612c0761463d565b505050612c1387613a8d565b5a612c1c6143b4565b609c600181612c29614359565b816001600160a01b0302191690836001600160a01b0316021790612c4b61463d565b5050505a612c576145f7565b80609d612c6261463d565b505050670de0b6b3a7640000609f8190612c7a61463d565b5050508160a160006101000a81612c8f614359565b816001600160a01b0302191690836001600160a01b0316021790612cb161463d565b5050508015612ce25760008061010081612cc9614359565b8160ff02191690831515021790612cde61463d565b5050505b5050505050505050565b609d611176614359565b6001600160a01b03821660009081526066602052604081206001600160a01b038316600090815260209190915260409020612d2f614359565b9392505050565b600080612d4161229e565b90506000612d4d610f06565b905060008080609e612d5d614359565b906101000a90046001600160a01b03166001600160a01b031663b7a545265a63996d79a5598160e01b8152602081600483336000905af158601d01573d60011458600c01573d6000803e3d621234565260ea61109c528051925060005b6040811015612dd157600082820152602001612dba565b5050506040516001600160e01b031960e084901b1681526001600160a01b03909116600482015260240160408051808303818680612e0d6143fa565b158015612e2257600080612e1f6142ee565b50505b505a612e2c614446565b5050505050158015612e4b573d6000803e3d6000612e486142ee565b50505b505050506040513d6040811015612e6a57600080612e676142ee565b50505b8101908080519291906020018051939550929350612e9a9250869150859050609f612e93614359565b8585613eef565b94505050505090565b6060609880612eb0614359565b600181600116156101000203166002900480601f016020809104026020016040519081016040528181529190602083018280612eea614359565b60018160011615610100020316600290048015610e1e5780601f10612f16576101008083610dde614359565b820191906000526020600020905b81612f2d614359565b81529060010190602001808311612f2457509395945050505050565b60005a610f126143b4565b6001600160a01b038316612fa25760405162461bcd60e51b81526004018080602001828103825260248152602001806148956024913960400191505060405180910390612f9f6142ee565b50505b6001600160a01b038216612ff05760405162461bcd60e51b81526004018080602001828103825260228152602001806147906022913960400191505060405180910390612fed6142ee565b50505b6001600160a01b038316600090815260666020528190604090206001600160a01b038416600090815260209190915260409020819061302d61463d565b505050816001600160a01b0316836001600160a01b03167f8c5be1e5ebec7d5bd14f71427d1e84f3dd0314c0f7b2291e5b200ac8c7c3b9258360405190815260200160405180910390a3505050565b6000609980613089614359565b6001600160a01b0384166000908152609a60205290925090506130b96001604083206130b3614359565b90613cc3565b9050600060996130ca846001613cc3565b816130d3614359565b81106130db57fe5b906000526020600020016000906130f0614359565b906101000a90046001600160a01b03169050806099838161310f614359565b811061311757fe5b9060005260206000200160018161312c614359565b816001600160a01b0302191690836001600160a01b031602179061314e61463d565b5061315e91508390506001613a2e565b6001600160a01b0382166000908152609a60205260409020819061318061463d565b5050506001600160a01b0384166000908152609a6020526040812081906131a561463d565b5050506099806131b3614359565b806131ba57fe5b600190038181906000526020600020016001816131d5614359565b906001600160a01b03021916906131ea61463d565b5050906131f561463d565b505050505050565b6001600160a01b03831661324b5760405162461bcd60e51b815260040180806020018281038252602581526020018061487060259139604001915050604051809103906132486142ee565b50505b6001600160a01b0382166132995760405162461bcd60e51b815260040180806020018281038252602381526020018061474b60239139604001915050604051809103906132966142ee565b50505b6132a4838383613f60565b6132df816040516060810160405260268082526147b260208301396001600160a01b0386166000908152606560205260409020611148614359565b6001600160a01b0384166000908152606560205260409020819061330161463d565b5050506001600160a01b0382166000908152606560205261332a90829060409020611850614359565b6001600160a01b0383166000908152606560205260409020819061334c61463d565b505050816001600160a01b0316836001600160a01b03167fddf252ad1be2c89b69c2b068fc378daa952ba7f163c4a11628f55a4df523b3ef8360405190815260200160405180910390a3505050565b600081848411156134335760405162461bcd60e51b81526004018080602001828103825283818151815260200191508051906020019080838360005b838110156133ef5780820151838201526020016133d7565b50505050905090810190601f16801561341c5780820380516001836020036101000a031916815260200191505b5092505050604051809103906134306142ee565b50505b505050900390565b600061344561229e565b90506000613451610f06565b905060008080609e613461614359565b906101000a90046001600160a01b03166001600160a01b031663b7a545265a63996d79a5598160e01b8152602081600483336000905af158601d01573d60011458600c01573d6000803e3d621234565260ea61109c528051925060005b60408110156134d5576000828201526020016134be565b5050506040516001600160e01b031960e084901b1681526001600160a01b039091166004820152602401604080518083038186806135116143fa565b158015613526576000806135236142ee565b50505b505a613530614446565b505050505015801561354f573d6000803e3d600061354c6142ee565b50505b505050506040513d604081101561356e5760008061356b6142ee565b50505b8101908080519291906020018051939550929350600092506135a0915086905085609f613599614359565b8686613eef565b905060648110156135b5575050505050612ac9565b600080609e6135c2614359565b906101000a90046001600160a01b03166001600160a01b0316631d68702d6040518163ffffffff1660e01b815260040160206040518083038186806136056143fa565b15801561361a576000806136176142ee565b50505b505a613624614446565b5050505050158015613643573d6000803e3d60006136406142ee565b50505b505050506040513d60208110156136625760008061365f6142ee565b50505b810190808051935060009250829150819050609e61367e614359565b906101000a90046001600160a01b03166001600160a01b0316639cada6e46040518163ffffffff1660e01b8152600401604080518083038186806136c06143fa565b1580156136d5576000806136d26142ee565b50505b505a6136df614446565b50505050501580156136fe573d6000803e3d60006136fb6142ee565b50505b505050506040513d604081101561371d5760008061371a6142ee565b50505b8101908080519291906020018051939550929350600092506137479150839050611261878661386c565b905060006137558683613cc3565b90508115613767576137678583613baa565b80156137785761377861287b611ae2565b6137828a8a613b7a565b80609f61378d61463d565b5050507f755a8059d66d8d243bc9f6913f429a811f154599d0538bb0b6a2ac23f23d2ccd5a63996d79a5598160e01b8152602081600483336000905af158601d01573d60011458600c01573d6000803e3d621234565260ea61109c528051925060005b6040811015613807576000828201526020016137f0565b505050613812611ae2565b888585609f61381f614359565b6040516001600160a01b0396871681529490951660208501526040808501939093526060840191909152608083015260a082019290925260c001905180910390a150505050505050505050565b60008261387b57506000610e40565b8282028284828161388857fe5b0414612d2f5760405162461bcd60e51b81526004018080602001828103825260218152602001806147d860219139604001915050604051809103906138cb6142ee565b50509392505050565b6000612d2f838360405160408082019052601a81527f536166654d6174683a206469766973696f6e206279207a65726f0000000000006020820152613fc4565b6001600160a01b0382166139625760405162461bcd60e51b815260040180806020018281038252602181526020018061484f602191396040019150506040518091039061395f6142ee565b50505b61396e82600083613f60565b6139a98160405160608101604052602280825261476e60208301396001600160a01b0385166000908152606560205260409020611148614359565b6001600160a01b038316600090815260656020526040902081906139cb61463d565b5050506139dc8160676130b3614359565b8060676139e761463d565b5060009150506001600160a01b0383167fddf252ad1be2c89b69c2b068fc378daa952ba7f163c4a11628f55a4df523b3ef8360405190815260200160405180910390a35050565b600082820183811015612d2f5760405162461bcd60e51b815260206004820152601b60248201527f536166654d6174683a206164646974696f6e206f766572666c6f7700000000006044820152606401604051809103906138cb6142ee565b80609b600160a01b81613a9e614359565b8160ff02191690831515021790613ab361463d565b5050507f8d75e9ede4188432084b863d70b3416010c97547dfeb4fc17734d2e997ee0f3981604051901515815260200160405180910390a150565b80609980600181613afd614359565b018082613b0861463d565b505060009283526000190191602091502001600181613b25614359565b816001600160a01b0302191690836001600160a01b0316021790613b4761463d565b505050609980613b55614359565b6001600160a01b0383166000908152609a60205290915060409020819061228461463d565b6000811580613b87575082155b15613b9457506000610e40565b612d2f8261126185670de0b6b3a764000061386c565b6001600160a01b038216613c0d5760405162461bcd60e51b815260206004820152601f60248201527f45524332303a206d696e7420746f20746865207a65726f206164647265737300604482015260640160405180910390613c0a6142ee565b50505b613c1960008383613f60565b613c27816067611850614359565b806067613c3261463d565b5050506001600160a01b03821660009081526065602052613c5b90829060409020611850614359565b6001600160a01b03831660009081526065602052604090208190613c7d61463d565b5050506001600160a01b03821660007fddf252ad1be2c89b69c2b068fc378daa952ba7f163c4a11628f55a4df523b3ef8360405190815260200160405180910390a35050565b6000612d2f838360405160408082019052601e81527f536166654d6174683a207375627472616374696f6e206f766572666c6f770000602082015261339b565b6000805a63996d79a5598160e01b8152602081600483336000905af158601d01573d60011458600c01573d6000803e3d621234565260ea61109c528051925060005b6040811015613d5c57600082820152602001613d45565b5050509050600081613d6c6143fa565b159250505090565b60016000613d80614359565b906101000a900460ff1680613d985750613d98613d03565b80613db55750600080613da9614359565b906101000a900460ff16155b613df95760405162461bcd60e51b815260040180806020018281038252602e815260200180614821602e913960400191505060405180910390613df66142ee565b50505b6000600181613e06614359565b906101000a900460ff161590508015613e6c576001600061010081613e29614359565b8160ff02191690831515021790613e3e61463d565b50505060016000806101000a81613e53614359565b8160ff02191690831515021790613e6861463d565b5050505b613e7461406f565b613e7e8383614191565b8015611fe35760008061010081613e93614359565b8160ff021916908315150217906131f561463d565b816097600181613eb6614359565b816001600160a01b0302191690836001600160a01b0316021790613ed861463d565b505050806098908051611fe392916020019061468b565b6000841580613efc575085155b15613f0957506000613f57565b6000613f218661126189670de0b6b3a764000061386c565b9050848111613f34576000915050613f57565b6000613f5282611261868189613f4c8d81878f613cc3565b9061386c565b925050505b95945050505050565b613f6b838383611fe3565b613f7483612987565b15611fe35760405162461bcd60e51b815260206004820152600f60248201526e636f6f6c646f776e2061637469766560881b604482015260640160405180910390613fbd6142ee565b5050505050565b600081836140595760405162461bcd60e51b81526004018080602001828103825283818151815260200191508051906020019080838360005b83811015614015578082015183820152602001613ffd565b50505050905090810190601f1680156140425780820380516001836020036101000a031916815260200191505b5092505050604051809103906140566142ee565b50505b50600083858161406557fe5b0495945050505050565b6001600061407b614359565b906101000a900460ff16806140935750614093613d03565b806140b057506000806140a4614359565b906101000a900460ff16155b6140f45760405162461bcd60e51b815260040180806020018281038252602e815260200180614821602e9139604001915050604051809103906140f16142ee565b50505b6000600181614101614359565b906101000a900460ff161590508015614167576001600061010081614124614359565b8160ff0219169083151502179061413961463d565b50505060016000806101000a8161414e614359565b8160ff0219169083151502179061416361463d565b5050505b8015610ee1576000806101008161417c614359565b8160ff0219169083151502179061228461463d565b6001600061419d614359565b906101000a900460ff16806141b557506141b5613d03565b806141d257506000806141c6614359565b906101000a900460ff16155b6142165760405162461bcd60e51b815260040180806020018281038252602e815260200180614821602e9139604001915050604051809103906142136142ee565b50505b6000600181614223614359565b906101000a900460ff161590508015614289576001600061010081614246614359565b8160ff0219169083151502179061425b61463d565b50505060016000806101000a81614270614359565b8160ff0219169083151502179061428561463d565b5050505b606883805161429c92916020019061468b565b5060698280516142b092916020019061468b565b506012606a6001816142c0614359565b8160ff021916908360ff160217906142d661463d565b5050508015611fe35760008061010081613e93614359565b632a2a7adb598160e01b8152600481016020815285602082015260005b8681101561432657808601518282016040015260200161430b565b506020828760640184336000905af158601d01573d60011458600c01573d6000803e3d621234565260ea61109c52505050565b6303daa959598160e01b8152836004820152602081602483336000905af158601d01573d60011458600c01573d6000803e3d621234565260ea61109c528051935060005b6040811015611fe35760008282015260200161439d565b6373509064598160e01b8152602081600483336000905af158601d01573d60011458600c01573d6000803e3d621234565260ea61109c528051600082529350602061439d565b638435035b598160e01b8152836004820152602081602483336000905af158601d01573d60011458600c01573d6000803e3d621234565260ea61109c528051600082529350602061439d565b638540661f598160e01b8152614477565b8080831115610e40575090919050565b8080831015610e40575090919050565b836004820152846024820152606060448201528660648201526084810160005b888110156144af578088015182820152602001614497565b506060828960a40184336000905af158601d01573d60011458600c01573d6000803e3d621234565260ea61109c52815160408301513d6000853e8b8b82606087013350600060045af150596145048d3d614467565b8c016145108187614457565b5b828110156145255760008152602001614511565b50929c50505050505050565b6385979f76598160e01b8152836004820152846024820152606060448201528760648201526084810160005b8981101561457557808901518282015260200161455d565b506060828a60a40184336000905af158601d01573d60011458600c01573d6000803e3d621234565260ea61109c52815160408301513d6000853e8c8c82606087013350600060045af150596145ca8e3d614467565b8d016145d68187614457565b5b828110156145eb57600081526020016145d7565b50929d50505050505050565b63bdbf8c36598160e01b8152602081600483336000905af158601d01573d60011458600c01573d6000803e3d621234565260ea61109c528051600082529350602061439d565b6322bd64c0598160e01b8152836004820152846024820152600081604483336000905af158601d01573d60011458600c01573d6000803e3d621234565260ea61109c5260008152602061439d565b8280614695614359565b600181600116156101000203166002900490600052602060002090601f016020900481019282601f106146dc57805160ff191683800117856146d561463d565b505061471b565b828001600101856146eb61463d565b5050821561471b579182015b8281111561471b5782518261470a61463d565b5050916020019190600101906146f7565b5061472792915061472b565b5090565b80821115614727576000808261473f61463d565b50505060010161472b56fe45524332303a207472616e7366657220746f20746865207a65726f206164647265737345524332303a206275726e20616d6f756e7420657863656564732062616c616e636545524332303a20617070726f766520746f20746865207a65726f206164647265737345524332303a207472616e7366657220616d6f756e7420657863656564732062616c616e6365536166654d6174683a206d756c7469706c69636174696f6e206f766572666c6f7745524332303a207472616e7366657220616d6f756e74206578636565647320616c6c6f77616e6365436f6e747261637420696e7374616e63652068617320616c7265616479206265656e20696e697469616c697a656445524332303a206275726e2066726f6d20746865207a65726f206164647265737345524332303a207472616e736665722066726f6d20746865207a65726f206164647265737345524332303a20617070726f76652066726f6d20746865207a65726f206164647265737345524332303a2064656372656173656420616c6c6f77616e63652062656c6f77207a65726f696e73756666696369656e742062616c616e6365206f662066756e6420746f6b656e73",
  "linkReferences": {},
  "deployedLinkReferences": {}
}