{
  "_format": "hh-sol-artifact-1",
  "contractName": "PoolLogic",
  "sourceName": "contracts/PoolLogic.sol",
  "abi": [
    {
      "anonymous": false,
      "inputs": [
        {
          "indexed": true,
          "internalType": "address",
          "name": "owner",
          "type": "address"
        },
        {
          "indexed": true,
          "internalType": "address",
          "name": "spender",
          "type": "address"
        },
        {
          "indexed": false,
          "internalType": "uint256",
          "name": "value",
          "type": "uint256"
        }
      ],
      "name": "Approval",
      "type": "event"
    },
    {
      "anonymous": false,
      "inputs": [
        {
          "indexed": false,
          "internalType": "address",
          "name": "fundAddress",
          "type": "address"
        },
        {
          "indexed": false,
          "internalType": "address",
          "name": "investor",
          "type": "address"
        },
        {
          "indexed": false,
          "internalType": "uint256",
          "name": "valueDeposited",
          "type": "uint256"
        },
        {
          "indexed": false,
          "internalType": "uint256",
          "name": "fundTokensReceived",
          "type": "uint256"
        },
        {
          "indexed": false,
          "internalType": "uint256",
          "name": "totalInvestorFundTokens",
          "type": "uint256"
        },
        {
          "indexed": false,
          "internalType": "uint256",
          "name": "fundValue",
          "type": "uint256"
        },
        {
          "indexed": false,
          "internalType": "uint256",
          "name": "totalSupply",
          "type": "uint256"
        },
        {
          "indexed": false,
          "internalType": "uint256",
          "name": "time",
          "type": "uint256"
        }
      ],
      "name": "Deposit",
      "type": "event"
    },
    {
      "anonymous": false,
      "inputs": [
        {
          "indexed": false,
          "internalType": "address",
          "name": "pool",
          "type": "address"
        },
        {
          "indexed": false,
          "internalType": "address",
          "name": "manager",
          "type": "address"
        },
        {
          "indexed": false,
          "internalType": "uint256",
          "name": "available",
          "type": "uint256"
        },
        {
          "indexed": false,
          "internalType": "uint256",
          "name": "daoFee",
          "type": "uint256"
        },
        {
          "indexed": false,
          "internalType": "uint256",
          "name": "managerFee",
          "type": "uint256"
        },
        {
          "indexed": false,
          "internalType": "uint256",
          "name": "tokenPriceAtLastFeeMint",
          "type": "uint256"
        }
      ],
      "name": "ManagerFeeMinted",
      "type": "event"
    },
    {
      "anonymous": false,
      "inputs": [
        {
          "indexed": false,
          "internalType": "address",
          "name": "poolManagerLogic",
          "type": "address"
        },
        {
          "indexed": false,
          "internalType": "address",
          "name": "from",
          "type": "address"
        }
      ],
      "name": "PoolManagerLogicSet",
      "type": "event"
    },
    {
      "anonymous": false,
      "inputs": [
        {
          "indexed": false,
          "internalType": "bool",
          "name": "isPoolPrivate",
          "type": "bool"
        }
      ],
      "name": "PoolPrivacyUpdated",
      "type": "event"
    },
    {
      "anonymous": false,
      "inputs": [
        {
          "indexed": true,
          "internalType": "address",
          "name": "from",
          "type": "address"
        },
        {
          "indexed": true,
          "internalType": "address",
          "name": "to",
          "type": "address"
        },
        {
          "indexed": false,
          "internalType": "uint256",
          "name": "value",
          "type": "uint256"
        }
      ],
      "name": "Transfer",
      "type": "event"
    },
    {
      "anonymous": false,
      "inputs": [
        {
          "indexed": false,
          "internalType": "address",
          "name": "fundAddress",
          "type": "address"
        },
        {
          "indexed": false,
          "internalType": "address",
          "name": "investor",
          "type": "address"
        },
        {
          "indexed": false,
          "internalType": "uint256",
          "name": "valueWithdrawn",
          "type": "uint256"
        },
        {
          "indexed": false,
          "internalType": "uint256",
          "name": "fundTokensWithdrawn",
          "type": "uint256"
        },
        {
          "indexed": false,
          "internalType": "uint256",
          "name": "totalInvestorFundTokens",
          "type": "uint256"
        },
        {
          "indexed": false,
          "internalType": "uint256",
          "name": "fundValue",
          "type": "uint256"
        },
        {
          "indexed": false,
          "internalType": "uint256",
          "name": "totalSupply",
          "type": "uint256"
        },
        {
          "indexed": false,
          "internalType": "uint256",
          "name": "time",
          "type": "uint256"
        }
      ],
      "name": "Withdrawal",
      "type": "event"
    },
    {
      "inputs": [
        {
          "internalType": "address",
          "name": "owner",
          "type": "address"
        },
        {
          "internalType": "address",
          "name": "spender",
          "type": "address"
        }
      ],
      "name": "allowance",
      "outputs": [
        {
          "internalType": "uint256",
          "name": "",
          "type": "uint256"
        }
      ],
      "stateMutability": "view",
      "type": "function"
    },
    {
      "inputs": [
        {
          "internalType": "address",
          "name": "spender",
          "type": "address"
        },
        {
          "internalType": "uint256",
          "name": "amount",
          "type": "uint256"
        }
      ],
      "name": "approve",
      "outputs": [
        {
          "internalType": "bool",
          "name": "",
          "type": "bool"
        }
      ],
      "stateMutability": "nonpayable",
      "type": "function"
    },
    {
      "inputs": [],
      "name": "availableManagerFee",
      "outputs": [
        {
          "internalType": "uint256",
          "name": "",
          "type": "uint256"
        }
      ],
      "stateMutability": "view",
      "type": "function"
    },
    {
      "inputs": [
        {
          "internalType": "address",
          "name": "account",
          "type": "address"
        }
      ],
      "name": "balanceOf",
      "outputs": [
        {
          "internalType": "uint256",
          "name": "",
          "type": "uint256"
        }
      ],
      "stateMutability": "view",
      "type": "function"
    },
    {
      "inputs": [],
      "name": "creationTime",
      "outputs": [
        {
          "internalType": "uint256",
          "name": "",
          "type": "uint256"
        }
      ],
      "stateMutability": "view",
      "type": "function"
    },
    {
      "inputs": [],
      "name": "creator",
      "outputs": [
        {
          "internalType": "address",
          "name": "",
          "type": "address"
        }
      ],
      "stateMutability": "view",
      "type": "function"
    },
    {
      "inputs": [],
      "name": "decimals",
      "outputs": [
        {
          "internalType": "uint8",
          "name": "",
          "type": "uint8"
        }
      ],
      "stateMutability": "view",
      "type": "function"
    },
    {
      "inputs": [
        {
          "internalType": "address",
          "name": "spender",
          "type": "address"
        },
        {
          "internalType": "uint256",
          "name": "subtractedValue",
          "type": "uint256"
        }
      ],
      "name": "decreaseAllowance",
      "outputs": [
        {
          "internalType": "bool",
          "name": "",
          "type": "bool"
        }
      ],
      "stateMutability": "nonpayable",
      "type": "function"
    },
    {
      "inputs": [
        {
          "internalType": "address",
          "name": "_asset",
          "type": "address"
        },
        {
          "internalType": "uint256",
          "name": "_amount",
          "type": "uint256"
        }
      ],
      "name": "deposit",
      "outputs": [
        {
          "internalType": "uint256",
          "name": "",
          "type": "uint256"
        }
      ],
      "stateMutability": "nonpayable",
      "type": "function"
    },
    {
      "inputs": [],
      "name": "factory",
      "outputs": [
        {
          "internalType": "address",
          "name": "",
          "type": "address"
        }
      ],
      "stateMutability": "view",
      "type": "function"
    },
    {
      "inputs": [],
      "name": "getExitCooldown",
      "outputs": [
        {
          "internalType": "uint256",
          "name": "",
          "type": "uint256"
        }
      ],
      "stateMutability": "view",
      "type": "function"
    },
    {
      "inputs": [
        {
          "internalType": "address",
          "name": "sender",
          "type": "address"
        }
      ],
      "name": "getExitRemainingCooldown",
      "outputs": [
        {
          "internalType": "uint256",
          "name": "",
          "type": "uint256"
        }
      ],
      "stateMutability": "view",
      "type": "function"
    },
    {
      "inputs": [],
      "name": "getFundSummary",
      "outputs": [
        {
          "internalType": "string",
          "name": "",
          "type": "string"
        },
        {
          "internalType": "uint256",
          "name": "",
          "type": "uint256"
        },
        {
          "internalType": "uint256",
          "name": "",
          "type": "uint256"
        },
        {
          "internalType": "address",
          "name": "",
          "type": "address"
        },
        {
          "internalType": "string",
          "name": "",
          "type": "string"
        },
        {
          "internalType": "uint256",
          "name": "",
          "type": "uint256"
        },
        {
          "internalType": "bool",
          "name": "",
          "type": "bool"
        },
        {
          "internalType": "uint256",
          "name": "",
          "type": "uint256"
        },
        {
          "internalType": "uint256",
          "name": "",
          "type": "uint256"
        }
      ],
      "stateMutability": "view",
      "type": "function"
    },
    {
      "inputs": [
        {
          "internalType": "address",
          "name": "spender",
          "type": "address"
        },
        {
          "internalType": "uint256",
          "name": "addedValue",
          "type": "uint256"
        }
      ],
      "name": "increaseAllowance",
      "outputs": [
        {
          "internalType": "bool",
          "name": "",
          "type": "bool"
        }
      ],
      "stateMutability": "nonpayable",
      "type": "function"
    },
    {
      "inputs": [
        {
          "internalType": "address",
          "name": "_factory",
          "type": "address"
        },
        {
          "internalType": "bool",
          "name": "_privatePool",
          "type": "bool"
        },
        {
          "internalType": "string",
          "name": "_fundName",
          "type": "string"
        },
        {
          "internalType": "string",
          "name": "_fundSymbol",
          "type": "string"
        },
        {
          "internalType": "address",
          "name": "_poolManagerLogic",
          "type": "address"
        }
      ],
      "name": "initialize",
      "outputs": [],
      "stateMutability": "nonpayable",
      "type": "function"
    },
    {
      "inputs": [
        {
          "internalType": "address",
          "name": "member",
          "type": "address"
        }
      ],
      "name": "isMemberAllowed",
      "outputs": [
        {
          "internalType": "bool",
          "name": "",
          "type": "bool"
        }
      ],
      "stateMutability": "view",
      "type": "function"
    },
    {
      "inputs": [
        {
          "internalType": "address",
          "name": "",
          "type": "address"
        }
      ],
      "name": "lastDeposit",
      "outputs": [
        {
          "internalType": "uint256",
          "name": "",
          "type": "uint256"
        }
      ],
      "stateMutability": "view",
      "type": "function"
    },
    {
      "inputs": [],
      "name": "managerName",
      "outputs": [
        {
          "internalType": "string",
          "name": "",
          "type": "string"
        }
      ],
      "stateMutability": "view",
      "type": "function"
    },
    {
      "inputs": [],
      "name": "mintManagerFee",
      "outputs": [],
      "stateMutability": "nonpayable",
      "type": "function"
    },
    {
      "inputs": [],
      "name": "name",
      "outputs": [
        {
          "internalType": "string",
          "name": "",
          "type": "string"
        }
      ],
      "stateMutability": "view",
      "type": "function"
    },
    {
      "inputs": [],
      "name": "poolManagerLogic",
      "outputs": [
        {
          "internalType": "address",
          "name": "",
          "type": "address"
        }
      ],
      "stateMutability": "view",
      "type": "function"
    },
    {
      "inputs": [],
      "name": "privatePool",
      "outputs": [
        {
          "internalType": "bool",
          "name": "",
          "type": "bool"
        }
      ],
      "stateMutability": "view",
      "type": "function"
    },
    {
      "inputs": [
        {
          "internalType": "address",
          "name": "_poolManagerLogic",
          "type": "address"
        }
      ],
      "name": "setPoolManagerLogic",
      "outputs": [
        {
          "internalType": "bool",
          "name": "",
          "type": "bool"
        }
      ],
      "stateMutability": "nonpayable",
      "type": "function"
    },
    {
      "inputs": [
        {
          "internalType": "bool",
          "name": "_privatePool",
          "type": "bool"
        }
      ],
      "name": "setPoolPrivate",
      "outputs": [],
      "stateMutability": "nonpayable",
      "type": "function"
    },
    {
      "inputs": [],
      "name": "symbol",
      "outputs": [
        {
          "internalType": "string",
          "name": "",
          "type": "string"
        }
      ],
      "stateMutability": "view",
      "type": "function"
    },
    {
      "inputs": [],
      "name": "tokenPrice",
      "outputs": [
        {
          "internalType": "uint256",
          "name": "",
          "type": "uint256"
        }
      ],
      "stateMutability": "view",
      "type": "function"
    },
    {
      "inputs": [],
      "name": "tokenPriceAtLastFeeMint",
      "outputs": [
        {
          "internalType": "uint256",
          "name": "",
          "type": "uint256"
        }
      ],
      "stateMutability": "view",
      "type": "function"
    },
    {
      "inputs": [],
      "name": "totalFundValue",
      "outputs": [
        {
          "internalType": "uint256",
          "name": "",
          "type": "uint256"
        }
      ],
      "stateMutability": "view",
      "type": "function"
    },
    {
      "inputs": [],
      "name": "totalSupply",
      "outputs": [
        {
          "internalType": "uint256",
          "name": "",
          "type": "uint256"
        }
      ],
      "stateMutability": "view",
      "type": "function"
    },
    {
      "inputs": [
        {
          "internalType": "address",
          "name": "recipient",
          "type": "address"
        },
        {
          "internalType": "uint256",
          "name": "amount",
          "type": "uint256"
        }
      ],
      "name": "transfer",
      "outputs": [
        {
          "internalType": "bool",
          "name": "",
          "type": "bool"
        }
      ],
      "stateMutability": "nonpayable",
      "type": "function"
    },
    {
      "inputs": [
        {
          "internalType": "address",
          "name": "sender",
          "type": "address"
        },
        {
          "internalType": "address",
          "name": "recipient",
          "type": "address"
        },
        {
          "internalType": "uint256",
          "name": "amount",
          "type": "uint256"
        }
      ],
      "name": "transferFrom",
      "outputs": [
        {
          "internalType": "bool",
          "name": "",
          "type": "bool"
        }
      ],
      "stateMutability": "nonpayable",
      "type": "function"
    },
    {
      "inputs": [
        {
          "internalType": "uint256",
          "name": "_fundTokenAmount",
          "type": "uint256"
        }
      ],
      "name": "withdraw",
      "outputs": [],
      "stateMutability": "nonpayable",
      "type": "function"
    }
  ],
  "bytecode": "0x608060405234801561001057600080fd5b50612ae3806100206000396000f3fe608060405234801561001057600080fd5b50600436106101f05760003560e01c806370a082311161010f578063b8ea2b6e116100a2578063d8270dce11610071578063d8270dce146107a5578063dd62ed3e146107ad578063edbf6f50146107db578063fed4416a146107e3576101f0565b8063b8ea2b6e14610749578063bbbf725b1461076f578063c45a015514610795578063cc3c6df61461079d576101f0565b806395d89b41116100de57806395d89b41146106e1578063a457c2d7146106e9578063a9059cbb14610715578063ad60ffcc14610741576101f0565b806370a0823114610685578063750226de146106ab5780637714f39d146106d15780637ff9b596146106d9576101f0565b806329d16ee8116101875780633babaad5116101565780633babaad51461062a5780634501b0881461064957806347e7ef241461065157806359b5e75e1461067d576101f0565b806329d16ee81461059d5780632e1a7d4d146105c3578063313ce567146105e057806339509351146105fe576101f0565b806318160ddd116101c357806318160ddd146104235780631c5918d21461043d5780631e50a4a61461055f57806323b872dd14610567576101f0565b806302d05d3f146101f557806306fdde0314610219578063095ea7b3146102965780630ccb30c7146102d6575b600080fd5b6101fd6107eb565b604080516001600160a01b039092168252519081900360200190f35b6102216107ff565b6040805160208082528351818301528351919283929083019185019080838360005b8381101561025b578181015183820152602001610243565b50505050905090810190601f1680156102885780820380516001836020036101000a031916815260200191505b509250505060405180910390f35b6102c2600480360360408110156102ac57600080fd5b506001600160a01b038135169060200135610895565b604080519115158252519081900360200190f35b610421600480360360a08110156102ec57600080fd5b6001600160a01b03823516916020810135151591810190606081016040820135600160201b81111561031d57600080fd5b82018360208201111561032f57600080fd5b803590602001918460018302840111600160201b8311171561035057600080fd5b91908080601f0160208091040260200160405190810160405280939291908181526020018383808284376000920191909152509295949360208101935035915050600160201b8111156103a257600080fd5b8201836020820111156103b457600080fd5b803590602001918460018302840111600160201b831117156103d557600080fd5b91908080601f016020809104026020016040519081016040528093929190818152602001838380828437600092019190915250929550505090356001600160a01b031691506108b39050565b005b61042b6109ca565b60408051918252519081900360200190f35b6104456109d0565b60405180806020018a8152602001898152602001886001600160a01b0316815260200180602001878152602001861515815260200185815260200184815260200183810383528c818151815260200191508051906020019080838360005b838110156104bb5781810151838201526020016104a3565b50505050905090810190601f1680156104e85780820380516001836020036101000a031916815260200191505b5083810382528851815288516020918201918a019080838360005b8381101561051b578181015183820152602001610503565b50505050905090810190601f1680156105485780820380516001836020036101000a031916815260200191505b509b50505050505050505050505060405180910390f35b6101fd610ad7565b6102c26004803603606081101561057d57600080fd5b506001600160a01b03813581169160208101359091169060400135610ae6565b61042b600480360360208110156105b357600080fd5b50356001600160a01b0316610b6d565b610421600480360360208110156105d957600080fd5b5035610b7f565b6105e8610f71565b6040805160ff9092168252519081900360200190f35b6102c26004803603604081101561061457600080fd5b506001600160a01b038135169060200135610f7a565b6104216004803603602081101561064057600080fd5b50351515610fc8565b61042b611087565b61042b6004803603604081101561066757600080fd5b506001600160a01b0381351690602001356110fd565b6102c2611486565b61042b6004803603602081101561069b57600080fd5b50356001600160a01b031661148f565b6102c2600480360360208110156106c157600080fd5b50356001600160a01b03166114ae565b61042b6115ea565b61042b6115f0565b61022161161a565b6102c2600480360360408110156106ff57600080fd5b506001600160a01b03813516906020013561167b565b6102c26004803603604081101561072b57600080fd5b506001600160a01b0381351690602001356116e3565b61042b6116f7565b61042b6004803603602081101561075f57600080fd5b50356001600160a01b03166118c9565b6102c26004803603602081101561078557600080fd5b50356001600160a01b0316611922565b6101fd6119a5565b6104216119b4565b61042b6119be565b61042b600480360360408110156107c357600080fd5b506001600160a01b03813581169160200135166119c4565b61042b6119ef565b610221611aa5565b60975461010090046001600160a01b031681565b60688054604080516020601f600260001961010060018816150201909516949094049384018190048102820181019092528281526060939092909183018282801561088b5780601f106108605761010080835404028352916020019161088b565b820191906000526020600020905b81548152906001019060200180831161086e57829003601f168201915b5050505050905090565b60006108a96108a2611bda565b8484611bde565b5060015b92915050565b600054610100900460ff16806108cc57506108cc611cca565b806108da575060005460ff16155b6109155760405162461bcd60e51b815260040180806020018281038252602e8152602001806129f1602e913960400191505060405180910390fd5b600054610100900460ff16158015610940576000805460ff1961ff0019909116610100171660011790555b61094a8484611cd0565b609980546001600160a01b0319166001600160a01b03881617905561096e85611d86565b60978054610100600160a81b031916336101000217905542609855670de0b6b3a7640000609a55609c80546001600160a01b0319166001600160a01b03841617905580156109c2576000805461ff00191690555b505050505050565b60675490565b606060008060006060600080600080600080609960009054906101000a90046001600160a01b03166001600160a01b031663b7a54526306040518263ffffffff1660e01b815260040180826001600160a01b03168152602001915050604080518083038186803b158015610a4357600080fd5b505afa158015610a57573d6000803e3d6000fd5b505050506040513d6040811015610a6d57600080fd5b5080516020909101519092509050610a836107ff565b610a8b6109ca565b610a936116f7565b610a9b611dcd565b610aa3611aa5565b609854609760009054906101000a900460ff1688889a509a509a509a509a509a509a509a509a505050909192939495969798565b609c546001600160a01b031681565b6000610af3848484611e12565b610b6384610aff611bda565b610b5e856040518060600160405280602881526020016129c9602891396001600160a01b038a16600090815260666020526040812090610b3d611bda565b6001600160a01b031681526020810191909152604001600020549190611f6f565b611bde565b5060019392505050565b609b6020526000908152604090205481565b80610b893361148f565b1015610bd3576040805162461bcd60e51b8152602060048201526014602482015273696e73756666696369656e742062616c616e636560601b604482015290519081900360640190fd5b610bdc336118c9565b15610c20576040805162461bcd60e51b815260206004820152600f60248201526e636f6f6c646f776e2061637469766560881b604482015290519081900360640190fd5b610c28612006565b6000610c326116f7565b90506000610c59610c416109ca565b610c5385670de0b6b3a7640000612284565b906122e4565b9050610c653384612326565b609c546040805163e5406dbf60e01b815290516001600160a01b0390921691606091839163e5406dbf91600480820192600092909190829003018186803b158015610caf57600080fd5b505afa158015610cc3573d6000803e3d6000fd5b505050506040513d6000823e601f3d908101601f191682016040526020811015610cec57600080fd5b8101908080516040519392919084600160201b821115610d0b57600080fd5b908301906020820185811115610d2057600080fd5b82518660208202830111600160201b82111715610d3c57600080fd5b82525081516020918201928201910280838360005b83811015610d69578181015183820152602001610d51565b50505050905001604052505050905060008151905060005b81811015610ec5576000838281518110610d9757fe5b602002602001015190506000816001600160a01b03166370a08231306040518263ffffffff1660e01b815260040180826001600160a01b0316815260200191505060206040518083038186803b158015610df057600080fd5b505afa158015610e04573d6000803e3d6000fd5b505050506040513d6020811015610e1a57600080fd5b505190506000610e36670de0b6b3a7640000610c53848b612284565b90508015610eba576040805163a9059cbb60e01b81523360048201526024810183905290516001600160a01b0385169163a9059cbb9160448083019260209291908290030181600087803b158015610e8d57600080fd5b505af1158015610ea1573d6000803e3d6000fd5b505050506040513d6020811015610eb757600080fd5b50505b505050600101610d81565b506000610ede670de0b6b3a7640000610c538789612284565b90507f79d44cc8beeed36226f14818b2ecaca7ef252bcd56c9ae35f5a86869dbdefb973033838a610f0e3361148f565b610f166116f7565b610f1e6109ca565b604080516001600160a01b039889168152969097166020870152858701949094526060850192909252608084015260a083015260c08201524260e08201529051908190036101000190a150505050505050565b606a5460ff1690565b60006108a9610f87611bda565b84610b5e8560666000610f98611bda565b6001600160a01b03908116825260208083019390935260409182016000908120918c168152925290205490612422565b610fd0611dcd565b6001600160a01b0316336001600160a01b031614611024576040805162461bcd60e51b815260206004820152600c60248201526b37b7363c9036b0b730b3b2b960a11b604482015290519081900360640190fd5b60975460ff161515811515141561107b576040805162461bcd60e51b8152602060048201526016602482015275199b1859c81b5d5cdd08189948191a5999995c995b9d60521b604482015290519081900360640190fd5b61108481611d86565b50565b609954604080516308a0361160e31b815290516000926001600160a01b031691634501b088916004808301926020929190829003018186803b1580156110cc57600080fd5b505afa1580156110e0573d6000803e3d6000fd5b505050506040513d60208110156110f657600080fd5b5051905090565b6000611107611dcd565b6001600160a01b0316336001600160a01b03161480611129575060975460ff16155b80611138575061113833611922565b611180576040805162461bcd60e51b81526020600482015260146024820152731bdb9b1e481b595b58995c9cc8185b1b1bddd95960621b604482015290519081900360640190fd5b609c5460408051637506285960e11b81526001600160a01b0386811660048301529151919092169163ea0c50b2916024808301926020929190829003018186803b1580156111cd57600080fd5b505afa1580156111e1573d6000803e3d6000fd5b505050506040513d60208110156111f757600080fd5b5051611242576040805162461bcd60e51b81526020600482015260156024820152741a5b9d985b1a590819195c1bdcda5d08185cdcd95d605a1b604482015290519081900360640190fd5b336000908152609b6020526040902042905561125c612006565b60006112666116f7565b905060006112726109ca565b604080516323b872dd60e01b81523360048201523060248201526044810187905290519192506001600160a01b038716916323b872dd916064808201926020929091908290030181600087803b1580156112cb57600080fd5b505af11580156112df573d6000803e3d6000fd5b505050506040513d60208110156112f557600080fd5b5051611340576040805162461bcd60e51b81526020600482015260156024820152741d1bdad95b881d1c985b9cd9995c8819985a5b1959605a1b604482015290519081900360640190fd5b609c54604080516314e03fdd60e11b81526001600160a01b03888116600483015260248201889052915160009392909216916329c07fba91604480820192602092909190829003018186803b15801561139857600080fd5b505afa1580156113ac573d6000803e3d6000fd5b505050506040513d60208110156113c257600080fd5b50519050600082156113e3576113dc84610c538486612284565b90506113e6565b50805b6113f0338261247c565b7f87fdcba84e083ebb8fd661bbafee3eb38764ec6f0cbeea8ed52deffa67bd45dc3033848461141e3361148f565b6114288a89612422565b6114328a89612422565b604080516001600160a01b039889168152969097166020870152858701949094526060850192909252608084015260a083015260c08201524260e08201529051908190036101000190a19695505050505050565b60975460ff1681565b6001600160a01b0381166000908152606560205260409020545b919050565b600080609960009054906101000a90046001600160a01b03166001600160a01b0316631d68702d6040518163ffffffff1660e01b815260040160206040518083038186803b1580156114ff57600080fd5b505afa158015611513573d6000803e3d6000fd5b505050506040513d602081101561152957600080fd5b50519050336001600160a01b0382161461158a576040805162461bcd60e51b815260206004820152601860248201527f6f6e6c792044414f206164647265737320616c6c6f7765640000000000000000604482015290519081900360640190fd5b609c80546001600160a01b0319166001600160a01b0385169081179091556040805191825233602083015280517f63fb64c359a4cae97e1bf003c1ab11390b5f0e18cc5b3d67b90bd61c0f5c52fd9281900390910190a150600192915050565b609a5481565b6000806115fb6116f7565b905060006116076109ca565b9050611613828261256e565b9250505090565b60698054604080516020601f600260001961010060018816150201909516949094049384018190048102820181019092528281526060939092909183018282801561088b5780601f106108605761010080835404028352916020019161088b565b60006108a9611688611bda565b84610b5e85604051806060016040528060258152602001612a8960259139606660006116b2611bda565b6001600160a01b03908116825260208083019390935260409182016000908120918d16815292529020549190611f6f565b60006108a96116f0611bda565b8484611e12565b609c546040805163e5406dbf60e01b8152905160009283926001600160a01b0390911691606091839163e5406dbf916004808201928892909190829003018186803b15801561174557600080fd5b505afa158015611759573d6000803e3d6000fd5b505050506040513d6000823e601f3d908101601f19168201604052602081101561178257600080fd5b8101908080516040519392919084600160201b8211156117a157600080fd5b9083019060208201858111156117b657600080fd5b82518660208202830111600160201b821117156117d257600080fd5b82525081516020918201928201910280838360005b838110156117ff5781810151838201526020016117e7565b50505050905001604052505050905060008151905060005b818110156118bf576118b5846001600160a01b031663d8af8ed485848151811061183d57fe5b60200260200101516040518263ffffffff1660e01b815260040180826001600160a01b0316815260200191505060206040518083038186803b15801561188257600080fd5b505afa158015611896573d6000803e3d6000fd5b505050506040513d60208110156118ac57600080fd5b50518690612422565b9450600101611817565b5092935050505090565b6000806118d4611087565b6001600160a01b0384166000908152609b6020526040812054919250906118fb9083612422565b905042811015611910576000925050506114a9565b61191a814261259e565b949350505050565b609c546040805163bbbf725b60e01b81526001600160a01b0384811660048301529151600093929092169163bbbf725b91602480820192602092909190829003018186803b15801561197357600080fd5b505afa158015611987573d6000803e3d6000fd5b505050506040513d602081101561199d57600080fd5b505192915050565b6099546001600160a01b031681565b6119bc612006565b565b60985481565b6001600160a01b03918216600090815260666020908152604080832093909416825291909152205490565b6000806119fa6116f7565b90506000611a066109ca565b60995460408051635bd2a29360e11b8152306004820152815193945060009384936001600160a01b03169263b7a545269260248082019391829003018186803b158015611a5257600080fd5b505afa158015611a66573d6000803e3d6000fd5b505050506040513d6040811015611a7c57600080fd5b508051602090910151609a549193509150611a9c908590859085856125e0565b94505050505090565b609c5460408051637f6a20b560e11b815290516060926001600160a01b03169163fed4416a916004808301926000929190829003018186803b158015611aea57600080fd5b505afa158015611afe573d6000803e3d6000fd5b505050506040513d6000823e601f3d908101601f191682016040526020811015611b2757600080fd5b8101908080516040519392919084600160201b821115611b4657600080fd5b908301906020820185811115611b5b57600080fd5b8251600160201b811182820188101715611b7457600080fd5b82525081516020918201929091019080838360005b83811015611ba1578181015183820152602001611b89565b50505050905090810190601f168015611bce5780820380516001836020036101000a031916815260200191505b50604052505050905090565b3390565b6001600160a01b038316611c235760405162461bcd60e51b8152600401808060200182810382526024815260200180612a656024913960400191505060405180910390fd5b6001600160a01b038216611c685760405162461bcd60e51b81526004018080602001828103825260228152602001806129606022913960400191505060405180910390fd5b6001600160a01b03808416600081815260666020908152604080832094871680845294825291829020859055815185815291517f8c5be1e5ebec7d5bd14f71427d1e84f3dd0314c0f7b2291e5b200ac8c7c3b9259281900390910190a3505050565b303b1590565b600054610100900460ff1680611ce95750611ce9611cca565b80611cf7575060005460ff16155b611d325760405162461bcd60e51b815260040180806020018281038252602e8152602001806129f1602e913960400191505060405180910390fd5b600054610100900460ff16158015611d5d576000805460ff1961ff0019909116610100171660011790555b611d65612651565b611d6f83836126f2565b8015611d81576000805461ff00191690555b505050565b6097805482151560ff19909116811790915560408051918252517f8d75e9ede4188432084b863d70b3416010c97547dfeb4fc17734d2e997ee0f399181900360200190a150565b609c546040805163481c6a7560e01b815290516000926001600160a01b03169163481c6a75916004808301926020929190829003018186803b1580156110cc57600080fd5b6001600160a01b038316611e575760405162461bcd60e51b8152600401808060200182810382526025815260200180612a406025913960400191505060405180910390fd5b6001600160a01b038216611e9c5760405162461bcd60e51b815260040180806020018281038252602381526020018061291b6023913960400191505060405180910390fd5b611ea78383836127ca565b611ee481604051806060016040528060268152602001612982602691396001600160a01b0386166000908152606560205260409020549190611f6f565b6001600160a01b038085166000908152606560205260408082209390935590841681522054611f139082612422565b6001600160a01b0380841660008181526065602090815260409182902094909455805185815290519193928716927fddf252ad1be2c89b69c2b068fc378daa952ba7f163c4a11628f55a4df523b3ef92918290030190a3505050565b60008184841115611ffe5760405162461bcd60e51b81526004018080602001828103825283818151815260200191508051906020019080838360005b83811015611fc3578181015183820152602001611fab565b50505050905090810190601f168015611ff05780820380516001836020036101000a031916815260200191505b509250505060405180910390fd5b505050900390565b60006120106116f7565b9050600061201c6109ca565b60995460408051635bd2a29360e11b8152306004820152815193945060009384936001600160a01b03169263b7a545269260248082019391829003018186803b15801561206857600080fd5b505afa15801561207c573d6000803e3d6000fd5b505050506040513d604081101561209257600080fd5b508051602090910151609a5491935091506000906120b5908690869086866125e0565b905060648110156120ca5750505050506119bc565b60995460408051631d68702d60e01b815290516000926001600160a01b031691631d68702d916004808301926020929190829003018186803b15801561210f57600080fd5b505afa158015612123573d6000803e3d6000fd5b505050506040513d602081101561213957600080fd5b50516099546040805163272b69b960e21b8152815193945060009384936001600160a01b031692639cada6e49260048082019391829003018186803b15801561218157600080fd5b505afa158015612195573d6000803e3d6000fd5b505050506040513d60408110156121ab57600080fd5b508051602090910151909250905060006121c982610c538786612284565b905060006121d7868361259e565b905081156121e9576121e9858361247c565b8015612200576122006121fa611dcd565b8261247c565b61220a8a8a61256e565b609a557f755a8059d66d8d243bc9f6913f429a811f154599d0538bb0b6a2ac23f23d2ccd30612237611dcd565b609a54604080516001600160a01b0394851681529290931660208301528183018a9052606082018690526080820185905260a082015290519081900360c00190a150505050505050505050565b600082612293575060006108ad565b828202828482816122a057fe5b04146122dd5760405162461bcd60e51b81526004018080602001828103825260218152602001806129a86021913960400191505060405180910390fd5b9392505050565b60006122dd83836040518060400160405280601a81526020017f536166654d6174683a206469766973696f6e206279207a65726f000000000000815250612822565b6001600160a01b03821661236b5760405162461bcd60e51b8152600401808060200182810382526021815260200180612a1f6021913960400191505060405180910390fd5b612377826000836127ca565b6123b48160405180606001604052806022815260200161293e602291396001600160a01b0385166000908152606560205260409020549190611f6f565b6001600160a01b0383166000908152606560205260409020556067546123da908261259e565b6067556040805182815290516000916001600160a01b038516917fddf252ad1be2c89b69c2b068fc378daa952ba7f163c4a11628f55a4df523b3ef9181900360200190a35050565b6000828201838110156122dd576040805162461bcd60e51b815260206004820152601b60248201527f536166654d6174683a206164646974696f6e206f766572666c6f770000000000604482015290519081900360640190fd5b6001600160a01b0382166124d7576040805162461bcd60e51b815260206004820152601f60248201527f45524332303a206d696e7420746f20746865207a65726f206164647265737300604482015290519081900360640190fd5b6124e3600083836127ca565b6067546124f09082612422565b6067556001600160a01b0382166000908152606560205260409020546125169082612422565b6001600160a01b03831660008181526065602090815260408083209490945583518581529351929391927fddf252ad1be2c89b69c2b068fc378daa952ba7f163c4a11628f55a4df523b3ef9281900390910190a35050565b600081158061257b575082155b15612588575060006108ad565b6122dd82610c5385670de0b6b3a7640000612284565b60006122dd83836040518060400160405280601e81526020017f536166654d6174683a207375627472616374696f6e206f766572666c6f770000815250611f6f565b60008415806125ed575085155b156125fa57506000612648565b600061261286610c5389670de0b6b3a7640000612284565b9050848111612625576000915050612648565b600061264382610c5386818961263d8d81878f61259e565b90612284565b925050505b95945050505050565b600054610100900460ff168061266a575061266a611cca565b80612678575060005460ff16155b6126b35760405162461bcd60e51b815260040180806020018281038252602e8152602001806129f1602e913960400191505060405180910390fd5b600054610100900460ff161580156126de576000805460ff1961ff0019909116610100171660011790555b8015611084576000805461ff001916905550565b600054610100900460ff168061270b575061270b611cca565b80612719575060005460ff16155b6127545760405162461bcd60e51b815260040180806020018281038252602e8152602001806129f1602e913960400191505060405180910390fd5b600054610100900460ff1615801561277f576000805460ff1961ff0019909116610100171660011790555b8251612792906068906020860190612887565b5081516127a6906069906020850190612887565b50606a805460ff191660121790558015611d81576000805461ff0019169055505050565b6127d5838383611d81565b6127de836118c9565b15611d81576040805162461bcd60e51b815260206004820152600f60248201526e636f6f6c646f776e2061637469766560881b604482015290519081900360640190fd5b600081836128715760405162461bcd60e51b8152602060048201818152835160248401528351909283926044909101919085019080838360008315611fc3578181015183820152602001611fab565b50600083858161287d57fe5b0495945050505050565b828054600181600116156101000203166002900490600052602060002090601f016020900481019282601f106128c857805160ff19168380011785556128f5565b828001600101855582156128f5579182015b828111156128f55782518255916020019190600101906128da565b50612901929150612905565b5090565b5b80821115612901576000815560010161290656fe45524332303a207472616e7366657220746f20746865207a65726f206164647265737345524332303a206275726e20616d6f756e7420657863656564732062616c616e636545524332303a20617070726f766520746f20746865207a65726f206164647265737345524332303a207472616e7366657220616d6f756e7420657863656564732062616c616e6365536166654d6174683a206d756c7469706c69636174696f6e206f766572666c6f7745524332303a207472616e7366657220616d6f756e74206578636565647320616c6c6f77616e6365436f6e747261637420696e7374616e63652068617320616c7265616479206265656e20696e697469616c697a656445524332303a206275726e2066726f6d20746865207a65726f206164647265737345524332303a207472616e736665722066726f6d20746865207a65726f206164647265737345524332303a20617070726f76652066726f6d20746865207a65726f206164647265737345524332303a2064656372656173656420616c6c6f77616e63652062656c6f77207a65726fa2646970667358221220b1f8d483cc54e399ad2bc48601386f2b36235ba7818bd058f2898082335aea7064736f6c634300060c0033",
  "linkReferences": {},
  "deployedLinkReferences": {}
}