{
  "_format": "hh-sol-artifact-1",
  "contractName": "PoolLogic",
  "sourceName": "contracts/PoolLogic.sol",
  "abi": [
    {
      "anonymous": false,
      "inputs": [
        {
          "indexed": true,
          "internalType": "address",
          "name": "owner",
          "type": "address"
        },
        {
          "indexed": true,
          "internalType": "address",
          "name": "spender",
          "type": "address"
        },
        {
          "indexed": false,
          "internalType": "uint256",
          "name": "value",
          "type": "uint256"
        }
      ],
      "name": "Approval",
      "type": "event"
    },
    {
      "anonymous": false,
      "inputs": [
        {
          "indexed": false,
          "internalType": "address",
          "name": "fundAddress",
          "type": "address"
        },
        {
          "indexed": false,
          "internalType": "address",
          "name": "investor",
          "type": "address"
        },
        {
          "indexed": false,
          "internalType": "uint256",
          "name": "valueDeposited",
          "type": "uint256"
        },
        {
          "indexed": false,
          "internalType": "uint256",
          "name": "fundTokensReceived",
          "type": "uint256"
        },
        {
          "indexed": false,
          "internalType": "uint256",
          "name": "totalInvestorFundTokens",
          "type": "uint256"
        },
        {
          "indexed": false,
          "internalType": "uint256",
          "name": "fundValue",
          "type": "uint256"
        },
        {
          "indexed": false,
          "internalType": "uint256",
          "name": "totalSupply",
          "type": "uint256"
        },
        {
          "indexed": false,
          "internalType": "uint256",
          "name": "time",
          "type": "uint256"
        }
      ],
      "name": "Deposit",
      "type": "event"
    },
    {
      "anonymous": false,
      "inputs": [
        {
          "indexed": false,
          "internalType": "address",
          "name": "pool",
          "type": "address"
        },
        {
          "indexed": false,
          "internalType": "address",
          "name": "manager",
          "type": "address"
        },
        {
          "indexed": false,
          "internalType": "uint256",
          "name": "available",
          "type": "uint256"
        },
        {
          "indexed": false,
          "internalType": "uint256",
          "name": "daoFee",
          "type": "uint256"
        },
        {
          "indexed": false,
          "internalType": "uint256",
          "name": "managerFee",
          "type": "uint256"
        },
        {
          "indexed": false,
          "internalType": "uint256",
          "name": "tokenPriceAtLastFeeMint",
          "type": "uint256"
        }
      ],
      "name": "ManagerFeeMinted",
      "type": "event"
    },
    {
      "anonymous": false,
      "inputs": [
        {
          "indexed": false,
          "internalType": "address",
          "name": "newManager",
          "type": "address"
        },
        {
          "indexed": false,
          "internalType": "string",
          "name": "newManagerName",
          "type": "string"
        }
      ],
      "name": "ManagerUpdated",
      "type": "event"
    },
    {
      "anonymous": false,
      "inputs": [
        {
          "indexed": false,
          "internalType": "address",
          "name": "poolManagerLogic",
          "type": "address"
        },
        {
          "indexed": false,
          "internalType": "address",
          "name": "from",
          "type": "address"
        }
      ],
      "name": "PoolManagerLogicSet",
      "type": "event"
    },
    {
      "anonymous": false,
      "inputs": [
        {
          "indexed": false,
          "internalType": "bool",
          "name": "isPoolPrivate",
          "type": "bool"
        }
      ],
      "name": "PoolPrivacyUpdated",
      "type": "event"
    },
    {
      "anonymous": false,
      "inputs": [
        {
          "indexed": true,
          "internalType": "address",
          "name": "from",
          "type": "address"
        },
        {
          "indexed": true,
          "internalType": "address",
          "name": "to",
          "type": "address"
        },
        {
          "indexed": false,
          "internalType": "uint256",
          "name": "value",
          "type": "uint256"
        }
      ],
      "name": "Transfer",
      "type": "event"
    },
    {
      "anonymous": false,
      "inputs": [
        {
          "indexed": false,
          "internalType": "address",
          "name": "fundAddress",
          "type": "address"
        },
        {
          "indexed": false,
          "internalType": "address",
          "name": "investor",
          "type": "address"
        },
        {
          "indexed": false,
          "internalType": "uint256",
          "name": "valueWithdrawn",
          "type": "uint256"
        },
        {
          "indexed": false,
          "internalType": "uint256",
          "name": "fundTokensWithdrawn",
          "type": "uint256"
        },
        {
          "indexed": false,
          "internalType": "uint256",
          "name": "totalInvestorFundTokens",
          "type": "uint256"
        },
        {
          "indexed": false,
          "internalType": "uint256",
          "name": "fundValue",
          "type": "uint256"
        },
        {
          "indexed": false,
          "internalType": "uint256",
          "name": "totalSupply",
          "type": "uint256"
        },
        {
          "indexed": false,
          "internalType": "uint256",
          "name": "time",
          "type": "uint256"
        }
      ],
      "name": "Withdrawal",
      "type": "event"
    },
    {
      "inputs": [
        {
          "internalType": "address",
          "name": "member",
          "type": "address"
        }
      ],
      "name": "addMember",
      "outputs": [],
      "stateMutability": "nonpayable",
      "type": "function"
    },
    {
      "inputs": [
        {
          "internalType": "address[]",
          "name": "members",
          "type": "address[]"
        }
      ],
      "name": "addMembers",
      "outputs": [],
      "stateMutability": "nonpayable",
      "type": "function"
    },
    {
      "inputs": [
        {
          "internalType": "address",
          "name": "owner",
          "type": "address"
        },
        {
          "internalType": "address",
          "name": "spender",
          "type": "address"
        }
      ],
      "name": "allowance",
      "outputs": [
        {
          "internalType": "uint256",
          "name": "",
          "type": "uint256"
        }
      ],
      "stateMutability": "view",
      "type": "function"
    },
    {
      "inputs": [
        {
          "internalType": "address",
          "name": "spender",
          "type": "address"
        },
        {
          "internalType": "uint256",
          "name": "amount",
          "type": "uint256"
        }
      ],
      "name": "approve",
      "outputs": [
        {
          "internalType": "bool",
          "name": "",
          "type": "bool"
        }
      ],
      "stateMutability": "nonpayable",
      "type": "function"
    },
    {
      "inputs": [],
      "name": "availableManagerFee",
      "outputs": [
        {
          "internalType": "uint256",
          "name": "",
          "type": "uint256"
        }
      ],
      "stateMutability": "view",
      "type": "function"
    },
    {
      "inputs": [
        {
          "internalType": "address",
          "name": "account",
          "type": "address"
        }
      ],
      "name": "balanceOf",
      "outputs": [
        {
          "internalType": "uint256",
          "name": "",
          "type": "uint256"
        }
      ],
      "stateMutability": "view",
      "type": "function"
    },
    {
      "inputs": [
        {
          "internalType": "address",
          "name": "newManager",
          "type": "address"
        },
        {
          "internalType": "string",
          "name": "newManagerName",
          "type": "string"
        }
      ],
      "name": "changeManager",
      "outputs": [],
      "stateMutability": "nonpayable",
      "type": "function"
    },
    {
      "inputs": [],
      "name": "creationTime",
      "outputs": [
        {
          "internalType": "uint256",
          "name": "",
          "type": "uint256"
        }
      ],
      "stateMutability": "view",
      "type": "function"
    },
    {
      "inputs": [],
      "name": "creator",
      "outputs": [
        {
          "internalType": "address",
          "name": "",
          "type": "address"
        }
      ],
      "stateMutability": "view",
      "type": "function"
    },
    {
      "inputs": [],
      "name": "decimals",
      "outputs": [
        {
          "internalType": "uint8",
          "name": "",
          "type": "uint8"
        }
      ],
      "stateMutability": "view",
      "type": "function"
    },
    {
      "inputs": [
        {
          "internalType": "address",
          "name": "spender",
          "type": "address"
        },
        {
          "internalType": "uint256",
          "name": "subtractedValue",
          "type": "uint256"
        }
      ],
      "name": "decreaseAllowance",
      "outputs": [
        {
          "internalType": "bool",
          "name": "",
          "type": "bool"
        }
      ],
      "stateMutability": "nonpayable",
      "type": "function"
    },
    {
      "inputs": [
        {
          "internalType": "uint256",
          "name": "_susdAmount",
          "type": "uint256"
        }
      ],
      "name": "deposit",
      "outputs": [
        {
          "internalType": "uint256",
          "name": "",
          "type": "uint256"
        }
      ],
      "stateMutability": "nonpayable",
      "type": "function"
    },
    {
      "inputs": [],
      "name": "factory",
      "outputs": [
        {
          "internalType": "address",
          "name": "",
          "type": "address"
        }
      ],
      "stateMutability": "view",
      "type": "function"
    },
    {
      "inputs": [],
      "name": "getExitFeeCooldown",
      "outputs": [
        {
          "internalType": "uint256",
          "name": "",
          "type": "uint256"
        }
      ],
      "stateMutability": "view",
      "type": "function"
    },
    {
      "inputs": [
        {
          "internalType": "address",
          "name": "sender",
          "type": "address"
        }
      ],
      "name": "getExitFeeRemainingCooldown",
      "outputs": [
        {
          "internalType": "uint256",
          "name": "",
          "type": "uint256"
        }
      ],
      "stateMutability": "view",
      "type": "function"
    },
    {
      "inputs": [],
      "name": "getFundSummary",
      "outputs": [
        {
          "internalType": "string",
          "name": "",
          "type": "string"
        },
        {
          "internalType": "uint256",
          "name": "",
          "type": "uint256"
        },
        {
          "internalType": "uint256",
          "name": "",
          "type": "uint256"
        },
        {
          "internalType": "address",
          "name": "",
          "type": "address"
        },
        {
          "internalType": "string",
          "name": "",
          "type": "string"
        },
        {
          "internalType": "uint256",
          "name": "",
          "type": "uint256"
        },
        {
          "internalType": "bool",
          "name": "",
          "type": "bool"
        },
        {
          "internalType": "uint256",
          "name": "",
          "type": "uint256"
        },
        {
          "internalType": "uint256",
          "name": "",
          "type": "uint256"
        },
        {
          "internalType": "uint256",
          "name": "",
          "type": "uint256"
        },
        {
          "internalType": "uint256",
          "name": "",
          "type": "uint256"
        }
      ],
      "stateMutability": "view",
      "type": "function"
    },
    {
      "inputs": [],
      "name": "getMembers",
      "outputs": [
        {
          "internalType": "address[]",
          "name": "",
          "type": "address[]"
        }
      ],
      "stateMutability": "view",
      "type": "function"
    },
    {
      "inputs": [],
      "name": "getPoolManagerLogic",
      "outputs": [
        {
          "internalType": "address",
          "name": "",
          "type": "address"
        }
      ],
      "stateMutability": "view",
      "type": "function"
    },
    {
      "inputs": [
        {
          "internalType": "address",
          "name": "spender",
          "type": "address"
        },
        {
          "internalType": "uint256",
          "name": "addedValue",
          "type": "uint256"
        }
      ],
      "name": "increaseAllowance",
      "outputs": [
        {
          "internalType": "bool",
          "name": "",
          "type": "bool"
        }
      ],
      "stateMutability": "nonpayable",
      "type": "function"
    },
    {
      "inputs": [
        {
          "internalType": "address",
          "name": "_factory",
          "type": "address"
        },
        {
          "internalType": "bool",
          "name": "_privatePool",
          "type": "bool"
        },
        {
          "internalType": "address",
          "name": "_manager",
          "type": "address"
        },
        {
          "internalType": "string",
          "name": "_managerName",
          "type": "string"
        },
        {
          "internalType": "string",
          "name": "_fundName",
          "type": "string"
        },
        {
          "internalType": "string",
          "name": "_fundSymbol",
          "type": "string"
        },
        {
          "internalType": "address",
          "name": "_poolManagerLogic",
          "type": "address"
        }
      ],
      "name": "initialize",
      "outputs": [],
      "stateMutability": "nonpayable",
      "type": "function"
    },
    {
      "inputs": [
        {
          "internalType": "address",
          "name": "member",
          "type": "address"
        }
      ],
      "name": "isMemberAllowed",
      "outputs": [
        {
          "internalType": "bool",
          "name": "",
          "type": "bool"
        }
      ],
      "stateMutability": "view",
      "type": "function"
    },
    {
      "inputs": [
        {
          "internalType": "address",
          "name": "",
          "type": "address"
        }
      ],
      "name": "lastDeposit",
      "outputs": [
        {
          "internalType": "uint256",
          "name": "",
          "type": "uint256"
        }
      ],
      "stateMutability": "view",
      "type": "function"
    },
    {
      "inputs": [],
      "name": "manager",
      "outputs": [
        {
          "internalType": "address",
          "name": "",
          "type": "address"
        }
      ],
      "stateMutability": "view",
      "type": "function"
    },
    {
      "inputs": [],
      "name": "managerName",
      "outputs": [
        {
          "internalType": "string",
          "name": "",
          "type": "string"
        }
      ],
      "stateMutability": "view",
      "type": "function"
    },
    {
      "inputs": [],
      "name": "mintManagerFee",
      "outputs": [],
      "stateMutability": "nonpayable",
      "type": "function"
    },
    {
      "inputs": [],
      "name": "name",
      "outputs": [
        {
          "internalType": "string",
          "name": "",
          "type": "string"
        }
      ],
      "stateMutability": "view",
      "type": "function"
    },
    {
      "inputs": [],
      "name": "numberOfMembers",
      "outputs": [
        {
          "internalType": "uint256",
          "name": "",
          "type": "uint256"
        }
      ],
      "stateMutability": "view",
      "type": "function"
    },
    {
      "inputs": [],
      "name": "poolManagerLogic",
      "outputs": [
        {
          "internalType": "address",
          "name": "",
          "type": "address"
        }
      ],
      "stateMutability": "view",
      "type": "function"
    },
    {
      "inputs": [],
      "name": "privatePool",
      "outputs": [
        {
          "internalType": "bool",
          "name": "",
          "type": "bool"
        }
      ],
      "stateMutability": "view",
      "type": "function"
    },
    {
      "inputs": [
        {
          "internalType": "address",
          "name": "member",
          "type": "address"
        }
      ],
      "name": "removeMember",
      "outputs": [],
      "stateMutability": "nonpayable",
      "type": "function"
    },
    {
      "inputs": [
        {
          "internalType": "address[]",
          "name": "members",
          "type": "address[]"
        }
      ],
      "name": "removeMembers",
      "outputs": [],
      "stateMutability": "nonpayable",
      "type": "function"
    },
    {
      "inputs": [],
      "name": "removeTrader",
      "outputs": [],
      "stateMutability": "nonpayable",
      "type": "function"
    },
    {
      "inputs": [
        {
          "internalType": "address",
          "name": "investor",
          "type": "address"
        }
      ],
      "name": "setLastDeposit",
      "outputs": [],
      "stateMutability": "nonpayable",
      "type": "function"
    },
    {
      "inputs": [
        {
          "internalType": "address",
          "name": "_poolManagerLogic",
          "type": "address"
        }
      ],
      "name": "setPoolManagerLogic",
      "outputs": [
        {
          "internalType": "bool",
          "name": "",
          "type": "bool"
        }
      ],
      "stateMutability": "nonpayable",
      "type": "function"
    },
    {
      "inputs": [
        {
          "internalType": "bool",
          "name": "_privatePool",
          "type": "bool"
        }
      ],
      "name": "setPoolPrivate",
      "outputs": [],
      "stateMutability": "nonpayable",
      "type": "function"
    },
    {
      "inputs": [
        {
          "internalType": "address",
          "name": "newTrader",
          "type": "address"
        }
      ],
      "name": "setTrader",
      "outputs": [],
      "stateMutability": "nonpayable",
      "type": "function"
    },
    {
      "inputs": [],
      "name": "symbol",
      "outputs": [
        {
          "internalType": "string",
          "name": "",
          "type": "string"
        }
      ],
      "stateMutability": "view",
      "type": "function"
    },
    {
      "inputs": [],
      "name": "tokenPrice",
      "outputs": [
        {
          "internalType": "uint256",
          "name": "",
          "type": "uint256"
        }
      ],
      "stateMutability": "view",
      "type": "function"
    },
    {
      "inputs": [],
      "name": "tokenPriceAtLastFeeMint",
      "outputs": [
        {
          "internalType": "uint256",
          "name": "",
          "type": "uint256"
        }
      ],
      "stateMutability": "view",
      "type": "function"
    },
    {
      "inputs": [],
      "name": "totalFundValue",
      "outputs": [
        {
          "internalType": "uint256",
          "name": "",
          "type": "uint256"
        }
      ],
      "stateMutability": "view",
      "type": "function"
    },
    {
      "inputs": [],
      "name": "totalSupply",
      "outputs": [
        {
          "internalType": "uint256",
          "name": "",
          "type": "uint256"
        }
      ],
      "stateMutability": "view",
      "type": "function"
    },
    {
      "inputs": [],
      "name": "trader",
      "outputs": [
        {
          "internalType": "address",
          "name": "",
          "type": "address"
        }
      ],
      "stateMutability": "view",
      "type": "function"
    },
    {
      "inputs": [
        {
          "internalType": "address",
          "name": "recipient",
          "type": "address"
        },
        {
          "internalType": "uint256",
          "name": "amount",
          "type": "uint256"
        }
      ],
      "name": "transfer",
      "outputs": [
        {
          "internalType": "bool",
          "name": "",
          "type": "bool"
        }
      ],
      "stateMutability": "nonpayable",
      "type": "function"
    },
    {
      "inputs": [
        {
          "internalType": "address",
          "name": "sender",
          "type": "address"
        },
        {
          "internalType": "address",
          "name": "recipient",
          "type": "address"
        },
        {
          "internalType": "uint256",
          "name": "amount",
          "type": "uint256"
        }
      ],
      "name": "transferFrom",
      "outputs": [
        {
          "internalType": "bool",
          "name": "",
          "type": "bool"
        }
      ],
      "stateMutability": "nonpayable",
      "type": "function"
    },
    {
      "inputs": [
        {
          "internalType": "uint256",
          "name": "_fundTokenAmount",
          "type": "uint256"
        }
      ],
      "name": "withdraw",
      "outputs": [],
      "stateMutability": "nonpayable",
      "type": "function"
    }
  ],
  "bytecode": "0x608060405234801561001057600080fd5b506134a1806100206000396000f3fe608060405234801561001057600080fd5b506004361061027f5760003560e01c80637714f39d1161015c578063adefd871116100ce578063cdfa79d211610087578063cdfa79d2146109ee578063d8270dce14610bc8578063dd62ed3e14610bd0578063eda96ea914610bfe578063edbf6f5014610c06578063fed4416a14610c0e5761027f565b8063adefd8711461094f578063b6b55f2514610975578063bbbf725b14610992578063c45a0155146109b8578063ca6d56dc146109c0578063cc3c6df6146109e65761027f565b80639eab5253116101205780639eab525314610869578063a30e3fa9146108c1578063a457c2d7146108c9578063a6bc18f9146108f5578063a9059cbb1461091b578063ad60ffcc146109475761027f565b80637714f39d146108415780637c8afd51146108495780637ff9b5961461085157806395d89b41146108595780639e24b07f146108615761027f565b8063313ce567116101f5578063481c6a75116101b9578063481c6a7514610690578063522136631461069857806359b5e75e1461074c5780636f4d469b1461075457806370a08231146107f5578063750226de1461081b5761027f565b8063313ce56714610560578063323725b11461057e57806339509351146105a45780633babaad5146105d057806346ee84b0146105ef5761027f565b806318160ddd1161024757806318160ddd146103955780631c5918d2146103af5780631e50a4a6146104df57806323b872dd146104e757806329d16ee81461051d5780632e1a7d4d146105435761027f565b806302d05d3f1461028457806306fdde03146102a8578063095ea7b3146103255780630b1ca49a146103655780631758078b1461038d575b600080fd5b61028c610c16565b604080516001600160a01b039092168252519081900360200190f35b6102b0610c2a565b6040805160208082528351818301528351919283929083019185019080838360005b838110156102ea5781810151838201526020016102d2565b50505050905090810190601f1680156103175780820380516001836020036101000a031916815260200191505b509250505060405180910390f35b6103516004803603604081101561033b57600080fd5b506001600160a01b038135169060200135610cc0565b604080519115158252519081900360200190f35b61038b6004803603602081101561037b57600080fd5b50356001600160a01b0316610cde565b005b61028c610d4a565b61039d610d59565b60408051918252519081900360200190f35b6103b7610d5f565b60405180806020018c81526020018b81526020018a6001600160a01b0316815260200180602001898152602001881515815260200187815260200186815260200185815260200184815260200183810383528e818151815260200191508051906020019080838360005b83811015610439578181015183820152602001610421565b50505050905090810190601f1680156104665780820380516001836020036101000a031916815260200191505b5083810382528a5181528a516020918201918c019080838360005b83811015610499578181015183820152602001610481565b50505050905090810190601f1680156104c65780820380516001836020036101000a031916815260200191505b509d505050505050505050505050505060405180910390f35b61028c610ef2565b610351600480360360608110156104fd57600080fd5b506001600160a01b03813581169160208101359091169060400135610f01565b61039d6004803603602081101561053357600080fd5b50356001600160a01b0316610f88565b61038b6004803603602081101561055957600080fd5b5035610f9a565b6105686113d8565b6040805160ff9092168252519081900360200190f35b61038b6004803603602081101561059457600080fd5b50356001600160a01b03166113e1565b610351600480360360408110156105ba57600080fd5b506001600160a01b0381351690602001356114c3565b61038b600480360360208110156105e657600080fd5b50351515611511565b61038b6004803603602081101561060557600080fd5b810190602081018135600160201b81111561061f57600080fd5b82018360208201111561063157600080fd5b803590602001918460208302840111600160201b8311171561065257600080fd5b9190808060200260200160405190810160405280939291908181526020018383602002808284376000920191909152509295506115bf945050505050565b61028c611666565b61038b600480360360408110156106ae57600080fd5b6001600160a01b038235169190810190604081016020820135600160201b8111156106d857600080fd5b8201836020820111156106ea57600080fd5b803590602001918460018302840111600160201b8311171561070b57600080fd5b91908080601f016020809104026020016040519081016040528093929190818152602001838380828437600092019190915250929550611675945050505050565b6103516117a0565b61038b6004803603602081101561076a57600080fd5b810190602081018135600160201b81111561078457600080fd5b82018360208201111561079657600080fd5b803590602001918460208302840111600160201b831117156107b757600080fd5b9190808060200260200160405190810160405280939291908181526020018383602002808284376000920191909152509295506117a9945050505050565b61039d6004803603602081101561080b57600080fd5b50356001600160a01b0316611840565b6103516004803603602081101561083157600080fd5b50356001600160a01b031661185f565b61039d61190f565b61038b611915565b61039d611975565b6102b061199f565b61028c611a00565b610871611a0f565b60408051602080825283518183015283519192839290830191858101910280838360005b838110156108ad578181015183820152602001610895565b505050509050019250505060405180910390f35b61039d611a70565b610351600480360360408110156108df57600080fd5b506001600160a01b038135169060200135611a76565b61038b6004803603602081101561090b57600080fd5b50356001600160a01b0316611ade565b6103516004803603604081101561093157600080fd5b506001600160a01b038135169060200135611b4e565b61039d611b62565b61039d6004803603602081101561096557600080fd5b50356001600160a01b0316611d2b565b61039d6004803603602081101561098b57600080fd5b5035611df6565b610351600480360360208110156109a857600080fd5b50356001600160a01b03166120b6565b61028c6120d3565b61038b600480360360208110156109d657600080fd5b50356001600160a01b03166120e2565b61038b61214c565b61038b600480360360e0811015610a0457600080fd5b6001600160a01b0382358116926020810135151592604082013590921691810190608081016060820135600160201b811115610a3f57600080fd5b820183602082011115610a5157600080fd5b803590602001918460018302840111600160201b83111715610a7257600080fd5b91908080601f0160208091040260200160405190810160405280939291908181526020018383808284376000920191909152509295949360208101935035915050600160201b811115610ac457600080fd5b820183602082011115610ad657600080fd5b803590602001918460018302840111600160201b83111715610af757600080fd5b91908080601f0160208091040260200160405190810160405280939291908181526020018383808284376000920191909152509295949360208101935035915050600160201b811115610b4957600080fd5b820183602082011115610b5b57600080fd5b803590602001918460018302840111600160201b83111715610b7c57600080fd5b91908080601f016020809104026020016040519081016040528093929190818152602001838380828437600092019190915250929550505090356001600160a01b031691506121569050565b61039d612279565b61039d60048036036040811015610be657600080fd5b506001600160a01b038135811691602001351661227f565b61039d6122aa565b61039d612320565b6102b06123d6565b60cd5461010090046001600160a01b031681565b60688054604080516020601f6002600019610100600188161502019095169490940493840181900481028201810190925282815260609390929091830182828015610cb65780601f10610c8b57610100808354040283529160200191610cb6565b820191906000526020600020905b815481529060010190602001808311610c9957829003601f168201915b5050505050905090565b6000610cd4610ccd612437565b848461243b565b5060015b92915050565b6097546001600160a01b03163314610d2c576040805162461bcd60e51b815260206004820152600c60248201526b37b7363c9036b0b730b3b2b960a11b604482015290519081900360640190fd5b610d35816120b6565b610d3e57610d47565b610d4781612527565b50565b609b546001600160a01b031690565b60675490565b60606000806000606060008060008060008060008060cf60009054906101000a90046001600160a01b03166001600160a01b031663b7a54526306040518263ffffffff1660e01b815260040180826001600160a01b03168152602001915050604080518083038186803b158015610dd557600080fd5b505afa158015610de9573d6000803e3d6000fd5b505050506040513d6040811015610dff57600080fd5b50805160209091015160cf546040805163765808b560e11b8152815194965092945060009384936001600160a01b039093169263ecb0116a926004808301939192829003018186803b158015610e5457600080fd5b505afa158015610e68573d6000803e3d6000fd5b505050506040513d6040811015610e7e57600080fd5b5080516020909101519092509050610e94610c2a565b610e9c610d59565b610ea4611b62565b610eac611666565b610eb46123d6565b60ce5460cd60009054906101000a900460ff168a8a8a8a9e509e509e509e509e509e509e509e509e509e509e5050505050909192939495969798999a565b60d2546001600160a01b031681565b6000610f0e848484612620565b610f7e84610f1a612437565b610f7985604051806060016040528060288152602001613364602891396001600160a01b038a16600090815260666020526040812090610f58612437565b6001600160a01b03168152602081019190915260400160002054919061277d565b61243b565b5060019392505050565b60d16020526000908152604090205481565b80610fa433611840565b1015610fe15760405162461bcd60e51b81526004018080602001828103825260238152602001806134496023913960400191505060405180910390fd5b610fea33611d2b565b1561102e576040805162461bcd60e51b815260206004820152600f60248201526e636f6f6c646f776e2061637469766560881b604482015290519081900360640190fd5b611036612814565b6000611040611b62565b9050600061106761104f610d59565b61106185670de0b6b3a7640000612a92565b90612af2565b90506110733384612b34565b60d2546040805163e5406dbf60e01b815290516001600160a01b0390921691606091839163e5406dbf91600480820192600092909190829003018186803b1580156110bd57600080fd5b505afa1580156110d1573d6000803e3d6000fd5b505050506040513d6000823e601f3d908101601f1916820160405260208110156110fa57600080fd5b8101908080516040519392919084600160201b82111561111957600080fd5b90830190602082018581111561112e57600080fd5b82518660208202830111600160201b8211171561114a57600080fd5b82525081516020918201928201910280838360005b8381101561117757818101518382015260200161115f565b50505050905001604052505050905060008151905060005b8181101561133d576000846001600160a01b0316633ded65308584815181106111b457fe5b60200260200101516040518263ffffffff1660e01b81526004018082815260200191505060206040518083038186803b1580156111f057600080fd5b505afa158015611204573d6000803e3d6000fd5b505050506040513d602081101561121a57600080fd5b5051604080516370a0823160e01b815230600482015290519192506000916001600160a01b038416916370a08231916024808301926020929190829003018186803b15801561126857600080fd5b505afa15801561127c573d6000803e3d6000fd5b505050506040513d602081101561129257600080fd5b5051905060006112ae670de0b6b3a7640000611061848b612a92565b90508015611332576040805163a9059cbb60e01b81523360048201526024810183905290516001600160a01b0385169163a9059cbb9160448083019260209291908290030181600087803b15801561130557600080fd5b505af1158015611319573d6000803e3d6000fd5b505050506040513d602081101561132f57600080fd5b50505b50505060010161118f565b506000611348611b62565b90508086037f79d44cc8beeed36226f14818b2ecaca7ef252bcd56c9ae35f5a86869dbdefb973033838b61137b83611840565b87611384610d59565b604080516001600160a01b039889168152969097166020870152858701949094526060850192909252608084015260a083015260c08201524260e08201529051908190036101000190a15050505050505050565b606a5460ff1690565b60cf546040805163fcf6165760e01b815290516000926001600160a01b03169163fcf61657916004808301926020929190829003018186803b15801561142657600080fd5b505afa15801561143a573d6000803e3d6000fd5b505050506040513d602081101561145057600080fd5b50519050336001600160a01b038216146114a6576040805162461bcd60e51b81526020600482015260126024820152711bdb9b1e481cddd85c0818dbdb9d1c9858dd60721b604482015290519081900360640190fd5b506001600160a01b0316600090815260d160205260409020429055565b6000610cd46114d0612437565b84610f7985606660006114e1612437565b6001600160a01b03908116825260208083019390935260409182016000908120918c168152925290205490612c30565b6097546001600160a01b0316331461155f576040805162461bcd60e51b815260206004820152600c60248201526b37b7363c9036b0b730b3b2b960a11b604482015290519081900360640190fd5b60cd5460ff16151581151514156115b6576040805162461bcd60e51b8152602060048201526016602482015275199b1859c81b5d5cdd08189948191a5999995c995b9d60521b604482015290519081900360640190fd5b610d4781612c8a565b6097546001600160a01b0316331461160d576040805162461bcd60e51b815260206004820152600c60248201526b37b7363c9036b0b730b3b2b960a11b604482015290519081900360640190fd5b60005b81518110156116625761163582828151811061162857fe5b60200260200101516120b6565b61163e5761165a565b61165a82828151811061164d57fe5b6020026020010151612527565b600101611610565b5050565b6097546001600160a01b031690565b6097546001600160a01b031633146116c3576040805162461bcd60e51b815260206004820152600c60248201526b37b7363c9036b0b730b3b2b960a11b604482015290519081900360640190fd5b609780546001600160a01b0319166001600160a01b03841617905580516116f1906098906020840190613222565b507f6ed15082ad038474841528b5badca105106d4463e44b5d434130dfb299aa3669828260405180836001600160a01b0316815260200180602001828103825283818151815260200191508051906020019080838360005b83811015611761578181015183820152602001611749565b50505050905090810190601f16801561178e5780820380516001836020036101000a031916815260200191505b50935050505060405180910390a15050565b60cd5460ff1681565b6097546001600160a01b031633146117f7576040805162461bcd60e51b815260206004820152600c60248201526b37b7363c9036b0b730b3b2b960a11b604482015290519081900360640190fd5b60005b81518110156116625761181282828151811061162857fe5b1561181c57611838565b61183882828151811061182b57fe5b6020026020010151612cd1565b6001016117fa565b6001600160a01b0381166000908152606560205260409020545b919050565b6097546000906001600160a01b031633146118b0576040805162461bcd60e51b815260206004820152600c60248201526b37b7363c9036b0b730b3b2b960a11b604482015290519081900360640190fd5b60d280546001600160a01b0319166001600160a01b0384169081179091556040805191825233602083015280517f63fb64c359a4cae97e1bf003c1ab11390b5f0e18cc5b3d67b90bd61c0f5c52fd9281900390910190a1506001919050565b60d05481565b6097546001600160a01b03163314611963576040805162461bcd60e51b815260206004820152600c60248201526b37b7363c9036b0b730b3b2b960a11b604482015290519081900360640190fd5b609b80546001600160a01b0319169055565b600080611980611b62565b9050600061198c610d59565b90506119988282612d2d565b9250505090565b60698054604080516020601f6002600019610100600188161502019095169490940493840181900481028201810190925282815260609390929091830182828015610cb65780601f10610c8b57610100808354040283529160200191610cb6565b60d2546001600160a01b031690565b60606099805480602002602001604051908101604052809291908181526020018280548015610cb657602002820191906000526020600020905b81546001600160a01b03168152600190910190602001808311611a49575050505050905090565b60995490565b6000610cd4611a83612437565b84610f79856040518060600160405280602581526020016134246025913960666000611aad612437565b6001600160a01b03908116825260208083019390935260409182016000908120918d1681529252902054919061277d565b6097546001600160a01b03163314611b2c576040805162461bcd60e51b815260206004820152600c60248201526b37b7363c9036b0b730b3b2b960a11b604482015290519081900360640190fd5b609b80546001600160a01b0319166001600160a01b0392909216919091179055565b6000610cd4611b5b612437565b8484612620565b60d2546040805163e5406dbf60e01b8152905160009283926001600160a01b0390911691606091839163e5406dbf916004808201928892909190829003018186803b158015611bb057600080fd5b505afa158015611bc4573d6000803e3d6000fd5b505050506040513d6000823e601f3d908101601f191682016040526020811015611bed57600080fd5b8101908080516040519392919084600160201b821115611c0c57600080fd5b908301906020820185811115611c2157600080fd5b82518660208202830111600160201b82111715611c3d57600080fd5b82525081516020918201928201910280838360005b83811015611c6a578181015183820152602001611c52565b50505050905001604052505050905060008151905060005b81811015611d2157611d17846001600160a01b0316630499123f858481518110611ca857fe5b60200260200101516040518263ffffffff1660e01b81526004018082815260200191505060206040518083038186803b158015611ce457600080fd5b505afa158015611cf8573d6000803e3d6000fd5b505050506040513d6020811015611d0e57600080fd5b50518690612c30565b9450600101611c82565b5092935050505090565b60008060cf60009054906101000a90046001600160a01b03166001600160a01b031663eda96ea96040518163ffffffff1660e01b815260040160206040518083038186803b158015611d7c57600080fd5b505afa158015611d90573d6000803e3d6000fd5b505050506040513d6020811015611da657600080fd5b50516001600160a01b038416600090815260d1602052604081205491925090611dcf9083612c30565b905042811015611de45760009250505061185a565b611dee8142612d5d565b949350505050565b6000611e00611666565b6001600160a01b0316336001600160a01b03161480611e22575060cd5460ff16155b80611e315750611e31336120b6565b611e79576040805162461bcd60e51b81526020600482015260146024820152731bdb9b1e481b595b58995c9cc8185b1b1bddd95960621b604482015290519081900360640190fd5b33600090815260d160205260409020429055611e93612814565b6000611e9d611b62565b90506000611ea9610d59565b60d254604080516303ded65360e41b8152631cd554d160e21b600482015290519293506001600160a01b03909116918291633ded6530916024808301926020929190829003018186803b158015611eff57600080fd5b505afa158015611f13573d6000803e3d6000fd5b505050506040513d6020811015611f2957600080fd5b5051604080516323b872dd60e01b81523360048201523060248201526044810188905290516001600160a01b03909216916323b872dd916064808201926020929091908290030181600087803b158015611f8257600080fd5b505af1158015611f96573d6000803e3d6000fd5b505050506040513d6020811015611fac57600080fd5b5051611ff7576040805162461bcd60e51b81526020600482015260156024820152741d1bdad95b881d1c985b9cd9995c8819985a5b1959605a1b604482015290519081900360640190fd5b600082156120145761200d846110618886612a92565b9050612017565b50845b6120213382612d9f565b7f87fdcba84e083ebb8fd661bbafee3eb38764ec6f0cbeea8ed52deffa67bd45dc3033888461204f33611840565b6120598a8d612c30565b6120638a89612c30565b604080516001600160a01b039889168152969097166020870152858701949094526060850192909252608084015260a083015260c08201524260e08201529051908190036101000190a195945050505050565b6001600160a01b03166000908152609a6020526040902054151590565b60cf546001600160a01b031681565b6097546001600160a01b03163314612130576040805162461bcd60e51b815260206004820152600c60248201526b37b7363c9036b0b730b3b2b960a11b604482015290519081900360640190fd5b612139816120b6565b1561214357610d47565b610d4781612cd1565b612154612814565b565b600054610100900460ff168061216f575061216f612e91565b8061217d575060005460ff16155b6121b85760405162461bcd60e51b815260040180806020018281038252602e81526020018061338c602e913960400191505060405180910390fd5b600054610100900460ff161580156121e3576000805460ff1961ff0019909116610100171660011790555b6121ed8484612e97565b6121f78686612f4d565b60cf80546001600160a01b0319166001600160a01b038a1617905561221b87612c8a565b60cd8054610100600160a81b03191633610100021790554260ce55670de0b6b3a764000060d05560d280546001600160a01b0319166001600160a01b038416179055801561226f576000805461ff00191690555b5050505050505050565b60ce5481565b6001600160a01b03918216600090815260666020908152604080832093909416825291909152205490565b60cf546040805163eda96ea960e01b815290516000926001600160a01b03169163eda96ea9916004808301926020929190829003018186803b1580156122ef57600080fd5b505afa158015612303573d6000803e3d6000fd5b505050506040513d602081101561231957600080fd5b5051905090565b60008061232b611b62565b90506000612337610d59565b60cf5460408051635bd2a29360e11b8152306004820152815193945060009384936001600160a01b03169263b7a545269260248082019391829003018186803b15801561238357600080fd5b505afa158015612397573d6000803e3d6000fd5b505050506040513d60408110156123ad57600080fd5b50805160209091015160d05491935091506123cd90859085908585612f7b565b94505050505090565b60988054604080516020601f6002600019610100600188161502019095169490940493840181900481028201810190925282815260609390929091830182828015610cb65780601f10610c8b57610100808354040283529160200191610cb6565b3390565b6001600160a01b0383166124805760405162461bcd60e51b81526004018080602001828103825260248152602001806134006024913960400191505060405180910390fd5b6001600160a01b0382166124c55760405162461bcd60e51b81526004018080602001828103825260228152602001806132fb6022913960400191505060405180910390fd5b6001600160a01b03808416600081815260666020908152604080832094871680845294825291829020859055815185815291517f8c5be1e5ebec7d5bd14f71427d1e84f3dd0314c0f7b2291e5b200ac8c7c3b9259281900390910190a3505050565b6099546001600160a01b0382166000908152609a602052604081205461254e906001612d5d565b90506000609961255f846001612d5d565b8154811061256957fe5b600091825260209091200154609980546001600160a01b03909216925082918490811061259257fe5b600091825260209091200180546001600160a01b0319166001600160a01b03929092169190911790556125c6826001612c30565b6001600160a01b038083166000908152609a60205260408082209390935590861681529081205560998054806125f857fe5b600082815260209020810160001990810180546001600160a01b031916905501905550505050565b6001600160a01b0383166126655760405162461bcd60e51b81526004018080602001828103825260258152602001806133db6025913960400191505060405180910390fd5b6001600160a01b0382166126aa5760405162461bcd60e51b81526004018080602001828103825260238152602001806132b66023913960400191505060405180910390fd5b6126b5838383612fec565b6126f28160405180606001604052806026815260200161331d602691396001600160a01b038616600090815260656020526040902054919061277d565b6001600160a01b0380851660009081526065602052604080822093909355908416815220546127219082612c30565b6001600160a01b0380841660008181526065602090815260409182902094909455805185815290519193928716927fddf252ad1be2c89b69c2b068fc378daa952ba7f163c4a11628f55a4df523b3ef92918290030190a3505050565b6000818484111561280c5760405162461bcd60e51b81526004018080602001828103825283818151815260200191508051906020019080838360005b838110156127d15781810151838201526020016127b9565b50505050905090810190601f1680156127fe5780820380516001836020036101000a031916815260200191505b509250505060405180910390fd5b505050900390565b600061281e611b62565b9050600061282a610d59565b60cf5460408051635bd2a29360e11b8152306004820152815193945060009384936001600160a01b03169263b7a545269260248082019391829003018186803b15801561287657600080fd5b505afa15801561288a573d6000803e3d6000fd5b505050506040513d60408110156128a057600080fd5b50805160209091015160d05491935091506000906128c390869086908686612f7b565b905060648110156128d8575050505050612154565b60cf5460408051631d68702d60e01b815290516000926001600160a01b031691631d68702d916004808301926020929190829003018186803b15801561291d57600080fd5b505afa158015612931573d6000803e3d6000fd5b505050506040513d602081101561294757600080fd5b505160cf546040805163272b69b960e21b8152815193945060009384936001600160a01b031692639cada6e49260048082019391829003018186803b15801561298f57600080fd5b505afa1580156129a3573d6000803e3d6000fd5b505050506040513d60408110156129b957600080fd5b508051602090910151909250905060006129d7826110618786612a92565b905060006129e58683612d5d565b905081156129f7576129f78583612d9f565b8015612a0e57612a0e612a08611666565b82612d9f565b612a188a8a612d2d565b60d0557f755a8059d66d8d243bc9f6913f429a811f154599d0538bb0b6a2ac23f23d2ccd30612a45611666565b60d054604080516001600160a01b0394851681529290931660208301528183018a9052606082018690526080820185905260a082015290519081900360c00190a150505050505050505050565b600082612aa157506000610cd8565b82820282848281612aae57fe5b0414612aeb5760405162461bcd60e51b81526004018080602001828103825260218152602001806133436021913960400191505060405180910390fd5b9392505050565b6000612aeb83836040518060400160405280601a81526020017f536166654d6174683a206469766973696f6e206279207a65726f000000000000815250613044565b6001600160a01b038216612b795760405162461bcd60e51b81526004018080602001828103825260218152602001806133ba6021913960400191505060405180910390fd5b612b8582600083612fec565b612bc2816040518060600160405280602281526020016132d9602291396001600160a01b038516600090815260656020526040902054919061277d565b6001600160a01b038316600090815260656020526040902055606754612be89082612d5d565b6067556040805182815290516000916001600160a01b038516917fddf252ad1be2c89b69c2b068fc378daa952ba7f163c4a11628f55a4df523b3ef9181900360200190a35050565b600082820183811015612aeb576040805162461bcd60e51b815260206004820152601b60248201527f536166654d6174683a206164646974696f6e206f766572666c6f770000000000604482015290519081900360640190fd5b60cd805482151560ff19909116811790915560408051918252517f8d75e9ede4188432084b863d70b3416010c97547dfeb4fc17734d2e997ee0f399181900360200190a150565b609980546001810182557f72a152ddfb8e864297c917af52ea6c1c68aead0fee1a62673fcc7e0c94979d000180546001600160a01b039093166001600160a01b031990931683179055546000918252609a602052604090912055565b6000811580612d3a575082155b15612d4757506000610cd8565b612aeb8261106185670de0b6b3a7640000612a92565b6000612aeb83836040518060400160405280601e81526020017f536166654d6174683a207375627472616374696f6e206f766572666c6f77000081525061277d565b6001600160a01b038216612dfa576040805162461bcd60e51b815260206004820152601f60248201527f45524332303a206d696e7420746f20746865207a65726f206164647265737300604482015290519081900360640190fd5b612e0660008383612fec565b606754612e139082612c30565b6067556001600160a01b038216600090815260656020526040902054612e399082612c30565b6001600160a01b03831660008181526065602090815260408083209490945583518581529351929391927fddf252ad1be2c89b69c2b068fc378daa952ba7f163c4a11628f55a4df523b3ef9281900390910190a35050565b303b1590565b600054610100900460ff1680612eb05750612eb0612e91565b80612ebe575060005460ff16155b612ef95760405162461bcd60e51b815260040180806020018281038252602e81526020018061338c602e913960400191505060405180910390fd5b600054610100900460ff16158015612f24576000805460ff1961ff0019909116610100171660011790555b612f2c6130a9565b612f36838361314a565b8015612f48576000805461ff00191690555b505050565b609780546001600160a01b0319166001600160a01b0384161790558051612f48906098906020840190613222565b6000841580612f88575085155b15612f9557506000612fe3565b6000612fad8661106189670de0b6b3a7640000612a92565b9050848111612fc0576000915050612fe3565b6000612fde82611061868189612fd88d81878f612d5d565b90612a92565b925050505b95945050505050565b612ff7838383612f48565b61300083611d2b565b15612f48576040805162461bcd60e51b815260206004820152600f60248201526e636f6f6c646f776e2061637469766560881b604482015290519081900360640190fd5b600081836130935760405162461bcd60e51b81526020600482018181528351602484015283519092839260449091019190850190808383600083156127d15781810151838201526020016127b9565b50600083858161309f57fe5b0495945050505050565b600054610100900460ff16806130c257506130c2612e91565b806130d0575060005460ff16155b61310b5760405162461bcd60e51b815260040180806020018281038252602e81526020018061338c602e913960400191505060405180910390fd5b600054610100900460ff16158015613136576000805460ff1961ff0019909116610100171660011790555b8015610d47576000805461ff001916905550565b600054610100900460ff16806131635750613163612e91565b80613171575060005460ff16155b6131ac5760405162461bcd60e51b815260040180806020018281038252602e81526020018061338c602e913960400191505060405180910390fd5b600054610100900460ff161580156131d7576000805460ff1961ff0019909116610100171660011790555b82516131ea906068906020860190613222565b5081516131fe906069906020850190613222565b50606a805460ff191660121790558015612f48576000805461ff0019169055505050565b828054600181600116156101000203166002900490600052602060002090601f016020900481019282601f1061326357805160ff1916838001178555613290565b82800160010185558215613290579182015b82811115613290578251825591602001919060010190613275565b5061329c9291506132a0565b5090565b5b8082111561329c57600081556001016132a156fe45524332303a207472616e7366657220746f20746865207a65726f206164647265737345524332303a206275726e20616d6f756e7420657863656564732062616c616e636545524332303a20617070726f766520746f20746865207a65726f206164647265737345524332303a207472616e7366657220616d6f756e7420657863656564732062616c616e6365536166654d6174683a206d756c7469706c69636174696f6e206f766572666c6f7745524332303a207472616e7366657220616d6f756e74206578636565647320616c6c6f77616e6365436f6e747261637420696e7374616e63652068617320616c7265616479206265656e20696e697469616c697a656445524332303a206275726e2066726f6d20746865207a65726f206164647265737345524332303a207472616e736665722066726f6d20746865207a65726f206164647265737345524332303a20617070726f76652066726f6d20746865207a65726f206164647265737345524332303a2064656372656173656420616c6c6f77616e63652062656c6f77207a65726f696e73756666696369656e742062616c616e6365206f662066756e6420746f6b656e73a26469706673582212208bbda33b37244726ee586841e94cbe28f88744e2899c504c7f31e1281b1f5a7464736f6c634300060c0033",
  "linkReferences": {},
  "deployedLinkReferences": {}
}