{
  "_format": "hh-sol-artifact-1",
  "contractName": "PoolLogic-ovm",
  "sourceName": "contracts/PoolLogic.sol",
  "abi": [
    {
      "anonymous": false,
      "inputs": [
        {
          "indexed": true,
          "internalType": "address",
          "name": "owner",
          "type": "address"
        },
        {
          "indexed": true,
          "internalType": "address",
          "name": "spender",
          "type": "address"
        },
        {
          "indexed": false,
          "internalType": "uint256",
          "name": "value",
          "type": "uint256"
        }
      ],
      "name": "Approval",
      "type": "event"
    },
    {
      "anonymous": false,
      "inputs": [
        {
          "indexed": false,
          "internalType": "address",
          "name": "fundAddress",
          "type": "address"
        },
        {
          "indexed": false,
          "internalType": "address",
          "name": "investor",
          "type": "address"
        },
        {
          "indexed": false,
          "internalType": "uint256",
          "name": "valueDeposited",
          "type": "uint256"
        },
        {
          "indexed": false,
          "internalType": "uint256",
          "name": "fundTokensReceived",
          "type": "uint256"
        },
        {
          "indexed": false,
          "internalType": "uint256",
          "name": "totalInvestorFundTokens",
          "type": "uint256"
        },
        {
          "indexed": false,
          "internalType": "uint256",
          "name": "fundValue",
          "type": "uint256"
        },
        {
          "indexed": false,
          "internalType": "uint256",
          "name": "totalSupply",
          "type": "uint256"
        },
        {
          "indexed": false,
          "internalType": "uint256",
          "name": "time",
          "type": "uint256"
        }
      ],
      "name": "Deposit",
      "type": "event"
    },
    {
      "anonymous": false,
      "inputs": [
        {
          "indexed": false,
          "internalType": "address",
          "name": "pool",
          "type": "address"
        },
        {
          "indexed": false,
          "internalType": "address",
          "name": "manager",
          "type": "address"
        },
        {
          "indexed": false,
          "internalType": "uint256",
          "name": "available",
          "type": "uint256"
        },
        {
          "indexed": false,
          "internalType": "uint256",
          "name": "daoFee",
          "type": "uint256"
        },
        {
          "indexed": false,
          "internalType": "uint256",
          "name": "managerFee",
          "type": "uint256"
        },
        {
          "indexed": false,
          "internalType": "uint256",
          "name": "tokenPriceAtLastFeeMint",
          "type": "uint256"
        }
      ],
      "name": "ManagerFeeMinted",
      "type": "event"
    },
    {
      "anonymous": false,
      "inputs": [
        {
          "indexed": false,
          "internalType": "address",
          "name": "newManager",
          "type": "address"
        },
        {
          "indexed": false,
          "internalType": "string",
          "name": "newManagerName",
          "type": "string"
        }
      ],
      "name": "ManagerUpdated",
      "type": "event"
    },
    {
      "anonymous": false,
      "inputs": [
        {
          "indexed": false,
          "internalType": "address",
          "name": "poolManagerLogic",
          "type": "address"
        },
        {
          "indexed": false,
          "internalType": "address",
          "name": "from",
          "type": "address"
        }
      ],
      "name": "PoolManagerLogicSet",
      "type": "event"
    },
    {
      "anonymous": false,
      "inputs": [
        {
          "indexed": false,
          "internalType": "bool",
          "name": "isPoolPrivate",
          "type": "bool"
        }
      ],
      "name": "PoolPrivacyUpdated",
      "type": "event"
    },
    {
      "anonymous": false,
      "inputs": [
        {
          "indexed": true,
          "internalType": "address",
          "name": "from",
          "type": "address"
        },
        {
          "indexed": true,
          "internalType": "address",
          "name": "to",
          "type": "address"
        },
        {
          "indexed": false,
          "internalType": "uint256",
          "name": "value",
          "type": "uint256"
        }
      ],
      "name": "Transfer",
      "type": "event"
    },
    {
      "anonymous": false,
      "inputs": [
        {
          "indexed": false,
          "internalType": "address",
          "name": "fundAddress",
          "type": "address"
        },
        {
          "indexed": false,
          "internalType": "address",
          "name": "investor",
          "type": "address"
        },
        {
          "indexed": false,
          "internalType": "uint256",
          "name": "valueWithdrawn",
          "type": "uint256"
        },
        {
          "indexed": false,
          "internalType": "uint256",
          "name": "fundTokensWithdrawn",
          "type": "uint256"
        },
        {
          "indexed": false,
          "internalType": "uint256",
          "name": "totalInvestorFundTokens",
          "type": "uint256"
        },
        {
          "indexed": false,
          "internalType": "uint256",
          "name": "fundValue",
          "type": "uint256"
        },
        {
          "indexed": false,
          "internalType": "uint256",
          "name": "totalSupply",
          "type": "uint256"
        },
        {
          "indexed": false,
          "internalType": "uint256",
          "name": "time",
          "type": "uint256"
        }
      ],
      "name": "Withdrawal",
      "type": "event"
    },
    {
      "inputs": [
        {
          "internalType": "address",
          "name": "member",
          "type": "address"
        }
      ],
      "name": "addMember",
      "outputs": [],
      "stateMutability": "nonpayable",
      "type": "function"
    },
    {
      "inputs": [
        {
          "internalType": "address[]",
          "name": "members",
          "type": "address[]"
        }
      ],
      "name": "addMembers",
      "outputs": [],
      "stateMutability": "nonpayable",
      "type": "function"
    },
    {
      "inputs": [
        {
          "internalType": "address",
          "name": "owner",
          "type": "address"
        },
        {
          "internalType": "address",
          "name": "spender",
          "type": "address"
        }
      ],
      "name": "allowance",
      "outputs": [
        {
          "internalType": "uint256",
          "name": "",
          "type": "uint256"
        }
      ],
      "stateMutability": "view",
      "type": "function"
    },
    {
      "inputs": [
        {
          "internalType": "address",
          "name": "spender",
          "type": "address"
        },
        {
          "internalType": "uint256",
          "name": "amount",
          "type": "uint256"
        }
      ],
      "name": "approve",
      "outputs": [
        {
          "internalType": "bool",
          "name": "",
          "type": "bool"
        }
      ],
      "stateMutability": "nonpayable",
      "type": "function"
    },
    {
      "inputs": [],
      "name": "availableManagerFee",
      "outputs": [
        {
          "internalType": "uint256",
          "name": "",
          "type": "uint256"
        }
      ],
      "stateMutability": "view",
      "type": "function"
    },
    {
      "inputs": [
        {
          "internalType": "address",
          "name": "account",
          "type": "address"
        }
      ],
      "name": "balanceOf",
      "outputs": [
        {
          "internalType": "uint256",
          "name": "",
          "type": "uint256"
        }
      ],
      "stateMutability": "view",
      "type": "function"
    },
    {
      "inputs": [
        {
          "internalType": "address",
          "name": "newManager",
          "type": "address"
        },
        {
          "internalType": "string",
          "name": "newManagerName",
          "type": "string"
        }
      ],
      "name": "changeManager",
      "outputs": [],
      "stateMutability": "nonpayable",
      "type": "function"
    },
    {
      "inputs": [],
      "name": "creationTime",
      "outputs": [
        {
          "internalType": "uint256",
          "name": "",
          "type": "uint256"
        }
      ],
      "stateMutability": "view",
      "type": "function"
    },
    {
      "inputs": [],
      "name": "creator",
      "outputs": [
        {
          "internalType": "address",
          "name": "",
          "type": "address"
        }
      ],
      "stateMutability": "view",
      "type": "function"
    },
    {
      "inputs": [],
      "name": "decimals",
      "outputs": [
        {
          "internalType": "uint8",
          "name": "",
          "type": "uint8"
        }
      ],
      "stateMutability": "view",
      "type": "function"
    },
    {
      "inputs": [
        {
          "internalType": "address",
          "name": "spender",
          "type": "address"
        },
        {
          "internalType": "uint256",
          "name": "subtractedValue",
          "type": "uint256"
        }
      ],
      "name": "decreaseAllowance",
      "outputs": [
        {
          "internalType": "bool",
          "name": "",
          "type": "bool"
        }
      ],
      "stateMutability": "nonpayable",
      "type": "function"
    },
    {
      "inputs": [
        {
          "internalType": "uint256",
          "name": "_susdAmount",
          "type": "uint256"
        }
      ],
      "name": "deposit",
      "outputs": [
        {
          "internalType": "uint256",
          "name": "",
          "type": "uint256"
        }
      ],
      "stateMutability": "nonpayable",
      "type": "function"
    },
    {
      "inputs": [],
      "name": "factory",
      "outputs": [
        {
          "internalType": "address",
          "name": "",
          "type": "address"
        }
      ],
      "stateMutability": "view",
      "type": "function"
    },
    {
      "inputs": [],
      "name": "getExitCooldown",
      "outputs": [
        {
          "internalType": "uint256",
          "name": "",
          "type": "uint256"
        }
      ],
      "stateMutability": "view",
      "type": "function"
    },
    {
      "inputs": [
        {
          "internalType": "address",
          "name": "sender",
          "type": "address"
        }
      ],
      "name": "getExitRemainingCooldown",
      "outputs": [
        {
          "internalType": "uint256",
          "name": "",
          "type": "uint256"
        }
      ],
      "stateMutability": "view",
      "type": "function"
    },
    {
      "inputs": [],
      "name": "getFundSummary",
      "outputs": [
        {
          "internalType": "string",
          "name": "",
          "type": "string"
        },
        {
          "internalType": "uint256",
          "name": "",
          "type": "uint256"
        },
        {
          "internalType": "uint256",
          "name": "",
          "type": "uint256"
        },
        {
          "internalType": "address",
          "name": "",
          "type": "address"
        },
        {
          "internalType": "string",
          "name": "",
          "type": "string"
        },
        {
          "internalType": "uint256",
          "name": "",
          "type": "uint256"
        },
        {
          "internalType": "bool",
          "name": "",
          "type": "bool"
        },
        {
          "internalType": "uint256",
          "name": "",
          "type": "uint256"
        },
        {
          "internalType": "uint256",
          "name": "",
          "type": "uint256"
        }
      ],
      "stateMutability": "view",
      "type": "function"
    },
    {
      "inputs": [],
      "name": "getMembers",
      "outputs": [
        {
          "internalType": "address[]",
          "name": "",
          "type": "address[]"
        }
      ],
      "stateMutability": "view",
      "type": "function"
    },
    {
      "inputs": [
        {
          "internalType": "address",
          "name": "spender",
          "type": "address"
        },
        {
          "internalType": "uint256",
          "name": "addedValue",
          "type": "uint256"
        }
      ],
      "name": "increaseAllowance",
      "outputs": [
        {
          "internalType": "bool",
          "name": "",
          "type": "bool"
        }
      ],
      "stateMutability": "nonpayable",
      "type": "function"
    },
    {
      "inputs": [
        {
          "internalType": "address",
          "name": "_factory",
          "type": "address"
        },
        {
          "internalType": "bool",
          "name": "_privatePool",
          "type": "bool"
        },
        {
          "internalType": "address",
          "name": "_manager",
          "type": "address"
        },
        {
          "internalType": "string",
          "name": "_managerName",
          "type": "string"
        },
        {
          "internalType": "string",
          "name": "_fundName",
          "type": "string"
        },
        {
          "internalType": "string",
          "name": "_fundSymbol",
          "type": "string"
        },
        {
          "internalType": "address",
          "name": "_poolManagerLogic",
          "type": "address"
        }
      ],
      "name": "initialize",
      "outputs": [],
      "stateMutability": "nonpayable",
      "type": "function"
    },
    {
      "inputs": [
        {
          "internalType": "address",
          "name": "member",
          "type": "address"
        }
      ],
      "name": "isMemberAllowed",
      "outputs": [
        {
          "internalType": "bool",
          "name": "",
          "type": "bool"
        }
      ],
      "stateMutability": "view",
      "type": "function"
    },
    {
      "inputs": [
        {
          "internalType": "address",
          "name": "",
          "type": "address"
        }
      ],
      "name": "lastDeposit",
      "outputs": [
        {
          "internalType": "uint256",
          "name": "",
          "type": "uint256"
        }
      ],
      "stateMutability": "view",
      "type": "function"
    },
    {
      "inputs": [],
      "name": "manager",
      "outputs": [
        {
          "internalType": "address",
          "name": "",
          "type": "address"
        }
      ],
      "stateMutability": "view",
      "type": "function"
    },
    {
      "inputs": [],
      "name": "managerName",
      "outputs": [
        {
          "internalType": "string",
          "name": "",
          "type": "string"
        }
      ],
      "stateMutability": "view",
      "type": "function"
    },
    {
      "inputs": [],
      "name": "mintManagerFee",
      "outputs": [],
      "stateMutability": "nonpayable",
      "type": "function"
    },
    {
      "inputs": [],
      "name": "name",
      "outputs": [
        {
          "internalType": "string",
          "name": "",
          "type": "string"
        }
      ],
      "stateMutability": "view",
      "type": "function"
    },
    {
      "inputs": [],
      "name": "numberOfMembers",
      "outputs": [
        {
          "internalType": "uint256",
          "name": "",
          "type": "uint256"
        }
      ],
      "stateMutability": "view",
      "type": "function"
    },
    {
      "inputs": [],
      "name": "poolManagerLogic",
      "outputs": [
        {
          "internalType": "address",
          "name": "",
          "type": "address"
        }
      ],
      "stateMutability": "view",
      "type": "function"
    },
    {
      "inputs": [],
      "name": "privatePool",
      "outputs": [
        {
          "internalType": "bool",
          "name": "",
          "type": "bool"
        }
      ],
      "stateMutability": "view",
      "type": "function"
    },
    {
      "inputs": [
        {
          "internalType": "address",
          "name": "member",
          "type": "address"
        }
      ],
      "name": "removeMember",
      "outputs": [],
      "stateMutability": "nonpayable",
      "type": "function"
    },
    {
      "inputs": [
        {
          "internalType": "address[]",
          "name": "members",
          "type": "address[]"
        }
      ],
      "name": "removeMembers",
      "outputs": [],
      "stateMutability": "nonpayable",
      "type": "function"
    },
    {
      "inputs": [],
      "name": "removeTrader",
      "outputs": [],
      "stateMutability": "nonpayable",
      "type": "function"
    },
    {
      "inputs": [
        {
          "internalType": "address",
          "name": "_poolManagerLogic",
          "type": "address"
        }
      ],
      "name": "setPoolManagerLogic",
      "outputs": [
        {
          "internalType": "bool",
          "name": "",
          "type": "bool"
        }
      ],
      "stateMutability": "nonpayable",
      "type": "function"
    },
    {
      "inputs": [
        {
          "internalType": "bool",
          "name": "_privatePool",
          "type": "bool"
        }
      ],
      "name": "setPoolPrivate",
      "outputs": [],
      "stateMutability": "nonpayable",
      "type": "function"
    },
    {
      "inputs": [
        {
          "internalType": "address",
          "name": "newTrader",
          "type": "address"
        }
      ],
      "name": "setTrader",
      "outputs": [],
      "stateMutability": "nonpayable",
      "type": "function"
    },
    {
      "inputs": [],
      "name": "symbol",
      "outputs": [
        {
          "internalType": "string",
          "name": "",
          "type": "string"
        }
      ],
      "stateMutability": "view",
      "type": "function"
    },
    {
      "inputs": [],
      "name": "tokenPrice",
      "outputs": [
        {
          "internalType": "uint256",
          "name": "",
          "type": "uint256"
        }
      ],
      "stateMutability": "view",
      "type": "function"
    },
    {
      "inputs": [],
      "name": "tokenPriceAtLastFeeMint",
      "outputs": [
        {
          "internalType": "uint256",
          "name": "",
          "type": "uint256"
        }
      ],
      "stateMutability": "view",
      "type": "function"
    },
    {
      "inputs": [],
      "name": "totalFundValue",
      "outputs": [
        {
          "internalType": "uint256",
          "name": "",
          "type": "uint256"
        }
      ],
      "stateMutability": "view",
      "type": "function"
    },
    {
      "inputs": [],
      "name": "totalSupply",
      "outputs": [
        {
          "internalType": "uint256",
          "name": "",
          "type": "uint256"
        }
      ],
      "stateMutability": "view",
      "type": "function"
    },
    {
      "inputs": [],
      "name": "trader",
      "outputs": [
        {
          "internalType": "address",
          "name": "",
          "type": "address"
        }
      ],
      "stateMutability": "view",
      "type": "function"
    },
    {
      "inputs": [
        {
          "internalType": "address",
          "name": "recipient",
          "type": "address"
        },
        {
          "internalType": "uint256",
          "name": "amount",
          "type": "uint256"
        }
      ],
      "name": "transfer",
      "outputs": [
        {
          "internalType": "bool",
          "name": "",
          "type": "bool"
        }
      ],
      "stateMutability": "nonpayable",
      "type": "function"
    },
    {
      "inputs": [
        {
          "internalType": "address",
          "name": "sender",
          "type": "address"
        },
        {
          "internalType": "address",
          "name": "recipient",
          "type": "address"
        },
        {
          "internalType": "uint256",
          "name": "amount",
          "type": "uint256"
        }
      ],
      "name": "transferFrom",
      "outputs": [
        {
          "internalType": "bool",
          "name": "",
          "type": "bool"
        }
      ],
      "stateMutability": "nonpayable",
      "type": "function"
    },
    {
      "inputs": [
        {
          "internalType": "uint256",
          "name": "_fundTokenAmount",
          "type": "uint256"
        }
      ],
      "name": "withdraw",
      "outputs": [],
      "stateMutability": "nonpayable",
      "type": "function"
    }
  ],
  "bytecode": "0x60806040523480156200001c576000806200001962000023565b50505b5062000090565b632a2a7adb598160e01b8152600481016020815285602082015260005b868110156200005d57808601518282016040015260200162000040565b506020828760640184336000905af158600e01573d6000803e3d6000fd5b3d6001141558600a015760016000f35b505050565b6148ca80620000a06000396000f3fe6080604052348015610019576000806100166142da565b50505b50600436106102725760003560e01c8063750226de1161015a578063b6b55f25116100cc578063cc3c6df611610090578063cc3c6df614610ab1578063cdfa79d214610ab9578063d8270dce14610cea578063dd62ed3e14610cf2578063edbf6f5014610d29578063fed4416a14610d3157610272565b8063b6b55f25146109f6578063b8ea2b6e14610a1c578063bbbf725b14610a4b578063c45a015514610a7a578063ca6d56dc14610a8257610272565b80639eab52531161011e5780639eab5253146108f2578063a30e3fa91461094d578063a457c2d714610955578063a6bc18f91461098a578063a9059cbb146109b9578063ad60ffcc146109ee57610272565b8063750226de146108a35780637714f39d146108d25780637c8afd51146108da5780637ff9b596146108e257806395d89b41146108ea57610272565b80632e1a7d4d116101f357806346ee84b0116101b757806346ee84b014610603578063481c6a75146106c857806352213663146106d057806359b5e75e146107a75780636f4d469b146107af57806370a082311461087457610272565b80632e1a7d4d1461055a578063313ce56714610580578063395093511461059e5780633babaad5146105d35780634501b088146105fb57610272565b806318160ddd1161023a57806318160ddd146103a55780631c5918d2146103bf5780631e50a4a6146104e457806323b872dd146104ec57806329d16ee81461052b57610272565b806302d05d3f1461028057806306fdde03146102a4578063095ea7b3146103235780630b1ca49a1461036c5780631758078b1461039d575b60008061027d6142da565b50505b610288610d39565b6040516001600160a01b03909116815260200160405180910390f35b6102ac610d58565b60405160208082528190810183818151815260200191508051906020019080838360005b838110156102e85780820151838201526020016102d0565b50505050905090810190601f1680156103155780820380516001836020036101000a031916815260200191505b509250505060405180910390f35b610358600480360360408110156103425760008061033f6142da565b50505b506001600160a01b038135169060200135610e15565b604051901515815260200160405180910390f35b61039b6004803603602081101561038b576000806103886142da565b50505b50356001600160a01b0316610e33565b005b610288610ed1565b6103ad610ef3565b60405190815260200160405180910390f35b6103c7610f04565b60405180806020018a8152602001898152602001886001600160a01b0316815260200180602001878152602001861515815260200185815260200184815260200183810383528c818151815260200191508051906020019080838360005b8381101561043d578082015183820152602001610425565b50505050905090810190601f16801561046a5780820380516001836020036101000a031916815260200191505b50838103825288818151815260200191508051906020019080838360005b838110156104a0578082015183820152602001610488565b50505050905090810190601f1680156104cd5780820380516001836020036101000a031916815260200191505b509b50505050505050505050505060405180910390f35b6102886110ab565b6103586004803603606081101561050b576000806105086142da565b50505b506001600160a01b038135811691602081013590911690604001356110b7565b6103ad6004803603602081101561054a576000806105476142da565b50505b50356001600160a01b031661114b565b61039b60048036036020811015610579576000806105766142da565b50505b5035611166565b6105886117ce565b60405160ff909116815260200160405180910390f35b610358600480360360408110156105bd576000806105ba6142da565b50505b506001600160a01b0381351690602001356117ea565b61039b600480360360208110156105f2576000806105ef6142da565b50505b5035151561184f565b6103ad611947565b61039b600480360360208110156106225760008061061f6142da565b50505b810190602081018135600160201b811115610645576000806106426142da565b50505b8201836020820111156106605760008061065d6142da565b50505b803590602001918460208302840111600160201b8311171561068a576000806106876142da565b50505b919080806020026020016040519081016040528093929190818152602001838360200280828437600092019190915250929550611a02945050505050565b610288611adb565b61039b600480360360408110156106ef576000806106ec6142da565b50505b6001600160a01b038235169190810190604081016020820135600160201b8111156107225760008061071f6142da565b50505b82018360208201111561073d5760008061073a6142da565b50505b803590602001918460018302840111600160201b83111715610767576000806107646142da565b50505b91908080601f0160208091040260200160405190810160405281815292919060208401838380828437600092019190915250929550611ae8945050505050565b610358611c5d565b61039b600480360360208110156107ce576000806107cb6142da565b50505b810190602081018135600160201b8111156107f1576000806107ee6142da565b50505b82018360208201111561080c576000806108096142da565b50505b803590602001918460208302840111600160201b83111715610836576000806108336142da565b50505b919080806020026020016040519081016040528093929190818152602001838360200280828437600092019190915250929550611c76945050505050565b6103ad60048036036020811015610893576000806108906142da565b50505b50356001600160a01b0316611d3f565b610358600480360360208110156108c2576000806108bf6142da565b50505b50356001600160a01b0316611d67565b6103ad611f21565b61039b611f2b565b6103ad611fe1565b6102ac61200b565b6108fa6120b1565b60405160208082528190810183818151815260200191508051906020019060200280838360005b83811015610939578082015183820152602001610921565b505050509050019250505060405180910390f35b6103ad612137565b61035860048036036040811015610974576000806109716142da565b50505b506001600160a01b03813516906020013561214a565b61039b600480360360208110156109a9576000806109a66142da565b50505b50356001600160a01b03166121c0565b610358600480360360408110156109d8576000806109d56142da565b50505b506001600160a01b038135169060200135612276565b6103ad61228a565b6103ad60048036036020811015610a1557600080610a126142da565b50505b50356124e5565b6103ad60048036036020811015610a3b57600080610a386142da565b50505b50356001600160a01b0316612973565b61035860048036036020811015610a6a57600080610a676142da565b50505b50356001600160a01b03166129dd565b610288612a05565b61039b60048036036020811015610aa157600080610a9e6142da565b50505b50356001600160a01b0316612a11565b61039b612aad565b61039b600480360360e0811015610ad857600080610ad56142da565b50505b6001600160a01b0382358116926020810135151592604082013590921691810190608081016060820135600160201b811115610b1c57600080610b196142da565b50505b820183602082011115610b3757600080610b346142da565b50505b803590602001918460018302840111600160201b83111715610b6157600080610b5e6142da565b50505b91908080601f01602080910402602001604051908101604052818152929190602084018383808284376000920191909152509295949360208101935035915050600160201b811115610bbb57600080610bb86142da565b50505b820183602082011115610bd657600080610bd36142da565b50505b803590602001918460018302840111600160201b83111715610c0057600080610bfd6142da565b50505b91908080601f01602080910402602001604051908101604052818152929190602084018383808284376000920191909152509295949360208101935035915050600160201b811115610c5a57600080610c576142da565b50505b820183602082011115610c7557600080610c726142da565b50505b803590602001918460018302840111600160201b83111715610c9f57600080610c9c6142da565b50505b91908080601f0160208091040260200160405190810160405281815292919060208401838380828437600092019190915250929550505090356001600160a01b03169150612ab79050565b6103ad612cd8565b6103ad60048036036040811015610d1157600080610d0e6142da565b50505b506001600160a01b0381358116916020013516612ce2565b6103ad612d22565b6102ac612e8f565b6000609c610d45614345565b906101000a90046001600160a01b031681565b6060606880610d65614345565b600181600116156101000203166002900480601f016020809104026020016040519081016040528181529190602083018280610d9f614345565b60018160011615610100020316600290048015610e0b5780601f10610dd9576101008083610dcb614345565b040283529160200191610e0b565b820191906000526020600020905b81610df0614345565b81529060010190602001808311610de757829003601f168201915b5050505050905090565b6000610e29610e22612f35565b8484612f40565b5060015b92915050565b60006097610e3f614345565b906101000a90046001600160a01b03166001600160a01b03165a610e616143a0565b6001600160a01b031614610eb35760405162461bcd60e51b815260206004820152600c60248201526b37b7363c9036b0b730b3b2b960a11b604482015260640160405180910390610eb06142da565b50505b610ebc816129dd565b610ec557610ece565b610ece81613068565b50565b600080609b610ede614345565b906101000a90046001600160a01b0316905090565b60006067610eff614345565b905090565b6060600080808381808080808080609e610f1c614345565b906101000a90046001600160a01b03166001600160a01b031663b7a545265a63996d79a5598160e01b8152602081600483336000905af158600e01573d6000803e3d6000fd5b3d6001141558600a015760016000f35b8051925060005b6040811015610f9057600082820152602001610f79565b5050506040516001600160e01b031960e084901b1681526001600160a01b03909116600482015260240160408051808303818680610fcc6143e6565b158015610fe157600080610fde6142da565b50505b505a610feb614432565b505050505015801561100a573d6000803e3d60006110076142da565b50505b505050506040513d6040811015611029576000806110266142da565b50505b810190808051929190602001805193955092935061104a9250610d58915050565b611052610ef3565b61105a61228a565b611062611adb565b61106a612e8f565b609d611074614345565b6014609b611080614345565b906101000a900460ff1688889a509a509a509a509a509a509a509a509a505050909192939495969798565b600060a1610d45614345565b60006110c48484846131e9565b611141846110d0612f35565b61113c856040516060810160405260288082526147e560208301396001600160a01b038a166000908152606660205260409020600061110d612f35565b6001600160a01b03166001600160a01b03168152602001908152602001600020611135614345565b9190613387565b612f40565b5060019392505050565b60a06020528060005260406000209050611163614345565b81565b806111785a6111736143a0565b611d3f565b10156111ca5760405162461bcd60e51b8152602060048201526014602482015273696e73756666696369656e742062616c616e636560601b6044820152606401604051809103906111c76142da565b50505b6111db5a6111d66143a0565b612973565b156112275760405162461bcd60e51b815260206004820152600f60248201526e636f6f6c646f776e2061637469766560881b6044820152606401604051809103906112246142da565b50505b61122f613427565b600061123961228a565b90506000611260611248610ef3565b61125a85670de0b6b3a7640000613858565b906138c0565b90506112745a61126e6143a0565b84613900565b60008060a1611281614345565b906101000a90046001600160a01b031690506060816001600160a01b031663e5406dbf6040518163ffffffff1660e01b815260040160006040518083038186806112c96143e6565b1580156112de576000806112db6142da565b50505b505a6112e8614432565b5050505050158015611307573d6000803e3d60006113046142da565b50505b505050506040513d6000823e601f3d908101601f191682016040526020811015611339576000806113366142da565b50505b8101908080516040519392919084600160201b8211156113615760008061135e6142da565b50505b90830190602082018581111561137f5760008061137c6142da565b50505b82518660208202830111600160201b821117156113a4576000806113a16142da565b50505b825250602001908051906020019060200280838360005b838110156113d35780820151838201526020016113bb565b50505050905001604052505050905060008151905060005b818110156116b1576000846001600160a01b0316633ded653085848151811061141057fe5b60200260200101516040516001600160e01b031960e084901b1681526004810191909152602401602060405180830381868061144a6143e6565b15801561145f5760008061145c6142da565b50505b505a611469614432565b5050505050158015611488573d6000803e3d60006114856142da565b50505b505050506040513d60208110156114a7576000806114a46142da565b50505b810190808051935060009250506001600160a01b03831690506370a082315a63996d79a5598160e01b8152602081600483336000905af158600e01573d6000803e3d6000fd5b3d6001141558600a015760016000f35b8051925060005b604081101561151b57600082820152602001611504565b5050506040516001600160e01b031960e084901b1681526001600160a01b03909116600482015260240160206040518083038186806115586143e6565b15801561156d5760008061156a6142da565b50505b505a611577614432565b5050505050158015611596573d6000803e3d60006115936142da565b50505b505050506040513d60208110156115b5576000806115b26142da565b50505b8101908080519350600092506115db9150670de0b6b3a7640000905061125a848b613858565b905080156116a657826001600160a01b031663a9059cbb5a6115fb6143a0565b836040516001600160e01b031960e085901b1681526001600160a01b03909216600483015260248201526044016020604051808303816000878061163d6143e6565b1580156116525760008061164f6142da565b50505b505a61165c61451d565b50505050505015801561167c573d6000803e3d60006116796142da565b50505b505050506040513d602081101561169b576000806116986142da565b50505b810190808051505050505b5050506001016113eb565b5060006116ca670de0b6b3a764000061125a8789613858565b90507f79d44cc8beeed36226f14818b2ecaca7ef252bcd56c9ae35f5a86869dbdefb975a63996d79a5598160e01b8152602081600483336000905af158600e01573d6000803e3d6000fd5b3d6001141558600a015760016000f35b8051925060005b60408110156117435760008282015260200161172c565b5050505a61174f6143a0565b838a61175d5a6111736143a0565b61176561228a565b61176d610ef3565b5a6117766145e3565b6040516001600160a01b0398891681529690971660208701526040808701959095526060860193909352608085019190915260a084015260c083015260e082019290925261010001905180910390a150505050505050565b600080606a6117db614345565b906101000a900460ff16905090565b6000610e296117f7612f35565b8461113c8560666000611808612f35565b6001600160a01b03166001600160a01b031681526020019081526020016000206001600160a01b038916600090815260209190915260409020611849614345565b90613a1a565b6000609761185b614345565b906101000a90046001600160a01b03166001600160a01b03165a61187d6143a0565b6001600160a01b0316146118cf5760405162461bcd60e51b815260206004820152600c60248201526b37b7363c9036b0b730b3b2b960a11b6044820152606401604051809103906118cc6142da565b50505b8015156014609b6118de614345565b906101000a900460ff161515141561193e5760405162461bcd60e51b8152602060048201526016602482015275199b1859c81b5d5cdd08189948191a5999995c995b9d60521b60448201526064016040518091039061193b6142da565b50505b610ece81613a79565b600080609e611954614345565b906101000a90046001600160a01b03166001600160a01b0316634501b0886040518163ffffffff1660e01b815260040160206040518083038186806119976143e6565b1580156119ac576000806119a96142da565b50505b505a6119b6614432565b50505050501580156119d5573d6000803e3d60006119d26142da565b50505b505050506040513d60208110156119f4576000806119f16142da565b50505b810190808051935050505090565b60006097611a0e614345565b906101000a90046001600160a01b03166001600160a01b03165a611a306143a0565b6001600160a01b031614611a825760405162461bcd60e51b815260206004820152600c60248201526b37b7363c9036b0b730b3b2b960a11b604482015260640160405180910390611a7f6142da565b50505b60005b8151811015611ad757611aaa828281518110611a9d57fe5b60200260200101516129dd565b611ab357611acf565b611acf828281518110611ac257fe5b6020026020010151613068565b600101611a85565b5050565b6000806097610ede614345565b60006097611af4614345565b906101000a90046001600160a01b03166001600160a01b03165a611b166143a0565b6001600160a01b031614611b685760405162461bcd60e51b815260206004820152600c60248201526b37b7363c9036b0b730b3b2b960a11b604482015260640160405180910390611b656142da565b50505b816097600181611b76614345565b816001600160a01b0302191690836001600160a01b0316021790611b98614629565b505050806098908051611baf929160200190614677565b507f6ed15082ad038474841528b5badca105106d4463e44b5d434130dfb299aa366982826040516001600160a01b038316815260406020820181815290820183818151815260200191508051906020019080838360005b83811015611c1e578082015183820152602001611c06565b50505050905090810190601f168015611c4b5780820380516001836020036101000a031916815260200191505b50935050505060405180910390a15050565b6014609b611c69614345565b906101000a900460ff1681565b60006097611c82614345565b906101000a90046001600160a01b03166001600160a01b03165a611ca46143a0565b6001600160a01b031614611cf65760405162461bcd60e51b815260206004820152600c60248201526b37b7363c9036b0b730b3b2b960a11b604482015260640160405180910390611cf36142da565b50505b60005b8151811015611ad757611d11828281518110611a9d57fe5b15611d1b57611d37565b611d37828281518110611d2a57fe5b6020026020010151613ada565b600101611cf9565b6001600160a01b0381166000908152606560205260408120611d5f614345565b90505b919050565b60008080609e611d75614345565b906101000a90046001600160a01b03166001600160a01b0316631d68702d6040518163ffffffff1660e01b81526004016020604051808303818680611db86143e6565b158015611dcd57600080611dca6142da565b50505b505a611dd7614432565b5050505050158015611df6573d6000803e3d6000611df36142da565b50505b505050506040513d6020811015611e1557600080611e126142da565b50505b8101908080519350506001600160a01b0383169150505a611e346143a0565b6001600160a01b031614611e975760405162461bcd60e51b815260206004820152601860248201527f6f6e6c792044414f206164647265737320616c6c6f7765640000000000000000604482015260640160405180910390611e946142da565b50505b8260a1600181611ea5614345565b816001600160a01b0302191690836001600160a01b0316021790611ec7614629565b5050507f63fb64c359a4cae97e1bf003c1ab11390b5f0e18cc5b3d67b90bd61c0f5c52fd835a611ef56143a0565b6040516001600160a01b039283168152911660208201526040908101905180910390a150600192915050565b609f611163614345565b60006097611f37614345565b906101000a90046001600160a01b03166001600160a01b03165a611f596143a0565b6001600160a01b031614611fab5760405162461bcd60e51b815260206004820152600c60248201526b37b7363c9036b0b730b3b2b960a11b604482015260640160405180910390611fa86142da565b50505b6000609b600181611fba614345565b816001600160a01b0302191690836001600160a01b0316021790611fdc614629565b505050565b600080611fec61228a565b90506000611ff8610ef3565b90506120048282613b66565b9250505090565b6060606980612018614345565b600181600116156101000203166002900480601f016020809104026020016040519081016040528181529190602083018280612052614345565b60018160011615610100020316600290048015610e0b5780601f1061207e576101008083610dcb614345565b820191906000526020600020905b81612095614345565b8152906001019060200180831161208c57509395945050505050565b60606099806120be614345565b8060200260200160405190810160405281815291906020830182806120e1614345565b8015610e0b57602002820191906000526020600020905b600082612103614345565b906101000a90046001600160a01b03166001600160a01b0316815260200190600101908083116120f8575050505050905090565b6000609980612144614345565b91505090565b6000610e29612157612f35565b8461113c856040516060810160405260258082526148a560208301396066600061217f612f35565b6001600160a01b03166001600160a01b031681526020019081526020016000206001600160a01b038a16600090815260209190915260409020611135614345565b600060976121cc614345565b906101000a90046001600160a01b03166001600160a01b03165a6121ee6143a0565b6001600160a01b0316146122405760405162461bcd60e51b815260206004820152600c60248201526b37b7363c9036b0b730b3b2b960a11b60448201526064016040518091039061223d6142da565b50505b80609b60018161224e614345565b816001600160a01b0302191690836001600160a01b0316021790612270614629565b50505050565b6000610e29612283612f35565b84846131e9565b600080808060a1612299614345565b906101000a90046001600160a01b031690506060816001600160a01b031663e5406dbf6040518163ffffffff1660e01b815260040160006040518083038186806122e16143e6565b1580156122f6576000806122f36142da565b50505b505a612300614432565b505050505015801561231f573d6000803e3d600061231c6142da565b50505b505050506040513d6000823e601f3d908101601f1916820160405260208110156123515760008061234e6142da565b50505b8101908080516040519392919084600160201b821115612379576000806123766142da565b50505b908301906020820185811115612397576000806123946142da565b50505b82518660208202830111600160201b821117156123bc576000806123b96142da565b50505b825250602001908051906020019060200280838360005b838110156123eb5780820151838201526020016123d3565b50505050905001604052505050905060008151905060005b818110156124db576124d1846001600160a01b0316630499123f85848151811061242957fe5b60200260200101516040516001600160e01b031960e084901b168152600481019190915260240160206040518083038186806124636143e6565b158015612478576000806124756142da565b50505b505a612482614432565b50505050501580156124a1573d6000803e3d600061249e6142da565b50505b505050506040513d60208110156124c0576000806124bd6142da565b50505b810190808051899350915050613a1a565b9450600101612403565b5092935050505090565b60006124ef611adb565b6001600160a01b03165a6125016143a0565b6001600160a01b0316148061252957506014609b61251d614345565b906101000a900460ff16155b8061254057506125405a61253b6143a0565b6129dd565b6125905760405162461bcd60e51b81526020600482015260146024820152731bdb9b1e481b595b58995c9cc8185b1b1bddd95960621b60448201526064016040518091039061258d6142da565b50505b5a6125996145e3565b60a060005a6125a66143a0565b6001600160a01b03166001600160a01b0316815260200190815260200160002081906125d0614629565b5050506125db613427565b60006125e561228a565b905060006125f1610ef3565b905060008060a1612600614345565b906101000a90046001600160a01b03169050806001600160a01b0316633ded6530631cd554d160e21b6040516001600160e01b031960e084901b1681526004810191909152602401602060405180830381868061265b6143e6565b1580156126705760008061266d6142da565b50505b505a61267a614432565b5050505050158015612699573d6000803e3d60006126966142da565b50505b505050506040513d60208110156126b8576000806126b56142da565b50505b8101908080516001600160a01b031692506323b872dd9150505a6126da6143a0565b5a63996d79a5598160e01b8152602081600483336000905af158600e01573d6000803e3d6000fd5b3d6001141558600a015760016000f35b8051925060005b604081101561273057600082820152602001612719565b505050886040516001600160e01b031960e086901b1681526001600160a01b0393841660048201529190921660248201526044810191909152606401602060405180830381600087806127816143e6565b158015612796576000806127936142da565b50505b505a6127a061451d565b5050505050501580156127c0573d6000803e3d60006127bd6142da565b50505b505050506040513d60208110156127df576000806127dc6142da565b50505b810190808051925061283b9150505760405162461bcd60e51b81526020600482015260156024820152741d1bdad95b881d1c985b9cd9995c8819985a5b1959605a1b6044820152606401604051809103906128386142da565b50505b60008215612858576128518461125a8886613858565b905061285b565b50845b61286d5a6128676143a0565b82613b96565b7f87fdcba84e083ebb8fd661bbafee3eb38764ec6f0cbeea8ed52deffa67bd45dc5a63996d79a5598160e01b8152602081600483336000905af158600e01573d6000803e3d6000fd5b3d6001141558600a015760016000f35b8051925060005b60408110156128e4576000828201526020016128cd565b5050505a6128f06143a0565b88846128fe5a6111736143a0565b6129088a8d613a1a565b6129128a89613a1a565b5a61291b6145e3565b6040516001600160a01b0398891681529690971660208701526040808701959095526060860193909352608085019190915260a084015260c083015260e082019290925261010001905180910390a195945050505050565b60008061297e611947565b6001600160a01b038416600090815260a06020529091506129a58260408320611849614345565b90505a6129b06145e3565b8110156129c257600092505050611d62565b6129d55a6129ce6145e3565b8290613caf565b949350505050565b6001600160a01b0381166000908152609a602052604081206129fd614345565b151592915050565b6000609e610d45614345565b60006097612a1d614345565b906101000a90046001600160a01b03166001600160a01b03165a612a3f6143a0565b6001600160a01b031614612a915760405162461bcd60e51b815260206004820152600c60248201526b37b7363c9036b0b730b3b2b960a11b604482015260640160405180910390612a8e6142da565b50505b612a9a816129dd565b15612aa457610ece565b610ece81613ada565b612ab5613427565b565b60016000612ac3614345565b906101000a900460ff1680612adb5750612adb613cef565b80612af85750600080612aec614345565b906101000a900460ff16155b612b3c5760405162461bcd60e51b815260040180806020018281038252602e81526020018061480d602e913960400191505060405180910390612b396142da565b50505b6000600181612b49614345565b906101000a900460ff161590508015612baf576001600061010081612b6c614345565b8160ff02191690831515021790612b81614629565b50505060016000806101000a81612b96614345565b8160ff02191690831515021790612bab614629565b5050505b612bb98484613d60565b612bc38686613e94565b87609e600181612bd1614345565b816001600160a01b0302191690836001600160a01b0316021790612bf3614629565b505050612bff87613a79565b5a612c086143a0565b609c600181612c15614345565b816001600160a01b0302191690836001600160a01b0316021790612c37614629565b5050505a612c436145e3565b80609d612c4e614629565b505050670de0b6b3a7640000609f8190612c66614629565b5050508160a160006101000a81612c7b614345565b816001600160a01b0302191690836001600160a01b0316021790612c9d614629565b5050508015612cce5760008061010081612cb5614345565b8160ff02191690831515021790612cca614629565b5050505b5050505050505050565b609d611163614345565b6001600160a01b03821660009081526066602052604081206001600160a01b038316600090815260209190915260409020612d1b614345565b9392505050565b600080612d2d61228a565b90506000612d39610ef3565b905060008080609e612d49614345565b906101000a90046001600160a01b03166001600160a01b031663b7a545265a63996d79a5598160e01b8152602081600483336000905af158600e01573d6000803e3d6000fd5b3d6001141558600a015760016000f35b8051925060005b6040811015612dbd57600082820152602001612da6565b5050506040516001600160e01b031960e084901b1681526001600160a01b03909116600482015260240160408051808303818680612df96143e6565b158015612e0e57600080612e0b6142da565b50505b505a612e18614432565b5050505050158015612e37573d6000803e3d6000612e346142da565b50505b505050506040513d6040811015612e5657600080612e536142da565b50505b8101908080519291906020018051939550929350612e869250869150859050609f612e7f614345565b8585613edb565b94505050505090565b6060609880612e9c614345565b600181600116156101000203166002900480601f016020809104026020016040519081016040528181529190602083018280612ed6614345565b60018160011615610100020316600290048015610e0b5780601f10612f02576101008083610dcb614345565b820191906000526020600020905b81612f19614345565b81529060010190602001808311612f1057509395945050505050565b60005a610eff6143a0565b6001600160a01b038316612f8e5760405162461bcd60e51b81526004018080602001828103825260248152602001806148816024913960400191505060405180910390612f8b6142da565b50505b6001600160a01b038216612fdc5760405162461bcd60e51b815260040180806020018281038252602281526020018061477c6022913960400191505060405180910390612fd96142da565b50505b6001600160a01b038316600090815260666020528190604090206001600160a01b0384166000908152602091909152604090208190613019614629565b505050816001600160a01b0316836001600160a01b03167f8c5be1e5ebec7d5bd14f71427d1e84f3dd0314c0f7b2291e5b200ac8c7c3b9258360405190815260200160405180910390a3505050565b6000609980613075614345565b6001600160a01b0384166000908152609a60205290925090506130a560016040832061309f614345565b90613caf565b9050600060996130b6846001613caf565b816130bf614345565b81106130c757fe5b906000526020600020016000906130dc614345565b906101000a90046001600160a01b0316905080609983816130fb614345565b811061310357fe5b90600052602060002001600181613118614345565b816001600160a01b0302191690836001600160a01b031602179061313a614629565b5061314a91508390506001613a1a565b6001600160a01b0382166000908152609a60205260409020819061316c614629565b5050506001600160a01b0384166000908152609a602052604081208190613191614629565b50505060998061319f614345565b806131a657fe5b600190038181906000526020600020016001816131c1614345565b906001600160a01b03021916906131d6614629565b5050906131e1614629565b505050505050565b6001600160a01b0383166132375760405162461bcd60e51b815260040180806020018281038252602581526020018061485c60259139604001915050604051809103906132346142da565b50505b6001600160a01b0382166132855760405162461bcd60e51b815260040180806020018281038252602381526020018061473760239139604001915050604051809103906132826142da565b50505b613290838383613f4c565b6132cb8160405160608101604052602680825261479e60208301396001600160a01b0386166000908152606560205260409020611135614345565b6001600160a01b038416600090815260656020526040902081906132ed614629565b5050506001600160a01b0382166000908152606560205261331690829060409020611849614345565b6001600160a01b03831660009081526065602052604090208190613338614629565b505050816001600160a01b0316836001600160a01b03167fddf252ad1be2c89b69c2b068fc378daa952ba7f163c4a11628f55a4df523b3ef8360405190815260200160405180910390a3505050565b6000818484111561341f5760405162461bcd60e51b81526004018080602001828103825283818151815260200191508051906020019080838360005b838110156133db5780820151838201526020016133c3565b50505050905090810190601f1680156134085780820380516001836020036101000a031916815260200191505b50925050506040518091039061341c6142da565b50505b505050900390565b600061343161228a565b9050600061343d610ef3565b905060008080609e61344d614345565b906101000a90046001600160a01b03166001600160a01b031663b7a545265a63996d79a5598160e01b8152602081600483336000905af158600e01573d6000803e3d6000fd5b3d6001141558600a015760016000f35b8051925060005b60408110156134c1576000828201526020016134aa565b5050506040516001600160e01b031960e084901b1681526001600160a01b039091166004820152602401604080518083038186806134fd6143e6565b1580156135125760008061350f6142da565b50505b505a61351c614432565b505050505015801561353b573d6000803e3d60006135386142da565b50505b505050506040513d604081101561355a576000806135576142da565b50505b81019080805192919060200180519395509293506000925061358c915086905085609f613585614345565b8686613edb565b905060648110156135a1575050505050612ab5565b600080609e6135ae614345565b906101000a90046001600160a01b03166001600160a01b0316631d68702d6040518163ffffffff1660e01b815260040160206040518083038186806135f16143e6565b158015613606576000806136036142da565b50505b505a613610614432565b505050505015801561362f573d6000803e3d600061362c6142da565b50505b505050506040513d602081101561364e5760008061364b6142da565b50505b810190808051935060009250829150819050609e61366a614345565b906101000a90046001600160a01b03166001600160a01b0316639cada6e46040518163ffffffff1660e01b8152600401604080518083038186806136ac6143e6565b1580156136c1576000806136be6142da565b50505b505a6136cb614432565b50505050501580156136ea573d6000803e3d60006136e76142da565b50505b505050506040513d6040811015613709576000806137066142da565b50505b810190808051929190602001805193955092935060009250613733915083905061125a8786613858565b905060006137418683613caf565b90508115613753576137538583613b96565b801561376457613764612867611adb565b61376e8a8a613b66565b80609f613779614629565b5050507f755a8059d66d8d243bc9f6913f429a811f154599d0538bb0b6a2ac23f23d2ccd5a63996d79a5598160e01b8152602081600483336000905af158600e01573d6000803e3d6000fd5b3d6001141558600a015760016000f35b8051925060005b60408110156137f3576000828201526020016137dc565b5050506137fe611adb565b888585609f61380b614345565b6040516001600160a01b0396871681529490951660208501526040808501939093526060840191909152608083015260a082019290925260c001905180910390a150505050505050505050565b60008261386757506000610e2d565b8282028284828161387457fe5b0414612d1b5760405162461bcd60e51b81526004018080602001828103825260218152602001806147c460219139604001915050604051809103906138b76142da565b50509392505050565b6000612d1b838360405160408082019052601a81527f536166654d6174683a206469766973696f6e206279207a65726f0000000000006020820152613fb0565b6001600160a01b03821661394e5760405162461bcd60e51b815260040180806020018281038252602181526020018061483b602191396040019150506040518091039061394b6142da565b50505b61395a82600083613f4c565b6139958160405160608101604052602280825261475a60208301396001600160a01b0385166000908152606560205260409020611135614345565b6001600160a01b038316600090815260656020526040902081906139b7614629565b5050506139c881606761309f614345565b8060676139d3614629565b5060009150506001600160a01b0383167fddf252ad1be2c89b69c2b068fc378daa952ba7f163c4a11628f55a4df523b3ef8360405190815260200160405180910390a35050565b600082820183811015612d1b5760405162461bcd60e51b815260206004820152601b60248201527f536166654d6174683a206164646974696f6e206f766572666c6f7700000000006044820152606401604051809103906138b76142da565b80609b600160a01b81613a8a614345565b8160ff02191690831515021790613a9f614629565b5050507f8d75e9ede4188432084b863d70b3416010c97547dfeb4fc17734d2e997ee0f3981604051901515815260200160405180910390a150565b80609980600181613ae9614345565b018082613af4614629565b505060009283526000190191602091502001600181613b11614345565b816001600160a01b0302191690836001600160a01b0316021790613b33614629565b505050609980613b41614345565b6001600160a01b0383166000908152609a602052909150604090208190612270614629565b6000811580613b73575082155b15613b8057506000610e2d565b612d1b8261125a85670de0b6b3a7640000613858565b6001600160a01b038216613bf95760405162461bcd60e51b815260206004820152601f60248201527f45524332303a206d696e7420746f20746865207a65726f206164647265737300604482015260640160405180910390613bf66142da565b50505b613c0560008383613f4c565b613c13816067611849614345565b806067613c1e614629565b5050506001600160a01b03821660009081526065602052613c4790829060409020611849614345565b6001600160a01b03831660009081526065602052604090208190613c69614629565b5050506001600160a01b03821660007fddf252ad1be2c89b69c2b068fc378daa952ba7f163c4a11628f55a4df523b3ef8360405190815260200160405180910390a35050565b6000612d1b838360405160408082019052601e81527f536166654d6174683a207375627472616374696f6e206f766572666c6f7700006020820152613387565b6000805a63996d79a5598160e01b8152602081600483336000905af158600e01573d6000803e3d6000fd5b3d6001141558600a015760016000f35b8051925060005b6040811015613d4857600082820152602001613d31565b5050509050600081613d586143e6565b159250505090565b60016000613d6c614345565b906101000a900460ff1680613d845750613d84613cef565b80613da15750600080613d95614345565b906101000a900460ff16155b613de55760405162461bcd60e51b815260040180806020018281038252602e81526020018061480d602e913960400191505060405180910390613de26142da565b50505b6000600181613df2614345565b906101000a900460ff161590508015613e58576001600061010081613e15614345565b8160ff02191690831515021790613e2a614629565b50505060016000806101000a81613e3f614345565b8160ff02191690831515021790613e54614629565b5050505b613e6061405b565b613e6a838361417d565b8015611fdc5760008061010081613e7f614345565b8160ff021916908315150217906131e1614629565b816097600181613ea2614345565b816001600160a01b0302191690836001600160a01b0316021790613ec4614629565b505050806098908051611fdc929160200190614677565b6000841580613ee8575085155b15613ef557506000613f43565b6000613f0d8661125a89670de0b6b3a7640000613858565b9050848111613f20576000915050613f43565b6000613f3e8261125a868189613f388d81878f613caf565b90613858565b925050505b95945050505050565b613f57838383611fdc565b613f6083612973565b15611fdc5760405162461bcd60e51b815260206004820152600f60248201526e636f6f6c646f776e2061637469766560881b604482015260640160405180910390613fa96142da565b5050505050565b600081836140455760405162461bcd60e51b81526004018080602001828103825283818151815260200191508051906020019080838360005b83811015614001578082015183820152602001613fe9565b50505050905090810190601f16801561402e5780820380516001836020036101000a031916815260200191505b5092505050604051809103906140426142da565b50505b50600083858161405157fe5b0495945050505050565b60016000614067614345565b906101000a900460ff168061407f575061407f613cef565b8061409c5750600080614090614345565b906101000a900460ff16155b6140e05760405162461bcd60e51b815260040180806020018281038252602e81526020018061480d602e9139604001915050604051809103906140dd6142da565b50505b60006001816140ed614345565b906101000a900460ff161590508015614153576001600061010081614110614345565b8160ff02191690831515021790614125614629565b50505060016000806101000a8161413a614345565b8160ff0219169083151502179061414f614629565b5050505b8015610ece5760008061010081614168614345565b8160ff02191690831515021790612270614629565b60016000614189614345565b906101000a900460ff16806141a157506141a1613cef565b806141be57506000806141b2614345565b906101000a900460ff16155b6142025760405162461bcd60e51b815260040180806020018281038252602e81526020018061480d602e9139604001915050604051809103906141ff6142da565b50505b600060018161420f614345565b906101000a900460ff161590508015614275576001600061010081614232614345565b8160ff02191690831515021790614247614629565b50505060016000806101000a8161425c614345565b8160ff02191690831515021790614271614629565b5050505b6068838051614288929160200190614677565b50606982805161429c929160200190614677565b506012606a6001816142ac614345565b8160ff021916908360ff160217906142c2614629565b5050508015611fdc5760008061010081613e7f614345565b632a2a7adb598160e01b8152600481016020815285602082015260005b868110156143125780860151828201604001526020016142f7565b506020828760640184336000905af158600e01573d6000803e3d6000fd5b3d6001141558600a015760016000f35b505050565b6303daa959598160e01b8152836004820152602081602483336000905af158600e01573d6000803e3d6000fd5b3d6001141558600a015760016000f35b8051935060005b6040811015611fdc57600082820152602001614389565b6373509064598160e01b8152602081600483336000905af158600e01573d6000803e3d6000fd5b3d6001141558600a015760016000f35b80516000825293506020614389565b638435035b598160e01b8152836004820152602081602483336000905af158600e01573d6000803e3d6000fd5b3d6001141558600a015760016000f35b80516000825293506020614389565b638540661f598160e01b8152614463565b8080831115610e2d575090919050565b8080831015610e2d575090919050565b836004820152846024820152606060448201528660648201526084810160005b8881101561449b578088015182820152602001614483565b506060828960a40184336000905af158600e01573d6000803e3d6000fd5b3d6001141558600a015760016000f35b815160408301513d6000853e8b8b82606087013350600060045af150596144f08d3d614453565b8c016144fc8187614443565b5b8281101561451157600081526020016144fd565b50929c50505050505050565b6385979f76598160e01b8152836004820152846024820152606060448201528760648201526084810160005b89811015614561578089015182820152602001614549565b506060828a60a40184336000905af158600e01573d6000803e3d6000fd5b3d6001141558600a015760016000f35b815160408301513d6000853e8c8c82606087013350600060045af150596145b68e3d614453565b8d016145c28187614443565b5b828110156145d757600081526020016145c3565b50929d50505050505050565b63bdbf8c36598160e01b8152602081600483336000905af158600e01573d6000803e3d6000fd5b3d6001141558600a015760016000f35b80516000825293506020614389565b6322bd64c0598160e01b8152836004820152846024820152600081604483336000905af158600e01573d6000803e3d6000fd5b3d6001141558600a015760016000f35b600081526020614389565b8280614681614345565b600181600116156101000203166002900490600052602060002090601f016020900481019282601f106146c857805160ff191683800117856146c1614629565b5050614707565b828001600101856146d7614629565b50508215614707579182015b82811115614707578251826146f6614629565b5050916020019190600101906146e3565b50614713929150614717565b5090565b80821115614713576000808261472b614629565b50505060010161471756fe45524332303a207472616e7366657220746f20746865207a65726f206164647265737345524332303a206275726e20616d6f756e7420657863656564732062616c616e636545524332303a20617070726f766520746f20746865207a65726f206164647265737345524332303a207472616e7366657220616d6f756e7420657863656564732062616c616e6365536166654d6174683a206d756c7469706c69636174696f6e206f766572666c6f7745524332303a207472616e7366657220616d6f756e74206578636565647320616c6c6f77616e6365436f6e747261637420696e7374616e63652068617320616c7265616479206265656e20696e697469616c697a656445524332303a206275726e2066726f6d20746865207a65726f206164647265737345524332303a207472616e736665722066726f6d20746865207a65726f206164647265737345524332303a20617070726f76652066726f6d20746865207a65726f206164647265737345524332303a2064656372656173656420616c6c6f77616e63652062656c6f77207a65726f",
  "deployedBytecode": "0x6080604052348015610019576000806100166142da565b50505b50600436106102725760003560e01c8063750226de1161015a578063b6b55f25116100cc578063cc3c6df611610090578063cc3c6df614610ab1578063cdfa79d214610ab9578063d8270dce14610cea578063dd62ed3e14610cf2578063edbf6f5014610d29578063fed4416a14610d3157610272565b8063b6b55f25146109f6578063b8ea2b6e14610a1c578063bbbf725b14610a4b578063c45a015514610a7a578063ca6d56dc14610a8257610272565b80639eab52531161011e5780639eab5253146108f2578063a30e3fa91461094d578063a457c2d714610955578063a6bc18f91461098a578063a9059cbb146109b9578063ad60ffcc146109ee57610272565b8063750226de146108a35780637714f39d146108d25780637c8afd51146108da5780637ff9b596146108e257806395d89b41146108ea57610272565b80632e1a7d4d116101f357806346ee84b0116101b757806346ee84b014610603578063481c6a75146106c857806352213663146106d057806359b5e75e146107a75780636f4d469b146107af57806370a082311461087457610272565b80632e1a7d4d1461055a578063313ce56714610580578063395093511461059e5780633babaad5146105d35780634501b088146105fb57610272565b806318160ddd1161023a57806318160ddd146103a55780631c5918d2146103bf5780631e50a4a6146104e457806323b872dd146104ec57806329d16ee81461052b57610272565b806302d05d3f1461028057806306fdde03146102a4578063095ea7b3146103235780630b1ca49a1461036c5780631758078b1461039d575b60008061027d6142da565b50505b610288610d39565b6040516001600160a01b03909116815260200160405180910390f35b6102ac610d58565b60405160208082528190810183818151815260200191508051906020019080838360005b838110156102e85780820151838201526020016102d0565b50505050905090810190601f1680156103155780820380516001836020036101000a031916815260200191505b509250505060405180910390f35b610358600480360360408110156103425760008061033f6142da565b50505b506001600160a01b038135169060200135610e15565b604051901515815260200160405180910390f35b61039b6004803603602081101561038b576000806103886142da565b50505b50356001600160a01b0316610e33565b005b610288610ed1565b6103ad610ef3565b60405190815260200160405180910390f35b6103c7610f04565b60405180806020018a8152602001898152602001886001600160a01b0316815260200180602001878152602001861515815260200185815260200184815260200183810383528c818151815260200191508051906020019080838360005b8381101561043d578082015183820152602001610425565b50505050905090810190601f16801561046a5780820380516001836020036101000a031916815260200191505b50838103825288818151815260200191508051906020019080838360005b838110156104a0578082015183820152602001610488565b50505050905090810190601f1680156104cd5780820380516001836020036101000a031916815260200191505b509b50505050505050505050505060405180910390f35b6102886110ab565b6103586004803603606081101561050b576000806105086142da565b50505b506001600160a01b038135811691602081013590911690604001356110b7565b6103ad6004803603602081101561054a576000806105476142da565b50505b50356001600160a01b031661114b565b61039b60048036036020811015610579576000806105766142da565b50505b5035611166565b6105886117ce565b60405160ff909116815260200160405180910390f35b610358600480360360408110156105bd576000806105ba6142da565b50505b506001600160a01b0381351690602001356117ea565b61039b600480360360208110156105f2576000806105ef6142da565b50505b5035151561184f565b6103ad611947565b61039b600480360360208110156106225760008061061f6142da565b50505b810190602081018135600160201b811115610645576000806106426142da565b50505b8201836020820111156106605760008061065d6142da565b50505b803590602001918460208302840111600160201b8311171561068a576000806106876142da565b50505b919080806020026020016040519081016040528093929190818152602001838360200280828437600092019190915250929550611a02945050505050565b610288611adb565b61039b600480360360408110156106ef576000806106ec6142da565b50505b6001600160a01b038235169190810190604081016020820135600160201b8111156107225760008061071f6142da565b50505b82018360208201111561073d5760008061073a6142da565b50505b803590602001918460018302840111600160201b83111715610767576000806107646142da565b50505b91908080601f0160208091040260200160405190810160405281815292919060208401838380828437600092019190915250929550611ae8945050505050565b610358611c5d565b61039b600480360360208110156107ce576000806107cb6142da565b50505b810190602081018135600160201b8111156107f1576000806107ee6142da565b50505b82018360208201111561080c576000806108096142da565b50505b803590602001918460208302840111600160201b83111715610836576000806108336142da565b50505b919080806020026020016040519081016040528093929190818152602001838360200280828437600092019190915250929550611c76945050505050565b6103ad60048036036020811015610893576000806108906142da565b50505b50356001600160a01b0316611d3f565b610358600480360360208110156108c2576000806108bf6142da565b50505b50356001600160a01b0316611d67565b6103ad611f21565b61039b611f2b565b6103ad611fe1565b6102ac61200b565b6108fa6120b1565b60405160208082528190810183818151815260200191508051906020019060200280838360005b83811015610939578082015183820152602001610921565b505050509050019250505060405180910390f35b6103ad612137565b61035860048036036040811015610974576000806109716142da565b50505b506001600160a01b03813516906020013561214a565b61039b600480360360208110156109a9576000806109a66142da565b50505b50356001600160a01b03166121c0565b610358600480360360408110156109d8576000806109d56142da565b50505b506001600160a01b038135169060200135612276565b6103ad61228a565b6103ad60048036036020811015610a1557600080610a126142da565b50505b50356124e5565b6103ad60048036036020811015610a3b57600080610a386142da565b50505b50356001600160a01b0316612973565b61035860048036036020811015610a6a57600080610a676142da565b50505b50356001600160a01b03166129dd565b610288612a05565b61039b60048036036020811015610aa157600080610a9e6142da565b50505b50356001600160a01b0316612a11565b61039b612aad565b61039b600480360360e0811015610ad857600080610ad56142da565b50505b6001600160a01b0382358116926020810135151592604082013590921691810190608081016060820135600160201b811115610b1c57600080610b196142da565b50505b820183602082011115610b3757600080610b346142da565b50505b803590602001918460018302840111600160201b83111715610b6157600080610b5e6142da565b50505b91908080601f01602080910402602001604051908101604052818152929190602084018383808284376000920191909152509295949360208101935035915050600160201b811115610bbb57600080610bb86142da565b50505b820183602082011115610bd657600080610bd36142da565b50505b803590602001918460018302840111600160201b83111715610c0057600080610bfd6142da565b50505b91908080601f01602080910402602001604051908101604052818152929190602084018383808284376000920191909152509295949360208101935035915050600160201b811115610c5a57600080610c576142da565b50505b820183602082011115610c7557600080610c726142da565b50505b803590602001918460018302840111600160201b83111715610c9f57600080610c9c6142da565b50505b91908080601f0160208091040260200160405190810160405281815292919060208401838380828437600092019190915250929550505090356001600160a01b03169150612ab79050565b6103ad612cd8565b6103ad60048036036040811015610d1157600080610d0e6142da565b50505b506001600160a01b0381358116916020013516612ce2565b6103ad612d22565b6102ac612e8f565b6000609c610d45614345565b906101000a90046001600160a01b031681565b6060606880610d65614345565b600181600116156101000203166002900480601f016020809104026020016040519081016040528181529190602083018280610d9f614345565b60018160011615610100020316600290048015610e0b5780601f10610dd9576101008083610dcb614345565b040283529160200191610e0b565b820191906000526020600020905b81610df0614345565b81529060010190602001808311610de757829003601f168201915b5050505050905090565b6000610e29610e22612f35565b8484612f40565b5060015b92915050565b60006097610e3f614345565b906101000a90046001600160a01b03166001600160a01b03165a610e616143a0565b6001600160a01b031614610eb35760405162461bcd60e51b815260206004820152600c60248201526b37b7363c9036b0b730b3b2b960a11b604482015260640160405180910390610eb06142da565b50505b610ebc816129dd565b610ec557610ece565b610ece81613068565b50565b600080609b610ede614345565b906101000a90046001600160a01b0316905090565b60006067610eff614345565b905090565b6060600080808381808080808080609e610f1c614345565b906101000a90046001600160a01b03166001600160a01b031663b7a545265a63996d79a5598160e01b8152602081600483336000905af158601d01573d60011458600c01573d6000803e3d621234565260ea61109c528051925060005b6040811015610f9057600082820152602001610f79565b5050506040516001600160e01b031960e084901b1681526001600160a01b03909116600482015260240160408051808303818680610fcc6143e6565b158015610fe157600080610fde6142da565b50505b505a610feb614432565b505050505015801561100a573d6000803e3d60006110076142da565b50505b505050506040513d6040811015611029576000806110266142da565b50505b810190808051929190602001805193955092935061104a9250610d58915050565b611052610ef3565b61105a61228a565b611062611adb565b61106a612e8f565b609d611074614345565b6014609b611080614345565b906101000a900460ff1688889a509a509a509a509a509a509a509a509a505050909192939495969798565b600060a1610d45614345565b60006110c48484846131e9565b611141846110d0612f35565b61113c856040516060810160405260288082526147e560208301396001600160a01b038a166000908152606660205260409020600061110d612f35565b6001600160a01b03166001600160a01b03168152602001908152602001600020611135614345565b9190613387565b612f40565b5060019392505050565b60a06020528060005260406000209050611163614345565b81565b806111785a6111736143a0565b611d3f565b10156111ca5760405162461bcd60e51b8152602060048201526014602482015273696e73756666696369656e742062616c616e636560601b6044820152606401604051809103906111c76142da565b50505b6111db5a6111d66143a0565b612973565b156112275760405162461bcd60e51b815260206004820152600f60248201526e636f6f6c646f776e2061637469766560881b6044820152606401604051809103906112246142da565b50505b61122f613427565b600061123961228a565b90506000611260611248610ef3565b61125a85670de0b6b3a7640000613858565b906138c0565b90506112745a61126e6143a0565b84613900565b60008060a1611281614345565b906101000a90046001600160a01b031690506060816001600160a01b031663e5406dbf6040518163ffffffff1660e01b815260040160006040518083038186806112c96143e6565b1580156112de576000806112db6142da565b50505b505a6112e8614432565b5050505050158015611307573d6000803e3d60006113046142da565b50505b505050506040513d6000823e601f3d908101601f191682016040526020811015611339576000806113366142da565b50505b8101908080516040519392919084600160201b8211156113615760008061135e6142da565b50505b90830190602082018581111561137f5760008061137c6142da565b50505b82518660208202830111600160201b821117156113a4576000806113a16142da565b50505b825250602001908051906020019060200280838360005b838110156113d35780820151838201526020016113bb565b50505050905001604052505050905060008151905060005b818110156116b1576000846001600160a01b0316633ded653085848151811061141057fe5b60200260200101516040516001600160e01b031960e084901b1681526004810191909152602401602060405180830381868061144a6143e6565b15801561145f5760008061145c6142da565b50505b505a611469614432565b5050505050158015611488573d6000803e3d60006114856142da565b50505b505050506040513d60208110156114a7576000806114a46142da565b50505b810190808051935060009250506001600160a01b03831690506370a082315a63996d79a5598160e01b8152602081600483336000905af158601d01573d60011458600c01573d6000803e3d621234565260ea61109c528051925060005b604081101561151b57600082820152602001611504565b5050506040516001600160e01b031960e084901b1681526001600160a01b03909116600482015260240160206040518083038186806115586143e6565b15801561156d5760008061156a6142da565b50505b505a611577614432565b5050505050158015611596573d6000803e3d60006115936142da565b50505b505050506040513d60208110156115b5576000806115b26142da565b50505b8101908080519350600092506115db9150670de0b6b3a7640000905061125a848b613858565b905080156116a657826001600160a01b031663a9059cbb5a6115fb6143a0565b836040516001600160e01b031960e085901b1681526001600160a01b03909216600483015260248201526044016020604051808303816000878061163d6143e6565b1580156116525760008061164f6142da565b50505b505a61165c61451d565b50505050505015801561167c573d6000803e3d60006116796142da565b50505b505050506040513d602081101561169b576000806116986142da565b50505b810190808051505050505b5050506001016113eb565b5060006116ca670de0b6b3a764000061125a8789613858565b90507f79d44cc8beeed36226f14818b2ecaca7ef252bcd56c9ae35f5a86869dbdefb975a63996d79a5598160e01b8152602081600483336000905af158601d01573d60011458600c01573d6000803e3d621234565260ea61109c528051925060005b60408110156117435760008282015260200161172c565b5050505a61174f6143a0565b838a61175d5a6111736143a0565b61176561228a565b61176d610ef3565b5a6117766145e3565b6040516001600160a01b0398891681529690971660208701526040808701959095526060860193909352608085019190915260a084015260c083015260e082019290925261010001905180910390a150505050505050565b600080606a6117db614345565b906101000a900460ff16905090565b6000610e296117f7612f35565b8461113c8560666000611808612f35565b6001600160a01b03166001600160a01b031681526020019081526020016000206001600160a01b038916600090815260209190915260409020611849614345565b90613a1a565b6000609761185b614345565b906101000a90046001600160a01b03166001600160a01b03165a61187d6143a0565b6001600160a01b0316146118cf5760405162461bcd60e51b815260206004820152600c60248201526b37b7363c9036b0b730b3b2b960a11b6044820152606401604051809103906118cc6142da565b50505b8015156014609b6118de614345565b906101000a900460ff161515141561193e5760405162461bcd60e51b8152602060048201526016602482015275199b1859c81b5d5cdd08189948191a5999995c995b9d60521b60448201526064016040518091039061193b6142da565b50505b610ece81613a79565b600080609e611954614345565b906101000a90046001600160a01b03166001600160a01b0316634501b0886040518163ffffffff1660e01b815260040160206040518083038186806119976143e6565b1580156119ac576000806119a96142da565b50505b505a6119b6614432565b50505050501580156119d5573d6000803e3d60006119d26142da565b50505b505050506040513d60208110156119f4576000806119f16142da565b50505b810190808051935050505090565b60006097611a0e614345565b906101000a90046001600160a01b03166001600160a01b03165a611a306143a0565b6001600160a01b031614611a825760405162461bcd60e51b815260206004820152600c60248201526b37b7363c9036b0b730b3b2b960a11b604482015260640160405180910390611a7f6142da565b50505b60005b8151811015611ad757611aaa828281518110611a9d57fe5b60200260200101516129dd565b611ab357611acf565b611acf828281518110611ac257fe5b6020026020010151613068565b600101611a85565b5050565b6000806097610ede614345565b60006097611af4614345565b906101000a90046001600160a01b03166001600160a01b03165a611b166143a0565b6001600160a01b031614611b685760405162461bcd60e51b815260206004820152600c60248201526b37b7363c9036b0b730b3b2b960a11b604482015260640160405180910390611b656142da565b50505b816097600181611b76614345565b816001600160a01b0302191690836001600160a01b0316021790611b98614629565b505050806098908051611baf929160200190614677565b507f6ed15082ad038474841528b5badca105106d4463e44b5d434130dfb299aa366982826040516001600160a01b038316815260406020820181815290820183818151815260200191508051906020019080838360005b83811015611c1e578082015183820152602001611c06565b50505050905090810190601f168015611c4b5780820380516001836020036101000a031916815260200191505b50935050505060405180910390a15050565b6014609b611c69614345565b906101000a900460ff1681565b60006097611c82614345565b906101000a90046001600160a01b03166001600160a01b03165a611ca46143a0565b6001600160a01b031614611cf65760405162461bcd60e51b815260206004820152600c60248201526b37b7363c9036b0b730b3b2b960a11b604482015260640160405180910390611cf36142da565b50505b60005b8151811015611ad757611d11828281518110611a9d57fe5b15611d1b57611d37565b611d37828281518110611d2a57fe5b6020026020010151613ada565b600101611cf9565b6001600160a01b0381166000908152606560205260408120611d5f614345565b90505b919050565b60008080609e611d75614345565b906101000a90046001600160a01b03166001600160a01b0316631d68702d6040518163ffffffff1660e01b81526004016020604051808303818680611db86143e6565b158015611dcd57600080611dca6142da565b50505b505a611dd7614432565b5050505050158015611df6573d6000803e3d6000611df36142da565b50505b505050506040513d6020811015611e1557600080611e126142da565b50505b8101908080519350506001600160a01b0383169150505a611e346143a0565b6001600160a01b031614611e975760405162461bcd60e51b815260206004820152601860248201527f6f6e6c792044414f206164647265737320616c6c6f7765640000000000000000604482015260640160405180910390611e946142da565b50505b8260a1600181611ea5614345565b816001600160a01b0302191690836001600160a01b0316021790611ec7614629565b5050507f63fb64c359a4cae97e1bf003c1ab11390b5f0e18cc5b3d67b90bd61c0f5c52fd835a611ef56143a0565b6040516001600160a01b039283168152911660208201526040908101905180910390a150600192915050565b609f611163614345565b60006097611f37614345565b906101000a90046001600160a01b03166001600160a01b03165a611f596143a0565b6001600160a01b031614611fab5760405162461bcd60e51b815260206004820152600c60248201526b37b7363c9036b0b730b3b2b960a11b604482015260640160405180910390611fa86142da565b50505b6000609b600181611fba614345565b816001600160a01b0302191690836001600160a01b0316021790611fdc614629565b505050565b600080611fec61228a565b90506000611ff8610ef3565b90506120048282613b66565b9250505090565b6060606980612018614345565b600181600116156101000203166002900480601f016020809104026020016040519081016040528181529190602083018280612052614345565b60018160011615610100020316600290048015610e0b5780601f1061207e576101008083610dcb614345565b820191906000526020600020905b81612095614345565b8152906001019060200180831161208c57509395945050505050565b60606099806120be614345565b8060200260200160405190810160405281815291906020830182806120e1614345565b8015610e0b57602002820191906000526020600020905b600082612103614345565b906101000a90046001600160a01b03166001600160a01b0316815260200190600101908083116120f8575050505050905090565b6000609980612144614345565b91505090565b6000610e29612157612f35565b8461113c856040516060810160405260258082526148a560208301396066600061217f612f35565b6001600160a01b03166001600160a01b031681526020019081526020016000206001600160a01b038a16600090815260209190915260409020611135614345565b600060976121cc614345565b906101000a90046001600160a01b03166001600160a01b03165a6121ee6143a0565b6001600160a01b0316146122405760405162461bcd60e51b815260206004820152600c60248201526b37b7363c9036b0b730b3b2b960a11b60448201526064016040518091039061223d6142da565b50505b80609b60018161224e614345565b816001600160a01b0302191690836001600160a01b0316021790612270614629565b50505050565b6000610e29612283612f35565b84846131e9565b600080808060a1612299614345565b906101000a90046001600160a01b031690506060816001600160a01b031663e5406dbf6040518163ffffffff1660e01b815260040160006040518083038186806122e16143e6565b1580156122f6576000806122f36142da565b50505b505a612300614432565b505050505015801561231f573d6000803e3d600061231c6142da565b50505b505050506040513d6000823e601f3d908101601f1916820160405260208110156123515760008061234e6142da565b50505b8101908080516040519392919084600160201b821115612379576000806123766142da565b50505b908301906020820185811115612397576000806123946142da565b50505b82518660208202830111600160201b821117156123bc576000806123b96142da565b50505b825250602001908051906020019060200280838360005b838110156123eb5780820151838201526020016123d3565b50505050905001604052505050905060008151905060005b818110156124db576124d1846001600160a01b0316630499123f85848151811061242957fe5b60200260200101516040516001600160e01b031960e084901b168152600481019190915260240160206040518083038186806124636143e6565b158015612478576000806124756142da565b50505b505a612482614432565b50505050501580156124a1573d6000803e3d600061249e6142da565b50505b505050506040513d60208110156124c0576000806124bd6142da565b50505b810190808051899350915050613a1a565b9450600101612403565b5092935050505090565b60006124ef611adb565b6001600160a01b03165a6125016143a0565b6001600160a01b0316148061252957506014609b61251d614345565b906101000a900460ff16155b8061254057506125405a61253b6143a0565b6129dd565b6125905760405162461bcd60e51b81526020600482015260146024820152731bdb9b1e481b595b58995c9cc8185b1b1bddd95960621b60448201526064016040518091039061258d6142da565b50505b5a6125996145e3565b60a060005a6125a66143a0565b6001600160a01b03166001600160a01b0316815260200190815260200160002081906125d0614629565b5050506125db613427565b60006125e561228a565b905060006125f1610ef3565b905060008060a1612600614345565b906101000a90046001600160a01b03169050806001600160a01b0316633ded6530631cd554d160e21b6040516001600160e01b031960e084901b1681526004810191909152602401602060405180830381868061265b6143e6565b1580156126705760008061266d6142da565b50505b505a61267a614432565b5050505050158015612699573d6000803e3d60006126966142da565b50505b505050506040513d60208110156126b8576000806126b56142da565b50505b8101908080516001600160a01b031692506323b872dd9150505a6126da6143a0565b5a63996d79a5598160e01b8152602081600483336000905af158601d01573d60011458600c01573d6000803e3d621234565260ea61109c528051925060005b604081101561273057600082820152602001612719565b505050886040516001600160e01b031960e086901b1681526001600160a01b0393841660048201529190921660248201526044810191909152606401602060405180830381600087806127816143e6565b158015612796576000806127936142da565b50505b505a6127a061451d565b5050505050501580156127c0573d6000803e3d60006127bd6142da565b50505b505050506040513d60208110156127df576000806127dc6142da565b50505b810190808051925061283b9150505760405162461bcd60e51b81526020600482015260156024820152741d1bdad95b881d1c985b9cd9995c8819985a5b1959605a1b6044820152606401604051809103906128386142da565b50505b60008215612858576128518461125a8886613858565b905061285b565b50845b61286d5a6128676143a0565b82613b96565b7f87fdcba84e083ebb8fd661bbafee3eb38764ec6f0cbeea8ed52deffa67bd45dc5a63996d79a5598160e01b8152602081600483336000905af158601d01573d60011458600c01573d6000803e3d621234565260ea61109c528051925060005b60408110156128e4576000828201526020016128cd565b5050505a6128f06143a0565b88846128fe5a6111736143a0565b6129088a8d613a1a565b6129128a89613a1a565b5a61291b6145e3565b6040516001600160a01b0398891681529690971660208701526040808701959095526060860193909352608085019190915260a084015260c083015260e082019290925261010001905180910390a195945050505050565b60008061297e611947565b6001600160a01b038416600090815260a06020529091506129a58260408320611849614345565b90505a6129b06145e3565b8110156129c257600092505050611d62565b6129d55a6129ce6145e3565b8290613caf565b949350505050565b6001600160a01b0381166000908152609a602052604081206129fd614345565b151592915050565b6000609e610d45614345565b60006097612a1d614345565b906101000a90046001600160a01b03166001600160a01b03165a612a3f6143a0565b6001600160a01b031614612a915760405162461bcd60e51b815260206004820152600c60248201526b37b7363c9036b0b730b3b2b960a11b604482015260640160405180910390612a8e6142da565b50505b612a9a816129dd565b15612aa457610ece565b610ece81613ada565b612ab5613427565b565b60016000612ac3614345565b906101000a900460ff1680612adb5750612adb613cef565b80612af85750600080612aec614345565b906101000a900460ff16155b612b3c5760405162461bcd60e51b815260040180806020018281038252602e81526020018061480d602e913960400191505060405180910390612b396142da565b50505b6000600181612b49614345565b906101000a900460ff161590508015612baf576001600061010081612b6c614345565b8160ff02191690831515021790612b81614629565b50505060016000806101000a81612b96614345565b8160ff02191690831515021790612bab614629565b5050505b612bb98484613d60565b612bc38686613e94565b87609e600181612bd1614345565b816001600160a01b0302191690836001600160a01b0316021790612bf3614629565b505050612bff87613a79565b5a612c086143a0565b609c600181612c15614345565b816001600160a01b0302191690836001600160a01b0316021790612c37614629565b5050505a612c436145e3565b80609d612c4e614629565b505050670de0b6b3a7640000609f8190612c66614629565b5050508160a160006101000a81612c7b614345565b816001600160a01b0302191690836001600160a01b0316021790612c9d614629565b5050508015612cce5760008061010081612cb5614345565b8160ff02191690831515021790612cca614629565b5050505b5050505050505050565b609d611163614345565b6001600160a01b03821660009081526066602052604081206001600160a01b038316600090815260209190915260409020612d1b614345565b9392505050565b600080612d2d61228a565b90506000612d39610ef3565b905060008080609e612d49614345565b906101000a90046001600160a01b03166001600160a01b031663b7a545265a63996d79a5598160e01b8152602081600483336000905af158601d01573d60011458600c01573d6000803e3d621234565260ea61109c528051925060005b6040811015612dbd57600082820152602001612da6565b5050506040516001600160e01b031960e084901b1681526001600160a01b03909116600482015260240160408051808303818680612df96143e6565b158015612e0e57600080612e0b6142da565b50505b505a612e18614432565b5050505050158015612e37573d6000803e3d6000612e346142da565b50505b505050506040513d6040811015612e5657600080612e536142da565b50505b8101908080519291906020018051939550929350612e869250869150859050609f612e7f614345565b8585613edb565b94505050505090565b6060609880612e9c614345565b600181600116156101000203166002900480601f016020809104026020016040519081016040528181529190602083018280612ed6614345565b60018160011615610100020316600290048015610e0b5780601f10612f02576101008083610dcb614345565b820191906000526020600020905b81612f19614345565b81529060010190602001808311612f1057509395945050505050565b60005a610eff6143a0565b6001600160a01b038316612f8e5760405162461bcd60e51b81526004018080602001828103825260248152602001806148816024913960400191505060405180910390612f8b6142da565b50505b6001600160a01b038216612fdc5760405162461bcd60e51b815260040180806020018281038252602281526020018061477c6022913960400191505060405180910390612fd96142da565b50505b6001600160a01b038316600090815260666020528190604090206001600160a01b0384166000908152602091909152604090208190613019614629565b505050816001600160a01b0316836001600160a01b03167f8c5be1e5ebec7d5bd14f71427d1e84f3dd0314c0f7b2291e5b200ac8c7c3b9258360405190815260200160405180910390a3505050565b6000609980613075614345565b6001600160a01b0384166000908152609a60205290925090506130a560016040832061309f614345565b90613caf565b9050600060996130b6846001613caf565b816130bf614345565b81106130c757fe5b906000526020600020016000906130dc614345565b906101000a90046001600160a01b0316905080609983816130fb614345565b811061310357fe5b90600052602060002001600181613118614345565b816001600160a01b0302191690836001600160a01b031602179061313a614629565b5061314a91508390506001613a1a565b6001600160a01b0382166000908152609a60205260409020819061316c614629565b5050506001600160a01b0384166000908152609a602052604081208190613191614629565b50505060998061319f614345565b806131a657fe5b600190038181906000526020600020016001816131c1614345565b906001600160a01b03021916906131d6614629565b5050906131e1614629565b505050505050565b6001600160a01b0383166132375760405162461bcd60e51b815260040180806020018281038252602581526020018061485c60259139604001915050604051809103906132346142da565b50505b6001600160a01b0382166132855760405162461bcd60e51b815260040180806020018281038252602381526020018061473760239139604001915050604051809103906132826142da565b50505b613290838383613f4c565b6132cb8160405160608101604052602680825261479e60208301396001600160a01b0386166000908152606560205260409020611135614345565b6001600160a01b038416600090815260656020526040902081906132ed614629565b5050506001600160a01b0382166000908152606560205261331690829060409020611849614345565b6001600160a01b03831660009081526065602052604090208190613338614629565b505050816001600160a01b0316836001600160a01b03167fddf252ad1be2c89b69c2b068fc378daa952ba7f163c4a11628f55a4df523b3ef8360405190815260200160405180910390a3505050565b6000818484111561341f5760405162461bcd60e51b81526004018080602001828103825283818151815260200191508051906020019080838360005b838110156133db5780820151838201526020016133c3565b50505050905090810190601f1680156134085780820380516001836020036101000a031916815260200191505b50925050506040518091039061341c6142da565b50505b505050900390565b600061343161228a565b9050600061343d610ef3565b905060008080609e61344d614345565b906101000a90046001600160a01b03166001600160a01b031663b7a545265a63996d79a5598160e01b8152602081600483336000905af158601d01573d60011458600c01573d6000803e3d621234565260ea61109c528051925060005b60408110156134c1576000828201526020016134aa565b5050506040516001600160e01b031960e084901b1681526001600160a01b039091166004820152602401604080518083038186806134fd6143e6565b1580156135125760008061350f6142da565b50505b505a61351c614432565b505050505015801561353b573d6000803e3d60006135386142da565b50505b505050506040513d604081101561355a576000806135576142da565b50505b81019080805192919060200180519395509293506000925061358c915086905085609f613585614345565b8686613edb565b905060648110156135a1575050505050612ab5565b600080609e6135ae614345565b906101000a90046001600160a01b03166001600160a01b0316631d68702d6040518163ffffffff1660e01b815260040160206040518083038186806135f16143e6565b158015613606576000806136036142da565b50505b505a613610614432565b505050505015801561362f573d6000803e3d600061362c6142da565b50505b505050506040513d602081101561364e5760008061364b6142da565b50505b810190808051935060009250829150819050609e61366a614345565b906101000a90046001600160a01b03166001600160a01b0316639cada6e46040518163ffffffff1660e01b8152600401604080518083038186806136ac6143e6565b1580156136c1576000806136be6142da565b50505b505a6136cb614432565b50505050501580156136ea573d6000803e3d60006136e76142da565b50505b505050506040513d6040811015613709576000806137066142da565b50505b810190808051929190602001805193955092935060009250613733915083905061125a8786613858565b905060006137418683613caf565b90508115613753576137538583613b96565b801561376457613764612867611adb565b61376e8a8a613b66565b80609f613779614629565b5050507f755a8059d66d8d243bc9f6913f429a811f154599d0538bb0b6a2ac23f23d2ccd5a63996d79a5598160e01b8152602081600483336000905af158601d01573d60011458600c01573d6000803e3d621234565260ea61109c528051925060005b60408110156137f3576000828201526020016137dc565b5050506137fe611adb565b888585609f61380b614345565b6040516001600160a01b0396871681529490951660208501526040808501939093526060840191909152608083015260a082019290925260c001905180910390a150505050505050505050565b60008261386757506000610e2d565b8282028284828161387457fe5b0414612d1b5760405162461bcd60e51b81526004018080602001828103825260218152602001806147c460219139604001915050604051809103906138b76142da565b50509392505050565b6000612d1b838360405160408082019052601a81527f536166654d6174683a206469766973696f6e206279207a65726f0000000000006020820152613fb0565b6001600160a01b03821661394e5760405162461bcd60e51b815260040180806020018281038252602181526020018061483b602191396040019150506040518091039061394b6142da565b50505b61395a82600083613f4c565b6139958160405160608101604052602280825261475a60208301396001600160a01b0385166000908152606560205260409020611135614345565b6001600160a01b038316600090815260656020526040902081906139b7614629565b5050506139c881606761309f614345565b8060676139d3614629565b5060009150506001600160a01b0383167fddf252ad1be2c89b69c2b068fc378daa952ba7f163c4a11628f55a4df523b3ef8360405190815260200160405180910390a35050565b600082820183811015612d1b5760405162461bcd60e51b815260206004820152601b60248201527f536166654d6174683a206164646974696f6e206f766572666c6f7700000000006044820152606401604051809103906138b76142da565b80609b600160a01b81613a8a614345565b8160ff02191690831515021790613a9f614629565b5050507f8d75e9ede4188432084b863d70b3416010c97547dfeb4fc17734d2e997ee0f3981604051901515815260200160405180910390a150565b80609980600181613ae9614345565b018082613af4614629565b505060009283526000190191602091502001600181613b11614345565b816001600160a01b0302191690836001600160a01b0316021790613b33614629565b505050609980613b41614345565b6001600160a01b0383166000908152609a602052909150604090208190612270614629565b6000811580613b73575082155b15613b8057506000610e2d565b612d1b8261125a85670de0b6b3a7640000613858565b6001600160a01b038216613bf95760405162461bcd60e51b815260206004820152601f60248201527f45524332303a206d696e7420746f20746865207a65726f206164647265737300604482015260640160405180910390613bf66142da565b50505b613c0560008383613f4c565b613c13816067611849614345565b806067613c1e614629565b5050506001600160a01b03821660009081526065602052613c4790829060409020611849614345565b6001600160a01b03831660009081526065602052604090208190613c69614629565b5050506001600160a01b03821660007fddf252ad1be2c89b69c2b068fc378daa952ba7f163c4a11628f55a4df523b3ef8360405190815260200160405180910390a35050565b6000612d1b838360405160408082019052601e81527f536166654d6174683a207375627472616374696f6e206f766572666c6f7700006020820152613387565b6000805a63996d79a5598160e01b8152602081600483336000905af158601d01573d60011458600c01573d6000803e3d621234565260ea61109c528051925060005b6040811015613d4857600082820152602001613d31565b5050509050600081613d586143e6565b159250505090565b60016000613d6c614345565b906101000a900460ff1680613d845750613d84613cef565b80613da15750600080613d95614345565b906101000a900460ff16155b613de55760405162461bcd60e51b815260040180806020018281038252602e81526020018061480d602e913960400191505060405180910390613de26142da565b50505b6000600181613df2614345565b906101000a900460ff161590508015613e58576001600061010081613e15614345565b8160ff02191690831515021790613e2a614629565b50505060016000806101000a81613e3f614345565b8160ff02191690831515021790613e54614629565b5050505b613e6061405b565b613e6a838361417d565b8015611fdc5760008061010081613e7f614345565b8160ff021916908315150217906131e1614629565b816097600181613ea2614345565b816001600160a01b0302191690836001600160a01b0316021790613ec4614629565b505050806098908051611fdc929160200190614677565b6000841580613ee8575085155b15613ef557506000613f43565b6000613f0d8661125a89670de0b6b3a7640000613858565b9050848111613f20576000915050613f43565b6000613f3e8261125a868189613f388d81878f613caf565b90613858565b925050505b95945050505050565b613f57838383611fdc565b613f6083612973565b15611fdc5760405162461bcd60e51b815260206004820152600f60248201526e636f6f6c646f776e2061637469766560881b604482015260640160405180910390613fa96142da565b5050505050565b600081836140455760405162461bcd60e51b81526004018080602001828103825283818151815260200191508051906020019080838360005b83811015614001578082015183820152602001613fe9565b50505050905090810190601f16801561402e5780820380516001836020036101000a031916815260200191505b5092505050604051809103906140426142da565b50505b50600083858161405157fe5b0495945050505050565b60016000614067614345565b906101000a900460ff168061407f575061407f613cef565b8061409c5750600080614090614345565b906101000a900460ff16155b6140e05760405162461bcd60e51b815260040180806020018281038252602e81526020018061480d602e9139604001915050604051809103906140dd6142da565b50505b60006001816140ed614345565b906101000a900460ff161590508015614153576001600061010081614110614345565b8160ff02191690831515021790614125614629565b50505060016000806101000a8161413a614345565b8160ff0219169083151502179061414f614629565b5050505b8015610ece5760008061010081614168614345565b8160ff02191690831515021790612270614629565b60016000614189614345565b906101000a900460ff16806141a157506141a1613cef565b806141be57506000806141b2614345565b906101000a900460ff16155b6142025760405162461bcd60e51b815260040180806020018281038252602e81526020018061480d602e9139604001915050604051809103906141ff6142da565b50505b600060018161420f614345565b906101000a900460ff161590508015614275576001600061010081614232614345565b8160ff02191690831515021790614247614629565b50505060016000806101000a8161425c614345565b8160ff02191690831515021790614271614629565b5050505b6068838051614288929160200190614677565b50606982805161429c929160200190614677565b506012606a6001816142ac614345565b8160ff021916908360ff160217906142c2614629565b5050508015611fdc5760008061010081613e7f614345565b632a2a7adb598160e01b8152600481016020815285602082015260005b868110156143125780860151828201604001526020016142f7565b506020828760640184336000905af158601d01573d60011458600c01573d6000803e3d621234565260ea61109c52505050565b6303daa959598160e01b8152836004820152602081602483336000905af158601d01573d60011458600c01573d6000803e3d621234565260ea61109c528051935060005b6040811015611fdc57600082820152602001614389565b6373509064598160e01b8152602081600483336000905af158601d01573d60011458600c01573d6000803e3d621234565260ea61109c5280516000825293506020614389565b638435035b598160e01b8152836004820152602081602483336000905af158601d01573d60011458600c01573d6000803e3d621234565260ea61109c5280516000825293506020614389565b638540661f598160e01b8152614463565b8080831115610e2d575090919050565b8080831015610e2d575090919050565b836004820152846024820152606060448201528660648201526084810160005b8881101561449b578088015182820152602001614483565b506060828960a40184336000905af158601d01573d60011458600c01573d6000803e3d621234565260ea61109c52815160408301513d6000853e8b8b82606087013350600060045af150596144f08d3d614453565b8c016144fc8187614443565b5b8281101561451157600081526020016144fd565b50929c50505050505050565b6385979f76598160e01b8152836004820152846024820152606060448201528760648201526084810160005b89811015614561578089015182820152602001614549565b506060828a60a40184336000905af158601d01573d60011458600c01573d6000803e3d621234565260ea61109c52815160408301513d6000853e8c8c82606087013350600060045af150596145b68e3d614453565b8d016145c28187614443565b5b828110156145d757600081526020016145c3565b50929d50505050505050565b63bdbf8c36598160e01b8152602081600483336000905af158601d01573d60011458600c01573d6000803e3d621234565260ea61109c5280516000825293506020614389565b6322bd64c0598160e01b8152836004820152846024820152600081604483336000905af158601d01573d60011458600c01573d6000803e3d621234565260ea61109c52600081526020614389565b8280614681614345565b600181600116156101000203166002900490600052602060002090601f016020900481019282601f106146c857805160ff191683800117856146c1614629565b5050614707565b828001600101856146d7614629565b50508215614707579182015b82811115614707578251826146f6614629565b5050916020019190600101906146e3565b50614713929150614717565b5090565b80821115614713576000808261472b614629565b50505060010161471756fe45524332303a207472616e7366657220746f20746865207a65726f206164647265737345524332303a206275726e20616d6f756e7420657863656564732062616c616e636545524332303a20617070726f766520746f20746865207a65726f206164647265737345524332303a207472616e7366657220616d6f756e7420657863656564732062616c616e6365536166654d6174683a206d756c7469706c69636174696f6e206f766572666c6f7745524332303a207472616e7366657220616d6f756e74206578636565647320616c6c6f77616e6365436f6e747261637420696e7374616e63652068617320616c7265616479206265656e20696e697469616c697a656445524332303a206275726e2066726f6d20746865207a65726f206164647265737345524332303a207472616e736665722066726f6d20746865207a65726f206164647265737345524332303a20617070726f76652066726f6d20746865207a65726f206164647265737345524332303a2064656372656173656420616c6c6f77616e63652062656c6f77207a65726f",
  "linkReferences": {},
  "deployedLinkReferences": {}
}