{
  "_format": "hh-sol-artifact-1",
  "contractName": "PoolLogic",
  "sourceName": "contracts/PoolLogic.sol",
  "abi": [
    {
      "anonymous": false,
      "inputs": [
        {
          "indexed": true,
          "internalType": "address",
          "name": "owner",
          "type": "address"
        },
        {
          "indexed": true,
          "internalType": "address",
          "name": "spender",
          "type": "address"
        },
        {
          "indexed": false,
          "internalType": "uint256",
          "name": "value",
          "type": "uint256"
        }
      ],
      "name": "Approval",
      "type": "event"
    },
    {
      "anonymous": false,
      "inputs": [
        {
          "indexed": false,
          "internalType": "address",
          "name": "fundAddress",
          "type": "address"
        },
        {
          "indexed": false,
          "internalType": "address",
          "name": "investor",
          "type": "address"
        },
        {
          "indexed": false,
          "internalType": "uint256",
          "name": "valueDeposited",
          "type": "uint256"
        },
        {
          "indexed": false,
          "internalType": "uint256",
          "name": "fundTokensReceived",
          "type": "uint256"
        },
        {
          "indexed": false,
          "internalType": "uint256",
          "name": "totalInvestorFundTokens",
          "type": "uint256"
        },
        {
          "indexed": false,
          "internalType": "uint256",
          "name": "fundValue",
          "type": "uint256"
        },
        {
          "indexed": false,
          "internalType": "uint256",
          "name": "totalSupply",
          "type": "uint256"
        },
        {
          "indexed": false,
          "internalType": "uint256",
          "name": "time",
          "type": "uint256"
        }
      ],
      "name": "Deposit",
      "type": "event"
    },
    {
      "anonymous": false,
      "inputs": [
        {
          "indexed": false,
          "internalType": "address",
          "name": "pool",
          "type": "address"
        },
        {
          "indexed": false,
          "internalType": "address",
          "name": "manager",
          "type": "address"
        },
        {
          "indexed": false,
          "internalType": "uint256",
          "name": "available",
          "type": "uint256"
        },
        {
          "indexed": false,
          "internalType": "uint256",
          "name": "daoFee",
          "type": "uint256"
        },
        {
          "indexed": false,
          "internalType": "uint256",
          "name": "managerFee",
          "type": "uint256"
        },
        {
          "indexed": false,
          "internalType": "uint256",
          "name": "tokenPriceAtLastFeeMint",
          "type": "uint256"
        }
      ],
      "name": "ManagerFeeMinted",
      "type": "event"
    },
    {
      "anonymous": false,
      "inputs": [
        {
          "indexed": false,
          "internalType": "address",
          "name": "newManager",
          "type": "address"
        },
        {
          "indexed": false,
          "internalType": "string",
          "name": "newManagerName",
          "type": "string"
        }
      ],
      "name": "ManagerUpdated",
      "type": "event"
    },
    {
      "anonymous": false,
      "inputs": [
        {
          "indexed": false,
          "internalType": "address",
          "name": "poolManagerLogic",
          "type": "address"
        },
        {
          "indexed": false,
          "internalType": "address",
          "name": "from",
          "type": "address"
        }
      ],
      "name": "PoolManagerLogicSet",
      "type": "event"
    },
    {
      "anonymous": false,
      "inputs": [
        {
          "indexed": false,
          "internalType": "bool",
          "name": "isPoolPrivate",
          "type": "bool"
        }
      ],
      "name": "PoolPrivacyUpdated",
      "type": "event"
    },
    {
      "anonymous": false,
      "inputs": [
        {
          "indexed": true,
          "internalType": "address",
          "name": "from",
          "type": "address"
        },
        {
          "indexed": true,
          "internalType": "address",
          "name": "to",
          "type": "address"
        },
        {
          "indexed": false,
          "internalType": "uint256",
          "name": "value",
          "type": "uint256"
        }
      ],
      "name": "Transfer",
      "type": "event"
    },
    {
      "anonymous": false,
      "inputs": [
        {
          "indexed": false,
          "internalType": "address",
          "name": "fundAddress",
          "type": "address"
        },
        {
          "indexed": false,
          "internalType": "address",
          "name": "investor",
          "type": "address"
        },
        {
          "indexed": false,
          "internalType": "uint256",
          "name": "valueWithdrawn",
          "type": "uint256"
        },
        {
          "indexed": false,
          "internalType": "uint256",
          "name": "fundTokensWithdrawn",
          "type": "uint256"
        },
        {
          "indexed": false,
          "internalType": "uint256",
          "name": "totalInvestorFundTokens",
          "type": "uint256"
        },
        {
          "indexed": false,
          "internalType": "uint256",
          "name": "fundValue",
          "type": "uint256"
        },
        {
          "indexed": false,
          "internalType": "uint256",
          "name": "totalSupply",
          "type": "uint256"
        },
        {
          "indexed": false,
          "internalType": "uint256",
          "name": "time",
          "type": "uint256"
        }
      ],
      "name": "Withdrawal",
      "type": "event"
    },
    {
      "inputs": [
        {
          "internalType": "address",
          "name": "member",
          "type": "address"
        }
      ],
      "name": "addMember",
      "outputs": [],
      "stateMutability": "nonpayable",
      "type": "function"
    },
    {
      "inputs": [
        {
          "internalType": "address[]",
          "name": "members",
          "type": "address[]"
        }
      ],
      "name": "addMembers",
      "outputs": [],
      "stateMutability": "nonpayable",
      "type": "function"
    },
    {
      "inputs": [
        {
          "internalType": "address",
          "name": "owner",
          "type": "address"
        },
        {
          "internalType": "address",
          "name": "spender",
          "type": "address"
        }
      ],
      "name": "allowance",
      "outputs": [
        {
          "internalType": "uint256",
          "name": "",
          "type": "uint256"
        }
      ],
      "stateMutability": "view",
      "type": "function"
    },
    {
      "inputs": [
        {
          "internalType": "address",
          "name": "spender",
          "type": "address"
        },
        {
          "internalType": "uint256",
          "name": "amount",
          "type": "uint256"
        }
      ],
      "name": "approve",
      "outputs": [
        {
          "internalType": "bool",
          "name": "",
          "type": "bool"
        }
      ],
      "stateMutability": "nonpayable",
      "type": "function"
    },
    {
      "inputs": [],
      "name": "availableManagerFee",
      "outputs": [
        {
          "internalType": "uint256",
          "name": "",
          "type": "uint256"
        }
      ],
      "stateMutability": "view",
      "type": "function"
    },
    {
      "inputs": [
        {
          "internalType": "address",
          "name": "account",
          "type": "address"
        }
      ],
      "name": "balanceOf",
      "outputs": [
        {
          "internalType": "uint256",
          "name": "",
          "type": "uint256"
        }
      ],
      "stateMutability": "view",
      "type": "function"
    },
    {
      "inputs": [
        {
          "internalType": "address",
          "name": "newManager",
          "type": "address"
        },
        {
          "internalType": "string",
          "name": "newManagerName",
          "type": "string"
        }
      ],
      "name": "changeManager",
      "outputs": [],
      "stateMutability": "nonpayable",
      "type": "function"
    },
    {
      "inputs": [],
      "name": "creationTime",
      "outputs": [
        {
          "internalType": "uint256",
          "name": "",
          "type": "uint256"
        }
      ],
      "stateMutability": "view",
      "type": "function"
    },
    {
      "inputs": [],
      "name": "creator",
      "outputs": [
        {
          "internalType": "address",
          "name": "",
          "type": "address"
        }
      ],
      "stateMutability": "view",
      "type": "function"
    },
    {
      "inputs": [],
      "name": "decimals",
      "outputs": [
        {
          "internalType": "uint8",
          "name": "",
          "type": "uint8"
        }
      ],
      "stateMutability": "view",
      "type": "function"
    },
    {
      "inputs": [
        {
          "internalType": "address",
          "name": "spender",
          "type": "address"
        },
        {
          "internalType": "uint256",
          "name": "subtractedValue",
          "type": "uint256"
        }
      ],
      "name": "decreaseAllowance",
      "outputs": [
        {
          "internalType": "bool",
          "name": "",
          "type": "bool"
        }
      ],
      "stateMutability": "nonpayable",
      "type": "function"
    },
    {
      "inputs": [
        {
          "internalType": "uint256",
          "name": "_susdAmount",
          "type": "uint256"
        }
      ],
      "name": "deposit",
      "outputs": [
        {
          "internalType": "uint256",
          "name": "",
          "type": "uint256"
        }
      ],
      "stateMutability": "nonpayable",
      "type": "function"
    },
    {
      "inputs": [],
      "name": "factory",
      "outputs": [
        {
          "internalType": "address",
          "name": "",
          "type": "address"
        }
      ],
      "stateMutability": "view",
      "type": "function"
    },
    {
      "inputs": [],
      "name": "getExitCooldown",
      "outputs": [
        {
          "internalType": "uint256",
          "name": "",
          "type": "uint256"
        }
      ],
      "stateMutability": "view",
      "type": "function"
    },
    {
      "inputs": [
        {
          "internalType": "address",
          "name": "sender",
          "type": "address"
        }
      ],
      "name": "getExitRemainingCooldown",
      "outputs": [
        {
          "internalType": "uint256",
          "name": "",
          "type": "uint256"
        }
      ],
      "stateMutability": "view",
      "type": "function"
    },
    {
      "inputs": [],
      "name": "getFundSummary",
      "outputs": [
        {
          "internalType": "string",
          "name": "",
          "type": "string"
        },
        {
          "internalType": "uint256",
          "name": "",
          "type": "uint256"
        },
        {
          "internalType": "uint256",
          "name": "",
          "type": "uint256"
        },
        {
          "internalType": "address",
          "name": "",
          "type": "address"
        },
        {
          "internalType": "string",
          "name": "",
          "type": "string"
        },
        {
          "internalType": "uint256",
          "name": "",
          "type": "uint256"
        },
        {
          "internalType": "bool",
          "name": "",
          "type": "bool"
        },
        {
          "internalType": "uint256",
          "name": "",
          "type": "uint256"
        },
        {
          "internalType": "uint256",
          "name": "",
          "type": "uint256"
        }
      ],
      "stateMutability": "view",
      "type": "function"
    },
    {
      "inputs": [],
      "name": "getMembers",
      "outputs": [
        {
          "internalType": "address[]",
          "name": "",
          "type": "address[]"
        }
      ],
      "stateMutability": "view",
      "type": "function"
    },
    {
      "inputs": [
        {
          "internalType": "address",
          "name": "spender",
          "type": "address"
        },
        {
          "internalType": "uint256",
          "name": "addedValue",
          "type": "uint256"
        }
      ],
      "name": "increaseAllowance",
      "outputs": [
        {
          "internalType": "bool",
          "name": "",
          "type": "bool"
        }
      ],
      "stateMutability": "nonpayable",
      "type": "function"
    },
    {
      "inputs": [
        {
          "internalType": "address",
          "name": "_factory",
          "type": "address"
        },
        {
          "internalType": "bool",
          "name": "_privatePool",
          "type": "bool"
        },
        {
          "internalType": "address",
          "name": "_manager",
          "type": "address"
        },
        {
          "internalType": "string",
          "name": "_managerName",
          "type": "string"
        },
        {
          "internalType": "string",
          "name": "_fundName",
          "type": "string"
        },
        {
          "internalType": "string",
          "name": "_fundSymbol",
          "type": "string"
        },
        {
          "internalType": "address",
          "name": "_poolManagerLogic",
          "type": "address"
        }
      ],
      "name": "initialize",
      "outputs": [],
      "stateMutability": "nonpayable",
      "type": "function"
    },
    {
      "inputs": [
        {
          "internalType": "address",
          "name": "member",
          "type": "address"
        }
      ],
      "name": "isMemberAllowed",
      "outputs": [
        {
          "internalType": "bool",
          "name": "",
          "type": "bool"
        }
      ],
      "stateMutability": "view",
      "type": "function"
    },
    {
      "inputs": [
        {
          "internalType": "address",
          "name": "",
          "type": "address"
        }
      ],
      "name": "lastDeposit",
      "outputs": [
        {
          "internalType": "uint256",
          "name": "",
          "type": "uint256"
        }
      ],
      "stateMutability": "view",
      "type": "function"
    },
    {
      "inputs": [],
      "name": "manager",
      "outputs": [
        {
          "internalType": "address",
          "name": "",
          "type": "address"
        }
      ],
      "stateMutability": "view",
      "type": "function"
    },
    {
      "inputs": [],
      "name": "managerName",
      "outputs": [
        {
          "internalType": "string",
          "name": "",
          "type": "string"
        }
      ],
      "stateMutability": "view",
      "type": "function"
    },
    {
      "inputs": [],
      "name": "mintManagerFee",
      "outputs": [],
      "stateMutability": "nonpayable",
      "type": "function"
    },
    {
      "inputs": [],
      "name": "name",
      "outputs": [
        {
          "internalType": "string",
          "name": "",
          "type": "string"
        }
      ],
      "stateMutability": "view",
      "type": "function"
    },
    {
      "inputs": [],
      "name": "numberOfMembers",
      "outputs": [
        {
          "internalType": "uint256",
          "name": "",
          "type": "uint256"
        }
      ],
      "stateMutability": "view",
      "type": "function"
    },
    {
      "inputs": [],
      "name": "poolManagerLogic",
      "outputs": [
        {
          "internalType": "address",
          "name": "",
          "type": "address"
        }
      ],
      "stateMutability": "view",
      "type": "function"
    },
    {
      "inputs": [],
      "name": "privatePool",
      "outputs": [
        {
          "internalType": "bool",
          "name": "",
          "type": "bool"
        }
      ],
      "stateMutability": "view",
      "type": "function"
    },
    {
      "inputs": [
        {
          "internalType": "address",
          "name": "member",
          "type": "address"
        }
      ],
      "name": "removeMember",
      "outputs": [],
      "stateMutability": "nonpayable",
      "type": "function"
    },
    {
      "inputs": [
        {
          "internalType": "address[]",
          "name": "members",
          "type": "address[]"
        }
      ],
      "name": "removeMembers",
      "outputs": [],
      "stateMutability": "nonpayable",
      "type": "function"
    },
    {
      "inputs": [],
      "name": "removeTrader",
      "outputs": [],
      "stateMutability": "nonpayable",
      "type": "function"
    },
    {
      "inputs": [
        {
          "internalType": "address",
          "name": "_poolManagerLogic",
          "type": "address"
        }
      ],
      "name": "setPoolManagerLogic",
      "outputs": [
        {
          "internalType": "bool",
          "name": "",
          "type": "bool"
        }
      ],
      "stateMutability": "nonpayable",
      "type": "function"
    },
    {
      "inputs": [
        {
          "internalType": "bool",
          "name": "_privatePool",
          "type": "bool"
        }
      ],
      "name": "setPoolPrivate",
      "outputs": [],
      "stateMutability": "nonpayable",
      "type": "function"
    },
    {
      "inputs": [
        {
          "internalType": "address",
          "name": "newTrader",
          "type": "address"
        }
      ],
      "name": "setTrader",
      "outputs": [],
      "stateMutability": "nonpayable",
      "type": "function"
    },
    {
      "inputs": [],
      "name": "symbol",
      "outputs": [
        {
          "internalType": "string",
          "name": "",
          "type": "string"
        }
      ],
      "stateMutability": "view",
      "type": "function"
    },
    {
      "inputs": [],
      "name": "tokenPrice",
      "outputs": [
        {
          "internalType": "uint256",
          "name": "",
          "type": "uint256"
        }
      ],
      "stateMutability": "view",
      "type": "function"
    },
    {
      "inputs": [],
      "name": "tokenPriceAtLastFeeMint",
      "outputs": [
        {
          "internalType": "uint256",
          "name": "",
          "type": "uint256"
        }
      ],
      "stateMutability": "view",
      "type": "function"
    },
    {
      "inputs": [],
      "name": "totalFundValue",
      "outputs": [
        {
          "internalType": "uint256",
          "name": "",
          "type": "uint256"
        }
      ],
      "stateMutability": "view",
      "type": "function"
    },
    {
      "inputs": [],
      "name": "totalSupply",
      "outputs": [
        {
          "internalType": "uint256",
          "name": "",
          "type": "uint256"
        }
      ],
      "stateMutability": "view",
      "type": "function"
    },
    {
      "inputs": [],
      "name": "trader",
      "outputs": [
        {
          "internalType": "address",
          "name": "",
          "type": "address"
        }
      ],
      "stateMutability": "view",
      "type": "function"
    },
    {
      "inputs": [
        {
          "internalType": "address",
          "name": "recipient",
          "type": "address"
        },
        {
          "internalType": "uint256",
          "name": "amount",
          "type": "uint256"
        }
      ],
      "name": "transfer",
      "outputs": [
        {
          "internalType": "bool",
          "name": "",
          "type": "bool"
        }
      ],
      "stateMutability": "nonpayable",
      "type": "function"
    },
    {
      "inputs": [
        {
          "internalType": "address",
          "name": "sender",
          "type": "address"
        },
        {
          "internalType": "address",
          "name": "recipient",
          "type": "address"
        },
        {
          "internalType": "uint256",
          "name": "amount",
          "type": "uint256"
        }
      ],
      "name": "transferFrom",
      "outputs": [
        {
          "internalType": "bool",
          "name": "",
          "type": "bool"
        }
      ],
      "stateMutability": "nonpayable",
      "type": "function"
    },
    {
      "inputs": [
        {
          "internalType": "uint256",
          "name": "_fundTokenAmount",
          "type": "uint256"
        }
      ],
      "name": "withdraw",
      "outputs": [],
      "stateMutability": "nonpayable",
      "type": "function"
    }
  ],
  "bytecode": "0x608060405234801561001057600080fd5b506132fb806100206000396000f3fe608060405234801561001057600080fd5b50600436106102695760003560e01c8063750226de11610151578063b6b55f25116100c3578063cc3c6df611610087578063cc3c6df61461099c578063cdfa79d2146109a4578063d8270dce14610b7e578063dd62ed3e14610b86578063edbf6f5014610bb4578063fed4416a14610bbc57610269565b8063b6b55f2514610905578063b8ea2b6e14610922578063bbbf725b14610948578063c45a01551461096e578063ca6d56dc1461097657610269565b80639eab5253116101155780639eab52531461081f578063a30e3fa914610877578063a457c2d71461087f578063a6bc18f9146108ab578063a9059cbb146108d1578063ad60ffcc146108fd57610269565b8063750226de146107d95780637714f39d146107ff5780637c8afd51146108075780637ff9b5961461080f57806395d89b411461081757610269565b80632e1a7d4d116101ea57806346ee84b0116101ae57806346ee84b0146105ad578063481c6a751461064e578063522136631461065657806359b5e75e1461070a5780636f4d469b1461071257806370a08231146107b357610269565b80632e1a7d4d1461051f578063313ce5671461053c578063395093511461055a5780633babaad5146105865780634501b088146105a557610269565b806318160ddd1161023157806318160ddd1461037f5780631c5918d2146103995780631e50a4a6146104bb57806323b872dd146104c357806329d16ee8146104f957610269565b806302d05d3f1461026e57806306fdde0314610292578063095ea7b31461030f5780630b1ca49a1461034f5780631758078b14610377575b600080fd5b610276610bc4565b604080516001600160a01b039092168252519081900360200190f35b61029a610bd3565b6040805160208082528351818301528351919283929083019185019080838360005b838110156102d45781810151838201526020016102bc565b50505050905090810190601f1680156103015780820380516001836020036101000a031916815260200191505b509250505060405180910390f35b61033b6004803603604081101561032557600080fd5b506001600160a01b038135169060200135610c69565b604080519115158252519081900360200190f35b6103756004803603602081101561036557600080fd5b50356001600160a01b0316610c87565b005b610276610cf3565b610387610d02565b60408051918252519081900360200190f35b6103a1610d08565b60405180806020018a8152602001898152602001886001600160a01b0316815260200180602001878152602001861515815260200185815260200184815260200183810383528c818151815260200191508051906020019080838360005b838110156104175781810151838201526020016103ff565b50505050905090810190601f1680156104445780820380516001836020036101000a031916815260200191505b5083810382528851815288516020918201918a019080838360005b8381101561047757818101518382015260200161045f565b50505050905090810190601f1680156104a45780820380516001836020036101000a031916815260200191505b509b50505050505050505050505060405180910390f35b610276610e0f565b61033b600480360360608110156104d957600080fd5b506001600160a01b03813581169160208101359091169060400135610e1e565b6103876004803603602081101561050f57600080fd5b50356001600160a01b0316610ea5565b6103756004803603602081101561053557600080fd5b5035610eb7565b610544611313565b6040805160ff9092168252519081900360200190f35b61033b6004803603604081101561057057600080fd5b506001600160a01b03813516906020013561131c565b6103756004803603602081101561059c57600080fd5b5035151561136a565b610387611420565b610375600480360360208110156105c357600080fd5b810190602081018135600160201b8111156105dd57600080fd5b8201836020820111156105ef57600080fd5b803590602001918460208302840111600160201b8311171561061057600080fd5b919080806020026020016040519081016040528093929190818152602001838360200280828437600092019190915250929550611496945050505050565b61027661153d565b6103756004803603604081101561066c57600080fd5b6001600160a01b038235169190810190604081016020820135600160201b81111561069657600080fd5b8201836020820111156106a857600080fd5b803590602001918460018302840111600160201b831117156106c957600080fd5b91908080601f01602080910402602001604051908101604052809392919081815260200183838082843760009201919091525092955061154c945050505050565b61033b611677565b6103756004803603602081101561072857600080fd5b810190602081018135600160201b81111561074257600080fd5b82018360208201111561075457600080fd5b803590602001918460208302840111600160201b8311171561077557600080fd5b919080806020026020016040519081016040528093929190818152602001838360200280828437600092019190915250929550611687945050505050565b610387600480360360208110156107c957600080fd5b50356001600160a01b031661171e565b61033b600480360360208110156107ef57600080fd5b50356001600160a01b031661173d565b610387611879565b61037561187f565b6103876118df565b61029a611909565b61082761196a565b60408051602080825283518183015283519192839290830191858101910280838360005b8381101561086357818101518382015260200161084b565b505050509050019250505060405180910390f35b6103876119cb565b61033b6004803603604081101561089557600080fd5b506001600160a01b0381351690602001356119d1565b610375600480360360208110156108c157600080fd5b50356001600160a01b0316611a39565b61033b600480360360408110156108e757600080fd5b506001600160a01b038135169060200135611aa9565b610387611abd565b6103876004803603602081101561091b57600080fd5b5035611c86565b6103876004803603602081101561093857600080fd5b50356001600160a01b0316611f4d565b61033b6004803603602081101561095e57600080fd5b50356001600160a01b0316611fa6565b610276611fc3565b6103756004803603602081101561098c57600080fd5b50356001600160a01b0316611fd2565b61037561203c565b610375600480360360e08110156109ba57600080fd5b6001600160a01b0382358116926020810135151592604082013590921691810190608081016060820135600160201b8111156109f557600080fd5b820183602082011115610a0757600080fd5b803590602001918460018302840111600160201b83111715610a2857600080fd5b91908080601f0160208091040260200160405190810160405280939291908181526020018383808284376000920191909152509295949360208101935035915050600160201b811115610a7a57600080fd5b820183602082011115610a8c57600080fd5b803590602001918460018302840111600160201b83111715610aad57600080fd5b91908080601f0160208091040260200160405190810160405280939291908181526020018383808284376000920191909152509295949360208101935035915050600160201b811115610aff57600080fd5b820183602082011115610b1157600080fd5b803590602001918460018302840111600160201b83111715610b3257600080fd5b91908080601f016020809104026020016040519081016040528093929190818152602001838380828437600092019190915250929550505090356001600160a01b031691506120469050565b610387612160565b61038760048036036040811015610b9c57600080fd5b506001600160a01b0381358116916020013516612166565b610387612191565b61029a612247565b609c546001600160a01b031681565b60688054604080516020601f6002600019610100600188161502019095169490940493840181900481028201810190925282815260609390929091830182828015610c5f5780601f10610c3457610100808354040283529160200191610c5f565b820191906000526020600020905b815481529060010190602001808311610c4257829003601f168201915b5050505050905090565b6000610c7d610c766122a8565b84846122ac565b5060015b92915050565b6097546001600160a01b03163314610cd5576040805162461bcd60e51b815260206004820152600c60248201526b37b7363c9036b0b730b3b2b960a11b604482015290519081900360640190fd5b610cde81611fa6565b610ce757610cf0565b610cf081612398565b50565b609b546001600160a01b031690565b60675490565b606060008060006060600080600080600080609e60009054906101000a90046001600160a01b03166001600160a01b031663b7a54526306040518263ffffffff1660e01b815260040180826001600160a01b03168152602001915050604080518083038186803b158015610d7b57600080fd5b505afa158015610d8f573d6000803e3d6000fd5b505050506040513d6040811015610da557600080fd5b5080516020909101519092509050610dbb610bd3565b610dc3610d02565b610dcb611abd565b610dd361153d565b610ddb612247565b609d54609b60149054906101000a900460ff1688889a509a509a509a509a509a509a509a509a505050909192939495969798565b60a1546001600160a01b031681565b6000610e2b848484612491565b610e9b84610e376122a8565b610e96856040518060600160405280602881526020016131e1602891396001600160a01b038a16600090815260666020526040812090610e756122a8565b6001600160a01b0316815260208101919091526040016000205491906125ee565b6122ac565b5060019392505050565b60a06020526000908152604090205481565b80610ec13361171e565b1015610f0b576040805162461bcd60e51b8152602060048201526014602482015273696e73756666696369656e742062616c616e636560601b604482015290519081900360640190fd5b610f1433611f4d565b15610f58576040805162461bcd60e51b815260206004820152600f60248201526e636f6f6c646f776e2061637469766560881b604482015290519081900360640190fd5b610f60612685565b6000610f6a611abd565b90506000610f91610f79610d02565b610f8b85670de0b6b3a7640000612903565b90612963565b9050610f9d33846129a5565b60a1546040805163e5406dbf60e01b815290516001600160a01b0390921691606091839163e5406dbf91600480820192600092909190829003018186803b158015610fe757600080fd5b505afa158015610ffb573d6000803e3d6000fd5b505050506040513d6000823e601f3d908101601f19168201604052602081101561102457600080fd5b8101908080516040519392919084600160201b82111561104357600080fd5b90830190602082018581111561105857600080fd5b82518660208202830111600160201b8211171561107457600080fd5b82525081516020918201928201910280838360005b838110156110a1578181015183820152602001611089565b50505050905001604052505050905060008151905060005b81811015611267576000846001600160a01b0316633ded65308584815181106110de57fe5b60200260200101516040518263ffffffff1660e01b81526004018082815260200191505060206040518083038186803b15801561111a57600080fd5b505afa15801561112e573d6000803e3d6000fd5b505050506040513d602081101561114457600080fd5b5051604080516370a0823160e01b815230600482015290519192506000916001600160a01b038416916370a08231916024808301926020929190829003018186803b15801561119257600080fd5b505afa1580156111a6573d6000803e3d6000fd5b505050506040513d60208110156111bc57600080fd5b5051905060006111d8670de0b6b3a7640000610f8b848b612903565b9050801561125c576040805163a9059cbb60e01b81523360048201526024810183905290516001600160a01b0385169163a9059cbb9160448083019260209291908290030181600087803b15801561122f57600080fd5b505af1158015611243573d6000803e3d6000fd5b505050506040513d602081101561125957600080fd5b50505b5050506001016110b9565b506000611280670de0b6b3a7640000610f8b8789612903565b90507f79d44cc8beeed36226f14818b2ecaca7ef252bcd56c9ae35f5a86869dbdefb973033838a6112b03361171e565b6112b8611abd565b6112c0610d02565b604080516001600160a01b039889168152969097166020870152858701949094526060850192909252608084015260a083015260c08201524260e08201529051908190036101000190a150505050505050565b606a5460ff1690565b6000610c7d6113296122a8565b84610e96856066600061133a6122a8565b6001600160a01b03908116825260208083019390935260409182016000908120918c168152925290205490612aa1565b6097546001600160a01b031633146113b8576040805162461bcd60e51b815260206004820152600c60248201526b37b7363c9036b0b730b3b2b960a11b604482015290519081900360640190fd5b609b5460ff600160a01b9091041615158115151415611417576040805162461bcd60e51b8152602060048201526016602482015275199b1859c81b5d5cdd08189948191a5999995c995b9d60521b604482015290519081900360640190fd5b610cf081612afb565b609e54604080516308a0361160e31b815290516000926001600160a01b031691634501b088916004808301926020929190829003018186803b15801561146557600080fd5b505afa158015611479573d6000803e3d6000fd5b505050506040513d602081101561148f57600080fd5b5051905090565b6097546001600160a01b031633146114e4576040805162461bcd60e51b815260206004820152600c60248201526b37b7363c9036b0b730b3b2b960a11b604482015290519081900360640190fd5b60005b81518110156115395761150c8282815181106114ff57fe5b6020026020010151611fa6565b61151557611531565b61153182828151811061152457fe5b6020026020010151612398565b6001016114e7565b5050565b6097546001600160a01b031690565b6097546001600160a01b0316331461159a576040805162461bcd60e51b815260206004820152600c60248201526b37b7363c9036b0b730b3b2b960a11b604482015290519081900360640190fd5b609780546001600160a01b0319166001600160a01b03841617905580516115c890609890602084019061309f565b507f6ed15082ad038474841528b5badca105106d4463e44b5d434130dfb299aa3669828260405180836001600160a01b0316815260200180602001828103825283818151815260200191508051906020019080838360005b83811015611638578181015183820152602001611620565b50505050905090810190601f1680156116655780820380516001836020036101000a031916815260200191505b50935050505060405180910390a15050565b609b54600160a01b900460ff1681565b6097546001600160a01b031633146116d5576040805162461bcd60e51b815260206004820152600c60248201526b37b7363c9036b0b730b3b2b960a11b604482015290519081900360640190fd5b60005b8151811015611539576116f08282815181106114ff57fe5b156116fa57611716565b61171682828151811061170957fe5b6020026020010151612b4e565b6001016116d8565b6001600160a01b0381166000908152606560205260409020545b919050565b600080609e60009054906101000a90046001600160a01b03166001600160a01b0316631d68702d6040518163ffffffff1660e01b815260040160206040518083038186803b15801561178e57600080fd5b505afa1580156117a2573d6000803e3d6000fd5b505050506040513d60208110156117b857600080fd5b50519050336001600160a01b03821614611819576040805162461bcd60e51b815260206004820152601860248201527f6f6e6c792044414f206164647265737320616c6c6f7765640000000000000000604482015290519081900360640190fd5b60a180546001600160a01b0319166001600160a01b0385169081179091556040805191825233602083015280517f63fb64c359a4cae97e1bf003c1ab11390b5f0e18cc5b3d67b90bd61c0f5c52fd9281900390910190a150600192915050565b609f5481565b6097546001600160a01b031633146118cd576040805162461bcd60e51b815260206004820152600c60248201526b37b7363c9036b0b730b3b2b960a11b604482015290519081900360640190fd5b609b80546001600160a01b0319169055565b6000806118ea611abd565b905060006118f6610d02565b90506119028282612baa565b9250505090565b60698054604080516020601f6002600019610100600188161502019095169490940493840181900481028201810190925282815260609390929091830182828015610c5f5780601f10610c3457610100808354040283529160200191610c5f565b60606099805480602002602001604051908101604052809291908181526020018280548015610c5f57602002820191906000526020600020905b81546001600160a01b031681526001909101906020018083116119a4575050505050905090565b60995490565b6000610c7d6119de6122a8565b84610e96856040518060600160405280602581526020016132a16025913960666000611a086122a8565b6001600160a01b03908116825260208083019390935260409182016000908120918d168152925290205491906125ee565b6097546001600160a01b03163314611a87576040805162461bcd60e51b815260206004820152600c60248201526b37b7363c9036b0b730b3b2b960a11b604482015290519081900360640190fd5b609b80546001600160a01b0319166001600160a01b0392909216919091179055565b6000610c7d611ab66122a8565b8484612491565b60a1546040805163e5406dbf60e01b8152905160009283926001600160a01b0390911691606091839163e5406dbf916004808201928892909190829003018186803b158015611b0b57600080fd5b505afa158015611b1f573d6000803e3d6000fd5b505050506040513d6000823e601f3d908101601f191682016040526020811015611b4857600080fd5b8101908080516040519392919084600160201b821115611b6757600080fd5b908301906020820185811115611b7c57600080fd5b82518660208202830111600160201b82111715611b9857600080fd5b82525081516020918201928201910280838360005b83811015611bc5578181015183820152602001611bad565b50505050905001604052505050905060008151905060005b81811015611c7c57611c72846001600160a01b0316630499123f858481518110611c0357fe5b60200260200101516040518263ffffffff1660e01b81526004018082815260200191505060206040518083038186803b158015611c3f57600080fd5b505afa158015611c53573d6000803e3d6000fd5b505050506040513d6020811015611c6957600080fd5b50518690612aa1565b9450600101611bdd565b5092935050505090565b6000611c9061153d565b6001600160a01b0316336001600160a01b03161480611cb95750609b54600160a01b900460ff16155b80611cc85750611cc833611fa6565b611d10576040805162461bcd60e51b81526020600482015260146024820152731bdb9b1e481b595b58995c9cc8185b1b1bddd95960621b604482015290519081900360640190fd5b33600090815260a060205260409020429055611d2a612685565b6000611d34611abd565b90506000611d40610d02565b60a154604080516303ded65360e41b8152631cd554d160e21b600482015290519293506001600160a01b03909116918291633ded6530916024808301926020929190829003018186803b158015611d9657600080fd5b505afa158015611daa573d6000803e3d6000fd5b505050506040513d6020811015611dc057600080fd5b5051604080516323b872dd60e01b81523360048201523060248201526044810188905290516001600160a01b03909216916323b872dd916064808201926020929091908290030181600087803b158015611e1957600080fd5b505af1158015611e2d573d6000803e3d6000fd5b505050506040513d6020811015611e4357600080fd5b5051611e8e576040805162461bcd60e51b81526020600482015260156024820152741d1bdad95b881d1c985b9cd9995c8819985a5b1959605a1b604482015290519081900360640190fd5b60008215611eab57611ea484610f8b8886612903565b9050611eae565b50845b611eb83382612bda565b7f87fdcba84e083ebb8fd661bbafee3eb38764ec6f0cbeea8ed52deffa67bd45dc30338884611ee63361171e565b611ef08a8d612aa1565b611efa8a89612aa1565b604080516001600160a01b039889168152969097166020870152858701949094526060850192909252608084015260a083015260c08201524260e08201529051908190036101000190a195945050505050565b600080611f58611420565b6001600160a01b038416600090815260a0602052604081205491925090611f7f9083612aa1565b905042811015611f9457600092505050611738565b611f9e8142612ccc565b949350505050565b6001600160a01b03166000908152609a6020526040902054151590565b609e546001600160a01b031681565b6097546001600160a01b03163314612020576040805162461bcd60e51b815260206004820152600c60248201526b37b7363c9036b0b730b3b2b960a11b604482015290519081900360640190fd5b61202981611fa6565b1561203357610cf0565b610cf081612b4e565b612044612685565b565b600054610100900460ff168061205f575061205f612d0e565b8061206d575060005460ff16155b6120a85760405162461bcd60e51b815260040180806020018281038252602e815260200180613209602e913960400191505060405180910390fd5b600054610100900460ff161580156120d3576000805460ff1961ff0019909116610100171660011790555b6120dd8484612d14565b6120e78686612dca565b609e80546001600160a01b0319166001600160a01b038a1617905561210b87612afb565b609c8054336001600160a01b03199182161790915542609d55670de0b6b3a7640000609f5560a180549091166001600160a01b0384161790558015612156576000805461ff00191690555b5050505050505050565b609d5481565b6001600160a01b03918216600090815260666020908152604080832093909416825291909152205490565b60008061219c611abd565b905060006121a8610d02565b609e5460408051635bd2a29360e11b8152306004820152815193945060009384936001600160a01b03169263b7a545269260248082019391829003018186803b1580156121f457600080fd5b505afa158015612208573d6000803e3d6000fd5b505050506040513d604081101561221e57600080fd5b508051602090910151609f54919350915061223e90859085908585612df8565b94505050505090565b60988054604080516020601f6002600019610100600188161502019095169490940493840181900481028201810190925282815260609390929091830182828015610c5f5780601f10610c3457610100808354040283529160200191610c5f565b3390565b6001600160a01b0383166122f15760405162461bcd60e51b815260040180806020018281038252602481526020018061327d6024913960400191505060405180910390fd5b6001600160a01b0382166123365760405162461bcd60e51b81526004018080602001828103825260228152602001806131786022913960400191505060405180910390fd5b6001600160a01b03808416600081815260666020908152604080832094871680845294825291829020859055815185815291517f8c5be1e5ebec7d5bd14f71427d1e84f3dd0314c0f7b2291e5b200ac8c7c3b9259281900390910190a3505050565b6099546001600160a01b0382166000908152609a60205260408120546123bf906001612ccc565b9050600060996123d0846001612ccc565b815481106123da57fe5b600091825260209091200154609980546001600160a01b03909216925082918490811061240357fe5b600091825260209091200180546001600160a01b0319166001600160a01b0392909216919091179055612437826001612aa1565b6001600160a01b038083166000908152609a602052604080822093909355908616815290812055609980548061246957fe5b600082815260209020810160001990810180546001600160a01b031916905501905550505050565b6001600160a01b0383166124d65760405162461bcd60e51b81526004018080602001828103825260258152602001806132586025913960400191505060405180910390fd5b6001600160a01b03821661251b5760405162461bcd60e51b81526004018080602001828103825260238152602001806131336023913960400191505060405180910390fd5b612526838383612e69565b6125638160405180606001604052806026815260200161319a602691396001600160a01b03861660009081526065602052604090205491906125ee565b6001600160a01b0380851660009081526065602052604080822093909355908416815220546125929082612aa1565b6001600160a01b0380841660008181526065602090815260409182902094909455805185815290519193928716927fddf252ad1be2c89b69c2b068fc378daa952ba7f163c4a11628f55a4df523b3ef92918290030190a3505050565b6000818484111561267d5760405162461bcd60e51b81526004018080602001828103825283818151815260200191508051906020019080838360005b8381101561264257818101518382015260200161262a565b50505050905090810190601f16801561266f5780820380516001836020036101000a031916815260200191505b509250505060405180910390fd5b505050900390565b600061268f611abd565b9050600061269b610d02565b609e5460408051635bd2a29360e11b8152306004820152815193945060009384936001600160a01b03169263b7a545269260248082019391829003018186803b1580156126e757600080fd5b505afa1580156126fb573d6000803e3d6000fd5b505050506040513d604081101561271157600080fd5b508051602090910151609f54919350915060009061273490869086908686612df8565b90506064811015612749575050505050612044565b609e5460408051631d68702d60e01b815290516000926001600160a01b031691631d68702d916004808301926020929190829003018186803b15801561278e57600080fd5b505afa1580156127a2573d6000803e3d6000fd5b505050506040513d60208110156127b857600080fd5b5051609e546040805163272b69b960e21b8152815193945060009384936001600160a01b031692639cada6e49260048082019391829003018186803b15801561280057600080fd5b505afa158015612814573d6000803e3d6000fd5b505050506040513d604081101561282a57600080fd5b5080516020909101519092509050600061284882610f8b8786612903565b905060006128568683612ccc565b90508115612868576128688583612bda565b801561287f5761287f61287961153d565b82612bda565b6128898a8a612baa565b609f557f755a8059d66d8d243bc9f6913f429a811f154599d0538bb0b6a2ac23f23d2ccd306128b661153d565b609f54604080516001600160a01b0394851681529290931660208301528183018a9052606082018690526080820185905260a082015290519081900360c00190a150505050505050505050565b60008261291257506000610c81565b8282028284828161291f57fe5b041461295c5760405162461bcd60e51b81526004018080602001828103825260218152602001806131c06021913960400191505060405180910390fd5b9392505050565b600061295c83836040518060400160405280601a81526020017f536166654d6174683a206469766973696f6e206279207a65726f000000000000815250612ec1565b6001600160a01b0382166129ea5760405162461bcd60e51b81526004018080602001828103825260218152602001806132376021913960400191505060405180910390fd5b6129f682600083612e69565b612a3381604051806060016040528060228152602001613156602291396001600160a01b03851660009081526065602052604090205491906125ee565b6001600160a01b038316600090815260656020526040902055606754612a599082612ccc565b6067556040805182815290516000916001600160a01b038516917fddf252ad1be2c89b69c2b068fc378daa952ba7f163c4a11628f55a4df523b3ef9181900360200190a35050565b60008282018381101561295c576040805162461bcd60e51b815260206004820152601b60248201527f536166654d6174683a206164646974696f6e206f766572666c6f770000000000604482015290519081900360640190fd5b609b8054821515600160a01b810260ff60a01b199092169190911790915560408051918252517f8d75e9ede4188432084b863d70b3416010c97547dfeb4fc17734d2e997ee0f399181900360200190a150565b609980546001810182557f72a152ddfb8e864297c917af52ea6c1c68aead0fee1a62673fcc7e0c94979d000180546001600160a01b039093166001600160a01b031990931683179055546000918252609a602052604090912055565b6000811580612bb7575082155b15612bc457506000610c81565b61295c82610f8b85670de0b6b3a7640000612903565b6001600160a01b038216612c35576040805162461bcd60e51b815260206004820152601f60248201527f45524332303a206d696e7420746f20746865207a65726f206164647265737300604482015290519081900360640190fd5b612c4160008383612e69565b606754612c4e9082612aa1565b6067556001600160a01b038216600090815260656020526040902054612c749082612aa1565b6001600160a01b03831660008181526065602090815260408083209490945583518581529351929391927fddf252ad1be2c89b69c2b068fc378daa952ba7f163c4a11628f55a4df523b3ef9281900390910190a35050565b600061295c83836040518060400160405280601e81526020017f536166654d6174683a207375627472616374696f6e206f766572666c6f7700008152506125ee565b303b1590565b600054610100900460ff1680612d2d5750612d2d612d0e565b80612d3b575060005460ff16155b612d765760405162461bcd60e51b815260040180806020018281038252602e815260200180613209602e913960400191505060405180910390fd5b600054610100900460ff16158015612da1576000805460ff1961ff0019909116610100171660011790555b612da9612f26565b612db38383612fc7565b8015612dc5576000805461ff00191690555b505050565b609780546001600160a01b0319166001600160a01b0384161790558051612dc590609890602084019061309f565b6000841580612e05575085155b15612e1257506000612e60565b6000612e2a86610f8b89670de0b6b3a7640000612903565b9050848111612e3d576000915050612e60565b6000612e5b82610f8b868189612e558d81878f612ccc565b90612903565b925050505b95945050505050565b612e74838383612dc5565b612e7d83611f4d565b15612dc5576040805162461bcd60e51b815260206004820152600f60248201526e636f6f6c646f776e2061637469766560881b604482015290519081900360640190fd5b60008183612f105760405162461bcd60e51b815260206004820181815283516024840152835190928392604490910191908501908083836000831561264257818101518382015260200161262a565b506000838581612f1c57fe5b0495945050505050565b600054610100900460ff1680612f3f5750612f3f612d0e565b80612f4d575060005460ff16155b612f885760405162461bcd60e51b815260040180806020018281038252602e815260200180613209602e913960400191505060405180910390fd5b600054610100900460ff16158015612fb3576000805460ff1961ff0019909116610100171660011790555b8015610cf0576000805461ff001916905550565b600054610100900460ff1680612fe05750612fe0612d0e565b80612fee575060005460ff16155b6130295760405162461bcd60e51b815260040180806020018281038252602e815260200180613209602e913960400191505060405180910390fd5b600054610100900460ff16158015613054576000805460ff1961ff0019909116610100171660011790555b825161306790606890602086019061309f565b50815161307b90606990602085019061309f565b50606a805460ff191660121790558015612dc5576000805461ff0019169055505050565b828054600181600116156101000203166002900490600052602060002090601f016020900481019282601f106130e057805160ff191683800117855561310d565b8280016001018555821561310d579182015b8281111561310d5782518255916020019190600101906130f2565b5061311992915061311d565b5090565b5b80821115613119576000815560010161311e56fe45524332303a207472616e7366657220746f20746865207a65726f206164647265737345524332303a206275726e20616d6f756e7420657863656564732062616c616e636545524332303a20617070726f766520746f20746865207a65726f206164647265737345524332303a207472616e7366657220616d6f756e7420657863656564732062616c616e6365536166654d6174683a206d756c7469706c69636174696f6e206f766572666c6f7745524332303a207472616e7366657220616d6f756e74206578636565647320616c6c6f77616e6365436f6e747261637420696e7374616e63652068617320616c7265616479206265656e20696e697469616c697a656445524332303a206275726e2066726f6d20746865207a65726f206164647265737345524332303a207472616e736665722066726f6d20746865207a65726f206164647265737345524332303a20617070726f76652066726f6d20746865207a65726f206164647265737345524332303a2064656372656173656420616c6c6f77616e63652062656c6f77207a65726fa26469706673582212203d17dce4c5e8b6ccb05e4ea9533a8918f28cf310087df68ad4430d67692ea38664736f6c634300060c0033",
  "linkReferences": {},
  "deployedLinkReferences": {}
}