{
  "_format": "hh-sol-artifact-1",
  "contractName": "PoolLogic",
  "sourceName": "contracts/PoolLogic.sol",
  "abi": [
    {
      "anonymous": false,
      "inputs": [
        {
          "indexed": true,
          "internalType": "address",
          "name": "owner",
          "type": "address"
        },
        {
          "indexed": true,
          "internalType": "address",
          "name": "spender",
          "type": "address"
        },
        {
          "indexed": false,
          "internalType": "uint256",
          "name": "value",
          "type": "uint256"
        }
      ],
      "name": "Approval",
      "type": "event"
    },
    {
      "anonymous": false,
      "inputs": [
        {
          "indexed": false,
          "internalType": "address",
          "name": "fundAddress",
          "type": "address"
        },
        {
          "indexed": false,
          "internalType": "address",
          "name": "investor",
          "type": "address"
        },
        {
          "indexed": false,
          "internalType": "uint256",
          "name": "valueDeposited",
          "type": "uint256"
        },
        {
          "indexed": false,
          "internalType": "uint256",
          "name": "fundTokensReceived",
          "type": "uint256"
        },
        {
          "indexed": false,
          "internalType": "uint256",
          "name": "totalInvestorFundTokens",
          "type": "uint256"
        },
        {
          "indexed": false,
          "internalType": "uint256",
          "name": "fundValue",
          "type": "uint256"
        },
        {
          "indexed": false,
          "internalType": "uint256",
          "name": "totalSupply",
          "type": "uint256"
        },
        {
          "indexed": false,
          "internalType": "uint256",
          "name": "time",
          "type": "uint256"
        }
      ],
      "name": "Deposit",
      "type": "event"
    },
    {
      "anonymous": false,
      "inputs": [
        {
          "indexed": false,
          "internalType": "address",
          "name": "pool",
          "type": "address"
        },
        {
          "indexed": false,
          "internalType": "address",
          "name": "manager",
          "type": "address"
        },
        {
          "indexed": false,
          "internalType": "uint256",
          "name": "available",
          "type": "uint256"
        },
        {
          "indexed": false,
          "internalType": "uint256",
          "name": "daoFee",
          "type": "uint256"
        },
        {
          "indexed": false,
          "internalType": "uint256",
          "name": "managerFee",
          "type": "uint256"
        },
        {
          "indexed": false,
          "internalType": "uint256",
          "name": "tokenPriceAtLastFeeMint",
          "type": "uint256"
        }
      ],
      "name": "ManagerFeeMinted",
      "type": "event"
    },
    {
      "anonymous": false,
      "inputs": [
        {
          "indexed": false,
          "internalType": "address",
          "name": "newManager",
          "type": "address"
        },
        {
          "indexed": false,
          "internalType": "string",
          "name": "newManagerName",
          "type": "string"
        }
      ],
      "name": "ManagerUpdated",
      "type": "event"
    },
    {
      "anonymous": false,
      "inputs": [
        {
          "indexed": false,
          "internalType": "address",
          "name": "poolManagerLogic",
          "type": "address"
        },
        {
          "indexed": false,
          "internalType": "address",
          "name": "from",
          "type": "address"
        }
      ],
      "name": "PoolManagerLogicSet",
      "type": "event"
    },
    {
      "anonymous": false,
      "inputs": [
        {
          "indexed": false,
          "internalType": "bool",
          "name": "isPoolPrivate",
          "type": "bool"
        }
      ],
      "name": "PoolPrivacyUpdated",
      "type": "event"
    },
    {
      "anonymous": false,
      "inputs": [
        {
          "indexed": true,
          "internalType": "address",
          "name": "from",
          "type": "address"
        },
        {
          "indexed": true,
          "internalType": "address",
          "name": "to",
          "type": "address"
        },
        {
          "indexed": false,
          "internalType": "uint256",
          "name": "value",
          "type": "uint256"
        }
      ],
      "name": "Transfer",
      "type": "event"
    },
    {
      "anonymous": false,
      "inputs": [
        {
          "indexed": false,
          "internalType": "address",
          "name": "fundAddress",
          "type": "address"
        },
        {
          "indexed": false,
          "internalType": "address",
          "name": "investor",
          "type": "address"
        },
        {
          "indexed": false,
          "internalType": "uint256",
          "name": "valueWithdrawn",
          "type": "uint256"
        },
        {
          "indexed": false,
          "internalType": "uint256",
          "name": "fundTokensWithdrawn",
          "type": "uint256"
        },
        {
          "indexed": false,
          "internalType": "uint256",
          "name": "totalInvestorFundTokens",
          "type": "uint256"
        },
        {
          "indexed": false,
          "internalType": "uint256",
          "name": "fundValue",
          "type": "uint256"
        },
        {
          "indexed": false,
          "internalType": "uint256",
          "name": "totalSupply",
          "type": "uint256"
        },
        {
          "indexed": false,
          "internalType": "uint256",
          "name": "time",
          "type": "uint256"
        }
      ],
      "name": "Withdrawal",
      "type": "event"
    },
    {
      "inputs": [
        {
          "internalType": "address",
          "name": "member",
          "type": "address"
        }
      ],
      "name": "addMember",
      "outputs": [],
      "stateMutability": "nonpayable",
      "type": "function"
    },
    {
      "inputs": [
        {
          "internalType": "address[]",
          "name": "members",
          "type": "address[]"
        }
      ],
      "name": "addMembers",
      "outputs": [],
      "stateMutability": "nonpayable",
      "type": "function"
    },
    {
      "inputs": [
        {
          "internalType": "address",
          "name": "owner",
          "type": "address"
        },
        {
          "internalType": "address",
          "name": "spender",
          "type": "address"
        }
      ],
      "name": "allowance",
      "outputs": [
        {
          "internalType": "uint256",
          "name": "",
          "type": "uint256"
        }
      ],
      "stateMutability": "view",
      "type": "function"
    },
    {
      "inputs": [
        {
          "internalType": "address",
          "name": "spender",
          "type": "address"
        },
        {
          "internalType": "uint256",
          "name": "amount",
          "type": "uint256"
        }
      ],
      "name": "approve",
      "outputs": [
        {
          "internalType": "bool",
          "name": "",
          "type": "bool"
        }
      ],
      "stateMutability": "nonpayable",
      "type": "function"
    },
    {
      "inputs": [],
      "name": "availableManagerFee",
      "outputs": [
        {
          "internalType": "uint256",
          "name": "",
          "type": "uint256"
        }
      ],
      "stateMutability": "view",
      "type": "function"
    },
    {
      "inputs": [
        {
          "internalType": "address",
          "name": "account",
          "type": "address"
        }
      ],
      "name": "balanceOf",
      "outputs": [
        {
          "internalType": "uint256",
          "name": "",
          "type": "uint256"
        }
      ],
      "stateMutability": "view",
      "type": "function"
    },
    {
      "inputs": [
        {
          "internalType": "address",
          "name": "newManager",
          "type": "address"
        },
        {
          "internalType": "string",
          "name": "newManagerName",
          "type": "string"
        }
      ],
      "name": "changeManager",
      "outputs": [],
      "stateMutability": "nonpayable",
      "type": "function"
    },
    {
      "inputs": [],
      "name": "creationTime",
      "outputs": [
        {
          "internalType": "uint256",
          "name": "",
          "type": "uint256"
        }
      ],
      "stateMutability": "view",
      "type": "function"
    },
    {
      "inputs": [],
      "name": "creator",
      "outputs": [
        {
          "internalType": "address",
          "name": "",
          "type": "address"
        }
      ],
      "stateMutability": "view",
      "type": "function"
    },
    {
      "inputs": [],
      "name": "decimals",
      "outputs": [
        {
          "internalType": "uint8",
          "name": "",
          "type": "uint8"
        }
      ],
      "stateMutability": "view",
      "type": "function"
    },
    {
      "inputs": [
        {
          "internalType": "address",
          "name": "spender",
          "type": "address"
        },
        {
          "internalType": "uint256",
          "name": "subtractedValue",
          "type": "uint256"
        }
      ],
      "name": "decreaseAllowance",
      "outputs": [
        {
          "internalType": "bool",
          "name": "",
          "type": "bool"
        }
      ],
      "stateMutability": "nonpayable",
      "type": "function"
    },
    {
      "inputs": [
        {
          "internalType": "uint256",
          "name": "_susdAmount",
          "type": "uint256"
        }
      ],
      "name": "deposit",
      "outputs": [
        {
          "internalType": "uint256",
          "name": "",
          "type": "uint256"
        }
      ],
      "stateMutability": "nonpayable",
      "type": "function"
    },
    {
      "inputs": [],
      "name": "factory",
      "outputs": [
        {
          "internalType": "address",
          "name": "",
          "type": "address"
        }
      ],
      "stateMutability": "view",
      "type": "function"
    },
    {
      "inputs": [],
      "name": "getExitFeeCooldown",
      "outputs": [
        {
          "internalType": "uint256",
          "name": "",
          "type": "uint256"
        }
      ],
      "stateMutability": "view",
      "type": "function"
    },
    {
      "inputs": [
        {
          "internalType": "address",
          "name": "sender",
          "type": "address"
        }
      ],
      "name": "getExitFeeRemainingCooldown",
      "outputs": [
        {
          "internalType": "uint256",
          "name": "",
          "type": "uint256"
        }
      ],
      "stateMutability": "view",
      "type": "function"
    },
    {
      "inputs": [],
      "name": "getFundSummary",
      "outputs": [
        {
          "internalType": "string",
          "name": "",
          "type": "string"
        },
        {
          "internalType": "uint256",
          "name": "",
          "type": "uint256"
        },
        {
          "internalType": "uint256",
          "name": "",
          "type": "uint256"
        },
        {
          "internalType": "address",
          "name": "",
          "type": "address"
        },
        {
          "internalType": "string",
          "name": "",
          "type": "string"
        },
        {
          "internalType": "uint256",
          "name": "",
          "type": "uint256"
        },
        {
          "internalType": "bool",
          "name": "",
          "type": "bool"
        },
        {
          "internalType": "uint256",
          "name": "",
          "type": "uint256"
        },
        {
          "internalType": "uint256",
          "name": "",
          "type": "uint256"
        },
        {
          "internalType": "uint256",
          "name": "",
          "type": "uint256"
        },
        {
          "internalType": "uint256",
          "name": "",
          "type": "uint256"
        }
      ],
      "stateMutability": "view",
      "type": "function"
    },
    {
      "inputs": [],
      "name": "getMembers",
      "outputs": [
        {
          "internalType": "address[]",
          "name": "",
          "type": "address[]"
        }
      ],
      "stateMutability": "view",
      "type": "function"
    },
    {
      "inputs": [],
      "name": "getPoolManagerLogic",
      "outputs": [
        {
          "internalType": "address",
          "name": "",
          "type": "address"
        }
      ],
      "stateMutability": "view",
      "type": "function"
    },
    {
      "inputs": [
        {
          "internalType": "address",
          "name": "spender",
          "type": "address"
        },
        {
          "internalType": "uint256",
          "name": "addedValue",
          "type": "uint256"
        }
      ],
      "name": "increaseAllowance",
      "outputs": [
        {
          "internalType": "bool",
          "name": "",
          "type": "bool"
        }
      ],
      "stateMutability": "nonpayable",
      "type": "function"
    },
    {
      "inputs": [
        {
          "internalType": "address",
          "name": "_factory",
          "type": "address"
        },
        {
          "internalType": "bool",
          "name": "_privatePool",
          "type": "bool"
        },
        {
          "internalType": "address",
          "name": "_manager",
          "type": "address"
        },
        {
          "internalType": "string",
          "name": "_managerName",
          "type": "string"
        },
        {
          "internalType": "string",
          "name": "_fundName",
          "type": "string"
        },
        {
          "internalType": "address",
          "name": "_poolManagerLogic",
          "type": "address"
        }
      ],
      "name": "initialize",
      "outputs": [],
      "stateMutability": "nonpayable",
      "type": "function"
    },
    {
      "inputs": [
        {
          "internalType": "address",
          "name": "member",
          "type": "address"
        }
      ],
      "name": "isMemberAllowed",
      "outputs": [
        {
          "internalType": "bool",
          "name": "",
          "type": "bool"
        }
      ],
      "stateMutability": "view",
      "type": "function"
    },
    {
      "inputs": [
        {
          "internalType": "address",
          "name": "",
          "type": "address"
        }
      ],
      "name": "lastDeposit",
      "outputs": [
        {
          "internalType": "uint256",
          "name": "",
          "type": "uint256"
        }
      ],
      "stateMutability": "view",
      "type": "function"
    },
    {
      "inputs": [],
      "name": "manager",
      "outputs": [
        {
          "internalType": "address",
          "name": "",
          "type": "address"
        }
      ],
      "stateMutability": "view",
      "type": "function"
    },
    {
      "inputs": [],
      "name": "managerName",
      "outputs": [
        {
          "internalType": "string",
          "name": "",
          "type": "string"
        }
      ],
      "stateMutability": "view",
      "type": "function"
    },
    {
      "inputs": [],
      "name": "mintManagerFee",
      "outputs": [],
      "stateMutability": "nonpayable",
      "type": "function"
    },
    {
      "inputs": [],
      "name": "name",
      "outputs": [
        {
          "internalType": "string",
          "name": "",
          "type": "string"
        }
      ],
      "stateMutability": "view",
      "type": "function"
    },
    {
      "inputs": [],
      "name": "numberOfMembers",
      "outputs": [
        {
          "internalType": "uint256",
          "name": "",
          "type": "uint256"
        }
      ],
      "stateMutability": "view",
      "type": "function"
    },
    {
      "inputs": [],
      "name": "poolManagerLogic",
      "outputs": [
        {
          "internalType": "address",
          "name": "",
          "type": "address"
        }
      ],
      "stateMutability": "view",
      "type": "function"
    },
    {
      "inputs": [],
      "name": "privatePool",
      "outputs": [
        {
          "internalType": "bool",
          "name": "",
          "type": "bool"
        }
      ],
      "stateMutability": "view",
      "type": "function"
    },
    {
      "inputs": [
        {
          "internalType": "address",
          "name": "member",
          "type": "address"
        }
      ],
      "name": "removeMember",
      "outputs": [],
      "stateMutability": "nonpayable",
      "type": "function"
    },
    {
      "inputs": [
        {
          "internalType": "address[]",
          "name": "members",
          "type": "address[]"
        }
      ],
      "name": "removeMembers",
      "outputs": [],
      "stateMutability": "nonpayable",
      "type": "function"
    },
    {
      "inputs": [
        {
          "internalType": "address",
          "name": "_poolManagerLogic",
          "type": "address"
        }
      ],
      "name": "setPoolManagerLogic",
      "outputs": [
        {
          "internalType": "bool",
          "name": "",
          "type": "bool"
        }
      ],
      "stateMutability": "nonpayable",
      "type": "function"
    },
    {
      "inputs": [
        {
          "internalType": "bool",
          "name": "_privatePool",
          "type": "bool"
        }
      ],
      "name": "setPoolPrivate",
      "outputs": [],
      "stateMutability": "nonpayable",
      "type": "function"
    },
    {
      "inputs": [],
      "name": "symbol",
      "outputs": [
        {
          "internalType": "string",
          "name": "",
          "type": "string"
        }
      ],
      "stateMutability": "view",
      "type": "function"
    },
    {
      "inputs": [],
      "name": "tokenPrice",
      "outputs": [
        {
          "internalType": "uint256",
          "name": "",
          "type": "uint256"
        }
      ],
      "stateMutability": "view",
      "type": "function"
    },
    {
      "inputs": [],
      "name": "tokenPriceAtLastFeeMint",
      "outputs": [
        {
          "internalType": "uint256",
          "name": "",
          "type": "uint256"
        }
      ],
      "stateMutability": "view",
      "type": "function"
    },
    {
      "inputs": [],
      "name": "totalFundValue",
      "outputs": [
        {
          "internalType": "uint256",
          "name": "",
          "type": "uint256"
        }
      ],
      "stateMutability": "view",
      "type": "function"
    },
    {
      "inputs": [],
      "name": "totalSupply",
      "outputs": [
        {
          "internalType": "uint256",
          "name": "",
          "type": "uint256"
        }
      ],
      "stateMutability": "view",
      "type": "function"
    },
    {
      "inputs": [
        {
          "internalType": "address",
          "name": "recipient",
          "type": "address"
        },
        {
          "internalType": "uint256",
          "name": "amount",
          "type": "uint256"
        }
      ],
      "name": "transfer",
      "outputs": [
        {
          "internalType": "bool",
          "name": "",
          "type": "bool"
        }
      ],
      "stateMutability": "nonpayable",
      "type": "function"
    },
    {
      "inputs": [
        {
          "internalType": "address",
          "name": "sender",
          "type": "address"
        },
        {
          "internalType": "address",
          "name": "recipient",
          "type": "address"
        },
        {
          "internalType": "uint256",
          "name": "amount",
          "type": "uint256"
        }
      ],
      "name": "transferFrom",
      "outputs": [
        {
          "internalType": "bool",
          "name": "",
          "type": "bool"
        }
      ],
      "stateMutability": "nonpayable",
      "type": "function"
    },
    {
      "inputs": [
        {
          "internalType": "uint256",
          "name": "_fundTokenAmount",
          "type": "uint256"
        }
      ],
      "name": "withdraw",
      "outputs": [],
      "stateMutability": "nonpayable",
      "type": "function"
    }
  ],
  "bytecode": "0x608060405234801561001057600080fd5b50613643806100206000396000f3fe608060405234801561001057600080fd5b50600436106102535760003560e01c8063750226de11610146578063adefd871116100c3578063cc3c6df611610087578063cc3c6df614610ab3578063d8270dce14610abb578063dd62ed3e14610ac3578063eda96ea914610af1578063edbf6f5014610af9578063fed4416a14610b0157610253565b8063adefd87114610a1c578063b6b55f2514610a42578063bbbf725b14610a5f578063c45a015514610a85578063ca6d56dc14610a8d57610253565b80639eab52531161010a5780639eab52531461095c578063a30e3fa9146109b4578063a457c2d7146109bc578063a9059cbb146109e8578063ad60ffcc14610a1457610253565b8063750226de146109165780637714f39d1461093c5780637ff9b5961461094457806395d89b411461094c5780639e24b07f1461095457610253565b8063313ce567116101d45780635221366311610198578063522136631461063e57806359b5e75e146106f257806359c25f20146106fa5780636f4d469b1461084f57806370a08231146108f057610253565b8063313ce5671461052c578063395093511461054a5780633babaad51461057657806346ee84b014610595578063481c6a751461063657610253565b80631c5918d21161021b5780631c5918d21461037b5780631e50a4a6146104ab57806323b872dd146104b357806329d16ee8146104e95780632e1a7d4d1461050f57610253565b806302d05d3f1461025857806306fdde031461027c578063095ea7b3146102f95780630b1ca49a1461033957806318160ddd14610361575b600080fd5b610260610b09565b604080516001600160a01b039092168252519081900360200190f35b610284610b1d565b6040805160208082528351818301528351919283929083019185019080838360005b838110156102be5781810151838201526020016102a6565b50505050905090810190601f1680156102eb5780820380516001836020036101000a031916815260200191505b509250505060405180910390f35b6103256004803603604081101561030f57600080fd5b506001600160a01b038135169060200135610bb3565b604080519115158252519081900360200190f35b61035f6004803603602081101561034f57600080fd5b50356001600160a01b0316610bd1565b005b610369610c3d565b60408051918252519081900360200190f35b610383610c43565b60405180806020018c81526020018b81526020018a6001600160a01b0316815260200180602001898152602001881515815260200187815260200186815260200185815260200184815260200183810383528e818151815260200191508051906020019080838360005b838110156104055781810151838201526020016103ed565b50505050905090810190601f1680156104325780820380516001836020036101000a031916815260200191505b5083810382528a5181528a516020918201918c019080838360005b8381101561046557818101518382015260200161044d565b50505050905090810190601f1680156104925780820380516001836020036101000a031916815260200191505b509d505050505050505050505050505060405180910390f35b610260610dd6565b610325600480360360608110156104c957600080fd5b506001600160a01b03813581169160208101359091169060400135610de5565b610369600480360360208110156104ff57600080fd5b50356001600160a01b0316610e6c565b61035f6004803603602081101561052557600080fd5b5035610e7e565b610534610e89565b6040805160ff9092168252519081900360200190f35b6103256004803603604081101561056057600080fd5b506001600160a01b038135169060200135610e92565b61035f6004803603602081101561058c57600080fd5b50351515610ee0565b61035f600480360360208110156105ab57600080fd5b810190602081018135600160201b8111156105c557600080fd5b8201836020820111156105d757600080fd5b803590602001918460208302840111600160201b831117156105f857600080fd5b919080806020026020016040519081016040528093929190818152602001838360200280828437600092019190915250929550610f8e945050505050565b610260611035565b61035f6004803603604081101561065457600080fd5b6001600160a01b038235169190810190604081016020820135600160201b81111561067e57600080fd5b82018360208201111561069057600080fd5b803590602001918460018302840111600160201b831117156106b157600080fd5b91908080601f016020809104026020016040519081016040528093929190818152602001838380828437600092019190915250929550611044945050505050565b61032561116f565b61035f600480360360c081101561071057600080fd5b6001600160a01b0382358116926020810135151592604082013590921691810190608081016060820135600160201b81111561074b57600080fd5b82018360208201111561075d57600080fd5b803590602001918460018302840111600160201b8311171561077e57600080fd5b91908080601f0160208091040260200160405190810160405280939291908181526020018383808284376000920191909152509295949360208101935035915050600160201b8111156107d057600080fd5b8201836020820111156107e257600080fd5b803590602001918460018302840111600160201b8311171561080357600080fd5b91908080601f016020809104026020016040519081016040528093929190818152602001838380828437600092019190915250929550505090356001600160a01b031691506111789050565b61035f6004803603602081101561086557600080fd5b810190602081018135600160201b81111561087f57600080fd5b82018360208201111561089157600080fd5b803590602001918460208302840111600160201b831117156108b257600080fd5b9190808060200260200160405190810160405280939291908181526020018383602002808284376000920191909152509295506112b6945050505050565b6103696004803603602081101561090657600080fd5b50356001600160a01b031661134d565b6103256004803603602081101561092c57600080fd5b50356001600160a01b031661136c565b61036961141c565b610369611422565b61028461144c565b6102606114ad565b6109646114bc565b60408051602080825283518183015283519192839290830191858101910280838360005b838110156109a0578181015183820152602001610988565b505050509050019250505060405180910390f35b61036961151d565b610325600480360360408110156109d257600080fd5b506001600160a01b038135169060200135611523565b610325600480360360408110156109fe57600080fd5b506001600160a01b03813516906020013561158b565b61036961159f565b61036960048036036020811015610a3257600080fd5b50356001600160a01b0316611768565b61036960048036036020811015610a5857600080fd5b5035611833565b61032560048036036020811015610a7557600080fd5b50356001600160a01b0316611af9565b610260611b16565b61035f60048036036020811015610aa357600080fd5b50356001600160a01b0316611b25565b61035f611b8f565b610369611b99565b61036960048036036040811015610ad957600080fd5b506001600160a01b0381358116916020013516611b9f565b610369611bca565b610369611c40565b610284611cf6565b60cd5461010090046001600160a01b031681565b60688054604080516020601f6002600019610100600188161502019095169490940493840181900481028201810190925282815260609390929091830182828015610ba95780601f10610b7e57610100808354040283529160200191610ba9565b820191906000526020600020905b815481529060010190602001808311610b8c57829003601f168201915b5050505050905090565b6000610bc7610bc0611d57565b8484611d5b565b5060015b92915050565b6097546001600160a01b03163314610c1f576040805162461bcd60e51b815260206004820152600c60248201526b37b7363c9036b0b730b3b2b960a11b604482015290519081900360640190fd5b610c2881611af9565b610c3157610c3a565b610c3a81611e47565b50565b60675490565b60606000806000606060008060008060008060008060cf60009054906101000a90046001600160a01b03166001600160a01b031663b7a54526306040518263ffffffff1660e01b815260040180826001600160a01b03168152602001915050604080518083038186803b158015610cb957600080fd5b505afa158015610ccd573d6000803e3d6000fd5b505050506040513d6040811015610ce357600080fd5b50805160209091015160cf546040805163765808b560e11b8152815194965092945060009384936001600160a01b039093169263ecb0116a926004808301939192829003018186803b158015610d3857600080fd5b505afa158015610d4c573d6000803e3d6000fd5b505050506040513d6040811015610d6257600080fd5b5080516020909101519092509050610d78610b1d565b610d80610c3d565b610d8861159f565b610d90611035565b610d98611cf6565b60ce5460cd60009054906101000a900460ff168a8a8a8a9e509e509e509e509e509e509e509e509e509e509e5050505050909192939495969798999a565b60d2546001600160a01b031681565b6000610df2848484611f40565b610e6284610dfe611d57565b610e5d85604051806060016040528060288152602001613506602891396001600160a01b038a16600090815260666020526040812090610e3c611d57565b6001600160a01b03168152602081019190915260400160002054919061209d565b611d5b565b5060019392505050565b60d16020526000908152604090205481565b610c3a816000612134565b606a5460ff1690565b6000610bc7610e9f611d57565b84610e5d8560666000610eb0611d57565b6001600160a01b03908116825260208083019390935260409182016000908120918c1681529252902054906129ae565b6097546001600160a01b03163314610f2e576040805162461bcd60e51b815260206004820152600c60248201526b37b7363c9036b0b730b3b2b960a11b604482015290519081900360640190fd5b60cd5460ff1615158115151415610f85576040805162461bcd60e51b8152602060048201526016602482015275199b1859c81b5d5cdd08189948191a5999995c995b9d60521b604482015290519081900360640190fd5b610c3a81612a0f565b6097546001600160a01b03163314610fdc576040805162461bcd60e51b815260206004820152600c60248201526b37b7363c9036b0b730b3b2b960a11b604482015290519081900360640190fd5b60005b815181101561103157611004828281518110610ff757fe5b6020026020010151611af9565b61100d57611029565b61102982828151811061101c57fe5b6020026020010151611e47565b600101610fdf565b5050565b6097546001600160a01b031690565b6097546001600160a01b03163314611092576040805162461bcd60e51b815260206004820152600c60248201526b37b7363c9036b0b730b3b2b960a11b604482015290519081900360640190fd5b609780546001600160a01b0319166001600160a01b03841617905580516110c09060989060208401906133c4565b507f6ed15082ad038474841528b5badca105106d4463e44b5d434130dfb299aa3669828260405180836001600160a01b0316815260200180602001828103825283818151815260200191508051906020019080838360005b83811015611130578181015183820152602001611118565b50505050905090810190601f16801561115d5780820380516001836020036101000a031916815260200191505b50935050505060405180910390a15050565b60cd5460ff1681565b600054610100900460ff16806111915750611191612a56565b8061119f575060005460ff16155b6111da5760405162461bcd60e51b815260040180806020018281038252602e81526020018061352e602e913960400191505060405180910390fd5b600054610100900460ff16158015611205576000805460ff1961ff0019909116610100171660011790555b61122b83604051806040016040528060048152602001631112141560e21b815250612a5c565b6112358585612b12565b60cf80546001600160a01b0319166001600160a01b03891617905561125986612a0f565b60cd8054610100600160a81b03191633610100021790554260ce55670de0b6b3a764000060d05560d280546001600160a01b0319166001600160a01b03841617905580156112ad576000805461ff00191690555b50505050505050565b6097546001600160a01b03163314611304576040805162461bcd60e51b815260206004820152600c60248201526b37b7363c9036b0b730b3b2b960a11b604482015290519081900360640190fd5b60005b81518110156110315761131f828281518110610ff757fe5b1561132957611345565b61134582828151811061133857fe5b6020026020010151612b40565b600101611307565b6001600160a01b0381166000908152606560205260409020545b919050565b6097546000906001600160a01b031633146113bd576040805162461bcd60e51b815260206004820152600c60248201526b37b7363c9036b0b730b3b2b960a11b604482015290519081900360640190fd5b60d280546001600160a01b0319166001600160a01b0384169081179091556040805191825233602083015280517f63fb64c359a4cae97e1bf003c1ab11390b5f0e18cc5b3d67b90bd61c0f5c52fd9281900390910190a1506001919050565b60d05481565b60008061142d61159f565b90506000611439610c3d565b90506114458282612b9c565b9250505090565b60698054604080516020601f6002600019610100600188161502019095169490940493840181900481028201810190925282815260609390929091830182828015610ba95780601f10610b7e57610100808354040283529160200191610ba9565b60d2546001600160a01b031690565b60606099805480602002602001604051908101604052809291908181526020018280548015610ba957602002820191906000526020600020905b81546001600160a01b031681526001909101906020018083116114f6575050505050905090565b60995490565b6000610bc7611530611d57565b84610e5d856040518060600160405280602581526020016135c6602591396066600061155a611d57565b6001600160a01b03908116825260208083019390935260409182016000908120918d1681529252902054919061209d565b6000610bc7611598611d57565b8484611f40565b60d2546040805163e5406dbf60e01b8152905160009283926001600160a01b0390911691606091839163e5406dbf916004808201928892909190829003018186803b1580156115ed57600080fd5b505afa158015611601573d6000803e3d6000fd5b505050506040513d6000823e601f3d908101601f19168201604052602081101561162a57600080fd5b8101908080516040519392919084600160201b82111561164957600080fd5b90830190602082018581111561165e57600080fd5b82518660208202830111600160201b8211171561167a57600080fd5b82525081516020918201928201910280838360005b838110156116a757818101518382015260200161168f565b50505050905001604052505050905060008151905060005b8181101561175e57611754846001600160a01b0316630499123f8584815181106116e557fe5b60200260200101516040518263ffffffff1660e01b81526004018082815260200191505060206040518083038186803b15801561172157600080fd5b505afa158015611735573d6000803e3d6000fd5b505050506040513d602081101561174b57600080fd5b505186906129ae565b94506001016116bf565b5092935050505090565b60008060cf60009054906101000a90046001600160a01b03166001600160a01b031663eda96ea96040518163ffffffff1660e01b815260040160206040518083038186803b1580156117b957600080fd5b505afa1580156117cd573d6000803e3d6000fd5b505050506040513d60208110156117e357600080fd5b50516001600160a01b038416600090815260d160205260408120549192509061180c90836129ae565b90504281101561182157600092505050611367565b61182b8142612bcc565b949350505050565b600061183d611035565b6001600160a01b0316336001600160a01b0316148061185f575060cd5460ff16155b8061186e575061186e33611af9565b6118b6576040805162461bcd60e51b81526020600482015260146024820152731bdb9b1e481b595b58995c9cc8185b1b1bddd95960621b604482015290519081900360640190fd5b33600090815260d1602052604090204290556118d0612c0e565b60006118da61159f565b905060006118e6610c3d565b60d254604080516303ded65360e41b8152631cd554d160e21b600482015290519293506001600160a01b03909116918291633ded6530916024808301926020929190829003018186803b15801561193c57600080fd5b505afa158015611950573d6000803e3d6000fd5b505050506040513d602081101561196657600080fd5b5051604080516323b872dd60e01b81523360048201523060248201526044810188905290516001600160a01b03909216916323b872dd916064808201926020929091908290030181600087803b1580156119bf57600080fd5b505af11580156119d3573d6000803e3d6000fd5b505050506040513d60208110156119e957600080fd5b5051611a34576040805162461bcd60e51b81526020600482015260156024820152741d1bdad95b881d1c985b9cd9995c8819985a5b1959605a1b604482015290519081900360640190fd5b60008215611a5757611a5084611a4a8886612e8c565b90612ee5565b9050611a5a565b50845b611a643382612f27565b7f87fdcba84e083ebb8fd661bbafee3eb38764ec6f0cbeea8ed52deffa67bd45dc30338884611a923361134d565b611a9c8a8d6129ae565b611aa68a896129ae565b604080516001600160a01b039889168152969097166020870152858701949094526060850192909252608084015260a083015260c08201524260e08201529051908190036101000190a195945050505050565b6001600160a01b03166000908152609a6020526040902054151590565b60cf546001600160a01b031681565b6097546001600160a01b03163314611b73576040805162461bcd60e51b815260206004820152600c60248201526b37b7363c9036b0b730b3b2b960a11b604482015290519081900360640190fd5b611b7c81611af9565b15611b8657610c3a565b610c3a81612b40565b611b97612c0e565b565b60ce5481565b6001600160a01b03918216600090815260666020908152604080832093909416825291909152205490565b60cf546040805163eda96ea960e01b815290516000926001600160a01b03169163eda96ea9916004808301926020929190829003018186803b158015611c0f57600080fd5b505afa158015611c23573d6000803e3d6000fd5b505050506040513d6020811015611c3957600080fd5b5051905090565b600080611c4b61159f565b90506000611c57610c3d565b60cf5460408051635bd2a29360e11b8152306004820152815193945060009384936001600160a01b03169263b7a545269260248082019391829003018186803b158015611ca357600080fd5b505afa158015611cb7573d6000803e3d6000fd5b505050506040513d6040811015611ccd57600080fd5b50805160209091015160d0549193509150611ced90859085908585613019565b94505050505090565b60988054604080516020601f6002600019610100600188161502019095169490940493840181900481028201810190925282815260609390929091830182828015610ba95780601f10610b7e57610100808354040283529160200191610ba9565b3390565b6001600160a01b038316611da05760405162461bcd60e51b81526004018080602001828103825260248152602001806135a26024913960400191505060405180910390fd5b6001600160a01b038216611de55760405162461bcd60e51b815260040180806020018281038252602281526020018061349d6022913960400191505060405180910390fd5b6001600160a01b03808416600081815260666020908152604080832094871680845294825291829020859055815185815291517f8c5be1e5ebec7d5bd14f71427d1e84f3dd0314c0f7b2291e5b200ac8c7c3b9259281900390910190a3505050565b6099546001600160a01b0382166000908152609a6020526040812054611e6e906001612bcc565b905060006099611e7f846001612bcc565b81548110611e8957fe5b600091825260209091200154609980546001600160a01b039092169250829184908110611eb257fe5b600091825260209091200180546001600160a01b0319166001600160a01b0392909216919091179055611ee68260016129ae565b6001600160a01b038083166000908152609a6020526040808220939093559086168152908120556099805480611f1857fe5b600082815260209020810160001990810180546001600160a01b031916905501905550505050565b6001600160a01b038316611f855760405162461bcd60e51b815260040180806020018281038252602581526020018061357d6025913960400191505060405180910390fd5b6001600160a01b038216611fca5760405162461bcd60e51b81526004018080602001828103825260238152602001806134586023913960400191505060405180910390fd5b611fd5838383613092565b612012816040518060600160405280602681526020016134bf602691396001600160a01b038616600090815260656020526040902054919061209d565b6001600160a01b03808516600090815260656020526040808220939093559084168152205461204190826129ae565b6001600160a01b0380841660008181526065602090815260409182902094909455805185815290519193928716927fddf252ad1be2c89b69c2b068fc378daa952ba7f163c4a11628f55a4df523b3ef92918290030190a3505050565b6000818484111561212c5760405162461bcd60e51b81526004018080602001828103825283818151815260200191508051906020019080838360005b838110156120f15781810151838201526020016120d9565b50505050905090810190601f16801561211e5780820380516001836020036101000a031916815260200191505b509250505060405180910390fd5b505050900390565b8161213e3361134d565b101561217b5760405162461bcd60e51b81526004018080602001828103825260238152602001806135eb6023913960400191505060405180910390fd5b600080600061218933611768565b111561220e5760cf546040805163765808b560e11b815281516001600160a01b039093169263ecb0116a92600480840193919291829003018186803b1580156121d157600080fd5b505afa1580156121e5573d6000803e3d6000fd5b505050506040513d60408110156121fb57600080fd5b5080516020909101519092509050612216565b506000905060015b600061222682611a4a8786612e8c565b33600090815260d160205260408120805491905590915081156122c35760cf5460408051631d68702d60e01b815290516000926001600160a01b031691631d68702d916004808301926020929190829003018186803b15801561228857600080fd5b505afa15801561229c573d6000803e3d6000fd5b505050506040513d60208110156122b257600080fd5b505190506122c1338285611f40565b505b6122cb612c0e565b60006122d561159f565b90506122e18784612bcc565b965060006123026122f0610c3d565b611a4a8a670de0b6b3a7640000612e8c565b905061230e33896130ea565b60d2546040805163e5406dbf60e01b815290516001600160a01b0390921691606091839163e5406dbf91600480820192600092909190829003018186803b15801561235857600080fd5b505afa15801561236c573d6000803e3d6000fd5b505050506040513d6000823e601f3d908101601f19168201604052602081101561239557600080fd5b8101908080516040519392919084600160201b8211156123b457600080fd5b9083019060208201858111156123c957600080fd5b82518660208202830111600160201b821117156123e557600080fd5b82525081516020918201928201910280838360005b838110156124125781810151838201526020016123fa565b5050505090500160405250505090506000815190508915612743576000836001600160a01b03166305a2ee2a6040518163ffffffff1660e01b815260040160206040518083038186803b15801561246857600080fd5b505afa15801561247c573d6000803e3d6000fd5b505050506040513d602081101561249257600080fd5b5051604080516321f8a72160e01b81526b53797374656d53746174757360a01b600482015290516001600160a01b03909216916321f8a72191602480820192602092909190829003018186803b1580156124eb57600080fd5b505afa1580156124ff573d6000803e3d6000fd5b505050506040513d602081101561251557600080fd5b5051905060005b8281101561273c57816001600160a01b03166342a28e2185838151811061253f57fe5b60200260200101516040518263ffffffff1660e01b81526004018082815260200191505060006040518083038186803b15801561257b57600080fd5b505afa92505050801561258c575060015b61259557612734565b6000856001600160a01b0316633ded65308684815181106125b257fe5b60200260200101516040518263ffffffff1660e01b81526004018082815260200191505060206040518083038186803b1580156125ee57600080fd5b505afa158015612602573d6000803e3d6000fd5b505050506040513d602081101561261857600080fd5b5051604080516370a0823160e01b815230600482015290519192506000916001600160a01b038416916370a08231916024808301926020929190829003018186803b15801561266657600080fd5b505afa15801561267a573d6000803e3d6000fd5b505050506040513d602081101561269057600080fd5b5051905060006126ac670de0b6b3a7640000611a4a848c612e8c565b90508015612730576040805163a9059cbb60e01b81523360048201526024810183905290516001600160a01b0385169163a9059cbb9160448083019260209291908290030181600087803b15801561270357600080fd5b505af1158015612717573d6000803e3d6000fd5b505050506040513d602081101561272d57600080fd5b50505b5050505b60010161251c565b50506128f6565b60005b818110156128f4576000846001600160a01b0316633ded653085848151811061276b57fe5b60200260200101516040518263ffffffff1660e01b81526004018082815260200191505060206040518083038186803b1580156127a757600080fd5b505afa1580156127bb573d6000803e3d6000fd5b505050506040513d60208110156127d157600080fd5b5051604080516370a0823160e01b815230600482015290519192506000916001600160a01b038416916370a08231916024808301926020929190829003018186803b15801561281f57600080fd5b505afa158015612833573d6000803e3d6000fd5b505050506040513d602081101561284957600080fd5b505190506000612865670de0b6b3a7640000611a4a848b612e8c565b905080156128e9576040805163a9059cbb60e01b81523360048201526024810183905290516001600160a01b0385169163a9059cbb9160448083019260209291908290030181600087803b1580156128bc57600080fd5b505af11580156128d0573d6000803e3d6000fd5b505050506040513d60208110156128e657600080fd5b50505b505050600101612746565b505b60006129028587612e8c565b33600081815260d1602052604090208990559091507f79d44cc8beeed36226f14818b2ecaca7ef252bcd56c9ae35f5a86869dbdefb97903090838f6129468361134d565b61294e61159f565b612956610c3d565b604080516001600160a01b039889168152969097166020870152858701949094526060850192909252608084015260a083015260c08201524260e08201529051908190036101000190a1505050505050505050505050565b600082820183811015612a08576040805162461bcd60e51b815260206004820152601b60248201527f536166654d6174683a206164646974696f6e206f766572666c6f770000000000604482015290519081900360640190fd5b9392505050565b60cd805482151560ff19909116811790915560408051918252517f8d75e9ede4188432084b863d70b3416010c97547dfeb4fc17734d2e997ee0f399181900360200190a150565b303b1590565b600054610100900460ff1680612a755750612a75612a56565b80612a83575060005460ff16155b612abe5760405162461bcd60e51b815260040180806020018281038252602e81526020018061352e602e913960400191505060405180910390fd5b600054610100900460ff16158015612ae9576000805460ff1961ff0019909116610100171660011790555b612af16131e6565b612afb8383613287565b8015612b0d576000805461ff00191690555b505050565b609780546001600160a01b0319166001600160a01b0384161790558051612b0d9060989060208401906133c4565b609980546001810182557f72a152ddfb8e864297c917af52ea6c1c68aead0fee1a62673fcc7e0c94979d000180546001600160a01b039093166001600160a01b031990931683179055546000918252609a602052604090912055565b6000811580612ba9575082155b15612bb657506000610bcb565b612a0882611a4a85670de0b6b3a7640000612e8c565b6000612a0883836040518060400160405280601e81526020017f536166654d6174683a207375627472616374696f6e206f766572666c6f77000081525061209d565b6000612c1861159f565b90506000612c24610c3d565b60cf5460408051635bd2a29360e11b8152306004820152815193945060009384936001600160a01b03169263b7a545269260248082019391829003018186803b158015612c7057600080fd5b505afa158015612c84573d6000803e3d6000fd5b505050506040513d6040811015612c9a57600080fd5b50805160209091015160d0549193509150600090612cbd90869086908686613019565b90506064811015612cd2575050505050611b97565b60cf5460408051631d68702d60e01b815290516000926001600160a01b031691631d68702d916004808301926020929190829003018186803b158015612d1757600080fd5b505afa158015612d2b573d6000803e3d6000fd5b505050506040513d6020811015612d4157600080fd5b505160cf546040805163272b69b960e21b8152815193945060009384936001600160a01b031692639cada6e49260048082019391829003018186803b158015612d8957600080fd5b505afa158015612d9d573d6000803e3d6000fd5b505050506040513d6040811015612db357600080fd5b50805160209091015190925090506000612dd182611a4a8786612e8c565b90506000612ddf8683612bcc565b90508115612df157612df18583612f27565b8015612e0857612e08612e02611035565b82612f27565b612e128a8a612b9c565b60d0557f755a8059d66d8d243bc9f6913f429a811f154599d0538bb0b6a2ac23f23d2ccd30612e3f611035565b60d054604080516001600160a01b0394851681529290931660208301528183018a9052606082018690526080820185905260a082015290519081900360c00190a150505050505050505050565b600082612e9b57506000610bcb565b82820282848281612ea857fe5b0414612a085760405162461bcd60e51b81526004018080602001828103825260218152602001806134e56021913960400191505060405180910390fd5b6000612a0883836040518060400160405280601a81526020017f536166654d6174683a206469766973696f6e206279207a65726f00000000000081525061335f565b6001600160a01b038216612f82576040805162461bcd60e51b815260206004820152601f60248201527f45524332303a206d696e7420746f20746865207a65726f206164647265737300604482015290519081900360640190fd5b612f8e60008383613092565b606754612f9b90826129ae565b6067556001600160a01b038216600090815260656020526040902054612fc190826129ae565b6001600160a01b03831660008181526065602090815260408083209490945583518581529351929391927fddf252ad1be2c89b69c2b068fc378daa952ba7f163c4a11628f55a4df523b3ef9281900390910190a35050565b6000841580613026575085155b1561303357506000613089565b600061304b86611a4a89670de0b6b3a7640000612e8c565b905084811161305e576000915050613089565b6000613084670de0b6b3a7640000611a4a86818961307e8d818a8f612bcc565b90612e8c565b925050505b95945050505050565b61309d838383612b0d565b6130a683611768565b15612b0d576040805162461bcd60e51b815260206004820152600f60248201526e636f6f6c646f776e2061637469766560881b604482015290519081900360640190fd5b6001600160a01b03821661312f5760405162461bcd60e51b815260040180806020018281038252602181526020018061355c6021913960400191505060405180910390fd5b61313b82600083613092565b6131788160405180606001604052806022815260200161347b602291396001600160a01b038516600090815260656020526040902054919061209d565b6001600160a01b03831660009081526065602052604090205560675461319e9082612bcc565b6067556040805182815290516000916001600160a01b038516917fddf252ad1be2c89b69c2b068fc378daa952ba7f163c4a11628f55a4df523b3ef9181900360200190a35050565b600054610100900460ff16806131ff57506131ff612a56565b8061320d575060005460ff16155b6132485760405162461bcd60e51b815260040180806020018281038252602e81526020018061352e602e913960400191505060405180910390fd5b600054610100900460ff16158015613273576000805460ff1961ff0019909116610100171660011790555b8015610c3a576000805461ff001916905550565b600054610100900460ff16806132a057506132a0612a56565b806132ae575060005460ff16155b6132e95760405162461bcd60e51b815260040180806020018281038252602e81526020018061352e602e913960400191505060405180910390fd5b600054610100900460ff16158015613314576000805460ff1961ff0019909116610100171660011790555b82516133279060689060208601906133c4565b50815161333b9060699060208501906133c4565b50606a805460ff191660121790558015612b0d576000805461ff0019169055505050565b600081836133ae5760405162461bcd60e51b81526020600482018181528351602484015283519092839260449091019190850190808383600083156120f15781810151838201526020016120d9565b5060008385816133ba57fe5b0495945050505050565b828054600181600116156101000203166002900490600052602060002090601f016020900481019282601f1061340557805160ff1916838001178555613432565b82800160010185558215613432579182015b82811115613432578251825591602001919060010190613417565b5061343e929150613442565b5090565b5b8082111561343e576000815560010161344356fe45524332303a207472616e7366657220746f20746865207a65726f206164647265737345524332303a206275726e20616d6f756e7420657863656564732062616c616e636545524332303a20617070726f766520746f20746865207a65726f206164647265737345524332303a207472616e7366657220616d6f756e7420657863656564732062616c616e6365536166654d6174683a206d756c7469706c69636174696f6e206f766572666c6f7745524332303a207472616e7366657220616d6f756e74206578636565647320616c6c6f77616e6365436f6e747261637420696e7374616e63652068617320616c7265616479206265656e20696e697469616c697a656445524332303a206275726e2066726f6d20746865207a65726f206164647265737345524332303a207472616e736665722066726f6d20746865207a65726f206164647265737345524332303a20617070726f76652066726f6d20746865207a65726f206164647265737345524332303a2064656372656173656420616c6c6f77616e63652062656c6f77207a65726f696e73756666696369656e742062616c616e6365206f662066756e6420746f6b656e73a26469706673582212200a384344bd8bde8165aeae1e360be76f1e85d6ac7904cbdab27c184597bec62664736f6c634300060c0033",
  "linkReferences": {},
  "deployedLinkReferences": {}
}