{
  "_format": "hh-sol-artifact-1",
  "contractName": "PoolLogic-ovm",
  "sourceName": "contracts/PoolLogic.sol",
  "abi": [
    {
      "anonymous": false,
      "inputs": [
        {
          "indexed": true,
          "internalType": "address",
          "name": "owner",
          "type": "address"
        },
        {
          "indexed": true,
          "internalType": "address",
          "name": "spender",
          "type": "address"
        },
        {
          "indexed": false,
          "internalType": "uint256",
          "name": "value",
          "type": "uint256"
        }
      ],
      "name": "Approval",
      "type": "event"
    },
    {
      "anonymous": false,
      "inputs": [
        {
          "indexed": false,
          "internalType": "address",
          "name": "fundAddress",
          "type": "address"
        },
        {
          "indexed": false,
          "internalType": "address",
          "name": "investor",
          "type": "address"
        },
        {
          "indexed": false,
          "internalType": "uint256",
          "name": "valueDeposited",
          "type": "uint256"
        },
        {
          "indexed": false,
          "internalType": "uint256",
          "name": "fundTokensReceived",
          "type": "uint256"
        },
        {
          "indexed": false,
          "internalType": "uint256",
          "name": "totalInvestorFundTokens",
          "type": "uint256"
        },
        {
          "indexed": false,
          "internalType": "uint256",
          "name": "fundValue",
          "type": "uint256"
        },
        {
          "indexed": false,
          "internalType": "uint256",
          "name": "totalSupply",
          "type": "uint256"
        },
        {
          "indexed": false,
          "internalType": "uint256",
          "name": "time",
          "type": "uint256"
        }
      ],
      "name": "Deposit",
      "type": "event"
    },
    {
      "anonymous": false,
      "inputs": [
        {
          "indexed": false,
          "internalType": "address",
          "name": "pool",
          "type": "address"
        },
        {
          "indexed": false,
          "internalType": "address",
          "name": "manager",
          "type": "address"
        },
        {
          "indexed": false,
          "internalType": "uint256",
          "name": "available",
          "type": "uint256"
        },
        {
          "indexed": false,
          "internalType": "uint256",
          "name": "daoFee",
          "type": "uint256"
        },
        {
          "indexed": false,
          "internalType": "uint256",
          "name": "managerFee",
          "type": "uint256"
        },
        {
          "indexed": false,
          "internalType": "uint256",
          "name": "tokenPriceAtLastFeeMint",
          "type": "uint256"
        }
      ],
      "name": "ManagerFeeMinted",
      "type": "event"
    },
    {
      "anonymous": false,
      "inputs": [
        {
          "indexed": false,
          "internalType": "address",
          "name": "account",
          "type": "address"
        }
      ],
      "name": "Paused",
      "type": "event"
    },
    {
      "anonymous": false,
      "inputs": [
        {
          "indexed": false,
          "internalType": "address",
          "name": "poolManagerLogic",
          "type": "address"
        },
        {
          "indexed": false,
          "internalType": "address",
          "name": "from",
          "type": "address"
        }
      ],
      "name": "PoolManagerLogicSet",
      "type": "event"
    },
    {
      "anonymous": false,
      "inputs": [
        {
          "indexed": false,
          "internalType": "bool",
          "name": "isPoolPrivate",
          "type": "bool"
        }
      ],
      "name": "PoolPrivacyUpdated",
      "type": "event"
    },
    {
      "anonymous": false,
      "inputs": [
        {
          "indexed": true,
          "internalType": "address",
          "name": "from",
          "type": "address"
        },
        {
          "indexed": true,
          "internalType": "address",
          "name": "to",
          "type": "address"
        },
        {
          "indexed": false,
          "internalType": "uint256",
          "name": "value",
          "type": "uint256"
        }
      ],
      "name": "Transfer",
      "type": "event"
    },
    {
      "anonymous": false,
      "inputs": [
        {
          "indexed": false,
          "internalType": "address",
          "name": "account",
          "type": "address"
        }
      ],
      "name": "Unpaused",
      "type": "event"
    },
    {
      "anonymous": false,
      "inputs": [
        {
          "indexed": false,
          "internalType": "address",
          "name": "fundAddress",
          "type": "address"
        },
        {
          "indexed": false,
          "internalType": "address",
          "name": "investor",
          "type": "address"
        },
        {
          "indexed": false,
          "internalType": "uint256",
          "name": "valueWithdrawn",
          "type": "uint256"
        },
        {
          "indexed": false,
          "internalType": "uint256",
          "name": "fundTokensWithdrawn",
          "type": "uint256"
        },
        {
          "indexed": false,
          "internalType": "uint256",
          "name": "totalInvestorFundTokens",
          "type": "uint256"
        },
        {
          "indexed": false,
          "internalType": "uint256",
          "name": "fundValue",
          "type": "uint256"
        },
        {
          "indexed": false,
          "internalType": "uint256",
          "name": "totalSupply",
          "type": "uint256"
        },
        {
          "indexed": false,
          "internalType": "uint256",
          "name": "time",
          "type": "uint256"
        }
      ],
      "name": "Withdrawal",
      "type": "event"
    },
    {
      "inputs": [
        {
          "internalType": "address",
          "name": "owner",
          "type": "address"
        },
        {
          "internalType": "address",
          "name": "spender",
          "type": "address"
        }
      ],
      "name": "allowance",
      "outputs": [
        {
          "internalType": "uint256",
          "name": "",
          "type": "uint256"
        }
      ],
      "stateMutability": "view",
      "type": "function"
    },
    {
      "inputs": [
        {
          "internalType": "address",
          "name": "spender",
          "type": "address"
        },
        {
          "internalType": "uint256",
          "name": "amount",
          "type": "uint256"
        }
      ],
      "name": "approve",
      "outputs": [
        {
          "internalType": "bool",
          "name": "",
          "type": "bool"
        }
      ],
      "stateMutability": "nonpayable",
      "type": "function"
    },
    {
      "inputs": [],
      "name": "availableManagerFee",
      "outputs": [
        {
          "internalType": "uint256",
          "name": "",
          "type": "uint256"
        }
      ],
      "stateMutability": "view",
      "type": "function"
    },
    {
      "inputs": [
        {
          "internalType": "address",
          "name": "account",
          "type": "address"
        }
      ],
      "name": "balanceOf",
      "outputs": [
        {
          "internalType": "uint256",
          "name": "",
          "type": "uint256"
        }
      ],
      "stateMutability": "view",
      "type": "function"
    },
    {
      "inputs": [],
      "name": "creationTime",
      "outputs": [
        {
          "internalType": "uint256",
          "name": "",
          "type": "uint256"
        }
      ],
      "stateMutability": "view",
      "type": "function"
    },
    {
      "inputs": [],
      "name": "creator",
      "outputs": [
        {
          "internalType": "address",
          "name": "",
          "type": "address"
        }
      ],
      "stateMutability": "view",
      "type": "function"
    },
    {
      "inputs": [],
      "name": "decimals",
      "outputs": [
        {
          "internalType": "uint8",
          "name": "",
          "type": "uint8"
        }
      ],
      "stateMutability": "view",
      "type": "function"
    },
    {
      "inputs": [
        {
          "internalType": "address",
          "name": "spender",
          "type": "address"
        },
        {
          "internalType": "uint256",
          "name": "subtractedValue",
          "type": "uint256"
        }
      ],
      "name": "decreaseAllowance",
      "outputs": [
        {
          "internalType": "bool",
          "name": "",
          "type": "bool"
        }
      ],
      "stateMutability": "nonpayable",
      "type": "function"
    },
    {
      "inputs": [
        {
          "internalType": "address",
          "name": "_asset",
          "type": "address"
        },
        {
          "internalType": "uint256",
          "name": "_amount",
          "type": "uint256"
        }
      ],
      "name": "deposit",
      "outputs": [
        {
          "internalType": "uint256",
          "name": "",
          "type": "uint256"
        }
      ],
      "stateMutability": "nonpayable",
      "type": "function"
    },
    {
      "inputs": [],
      "name": "factory",
      "outputs": [
        {
          "internalType": "address",
          "name": "",
          "type": "address"
        }
      ],
      "stateMutability": "view",
      "type": "function"
    },
    {
      "inputs": [],
      "name": "getExitCooldown",
      "outputs": [
        {
          "internalType": "uint256",
          "name": "",
          "type": "uint256"
        }
      ],
      "stateMutability": "view",
      "type": "function"
    },
    {
      "inputs": [
        {
          "internalType": "address",
          "name": "sender",
          "type": "address"
        }
      ],
      "name": "getExitRemainingCooldown",
      "outputs": [
        {
          "internalType": "uint256",
          "name": "",
          "type": "uint256"
        }
      ],
      "stateMutability": "view",
      "type": "function"
    },
    {
      "inputs": [],
      "name": "getFundSummary",
      "outputs": [
        {
          "internalType": "string",
          "name": "",
          "type": "string"
        },
        {
          "internalType": "uint256",
          "name": "",
          "type": "uint256"
        },
        {
          "internalType": "uint256",
          "name": "",
          "type": "uint256"
        },
        {
          "internalType": "address",
          "name": "",
          "type": "address"
        },
        {
          "internalType": "string",
          "name": "",
          "type": "string"
        },
        {
          "internalType": "uint256",
          "name": "",
          "type": "uint256"
        },
        {
          "internalType": "bool",
          "name": "",
          "type": "bool"
        },
        {
          "internalType": "uint256",
          "name": "",
          "type": "uint256"
        },
        {
          "internalType": "uint256",
          "name": "",
          "type": "uint256"
        }
      ],
      "stateMutability": "view",
      "type": "function"
    },
    {
      "inputs": [
        {
          "internalType": "address",
          "name": "spender",
          "type": "address"
        },
        {
          "internalType": "uint256",
          "name": "addedValue",
          "type": "uint256"
        }
      ],
      "name": "increaseAllowance",
      "outputs": [
        {
          "internalType": "bool",
          "name": "",
          "type": "bool"
        }
      ],
      "stateMutability": "nonpayable",
      "type": "function"
    },
    {
      "inputs": [
        {
          "internalType": "address",
          "name": "_factory",
          "type": "address"
        },
        {
          "internalType": "bool",
          "name": "_privatePool",
          "type": "bool"
        },
        {
          "internalType": "string",
          "name": "_fundName",
          "type": "string"
        },
        {
          "internalType": "string",
          "name": "_fundSymbol",
          "type": "string"
        },
        {
          "internalType": "address",
          "name": "_poolManagerLogic",
          "type": "address"
        }
      ],
      "name": "initialize",
      "outputs": [],
      "stateMutability": "nonpayable",
      "type": "function"
    },
    {
      "inputs": [
        {
          "internalType": "address",
          "name": "member",
          "type": "address"
        }
      ],
      "name": "isMemberAllowed",
      "outputs": [
        {
          "internalType": "bool",
          "name": "",
          "type": "bool"
        }
      ],
      "stateMutability": "view",
      "type": "function"
    },
    {
      "inputs": [
        {
          "internalType": "address",
          "name": "",
          "type": "address"
        }
      ],
      "name": "lastDeposit",
      "outputs": [
        {
          "internalType": "uint256",
          "name": "",
          "type": "uint256"
        }
      ],
      "stateMutability": "view",
      "type": "function"
    },
    {
      "inputs": [],
      "name": "managerName",
      "outputs": [
        {
          "internalType": "string",
          "name": "",
          "type": "string"
        }
      ],
      "stateMutability": "view",
      "type": "function"
    },
    {
      "inputs": [],
      "name": "mintManagerFee",
      "outputs": [],
      "stateMutability": "nonpayable",
      "type": "function"
    },
    {
      "inputs": [],
      "name": "name",
      "outputs": [
        {
          "internalType": "string",
          "name": "",
          "type": "string"
        }
      ],
      "stateMutability": "view",
      "type": "function"
    },
    {
      "inputs": [],
      "name": "paused",
      "outputs": [
        {
          "internalType": "bool",
          "name": "",
          "type": "bool"
        }
      ],
      "stateMutability": "view",
      "type": "function"
    },
    {
      "inputs": [],
      "name": "poolManagerLogic",
      "outputs": [
        {
          "internalType": "address",
          "name": "",
          "type": "address"
        }
      ],
      "stateMutability": "view",
      "type": "function"
    },
    {
      "inputs": [],
      "name": "privatePool",
      "outputs": [
        {
          "internalType": "bool",
          "name": "",
          "type": "bool"
        }
      ],
      "stateMutability": "view",
      "type": "function"
    },
    {
      "inputs": [
        {
          "internalType": "address",
          "name": "_poolManagerLogic",
          "type": "address"
        }
      ],
      "name": "setPoolManagerLogic",
      "outputs": [
        {
          "internalType": "bool",
          "name": "",
          "type": "bool"
        }
      ],
      "stateMutability": "nonpayable",
      "type": "function"
    },
    {
      "inputs": [
        {
          "internalType": "bool",
          "name": "_privatePool",
          "type": "bool"
        }
      ],
      "name": "setPoolPrivate",
      "outputs": [],
      "stateMutability": "nonpayable",
      "type": "function"
    },
    {
      "inputs": [],
      "name": "symbol",
      "outputs": [
        {
          "internalType": "string",
          "name": "",
          "type": "string"
        }
      ],
      "stateMutability": "view",
      "type": "function"
    },
    {
      "inputs": [],
      "name": "tokenPrice",
      "outputs": [
        {
          "internalType": "uint256",
          "name": "",
          "type": "uint256"
        }
      ],
      "stateMutability": "view",
      "type": "function"
    },
    {
      "inputs": [],
      "name": "tokenPriceAtLastFeeMint",
      "outputs": [
        {
          "internalType": "uint256",
          "name": "",
          "type": "uint256"
        }
      ],
      "stateMutability": "view",
      "type": "function"
    },
    {
      "inputs": [],
      "name": "totalFundValue",
      "outputs": [
        {
          "internalType": "uint256",
          "name": "",
          "type": "uint256"
        }
      ],
      "stateMutability": "view",
      "type": "function"
    },
    {
      "inputs": [],
      "name": "totalSupply",
      "outputs": [
        {
          "internalType": "uint256",
          "name": "",
          "type": "uint256"
        }
      ],
      "stateMutability": "view",
      "type": "function"
    },
    {
      "inputs": [
        {
          "internalType": "address",
          "name": "recipient",
          "type": "address"
        },
        {
          "internalType": "uint256",
          "name": "amount",
          "type": "uint256"
        }
      ],
      "name": "transfer",
      "outputs": [
        {
          "internalType": "bool",
          "name": "",
          "type": "bool"
        }
      ],
      "stateMutability": "nonpayable",
      "type": "function"
    },
    {
      "inputs": [
        {
          "internalType": "address",
          "name": "sender",
          "type": "address"
        },
        {
          "internalType": "address",
          "name": "recipient",
          "type": "address"
        },
        {
          "internalType": "uint256",
          "name": "amount",
          "type": "uint256"
        }
      ],
      "name": "transferFrom",
      "outputs": [
        {
          "internalType": "bool",
          "name": "",
          "type": "bool"
        }
      ],
      "stateMutability": "nonpayable",
      "type": "function"
    },
    {
      "inputs": [
        {
          "internalType": "uint256",
          "name": "_fundTokenAmount",
          "type": "uint256"
        }
      ],
      "name": "withdraw",
      "outputs": [],
      "stateMutability": "nonpayable",
      "type": "function"
    }
  ],
  "bytecode": "0x60806040523480156200001c576000806200001962000023565b50505b5062000090565b632a2a7adb598160e01b8152600481016020815285602082015260005b868110156200005d57808601518282016040015260200162000040565b506020828760640184336000905af158600e01573d6000803e3d6000fd5b3d6001141558600a015760016000f35b505050565b61406880620000a06000396000f3fe608060405234801561001957600080610016613a78565b50505b50600436106102045760003560e01c80635c975abb11610123578063ad60ffcc116100b6578063cc3c6df611610085578063cc3c6df614610879578063d8270dce14610881578063dd62ed3e14610889578063edbf6f50146108c0578063fed4416a146108c857610204565b8063ad60ffcc1461080b578063b8ea2b6e14610813578063bbbf725b14610842578063c45a01551461087157610204565b80637ff9b596116100f25780637ff9b5961461079157806395d89b4114610799578063a457c2d7146107a1578063a9059cbb146107d657610204565b80635c975abb1461072357806370a082311461072b578063750226de1461075a5780637714f39d1461078957610204565b806329d16ee81161019b5780633babaad51161016a5780633babaad5146106b65780634501b088146106de57806347e7ef24146106e657806359b5e75e1461071b57610204565b806329d16ee81461060e5780632e1a7d4d1461063d578063313ce56714610663578063395093511461068157610204565b806318160ddd116101d757806318160ddd146104885780631c5918d2146104a25780631e50a4a6146105c757806323b872dd146105cf57610204565b806302d05d3f1461021257806306fdde0314610236578063095ea7b3146102b55780630ccb30c7146102fe575b60008061020f613a78565b50505b61021a6108d0565b6040516001600160a01b03909116815260200160405180910390f35b61023e6108ef565b60405160208082528190810183818151815260200191508051906020019080838360005b8381101561027a578082015183820152602001610262565b50505050905090810190601f1680156102a75780820380516001836020036101000a031916815260200191505b509250505060405180910390f35b6102ea600480360360408110156102d4576000806102d1613a78565b50505b506001600160a01b0381351690602001356109ac565b604051901515815260200160405180910390f35b610486600480360360a081101561031d5760008061031a613a78565b50505b6001600160a01b03823516916020810135151591810190606081016040820135600160201b81111561035757600080610354613a78565b50505b8201836020820111156103725760008061036f613a78565b50505b803590602001918460018302840111600160201b8311171561039c57600080610399613a78565b50505b91908080601f01602080910402602001604051908101604052818152929190602084018383808284376000920191909152509295949360208101935035915050600160201b8111156103f6576000806103f3613a78565b50505b8201836020820111156104115760008061040e613a78565b50505b803590602001918460018302840111600160201b8311171561043b57600080610438613a78565b50505b91908080601f0160208091040260200160405190810160405281815292919060208401838380828437600092019190915250929550505090356001600160a01b031691506109ca9050565b005b610490610be9565b60405190815260200160405180910390f35b6104aa610bfa565b60405180806020018a8152602001898152602001886001600160a01b0316815260200180602001878152602001861515815260200185815260200184815260200183810383528c818151815260200191508051906020019080838360005b83811015610520578082015183820152602001610508565b50505050905090810190601f16801561054d5780820380516001836020036101000a031916815260200191505b50838103825288818151815260200191508051906020019080838360005b8381101561058357808201518382015260200161056b565b50505050905090810190601f1680156105b05780820380516001836020036101000a031916815260200191505b509b50505050505050505050505060405180910390f35b61021a610da1565b6102ea600480360360608110156105ee576000806105eb613a78565b50505b506001600160a01b03813581169160208101359091169060400135610dae565b6104906004803603602081101561062d5760008061062a613a78565b50505b50356001600160a01b0316610e42565b6104866004803603602081101561065c57600080610659613a78565b50505b5035610e5d565b61066b611542565b60405160ff909116815260200160405180910390f35b6102ea600480360360408110156106a05760008061069d613a78565b50505b506001600160a01b03813516906020013561155e565b610486600480360360208110156106d5576000806106d2613a78565b50505b503515156115c3565b6104906116aa565b6104906004803603604081101561070557600080610702613a78565b50505b506001600160a01b038135169060200135611765565b6102ea611c5f565b6102ea611c78565b6104906004803603602081101561074a57600080610747613a78565b50505b50356001600160a01b0316611c85565b6102ea6004803603602081101561077957600080610776613a78565b50505b50356001600160a01b0316611cad565b610490611e68565b610490611e72565b61023e611e9c565b6102ea600480360360408110156107c0576000806107bd613a78565b50505b506001600160a01b038135169060200135611f42565b6102ea600480360360408110156107f5576000806107f2613a78565b50505b506001600160a01b038135169060200135611fb8565b610490611fcc565b610490600480360360208110156108325760008061082f613a78565b50505b50356001600160a01b0316612230565b6102ea600480360360208110156108615760008061085e613a78565b50505b50356001600160a01b031661229a565b61021a61236d565b610486612379565b610490612383565b610490600480360360408110156108a8576000806108a5613a78565b50505b506001600160a01b038135811691602001351661238d565b6104906123cd565b61023e61253a565b600160fb6108dc613ae3565b906101000a90046001600160a01b031681565b60606068806108fc613ae3565b600181600116156101000203166002900480601f016020809104026020016040519081016040528181529190602083018280610936613ae3565b600181600116156101000203166002900480156109a25780601f10610970576101008083610962613ae3565b0402835291602001916109a2565b820191906000526020600020905b81610987613ae3565b8152906001019060200180831161097e57829003601f168201915b5050505050905090565b60006109c06109b96126c9565b84846126d4565b5060015b92915050565b600160006109d6613ae3565b906101000a900460ff16806109ee57506109ee6127fc565b80610a0b57506000806109ff613ae3565b906101000a900460ff16155b610a4f5760405162461bcd60e51b815260040180806020018281038252602e815260200180613fab602e913960400191505060405180910390610a4c613a78565b50505b6000600181610a5c613ae3565b906101000a900460ff161590508015610ac2576001600061010081610a7f613ae3565b8160ff02191690831515021790610a94613b3e565b50505060016000806101000a81610aa9613ae3565b8160ff02191690831515021790610abe613b3e565b5050505b610acc848461286d565b610ad46129a6565b8560fd600181610ae2613ae3565b816001600160a01b0302191690836001600160a01b0316021790610b04613b3e565b505050610b1085612abb565b5a610b19613b8c565b60fb61010081610b27613ae3565b816001600160a01b0302191690836001600160a01b0316021790610b49613b3e565b5050505a610b55613bd2565b8060fc610b60613b3e565b505050670de0b6b3a764000060fe8190610b78613b3e565b5050508161010060006101000a81610b8e613ae3565b816001600160a01b0302191690836001600160a01b0316021790610bb0613b3e565b5050508015610be15760008061010081610bc8613ae3565b8160ff02191690831515021790610bdd613b3e565b5050505b505050505050565b60006067610bf5613ae3565b905090565b606060008080838180808080808060fd610c12613ae3565b906101000a90046001600160a01b03166001600160a01b031663b7a545265a63996d79a5598160e01b8152602081600483336000905af158600e01573d6000803e3d6000fd5b3d6001141558600a015760016000f35b8051925060005b6040811015610c8657600082820152602001610c6f565b5050506040516001600160e01b031960e084901b1681526001600160a01b03909116600482015260240160408051808303818680610cc2613c18565b158015610cd757600080610cd4613a78565b50505b505a610ce1613c64565b5050505050158015610d00573d6000803e3d6000610cfd613a78565b50505b505050506040513d6040811015610d1f57600080610d1c613a78565b50505b8101908080519291906020018051939550929350610d4092506108ef915050565b610d48610be9565b610d50611fcc565b610d58612b19565b610d6061253a565b60fc610d6a613ae3565b600060fb610d76613ae3565b906101000a900460ff1688889a509a509a509a509a509a509a509a509a505050909192939495969798565b60006101006108dc613ae3565b6000610dbb848484612b6a565b610e3884610dc76126c9565b610e3385604051606081016040526028808252613f8360208301396001600160a01b038a1660009081526066602052604090206000610e046126c9565b6001600160a01b03166001600160a01b03168152602001908152602001600020610e2c613ae3565b9190612d08565b6126d4565b5060019392505050565b60ff6020528060005260406000209050610e5a613ae3565b81565b60006097610e69613ae3565b906101000a900460ff16610ecc5760405162461bcd60e51b815260206004820152601f60248201527f5265656e7472616e637947756172643a207265656e7472616e742063616c6c00604482015260640160405180910390610ec9613a78565b50505b60006097600181610edb613ae3565b8160ff02191690831515021790610ef0613b3e565b50505060c9600090610f00613ae3565b906101000a900460ff1615610f575760405162461bcd60e51b815260206004820152601060248201526f14185d5cd8589b194e881c185d5cd95960821b604482015260640160405180910390610f54613a78565b50505b80610f695a610f64613b8c565b611c85565b1015610fbb5760405162461bcd60e51b8152602060048201526014602482015273696e73756666696369656e742062616c616e636560601b604482015260640160405180910390610fb8613a78565b50505b610fcc5a610fc7613b8c565b612230565b156110185760405162461bcd60e51b815260206004820152600f60248201526e636f6f6c646f776e2061637469766560881b604482015260640160405180910390611015613a78565b50505b611020612da8565b600061102a611fcc565b90506000611051611039610be9565b61104b85670de0b6b3a76400006131d9565b90613241565b90506110655a61105f613b8c565b84613281565b600080610100611073613ae3565b906101000a90046001600160a01b031690506060816001600160a01b031663e5406dbf6040518163ffffffff1660e01b815260040160006040518083038186806110bb613c18565b1580156110d0576000806110cd613a78565b50505b505a6110da613c64565b50505050501580156110f9573d6000803e3d60006110f6613a78565b50505b505050506040513d6000823e601f3d908101601f19168201604052602081101561112b57600080611128613a78565b50505b8101908080516040519392919084600160201b82111561115357600080611150613a78565b50505b9083019060208201858111156111715760008061116e613a78565b50505b82518660208202830111600160201b8211171561119657600080611193613a78565b50505b825250602001908051906020019060200280838360005b838110156111c55780820151838201526020016111ad565b50505050905001604052505050905060008151905060005b818110156113fa5760008382815181106111f357fe5b602002602001015190506000816001600160a01b03166370a082315a63996d79a5598160e01b8152602081600483336000905af158600e01573d6000803e3d6000fd5b3d6001141558600a015760016000f35b8051925060005b60408110156112645760008282015260200161124d565b5050506040516001600160e01b031960e084901b1681526001600160a01b03909116600482015260240160206040518083038186806112a1613c18565b1580156112b6576000806112b3613a78565b50505b505a6112c0613c64565b50505050501580156112df573d6000803e3d60006112dc613a78565b50505b505050506040513d60208110156112fe576000806112fb613a78565b50505b8101908080519350600092506113249150670de0b6b3a7640000905061104b848b6131d9565b905080156113ef57826001600160a01b031663a9059cbb5a611344613b8c565b836040516001600160e01b031960e085901b1681526001600160a01b039092166004830152602482015260440160206040518083038160008780611386613c18565b15801561139b57600080611398613a78565b50505b505a6113a5613d4f565b5050505050501580156113c5573d6000803e3d60006113c2613a78565b50505b505050506040513d60208110156113e4576000806113e1613a78565b50505b810190808051505050505b5050506001016111dd565b506000611413670de0b6b3a764000061104b87896131d9565b90507f79d44cc8beeed36226f14818b2ecaca7ef252bcd56c9ae35f5a86869dbdefb975a63996d79a5598160e01b8152602081600483336000905af158600e01573d6000803e3d6000fd5b3d6001141558600a015760016000f35b8051925060005b604081101561148c57600082820152602001611475565b5050505a611498613b8c565b838a6114a65a610f64613b8c565b6114ae611fcc565b6114b6610be9565b5a6114bf613bd2565b6040516001600160a01b0398891681529690971660208701526040808701959095526060860193909352608085019190915260a084015260c083015260e082019290925261010001905180910390a15050505050506001609760006101000a81611527613ae3565b8160ff0219169083151502179061153c613b3e565b50505050565b600080606a61154f613ae3565b906101000a900460ff16905090565b60006109c061156b6126c9565b84610e33856066600061157c6126c9565b6001600160a01b03166001600160a01b031681526020019081526020016000206001600160a01b0389166000908152602091909152604090206115bd613ae3565b906133a1565b6115cb612b19565b6001600160a01b03165a6115dd613b8c565b6001600160a01b03161461162f5760405162461bcd60e51b815260206004820152600c60248201526b37b7363c9036b0b730b3b2b960a11b60448201526064016040518091039061162c613a78565b50505b801515600060fb61163e613ae3565b906101000a900460ff161515141561169e5760405162461bcd60e51b8152602060048201526016602482015275199b1859c81b5d5cdd08189948191a5999995c995b9d60521b60448201526064016040518091039061169b613a78565b50505b6116a781612abb565b50565b60008060fd6116b7613ae3565b906101000a90046001600160a01b03166001600160a01b0316634501b0886040518163ffffffff1660e01b815260040160206040518083038186806116fa613c18565b15801561170f5760008061170c613a78565b50505b505a611719613c64565b5050505050158015611738573d6000803e3d6000611735613a78565b50505b505050506040513d602081101561175757600080611754613a78565b50505b810190808051935050505090565b600061176f612b19565b6001600160a01b03165a611781613b8c565b6001600160a01b031614806117a95750600060fb61179d613ae3565b906101000a900460ff16155b806117c057506117c05a6117bb613b8c565b61229a565b6118105760405162461bcd60e51b81526020600482015260146024820152731bdb9b1e481b595b58995c9cc8185b1b1bddd95960621b60448201526064016040518091039061180d613a78565b50505b600060c961181c613ae3565b906101000a900460ff16156118735760405162461bcd60e51b815260206004820152601060248201526f14185d5cd8589b194e881c185d5cd95960821b604482015260640160405180910390611870613a78565b50505b5a61187c613bd2565b60ff60005a611889613b8c565b6001600160a01b03166001600160a01b0316815260200190815260200160002081906118b3613b3e565b5050506118be612da8565b60006118c8611fcc565b905060006118d4610be9565b9050846001600160a01b03166323b872dd5a6118ee613b8c565b5a63996d79a5598160e01b8152602081600483336000905af158600e01573d6000803e3d6000fd5b3d6001141558600a015760016000f35b8051925060005b60408110156119445760008282015260200161192d565b505050876040516001600160e01b031960e086901b1681526001600160a01b039384166004820152919092166024820152604481019190915260640160206040518083038160008780611995613c18565b1580156119aa576000806119a7613a78565b50505b505a6119b4613d4f565b5050505050501580156119d4573d6000803e3d60006119d1613a78565b50505b505050506040513d60208110156119f3576000806119f0613a78565b50505b8101908080519250611a4f9150505760405162461bcd60e51b81526020600482015260156024820152741d1bdad95b881d1c985b9cd9995c8819985a5b1959605a1b604482015260640160405180910390611a4c613a78565b50505b600080610100611a5d613ae3565b906101000a90046001600160a01b03166001600160a01b03166329c07fba87876040516001600160e01b031960e085901b1681526001600160a01b03909216600483015260248201526044016020604051808303818680611abc613c18565b158015611ad157600080611ace613a78565b50505b505a611adb613c64565b5050505050158015611afa573d6000803e3d6000611af7613a78565b50505b505050506040513d6020811015611b1957600080611b16613a78565b50505b8101908080519350600092505083159050611b4357611b3c8461104b84866131d9565b9050611b46565b50805b611b585a611b52613b8c565b82613400565b7f87fdcba84e083ebb8fd661bbafee3eb38764ec6f0cbeea8ed52deffa67bd45dc5a63996d79a5598160e01b8152602081600483336000905af158600e01573d6000803e3d6000fd5b3d6001141558600a015760016000f35b8051925060005b6040811015611bcf57600082820152602001611bb8565b5050505a611bdb613b8c565b8484611be95a610f64613b8c565b611bf38a896133a1565b611bfd8a896133a1565b5a611c06613bd2565b6040516001600160a01b0398891681529690971660208701526040808701959095526060860193909352608085019190915260a084015260c083015260e082019290925261010001905180910390a19695505050505050565b600060fb611c6b613ae3565b906101000a900460ff1681565b60008060c961154f613ae3565b6001600160a01b0381166000908152606560205260408120611ca5613ae3565b90505b919050565b6000808060fd611cbb613ae3565b906101000a90046001600160a01b03166001600160a01b0316631d68702d6040518163ffffffff1660e01b81526004016020604051808303818680611cfe613c18565b158015611d1357600080611d10613a78565b50505b505a611d1d613c64565b5050505050158015611d3c573d6000803e3d6000611d39613a78565b50505b505050506040513d6020811015611d5b57600080611d58613a78565b50505b8101908080519350506001600160a01b0383169150505a611d7a613b8c565b6001600160a01b031614611ddd5760405162461bcd60e51b815260206004820152601860248201527f6f6e6c792044414f206164647265737320616c6c6f7765640000000000000000604482015260640160405180910390611dda613a78565b50505b82610100600181611dec613ae3565b816001600160a01b0302191690836001600160a01b0316021790611e0e613b3e565b5050507f63fb64c359a4cae97e1bf003c1ab11390b5f0e18cc5b3d67b90bd61c0f5c52fd835a611e3c613b8c565b6040516001600160a01b039283168152911660208201526040908101905180910390a150600192915050565b60fe610e5a613ae3565b600080611e7d611fcc565b90506000611e89610be9565b9050611e958282613519565b9250505090565b6060606980611ea9613ae3565b600181600116156101000203166002900480601f016020809104026020016040519081016040528181529190602083018280611ee3613ae3565b600181600116156101000203166002900480156109a25780601f10611f0f576101008083610962613ae3565b820191906000526020600020905b81611f26613ae3565b81529060010190602001808311611f1d57509395945050505050565b60006109c0611f4f6126c9565b84610e3385604051606081016040526025808252614043602083013960666000611f776126c9565b6001600160a01b03166001600160a01b031681526020019081526020016000206001600160a01b038a16600090815260209190915260409020610e2c613ae3565b60006109c0611fc56126c9565b8484612b6a565b6000808080610100611fdc613ae3565b906101000a90046001600160a01b031690506060816001600160a01b031663e5406dbf6040518163ffffffff1660e01b81526004016000604051808303818680612024613c18565b15801561203957600080612036613a78565b50505b505a612043613c64565b5050505050158015612062573d6000803e3d600061205f613a78565b50505b505050506040513d6000823e601f3d908101601f19168201604052602081101561209457600080612091613a78565b50505b8101908080516040519392919084600160201b8211156120bc576000806120b9613a78565b50505b9083019060208201858111156120da576000806120d7613a78565b50505b82518660208202830111600160201b821117156120ff576000806120fc613a78565b50505b825250602001908051906020019060200280838360005b8381101561212e578082015183820152602001612116565b50505050905001604052505050905060008151905060005b818110156122265761221c846001600160a01b031663d8af8ed485848151811061216c57fe5b60200260200101516040516001600160e01b031960e084901b1681526001600160a01b03909116600482015260240160206040518083038186806121ae613c18565b1580156121c3576000806121c0613a78565b50505b505a6121cd613c64565b50505050501580156121ec573d6000803e3d60006121e9613a78565b50505b505050506040513d602081101561220b57600080612208613a78565b50505b8101908080518993509150506133a1565b9450600101612146565b5092935050505090565b60008061223b6116aa565b6001600160a01b038416600090815260ff60205290915061226282604083206115bd613ae3565b90505a61226d613bd2565b81101561227f57600092505050611ca8565b6122925a61228b613bd2565b8290613549565b949350505050565b6000806101006122a8613ae3565b906101000a90046001600160a01b03166001600160a01b031663bbbf725b836040516001600160e01b031960e084901b1681526001600160a01b0390911660048201526024016020604051808303818680612301613c18565b15801561231657600080612313613a78565b50505b505a612320613c64565b505050505015801561233f573d6000803e3d600061233c613a78565b50505b505050506040513d602081101561235e5760008061235b613a78565b50505b81019080805195945050505050565b600060fd6108dc613ae3565b612381612da8565b565b60fc610e5a613ae3565b6001600160a01b03821660009081526066602052604081206001600160a01b0383166000908152602091909152604090206123c6613ae3565b9392505050565b6000806123d8611fcc565b905060006123e4610be9565b90506000808060fd6123f4613ae3565b906101000a90046001600160a01b03166001600160a01b031663b7a545265a63996d79a5598160e01b8152602081600483336000905af158600e01573d6000803e3d6000fd5b3d6001141558600a015760016000f35b8051925060005b604081101561246857600082820152602001612451565b5050506040516001600160e01b031960e084901b1681526001600160a01b039091166004820152602401604080518083038186806124a4613c18565b1580156124b9576000806124b6613a78565b50505b505a6124c3613c64565b50505050501580156124e2573d6000803e3d60006124df613a78565b50505b505050506040513d6040811015612501576000806124fe613a78565b50505b8101908080519291906020018051939550929350612531925086915085905060fe61252a613ae3565b8585613589565b94505050505090565b60606000610100612549613ae3565b906101000a90046001600160a01b03166001600160a01b031663fed4416a6040518163ffffffff1660e01b8152600401600060405180830381868061258c613c18565b1580156125a15760008061259e613a78565b50505b505a6125ab613c64565b50505050501580156125ca573d6000803e3d60006125c7613a78565b50505b505050506040513d6000823e601f3d908101601f1916820160405260208110156125fc576000806125f9613a78565b50505b8101908080516040519392919084600160201b82111561262457600080612621613a78565b50505b9083019060208201858111156126425760008061263f613a78565b50505b8251600160201b81118282018810171561266457600080612661613a78565b50505b825250602001908051906020019080838360005b83811015612690578082015183820152602001612678565b50505050905090810190601f1680156126bd5780820380516001836020036101000a031916815260200191505b50604052505050905090565b60005a610bf5613b8c565b6001600160a01b0383166127225760405162461bcd60e51b815260040180806020018281038252602481526020018061401f602491396040019150506040518091039061271f613a78565b50505b6001600160a01b0382166127705760405162461bcd60e51b8152600401808060200182810382526022815260200180613f1a602291396040019150506040518091039061276d613a78565b50505b6001600160a01b038316600090815260666020528190604090206001600160a01b03841660009081526020919091526040902081906127ad613b3e565b505050816001600160a01b0316836001600160a01b03167f8c5be1e5ebec7d5bd14f71427d1e84f3dd0314c0f7b2291e5b200ac8c7c3b9258360405190815260200160405180910390a3505050565b6000805a63996d79a5598160e01b8152602081600483336000905af158600e01573d6000803e3d6000fd5b3d6001141558600a015760016000f35b8051925060005b60408110156128555760008282015260200161283e565b5050509050600081612865613c18565b159250505090565b60016000612879613ae3565b906101000a900460ff168061289157506128916127fc565b806128ae57506000806128a2613ae3565b906101000a900460ff16155b6128f25760405162461bcd60e51b815260040180806020018281038252602e815260200180613fab602e9139604001915050604051809103906128ef613a78565b50505b60006001816128ff613ae3565b906101000a900460ff161590508015612965576001600061010081612922613ae3565b8160ff02191690831515021790612937613b3e565b50505060016000806101000a8161294c613ae3565b8160ff02191690831515021790612961613b3e565b5050505b61296d6135fa565b6129778383613706565b80156129a1576000806101008161298c613ae3565b8160ff02191690831515021790610be1613b3e565b505050565b600160006129b2613ae3565b906101000a900460ff16806129ca57506129ca6127fc565b806129e757506000806129db613ae3565b906101000a900460ff16155b612a2b5760405162461bcd60e51b815260040180806020018281038252602e815260200180613fab602e913960400191505060405180910390612a28613a78565b50505b6000600181612a38613ae3565b906101000a900460ff161590508015612a9e576001600061010081612a5b613ae3565b8160ff02191690831515021790612a70613b3e565b50505060016000806101000a81612a85613ae3565b8160ff02191690831515021790612a9a613b3e565b5050505b612aa6613863565b80156116a75760008061010081611527613ae3565b8060fb600181612ac9613ae3565b8160ff02191690831515021790612ade613b3e565b5050507f8d75e9ede4188432084b863d70b3416010c97547dfeb4fc17734d2e997ee0f3981604051901515815260200160405180910390a150565b600080610100612b27613ae3565b906101000a90046001600160a01b03166001600160a01b031663481c6a756040518163ffffffff1660e01b815260040160206040518083038186806116fa613c18565b6001600160a01b038316612bb85760405162461bcd60e51b8152600401808060200182810382526025815260200180613ffa6025913960400191505060405180910390612bb5613a78565b50505b6001600160a01b038216612c065760405162461bcd60e51b8152600401808060200182810382526023815260200180613ed56023913960400191505060405180910390612c03613a78565b50505b612c11838383613969565b612c4c81604051606081016040526026808252613f3c60208301396001600160a01b0386166000908152606560205260409020610e2c613ae3565b6001600160a01b03841660009081526065602052604090208190612c6e613b3e565b5050506001600160a01b03821660009081526065602052612c97908290604090206115bd613ae3565b6001600160a01b03831660009081526065602052604090208190612cb9613b3e565b505050816001600160a01b0316836001600160a01b03167fddf252ad1be2c89b69c2b068fc378daa952ba7f163c4a11628f55a4df523b3ef8360405190815260200160405180910390a3505050565b60008184841115612da05760405162461bcd60e51b81526004018080602001828103825283818151815260200191508051906020019080838360005b83811015612d5c578082015183820152602001612d44565b50505050905090810190601f168015612d895780820380516001836020036101000a031916815260200191505b509250505060405180910390612d9d613a78565b50505b505050900390565b6000612db2611fcc565b90506000612dbe610be9565b90506000808060fd612dce613ae3565b906101000a90046001600160a01b03166001600160a01b031663b7a545265a63996d79a5598160e01b8152602081600483336000905af158600e01573d6000803e3d6000fd5b3d6001141558600a015760016000f35b8051925060005b6040811015612e4257600082820152602001612e2b565b5050506040516001600160e01b031960e084901b1681526001600160a01b03909116600482015260240160408051808303818680612e7e613c18565b158015612e9357600080612e90613a78565b50505b505a612e9d613c64565b5050505050158015612ebc573d6000803e3d6000612eb9613a78565b50505b505050506040513d6040811015612edb57600080612ed8613a78565b50505b810190808051929190602001805193955092935060009250612f0d91508690508560fe612f06613ae3565b8686613589565b90506064811015612f22575050505050612381565b60008060fd612f2f613ae3565b906101000a90046001600160a01b03166001600160a01b0316631d68702d6040518163ffffffff1660e01b81526004016020604051808303818680612f72613c18565b158015612f8757600080612f84613a78565b50505b505a612f91613c64565b5050505050158015612fb0573d6000803e3d6000612fad613a78565b50505b505050506040513d6020811015612fcf57600080612fcc613a78565b50505b81019080805193506000925082915081905060fd612feb613ae3565b906101000a90046001600160a01b03166001600160a01b0316639cada6e46040518163ffffffff1660e01b81526004016040805180830381868061302d613c18565b1580156130425760008061303f613a78565b50505b505a61304c613c64565b505050505015801561306b573d6000803e3d6000613068613a78565b50505b505050506040513d604081101561308a57600080613087613a78565b50505b8101908080519291906020018051939550929350600092506130b4915083905061104b87866131d9565b905060006130c28683613549565b905081156130d4576130d48583613400565b80156130e5576130e5611b52612b19565b6130ef8a8a613519565b8060fe6130fa613b3e565b5050507f755a8059d66d8d243bc9f6913f429a811f154599d0538bb0b6a2ac23f23d2ccd5a63996d79a5598160e01b8152602081600483336000905af158600e01573d6000803e3d6000fd5b3d6001141558600a015760016000f35b8051925060005b60408110156131745760008282015260200161315d565b50505061317f612b19565b88858560fe61318c613ae3565b6040516001600160a01b0396871681529490951660208501526040808501939093526060840191909152608083015260a082019290925260c001905180910390a150505050505050505050565b6000826131e8575060006109c4565b828202828482816131f557fe5b04146123c65760405162461bcd60e51b8152600401808060200182810382526021815260200180613f626021913960400191505060405180910390613238613a78565b50509392505050565b60006123c6838360405160408082019052601a81527f536166654d6174683a206469766973696f6e206279207a65726f00000000000060208201526139cd565b6001600160a01b0382166132cf5760405162461bcd60e51b8152600401808060200182810382526021815260200180613fd960219139604001915050604051809103906132cc613a78565b50505b6132db82600083613969565b61331681604051606081016040526022808252613ef860208301396001600160a01b0385166000908152606560205260409020610e2c613ae3565b6001600160a01b03831660009081526065602052604090208190613338613b3e565b50505061334f816067613349613ae3565b90613549565b80606761335a613b3e565b5060009150506001600160a01b0383167fddf252ad1be2c89b69c2b068fc378daa952ba7f163c4a11628f55a4df523b3ef8360405190815260200160405180910390a35050565b6000828201838110156123c65760405162461bcd60e51b815260206004820152601b60248201527f536166654d6174683a206164646974696f6e206f766572666c6f770000000000604482015260640160405180910390613238613a78565b6001600160a01b0382166134635760405162461bcd60e51b815260206004820152601f60248201527f45524332303a206d696e7420746f20746865207a65726f206164647265737300604482015260640160405180910390613460613a78565b50505b61346f60008383613969565b61347d8160676115bd613ae3565b806067613488613b3e565b5050506001600160a01b038216600090815260656020526134b1908290604090206115bd613ae3565b6001600160a01b038316600090815260656020526040902081906134d3613b3e565b5050506001600160a01b03821660007fddf252ad1be2c89b69c2b068fc378daa952ba7f163c4a11628f55a4df523b3ef8360405190815260200160405180910390a35050565b6000811580613526575082155b15613533575060006109c4565b6123c68261104b85670de0b6b3a76400006131d9565b60006123c6838360405160408082019052601e81527f536166654d6174683a207375627472616374696f6e206f766572666c6f7700006020820152612d08565b6000841580613596575085155b156135a3575060006135f1565b60006135bb8661104b89670de0b6b3a76400006131d9565b90508481116135ce5760009150506135f1565b60006135ec8261104b8681896135e68d81878f613549565b906131d9565b925050505b95945050505050565b60016000613606613ae3565b906101000a900460ff168061361e575061361e6127fc565b8061363b575060008061362f613ae3565b906101000a900460ff16155b61367f5760405162461bcd60e51b815260040180806020018281038252602e815260200180613fab602e91396040019150506040518091039061367c613a78565b50505b600060018161368c613ae3565b906101000a900460ff161590508015612aa65760016000610100816136af613ae3565b8160ff021916908315150217906136c4613b3e565b50505060016000806101000a816136d9613ae3565b8160ff021916908315150217906136ee613b3e565b50505080156116a75760008061010081611527613ae3565b60016000613712613ae3565b906101000a900460ff168061372a575061372a6127fc565b80613747575060008061373b613ae3565b906101000a900460ff16155b61378b5760405162461bcd60e51b815260040180806020018281038252602e815260200180613fab602e913960400191505060405180910390613788613a78565b50505b6000600181613798613ae3565b906101000a900460ff1615905080156137fe5760016000610100816137bb613ae3565b8160ff021916908315150217906137d0613b3e565b50505060016000806101000a816137e5613ae3565b8160ff021916908315150217906137fa613b3e565b5050505b6068838051613811929160200190613e15565b506069828051613825929160200190613e15565b506012606a600181613835613ae3565b8160ff021916908360ff1602179061384b613b3e565b50505080156129a1576000806101008161298c613ae3565b6001600061386f613ae3565b906101000a900460ff168061388757506138876127fc565b806138a45750600080613898613ae3565b906101000a900460ff16155b6138e85760405162461bcd60e51b815260040180806020018281038252602e815260200180613fab602e9139604001915050604051809103906138e5613a78565b50505b60006001816138f5613ae3565b906101000a900460ff16159050801561395b576001600061010081613918613ae3565b8160ff0219169083151502179061392d613b3e565b50505060016000806101000a81613942613ae3565b8160ff02191690831515021790613957613b3e565b5050505b6001609781816136d9613ae3565b6139748383836129a1565b61397d83612230565b156129a15760405162461bcd60e51b815260206004820152600f60248201526e636f6f6c646f776e2061637469766560881b6044820152606401604051809103906139c6613a78565b5050505050565b60008183613a625760405162461bcd60e51b81526004018080602001828103825283818151815260200191508051906020019080838360005b83811015613a1e578082015183820152602001613a06565b50505050905090810190601f168015613a4b5780820380516001836020036101000a031916815260200191505b509250505060405180910390613a5f613a78565b50505b506000838581613a6e57fe5b0495945050505050565b632a2a7adb598160e01b8152600481016020815285602082015260005b86811015613ab0578086015182820160400152602001613a95565b506020828760640184336000905af158600e01573d6000803e3d6000fd5b3d6001141558600a015760016000f35b505050565b6303daa959598160e01b8152836004820152602081602483336000905af158600e01573d6000803e3d6000fd5b3d6001141558600a015760016000f35b8051935060005b60408110156129a157600082820152602001613b27565b6322bd64c0598160e01b8152836004820152846024820152600081604483336000905af158600e01573d6000803e3d6000fd5b3d6001141558600a015760016000f35b600081526020613b27565b6373509064598160e01b8152602081600483336000905af158600e01573d6000803e3d6000fd5b3d6001141558600a015760016000f35b80516000825293506020613b27565b63bdbf8c36598160e01b8152602081600483336000905af158600e01573d6000803e3d6000fd5b3d6001141558600a015760016000f35b80516000825293506020613b27565b638435035b598160e01b8152836004820152602081602483336000905af158600e01573d6000803e3d6000fd5b3d6001141558600a015760016000f35b80516000825293506020613b27565b638540661f598160e01b8152613c95565b80808311156109c4575090919050565b80808310156109c4575090919050565b836004820152846024820152606060448201528660648201526084810160005b88811015613ccd578088015182820152602001613cb5565b506060828960a40184336000905af158600e01573d6000803e3d6000fd5b3d6001141558600a015760016000f35b815160408301513d6000853e8b8b82606087013350600060045af15059613d228d3d613c85565b8c01613d2e8187613c75565b5b82811015613d435760008152602001613d2f565b50929c50505050505050565b6385979f76598160e01b8152836004820152846024820152606060448201528760648201526084810160005b89811015613d93578089015182820152602001613d7b565b506060828a60a40184336000905af158600e01573d6000803e3d6000fd5b3d6001141558600a015760016000f35b815160408301513d6000853e8c8c82606087013350600060045af15059613de88e3d613c85565b8d01613df48187613c75565b5b82811015613e095760008152602001613df5565b50929d50505050505050565b8280613e1f613ae3565b600181600116156101000203166002900490600052602060002090601f016020900481019282601f10613e6657805160ff19168380011785613e5f613b3e565b5050613ea5565b82800160010185613e75613b3e565b50508215613ea5579182015b82811115613ea557825182613e94613b3e565b505091602001919060010190613e81565b50613eb1929150613eb5565b5090565b80821115613eb15760008082613ec9613b3e565b505050600101613eb556fe45524332303a207472616e7366657220746f20746865207a65726f206164647265737345524332303a206275726e20616d6f756e7420657863656564732062616c616e636545524332303a20617070726f766520746f20746865207a65726f206164647265737345524332303a207472616e7366657220616d6f756e7420657863656564732062616c616e6365536166654d6174683a206d756c7469706c69636174696f6e206f766572666c6f7745524332303a207472616e7366657220616d6f756e74206578636565647320616c6c6f77616e6365436f6e747261637420696e7374616e63652068617320616c7265616479206265656e20696e697469616c697a656445524332303a206275726e2066726f6d20746865207a65726f206164647265737345524332303a207472616e736665722066726f6d20746865207a65726f206164647265737345524332303a20617070726f76652066726f6d20746865207a65726f206164647265737345524332303a2064656372656173656420616c6c6f77616e63652062656c6f77207a65726f",
  "deployedBytecode": "0x608060405234801561001957600080610016613a78565b50505b50600436106102045760003560e01c80635c975abb11610123578063ad60ffcc116100b6578063cc3c6df611610085578063cc3c6df614610879578063d8270dce14610881578063dd62ed3e14610889578063edbf6f50146108c0578063fed4416a146108c857610204565b8063ad60ffcc1461080b578063b8ea2b6e14610813578063bbbf725b14610842578063c45a01551461087157610204565b80637ff9b596116100f25780637ff9b5961461079157806395d89b4114610799578063a457c2d7146107a1578063a9059cbb146107d657610204565b80635c975abb1461072357806370a082311461072b578063750226de1461075a5780637714f39d1461078957610204565b806329d16ee81161019b5780633babaad51161016a5780633babaad5146106b65780634501b088146106de57806347e7ef24146106e657806359b5e75e1461071b57610204565b806329d16ee81461060e5780632e1a7d4d1461063d578063313ce56714610663578063395093511461068157610204565b806318160ddd116101d757806318160ddd146104885780631c5918d2146104a25780631e50a4a6146105c757806323b872dd146105cf57610204565b806302d05d3f1461021257806306fdde0314610236578063095ea7b3146102b55780630ccb30c7146102fe575b60008061020f613a78565b50505b61021a6108d0565b6040516001600160a01b03909116815260200160405180910390f35b61023e6108ef565b60405160208082528190810183818151815260200191508051906020019080838360005b8381101561027a578082015183820152602001610262565b50505050905090810190601f1680156102a75780820380516001836020036101000a031916815260200191505b509250505060405180910390f35b6102ea600480360360408110156102d4576000806102d1613a78565b50505b506001600160a01b0381351690602001356109ac565b604051901515815260200160405180910390f35b610486600480360360a081101561031d5760008061031a613a78565b50505b6001600160a01b03823516916020810135151591810190606081016040820135600160201b81111561035757600080610354613a78565b50505b8201836020820111156103725760008061036f613a78565b50505b803590602001918460018302840111600160201b8311171561039c57600080610399613a78565b50505b91908080601f01602080910402602001604051908101604052818152929190602084018383808284376000920191909152509295949360208101935035915050600160201b8111156103f6576000806103f3613a78565b50505b8201836020820111156104115760008061040e613a78565b50505b803590602001918460018302840111600160201b8311171561043b57600080610438613a78565b50505b91908080601f0160208091040260200160405190810160405281815292919060208401838380828437600092019190915250929550505090356001600160a01b031691506109ca9050565b005b610490610be9565b60405190815260200160405180910390f35b6104aa610bfa565b60405180806020018a8152602001898152602001886001600160a01b0316815260200180602001878152602001861515815260200185815260200184815260200183810383528c818151815260200191508051906020019080838360005b83811015610520578082015183820152602001610508565b50505050905090810190601f16801561054d5780820380516001836020036101000a031916815260200191505b50838103825288818151815260200191508051906020019080838360005b8381101561058357808201518382015260200161056b565b50505050905090810190601f1680156105b05780820380516001836020036101000a031916815260200191505b509b50505050505050505050505060405180910390f35b61021a610da1565b6102ea600480360360608110156105ee576000806105eb613a78565b50505b506001600160a01b03813581169160208101359091169060400135610dae565b6104906004803603602081101561062d5760008061062a613a78565b50505b50356001600160a01b0316610e42565b6104866004803603602081101561065c57600080610659613a78565b50505b5035610e5d565b61066b611542565b60405160ff909116815260200160405180910390f35b6102ea600480360360408110156106a05760008061069d613a78565b50505b506001600160a01b03813516906020013561155e565b610486600480360360208110156106d5576000806106d2613a78565b50505b503515156115c3565b6104906116aa565b6104906004803603604081101561070557600080610702613a78565b50505b506001600160a01b038135169060200135611765565b6102ea611c5f565b6102ea611c78565b6104906004803603602081101561074a57600080610747613a78565b50505b50356001600160a01b0316611c85565b6102ea6004803603602081101561077957600080610776613a78565b50505b50356001600160a01b0316611cad565b610490611e68565b610490611e72565b61023e611e9c565b6102ea600480360360408110156107c0576000806107bd613a78565b50505b506001600160a01b038135169060200135611f42565b6102ea600480360360408110156107f5576000806107f2613a78565b50505b506001600160a01b038135169060200135611fb8565b610490611fcc565b610490600480360360208110156108325760008061082f613a78565b50505b50356001600160a01b0316612230565b6102ea600480360360208110156108615760008061085e613a78565b50505b50356001600160a01b031661229a565b61021a61236d565b610486612379565b610490612383565b610490600480360360408110156108a8576000806108a5613a78565b50505b506001600160a01b038135811691602001351661238d565b6104906123cd565b61023e61253a565b600160fb6108dc613ae3565b906101000a90046001600160a01b031681565b60606068806108fc613ae3565b600181600116156101000203166002900480601f016020809104026020016040519081016040528181529190602083018280610936613ae3565b600181600116156101000203166002900480156109a25780601f10610970576101008083610962613ae3565b0402835291602001916109a2565b820191906000526020600020905b81610987613ae3565b8152906001019060200180831161097e57829003601f168201915b5050505050905090565b60006109c06109b96126c9565b84846126d4565b5060015b92915050565b600160006109d6613ae3565b906101000a900460ff16806109ee57506109ee6127fc565b80610a0b57506000806109ff613ae3565b906101000a900460ff16155b610a4f5760405162461bcd60e51b815260040180806020018281038252602e815260200180613fab602e913960400191505060405180910390610a4c613a78565b50505b6000600181610a5c613ae3565b906101000a900460ff161590508015610ac2576001600061010081610a7f613ae3565b8160ff02191690831515021790610a94613b3e565b50505060016000806101000a81610aa9613ae3565b8160ff02191690831515021790610abe613b3e565b5050505b610acc848461286d565b610ad46129a6565b8560fd600181610ae2613ae3565b816001600160a01b0302191690836001600160a01b0316021790610b04613b3e565b505050610b1085612abb565b5a610b19613b8c565b60fb61010081610b27613ae3565b816001600160a01b0302191690836001600160a01b0316021790610b49613b3e565b5050505a610b55613bd2565b8060fc610b60613b3e565b505050670de0b6b3a764000060fe8190610b78613b3e565b5050508161010060006101000a81610b8e613ae3565b816001600160a01b0302191690836001600160a01b0316021790610bb0613b3e565b5050508015610be15760008061010081610bc8613ae3565b8160ff02191690831515021790610bdd613b3e565b5050505b505050505050565b60006067610bf5613ae3565b905090565b606060008080838180808080808060fd610c12613ae3565b906101000a90046001600160a01b03166001600160a01b031663b7a545265a63996d79a5598160e01b8152602081600483336000905af158601d01573d60011458600c01573d6000803e3d621234565260ea61109c528051925060005b6040811015610c8657600082820152602001610c6f565b5050506040516001600160e01b031960e084901b1681526001600160a01b03909116600482015260240160408051808303818680610cc2613c18565b158015610cd757600080610cd4613a78565b50505b505a610ce1613c64565b5050505050158015610d00573d6000803e3d6000610cfd613a78565b50505b505050506040513d6040811015610d1f57600080610d1c613a78565b50505b8101908080519291906020018051939550929350610d4092506108ef915050565b610d48610be9565b610d50611fcc565b610d58612b19565b610d6061253a565b60fc610d6a613ae3565b600060fb610d76613ae3565b906101000a900460ff1688889a509a509a509a509a509a509a509a509a505050909192939495969798565b60006101006108dc613ae3565b6000610dbb848484612b6a565b610e3884610dc76126c9565b610e3385604051606081016040526028808252613f8360208301396001600160a01b038a1660009081526066602052604090206000610e046126c9565b6001600160a01b03166001600160a01b03168152602001908152602001600020610e2c613ae3565b9190612d08565b6126d4565b5060019392505050565b60ff6020528060005260406000209050610e5a613ae3565b81565b60006097610e69613ae3565b906101000a900460ff16610ecc5760405162461bcd60e51b815260206004820152601f60248201527f5265656e7472616e637947756172643a207265656e7472616e742063616c6c00604482015260640160405180910390610ec9613a78565b50505b60006097600181610edb613ae3565b8160ff02191690831515021790610ef0613b3e565b50505060c9600090610f00613ae3565b906101000a900460ff1615610f575760405162461bcd60e51b815260206004820152601060248201526f14185d5cd8589b194e881c185d5cd95960821b604482015260640160405180910390610f54613a78565b50505b80610f695a610f64613b8c565b611c85565b1015610fbb5760405162461bcd60e51b8152602060048201526014602482015273696e73756666696369656e742062616c616e636560601b604482015260640160405180910390610fb8613a78565b50505b610fcc5a610fc7613b8c565b612230565b156110185760405162461bcd60e51b815260206004820152600f60248201526e636f6f6c646f776e2061637469766560881b604482015260640160405180910390611015613a78565b50505b611020612da8565b600061102a611fcc565b90506000611051611039610be9565b61104b85670de0b6b3a76400006131d9565b90613241565b90506110655a61105f613b8c565b84613281565b600080610100611073613ae3565b906101000a90046001600160a01b031690506060816001600160a01b031663e5406dbf6040518163ffffffff1660e01b815260040160006040518083038186806110bb613c18565b1580156110d0576000806110cd613a78565b50505b505a6110da613c64565b50505050501580156110f9573d6000803e3d60006110f6613a78565b50505b505050506040513d6000823e601f3d908101601f19168201604052602081101561112b57600080611128613a78565b50505b8101908080516040519392919084600160201b82111561115357600080611150613a78565b50505b9083019060208201858111156111715760008061116e613a78565b50505b82518660208202830111600160201b8211171561119657600080611193613a78565b50505b825250602001908051906020019060200280838360005b838110156111c55780820151838201526020016111ad565b50505050905001604052505050905060008151905060005b818110156113fa5760008382815181106111f357fe5b602002602001015190506000816001600160a01b03166370a082315a63996d79a5598160e01b8152602081600483336000905af158601d01573d60011458600c01573d6000803e3d621234565260ea61109c528051925060005b60408110156112645760008282015260200161124d565b5050506040516001600160e01b031960e084901b1681526001600160a01b03909116600482015260240160206040518083038186806112a1613c18565b1580156112b6576000806112b3613a78565b50505b505a6112c0613c64565b50505050501580156112df573d6000803e3d60006112dc613a78565b50505b505050506040513d60208110156112fe576000806112fb613a78565b50505b8101908080519350600092506113249150670de0b6b3a7640000905061104b848b6131d9565b905080156113ef57826001600160a01b031663a9059cbb5a611344613b8c565b836040516001600160e01b031960e085901b1681526001600160a01b039092166004830152602482015260440160206040518083038160008780611386613c18565b15801561139b57600080611398613a78565b50505b505a6113a5613d4f565b5050505050501580156113c5573d6000803e3d60006113c2613a78565b50505b505050506040513d60208110156113e4576000806113e1613a78565b50505b810190808051505050505b5050506001016111dd565b506000611413670de0b6b3a764000061104b87896131d9565b90507f79d44cc8beeed36226f14818b2ecaca7ef252bcd56c9ae35f5a86869dbdefb975a63996d79a5598160e01b8152602081600483336000905af158601d01573d60011458600c01573d6000803e3d621234565260ea61109c528051925060005b604081101561148c57600082820152602001611475565b5050505a611498613b8c565b838a6114a65a610f64613b8c565b6114ae611fcc565b6114b6610be9565b5a6114bf613bd2565b6040516001600160a01b0398891681529690971660208701526040808701959095526060860193909352608085019190915260a084015260c083015260e082019290925261010001905180910390a15050505050506001609760006101000a81611527613ae3565b8160ff0219169083151502179061153c613b3e565b50505050565b600080606a61154f613ae3565b906101000a900460ff16905090565b60006109c061156b6126c9565b84610e33856066600061157c6126c9565b6001600160a01b03166001600160a01b031681526020019081526020016000206001600160a01b0389166000908152602091909152604090206115bd613ae3565b906133a1565b6115cb612b19565b6001600160a01b03165a6115dd613b8c565b6001600160a01b03161461162f5760405162461bcd60e51b815260206004820152600c60248201526b37b7363c9036b0b730b3b2b960a11b60448201526064016040518091039061162c613a78565b50505b801515600060fb61163e613ae3565b906101000a900460ff161515141561169e5760405162461bcd60e51b8152602060048201526016602482015275199b1859c81b5d5cdd08189948191a5999995c995b9d60521b60448201526064016040518091039061169b613a78565b50505b6116a781612abb565b50565b60008060fd6116b7613ae3565b906101000a90046001600160a01b03166001600160a01b0316634501b0886040518163ffffffff1660e01b815260040160206040518083038186806116fa613c18565b15801561170f5760008061170c613a78565b50505b505a611719613c64565b5050505050158015611738573d6000803e3d6000611735613a78565b50505b505050506040513d602081101561175757600080611754613a78565b50505b810190808051935050505090565b600061176f612b19565b6001600160a01b03165a611781613b8c565b6001600160a01b031614806117a95750600060fb61179d613ae3565b906101000a900460ff16155b806117c057506117c05a6117bb613b8c565b61229a565b6118105760405162461bcd60e51b81526020600482015260146024820152731bdb9b1e481b595b58995c9cc8185b1b1bddd95960621b60448201526064016040518091039061180d613a78565b50505b600060c961181c613ae3565b906101000a900460ff16156118735760405162461bcd60e51b815260206004820152601060248201526f14185d5cd8589b194e881c185d5cd95960821b604482015260640160405180910390611870613a78565b50505b5a61187c613bd2565b60ff60005a611889613b8c565b6001600160a01b03166001600160a01b0316815260200190815260200160002081906118b3613b3e565b5050506118be612da8565b60006118c8611fcc565b905060006118d4610be9565b9050846001600160a01b03166323b872dd5a6118ee613b8c565b5a63996d79a5598160e01b8152602081600483336000905af158601d01573d60011458600c01573d6000803e3d621234565260ea61109c528051925060005b60408110156119445760008282015260200161192d565b505050876040516001600160e01b031960e086901b1681526001600160a01b039384166004820152919092166024820152604481019190915260640160206040518083038160008780611995613c18565b1580156119aa576000806119a7613a78565b50505b505a6119b4613d4f565b5050505050501580156119d4573d6000803e3d60006119d1613a78565b50505b505050506040513d60208110156119f3576000806119f0613a78565b50505b8101908080519250611a4f9150505760405162461bcd60e51b81526020600482015260156024820152741d1bdad95b881d1c985b9cd9995c8819985a5b1959605a1b604482015260640160405180910390611a4c613a78565b50505b600080610100611a5d613ae3565b906101000a90046001600160a01b03166001600160a01b03166329c07fba87876040516001600160e01b031960e085901b1681526001600160a01b03909216600483015260248201526044016020604051808303818680611abc613c18565b158015611ad157600080611ace613a78565b50505b505a611adb613c64565b5050505050158015611afa573d6000803e3d6000611af7613a78565b50505b505050506040513d6020811015611b1957600080611b16613a78565b50505b8101908080519350600092505083159050611b4357611b3c8461104b84866131d9565b9050611b46565b50805b611b585a611b52613b8c565b82613400565b7f87fdcba84e083ebb8fd661bbafee3eb38764ec6f0cbeea8ed52deffa67bd45dc5a63996d79a5598160e01b8152602081600483336000905af158601d01573d60011458600c01573d6000803e3d621234565260ea61109c528051925060005b6040811015611bcf57600082820152602001611bb8565b5050505a611bdb613b8c565b8484611be95a610f64613b8c565b611bf38a896133a1565b611bfd8a896133a1565b5a611c06613bd2565b6040516001600160a01b0398891681529690971660208701526040808701959095526060860193909352608085019190915260a084015260c083015260e082019290925261010001905180910390a19695505050505050565b600060fb611c6b613ae3565b906101000a900460ff1681565b60008060c961154f613ae3565b6001600160a01b0381166000908152606560205260408120611ca5613ae3565b90505b919050565b6000808060fd611cbb613ae3565b906101000a90046001600160a01b03166001600160a01b0316631d68702d6040518163ffffffff1660e01b81526004016020604051808303818680611cfe613c18565b158015611d1357600080611d10613a78565b50505b505a611d1d613c64565b5050505050158015611d3c573d6000803e3d6000611d39613a78565b50505b505050506040513d6020811015611d5b57600080611d58613a78565b50505b8101908080519350506001600160a01b0383169150505a611d7a613b8c565b6001600160a01b031614611ddd5760405162461bcd60e51b815260206004820152601860248201527f6f6e6c792044414f206164647265737320616c6c6f7765640000000000000000604482015260640160405180910390611dda613a78565b50505b82610100600181611dec613ae3565b816001600160a01b0302191690836001600160a01b0316021790611e0e613b3e565b5050507f63fb64c359a4cae97e1bf003c1ab11390b5f0e18cc5b3d67b90bd61c0f5c52fd835a611e3c613b8c565b6040516001600160a01b039283168152911660208201526040908101905180910390a150600192915050565b60fe610e5a613ae3565b600080611e7d611fcc565b90506000611e89610be9565b9050611e958282613519565b9250505090565b6060606980611ea9613ae3565b600181600116156101000203166002900480601f016020809104026020016040519081016040528181529190602083018280611ee3613ae3565b600181600116156101000203166002900480156109a25780601f10611f0f576101008083610962613ae3565b820191906000526020600020905b81611f26613ae3565b81529060010190602001808311611f1d57509395945050505050565b60006109c0611f4f6126c9565b84610e3385604051606081016040526025808252614043602083013960666000611f776126c9565b6001600160a01b03166001600160a01b031681526020019081526020016000206001600160a01b038a16600090815260209190915260409020610e2c613ae3565b60006109c0611fc56126c9565b8484612b6a565b6000808080610100611fdc613ae3565b906101000a90046001600160a01b031690506060816001600160a01b031663e5406dbf6040518163ffffffff1660e01b81526004016000604051808303818680612024613c18565b15801561203957600080612036613a78565b50505b505a612043613c64565b5050505050158015612062573d6000803e3d600061205f613a78565b50505b505050506040513d6000823e601f3d908101601f19168201604052602081101561209457600080612091613a78565b50505b8101908080516040519392919084600160201b8211156120bc576000806120b9613a78565b50505b9083019060208201858111156120da576000806120d7613a78565b50505b82518660208202830111600160201b821117156120ff576000806120fc613a78565b50505b825250602001908051906020019060200280838360005b8381101561212e578082015183820152602001612116565b50505050905001604052505050905060008151905060005b818110156122265761221c846001600160a01b031663d8af8ed485848151811061216c57fe5b60200260200101516040516001600160e01b031960e084901b1681526001600160a01b03909116600482015260240160206040518083038186806121ae613c18565b1580156121c3576000806121c0613a78565b50505b505a6121cd613c64565b50505050501580156121ec573d6000803e3d60006121e9613a78565b50505b505050506040513d602081101561220b57600080612208613a78565b50505b8101908080518993509150506133a1565b9450600101612146565b5092935050505090565b60008061223b6116aa565b6001600160a01b038416600090815260ff60205290915061226282604083206115bd613ae3565b90505a61226d613bd2565b81101561227f57600092505050611ca8565b6122925a61228b613bd2565b8290613549565b949350505050565b6000806101006122a8613ae3565b906101000a90046001600160a01b03166001600160a01b031663bbbf725b836040516001600160e01b031960e084901b1681526001600160a01b0390911660048201526024016020604051808303818680612301613c18565b15801561231657600080612313613a78565b50505b505a612320613c64565b505050505015801561233f573d6000803e3d600061233c613a78565b50505b505050506040513d602081101561235e5760008061235b613a78565b50505b81019080805195945050505050565b600060fd6108dc613ae3565b612381612da8565b565b60fc610e5a613ae3565b6001600160a01b03821660009081526066602052604081206001600160a01b0383166000908152602091909152604090206123c6613ae3565b9392505050565b6000806123d8611fcc565b905060006123e4610be9565b90506000808060fd6123f4613ae3565b906101000a90046001600160a01b03166001600160a01b031663b7a545265a63996d79a5598160e01b8152602081600483336000905af158601d01573d60011458600c01573d6000803e3d621234565260ea61109c528051925060005b604081101561246857600082820152602001612451565b5050506040516001600160e01b031960e084901b1681526001600160a01b039091166004820152602401604080518083038186806124a4613c18565b1580156124b9576000806124b6613a78565b50505b505a6124c3613c64565b50505050501580156124e2573d6000803e3d60006124df613a78565b50505b505050506040513d6040811015612501576000806124fe613a78565b50505b8101908080519291906020018051939550929350612531925086915085905060fe61252a613ae3565b8585613589565b94505050505090565b60606000610100612549613ae3565b906101000a90046001600160a01b03166001600160a01b031663fed4416a6040518163ffffffff1660e01b8152600401600060405180830381868061258c613c18565b1580156125a15760008061259e613a78565b50505b505a6125ab613c64565b50505050501580156125ca573d6000803e3d60006125c7613a78565b50505b505050506040513d6000823e601f3d908101601f1916820160405260208110156125fc576000806125f9613a78565b50505b8101908080516040519392919084600160201b82111561262457600080612621613a78565b50505b9083019060208201858111156126425760008061263f613a78565b50505b8251600160201b81118282018810171561266457600080612661613a78565b50505b825250602001908051906020019080838360005b83811015612690578082015183820152602001612678565b50505050905090810190601f1680156126bd5780820380516001836020036101000a031916815260200191505b50604052505050905090565b60005a610bf5613b8c565b6001600160a01b0383166127225760405162461bcd60e51b815260040180806020018281038252602481526020018061401f602491396040019150506040518091039061271f613a78565b50505b6001600160a01b0382166127705760405162461bcd60e51b8152600401808060200182810382526022815260200180613f1a602291396040019150506040518091039061276d613a78565b50505b6001600160a01b038316600090815260666020528190604090206001600160a01b03841660009081526020919091526040902081906127ad613b3e565b505050816001600160a01b0316836001600160a01b03167f8c5be1e5ebec7d5bd14f71427d1e84f3dd0314c0f7b2291e5b200ac8c7c3b9258360405190815260200160405180910390a3505050565b6000805a63996d79a5598160e01b8152602081600483336000905af158601d01573d60011458600c01573d6000803e3d621234565260ea61109c528051925060005b60408110156128555760008282015260200161283e565b5050509050600081612865613c18565b159250505090565b60016000612879613ae3565b906101000a900460ff168061289157506128916127fc565b806128ae57506000806128a2613ae3565b906101000a900460ff16155b6128f25760405162461bcd60e51b815260040180806020018281038252602e815260200180613fab602e9139604001915050604051809103906128ef613a78565b50505b60006001816128ff613ae3565b906101000a900460ff161590508015612965576001600061010081612922613ae3565b8160ff02191690831515021790612937613b3e565b50505060016000806101000a8161294c613ae3565b8160ff02191690831515021790612961613b3e565b5050505b61296d6135fa565b6129778383613706565b80156129a1576000806101008161298c613ae3565b8160ff02191690831515021790610be1613b3e565b505050565b600160006129b2613ae3565b906101000a900460ff16806129ca57506129ca6127fc565b806129e757506000806129db613ae3565b906101000a900460ff16155b612a2b5760405162461bcd60e51b815260040180806020018281038252602e815260200180613fab602e913960400191505060405180910390612a28613a78565b50505b6000600181612a38613ae3565b906101000a900460ff161590508015612a9e576001600061010081612a5b613ae3565b8160ff02191690831515021790612a70613b3e565b50505060016000806101000a81612a85613ae3565b8160ff02191690831515021790612a9a613b3e565b5050505b612aa6613863565b80156116a75760008061010081611527613ae3565b8060fb600181612ac9613ae3565b8160ff02191690831515021790612ade613b3e565b5050507f8d75e9ede4188432084b863d70b3416010c97547dfeb4fc17734d2e997ee0f3981604051901515815260200160405180910390a150565b600080610100612b27613ae3565b906101000a90046001600160a01b03166001600160a01b031663481c6a756040518163ffffffff1660e01b815260040160206040518083038186806116fa613c18565b6001600160a01b038316612bb85760405162461bcd60e51b8152600401808060200182810382526025815260200180613ffa6025913960400191505060405180910390612bb5613a78565b50505b6001600160a01b038216612c065760405162461bcd60e51b8152600401808060200182810382526023815260200180613ed56023913960400191505060405180910390612c03613a78565b50505b612c11838383613969565b612c4c81604051606081016040526026808252613f3c60208301396001600160a01b0386166000908152606560205260409020610e2c613ae3565b6001600160a01b03841660009081526065602052604090208190612c6e613b3e565b5050506001600160a01b03821660009081526065602052612c97908290604090206115bd613ae3565b6001600160a01b03831660009081526065602052604090208190612cb9613b3e565b505050816001600160a01b0316836001600160a01b03167fddf252ad1be2c89b69c2b068fc378daa952ba7f163c4a11628f55a4df523b3ef8360405190815260200160405180910390a3505050565b60008184841115612da05760405162461bcd60e51b81526004018080602001828103825283818151815260200191508051906020019080838360005b83811015612d5c578082015183820152602001612d44565b50505050905090810190601f168015612d895780820380516001836020036101000a031916815260200191505b509250505060405180910390612d9d613a78565b50505b505050900390565b6000612db2611fcc565b90506000612dbe610be9565b90506000808060fd612dce613ae3565b906101000a90046001600160a01b03166001600160a01b031663b7a545265a63996d79a5598160e01b8152602081600483336000905af158601d01573d60011458600c01573d6000803e3d621234565260ea61109c528051925060005b6040811015612e4257600082820152602001612e2b565b5050506040516001600160e01b031960e084901b1681526001600160a01b03909116600482015260240160408051808303818680612e7e613c18565b158015612e9357600080612e90613a78565b50505b505a612e9d613c64565b5050505050158015612ebc573d6000803e3d6000612eb9613a78565b50505b505050506040513d6040811015612edb57600080612ed8613a78565b50505b810190808051929190602001805193955092935060009250612f0d91508690508560fe612f06613ae3565b8686613589565b90506064811015612f22575050505050612381565b60008060fd612f2f613ae3565b906101000a90046001600160a01b03166001600160a01b0316631d68702d6040518163ffffffff1660e01b81526004016020604051808303818680612f72613c18565b158015612f8757600080612f84613a78565b50505b505a612f91613c64565b5050505050158015612fb0573d6000803e3d6000612fad613a78565b50505b505050506040513d6020811015612fcf57600080612fcc613a78565b50505b81019080805193506000925082915081905060fd612feb613ae3565b906101000a90046001600160a01b03166001600160a01b0316639cada6e46040518163ffffffff1660e01b81526004016040805180830381868061302d613c18565b1580156130425760008061303f613a78565b50505b505a61304c613c64565b505050505015801561306b573d6000803e3d6000613068613a78565b50505b505050506040513d604081101561308a57600080613087613a78565b50505b8101908080519291906020018051939550929350600092506130b4915083905061104b87866131d9565b905060006130c28683613549565b905081156130d4576130d48583613400565b80156130e5576130e5611b52612b19565b6130ef8a8a613519565b8060fe6130fa613b3e565b5050507f755a8059d66d8d243bc9f6913f429a811f154599d0538bb0b6a2ac23f23d2ccd5a63996d79a5598160e01b8152602081600483336000905af158601d01573d60011458600c01573d6000803e3d621234565260ea61109c528051925060005b60408110156131745760008282015260200161315d565b50505061317f612b19565b88858560fe61318c613ae3565b6040516001600160a01b0396871681529490951660208501526040808501939093526060840191909152608083015260a082019290925260c001905180910390a150505050505050505050565b6000826131e8575060006109c4565b828202828482816131f557fe5b04146123c65760405162461bcd60e51b8152600401808060200182810382526021815260200180613f626021913960400191505060405180910390613238613a78565b50509392505050565b60006123c6838360405160408082019052601a81527f536166654d6174683a206469766973696f6e206279207a65726f00000000000060208201526139cd565b6001600160a01b0382166132cf5760405162461bcd60e51b8152600401808060200182810382526021815260200180613fd960219139604001915050604051809103906132cc613a78565b50505b6132db82600083613969565b61331681604051606081016040526022808252613ef860208301396001600160a01b0385166000908152606560205260409020610e2c613ae3565b6001600160a01b03831660009081526065602052604090208190613338613b3e565b50505061334f816067613349613ae3565b90613549565b80606761335a613b3e565b5060009150506001600160a01b0383167fddf252ad1be2c89b69c2b068fc378daa952ba7f163c4a11628f55a4df523b3ef8360405190815260200160405180910390a35050565b6000828201838110156123c65760405162461bcd60e51b815260206004820152601b60248201527f536166654d6174683a206164646974696f6e206f766572666c6f770000000000604482015260640160405180910390613238613a78565b6001600160a01b0382166134635760405162461bcd60e51b815260206004820152601f60248201527f45524332303a206d696e7420746f20746865207a65726f206164647265737300604482015260640160405180910390613460613a78565b50505b61346f60008383613969565b61347d8160676115bd613ae3565b806067613488613b3e565b5050506001600160a01b038216600090815260656020526134b1908290604090206115bd613ae3565b6001600160a01b038316600090815260656020526040902081906134d3613b3e565b5050506001600160a01b03821660007fddf252ad1be2c89b69c2b068fc378daa952ba7f163c4a11628f55a4df523b3ef8360405190815260200160405180910390a35050565b6000811580613526575082155b15613533575060006109c4565b6123c68261104b85670de0b6b3a76400006131d9565b60006123c6838360405160408082019052601e81527f536166654d6174683a207375627472616374696f6e206f766572666c6f7700006020820152612d08565b6000841580613596575085155b156135a3575060006135f1565b60006135bb8661104b89670de0b6b3a76400006131d9565b90508481116135ce5760009150506135f1565b60006135ec8261104b8681896135e68d81878f613549565b906131d9565b925050505b95945050505050565b60016000613606613ae3565b906101000a900460ff168061361e575061361e6127fc565b8061363b575060008061362f613ae3565b906101000a900460ff16155b61367f5760405162461bcd60e51b815260040180806020018281038252602e815260200180613fab602e91396040019150506040518091039061367c613a78565b50505b600060018161368c613ae3565b906101000a900460ff161590508015612aa65760016000610100816136af613ae3565b8160ff021916908315150217906136c4613b3e565b50505060016000806101000a816136d9613ae3565b8160ff021916908315150217906136ee613b3e565b50505080156116a75760008061010081611527613ae3565b60016000613712613ae3565b906101000a900460ff168061372a575061372a6127fc565b80613747575060008061373b613ae3565b906101000a900460ff16155b61378b5760405162461bcd60e51b815260040180806020018281038252602e815260200180613fab602e913960400191505060405180910390613788613a78565b50505b6000600181613798613ae3565b906101000a900460ff1615905080156137fe5760016000610100816137bb613ae3565b8160ff021916908315150217906137d0613b3e565b50505060016000806101000a816137e5613ae3565b8160ff021916908315150217906137fa613b3e565b5050505b6068838051613811929160200190613e15565b506069828051613825929160200190613e15565b506012606a600181613835613ae3565b8160ff021916908360ff1602179061384b613b3e565b50505080156129a1576000806101008161298c613ae3565b6001600061386f613ae3565b906101000a900460ff168061388757506138876127fc565b806138a45750600080613898613ae3565b906101000a900460ff16155b6138e85760405162461bcd60e51b815260040180806020018281038252602e815260200180613fab602e9139604001915050604051809103906138e5613a78565b50505b60006001816138f5613ae3565b906101000a900460ff16159050801561395b576001600061010081613918613ae3565b8160ff0219169083151502179061392d613b3e565b50505060016000806101000a81613942613ae3565b8160ff02191690831515021790613957613b3e565b5050505b6001609781816136d9613ae3565b6139748383836129a1565b61397d83612230565b156129a15760405162461bcd60e51b815260206004820152600f60248201526e636f6f6c646f776e2061637469766560881b6044820152606401604051809103906139c6613a78565b5050505050565b60008183613a625760405162461bcd60e51b81526004018080602001828103825283818151815260200191508051906020019080838360005b83811015613a1e578082015183820152602001613a06565b50505050905090810190601f168015613a4b5780820380516001836020036101000a031916815260200191505b509250505060405180910390613a5f613a78565b50505b506000838581613a6e57fe5b0495945050505050565b632a2a7adb598160e01b8152600481016020815285602082015260005b86811015613ab0578086015182820160400152602001613a95565b506020828760640184336000905af158601d01573d60011458600c01573d6000803e3d621234565260ea61109c52505050565b6303daa959598160e01b8152836004820152602081602483336000905af158601d01573d60011458600c01573d6000803e3d621234565260ea61109c528051935060005b60408110156129a157600082820152602001613b27565b6322bd64c0598160e01b8152836004820152846024820152600081604483336000905af158601d01573d60011458600c01573d6000803e3d621234565260ea61109c52600081526020613b27565b6373509064598160e01b8152602081600483336000905af158601d01573d60011458600c01573d6000803e3d621234565260ea61109c5280516000825293506020613b27565b63bdbf8c36598160e01b8152602081600483336000905af158601d01573d60011458600c01573d6000803e3d621234565260ea61109c5280516000825293506020613b27565b638435035b598160e01b8152836004820152602081602483336000905af158601d01573d60011458600c01573d6000803e3d621234565260ea61109c5280516000825293506020613b27565b638540661f598160e01b8152613c95565b80808311156109c4575090919050565b80808310156109c4575090919050565b836004820152846024820152606060448201528660648201526084810160005b88811015613ccd578088015182820152602001613cb5565b506060828960a40184336000905af158601d01573d60011458600c01573d6000803e3d621234565260ea61109c52815160408301513d6000853e8b8b82606087013350600060045af15059613d228d3d613c85565b8c01613d2e8187613c75565b5b82811015613d435760008152602001613d2f565b50929c50505050505050565b6385979f76598160e01b8152836004820152846024820152606060448201528760648201526084810160005b89811015613d93578089015182820152602001613d7b565b506060828a60a40184336000905af158601d01573d60011458600c01573d6000803e3d621234565260ea61109c52815160408301513d6000853e8c8c82606087013350600060045af15059613de88e3d613c85565b8d01613df48187613c75565b5b82811015613e095760008152602001613df5565b50929d50505050505050565b8280613e1f613ae3565b600181600116156101000203166002900490600052602060002090601f016020900481019282601f10613e6657805160ff19168380011785613e5f613b3e565b5050613ea5565b82800160010185613e75613b3e565b50508215613ea5579182015b82811115613ea557825182613e94613b3e565b505091602001919060010190613e81565b50613eb1929150613eb5565b5090565b80821115613eb15760008082613ec9613b3e565b505050600101613eb556fe45524332303a207472616e7366657220746f20746865207a65726f206164647265737345524332303a206275726e20616d6f756e7420657863656564732062616c616e636545524332303a20617070726f766520746f20746865207a65726f206164647265737345524332303a207472616e7366657220616d6f756e7420657863656564732062616c616e6365536166654d6174683a206d756c7469706c69636174696f6e206f766572666c6f7745524332303a207472616e7366657220616d6f756e74206578636565647320616c6c6f77616e6365436f6e747261637420696e7374616e63652068617320616c7265616479206265656e20696e697469616c697a656445524332303a206275726e2066726f6d20746865207a65726f206164647265737345524332303a207472616e736665722066726f6d20746865207a65726f206164647265737345524332303a20617070726f76652066726f6d20746865207a65726f206164647265737345524332303a2064656372656173656420616c6c6f77616e63652062656c6f77207a65726f",
  "linkReferences": {},
  "deployedLinkReferences": {}
}