{
  "_format": "hh-sol-artifact-1",
  "contractName": "PoolLogic-ovm",
  "sourceName": "contracts/PoolLogic.sol",
  "abi": [
    {
      "anonymous": false,
      "inputs": [
        {
          "indexed": true,
          "internalType": "address",
          "name": "owner",
          "type": "address"
        },
        {
          "indexed": true,
          "internalType": "address",
          "name": "spender",
          "type": "address"
        },
        {
          "indexed": false,
          "internalType": "uint256",
          "name": "value",
          "type": "uint256"
        }
      ],
      "name": "Approval",
      "type": "event"
    },
    {
      "anonymous": false,
      "inputs": [
        {
          "indexed": false,
          "internalType": "address",
          "name": "fundAddress",
          "type": "address"
        },
        {
          "indexed": false,
          "internalType": "address",
          "name": "investor",
          "type": "address"
        },
        {
          "indexed": false,
          "internalType": "uint256",
          "name": "valueDeposited",
          "type": "uint256"
        },
        {
          "indexed": false,
          "internalType": "uint256",
          "name": "fundTokensReceived",
          "type": "uint256"
        },
        {
          "indexed": false,
          "internalType": "uint256",
          "name": "totalInvestorFundTokens",
          "type": "uint256"
        },
        {
          "indexed": false,
          "internalType": "uint256",
          "name": "fundValue",
          "type": "uint256"
        },
        {
          "indexed": false,
          "internalType": "uint256",
          "name": "totalSupply",
          "type": "uint256"
        },
        {
          "indexed": false,
          "internalType": "uint256",
          "name": "time",
          "type": "uint256"
        }
      ],
      "name": "Deposit",
      "type": "event"
    },
    {
      "anonymous": false,
      "inputs": [
        {
          "indexed": false,
          "internalType": "address",
          "name": "pool",
          "type": "address"
        },
        {
          "indexed": false,
          "internalType": "address",
          "name": "manager",
          "type": "address"
        },
        {
          "indexed": false,
          "internalType": "uint256",
          "name": "available",
          "type": "uint256"
        },
        {
          "indexed": false,
          "internalType": "uint256",
          "name": "daoFee",
          "type": "uint256"
        },
        {
          "indexed": false,
          "internalType": "uint256",
          "name": "managerFee",
          "type": "uint256"
        },
        {
          "indexed": false,
          "internalType": "uint256",
          "name": "tokenPriceAtLastFeeMint",
          "type": "uint256"
        }
      ],
      "name": "ManagerFeeMinted",
      "type": "event"
    },
    {
      "anonymous": false,
      "inputs": [
        {
          "indexed": false,
          "internalType": "address",
          "name": "poolManagerLogic",
          "type": "address"
        },
        {
          "indexed": false,
          "internalType": "address",
          "name": "from",
          "type": "address"
        }
      ],
      "name": "PoolManagerLogicSet",
      "type": "event"
    },
    {
      "anonymous": false,
      "inputs": [
        {
          "indexed": false,
          "internalType": "bool",
          "name": "isPoolPrivate",
          "type": "bool"
        }
      ],
      "name": "PoolPrivacyUpdated",
      "type": "event"
    },
    {
      "anonymous": false,
      "inputs": [
        {
          "indexed": true,
          "internalType": "address",
          "name": "from",
          "type": "address"
        },
        {
          "indexed": true,
          "internalType": "address",
          "name": "to",
          "type": "address"
        },
        {
          "indexed": false,
          "internalType": "uint256",
          "name": "value",
          "type": "uint256"
        }
      ],
      "name": "Transfer",
      "type": "event"
    },
    {
      "anonymous": false,
      "inputs": [
        {
          "indexed": false,
          "internalType": "address",
          "name": "fundAddress",
          "type": "address"
        },
        {
          "indexed": false,
          "internalType": "address",
          "name": "investor",
          "type": "address"
        },
        {
          "indexed": false,
          "internalType": "uint256",
          "name": "valueWithdrawn",
          "type": "uint256"
        },
        {
          "indexed": false,
          "internalType": "uint256",
          "name": "fundTokensWithdrawn",
          "type": "uint256"
        },
        {
          "indexed": false,
          "internalType": "uint256",
          "name": "totalInvestorFundTokens",
          "type": "uint256"
        },
        {
          "indexed": false,
          "internalType": "uint256",
          "name": "fundValue",
          "type": "uint256"
        },
        {
          "indexed": false,
          "internalType": "uint256",
          "name": "totalSupply",
          "type": "uint256"
        },
        {
          "indexed": false,
          "internalType": "uint256",
          "name": "time",
          "type": "uint256"
        }
      ],
      "name": "Withdrawal",
      "type": "event"
    },
    {
      "inputs": [
        {
          "internalType": "address",
          "name": "owner",
          "type": "address"
        },
        {
          "internalType": "address",
          "name": "spender",
          "type": "address"
        }
      ],
      "name": "allowance",
      "outputs": [
        {
          "internalType": "uint256",
          "name": "",
          "type": "uint256"
        }
      ],
      "stateMutability": "view",
      "type": "function"
    },
    {
      "inputs": [
        {
          "internalType": "address",
          "name": "spender",
          "type": "address"
        },
        {
          "internalType": "uint256",
          "name": "amount",
          "type": "uint256"
        }
      ],
      "name": "approve",
      "outputs": [
        {
          "internalType": "bool",
          "name": "",
          "type": "bool"
        }
      ],
      "stateMutability": "nonpayable",
      "type": "function"
    },
    {
      "inputs": [],
      "name": "availableManagerFee",
      "outputs": [
        {
          "internalType": "uint256",
          "name": "",
          "type": "uint256"
        }
      ],
      "stateMutability": "view",
      "type": "function"
    },
    {
      "inputs": [
        {
          "internalType": "address",
          "name": "account",
          "type": "address"
        }
      ],
      "name": "balanceOf",
      "outputs": [
        {
          "internalType": "uint256",
          "name": "",
          "type": "uint256"
        }
      ],
      "stateMutability": "view",
      "type": "function"
    },
    {
      "inputs": [
        {
          "internalType": "bytes32",
          "name": "c__0xc979c354",
          "type": "bytes32"
        }
      ],
      "name": "c_0xc979c354",
      "outputs": [],
      "stateMutability": "pure",
      "type": "function"
    },
    {
      "inputs": [],
      "name": "creationTime",
      "outputs": [
        {
          "internalType": "uint256",
          "name": "",
          "type": "uint256"
        }
      ],
      "stateMutability": "view",
      "type": "function"
    },
    {
      "inputs": [],
      "name": "creator",
      "outputs": [
        {
          "internalType": "address",
          "name": "",
          "type": "address"
        }
      ],
      "stateMutability": "view",
      "type": "function"
    },
    {
      "inputs": [],
      "name": "decimals",
      "outputs": [
        {
          "internalType": "uint8",
          "name": "",
          "type": "uint8"
        }
      ],
      "stateMutability": "view",
      "type": "function"
    },
    {
      "inputs": [
        {
          "internalType": "address",
          "name": "spender",
          "type": "address"
        },
        {
          "internalType": "uint256",
          "name": "subtractedValue",
          "type": "uint256"
        }
      ],
      "name": "decreaseAllowance",
      "outputs": [
        {
          "internalType": "bool",
          "name": "",
          "type": "bool"
        }
      ],
      "stateMutability": "nonpayable",
      "type": "function"
    },
    {
      "inputs": [
        {
          "internalType": "address",
          "name": "_asset",
          "type": "address"
        },
        {
          "internalType": "uint256",
          "name": "_amount",
          "type": "uint256"
        }
      ],
      "name": "deposit",
      "outputs": [
        {
          "internalType": "uint256",
          "name": "",
          "type": "uint256"
        }
      ],
      "stateMutability": "nonpayable",
      "type": "function"
    },
    {
      "inputs": [],
      "name": "factory",
      "outputs": [
        {
          "internalType": "address",
          "name": "",
          "type": "address"
        }
      ],
      "stateMutability": "view",
      "type": "function"
    },
    {
      "inputs": [],
      "name": "getExitCooldown",
      "outputs": [
        {
          "internalType": "uint256",
          "name": "",
          "type": "uint256"
        }
      ],
      "stateMutability": "view",
      "type": "function"
    },
    {
      "inputs": [
        {
          "internalType": "address",
          "name": "sender",
          "type": "address"
        }
      ],
      "name": "getExitRemainingCooldown",
      "outputs": [
        {
          "internalType": "uint256",
          "name": "",
          "type": "uint256"
        }
      ],
      "stateMutability": "view",
      "type": "function"
    },
    {
      "inputs": [],
      "name": "getFundSummary",
      "outputs": [
        {
          "internalType": "string",
          "name": "",
          "type": "string"
        },
        {
          "internalType": "uint256",
          "name": "",
          "type": "uint256"
        },
        {
          "internalType": "uint256",
          "name": "",
          "type": "uint256"
        },
        {
          "internalType": "address",
          "name": "",
          "type": "address"
        },
        {
          "internalType": "string",
          "name": "",
          "type": "string"
        },
        {
          "internalType": "uint256",
          "name": "",
          "type": "uint256"
        },
        {
          "internalType": "bool",
          "name": "",
          "type": "bool"
        },
        {
          "internalType": "uint256",
          "name": "",
          "type": "uint256"
        },
        {
          "internalType": "uint256",
          "name": "",
          "type": "uint256"
        }
      ],
      "stateMutability": "view",
      "type": "function"
    },
    {
      "inputs": [
        {
          "internalType": "address",
          "name": "spender",
          "type": "address"
        },
        {
          "internalType": "uint256",
          "name": "addedValue",
          "type": "uint256"
        }
      ],
      "name": "increaseAllowance",
      "outputs": [
        {
          "internalType": "bool",
          "name": "",
          "type": "bool"
        }
      ],
      "stateMutability": "nonpayable",
      "type": "function"
    },
    {
      "inputs": [
        {
          "internalType": "address",
          "name": "_factory",
          "type": "address"
        },
        {
          "internalType": "bool",
          "name": "_privatePool",
          "type": "bool"
        },
        {
          "internalType": "string",
          "name": "_fundName",
          "type": "string"
        },
        {
          "internalType": "string",
          "name": "_fundSymbol",
          "type": "string"
        },
        {
          "internalType": "address",
          "name": "_poolManagerLogic",
          "type": "address"
        }
      ],
      "name": "initialize",
      "outputs": [],
      "stateMutability": "nonpayable",
      "type": "function"
    },
    {
      "inputs": [
        {
          "internalType": "address",
          "name": "member",
          "type": "address"
        }
      ],
      "name": "isMemberAllowed",
      "outputs": [
        {
          "internalType": "bool",
          "name": "",
          "type": "bool"
        }
      ],
      "stateMutability": "view",
      "type": "function"
    },
    {
      "inputs": [
        {
          "internalType": "address",
          "name": "",
          "type": "address"
        }
      ],
      "name": "lastDeposit",
      "outputs": [
        {
          "internalType": "uint256",
          "name": "",
          "type": "uint256"
        }
      ],
      "stateMutability": "view",
      "type": "function"
    },
    {
      "inputs": [],
      "name": "managerName",
      "outputs": [
        {
          "internalType": "string",
          "name": "",
          "type": "string"
        }
      ],
      "stateMutability": "view",
      "type": "function"
    },
    {
      "inputs": [],
      "name": "mintManagerFee",
      "outputs": [],
      "stateMutability": "nonpayable",
      "type": "function"
    },
    {
      "inputs": [],
      "name": "name",
      "outputs": [
        {
          "internalType": "string",
          "name": "",
          "type": "string"
        }
      ],
      "stateMutability": "view",
      "type": "function"
    },
    {
      "inputs": [],
      "name": "poolManagerLogic",
      "outputs": [
        {
          "internalType": "address",
          "name": "",
          "type": "address"
        }
      ],
      "stateMutability": "view",
      "type": "function"
    },
    {
      "inputs": [],
      "name": "privatePool",
      "outputs": [
        {
          "internalType": "bool",
          "name": "",
          "type": "bool"
        }
      ],
      "stateMutability": "view",
      "type": "function"
    },
    {
      "inputs": [
        {
          "internalType": "address",
          "name": "_poolManagerLogic",
          "type": "address"
        }
      ],
      "name": "setPoolManagerLogic",
      "outputs": [
        {
          "internalType": "bool",
          "name": "",
          "type": "bool"
        }
      ],
      "stateMutability": "nonpayable",
      "type": "function"
    },
    {
      "inputs": [
        {
          "internalType": "bool",
          "name": "_privatePool",
          "type": "bool"
        }
      ],
      "name": "setPoolPrivate",
      "outputs": [],
      "stateMutability": "nonpayable",
      "type": "function"
    },
    {
      "inputs": [],
      "name": "symbol",
      "outputs": [
        {
          "internalType": "string",
          "name": "",
          "type": "string"
        }
      ],
      "stateMutability": "view",
      "type": "function"
    },
    {
      "inputs": [],
      "name": "tokenPrice",
      "outputs": [
        {
          "internalType": "uint256",
          "name": "",
          "type": "uint256"
        }
      ],
      "stateMutability": "view",
      "type": "function"
    },
    {
      "inputs": [],
      "name": "tokenPriceAtLastFeeMint",
      "outputs": [
        {
          "internalType": "uint256",
          "name": "",
          "type": "uint256"
        }
      ],
      "stateMutability": "view",
      "type": "function"
    },
    {
      "inputs": [],
      "name": "totalFundValue",
      "outputs": [
        {
          "internalType": "uint256",
          "name": "",
          "type": "uint256"
        }
      ],
      "stateMutability": "view",
      "type": "function"
    },
    {
      "inputs": [],
      "name": "totalSupply",
      "outputs": [
        {
          "internalType": "uint256",
          "name": "",
          "type": "uint256"
        }
      ],
      "stateMutability": "view",
      "type": "function"
    },
    {
      "inputs": [
        {
          "internalType": "address",
          "name": "recipient",
          "type": "address"
        },
        {
          "internalType": "uint256",
          "name": "amount",
          "type": "uint256"
        }
      ],
      "name": "transfer",
      "outputs": [
        {
          "internalType": "bool",
          "name": "",
          "type": "bool"
        }
      ],
      "stateMutability": "nonpayable",
      "type": "function"
    },
    {
      "inputs": [
        {
          "internalType": "address",
          "name": "sender",
          "type": "address"
        },
        {
          "internalType": "address",
          "name": "recipient",
          "type": "address"
        },
        {
          "internalType": "uint256",
          "name": "amount",
          "type": "uint256"
        }
      ],
      "name": "transferFrom",
      "outputs": [
        {
          "internalType": "bool",
          "name": "",
          "type": "bool"
        }
      ],
      "stateMutability": "nonpayable",
      "type": "function"
    },
    {
      "inputs": [
        {
          "internalType": "uint256",
          "name": "_fundTokenAmount",
          "type": "uint256"
        }
      ],
      "name": "withdraw",
      "outputs": [],
      "stateMutability": "nonpayable",
      "type": "function"
    }
  ],
  "bytecode": "0x60806040523480156200001c576000806200001962000023565b50505b5062000093565b632a2a7adb598160e01b8152600481016020815285602082015260005b868110156200006057808601518160408401015260208101905062000040565b506020828760640184336000905af158600e01573d6000803e3d6000fd5b3d6001141558600a015760016000f35b505050565b6186b280620000a36000396000f3fe608060405234801561001957600080610016618003565b50505b50600436106102045760003560e01c806370a0823111610123578063b4139acd116100b6578063cc3c6df611610085578063cc3c6df614610cdc578063d8270dce14610ce6578063dd62ed3e14610d04578063edbf6f5014610d85578063fed4416a14610da357610204565b8063b4139acd14610bad578063b8ea2b6e14610be4578063bbbf725b14610c45578063c45a015514610ca857610204565b806395d89b41116100f257806395d89b4114610a32578063a457c2d714610ab5578063a9059cbb14610b22578063ad60ffcc14610b8f57610204565b806370a0823114610932578063750226de146109935780637714f39d146109f65780637ff9b59614610a1457610204565b806329d16ee81161019b5780633babaad51161016a5780633babaad5146108505780634501b0881461088957806347e7ef24146108a757806359b5e75e1461091257610204565b806329d16ee81461072a5780632e1a7d4d1461078b578063313ce567146107c257806339509351146107e357610204565b806318160ddd116101d757806318160ddd146105135780631c5918d2146105315780631e50a4a61461066957806323b872dd1461069d57610204565b806302d05d3f1461021257806306fdde0314610246578063095ea7b3146102c95780630ccb30c714610336575b60008061020f618003565b50505b61021a610e26565b604051808273ffffffffffffffffffffffffffffffffffffffff16815260200191505060405180910390f35b61024e610e53565b6040518080602001828103825283818151815260200191508051906020019080838360005b8381101561028e578082015181840152602081019050610273565b50505050905090810190601f1680156102bb5780820380516001836020036101000a031916815260200191505b509250505060405180910390f35b61031e600480360360408110156102e8576000806102e5618003565b50505b81019080803573ffffffffffffffffffffffffffffffffffffffff16906020019092919080359060200190929190505050610f11565b60405180821515815260200191505060405180910390f35b610511600480360360a081101561035557600080610352618003565b50505b81019080803573ffffffffffffffffffffffffffffffffffffffff169060200190929190803515159060200190929190803590602001906401000000008111156103a7576000806103a4618003565b50505b8201836020820111156103c2576000806103bf618003565b50505b803590602001918460018302840111640100000000831117156103ed576000806103ea618003565b50505b91908080601f016020809104026020016040519081016040528093929190818152602001838380828437600081840152601f19601f8201169050808301925050505050505091929192908035906020019064010000000081111561045957600080610456618003565b50505b82018360208201111561047457600080610471618003565b50505b8035906020019184600183028401116401000000008311171561049f5760008061049c618003565b50505b91908080601f016020809104026020016040519081016040528093929190818152602001838380828437600081840152601f19601f820116905080830192505050505050509192919290803573ffffffffffffffffffffffffffffffffffffffff169060200190929190505050610f2f565b005b61051b6114b2565b6040518082815260200191505060405180910390f35b6105396114c3565b60405180806020018a81526020018981526020018873ffffffffffffffffffffffffffffffffffffffff16815260200180602001878152602001861515815260200185815260200184815260200183810383528c818151815260200191508051906020019080838360005b838110156105bf5780820151818401526020810190506105a4565b50505050905090810190601f1680156105ec5780820380516001836020036101000a031916815260200191505b50838103825288818151815260200191508051906020019080838360005b8381101561062557808201518184015260208101905061060a565b50505050905090810190601f1680156106525780820380516001836020036101000a031916815260200191505b509b50505050505050505050505060405180910390f35b610671611831565b604051808273ffffffffffffffffffffffffffffffffffffffff16815260200191505060405180910390f35b610712600480360360608110156106bc576000806106b9618003565b50505b81019080803573ffffffffffffffffffffffffffffffffffffffff169060200190929190803573ffffffffffffffffffffffffffffffffffffffff1690602001909291908035906020019092919050505061185e565b60405180821515815260200191505060405180910390f35b6107756004803603602081101561074957600080610746618003565b50505b81019080803573ffffffffffffffffffffffffffffffffffffffff16906020019092919050505061193e565b6040518082815260200191505060405180910390f35b6107c0600480360360208110156107aa576000806107a7618003565b50505b810190808035906020019092919050505061195d565b005b6107ca61284e565b604051808260ff16815260200191505060405180910390f35b61083860048036036040811015610802576000806107ff618003565b50505b81019080803573ffffffffffffffffffffffffffffffffffffffff1690602001909291908035906020019092919050505061286c565b60405180821515815260200191505060405180910390f35b6108876004803603602081101561086f5760008061086c618003565b50505b81019080803515159060200190929190505050612926565b005b610891612cc0565b6040518082815260200191505060405180910390f35b6108fc600480360360408110156108c6576000806108c3618003565b50505b81019080803573ffffffffffffffffffffffffffffffffffffffff16906020019092919080359060200190929190505050612e23565b6040518082815260200191505060405180910390f35b61091a613c82565b60405180821515815260200191505060405180910390f35b61097d600480360360208110156109515760008061094e618003565b50505b81019080803573ffffffffffffffffffffffffffffffffffffffff169060200190929190505050613c9c565b6040518082815260200191505060405180910390f35b6109de600480360360208110156109b2576000806109af618003565b50505b81019080803573ffffffffffffffffffffffffffffffffffffffff169060200190929190505050613cec565b60405180821515815260200191505060405180910390f35b6109fe614186565b6040518082815260200191505060405180910390f35b610a1c614193565b6040518082815260200191505060405180910390f35b610a3a6142f2565b6040518080602001828103825283818151815260200191508051906020019080838360005b83811015610a7a578082015181840152602081019050610a5f565b50505050905090810190601f168015610aa75780820380516001836020036101000a031916815260200191505b509250505060405180910390f35b610b0a60048036036040811015610ad457600080610ad1618003565b50505b81019080803573ffffffffffffffffffffffffffffffffffffffff169060200190929190803590602001909291905050506143b0565b60405180821515815260200191505060405180910390f35b610b7760048036036040811015610b4157600080610b3e618003565b50505b81019080803573ffffffffffffffffffffffffffffffffffffffff16906020019092919080359060200190929190505050614484565b60405180821515815260200191505060405180910390f35b610b976144a2565b6040518082815260200191505060405180910390f35b610be260048036036020811015610bcc57600080610bc9618003565b50505b81019080803590602001909291905050506149f0565b005b610c2f60048036036020811015610c0357600080610c00618003565b50505b81019080803573ffffffffffffffffffffffffffffffffffffffff1690602001909291905050506149f3565b6040518082815260200191505060405180910390f35b610c9060048036036020811015610c6457600080610c61618003565b50505b81019080803573ffffffffffffffffffffffffffffffffffffffff169060200190929190505050614cae565b60405180821515815260200191505060405180910390f35b610cb0614e34565b604051808273ffffffffffffffffffffffffffffffffffffffff16815260200191505060405180910390f35b610ce4614e61565b005b610cee614eef565b6040518082815260200191505060405180910390f35b610d6f60048036036040811015610d2357600080610d20618003565b50505b81019080803573ffffffffffffffffffffffffffffffffffffffff169060200190929190803573ffffffffffffffffffffffffffffffffffffffff169060200190929190505050614efc565b6040518082815260200191505060405180910390f35b610d8d614f8a565b6040518082815260200191505060405180910390f35b610dab615368565b6040518080602001828103825283818151815260200191508051906020019080838360005b83811015610deb578082015181840152602081019050610dd0565b50505050905090810190601f168015610e185780820380516001836020036101000a031916815260200191505b509250505060405180910390f35b60c9600190610e33618071565b906101000a900473ffffffffffffffffffffffffffffffffffffffff1681565b6060606880610e60618071565b600181600116156101000203166002900480601f01602080910402602001604051908101604052809291908181526020018280610e9b618071565b60018160011615610100020316600290048015610f075780601f10610ed5576101008083610ec7618071565b040283529160200191610f07565b820191906000526020600020905b81610eec618071565b81529060010190602001808311610ee357829003601f168201915b5050505050905090565b6000610f25610f1e6155a4565b84846155b4565b6001905092915050565b6000600190610f3c618071565b906101000a900460ff1680610f555750610f546157c6565b5b80610f725750600080610f66618071565b906101000a900460ff16155b610fd0576040517f08c379a000000000000000000000000000000000000000000000000000000000815260040180806020018281038252602e8152602001806185f5602e913960400191505060405180910390610fcd618003565b50505b600080600190610fde618071565b906101000a900460ff161590508015611047576001600060016101000a81611004618071565b8160ff021916908315150217906110196180d4565b50505060016000806101000a8161102e618071565b8160ff021916908315150217906110436180d4565b5050505b6110737f469f35ae6c10408f8b1511b1d8fd05afda3ab254bf0c96fc6f1260a65886136660001b6149f0565b61109f7f82b5aeb01148a3128493aa7f862fd143cee8921c117f13f68793c8c6d63facf060001b6149f0565b6110cb7fd623550b1df393b107444a45065c15365b61b48734d4022e44b91bb6372cd24a60001b6149f0565b6110d5848461583f565b6111017f2e5dffe8a8340bc23ae80bebc548c74a4f2ae3979df62c60184b3b4537db762560001b6149f0565b61112d7fb84872ac1bdc594e04e14330605090368df472cd38ad3dbd98423c1d6e8e410860001b6149f0565b61113561599f565b6111617f07b65f55b27ec944f17bf760651091e61ead8dd8d442a5820f94e659bd50f1fe60001b6149f0565b61118d7f35d41d75afebb13957e03297da9906f56ff7f4692074990b201d000da6cb5c4a60001b6149f0565b8560cb60006101000a8161119f618071565b8173ffffffffffffffffffffffffffffffffffffffff021916908373ffffffffffffffffffffffffffffffffffffffff160217906111db6180d4565b50505061120a7f31e2c04996cd34c61628b2410eb98ae3291f79107f156da2d7b2389163883e7460001b6149f0565b6112367fa4cfe4520c6c686510c2d25da657fc19ab7f3569a550d74ba7ab21d88baedc2f60001b6149f0565b61123f85615af3565b61126b7f0c0f473acebc2ceec13f0c903f19ec91c0c47b7d7c23ce86978c76c1cd60e52960001b6149f0565b6112977f126cbacd934dc234e55172fd3b4244818dc226cca45573eedb8f47326be695a560001b6149f0565b5a6112a0618139565b60c960016101000a816112b1618071565b8173ffffffffffffffffffffffffffffffffffffffff021916908373ffffffffffffffffffffffffffffffffffffffff160217906112ed6180d4565b50505061131c7ffef8aac2c0fe0e6c003655cbf7ccb94a51f52c8fd5486f1b8e09a9f09476fc0a60001b6149f0565b6113487f43128f1c62b6d7820922ed3c979315b2f66b9c36f6aabe9d8185cb3da949eb0b60001b6149f0565b5a611351618196565b60ca819061135d6180d4565b50505061138c7ff758563aca0c1e5c3f7842428c046cbbe5b51f729eef94b99addeb832f2df1a860001b6149f0565b6113b87f558a2f6c913631f622df5a2706ed33bdeaa58bc0ad2f91f0c4ee570f17f10ccb60001b6149f0565b670de0b6b3a764000060cc81906113cd6180d4565b5050506113fc7f39914be7d2c33c72f70662d08c778abe46dd79ec6493bde71511fd986f422b6b60001b6149f0565b6114287ff78a087868b1824466a5d522c26d078b1f09e2782d00e65bbffbe4aa3f7daefa60001b6149f0565b8160ce60006101000a8161143a618071565b8173ffffffffffffffffffffffffffffffffffffffff021916908373ffffffffffffffffffffffffffffffffffffffff160217906114766180d4565b50505080156114aa5760008060016101000a81611491618071565b8160ff021916908315150217906114a66180d4565b5050505b505050505050565b600060676114be618071565b905090565b6060600080600060606000806000806114fe7f4bdde2baa7989cd71add97d5075938e58007b1072bdff1a7a1cc374fe88e299e60001b6149f0565b61152a7f935800f9a1029c62e35d07072fe7cf07908e26d8488cb1fc5951739c6237574a60001b6149f0565b6115567f4dc76c8eb48240f83aff4d76497be8134c10b69924fc6d7150d0288c43e499b060001b6149f0565b60006115847f9183dd2bdc6a70b152a11b779197ff3191c1312ad9b21f464d61c9b0bfc7b29860001b6149f0565b6115b07fab419f808377a0ce17ae86208b1105b7eb03320d967f42c964117f4212b01f2a60001b6149f0565b60006115de7f0fc18e998f8b1156c7b9a6b974e1a26644c67297402928fb52e47779b2a7a95160001b6149f0565b61160a7f57adcf854743f7edf254d073762930e14832220efa6e48a5c931137811be8c9f60001b6149f0565b60cb600090611617618071565b906101000a900473ffffffffffffffffffffffffffffffffffffffff1673ffffffffffffffffffffffffffffffffffffffff1663b7a545265a63996d79a5598160e01b8152602081600483336000905af158600e01573d6000803e3d6000fd5b3d6001141558600a015760016000f35b8051925060005b60408110156116a85760008183015260208101905061168e565b5050506040518263ffffffff1660e01b8152600401808273ffffffffffffffffffffffffffffffffffffffff168152602001915050604080518083038186806116ef6181f3565b15801561170457600080611701618003565b50505b505a61170e618256565b505050505015801561172d573d6000803e3d600061172a618003565b50505b505050506040513d604081101561174c57600080611749618003565b50505b810190808051906020019092919080519060200190929190505050809250819350505061179b7fa391785a7b95066c4417d861fb542079749763c6d7b728745832535b09a5c3fa60001b6149f0565b6117c77fe9d24f578e793758b890cfd690236289e078788a5a38b0ab4f332787aae964eb60001b6149f0565b6117cf610e53565b6117d76114b2565b6117df6144a2565b6117e7615c35565b6117ef615368565b60ca6117f9618071565b60c9600090611806618071565b906101000a900460ff1688889a509a509a509a509a509a509a509a509a505050909192939495969798565b60ce60009061183e618071565b906101000a900473ffffffffffffffffffffffffffffffffffffffff1681565b600061186b848484615d98565b611933846118776155a4565b61192e856040518060600160405280602881526020016185cd60289139606660008b73ffffffffffffffffffffffffffffffffffffffff1673ffffffffffffffffffffffffffffffffffffffff16815260200190815260200160002060006118dd6155a4565b73ffffffffffffffffffffffffffffffffffffffff1673ffffffffffffffffffffffffffffffffffffffff16815260200190815260200160002061191f618071565b61608f9092919063ffffffff16565b6155b4565b600190509392505050565b60cd60205280600052604060002060009150905061195a618071565b81565b609760009061196a618071565b906101000a900460ff166119ef576040517f08c379a000000000000000000000000000000000000000000000000000000000815260040180806020018281038252601f8152602001807f5265656e7472616e637947756172643a207265656e7472616e742063616c6c00815250602001915050604051809103906119ec618003565b50505b6000609760006101000a81611a02618071565b8160ff02191690831515021790611a176180d4565b505050611a467f3c77ae6af56227ef4160a7de60595d35a3958dc21b206cd05346000f5a34160b60001b6149f0565b611a727f802d5129dbeabe31474f7c4c7cc90a3195755f30f69689fac4ca14cd1c82f6bc60001b6149f0565b611a9e7fee6231597a49eb5c7e8f25cb5052177885f8d06c4b4c1e8994884f45e426d93a60001b6149f0565b611aca7f55bc675d1377d87d06a6506e47f84ef3dc08ba6f3b3a94651126cd567e1d80be60001b6149f0565b80611adc5a611ad7618139565b613c9c565b1015611b59576040517f08c379a00000000000000000000000000000000000000000000000000000000081526004018080602001828103825260148152602001807f696e73756666696369656e742062616c616e636500000000000000000000000081525060200191505060405180910390611b56618003565b50505b611b857fbb88af5b2e7683f793a20b064e0a1706bca6b851801e3b26de93165408c9ee0860001b6149f0565b611bb17f0c24bf7dc70f81a377eb1d32f0ea482f8d85345759d2d808537e6d1bae068bb360001b6149f0565b611bdd7f62a6a4212911ba2d481eade49c19d289d0f9a67331eef7c54a9c65e562a4b58060001b6149f0565b611c097f79eba487d116bd0678e3441335e3464d1b16fbe8c24d83de6f23ae24539fc36a60001b6149f0565b6000611c1c5a611c17618139565b6149f3565b14611c98576040517f08c379a000000000000000000000000000000000000000000000000000000000815260040180806020018281038252600f8152602001807f636f6f6c646f776e20616374697665000000000000000000000000000000000081525060200191505060405180910390611c95618003565b50505b611cc47f64251508ce9b88a0df8d0bdd2113390c1a8e0c86246fc9b5872ced3080648e2460001b6149f0565b611cf07f176671254d4868a87e750526a81fb560aae3535402835e1f96fed3b3f2df371260001b6149f0565b611d1c7f5af87302d6783c8bbc624f94c8578b903087afd6612a8c15dc4a0b2e41753eb060001b6149f0565b611d24616158565b611d507f94613143db7d6cd5d1544c028634cfbc19b673b0efa89a007a970899cf09658b60001b6149f0565b611d7c7fc415fe862db691369d43cf5a83f9f7392d714a2d6ed25eff39d2741719583bc860001b6149f0565b6000611d866144a2565b9050611db47fd8fd5005e7fd4ca0c54b0e47e665ab21cfabae0fc5bcf5e8899f0abd228289f660001b6149f0565b611de07f921f2306ed61c43f7ae13365b2d37c40cd2a332937fc69c417f1848eed3f567460001b6149f0565b6000611e16611ded6114b2565b611e08670de0b6b3a764000086616df490919063ffffffff16565b616e8390919063ffffffff16565b9050611e447f9f0f92a493580b82e8b9b0f93e7e2c5174479844843fcacbd4d3076dc30254cd60001b6149f0565b611e707f83e242a175e37dbece57967547e650a3daadea274eab97ef80ca4a1e2e65a33560001b6149f0565b611e825a611e7c618139565b84616ecd565b611eae7f7e17e91c60e41b4eac9b3323efb119b4a8a2fd1f6b5a69203b8e81c5096b648e60001b6149f0565b611eda7fb516179eadd189835507f07908d9b6330de19657f0e632efcbae8b61de475b1360001b6149f0565b600060ce600090611ee9618071565b906101000a900473ffffffffffffffffffffffffffffffffffffffff169050611f347f23934650224a27a3b85e377581be9b812d545436e0bdcf965e377ec2864f18c960001b6149f0565b611f607f1e469af591ae2941b41d0a27c7f03d6a70c15afaca2b308d21c5d7b5ff950afd60001b6149f0565b60608173ffffffffffffffffffffffffffffffffffffffff1663e5406dbf6040518163ffffffff1660e01b81526004016000604051808303818680611fa36181f3565b158015611fb857600080611fb5618003565b50505b505a611fc2618256565b5050505050158015611fe1573d6000803e3d6000611fde618003565b50505b505050506040513d6000823e3d601f19601f82011682018060405250602081101561201457600080612011618003565b50505b810190808051604051939291908464010000000082111561203d5760008061203a618003565b50505b8382019150602082018581111561205c57600080612059618003565b50505b82518660208202830111640100000000821117156120825760008061207f618003565b50505b8083526020830192505050908051906020019060200280838360005b838110156120b957808201518184015260208101905061209e565b5050505090500160405250505090506120f47f9697082c6ef4fec43241a37e481d6a0fbb1e7fca964c238cf2f316cc2563f6f160001b6149f0565b6121207f75f5bb7df3c233e2bb4349b6d2562cb5714cc21aab1e3f9371402d70e3613a7260001b6149f0565b6000815190506121527f0cb6f199aa6286c6d9241672fcf2a3f229bfc63c643fe96bfd6b00c9c8b13c0260001b6149f0565b61217e7fef0147fa0f16d646e96c0ab529070b8e838e12068e6e0dc59b126015d941251660001b6149f0565b60005b81811015612614576121b57fc356501b4dcc03ba836c47bb51944ed1a32c8449c6060fa49dd606557eaca87160001b6149f0565b6121e17fc5bd0e9466c0759722a4c0087ac4ff5c51233ed497e082e538daa13f6f5a79d860001b6149f0565b60008382815181106121ef57fe5b602002602001015190506122257f5a108d77a61e34577c571cfd9b0e0380ee2079f673dda83da9e61cb4a5fa8d4360001b6149f0565b6122517f5986a2d46f43780c097538b864b99f6cfea881ac96f03dd3710f8633a73f57fb60001b6149f0565b60008173ffffffffffffffffffffffffffffffffffffffff166370a082315a63996d79a5598160e01b8152602081600483336000905af158600e01573d6000803e3d6000fd5b3d6001141558600a015760016000f35b8051925060005b60408110156122c8576000818301526020810190506122ae565b5050506040518263ffffffff1660e01b8152600401808273ffffffffffffffffffffffffffffffffffffffff16815260200191505060206040518083038186806123106181f3565b15801561232557600080612322618003565b50505b505a61232f618256565b505050505015801561234e573d6000803e3d600061234b618003565b50505b505050506040513d602081101561236d5760008061236a618003565b50505b810190808051906020019092919050505090506123ac7fc87e89aeb3ce52b5f34154a650ecac77f15602480a692e14149ae55d4aeb8fa760001b6149f0565b6123d87f2e0889585b85abf32573bf528bd9593118cb175af52a09a35f8cbd88c3b9a16560001b6149f0565b6000612407670de0b6b3a76400006123f98a85616df490919063ffffffff16565b616e8390919063ffffffff16565b90506124357fb7ce6b3deba38361a5ae90e247a3e4533d0f793200f7415e711804e110ed723a60001b6149f0565b6124617f8de1284e41c7e10a51ef582ebb770367825e5c1a1c8bbb20b31acfa3800aeed560001b6149f0565b60008111156125d7576124967f983bd8ec7a46ac63e1ea96fdd6f3cf946ea0d1a0bc612c185d047ccdda493f3d60001b6149f0565b6124c27ff4d00a1f5cf40f76c0ae7c7fc00a307f04994ee8ecf3d155d1c2a23d75c3692d60001b6149f0565b6124ee7fe95e0046afe3ffb3a57a63400e9a935c22ab58d543bddc27d4e121b043592cc160001b6149f0565b8273ffffffffffffffffffffffffffffffffffffffff1663a9059cbb5a612513618139565b836040518363ffffffff1660e01b8152600401808373ffffffffffffffffffffffffffffffffffffffff16815260200182815260200192505050602060405180830381600087806125626181f3565b15801561257757600080612574618003565b50505b505a612581618356565b5050505050501580156125a1573d6000803e3d600061259e618003565b50505b505050506040513d60208110156125c0576000806125bd618003565b50505b810190808051906020019092919050505050612604565b6126037f843d3368f9acd43221bc3b99d2135446d951acceef3e28e36d736b83df2e092060001b6149f0565b5b5050508080600101915050612181565b506126417fd32da7818bd6546a21a4f26810d5feb8141eaa0a4defdd2d0eccf2544d42c92060001b6149f0565b61266d7f1ff1baf9d811ea3008c4ba00ffc66cb519e1449cb90e68ee94d4ba7c1344753860001b6149f0565b600061269c670de0b6b3a764000061268e8888616df490919063ffffffff16565b616e8390919063ffffffff16565b90506126ca7ff5a4c41d3c79730003e91f391bfaf0247f5795e675ea4ed6fc8ab8dbe011a5cf60001b6149f0565b6126f67f11af5dad8a8c50afc7e234e9041f09cc8540ce229d9036a8c9127ae61d15644660001b6149f0565b7f79d44cc8beeed36226f14818b2ecaca7ef252bcd56c9ae35f5a86869dbdefb975a63996d79a5598160e01b8152602081600483336000905af158600e01573d6000803e3d6000fd5b3d6001141558600a015760016000f35b8051925060005b604081101561277057600081830152602081019050612756565b5050505a61277c618139565b838a61278f5a61278a618139565b613c9c565b6127976144a2565b61279f6114b2565b5a6127a8618196565b604051808973ffffffffffffffffffffffffffffffffffffffff1681526020018873ffffffffffffffffffffffffffffffffffffffff1681526020018781526020018681526020018581526020018481526020018381526020018281526020019850505050505050505060405180910390a15050505050506001609760006101000a81612833618071565b8160ff021916908315150217906128486180d4565b50505050565b6000606a60009061285d618071565b906101000a900460ff16905090565b600061291c6128796155a4565b84612917856066600061288a6155a4565b73ffffffffffffffffffffffffffffffffffffffff1673ffffffffffffffffffffffffffffffffffffffff16815260200190815260200160002060008973ffffffffffffffffffffffffffffffffffffffff1673ffffffffffffffffffffffffffffffffffffffff168152602001908152602001600020612909618071565b6170bc90919063ffffffff16565b6155b4565b6001905092915050565b6129527f5c2263a09ca8ef49d37c534b0eb96fed64e7f61c6afd280202e3aa9bf357203a60001b6149f0565b61297e7fa63368da0e4f9d9d719d1aa65649263319b09d2a105865eb3a2838dfd5c411e660001b6149f0565b6129aa7f64bad4b1e5d00fac51a89f24ccceb4999040e91201175475fff7a5628b78f5a160001b6149f0565b6129d67f0c4117d54e7271462142925d4dd74b9c0c6a360e015e67c4bf189205d41e407760001b6149f0565b6129de615c35565b73ffffffffffffffffffffffffffffffffffffffff165a6129fd618139565b73ffffffffffffffffffffffffffffffffffffffff1614612a8f576040517f08c379a000000000000000000000000000000000000000000000000000000000815260040180806020018281038252600c8152602001807f6f6e6c79206d616e61676572000000000000000000000000000000000000000081525060200191505060405180910390612a8c618003565b50505b612abb7f84e82d992592b800cd53a4e8ecc5e2f70ea5a3cf3c84fcdab743b89ae0207c2960001b6149f0565b612ae77fc993a319633e375c06d08b841b4116c6ecaf4bf8688ae37f6163d517790ad1c360001b6149f0565b612b137f982e1ba79e47ed99d828d477022cb7a2406be00ce6a7fdc10071939ad711ed8560001b6149f0565b612b3f7fcef107de6f39506db11b142b813e8b7f0c71af92870f5008a9c4d8276c0dc1cd60001b6149f0565b612b6b7f8b590efd4b65c6ae93114f904a0a233a02c28b38581f6a8896219b69618f5fca60001b6149f0565b612b977f1bf2452b7ff8ca3dbf34e4910d1ee3cbed4c5fbd5e2b85fd985ce5dc3f98e59660001b6149f0565b80151560c9600090612ba7618071565b906101000a900460ff1615151415612c30576040517f08c379a00000000000000000000000000000000000000000000000000000000081526004018080602001828103825260168152602001807f666c6167206d75737420626520646966666572656e740000000000000000000081525060200191505060405180910390612c2d618003565b50505b612c5c7fddd35fa904bc55c7e47222dd2c28342452762aef8676d065baff838a280c66c460001b6149f0565b612c887f5256939ba2876e6f13b33d7ab7e92829b308ae0d57aff9160ca500dd8bdec81860001b6149f0565b612cb47f4dbf6f4a2cc8ea3049ee3ea9b572fd1bf845c87a31fcd50c0286d57557a7fd6760001b6149f0565b612cbd81615af3565b50565b6000612cee7f27bee97e1cdb621c9f63259420ff410173e8c0ed15d8f2fa41c7480b7c0d38a060001b6149f0565b612d1a7fe14bc8ff01da90e7c931c099929a027d8e4d8fb05fb5608a35292459f147539e60001b6149f0565b612d467fae379631a565a1071d888ec2ca26cee5af0e404876ff386012765da776f1cae160001b6149f0565b60cb600090612d53618071565b906101000a900473ffffffffffffffffffffffffffffffffffffffff1673ffffffffffffffffffffffffffffffffffffffff16634501b0886040518163ffffffff1660e01b81526004016020604051808303818680612db06181f3565b158015612dc557600080612dc2618003565b50505b505a612dcf618256565b5050505050158015612dee573d6000803e3d6000612deb618003565b50505b505050506040513d6020811015612e0d57600080612e0a618003565b50505b8101908080519060200190929190505050905090565b6000612e517f0d12574f4b7f278d9be67ecc094083e8caf8102663ca305892e54b258667a32760001b6149f0565b612e7d7f2524a264be01af74a8f29148df2e6031d3190bce04c839845252653ca7f2946d60001b6149f0565b612ea97f5de26ee388067d42283f5e6d5a3b741da7ba8bd274bdc88600458868db4022e760001b6149f0565b612ed57f44b43a1eae9102141fb2d1cb6cb3201fbcc4f4322a6d76c618907c017a0fa5f760001b6149f0565b612edd615c35565b73ffffffffffffffffffffffffffffffffffffffff165a612efc618139565b73ffffffffffffffffffffffffffffffffffffffff161480612f32575060c9600090612f26618071565b906101000a900460ff16155b80612f4a5750612f495a612f44618139565b614cae565b5b612fc5576040517f08c379a00000000000000000000000000000000000000000000000000000000081526004018080602001828103825260148152602001807f6f6e6c79206d656d6265727320616c6c6f77656400000000000000000000000081525060200191505060405180910390612fc2618003565b50505b612ff17f116195ac1ba786287e5a790242b504956082bb2f806e7777c8300bb0ebcef5e260001b6149f0565b61301d7fe5d254871adb577b94b4c961fa730238fe2eff25f72f23f0c4b7f9b3b733bed660001b6149f0565b6130497fde56ad99d2eff1666d155c1c3f1772e7a6bf688e58afc939ae8ff5aa2b9c936560001b6149f0565b6130757fc51c277ff1b10eadc9186472fd27f7f5accac9f1b35be8606539a643d018191c60001b6149f0565b6130a17f9bfc62ae1c1c9ae9431017046d6345f1d363c19747df4ea626daa96700a87ea760001b6149f0565b6130cd7f93a8854715e5646c977f15582ba6f759cf11a6ec02a0329892ef8984a2b6653160001b6149f0565b60ce6000906130da618071565b906101000a900473ffffffffffffffffffffffffffffffffffffffff1673ffffffffffffffffffffffffffffffffffffffff1663bdbef07d846040518263ffffffff1660e01b8152600401808273ffffffffffffffffffffffffffffffffffffffff16815260200191505060206040518083038186806131586181f3565b15801561316d5760008061316a618003565b50505b505a613177618256565b5050505050158015613196573d6000803e3d6000613193618003565b50505b505050506040513d60208110156131b5576000806131b2618003565b50505b8101908080519060200190929190505050613241576040517f08c379a00000000000000000000000000000000000000000000000000000000081526004018080602001828103825260158152602001807f696e76616c6964206465706f73697420617373657400000000000000000000008152506020019150506040518091039061323e618003565b50505b61326d7f294ddeab09a3bf7f95e3fc8965bfad5efea9085d6d68baee1be3f07db184879160001b6149f0565b6132997fdc89eaeb5334985ad9c33f3bf3b8de1f6f8ecab476059583d988e8ec703a105960001b6149f0565b6132c57fa04112c7010d1533dd5bf3ac92defe2c5a0f07a5fdad6724033e0127d2de765260001b6149f0565b5a6132ce618196565b60cd60005a6132db618139565b73ffffffffffffffffffffffffffffffffffffffff1673ffffffffffffffffffffffffffffffffffffffff168152602001908152602001600020819061331f6180d4565b50505061334e7f788a3647863582b48b29587650c7ea5c491458d9b9528db0f0bfc5f185fa8f5060001b6149f0565b61337a7fca4d179b88f62a232bd65b298ebb552eafa9d66725dd9cc4e8bfdb662365f80d60001b6149f0565b613382616158565b6133ae7f85df624526cd1292c00b67da238c628c38677ba4a1a852b45d36a01e9d09032c60001b6149f0565b6133da7fcac576151ec0597929cec8fedc5f067c5b1864208d90e66054c81bf973887e1c60001b6149f0565b60006133e46144a2565b90506134127f04ec26ab41867c9849d6af74555041dbc33fea41de12317f4c0186ef57bf5d4760001b6149f0565b61343e7f51b4ca21dd76462e180326c47c32edebb195fd8589e1a02735ab9786b7e1834060001b6149f0565b60006134486114b2565b90506134767f9bfd823beaa1910e958e275de450c6baac933d2b8c42e3df6844d0e61739be5460001b6149f0565b6134a27fbbe67c90cede5ffa9c5649f1dfe0da669949f9907c23b8e0cad3f306e21e566c60001b6149f0565b6134ce7f8c1b5e4bdbd6b90c8efff66d03ae343beab3b74031268e8d2cc1644f17b629ea60001b6149f0565b8473ffffffffffffffffffffffffffffffffffffffff166323b872dd5a6134f3618139565b5a63996d79a5598160e01b8152602081600483336000905af158600e01573d6000803e3d6000fd5b3d6001141558600a015760016000f35b8051925060005b604081101561354c57600081830152602081019050613532565b505050876040518463ffffffff1660e01b8152600401808473ffffffffffffffffffffffffffffffffffffffff1681526020018373ffffffffffffffffffffffffffffffffffffffff1681526020018281526020019350505050602060405180830381600087806135bb6181f3565b1580156135d0576000806135cd618003565b50505b505a6135da618356565b5050505050501580156135fa573d6000803e3d60006135f7618003565b50505b505050506040513d602081101561361957600080613616618003565b50505b81019080805190602001909291905050506136a5576040517f08c379a00000000000000000000000000000000000000000000000000000000081526004018080602001828103825260158152602001807f746f6b656e207472616e73666572206661696c65640000000000000000000000815250602001915050604051809103906136a2618003565b50505b6136d17fe1310d8182ef42cb36953f0f26124aadec66721b400a8660a07391174a7e572860001b6149f0565b6136fd7f4ea11f2b24e9c5471d79d89e788b597a22904dd0095ec346c67abdbc2871a87460001b6149f0565b6137297fa36cbbbe9376df97ac689aa6ca3cecb3abf6e57ee6a4b397ad78f1ed833f53f060001b6149f0565b600060ce600090613738618071565b906101000a900473ffffffffffffffffffffffffffffffffffffffff1673ffffffffffffffffffffffffffffffffffffffff166329c07fba87876040518363ffffffff1660e01b8152600401808373ffffffffffffffffffffffffffffffffffffffff1681526020018281526020019250505060206040518083038186806137be6181f3565b1580156137d3576000806137d0618003565b50505b505a6137dd618256565b50505050501580156137fc573d6000803e3d60006137f9618003565b50505b505050506040513d602081101561381b57600080613818618003565b50505b8101908080519060200190929190505050905061385a7f66b6d70ed447ecfe45c4b86e7c4d05053c7123be8c443c7be26658f0803f8a7260001b6149f0565b6138867f13cf87b77871a35ff70b147b17f86d71b1afa6d2a73dd6fa509b2690b95d0f0060001b6149f0565b60006138b47f37f2062855b6af16e04d8a9792df507a25be3467d7b0d2f837e3a8ec5db997a160001b6149f0565b6138e07f3f6ee8986e5d5f38064e9eb159ca0280788fd066463458e96c49171ee83324fb60001b6149f0565b6000831115613999576139157fe87d14bc357c8dc4a7b7b251491885e214ea4a0c8f656013c7660d9b177202d260001b6149f0565b6139417fac49653103ee178e89eb227affe2d7836545e89e02e59d9a94b56e32d09717dc60001b6149f0565b61396d7f03494f682ab73d31659901864d17c4ee07397c8cc421912e21337cdb94ee32a860001b6149f0565b613992846139848585616df490919063ffffffff16565b616e8390919063ffffffff16565b9050613a21565b6139c57fcbd9101cfcaaaa253ca60dc594e716fb508ee05d6df44b49f469c87c1537827e60001b6149f0565b6139f17fc9dad58f81f7861366e1409c8ee2b2e21cbf947777457675a0d0006aeb5d2bfe60001b6149f0565b613a1d7fc94e62fa7c008b28d0acba5804a79f069de8812b0f8ecd1b715e48784302fa0960001b6149f0565b8190505b613a4d7fb8a5a7c832a302d2a061ffedcb9b0035cb1697f1696b90d57302e08b503f230560001b6149f0565b613a797f8e99a6407a493414a13599e227316a000367940a515597853ff5a9f26e75d15b60001b6149f0565b613a8b5a613a85618139565b8261714d565b613ab77f1970a9914451bcbac59a2f527de8f91e91a587b0e96321b464010540bea5f73a60001b6149f0565b613ae37f91d3849aedf880b1b04464c3b424951fff0a6fa0c6879a4841a360c237c16e4160001b6149f0565b7f87fdcba84e083ebb8fd661bbafee3eb38764ec6f0cbeea8ed52deffa67bd45dc5a63996d79a5598160e01b8152602081600483336000905af158600e01573d6000803e3d6000fd5b3d6001141558600a015760016000f35b8051925060005b6040811015613b5d57600081830152602081019050613b43565b5050505a613b69618139565b8484613b7c5a613b77618139565b613c9c565b613b8f888b6170bc90919063ffffffff16565b613ba2888b6170bc90919063ffffffff16565b5a613bab618196565b604051808973ffffffffffffffffffffffffffffffffffffffff1681526020018873ffffffffffffffffffffffffffffffffffffffff1681526020018781526020018681526020018581526020018481526020018381526020018281526020019850505050505050505060405180910390a1613c497f3099e70e547a28f4b7eeb627f3637dc43323831d842b3913a8c47de55ab73f6160001b6149f0565b613c757f24ddb649fd1400560cd19ff71036bdebb1ad6a47309d0edfc2b9b60b0b58487960001b6149f0565b8094505050505092915050565b60c9600090613c8f618071565b906101000a900460ff1681565b6000606560008373ffffffffffffffffffffffffffffffffffffffff1673ffffffffffffffffffffffffffffffffffffffff168152602001908152602001600020613ce5618071565b9050919050565b6000613d1a7f7b8620c6a18738a3b6ccda826b6bd0fca82741ff5c48757a7dc56ee9ee6a862c60001b6149f0565b613d467fefa065ba0248672b80fe00ae0b21f9df6274aac4b45329e6020c00c65cfa97a960001b6149f0565b613d727fd7c2e86fd0b5c1e9ff55b0cdfe231cbbe81b5f3ba5b43a4d2e24543c42da470360001b6149f0565b600060cb600090613d81618071565b906101000a900473ffffffffffffffffffffffffffffffffffffffff1673ffffffffffffffffffffffffffffffffffffffff16631d68702d6040518163ffffffff1660e01b81526004016020604051808303818680613dde6181f3565b158015613df357600080613df0618003565b50505b505a613dfd618256565b5050505050158015613e1c573d6000803e3d6000613e19618003565b50505b505050506040513d6020811015613e3b57600080613e38618003565b50505b81019080805190602001909291905050509050613e7a7f2be044e580ac4c0fb743c64146f8e6d28800bff7d0fd10f07e5452a28c881b0560001b6149f0565b613ea67f5c1a5d27c2f5e8c1333e1436badb6ffc90fba85b6739d625ee9008b4286095e560001b6149f0565b613ed27f919eb257c672fa2a849f4a73b57121f275ae26b2f01112cfb2f809b7bb37501e60001b6149f0565b8073ffffffffffffffffffffffffffffffffffffffff165a613ef2618139565b73ffffffffffffffffffffffffffffffffffffffff1614613f84576040517f08c379a00000000000000000000000000000000000000000000000000000000081526004018080602001828103825260188152602001807f6f6e6c792044414f206164647265737320616c6c6f776564000000000000000081525060200191505060405180910390613f81618003565b50505b613fb07f3fb233fcc015545cf2cbc8d07a7ec944024168691d159c49475d27462c6da8a160001b6149f0565b613fdc7ffe1cb148f452c94586bb502345831a9cd5ae7a8abd6d487a92e60e4c11d74f9660001b6149f0565b6140087fbc7c247261cd4067c591f79d61790574e7ea6373d9a816d1bd44baf90332646f60001b6149f0565b8260ce60006101000a8161401a618071565b8173ffffffffffffffffffffffffffffffffffffffff021916908373ffffffffffffffffffffffffffffffffffffffff160217906140566180d4565b5050506140857f627c2afa5651d3884099427f0f128ef6170895da769d8b1468d2249e11f0a36c60001b6149f0565b6140b17f5206092bf8d0c3f1f871b5dd47ea423873be6504efbde2c10aeab45fa91a5e9360001b6149f0565b7f63fb64c359a4cae97e1bf003c1ab11390b5f0e18cc5b3d67b90bd61c0f5c52fd835a6140dc618139565b604051808373ffffffffffffffffffffffffffffffffffffffff1681526020018273ffffffffffffffffffffffffffffffffffffffff1681526020019250505060405180910390a16141507fbbf01a5ad846d47d9fa185aa08fc9e03f25011f3d2f53a597322b0e6c63a1cc760001b6149f0565b61417c7f625ebe340b4e61a956f9e6d7517d7ad88cf6325dc9a087daf8150b6625b780ff60001b6149f0565b6001915050919050565b60cc614190618071565b81565b60006141c17f6a32e33267a8e59d9ca29244a290caaf07f574139ea8b62bacfc87aa6ebfec0b60001b6149f0565b6141ed7f6feab975e18e29bbe92620cf6b98a262b6cfcc0861968ee357a5874d845a035260001b6149f0565b6142197f407b570b0528975ae8883d6cfe9548cf47ae70d47b17870d966fa089137f5ccd60001b6149f0565b60006142236144a2565b90506142517f87ceff11f5710549f27f4b0bb9e6a9f009f10bb95ec2e3d9cd0955882cb0921f60001b6149f0565b61427d7f1352c009d6d048fd570374f810806bf4b21c4454973e2d5967417be3aa0da4e060001b6149f0565b60006142876114b2565b90506142b57f9f265addd7bf458e0893b97a6f30675c3587d2799e68248d1942210a18a15b5960001b6149f0565b6142e17f92147203385aa386c44a967f667c4495f7dd72e7c99892431d3185f9077e4ec360001b6149f0565b6142eb828261733f565b9250505090565b60606069806142ff618071565b600181600116156101000203166002900480601f0160208091040260200160405190810160405280929190818152602001828061433a618071565b600181600116156101000203166002900480156143a65780601f10614374576101008083614366618071565b0402835291602001916143a6565b820191906000526020600020905b8161438b618071565b8152906001019060200180831161438257829003601f168201915b5050505050905090565b600061447a6143bd6155a4565b846144758560405180606001604052806025815260200161868d60259139606660006143e76155a4565b73ffffffffffffffffffffffffffffffffffffffff1673ffffffffffffffffffffffffffffffffffffffff16815260200190815260200160002060008a73ffffffffffffffffffffffffffffffffffffffff1673ffffffffffffffffffffffffffffffffffffffff168152602001908152602001600020614466618071565b61608f9092919063ffffffff16565b6155b4565b6001905092915050565b60006144986144916155a4565b8484615d98565b6001905092915050565b60006144d07f55129d50b4fdca3815515533df618dfeebbd7640fb21cb36c7a516562576833260001b6149f0565b6144fc7f69887b477d5993b8b537b52960f6d8b3556ae020cd4163efa776ef09a5e208f060001b6149f0565b6145287f18dc92e5d53e1ee490a9bf8afdee578a88badc42cd7c6ddd0c9095144775ffd760001b6149f0565b60006145567f2a00a07719ab242765920e4c3ad8cec482cf9014437bd6a339a0a6f9d683b2ac60001b6149f0565b6145827fd19b5f934799ea157b4b34e5d1c9cb991eb06812165aaf8d0ca40f092e900d6d60001b6149f0565b600060ce600090614591618071565b906101000a900473ffffffffffffffffffffffffffffffffffffffff1690506145dc7fc51f1c36cda211788dce92cca05d758e023ed2656b5fb9f977d8bfe25e9ee4b960001b6149f0565b6146087f55a38f20f034cb419ada82552700799a76d6b94b8c54c36f0971099f9a84410460001b6149f0565b60608173ffffffffffffffffffffffffffffffffffffffff1663e5406dbf6040518163ffffffff1660e01b8152600401600060405180830381868061464b6181f3565b1580156146605760008061465d618003565b50505b505a61466a618256565b5050505050158015614689573d6000803e3d6000614686618003565b50505b505050506040513d6000823e3d601f19601f8201168201806040525060208110156146bc576000806146b9618003565b50505b81019080805160405193929190846401000000008211156146e5576000806146e2618003565b50505b8382019150602082018581111561470457600080614701618003565b50505b825186602082028301116401000000008211171561472a57600080614727618003565b50505b8083526020830192505050908051906020019060200280838360005b83811015614761578082015181840152602081019050614746565b50505050905001604052505050905061479c7f9b15a044bb809a3c587e2b77e7ce3210d777e21371487f9b9ec3c3727b7aa7d360001b6149f0565b6147c87fd93515d4d85e4b411f950fd2dfaf071e6ccd05868946451a34742a3c1118fc3460001b6149f0565b6000815190506147fa7f075c097f7968fad53efa26589a95efba3e88594759a02dba1a48b61aa09e4bd360001b6149f0565b6148267fce32d5307a16e12d5ae898e7ab08a3233f1c70e140b9718b01aedb0c19955faf60001b6149f0565b60005b8181101561498d5761485d7fb3ad77a0a0c46ad2f29611e7d5105d4c7a485db11579260a9042feaf70410c0260001b6149f0565b6148897f6616fa57ea984d43c9a7544f675c90ceb0f41299160cd213b73c929e793b9c5c60001b6149f0565b61497e8473ffffffffffffffffffffffffffffffffffffffff1663d8af8ed48584815181106148b457fe5b60200260200101516040518263ffffffff1660e01b8152600401808273ffffffffffffffffffffffffffffffffffffffff16815260200191505060206040518083038186806149016181f3565b15801561491657600080614913618003565b50505b505a614920618256565b505050505015801561493f573d6000803e3d600061493c618003565b50505b505050506040513d602081101561495e5760008061495b618003565b50505b8101908080519060200190929190505050866170bc90919063ffffffff16565b94508080600101915050614829565b506149ba7f0398fa2d74ffb6440216cc305a38e13e2b7106ce3645ed27dc490811cf4e2c7f60001b6149f0565b6149e67f607ab3db7f318b22a4d6e7ccf132852354c883d74d391d7d19e3379a987790a760001b6149f0565b8394505050505090565b50565b6000614a217ff80a324815165f52420a62c52c2f597e69dd6ee3204c9a175a2ee1875168095460001b6149f0565b614a4d7fc3471ed1a174a3f62f507e9637ec75a2d7f3a2e92d53928a998ed4288b97921860001b6149f0565b614a797fe17e0f3fa02c05ef5d12ed0f92352776f2566804d6591561e65721ed9ede592460001b6149f0565b6000614a83612cc0565b9050614ab17f77859f4f2eaefb514ad7d360a87d34a46a041bfc2c7fc0993e4468c5eeffbc3160001b6149f0565b614add7f745ace821c389cd022651e0e32225f482b8120e914dee16fbc24f2685255121160001b6149f0565b6000614b388260cd60008773ffffffffffffffffffffffffffffffffffffffff1673ffffffffffffffffffffffffffffffffffffffff168152602001908152602001600020614b2a618071565b6170bc90919063ffffffff16565b9050614b667fa613d07294d22a445d2f797880bd71a5a3097e7802365d4d5a6b5ecc402dbf6b60001b6149f0565b614b927f60a0f437e05b9b4dad56f79c29e772ee4ac2cab81e5964e6b06101daeca7176360001b6149f0565b5a614b9b618196565b811015614c0557614bce7f9b42805ca56debb137da293f92de44cbbccb8c9f2d053b639ead783b2cc7149a60001b6149f0565b614bfa7f424976dc2364712a84460e4278dd7e0004eed2113a78b13cfe2155cd0775847360001b6149f0565b600092505050614ca9565b614c317f845b2284c94c9300e0b2edc7222e451ff57f0988c193141bf5c1299cc98b628760001b6149f0565b614c5d7f60a7a6930f1b137137fc43afedf43b5e52278060b4ca63efd8c42d2c96a7b48460001b6149f0565b614c897f6f992f60d8bb70a4891d6d93c7b261035d759cea028c48085ed402189c5cd47060001b6149f0565b614ca45a614c95618196565b826174f490919063ffffffff16565b925050505b919050565b6000614cdc7fe738393d6857e848ca4fba1f87368f8070d1cf4315d85d842595b70aeb4d066860001b6149f0565b614d087fe2c2824fd7b2a3bad9ad6229c748a5b6515cdb52a1ca2fe45429455b06f44a6760001b6149f0565b614d347f41ee113cbb32f32eb7bb60232ecf1231d6330f77b9f524b72ec41ee2d97518d060001b6149f0565b60ce600090614d41618071565b906101000a900473ffffffffffffffffffffffffffffffffffffffff1673ffffffffffffffffffffffffffffffffffffffff1663bbbf725b836040518263ffffffff1660e01b8152600401808273ffffffffffffffffffffffffffffffffffffffff1681526020019150506020604051808303818680614dbf6181f3565b158015614dd457600080614dd1618003565b50505b505a614dde618256565b5050505050158015614dfd573d6000803e3d6000614dfa618003565b50505b505050506040513d6020811015614e1c57600080614e19618003565b50505b81019080805190602001909291905050509050919050565b60cb600090614e41618071565b906101000a900473ffffffffffffffffffffffffffffffffffffffff1681565b614e8d7f36b141884a256889497bc371ca0891eb9ca261269012cd9da686d35c0c4e76ab60001b6149f0565b614eb97f06a51360aef124c7e7764c9a52db46c6a1948f034ac5ada28010d1cfe061421960001b6149f0565b614ee57fcfe01fef0f2a4d702611ba4eaf3bfed741d7425403b237059447e2955a6ee94d60001b6149f0565b614eed616158565b565b60ca614ef9618071565b81565b6000606660008473ffffffffffffffffffffffffffffffffffffffff1673ffffffffffffffffffffffffffffffffffffffff16815260200190815260200160002060008373ffffffffffffffffffffffffffffffffffffffff1673ffffffffffffffffffffffffffffffffffffffff168152602001908152602001600020614f82618071565b905092915050565b6000614fb87fae00ed73f7a84bace3bda8fd1cbffafdfdda382b4ff2032ee8d47d82cd1a187a60001b6149f0565b614fe47ff95e355d258861fbc5337f012c9ca9d7d037252fb709b8404f4bfd03cf317f1e60001b6149f0565b6150107fefb24e07aa0030e19d2344389f70f1f4ffbbfba9a06e7a5faea8f8d1aa853a3560001b6149f0565b600061501a6144a2565b90506150487fb99d33a9349a3c30d9d9f9040172f980ab514e0bd77b87985d29e6e7af99b2bc60001b6149f0565b6150747ff27fa59fb0d0896a676785f3a7e9b882f8cd86d4aa0d5f7c0331bf0aa28bfee560001b6149f0565b600061507e6114b2565b90506150ac7fe73311117ccb86ac8c7dc1e50fb61f1d72aef9d0e06236424a82c8b4a5729dc360001b6149f0565b6150d87f5d1409b7b0a6c3f6af08cc17f53d54d635400f4f3c8c12a0b5abb9c986b1373160001b6149f0565b60006151067f6990badef998a0cd0a4789221df0e521d304f6d048206925a4d0698f16b1bea460001b6149f0565b6151327fc380f29b4f9ae92c0db0a6d8c64a706fb66d9ead69af04c19027265467b40ef560001b6149f0565b60006151607fe38691afdc6ca24689c68ad66f046ad60782fd671dc5dea5e029bf02266f46d660001b6149f0565b61518c7f5215dee00f38f312f8a0f462fc832f98bedfe764a92a506242af977fff67ea0360001b6149f0565b60cb600090615199618071565b906101000a900473ffffffffffffffffffffffffffffffffffffffff1673ffffffffffffffffffffffffffffffffffffffff1663b7a545265a63996d79a5598160e01b8152602081600483336000905af158600e01573d6000803e3d6000fd5b3d6001141558600a015760016000f35b8051925060005b604081101561522a57600081830152602081019050615210565b5050506040518263ffffffff1660e01b8152600401808273ffffffffffffffffffffffffffffffffffffffff168152602001915050604080518083038186806152716181f3565b15801561528657600080615283618003565b50505b505a615290618256565b50505050501580156152af573d6000803e3d60006152ac618003565b50505b505050506040513d60408110156152ce576000806152cb618003565b50505b810190808051906020019092919080519060200190929190505050809250819350505061531d7fbf8e98b629d02d67d94bd46b7224e51a417a56c9cc62e4105757cfa13b7cf7d860001b6149f0565b6153497f32e6d90ab7fb9138e4196d40cb917f56842ce598be8f2297ab762f6078b0aa0b60001b6149f0565b61535f848460cc615358618071565b858561753e565b94505050505090565b60606153967f4b2d47beb339fe51c9feefc8a308cb14458590f90ad84ab98520fbac46c3c20860001b6149f0565b6153c27fc330c7e6e9c1f8c26c6a4837bef4461b299e0880de1366bb5ca81e79057bb7cb60001b6149f0565b6153ee7f4a0029b116999aa57c6e83d101076c96cec44e4e3e1d351d674eb2a92bef919360001b6149f0565b60ce6000906153fb618071565b906101000a900473ffffffffffffffffffffffffffffffffffffffff1673ffffffffffffffffffffffffffffffffffffffff1663fed4416a6040518163ffffffff1660e01b815260040160006040518083038186806154586181f3565b15801561546d5760008061546a618003565b50505b505a615477618256565b5050505050158015615496573d6000803e3d6000615493618003565b50505b505050506040513d6000823e3d601f19601f8201168201806040525060208110156154c9576000806154c6618003565b50505b81019080805160405193929190846401000000008211156154f2576000806154ef618003565b50505b838201915060208201858111156155115760008061550e618003565b50505b825186600182028301116401000000008211171561553757600080615534618003565b50505b8083526020830192505050908051906020019080838360005b8381101561556b578082015181840152602081019050615550565b50505050905090810190601f1680156155985780820380516001836020036101000a031916815260200191505b50604052505050905090565b60005a6155af618139565b905090565b600073ffffffffffffffffffffffffffffffffffffffff168373ffffffffffffffffffffffffffffffffffffffff161415615643576040517f08c379a00000000000000000000000000000000000000000000000000000000081526004018080602001828103825260248152602001806186696024913960400191505060405180910390615640618003565b50505b600073ffffffffffffffffffffffffffffffffffffffff168273ffffffffffffffffffffffffffffffffffffffff1614156156d2576040517f08c379a000000000000000000000000000000000000000000000000000000000815260040180806020018281038252602281526020018061856460229139604001915050604051809103906156cf618003565b50505b80606660008573ffffffffffffffffffffffffffffffffffffffff1673ffffffffffffffffffffffffffffffffffffffff16815260200190815260200160002060008473ffffffffffffffffffffffffffffffffffffffff1673ffffffffffffffffffffffffffffffffffffffff16815260200190815260200160002081906157596180d4565b5050508173ffffffffffffffffffffffffffffffffffffffff168373ffffffffffffffffffffffffffffffffffffffff167f8c5be1e5ebec7d5bd14f71427d1e84f3dd0314c0f7b2291e5b200ac8c7c3b925836040518082815260200191505060405180910390a3505050565b6000805a63996d79a5598160e01b8152602081600483336000905af158600e01573d6000803e3d6000fd5b3d6001141558600a015760016000f35b8051925060005b604081101561582257600081830152602081019050615808565b50505090506000816158326181f3565b9050600081149250505090565b600060019061584c618071565b906101000a900460ff168061586557506158646157c6565b5b806158825750600080615876618071565b906101000a900460ff16155b6158e0576040517f08c379a000000000000000000000000000000000000000000000000000000000815260040180806020018281038252602e8152602001806185f5602e9139604001915050604051809103906158dd618003565b50505b6000806001906158ee618071565b906101000a900460ff161590508015615957576001600060016101000a81615914618071565b8160ff021916908315150217906159296180d4565b50505060016000806101000a8161593e618071565b8160ff021916908315150217906159536180d4565b5050505b61595f6178f9565b6159698383617a45565b801561599a5760008060016101000a81615981618071565b8160ff021916908315150217906159966180d4565b5050505b505050565b60006001906159ac618071565b906101000a900460ff16806159c557506159c46157c6565b5b806159e257506000806159d6618071565b906101000a900460ff16155b615a40576040517f08c379a000000000000000000000000000000000000000000000000000000000815260040180806020018281038252602e8152602001806185f5602e913960400191505060405180910390615a3d618003565b50505b600080600190615a4e618071565b906101000a900460ff161590508015615ab7576001600060016101000a81615a74618071565b8160ff02191690831515021790615a896180d4565b50505060016000806101000a81615a9e618071565b8160ff02191690831515021790615ab36180d4565b5050505b615abf617bed565b8015615af05760008060016101000a81615ad7618071565b8160ff02191690831515021790615aec6180d4565b5050505b50565b615b1f7f9e519fd4da81b4fb09f76e2043ded618747c5af0d1db848c20518061e28c684460001b6149f0565b615b4b7f195f0b47a04ea6615620dcd91972f91f08f576e5e459e0e51832dcbb6fbf6d5e60001b6149f0565b615b777ff64efd2b3d5dcda16f47014c4c72074ca0aa9e965062be41a7a16759af2326ad60001b6149f0565b8060c960006101000a81615b89618071565b8160ff02191690831515021790615b9e6180d4565b505050615bcd7f04a4c10d84dd818bedb78a849324d87bcf755f906be045fe1eb1f99eedd48eaa60001b6149f0565b615bf97f38fb3f688764d133c71a41509d210b25656eba2ea438c6b8a621d2b44c73535160001b6149f0565b7f8d75e9ede4188432084b863d70b3416010c97547dfeb4fc17734d2e997ee0f398160405180821515815260200191505060405180910390a150565b6000615c637fa3debc32dea4bb8fa521c181b84fd3cafb24b24966cb9f7e46f2c29c331d12e460001b6149f0565b615c8f7f1796713ffe457cb71eb363879f4c9dfb79a47f84eb9c01c895f279ed95d4376160001b6149f0565b615cbb7f983b6be6736fd97580cbc76c72febc2768557c20d9f50df1d250139dc40b7d9660001b6149f0565b60ce600090615cc8618071565b906101000a900473ffffffffffffffffffffffffffffffffffffffff1673ffffffffffffffffffffffffffffffffffffffff1663481c6a756040518163ffffffff1660e01b81526004016020604051808303818680615d256181f3565b158015615d3a57600080615d37618003565b50505b505a615d44618256565b5050505050158015615d63573d6000803e3d6000615d60618003565b50505b505050506040513d6020811015615d8257600080615d7f618003565b50505b8101908080519060200190929190505050905090565b600073ffffffffffffffffffffffffffffffffffffffff168373ffffffffffffffffffffffffffffffffffffffff161415615e27576040517f08c379a00000000000000000000000000000000000000000000000000000000081526004018080602001828103825260258152602001806186446025913960400191505060405180910390615e24618003565b50505b600073ffffffffffffffffffffffffffffffffffffffff168273ffffffffffffffffffffffffffffffffffffffff161415615eb6576040517f08c379a000000000000000000000000000000000000000000000000000000000815260040180806020018281038252602381526020018061851f6023913960400191505060405180910390615eb3618003565b50505b615ec1838383617d64565b615f348160405180606001604052806026815260200161858660269139606560008773ffffffffffffffffffffffffffffffffffffffff1673ffffffffffffffffffffffffffffffffffffffff168152602001908152602001600020615f25618071565b61608f9092919063ffffffff16565b606560008573ffffffffffffffffffffffffffffffffffffffff1673ffffffffffffffffffffffffffffffffffffffff1681526020019081526020016000208190615f7d6180d4565b505050615fd981606560008573ffffffffffffffffffffffffffffffffffffffff1673ffffffffffffffffffffffffffffffffffffffff168152602001908152602001600020615fcb618071565b6170bc90919063ffffffff16565b606560008473ffffffffffffffffffffffffffffffffffffffff1673ffffffffffffffffffffffffffffffffffffffff16815260200190815260200160002081906160226180d4565b5050508173ffffffffffffffffffffffffffffffffffffffff168373ffffffffffffffffffffffffffffffffffffffff167fddf252ad1be2c89b69c2b068fc378daa952ba7f163c4a11628f55a4df523b3ef836040518082815260200191505060405180910390a3505050565b6000838311158290616145576040517f08c379a00000000000000000000000000000000000000000000000000000000081526004018080602001828103825283818151815260200191508051906020019080838360005b838110156161015780820151818401526020810190506160e6565b50505050905090810190601f16801561612e5780820380516001836020036101000a031916815260200191505b509250505060405180910390616142618003565b50505b5060008385039050809150509392505050565b6161847fe17e4d9e9e68ef0b4e758ea7baa0e621ead5525c2c3f6f4cbffeee7351feee9960001b6149f0565b6161b07f041bc95de6ee4eac0e84ed21f295c5a08db331299a242264ec20e1c861546f2f60001b6149f0565b6161dc7f585c1f15bbc7bf57517cd5a32d4decc71e66da5beceea22f713b49b19093f42c60001b6149f0565b60006161e66144a2565b90506162147fdd608e0eccefb0d13b7f8be61260b4d6e96b384763cdfd8b941a03994a324f5d60001b6149f0565b6162407fd999019f4e76aafad1a4a019c914f80516f08224bf97dc9a0487a624e2ebb5d360001b6149f0565b600061624a6114b2565b90506162787f088376e9ece7695da0387a5c00a1ec787d7da0b64b3496a7db9623e11c05f0c360001b6149f0565b6162a47fe19e97cd867ee63ce42e5e6fca7f903f588531d777ad6a3b4838498dde05fc0f60001b6149f0565b60006162d27f84d1c1a9e401bc40cfbec5e23194cac6b039f69e84458ce8b313218d361f1f6360001b6149f0565b6162fe7f101e2e602e1eab0a86ddf4e9309067de959650d49b16cc10c5cf2dc986b1936860001b6149f0565b600061632c7f643a2aa625c25493aef5c5f4f0ea1a41f1cb4d66ca75b9bc3fe89acf5438eb5660001b6149f0565b6163587f92ed517ba1c07eef6076928d9dc1fcd37d131bb0a44efb842476e670894f06f860001b6149f0565b60cb600090616365618071565b906101000a900473ffffffffffffffffffffffffffffffffffffffff1673ffffffffffffffffffffffffffffffffffffffff1663b7a545265a63996d79a5598160e01b8152602081600483336000905af158600e01573d6000803e3d6000fd5b3d6001141558600a015760016000f35b8051925060005b60408110156163f6576000818301526020810190506163dc565b5050506040518263ffffffff1660e01b8152600401808273ffffffffffffffffffffffffffffffffffffffff1681526020019150506040805180830381868061643d6181f3565b1580156164525760008061644f618003565b50505b505a61645c618256565b505050505015801561647b573d6000803e3d6000616478618003565b50505b505050506040513d604081101561649a57600080616497618003565b50505b81019080805190602001909291908051906020019092919050505080925081935050506164e97f4784fbc32a649f048b2630df197608a15705a6b1f4fc990c00ace2d3736d043d60001b6149f0565b6165157f1a9ba3187309e3b1d21de99c1703bf9e7abae6308c35b7cb21bf51f370ed461f60001b6149f0565b600061652d858560cc616526618071565b868661753e565b905061655b7f587ddc245dfbfac57e8caff68a50657e8b121f58dbb591191216d905e5d8bed960001b6149f0565b6165877ff9b1543b3767f8049071afea6fa6e4c5b8ed6bc936a156180de27f527261bd1a60001b6149f0565b60648110156165f2576165bc7fcf06f3c18b419d1858cb89272fcf143772e3d72e7034d2ed721b5ca425d80aa760001b6149f0565b6165e87f6b1c85b90a7d0e783b7671cfdb1b00969f90a4d0b48a9515edcf2efc97b2876060001b6149f0565b5050505050616df2565b61661e7f7c0988967a751d220f7c6e7f7c69264f31d5cbcdb8c7708b757012a62327615c60001b6149f0565b61664a7f93e0ffdac51820f4873fb766b68c2fb6d2c5805fac26d734c72c8677008c59aa60001b6149f0565b6166767ff380aa281a56cf53b988dfab3887d21aeea6c0de0f9b3fe473db050ce69dde8160001b6149f0565b600060cb600090616685618071565b906101000a900473ffffffffffffffffffffffffffffffffffffffff1673ffffffffffffffffffffffffffffffffffffffff16631d68702d6040518163ffffffff1660e01b815260040160206040518083038186806166e26181f3565b1580156166f7576000806166f4618003565b50505b505a616701618256565b5050505050158015616720573d6000803e3d600061671d618003565b50505b505050506040513d602081101561673f5760008061673c618003565b50505b8101908080519060200190929190505050905061677e7f79546b5a195050ee25aa4c9e612fa294d4e02f722b558831689a1d4c0795134b60001b6149f0565b6167aa7f67fd2a864a0b811b6dc98afce22bcd4c1fad5ae016e5a4fd2d9a98e0d882b8cc60001b6149f0565b60006167d87f95b05cd51f95b3aa1d3ba71a2eba30f9ae2270f893b4e18facce727a070f82d060001b6149f0565b6168047fa5d1e4d4f3821699f546def80ae573f071ee4034397f6032a16b49997cc3bb5e60001b6149f0565b60006168327fecab531f92c182aefd3ede1001920bbae79a8c7c35c0c0af487d2c168e0841ba60001b6149f0565b61685e7f36e98820ef9977780ad680898933519a755e129fbe3ff58ba8735759e080aaa560001b6149f0565b60cb60009061686b618071565b906101000a900473ffffffffffffffffffffffffffffffffffffffff1673ffffffffffffffffffffffffffffffffffffffff16639cada6e46040518163ffffffff1660e01b8152600401604080518083038186806168c76181f3565b1580156168dc576000806168d9618003565b50505b505a6168e6618256565b5050505050158015616905573d6000803e3d6000616902618003565b50505b505050506040513d604081101561692457600080616921618003565b50505b81019080805190602001909291908051906020019092919050505080925081935050506169737f4b094a10cf5839bc4252490911d761c492c4bd318b8234940b6451bed0b3752460001b6149f0565b61699f7f7686e762b066d01cae60392f8d436e203b6abf36bc30abe38c05abfc179a81a160001b6149f0565b60006169c6826169b88588616df490919063ffffffff16565b616e8390919063ffffffff16565b90506169f47f34250afcd2bde31a53cbd5765865d83895ed94fa6e46230a4d66231b416778dc60001b6149f0565b616a207f4d7ce71389557989b66e1b63af22068621f3e15c19da5b15e56a6db5f4242d7860001b6149f0565b6000616a3582876174f490919063ffffffff16565b9050616a637fe70658254f17aa54ea683bc9e7ee907c7d8837d4fe2d898b52bf2b98cb82712c60001b6149f0565b616a8f7fd5d5627dfe2952fc7f1284fae88a14492aa8161e46c2c36ddf728fdd543818f060001b6149f0565b6000821115616aff57616ac47feb46fa986db157eb0ef2d80e80f3cab1c374a2fce1727d1b1a51a33cac46da9b60001b6149f0565b616af07f64bf9325b1f4bae17e1f6f420f31fe7bdc38ee4249ccd6bab3f25d309d126ff160001b6149f0565b616afa858361714d565b616b2c565b616b2b7fbe0bbd45779d9c289770120a31e002f19bf2bf1c25335e0d50f8d47d75efecb760001b6149f0565b5b616b587f21746e5e0efcb1c93efb7c0de601e67df87b35139e074e4fb6cfcfa2a65b5f8060001b6149f0565b616b847f6eec75d9b79c942f3d0b04eaddd63b0a26cb214c21fe935602c28f8c9f7e1ceb60001b6149f0565b6000811115616bfb57616bb97f4fc555a3145832dd8996b3c308fc131fb4b738f11fe8026d82770f5eb622eb1660001b6149f0565b616be57f5fd90e443f2ab23a94578430980e0ac3ccd7d337b2a19f49c11b4064c622736c60001b6149f0565b616bf6616bf0615c35565b8261714d565b616c28565b616c277f27a83275ac26d47e739ded9bfd8b2020a03eae107b24cf12a5d6e0afbd1dc62b60001b6149f0565b5b616c547fcdc0dc35b449d9063de7799919de443169d8dde7cdd3a77d62b6f8cb759da7c760001b6149f0565b616c807f7e354edf9e94d7d3fbcfa4ff6d609f66fd56a3ded65d4cb4749c31b1daad7b8860001b6149f0565b616c8a8a8a61733f565b60cc8190616c966180d4565b505050616cc57f07020aa713582cae0b27b6c3f2a45c8f1ab6fc51d9b1401703b8996827cdfa1e60001b6149f0565b616cf17fcd84013bacc0edcdd5ee3752c2da749263058b8a8b1525417c33aec7d13709cd60001b6149f0565b7f755a8059d66d8d243bc9f6913f429a811f154599d0538bb0b6a2ac23f23d2ccd5a63996d79a5598160e01b8152602081600483336000905af158600e01573d6000803e3d6000fd5b3d6001141558600a015760016000f35b8051925060005b6040811015616d6b57600081830152602081019050616d51565b505050616d76615c35565b88858560cc616d83618071565b604051808773ffffffffffffffffffffffffffffffffffffffff1681526020018673ffffffffffffffffffffffffffffffffffffffff168152602001858152602001848152602001838152602001828152602001965050505050505060405180910390a1505050505050505050505b565b600080831415616e075760009050616e7d565b6000828402905082848281616e1857fe5b0414616e78576040517f08c379a00000000000000000000000000000000000000000000000000000000081526004018080602001828103825260218152602001806185ac6021913960400191505060405180910390616e75618003565b50505b809150505b92915050565b6000616ec583836040518060400160405280601a81526020017f536166654d6174683a206469766973696f6e206279207a65726f000000000000815250617f2f565b905092915050565b600073ffffffffffffffffffffffffffffffffffffffff168273ffffffffffffffffffffffffffffffffffffffff161415616f5c576040517f08c379a00000000000000000000000000000000000000000000000000000000081526004018080602001828103825260218152602001806186236021913960400191505060405180910390616f59618003565b50505b616f6882600083617d64565b616fdb8160405180606001604052806022815260200161854260229139606560008673ffffffffffffffffffffffffffffffffffffffff1673ffffffffffffffffffffffffffffffffffffffff168152602001908152602001600020616fcc618071565b61608f9092919063ffffffff16565b606560008473ffffffffffffffffffffffffffffffffffffffff1673ffffffffffffffffffffffffffffffffffffffff16815260200190815260200160002081906170246180d4565b505050617043816067617035618071565b6174f490919063ffffffff16565b6067819061704f6180d4565b505050600073ffffffffffffffffffffffffffffffffffffffff168273ffffffffffffffffffffffffffffffffffffffff167fddf252ad1be2c89b69c2b068fc378daa952ba7f163c4a11628f55a4df523b3ef836040518082815260200191505060405180910390a35050565b600080828401905083811015617143576040517f08c379a000000000000000000000000000000000000000000000000000000000815260040180806020018281038252601b8152602001807f536166654d6174683a206164646974696f6e206f766572666c6f77000000000081525060200191505060405180910390617140618003565b50505b8091505092915050565b600073ffffffffffffffffffffffffffffffffffffffff168273ffffffffffffffffffffffffffffffffffffffff1614156171f9576040517f08c379a000000000000000000000000000000000000000000000000000000000815260040180806020018281038252601f8152602001807f45524332303a206d696e7420746f20746865207a65726f206164647265737300815250602001915050604051809103906171f6618003565b50505b61720560008383617d64565b617221816067617213618071565b6170bc90919063ffffffff16565b6067819061722d6180d4565b50505061728981606560008573ffffffffffffffffffffffffffffffffffffffff1673ffffffffffffffffffffffffffffffffffffffff16815260200190815260200160002061727b618071565b6170bc90919063ffffffff16565b606560008473ffffffffffffffffffffffffffffffffffffffff1673ffffffffffffffffffffffffffffffffffffffff16815260200190815260200160002081906172d26180d4565b5050508173ffffffffffffffffffffffffffffffffffffffff16600073ffffffffffffffffffffffffffffffffffffffff167fddf252ad1be2c89b69c2b068fc378daa952ba7f163c4a11628f55a4df523b3ef836040518082815260200191505060405180910390a35050565b600061736d7f0f69b73e7ae8fabdacb8138f276af2cec4c9543312325a9a2b151b6d362666ca60001b6149f0565b6173997ffdbb5462412501a28d743ef8758a77d82e8758c7d7a9bb1949d269e4ceb4706e60001b6149f0565b6173c57fa9d1c4542173470a6a3199318ef85342ec05bea036cd4196563e203f64ef490f60001b6149f0565b60008214806173d45750600083145b1561743a576174057f33135c0ff5125eb919ecaa5c4737b6d3b84319ab1fe9f57ecc3e8c27ed4ae40c60001b6149f0565b6174317f0a50f8e023a3619569c929ecb7a53d72e27af20346a87340989e6cd56b73444d60001b6149f0565b600090506174ee565b6174667fc3067410ef2d5302fc5d25f699bccec4b660d9bd2f7755ecfa7afb8502dd2ec660001b6149f0565b6174927f21058561f4e82f9db29fd9a74aec5b91c6f00b9615e52782bf6d68ef925702d460001b6149f0565b6174be7fe368203ac3190dec7aaff6d7e2dafda75893b32e0f768d66935a68456d9c215b60001b6149f0565b6174eb826174dd670de0b6b3a764000086616df490919063ffffffff16565b616e8390919063ffffffff16565b90505b92915050565b600061753683836040518060400160405280601e81526020017f536166654d6174683a207375627472616374696f6e206f766572666c6f77000081525061608f565b905092915050565b600061756c7ffbec90e3044034dde12940156712f2bbf2604b1deec23fe84a95d14f044037d960001b6149f0565b6175987f3c5983583e862154902346c68c2948dc976225e1f6411c7e6b9102e5133636fe60001b6149f0565b6175c47f51ec5fa497e384ed0a1a228249a761c3393fa72e01196fb1a26d74ec6945192a60001b6149f0565b60008514806175d35750600086145b15617639576176047f661c0e99ee7d5164d7da356d3d70a921fa39664c2db8712c86f29b746f76d31c60001b6149f0565b6176307fe06d8fe0c96cc768a0dffdfeea5eea1539bf3c7656ca9aa53e950ded4e37d9dd60001b6149f0565b600090506178f0565b6176657f4d4e6a9f4c02bb42a6402615723d3cabb7c0310ccbb066d9c3bcac5bbb6cecb860001b6149f0565b6176917f57cbcaa36bdb78597187fbde2f4d5e5fe7d6ea52310557c6e8a4cc36becd72a360001b6149f0565b6176bd7f7dae42c543c4fe6e8b89e9a7b9254a6a9c5e05984ba5cbf58a7155d23a0a348960001b6149f0565b60006176ec866176de670de0b6b3a76400008a616df490919063ffffffff16565b616e8390919063ffffffff16565b905061771a7f1db2ef916d50c675b73b28d0f19eb757f6fc6e2d95085d252246eacc4892b05060001b6149f0565b6177467f800351e705841033161dffa1281f39308842587ce73102499ec17e7d35a5eec260001b6149f0565b8481116177af576177797f09a51ea4646f031265b1484bb9cd535f5b23aea0a7ade5bef2c7f09e74cde4ad60001b6149f0565b6177a57fbce840b8a6329164233620d490683e24942b5caefb11610be3ef5df242e8e00b60001b6149f0565b60009150506178f0565b6177db7f9368870f64a0c4eae225374002f11353ee415a49f4ab81395ff46058c402795060001b6149f0565b6178077f6d2b724345bfeccdff47237f5825014d946a3497f0bea852d3cbc67854ab8be960001b6149f0565b6178337ffaf0fee296fdc279b69c15d4959cc4de384dcee0d71822aa1467ff2a4a7d740060001b6149f0565b60006178908261788286617874896178668d6178588e8b6174f490919063ffffffff16565b616df490919063ffffffff16565b616df490919063ffffffff16565b616e8390919063ffffffff16565b616e8390919063ffffffff16565b90506178be7fd8fc5601e9c92672ae6e3ac1a9039dd27a5ec16578f9ac2c949f424071076dec60001b6149f0565b6178ea7fedc6949760061555622e337d58f01976adff1136ff907780f744afbe448b23fb60001b6149f0565b80925050505b95945050505050565b6000600190617906618071565b906101000a900460ff168061791f575061791e6157c6565b5b8061793c5750600080617930618071565b906101000a900460ff16155b61799a576040517f08c379a000000000000000000000000000000000000000000000000000000000815260040180806020018281038252602e8152602001806185f5602e913960400191505060405180910390617997618003565b50505b6000806001906179a8618071565b906101000a900460ff161590508015617a11576001600060016101000a816179ce618071565b8160ff021916908315150217906179e36180d4565b50505060016000806101000a816179f8618071565b8160ff02191690831515021790617a0d6180d4565b5050505b8015617a425760008060016101000a81617a29618071565b8160ff02191690831515021790617a3e6180d4565b5050505b50565b6000600190617a52618071565b906101000a900460ff1680617a6b5750617a6a6157c6565b5b80617a885750600080617a7c618071565b906101000a900460ff16155b617ae6576040517f08c379a000000000000000000000000000000000000000000000000000000000815260040180806020018281038252602e8152602001806185f5602e913960400191505060405180910390617ae3618003565b50505b600080600190617af4618071565b906101000a900460ff161590508015617b5d576001600060016101000a81617b1a618071565b8160ff02191690831515021790617b2f6180d4565b50505060016000806101000a81617b44618071565b8160ff02191690831515021790617b596180d4565b5050505b8260689080519060200190617b73929190618456565b508160699080519060200190617b8a929190618456565b506012606a60006101000a81617b9e618071565b8160ff021916908360ff16021790617bb46180d4565b5050508015617be85760008060016101000a81617bcf618071565b8160ff02191690831515021790617be46180d4565b5050505b505050565b6000600190617bfa618071565b906101000a900460ff1680617c135750617c126157c6565b5b80617c305750600080617c24618071565b906101000a900460ff16155b617c8e576040517f08c379a000000000000000000000000000000000000000000000000000000000815260040180806020018281038252602e8152602001806185f5602e913960400191505060405180910390617c8b618003565b50505b600080600190617c9c618071565b906101000a900460ff161590508015617d05576001600060016101000a81617cc2618071565b8160ff02191690831515021790617cd76180d4565b50505060016000806101000a81617cec618071565b8160ff02191690831515021790617d016180d4565b5050505b6001609760006101000a81617d18618071565b8160ff02191690831515021790617d2d6180d4565b5050508015617d615760008060016101000a81617d48618071565b8160ff02191690831515021790617d5d6180d4565b5050505b50565b617d907fda49ad940c1f05674bef2ddab8e363a9b036ac07556cc21cc304c7be9f07914060001b6149f0565b617dbc7f800dda560d870eec1c01092de23f179d64072aa9996257d6b6b85e5c224b6ad160001b6149f0565b617de87fa95ec4bc6abed3151225b319c6e4df621447021d1c4d6956d7568940f8d16dbf60001b6149f0565b617df3838383617ffe565b617e1f7f0b6577bf6dad542540d2ab73ba2c2f718c552dcb39f22861569794bcdf04640460001b6149f0565b617e4b7f63da789e2df51b8fe011adb622e9417cf7c36dbf8607538e31ff4cdcf51b7fee60001b6149f0565b617e777fad148673c9534c2467f9b4ab40bad2a4796f11855a641006af170ccb4778690460001b6149f0565b6000617e82846149f3565b14617efe576040517f08c379a000000000000000000000000000000000000000000000000000000000815260040180806020018281038252600f8152602001807f636f6f6c646f776e20616374697665000000000000000000000000000000000081525060200191505060405180910390617efb618003565b50505b617f2a7f37741b1456713a07b1fc9da17bed98d29a1feb59a8a5b1eb6d0f64c103fc647e60001b6149f0565b505050565b60008083118290617fe4576040517f08c379a00000000000000000000000000000000000000000000000000000000081526004018080602001828103825283818151815260200191508051906020019080838360005b83811015617fa0578082015181840152602081019050617f85565b50505050905090810190601f168015617fcd5780820380516001836020036101000a031916815260200191505b509250505060405180910390617fe1618003565b50505b506000838581617ff057fe5b049050809150509392505050565b505050565b632a2a7adb598160e01b8152600481016020815285602082015260005b8681101561803e578086015181604084010152602081019050618020565b506020828760640184336000905af158600e01573d6000803e3d6000fd5b3d6001141558600a015760016000f35b505050565b6303daa959598160e01b8152836004820152602081602483336000905af158600e01573d6000803e3d6000fd5b3d6001141558600a015760016000f35b8051935060005b60408110156180cf576000818301526020810190506180b5565b505050565b6322bd64c0598160e01b8152836004820152846024820152600081604483336000905af158600e01573d6000803e3d6000fd5b3d6001141558600a015760016000f35b60005b60408110156181345760008183015260208101905061811a565b505050565b6373509064598160e01b8152602081600483336000905af158600e01573d6000803e3d6000fd5b3d6001141558600a015760016000f35b8051935060005b604081101561819157600081830152602081019050618177565b505050565b63bdbf8c36598160e01b8152602081600483336000905af158600e01573d6000803e3d6000fd5b3d6001141558600a015760016000f35b8051935060005b60408110156181ee576000818301526020810190506181d4565b505050565b638435035b598160e01b8152836004820152602081602483336000905af158600e01573d6000803e3d6000fd5b3d6001141558600a015760016000f35b8051935060005b604081101561825157600081830152602081019050618237565b505050565b638540661f598160e01b8152618295565b600081905081831115618278578290505b92915050565b60008190508183101561828f578290505b92915050565b836004820152846024820152606060448201528660648201526084810160005b888110156182d05780880151818301526020810190506182b5565b506060828960a40184336000905af158600e01573d6000803e3d6000fd5b3d6001141558600a015760016000f35b815160408301513d6000853e8b8b82606087013350600060045af150596183258d3d61827e565b8c016183318187618267565b5b828110156183495760008152602081019050618332565b50839d5050505050505050565b6385979f76598160e01b8152618395565b600081905081831115618378578290505b92915050565b60008190508183101561838f578290505b92915050565b836004820152846024820152606060448201528760648201526084810160005b898110156183d05780890151818301526020810190506183b5565b506060828a60a40184336000905af158600e01573d6000803e3d6000fd5b3d6001141558600a015760016000f35b815160408301513d6000853e8c8c82606087013350600060045af150596184258e3d61837e565b8d016184318187618367565b5b828110156184495760008152602081019050618432565b50839e5050505050505050565b8280618460618071565b600181600116156101000203166002900490600052602060002090601f016020900481019282601f106184a757805160ff191683800117856184a06180d4565b50506184e7565b828001600101856184b66180d4565b505082156184e7579182015b828111156184e6578251826184d56180d4565b5050916020019190600101906184c2565b5b5090506184f491906184f8565b5090565b5b8082111561851a5760008160009061850f6180d4565b5050506001016184f9565b509056fe45524332303a207472616e7366657220746f20746865207a65726f206164647265737345524332303a206275726e20616d6f756e7420657863656564732062616c616e636545524332303a20617070726f766520746f20746865207a65726f206164647265737345524332303a207472616e7366657220616d6f756e7420657863656564732062616c616e6365536166654d6174683a206d756c7469706c69636174696f6e206f766572666c6f7745524332303a207472616e7366657220616d6f756e74206578636565647320616c6c6f77616e6365436f6e747261637420696e7374616e63652068617320616c7265616479206265656e20696e697469616c697a656445524332303a206275726e2066726f6d20746865207a65726f206164647265737345524332303a207472616e736665722066726f6d20746865207a65726f206164647265737345524332303a20617070726f76652066726f6d20746865207a65726f206164647265737345524332303a2064656372656173656420616c6c6f77616e63652062656c6f77207a65726f",
  "deployedBytecode": "0x608060405234801561001957600080610016618003565b50505b50600436106102045760003560e01c806370a0823111610123578063b4139acd116100b6578063cc3c6df611610085578063cc3c6df614610cdc578063d8270dce14610ce6578063dd62ed3e14610d04578063edbf6f5014610d85578063fed4416a14610da357610204565b8063b4139acd14610bad578063b8ea2b6e14610be4578063bbbf725b14610c45578063c45a015514610ca857610204565b806395d89b41116100f257806395d89b4114610a32578063a457c2d714610ab5578063a9059cbb14610b22578063ad60ffcc14610b8f57610204565b806370a0823114610932578063750226de146109935780637714f39d146109f65780637ff9b59614610a1457610204565b806329d16ee81161019b5780633babaad51161016a5780633babaad5146108505780634501b0881461088957806347e7ef24146108a757806359b5e75e1461091257610204565b806329d16ee81461072a5780632e1a7d4d1461078b578063313ce567146107c257806339509351146107e357610204565b806318160ddd116101d757806318160ddd146105135780631c5918d2146105315780631e50a4a61461066957806323b872dd1461069d57610204565b806302d05d3f1461021257806306fdde0314610246578063095ea7b3146102c95780630ccb30c714610336575b60008061020f618003565b50505b61021a610e26565b604051808273ffffffffffffffffffffffffffffffffffffffff16815260200191505060405180910390f35b61024e610e53565b6040518080602001828103825283818151815260200191508051906020019080838360005b8381101561028e578082015181840152602081019050610273565b50505050905090810190601f1680156102bb5780820380516001836020036101000a031916815260200191505b509250505060405180910390f35b61031e600480360360408110156102e8576000806102e5618003565b50505b81019080803573ffffffffffffffffffffffffffffffffffffffff16906020019092919080359060200190929190505050610f11565b60405180821515815260200191505060405180910390f35b610511600480360360a081101561035557600080610352618003565b50505b81019080803573ffffffffffffffffffffffffffffffffffffffff169060200190929190803515159060200190929190803590602001906401000000008111156103a7576000806103a4618003565b50505b8201836020820111156103c2576000806103bf618003565b50505b803590602001918460018302840111640100000000831117156103ed576000806103ea618003565b50505b91908080601f016020809104026020016040519081016040528093929190818152602001838380828437600081840152601f19601f8201169050808301925050505050505091929192908035906020019064010000000081111561045957600080610456618003565b50505b82018360208201111561047457600080610471618003565b50505b8035906020019184600183028401116401000000008311171561049f5760008061049c618003565b50505b91908080601f016020809104026020016040519081016040528093929190818152602001838380828437600081840152601f19601f820116905080830192505050505050509192919290803573ffffffffffffffffffffffffffffffffffffffff169060200190929190505050610f2f565b005b61051b6114b2565b6040518082815260200191505060405180910390f35b6105396114c3565b60405180806020018a81526020018981526020018873ffffffffffffffffffffffffffffffffffffffff16815260200180602001878152602001861515815260200185815260200184815260200183810383528c818151815260200191508051906020019080838360005b838110156105bf5780820151818401526020810190506105a4565b50505050905090810190601f1680156105ec5780820380516001836020036101000a031916815260200191505b50838103825288818151815260200191508051906020019080838360005b8381101561062557808201518184015260208101905061060a565b50505050905090810190601f1680156106525780820380516001836020036101000a031916815260200191505b509b50505050505050505050505060405180910390f35b610671611831565b604051808273ffffffffffffffffffffffffffffffffffffffff16815260200191505060405180910390f35b610712600480360360608110156106bc576000806106b9618003565b50505b81019080803573ffffffffffffffffffffffffffffffffffffffff169060200190929190803573ffffffffffffffffffffffffffffffffffffffff1690602001909291908035906020019092919050505061185e565b60405180821515815260200191505060405180910390f35b6107756004803603602081101561074957600080610746618003565b50505b81019080803573ffffffffffffffffffffffffffffffffffffffff16906020019092919050505061193e565b6040518082815260200191505060405180910390f35b6107c0600480360360208110156107aa576000806107a7618003565b50505b810190808035906020019092919050505061195d565b005b6107ca61284e565b604051808260ff16815260200191505060405180910390f35b61083860048036036040811015610802576000806107ff618003565b50505b81019080803573ffffffffffffffffffffffffffffffffffffffff1690602001909291908035906020019092919050505061286c565b60405180821515815260200191505060405180910390f35b6108876004803603602081101561086f5760008061086c618003565b50505b81019080803515159060200190929190505050612926565b005b610891612cc0565b6040518082815260200191505060405180910390f35b6108fc600480360360408110156108c6576000806108c3618003565b50505b81019080803573ffffffffffffffffffffffffffffffffffffffff16906020019092919080359060200190929190505050612e23565b6040518082815260200191505060405180910390f35b61091a613c82565b60405180821515815260200191505060405180910390f35b61097d600480360360208110156109515760008061094e618003565b50505b81019080803573ffffffffffffffffffffffffffffffffffffffff169060200190929190505050613c9c565b6040518082815260200191505060405180910390f35b6109de600480360360208110156109b2576000806109af618003565b50505b81019080803573ffffffffffffffffffffffffffffffffffffffff169060200190929190505050613cec565b60405180821515815260200191505060405180910390f35b6109fe614186565b6040518082815260200191505060405180910390f35b610a1c614193565b6040518082815260200191505060405180910390f35b610a3a6142f2565b6040518080602001828103825283818151815260200191508051906020019080838360005b83811015610a7a578082015181840152602081019050610a5f565b50505050905090810190601f168015610aa75780820380516001836020036101000a031916815260200191505b509250505060405180910390f35b610b0a60048036036040811015610ad457600080610ad1618003565b50505b81019080803573ffffffffffffffffffffffffffffffffffffffff169060200190929190803590602001909291905050506143b0565b60405180821515815260200191505060405180910390f35b610b7760048036036040811015610b4157600080610b3e618003565b50505b81019080803573ffffffffffffffffffffffffffffffffffffffff16906020019092919080359060200190929190505050614484565b60405180821515815260200191505060405180910390f35b610b976144a2565b6040518082815260200191505060405180910390f35b610be260048036036020811015610bcc57600080610bc9618003565b50505b81019080803590602001909291905050506149f0565b005b610c2f60048036036020811015610c0357600080610c00618003565b50505b81019080803573ffffffffffffffffffffffffffffffffffffffff1690602001909291905050506149f3565b6040518082815260200191505060405180910390f35b610c9060048036036020811015610c6457600080610c61618003565b50505b81019080803573ffffffffffffffffffffffffffffffffffffffff169060200190929190505050614cae565b60405180821515815260200191505060405180910390f35b610cb0614e34565b604051808273ffffffffffffffffffffffffffffffffffffffff16815260200191505060405180910390f35b610ce4614e61565b005b610cee614eef565b6040518082815260200191505060405180910390f35b610d6f60048036036040811015610d2357600080610d20618003565b50505b81019080803573ffffffffffffffffffffffffffffffffffffffff169060200190929190803573ffffffffffffffffffffffffffffffffffffffff169060200190929190505050614efc565b6040518082815260200191505060405180910390f35b610d8d614f8a565b6040518082815260200191505060405180910390f35b610dab615368565b6040518080602001828103825283818151815260200191508051906020019080838360005b83811015610deb578082015181840152602081019050610dd0565b50505050905090810190601f168015610e185780820380516001836020036101000a031916815260200191505b509250505060405180910390f35b60c9600190610e33618071565b906101000a900473ffffffffffffffffffffffffffffffffffffffff1681565b6060606880610e60618071565b600181600116156101000203166002900480601f01602080910402602001604051908101604052809291908181526020018280610e9b618071565b60018160011615610100020316600290048015610f075780601f10610ed5576101008083610ec7618071565b040283529160200191610f07565b820191906000526020600020905b81610eec618071565b81529060010190602001808311610ee357829003601f168201915b5050505050905090565b6000610f25610f1e6155a4565b84846155b4565b6001905092915050565b6000600190610f3c618071565b906101000a900460ff1680610f555750610f546157c6565b5b80610f725750600080610f66618071565b906101000a900460ff16155b610fd0576040517f08c379a000000000000000000000000000000000000000000000000000000000815260040180806020018281038252602e8152602001806185f5602e913960400191505060405180910390610fcd618003565b50505b600080600190610fde618071565b906101000a900460ff161590508015611047576001600060016101000a81611004618071565b8160ff021916908315150217906110196180d4565b50505060016000806101000a8161102e618071565b8160ff021916908315150217906110436180d4565b5050505b6110737f469f35ae6c10408f8b1511b1d8fd05afda3ab254bf0c96fc6f1260a65886136660001b6149f0565b61109f7f82b5aeb01148a3128493aa7f862fd143cee8921c117f13f68793c8c6d63facf060001b6149f0565b6110cb7fd623550b1df393b107444a45065c15365b61b48734d4022e44b91bb6372cd24a60001b6149f0565b6110d5848461583f565b6111017f2e5dffe8a8340bc23ae80bebc548c74a4f2ae3979df62c60184b3b4537db762560001b6149f0565b61112d7fb84872ac1bdc594e04e14330605090368df472cd38ad3dbd98423c1d6e8e410860001b6149f0565b61113561599f565b6111617f07b65f55b27ec944f17bf760651091e61ead8dd8d442a5820f94e659bd50f1fe60001b6149f0565b61118d7f35d41d75afebb13957e03297da9906f56ff7f4692074990b201d000da6cb5c4a60001b6149f0565b8560cb60006101000a8161119f618071565b8173ffffffffffffffffffffffffffffffffffffffff021916908373ffffffffffffffffffffffffffffffffffffffff160217906111db6180d4565b50505061120a7f31e2c04996cd34c61628b2410eb98ae3291f79107f156da2d7b2389163883e7460001b6149f0565b6112367fa4cfe4520c6c686510c2d25da657fc19ab7f3569a550d74ba7ab21d88baedc2f60001b6149f0565b61123f85615af3565b61126b7f0c0f473acebc2ceec13f0c903f19ec91c0c47b7d7c23ce86978c76c1cd60e52960001b6149f0565b6112977f126cbacd934dc234e55172fd3b4244818dc226cca45573eedb8f47326be695a560001b6149f0565b5a6112a0618139565b60c960016101000a816112b1618071565b8173ffffffffffffffffffffffffffffffffffffffff021916908373ffffffffffffffffffffffffffffffffffffffff160217906112ed6180d4565b50505061131c7ffef8aac2c0fe0e6c003655cbf7ccb94a51f52c8fd5486f1b8e09a9f09476fc0a60001b6149f0565b6113487f43128f1c62b6d7820922ed3c979315b2f66b9c36f6aabe9d8185cb3da949eb0b60001b6149f0565b5a611351618196565b60ca819061135d6180d4565b50505061138c7ff758563aca0c1e5c3f7842428c046cbbe5b51f729eef94b99addeb832f2df1a860001b6149f0565b6113b87f558a2f6c913631f622df5a2706ed33bdeaa58bc0ad2f91f0c4ee570f17f10ccb60001b6149f0565b670de0b6b3a764000060cc81906113cd6180d4565b5050506113fc7f39914be7d2c33c72f70662d08c778abe46dd79ec6493bde71511fd986f422b6b60001b6149f0565b6114287ff78a087868b1824466a5d522c26d078b1f09e2782d00e65bbffbe4aa3f7daefa60001b6149f0565b8160ce60006101000a8161143a618071565b8173ffffffffffffffffffffffffffffffffffffffff021916908373ffffffffffffffffffffffffffffffffffffffff160217906114766180d4565b50505080156114aa5760008060016101000a81611491618071565b8160ff021916908315150217906114a66180d4565b5050505b505050505050565b600060676114be618071565b905090565b6060600080600060606000806000806114fe7f4bdde2baa7989cd71add97d5075938e58007b1072bdff1a7a1cc374fe88e299e60001b6149f0565b61152a7f935800f9a1029c62e35d07072fe7cf07908e26d8488cb1fc5951739c6237574a60001b6149f0565b6115567f4dc76c8eb48240f83aff4d76497be8134c10b69924fc6d7150d0288c43e499b060001b6149f0565b60006115847f9183dd2bdc6a70b152a11b779197ff3191c1312ad9b21f464d61c9b0bfc7b29860001b6149f0565b6115b07fab419f808377a0ce17ae86208b1105b7eb03320d967f42c964117f4212b01f2a60001b6149f0565b60006115de7f0fc18e998f8b1156c7b9a6b974e1a26644c67297402928fb52e47779b2a7a95160001b6149f0565b61160a7f57adcf854743f7edf254d073762930e14832220efa6e48a5c931137811be8c9f60001b6149f0565b60cb600090611617618071565b906101000a900473ffffffffffffffffffffffffffffffffffffffff1673ffffffffffffffffffffffffffffffffffffffff1663b7a545265a63996d79a5598160e01b8152602081600483336000905af158601d01573d60011458600c01573d6000803e3d621234565260ea61109c528051925060005b60408110156116a85760008183015260208101905061168e565b5050506040518263ffffffff1660e01b8152600401808273ffffffffffffffffffffffffffffffffffffffff168152602001915050604080518083038186806116ef6181f3565b15801561170457600080611701618003565b50505b505a61170e618256565b505050505015801561172d573d6000803e3d600061172a618003565b50505b505050506040513d604081101561174c57600080611749618003565b50505b810190808051906020019092919080519060200190929190505050809250819350505061179b7fa391785a7b95066c4417d861fb542079749763c6d7b728745832535b09a5c3fa60001b6149f0565b6117c77fe9d24f578e793758b890cfd690236289e078788a5a38b0ab4f332787aae964eb60001b6149f0565b6117cf610e53565b6117d76114b2565b6117df6144a2565b6117e7615c35565b6117ef615368565b60ca6117f9618071565b60c9600090611806618071565b906101000a900460ff1688889a509a509a509a509a509a509a509a509a505050909192939495969798565b60ce60009061183e618071565b906101000a900473ffffffffffffffffffffffffffffffffffffffff1681565b600061186b848484615d98565b611933846118776155a4565b61192e856040518060600160405280602881526020016185cd60289139606660008b73ffffffffffffffffffffffffffffffffffffffff1673ffffffffffffffffffffffffffffffffffffffff16815260200190815260200160002060006118dd6155a4565b73ffffffffffffffffffffffffffffffffffffffff1673ffffffffffffffffffffffffffffffffffffffff16815260200190815260200160002061191f618071565b61608f9092919063ffffffff16565b6155b4565b600190509392505050565b60cd60205280600052604060002060009150905061195a618071565b81565b609760009061196a618071565b906101000a900460ff166119ef576040517f08c379a000000000000000000000000000000000000000000000000000000000815260040180806020018281038252601f8152602001807f5265656e7472616e637947756172643a207265656e7472616e742063616c6c00815250602001915050604051809103906119ec618003565b50505b6000609760006101000a81611a02618071565b8160ff02191690831515021790611a176180d4565b505050611a467f3c77ae6af56227ef4160a7de60595d35a3958dc21b206cd05346000f5a34160b60001b6149f0565b611a727f802d5129dbeabe31474f7c4c7cc90a3195755f30f69689fac4ca14cd1c82f6bc60001b6149f0565b611a9e7fee6231597a49eb5c7e8f25cb5052177885f8d06c4b4c1e8994884f45e426d93a60001b6149f0565b611aca7f55bc675d1377d87d06a6506e47f84ef3dc08ba6f3b3a94651126cd567e1d80be60001b6149f0565b80611adc5a611ad7618139565b613c9c565b1015611b59576040517f08c379a00000000000000000000000000000000000000000000000000000000081526004018080602001828103825260148152602001807f696e73756666696369656e742062616c616e636500000000000000000000000081525060200191505060405180910390611b56618003565b50505b611b857fbb88af5b2e7683f793a20b064e0a1706bca6b851801e3b26de93165408c9ee0860001b6149f0565b611bb17f0c24bf7dc70f81a377eb1d32f0ea482f8d85345759d2d808537e6d1bae068bb360001b6149f0565b611bdd7f62a6a4212911ba2d481eade49c19d289d0f9a67331eef7c54a9c65e562a4b58060001b6149f0565b611c097f79eba487d116bd0678e3441335e3464d1b16fbe8c24d83de6f23ae24539fc36a60001b6149f0565b6000611c1c5a611c17618139565b6149f3565b14611c98576040517f08c379a000000000000000000000000000000000000000000000000000000000815260040180806020018281038252600f8152602001807f636f6f6c646f776e20616374697665000000000000000000000000000000000081525060200191505060405180910390611c95618003565b50505b611cc47f64251508ce9b88a0df8d0bdd2113390c1a8e0c86246fc9b5872ced3080648e2460001b6149f0565b611cf07f176671254d4868a87e750526a81fb560aae3535402835e1f96fed3b3f2df371260001b6149f0565b611d1c7f5af87302d6783c8bbc624f94c8578b903087afd6612a8c15dc4a0b2e41753eb060001b6149f0565b611d24616158565b611d507f94613143db7d6cd5d1544c028634cfbc19b673b0efa89a007a970899cf09658b60001b6149f0565b611d7c7fc415fe862db691369d43cf5a83f9f7392d714a2d6ed25eff39d2741719583bc860001b6149f0565b6000611d866144a2565b9050611db47fd8fd5005e7fd4ca0c54b0e47e665ab21cfabae0fc5bcf5e8899f0abd228289f660001b6149f0565b611de07f921f2306ed61c43f7ae13365b2d37c40cd2a332937fc69c417f1848eed3f567460001b6149f0565b6000611e16611ded6114b2565b611e08670de0b6b3a764000086616df490919063ffffffff16565b616e8390919063ffffffff16565b9050611e447f9f0f92a493580b82e8b9b0f93e7e2c5174479844843fcacbd4d3076dc30254cd60001b6149f0565b611e707f83e242a175e37dbece57967547e650a3daadea274eab97ef80ca4a1e2e65a33560001b6149f0565b611e825a611e7c618139565b84616ecd565b611eae7f7e17e91c60e41b4eac9b3323efb119b4a8a2fd1f6b5a69203b8e81c5096b648e60001b6149f0565b611eda7fb516179eadd189835507f07908d9b6330de19657f0e632efcbae8b61de475b1360001b6149f0565b600060ce600090611ee9618071565b906101000a900473ffffffffffffffffffffffffffffffffffffffff169050611f347f23934650224a27a3b85e377581be9b812d545436e0bdcf965e377ec2864f18c960001b6149f0565b611f607f1e469af591ae2941b41d0a27c7f03d6a70c15afaca2b308d21c5d7b5ff950afd60001b6149f0565b60608173ffffffffffffffffffffffffffffffffffffffff1663e5406dbf6040518163ffffffff1660e01b81526004016000604051808303818680611fa36181f3565b158015611fb857600080611fb5618003565b50505b505a611fc2618256565b5050505050158015611fe1573d6000803e3d6000611fde618003565b50505b505050506040513d6000823e3d601f19601f82011682018060405250602081101561201457600080612011618003565b50505b810190808051604051939291908464010000000082111561203d5760008061203a618003565b50505b8382019150602082018581111561205c57600080612059618003565b50505b82518660208202830111640100000000821117156120825760008061207f618003565b50505b8083526020830192505050908051906020019060200280838360005b838110156120b957808201518184015260208101905061209e565b5050505090500160405250505090506120f47f9697082c6ef4fec43241a37e481d6a0fbb1e7fca964c238cf2f316cc2563f6f160001b6149f0565b6121207f75f5bb7df3c233e2bb4349b6d2562cb5714cc21aab1e3f9371402d70e3613a7260001b6149f0565b6000815190506121527f0cb6f199aa6286c6d9241672fcf2a3f229bfc63c643fe96bfd6b00c9c8b13c0260001b6149f0565b61217e7fef0147fa0f16d646e96c0ab529070b8e838e12068e6e0dc59b126015d941251660001b6149f0565b60005b81811015612614576121b57fc356501b4dcc03ba836c47bb51944ed1a32c8449c6060fa49dd606557eaca87160001b6149f0565b6121e17fc5bd0e9466c0759722a4c0087ac4ff5c51233ed497e082e538daa13f6f5a79d860001b6149f0565b60008382815181106121ef57fe5b602002602001015190506122257f5a108d77a61e34577c571cfd9b0e0380ee2079f673dda83da9e61cb4a5fa8d4360001b6149f0565b6122517f5986a2d46f43780c097538b864b99f6cfea881ac96f03dd3710f8633a73f57fb60001b6149f0565b60008173ffffffffffffffffffffffffffffffffffffffff166370a082315a63996d79a5598160e01b8152602081600483336000905af158601d01573d60011458600c01573d6000803e3d621234565260ea61109c528051925060005b60408110156122c8576000818301526020810190506122ae565b5050506040518263ffffffff1660e01b8152600401808273ffffffffffffffffffffffffffffffffffffffff16815260200191505060206040518083038186806123106181f3565b15801561232557600080612322618003565b50505b505a61232f618256565b505050505015801561234e573d6000803e3d600061234b618003565b50505b505050506040513d602081101561236d5760008061236a618003565b50505b810190808051906020019092919050505090506123ac7fc87e89aeb3ce52b5f34154a650ecac77f15602480a692e14149ae55d4aeb8fa760001b6149f0565b6123d87f2e0889585b85abf32573bf528bd9593118cb175af52a09a35f8cbd88c3b9a16560001b6149f0565b6000612407670de0b6b3a76400006123f98a85616df490919063ffffffff16565b616e8390919063ffffffff16565b90506124357fb7ce6b3deba38361a5ae90e247a3e4533d0f793200f7415e711804e110ed723a60001b6149f0565b6124617f8de1284e41c7e10a51ef582ebb770367825e5c1a1c8bbb20b31acfa3800aeed560001b6149f0565b60008111156125d7576124967f983bd8ec7a46ac63e1ea96fdd6f3cf946ea0d1a0bc612c185d047ccdda493f3d60001b6149f0565b6124c27ff4d00a1f5cf40f76c0ae7c7fc00a307f04994ee8ecf3d155d1c2a23d75c3692d60001b6149f0565b6124ee7fe95e0046afe3ffb3a57a63400e9a935c22ab58d543bddc27d4e121b043592cc160001b6149f0565b8273ffffffffffffffffffffffffffffffffffffffff1663a9059cbb5a612513618139565b836040518363ffffffff1660e01b8152600401808373ffffffffffffffffffffffffffffffffffffffff16815260200182815260200192505050602060405180830381600087806125626181f3565b15801561257757600080612574618003565b50505b505a612581618356565b5050505050501580156125a1573d6000803e3d600061259e618003565b50505b505050506040513d60208110156125c0576000806125bd618003565b50505b810190808051906020019092919050505050612604565b6126037f843d3368f9acd43221bc3b99d2135446d951acceef3e28e36d736b83df2e092060001b6149f0565b5b5050508080600101915050612181565b506126417fd32da7818bd6546a21a4f26810d5feb8141eaa0a4defdd2d0eccf2544d42c92060001b6149f0565b61266d7f1ff1baf9d811ea3008c4ba00ffc66cb519e1449cb90e68ee94d4ba7c1344753860001b6149f0565b600061269c670de0b6b3a764000061268e8888616df490919063ffffffff16565b616e8390919063ffffffff16565b90506126ca7ff5a4c41d3c79730003e91f391bfaf0247f5795e675ea4ed6fc8ab8dbe011a5cf60001b6149f0565b6126f67f11af5dad8a8c50afc7e234e9041f09cc8540ce229d9036a8c9127ae61d15644660001b6149f0565b7f79d44cc8beeed36226f14818b2ecaca7ef252bcd56c9ae35f5a86869dbdefb975a63996d79a5598160e01b8152602081600483336000905af158601d01573d60011458600c01573d6000803e3d621234565260ea61109c528051925060005b604081101561277057600081830152602081019050612756565b5050505a61277c618139565b838a61278f5a61278a618139565b613c9c565b6127976144a2565b61279f6114b2565b5a6127a8618196565b604051808973ffffffffffffffffffffffffffffffffffffffff1681526020018873ffffffffffffffffffffffffffffffffffffffff1681526020018781526020018681526020018581526020018481526020018381526020018281526020019850505050505050505060405180910390a15050505050506001609760006101000a81612833618071565b8160ff021916908315150217906128486180d4565b50505050565b6000606a60009061285d618071565b906101000a900460ff16905090565b600061291c6128796155a4565b84612917856066600061288a6155a4565b73ffffffffffffffffffffffffffffffffffffffff1673ffffffffffffffffffffffffffffffffffffffff16815260200190815260200160002060008973ffffffffffffffffffffffffffffffffffffffff1673ffffffffffffffffffffffffffffffffffffffff168152602001908152602001600020612909618071565b6170bc90919063ffffffff16565b6155b4565b6001905092915050565b6129527f5c2263a09ca8ef49d37c534b0eb96fed64e7f61c6afd280202e3aa9bf357203a60001b6149f0565b61297e7fa63368da0e4f9d9d719d1aa65649263319b09d2a105865eb3a2838dfd5c411e660001b6149f0565b6129aa7f64bad4b1e5d00fac51a89f24ccceb4999040e91201175475fff7a5628b78f5a160001b6149f0565b6129d67f0c4117d54e7271462142925d4dd74b9c0c6a360e015e67c4bf189205d41e407760001b6149f0565b6129de615c35565b73ffffffffffffffffffffffffffffffffffffffff165a6129fd618139565b73ffffffffffffffffffffffffffffffffffffffff1614612a8f576040517f08c379a000000000000000000000000000000000000000000000000000000000815260040180806020018281038252600c8152602001807f6f6e6c79206d616e61676572000000000000000000000000000000000000000081525060200191505060405180910390612a8c618003565b50505b612abb7f84e82d992592b800cd53a4e8ecc5e2f70ea5a3cf3c84fcdab743b89ae0207c2960001b6149f0565b612ae77fc993a319633e375c06d08b841b4116c6ecaf4bf8688ae37f6163d517790ad1c360001b6149f0565b612b137f982e1ba79e47ed99d828d477022cb7a2406be00ce6a7fdc10071939ad711ed8560001b6149f0565b612b3f7fcef107de6f39506db11b142b813e8b7f0c71af92870f5008a9c4d8276c0dc1cd60001b6149f0565b612b6b7f8b590efd4b65c6ae93114f904a0a233a02c28b38581f6a8896219b69618f5fca60001b6149f0565b612b977f1bf2452b7ff8ca3dbf34e4910d1ee3cbed4c5fbd5e2b85fd985ce5dc3f98e59660001b6149f0565b80151560c9600090612ba7618071565b906101000a900460ff1615151415612c30576040517f08c379a00000000000000000000000000000000000000000000000000000000081526004018080602001828103825260168152602001807f666c6167206d75737420626520646966666572656e740000000000000000000081525060200191505060405180910390612c2d618003565b50505b612c5c7fddd35fa904bc55c7e47222dd2c28342452762aef8676d065baff838a280c66c460001b6149f0565b612c887f5256939ba2876e6f13b33d7ab7e92829b308ae0d57aff9160ca500dd8bdec81860001b6149f0565b612cb47f4dbf6f4a2cc8ea3049ee3ea9b572fd1bf845c87a31fcd50c0286d57557a7fd6760001b6149f0565b612cbd81615af3565b50565b6000612cee7f27bee97e1cdb621c9f63259420ff410173e8c0ed15d8f2fa41c7480b7c0d38a060001b6149f0565b612d1a7fe14bc8ff01da90e7c931c099929a027d8e4d8fb05fb5608a35292459f147539e60001b6149f0565b612d467fae379631a565a1071d888ec2ca26cee5af0e404876ff386012765da776f1cae160001b6149f0565b60cb600090612d53618071565b906101000a900473ffffffffffffffffffffffffffffffffffffffff1673ffffffffffffffffffffffffffffffffffffffff16634501b0886040518163ffffffff1660e01b81526004016020604051808303818680612db06181f3565b158015612dc557600080612dc2618003565b50505b505a612dcf618256565b5050505050158015612dee573d6000803e3d6000612deb618003565b50505b505050506040513d6020811015612e0d57600080612e0a618003565b50505b8101908080519060200190929190505050905090565b6000612e517f0d12574f4b7f278d9be67ecc094083e8caf8102663ca305892e54b258667a32760001b6149f0565b612e7d7f2524a264be01af74a8f29148df2e6031d3190bce04c839845252653ca7f2946d60001b6149f0565b612ea97f5de26ee388067d42283f5e6d5a3b741da7ba8bd274bdc88600458868db4022e760001b6149f0565b612ed57f44b43a1eae9102141fb2d1cb6cb3201fbcc4f4322a6d76c618907c017a0fa5f760001b6149f0565b612edd615c35565b73ffffffffffffffffffffffffffffffffffffffff165a612efc618139565b73ffffffffffffffffffffffffffffffffffffffff161480612f32575060c9600090612f26618071565b906101000a900460ff16155b80612f4a5750612f495a612f44618139565b614cae565b5b612fc5576040517f08c379a00000000000000000000000000000000000000000000000000000000081526004018080602001828103825260148152602001807f6f6e6c79206d656d6265727320616c6c6f77656400000000000000000000000081525060200191505060405180910390612fc2618003565b50505b612ff17f116195ac1ba786287e5a790242b504956082bb2f806e7777c8300bb0ebcef5e260001b6149f0565b61301d7fe5d254871adb577b94b4c961fa730238fe2eff25f72f23f0c4b7f9b3b733bed660001b6149f0565b6130497fde56ad99d2eff1666d155c1c3f1772e7a6bf688e58afc939ae8ff5aa2b9c936560001b6149f0565b6130757fc51c277ff1b10eadc9186472fd27f7f5accac9f1b35be8606539a643d018191c60001b6149f0565b6130a17f9bfc62ae1c1c9ae9431017046d6345f1d363c19747df4ea626daa96700a87ea760001b6149f0565b6130cd7f93a8854715e5646c977f15582ba6f759cf11a6ec02a0329892ef8984a2b6653160001b6149f0565b60ce6000906130da618071565b906101000a900473ffffffffffffffffffffffffffffffffffffffff1673ffffffffffffffffffffffffffffffffffffffff1663bdbef07d846040518263ffffffff1660e01b8152600401808273ffffffffffffffffffffffffffffffffffffffff16815260200191505060206040518083038186806131586181f3565b15801561316d5760008061316a618003565b50505b505a613177618256565b5050505050158015613196573d6000803e3d6000613193618003565b50505b505050506040513d60208110156131b5576000806131b2618003565b50505b8101908080519060200190929190505050613241576040517f08c379a00000000000000000000000000000000000000000000000000000000081526004018080602001828103825260158152602001807f696e76616c6964206465706f73697420617373657400000000000000000000008152506020019150506040518091039061323e618003565b50505b61326d7f294ddeab09a3bf7f95e3fc8965bfad5efea9085d6d68baee1be3f07db184879160001b6149f0565b6132997fdc89eaeb5334985ad9c33f3bf3b8de1f6f8ecab476059583d988e8ec703a105960001b6149f0565b6132c57fa04112c7010d1533dd5bf3ac92defe2c5a0f07a5fdad6724033e0127d2de765260001b6149f0565b5a6132ce618196565b60cd60005a6132db618139565b73ffffffffffffffffffffffffffffffffffffffff1673ffffffffffffffffffffffffffffffffffffffff168152602001908152602001600020819061331f6180d4565b50505061334e7f788a3647863582b48b29587650c7ea5c491458d9b9528db0f0bfc5f185fa8f5060001b6149f0565b61337a7fca4d179b88f62a232bd65b298ebb552eafa9d66725dd9cc4e8bfdb662365f80d60001b6149f0565b613382616158565b6133ae7f85df624526cd1292c00b67da238c628c38677ba4a1a852b45d36a01e9d09032c60001b6149f0565b6133da7fcac576151ec0597929cec8fedc5f067c5b1864208d90e66054c81bf973887e1c60001b6149f0565b60006133e46144a2565b90506134127f04ec26ab41867c9849d6af74555041dbc33fea41de12317f4c0186ef57bf5d4760001b6149f0565b61343e7f51b4ca21dd76462e180326c47c32edebb195fd8589e1a02735ab9786b7e1834060001b6149f0565b60006134486114b2565b90506134767f9bfd823beaa1910e958e275de450c6baac933d2b8c42e3df6844d0e61739be5460001b6149f0565b6134a27fbbe67c90cede5ffa9c5649f1dfe0da669949f9907c23b8e0cad3f306e21e566c60001b6149f0565b6134ce7f8c1b5e4bdbd6b90c8efff66d03ae343beab3b74031268e8d2cc1644f17b629ea60001b6149f0565b8473ffffffffffffffffffffffffffffffffffffffff166323b872dd5a6134f3618139565b5a63996d79a5598160e01b8152602081600483336000905af158601d01573d60011458600c01573d6000803e3d621234565260ea61109c528051925060005b604081101561354c57600081830152602081019050613532565b505050876040518463ffffffff1660e01b8152600401808473ffffffffffffffffffffffffffffffffffffffff1681526020018373ffffffffffffffffffffffffffffffffffffffff1681526020018281526020019350505050602060405180830381600087806135bb6181f3565b1580156135d0576000806135cd618003565b50505b505a6135da618356565b5050505050501580156135fa573d6000803e3d60006135f7618003565b50505b505050506040513d602081101561361957600080613616618003565b50505b81019080805190602001909291905050506136a5576040517f08c379a00000000000000000000000000000000000000000000000000000000081526004018080602001828103825260158152602001807f746f6b656e207472616e73666572206661696c65640000000000000000000000815250602001915050604051809103906136a2618003565b50505b6136d17fe1310d8182ef42cb36953f0f26124aadec66721b400a8660a07391174a7e572860001b6149f0565b6136fd7f4ea11f2b24e9c5471d79d89e788b597a22904dd0095ec346c67abdbc2871a87460001b6149f0565b6137297fa36cbbbe9376df97ac689aa6ca3cecb3abf6e57ee6a4b397ad78f1ed833f53f060001b6149f0565b600060ce600090613738618071565b906101000a900473ffffffffffffffffffffffffffffffffffffffff1673ffffffffffffffffffffffffffffffffffffffff166329c07fba87876040518363ffffffff1660e01b8152600401808373ffffffffffffffffffffffffffffffffffffffff1681526020018281526020019250505060206040518083038186806137be6181f3565b1580156137d3576000806137d0618003565b50505b505a6137dd618256565b50505050501580156137fc573d6000803e3d60006137f9618003565b50505b505050506040513d602081101561381b57600080613818618003565b50505b8101908080519060200190929190505050905061385a7f66b6d70ed447ecfe45c4b86e7c4d05053c7123be8c443c7be26658f0803f8a7260001b6149f0565b6138867f13cf87b77871a35ff70b147b17f86d71b1afa6d2a73dd6fa509b2690b95d0f0060001b6149f0565b60006138b47f37f2062855b6af16e04d8a9792df507a25be3467d7b0d2f837e3a8ec5db997a160001b6149f0565b6138e07f3f6ee8986e5d5f38064e9eb159ca0280788fd066463458e96c49171ee83324fb60001b6149f0565b6000831115613999576139157fe87d14bc357c8dc4a7b7b251491885e214ea4a0c8f656013c7660d9b177202d260001b6149f0565b6139417fac49653103ee178e89eb227affe2d7836545e89e02e59d9a94b56e32d09717dc60001b6149f0565b61396d7f03494f682ab73d31659901864d17c4ee07397c8cc421912e21337cdb94ee32a860001b6149f0565b613992846139848585616df490919063ffffffff16565b616e8390919063ffffffff16565b9050613a21565b6139c57fcbd9101cfcaaaa253ca60dc594e716fb508ee05d6df44b49f469c87c1537827e60001b6149f0565b6139f17fc9dad58f81f7861366e1409c8ee2b2e21cbf947777457675a0d0006aeb5d2bfe60001b6149f0565b613a1d7fc94e62fa7c008b28d0acba5804a79f069de8812b0f8ecd1b715e48784302fa0960001b6149f0565b8190505b613a4d7fb8a5a7c832a302d2a061ffedcb9b0035cb1697f1696b90d57302e08b503f230560001b6149f0565b613a797f8e99a6407a493414a13599e227316a000367940a515597853ff5a9f26e75d15b60001b6149f0565b613a8b5a613a85618139565b8261714d565b613ab77f1970a9914451bcbac59a2f527de8f91e91a587b0e96321b464010540bea5f73a60001b6149f0565b613ae37f91d3849aedf880b1b04464c3b424951fff0a6fa0c6879a4841a360c237c16e4160001b6149f0565b7f87fdcba84e083ebb8fd661bbafee3eb38764ec6f0cbeea8ed52deffa67bd45dc5a63996d79a5598160e01b8152602081600483336000905af158601d01573d60011458600c01573d6000803e3d621234565260ea61109c528051925060005b6040811015613b5d57600081830152602081019050613b43565b5050505a613b69618139565b8484613b7c5a613b77618139565b613c9c565b613b8f888b6170bc90919063ffffffff16565b613ba2888b6170bc90919063ffffffff16565b5a613bab618196565b604051808973ffffffffffffffffffffffffffffffffffffffff1681526020018873ffffffffffffffffffffffffffffffffffffffff1681526020018781526020018681526020018581526020018481526020018381526020018281526020019850505050505050505060405180910390a1613c497f3099e70e547a28f4b7eeb627f3637dc43323831d842b3913a8c47de55ab73f6160001b6149f0565b613c757f24ddb649fd1400560cd19ff71036bdebb1ad6a47309d0edfc2b9b60b0b58487960001b6149f0565b8094505050505092915050565b60c9600090613c8f618071565b906101000a900460ff1681565b6000606560008373ffffffffffffffffffffffffffffffffffffffff1673ffffffffffffffffffffffffffffffffffffffff168152602001908152602001600020613ce5618071565b9050919050565b6000613d1a7f7b8620c6a18738a3b6ccda826b6bd0fca82741ff5c48757a7dc56ee9ee6a862c60001b6149f0565b613d467fefa065ba0248672b80fe00ae0b21f9df6274aac4b45329e6020c00c65cfa97a960001b6149f0565b613d727fd7c2e86fd0b5c1e9ff55b0cdfe231cbbe81b5f3ba5b43a4d2e24543c42da470360001b6149f0565b600060cb600090613d81618071565b906101000a900473ffffffffffffffffffffffffffffffffffffffff1673ffffffffffffffffffffffffffffffffffffffff16631d68702d6040518163ffffffff1660e01b81526004016020604051808303818680613dde6181f3565b158015613df357600080613df0618003565b50505b505a613dfd618256565b5050505050158015613e1c573d6000803e3d6000613e19618003565b50505b505050506040513d6020811015613e3b57600080613e38618003565b50505b81019080805190602001909291905050509050613e7a7f2be044e580ac4c0fb743c64146f8e6d28800bff7d0fd10f07e5452a28c881b0560001b6149f0565b613ea67f5c1a5d27c2f5e8c1333e1436badb6ffc90fba85b6739d625ee9008b4286095e560001b6149f0565b613ed27f919eb257c672fa2a849f4a73b57121f275ae26b2f01112cfb2f809b7bb37501e60001b6149f0565b8073ffffffffffffffffffffffffffffffffffffffff165a613ef2618139565b73ffffffffffffffffffffffffffffffffffffffff1614613f84576040517f08c379a00000000000000000000000000000000000000000000000000000000081526004018080602001828103825260188152602001807f6f6e6c792044414f206164647265737320616c6c6f776564000000000000000081525060200191505060405180910390613f81618003565b50505b613fb07f3fb233fcc015545cf2cbc8d07a7ec944024168691d159c49475d27462c6da8a160001b6149f0565b613fdc7ffe1cb148f452c94586bb502345831a9cd5ae7a8abd6d487a92e60e4c11d74f9660001b6149f0565b6140087fbc7c247261cd4067c591f79d61790574e7ea6373d9a816d1bd44baf90332646f60001b6149f0565b8260ce60006101000a8161401a618071565b8173ffffffffffffffffffffffffffffffffffffffff021916908373ffffffffffffffffffffffffffffffffffffffff160217906140566180d4565b5050506140857f627c2afa5651d3884099427f0f128ef6170895da769d8b1468d2249e11f0a36c60001b6149f0565b6140b17f5206092bf8d0c3f1f871b5dd47ea423873be6504efbde2c10aeab45fa91a5e9360001b6149f0565b7f63fb64c359a4cae97e1bf003c1ab11390b5f0e18cc5b3d67b90bd61c0f5c52fd835a6140dc618139565b604051808373ffffffffffffffffffffffffffffffffffffffff1681526020018273ffffffffffffffffffffffffffffffffffffffff1681526020019250505060405180910390a16141507fbbf01a5ad846d47d9fa185aa08fc9e03f25011f3d2f53a597322b0e6c63a1cc760001b6149f0565b61417c7f625ebe340b4e61a956f9e6d7517d7ad88cf6325dc9a087daf8150b6625b780ff60001b6149f0565b6001915050919050565b60cc614190618071565b81565b60006141c17f6a32e33267a8e59d9ca29244a290caaf07f574139ea8b62bacfc87aa6ebfec0b60001b6149f0565b6141ed7f6feab975e18e29bbe92620cf6b98a262b6cfcc0861968ee357a5874d845a035260001b6149f0565b6142197f407b570b0528975ae8883d6cfe9548cf47ae70d47b17870d966fa089137f5ccd60001b6149f0565b60006142236144a2565b90506142517f87ceff11f5710549f27f4b0bb9e6a9f009f10bb95ec2e3d9cd0955882cb0921f60001b6149f0565b61427d7f1352c009d6d048fd570374f810806bf4b21c4454973e2d5967417be3aa0da4e060001b6149f0565b60006142876114b2565b90506142b57f9f265addd7bf458e0893b97a6f30675c3587d2799e68248d1942210a18a15b5960001b6149f0565b6142e17f92147203385aa386c44a967f667c4495f7dd72e7c99892431d3185f9077e4ec360001b6149f0565b6142eb828261733f565b9250505090565b60606069806142ff618071565b600181600116156101000203166002900480601f0160208091040260200160405190810160405280929190818152602001828061433a618071565b600181600116156101000203166002900480156143a65780601f10614374576101008083614366618071565b0402835291602001916143a6565b820191906000526020600020905b8161438b618071565b8152906001019060200180831161438257829003601f168201915b5050505050905090565b600061447a6143bd6155a4565b846144758560405180606001604052806025815260200161868d60259139606660006143e76155a4565b73ffffffffffffffffffffffffffffffffffffffff1673ffffffffffffffffffffffffffffffffffffffff16815260200190815260200160002060008a73ffffffffffffffffffffffffffffffffffffffff1673ffffffffffffffffffffffffffffffffffffffff168152602001908152602001600020614466618071565b61608f9092919063ffffffff16565b6155b4565b6001905092915050565b60006144986144916155a4565b8484615d98565b6001905092915050565b60006144d07f55129d50b4fdca3815515533df618dfeebbd7640fb21cb36c7a516562576833260001b6149f0565b6144fc7f69887b477d5993b8b537b52960f6d8b3556ae020cd4163efa776ef09a5e208f060001b6149f0565b6145287f18dc92e5d53e1ee490a9bf8afdee578a88badc42cd7c6ddd0c9095144775ffd760001b6149f0565b60006145567f2a00a07719ab242765920e4c3ad8cec482cf9014437bd6a339a0a6f9d683b2ac60001b6149f0565b6145827fd19b5f934799ea157b4b34e5d1c9cb991eb06812165aaf8d0ca40f092e900d6d60001b6149f0565b600060ce600090614591618071565b906101000a900473ffffffffffffffffffffffffffffffffffffffff1690506145dc7fc51f1c36cda211788dce92cca05d758e023ed2656b5fb9f977d8bfe25e9ee4b960001b6149f0565b6146087f55a38f20f034cb419ada82552700799a76d6b94b8c54c36f0971099f9a84410460001b6149f0565b60608173ffffffffffffffffffffffffffffffffffffffff1663e5406dbf6040518163ffffffff1660e01b8152600401600060405180830381868061464b6181f3565b1580156146605760008061465d618003565b50505b505a61466a618256565b5050505050158015614689573d6000803e3d6000614686618003565b50505b505050506040513d6000823e3d601f19601f8201168201806040525060208110156146bc576000806146b9618003565b50505b81019080805160405193929190846401000000008211156146e5576000806146e2618003565b50505b8382019150602082018581111561470457600080614701618003565b50505b825186602082028301116401000000008211171561472a57600080614727618003565b50505b8083526020830192505050908051906020019060200280838360005b83811015614761578082015181840152602081019050614746565b50505050905001604052505050905061479c7f9b15a044bb809a3c587e2b77e7ce3210d777e21371487f9b9ec3c3727b7aa7d360001b6149f0565b6147c87fd93515d4d85e4b411f950fd2dfaf071e6ccd05868946451a34742a3c1118fc3460001b6149f0565b6000815190506147fa7f075c097f7968fad53efa26589a95efba3e88594759a02dba1a48b61aa09e4bd360001b6149f0565b6148267fce32d5307a16e12d5ae898e7ab08a3233f1c70e140b9718b01aedb0c19955faf60001b6149f0565b60005b8181101561498d5761485d7fb3ad77a0a0c46ad2f29611e7d5105d4c7a485db11579260a9042feaf70410c0260001b6149f0565b6148897f6616fa57ea984d43c9a7544f675c90ceb0f41299160cd213b73c929e793b9c5c60001b6149f0565b61497e8473ffffffffffffffffffffffffffffffffffffffff1663d8af8ed48584815181106148b457fe5b60200260200101516040518263ffffffff1660e01b8152600401808273ffffffffffffffffffffffffffffffffffffffff16815260200191505060206040518083038186806149016181f3565b15801561491657600080614913618003565b50505b505a614920618256565b505050505015801561493f573d6000803e3d600061493c618003565b50505b505050506040513d602081101561495e5760008061495b618003565b50505b8101908080519060200190929190505050866170bc90919063ffffffff16565b94508080600101915050614829565b506149ba7f0398fa2d74ffb6440216cc305a38e13e2b7106ce3645ed27dc490811cf4e2c7f60001b6149f0565b6149e67f607ab3db7f318b22a4d6e7ccf132852354c883d74d391d7d19e3379a987790a760001b6149f0565b8394505050505090565b50565b6000614a217ff80a324815165f52420a62c52c2f597e69dd6ee3204c9a175a2ee1875168095460001b6149f0565b614a4d7fc3471ed1a174a3f62f507e9637ec75a2d7f3a2e92d53928a998ed4288b97921860001b6149f0565b614a797fe17e0f3fa02c05ef5d12ed0f92352776f2566804d6591561e65721ed9ede592460001b6149f0565b6000614a83612cc0565b9050614ab17f77859f4f2eaefb514ad7d360a87d34a46a041bfc2c7fc0993e4468c5eeffbc3160001b6149f0565b614add7f745ace821c389cd022651e0e32225f482b8120e914dee16fbc24f2685255121160001b6149f0565b6000614b388260cd60008773ffffffffffffffffffffffffffffffffffffffff1673ffffffffffffffffffffffffffffffffffffffff168152602001908152602001600020614b2a618071565b6170bc90919063ffffffff16565b9050614b667fa613d07294d22a445d2f797880bd71a5a3097e7802365d4d5a6b5ecc402dbf6b60001b6149f0565b614b927f60a0f437e05b9b4dad56f79c29e772ee4ac2cab81e5964e6b06101daeca7176360001b6149f0565b5a614b9b618196565b811015614c0557614bce7f9b42805ca56debb137da293f92de44cbbccb8c9f2d053b639ead783b2cc7149a60001b6149f0565b614bfa7f424976dc2364712a84460e4278dd7e0004eed2113a78b13cfe2155cd0775847360001b6149f0565b600092505050614ca9565b614c317f845b2284c94c9300e0b2edc7222e451ff57f0988c193141bf5c1299cc98b628760001b6149f0565b614c5d7f60a7a6930f1b137137fc43afedf43b5e52278060b4ca63efd8c42d2c96a7b48460001b6149f0565b614c897f6f992f60d8bb70a4891d6d93c7b261035d759cea028c48085ed402189c5cd47060001b6149f0565b614ca45a614c95618196565b826174f490919063ffffffff16565b925050505b919050565b6000614cdc7fe738393d6857e848ca4fba1f87368f8070d1cf4315d85d842595b70aeb4d066860001b6149f0565b614d087fe2c2824fd7b2a3bad9ad6229c748a5b6515cdb52a1ca2fe45429455b06f44a6760001b6149f0565b614d347f41ee113cbb32f32eb7bb60232ecf1231d6330f77b9f524b72ec41ee2d97518d060001b6149f0565b60ce600090614d41618071565b906101000a900473ffffffffffffffffffffffffffffffffffffffff1673ffffffffffffffffffffffffffffffffffffffff1663bbbf725b836040518263ffffffff1660e01b8152600401808273ffffffffffffffffffffffffffffffffffffffff1681526020019150506020604051808303818680614dbf6181f3565b158015614dd457600080614dd1618003565b50505b505a614dde618256565b5050505050158015614dfd573d6000803e3d6000614dfa618003565b50505b505050506040513d6020811015614e1c57600080614e19618003565b50505b81019080805190602001909291905050509050919050565b60cb600090614e41618071565b906101000a900473ffffffffffffffffffffffffffffffffffffffff1681565b614e8d7f36b141884a256889497bc371ca0891eb9ca261269012cd9da686d35c0c4e76ab60001b6149f0565b614eb97f06a51360aef124c7e7764c9a52db46c6a1948f034ac5ada28010d1cfe061421960001b6149f0565b614ee57fcfe01fef0f2a4d702611ba4eaf3bfed741d7425403b237059447e2955a6ee94d60001b6149f0565b614eed616158565b565b60ca614ef9618071565b81565b6000606660008473ffffffffffffffffffffffffffffffffffffffff1673ffffffffffffffffffffffffffffffffffffffff16815260200190815260200160002060008373ffffffffffffffffffffffffffffffffffffffff1673ffffffffffffffffffffffffffffffffffffffff168152602001908152602001600020614f82618071565b905092915050565b6000614fb87fae00ed73f7a84bace3bda8fd1cbffafdfdda382b4ff2032ee8d47d82cd1a187a60001b6149f0565b614fe47ff95e355d258861fbc5337f012c9ca9d7d037252fb709b8404f4bfd03cf317f1e60001b6149f0565b6150107fefb24e07aa0030e19d2344389f70f1f4ffbbfba9a06e7a5faea8f8d1aa853a3560001b6149f0565b600061501a6144a2565b90506150487fb99d33a9349a3c30d9d9f9040172f980ab514e0bd77b87985d29e6e7af99b2bc60001b6149f0565b6150747ff27fa59fb0d0896a676785f3a7e9b882f8cd86d4aa0d5f7c0331bf0aa28bfee560001b6149f0565b600061507e6114b2565b90506150ac7fe73311117ccb86ac8c7dc1e50fb61f1d72aef9d0e06236424a82c8b4a5729dc360001b6149f0565b6150d87f5d1409b7b0a6c3f6af08cc17f53d54d635400f4f3c8c12a0b5abb9c986b1373160001b6149f0565b60006151067f6990badef998a0cd0a4789221df0e521d304f6d048206925a4d0698f16b1bea460001b6149f0565b6151327fc380f29b4f9ae92c0db0a6d8c64a706fb66d9ead69af04c19027265467b40ef560001b6149f0565b60006151607fe38691afdc6ca24689c68ad66f046ad60782fd671dc5dea5e029bf02266f46d660001b6149f0565b61518c7f5215dee00f38f312f8a0f462fc832f98bedfe764a92a506242af977fff67ea0360001b6149f0565b60cb600090615199618071565b906101000a900473ffffffffffffffffffffffffffffffffffffffff1673ffffffffffffffffffffffffffffffffffffffff1663b7a545265a63996d79a5598160e01b8152602081600483336000905af158601d01573d60011458600c01573d6000803e3d621234565260ea61109c528051925060005b604081101561522a57600081830152602081019050615210565b5050506040518263ffffffff1660e01b8152600401808273ffffffffffffffffffffffffffffffffffffffff168152602001915050604080518083038186806152716181f3565b15801561528657600080615283618003565b50505b505a615290618256565b50505050501580156152af573d6000803e3d60006152ac618003565b50505b505050506040513d60408110156152ce576000806152cb618003565b50505b810190808051906020019092919080519060200190929190505050809250819350505061531d7fbf8e98b629d02d67d94bd46b7224e51a417a56c9cc62e4105757cfa13b7cf7d860001b6149f0565b6153497f32e6d90ab7fb9138e4196d40cb917f56842ce598be8f2297ab762f6078b0aa0b60001b6149f0565b61535f848460cc615358618071565b858561753e565b94505050505090565b60606153967f4b2d47beb339fe51c9feefc8a308cb14458590f90ad84ab98520fbac46c3c20860001b6149f0565b6153c27fc330c7e6e9c1f8c26c6a4837bef4461b299e0880de1366bb5ca81e79057bb7cb60001b6149f0565b6153ee7f4a0029b116999aa57c6e83d101076c96cec44e4e3e1d351d674eb2a92bef919360001b6149f0565b60ce6000906153fb618071565b906101000a900473ffffffffffffffffffffffffffffffffffffffff1673ffffffffffffffffffffffffffffffffffffffff1663fed4416a6040518163ffffffff1660e01b815260040160006040518083038186806154586181f3565b15801561546d5760008061546a618003565b50505b505a615477618256565b5050505050158015615496573d6000803e3d6000615493618003565b50505b505050506040513d6000823e3d601f19601f8201168201806040525060208110156154c9576000806154c6618003565b50505b81019080805160405193929190846401000000008211156154f2576000806154ef618003565b50505b838201915060208201858111156155115760008061550e618003565b50505b825186600182028301116401000000008211171561553757600080615534618003565b50505b8083526020830192505050908051906020019080838360005b8381101561556b578082015181840152602081019050615550565b50505050905090810190601f1680156155985780820380516001836020036101000a031916815260200191505b50604052505050905090565b60005a6155af618139565b905090565b600073ffffffffffffffffffffffffffffffffffffffff168373ffffffffffffffffffffffffffffffffffffffff161415615643576040517f08c379a00000000000000000000000000000000000000000000000000000000081526004018080602001828103825260248152602001806186696024913960400191505060405180910390615640618003565b50505b600073ffffffffffffffffffffffffffffffffffffffff168273ffffffffffffffffffffffffffffffffffffffff1614156156d2576040517f08c379a000000000000000000000000000000000000000000000000000000000815260040180806020018281038252602281526020018061856460229139604001915050604051809103906156cf618003565b50505b80606660008573ffffffffffffffffffffffffffffffffffffffff1673ffffffffffffffffffffffffffffffffffffffff16815260200190815260200160002060008473ffffffffffffffffffffffffffffffffffffffff1673ffffffffffffffffffffffffffffffffffffffff16815260200190815260200160002081906157596180d4565b5050508173ffffffffffffffffffffffffffffffffffffffff168373ffffffffffffffffffffffffffffffffffffffff167f8c5be1e5ebec7d5bd14f71427d1e84f3dd0314c0f7b2291e5b200ac8c7c3b925836040518082815260200191505060405180910390a3505050565b6000805a63996d79a5598160e01b8152602081600483336000905af158601d01573d60011458600c01573d6000803e3d621234565260ea61109c528051925060005b604081101561582257600081830152602081019050615808565b50505090506000816158326181f3565b9050600081149250505090565b600060019061584c618071565b906101000a900460ff168061586557506158646157c6565b5b806158825750600080615876618071565b906101000a900460ff16155b6158e0576040517f08c379a000000000000000000000000000000000000000000000000000000000815260040180806020018281038252602e8152602001806185f5602e9139604001915050604051809103906158dd618003565b50505b6000806001906158ee618071565b906101000a900460ff161590508015615957576001600060016101000a81615914618071565b8160ff021916908315150217906159296180d4565b50505060016000806101000a8161593e618071565b8160ff021916908315150217906159536180d4565b5050505b61595f6178f9565b6159698383617a45565b801561599a5760008060016101000a81615981618071565b8160ff021916908315150217906159966180d4565b5050505b505050565b60006001906159ac618071565b906101000a900460ff16806159c557506159c46157c6565b5b806159e257506000806159d6618071565b906101000a900460ff16155b615a40576040517f08c379a000000000000000000000000000000000000000000000000000000000815260040180806020018281038252602e8152602001806185f5602e913960400191505060405180910390615a3d618003565b50505b600080600190615a4e618071565b906101000a900460ff161590508015615ab7576001600060016101000a81615a74618071565b8160ff02191690831515021790615a896180d4565b50505060016000806101000a81615a9e618071565b8160ff02191690831515021790615ab36180d4565b5050505b615abf617bed565b8015615af05760008060016101000a81615ad7618071565b8160ff02191690831515021790615aec6180d4565b5050505b50565b615b1f7f9e519fd4da81b4fb09f76e2043ded618747c5af0d1db848c20518061e28c684460001b6149f0565b615b4b7f195f0b47a04ea6615620dcd91972f91f08f576e5e459e0e51832dcbb6fbf6d5e60001b6149f0565b615b777ff64efd2b3d5dcda16f47014c4c72074ca0aa9e965062be41a7a16759af2326ad60001b6149f0565b8060c960006101000a81615b89618071565b8160ff02191690831515021790615b9e6180d4565b505050615bcd7f04a4c10d84dd818bedb78a849324d87bcf755f906be045fe1eb1f99eedd48eaa60001b6149f0565b615bf97f38fb3f688764d133c71a41509d210b25656eba2ea438c6b8a621d2b44c73535160001b6149f0565b7f8d75e9ede4188432084b863d70b3416010c97547dfeb4fc17734d2e997ee0f398160405180821515815260200191505060405180910390a150565b6000615c637fa3debc32dea4bb8fa521c181b84fd3cafb24b24966cb9f7e46f2c29c331d12e460001b6149f0565b615c8f7f1796713ffe457cb71eb363879f4c9dfb79a47f84eb9c01c895f279ed95d4376160001b6149f0565b615cbb7f983b6be6736fd97580cbc76c72febc2768557c20d9f50df1d250139dc40b7d9660001b6149f0565b60ce600090615cc8618071565b906101000a900473ffffffffffffffffffffffffffffffffffffffff1673ffffffffffffffffffffffffffffffffffffffff1663481c6a756040518163ffffffff1660e01b81526004016020604051808303818680615d256181f3565b158015615d3a57600080615d37618003565b50505b505a615d44618256565b5050505050158015615d63573d6000803e3d6000615d60618003565b50505b505050506040513d6020811015615d8257600080615d7f618003565b50505b8101908080519060200190929190505050905090565b600073ffffffffffffffffffffffffffffffffffffffff168373ffffffffffffffffffffffffffffffffffffffff161415615e27576040517f08c379a00000000000000000000000000000000000000000000000000000000081526004018080602001828103825260258152602001806186446025913960400191505060405180910390615e24618003565b50505b600073ffffffffffffffffffffffffffffffffffffffff168273ffffffffffffffffffffffffffffffffffffffff161415615eb6576040517f08c379a000000000000000000000000000000000000000000000000000000000815260040180806020018281038252602381526020018061851f6023913960400191505060405180910390615eb3618003565b50505b615ec1838383617d64565b615f348160405180606001604052806026815260200161858660269139606560008773ffffffffffffffffffffffffffffffffffffffff1673ffffffffffffffffffffffffffffffffffffffff168152602001908152602001600020615f25618071565b61608f9092919063ffffffff16565b606560008573ffffffffffffffffffffffffffffffffffffffff1673ffffffffffffffffffffffffffffffffffffffff1681526020019081526020016000208190615f7d6180d4565b505050615fd981606560008573ffffffffffffffffffffffffffffffffffffffff1673ffffffffffffffffffffffffffffffffffffffff168152602001908152602001600020615fcb618071565b6170bc90919063ffffffff16565b606560008473ffffffffffffffffffffffffffffffffffffffff1673ffffffffffffffffffffffffffffffffffffffff16815260200190815260200160002081906160226180d4565b5050508173ffffffffffffffffffffffffffffffffffffffff168373ffffffffffffffffffffffffffffffffffffffff167fddf252ad1be2c89b69c2b068fc378daa952ba7f163c4a11628f55a4df523b3ef836040518082815260200191505060405180910390a3505050565b6000838311158290616145576040517f08c379a00000000000000000000000000000000000000000000000000000000081526004018080602001828103825283818151815260200191508051906020019080838360005b838110156161015780820151818401526020810190506160e6565b50505050905090810190601f16801561612e5780820380516001836020036101000a031916815260200191505b509250505060405180910390616142618003565b50505b5060008385039050809150509392505050565b6161847fe17e4d9e9e68ef0b4e758ea7baa0e621ead5525c2c3f6f4cbffeee7351feee9960001b6149f0565b6161b07f041bc95de6ee4eac0e84ed21f295c5a08db331299a242264ec20e1c861546f2f60001b6149f0565b6161dc7f585c1f15bbc7bf57517cd5a32d4decc71e66da5beceea22f713b49b19093f42c60001b6149f0565b60006161e66144a2565b90506162147fdd608e0eccefb0d13b7f8be61260b4d6e96b384763cdfd8b941a03994a324f5d60001b6149f0565b6162407fd999019f4e76aafad1a4a019c914f80516f08224bf97dc9a0487a624e2ebb5d360001b6149f0565b600061624a6114b2565b90506162787f088376e9ece7695da0387a5c00a1ec787d7da0b64b3496a7db9623e11c05f0c360001b6149f0565b6162a47fe19e97cd867ee63ce42e5e6fca7f903f588531d777ad6a3b4838498dde05fc0f60001b6149f0565b60006162d27f84d1c1a9e401bc40cfbec5e23194cac6b039f69e84458ce8b313218d361f1f6360001b6149f0565b6162fe7f101e2e602e1eab0a86ddf4e9309067de959650d49b16cc10c5cf2dc986b1936860001b6149f0565b600061632c7f643a2aa625c25493aef5c5f4f0ea1a41f1cb4d66ca75b9bc3fe89acf5438eb5660001b6149f0565b6163587f92ed517ba1c07eef6076928d9dc1fcd37d131bb0a44efb842476e670894f06f860001b6149f0565b60cb600090616365618071565b906101000a900473ffffffffffffffffffffffffffffffffffffffff1673ffffffffffffffffffffffffffffffffffffffff1663b7a545265a63996d79a5598160e01b8152602081600483336000905af158601d01573d60011458600c01573d6000803e3d621234565260ea61109c528051925060005b60408110156163f6576000818301526020810190506163dc565b5050506040518263ffffffff1660e01b8152600401808273ffffffffffffffffffffffffffffffffffffffff1681526020019150506040805180830381868061643d6181f3565b1580156164525760008061644f618003565b50505b505a61645c618256565b505050505015801561647b573d6000803e3d6000616478618003565b50505b505050506040513d604081101561649a57600080616497618003565b50505b81019080805190602001909291908051906020019092919050505080925081935050506164e97f4784fbc32a649f048b2630df197608a15705a6b1f4fc990c00ace2d3736d043d60001b6149f0565b6165157f1a9ba3187309e3b1d21de99c1703bf9e7abae6308c35b7cb21bf51f370ed461f60001b6149f0565b600061652d858560cc616526618071565b868661753e565b905061655b7f587ddc245dfbfac57e8caff68a50657e8b121f58dbb591191216d905e5d8bed960001b6149f0565b6165877ff9b1543b3767f8049071afea6fa6e4c5b8ed6bc936a156180de27f527261bd1a60001b6149f0565b60648110156165f2576165bc7fcf06f3c18b419d1858cb89272fcf143772e3d72e7034d2ed721b5ca425d80aa760001b6149f0565b6165e87f6b1c85b90a7d0e783b7671cfdb1b00969f90a4d0b48a9515edcf2efc97b2876060001b6149f0565b5050505050616df2565b61661e7f7c0988967a751d220f7c6e7f7c69264f31d5cbcdb8c7708b757012a62327615c60001b6149f0565b61664a7f93e0ffdac51820f4873fb766b68c2fb6d2c5805fac26d734c72c8677008c59aa60001b6149f0565b6166767ff380aa281a56cf53b988dfab3887d21aeea6c0de0f9b3fe473db050ce69dde8160001b6149f0565b600060cb600090616685618071565b906101000a900473ffffffffffffffffffffffffffffffffffffffff1673ffffffffffffffffffffffffffffffffffffffff16631d68702d6040518163ffffffff1660e01b815260040160206040518083038186806166e26181f3565b1580156166f7576000806166f4618003565b50505b505a616701618256565b5050505050158015616720573d6000803e3d600061671d618003565b50505b505050506040513d602081101561673f5760008061673c618003565b50505b8101908080519060200190929190505050905061677e7f79546b5a195050ee25aa4c9e612fa294d4e02f722b558831689a1d4c0795134b60001b6149f0565b6167aa7f67fd2a864a0b811b6dc98afce22bcd4c1fad5ae016e5a4fd2d9a98e0d882b8cc60001b6149f0565b60006167d87f95b05cd51f95b3aa1d3ba71a2eba30f9ae2270f893b4e18facce727a070f82d060001b6149f0565b6168047fa5d1e4d4f3821699f546def80ae573f071ee4034397f6032a16b49997cc3bb5e60001b6149f0565b60006168327fecab531f92c182aefd3ede1001920bbae79a8c7c35c0c0af487d2c168e0841ba60001b6149f0565b61685e7f36e98820ef9977780ad680898933519a755e129fbe3ff58ba8735759e080aaa560001b6149f0565b60cb60009061686b618071565b906101000a900473ffffffffffffffffffffffffffffffffffffffff1673ffffffffffffffffffffffffffffffffffffffff16639cada6e46040518163ffffffff1660e01b8152600401604080518083038186806168c76181f3565b1580156168dc576000806168d9618003565b50505b505a6168e6618256565b5050505050158015616905573d6000803e3d6000616902618003565b50505b505050506040513d604081101561692457600080616921618003565b50505b81019080805190602001909291908051906020019092919050505080925081935050506169737f4b094a10cf5839bc4252490911d761c492c4bd318b8234940b6451bed0b3752460001b6149f0565b61699f7f7686e762b066d01cae60392f8d436e203b6abf36bc30abe38c05abfc179a81a160001b6149f0565b60006169c6826169b88588616df490919063ffffffff16565b616e8390919063ffffffff16565b90506169f47f34250afcd2bde31a53cbd5765865d83895ed94fa6e46230a4d66231b416778dc60001b6149f0565b616a207f4d7ce71389557989b66e1b63af22068621f3e15c19da5b15e56a6db5f4242d7860001b6149f0565b6000616a3582876174f490919063ffffffff16565b9050616a637fe70658254f17aa54ea683bc9e7ee907c7d8837d4fe2d898b52bf2b98cb82712c60001b6149f0565b616a8f7fd5d5627dfe2952fc7f1284fae88a14492aa8161e46c2c36ddf728fdd543818f060001b6149f0565b6000821115616aff57616ac47feb46fa986db157eb0ef2d80e80f3cab1c374a2fce1727d1b1a51a33cac46da9b60001b6149f0565b616af07f64bf9325b1f4bae17e1f6f420f31fe7bdc38ee4249ccd6bab3f25d309d126ff160001b6149f0565b616afa858361714d565b616b2c565b616b2b7fbe0bbd45779d9c289770120a31e002f19bf2bf1c25335e0d50f8d47d75efecb760001b6149f0565b5b616b587f21746e5e0efcb1c93efb7c0de601e67df87b35139e074e4fb6cfcfa2a65b5f8060001b6149f0565b616b847f6eec75d9b79c942f3d0b04eaddd63b0a26cb214c21fe935602c28f8c9f7e1ceb60001b6149f0565b6000811115616bfb57616bb97f4fc555a3145832dd8996b3c308fc131fb4b738f11fe8026d82770f5eb622eb1660001b6149f0565b616be57f5fd90e443f2ab23a94578430980e0ac3ccd7d337b2a19f49c11b4064c622736c60001b6149f0565b616bf6616bf0615c35565b8261714d565b616c28565b616c277f27a83275ac26d47e739ded9bfd8b2020a03eae107b24cf12a5d6e0afbd1dc62b60001b6149f0565b5b616c547fcdc0dc35b449d9063de7799919de443169d8dde7cdd3a77d62b6f8cb759da7c760001b6149f0565b616c807f7e354edf9e94d7d3fbcfa4ff6d609f66fd56a3ded65d4cb4749c31b1daad7b8860001b6149f0565b616c8a8a8a61733f565b60cc8190616c966180d4565b505050616cc57f07020aa713582cae0b27b6c3f2a45c8f1ab6fc51d9b1401703b8996827cdfa1e60001b6149f0565b616cf17fcd84013bacc0edcdd5ee3752c2da749263058b8a8b1525417c33aec7d13709cd60001b6149f0565b7f755a8059d66d8d243bc9f6913f429a811f154599d0538bb0b6a2ac23f23d2ccd5a63996d79a5598160e01b8152602081600483336000905af158601d01573d60011458600c01573d6000803e3d621234565260ea61109c528051925060005b6040811015616d6b57600081830152602081019050616d51565b505050616d76615c35565b88858560cc616d83618071565b604051808773ffffffffffffffffffffffffffffffffffffffff1681526020018673ffffffffffffffffffffffffffffffffffffffff168152602001858152602001848152602001838152602001828152602001965050505050505060405180910390a1505050505050505050505b565b600080831415616e075760009050616e7d565b6000828402905082848281616e1857fe5b0414616e78576040517f08c379a00000000000000000000000000000000000000000000000000000000081526004018080602001828103825260218152602001806185ac6021913960400191505060405180910390616e75618003565b50505b809150505b92915050565b6000616ec583836040518060400160405280601a81526020017f536166654d6174683a206469766973696f6e206279207a65726f000000000000815250617f2f565b905092915050565b600073ffffffffffffffffffffffffffffffffffffffff168273ffffffffffffffffffffffffffffffffffffffff161415616f5c576040517f08c379a00000000000000000000000000000000000000000000000000000000081526004018080602001828103825260218152602001806186236021913960400191505060405180910390616f59618003565b50505b616f6882600083617d64565b616fdb8160405180606001604052806022815260200161854260229139606560008673ffffffffffffffffffffffffffffffffffffffff1673ffffffffffffffffffffffffffffffffffffffff168152602001908152602001600020616fcc618071565b61608f9092919063ffffffff16565b606560008473ffffffffffffffffffffffffffffffffffffffff1673ffffffffffffffffffffffffffffffffffffffff16815260200190815260200160002081906170246180d4565b505050617043816067617035618071565b6174f490919063ffffffff16565b6067819061704f6180d4565b505050600073ffffffffffffffffffffffffffffffffffffffff168273ffffffffffffffffffffffffffffffffffffffff167fddf252ad1be2c89b69c2b068fc378daa952ba7f163c4a11628f55a4df523b3ef836040518082815260200191505060405180910390a35050565b600080828401905083811015617143576040517f08c379a000000000000000000000000000000000000000000000000000000000815260040180806020018281038252601b8152602001807f536166654d6174683a206164646974696f6e206f766572666c6f77000000000081525060200191505060405180910390617140618003565b50505b8091505092915050565b600073ffffffffffffffffffffffffffffffffffffffff168273ffffffffffffffffffffffffffffffffffffffff1614156171f9576040517f08c379a000000000000000000000000000000000000000000000000000000000815260040180806020018281038252601f8152602001807f45524332303a206d696e7420746f20746865207a65726f206164647265737300815250602001915050604051809103906171f6618003565b50505b61720560008383617d64565b617221816067617213618071565b6170bc90919063ffffffff16565b6067819061722d6180d4565b50505061728981606560008573ffffffffffffffffffffffffffffffffffffffff1673ffffffffffffffffffffffffffffffffffffffff16815260200190815260200160002061727b618071565b6170bc90919063ffffffff16565b606560008473ffffffffffffffffffffffffffffffffffffffff1673ffffffffffffffffffffffffffffffffffffffff16815260200190815260200160002081906172d26180d4565b5050508173ffffffffffffffffffffffffffffffffffffffff16600073ffffffffffffffffffffffffffffffffffffffff167fddf252ad1be2c89b69c2b068fc378daa952ba7f163c4a11628f55a4df523b3ef836040518082815260200191505060405180910390a35050565b600061736d7f0f69b73e7ae8fabdacb8138f276af2cec4c9543312325a9a2b151b6d362666ca60001b6149f0565b6173997ffdbb5462412501a28d743ef8758a77d82e8758c7d7a9bb1949d269e4ceb4706e60001b6149f0565b6173c57fa9d1c4542173470a6a3199318ef85342ec05bea036cd4196563e203f64ef490f60001b6149f0565b60008214806173d45750600083145b1561743a576174057f33135c0ff5125eb919ecaa5c4737b6d3b84319ab1fe9f57ecc3e8c27ed4ae40c60001b6149f0565b6174317f0a50f8e023a3619569c929ecb7a53d72e27af20346a87340989e6cd56b73444d60001b6149f0565b600090506174ee565b6174667fc3067410ef2d5302fc5d25f699bccec4b660d9bd2f7755ecfa7afb8502dd2ec660001b6149f0565b6174927f21058561f4e82f9db29fd9a74aec5b91c6f00b9615e52782bf6d68ef925702d460001b6149f0565b6174be7fe368203ac3190dec7aaff6d7e2dafda75893b32e0f768d66935a68456d9c215b60001b6149f0565b6174eb826174dd670de0b6b3a764000086616df490919063ffffffff16565b616e8390919063ffffffff16565b90505b92915050565b600061753683836040518060400160405280601e81526020017f536166654d6174683a207375627472616374696f6e206f766572666c6f77000081525061608f565b905092915050565b600061756c7ffbec90e3044034dde12940156712f2bbf2604b1deec23fe84a95d14f044037d960001b6149f0565b6175987f3c5983583e862154902346c68c2948dc976225e1f6411c7e6b9102e5133636fe60001b6149f0565b6175c47f51ec5fa497e384ed0a1a228249a761c3393fa72e01196fb1a26d74ec6945192a60001b6149f0565b60008514806175d35750600086145b15617639576176047f661c0e99ee7d5164d7da356d3d70a921fa39664c2db8712c86f29b746f76d31c60001b6149f0565b6176307fe06d8fe0c96cc768a0dffdfeea5eea1539bf3c7656ca9aa53e950ded4e37d9dd60001b6149f0565b600090506178f0565b6176657f4d4e6a9f4c02bb42a6402615723d3cabb7c0310ccbb066d9c3bcac5bbb6cecb860001b6149f0565b6176917f57cbcaa36bdb78597187fbde2f4d5e5fe7d6ea52310557c6e8a4cc36becd72a360001b6149f0565b6176bd7f7dae42c543c4fe6e8b89e9a7b9254a6a9c5e05984ba5cbf58a7155d23a0a348960001b6149f0565b60006176ec866176de670de0b6b3a76400008a616df490919063ffffffff16565b616e8390919063ffffffff16565b905061771a7f1db2ef916d50c675b73b28d0f19eb757f6fc6e2d95085d252246eacc4892b05060001b6149f0565b6177467f800351e705841033161dffa1281f39308842587ce73102499ec17e7d35a5eec260001b6149f0565b8481116177af576177797f09a51ea4646f031265b1484bb9cd535f5b23aea0a7ade5bef2c7f09e74cde4ad60001b6149f0565b6177a57fbce840b8a6329164233620d490683e24942b5caefb11610be3ef5df242e8e00b60001b6149f0565b60009150506178f0565b6177db7f9368870f64a0c4eae225374002f11353ee415a49f4ab81395ff46058c402795060001b6149f0565b6178077f6d2b724345bfeccdff47237f5825014d946a3497f0bea852d3cbc67854ab8be960001b6149f0565b6178337ffaf0fee296fdc279b69c15d4959cc4de384dcee0d71822aa1467ff2a4a7d740060001b6149f0565b60006178908261788286617874896178668d6178588e8b6174f490919063ffffffff16565b616df490919063ffffffff16565b616df490919063ffffffff16565b616e8390919063ffffffff16565b616e8390919063ffffffff16565b90506178be7fd8fc5601e9c92672ae6e3ac1a9039dd27a5ec16578f9ac2c949f424071076dec60001b6149f0565b6178ea7fedc6949760061555622e337d58f01976adff1136ff907780f744afbe448b23fb60001b6149f0565b80925050505b95945050505050565b6000600190617906618071565b906101000a900460ff168061791f575061791e6157c6565b5b8061793c5750600080617930618071565b906101000a900460ff16155b61799a576040517f08c379a000000000000000000000000000000000000000000000000000000000815260040180806020018281038252602e8152602001806185f5602e913960400191505060405180910390617997618003565b50505b6000806001906179a8618071565b906101000a900460ff161590508015617a11576001600060016101000a816179ce618071565b8160ff021916908315150217906179e36180d4565b50505060016000806101000a816179f8618071565b8160ff02191690831515021790617a0d6180d4565b5050505b8015617a425760008060016101000a81617a29618071565b8160ff02191690831515021790617a3e6180d4565b5050505b50565b6000600190617a52618071565b906101000a900460ff1680617a6b5750617a6a6157c6565b5b80617a885750600080617a7c618071565b906101000a900460ff16155b617ae6576040517f08c379a000000000000000000000000000000000000000000000000000000000815260040180806020018281038252602e8152602001806185f5602e913960400191505060405180910390617ae3618003565b50505b600080600190617af4618071565b906101000a900460ff161590508015617b5d576001600060016101000a81617b1a618071565b8160ff02191690831515021790617b2f6180d4565b50505060016000806101000a81617b44618071565b8160ff02191690831515021790617b596180d4565b5050505b8260689080519060200190617b73929190618456565b508160699080519060200190617b8a929190618456565b506012606a60006101000a81617b9e618071565b8160ff021916908360ff16021790617bb46180d4565b5050508015617be85760008060016101000a81617bcf618071565b8160ff02191690831515021790617be46180d4565b5050505b505050565b6000600190617bfa618071565b906101000a900460ff1680617c135750617c126157c6565b5b80617c305750600080617c24618071565b906101000a900460ff16155b617c8e576040517f08c379a000000000000000000000000000000000000000000000000000000000815260040180806020018281038252602e8152602001806185f5602e913960400191505060405180910390617c8b618003565b50505b600080600190617c9c618071565b906101000a900460ff161590508015617d05576001600060016101000a81617cc2618071565b8160ff02191690831515021790617cd76180d4565b50505060016000806101000a81617cec618071565b8160ff02191690831515021790617d016180d4565b5050505b6001609760006101000a81617d18618071565b8160ff02191690831515021790617d2d6180d4565b5050508015617d615760008060016101000a81617d48618071565b8160ff02191690831515021790617d5d6180d4565b5050505b50565b617d907fda49ad940c1f05674bef2ddab8e363a9b036ac07556cc21cc304c7be9f07914060001b6149f0565b617dbc7f800dda560d870eec1c01092de23f179d64072aa9996257d6b6b85e5c224b6ad160001b6149f0565b617de87fa95ec4bc6abed3151225b319c6e4df621447021d1c4d6956d7568940f8d16dbf60001b6149f0565b617df3838383617ffe565b617e1f7f0b6577bf6dad542540d2ab73ba2c2f718c552dcb39f22861569794bcdf04640460001b6149f0565b617e4b7f63da789e2df51b8fe011adb622e9417cf7c36dbf8607538e31ff4cdcf51b7fee60001b6149f0565b617e777fad148673c9534c2467f9b4ab40bad2a4796f11855a641006af170ccb4778690460001b6149f0565b6000617e82846149f3565b14617efe576040517f08c379a000000000000000000000000000000000000000000000000000000000815260040180806020018281038252600f8152602001807f636f6f6c646f776e20616374697665000000000000000000000000000000000081525060200191505060405180910390617efb618003565b50505b617f2a7f37741b1456713a07b1fc9da17bed98d29a1feb59a8a5b1eb6d0f64c103fc647e60001b6149f0565b505050565b60008083118290617fe4576040517f08c379a00000000000000000000000000000000000000000000000000000000081526004018080602001828103825283818151815260200191508051906020019080838360005b83811015617fa0578082015181840152602081019050617f85565b50505050905090810190601f168015617fcd5780820380516001836020036101000a031916815260200191505b509250505060405180910390617fe1618003565b50505b506000838581617ff057fe5b049050809150509392505050565b505050565b632a2a7adb598160e01b8152600481016020815285602082015260005b8681101561803e578086015181604084010152602081019050618020565b506020828760640184336000905af158601d01573d60011458600c01573d6000803e3d621234565260ea61109c52505050565b6303daa959598160e01b8152836004820152602081602483336000905af158601d01573d60011458600c01573d6000803e3d621234565260ea61109c528051935060005b60408110156180cf576000818301526020810190506180b5565b505050565b6322bd64c0598160e01b8152836004820152846024820152600081604483336000905af158601d01573d60011458600c01573d6000803e3d621234565260ea61109c5260005b60408110156181345760008183015260208101905061811a565b505050565b6373509064598160e01b8152602081600483336000905af158601d01573d60011458600c01573d6000803e3d621234565260ea61109c528051935060005b604081101561819157600081830152602081019050618177565b505050565b63bdbf8c36598160e01b8152602081600483336000905af158601d01573d60011458600c01573d6000803e3d621234565260ea61109c528051935060005b60408110156181ee576000818301526020810190506181d4565b505050565b638435035b598160e01b8152836004820152602081602483336000905af158601d01573d60011458600c01573d6000803e3d621234565260ea61109c528051935060005b604081101561825157600081830152602081019050618237565b505050565b638540661f598160e01b8152618295565b600081905081831115618278578290505b92915050565b60008190508183101561828f578290505b92915050565b836004820152846024820152606060448201528660648201526084810160005b888110156182d05780880151818301526020810190506182b5565b506060828960a40184336000905af158601d01573d60011458600c01573d6000803e3d621234565260ea61109c52815160408301513d6000853e8b8b82606087013350600060045af150596183258d3d61827e565b8c016183318187618267565b5b828110156183495760008152602081019050618332565b50839d5050505050505050565b6385979f76598160e01b8152618395565b600081905081831115618378578290505b92915050565b60008190508183101561838f578290505b92915050565b836004820152846024820152606060448201528760648201526084810160005b898110156183d05780890151818301526020810190506183b5565b506060828a60a40184336000905af158601d01573d60011458600c01573d6000803e3d621234565260ea61109c52815160408301513d6000853e8c8c82606087013350600060045af150596184258e3d61837e565b8d016184318187618367565b5b828110156184495760008152602081019050618432565b50839e5050505050505050565b8280618460618071565b600181600116156101000203166002900490600052602060002090601f016020900481019282601f106184a757805160ff191683800117856184a06180d4565b50506184e7565b828001600101856184b66180d4565b505082156184e7579182015b828111156184e6578251826184d56180d4565b5050916020019190600101906184c2565b5b5090506184f491906184f8565b5090565b5b8082111561851a5760008160009061850f6180d4565b5050506001016184f9565b509056fe45524332303a207472616e7366657220746f20746865207a65726f206164647265737345524332303a206275726e20616d6f756e7420657863656564732062616c616e636545524332303a20617070726f766520746f20746865207a65726f206164647265737345524332303a207472616e7366657220616d6f756e7420657863656564732062616c616e6365536166654d6174683a206d756c7469706c69636174696f6e206f766572666c6f7745524332303a207472616e7366657220616d6f756e74206578636565647320616c6c6f77616e6365436f6e747261637420696e7374616e63652068617320616c7265616479206265656e20696e697469616c697a656445524332303a206275726e2066726f6d20746865207a65726f206164647265737345524332303a207472616e736665722066726f6d20746865207a65726f206164647265737345524332303a20617070726f76652066726f6d20746865207a65726f206164647265737345524332303a2064656372656173656420616c6c6f77616e63652062656c6f77207a65726f",
  "linkReferences": {},
  "deployedLinkReferences": {}
}