{
  "_format": "hh-sol-artifact-1",
  "contractName": "PoolLogic-ovm",
  "sourceName": "contracts/PoolLogic.sol",
  "abi": [
    {
      "anonymous": false,
      "inputs": [
        {
          "indexed": true,
          "internalType": "address",
          "name": "owner",
          "type": "address"
        },
        {
          "indexed": true,
          "internalType": "address",
          "name": "spender",
          "type": "address"
        },
        {
          "indexed": false,
          "internalType": "uint256",
          "name": "value",
          "type": "uint256"
        }
      ],
      "name": "Approval",
      "type": "event"
    },
    {
      "anonymous": false,
      "inputs": [
        {
          "indexed": false,
          "internalType": "address",
          "name": "fundAddress",
          "type": "address"
        },
        {
          "indexed": false,
          "internalType": "address",
          "name": "investor",
          "type": "address"
        },
        {
          "indexed": false,
          "internalType": "uint256",
          "name": "valueDeposited",
          "type": "uint256"
        },
        {
          "indexed": false,
          "internalType": "uint256",
          "name": "fundTokensReceived",
          "type": "uint256"
        },
        {
          "indexed": false,
          "internalType": "uint256",
          "name": "totalInvestorFundTokens",
          "type": "uint256"
        },
        {
          "indexed": false,
          "internalType": "uint256",
          "name": "fundValue",
          "type": "uint256"
        },
        {
          "indexed": false,
          "internalType": "uint256",
          "name": "totalSupply",
          "type": "uint256"
        },
        {
          "indexed": false,
          "internalType": "uint256",
          "name": "time",
          "type": "uint256"
        }
      ],
      "name": "Deposit",
      "type": "event"
    },
    {
      "anonymous": false,
      "inputs": [
        {
          "indexed": false,
          "internalType": "address",
          "name": "pool",
          "type": "address"
        },
        {
          "indexed": false,
          "internalType": "address",
          "name": "manager",
          "type": "address"
        },
        {
          "indexed": false,
          "internalType": "uint256",
          "name": "available",
          "type": "uint256"
        },
        {
          "indexed": false,
          "internalType": "uint256",
          "name": "daoFee",
          "type": "uint256"
        },
        {
          "indexed": false,
          "internalType": "uint256",
          "name": "managerFee",
          "type": "uint256"
        },
        {
          "indexed": false,
          "internalType": "uint256",
          "name": "tokenPriceAtLastFeeMint",
          "type": "uint256"
        }
      ],
      "name": "ManagerFeeMinted",
      "type": "event"
    },
    {
      "anonymous": false,
      "inputs": [
        {
          "indexed": false,
          "internalType": "address",
          "name": "poolManagerLogic",
          "type": "address"
        },
        {
          "indexed": false,
          "internalType": "address",
          "name": "from",
          "type": "address"
        }
      ],
      "name": "PoolManagerLogicSet",
      "type": "event"
    },
    {
      "anonymous": false,
      "inputs": [
        {
          "indexed": false,
          "internalType": "bool",
          "name": "isPoolPrivate",
          "type": "bool"
        }
      ],
      "name": "PoolPrivacyUpdated",
      "type": "event"
    },
    {
      "anonymous": false,
      "inputs": [
        {
          "indexed": false,
          "internalType": "address",
          "name": "manager",
          "type": "address"
        },
        {
          "indexed": false,
          "internalType": "uint256",
          "name": "time",
          "type": "uint256"
        }
      ],
      "name": "TransactionExecuted",
      "type": "event"
    },
    {
      "anonymous": false,
      "inputs": [
        {
          "indexed": true,
          "internalType": "address",
          "name": "from",
          "type": "address"
        },
        {
          "indexed": true,
          "internalType": "address",
          "name": "to",
          "type": "address"
        },
        {
          "indexed": false,
          "internalType": "uint256",
          "name": "value",
          "type": "uint256"
        }
      ],
      "name": "Transfer",
      "type": "event"
    },
    {
      "anonymous": false,
      "inputs": [
        {
          "indexed": false,
          "internalType": "address",
          "name": "fundAddress",
          "type": "address"
        },
        {
          "indexed": false,
          "internalType": "address",
          "name": "investor",
          "type": "address"
        },
        {
          "indexed": false,
          "internalType": "uint256",
          "name": "valueWithdrawn",
          "type": "uint256"
        },
        {
          "indexed": false,
          "internalType": "uint256",
          "name": "fundTokensWithdrawn",
          "type": "uint256"
        },
        {
          "indexed": false,
          "internalType": "uint256",
          "name": "totalInvestorFundTokens",
          "type": "uint256"
        },
        {
          "indexed": false,
          "internalType": "uint256",
          "name": "fundValue",
          "type": "uint256"
        },
        {
          "indexed": false,
          "internalType": "uint256",
          "name": "totalSupply",
          "type": "uint256"
        },
        {
          "indexed": false,
          "internalType": "uint256",
          "name": "time",
          "type": "uint256"
        }
      ],
      "name": "Withdrawal",
      "type": "event"
    },
    {
      "inputs": [
        {
          "internalType": "address",
          "name": "owner",
          "type": "address"
        },
        {
          "internalType": "address",
          "name": "spender",
          "type": "address"
        }
      ],
      "name": "allowance",
      "outputs": [
        {
          "internalType": "uint256",
          "name": "",
          "type": "uint256"
        }
      ],
      "stateMutability": "view",
      "type": "function"
    },
    {
      "inputs": [
        {
          "internalType": "address",
          "name": "spender",
          "type": "address"
        },
        {
          "internalType": "uint256",
          "name": "amount",
          "type": "uint256"
        }
      ],
      "name": "approve",
      "outputs": [
        {
          "internalType": "bool",
          "name": "",
          "type": "bool"
        }
      ],
      "stateMutability": "nonpayable",
      "type": "function"
    },
    {
      "inputs": [],
      "name": "availableManagerFee",
      "outputs": [
        {
          "internalType": "uint256",
          "name": "",
          "type": "uint256"
        }
      ],
      "stateMutability": "view",
      "type": "function"
    },
    {
      "inputs": [
        {
          "internalType": "address",
          "name": "account",
          "type": "address"
        }
      ],
      "name": "balanceOf",
      "outputs": [
        {
          "internalType": "uint256",
          "name": "",
          "type": "uint256"
        }
      ],
      "stateMutability": "view",
      "type": "function"
    },
    {
      "inputs": [
        {
          "internalType": "bytes32",
          "name": "data",
          "type": "bytes32"
        }
      ],
      "name": "convert32toAddress",
      "outputs": [
        {
          "internalType": "address",
          "name": "o",
          "type": "address"
        }
      ],
      "stateMutability": "pure",
      "type": "function"
    },
    {
      "inputs": [],
      "name": "creationTime",
      "outputs": [
        {
          "internalType": "uint256",
          "name": "",
          "type": "uint256"
        }
      ],
      "stateMutability": "view",
      "type": "function"
    },
    {
      "inputs": [],
      "name": "creator",
      "outputs": [
        {
          "internalType": "address",
          "name": "",
          "type": "address"
        }
      ],
      "stateMutability": "view",
      "type": "function"
    },
    {
      "inputs": [],
      "name": "decimals",
      "outputs": [
        {
          "internalType": "uint8",
          "name": "",
          "type": "uint8"
        }
      ],
      "stateMutability": "view",
      "type": "function"
    },
    {
      "inputs": [
        {
          "internalType": "address",
          "name": "spender",
          "type": "address"
        },
        {
          "internalType": "uint256",
          "name": "subtractedValue",
          "type": "uint256"
        }
      ],
      "name": "decreaseAllowance",
      "outputs": [
        {
          "internalType": "bool",
          "name": "",
          "type": "bool"
        }
      ],
      "stateMutability": "nonpayable",
      "type": "function"
    },
    {
      "inputs": [
        {
          "internalType": "address",
          "name": "_asset",
          "type": "address"
        },
        {
          "internalType": "uint256",
          "name": "_amount",
          "type": "uint256"
        }
      ],
      "name": "deposit",
      "outputs": [
        {
          "internalType": "uint256",
          "name": "",
          "type": "uint256"
        }
      ],
      "stateMutability": "nonpayable",
      "type": "function"
    },
    {
      "inputs": [
        {
          "internalType": "address",
          "name": "to",
          "type": "address"
        },
        {
          "internalType": "bytes",
          "name": "data",
          "type": "bytes"
        }
      ],
      "name": "execTransaction",
      "outputs": [
        {
          "internalType": "bool",
          "name": "",
          "type": "bool"
        }
      ],
      "stateMutability": "nonpayable",
      "type": "function"
    },
    {
      "inputs": [],
      "name": "factory",
      "outputs": [
        {
          "internalType": "address",
          "name": "",
          "type": "address"
        }
      ],
      "stateMutability": "view",
      "type": "function"
    },
    {
      "inputs": [
        {
          "internalType": "bytes",
          "name": "data",
          "type": "bytes"
        },
        {
          "internalType": "uint8",
          "name": "inputNum",
          "type": "uint8"
        },
        {
          "internalType": "uint8",
          "name": "arrayIndex",
          "type": "uint8"
        }
      ],
      "name": "getArrayIndex",
      "outputs": [
        {
          "internalType": "bytes32",
          "name": "",
          "type": "bytes32"
        }
      ],
      "stateMutability": "pure",
      "type": "function"
    },
    {
      "inputs": [
        {
          "internalType": "bytes",
          "name": "data",
          "type": "bytes"
        },
        {
          "internalType": "uint8",
          "name": "inputNum",
          "type": "uint8"
        }
      ],
      "name": "getArrayLast",
      "outputs": [
        {
          "internalType": "bytes32",
          "name": "",
          "type": "bytes32"
        }
      ],
      "stateMutability": "pure",
      "type": "function"
    },
    {
      "inputs": [
        {
          "internalType": "bytes",
          "name": "data",
          "type": "bytes"
        },
        {
          "internalType": "uint8",
          "name": "inputNum",
          "type": "uint8"
        }
      ],
      "name": "getArrayLength",
      "outputs": [
        {
          "internalType": "uint256",
          "name": "",
          "type": "uint256"
        }
      ],
      "stateMutability": "pure",
      "type": "function"
    },
    {
      "inputs": [
        {
          "internalType": "bytes",
          "name": "data",
          "type": "bytes"
        },
        {
          "internalType": "uint8",
          "name": "inputNum",
          "type": "uint8"
        },
        {
          "internalType": "uint256",
          "name": "offset",
          "type": "uint256"
        }
      ],
      "name": "getBytes",
      "outputs": [
        {
          "internalType": "bytes",
          "name": "",
          "type": "bytes"
        }
      ],
      "stateMutability": "pure",
      "type": "function"
    },
    {
      "inputs": [],
      "name": "getExitCooldown",
      "outputs": [
        {
          "internalType": "uint256",
          "name": "",
          "type": "uint256"
        }
      ],
      "stateMutability": "view",
      "type": "function"
    },
    {
      "inputs": [
        {
          "internalType": "address",
          "name": "sender",
          "type": "address"
        }
      ],
      "name": "getExitRemainingCooldown",
      "outputs": [
        {
          "internalType": "uint256",
          "name": "",
          "type": "uint256"
        }
      ],
      "stateMutability": "view",
      "type": "function"
    },
    {
      "inputs": [],
      "name": "getFundSummary",
      "outputs": [
        {
          "internalType": "string",
          "name": "",
          "type": "string"
        },
        {
          "internalType": "uint256",
          "name": "",
          "type": "uint256"
        },
        {
          "internalType": "uint256",
          "name": "",
          "type": "uint256"
        },
        {
          "internalType": "address",
          "name": "",
          "type": "address"
        },
        {
          "internalType": "string",
          "name": "",
          "type": "string"
        },
        {
          "internalType": "uint256",
          "name": "",
          "type": "uint256"
        },
        {
          "internalType": "bool",
          "name": "",
          "type": "bool"
        },
        {
          "internalType": "uint256",
          "name": "",
          "type": "uint256"
        },
        {
          "internalType": "uint256",
          "name": "",
          "type": "uint256"
        }
      ],
      "stateMutability": "view",
      "type": "function"
    },
    {
      "inputs": [
        {
          "internalType": "bytes",
          "name": "data",
          "type": "bytes"
        },
        {
          "internalType": "uint8",
          "name": "inputNum",
          "type": "uint8"
        }
      ],
      "name": "getInput",
      "outputs": [
        {
          "internalType": "bytes32",
          "name": "",
          "type": "bytes32"
        }
      ],
      "stateMutability": "pure",
      "type": "function"
    },
    {
      "inputs": [
        {
          "internalType": "bytes",
          "name": "data",
          "type": "bytes"
        }
      ],
      "name": "getMethod",
      "outputs": [
        {
          "internalType": "bytes4",
          "name": "",
          "type": "bytes4"
        }
      ],
      "stateMutability": "pure",
      "type": "function"
    },
    {
      "inputs": [
        {
          "internalType": "bytes",
          "name": "data",
          "type": "bytes"
        }
      ],
      "name": "getParams",
      "outputs": [
        {
          "internalType": "bytes",
          "name": "",
          "type": "bytes"
        }
      ],
      "stateMutability": "pure",
      "type": "function"
    },
    {
      "inputs": [
        {
          "internalType": "address",
          "name": "spender",
          "type": "address"
        },
        {
          "internalType": "uint256",
          "name": "addedValue",
          "type": "uint256"
        }
      ],
      "name": "increaseAllowance",
      "outputs": [
        {
          "internalType": "bool",
          "name": "",
          "type": "bool"
        }
      ],
      "stateMutability": "nonpayable",
      "type": "function"
    },
    {
      "inputs": [
        {
          "internalType": "address",
          "name": "_factory",
          "type": "address"
        },
        {
          "internalType": "bool",
          "name": "_privatePool",
          "type": "bool"
        },
        {
          "internalType": "string",
          "name": "_fundName",
          "type": "string"
        },
        {
          "internalType": "string",
          "name": "_fundSymbol",
          "type": "string"
        },
        {
          "internalType": "address",
          "name": "_poolManagerLogic",
          "type": "address"
        }
      ],
      "name": "initialize",
      "outputs": [],
      "stateMutability": "nonpayable",
      "type": "function"
    },
    {
      "inputs": [
        {
          "internalType": "address",
          "name": "member",
          "type": "address"
        }
      ],
      "name": "isMemberAllowed",
      "outputs": [
        {
          "internalType": "bool",
          "name": "",
          "type": "bool"
        }
      ],
      "stateMutability": "view",
      "type": "function"
    },
    {
      "inputs": [
        {
          "internalType": "address",
          "name": "",
          "type": "address"
        }
      ],
      "name": "lastDeposit",
      "outputs": [
        {
          "internalType": "uint256",
          "name": "",
          "type": "uint256"
        }
      ],
      "stateMutability": "view",
      "type": "function"
    },
    {
      "inputs": [],
      "name": "managerName",
      "outputs": [
        {
          "internalType": "string",
          "name": "",
          "type": "string"
        }
      ],
      "stateMutability": "view",
      "type": "function"
    },
    {
      "inputs": [],
      "name": "mintManagerFee",
      "outputs": [],
      "stateMutability": "nonpayable",
      "type": "function"
    },
    {
      "inputs": [],
      "name": "name",
      "outputs": [
        {
          "internalType": "string",
          "name": "",
          "type": "string"
        }
      ],
      "stateMutability": "view",
      "type": "function"
    },
    {
      "inputs": [],
      "name": "poolManagerLogic",
      "outputs": [
        {
          "internalType": "address",
          "name": "",
          "type": "address"
        }
      ],
      "stateMutability": "view",
      "type": "function"
    },
    {
      "inputs": [],
      "name": "privatePool",
      "outputs": [
        {
          "internalType": "bool",
          "name": "",
          "type": "bool"
        }
      ],
      "stateMutability": "view",
      "type": "function"
    },
    {
      "inputs": [
        {
          "internalType": "bytes",
          "name": "data",
          "type": "bytes"
        },
        {
          "internalType": "uint256",
          "name": "offset",
          "type": "uint256"
        },
        {
          "internalType": "uint256",
          "name": "length",
          "type": "uint256"
        }
      ],
      "name": "read32",
      "outputs": [
        {
          "internalType": "bytes32",
          "name": "o",
          "type": "bytes32"
        }
      ],
      "stateMutability": "pure",
      "type": "function"
    },
    {
      "inputs": [
        {
          "internalType": "bytes",
          "name": "data",
          "type": "bytes"
        },
        {
          "internalType": "uint256",
          "name": "offset",
          "type": "uint256"
        }
      ],
      "name": "read4left",
      "outputs": [
        {
          "internalType": "bytes4",
          "name": "o",
          "type": "bytes4"
        }
      ],
      "stateMutability": "pure",
      "type": "function"
    },
    {
      "inputs": [
        {
          "internalType": "address",
          "name": "_poolManagerLogic",
          "type": "address"
        }
      ],
      "name": "setPoolManagerLogic",
      "outputs": [
        {
          "internalType": "bool",
          "name": "",
          "type": "bool"
        }
      ],
      "stateMutability": "nonpayable",
      "type": "function"
    },
    {
      "inputs": [
        {
          "internalType": "bool",
          "name": "_privatePool",
          "type": "bool"
        }
      ],
      "name": "setPoolPrivate",
      "outputs": [],
      "stateMutability": "nonpayable",
      "type": "function"
    },
    {
      "inputs": [],
      "name": "symbol",
      "outputs": [
        {
          "internalType": "string",
          "name": "",
          "type": "string"
        }
      ],
      "stateMutability": "view",
      "type": "function"
    },
    {
      "inputs": [],
      "name": "tokenPrice",
      "outputs": [
        {
          "internalType": "uint256",
          "name": "",
          "type": "uint256"
        }
      ],
      "stateMutability": "view",
      "type": "function"
    },
    {
      "inputs": [],
      "name": "tokenPriceAtLastFeeMint",
      "outputs": [
        {
          "internalType": "uint256",
          "name": "",
          "type": "uint256"
        }
      ],
      "stateMutability": "view",
      "type": "function"
    },
    {
      "inputs": [],
      "name": "totalFundValue",
      "outputs": [
        {
          "internalType": "uint256",
          "name": "",
          "type": "uint256"
        }
      ],
      "stateMutability": "view",
      "type": "function"
    },
    {
      "inputs": [],
      "name": "totalSupply",
      "outputs": [
        {
          "internalType": "uint256",
          "name": "",
          "type": "uint256"
        }
      ],
      "stateMutability": "view",
      "type": "function"
    },
    {
      "inputs": [
        {
          "internalType": "address",
          "name": "recipient",
          "type": "address"
        },
        {
          "internalType": "uint256",
          "name": "amount",
          "type": "uint256"
        }
      ],
      "name": "transfer",
      "outputs": [
        {
          "internalType": "bool",
          "name": "",
          "type": "bool"
        }
      ],
      "stateMutability": "nonpayable",
      "type": "function"
    },
    {
      "inputs": [
        {
          "internalType": "address",
          "name": "sender",
          "type": "address"
        },
        {
          "internalType": "address",
          "name": "recipient",
          "type": "address"
        },
        {
          "internalType": "uint256",
          "name": "amount",
          "type": "uint256"
        }
      ],
      "name": "transferFrom",
      "outputs": [
        {
          "internalType": "bool",
          "name": "",
          "type": "bool"
        }
      ],
      "stateMutability": "nonpayable",
      "type": "function"
    },
    {
      "inputs": [
        {
          "internalType": "uint256",
          "name": "_fundTokenAmount",
          "type": "uint256"
        }
      ],
      "name": "withdraw",
      "outputs": [],
      "stateMutability": "nonpayable",
      "type": "function"
    }
  ],
  "bytecode": "0x60806040523480156200001c576000806200001962000023565b50505b5062000090565b632a2a7adb598160e01b8152600481016020815285602082015260005b868110156200005d57808601518282016040015260200162000040565b506020828760640184336000905af158600e01573d6000803e3d6000fd5b3d6001141558600a015760016000f35b505050565b6159cd80620000a06000396000f3fe6080604052348015610019576000806100166153b3565b50505b50600436106102725760003560e01c8063689015131161015a578063ad60ffcc116100cc578063cc3c6df611610090578063cc3c6df61461105a578063d8270dce14611062578063db896b571461106a578063dd62ed3e14611136578063edbf6f501461116d578063fed4416a1461117557610272565b8063ad60ffcc14610f25578063b8ea2b6e14610f2d578063bbbf725b14610f5c578063c3c6279f14610f8b578063c45a01551461105257610272565b80637ff9b5961161011e5780637ff9b59614610d1357806382f86acc14610d1b57806395d89b4114610de7578063998546e314610def578063a457c2d714610ebb578063a9059cbb14610ef057610272565b80636890151314610b0f57806370a0823114610bd6578063750226de14610c055780637714f39d14610c345780637ae7cfb514610c3c57610272565b806323b872dd116101f357806339509351116101b757806339509351146109965780633babaad5146109cb57806341dc16c3146109f35780634501b08814610aca57806347e7ef2414610ad257806359b5e75e14610b0757610272565b806323b872dd146107fe578063293d80631461083d57806329d16ee8146109235780632e1a7d4d14610952578063313ce5671461097857610272565b80631053f9521161023a5780631053f952146105d457806318160ddd146106a35780631c5918d2146106ab5780631e50a4a6146107d05780631eba3077146107d857610272565b806302d05d3f1461028057806306fdde03146102a4578063095ea7b31461032357806309ff5c7d1461036c5780630ccb30c71461044a575b60008061027d6153b3565b50505b61028861117d565b6040516001600160a01b03909116815260200160405180910390f35b6102ac61119c565b60405160208082528190810183818151815260200191508051906020019080838360005b838110156102e85780820151838201526020016102d0565b50505050905090810190601f1680156103155780820380516001836020036101000a031916815260200191505b509250505060405180910390f35b610358600480360360408110156103425760008061033f6153b3565b50505b506001600160a01b038135169060200135611259565b604051901515815260200160405180910390f35b6104386004803603604081101561038b576000806103886153b3565b50505b810190602081018135600160201b8111156103ae576000806103ab6153b3565b50505b8201836020820111156103c9576000806103c66153b3565b50505b803590602001918460018302840111600160201b831117156103f3576000806103f06153b3565b50505b91908080601f01602080910402602001604051908101604052818152929190602084018383808284376000920191909152509295505050903560ff1691506112779050565b60405190815260200160405180910390f35b6105d2600480360360a0811015610469576000806104666153b3565b50505b6001600160a01b03823516916020810135151591810190606081016040820135600160201b8111156104a3576000806104a06153b3565b50505b8201836020820111156104be576000806104bb6153b3565b50505b803590602001918460018302840111600160201b831117156104e8576000806104e56153b3565b50505b91908080601f01602080910402602001604051908101604052818152929190602084018383808284376000920191909152509295949360208101935035915050600160201b8111156105425760008061053f6153b3565b50505b82018360208201111561055d5760008061055a6153b3565b50505b803590602001918460018302840111600160201b83111715610587576000806105846153b3565b50505b91908080601f0160208091040260200160405190810160405281815292919060208401838380828437600092019190915250929550505090356001600160a01b031691506113109050565b005b6102ac600480360360608110156105f3576000806105f06153b3565b50505b810190602081018135600160201b811115610616576000806106136153b3565b50505b8201836020820111156106315760008061062e6153b3565b50505b803590602001918460018302840111600160201b8311171561065b576000806106586153b3565b50505b91908080601f01602080910402602001604051908101604052818152929190602084018383808284376000920191909152509295505060ff833516935050506020013561152e565b6104386115ce565b6106b36115df565b60405180806020018a8152602001898152602001886001600160a01b0316815260200180602001878152602001861515815260200185815260200184815260200183810383528c818151815260200191508051906020019080838360005b83811015610729578082015183820152602001610711565b50505050905090810190601f1680156107565780820380516001836020036101000a031916815260200191505b50838103825288818151815260200191508051906020019080838360005b8381101561078c578082015183820152602001610774565b50505050905090810190601f1680156107b95780820380516001836020036101000a031916815260200191505b509b50505050505050505050505060405180910390f35b610288611786565b610288600480360360208110156107f7576000806107f46153b3565b50505b5035611792565b6103586004803603606081101561081d5760008061081a6153b3565b50505b506001600160a01b03813581169160208101359091169060400135611799565b6109066004803603604081101561085c576000806108596153b3565b50505b810190602081018135600160201b81111561087f5760008061087c6153b3565b50505b82018360208201111561089a576000806108976153b3565b50505b803590602001918460018302840111600160201b831117156108c4576000806108c16153b3565b50505b91908080601f0160208091040260200160405190810160405281815292919060208401838380828437600092019190915250929550509135925061182d915050565b6040516001600160e01b0319909116815260200160405180910390f35b610438600480360360208110156109425760008061093f6153b3565b50505b50356001600160a01b031661189e565b6105d2600480360360208110156109715760008061096e6153b3565b50505b50356118b9565b61098061203e565b60405160ff909116815260200160405180910390f35b610358600480360360408110156109b5576000806109b26153b3565b50505b506001600160a01b03813516906020013561205a565b6105d2600480360360208110156109ea576000806109e76153b3565b50505b503515156120bf565b61043860048036036060811015610a1257600080610a0f6153b3565b50505b810190602081018135600160201b811115610a3557600080610a326153b3565b50505b820183602082011115610a5057600080610a4d6153b3565b50505b803590602001918460018302840111600160201b83111715610a7a57600080610a776153b3565b50505b91908080601f01602080910402602001604051908101604052818152929190602084018383808284376000920191909152509295505060ff83358116945060209093013590921691506121a69050565b610438612294565b61043860048036036040811015610af157600080610aee6153b3565b50505b506001600160a01b03813516906020013561234f565b610358612a07565b6102ac60048036036020811015610b2e57600080610b2b6153b3565b50505b810190602081018135600160201b811115610b5157600080610b4e6153b3565b50505b820183602082011115610b6c57600080610b696153b3565b50505b803590602001918460018302840111600160201b83111715610b9657600080610b936153b3565b50505b91908080601f0160208091040260200160405190810160405281815292919060208401838380828437600092019190915250929550612a20945050505050565b61043860048036036020811015610bf557600080610bf26153b3565b50505b50356001600160a01b0316612a34565b61035860048036036020811015610c2457600080610c216153b3565b50505b50356001600160a01b0316612a54565b610438612c0e565b61035860048036036040811015610c5b57600080610c586153b3565b50505b6001600160a01b038235169190810190604081016020820135600160201b811115610c8e57600080610c8b6153b3565b50505b820183602082011115610ca957600080610ca66153b3565b50505b803590602001918460018302840111600160201b83111715610cd357600080610cd06153b3565b50505b91908080601f0160208091040260200160405190810160405281815292919060208401838380828437600092019190915250929550612c18945050505050565b610438613420565b61043860048036036040811015610d3a57600080610d376153b3565b50505b810190602081018135600160201b811115610d5d57600080610d5a6153b3565b50505b820183602082011115610d7857600080610d756153b3565b50505b803590602001918460018302840111600160201b83111715610da257600080610d9f6153b3565b50505b91908080601f01602080910402602001604051908101604052818152929190602084018383808284376000920191909152509295505050903560ff16915061344a9050565b6102ac613468565b61043860048036036040811015610e0e57600080610e0b6153b3565b50505b810190602081018135600160201b811115610e3157600080610e2e6153b3565b50505b820183602082011115610e4c57600080610e496153b3565b50505b803590602001918460018302840111600160201b83111715610e7657600080610e736153b3565b50505b91908080601f01602080910402602001604051908101604052818152929190602084018383808284376000920191909152509295505050903560ff16915061350e9050565b61035860048036036040811015610eda57600080610ed76153b3565b50505b506001600160a01b03813516906020013561353f565b61035860048036036040811015610f0f57600080610f0c6153b3565b50505b506001600160a01b0381351690602001356135b5565b6104386135c9565b61043860048036036020811015610f4c57600080610f496153b3565b50505b50356001600160a01b031661382c565b61035860048036036020811015610f7b57600080610f786153b3565b50505b50356001600160a01b031661388e565b61090660048036036020811015610faa57600080610fa76153b3565b50505b810190602081018135600160201b811115610fcd57600080610fca6153b3565b50505b820183602082011115610fe857600080610fe56153b3565b50505b803590602001918460018302840111600160201b831117156110125760008061100f6153b3565b50505b91908080601f0160208091040260200160405190810160405281815292919060208401838380828437600092019190915250929550613960945050505050565b61028861396d565b6105d2613979565b610438613a87565b61043860048036036060811015611089576000806110866153b3565b50505b810190602081018135600160201b8111156110ac576000806110a96153b3565b50505b8201836020820111156110c7576000806110c46153b3565b50505b803590602001918460018302840111600160201b831117156110f1576000806110ee6153b3565b50505b91908080601f01602080910402602001604051908101604052818152929190602084018383808284376000920191909152509295505082359350505060200135613a91565b61043860048036036040811015611155576000806111526153b3565b50505b506001600160a01b0381358116916020013516613b1a565b610438613b53565b6102ac613cc0565b600160c961118961541e565b906101000a90046001600160a01b031681565b60606068806111a961541e565b600181600116156101000203166002900480601f0160208091040260200160405190810160405281815291906020830182806111e361541e565b6001816001161561010002031660029004801561124f5780601f1061121d57610100808361120f61541e565b04028352916020019161124f565b820191906000526020600020905b8161123461541e565b8152906001019060200180831161122b57829003601f168201915b5050505050905090565b600061126d611266613e4e565b8484613e59565b5060015b92915050565b60008061128f848460200260040160ff166020613a91565b905060006112a285600484016020613a91565b9050806112f35760405162461bcd60e51b8152602060048201526012602482015271696e707574206973206e6f7420617272617960701b6044820152606401604051809103906112f06153b3565b50505b611307856020808402850160040190613a91565b95945050505050565b6001600061131c61541e565b906101000a900460ff16806113345750611334613f81565b80611351575060008061134561541e565b906101000a900460ff16155b6113955760405162461bcd60e51b815260040180806020018281038252602e815260200180615910602e9139604001915050604051809103906113926153b3565b50505b60006001816113a261541e565b906101000a900460ff1615905080156114085760016000610100816113c561541e565b8160ff021916908315150217906113da615479565b50505060016000806101000a816113ef61541e565b8160ff02191690831515021790611404615479565b5050505b6114128484613ff2565b61141a61412b565b8560cb60018161142861541e565b816001600160a01b0302191690836001600160a01b031602179061144a615479565b50505061145685614240565b5a61145f6154c7565b60c96101008161146d61541e565b816001600160a01b0302191690836001600160a01b031602179061148f615479565b5050505a61149b61550d565b8060ca6114a6615479565b505050670de0b6b3a764000060cc81906114be615479565b5050508160ce60006101000a816114d361541e565b816001600160a01b0302191690836001600160a01b03160217906114f5615479565b5050508015611526576000806101008161150d61541e565b8160ff02191690831515021790611522615479565b5050505b505050505050565b60606014821061157e5760405162461bcd60e51b815260206004820152600e60248201526d1a5b9d985b1a59081bd9999cd95d60921b60448201526064016040518091039061157b6153b3565b50505b816020029150600061159d85848660200260040160ff16016020613a91565b905060006115b2868584016004016020613a91565b90506115c4866024848701018361429e565b9695505050505050565b600060676115da61541e565b905090565b606060008080838180808080808060cb6115f761541e565b906101000a90046001600160a01b03166001600160a01b031663b7a545265a63996d79a5598160e01b8152602081600483336000905af158600e01573d6000803e3d6000fd5b3d6001141558600a015760016000f35b8051925060005b604081101561166b57600082820152602001611654565b5050506040516001600160e01b031960e084901b1681526001600160a01b039091166004820152602401604080518083038186806116a7615553565b1580156116bc576000806116b96153b3565b50505b505a6116c661559f565b50505050501580156116e5573d6000803e3d60006116e26153b3565b50505b505050506040513d6040811015611704576000806117016153b3565b50505b8101908080519291906020018051939550929350611725925061119c915050565b61172d6115ce565b6117356135c9565b61173d614407565b611745613cc0565b60ca61174f61541e565b600060c961175b61541e565b906101000a900460ff1688889a509a509a509a509a509a509a509a509a505050909192939495969798565b600060ce61118961541e565b805b919050565b60006117a6848484614457565b611823846117b2613e4e565b61181e856040516060810160405260288082526158e860208301396001600160a01b038a16600090815260666020526040902060006117ef613e4e565b6001600160a01b03166001600160a01b0316815260200190815260200160002061181761541e565b91906145f5565b613e59565b5060019392505050565b600081600401835110156118905760405162461bcd60e51b815260206004820152601b60248201527f52656164696e67206279746573206f7574206f6620626f756e6473000000000060448201526064016040518091039061188d6153b3565b50505b816020018301519392505050565b60cd60205280600052604060002090506118b661541e565b81565b600060976118c561541e565b906101000a900460ff166119285760405162461bcd60e51b815260206004820152601f60248201527f5265656e7472616e637947756172643a207265656e7472616e742063616c6c006044820152606401604051809103906119256153b3565b50505b6000609760018161193761541e565b8160ff0219169083151502179061194c615479565b50505060cb60009061195c61541e565b906101000a90046001600160a01b03166001600160a01b031663b187bd266040518163ffffffff1660e01b8152600401602060405180830381868061199f615553565b1580156119b4576000806119b16153b3565b50505b505a6119be61559f565b50505050501580156119dd573d6000803e3d60006119da6153b3565b50505b505050506040513d60208110156119fc576000806119f96153b3565b50505b810190808051159250611a549150505760405162461bcd60e51b815260206004820152601060248201526f18dbdb9d1c9858dd1cc81c185d5cd95960821b604482015260640160405180910390611a516153b3565b50505b80611a665a611a616154c7565b612a34565b1015611ab85760405162461bcd60e51b8152602060048201526014602482015273696e73756666696369656e742062616c616e636560601b604482015260640160405180910390611ab56153b3565b50505b611ac95a611ac46154c7565b61382c565b15611b155760405162461bcd60e51b815260206004820152600f60248201526e636f6f6c646f776e2061637469766560881b604482015260640160405180910390611b126153b3565b50505b611b1d614695565b6000611b276135c9565b90506000611b4e611b366115ce565b611b4885670de0b6b3a7640000614ac6565b90614b2e565b9050611b625a611b5c6154c7565b84614b6e565b60008060ce611b6f61541e565b906101000a90046001600160a01b031690506060816001600160a01b031663e5406dbf6040518163ffffffff1660e01b81526004016000604051808303818680611bb7615553565b158015611bcc57600080611bc96153b3565b50505b505a611bd661559f565b5050505050158015611bf5573d6000803e3d6000611bf26153b3565b50505b505050506040513d6000823e601f3d908101601f191682016040526020811015611c2757600080611c246153b3565b50505b8101908080516040519392919084600160201b821115611c4f57600080611c4c6153b3565b50505b908301906020820185811115611c6d57600080611c6a6153b3565b50505b82518660208202830111600160201b82111715611c9257600080611c8f6153b3565b50505b825250602001908051906020019060200280838360005b83811015611cc1578082015183820152602001611ca9565b50505050905001604052505050905060008151905060005b81811015611ef6576000838281518110611cef57fe5b602002602001015190506000816001600160a01b03166370a082315a63996d79a5598160e01b8152602081600483336000905af158600e01573d6000803e3d6000fd5b3d6001141558600a015760016000f35b8051925060005b6040811015611d6057600082820152602001611d49565b5050506040516001600160e01b031960e084901b1681526001600160a01b0390911660048201526024016020604051808303818680611d9d615553565b158015611db257600080611daf6153b3565b50505b505a611dbc61559f565b5050505050158015611ddb573d6000803e3d6000611dd86153b3565b50505b505050506040513d6020811015611dfa57600080611df76153b3565b50505b810190808051935060009250611e209150670de0b6b3a76400009050611b48848b614ac6565b90508015611eeb57826001600160a01b031663a9059cbb5a611e406154c7565b836040516001600160e01b031960e085901b1681526001600160a01b039092166004830152602482015260440160206040518083038160008780611e82615553565b158015611e9757600080611e946153b3565b50505b505a611ea161568a565b505050505050158015611ec1573d6000803e3d6000611ebe6153b3565b50505b505050506040513d6020811015611ee057600080611edd6153b3565b50505b810190808051505050505b505050600101611cd9565b506000611f0f670de0b6b3a7640000611b488789614ac6565b90507f79d44cc8beeed36226f14818b2ecaca7ef252bcd56c9ae35f5a86869dbdefb975a63996d79a5598160e01b8152602081600483336000905af158600e01573d6000803e3d6000fd5b3d6001141558600a015760016000f35b8051925060005b6040811015611f8857600082820152602001611f71565b5050505a611f946154c7565b838a611fa25a611a616154c7565b611faa6135c9565b611fb26115ce565b5a611fbb61550d565b6040516001600160a01b0398891681529690971660208701526040808701959095526060860193909352608085019190915260a084015260c083015260e082019290925261010001905180910390a15050505050506001609760006101000a8161202361541e565b8160ff02191690831515021790612038615479565b50505050565b600080606a61204b61541e565b906101000a900460ff16905090565b600061126d612067613e4e565b8461181e8560666000612078613e4e565b6001600160a01b03166001600160a01b031681526020019081526020016000206001600160a01b0389166000908152602091909152604090206120b961541e565b90614c8e565b6120c7614407565b6001600160a01b03165a6120d96154c7565b6001600160a01b03161461212b5760405162461bcd60e51b815260206004820152600c60248201526b37b7363c9036b0b730b3b2b960a11b6044820152606401604051809103906121286153b3565b50505b801515600060c961213a61541e565b906101000a900460ff161515141561219a5760405162461bcd60e51b8152602060048201526016602482015275199b1859c81b5d5cdd08189948191a5999995c995b9d60521b6044820152606401604051809103906121976153b3565b50505b6121a381614240565b50565b6000806121be858560200260040160ff166020613a91565b905060006121d186600484016020613a91565b9050806122225760405162461bcd60e51b8152602060048201526012602482015271696e707574206973206e6f7420617272617960701b60448201526064016040518091039061221f6153b3565b50505b60ff8416811161227a5760405162461bcd60e51b815260206004820152601660248201527534b73b30b634b21030b93930bc903837b9b4ba34b7b760511b6044820152606401604051809103906122776153b3565b50505b6115c4866020600160ff8816018102850160040190613a91565b60008060cb6122a161541e565b906101000a90046001600160a01b03166001600160a01b0316634501b0886040518163ffffffff1660e01b815260040160206040518083038186806122e4615553565b1580156122f9576000806122f66153b3565b50505b505a61230361559f565b5050505050158015612322573d6000803e3d600061231f6153b3565b50505b505050506040513d60208110156123415760008061233e6153b3565b50505b810190808051935050505090565b6000612359614407565b6001600160a01b03165a61236b6154c7565b6001600160a01b031614806123935750600060c961238761541e565b906101000a900460ff16155b806123aa57506123aa5a6123a56154c7565b61388e565b6123fa5760405162461bcd60e51b81526020600482015260146024820152731bdb9b1e481b595b58995c9cc8185b1b1bddd95960621b6044820152606401604051809103906123f76153b3565b50505b600060cb61240661541e565b906101000a90046001600160a01b03166001600160a01b031663b187bd266040518163ffffffff1660e01b81526004016020604051808303818680612449615553565b15801561245e5760008061245b6153b3565b50505b505a61246861559f565b5050505050158015612487573d6000803e3d60006124846153b3565b50505b505050506040513d60208110156124a6576000806124a36153b3565b50505b8101908080511592506124fe9150505760405162461bcd60e51b815260206004820152601060248201526f18dbdb9d1c9858dd1cc81c185d5cd95960821b6044820152606401604051809103906124fb6153b3565b50505b600060ce61250a61541e565b906101000a90046001600160a01b03166001600160a01b031663bdbef07d846040516001600160e01b031960e084901b1681526001600160a01b0390911660048201526024016020604051808303818680612563615553565b158015612578576000806125756153b3565b50505b505a61258261559f565b50505050501580156125a1573d6000803e3d600061259e6153b3565b50505b505050506040513d60208110156125c0576000806125bd6153b3565b50505b810190808051925061261c9150505760405162461bcd60e51b81526020600482015260156024820152741a5b9d985b1a590819195c1bdcda5d08185cdcd95d605a1b6044820152606401604051809103906126196153b3565b50505b5a61262561550d565b60cd60005a6126326154c7565b6001600160a01b03166001600160a01b03168152602001908152602001600020819061265c615479565b505050612667614695565b60006126716135c9565b9050600061267d6115ce565b9050846001600160a01b03166323b872dd5a6126976154c7565b5a63996d79a5598160e01b8152602081600483336000905af158600e01573d6000803e3d6000fd5b3d6001141558600a015760016000f35b8051925060005b60408110156126ed576000828201526020016126d6565b505050876040516001600160e01b031960e086901b1681526001600160a01b03938416600482015291909216602482015260448101919091526064016020604051808303816000878061273e615553565b158015612753576000806127506153b3565b50505b505a61275d61568a565b50505050505015801561277d573d6000803e3d600061277a6153b3565b50505b505050506040513d602081101561279c576000806127996153b3565b50505b81019080805192506127f89150505760405162461bcd60e51b81526020600482015260156024820152741d1bdad95b881d1c985b9cd9995c8819985a5b1959605a1b6044820152606401604051809103906127f56153b3565b50505b60008060ce61280561541e565b906101000a90046001600160a01b03166001600160a01b03166329c07fba87876040516001600160e01b031960e085901b1681526001600160a01b03909216600483015260248201526044016020604051808303818680612864615553565b158015612879576000806128766153b3565b50505b505a61288361559f565b50505050501580156128a2573d6000803e3d600061289f6153b3565b50505b505050506040513d60208110156128c1576000806128be6153b3565b50505b81019080805193506000925050831590506128eb576128e484611b488486614ac6565b90506128ee565b50805b6129005a6128fa6154c7565b82614ced565b7f87fdcba84e083ebb8fd661bbafee3eb38764ec6f0cbeea8ed52deffa67bd45dc5a63996d79a5598160e01b8152602081600483336000905af158600e01573d6000803e3d6000fd5b3d6001141558600a015760016000f35b8051925060005b604081101561297757600082820152602001612960565b5050505a6129836154c7565b84846129915a611a616154c7565b61299b8a89614c8e565b6129a58a89614c8e565b5a6129ae61550d565b6040516001600160a01b0398891681529690971660208701526040808701959095526060860193909352608085019190915260a084015260c083015260e082019290925261010001905180910390a19695505050505050565b600060c9612a1361541e565b906101000a900460ff1681565b60606112716004808451859291900361429e565b6001600160a01b038116600090815260656020526040812061127161541e565b6000808060cb612a6261541e565b906101000a90046001600160a01b03166001600160a01b0316631d68702d6040518163ffffffff1660e01b81526004016020604051808303818680612aa5615553565b158015612aba57600080612ab76153b3565b50505b505a612ac461559f565b5050505050158015612ae3573d6000803e3d6000612ae06153b3565b50505b505050506040513d6020811015612b0257600080612aff6153b3565b50505b8101908080519350506001600160a01b0383169150505a612b216154c7565b6001600160a01b031614612b845760405162461bcd60e51b815260206004820152601860248201527f6f6e6c792044414f206164647265737320616c6c6f7765640000000000000000604482015260640160405180910390612b816153b3565b50505b8260ce600181612b9261541e565b816001600160a01b0302191690836001600160a01b0316021790612bb4615479565b5050507f63fb64c359a4cae97e1bf003c1ab11390b5f0e18cc5b3d67b90bd61c0f5c52fd835a612be26154c7565b6040516001600160a01b039283168152911660208201526040908101905180910390a150600192915050565b60cc6118b661541e565b6000612c22614407565b6001600160a01b03165a612c346154c7565b6001600160a01b03161480612c695750612c4c614e06565b6001600160a01b03165a612c5e6154c7565b6001600160a01b0316145b612cbb5760405162461bcd60e51b815260206004820152601660248201527537b7363c9036b0b730b3b2b91037b9103a3930b232b960511b604482015260640160405180910390612cb86153b3565b50505b600060cb612cc761541e565b906101000a90046001600160a01b03166001600160a01b031663b187bd266040518163ffffffff1660e01b81526004016020604051808303818680612d0a615553565b158015612d1f57600080612d1c6153b3565b50505b505a612d2961559f565b5050505050158015612d48573d6000803e3d6000612d456153b3565b50505b505050506040513d6020811015612d6757600080612d646153b3565b50505b810190808051159250612dbf9150505760405162461bcd60e51b815260206004820152601060248201526f18dbdb9d1c9858dd1cc81c185d5cd95960821b604482015260640160405180910390612dbc6153b3565b50505b6001600160a01b038316612e225760405162461bcd60e51b815260206004820152601c60248201527f6e6f6e2d7a65726f206164647265737320697320726571756972656400000000604482015260640160405180910390612e1f6153b3565b50505b60008060cb612e2f61541e565b906101000a90046001600160a01b03166001600160a01b0316637027ea6c856040516001600160e01b031960e084901b1681526001600160a01b0390911660048201526024016020604051808303818680612e88615553565b158015612e9d57600080612e9a6153b3565b50505b505a612ea761559f565b5050505050158015612ec6573d6000803e3d6000612ec36153b3565b50505b505050506040513d6020811015612ee557600080612ee26153b3565b50505b81019080805193505050506001600160a01b038116612f495760405162461bcd60e51b815260206004820152601360248201527234b73b30b634b2103232b9ba34b730ba34b7b760691b604482015260640160405180910390612f466153b3565b50505b600060cb612f5561541e565b906101000a90046001600160a01b03166001600160a01b0316638d554cad6040518163ffffffff1660e01b81526004016020604051808303818680612f98615553565b158015612fad57600080612faa6153b3565b50505b505a612fb761559f565b5050505050158015612fd6573d6000803e3d6000612fd36153b3565b50505b505050506040513d6020811015612ff557600080612ff26153b3565b50505b8101908080516001600160a01b038581169116141592508291506130e390505750600060ce61302261541e565b906101000a90046001600160a01b03166001600160a01b0316639be918e6856040516001600160e01b031960e084901b1681526001600160a01b039091166004820152602401602060405180830381868061307b615553565b1580156130905760008061308d6153b3565b50505b505a61309a61559f565b50505050501580156130b9573d6000803e3d60006130b66153b3565b50505b505050506040513d60208110156130d8576000806130d56153b3565b50505b810190808051925050505b6131275760405162461bcd60e51b815260040180806020018281038252602a81526020018061589d602a9139604001915050604051809103906131246153b3565b50505b6001600160a01b03811663e23ff437600060ce61314261541e565b906101000a90046001600160a01b0316856040518363ffffffff1660e01b815260040180836001600160a01b0316815260200180602001828103825283818151815260200191508051906020019080838360005b838110156131ae578082015183820152602001613196565b50505050905090810190601f1680156131db5780820380516001836020036101000a031916815260200191505b509350505050602060405180830381600087806131f6615553565b15801561320b576000806132086153b3565b50505b505a61321561568a565b505050505050158015613235573d6000803e3d60006132326153b3565b50505b505050506040513d6020811015613254576000806132516153b3565b50505b81019080805192506132ae9150505760405162461bcd60e51b815260206004820152601360248201527234b73b30b634b2103a3930b739b0b1ba34b7b760691b6044820152606401604051809103906132ab6153b3565b50505b6000846001600160a01b0316846040518082805190602001908083835b602083106132ea5780518252601f1990920191602091820191016132cb565b6001836020036101000a0380198251168184511680821785525050505050509050019150506000604051808303816000865a61332461568a565b5050505050509150503d8060008114613359576040513d603f01601f191681016040523d815291503d6000602084013e61335e565b606091505b50909150506001811515146133c25760405162461bcd60e51b815260206004820152601a60248201527f6661696c656420746f2065786563757465207468652063616c6c0000000000006044820152606401604051809103906133bf6153b3565b50505b7f4e86ad0da28cbaaaa7e93e36c43b32696e970535225b316f1b84fbf30bdc04e86133eb614407565b5a6133f461550d565b6040516001600160a01b03909216825260208201526040908101905180910390a1506001949350505050565b60008061342b6135c9565b905060006134376115ce565b90506134438282614e56565b9250505090565b6000613461838360200260040160ff166020613a91565b9392505050565b606060698061347561541e565b600181600116156101000203166002900480601f0160208091040260200160405190810160405281815291906020830182806134af61541e565b6001816001161561010002031660029004801561124f5780601f106134db57610100808361120f61541e565b820191906000526020600020905b816134f261541e565b815290600101906020018083116134e957509395945050505050565b600080613526848460200260040160ff166020613a91565b905061353784600483016020613a91565b949350505050565b600061126d61354c613e4e565b8461181e856040516060810160405260258082526159a8602083013960666000613574613e4e565b6001600160a01b03166001600160a01b031681526020019081526020016000206001600160a01b038a1660009081526020919091526040902061181761541e565b600061126d6135c2613e4e565b8484614457565b600080808060ce6135d861541e565b906101000a90046001600160a01b031690506060816001600160a01b031663e5406dbf6040518163ffffffff1660e01b81526004016000604051808303818680613620615553565b158015613635576000806136326153b3565b50505b505a61363f61559f565b505050505015801561365e573d6000803e3d600061365b6153b3565b50505b505050506040513d6000823e601f3d908101601f1916820160405260208110156136905760008061368d6153b3565b50505b8101908080516040519392919084600160201b8211156136b8576000806136b56153b3565b50505b9083019060208201858111156136d6576000806136d36153b3565b50505b82518660208202830111600160201b821117156136fb576000806136f86153b3565b50505b825250602001908051906020019060200280838360005b8381101561372a578082015183820152602001613712565b50505050905001604052505050905060008151905060005b8181101561382257613818846001600160a01b031663d8af8ed485848151811061376857fe5b60200260200101516040516001600160e01b031960e084901b1681526001600160a01b03909116600482015260240160206040518083038186806137aa615553565b1580156137bf576000806137bc6153b3565b50505b505a6137c961559f565b50505050501580156137e8573d6000803e3d60006137e56153b3565b50505b505050506040513d6020811015613807576000806138046153b3565b50505b810190808051899350915050614c8e565b9450600101613742565b5092935050505090565b600080613837612294565b6001600160a01b038416600090815260cd60205290915061385e82604083206120b961541e565b90505a61386961550d565b81101561387b57600092505050611794565b6135375a61388761550d565b8290614e86565b60008060ce61389b61541e565b906101000a90046001600160a01b03166001600160a01b031663bbbf725b836040516001600160e01b031960e084901b1681526001600160a01b03909116600482015260240160206040518083038186806138f4615553565b158015613909576000806139066153b3565b50505b505a61391361559f565b5050505050158015613932573d6000803e3d600061392f6153b3565b50505b505050506040513d60208110156139515760008061394e6153b3565b50505b81019080805195945050505050565b600061127182600061182d565b600060cb61118961541e565b600060cb61398561541e565b906101000a90046001600160a01b03166001600160a01b031663b187bd266040518163ffffffff1660e01b815260040160206040518083038186806139c8615553565b1580156139dd576000806139da6153b3565b50505b505a6139e761559f565b5050505050158015613a06573d6000803e3d6000613a036153b3565b50505b505050506040513d6020811015613a2557600080613a226153b3565b50505b810190808051159250613a7d9150505760405162461bcd60e51b815260206004820152601060248201526f18dbdb9d1c9858dd1cc81c185d5cd95960821b604482015260640160405180910390613a7a6153b3565b50505b613a85614695565b565b60ca6118b661541e565b600081830184511015613af35760405162461bcd60e51b815260206004820152601b60248201527f52656164696e67206279746573206f7574206f6620626f756e64730000000000604482015260640160405180910390613af06153b3565b50505b826020018401519050816020038015613b12576008810260020a820491505b509392505050565b6001600160a01b03821660009081526066602052604081206001600160a01b03831660009081526020919091526040902061346161541e565b600080613b5e6135c9565b90506000613b6a6115ce565b90506000808060cb613b7a61541e565b906101000a90046001600160a01b03166001600160a01b031663b7a545265a63996d79a5598160e01b8152602081600483336000905af158600e01573d6000803e3d6000fd5b3d6001141558600a015760016000f35b8051925060005b6040811015613bee57600082820152602001613bd7565b5050506040516001600160e01b031960e084901b1681526001600160a01b03909116600482015260240160408051808303818680613c2a615553565b158015613c3f57600080613c3c6153b3565b50505b505a613c4961559f565b5050505050158015613c68573d6000803e3d6000613c656153b3565b50505b505050506040513d6040811015613c8757600080613c846153b3565b50505b8101908080519291906020018051939550929350613cb7925086915085905060cc613cb061541e565b8585614ec6565b94505050505090565b6060600060ce613cce61541e565b906101000a90046001600160a01b03166001600160a01b031663fed4416a6040518163ffffffff1660e01b81526004016000604051808303818680613d11615553565b158015613d2657600080613d236153b3565b50505b505a613d3061559f565b5050505050158015613d4f573d6000803e3d6000613d4c6153b3565b50505b505050506040513d6000823e601f3d908101601f191682016040526020811015613d8157600080613d7e6153b3565b50505b8101908080516040519392919084600160201b821115613da957600080613da66153b3565b50505b908301906020820185811115613dc757600080613dc46153b3565b50505b8251600160201b811182820188101715613de957600080613de66153b3565b50505b825250602001908051906020019080838360005b83811015613e15578082015183820152602001613dfd565b50505050905090810190601f168015613e425780820380516001836020036101000a031916815260200191505b50604052505050905090565b60005a6115da6154c7565b6001600160a01b038316613ea75760405162461bcd60e51b81526004018080602001828103825260248152602001806159846024913960400191505060405180910390613ea46153b3565b50505b6001600160a01b038216613ef55760405162461bcd60e51b81526004018080602001828103825260228152602001806158556022913960400191505060405180910390613ef26153b3565b50505b6001600160a01b038316600090815260666020528190604090206001600160a01b0384166000908152602091909152604090208190613f32615479565b505050816001600160a01b0316836001600160a01b03167f8c5be1e5ebec7d5bd14f71427d1e84f3dd0314c0f7b2291e5b200ac8c7c3b9258360405190815260200160405180910390a3505050565b6000805a63996d79a5598160e01b8152602081600483336000905af158600e01573d6000803e3d6000fd5b3d6001141558600a015760016000f35b8051925060005b6040811015613fda57600082820152602001613fc3565b5050509050600081613fea615553565b159250505090565b60016000613ffe61541e565b906101000a900460ff16806140165750614016613f81565b80614033575060008061402761541e565b906101000a900460ff16155b6140775760405162461bcd60e51b815260040180806020018281038252602e815260200180615910602e9139604001915050604051809103906140746153b3565b50505b600060018161408461541e565b906101000a900460ff1615905080156140ea5760016000610100816140a761541e565b8160ff021916908315150217906140bc615479565b50505060016000806101000a816140d161541e565b8160ff021916908315150217906140e6615479565b5050505b6140f2614f35565b6140fc8383615041565b8015614126576000806101008161411161541e565b8160ff02191690831515021790611526615479565b505050565b6001600061413761541e565b906101000a900460ff168061414f575061414f613f81565b8061416c575060008061416061541e565b906101000a900460ff16155b6141b05760405162461bcd60e51b815260040180806020018281038252602e815260200180615910602e9139604001915050604051809103906141ad6153b3565b50505b60006001816141bd61541e565b906101000a900460ff1615905080156142235760016000610100816141e061541e565b8160ff021916908315150217906141f5615479565b50505060016000806101000a8161420a61541e565b8160ff0219169083151502179061421f615479565b5050505b61422b61519e565b80156121a3576000806101008161202361541e565b8060c960018161424e61541e565b8160ff02191690831515021790614263615479565b5050507f8d75e9ede4188432084b863d70b3416010c97547dfeb4fc17734d2e997ee0f3981604051901515815260200160405180910390a150565b60608182601f0110156142f15760405162461bcd60e51b815260206004820152600e60248201526d736c6963655f6f766572666c6f7760901b6044820152606401604051809103906142ee6153b3565b50505b8282840110156143415760405162461bcd60e51b815260206004820152600e60248201526d736c6963655f6f766572666c6f7760901b60448201526064016040518091039061433e6153b3565b50505b818301845110156143955760405162461bcd60e51b8152602060048201526011602482015270736c6963655f6f75744f66426f756e647360781b6044820152606401604051809103906143926153b3565b50505b6060821580156143b457604051915060008252602082016040526143fe565b6040519150601f8416801560200281840101858101878315602002848b0101015b818310156143ed5780518352602092830192016143d5565b5050858452601f01601f1916604052505b50949350505050565b60008060ce61441461541e565b906101000a90046001600160a01b03166001600160a01b031663481c6a756040518163ffffffff1660e01b815260040160206040518083038186806122e4615553565b6001600160a01b0383166144a55760405162461bcd60e51b815260040180806020018281038252602581526020018061595f60259139604001915050604051809103906144a26153b3565b50505b6001600160a01b0382166144f35760405162461bcd60e51b815260040180806020018281038252602381526020018061581060239139604001915050604051809103906144f06153b3565b50505b6144fe8383836152a4565b6145398160405160608101604052602680825261587760208301396001600160a01b038616600090815260656020526040902061181761541e565b6001600160a01b0384166000908152606560205260409020819061455b615479565b5050506001600160a01b03821660009081526065602052614584908290604090206120b961541e565b6001600160a01b038316600090815260656020526040902081906145a6615479565b505050816001600160a01b0316836001600160a01b03167fddf252ad1be2c89b69c2b068fc378daa952ba7f163c4a11628f55a4df523b3ef8360405190815260200160405180910390a3505050565b6000818484111561468d5760405162461bcd60e51b81526004018080602001828103825283818151815260200191508051906020019080838360005b83811015614649578082015183820152602001614631565b50505050905090810190601f1680156146765780820380516001836020036101000a031916815260200191505b50925050506040518091039061468a6153b3565b50505b505050900390565b600061469f6135c9565b905060006146ab6115ce565b90506000808060cb6146bb61541e565b906101000a90046001600160a01b03166001600160a01b031663b7a545265a63996d79a5598160e01b8152602081600483336000905af158600e01573d6000803e3d6000fd5b3d6001141558600a015760016000f35b8051925060005b604081101561472f57600082820152602001614718565b5050506040516001600160e01b031960e084901b1681526001600160a01b0390911660048201526024016040805180830381868061476b615553565b1580156147805760008061477d6153b3565b50505b505a61478a61559f565b50505050501580156147a9573d6000803e3d60006147a66153b3565b50505b505050506040513d60408110156147c8576000806147c56153b3565b50505b8101908080519291906020018051939550929350600092506147fa91508690508560cc6147f361541e565b8686614ec6565b9050606481101561480f575050505050613a85565b60008060cb61481c61541e565b906101000a90046001600160a01b03166001600160a01b0316631d68702d6040518163ffffffff1660e01b8152600401602060405180830381868061485f615553565b158015614874576000806148716153b3565b50505b505a61487e61559f565b505050505015801561489d573d6000803e3d600061489a6153b3565b50505b505050506040513d60208110156148bc576000806148b96153b3565b50505b81019080805193506000925082915081905060cb6148d861541e565b906101000a90046001600160a01b03166001600160a01b0316639cada6e46040518163ffffffff1660e01b81526004016040805180830381868061491a615553565b15801561492f5760008061492c6153b3565b50505b505a61493961559f565b5050505050158015614958573d6000803e3d60006149556153b3565b50505b505050506040513d6040811015614977576000806149746153b3565b50505b8101908080519291906020018051939550929350600092506149a19150839050611b488786614ac6565b905060006149af8683614e86565b905081156149c1576149c18583614ced565b80156149d2576149d26128fa614407565b6149dc8a8a614e56565b8060cc6149e7615479565b5050507f755a8059d66d8d243bc9f6913f429a811f154599d0538bb0b6a2ac23f23d2ccd5a63996d79a5598160e01b8152602081600483336000905af158600e01573d6000803e3d6000fd5b3d6001141558600a015760016000f35b8051925060005b6040811015614a6157600082820152602001614a4a565b505050614a6c614407565b88858560cc614a7961541e565b6040516001600160a01b0396871681529490951660208501526040808501939093526060840191909152608083015260a082019290925260c001905180910390a150505050505050505050565b600082614ad557506000611271565b82820282848281614ae257fe5b04146134615760405162461bcd60e51b81526004018080602001828103825260218152602001806158c76021913960400191505060405180910390614b256153b3565b50509392505050565b6000613461838360405160408082019052601a81527f536166654d6174683a206469766973696f6e206279207a65726f0000000000006020820152615308565b6001600160a01b038216614bbc5760405162461bcd60e51b815260040180806020018281038252602181526020018061593e6021913960400191505060405180910390614bb96153b3565b50505b614bc8826000836152a4565b614c038160405160608101604052602280825261583360208301396001600160a01b038516600090815260656020526040902061181761541e565b6001600160a01b03831660009081526065602052604090208190614c25615479565b505050614c3c816067614c3661541e565b90614e86565b806067614c47615479565b5060009150506001600160a01b0383167fddf252ad1be2c89b69c2b068fc378daa952ba7f163c4a11628f55a4df523b3ef8360405190815260200160405180910390a35050565b6000828201838110156134615760405162461bcd60e51b815260206004820152601b60248201527f536166654d6174683a206164646974696f6e206f766572666c6f770000000000604482015260640160405180910390614b256153b3565b6001600160a01b038216614d505760405162461bcd60e51b815260206004820152601f60248201527f45524332303a206d696e7420746f20746865207a65726f206164647265737300604482015260640160405180910390614d4d6153b3565b50505b614d5c600083836152a4565b614d6a8160676120b961541e565b806067614d75615479565b5050506001600160a01b03821660009081526065602052614d9e908290604090206120b961541e565b6001600160a01b03831660009081526065602052604090208190614dc0615479565b5050506001600160a01b03821660007fddf252ad1be2c89b69c2b068fc378daa952ba7f163c4a11628f55a4df523b3ef8360405190815260200160405180910390a35050565b60008060ce614e1361541e565b906101000a90046001600160a01b03166001600160a01b0316631758078b6040518163ffffffff1660e01b815260040160206040518083038186806122e4615553565b6000811580614e63575082155b15614e7057506000611271565b61346182611b4885670de0b6b3a7640000614ac6565b6000613461838360405160408082019052601e81527f536166654d6174683a207375627472616374696f6e206f766572666c6f77000060208201526145f5565b6000841580614ed3575085155b15614ee057506000611307565b6000614ef886611b4889670de0b6b3a7640000614ac6565b9050848111614f0b576000915050611307565b6000614f2982611b48868189614f238d81878f614e86565b90614ac6565b98975050505050505050565b60016000614f4161541e565b906101000a900460ff1680614f595750614f59613f81565b80614f765750600080614f6a61541e565b906101000a900460ff16155b614fba5760405162461bcd60e51b815260040180806020018281038252602e815260200180615910602e913960400191505060405180910390614fb76153b3565b50505b6000600181614fc761541e565b906101000a900460ff16159050801561422b576001600061010081614fea61541e565b8160ff02191690831515021790614fff615479565b50505060016000806101000a8161501461541e565b8160ff02191690831515021790615029615479565b50505080156121a3576000806101008161202361541e565b6001600061504d61541e565b906101000a900460ff16806150655750615065613f81565b80615082575060008061507661541e565b906101000a900460ff16155b6150c65760405162461bcd60e51b815260040180806020018281038252602e815260200180615910602e9139604001915050604051809103906150c36153b3565b50505b60006001816150d361541e565b906101000a900460ff1615905080156151395760016000610100816150f661541e565b8160ff0219169083151502179061510b615479565b50505060016000806101000a8161512061541e565b8160ff02191690831515021790615135615479565b5050505b606883805161514c929160200190615750565b506069828051615160929160200190615750565b506012606a60018161517061541e565b8160ff021916908360ff16021790615186615479565b5050508015614126576000806101008161411161541e565b600160006151aa61541e565b906101000a900460ff16806151c257506151c2613f81565b806151df57506000806151d361541e565b906101000a900460ff16155b6152235760405162461bcd60e51b815260040180806020018281038252602e815260200180615910602e9139604001915050604051809103906152206153b3565b50505b600060018161523061541e565b906101000a900460ff16159050801561529657600160006101008161525361541e565b8160ff02191690831515021790615268615479565b50505060016000806101000a8161527d61541e565b8160ff02191690831515021790615292615479565b5050505b60016097818161501461541e565b6152af838383614126565b6152b88361382c565b156141265760405162461bcd60e51b815260206004820152600f60248201526e636f6f6c646f776e2061637469766560881b6044820152606401604051809103906153016153b3565b5050505050565b6000818361539d5760405162461bcd60e51b81526004018080602001828103825283818151815260200191508051906020019080838360005b83811015615359578082015183820152602001615341565b50505050905090810190601f1680156153865780820380516001836020036101000a031916815260200191505b50925050506040518091039061539a6153b3565b50505b5060008385816153a957fe5b0495945050505050565b632a2a7adb598160e01b8152600481016020815285602082015260005b868110156153eb5780860151828201604001526020016153d0565b506020828760640184336000905af158600e01573d6000803e3d6000fd5b3d6001141558600a015760016000f35b505050565b6303daa959598160e01b8152836004820152602081602483336000905af158600e01573d6000803e3d6000fd5b3d6001141558600a015760016000f35b8051935060005b604081101561412657600082820152602001615462565b6322bd64c0598160e01b8152836004820152846024820152600081604483336000905af158600e01573d6000803e3d6000fd5b3d6001141558600a015760016000f35b600081526020615462565b6373509064598160e01b8152602081600483336000905af158600e01573d6000803e3d6000fd5b3d6001141558600a015760016000f35b80516000825293506020615462565b63bdbf8c36598160e01b8152602081600483336000905af158600e01573d6000803e3d6000fd5b3d6001141558600a015760016000f35b80516000825293506020615462565b638435035b598160e01b8152836004820152602081602483336000905af158600e01573d6000803e3d6000fd5b3d6001141558600a015760016000f35b80516000825293506020615462565b638540661f598160e01b81526155d0565b8080831115611271575090919050565b8080831015611271575090919050565b836004820152846024820152606060448201528660648201526084810160005b888110156156085780880151828201526020016155f0565b506060828960a40184336000905af158600e01573d6000803e3d6000fd5b3d6001141558600a015760016000f35b815160408301513d6000853e8b8b82606087013350600060045af1505961565d8d3d6155c0565b8c0161566981876155b0565b5b8281101561567e576000815260200161566a565b50929c50505050505050565b6385979f76598160e01b8152836004820152846024820152606060448201528760648201526084810160005b898110156156ce5780890151828201526020016156b6565b506060828a60a40184336000905af158600e01573d6000803e3d6000fd5b3d6001141558600a015760016000f35b815160408301513d6000853e8c8c82606087013350600060045af150596157238e3d6155c0565b8d0161572f81876155b0565b5b828110156157445760008152602001615730565b50929d50505050505050565b828061575a61541e565b600181600116156101000203166002900490600052602060002090601f016020900481019282601f106157a157805160ff1916838001178561579a615479565b50506157e0565b828001600101856157b0615479565b505082156157e0579182015b828111156157e0578251826157cf615479565b5050916020019190600101906157bc565b506157ec9291506157f0565b5090565b808211156157ec5760008082615804615479565b5050506001016157f056fe45524332303a207472616e7366657220746f20746865207a65726f206164647265737345524332303a206275726e20616d6f756e7420657863656564732062616c616e636545524332303a20617070726f766520746f20746865207a65726f206164647265737345524332303a207472616e7366657220616d6f756e7420657863656564732062616c616e6365696e76616c69642064657374696e6174696f6e206f72206173736574206e6f7420737570706f72746564536166654d6174683a206d756c7469706c69636174696f6e206f766572666c6f7745524332303a207472616e7366657220616d6f756e74206578636565647320616c6c6f77616e6365436f6e747261637420696e7374616e63652068617320616c7265616479206265656e20696e697469616c697a656445524332303a206275726e2066726f6d20746865207a65726f206164647265737345524332303a207472616e736665722066726f6d20746865207a65726f206164647265737345524332303a20617070726f76652066726f6d20746865207a65726f206164647265737345524332303a2064656372656173656420616c6c6f77616e63652062656c6f77207a65726f",
  "deployedBytecode": "0x6080604052348015610019576000806100166153b3565b50505b50600436106102725760003560e01c8063689015131161015a578063ad60ffcc116100cc578063cc3c6df611610090578063cc3c6df61461105a578063d8270dce14611062578063db896b571461106a578063dd62ed3e14611136578063edbf6f501461116d578063fed4416a1461117557610272565b8063ad60ffcc14610f25578063b8ea2b6e14610f2d578063bbbf725b14610f5c578063c3c6279f14610f8b578063c45a01551461105257610272565b80637ff9b5961161011e5780637ff9b59614610d1357806382f86acc14610d1b57806395d89b4114610de7578063998546e314610def578063a457c2d714610ebb578063a9059cbb14610ef057610272565b80636890151314610b0f57806370a0823114610bd6578063750226de14610c055780637714f39d14610c345780637ae7cfb514610c3c57610272565b806323b872dd116101f357806339509351116101b757806339509351146109965780633babaad5146109cb57806341dc16c3146109f35780634501b08814610aca57806347e7ef2414610ad257806359b5e75e14610b0757610272565b806323b872dd146107fe578063293d80631461083d57806329d16ee8146109235780632e1a7d4d14610952578063313ce5671461097857610272565b80631053f9521161023a5780631053f952146105d457806318160ddd146106a35780631c5918d2146106ab5780631e50a4a6146107d05780631eba3077146107d857610272565b806302d05d3f1461028057806306fdde03146102a4578063095ea7b31461032357806309ff5c7d1461036c5780630ccb30c71461044a575b60008061027d6153b3565b50505b61028861117d565b6040516001600160a01b03909116815260200160405180910390f35b6102ac61119c565b60405160208082528190810183818151815260200191508051906020019080838360005b838110156102e85780820151838201526020016102d0565b50505050905090810190601f1680156103155780820380516001836020036101000a031916815260200191505b509250505060405180910390f35b610358600480360360408110156103425760008061033f6153b3565b50505b506001600160a01b038135169060200135611259565b604051901515815260200160405180910390f35b6104386004803603604081101561038b576000806103886153b3565b50505b810190602081018135600160201b8111156103ae576000806103ab6153b3565b50505b8201836020820111156103c9576000806103c66153b3565b50505b803590602001918460018302840111600160201b831117156103f3576000806103f06153b3565b50505b91908080601f01602080910402602001604051908101604052818152929190602084018383808284376000920191909152509295505050903560ff1691506112779050565b60405190815260200160405180910390f35b6105d2600480360360a0811015610469576000806104666153b3565b50505b6001600160a01b03823516916020810135151591810190606081016040820135600160201b8111156104a3576000806104a06153b3565b50505b8201836020820111156104be576000806104bb6153b3565b50505b803590602001918460018302840111600160201b831117156104e8576000806104e56153b3565b50505b91908080601f01602080910402602001604051908101604052818152929190602084018383808284376000920191909152509295949360208101935035915050600160201b8111156105425760008061053f6153b3565b50505b82018360208201111561055d5760008061055a6153b3565b50505b803590602001918460018302840111600160201b83111715610587576000806105846153b3565b50505b91908080601f0160208091040260200160405190810160405281815292919060208401838380828437600092019190915250929550505090356001600160a01b031691506113109050565b005b6102ac600480360360608110156105f3576000806105f06153b3565b50505b810190602081018135600160201b811115610616576000806106136153b3565b50505b8201836020820111156106315760008061062e6153b3565b50505b803590602001918460018302840111600160201b8311171561065b576000806106586153b3565b50505b91908080601f01602080910402602001604051908101604052818152929190602084018383808284376000920191909152509295505060ff833516935050506020013561152e565b6104386115ce565b6106b36115df565b60405180806020018a8152602001898152602001886001600160a01b0316815260200180602001878152602001861515815260200185815260200184815260200183810383528c818151815260200191508051906020019080838360005b83811015610729578082015183820152602001610711565b50505050905090810190601f1680156107565780820380516001836020036101000a031916815260200191505b50838103825288818151815260200191508051906020019080838360005b8381101561078c578082015183820152602001610774565b50505050905090810190601f1680156107b95780820380516001836020036101000a031916815260200191505b509b50505050505050505050505060405180910390f35b610288611786565b610288600480360360208110156107f7576000806107f46153b3565b50505b5035611792565b6103586004803603606081101561081d5760008061081a6153b3565b50505b506001600160a01b03813581169160208101359091169060400135611799565b6109066004803603604081101561085c576000806108596153b3565b50505b810190602081018135600160201b81111561087f5760008061087c6153b3565b50505b82018360208201111561089a576000806108976153b3565b50505b803590602001918460018302840111600160201b831117156108c4576000806108c16153b3565b50505b91908080601f0160208091040260200160405190810160405281815292919060208401838380828437600092019190915250929550509135925061182d915050565b6040516001600160e01b0319909116815260200160405180910390f35b610438600480360360208110156109425760008061093f6153b3565b50505b50356001600160a01b031661189e565b6105d2600480360360208110156109715760008061096e6153b3565b50505b50356118b9565b61098061203e565b60405160ff909116815260200160405180910390f35b610358600480360360408110156109b5576000806109b26153b3565b50505b506001600160a01b03813516906020013561205a565b6105d2600480360360208110156109ea576000806109e76153b3565b50505b503515156120bf565b61043860048036036060811015610a1257600080610a0f6153b3565b50505b810190602081018135600160201b811115610a3557600080610a326153b3565b50505b820183602082011115610a5057600080610a4d6153b3565b50505b803590602001918460018302840111600160201b83111715610a7a57600080610a776153b3565b50505b91908080601f01602080910402602001604051908101604052818152929190602084018383808284376000920191909152509295505060ff83358116945060209093013590921691506121a69050565b610438612294565b61043860048036036040811015610af157600080610aee6153b3565b50505b506001600160a01b03813516906020013561234f565b610358612a07565b6102ac60048036036020811015610b2e57600080610b2b6153b3565b50505b810190602081018135600160201b811115610b5157600080610b4e6153b3565b50505b820183602082011115610b6c57600080610b696153b3565b50505b803590602001918460018302840111600160201b83111715610b9657600080610b936153b3565b50505b91908080601f0160208091040260200160405190810160405281815292919060208401838380828437600092019190915250929550612a20945050505050565b61043860048036036020811015610bf557600080610bf26153b3565b50505b50356001600160a01b0316612a34565b61035860048036036020811015610c2457600080610c216153b3565b50505b50356001600160a01b0316612a54565b610438612c0e565b61035860048036036040811015610c5b57600080610c586153b3565b50505b6001600160a01b038235169190810190604081016020820135600160201b811115610c8e57600080610c8b6153b3565b50505b820183602082011115610ca957600080610ca66153b3565b50505b803590602001918460018302840111600160201b83111715610cd357600080610cd06153b3565b50505b91908080601f0160208091040260200160405190810160405281815292919060208401838380828437600092019190915250929550612c18945050505050565b610438613420565b61043860048036036040811015610d3a57600080610d376153b3565b50505b810190602081018135600160201b811115610d5d57600080610d5a6153b3565b50505b820183602082011115610d7857600080610d756153b3565b50505b803590602001918460018302840111600160201b83111715610da257600080610d9f6153b3565b50505b91908080601f01602080910402602001604051908101604052818152929190602084018383808284376000920191909152509295505050903560ff16915061344a9050565b6102ac613468565b61043860048036036040811015610e0e57600080610e0b6153b3565b50505b810190602081018135600160201b811115610e3157600080610e2e6153b3565b50505b820183602082011115610e4c57600080610e496153b3565b50505b803590602001918460018302840111600160201b83111715610e7657600080610e736153b3565b50505b91908080601f01602080910402602001604051908101604052818152929190602084018383808284376000920191909152509295505050903560ff16915061350e9050565b61035860048036036040811015610eda57600080610ed76153b3565b50505b506001600160a01b03813516906020013561353f565b61035860048036036040811015610f0f57600080610f0c6153b3565b50505b506001600160a01b0381351690602001356135b5565b6104386135c9565b61043860048036036020811015610f4c57600080610f496153b3565b50505b50356001600160a01b031661382c565b61035860048036036020811015610f7b57600080610f786153b3565b50505b50356001600160a01b031661388e565b61090660048036036020811015610faa57600080610fa76153b3565b50505b810190602081018135600160201b811115610fcd57600080610fca6153b3565b50505b820183602082011115610fe857600080610fe56153b3565b50505b803590602001918460018302840111600160201b831117156110125760008061100f6153b3565b50505b91908080601f0160208091040260200160405190810160405281815292919060208401838380828437600092019190915250929550613960945050505050565b61028861396d565b6105d2613979565b610438613a87565b61043860048036036060811015611089576000806110866153b3565b50505b810190602081018135600160201b8111156110ac576000806110a96153b3565b50505b8201836020820111156110c7576000806110c46153b3565b50505b803590602001918460018302840111600160201b831117156110f1576000806110ee6153b3565b50505b91908080601f01602080910402602001604051908101604052818152929190602084018383808284376000920191909152509295505082359350505060200135613a91565b61043860048036036040811015611155576000806111526153b3565b50505b506001600160a01b0381358116916020013516613b1a565b610438613b53565b6102ac613cc0565b600160c961118961541e565b906101000a90046001600160a01b031681565b60606068806111a961541e565b600181600116156101000203166002900480601f0160208091040260200160405190810160405281815291906020830182806111e361541e565b6001816001161561010002031660029004801561124f5780601f1061121d57610100808361120f61541e565b04028352916020019161124f565b820191906000526020600020905b8161123461541e565b8152906001019060200180831161122b57829003601f168201915b5050505050905090565b600061126d611266613e4e565b8484613e59565b5060015b92915050565b60008061128f848460200260040160ff166020613a91565b905060006112a285600484016020613a91565b9050806112f35760405162461bcd60e51b8152602060048201526012602482015271696e707574206973206e6f7420617272617960701b6044820152606401604051809103906112f06153b3565b50505b611307856020808402850160040190613a91565b95945050505050565b6001600061131c61541e565b906101000a900460ff16806113345750611334613f81565b80611351575060008061134561541e565b906101000a900460ff16155b6113955760405162461bcd60e51b815260040180806020018281038252602e815260200180615910602e9139604001915050604051809103906113926153b3565b50505b60006001816113a261541e565b906101000a900460ff1615905080156114085760016000610100816113c561541e565b8160ff021916908315150217906113da615479565b50505060016000806101000a816113ef61541e565b8160ff02191690831515021790611404615479565b5050505b6114128484613ff2565b61141a61412b565b8560cb60018161142861541e565b816001600160a01b0302191690836001600160a01b031602179061144a615479565b50505061145685614240565b5a61145f6154c7565b60c96101008161146d61541e565b816001600160a01b0302191690836001600160a01b031602179061148f615479565b5050505a61149b61550d565b8060ca6114a6615479565b505050670de0b6b3a764000060cc81906114be615479565b5050508160ce60006101000a816114d361541e565b816001600160a01b0302191690836001600160a01b03160217906114f5615479565b5050508015611526576000806101008161150d61541e565b8160ff02191690831515021790611522615479565b5050505b505050505050565b60606014821061157e5760405162461bcd60e51b815260206004820152600e60248201526d1a5b9d985b1a59081bd9999cd95d60921b60448201526064016040518091039061157b6153b3565b50505b816020029150600061159d85848660200260040160ff16016020613a91565b905060006115b2868584016004016020613a91565b90506115c4866024848701018361429e565b9695505050505050565b600060676115da61541e565b905090565b606060008080838180808080808060cb6115f761541e565b906101000a90046001600160a01b03166001600160a01b031663b7a545265a63996d79a5598160e01b8152602081600483336000905af158601d01573d60011458600c01573d6000803e3d621234565260ea61109c528051925060005b604081101561166b57600082820152602001611654565b5050506040516001600160e01b031960e084901b1681526001600160a01b039091166004820152602401604080518083038186806116a7615553565b1580156116bc576000806116b96153b3565b50505b505a6116c661559f565b50505050501580156116e5573d6000803e3d60006116e26153b3565b50505b505050506040513d6040811015611704576000806117016153b3565b50505b8101908080519291906020018051939550929350611725925061119c915050565b61172d6115ce565b6117356135c9565b61173d614407565b611745613cc0565b60ca61174f61541e565b600060c961175b61541e565b906101000a900460ff1688889a509a509a509a509a509a509a509a509a505050909192939495969798565b600060ce61118961541e565b805b919050565b60006117a6848484614457565b611823846117b2613e4e565b61181e856040516060810160405260288082526158e860208301396001600160a01b038a16600090815260666020526040902060006117ef613e4e565b6001600160a01b03166001600160a01b0316815260200190815260200160002061181761541e565b91906145f5565b613e59565b5060019392505050565b600081600401835110156118905760405162461bcd60e51b815260206004820152601b60248201527f52656164696e67206279746573206f7574206f6620626f756e6473000000000060448201526064016040518091039061188d6153b3565b50505b816020018301519392505050565b60cd60205280600052604060002090506118b661541e565b81565b600060976118c561541e565b906101000a900460ff166119285760405162461bcd60e51b815260206004820152601f60248201527f5265656e7472616e637947756172643a207265656e7472616e742063616c6c006044820152606401604051809103906119256153b3565b50505b6000609760018161193761541e565b8160ff0219169083151502179061194c615479565b50505060cb60009061195c61541e565b906101000a90046001600160a01b03166001600160a01b031663b187bd266040518163ffffffff1660e01b8152600401602060405180830381868061199f615553565b1580156119b4576000806119b16153b3565b50505b505a6119be61559f565b50505050501580156119dd573d6000803e3d60006119da6153b3565b50505b505050506040513d60208110156119fc576000806119f96153b3565b50505b810190808051159250611a549150505760405162461bcd60e51b815260206004820152601060248201526f18dbdb9d1c9858dd1cc81c185d5cd95960821b604482015260640160405180910390611a516153b3565b50505b80611a665a611a616154c7565b612a34565b1015611ab85760405162461bcd60e51b8152602060048201526014602482015273696e73756666696369656e742062616c616e636560601b604482015260640160405180910390611ab56153b3565b50505b611ac95a611ac46154c7565b61382c565b15611b155760405162461bcd60e51b815260206004820152600f60248201526e636f6f6c646f776e2061637469766560881b604482015260640160405180910390611b126153b3565b50505b611b1d614695565b6000611b276135c9565b90506000611b4e611b366115ce565b611b4885670de0b6b3a7640000614ac6565b90614b2e565b9050611b625a611b5c6154c7565b84614b6e565b60008060ce611b6f61541e565b906101000a90046001600160a01b031690506060816001600160a01b031663e5406dbf6040518163ffffffff1660e01b81526004016000604051808303818680611bb7615553565b158015611bcc57600080611bc96153b3565b50505b505a611bd661559f565b5050505050158015611bf5573d6000803e3d6000611bf26153b3565b50505b505050506040513d6000823e601f3d908101601f191682016040526020811015611c2757600080611c246153b3565b50505b8101908080516040519392919084600160201b821115611c4f57600080611c4c6153b3565b50505b908301906020820185811115611c6d57600080611c6a6153b3565b50505b82518660208202830111600160201b82111715611c9257600080611c8f6153b3565b50505b825250602001908051906020019060200280838360005b83811015611cc1578082015183820152602001611ca9565b50505050905001604052505050905060008151905060005b81811015611ef6576000838281518110611cef57fe5b602002602001015190506000816001600160a01b03166370a082315a63996d79a5598160e01b8152602081600483336000905af158601d01573d60011458600c01573d6000803e3d621234565260ea61109c528051925060005b6040811015611d6057600082820152602001611d49565b5050506040516001600160e01b031960e084901b1681526001600160a01b0390911660048201526024016020604051808303818680611d9d615553565b158015611db257600080611daf6153b3565b50505b505a611dbc61559f565b5050505050158015611ddb573d6000803e3d6000611dd86153b3565b50505b505050506040513d6020811015611dfa57600080611df76153b3565b50505b810190808051935060009250611e209150670de0b6b3a76400009050611b48848b614ac6565b90508015611eeb57826001600160a01b031663a9059cbb5a611e406154c7565b836040516001600160e01b031960e085901b1681526001600160a01b039092166004830152602482015260440160206040518083038160008780611e82615553565b158015611e9757600080611e946153b3565b50505b505a611ea161568a565b505050505050158015611ec1573d6000803e3d6000611ebe6153b3565b50505b505050506040513d6020811015611ee057600080611edd6153b3565b50505b810190808051505050505b505050600101611cd9565b506000611f0f670de0b6b3a7640000611b488789614ac6565b90507f79d44cc8beeed36226f14818b2ecaca7ef252bcd56c9ae35f5a86869dbdefb975a63996d79a5598160e01b8152602081600483336000905af158601d01573d60011458600c01573d6000803e3d621234565260ea61109c528051925060005b6040811015611f8857600082820152602001611f71565b5050505a611f946154c7565b838a611fa25a611a616154c7565b611faa6135c9565b611fb26115ce565b5a611fbb61550d565b6040516001600160a01b0398891681529690971660208701526040808701959095526060860193909352608085019190915260a084015260c083015260e082019290925261010001905180910390a15050505050506001609760006101000a8161202361541e565b8160ff02191690831515021790612038615479565b50505050565b600080606a61204b61541e565b906101000a900460ff16905090565b600061126d612067613e4e565b8461181e8560666000612078613e4e565b6001600160a01b03166001600160a01b031681526020019081526020016000206001600160a01b0389166000908152602091909152604090206120b961541e565b90614c8e565b6120c7614407565b6001600160a01b03165a6120d96154c7565b6001600160a01b03161461212b5760405162461bcd60e51b815260206004820152600c60248201526b37b7363c9036b0b730b3b2b960a11b6044820152606401604051809103906121286153b3565b50505b801515600060c961213a61541e565b906101000a900460ff161515141561219a5760405162461bcd60e51b8152602060048201526016602482015275199b1859c81b5d5cdd08189948191a5999995c995b9d60521b6044820152606401604051809103906121976153b3565b50505b6121a381614240565b50565b6000806121be858560200260040160ff166020613a91565b905060006121d186600484016020613a91565b9050806122225760405162461bcd60e51b8152602060048201526012602482015271696e707574206973206e6f7420617272617960701b60448201526064016040518091039061221f6153b3565b50505b60ff8416811161227a5760405162461bcd60e51b815260206004820152601660248201527534b73b30b634b21030b93930bc903837b9b4ba34b7b760511b6044820152606401604051809103906122776153b3565b50505b6115c4866020600160ff8816018102850160040190613a91565b60008060cb6122a161541e565b906101000a90046001600160a01b03166001600160a01b0316634501b0886040518163ffffffff1660e01b815260040160206040518083038186806122e4615553565b1580156122f9576000806122f66153b3565b50505b505a61230361559f565b5050505050158015612322573d6000803e3d600061231f6153b3565b50505b505050506040513d60208110156123415760008061233e6153b3565b50505b810190808051935050505090565b6000612359614407565b6001600160a01b03165a61236b6154c7565b6001600160a01b031614806123935750600060c961238761541e565b906101000a900460ff16155b806123aa57506123aa5a6123a56154c7565b61388e565b6123fa5760405162461bcd60e51b81526020600482015260146024820152731bdb9b1e481b595b58995c9cc8185b1b1bddd95960621b6044820152606401604051809103906123f76153b3565b50505b600060cb61240661541e565b906101000a90046001600160a01b03166001600160a01b031663b187bd266040518163ffffffff1660e01b81526004016020604051808303818680612449615553565b15801561245e5760008061245b6153b3565b50505b505a61246861559f565b5050505050158015612487573d6000803e3d60006124846153b3565b50505b505050506040513d60208110156124a6576000806124a36153b3565b50505b8101908080511592506124fe9150505760405162461bcd60e51b815260206004820152601060248201526f18dbdb9d1c9858dd1cc81c185d5cd95960821b6044820152606401604051809103906124fb6153b3565b50505b600060ce61250a61541e565b906101000a90046001600160a01b03166001600160a01b031663bdbef07d846040516001600160e01b031960e084901b1681526001600160a01b0390911660048201526024016020604051808303818680612563615553565b158015612578576000806125756153b3565b50505b505a61258261559f565b50505050501580156125a1573d6000803e3d600061259e6153b3565b50505b505050506040513d60208110156125c0576000806125bd6153b3565b50505b810190808051925061261c9150505760405162461bcd60e51b81526020600482015260156024820152741a5b9d985b1a590819195c1bdcda5d08185cdcd95d605a1b6044820152606401604051809103906126196153b3565b50505b5a61262561550d565b60cd60005a6126326154c7565b6001600160a01b03166001600160a01b03168152602001908152602001600020819061265c615479565b505050612667614695565b60006126716135c9565b9050600061267d6115ce565b9050846001600160a01b03166323b872dd5a6126976154c7565b5a63996d79a5598160e01b8152602081600483336000905af158601d01573d60011458600c01573d6000803e3d621234565260ea61109c528051925060005b60408110156126ed576000828201526020016126d6565b505050876040516001600160e01b031960e086901b1681526001600160a01b03938416600482015291909216602482015260448101919091526064016020604051808303816000878061273e615553565b158015612753576000806127506153b3565b50505b505a61275d61568a565b50505050505015801561277d573d6000803e3d600061277a6153b3565b50505b505050506040513d602081101561279c576000806127996153b3565b50505b81019080805192506127f89150505760405162461bcd60e51b81526020600482015260156024820152741d1bdad95b881d1c985b9cd9995c8819985a5b1959605a1b6044820152606401604051809103906127f56153b3565b50505b60008060ce61280561541e565b906101000a90046001600160a01b03166001600160a01b03166329c07fba87876040516001600160e01b031960e085901b1681526001600160a01b03909216600483015260248201526044016020604051808303818680612864615553565b158015612879576000806128766153b3565b50505b505a61288361559f565b50505050501580156128a2573d6000803e3d600061289f6153b3565b50505b505050506040513d60208110156128c1576000806128be6153b3565b50505b81019080805193506000925050831590506128eb576128e484611b488486614ac6565b90506128ee565b50805b6129005a6128fa6154c7565b82614ced565b7f87fdcba84e083ebb8fd661bbafee3eb38764ec6f0cbeea8ed52deffa67bd45dc5a63996d79a5598160e01b8152602081600483336000905af158601d01573d60011458600c01573d6000803e3d621234565260ea61109c528051925060005b604081101561297757600082820152602001612960565b5050505a6129836154c7565b84846129915a611a616154c7565b61299b8a89614c8e565b6129a58a89614c8e565b5a6129ae61550d565b6040516001600160a01b0398891681529690971660208701526040808701959095526060860193909352608085019190915260a084015260c083015260e082019290925261010001905180910390a19695505050505050565b600060c9612a1361541e565b906101000a900460ff1681565b60606112716004808451859291900361429e565b6001600160a01b038116600090815260656020526040812061127161541e565b6000808060cb612a6261541e565b906101000a90046001600160a01b03166001600160a01b0316631d68702d6040518163ffffffff1660e01b81526004016020604051808303818680612aa5615553565b158015612aba57600080612ab76153b3565b50505b505a612ac461559f565b5050505050158015612ae3573d6000803e3d6000612ae06153b3565b50505b505050506040513d6020811015612b0257600080612aff6153b3565b50505b8101908080519350506001600160a01b0383169150505a612b216154c7565b6001600160a01b031614612b845760405162461bcd60e51b815260206004820152601860248201527f6f6e6c792044414f206164647265737320616c6c6f7765640000000000000000604482015260640160405180910390612b816153b3565b50505b8260ce600181612b9261541e565b816001600160a01b0302191690836001600160a01b0316021790612bb4615479565b5050507f63fb64c359a4cae97e1bf003c1ab11390b5f0e18cc5b3d67b90bd61c0f5c52fd835a612be26154c7565b6040516001600160a01b039283168152911660208201526040908101905180910390a150600192915050565b60cc6118b661541e565b6000612c22614407565b6001600160a01b03165a612c346154c7565b6001600160a01b03161480612c695750612c4c614e06565b6001600160a01b03165a612c5e6154c7565b6001600160a01b0316145b612cbb5760405162461bcd60e51b815260206004820152601660248201527537b7363c9036b0b730b3b2b91037b9103a3930b232b960511b604482015260640160405180910390612cb86153b3565b50505b600060cb612cc761541e565b906101000a90046001600160a01b03166001600160a01b031663b187bd266040518163ffffffff1660e01b81526004016020604051808303818680612d0a615553565b158015612d1f57600080612d1c6153b3565b50505b505a612d2961559f565b5050505050158015612d48573d6000803e3d6000612d456153b3565b50505b505050506040513d6020811015612d6757600080612d646153b3565b50505b810190808051159250612dbf9150505760405162461bcd60e51b815260206004820152601060248201526f18dbdb9d1c9858dd1cc81c185d5cd95960821b604482015260640160405180910390612dbc6153b3565b50505b6001600160a01b038316612e225760405162461bcd60e51b815260206004820152601c60248201527f6e6f6e2d7a65726f206164647265737320697320726571756972656400000000604482015260640160405180910390612e1f6153b3565b50505b60008060cb612e2f61541e565b906101000a90046001600160a01b03166001600160a01b0316637027ea6c856040516001600160e01b031960e084901b1681526001600160a01b0390911660048201526024016020604051808303818680612e88615553565b158015612e9d57600080612e9a6153b3565b50505b505a612ea761559f565b5050505050158015612ec6573d6000803e3d6000612ec36153b3565b50505b505050506040513d6020811015612ee557600080612ee26153b3565b50505b81019080805193505050506001600160a01b038116612f495760405162461bcd60e51b815260206004820152601360248201527234b73b30b634b2103232b9ba34b730ba34b7b760691b604482015260640160405180910390612f466153b3565b50505b600060cb612f5561541e565b906101000a90046001600160a01b03166001600160a01b0316638d554cad6040518163ffffffff1660e01b81526004016020604051808303818680612f98615553565b158015612fad57600080612faa6153b3565b50505b505a612fb761559f565b5050505050158015612fd6573d6000803e3d6000612fd36153b3565b50505b505050506040513d6020811015612ff557600080612ff26153b3565b50505b8101908080516001600160a01b038581169116141592508291506130e390505750600060ce61302261541e565b906101000a90046001600160a01b03166001600160a01b0316639be918e6856040516001600160e01b031960e084901b1681526001600160a01b039091166004820152602401602060405180830381868061307b615553565b1580156130905760008061308d6153b3565b50505b505a61309a61559f565b50505050501580156130b9573d6000803e3d60006130b66153b3565b50505b505050506040513d60208110156130d8576000806130d56153b3565b50505b810190808051925050505b6131275760405162461bcd60e51b815260040180806020018281038252602a81526020018061589d602a9139604001915050604051809103906131246153b3565b50505b6001600160a01b03811663e23ff437600060ce61314261541e565b906101000a90046001600160a01b0316856040518363ffffffff1660e01b815260040180836001600160a01b0316815260200180602001828103825283818151815260200191508051906020019080838360005b838110156131ae578082015183820152602001613196565b50505050905090810190601f1680156131db5780820380516001836020036101000a031916815260200191505b509350505050602060405180830381600087806131f6615553565b15801561320b576000806132086153b3565b50505b505a61321561568a565b505050505050158015613235573d6000803e3d60006132326153b3565b50505b505050506040513d6020811015613254576000806132516153b3565b50505b81019080805192506132ae9150505760405162461bcd60e51b815260206004820152601360248201527234b73b30b634b2103a3930b739b0b1ba34b7b760691b6044820152606401604051809103906132ab6153b3565b50505b6000846001600160a01b0316846040518082805190602001908083835b602083106132ea5780518252601f1990920191602091820191016132cb565b6001836020036101000a0380198251168184511680821785525050505050509050019150506000604051808303816000865a61332461568a565b5050505050509150503d8060008114613359576040513d603f01601f191681016040523d815291503d6000602084013e61335e565b606091505b50909150506001811515146133c25760405162461bcd60e51b815260206004820152601a60248201527f6661696c656420746f2065786563757465207468652063616c6c0000000000006044820152606401604051809103906133bf6153b3565b50505b7f4e86ad0da28cbaaaa7e93e36c43b32696e970535225b316f1b84fbf30bdc04e86133eb614407565b5a6133f461550d565b6040516001600160a01b03909216825260208201526040908101905180910390a1506001949350505050565b60008061342b6135c9565b905060006134376115ce565b90506134438282614e56565b9250505090565b6000613461838360200260040160ff166020613a91565b9392505050565b606060698061347561541e565b600181600116156101000203166002900480601f0160208091040260200160405190810160405281815291906020830182806134af61541e565b6001816001161561010002031660029004801561124f5780601f106134db57610100808361120f61541e565b820191906000526020600020905b816134f261541e565b815290600101906020018083116134e957509395945050505050565b600080613526848460200260040160ff166020613a91565b905061353784600483016020613a91565b949350505050565b600061126d61354c613e4e565b8461181e856040516060810160405260258082526159a8602083013960666000613574613e4e565b6001600160a01b03166001600160a01b031681526020019081526020016000206001600160a01b038a1660009081526020919091526040902061181761541e565b600061126d6135c2613e4e565b8484614457565b600080808060ce6135d861541e565b906101000a90046001600160a01b031690506060816001600160a01b031663e5406dbf6040518163ffffffff1660e01b81526004016000604051808303818680613620615553565b158015613635576000806136326153b3565b50505b505a61363f61559f565b505050505015801561365e573d6000803e3d600061365b6153b3565b50505b505050506040513d6000823e601f3d908101601f1916820160405260208110156136905760008061368d6153b3565b50505b8101908080516040519392919084600160201b8211156136b8576000806136b56153b3565b50505b9083019060208201858111156136d6576000806136d36153b3565b50505b82518660208202830111600160201b821117156136fb576000806136f86153b3565b50505b825250602001908051906020019060200280838360005b8381101561372a578082015183820152602001613712565b50505050905001604052505050905060008151905060005b8181101561382257613818846001600160a01b031663d8af8ed485848151811061376857fe5b60200260200101516040516001600160e01b031960e084901b1681526001600160a01b03909116600482015260240160206040518083038186806137aa615553565b1580156137bf576000806137bc6153b3565b50505b505a6137c961559f565b50505050501580156137e8573d6000803e3d60006137e56153b3565b50505b505050506040513d6020811015613807576000806138046153b3565b50505b810190808051899350915050614c8e565b9450600101613742565b5092935050505090565b600080613837612294565b6001600160a01b038416600090815260cd60205290915061385e82604083206120b961541e565b90505a61386961550d565b81101561387b57600092505050611794565b6135375a61388761550d565b8290614e86565b60008060ce61389b61541e565b906101000a90046001600160a01b03166001600160a01b031663bbbf725b836040516001600160e01b031960e084901b1681526001600160a01b03909116600482015260240160206040518083038186806138f4615553565b158015613909576000806139066153b3565b50505b505a61391361559f565b5050505050158015613932573d6000803e3d600061392f6153b3565b50505b505050506040513d60208110156139515760008061394e6153b3565b50505b81019080805195945050505050565b600061127182600061182d565b600060cb61118961541e565b600060cb61398561541e565b906101000a90046001600160a01b03166001600160a01b031663b187bd266040518163ffffffff1660e01b815260040160206040518083038186806139c8615553565b1580156139dd576000806139da6153b3565b50505b505a6139e761559f565b5050505050158015613a06573d6000803e3d6000613a036153b3565b50505b505050506040513d6020811015613a2557600080613a226153b3565b50505b810190808051159250613a7d9150505760405162461bcd60e51b815260206004820152601060248201526f18dbdb9d1c9858dd1cc81c185d5cd95960821b604482015260640160405180910390613a7a6153b3565b50505b613a85614695565b565b60ca6118b661541e565b600081830184511015613af35760405162461bcd60e51b815260206004820152601b60248201527f52656164696e67206279746573206f7574206f6620626f756e64730000000000604482015260640160405180910390613af06153b3565b50505b826020018401519050816020038015613b12576008810260020a820491505b509392505050565b6001600160a01b03821660009081526066602052604081206001600160a01b03831660009081526020919091526040902061346161541e565b600080613b5e6135c9565b90506000613b6a6115ce565b90506000808060cb613b7a61541e565b906101000a90046001600160a01b03166001600160a01b031663b7a545265a63996d79a5598160e01b8152602081600483336000905af158601d01573d60011458600c01573d6000803e3d621234565260ea61109c528051925060005b6040811015613bee57600082820152602001613bd7565b5050506040516001600160e01b031960e084901b1681526001600160a01b03909116600482015260240160408051808303818680613c2a615553565b158015613c3f57600080613c3c6153b3565b50505b505a613c4961559f565b5050505050158015613c68573d6000803e3d6000613c656153b3565b50505b505050506040513d6040811015613c8757600080613c846153b3565b50505b8101908080519291906020018051939550929350613cb7925086915085905060cc613cb061541e565b8585614ec6565b94505050505090565b6060600060ce613cce61541e565b906101000a90046001600160a01b03166001600160a01b031663fed4416a6040518163ffffffff1660e01b81526004016000604051808303818680613d11615553565b158015613d2657600080613d236153b3565b50505b505a613d3061559f565b5050505050158015613d4f573d6000803e3d6000613d4c6153b3565b50505b505050506040513d6000823e601f3d908101601f191682016040526020811015613d8157600080613d7e6153b3565b50505b8101908080516040519392919084600160201b821115613da957600080613da66153b3565b50505b908301906020820185811115613dc757600080613dc46153b3565b50505b8251600160201b811182820188101715613de957600080613de66153b3565b50505b825250602001908051906020019080838360005b83811015613e15578082015183820152602001613dfd565b50505050905090810190601f168015613e425780820380516001836020036101000a031916815260200191505b50604052505050905090565b60005a6115da6154c7565b6001600160a01b038316613ea75760405162461bcd60e51b81526004018080602001828103825260248152602001806159846024913960400191505060405180910390613ea46153b3565b50505b6001600160a01b038216613ef55760405162461bcd60e51b81526004018080602001828103825260228152602001806158556022913960400191505060405180910390613ef26153b3565b50505b6001600160a01b038316600090815260666020528190604090206001600160a01b0384166000908152602091909152604090208190613f32615479565b505050816001600160a01b0316836001600160a01b03167f8c5be1e5ebec7d5bd14f71427d1e84f3dd0314c0f7b2291e5b200ac8c7c3b9258360405190815260200160405180910390a3505050565b6000805a63996d79a5598160e01b8152602081600483336000905af158601d01573d60011458600c01573d6000803e3d621234565260ea61109c528051925060005b6040811015613fda57600082820152602001613fc3565b5050509050600081613fea615553565b159250505090565b60016000613ffe61541e565b906101000a900460ff16806140165750614016613f81565b80614033575060008061402761541e565b906101000a900460ff16155b6140775760405162461bcd60e51b815260040180806020018281038252602e815260200180615910602e9139604001915050604051809103906140746153b3565b50505b600060018161408461541e565b906101000a900460ff1615905080156140ea5760016000610100816140a761541e565b8160ff021916908315150217906140bc615479565b50505060016000806101000a816140d161541e565b8160ff021916908315150217906140e6615479565b5050505b6140f2614f35565b6140fc8383615041565b8015614126576000806101008161411161541e565b8160ff02191690831515021790611526615479565b505050565b6001600061413761541e565b906101000a900460ff168061414f575061414f613f81565b8061416c575060008061416061541e565b906101000a900460ff16155b6141b05760405162461bcd60e51b815260040180806020018281038252602e815260200180615910602e9139604001915050604051809103906141ad6153b3565b50505b60006001816141bd61541e565b906101000a900460ff1615905080156142235760016000610100816141e061541e565b8160ff021916908315150217906141f5615479565b50505060016000806101000a8161420a61541e565b8160ff0219169083151502179061421f615479565b5050505b61422b61519e565b80156121a3576000806101008161202361541e565b8060c960018161424e61541e565b8160ff02191690831515021790614263615479565b5050507f8d75e9ede4188432084b863d70b3416010c97547dfeb4fc17734d2e997ee0f3981604051901515815260200160405180910390a150565b60608182601f0110156142f15760405162461bcd60e51b815260206004820152600e60248201526d736c6963655f6f766572666c6f7760901b6044820152606401604051809103906142ee6153b3565b50505b8282840110156143415760405162461bcd60e51b815260206004820152600e60248201526d736c6963655f6f766572666c6f7760901b60448201526064016040518091039061433e6153b3565b50505b818301845110156143955760405162461bcd60e51b8152602060048201526011602482015270736c6963655f6f75744f66426f756e647360781b6044820152606401604051809103906143926153b3565b50505b6060821580156143b457604051915060008252602082016040526143fe565b6040519150601f8416801560200281840101858101878315602002848b0101015b818310156143ed5780518352602092830192016143d5565b5050858452601f01601f1916604052505b50949350505050565b60008060ce61441461541e565b906101000a90046001600160a01b03166001600160a01b031663481c6a756040518163ffffffff1660e01b815260040160206040518083038186806122e4615553565b6001600160a01b0383166144a55760405162461bcd60e51b815260040180806020018281038252602581526020018061595f60259139604001915050604051809103906144a26153b3565b50505b6001600160a01b0382166144f35760405162461bcd60e51b815260040180806020018281038252602381526020018061581060239139604001915050604051809103906144f06153b3565b50505b6144fe8383836152a4565b6145398160405160608101604052602680825261587760208301396001600160a01b038616600090815260656020526040902061181761541e565b6001600160a01b0384166000908152606560205260409020819061455b615479565b5050506001600160a01b03821660009081526065602052614584908290604090206120b961541e565b6001600160a01b038316600090815260656020526040902081906145a6615479565b505050816001600160a01b0316836001600160a01b03167fddf252ad1be2c89b69c2b068fc378daa952ba7f163c4a11628f55a4df523b3ef8360405190815260200160405180910390a3505050565b6000818484111561468d5760405162461bcd60e51b81526004018080602001828103825283818151815260200191508051906020019080838360005b83811015614649578082015183820152602001614631565b50505050905090810190601f1680156146765780820380516001836020036101000a031916815260200191505b50925050506040518091039061468a6153b3565b50505b505050900390565b600061469f6135c9565b905060006146ab6115ce565b90506000808060cb6146bb61541e565b906101000a90046001600160a01b03166001600160a01b031663b7a545265a63996d79a5598160e01b8152602081600483336000905af158601d01573d60011458600c01573d6000803e3d621234565260ea61109c528051925060005b604081101561472f57600082820152602001614718565b5050506040516001600160e01b031960e084901b1681526001600160a01b0390911660048201526024016040805180830381868061476b615553565b1580156147805760008061477d6153b3565b50505b505a61478a61559f565b50505050501580156147a9573d6000803e3d60006147a66153b3565b50505b505050506040513d60408110156147c8576000806147c56153b3565b50505b8101908080519291906020018051939550929350600092506147fa91508690508560cc6147f361541e565b8686614ec6565b9050606481101561480f575050505050613a85565b60008060cb61481c61541e565b906101000a90046001600160a01b03166001600160a01b0316631d68702d6040518163ffffffff1660e01b8152600401602060405180830381868061485f615553565b158015614874576000806148716153b3565b50505b505a61487e61559f565b505050505015801561489d573d6000803e3d600061489a6153b3565b50505b505050506040513d60208110156148bc576000806148b96153b3565b50505b81019080805193506000925082915081905060cb6148d861541e565b906101000a90046001600160a01b03166001600160a01b0316639cada6e46040518163ffffffff1660e01b81526004016040805180830381868061491a615553565b15801561492f5760008061492c6153b3565b50505b505a61493961559f565b5050505050158015614958573d6000803e3d60006149556153b3565b50505b505050506040513d6040811015614977576000806149746153b3565b50505b8101908080519291906020018051939550929350600092506149a19150839050611b488786614ac6565b905060006149af8683614e86565b905081156149c1576149c18583614ced565b80156149d2576149d26128fa614407565b6149dc8a8a614e56565b8060cc6149e7615479565b5050507f755a8059d66d8d243bc9f6913f429a811f154599d0538bb0b6a2ac23f23d2ccd5a63996d79a5598160e01b8152602081600483336000905af158601d01573d60011458600c01573d6000803e3d621234565260ea61109c528051925060005b6040811015614a6157600082820152602001614a4a565b505050614a6c614407565b88858560cc614a7961541e565b6040516001600160a01b0396871681529490951660208501526040808501939093526060840191909152608083015260a082019290925260c001905180910390a150505050505050505050565b600082614ad557506000611271565b82820282848281614ae257fe5b04146134615760405162461bcd60e51b81526004018080602001828103825260218152602001806158c76021913960400191505060405180910390614b256153b3565b50509392505050565b6000613461838360405160408082019052601a81527f536166654d6174683a206469766973696f6e206279207a65726f0000000000006020820152615308565b6001600160a01b038216614bbc5760405162461bcd60e51b815260040180806020018281038252602181526020018061593e6021913960400191505060405180910390614bb96153b3565b50505b614bc8826000836152a4565b614c038160405160608101604052602280825261583360208301396001600160a01b038516600090815260656020526040902061181761541e565b6001600160a01b03831660009081526065602052604090208190614c25615479565b505050614c3c816067614c3661541e565b90614e86565b806067614c47615479565b5060009150506001600160a01b0383167fddf252ad1be2c89b69c2b068fc378daa952ba7f163c4a11628f55a4df523b3ef8360405190815260200160405180910390a35050565b6000828201838110156134615760405162461bcd60e51b815260206004820152601b60248201527f536166654d6174683a206164646974696f6e206f766572666c6f770000000000604482015260640160405180910390614b256153b3565b6001600160a01b038216614d505760405162461bcd60e51b815260206004820152601f60248201527f45524332303a206d696e7420746f20746865207a65726f206164647265737300604482015260640160405180910390614d4d6153b3565b50505b614d5c600083836152a4565b614d6a8160676120b961541e565b806067614d75615479565b5050506001600160a01b03821660009081526065602052614d9e908290604090206120b961541e565b6001600160a01b03831660009081526065602052604090208190614dc0615479565b5050506001600160a01b03821660007fddf252ad1be2c89b69c2b068fc378daa952ba7f163c4a11628f55a4df523b3ef8360405190815260200160405180910390a35050565b60008060ce614e1361541e565b906101000a90046001600160a01b03166001600160a01b0316631758078b6040518163ffffffff1660e01b815260040160206040518083038186806122e4615553565b6000811580614e63575082155b15614e7057506000611271565b61346182611b4885670de0b6b3a7640000614ac6565b6000613461838360405160408082019052601e81527f536166654d6174683a207375627472616374696f6e206f766572666c6f77000060208201526145f5565b6000841580614ed3575085155b15614ee057506000611307565b6000614ef886611b4889670de0b6b3a7640000614ac6565b9050848111614f0b576000915050611307565b6000614f2982611b48868189614f238d81878f614e86565b90614ac6565b98975050505050505050565b60016000614f4161541e565b906101000a900460ff1680614f595750614f59613f81565b80614f765750600080614f6a61541e565b906101000a900460ff16155b614fba5760405162461bcd60e51b815260040180806020018281038252602e815260200180615910602e913960400191505060405180910390614fb76153b3565b50505b6000600181614fc761541e565b906101000a900460ff16159050801561422b576001600061010081614fea61541e565b8160ff02191690831515021790614fff615479565b50505060016000806101000a8161501461541e565b8160ff02191690831515021790615029615479565b50505080156121a3576000806101008161202361541e565b6001600061504d61541e565b906101000a900460ff16806150655750615065613f81565b80615082575060008061507661541e565b906101000a900460ff16155b6150c65760405162461bcd60e51b815260040180806020018281038252602e815260200180615910602e9139604001915050604051809103906150c36153b3565b50505b60006001816150d361541e565b906101000a900460ff1615905080156151395760016000610100816150f661541e565b8160ff0219169083151502179061510b615479565b50505060016000806101000a8161512061541e565b8160ff02191690831515021790615135615479565b5050505b606883805161514c929160200190615750565b506069828051615160929160200190615750565b506012606a60018161517061541e565b8160ff021916908360ff16021790615186615479565b5050508015614126576000806101008161411161541e565b600160006151aa61541e565b906101000a900460ff16806151c257506151c2613f81565b806151df57506000806151d361541e565b906101000a900460ff16155b6152235760405162461bcd60e51b815260040180806020018281038252602e815260200180615910602e9139604001915050604051809103906152206153b3565b50505b600060018161523061541e565b906101000a900460ff16159050801561529657600160006101008161525361541e565b8160ff02191690831515021790615268615479565b50505060016000806101000a8161527d61541e565b8160ff02191690831515021790615292615479565b5050505b60016097818161501461541e565b6152af838383614126565b6152b88361382c565b156141265760405162461bcd60e51b815260206004820152600f60248201526e636f6f6c646f776e2061637469766560881b6044820152606401604051809103906153016153b3565b5050505050565b6000818361539d5760405162461bcd60e51b81526004018080602001828103825283818151815260200191508051906020019080838360005b83811015615359578082015183820152602001615341565b50505050905090810190601f1680156153865780820380516001836020036101000a031916815260200191505b50925050506040518091039061539a6153b3565b50505b5060008385816153a957fe5b0495945050505050565b632a2a7adb598160e01b8152600481016020815285602082015260005b868110156153eb5780860151828201604001526020016153d0565b506020828760640184336000905af158601d01573d60011458600c01573d6000803e3d621234565260ea61109c52505050565b6303daa959598160e01b8152836004820152602081602483336000905af158601d01573d60011458600c01573d6000803e3d621234565260ea61109c528051935060005b604081101561412657600082820152602001615462565b6322bd64c0598160e01b8152836004820152846024820152600081604483336000905af158601d01573d60011458600c01573d6000803e3d621234565260ea61109c52600081526020615462565b6373509064598160e01b8152602081600483336000905af158601d01573d60011458600c01573d6000803e3d621234565260ea61109c5280516000825293506020615462565b63bdbf8c36598160e01b8152602081600483336000905af158601d01573d60011458600c01573d6000803e3d621234565260ea61109c5280516000825293506020615462565b638435035b598160e01b8152836004820152602081602483336000905af158601d01573d60011458600c01573d6000803e3d621234565260ea61109c5280516000825293506020615462565b638540661f598160e01b81526155d0565b8080831115611271575090919050565b8080831015611271575090919050565b836004820152846024820152606060448201528660648201526084810160005b888110156156085780880151828201526020016155f0565b506060828960a40184336000905af158601d01573d60011458600c01573d6000803e3d621234565260ea61109c52815160408301513d6000853e8b8b82606087013350600060045af1505961565d8d3d6155c0565b8c0161566981876155b0565b5b8281101561567e576000815260200161566a565b50929c50505050505050565b6385979f76598160e01b8152836004820152846024820152606060448201528760648201526084810160005b898110156156ce5780890151828201526020016156b6565b506060828a60a40184336000905af158601d01573d60011458600c01573d6000803e3d621234565260ea61109c52815160408301513d6000853e8c8c82606087013350600060045af150596157238e3d6155c0565b8d0161572f81876155b0565b5b828110156157445760008152602001615730565b50929d50505050505050565b828061575a61541e565b600181600116156101000203166002900490600052602060002090601f016020900481019282601f106157a157805160ff1916838001178561579a615479565b50506157e0565b828001600101856157b0615479565b505082156157e0579182015b828111156157e0578251826157cf615479565b5050916020019190600101906157bc565b506157ec9291506157f0565b5090565b808211156157ec5760008082615804615479565b5050506001016157f056fe45524332303a207472616e7366657220746f20746865207a65726f206164647265737345524332303a206275726e20616d6f756e7420657863656564732062616c616e636545524332303a20617070726f766520746f20746865207a65726f206164647265737345524332303a207472616e7366657220616d6f756e7420657863656564732062616c616e6365696e76616c69642064657374696e6174696f6e206f72206173736574206e6f7420737570706f72746564536166654d6174683a206d756c7469706c69636174696f6e206f766572666c6f7745524332303a207472616e7366657220616d6f756e74206578636565647320616c6c6f77616e6365436f6e747261637420696e7374616e63652068617320616c7265616479206265656e20696e697469616c697a656445524332303a206275726e2066726f6d20746865207a65726f206164647265737345524332303a207472616e736665722066726f6d20746865207a65726f206164647265737345524332303a20617070726f76652066726f6d20746865207a65726f206164647265737345524332303a2064656372656173656420616c6c6f77616e63652062656c6f77207a65726f",
  "linkReferences": {},
  "deployedLinkReferences": {}
}