{
  "_format": "hh-sol-artifact-1",
  "contractName": "PoolLogic",
  "sourceName": "contracts/PoolLogic.sol",
  "abi": [
    {
      "anonymous": false,
      "inputs": [
        {
          "indexed": true,
          "internalType": "address",
          "name": "owner",
          "type": "address"
        },
        {
          "indexed": true,
          "internalType": "address",
          "name": "spender",
          "type": "address"
        },
        {
          "indexed": false,
          "internalType": "uint256",
          "name": "value",
          "type": "uint256"
        }
      ],
      "name": "Approval",
      "type": "event"
    },
    {
      "anonymous": false,
      "inputs": [
        {
          "indexed": false,
          "internalType": "address",
          "name": "fundAddress",
          "type": "address"
        },
        {
          "indexed": false,
          "internalType": "address",
          "name": "investor",
          "type": "address"
        },
        {
          "indexed": false,
          "internalType": "uint256",
          "name": "valueDeposited",
          "type": "uint256"
        },
        {
          "indexed": false,
          "internalType": "uint256",
          "name": "fundTokensReceived",
          "type": "uint256"
        },
        {
          "indexed": false,
          "internalType": "uint256",
          "name": "totalInvestorFundTokens",
          "type": "uint256"
        },
        {
          "indexed": false,
          "internalType": "uint256",
          "name": "fundValue",
          "type": "uint256"
        },
        {
          "indexed": false,
          "internalType": "uint256",
          "name": "totalSupply",
          "type": "uint256"
        },
        {
          "indexed": false,
          "internalType": "uint256",
          "name": "time",
          "type": "uint256"
        }
      ],
      "name": "Deposit",
      "type": "event"
    },
    {
      "anonymous": false,
      "inputs": [
        {
          "indexed": false,
          "internalType": "address",
          "name": "pool",
          "type": "address"
        },
        {
          "indexed": false,
          "internalType": "address",
          "name": "manager",
          "type": "address"
        },
        {
          "indexed": false,
          "internalType": "uint256",
          "name": "available",
          "type": "uint256"
        },
        {
          "indexed": false,
          "internalType": "uint256",
          "name": "daoFee",
          "type": "uint256"
        },
        {
          "indexed": false,
          "internalType": "uint256",
          "name": "managerFee",
          "type": "uint256"
        },
        {
          "indexed": false,
          "internalType": "uint256",
          "name": "tokenPriceAtLastFeeMint",
          "type": "uint256"
        }
      ],
      "name": "ManagerFeeMinted",
      "type": "event"
    },
    {
      "anonymous": false,
      "inputs": [
        {
          "indexed": false,
          "internalType": "address",
          "name": "newManager",
          "type": "address"
        },
        {
          "indexed": false,
          "internalType": "string",
          "name": "newManagerName",
          "type": "string"
        }
      ],
      "name": "ManagerUpdated",
      "type": "event"
    },
    {
      "anonymous": false,
      "inputs": [
        {
          "indexed": false,
          "internalType": "address",
          "name": "poolManagerLogic",
          "type": "address"
        },
        {
          "indexed": false,
          "internalType": "address",
          "name": "from",
          "type": "address"
        }
      ],
      "name": "PoolManagerLogicSet",
      "type": "event"
    },
    {
      "anonymous": false,
      "inputs": [
        {
          "indexed": false,
          "internalType": "bool",
          "name": "isPoolPrivate",
          "type": "bool"
        }
      ],
      "name": "PoolPrivacyUpdated",
      "type": "event"
    },
    {
      "anonymous": false,
      "inputs": [
        {
          "indexed": true,
          "internalType": "address",
          "name": "from",
          "type": "address"
        },
        {
          "indexed": true,
          "internalType": "address",
          "name": "to",
          "type": "address"
        },
        {
          "indexed": false,
          "internalType": "uint256",
          "name": "value",
          "type": "uint256"
        }
      ],
      "name": "Transfer",
      "type": "event"
    },
    {
      "anonymous": false,
      "inputs": [
        {
          "indexed": false,
          "internalType": "address",
          "name": "fundAddress",
          "type": "address"
        },
        {
          "indexed": false,
          "internalType": "address",
          "name": "investor",
          "type": "address"
        },
        {
          "indexed": false,
          "internalType": "uint256",
          "name": "valueWithdrawn",
          "type": "uint256"
        },
        {
          "indexed": false,
          "internalType": "uint256",
          "name": "fundTokensWithdrawn",
          "type": "uint256"
        },
        {
          "indexed": false,
          "internalType": "uint256",
          "name": "totalInvestorFundTokens",
          "type": "uint256"
        },
        {
          "indexed": false,
          "internalType": "uint256",
          "name": "fundValue",
          "type": "uint256"
        },
        {
          "indexed": false,
          "internalType": "uint256",
          "name": "totalSupply",
          "type": "uint256"
        },
        {
          "indexed": false,
          "internalType": "uint256",
          "name": "time",
          "type": "uint256"
        }
      ],
      "name": "Withdrawal",
      "type": "event"
    },
    {
      "inputs": [
        {
          "internalType": "address",
          "name": "member",
          "type": "address"
        }
      ],
      "name": "addMember",
      "outputs": [],
      "stateMutability": "nonpayable",
      "type": "function"
    },
    {
      "inputs": [
        {
          "internalType": "address[]",
          "name": "members",
          "type": "address[]"
        }
      ],
      "name": "addMembers",
      "outputs": [],
      "stateMutability": "nonpayable",
      "type": "function"
    },
    {
      "inputs": [
        {
          "internalType": "address",
          "name": "owner",
          "type": "address"
        },
        {
          "internalType": "address",
          "name": "spender",
          "type": "address"
        }
      ],
      "name": "allowance",
      "outputs": [
        {
          "internalType": "uint256",
          "name": "",
          "type": "uint256"
        }
      ],
      "stateMutability": "view",
      "type": "function"
    },
    {
      "inputs": [
        {
          "internalType": "address",
          "name": "spender",
          "type": "address"
        },
        {
          "internalType": "uint256",
          "name": "amount",
          "type": "uint256"
        }
      ],
      "name": "approve",
      "outputs": [
        {
          "internalType": "bool",
          "name": "",
          "type": "bool"
        }
      ],
      "stateMutability": "nonpayable",
      "type": "function"
    },
    {
      "inputs": [],
      "name": "availableManagerFee",
      "outputs": [
        {
          "internalType": "uint256",
          "name": "",
          "type": "uint256"
        }
      ],
      "stateMutability": "view",
      "type": "function"
    },
    {
      "inputs": [
        {
          "internalType": "address",
          "name": "account",
          "type": "address"
        }
      ],
      "name": "balanceOf",
      "outputs": [
        {
          "internalType": "uint256",
          "name": "",
          "type": "uint256"
        }
      ],
      "stateMutability": "view",
      "type": "function"
    },
    {
      "inputs": [
        {
          "internalType": "address",
          "name": "newManager",
          "type": "address"
        },
        {
          "internalType": "string",
          "name": "newManagerName",
          "type": "string"
        }
      ],
      "name": "changeManager",
      "outputs": [],
      "stateMutability": "nonpayable",
      "type": "function"
    },
    {
      "inputs": [],
      "name": "creationTime",
      "outputs": [
        {
          "internalType": "uint256",
          "name": "",
          "type": "uint256"
        }
      ],
      "stateMutability": "view",
      "type": "function"
    },
    {
      "inputs": [],
      "name": "creator",
      "outputs": [
        {
          "internalType": "address",
          "name": "",
          "type": "address"
        }
      ],
      "stateMutability": "view",
      "type": "function"
    },
    {
      "inputs": [],
      "name": "decimals",
      "outputs": [
        {
          "internalType": "uint8",
          "name": "",
          "type": "uint8"
        }
      ],
      "stateMutability": "view",
      "type": "function"
    },
    {
      "inputs": [
        {
          "internalType": "address",
          "name": "spender",
          "type": "address"
        },
        {
          "internalType": "uint256",
          "name": "subtractedValue",
          "type": "uint256"
        }
      ],
      "name": "decreaseAllowance",
      "outputs": [
        {
          "internalType": "bool",
          "name": "",
          "type": "bool"
        }
      ],
      "stateMutability": "nonpayable",
      "type": "function"
    },
    {
      "inputs": [
        {
          "internalType": "uint256",
          "name": "_susdAmount",
          "type": "uint256"
        }
      ],
      "name": "deposit",
      "outputs": [
        {
          "internalType": "uint256",
          "name": "",
          "type": "uint256"
        }
      ],
      "stateMutability": "nonpayable",
      "type": "function"
    },
    {
      "inputs": [],
      "name": "factory",
      "outputs": [
        {
          "internalType": "address",
          "name": "",
          "type": "address"
        }
      ],
      "stateMutability": "view",
      "type": "function"
    },
    {
      "inputs": [],
      "name": "getExitCooldown",
      "outputs": [
        {
          "internalType": "uint256",
          "name": "",
          "type": "uint256"
        }
      ],
      "stateMutability": "view",
      "type": "function"
    },
    {
      "inputs": [
        {
          "internalType": "address",
          "name": "sender",
          "type": "address"
        }
      ],
      "name": "getExitRemainingCooldown",
      "outputs": [
        {
          "internalType": "uint256",
          "name": "",
          "type": "uint256"
        }
      ],
      "stateMutability": "view",
      "type": "function"
    },
    {
      "inputs": [],
      "name": "getFundSummary",
      "outputs": [
        {
          "internalType": "string",
          "name": "",
          "type": "string"
        },
        {
          "internalType": "uint256",
          "name": "",
          "type": "uint256"
        },
        {
          "internalType": "uint256",
          "name": "",
          "type": "uint256"
        },
        {
          "internalType": "address",
          "name": "",
          "type": "address"
        },
        {
          "internalType": "string",
          "name": "",
          "type": "string"
        },
        {
          "internalType": "uint256",
          "name": "",
          "type": "uint256"
        },
        {
          "internalType": "bool",
          "name": "",
          "type": "bool"
        },
        {
          "internalType": "uint256",
          "name": "",
          "type": "uint256"
        },
        {
          "internalType": "uint256",
          "name": "",
          "type": "uint256"
        }
      ],
      "stateMutability": "view",
      "type": "function"
    },
    {
      "inputs": [],
      "name": "getMembers",
      "outputs": [
        {
          "internalType": "address[]",
          "name": "",
          "type": "address[]"
        }
      ],
      "stateMutability": "view",
      "type": "function"
    },
    {
      "inputs": [],
      "name": "getPoolManagerLogic",
      "outputs": [
        {
          "internalType": "address",
          "name": "",
          "type": "address"
        }
      ],
      "stateMutability": "view",
      "type": "function"
    },
    {
      "inputs": [
        {
          "internalType": "address",
          "name": "spender",
          "type": "address"
        },
        {
          "internalType": "uint256",
          "name": "addedValue",
          "type": "uint256"
        }
      ],
      "name": "increaseAllowance",
      "outputs": [
        {
          "internalType": "bool",
          "name": "",
          "type": "bool"
        }
      ],
      "stateMutability": "nonpayable",
      "type": "function"
    },
    {
      "inputs": [
        {
          "internalType": "address",
          "name": "_factory",
          "type": "address"
        },
        {
          "internalType": "bool",
          "name": "_privatePool",
          "type": "bool"
        },
        {
          "internalType": "address",
          "name": "_manager",
          "type": "address"
        },
        {
          "internalType": "string",
          "name": "_managerName",
          "type": "string"
        },
        {
          "internalType": "string",
          "name": "_fundName",
          "type": "string"
        },
        {
          "internalType": "string",
          "name": "_fundSymbol",
          "type": "string"
        },
        {
          "internalType": "address",
          "name": "_poolManagerLogic",
          "type": "address"
        }
      ],
      "name": "initialize",
      "outputs": [],
      "stateMutability": "nonpayable",
      "type": "function"
    },
    {
      "inputs": [
        {
          "internalType": "address",
          "name": "member",
          "type": "address"
        }
      ],
      "name": "isMemberAllowed",
      "outputs": [
        {
          "internalType": "bool",
          "name": "",
          "type": "bool"
        }
      ],
      "stateMutability": "view",
      "type": "function"
    },
    {
      "inputs": [
        {
          "internalType": "address",
          "name": "",
          "type": "address"
        }
      ],
      "name": "lastDeposit",
      "outputs": [
        {
          "internalType": "uint256",
          "name": "",
          "type": "uint256"
        }
      ],
      "stateMutability": "view",
      "type": "function"
    },
    {
      "inputs": [],
      "name": "manager",
      "outputs": [
        {
          "internalType": "address",
          "name": "",
          "type": "address"
        }
      ],
      "stateMutability": "view",
      "type": "function"
    },
    {
      "inputs": [],
      "name": "managerName",
      "outputs": [
        {
          "internalType": "string",
          "name": "",
          "type": "string"
        }
      ],
      "stateMutability": "view",
      "type": "function"
    },
    {
      "inputs": [],
      "name": "mintManagerFee",
      "outputs": [],
      "stateMutability": "nonpayable",
      "type": "function"
    },
    {
      "inputs": [],
      "name": "name",
      "outputs": [
        {
          "internalType": "string",
          "name": "",
          "type": "string"
        }
      ],
      "stateMutability": "view",
      "type": "function"
    },
    {
      "inputs": [],
      "name": "numberOfMembers",
      "outputs": [
        {
          "internalType": "uint256",
          "name": "",
          "type": "uint256"
        }
      ],
      "stateMutability": "view",
      "type": "function"
    },
    {
      "inputs": [],
      "name": "poolManagerLogic",
      "outputs": [
        {
          "internalType": "address",
          "name": "",
          "type": "address"
        }
      ],
      "stateMutability": "view",
      "type": "function"
    },
    {
      "inputs": [],
      "name": "privatePool",
      "outputs": [
        {
          "internalType": "bool",
          "name": "",
          "type": "bool"
        }
      ],
      "stateMutability": "view",
      "type": "function"
    },
    {
      "inputs": [
        {
          "internalType": "address",
          "name": "member",
          "type": "address"
        }
      ],
      "name": "removeMember",
      "outputs": [],
      "stateMutability": "nonpayable",
      "type": "function"
    },
    {
      "inputs": [
        {
          "internalType": "address[]",
          "name": "members",
          "type": "address[]"
        }
      ],
      "name": "removeMembers",
      "outputs": [],
      "stateMutability": "nonpayable",
      "type": "function"
    },
    {
      "inputs": [],
      "name": "removeTrader",
      "outputs": [],
      "stateMutability": "nonpayable",
      "type": "function"
    },
    {
      "inputs": [
        {
          "internalType": "address",
          "name": "_poolManagerLogic",
          "type": "address"
        }
      ],
      "name": "setPoolManagerLogic",
      "outputs": [
        {
          "internalType": "bool",
          "name": "",
          "type": "bool"
        }
      ],
      "stateMutability": "nonpayable",
      "type": "function"
    },
    {
      "inputs": [
        {
          "internalType": "bool",
          "name": "_privatePool",
          "type": "bool"
        }
      ],
      "name": "setPoolPrivate",
      "outputs": [],
      "stateMutability": "nonpayable",
      "type": "function"
    },
    {
      "inputs": [
        {
          "internalType": "address",
          "name": "newTrader",
          "type": "address"
        }
      ],
      "name": "setTrader",
      "outputs": [],
      "stateMutability": "nonpayable",
      "type": "function"
    },
    {
      "inputs": [],
      "name": "symbol",
      "outputs": [
        {
          "internalType": "string",
          "name": "",
          "type": "string"
        }
      ],
      "stateMutability": "view",
      "type": "function"
    },
    {
      "inputs": [],
      "name": "tokenPrice",
      "outputs": [
        {
          "internalType": "uint256",
          "name": "",
          "type": "uint256"
        }
      ],
      "stateMutability": "view",
      "type": "function"
    },
    {
      "inputs": [],
      "name": "tokenPriceAtLastFeeMint",
      "outputs": [
        {
          "internalType": "uint256",
          "name": "",
          "type": "uint256"
        }
      ],
      "stateMutability": "view",
      "type": "function"
    },
    {
      "inputs": [],
      "name": "totalFundValue",
      "outputs": [
        {
          "internalType": "uint256",
          "name": "",
          "type": "uint256"
        }
      ],
      "stateMutability": "view",
      "type": "function"
    },
    {
      "inputs": [],
      "name": "totalSupply",
      "outputs": [
        {
          "internalType": "uint256",
          "name": "",
          "type": "uint256"
        }
      ],
      "stateMutability": "view",
      "type": "function"
    },
    {
      "inputs": [],
      "name": "trader",
      "outputs": [
        {
          "internalType": "address",
          "name": "",
          "type": "address"
        }
      ],
      "stateMutability": "view",
      "type": "function"
    },
    {
      "inputs": [
        {
          "internalType": "address",
          "name": "recipient",
          "type": "address"
        },
        {
          "internalType": "uint256",
          "name": "amount",
          "type": "uint256"
        }
      ],
      "name": "transfer",
      "outputs": [
        {
          "internalType": "bool",
          "name": "",
          "type": "bool"
        }
      ],
      "stateMutability": "nonpayable",
      "type": "function"
    },
    {
      "inputs": [
        {
          "internalType": "address",
          "name": "sender",
          "type": "address"
        },
        {
          "internalType": "address",
          "name": "recipient",
          "type": "address"
        },
        {
          "internalType": "uint256",
          "name": "amount",
          "type": "uint256"
        }
      ],
      "name": "transferFrom",
      "outputs": [
        {
          "internalType": "bool",
          "name": "",
          "type": "bool"
        }
      ],
      "stateMutability": "nonpayable",
      "type": "function"
    },
    {
      "inputs": [
        {
          "internalType": "uint256",
          "name": "_fundTokenAmount",
          "type": "uint256"
        }
      ],
      "name": "withdraw",
      "outputs": [],
      "stateMutability": "nonpayable",
      "type": "function"
    }
  ],
  "bytecode": "0x608060405234801561001057600080fd5b50613333806100206000396000f3fe608060405234801561001057600080fd5b50600436106102745760003560e01c80637714f39d11610151578063b6b55f25116100c3578063cc3c6df611610087578063cc3c6df6146109af578063cdfa79d2146109b7578063d8270dce14610b91578063dd62ed3e14610b99578063edbf6f5014610bc7578063fed4416a14610bcf57610274565b8063b6b55f2514610918578063b8ea2b6e14610935578063bbbf725b1461095b578063c45a015514610981578063ca6d56dc1461098957610274565b80639eab5253116101155780639eab525314610832578063a30e3fa91461088a578063a457c2d714610892578063a6bc18f9146108be578063a9059cbb146108e4578063ad60ffcc1461091057610274565b80637714f39d1461080a5780637c8afd51146108125780637ff9b5961461081a57806395d89b41146108225780639e24b07f1461082a57610274565b8063313ce567116101ea578063481c6a75116101ae578063481c6a7514610659578063522136631461066157806359b5e75e146107155780636f4d469b1461071d57806370a08231146107be578063750226de146107e457610274565b8063313ce5671461054757806339509351146105655780633babaad5146105915780634501b088146105b057806346ee84b0146105b857610274565b806318160ddd1161023c57806318160ddd1461038a5780631c5918d2146103a45780631e50a4a6146104c657806323b872dd146104ce57806329d16ee8146105045780632e1a7d4d1461052a57610274565b806302d05d3f1461027957806306fdde031461029d578063095ea7b31461031a5780630b1ca49a1461035a5780631758078b14610382575b600080fd5b610281610bd7565b604080516001600160a01b039092168252519081900360200190f35b6102a5610be6565b6040805160208082528351818301528351919283929083019185019080838360005b838110156102df5781810151838201526020016102c7565b50505050905090810190601f16801561030c5780820380516001836020036101000a031916815260200191505b509250505060405180910390f35b6103466004803603604081101561033057600080fd5b506001600160a01b038135169060200135610c7c565b604080519115158252519081900360200190f35b6103806004803603602081101561037057600080fd5b50356001600160a01b0316610c9a565b005b610281610d06565b610392610d15565b60408051918252519081900360200190f35b6103ac610d1b565b60405180806020018a8152602001898152602001886001600160a01b0316815260200180602001878152602001861515815260200185815260200184815260200183810383528c818151815260200191508051906020019080838360005b8381101561042257818101518382015260200161040a565b50505050905090810190601f16801561044f5780820380516001836020036101000a031916815260200191505b5083810382528851815288516020918201918a019080838360005b8381101561048257818101518382015260200161046a565b50505050905090810190601f1680156104af5780820380516001836020036101000a031916815260200191505b509b50505050505050505050505060405180910390f35b610281610e22565b610346600480360360608110156104e457600080fd5b506001600160a01b03813581169160208101359091169060400135610e31565b6103926004803603602081101561051a57600080fd5b50356001600160a01b0316610eb8565b6103806004803603602081101561054057600080fd5b5035610eca565b61054f611319565b6040805160ff9092168252519081900360200190f35b6103466004803603604081101561057b57600080fd5b506001600160a01b038135169060200135611322565b610380600480360360208110156105a757600080fd5b50351515611370565b610392611426565b610380600480360360208110156105ce57600080fd5b810190602081018135600160201b8111156105e857600080fd5b8201836020820111156105fa57600080fd5b803590602001918460208302840111600160201b8311171561061b57600080fd5b91908080602002602001604051908101604052809392919081815260200183836020028082843760009201919091525092955061149c945050505050565b610281611543565b6103806004803603604081101561067757600080fd5b6001600160a01b038235169190810190604081016020820135600160201b8111156106a157600080fd5b8201836020820111156106b357600080fd5b803590602001918460018302840111600160201b831117156106d457600080fd5b91908080601f016020809104026020016040519081016040528093929190818152602001838380828437600092019190915250929550611552945050505050565b61034661167d565b6103806004803603602081101561073357600080fd5b810190602081018135600160201b81111561074d57600080fd5b82018360208201111561075f57600080fd5b803590602001918460208302840111600160201b8311171561078057600080fd5b91908080602002602001604051908101604052809392919081815260200183836020028082843760009201919091525092955061168d945050505050565b610392600480360360208110156107d457600080fd5b50356001600160a01b0316611724565b610346600480360360208110156107fa57600080fd5b50356001600160a01b0316611743565b61039261187f565b610380611885565b6103926118e5565b6102a561190f565b610281611970565b61083a61197f565b60408051602080825283518183015283519192839290830191858101910280838360005b8381101561087657818101518382015260200161085e565b505050509050019250505060405180910390f35b6103926119e0565b610346600480360360408110156108a857600080fd5b506001600160a01b0381351690602001356119e6565b610380600480360360208110156108d457600080fd5b50356001600160a01b0316611a4e565b610346600480360360408110156108fa57600080fd5b506001600160a01b038135169060200135611abe565b610392611ad2565b6103926004803603602081101561092e57600080fd5b5035611c9b565b6103926004803603602081101561094b57600080fd5b50356001600160a01b0316611f62565b6103466004803603602081101561097157600080fd5b50356001600160a01b0316611fbb565b610281611fd8565b6103806004803603602081101561099f57600080fd5b50356001600160a01b0316611fe7565b610380612051565b610380600480360360e08110156109cd57600080fd5b6001600160a01b0382358116926020810135151592604082013590921691810190608081016060820135600160201b811115610a0857600080fd5b820183602082011115610a1a57600080fd5b803590602001918460018302840111600160201b83111715610a3b57600080fd5b91908080601f0160208091040260200160405190810160405280939291908181526020018383808284376000920191909152509295949360208101935035915050600160201b811115610a8d57600080fd5b820183602082011115610a9f57600080fd5b803590602001918460018302840111600160201b83111715610ac057600080fd5b91908080601f0160208091040260200160405190810160405280939291908181526020018383808284376000920191909152509295949360208101935035915050600160201b811115610b1257600080fd5b820183602082011115610b2457600080fd5b803590602001918460018302840111600160201b83111715610b4557600080fd5b91908080601f016020809104026020016040519081016040528093929190818152602001838380828437600092019190915250929550505090356001600160a01b0316915061205b9050565b610392612175565b61039260048036036040811015610baf57600080fd5b506001600160a01b038135811691602001351661217b565b6103926121a6565b6102a561225c565b609c546001600160a01b031681565b60688054604080516020601f6002600019610100600188161502019095169490940493840181900481028201810190925282815260609390929091830182828015610c725780601f10610c4757610100808354040283529160200191610c72565b820191906000526020600020905b815481529060010190602001808311610c5557829003601f168201915b5050505050905090565b6000610c90610c896122bd565b84846122c1565b5060015b92915050565b6097546001600160a01b03163314610ce8576040805162461bcd60e51b815260206004820152600c60248201526b37b7363c9036b0b730b3b2b960a11b604482015290519081900360640190fd5b610cf181611fbb565b610cfa57610d03565b610d03816123ad565b50565b609b546001600160a01b031690565b60675490565b606060008060006060600080600080600080609e60009054906101000a90046001600160a01b03166001600160a01b031663b7a54526306040518263ffffffff1660e01b815260040180826001600160a01b03168152602001915050604080518083038186803b158015610d8e57600080fd5b505afa158015610da2573d6000803e3d6000fd5b505050506040513d6040811015610db857600080fd5b5080516020909101519092509050610dce610be6565b610dd6610d15565b610dde611ad2565b610de6611543565b610dee61225c565b609d54609b60149054906101000a900460ff1688889a509a509a509a509a509a509a509a509a505050909192939495969798565b60a1546001600160a01b031681565b6000610e3e8484846124a6565b610eae84610e4a6122bd565b610ea9856040518060600160405280602881526020016131f6602891396001600160a01b038a16600090815260666020526040812090610e886122bd565b6001600160a01b031681526020810191909152604001600020549190612603565b6122c1565b5060019392505050565b60a06020526000908152604090205481565b80610ed433611724565b1015610f115760405162461bcd60e51b81526004018080602001828103825260238152602001806132db6023913960400191505060405180910390fd5b610f1a33611f62565b15610f5e576040805162461bcd60e51b815260206004820152600f60248201526e636f6f6c646f776e2061637469766560881b604482015290519081900360640190fd5b610f6661269a565b6000610f70611ad2565b90506000610f97610f7f610d15565b610f9185670de0b6b3a7640000612918565b90612978565b9050610fa333846129ba565b60a1546040805163e5406dbf60e01b815290516001600160a01b0390921691606091839163e5406dbf91600480820192600092909190829003018186803b158015610fed57600080fd5b505afa158015611001573d6000803e3d6000fd5b505050506040513d6000823e601f3d908101601f19168201604052602081101561102a57600080fd5b8101908080516040519392919084600160201b82111561104957600080fd5b90830190602082018581111561105e57600080fd5b82518660208202830111600160201b8211171561107a57600080fd5b82525081516020918201928201910280838360005b838110156110a757818101518382015260200161108f565b50505050905001604052505050905060008151905060005b8181101561126d576000846001600160a01b0316633ded65308584815181106110e457fe5b60200260200101516040518263ffffffff1660e01b81526004018082815260200191505060206040518083038186803b15801561112057600080fd5b505afa158015611134573d6000803e3d6000fd5b505050506040513d602081101561114a57600080fd5b5051604080516370a0823160e01b815230600482015290519192506000916001600160a01b038416916370a08231916024808301926020929190829003018186803b15801561119857600080fd5b505afa1580156111ac573d6000803e3d6000fd5b505050506040513d60208110156111c257600080fd5b5051905060006111de670de0b6b3a7640000610f91848b612918565b90508015611262576040805163a9059cbb60e01b81523360048201526024810183905290516001600160a01b0385169163a9059cbb9160448083019260209291908290030181600087803b15801561123557600080fd5b505af1158015611249573d6000803e3d6000fd5b505050506040513d602081101561125f57600080fd5b50505b5050506001016110bf565b506000611286670de0b6b3a7640000610f918789612918565b90507f79d44cc8beeed36226f14818b2ecaca7ef252bcd56c9ae35f5a86869dbdefb973033838a6112b633611724565b6112be611ad2565b6112c6610d15565b604080516001600160a01b039889168152969097166020870152858701949094526060850192909252608084015260a083015260c08201524260e08201529051908190036101000190a150505050505050565b606a5460ff1690565b6000610c9061132f6122bd565b84610ea985606660006113406122bd565b6001600160a01b03908116825260208083019390935260409182016000908120918c168152925290205490612ab6565b6097546001600160a01b031633146113be576040805162461bcd60e51b815260206004820152600c60248201526b37b7363c9036b0b730b3b2b960a11b604482015290519081900360640190fd5b609b5460ff600160a01b909104161515811515141561141d576040805162461bcd60e51b8152602060048201526016602482015275199b1859c81b5d5cdd08189948191a5999995c995b9d60521b604482015290519081900360640190fd5b610d0381612b10565b609e54604080516308a0361160e31b815290516000926001600160a01b031691634501b088916004808301926020929190829003018186803b15801561146b57600080fd5b505afa15801561147f573d6000803e3d6000fd5b505050506040513d602081101561149557600080fd5b5051905090565b6097546001600160a01b031633146114ea576040805162461bcd60e51b815260206004820152600c60248201526b37b7363c9036b0b730b3b2b960a11b604482015290519081900360640190fd5b60005b815181101561153f5761151282828151811061150557fe5b6020026020010151611fbb565b61151b57611537565b61153782828151811061152a57fe5b60200260200101516123ad565b6001016114ed565b5050565b6097546001600160a01b031690565b6097546001600160a01b031633146115a0576040805162461bcd60e51b815260206004820152600c60248201526b37b7363c9036b0b730b3b2b960a11b604482015290519081900360640190fd5b609780546001600160a01b0319166001600160a01b03841617905580516115ce9060989060208401906130b4565b507f6ed15082ad038474841528b5badca105106d4463e44b5d434130dfb299aa3669828260405180836001600160a01b0316815260200180602001828103825283818151815260200191508051906020019080838360005b8381101561163e578181015183820152602001611626565b50505050905090810190601f16801561166b5780820380516001836020036101000a031916815260200191505b50935050505060405180910390a15050565b609b54600160a01b900460ff1681565b6097546001600160a01b031633146116db576040805162461bcd60e51b815260206004820152600c60248201526b37b7363c9036b0b730b3b2b960a11b604482015290519081900360640190fd5b60005b815181101561153f576116f682828151811061150557fe5b156117005761171c565b61171c82828151811061170f57fe5b6020026020010151612b63565b6001016116de565b6001600160a01b0381166000908152606560205260409020545b919050565b600080609e60009054906101000a90046001600160a01b03166001600160a01b0316631d68702d6040518163ffffffff1660e01b815260040160206040518083038186803b15801561179457600080fd5b505afa1580156117a8573d6000803e3d6000fd5b505050506040513d60208110156117be57600080fd5b50519050336001600160a01b0382161461181f576040805162461bcd60e51b815260206004820152601860248201527f6f6e6c792044414f206164647265737320616c6c6f7765640000000000000000604482015290519081900360640190fd5b60a180546001600160a01b0319166001600160a01b0385169081179091556040805191825233602083015280517f63fb64c359a4cae97e1bf003c1ab11390b5f0e18cc5b3d67b90bd61c0f5c52fd9281900390910190a150600192915050565b609f5481565b6097546001600160a01b031633146118d3576040805162461bcd60e51b815260206004820152600c60248201526b37b7363c9036b0b730b3b2b960a11b604482015290519081900360640190fd5b609b80546001600160a01b0319169055565b6000806118f0611ad2565b905060006118fc610d15565b90506119088282612bbf565b9250505090565b60698054604080516020601f6002600019610100600188161502019095169490940493840181900481028201810190925282815260609390929091830182828015610c725780601f10610c4757610100808354040283529160200191610c72565b60a1546001600160a01b031690565b60606099805480602002602001604051908101604052809291908181526020018280548015610c7257602002820191906000526020600020905b81546001600160a01b031681526001909101906020018083116119b9575050505050905090565b60995490565b6000610c906119f36122bd565b84610ea9856040518060600160405280602581526020016132b66025913960666000611a1d6122bd565b6001600160a01b03908116825260208083019390935260409182016000908120918d16815292529020549190612603565b6097546001600160a01b03163314611a9c576040805162461bcd60e51b815260206004820152600c60248201526b37b7363c9036b0b730b3b2b960a11b604482015290519081900360640190fd5b609b80546001600160a01b0319166001600160a01b0392909216919091179055565b6000610c90611acb6122bd565b84846124a6565b60a1546040805163e5406dbf60e01b8152905160009283926001600160a01b0390911691606091839163e5406dbf916004808201928892909190829003018186803b158015611b2057600080fd5b505afa158015611b34573d6000803e3d6000fd5b505050506040513d6000823e601f3d908101601f191682016040526020811015611b5d57600080fd5b8101908080516040519392919084600160201b821115611b7c57600080fd5b908301906020820185811115611b9157600080fd5b82518660208202830111600160201b82111715611bad57600080fd5b82525081516020918201928201910280838360005b83811015611bda578181015183820152602001611bc2565b50505050905001604052505050905060008151905060005b81811015611c9157611c87846001600160a01b0316630499123f858481518110611c1857fe5b60200260200101516040518263ffffffff1660e01b81526004018082815260200191505060206040518083038186803b158015611c5457600080fd5b505afa158015611c68573d6000803e3d6000fd5b505050506040513d6020811015611c7e57600080fd5b50518690612ab6565b9450600101611bf2565b5092935050505090565b6000611ca5611543565b6001600160a01b0316336001600160a01b03161480611cce5750609b54600160a01b900460ff16155b80611cdd5750611cdd33611fbb565b611d25576040805162461bcd60e51b81526020600482015260146024820152731bdb9b1e481b595b58995c9cc8185b1b1bddd95960621b604482015290519081900360640190fd5b33600090815260a060205260409020429055611d3f61269a565b6000611d49611ad2565b90506000611d55610d15565b60a154604080516303ded65360e41b8152631cd554d160e21b600482015290519293506001600160a01b03909116918291633ded6530916024808301926020929190829003018186803b158015611dab57600080fd5b505afa158015611dbf573d6000803e3d6000fd5b505050506040513d6020811015611dd557600080fd5b5051604080516323b872dd60e01b81523360048201523060248201526044810188905290516001600160a01b03909216916323b872dd916064808201926020929091908290030181600087803b158015611e2e57600080fd5b505af1158015611e42573d6000803e3d6000fd5b505050506040513d6020811015611e5857600080fd5b5051611ea3576040805162461bcd60e51b81526020600482015260156024820152741d1bdad95b881d1c985b9cd9995c8819985a5b1959605a1b604482015290519081900360640190fd5b60008215611ec057611eb984610f918886612918565b9050611ec3565b50845b611ecd3382612bef565b7f87fdcba84e083ebb8fd661bbafee3eb38764ec6f0cbeea8ed52deffa67bd45dc30338884611efb33611724565b611f058a8d612ab6565b611f0f8a89612ab6565b604080516001600160a01b039889168152969097166020870152858701949094526060850192909252608084015260a083015260c08201524260e08201529051908190036101000190a195945050505050565b600080611f6d611426565b6001600160a01b038416600090815260a0602052604081205491925090611f949083612ab6565b905042811015611fa95760009250505061173e565b611fb38142612ce1565b949350505050565b6001600160a01b03166000908152609a6020526040902054151590565b609e546001600160a01b031681565b6097546001600160a01b03163314612035576040805162461bcd60e51b815260206004820152600c60248201526b37b7363c9036b0b730b3b2b960a11b604482015290519081900360640190fd5b61203e81611fbb565b1561204857610d03565b610d0381612b63565b61205961269a565b565b600054610100900460ff16806120745750612074612d23565b80612082575060005460ff16155b6120bd5760405162461bcd60e51b815260040180806020018281038252602e81526020018061321e602e913960400191505060405180910390fd5b600054610100900460ff161580156120e8576000805460ff1961ff0019909116610100171660011790555b6120f28484612d29565b6120fc8686612ddf565b609e80546001600160a01b0319166001600160a01b038a1617905561212087612b10565b609c8054336001600160a01b03199182161790915542609d55670de0b6b3a7640000609f5560a180549091166001600160a01b038416179055801561216b576000805461ff00191690555b5050505050505050565b609d5481565b6001600160a01b03918216600090815260666020908152604080832093909416825291909152205490565b6000806121b1611ad2565b905060006121bd610d15565b609e5460408051635bd2a29360e11b8152306004820152815193945060009384936001600160a01b03169263b7a545269260248082019391829003018186803b15801561220957600080fd5b505afa15801561221d573d6000803e3d6000fd5b505050506040513d604081101561223357600080fd5b508051602090910151609f54919350915061225390859085908585612e0d565b94505050505090565b60988054604080516020601f6002600019610100600188161502019095169490940493840181900481028201810190925282815260609390929091830182828015610c725780601f10610c4757610100808354040283529160200191610c72565b3390565b6001600160a01b0383166123065760405162461bcd60e51b81526004018080602001828103825260248152602001806132926024913960400191505060405180910390fd5b6001600160a01b03821661234b5760405162461bcd60e51b815260040180806020018281038252602281526020018061318d6022913960400191505060405180910390fd5b6001600160a01b03808416600081815260666020908152604080832094871680845294825291829020859055815185815291517f8c5be1e5ebec7d5bd14f71427d1e84f3dd0314c0f7b2291e5b200ac8c7c3b9259281900390910190a3505050565b6099546001600160a01b0382166000908152609a60205260408120546123d4906001612ce1565b9050600060996123e5846001612ce1565b815481106123ef57fe5b600091825260209091200154609980546001600160a01b03909216925082918490811061241857fe5b600091825260209091200180546001600160a01b0319166001600160a01b039290921691909117905561244c826001612ab6565b6001600160a01b038083166000908152609a602052604080822093909355908616815290812055609980548061247e57fe5b600082815260209020810160001990810180546001600160a01b031916905501905550505050565b6001600160a01b0383166124eb5760405162461bcd60e51b815260040180806020018281038252602581526020018061326d6025913960400191505060405180910390fd5b6001600160a01b0382166125305760405162461bcd60e51b81526004018080602001828103825260238152602001806131486023913960400191505060405180910390fd5b61253b838383612e7e565b612578816040518060600160405280602681526020016131af602691396001600160a01b0386166000908152606560205260409020549190612603565b6001600160a01b0380851660009081526065602052604080822093909355908416815220546125a79082612ab6565b6001600160a01b0380841660008181526065602090815260409182902094909455805185815290519193928716927fddf252ad1be2c89b69c2b068fc378daa952ba7f163c4a11628f55a4df523b3ef92918290030190a3505050565b600081848411156126925760405162461bcd60e51b81526004018080602001828103825283818151815260200191508051906020019080838360005b8381101561265757818101518382015260200161263f565b50505050905090810190601f1680156126845780820380516001836020036101000a031916815260200191505b509250505060405180910390fd5b505050900390565b60006126a4611ad2565b905060006126b0610d15565b609e5460408051635bd2a29360e11b8152306004820152815193945060009384936001600160a01b03169263b7a545269260248082019391829003018186803b1580156126fc57600080fd5b505afa158015612710573d6000803e3d6000fd5b505050506040513d604081101561272657600080fd5b508051602090910151609f54919350915060009061274990869086908686612e0d565b9050606481101561275e575050505050612059565b609e5460408051631d68702d60e01b815290516000926001600160a01b031691631d68702d916004808301926020929190829003018186803b1580156127a357600080fd5b505afa1580156127b7573d6000803e3d6000fd5b505050506040513d60208110156127cd57600080fd5b5051609e546040805163272b69b960e21b8152815193945060009384936001600160a01b031692639cada6e49260048082019391829003018186803b15801561281557600080fd5b505afa158015612829573d6000803e3d6000fd5b505050506040513d604081101561283f57600080fd5b5080516020909101519092509050600061285d82610f918786612918565b9050600061286b8683612ce1565b9050811561287d5761287d8583612bef565b80156128945761289461288e611543565b82612bef565b61289e8a8a612bbf565b609f557f755a8059d66d8d243bc9f6913f429a811f154599d0538bb0b6a2ac23f23d2ccd306128cb611543565b609f54604080516001600160a01b0394851681529290931660208301528183018a9052606082018690526080820185905260a082015290519081900360c00190a150505050505050505050565b60008261292757506000610c94565b8282028284828161293457fe5b04146129715760405162461bcd60e51b81526004018080602001828103825260218152602001806131d56021913960400191505060405180910390fd5b9392505050565b600061297183836040518060400160405280601a81526020017f536166654d6174683a206469766973696f6e206279207a65726f000000000000815250612ed6565b6001600160a01b0382166129ff5760405162461bcd60e51b815260040180806020018281038252602181526020018061324c6021913960400191505060405180910390fd5b612a0b82600083612e7e565b612a488160405180606001604052806022815260200161316b602291396001600160a01b0385166000908152606560205260409020549190612603565b6001600160a01b038316600090815260656020526040902055606754612a6e9082612ce1565b6067556040805182815290516000916001600160a01b038516917fddf252ad1be2c89b69c2b068fc378daa952ba7f163c4a11628f55a4df523b3ef9181900360200190a35050565b600082820183811015612971576040805162461bcd60e51b815260206004820152601b60248201527f536166654d6174683a206164646974696f6e206f766572666c6f770000000000604482015290519081900360640190fd5b609b8054821515600160a01b810260ff60a01b199092169190911790915560408051918252517f8d75e9ede4188432084b863d70b3416010c97547dfeb4fc17734d2e997ee0f399181900360200190a150565b609980546001810182557f72a152ddfb8e864297c917af52ea6c1c68aead0fee1a62673fcc7e0c94979d000180546001600160a01b039093166001600160a01b031990931683179055546000918252609a602052604090912055565b6000811580612bcc575082155b15612bd957506000610c94565b61297182610f9185670de0b6b3a7640000612918565b6001600160a01b038216612c4a576040805162461bcd60e51b815260206004820152601f60248201527f45524332303a206d696e7420746f20746865207a65726f206164647265737300604482015290519081900360640190fd5b612c5660008383612e7e565b606754612c639082612ab6565b6067556001600160a01b038216600090815260656020526040902054612c899082612ab6565b6001600160a01b03831660008181526065602090815260408083209490945583518581529351929391927fddf252ad1be2c89b69c2b068fc378daa952ba7f163c4a11628f55a4df523b3ef9281900390910190a35050565b600061297183836040518060400160405280601e81526020017f536166654d6174683a207375627472616374696f6e206f766572666c6f770000815250612603565b303b1590565b600054610100900460ff1680612d425750612d42612d23565b80612d50575060005460ff16155b612d8b5760405162461bcd60e51b815260040180806020018281038252602e81526020018061321e602e913960400191505060405180910390fd5b600054610100900460ff16158015612db6576000805460ff1961ff0019909116610100171660011790555b612dbe612f3b565b612dc88383612fdc565b8015612dda576000805461ff00191690555b505050565b609780546001600160a01b0319166001600160a01b0384161790558051612dda9060989060208401906130b4565b6000841580612e1a575085155b15612e2757506000612e75565b6000612e3f86610f9189670de0b6b3a7640000612918565b9050848111612e52576000915050612e75565b6000612e7082610f91868189612e6a8d81878f612ce1565b90612918565b925050505b95945050505050565b612e89838383612dda565b612e9283611f62565b15612dda576040805162461bcd60e51b815260206004820152600f60248201526e636f6f6c646f776e2061637469766560881b604482015290519081900360640190fd5b60008183612f255760405162461bcd60e51b815260206004820181815283516024840152835190928392604490910191908501908083836000831561265757818101518382015260200161263f565b506000838581612f3157fe5b0495945050505050565b600054610100900460ff1680612f545750612f54612d23565b80612f62575060005460ff16155b612f9d5760405162461bcd60e51b815260040180806020018281038252602e81526020018061321e602e913960400191505060405180910390fd5b600054610100900460ff16158015612fc8576000805460ff1961ff0019909116610100171660011790555b8015610d03576000805461ff001916905550565b600054610100900460ff1680612ff55750612ff5612d23565b80613003575060005460ff16155b61303e5760405162461bcd60e51b815260040180806020018281038252602e81526020018061321e602e913960400191505060405180910390fd5b600054610100900460ff16158015613069576000805460ff1961ff0019909116610100171660011790555b825161307c9060689060208601906130b4565b5081516130909060699060208501906130b4565b50606a805460ff191660121790558015612dda576000805461ff0019169055505050565b828054600181600116156101000203166002900490600052602060002090601f016020900481019282601f106130f557805160ff1916838001178555613122565b82800160010185558215613122579182015b82811115613122578251825591602001919060010190613107565b5061312e929150613132565b5090565b5b8082111561312e576000815560010161313356fe45524332303a207472616e7366657220746f20746865207a65726f206164647265737345524332303a206275726e20616d6f756e7420657863656564732062616c616e636545524332303a20617070726f766520746f20746865207a65726f206164647265737345524332303a207472616e7366657220616d6f756e7420657863656564732062616c616e6365536166654d6174683a206d756c7469706c69636174696f6e206f766572666c6f7745524332303a207472616e7366657220616d6f756e74206578636565647320616c6c6f77616e6365436f6e747261637420696e7374616e63652068617320616c7265616479206265656e20696e697469616c697a656445524332303a206275726e2066726f6d20746865207a65726f206164647265737345524332303a207472616e736665722066726f6d20746865207a65726f206164647265737345524332303a20617070726f76652066726f6d20746865207a65726f206164647265737345524332303a2064656372656173656420616c6c6f77616e63652062656c6f77207a65726f696e73756666696369656e742062616c616e6365206f662066756e6420746f6b656e73a26469706673582212202c649e0cf563ad0449f7bcdfac0379b5e2ecccb5346ab6a91f2ada6716ec829964736f6c634300060c0033",
  "linkReferences": {},
  "deployedLinkReferences": {}
}