{
  "_format": "hh-sol-artifact-1",
  "contractName": "PoolLogic",
  "sourceName": "contracts/PoolLogic.sol",
  "abi": [
    {
      "anonymous": false,
      "inputs": [
        {
          "indexed": true,
          "internalType": "address",
          "name": "owner",
          "type": "address"
        },
        {
          "indexed": true,
          "internalType": "address",
          "name": "spender",
          "type": "address"
        },
        {
          "indexed": false,
          "internalType": "uint256",
          "name": "value",
          "type": "uint256"
        }
      ],
      "name": "Approval",
      "type": "event"
    },
    {
      "anonymous": false,
      "inputs": [
        {
          "indexed": false,
          "internalType": "address",
          "name": "fundAddress",
          "type": "address"
        },
        {
          "indexed": false,
          "internalType": "address",
          "name": "investor",
          "type": "address"
        },
        {
          "indexed": false,
          "internalType": "uint256",
          "name": "valueDeposited",
          "type": "uint256"
        },
        {
          "indexed": false,
          "internalType": "uint256",
          "name": "fundTokensReceived",
          "type": "uint256"
        },
        {
          "indexed": false,
          "internalType": "uint256",
          "name": "totalInvestorFundTokens",
          "type": "uint256"
        },
        {
          "indexed": false,
          "internalType": "uint256",
          "name": "fundValue",
          "type": "uint256"
        },
        {
          "indexed": false,
          "internalType": "uint256",
          "name": "totalSupply",
          "type": "uint256"
        },
        {
          "indexed": false,
          "internalType": "uint256",
          "name": "time",
          "type": "uint256"
        }
      ],
      "name": "Deposit",
      "type": "event"
    },
    {
      "anonymous": false,
      "inputs": [
        {
          "indexed": false,
          "internalType": "address",
          "name": "pool",
          "type": "address"
        },
        {
          "indexed": false,
          "internalType": "address",
          "name": "manager",
          "type": "address"
        },
        {
          "indexed": false,
          "internalType": "uint256",
          "name": "available",
          "type": "uint256"
        },
        {
          "indexed": false,
          "internalType": "uint256",
          "name": "daoFee",
          "type": "uint256"
        },
        {
          "indexed": false,
          "internalType": "uint256",
          "name": "managerFee",
          "type": "uint256"
        },
        {
          "indexed": false,
          "internalType": "uint256",
          "name": "tokenPriceAtLastFeeMint",
          "type": "uint256"
        }
      ],
      "name": "ManagerFeeMinted",
      "type": "event"
    },
    {
      "anonymous": false,
      "inputs": [
        {
          "indexed": false,
          "internalType": "address",
          "name": "poolManagerLogic",
          "type": "address"
        },
        {
          "indexed": false,
          "internalType": "address",
          "name": "from",
          "type": "address"
        }
      ],
      "name": "PoolManagerLogicSet",
      "type": "event"
    },
    {
      "anonymous": false,
      "inputs": [
        {
          "indexed": false,
          "internalType": "bool",
          "name": "isPoolPrivate",
          "type": "bool"
        }
      ],
      "name": "PoolPrivacyUpdated",
      "type": "event"
    },
    {
      "anonymous": false,
      "inputs": [
        {
          "indexed": true,
          "internalType": "address",
          "name": "from",
          "type": "address"
        },
        {
          "indexed": true,
          "internalType": "address",
          "name": "to",
          "type": "address"
        },
        {
          "indexed": false,
          "internalType": "uint256",
          "name": "value",
          "type": "uint256"
        }
      ],
      "name": "Transfer",
      "type": "event"
    },
    {
      "anonymous": false,
      "inputs": [
        {
          "indexed": false,
          "internalType": "address",
          "name": "fundAddress",
          "type": "address"
        },
        {
          "indexed": false,
          "internalType": "address",
          "name": "investor",
          "type": "address"
        },
        {
          "indexed": false,
          "internalType": "uint256",
          "name": "valueWithdrawn",
          "type": "uint256"
        },
        {
          "indexed": false,
          "internalType": "uint256",
          "name": "fundTokensWithdrawn",
          "type": "uint256"
        },
        {
          "indexed": false,
          "internalType": "uint256",
          "name": "totalInvestorFundTokens",
          "type": "uint256"
        },
        {
          "indexed": false,
          "internalType": "uint256",
          "name": "fundValue",
          "type": "uint256"
        },
        {
          "indexed": false,
          "internalType": "uint256",
          "name": "totalSupply",
          "type": "uint256"
        },
        {
          "indexed": false,
          "internalType": "uint256",
          "name": "time",
          "type": "uint256"
        }
      ],
      "name": "Withdrawal",
      "type": "event"
    },
    {
      "inputs": [
        {
          "internalType": "address",
          "name": "owner",
          "type": "address"
        },
        {
          "internalType": "address",
          "name": "spender",
          "type": "address"
        }
      ],
      "name": "allowance",
      "outputs": [
        {
          "internalType": "uint256",
          "name": "",
          "type": "uint256"
        }
      ],
      "stateMutability": "view",
      "type": "function"
    },
    {
      "inputs": [
        {
          "internalType": "address",
          "name": "spender",
          "type": "address"
        },
        {
          "internalType": "uint256",
          "name": "amount",
          "type": "uint256"
        }
      ],
      "name": "approve",
      "outputs": [
        {
          "internalType": "bool",
          "name": "",
          "type": "bool"
        }
      ],
      "stateMutability": "nonpayable",
      "type": "function"
    },
    {
      "inputs": [],
      "name": "availableManagerFee",
      "outputs": [
        {
          "internalType": "uint256",
          "name": "",
          "type": "uint256"
        }
      ],
      "stateMutability": "view",
      "type": "function"
    },
    {
      "inputs": [
        {
          "internalType": "address",
          "name": "account",
          "type": "address"
        }
      ],
      "name": "balanceOf",
      "outputs": [
        {
          "internalType": "uint256",
          "name": "",
          "type": "uint256"
        }
      ],
      "stateMutability": "view",
      "type": "function"
    },
    {
      "inputs": [
        {
          "internalType": "bytes32",
          "name": "c__0xc979c354",
          "type": "bytes32"
        }
      ],
      "name": "c_0xc979c354",
      "outputs": [],
      "stateMutability": "pure",
      "type": "function"
    },
    {
      "inputs": [],
      "name": "creationTime",
      "outputs": [
        {
          "internalType": "uint256",
          "name": "",
          "type": "uint256"
        }
      ],
      "stateMutability": "view",
      "type": "function"
    },
    {
      "inputs": [],
      "name": "creator",
      "outputs": [
        {
          "internalType": "address",
          "name": "",
          "type": "address"
        }
      ],
      "stateMutability": "view",
      "type": "function"
    },
    {
      "inputs": [],
      "name": "decimals",
      "outputs": [
        {
          "internalType": "uint8",
          "name": "",
          "type": "uint8"
        }
      ],
      "stateMutability": "view",
      "type": "function"
    },
    {
      "inputs": [
        {
          "internalType": "address",
          "name": "spender",
          "type": "address"
        },
        {
          "internalType": "uint256",
          "name": "subtractedValue",
          "type": "uint256"
        }
      ],
      "name": "decreaseAllowance",
      "outputs": [
        {
          "internalType": "bool",
          "name": "",
          "type": "bool"
        }
      ],
      "stateMutability": "nonpayable",
      "type": "function"
    },
    {
      "inputs": [
        {
          "internalType": "address",
          "name": "_asset",
          "type": "address"
        },
        {
          "internalType": "uint256",
          "name": "_amount",
          "type": "uint256"
        }
      ],
      "name": "deposit",
      "outputs": [
        {
          "internalType": "uint256",
          "name": "",
          "type": "uint256"
        }
      ],
      "stateMutability": "nonpayable",
      "type": "function"
    },
    {
      "inputs": [],
      "name": "factory",
      "outputs": [
        {
          "internalType": "address",
          "name": "",
          "type": "address"
        }
      ],
      "stateMutability": "view",
      "type": "function"
    },
    {
      "inputs": [],
      "name": "getExitCooldown",
      "outputs": [
        {
          "internalType": "uint256",
          "name": "",
          "type": "uint256"
        }
      ],
      "stateMutability": "view",
      "type": "function"
    },
    {
      "inputs": [
        {
          "internalType": "address",
          "name": "sender",
          "type": "address"
        }
      ],
      "name": "getExitRemainingCooldown",
      "outputs": [
        {
          "internalType": "uint256",
          "name": "",
          "type": "uint256"
        }
      ],
      "stateMutability": "view",
      "type": "function"
    },
    {
      "inputs": [],
      "name": "getFundSummary",
      "outputs": [
        {
          "internalType": "string",
          "name": "",
          "type": "string"
        },
        {
          "internalType": "uint256",
          "name": "",
          "type": "uint256"
        },
        {
          "internalType": "uint256",
          "name": "",
          "type": "uint256"
        },
        {
          "internalType": "address",
          "name": "",
          "type": "address"
        },
        {
          "internalType": "string",
          "name": "",
          "type": "string"
        },
        {
          "internalType": "uint256",
          "name": "",
          "type": "uint256"
        },
        {
          "internalType": "bool",
          "name": "",
          "type": "bool"
        },
        {
          "internalType": "uint256",
          "name": "",
          "type": "uint256"
        },
        {
          "internalType": "uint256",
          "name": "",
          "type": "uint256"
        }
      ],
      "stateMutability": "view",
      "type": "function"
    },
    {
      "inputs": [
        {
          "internalType": "address",
          "name": "spender",
          "type": "address"
        },
        {
          "internalType": "uint256",
          "name": "addedValue",
          "type": "uint256"
        }
      ],
      "name": "increaseAllowance",
      "outputs": [
        {
          "internalType": "bool",
          "name": "",
          "type": "bool"
        }
      ],
      "stateMutability": "nonpayable",
      "type": "function"
    },
    {
      "inputs": [
        {
          "internalType": "address",
          "name": "_factory",
          "type": "address"
        },
        {
          "internalType": "bool",
          "name": "_privatePool",
          "type": "bool"
        },
        {
          "internalType": "string",
          "name": "_fundName",
          "type": "string"
        },
        {
          "internalType": "string",
          "name": "_fundSymbol",
          "type": "string"
        },
        {
          "internalType": "address",
          "name": "_poolManagerLogic",
          "type": "address"
        }
      ],
      "name": "initialize",
      "outputs": [],
      "stateMutability": "nonpayable",
      "type": "function"
    },
    {
      "inputs": [
        {
          "internalType": "address",
          "name": "member",
          "type": "address"
        }
      ],
      "name": "isMemberAllowed",
      "outputs": [
        {
          "internalType": "bool",
          "name": "",
          "type": "bool"
        }
      ],
      "stateMutability": "view",
      "type": "function"
    },
    {
      "inputs": [
        {
          "internalType": "address",
          "name": "",
          "type": "address"
        }
      ],
      "name": "lastDeposit",
      "outputs": [
        {
          "internalType": "uint256",
          "name": "",
          "type": "uint256"
        }
      ],
      "stateMutability": "view",
      "type": "function"
    },
    {
      "inputs": [],
      "name": "managerName",
      "outputs": [
        {
          "internalType": "string",
          "name": "",
          "type": "string"
        }
      ],
      "stateMutability": "view",
      "type": "function"
    },
    {
      "inputs": [],
      "name": "mintManagerFee",
      "outputs": [],
      "stateMutability": "nonpayable",
      "type": "function"
    },
    {
      "inputs": [],
      "name": "name",
      "outputs": [
        {
          "internalType": "string",
          "name": "",
          "type": "string"
        }
      ],
      "stateMutability": "view",
      "type": "function"
    },
    {
      "inputs": [],
      "name": "poolManagerLogic",
      "outputs": [
        {
          "internalType": "address",
          "name": "",
          "type": "address"
        }
      ],
      "stateMutability": "view",
      "type": "function"
    },
    {
      "inputs": [],
      "name": "privatePool",
      "outputs": [
        {
          "internalType": "bool",
          "name": "",
          "type": "bool"
        }
      ],
      "stateMutability": "view",
      "type": "function"
    },
    {
      "inputs": [
        {
          "internalType": "address",
          "name": "_poolManagerLogic",
          "type": "address"
        }
      ],
      "name": "setPoolManagerLogic",
      "outputs": [
        {
          "internalType": "bool",
          "name": "",
          "type": "bool"
        }
      ],
      "stateMutability": "nonpayable",
      "type": "function"
    },
    {
      "inputs": [
        {
          "internalType": "bool",
          "name": "_privatePool",
          "type": "bool"
        }
      ],
      "name": "setPoolPrivate",
      "outputs": [],
      "stateMutability": "nonpayable",
      "type": "function"
    },
    {
      "inputs": [],
      "name": "symbol",
      "outputs": [
        {
          "internalType": "string",
          "name": "",
          "type": "string"
        }
      ],
      "stateMutability": "view",
      "type": "function"
    },
    {
      "inputs": [],
      "name": "tokenPrice",
      "outputs": [
        {
          "internalType": "uint256",
          "name": "",
          "type": "uint256"
        }
      ],
      "stateMutability": "view",
      "type": "function"
    },
    {
      "inputs": [],
      "name": "tokenPriceAtLastFeeMint",
      "outputs": [
        {
          "internalType": "uint256",
          "name": "",
          "type": "uint256"
        }
      ],
      "stateMutability": "view",
      "type": "function"
    },
    {
      "inputs": [],
      "name": "totalFundValue",
      "outputs": [
        {
          "internalType": "uint256",
          "name": "",
          "type": "uint256"
        }
      ],
      "stateMutability": "view",
      "type": "function"
    },
    {
      "inputs": [],
      "name": "totalSupply",
      "outputs": [
        {
          "internalType": "uint256",
          "name": "",
          "type": "uint256"
        }
      ],
      "stateMutability": "view",
      "type": "function"
    },
    {
      "inputs": [
        {
          "internalType": "address",
          "name": "recipient",
          "type": "address"
        },
        {
          "internalType": "uint256",
          "name": "amount",
          "type": "uint256"
        }
      ],
      "name": "transfer",
      "outputs": [
        {
          "internalType": "bool",
          "name": "",
          "type": "bool"
        }
      ],
      "stateMutability": "nonpayable",
      "type": "function"
    },
    {
      "inputs": [
        {
          "internalType": "address",
          "name": "sender",
          "type": "address"
        },
        {
          "internalType": "address",
          "name": "recipient",
          "type": "address"
        },
        {
          "internalType": "uint256",
          "name": "amount",
          "type": "uint256"
        }
      ],
      "name": "transferFrom",
      "outputs": [
        {
          "internalType": "bool",
          "name": "",
          "type": "bool"
        }
      ],
      "stateMutability": "nonpayable",
      "type": "function"
    },
    {
      "inputs": [
        {
          "internalType": "uint256",
          "name": "_fundTokenAmount",
          "type": "uint256"
        }
      ],
      "name": "withdraw",
      "outputs": [],
      "stateMutability": "nonpayable",
      "type": "function"
    }
  ],
  "bytecode": "0x608060405234801561001057600080fd5b5061752880620000216000396000f3fe608060405234801561001057600080fd5b50600436106101fb5760003560e01c806370a082311161011a578063b4139acd116100ad578063cc3c6df61161007c578063cc3c6df614610c0d578063d8270dce14610c17578063dd62ed3e14610c35578063edbf6f5014610cad578063fed4416a14610ccb576101fb565b8063b4139acd14610af9578063b8ea2b6e14610b27578063bbbf725b14610b7f578063c45a015514610bd9576101fb565b806395d89b41116100e957806395d89b4114610990578063a457c2d714610a13578063a9059cbb14610a77578063ad60ffcc14610adb576101fb565b806370a08231146108a2578063750226de146108fa5780637714f39d146109545780637ff9b59614610972576101fb565b806329d16ee8116101925780633babaad5116101615780633babaad5146107d25780634501b0881461080257806347e7ef241461082057806359b5e75e14610882576101fb565b806329d16ee8146106c75780632e1a7d4d1461071f578063313ce5671461074d578063395093511461076e576101fb565b806318160ddd116101ce57806318160ddd146104b95780631c5918d2146104d75780631e50a4a61461060f57806323b872dd14610643576101fb565b806302d05d3f1461020057806306fdde0314610234578063095ea7b3146102b75780630ccb30c71461031b575b600080fd5b610208610d4e565b604051808273ffffffffffffffffffffffffffffffffffffffff16815260200191505060405180910390f35b61023c610d74565b6040518080602001828103825283818151815260200191508051906020019080838360005b8381101561027c578082015181840152602081019050610261565b50505050905090810190601f1680156102a95780820380516001836020036101000a031916815260200191505b509250505060405180910390f35b610303600480360360408110156102cd57600080fd5b81019080803573ffffffffffffffffffffffffffffffffffffffff16906020019092919080359060200190929190505050610e16565b60405180821515815260200191505060405180910390f35b6104b7600480360360a081101561033157600080fd5b81019080803573ffffffffffffffffffffffffffffffffffffffff1690602001909291908035151590602001909291908035906020019064010000000081111561037a57600080fd5b82018360208201111561038c57600080fd5b803590602001918460018302840111640100000000831117156103ae57600080fd5b91908080601f016020809104026020016040519081016040528093929190818152602001838380828437600081840152601f19601f8201169050808301925050505050505091929192908035906020019064010000000081111561041157600080fd5b82018360208201111561042357600080fd5b8035906020019184600183028401116401000000008311171561044557600080fd5b91908080601f016020809104026020016040519081016040528093929190818152602001838380828437600081840152601f19601f820116905080830192505050505050509192919290803573ffffffffffffffffffffffffffffffffffffffff169060200190929190505050610e34565b005b6104c1611317565b6040518082815260200191505060405180910390f35b6104df611321565b60405180806020018a81526020018981526020018873ffffffffffffffffffffffffffffffffffffffff16815260200180602001878152602001861515815260200185815260200184815260200183810383528c818151815260200191508051906020019080838360005b8381101561056557808201518184015260208101905061054a565b50505050905090810190601f1680156105925780820380516001836020036101000a031916815260200191505b50838103825288818151815260200191508051906020019080838360005b838110156105cb5780820151818401526020810190506105b0565b50505050905090810190601f1680156105f85780820380516001836020036101000a031916815260200191505b509b50505050505050505050505060405180910390f35b6106176115f1565b604051808273ffffffffffffffffffffffffffffffffffffffff16815260200191505060405180910390f35b6106af6004803603606081101561065957600080fd5b81019080803573ffffffffffffffffffffffffffffffffffffffff169060200190929190803573ffffffffffffffffffffffffffffffffffffffff16906020019092919080359060200190929190505050611617565b60405180821515815260200191505060405180910390f35b610709600480360360208110156106dd57600080fd5b81019080803573ffffffffffffffffffffffffffffffffffffffff1690602001909291905050506116f0565b6040518082815260200191505060405180910390f35b61074b6004803603602081101561073557600080fd5b8101908080359060200190929190505050611708565b005b61075561241c565b604051808260ff16815260200191505060405180910390f35b6107ba6004803603604081101561078457600080fd5b81019080803573ffffffffffffffffffffffffffffffffffffffff16906020019092919080359060200190929190505050612433565b60405180821515815260200191505060405180910390f35b610800600480360360208110156107e857600080fd5b810190808035151590602001909291905050506124e6565b005b61080a61285f565b6040518082815260200191505060405180910390f35b61086c6004803603604081101561083657600080fd5b81019080803573ffffffffffffffffffffffffffffffffffffffff1690602001909291908035906020019092919050505061298d565b6040518082815260200191505060405180910390f35b61088a61362a565b60405180821515815260200191505060405180910390f35b6108e4600480360360208110156108b857600080fd5b81019080803573ffffffffffffffffffffffffffffffffffffffff16906020019092919050505061363d565b6040518082815260200191505060405180910390f35b61093c6004803603602081101561091057600080fd5b81019080803573ffffffffffffffffffffffffffffffffffffffff169060200190929190505050613686565b60405180821515815260200191505060405180910390f35b61095c613ac2565b6040518082815260200191505060405180910390f35b61097a613ac8565b6040518082815260200191505060405180910390f35b610998613c27565b6040518080602001828103825283818151815260200191508051906020019080838360005b838110156109d85780820151818401526020810190506109bd565b50505050905090810190601f168015610a055780820380516001836020036101000a031916815260200191505b509250505060405180910390f35b610a5f60048036036040811015610a2957600080fd5b81019080803573ffffffffffffffffffffffffffffffffffffffff16906020019092919080359060200190929190505050613cc9565b60405180821515815260200191505060405180910390f35b610ac360048036036040811015610a8d57600080fd5b81019080803573ffffffffffffffffffffffffffffffffffffffff16906020019092919080359060200190929190505050613d96565b60405180821515815260200191505060405180910390f35b610ae3613db4565b6040518082815260200191505060405180910390f35b610b2560048036036020811015610b0f57600080fd5b8101908080359060200190929190505050614284565b005b610b6960048036036020811015610b3d57600080fd5b81019080803573ffffffffffffffffffffffffffffffffffffffff169060200190929190505050614287565b6040518082815260200191505060405180910390f35b610bc160048036036020811015610b9557600080fd5b81019080803573ffffffffffffffffffffffffffffffffffffffff16906020019092919050505061452b565b60405180821515815260200191505060405180910390f35b610be161467c565b604051808273ffffffffffffffffffffffffffffffffffffffff16815260200191505060405180910390f35b610c156146a2565b005b610c1f614730565b6040518082815260200191505060405180910390f35b610c9760048036036040811015610c4b57600080fd5b81019080803573ffffffffffffffffffffffffffffffffffffffff169060200190929190803573ffffffffffffffffffffffffffffffffffffffff169060200190929190505050614736565b6040518082815260200191505060405180910390f35b610cb56147bd565b6040518082815260200191505060405180910390f35b610cd3614b04565b6040518080602001828103825283818151815260200191508051906020019080838360005b83811015610d13578082015181840152602081019050610cf8565b50505050905090810190601f168015610d405780820380516001836020036101000a031916815260200191505b509250505060405180910390f35b60c960019054906101000a900473ffffffffffffffffffffffffffffffffffffffff1681565b606060688054600181600116156101000203166002900480601f016020809104026020016040519081016040528092919081815260200182805460018160011615610100020316600290048015610e0c5780601f10610de157610100808354040283529160200191610e0c565b820191906000526020600020905b815481529060010190602001808311610def57829003601f168201915b5050505050905090565b6000610e2a610e23614cf0565b8484614cf8565b6001905092915050565b600060019054906101000a900460ff1680610e535750610e52614eef565b5b80610e69575060008054906101000a900460ff16155b610ebe576040517f08c379a000000000000000000000000000000000000000000000000000000000815260040180806020018281038252602e815260200180617436602e913960400191505060405180910390fd5b60008060019054906101000a900460ff161590508015610f0e576001600060016101000a81548160ff02191690831515021790555060016000806101000a81548160ff0219169083151502179055505b610f3a7f469f35ae6c10408f8b1511b1d8fd05afda3ab254bf0c96fc6f1260a65886136660001b614284565b610f667f82b5aeb01148a3128493aa7f862fd143cee8921c117f13f68793c8c6d63facf060001b614284565b610f927fd623550b1df393b107444a45065c15365b61b48734d4022e44b91bb6372cd24a60001b614284565b610f9c8484614f06565b610fc87f2e5dffe8a8340bc23ae80bebc548c74a4f2ae3979df62c60184b3b4537db762560001b614284565b610ff47fb84872ac1bdc594e04e14330605090368df472cd38ad3dbd98423c1d6e8e410860001b614284565b610ffc615018565b6110287f07b65f55b27ec944f17bf760651091e61ead8dd8d442a5820f94e659bd50f1fe60001b614284565b6110547f35d41d75afebb13957e03297da9906f56ff7f4692074990b201d000da6cb5c4a60001b614284565b8560cb60006101000a81548173ffffffffffffffffffffffffffffffffffffffff021916908373ffffffffffffffffffffffffffffffffffffffff1602179055506110c17f31e2c04996cd34c61628b2410eb98ae3291f79107f156da2d7b2389163883e7460001b614284565b6110ed7fa4cfe4520c6c686510c2d25da657fc19ab7f3569a550d74ba7ab21d88baedc2f60001b614284565b6110f68561511e565b6111227f0c0f473acebc2ceec13f0c903f19ec91c0c47b7d7c23ce86978c76c1cd60e52960001b614284565b61114e7f126cbacd934dc234e55172fd3b4244818dc226cca45573eedb8f47326be695a560001b614284565b3360c960016101000a81548173ffffffffffffffffffffffffffffffffffffffff021916908373ffffffffffffffffffffffffffffffffffffffff1602179055506111bb7ffef8aac2c0fe0e6c003655cbf7ccb94a51f52c8fd5486f1b8e09a9f09476fc0a60001b614284565b6111e77f43128f1c62b6d7820922ed3c979315b2f66b9c36f6aabe9d8185cb3da949eb0b60001b614284565b4260ca8190555061121a7ff758563aca0c1e5c3f7842428c046cbbe5b51f729eef94b99addeb832f2df1a860001b614284565b6112467f558a2f6c913631f622df5a2706ed33bdeaa58bc0ad2f91f0c4ee570f17f10ccb60001b614284565b670de0b6b3a764000060cc819055506112817f39914be7d2c33c72f70662d08c778abe46dd79ec6493bde71511fd986f422b6b60001b614284565b6112ad7ff78a087868b1824466a5d522c26d078b1f09e2782d00e65bbffbe4aa3f7daefa60001b614284565b8160ce60006101000a81548173ffffffffffffffffffffffffffffffffffffffff021916908373ffffffffffffffffffffffffffffffffffffffff160217905550801561130f5760008060016101000a81548160ff0219169083151502179055505b505050505050565b6000606754905090565b60606000806000606060008060008061135c7f4bdde2baa7989cd71add97d5075938e58007b1072bdff1a7a1cc374fe88e299e60001b614284565b6113887f935800f9a1029c62e35d07072fe7cf07908e26d8488cb1fc5951739c6237574a60001b614284565b6113b47f4dc76c8eb48240f83aff4d76497be8134c10b69924fc6d7150d0288c43e499b060001b614284565b60006113e27f9183dd2bdc6a70b152a11b779197ff3191c1312ad9b21f464d61c9b0bfc7b29860001b614284565b61140e7fab419f808377a0ce17ae86208b1105b7eb03320d967f42c964117f4212b01f2a60001b614284565b600061143c7f0fc18e998f8b1156c7b9a6b974e1a26644c67297402928fb52e47779b2a7a95160001b614284565b6114687f57adcf854743f7edf254d073762930e14832220efa6e48a5c931137811be8c9f60001b614284565b60cb60009054906101000a900473ffffffffffffffffffffffffffffffffffffffff1673ffffffffffffffffffffffffffffffffffffffff1663b7a54526306040518263ffffffff1660e01b8152600401808273ffffffffffffffffffffffffffffffffffffffff168152602001915050604080518083038186803b1580156114f057600080fd5b505afa158015611504573d6000803e3d6000fd5b505050506040513d604081101561151a57600080fd5b81019080805190602001909291908051906020019092919050505080925081935050506115697fa391785a7b95066c4417d861fb542079749763c6d7b728745832535b09a5c3fa60001b614284565b6115957fe9d24f578e793758b890cfd690236289e078788a5a38b0ab4f332787aae964eb60001b614284565b61159d610d74565b6115a5611317565b6115ad613db4565b6115b5615250565b6115bd614b04565b60ca5460c960009054906101000a900460ff1688889a509a509a509a509a509a509a509a509a505050909192939495969798565b60ce60009054906101000a900473ffffffffffffffffffffffffffffffffffffffff1681565b600061162484848461537e565b6116e584611630614cf0565b6116e08560405180606001604052806028815260200161740e60289139606660008b73ffffffffffffffffffffffffffffffffffffffff1673ffffffffffffffffffffffffffffffffffffffff1681526020019081526020016000206000611696614cf0565b73ffffffffffffffffffffffffffffffffffffffff1673ffffffffffffffffffffffffffffffffffffffff168152602001908152602001600020546156439092919063ffffffff16565b614cf8565b600190509392505050565b60cd6020528060005260406000206000915090505481565b609760009054906101000a900460ff1661178a576040517f08c379a000000000000000000000000000000000000000000000000000000000815260040180806020018281038252601f8152602001807f5265656e7472616e637947756172643a207265656e7472616e742063616c6c0081525060200191505060405180910390fd5b6000609760006101000a81548160ff0219169083151502179055506117d17f3c77ae6af56227ef4160a7de60595d35a3958dc21b206cd05346000f5a34160b60001b614284565b6117fd7f802d5129dbeabe31474f7c4c7cc90a3195755f30f69689fac4ca14cd1c82f6bc60001b614284565b6118297fee6231597a49eb5c7e8f25cb5052177885f8d06c4b4c1e8994884f45e426d93a60001b614284565b6118557f55bc675d1377d87d06a6506e47f84ef3dc08ba6f3b3a94651126cd567e1d80be60001b614284565b8061185f3361363d565b10156118d3576040517f08c379a00000000000000000000000000000000000000000000000000000000081526004018080602001828103825260148152602001807f696e73756666696369656e742062616c616e636500000000000000000000000081525060200191505060405180910390fd5b6118ff7fbb88af5b2e7683f793a20b064e0a1706bca6b851801e3b26de93165408c9ee0860001b614284565b61192b7f0c24bf7dc70f81a377eb1d32f0ea482f8d85345759d2d808537e6d1bae068bb360001b614284565b6119577f62a6a4212911ba2d481eade49c19d289d0f9a67331eef7c54a9c65e562a4b58060001b614284565b6119837f79eba487d116bd0678e3441335e3464d1b16fbe8c24d83de6f23ae24539fc36a60001b614284565b600061198e33614287565b14611a01576040517f08c379a000000000000000000000000000000000000000000000000000000000815260040180806020018281038252600f8152602001807f636f6f6c646f776e20616374697665000000000000000000000000000000000081525060200191505060405180910390fd5b611a2d7f64251508ce9b88a0df8d0bdd2113390c1a8e0c86246fc9b5872ced3080648e2460001b614284565b611a597f176671254d4868a87e750526a81fb560aae3535402835e1f96fed3b3f2df371260001b614284565b611a857f5af87302d6783c8bbc624f94c8578b903087afd6612a8c15dc4a0b2e41753eb060001b614284565b611a8d615703565b611ab97f94613143db7d6cd5d1544c028634cfbc19b673b0efa89a007a970899cf09658b60001b614284565b611ae57fc415fe862db691369d43cf5a83f9f7392d714a2d6ed25eff39d2741719583bc860001b614284565b6000611aef613db4565b9050611b1d7fd8fd5005e7fd4ca0c54b0e47e665ab21cfabae0fc5bcf5e8899f0abd228289f660001b614284565b611b497f921f2306ed61c43f7ae13365b2d37c40cd2a332937fc69c417f1848eed3f567460001b614284565b6000611b7f611b56611317565b611b71670de0b6b3a76400008661623390919063ffffffff16565b6162b990919063ffffffff16565b9050611bad7f9f0f92a493580b82e8b9b0f93e7e2c5174479844843fcacbd4d3076dc30254cd60001b614284565b611bd97f83e242a175e37dbece57967547e650a3daadea274eab97ef80ca4a1e2e65a33560001b614284565b611be33384616303565b611c0f7f7e17e91c60e41b4eac9b3323efb119b4a8a2fd1f6b5a69203b8e81c5096b648e60001b614284565b611c3b7fb516179eadd189835507f07908d9b6330de19657f0e632efcbae8b61de475b1360001b614284565b600060ce60009054906101000a900473ffffffffffffffffffffffffffffffffffffffff169050611c8e7f23934650224a27a3b85e377581be9b812d545436e0bdcf965e377ec2864f18c960001b614284565b611cba7f1e469af591ae2941b41d0a27c7f03d6a70c15afaca2b308d21c5d7b5ff950afd60001b614284565b60608173ffffffffffffffffffffffffffffffffffffffff1663e5406dbf6040518163ffffffff1660e01b815260040160006040518083038186803b158015611d0257600080fd5b505afa158015611d16573d6000803e3d6000fd5b505050506040513d6000823e3d601f19601f820116820180604052506020811015611d4057600080fd5b8101908080516040519392919084640100000000821115611d6057600080fd5b83820191506020820185811115611d7657600080fd5b8251866020820283011164010000000082111715611d9357600080fd5b8083526020830192505050908051906020019060200280838360005b83811015611dca578082015181840152602081019050611daf565b505050509050016040525050509050611e057f9697082c6ef4fec43241a37e481d6a0fbb1e7fca964c238cf2f316cc2563f6f160001b614284565b611e317f75f5bb7df3c233e2bb4349b6d2562cb5714cc21aab1e3f9371402d70e3613a7260001b614284565b600081519050611e637f0cb6f199aa6286c6d9241672fcf2a3f229bfc63c643fe96bfd6b00c9c8b13c0260001b614284565b611e8f7fef0147fa0f16d646e96c0ab529070b8e838e12068e6e0dc59b126015d941251660001b614284565b60005b8181101561226557611ec67fc356501b4dcc03ba836c47bb51944ed1a32c8449c6060fa49dd606557eaca87160001b614284565b611ef27fc5bd0e9466c0759722a4c0087ac4ff5c51233ed497e082e538daa13f6f5a79d860001b614284565b6000838281518110611f0057fe5b60200260200101519050611f367f5a108d77a61e34577c571cfd9b0e0380ee2079f673dda83da9e61cb4a5fa8d4360001b614284565b611f627f5986a2d46f43780c097538b864b99f6cfea881ac96f03dd3710f8633a73f57fb60001b614284565b60008173ffffffffffffffffffffffffffffffffffffffff166370a08231306040518263ffffffff1660e01b8152600401808273ffffffffffffffffffffffffffffffffffffffff16815260200191505060206040518083038186803b158015611fcb57600080fd5b505afa158015611fdf573d6000803e3d6000fd5b505050506040513d6020811015611ff557600080fd5b810190808051906020019092919050505090506120347fc87e89aeb3ce52b5f34154a650ecac77f15602480a692e14149ae55d4aeb8fa760001b614284565b6120607f2e0889585b85abf32573bf528bd9593118cb175af52a09a35f8cbd88c3b9a16560001b614284565b600061208f670de0b6b3a76400006120818a8561623390919063ffffffff16565b6162b990919063ffffffff16565b90506120bd7fb7ce6b3deba38361a5ae90e247a3e4533d0f793200f7415e711804e110ed723a60001b614284565b6120e97f8de1284e41c7e10a51ef582ebb770367825e5c1a1c8bbb20b31acfa3800aeed560001b614284565b60008111156122285761211e7f983bd8ec7a46ac63e1ea96fdd6f3cf946ea0d1a0bc612c185d047ccdda493f3d60001b614284565b61214a7ff4d00a1f5cf40f76c0ae7c7fc00a307f04994ee8ecf3d155d1c2a23d75c3692d60001b614284565b6121767fe95e0046afe3ffb3a57a63400e9a935c22ab58d543bddc27d4e121b043592cc160001b614284565b8273ffffffffffffffffffffffffffffffffffffffff1663a9059cbb33836040518363ffffffff1660e01b8152600401808373ffffffffffffffffffffffffffffffffffffffff16815260200182815260200192505050602060405180830381600087803b1580156121e757600080fd5b505af11580156121fb573d6000803e3d6000fd5b505050506040513d602081101561221157600080fd5b810190808051906020019092919050505050612255565b6122547f843d3368f9acd43221bc3b99d2135446d951acceef3e28e36d736b83df2e092060001b614284565b5b5050508080600101915050611e92565b506122927fd32da7818bd6546a21a4f26810d5feb8141eaa0a4defdd2d0eccf2544d42c92060001b614284565b6122be7f1ff1baf9d811ea3008c4ba00ffc66cb519e1449cb90e68ee94d4ba7c1344753860001b614284565b60006122ed670de0b6b3a76400006122df888861623390919063ffffffff16565b6162b990919063ffffffff16565b905061231b7ff5a4c41d3c79730003e91f391bfaf0247f5795e675ea4ed6fc8ab8dbe011a5cf60001b614284565b6123477f11af5dad8a8c50afc7e234e9041f09cc8540ce229d9036a8c9127ae61d15644660001b614284565b7f79d44cc8beeed36226f14818b2ecaca7ef252bcd56c9ae35f5a86869dbdefb973033838a6123753361363d565b61237d613db4565b612385611317565b42604051808973ffffffffffffffffffffffffffffffffffffffff1681526020018873ffffffffffffffffffffffffffffffffffffffff1681526020018781526020018681526020018581526020018481526020018381526020018281526020019850505050505050505060405180910390a15050505050506001609760006101000a81548160ff02191690831515021790555050565b6000606a60009054906101000a900460ff16905090565b60006124dc612440614cf0565b846124d78560666000612451614cf0565b73ffffffffffffffffffffffffffffffffffffffff1673ffffffffffffffffffffffffffffffffffffffff16815260200190815260200160002060008973ffffffffffffffffffffffffffffffffffffffff1673ffffffffffffffffffffffffffffffffffffffff168152602001908152602001600020546164c990919063ffffffff16565b614cf8565b6001905092915050565b6125127f5c2263a09ca8ef49d37c534b0eb96fed64e7f61c6afd280202e3aa9bf357203a60001b614284565b61253e7fa63368da0e4f9d9d719d1aa65649263319b09d2a105865eb3a2838dfd5c411e660001b614284565b61256a7f64bad4b1e5d00fac51a89f24ccceb4999040e91201175475fff7a5628b78f5a160001b614284565b6125967f0c4117d54e7271462142925d4dd74b9c0c6a360e015e67c4bf189205d41e407760001b614284565b61259e615250565b73ffffffffffffffffffffffffffffffffffffffff163373ffffffffffffffffffffffffffffffffffffffff161461263e576040517f08c379a000000000000000000000000000000000000000000000000000000000815260040180806020018281038252600c8152602001807f6f6e6c79206d616e61676572000000000000000000000000000000000000000081525060200191505060405180910390fd5b61266a7f84e82d992592b800cd53a4e8ecc5e2f70ea5a3cf3c84fcdab743b89ae0207c2960001b614284565b6126967fc993a319633e375c06d08b841b4116c6ecaf4bf8688ae37f6163d517790ad1c360001b614284565b6126c27f982e1ba79e47ed99d828d477022cb7a2406be00ce6a7fdc10071939ad711ed8560001b614284565b6126ee7fcef107de6f39506db11b142b813e8b7f0c71af92870f5008a9c4d8276c0dc1cd60001b614284565b61271a7f8b590efd4b65c6ae93114f904a0a233a02c28b38581f6a8896219b69618f5fca60001b614284565b6127467f1bf2452b7ff8ca3dbf34e4910d1ee3cbed4c5fbd5e2b85fd985ce5dc3f98e59660001b614284565b80151560c960009054906101000a900460ff16151514156127cf576040517f08c379a00000000000000000000000000000000000000000000000000000000081526004018080602001828103825260168152602001807f666c6167206d75737420626520646966666572656e740000000000000000000081525060200191505060405180910390fd5b6127fb7fddd35fa904bc55c7e47222dd2c28342452762aef8676d065baff838a280c66c460001b614284565b6128277f5256939ba2876e6f13b33d7ab7e92829b308ae0d57aff9160ca500dd8bdec81860001b614284565b6128537f4dbf6f4a2cc8ea3049ee3ea9b572fd1bf845c87a31fcd50c0286d57557a7fd6760001b614284565b61285c8161511e565b50565b600061288d7f27bee97e1cdb621c9f63259420ff410173e8c0ed15d8f2fa41c7480b7c0d38a060001b614284565b6128b97fe14bc8ff01da90e7c931c099929a027d8e4d8fb05fb5608a35292459f147539e60001b614284565b6128e57fae379631a565a1071d888ec2ca26cee5af0e404876ff386012765da776f1cae160001b614284565b60cb60009054906101000a900473ffffffffffffffffffffffffffffffffffffffff1673ffffffffffffffffffffffffffffffffffffffff16634501b0886040518163ffffffff1660e01b815260040160206040518083038186803b15801561294d57600080fd5b505afa158015612961573d6000803e3d6000fd5b505050506040513d602081101561297757600080fd5b8101908080519060200190929190505050905090565b60006129bb7f0d12574f4b7f278d9be67ecc094083e8caf8102663ca305892e54b258667a32760001b614284565b6129e77f2524a264be01af74a8f29148df2e6031d3190bce04c839845252653ca7f2946d60001b614284565b612a137f5de26ee388067d42283f5e6d5a3b741da7ba8bd274bdc88600458868db4022e760001b614284565b612a3f7f44b43a1eae9102141fb2d1cb6cb3201fbcc4f4322a6d76c618907c017a0fa5f760001b614284565b612a47615250565b73ffffffffffffffffffffffffffffffffffffffff163373ffffffffffffffffffffffffffffffffffffffff161480612a8d575060c960009054906101000a900460ff16155b80612a9d5750612a9c3361452b565b5b612b0f576040517f08c379a00000000000000000000000000000000000000000000000000000000081526004018080602001828103825260148152602001807f6f6e6c79206d656d6265727320616c6c6f77656400000000000000000000000081525060200191505060405180910390fd5b612b3b7f116195ac1ba786287e5a790242b504956082bb2f806e7777c8300bb0ebcef5e260001b614284565b612b677fe5d254871adb577b94b4c961fa730238fe2eff25f72f23f0c4b7f9b3b733bed660001b614284565b612b937fde56ad99d2eff1666d155c1c3f1772e7a6bf688e58afc939ae8ff5aa2b9c936560001b614284565b612bbf7fc51c277ff1b10eadc9186472fd27f7f5accac9f1b35be8606539a643d018191c60001b614284565b612beb7f9bfc62ae1c1c9ae9431017046d6345f1d363c19747df4ea626daa96700a87ea760001b614284565b612c177f93a8854715e5646c977f15582ba6f759cf11a6ec02a0329892ef8984a2b6653160001b614284565b60ce60009054906101000a900473ffffffffffffffffffffffffffffffffffffffff1673ffffffffffffffffffffffffffffffffffffffff1663bdbef07d846040518263ffffffff1660e01b8152600401808273ffffffffffffffffffffffffffffffffffffffff16815260200191505060206040518083038186803b158015612ca057600080fd5b505afa158015612cb4573d6000803e3d6000fd5b505050506040513d6020811015612cca57600080fd5b8101908080519060200190929190505050612d4d576040517f08c379a00000000000000000000000000000000000000000000000000000000081526004018080602001828103825260158152602001807f696e76616c6964206465706f736974206173736574000000000000000000000081525060200191505060405180910390fd5b612d797f294ddeab09a3bf7f95e3fc8965bfad5efea9085d6d68baee1be3f07db184879160001b614284565b612da57fdc89eaeb5334985ad9c33f3bf3b8de1f6f8ecab476059583d988e8ec703a105960001b614284565b612dd17fa04112c7010d1533dd5bf3ac92defe2c5a0f07a5fdad6724033e0127d2de765260001b614284565b4260cd60003373ffffffffffffffffffffffffffffffffffffffff1673ffffffffffffffffffffffffffffffffffffffff16815260200190815260200160002081905550612e417f788a3647863582b48b29587650c7ea5c491458d9b9528db0f0bfc5f185fa8f5060001b614284565b612e6d7fca4d179b88f62a232bd65b298ebb552eafa9d66725dd9cc4e8bfdb662365f80d60001b614284565b612e75615703565b612ea17f85df624526cd1292c00b67da238c628c38677ba4a1a852b45d36a01e9d09032c60001b614284565b612ecd7fcac576151ec0597929cec8fedc5f067c5b1864208d90e66054c81bf973887e1c60001b614284565b6000612ed7613db4565b9050612f057f04ec26ab41867c9849d6af74555041dbc33fea41de12317f4c0186ef57bf5d4760001b614284565b612f317f51b4ca21dd76462e180326c47c32edebb195fd8589e1a02735ab9786b7e1834060001b614284565b6000612f3b611317565b9050612f697f9bfd823beaa1910e958e275de450c6baac933d2b8c42e3df6844d0e61739be5460001b614284565b612f957fbbe67c90cede5ffa9c5649f1dfe0da669949f9907c23b8e0cad3f306e21e566c60001b614284565b612fc17f8c1b5e4bdbd6b90c8efff66d03ae343beab3b74031268e8d2cc1644f17b629ea60001b614284565b8473ffffffffffffffffffffffffffffffffffffffff166323b872dd3330876040518463ffffffff1660e01b8152600401808473ffffffffffffffffffffffffffffffffffffffff1681526020018373ffffffffffffffffffffffffffffffffffffffff1681526020018281526020019350505050602060405180830381600087803b15801561305057600080fd5b505af1158015613064573d6000803e3d6000fd5b505050506040513d602081101561307a57600080fd5b81019080805190602001909291905050506130fd576040517f08c379a00000000000000000000000000000000000000000000000000000000081526004018080602001828103825260158152602001807f746f6b656e207472616e73666572206661696c6564000000000000000000000081525060200191505060405180910390fd5b6131297fe1310d8182ef42cb36953f0f26124aadec66721b400a8660a07391174a7e572860001b614284565b6131557f4ea11f2b24e9c5471d79d89e788b597a22904dd0095ec346c67abdbc2871a87460001b614284565b6131817fa36cbbbe9376df97ac689aa6ca3cecb3abf6e57ee6a4b397ad78f1ed833f53f060001b614284565b600060ce60009054906101000a900473ffffffffffffffffffffffffffffffffffffffff1673ffffffffffffffffffffffffffffffffffffffff166329c07fba87876040518363ffffffff1660e01b8152600401808373ffffffffffffffffffffffffffffffffffffffff1681526020018281526020019250505060206040518083038186803b15801561321457600080fd5b505afa158015613228573d6000803e3d6000fd5b505050506040513d602081101561323e57600080fd5b8101908080519060200190929190505050905061327d7f66b6d70ed447ecfe45c4b86e7c4d05053c7123be8c443c7be26658f0803f8a7260001b614284565b6132a97f13cf87b77871a35ff70b147b17f86d71b1afa6d2a73dd6fa509b2690b95d0f0060001b614284565b60006132d77f37f2062855b6af16e04d8a9792df507a25be3467d7b0d2f837e3a8ec5db997a160001b614284565b6133037f3f6ee8986e5d5f38064e9eb159ca0280788fd066463458e96c49171ee83324fb60001b614284565b60008311156133bc576133387fe87d14bc357c8dc4a7b7b251491885e214ea4a0c8f656013c7660d9b177202d260001b614284565b6133647fac49653103ee178e89eb227affe2d7836545e89e02e59d9a94b56e32d09717dc60001b614284565b6133907f03494f682ab73d31659901864d17c4ee07397c8cc421912e21337cdb94ee32a860001b614284565b6133b5846133a7858561623390919063ffffffff16565b6162b990919063ffffffff16565b9050613444565b6133e87fcbd9101cfcaaaa253ca60dc594e716fb508ee05d6df44b49f469c87c1537827e60001b614284565b6134147fc9dad58f81f7861366e1409c8ee2b2e21cbf947777457675a0d0006aeb5d2bfe60001b614284565b6134407fc94e62fa7c008b28d0acba5804a79f069de8812b0f8ecd1b715e48784302fa0960001b614284565b8190505b6134707fb8a5a7c832a302d2a061ffedcb9b0035cb1697f1696b90d57302e08b503f230560001b614284565b61349c7f8e99a6407a493414a13599e227316a000367940a515597853ff5a9f26e75d15b60001b614284565b6134a63382616551565b6134d27f1970a9914451bcbac59a2f527de8f91e91a587b0e96321b464010540bea5f73a60001b614284565b6134fe7f91d3849aedf880b1b04464c3b424951fff0a6fa0c6879a4841a360c237c16e4160001b614284565b7f87fdcba84e083ebb8fd661bbafee3eb38764ec6f0cbeea8ed52deffa67bd45dc3033848461352c3361363d565b61353f888b6164c990919063ffffffff16565b613552888b6164c990919063ffffffff16565b42604051808973ffffffffffffffffffffffffffffffffffffffff1681526020018873ffffffffffffffffffffffffffffffffffffffff1681526020018781526020018681526020018581526020018481526020018381526020018281526020019850505050505050505060405180910390a16135f17f3099e70e547a28f4b7eeb627f3637dc43323831d842b3913a8c47de55ab73f6160001b614284565b61361d7f24ddb649fd1400560cd19ff71036bdebb1ad6a47309d0edfc2b9b60b0b58487960001b614284565b8094505050505092915050565b60c960009054906101000a900460ff1681565b6000606560008373ffffffffffffffffffffffffffffffffffffffff1673ffffffffffffffffffffffffffffffffffffffff168152602001908152602001600020549050919050565b60006136b47f7b8620c6a18738a3b6ccda826b6bd0fca82741ff5c48757a7dc56ee9ee6a862c60001b614284565b6136e07fefa065ba0248672b80fe00ae0b21f9df6274aac4b45329e6020c00c65cfa97a960001b614284565b61370c7fd7c2e86fd0b5c1e9ff55b0cdfe231cbbe81b5f3ba5b43a4d2e24543c42da470360001b614284565b600060cb60009054906101000a900473ffffffffffffffffffffffffffffffffffffffff1673ffffffffffffffffffffffffffffffffffffffff16631d68702d6040518163ffffffff1660e01b815260040160206040518083038186803b15801561377657600080fd5b505afa15801561378a573d6000803e3d6000fd5b505050506040513d60208110156137a057600080fd5b810190808051906020019092919050505090506137df7f2be044e580ac4c0fb743c64146f8e6d28800bff7d0fd10f07e5452a28c881b0560001b614284565b61380b7f5c1a5d27c2f5e8c1333e1436badb6ffc90fba85b6739d625ee9008b4286095e560001b614284565b6138377f919eb257c672fa2a849f4a73b57121f275ae26b2f01112cfb2f809b7bb37501e60001b614284565b8073ffffffffffffffffffffffffffffffffffffffff163373ffffffffffffffffffffffffffffffffffffffff16146138d8576040517f08c379a00000000000000000000000000000000000000000000000000000000081526004018080602001828103825260188152602001807f6f6e6c792044414f206164647265737320616c6c6f776564000000000000000081525060200191505060405180910390fd5b6139047f3fb233fcc015545cf2cbc8d07a7ec944024168691d159c49475d27462c6da8a160001b614284565b6139307ffe1cb148f452c94586bb502345831a9cd5ae7a8abd6d487a92e60e4c11d74f9660001b614284565b61395c7fbc7c247261cd4067c591f79d61790574e7ea6373d9a816d1bd44baf90332646f60001b614284565b8260ce60006101000a81548173ffffffffffffffffffffffffffffffffffffffff021916908373ffffffffffffffffffffffffffffffffffffffff1602179055506139c97f627c2afa5651d3884099427f0f128ef6170895da769d8b1468d2249e11f0a36c60001b614284565b6139f57f5206092bf8d0c3f1f871b5dd47ea423873be6504efbde2c10aeab45fa91a5e9360001b614284565b7f63fb64c359a4cae97e1bf003c1ab11390b5f0e18cc5b3d67b90bd61c0f5c52fd8333604051808373ffffffffffffffffffffffffffffffffffffffff1681526020018273ffffffffffffffffffffffffffffffffffffffff1681526020019250505060405180910390a1613a8c7fbbf01a5ad846d47d9fa185aa08fc9e03f25011f3d2f53a597322b0e6c63a1cc760001b614284565b613ab87f625ebe340b4e61a956f9e6d7517d7ad88cf6325dc9a087daf8150b6625b780ff60001b614284565b6001915050919050565b60cc5481565b6000613af67f6a32e33267a8e59d9ca29244a290caaf07f574139ea8b62bacfc87aa6ebfec0b60001b614284565b613b227f6feab975e18e29bbe92620cf6b98a262b6cfcc0861968ee357a5874d845a035260001b614284565b613b4e7f407b570b0528975ae8883d6cfe9548cf47ae70d47b17870d966fa089137f5ccd60001b614284565b6000613b58613db4565b9050613b867f87ceff11f5710549f27f4b0bb9e6a9f009f10bb95ec2e3d9cd0955882cb0921f60001b614284565b613bb27f1352c009d6d048fd570374f810806bf4b21c4454973e2d5967417be3aa0da4e060001b614284565b6000613bbc611317565b9050613bea7f9f265addd7bf458e0893b97a6f30675c3587d2799e68248d1942210a18a15b5960001b614284565b613c167f92147203385aa386c44a967f667c4495f7dd72e7c99892431d3185f9077e4ec360001b614284565b613c20828261671a565b9250505090565b606060698054600181600116156101000203166002900480601f016020809104026020016040519081016040528092919081815260200182805460018160011615610100020316600290048015613cbf5780601f10613c9457610100808354040283529160200191613cbf565b820191906000526020600020905b815481529060010190602001808311613ca257829003601f168201915b5050505050905090565b6000613d8c613cd6614cf0565b84613d87856040518060600160405280602581526020016174ce6025913960666000613d00614cf0565b73ffffffffffffffffffffffffffffffffffffffff1673ffffffffffffffffffffffffffffffffffffffff16815260200190815260200160002060008a73ffffffffffffffffffffffffffffffffffffffff1673ffffffffffffffffffffffffffffffffffffffff168152602001908152602001600020546156439092919063ffffffff16565b614cf8565b6001905092915050565b6000613daa613da3614cf0565b848461537e565b6001905092915050565b6000613de27f55129d50b4fdca3815515533df618dfeebbd7640fb21cb36c7a516562576833260001b614284565b613e0e7f69887b477d5993b8b537b52960f6d8b3556ae020cd4163efa776ef09a5e208f060001b614284565b613e3a7f18dc92e5d53e1ee490a9bf8afdee578a88badc42cd7c6ddd0c9095144775ffd760001b614284565b6000613e687f2a00a07719ab242765920e4c3ad8cec482cf9014437bd6a339a0a6f9d683b2ac60001b614284565b613e947fd19b5f934799ea157b4b34e5d1c9cb991eb06812165aaf8d0ca40f092e900d6d60001b614284565b600060ce60009054906101000a900473ffffffffffffffffffffffffffffffffffffffff169050613ee77fc51f1c36cda211788dce92cca05d758e023ed2656b5fb9f977d8bfe25e9ee4b960001b614284565b613f137f55a38f20f034cb419ada82552700799a76d6b94b8c54c36f0971099f9a84410460001b614284565b60608173ffffffffffffffffffffffffffffffffffffffff1663e5406dbf6040518163ffffffff1660e01b815260040160006040518083038186803b158015613f5b57600080fd5b505afa158015613f6f573d6000803e3d6000fd5b505050506040513d6000823e3d601f19601f820116820180604052506020811015613f9957600080fd5b8101908080516040519392919084640100000000821115613fb957600080fd5b83820191506020820185811115613fcf57600080fd5b8251866020820283011164010000000082111715613fec57600080fd5b8083526020830192505050908051906020019060200280838360005b83811015614023578082015181840152602081019050614008565b50505050905001604052505050905061405e7f9b15a044bb809a3c587e2b77e7ce3210d777e21371487f9b9ec3c3727b7aa7d360001b614284565b61408a7fd93515d4d85e4b411f950fd2dfaf071e6ccd05868946451a34742a3c1118fc3460001b614284565b6000815190506140bc7f075c097f7968fad53efa26589a95efba3e88594759a02dba1a48b61aa09e4bd360001b614284565b6140e87fce32d5307a16e12d5ae898e7ab08a3233f1c70e140b9718b01aedb0c19955faf60001b614284565b60005b818110156142215761411f7fb3ad77a0a0c46ad2f29611e7d5105d4c7a485db11579260a9042feaf70410c0260001b614284565b61414b7f6616fa57ea984d43c9a7544f675c90ceb0f41299160cd213b73c929e793b9c5c60001b614284565b6142128473ffffffffffffffffffffffffffffffffffffffff1663d8af8ed485848151811061417657fe5b60200260200101516040518263ffffffff1660e01b8152600401808273ffffffffffffffffffffffffffffffffffffffff16815260200191505060206040518083038186803b1580156141c857600080fd5b505afa1580156141dc573d6000803e3d6000fd5b505050506040513d60208110156141f257600080fd5b8101908080519060200190929190505050866164c990919063ffffffff16565b945080806001019150506140eb565b5061424e7f0398fa2d74ffb6440216cc305a38e13e2b7106ce3645ed27dc490811cf4e2c7f60001b614284565b61427a7f607ab3db7f318b22a4d6e7ccf132852354c883d74d391d7d19e3379a987790a760001b614284565b8394505050505090565b50565b60006142b57ff80a324815165f52420a62c52c2f597e69dd6ee3204c9a175a2ee1875168095460001b614284565b6142e17fc3471ed1a174a3f62f507e9637ec75a2d7f3a2e92d53928a998ed4288b97921860001b614284565b61430d7fe17e0f3fa02c05ef5d12ed0f92352776f2566804d6591561e65721ed9ede592460001b614284565b600061431761285f565b90506143457f77859f4f2eaefb514ad7d360a87d34a46a041bfc2c7fc0993e4468c5eeffbc3160001b614284565b6143717f745ace821c389cd022651e0e32225f482b8120e914dee16fbc24f2685255121160001b614284565b60006143c58260cd60008773ffffffffffffffffffffffffffffffffffffffff1673ffffffffffffffffffffffffffffffffffffffff168152602001908152602001600020546164c990919063ffffffff16565b90506143f37fa613d07294d22a445d2f797880bd71a5a3097e7802365d4d5a6b5ecc402dbf6b60001b614284565b61441f7f60a0f437e05b9b4dad56f79c29e772ee4ac2cab81e5964e6b06101daeca7176360001b614284565b4281101561448a576144537f9b42805ca56debb137da293f92de44cbbccb8c9f2d053b639ead783b2cc7149a60001b614284565b61447f7f424976dc2364712a84460e4278dd7e0004eed2113a78b13cfe2155cd0775847360001b614284565b600092505050614526565b6144b67f845b2284c94c9300e0b2edc7222e451ff57f0988c193141bf5c1299cc98b628760001b614284565b6144e27f60a7a6930f1b137137fc43afedf43b5e52278060b4ca63efd8c42d2c96a7b48460001b614284565b61450e7f6f992f60d8bb70a4891d6d93c7b261035d759cea028c48085ed402189c5cd47060001b614284565b61452142826168cf90919063ffffffff16565b925050505b919050565b60006145597fe738393d6857e848ca4fba1f87368f8070d1cf4315d85d842595b70aeb4d066860001b614284565b6145857fe2c2824fd7b2a3bad9ad6229c748a5b6515cdb52a1ca2fe45429455b06f44a6760001b614284565b6145b17f41ee113cbb32f32eb7bb60232ecf1231d6330f77b9f524b72ec41ee2d97518d060001b614284565b60ce60009054906101000a900473ffffffffffffffffffffffffffffffffffffffff1673ffffffffffffffffffffffffffffffffffffffff1663bbbf725b836040518263ffffffff1660e01b8152600401808273ffffffffffffffffffffffffffffffffffffffff16815260200191505060206040518083038186803b15801561463a57600080fd5b505afa15801561464e573d6000803e3d6000fd5b505050506040513d602081101561466457600080fd5b81019080805190602001909291905050509050919050565b60cb60009054906101000a900473ffffffffffffffffffffffffffffffffffffffff1681565b6146ce7f36b141884a256889497bc371ca0891eb9ca261269012cd9da686d35c0c4e76ab60001b614284565b6146fa7f06a51360aef124c7e7764c9a52db46c6a1948f034ac5ada28010d1cfe061421960001b614284565b6147267fcfe01fef0f2a4d702611ba4eaf3bfed741d7425403b237059447e2955a6ee94d60001b614284565b61472e615703565b565b60ca5481565b6000606660008473ffffffffffffffffffffffffffffffffffffffff1673ffffffffffffffffffffffffffffffffffffffff16815260200190815260200160002060008373ffffffffffffffffffffffffffffffffffffffff1673ffffffffffffffffffffffffffffffffffffffff16815260200190815260200160002054905092915050565b60006147eb7fae00ed73f7a84bace3bda8fd1cbffafdfdda382b4ff2032ee8d47d82cd1a187a60001b614284565b6148177ff95e355d258861fbc5337f012c9ca9d7d037252fb709b8404f4bfd03cf317f1e60001b614284565b6148437fefb24e07aa0030e19d2344389f70f1f4ffbbfba9a06e7a5faea8f8d1aa853a3560001b614284565b600061484d613db4565b905061487b7fb99d33a9349a3c30d9d9f9040172f980ab514e0bd77b87985d29e6e7af99b2bc60001b614284565b6148a77ff27fa59fb0d0896a676785f3a7e9b882f8cd86d4aa0d5f7c0331bf0aa28bfee560001b614284565b60006148b1611317565b90506148df7fe73311117ccb86ac8c7dc1e50fb61f1d72aef9d0e06236424a82c8b4a5729dc360001b614284565b61490b7f5d1409b7b0a6c3f6af08cc17f53d54d635400f4f3c8c12a0b5abb9c986b1373160001b614284565b60006149397f6990badef998a0cd0a4789221df0e521d304f6d048206925a4d0698f16b1bea460001b614284565b6149657fc380f29b4f9ae92c0db0a6d8c64a706fb66d9ead69af04c19027265467b40ef560001b614284565b60006149937fe38691afdc6ca24689c68ad66f046ad60782fd671dc5dea5e029bf02266f46d660001b614284565b6149bf7f5215dee00f38f312f8a0f462fc832f98bedfe764a92a506242af977fff67ea0360001b614284565b60cb60009054906101000a900473ffffffffffffffffffffffffffffffffffffffff1673ffffffffffffffffffffffffffffffffffffffff1663b7a54526306040518263ffffffff1660e01b8152600401808273ffffffffffffffffffffffffffffffffffffffff168152602001915050604080518083038186803b158015614a4757600080fd5b505afa158015614a5b573d6000803e3d6000fd5b505050506040513d6040811015614a7157600080fd5b8101908080519060200190929190805190602001909291905050508092508193505050614ac07fbf8e98b629d02d67d94bd46b7224e51a417a56c9cc62e4105757cfa13b7cf7d860001b614284565b614aec7f32e6d90ab7fb9138e4196d40cb917f56842ce598be8f2297ab762f6078b0aa0b60001b614284565b614afb848460cc548585616919565b94505050505090565b6060614b327f4b2d47beb339fe51c9feefc8a308cb14458590f90ad84ab98520fbac46c3c20860001b614284565b614b5e7fc330c7e6e9c1f8c26c6a4837bef4461b299e0880de1366bb5ca81e79057bb7cb60001b614284565b614b8a7f4a0029b116999aa57c6e83d101076c96cec44e4e3e1d351d674eb2a92bef919360001b614284565b60ce60009054906101000a900473ffffffffffffffffffffffffffffffffffffffff1673ffffffffffffffffffffffffffffffffffffffff1663fed4416a6040518163ffffffff1660e01b815260040160006040518083038186803b158015614bf257600080fd5b505afa158015614c06573d6000803e3d6000fd5b505050506040513d6000823e3d601f19601f820116820180604052506020811015614c3057600080fd5b8101908080516040519392919084640100000000821115614c5057600080fd5b83820191506020820185811115614c6657600080fd5b8251866001820283011164010000000082111715614c8357600080fd5b8083526020830192505050908051906020019080838360005b83811015614cb7578082015181840152602081019050614c9c565b50505050905090810190601f168015614ce45780820380516001836020036101000a031916815260200191505b50604052505050905090565b600033905090565b600073ffffffffffffffffffffffffffffffffffffffff168373ffffffffffffffffffffffffffffffffffffffff161415614d7e576040517f08c379a00000000000000000000000000000000000000000000000000000000081526004018080602001828103825260248152602001806174aa6024913960400191505060405180910390fd5b600073ffffffffffffffffffffffffffffffffffffffff168273ffffffffffffffffffffffffffffffffffffffff161415614e04576040517f08c379a00000000000000000000000000000000000000000000000000000000081526004018080602001828103825260228152602001806173a56022913960400191505060405180910390fd5b80606660008573ffffffffffffffffffffffffffffffffffffffff1673ffffffffffffffffffffffffffffffffffffffff16815260200190815260200160002060008473ffffffffffffffffffffffffffffffffffffffff1673ffffffffffffffffffffffffffffffffffffffff168152602001908152602001600020819055508173ffffffffffffffffffffffffffffffffffffffff168373ffffffffffffffffffffffffffffffffffffffff167f8c5be1e5ebec7d5bd14f71427d1e84f3dd0314c0f7b2291e5b200ac8c7c3b925836040518082815260200191505060405180910390a3505050565b6000803090506000813b9050600081149250505090565b600060019054906101000a900460ff1680614f255750614f24614eef565b5b80614f3b575060008054906101000a900460ff16155b614f90576040517f08c379a000000000000000000000000000000000000000000000000000000000815260040180806020018281038252602e815260200180617436602e913960400191505060405180910390fd5b60008060019054906101000a900460ff161590508015614fe0576001600060016101000a81548160ff02191690831515021790555060016000806101000a81548160ff0219169083151502179055505b614fe8616cd4565b614ff28383616dd2565b80156150135760008060016101000a81548160ff0219169083151502179055505b505050565b600060019054906101000a900460ff16806150375750615036614eef565b5b8061504d575060008054906101000a900460ff16155b6150a2576040517f08c379a000000000000000000000000000000000000000000000000000000000815260040180806020018281038252602e815260200180617436602e913960400191505060405180910390fd5b60008060019054906101000a900460ff1615905080156150f2576001600060016101000a81548160ff02191690831515021790555060016000806101000a81548160ff0219169083151502179055505b6150fa616f1c565b801561511b5760008060016101000a81548160ff0219169083151502179055505b50565b61514a7f9e519fd4da81b4fb09f76e2043ded618747c5af0d1db848c20518061e28c684460001b614284565b6151767f195f0b47a04ea6615620dcd91972f91f08f576e5e459e0e51832dcbb6fbf6d5e60001b614284565b6151a27ff64efd2b3d5dcda16f47014c4c72074ca0aa9e965062be41a7a16759af2326ad60001b614284565b8060c960006101000a81548160ff0219169083151502179055506151e87f04a4c10d84dd818bedb78a849324d87bcf755f906be045fe1eb1f99eedd48eaa60001b614284565b6152147f38fb3f688764d133c71a41509d210b25656eba2ea438c6b8a621d2b44c73535160001b614284565b7f8d75e9ede4188432084b863d70b3416010c97547dfeb4fc17734d2e997ee0f398160405180821515815260200191505060405180910390a150565b600061527e7fa3debc32dea4bb8fa521c181b84fd3cafb24b24966cb9f7e46f2c29c331d12e460001b614284565b6152aa7f1796713ffe457cb71eb363879f4c9dfb79a47f84eb9c01c895f279ed95d4376160001b614284565b6152d67f983b6be6736fd97580cbc76c72febc2768557c20d9f50df1d250139dc40b7d9660001b614284565b60ce60009054906101000a900473ffffffffffffffffffffffffffffffffffffffff1673ffffffffffffffffffffffffffffffffffffffff1663481c6a756040518163ffffffff1660e01b815260040160206040518083038186803b15801561533e57600080fd5b505afa158015615352573d6000803e3d6000fd5b505050506040513d602081101561536857600080fd5b8101908080519060200190929190505050905090565b600073ffffffffffffffffffffffffffffffffffffffff168373ffffffffffffffffffffffffffffffffffffffff161415615404576040517f08c379a00000000000000000000000000000000000000000000000000000000081526004018080602001828103825260258152602001806174856025913960400191505060405180910390fd5b600073ffffffffffffffffffffffffffffffffffffffff168273ffffffffffffffffffffffffffffffffffffffff16141561548a576040517f08c379a00000000000000000000000000000000000000000000000000000000081526004018080602001828103825260238152602001806173606023913960400191505060405180910390fd5b615495838383617035565b615501816040518060600160405280602681526020016173c760269139606560008773ffffffffffffffffffffffffffffffffffffffff1673ffffffffffffffffffffffffffffffffffffffff168152602001908152602001600020546156439092919063ffffffff16565b606560008573ffffffffffffffffffffffffffffffffffffffff1673ffffffffffffffffffffffffffffffffffffffff1681526020019081526020016000208190555061559681606560008573ffffffffffffffffffffffffffffffffffffffff1673ffffffffffffffffffffffffffffffffffffffff168152602001908152602001600020546164c990919063ffffffff16565b606560008473ffffffffffffffffffffffffffffffffffffffff1673ffffffffffffffffffffffffffffffffffffffff168152602001908152602001600020819055508173ffffffffffffffffffffffffffffffffffffffff168373ffffffffffffffffffffffffffffffffffffffff167fddf252ad1be2c89b69c2b068fc378daa952ba7f163c4a11628f55a4df523b3ef836040518082815260200191505060405180910390a3505050565b60008383111582906156f0576040517f08c379a00000000000000000000000000000000000000000000000000000000081526004018080602001828103825283818151815260200191508051906020019080838360005b838110156156b557808201518184015260208101905061569a565b50505050905090810190601f1680156156e25780820380516001836020036101000a031916815260200191505b509250505060405180910390fd5b5060008385039050809150509392505050565b61572f7fe17e4d9e9e68ef0b4e758ea7baa0e621ead5525c2c3f6f4cbffeee7351feee9960001b614284565b61575b7f041bc95de6ee4eac0e84ed21f295c5a08db331299a242264ec20e1c861546f2f60001b614284565b6157877f585c1f15bbc7bf57517cd5a32d4decc71e66da5beceea22f713b49b19093f42c60001b614284565b6000615791613db4565b90506157bf7fdd608e0eccefb0d13b7f8be61260b4d6e96b384763cdfd8b941a03994a324f5d60001b614284565b6157eb7fd999019f4e76aafad1a4a019c914f80516f08224bf97dc9a0487a624e2ebb5d360001b614284565b60006157f5611317565b90506158237f088376e9ece7695da0387a5c00a1ec787d7da0b64b3496a7db9623e11c05f0c360001b614284565b61584f7fe19e97cd867ee63ce42e5e6fca7f903f588531d777ad6a3b4838498dde05fc0f60001b614284565b600061587d7f84d1c1a9e401bc40cfbec5e23194cac6b039f69e84458ce8b313218d361f1f6360001b614284565b6158a97f101e2e602e1eab0a86ddf4e9309067de959650d49b16cc10c5cf2dc986b1936860001b614284565b60006158d77f643a2aa625c25493aef5c5f4f0ea1a41f1cb4d66ca75b9bc3fe89acf5438eb5660001b614284565b6159037f92ed517ba1c07eef6076928d9dc1fcd37d131bb0a44efb842476e670894f06f860001b614284565b60cb60009054906101000a900473ffffffffffffffffffffffffffffffffffffffff1673ffffffffffffffffffffffffffffffffffffffff1663b7a54526306040518263ffffffff1660e01b8152600401808273ffffffffffffffffffffffffffffffffffffffff168152602001915050604080518083038186803b15801561598b57600080fd5b505afa15801561599f573d6000803e3d6000fd5b505050506040513d60408110156159b557600080fd5b8101908080519060200190929190805190602001909291905050508092508193505050615a047f4784fbc32a649f048b2630df197608a15705a6b1f4fc990c00ace2d3736d043d60001b614284565b615a307f1a9ba3187309e3b1d21de99c1703bf9e7abae6308c35b7cb21bf51f370ed461f60001b614284565b6000615a41858560cc548686616919565b9050615a6f7f587ddc245dfbfac57e8caff68a50657e8b121f58dbb591191216d905e5d8bed960001b614284565b615a9b7ff9b1543b3767f8049071afea6fa6e4c5b8ed6bc936a156180de27f527261bd1a60001b614284565b6064811015615b0657615ad07fcf06f3c18b419d1858cb89272fcf143772e3d72e7034d2ed721b5ca425d80aa760001b614284565b615afc7f6b1c85b90a7d0e783b7671cfdb1b00969f90a4d0b48a9515edcf2efc97b2876060001b614284565b5050505050616231565b615b327f7c0988967a751d220f7c6e7f7c69264f31d5cbcdb8c7708b757012a62327615c60001b614284565b615b5e7f93e0ffdac51820f4873fb766b68c2fb6d2c5805fac26d734c72c8677008c59aa60001b614284565b615b8a7ff380aa281a56cf53b988dfab3887d21aeea6c0de0f9b3fe473db050ce69dde8160001b614284565b600060cb60009054906101000a900473ffffffffffffffffffffffffffffffffffffffff1673ffffffffffffffffffffffffffffffffffffffff16631d68702d6040518163ffffffff1660e01b815260040160206040518083038186803b158015615bf457600080fd5b505afa158015615c08573d6000803e3d6000fd5b505050506040513d6020811015615c1e57600080fd5b81019080805190602001909291905050509050615c5d7f79546b5a195050ee25aa4c9e612fa294d4e02f722b558831689a1d4c0795134b60001b614284565b615c897f67fd2a864a0b811b6dc98afce22bcd4c1fad5ae016e5a4fd2d9a98e0d882b8cc60001b614284565b6000615cb77f95b05cd51f95b3aa1d3ba71a2eba30f9ae2270f893b4e18facce727a070f82d060001b614284565b615ce37fa5d1e4d4f3821699f546def80ae573f071ee4034397f6032a16b49997cc3bb5e60001b614284565b6000615d117fecab531f92c182aefd3ede1001920bbae79a8c7c35c0c0af487d2c168e0841ba60001b614284565b615d3d7f36e98820ef9977780ad680898933519a755e129fbe3ff58ba8735759e080aaa560001b614284565b60cb60009054906101000a900473ffffffffffffffffffffffffffffffffffffffff1673ffffffffffffffffffffffffffffffffffffffff16639cada6e46040518163ffffffff1660e01b8152600401604080518083038186803b158015615da457600080fd5b505afa158015615db8573d6000803e3d6000fd5b505050506040513d6040811015615dce57600080fd5b8101908080519060200190929190805190602001909291905050508092508193505050615e1d7f4b094a10cf5839bc4252490911d761c492c4bd318b8234940b6451bed0b3752460001b614284565b615e497f7686e762b066d01cae60392f8d436e203b6abf36bc30abe38c05abfc179a81a160001b614284565b6000615e7082615e62858861623390919063ffffffff16565b6162b990919063ffffffff16565b9050615e9e7f34250afcd2bde31a53cbd5765865d83895ed94fa6e46230a4d66231b416778dc60001b614284565b615eca7f4d7ce71389557989b66e1b63af22068621f3e15c19da5b15e56a6db5f4242d7860001b614284565b6000615edf82876168cf90919063ffffffff16565b9050615f0d7fe70658254f17aa54ea683bc9e7ee907c7d8837d4fe2d898b52bf2b98cb82712c60001b614284565b615f397fd5d5627dfe2952fc7f1284fae88a14492aa8161e46c2c36ddf728fdd543818f060001b614284565b6000821115615fa957615f6e7feb46fa986db157eb0ef2d80e80f3cab1c374a2fce1727d1b1a51a33cac46da9b60001b614284565b615f9a7f64bf9325b1f4bae17e1f6f420f31fe7bdc38ee4249ccd6bab3f25d309d126ff160001b614284565b615fa48583616551565b615fd6565b615fd57fbe0bbd45779d9c289770120a31e002f19bf2bf1c25335e0d50f8d47d75efecb760001b614284565b5b6160027f21746e5e0efcb1c93efb7c0de601e67df87b35139e074e4fb6cfcfa2a65b5f8060001b614284565b61602e7f6eec75d9b79c942f3d0b04eaddd63b0a26cb214c21fe935602c28f8c9f7e1ceb60001b614284565b60008111156160a5576160637f4fc555a3145832dd8996b3c308fc131fb4b738f11fe8026d82770f5eb622eb1660001b614284565b61608f7f5fd90e443f2ab23a94578430980e0ac3ccd7d337b2a19f49c11b4064c622736c60001b614284565b6160a061609a615250565b82616551565b6160d2565b6160d17f27a83275ac26d47e739ded9bfd8b2020a03eae107b24cf12a5d6e0afbd1dc62b60001b614284565b5b6160fe7fcdc0dc35b449d9063de7799919de443169d8dde7cdd3a77d62b6f8cb759da7c760001b614284565b61612a7f7e354edf9e94d7d3fbcfa4ff6d609f66fd56a3ded65d4cb4749c31b1daad7b8860001b614284565b6161348a8a61671a565b60cc819055506161667f07020aa713582cae0b27b6c3f2a45c8f1ab6fc51d9b1401703b8996827cdfa1e60001b614284565b6161927fcd84013bacc0edcdd5ee3752c2da749263058b8a8b1525417c33aec7d13709cd60001b614284565b7f755a8059d66d8d243bc9f6913f429a811f154599d0538bb0b6a2ac23f23d2ccd306161bc615250565b88858560cc54604051808773ffffffffffffffffffffffffffffffffffffffff1681526020018673ffffffffffffffffffffffffffffffffffffffff168152602001858152602001848152602001838152602001828152602001965050505050505060405180910390a1505050505050505050505b565b60008083141561624657600090506162b3565b600082840290508284828161625757fe5b04146162ae576040517f08c379a00000000000000000000000000000000000000000000000000000000081526004018080602001828103825260218152602001806173ed6021913960400191505060405180910390fd5b809150505b92915050565b60006162fb83836040518060400160405280601a81526020017f536166654d6174683a206469766973696f6e206279207a65726f0000000000008152506171f7565b905092915050565b600073ffffffffffffffffffffffffffffffffffffffff168273ffffffffffffffffffffffffffffffffffffffff161415616389576040517f08c379a00000000000000000000000000000000000000000000000000000000081526004018080602001828103825260218152602001806174646021913960400191505060405180910390fd5b61639582600083617035565b6164018160405180606001604052806022815260200161738360229139606560008673ffffffffffffffffffffffffffffffffffffffff1673ffffffffffffffffffffffffffffffffffffffff168152602001908152602001600020546156439092919063ffffffff16565b606560008473ffffffffffffffffffffffffffffffffffffffff1673ffffffffffffffffffffffffffffffffffffffff16815260200190815260200160002081905550616459816067546168cf90919063ffffffff16565b606781905550600073ffffffffffffffffffffffffffffffffffffffff168273ffffffffffffffffffffffffffffffffffffffff167fddf252ad1be2c89b69c2b068fc378daa952ba7f163c4a11628f55a4df523b3ef836040518082815260200191505060405180910390a35050565b600080828401905083811015616547576040517f08c379a000000000000000000000000000000000000000000000000000000000815260040180806020018281038252601b8152602001807f536166654d6174683a206164646974696f6e206f766572666c6f77000000000081525060200191505060405180910390fd5b8091505092915050565b600073ffffffffffffffffffffffffffffffffffffffff168273ffffffffffffffffffffffffffffffffffffffff1614156165f4576040517f08c379a000000000000000000000000000000000000000000000000000000000815260040180806020018281038252601f8152602001807f45524332303a206d696e7420746f20746865207a65726f20616464726573730081525060200191505060405180910390fd5b61660060008383617035565b616615816067546164c990919063ffffffff16565b60678190555061666d81606560008573ffffffffffffffffffffffffffffffffffffffff1673ffffffffffffffffffffffffffffffffffffffff168152602001908152602001600020546164c990919063ffffffff16565b606560008473ffffffffffffffffffffffffffffffffffffffff1673ffffffffffffffffffffffffffffffffffffffff168152602001908152602001600020819055508173ffffffffffffffffffffffffffffffffffffffff16600073ffffffffffffffffffffffffffffffffffffffff167fddf252ad1be2c89b69c2b068fc378daa952ba7f163c4a11628f55a4df523b3ef836040518082815260200191505060405180910390a35050565b60006167487f0f69b73e7ae8fabdacb8138f276af2cec4c9543312325a9a2b151b6d362666ca60001b614284565b6167747ffdbb5462412501a28d743ef8758a77d82e8758c7d7a9bb1949d269e4ceb4706e60001b614284565b6167a07fa9d1c4542173470a6a3199318ef85342ec05bea036cd4196563e203f64ef490f60001b614284565b60008214806167af5750600083145b15616815576167e07f33135c0ff5125eb919ecaa5c4737b6d3b84319ab1fe9f57ecc3e8c27ed4ae40c60001b614284565b61680c7f0a50f8e023a3619569c929ecb7a53d72e27af20346a87340989e6cd56b73444d60001b614284565b600090506168c9565b6168417fc3067410ef2d5302fc5d25f699bccec4b660d9bd2f7755ecfa7afb8502dd2ec660001b614284565b61686d7f21058561f4e82f9db29fd9a74aec5b91c6f00b9615e52782bf6d68ef925702d460001b614284565b6168997fe368203ac3190dec7aaff6d7e2dafda75893b32e0f768d66935a68456d9c215b60001b614284565b6168c6826168b8670de0b6b3a76400008661623390919063ffffffff16565b6162b990919063ffffffff16565b90505b92915050565b600061691183836040518060400160405280601e81526020017f536166654d6174683a207375627472616374696f6e206f766572666c6f770000815250615643565b905092915050565b60006169477ffbec90e3044034dde12940156712f2bbf2604b1deec23fe84a95d14f044037d960001b614284565b6169737f3c5983583e862154902346c68c2948dc976225e1f6411c7e6b9102e5133636fe60001b614284565b61699f7f51ec5fa497e384ed0a1a228249a761c3393fa72e01196fb1a26d74ec6945192a60001b614284565b60008514806169ae5750600086145b15616a14576169df7f661c0e99ee7d5164d7da356d3d70a921fa39664c2db8712c86f29b746f76d31c60001b614284565b616a0b7fe06d8fe0c96cc768a0dffdfeea5eea1539bf3c7656ca9aa53e950ded4e37d9dd60001b614284565b60009050616ccb565b616a407f4d4e6a9f4c02bb42a6402615723d3cabb7c0310ccbb066d9c3bcac5bbb6cecb860001b614284565b616a6c7f57cbcaa36bdb78597187fbde2f4d5e5fe7d6ea52310557c6e8a4cc36becd72a360001b614284565b616a987f7dae42c543c4fe6e8b89e9a7b9254a6a9c5e05984ba5cbf58a7155d23a0a348960001b614284565b6000616ac786616ab9670de0b6b3a76400008a61623390919063ffffffff16565b6162b990919063ffffffff16565b9050616af57f1db2ef916d50c675b73b28d0f19eb757f6fc6e2d95085d252246eacc4892b05060001b614284565b616b217f800351e705841033161dffa1281f39308842587ce73102499ec17e7d35a5eec260001b614284565b848111616b8a57616b547f09a51ea4646f031265b1484bb9cd535f5b23aea0a7ade5bef2c7f09e74cde4ad60001b614284565b616b807fbce840b8a6329164233620d490683e24942b5caefb11610be3ef5df242e8e00b60001b614284565b6000915050616ccb565b616bb67f9368870f64a0c4eae225374002f11353ee415a49f4ab81395ff46058c402795060001b614284565b616be27f6d2b724345bfeccdff47237f5825014d946a3497f0bea852d3cbc67854ab8be960001b614284565b616c0e7ffaf0fee296fdc279b69c15d4959cc4de384dcee0d71822aa1467ff2a4a7d740060001b614284565b6000616c6b82616c5d86616c4f89616c418d616c338e8b6168cf90919063ffffffff16565b61623390919063ffffffff16565b61623390919063ffffffff16565b6162b990919063ffffffff16565b6162b990919063ffffffff16565b9050616c997fd8fc5601e9c92672ae6e3ac1a9039dd27a5ec16578f9ac2c949f424071076dec60001b614284565b616cc57fedc6949760061555622e337d58f01976adff1136ff907780f744afbe448b23fb60001b614284565b80925050505b95945050505050565b600060019054906101000a900460ff1680616cf35750616cf2614eef565b5b80616d09575060008054906101000a900460ff16155b616d5e576040517f08c379a000000000000000000000000000000000000000000000000000000000815260040180806020018281038252602e815260200180617436602e913960400191505060405180910390fd5b60008060019054906101000a900460ff161590508015616dae576001600060016101000a81548160ff02191690831515021790555060016000806101000a81548160ff0219169083151502179055505b8015616dcf5760008060016101000a81548160ff0219169083151502179055505b50565b600060019054906101000a900460ff1680616df15750616df0614eef565b5b80616e07575060008054906101000a900460ff16155b616e5c576040517f08c379a000000000000000000000000000000000000000000000000000000000815260040180806020018281038252602e815260200180617436602e913960400191505060405180910390fd5b60008060019054906101000a900460ff161590508015616eac576001600060016101000a81548160ff02191690831515021790555060016000806101000a81548160ff0219169083151502179055505b8260689080519060200190616ec29291906172c2565b508160699080519060200190616ed99291906172c2565b506012606a60006101000a81548160ff021916908360ff1602179055508015616f175760008060016101000a81548160ff0219169083151502179055505b505050565b600060019054906101000a900460ff1680616f3b5750616f3a614eef565b5b80616f51575060008054906101000a900460ff16155b616fa6576040517f08c379a000000000000000000000000000000000000000000000000000000000815260040180806020018281038252602e815260200180617436602e913960400191505060405180910390fd5b60008060019054906101000a900460ff161590508015616ff6576001600060016101000a81548160ff02191690831515021790555060016000806101000a81548160ff0219169083151502179055505b6001609760006101000a81548160ff02191690831515021790555080156170325760008060016101000a81548160ff0219169083151502179055505b50565b6170617fda49ad940c1f05674bef2ddab8e363a9b036ac07556cc21cc304c7be9f07914060001b614284565b61708d7f800dda560d870eec1c01092de23f179d64072aa9996257d6b6b85e5c224b6ad160001b614284565b6170b97fa95ec4bc6abed3151225b319c6e4df621447021d1c4d6956d7568940f8d16dbf60001b614284565b6170c48383836172bd565b6170f07f0b6577bf6dad542540d2ab73ba2c2f718c552dcb39f22861569794bcdf04640460001b614284565b61711c7f63da789e2df51b8fe011adb622e9417cf7c36dbf8607538e31ff4cdcf51b7fee60001b614284565b6171487fad148673c9534c2467f9b4ab40bad2a4796f11855a641006af170ccb4778690460001b614284565b600061715384614287565b146171c6576040517f08c379a000000000000000000000000000000000000000000000000000000000815260040180806020018281038252600f8152602001807f636f6f6c646f776e20616374697665000000000000000000000000000000000081525060200191505060405180910390fd5b6171f27f37741b1456713a07b1fc9da17bed98d29a1feb59a8a5b1eb6d0f64c103fc647e60001b614284565b505050565b600080831182906172a3576040517f08c379a00000000000000000000000000000000000000000000000000000000081526004018080602001828103825283818151815260200191508051906020019080838360005b8381101561726857808201518184015260208101905061724d565b50505050905090810190601f1680156172955780820380516001836020036101000a031916815260200191505b509250505060405180910390fd5b5060008385816172af57fe5b049050809150509392505050565b505050565b828054600181600116156101000203166002900490600052602060002090601f016020900481019282601f1061730357805160ff1916838001178555617331565b82800160010185558215617331579182015b82811115617330578251825591602001919060010190617315565b5b50905061733e9190617342565b5090565b5b8082111561735b576000816000905550600101617343565b509056fe45524332303a207472616e7366657220746f20746865207a65726f206164647265737345524332303a206275726e20616d6f756e7420657863656564732062616c616e636545524332303a20617070726f766520746f20746865207a65726f206164647265737345524332303a207472616e7366657220616d6f756e7420657863656564732062616c616e6365536166654d6174683a206d756c7469706c69636174696f6e206f766572666c6f7745524332303a207472616e7366657220616d6f756e74206578636565647320616c6c6f77616e6365436f6e747261637420696e7374616e63652068617320616c7265616479206265656e20696e697469616c697a656445524332303a206275726e2066726f6d20746865207a65726f206164647265737345524332303a207472616e736665722066726f6d20746865207a65726f206164647265737345524332303a20617070726f76652066726f6d20746865207a65726f206164647265737345524332303a2064656372656173656420616c6c6f77616e63652062656c6f77207a65726fa2646970667358221220d6d0e99861c342d29049ecbbf6a47051afe6b85740c3cc01b6db81b7ea7bd24464736f6c634300060c0033",
  "linkReferences": {},
  "deployedLinkReferences": {}
}