{
  "_format": "hh-sol-artifact-1",
  "contractName": "PoolLogic",
  "sourceName": "contracts/PoolLogic.sol",
  "abi": [
    {
      "anonymous": false,
      "inputs": [
        {
          "indexed": true,
          "internalType": "address",
          "name": "owner",
          "type": "address"
        },
        {
          "indexed": true,
          "internalType": "address",
          "name": "spender",
          "type": "address"
        },
        {
          "indexed": false,
          "internalType": "uint256",
          "name": "value",
          "type": "uint256"
        }
      ],
      "name": "Approval",
      "type": "event"
    },
    {
      "anonymous": false,
      "inputs": [
        {
          "indexed": false,
          "internalType": "address",
          "name": "fundAddress",
          "type": "address"
        },
        {
          "indexed": false,
          "internalType": "address",
          "name": "investor",
          "type": "address"
        },
        {
          "indexed": false,
          "internalType": "uint256",
          "name": "valueDeposited",
          "type": "uint256"
        },
        {
          "indexed": false,
          "internalType": "uint256",
          "name": "fundTokensReceived",
          "type": "uint256"
        },
        {
          "indexed": false,
          "internalType": "uint256",
          "name": "totalInvestorFundTokens",
          "type": "uint256"
        },
        {
          "indexed": false,
          "internalType": "uint256",
          "name": "fundValue",
          "type": "uint256"
        },
        {
          "indexed": false,
          "internalType": "uint256",
          "name": "totalSupply",
          "type": "uint256"
        },
        {
          "indexed": false,
          "internalType": "uint256",
          "name": "time",
          "type": "uint256"
        }
      ],
      "name": "Deposit",
      "type": "event"
    },
    {
      "anonymous": false,
      "inputs": [
        {
          "indexed": false,
          "internalType": "address",
          "name": "pool",
          "type": "address"
        },
        {
          "indexed": false,
          "internalType": "address",
          "name": "manager",
          "type": "address"
        },
        {
          "indexed": false,
          "internalType": "uint256",
          "name": "available",
          "type": "uint256"
        },
        {
          "indexed": false,
          "internalType": "uint256",
          "name": "daoFee",
          "type": "uint256"
        },
        {
          "indexed": false,
          "internalType": "uint256",
          "name": "managerFee",
          "type": "uint256"
        },
        {
          "indexed": false,
          "internalType": "uint256",
          "name": "tokenPriceAtLastFeeMint",
          "type": "uint256"
        }
      ],
      "name": "ManagerFeeMinted",
      "type": "event"
    },
    {
      "anonymous": false,
      "inputs": [
        {
          "indexed": false,
          "internalType": "address",
          "name": "poolManagerLogic",
          "type": "address"
        },
        {
          "indexed": false,
          "internalType": "address",
          "name": "from",
          "type": "address"
        }
      ],
      "name": "PoolManagerLogicSet",
      "type": "event"
    },
    {
      "anonymous": false,
      "inputs": [
        {
          "indexed": false,
          "internalType": "bool",
          "name": "isPoolPrivate",
          "type": "bool"
        }
      ],
      "name": "PoolPrivacyUpdated",
      "type": "event"
    },
    {
      "anonymous": false,
      "inputs": [
        {
          "indexed": false,
          "internalType": "address",
          "name": "manager",
          "type": "address"
        },
        {
          "indexed": false,
          "internalType": "uint256",
          "name": "time",
          "type": "uint256"
        }
      ],
      "name": "TransactionExecuted",
      "type": "event"
    },
    {
      "anonymous": false,
      "inputs": [
        {
          "indexed": true,
          "internalType": "address",
          "name": "from",
          "type": "address"
        },
        {
          "indexed": true,
          "internalType": "address",
          "name": "to",
          "type": "address"
        },
        {
          "indexed": false,
          "internalType": "uint256",
          "name": "value",
          "type": "uint256"
        }
      ],
      "name": "Transfer",
      "type": "event"
    },
    {
      "anonymous": false,
      "inputs": [
        {
          "indexed": false,
          "internalType": "address",
          "name": "fundAddress",
          "type": "address"
        },
        {
          "indexed": false,
          "internalType": "address",
          "name": "investor",
          "type": "address"
        },
        {
          "indexed": false,
          "internalType": "uint256",
          "name": "valueWithdrawn",
          "type": "uint256"
        },
        {
          "indexed": false,
          "internalType": "uint256",
          "name": "fundTokensWithdrawn",
          "type": "uint256"
        },
        {
          "indexed": false,
          "internalType": "uint256",
          "name": "totalInvestorFundTokens",
          "type": "uint256"
        },
        {
          "indexed": false,
          "internalType": "uint256",
          "name": "fundValue",
          "type": "uint256"
        },
        {
          "indexed": false,
          "internalType": "uint256",
          "name": "totalSupply",
          "type": "uint256"
        },
        {
          "indexed": false,
          "internalType": "uint256",
          "name": "time",
          "type": "uint256"
        }
      ],
      "name": "Withdrawal",
      "type": "event"
    },
    {
      "inputs": [
        {
          "internalType": "address",
          "name": "owner",
          "type": "address"
        },
        {
          "internalType": "address",
          "name": "spender",
          "type": "address"
        }
      ],
      "name": "allowance",
      "outputs": [
        {
          "internalType": "uint256",
          "name": "",
          "type": "uint256"
        }
      ],
      "stateMutability": "view",
      "type": "function"
    },
    {
      "inputs": [
        {
          "internalType": "address",
          "name": "spender",
          "type": "address"
        },
        {
          "internalType": "uint256",
          "name": "amount",
          "type": "uint256"
        }
      ],
      "name": "approve",
      "outputs": [
        {
          "internalType": "bool",
          "name": "",
          "type": "bool"
        }
      ],
      "stateMutability": "nonpayable",
      "type": "function"
    },
    {
      "inputs": [],
      "name": "availableManagerFee",
      "outputs": [
        {
          "internalType": "uint256",
          "name": "",
          "type": "uint256"
        }
      ],
      "stateMutability": "view",
      "type": "function"
    },
    {
      "inputs": [
        {
          "internalType": "address",
          "name": "account",
          "type": "address"
        }
      ],
      "name": "balanceOf",
      "outputs": [
        {
          "internalType": "uint256",
          "name": "",
          "type": "uint256"
        }
      ],
      "stateMutability": "view",
      "type": "function"
    },
    {
      "inputs": [
        {
          "internalType": "bytes32",
          "name": "data",
          "type": "bytes32"
        }
      ],
      "name": "convert32toAddress",
      "outputs": [
        {
          "internalType": "address",
          "name": "o",
          "type": "address"
        }
      ],
      "stateMutability": "pure",
      "type": "function"
    },
    {
      "inputs": [],
      "name": "creationTime",
      "outputs": [
        {
          "internalType": "uint256",
          "name": "",
          "type": "uint256"
        }
      ],
      "stateMutability": "view",
      "type": "function"
    },
    {
      "inputs": [],
      "name": "creator",
      "outputs": [
        {
          "internalType": "address",
          "name": "",
          "type": "address"
        }
      ],
      "stateMutability": "view",
      "type": "function"
    },
    {
      "inputs": [],
      "name": "decimals",
      "outputs": [
        {
          "internalType": "uint8",
          "name": "",
          "type": "uint8"
        }
      ],
      "stateMutability": "view",
      "type": "function"
    },
    {
      "inputs": [
        {
          "internalType": "address",
          "name": "spender",
          "type": "address"
        },
        {
          "internalType": "uint256",
          "name": "subtractedValue",
          "type": "uint256"
        }
      ],
      "name": "decreaseAllowance",
      "outputs": [
        {
          "internalType": "bool",
          "name": "",
          "type": "bool"
        }
      ],
      "stateMutability": "nonpayable",
      "type": "function"
    },
    {
      "inputs": [
        {
          "internalType": "address",
          "name": "_asset",
          "type": "address"
        },
        {
          "internalType": "uint256",
          "name": "_amount",
          "type": "uint256"
        }
      ],
      "name": "deposit",
      "outputs": [
        {
          "internalType": "uint256",
          "name": "",
          "type": "uint256"
        }
      ],
      "stateMutability": "nonpayable",
      "type": "function"
    },
    {
      "inputs": [
        {
          "internalType": "address",
          "name": "to",
          "type": "address"
        },
        {
          "internalType": "bytes",
          "name": "data",
          "type": "bytes"
        }
      ],
      "name": "execTransaction",
      "outputs": [
        {
          "internalType": "bool",
          "name": "",
          "type": "bool"
        }
      ],
      "stateMutability": "nonpayable",
      "type": "function"
    },
    {
      "inputs": [],
      "name": "factory",
      "outputs": [
        {
          "internalType": "address",
          "name": "",
          "type": "address"
        }
      ],
      "stateMutability": "view",
      "type": "function"
    },
    {
      "inputs": [
        {
          "internalType": "bytes",
          "name": "data",
          "type": "bytes"
        },
        {
          "internalType": "uint8",
          "name": "inputNum",
          "type": "uint8"
        },
        {
          "internalType": "uint8",
          "name": "arrayIndex",
          "type": "uint8"
        }
      ],
      "name": "getArrayIndex",
      "outputs": [
        {
          "internalType": "bytes32",
          "name": "",
          "type": "bytes32"
        }
      ],
      "stateMutability": "pure",
      "type": "function"
    },
    {
      "inputs": [
        {
          "internalType": "bytes",
          "name": "data",
          "type": "bytes"
        },
        {
          "internalType": "uint8",
          "name": "inputNum",
          "type": "uint8"
        }
      ],
      "name": "getArrayLast",
      "outputs": [
        {
          "internalType": "bytes32",
          "name": "",
          "type": "bytes32"
        }
      ],
      "stateMutability": "pure",
      "type": "function"
    },
    {
      "inputs": [
        {
          "internalType": "bytes",
          "name": "data",
          "type": "bytes"
        },
        {
          "internalType": "uint8",
          "name": "inputNum",
          "type": "uint8"
        }
      ],
      "name": "getArrayLength",
      "outputs": [
        {
          "internalType": "uint256",
          "name": "",
          "type": "uint256"
        }
      ],
      "stateMutability": "pure",
      "type": "function"
    },
    {
      "inputs": [],
      "name": "getExitCooldown",
      "outputs": [
        {
          "internalType": "uint256",
          "name": "",
          "type": "uint256"
        }
      ],
      "stateMutability": "view",
      "type": "function"
    },
    {
      "inputs": [
        {
          "internalType": "address",
          "name": "sender",
          "type": "address"
        }
      ],
      "name": "getExitRemainingCooldown",
      "outputs": [
        {
          "internalType": "uint256",
          "name": "",
          "type": "uint256"
        }
      ],
      "stateMutability": "view",
      "type": "function"
    },
    {
      "inputs": [],
      "name": "getFundSummary",
      "outputs": [
        {
          "internalType": "string",
          "name": "",
          "type": "string"
        },
        {
          "internalType": "uint256",
          "name": "",
          "type": "uint256"
        },
        {
          "internalType": "uint256",
          "name": "",
          "type": "uint256"
        },
        {
          "internalType": "address",
          "name": "",
          "type": "address"
        },
        {
          "internalType": "string",
          "name": "",
          "type": "string"
        },
        {
          "internalType": "uint256",
          "name": "",
          "type": "uint256"
        },
        {
          "internalType": "bool",
          "name": "",
          "type": "bool"
        },
        {
          "internalType": "uint256",
          "name": "",
          "type": "uint256"
        },
        {
          "internalType": "uint256",
          "name": "",
          "type": "uint256"
        }
      ],
      "stateMutability": "view",
      "type": "function"
    },
    {
      "inputs": [
        {
          "internalType": "bytes",
          "name": "data",
          "type": "bytes"
        },
        {
          "internalType": "uint8",
          "name": "inputNum",
          "type": "uint8"
        }
      ],
      "name": "getInput",
      "outputs": [
        {
          "internalType": "bytes32",
          "name": "",
          "type": "bytes32"
        }
      ],
      "stateMutability": "pure",
      "type": "function"
    },
    {
      "inputs": [
        {
          "internalType": "bytes",
          "name": "data",
          "type": "bytes"
        }
      ],
      "name": "getMethod",
      "outputs": [
        {
          "internalType": "bytes4",
          "name": "",
          "type": "bytes4"
        }
      ],
      "stateMutability": "pure",
      "type": "function"
    },
    {
      "inputs": [
        {
          "internalType": "address",
          "name": "spender",
          "type": "address"
        },
        {
          "internalType": "uint256",
          "name": "addedValue",
          "type": "uint256"
        }
      ],
      "name": "increaseAllowance",
      "outputs": [
        {
          "internalType": "bool",
          "name": "",
          "type": "bool"
        }
      ],
      "stateMutability": "nonpayable",
      "type": "function"
    },
    {
      "inputs": [
        {
          "internalType": "address",
          "name": "_factory",
          "type": "address"
        },
        {
          "internalType": "bool",
          "name": "_privatePool",
          "type": "bool"
        },
        {
          "internalType": "string",
          "name": "_fundName",
          "type": "string"
        },
        {
          "internalType": "string",
          "name": "_fundSymbol",
          "type": "string"
        },
        {
          "internalType": "address",
          "name": "_poolManagerLogic",
          "type": "address"
        }
      ],
      "name": "initialize",
      "outputs": [],
      "stateMutability": "nonpayable",
      "type": "function"
    },
    {
      "inputs": [
        {
          "internalType": "address",
          "name": "member",
          "type": "address"
        }
      ],
      "name": "isMemberAllowed",
      "outputs": [
        {
          "internalType": "bool",
          "name": "",
          "type": "bool"
        }
      ],
      "stateMutability": "view",
      "type": "function"
    },
    {
      "inputs": [
        {
          "internalType": "address",
          "name": "",
          "type": "address"
        }
      ],
      "name": "lastDeposit",
      "outputs": [
        {
          "internalType": "uint256",
          "name": "",
          "type": "uint256"
        }
      ],
      "stateMutability": "view",
      "type": "function"
    },
    {
      "inputs": [],
      "name": "managerName",
      "outputs": [
        {
          "internalType": "string",
          "name": "",
          "type": "string"
        }
      ],
      "stateMutability": "view",
      "type": "function"
    },
    {
      "inputs": [],
      "name": "mintManagerFee",
      "outputs": [],
      "stateMutability": "nonpayable",
      "type": "function"
    },
    {
      "inputs": [],
      "name": "name",
      "outputs": [
        {
          "internalType": "string",
          "name": "",
          "type": "string"
        }
      ],
      "stateMutability": "view",
      "type": "function"
    },
    {
      "inputs": [],
      "name": "poolManagerLogic",
      "outputs": [
        {
          "internalType": "address",
          "name": "",
          "type": "address"
        }
      ],
      "stateMutability": "view",
      "type": "function"
    },
    {
      "inputs": [],
      "name": "privatePool",
      "outputs": [
        {
          "internalType": "bool",
          "name": "",
          "type": "bool"
        }
      ],
      "stateMutability": "view",
      "type": "function"
    },
    {
      "inputs": [
        {
          "internalType": "bytes",
          "name": "data",
          "type": "bytes"
        },
        {
          "internalType": "uint256",
          "name": "offset",
          "type": "uint256"
        },
        {
          "internalType": "uint256",
          "name": "length",
          "type": "uint256"
        }
      ],
      "name": "read32",
      "outputs": [
        {
          "internalType": "bytes32",
          "name": "o",
          "type": "bytes32"
        }
      ],
      "stateMutability": "pure",
      "type": "function"
    },
    {
      "inputs": [
        {
          "internalType": "bytes",
          "name": "data",
          "type": "bytes"
        },
        {
          "internalType": "uint256",
          "name": "offset",
          "type": "uint256"
        },
        {
          "internalType": "uint256",
          "name": "length",
          "type": "uint256"
        }
      ],
      "name": "read4left",
      "outputs": [
        {
          "internalType": "bytes4",
          "name": "o",
          "type": "bytes4"
        }
      ],
      "stateMutability": "pure",
      "type": "function"
    },
    {
      "inputs": [
        {
          "internalType": "address",
          "name": "_poolManagerLogic",
          "type": "address"
        }
      ],
      "name": "setPoolManagerLogic",
      "outputs": [
        {
          "internalType": "bool",
          "name": "",
          "type": "bool"
        }
      ],
      "stateMutability": "nonpayable",
      "type": "function"
    },
    {
      "inputs": [
        {
          "internalType": "bool",
          "name": "_privatePool",
          "type": "bool"
        }
      ],
      "name": "setPoolPrivate",
      "outputs": [],
      "stateMutability": "nonpayable",
      "type": "function"
    },
    {
      "inputs": [],
      "name": "symbol",
      "outputs": [
        {
          "internalType": "string",
          "name": "",
          "type": "string"
        }
      ],
      "stateMutability": "view",
      "type": "function"
    },
    {
      "inputs": [],
      "name": "tokenPrice",
      "outputs": [
        {
          "internalType": "uint256",
          "name": "",
          "type": "uint256"
        }
      ],
      "stateMutability": "view",
      "type": "function"
    },
    {
      "inputs": [],
      "name": "tokenPriceAtLastFeeMint",
      "outputs": [
        {
          "internalType": "uint256",
          "name": "",
          "type": "uint256"
        }
      ],
      "stateMutability": "view",
      "type": "function"
    },
    {
      "inputs": [],
      "name": "totalFundValue",
      "outputs": [
        {
          "internalType": "uint256",
          "name": "",
          "type": "uint256"
        }
      ],
      "stateMutability": "view",
      "type": "function"
    },
    {
      "inputs": [],
      "name": "totalSupply",
      "outputs": [
        {
          "internalType": "uint256",
          "name": "",
          "type": "uint256"
        }
      ],
      "stateMutability": "view",
      "type": "function"
    },
    {
      "inputs": [
        {
          "internalType": "address",
          "name": "recipient",
          "type": "address"
        },
        {
          "internalType": "uint256",
          "name": "amount",
          "type": "uint256"
        }
      ],
      "name": "transfer",
      "outputs": [
        {
          "internalType": "bool",
          "name": "",
          "type": "bool"
        }
      ],
      "stateMutability": "nonpayable",
      "type": "function"
    },
    {
      "inputs": [
        {
          "internalType": "address",
          "name": "sender",
          "type": "address"
        },
        {
          "internalType": "address",
          "name": "recipient",
          "type": "address"
        },
        {
          "internalType": "uint256",
          "name": "amount",
          "type": "uint256"
        }
      ],
      "name": "transferFrom",
      "outputs": [
        {
          "internalType": "bool",
          "name": "",
          "type": "bool"
        }
      ],
      "stateMutability": "nonpayable",
      "type": "function"
    },
    {
      "inputs": [
        {
          "internalType": "uint256",
          "name": "_fundTokenAmount",
          "type": "uint256"
        }
      ],
      "name": "withdraw",
      "outputs": [],
      "stateMutability": "nonpayable",
      "type": "function"
    }
  ],
  "bytecode": "0x608060405234801561001057600080fd5b50613e45806100206000396000f3fe608060405234801561001057600080fd5b50600436106102535760003560e01c806370a0823111610146578063ad60ffcc116100c3578063cc3c6df611610087578063cc3c6df614610cea578063d8270dce14610cf2578063db896b5714610cfa578063dd62ed3e14610da3578063edbf6f5014610dd1578063fed4416a14610dd957610253565b8063ad60ffcc14610bea578063b8ea2b6e14610bf2578063bbbf725b14610c18578063c3c6279f14610c3e578063c45a015514610ce257610253565b806382f86acc1161010a57806382f86acc14610a3857806395d89b4114610ae1578063998546e314610ae9578063a457c2d714610b92578063a9059cbb14610bbe57610253565b806370a0823114610928578063750226de1461094e5780637714f39d146109745780637ae7cfb51461097c5780637ff9b59614610a3057610253565b806329d16ee8116101d457806341dc16c31161019857806341dc16c3146107725780634501b0881461082657806347e7ef241461082e578063568b5a2f1461085a57806359b5e75e1461092057610253565b806329d16ee8146106c65780632e1a7d4d146106ec578063313ce5671461070957806339509351146107275780633babaad51461075357610253565b806318160ddd1161021b57806318160ddd146105415780631c5918d2146105495780631e50a4a61461066b5780631eba30771461067357806323b872dd1461069057610253565b806302d05d3f1461025857806306fdde031461027c578063095ea7b3146102f957806309ff5c7d146103395780630ccb30c7146103f4575b600080fd5b610260610de1565b604080516001600160a01b039092168252519081900360200190f35b610284610df5565b6040805160208082528351818301528351919283929083019185019080838360005b838110156102be5781810151838201526020016102a6565b50505050905090810190601f1680156102eb5780820380516001836020036101000a031916815260200191505b509250505060405180910390f35b6103256004803603604081101561030f57600080fd5b506001600160a01b038135169060200135610e8b565b604080519115158252519081900360200190f35b6103e26004803603604081101561034f57600080fd5b810190602081018135600160201b81111561036957600080fd5b82018360208201111561037b57600080fd5b803590602001918460018302840111600160201b8311171561039c57600080fd5b91908080601f0160208091040260200160405190810160405280939291908181526020018383808284376000920191909152509295505050903560ff169150610ea99050565b60408051918252519081900360200190f35b61053f600480360360a081101561040a57600080fd5b6001600160a01b03823516916020810135151591810190606081016040820135600160201b81111561043b57600080fd5b82018360208201111561044d57600080fd5b803590602001918460018302840111600160201b8311171561046e57600080fd5b91908080601f0160208091040260200160405190810160405280939291908181526020018383808284376000920191909152509295949360208101935035915050600160201b8111156104c057600080fd5b8201836020820111156104d257600080fd5b803590602001918460018302840111600160201b831117156104f357600080fd5b91908080601f016020809104026020016040519081016040528093929190818152602001838380828437600092019190915250929550505090356001600160a01b03169150610f3a9050565b005b6103e2611059565b61055161105f565b60405180806020018a8152602001898152602001886001600160a01b0316815260200180602001878152602001861515815260200185815260200184815260200183810383528c818151815260200191508051906020019080838360005b838110156105c75781810151838201526020016105af565b50505050905090810190601f1680156105f45780820380516001836020036101000a031916815260200191505b5083810382528851815288516020918201918a019080838360005b8381101561062757818101518382015260200161060f565b50505050905090810190601f1680156106545780820380516001836020036101000a031916815260200191505b509b50505050505050505050505060405180910390f35b610260611166565b6102606004803603602081101561068957600080fd5b5035611175565b610325600480360360608110156106a657600080fd5b506001600160a01b0381358116916020810135909116906040013561117c565b6103e2600480360360208110156106dc57600080fd5b50356001600160a01b0316611203565b61053f6004803603602081101561070257600080fd5b5035611215565b61071161172b565b6040805160ff9092168252519081900360200190f35b6103256004803603604081101561073d57600080fd5b506001600160a01b038135169060200135611734565b61053f6004803603602081101561076957600080fd5b50351515611782565b6103e26004803603606081101561078857600080fd5b810190602081018135600160201b8111156107a257600080fd5b8201836020820111156107b457600080fd5b803590602001918460018302840111600160201b831117156107d557600080fd5b91908080601f0160208091040260200160405190810160405280939291908181526020018383808284376000920191909152509295505060ff83358116945060209093013590921691506118419050565b6103e2611929565b6103e26004803603604081101561084457600080fd5b506001600160a01b03813516906020013561199f565b6109036004803603606081101561087057600080fd5b810190602081018135600160201b81111561088a57600080fd5b82018360208201111561089c57600080fd5b803590602001918460018302840111600160201b831117156108bd57600080fd5b91908080601f0160208091040260200160405190810160405280939291908181526020018383808284376000920191909152509295505082359350505060200135611de7565b604080516001600160e01b03199092168252519081900360200190f35b610325611e68565b6103e26004803603602081101561093e57600080fd5b50356001600160a01b0316611e71565b6103256004803603602081101561096457600080fd5b50356001600160a01b0316611e8c565b6103e2611fc8565b6103256004803603604081101561099257600080fd5b6001600160a01b038235169190810190604081016020820135600160201b8111156109bc57600080fd5b8201836020820111156109ce57600080fd5b803590602001918460018302840111600160201b831117156109ef57600080fd5b91908080601f016020809104026020016040519081016040528093929190818152602001838380828437600092019190915250929550611fce945050505050565b6103e2612605565b6103e260048036036040811015610a4e57600080fd5b810190602081018135600160201b811115610a6857600080fd5b820183602082011115610a7a57600080fd5b803590602001918460018302840111600160201b83111715610a9b57600080fd5b91908080601f0160208091040260200160405190810160405280939291908181526020018383808284376000920191909152509295505050903560ff16915061262f9050565b61028461264d565b6103e260048036036040811015610aff57600080fd5b810190602081018135600160201b811115610b1957600080fd5b820183602082011115610b2b57600080fd5b803590602001918460018302840111600160201b83111715610b4c57600080fd5b91908080601f0160208091040260200160405190810160405280939291908181526020018383808284376000920191909152509295505050903560ff1691506126ae9050565b61032560048036036040811015610ba857600080fd5b506001600160a01b0381351690602001356126df565b61032560048036036040811015610bd457600080fd5b506001600160a01b038135169060200135612747565b6103e261275b565b6103e260048036036020811015610c0857600080fd5b50356001600160a01b031661292d565b61032560048036036020811015610c2e57600080fd5b50356001600160a01b031661297e565b61090360048036036020811015610c5457600080fd5b810190602081018135600160201b811115610c6e57600080fd5b820183602082011115610c8057600080fd5b803590602001918460018302840111600160201b83111715610ca157600080fd5b91908080601f016020809104026020016040519081016040528093929190818152602001838380828437600092019190915250929550612a01945050505050565b610260612a10565b61053f612a1f565b6103e2612ae8565b6103e260048036036060811015610d1057600080fd5b810190602081018135600160201b811115610d2a57600080fd5b820183602082011115610d3c57600080fd5b803590602001918460018302840111600160201b83111715610d5d57600080fd5b91908080601f0160208091040260200160405190810160405280939291908181526020018383808284376000920191909152509295505082359350505060200135612aee565b6103e260048036036040811015610db957600080fd5b506001600160a01b0381358116916020013516612b6a565b6103e2612b95565b610284612c4b565b60c95461010090046001600160a01b031681565b60688054604080516020601f6002600019610100600188161502019095169490940493840181900481028201810190925282815260609390929091830182828015610e815780601f10610e5657610100808354040283529160200191610e81565b820191906000526020600020905b815481529060010190602001808311610e6457829003601f168201915b5050505050905090565b6000610e9f610e98612d80565b8484612d84565b5060015b92915050565b600080610ec1848460200260040160ff166020612aee565b90506000610ed485600484016020612aee565b905080610f1d576040805162461bcd60e51b8152602060048201526012602482015271696e707574206973206e6f7420617272617960701b604482015290519081900360640190fd5b610f31856020808402850160040190612aee565b95945050505050565b600054610100900460ff1680610f535750610f53612e70565b80610f61575060005460ff16155b610f9c5760405162461bcd60e51b815260040180806020018281038252602e815260200180613d53602e913960400191505060405180910390fd5b600054610100900460ff16158015610fc7576000805460ff1961ff0019909116610100171660011790555b610fd18484612e76565b610fd9612f2c565b60cb80546001600160a01b0319166001600160a01b038816179055610ffd85612fd5565b60c98054610100600160a81b03191633610100021790554260ca55670de0b6b3a764000060cc5560ce80546001600160a01b0319166001600160a01b0384161790558015611051576000805461ff00191690555b505050505050565b60675490565b60606000806000606060008060008060008060cb60009054906101000a90046001600160a01b03166001600160a01b031663b7a54526306040518263ffffffff1660e01b815260040180826001600160a01b03168152602001915050604080518083038186803b1580156110d257600080fd5b505afa1580156110e6573d6000803e3d6000fd5b505050506040513d60408110156110fc57600080fd5b5080516020909101519092509050611112610df5565b61111a611059565b61112261275b565b61112a61301c565b611132612c4b565b60ca5460c960009054906101000a900460ff1688889a509a509a509a509a509a509a509a509a505050909192939495969798565b60ce546001600160a01b031681565b805b919050565b6000611189848484613061565b6111f984611195612d80565b6111f485604051806060016040528060288152602001613d2b602891396001600160a01b038a166000908152606660205260408120906111d3612d80565b6001600160a01b0316815260208101919091526040016000205491906131be565b612d84565b5060019392505050565b60cd6020526000908152604090205481565b60975460ff1661126c576040805162461bcd60e51b815260206004820152601f60248201527f5265656e7472616e637947756172643a207265656e7472616e742063616c6c00604482015290519081900360640190fd5b6097805460ff1916905560cb54604080516358c3de9360e11b815290516001600160a01b039092169163b187bd2691600480820192602092909190829003018186803b1580156112bb57600080fd5b505afa1580156112cf573d6000803e3d6000fd5b505050506040513d60208110156112e557600080fd5b50511561132c576040805162461bcd60e51b815260206004820152601060248201526f18dbdb9d1c9858dd1cc81c185d5cd95960821b604482015290519081900360640190fd5b8061133633611e71565b1015611380576040805162461bcd60e51b8152602060048201526014602482015273696e73756666696369656e742062616c616e636560601b604482015290519081900360640190fd5b6113893361292d565b156113cd576040805162461bcd60e51b815260206004820152600f60248201526e636f6f6c646f776e2061637469766560881b604482015290519081900360640190fd5b6113d5613255565b60006113df61275b565b905060006114066113ee611059565b61140085670de0b6b3a76400006134d3565b9061352c565b9050611412338461356e565b60ce546040805163e5406dbf60e01b815290516001600160a01b0390921691606091839163e5406dbf91600480820192600092909190829003018186803b15801561145c57600080fd5b505afa158015611470573d6000803e3d6000fd5b505050506040513d6000823e601f3d908101601f19168201604052602081101561149957600080fd5b8101908080516040519392919084600160201b8211156114b857600080fd5b9083019060208201858111156114cd57600080fd5b82518660208202830111600160201b821117156114e957600080fd5b82525081516020918201928201910280838360005b838110156115165781810151838201526020016114fe565b50505050905001604052505050905060008151905060005b8181101561167257600083828151811061154457fe5b602002602001015190506000816001600160a01b03166370a08231306040518263ffffffff1660e01b815260040180826001600160a01b0316815260200191505060206040518083038186803b15801561159d57600080fd5b505afa1580156115b1573d6000803e3d6000fd5b505050506040513d60208110156115c757600080fd5b5051905060006115e3670de0b6b3a7640000611400848b6134d3565b90508015611667576040805163a9059cbb60e01b81523360048201526024810183905290516001600160a01b0385169163a9059cbb9160448083019260209291908290030181600087803b15801561163a57600080fd5b505af115801561164e573d6000803e3d6000fd5b505050506040513d602081101561166457600080fd5b50505b50505060010161152e565b50600061168b670de0b6b3a764000061140087896134d3565b90507f79d44cc8beeed36226f14818b2ecaca7ef252bcd56c9ae35f5a86869dbdefb973033838a6116bb33611e71565b6116c361275b565b6116cb611059565b604080516001600160a01b039889168152969097166020870152858701949094526060850192909252608084015260a083015260c08201524260e08201529051908190036101000190a150506097805460ff191660011790555050505050565b606a5460ff1690565b6000610e9f611741612d80565b846111f48560666000611752612d80565b6001600160a01b03908116825260208083019390935260409182016000908120918c16815292529020549061366a565b61178a61301c565b6001600160a01b0316336001600160a01b0316146117de576040805162461bcd60e51b815260206004820152600c60248201526b37b7363c9036b0b730b3b2b960a11b604482015290519081900360640190fd5b60c95460ff1615158115151415611835576040805162461bcd60e51b8152602060048201526016602482015275199b1859c81b5d5cdd08189948191a5999995c995b9d60521b604482015290519081900360640190fd5b61183e81612fd5565b50565b600080611859858560200260040160ff166020612aee565b9050600061186c86600484016020612aee565b9050806118b5576040805162461bcd60e51b8152602060048201526012602482015271696e707574206973206e6f7420617272617960701b604482015290519081900360640190fd5b60ff84168111611905576040805162461bcd60e51b815260206004820152601660248201527534b73b30b634b21030b93930bc903837b9b4ba34b7b760511b604482015290519081900360640190fd5b61191f866020600160ff8816018102850160040190612aee565b9695505050505050565b60cb54604080516308a0361160e31b815290516000926001600160a01b031691634501b088916004808301926020929190829003018186803b15801561196e57600080fd5b505afa158015611982573d6000803e3d6000fd5b505050506040513d602081101561199857600080fd5b5051905090565b60006119a961301c565b6001600160a01b0316336001600160a01b031614806119cb575060c95460ff16155b806119da57506119da3361297e565b611a22576040805162461bcd60e51b81526020600482015260146024820152731bdb9b1e481b595b58995c9cc8185b1b1bddd95960621b604482015290519081900360640190fd5b60cb60009054906101000a90046001600160a01b03166001600160a01b031663b187bd266040518163ffffffff1660e01b815260040160206040518083038186803b158015611a7057600080fd5b505afa158015611a84573d6000803e3d6000fd5b505050506040513d6020811015611a9a57600080fd5b505115611ae1576040805162461bcd60e51b815260206004820152601060248201526f18dbdb9d1c9858dd1cc81c185d5cd95960821b604482015290519081900360640190fd5b60ce546040805163bdbef07d60e01b81526001600160a01b0386811660048301529151919092169163bdbef07d916024808301926020929190829003018186803b158015611b2e57600080fd5b505afa158015611b42573d6000803e3d6000fd5b505050506040513d6020811015611b5857600080fd5b5051611ba3576040805162461bcd60e51b81526020600482015260156024820152741a5b9d985b1a590819195c1bdcda5d08185cdcd95d605a1b604482015290519081900360640190fd5b33600090815260cd60205260409020429055611bbd613255565b6000611bc761275b565b90506000611bd3611059565b604080516323b872dd60e01b81523360048201523060248201526044810187905290519192506001600160a01b038716916323b872dd916064808201926020929091908290030181600087803b158015611c2c57600080fd5b505af1158015611c40573d6000803e3d6000fd5b505050506040513d6020811015611c5657600080fd5b5051611ca1576040805162461bcd60e51b81526020600482015260156024820152741d1bdad95b881d1c985b9cd9995c8819985a5b1959605a1b604482015290519081900360640190fd5b60ce54604080516314e03fdd60e11b81526001600160a01b03888116600483015260248201889052915160009392909216916329c07fba91604480820192602092909190829003018186803b158015611cf957600080fd5b505afa158015611d0d573d6000803e3d6000fd5b505050506040513d6020811015611d2357600080fd5b5051905060008215611d4457611d3d8461140084866134d3565b9050611d47565b50805b611d5133826136c4565b7f87fdcba84e083ebb8fd661bbafee3eb38764ec6f0cbeea8ed52deffa67bd45dc30338484611d7f33611e71565b611d898a8961366a565b611d938a8961366a565b604080516001600160a01b039889168152969097166020870152858701949094526060850192909252608084015260a083015260c08201524260e08201529051908190036101000190a19695505050505050565b600081830184511015611e41576040805162461bcd60e51b815260206004820152601b60248201527f52656164696e67206279746573206f7574206f6620626f756e64730000000000604482015290519081900360640190fd5b826020018401519050816004038015611e60576008810260020a820491505b509392505050565b60c95460ff1681565b6001600160a01b031660009081526065602052604090205490565b60008060cb60009054906101000a90046001600160a01b03166001600160a01b0316631d68702d6040518163ffffffff1660e01b815260040160206040518083038186803b158015611edd57600080fd5b505afa158015611ef1573d6000803e3d6000fd5b505050506040513d6020811015611f0757600080fd5b50519050336001600160a01b03821614611f68576040805162461bcd60e51b815260206004820152601860248201527f6f6e6c792044414f206164647265737320616c6c6f7765640000000000000000604482015290519081900360640190fd5b60ce80546001600160a01b0319166001600160a01b0385169081179091556040805191825233602083015280517f63fb64c359a4cae97e1bf003c1ab11390b5f0e18cc5b3d67b90bd61c0f5c52fd9281900390910190a150600192915050565b60cc5481565b6000611fd861301c565b6001600160a01b0316336001600160a01b0316148061200f5750611ffa6137b6565b6001600160a01b0316336001600160a01b0316145b612059576040805162461bcd60e51b815260206004820152601660248201527537b7363c9036b0b730b3b2b91037b9103a3930b232b960511b604482015290519081900360640190fd5b60cb60009054906101000a90046001600160a01b03166001600160a01b031663b187bd266040518163ffffffff1660e01b815260040160206040518083038186803b1580156120a757600080fd5b505afa1580156120bb573d6000803e3d6000fd5b505050506040513d60208110156120d157600080fd5b505115612118576040805162461bcd60e51b815260206004820152601060248201526f18dbdb9d1c9858dd1cc81c185d5cd95960821b604482015290519081900360640190fd5b6001600160a01b038316612173576040805162461bcd60e51b815260206004820152601c60248201527f6e6f6e2d7a65726f206164647265737320697320726571756972656400000000604482015290519081900360640190fd5b60cb5460408051631c09fa9b60e21b81526001600160a01b03868116600483015291516000939290921691637027ea6c91602480820192602092909190829003018186803b1580156121c457600080fd5b505afa1580156121d8573d6000803e3d6000fd5b505050506040513d60208110156121ee57600080fd5b505190506001600160a01b038116612243576040805162461bcd60e51b815260206004820152601360248201527234b73b30b634b2103232b9ba34b730ba34b7b760691b604482015290519081900360640190fd5b60cb60009054906101000a90046001600160a01b03166001600160a01b0316638d554cad6040518163ffffffff1660e01b815260040160206040518083038186803b15801561229157600080fd5b505afa1580156122a5573d6000803e3d6000fd5b505050506040513d60208110156122bb57600080fd5b50516001600160a01b03828116911614158061234c575060ce5460408051634df48c7360e11b81526001600160a01b03878116600483015291519190921691639be918e6916024808301926020929190829003018186803b15801561231f57600080fd5b505afa158015612333573d6000803e3d6000fd5b505050506040513d602081101561234957600080fd5b50515b6123875760405162461bcd60e51b815260040180806020018281038252602a815260200180613ce0602a913960400191505060405180910390fd5b60ce546040805163e23ff43760e01b81526001600160a01b0392831660048201818152602483019384528751604484015287519486169463e23ff437949293899391606490910190602085019080838360005b838110156123f25781810151838201526020016123da565b50505050905090810190601f16801561241f5780820380516001836020036101000a031916815260200191505b509350505050602060405180830381600087803b15801561243f57600080fd5b505af1158015612453573d6000803e3d6000fd5b505050506040513d602081101561246957600080fd5b50516124b2576040805162461bcd60e51b815260206004820152601360248201527234b73b30b634b2103a3930b739b0b1ba34b7b760691b604482015290519081900360640190fd5b6000846001600160a01b0316846040518082805190602001908083835b602083106124ee5780518252601f1990920191602091820191016124cf565b6001836020036101000a0380198251168184511680821785525050505050509050019150506000604051808303816000865af19150503d8060008114612550576040519150601f19603f3d011682016040523d82523d6000602084013e612555565b606091505b50909150506001811515146125b1576040805162461bcd60e51b815260206004820152601a60248201527f6661696c656420746f2065786563757465207468652063616c6c000000000000604482015290519081900360640190fd5b7f4e86ad0da28cbaaaa7e93e36c43b32696e970535225b316f1b84fbf30bdc04e86125da61301c565b604080516001600160a01b0390921682524260208301528051918290030190a1506001949350505050565b60008061261061275b565b9050600061261c611059565b905061262882826137fb565b9250505090565b6000612646838360200260040160ff166020612aee565b9392505050565b60698054604080516020601f6002600019610100600188161502019095169490940493840181900481028201810190925282815260609390929091830182828015610e815780601f10610e5657610100808354040283529160200191610e81565b6000806126c6848460200260040160ff166020612aee565b90506126d784600483016020612aee565b949350505050565b6000610e9f6126ec612d80565b846111f485604051806060016040528060258152602001613deb6025913960666000612716612d80565b6001600160a01b03908116825260208083019390935260409182016000908120918d168152925290205491906131be565b6000610e9f612754612d80565b8484613061565b60ce546040805163e5406dbf60e01b8152905160009283926001600160a01b0390911691606091839163e5406dbf916004808201928892909190829003018186803b1580156127a957600080fd5b505afa1580156127bd573d6000803e3d6000fd5b505050506040513d6000823e601f3d908101601f1916820160405260208110156127e657600080fd5b8101908080516040519392919084600160201b82111561280557600080fd5b90830190602082018581111561281a57600080fd5b82518660208202830111600160201b8211171561283657600080fd5b82525081516020918201928201910280838360005b8381101561286357818101518382015260200161284b565b50505050905001604052505050905060008151905060005b8181101561292357612919846001600160a01b031663d8af8ed48584815181106128a157fe5b60200260200101516040518263ffffffff1660e01b815260040180826001600160a01b0316815260200191505060206040518083038186803b1580156128e657600080fd5b505afa1580156128fa573d6000803e3d6000fd5b505050506040513d602081101561291057600080fd5b5051869061366a565b945060010161287b565b5092935050505090565b600080612938611929565b6001600160a01b038416600090815260cd60205260408120549192509061295f908361366a565b90504281101561297457600092505050611177565b6126d7814261382b565b60ce546040805163bbbf725b60e01b81526001600160a01b0384811660048301529151600093929092169163bbbf725b91602480820192602092909190829003018186803b1580156129cf57600080fd5b505afa1580156129e3573d6000803e3d6000fd5b505050506040513d60208110156129f957600080fd5b505192915050565b6000610ea38260006004611de7565b60cb546001600160a01b031681565b60cb60009054906101000a90046001600160a01b03166001600160a01b031663b187bd266040518163ffffffff1660e01b815260040160206040518083038186803b158015612a6d57600080fd5b505afa158015612a81573d6000803e3d6000fd5b505050506040513d6020811015612a9757600080fd5b505115612ade576040805162461bcd60e51b815260206004820152601060248201526f18dbdb9d1c9858dd1cc81c185d5cd95960821b604482015290519081900360640190fd5b612ae6613255565b565b60ca5481565b600081830184511015612b48576040805162461bcd60e51b815260206004820152601b60248201527f52656164696e67206279746573206f7574206f6620626f756e64730000000000604482015290519081900360640190fd5b826020018401519050816020038015611e605760080260020a90049392505050565b6001600160a01b03918216600090815260666020908152604080832093909416825291909152205490565b600080612ba061275b565b90506000612bac611059565b60cb5460408051635bd2a29360e11b8152306004820152815193945060009384936001600160a01b03169263b7a545269260248082019391829003018186803b158015612bf857600080fd5b505afa158015612c0c573d6000803e3d6000fd5b505050506040513d6040811015612c2257600080fd5b50805160209091015160cc549193509150612c429085908590858561386d565b94505050505090565b60ce5460408051637f6a20b560e11b815290516060926001600160a01b03169163fed4416a916004808301926000929190829003018186803b158015612c9057600080fd5b505afa158015612ca4573d6000803e3d6000fd5b505050506040513d6000823e601f3d908101601f191682016040526020811015612ccd57600080fd5b8101908080516040519392919084600160201b821115612cec57600080fd5b908301906020820185811115612d0157600080fd5b8251600160201b811182820188101715612d1a57600080fd5b82525081516020918201929091019080838360005b83811015612d47578181015183820152602001612d2f565b50505050905090810190601f168015612d745780820380516001836020036101000a031916815260200191505b50604052505050905090565b3390565b6001600160a01b038316612dc95760405162461bcd60e51b8152600401808060200182810382526024815260200180613dc76024913960400191505060405180910390fd5b6001600160a01b038216612e0e5760405162461bcd60e51b8152600401808060200182810382526022815260200180613c986022913960400191505060405180910390fd5b6001600160a01b03808416600081815260666020908152604080832094871680845294825291829020859055815185815291517f8c5be1e5ebec7d5bd14f71427d1e84f3dd0314c0f7b2291e5b200ac8c7c3b9259281900390910190a3505050565b303b1590565b600054610100900460ff1680612e8f5750612e8f612e70565b80612e9d575060005460ff16155b612ed85760405162461bcd60e51b815260040180806020018281038252602e815260200180613d53602e913960400191505060405180910390fd5b600054610100900460ff16158015612f03576000805460ff1961ff0019909116610100171660011790555b612f0b6138dc565b612f15838361397c565b8015612f27576000805461ff00191690555b505050565b600054610100900460ff1680612f455750612f45612e70565b80612f53575060005460ff16155b612f8e5760405162461bcd60e51b815260040180806020018281038252602e815260200180613d53602e913960400191505060405180910390fd5b600054610100900460ff16158015612fb9576000805460ff1961ff0019909116610100171660011790555b612fc1613a54565b801561183e576000805461ff001916905550565b60c9805482151560ff19909116811790915560408051918252517f8d75e9ede4188432084b863d70b3416010c97547dfeb4fc17734d2e997ee0f399181900360200190a150565b60ce546040805163481c6a7560e01b815290516000926001600160a01b03169163481c6a75916004808301926020929190829003018186803b15801561196e57600080fd5b6001600160a01b0383166130a65760405162461bcd60e51b8152600401808060200182810382526025815260200180613da26025913960400191505060405180910390fd5b6001600160a01b0382166130eb5760405162461bcd60e51b8152600401808060200182810382526023815260200180613c536023913960400191505060405180910390fd5b6130f6838383613b02565b61313381604051806060016040528060268152602001613cba602691396001600160a01b03861660009081526065602052604090205491906131be565b6001600160a01b038085166000908152606560205260408082209390935590841681522054613162908261366a565b6001600160a01b0380841660008181526065602090815260409182902094909455805185815290519193928716927fddf252ad1be2c89b69c2b068fc378daa952ba7f163c4a11628f55a4df523b3ef92918290030190a3505050565b6000818484111561324d5760405162461bcd60e51b81526004018080602001828103825283818151815260200191508051906020019080838360005b838110156132125781810151838201526020016131fa565b50505050905090810190601f16801561323f5780820380516001836020036101000a031916815260200191505b509250505060405180910390fd5b505050900390565b600061325f61275b565b9050600061326b611059565b60cb5460408051635bd2a29360e11b8152306004820152815193945060009384936001600160a01b03169263b7a545269260248082019391829003018186803b1580156132b757600080fd5b505afa1580156132cb573d6000803e3d6000fd5b505050506040513d60408110156132e157600080fd5b50805160209091015160cc5491935091506000906133049086908690868661386d565b90506064811015613319575050505050612ae6565b60cb5460408051631d68702d60e01b815290516000926001600160a01b031691631d68702d916004808301926020929190829003018186803b15801561335e57600080fd5b505afa158015613372573d6000803e3d6000fd5b505050506040513d602081101561338857600080fd5b505160cb546040805163272b69b960e21b8152815193945060009384936001600160a01b031692639cada6e49260048082019391829003018186803b1580156133d057600080fd5b505afa1580156133e4573d6000803e3d6000fd5b505050506040513d60408110156133fa57600080fd5b508051602090910151909250905060006134188261140087866134d3565b90506000613426868361382b565b905081156134385761343885836136c4565b801561344f5761344f61344961301c565b826136c4565b6134598a8a6137fb565b60cc557f755a8059d66d8d243bc9f6913f429a811f154599d0538bb0b6a2ac23f23d2ccd3061348661301c565b60cc54604080516001600160a01b0394851681529290931660208301528183018a9052606082018690526080820185905260a082015290519081900360c00190a150505050505050505050565b6000826134e257506000610ea3565b828202828482816134ef57fe5b04146126465760405162461bcd60e51b8152600401808060200182810382526021815260200180613d0a6021913960400191505060405180910390fd5b600061264683836040518060400160405280601a81526020017f536166654d6174683a206469766973696f6e206279207a65726f000000000000815250613b5a565b6001600160a01b0382166135b35760405162461bcd60e51b8152600401808060200182810382526021815260200180613d816021913960400191505060405180910390fd5b6135bf82600083613b02565b6135fc81604051806060016040528060228152602001613c76602291396001600160a01b03851660009081526065602052604090205491906131be565b6001600160a01b038316600090815260656020526040902055606754613622908261382b565b6067556040805182815290516000916001600160a01b038516917fddf252ad1be2c89b69c2b068fc378daa952ba7f163c4a11628f55a4df523b3ef9181900360200190a35050565b600082820183811015612646576040805162461bcd60e51b815260206004820152601b60248201527f536166654d6174683a206164646974696f6e206f766572666c6f770000000000604482015290519081900360640190fd5b6001600160a01b03821661371f576040805162461bcd60e51b815260206004820152601f60248201527f45524332303a206d696e7420746f20746865207a65726f206164647265737300604482015290519081900360640190fd5b61372b60008383613b02565b606754613738908261366a565b6067556001600160a01b03821660009081526065602052604090205461375e908261366a565b6001600160a01b03831660008181526065602090815260408083209490945583518581529351929391927fddf252ad1be2c89b69c2b068fc378daa952ba7f163c4a11628f55a4df523b3ef9281900390910190a35050565b60ce5460408051631758078b60e01b815290516000926001600160a01b031691631758078b916004808301926020929190829003018186803b15801561196e57600080fd5b6000811580613808575082155b1561381557506000610ea3565b6126468261140085670de0b6b3a76400006134d3565b600061264683836040518060400160405280601e81526020017f536166654d6174683a207375627472616374696f6e206f766572666c6f7700008152506131be565b600084158061387a575085155b1561388757506000610f31565b600061389f8661140089670de0b6b3a76400006134d3565b90508481116138b2576000915050610f31565b60006138d0826114008681896138ca8d81878f61382b565b906134d3565b98975050505050505050565b600054610100900460ff16806138f557506138f5612e70565b80613903575060005460ff16155b61393e5760405162461bcd60e51b815260040180806020018281038252602e815260200180613d53602e913960400191505060405180910390fd5b600054610100900460ff16158015612fc1576000805460ff1961ff001990911661010017166001179055801561183e576000805461ff001916905550565b600054610100900460ff16806139955750613995612e70565b806139a3575060005460ff16155b6139de5760405162461bcd60e51b815260040180806020018281038252602e815260200180613d53602e913960400191505060405180910390fd5b600054610100900460ff16158015613a09576000805460ff1961ff0019909116610100171660011790555b8251613a1c906068906020860190613bbf565b508151613a30906069906020850190613bbf565b50606a805460ff191660121790558015612f27576000805461ff0019169055505050565b600054610100900460ff1680613a6d5750613a6d612e70565b80613a7b575060005460ff16155b613ab65760405162461bcd60e51b815260040180806020018281038252602e815260200180613d53602e913960400191505060405180910390fd5b600054610100900460ff16158015613ae1576000805460ff1961ff0019909116610100171660011790555b6097805460ff19166001179055801561183e576000805461ff001916905550565b613b0d838383612f27565b613b168361292d565b15612f27576040805162461bcd60e51b815260206004820152600f60248201526e636f6f6c646f776e2061637469766560881b604482015290519081900360640190fd5b60008183613ba95760405162461bcd60e51b81526020600482018181528351602484015283519092839260449091019190850190808383600083156132125781810151838201526020016131fa565b506000838581613bb557fe5b0495945050505050565b828054600181600116156101000203166002900490600052602060002090601f016020900481019282601f10613c0057805160ff1916838001178555613c2d565b82800160010185558215613c2d579182015b82811115613c2d578251825591602001919060010190613c12565b50613c39929150613c3d565b5090565b5b80821115613c395760008155600101613c3e56fe45524332303a207472616e7366657220746f20746865207a65726f206164647265737345524332303a206275726e20616d6f756e7420657863656564732062616c616e636545524332303a20617070726f766520746f20746865207a65726f206164647265737345524332303a207472616e7366657220616d6f756e7420657863656564732062616c616e6365696e76616c69642064657374696e6174696f6e206f72206173736574206e6f7420737570706f72746564536166654d6174683a206d756c7469706c69636174696f6e206f766572666c6f7745524332303a207472616e7366657220616d6f756e74206578636565647320616c6c6f77616e6365436f6e747261637420696e7374616e63652068617320616c7265616479206265656e20696e697469616c697a656445524332303a206275726e2066726f6d20746865207a65726f206164647265737345524332303a207472616e736665722066726f6d20746865207a65726f206164647265737345524332303a20617070726f76652066726f6d20746865207a65726f206164647265737345524332303a2064656372656173656420616c6c6f77616e63652062656c6f77207a65726fa26469706673582212209320b64326948f40c834d5033a77fbcec1754d11e8013fbe3afc8e3778f5165164736f6c634300060c0033",
  "linkReferences": {},
  "deployedLinkReferences": {}
}