{
  "_format": "hh-sol-artifact-1",
  "contractName": "PoolLogic",
  "sourceName": "contracts/PoolLogic.sol",
  "abi": [
    {
      "anonymous": false,
      "inputs": [
        {
          "indexed": true,
          "internalType": "address",
          "name": "owner",
          "type": "address"
        },
        {
          "indexed": true,
          "internalType": "address",
          "name": "spender",
          "type": "address"
        },
        {
          "indexed": false,
          "internalType": "uint256",
          "name": "value",
          "type": "uint256"
        }
      ],
      "name": "Approval",
      "type": "event"
    },
    {
      "anonymous": false,
      "inputs": [
        {
          "indexed": false,
          "internalType": "address",
          "name": "fundAddress",
          "type": "address"
        },
        {
          "indexed": false,
          "internalType": "address",
          "name": "investor",
          "type": "address"
        },
        {
          "indexed": false,
          "internalType": "uint256",
          "name": "valueDeposited",
          "type": "uint256"
        },
        {
          "indexed": false,
          "internalType": "uint256",
          "name": "fundTokensReceived",
          "type": "uint256"
        },
        {
          "indexed": false,
          "internalType": "uint256",
          "name": "totalInvestorFundTokens",
          "type": "uint256"
        },
        {
          "indexed": false,
          "internalType": "uint256",
          "name": "fundValue",
          "type": "uint256"
        },
        {
          "indexed": false,
          "internalType": "uint256",
          "name": "totalSupply",
          "type": "uint256"
        },
        {
          "indexed": false,
          "internalType": "uint256",
          "name": "time",
          "type": "uint256"
        }
      ],
      "name": "Deposit",
      "type": "event"
    },
    {
      "anonymous": false,
      "inputs": [
        {
          "indexed": false,
          "internalType": "address",
          "name": "pool",
          "type": "address"
        },
        {
          "indexed": false,
          "internalType": "address",
          "name": "manager",
          "type": "address"
        },
        {
          "indexed": false,
          "internalType": "uint256",
          "name": "available",
          "type": "uint256"
        },
        {
          "indexed": false,
          "internalType": "uint256",
          "name": "daoFee",
          "type": "uint256"
        },
        {
          "indexed": false,
          "internalType": "uint256",
          "name": "managerFee",
          "type": "uint256"
        },
        {
          "indexed": false,
          "internalType": "uint256",
          "name": "tokenPriceAtLastFeeMint",
          "type": "uint256"
        }
      ],
      "name": "ManagerFeeMinted",
      "type": "event"
    },
    {
      "anonymous": false,
      "inputs": [
        {
          "indexed": false,
          "internalType": "address",
          "name": "newManager",
          "type": "address"
        },
        {
          "indexed": false,
          "internalType": "string",
          "name": "newManagerName",
          "type": "string"
        }
      ],
      "name": "ManagerUpdated",
      "type": "event"
    },
    {
      "anonymous": false,
      "inputs": [
        {
          "indexed": false,
          "internalType": "address",
          "name": "poolManagerLogic",
          "type": "address"
        },
        {
          "indexed": false,
          "internalType": "address",
          "name": "from",
          "type": "address"
        }
      ],
      "name": "PoolManagerLogicSet",
      "type": "event"
    },
    {
      "anonymous": false,
      "inputs": [
        {
          "indexed": false,
          "internalType": "bool",
          "name": "isPoolPrivate",
          "type": "bool"
        }
      ],
      "name": "PoolPrivacyUpdated",
      "type": "event"
    },
    {
      "anonymous": false,
      "inputs": [
        {
          "indexed": true,
          "internalType": "address",
          "name": "from",
          "type": "address"
        },
        {
          "indexed": true,
          "internalType": "address",
          "name": "to",
          "type": "address"
        },
        {
          "indexed": false,
          "internalType": "uint256",
          "name": "value",
          "type": "uint256"
        }
      ],
      "name": "Transfer",
      "type": "event"
    },
    {
      "anonymous": false,
      "inputs": [
        {
          "indexed": false,
          "internalType": "address",
          "name": "fundAddress",
          "type": "address"
        },
        {
          "indexed": false,
          "internalType": "address",
          "name": "investor",
          "type": "address"
        },
        {
          "indexed": false,
          "internalType": "uint256",
          "name": "valueWithdrawn",
          "type": "uint256"
        },
        {
          "indexed": false,
          "internalType": "uint256",
          "name": "fundTokensWithdrawn",
          "type": "uint256"
        },
        {
          "indexed": false,
          "internalType": "uint256",
          "name": "totalInvestorFundTokens",
          "type": "uint256"
        },
        {
          "indexed": false,
          "internalType": "uint256",
          "name": "fundValue",
          "type": "uint256"
        },
        {
          "indexed": false,
          "internalType": "uint256",
          "name": "totalSupply",
          "type": "uint256"
        },
        {
          "indexed": false,
          "internalType": "uint256",
          "name": "time",
          "type": "uint256"
        }
      ],
      "name": "Withdrawal",
      "type": "event"
    },
    {
      "inputs": [
        {
          "internalType": "address",
          "name": "member",
          "type": "address"
        }
      ],
      "name": "addMember",
      "outputs": [],
      "stateMutability": "nonpayable",
      "type": "function"
    },
    {
      "inputs": [
        {
          "internalType": "address[]",
          "name": "members",
          "type": "address[]"
        }
      ],
      "name": "addMembers",
      "outputs": [],
      "stateMutability": "nonpayable",
      "type": "function"
    },
    {
      "inputs": [
        {
          "internalType": "address",
          "name": "owner",
          "type": "address"
        },
        {
          "internalType": "address",
          "name": "spender",
          "type": "address"
        }
      ],
      "name": "allowance",
      "outputs": [
        {
          "internalType": "uint256",
          "name": "",
          "type": "uint256"
        }
      ],
      "stateMutability": "view",
      "type": "function"
    },
    {
      "inputs": [
        {
          "internalType": "address",
          "name": "spender",
          "type": "address"
        },
        {
          "internalType": "uint256",
          "name": "amount",
          "type": "uint256"
        }
      ],
      "name": "approve",
      "outputs": [
        {
          "internalType": "bool",
          "name": "",
          "type": "bool"
        }
      ],
      "stateMutability": "nonpayable",
      "type": "function"
    },
    {
      "inputs": [],
      "name": "availableManagerFee",
      "outputs": [
        {
          "internalType": "uint256",
          "name": "",
          "type": "uint256"
        }
      ],
      "stateMutability": "view",
      "type": "function"
    },
    {
      "inputs": [
        {
          "internalType": "address",
          "name": "account",
          "type": "address"
        }
      ],
      "name": "balanceOf",
      "outputs": [
        {
          "internalType": "uint256",
          "name": "",
          "type": "uint256"
        }
      ],
      "stateMutability": "view",
      "type": "function"
    },
    {
      "inputs": [
        {
          "internalType": "address",
          "name": "newManager",
          "type": "address"
        },
        {
          "internalType": "string",
          "name": "newManagerName",
          "type": "string"
        }
      ],
      "name": "changeManager",
      "outputs": [],
      "stateMutability": "nonpayable",
      "type": "function"
    },
    {
      "inputs": [],
      "name": "creationTime",
      "outputs": [
        {
          "internalType": "uint256",
          "name": "",
          "type": "uint256"
        }
      ],
      "stateMutability": "view",
      "type": "function"
    },
    {
      "inputs": [],
      "name": "creator",
      "outputs": [
        {
          "internalType": "address",
          "name": "",
          "type": "address"
        }
      ],
      "stateMutability": "view",
      "type": "function"
    },
    {
      "inputs": [],
      "name": "decimals",
      "outputs": [
        {
          "internalType": "uint8",
          "name": "",
          "type": "uint8"
        }
      ],
      "stateMutability": "view",
      "type": "function"
    },
    {
      "inputs": [
        {
          "internalType": "address",
          "name": "spender",
          "type": "address"
        },
        {
          "internalType": "uint256",
          "name": "subtractedValue",
          "type": "uint256"
        }
      ],
      "name": "decreaseAllowance",
      "outputs": [
        {
          "internalType": "bool",
          "name": "",
          "type": "bool"
        }
      ],
      "stateMutability": "nonpayable",
      "type": "function"
    },
    {
      "inputs": [
        {
          "internalType": "address",
          "name": "_asset",
          "type": "address"
        },
        {
          "internalType": "uint256",
          "name": "_amount",
          "type": "uint256"
        }
      ],
      "name": "deposit",
      "outputs": [
        {
          "internalType": "uint256",
          "name": "",
          "type": "uint256"
        }
      ],
      "stateMutability": "nonpayable",
      "type": "function"
    },
    {
      "inputs": [],
      "name": "factory",
      "outputs": [
        {
          "internalType": "address",
          "name": "",
          "type": "address"
        }
      ],
      "stateMutability": "view",
      "type": "function"
    },
    {
      "inputs": [],
      "name": "getExitCooldown",
      "outputs": [
        {
          "internalType": "uint256",
          "name": "",
          "type": "uint256"
        }
      ],
      "stateMutability": "view",
      "type": "function"
    },
    {
      "inputs": [
        {
          "internalType": "address",
          "name": "sender",
          "type": "address"
        }
      ],
      "name": "getExitRemainingCooldown",
      "outputs": [
        {
          "internalType": "uint256",
          "name": "",
          "type": "uint256"
        }
      ],
      "stateMutability": "view",
      "type": "function"
    },
    {
      "inputs": [],
      "name": "getFundSummary",
      "outputs": [
        {
          "internalType": "string",
          "name": "",
          "type": "string"
        },
        {
          "internalType": "uint256",
          "name": "",
          "type": "uint256"
        },
        {
          "internalType": "uint256",
          "name": "",
          "type": "uint256"
        },
        {
          "internalType": "address",
          "name": "",
          "type": "address"
        },
        {
          "internalType": "string",
          "name": "",
          "type": "string"
        },
        {
          "internalType": "uint256",
          "name": "",
          "type": "uint256"
        },
        {
          "internalType": "bool",
          "name": "",
          "type": "bool"
        },
        {
          "internalType": "uint256",
          "name": "",
          "type": "uint256"
        },
        {
          "internalType": "uint256",
          "name": "",
          "type": "uint256"
        }
      ],
      "stateMutability": "view",
      "type": "function"
    },
    {
      "inputs": [],
      "name": "getMembers",
      "outputs": [
        {
          "internalType": "address[]",
          "name": "",
          "type": "address[]"
        }
      ],
      "stateMutability": "view",
      "type": "function"
    },
    {
      "inputs": [
        {
          "internalType": "address",
          "name": "spender",
          "type": "address"
        },
        {
          "internalType": "uint256",
          "name": "addedValue",
          "type": "uint256"
        }
      ],
      "name": "increaseAllowance",
      "outputs": [
        {
          "internalType": "bool",
          "name": "",
          "type": "bool"
        }
      ],
      "stateMutability": "nonpayable",
      "type": "function"
    },
    {
      "inputs": [
        {
          "internalType": "address",
          "name": "_factory",
          "type": "address"
        },
        {
          "internalType": "bool",
          "name": "_privatePool",
          "type": "bool"
        },
        {
          "internalType": "address",
          "name": "_manager",
          "type": "address"
        },
        {
          "internalType": "string",
          "name": "_managerName",
          "type": "string"
        },
        {
          "internalType": "string",
          "name": "_fundName",
          "type": "string"
        },
        {
          "internalType": "string",
          "name": "_fundSymbol",
          "type": "string"
        },
        {
          "internalType": "address",
          "name": "_poolManagerLogic",
          "type": "address"
        }
      ],
      "name": "initialize",
      "outputs": [],
      "stateMutability": "nonpayable",
      "type": "function"
    },
    {
      "inputs": [
        {
          "internalType": "address",
          "name": "member",
          "type": "address"
        }
      ],
      "name": "isMemberAllowed",
      "outputs": [
        {
          "internalType": "bool",
          "name": "",
          "type": "bool"
        }
      ],
      "stateMutability": "view",
      "type": "function"
    },
    {
      "inputs": [
        {
          "internalType": "address",
          "name": "",
          "type": "address"
        }
      ],
      "name": "lastDeposit",
      "outputs": [
        {
          "internalType": "uint256",
          "name": "",
          "type": "uint256"
        }
      ],
      "stateMutability": "view",
      "type": "function"
    },
    {
      "inputs": [],
      "name": "manager",
      "outputs": [
        {
          "internalType": "address",
          "name": "",
          "type": "address"
        }
      ],
      "stateMutability": "view",
      "type": "function"
    },
    {
      "inputs": [],
      "name": "managerName",
      "outputs": [
        {
          "internalType": "string",
          "name": "",
          "type": "string"
        }
      ],
      "stateMutability": "view",
      "type": "function"
    },
    {
      "inputs": [],
      "name": "mintManagerFee",
      "outputs": [],
      "stateMutability": "nonpayable",
      "type": "function"
    },
    {
      "inputs": [],
      "name": "name",
      "outputs": [
        {
          "internalType": "string",
          "name": "",
          "type": "string"
        }
      ],
      "stateMutability": "view",
      "type": "function"
    },
    {
      "inputs": [],
      "name": "numberOfMembers",
      "outputs": [
        {
          "internalType": "uint256",
          "name": "",
          "type": "uint256"
        }
      ],
      "stateMutability": "view",
      "type": "function"
    },
    {
      "inputs": [],
      "name": "poolManagerLogic",
      "outputs": [
        {
          "internalType": "address",
          "name": "",
          "type": "address"
        }
      ],
      "stateMutability": "view",
      "type": "function"
    },
    {
      "inputs": [],
      "name": "privatePool",
      "outputs": [
        {
          "internalType": "bool",
          "name": "",
          "type": "bool"
        }
      ],
      "stateMutability": "view",
      "type": "function"
    },
    {
      "inputs": [
        {
          "internalType": "address",
          "name": "member",
          "type": "address"
        }
      ],
      "name": "removeMember",
      "outputs": [],
      "stateMutability": "nonpayable",
      "type": "function"
    },
    {
      "inputs": [
        {
          "internalType": "address[]",
          "name": "members",
          "type": "address[]"
        }
      ],
      "name": "removeMembers",
      "outputs": [],
      "stateMutability": "nonpayable",
      "type": "function"
    },
    {
      "inputs": [],
      "name": "removeTrader",
      "outputs": [],
      "stateMutability": "nonpayable",
      "type": "function"
    },
    {
      "inputs": [
        {
          "internalType": "address",
          "name": "_poolManagerLogic",
          "type": "address"
        }
      ],
      "name": "setPoolManagerLogic",
      "outputs": [
        {
          "internalType": "bool",
          "name": "",
          "type": "bool"
        }
      ],
      "stateMutability": "nonpayable",
      "type": "function"
    },
    {
      "inputs": [
        {
          "internalType": "bool",
          "name": "_privatePool",
          "type": "bool"
        }
      ],
      "name": "setPoolPrivate",
      "outputs": [],
      "stateMutability": "nonpayable",
      "type": "function"
    },
    {
      "inputs": [
        {
          "internalType": "address",
          "name": "newTrader",
          "type": "address"
        }
      ],
      "name": "setTrader",
      "outputs": [],
      "stateMutability": "nonpayable",
      "type": "function"
    },
    {
      "inputs": [],
      "name": "symbol",
      "outputs": [
        {
          "internalType": "string",
          "name": "",
          "type": "string"
        }
      ],
      "stateMutability": "view",
      "type": "function"
    },
    {
      "inputs": [],
      "name": "tokenPrice",
      "outputs": [
        {
          "internalType": "uint256",
          "name": "",
          "type": "uint256"
        }
      ],
      "stateMutability": "view",
      "type": "function"
    },
    {
      "inputs": [],
      "name": "tokenPriceAtLastFeeMint",
      "outputs": [
        {
          "internalType": "uint256",
          "name": "",
          "type": "uint256"
        }
      ],
      "stateMutability": "view",
      "type": "function"
    },
    {
      "inputs": [],
      "name": "totalFundValue",
      "outputs": [
        {
          "internalType": "uint256",
          "name": "",
          "type": "uint256"
        }
      ],
      "stateMutability": "view",
      "type": "function"
    },
    {
      "inputs": [],
      "name": "totalSupply",
      "outputs": [
        {
          "internalType": "uint256",
          "name": "",
          "type": "uint256"
        }
      ],
      "stateMutability": "view",
      "type": "function"
    },
    {
      "inputs": [],
      "name": "trader",
      "outputs": [
        {
          "internalType": "address",
          "name": "",
          "type": "address"
        }
      ],
      "stateMutability": "view",
      "type": "function"
    },
    {
      "inputs": [
        {
          "internalType": "address",
          "name": "recipient",
          "type": "address"
        },
        {
          "internalType": "uint256",
          "name": "amount",
          "type": "uint256"
        }
      ],
      "name": "transfer",
      "outputs": [
        {
          "internalType": "bool",
          "name": "",
          "type": "bool"
        }
      ],
      "stateMutability": "nonpayable",
      "type": "function"
    },
    {
      "inputs": [
        {
          "internalType": "address",
          "name": "sender",
          "type": "address"
        },
        {
          "internalType": "address",
          "name": "recipient",
          "type": "address"
        },
        {
          "internalType": "uint256",
          "name": "amount",
          "type": "uint256"
        }
      ],
      "name": "transferFrom",
      "outputs": [
        {
          "internalType": "bool",
          "name": "",
          "type": "bool"
        }
      ],
      "stateMutability": "nonpayable",
      "type": "function"
    },
    {
      "inputs": [
        {
          "internalType": "uint256",
          "name": "_fundTokenAmount",
          "type": "uint256"
        }
      ],
      "name": "withdraw",
      "outputs": [],
      "stateMutability": "nonpayable",
      "type": "function"
    }
  ],
  "bytecode": "0x608060405234801561001057600080fd5b506132b0806100206000396000f3fe608060405234801561001057600080fd5b50600436106102695760003560e01c806370a0823111610151578063ad60ffcc116100c3578063cc3c6df611610087578063cc3c6df6146109ab578063cdfa79d2146109b3578063d8270dce14610b8d578063dd62ed3e14610b95578063edbf6f5014610bc3578063fed4416a14610bcb57610269565b8063ad60ffcc14610929578063b8ea2b6e14610931578063bbbf725b14610957578063c45a01551461097d578063ca6d56dc1461098557610269565b806395d89b411161011557806395d89b41146108435780639eab52531461084b578063a30e3fa9146108a3578063a457c2d7146108ab578063a6bc18f9146108d7578063a9059cbb146108fd57610269565b806370a08231146107df578063750226de146108055780637714f39d1461082b5780637c8afd51146108335780637ff9b5961461083b57610269565b80632e1a7d4d116101ea57806346ee84b0116101ae57806346ee84b0146105ad57806347e7ef241461064e578063481c6a751461067a578063522136631461068257806359b5e75e146107365780636f4d469b1461073e57610269565b80632e1a7d4d1461051f578063313ce5671461053c578063395093511461055a5780633babaad5146105865780634501b088146105a557610269565b806318160ddd1161023157806318160ddd1461037f5780631c5918d2146103995780631e50a4a6146104bb57806323b872dd146104c357806329d16ee8146104f957610269565b806302d05d3f1461026e57806306fdde0314610292578063095ea7b31461030f5780630b1ca49a1461034f5780631758078b14610377575b600080fd5b610276610bd3565b604080516001600160a01b039092168252519081900360200190f35b61029a610be2565b6040805160208082528351818301528351919283929083019185019080838360005b838110156102d45781810151838201526020016102bc565b50505050905090810190601f1680156103015780820380516001836020036101000a031916815260200191505b509250505060405180910390f35b61033b6004803603604081101561032557600080fd5b506001600160a01b038135169060200135610c78565b604080519115158252519081900360200190f35b6103756004803603602081101561036557600080fd5b50356001600160a01b0316610c96565b005b610276610d02565b610387610d11565b60408051918252519081900360200190f35b6103a1610d17565b60405180806020018a8152602001898152602001886001600160a01b0316815260200180602001878152602001861515815260200185815260200184815260200183810383528c818151815260200191508051906020019080838360005b838110156104175781810151838201526020016103ff565b50505050905090810190601f1680156104445780820380516001836020036101000a031916815260200191505b5083810382528851815288516020918201918a019080838360005b8381101561047757818101518382015260200161045f565b50505050905090810190601f1680156104a45780820380516001836020036101000a031916815260200191505b509b50505050505050505050505060405180910390f35b610276610e1e565b61033b600480360360608110156104d957600080fd5b506001600160a01b03813581169160208101359091169060400135610e2d565b6103876004803603602081101561050f57600080fd5b50356001600160a01b0316610eb4565b6103756004803603602081101561053557600080fd5b5035610ec6565b6105446112b8565b6040805160ff9092168252519081900360200190f35b61033b6004803603604081101561057057600080fd5b506001600160a01b0381351690602001356112c1565b6103756004803603602081101561059c57600080fd5b5035151561130f565b6103876113c5565b610375600480360360208110156105c357600080fd5b810190602081018135600160201b8111156105dd57600080fd5b8201836020820111156105ef57600080fd5b803590602001918460208302840111600160201b8311171561061057600080fd5b91908080602002602001604051908101604052809392919081815260200183836020028082843760009201919091525092955061143b945050505050565b6103876004803603604081101561066457600080fd5b506001600160a01b0381351690602001356114e2565b6102766117b0565b6103756004803603604081101561069857600080fd5b6001600160a01b038235169190810190604081016020820135600160201b8111156106c257600080fd5b8201836020820111156106d457600080fd5b803590602001918460018302840111600160201b831117156106f557600080fd5b91908080601f0160208091040260200160405190810160405280939291908181526020018383808284376000920191909152509295506117bf945050505050565b61033b6118ea565b6103756004803603602081101561075457600080fd5b810190602081018135600160201b81111561076e57600080fd5b82018360208201111561078057600080fd5b803590602001918460208302840111600160201b831117156107a157600080fd5b9190808060200260200160405190810160405280939291908181526020018383602002808284376000920191909152509295506118fa945050505050565b610387600480360360208110156107f557600080fd5b50356001600160a01b0316611991565b61033b6004803603602081101561081b57600080fd5b50356001600160a01b03166119b0565b610387611aec565b610375611af2565b610387611b52565b61029a611b7c565b610853611bdd565b60408051602080825283518183015283519192839290830191858101910280838360005b8381101561088f578181015183820152602001610877565b505050509050019250505060405180910390f35b610387611c3e565b61033b600480360360408110156108c157600080fd5b506001600160a01b038135169060200135611c44565b610375600480360360208110156108ed57600080fd5b50356001600160a01b0316611cac565b61033b6004803603604081101561091357600080fd5b506001600160a01b038135169060200135611d1c565b610387611d30565b6103876004803603602081101561094757600080fd5b50356001600160a01b0316611f02565b61033b6004803603602081101561096d57600080fd5b50356001600160a01b0316611f5b565b610276611f78565b6103756004803603602081101561099b57600080fd5b50356001600160a01b0316611f87565b610375611ff1565b610375600480360360e08110156109c957600080fd5b6001600160a01b0382358116926020810135151592604082013590921691810190608081016060820135600160201b811115610a0457600080fd5b820183602082011115610a1657600080fd5b803590602001918460018302840111600160201b83111715610a3757600080fd5b91908080601f0160208091040260200160405190810160405280939291908181526020018383808284376000920191909152509295949360208101935035915050600160201b811115610a8957600080fd5b820183602082011115610a9b57600080fd5b803590602001918460018302840111600160201b83111715610abc57600080fd5b91908080601f0160208091040260200160405190810160405280939291908181526020018383808284376000920191909152509295949360208101935035915050600160201b811115610b0e57600080fd5b820183602082011115610b2057600080fd5b803590602001918460018302840111600160201b83111715610b4157600080fd5b91908080601f016020809104026020016040519081016040528093929190818152602001838380828437600092019190915250929550505090356001600160a01b03169150611ffb9050565b610387612115565b61038760048036036040811015610bab57600080fd5b506001600160a01b038135811691602001351661211b565b610387612146565b61029a6121fc565b609c546001600160a01b031681565b60688054604080516020601f6002600019610100600188161502019095169490940493840181900481028201810190925282815260609390929091830182828015610c6e5780601f10610c4357610100808354040283529160200191610c6e565b820191906000526020600020905b815481529060010190602001808311610c5157829003601f168201915b5050505050905090565b6000610c8c610c8561225d565b8484612261565b5060015b92915050565b6097546001600160a01b03163314610ce4576040805162461bcd60e51b815260206004820152600c60248201526b37b7363c9036b0b730b3b2b960a11b604482015290519081900360640190fd5b610ced81611f5b565b610cf657610cff565b610cff8161234d565b50565b609b546001600160a01b031690565b60675490565b606060008060006060600080600080600080609e60009054906101000a90046001600160a01b03166001600160a01b031663b7a54526306040518263ffffffff1660e01b815260040180826001600160a01b03168152602001915050604080518083038186803b158015610d8a57600080fd5b505afa158015610d9e573d6000803e3d6000fd5b505050506040513d6040811015610db457600080fd5b5080516020909101519092509050610dca610be2565b610dd2610d11565b610dda611d30565b610de26117b0565b610dea6121fc565b609d54609b60149054906101000a900460ff1688889a509a509a509a509a509a509a509a509a505050909192939495969798565b60a1546001600160a01b031681565b6000610e3a848484612446565b610eaa84610e4661225d565b610ea585604051806060016040528060288152602001613196602891396001600160a01b038a16600090815260666020526040812090610e8461225d565b6001600160a01b0316815260208101919091526040016000205491906125a3565b612261565b5060019392505050565b60a06020526000908152604090205481565b80610ed033611991565b1015610f1a576040805162461bcd60e51b8152602060048201526014602482015273696e73756666696369656e742062616c616e636560601b604482015290519081900360640190fd5b610f2333611f02565b15610f67576040805162461bcd60e51b815260206004820152600f60248201526e636f6f6c646f776e2061637469766560881b604482015290519081900360640190fd5b610f6f61263a565b6000610f79611d30565b90506000610fa0610f88610d11565b610f9a85670de0b6b3a76400006128b8565b90612918565b9050610fac338461295a565b60a1546040805163e5406dbf60e01b815290516001600160a01b0390921691606091839163e5406dbf91600480820192600092909190829003018186803b158015610ff657600080fd5b505afa15801561100a573d6000803e3d6000fd5b505050506040513d6000823e601f3d908101601f19168201604052602081101561103357600080fd5b8101908080516040519392919084600160201b82111561105257600080fd5b90830190602082018581111561106757600080fd5b82518660208202830111600160201b8211171561108357600080fd5b82525081516020918201928201910280838360005b838110156110b0578181015183820152602001611098565b50505050905001604052505050905060008151905060005b8181101561120c5760008382815181106110de57fe5b602002602001015190506000816001600160a01b03166370a08231306040518263ffffffff1660e01b815260040180826001600160a01b0316815260200191505060206040518083038186803b15801561113757600080fd5b505afa15801561114b573d6000803e3d6000fd5b505050506040513d602081101561116157600080fd5b50519050600061117d670de0b6b3a7640000610f9a848b6128b8565b90508015611201576040805163a9059cbb60e01b81523360048201526024810183905290516001600160a01b0385169163a9059cbb9160448083019260209291908290030181600087803b1580156111d457600080fd5b505af11580156111e8573d6000803e3d6000fd5b505050506040513d60208110156111fe57600080fd5b50505b5050506001016110c8565b506000611225670de0b6b3a7640000610f9a87896128b8565b90507f79d44cc8beeed36226f14818b2ecaca7ef252bcd56c9ae35f5a86869dbdefb973033838a61125533611991565b61125d611d30565b611265610d11565b604080516001600160a01b039889168152969097166020870152858701949094526060850192909252608084015260a083015260c08201524260e08201529051908190036101000190a150505050505050565b606a5460ff1690565b6000610c8c6112ce61225d565b84610ea585606660006112df61225d565b6001600160a01b03908116825260208083019390935260409182016000908120918c168152925290205490612a56565b6097546001600160a01b0316331461135d576040805162461bcd60e51b815260206004820152600c60248201526b37b7363c9036b0b730b3b2b960a11b604482015290519081900360640190fd5b609b5460ff600160a01b90910416151581151514156113bc576040805162461bcd60e51b8152602060048201526016602482015275199b1859c81b5d5cdd08189948191a5999995c995b9d60521b604482015290519081900360640190fd5b610cff81612ab0565b609e54604080516308a0361160e31b815290516000926001600160a01b031691634501b088916004808301926020929190829003018186803b15801561140a57600080fd5b505afa15801561141e573d6000803e3d6000fd5b505050506040513d602081101561143457600080fd5b5051905090565b6097546001600160a01b03163314611489576040805162461bcd60e51b815260206004820152600c60248201526b37b7363c9036b0b730b3b2b960a11b604482015290519081900360640190fd5b60005b81518110156114de576114b18282815181106114a457fe5b6020026020010151611f5b565b6114ba576114d6565b6114d68282815181106114c957fe5b602002602001015161234d565b60010161148c565b5050565b60006114ec6117b0565b6001600160a01b0316336001600160a01b031614806115155750609b54600160a01b900460ff16155b80611524575061152433611f5b565b61156c576040805162461bcd60e51b81526020600482015260146024820152731bdb9b1e481b595b58995c9cc8185b1b1bddd95960621b604482015290519081900360640190fd5b33600090815260a06020526040902042905561158661263a565b6000611590611d30565b9050600061159c610d11565b604080516323b872dd60e01b81523360048201523060248201526044810187905290519192506001600160a01b038716916323b872dd916064808201926020929091908290030181600087803b1580156115f557600080fd5b505af1158015611609573d6000803e3d6000fd5b505050506040513d602081101561161f57600080fd5b505161166a576040805162461bcd60e51b81526020600482015260156024820152741d1bdad95b881d1c985b9cd9995c8819985a5b1959605a1b604482015290519081900360640190fd5b60a154604080516314e03fdd60e11b81526001600160a01b03888116600483015260248201889052915160009392909216916329c07fba91604480820192602092909190829003018186803b1580156116c257600080fd5b505afa1580156116d6573d6000803e3d6000fd5b505050506040513d60208110156116ec57600080fd5b505190506000821561170d5761170684610f9a84866128b8565b9050611710565b50805b61171a3382612b03565b7f87fdcba84e083ebb8fd661bbafee3eb38764ec6f0cbeea8ed52deffa67bd45dc3033848461174833611991565b6117528a89612a56565b61175c8a89612a56565b604080516001600160a01b039889168152969097166020870152858701949094526060850192909252608084015260a083015260c08201524260e08201529051908190036101000190a19695505050505050565b6097546001600160a01b031690565b6097546001600160a01b0316331461180d576040805162461bcd60e51b815260206004820152600c60248201526b37b7363c9036b0b730b3b2b960a11b604482015290519081900360640190fd5b609780546001600160a01b0319166001600160a01b038416179055805161183b906098906020840190613054565b507f6ed15082ad038474841528b5badca105106d4463e44b5d434130dfb299aa3669828260405180836001600160a01b0316815260200180602001828103825283818151815260200191508051906020019080838360005b838110156118ab578181015183820152602001611893565b50505050905090810190601f1680156118d85780820380516001836020036101000a031916815260200191505b50935050505060405180910390a15050565b609b54600160a01b900460ff1681565b6097546001600160a01b03163314611948576040805162461bcd60e51b815260206004820152600c60248201526b37b7363c9036b0b730b3b2b960a11b604482015290519081900360640190fd5b60005b81518110156114de576119638282815181106114a457fe5b1561196d57611989565b61198982828151811061197c57fe5b6020026020010151612bf5565b60010161194b565b6001600160a01b0381166000908152606560205260409020545b919050565b600080609e60009054906101000a90046001600160a01b03166001600160a01b0316631d68702d6040518163ffffffff1660e01b815260040160206040518083038186803b158015611a0157600080fd5b505afa158015611a15573d6000803e3d6000fd5b505050506040513d6020811015611a2b57600080fd5b50519050336001600160a01b03821614611a8c576040805162461bcd60e51b815260206004820152601860248201527f6f6e6c792044414f206164647265737320616c6c6f7765640000000000000000604482015290519081900360640190fd5b60a180546001600160a01b0319166001600160a01b0385169081179091556040805191825233602083015280517f63fb64c359a4cae97e1bf003c1ab11390b5f0e18cc5b3d67b90bd61c0f5c52fd9281900390910190a150600192915050565b609f5481565b6097546001600160a01b03163314611b40576040805162461bcd60e51b815260206004820152600c60248201526b37b7363c9036b0b730b3b2b960a11b604482015290519081900360640190fd5b609b80546001600160a01b0319169055565b600080611b5d611d30565b90506000611b69610d11565b9050611b758282612c51565b9250505090565b60698054604080516020601f6002600019610100600188161502019095169490940493840181900481028201810190925282815260609390929091830182828015610c6e5780601f10610c4357610100808354040283529160200191610c6e565b60606099805480602002602001604051908101604052809291908181526020018280548015610c6e57602002820191906000526020600020905b81546001600160a01b03168152600190910190602001808311611c17575050505050905090565b60995490565b6000610c8c611c5161225d565b84610ea5856040518060600160405280602581526020016132566025913960666000611c7b61225d565b6001600160a01b03908116825260208083019390935260409182016000908120918d168152925290205491906125a3565b6097546001600160a01b03163314611cfa576040805162461bcd60e51b815260206004820152600c60248201526b37b7363c9036b0b730b3b2b960a11b604482015290519081900360640190fd5b609b80546001600160a01b0319166001600160a01b0392909216919091179055565b6000610c8c611d2961225d565b8484612446565b60a1546040805163e5406dbf60e01b8152905160009283926001600160a01b0390911691606091839163e5406dbf916004808201928892909190829003018186803b158015611d7e57600080fd5b505afa158015611d92573d6000803e3d6000fd5b505050506040513d6000823e601f3d908101601f191682016040526020811015611dbb57600080fd5b8101908080516040519392919084600160201b821115611dda57600080fd5b908301906020820185811115611def57600080fd5b82518660208202830111600160201b82111715611e0b57600080fd5b82525081516020918201928201910280838360005b83811015611e38578181015183820152602001611e20565b50505050905001604052505050905060008151905060005b81811015611ef857611eee846001600160a01b031663d8af8ed4858481518110611e7657fe5b60200260200101516040518263ffffffff1660e01b815260040180826001600160a01b0316815260200191505060206040518083038186803b158015611ebb57600080fd5b505afa158015611ecf573d6000803e3d6000fd5b505050506040513d6020811015611ee557600080fd5b50518690612a56565b9450600101611e50565b5092935050505090565b600080611f0d6113c5565b6001600160a01b038416600090815260a0602052604081205491925090611f349083612a56565b905042811015611f49576000925050506119ab565b611f538142612c81565b949350505050565b6001600160a01b03166000908152609a6020526040902054151590565b609e546001600160a01b031681565b6097546001600160a01b03163314611fd5576040805162461bcd60e51b815260206004820152600c60248201526b37b7363c9036b0b730b3b2b960a11b604482015290519081900360640190fd5b611fde81611f5b565b15611fe857610cff565b610cff81612bf5565b611ff961263a565b565b600054610100900460ff16806120145750612014612cc3565b80612022575060005460ff16155b61205d5760405162461bcd60e51b815260040180806020018281038252602e8152602001806131be602e913960400191505060405180910390fd5b600054610100900460ff16158015612088576000805460ff1961ff0019909116610100171660011790555b6120928484612cc9565b61209c8686612d7f565b609e80546001600160a01b0319166001600160a01b038a161790556120c087612ab0565b609c8054336001600160a01b03199182161790915542609d55670de0b6b3a7640000609f5560a180549091166001600160a01b038416179055801561210b576000805461ff00191690555b5050505050505050565b609d5481565b6001600160a01b03918216600090815260666020908152604080832093909416825291909152205490565b600080612151611d30565b9050600061215d610d11565b609e5460408051635bd2a29360e11b8152306004820152815193945060009384936001600160a01b03169263b7a545269260248082019391829003018186803b1580156121a957600080fd5b505afa1580156121bd573d6000803e3d6000fd5b505050506040513d60408110156121d357600080fd5b508051602090910151609f5491935091506121f390859085908585612dad565b94505050505090565b60988054604080516020601f6002600019610100600188161502019095169490940493840181900481028201810190925282815260609390929091830182828015610c6e5780601f10610c4357610100808354040283529160200191610c6e565b3390565b6001600160a01b0383166122a65760405162461bcd60e51b81526004018080602001828103825260248152602001806132326024913960400191505060405180910390fd5b6001600160a01b0382166122eb5760405162461bcd60e51b815260040180806020018281038252602281526020018061312d6022913960400191505060405180910390fd5b6001600160a01b03808416600081815260666020908152604080832094871680845294825291829020859055815185815291517f8c5be1e5ebec7d5bd14f71427d1e84f3dd0314c0f7b2291e5b200ac8c7c3b9259281900390910190a3505050565b6099546001600160a01b0382166000908152609a6020526040812054612374906001612c81565b905060006099612385846001612c81565b8154811061238f57fe5b600091825260209091200154609980546001600160a01b0390921692508291849081106123b857fe5b600091825260209091200180546001600160a01b0319166001600160a01b03929092169190911790556123ec826001612a56565b6001600160a01b038083166000908152609a602052604080822093909355908616815290812055609980548061241e57fe5b600082815260209020810160001990810180546001600160a01b031916905501905550505050565b6001600160a01b03831661248b5760405162461bcd60e51b815260040180806020018281038252602581526020018061320d6025913960400191505060405180910390fd5b6001600160a01b0382166124d05760405162461bcd60e51b81526004018080602001828103825260238152602001806130e86023913960400191505060405180910390fd5b6124db838383612e1e565b6125188160405180606001604052806026815260200161314f602691396001600160a01b03861660009081526065602052604090205491906125a3565b6001600160a01b0380851660009081526065602052604080822093909355908416815220546125479082612a56565b6001600160a01b0380841660008181526065602090815260409182902094909455805185815290519193928716927fddf252ad1be2c89b69c2b068fc378daa952ba7f163c4a11628f55a4df523b3ef92918290030190a3505050565b600081848411156126325760405162461bcd60e51b81526004018080602001828103825283818151815260200191508051906020019080838360005b838110156125f75781810151838201526020016125df565b50505050905090810190601f1680156126245780820380516001836020036101000a031916815260200191505b509250505060405180910390fd5b505050900390565b6000612644611d30565b90506000612650610d11565b609e5460408051635bd2a29360e11b8152306004820152815193945060009384936001600160a01b03169263b7a545269260248082019391829003018186803b15801561269c57600080fd5b505afa1580156126b0573d6000803e3d6000fd5b505050506040513d60408110156126c657600080fd5b508051602090910151609f5491935091506000906126e990869086908686612dad565b905060648110156126fe575050505050611ff9565b609e5460408051631d68702d60e01b815290516000926001600160a01b031691631d68702d916004808301926020929190829003018186803b15801561274357600080fd5b505afa158015612757573d6000803e3d6000fd5b505050506040513d602081101561276d57600080fd5b5051609e546040805163272b69b960e21b8152815193945060009384936001600160a01b031692639cada6e49260048082019391829003018186803b1580156127b557600080fd5b505afa1580156127c9573d6000803e3d6000fd5b505050506040513d60408110156127df57600080fd5b508051602090910151909250905060006127fd82610f9a87866128b8565b9050600061280b8683612c81565b9050811561281d5761281d8583612b03565b80156128345761283461282e6117b0565b82612b03565b61283e8a8a612c51565b609f557f755a8059d66d8d243bc9f6913f429a811f154599d0538bb0b6a2ac23f23d2ccd3061286b6117b0565b609f54604080516001600160a01b0394851681529290931660208301528183018a9052606082018690526080820185905260a082015290519081900360c00190a150505050505050505050565b6000826128c757506000610c90565b828202828482816128d457fe5b04146129115760405162461bcd60e51b81526004018080602001828103825260218152602001806131756021913960400191505060405180910390fd5b9392505050565b600061291183836040518060400160405280601a81526020017f536166654d6174683a206469766973696f6e206279207a65726f000000000000815250612e76565b6001600160a01b03821661299f5760405162461bcd60e51b81526004018080602001828103825260218152602001806131ec6021913960400191505060405180910390fd5b6129ab82600083612e1e565b6129e88160405180606001604052806022815260200161310b602291396001600160a01b03851660009081526065602052604090205491906125a3565b6001600160a01b038316600090815260656020526040902055606754612a0e9082612c81565b6067556040805182815290516000916001600160a01b038516917fddf252ad1be2c89b69c2b068fc378daa952ba7f163c4a11628f55a4df523b3ef9181900360200190a35050565b600082820183811015612911576040805162461bcd60e51b815260206004820152601b60248201527f536166654d6174683a206164646974696f6e206f766572666c6f770000000000604482015290519081900360640190fd5b609b8054821515600160a01b810260ff60a01b199092169190911790915560408051918252517f8d75e9ede4188432084b863d70b3416010c97547dfeb4fc17734d2e997ee0f399181900360200190a150565b6001600160a01b038216612b5e576040805162461bcd60e51b815260206004820152601f60248201527f45524332303a206d696e7420746f20746865207a65726f206164647265737300604482015290519081900360640190fd5b612b6a60008383612e1e565b606754612b779082612a56565b6067556001600160a01b038216600090815260656020526040902054612b9d9082612a56565b6001600160a01b03831660008181526065602090815260408083209490945583518581529351929391927fddf252ad1be2c89b69c2b068fc378daa952ba7f163c4a11628f55a4df523b3ef9281900390910190a35050565b609980546001810182557f72a152ddfb8e864297c917af52ea6c1c68aead0fee1a62673fcc7e0c94979d000180546001600160a01b039093166001600160a01b031990931683179055546000918252609a602052604090912055565b6000811580612c5e575082155b15612c6b57506000610c90565b61291182610f9a85670de0b6b3a76400006128b8565b600061291183836040518060400160405280601e81526020017f536166654d6174683a207375627472616374696f6e206f766572666c6f7700008152506125a3565b303b1590565b600054610100900460ff1680612ce25750612ce2612cc3565b80612cf0575060005460ff16155b612d2b5760405162461bcd60e51b815260040180806020018281038252602e8152602001806131be602e913960400191505060405180910390fd5b600054610100900460ff16158015612d56576000805460ff1961ff0019909116610100171660011790555b612d5e612edb565b612d688383612f7c565b8015612d7a576000805461ff00191690555b505050565b609780546001600160a01b0319166001600160a01b0384161790558051612d7a906098906020840190613054565b6000841580612dba575085155b15612dc757506000612e15565b6000612ddf86610f9a89670de0b6b3a76400006128b8565b9050848111612df2576000915050612e15565b6000612e1082610f9a868189612e0a8d81878f612c81565b906128b8565b925050505b95945050505050565b612e29838383612d7a565b612e3283611f02565b15612d7a576040805162461bcd60e51b815260206004820152600f60248201526e636f6f6c646f776e2061637469766560881b604482015290519081900360640190fd5b60008183612ec55760405162461bcd60e51b81526020600482018181528351602484015283519092839260449091019190850190808383600083156125f75781810151838201526020016125df565b506000838581612ed157fe5b0495945050505050565b600054610100900460ff1680612ef45750612ef4612cc3565b80612f02575060005460ff16155b612f3d5760405162461bcd60e51b815260040180806020018281038252602e8152602001806131be602e913960400191505060405180910390fd5b600054610100900460ff16158015612f68576000805460ff1961ff0019909116610100171660011790555b8015610cff576000805461ff001916905550565b600054610100900460ff1680612f955750612f95612cc3565b80612fa3575060005460ff16155b612fde5760405162461bcd60e51b815260040180806020018281038252602e8152602001806131be602e913960400191505060405180910390fd5b600054610100900460ff16158015613009576000805460ff1961ff0019909116610100171660011790555b825161301c906068906020860190613054565b508151613030906069906020850190613054565b50606a805460ff191660121790558015612d7a576000805461ff0019169055505050565b828054600181600116156101000203166002900490600052602060002090601f016020900481019282601f1061309557805160ff19168380011785556130c2565b828001600101855582156130c2579182015b828111156130c25782518255916020019190600101906130a7565b506130ce9291506130d2565b5090565b5b808211156130ce57600081556001016130d356fe45524332303a207472616e7366657220746f20746865207a65726f206164647265737345524332303a206275726e20616d6f756e7420657863656564732062616c616e636545524332303a20617070726f766520746f20746865207a65726f206164647265737345524332303a207472616e7366657220616d6f756e7420657863656564732062616c616e6365536166654d6174683a206d756c7469706c69636174696f6e206f766572666c6f7745524332303a207472616e7366657220616d6f756e74206578636565647320616c6c6f77616e6365436f6e747261637420696e7374616e63652068617320616c7265616479206265656e20696e697469616c697a656445524332303a206275726e2066726f6d20746865207a65726f206164647265737345524332303a207472616e736665722066726f6d20746865207a65726f206164647265737345524332303a20617070726f76652066726f6d20746865207a65726f206164647265737345524332303a2064656372656173656420616c6c6f77616e63652062656c6f77207a65726fa2646970667358221220856ca9def632a194e76660e6f000bfb015facba91e74f1ed5b0924e175934ed264736f6c634300060c0033",
  "linkReferences": {},
  "deployedLinkReferences": {}
}