{
  "_format": "hh-sol-artifact-1",
  "contractName": "PoolLogic-ovm",
  "sourceName": "contracts/PoolLogic.sol",
  "abi": [
    {
      "anonymous": false,
      "inputs": [
        {
          "indexed": true,
          "internalType": "address",
          "name": "owner",
          "type": "address"
        },
        {
          "indexed": true,
          "internalType": "address",
          "name": "spender",
          "type": "address"
        },
        {
          "indexed": false,
          "internalType": "uint256",
          "name": "value",
          "type": "uint256"
        }
      ],
      "name": "Approval",
      "type": "event"
    },
    {
      "anonymous": false,
      "inputs": [
        {
          "indexed": false,
          "internalType": "address",
          "name": "fundAddress",
          "type": "address"
        },
        {
          "indexed": false,
          "internalType": "address",
          "name": "investor",
          "type": "address"
        },
        {
          "indexed": false,
          "internalType": "uint256",
          "name": "valueDeposited",
          "type": "uint256"
        },
        {
          "indexed": false,
          "internalType": "uint256",
          "name": "fundTokensReceived",
          "type": "uint256"
        },
        {
          "indexed": false,
          "internalType": "uint256",
          "name": "totalInvestorFundTokens",
          "type": "uint256"
        },
        {
          "indexed": false,
          "internalType": "uint256",
          "name": "fundValue",
          "type": "uint256"
        },
        {
          "indexed": false,
          "internalType": "uint256",
          "name": "totalSupply",
          "type": "uint256"
        },
        {
          "indexed": false,
          "internalType": "uint256",
          "name": "time",
          "type": "uint256"
        }
      ],
      "name": "Deposit",
      "type": "event"
    },
    {
      "anonymous": false,
      "inputs": [
        {
          "indexed": false,
          "internalType": "address",
          "name": "pool",
          "type": "address"
        },
        {
          "indexed": false,
          "internalType": "address",
          "name": "manager",
          "type": "address"
        },
        {
          "indexed": false,
          "internalType": "uint256",
          "name": "available",
          "type": "uint256"
        },
        {
          "indexed": false,
          "internalType": "uint256",
          "name": "daoFee",
          "type": "uint256"
        },
        {
          "indexed": false,
          "internalType": "uint256",
          "name": "managerFee",
          "type": "uint256"
        },
        {
          "indexed": false,
          "internalType": "uint256",
          "name": "tokenPriceAtLastFeeMint",
          "type": "uint256"
        }
      ],
      "name": "ManagerFeeMinted",
      "type": "event"
    },
    {
      "anonymous": false,
      "inputs": [
        {
          "indexed": false,
          "internalType": "address",
          "name": "newManager",
          "type": "address"
        },
        {
          "indexed": false,
          "internalType": "string",
          "name": "newManagerName",
          "type": "string"
        }
      ],
      "name": "ManagerUpdated",
      "type": "event"
    },
    {
      "anonymous": false,
      "inputs": [
        {
          "indexed": false,
          "internalType": "address",
          "name": "poolManagerLogic",
          "type": "address"
        },
        {
          "indexed": false,
          "internalType": "address",
          "name": "from",
          "type": "address"
        }
      ],
      "name": "PoolManagerLogicSet",
      "type": "event"
    },
    {
      "anonymous": false,
      "inputs": [
        {
          "indexed": false,
          "internalType": "bool",
          "name": "isPoolPrivate",
          "type": "bool"
        }
      ],
      "name": "PoolPrivacyUpdated",
      "type": "event"
    },
    {
      "anonymous": false,
      "inputs": [
        {
          "indexed": true,
          "internalType": "address",
          "name": "from",
          "type": "address"
        },
        {
          "indexed": true,
          "internalType": "address",
          "name": "to",
          "type": "address"
        },
        {
          "indexed": false,
          "internalType": "uint256",
          "name": "value",
          "type": "uint256"
        }
      ],
      "name": "Transfer",
      "type": "event"
    },
    {
      "anonymous": false,
      "inputs": [
        {
          "indexed": false,
          "internalType": "address",
          "name": "fundAddress",
          "type": "address"
        },
        {
          "indexed": false,
          "internalType": "address",
          "name": "investor",
          "type": "address"
        },
        {
          "indexed": false,
          "internalType": "uint256",
          "name": "valueWithdrawn",
          "type": "uint256"
        },
        {
          "indexed": false,
          "internalType": "uint256",
          "name": "fundTokensWithdrawn",
          "type": "uint256"
        },
        {
          "indexed": false,
          "internalType": "uint256",
          "name": "totalInvestorFundTokens",
          "type": "uint256"
        },
        {
          "indexed": false,
          "internalType": "uint256",
          "name": "fundValue",
          "type": "uint256"
        },
        {
          "indexed": false,
          "internalType": "uint256",
          "name": "totalSupply",
          "type": "uint256"
        },
        {
          "indexed": false,
          "internalType": "uint256",
          "name": "time",
          "type": "uint256"
        }
      ],
      "name": "Withdrawal",
      "type": "event"
    },
    {
      "inputs": [
        {
          "internalType": "address",
          "name": "member",
          "type": "address"
        }
      ],
      "name": "addMember",
      "outputs": [],
      "stateMutability": "nonpayable",
      "type": "function"
    },
    {
      "inputs": [
        {
          "internalType": "address[]",
          "name": "members",
          "type": "address[]"
        }
      ],
      "name": "addMembers",
      "outputs": [],
      "stateMutability": "nonpayable",
      "type": "function"
    },
    {
      "inputs": [
        {
          "internalType": "address",
          "name": "owner",
          "type": "address"
        },
        {
          "internalType": "address",
          "name": "spender",
          "type": "address"
        }
      ],
      "name": "allowance",
      "outputs": [
        {
          "internalType": "uint256",
          "name": "",
          "type": "uint256"
        }
      ],
      "stateMutability": "view",
      "type": "function"
    },
    {
      "inputs": [
        {
          "internalType": "address",
          "name": "spender",
          "type": "address"
        },
        {
          "internalType": "uint256",
          "name": "amount",
          "type": "uint256"
        }
      ],
      "name": "approve",
      "outputs": [
        {
          "internalType": "bool",
          "name": "",
          "type": "bool"
        }
      ],
      "stateMutability": "nonpayable",
      "type": "function"
    },
    {
      "inputs": [],
      "name": "availableManagerFee",
      "outputs": [
        {
          "internalType": "uint256",
          "name": "",
          "type": "uint256"
        }
      ],
      "stateMutability": "view",
      "type": "function"
    },
    {
      "inputs": [
        {
          "internalType": "address",
          "name": "account",
          "type": "address"
        }
      ],
      "name": "balanceOf",
      "outputs": [
        {
          "internalType": "uint256",
          "name": "",
          "type": "uint256"
        }
      ],
      "stateMutability": "view",
      "type": "function"
    },
    {
      "inputs": [
        {
          "internalType": "address",
          "name": "newManager",
          "type": "address"
        },
        {
          "internalType": "string",
          "name": "newManagerName",
          "type": "string"
        }
      ],
      "name": "changeManager",
      "outputs": [],
      "stateMutability": "nonpayable",
      "type": "function"
    },
    {
      "inputs": [],
      "name": "creationTime",
      "outputs": [
        {
          "internalType": "uint256",
          "name": "",
          "type": "uint256"
        }
      ],
      "stateMutability": "view",
      "type": "function"
    },
    {
      "inputs": [],
      "name": "creator",
      "outputs": [
        {
          "internalType": "address",
          "name": "",
          "type": "address"
        }
      ],
      "stateMutability": "view",
      "type": "function"
    },
    {
      "inputs": [],
      "name": "decimals",
      "outputs": [
        {
          "internalType": "uint8",
          "name": "",
          "type": "uint8"
        }
      ],
      "stateMutability": "view",
      "type": "function"
    },
    {
      "inputs": [
        {
          "internalType": "address",
          "name": "spender",
          "type": "address"
        },
        {
          "internalType": "uint256",
          "name": "subtractedValue",
          "type": "uint256"
        }
      ],
      "name": "decreaseAllowance",
      "outputs": [
        {
          "internalType": "bool",
          "name": "",
          "type": "bool"
        }
      ],
      "stateMutability": "nonpayable",
      "type": "function"
    },
    {
      "inputs": [
        {
          "internalType": "address",
          "name": "_asset",
          "type": "address"
        },
        {
          "internalType": "uint256",
          "name": "_amount",
          "type": "uint256"
        }
      ],
      "name": "deposit",
      "outputs": [
        {
          "internalType": "uint256",
          "name": "",
          "type": "uint256"
        }
      ],
      "stateMutability": "nonpayable",
      "type": "function"
    },
    {
      "inputs": [],
      "name": "factory",
      "outputs": [
        {
          "internalType": "address",
          "name": "",
          "type": "address"
        }
      ],
      "stateMutability": "view",
      "type": "function"
    },
    {
      "inputs": [],
      "name": "getExitCooldown",
      "outputs": [
        {
          "internalType": "uint256",
          "name": "",
          "type": "uint256"
        }
      ],
      "stateMutability": "view",
      "type": "function"
    },
    {
      "inputs": [
        {
          "internalType": "address",
          "name": "sender",
          "type": "address"
        }
      ],
      "name": "getExitRemainingCooldown",
      "outputs": [
        {
          "internalType": "uint256",
          "name": "",
          "type": "uint256"
        }
      ],
      "stateMutability": "view",
      "type": "function"
    },
    {
      "inputs": [],
      "name": "getFundSummary",
      "outputs": [
        {
          "internalType": "string",
          "name": "",
          "type": "string"
        },
        {
          "internalType": "uint256",
          "name": "",
          "type": "uint256"
        },
        {
          "internalType": "uint256",
          "name": "",
          "type": "uint256"
        },
        {
          "internalType": "address",
          "name": "",
          "type": "address"
        },
        {
          "internalType": "string",
          "name": "",
          "type": "string"
        },
        {
          "internalType": "uint256",
          "name": "",
          "type": "uint256"
        },
        {
          "internalType": "bool",
          "name": "",
          "type": "bool"
        },
        {
          "internalType": "uint256",
          "name": "",
          "type": "uint256"
        },
        {
          "internalType": "uint256",
          "name": "",
          "type": "uint256"
        }
      ],
      "stateMutability": "view",
      "type": "function"
    },
    {
      "inputs": [],
      "name": "getMembers",
      "outputs": [
        {
          "internalType": "address[]",
          "name": "",
          "type": "address[]"
        }
      ],
      "stateMutability": "view",
      "type": "function"
    },
    {
      "inputs": [
        {
          "internalType": "address",
          "name": "spender",
          "type": "address"
        },
        {
          "internalType": "uint256",
          "name": "addedValue",
          "type": "uint256"
        }
      ],
      "name": "increaseAllowance",
      "outputs": [
        {
          "internalType": "bool",
          "name": "",
          "type": "bool"
        }
      ],
      "stateMutability": "nonpayable",
      "type": "function"
    },
    {
      "inputs": [
        {
          "internalType": "address",
          "name": "_factory",
          "type": "address"
        },
        {
          "internalType": "bool",
          "name": "_privatePool",
          "type": "bool"
        },
        {
          "internalType": "address",
          "name": "_manager",
          "type": "address"
        },
        {
          "internalType": "string",
          "name": "_managerName",
          "type": "string"
        },
        {
          "internalType": "string",
          "name": "_fundName",
          "type": "string"
        },
        {
          "internalType": "string",
          "name": "_fundSymbol",
          "type": "string"
        },
        {
          "internalType": "address",
          "name": "_poolManagerLogic",
          "type": "address"
        }
      ],
      "name": "initialize",
      "outputs": [],
      "stateMutability": "nonpayable",
      "type": "function"
    },
    {
      "inputs": [
        {
          "internalType": "address",
          "name": "member",
          "type": "address"
        }
      ],
      "name": "isMemberAllowed",
      "outputs": [
        {
          "internalType": "bool",
          "name": "",
          "type": "bool"
        }
      ],
      "stateMutability": "view",
      "type": "function"
    },
    {
      "inputs": [
        {
          "internalType": "address",
          "name": "",
          "type": "address"
        }
      ],
      "name": "lastDeposit",
      "outputs": [
        {
          "internalType": "uint256",
          "name": "",
          "type": "uint256"
        }
      ],
      "stateMutability": "view",
      "type": "function"
    },
    {
      "inputs": [],
      "name": "manager",
      "outputs": [
        {
          "internalType": "address",
          "name": "",
          "type": "address"
        }
      ],
      "stateMutability": "view",
      "type": "function"
    },
    {
      "inputs": [],
      "name": "managerName",
      "outputs": [
        {
          "internalType": "string",
          "name": "",
          "type": "string"
        }
      ],
      "stateMutability": "view",
      "type": "function"
    },
    {
      "inputs": [],
      "name": "mintManagerFee",
      "outputs": [],
      "stateMutability": "nonpayable",
      "type": "function"
    },
    {
      "inputs": [],
      "name": "name",
      "outputs": [
        {
          "internalType": "string",
          "name": "",
          "type": "string"
        }
      ],
      "stateMutability": "view",
      "type": "function"
    },
    {
      "inputs": [],
      "name": "numberOfMembers",
      "outputs": [
        {
          "internalType": "uint256",
          "name": "",
          "type": "uint256"
        }
      ],
      "stateMutability": "view",
      "type": "function"
    },
    {
      "inputs": [],
      "name": "poolManagerLogic",
      "outputs": [
        {
          "internalType": "address",
          "name": "",
          "type": "address"
        }
      ],
      "stateMutability": "view",
      "type": "function"
    },
    {
      "inputs": [],
      "name": "privatePool",
      "outputs": [
        {
          "internalType": "bool",
          "name": "",
          "type": "bool"
        }
      ],
      "stateMutability": "view",
      "type": "function"
    },
    {
      "inputs": [
        {
          "internalType": "address",
          "name": "member",
          "type": "address"
        }
      ],
      "name": "removeMember",
      "outputs": [],
      "stateMutability": "nonpayable",
      "type": "function"
    },
    {
      "inputs": [
        {
          "internalType": "address[]",
          "name": "members",
          "type": "address[]"
        }
      ],
      "name": "removeMembers",
      "outputs": [],
      "stateMutability": "nonpayable",
      "type": "function"
    },
    {
      "inputs": [],
      "name": "removeTrader",
      "outputs": [],
      "stateMutability": "nonpayable",
      "type": "function"
    },
    {
      "inputs": [
        {
          "internalType": "address",
          "name": "_poolManagerLogic",
          "type": "address"
        }
      ],
      "name": "setPoolManagerLogic",
      "outputs": [
        {
          "internalType": "bool",
          "name": "",
          "type": "bool"
        }
      ],
      "stateMutability": "nonpayable",
      "type": "function"
    },
    {
      "inputs": [
        {
          "internalType": "bool",
          "name": "_privatePool",
          "type": "bool"
        }
      ],
      "name": "setPoolPrivate",
      "outputs": [],
      "stateMutability": "nonpayable",
      "type": "function"
    },
    {
      "inputs": [
        {
          "internalType": "address",
          "name": "newTrader",
          "type": "address"
        }
      ],
      "name": "setTrader",
      "outputs": [],
      "stateMutability": "nonpayable",
      "type": "function"
    },
    {
      "inputs": [],
      "name": "symbol",
      "outputs": [
        {
          "internalType": "string",
          "name": "",
          "type": "string"
        }
      ],
      "stateMutability": "view",
      "type": "function"
    },
    {
      "inputs": [],
      "name": "tokenPrice",
      "outputs": [
        {
          "internalType": "uint256",
          "name": "",
          "type": "uint256"
        }
      ],
      "stateMutability": "view",
      "type": "function"
    },
    {
      "inputs": [],
      "name": "tokenPriceAtLastFeeMint",
      "outputs": [
        {
          "internalType": "uint256",
          "name": "",
          "type": "uint256"
        }
      ],
      "stateMutability": "view",
      "type": "function"
    },
    {
      "inputs": [],
      "name": "totalFundValue",
      "outputs": [
        {
          "internalType": "uint256",
          "name": "",
          "type": "uint256"
        }
      ],
      "stateMutability": "view",
      "type": "function"
    },
    {
      "inputs": [],
      "name": "totalSupply",
      "outputs": [
        {
          "internalType": "uint256",
          "name": "",
          "type": "uint256"
        }
      ],
      "stateMutability": "view",
      "type": "function"
    },
    {
      "inputs": [],
      "name": "trader",
      "outputs": [
        {
          "internalType": "address",
          "name": "",
          "type": "address"
        }
      ],
      "stateMutability": "view",
      "type": "function"
    },
    {
      "inputs": [
        {
          "internalType": "address",
          "name": "recipient",
          "type": "address"
        },
        {
          "internalType": "uint256",
          "name": "amount",
          "type": "uint256"
        }
      ],
      "name": "transfer",
      "outputs": [
        {
          "internalType": "bool",
          "name": "",
          "type": "bool"
        }
      ],
      "stateMutability": "nonpayable",
      "type": "function"
    },
    {
      "inputs": [
        {
          "internalType": "address",
          "name": "sender",
          "type": "address"
        },
        {
          "internalType": "address",
          "name": "recipient",
          "type": "address"
        },
        {
          "internalType": "uint256",
          "name": "amount",
          "type": "uint256"
        }
      ],
      "name": "transferFrom",
      "outputs": [
        {
          "internalType": "bool",
          "name": "",
          "type": "bool"
        }
      ],
      "stateMutability": "nonpayable",
      "type": "function"
    },
    {
      "inputs": [
        {
          "internalType": "uint256",
          "name": "_fundTokenAmount",
          "type": "uint256"
        }
      ],
      "name": "withdraw",
      "outputs": [],
      "stateMutability": "nonpayable",
      "type": "function"
    }
  ],
  "bytecode": "0x60806040523480156200001c576000806200001962000023565b50505b5062000090565b632a2a7adb598160e01b8152600481016020815285602082015260005b868110156200005d57808601518282016040015260200162000040565b506020828760640184336000905af158600e01573d6000803e3d6000fd5b3d6001141558600a015760016000f35b505050565b61484080620000a06000396000f3fe608060405234801561001957600080610016614250565b50505b50600436106102725760003560e01c806370a082311161015a578063ad60ffcc116100cc578063cc3c6df611610090578063cc3c6df614610ac0578063cdfa79d214610ac8578063d8270dce14610cf9578063dd62ed3e14610d01578063edbf6f5014610d38578063fed4416a14610d4057610272565b8063ad60ffcc14610a23578063b8ea2b6e14610a2b578063bbbf725b14610a5a578063c45a015514610a89578063ca6d56dc14610a9157610272565b806395d89b411161011e57806395d89b411461091f5780639eab525314610927578063a30e3fa914610982578063a457c2d71461098a578063a6bc18f9146109bf578063a9059cbb146109ee57610272565b806370a08231146108a9578063750226de146108d85780637714f39d146109075780637c8afd511461090f5780637ff9b5961461091757610272565b80632e1a7d4d116101f357806346ee84b0116101b757806346ee84b01461060357806347e7ef24146106c8578063481c6a75146106fd578063522136631461070557806359b5e75e146107dc5780636f4d469b146107e457610272565b80632e1a7d4d1461055a578063313ce56714610580578063395093511461059e5780633babaad5146105d35780634501b088146105fb57610272565b806318160ddd1161023a57806318160ddd146103a55780631c5918d2146103bf5780631e50a4a6146104e457806323b872dd146104ec57806329d16ee81461052b57610272565b806302d05d3f1461028057806306fdde03146102a4578063095ea7b3146103235780630b1ca49a1461036c5780631758078b1461039d575b60008061027d614250565b50505b610288610d48565b6040516001600160a01b03909116815260200160405180910390f35b6102ac610d67565b60405160208082528190810183818151815260200191508051906020019080838360005b838110156102e85780820151838201526020016102d0565b50505050905090810190601f1680156103155780820380516001836020036101000a031916815260200191505b509250505060405180910390f35b610358600480360360408110156103425760008061033f614250565b50505b506001600160a01b038135169060200135610e24565b604051901515815260200160405180910390f35b61039b6004803603602081101561038b57600080610388614250565b50505b50356001600160a01b0316610e42565b005b610288610ee0565b6103ad610f02565b60405190815260200160405180910390f35b6103c7610f13565b60405180806020018a8152602001898152602001886001600160a01b0316815260200180602001878152602001861515815260200185815260200184815260200183810383528c818151815260200191508051906020019080838360005b8381101561043d578082015183820152602001610425565b50505050905090810190601f16801561046a5780820380516001836020036101000a031916815260200191505b50838103825288818151815260200191508051906020019080838360005b838110156104a0578082015183820152602001610488565b50505050905090810190601f1680156104cd5780820380516001836020036101000a031916815260200191505b509b50505050505050505050505060405180910390f35b6102886110ba565b6103586004803603606081101561050b57600080610508614250565b50505b506001600160a01b038135811691602081013590911690604001356110c6565b6103ad6004803603602081101561054a57600080610547614250565b50505b50356001600160a01b031661115a565b61039b6004803603602081101561057957600080610576614250565b50505b5035611175565b610588611734565b60405160ff909116815260200160405180910390f35b610358600480360360408110156105bd576000806105ba614250565b50505b506001600160a01b038135169060200135611750565b61039b600480360360208110156105f2576000806105ef614250565b50505b503515156117b5565b6103ad6118ad565b61039b600480360360208110156106225760008061061f614250565b50505b810190602081018135600160201b81111561064557600080610642614250565b50505b8201836020820111156106605760008061065d614250565b50505b803590602001918460208302840111600160201b8311171561068a57600080610687614250565b50505b919080806020026020016040519081016040528093929190818152602001838360200280828437600092019190915250929550611968945050505050565b6103ad600480360360408110156106e7576000806106e4614250565b50505b506001600160a01b038135169060200135611a41565b610288611ed7565b61039b6004803603604081101561072457600080610721614250565b50505b6001600160a01b038235169190810190604081016020820135600160201b81111561075757600080610754614250565b50505b8201836020820111156107725760008061076f614250565b50505b803590602001918460018302840111600160201b8311171561079c57600080610799614250565b50505b91908080601f0160208091040260200160405190810160405281815292919060208401838380828437600092019190915250929550611ee4945050505050565b610358612059565b61039b6004803603602081101561080357600080610800614250565b50505b810190602081018135600160201b81111561082657600080610823614250565b50505b8201836020820111156108415760008061083e614250565b50505b803590602001918460208302840111600160201b8311171561086b57600080610868614250565b50505b919080806020026020016040519081016040528093929190818152602001838360200280828437600092019190915250929550612072945050505050565b6103ad600480360360208110156108c8576000806108c5614250565b50505b50356001600160a01b031661213b565b610358600480360360208110156108f7576000806108f4614250565b50505b50356001600160a01b0316612163565b6103ad61231d565b61039b612327565b6103ad6123dd565b6102ac612407565b61092f6124ad565b60405160208082528190810183818151815260200191508051906020019060200280838360005b8381101561096e578082015183820152602001610956565b505050509050019250505060405180910390f35b6103ad612533565b610358600480360360408110156109a9576000806109a6614250565b50505b506001600160a01b038135169060200135612546565b61039b600480360360208110156109de576000806109db614250565b50505b50356001600160a01b03166125bc565b61035860048036036040811015610a0d57600080610a0a614250565b50505b506001600160a01b038135169060200135612672565b6103ad612686565b6103ad60048036036020811015610a4a57600080610a47614250565b50505b50356001600160a01b03166128e9565b61035860048036036020811015610a7957600080610a76614250565b50505b50356001600160a01b0316612953565b61028861297b565b61039b60048036036020811015610ab057600080610aad614250565b50505b50356001600160a01b0316612987565b61039b612a23565b61039b600480360360e0811015610ae757600080610ae4614250565b50505b6001600160a01b0382358116926020810135151592604082013590921691810190608081016060820135600160201b811115610b2b57600080610b28614250565b50505b820183602082011115610b4657600080610b43614250565b50505b803590602001918460018302840111600160201b83111715610b7057600080610b6d614250565b50505b91908080601f01602080910402602001604051908101604052818152929190602084018383808284376000920191909152509295949360208101935035915050600160201b811115610bca57600080610bc7614250565b50505b820183602082011115610be557600080610be2614250565b50505b803590602001918460018302840111600160201b83111715610c0f57600080610c0c614250565b50505b91908080601f01602080910402602001604051908101604052818152929190602084018383808284376000920191909152509295949360208101935035915050600160201b811115610c6957600080610c66614250565b50505b820183602082011115610c8457600080610c81614250565b50505b803590602001918460018302840111600160201b83111715610cae57600080610cab614250565b50505b91908080601f0160208091040260200160405190810160405281815292919060208401838380828437600092019190915250929550505090356001600160a01b03169150612a2d9050565b6103ad612c4e565b6103ad60048036036040811015610d2057600080610d1d614250565b50505b506001600160a01b0381358116916020013516612c58565b6103ad612c98565b6102ac612e05565b6000609c610d546142bb565b906101000a90046001600160a01b031681565b6060606880610d746142bb565b600181600116156101000203166002900480601f016020809104026020016040519081016040528181529190602083018280610dae6142bb565b60018160011615610100020316600290048015610e1a5780601f10610de8576101008083610dda6142bb565b040283529160200191610e1a565b820191906000526020600020905b81610dff6142bb565b81529060010190602001808311610df657829003601f168201915b5050505050905090565b6000610e38610e31612eab565b8484612eb6565b5060015b92915050565b60006097610e4e6142bb565b906101000a90046001600160a01b03166001600160a01b03165a610e70614316565b6001600160a01b031614610ec25760405162461bcd60e51b815260206004820152600c60248201526b37b7363c9036b0b730b3b2b960a11b604482015260640160405180910390610ebf614250565b50505b610ecb81612953565b610ed457610edd565b610edd81612fde565b50565b600080609b610eed6142bb565b906101000a90046001600160a01b0316905090565b60006067610f0e6142bb565b905090565b6060600080808381808080808080609e610f2b6142bb565b906101000a90046001600160a01b03166001600160a01b031663b7a545265a63996d79a5598160e01b8152602081600483336000905af158600e01573d6000803e3d6000fd5b3d6001141558600a015760016000f35b8051925060005b6040811015610f9f57600082820152602001610f88565b5050506040516001600160e01b031960e084901b1681526001600160a01b03909116600482015260240160408051808303818680610fdb61435c565b158015610ff057600080610fed614250565b50505b505a610ffa6143a8565b5050505050158015611019573d6000803e3d6000611016614250565b50505b505050506040513d604081101561103857600080611035614250565b50505b81019080805192919060200180519395509293506110599250610d67915050565b611061610f02565b611069612686565b611071611ed7565b611079612e05565b609d6110836142bb565b6014609b61108f6142bb565b906101000a900460ff1688889a509a509a509a509a509a509a509a509a505050909192939495969798565b600060a1610d546142bb565b60006110d384848461315f565b611150846110df612eab565b61114b8560405160608101604052602880825261475b60208301396001600160a01b038a166000908152606660205260409020600061111c612eab565b6001600160a01b03166001600160a01b031681526020019081526020016000206111446142bb565b91906132fd565b612eb6565b5060019392505050565b60a060205280600052604060002090506111726142bb565b81565b806111875a611182614316565b61213b565b10156111d95760405162461bcd60e51b8152602060048201526014602482015273696e73756666696369656e742062616c616e636560601b6044820152606401604051809103906111d6614250565b50505b6111ea5a6111e5614316565b6128e9565b156112365760405162461bcd60e51b815260206004820152600f60248201526e636f6f6c646f776e2061637469766560881b604482015260640160405180910390611233614250565b50505b61123e61339d565b6000611248612686565b9050600061126f611257610f02565b61126985670de0b6b3a76400006137ce565b90613836565b90506112835a61127d614316565b84613876565b60008060a16112906142bb565b906101000a90046001600160a01b031690506060816001600160a01b031663e5406dbf6040518163ffffffff1660e01b815260040160006040518083038186806112d861435c565b1580156112ed576000806112ea614250565b50505b505a6112f76143a8565b5050505050158015611316573d6000803e3d6000611313614250565b50505b505050506040513d6000823e601f3d908101601f19168201604052602081101561134857600080611345614250565b50505b8101908080516040519392919084600160201b8211156113705760008061136d614250565b50505b90830190602082018581111561138e5760008061138b614250565b50505b82518660208202830111600160201b821117156113b3576000806113b0614250565b50505b825250602001908051906020019060200280838360005b838110156113e25780820151838201526020016113ca565b50505050905001604052505050905060008151905060005b8181101561161757600083828151811061141057fe5b602002602001015190506000816001600160a01b03166370a082315a63996d79a5598160e01b8152602081600483336000905af158600e01573d6000803e3d6000fd5b3d6001141558600a015760016000f35b8051925060005b60408110156114815760008282015260200161146a565b5050506040516001600160e01b031960e084901b1681526001600160a01b03909116600482015260240160206040518083038186806114be61435c565b1580156114d3576000806114d0614250565b50505b505a6114dd6143a8565b50505050501580156114fc573d6000803e3d60006114f9614250565b50505b505050506040513d602081101561151b57600080611518614250565b50505b8101908080519350600092506115419150670de0b6b3a76400009050611269848b6137ce565b9050801561160c57826001600160a01b031663a9059cbb5a611561614316565b836040516001600160e01b031960e085901b1681526001600160a01b0390921660048301526024820152604401602060405180830381600087806115a361435c565b1580156115b8576000806115b5614250565b50505b505a6115c2614493565b5050505050501580156115e2573d6000803e3d60006115df614250565b50505b505050506040513d6020811015611601576000806115fe614250565b50505b810190808051505050505b5050506001016113fa565b506000611630670de0b6b3a764000061126987896137ce565b90507f79d44cc8beeed36226f14818b2ecaca7ef252bcd56c9ae35f5a86869dbdefb975a63996d79a5598160e01b8152602081600483336000905af158600e01573d6000803e3d6000fd5b3d6001141558600a015760016000f35b8051925060005b60408110156116a957600082820152602001611692565b5050505a6116b5614316565b838a6116c35a611182614316565b6116cb612686565b6116d3610f02565b5a6116dc614559565b6040516001600160a01b0398891681529690971660208701526040808701959095526060860193909352608085019190915260a084015260c083015260e082019290925261010001905180910390a150505050505050565b600080606a6117416142bb565b906101000a900460ff16905090565b6000610e3861175d612eab565b8461114b856066600061176e612eab565b6001600160a01b03166001600160a01b031681526020019081526020016000206001600160a01b0389166000908152602091909152604090206117af6142bb565b90613990565b600060976117c16142bb565b906101000a90046001600160a01b03166001600160a01b03165a6117e3614316565b6001600160a01b0316146118355760405162461bcd60e51b815260206004820152600c60248201526b37b7363c9036b0b730b3b2b960a11b604482015260640160405180910390611832614250565b50505b8015156014609b6118446142bb565b906101000a900460ff16151514156118a45760405162461bcd60e51b8152602060048201526016602482015275199b1859c81b5d5cdd08189948191a5999995c995b9d60521b6044820152606401604051809103906118a1614250565b50505b610edd816139ef565b600080609e6118ba6142bb565b906101000a90046001600160a01b03166001600160a01b0316634501b0886040518163ffffffff1660e01b815260040160206040518083038186806118fd61435c565b1580156119125760008061190f614250565b50505b505a61191c6143a8565b505050505015801561193b573d6000803e3d6000611938614250565b50505b505050506040513d602081101561195a57600080611957614250565b50505b810190808051935050505090565b600060976119746142bb565b906101000a90046001600160a01b03166001600160a01b03165a611996614316565b6001600160a01b0316146119e85760405162461bcd60e51b815260206004820152600c60248201526b37b7363c9036b0b730b3b2b960a11b6044820152606401604051809103906119e5614250565b50505b60005b8151811015611a3d57611a10828281518110611a0357fe5b6020026020010151612953565b611a1957611a35565b611a35828281518110611a2857fe5b6020026020010151612fde565b6001016119eb565b5050565b6000611a4b611ed7565b6001600160a01b03165a611a5d614316565b6001600160a01b03161480611a8557506014609b611a796142bb565b906101000a900460ff16155b80611a9c5750611a9c5a611a97614316565b612953565b611aec5760405162461bcd60e51b81526020600482015260146024820152731bdb9b1e481b595b58995c9cc8185b1b1bddd95960621b604482015260640160405180910390611ae9614250565b50505b5a611af5614559565b60a060005a611b02614316565b6001600160a01b03166001600160a01b031681526020019081526020016000208190611b2c61459f565b505050611b3761339d565b6000611b41612686565b90506000611b4d610f02565b9050846001600160a01b03166323b872dd5a611b67614316565b5a63996d79a5598160e01b8152602081600483336000905af158600e01573d6000803e3d6000fd5b3d6001141558600a015760016000f35b8051925060005b6040811015611bbd57600082820152602001611ba6565b505050876040516001600160e01b031960e086901b1681526001600160a01b039384166004820152919092166024820152604481019190915260640160206040518083038160008780611c0e61435c565b158015611c2357600080611c20614250565b50505b505a611c2d614493565b505050505050158015611c4d573d6000803e3d6000611c4a614250565b50505b505050506040513d6020811015611c6c57600080611c69614250565b50505b8101908080519250611cc89150505760405162461bcd60e51b81526020600482015260156024820152741d1bdad95b881d1c985b9cd9995c8819985a5b1959605a1b604482015260640160405180910390611cc5614250565b50505b60008060a1611cd56142bb565b906101000a90046001600160a01b03166001600160a01b03166329c07fba87876040516001600160e01b031960e085901b1681526001600160a01b03909216600483015260248201526044016020604051808303818680611d3461435c565b158015611d4957600080611d46614250565b50505b505a611d536143a8565b5050505050158015611d72573d6000803e3d6000611d6f614250565b50505b505050506040513d6020811015611d9157600080611d8e614250565b50505b8101908080519350600092505083159050611dbb57611db48461126984866137ce565b9050611dbe565b50805b611dd05a611dca614316565b82613a50565b7f87fdcba84e083ebb8fd661bbafee3eb38764ec6f0cbeea8ed52deffa67bd45dc5a63996d79a5598160e01b8152602081600483336000905af158600e01573d6000803e3d6000fd5b3d6001141558600a015760016000f35b8051925060005b6040811015611e4757600082820152602001611e30565b5050505a611e53614316565b8484611e615a611182614316565b611e6b8a89613990565b611e758a89613990565b5a611e7e614559565b6040516001600160a01b0398891681529690971660208701526040808701959095526060860193909352608085019190915260a084015260c083015260e082019290925261010001905180910390a19695505050505050565b6000806097610eed6142bb565b60006097611ef06142bb565b906101000a90046001600160a01b03166001600160a01b03165a611f12614316565b6001600160a01b031614611f645760405162461bcd60e51b815260206004820152600c60248201526b37b7363c9036b0b730b3b2b960a11b604482015260640160405180910390611f61614250565b50505b816097600181611f726142bb565b816001600160a01b0302191690836001600160a01b0316021790611f9461459f565b505050806098908051611fab9291602001906145ed565b507f6ed15082ad038474841528b5badca105106d4463e44b5d434130dfb299aa366982826040516001600160a01b038316815260406020820181815290820183818151815260200191508051906020019080838360005b8381101561201a578082015183820152602001612002565b50505050905090810190601f1680156120475780820380516001836020036101000a031916815260200191505b50935050505060405180910390a15050565b6014609b6120656142bb565b906101000a900460ff1681565b6000609761207e6142bb565b906101000a90046001600160a01b03166001600160a01b03165a6120a0614316565b6001600160a01b0316146120f25760405162461bcd60e51b815260206004820152600c60248201526b37b7363c9036b0b730b3b2b960a11b6044820152606401604051809103906120ef614250565b50505b60005b8151811015611a3d5761210d828281518110611a0357fe5b1561211757612133565b61213382828151811061212657fe5b6020026020010151613b69565b6001016120f5565b6001600160a01b038116600090815260656020526040812061215b6142bb565b90505b919050565b60008080609e6121716142bb565b906101000a90046001600160a01b03166001600160a01b0316631d68702d6040518163ffffffff1660e01b815260040160206040518083038186806121b461435c565b1580156121c9576000806121c6614250565b50505b505a6121d36143a8565b50505050501580156121f2573d6000803e3d60006121ef614250565b50505b505050506040513d60208110156122115760008061220e614250565b50505b8101908080519350506001600160a01b0383169150505a612230614316565b6001600160a01b0316146122935760405162461bcd60e51b815260206004820152601860248201527f6f6e6c792044414f206164647265737320616c6c6f7765640000000000000000604482015260640160405180910390612290614250565b50505b8260a16001816122a16142bb565b816001600160a01b0302191690836001600160a01b03160217906122c361459f565b5050507f63fb64c359a4cae97e1bf003c1ab11390b5f0e18cc5b3d67b90bd61c0f5c52fd835a6122f1614316565b6040516001600160a01b039283168152911660208201526040908101905180910390a150600192915050565b609f6111726142bb565b600060976123336142bb565b906101000a90046001600160a01b03166001600160a01b03165a612355614316565b6001600160a01b0316146123a75760405162461bcd60e51b815260206004820152600c60248201526b37b7363c9036b0b730b3b2b960a11b6044820152606401604051809103906123a4614250565b50505b6000609b6001816123b66142bb565b816001600160a01b0302191690836001600160a01b03160217906123d861459f565b505050565b6000806123e8612686565b905060006123f4610f02565b90506124008282613bf5565b9250505090565b60606069806124146142bb565b600181600116156101000203166002900480601f01602080910402602001604051908101604052818152919060208301828061244e6142bb565b60018160011615610100020316600290048015610e1a5780601f1061247a576101008083610dda6142bb565b820191906000526020600020905b816124916142bb565b8152906001019060200180831161248857509395945050505050565b60606099806124ba6142bb565b8060200260200160405190810160405281815291906020830182806124dd6142bb565b8015610e1a57602002820191906000526020600020905b6000826124ff6142bb565b906101000a90046001600160a01b03166001600160a01b0316815260200190600101908083116124f4575050505050905090565b60006099806125406142bb565b91505090565b6000610e38612553612eab565b8461114b8560405160608101604052602580825261481b60208301396066600061257b612eab565b6001600160a01b03166001600160a01b031681526020019081526020016000206001600160a01b038a166000908152602091909152604090206111446142bb565b600060976125c86142bb565b906101000a90046001600160a01b03166001600160a01b03165a6125ea614316565b6001600160a01b03161461263c5760405162461bcd60e51b815260206004820152600c60248201526b37b7363c9036b0b730b3b2b960a11b604482015260640160405180910390612639614250565b50505b80609b60018161264a6142bb565b816001600160a01b0302191690836001600160a01b031602179061266c61459f565b50505050565b6000610e3861267f612eab565b848461315f565b600080808060a16126956142bb565b906101000a90046001600160a01b031690506060816001600160a01b031663e5406dbf6040518163ffffffff1660e01b815260040160006040518083038186806126dd61435c565b1580156126f2576000806126ef614250565b50505b505a6126fc6143a8565b505050505015801561271b573d6000803e3d6000612718614250565b50505b505050506040513d6000823e601f3d908101601f19168201604052602081101561274d5760008061274a614250565b50505b8101908080516040519392919084600160201b82111561277557600080612772614250565b50505b90830190602082018581111561279357600080612790614250565b50505b82518660208202830111600160201b821117156127b8576000806127b5614250565b50505b825250602001908051906020019060200280838360005b838110156127e75780820151838201526020016127cf565b50505050905001604052505050905060008151905060005b818110156128df576128d5846001600160a01b031663d8af8ed485848151811061282557fe5b60200260200101516040516001600160e01b031960e084901b1681526001600160a01b039091166004820152602401602060405180830381868061286761435c565b15801561287c57600080612879614250565b50505b505a6128866143a8565b50505050501580156128a5573d6000803e3d60006128a2614250565b50505b505050506040513d60208110156128c4576000806128c1614250565b50505b810190808051899350915050613990565b94506001016127ff565b5092935050505090565b6000806128f46118ad565b6001600160a01b038416600090815260a060205290915061291b82604083206117af6142bb565b90505a612926614559565b8110156129385760009250505061215e565b61294b5a612944614559565b8290613c25565b949350505050565b6001600160a01b0381166000908152609a602052604081206129736142bb565b151592915050565b6000609e610d546142bb565b600060976129936142bb565b906101000a90046001600160a01b03166001600160a01b03165a6129b5614316565b6001600160a01b031614612a075760405162461bcd60e51b815260206004820152600c60248201526b37b7363c9036b0b730b3b2b960a11b604482015260640160405180910390612a04614250565b50505b612a1081612953565b15612a1a57610edd565b610edd81613b69565b612a2b61339d565b565b60016000612a396142bb565b906101000a900460ff1680612a515750612a51613c65565b80612a6e5750600080612a626142bb565b906101000a900460ff16155b612ab25760405162461bcd60e51b815260040180806020018281038252602e815260200180614783602e913960400191505060405180910390612aaf614250565b50505b6000600181612abf6142bb565b906101000a900460ff161590508015612b25576001600061010081612ae26142bb565b8160ff02191690831515021790612af761459f565b50505060016000806101000a81612b0c6142bb565b8160ff02191690831515021790612b2161459f565b5050505b612b2f8484613cd6565b612b398686613e0a565b87609e600181612b476142bb565b816001600160a01b0302191690836001600160a01b0316021790612b6961459f565b505050612b75876139ef565b5a612b7e614316565b609c600181612b8b6142bb565b816001600160a01b0302191690836001600160a01b0316021790612bad61459f565b5050505a612bb9614559565b80609d612bc461459f565b505050670de0b6b3a7640000609f8190612bdc61459f565b5050508160a160006101000a81612bf16142bb565b816001600160a01b0302191690836001600160a01b0316021790612c1361459f565b5050508015612c445760008061010081612c2b6142bb565b8160ff02191690831515021790612c4061459f565b5050505b5050505050505050565b609d6111726142bb565b6001600160a01b03821660009081526066602052604081206001600160a01b038316600090815260209190915260409020612c916142bb565b9392505050565b600080612ca3612686565b90506000612caf610f02565b905060008080609e612cbf6142bb565b906101000a90046001600160a01b03166001600160a01b031663b7a545265a63996d79a5598160e01b8152602081600483336000905af158600e01573d6000803e3d6000fd5b3d6001141558600a015760016000f35b8051925060005b6040811015612d3357600082820152602001612d1c565b5050506040516001600160e01b031960e084901b1681526001600160a01b03909116600482015260240160408051808303818680612d6f61435c565b158015612d8457600080612d81614250565b50505b505a612d8e6143a8565b5050505050158015612dad573d6000803e3d6000612daa614250565b50505b505050506040513d6040811015612dcc57600080612dc9614250565b50505b8101908080519291906020018051939550929350612dfc9250869150859050609f612df56142bb565b8585613e51565b94505050505090565b6060609880612e126142bb565b600181600116156101000203166002900480601f016020809104026020016040519081016040528181529190602083018280612e4c6142bb565b60018160011615610100020316600290048015610e1a5780601f10612e78576101008083610dda6142bb565b820191906000526020600020905b81612e8f6142bb565b81529060010190602001808311612e8657509395945050505050565b60005a610f0e614316565b6001600160a01b038316612f045760405162461bcd60e51b81526004018080602001828103825260248152602001806147f76024913960400191505060405180910390612f01614250565b50505b6001600160a01b038216612f525760405162461bcd60e51b81526004018080602001828103825260228152602001806146f26022913960400191505060405180910390612f4f614250565b50505b6001600160a01b038316600090815260666020528190604090206001600160a01b0384166000908152602091909152604090208190612f8f61459f565b505050816001600160a01b0316836001600160a01b03167f8c5be1e5ebec7d5bd14f71427d1e84f3dd0314c0f7b2291e5b200ac8c7c3b9258360405190815260200160405180910390a3505050565b6000609980612feb6142bb565b6001600160a01b0384166000908152609a602052909250905061301b6001604083206130156142bb565b90613c25565b90506000609961302c846001613c25565b816130356142bb565b811061303d57fe5b906000526020600020016000906130526142bb565b906101000a90046001600160a01b0316905080609983816130716142bb565b811061307957fe5b9060005260206000200160018161308e6142bb565b816001600160a01b0302191690836001600160a01b03160217906130b061459f565b506130c091508390506001613990565b6001600160a01b0382166000908152609a6020526040902081906130e261459f565b5050506001600160a01b0384166000908152609a60205260408120819061310761459f565b5050506099806131156142bb565b8061311c57fe5b600190038181906000526020600020016001816131376142bb565b906001600160a01b030219169061314c61459f565b50509061315761459f565b505050505050565b6001600160a01b0383166131ad5760405162461bcd60e51b81526004018080602001828103825260258152602001806147d260259139604001915050604051809103906131aa614250565b50505b6001600160a01b0382166131fb5760405162461bcd60e51b81526004018080602001828103825260238152602001806146ad60239139604001915050604051809103906131f8614250565b50505b613206838383613ec2565b6132418160405160608101604052602680825261471460208301396001600160a01b03861660009081526065602052604090206111446142bb565b6001600160a01b0384166000908152606560205260409020819061326361459f565b5050506001600160a01b0382166000908152606560205261328c908290604090206117af6142bb565b6001600160a01b038316600090815260656020526040902081906132ae61459f565b505050816001600160a01b0316836001600160a01b03167fddf252ad1be2c89b69c2b068fc378daa952ba7f163c4a11628f55a4df523b3ef8360405190815260200160405180910390a3505050565b600081848411156133955760405162461bcd60e51b81526004018080602001828103825283818151815260200191508051906020019080838360005b83811015613351578082015183820152602001613339565b50505050905090810190601f16801561337e5780820380516001836020036101000a031916815260200191505b509250505060405180910390613392614250565b50505b505050900390565b60006133a7612686565b905060006133b3610f02565b905060008080609e6133c36142bb565b906101000a90046001600160a01b03166001600160a01b031663b7a545265a63996d79a5598160e01b8152602081600483336000905af158600e01573d6000803e3d6000fd5b3d6001141558600a015760016000f35b8051925060005b604081101561343757600082820152602001613420565b5050506040516001600160e01b031960e084901b1681526001600160a01b0390911660048201526024016040805180830381868061347361435c565b15801561348857600080613485614250565b50505b505a6134926143a8565b50505050501580156134b1573d6000803e3d60006134ae614250565b50505b505050506040513d60408110156134d0576000806134cd614250565b50505b810190808051929190602001805193955092935060009250613502915086905085609f6134fb6142bb565b8686613e51565b90506064811015613517575050505050612a2b565b600080609e6135246142bb565b906101000a90046001600160a01b03166001600160a01b0316631d68702d6040518163ffffffff1660e01b8152600401602060405180830381868061356761435c565b15801561357c57600080613579614250565b50505b505a6135866143a8565b50505050501580156135a5573d6000803e3d60006135a2614250565b50505b505050506040513d60208110156135c4576000806135c1614250565b50505b810190808051935060009250829150819050609e6135e06142bb565b906101000a90046001600160a01b03166001600160a01b0316639cada6e46040518163ffffffff1660e01b81526004016040805180830381868061362261435c565b15801561363757600080613634614250565b50505b505a6136416143a8565b5050505050158015613660573d6000803e3d600061365d614250565b50505b505050506040513d604081101561367f5760008061367c614250565b50505b8101908080519291906020018051939550929350600092506136a9915083905061126987866137ce565b905060006136b78683613c25565b905081156136c9576136c98583613a50565b80156136da576136da611dca611ed7565b6136e48a8a613bf5565b80609f6136ef61459f565b5050507f755a8059d66d8d243bc9f6913f429a811f154599d0538bb0b6a2ac23f23d2ccd5a63996d79a5598160e01b8152602081600483336000905af158600e01573d6000803e3d6000fd5b3d6001141558600a015760016000f35b8051925060005b604081101561376957600082820152602001613752565b505050613774611ed7565b888585609f6137816142bb565b6040516001600160a01b0396871681529490951660208501526040808501939093526060840191909152608083015260a082019290925260c001905180910390a150505050505050505050565b6000826137dd57506000610e3c565b828202828482816137ea57fe5b0414612c915760405162461bcd60e51b815260040180806020018281038252602181526020018061473a602191396040019150506040518091039061382d614250565b50509392505050565b6000612c91838360405160408082019052601a81527f536166654d6174683a206469766973696f6e206279207a65726f0000000000006020820152613f26565b6001600160a01b0382166138c45760405162461bcd60e51b81526004018080602001828103825260218152602001806147b160219139604001915050604051809103906138c1614250565b50505b6138d082600083613ec2565b61390b816040516060810160405260228082526146d060208301396001600160a01b03851660009081526065602052604090206111446142bb565b6001600160a01b0383166000908152606560205260409020819061392d61459f565b50505061393e8160676130156142bb565b80606761394961459f565b5060009150506001600160a01b0383167fddf252ad1be2c89b69c2b068fc378daa952ba7f163c4a11628f55a4df523b3ef8360405190815260200160405180910390a35050565b600082820183811015612c915760405162461bcd60e51b815260206004820152601b60248201527f536166654d6174683a206164646974696f6e206f766572666c6f77000000000060448201526064016040518091039061382d614250565b80609b600160a01b81613a006142bb565b8160ff02191690831515021790613a1561459f565b5050507f8d75e9ede4188432084b863d70b3416010c97547dfeb4fc17734d2e997ee0f3981604051901515815260200160405180910390a150565b6001600160a01b038216613ab35760405162461bcd60e51b815260206004820152601f60248201527f45524332303a206d696e7420746f20746865207a65726f206164647265737300604482015260640160405180910390613ab0614250565b50505b613abf60008383613ec2565b613acd8160676117af6142bb565b806067613ad861459f565b5050506001600160a01b03821660009081526065602052613b01908290604090206117af6142bb565b6001600160a01b03831660009081526065602052604090208190613b2361459f565b5050506001600160a01b03821660007fddf252ad1be2c89b69c2b068fc378daa952ba7f163c4a11628f55a4df523b3ef8360405190815260200160405180910390a35050565b80609980600181613b786142bb565b018082613b8361459f565b505060009283526000190191602091502001600181613ba06142bb565b816001600160a01b0302191690836001600160a01b0316021790613bc261459f565b505050609980613bd06142bb565b6001600160a01b0383166000908152609a60205290915060409020819061266c61459f565b6000811580613c02575082155b15613c0f57506000610e3c565b612c918261126985670de0b6b3a76400006137ce565b6000612c91838360405160408082019052601e81527f536166654d6174683a207375627472616374696f6e206f766572666c6f77000060208201526132fd565b6000805a63996d79a5598160e01b8152602081600483336000905af158600e01573d6000803e3d6000fd5b3d6001141558600a015760016000f35b8051925060005b6040811015613cbe57600082820152602001613ca7565b5050509050600081613cce61435c565b159250505090565b60016000613ce26142bb565b906101000a900460ff1680613cfa5750613cfa613c65565b80613d175750600080613d0b6142bb565b906101000a900460ff16155b613d5b5760405162461bcd60e51b815260040180806020018281038252602e815260200180614783602e913960400191505060405180910390613d58614250565b50505b6000600181613d686142bb565b906101000a900460ff161590508015613dce576001600061010081613d8b6142bb565b8160ff02191690831515021790613da061459f565b50505060016000806101000a81613db56142bb565b8160ff02191690831515021790613dca61459f565b5050505b613dd6613fd1565b613de083836140f3565b80156123d85760008061010081613df56142bb565b8160ff0219169083151502179061315761459f565b816097600181613e186142bb565b816001600160a01b0302191690836001600160a01b0316021790613e3a61459f565b5050508060989080516123d89291602001906145ed565b6000841580613e5e575085155b15613e6b57506000613eb9565b6000613e838661126989670de0b6b3a76400006137ce565b9050848111613e96576000915050613eb9565b6000613eb482611269868189613eae8d81878f613c25565b906137ce565b925050505b95945050505050565b613ecd8383836123d8565b613ed6836128e9565b156123d85760405162461bcd60e51b815260206004820152600f60248201526e636f6f6c646f776e2061637469766560881b604482015260640160405180910390613f1f614250565b5050505050565b60008183613fbb5760405162461bcd60e51b81526004018080602001828103825283818151815260200191508051906020019080838360005b83811015613f77578082015183820152602001613f5f565b50505050905090810190601f168015613fa45780820380516001836020036101000a031916815260200191505b509250505060405180910390613fb8614250565b50505b506000838581613fc757fe5b0495945050505050565b60016000613fdd6142bb565b906101000a900460ff1680613ff55750613ff5613c65565b8061401257506000806140066142bb565b906101000a900460ff16155b6140565760405162461bcd60e51b815260040180806020018281038252602e815260200180614783602e913960400191505060405180910390614053614250565b50505b60006001816140636142bb565b906101000a900460ff1615905080156140c95760016000610100816140866142bb565b8160ff0219169083151502179061409b61459f565b50505060016000806101000a816140b06142bb565b8160ff021916908315150217906140c561459f565b5050505b8015610edd57600080610100816140de6142bb565b8160ff0219169083151502179061266c61459f565b600160006140ff6142bb565b906101000a900460ff16806141175750614117613c65565b8061413457506000806141286142bb565b906101000a900460ff16155b6141785760405162461bcd60e51b815260040180806020018281038252602e815260200180614783602e913960400191505060405180910390614175614250565b50505b60006001816141856142bb565b906101000a900460ff1615905080156141eb5760016000610100816141a86142bb565b8160ff021916908315150217906141bd61459f565b50505060016000806101000a816141d26142bb565b8160ff021916908315150217906141e761459f565b5050505b60688380516141fe9291602001906145ed565b5060698280516142129291602001906145ed565b506012606a6001816142226142bb565b8160ff021916908360ff1602179061423861459f565b50505080156123d85760008061010081613df56142bb565b632a2a7adb598160e01b8152600481016020815285602082015260005b8681101561428857808601518282016040015260200161426d565b506020828760640184336000905af158600e01573d6000803e3d6000fd5b3d6001141558600a015760016000f35b505050565b6303daa959598160e01b8152836004820152602081602483336000905af158600e01573d6000803e3d6000fd5b3d6001141558600a015760016000f35b8051935060005b60408110156123d8576000828201526020016142ff565b6373509064598160e01b8152602081600483336000905af158600e01573d6000803e3d6000fd5b3d6001141558600a015760016000f35b805160008252935060206142ff565b638435035b598160e01b8152836004820152602081602483336000905af158600e01573d6000803e3d6000fd5b3d6001141558600a015760016000f35b805160008252935060206142ff565b638540661f598160e01b81526143d9565b8080831115610e3c575090919050565b8080831015610e3c575090919050565b836004820152846024820152606060448201528660648201526084810160005b888110156144115780880151828201526020016143f9565b506060828960a40184336000905af158600e01573d6000803e3d6000fd5b3d6001141558600a015760016000f35b815160408301513d6000853e8b8b82606087013350600060045af150596144668d3d6143c9565b8c0161447281876143b9565b5b828110156144875760008152602001614473565b50929c50505050505050565b6385979f76598160e01b8152836004820152846024820152606060448201528760648201526084810160005b898110156144d75780890151828201526020016144bf565b506060828a60a40184336000905af158600e01573d6000803e3d6000fd5b3d6001141558600a015760016000f35b815160408301513d6000853e8c8c82606087013350600060045af1505961452c8e3d6143c9565b8d0161453881876143b9565b5b8281101561454d5760008152602001614539565b50929d50505050505050565b63bdbf8c36598160e01b8152602081600483336000905af158600e01573d6000803e3d6000fd5b3d6001141558600a015760016000f35b805160008252935060206142ff565b6322bd64c0598160e01b8152836004820152846024820152600081604483336000905af158600e01573d6000803e3d6000fd5b3d6001141558600a015760016000f35b6000815260206142ff565b82806145f76142bb565b600181600116156101000203166002900490600052602060002090601f016020900481019282601f1061463e57805160ff1916838001178561463761459f565b505061467d565b8280016001018561464d61459f565b5050821561467d579182015b8281111561467d5782518261466c61459f565b505091602001919060010190614659565b5061468992915061468d565b5090565b8082111561468957600080826146a161459f565b50505060010161468d56fe45524332303a207472616e7366657220746f20746865207a65726f206164647265737345524332303a206275726e20616d6f756e7420657863656564732062616c616e636545524332303a20617070726f766520746f20746865207a65726f206164647265737345524332303a207472616e7366657220616d6f756e7420657863656564732062616c616e6365536166654d6174683a206d756c7469706c69636174696f6e206f766572666c6f7745524332303a207472616e7366657220616d6f756e74206578636565647320616c6c6f77616e6365436f6e747261637420696e7374616e63652068617320616c7265616479206265656e20696e697469616c697a656445524332303a206275726e2066726f6d20746865207a65726f206164647265737345524332303a207472616e736665722066726f6d20746865207a65726f206164647265737345524332303a20617070726f76652066726f6d20746865207a65726f206164647265737345524332303a2064656372656173656420616c6c6f77616e63652062656c6f77207a65726f",
  "deployedBytecode": "0x608060405234801561001957600080610016614250565b50505b50600436106102725760003560e01c806370a082311161015a578063ad60ffcc116100cc578063cc3c6df611610090578063cc3c6df614610ac0578063cdfa79d214610ac8578063d8270dce14610cf9578063dd62ed3e14610d01578063edbf6f5014610d38578063fed4416a14610d4057610272565b8063ad60ffcc14610a23578063b8ea2b6e14610a2b578063bbbf725b14610a5a578063c45a015514610a89578063ca6d56dc14610a9157610272565b806395d89b411161011e57806395d89b411461091f5780639eab525314610927578063a30e3fa914610982578063a457c2d71461098a578063a6bc18f9146109bf578063a9059cbb146109ee57610272565b806370a08231146108a9578063750226de146108d85780637714f39d146109075780637c8afd511461090f5780637ff9b5961461091757610272565b80632e1a7d4d116101f357806346ee84b0116101b757806346ee84b01461060357806347e7ef24146106c8578063481c6a75146106fd578063522136631461070557806359b5e75e146107dc5780636f4d469b146107e457610272565b80632e1a7d4d1461055a578063313ce56714610580578063395093511461059e5780633babaad5146105d35780634501b088146105fb57610272565b806318160ddd1161023a57806318160ddd146103a55780631c5918d2146103bf5780631e50a4a6146104e457806323b872dd146104ec57806329d16ee81461052b57610272565b806302d05d3f1461028057806306fdde03146102a4578063095ea7b3146103235780630b1ca49a1461036c5780631758078b1461039d575b60008061027d614250565b50505b610288610d48565b6040516001600160a01b03909116815260200160405180910390f35b6102ac610d67565b60405160208082528190810183818151815260200191508051906020019080838360005b838110156102e85780820151838201526020016102d0565b50505050905090810190601f1680156103155780820380516001836020036101000a031916815260200191505b509250505060405180910390f35b610358600480360360408110156103425760008061033f614250565b50505b506001600160a01b038135169060200135610e24565b604051901515815260200160405180910390f35b61039b6004803603602081101561038b57600080610388614250565b50505b50356001600160a01b0316610e42565b005b610288610ee0565b6103ad610f02565b60405190815260200160405180910390f35b6103c7610f13565b60405180806020018a8152602001898152602001886001600160a01b0316815260200180602001878152602001861515815260200185815260200184815260200183810383528c818151815260200191508051906020019080838360005b8381101561043d578082015183820152602001610425565b50505050905090810190601f16801561046a5780820380516001836020036101000a031916815260200191505b50838103825288818151815260200191508051906020019080838360005b838110156104a0578082015183820152602001610488565b50505050905090810190601f1680156104cd5780820380516001836020036101000a031916815260200191505b509b50505050505050505050505060405180910390f35b6102886110ba565b6103586004803603606081101561050b57600080610508614250565b50505b506001600160a01b038135811691602081013590911690604001356110c6565b6103ad6004803603602081101561054a57600080610547614250565b50505b50356001600160a01b031661115a565b61039b6004803603602081101561057957600080610576614250565b50505b5035611175565b610588611734565b60405160ff909116815260200160405180910390f35b610358600480360360408110156105bd576000806105ba614250565b50505b506001600160a01b038135169060200135611750565b61039b600480360360208110156105f2576000806105ef614250565b50505b503515156117b5565b6103ad6118ad565b61039b600480360360208110156106225760008061061f614250565b50505b810190602081018135600160201b81111561064557600080610642614250565b50505b8201836020820111156106605760008061065d614250565b50505b803590602001918460208302840111600160201b8311171561068a57600080610687614250565b50505b919080806020026020016040519081016040528093929190818152602001838360200280828437600092019190915250929550611968945050505050565b6103ad600480360360408110156106e7576000806106e4614250565b50505b506001600160a01b038135169060200135611a41565b610288611ed7565b61039b6004803603604081101561072457600080610721614250565b50505b6001600160a01b038235169190810190604081016020820135600160201b81111561075757600080610754614250565b50505b8201836020820111156107725760008061076f614250565b50505b803590602001918460018302840111600160201b8311171561079c57600080610799614250565b50505b91908080601f0160208091040260200160405190810160405281815292919060208401838380828437600092019190915250929550611ee4945050505050565b610358612059565b61039b6004803603602081101561080357600080610800614250565b50505b810190602081018135600160201b81111561082657600080610823614250565b50505b8201836020820111156108415760008061083e614250565b50505b803590602001918460208302840111600160201b8311171561086b57600080610868614250565b50505b919080806020026020016040519081016040528093929190818152602001838360200280828437600092019190915250929550612072945050505050565b6103ad600480360360208110156108c8576000806108c5614250565b50505b50356001600160a01b031661213b565b610358600480360360208110156108f7576000806108f4614250565b50505b50356001600160a01b0316612163565b6103ad61231d565b61039b612327565b6103ad6123dd565b6102ac612407565b61092f6124ad565b60405160208082528190810183818151815260200191508051906020019060200280838360005b8381101561096e578082015183820152602001610956565b505050509050019250505060405180910390f35b6103ad612533565b610358600480360360408110156109a9576000806109a6614250565b50505b506001600160a01b038135169060200135612546565b61039b600480360360208110156109de576000806109db614250565b50505b50356001600160a01b03166125bc565b61035860048036036040811015610a0d57600080610a0a614250565b50505b506001600160a01b038135169060200135612672565b6103ad612686565b6103ad60048036036020811015610a4a57600080610a47614250565b50505b50356001600160a01b03166128e9565b61035860048036036020811015610a7957600080610a76614250565b50505b50356001600160a01b0316612953565b61028861297b565b61039b60048036036020811015610ab057600080610aad614250565b50505b50356001600160a01b0316612987565b61039b612a23565b61039b600480360360e0811015610ae757600080610ae4614250565b50505b6001600160a01b0382358116926020810135151592604082013590921691810190608081016060820135600160201b811115610b2b57600080610b28614250565b50505b820183602082011115610b4657600080610b43614250565b50505b803590602001918460018302840111600160201b83111715610b7057600080610b6d614250565b50505b91908080601f01602080910402602001604051908101604052818152929190602084018383808284376000920191909152509295949360208101935035915050600160201b811115610bca57600080610bc7614250565b50505b820183602082011115610be557600080610be2614250565b50505b803590602001918460018302840111600160201b83111715610c0f57600080610c0c614250565b50505b91908080601f01602080910402602001604051908101604052818152929190602084018383808284376000920191909152509295949360208101935035915050600160201b811115610c6957600080610c66614250565b50505b820183602082011115610c8457600080610c81614250565b50505b803590602001918460018302840111600160201b83111715610cae57600080610cab614250565b50505b91908080601f0160208091040260200160405190810160405281815292919060208401838380828437600092019190915250929550505090356001600160a01b03169150612a2d9050565b6103ad612c4e565b6103ad60048036036040811015610d2057600080610d1d614250565b50505b506001600160a01b0381358116916020013516612c58565b6103ad612c98565b6102ac612e05565b6000609c610d546142bb565b906101000a90046001600160a01b031681565b6060606880610d746142bb565b600181600116156101000203166002900480601f016020809104026020016040519081016040528181529190602083018280610dae6142bb565b60018160011615610100020316600290048015610e1a5780601f10610de8576101008083610dda6142bb565b040283529160200191610e1a565b820191906000526020600020905b81610dff6142bb565b81529060010190602001808311610df657829003601f168201915b5050505050905090565b6000610e38610e31612eab565b8484612eb6565b5060015b92915050565b60006097610e4e6142bb565b906101000a90046001600160a01b03166001600160a01b03165a610e70614316565b6001600160a01b031614610ec25760405162461bcd60e51b815260206004820152600c60248201526b37b7363c9036b0b730b3b2b960a11b604482015260640160405180910390610ebf614250565b50505b610ecb81612953565b610ed457610edd565b610edd81612fde565b50565b600080609b610eed6142bb565b906101000a90046001600160a01b0316905090565b60006067610f0e6142bb565b905090565b6060600080808381808080808080609e610f2b6142bb565b906101000a90046001600160a01b03166001600160a01b031663b7a545265a63996d79a5598160e01b8152602081600483336000905af158601d01573d60011458600c01573d6000803e3d621234565260ea61109c528051925060005b6040811015610f9f57600082820152602001610f88565b5050506040516001600160e01b031960e084901b1681526001600160a01b03909116600482015260240160408051808303818680610fdb61435c565b158015610ff057600080610fed614250565b50505b505a610ffa6143a8565b5050505050158015611019573d6000803e3d6000611016614250565b50505b505050506040513d604081101561103857600080611035614250565b50505b81019080805192919060200180519395509293506110599250610d67915050565b611061610f02565b611069612686565b611071611ed7565b611079612e05565b609d6110836142bb565b6014609b61108f6142bb565b906101000a900460ff1688889a509a509a509a509a509a509a509a509a505050909192939495969798565b600060a1610d546142bb565b60006110d384848461315f565b611150846110df612eab565b61114b8560405160608101604052602880825261475b60208301396001600160a01b038a166000908152606660205260409020600061111c612eab565b6001600160a01b03166001600160a01b031681526020019081526020016000206111446142bb565b91906132fd565b612eb6565b5060019392505050565b60a060205280600052604060002090506111726142bb565b81565b806111875a611182614316565b61213b565b10156111d95760405162461bcd60e51b8152602060048201526014602482015273696e73756666696369656e742062616c616e636560601b6044820152606401604051809103906111d6614250565b50505b6111ea5a6111e5614316565b6128e9565b156112365760405162461bcd60e51b815260206004820152600f60248201526e636f6f6c646f776e2061637469766560881b604482015260640160405180910390611233614250565b50505b61123e61339d565b6000611248612686565b9050600061126f611257610f02565b61126985670de0b6b3a76400006137ce565b90613836565b90506112835a61127d614316565b84613876565b60008060a16112906142bb565b906101000a90046001600160a01b031690506060816001600160a01b031663e5406dbf6040518163ffffffff1660e01b815260040160006040518083038186806112d861435c565b1580156112ed576000806112ea614250565b50505b505a6112f76143a8565b5050505050158015611316573d6000803e3d6000611313614250565b50505b505050506040513d6000823e601f3d908101601f19168201604052602081101561134857600080611345614250565b50505b8101908080516040519392919084600160201b8211156113705760008061136d614250565b50505b90830190602082018581111561138e5760008061138b614250565b50505b82518660208202830111600160201b821117156113b3576000806113b0614250565b50505b825250602001908051906020019060200280838360005b838110156113e25780820151838201526020016113ca565b50505050905001604052505050905060008151905060005b8181101561161757600083828151811061141057fe5b602002602001015190506000816001600160a01b03166370a082315a63996d79a5598160e01b8152602081600483336000905af158601d01573d60011458600c01573d6000803e3d621234565260ea61109c528051925060005b60408110156114815760008282015260200161146a565b5050506040516001600160e01b031960e084901b1681526001600160a01b03909116600482015260240160206040518083038186806114be61435c565b1580156114d3576000806114d0614250565b50505b505a6114dd6143a8565b50505050501580156114fc573d6000803e3d60006114f9614250565b50505b505050506040513d602081101561151b57600080611518614250565b50505b8101908080519350600092506115419150670de0b6b3a76400009050611269848b6137ce565b9050801561160c57826001600160a01b031663a9059cbb5a611561614316565b836040516001600160e01b031960e085901b1681526001600160a01b0390921660048301526024820152604401602060405180830381600087806115a361435c565b1580156115b8576000806115b5614250565b50505b505a6115c2614493565b5050505050501580156115e2573d6000803e3d60006115df614250565b50505b505050506040513d6020811015611601576000806115fe614250565b50505b810190808051505050505b5050506001016113fa565b506000611630670de0b6b3a764000061126987896137ce565b90507f79d44cc8beeed36226f14818b2ecaca7ef252bcd56c9ae35f5a86869dbdefb975a63996d79a5598160e01b8152602081600483336000905af158601d01573d60011458600c01573d6000803e3d621234565260ea61109c528051925060005b60408110156116a957600082820152602001611692565b5050505a6116b5614316565b838a6116c35a611182614316565b6116cb612686565b6116d3610f02565b5a6116dc614559565b6040516001600160a01b0398891681529690971660208701526040808701959095526060860193909352608085019190915260a084015260c083015260e082019290925261010001905180910390a150505050505050565b600080606a6117416142bb565b906101000a900460ff16905090565b6000610e3861175d612eab565b8461114b856066600061176e612eab565b6001600160a01b03166001600160a01b031681526020019081526020016000206001600160a01b0389166000908152602091909152604090206117af6142bb565b90613990565b600060976117c16142bb565b906101000a90046001600160a01b03166001600160a01b03165a6117e3614316565b6001600160a01b0316146118355760405162461bcd60e51b815260206004820152600c60248201526b37b7363c9036b0b730b3b2b960a11b604482015260640160405180910390611832614250565b50505b8015156014609b6118446142bb565b906101000a900460ff16151514156118a45760405162461bcd60e51b8152602060048201526016602482015275199b1859c81b5d5cdd08189948191a5999995c995b9d60521b6044820152606401604051809103906118a1614250565b50505b610edd816139ef565b600080609e6118ba6142bb565b906101000a90046001600160a01b03166001600160a01b0316634501b0886040518163ffffffff1660e01b815260040160206040518083038186806118fd61435c565b1580156119125760008061190f614250565b50505b505a61191c6143a8565b505050505015801561193b573d6000803e3d6000611938614250565b50505b505050506040513d602081101561195a57600080611957614250565b50505b810190808051935050505090565b600060976119746142bb565b906101000a90046001600160a01b03166001600160a01b03165a611996614316565b6001600160a01b0316146119e85760405162461bcd60e51b815260206004820152600c60248201526b37b7363c9036b0b730b3b2b960a11b6044820152606401604051809103906119e5614250565b50505b60005b8151811015611a3d57611a10828281518110611a0357fe5b6020026020010151612953565b611a1957611a35565b611a35828281518110611a2857fe5b6020026020010151612fde565b6001016119eb565b5050565b6000611a4b611ed7565b6001600160a01b03165a611a5d614316565b6001600160a01b03161480611a8557506014609b611a796142bb565b906101000a900460ff16155b80611a9c5750611a9c5a611a97614316565b612953565b611aec5760405162461bcd60e51b81526020600482015260146024820152731bdb9b1e481b595b58995c9cc8185b1b1bddd95960621b604482015260640160405180910390611ae9614250565b50505b5a611af5614559565b60a060005a611b02614316565b6001600160a01b03166001600160a01b031681526020019081526020016000208190611b2c61459f565b505050611b3761339d565b6000611b41612686565b90506000611b4d610f02565b9050846001600160a01b03166323b872dd5a611b67614316565b5a63996d79a5598160e01b8152602081600483336000905af158601d01573d60011458600c01573d6000803e3d621234565260ea61109c528051925060005b6040811015611bbd57600082820152602001611ba6565b505050876040516001600160e01b031960e086901b1681526001600160a01b039384166004820152919092166024820152604481019190915260640160206040518083038160008780611c0e61435c565b158015611c2357600080611c20614250565b50505b505a611c2d614493565b505050505050158015611c4d573d6000803e3d6000611c4a614250565b50505b505050506040513d6020811015611c6c57600080611c69614250565b50505b8101908080519250611cc89150505760405162461bcd60e51b81526020600482015260156024820152741d1bdad95b881d1c985b9cd9995c8819985a5b1959605a1b604482015260640160405180910390611cc5614250565b50505b60008060a1611cd56142bb565b906101000a90046001600160a01b03166001600160a01b03166329c07fba87876040516001600160e01b031960e085901b1681526001600160a01b03909216600483015260248201526044016020604051808303818680611d3461435c565b158015611d4957600080611d46614250565b50505b505a611d536143a8565b5050505050158015611d72573d6000803e3d6000611d6f614250565b50505b505050506040513d6020811015611d9157600080611d8e614250565b50505b8101908080519350600092505083159050611dbb57611db48461126984866137ce565b9050611dbe565b50805b611dd05a611dca614316565b82613a50565b7f87fdcba84e083ebb8fd661bbafee3eb38764ec6f0cbeea8ed52deffa67bd45dc5a63996d79a5598160e01b8152602081600483336000905af158601d01573d60011458600c01573d6000803e3d621234565260ea61109c528051925060005b6040811015611e4757600082820152602001611e30565b5050505a611e53614316565b8484611e615a611182614316565b611e6b8a89613990565b611e758a89613990565b5a611e7e614559565b6040516001600160a01b0398891681529690971660208701526040808701959095526060860193909352608085019190915260a084015260c083015260e082019290925261010001905180910390a19695505050505050565b6000806097610eed6142bb565b60006097611ef06142bb565b906101000a90046001600160a01b03166001600160a01b03165a611f12614316565b6001600160a01b031614611f645760405162461bcd60e51b815260206004820152600c60248201526b37b7363c9036b0b730b3b2b960a11b604482015260640160405180910390611f61614250565b50505b816097600181611f726142bb565b816001600160a01b0302191690836001600160a01b0316021790611f9461459f565b505050806098908051611fab9291602001906145ed565b507f6ed15082ad038474841528b5badca105106d4463e44b5d434130dfb299aa366982826040516001600160a01b038316815260406020820181815290820183818151815260200191508051906020019080838360005b8381101561201a578082015183820152602001612002565b50505050905090810190601f1680156120475780820380516001836020036101000a031916815260200191505b50935050505060405180910390a15050565b6014609b6120656142bb565b906101000a900460ff1681565b6000609761207e6142bb565b906101000a90046001600160a01b03166001600160a01b03165a6120a0614316565b6001600160a01b0316146120f25760405162461bcd60e51b815260206004820152600c60248201526b37b7363c9036b0b730b3b2b960a11b6044820152606401604051809103906120ef614250565b50505b60005b8151811015611a3d5761210d828281518110611a0357fe5b1561211757612133565b61213382828151811061212657fe5b6020026020010151613b69565b6001016120f5565b6001600160a01b038116600090815260656020526040812061215b6142bb565b90505b919050565b60008080609e6121716142bb565b906101000a90046001600160a01b03166001600160a01b0316631d68702d6040518163ffffffff1660e01b815260040160206040518083038186806121b461435c565b1580156121c9576000806121c6614250565b50505b505a6121d36143a8565b50505050501580156121f2573d6000803e3d60006121ef614250565b50505b505050506040513d60208110156122115760008061220e614250565b50505b8101908080519350506001600160a01b0383169150505a612230614316565b6001600160a01b0316146122935760405162461bcd60e51b815260206004820152601860248201527f6f6e6c792044414f206164647265737320616c6c6f7765640000000000000000604482015260640160405180910390612290614250565b50505b8260a16001816122a16142bb565b816001600160a01b0302191690836001600160a01b03160217906122c361459f565b5050507f63fb64c359a4cae97e1bf003c1ab11390b5f0e18cc5b3d67b90bd61c0f5c52fd835a6122f1614316565b6040516001600160a01b039283168152911660208201526040908101905180910390a150600192915050565b609f6111726142bb565b600060976123336142bb565b906101000a90046001600160a01b03166001600160a01b03165a612355614316565b6001600160a01b0316146123a75760405162461bcd60e51b815260206004820152600c60248201526b37b7363c9036b0b730b3b2b960a11b6044820152606401604051809103906123a4614250565b50505b6000609b6001816123b66142bb565b816001600160a01b0302191690836001600160a01b03160217906123d861459f565b505050565b6000806123e8612686565b905060006123f4610f02565b90506124008282613bf5565b9250505090565b60606069806124146142bb565b600181600116156101000203166002900480601f01602080910402602001604051908101604052818152919060208301828061244e6142bb565b60018160011615610100020316600290048015610e1a5780601f1061247a576101008083610dda6142bb565b820191906000526020600020905b816124916142bb565b8152906001019060200180831161248857509395945050505050565b60606099806124ba6142bb565b8060200260200160405190810160405281815291906020830182806124dd6142bb565b8015610e1a57602002820191906000526020600020905b6000826124ff6142bb565b906101000a90046001600160a01b03166001600160a01b0316815260200190600101908083116124f4575050505050905090565b60006099806125406142bb565b91505090565b6000610e38612553612eab565b8461114b8560405160608101604052602580825261481b60208301396066600061257b612eab565b6001600160a01b03166001600160a01b031681526020019081526020016000206001600160a01b038a166000908152602091909152604090206111446142bb565b600060976125c86142bb565b906101000a90046001600160a01b03166001600160a01b03165a6125ea614316565b6001600160a01b03161461263c5760405162461bcd60e51b815260206004820152600c60248201526b37b7363c9036b0b730b3b2b960a11b604482015260640160405180910390612639614250565b50505b80609b60018161264a6142bb565b816001600160a01b0302191690836001600160a01b031602179061266c61459f565b50505050565b6000610e3861267f612eab565b848461315f565b600080808060a16126956142bb565b906101000a90046001600160a01b031690506060816001600160a01b031663e5406dbf6040518163ffffffff1660e01b815260040160006040518083038186806126dd61435c565b1580156126f2576000806126ef614250565b50505b505a6126fc6143a8565b505050505015801561271b573d6000803e3d6000612718614250565b50505b505050506040513d6000823e601f3d908101601f19168201604052602081101561274d5760008061274a614250565b50505b8101908080516040519392919084600160201b82111561277557600080612772614250565b50505b90830190602082018581111561279357600080612790614250565b50505b82518660208202830111600160201b821117156127b8576000806127b5614250565b50505b825250602001908051906020019060200280838360005b838110156127e75780820151838201526020016127cf565b50505050905001604052505050905060008151905060005b818110156128df576128d5846001600160a01b031663d8af8ed485848151811061282557fe5b60200260200101516040516001600160e01b031960e084901b1681526001600160a01b039091166004820152602401602060405180830381868061286761435c565b15801561287c57600080612879614250565b50505b505a6128866143a8565b50505050501580156128a5573d6000803e3d60006128a2614250565b50505b505050506040513d60208110156128c4576000806128c1614250565b50505b810190808051899350915050613990565b94506001016127ff565b5092935050505090565b6000806128f46118ad565b6001600160a01b038416600090815260a060205290915061291b82604083206117af6142bb565b90505a612926614559565b8110156129385760009250505061215e565b61294b5a612944614559565b8290613c25565b949350505050565b6001600160a01b0381166000908152609a602052604081206129736142bb565b151592915050565b6000609e610d546142bb565b600060976129936142bb565b906101000a90046001600160a01b03166001600160a01b03165a6129b5614316565b6001600160a01b031614612a075760405162461bcd60e51b815260206004820152600c60248201526b37b7363c9036b0b730b3b2b960a11b604482015260640160405180910390612a04614250565b50505b612a1081612953565b15612a1a57610edd565b610edd81613b69565b612a2b61339d565b565b60016000612a396142bb565b906101000a900460ff1680612a515750612a51613c65565b80612a6e5750600080612a626142bb565b906101000a900460ff16155b612ab25760405162461bcd60e51b815260040180806020018281038252602e815260200180614783602e913960400191505060405180910390612aaf614250565b50505b6000600181612abf6142bb565b906101000a900460ff161590508015612b25576001600061010081612ae26142bb565b8160ff02191690831515021790612af761459f565b50505060016000806101000a81612b0c6142bb565b8160ff02191690831515021790612b2161459f565b5050505b612b2f8484613cd6565b612b398686613e0a565b87609e600181612b476142bb565b816001600160a01b0302191690836001600160a01b0316021790612b6961459f565b505050612b75876139ef565b5a612b7e614316565b609c600181612b8b6142bb565b816001600160a01b0302191690836001600160a01b0316021790612bad61459f565b5050505a612bb9614559565b80609d612bc461459f565b505050670de0b6b3a7640000609f8190612bdc61459f565b5050508160a160006101000a81612bf16142bb565b816001600160a01b0302191690836001600160a01b0316021790612c1361459f565b5050508015612c445760008061010081612c2b6142bb565b8160ff02191690831515021790612c4061459f565b5050505b5050505050505050565b609d6111726142bb565b6001600160a01b03821660009081526066602052604081206001600160a01b038316600090815260209190915260409020612c916142bb565b9392505050565b600080612ca3612686565b90506000612caf610f02565b905060008080609e612cbf6142bb565b906101000a90046001600160a01b03166001600160a01b031663b7a545265a63996d79a5598160e01b8152602081600483336000905af158601d01573d60011458600c01573d6000803e3d621234565260ea61109c528051925060005b6040811015612d3357600082820152602001612d1c565b5050506040516001600160e01b031960e084901b1681526001600160a01b03909116600482015260240160408051808303818680612d6f61435c565b158015612d8457600080612d81614250565b50505b505a612d8e6143a8565b5050505050158015612dad573d6000803e3d6000612daa614250565b50505b505050506040513d6040811015612dcc57600080612dc9614250565b50505b8101908080519291906020018051939550929350612dfc9250869150859050609f612df56142bb565b8585613e51565b94505050505090565b6060609880612e126142bb565b600181600116156101000203166002900480601f016020809104026020016040519081016040528181529190602083018280612e4c6142bb565b60018160011615610100020316600290048015610e1a5780601f10612e78576101008083610dda6142bb565b820191906000526020600020905b81612e8f6142bb565b81529060010190602001808311612e8657509395945050505050565b60005a610f0e614316565b6001600160a01b038316612f045760405162461bcd60e51b81526004018080602001828103825260248152602001806147f76024913960400191505060405180910390612f01614250565b50505b6001600160a01b038216612f525760405162461bcd60e51b81526004018080602001828103825260228152602001806146f26022913960400191505060405180910390612f4f614250565b50505b6001600160a01b038316600090815260666020528190604090206001600160a01b0384166000908152602091909152604090208190612f8f61459f565b505050816001600160a01b0316836001600160a01b03167f8c5be1e5ebec7d5bd14f71427d1e84f3dd0314c0f7b2291e5b200ac8c7c3b9258360405190815260200160405180910390a3505050565b6000609980612feb6142bb565b6001600160a01b0384166000908152609a602052909250905061301b6001604083206130156142bb565b90613c25565b90506000609961302c846001613c25565b816130356142bb565b811061303d57fe5b906000526020600020016000906130526142bb565b906101000a90046001600160a01b0316905080609983816130716142bb565b811061307957fe5b9060005260206000200160018161308e6142bb565b816001600160a01b0302191690836001600160a01b03160217906130b061459f565b506130c091508390506001613990565b6001600160a01b0382166000908152609a6020526040902081906130e261459f565b5050506001600160a01b0384166000908152609a60205260408120819061310761459f565b5050506099806131156142bb565b8061311c57fe5b600190038181906000526020600020016001816131376142bb565b906001600160a01b030219169061314c61459f565b50509061315761459f565b505050505050565b6001600160a01b0383166131ad5760405162461bcd60e51b81526004018080602001828103825260258152602001806147d260259139604001915050604051809103906131aa614250565b50505b6001600160a01b0382166131fb5760405162461bcd60e51b81526004018080602001828103825260238152602001806146ad60239139604001915050604051809103906131f8614250565b50505b613206838383613ec2565b6132418160405160608101604052602680825261471460208301396001600160a01b03861660009081526065602052604090206111446142bb565b6001600160a01b0384166000908152606560205260409020819061326361459f565b5050506001600160a01b0382166000908152606560205261328c908290604090206117af6142bb565b6001600160a01b038316600090815260656020526040902081906132ae61459f565b505050816001600160a01b0316836001600160a01b03167fddf252ad1be2c89b69c2b068fc378daa952ba7f163c4a11628f55a4df523b3ef8360405190815260200160405180910390a3505050565b600081848411156133955760405162461bcd60e51b81526004018080602001828103825283818151815260200191508051906020019080838360005b83811015613351578082015183820152602001613339565b50505050905090810190601f16801561337e5780820380516001836020036101000a031916815260200191505b509250505060405180910390613392614250565b50505b505050900390565b60006133a7612686565b905060006133b3610f02565b905060008080609e6133c36142bb565b906101000a90046001600160a01b03166001600160a01b031663b7a545265a63996d79a5598160e01b8152602081600483336000905af158601d01573d60011458600c01573d6000803e3d621234565260ea61109c528051925060005b604081101561343757600082820152602001613420565b5050506040516001600160e01b031960e084901b1681526001600160a01b0390911660048201526024016040805180830381868061347361435c565b15801561348857600080613485614250565b50505b505a6134926143a8565b50505050501580156134b1573d6000803e3d60006134ae614250565b50505b505050506040513d60408110156134d0576000806134cd614250565b50505b810190808051929190602001805193955092935060009250613502915086905085609f6134fb6142bb565b8686613e51565b90506064811015613517575050505050612a2b565b600080609e6135246142bb565b906101000a90046001600160a01b03166001600160a01b0316631d68702d6040518163ffffffff1660e01b8152600401602060405180830381868061356761435c565b15801561357c57600080613579614250565b50505b505a6135866143a8565b50505050501580156135a5573d6000803e3d60006135a2614250565b50505b505050506040513d60208110156135c4576000806135c1614250565b50505b810190808051935060009250829150819050609e6135e06142bb565b906101000a90046001600160a01b03166001600160a01b0316639cada6e46040518163ffffffff1660e01b81526004016040805180830381868061362261435c565b15801561363757600080613634614250565b50505b505a6136416143a8565b5050505050158015613660573d6000803e3d600061365d614250565b50505b505050506040513d604081101561367f5760008061367c614250565b50505b8101908080519291906020018051939550929350600092506136a9915083905061126987866137ce565b905060006136b78683613c25565b905081156136c9576136c98583613a50565b80156136da576136da611dca611ed7565b6136e48a8a613bf5565b80609f6136ef61459f565b5050507f755a8059d66d8d243bc9f6913f429a811f154599d0538bb0b6a2ac23f23d2ccd5a63996d79a5598160e01b8152602081600483336000905af158601d01573d60011458600c01573d6000803e3d621234565260ea61109c528051925060005b604081101561376957600082820152602001613752565b505050613774611ed7565b888585609f6137816142bb565b6040516001600160a01b0396871681529490951660208501526040808501939093526060840191909152608083015260a082019290925260c001905180910390a150505050505050505050565b6000826137dd57506000610e3c565b828202828482816137ea57fe5b0414612c915760405162461bcd60e51b815260040180806020018281038252602181526020018061473a602191396040019150506040518091039061382d614250565b50509392505050565b6000612c91838360405160408082019052601a81527f536166654d6174683a206469766973696f6e206279207a65726f0000000000006020820152613f26565b6001600160a01b0382166138c45760405162461bcd60e51b81526004018080602001828103825260218152602001806147b160219139604001915050604051809103906138c1614250565b50505b6138d082600083613ec2565b61390b816040516060810160405260228082526146d060208301396001600160a01b03851660009081526065602052604090206111446142bb565b6001600160a01b0383166000908152606560205260409020819061392d61459f565b50505061393e8160676130156142bb565b80606761394961459f565b5060009150506001600160a01b0383167fddf252ad1be2c89b69c2b068fc378daa952ba7f163c4a11628f55a4df523b3ef8360405190815260200160405180910390a35050565b600082820183811015612c915760405162461bcd60e51b815260206004820152601b60248201527f536166654d6174683a206164646974696f6e206f766572666c6f77000000000060448201526064016040518091039061382d614250565b80609b600160a01b81613a006142bb565b8160ff02191690831515021790613a1561459f565b5050507f8d75e9ede4188432084b863d70b3416010c97547dfeb4fc17734d2e997ee0f3981604051901515815260200160405180910390a150565b6001600160a01b038216613ab35760405162461bcd60e51b815260206004820152601f60248201527f45524332303a206d696e7420746f20746865207a65726f206164647265737300604482015260640160405180910390613ab0614250565b50505b613abf60008383613ec2565b613acd8160676117af6142bb565b806067613ad861459f565b5050506001600160a01b03821660009081526065602052613b01908290604090206117af6142bb565b6001600160a01b03831660009081526065602052604090208190613b2361459f565b5050506001600160a01b03821660007fddf252ad1be2c89b69c2b068fc378daa952ba7f163c4a11628f55a4df523b3ef8360405190815260200160405180910390a35050565b80609980600181613b786142bb565b018082613b8361459f565b505060009283526000190191602091502001600181613ba06142bb565b816001600160a01b0302191690836001600160a01b0316021790613bc261459f565b505050609980613bd06142bb565b6001600160a01b0383166000908152609a60205290915060409020819061266c61459f565b6000811580613c02575082155b15613c0f57506000610e3c565b612c918261126985670de0b6b3a76400006137ce565b6000612c91838360405160408082019052601e81527f536166654d6174683a207375627472616374696f6e206f766572666c6f77000060208201526132fd565b6000805a63996d79a5598160e01b8152602081600483336000905af158601d01573d60011458600c01573d6000803e3d621234565260ea61109c528051925060005b6040811015613cbe57600082820152602001613ca7565b5050509050600081613cce61435c565b159250505090565b60016000613ce26142bb565b906101000a900460ff1680613cfa5750613cfa613c65565b80613d175750600080613d0b6142bb565b906101000a900460ff16155b613d5b5760405162461bcd60e51b815260040180806020018281038252602e815260200180614783602e913960400191505060405180910390613d58614250565b50505b6000600181613d686142bb565b906101000a900460ff161590508015613dce576001600061010081613d8b6142bb565b8160ff02191690831515021790613da061459f565b50505060016000806101000a81613db56142bb565b8160ff02191690831515021790613dca61459f565b5050505b613dd6613fd1565b613de083836140f3565b80156123d85760008061010081613df56142bb565b8160ff0219169083151502179061315761459f565b816097600181613e186142bb565b816001600160a01b0302191690836001600160a01b0316021790613e3a61459f565b5050508060989080516123d89291602001906145ed565b6000841580613e5e575085155b15613e6b57506000613eb9565b6000613e838661126989670de0b6b3a76400006137ce565b9050848111613e96576000915050613eb9565b6000613eb482611269868189613eae8d81878f613c25565b906137ce565b925050505b95945050505050565b613ecd8383836123d8565b613ed6836128e9565b156123d85760405162461bcd60e51b815260206004820152600f60248201526e636f6f6c646f776e2061637469766560881b604482015260640160405180910390613f1f614250565b5050505050565b60008183613fbb5760405162461bcd60e51b81526004018080602001828103825283818151815260200191508051906020019080838360005b83811015613f77578082015183820152602001613f5f565b50505050905090810190601f168015613fa45780820380516001836020036101000a031916815260200191505b509250505060405180910390613fb8614250565b50505b506000838581613fc757fe5b0495945050505050565b60016000613fdd6142bb565b906101000a900460ff1680613ff55750613ff5613c65565b8061401257506000806140066142bb565b906101000a900460ff16155b6140565760405162461bcd60e51b815260040180806020018281038252602e815260200180614783602e913960400191505060405180910390614053614250565b50505b60006001816140636142bb565b906101000a900460ff1615905080156140c95760016000610100816140866142bb565b8160ff0219169083151502179061409b61459f565b50505060016000806101000a816140b06142bb565b8160ff021916908315150217906140c561459f565b5050505b8015610edd57600080610100816140de6142bb565b8160ff0219169083151502179061266c61459f565b600160006140ff6142bb565b906101000a900460ff16806141175750614117613c65565b8061413457506000806141286142bb565b906101000a900460ff16155b6141785760405162461bcd60e51b815260040180806020018281038252602e815260200180614783602e913960400191505060405180910390614175614250565b50505b60006001816141856142bb565b906101000a900460ff1615905080156141eb5760016000610100816141a86142bb565b8160ff021916908315150217906141bd61459f565b50505060016000806101000a816141d26142bb565b8160ff021916908315150217906141e761459f565b5050505b60688380516141fe9291602001906145ed565b5060698280516142129291602001906145ed565b506012606a6001816142226142bb565b8160ff021916908360ff1602179061423861459f565b50505080156123d85760008061010081613df56142bb565b632a2a7adb598160e01b8152600481016020815285602082015260005b8681101561428857808601518282016040015260200161426d565b506020828760640184336000905af158601d01573d60011458600c01573d6000803e3d621234565260ea61109c52505050565b6303daa959598160e01b8152836004820152602081602483336000905af158601d01573d60011458600c01573d6000803e3d621234565260ea61109c528051935060005b60408110156123d8576000828201526020016142ff565b6373509064598160e01b8152602081600483336000905af158601d01573d60011458600c01573d6000803e3d621234565260ea61109c52805160008252935060206142ff565b638435035b598160e01b8152836004820152602081602483336000905af158601d01573d60011458600c01573d6000803e3d621234565260ea61109c52805160008252935060206142ff565b638540661f598160e01b81526143d9565b8080831115610e3c575090919050565b8080831015610e3c575090919050565b836004820152846024820152606060448201528660648201526084810160005b888110156144115780880151828201526020016143f9565b506060828960a40184336000905af158601d01573d60011458600c01573d6000803e3d621234565260ea61109c52815160408301513d6000853e8b8b82606087013350600060045af150596144668d3d6143c9565b8c0161447281876143b9565b5b828110156144875760008152602001614473565b50929c50505050505050565b6385979f76598160e01b8152836004820152846024820152606060448201528760648201526084810160005b898110156144d75780890151828201526020016144bf565b506060828a60a40184336000905af158601d01573d60011458600c01573d6000803e3d621234565260ea61109c52815160408301513d6000853e8c8c82606087013350600060045af1505961452c8e3d6143c9565b8d0161453881876143b9565b5b8281101561454d5760008152602001614539565b50929d50505050505050565b63bdbf8c36598160e01b8152602081600483336000905af158601d01573d60011458600c01573d6000803e3d621234565260ea61109c52805160008252935060206142ff565b6322bd64c0598160e01b8152836004820152846024820152600081604483336000905af158601d01573d60011458600c01573d6000803e3d621234565260ea61109c526000815260206142ff565b82806145f76142bb565b600181600116156101000203166002900490600052602060002090601f016020900481019282601f1061463e57805160ff1916838001178561463761459f565b505061467d565b8280016001018561464d61459f565b5050821561467d579182015b8281111561467d5782518261466c61459f565b505091602001919060010190614659565b5061468992915061468d565b5090565b8082111561468957600080826146a161459f565b50505060010161468d56fe45524332303a207472616e7366657220746f20746865207a65726f206164647265737345524332303a206275726e20616d6f756e7420657863656564732062616c616e636545524332303a20617070726f766520746f20746865207a65726f206164647265737345524332303a207472616e7366657220616d6f756e7420657863656564732062616c616e6365536166654d6174683a206d756c7469706c69636174696f6e206f766572666c6f7745524332303a207472616e7366657220616d6f756e74206578636565647320616c6c6f77616e6365436f6e747261637420696e7374616e63652068617320616c7265616479206265656e20696e697469616c697a656445524332303a206275726e2066726f6d20746865207a65726f206164647265737345524332303a207472616e736665722066726f6d20746865207a65726f206164647265737345524332303a20617070726f76652066726f6d20746865207a65726f206164647265737345524332303a2064656372656173656420616c6c6f77616e63652062656c6f77207a65726f",
  "linkReferences": {},
  "deployedLinkReferences": {}
}