{
  "_format": "hh-sol-artifact-1",
  "contractName": "TxDataUtils",
  "sourceName": "contracts/guards/TxDataUtils.sol",
  "abi": [
    {
      "inputs": [
        {
          "internalType": "bytes32",
          "name": "c__0x77bdd477",
          "type": "bytes32"
        }
      ],
      "name": "c_0x77bdd477",
      "outputs": [],
      "stateMutability": "pure",
      "type": "function"
    },
    {
      "inputs": [
        {
          "internalType": "bytes32",
          "name": "data",
          "type": "bytes32"
        }
      ],
      "name": "convert32toAddress",
      "outputs": [
        {
          "internalType": "address",
          "name": "o",
          "type": "address"
        }
      ],
      "stateMutability": "pure",
      "type": "function"
    },
    {
      "inputs": [
        {
          "internalType": "bytes",
          "name": "data",
          "type": "bytes"
        },
        {
          "internalType": "uint8",
          "name": "inputNum",
          "type": "uint8"
        },
        {
          "internalType": "uint8",
          "name": "arrayIndex",
          "type": "uint8"
        }
      ],
      "name": "getArrayIndex",
      "outputs": [
        {
          "internalType": "bytes32",
          "name": "",
          "type": "bytes32"
        }
      ],
      "stateMutability": "pure",
      "type": "function"
    },
    {
      "inputs": [
        {
          "internalType": "bytes",
          "name": "data",
          "type": "bytes"
        },
        {
          "internalType": "uint8",
          "name": "inputNum",
          "type": "uint8"
        }
      ],
      "name": "getArrayLast",
      "outputs": [
        {
          "internalType": "bytes32",
          "name": "",
          "type": "bytes32"
        }
      ],
      "stateMutability": "pure",
      "type": "function"
    },
    {
      "inputs": [
        {
          "internalType": "bytes",
          "name": "data",
          "type": "bytes"
        },
        {
          "internalType": "uint8",
          "name": "inputNum",
          "type": "uint8"
        }
      ],
      "name": "getArrayLength",
      "outputs": [
        {
          "internalType": "uint256",
          "name": "",
          "type": "uint256"
        }
      ],
      "stateMutability": "pure",
      "type": "function"
    },
    {
      "inputs": [
        {
          "internalType": "bytes",
          "name": "data",
          "type": "bytes"
        },
        {
          "internalType": "uint8",
          "name": "inputNum",
          "type": "uint8"
        }
      ],
      "name": "getInput",
      "outputs": [
        {
          "internalType": "bytes32",
          "name": "",
          "type": "bytes32"
        }
      ],
      "stateMutability": "pure",
      "type": "function"
    },
    {
      "inputs": [
        {
          "internalType": "bytes",
          "name": "data",
          "type": "bytes"
        }
      ],
      "name": "getMethod",
      "outputs": [
        {
          "internalType": "bytes4",
          "name": "",
          "type": "bytes4"
        }
      ],
      "stateMutability": "pure",
      "type": "function"
    },
    {
      "inputs": [
        {
          "internalType": "bytes",
          "name": "data",
          "type": "bytes"
        },
        {
          "internalType": "uint256",
          "name": "offset",
          "type": "uint256"
        },
        {
          "internalType": "uint256",
          "name": "length",
          "type": "uint256"
        }
      ],
      "name": "read32",
      "outputs": [
        {
          "internalType": "bytes32",
          "name": "o",
          "type": "bytes32"
        }
      ],
      "stateMutability": "pure",
      "type": "function"
    },
    {
      "inputs": [
        {
          "internalType": "bytes",
          "name": "data",
          "type": "bytes"
        },
        {
          "internalType": "uint256",
          "name": "offset",
          "type": "uint256"
        },
        {
          "internalType": "uint256",
          "name": "length",
          "type": "uint256"
        }
      ],
      "name": "read4left",
      "outputs": [
        {
          "internalType": "bytes4",
          "name": "o",
          "type": "bytes4"
        }
      ],
      "stateMutability": "pure",
      "type": "function"
    }
  ],
  "bytecode": "0x608060405234801561001057600080fd5b5061146f806100206000396000f3fe608060405234801561001057600080fd5b50600436106100935760003560e01c8063568b5a2f11610066578063568b5a2f146102e357806382f86acc146103e5578063998546e3146104c1578063c3c6279f1461059d578063db896b571461068b57610093565b806309ff5c7d146100985780631eba30771461017457806322cedfc3146101cc57806341dc16c3146101fa575b600080fd5b61015e600480360360408110156100ae57600080fd5b81019080803590602001906401000000008111156100cb57600080fd5b8201836020820111156100dd57600080fd5b803590602001918460018302840111640100000000831117156100ff57600080fd5b91908080601f016020809104026020016040519081016040528093929190818152602001838380828437600081840152601f19601f820116905080830192505050505050509192919290803560ff16906020019092919050505061076e565b6040518082815260200191505060405180910390f35b6101a06004803603602081101561018a57600080fd5b8101908080359060200190929190505050610a1f565b604051808273ffffffffffffffffffffffffffffffffffffffff16815260200191505060405180910390f35b6101f8600480360360208110156101e257600080fd5b8101908080359060200190929190505050610ab0565b005b6102cd6004803603606081101561021057600080fd5b810190808035906020019064010000000081111561022d57600080fd5b82018360208201111561023f57600080fd5b8035906020019184600183028401116401000000008311171561026157600080fd5b91908080601f016020809104026020016040519081016040528093929190818152602001838380828437600081840152601f19601f820116905080830192505050505050509192919290803560ff169060200190929190803560ff169060200190929190505050610ab3565b6040518082815260200191505060405180910390f35b6103b0600480360360608110156102f957600080fd5b810190808035906020019064010000000081111561031657600080fd5b82018360208201111561032857600080fd5b8035906020019184600183028401116401000000008311171561034a57600080fd5b91908080601f016020809104026020016040519081016040528093929190818152602001838380828437600081840152601f19601f8201169050808301925050505050505091929192908035906020019092919080359060200190929190505050610e93565b60405180827bffffffffffffffffffffffffffffffffffffffffffffffffffffffff1916815260200191505060405180910390f35b6104ab600480360360408110156103fb57600080fd5b810190808035906020019064010000000081111561041857600080fd5b82018360208201111561042a57600080fd5b8035906020019184600183028401116401000000008311171561044c57600080fd5b91908080601f016020809104026020016040519081016040528093929190818152602001838380828437600081840152601f19601f820116905080830192505050505050509192919290803560ff16906020019092919050505061103d565b6040518082815260200191505060405180910390f35b610587600480360360408110156104d757600080fd5b81019080803590602001906401000000008111156104f457600080fd5b82018360208201111561050657600080fd5b8035906020019184600183028401116401000000008311171561052857600080fd5b91908080601f016020809104026020016040519081016040528093929190818152602001838380828437600081840152601f19601f820116905080830192505050505050509192919290803560ff1690602001909291905050506110e0565b6040518082815260200191505060405180910390f35b610656600480360360208110156105b357600080fd5b81019080803590602001906401000000008111156105d057600080fd5b8201836020820111156105e257600080fd5b8035906020019184600183028401116401000000008311171561060457600080fd5b91908080601f016020809104026020016040519081016040528093929190818152602001838380828437600081840152601f19601f8201169050808301925050505050505091929192905050506111f5565b60405180827bffffffffffffffffffffffffffffffffffffffffffffffffffffffff1916815260200191505060405180910390f35b610758600480360360608110156106a157600080fd5b81019080803590602001906401000000008111156106be57600080fd5b8201836020820111156106d057600080fd5b803590602001918460018302840111640100000000831117156106f257600080fd5b91908080601f016020809104026020016040519081016040528093929190818152602001838380828437600081840152601f19601f820116905080830192505050505050509192919290803590602001909291908035906020019092919050505061128f565b6040518082815260200191505060405180910390f35b600061079c7f081d82e52646f30f5f6ba661c9f8640c9cd57ce66a80a3e2a8d58ce5bb27187060001b610ab0565b6107c87f09f957c21d0e9b2ec1b121684a6e7f5ac4edd73009cb6079362e23cfddf9a9c860001b610ab0565b6107f47f3c18b9a50414e713d6d2d9fb3d8f35382b5efbbdea88daeb0918feace849715760001b610ab0565b600061080b846004856020020160ff16602061128f565b90506108397fef8d397263c2655f4ccf2b9be363e978048ff824160884a4bcae49615516e10d60001b610ab0565b6108657f74a724fe8f5378a48c6199852895f5901086e6334857b36d1bfda6debb52ec2e60001b610ab0565b60006108798560048460001c01602061128f565b90506108a77f9a780319db2dc6e6b23ada0024cb7abdcb735d784ab162fd4df358f7790083e560001b610ab0565b6108d37feacef85564e6b6c37c507951170fc255c4d3d5c96436eac08483236950ea824b60001b610ab0565b6108ff7f82a785437fd1ca4984c1c85dd77a837b42b49b0eb13b373e6e257c6c09fbd61f60001b610ab0565b6000801b8111610977576040517f08c379a00000000000000000000000000000000000000000000000000000000081526004018080602001828103825260128152602001807f696e707574206973206e6f74206172726179000000000000000000000000000081525060200191505060405180910390fd5b6109a37fe43217671634e3774905c2565f4e5137f7fe504fa68fccc06bbf3e58eb71b66160001b610ab0565b6109cf7f1b4b6c92de0ca738f0a984667b3c9678d804cdd2f47c17e91f52d7c5f051c41560001b610ab0565b6109fb7f09314e957efbeec867fd49fc3e7f5899b2d95ad68a6b5badee8d98784fd97f4460001b610ab0565b610a158560208360001c0260048560001c0101602061128f565b9250505092915050565b6000610a4d7f746ad3681a882d643153db78e530a3c3631a70addf1fa2b3fb00e7c9e006155c60001b610ab0565b610a797fdc74b4c260b28f73b6b9660be3d6c8df22d3969ef9bce7b2d804a0268404b7cd60001b610ab0565b610aa57f72b1c589190589f7b6b45bf4a6392802affc2e6b2798209520a0a75ef72c092560001b610ab0565b8160001c9050919050565b50565b6000610ae17f0d2edb964b9e832488b09b10132df8eae74acfc0fc4ef7f9d17163fc2e452a2e60001b610ab0565b610b0d7fec59aeec3a522e44409f61c0fa70319cf1bf4918e86c015c6bd7fd77cfc1ae9360001b610ab0565b610b397fb4266cc8b2adcdafb3172be707d2eee0716530e37ad5d9f5e65f6c7babc7809d60001b610ab0565b6000610b50856004866020020160ff16602061128f565b9050610b7e7f1f2b2786ee9ec18f24b6ccdcc72ade656a4dd4d847db4a80de9458d5dc44c09060001b610ab0565b610baa7fb00c56757dd8ec9f02b936996a334928b1ef6f3435c2ba9dbd5d9dc89c70070760001b610ab0565b6000610bbe8660048460001c01602061128f565b9050610bec7f0561a5eddc039c0aeec1e8962165d9d1f98f95ff176cb1da7911da2d15fc68e160001b610ab0565b610c187f2975ca5dd6258a561f9086915a438ad03ff8d21b085793774c29b6f109905d5660001b610ab0565b610c447fe202a0fe1a62fce1431754f635daf3f1e6bc0f9c3ebc648471c03244a4f8700960001b610ab0565b6000801b8111610cbc576040517f08c379a00000000000000000000000000000000000000000000000000000000081526004018080602001828103825260128152602001807f696e707574206973206e6f74206172726179000000000000000000000000000081525060200191505060405180910390fd5b610ce87f1e785ed06ba7037d73973307b033d65e2f824f9cc0fcf912d8380dd82538492160001b610ab0565b610d147f6ef73466323634ac0f371519fc18548657fcc76f8d0c3ccddbf7468adf89774960001b610ab0565b610d407f2a303905ffb4cda24ed31526b4f963ad1b91bfadec5c8ed2ca40b29c472ed13660001b610ab0565b610d6c7ffca3600df76533b6d8f4c84af3473e45313d07b1b4d815f512d23d58304c6ed960001b610ab0565b8360ff168160001c11610de7576040517f08c379a00000000000000000000000000000000000000000000000000000000081526004018080602001828103825260168152602001807f696e76616c696420617272617920706f736974696f6e0000000000000000000081525060200191505060405180910390fd5b610e137f551e68dba562f6faa3974de6be47a00ae8ddb4d4165ba52d68af2ba1a833bfe360001b610ab0565b610e3f7f4286efa5281a1ee99db835a134f746afbaf3d0fcc3672421febb6a2e4a400a4e60001b610ab0565b610e6b7f5af5a9ef45989c8affc392d2d5d0df701f283a3b0e79d53d1135f03c8d9d5d5e60001b610ab0565b610e888660208660ff166001010260048560001c0101602061128f565b925050509392505050565b6000610ec17fd6c6dbfd4bf36b156af386725ee599a07a7fc0502d86558792f32d90271a5e9e60001b610ab0565b610eed7f0df76cc601986d069b64699d8ff4fb99fcbc1b9e4220f157da3fd86e163df1dd60001b610ab0565b610f197f74f9c4c8d25560321ca7a58042227880f04c2c9c527d041bc89b76e7bbdf6cdc60001b610ab0565b610f457f9d0a02e3e973d364b485ed97415c4bc7224e29a836b070d88d00c4291d80398260001b610ab0565b81830184511015610fbe576040517f08c379a000000000000000000000000000000000000000000000000000000000815260040180806020018281038252601b8152602001807f52656164696e67206279746573206f7574206f6620626f756e6473000000000081525060200191505060405180910390fd5b610fea7f811b5aac9a857ab8c7cd87ee345761773d2b9d61f70042d22951c307ea4c065a60001b610ab0565b6110167ffd285ebeb1be2f9b4fb9556de5470780f301ad863061c4de10d0104d490e25c360001b610ab0565b826020018401519050816004038015611035576008810260020a820491505b509392505050565b600061106b7ffaab115858d9fce9efc97f1bbbb6e0df3297f8f129d4b2eded2c231a15f4085860001b610ab0565b6110977ff893ef875ca94e9c3fc4cc86b45216aece14b700e6ec2a78405a4d0c8f88e0ca60001b610ab0565b6110c37fab731ada03353f5fae632f632758df8ca199a2c0ed3b8fca3d506596ce85d1e860001b610ab0565b6110d8836004846020020160ff16602061128f565b905092915050565b600061110e7f8f457202f427629ea60baa80f7f914c085350c8f2ca4f9fd180aca9fc44ec1f560001b610ab0565b61113a7f4da3e58273fe915f61c0c9a457139e818bfac3b557b392cdd56b41b84d0d8def60001b610ab0565b6111667f5a7820acfad558e8182703c3d21294f7dfe53893d06442449d90f8b2f322864560001b610ab0565b600061117d846004856020020160ff16602061128f565b90506111ab7f8ccb0543f48fb49fbfcbc888a85917c4133287cc7f38bafdefda960c0dcb4cd760001b610ab0565b6111d77f2c0a939cfc53a406486784d858b7febb9711ec07456a8d9c024180617f6cc92960001b610ab0565b6111e98460048360001c01602061128f565b60001c91505092915050565b60006112237fefe2c22b09876a856e39aa166afadf74ae34fe283090d9979cb49ad407e38f1e60001b610ab0565b61124f7fa17e61bf25b219f9e370180ea595fbf5c5023abe458e1c62e77b21b115a1bd0b60001b610ab0565b61127b7ff879bb38771c8cf94106f3671591cfac3d19bc2e769322669e85c43b59b6fb8f60001b610ab0565b6112888260006004610e93565b9050919050565b60006112bd7fdbf66ce83ce63e1b90e474f035c4a8d784e0e29bf54a573c26983a0f4a4cbbcb60001b610ab0565b6112e97feb2cd4358c15899b1595ad29b0ef0b53024f659bfd60d9f832cfd5823d57459460001b610ab0565b6113157fc3be7f0e5a666c19a596140bd00fdc4df0b35f7dffd237a9b85317c383366c9460001b610ab0565b6113417f2acb4df9e63e73b3d49d7b38657b1574f30cd3acb64bc5e5b73ab1144ceb9b8360001b610ab0565b818301845110156113ba576040517f08c379a000000000000000000000000000000000000000000000000000000000815260040180806020018281038252601b8152602001807f52656164696e67206279746573206f7574206f6620626f756e6473000000000081525060200191505060405180910390fd5b6113e67f3f71e92bd14f821d88273ee800e0b73eae1655a1d351098740c416395fb88be160001b610ab0565b6114127f4012a161d651452a28c3646c96a8ddc6a29d16ef089a2e5ae51fb2b45e28cb2660001b610ab0565b826020018401519050816020038015611431576008810260020a820491505b50939250505056fea26469706673582212207db0712aeda5eab9c29e0f12ce7f3f1eb3772bbe17f4be32c62ba49468ec886664736f6c634300060c0033",
  "linkReferences": {},
  "deployedLinkReferences": {}
}