{
  "_format": "hh-sol-artifact-1",
  "contractName": "TxDataUtils-ovm",
  "sourceName": "contracts/guards/TxDataUtils.sol",
  "abi": [
    {
      "inputs": [
        {
          "internalType": "bytes32",
          "name": "data",
          "type": "bytes32"
        }
      ],
      "name": "convert32toAddress",
      "outputs": [
        {
          "internalType": "address",
          "name": "o",
          "type": "address"
        }
      ],
      "stateMutability": "pure",
      "type": "function"
    },
    {
      "inputs": [
        {
          "internalType": "bytes",
          "name": "data",
          "type": "bytes"
        },
        {
          "internalType": "uint8",
          "name": "inputNum",
          "type": "uint8"
        },
        {
          "internalType": "uint8",
          "name": "arrayIndex",
          "type": "uint8"
        }
      ],
      "name": "getArrayIndex",
      "outputs": [
        {
          "internalType": "bytes32",
          "name": "",
          "type": "bytes32"
        }
      ],
      "stateMutability": "pure",
      "type": "function"
    },
    {
      "inputs": [
        {
          "internalType": "bytes",
          "name": "data",
          "type": "bytes"
        },
        {
          "internalType": "uint8",
          "name": "inputNum",
          "type": "uint8"
        }
      ],
      "name": "getArrayLast",
      "outputs": [
        {
          "internalType": "bytes32",
          "name": "",
          "type": "bytes32"
        }
      ],
      "stateMutability": "pure",
      "type": "function"
    },
    {
      "inputs": [
        {
          "internalType": "bytes",
          "name": "data",
          "type": "bytes"
        },
        {
          "internalType": "uint8",
          "name": "inputNum",
          "type": "uint8"
        }
      ],
      "name": "getArrayLength",
      "outputs": [
        {
          "internalType": "uint256",
          "name": "",
          "type": "uint256"
        }
      ],
      "stateMutability": "pure",
      "type": "function"
    },
    {
      "inputs": [
        {
          "internalType": "bytes",
          "name": "data",
          "type": "bytes"
        },
        {
          "internalType": "uint8",
          "name": "inputNum",
          "type": "uint8"
        }
      ],
      "name": "getInput",
      "outputs": [
        {
          "internalType": "bytes32",
          "name": "",
          "type": "bytes32"
        }
      ],
      "stateMutability": "pure",
      "type": "function"
    },
    {
      "inputs": [
        {
          "internalType": "bytes",
          "name": "data",
          "type": "bytes"
        }
      ],
      "name": "getMethod",
      "outputs": [
        {
          "internalType": "bytes4",
          "name": "",
          "type": "bytes4"
        }
      ],
      "stateMutability": "pure",
      "type": "function"
    },
    {
      "inputs": [
        {
          "internalType": "bytes",
          "name": "data",
          "type": "bytes"
        },
        {
          "internalType": "uint256",
          "name": "offset",
          "type": "uint256"
        },
        {
          "internalType": "uint256",
          "name": "length",
          "type": "uint256"
        }
      ],
      "name": "read32",
      "outputs": [
        {
          "internalType": "bytes32",
          "name": "o",
          "type": "bytes32"
        }
      ],
      "stateMutability": "pure",
      "type": "function"
    },
    {
      "inputs": [
        {
          "internalType": "bytes",
          "name": "data",
          "type": "bytes"
        },
        {
          "internalType": "uint256",
          "name": "offset",
          "type": "uint256"
        },
        {
          "internalType": "uint256",
          "name": "length",
          "type": "uint256"
        }
      ],
      "name": "read4left",
      "outputs": [
        {
          "internalType": "bytes4",
          "name": "o",
          "type": "bytes4"
        }
      ],
      "stateMutability": "pure",
      "type": "function"
    }
  ],
  "bytecode": "0x60806040523480156100195760008061001661001f565b50505b5061008a565b632a2a7adb598160e01b8152600481016020815285602082015260005b8681101561005757808601518282016040015260200161003c565b506020828760640184336000905af158600e01573d6000803e3d6000fd5b3d6001141558600a015760016000f35b505050565b610a1a806100996000396000f3fe6080604052348015610019576000806100166109af565b50505b50600436106100915760003560e01c806382f86acc1161006457806382f86acc1461037f578063998546e31461044b578063c3c6279f14610517578063db896b57146105de57610091565b806309ff5c7d1461009f5780631eba30771461017d57806341dc16c3146101bf578063568b5a2f14610296575b60008061009c6109af565b50505b61016b600480360360408110156100be576000806100bb6109af565b50505b810190602081018135600160201b8111156100e1576000806100de6109af565b50505b8201836020820111156100fc576000806100f96109af565b50505b803590602001918460018302840111600160201b83111715610126576000806101236109af565b50505b91908080601f01602080910402602001604051908101604052818152929190602084018383808284376000920191909152509295505050903560ff1691506106aa9050565b60405190815260200160405180910390f35b6101a36004803603602081101561019c576000806101996109af565b50505b5035610743565b6040516001600160a01b03909116815260200160405180910390f35b61016b600480360360608110156101de576000806101db6109af565b50505b810190602081018135600160201b811115610201576000806101fe6109af565b50505b82018360208201111561021c576000806102196109af565b50505b803590602001918460018302840111600160201b83111715610246576000806102436109af565b50505b91908080601f01602080910402602001604051908101604052818152929190602084018383808284376000920191909152509295505060ff83358116945060209093013590921691506107469050565b610362600480360360608110156102b5576000806102b26109af565b50505b810190602081018135600160201b8111156102d8576000806102d56109af565b50505b8201836020820111156102f3576000806102f06109af565b50505b803590602001918460018302840111600160201b8311171561031d5760008061031a6109af565b50505b91908080601f0160208091040260200160405190810160405281815292919060208401838380828437600092019190915250929550508235935050506020013561083e565b6040516001600160e01b0319909116815260200160405180910390f35b61016b6004803603604081101561039e5760008061039b6109af565b50505b810190602081018135600160201b8111156103c1576000806103be6109af565b50505b8201836020820111156103dc576000806103d96109af565b50505b803590602001918460018302840111600160201b83111715610406576000806104036109af565b50505b91908080601f01602080910402602001604051908101604052818152929190602084018383808284376000920191909152509295505050903560ff1691506108c79050565b61016b6004803603604081101561046a576000806104676109af565b50505b810190602081018135600160201b81111561048d5760008061048a6109af565b50505b8201836020820111156104a8576000806104a56109af565b50505b803590602001918460018302840111600160201b831117156104d2576000806104cf6109af565b50505b91908080601f01602080910402602001604051908101604052818152929190602084018383808284376000920191909152509295505050903560ff1691506108e59050565b61036260048036036020811015610536576000806105336109af565b50505b810190602081018135600160201b811115610559576000806105566109af565b50505b820183602082011115610574576000806105716109af565b50505b803590602001918460018302840111600160201b8311171561059e5760008061059b6109af565b50505b91908080601f0160208091040260200160405190810160405281815292919060208401838380828437600092019190915250929550610916945050505050565b61016b600480360360608110156105fd576000806105fa6109af565b50505b810190602081018135600160201b8111156106205760008061061d6109af565b50505b82018360208201111561063b576000806106386109af565b50505b803590602001918460018302840111600160201b83111715610665576000806106626109af565b50505b91908080601f0160208091040260200160405190810160405281815292919060208401838380828437600092019190915250929550508235935050506020013561092b565b6000806106c2848460200260040160ff16602061092b565b905060006106d58560048401602061092b565b9050806107265760405162461bcd60e51b8152602060048201526012602482015271696e707574206973206e6f7420617272617960701b6044820152606401604051809103906107236109af565b50505b61073a85602080840285016004019061092b565b95945050505050565b90565b60008061075e858560200260040160ff16602061092b565b905060006107718660048401602061092b565b9050806107c25760405162461bcd60e51b8152602060048201526012602482015271696e707574206973206e6f7420617272617960701b6044820152606401604051809103906107bf6109af565b50505b60ff8416811161081a5760405162461bcd60e51b815260206004820152601660248201527534b73b30b634b21030b93930bc903837b9b4ba34b7b760511b6044820152606401604051809103906108176109af565b50505b610834866020600160ff881601810285016004019061092b565b9695505050505050565b6000818301845110156108a05760405162461bcd60e51b815260206004820152601b60248201527f52656164696e67206279746573206f7574206f6620626f756e6473000000000060448201526064016040518091039061089d6109af565b50505b8260200184015190508160040380156108bf576008810260020a820491505b509392505050565b60006108de838360200260040160ff16602061092b565b9392505050565b6000806108fd848460200260040160ff16602061092b565b905061090e8460048301602061092b565b949350505050565b6000610925826000600461083e565b92915050565b60008183018451101561098d5760405162461bcd60e51b815260206004820152601b60248201527f52656164696e67206279746573206f7574206f6620626f756e6473000000000060448201526064016040518091039061098a6109af565b50505b8260200184015190508160200380156108bf5760080260020a90049392505050565b632a2a7adb598160e01b8152600481016020815285602082015260005b868110156109e75780860151828201604001526020016109cc565b506020828760640184336000905af158600e01573d6000803e3d6000fd5b3d6001141558600a015760016000f35b50505056",
  "deployedBytecode": "0x6080604052348015610019576000806100166109af565b50505b50600436106100915760003560e01c806382f86acc1161006457806382f86acc1461037f578063998546e31461044b578063c3c6279f14610517578063db896b57146105de57610091565b806309ff5c7d1461009f5780631eba30771461017d57806341dc16c3146101bf578063568b5a2f14610296575b60008061009c6109af565b50505b61016b600480360360408110156100be576000806100bb6109af565b50505b810190602081018135600160201b8111156100e1576000806100de6109af565b50505b8201836020820111156100fc576000806100f96109af565b50505b803590602001918460018302840111600160201b83111715610126576000806101236109af565b50505b91908080601f01602080910402602001604051908101604052818152929190602084018383808284376000920191909152509295505050903560ff1691506106aa9050565b60405190815260200160405180910390f35b6101a36004803603602081101561019c576000806101996109af565b50505b5035610743565b6040516001600160a01b03909116815260200160405180910390f35b61016b600480360360608110156101de576000806101db6109af565b50505b810190602081018135600160201b811115610201576000806101fe6109af565b50505b82018360208201111561021c576000806102196109af565b50505b803590602001918460018302840111600160201b83111715610246576000806102436109af565b50505b91908080601f01602080910402602001604051908101604052818152929190602084018383808284376000920191909152509295505060ff83358116945060209093013590921691506107469050565b610362600480360360608110156102b5576000806102b26109af565b50505b810190602081018135600160201b8111156102d8576000806102d56109af565b50505b8201836020820111156102f3576000806102f06109af565b50505b803590602001918460018302840111600160201b8311171561031d5760008061031a6109af565b50505b91908080601f0160208091040260200160405190810160405281815292919060208401838380828437600092019190915250929550508235935050506020013561083e565b6040516001600160e01b0319909116815260200160405180910390f35b61016b6004803603604081101561039e5760008061039b6109af565b50505b810190602081018135600160201b8111156103c1576000806103be6109af565b50505b8201836020820111156103dc576000806103d96109af565b50505b803590602001918460018302840111600160201b83111715610406576000806104036109af565b50505b91908080601f01602080910402602001604051908101604052818152929190602084018383808284376000920191909152509295505050903560ff1691506108c79050565b61016b6004803603604081101561046a576000806104676109af565b50505b810190602081018135600160201b81111561048d5760008061048a6109af565b50505b8201836020820111156104a8576000806104a56109af565b50505b803590602001918460018302840111600160201b831117156104d2576000806104cf6109af565b50505b91908080601f01602080910402602001604051908101604052818152929190602084018383808284376000920191909152509295505050903560ff1691506108e59050565b61036260048036036020811015610536576000806105336109af565b50505b810190602081018135600160201b811115610559576000806105566109af565b50505b820183602082011115610574576000806105716109af565b50505b803590602001918460018302840111600160201b8311171561059e5760008061059b6109af565b50505b91908080601f0160208091040260200160405190810160405281815292919060208401838380828437600092019190915250929550610916945050505050565b61016b600480360360608110156105fd576000806105fa6109af565b50505b810190602081018135600160201b8111156106205760008061061d6109af565b50505b82018360208201111561063b576000806106386109af565b50505b803590602001918460018302840111600160201b83111715610665576000806106626109af565b50505b91908080601f0160208091040260200160405190810160405281815292919060208401838380828437600092019190915250929550508235935050506020013561092b565b6000806106c2848460200260040160ff16602061092b565b905060006106d58560048401602061092b565b9050806107265760405162461bcd60e51b8152602060048201526012602482015271696e707574206973206e6f7420617272617960701b6044820152606401604051809103906107236109af565b50505b61073a85602080840285016004019061092b565b95945050505050565b90565b60008061075e858560200260040160ff16602061092b565b905060006107718660048401602061092b565b9050806107c25760405162461bcd60e51b8152602060048201526012602482015271696e707574206973206e6f7420617272617960701b6044820152606401604051809103906107bf6109af565b50505b60ff8416811161081a5760405162461bcd60e51b815260206004820152601660248201527534b73b30b634b21030b93930bc903837b9b4ba34b7b760511b6044820152606401604051809103906108176109af565b50505b610834866020600160ff881601810285016004019061092b565b9695505050505050565b6000818301845110156108a05760405162461bcd60e51b815260206004820152601b60248201527f52656164696e67206279746573206f7574206f6620626f756e6473000000000060448201526064016040518091039061089d6109af565b50505b8260200184015190508160040380156108bf576008810260020a820491505b509392505050565b60006108de838360200260040160ff16602061092b565b9392505050565b6000806108fd848460200260040160ff16602061092b565b905061090e8460048301602061092b565b949350505050565b6000610925826000600461083e565b92915050565b60008183018451101561098d5760405162461bcd60e51b815260206004820152601b60248201527f52656164696e67206279746573206f7574206f6620626f756e6473000000000060448201526064016040518091039061098a6109af565b50505b8260200184015190508160200380156108bf5760080260020a90049392505050565b632a2a7adb598160e01b8152600481016020815285602082015260005b868110156109e75780860151828201604001526020016109cc565b506020828760640184336000905af158601d01573d60011458600c01573d6000803e3d621234565260ea61109c5250505056",
  "linkReferences": {},
  "deployedLinkReferences": {}
}