{
  "_format": "hh-sol-artifact-1",
  "contractName": "TxDataUtils-ovm",
  "sourceName": "contracts/guards/TxDataUtils.sol",
  "abi": [
    {
      "inputs": [
        {
          "internalType": "bytes32",
          "name": "c__0x77bdd477",
          "type": "bytes32"
        }
      ],
      "name": "c_0x77bdd477",
      "outputs": [],
      "stateMutability": "pure",
      "type": "function"
    },
    {
      "inputs": [
        {
          "internalType": "bytes32",
          "name": "data",
          "type": "bytes32"
        }
      ],
      "name": "convert32toAddress",
      "outputs": [
        {
          "internalType": "address",
          "name": "o",
          "type": "address"
        }
      ],
      "stateMutability": "pure",
      "type": "function"
    },
    {
      "inputs": [
        {
          "internalType": "bytes",
          "name": "data",
          "type": "bytes"
        },
        {
          "internalType": "uint8",
          "name": "inputNum",
          "type": "uint8"
        },
        {
          "internalType": "uint8",
          "name": "arrayIndex",
          "type": "uint8"
        }
      ],
      "name": "getArrayIndex",
      "outputs": [
        {
          "internalType": "bytes32",
          "name": "",
          "type": "bytes32"
        }
      ],
      "stateMutability": "pure",
      "type": "function"
    },
    {
      "inputs": [
        {
          "internalType": "bytes",
          "name": "data",
          "type": "bytes"
        },
        {
          "internalType": "uint8",
          "name": "inputNum",
          "type": "uint8"
        }
      ],
      "name": "getArrayLast",
      "outputs": [
        {
          "internalType": "bytes32",
          "name": "",
          "type": "bytes32"
        }
      ],
      "stateMutability": "pure",
      "type": "function"
    },
    {
      "inputs": [
        {
          "internalType": "bytes",
          "name": "data",
          "type": "bytes"
        },
        {
          "internalType": "uint8",
          "name": "inputNum",
          "type": "uint8"
        }
      ],
      "name": "getArrayLength",
      "outputs": [
        {
          "internalType": "uint256",
          "name": "",
          "type": "uint256"
        }
      ],
      "stateMutability": "pure",
      "type": "function"
    },
    {
      "inputs": [
        {
          "internalType": "bytes",
          "name": "data",
          "type": "bytes"
        },
        {
          "internalType": "uint8",
          "name": "inputNum",
          "type": "uint8"
        }
      ],
      "name": "getInput",
      "outputs": [
        {
          "internalType": "bytes32",
          "name": "",
          "type": "bytes32"
        }
      ],
      "stateMutability": "pure",
      "type": "function"
    },
    {
      "inputs": [
        {
          "internalType": "bytes",
          "name": "data",
          "type": "bytes"
        }
      ],
      "name": "getMethod",
      "outputs": [
        {
          "internalType": "bytes4",
          "name": "",
          "type": "bytes4"
        }
      ],
      "stateMutability": "pure",
      "type": "function"
    },
    {
      "inputs": [
        {
          "internalType": "bytes",
          "name": "data",
          "type": "bytes"
        },
        {
          "internalType": "uint256",
          "name": "offset",
          "type": "uint256"
        },
        {
          "internalType": "uint256",
          "name": "length",
          "type": "uint256"
        }
      ],
      "name": "read32",
      "outputs": [
        {
          "internalType": "bytes32",
          "name": "o",
          "type": "bytes32"
        }
      ],
      "stateMutability": "pure",
      "type": "function"
    },
    {
      "inputs": [
        {
          "internalType": "bytes",
          "name": "data",
          "type": "bytes"
        },
        {
          "internalType": "uint256",
          "name": "offset",
          "type": "uint256"
        },
        {
          "internalType": "uint256",
          "name": "length",
          "type": "uint256"
        }
      ],
      "name": "read4left",
      "outputs": [
        {
          "internalType": "bytes4",
          "name": "o",
          "type": "bytes4"
        }
      ],
      "stateMutability": "pure",
      "type": "function"
    }
  ],
  "bytecode": "0x60806040523480156100195760008061001661001f565b50505b5061008d565b632a2a7adb598160e01b8152600481016020815285602082015260005b8681101561005a57808601518160408401015260208101905061003c565b506020828760640184336000905af158600e01573d6000803e3d6000fd5b3d6001141558600a015760016000f35b505050565b6115f48061009c6000396000f3fe608060405234801561001957600080610016611586565b50505b506004361061009c5760003560e01c8063568b5a2f1161006f578063568b5a2f1461034f57806382f86acc14610475578063998546e314610575578063c3c6279f14610675578063db896b57146107875761009c565b806309ff5c7d146100aa5780631eba3077146101aa57806322cedfc31461020b57806341dc16c314610242575b6000806100a7611586565b50505b610194600480360360408110156100c9576000806100c6611586565b50505b81019080803590602001906401000000008111156100ef576000806100ec611586565b50505b82018360208201111561010a57600080610107611586565b50505b8035906020019184600183028401116401000000008311171561013557600080610132611586565b50505b91908080601f016020809104026020016040519081016040528093929190818152602001838380828437600081840152601f19601f820116905080830192505050505050509192919290803560ff16906020019092919050505061088e565b6040518082815260200191505060405180910390f35b6101df600480360360208110156101c9576000806101c6611586565b50505b8101908080359060200190929190505050610b48565b604051808273ffffffffffffffffffffffffffffffffffffffff16815260200191505060405180910390f35b6102406004803603602081101561022a57600080610227611586565b50505b8101908080359060200190929190505050610bd9565b005b610339600480360360608110156102615760008061025e611586565b50505b810190808035906020019064010000000081111561028757600080610284611586565b50505b8201836020820111156102a25760008061029f611586565b50505b803590602001918460018302840111640100000000831117156102cd576000806102ca611586565b50505b91908080601f016020809104026020016040519081016040528093929190818152602001838380828437600081840152601f19601f820116905080830192505050505050509192919290803560ff169060200190929190803560ff169060200190929190505050610bdc565b6040518082815260200191505060405180910390f35b6104406004803603606081101561036e5760008061036b611586565b50505b810190808035906020019064010000000081111561039457600080610391611586565b50505b8201836020820111156103af576000806103ac611586565b50505b803590602001918460018302840111640100000000831117156103da576000806103d7611586565b50505b91908080601f016020809104026020016040519081016040528093929190818152602001838380828437600081840152601f19601f8201169050808301925050505050505091929192908035906020019092919080359060200190929190505050610fce565b60405180827bffffffffffffffffffffffffffffffffffffffffffffffffffffffff1916815260200191505060405180910390f35b61055f6004803603604081101561049457600080610491611586565b50505b81019080803590602001906401000000008111156104ba576000806104b7611586565b50505b8201836020820111156104d5576000806104d2611586565b50505b80359060200191846001830284011164010000000083111715610500576000806104fd611586565b50505b91908080601f016020809104026020016040519081016040528093929190818152602001838380828437600081840152601f19601f820116905080830192505050505050509192919290803560ff169060200190929190505050611181565b6040518082815260200191505060405180910390f35b61065f6004803603604081101561059457600080610591611586565b50505b81019080803590602001906401000000008111156105ba576000806105b7611586565b50505b8201836020820111156105d5576000806105d2611586565b50505b80359060200191846001830284011164010000000083111715610600576000806105fd611586565b50505b91908080601f016020809104026020016040519081016040528093929190818152602001838380828437600081840152601f19601f820116905080830192505050505050509192919290803560ff169060200190929190505050611224565b6040518082815260200191505060405180910390f35b6107526004803603602081101561069457600080610691611586565b50505b81019080803590602001906401000000008111156106ba576000806106b7611586565b50505b8201836020820111156106d5576000806106d2611586565b50505b80359060200191846001830284011164010000000083111715610700576000806106fd611586565b50505b91908080601f016020809104026020016040519081016040528093929190818152602001838380828437600081840152601f19601f820116905080830192505050505050509192919290505050611339565b60405180827bffffffffffffffffffffffffffffffffffffffffffffffffffffffff1916815260200191505060405180910390f35b610878600480360360608110156107a6576000806107a3611586565b50505b81019080803590602001906401000000008111156107cc576000806107c9611586565b50505b8201836020820111156107e7576000806107e4611586565b50505b803590602001918460018302840111640100000000831117156108125760008061080f611586565b50505b91908080601f016020809104026020016040519081016040528093929190818152602001838380828437600081840152601f19601f82011690508083019250505050505050919291929080359060200190929190803590602001909291905050506113d3565b6040518082815260200191505060405180910390f35b60006108bc7f081d82e52646f30f5f6ba661c9f8640c9cd57ce66a80a3e2a8d58ce5bb27187060001b610bd9565b6108e87f09f957c21d0e9b2ec1b121684a6e7f5ac4edd73009cb6079362e23cfddf9a9c860001b610bd9565b6109147f3c18b9a50414e713d6d2d9fb3d8f35382b5efbbdea88daeb0918feace849715760001b610bd9565b600061092b846004856020020160ff1660206113d3565b90506109597fef8d397263c2655f4ccf2b9be363e978048ff824160884a4bcae49615516e10d60001b610bd9565b6109857f74a724fe8f5378a48c6199852895f5901086e6334857b36d1bfda6debb52ec2e60001b610bd9565b60006109998560048460001c0160206113d3565b90506109c77f9a780319db2dc6e6b23ada0024cb7abdcb735d784ab162fd4df358f7790083e560001b610bd9565b6109f37feacef85564e6b6c37c507951170fc255c4d3d5c96436eac08483236950ea824b60001b610bd9565b610a1f7f82a785437fd1ca4984c1c85dd77a837b42b49b0eb13b373e6e257c6c09fbd61f60001b610bd9565b6000801b8111610aa0576040517f08c379a00000000000000000000000000000000000000000000000000000000081526004018080602001828103825260128152602001807f696e707574206973206e6f74206172726179000000000000000000000000000081525060200191505060405180910390610a9d611586565b50505b610acc7fe43217671634e3774905c2565f4e5137f7fe504fa68fccc06bbf3e58eb71b66160001b610bd9565b610af87f1b4b6c92de0ca738f0a984667b3c9678d804cdd2f47c17e91f52d7c5f051c41560001b610bd9565b610b247f09314e957efbeec867fd49fc3e7f5899b2d95ad68a6b5badee8d98784fd97f4460001b610bd9565b610b3e8560208360001c0260048560001c010160206113d3565b9250505092915050565b6000610b767f746ad3681a882d643153db78e530a3c3631a70addf1fa2b3fb00e7c9e006155c60001b610bd9565b610ba27fdc74b4c260b28f73b6b9660be3d6c8df22d3969ef9bce7b2d804a0268404b7cd60001b610bd9565b610bce7f72b1c589190589f7b6b45bf4a6392802affc2e6b2798209520a0a75ef72c092560001b610bd9565b8160001c9050919050565b50565b6000610c0a7f0d2edb964b9e832488b09b10132df8eae74acfc0fc4ef7f9d17163fc2e452a2e60001b610bd9565b610c367fec59aeec3a522e44409f61c0fa70319cf1bf4918e86c015c6bd7fd77cfc1ae9360001b610bd9565b610c627fb4266cc8b2adcdafb3172be707d2eee0716530e37ad5d9f5e65f6c7babc7809d60001b610bd9565b6000610c79856004866020020160ff1660206113d3565b9050610ca77f1f2b2786ee9ec18f24b6ccdcc72ade656a4dd4d847db4a80de9458d5dc44c09060001b610bd9565b610cd37fb00c56757dd8ec9f02b936996a334928b1ef6f3435c2ba9dbd5d9dc89c70070760001b610bd9565b6000610ce78660048460001c0160206113d3565b9050610d157f0561a5eddc039c0aeec1e8962165d9d1f98f95ff176cb1da7911da2d15fc68e160001b610bd9565b610d417f2975ca5dd6258a561f9086915a438ad03ff8d21b085793774c29b6f109905d5660001b610bd9565b610d6d7fe202a0fe1a62fce1431754f635daf3f1e6bc0f9c3ebc648471c03244a4f8700960001b610bd9565b6000801b8111610dee576040517f08c379a00000000000000000000000000000000000000000000000000000000081526004018080602001828103825260128152602001807f696e707574206973206e6f74206172726179000000000000000000000000000081525060200191505060405180910390610deb611586565b50505b610e1a7f1e785ed06ba7037d73973307b033d65e2f824f9cc0fcf912d8380dd82538492160001b610bd9565b610e467f6ef73466323634ac0f371519fc18548657fcc76f8d0c3ccddbf7468adf89774960001b610bd9565b610e727f2a303905ffb4cda24ed31526b4f963ad1b91bfadec5c8ed2ca40b29c472ed13660001b610bd9565b610e9e7ffca3600df76533b6d8f4c84af3473e45313d07b1b4d815f512d23d58304c6ed960001b610bd9565b8360ff168160001c11610f22576040517f08c379a00000000000000000000000000000000000000000000000000000000081526004018080602001828103825260168152602001807f696e76616c696420617272617920706f736974696f6e0000000000000000000081525060200191505060405180910390610f1f611586565b50505b610f4e7f551e68dba562f6faa3974de6be47a00ae8ddb4d4165ba52d68af2ba1a833bfe360001b610bd9565b610f7a7f4286efa5281a1ee99db835a134f746afbaf3d0fcc3672421febb6a2e4a400a4e60001b610bd9565b610fa67f5af5a9ef45989c8affc392d2d5d0df701f283a3b0e79d53d1135f03c8d9d5d5e60001b610bd9565b610fc38660208660ff166001010260048560001c010160206113d3565b925050509392505050565b6000610ffc7fd6c6dbfd4bf36b156af386725ee599a07a7fc0502d86558792f32d90271a5e9e60001b610bd9565b6110287f0df76cc601986d069b64699d8ff4fb99fcbc1b9e4220f157da3fd86e163df1dd60001b610bd9565b6110547f74f9c4c8d25560321ca7a58042227880f04c2c9c527d041bc89b76e7bbdf6cdc60001b610bd9565b6110807f9d0a02e3e973d364b485ed97415c4bc7224e29a836b070d88d00c4291d80398260001b610bd9565b81830184511015611102576040517f08c379a000000000000000000000000000000000000000000000000000000000815260040180806020018281038252601b8152602001807f52656164696e67206279746573206f7574206f6620626f756e64730000000000815250602001915050604051809103906110ff611586565b50505b61112e7f811b5aac9a857ab8c7cd87ee345761773d2b9d61f70042d22951c307ea4c065a60001b610bd9565b61115a7ffd285ebeb1be2f9b4fb9556de5470780f301ad863061c4de10d0104d490e25c360001b610bd9565b826020018401519050816004038015611179576008810260020a820491505b509392505050565b60006111af7ffaab115858d9fce9efc97f1bbbb6e0df3297f8f129d4b2eded2c231a15f4085860001b610bd9565b6111db7ff893ef875ca94e9c3fc4cc86b45216aece14b700e6ec2a78405a4d0c8f88e0ca60001b610bd9565b6112077fab731ada03353f5fae632f632758df8ca199a2c0ed3b8fca3d506596ce85d1e860001b610bd9565b61121c836004846020020160ff1660206113d3565b905092915050565b60006112527f8f457202f427629ea60baa80f7f914c085350c8f2ca4f9fd180aca9fc44ec1f560001b610bd9565b61127e7f4da3e58273fe915f61c0c9a457139e818bfac3b557b392cdd56b41b84d0d8def60001b610bd9565b6112aa7f5a7820acfad558e8182703c3d21294f7dfe53893d06442449d90f8b2f322864560001b610bd9565b60006112c1846004856020020160ff1660206113d3565b90506112ef7f8ccb0543f48fb49fbfcbc888a85917c4133287cc7f38bafdefda960c0dcb4cd760001b610bd9565b61131b7f2c0a939cfc53a406486784d858b7febb9711ec07456a8d9c024180617f6cc92960001b610bd9565b61132d8460048360001c0160206113d3565b60001c91505092915050565b60006113677fefe2c22b09876a856e39aa166afadf74ae34fe283090d9979cb49ad407e38f1e60001b610bd9565b6113937fa17e61bf25b219f9e370180ea595fbf5c5023abe458e1c62e77b21b115a1bd0b60001b610bd9565b6113bf7ff879bb38771c8cf94106f3671591cfac3d19bc2e769322669e85c43b59b6fb8f60001b610bd9565b6113cc8260006004610fce565b9050919050565b60006114017fdbf66ce83ce63e1b90e474f035c4a8d784e0e29bf54a573c26983a0f4a4cbbcb60001b610bd9565b61142d7feb2cd4358c15899b1595ad29b0ef0b53024f659bfd60d9f832cfd5823d57459460001b610bd9565b6114597fc3be7f0e5a666c19a596140bd00fdc4df0b35f7dffd237a9b85317c383366c9460001b610bd9565b6114857f2acb4df9e63e73b3d49d7b38657b1574f30cd3acb64bc5e5b73ab1144ceb9b8360001b610bd9565b81830184511015611507576040517f08c379a000000000000000000000000000000000000000000000000000000000815260040180806020018281038252601b8152602001807f52656164696e67206279746573206f7574206f6620626f756e6473000000000081525060200191505060405180910390611504611586565b50505b6115337f3f71e92bd14f821d88273ee800e0b73eae1655a1d351098740c416395fb88be160001b610bd9565b61155f7f4012a161d651452a28c3646c96a8ddc6a29d16ef089a2e5ae51fb2b45e28cb2660001b610bd9565b82602001840151905081602003801561157e576008810260020a820491505b509392505050565b632a2a7adb598160e01b8152600481016020815285602082015260005b868110156115c15780860151816040840101526020810190506115a3565b506020828760640184336000905af158600e01573d6000803e3d6000fd5b3d6001141558600a015760016000f35b50505056",
  "deployedBytecode": "0x608060405234801561001957600080610016611586565b50505b506004361061009c5760003560e01c8063568b5a2f1161006f578063568b5a2f1461034f57806382f86acc14610475578063998546e314610575578063c3c6279f14610675578063db896b57146107875761009c565b806309ff5c7d146100aa5780631eba3077146101aa57806322cedfc31461020b57806341dc16c314610242575b6000806100a7611586565b50505b610194600480360360408110156100c9576000806100c6611586565b50505b81019080803590602001906401000000008111156100ef576000806100ec611586565b50505b82018360208201111561010a57600080610107611586565b50505b8035906020019184600183028401116401000000008311171561013557600080610132611586565b50505b91908080601f016020809104026020016040519081016040528093929190818152602001838380828437600081840152601f19601f820116905080830192505050505050509192919290803560ff16906020019092919050505061088e565b6040518082815260200191505060405180910390f35b6101df600480360360208110156101c9576000806101c6611586565b50505b8101908080359060200190929190505050610b48565b604051808273ffffffffffffffffffffffffffffffffffffffff16815260200191505060405180910390f35b6102406004803603602081101561022a57600080610227611586565b50505b8101908080359060200190929190505050610bd9565b005b610339600480360360608110156102615760008061025e611586565b50505b810190808035906020019064010000000081111561028757600080610284611586565b50505b8201836020820111156102a25760008061029f611586565b50505b803590602001918460018302840111640100000000831117156102cd576000806102ca611586565b50505b91908080601f016020809104026020016040519081016040528093929190818152602001838380828437600081840152601f19601f820116905080830192505050505050509192919290803560ff169060200190929190803560ff169060200190929190505050610bdc565b6040518082815260200191505060405180910390f35b6104406004803603606081101561036e5760008061036b611586565b50505b810190808035906020019064010000000081111561039457600080610391611586565b50505b8201836020820111156103af576000806103ac611586565b50505b803590602001918460018302840111640100000000831117156103da576000806103d7611586565b50505b91908080601f016020809104026020016040519081016040528093929190818152602001838380828437600081840152601f19601f8201169050808301925050505050505091929192908035906020019092919080359060200190929190505050610fce565b60405180827bffffffffffffffffffffffffffffffffffffffffffffffffffffffff1916815260200191505060405180910390f35b61055f6004803603604081101561049457600080610491611586565b50505b81019080803590602001906401000000008111156104ba576000806104b7611586565b50505b8201836020820111156104d5576000806104d2611586565b50505b80359060200191846001830284011164010000000083111715610500576000806104fd611586565b50505b91908080601f016020809104026020016040519081016040528093929190818152602001838380828437600081840152601f19601f820116905080830192505050505050509192919290803560ff169060200190929190505050611181565b6040518082815260200191505060405180910390f35b61065f6004803603604081101561059457600080610591611586565b50505b81019080803590602001906401000000008111156105ba576000806105b7611586565b50505b8201836020820111156105d5576000806105d2611586565b50505b80359060200191846001830284011164010000000083111715610600576000806105fd611586565b50505b91908080601f016020809104026020016040519081016040528093929190818152602001838380828437600081840152601f19601f820116905080830192505050505050509192919290803560ff169060200190929190505050611224565b6040518082815260200191505060405180910390f35b6107526004803603602081101561069457600080610691611586565b50505b81019080803590602001906401000000008111156106ba576000806106b7611586565b50505b8201836020820111156106d5576000806106d2611586565b50505b80359060200191846001830284011164010000000083111715610700576000806106fd611586565b50505b91908080601f016020809104026020016040519081016040528093929190818152602001838380828437600081840152601f19601f820116905080830192505050505050509192919290505050611339565b60405180827bffffffffffffffffffffffffffffffffffffffffffffffffffffffff1916815260200191505060405180910390f35b610878600480360360608110156107a6576000806107a3611586565b50505b81019080803590602001906401000000008111156107cc576000806107c9611586565b50505b8201836020820111156107e7576000806107e4611586565b50505b803590602001918460018302840111640100000000831117156108125760008061080f611586565b50505b91908080601f016020809104026020016040519081016040528093929190818152602001838380828437600081840152601f19601f82011690508083019250505050505050919291929080359060200190929190803590602001909291905050506113d3565b6040518082815260200191505060405180910390f35b60006108bc7f081d82e52646f30f5f6ba661c9f8640c9cd57ce66a80a3e2a8d58ce5bb27187060001b610bd9565b6108e87f09f957c21d0e9b2ec1b121684a6e7f5ac4edd73009cb6079362e23cfddf9a9c860001b610bd9565b6109147f3c18b9a50414e713d6d2d9fb3d8f35382b5efbbdea88daeb0918feace849715760001b610bd9565b600061092b846004856020020160ff1660206113d3565b90506109597fef8d397263c2655f4ccf2b9be363e978048ff824160884a4bcae49615516e10d60001b610bd9565b6109857f74a724fe8f5378a48c6199852895f5901086e6334857b36d1bfda6debb52ec2e60001b610bd9565b60006109998560048460001c0160206113d3565b90506109c77f9a780319db2dc6e6b23ada0024cb7abdcb735d784ab162fd4df358f7790083e560001b610bd9565b6109f37feacef85564e6b6c37c507951170fc255c4d3d5c96436eac08483236950ea824b60001b610bd9565b610a1f7f82a785437fd1ca4984c1c85dd77a837b42b49b0eb13b373e6e257c6c09fbd61f60001b610bd9565b6000801b8111610aa0576040517f08c379a00000000000000000000000000000000000000000000000000000000081526004018080602001828103825260128152602001807f696e707574206973206e6f74206172726179000000000000000000000000000081525060200191505060405180910390610a9d611586565b50505b610acc7fe43217671634e3774905c2565f4e5137f7fe504fa68fccc06bbf3e58eb71b66160001b610bd9565b610af87f1b4b6c92de0ca738f0a984667b3c9678d804cdd2f47c17e91f52d7c5f051c41560001b610bd9565b610b247f09314e957efbeec867fd49fc3e7f5899b2d95ad68a6b5badee8d98784fd97f4460001b610bd9565b610b3e8560208360001c0260048560001c010160206113d3565b9250505092915050565b6000610b767f746ad3681a882d643153db78e530a3c3631a70addf1fa2b3fb00e7c9e006155c60001b610bd9565b610ba27fdc74b4c260b28f73b6b9660be3d6c8df22d3969ef9bce7b2d804a0268404b7cd60001b610bd9565b610bce7f72b1c589190589f7b6b45bf4a6392802affc2e6b2798209520a0a75ef72c092560001b610bd9565b8160001c9050919050565b50565b6000610c0a7f0d2edb964b9e832488b09b10132df8eae74acfc0fc4ef7f9d17163fc2e452a2e60001b610bd9565b610c367fec59aeec3a522e44409f61c0fa70319cf1bf4918e86c015c6bd7fd77cfc1ae9360001b610bd9565b610c627fb4266cc8b2adcdafb3172be707d2eee0716530e37ad5d9f5e65f6c7babc7809d60001b610bd9565b6000610c79856004866020020160ff1660206113d3565b9050610ca77f1f2b2786ee9ec18f24b6ccdcc72ade656a4dd4d847db4a80de9458d5dc44c09060001b610bd9565b610cd37fb00c56757dd8ec9f02b936996a334928b1ef6f3435c2ba9dbd5d9dc89c70070760001b610bd9565b6000610ce78660048460001c0160206113d3565b9050610d157f0561a5eddc039c0aeec1e8962165d9d1f98f95ff176cb1da7911da2d15fc68e160001b610bd9565b610d417f2975ca5dd6258a561f9086915a438ad03ff8d21b085793774c29b6f109905d5660001b610bd9565b610d6d7fe202a0fe1a62fce1431754f635daf3f1e6bc0f9c3ebc648471c03244a4f8700960001b610bd9565b6000801b8111610dee576040517f08c379a00000000000000000000000000000000000000000000000000000000081526004018080602001828103825260128152602001807f696e707574206973206e6f74206172726179000000000000000000000000000081525060200191505060405180910390610deb611586565b50505b610e1a7f1e785ed06ba7037d73973307b033d65e2f824f9cc0fcf912d8380dd82538492160001b610bd9565b610e467f6ef73466323634ac0f371519fc18548657fcc76f8d0c3ccddbf7468adf89774960001b610bd9565b610e727f2a303905ffb4cda24ed31526b4f963ad1b91bfadec5c8ed2ca40b29c472ed13660001b610bd9565b610e9e7ffca3600df76533b6d8f4c84af3473e45313d07b1b4d815f512d23d58304c6ed960001b610bd9565b8360ff168160001c11610f22576040517f08c379a00000000000000000000000000000000000000000000000000000000081526004018080602001828103825260168152602001807f696e76616c696420617272617920706f736974696f6e0000000000000000000081525060200191505060405180910390610f1f611586565b50505b610f4e7f551e68dba562f6faa3974de6be47a00ae8ddb4d4165ba52d68af2ba1a833bfe360001b610bd9565b610f7a7f4286efa5281a1ee99db835a134f746afbaf3d0fcc3672421febb6a2e4a400a4e60001b610bd9565b610fa67f5af5a9ef45989c8affc392d2d5d0df701f283a3b0e79d53d1135f03c8d9d5d5e60001b610bd9565b610fc38660208660ff166001010260048560001c010160206113d3565b925050509392505050565b6000610ffc7fd6c6dbfd4bf36b156af386725ee599a07a7fc0502d86558792f32d90271a5e9e60001b610bd9565b6110287f0df76cc601986d069b64699d8ff4fb99fcbc1b9e4220f157da3fd86e163df1dd60001b610bd9565b6110547f74f9c4c8d25560321ca7a58042227880f04c2c9c527d041bc89b76e7bbdf6cdc60001b610bd9565b6110807f9d0a02e3e973d364b485ed97415c4bc7224e29a836b070d88d00c4291d80398260001b610bd9565b81830184511015611102576040517f08c379a000000000000000000000000000000000000000000000000000000000815260040180806020018281038252601b8152602001807f52656164696e67206279746573206f7574206f6620626f756e64730000000000815250602001915050604051809103906110ff611586565b50505b61112e7f811b5aac9a857ab8c7cd87ee345761773d2b9d61f70042d22951c307ea4c065a60001b610bd9565b61115a7ffd285ebeb1be2f9b4fb9556de5470780f301ad863061c4de10d0104d490e25c360001b610bd9565b826020018401519050816004038015611179576008810260020a820491505b509392505050565b60006111af7ffaab115858d9fce9efc97f1bbbb6e0df3297f8f129d4b2eded2c231a15f4085860001b610bd9565b6111db7ff893ef875ca94e9c3fc4cc86b45216aece14b700e6ec2a78405a4d0c8f88e0ca60001b610bd9565b6112077fab731ada03353f5fae632f632758df8ca199a2c0ed3b8fca3d506596ce85d1e860001b610bd9565b61121c836004846020020160ff1660206113d3565b905092915050565b60006112527f8f457202f427629ea60baa80f7f914c085350c8f2ca4f9fd180aca9fc44ec1f560001b610bd9565b61127e7f4da3e58273fe915f61c0c9a457139e818bfac3b557b392cdd56b41b84d0d8def60001b610bd9565b6112aa7f5a7820acfad558e8182703c3d21294f7dfe53893d06442449d90f8b2f322864560001b610bd9565b60006112c1846004856020020160ff1660206113d3565b90506112ef7f8ccb0543f48fb49fbfcbc888a85917c4133287cc7f38bafdefda960c0dcb4cd760001b610bd9565b61131b7f2c0a939cfc53a406486784d858b7febb9711ec07456a8d9c024180617f6cc92960001b610bd9565b61132d8460048360001c0160206113d3565b60001c91505092915050565b60006113677fefe2c22b09876a856e39aa166afadf74ae34fe283090d9979cb49ad407e38f1e60001b610bd9565b6113937fa17e61bf25b219f9e370180ea595fbf5c5023abe458e1c62e77b21b115a1bd0b60001b610bd9565b6113bf7ff879bb38771c8cf94106f3671591cfac3d19bc2e769322669e85c43b59b6fb8f60001b610bd9565b6113cc8260006004610fce565b9050919050565b60006114017fdbf66ce83ce63e1b90e474f035c4a8d784e0e29bf54a573c26983a0f4a4cbbcb60001b610bd9565b61142d7feb2cd4358c15899b1595ad29b0ef0b53024f659bfd60d9f832cfd5823d57459460001b610bd9565b6114597fc3be7f0e5a666c19a596140bd00fdc4df0b35f7dffd237a9b85317c383366c9460001b610bd9565b6114857f2acb4df9e63e73b3d49d7b38657b1574f30cd3acb64bc5e5b73ab1144ceb9b8360001b610bd9565b81830184511015611507576040517f08c379a000000000000000000000000000000000000000000000000000000000815260040180806020018281038252601b8152602001807f52656164696e67206279746573206f7574206f6620626f756e6473000000000081525060200191505060405180910390611504611586565b50505b6115337f3f71e92bd14f821d88273ee800e0b73eae1655a1d351098740c416395fb88be160001b610bd9565b61155f7f4012a161d651452a28c3646c96a8ddc6a29d16ef089a2e5ae51fb2b45e28cb2660001b610bd9565b82602001840151905081602003801561157e576008810260020a820491505b509392505050565b632a2a7adb598160e01b8152600481016020815285602082015260005b868110156115c15780860151816040840101526020810190506115a3565b506020828760640184336000905af158601d01573d60011458600c01573d6000803e3d621234565260ea61109c5250505056",
  "linkReferences": {},
  "deployedLinkReferences": {}
}