{
  "_format": "hh-sol-artifact-1",
  "contractName": "SynthetixGuard",
  "sourceName": "contracts/guards/SynthetixGuard.sol",
  "abi": [
    {
      "inputs": [
        {
          "internalType": "contract IAddressResolver",
          "name": "_addressResolver",
          "type": "address"
        }
      ],
      "stateMutability": "nonpayable",
      "type": "constructor"
    },
    {
      "anonymous": false,
      "inputs": [
        {
          "indexed": false,
          "internalType": "address",
          "name": "fundAddress",
          "type": "address"
        },
        {
          "indexed": false,
          "internalType": "address",
          "name": "sourceAsset",
          "type": "address"
        },
        {
          "indexed": false,
          "internalType": "uint256",
          "name": "sourceAmount",
          "type": "uint256"
        },
        {
          "indexed": false,
          "internalType": "address",
          "name": "destinationAddress",
          "type": "address"
        },
        {
          "indexed": false,
          "internalType": "uint256",
          "name": "time",
          "type": "uint256"
        }
      ],
      "name": "Exchange",
      "type": "event"
    },
    {
      "inputs": [],
      "name": "addressResolver",
      "outputs": [
        {
          "internalType": "contract IAddressResolver",
          "name": "",
          "type": "address"
        }
      ],
      "stateMutability": "view",
      "type": "function"
    },
    {
      "inputs": [
        {
          "internalType": "bytes32",
          "name": "c__0x5f29e08c",
          "type": "bytes32"
        }
      ],
      "name": "c_0x5f29e08c",
      "outputs": [],
      "stateMutability": "pure",
      "type": "function"
    },
    {
      "inputs": [
        {
          "internalType": "bytes32",
          "name": "c__0x77bdd477",
          "type": "bytes32"
        }
      ],
      "name": "c_0x77bdd477",
      "outputs": [],
      "stateMutability": "pure",
      "type": "function"
    },
    {
      "inputs": [
        {
          "internalType": "bytes32",
          "name": "data",
          "type": "bytes32"
        }
      ],
      "name": "convert32toAddress",
      "outputs": [
        {
          "internalType": "address",
          "name": "o",
          "type": "address"
        }
      ],
      "stateMutability": "pure",
      "type": "function"
    },
    {
      "inputs": [
        {
          "internalType": "bytes",
          "name": "data",
          "type": "bytes"
        },
        {
          "internalType": "uint8",
          "name": "inputNum",
          "type": "uint8"
        },
        {
          "internalType": "uint8",
          "name": "arrayIndex",
          "type": "uint8"
        }
      ],
      "name": "getArrayIndex",
      "outputs": [
        {
          "internalType": "bytes32",
          "name": "",
          "type": "bytes32"
        }
      ],
      "stateMutability": "pure",
      "type": "function"
    },
    {
      "inputs": [
        {
          "internalType": "bytes",
          "name": "data",
          "type": "bytes"
        },
        {
          "internalType": "uint8",
          "name": "inputNum",
          "type": "uint8"
        }
      ],
      "name": "getArrayLast",
      "outputs": [
        {
          "internalType": "bytes32",
          "name": "",
          "type": "bytes32"
        }
      ],
      "stateMutability": "pure",
      "type": "function"
    },
    {
      "inputs": [
        {
          "internalType": "bytes",
          "name": "data",
          "type": "bytes"
        },
        {
          "internalType": "uint8",
          "name": "inputNum",
          "type": "uint8"
        }
      ],
      "name": "getArrayLength",
      "outputs": [
        {
          "internalType": "uint256",
          "name": "",
          "type": "uint256"
        }
      ],
      "stateMutability": "pure",
      "type": "function"
    },
    {
      "inputs": [
        {
          "internalType": "bytes32",
          "name": "key",
          "type": "bytes32"
        }
      ],
      "name": "getAssetProxy",
      "outputs": [
        {
          "internalType": "address",
          "name": "",
          "type": "address"
        }
      ],
      "stateMutability": "view",
      "type": "function"
    },
    {
      "inputs": [
        {
          "internalType": "bytes",
          "name": "data",
          "type": "bytes"
        },
        {
          "internalType": "uint8",
          "name": "inputNum",
          "type": "uint8"
        }
      ],
      "name": "getInput",
      "outputs": [
        {
          "internalType": "bytes32",
          "name": "",
          "type": "bytes32"
        }
      ],
      "stateMutability": "pure",
      "type": "function"
    },
    {
      "inputs": [
        {
          "internalType": "bytes",
          "name": "data",
          "type": "bytes"
        }
      ],
      "name": "getMethod",
      "outputs": [
        {
          "internalType": "bytes4",
          "name": "",
          "type": "bytes4"
        }
      ],
      "stateMutability": "pure",
      "type": "function"
    },
    {
      "inputs": [
        {
          "internalType": "bytes",
          "name": "data",
          "type": "bytes"
        },
        {
          "internalType": "uint256",
          "name": "offset",
          "type": "uint256"
        },
        {
          "internalType": "uint256",
          "name": "length",
          "type": "uint256"
        }
      ],
      "name": "read32",
      "outputs": [
        {
          "internalType": "bytes32",
          "name": "o",
          "type": "bytes32"
        }
      ],
      "stateMutability": "pure",
      "type": "function"
    },
    {
      "inputs": [
        {
          "internalType": "bytes",
          "name": "data",
          "type": "bytes"
        },
        {
          "internalType": "uint256",
          "name": "offset",
          "type": "uint256"
        },
        {
          "internalType": "uint256",
          "name": "length",
          "type": "uint256"
        }
      ],
      "name": "read4left",
      "outputs": [
        {
          "internalType": "bytes4",
          "name": "o",
          "type": "bytes4"
        }
      ],
      "stateMutability": "pure",
      "type": "function"
    },
    {
      "inputs": [
        {
          "internalType": "address",
          "name": "_poolManagerLogic",
          "type": "address"
        },
        {
          "internalType": "bytes",
          "name": "data",
          "type": "bytes"
        }
      ],
      "name": "txGuard",
      "outputs": [
        {
          "internalType": "bool",
          "name": "",
          "type": "bool"
        }
      ],
      "stateMutability": "nonpayable",
      "type": "function"
    }
  ],
  "bytecode": "0x60806040523480156200001157600080fd5b506040516200281e3803806200281e833981810160405260208110156200003757600080fd5b81019080805190602001909291905050506200007c7f766f502c22f33ff0117c9ed407cd9e0cdad92af048787718d28e97189fdc133660001b6200012b60201b60201c565b620000b07f18243ff9eba17ea8a5787eb1093f0efa3780f708886e9d00bbfdb17dfa28838060001b6200012b60201b60201c565b620000e47fa96736384703cc2face05c846ac8322c6c0459efed276fe9dcbbbede1ab9c2d360001b6200012b60201b60201c565b806000806101000a81548173ffffffffffffffffffffffffffffffffffffffff021916908373ffffffffffffffffffffffffffffffffffffffff160217905550506200012e565b50565b6126e0806200013e6000396000f3fe608060405234801561001057600080fd5b50600436106100cf5760003560e01c80634db3e7a21161008c578063998546e311610066578063998546e3146105b7578063c3c6279f14610693578063db896b5714610781578063e23ff43714610864576100cf565b80634db3e7a2146103ab578063568b5a2f146103d957806382f86acc146104db576100cf565b806305a2ee2a146100d457806309ff5c7d146101085780631eba3077146101e457806322cedfc31461023c5780633ded65301461026a57806341dc16c3146102c2575b600080fd5b6100dc610913565b604051808273ffffffffffffffffffffffffffffffffffffffff16815260200191505060405180910390f35b6101ce6004803603604081101561011e57600080fd5b810190808035906020019064010000000081111561013b57600080fd5b82018360208201111561014d57600080fd5b8035906020019184600183028401116401000000008311171561016f57600080fd5b91908080601f016020809104026020016040519081016040528093929190818152602001838380828437600081840152601f19601f820116905080830192505050505050509192919290803560ff169060200190929190505050610937565b6040518082815260200191505060405180910390f35b610210600480360360208110156101fa57600080fd5b8101908080359060200190929190505050610be8565b604051808273ffffffffffffffffffffffffffffffffffffffff16815260200191505060405180910390f35b6102686004803603602081101561025257600080fd5b8101908080359060200190929190505050610c79565b005b6102966004803603602081101561028057600080fd5b8101908080359060200190929190505050610c7c565b604051808273ffffffffffffffffffffffffffffffffffffffff16815260200191505060405180910390f35b610395600480360360608110156102d857600080fd5b81019080803590602001906401000000008111156102f557600080fd5b82018360208201111561030757600080fd5b8035906020019184600183028401116401000000008311171561032957600080fd5b91908080601f016020809104026020016040519081016040528093929190818152602001838380828437600081840152601f19601f820116905080830192505050505050509192919290803560ff169060200190929190803560ff169060200190929190505050611243565b6040518082815260200191505060405180910390f35b6103d7600480360360208110156103c157600080fd5b8101908080359060200190929190505050611623565b005b6104a6600480360360608110156103ef57600080fd5b810190808035906020019064010000000081111561040c57600080fd5b82018360208201111561041e57600080fd5b8035906020019184600183028401116401000000008311171561044057600080fd5b91908080601f016020809104026020016040519081016040528093929190818152602001838380828437600081840152601f19601f8201169050808301925050505050505091929192908035906020019092919080359060200190929190505050611626565b60405180827bffffffffffffffffffffffffffffffffffffffffffffffffffffffff1916815260200191505060405180910390f35b6105a1600480360360408110156104f157600080fd5b810190808035906020019064010000000081111561050e57600080fd5b82018360208201111561052057600080fd5b8035906020019184600183028401116401000000008311171561054257600080fd5b91908080601f016020809104026020016040519081016040528093929190818152602001838380828437600081840152601f19601f820116905080830192505050505050509192919290803560ff1690602001909291905050506117d0565b6040518082815260200191505060405180910390f35b61067d600480360360408110156105cd57600080fd5b81019080803590602001906401000000008111156105ea57600080fd5b8201836020820111156105fc57600080fd5b8035906020019184600183028401116401000000008311171561061e57600080fd5b91908080601f016020809104026020016040519081016040528093929190818152602001838380828437600081840152601f19601f820116905080830192505050505050509192919290803560ff169060200190929190505050611873565b6040518082815260200191505060405180910390f35b61074c600480360360208110156106a957600080fd5b81019080803590602001906401000000008111156106c657600080fd5b8201836020820111156106d857600080fd5b803590602001918460018302840111640100000000831117156106fa57600080fd5b91908080601f016020809104026020016040519081016040528093929190818152602001838380828437600081840152601f19601f820116905080830192505050505050509192919290505050611988565b60405180827bffffffffffffffffffffffffffffffffffffffffffffffffffffffff1916815260200191505060405180910390f35b61084e6004803603606081101561079757600080fd5b81019080803590602001906401000000008111156107b457600080fd5b8201836020820111156107c657600080fd5b803590602001918460018302840111640100000000831117156107e857600080fd5b91908080601f016020809104026020016040519081016040528093929190818152602001838380828437600081840152601f19601f8201169050808301925050505050505091929192908035906020019092919080359060200190929190505050611a22565b6040518082815260200191505060405180910390f35b6108fb6004803603604081101561087a57600080fd5b81019080803573ffffffffffffffffffffffffffffffffffffffff169060200190929190803590602001906401000000008111156108b757600080fd5b8201836020820111156108c957600080fd5b803590602001918460018302840111640100000000831117156108eb57600080fd5b9091929391929390505050611bcc565b60405180821515815260200191505060405180910390f35b60008054906101000a900473ffffffffffffffffffffffffffffffffffffffff1681565b60006109657f081d82e52646f30f5f6ba661c9f8640c9cd57ce66a80a3e2a8d58ce5bb27187060001b610c79565b6109917f09f957c21d0e9b2ec1b121684a6e7f5ac4edd73009cb6079362e23cfddf9a9c860001b610c79565b6109bd7f3c18b9a50414e713d6d2d9fb3d8f35382b5efbbdea88daeb0918feace849715760001b610c79565b60006109d4846004856020020160ff166020611a22565b9050610a027fef8d397263c2655f4ccf2b9be363e978048ff824160884a4bcae49615516e10d60001b610c79565b610a2e7f74a724fe8f5378a48c6199852895f5901086e6334857b36d1bfda6debb52ec2e60001b610c79565b6000610a428560048460001c016020611a22565b9050610a707f9a780319db2dc6e6b23ada0024cb7abdcb735d784ab162fd4df358f7790083e560001b610c79565b610a9c7feacef85564e6b6c37c507951170fc255c4d3d5c96436eac08483236950ea824b60001b610c79565b610ac87f82a785437fd1ca4984c1c85dd77a837b42b49b0eb13b373e6e257c6c09fbd61f60001b610c79565b6000801b8111610b40576040517f08c379a00000000000000000000000000000000000000000000000000000000081526004018080602001828103825260128152602001807f696e707574206973206e6f74206172726179000000000000000000000000000081525060200191505060405180910390fd5b610b6c7fe43217671634e3774905c2565f4e5137f7fe504fa68fccc06bbf3e58eb71b66160001b610c79565b610b987f1b4b6c92de0ca738f0a984667b3c9678d804cdd2f47c17e91f52d7c5f051c41560001b610c79565b610bc47f09314e957efbeec867fd49fc3e7f5899b2d95ad68a6b5badee8d98784fd97f4460001b610c79565b610bde8560208360001c0260048560001c01016020611a22565b9250505092915050565b6000610c167f746ad3681a882d643153db78e530a3c3631a70addf1fa2b3fb00e7c9e006155c60001b610c79565b610c427fdc74b4c260b28f73b6b9660be3d6c8df22d3969ef9bce7b2d804a0268404b7cd60001b610c79565b610c6e7f72b1c589190589f7b6b45bf4a6392802affc2e6b2798209520a0a75ef72c092560001b610c79565b8160001c9050919050565b50565b6000610caa7f6551347dbe1b74d0f9ca1ce16f2068283f0fe1fb043c5165407afb22f9c29ab060001b611623565b610cd67f18eedfa6a6e0580284a1a13a1dcc7948104d17f083a0297e1bacc9f80795d4c960001b611623565b610d027f9308842250fb1751665844b0bcae7348d1f94d77c006e950df211f28b434f1da60001b611623565b60008060009054906101000a900473ffffffffffffffffffffffffffffffffffffffff1673ffffffffffffffffffffffffffffffffffffffff166321f8a7217f53796e74686574697800000000000000000000000000000000000000000000006040518263ffffffff1660e01b81526004018082815260200191505060206040518083038186803b158015610d9657600080fd5b505afa158015610daa573d6000803e3d6000fd5b505050506040513d6020811015610dc057600080fd5b810190808051906020019092919050505073ffffffffffffffffffffffffffffffffffffffff166332608039846040518263ffffffff1660e01b81526004018082815260200191505060206040518083038186803b158015610e2157600080fd5b505afa158015610e35573d6000803e3d6000fd5b505050506040513d6020811015610e4b57600080fd5b81019080805190602001909291905050509050610e8a7fb24caf750f1e6b519022a9680524244b9c08bb5e52c43fff357c03060125f64960001b611623565b610eb67f3408c9916f2a548380e87d1766bb699b4329a06b5aaf7b66702a22ca6b90450760001b611623565b610ee27f9608d9e0290c6c59997334ff53555d9ffea747fb000190d4ac7764d78b0c54d060001b611623565b600073ffffffffffffffffffffffffffffffffffffffff168173ffffffffffffffffffffffffffffffffffffffff161415610f85576040517f08c379a000000000000000000000000000000000000000000000000000000000815260040180806020018281038252600b8152602001807f696e76616c6964206b657900000000000000000000000000000000000000000081525060200191505060405180910390fd5b610fb17fed4ab36d1adf86b50ecfc653fc46dd1b3882157de4355604acd387a3856f40e060001b611623565b610fdd7f517796abbb31986f6791ca2d3177f8f37b7e0d6e035aca25280d50916da0ea6560001b611623565b6110097f841abcefdbf5ca1393c8358d0928c3020b56b1e1be692015de1da523680f19df60001b611623565b60008173ffffffffffffffffffffffffffffffffffffffff1663ec5568896040518163ffffffff1660e01b815260040160206040518083038186803b15801561105157600080fd5b505afa158015611065573d6000803e3d6000fd5b505050506040513d602081101561107b57600080fd5b810190808051906020019092919050505090506110ba7f76c9d8698de6728f9ea316b8a3d665e06c59c39edc65554494fd4863d43b42ac60001b611623565b6110e67fda62abb0158c3f757c51e2d55b8cc144d1e4a907b680bb1dcb0dbe578a6cca6d60001b611623565b6111127fdf14160f31520a3d5c2e9f90c9bba5b57be61063aa5264c62cfdea9eba33dc6160001b611623565b600073ffffffffffffffffffffffffffffffffffffffff168173ffffffffffffffffffffffffffffffffffffffff1614156111b5576040517f08c379a000000000000000000000000000000000000000000000000000000000815260040180806020018281038252600d8152602001807f696e76616c69642070726f78790000000000000000000000000000000000000081525060200191505060405180910390fd5b6111e17f13909d76226efbc93347f868092fbfd0bfc1eac9a393432902a672d6f4aee78c60001b611623565b61120d7f273f2b8fa57de6a76371be4cdcf30e61c59fc5048985b026d32832056c4a2ba660001b611623565b6112397f5998b5e549cb9a0ae6a174e6da6d21db34d2042961241bc1d7b022e311adcf0060001b611623565b8092505050919050565b60006112717f0d2edb964b9e832488b09b10132df8eae74acfc0fc4ef7f9d17163fc2e452a2e60001b610c79565b61129d7fec59aeec3a522e44409f61c0fa70319cf1bf4918e86c015c6bd7fd77cfc1ae9360001b610c79565b6112c97fb4266cc8b2adcdafb3172be707d2eee0716530e37ad5d9f5e65f6c7babc7809d60001b610c79565b60006112e0856004866020020160ff166020611a22565b905061130e7f1f2b2786ee9ec18f24b6ccdcc72ade656a4dd4d847db4a80de9458d5dc44c09060001b610c79565b61133a7fb00c56757dd8ec9f02b936996a334928b1ef6f3435c2ba9dbd5d9dc89c70070760001b610c79565b600061134e8660048460001c016020611a22565b905061137c7f0561a5eddc039c0aeec1e8962165d9d1f98f95ff176cb1da7911da2d15fc68e160001b610c79565b6113a87f2975ca5dd6258a561f9086915a438ad03ff8d21b085793774c29b6f109905d5660001b610c79565b6113d47fe202a0fe1a62fce1431754f635daf3f1e6bc0f9c3ebc648471c03244a4f8700960001b610c79565b6000801b811161144c576040517f08c379a00000000000000000000000000000000000000000000000000000000081526004018080602001828103825260128152602001807f696e707574206973206e6f74206172726179000000000000000000000000000081525060200191505060405180910390fd5b6114787f1e785ed06ba7037d73973307b033d65e2f824f9cc0fcf912d8380dd82538492160001b610c79565b6114a47f6ef73466323634ac0f371519fc18548657fcc76f8d0c3ccddbf7468adf89774960001b610c79565b6114d07f2a303905ffb4cda24ed31526b4f963ad1b91bfadec5c8ed2ca40b29c472ed13660001b610c79565b6114fc7ffca3600df76533b6d8f4c84af3473e45313d07b1b4d815f512d23d58304c6ed960001b610c79565b8360ff168160001c11611577576040517f08c379a00000000000000000000000000000000000000000000000000000000081526004018080602001828103825260168152602001807f696e76616c696420617272617920706f736974696f6e0000000000000000000081525060200191505060405180910390fd5b6115a37f551e68dba562f6faa3974de6be47a00ae8ddb4d4165ba52d68af2ba1a833bfe360001b610c79565b6115cf7f4286efa5281a1ee99db835a134f746afbaf3d0fcc3672421febb6a2e4a400a4e60001b610c79565b6115fb7f5af5a9ef45989c8affc392d2d5d0df701f283a3b0e79d53d1135f03c8d9d5d5e60001b610c79565b6116188660208660ff166001010260048560001c01016020611a22565b925050509392505050565b50565b60006116547fd6c6dbfd4bf36b156af386725ee599a07a7fc0502d86558792f32d90271a5e9e60001b610c79565b6116807f0df76cc601986d069b64699d8ff4fb99fcbc1b9e4220f157da3fd86e163df1dd60001b610c79565b6116ac7f74f9c4c8d25560321ca7a58042227880f04c2c9c527d041bc89b76e7bbdf6cdc60001b610c79565b6116d87f9d0a02e3e973d364b485ed97415c4bc7224e29a836b070d88d00c4291d80398260001b610c79565b81830184511015611751576040517f08c379a000000000000000000000000000000000000000000000000000000000815260040180806020018281038252601b8152602001807f52656164696e67206279746573206f7574206f6620626f756e6473000000000081525060200191505060405180910390fd5b61177d7f811b5aac9a857ab8c7cd87ee345761773d2b9d61f70042d22951c307ea4c065a60001b610c79565b6117a97ffd285ebeb1be2f9b4fb9556de5470780f301ad863061c4de10d0104d490e25c360001b610c79565b8260200184015190508160040380156117c8576008810260020a820491505b509392505050565b60006117fe7ffaab115858d9fce9efc97f1bbbb6e0df3297f8f129d4b2eded2c231a15f4085860001b610c79565b61182a7ff893ef875ca94e9c3fc4cc86b45216aece14b700e6ec2a78405a4d0c8f88e0ca60001b610c79565b6118567fab731ada03353f5fae632f632758df8ca199a2c0ed3b8fca3d506596ce85d1e860001b610c79565b61186b836004846020020160ff166020611a22565b905092915050565b60006118a17f8f457202f427629ea60baa80f7f914c085350c8f2ca4f9fd180aca9fc44ec1f560001b610c79565b6118cd7f4da3e58273fe915f61c0c9a457139e818bfac3b557b392cdd56b41b84d0d8def60001b610c79565b6118f97f5a7820acfad558e8182703c3d21294f7dfe53893d06442449d90f8b2f322864560001b610c79565b6000611910846004856020020160ff166020611a22565b905061193e7f8ccb0543f48fb49fbfcbc888a85917c4133287cc7f38bafdefda960c0dcb4cd760001b610c79565b61196a7f2c0a939cfc53a406486784d858b7febb9711ec07456a8d9c024180617f6cc92960001b610c79565b61197c8460048360001c016020611a22565b60001c91505092915050565b60006119b67fefe2c22b09876a856e39aa166afadf74ae34fe283090d9979cb49ad407e38f1e60001b610c79565b6119e27fa17e61bf25b219f9e370180ea595fbf5c5023abe458e1c62e77b21b115a1bd0b60001b610c79565b611a0e7ff879bb38771c8cf94106f3671591cfac3d19bc2e769322669e85c43b59b6fb8f60001b610c79565b611a1b8260006004611626565b9050919050565b6000611a507fdbf66ce83ce63e1b90e474f035c4a8d784e0e29bf54a573c26983a0f4a4cbbcb60001b610c79565b611a7c7feb2cd4358c15899b1595ad29b0ef0b53024f659bfd60d9f832cfd5823d57459460001b610c79565b611aa87fc3be7f0e5a666c19a596140bd00fdc4df0b35f7dffd237a9b85317c383366c9460001b610c79565b611ad47f2acb4df9e63e73b3d49d7b38657b1574f30cd3acb64bc5e5b73ab1144ceb9b8360001b610c79565b81830184511015611b4d576040517f08c379a000000000000000000000000000000000000000000000000000000000815260040180806020018281038252601b8152602001807f52656164696e67206279746573206f7574206f6620626f756e6473000000000081525060200191505060405180910390fd5b611b797f3f71e92bd14f821d88273ee800e0b73eae1655a1d351098740c416395fb88be160001b610c79565b611ba57f4012a161d651452a28c3646c96a8ddc6a29d16ef089a2e5ae51fb2b45e28cb2660001b610c79565b826020018401519050816020038015611bc4576008810260020a820491505b509392505050565b6000611bfa7faff7fd63fb72a5127dd25b225eb12bf990fb28070a09830f36f68549cac09dc460001b611623565b611c267f840282223409512aaefb5d4004ca5834f9aabea0010b78b2585df35c85bf41bf60001b611623565b611c527f7613d75ffe2dcfe2dca5663a205abe6bbf44b16cb4969740e9e4ad0f6321a7d060001b611623565b6000611ca184848080601f016020809104026020016040519081016040528093929190818152602001838380828437600081840152601f19601f82011690508083019250505050505050611988565b9050611ccf7f8f91ff09a98303d490892213c8ff1c3becf6c5f6235c236678d6750e0183db3260001b611623565b611cfb7ff513aa19a367bc940abfb1a786c8bd53e6898f85de8487a3b0dfa216233ddd7460001b611623565b7f30ead760751631f9a3bbfcbad7ebc57abfd0c6f73f75fa871821aaf932a69afc7bffffffffffffffffffffffffffffffffffffffffffffffffffffffff1916817bffffffffffffffffffffffffffffffffffffffffffffffffffffffff1916141561261957611d8d7fbaa2244e0ff2e91dfda4509ee7af15b3447cfd85aa4d5363db4cf48afc455e1b60001b611623565b611db97fa968a7436defd51f79714cd1ebb687b250f0eae44dc066d731954f0acdd09dc560001b611623565b611de57fecdfa95e3e6548e3ee3e4772b85fdf6992ff6c66dac7784d1908c784782da0eb60001b611623565b6000611e3685858080601f016020809104026020016040519081016040528093929190818152602001838380828437600081840152601f19601f8201169050808301925050505050505060006117d0565b9050611e647f1d8e3f5cb9cc268c70764d482bb64a61cbf7e066e19280ee8c8f989287d77ef460001b611623565b611e907fd9ee4c2c6f5fc6f39894145aa1c209e11eae0f863b505daf66559d61117430fc60001b611623565b6000611ee186868080601f016020809104026020016040519081016040528093929190818152602001838380828437600081840152601f19601f8201169050808301925050505050505060016117d0565b9050611f0f7fc15e9fbe869e4a39bda16b80c7a9b4eb6eacc71bb3956fb373ac18218f4c343460001b611623565b611f3b7f25650936b8a83cac5d7957288873aa4c50824fd1f0a029dace4aa31bf4810c0460001b611623565b6000611f8c87878080601f016020809104026020016040519081016040528093929190818152602001838380828437600081840152601f19601f8201169050808301925050505050505060026117d0565b9050611fba7fb5cfe3a983ef8b234e479ad573006fae41a480e14af3512271c25c87614faf6f60001b611623565b611fe67f66838c8c22dfd03e51eebcbc9e4f9598ae9fc9e83b07d0dde56bef6cd579235860001b611623565b6000611ff184610c7c565b905061201f7fbb530a190d9904588050fddc9eda4e6bf81abea4eb28077c2ebc35a90ec79edb60001b611623565b61204b7ff5d7acac6e3f648c980463041c75c2c4960d83c7513a4a82a30da921ebb3df3860001b611623565b600061205683610c7c565b90506120847fd9e82e61bc520e98c6d9eb15a0c7e5140154e4f720fbc45c4583302d5befb24a60001b611623565b6120b07fad18802eb03fc88403847783023aca004b3544f99811fe747b77835e894e6cfd60001b611623565b60008a90506120e17f059b46385e69f934721d27b2888b32e6224e938c6e08a6c079ea431f0c81afc660001b611623565b61210d7fa184822a272d36bbe5bb7e24e1c97189b7930b501d59059c902b74e43d0772f160001b611623565b6121397f4a296ac8373c28a22368db1e65425ad9ec21755e5be8f586946148a890e1e4cd60001b611623565b8073ffffffffffffffffffffffffffffffffffffffff16639be918e6846040518263ffffffff1660e01b8152600401808273ffffffffffffffffffffffffffffffffffffffff16815260200191505060206040518083038186803b1580156121a057600080fd5b505afa1580156121b4573d6000803e3d6000fd5b505050506040513d60208110156121ca57600080fd5b810190808051906020019092919050505061224d576040517f08c379a000000000000000000000000000000000000000000000000000000000815260040180806020018281038252601d8152602001807f756e737570706f727465642064657374696e6174696f6e20617373657400000081525060200191505060405180910390fd5b6122797fe7b729964ee3d66a5243be4e8c2a7708ac338749bc081bd1e4d509cc5671882860001b611623565b6122a57f56b1647424a5caa42797c7ba715f80b3b2567d40347d925b628f44ee79c7692560001b611623565b6122d17f13118b472f344fd0cdc47961fd5cdb8c5d3f17637dae8302a1ad8e2d2bf7c52a60001b611623565b6122fd7f78b961c3389cd73407a5050839e2ee6a3a7c9b8d717c11a8fc36411e3bb6423b60001b611623565b8073ffffffffffffffffffffffffffffffffffffffff16639be918e6836040518263ffffffff1660e01b8152600401808273ffffffffffffffffffffffffffffffffffffffff16815260200191505060206040518083038186803b15801561236457600080fd5b505afa158015612378573d6000803e3d6000fd5b505050506040513d602081101561238e57600080fd5b8101908080519060200190929190505050612411576040517f08c379a000000000000000000000000000000000000000000000000000000000815260040180806020018281038252601d8152602001807f756e737570706f727465642064657374696e6174696f6e20617373657400000081525060200191505060405180910390fd5b61243d7f59b17c114c5891d43a6caf2a038a0be635251f02e629176ecda719bfdaba3fe260001b611623565b6124697f414109e3c90adb43073e2f208c4456909c0308fd42dd7a392feeb6f9ee8a25b260001b611623565b6124957f37003d9e278a84d653cae2875d8e14be0d4bf17ce7c5a768682b4d8ae89625f160001b611623565b7fec43bc4dddba4c8ae8d4f92f53b39989eaf64022bec70471d105647e57c7891c8173ffffffffffffffffffffffffffffffffffffffff166339b81fd96040518163ffffffff1660e01b815260040160206040518083038186803b1580156124fc57600080fd5b505afa158015612510573d6000803e3d6000fd5b505050506040513d602081101561252657600080fd5b8101908080519060200190929190505050848760001c8542604051808673ffffffffffffffffffffffffffffffffffffffff1681526020018573ffffffffffffffffffffffffffffffffffffffff1681526020018481526020018373ffffffffffffffffffffffffffffffffffffffff1681526020018281526020019550505050505060405180910390a16125dd7f25ebebeab8d29171817b4ca459cd06b58c975bb1135d48a97b462ea43bd63a1360001b611623565b6126097f4973a0762db834efa8fd06436b9afd78cf16948a4ea36d29034c94ee38c4a2de60001b611623565b60019750505050505050506126a3565b6126457f79aadf1279ef2f5f4f7541d9cbcbf69ffd29dd8a69bc1692c48e19ca723d76d960001b611623565b6126717fec3a4a4d0c76a8f51c2c287477f792b91bfd2f487d6db6a7d2797186216cbf0860001b611623565b61269d7fe5c9558e661c24ae9723750f1eec9b9dd132961ac8c87b31829a96e7650a6c0860001b611623565b60009150505b939250505056fea2646970667358221220c4a48251e36d9cc691b9eac17483b5efe7641da72e19916ac0cdd3208744a1d364736f6c634300060c0033",
  "linkReferences": {},
  "deployedLinkReferences": {}
}