{
  "_format": "hh-sol-artifact-1",
  "contractName": "SynthetixGuard",
  "sourceName": "contracts/guards/SynthetixGuard.sol",
  "abi": [
    {
      "inputs": [
        {
          "internalType": "contract IAddressResolver",
          "name": "_addressResolver",
          "type": "address"
        }
      ],
      "stateMutability": "nonpayable",
      "type": "constructor"
    },
    {
      "anonymous": false,
      "inputs": [
        {
          "indexed": false,
          "internalType": "address",
          "name": "fundAddress",
          "type": "address"
        },
        {
          "indexed": false,
          "internalType": "address",
          "name": "sourceAsset",
          "type": "address"
        },
        {
          "indexed": false,
          "internalType": "uint256",
          "name": "sourceAmount",
          "type": "uint256"
        },
        {
          "indexed": false,
          "internalType": "address",
          "name": "destinationAddress",
          "type": "address"
        },
        {
          "indexed": false,
          "internalType": "uint256",
          "name": "time",
          "type": "uint256"
        }
      ],
      "name": "Exchange",
      "type": "event"
    },
    {
      "inputs": [],
      "name": "addressResolver",
      "outputs": [
        {
          "internalType": "contract IAddressResolver",
          "name": "",
          "type": "address"
        }
      ],
      "stateMutability": "view",
      "type": "function"
    },
    {
      "inputs": [
        {
          "internalType": "bytes32",
          "name": "data",
          "type": "bytes32"
        }
      ],
      "name": "convert32toAddress",
      "outputs": [
        {
          "internalType": "address",
          "name": "o",
          "type": "address"
        }
      ],
      "stateMutability": "pure",
      "type": "function"
    },
    {
      "inputs": [
        {
          "internalType": "bytes",
          "name": "data",
          "type": "bytes"
        },
        {
          "internalType": "uint8",
          "name": "inputNum",
          "type": "uint8"
        },
        {
          "internalType": "uint8",
          "name": "arrayIndex",
          "type": "uint8"
        }
      ],
      "name": "getArrayIndex",
      "outputs": [
        {
          "internalType": "bytes32",
          "name": "",
          "type": "bytes32"
        }
      ],
      "stateMutability": "pure",
      "type": "function"
    },
    {
      "inputs": [
        {
          "internalType": "bytes",
          "name": "data",
          "type": "bytes"
        },
        {
          "internalType": "uint8",
          "name": "inputNum",
          "type": "uint8"
        }
      ],
      "name": "getArrayLast",
      "outputs": [
        {
          "internalType": "bytes32",
          "name": "",
          "type": "bytes32"
        }
      ],
      "stateMutability": "pure",
      "type": "function"
    },
    {
      "inputs": [
        {
          "internalType": "bytes",
          "name": "data",
          "type": "bytes"
        },
        {
          "internalType": "uint8",
          "name": "inputNum",
          "type": "uint8"
        }
      ],
      "name": "getArrayLength",
      "outputs": [
        {
          "internalType": "uint256",
          "name": "",
          "type": "uint256"
        }
      ],
      "stateMutability": "pure",
      "type": "function"
    },
    {
      "inputs": [
        {
          "internalType": "bytes32",
          "name": "key",
          "type": "bytes32"
        }
      ],
      "name": "getAssetProxy",
      "outputs": [
        {
          "internalType": "address",
          "name": "",
          "type": "address"
        }
      ],
      "stateMutability": "view",
      "type": "function"
    },
    {
      "inputs": [
        {
          "internalType": "bytes",
          "name": "data",
          "type": "bytes"
        },
        {
          "internalType": "uint8",
          "name": "inputNum",
          "type": "uint8"
        },
        {
          "internalType": "uint256",
          "name": "offset",
          "type": "uint256"
        }
      ],
      "name": "getBytes",
      "outputs": [
        {
          "internalType": "bytes",
          "name": "",
          "type": "bytes"
        }
      ],
      "stateMutability": "pure",
      "type": "function"
    },
    {
      "inputs": [
        {
          "internalType": "bytes",
          "name": "data",
          "type": "bytes"
        },
        {
          "internalType": "uint8",
          "name": "inputNum",
          "type": "uint8"
        }
      ],
      "name": "getInput",
      "outputs": [
        {
          "internalType": "bytes32",
          "name": "",
          "type": "bytes32"
        }
      ],
      "stateMutability": "pure",
      "type": "function"
    },
    {
      "inputs": [
        {
          "internalType": "bytes",
          "name": "data",
          "type": "bytes"
        }
      ],
      "name": "getMethod",
      "outputs": [
        {
          "internalType": "bytes4",
          "name": "",
          "type": "bytes4"
        }
      ],
      "stateMutability": "pure",
      "type": "function"
    },
    {
      "inputs": [
        {
          "internalType": "bytes",
          "name": "data",
          "type": "bytes"
        }
      ],
      "name": "getParams",
      "outputs": [
        {
          "internalType": "bytes",
          "name": "",
          "type": "bytes"
        }
      ],
      "stateMutability": "pure",
      "type": "function"
    },
    {
      "inputs": [
        {
          "internalType": "bytes",
          "name": "data",
          "type": "bytes"
        },
        {
          "internalType": "uint256",
          "name": "offset",
          "type": "uint256"
        },
        {
          "internalType": "uint256",
          "name": "length",
          "type": "uint256"
        }
      ],
      "name": "read32",
      "outputs": [
        {
          "internalType": "bytes32",
          "name": "o",
          "type": "bytes32"
        }
      ],
      "stateMutability": "pure",
      "type": "function"
    },
    {
      "inputs": [
        {
          "internalType": "bytes",
          "name": "data",
          "type": "bytes"
        },
        {
          "internalType": "uint256",
          "name": "offset",
          "type": "uint256"
        }
      ],
      "name": "read4left",
      "outputs": [
        {
          "internalType": "bytes4",
          "name": "o",
          "type": "bytes4"
        }
      ],
      "stateMutability": "pure",
      "type": "function"
    },
    {
      "inputs": [
        {
          "internalType": "address",
          "name": "pool",
          "type": "address"
        },
        {
          "internalType": "bytes",
          "name": "data",
          "type": "bytes"
        }
      ],
      "name": "txGuard",
      "outputs": [
        {
          "internalType": "bool",
          "name": "",
          "type": "bool"
        }
      ],
      "stateMutability": "nonpayable",
      "type": "function"
    }
  ],
  "bytecode": "0x608060405234801561001057600080fd5b506040516113053803806113058339818101604052602081101561003357600080fd5b5051600080546001600160a01b039092166001600160a01b03199092169190911790556112a0806100656000396000f3fe608060405234801561001057600080fd5b50600436106100cf5760003560e01c806341dc16c31161008c578063998546e311610066578063998546e3146105d2578063c3c6279f1461067b578063db896b571461071f578063e23ff437146107c8576100cf565b806341dc16c3146103d1578063689015131461048557806382f86acc14610529576100cf565b806305a2ee2a146100d457806309ff5c7d146100f85780631053f952146101b35780631eba3077146102d4578063293d8063146102f15780633ded6530146103b4575b600080fd5b6100dc61085a565b604080516001600160a01b039092168252519081900360200190f35b6101a16004803603604081101561010e57600080fd5b810190602081018135600160201b81111561012857600080fd5b82018360208201111561013a57600080fd5b803590602001918460018302840111600160201b8311171561015b57600080fd5b91908080601f0160208091040260200160405190810160405280939291908181526020018383808284376000920191909152509295505050903560ff1691506108699050565b60408051918252519081900360200190f35b61025f600480360360608110156101c957600080fd5b810190602081018135600160201b8111156101e357600080fd5b8201836020820111156101f557600080fd5b803590602001918460018302840111600160201b8311171561021657600080fd5b91908080601f0160208091040260200160405190810160405280939291908181526020018383808284376000920191909152509295505060ff83351693505050602001356108fa565b6040805160208082528351818301528351919283929083019185019080838360005b83811015610299578181015183820152602001610281565b50505050905090810190601f1680156102c65780820380516001836020036101000a031916815260200191505b509250505060405180910390f35b6100dc600480360360208110156102ea57600080fd5b5035610994565b6103976004803603604081101561030757600080fd5b810190602081018135600160201b81111561032157600080fd5b82018360208201111561033357600080fd5b803590602001918460018302840111600160201b8311171561035457600080fd5b91908080601f0160208091040260200160405190810160405280939291908181526020018383808284376000920191909152509295505091359250610997915050565b604080516001600160e01b03199092168252519081900360200190f35b6100dc600480360360208110156103ca57600080fd5b50356109fb565b6101a1600480360360608110156103e757600080fd5b810190602081018135600160201b81111561040157600080fd5b82018360208201111561041357600080fd5b803590602001918460018302840111600160201b8311171561043457600080fd5b91908080601f0160208091040260200160405190810160405280939291908181526020018383808284376000920191909152509295505060ff8335811694506020909301359092169150610bf29050565b61025f6004803603602081101561049b57600080fd5b810190602081018135600160201b8111156104b557600080fd5b8201836020820111156104c757600080fd5b803590602001918460018302840111600160201b831117156104e857600080fd5b91908080601f016020809104026020016040519081016040528093929190818152602001838380828437600092019190915250929550610cd0945050505050565b6101a16004803603604081101561053f57600080fd5b810190602081018135600160201b81111561055957600080fd5b82018360208201111561056b57600080fd5b803590602001918460018302840111600160201b8311171561058c57600080fd5b91908080601f0160208091040260200160405190810160405280939291908181526020018383808284376000920191909152509295505050903560ff169150610cf19050565b6101a1600480360360408110156105e857600080fd5b810190602081018135600160201b81111561060257600080fd5b82018360208201111561061457600080fd5b803590602001918460018302840111600160201b8311171561063557600080fd5b91908080601f0160208091040260200160405190810160405280939291908181526020018383808284376000920191909152509295505050903560ff169150610d089050565b6103976004803603602081101561069157600080fd5b810190602081018135600160201b8111156106ab57600080fd5b8201836020820111156106bd57600080fd5b803590602001918460018302840111600160201b831117156106de57600080fd5b91908080601f016020809104026020016040519081016040528093929190818152602001838380828437600092019190915250929550610d39945050505050565b6101a16004803603606081101561073557600080fd5b810190602081018135600160201b81111561074f57600080fd5b82018360208201111561076157600080fd5b803590602001918460018302840111600160201b8311171561078257600080fd5b91908080601f0160208091040260200160405190810160405280939291908181526020018383808284376000920191909152509295505082359350505060200135610d46565b610846600480360360408110156107de57600080fd5b6001600160a01b038235169190810190604081016020820135600160201b81111561080857600080fd5b82018360208201111561081a57600080fd5b803590602001918460018302840111600160201b8311171561083b57600080fd5b509092509050610dc7565b604080519115158252519081900360200190f35b6000546001600160a01b031681565b600080610881848460200260040160ff166020610d46565b9050600061089485600484016020610d46565b9050806108dd576040805162461bcd60e51b8152602060048201526012602482015271696e707574206973206e6f7420617272617960701b604482015290519081900360640190fd5b6108f1856020808402850160040190610d46565b95945050505050565b606060148210610942576040805162461bcd60e51b815260206004820152600e60248201526d1a5b9d985b1a59081bd9999cd95d60921b604482015290519081900360640190fd5b816020029150600061096185848660200260040160ff16016020610d46565b90506000610976868584016004016020610d46565b90506109888660248487010183611119565b925050505b9392505050565b90565b600081600401835110156109f2576040805162461bcd60e51b815260206004820152601b60248201527f52656164696e67206279746573206f7574206f6620626f756e64730000000000604482015290519081900360640190fd5b50016020015190565b60008054604080516321f8a72160e01b8152680a6f2dce8d0cae8d2f60bb1b6004820152905183926001600160a01b0316916321f8a721916024808301926020929190829003018186803b158015610a5257600080fd5b505afa158015610a66573d6000803e3d6000fd5b505050506040513d6020811015610a7c57600080fd5b505160408051633260803960e01b81526004810186905290516001600160a01b0390921691633260803991602480820192602092909190829003018186803b158015610ac757600080fd5b505afa158015610adb573d6000803e3d6000fd5b505050506040513d6020811015610af157600080fd5b505190506001600160a01b038116610b3e576040805162461bcd60e51b815260206004820152600b60248201526a696e76616c6964206b657960a81b604482015290519081900360640190fd5b6000816001600160a01b031663ec5568896040518163ffffffff1660e01b815260040160206040518083038186803b158015610b7957600080fd5b505afa158015610b8d573d6000803e3d6000fd5b505050506040513d6020811015610ba357600080fd5b505190506001600160a01b03811661098d576040805162461bcd60e51b815260206004820152600d60248201526c696e76616c69642070726f787960981b604482015290519081900360640190fd5b600080610c0a858560200260040160ff166020610d46565b90506000610c1d86600484016020610d46565b905080610c66576040805162461bcd60e51b8152602060048201526012602482015271696e707574206973206e6f7420617272617960701b604482015290519081900360640190fd5b60ff84168111610cb6576040805162461bcd60e51b815260206004820152601660248201527534b73b30b634b21030b93930bc903837b9b4ba34b7b760511b604482015290519081900360640190fd5b610988866020600160ff8816018102850160040190610d46565b6060610ceb600480845103846111199092919063ffffffff16565b92915050565b600061098d838360200260040160ff166020610d46565b600080610d20848460200260040160ff166020610d46565b9050610d3184600483016020610d46565b949350505050565b6000610ceb826000610997565b600081830184511015610da0576040805162461bcd60e51b815260206004820152601b60248201527f52656164696e67206279746573206f7574206f6620626f756e64730000000000604482015290519081900360640190fd5b826020018401519050816020038015610dbf576008810260020a820491505b509392505050565b600080610e0984848080601f016020809104026020016040519081016040528093929190818152602001838380828437600092019190915250610d3992505050565b90506001600160e01b0319811663018756bb60e51b141561110e576000610e6585858080601f01602080910402602001604051908101604052809392919081815260200183838082843760009201829052509250610cf1915050565b90506000610eab86868080601f01602080910402602001604051908101604052809392919081815260200183838082843760009201919091525060019250610cf1915050565b90506000610ef187878080601f01602080910402602001604051908101604052809392919081815260200183838082843760009201919091525060029250610cf1915050565b90506000610efe846109fb565b90506000610f0b836109fb565b905060008a9050806001600160a01b031663464b4158846040518263ffffffff1660e01b815260040180826001600160a01b0316815260200191505060206040518083038186803b158015610f5f57600080fd5b505afa158015610f73573d6000803e3d6000fd5b505050506040513d6020811015610f8957600080fd5b5051610fdc576040805162461bcd60e51b815260206004820152601d60248201527f756e737570706f727465642064657374696e6174696f6e206173736574000000604482015290519081900360640190fd5b806001600160a01b031663464b4158836040518263ffffffff1660e01b815260040180826001600160a01b0316815260200191505060206040518083038186803b15801561102957600080fd5b505afa15801561103d573d6000803e3d6000fd5b505050506040513d602081101561105357600080fd5b50516110a6576040805162461bcd60e51b815260206004820152601d60248201527f756e737570706f727465642064657374696e6174696f6e206173736574000000604482015290519081900360640190fd5b604080516001600160a01b03808416825280861660208301528183018890528416606082015242608082015290517fec43bc4dddba4c8ae8d4f92f53b39989eaf64022bec70471d105647e57c7891c9181900360a00190a1600197505050505050505061098d565b506000949350505050565b60608182601f011015611164576040805162461bcd60e51b815260206004820152600e60248201526d736c6963655f6f766572666c6f7760901b604482015290519081900360640190fd5b8282840110156111ac576040805162461bcd60e51b815260206004820152600e60248201526d736c6963655f6f766572666c6f7760901b604482015290519081900360640190fd5b818301845110156111f8576040805162461bcd60e51b8152602060048201526011602482015270736c6963655f6f75744f66426f756e647360781b604482015290519081900360640190fd5b6060821580156112175760405191506000825260208201604052611261565b6040519150601f8416801560200281840101858101878315602002848b0101015b81831015611250578051835260209283019201611238565b5050858452601f01601f1916604052505b5094935050505056fea26469706673582212202f7f3b6f4939155e4b0f1d828fcacf732bbe2817131e9935603209083331530864736f6c634300060c0033",
  "linkReferences": {},
  "deployedLinkReferences": {}
}