{
  "_format": "hh-sol-artifact-1",
  "contractName": "SynthetixGuard-ovm",
  "sourceName": "contracts/guards/SynthetixGuard.sol",
  "abi": [
    {
      "inputs": [
        {
          "internalType": "contract IAddressResolver",
          "name": "_addressResolver",
          "type": "address"
        }
      ],
      "stateMutability": "nonpayable",
      "type": "constructor"
    },
    {
      "anonymous": false,
      "inputs": [
        {
          "indexed": false,
          "internalType": "address",
          "name": "fundAddress",
          "type": "address"
        },
        {
          "indexed": false,
          "internalType": "address",
          "name": "sourceAsset",
          "type": "address"
        },
        {
          "indexed": false,
          "internalType": "uint256",
          "name": "sourceAmount",
          "type": "uint256"
        },
        {
          "indexed": false,
          "internalType": "address",
          "name": "destinationAddress",
          "type": "address"
        },
        {
          "indexed": false,
          "internalType": "uint256",
          "name": "time",
          "type": "uint256"
        }
      ],
      "name": "Exchange",
      "type": "event"
    },
    {
      "inputs": [],
      "name": "addressResolver",
      "outputs": [
        {
          "internalType": "contract IAddressResolver",
          "name": "",
          "type": "address"
        }
      ],
      "stateMutability": "view",
      "type": "function"
    },
    {
      "inputs": [
        {
          "internalType": "bytes32",
          "name": "data",
          "type": "bytes32"
        }
      ],
      "name": "convert32toAddress",
      "outputs": [
        {
          "internalType": "address",
          "name": "o",
          "type": "address"
        }
      ],
      "stateMutability": "pure",
      "type": "function"
    },
    {
      "inputs": [
        {
          "internalType": "bytes",
          "name": "data",
          "type": "bytes"
        },
        {
          "internalType": "uint8",
          "name": "inputNum",
          "type": "uint8"
        },
        {
          "internalType": "uint8",
          "name": "arrayIndex",
          "type": "uint8"
        }
      ],
      "name": "getArrayIndex",
      "outputs": [
        {
          "internalType": "bytes32",
          "name": "",
          "type": "bytes32"
        }
      ],
      "stateMutability": "pure",
      "type": "function"
    },
    {
      "inputs": [
        {
          "internalType": "bytes",
          "name": "data",
          "type": "bytes"
        },
        {
          "internalType": "uint8",
          "name": "inputNum",
          "type": "uint8"
        }
      ],
      "name": "getArrayLast",
      "outputs": [
        {
          "internalType": "bytes32",
          "name": "",
          "type": "bytes32"
        }
      ],
      "stateMutability": "pure",
      "type": "function"
    },
    {
      "inputs": [
        {
          "internalType": "bytes",
          "name": "data",
          "type": "bytes"
        },
        {
          "internalType": "uint8",
          "name": "inputNum",
          "type": "uint8"
        }
      ],
      "name": "getArrayLength",
      "outputs": [
        {
          "internalType": "uint256",
          "name": "",
          "type": "uint256"
        }
      ],
      "stateMutability": "pure",
      "type": "function"
    },
    {
      "inputs": [
        {
          "internalType": "bytes32",
          "name": "key",
          "type": "bytes32"
        }
      ],
      "name": "getAssetProxy",
      "outputs": [
        {
          "internalType": "address",
          "name": "",
          "type": "address"
        }
      ],
      "stateMutability": "view",
      "type": "function"
    },
    {
      "inputs": [
        {
          "internalType": "bytes",
          "name": "data",
          "type": "bytes"
        },
        {
          "internalType": "uint8",
          "name": "inputNum",
          "type": "uint8"
        },
        {
          "internalType": "uint256",
          "name": "offset",
          "type": "uint256"
        }
      ],
      "name": "getBytes",
      "outputs": [
        {
          "internalType": "bytes",
          "name": "",
          "type": "bytes"
        }
      ],
      "stateMutability": "pure",
      "type": "function"
    },
    {
      "inputs": [
        {
          "internalType": "bytes",
          "name": "data",
          "type": "bytes"
        },
        {
          "internalType": "uint8",
          "name": "inputNum",
          "type": "uint8"
        }
      ],
      "name": "getInput",
      "outputs": [
        {
          "internalType": "bytes32",
          "name": "",
          "type": "bytes32"
        }
      ],
      "stateMutability": "pure",
      "type": "function"
    },
    {
      "inputs": [
        {
          "internalType": "bytes",
          "name": "data",
          "type": "bytes"
        }
      ],
      "name": "getMethod",
      "outputs": [
        {
          "internalType": "bytes4",
          "name": "",
          "type": "bytes4"
        }
      ],
      "stateMutability": "pure",
      "type": "function"
    },
    {
      "inputs": [
        {
          "internalType": "bytes",
          "name": "data",
          "type": "bytes"
        }
      ],
      "name": "getParams",
      "outputs": [
        {
          "internalType": "bytes",
          "name": "",
          "type": "bytes"
        }
      ],
      "stateMutability": "pure",
      "type": "function"
    },
    {
      "inputs": [
        {
          "internalType": "bytes",
          "name": "data",
          "type": "bytes"
        },
        {
          "internalType": "uint256",
          "name": "offset",
          "type": "uint256"
        },
        {
          "internalType": "uint256",
          "name": "length",
          "type": "uint256"
        }
      ],
      "name": "read32",
      "outputs": [
        {
          "internalType": "bytes32",
          "name": "o",
          "type": "bytes32"
        }
      ],
      "stateMutability": "pure",
      "type": "function"
    },
    {
      "inputs": [
        {
          "internalType": "bytes",
          "name": "data",
          "type": "bytes"
        },
        {
          "internalType": "uint256",
          "name": "offset",
          "type": "uint256"
        }
      ],
      "name": "read4left",
      "outputs": [
        {
          "internalType": "bytes4",
          "name": "o",
          "type": "bytes4"
        }
      ],
      "stateMutability": "pure",
      "type": "function"
    },
    {
      "inputs": [
        {
          "internalType": "address",
          "name": "_poolManagerLogic",
          "type": "address"
        },
        {
          "internalType": "bytes",
          "name": "data",
          "type": "bytes"
        }
      ],
      "name": "txGuard",
      "outputs": [
        {
          "internalType": "bool",
          "name": "",
          "type": "bool"
        }
      ],
      "stateMutability": "nonpayable",
      "type": "function"
    }
  ],
  "bytecode": "0x60806040523480156200001c576000806200001962000097565b50505b5060405162001a4138038062001a41833981810160405260208110156200004d576000806200004a62000097565b50505b8101908080519250829150600090506001816200006962000104565b816001600160a01b0302191690836001600160a01b03160217906200008d62000166565b50505050620001b5565b632a2a7adb598160e01b8152600481016020815285602082015260005b86811015620000d1578086015182820160400152602001620000b4565b506020828760640184336000905af158600e01573d6000803e3d6000fd5b3d6001141558600a015760016000f35b505050565b6303daa959598160e01b8152836004820152602081602483336000905af158600e01573d6000803e3d6000fd5b3d6001141558600a015760016000f35b8051935060005b6040811015620001615760008282015260200162000148565b505050565b6322bd64c0598160e01b8152836004820152846024820152600081604483336000905af158600e01573d6000803e3d6000fd5b3d6001141558600a015760016000f35b60008152602062000148565b61187c80620001c56000396000f3fe608060405234801561001957600080610016611634565b50505b50600436106100d85760003560e01c806341dc16c311610095578063998546e31161006f578063998546e3146106ca578063c3c6279f14610796578063db896b571461085d578063e23ff43714610929576100d8565b806341dc16c314610460578063689015131461053757806382f86acc146105fe576100d8565b806305a2ee2a146100e657806309ff5c7d1461010a5780631053f952146101e85780631eba30771461032e578063293d8063146103545780633ded65301461043a575b6000806100e3611634565b50505b6100ee6109df565b6040516001600160a01b03909116815260200160405180910390f35b6101d66004803603604081101561012957600080610126611634565b50505b810190602081018135600160201b81111561014c57600080610149611634565b50505b82018360208201111561016757600080610164611634565b50505b803590602001918460018302840111600160201b831117156101915760008061018e611634565b50505b91908080601f01602080910402602001604051908101604052818152929190602084018383808284376000920191909152509295505050903560ff1691506109fd9050565b60405190815260200160405180910390f35b6102b76004803603606081101561020757600080610204611634565b50505b810190602081018135600160201b81111561022a57600080610227611634565b50505b82018360208201111561024557600080610242611634565b50505b803590602001918460018302840111600160201b8311171561026f5760008061026c611634565b50505b91908080601f01602080910402602001604051908101604052818152929190602084018383808284376000920191909152509295505060ff8335169350505060200135610a98565b60405160208082528190810183818151815260200191508051906020019080838360005b838110156102f35780820151838201526020016102db565b50505050905090810190601f1680156103205780820380516001836020036101000a031916815260200191505b509250505060405180910390f35b6100ee6004803603602081101561034d5760008061034a611634565b50505b5035610b3a565b61041d6004803603604081101561037357600080610370611634565b50505b810190602081018135600160201b81111561039657600080610393611634565b50505b8201836020820111156103b1576000806103ae611634565b50505b803590602001918460018302840111600160201b831117156103db576000806103d8611634565b50505b91908080601f01602080910402602001604051908101604052818152929190602084018383808284376000920191909152509295505091359250610b3d915050565b6040516001600160e01b0319909116815260200160405180910390f35b6100ee6004803603602081101561045957600080610456611634565b50505b5035610bae565b6101d66004803603606081101561047f5760008061047c611634565b50505b810190602081018135600160201b8111156104a25760008061049f611634565b50505b8201836020820111156104bd576000806104ba611634565b50505b803590602001918460018302840111600160201b831117156104e7576000806104e4611634565b50505b91908080601f01602080910402602001604051908101604052818152929190602084018383808284376000920191909152509295505060ff8335811694506020909301359092169150610e739050565b6102b76004803603602081101561055657600080610553611634565b50505b810190602081018135600160201b81111561057957600080610576611634565b50505b82018360208201111561059457600080610591611634565b50505b803590602001918460018302840111600160201b831117156105be576000806105bb611634565b50505b91908080601f0160208091040260200160405190810160405281815292919060208401838380828437600092019190915250929550610f61945050505050565b6101d66004803603604081101561061d5760008061061a611634565b50505b810190602081018135600160201b8111156106405760008061063d611634565b50505b82018360208201111561065b57600080610658611634565b50505b803590602001918460018302840111600160201b8311171561068557600080610682611634565b50505b91908080601f01602080910402602001604051908101604052818152929190602084018383808284376000920191909152509295505050903560ff169150610f759050565b6101d6600480360360408110156106e9576000806106e6611634565b50505b810190602081018135600160201b81111561070c57600080610709611634565b50505b82018360208201111561072757600080610724611634565b50505b803590602001918460018302840111600160201b831117156107515760008061074e611634565b50505b91908080601f01602080910402602001604051908101604052818152929190602084018383808284376000920191909152509295505050903560ff169150610f8c9050565b61041d600480360360208110156107b5576000806107b2611634565b50505b810190602081018135600160201b8111156107d8576000806107d5611634565b50505b8201836020820111156107f3576000806107f0611634565b50505b803590602001918460018302840111600160201b8311171561081d5760008061081a611634565b50505b91908080601f0160208091040260200160405190810160405281815292919060208401838380828437600092019190915250929550610fbd945050505050565b6101d66004803603606081101561087c57600080610879611634565b50505b810190602081018135600160201b81111561089f5760008061089c611634565b50505b8201836020820111156108ba576000806108b7611634565b50505b803590602001918460018302840111600160201b831117156108e4576000806108e1611634565b50505b91908080601f01602080910402602001604051908101604052818152929190602084018383808284376000920191909152509295505082359350505060200135610fca565b6109cb6004803603604081101561094857600080610945611634565b50505b6001600160a01b038235169190810190604081016020820135600160201b81111561097b57600080610978611634565b50505b82018360208201111561099657600080610993611634565b50505b803590602001918460018302840111600160201b831117156109c0576000806109bd611634565b50505b509092509050611053565b604051901515815260200160405180910390f35b6000806109ea61169f565b906101000a90046001600160a01b031681565b600080610a15848460200260040160ff166020610fca565b90506000610a2885600484016020610fca565b905080610a795760405162461bcd60e51b8152602060048201526012602482015271696e707574206973206e6f7420617272617960701b604482015260640160405180910390610a76611634565b50505b610a8d856020808402850160040190610fca565b925050505b92915050565b606060148210610ae85760405162461bcd60e51b815260206004820152600e60248201526d1a5b9d985b1a59081bd9999cd95d60921b604482015260640160405180910390610ae5611634565b50505b8160200291506000610b0785848660200260040160ff16016020610fca565b90506000610b1c868584016004016020610fca565b9050610b2e86602484870101836114cb565b925050505b9392505050565b90565b60008160040183511015610ba05760405162461bcd60e51b815260206004820152601b60248201527f52656164696e67206279746573206f7574206f6620626f756e64730000000000604482015260640160405180910390610b9d611634565b50505b816020018301519392505050565b600080600080610bbc61169f565b906101000a90046001600160a01b03166001600160a01b03166321f8a721680a6f2dce8d0cae8d2f60bb1b6040516001600160e01b031960e084901b16815260048101919091526024016020604051808303818680610c196116ff565b158015610c2e57600080610c2b611634565b50505b505a610c3861174b565b5050505050158015610c57573d6000803e3d6000610c54611634565b50505b505050506040513d6020811015610c7657600080610c73611634565b50505b8101908080516001600160a01b03169250633260803991508590506040516001600160e01b031960e084901b16815260048101919091526024016020604051808303818680610cc36116ff565b158015610cd857600080610cd5611634565b50505b505a610ce261174b565b5050505050158015610d01573d6000803e3d6000610cfe611634565b50505b505050506040513d6020811015610d2057600080610d1d611634565b50505b81019080805193505050506001600160a01b038116610d7c5760405162461bcd60e51b815260206004820152600b60248201526a696e76616c6964206b657960a81b604482015260640160405180910390610d79611634565b50505b6000816001600160a01b031663ec5568896040518163ffffffff1660e01b81526004016020604051808303818680610db26116ff565b158015610dc757600080610dc4611634565b50505b505a610dd161174b565b5050505050158015610df0573d6000803e3d6000610ded611634565b50505b505050506040513d6020811015610e0f57600080610e0c611634565b50505b81019080805193505050506001600160a01b038116610b335760405162461bcd60e51b815260206004820152600d60248201526c696e76616c69642070726f787960981b604482015260640160405180910390610e6a611634565b50509392505050565b600080610e8b858560200260040160ff166020610fca565b90506000610e9e86600484016020610fca565b905080610eef5760405162461bcd60e51b8152602060048201526012602482015271696e707574206973206e6f7420617272617960701b604482015260640160405180910390610eec611634565b50505b60ff84168111610f475760405162461bcd60e51b815260206004820152601660248201527534b73b30b634b21030b93930bc903837b9b4ba34b7b760511b604482015260640160405180910390610f44611634565b50505b610b2e866020600160ff8816018102850160040190610fca565b6060610a92600480845185929190036114cb565b6000610b33838360200260040160ff166020610fca565b600080610fa4848460200260040160ff166020610fca565b9050610fb584600483016020610fca565b949350505050565b6000610a92826000610b3d565b60008183018451101561102c5760405162461bcd60e51b815260206004820152601b60248201527f52656164696e67206279746573206f7574206f6620626f756e64730000000000604482015260640160405180910390611029611634565b50505b82602001840151905081602003801561104b576008810260020a820491505b509392505050565b60008061109484848080601f0160208091040260200160405190810160405281815292919060208401838380828437600092019190915250610fbd92505050565b90506001600160e01b0319811663018756bb60e51b14156114c05760006110ef85858080601f016020809104026020016040519081016040528181529291906020840183838082843760009201829052509250610f75915050565b9050600061113486868080601f016020809104026020016040519081016040528181529291906020840183838082843760009201919091525060019250610f75915050565b9050600061117987878080601f016020809104026020016040519081016040528181529291906020840183838082843760009201919091525060029250610f75915050565b9050600061118684610bae565b9050600061119383610bae565b9050896001600160a01b038116639be918e6846040516001600160e01b031960e084901b1681526001600160a01b03909116600482015260240160206040518083038186806111e06116ff565b1580156111f5576000806111f2611634565b50505b505a6111ff61174b565b505050505015801561121e573d6000803e3d600061121b611634565b50505b505050506040513d602081101561123d5760008061123a611634565b50505b81019080805192506112a19150505760405162461bcd60e51b815260206004820152601d60248201527f756e737570706f727465642064657374696e6174696f6e20617373657400000060448201526064016040518091039061129e611634565b50505b806001600160a01b0316639be918e6836040516001600160e01b031960e084901b1681526001600160a01b03909116600482015260240160206040518083038186806112eb6116ff565b158015611300576000806112fd611634565b50505b505a61130a61174b565b5050505050158015611329573d6000803e3d6000611326611634565b50505b505050506040513d602081101561134857600080611345611634565b50505b81019080805192506113ac9150505760405162461bcd60e51b815260206004820152601d60248201527f756e737570706f727465642064657374696e6174696f6e2061737365740000006044820152606401604051809103906113a9611634565b50505b7fec43bc4dddba4c8ae8d4f92f53b39989eaf64022bec70471d105647e57c7891c816001600160a01b03166339b81fd96040518163ffffffff1660e01b815260040160206040518083038186806114016116ff565b15801561141657600080611413611634565b50505b505a61142061174b565b505050505015801561143f573d6000803e3d600061143c611634565b50505b505050506040513d602081101561145e5760008061145b611634565b50505b8101908080519250869150889050855a611476611836565b6040516001600160a01b039586168152938516602085015260408085019390935293166060830152608082019290925260a001905180910390a16001975050505050505050610b33565b506000949350505050565b60608182601f01101561151e5760405162461bcd60e51b815260206004820152600e60248201526d736c6963655f6f766572666c6f7760901b60448201526064016040518091039061151b611634565b50505b82828401101561156e5760405162461bcd60e51b815260206004820152600e60248201526d736c6963655f6f766572666c6f7760901b60448201526064016040518091039061156b611634565b50505b818301845110156115c25760405162461bcd60e51b8152602060048201526011602482015270736c6963655f6f75744f66426f756e647360781b6044820152606401604051809103906115bf611634565b50505b6060821580156115e1576040519150600082526020820160405261162b565b6040519150601f8416801560200281840101858101878315602002848b0101015b8183101561161a578051835260209283019201611602565b5050858452601f01601f1916604052505b50949350505050565b632a2a7adb598160e01b8152600481016020815285602082015260005b8681101561166c578086015182820160400152602001611651565b506020828760640184336000905af158600e01573d6000803e3d6000fd5b3d6001141558600a015760016000f35b505050565b6303daa959598160e01b8152836004820152602081602483336000905af158600e01573d6000803e3d6000fd5b3d6001141558600a015760016000f35b8051935060005b60408110156116fa576000828201526020016116e3565b505050565b638435035b598160e01b8152836004820152602081602483336000905af158600e01573d6000803e3d6000fd5b3d6001141558600a015760016000f35b805160008252935060206116e3565b638540661f598160e01b815261177c565b8080831115610a92575090919050565b8080831015610a92575090919050565b836004820152846024820152606060448201528660648201526084810160005b888110156117b457808801518282015260200161179c565b506060828960a40184336000905af158600e01573d6000803e3d6000fd5b3d6001141558600a015760016000f35b815160408301513d6000853e8b8b82606087013350600060045af150596118098d3d61176c565b8c01611815818761175c565b5b8281101561182a5760008152602001611816565b50929c50505050505050565b63bdbf8c36598160e01b8152602081600483336000905af158600e01573d6000803e3d6000fd5b3d6001141558600a015760016000f35b805160008252935060206116e356",
  "deployedBytecode": "0x608060405234801561001957600080610016611634565b50505b50600436106100d85760003560e01c806341dc16c311610095578063998546e31161006f578063998546e3146106ca578063c3c6279f14610796578063db896b571461085d578063e23ff43714610929576100d8565b806341dc16c314610460578063689015131461053757806382f86acc146105fe576100d8565b806305a2ee2a146100e657806309ff5c7d1461010a5780631053f952146101e85780631eba30771461032e578063293d8063146103545780633ded65301461043a575b6000806100e3611634565b50505b6100ee6109df565b6040516001600160a01b03909116815260200160405180910390f35b6101d66004803603604081101561012957600080610126611634565b50505b810190602081018135600160201b81111561014c57600080610149611634565b50505b82018360208201111561016757600080610164611634565b50505b803590602001918460018302840111600160201b831117156101915760008061018e611634565b50505b91908080601f01602080910402602001604051908101604052818152929190602084018383808284376000920191909152509295505050903560ff1691506109fd9050565b60405190815260200160405180910390f35b6102b76004803603606081101561020757600080610204611634565b50505b810190602081018135600160201b81111561022a57600080610227611634565b50505b82018360208201111561024557600080610242611634565b50505b803590602001918460018302840111600160201b8311171561026f5760008061026c611634565b50505b91908080601f01602080910402602001604051908101604052818152929190602084018383808284376000920191909152509295505060ff8335169350505060200135610a98565b60405160208082528190810183818151815260200191508051906020019080838360005b838110156102f35780820151838201526020016102db565b50505050905090810190601f1680156103205780820380516001836020036101000a031916815260200191505b509250505060405180910390f35b6100ee6004803603602081101561034d5760008061034a611634565b50505b5035610b3a565b61041d6004803603604081101561037357600080610370611634565b50505b810190602081018135600160201b81111561039657600080610393611634565b50505b8201836020820111156103b1576000806103ae611634565b50505b803590602001918460018302840111600160201b831117156103db576000806103d8611634565b50505b91908080601f01602080910402602001604051908101604052818152929190602084018383808284376000920191909152509295505091359250610b3d915050565b6040516001600160e01b0319909116815260200160405180910390f35b6100ee6004803603602081101561045957600080610456611634565b50505b5035610bae565b6101d66004803603606081101561047f5760008061047c611634565b50505b810190602081018135600160201b8111156104a25760008061049f611634565b50505b8201836020820111156104bd576000806104ba611634565b50505b803590602001918460018302840111600160201b831117156104e7576000806104e4611634565b50505b91908080601f01602080910402602001604051908101604052818152929190602084018383808284376000920191909152509295505060ff8335811694506020909301359092169150610e739050565b6102b76004803603602081101561055657600080610553611634565b50505b810190602081018135600160201b81111561057957600080610576611634565b50505b82018360208201111561059457600080610591611634565b50505b803590602001918460018302840111600160201b831117156105be576000806105bb611634565b50505b91908080601f0160208091040260200160405190810160405281815292919060208401838380828437600092019190915250929550610f61945050505050565b6101d66004803603604081101561061d5760008061061a611634565b50505b810190602081018135600160201b8111156106405760008061063d611634565b50505b82018360208201111561065b57600080610658611634565b50505b803590602001918460018302840111600160201b8311171561068557600080610682611634565b50505b91908080601f01602080910402602001604051908101604052818152929190602084018383808284376000920191909152509295505050903560ff169150610f759050565b6101d6600480360360408110156106e9576000806106e6611634565b50505b810190602081018135600160201b81111561070c57600080610709611634565b50505b82018360208201111561072757600080610724611634565b50505b803590602001918460018302840111600160201b831117156107515760008061074e611634565b50505b91908080601f01602080910402602001604051908101604052818152929190602084018383808284376000920191909152509295505050903560ff169150610f8c9050565b61041d600480360360208110156107b5576000806107b2611634565b50505b810190602081018135600160201b8111156107d8576000806107d5611634565b50505b8201836020820111156107f3576000806107f0611634565b50505b803590602001918460018302840111600160201b8311171561081d5760008061081a611634565b50505b91908080601f0160208091040260200160405190810160405281815292919060208401838380828437600092019190915250929550610fbd945050505050565b6101d66004803603606081101561087c57600080610879611634565b50505b810190602081018135600160201b81111561089f5760008061089c611634565b50505b8201836020820111156108ba576000806108b7611634565b50505b803590602001918460018302840111600160201b831117156108e4576000806108e1611634565b50505b91908080601f01602080910402602001604051908101604052818152929190602084018383808284376000920191909152509295505082359350505060200135610fca565b6109cb6004803603604081101561094857600080610945611634565b50505b6001600160a01b038235169190810190604081016020820135600160201b81111561097b57600080610978611634565b50505b82018360208201111561099657600080610993611634565b50505b803590602001918460018302840111600160201b831117156109c0576000806109bd611634565b50505b509092509050611053565b604051901515815260200160405180910390f35b6000806109ea61169f565b906101000a90046001600160a01b031681565b600080610a15848460200260040160ff166020610fca565b90506000610a2885600484016020610fca565b905080610a795760405162461bcd60e51b8152602060048201526012602482015271696e707574206973206e6f7420617272617960701b604482015260640160405180910390610a76611634565b50505b610a8d856020808402850160040190610fca565b925050505b92915050565b606060148210610ae85760405162461bcd60e51b815260206004820152600e60248201526d1a5b9d985b1a59081bd9999cd95d60921b604482015260640160405180910390610ae5611634565b50505b8160200291506000610b0785848660200260040160ff16016020610fca565b90506000610b1c868584016004016020610fca565b9050610b2e86602484870101836114cb565b925050505b9392505050565b90565b60008160040183511015610ba05760405162461bcd60e51b815260206004820152601b60248201527f52656164696e67206279746573206f7574206f6620626f756e64730000000000604482015260640160405180910390610b9d611634565b50505b816020018301519392505050565b600080600080610bbc61169f565b906101000a90046001600160a01b03166001600160a01b03166321f8a721680a6f2dce8d0cae8d2f60bb1b6040516001600160e01b031960e084901b16815260048101919091526024016020604051808303818680610c196116ff565b158015610c2e57600080610c2b611634565b50505b505a610c3861174b565b5050505050158015610c57573d6000803e3d6000610c54611634565b50505b505050506040513d6020811015610c7657600080610c73611634565b50505b8101908080516001600160a01b03169250633260803991508590506040516001600160e01b031960e084901b16815260048101919091526024016020604051808303818680610cc36116ff565b158015610cd857600080610cd5611634565b50505b505a610ce261174b565b5050505050158015610d01573d6000803e3d6000610cfe611634565b50505b505050506040513d6020811015610d2057600080610d1d611634565b50505b81019080805193505050506001600160a01b038116610d7c5760405162461bcd60e51b815260206004820152600b60248201526a696e76616c6964206b657960a81b604482015260640160405180910390610d79611634565b50505b6000816001600160a01b031663ec5568896040518163ffffffff1660e01b81526004016020604051808303818680610db26116ff565b158015610dc757600080610dc4611634565b50505b505a610dd161174b565b5050505050158015610df0573d6000803e3d6000610ded611634565b50505b505050506040513d6020811015610e0f57600080610e0c611634565b50505b81019080805193505050506001600160a01b038116610b335760405162461bcd60e51b815260206004820152600d60248201526c696e76616c69642070726f787960981b604482015260640160405180910390610e6a611634565b50509392505050565b600080610e8b858560200260040160ff166020610fca565b90506000610e9e86600484016020610fca565b905080610eef5760405162461bcd60e51b8152602060048201526012602482015271696e707574206973206e6f7420617272617960701b604482015260640160405180910390610eec611634565b50505b60ff84168111610f475760405162461bcd60e51b815260206004820152601660248201527534b73b30b634b21030b93930bc903837b9b4ba34b7b760511b604482015260640160405180910390610f44611634565b50505b610b2e866020600160ff8816018102850160040190610fca565b6060610a92600480845185929190036114cb565b6000610b33838360200260040160ff166020610fca565b600080610fa4848460200260040160ff166020610fca565b9050610fb584600483016020610fca565b949350505050565b6000610a92826000610b3d565b60008183018451101561102c5760405162461bcd60e51b815260206004820152601b60248201527f52656164696e67206279746573206f7574206f6620626f756e64730000000000604482015260640160405180910390611029611634565b50505b82602001840151905081602003801561104b576008810260020a820491505b509392505050565b60008061109484848080601f0160208091040260200160405190810160405281815292919060208401838380828437600092019190915250610fbd92505050565b90506001600160e01b0319811663018756bb60e51b14156114c05760006110ef85858080601f016020809104026020016040519081016040528181529291906020840183838082843760009201829052509250610f75915050565b9050600061113486868080601f016020809104026020016040519081016040528181529291906020840183838082843760009201919091525060019250610f75915050565b9050600061117987878080601f016020809104026020016040519081016040528181529291906020840183838082843760009201919091525060029250610f75915050565b9050600061118684610bae565b9050600061119383610bae565b9050896001600160a01b038116639be918e6846040516001600160e01b031960e084901b1681526001600160a01b03909116600482015260240160206040518083038186806111e06116ff565b1580156111f5576000806111f2611634565b50505b505a6111ff61174b565b505050505015801561121e573d6000803e3d600061121b611634565b50505b505050506040513d602081101561123d5760008061123a611634565b50505b81019080805192506112a19150505760405162461bcd60e51b815260206004820152601d60248201527f756e737570706f727465642064657374696e6174696f6e20617373657400000060448201526064016040518091039061129e611634565b50505b806001600160a01b0316639be918e6836040516001600160e01b031960e084901b1681526001600160a01b03909116600482015260240160206040518083038186806112eb6116ff565b158015611300576000806112fd611634565b50505b505a61130a61174b565b5050505050158015611329573d6000803e3d6000611326611634565b50505b505050506040513d602081101561134857600080611345611634565b50505b81019080805192506113ac9150505760405162461bcd60e51b815260206004820152601d60248201527f756e737570706f727465642064657374696e6174696f6e2061737365740000006044820152606401604051809103906113a9611634565b50505b7fec43bc4dddba4c8ae8d4f92f53b39989eaf64022bec70471d105647e57c7891c816001600160a01b03166339b81fd96040518163ffffffff1660e01b815260040160206040518083038186806114016116ff565b15801561141657600080611413611634565b50505b505a61142061174b565b505050505015801561143f573d6000803e3d600061143c611634565b50505b505050506040513d602081101561145e5760008061145b611634565b50505b8101908080519250869150889050855a611476611836565b6040516001600160a01b039586168152938516602085015260408085019390935293166060830152608082019290925260a001905180910390a16001975050505050505050610b33565b506000949350505050565b60608182601f01101561151e5760405162461bcd60e51b815260206004820152600e60248201526d736c6963655f6f766572666c6f7760901b60448201526064016040518091039061151b611634565b50505b82828401101561156e5760405162461bcd60e51b815260206004820152600e60248201526d736c6963655f6f766572666c6f7760901b60448201526064016040518091039061156b611634565b50505b818301845110156115c25760405162461bcd60e51b8152602060048201526011602482015270736c6963655f6f75744f66426f756e647360781b6044820152606401604051809103906115bf611634565b50505b6060821580156115e1576040519150600082526020820160405261162b565b6040519150601f8416801560200281840101858101878315602002848b0101015b8183101561161a578051835260209283019201611602565b5050858452601f01601f1916604052505b50949350505050565b632a2a7adb598160e01b8152600481016020815285602082015260005b8681101561166c578086015182820160400152602001611651565b506020828760640184336000905af158601d01573d60011458600c01573d6000803e3d621234565260ea61109c52505050565b6303daa959598160e01b8152836004820152602081602483336000905af158601d01573d60011458600c01573d6000803e3d621234565260ea61109c528051935060005b60408110156116fa576000828201526020016116e3565b505050565b638435035b598160e01b8152836004820152602081602483336000905af158601d01573d60011458600c01573d6000803e3d621234565260ea61109c52805160008252935060206116e3565b638540661f598160e01b815261177c565b8080831115610a92575090919050565b8080831015610a92575090919050565b836004820152846024820152606060448201528660648201526084810160005b888110156117b457808801518282015260200161179c565b506060828960a40184336000905af158601d01573d60011458600c01573d6000803e3d621234565260ea61109c52815160408301513d6000853e8b8b82606087013350600060045af150596118098d3d61176c565b8c01611815818761175c565b5b8281101561182a5760008152602001611816565b50929c50505050505050565b63bdbf8c36598160e01b8152602081600483336000905af158601d01573d60011458600c01573d6000803e3d621234565260ea61109c52805160008252935060206116e356",
  "linkReferences": {},
  "deployedLinkReferences": {}
}