{
  "_format": "hh-sol-artifact-1",
  "contractName": "SynthetixGuard-ovm",
  "sourceName": "contracts/guards/SynthetixGuard.sol",
  "abi": [
    {
      "anonymous": false,
      "inputs": [
        {
          "indexed": false,
          "internalType": "address",
          "name": "fundAddress",
          "type": "address"
        },
        {
          "indexed": false,
          "internalType": "address",
          "name": "manager",
          "type": "address"
        },
        {
          "indexed": false,
          "internalType": "address",
          "name": "sourceAsset",
          "type": "address"
        },
        {
          "indexed": false,
          "internalType": "uint256",
          "name": "sourceAmount",
          "type": "uint256"
        },
        {
          "indexed": false,
          "internalType": "address",
          "name": "destinationAddress",
          "type": "address"
        },
        {
          "indexed": false,
          "internalType": "uint256",
          "name": "time",
          "type": "uint256"
        }
      ],
      "name": "Exchange",
      "type": "event"
    },
    {
      "inputs": [
        {
          "internalType": "bytes32",
          "name": "data",
          "type": "bytes32"
        }
      ],
      "name": "convert32toAddress",
      "outputs": [
        {
          "internalType": "address",
          "name": "o",
          "type": "address"
        }
      ],
      "stateMutability": "pure",
      "type": "function"
    },
    {
      "inputs": [
        {
          "internalType": "bytes",
          "name": "data",
          "type": "bytes"
        },
        {
          "internalType": "uint8",
          "name": "inputNum",
          "type": "uint8"
        },
        {
          "internalType": "uint8",
          "name": "arrayIndex",
          "type": "uint8"
        }
      ],
      "name": "getArrayIndex",
      "outputs": [
        {
          "internalType": "bytes32",
          "name": "",
          "type": "bytes32"
        }
      ],
      "stateMutability": "pure",
      "type": "function"
    },
    {
      "inputs": [
        {
          "internalType": "bytes",
          "name": "data",
          "type": "bytes"
        },
        {
          "internalType": "uint8",
          "name": "inputNum",
          "type": "uint8"
        }
      ],
      "name": "getArrayLast",
      "outputs": [
        {
          "internalType": "bytes32",
          "name": "",
          "type": "bytes32"
        }
      ],
      "stateMutability": "pure",
      "type": "function"
    },
    {
      "inputs": [
        {
          "internalType": "bytes",
          "name": "data",
          "type": "bytes"
        },
        {
          "internalType": "uint8",
          "name": "inputNum",
          "type": "uint8"
        }
      ],
      "name": "getArrayLength",
      "outputs": [
        {
          "internalType": "uint256",
          "name": "",
          "type": "uint256"
        }
      ],
      "stateMutability": "pure",
      "type": "function"
    },
    {
      "inputs": [
        {
          "internalType": "bytes",
          "name": "data",
          "type": "bytes"
        },
        {
          "internalType": "uint8",
          "name": "inputNum",
          "type": "uint8"
        }
      ],
      "name": "getInput",
      "outputs": [
        {
          "internalType": "bytes32",
          "name": "",
          "type": "bytes32"
        }
      ],
      "stateMutability": "pure",
      "type": "function"
    },
    {
      "inputs": [
        {
          "internalType": "bytes",
          "name": "data",
          "type": "bytes"
        }
      ],
      "name": "getMethod",
      "outputs": [
        {
          "internalType": "bytes4",
          "name": "",
          "type": "bytes4"
        }
      ],
      "stateMutability": "pure",
      "type": "function"
    },
    {
      "inputs": [
        {
          "internalType": "bytes",
          "name": "data",
          "type": "bytes"
        },
        {
          "internalType": "uint256",
          "name": "offset",
          "type": "uint256"
        },
        {
          "internalType": "uint256",
          "name": "length",
          "type": "uint256"
        }
      ],
      "name": "read32",
      "outputs": [
        {
          "internalType": "bytes32",
          "name": "o",
          "type": "bytes32"
        }
      ],
      "stateMutability": "pure",
      "type": "function"
    },
    {
      "inputs": [
        {
          "internalType": "bytes",
          "name": "data",
          "type": "bytes"
        },
        {
          "internalType": "uint256",
          "name": "offset",
          "type": "uint256"
        },
        {
          "internalType": "uint256",
          "name": "length",
          "type": "uint256"
        }
      ],
      "name": "read4left",
      "outputs": [
        {
          "internalType": "bytes4",
          "name": "o",
          "type": "bytes4"
        }
      ],
      "stateMutability": "pure",
      "type": "function"
    },
    {
      "inputs": [
        {
          "internalType": "address",
          "name": "pool",
          "type": "address"
        },
        {
          "internalType": "bytes",
          "name": "data",
          "type": "bytes"
        }
      ],
      "name": "txGuard",
      "outputs": [
        {
          "internalType": "bool",
          "name": "",
          "type": "bool"
        }
      ],
      "stateMutability": "nonpayable",
      "type": "function"
    }
  ],
  "bytecode": "0x60806040523480156100195760008061001661001f565b50505b5061008a565b632a2a7adb598160e01b8152600481016020815285602082015260005b8681101561005757808601518282016040015260200161003c565b506020828760640184336000905af158600e01573d6000803e3d6000fd5b3d6001141558600a015760016000f35b505050565b611225806100996000396000f3fe608060405234801561001957600080610016611029565b50505b506004361061009c5760003560e01c806382f86acc1161006f57806382f86acc1461038a578063998546e314610456578063c3c6279f14610522578063db896b57146105e9578063e23ff437146106b55761009c565b806309ff5c7d146100aa5780631eba30771461018857806341dc16c3146101ca578063568b5a2f146102a1575b6000806100a7611029565b50505b610176600480360360408110156100c9576000806100c6611029565b50505b810190602081018135600160201b8111156100ec576000806100e9611029565b50505b82018360208201111561010757600080610104611029565b50505b803590602001918460018302840111600160201b831117156101315760008061012e611029565b50505b91908080601f01602080910402602001604051908101604052818152929190602084018383808284376000920191909152509295505050903560ff16915061076b9050565b60405190815260200160405180910390f35b6101ae600480360360208110156101a7576000806101a4611029565b50505b5035610806565b6040516001600160a01b03909116815260200160405180910390f35b610176600480360360608110156101e9576000806101e6611029565b50505b810190602081018135600160201b81111561020c57600080610209611029565b50505b82018360208201111561022757600080610224611029565b50505b803590602001918460018302840111600160201b831117156102515760008061024e611029565b50505b91908080601f01602080910402602001604051908101604052818152929190602084018383808284376000920191909152509295505060ff83358116945060209093013590921691506108099050565b61036d600480360360608110156102c0576000806102bd611029565b50505b810190602081018135600160201b8111156102e3576000806102e0611029565b50505b8201836020820111156102fe576000806102fb611029565b50505b803590602001918460018302840111600160201b8311171561032857600080610325611029565b50505b91908080601f01602080910402602001604051908101604052818152929190602084018383808284376000920191909152509295505082359350505060200135610903565b6040516001600160e01b0319909116815260200160405180910390f35b610176600480360360408110156103a9576000806103a6611029565b50505b810190602081018135600160201b8111156103cc576000806103c9611029565b50505b8201836020820111156103e7576000806103e4611029565b50505b803590602001918460018302840111600160201b831117156104115760008061040e611029565b50505b91908080601f01602080910402602001604051908101604052818152929190602084018383808284376000920191909152509295505050903560ff16915061098c9050565b6101766004803603604081101561047557600080610472611029565b50505b810190602081018135600160201b81111561049857600080610495611029565b50505b8201836020820111156104b3576000806104b0611029565b50505b803590602001918460018302840111600160201b831117156104dd576000806104da611029565b50505b91908080601f01602080910402602001604051908101604052818152929190602084018383808284376000920191909152509295505050903560ff1691506109a39050565b61036d600480360360208110156105415760008061053e611029565b50505b810190602081018135600160201b81111561056457600080610561611029565b50505b82018360208201111561057f5760008061057c611029565b50505b803590602001918460018302840111600160201b831117156105a9576000806105a6611029565b50505b91908080601f01602080910402602001604051908101604052818152929190602084018383808284376000920191909152509295506109d4945050505050565b6101766004803603606081101561060857600080610605611029565b50505b810190602081018135600160201b81111561062b57600080610628611029565b50505b82018360208201111561064657600080610643611029565b50505b803590602001918460018302840111600160201b831117156106705760008061066d611029565b50505b91908080601f016020809104026020016040519081016040528181529291906020840183838082843760009201919091525092955050823593505050602001356109e3565b610757600480360360408110156106d4576000806106d1611029565b50505b6001600160a01b038235169190810190604081016020820135600160201b81111561070757600080610704611029565b50505b8201836020820111156107225760008061071f611029565b50505b803590602001918460018302840111600160201b8311171561074c57600080610749611029565b50505b509092509050610a67565b604051901515815260200160405180910390f35b600080610783848460200260040160ff1660206109e3565b90506000610796856004840160206109e3565b9050806107e75760405162461bcd60e51b8152602060048201526012602482015271696e707574206973206e6f7420617272617960701b6044820152606401604051809103906107e4611029565b50505b6107fb8560208084028501600401906109e3565b925050505b92915050565b90565b600080610821858560200260040160ff1660206109e3565b90506000610834866004840160206109e3565b9050806108855760405162461bcd60e51b8152602060048201526012602482015271696e707574206973206e6f7420617272617960701b604482015260640160405180910390610882611029565b50505b60ff841681116108dd5760405162461bcd60e51b815260206004820152601660248201527534b73b30b634b21030b93930bc903837b9b4ba34b7b760511b6044820152606401604051809103906108da611029565b50505b6108f7866020600160ff88160181028501600401906109e3565b925050505b9392505050565b6000818301845110156109655760405162461bcd60e51b815260206004820152601b60248201527f52656164696e67206279746573206f7574206f6620626f756e64730000000000604482015260640160405180910390610962611029565b50505b826020018401519050816004038015610984576008810260020a820491505b509392505050565b60006108fc838360200260040160ff1660206109e3565b6000806109bb848460200260040160ff1660206109e3565b90506109cc846004830160206109e3565b949350505050565b60006108008260006004610903565b600081830184511015610a455760405162461bcd60e51b815260206004820152601b60248201527f52656164696e67206279746573206f7574206f6620626f756e64730000000000604482015260640160405180910390610a42611029565b50505b8260200184015190508160200380156109845760080260020a90049392505050565b600080610aa884848080601f01602080910402602001604051908101604052818152929190602084018383808284376000920191909152506109d492505050565b90506001600160e01b0319811663018756bb60e51b141561101e576000610b0385858080601f01602080910402602001604051908101604052818152929190602084018383808284376000920182905250925061098c915050565b90506000610b4886868080601f01602080910402602001604051908101604052818152929190602084018383808284376000920191909152506001925061098c915050565b90506000610b8d87878080601f01602080910402602001604051908101604052818152929190602084018383808284376000920191909152506002925061098c915050565b90508760006001600160a01b038216633ded6530866040516001600160e01b031960e084901b16815260048101919091526024016020604051808303818680610bd4611094565b158015610be957600080610be6611029565b50505b505a610bf36110f4565b5050505050158015610c12573d6000803e3d6000610c0f611029565b50505b505050506040513d6020811015610c3157600080610c2e611029565b50505b81019080805193506000925050506001600160a01b038316633ded6530856040516001600160e01b031960e084901b16815260048101919091526024016020604051808303818680610c81611094565b158015610c9657600080610c93611029565b50505b505a610ca06110f4565b5050505050158015610cbf573d6000803e3d6000610cbc611029565b50505b505050506040513d6020811015610cde57600080610cdb611029565b50505b810190808051935050506001600160a01b038416905063464b4158836040516001600160e01b031960e084901b1681526001600160a01b0390911660048201526024016020604051808303818680610d34611094565b158015610d4957600080610d46611029565b50505b505a610d536110f4565b5050505050158015610d72573d6000803e3d6000610d6f611029565b50505b505050506040513d6020811015610d9157600080610d8e611029565b50505b8101908080519250610df59150505760405162461bcd60e51b815260206004820152601d60248201527f756e737570706f727465642064657374696e6174696f6e206173736574000000604482015260640160405180910390610df2611029565b50505b826001600160a01b031663464b4158826040516001600160e01b031960e084901b1681526001600160a01b0390911660048201526024016020604051808303818680610e3f611094565b158015610e5457600080610e51611029565b50505b505a610e5e6110f4565b5050505050158015610e7d573d6000803e3d6000610e7a611029565b50505b505050506040513d6020811015610e9c57600080610e99611029565b50505b8101908080519250610f009150505760405162461bcd60e51b815260206004820152601d60248201527f756e737570706f727465642064657374696e6174696f6e206173736574000000604482015260640160405180910390610efd611029565b50505b7feca87c8091d5a2bc62e0658afcf53e701886f6509c5155d3c3b14a3c4b4852e7838c6001600160a01b031663481c6a756040518163ffffffff1660e01b81526004016020604051808303818680610f56611094565b158015610f6b57600080610f68611029565b50505b505a610f756110f4565b5050505050158015610f94573d6000803e3d6000610f91611029565b50505b505050506040513d6020811015610fb357600080610fb0611029565b50505b8101908080519250869150899050855a610fcb6111df565b6040516001600160a01b03968716815294861660208601529285166040808601919091526060850192909252909316608083015260a082015260c001905180910390a160019750505050505050506108fc565b506000949350505050565b632a2a7adb598160e01b8152600481016020815285602082015260005b86811015611061578086015182820160400152602001611046565b506020828760640184336000905af158600e01573d6000803e3d6000fd5b3d6001141558600a015760016000f35b505050565b638435035b598160e01b8152836004820152602081602483336000905af158600e01573d6000803e3d6000fd5b3d6001141558600a015760016000f35b8051935060005b60408110156110ef576000828201526020016110d8565b505050565b638540661f598160e01b8152611125565b8080831115610800575090919050565b8080831015610800575090919050565b836004820152846024820152606060448201528660648201526084810160005b8881101561115d578088015182820152602001611145565b506060828960a40184336000905af158600e01573d6000803e3d6000fd5b3d6001141558600a015760016000f35b815160408301513d6000853e8b8b82606087013350600060045af150596111b28d3d611115565b8c016111be8187611105565b5b828110156111d357600081526020016111bf565b50929c50505050505050565b63bdbf8c36598160e01b8152602081600483336000905af158600e01573d6000803e3d6000fd5b3d6001141558600a015760016000f35b805160008252935060206110d856",
  "deployedBytecode": "0x608060405234801561001957600080610016611029565b50505b506004361061009c5760003560e01c806382f86acc1161006f57806382f86acc1461038a578063998546e314610456578063c3c6279f14610522578063db896b57146105e9578063e23ff437146106b55761009c565b806309ff5c7d146100aa5780631eba30771461018857806341dc16c3146101ca578063568b5a2f146102a1575b6000806100a7611029565b50505b610176600480360360408110156100c9576000806100c6611029565b50505b810190602081018135600160201b8111156100ec576000806100e9611029565b50505b82018360208201111561010757600080610104611029565b50505b803590602001918460018302840111600160201b831117156101315760008061012e611029565b50505b91908080601f01602080910402602001604051908101604052818152929190602084018383808284376000920191909152509295505050903560ff16915061076b9050565b60405190815260200160405180910390f35b6101ae600480360360208110156101a7576000806101a4611029565b50505b5035610806565b6040516001600160a01b03909116815260200160405180910390f35b610176600480360360608110156101e9576000806101e6611029565b50505b810190602081018135600160201b81111561020c57600080610209611029565b50505b82018360208201111561022757600080610224611029565b50505b803590602001918460018302840111600160201b831117156102515760008061024e611029565b50505b91908080601f01602080910402602001604051908101604052818152929190602084018383808284376000920191909152509295505060ff83358116945060209093013590921691506108099050565b61036d600480360360608110156102c0576000806102bd611029565b50505b810190602081018135600160201b8111156102e3576000806102e0611029565b50505b8201836020820111156102fe576000806102fb611029565b50505b803590602001918460018302840111600160201b8311171561032857600080610325611029565b50505b91908080601f01602080910402602001604051908101604052818152929190602084018383808284376000920191909152509295505082359350505060200135610903565b6040516001600160e01b0319909116815260200160405180910390f35b610176600480360360408110156103a9576000806103a6611029565b50505b810190602081018135600160201b8111156103cc576000806103c9611029565b50505b8201836020820111156103e7576000806103e4611029565b50505b803590602001918460018302840111600160201b831117156104115760008061040e611029565b50505b91908080601f01602080910402602001604051908101604052818152929190602084018383808284376000920191909152509295505050903560ff16915061098c9050565b6101766004803603604081101561047557600080610472611029565b50505b810190602081018135600160201b81111561049857600080610495611029565b50505b8201836020820111156104b3576000806104b0611029565b50505b803590602001918460018302840111600160201b831117156104dd576000806104da611029565b50505b91908080601f01602080910402602001604051908101604052818152929190602084018383808284376000920191909152509295505050903560ff1691506109a39050565b61036d600480360360208110156105415760008061053e611029565b50505b810190602081018135600160201b81111561056457600080610561611029565b50505b82018360208201111561057f5760008061057c611029565b50505b803590602001918460018302840111600160201b831117156105a9576000806105a6611029565b50505b91908080601f01602080910402602001604051908101604052818152929190602084018383808284376000920191909152509295506109d4945050505050565b6101766004803603606081101561060857600080610605611029565b50505b810190602081018135600160201b81111561062b57600080610628611029565b50505b82018360208201111561064657600080610643611029565b50505b803590602001918460018302840111600160201b831117156106705760008061066d611029565b50505b91908080601f016020809104026020016040519081016040528181529291906020840183838082843760009201919091525092955050823593505050602001356109e3565b610757600480360360408110156106d4576000806106d1611029565b50505b6001600160a01b038235169190810190604081016020820135600160201b81111561070757600080610704611029565b50505b8201836020820111156107225760008061071f611029565b50505b803590602001918460018302840111600160201b8311171561074c57600080610749611029565b50505b509092509050610a67565b604051901515815260200160405180910390f35b600080610783848460200260040160ff1660206109e3565b90506000610796856004840160206109e3565b9050806107e75760405162461bcd60e51b8152602060048201526012602482015271696e707574206973206e6f7420617272617960701b6044820152606401604051809103906107e4611029565b50505b6107fb8560208084028501600401906109e3565b925050505b92915050565b90565b600080610821858560200260040160ff1660206109e3565b90506000610834866004840160206109e3565b9050806108855760405162461bcd60e51b8152602060048201526012602482015271696e707574206973206e6f7420617272617960701b604482015260640160405180910390610882611029565b50505b60ff841681116108dd5760405162461bcd60e51b815260206004820152601660248201527534b73b30b634b21030b93930bc903837b9b4ba34b7b760511b6044820152606401604051809103906108da611029565b50505b6108f7866020600160ff88160181028501600401906109e3565b925050505b9392505050565b6000818301845110156109655760405162461bcd60e51b815260206004820152601b60248201527f52656164696e67206279746573206f7574206f6620626f756e64730000000000604482015260640160405180910390610962611029565b50505b826020018401519050816004038015610984576008810260020a820491505b509392505050565b60006108fc838360200260040160ff1660206109e3565b6000806109bb848460200260040160ff1660206109e3565b90506109cc846004830160206109e3565b949350505050565b60006108008260006004610903565b600081830184511015610a455760405162461bcd60e51b815260206004820152601b60248201527f52656164696e67206279746573206f7574206f6620626f756e64730000000000604482015260640160405180910390610a42611029565b50505b8260200184015190508160200380156109845760080260020a90049392505050565b600080610aa884848080601f01602080910402602001604051908101604052818152929190602084018383808284376000920191909152506109d492505050565b90506001600160e01b0319811663018756bb60e51b141561101e576000610b0385858080601f01602080910402602001604051908101604052818152929190602084018383808284376000920182905250925061098c915050565b90506000610b4886868080601f01602080910402602001604051908101604052818152929190602084018383808284376000920191909152506001925061098c915050565b90506000610b8d87878080601f01602080910402602001604051908101604052818152929190602084018383808284376000920191909152506002925061098c915050565b90508760006001600160a01b038216633ded6530866040516001600160e01b031960e084901b16815260048101919091526024016020604051808303818680610bd4611094565b158015610be957600080610be6611029565b50505b505a610bf36110f4565b5050505050158015610c12573d6000803e3d6000610c0f611029565b50505b505050506040513d6020811015610c3157600080610c2e611029565b50505b81019080805193506000925050506001600160a01b038316633ded6530856040516001600160e01b031960e084901b16815260048101919091526024016020604051808303818680610c81611094565b158015610c9657600080610c93611029565b50505b505a610ca06110f4565b5050505050158015610cbf573d6000803e3d6000610cbc611029565b50505b505050506040513d6020811015610cde57600080610cdb611029565b50505b810190808051935050506001600160a01b038416905063464b4158836040516001600160e01b031960e084901b1681526001600160a01b0390911660048201526024016020604051808303818680610d34611094565b158015610d4957600080610d46611029565b50505b505a610d536110f4565b5050505050158015610d72573d6000803e3d6000610d6f611029565b50505b505050506040513d6020811015610d9157600080610d8e611029565b50505b8101908080519250610df59150505760405162461bcd60e51b815260206004820152601d60248201527f756e737570706f727465642064657374696e6174696f6e206173736574000000604482015260640160405180910390610df2611029565b50505b826001600160a01b031663464b4158826040516001600160e01b031960e084901b1681526001600160a01b0390911660048201526024016020604051808303818680610e3f611094565b158015610e5457600080610e51611029565b50505b505a610e5e6110f4565b5050505050158015610e7d573d6000803e3d6000610e7a611029565b50505b505050506040513d6020811015610e9c57600080610e99611029565b50505b8101908080519250610f009150505760405162461bcd60e51b815260206004820152601d60248201527f756e737570706f727465642064657374696e6174696f6e206173736574000000604482015260640160405180910390610efd611029565b50505b7feca87c8091d5a2bc62e0658afcf53e701886f6509c5155d3c3b14a3c4b4852e7838c6001600160a01b031663481c6a756040518163ffffffff1660e01b81526004016020604051808303818680610f56611094565b158015610f6b57600080610f68611029565b50505b505a610f756110f4565b5050505050158015610f94573d6000803e3d6000610f91611029565b50505b505050506040513d6020811015610fb357600080610fb0611029565b50505b8101908080519250869150899050855a610fcb6111df565b6040516001600160a01b03968716815294861660208601529285166040808601919091526060850192909252909316608083015260a082015260c001905180910390a160019750505050505050506108fc565b506000949350505050565b632a2a7adb598160e01b8152600481016020815285602082015260005b86811015611061578086015182820160400152602001611046565b506020828760640184336000905af158601d01573d60011458600c01573d6000803e3d621234565260ea61109c52505050565b638435035b598160e01b8152836004820152602081602483336000905af158601d01573d60011458600c01573d6000803e3d621234565260ea61109c528051935060005b60408110156110ef576000828201526020016110d8565b505050565b638540661f598160e01b8152611125565b8080831115610800575090919050565b8080831015610800575090919050565b836004820152846024820152606060448201528660648201526084810160005b8881101561115d578088015182820152602001611145565b506060828960a40184336000905af158601d01573d60011458600c01573d6000803e3d621234565260ea61109c52815160408301513d6000853e8b8b82606087013350600060045af150596111b28d3d611115565b8c016111be8187611105565b5b828110156111d357600081526020016111bf565b50929c50505050505050565b63bdbf8c36598160e01b8152602081600483336000905af158601d01573d60011458600c01573d6000803e3d621234565260ea61109c52805160008252935060206110d856",
  "linkReferences": {},
  "deployedLinkReferences": {}
}