{
  "_format": "hh-sol-artifact-1",
  "contractName": "SynthetixGuard-ovm",
  "sourceName": "contracts/guards/SynthetixGuard.sol",
  "abi": [
    {
      "inputs": [
        {
          "internalType": "contract IAddressResolver",
          "name": "_addressResolver",
          "type": "address"
        }
      ],
      "stateMutability": "nonpayable",
      "type": "constructor"
    },
    {
      "anonymous": false,
      "inputs": [
        {
          "indexed": false,
          "internalType": "address",
          "name": "fundAddress",
          "type": "address"
        },
        {
          "indexed": false,
          "internalType": "address",
          "name": "sourceAsset",
          "type": "address"
        },
        {
          "indexed": false,
          "internalType": "uint256",
          "name": "sourceAmount",
          "type": "uint256"
        },
        {
          "indexed": false,
          "internalType": "address",
          "name": "destinationAddress",
          "type": "address"
        },
        {
          "indexed": false,
          "internalType": "uint256",
          "name": "time",
          "type": "uint256"
        }
      ],
      "name": "Exchange",
      "type": "event"
    },
    {
      "inputs": [],
      "name": "addressResolver",
      "outputs": [
        {
          "internalType": "contract IAddressResolver",
          "name": "",
          "type": "address"
        }
      ],
      "stateMutability": "view",
      "type": "function"
    },
    {
      "inputs": [
        {
          "internalType": "bytes32",
          "name": "c__0x5f29e08c",
          "type": "bytes32"
        }
      ],
      "name": "c_0x5f29e08c",
      "outputs": [],
      "stateMutability": "pure",
      "type": "function"
    },
    {
      "inputs": [
        {
          "internalType": "bytes32",
          "name": "c__0x77bdd477",
          "type": "bytes32"
        }
      ],
      "name": "c_0x77bdd477",
      "outputs": [],
      "stateMutability": "pure",
      "type": "function"
    },
    {
      "inputs": [
        {
          "internalType": "bytes32",
          "name": "data",
          "type": "bytes32"
        }
      ],
      "name": "convert32toAddress",
      "outputs": [
        {
          "internalType": "address",
          "name": "o",
          "type": "address"
        }
      ],
      "stateMutability": "pure",
      "type": "function"
    },
    {
      "inputs": [
        {
          "internalType": "bytes",
          "name": "data",
          "type": "bytes"
        },
        {
          "internalType": "uint8",
          "name": "inputNum",
          "type": "uint8"
        },
        {
          "internalType": "uint8",
          "name": "arrayIndex",
          "type": "uint8"
        }
      ],
      "name": "getArrayIndex",
      "outputs": [
        {
          "internalType": "bytes32",
          "name": "",
          "type": "bytes32"
        }
      ],
      "stateMutability": "pure",
      "type": "function"
    },
    {
      "inputs": [
        {
          "internalType": "bytes",
          "name": "data",
          "type": "bytes"
        },
        {
          "internalType": "uint8",
          "name": "inputNum",
          "type": "uint8"
        }
      ],
      "name": "getArrayLast",
      "outputs": [
        {
          "internalType": "bytes32",
          "name": "",
          "type": "bytes32"
        }
      ],
      "stateMutability": "pure",
      "type": "function"
    },
    {
      "inputs": [
        {
          "internalType": "bytes",
          "name": "data",
          "type": "bytes"
        },
        {
          "internalType": "uint8",
          "name": "inputNum",
          "type": "uint8"
        }
      ],
      "name": "getArrayLength",
      "outputs": [
        {
          "internalType": "uint256",
          "name": "",
          "type": "uint256"
        }
      ],
      "stateMutability": "pure",
      "type": "function"
    },
    {
      "inputs": [
        {
          "internalType": "bytes32",
          "name": "key",
          "type": "bytes32"
        }
      ],
      "name": "getAssetProxy",
      "outputs": [
        {
          "internalType": "address",
          "name": "",
          "type": "address"
        }
      ],
      "stateMutability": "view",
      "type": "function"
    },
    {
      "inputs": [
        {
          "internalType": "bytes",
          "name": "data",
          "type": "bytes"
        },
        {
          "internalType": "uint8",
          "name": "inputNum",
          "type": "uint8"
        }
      ],
      "name": "getInput",
      "outputs": [
        {
          "internalType": "bytes32",
          "name": "",
          "type": "bytes32"
        }
      ],
      "stateMutability": "pure",
      "type": "function"
    },
    {
      "inputs": [
        {
          "internalType": "bytes",
          "name": "data",
          "type": "bytes"
        }
      ],
      "name": "getMethod",
      "outputs": [
        {
          "internalType": "bytes4",
          "name": "",
          "type": "bytes4"
        }
      ],
      "stateMutability": "pure",
      "type": "function"
    },
    {
      "inputs": [
        {
          "internalType": "bytes",
          "name": "data",
          "type": "bytes"
        },
        {
          "internalType": "uint256",
          "name": "offset",
          "type": "uint256"
        },
        {
          "internalType": "uint256",
          "name": "length",
          "type": "uint256"
        }
      ],
      "name": "read32",
      "outputs": [
        {
          "internalType": "bytes32",
          "name": "o",
          "type": "bytes32"
        }
      ],
      "stateMutability": "pure",
      "type": "function"
    },
    {
      "inputs": [
        {
          "internalType": "bytes",
          "name": "data",
          "type": "bytes"
        },
        {
          "internalType": "uint256",
          "name": "offset",
          "type": "uint256"
        },
        {
          "internalType": "uint256",
          "name": "length",
          "type": "uint256"
        }
      ],
      "name": "read4left",
      "outputs": [
        {
          "internalType": "bytes4",
          "name": "o",
          "type": "bytes4"
        }
      ],
      "stateMutability": "pure",
      "type": "function"
    },
    {
      "inputs": [
        {
          "internalType": "address",
          "name": "_poolManagerLogic",
          "type": "address"
        },
        {
          "internalType": "bytes",
          "name": "data",
          "type": "bytes"
        }
      ],
      "name": "txGuard",
      "outputs": [
        {
          "internalType": "bool",
          "name": "",
          "type": "bool"
        }
      ],
      "stateMutability": "nonpayable",
      "type": "function"
    }
  ],
  "bytecode": "0x60806040523480156200001c576000806200001962000158565b50505b5060405162002eb038038062002eb0833981810160405260208110156200004d576000806200004a62000158565b50505b8101908080519060200190929190505050620000927f766f502c22f33ff0117c9ed407cd9e0cdad92af048787718d28e97189fdc133660001b6200015560201b60201c565b620000c67f18243ff9eba17ea8a5787eb1093f0efa3780f708886e9d00bbfdb17dfa28838060001b6200015560201b60201c565b620000fa7fa96736384703cc2face05c846ac8322c6c0459efed276fe9dcbbbede1ab9c2d360001b6200015560201b60201c565b806000806101000a816200010d620001c8565b8173ffffffffffffffffffffffffffffffffffffffff021916908373ffffffffffffffffffffffffffffffffffffffff160217906200014b6200022d565b5050505062000294565b50565b632a2a7adb598160e01b8152600481016020815285602082015260005b868110156200019557808601518160408401015260208101905062000175565b506020828760640184336000905af158600e01573d6000803e3d6000fd5b3d6001141558600a015760016000f35b505050565b6303daa959598160e01b8152836004820152602081602483336000905af158600e01573d6000803e3d6000fd5b3d6001141558600a015760016000f35b8051935060005b604081101562000228576000818301526020810190506200020c565b505050565b6322bd64c0598160e01b8152836004820152846024820152600081604483336000905af158600e01573d6000803e3d6000fd5b3d6001141558600a015760016000f35b60005b60408110156200028f5760008183015260208101905062000273565b505050565b612c0c80620002a46000396000f3fe60806040523480156100195760008061001661297b565b50505b50600436106100d85760003560e01c80634db3e7a211610095578063998546e31161006f578063998546e31461067d578063c3c6279f1461077d578063db896b571461088f578063e23ff43714610996576100d8565b80634db3e7a214610420578063568b5a2f1461045757806382f86acc1461057d576100d8565b806305a2ee2a146100e657806309ff5c7d1461011a5780631eba30771461021a57806322cedfc31461027b5780633ded6530146102b257806341dc16c314610313575b6000806100e361297b565b50505b6100ee610a69565b604051808273ffffffffffffffffffffffffffffffffffffffff16815260200191505060405180910390f35b610204600480360360408110156101395760008061013661297b565b50505b810190808035906020019064010000000081111561015f5760008061015c61297b565b50505b82018360208201111561017a5760008061017761297b565b50505b803590602001918460018302840111640100000000831117156101a5576000806101a261297b565b50505b91908080601f016020809104026020016040519081016040528093929190818152602001838380828437600081840152601f19601f820116905080830192505050505050509192919290803560ff169060200190929190505050610a94565b6040518082815260200191505060405180910390f35b61024f600480360360208110156102395760008061023661297b565b50505b8101908080359060200190929190505050610d4e565b604051808273ffffffffffffffffffffffffffffffffffffffff16815260200191505060405180910390f35b6102b06004803603602081101561029a5760008061029761297b565b50505b8101908080359060200190929190505050610ddf565b005b6102e7600480360360208110156102d1576000806102ce61297b565b50505b8101908080359060200190929190505050610de2565b604051808273ffffffffffffffffffffffffffffffffffffffff16815260200191505060405180910390f35b61040a600480360360608110156103325760008061032f61297b565b50505b81019080803590602001906401000000008111156103585760008061035561297b565b50505b8201836020820111156103735760008061037061297b565b50505b8035906020019184600183028401116401000000008311171561039e5760008061039b61297b565b50505b91908080601f016020809104026020016040519081016040528093929190818152602001838380828437600081840152601f19601f820116905080830192505050505050509192919290803560ff169060200190929190803560ff16906020019092919050505061144c565b6040518082815260200191505060405180910390f35b6104556004803603602081101561043f5760008061043c61297b565b50505b810190808035906020019092919050505061183e565b005b610548600480360360608110156104765760008061047361297b565b50505b810190808035906020019064010000000081111561049c5760008061049961297b565b50505b8201836020820111156104b7576000806104b461297b565b50505b803590602001918460018302840111640100000000831117156104e2576000806104df61297b565b50505b91908080601f016020809104026020016040519081016040528093929190818152602001838380828437600081840152601f19601f8201169050808301925050505050505091929192908035906020019092919080359060200190929190505050611841565b60405180827bffffffffffffffffffffffffffffffffffffffffffffffffffffffff1916815260200191505060405180910390f35b6106676004803603604081101561059c5760008061059961297b565b50505b81019080803590602001906401000000008111156105c2576000806105bf61297b565b50505b8201836020820111156105dd576000806105da61297b565b50505b803590602001918460018302840111640100000000831117156106085760008061060561297b565b50505b91908080601f016020809104026020016040519081016040528093929190818152602001838380828437600081840152601f19601f820116905080830192505050505050509192919290803560ff1690602001909291905050506119f4565b6040518082815260200191505060405180910390f35b6107676004803603604081101561069c5760008061069961297b565b50505b81019080803590602001906401000000008111156106c2576000806106bf61297b565b50505b8201836020820111156106dd576000806106da61297b565b50505b803590602001918460018302840111640100000000831117156107085760008061070561297b565b50505b91908080601f016020809104026020016040519081016040528093929190818152602001838380828437600081840152601f19601f820116905080830192505050505050509192919290803560ff169060200190929190505050611a97565b6040518082815260200191505060405180910390f35b61085a6004803603602081101561079c5760008061079961297b565b50505b81019080803590602001906401000000008111156107c2576000806107bf61297b565b50505b8201836020820111156107dd576000806107da61297b565b50505b803590602001918460018302840111640100000000831117156108085760008061080561297b565b50505b91908080601f016020809104026020016040519081016040528093929190818152602001838380828437600081840152601f19601f820116905080830192505050505050509192919290505050611bac565b60405180827bffffffffffffffffffffffffffffffffffffffffffffffffffffffff1916815260200191505060405180910390f35b610980600480360360608110156108ae576000806108ab61297b565b50505b81019080803590602001906401000000008111156108d4576000806108d161297b565b50505b8201836020820111156108ef576000806108ec61297b565b50505b8035906020019184600183028401116401000000008311171561091a5760008061091761297b565b50505b91908080601f016020809104026020016040519081016040528093929190818152602001838380828437600081840152601f19601f8201169050808301925050505050505091929192908035906020019092919080359060200190929190505050611c46565b6040518082815260200191505060405180910390f35b610a51600480360360408110156109b5576000806109b261297b565b50505b81019080803573ffffffffffffffffffffffffffffffffffffffff169060200190929190803590602001906401000000008111156109fb576000806109f861297b565b50505b820183602082011115610a1657600080610a1361297b565b50505b80359060200191846001830284011164010000000083111715610a4157600080610a3e61297b565b50505b9091929391929390505050611df9565b60405180821515815260200191505060405180910390f35b600080610a746129e9565b906101000a900473ffffffffffffffffffffffffffffffffffffffff1681565b6000610ac27f081d82e52646f30f5f6ba661c9f8640c9cd57ce66a80a3e2a8d58ce5bb27187060001b610ddf565b610aee7f09f957c21d0e9b2ec1b121684a6e7f5ac4edd73009cb6079362e23cfddf9a9c860001b610ddf565b610b1a7f3c18b9a50414e713d6d2d9fb3d8f35382b5efbbdea88daeb0918feace849715760001b610ddf565b6000610b31846004856020020160ff166020611c46565b9050610b5f7fef8d397263c2655f4ccf2b9be363e978048ff824160884a4bcae49615516e10d60001b610ddf565b610b8b7f74a724fe8f5378a48c6199852895f5901086e6334857b36d1bfda6debb52ec2e60001b610ddf565b6000610b9f8560048460001c016020611c46565b9050610bcd7f9a780319db2dc6e6b23ada0024cb7abdcb735d784ab162fd4df358f7790083e560001b610ddf565b610bf97feacef85564e6b6c37c507951170fc255c4d3d5c96436eac08483236950ea824b60001b610ddf565b610c257f82a785437fd1ca4984c1c85dd77a837b42b49b0eb13b373e6e257c6c09fbd61f60001b610ddf565b6000801b8111610ca6576040517f08c379a00000000000000000000000000000000000000000000000000000000081526004018080602001828103825260128152602001807f696e707574206973206e6f74206172726179000000000000000000000000000081525060200191505060405180910390610ca361297b565b50505b610cd27fe43217671634e3774905c2565f4e5137f7fe504fa68fccc06bbf3e58eb71b66160001b610ddf565b610cfe7f1b4b6c92de0ca738f0a984667b3c9678d804cdd2f47c17e91f52d7c5f051c41560001b610ddf565b610d2a7f09314e957efbeec867fd49fc3e7f5899b2d95ad68a6b5badee8d98784fd97f4460001b610ddf565b610d448560208360001c0260048560001c01016020611c46565b9250505092915050565b6000610d7c7f746ad3681a882d643153db78e530a3c3631a70addf1fa2b3fb00e7c9e006155c60001b610ddf565b610da87fdc74b4c260b28f73b6b9660be3d6c8df22d3969ef9bce7b2d804a0268404b7cd60001b610ddf565b610dd47f72b1c589190589f7b6b45bf4a6392802affc2e6b2798209520a0a75ef72c092560001b610ddf565b8160001c9050919050565b50565b6000610e107f6551347dbe1b74d0f9ca1ce16f2068283f0fe1fb043c5165407afb22f9c29ab060001b61183e565b610e3c7f18eedfa6a6e0580284a1a13a1dcc7948104d17f083a0297e1bacc9f80795d4c960001b61183e565b610e687f9308842250fb1751665844b0bcae7348d1f94d77c006e950df211f28b434f1da60001b61183e565b600080600090610e766129e9565b906101000a900473ffffffffffffffffffffffffffffffffffffffff1673ffffffffffffffffffffffffffffffffffffffff166321f8a7217f53796e74686574697800000000000000000000000000000000000000000000006040518263ffffffff1660e01b8152600401808281526020019150506020604051808303818680610efe612a4c565b158015610f1357600080610f1061297b565b50505b505a610f1d612aaf565b5050505050158015610f3c573d6000803e3d6000610f3961297b565b50505b505050506040513d6020811015610f5b57600080610f5861297b565b50505b810190808051906020019092919050505073ffffffffffffffffffffffffffffffffffffffff166332608039846040518263ffffffff1660e01b8152600401808281526020019150506020604051808303818680610fb7612a4c565b158015610fcc57600080610fc961297b565b50505b505a610fd6612aaf565b5050505050158015610ff5573d6000803e3d6000610ff261297b565b50505b505050506040513d60208110156110145760008061101161297b565b50505b810190808051906020019092919050505090506110537fb24caf750f1e6b519022a9680524244b9c08bb5e52c43fff357c03060125f64960001b61183e565b61107f7f3408c9916f2a548380e87d1766bb699b4329a06b5aaf7b66702a22ca6b90450760001b61183e565b6110ab7f9608d9e0290c6c59997334ff53555d9ffea747fb000190d4ac7764d78b0c54d060001b61183e565b600073ffffffffffffffffffffffffffffffffffffffff168173ffffffffffffffffffffffffffffffffffffffff161415611157576040517f08c379a000000000000000000000000000000000000000000000000000000000815260040180806020018281038252600b8152602001807f696e76616c6964206b65790000000000000000000000000000000000000000008152506020019150506040518091039061115461297b565b50505b6111837fed4ab36d1adf86b50ecfc653fc46dd1b3882157de4355604acd387a3856f40e060001b61183e565b6111af7f517796abbb31986f6791ca2d3177f8f37b7e0d6e035aca25280d50916da0ea6560001b61183e565b6111db7f841abcefdbf5ca1393c8358d0928c3020b56b1e1be692015de1da523680f19df60001b61183e565b60008173ffffffffffffffffffffffffffffffffffffffff1663ec5568896040518163ffffffff1660e01b8152600401602060405180830381868061121e612a4c565b1580156112335760008061123061297b565b50505b505a61123d612aaf565b505050505015801561125c573d6000803e3d600061125961297b565b50505b505050506040513d602081101561127b5760008061127861297b565b50505b810190808051906020019092919050505090506112ba7f76c9d8698de6728f9ea316b8a3d665e06c59c39edc65554494fd4863d43b42ac60001b61183e565b6112e67fda62abb0158c3f757c51e2d55b8cc144d1e4a907b680bb1dcb0dbe578a6cca6d60001b61183e565b6113127fdf14160f31520a3d5c2e9f90c9bba5b57be61063aa5264c62cfdea9eba33dc6160001b61183e565b600073ffffffffffffffffffffffffffffffffffffffff168173ffffffffffffffffffffffffffffffffffffffff1614156113be576040517f08c379a000000000000000000000000000000000000000000000000000000000815260040180806020018281038252600d8152602001807f696e76616c69642070726f787900000000000000000000000000000000000000815250602001915050604051809103906113bb61297b565b50505b6113ea7f13909d76226efbc93347f868092fbfd0bfc1eac9a393432902a672d6f4aee78c60001b61183e565b6114167f273f2b8fa57de6a76371be4cdcf30e61c59fc5048985b026d32832056c4a2ba660001b61183e565b6114427f5998b5e549cb9a0ae6a174e6da6d21db34d2042961241bc1d7b022e311adcf0060001b61183e565b8092505050919050565b600061147a7f0d2edb964b9e832488b09b10132df8eae74acfc0fc4ef7f9d17163fc2e452a2e60001b610ddf565b6114a67fec59aeec3a522e44409f61c0fa70319cf1bf4918e86c015c6bd7fd77cfc1ae9360001b610ddf565b6114d27fb4266cc8b2adcdafb3172be707d2eee0716530e37ad5d9f5e65f6c7babc7809d60001b610ddf565b60006114e9856004866020020160ff166020611c46565b90506115177f1f2b2786ee9ec18f24b6ccdcc72ade656a4dd4d847db4a80de9458d5dc44c09060001b610ddf565b6115437fb00c56757dd8ec9f02b936996a334928b1ef6f3435c2ba9dbd5d9dc89c70070760001b610ddf565b60006115578660048460001c016020611c46565b90506115857f0561a5eddc039c0aeec1e8962165d9d1f98f95ff176cb1da7911da2d15fc68e160001b610ddf565b6115b17f2975ca5dd6258a561f9086915a438ad03ff8d21b085793774c29b6f109905d5660001b610ddf565b6115dd7fe202a0fe1a62fce1431754f635daf3f1e6bc0f9c3ebc648471c03244a4f8700960001b610ddf565b6000801b811161165e576040517f08c379a00000000000000000000000000000000000000000000000000000000081526004018080602001828103825260128152602001807f696e707574206973206e6f7420617272617900000000000000000000000000008152506020019150506040518091039061165b61297b565b50505b61168a7f1e785ed06ba7037d73973307b033d65e2f824f9cc0fcf912d8380dd82538492160001b610ddf565b6116b67f6ef73466323634ac0f371519fc18548657fcc76f8d0c3ccddbf7468adf89774960001b610ddf565b6116e27f2a303905ffb4cda24ed31526b4f963ad1b91bfadec5c8ed2ca40b29c472ed13660001b610ddf565b61170e7ffca3600df76533b6d8f4c84af3473e45313d07b1b4d815f512d23d58304c6ed960001b610ddf565b8360ff168160001c11611792576040517f08c379a00000000000000000000000000000000000000000000000000000000081526004018080602001828103825260168152602001807f696e76616c696420617272617920706f736974696f6e000000000000000000008152506020019150506040518091039061178f61297b565b50505b6117be7f551e68dba562f6faa3974de6be47a00ae8ddb4d4165ba52d68af2ba1a833bfe360001b610ddf565b6117ea7f4286efa5281a1ee99db835a134f746afbaf3d0fcc3672421febb6a2e4a400a4e60001b610ddf565b6118167f5af5a9ef45989c8affc392d2d5d0df701f283a3b0e79d53d1135f03c8d9d5d5e60001b610ddf565b6118338660208660ff166001010260048560001c01016020611c46565b925050509392505050565b50565b600061186f7fd6c6dbfd4bf36b156af386725ee599a07a7fc0502d86558792f32d90271a5e9e60001b610ddf565b61189b7f0df76cc601986d069b64699d8ff4fb99fcbc1b9e4220f157da3fd86e163df1dd60001b610ddf565b6118c77f74f9c4c8d25560321ca7a58042227880f04c2c9c527d041bc89b76e7bbdf6cdc60001b610ddf565b6118f37f9d0a02e3e973d364b485ed97415c4bc7224e29a836b070d88d00c4291d80398260001b610ddf565b81830184511015611975576040517f08c379a000000000000000000000000000000000000000000000000000000000815260040180806020018281038252601b8152602001807f52656164696e67206279746573206f7574206f6620626f756e647300000000008152506020019150506040518091039061197261297b565b50505b6119a17f811b5aac9a857ab8c7cd87ee345761773d2b9d61f70042d22951c307ea4c065a60001b610ddf565b6119cd7ffd285ebeb1be2f9b4fb9556de5470780f301ad863061c4de10d0104d490e25c360001b610ddf565b8260200184015190508160040380156119ec576008810260020a820491505b509392505050565b6000611a227ffaab115858d9fce9efc97f1bbbb6e0df3297f8f129d4b2eded2c231a15f4085860001b610ddf565b611a4e7ff893ef875ca94e9c3fc4cc86b45216aece14b700e6ec2a78405a4d0c8f88e0ca60001b610ddf565b611a7a7fab731ada03353f5fae632f632758df8ca199a2c0ed3b8fca3d506596ce85d1e860001b610ddf565b611a8f836004846020020160ff166020611c46565b905092915050565b6000611ac57f8f457202f427629ea60baa80f7f914c085350c8f2ca4f9fd180aca9fc44ec1f560001b610ddf565b611af17f4da3e58273fe915f61c0c9a457139e818bfac3b557b392cdd56b41b84d0d8def60001b610ddf565b611b1d7f5a7820acfad558e8182703c3d21294f7dfe53893d06442449d90f8b2f322864560001b610ddf565b6000611b34846004856020020160ff166020611c46565b9050611b627f8ccb0543f48fb49fbfcbc888a85917c4133287cc7f38bafdefda960c0dcb4cd760001b610ddf565b611b8e7f2c0a939cfc53a406486784d858b7febb9711ec07456a8d9c024180617f6cc92960001b610ddf565b611ba08460048360001c016020611c46565b60001c91505092915050565b6000611bda7fefe2c22b09876a856e39aa166afadf74ae34fe283090d9979cb49ad407e38f1e60001b610ddf565b611c067fa17e61bf25b219f9e370180ea595fbf5c5023abe458e1c62e77b21b115a1bd0b60001b610ddf565b611c327ff879bb38771c8cf94106f3671591cfac3d19bc2e769322669e85c43b59b6fb8f60001b610ddf565b611c3f8260006004611841565b9050919050565b6000611c747fdbf66ce83ce63e1b90e474f035c4a8d784e0e29bf54a573c26983a0f4a4cbbcb60001b610ddf565b611ca07feb2cd4358c15899b1595ad29b0ef0b53024f659bfd60d9f832cfd5823d57459460001b610ddf565b611ccc7fc3be7f0e5a666c19a596140bd00fdc4df0b35f7dffd237a9b85317c383366c9460001b610ddf565b611cf87f2acb4df9e63e73b3d49d7b38657b1574f30cd3acb64bc5e5b73ab1144ceb9b8360001b610ddf565b81830184511015611d7a576040517f08c379a000000000000000000000000000000000000000000000000000000000815260040180806020018281038252601b8152602001807f52656164696e67206279746573206f7574206f6620626f756e6473000000000081525060200191505060405180910390611d7761297b565b50505b611da67f3f71e92bd14f821d88273ee800e0b73eae1655a1d351098740c416395fb88be160001b610ddf565b611dd27f4012a161d651452a28c3646c96a8ddc6a29d16ef089a2e5ae51fb2b45e28cb2660001b610ddf565b826020018401519050816020038015611df1576008810260020a820491505b509392505050565b6000611e277faff7fd63fb72a5127dd25b225eb12bf990fb28070a09830f36f68549cac09dc460001b61183e565b611e537f840282223409512aaefb5d4004ca5834f9aabea0010b78b2585df35c85bf41bf60001b61183e565b611e7f7f7613d75ffe2dcfe2dca5663a205abe6bbf44b16cb4969740e9e4ad0f6321a7d060001b61183e565b6000611ece84848080601f016020809104026020016040519081016040528093929190818152602001838380828437600081840152601f19601f82011690508083019250505050505050611bac565b9050611efc7f8f91ff09a98303d490892213c8ff1c3becf6c5f6235c236678d6750e0183db3260001b61183e565b611f287ff513aa19a367bc940abfb1a786c8bd53e6898f85de8487a3b0dfa216233ddd7460001b61183e565b7f30ead760751631f9a3bbfcbad7ebc57abfd0c6f73f75fa871821aaf932a69afc7bffffffffffffffffffffffffffffffffffffffffffffffffffffffff1916817bffffffffffffffffffffffffffffffffffffffffffffffffffffffff191614156128ea57611fba7fbaa2244e0ff2e91dfda4509ee7af15b3447cfd85aa4d5363db4cf48afc455e1b60001b61183e565b611fe67fa968a7436defd51f79714cd1ebb687b250f0eae44dc066d731954f0acdd09dc560001b61183e565b6120127fecdfa95e3e6548e3ee3e4772b85fdf6992ff6c66dac7784d1908c784782da0eb60001b61183e565b600061206385858080601f016020809104026020016040519081016040528093929190818152602001838380828437600081840152601f19601f8201169050808301925050505050505060006119f4565b90506120917f1d8e3f5cb9cc268c70764d482bb64a61cbf7e066e19280ee8c8f989287d77ef460001b61183e565b6120bd7fd9ee4c2c6f5fc6f39894145aa1c209e11eae0f863b505daf66559d61117430fc60001b61183e565b600061210e86868080601f016020809104026020016040519081016040528093929190818152602001838380828437600081840152601f19601f8201169050808301925050505050505060016119f4565b905061213c7fc15e9fbe869e4a39bda16b80c7a9b4eb6eacc71bb3956fb373ac18218f4c343460001b61183e565b6121687f25650936b8a83cac5d7957288873aa4c50824fd1f0a029dace4aa31bf4810c0460001b61183e565b60006121b987878080601f016020809104026020016040519081016040528093929190818152602001838380828437600081840152601f19601f8201169050808301925050505050505060026119f4565b90506121e77fb5cfe3a983ef8b234e479ad573006fae41a480e14af3512271c25c87614faf6f60001b61183e565b6122137f66838c8c22dfd03e51eebcbc9e4f9598ae9fc9e83b07d0dde56bef6cd579235860001b61183e565b600061221e84610de2565b905061224c7fbb530a190d9904588050fddc9eda4e6bf81abea4eb28077c2ebc35a90ec79edb60001b61183e565b6122787ff5d7acac6e3f648c980463041c75c2c4960d83c7513a4a82a30da921ebb3df3860001b61183e565b600061228383610de2565b90506122b17fd9e82e61bc520e98c6d9eb15a0c7e5140154e4f720fbc45c4583302d5befb24a60001b61183e565b6122dd7fad18802eb03fc88403847783023aca004b3544f99811fe747b77835e894e6cfd60001b61183e565b60008a905061230e7f059b46385e69f934721d27b2888b32e6224e938c6e08a6c079ea431f0c81afc660001b61183e565b61233a7fa184822a272d36bbe5bb7e24e1c97189b7930b501d59059c902b74e43d0772f160001b61183e565b6123667f4a296ac8373c28a22368db1e65425ad9ec21755e5be8f586946148a890e1e4cd60001b61183e565b8073ffffffffffffffffffffffffffffffffffffffff16639be918e6846040518263ffffffff1660e01b8152600401808273ffffffffffffffffffffffffffffffffffffffff16815260200191505060206040518083038186806123c8612a4c565b1580156123dd576000806123da61297b565b50505b505a6123e7612aaf565b5050505050158015612406573d6000803e3d600061240361297b565b50505b505050506040513d60208110156124255760008061242261297b565b50505b81019080805190602001909291905050506124b1576040517f08c379a000000000000000000000000000000000000000000000000000000000815260040180806020018281038252601d8152602001807f756e737570706f727465642064657374696e6174696f6e206173736574000000815250602001915050604051809103906124ae61297b565b50505b6124dd7fe7b729964ee3d66a5243be4e8c2a7708ac338749bc081bd1e4d509cc5671882860001b61183e565b6125097f56b1647424a5caa42797c7ba715f80b3b2567d40347d925b628f44ee79c7692560001b61183e565b6125357f13118b472f344fd0cdc47961fd5cdb8c5d3f17637dae8302a1ad8e2d2bf7c52a60001b61183e565b6125617f78b961c3389cd73407a5050839e2ee6a3a7c9b8d717c11a8fc36411e3bb6423b60001b61183e565b8073ffffffffffffffffffffffffffffffffffffffff16639be918e6836040518263ffffffff1660e01b8152600401808273ffffffffffffffffffffffffffffffffffffffff16815260200191505060206040518083038186806125c3612a4c565b1580156125d8576000806125d561297b565b50505b505a6125e2612aaf565b5050505050158015612601573d6000803e3d60006125fe61297b565b50505b505050506040513d60208110156126205760008061261d61297b565b50505b81019080805190602001909291905050506126ac576040517f08c379a000000000000000000000000000000000000000000000000000000000815260040180806020018281038252601d8152602001807f756e737570706f727465642064657374696e6174696f6e206173736574000000815250602001915050604051809103906126a961297b565b50505b6126d87f59b17c114c5891d43a6caf2a038a0be635251f02e629176ecda719bfdaba3fe260001b61183e565b6127047f414109e3c90adb43073e2f208c4456909c0308fd42dd7a392feeb6f9ee8a25b260001b61183e565b6127307f37003d9e278a84d653cae2875d8e14be0d4bf17ce7c5a768682b4d8ae89625f160001b61183e565b7fec43bc4dddba4c8ae8d4f92f53b39989eaf64022bec70471d105647e57c7891c8173ffffffffffffffffffffffffffffffffffffffff166339b81fd96040518163ffffffff1660e01b81526004016020604051808303818680612792612a4c565b1580156127a7576000806127a461297b565b50505b505a6127b1612aaf565b50505050501580156127d0573d6000803e3d60006127cd61297b565b50505b505050506040513d60208110156127ef576000806127ec61297b565b50505b8101908080519060200190929190505050848760001c855a61280f612baf565b604051808673ffffffffffffffffffffffffffffffffffffffff1681526020018573ffffffffffffffffffffffffffffffffffffffff1681526020018481526020018373ffffffffffffffffffffffffffffffffffffffff1681526020018281526020019550505050505060405180910390a16128ae7f25ebebeab8d29171817b4ca459cd06b58c975bb1135d48a97b462ea43bd63a1360001b61183e565b6128da7f4973a0762db834efa8fd06436b9afd78cf16948a4ea36d29034c94ee38c4a2de60001b61183e565b6001975050505050505050612974565b6129167f79aadf1279ef2f5f4f7541d9cbcbf69ffd29dd8a69bc1692c48e19ca723d76d960001b61183e565b6129427fec3a4a4d0c76a8f51c2c287477f792b91bfd2f487d6db6a7d2797186216cbf0860001b61183e565b61296e7fe5c9558e661c24ae9723750f1eec9b9dd132961ac8c87b31829a96e7650a6c0860001b61183e565b60009150505b9392505050565b632a2a7adb598160e01b8152600481016020815285602082015260005b868110156129b6578086015181604084010152602081019050612998565b506020828760640184336000905af158600e01573d6000803e3d6000fd5b3d6001141558600a015760016000f35b505050565b6303daa959598160e01b8152836004820152602081602483336000905af158600e01573d6000803e3d6000fd5b3d6001141558600a015760016000f35b8051935060005b6040811015612a4757600081830152602081019050612a2d565b505050565b638435035b598160e01b8152836004820152602081602483336000905af158600e01573d6000803e3d6000fd5b3d6001141558600a015760016000f35b8051935060005b6040811015612aaa57600081830152602081019050612a90565b505050565b638540661f598160e01b8152612aee565b600081905081831115612ad1578290505b92915050565b600081905081831015612ae8578290505b92915050565b836004820152846024820152606060448201528660648201526084810160005b88811015612b29578088015181830152602081019050612b0e565b506060828960a40184336000905af158600e01573d6000803e3d6000fd5b3d6001141558600a015760016000f35b815160408301513d6000853e8b8b82606087013350600060045af15059612b7e8d3d612ad7565b8c01612b8a8187612ac0565b5b82811015612ba25760008152602081019050612b8b565b50839d5050505050505050565b63bdbf8c36598160e01b8152602081600483336000905af158600e01573d6000803e3d6000fd5b3d6001141558600a015760016000f35b8051935060005b6040811015612c0757600081830152602081019050612bed565b50505056",
  "deployedBytecode": "0x60806040523480156100195760008061001661297b565b50505b50600436106100d85760003560e01c80634db3e7a211610095578063998546e31161006f578063998546e31461067d578063c3c6279f1461077d578063db896b571461088f578063e23ff43714610996576100d8565b80634db3e7a214610420578063568b5a2f1461045757806382f86acc1461057d576100d8565b806305a2ee2a146100e657806309ff5c7d1461011a5780631eba30771461021a57806322cedfc31461027b5780633ded6530146102b257806341dc16c314610313575b6000806100e361297b565b50505b6100ee610a69565b604051808273ffffffffffffffffffffffffffffffffffffffff16815260200191505060405180910390f35b610204600480360360408110156101395760008061013661297b565b50505b810190808035906020019064010000000081111561015f5760008061015c61297b565b50505b82018360208201111561017a5760008061017761297b565b50505b803590602001918460018302840111640100000000831117156101a5576000806101a261297b565b50505b91908080601f016020809104026020016040519081016040528093929190818152602001838380828437600081840152601f19601f820116905080830192505050505050509192919290803560ff169060200190929190505050610a94565b6040518082815260200191505060405180910390f35b61024f600480360360208110156102395760008061023661297b565b50505b8101908080359060200190929190505050610d4e565b604051808273ffffffffffffffffffffffffffffffffffffffff16815260200191505060405180910390f35b6102b06004803603602081101561029a5760008061029761297b565b50505b8101908080359060200190929190505050610ddf565b005b6102e7600480360360208110156102d1576000806102ce61297b565b50505b8101908080359060200190929190505050610de2565b604051808273ffffffffffffffffffffffffffffffffffffffff16815260200191505060405180910390f35b61040a600480360360608110156103325760008061032f61297b565b50505b81019080803590602001906401000000008111156103585760008061035561297b565b50505b8201836020820111156103735760008061037061297b565b50505b8035906020019184600183028401116401000000008311171561039e5760008061039b61297b565b50505b91908080601f016020809104026020016040519081016040528093929190818152602001838380828437600081840152601f19601f820116905080830192505050505050509192919290803560ff169060200190929190803560ff16906020019092919050505061144c565b6040518082815260200191505060405180910390f35b6104556004803603602081101561043f5760008061043c61297b565b50505b810190808035906020019092919050505061183e565b005b610548600480360360608110156104765760008061047361297b565b50505b810190808035906020019064010000000081111561049c5760008061049961297b565b50505b8201836020820111156104b7576000806104b461297b565b50505b803590602001918460018302840111640100000000831117156104e2576000806104df61297b565b50505b91908080601f016020809104026020016040519081016040528093929190818152602001838380828437600081840152601f19601f8201169050808301925050505050505091929192908035906020019092919080359060200190929190505050611841565b60405180827bffffffffffffffffffffffffffffffffffffffffffffffffffffffff1916815260200191505060405180910390f35b6106676004803603604081101561059c5760008061059961297b565b50505b81019080803590602001906401000000008111156105c2576000806105bf61297b565b50505b8201836020820111156105dd576000806105da61297b565b50505b803590602001918460018302840111640100000000831117156106085760008061060561297b565b50505b91908080601f016020809104026020016040519081016040528093929190818152602001838380828437600081840152601f19601f820116905080830192505050505050509192919290803560ff1690602001909291905050506119f4565b6040518082815260200191505060405180910390f35b6107676004803603604081101561069c5760008061069961297b565b50505b81019080803590602001906401000000008111156106c2576000806106bf61297b565b50505b8201836020820111156106dd576000806106da61297b565b50505b803590602001918460018302840111640100000000831117156107085760008061070561297b565b50505b91908080601f016020809104026020016040519081016040528093929190818152602001838380828437600081840152601f19601f820116905080830192505050505050509192919290803560ff169060200190929190505050611a97565b6040518082815260200191505060405180910390f35b61085a6004803603602081101561079c5760008061079961297b565b50505b81019080803590602001906401000000008111156107c2576000806107bf61297b565b50505b8201836020820111156107dd576000806107da61297b565b50505b803590602001918460018302840111640100000000831117156108085760008061080561297b565b50505b91908080601f016020809104026020016040519081016040528093929190818152602001838380828437600081840152601f19601f820116905080830192505050505050509192919290505050611bac565b60405180827bffffffffffffffffffffffffffffffffffffffffffffffffffffffff1916815260200191505060405180910390f35b610980600480360360608110156108ae576000806108ab61297b565b50505b81019080803590602001906401000000008111156108d4576000806108d161297b565b50505b8201836020820111156108ef576000806108ec61297b565b50505b8035906020019184600183028401116401000000008311171561091a5760008061091761297b565b50505b91908080601f016020809104026020016040519081016040528093929190818152602001838380828437600081840152601f19601f8201169050808301925050505050505091929192908035906020019092919080359060200190929190505050611c46565b6040518082815260200191505060405180910390f35b610a51600480360360408110156109b5576000806109b261297b565b50505b81019080803573ffffffffffffffffffffffffffffffffffffffff169060200190929190803590602001906401000000008111156109fb576000806109f861297b565b50505b820183602082011115610a1657600080610a1361297b565b50505b80359060200191846001830284011164010000000083111715610a4157600080610a3e61297b565b50505b9091929391929390505050611df9565b60405180821515815260200191505060405180910390f35b600080610a746129e9565b906101000a900473ffffffffffffffffffffffffffffffffffffffff1681565b6000610ac27f081d82e52646f30f5f6ba661c9f8640c9cd57ce66a80a3e2a8d58ce5bb27187060001b610ddf565b610aee7f09f957c21d0e9b2ec1b121684a6e7f5ac4edd73009cb6079362e23cfddf9a9c860001b610ddf565b610b1a7f3c18b9a50414e713d6d2d9fb3d8f35382b5efbbdea88daeb0918feace849715760001b610ddf565b6000610b31846004856020020160ff166020611c46565b9050610b5f7fef8d397263c2655f4ccf2b9be363e978048ff824160884a4bcae49615516e10d60001b610ddf565b610b8b7f74a724fe8f5378a48c6199852895f5901086e6334857b36d1bfda6debb52ec2e60001b610ddf565b6000610b9f8560048460001c016020611c46565b9050610bcd7f9a780319db2dc6e6b23ada0024cb7abdcb735d784ab162fd4df358f7790083e560001b610ddf565b610bf97feacef85564e6b6c37c507951170fc255c4d3d5c96436eac08483236950ea824b60001b610ddf565b610c257f82a785437fd1ca4984c1c85dd77a837b42b49b0eb13b373e6e257c6c09fbd61f60001b610ddf565b6000801b8111610ca6576040517f08c379a00000000000000000000000000000000000000000000000000000000081526004018080602001828103825260128152602001807f696e707574206973206e6f74206172726179000000000000000000000000000081525060200191505060405180910390610ca361297b565b50505b610cd27fe43217671634e3774905c2565f4e5137f7fe504fa68fccc06bbf3e58eb71b66160001b610ddf565b610cfe7f1b4b6c92de0ca738f0a984667b3c9678d804cdd2f47c17e91f52d7c5f051c41560001b610ddf565b610d2a7f09314e957efbeec867fd49fc3e7f5899b2d95ad68a6b5badee8d98784fd97f4460001b610ddf565b610d448560208360001c0260048560001c01016020611c46565b9250505092915050565b6000610d7c7f746ad3681a882d643153db78e530a3c3631a70addf1fa2b3fb00e7c9e006155c60001b610ddf565b610da87fdc74b4c260b28f73b6b9660be3d6c8df22d3969ef9bce7b2d804a0268404b7cd60001b610ddf565b610dd47f72b1c589190589f7b6b45bf4a6392802affc2e6b2798209520a0a75ef72c092560001b610ddf565b8160001c9050919050565b50565b6000610e107f6551347dbe1b74d0f9ca1ce16f2068283f0fe1fb043c5165407afb22f9c29ab060001b61183e565b610e3c7f18eedfa6a6e0580284a1a13a1dcc7948104d17f083a0297e1bacc9f80795d4c960001b61183e565b610e687f9308842250fb1751665844b0bcae7348d1f94d77c006e950df211f28b434f1da60001b61183e565b600080600090610e766129e9565b906101000a900473ffffffffffffffffffffffffffffffffffffffff1673ffffffffffffffffffffffffffffffffffffffff166321f8a7217f53796e74686574697800000000000000000000000000000000000000000000006040518263ffffffff1660e01b8152600401808281526020019150506020604051808303818680610efe612a4c565b158015610f1357600080610f1061297b565b50505b505a610f1d612aaf565b5050505050158015610f3c573d6000803e3d6000610f3961297b565b50505b505050506040513d6020811015610f5b57600080610f5861297b565b50505b810190808051906020019092919050505073ffffffffffffffffffffffffffffffffffffffff166332608039846040518263ffffffff1660e01b8152600401808281526020019150506020604051808303818680610fb7612a4c565b158015610fcc57600080610fc961297b565b50505b505a610fd6612aaf565b5050505050158015610ff5573d6000803e3d6000610ff261297b565b50505b505050506040513d60208110156110145760008061101161297b565b50505b810190808051906020019092919050505090506110537fb24caf750f1e6b519022a9680524244b9c08bb5e52c43fff357c03060125f64960001b61183e565b61107f7f3408c9916f2a548380e87d1766bb699b4329a06b5aaf7b66702a22ca6b90450760001b61183e565b6110ab7f9608d9e0290c6c59997334ff53555d9ffea747fb000190d4ac7764d78b0c54d060001b61183e565b600073ffffffffffffffffffffffffffffffffffffffff168173ffffffffffffffffffffffffffffffffffffffff161415611157576040517f08c379a000000000000000000000000000000000000000000000000000000000815260040180806020018281038252600b8152602001807f696e76616c6964206b65790000000000000000000000000000000000000000008152506020019150506040518091039061115461297b565b50505b6111837fed4ab36d1adf86b50ecfc653fc46dd1b3882157de4355604acd387a3856f40e060001b61183e565b6111af7f517796abbb31986f6791ca2d3177f8f37b7e0d6e035aca25280d50916da0ea6560001b61183e565b6111db7f841abcefdbf5ca1393c8358d0928c3020b56b1e1be692015de1da523680f19df60001b61183e565b60008173ffffffffffffffffffffffffffffffffffffffff1663ec5568896040518163ffffffff1660e01b8152600401602060405180830381868061121e612a4c565b1580156112335760008061123061297b565b50505b505a61123d612aaf565b505050505015801561125c573d6000803e3d600061125961297b565b50505b505050506040513d602081101561127b5760008061127861297b565b50505b810190808051906020019092919050505090506112ba7f76c9d8698de6728f9ea316b8a3d665e06c59c39edc65554494fd4863d43b42ac60001b61183e565b6112e67fda62abb0158c3f757c51e2d55b8cc144d1e4a907b680bb1dcb0dbe578a6cca6d60001b61183e565b6113127fdf14160f31520a3d5c2e9f90c9bba5b57be61063aa5264c62cfdea9eba33dc6160001b61183e565b600073ffffffffffffffffffffffffffffffffffffffff168173ffffffffffffffffffffffffffffffffffffffff1614156113be576040517f08c379a000000000000000000000000000000000000000000000000000000000815260040180806020018281038252600d8152602001807f696e76616c69642070726f787900000000000000000000000000000000000000815250602001915050604051809103906113bb61297b565b50505b6113ea7f13909d76226efbc93347f868092fbfd0bfc1eac9a393432902a672d6f4aee78c60001b61183e565b6114167f273f2b8fa57de6a76371be4cdcf30e61c59fc5048985b026d32832056c4a2ba660001b61183e565b6114427f5998b5e549cb9a0ae6a174e6da6d21db34d2042961241bc1d7b022e311adcf0060001b61183e565b8092505050919050565b600061147a7f0d2edb964b9e832488b09b10132df8eae74acfc0fc4ef7f9d17163fc2e452a2e60001b610ddf565b6114a67fec59aeec3a522e44409f61c0fa70319cf1bf4918e86c015c6bd7fd77cfc1ae9360001b610ddf565b6114d27fb4266cc8b2adcdafb3172be707d2eee0716530e37ad5d9f5e65f6c7babc7809d60001b610ddf565b60006114e9856004866020020160ff166020611c46565b90506115177f1f2b2786ee9ec18f24b6ccdcc72ade656a4dd4d847db4a80de9458d5dc44c09060001b610ddf565b6115437fb00c56757dd8ec9f02b936996a334928b1ef6f3435c2ba9dbd5d9dc89c70070760001b610ddf565b60006115578660048460001c016020611c46565b90506115857f0561a5eddc039c0aeec1e8962165d9d1f98f95ff176cb1da7911da2d15fc68e160001b610ddf565b6115b17f2975ca5dd6258a561f9086915a438ad03ff8d21b085793774c29b6f109905d5660001b610ddf565b6115dd7fe202a0fe1a62fce1431754f635daf3f1e6bc0f9c3ebc648471c03244a4f8700960001b610ddf565b6000801b811161165e576040517f08c379a00000000000000000000000000000000000000000000000000000000081526004018080602001828103825260128152602001807f696e707574206973206e6f7420617272617900000000000000000000000000008152506020019150506040518091039061165b61297b565b50505b61168a7f1e785ed06ba7037d73973307b033d65e2f824f9cc0fcf912d8380dd82538492160001b610ddf565b6116b67f6ef73466323634ac0f371519fc18548657fcc76f8d0c3ccddbf7468adf89774960001b610ddf565b6116e27f2a303905ffb4cda24ed31526b4f963ad1b91bfadec5c8ed2ca40b29c472ed13660001b610ddf565b61170e7ffca3600df76533b6d8f4c84af3473e45313d07b1b4d815f512d23d58304c6ed960001b610ddf565b8360ff168160001c11611792576040517f08c379a00000000000000000000000000000000000000000000000000000000081526004018080602001828103825260168152602001807f696e76616c696420617272617920706f736974696f6e000000000000000000008152506020019150506040518091039061178f61297b565b50505b6117be7f551e68dba562f6faa3974de6be47a00ae8ddb4d4165ba52d68af2ba1a833bfe360001b610ddf565b6117ea7f4286efa5281a1ee99db835a134f746afbaf3d0fcc3672421febb6a2e4a400a4e60001b610ddf565b6118167f5af5a9ef45989c8affc392d2d5d0df701f283a3b0e79d53d1135f03c8d9d5d5e60001b610ddf565b6118338660208660ff166001010260048560001c01016020611c46565b925050509392505050565b50565b600061186f7fd6c6dbfd4bf36b156af386725ee599a07a7fc0502d86558792f32d90271a5e9e60001b610ddf565b61189b7f0df76cc601986d069b64699d8ff4fb99fcbc1b9e4220f157da3fd86e163df1dd60001b610ddf565b6118c77f74f9c4c8d25560321ca7a58042227880f04c2c9c527d041bc89b76e7bbdf6cdc60001b610ddf565b6118f37f9d0a02e3e973d364b485ed97415c4bc7224e29a836b070d88d00c4291d80398260001b610ddf565b81830184511015611975576040517f08c379a000000000000000000000000000000000000000000000000000000000815260040180806020018281038252601b8152602001807f52656164696e67206279746573206f7574206f6620626f756e647300000000008152506020019150506040518091039061197261297b565b50505b6119a17f811b5aac9a857ab8c7cd87ee345761773d2b9d61f70042d22951c307ea4c065a60001b610ddf565b6119cd7ffd285ebeb1be2f9b4fb9556de5470780f301ad863061c4de10d0104d490e25c360001b610ddf565b8260200184015190508160040380156119ec576008810260020a820491505b509392505050565b6000611a227ffaab115858d9fce9efc97f1bbbb6e0df3297f8f129d4b2eded2c231a15f4085860001b610ddf565b611a4e7ff893ef875ca94e9c3fc4cc86b45216aece14b700e6ec2a78405a4d0c8f88e0ca60001b610ddf565b611a7a7fab731ada03353f5fae632f632758df8ca199a2c0ed3b8fca3d506596ce85d1e860001b610ddf565b611a8f836004846020020160ff166020611c46565b905092915050565b6000611ac57f8f457202f427629ea60baa80f7f914c085350c8f2ca4f9fd180aca9fc44ec1f560001b610ddf565b611af17f4da3e58273fe915f61c0c9a457139e818bfac3b557b392cdd56b41b84d0d8def60001b610ddf565b611b1d7f5a7820acfad558e8182703c3d21294f7dfe53893d06442449d90f8b2f322864560001b610ddf565b6000611b34846004856020020160ff166020611c46565b9050611b627f8ccb0543f48fb49fbfcbc888a85917c4133287cc7f38bafdefda960c0dcb4cd760001b610ddf565b611b8e7f2c0a939cfc53a406486784d858b7febb9711ec07456a8d9c024180617f6cc92960001b610ddf565b611ba08460048360001c016020611c46565b60001c91505092915050565b6000611bda7fefe2c22b09876a856e39aa166afadf74ae34fe283090d9979cb49ad407e38f1e60001b610ddf565b611c067fa17e61bf25b219f9e370180ea595fbf5c5023abe458e1c62e77b21b115a1bd0b60001b610ddf565b611c327ff879bb38771c8cf94106f3671591cfac3d19bc2e769322669e85c43b59b6fb8f60001b610ddf565b611c3f8260006004611841565b9050919050565b6000611c747fdbf66ce83ce63e1b90e474f035c4a8d784e0e29bf54a573c26983a0f4a4cbbcb60001b610ddf565b611ca07feb2cd4358c15899b1595ad29b0ef0b53024f659bfd60d9f832cfd5823d57459460001b610ddf565b611ccc7fc3be7f0e5a666c19a596140bd00fdc4df0b35f7dffd237a9b85317c383366c9460001b610ddf565b611cf87f2acb4df9e63e73b3d49d7b38657b1574f30cd3acb64bc5e5b73ab1144ceb9b8360001b610ddf565b81830184511015611d7a576040517f08c379a000000000000000000000000000000000000000000000000000000000815260040180806020018281038252601b8152602001807f52656164696e67206279746573206f7574206f6620626f756e6473000000000081525060200191505060405180910390611d7761297b565b50505b611da67f3f71e92bd14f821d88273ee800e0b73eae1655a1d351098740c416395fb88be160001b610ddf565b611dd27f4012a161d651452a28c3646c96a8ddc6a29d16ef089a2e5ae51fb2b45e28cb2660001b610ddf565b826020018401519050816020038015611df1576008810260020a820491505b509392505050565b6000611e277faff7fd63fb72a5127dd25b225eb12bf990fb28070a09830f36f68549cac09dc460001b61183e565b611e537f840282223409512aaefb5d4004ca5834f9aabea0010b78b2585df35c85bf41bf60001b61183e565b611e7f7f7613d75ffe2dcfe2dca5663a205abe6bbf44b16cb4969740e9e4ad0f6321a7d060001b61183e565b6000611ece84848080601f016020809104026020016040519081016040528093929190818152602001838380828437600081840152601f19601f82011690508083019250505050505050611bac565b9050611efc7f8f91ff09a98303d490892213c8ff1c3becf6c5f6235c236678d6750e0183db3260001b61183e565b611f287ff513aa19a367bc940abfb1a786c8bd53e6898f85de8487a3b0dfa216233ddd7460001b61183e565b7f30ead760751631f9a3bbfcbad7ebc57abfd0c6f73f75fa871821aaf932a69afc7bffffffffffffffffffffffffffffffffffffffffffffffffffffffff1916817bffffffffffffffffffffffffffffffffffffffffffffffffffffffff191614156128ea57611fba7fbaa2244e0ff2e91dfda4509ee7af15b3447cfd85aa4d5363db4cf48afc455e1b60001b61183e565b611fe67fa968a7436defd51f79714cd1ebb687b250f0eae44dc066d731954f0acdd09dc560001b61183e565b6120127fecdfa95e3e6548e3ee3e4772b85fdf6992ff6c66dac7784d1908c784782da0eb60001b61183e565b600061206385858080601f016020809104026020016040519081016040528093929190818152602001838380828437600081840152601f19601f8201169050808301925050505050505060006119f4565b90506120917f1d8e3f5cb9cc268c70764d482bb64a61cbf7e066e19280ee8c8f989287d77ef460001b61183e565b6120bd7fd9ee4c2c6f5fc6f39894145aa1c209e11eae0f863b505daf66559d61117430fc60001b61183e565b600061210e86868080601f016020809104026020016040519081016040528093929190818152602001838380828437600081840152601f19601f8201169050808301925050505050505060016119f4565b905061213c7fc15e9fbe869e4a39bda16b80c7a9b4eb6eacc71bb3956fb373ac18218f4c343460001b61183e565b6121687f25650936b8a83cac5d7957288873aa4c50824fd1f0a029dace4aa31bf4810c0460001b61183e565b60006121b987878080601f016020809104026020016040519081016040528093929190818152602001838380828437600081840152601f19601f8201169050808301925050505050505060026119f4565b90506121e77fb5cfe3a983ef8b234e479ad573006fae41a480e14af3512271c25c87614faf6f60001b61183e565b6122137f66838c8c22dfd03e51eebcbc9e4f9598ae9fc9e83b07d0dde56bef6cd579235860001b61183e565b600061221e84610de2565b905061224c7fbb530a190d9904588050fddc9eda4e6bf81abea4eb28077c2ebc35a90ec79edb60001b61183e565b6122787ff5d7acac6e3f648c980463041c75c2c4960d83c7513a4a82a30da921ebb3df3860001b61183e565b600061228383610de2565b90506122b17fd9e82e61bc520e98c6d9eb15a0c7e5140154e4f720fbc45c4583302d5befb24a60001b61183e565b6122dd7fad18802eb03fc88403847783023aca004b3544f99811fe747b77835e894e6cfd60001b61183e565b60008a905061230e7f059b46385e69f934721d27b2888b32e6224e938c6e08a6c079ea431f0c81afc660001b61183e565b61233a7fa184822a272d36bbe5bb7e24e1c97189b7930b501d59059c902b74e43d0772f160001b61183e565b6123667f4a296ac8373c28a22368db1e65425ad9ec21755e5be8f586946148a890e1e4cd60001b61183e565b8073ffffffffffffffffffffffffffffffffffffffff16639be918e6846040518263ffffffff1660e01b8152600401808273ffffffffffffffffffffffffffffffffffffffff16815260200191505060206040518083038186806123c8612a4c565b1580156123dd576000806123da61297b565b50505b505a6123e7612aaf565b5050505050158015612406573d6000803e3d600061240361297b565b50505b505050506040513d60208110156124255760008061242261297b565b50505b81019080805190602001909291905050506124b1576040517f08c379a000000000000000000000000000000000000000000000000000000000815260040180806020018281038252601d8152602001807f756e737570706f727465642064657374696e6174696f6e206173736574000000815250602001915050604051809103906124ae61297b565b50505b6124dd7fe7b729964ee3d66a5243be4e8c2a7708ac338749bc081bd1e4d509cc5671882860001b61183e565b6125097f56b1647424a5caa42797c7ba715f80b3b2567d40347d925b628f44ee79c7692560001b61183e565b6125357f13118b472f344fd0cdc47961fd5cdb8c5d3f17637dae8302a1ad8e2d2bf7c52a60001b61183e565b6125617f78b961c3389cd73407a5050839e2ee6a3a7c9b8d717c11a8fc36411e3bb6423b60001b61183e565b8073ffffffffffffffffffffffffffffffffffffffff16639be918e6836040518263ffffffff1660e01b8152600401808273ffffffffffffffffffffffffffffffffffffffff16815260200191505060206040518083038186806125c3612a4c565b1580156125d8576000806125d561297b565b50505b505a6125e2612aaf565b5050505050158015612601573d6000803e3d60006125fe61297b565b50505b505050506040513d60208110156126205760008061261d61297b565b50505b81019080805190602001909291905050506126ac576040517f08c379a000000000000000000000000000000000000000000000000000000000815260040180806020018281038252601d8152602001807f756e737570706f727465642064657374696e6174696f6e206173736574000000815250602001915050604051809103906126a961297b565b50505b6126d87f59b17c114c5891d43a6caf2a038a0be635251f02e629176ecda719bfdaba3fe260001b61183e565b6127047f414109e3c90adb43073e2f208c4456909c0308fd42dd7a392feeb6f9ee8a25b260001b61183e565b6127307f37003d9e278a84d653cae2875d8e14be0d4bf17ce7c5a768682b4d8ae89625f160001b61183e565b7fec43bc4dddba4c8ae8d4f92f53b39989eaf64022bec70471d105647e57c7891c8173ffffffffffffffffffffffffffffffffffffffff166339b81fd96040518163ffffffff1660e01b81526004016020604051808303818680612792612a4c565b1580156127a7576000806127a461297b565b50505b505a6127b1612aaf565b50505050501580156127d0573d6000803e3d60006127cd61297b565b50505b505050506040513d60208110156127ef576000806127ec61297b565b50505b8101908080519060200190929190505050848760001c855a61280f612baf565b604051808673ffffffffffffffffffffffffffffffffffffffff1681526020018573ffffffffffffffffffffffffffffffffffffffff1681526020018481526020018373ffffffffffffffffffffffffffffffffffffffff1681526020018281526020019550505050505060405180910390a16128ae7f25ebebeab8d29171817b4ca459cd06b58c975bb1135d48a97b462ea43bd63a1360001b61183e565b6128da7f4973a0762db834efa8fd06436b9afd78cf16948a4ea36d29034c94ee38c4a2de60001b61183e565b6001975050505050505050612974565b6129167f79aadf1279ef2f5f4f7541d9cbcbf69ffd29dd8a69bc1692c48e19ca723d76d960001b61183e565b6129427fec3a4a4d0c76a8f51c2c287477f792b91bfd2f487d6db6a7d2797186216cbf0860001b61183e565b61296e7fe5c9558e661c24ae9723750f1eec9b9dd132961ac8c87b31829a96e7650a6c0860001b61183e565b60009150505b9392505050565b632a2a7adb598160e01b8152600481016020815285602082015260005b868110156129b6578086015181604084010152602081019050612998565b506020828760640184336000905af158601d01573d60011458600c01573d6000803e3d621234565260ea61109c52505050565b6303daa959598160e01b8152836004820152602081602483336000905af158601d01573d60011458600c01573d6000803e3d621234565260ea61109c528051935060005b6040811015612a4757600081830152602081019050612a2d565b505050565b638435035b598160e01b8152836004820152602081602483336000905af158601d01573d60011458600c01573d6000803e3d621234565260ea61109c528051935060005b6040811015612aaa57600081830152602081019050612a90565b505050565b638540661f598160e01b8152612aee565b600081905081831115612ad1578290505b92915050565b600081905081831015612ae8578290505b92915050565b836004820152846024820152606060448201528660648201526084810160005b88811015612b29578088015181830152602081019050612b0e565b506060828960a40184336000905af158601d01573d60011458600c01573d6000803e3d621234565260ea61109c52815160408301513d6000853e8b8b82606087013350600060045af15059612b7e8d3d612ad7565b8c01612b8a8187612ac0565b5b82811015612ba25760008152602081019050612b8b565b50839d5050505050505050565b63bdbf8c36598160e01b8152602081600483336000905af158601d01573d60011458600c01573d6000803e3d621234565260ea61109c528051935060005b6040811015612c0757600081830152602081019050612bed565b50505056",
  "linkReferences": {},
  "deployedLinkReferences": {}
}