{
  "_format": "hh-sol-artifact-1",
  "contractName": "SynthetixGuard-ovm",
  "sourceName": "contracts/guards/SynthetixGuard.sol",
  "abi": [
    {
      "inputs": [
        {
          "internalType": "contract IAddressResolver",
          "name": "_addressResolver",
          "type": "address"
        }
      ],
      "stateMutability": "nonpayable",
      "type": "constructor"
    },
    {
      "anonymous": false,
      "inputs": [
        {
          "indexed": false,
          "internalType": "address",
          "name": "fundAddress",
          "type": "address"
        },
        {
          "indexed": false,
          "internalType": "address",
          "name": "sourceAsset",
          "type": "address"
        },
        {
          "indexed": false,
          "internalType": "uint256",
          "name": "sourceAmount",
          "type": "uint256"
        },
        {
          "indexed": false,
          "internalType": "address",
          "name": "destinationAddress",
          "type": "address"
        },
        {
          "indexed": false,
          "internalType": "uint256",
          "name": "time",
          "type": "uint256"
        }
      ],
      "name": "Exchange",
      "type": "event"
    },
    {
      "inputs": [],
      "name": "addressResolver",
      "outputs": [
        {
          "internalType": "contract IAddressResolver",
          "name": "",
          "type": "address"
        }
      ],
      "stateMutability": "view",
      "type": "function"
    },
    {
      "inputs": [
        {
          "internalType": "bytes32",
          "name": "data",
          "type": "bytes32"
        }
      ],
      "name": "convert32toAddress",
      "outputs": [
        {
          "internalType": "address",
          "name": "o",
          "type": "address"
        }
      ],
      "stateMutability": "pure",
      "type": "function"
    },
    {
      "inputs": [
        {
          "internalType": "bytes",
          "name": "data",
          "type": "bytes"
        },
        {
          "internalType": "uint8",
          "name": "inputNum",
          "type": "uint8"
        },
        {
          "internalType": "uint8",
          "name": "arrayIndex",
          "type": "uint8"
        }
      ],
      "name": "getArrayIndex",
      "outputs": [
        {
          "internalType": "bytes32",
          "name": "",
          "type": "bytes32"
        }
      ],
      "stateMutability": "pure",
      "type": "function"
    },
    {
      "inputs": [
        {
          "internalType": "bytes",
          "name": "data",
          "type": "bytes"
        },
        {
          "internalType": "uint8",
          "name": "inputNum",
          "type": "uint8"
        }
      ],
      "name": "getArrayLast",
      "outputs": [
        {
          "internalType": "bytes32",
          "name": "",
          "type": "bytes32"
        }
      ],
      "stateMutability": "pure",
      "type": "function"
    },
    {
      "inputs": [
        {
          "internalType": "bytes",
          "name": "data",
          "type": "bytes"
        },
        {
          "internalType": "uint8",
          "name": "inputNum",
          "type": "uint8"
        }
      ],
      "name": "getArrayLength",
      "outputs": [
        {
          "internalType": "uint256",
          "name": "",
          "type": "uint256"
        }
      ],
      "stateMutability": "pure",
      "type": "function"
    },
    {
      "inputs": [
        {
          "internalType": "bytes32",
          "name": "key",
          "type": "bytes32"
        }
      ],
      "name": "getAssetProxy",
      "outputs": [
        {
          "internalType": "address",
          "name": "",
          "type": "address"
        }
      ],
      "stateMutability": "view",
      "type": "function"
    },
    {
      "inputs": [
        {
          "internalType": "bytes",
          "name": "data",
          "type": "bytes"
        },
        {
          "internalType": "uint8",
          "name": "inputNum",
          "type": "uint8"
        }
      ],
      "name": "getInput",
      "outputs": [
        {
          "internalType": "bytes32",
          "name": "",
          "type": "bytes32"
        }
      ],
      "stateMutability": "pure",
      "type": "function"
    },
    {
      "inputs": [
        {
          "internalType": "bytes",
          "name": "data",
          "type": "bytes"
        }
      ],
      "name": "getMethod",
      "outputs": [
        {
          "internalType": "bytes4",
          "name": "",
          "type": "bytes4"
        }
      ],
      "stateMutability": "pure",
      "type": "function"
    },
    {
      "inputs": [
        {
          "internalType": "bytes",
          "name": "data",
          "type": "bytes"
        },
        {
          "internalType": "uint256",
          "name": "offset",
          "type": "uint256"
        },
        {
          "internalType": "uint256",
          "name": "length",
          "type": "uint256"
        }
      ],
      "name": "read32",
      "outputs": [
        {
          "internalType": "bytes32",
          "name": "o",
          "type": "bytes32"
        }
      ],
      "stateMutability": "pure",
      "type": "function"
    },
    {
      "inputs": [
        {
          "internalType": "bytes",
          "name": "data",
          "type": "bytes"
        },
        {
          "internalType": "uint256",
          "name": "offset",
          "type": "uint256"
        },
        {
          "internalType": "uint256",
          "name": "length",
          "type": "uint256"
        }
      ],
      "name": "read4left",
      "outputs": [
        {
          "internalType": "bytes4",
          "name": "o",
          "type": "bytes4"
        }
      ],
      "stateMutability": "pure",
      "type": "function"
    },
    {
      "inputs": [
        {
          "internalType": "address",
          "name": "pool",
          "type": "address"
        },
        {
          "internalType": "bytes",
          "name": "data",
          "type": "bytes"
        }
      ],
      "name": "txGuard",
      "outputs": [
        {
          "internalType": "bool",
          "name": "",
          "type": "bool"
        }
      ],
      "stateMutability": "nonpayable",
      "type": "function"
    }
  ],
  "bytecode": "0x60806040523480156200001c576000806200001962000097565b50505b506040516200157638038062001576833981810160405260208110156200004d576000806200004a62000097565b50505b8101908080519250829150600090506001816200006962000104565b816001600160a01b0302191690836001600160a01b03160217906200008d62000166565b50505050620001b5565b632a2a7adb598160e01b8152600481016020815285602082015260005b86811015620000d1578086015182820160400152602001620000b4565b506020828760640184336000905af158600e01573d6000803e3d6000fd5b3d6001141558600a015760016000f35b505050565b6303daa959598160e01b8152836004820152602081602483336000905af158600e01573d6000803e3d6000fd5b3d6001141558600a015760016000f35b8051935060005b6040811015620001615760008282015260200162000148565b505050565b6322bd64c0598160e01b8152836004820152846024820152600081604483336000905af158600e01573d6000803e3d6000fd5b3d6001141558600a015760016000f35b60008152602062000148565b6113b180620001c56000396000f3fe608060405234801561001957600080610016611169565b50505b50600436106100b25760003560e01c8063568b5a2f1161007a578063568b5a2f146102e557806382f86acc146103ce578063998546e31461049a578063c3c6279f14610566578063db896b571461062d578063e23ff437146106f9576100b2565b806305a2ee2a146100c057806309ff5c7d146100e45780631eba3077146101c25780633ded6530146101e857806341dc16c31461020e575b6000806100bd611169565b50505b6100c86107af565b6040516001600160a01b03909116815260200160405180910390f35b6101b06004803603604081101561010357600080610100611169565b50505b810190602081018135600160201b81111561012657600080610123611169565b50505b8201836020820111156101415760008061013e611169565b50505b803590602001918460018302840111600160201b8311171561016b57600080610168611169565b50505b91908080601f01602080910402602001604051908101604052818152929190602084018383808284376000920191909152509295505050903560ff1691506107cd9050565b60405190815260200160405180910390f35b6100c8600480360360208110156101e1576000806101de611169565b50505b5035610868565b6100c86004803603602081101561020757600080610204611169565b50505b503561086b565b6101b06004803603606081101561022d5760008061022a611169565b50505b810190602081018135600160201b8111156102505760008061024d611169565b50505b82018360208201111561026b57600080610268611169565b50505b803590602001918460018302840111600160201b8311171561029557600080610292611169565b50505b91908080601f01602080910402602001604051908101604052818152929190602084018383808284376000920191909152509295505060ff8335811694506020909301359092169150610b319050565b6103b16004803603606081101561030457600080610301611169565b50505b810190602081018135600160201b81111561032757600080610324611169565b50505b8201836020820111156103425760008061033f611169565b50505b803590602001918460018302840111600160201b8311171561036c57600080610369611169565b50505b91908080601f01602080910402602001604051908101604052818152929190602084018383808284376000920191909152509295505082359350505060200135610c29565b6040516001600160e01b0319909116815260200160405180910390f35b6101b0600480360360408110156103ed576000806103ea611169565b50505b810190602081018135600160201b8111156104105760008061040d611169565b50505b82018360208201111561042b57600080610428611169565b50505b803590602001918460018302840111600160201b8311171561045557600080610452611169565b50505b91908080601f01602080910402602001604051908101604052818152929190602084018383808284376000920191909152509295505050903560ff169150610cb29050565b6101b0600480360360408110156104b9576000806104b6611169565b50505b810190602081018135600160201b8111156104dc576000806104d9611169565b50505b8201836020820111156104f7576000806104f4611169565b50505b803590602001918460018302840111600160201b831117156105215760008061051e611169565b50505b91908080601f01602080910402602001604051908101604052818152929190602084018383808284376000920191909152509295505050903560ff169150610cc99050565b6103b16004803603602081101561058557600080610582611169565b50505b810190602081018135600160201b8111156105a8576000806105a5611169565b50505b8201836020820111156105c3576000806105c0611169565b50505b803590602001918460018302840111600160201b831117156105ed576000806105ea611169565b50505b91908080601f0160208091040260200160405190810160405281815292919060208401838380828437600092019190915250929550610cfa945050505050565b6101b06004803603606081101561064c57600080610649611169565b50505b810190602081018135600160201b81111561066f5760008061066c611169565b50505b82018360208201111561068a57600080610687611169565b50505b803590602001918460018302840111600160201b831117156106b4576000806106b1611169565b50505b91908080601f01602080910402602001604051908101604052818152929190602084018383808284376000920191909152509295505082359350505060200135610d09565b61079b6004803603604081101561071857600080610715611169565b50505b6001600160a01b038235169190810190604081016020820135600160201b81111561074b57600080610748611169565b50505b82018360208201111561076657600080610763611169565b50505b803590602001918460018302840111600160201b831117156107905760008061078d611169565b50505b509092509050610d8d565b604051901515815260200160405180910390f35b6000806107ba6111d4565b906101000a90046001600160a01b031681565b6000806107e5848460200260040160ff166020610d09565b905060006107f885600484016020610d09565b9050806108495760405162461bcd60e51b8152602060048201526012602482015271696e707574206973206e6f7420617272617960701b604482015260640160405180910390610846611169565b50505b61085d856020808402850160040190610d09565b925050505b92915050565b90565b6000806000806108796111d4565b906101000a90046001600160a01b03166001600160a01b03166321f8a721680a6f2dce8d0cae8d2f60bb1b6040516001600160e01b031960e084901b168152600481019190915260240160206040518083038186806108d6611234565b1580156108eb576000806108e8611169565b50505b505a6108f5611280565b5050505050158015610914573d6000803e3d6000610911611169565b50505b505050506040513d602081101561093357600080610930611169565b50505b8101908080516001600160a01b03169250633260803991508590506040516001600160e01b031960e084901b16815260048101919091526024016020604051808303818680610980611234565b15801561099557600080610992611169565b50505b505a61099f611280565b50505050501580156109be573d6000803e3d60006109bb611169565b50505b505050506040513d60208110156109dd576000806109da611169565b50505b81019080805193505050506001600160a01b038116610a395760405162461bcd60e51b815260206004820152600b60248201526a696e76616c6964206b657960a81b604482015260640160405180910390610a36611169565b50505b6000816001600160a01b031663ec5568896040518163ffffffff1660e01b81526004016020604051808303818680610a6f611234565b158015610a8457600080610a81611169565b50505b505a610a8e611280565b5050505050158015610aad573d6000803e3d6000610aaa611169565b50505b505050506040513d6020811015610acc57600080610ac9611169565b50505b81019080805193505050506001600160a01b038116610b2a5760405162461bcd60e51b815260206004820152600d60248201526c696e76616c69642070726f787960981b604482015260640160405180910390610b27611169565b50505b9392505050565b600080610b49858560200260040160ff166020610d09565b90506000610b5c86600484016020610d09565b905080610bad5760405162461bcd60e51b8152602060048201526012602482015271696e707574206973206e6f7420617272617960701b604482015260640160405180910390610baa611169565b50505b60ff84168111610c055760405162461bcd60e51b815260206004820152601660248201527534b73b30b634b21030b93930bc903837b9b4ba34b7b760511b604482015260640160405180910390610c02611169565b50505b610c1f866020600160ff8816018102850160040190610d09565b9695505050505050565b600081830184511015610c8b5760405162461bcd60e51b815260206004820152601b60248201527f52656164696e67206279746573206f7574206f6620626f756e64730000000000604482015260640160405180910390610c88611169565b50505b826020018401519050816004038015610caa576008810260020a820491505b509392505050565b6000610b2a838360200260040160ff166020610d09565b600080610ce1848460200260040160ff166020610d09565b9050610cf284600483016020610d09565b949350505050565b60006108628260006004610c29565b600081830184511015610d6b5760405162461bcd60e51b815260206004820152601b60248201527f52656164696e67206279746573206f7574206f6620626f756e64730000000000604482015260640160405180910390610d68611169565b50505b826020018401519050816020038015610caa5760080260020a90049392505050565b600080610dce84848080601f0160208091040260200160405190810160405281815292919060208401838380828437600092019190915250610cfa92505050565b90506001600160e01b0319811663018756bb60e51b141561115e576000610e2985858080601f016020809104026020016040519081016040528181529291906020840183838082843760009201829052509250610cb2915050565b90506000610e6e86868080601f016020809104026020016040519081016040528181529291906020840183838082843760009201919091525060019250610cb2915050565b90506000610eb387878080601f016020809104026020016040519081016040528181529291906020840183838082843760009201919091525060029250610cb2915050565b90506000610ec08461086b565b90506000610ecd8361086b565b9050896001600160a01b03811663464b4158846040516001600160e01b031960e084901b1681526001600160a01b0390911660048201526024016020604051808303818680610f1a611234565b158015610f2f57600080610f2c611169565b50505b505a610f39611280565b5050505050158015610f58573d6000803e3d6000610f55611169565b50505b505050506040513d6020811015610f7757600080610f74611169565b50505b8101908080519250610fdb9150505760405162461bcd60e51b815260206004820152601d60248201527f756e737570706f727465642064657374696e6174696f6e206173736574000000604482015260640160405180910390610fd8611169565b50505b806001600160a01b031663464b4158836040516001600160e01b031960e084901b1681526001600160a01b0390911660048201526024016020604051808303818680611025611234565b15801561103a57600080611037611169565b50505b505a611044611280565b5050505050158015611063573d6000803e3d6000611060611169565b50505b505050506040513d60208110156110825760008061107f611169565b50505b81019080805192506110e69150505760405162461bcd60e51b815260206004820152601d60248201527f756e737570706f727465642064657374696e6174696f6e2061737365740000006044820152606401604051809103906110e3611169565b50505b7fec43bc4dddba4c8ae8d4f92f53b39989eaf64022bec70471d105647e57c7891c818487855a61111461136b565b6040516001600160a01b039586168152938516602085015260408085019390935293166060830152608082019290925260a001905180910390a16001975050505050505050610b2a565b506000949350505050565b632a2a7adb598160e01b8152600481016020815285602082015260005b868110156111a1578086015182820160400152602001611186565b506020828760640184336000905af158600e01573d6000803e3d6000fd5b3d6001141558600a015760016000f35b505050565b6303daa959598160e01b8152836004820152602081602483336000905af158600e01573d6000803e3d6000fd5b3d6001141558600a015760016000f35b8051935060005b604081101561122f57600082820152602001611218565b505050565b638435035b598160e01b8152836004820152602081602483336000905af158600e01573d6000803e3d6000fd5b3d6001141558600a015760016000f35b80516000825293506020611218565b638540661f598160e01b81526112b1565b8080831115610862575090919050565b8080831015610862575090919050565b836004820152846024820152606060448201528660648201526084810160005b888110156112e95780880151828201526020016112d1565b506060828960a40184336000905af158600e01573d6000803e3d6000fd5b3d6001141558600a015760016000f35b815160408301513d6000853e8b8b82606087013350600060045af1505961133e8d3d6112a1565b8c0161134a8187611291565b5b8281101561135f576000815260200161134b565b50929c50505050505050565b63bdbf8c36598160e01b8152602081600483336000905af158600e01573d6000803e3d6000fd5b3d6001141558600a015760016000f35b8051600082529350602061121856",
  "deployedBytecode": "0x608060405234801561001957600080610016611169565b50505b50600436106100b25760003560e01c8063568b5a2f1161007a578063568b5a2f146102e557806382f86acc146103ce578063998546e31461049a578063c3c6279f14610566578063db896b571461062d578063e23ff437146106f9576100b2565b806305a2ee2a146100c057806309ff5c7d146100e45780631eba3077146101c25780633ded6530146101e857806341dc16c31461020e575b6000806100bd611169565b50505b6100c86107af565b6040516001600160a01b03909116815260200160405180910390f35b6101b06004803603604081101561010357600080610100611169565b50505b810190602081018135600160201b81111561012657600080610123611169565b50505b8201836020820111156101415760008061013e611169565b50505b803590602001918460018302840111600160201b8311171561016b57600080610168611169565b50505b91908080601f01602080910402602001604051908101604052818152929190602084018383808284376000920191909152509295505050903560ff1691506107cd9050565b60405190815260200160405180910390f35b6100c8600480360360208110156101e1576000806101de611169565b50505b5035610868565b6100c86004803603602081101561020757600080610204611169565b50505b503561086b565b6101b06004803603606081101561022d5760008061022a611169565b50505b810190602081018135600160201b8111156102505760008061024d611169565b50505b82018360208201111561026b57600080610268611169565b50505b803590602001918460018302840111600160201b8311171561029557600080610292611169565b50505b91908080601f01602080910402602001604051908101604052818152929190602084018383808284376000920191909152509295505060ff8335811694506020909301359092169150610b319050565b6103b16004803603606081101561030457600080610301611169565b50505b810190602081018135600160201b81111561032757600080610324611169565b50505b8201836020820111156103425760008061033f611169565b50505b803590602001918460018302840111600160201b8311171561036c57600080610369611169565b50505b91908080601f01602080910402602001604051908101604052818152929190602084018383808284376000920191909152509295505082359350505060200135610c29565b6040516001600160e01b0319909116815260200160405180910390f35b6101b0600480360360408110156103ed576000806103ea611169565b50505b810190602081018135600160201b8111156104105760008061040d611169565b50505b82018360208201111561042b57600080610428611169565b50505b803590602001918460018302840111600160201b8311171561045557600080610452611169565b50505b91908080601f01602080910402602001604051908101604052818152929190602084018383808284376000920191909152509295505050903560ff169150610cb29050565b6101b0600480360360408110156104b9576000806104b6611169565b50505b810190602081018135600160201b8111156104dc576000806104d9611169565b50505b8201836020820111156104f7576000806104f4611169565b50505b803590602001918460018302840111600160201b831117156105215760008061051e611169565b50505b91908080601f01602080910402602001604051908101604052818152929190602084018383808284376000920191909152509295505050903560ff169150610cc99050565b6103b16004803603602081101561058557600080610582611169565b50505b810190602081018135600160201b8111156105a8576000806105a5611169565b50505b8201836020820111156105c3576000806105c0611169565b50505b803590602001918460018302840111600160201b831117156105ed576000806105ea611169565b50505b91908080601f0160208091040260200160405190810160405281815292919060208401838380828437600092019190915250929550610cfa945050505050565b6101b06004803603606081101561064c57600080610649611169565b50505b810190602081018135600160201b81111561066f5760008061066c611169565b50505b82018360208201111561068a57600080610687611169565b50505b803590602001918460018302840111600160201b831117156106b4576000806106b1611169565b50505b91908080601f01602080910402602001604051908101604052818152929190602084018383808284376000920191909152509295505082359350505060200135610d09565b61079b6004803603604081101561071857600080610715611169565b50505b6001600160a01b038235169190810190604081016020820135600160201b81111561074b57600080610748611169565b50505b82018360208201111561076657600080610763611169565b50505b803590602001918460018302840111600160201b831117156107905760008061078d611169565b50505b509092509050610d8d565b604051901515815260200160405180910390f35b6000806107ba6111d4565b906101000a90046001600160a01b031681565b6000806107e5848460200260040160ff166020610d09565b905060006107f885600484016020610d09565b9050806108495760405162461bcd60e51b8152602060048201526012602482015271696e707574206973206e6f7420617272617960701b604482015260640160405180910390610846611169565b50505b61085d856020808402850160040190610d09565b925050505b92915050565b90565b6000806000806108796111d4565b906101000a90046001600160a01b03166001600160a01b03166321f8a721680a6f2dce8d0cae8d2f60bb1b6040516001600160e01b031960e084901b168152600481019190915260240160206040518083038186806108d6611234565b1580156108eb576000806108e8611169565b50505b505a6108f5611280565b5050505050158015610914573d6000803e3d6000610911611169565b50505b505050506040513d602081101561093357600080610930611169565b50505b8101908080516001600160a01b03169250633260803991508590506040516001600160e01b031960e084901b16815260048101919091526024016020604051808303818680610980611234565b15801561099557600080610992611169565b50505b505a61099f611280565b50505050501580156109be573d6000803e3d60006109bb611169565b50505b505050506040513d60208110156109dd576000806109da611169565b50505b81019080805193505050506001600160a01b038116610a395760405162461bcd60e51b815260206004820152600b60248201526a696e76616c6964206b657960a81b604482015260640160405180910390610a36611169565b50505b6000816001600160a01b031663ec5568896040518163ffffffff1660e01b81526004016020604051808303818680610a6f611234565b158015610a8457600080610a81611169565b50505b505a610a8e611280565b5050505050158015610aad573d6000803e3d6000610aaa611169565b50505b505050506040513d6020811015610acc57600080610ac9611169565b50505b81019080805193505050506001600160a01b038116610b2a5760405162461bcd60e51b815260206004820152600d60248201526c696e76616c69642070726f787960981b604482015260640160405180910390610b27611169565b50505b9392505050565b600080610b49858560200260040160ff166020610d09565b90506000610b5c86600484016020610d09565b905080610bad5760405162461bcd60e51b8152602060048201526012602482015271696e707574206973206e6f7420617272617960701b604482015260640160405180910390610baa611169565b50505b60ff84168111610c055760405162461bcd60e51b815260206004820152601660248201527534b73b30b634b21030b93930bc903837b9b4ba34b7b760511b604482015260640160405180910390610c02611169565b50505b610c1f866020600160ff8816018102850160040190610d09565b9695505050505050565b600081830184511015610c8b5760405162461bcd60e51b815260206004820152601b60248201527f52656164696e67206279746573206f7574206f6620626f756e64730000000000604482015260640160405180910390610c88611169565b50505b826020018401519050816004038015610caa576008810260020a820491505b509392505050565b6000610b2a838360200260040160ff166020610d09565b600080610ce1848460200260040160ff166020610d09565b9050610cf284600483016020610d09565b949350505050565b60006108628260006004610c29565b600081830184511015610d6b5760405162461bcd60e51b815260206004820152601b60248201527f52656164696e67206279746573206f7574206f6620626f756e64730000000000604482015260640160405180910390610d68611169565b50505b826020018401519050816020038015610caa5760080260020a90049392505050565b600080610dce84848080601f0160208091040260200160405190810160405281815292919060208401838380828437600092019190915250610cfa92505050565b90506001600160e01b0319811663018756bb60e51b141561115e576000610e2985858080601f016020809104026020016040519081016040528181529291906020840183838082843760009201829052509250610cb2915050565b90506000610e6e86868080601f016020809104026020016040519081016040528181529291906020840183838082843760009201919091525060019250610cb2915050565b90506000610eb387878080601f016020809104026020016040519081016040528181529291906020840183838082843760009201919091525060029250610cb2915050565b90506000610ec08461086b565b90506000610ecd8361086b565b9050896001600160a01b03811663464b4158846040516001600160e01b031960e084901b1681526001600160a01b0390911660048201526024016020604051808303818680610f1a611234565b158015610f2f57600080610f2c611169565b50505b505a610f39611280565b5050505050158015610f58573d6000803e3d6000610f55611169565b50505b505050506040513d6020811015610f7757600080610f74611169565b50505b8101908080519250610fdb9150505760405162461bcd60e51b815260206004820152601d60248201527f756e737570706f727465642064657374696e6174696f6e206173736574000000604482015260640160405180910390610fd8611169565b50505b806001600160a01b031663464b4158836040516001600160e01b031960e084901b1681526001600160a01b0390911660048201526024016020604051808303818680611025611234565b15801561103a57600080611037611169565b50505b505a611044611280565b5050505050158015611063573d6000803e3d6000611060611169565b50505b505050506040513d60208110156110825760008061107f611169565b50505b81019080805192506110e69150505760405162461bcd60e51b815260206004820152601d60248201527f756e737570706f727465642064657374696e6174696f6e2061737365740000006044820152606401604051809103906110e3611169565b50505b7fec43bc4dddba4c8ae8d4f92f53b39989eaf64022bec70471d105647e57c7891c818487855a61111461136b565b6040516001600160a01b039586168152938516602085015260408085019390935293166060830152608082019290925260a001905180910390a16001975050505050505050610b2a565b506000949350505050565b632a2a7adb598160e01b8152600481016020815285602082015260005b868110156111a1578086015182820160400152602001611186565b506020828760640184336000905af158601d01573d60011458600c01573d6000803e3d621234565260ea61109c52505050565b6303daa959598160e01b8152836004820152602081602483336000905af158601d01573d60011458600c01573d6000803e3d621234565260ea61109c528051935060005b604081101561122f57600082820152602001611218565b505050565b638435035b598160e01b8152836004820152602081602483336000905af158601d01573d60011458600c01573d6000803e3d621234565260ea61109c5280516000825293506020611218565b638540661f598160e01b81526112b1565b8080831115610862575090919050565b8080831015610862575090919050565b836004820152846024820152606060448201528660648201526084810160005b888110156112e95780880151828201526020016112d1565b506060828960a40184336000905af158601d01573d60011458600c01573d6000803e3d621234565260ea61109c52815160408301513d6000853e8b8b82606087013350600060045af1505961133e8d3d6112a1565b8c0161134a8187611291565b5b8281101561135f576000815260200161134b565b50929c50505050505050565b63bdbf8c36598160e01b8152602081600483336000905af158601d01573d60011458600c01573d6000803e3d621234565260ea61109c528051600082529350602061121856",
  "linkReferences": {},
  "deployedLinkReferences": {}
}