{
  "_format": "hh-sol-artifact-1",
  "contractName": "SynthetixGuard",
  "sourceName": "contracts/guards/SynthetixGuard.sol",
  "abi": [
    {
      "inputs": [
        {
          "internalType": "bytes32",
          "name": "data",
          "type": "bytes32"
        }
      ],
      "name": "convert32toAddress",
      "outputs": [
        {
          "internalType": "address",
          "name": "o",
          "type": "address"
        }
      ],
      "stateMutability": "pure",
      "type": "function"
    },
    {
      "inputs": [
        {
          "internalType": "bytes",
          "name": "data",
          "type": "bytes"
        },
        {
          "internalType": "uint8",
          "name": "inputNum",
          "type": "uint8"
        },
        {
          "internalType": "uint8",
          "name": "arrayIndex",
          "type": "uint8"
        }
      ],
      "name": "getArrayIndex",
      "outputs": [
        {
          "internalType": "bytes32",
          "name": "",
          "type": "bytes32"
        }
      ],
      "stateMutability": "pure",
      "type": "function"
    },
    {
      "inputs": [
        {
          "internalType": "bytes",
          "name": "data",
          "type": "bytes"
        },
        {
          "internalType": "uint8",
          "name": "inputNum",
          "type": "uint8"
        }
      ],
      "name": "getArrayLast",
      "outputs": [
        {
          "internalType": "bytes32",
          "name": "",
          "type": "bytes32"
        }
      ],
      "stateMutability": "pure",
      "type": "function"
    },
    {
      "inputs": [
        {
          "internalType": "bytes",
          "name": "data",
          "type": "bytes"
        },
        {
          "internalType": "uint8",
          "name": "inputNum",
          "type": "uint8"
        }
      ],
      "name": "getArrayLength",
      "outputs": [
        {
          "internalType": "uint256",
          "name": "",
          "type": "uint256"
        }
      ],
      "stateMutability": "pure",
      "type": "function"
    },
    {
      "inputs": [
        {
          "internalType": "bytes",
          "name": "data",
          "type": "bytes"
        },
        {
          "internalType": "uint8",
          "name": "inputNum",
          "type": "uint8"
        }
      ],
      "name": "getInput",
      "outputs": [
        {
          "internalType": "bytes32",
          "name": "",
          "type": "bytes32"
        }
      ],
      "stateMutability": "pure",
      "type": "function"
    },
    {
      "inputs": [
        {
          "internalType": "bytes",
          "name": "data",
          "type": "bytes"
        }
      ],
      "name": "getMethod",
      "outputs": [
        {
          "internalType": "bytes4",
          "name": "",
          "type": "bytes4"
        }
      ],
      "stateMutability": "pure",
      "type": "function"
    },
    {
      "inputs": [
        {
          "internalType": "bytes",
          "name": "data",
          "type": "bytes"
        },
        {
          "internalType": "uint256",
          "name": "offset",
          "type": "uint256"
        },
        {
          "internalType": "uint256",
          "name": "length",
          "type": "uint256"
        }
      ],
      "name": "read32",
      "outputs": [
        {
          "internalType": "bytes32",
          "name": "o",
          "type": "bytes32"
        }
      ],
      "stateMutability": "pure",
      "type": "function"
    },
    {
      "inputs": [
        {
          "internalType": "bytes",
          "name": "data",
          "type": "bytes"
        },
        {
          "internalType": "uint256",
          "name": "offset",
          "type": "uint256"
        },
        {
          "internalType": "uint256",
          "name": "length",
          "type": "uint256"
        }
      ],
      "name": "read4left",
      "outputs": [
        {
          "internalType": "bytes4",
          "name": "o",
          "type": "bytes4"
        }
      ],
      "stateMutability": "pure",
      "type": "function"
    },
    {
      "inputs": [
        {
          "internalType": "address",
          "name": "pool",
          "type": "address"
        },
        {
          "internalType": "bytes",
          "name": "data",
          "type": "bytes"
        }
      ],
      "name": "txGuard",
      "outputs": [
        {
          "internalType": "uint8",
          "name": "txType",
          "type": "uint8"
        },
        {
          "internalType": "bytes32",
          "name": "srcAsset",
          "type": "bytes32"
        },
        {
          "internalType": "bytes32",
          "name": "srcAmount",
          "type": "bytes32"
        },
        {
          "internalType": "bytes32",
          "name": "dstAsset",
          "type": "bytes32"
        }
      ],
      "stateMutability": "view",
      "type": "function"
    }
  ],
  "bytecode": "0x608060405234801561001057600080fd5b50610bac806100206000396000f3fe608060405234801561001057600080fd5b50600436106100935760003560e01c806382f86acc1161006657806382f86acc14610306578063998546e3146103af578063c3c6279f14610458578063db896b57146104fc578063e23ff437146105a557610093565b806309ff5c7d146100985780631eba30771461015357806341dc16c31461018c578063568b5a2f14610240575b600080fd5b610141600480360360408110156100ae57600080fd5b810190602081018135600160201b8111156100c857600080fd5b8201836020820111156100da57600080fd5b803590602001918460018302840111600160201b831117156100fb57600080fd5b91908080601f0160208091040260200160405190810160405280939291908181526020018383808284376000920191909152509295505050903560ff16915061064d9050565b60408051918252519081900360200190f35b6101706004803603602081101561016957600080fd5b50356106de565b604080516001600160a01b039092168252519081900360200190f35b610141600480360360608110156101a257600080fd5b810190602081018135600160201b8111156101bc57600080fd5b8201836020820111156101ce57600080fd5b803590602001918460018302840111600160201b831117156101ef57600080fd5b91908080601f0160208091040260200160405190810160405280939291908181526020018383808284376000920191909152509295505060ff83358116945060209093013590921691506106e19050565b6102e96004803603606081101561025657600080fd5b810190602081018135600160201b81111561027057600080fd5b82018360208201111561028257600080fd5b803590602001918460018302840111600160201b831117156102a357600080fd5b91908080601f01602080910402602001604051908101604052809392919081815260200183838082843760009201919091525092955050823593505050602001356107c9565b604080516001600160e01b03199092168252519081900360200190f35b6101416004803603604081101561031c57600080fd5b810190602081018135600160201b81111561033657600080fd5b82018360208201111561034857600080fd5b803590602001918460018302840111600160201b8311171561036957600080fd5b91908080601f0160208091040260200160405190810160405280939291908181526020018383808284376000920191909152509295505050903560ff16915061084a9050565b610141600480360360408110156103c557600080fd5b810190602081018135600160201b8111156103df57600080fd5b8201836020820111156103f157600080fd5b803590602001918460018302840111600160201b8311171561041257600080fd5b91908080601f0160208091040260200160405190810160405280939291908181526020018383808284376000920191909152509295505050903560ff1691506108689050565b6102e96004803603602081101561046e57600080fd5b810190602081018135600160201b81111561048857600080fd5b82018360208201111561049a57600080fd5b803590602001918460018302840111600160201b831117156104bb57600080fd5b91908080601f016020809104026020016040519081016040528093929190818152602001838380828437600092019190915250929550610899945050505050565b6101416004803603606081101561051257600080fd5b810190602081018135600160201b81111561052c57600080fd5b82018360208201111561053e57600080fd5b803590602001918460018302840111600160201b8311171561055f57600080fd5b91908080601f01602080910402602001604051908101604052809392919081815260200183838082843760009201919091525092955050823593505050602001356108ae565b610623600480360360408110156105bb57600080fd5b6001600160a01b038235169190810190604081016020820135600160201b8111156105e557600080fd5b8201836020820111156105f757600080fd5b803590602001918460018302840111600160201b8311171561061857600080fd5b50909250905061092a565b6040805160ff90951685526020850193909352838301919091526060830152519081900360800190f35b600080610665848460200260040160ff1660206108ae565b90506000610678856004840160206108ae565b9050806106c1576040805162461bcd60e51b8152602060048201526012602482015271696e707574206973206e6f7420617272617960701b604482015290519081900360640190fd5b6106d58560208084028501600401906108ae565b95945050505050565b90565b6000806106f9858560200260040160ff1660206108ae565b9050600061070c866004840160206108ae565b905080610755576040805162461bcd60e51b8152602060048201526012602482015271696e707574206973206e6f7420617272617960701b604482015290519081900360640190fd5b60ff841681116107a5576040805162461bcd60e51b815260206004820152601660248201527534b73b30b634b21030b93930bc903837b9b4ba34b7b760511b604482015290519081900360640190fd5b6107bf866020600160ff88160181028501600401906108ae565b9695505050505050565b600081830184511015610823576040805162461bcd60e51b815260206004820152601b60248201527f52656164696e67206279746573206f7574206f6620626f756e64730000000000604482015290519081900360640190fd5b826020018401519050816004038015610842576008810260020a820491505b509392505050565b6000610861838360200260040160ff1660206108ae565b9392505050565b600080610880848460200260040160ff1660206108ae565b9050610891846004830160206108ae565b949350505050565b60006108a882600060046107c9565b92915050565b600081830184511015610908576040805162461bcd60e51b815260206004820152601b60248201527f52656164696e67206279746573206f7574206f6620626f756e64730000000000604482015290519081900360640190fd5b8260200184015190508160200380156108425760080260020a90049392505050565b600080600080600061097187878080601f01602080910402602001604051908101604052809392919081815260200183838082843760009201919091525061089992505050565b90506001600160e01b0319811663018756bb60e51b1415610b2057600294506109cf87878080601f0160208091040260200160405190810160405280939291908181526020018383808284376000920182905250925061084a915050565b9350610a1387878080601f0160208091040260200160405190810160405280939291908181526020018383808284376000920191909152506001925061084a915050565b9250610a5787878080601f0160208091040260200160405190810160405280939291908181526020018383808284376000920191909152506002925061084a915050565b9150876001600160a01b031663d44fa33e836040518263ffffffff1660e01b81526004018082815260200191505060206040518083038186803b158015610a9d57600080fd5b505afa158015610ab1573d6000803e3d6000fd5b505050506040513d6020811015610ac757600080fd5b5051610b1a576040805162461bcd60e51b815260206004820181905260248201527f756e737570706f727465642064657374696e6174696f6e2063757272656e6379604482015290519081900360640190fd5b50610b6d565b6040805162461bcd60e51b815260206004820152601860248201527f696e76616c69642073796e746865746978206d6574686f640000000000000000604482015290519081900360640190fd5b9350935093509356fea264697066735822122084d3ff68e053b08e98d0ec1cd5c927039e0a0134acc27f4206fe99e56f98484764736f6c634300060c0033",
  "linkReferences": {},
  "deployedLinkReferences": {}
}