{
  "_format": "hh-sol-artifact-1",
  "contractName": "ProxyFactory",
  "sourceName": "contracts/upgradability/ProxyFactory.sol",
  "abi": [
    {
      "anonymous": false,
      "inputs": [
        {
          "indexed": true,
          "internalType": "address",
          "name": "previousOwner",
          "type": "address"
        },
        {
          "indexed": true,
          "internalType": "address",
          "name": "newOwner",
          "type": "address"
        }
      ],
      "name": "OwnershipTransferred",
      "type": "event"
    },
    {
      "anonymous": false,
      "inputs": [
        {
          "indexed": false,
          "internalType": "address",
          "name": "proxy",
          "type": "address"
        }
      ],
      "name": "ProxyCreated",
      "type": "event"
    },
    {
      "inputs": [
        {
          "internalType": "bytes32",
          "name": "c__0xfcdc832b",
          "type": "bytes32"
        }
      ],
      "name": "c_0xfcdc832b",
      "outputs": [],
      "stateMutability": "pure",
      "type": "function"
    },
    {
      "inputs": [
        {
          "internalType": "bytes",
          "name": "_data",
          "type": "bytes"
        },
        {
          "internalType": "uint8",
          "name": "_proxyType",
          "type": "uint8"
        }
      ],
      "name": "deploy",
      "outputs": [
        {
          "internalType": "address",
          "name": "",
          "type": "address"
        }
      ],
      "stateMutability": "nonpayable",
      "type": "function"
    },
    {
      "inputs": [
        {
          "internalType": "uint8",
          "name": "_proxyType",
          "type": "uint8"
        }
      ],
      "name": "getLogic",
      "outputs": [
        {
          "internalType": "address",
          "name": "",
          "type": "address"
        }
      ],
      "stateMutability": "view",
      "type": "function"
    },
    {
      "inputs": [],
      "name": "owner",
      "outputs": [
        {
          "internalType": "address",
          "name": "",
          "type": "address"
        }
      ],
      "stateMutability": "view",
      "type": "function"
    },
    {
      "inputs": [],
      "name": "renounceOwnership",
      "outputs": [],
      "stateMutability": "nonpayable",
      "type": "function"
    },
    {
      "inputs": [
        {
          "internalType": "address",
          "name": "_poolLogic",
          "type": "address"
        },
        {
          "internalType": "address",
          "name": "_poolManagerLogic",
          "type": "address"
        }
      ],
      "name": "setLogic",
      "outputs": [],
      "stateMutability": "nonpayable",
      "type": "function"
    },
    {
      "inputs": [
        {
          "internalType": "address",
          "name": "newOwner",
          "type": "address"
        }
      ],
      "name": "transferOwnership",
      "outputs": [],
      "stateMutability": "nonpayable",
      "type": "function"
    }
  ],
  "bytecode": "0x608060405234801561001057600080fd5b506123e4806100206000396000f3fe608060405234801561001057600080fd5b506004361061007d5760003560e01c8063808ae5fb1161005b578063808ae5fb146101ac5780638da5cb5b14610210578063ecef89d514610244578063f2fde38b1461029f5761007d565b806338158ac01461008257806345812ca5146100b0578063715018a6146101a2575b600080fd5b6100ae6004803603602081101561009857600080fd5b81019080803590602001909291905050506102e3565b005b610176600480360360408110156100c657600080fd5b81019080803590602001906401000000008111156100e357600080fd5b8201836020820111156100f557600080fd5b8035906020019184600183028401116401000000008311171561011757600080fd5b91908080601f016020809104026020016040519081016040528093929190818152602001838380828437600081840152601f19601f820116905080830192505050505050509192919290803560ff1690602001909291905050506102e6565b604051808273ffffffffffffffffffffffffffffffffffffffff16815260200191505060405180910390f35b6101aa61037e565b005b61020e600480360360408110156101c257600080fd5b81019080803573ffffffffffffffffffffffffffffffffffffffff169060200190929190803573ffffffffffffffffffffffffffffffffffffffff169060200190929190505050610509565b005b610218610735565b604051808273ffffffffffffffffffffffffffffffffffffffff16815260200191505060405180910390f35b6102736004803603602081101561025a57600080fd5b81019080803560ff16906020019092919050505061075f565b604051808273ffffffffffffffffffffffffffffffffffffffff16815260200191505060405180910390f35b6102e1600480360360208110156102b557600080fd5b81019080803573ffffffffffffffffffffffffffffffffffffffff16906020019092919050505061094e565b005b50565b60006103147f33f15f7d0565552c240ba3980dca20e9417603bc622b4db6502532b2cf143adf60001b6102e3565b6103407fd28665c1a74c6e4b3c9498428d3a105b919193a3c1dd68a4c21277abaa41ed2e60001b6102e3565b61036c7fcd90c37ee61942ee9d71ff17ccb12b8d3ed593d687642d288c787960686c829360001b6102e3565b6103768383610b5e565b905092915050565b610386610e47565b73ffffffffffffffffffffffffffffffffffffffff16606560009054906101000a900473ffffffffffffffffffffffffffffffffffffffff1673ffffffffffffffffffffffffffffffffffffffff1614610448576040517f08c379a00000000000000000000000000000000000000000000000000000000081526004018080602001828103825260208152602001807f4f776e61626c653a2063616c6c6572206973206e6f7420746865206f776e657281525060200191505060405180910390fd5b600073ffffffffffffffffffffffffffffffffffffffff16606560009054906101000a900473ffffffffffffffffffffffffffffffffffffffff1673ffffffffffffffffffffffffffffffffffffffff167f8be0079c531659141344cd1fd0a4f28419497f9722a3daafe3b4186f6b6457e060405160405180910390a36000606560006101000a81548173ffffffffffffffffffffffffffffffffffffffff021916908373ffffffffffffffffffffffffffffffffffffffff160217905550565b610511610e47565b73ffffffffffffffffffffffffffffffffffffffff16606560009054906101000a900473ffffffffffffffffffffffffffffffffffffffff1673ffffffffffffffffffffffffffffffffffffffff16146105d3576040517f08c379a00000000000000000000000000000000000000000000000000000000081526004018080602001828103825260208152602001807f4f776e61626c653a2063616c6c6572206973206e6f7420746865206f776e657281525060200191505060405180910390fd5b6105ff7f01343b48bbbfb1506e4f6a3c5fca05ef25de5a6e576958d5921d5980f10697ad60001b6102e3565b61062b7f22ef14946b68c2cbd000714372a1fdba889aef4017882173c418c6c196f461cf60001b6102e3565b6106577fcc2206faa513a1d6bb0596b36f4e479b1c9ad0a8d5bd4f42fac32943d6d2db4660001b6102e3565b81609760006101000a81548173ffffffffffffffffffffffffffffffffffffffff021916908373ffffffffffffffffffffffffffffffffffffffff1602179055506106c47f5b379c61cbcd57b1542962fae91dd43a826ebfa5f7e4921e5cc82ed7a1d1539660001b6102e3565b6106f07f683034d185de591103e45001d186297f3448b16bb273cf53ca47bad669cc3b1160001b6102e3565b80609860006101000a81548173ffffffffffffffffffffffffffffffffffffffff021916908373ffffffffffffffffffffffffffffffffffffffff1602179055505050565b6000606560009054906101000a900473ffffffffffffffffffffffffffffffffffffffff16905090565b600061078d7f1143d5a1b4591aa159b84662f43173a42b145e05554c722179cebd0301c1bc7860001b6102e3565b6107b97f7fb7737fb45c1821b07c557fb20a85aadb74abfd7f3aded638b0611c3878f6d060001b6102e3565b6107e57f07f7be0cc03938e4a6c9d302d53effe0e7eae1a64d4b1edf5979abc9b339a86360001b6102e3565b60018260ff16141561089f5761081d7f3bfd26995be6062183f721e38810e2c9bfebc7ad890b3e816674514dfbd4ce0460001b6102e3565b6108497fa4bc4e8958b80529b950c944abce515a6833102afc7d29546e084ceaeeac2fa360001b6102e3565b6108757f766415bd328a2e95a18338562c7168b19c4dd1b548a40d49e53abbd30ca9a62e60001b6102e3565b609860009054906101000a900473ffffffffffffffffffffffffffffffffffffffff169050610949565b6108cb7f5d679e34a2aad8f74e73e7ab55dfc78793cff6530c8b4b8dc405aa4adad233f760001b6102e3565b6108f77f71457a6ea18b3c979da1914061e140dc0c949de3f35c9b0a628acbb763d8accd60001b6102e3565b6109237f8401e39548639acf85c7c4cdec175f887d2872c6f9f12027c85ed88bef40f80060001b6102e3565b609760009054906101000a900473ffffffffffffffffffffffffffffffffffffffff1690505b919050565b610956610e47565b73ffffffffffffffffffffffffffffffffffffffff16606560009054906101000a900473ffffffffffffffffffffffffffffffffffffffff1673ffffffffffffffffffffffffffffffffffffffff1614610a18576040517f08c379a00000000000000000000000000000000000000000000000000000000081526004018080602001828103825260208152602001807f4f776e61626c653a2063616c6c6572206973206e6f7420746865206f776e657281525060200191505060405180910390fd5b600073ffffffffffffffffffffffffffffffffffffffff168173ffffffffffffffffffffffffffffffffffffffff161415610a9e576040517f08c379a00000000000000000000000000000000000000000000000000000000081526004018080602001828103825260268152602001806123896026913960400191505060405180910390fd5b8073ffffffffffffffffffffffffffffffffffffffff16606560009054906101000a900473ffffffffffffffffffffffffffffffffffffffff1673ffffffffffffffffffffffffffffffffffffffff167f8be0079c531659141344cd1fd0a4f28419497f9722a3daafe3b4186f6b6457e060405160405180910390a380606560006101000a81548173ffffffffffffffffffffffffffffffffffffffff021916908373ffffffffffffffffffffffffffffffffffffffff16021790555050565b6000610b8c7ff10185cd0d32b01e55ffad919700e420ebf45969f802dd4844b6adb9fe4245ff60001b6102e3565b610bb87f452575f3dbc9b055907c1454b851e41d0a58d1ec5c0cca63eacfb6f8e0af594c60001b6102e3565b610be47fd97cd8becc495d079ac1b24a8cdf886194dbc38095e15c1bc1f75230e6327b8b60001b6102e3565b6000610bee610e4f565b9050610c1c7ffd7c25c5bb6de2e5149ea08c68ad5b056b4385130e4b820e2a7d815e94e10d7460001b6102e3565b610c487fa162ebabde26d8833b815c37ddaada19180822b340532793441b6e1fb74cb64a60001b6102e3565b7efffc2da0b561cae30d9826d37709e9421c4725faebc226cbbb7ef5fc5e734981604051808273ffffffffffffffffffffffffffffffffffffffff16815260200191505060405180910390a1610cc07f03752cdd70fa4705bf713a5479875c8eea8ff77194d53a57aa714213d233851d60001b6102e3565b610cec7f2de4b0d1e3c0ea5b6cdabed25b05a31291a99ee19833dc6a10e3ad021f4e22fa60001b6102e3565b8073ffffffffffffffffffffffffffffffffffffffff1663e74a474a3086866040518463ffffffff1660e01b8152600401808473ffffffffffffffffffffffffffffffffffffffff168152602001806020018360ff168152602001828103825284818151815260200191508051906020019080838360005b83811015610d7f578082015181840152602081019050610d64565b50505050905090810190601f168015610dac5780820380516001836020036101000a031916815260200191505b50945050505050600060405180830381600087803b158015610dcd57600080fd5b505af1158015610de1573d6000803e3d6000fd5b50505050610e117fca4c6424b11b303816a57c74574b8e2d69588b2fa9e7538dd5ff0001fa08303b60001b6102e3565b610e3d7f9ce465b2199eb0deac7ad9b2e2ecfc4186c9182be82cd7110104867d42e46f3e60001b6102e3565b8091505092915050565b600033905090565b6000610e7d7f3940190827eb558ad6b1d44ff82221168c39bc44f403fc3d529f8aba2386ab4d60001b6102e3565b610ea97f1b259310ef1e70abab4c1e844ede1bb0fbb8ffabcd5e2f70da239bad98510f5a60001b6102e3565b610ed57fafbab21fbc899c98449f981ef31500b08a1af01372472eaf018580f45d551f8660001b6102e3565b6000610f037fdb9fff4fde73c1ed0f8680713417bb0f0568630f45cfce917973d1c59088cae660001b6102e3565b610f2f7fd828a6341362111ddb6024665e6aeac0a88623dfe906a0a3cb76e56e575034e360001b6102e3565b606060405180602001610f4190610ff9565b6020820181038252601f19601f820116604052509050610f837fa62261015c41296292b88cf310529fd06a5417b12e68e6bb5edcbc0f61786dcb60001b6102e3565b8051602082016000f09150813b610f9957600080fd5b610fc57f2eb81550b2aacc241edeac9aac683667606473939fc8d0154cb0462199cecc0960001b6102e3565b610ff17f2f53c8c2fd6b635e81554cee9203f211c91a7ab1c31532db6164bd9b1ea3fab460001b6102e3565b819250505090565b611382806110078339019056fe608060405234801561001057600080fd5b50611362806100206000396000f3fe6080604052600436106100435760003560e01c806399fcc3af1461010c5780639fca148914610147578063a4d57bee14610182578063e74a474a146101bd5761007e565b3661007e576100747fc6b4e05c8886da748779e3730e8c17790f4949c297c98f69c0e25769046b382860001b6102a5565b61007c6102a8565b005b6100aa7f7cac60e495c25cc9e216dd3d679b6fd06d90acd829d30d51b0b95c15961f9ce860001b6102a5565b6100d67fa498bb8916b0b37a35deaa8b1accf938c042e340ce4efc8012c9bc9f2d9a158260001b6102a5565b6101027fb98f83d464d19b3956a82d774c19111c6b015ef12927ca07b8c336ee6ed5c83260001b6102a5565b61010a6102a8565b005b34801561011857600080fd5b506101456004803603602081101561012f57600080fd5b81019080803590602001909291905050506102a5565b005b34801561015357600080fd5b506101806004803603602081101561016a57600080fd5b810190808035906020019092919050505061039e565b005b34801561018e57600080fd5b506101bb600480360360208110156101a557600080fd5b81019080803590602001909291905050506103a1565b005b6102a3600480360360608110156101d357600080fd5b81019080803573ffffffffffffffffffffffffffffffffffffffff1690602001909291908035906020019064010000000081111561021057600080fd5b82018360208201111561022257600080fd5b8035906020019184600183028401116401000000008311171561024457600080fd5b91908080601f016020809104026020016040519081016040528093929190818152602001838380828437600081840152601f19601f820116905080830192505050505050509192919290803560ff1690602001909291905050506103a4565b005b50565b6102d47fcc50f323444403c69b72c742f10568fd580356f98ea0b8a61244432b4b8329aa60001b6102a5565b6103007f91459de950b72cb048d7c2381f9b9aa525ffd2583f54ee2b5d56207fdd63c5f260001b6102a5565b61032c7f2a63a560972ad1e96b63734e142fb213f07cc296632536b43fa61424677948a660001b6102a5565b610334610996565b6103607f77edd1b383a85548630fa7bfd95f57342f38b1ebd03fe4ad3dbba6c3b573793560001b6102a5565b61038c7fb07c5e61b7983b69d2f2e8e63be5cea8d7d53b55b03a0cf98e73a5d19bd6ae6e60001b6102a5565b61039c6103976109c4565b610d0e565b565b50565b50565b6103d07f3a2cb568b5f0c02143f547f22155e22d641ae73b092cf7be91b2a48baf5d27b660001b6103a1565b6103fc7f77b59016394b667c232007d5d7f351405335dadba38fd8efce4f3dfb78997e1d60001b6103a1565b6104287f4808f7f9c1c39002a44520b8cdbe298ebcfcd1cebba3ddda7c3c306fca2cba8060001b6103a1565b6104547f7a97ee10ea7a8eda5e03c8bc7e3f193cb948f9814608c10ad1de4b1b88f60c3760001b6103a1565b600073ffffffffffffffffffffffffffffffffffffffff166104746109c4565b73ffffffffffffffffffffffffffffffffffffffff16146104fd576040517f08c379a000000000000000000000000000000000000000000000000000000000815260040180806020018281038252600d8152602001807f496d706c206e6f74207a65726f0000000000000000000000000000000000000081525060200191505060405180910390fd5b6105297f3a215253b6e6c1dba9e36d7e09433efb0eaab4fbd542af9a2ad7275c15ea576a60001b6103a1565b6105557f8e03d80b97a7e1e6eb80137f094a73f60a308817bab257efd2f68722745dcaea60001b6103a1565b6105817f8de64bd6bbf8d5a366f32c7e120e3cc8c821adb94ed23cb745cfd0bf7f90fff560001b6103a1565b60017f360894a13ba1a3210667c828492db98dca3e2076cc3735a920a3ca505d382bbd60001c0360001b7f360894a13ba1a3210667c828492db98dca3e2076cc3735a920a3ca505d382bbc60001b146105d657fe5b6106027f1bfe6fc8a642589c190af97973b30fc181f621e68ea3fc530134f2c9960d66c760001b6103a1565b61062e7f26da551a6a926ba9dba93b2820059c1008c782601820a25d21c2a8ee4b4d024560001b6103a1565b61063783610d8c565b6106637f062aa06dbe01d194bba31b85e273757d6336e6bf1e87409032d1fc917f1a731760001b6103a1565b61068f7f7e21962afbd4b7de92ac7eeae1bb8c663e2b123195c725e12fb5d71f3863a03160001b6103a1565b61069881610f96565b6106c47ff6e6b478580a83b05883b3e7feb1d09ce95b547c04198ba48de5aee8183acc5e60001b6103a1565b6106f07f8965cdf8c1d2f0888f33a3d43c74902372c94e17b01677d6a81c030f4671307b60001b6103a1565b600082511115610964576107267f115c9352b821f67eac063ff66d255887a6023e7ed2a2043aca73dbe8fb47bd8360001b6103a1565b6107527fbff092917c7b1f4508c4411509a64a2e7be6129d44ca4eb9111fb0e4a900910f60001b6103a1565b61077e7f3f21e28976af0f6f8446da03b470231c7db787d35cec72dc33011588a197501660001b6103a1565b60006107886109c4565b73ffffffffffffffffffffffffffffffffffffffff16836040518082805190602001908083835b602083106107d257805182526020820191506020810190506020830392506107af565b6001836020036101000a038019825116818451168082178552505050505050905001915050600060405180830381855af49150503d8060008114610832576040519150601f19603f3d011682016040523d82523d6000602084013e610837565b606091505b505090506108677f23de363b5e338d9543c99d138b972416e84bfdbb99e884708202df8ce169a3c960001b6103a1565b6108937f015f525def9afaa0242af4bbb13399182ea70edcc69e6160e0f3222180acf68460001b6103a1565b6108bf7f1cc7ae8bc4414ecccd28794dbd32704e951176f54b750d298ea49ccaf9afa56060001b6103a1565b80610932576040517f08c379a000000000000000000000000000000000000000000000000000000000815260040180806020018281038252601a8152602001807f496d706c656d656e746174696f6e20696e6974206661696c656400000000000081525060200191505060405180910390fd5b61095e7f0851853b63f6d8b4dbb98458c7ed10f33f41bb03b22e873c1091d57429c6e39360001b6103a1565b50610991565b6109907f4e41306208c109d267c3db0a422978c4db16e863c7ebbc6603365e29c547b5b060001b6103a1565b5b505050565b6109c27f276b633fb1946cc03b9c844674afbbfa8f3e77bc0ffafeb39b77dabc1886667560001b6102a5565b565b60006109f27f077de034f5c7298f11d849c35541287460ab2175e9265eed7f948784b84b95e260001b61039e565b610a1e7feb5666e3ff94584d3f43ed9d4226fb55c9d5fd656f201fc448d94a7cce59b0fd60001b61039e565b610a4a7fec433353424e2aa184bc7059a893e4fab799c68e834318eccef10e441687f7f360001b61039e565b6000610a787f53ce0dd4617f9997965c4e7a52f203163a3f5c80d8f29d8c471110aca611c11660001b61039e565b610aa47f76c6db1ab825a57a577f977ff80e0f30540ebcfa89671fe345afaa15aff79ae960001b61039e565b60007f360894a13ba1a3210667c828492db98dca3e2076cc3735a920a3ca505d382bbc60001b9050610af87fa5793ed3e454c6da632434d6ad8ba3e21aadb69ec0eaaf4673ec86a9b565275560001b61039e565b80549150610b287fdd8e92d4de16353bc86e626af17fe8b09f1a11017635c855fb0a7fadc4baf2dd60001b61039e565b610b547f3f022d8f69f42c34354a868b842611bc7e9f34010c7962d6223657785b28042860001b61039e565b600073ffffffffffffffffffffffffffffffffffffffff168273ffffffffffffffffffffffffffffffffffffffff161415610bec57610bb57f173b1db32db0581166a1cec716d6f825d30035adb4043fa1faf667f6e1ba39f460001b61039e565b610be17f1b2cc020f945581b6d8d02f38ca4e6283cf5fa2b06ac14a640cb20689274816760001b61039e565b600092505050610d0b565b610c187fbea1bee21992abdd1abf0c189d41f808e091c05595bbba731a69bc489fdcf68e60001b61039e565b610c447f6f9f753bde1a19cfbaba68d5a9e501237dec3e9ffd52d9f8cd9263cdec9ad2b560001b61039e565b610c707fc3f9a96809e79305f42491aae649f233d7b0c9bf585bb625e37e63514c3507c860001b61039e565b8173ffffffffffffffffffffffffffffffffffffffff1663ecef89d5610c94611075565b6040518263ffffffff1660e01b8152600401808260ff16815260200191505060206040518083038186803b158015610ccb57600080fd5b505afa158015610cdf573d6000803e3d6000fd5b505050506040513d6020811015610cf557600080fd5b8101908080519060200190929190505050925050505b90565b610d3a7f6553b3bbf61b84602ae382fedcbbf6290bc154e245b87926d62e3f86240a4bf260001b6102a5565b610d667fde788fbfc1fb399d6b655d570b484725b445d3bb4cf78879e20863a893557b0060001b6102a5565b3660008037600080366000845af43d6000803e8060008114610d87573d6000f35b3d6000fd5b610db87f91eb2693086155afa1a63324ebcb4f2967f172d990060602d776bb717f04d54660001b61039e565b610de47f629ad5a2c2f16cfad67fc9298c8549c3b857d49865451687ff0926b6fa8885c660001b61039e565b610e107fe1c0a344e7e819566bfd4ab41d97f31d1409abbc35ee34d7b4f5161435de78e560001b61039e565b610e3c7f7ab470c380fc0752790480bda347ca04794e83e6222fc0021fccf1cc82a7f62560001b61039e565b610e458161120d565b610eb7576040517f08c379a00000000000000000000000000000000000000000000000000000000081526004018080602001828103825260208152602001807f43616e6e6f742073657420696d706c656d656e746174696f6e20746f20454f4181525060200191505060405180910390fd5b610ee37f70accb29c12468c14362f4b65efb2efa6adf4a1a2aab7e801bde3a803939c05560001b61039e565b610f0f7f6455548ba1bb40a10c79cb9b45afb5f85aea883cd4416e069ce504078869386160001b61039e565b610f3b7f9dde5da54c56e76ac05f69b0d6cfc5337cb767b4473dbbf71901fd6fed42972f60001b61039e565b60007f360894a13ba1a3210667c828492db98dca3e2076cc3735a920a3ca505d382bbc60001b9050610f8f7fee9707930db6602f53581706bde146ff5c1089a64af5fbb50c5be9e9b7f96ab960001b61039e565b8181555050565b610fc27fbc81e88c2edd168034892c20512aa682a4868d292d05737b3dffa83cad7037dc60001b61039e565b610fee7f987d71e7dc06ab5c788f4c9a0129e58572dd551161646eadafc6681843482b3860001b61039e565b61101a7f64f8535121c0c8606762fc4f486ebb7f5b493d79a2c012479e94427203f1aa3460001b61039e565b60007f100000000000000000000000000000000000000000000000000000000000000060001b905061106e7f6824280e261c39488edbfa7a475a691b312d5c522dfa40bf9f6ae2b79bd6840f60001b61039e565b8181555050565b60006110a37f9678d93bcdb7e8ebd2d49fa07be99cbcb83c3977ae8ad3058c2ea2daaefab51e60001b61039e565b6110cf7ff18a944a5a9a44a81768adb2f6707f7dc7b98dad5f0f42f84fb5f333a3acf1b360001b61039e565b6110fb7f3faeaf931136d7c21b99a41ba1c4022c5eef76d609e347679d6dfbf3d117b0ec60001b61039e565b60006111297f9e8b25b038102415cca03a970994a70109eeef5e5be0f613784662482e2e19c660001b61039e565b6111557fdd8cdda75d04b380d725cdb7fa79f7cc8829c6d1df58515e90bfa757016b8a5a60001b61039e565b60007f100000000000000000000000000000000000000000000000000000000000000060001b90506111a97f45c698179387c7d3079bd5738e6b04085f039528bec62a361fcd921001601bae60001b61039e565b805491506111d97f1e9bce0245cc028ace68fe7e6ef5e100315b0879da647cb93eb9c121d3d832b760001b61039e565b6112057f0ec1f28fb7f1c508d86cd00feb7f41ae8d18bfa0c5d0ac20d867bce5a8fccc6460001b61039e565b819250505090565b600061123b7f17b6a0c44ed2f5553cfcbcfdac44c59dff4727457b669adb5d55bd0063077d8b60001b611329565b6112677f2748d44997f6bf7fba63b3249775817425de6f3bc535ba457f02b96c476714e660001b611329565b6112937f4d9960f45a6cd5d5a67ffbf0fec1c641e98a7a63e9fd82635c7d94436118ceb260001b611329565b60006112c17f2da09769987cc7b599e1411a5c3604dd9825e89e29a9890444d270d86d9121b260001b611329565b823b90506112f17fb8684c3fbea589324b71d8ac61740117361d861f5b224982f3a2d46349b3a39060001b611329565b61131d7f2ba6b82a203e9740df351b6f679eff0e15187876af68dd271196c030bd5660d260001b611329565b60008111915050919050565b5056fea2646970667358221220daa7272fbf5803787d0c555b353a611732cd24c163067a780cc8f9a824ef4ac164736f6c634300060c00334f776e61626c653a206e6577206f776e657220697320746865207a65726f2061646472657373a2646970667358221220913b8cd6af5502a80f9210aeb1b0a6ffd8c375ed24c439fbadc29f246186d3bd64736f6c634300060c0033",
  "linkReferences": {},
  "deployedLinkReferences": {}
}