{
  "_format": "hh-sol-artifact-1",
  "contractName": "ProxyFactory-ovm",
  "sourceName": "contracts/upgradability/ProxyFactory.sol",
  "abi": [
    {
      "anonymous": false,
      "inputs": [
        {
          "indexed": true,
          "internalType": "address",
          "name": "previousOwner",
          "type": "address"
        },
        {
          "indexed": true,
          "internalType": "address",
          "name": "newOwner",
          "type": "address"
        }
      ],
      "name": "OwnershipTransferred",
      "type": "event"
    },
    {
      "anonymous": false,
      "inputs": [
        {
          "indexed": false,
          "internalType": "address",
          "name": "proxy",
          "type": "address"
        }
      ],
      "name": "ProxyCreated",
      "type": "event"
    },
    {
      "inputs": [
        {
          "internalType": "bytes",
          "name": "_data",
          "type": "bytes"
        },
        {
          "internalType": "uint8",
          "name": "_proxyType",
          "type": "uint8"
        }
      ],
      "name": "deploy",
      "outputs": [
        {
          "internalType": "address",
          "name": "",
          "type": "address"
        }
      ],
      "stateMutability": "nonpayable",
      "type": "function"
    },
    {
      "inputs": [
        {
          "internalType": "uint8",
          "name": "_proxyType",
          "type": "uint8"
        }
      ],
      "name": "getLogic",
      "outputs": [
        {
          "internalType": "address",
          "name": "",
          "type": "address"
        }
      ],
      "stateMutability": "view",
      "type": "function"
    },
    {
      "inputs": [],
      "name": "owner",
      "outputs": [
        {
          "internalType": "address",
          "name": "",
          "type": "address"
        }
      ],
      "stateMutability": "view",
      "type": "function"
    },
    {
      "inputs": [],
      "name": "renounceOwnership",
      "outputs": [],
      "stateMutability": "nonpayable",
      "type": "function"
    },
    {
      "inputs": [
        {
          "internalType": "address",
          "name": "_poolLogic",
          "type": "address"
        },
        {
          "internalType": "address",
          "name": "_poolManagerLogic",
          "type": "address"
        }
      ],
      "name": "setLogic",
      "outputs": [],
      "stateMutability": "nonpayable",
      "type": "function"
    },
    {
      "inputs": [
        {
          "internalType": "address",
          "name": "newOwner",
          "type": "address"
        }
      ],
      "name": "transferOwnership",
      "outputs": [],
      "stateMutability": "nonpayable",
      "type": "function"
    }
  ],
  "bytecode": "0x60806040523480156100195760008061001661001f565b50505b5061008a565b632a2a7adb598160e01b8152600481016020815285602082015260005b8681101561005757808601518282016040015260200161003c565b506020828760640184336000905af158600e01573d6000803e3d6000fd5b3d6001141558600a015760016000f35b505050565b611322806100996000396000f3fe60806040523480156100195760008061001661081b565b50505b506004361061006b5760003560e01c806345812ca514610079578063715018a614610163578063808ae5fb1461016d5780638da5cb5b146101a4578063ecef89d5146101ac578063f2fde38b146101d5575b60008061007661081b565b50505b610147600480360360408110156100985760008061009561081b565b50505b8101906020810181356401000000008111156100bc576000806100b961081b565b50505b8201836020820111156100d7576000806100d461081b565b50505b80359060200191846001830284011164010000000083111715610102576000806100ff61081b565b50505b91908080601f01602080910402602001604051908101604052818152929190602084018383808284376000920191909152509295505050903560ff1691506102049050565b6040516001600160a01b03909116815260200160405180910390f35b61016b610219565b005b61016b6004803603604081101561018c5760008061018961081b565b50505b506001600160a01b0381358116916020013516610331565b61014761042f565b610147600480360360208110156101cb576000806101c861081b565b50505b503560ff16610451565b61016b600480360360208110156101f4576000806101f161081b565b50505b50356001600160a01b0316610493565b60006102108383610602565b90505b92915050565b6102216107ad565b6001600160a01b031660006065610236610886565b906101000a90046001600160a01b03166001600160a01b0316146102a95760405162461bcd60e51b815260206004820181905260248201527f4f776e61626c653a2063616c6c6572206973206e6f7420746865206f776e65726044820152606401604051809103906102a661081b565b50505b60008060656102b6610886565b906101000a90046001600160a01b03166001600160a01b03167f8be0079c531659141344cd1fd0a4f28419497f9722a3daafe3b4186f6b6457e060405160405180910390a36000606560018161030a610886565b816001600160a01b0302191690836001600160a01b031602179061032c6108e1565b505050565b6103396107ad565b6001600160a01b03166000606561034e610886565b906101000a90046001600160a01b03166001600160a01b0316146103c15760405162461bcd60e51b815260206004820181905260248201527f4f776e61626c653a2063616c6c6572206973206e6f7420746865206f776e65726044820152606401604051809103906103be61081b565b50505b8160976001816103cf610886565b816001600160a01b0302191690836001600160a01b03160217906103f16108e1565b50505080609860006101000a81610406610886565b816001600160a01b0302191690836001600160a01b03160217906104286108e1565b5050505050565b600080606561043c610886565b906101000a90046001600160a01b0316905090565b60008160ff1660011415610482576000609861046b610886565b906101000a90046001600160a01b0316905061048e565b6000609761046b610886565b919050565b61049b6107ad565b6001600160a01b0316600060656104b0610886565b906101000a90046001600160a01b03166001600160a01b0316146105235760405162461bcd60e51b815260206004820181905260248201527f4f776e61626c653a2063616c6c6572206973206e6f7420746865206f776e657260448201526064016040518091039061052061081b565b50505b6001600160a01b0381166105715760405162461bcd60e51b81526004018080602001828103825260268152602001806112fc602691396040019150506040518091039061056e61081b565b50505b6001600160a01b03811660006065610587610886565b906101000a90046001600160a01b03166001600160a01b03167f8be0079c531659141344cd1fd0a4f28419497f9722a3daafe3b4186f6b6457e060405160405180910390a38060656001816105da610886565b816001600160a01b0302191690836001600160a01b03160217906105fc6108e1565b50505050565b60008061060d6107bd565b90507efffc2da0b561cae30d9826d37709e9421c4725faebc226cbbb7ef5fc5e7349816040516001600160a01b03909116815260200160405180910390a1806001600160a01b031663e74a474a5a63996d79a5598160e01b8152602081600483336000905af158600e01573d6000803e3d6000fd5b3d6001141558600a015760016000f35b8051925060005b60408110156106b057600082820152602001610699565b50505086866040518463ffffffff1660e01b815260040180846001600160a01b03168152602001806020018360ff168152602001828103825284818151815260200191508051906020019080838360005b83811015610719578082015183820152602001610701565b50505050905090810190601f1680156107465780820380516001836020036101000a031916815260200191505b509450505050506000604051808303816000878061076261092f565b1580156107775760008061077461081b565b50505b505a61078161097b565b5050505050501580156107a1573d6000803e3d600061079e61081b565b50505b50929695505050505050565b60005a6107b8610a66565b905090565b60008060606040516107d160208201610aac565b601f1982820381018352601f90910116604052905080516020820160006107f6610ab9565b505091508161080361092f565b6108155760008061081261081b565b50505b50905090565b632a2a7adb598160e01b8152600481016020815285602082015260005b86811015610853578086015182820160400152602001610838565b506020828760640184336000905af158600e01573d6000803e3d6000fd5b3d6001141558600a015760016000f35b505050565b6303daa959598160e01b8152836004820152602081602483336000905af158600e01573d6000803e3d6000fd5b3d6001141558600a015760016000f35b8051935060005b604081101561032c576000828201526020016108ca565b6322bd64c0598160e01b8152836004820152846024820152600081604483336000905af158600e01573d6000803e3d6000fd5b3d6001141558600a015760016000f35b6000815260206108ca565b638435035b598160e01b8152836004820152602081602483336000905af158600e01573d6000803e3d6000fd5b3d6001141558600a015760016000f35b805160008252935060206108ca565b6385979f76598160e01b81526109ac565b8080831115610213575090919050565b8080831015610213575090919050565b836004820152846024820152606060448201528760648201526084810160005b898110156109e45780890151828201526020016109cc565b506060828a60a40184336000905af158600e01573d6000803e3d6000fd5b3d6001141558600a015760016000f35b815160408301513d6000853e8c8c82606087013350600060045af15059610a398e3d61099c565b8d01610a45818761098c565b5b82811015610a5a5760008152602001610a46565b50929d50505050505050565b6373509064598160e01b8152602081600483336000905af158600e01573d6000803e3d6000fd5b3d6001141558600a015760016000f35b805160008252935060206108ca565b6107c180610b3b83390190565b6314aa2ff7598160e01b8152600481016020815286602082015260005b87811015610af1578087015182820160400152602001610ad6565b506020828860640184336000905af158600e01573d6000803e3d6000fd5b3d6001141558600a015760016000f35b8151965059825b818110156104285760008152602001610b2656fe60806040523480156100195760008061001661001f565b50505b5061008a565b632a2a7adb598160e01b8152600481016020815285602082015260005b8681101561005757808601518282016040015260200161003c565b506020828760640184336000905af158600e01573d6000803e3d6000fd5b3d6001141558600a015760016000f35b505050565b610728806100996000396000f3fe6080604052600436106100225760003560e01c8063e74a474a1461003957610031565b366100315761002f610117565b005b61002f610117565b61002f60048036036060811015610058576000806100556104ca565b50505b6001600160a01b03823516919081019060408101602082013564010000000081111561008c576000806100896104ca565b50505b8201836020820111156100a7576000806100a46104ca565b50505b803590602001918460018302840111640100000000831117156100d2576000806100cf6104ca565b50505b91908080601f01602080910402602001604051908101604052818152929190602084018383808284376000920191909152509295505050903560ff1691506101319050565b61011f61012f565b61012f61012a6102c3565b6103c4565b565b600061013b6102c3565b6001600160a01b03161461018e5760405162461bcd60e51b815260206004820152600d60248201526c496d706c206e6f74207a65726f60981b60448201526064016040518091039061018b6104ca565b50505b61019783610401565b6101a08161048e565b6000825111156102be5760006101b46102c3565b6001600160a01b0316836040518082805190602001908083835b602083106101ed5780518252601f1990920191602091820191016101ce565b6001836020036101000a038019825116818451168082178552505050505050905001915050600060405180830381855a610225610535565b50505050509150503d8060008114610259576040513d603f01601f191681016040523d815291503d6000602084013e61025e565b606091505b50509050806102bc5760405162461bcd60e51b815260206004820152601a60248201527f496d706c656d656e746174696f6e20696e6974206661696c65640000000000006044820152606401604051809103906102b96104ca565b50505b505b505050565b6000807f360894a13ba1a3210667c828492db98dca3e2076cc3735a920a3ca505d382bbc806102f0610622565b91506001600160a01b03821661030b576000925050506103c1565b816001600160a01b031663ecef89d561032261049d565b6040516001600160e01b031960e084901b16815260ff9091166004820152602401602060405180830381868061035661067d565b15801561036b576000806103686104ca565b50505b505a6103756106c9565b5050505050158015610394573d6000803e3d60006103916104ca565b50505b505050506040513d60208110156103b3576000806103b06104ca565b50505b810190808051955050505050505b90565b3660008037600080366000845a6103d9610535565b50505050503d6000803e8080156103ef573d6000f35b3d60006103fa6104ca565b5050505050565b61040a816104b5565b6104635760405162461bcd60e51b815260206004820181905260248201527f43616e6e6f742073657420696d706c656d656e746174696f6e20746f20454f416044820152606401604051809103906104606104ca565b50505b7f360894a13ba1a3210667c828492db98dca3e2076cc3735a920a3ca505d382bbc81816102bc6106da565b600160fc1b81816102bc6106da565b600080600160fc1b806104ae610622565b9250505090565b600080826104c161067d565b15159392505050565b632a2a7adb598160e01b8152600481016020815285602082015260005b868110156105025780860151828201604001526020016104e7565b506020828760640184336000905af158600e01573d6000803e3d6000fd5b3d6001141558600a015760016000f35b505050565b63ffe73914598160e01b8152610568565b80808311156105525750815b92915050565b8080831015610552575090919050565b836004820152846024820152606060448201528660648201526084810160005b888110156105a0578088015182820152602001610588565b506060828960a40184336000905af158600e01573d6000803e3d6000fd5b3d6001141558600a015760016000f35b815160408301513d6000853e8b8b82606087013350600060045af150596105f58d3d610558565b8c016106018187610546565b5b828110156106165760008152602001610602565b50929c50505050505050565b6303daa959598160e01b8152836004820152602081602483336000905af158600e01573d6000803e3d6000fd5b3d6001141558600a015760016000f35b8051935060005b60408110156102be57600082820152602001610666565b638435035b598160e01b8152836004820152602081602483336000905af158600e01573d6000803e3d6000fd5b3d6001141558600a015760016000f35b80516000825293506020610666565b638540661f598160e01b8152610568565b6322bd64c0598160e01b8152836004820152846024820152600081604483336000905af158600e01573d6000803e3d6000fd5b3d6001141558600a015760016000f35b600081526020610666564f776e61626c653a206e6577206f776e657220697320746865207a65726f2061646472657373",
  "deployedBytecode": "0x60806040523480156100195760008061001661081b565b50505b506004361061006b5760003560e01c806345812ca514610079578063715018a614610163578063808ae5fb1461016d5780638da5cb5b146101a4578063ecef89d5146101ac578063f2fde38b146101d5575b60008061007661081b565b50505b610147600480360360408110156100985760008061009561081b565b50505b8101906020810181356401000000008111156100bc576000806100b961081b565b50505b8201836020820111156100d7576000806100d461081b565b50505b80359060200191846001830284011164010000000083111715610102576000806100ff61081b565b50505b91908080601f01602080910402602001604051908101604052818152929190602084018383808284376000920191909152509295505050903560ff1691506102049050565b6040516001600160a01b03909116815260200160405180910390f35b61016b610219565b005b61016b6004803603604081101561018c5760008061018961081b565b50505b506001600160a01b0381358116916020013516610331565b61014761042f565b610147600480360360208110156101cb576000806101c861081b565b50505b503560ff16610451565b61016b600480360360208110156101f4576000806101f161081b565b50505b50356001600160a01b0316610493565b60006102108383610602565b90505b92915050565b6102216107ad565b6001600160a01b031660006065610236610886565b906101000a90046001600160a01b03166001600160a01b0316146102a95760405162461bcd60e51b815260206004820181905260248201527f4f776e61626c653a2063616c6c6572206973206e6f7420746865206f776e65726044820152606401604051809103906102a661081b565b50505b60008060656102b6610886565b906101000a90046001600160a01b03166001600160a01b03167f8be0079c531659141344cd1fd0a4f28419497f9722a3daafe3b4186f6b6457e060405160405180910390a36000606560018161030a610886565b816001600160a01b0302191690836001600160a01b031602179061032c6108e1565b505050565b6103396107ad565b6001600160a01b03166000606561034e610886565b906101000a90046001600160a01b03166001600160a01b0316146103c15760405162461bcd60e51b815260206004820181905260248201527f4f776e61626c653a2063616c6c6572206973206e6f7420746865206f776e65726044820152606401604051809103906103be61081b565b50505b8160976001816103cf610886565b816001600160a01b0302191690836001600160a01b03160217906103f16108e1565b50505080609860006101000a81610406610886565b816001600160a01b0302191690836001600160a01b03160217906104286108e1565b5050505050565b600080606561043c610886565b906101000a90046001600160a01b0316905090565b60008160ff1660011415610482576000609861046b610886565b906101000a90046001600160a01b0316905061048e565b6000609761046b610886565b919050565b61049b6107ad565b6001600160a01b0316600060656104b0610886565b906101000a90046001600160a01b03166001600160a01b0316146105235760405162461bcd60e51b815260206004820181905260248201527f4f776e61626c653a2063616c6c6572206973206e6f7420746865206f776e657260448201526064016040518091039061052061081b565b50505b6001600160a01b0381166105715760405162461bcd60e51b81526004018080602001828103825260268152602001806112fc602691396040019150506040518091039061056e61081b565b50505b6001600160a01b03811660006065610587610886565b906101000a90046001600160a01b03166001600160a01b03167f8be0079c531659141344cd1fd0a4f28419497f9722a3daafe3b4186f6b6457e060405160405180910390a38060656001816105da610886565b816001600160a01b0302191690836001600160a01b03160217906105fc6108e1565b50505050565b60008061060d6107bd565b90507efffc2da0b561cae30d9826d37709e9421c4725faebc226cbbb7ef5fc5e7349816040516001600160a01b03909116815260200160405180910390a1806001600160a01b031663e74a474a5a63996d79a5598160e01b8152602081600483336000905af158601d01573d60011458600c01573d6000803e3d621234565260ea61109c528051925060005b60408110156106b057600082820152602001610699565b50505086866040518463ffffffff1660e01b815260040180846001600160a01b03168152602001806020018360ff168152602001828103825284818151815260200191508051906020019080838360005b83811015610719578082015183820152602001610701565b50505050905090810190601f1680156107465780820380516001836020036101000a031916815260200191505b509450505050506000604051808303816000878061076261092f565b1580156107775760008061077461081b565b50505b505a61078161097b565b5050505050501580156107a1573d6000803e3d600061079e61081b565b50505b50929695505050505050565b60005a6107b8610a66565b905090565b60008060606040516107d160208201610aac565b601f1982820381018352601f90910116604052905080516020820160006107f6610ab9565b505091508161080361092f565b6108155760008061081261081b565b50505b50905090565b632a2a7adb598160e01b8152600481016020815285602082015260005b86811015610853578086015182820160400152602001610838565b506020828760640184336000905af158601d01573d60011458600c01573d6000803e3d621234565260ea61109c52505050565b6303daa959598160e01b8152836004820152602081602483336000905af158601d01573d60011458600c01573d6000803e3d621234565260ea61109c528051935060005b604081101561032c576000828201526020016108ca565b6322bd64c0598160e01b8152836004820152846024820152600081604483336000905af158601d01573d60011458600c01573d6000803e3d621234565260ea61109c526000815260206108ca565b638435035b598160e01b8152836004820152602081602483336000905af158601d01573d60011458600c01573d6000803e3d621234565260ea61109c52805160008252935060206108ca565b6385979f76598160e01b81526109ac565b8080831115610213575090919050565b8080831015610213575090919050565b836004820152846024820152606060448201528760648201526084810160005b898110156109e45780890151828201526020016109cc565b506060828a60a40184336000905af158601d01573d60011458600c01573d6000803e3d621234565260ea61109c52815160408301513d6000853e8c8c82606087013350600060045af15059610a398e3d61099c565b8d01610a45818761098c565b5b82811015610a5a5760008152602001610a46565b50929d50505050505050565b6373509064598160e01b8152602081600483336000905af158601d01573d60011458600c01573d6000803e3d621234565260ea61109c52805160008252935060206108ca565b6107c180610b3b83390190565b6314aa2ff7598160e01b8152600481016020815286602082015260005b87811015610af1578087015182820160400152602001610ad6565b506020828860640184336000905af158601d01573d60011458600c01573d6000803e3d621234565260ea61109c528151965059825b818110156104285760008152602001610b2656fe60806040523480156100195760008061001661001f565b50505b5061008a565b632a2a7adb598160e01b8152600481016020815285602082015260005b8681101561005757808601518282016040015260200161003c565b506020828760640184336000905af158601d01573d60011458600c01573d6000803e3d621234565260ea61109c52505050565b610728806100996000396000f3fe6080604052600436106100225760003560e01c8063e74a474a1461003957610031565b366100315761002f610117565b005b61002f610117565b61002f60048036036060811015610058576000806100556104ca565b50505b6001600160a01b03823516919081019060408101602082013564010000000081111561008c576000806100896104ca565b50505b8201836020820111156100a7576000806100a46104ca565b50505b803590602001918460018302840111640100000000831117156100d2576000806100cf6104ca565b50505b91908080601f01602080910402602001604051908101604052818152929190602084018383808284376000920191909152509295505050903560ff1691506101319050565b61011f61012f565b61012f61012a6102c3565b6103c4565b565b600061013b6102c3565b6001600160a01b03161461018e5760405162461bcd60e51b815260206004820152600d60248201526c496d706c206e6f74207a65726f60981b60448201526064016040518091039061018b6104ca565b50505b61019783610401565b6101a08161048e565b6000825111156102be5760006101b46102c3565b6001600160a01b0316836040518082805190602001908083835b602083106101ed5780518252601f1990920191602091820191016101ce565b6001836020036101000a038019825116818451168082178552505050505050905001915050600060405180830381855a610225610535565b50505050509150503d8060008114610259576040513d603f01601f191681016040523d815291503d6000602084013e61025e565b606091505b50509050806102bc5760405162461bcd60e51b815260206004820152601a60248201527f496d706c656d656e746174696f6e20696e6974206661696c65640000000000006044820152606401604051809103906102b96104ca565b50505b505b505050565b6000807f360894a13ba1a3210667c828492db98dca3e2076cc3735a920a3ca505d382bbc806102f0610622565b91506001600160a01b03821661030b576000925050506103c1565b816001600160a01b031663ecef89d561032261049d565b6040516001600160e01b031960e084901b16815260ff9091166004820152602401602060405180830381868061035661067d565b15801561036b576000806103686104ca565b50505b505a6103756106c9565b5050505050158015610394573d6000803e3d60006103916104ca565b50505b505050506040513d60208110156103b3576000806103b06104ca565b50505b810190808051955050505050505b90565b3660008037600080366000845a6103d9610535565b50505050503d6000803e8080156103ef573d6000f35b3d60006103fa6104ca565b5050505050565b61040a816104b5565b6104635760405162461bcd60e51b815260206004820181905260248201527f43616e6e6f742073657420696d706c656d656e746174696f6e20746f20454f416044820152606401604051809103906104606104ca565b50505b7f360894a13ba1a3210667c828492db98dca3e2076cc3735a920a3ca505d382bbc81816102bc6106da565b600160fc1b81816102bc6106da565b600080600160fc1b806104ae610622565b9250505090565b600080826104c161067d565b15159392505050565b632a2a7adb598160e01b8152600481016020815285602082015260005b868110156105025780860151828201604001526020016104e7565b506020828760640184336000905af158601d01573d60011458600c01573d6000803e3d621234565260ea61109c52505050565b63ffe73914598160e01b8152610568565b80808311156105525750815b92915050565b8080831015610552575090919050565b836004820152846024820152606060448201528660648201526084810160005b888110156105a0578088015182820152602001610588565b506060828960a40184336000905af158601d01573d60011458600c01573d6000803e3d621234565260ea61109c52815160408301513d6000853e8b8b82606087013350600060045af150596105f58d3d610558565b8c016106018187610546565b5b828110156106165760008152602001610602565b50929c50505050505050565b6303daa959598160e01b8152836004820152602081602483336000905af158601d01573d60011458600c01573d6000803e3d621234565260ea61109c528051935060005b60408110156102be57600082820152602001610666565b638435035b598160e01b8152836004820152602081602483336000905af158601d01573d60011458600c01573d6000803e3d621234565260ea61109c5280516000825293506020610666565b638540661f598160e01b8152610568565b6322bd64c0598160e01b8152836004820152846024820152600081604483336000905af158601d01573d60011458600c01573d6000803e3d621234565260ea61109c52600081526020610666564f776e61626c653a206e6577206f776e657220697320746865207a65726f2061646472657373",
  "linkReferences": {},
  "deployedLinkReferences": {}
}