{
  "_format": "hh-sol-artifact-1",
  "contractName": "OZProxy-ovm",
  "sourceName": "contracts/OZProxy.sol",
  "abi": [
    {
      "inputs": [
        {
          "internalType": "address",
          "name": "_logic",
          "type": "address"
        },
        {
          "internalType": "address",
          "name": "admin_",
          "type": "address"
        },
        {
          "internalType": "bytes",
          "name": "_data",
          "type": "bytes"
        }
      ],
      "stateMutability": "payable",
      "type": "constructor"
    },
    {
      "anonymous": false,
      "inputs": [
        {
          "indexed": false,
          "internalType": "address",
          "name": "previousAdmin",
          "type": "address"
        },
        {
          "indexed": false,
          "internalType": "address",
          "name": "newAdmin",
          "type": "address"
        }
      ],
      "name": "AdminChanged",
      "type": "event"
    },
    {
      "anonymous": false,
      "inputs": [
        {
          "indexed": true,
          "internalType": "address",
          "name": "implementation",
          "type": "address"
        }
      ],
      "name": "Upgraded",
      "type": "event"
    },
    {
      "stateMutability": "payable",
      "type": "fallback"
    },
    {
      "inputs": [],
      "name": "admin",
      "outputs": [
        {
          "internalType": "address",
          "name": "admin_",
          "type": "address"
        }
      ],
      "stateMutability": "nonpayable",
      "type": "function"
    },
    {
      "inputs": [
        {
          "internalType": "bytes32",
          "name": "c__0x2e68e87d",
          "type": "bytes32"
        }
      ],
      "name": "c_0x2e68e87d",
      "outputs": [],
      "stateMutability": "pure",
      "type": "function"
    },
    {
      "inputs": [
        {
          "internalType": "address",
          "name": "newAdmin",
          "type": "address"
        }
      ],
      "name": "changeAdmin",
      "outputs": [],
      "stateMutability": "nonpayable",
      "type": "function"
    },
    {
      "inputs": [],
      "name": "implementation",
      "outputs": [
        {
          "internalType": "address",
          "name": "implementation_",
          "type": "address"
        }
      ],
      "stateMutability": "nonpayable",
      "type": "function"
    },
    {
      "inputs": [
        {
          "internalType": "address",
          "name": "newImplementation",
          "type": "address"
        }
      ],
      "name": "upgradeTo",
      "outputs": [],
      "stateMutability": "nonpayable",
      "type": "function"
    },
    {
      "inputs": [
        {
          "internalType": "address",
          "name": "newImplementation",
          "type": "address"
        },
        {
          "internalType": "bytes",
          "name": "data",
          "type": "bytes"
        }
      ],
      "name": "upgradeToAndCall",
      "outputs": [],
      "stateMutability": "payable",
      "type": "function"
    },
    {
      "stateMutability": "payable",
      "type": "receive"
    }
  ],
  "bytecode": "0x6080604052604051620017ca380380620017ca83398181016040526060811015620000345760008062000031620005f1565b50505b81019080805190602001909291908051906020019092919080516040519392919084640100000000821115620000745760008062000071620005f1565b50505b83820191506020820185811115620000965760008062000093620005f1565b50505b8251866001820283011164010000000082111715620000bf57600080620000bc620005f1565b50505b8083526020830192505050908051906020019080838360005b83811015620000f5578082015181840152602081019050620000d8565b50505050905090810190601f168015620001235780820380516001836020036101000a031916815260200191505b50604052505050828282828160017f360894a13ba1a3210667c828492db98dca3e2076cc3735a920a3ca505d382bbd60001c0360001b7f360894a13ba1a3210667c828492db98dca3e2076cc3735a920a3ca505d382bbc60001b146200018557fe5b62000196826200026360201b60201c565b600081511115620001ba57620001b882826200031560201b6200061c1760201c565b505b505060017fb53127684a568b3173ae13b9f8a6016e243e63b6e8ee1178d6a717850b5d610460001c0360001b7fb53127684a568b3173ae13b9f8a6016e243e63b6e8ee1178d6a717850b5d610360001b146200021257fe5b62000223826200034b60201b60201c565b5050506200025a7f4a54d609d5de4383386ad4783f62eb4d4ac835b333f6f5e270dacd76e5e11a1e60001b6200038560201b60201c565b50505062000838565b62000279816200038860201b620006491760201c565b620002db576040517f08c379a00000000000000000000000000000000000000000000000000000000081526004018080602001828103825260368152602001806200176e6036913960400191505060405180910390620002d8620005f1565b50505b60007f360894a13ba1a3210667c828492db98dca3e2076cc3735a920a3ca505d382bbc60001b905081816200030f62000661565b50505050565b60606200034383836040518060600160405280602781526020016200174760279139620003a460201b60201c565b905092915050565b60007fb53127684a568b3173ae13b9f8a6016e243e63b6e8ee1178d6a717850b5d610360001b905081816200037f62000661565b50505050565b50565b6000808262000396620006c8565b905060008111915050919050565b6060620003b7846200038860201b60201c565b62000419576040517f08c379a0000000000000000000000000000000000000000000000000000000008152600401808060200182810382526026815260200180620017a4602691396040019150506040518091039062000416620005f1565b50505b600060608573ffffffffffffffffffffffffffffffffffffffff16856040518082805190602001908083835b602083106200046a578051825260208201915060208101905060208303925062000445565b6001836020036101000a038019825116818451168082178552505050505050905001915050600060405180830381855a620004a46200072d565b50505050509150503d8060008114620004da576040519150601f19603f3d011682016040523d82523d6000602084013e620004df565b606091505b5091509150620004f78282866200050260201b60201c565b925050509392505050565b606083156200051457829050620005ea565b60008351111562000539578251808460200162000530620005f1565b505050620005e9565b816040517f08c379a00000000000000000000000000000000000000000000000000000000081526004018080602001828103825283818151815260200191508051906020019080838360005b83811015620005a257808201518184015260208101905062000585565b50505050905090810190601f168015620005d05780820380516001836020036101000a031916815260200191505b509250505060405180910390620005e6620005f1565b50505b5b9392505050565b632a2a7adb598160e01b8152600481016020815285602082015260005b868110156200062e5780860151816040840101526020810190506200060e565b506020828760640184336000905af158600e01573d6000803e3d6000fd5b3d6001141558600a015760016000f35b505050565b6322bd64c0598160e01b8152836004820152846024820152600081604483336000905af158600e01573d6000803e3d6000fd5b3d6001141558600a015760016000f35b60005b6040811015620006c357600081830152602081019050620006a7565b505050565b638435035b598160e01b8152836004820152602081602483336000905af158600e01573d6000803e3d6000fd5b3d6001141558600a015760016000f35b8051935060005b604081101562000728576000818301526020810190506200070c565b505050565b63ffe73914598160e01b81526200076f565b60008190508183111562000751578290505b92915050565b60008190508183101562000769578290505b92915050565b836004820152846024820152606060448201528660648201526084810160005b88811015620007ac5780880151818301526020810190506200078f565b506060828960a40184336000905af158600e01573d6000803e3d6000fd5b3d6001141558600a015760016000f35b815160408301513d6000853e8b8b82606087013350600060045af15059620008038d3d62000757565b8c016200081181876200073f565b5b828110156200082b576000815260208101905062000812565b50839d5050505050505050565b610eff80620008486000396000f3fe6080604052600436106100595760003560e01c80633659cfe6146100725780634f1ef286146100d55780635c60da1b146101925780638f283970146101dc578063c3c85dee1461023f578063f851a4401461028c57610068565b36610068576100666102d6565b005b6100706102d6565b005b34801561008757600080610084610b09565b50505b506100d3600480360360208110156100a7576000806100a4610b09565b50505b81019080803573ffffffffffffffffffffffffffffffffffffffff1690602001909291905050506102f0565b005b610190600480360360408110156100f4576000806100f1610b09565b50505b81019080803573ffffffffffffffffffffffffffffffffffffffff1690602001909291908035906020019064010000000081111561013a57600080610137610b09565b50505b82018360208201111561015557600080610152610b09565b50505b803590602001918460018302840111640100000000831117156101805760008061017d610b09565b50505b909192939192939050505061034d565b005b3480156101a7576000806101a4610b09565b50505b506101b06103fb565b604051808273ffffffffffffffffffffffffffffffffffffffff16815260200191505060405180910390f35b3480156101f1576000806101ee610b09565b50505b5061023d600480360360208110156102115760008061020e610b09565b50505b81019080803573ffffffffffffffffffffffffffffffffffffffff16906020019092919050505061045b565b005b34801561025457600080610251610b09565b50505b5061028a6004803603602081101561027457600080610271610b09565b50505b81019080803590602001909291905050506105b9565b005b3480156102a15760008061029e610b09565b50505b506102aa6105bc565b604051808273ffffffffffffffffffffffffffffffffffffffff16815260200191505060405180910390f35b6102de610663565b6102ee6102e961070a565b610742565b565b6102f8610781565b73ffffffffffffffffffffffffffffffffffffffff165a610317610b77565b73ffffffffffffffffffffffffffffffffffffffff1614156103415761033c816107b9565b61034a565b6103496102d6565b5b50565b610355610781565b73ffffffffffffffffffffffffffffffffffffffff165a610374610b77565b73ffffffffffffffffffffffffffffffffffffffff1614156103ed57610399836107b9565b6103e78383838080601f016020809104026020016040519081016040528093929190818152602001838380828437600081840152601f19601f8201169050808301925050505050505061061c565b506103f6565b6103f56102d6565b5b505050565b6000610405610781565b73ffffffffffffffffffffffffffffffffffffffff165a610424610b77565b73ffffffffffffffffffffffffffffffffffffffff16141561044f5761044861070a565b9050610458565b6104576102d6565b5b90565b610463610781565b73ffffffffffffffffffffffffffffffffffffffff165a610482610b77565b73ffffffffffffffffffffffffffffffffffffffff1614156105ad57600073ffffffffffffffffffffffffffffffffffffffff168173ffffffffffffffffffffffffffffffffffffffff16141561052d576040517f08c379a000000000000000000000000000000000000000000000000000000000815260040180806020018281038252603a815260200180610e00603a91396040019150506040518091039061052a610b09565b50505b7f7e644d79422f17c01e4894b5f4f588d331ebfa28653d42ae832dc59e38c9798f610556610781565b82604051808373ffffffffffffffffffffffffffffffffffffffff1681526020018273ffffffffffffffffffffffffffffffffffffffff1681526020019250505060405180910390a16105a881610808565b6105b6565b6105b56102d6565b5b50565b50565b60006105c6610781565b73ffffffffffffffffffffffffffffffffffffffff165a6105e5610b77565b73ffffffffffffffffffffffffffffffffffffffff16141561061057610609610781565b9050610619565b6106186102d6565b5b90565b60606106418383604051806060016040528060278152602001610e3a60279139610840565b905092915050565b60008082610655610bd4565b905060008111915050919050565b61066b610781565b73ffffffffffffffffffffffffffffffffffffffff165a61068a610b77565b73ffffffffffffffffffffffffffffffffffffffff161415610700576040517f08c379a0000000000000000000000000000000000000000000000000000000008152600401808060200182810382526042815260200180610ebd60429139606001915050604051809103906106fd610b09565b50505b610708610984565b565b6000807f360894a13ba1a3210667c828492db98dca3e2076cc3735a920a3ca505d382bbc60001b90508061073c610c37565b91505090565b3660008037600080366000845a610757610c9a565b50505050503d6000803e806000811461076f573d6000f35b3d600061077a610b09565b5050505050565b6000807fb53127684a568b3173ae13b9f8a6016e243e63b6e8ee1178d6a717850b5d610360001b9050806107b3610c37565b91505090565b6107c281610986565b8073ffffffffffffffffffffffffffffffffffffffff167fbc7cd75a20ee27fd9adebab32041f755214dbc6bffa90cc0225b39da2e5c2d3b60405160405180910390a250565b60007fb53127684a568b3173ae13b9f8a6016e243e63b6e8ee1178d6a717850b5d610360001b9050818161083a610d9a565b50505050565b606061084b84610649565b6108a9576040517f08c379a0000000000000000000000000000000000000000000000000000000008152600401808060200182810382526026815260200180610e9760269139604001915050604051809103906108a6610b09565b50505b600060608573ffffffffffffffffffffffffffffffffffffffff16856040518082805190602001908083835b602083106108f857805182526020820191506020810190506020830392506108d5565b6001836020036101000a038019825116818451168082178552505050505050905001915050600060405180830381855a610930610c9a565b50505050509150503d8060008114610964576040519150601f19603f3d011682016040523d82523d6000602084013e610969565b606091505b5091509150610979828286610a25565b925050509392505050565b565b61098f81610649565b6109ed576040517f08c379a0000000000000000000000000000000000000000000000000000000008152600401808060200182810382526036815260200180610e6160369139604001915050604051809103906109ea610b09565b50505b60007f360894a13ba1a3210667c828492db98dca3e2076cc3735a920a3ca505d382bbc60001b90508181610a1f610d9a565b50505050565b60608315610a3557829050610b02565b600083511115610a565782518084602001610a4e610b09565b505050610b01565b816040517f08c379a00000000000000000000000000000000000000000000000000000000081526004018080602001828103825283818151815260200191508051906020019080838360005b83811015610abd578082015181840152602081019050610aa2565b50505050905090810190601f168015610aea5780820380516001836020036101000a031916815260200191505b509250505060405180910390610afe610b09565b50505b5b9392505050565b632a2a7adb598160e01b8152600481016020815285602082015260005b86811015610b44578086015181604084010152602081019050610b26565b506020828760640184336000905af158600e01573d6000803e3d6000fd5b3d6001141558600a015760016000f35b505050565b6373509064598160e01b8152602081600483336000905af158600e01573d6000803e3d6000fd5b3d6001141558600a015760016000f35b8051935060005b6040811015610bcf57600081830152602081019050610bb5565b505050565b638435035b598160e01b8152836004820152602081602483336000905af158600e01573d6000803e3d6000fd5b3d6001141558600a015760016000f35b8051935060005b6040811015610c3257600081830152602081019050610c18565b505050565b6303daa959598160e01b8152836004820152602081602483336000905af158600e01573d6000803e3d6000fd5b3d6001141558600a015760016000f35b8051935060005b6040811015610c9557600081830152602081019050610c7b565b505050565b63ffe73914598160e01b8152610cd9565b600081905081831115610cbc578290505b92915050565b600081905081831015610cd3578290505b92915050565b836004820152846024820152606060448201528660648201526084810160005b88811015610d14578088015181830152602081019050610cf9565b506060828960a40184336000905af158600e01573d6000803e3d6000fd5b3d6001141558600a015760016000f35b815160408301513d6000853e8b8b82606087013350600060045af15059610d698d3d610cc2565b8c01610d758187610cab565b5b82811015610d8d5760008152602081019050610d76565b50839d5050505050505050565b6322bd64c0598160e01b8152836004820152846024820152600081604483336000905af158600e01573d6000803e3d6000fd5b3d6001141558600a015760016000f35b60005b6040811015610dfa57600081830152602081019050610de0565b50505056fe5472616e73706172656e745570677261646561626c6550726f78793a206e65772061646d696e20697320746865207a65726f2061646472657373416464726573733a206c6f772d6c6576656c2064656c65676174652063616c6c206661696c65645570677261646561626c6550726f78793a206e657720696d706c656d656e746174696f6e206973206e6f74206120636f6e7472616374416464726573733a2064656c65676174652063616c6c20746f206e6f6e2d636f6e74726163745472616e73706172656e745570677261646561626c6550726f78793a2061646d696e2063616e6e6f742066616c6c6261636b20746f2070726f787920746172676574416464726573733a206c6f772d6c6576656c2064656c65676174652063616c6c206661696c65645570677261646561626c6550726f78793a206e657720696d706c656d656e746174696f6e206973206e6f74206120636f6e7472616374416464726573733a2064656c65676174652063616c6c20746f206e6f6e2d636f6e7472616374",
  "deployedBytecode": "0x6080604052600436106100595760003560e01c80633659cfe6146100725780634f1ef286146100d55780635c60da1b146101925780638f283970146101dc578063c3c85dee1461023f578063f851a4401461028c57610068565b36610068576100666102d6565b005b6100706102d6565b005b34801561008757600080610084610b09565b50505b506100d3600480360360208110156100a7576000806100a4610b09565b50505b81019080803573ffffffffffffffffffffffffffffffffffffffff1690602001909291905050506102f0565b005b610190600480360360408110156100f4576000806100f1610b09565b50505b81019080803573ffffffffffffffffffffffffffffffffffffffff1690602001909291908035906020019064010000000081111561013a57600080610137610b09565b50505b82018360208201111561015557600080610152610b09565b50505b803590602001918460018302840111640100000000831117156101805760008061017d610b09565b50505b909192939192939050505061034d565b005b3480156101a7576000806101a4610b09565b50505b506101b06103fb565b604051808273ffffffffffffffffffffffffffffffffffffffff16815260200191505060405180910390f35b3480156101f1576000806101ee610b09565b50505b5061023d600480360360208110156102115760008061020e610b09565b50505b81019080803573ffffffffffffffffffffffffffffffffffffffff16906020019092919050505061045b565b005b34801561025457600080610251610b09565b50505b5061028a6004803603602081101561027457600080610271610b09565b50505b81019080803590602001909291905050506105b9565b005b3480156102a15760008061029e610b09565b50505b506102aa6105bc565b604051808273ffffffffffffffffffffffffffffffffffffffff16815260200191505060405180910390f35b6102de610663565b6102ee6102e961070a565b610742565b565b6102f8610781565b73ffffffffffffffffffffffffffffffffffffffff165a610317610b77565b73ffffffffffffffffffffffffffffffffffffffff1614156103415761033c816107b9565b61034a565b6103496102d6565b5b50565b610355610781565b73ffffffffffffffffffffffffffffffffffffffff165a610374610b77565b73ffffffffffffffffffffffffffffffffffffffff1614156103ed57610399836107b9565b6103e78383838080601f016020809104026020016040519081016040528093929190818152602001838380828437600081840152601f19601f8201169050808301925050505050505061061c565b506103f6565b6103f56102d6565b5b505050565b6000610405610781565b73ffffffffffffffffffffffffffffffffffffffff165a610424610b77565b73ffffffffffffffffffffffffffffffffffffffff16141561044f5761044861070a565b9050610458565b6104576102d6565b5b90565b610463610781565b73ffffffffffffffffffffffffffffffffffffffff165a610482610b77565b73ffffffffffffffffffffffffffffffffffffffff1614156105ad57600073ffffffffffffffffffffffffffffffffffffffff168173ffffffffffffffffffffffffffffffffffffffff16141561052d576040517f08c379a000000000000000000000000000000000000000000000000000000000815260040180806020018281038252603a815260200180610e00603a91396040019150506040518091039061052a610b09565b50505b7f7e644d79422f17c01e4894b5f4f588d331ebfa28653d42ae832dc59e38c9798f610556610781565b82604051808373ffffffffffffffffffffffffffffffffffffffff1681526020018273ffffffffffffffffffffffffffffffffffffffff1681526020019250505060405180910390a16105a881610808565b6105b6565b6105b56102d6565b5b50565b50565b60006105c6610781565b73ffffffffffffffffffffffffffffffffffffffff165a6105e5610b77565b73ffffffffffffffffffffffffffffffffffffffff16141561061057610609610781565b9050610619565b6106186102d6565b5b90565b60606106418383604051806060016040528060278152602001610e3a60279139610840565b905092915050565b60008082610655610bd4565b905060008111915050919050565b61066b610781565b73ffffffffffffffffffffffffffffffffffffffff165a61068a610b77565b73ffffffffffffffffffffffffffffffffffffffff161415610700576040517f08c379a0000000000000000000000000000000000000000000000000000000008152600401808060200182810382526042815260200180610ebd60429139606001915050604051809103906106fd610b09565b50505b610708610984565b565b6000807f360894a13ba1a3210667c828492db98dca3e2076cc3735a920a3ca505d382bbc60001b90508061073c610c37565b91505090565b3660008037600080366000845a610757610c9a565b50505050503d6000803e806000811461076f573d6000f35b3d600061077a610b09565b5050505050565b6000807fb53127684a568b3173ae13b9f8a6016e243e63b6e8ee1178d6a717850b5d610360001b9050806107b3610c37565b91505090565b6107c281610986565b8073ffffffffffffffffffffffffffffffffffffffff167fbc7cd75a20ee27fd9adebab32041f755214dbc6bffa90cc0225b39da2e5c2d3b60405160405180910390a250565b60007fb53127684a568b3173ae13b9f8a6016e243e63b6e8ee1178d6a717850b5d610360001b9050818161083a610d9a565b50505050565b606061084b84610649565b6108a9576040517f08c379a0000000000000000000000000000000000000000000000000000000008152600401808060200182810382526026815260200180610e9760269139604001915050604051809103906108a6610b09565b50505b600060608573ffffffffffffffffffffffffffffffffffffffff16856040518082805190602001908083835b602083106108f857805182526020820191506020810190506020830392506108d5565b6001836020036101000a038019825116818451168082178552505050505050905001915050600060405180830381855a610930610c9a565b50505050509150503d8060008114610964576040519150601f19603f3d011682016040523d82523d6000602084013e610969565b606091505b5091509150610979828286610a25565b925050509392505050565b565b61098f81610649565b6109ed576040517f08c379a0000000000000000000000000000000000000000000000000000000008152600401808060200182810382526036815260200180610e6160369139604001915050604051809103906109ea610b09565b50505b60007f360894a13ba1a3210667c828492db98dca3e2076cc3735a920a3ca505d382bbc60001b90508181610a1f610d9a565b50505050565b60608315610a3557829050610b02565b600083511115610a565782518084602001610a4e610b09565b505050610b01565b816040517f08c379a00000000000000000000000000000000000000000000000000000000081526004018080602001828103825283818151815260200191508051906020019080838360005b83811015610abd578082015181840152602081019050610aa2565b50505050905090810190601f168015610aea5780820380516001836020036101000a031916815260200191505b509250505060405180910390610afe610b09565b50505b5b9392505050565b632a2a7adb598160e01b8152600481016020815285602082015260005b86811015610b44578086015181604084010152602081019050610b26565b506020828760640184336000905af158601d01573d60011458600c01573d6000803e3d621234565260ea61109c52505050565b6373509064598160e01b8152602081600483336000905af158601d01573d60011458600c01573d6000803e3d621234565260ea61109c528051935060005b6040811015610bcf57600081830152602081019050610bb5565b505050565b638435035b598160e01b8152836004820152602081602483336000905af158601d01573d60011458600c01573d6000803e3d621234565260ea61109c528051935060005b6040811015610c3257600081830152602081019050610c18565b505050565b6303daa959598160e01b8152836004820152602081602483336000905af158601d01573d60011458600c01573d6000803e3d621234565260ea61109c528051935060005b6040811015610c9557600081830152602081019050610c7b565b505050565b63ffe73914598160e01b8152610cd9565b600081905081831115610cbc578290505b92915050565b600081905081831015610cd3578290505b92915050565b836004820152846024820152606060448201528660648201526084810160005b88811015610d14578088015181830152602081019050610cf9565b506060828960a40184336000905af158601d01573d60011458600c01573d6000803e3d621234565260ea61109c52815160408301513d6000853e8b8b82606087013350600060045af15059610d698d3d610cc2565b8c01610d758187610cab565b5b82811015610d8d5760008152602081019050610d76565b50839d5050505050505050565b6322bd64c0598160e01b8152836004820152846024820152600081604483336000905af158601d01573d60011458600c01573d6000803e3d621234565260ea61109c5260005b6040811015610dfa57600081830152602081019050610de0565b50505056fe5472616e73706172656e745570677261646561626c6550726f78793a206e65772061646d696e20697320746865207a65726f2061646472657373416464726573733a206c6f772d6c6576656c2064656c65676174652063616c6c206661696c65645570677261646561626c6550726f78793a206e657720696d706c656d656e746174696f6e206973206e6f74206120636f6e7472616374416464726573733a2064656c65676174652063616c6c20746f206e6f6e2d636f6e74726163745472616e73706172656e745570677261646561626c6550726f78793a2061646d696e2063616e6e6f742066616c6c6261636b20746f2070726f787920746172676574",
  "linkReferences": {},
  "deployedLinkReferences": {}
}