{
  "_format": "hh-sol-artifact-1",
  "contractName": "PoolManagerLogic",
  "sourceName": "contracts/PoolManagerLogic.sol",
  "abi": [
    {
      "anonymous": false,
      "inputs": [
        {
          "indexed": false,
          "internalType": "address",
          "name": "fundAddress",
          "type": "address"
        },
        {
          "indexed": false,
          "internalType": "address",
          "name": "manager",
          "type": "address"
        },
        {
          "indexed": false,
          "internalType": "address",
          "name": "asset",
          "type": "address"
        },
        {
          "indexed": false,
          "internalType": "bool",
          "name": "isDeposit",
          "type": "bool"
        }
      ],
      "name": "AssetAdded",
      "type": "event"
    },
    {
      "anonymous": false,
      "inputs": [
        {
          "indexed": false,
          "internalType": "address",
          "name": "fundAddress",
          "type": "address"
        },
        {
          "indexed": false,
          "internalType": "address",
          "name": "manager",
          "type": "address"
        },
        {
          "indexed": false,
          "internalType": "address",
          "name": "asset",
          "type": "address"
        },
        {
          "indexed": false,
          "internalType": "bool",
          "name": "isDeposit",
          "type": "bool"
        }
      ],
      "name": "AssetRemoved",
      "type": "event"
    },
    {
      "anonymous": false,
      "inputs": [
        {
          "indexed": false,
          "internalType": "uint256",
          "name": "newNumerator",
          "type": "uint256"
        },
        {
          "indexed": false,
          "internalType": "uint256",
          "name": "announcedFeeActivationTime",
          "type": "uint256"
        }
      ],
      "name": "ManagerFeeIncreaseAnnounced",
      "type": "event"
    },
    {
      "anonymous": false,
      "inputs": [],
      "name": "ManagerFeeIncreaseRenounced",
      "type": "event"
    },
    {
      "anonymous": false,
      "inputs": [
        {
          "indexed": false,
          "internalType": "address",
          "name": "fundAddress",
          "type": "address"
        },
        {
          "indexed": false,
          "internalType": "address",
          "name": "manager",
          "type": "address"
        },
        {
          "indexed": false,
          "internalType": "uint256",
          "name": "numerator",
          "type": "uint256"
        },
        {
          "indexed": false,
          "internalType": "uint256",
          "name": "denominator",
          "type": "uint256"
        }
      ],
      "name": "ManagerFeeSet",
      "type": "event"
    },
    {
      "anonymous": false,
      "inputs": [
        {
          "indexed": false,
          "internalType": "address",
          "name": "newManager",
          "type": "address"
        },
        {
          "indexed": false,
          "internalType": "string",
          "name": "newManagerName",
          "type": "string"
        }
      ],
      "name": "ManagerUpdated",
      "type": "event"
    },
    {
      "anonymous": false,
      "inputs": [
        {
          "indexed": false,
          "internalType": "address",
          "name": "poolLogic",
          "type": "address"
        },
        {
          "indexed": false,
          "internalType": "address",
          "name": "from",
          "type": "address"
        }
      ],
      "name": "PoolLogicSet",
      "type": "event"
    },
    {
      "anonymous": false,
      "inputs": [
        {
          "indexed": false,
          "internalType": "address",
          "name": "fundAddress",
          "type": "address"
        },
        {
          "indexed": false,
          "internalType": "address",
          "name": "manager",
          "type": "address"
        },
        {
          "indexed": false,
          "internalType": "uint256",
          "name": "time",
          "type": "uint256"
        }
      ],
      "name": "TransactionExecuted",
      "type": "event"
    },
    {
      "inputs": [
        {
          "internalType": "address",
          "name": "member",
          "type": "address"
        }
      ],
      "name": "addMember",
      "outputs": [],
      "stateMutability": "nonpayable",
      "type": "function"
    },
    {
      "inputs": [
        {
          "internalType": "address[]",
          "name": "members",
          "type": "address[]"
        }
      ],
      "name": "addMembers",
      "outputs": [],
      "stateMutability": "nonpayable",
      "type": "function"
    },
    {
      "inputs": [
        {
          "internalType": "uint256",
          "name": "numerator",
          "type": "uint256"
        }
      ],
      "name": "announceManagerFeeIncrease",
      "outputs": [],
      "stateMutability": "nonpayable",
      "type": "function"
    },
    {
      "inputs": [],
      "name": "announcedFeeIncreaseNumerator",
      "outputs": [
        {
          "internalType": "uint256",
          "name": "",
          "type": "uint256"
        }
      ],
      "stateMutability": "view",
      "type": "function"
    },
    {
      "inputs": [],
      "name": "announcedFeeIncreaseTimestamp",
      "outputs": [
        {
          "internalType": "uint256",
          "name": "",
          "type": "uint256"
        }
      ],
      "stateMutability": "view",
      "type": "function"
    },
    {
      "inputs": [
        {
          "internalType": "address",
          "name": "asset",
          "type": "address"
        }
      ],
      "name": "assetBalance",
      "outputs": [
        {
          "internalType": "uint256",
          "name": "",
          "type": "uint256"
        }
      ],
      "stateMutability": "view",
      "type": "function"
    },
    {
      "inputs": [
        {
          "internalType": "address",
          "name": "",
          "type": "address"
        }
      ],
      "name": "assetPosition",
      "outputs": [
        {
          "internalType": "uint256",
          "name": "",
          "type": "uint256"
        }
      ],
      "stateMutability": "view",
      "type": "function"
    },
    {
      "inputs": [
        {
          "internalType": "address",
          "name": "asset",
          "type": "address"
        },
        {
          "internalType": "uint256",
          "name": "amount",
          "type": "uint256"
        }
      ],
      "name": "assetValue",
      "outputs": [
        {
          "internalType": "uint256",
          "name": "",
          "type": "uint256"
        }
      ],
      "stateMutability": "view",
      "type": "function"
    },
    {
      "inputs": [
        {
          "internalType": "address",
          "name": "asset",
          "type": "address"
        }
      ],
      "name": "assetValue",
      "outputs": [
        {
          "internalType": "uint256",
          "name": "",
          "type": "uint256"
        }
      ],
      "stateMutability": "view",
      "type": "function"
    },
    {
      "inputs": [
        {
          "internalType": "bytes32",
          "name": "c__0x6a082ff4",
          "type": "bytes32"
        }
      ],
      "name": "c_0x6a082ff4",
      "outputs": [],
      "stateMutability": "pure",
      "type": "function"
    },
    {
      "inputs": [
        {
          "internalType": "bytes32",
          "name": "c__0x77bdd477",
          "type": "bytes32"
        }
      ],
      "name": "c_0x77bdd477",
      "outputs": [],
      "stateMutability": "pure",
      "type": "function"
    },
    {
      "inputs": [
        {
          "internalType": "bytes32",
          "name": "c__0x8cd9e52a",
          "type": "bytes32"
        }
      ],
      "name": "c_0x8cd9e52a",
      "outputs": [],
      "stateMutability": "pure",
      "type": "function"
    },
    {
      "inputs": [
        {
          "components": [
            {
              "internalType": "address",
              "name": "asset",
              "type": "address"
            },
            {
              "internalType": "bool",
              "name": "isDeposit",
              "type": "bool"
            }
          ],
          "internalType": "struct IPoolManagerLogic.Asset[]",
          "name": "_addAssets",
          "type": "tuple[]"
        },
        {
          "components": [
            {
              "internalType": "address",
              "name": "asset",
              "type": "address"
            },
            {
              "internalType": "bool",
              "name": "isDeposit",
              "type": "bool"
            }
          ],
          "internalType": "struct IPoolManagerLogic.Asset[]",
          "name": "_removeAssets",
          "type": "tuple[]"
        }
      ],
      "name": "changeAssets",
      "outputs": [],
      "stateMutability": "nonpayable",
      "type": "function"
    },
    {
      "inputs": [
        {
          "internalType": "address",
          "name": "newManager",
          "type": "address"
        },
        {
          "internalType": "string",
          "name": "newManagerName",
          "type": "string"
        }
      ],
      "name": "changeManager",
      "outputs": [],
      "stateMutability": "nonpayable",
      "type": "function"
    },
    {
      "inputs": [],
      "name": "commitManagerFeeIncrease",
      "outputs": [],
      "stateMutability": "nonpayable",
      "type": "function"
    },
    {
      "inputs": [
        {
          "internalType": "bytes32",
          "name": "data",
          "type": "bytes32"
        }
      ],
      "name": "convert32toAddress",
      "outputs": [
        {
          "internalType": "address",
          "name": "o",
          "type": "address"
        }
      ],
      "stateMutability": "pure",
      "type": "function"
    },
    {
      "inputs": [
        {
          "internalType": "address",
          "name": "to",
          "type": "address"
        },
        {
          "internalType": "bytes",
          "name": "data",
          "type": "bytes"
        }
      ],
      "name": "execTransaction",
      "outputs": [
        {
          "internalType": "bool",
          "name": "",
          "type": "bool"
        }
      ],
      "stateMutability": "nonpayable",
      "type": "function"
    },
    {
      "inputs": [],
      "name": "factory",
      "outputs": [
        {
          "internalType": "address",
          "name": "",
          "type": "address"
        }
      ],
      "stateMutability": "view",
      "type": "function"
    },
    {
      "inputs": [
        {
          "internalType": "bytes",
          "name": "data",
          "type": "bytes"
        },
        {
          "internalType": "uint8",
          "name": "inputNum",
          "type": "uint8"
        },
        {
          "internalType": "uint8",
          "name": "arrayIndex",
          "type": "uint8"
        }
      ],
      "name": "getArrayIndex",
      "outputs": [
        {
          "internalType": "bytes32",
          "name": "",
          "type": "bytes32"
        }
      ],
      "stateMutability": "pure",
      "type": "function"
    },
    {
      "inputs": [
        {
          "internalType": "bytes",
          "name": "data",
          "type": "bytes"
        },
        {
          "internalType": "uint8",
          "name": "inputNum",
          "type": "uint8"
        }
      ],
      "name": "getArrayLast",
      "outputs": [
        {
          "internalType": "bytes32",
          "name": "",
          "type": "bytes32"
        }
      ],
      "stateMutability": "pure",
      "type": "function"
    },
    {
      "inputs": [
        {
          "internalType": "bytes",
          "name": "data",
          "type": "bytes"
        },
        {
          "internalType": "uint8",
          "name": "inputNum",
          "type": "uint8"
        }
      ],
      "name": "getArrayLength",
      "outputs": [
        {
          "internalType": "uint256",
          "name": "",
          "type": "uint256"
        }
      ],
      "stateMutability": "pure",
      "type": "function"
    },
    {
      "inputs": [],
      "name": "getFundComposition",
      "outputs": [
        {
          "internalType": "address[]",
          "name": "",
          "type": "address[]"
        },
        {
          "internalType": "uint256[]",
          "name": "",
          "type": "uint256[]"
        },
        {
          "internalType": "uint256[]",
          "name": "",
          "type": "uint256[]"
        }
      ],
      "stateMutability": "view",
      "type": "function"
    },
    {
      "inputs": [
        {
          "internalType": "bytes",
          "name": "data",
          "type": "bytes"
        },
        {
          "internalType": "uint8",
          "name": "inputNum",
          "type": "uint8"
        }
      ],
      "name": "getInput",
      "outputs": [
        {
          "internalType": "bytes32",
          "name": "",
          "type": "bytes32"
        }
      ],
      "stateMutability": "pure",
      "type": "function"
    },
    {
      "inputs": [],
      "name": "getManagerFee",
      "outputs": [
        {
          "internalType": "uint256",
          "name": "",
          "type": "uint256"
        },
        {
          "internalType": "uint256",
          "name": "",
          "type": "uint256"
        }
      ],
      "stateMutability": "view",
      "type": "function"
    },
    {
      "inputs": [],
      "name": "getManagerFeeIncreaseInfo",
      "outputs": [
        {
          "internalType": "uint256",
          "name": "",
          "type": "uint256"
        },
        {
          "internalType": "uint256",
          "name": "",
          "type": "uint256"
        }
      ],
      "stateMutability": "view",
      "type": "function"
    },
    {
      "inputs": [],
      "name": "getMembers",
      "outputs": [
        {
          "internalType": "address[]",
          "name": "",
          "type": "address[]"
        }
      ],
      "stateMutability": "view",
      "type": "function"
    },
    {
      "inputs": [
        {
          "internalType": "bytes",
          "name": "data",
          "type": "bytes"
        }
      ],
      "name": "getMethod",
      "outputs": [
        {
          "internalType": "bytes4",
          "name": "",
          "type": "bytes4"
        }
      ],
      "stateMutability": "pure",
      "type": "function"
    },
    {
      "inputs": [],
      "name": "getSupportedAssets",
      "outputs": [
        {
          "internalType": "address[]",
          "name": "",
          "type": "address[]"
        }
      ],
      "stateMutability": "view",
      "type": "function"
    },
    {
      "inputs": [
        {
          "internalType": "address",
          "name": "_factory",
          "type": "address"
        },
        {
          "internalType": "address",
          "name": "_manager",
          "type": "address"
        },
        {
          "internalType": "string",
          "name": "_managerName",
          "type": "string"
        },
        {
          "components": [
            {
              "internalType": "address",
              "name": "asset",
              "type": "address"
            },
            {
              "internalType": "bool",
              "name": "isDeposit",
              "type": "bool"
            }
          ],
          "internalType": "struct IPoolManagerLogic.Asset[]",
          "name": "_supportedAssets",
          "type": "tuple[]"
        }
      ],
      "name": "initialize",
      "outputs": [],
      "stateMutability": "nonpayable",
      "type": "function"
    },
    {
      "inputs": [
        {
          "internalType": "address",
          "name": "asset",
          "type": "address"
        }
      ],
      "name": "isDepositAsset",
      "outputs": [
        {
          "internalType": "bool",
          "name": "",
          "type": "bool"
        }
      ],
      "stateMutability": "view",
      "type": "function"
    },
    {
      "inputs": [
        {
          "internalType": "address",
          "name": "member",
          "type": "address"
        }
      ],
      "name": "isMemberAllowed",
      "outputs": [
        {
          "internalType": "bool",
          "name": "",
          "type": "bool"
        }
      ],
      "stateMutability": "view",
      "type": "function"
    },
    {
      "inputs": [
        {
          "internalType": "address",
          "name": "asset",
          "type": "address"
        }
      ],
      "name": "isSupportedAsset",
      "outputs": [
        {
          "internalType": "bool",
          "name": "",
          "type": "bool"
        }
      ],
      "stateMutability": "view",
      "type": "function"
    },
    {
      "inputs": [],
      "name": "manager",
      "outputs": [
        {
          "internalType": "address",
          "name": "",
          "type": "address"
        }
      ],
      "stateMutability": "view",
      "type": "function"
    },
    {
      "inputs": [],
      "name": "managerName",
      "outputs": [
        {
          "internalType": "string",
          "name": "",
          "type": "string"
        }
      ],
      "stateMutability": "view",
      "type": "function"
    },
    {
      "inputs": [],
      "name": "numberOfDepositAssets",
      "outputs": [
        {
          "internalType": "uint256",
          "name": "",
          "type": "uint256"
        }
      ],
      "stateMutability": "view",
      "type": "function"
    },
    {
      "inputs": [],
      "name": "numberOfMembers",
      "outputs": [
        {
          "internalType": "uint256",
          "name": "",
          "type": "uint256"
        }
      ],
      "stateMutability": "view",
      "type": "function"
    },
    {
      "inputs": [],
      "name": "numberOfSupportedAssets",
      "outputs": [
        {
          "internalType": "uint256",
          "name": "",
          "type": "uint256"
        }
      ],
      "stateMutability": "view",
      "type": "function"
    },
    {
      "inputs": [],
      "name": "poolLogic",
      "outputs": [
        {
          "internalType": "address",
          "name": "",
          "type": "address"
        }
      ],
      "stateMutability": "view",
      "type": "function"
    },
    {
      "inputs": [
        {
          "internalType": "bytes",
          "name": "data",
          "type": "bytes"
        },
        {
          "internalType": "uint256",
          "name": "offset",
          "type": "uint256"
        },
        {
          "internalType": "uint256",
          "name": "length",
          "type": "uint256"
        }
      ],
      "name": "read32",
      "outputs": [
        {
          "internalType": "bytes32",
          "name": "o",
          "type": "bytes32"
        }
      ],
      "stateMutability": "pure",
      "type": "function"
    },
    {
      "inputs": [
        {
          "internalType": "bytes",
          "name": "data",
          "type": "bytes"
        },
        {
          "internalType": "uint256",
          "name": "offset",
          "type": "uint256"
        },
        {
          "internalType": "uint256",
          "name": "length",
          "type": "uint256"
        }
      ],
      "name": "read4left",
      "outputs": [
        {
          "internalType": "bytes4",
          "name": "o",
          "type": "bytes4"
        }
      ],
      "stateMutability": "pure",
      "type": "function"
    },
    {
      "inputs": [
        {
          "internalType": "address",
          "name": "member",
          "type": "address"
        }
      ],
      "name": "removeMember",
      "outputs": [],
      "stateMutability": "nonpayable",
      "type": "function"
    },
    {
      "inputs": [
        {
          "internalType": "address[]",
          "name": "members",
          "type": "address[]"
        }
      ],
      "name": "removeMembers",
      "outputs": [],
      "stateMutability": "nonpayable",
      "type": "function"
    },
    {
      "inputs": [],
      "name": "removeTrader",
      "outputs": [],
      "stateMutability": "nonpayable",
      "type": "function"
    },
    {
      "inputs": [],
      "name": "renounceManagerFeeIncrease",
      "outputs": [],
      "stateMutability": "nonpayable",
      "type": "function"
    },
    {
      "inputs": [
        {
          "internalType": "address",
          "name": "_poolLogic",
          "type": "address"
        }
      ],
      "name": "setPoolLogic",
      "outputs": [
        {
          "internalType": "bool",
          "name": "",
          "type": "bool"
        }
      ],
      "stateMutability": "nonpayable",
      "type": "function"
    },
    {
      "inputs": [
        {
          "internalType": "address",
          "name": "newTrader",
          "type": "address"
        }
      ],
      "name": "setTrader",
      "outputs": [],
      "stateMutability": "nonpayable",
      "type": "function"
    },
    {
      "inputs": [
        {
          "internalType": "uint256",
          "name": "",
          "type": "uint256"
        }
      ],
      "name": "supportedAssets",
      "outputs": [
        {
          "internalType": "address",
          "name": "asset",
          "type": "address"
        },
        {
          "internalType": "bool",
          "name": "isDeposit",
          "type": "bool"
        }
      ],
      "stateMutability": "view",
      "type": "function"
    },
    {
      "inputs": [],
      "name": "trader",
      "outputs": [
        {
          "internalType": "address",
          "name": "",
          "type": "address"
        }
      ],
      "stateMutability": "view",
      "type": "function"
    },
    {
      "inputs": [
        {
          "internalType": "address",
          "name": "asset",
          "type": "address"
        }
      ],
      "name": "validateAsset",
      "outputs": [
        {
          "internalType": "bool",
          "name": "",
          "type": "bool"
        }
      ],
      "stateMutability": "view",
      "type": "function"
    }
  ],
  "bytecode": "0x60806040523480156200001157600080fd5b5061a5b080620000226000396000f3fe608060405234801561001057600080fd5b50600436106102bb5760003560e01c806382f86acc11610182578063bdbef07d116100e9578063d8af8ed4116100a2578063e5406dbf1161007c578063e5406dbf1461090a578063ed5b165d14610928578063f09d14d714610947578063fed4416a14610967576102bb565b8063d8af8ed41461088e578063db896b57146108be578063e47d2e07146108ee576102bb565b8063bdbef07d14610793578063c3c6279f146107c3578063c45a0155146107f3578063c68dbb3714610811578063ca6d56dc14610842578063cd88e5581461085e576102bb565b80639be918e61161013b5780639be918e6146106d15780639eab525314610701578063a30e3fa91461071f578063a6bc18f91461073d578063b8bd81e614610759578063bbbf725b14610763576102bb565b806382f86acc146105d55780638e10153d146106055780638f323439146106355780639240d29914610653578063936553c414610683578063998546e3146106a1576102bb565b806346ee84b0116102265780636e890f3c116101df5780636e890f3c1461053b5780636f4d469b1461054557806372260e0f146105615780637ae7cfb51461057d5780637b4d0c63146105ad5780637c8afd51146105cb576102bb565b806346ee84b01461047b578063481c6a751461049757806352213663146104b557806353f064c9146104d1578063568b5a2f146104ed5780635cd50e481461051d576102bb565b80631eba3077116102785780631eba30771461038157806322cedfc3146103b157806329c07fba146103cd57806339b81fd9146103fd5780633c570d7d1461041b57806341dc16c31461044b576102bb565b806307f83a5f146102c057806309ff5c7d146102dc5780630b1ca49a1461030c578063147bf0be146103285780631758078b146103445780631980553814610362575b600080fd5b6102da60048036038101906102d59190619254565b610985565b005b6102f660048036038101906102f19190619325565b610988565b6040516103039190619f0d565b60405180910390f35b61032660048036038101906103219190618fb5565b610c06565b005b610342600480360381019061033d9190619007565b610f1d565b005b61034c6111e4565b6040516103599190619ccd565b60405180910390f35b61036a611292565b60405161037892919061a240565b60405180910390f35b61039b60048036038101906103969190619254565b6113ed565b6040516103a89190619ccd565b60405180910390f35b6103cb60048036038101906103c69190619254565b61147e565b005b6103e760048036038101906103e29190619142565b611481565b6040516103f4919061a225565b60405180910390f35b61040561171d565b6040516104129190619ccd565b60405180910390f35b61043560048036038101906104309190618fb5565b611743565b604051610442919061a225565b60405180910390f35b61046560048036038101906104609190619379565b61175b565b6040516104729190619f0d565b60405180910390f35b6104956004803603810190610490919061917e565b611ad5565b005b61049f611e58565b6040516104ac9190619ccd565b60405180910390f35b6104cf60048036038101906104ca91906190ee565b611f06565b005b6104eb60048036038101906104e691906193e0565b612267565b005b610507600480360381019061050291906192be565b612a91565b6040516105149190619f28565b60405180910390f35b610525612c08565b604051610532919061a225565b60405180910390f35b610543612ebc565b005b61055f600480360381019061055a919061917e565b61329a565b005b61057b600480360381019061057691906191bf565b61361e565b005b6105976004803603810190610592919061909a565b6138a0565b6040516105a49190619ef2565b60405180910390f35b6105b561425d565b6040516105c2919061a225565b60405180910390f35b6105d3614263565b005b6105ef60048036038101906105ea9190619325565b6144c3565b6040516105fc9190619f0d565b60405180910390f35b61061f600480360381019061061a9190618fb5565b614566565b60405161062c9190619ef2565b60405180910390f35b61063d614acf565b60405161064a919061a225565b60405180910390f35b61066d60048036038101906106689190618fb5565b614ad5565b60405161067a9190619ef2565b60405180910390f35b61068b614c0d565b604051610698919061a225565b60405180910390f35b6106bb60048036038101906106b69190619325565b614c9d565b6040516106c8919061a225565b60405180910390f35b6106eb60048036038101906106e69190618fb5565b614db2565b6040516106f89190619ef2565b60405180910390f35b610709614e83565b6040516107169190619e84565b60405180910390f35b610727614f95565b604051610734919061a225565b60405180910390f35b61075760048036038101906107529190618fb5565b615026565b005b610761615286565b005b61077d60048036038101906107789190618fb5565b615590565b60405161078a9190619ef2565b60405180910390f35b6107ad60048036038101906107a89190618fb5565b615661565b6040516107ba9190619ef2565b60405180910390f35b6107dd60048036038101906107d8919061927d565b615884565b6040516107ea9190619f28565b60405180910390f35b6107fb61591e565b6040516108089190619ccd565b60405180910390f35b61082b600480360381019061082691906193e0565b615944565b604051610839929190619dd2565b60405180910390f35b61085c60048036038101906108579190618fb5565b61599e565b005b61087860048036038101906108739190618fb5565b615cb6565b604051610885919061a225565b60405180910390f35b6108a860048036038101906108a39190618fb5565b615dee565b6040516108b5919061a225565b60405180910390f35b6108d860048036038101906108d391906192be565b615e8d565b6040516108e59190619f0d565b60405180910390f35b61090860048036038101906109039190619254565b616004565b005b610912616007565b60405161091f9190619e84565b60405180910390f35b6109306162ed565b60405161093e92919061a240565b60405180910390f35b61094f616382565b60405161095e93929190619ea6565b60405180910390f35b61096f6169a4565b60405161097c9190619f43565b60405180910390f35b50565b60006109b67f081d82e52646f30f5f6ba661c9f8640c9cd57ce66a80a3e2a8d58ce5bb27187060001b61147e565b6109e27f09f957c21d0e9b2ec1b121684a6e7f5ac4edd73009cb6079362e23cfddf9a9c860001b61147e565b610a0e7f3c18b9a50414e713d6d2d9fb3d8f35382b5efbbdea88daeb0918feace849715760001b61147e565b6000610a25846004856020020160ff166020615e8d565b9050610a537fef8d397263c2655f4ccf2b9be363e978048ff824160884a4bcae49615516e10d60001b61147e565b610a7f7f74a724fe8f5378a48c6199852895f5901086e6334857b36d1bfda6debb52ec2e60001b61147e565b6000610a938560048460001c016020615e8d565b9050610ac17f9a780319db2dc6e6b23ada0024cb7abdcb735d784ab162fd4df358f7790083e560001b61147e565b610aed7feacef85564e6b6c37c507951170fc255c4d3d5c96436eac08483236950ea824b60001b61147e565b610b197f82a785437fd1ca4984c1c85dd77a837b42b49b0eb13b373e6e257c6c09fbd61f60001b61147e565b6000801b8111610b5e576040517f08c379a0000000000000000000000000000000000000000000000000000000008152600401610b559061a1a5565b60405180910390fd5b610b8a7fe43217671634e3774905c2565f4e5137f7fe504fa68fccc06bbf3e58eb71b66160001b61147e565b610bb67f1b4b6c92de0ca738f0a984667b3c9678d804cdd2f47c17e91f52d7c5f051c41560001b61147e565b610be27f09314e957efbeec867fd49fc3e7f5899b2d95ad68a6b5badee8d98784fd97f4460001b61147e565b610bfc8560208360001c0260048560001c01016020615e8d565b9250505092915050565b610c327ff726fc88418c0a3484479f3aad53d8027d0e2163703da4e11695846a8ecf323960001b610985565b610c5e7f684725bd78b70c3fb2cf13b500bfd22c1cd461220ef6c85b59f31f1043c5de1f60001b610985565b610c8a7f66ea293273b42d90ad1edbe377e4882daf414bd29b0dcec70a1119a20e4da60760001b610985565b610cb67fbba45401a87b3041ecdfeb8ba6cdf9dec1a86b5dc1ad9312274f3d920df5ec4460001b610985565b603360009054906101000a900473ffffffffffffffffffffffffffffffffffffffff1673ffffffffffffffffffffffffffffffffffffffff163373ffffffffffffffffffffffffffffffffffffffff1614610d46576040517f08c379a0000000000000000000000000000000000000000000000000000000008152600401610d3d9061a005565b60405180910390fd5b610d727fe84730383f7e358d6eb5424a73f82ebabefe25dbfc6cacd9a33efe47980ed6a060001b610985565b610d9e7f1e8080af53826ea93c0834314df776ac304bf425dcb83719abb60873fded05d360001b610985565b610dca7fea1757305949ed706951fb794bd2551514c6efdb2d7679c5d85b078142ffe2b260001b610985565b610df67f1ffc6b134d15c295e5f995b3f82b5a0cb18ad84f314a2d960c81c8d81184722e60001b610985565b610e227f3c92deefafc01aaaabda23cc392d833acabe18b8cb00e63048de8ce6998a50d160001b610985565b610e2b81615590565b610e8c57610e5b7fe426072b40d42570f2a371006c4849244b036fcfab927292797340fc1dfd4f2860001b610985565b610e877fa87fcaab10e3f72cae704058c7741c3c14bf2347c4ed9f4cf29e77c38f1fd7ec60001b610985565b610f1a565b610eb87fb95ad00e9df5485a45b440c3dbdda7a5c12dc7d5b9a67813420d09bea2d0d5e360001b610985565b610ee47fd6dd051f93c0416ce28a333b5248bf159f01391c2d334ad25964076d30e5c14f60001b610985565b610f107fb71ec9708481e1cb8db1808117b3292284c7507d570cf24576d2cc1110d10c0760001b610985565b610f1981616aca565b5b50565b600060019054906101000a900460ff1680610f3c5750610f3b616f46565b5b80610f52575060008054906101000a900460ff16155b610f91576040517f08c379a0000000000000000000000000000000000000000000000000000000008152600401610f889061a145565b60405180910390fd5b60008060019054906101000a900460ff161590508015610fe1576001600060016101000a81548160ff02191690831515021790555060016000806101000a81548160ff0219169083151502179055505b61100d7f4fe11b46413b043105d80e62d850f8f1d8ebaad6ba020d45f805c4e62ed16ab360001b616004565b6110397f34982f93521da2679e829a32b243e14a0ea8c59f0b0dab317cef263a23686a3160001b616004565b6110657f6353081282e7c9a4d4563c9b85b0eb80ee2350df799b3cfce7a03c4eec3b24d560001b616004565b61106f8484616f5d565b61109b7f219f559a3983b7e6318dc55a5e67b08fe107d4ff909d70ac36d8343b085357fc60001b616004565b6110c77f8a1df9a28f6de8ca44a5e16065b3f42adee80bab44e8a8f7358608de215020b260001b616004565b84603860006101000a81548173ffffffffffffffffffffffffffffffffffffffff021916908373ffffffffffffffffffffffffffffffffffffffff1602179055506111347f6db0fdcc49bd602b9c88494b1cc682265556662514226c7efa9824d7ca3fcf2260001b616004565b6111607f9d79c14d2bba45be4aa024f5cfdc91dd7b7f7e77c1f760f5d5e15e47cab69e3060001b616004565b6111bc82600067ffffffffffffffff8111801561117c57600080fd5b506040519080825280602002602001820160405280156111b657816020015b6111a3618c2f565b81526020019060019003908161119b5790505b50617095565b80156111dd5760008060016101000a81548160ff0219169083151502179055505b5050505050565b60006112127f3aca4bfed5bca6bb4a7952d9916be14f80d41a88cb22b235f78122ad6e4440d360001b610985565b61123e7f0d2afb8ca427495817d996651401041f2a8ab28d5256db0743a91af8ea8627ed60001b610985565b61126a7f6d976131b13215f2dcfb2c190b142557b0a055ae766dec008e5ce2e06a5903fc60001b610985565b603760009054906101000a900473ffffffffffffffffffffffffffffffffffffffff16905090565b6000806112c17fd9b3af2248ce225cc55a3e10a891b607ce8cef32c0954f62f3635af88602bcc560001b616004565b6112ed7f8ace458d173f0b661858e4e314f6537f64d068449704c3482e488ab657197c5a60001b616004565b6113197f3449d38808554d6d6a37017c0e5961042b53d78cf24cb0a15461c038d6ad23f560001b616004565b603860009054906101000a900473ffffffffffffffffffffffffffffffffffffffff1673ffffffffffffffffffffffffffffffffffffffff1663b7a54526603960009054906101000a900473ffffffffffffffffffffffffffffffffffffffff166040518263ffffffff1660e01b81526004016113969190619ccd565b604080518083038186803b1580156113ad57600080fd5b505afa1580156113c1573d6000803e3d6000fd5b505050506040513d601f19601f820116820180604052508101906113e59190619432565b915091509091565b600061141b7f746ad3681a882d643153db78e530a3c3631a70addf1fa2b3fb00e7c9e006155c60001b61147e565b6114477fdc74b4c260b28f73b6b9660be3d6c8df22d3969ef9bce7b2d804a0268404b7cd60001b61147e565b6114737f72b1c589190589f7b6b45bf4a6392802affc2e6b2798209520a0a75ef72c092560001b61147e565b8160001c9050919050565b50565b60006114af7f40208f26e8f8dada28766f5e7a22a18aaeafa94c387f582a2b2ac0f8e480c27f60001b616004565b6114db7f994ba6ba22c746bb7f6f1f67e73da419487148c2766ee732ae086483a975478760001b616004565b6115077fd41bb0a14b32ada7c782ee26bcd4e37f0c342b375311dd019f8246932d71937d60001b616004565b6000603860009054906101000a900473ffffffffffffffffffffffffffffffffffffffff1673ffffffffffffffffffffffffffffffffffffffff16638b2f0f4f856040518263ffffffff1660e01b81526004016115649190619ccd565b60206040518083038186803b15801561157c57600080fd5b505afa158015611590573d6000803e3d6000fd5b505050506040513d601f19601f820116820180604052508101906115b49190619409565b90506115e27f90ab4b799f717bf6408e67b77ce76a4b62c3c8f5fc5aac7fe641ee74176f579a60001b616004565b61160e7f1d8da651be16463545a239e6cf9106a8311791917d4446b2f5561c96a418742260001b616004565b60008473ffffffffffffffffffffffffffffffffffffffff1663313ce5676040518163ffffffff1660e01b815260040160206040518083038186803b15801561165657600080fd5b505afa15801561166a573d6000803e3d6000fd5b505050506040513d601f19601f8201168201806040525081019061168e919061946e565b60ff1690506116bf7f93bda4fcd0d7a0f12076fec87a8eb33fb565e64da03e69db6bc30f9293c98bfc60001b616004565b6116eb7f4f6682842944d35b0af550bf39305306a983ae39eaf03700c160bd44673501c760001b616004565b61171381600a0a611705868561752e90919063ffffffff16565b61759e90919063ffffffff16565b9250505092915050565b603960009054906101000a900473ffffffffffffffffffffffffffffffffffffffff1681565b603b6020528060005260406000206000915090505481565b60006117897f0d2edb964b9e832488b09b10132df8eae74acfc0fc4ef7f9d17163fc2e452a2e60001b61147e565b6117b57fec59aeec3a522e44409f61c0fa70319cf1bf4918e86c015c6bd7fd77cfc1ae9360001b61147e565b6117e17fb4266cc8b2adcdafb3172be707d2eee0716530e37ad5d9f5e65f6c7babc7809d60001b61147e565b60006117f8856004866020020160ff166020615e8d565b90506118267f1f2b2786ee9ec18f24b6ccdcc72ade656a4dd4d847db4a80de9458d5dc44c09060001b61147e565b6118527fb00c56757dd8ec9f02b936996a334928b1ef6f3435c2ba9dbd5d9dc89c70070760001b61147e565b60006118668660048460001c016020615e8d565b90506118947f0561a5eddc039c0aeec1e8962165d9d1f98f95ff176cb1da7911da2d15fc68e160001b61147e565b6118c07f2975ca5dd6258a561f9086915a438ad03ff8d21b085793774c29b6f109905d5660001b61147e565b6118ec7fe202a0fe1a62fce1431754f635daf3f1e6bc0f9c3ebc648471c03244a4f8700960001b61147e565b6000801b8111611931576040517f08c379a00000000000000000000000000000000000000000000000000000000081526004016119289061a1a5565b60405180910390fd5b61195d7f1e785ed06ba7037d73973307b033d65e2f824f9cc0fcf912d8380dd82538492160001b61147e565b6119897f6ef73466323634ac0f371519fc18548657fcc76f8d0c3ccddbf7468adf89774960001b61147e565b6119b57f2a303905ffb4cda24ed31526b4f963ad1b91bfadec5c8ed2ca40b29c472ed13660001b61147e565b6119e17ffca3600df76533b6d8f4c84af3473e45313d07b1b4d815f512d23d58304c6ed960001b61147e565b8360ff168160001c11611a29576040517f08c379a0000000000000000000000000000000000000000000000000000000008152600401611a2090619f65565b60405180910390fd5b611a557f551e68dba562f6faa3974de6be47a00ae8ddb4d4165ba52d68af2ba1a833bfe360001b61147e565b611a817f4286efa5281a1ee99db835a134f746afbaf3d0fcc3672421febb6a2e4a400a4e60001b61147e565b611aad7f5af5a9ef45989c8affc392d2d5d0df701f283a3b0e79d53d1135f03c8d9d5d5e60001b61147e565b611aca8660208660ff166001010260048560001c01016020615e8d565b925050509392505050565b611b017ff726fc88418c0a3484479f3aad53d8027d0e2163703da4e11695846a8ecf323960001b610985565b611b2d7f684725bd78b70c3fb2cf13b500bfd22c1cd461220ef6c85b59f31f1043c5de1f60001b610985565b611b597f66ea293273b42d90ad1edbe377e4882daf414bd29b0dcec70a1119a20e4da60760001b610985565b611b857fbba45401a87b3041ecdfeb8ba6cdf9dec1a86b5dc1ad9312274f3d920df5ec4460001b610985565b603360009054906101000a900473ffffffffffffffffffffffffffffffffffffffff1673ffffffffffffffffffffffffffffffffffffffff163373ffffffffffffffffffffffffffffffffffffffff1614611c15576040517f08c379a0000000000000000000000000000000000000000000000000000000008152600401611c0c9061a005565b60405180910390fd5b611c417fe84730383f7e358d6eb5424a73f82ebabefe25dbfc6cacd9a33efe47980ed6a060001b610985565b611c6d7f1e8080af53826ea93c0834314df776ac304bf425dcb83719abb60873fded05d360001b610985565b611c997fc6d07b0e83c40b72565fd3474fca46c407f6de8c82037d955827819ab972195260001b610985565b611cc57f26769fe5ebee2b76e34a63895ab43d409672ad60d9b2755c7de02300820208ed60001b610985565b611cf17f4d8cfa7afb76b08a12448582f35c146769f30bdd1d5db7c143c2befb31bca2a660001b610985565b60005b8151811015611e5457611d297f7ea9cc9b523311f807b540bd8e9e396ae855b639cde9a015207f324636c69fe160001b610985565b611d557f01617bcb9958929a8467a5175123be7b9691af9514194a67b05c29563283893d60001b610985565b611d71828281518110611d6457fe5b6020026020010151615590565b611da657611da17f82c7c45be74131f8e447c732657e121e77b9532aa09134f13eb7470fd7501e4f60001b610985565b611e47565b611dd27f89a08829e0370111a9a3a659be41f5857cf43cfbb23e711c5855b4c7da2fe67860001b610985565b611dfe7fad00ecdc0b3b8746773d999187984e71c22bff6ec0a2c10dfe65f023ddb95e0b60001b610985565b611e2a7fbc65408770e0bc90d5f74397619a31b62c42c12ae3d25d3cfdaaf6a116352a0060001b610985565b611e46828281518110611e3957fe5b6020026020010151616aca565b5b8080600101915050611cf4565b5050565b6000611e867fde4bef5b1a10104dfb102cbba245db1187511edcfe701d03a84f93e19528fd5760001b610985565b611eb27f9a03cddc5c815574fd1412424527aa1728a2f941a016da83fbe4746b459c0bcc60001b610985565b611ede7f652db2c58b82533a98d3829c46f05f55a14d070a33fbdb20e662bb3c22e8649360001b610985565b603360009054906101000a900473ffffffffffffffffffffffffffffffffffffffff16905090565b611f327ff726fc88418c0a3484479f3aad53d8027d0e2163703da4e11695846a8ecf323960001b610985565b611f5e7f684725bd78b70c3fb2cf13b500bfd22c1cd461220ef6c85b59f31f1043c5de1f60001b610985565b611f8a7f66ea293273b42d90ad1edbe377e4882daf414bd29b0dcec70a1119a20e4da60760001b610985565b611fb67fbba45401a87b3041ecdfeb8ba6cdf9dec1a86b5dc1ad9312274f3d920df5ec4460001b610985565b603360009054906101000a900473ffffffffffffffffffffffffffffffffffffffff1673ffffffffffffffffffffffffffffffffffffffff163373ffffffffffffffffffffffffffffffffffffffff1614612046576040517f08c379a000000000000000000000000000000000000000000000000000000000815260040161203d9061a005565b60405180910390fd5b6120727fe84730383f7e358d6eb5424a73f82ebabefe25dbfc6cacd9a33efe47980ed6a060001b610985565b61209e7f1e8080af53826ea93c0834314df776ac304bf425dcb83719abb60873fded05d360001b610985565b6120ca7f05ee09d98595e06fc5a4608c638f04358e61e9d181a59179d2f93069b2117fac60001b610985565b6120f67fb4833cbd64d89313613117a4fc34fce0f62e7bfd670ee93da9aba1ee1ee4586d60001b610985565b6121227f2d88291758d54b6773dec5516b3661c137bfc881a2a9608292cbf832b3260c2860001b610985565b81603360006101000a81548173ffffffffffffffffffffffffffffffffffffffff021916908373ffffffffffffffffffffffffffffffffffffffff16021790555061218f7f774972c16bfebd604693d0392cbf1007b58033d47e3ff75ae5d03fcf1a073fef60001b610985565b6121bb7f1697602808093fbbac294b5c863fdb742a5d480c4016c073e99d70b9e999ce0460001b610985565b80603490805190602001906121d1929190618c61565b506121fe7fc5759183963137b34820ce6561b6912e6acd940bcfc29dc1306bf55a68e8b3cb60001b610985565b61222a7f37ecb20db872e47571ee95480fabf4fb5cef32145934449f070cea721eeb698660001b610985565b7f6ed15082ad038474841528b5badca105106d4463e44b5d434130dfb299aa3669828260405161225b929190619e2b565b60405180910390a15050565b6122937ff726fc88418c0a3484479f3aad53d8027d0e2163703da4e11695846a8ecf323960001b610985565b6122bf7f684725bd78b70c3fb2cf13b500bfd22c1cd461220ef6c85b59f31f1043c5de1f60001b610985565b6122eb7f66ea293273b42d90ad1edbe377e4882daf414bd29b0dcec70a1119a20e4da60760001b610985565b6123177fbba45401a87b3041ecdfeb8ba6cdf9dec1a86b5dc1ad9312274f3d920df5ec4460001b610985565b603360009054906101000a900473ffffffffffffffffffffffffffffffffffffffff1673ffffffffffffffffffffffffffffffffffffffff163373ffffffffffffffffffffffffffffffffffffffff16146123a7576040517f08c379a000000000000000000000000000000000000000000000000000000000815260040161239e9061a005565b60405180910390fd5b6123d37fe84730383f7e358d6eb5424a73f82ebabefe25dbfc6cacd9a33efe47980ed6a060001b610985565b6123ff7f1e8080af53826ea93c0834314df776ac304bf425dcb83719abb60873fded05d360001b610985565b61242b7f35c1e9cc1199f2200d42143b1301cd36e22bb67856a637d81416be64eea3c39160001b616004565b6124577f7c5ed2051f2e8d2cdd1c28fcc1022795a9c413873ead031205caae4a56f1c0ce60001b616004565b6124837f96d77a18c27cfdad838712b23fa030639534b43602dac765a890ee0063c53d7e60001b616004565b6000603860009054906101000a900473ffffffffffffffffffffffffffffffffffffffff1673ffffffffffffffffffffffffffffffffffffffff16635c9bfc2b6040518163ffffffff1660e01b815260040160206040518083038186803b1580156124ed57600080fd5b505afa158015612501573d6000803e3d6000fd5b505050506040513d601f19601f820116820180604052508101906125259190619409565b90506125537f7b287b8e9b874a2d30c2de7fb90c019a2f2af8e61cd5e538e39b1c41f1cc8a7a60001b616004565b61257f7f63e0b714fc2a60675a74a095355a3842de9f9a5c7179d3d475c692f7bf933b3460001b616004565b60006125ad7f438dddc08b33477b5bbd5e2dd648ee46ead20bc61f191afa254c5bfe8e7b5f1f60001b616004565b6125d97fa4cf39947f8603f6578e885f1e87b75ef5f618a188a13607b4c72dbd4d06030b60001b616004565b60006126077f53e1c945940b14a78d3603516084c49ee62625454527edc8cebe5cbedea6b3e260001b616004565b6126337f0362981071754076d7bbbe283441f20ac41892884b98788142a603693b5405a260001b616004565b61263b611292565b809250819350505061266f7f20d8de1b1713804aa6e9cd965b2b34f28ef26e5b32f71281476a20511aa6f95e60001b616004565b61269b7f606775ce780b4f94b0f0d41bfb9e8d6160442b9460756efa6147a859e416962a60001b616004565b6126c77f13140dcc378f12c926a2b4134e3d089c0916981152a6247a7efdd87000938b1d60001b616004565b8084111561270a576040517f08c379a00000000000000000000000000000000000000000000000000000000081526004016127019061a0a5565b60405180910390fd5b6127367f7a338854fc80b99692c73e4b9ce638bca98d3c67adb5c6e4d6bbcb04c296605560001b616004565b6127627f18c1bd354a10a5ff35c544f48b12cdbe876be7260f334dd5a1c9b3a6ca79b79760001b616004565b61278e7fe4fbfa09ad66d3480fba84544da1b5bd55fc3792006422d9c8de5e6b25efcc0a60001b616004565b6127ba7f836abf34515ae1627df7cd42bcf8649d36dce8a387598956eb12c04fd577dd6a60001b616004565b6127cd83836175e890919063ffffffff16565b84111561280f576040517f08c379a00000000000000000000000000000000000000000000000000000000081526004016128069061a185565b60405180910390fd5b61283b7f064690c6286ea8deaf0b63ed93f8e16c8496e8091fb6d2d973f67145d79328d360001b616004565b6128677f94fcd0758f7344abd9109ce09fe93c322a11881a65ca501e39db9400c2f0d82b60001b616004565b6128937f2425633fa874e1876077f9975ef0e086040eb16aa748d250b1cc9cbc2631f6cd60001b616004565b6000603860009054906101000a900473ffffffffffffffffffffffffffffffffffffffff1673ffffffffffffffffffffffffffffffffffffffff1663ebee461d6040518163ffffffff1660e01b815260040160206040518083038186803b1580156128fd57600080fd5b505afa158015612911573d6000803e3d6000fd5b505050506040513d601f19601f820116820180604052508101906129359190619409565b90506129637fe395fb36d33f618fbb953476c12e83719f2b26ac548ecafe16fe8f6ceeffd85960001b616004565b61298f7fdcf4ea0bc531eb60c80d95343d76bf7e41bc054315f91a8eef00387d0dbe48e860001b616004565b84603c819055506129c27f941e05c000595bb4aa7058df78b8f8c5700468ca092eb7cf5d148783323b944260001b616004565b6129ee7f41dae3a67069262cf764fe5774c8ba4dd0743ac86f9ee9a1cb78833fbdb3e47660001b616004565b804201603d81905550612a237f6b97e0c90ce5911aa039998c9fdfbbc1dfc8a3e4dffc42707102e93f7e2de89660001b616004565b612a4f7f86370c6e53186843870fb62640f1824b14661ff19b9759c77282d1de31a5a6e160001b616004565b7f4db9119741646c419f1ceccdf112b5b9a9b4516355e742e1fa9c479f4dec98da85603d54604051612a8292919061a240565b60405180910390a15050505050565b6000612abf7fd6c6dbfd4bf36b156af386725ee599a07a7fc0502d86558792f32d90271a5e9e60001b61147e565b612aeb7f0df76cc601986d069b64699d8ff4fb99fcbc1b9e4220f157da3fd86e163df1dd60001b61147e565b612b177f74f9c4c8d25560321ca7a58042227880f04c2c9c527d041bc89b76e7bbdf6cdc60001b61147e565b612b437f9d0a02e3e973d364b485ed97415c4bc7224e29a836b070d88d00c4291d80398260001b61147e565b81830184511015612b89576040517f08c379a0000000000000000000000000000000000000000000000000000000008152600401612b809061a0c5565b60405180910390fd5b612bb57f811b5aac9a857ab8c7cd87ee345761773d2b9d61f70042d22951c307ea4c065a60001b61147e565b612be17ffd285ebeb1be2f9b4fb9556de5470780f301ad863061c4de10d0104d490e25c360001b61147e565b826020018401519050816004038015612c00576008810260020a820491505b509392505050565b6000612c367f4ea6bcccf62bebe8b8504fa26ba5b11f6158da01f43822247a89c9c9077acc3060001b616004565b612c627fcccabf2595ba06367590f8f07f79115de7878719def2c2caaf89d0d1f85eb5cf60001b616004565b612c8e7ffaf5da97d5dfed8496ebbdb9ee23869b141eb0e251af5dab54b4222b3322484e60001b616004565b6000612cbc7f8a22b538c96c481cb98dd460624aef04b5d157624120da0e508dc9d35d6f509660001b616004565b612ce87f29f9fc6cf84576c2fb55c6e69a4aeeebaffbd621a0d206e0404731262687d9c960001b616004565b60005b603a805490508160ff161015612e5c57612d277f6ef3f10143a1690be4e04e5f89d9d50479ad6c808ff30e940a975036986086bf60001b616004565b612d537f297ea3a2ad46089dd9f75dc41e2e25fa807787b58eb2bb811be15c3c8eca854b60001b616004565b603a8160ff1681548110612d6357fe5b9060005260206000200160000160149054906101000a900460ff1615612e2257612daf7fa28cf4da2e1685952b48b67fc6f16d39107b35c595c293f0001791bea27fe43860001b616004565b612ddb7fbe679059e38cbd390ce1ed71f69bea4742b911bbdcb0937304649b6073b87d9c60001b616004565b612e077f2fbfd66cf080fa3b416a125d3ad7c018b76d4a17a2b7876302710c97de5ddeeb60001b616004565b612e1b6001836175e890919063ffffffff16565b9150612e4f565b612e4e7fa2433bd2f1e7531549ff4182ac35b03c297915ab7b56898006ff31730a0ffa2560001b616004565b5b8080600101915050612ceb565b50612e897fee77718a3e133f264674e55c22dde9d337bd852faee73ec6a83f01a22c06a81160001b616004565b612eb57fb276ec9354d38d2badfe1380d230b813963f50161a4bbd05a638a1211ebccc6960001b616004565b8091505090565b612ee87ff726fc88418c0a3484479f3aad53d8027d0e2163703da4e11695846a8ecf323960001b610985565b612f147f684725bd78b70c3fb2cf13b500bfd22c1cd461220ef6c85b59f31f1043c5de1f60001b610985565b612f407f66ea293273b42d90ad1edbe377e4882daf414bd29b0dcec70a1119a20e4da60760001b610985565b612f6c7fbba45401a87b3041ecdfeb8ba6cdf9dec1a86b5dc1ad9312274f3d920df5ec4460001b610985565b603360009054906101000a900473ffffffffffffffffffffffffffffffffffffffff1673ffffffffffffffffffffffffffffffffffffffff163373ffffffffffffffffffffffffffffffffffffffff1614612ffc576040517f08c379a0000000000000000000000000000000000000000000000000000000008152600401612ff39061a005565b60405180910390fd5b6130287fe84730383f7e358d6eb5424a73f82ebabefe25dbfc6cacd9a33efe47980ed6a060001b610985565b6130547f1e8080af53826ea93c0834314df776ac304bf425dcb83719abb60873fded05d360001b610985565b6130807f03564171d41e26763f1458ce21ac5e46c5bcc688bb2a6ec3edd11bdad239106060001b616004565b6130ac7fbc7714cb3904be6cbf1ecee5581d4d7cb93f3a80d46b2eed55b13df2360d15ce60001b616004565b6130d87f5dbb347ac9c6729a1fcc453f5ddd090657103ff282df7e7a813b3da66b771dca60001b616004565b6131047fc43d69ecb333615af4349f9785ddfe3db7c1a0c0fef7d08900fe81016b676b9d60001b616004565b603d54421015613149576040517f08c379a00000000000000000000000000000000000000000000000000000000081526004016131409061a125565b60405180910390fd5b6131757f0ba6a0dfbad5015f8c36c2f2e463d10bce2577be64bde311007bba0625bb88d260001b616004565b6131a17fce8411b5ca17a82026414bd183d019bb29eb279f73922cfd36de3213e3ac31a560001b616004565b6131cd7ff572ad34ba8b967e433222ce22d3b9d51a5cea1d4af1de993d587ac05526b93e60001b616004565b6131d8603c5461763d565b6132047fd110536fee343e375c6d925a1d6c10068e64f1b68f98298b130f665fb2e8992a60001b616004565b6132307fd31202305a469a4ac3858cd07989a2e5d3a3d4412d8d95b07486f93f281548b560001b616004565b6000603c819055506132647f8e44bd9cec0c013559a1c0433c451e17389c6dec316983a6bdf5ef72c44421d560001b616004565b6132907ff5ab4de18c6a1007c298e7e0ff0aaf25b5961af378e0127a76ee0c5b896af45760001b616004565b6000603d81905550565b6132c67ff726fc88418c0a3484479f3aad53d8027d0e2163703da4e11695846a8ecf323960001b610985565b6132f27f684725bd78b70c3fb2cf13b500bfd22c1cd461220ef6c85b59f31f1043c5de1f60001b610985565b61331e7f66ea293273b42d90ad1edbe377e4882daf414bd29b0dcec70a1119a20e4da60760001b610985565b61334a7fbba45401a87b3041ecdfeb8ba6cdf9dec1a86b5dc1ad9312274f3d920df5ec4460001b610985565b603360009054906101000a900473ffffffffffffffffffffffffffffffffffffffff1673ffffffffffffffffffffffffffffffffffffffff163373ffffffffffffffffffffffffffffffffffffffff16146133da576040517f08c379a00000000000000000000000000000000000000000000000000000000081526004016133d19061a005565b60405180910390fd5b6134067fe84730383f7e358d6eb5424a73f82ebabefe25dbfc6cacd9a33efe47980ed6a060001b610985565b6134327f1e8080af53826ea93c0834314df776ac304bf425dcb83719abb60873fded05d360001b610985565b61345e7fca3b0b6a8f0568d214a013263a65c9483dba7aa815bd0585a82fcb6e01b44e4260001b610985565b61348a7f32a3f81f40bb087c7fd38d5dcb5c29f487af7b6230e95b2acd83a8141b6ef76160001b610985565b6134b67f9f1a6c81fd7ccf33f78b471b0320d8b00b85dda096a45429cf89835a066ff67d60001b610985565b60005b815181101561361a576134ee7f7ae0a1ae04f92781454c373617fd96d4c9ab5fb9828a61d367bf00640648c33460001b610985565b61351a7f8dfa20da60ba28b5cf6e6b094b34a50c8c27b4e1efa56d9a9013613e395b454c60001b610985565b61353682828151811061352957fe5b6020026020010151615590565b1561356c576135677f1bce9586341e7e0f103cc61df037ac5c651216e8a53aebe2b8316b0dfe13a21560001b610985565b61360d565b6135987fa87f7eb0f11b25a4f28d761815fd69c2ac6e783657f1be3d8a92a6c8e7691e3060001b610985565b6135c47ffe1fe1a4bae1838cbdef812094bc9bf6a37b3a1b68cd54d8dc58310eec925add60001b610985565b6135f07ff9c6e6aeebb90b2fd8d734adf26bebb0b4a46cfb0a98ed5d1c527b059e5cf19660001b610985565b61360c8282815181106135ff57fe5b6020026020010151617a15565b5b80806001019150506134b9565b5050565b61364a7f4a2989e016ee3db5028bcbf218a52c7f8020ec696e924d242d22b4fb6cf6251960001b610985565b6136767f9217d7e909920e7ad8bda7e617457b1b1a010d29311d5f5d7f99725410308c9a60001b610985565b6136a27fca99f56d1fecca0928ae1bc5ccb65c5224b8e55dc84dd587a8321f52da29a17660001b610985565b6136ce7f1cf1d6bf9a6148d55d8e187c5872b464ed417dfae2a70ed1b7a0d9e352c3c7b360001b610985565b603360009054906101000a900473ffffffffffffffffffffffffffffffffffffffff1673ffffffffffffffffffffffffffffffffffffffff163373ffffffffffffffffffffffffffffffffffffffff1614806137775750603760009054906101000a900473ffffffffffffffffffffffffffffffffffffffff1673ffffffffffffffffffffffffffffffffffffffff163373ffffffffffffffffffffffffffffffffffffffff16145b6137b6576040517f08c379a00000000000000000000000000000000000000000000000000000000081526004016137ad9061a085565b60405180910390fd5b6137e27f97f1b7ddd15e94821b740ac55ec4c7e565e73373b057c2d2019359a0d93eeecb60001b610985565b61380e7fb44f6a4f52199a66d1a724ff6f87f3767fde1451169ed589ee7d359bd007754260001b610985565b61383a7fea3e0f9c9505507033d00b81c9facaa3a01a8d30930bcbd55858c4d0144ec10c60001b616004565b6138667f1c6936f801b3089cc7c145ace43a2c6223cde13e8d7d31fe74875e2f88465fd460001b616004565b6138927f57d08ba045e7a92990c7afde1b32768331f0c5d90286bd19f0d3db6af66ecad360001b616004565b61389c8282617095565b5050565b60006138ce7f4a2989e016ee3db5028bcbf218a52c7f8020ec696e924d242d22b4fb6cf6251960001b610985565b6138fa7f9217d7e909920e7ad8bda7e617457b1b1a010d29311d5f5d7f99725410308c9a60001b610985565b6139267fca99f56d1fecca0928ae1bc5ccb65c5224b8e55dc84dd587a8321f52da29a17660001b610985565b6139527f1cf1d6bf9a6148d55d8e187c5872b464ed417dfae2a70ed1b7a0d9e352c3c7b360001b610985565b603360009054906101000a900473ffffffffffffffffffffffffffffffffffffffff1673ffffffffffffffffffffffffffffffffffffffff163373ffffffffffffffffffffffffffffffffffffffff1614806139fb5750603760009054906101000a900473ffffffffffffffffffffffffffffffffffffffff1673ffffffffffffffffffffffffffffffffffffffff163373ffffffffffffffffffffffffffffffffffffffff16145b613a3a576040517f08c379a0000000000000000000000000000000000000000000000000000000008152600401613a319061a085565b60405180910390fd5b613a667f97f1b7ddd15e94821b740ac55ec4c7e565e73373b057c2d2019359a0d93eeecb60001b610985565b613a927fb44f6a4f52199a66d1a724ff6f87f3767fde1451169ed589ee7d359bd007754260001b610985565b613abe7fb23a19f9310d333bb76c98efbb829acae99fe339f582399745a176479b4884f360001b616004565b613aea7fa8c9e34673a68952d8f18da18f9202173a37fd28b1c20cf5a6963f7226fe29b760001b616004565b613b167fd88e0452eae93ae4eb4797be30771d5bbed0c5576cf3948a549b0b203c3d55a660001b616004565b613b427f820321967153e79223ac541a90437cab91aac199d1d2adfb2a00162691926eaa60001b616004565b600073ffffffffffffffffffffffffffffffffffffffff168373ffffffffffffffffffffffffffffffffffffffff161415613bb2576040517f08c379a0000000000000000000000000000000000000000000000000000000008152600401613ba99061a1e5565b60405180910390fd5b613bde7feb828909975b933b046eac3a87f71c89f7e32c8fc0252d5f626c1e5d03f9d7c460001b616004565b613c0a7f0a03d57d164dce8580c91bf3e0bd49b7df34444c9da7d96f81ea36e8343659cd60001b616004565b613c367f33b393a4333ea4a06afa89531d2e9144448948c18763404b869a30c63071c7fd60001b616004565b6000603860009054906101000a900473ffffffffffffffffffffffffffffffffffffffff1673ffffffffffffffffffffffffffffffffffffffff16637027ea6c856040518263ffffffff1660e01b8152600401613c939190619ccd565b60206040518083038186803b158015613cab57600080fd5b505afa158015613cbf573d6000803e3d6000fd5b505050506040513d601f19601f82011682018060405250810190613ce39190618fde565b9050613d117ff0569f3f8ef565862c9785d2212fd58e7c72e4585a930ef319fb8e287d60a5b360001b616004565b613d3d7f1cab3fe2c8bd312ec393e86a4f9cdcf129dee4153982515cb57f976cb1424a2660001b616004565b613d697f871946dd44ea5b5934c478b17113da0fbf903c044c68da200296aec4c28a864460001b616004565b600073ffffffffffffffffffffffffffffffffffffffff168173ffffffffffffffffffffffffffffffffffffffff161415613dd9576040517f08c379a0000000000000000000000000000000000000000000000000000000008152600401613dd09061a0e5565b60405180910390fd5b613e057fe0f8bb93a59881d05fe418104abd8dd741d132c7c097a431ffeaea86dba0eb0960001b616004565b613e317f53b1d992a7a24b54b99c2b7636a864b9a459c5cf2c1e795f3614f34353862e0560001b616004565b613e5d7fa8c80a1145b7338fc803df6ce35524f7031ff0f9b002b79273515b7192ca2a5f60001b616004565b613e897f54c04bfda83a07bd7d80f03e93d5edf5d6f1360293cd10d6f9c2569ec9e02dc660001b616004565b8073ffffffffffffffffffffffffffffffffffffffff1663e23ff43730856040518363ffffffff1660e01b8152600401613ec4929190619dfb565b602060405180830381600087803b158015613ede57600080fd5b505af1158015613ef2573d6000803e3d6000fd5b505050506040513d601f19601f82011682018060405250810190613f16919061922b565b613f55576040517f08c379a0000000000000000000000000000000000000000000000000000000008152600401613f4c90619fc5565b60405180910390fd5b613f817f4a8754677ce17a56817b411116dacd14d6230104c8218f90c4d668fc11ad17ff60001b616004565b613fad7f232f44e7641bcec1702ffb43d49599e04f46d8d82cf380c86dbdfff99d8a8f9160001b616004565b613fd97fd7c92f03dc0e49d191f5625d3efa37966af49155ed1d6043775ade7652a69a2460001b616004565b60008473ffffffffffffffffffffffffffffffffffffffff16846040516140009190619cb6565b6000604051808303816000865af19150503d806000811461403d576040519150601f19603f3d011682016040523d82523d6000602084013e614042565b606091505b505090506140727fc22862528145745b115fcefed77731d61c540dd49955ff7980ecb2401a0e897d60001b616004565b61409e7fccd4ff71b27b8138d2f552e081ca1e831ee70aaa49845a78afbb9e32a12c55d660001b616004565b6140ca7f275cb8d808d465f7a3c8073c1da852f4d95e33eba24709d7bf17e3b632264d9560001b616004565b6001151581151514614111576040517f08c379a00000000000000000000000000000000000000000000000000000000081526004016141089061a1c5565b60405180910390fd5b61413d7f2904b3fd39506d6b35dcb4d7fc4d2a4713282253fc0bfd144ebfb231a805ddb960001b616004565b6141697f22f69d32d939c59bb86d7daa37d42170ba2c3d64ef9b54fdb3c1c043a97e060660001b616004565b6141957f7eb05d44d6006b2cbe02c3b2654894860943e2e0fc87ed263c57825eb4a5783260001b616004565b7f508f3afa87f72dce865a2321107666b28ac822c23a8c0555fbeb3424cf3de563603960009054906101000a900473ffffffffffffffffffffffffffffffffffffffff166141e1611e58565b426040516141f193929190619d56565b60405180910390a16142257ff111dd7986fefc76d63cf6f7b47d224fc02e7dacacc249ee23d4250c590b706a60001b616004565b6142517f199d933c7fccadf369f24e9e6a63c65c665827eec93e597cc9c273d212edb23860001b616004565b60019250505092915050565b603d5481565b61428f7ff726fc88418c0a3484479f3aad53d8027d0e2163703da4e11695846a8ecf323960001b610985565b6142bb7f684725bd78b70c3fb2cf13b500bfd22c1cd461220ef6c85b59f31f1043c5de1f60001b610985565b6142e77f66ea293273b42d90ad1edbe377e4882daf414bd29b0dcec70a1119a20e4da60760001b610985565b6143137fbba45401a87b3041ecdfeb8ba6cdf9dec1a86b5dc1ad9312274f3d920df5ec4460001b610985565b603360009054906101000a900473ffffffffffffffffffffffffffffffffffffffff1673ffffffffffffffffffffffffffffffffffffffff163373ffffffffffffffffffffffffffffffffffffffff16146143a3576040517f08c379a000000000000000000000000000000000000000000000000000000000815260040161439a9061a005565b60405180910390fd5b6143cf7fe84730383f7e358d6eb5424a73f82ebabefe25dbfc6cacd9a33efe47980ed6a060001b610985565b6143fb7f1e8080af53826ea93c0834314df776ac304bf425dcb83719abb60873fded05d360001b610985565b6144277ffa543b6f107045bf9c2087163c37dcfab98a23c4a624261978c06a9eca09d75860001b610985565b6144537f82fb810c0be715dc0d93fe45e4b3a95b91e18835f3f3ca0fa8447a053d3902a760001b610985565b61447f7ff819c58381b02ea27fb2e0c25d6dd614b7b856ae0a9cac81bc172816adf45f4660001b610985565b6000603760006101000a81548173ffffffffffffffffffffffffffffffffffffffff021916908373ffffffffffffffffffffffffffffffffffffffff160217905550565b60006144f17ffaab115858d9fce9efc97f1bbbb6e0df3297f8f129d4b2eded2c231a15f4085860001b61147e565b61451d7ff893ef875ca94e9c3fc4cc86b45216aece14b700e6ec2a78405a4d0c8f88e0ca60001b61147e565b6145497fab731ada03353f5fae632f632758df8ca199a2c0ed3b8fca3d506596ce85d1e860001b61147e565b61455e836004846020020160ff166020615e8d565b905092915050565b60006145947f8b3f70460638d519b2bd3c5c69706d337c766051aa7046bc4c199afe25d6e70260001b616004565b6145c07f9b70d6a507276d3c315c08b4a7fd7c2cb6a031f2f9ec5b4190f406371589cf0b60001b616004565b6145ec7f84fea67752f49fd6313a723a261dc8a8028269ce6383124800dd43b23f5e6fc860001b616004565b6146187fc21712182a89d716a142d001dc70c51b425e4cc5db623cf8137ed7b9e48b423660001b616004565b603860009054906101000a900473ffffffffffffffffffffffffffffffffffffffff1673ffffffffffffffffffffffffffffffffffffffff163373ffffffffffffffffffffffffffffffffffffffff16148061473e5750603860009054906101000a900473ffffffffffffffffffffffffffffffffffffffff1673ffffffffffffffffffffffffffffffffffffffff16631d68702d6040518163ffffffff1660e01b815260040160206040518083038186803b1580156146d757600080fd5b505afa1580156146eb573d6000803e3d6000fd5b505050506040513d601f19601f8201168201806040525081019061470f9190618fde565b73ffffffffffffffffffffffffffffffffffffffff163373ffffffffffffffffffffffffffffffffffffffff16145b61477d576040517f08c379a00000000000000000000000000000000000000000000000000000000081526004016147749061a045565b60405180910390fd5b6147a97fe6f4137afa4f45b35a9a17209a519567b4cf7f6f352edea6acf54f58ca946cbe60001b616004565b6147d57fdcda9a052a01f7c048b6cf6aff3f1718ad8e27d874fa0b2e445af5a63b8c867d60001b616004565b6148017ff4314893ceed0a29d3012f2f3e7c8bf489f2da1967d2ad60a8ff809cea5827c460001b616004565b61482d7f46e1487fa4e5305427fd56bdbb0443978cfc6864e0c9f022663c64491258016360001b616004565b3073ffffffffffffffffffffffffffffffffffffffff168273ffffffffffffffffffffffffffffffffffffffff16631e50a4a66040518163ffffffff1660e01b815260040160206040518083038186803b15801561488a57600080fd5b505afa15801561489e573d6000803e3d6000fd5b505050506040513d601f19601f820116820180604052508101906148c29190618fde565b73ffffffffffffffffffffffffffffffffffffffff1614614918576040517f08c379a000000000000000000000000000000000000000000000000000000000815260040161490f9061a025565b60405180910390fd5b6149447f0d7aa4b27efd9a78de0ad0e8b27046bfb484a0d63ae514a0f7698e0c6a342f8960001b616004565b6149707f7afc5df97597ebab1e51d0dc4d7acff95cd70cdf5f3874d46bd06459533d1b8a60001b616004565b61499c7f904b22a43de70a318e54a16ff5d6b2cb96d1a81d40826dfc1e9e12dd674da79660001b616004565b81603960006101000a81548173ffffffffffffffffffffffffffffffffffffffff021916908373ffffffffffffffffffffffffffffffffffffffff160217905550614a097f1aaff7490c0222603ddea6b962514ed89c3c1d0baf8f7a244c6bf6c4c552cbf060001b616004565b614a357f42dd38a7b2161d5a793a3fbcedd1a1da845c7e6454084e922be74707de4b228a60001b616004565b7f8c1446ebd2ac8c922b8c9716dfbdfcfef02c9fc167140d7cfd019565b423b2498233604051614a66929190619ce8565b60405180910390a1614a9a7f916c419929ef41d842b20f39c05ce07c2a51d1a4b8d041a5550052b4c0afc39860001b616004565b614ac67fbc990a81b1853094bbe4188026e30b0d37b3c3837234ec206185fbcb0e57fcb060001b616004565b60019050919050565b603c5481565b6000614b037ff4eb5ba226e69772b2b21020f90a9cdd10e942d1315da41a72d2fadbf1d0df5660001b616004565b614b2f7f7d511db2bcc7475f5a3ae878e1958f13f4877eff35c06188f5831ecec13861ed60001b616004565b614b5b7faae9066dd90e3e843c5023454fc21a677911c370fbe8ed5bf02c98065b4a440b60001b616004565b603860009054906101000a900473ffffffffffffffffffffffffffffffffffffffff1673ffffffffffffffffffffffffffffffffffffffff1663cc435bf3836040518263ffffffff1660e01b8152600401614bb69190619ccd565b60206040518083038186803b158015614bce57600080fd5b505afa158015614be2573d6000803e3d6000fd5b505050506040513d601f19601f82011682018060405250810190614c06919061922b565b9050919050565b6000614c3a7ecbfaec9af60292b443ac1af0cd2e5c0a6b65e2c43012e7c67213a14adb8aca60001b616004565b614c667f1dbb7931e6b0099b6161055ba4527907616a00fa552a3eddff00c84c66b0265760001b616004565b614c927f3f1a2eed188c250001e7a11452425b983accababfdda7d4e0e40498aa20b599260001b616004565b603a80549050905090565b6000614ccb7f8f457202f427629ea60baa80f7f914c085350c8f2ca4f9fd180aca9fc44ec1f560001b61147e565b614cf77f4da3e58273fe915f61c0c9a457139e818bfac3b557b392cdd56b41b84d0d8def60001b61147e565b614d237f5a7820acfad558e8182703c3d21294f7dfe53893d06442449d90f8b2f322864560001b61147e565b6000614d3a846004856020020160ff166020615e8d565b9050614d687f8ccb0543f48fb49fbfcbc888a85917c4133287cc7f38bafdefda960c0dcb4cd760001b61147e565b614d947f2c0a939cfc53a406486784d858b7febb9711ec07456a8d9c024180617f6cc92960001b61147e565b614da68460048360001c016020615e8d565b60001c91505092915050565b6000614de07f53a53a91090dedce43f3ccc2f73eea130dde2155764df6f2ce2d098085f57f7060001b616004565b614e0c7fcc769722de3559752c0f7b8777c5bf0d4619dc8d61fc7ac980fda17ffcee13b360001b616004565b614e387f6c2ec9bcee2affbc4d741f5d227c20c015750d200621691492782fabad93a70060001b616004565b6000603b60008473ffffffffffffffffffffffffffffffffffffffff1673ffffffffffffffffffffffffffffffffffffffff1681526020019081526020016000205414159050919050565b6060614eb17f2ed9a800c6e07ab375323e4e1b0434d34b8c38ec279ba4963f47788acfe8c13d60001b610985565b614edd7fd5271b2106a2b6b81360a695af0acfd076f10b58c416fca6fb4c2c4d4a66a94360001b610985565b614f097f6e567f3752e55b17556beeed4082fe27184f8d2629d21114383aa0ea894a70b760001b610985565b6035805480602002602001604051908101604052809291908181526020018280548015614f8b57602002820191906000526020600020905b8160009054906101000a900473ffffffffffffffffffffffffffffffffffffffff1673ffffffffffffffffffffffffffffffffffffffff1681526020019060010190808311614f41575b5050505050905090565b6000614fc37fb7631d099694a00ad219758cf924c237e53cf23ca4a9e085b9509716e095fb7260001b610985565b614fef7f1ac44fbaaf227ab2643b07a1ead07ba59b6efee2e01890ca6c3c8eb663480c5b60001b610985565b61501b7f9a3ff978878e4f6fc1f75cc42031941c8b2b821a789f51a48ee1f5a5a295543f60001b610985565b603580549050905090565b6150527ff726fc88418c0a3484479f3aad53d8027d0e2163703da4e11695846a8ecf323960001b610985565b61507e7f684725bd78b70c3fb2cf13b500bfd22c1cd461220ef6c85b59f31f1043c5de1f60001b610985565b6150aa7f66ea293273b42d90ad1edbe377e4882daf414bd29b0dcec70a1119a20e4da60760001b610985565b6150d67fbba45401a87b3041ecdfeb8ba6cdf9dec1a86b5dc1ad9312274f3d920df5ec4460001b610985565b603360009054906101000a900473ffffffffffffffffffffffffffffffffffffffff1673ffffffffffffffffffffffffffffffffffffffff163373ffffffffffffffffffffffffffffffffffffffff1614615166576040517f08c379a000000000000000000000000000000000000000000000000000000000815260040161515d9061a005565b60405180910390fd5b6151927fe84730383f7e358d6eb5424a73f82ebabefe25dbfc6cacd9a33efe47980ed6a060001b610985565b6151be7f1e8080af53826ea93c0834314df776ac304bf425dcb83719abb60873fded05d360001b610985565b6151ea7fa9c54cfd6f30dea6afcf1f9dd7f07ffff37728fe01f0e5a40f5096f606a13c7160001b610985565b6152167f0af02d0f2eb7557c62178a54ab63f9dc59095fafde4b296939f7412ba772544860001b610985565b6152427f2298149c6c1d75e262236031617e1bc7933b0658b5158cf017376769c15bb39b60001b610985565b80603760006101000a81548173ffffffffffffffffffffffffffffffffffffffff021916908373ffffffffffffffffffffffffffffffffffffffff16021790555050565b6152b27ff726fc88418c0a3484479f3aad53d8027d0e2163703da4e11695846a8ecf323960001b610985565b6152de7f684725bd78b70c3fb2cf13b500bfd22c1cd461220ef6c85b59f31f1043c5de1f60001b610985565b61530a7f66ea293273b42d90ad1edbe377e4882daf414bd29b0dcec70a1119a20e4da60760001b610985565b6153367fbba45401a87b3041ecdfeb8ba6cdf9dec1a86b5dc1ad9312274f3d920df5ec4460001b610985565b603360009054906101000a900473ffffffffffffffffffffffffffffffffffffffff1673ffffffffffffffffffffffffffffffffffffffff163373ffffffffffffffffffffffffffffffffffffffff16146153c6576040517f08c379a00000000000000000000000000000000000000000000000000000000081526004016153bd9061a005565b60405180910390fd5b6153f27fe84730383f7e358d6eb5424a73f82ebabefe25dbfc6cacd9a33efe47980ed6a060001b610985565b61541e7f1e8080af53826ea93c0834314df776ac304bf425dcb83719abb60873fded05d360001b610985565b61544a7f86bd145c6ef8d8c06e20a7ea04c1b16df6ff38623513f0e063446b695046f03660001b616004565b6154767f51a73355a1e050a91f0adbd807f0d0e48a00752ef2f457695f3b07fef4f88d3b60001b616004565b6154a27f2dba81259795cf8b901fbc03489dfe07c2cbb0b391ea47b8c2745035f5b73a6560001b616004565b6000603c819055506154d67f1c8d12560fca8ad52e52f94ab7cd1984b07a21a853dce1e4c8c8ad3f3842b48160001b616004565b6155027fa2fc82432c47cf5acb36d31c764e3fd18ff5f7318962b1e1cb4986ce55716d3c60001b616004565b6000603d819055506155367fd9ba4d6f41bd2615687c1de2815dcf15aa6b371c0c67aa4a4c083de53ebf456f60001b616004565b6155627fa1efd546958776448c77b6a56e2c347eee98b22c3503033475910922eee0dbc860001b616004565b7fc6f04bf43cbdf1ba5d51b4afa160bb3c7e13858b1409aa32868b239bb2f8d84960405160405180910390a1565b60006155be7f93bced7c6681af6c6d03eb68ab915229f26fad5feb1af98189749dbeb8a77d6b60001b610985565b6155ea7feb16ffe1c44dd3fa467685a7961c9da0f9967e47a0da90e288000ce0c2de65e760001b610985565b6156167f4f088eeed859d895cbfaa9949df5c86833ec2c751d2ed1f39a62549b72574cc160001b610985565b6000603660008473ffffffffffffffffffffffffffffffffffffffff1673ffffffffffffffffffffffffffffffffffffffff1681526020019081526020016000205414159050919050565b600061568f7f93b04c47422d33905b75292a9cd353e5a29d3fc25495025c87d998896306077c60001b616004565b6156bb7f19c187ab9310ab78cf912d171374cb8bb430e540e688489a1c740ad5ce4d77ae60001b616004565b6156e77f4d09ffdb30207ce60bbc979fb44d847b6797896ff97da1a8be413925940d94b060001b616004565b6000603b60008473ffffffffffffffffffffffffffffffffffffffff1673ffffffffffffffffffffffffffffffffffffffff1681526020019081526020016000205490506157577f4315c8bca14abddb63fea0481e0fc60c70a499fbe6c38cf75fc39bd9ec412b5660001b616004565b6157837f5356fdedd5f92d700d763fa2e8bd3d1a99379dfbdf973becc25c26f68bbd723560001b616004565b60008114615852576157b77f2212d5541c83fbc01c822ae95cdac3174a22ee9bb8b4b05790b031b00a82aaeb60001b616004565b6157e37f0d282614d8a27842c75b30efb3233d19140dee5c91e603a657422fc084aea3d660001b616004565b61580f7fe9789cd1672903b223efbb70f567f68ba3a1eac7f8347789397345b03d171e0560001b616004565b603a615825600183617ba090919063ffffffff16565b8154811061582f57fe5b9060005260206000200160000160149054906101000a900460ff1691505061587f565b61587d7e144d81a1d5f8eaa3a9e37fd3c921500eb5762a89f971d8c87421954fa80b2e60001b616004565b505b919050565b60006158b27fefe2c22b09876a856e39aa166afadf74ae34fe283090d9979cb49ad407e38f1e60001b61147e565b6158de7fa17e61bf25b219f9e370180ea595fbf5c5023abe458e1c62e77b21b115a1bd0b60001b61147e565b61590a7ff879bb38771c8cf94106f3671591cfac3d19bc2e769322669e85c43b59b6fb8f60001b61147e565b6159178260006004612a91565b9050919050565b603860009054906101000a900473ffffffffffffffffffffffffffffffffffffffff1681565b603a818154811061595157fe5b906000526020600020016000915090508060000160009054906101000a900473ffffffffffffffffffffffffffffffffffffffff16908060000160149054906101000a900460ff16905082565b6159ca7ff726fc88418c0a3484479f3aad53d8027d0e2163703da4e11695846a8ecf323960001b610985565b6159f67f684725bd78b70c3fb2cf13b500bfd22c1cd461220ef6c85b59f31f1043c5de1f60001b610985565b615a227f66ea293273b42d90ad1edbe377e4882daf414bd29b0dcec70a1119a20e4da60760001b610985565b615a4e7fbba45401a87b3041ecdfeb8ba6cdf9dec1a86b5dc1ad9312274f3d920df5ec4460001b610985565b603360009054906101000a900473ffffffffffffffffffffffffffffffffffffffff1673ffffffffffffffffffffffffffffffffffffffff163373ffffffffffffffffffffffffffffffffffffffff1614615ade576040517f08c379a0000000000000000000000000000000000000000000000000000000008152600401615ad59061a005565b60405180910390fd5b615b0a7fe84730383f7e358d6eb5424a73f82ebabefe25dbfc6cacd9a33efe47980ed6a060001b610985565b615b367f1e8080af53826ea93c0834314df776ac304bf425dcb83719abb60873fded05d360001b610985565b615b627fca7a2cabde565574087071fe1607587d54e9e4133febff955ce26370d56e3ade60001b610985565b615b8e7f4ae3bf1ec5df71fa19b4106be830080cd878ca1570b66601524259dfbf1fd26e60001b610985565b615bba7f3838976ed10281aed5556e0ea1a9a9d902617371c45c8baa61360d5bed3477cf60001b610985565b615bc381615590565b15615c2557615bf47f9e044fc86a21d5bea6729c5c16aa15fd506f956dfdb708ba65d9e8a7beac4f6f60001b610985565b615c207fd20a97c35c6e3960f640bed6bcf30b3b89d45a7f1e1cd929e6c3af489665defb60001b610985565b615cb3565b615c517fe05601f46dfa4021edf6bb0b2c9f2cf613f1681fffcc7fb98c6d0c830d769bd360001b610985565b615c7d7f34bbbad5e06ddcd395174303e2003f6303d14e382aefe8484f63907b9abe0d7f60001b610985565b615ca97f83b37c54dbaea8c77bfadc63f8f606565b9dc8564774a7e836bab8707586de0860001b610985565b615cb281617a15565b5b50565b6000615ce47f57c28dc3b9fffcd2809a348a95dd172639da7a162d037461f64b606498a978f860001b616004565b615d107fbece09c88799d3d5df45f9e8605393ee4c853f1bba390b784c7dc8fd4265410860001b616004565b615d3c7f4e2acb629a669d564ffc538dc006e2b57aa1a422a23261ddd3a92287798e04c660001b616004565b8173ffffffffffffffffffffffffffffffffffffffff166370a08231603960009054906101000a900473ffffffffffffffffffffffffffffffffffffffff166040518263ffffffff1660e01b8152600401615d979190619ccd565b60206040518083038186803b158015615daf57600080fd5b505afa158015615dc3573d6000803e3d6000fd5b505050506040513d601f19601f82011682018060405250810190615de79190619409565b9050919050565b6000615e1c7f271eda76ea5a2f24aaf7354a2f6a056821e172ad356836f8df08dd15691e98e960001b616004565b615e487f10fcfd0346feaac440e741509dd990ab5843d253a00469b7235a1546d467362a60001b616004565b615e747ffcf7d7b23ef441d9f2c7e067b8792e619c5eba9b696a3d04abaa5ec9b5d313eb60001b616004565b615e8682615e8184615cb6565b611481565b9050919050565b6000615ebb7fdbf66ce83ce63e1b90e474f035c4a8d784e0e29bf54a573c26983a0f4a4cbbcb60001b61147e565b615ee77feb2cd4358c15899b1595ad29b0ef0b53024f659bfd60d9f832cfd5823d57459460001b61147e565b615f137fc3be7f0e5a666c19a596140bd00fdc4df0b35f7dffd237a9b85317c383366c9460001b61147e565b615f3f7f2acb4df9e63e73b3d49d7b38657b1574f30cd3acb64bc5e5b73ab1144ceb9b8360001b61147e565b81830184511015615f85576040517f08c379a0000000000000000000000000000000000000000000000000000000008152600401615f7c9061a0c5565b60405180910390fd5b615fb17f3f71e92bd14f821d88273ee800e0b73eae1655a1d351098740c416395fb88be160001b61147e565b615fdd7f4012a161d651452a28c3646c96a8ddc6a29d16ef089a2e5ae51fb2b45e28cb2660001b61147e565b826020018401519050816020038015615ffc576008810260020a820491505b509392505050565b50565b60606160357f3260d180c380e176b198f70a823c04aa387cae8133a8fd0b709f9a3cca2d434c60001b616004565b6160617fe0963aa2335554a4f893220841ac9c316bd76c9d38a8bcd38b4bf7d718bc25a560001b616004565b61608d7f0dbd56dbd86e4dd46b95fc2cb588ed210e641a66e81665800ec64cd2691c55a560001b616004565b6000603a8054905090506160c37fe9072b8625aa2ee72d07ed7735211002981512a650191656fb4f11a9b07c5fd160001b616004565b6160ef7f3ccd0a808e48e44616829758d3d19e77c7ebfc6eaff2aa0e24df20669e6f339e60001b616004565b60608167ffffffffffffffff8111801561610857600080fd5b506040519080825280602002602001820160405280156161375781602001602082028036833780820191505090505b5090506161667f4b64c7a0244f39d3332edee08863f3fb57e058aabb848b10de620fdc90c8534b60001b616004565b6161927f950b8518bbab3f20e9337b10ec34155f20b78d00ad347f61ad24cdc85f664f9b60001b616004565b60005b828160ff16101561628c576161cc7f96b104a0386b7cb83694400d94b698396520cebba2226759d92e362762fa3f2960001b616004565b6161f87f661f4a1d3037ce8d82c2dfa4e05fbaa776d4753ee4b14186eef4f2a7f74a6fa260001b616004565b603a8160ff168154811061620857fe5b9060005260206000200160000160009054906101000a900473ffffffffffffffffffffffffffffffffffffffff16828260ff168151811061624557fe5b602002602001019073ffffffffffffffffffffffffffffffffffffffff16908173ffffffffffffffffffffffffffffffffffffffff16815250508080600101915050616195565b506162b97f3e61fa4a848ba22e013a9f1ba7eecdc2f75e84393f5b45c9918c0261f315216f60001b616004565b6162e57fbdfc574bd44f37e1634105ac4116575557aa36198549b5fecddec43a59e1b86260001b616004565b809250505090565b60008061631c7fcc3c7b1eca5e0de5c031e811b85686338935fc347791b678ff02e03199c4063160001b616004565b6163487f62d2d590f4d69e84b62bcabfd091707839a8edbe513dc4385900d68fef1bffb860001b616004565b6163747fed21ea51fbeeca80e17329288396599f0e8d6d369e30d72b9f6fa20eab2d5c6a60001b616004565b603c54603d54915091509091565b60608060606163b37fb31ae6e786136b50c3d8d9f3e059778eee5be310e3a90a7c974f85fc261f88f360001b616004565b6163df7f0d4f20427a457deaa29e2607b9c5d07390315ce5e78b3a59444fd8064982444b60001b616004565b61640b7f174f8435ab98e644e58540d2ea9e0324ee07dd9d1682d7e3f11e31360959458d60001b616004565b6000603a8054905090506164417f18acc4040281a664075d5b12d19522595a02a42a5126a1309b9f57c6153396c360001b616004565b61646d7fb0aed222a936a5014000acecbace83932c650de664a5c698f87841f8dec9835560001b616004565b60608167ffffffffffffffff8111801561648657600080fd5b506040519080825280602002602001820160405280156164b55781602001602082028036833780820191505090505b5090506164e47f37c0b9796bffb771af0967e9d8bf69741515429afbf5e28a9150e49577cedaab60001b616004565b6165107ffa60933e2597c3f3b416821bd3e92105d5e5aab2cf7d799547d124e9f08d2cba60001b616004565b60608267ffffffffffffffff8111801561652957600080fd5b506040519080825280602002602001820160405280156165585781602001602082028036833780820191505090505b5090506165877faa3595169fd0f8408432e52984cf70935fb12d9dae940a5c21a4c6a8613091ea60001b616004565b6165b37f41a9ea5e5bb520d6bfa148ce7d1ca98002533d4d78c2b0adc051bb8263f42de560001b616004565b60608367ffffffffffffffff811180156165cc57600080fd5b506040519080825280602002602001820160405280156165fb5781602001602082028036833780820191505090505b50905061662a7f317a8a921a25705163543673f3d51faa34585aae87dc6a82e9385f9eea2f726060001b616004565b6166567f1b53fdb681c38023d240f742fa2d21660cd413ae11b63027d4d7ba9dd2b688f560001b616004565b60005b848110156169395761668d7f21e779a67e428f8ebf7ffc9a8a271f50f5a9a01da0d971bc723fdd0bd499674760001b616004565b6166b97f2ce8f06b9931450b0f3c25fffc8ac6c7d4ad12003c4f2a5ce571fe593ac3e41160001b616004565b6000603a82815481106166c857fe5b9060005260206000200160000160009054906101000a900473ffffffffffffffffffffffffffffffffffffffff1690506167247ff0867a135bb1c2cf61c4d678246e0551b31d8214c5f59558b4dbab0b2d799f4960001b616004565b6167507f5748963f613e0268fb376aaac1775a2800ebacef2099adbc62514ac4c21d9a3460001b616004565b61675981615cb6565b84838151811061676557fe5b60200260200101818152505061679d7fa93a122f4bd2e2d457d0328fb8514945bcae59a49fa02426a5bdd1cf20e7ab6060001b616004565b6167c97f94b8a9d4201de8c5313ae52b39b39a888fa5a750842eeaeb03a81c6ba235001d60001b616004565b808583815181106167d657fe5b602002602001019073ffffffffffffffffffffffffffffffffffffffff16908173ffffffffffffffffffffffffffffffffffffffff168152505061683c7fcf73224d96d4cb4c1b62a45dc937e5cefb345680518a3fed8707a4a28949fc0360001b616004565b6168687ff3f14f3bf93c4dc91d9b2740edd7723d51e576d96bb92f0c6c957b47ac2f5c5260001b616004565b603860009054906101000a900473ffffffffffffffffffffffffffffffffffffffff1673ffffffffffffffffffffffffffffffffffffffff16638b2f0f4f826040518263ffffffff1660e01b81526004016168c39190619ccd565b60206040518083038186803b1580156168db57600080fd5b505afa1580156168ef573d6000803e3d6000fd5b505050506040513d601f19601f820116820180604052508101906169139190619409565b83838151811061691f57fe5b602002602001018181525050508080600101915050616659565b506169667fc8ab0b423bab6bcce2d5a804a8c6cdc2ade79a98b57bb148e174097506479c5f60001b616004565b6169927fea25610234b84fbc1217aa774c2003c47bd8800e134f16707a05159a7c3a100a60001b616004565b82828296509650965050505050909192565b60606169d27fe7ded372597b04070dc23b8073f76f16369afe1ba9bb655212499ca4c89078f060001b610985565b6169fe7f01ec58831db98f33618ad51b08b94ed3a3a6b0622fcfb23a3be0f3c3909ecf1c60001b610985565b616a2a7f9cab5560c48acff3bdc66326ea997f6ec4889edc87b772b7ec0867872efa8b0b60001b610985565b60348054600181600116156101000203166002900480601f016020809104026020016040519081016040528092919081815260200182805460018160011615610100020316600290048015616ac05780601f10616a9557610100808354040283529160200191616ac0565b820191906000526020600020905b815481529060010190602001808311616aa357829003601f168201915b5050505050905090565b616af67f43d4d67dc7f967cc97563907b86c2519d42dcc126e20c1f02c04390ace2db7d960001b610985565b616b227f9a33241be8ddde47c507c09ca66ad831c8dff917b40a1657dd3f1f7160faa37a60001b610985565b616b4e7fd976149b1269705ae23cacedb5a8a0d8cf214428935148b777fd1e2437b701e560001b610985565b60006035805490509050616b847f0be28d4891fc3d9806bb2f98a38c5ded5aaf8a95e3656f5059d7c3c51cc7161560001b610985565b616bb07f982408f60d6d6df50dc0350c15c812b70faf6b72c73c1f7d4ee3b420355975d260001b610985565b6000616c056001603660008673ffffffffffffffffffffffffffffffffffffffff1673ffffffffffffffffffffffffffffffffffffffff16815260200190815260200160002054617ba090919063ffffffff16565b9050616c337fd23a7fca9f4d6905f8ef0768ea2e240a0f20482a65e1a39a997147409e71e54760001b610985565b616c5f7fc12ef148a50437be9c6c3fe2886c3fa010931c5b6d7cdf9403f213763e80a2c260001b610985565b60006035616c77600185617ba090919063ffffffff16565b81548110616c8157fe5b9060005260206000200160009054906101000a900473ffffffffffffffffffffffffffffffffffffffff169050616cda7f417697173a7e5a834c2b335e9ad87be0f0870d0ce953cde7d1746d7c20393a3660001b610985565b616d067f797aa45c850cf8a13ebf5e0692ce4233c1ca36547a673b9667aa0ef542e6204b60001b610985565b8060358381548110616d1457fe5b9060005260206000200160006101000a81548173ffffffffffffffffffffffffffffffffffffffff021916908373ffffffffffffffffffffffffffffffffffffffff160217905550616d887f904707040d9ebaf87a4ba18a853b7f7bfbfb7cc74efbba90b546b2b527e7d77b60001b610985565b616db47fa36e670d734c079531017080326060167c11cc6330c00467364d94e3901260d060001b610985565b616dc86001836175e890919063ffffffff16565b603660008373ffffffffffffffffffffffffffffffffffffffff1673ffffffffffffffffffffffffffffffffffffffff16815260200190815260200160002081905550616e377f6cef904dfc8e44bc602f22936344c33e18e8f32de8130f62b6ac3e044feef62360001b610985565b616e637f148ba67878f02304e3e32d635da24799fb83800211723c864a28b0e14b0e946260001b610985565b6000603660008673ffffffffffffffffffffffffffffffffffffffff1673ffffffffffffffffffffffffffffffffffffffff16815260200190815260200160002081905550616ed47f37cbd5cc2380c7027b945e93e7b84b8577e206e5bca9a39c21c51c2aebbd3f8c60001b610985565b616f007f4731067e33b609595a4497107bfa3cec3fa3eca7626a916057ddc4b5a31456c560001b610985565b6035805480616f0b57fe5b6001900381819060005260206000200160006101000a81549073ffffffffffffffffffffffffffffffffffffffff0219169055905550505050565b6000803090506000813b9050600081149250505090565b616f897f7a588846b7b8e59b62e22986f1cb03725d0c799bc40b4c73078dc20574eac2e960001b610985565b616fb57f6bd94a7dd2e31883755a94a28e28b0cb8429ba928dc381140d7d77004c42d93360001b610985565b616fe17fa83ebde687c92ed750fa8c4250da0e5f9644a2bfe9f251f0e042fe7fc85d576a60001b610985565b81603360006101000a81548173ffffffffffffffffffffffffffffffffffffffff021916908373ffffffffffffffffffffffffffffffffffffffff16021790555061704e7fba877d339753ca494df1548e242158439ecda7d0f68d1bab8ffb69bf3ad67e7060001b610985565b61707a7f4bd1b9cef254dde54fb7b4ba3a076b2a8892c4069d2956afda2d83132d0d4ea960001b610985565b8060349080519060200190617090929190618c61565b505050565b6170c17f34770cbf8a57b8b3f013f4fa1d4f26bf4bbde5ef592bf1fefbccc15cef5e0f4960001b616004565b6170ed7f7e1aa943359470189bab3b6926c9faaa914376640e24ff3f6062628b4235e8a860001b616004565b6171197f35545561e4c776f38d70d9aa9b8bd8d0ca531afda75f4506f3e9a8b575c5676b60001b616004565b60005b81518160ff1610156171ac576171547fa1ce611800b7580abeec2c3e8af9f1d0b397ccde8b421409ee990d6fcc7ab0e260001b616004565b6171807fe6d7a305add7fc1d7104f4f9727d65549338f50192b4ce4e8878404232e2c8cb60001b616004565b61719f828260ff168151811061719257fe5b6020026020010151617bea565b808060010191505061711c565b506171d97fba3296007eb100af0755214729dff11e2f90b533913707c3e23e06803fe41e8e60001b616004565b6172057fc6fcee34de3aed4d9da527111e9e96d34eda55762cd80fc76b51594187e5668460001b616004565b60005b82518160ff161015617298576172407fb5911200b58547844b7a7b6c37e432b2da01da197a36f65b5f042d818c9b409a60001b616004565b61726c7f074f7dc0131832b232541a8ab6be3c58929ec56bc4fd6696c5a56c679f5bf29360001b616004565b61728b838260ff168151811061727e57fe5b60200260200101516185cd565b8080600101915050617208565b506172c57fd0ad0705440f457abf32c698209924dae4d62b75e3e3f1335f7d450ce9c4c1a260001b616004565b6172f17fd1cf248cc2a2b5aa67aa14f63a6fb1138e2cc19b4d9c0f92b091150aac5b3bc160001b616004565b61731d7fe0a85bbe1af2e847d37b04371d87d4c3bb831bdcd2744a9f3f36d1af53435f3660001b616004565b603860009054906101000a900473ffffffffffffffffffffffffffffffffffffffff1673ffffffffffffffffffffffffffffffffffffffff1663aa12ae4d6040518163ffffffff1660e01b815260040160206040518083038186803b15801561738557600080fd5b505afa158015617399573d6000803e3d6000fd5b505050506040513d601f19601f820116820180604052508101906173bd9190619409565b603a8054905010617403576040517f08c379a00000000000000000000000000000000000000000000000000000000081526004016173fa9061a205565b60405180910390fd5b61742f7fdc96d2704fa7111d9d998bd88a9aec5d1a44e73f7cf4547e3ed9fe3f0fc28d8560001b616004565b61745b7fab0f554eb34e95cfd0955f8ef69a7bfa59fc9e84223a9c82293a9bb0f9fe966460001b616004565b6174877f922c65978f04faeeee71161e0cd4084b1a646a2b41595560244b450f15842e7f60001b616004565b6174b37ff55b3dfe467867d5e66e30a02e15f1484c9e9e779f774baaf5e1e042232ca16460001b616004565b60016174bd612c08565b10156174fe576040517f08c379a00000000000000000000000000000000000000000000000000000000081526004016174f59061a065565b60405180910390fd5b61752a7fdc8ce4e8b1b7cf6a85a5286ae3528f900767b4261b3550ae06aec32d8170836f60001b616004565b5050565b6000808314156175415760009050617598565b600082840290508284828161755257fe5b0414617593576040517f08c379a000000000000000000000000000000000000000000000000000000000815260040161758a9061a105565b60405180910390fd5b809150505b92915050565b60006175e083836040518060400160405280601a81526020017f536166654d6174683a206469766973696f6e206279207a65726f000000000000815250618b73565b905092915050565b600080828401905083811015617633576040517f08c379a000000000000000000000000000000000000000000000000000000000815260040161762a90619fa5565b60405180910390fd5b8091505092915050565b6176697ffc6b744fce5304ea3119af8fd0c987fd93c9dfe2053293fd49aeebe9ba365da560001b616004565b6176957fad09f01e82fb196bf407db0c3168dd58733a98b5a019ca9464d636fec7eb4dac60001b616004565b6176c17f4b1a513f7f2dc9041817a129ac65298b2cf6e935997a6ce9195ff84e1efc9b8a60001b616004565b603860009054906101000a900473ffffffffffffffffffffffffffffffffffffffff1673ffffffffffffffffffffffffffffffffffffffff1663046b72c4603960009054906101000a900473ffffffffffffffffffffffffffffffffffffffff16836040518363ffffffff1660e01b8152600401617740929190619e5b565b600060405180830381600087803b15801561775a57600080fd5b505af115801561776e573d6000803e3d6000fd5b5050505061779e7f7320b932b5e025971dda27859c97df1d7468cf4b91d1268bd19e5918495d194160001b616004565b6177ca7f0d64e274b6efc208e105880651e9eba6b886c22aaba3998e8727a65d7b77119260001b616004565b60006177f87fc6140564aff373523a1c7007b7786b3607eba21db1e8df287dba4fdd41f39e2a60001b616004565b6178247fb9d037b24a9fae110913e535e026346c0c35c9057b21ccaef6c08118559fe99f60001b616004565b60006178527f9fe82189419f23150dc69a1ed21ebb4fed8ddd5bc87533e62de46bf38beb494d60001b616004565b61787e7f47bd004e0137e0cbc5098f595d9855543279d1e09d0783ccc802264a884269ce60001b616004565b603860009054906101000a900473ffffffffffffffffffffffffffffffffffffffff1673ffffffffffffffffffffffffffffffffffffffff1663b7a54526603960009054906101000a900473ffffffffffffffffffffffffffffffffffffffff166040518263ffffffff1660e01b81526004016178fb9190619ccd565b604080518083038186803b15801561791257600080fd5b505afa158015617926573d6000803e3d6000fd5b505050506040513d601f19601f8201168201806040525081019061794a9190619432565b809250819350505061797e7f348092cfb6a2b6d98ad6fc0e694365b2f935b25f57a2fdcea9f78e290d51401d60001b616004565b6179aa7f7b68b4673945606aa36bb42a96a50e3eea0f4ddc5e316d14f2e8c3a1d3391dc660001b616004565b7f1780c04ddc6f0b32d866c7a3d7583f53515ef49ed2126af868f804f491601266603960009054906101000a900473ffffffffffffffffffffffffffffffffffffffff166179f6611e58565b8484604051617a089493929190619d8d565b60405180910390a1505050565b617a417f120d4ada38bb5617d62f237f475d91361f9986899c218eb39368b795730a9ad260001b610985565b617a6d7ff876760b2cad024af551c4ea79575243fb2b3818ef8518cb46e1dc3035c15f3760001b610985565b617a997f7726f68d522d3254d6528922abd286c5555ff4b7e4f68c51afcd636d246f5abd60001b610985565b6035819080600181540180825580915050600190039060005260206000200160009091909190916101000a81548173ffffffffffffffffffffffffffffffffffffffff021916908373ffffffffffffffffffffffffffffffffffffffff160217905550617b287fb5d83ba033c4b78376e5d2d9da6133c97d5063d821e0ad0aa5af2f3781cf308560001b610985565b617b547f89ab2a8e5e1b48c265e8ca3f5097a80099abbe2dbed6e5ffee0f376db28a5d9660001b610985565b603580549050603660008373ffffffffffffffffffffffffffffffffffffffff1673ffffffffffffffffffffffffffffffffffffffff1681526020019081526020016000208190555050565b6000617be283836040518060400160405280601e81526020017f536166654d6174683a207375627472616374696f6e206f766572666c6f770000815250618bd4565b905092915050565b617c167f8c131e08a89f1e1646f736d9b42d7a12862af8a096eb7e0cb7d3398312f1240560001b616004565b617c427fd17d716b32fca6bf2bbffc8952c65d6f411df223e2a718cfa0b8630f2af3d89a60001b616004565b617c6e7f817435bb2a77c00148077a699cc1e99c1967479a4c1a0522e37ab0f6939c07a460001b616004565b600081600001519050617ca37f4c8953b94e86cee96ed0e02df66aca90ee1103aa9b00710ba67330c9306da0d460001b616004565b617ccf7f3484f866eafb81a3a3721d5e2a9a9f7ed5141d282a9e7ad3bdb32a1137ee4fc160001b616004565b600082602001519050617d047fe2dbd643f94d7721b4cd361d803ec8e020c619e1eb23b6c25479e7824aa19cb660001b616004565b617d307f2a6ec88bf5d82b2fac71ab3515111fa41f4ed6c1e99c943c2a191b2721d5135e60001b616004565b617d5c7fe32e353dfd42777ee6fbb6ef0461672ff89973a8eba1f3b4378b5f2acbec808c60001b616004565b617d6582614db2565b617da4576040517f08c379a0000000000000000000000000000000000000000000000000000000008152600401617d9b9061a165565b60405180910390fd5b617dd07fd468585b959dcba24006a10715a29e50b22b2d790fbbfc037141219e71486af560001b616004565b617dfc7f6017ba4d5084f594b8d0276d70c03825deeed758d4be56de029eb2d7526405b560001b616004565b617e287feed34252e343e883b16f0c6481226ac42255ea0f71666daf40a1804f9f36c8f760001b616004565b6000617e7d6001603b60008673ffffffffffffffffffffffffffffffffffffffff1673ffffffffffffffffffffffffffffffffffffffff16815260200190815260200160002054617ba090919063ffffffff16565b9050617eab7f114852c0aaa19ca982d11724042cdd393f244cfe474d8d745afadaf82e4644df60001b616004565b617ed77f7789e6aa52baecb248c2418219a820cf035d5c063815cab3ff3e119e472428a560001b616004565b8115617f9957617f097f6ba0fea7465eac8e9b9663f41fef263cd481aa95fa5fcb2537a5467b2801fc5960001b616004565b617f357f374ca0a61d2441dfc9a3bc05a5770751ab9baab926b8ff1f0cd786e33e7a91e660001b616004565b617f617f3136c3614165dbe26475603f58d6e5c584773e01bf6bcaf6967b326be739309e60001b616004565b6000603a8281548110617f7057fe5b9060005260206000200160000160146101000a81548160ff021916908315150217905550618509565b617fc57fe334c96f8861cb0dcdcb5e3dcc9320bbd7f7e3d2250fce27c121fed5374a753760001b616004565b617ff07e2485e33a58f597c35dd0fad258ba4072c2f89d5048350262d510525269250960001b616004565b61801c7f219f0beebb52ed0d670b6d0ee1affc85457a61339e690dee96c4d912332cc8b460001b616004565b6180487f2d0dca3907955c55e66e691a914793881e2198dce99864b5a6e73ee554b49de060001b616004565b600061805384615cb6565b14618093576040517f08c379a000000000000000000000000000000000000000000000000000000000815260040161808a90619fe5565b60405180910390fd5b6180bf7ff8dcb9828b68e3bd8c759bf5306c9c251a07b6190df778d7a8930a977eced4b960001b616004565b6180eb7f0408ea1efea032682c3dc30fd9adbff69076d69d6daab0a447e22d056209f0e260001b616004565b6181177f25467937fb141c61ed33715b859710ba95a9d74c1b37bf2e6d7932e786fa00f260001b616004565b6000603a80549050905061814d7f02c8e70ca3af75d35362aa56a9856337ece239600e43f80d7998fba901a2b8fa60001b616004565b6181797f0fcfcda066a548d89bfce77730c0b3f44e530027f4f6fd43f8d5b5de7f33929160001b616004565b618181618c2f565b603a618197600184617ba090919063ffffffff16565b815481106181a157fe5b906000526020600020016040518060400160405290816000820160009054906101000a900473ffffffffffffffffffffffffffffffffffffffff1673ffffffffffffffffffffffffffffffffffffffff1673ffffffffffffffffffffffffffffffffffffffff1681526020016000820160149054906101000a900460ff16151515158152505090506182557f8eddef7bd11ac47753f99399c9a93675e909222b47ff7b4e9fa6a79f59a7ef7960001b616004565b6182817f5cb1e34d4bf64e70784ef81eb91ed604232558ef92f9bb324515c9ba966aa2ad60001b616004565b80603a848154811061828f57fe5b9060005260206000200160008201518160000160006101000a81548173ffffffffffffffffffffffffffffffffffffffff021916908373ffffffffffffffffffffffffffffffffffffffff16021790555060208201518160000160146101000a81548160ff02191690831515021790555090505061832f7f72ec6a7b2e107afe5aac9a8f159140d0d137ed0c7c7a8f8513afcd5411759d5160001b616004565b61835b7f94773029b3f80d392c36bff5752afc2846bf0e2aee64b1e1cc094c83b6ced84f60001b616004565b61836f6001846175e890919063ffffffff16565b603b6000836000015173ffffffffffffffffffffffffffffffffffffffff1673ffffffffffffffffffffffffffffffffffffffff168152602001908152602001600020819055506183e27f7a0fa85b446402d79ebc6665582c2eaa5927b421f6b0da57f5b2e373ddf4c8c160001b616004565b61840e7fc34e77ef9044ec84978f4875f7e2e286f9d8439d1a00c9eea2b966c8a22b7b2f60001b616004565b6000603b60008773ffffffffffffffffffffffffffffffffffffffff1673ffffffffffffffffffffffffffffffffffffffff1681526020019081526020016000208190555061847f7f1e118885e4af8ce0fb36c96ad02c22f4e7baf6904ccbcfa20952e7609c7fdd2160001b616004565b6184ab7fffd6c36c212ae49a646f929446ddfe2ad221ce6c427e4a6189400abf89fa1afd60001b616004565b603a8054806184b657fe5b60019003818190600052602060002001600080820160006101000a81549073ffffffffffffffffffffffffffffffffffffffff02191690556000820160146101000a81549060ff02191690555050905550505b6185357f3d124e11188cf5ebae45d2d236f5f582c7d76624b2438fe6921c4cba732706ce60001b616004565b6185617f982f21d0af97f7d4ac9f81120137b991e0eb411417a71a9cf853eac1165fbf9460001b616004565b7fe965d54082969a663997d69c24092b2a8571d2fd7d9f74033800398bbab6ffe9603960009054906101000a900473ffffffffffffffffffffffffffffffffffffffff166185ad611e58565b85856040516185bf9493929190619d11565b60405180910390a150505050565b6185f97ffbe96ee0f41174e779ce3c2873f577e7c8bdf8a9b89a6267a6f267dfc61fb60960001b616004565b6186257f57c60d2d00f8ae30c92eb50fdaf5c2b3f04e0364f0641b3c0db7f8dbcef94c3d60001b616004565b6186517fdcb38b4800d118d69cbd53d3d686518b7f689683ea5999741c59a5b32c2715e160001b616004565b6000816000015190506186867f6925f7029051ea8e6059a42d11b46ba59f51a6081e7ada785d1cbd14547bf20660001b616004565b6186b27ff3dcf7ae24d7e36d1bfdc682546a8da32cdf709ed39eb7beda02a409ba53999660001b616004565b6000826020015190506186e77f201defc04fe51c356f7458b4c68c8bbd47b9f05640b8a6020c7e6d2cab00b8a460001b616004565b6187137ff0dedea63d94e1d1b359f55800a5c2661684586897c8978fefdca94204b7a3a760001b616004565b61873f7f6bef9c261c97bf9af725cbe35a0902efdb21995e204c3bc1700dc37abc90911e60001b616004565b6001151561874c83614ad5565b15151461878e576040517f08c379a000000000000000000000000000000000000000000000000000000000815260040161878590619f85565b60405180910390fd5b6187ba7fc8220e9c3d14e2c1b874cb399c1a8e00fbe37816d8e6ef15810d0002191a488660001b616004565b6187e67feb0896be43daf2da2e636ea46e0d8bdd32738351e2dc042bfbcb4e5c4455289d60001b616004565b6188127f33376bdc9d64de7b50cd5e8746cf974bad31c04873c2aadd608027db7e836f3f60001b616004565b61881b82614db2565b1561898b5761884c7f78018c28f3dbf1a2a8fa82894f012e3d4675ea36313187c2715a7f2fe04805bd60001b616004565b6188787fba682690580363cf4d5a69f22e2304b1c0dd91ed2c20b343155d1d83c4fa84ea60001b616004565b6188a47f40183964a6df3a52c5231c5ca6760fc11dbb01fb78c68474464ed66058e0544460001b616004565b60006188f96001603b60008673ffffffffffffffffffffffffffffffffffffffff1673ffffffffffffffffffffffffffffffffffffffff16815260200190815260200160002054617ba090919063ffffffff16565b90506189277f04768450b092bf7718cd1cee4e75be1ce8e681e4c7d46cd2fcfe6b299089fcd260001b616004565b6189537f4a1dc0d5dd2414f418424d1b147ee40471891e9a9eb9d5be187adb3cb989646b60001b616004565b81603a828154811061896157fe5b9060005260206000200160000160146101000a81548160ff02191690831515021790555050618b6e565b6189b77f82809b4d3cf6ae5598d0990f2867782cf00415896d10766b738e02867403b78160001b616004565b6189e37fefc1f3aeefb1679e32476ee8ebb9ea99fb954025407a94187b8762e5bcf8d4c860001b616004565b618a0f7ff9bca463705b854f82715e3c4c9a743a0020ea63efe5a63959c2b153c5c5bfa260001b616004565b603a60405180604001604052808473ffffffffffffffffffffffffffffffffffffffff1681526020018315158152509080600181540180825580915050600190039060005260206000200160009091909190915060008201518160000160006101000a81548173ffffffffffffffffffffffffffffffffffffffff021916908373ffffffffffffffffffffffffffffffffffffffff16021790555060208201518160000160146101000a81548160ff0219169083151502179055505050618af87f9f00eb6b28045eaf42301807a55bd03f32dd51e626dbdccfa34fe13ae0dd4f9360001b616004565b618b247f56eed5e981911cf8a72557a0f986613d36e8e26847516355b43a70669042d5fe60001b616004565b603a80549050603b60008473ffffffffffffffffffffffffffffffffffffffff1673ffffffffffffffffffffffffffffffffffffffff168152602001908152602001600020819055505b505050565b60008083118290618bba576040517f08c379a0000000000000000000000000000000000000000000000000000000008152600401618bb19190619f43565b60405180910390fd5b506000838581618bc657fe5b049050809150509392505050565b6000838311158290618c1c576040517f08c379a0000000000000000000000000000000000000000000000000000000008152600401618c139190619f43565b60405180910390fd5b5060008385039050809150509392505050565b6040518060400160405280600073ffffffffffffffffffffffffffffffffffffffff1681526020016000151581525090565b828054600181600116156101000203166002900490600052602060002090601f016020900481019282601f10618ca257805160ff1916838001178555618cd0565b82800160010185558215618cd0579182015b82811115618ccf578251825591602001919060010190618cb4565b5b509050618cdd9190618ce1565b5090565b5b80821115618cfa576000816000905550600101618ce2565b5090565b600081359050618d0d8161a507565b92915050565b600081519050618d228161a507565b92915050565b600082601f830112618d3957600080fd5b8135618d4c618d478261a296565b61a269565b91508181835260208401935060208101905083856020840282011115618d7157600080fd5b60005b83811015618da15781618d878882618cfe565b845260208401935060208301925050600181019050618d74565b5050505092915050565b600082601f830112618dbc57600080fd5b8135618dcf618dca8261a2be565b61a269565b91508181835260208401935060208101905083856040840282011115618df457600080fd5b60005b83811015618e245781618e0a8882618f15565b845260208401935060408301925050600181019050618df7565b5050505092915050565b600081359050618e3d8161a51e565b92915050565b600081519050618e528161a51e565b92915050565b600081359050618e678161a535565b92915050565b600082601f830112618e7e57600080fd5b8135618e91618e8c8261a2e6565b61a269565b91508082526020830160208301858383011115618ead57600080fd5b618eb883828461a4b4565b50505092915050565b600082601f830112618ed257600080fd5b8135618ee5618ee08261a312565b61a269565b91508082526020830160208301858383011115618f0157600080fd5b618f0c83828461a4b4565b50505092915050565b600060408284031215618f2757600080fd5b618f31604061a269565b90506000618f4184828501618cfe565b6000830152506020618f5584828501618e2e565b60208301525092915050565b600081359050618f708161a54c565b92915050565b600081519050618f858161a54c565b92915050565b600081359050618f9a8161a563565b92915050565b600081519050618faf8161a563565b92915050565b600060208284031215618fc757600080fd5b6000618fd584828501618cfe565b91505092915050565b600060208284031215618ff057600080fd5b6000618ffe84828501618d13565b91505092915050565b6000806000806080858703121561901d57600080fd5b600061902b87828801618cfe565b945050602061903c87828801618cfe565b935050604085013567ffffffffffffffff81111561905957600080fd5b61906587828801618ec1565b925050606085013567ffffffffffffffff81111561908257600080fd5b61908e87828801618dab565b91505092959194509250565b600080604083850312156190ad57600080fd5b60006190bb85828601618cfe565b925050602083013567ffffffffffffffff8111156190d857600080fd5b6190e485828601618e6d565b9150509250929050565b6000806040838503121561910157600080fd5b600061910f85828601618cfe565b925050602083013567ffffffffffffffff81111561912c57600080fd5b61913885828601618ec1565b9150509250929050565b6000806040838503121561915557600080fd5b600061916385828601618cfe565b925050602061917485828601618f61565b9150509250929050565b60006020828403121561919057600080fd5b600082013567ffffffffffffffff8111156191aa57600080fd5b6191b684828501618d28565b91505092915050565b600080604083850312156191d257600080fd5b600083013567ffffffffffffffff8111156191ec57600080fd5b6191f885828601618dab565b925050602083013567ffffffffffffffff81111561921557600080fd5b61922185828601618dab565b9150509250929050565b60006020828403121561923d57600080fd5b600061924b84828501618e43565b91505092915050565b60006020828403121561926657600080fd5b600061927484828501618e58565b91505092915050565b60006020828403121561928f57600080fd5b600082013567ffffffffffffffff8111156192a957600080fd5b6192b584828501618e6d565b91505092915050565b6000806000606084860312156192d357600080fd5b600084013567ffffffffffffffff8111156192ed57600080fd5b6192f986828701618e6d565b935050602061930a86828701618f61565b925050604061931b86828701618f61565b9150509250925092565b6000806040838503121561933857600080fd5b600083013567ffffffffffffffff81111561935257600080fd5b61935e85828601618e6d565b925050602061936f85828601618f8b565b9150509250929050565b60008060006060848603121561938e57600080fd5b600084013567ffffffffffffffff8111156193a857600080fd5b6193b486828701618e6d565b93505060206193c586828701618f8b565b92505060406193d686828701618f8b565b9150509250925092565b6000602082840312156193f257600080fd5b600061940084828501618f61565b91505092915050565b60006020828403121561941b57600080fd5b600061942984828501618f76565b91505092915050565b6000806040838503121561944557600080fd5b600061945385828601618f76565b925050602061946485828601618f76565b9150509250929050565b60006020828403121561948057600080fd5b600061948e84828501618fa0565b91505092915050565b60006194a383836194d6565b60208301905092915050565b60006194bb8383619c98565b60208301905092915050565b6194d08161a47e565b82525050565b6194df8161a3f3565b82525050565b6194ee8161a3f3565b82525050565b60006194ff8261a35e565b619509818561a3a4565b93506195148361a33e565b8060005b8381101561954557815161952c8882619497565b97506195378361a38a565b925050600181019050619518565b5085935050505092915050565b600061955d8261a369565b619567818561a3b5565b93506195728361a34e565b8060005b838110156195a357815161958a88826194af565b97506195958361a397565b925050600181019050619576565b5085935050505092915050565b6195b98161a405565b82525050565b6195c88161a411565b82525050565b6195d78161a41b565b82525050565b60006195e88261a374565b6195f2818561a3c6565b935061960281856020860161a4c3565b61960b8161a4f6565b840191505092915050565b60006196218261a374565b61962b818561a3d7565b935061963b81856020860161a4c3565b80840191505092915050565b60006196528261a37f565b61965c818561a3e2565b935061966c81856020860161a4c3565b6196758161a4f6565b840191505092915050565b600061968d60168361a3e2565b91507f696e76616c696420617272617920706f736974696f6e000000000000000000006000830152602082019050919050565b60006196cd600d8361a3e2565b91507f696e76616c6964206173736574000000000000000000000000000000000000006000830152602082019050919050565b600061970d601b8361a3e2565b91507f536166654d6174683a206164646974696f6e206f766572666c6f7700000000006000830152602082019050919050565b600061974d60138361a3e2565b91507f696e76616c6964207472616e73616374696f6e000000000000000000000000006000830152602082019050919050565b600061978d601d8361a3e2565b91507f63616e6e6f742072656d6f7665206e6f6e2d656d7074792061737365740000006000830152602082019050919050565b60006197cd600c8361a3e2565b91507f6f6e6c79206d616e6167657200000000000000000000000000000000000000006000830152602082019050919050565b600061980d60128361a3e2565b91507f696e76616c696420706f6f6c206c6f67696300000000000000000000000000006000830152602082019050919050565b600061984d60238361a3e2565b91507f6f6e6c792044414f206f7220666163746f7279206164647265737320616c6c6f60008301527f77656400000000000000000000000000000000000000000000000000000000006020830152604082019050919050565b60006198b360228361a3e2565b91507f72657175697265206174206c65617374206f6e65206465706f7369742061737360008301527f65740000000000000000000000000000000000000000000000000000000000006020830152604082019050919050565b600061991960168361a3e2565b91507f6f6e6c79206d616e61676572206f7220747261646572000000000000000000006000830152602082019050919050565b600061995960108361a3e2565b91507f696e76616c6964206672616374696f6e000000000000000000000000000000006000830152602082019050919050565b6000619999601b8361a3e2565b91507f52656164696e67206279746573206f7574206f6620626f756e647300000000006000830152602082019050919050565b60006199d960138361a3e2565b91507f696e76616c69642064657374696e6174696f6e000000000000000000000000006000830152602082019050919050565b6000619a1960218361a3e2565b91507f536166654d6174683a206d756c7469706c69636174696f6e206f766572666c6f60008301527f77000000000000000000000000000000000000000000000000000000000000006020830152604082019050919050565b6000619a7f60198361a3e2565b91507f66656520696e6372656173652064656c617920616374697665000000000000006000830152602082019050919050565b6000619abf602e8361a3e2565b91507f436f6e747261637420696e7374616e63652068617320616c726561647920626560008301527f656e20696e697469616c697a65640000000000000000000000000000000000006020830152604082019050919050565b6000619b2560138361a3e2565b91507f6173736574206e6f7420737570706f72746564000000000000000000000000006000830152602082019050919050565b6000619b6560198361a3e2565b91507f657863656564656420616c6c6f77656420696e637265617365000000000000006000830152602082019050919050565b6000619ba560128361a3e2565b91507f696e707574206973206e6f7420617272617900000000000000000000000000006000830152602082019050919050565b6000619be5601a8361a3e2565b91507f6661696c656420746f2065786563757465207468652063616c6c0000000000006000830152602082019050919050565b6000619c25601c8361a3e2565b91507f6e6f6e2d7a65726f2061646472657373206973207265717569726564000000006000830152602082019050919050565b6000619c6560168361a3e2565b91507f6d6178696d756d206173736574732072656163686564000000000000000000006000830152602082019050919050565b619ca18161a467565b82525050565b619cb08161a467565b82525050565b6000619cc28284619616565b915081905092915050565b6000602082019050619ce260008301846194e5565b92915050565b6000604082019050619cfd60008301856194e5565b619d0a60208301846194c7565b9392505050565b6000608082019050619d2660008301876194e5565b619d3360208301866194e5565b619d4060408301856194e5565b619d4d60608301846195b0565b95945050505050565b6000606082019050619d6b60008301866194e5565b619d7860208301856194e5565b619d856040830184619ca7565b949350505050565b6000608082019050619da260008301876194e5565b619daf60208301866194e5565b619dbc6040830185619ca7565b619dc96060830184619ca7565b95945050505050565b6000604082019050619de760008301856194e5565b619df460208301846195b0565b9392505050565b6000604082019050619e1060008301856194e5565b8181036020830152619e2281846195dd565b90509392505050565b6000604082019050619e4060008301856194e5565b8181036020830152619e528184619647565b90509392505050565b6000604082019050619e7060008301856194e5565b619e7d6020830184619ca7565b9392505050565b60006020820190508181036000830152619e9e81846194f4565b905092915050565b60006060820190508181036000830152619ec081866194f4565b90508181036020830152619ed48185619552565b90508181036040830152619ee88184619552565b9050949350505050565b6000602082019050619f0760008301846195b0565b92915050565b6000602082019050619f2260008301846195bf565b92915050565b6000602082019050619f3d60008301846195ce565b92915050565b60006020820190508181036000830152619f5d8184619647565b905092915050565b60006020820190508181036000830152619f7e81619680565b9050919050565b60006020820190508181036000830152619f9e816196c0565b9050919050565b60006020820190508181036000830152619fbe81619700565b9050919050565b60006020820190508181036000830152619fde81619740565b9050919050565b60006020820190508181036000830152619ffe81619780565b9050919050565b6000602082019050818103600083015261a01e816197c0565b9050919050565b6000602082019050818103600083015261a03e81619800565b9050919050565b6000602082019050818103600083015261a05e81619840565b9050919050565b6000602082019050818103600083015261a07e816198a6565b9050919050565b6000602082019050818103600083015261a09e8161990c565b9050919050565b6000602082019050818103600083015261a0be8161994c565b9050919050565b6000602082019050818103600083015261a0de8161998c565b9050919050565b6000602082019050818103600083015261a0fe816199cc565b9050919050565b6000602082019050818103600083015261a11e81619a0c565b9050919050565b6000602082019050818103600083015261a13e81619a72565b9050919050565b6000602082019050818103600083015261a15e81619ab2565b9050919050565b6000602082019050818103600083015261a17e81619b18565b9050919050565b6000602082019050818103600083015261a19e81619b58565b9050919050565b6000602082019050818103600083015261a1be81619b98565b9050919050565b6000602082019050818103600083015261a1de81619bd8565b9050919050565b6000602082019050818103600083015261a1fe81619c18565b9050919050565b6000602082019050818103600083015261a21e81619c58565b9050919050565b600060208201905061a23a6000830184619ca7565b92915050565b600060408201905061a2556000830185619ca7565b61a2626020830184619ca7565b9392505050565b6000604051905081810181811067ffffffffffffffff8211171561a28c57600080fd5b8060405250919050565b600067ffffffffffffffff82111561a2ad57600080fd5b602082029050602081019050919050565b600067ffffffffffffffff82111561a2d557600080fd5b602082029050602081019050919050565b600067ffffffffffffffff82111561a2fd57600080fd5b601f19601f8301169050602081019050919050565b600067ffffffffffffffff82111561a32957600080fd5b601f19601f8301169050602081019050919050565b6000819050602082019050919050565b6000819050602082019050919050565b600081519050919050565b600081519050919050565b600081519050919050565b600081519050919050565b6000602082019050919050565b6000602082019050919050565b600082825260208201905092915050565b600082825260208201905092915050565b600082825260208201905092915050565b600081905092915050565b600082825260208201905092915050565b600061a3fe8261a447565b9050919050565b60008115159050919050565b6000819050919050565b60007fffffffff0000000000000000000000000000000000000000000000000000000082169050919050565b600073ffffffffffffffffffffffffffffffffffffffff82169050919050565b6000819050919050565b600060ff82169050919050565b600061a4898261a490565b9050919050565b600061a49b8261a4a2565b9050919050565b600061a4ad8261a447565b9050919050565b82818337600083830152505050565b60005b8381101561a4e157808201518184015260208101905061a4c6565b8381111561a4f0576000848401525b50505050565b6000601f19601f8301169050919050565b61a5108161a3f3565b811461a51b57600080fd5b50565b61a5278161a405565b811461a53257600080fd5b50565b61a53e8161a411565b811461a54957600080fd5b50565b61a5558161a467565b811461a56057600080fd5b50565b61a56c8161a471565b811461a57757600080fd5b5056fea26469706673582212206f61a35961dac627278135460bf8af7cc56a355ef6a1f8d3a6145c7e27d3839964736f6c634300060c0033",
  "linkReferences": {},
  "deployedLinkReferences": {}
}