{
  "_format": "hh-sol-artifact-1",
  "contractName": "PoolManagerLogic",
  "sourceName": "contracts/PoolManagerLogic.sol",
  "abi": [
    {
      "anonymous": false,
      "inputs": [
        {
          "indexed": false,
          "internalType": "address",
          "name": "fundAddress",
          "type": "address"
        },
        {
          "indexed": false,
          "internalType": "address",
          "name": "manager",
          "type": "address"
        },
        {
          "indexed": false,
          "internalType": "address",
          "name": "asset",
          "type": "address"
        }
      ],
      "name": "AssetAdded",
      "type": "event"
    },
    {
      "anonymous": false,
      "inputs": [
        {
          "indexed": false,
          "internalType": "address",
          "name": "fundAddress",
          "type": "address"
        },
        {
          "indexed": false,
          "internalType": "address",
          "name": "manager",
          "type": "address"
        },
        {
          "indexed": false,
          "internalType": "address",
          "name": "asset",
          "type": "address"
        }
      ],
      "name": "AssetRemoved",
      "type": "event"
    },
    {
      "anonymous": false,
      "inputs": [
        {
          "indexed": false,
          "internalType": "address",
          "name": "fundAddress",
          "type": "address"
        },
        {
          "indexed": false,
          "internalType": "address",
          "name": "manager",
          "type": "address"
        },
        {
          "indexed": false,
          "internalType": "address",
          "name": "sourceAsset",
          "type": "address"
        },
        {
          "indexed": false,
          "internalType": "uint256",
          "name": "sourceAmount",
          "type": "uint256"
        },
        {
          "indexed": false,
          "internalType": "address",
          "name": "destinationAddress",
          "type": "address"
        },
        {
          "indexed": false,
          "internalType": "uint256",
          "name": "destinationAmount",
          "type": "uint256"
        },
        {
          "indexed": false,
          "internalType": "uint256",
          "name": "time",
          "type": "uint256"
        }
      ],
      "name": "Exchange",
      "type": "event"
    },
    {
      "anonymous": false,
      "inputs": [
        {
          "indexed": false,
          "internalType": "uint256",
          "name": "newNumerator",
          "type": "uint256"
        },
        {
          "indexed": false,
          "internalType": "uint256",
          "name": "announcedFeeActivationTime",
          "type": "uint256"
        }
      ],
      "name": "ManagerFeeIncreaseAnnounced",
      "type": "event"
    },
    {
      "anonymous": false,
      "inputs": [],
      "name": "ManagerFeeIncreaseRenounced",
      "type": "event"
    },
    {
      "anonymous": false,
      "inputs": [
        {
          "indexed": false,
          "internalType": "address",
          "name": "fundAddress",
          "type": "address"
        },
        {
          "indexed": false,
          "internalType": "address",
          "name": "manager",
          "type": "address"
        },
        {
          "indexed": false,
          "internalType": "uint256",
          "name": "numerator",
          "type": "uint256"
        },
        {
          "indexed": false,
          "internalType": "uint256",
          "name": "denominator",
          "type": "uint256"
        }
      ],
      "name": "ManagerFeeSet",
      "type": "event"
    },
    {
      "anonymous": false,
      "inputs": [
        {
          "indexed": false,
          "internalType": "address",
          "name": "newManager",
          "type": "address"
        },
        {
          "indexed": false,
          "internalType": "string",
          "name": "newManagerName",
          "type": "string"
        }
      ],
      "name": "ManagerUpdated",
      "type": "event"
    },
    {
      "inputs": [
        {
          "internalType": "address",
          "name": "member",
          "type": "address"
        }
      ],
      "name": "addMember",
      "outputs": [],
      "stateMutability": "nonpayable",
      "type": "function"
    },
    {
      "inputs": [
        {
          "internalType": "address[]",
          "name": "members",
          "type": "address[]"
        }
      ],
      "name": "addMembers",
      "outputs": [],
      "stateMutability": "nonpayable",
      "type": "function"
    },
    {
      "inputs": [
        {
          "internalType": "address",
          "name": "asset",
          "type": "address"
        }
      ],
      "name": "addToSupportedAssets",
      "outputs": [],
      "stateMutability": "nonpayable",
      "type": "function"
    },
    {
      "inputs": [],
      "name": "addressResolver",
      "outputs": [
        {
          "internalType": "contract IAddressResolver",
          "name": "",
          "type": "address"
        }
      ],
      "stateMutability": "view",
      "type": "function"
    },
    {
      "inputs": [
        {
          "internalType": "address",
          "name": "pool",
          "type": "address"
        },
        {
          "internalType": "uint256",
          "name": "numerator",
          "type": "uint256"
        }
      ],
      "name": "announceManagerFeeIncrease",
      "outputs": [],
      "stateMutability": "nonpayable",
      "type": "function"
    },
    {
      "inputs": [],
      "name": "announcedFeeIncreaseNumerator",
      "outputs": [
        {
          "internalType": "uint256",
          "name": "",
          "type": "uint256"
        }
      ],
      "stateMutability": "view",
      "type": "function"
    },
    {
      "inputs": [],
      "name": "announcedFeeIncreaseTimestamp",
      "outputs": [
        {
          "internalType": "uint256",
          "name": "",
          "type": "uint256"
        }
      ],
      "stateMutability": "view",
      "type": "function"
    },
    {
      "inputs": [
        {
          "internalType": "address",
          "name": "asset",
          "type": "address"
        }
      ],
      "name": "assetBalance",
      "outputs": [
        {
          "internalType": "uint256",
          "name": "",
          "type": "uint256"
        }
      ],
      "stateMutability": "view",
      "type": "function"
    },
    {
      "inputs": [
        {
          "internalType": "address",
          "name": "",
          "type": "address"
        }
      ],
      "name": "assetPosition",
      "outputs": [
        {
          "internalType": "uint256",
          "name": "",
          "type": "uint256"
        }
      ],
      "stateMutability": "view",
      "type": "function"
    },
    {
      "inputs": [
        {
          "internalType": "address",
          "name": "asset",
          "type": "address"
        },
        {
          "internalType": "uint256",
          "name": "amount",
          "type": "uint256"
        }
      ],
      "name": "assetValue",
      "outputs": [
        {
          "internalType": "uint256",
          "name": "",
          "type": "uint256"
        }
      ],
      "stateMutability": "view",
      "type": "function"
    },
    {
      "inputs": [
        {
          "internalType": "address",
          "name": "asset",
          "type": "address"
        }
      ],
      "name": "assetValue",
      "outputs": [
        {
          "internalType": "uint256",
          "name": "",
          "type": "uint256"
        }
      ],
      "stateMutability": "view",
      "type": "function"
    },
    {
      "inputs": [
        {
          "internalType": "address",
          "name": "newManager",
          "type": "address"
        },
        {
          "internalType": "string",
          "name": "newManagerName",
          "type": "string"
        }
      ],
      "name": "changeManager",
      "outputs": [],
      "stateMutability": "nonpayable",
      "type": "function"
    },
    {
      "inputs": [
        {
          "internalType": "address",
          "name": "pool",
          "type": "address"
        }
      ],
      "name": "commitManagerFeeIncrease",
      "outputs": [],
      "stateMutability": "nonpayable",
      "type": "function"
    },
    {
      "inputs": [
        {
          "internalType": "bytes32",
          "name": "data",
          "type": "bytes32"
        }
      ],
      "name": "convert32toAddress",
      "outputs": [
        {
          "internalType": "address",
          "name": "o",
          "type": "address"
        }
      ],
      "stateMutability": "pure",
      "type": "function"
    },
    {
      "inputs": [
        {
          "internalType": "address",
          "name": "to",
          "type": "address"
        },
        {
          "internalType": "bytes",
          "name": "data",
          "type": "bytes"
        }
      ],
      "name": "execTransaction",
      "outputs": [
        {
          "internalType": "bool",
          "name": "",
          "type": "bool"
        }
      ],
      "stateMutability": "nonpayable",
      "type": "function"
    },
    {
      "inputs": [],
      "name": "factory",
      "outputs": [
        {
          "internalType": "address",
          "name": "",
          "type": "address"
        }
      ],
      "stateMutability": "view",
      "type": "function"
    },
    {
      "inputs": [
        {
          "internalType": "bytes",
          "name": "data",
          "type": "bytes"
        },
        {
          "internalType": "uint8",
          "name": "inputNum",
          "type": "uint8"
        },
        {
          "internalType": "uint8",
          "name": "arrayIndex",
          "type": "uint8"
        }
      ],
      "name": "getArrayIndex",
      "outputs": [
        {
          "internalType": "bytes32",
          "name": "",
          "type": "bytes32"
        }
      ],
      "stateMutability": "pure",
      "type": "function"
    },
    {
      "inputs": [
        {
          "internalType": "bytes",
          "name": "data",
          "type": "bytes"
        },
        {
          "internalType": "uint8",
          "name": "inputNum",
          "type": "uint8"
        }
      ],
      "name": "getArrayLast",
      "outputs": [
        {
          "internalType": "bytes32",
          "name": "",
          "type": "bytes32"
        }
      ],
      "stateMutability": "pure",
      "type": "function"
    },
    {
      "inputs": [
        {
          "internalType": "bytes",
          "name": "data",
          "type": "bytes"
        },
        {
          "internalType": "uint8",
          "name": "inputNum",
          "type": "uint8"
        }
      ],
      "name": "getArrayLength",
      "outputs": [
        {
          "internalType": "uint256",
          "name": "",
          "type": "uint256"
        }
      ],
      "stateMutability": "pure",
      "type": "function"
    },
    {
      "inputs": [
        {
          "internalType": "bytes32",
          "name": "key",
          "type": "bytes32"
        }
      ],
      "name": "getAssetProxy",
      "outputs": [
        {
          "internalType": "address",
          "name": "",
          "type": "address"
        }
      ],
      "stateMutability": "view",
      "type": "function"
    },
    {
      "inputs": [],
      "name": "getFundComposition",
      "outputs": [
        {
          "internalType": "address[]",
          "name": "",
          "type": "address[]"
        },
        {
          "internalType": "uint256[]",
          "name": "",
          "type": "uint256[]"
        },
        {
          "internalType": "uint256[]",
          "name": "",
          "type": "uint256[]"
        }
      ],
      "stateMutability": "view",
      "type": "function"
    },
    {
      "inputs": [
        {
          "internalType": "bytes",
          "name": "data",
          "type": "bytes"
        },
        {
          "internalType": "uint8",
          "name": "inputNum",
          "type": "uint8"
        }
      ],
      "name": "getInput",
      "outputs": [
        {
          "internalType": "bytes32",
          "name": "",
          "type": "bytes32"
        }
      ],
      "stateMutability": "pure",
      "type": "function"
    },
    {
      "inputs": [
        {
          "internalType": "address",
          "name": "pool",
          "type": "address"
        }
      ],
      "name": "getManagerFee",
      "outputs": [
        {
          "internalType": "uint256",
          "name": "",
          "type": "uint256"
        },
        {
          "internalType": "uint256",
          "name": "",
          "type": "uint256"
        }
      ],
      "stateMutability": "view",
      "type": "function"
    },
    {
      "inputs": [],
      "name": "getManagerFeeIncreaseInfo",
      "outputs": [
        {
          "internalType": "uint256",
          "name": "",
          "type": "uint256"
        },
        {
          "internalType": "uint256",
          "name": "",
          "type": "uint256"
        }
      ],
      "stateMutability": "view",
      "type": "function"
    },
    {
      "inputs": [],
      "name": "getMembers",
      "outputs": [
        {
          "internalType": "address[]",
          "name": "",
          "type": "address[]"
        }
      ],
      "stateMutability": "view",
      "type": "function"
    },
    {
      "inputs": [
        {
          "internalType": "bytes",
          "name": "data",
          "type": "bytes"
        }
      ],
      "name": "getMethod",
      "outputs": [
        {
          "internalType": "bytes4",
          "name": "",
          "type": "bytes4"
        }
      ],
      "stateMutability": "pure",
      "type": "function"
    },
    {
      "inputs": [],
      "name": "getSupportedAssets",
      "outputs": [
        {
          "internalType": "address[]",
          "name": "",
          "type": "address[]"
        }
      ],
      "stateMutability": "view",
      "type": "function"
    },
    {
      "inputs": [],
      "name": "getSuspendedAssets",
      "outputs": [
        {
          "internalType": "address[]",
          "name": "",
          "type": "address[]"
        },
        {
          "internalType": "bool[]",
          "name": "",
          "type": "bool[]"
        }
      ],
      "stateMutability": "view",
      "type": "function"
    },
    {
      "inputs": [
        {
          "internalType": "address",
          "name": "asset",
          "type": "address"
        }
      ],
      "name": "getSynthKey",
      "outputs": [
        {
          "internalType": "bytes32",
          "name": "",
          "type": "bytes32"
        }
      ],
      "stateMutability": "view",
      "type": "function"
    },
    {
      "inputs": [
        {
          "internalType": "address",
          "name": "_factory",
          "type": "address"
        },
        {
          "internalType": "address",
          "name": "_manager",
          "type": "address"
        },
        {
          "internalType": "string",
          "name": "_managerName",
          "type": "string"
        },
        {
          "internalType": "contract IAddressResolver",
          "name": "_addressResolver",
          "type": "address"
        },
        {
          "internalType": "address[]",
          "name": "_supportedAssets",
          "type": "address[]"
        }
      ],
      "name": "initialize",
      "outputs": [],
      "stateMutability": "nonpayable",
      "type": "function"
    },
    {
      "inputs": [
        {
          "internalType": "address",
          "name": "asset",
          "type": "address"
        }
      ],
      "name": "isAssetSupported",
      "outputs": [
        {
          "internalType": "bool",
          "name": "",
          "type": "bool"
        }
      ],
      "stateMutability": "view",
      "type": "function"
    },
    {
      "inputs": [
        {
          "internalType": "address",
          "name": "member",
          "type": "address"
        }
      ],
      "name": "isMemberAllowed",
      "outputs": [
        {
          "internalType": "bool",
          "name": "",
          "type": "bool"
        }
      ],
      "stateMutability": "view",
      "type": "function"
    },
    {
      "inputs": [
        {
          "internalType": "address",
          "name": "asset",
          "type": "address"
        }
      ],
      "name": "isSynthAsset",
      "outputs": [
        {
          "internalType": "bool",
          "name": "",
          "type": "bool"
        }
      ],
      "stateMutability": "view",
      "type": "function"
    },
    {
      "inputs": [],
      "name": "manager",
      "outputs": [
        {
          "internalType": "address",
          "name": "",
          "type": "address"
        }
      ],
      "stateMutability": "view",
      "type": "function"
    },
    {
      "inputs": [],
      "name": "managerName",
      "outputs": [
        {
          "internalType": "string",
          "name": "",
          "type": "string"
        }
      ],
      "stateMutability": "view",
      "type": "function"
    },
    {
      "inputs": [],
      "name": "numberOfMembers",
      "outputs": [
        {
          "internalType": "uint256",
          "name": "",
          "type": "uint256"
        }
      ],
      "stateMutability": "view",
      "type": "function"
    },
    {
      "inputs": [],
      "name": "numberOfSupportedAssets",
      "outputs": [
        {
          "internalType": "uint256",
          "name": "",
          "type": "uint256"
        }
      ],
      "stateMutability": "view",
      "type": "function"
    },
    {
      "inputs": [
        {
          "internalType": "address",
          "name": "",
          "type": "address"
        }
      ],
      "name": "persistentAsset",
      "outputs": [
        {
          "internalType": "bool",
          "name": "",
          "type": "bool"
        }
      ],
      "stateMutability": "view",
      "type": "function"
    },
    {
      "inputs": [
        {
          "internalType": "bytes",
          "name": "data",
          "type": "bytes"
        },
        {
          "internalType": "uint256",
          "name": "offset",
          "type": "uint256"
        },
        {
          "internalType": "uint256",
          "name": "length",
          "type": "uint256"
        }
      ],
      "name": "read32",
      "outputs": [
        {
          "internalType": "bytes32",
          "name": "o",
          "type": "bytes32"
        }
      ],
      "stateMutability": "pure",
      "type": "function"
    },
    {
      "inputs": [
        {
          "internalType": "bytes",
          "name": "data",
          "type": "bytes"
        },
        {
          "internalType": "uint256",
          "name": "offset",
          "type": "uint256"
        },
        {
          "internalType": "uint256",
          "name": "length",
          "type": "uint256"
        }
      ],
      "name": "read4left",
      "outputs": [
        {
          "internalType": "bytes4",
          "name": "o",
          "type": "bytes4"
        }
      ],
      "stateMutability": "pure",
      "type": "function"
    },
    {
      "inputs": [
        {
          "internalType": "address",
          "name": "asset",
          "type": "address"
        }
      ],
      "name": "removeFromSupportedAssets",
      "outputs": [],
      "stateMutability": "nonpayable",
      "type": "function"
    },
    {
      "inputs": [
        {
          "internalType": "address",
          "name": "member",
          "type": "address"
        }
      ],
      "name": "removeMember",
      "outputs": [],
      "stateMutability": "nonpayable",
      "type": "function"
    },
    {
      "inputs": [
        {
          "internalType": "address[]",
          "name": "members",
          "type": "address[]"
        }
      ],
      "name": "removeMembers",
      "outputs": [],
      "stateMutability": "nonpayable",
      "type": "function"
    },
    {
      "inputs": [],
      "name": "removeTrader",
      "outputs": [],
      "stateMutability": "nonpayable",
      "type": "function"
    },
    {
      "inputs": [],
      "name": "renounceManagerFeeIncrease",
      "outputs": [],
      "stateMutability": "nonpayable",
      "type": "function"
    },
    {
      "inputs": [
        {
          "internalType": "address",
          "name": "_addressResolver",
          "type": "address"
        }
      ],
      "name": "setAddressResolver",
      "outputs": [],
      "stateMutability": "nonpayable",
      "type": "function"
    },
    {
      "inputs": [
        {
          "internalType": "address",
          "name": "newTrader",
          "type": "address"
        }
      ],
      "name": "setTrader",
      "outputs": [],
      "stateMutability": "nonpayable",
      "type": "function"
    },
    {
      "inputs": [
        {
          "internalType": "uint256",
          "name": "",
          "type": "uint256"
        }
      ],
      "name": "supportedAssets",
      "outputs": [
        {
          "internalType": "address",
          "name": "",
          "type": "address"
        }
      ],
      "stateMutability": "view",
      "type": "function"
    },
    {
      "inputs": [],
      "name": "trader",
      "outputs": [
        {
          "internalType": "address",
          "name": "",
          "type": "address"
        }
      ],
      "stateMutability": "view",
      "type": "function"
    },
    {
      "inputs": [
        {
          "internalType": "address",
          "name": "asset",
          "type": "address"
        }
      ],
      "name": "validateAsset",
      "outputs": [
        {
          "internalType": "bool",
          "name": "",
          "type": "bool"
        }
      ],
      "stateMutability": "view",
      "type": "function"
    }
  ],
  "bytecode": "0x608060405234801561001057600080fd5b50613f39806100206000396000f3fe608060405234801561001057600080fd5b50600436106102d65760003560e01c806380dd4f6211610182578063bbbf725b116100e9578063d346cc65116100a2578063e5406dbf1161007c578063e5406dbf14611072578063ed5b165d1461107a578063f09d14d714611082578063fed4416a14611168576102d6565b8063d346cc6514610e53578063d8af8ed414610fa3578063db896b5714610fc9576102d6565b8063bbbf725b14610d18578063c3c6279f14610d3e578063c45a015514610de2578063c68dbb3714610dea578063ca6d56dc14610e07578063cd88e55814610e2d576102d6565b8063998546e31161013b578063998546e314610bbb5780639eab525314610c64578063a0f8414c14610cbc578063a30e3fa914610ce2578063a6bc18f914610cea578063b8bd81e614610d10576102d6565b806380dd4f6214610a9057806382f86acc14610ab65780638f32343914610b5f5780639240d29914610b67578063936553c414610b8d578063969eed2714610b95576102d6565b806341dc16c3116102415780635f6eceab116101fa5780636f4d469b116101d45780636f4d469b1461092b5780637ae7cfb5146109cc5780637b4d0c6314610a805780637c8afd5114610a88576102d6565b80635f6eceab1461089a5780636141db90146108d95780636708f5d7146108ff576102d6565b806341dc16c314610589578063464b41581461063d57806346ee84b014610677578063481c6a75146107185780635221366314610720578063568b5a2f146107d4576102d6565b80631758078b116102935780631758078b146104545780631eba30771461045c57806321f8c9841461047957806329c07fba1461051a5780633c570d7d146105465780633ded65301461056c576102d6565b806305a2ee2a146102db57806306468587146102ff578063093b88251461032757806309ff5c7d1461034d5780630b1ca49a14610408578063143023871461042e575b600080fd5b6102e36111e5565b604080516001600160a01b039092168252519081900360200190f35b6103256004803603602081101561031557600080fd5b50356001600160a01b03166111f4565b005b6103256004803603602081101561033d57600080fd5b50356001600160a01b03166114b1565b6103f66004803603604081101561036357600080fd5b810190602081018135600160201b81111561037d57600080fd5b82018360208201111561038f57600080fd5b803590602001918460018302840111600160201b831117156103b057600080fd5b91908080601f0160208091040260200160405190810160405280939291908181526020018383808284376000920191909152509295505050903560ff1691506115279050565b60408051918252519081900360200190f35b6103256004803603602081101561041e57600080fd5b50356001600160a01b03166115ba565b6103256004803603602081101561044457600080fd5b50356001600160a01b0316611623565b6102e3611694565b6102e36004803603602081101561047257600080fd5b50356116a3565b6104816116aa565b604051808060200180602001838103835285818151815260200191508051906020019060200280838360005b838110156104c55781810151838201526020016104ad565b50505050905001838103825284818151815260200191508051906020019060200280838360005b838110156105045781810151838201526020016104ec565b5050505090500194505050505060405180910390f35b6103f66004803603604081101561053057600080fd5b506001600160a01b0381351690602001356118d6565b6103f66004803603602081101561055c57600080fd5b50356001600160a01b0316611977565b6102e36004803603602081101561058257600080fd5b5035611989565b6103f66004803603606081101561059f57600080fd5b810190602081018135600160201b8111156105b957600080fd5b8201836020820111156105cb57600080fd5b803590602001918460018302840111600160201b831117156105ec57600080fd5b91908080601f0160208091040260200160405190810160405280939291908181526020018383808284376000920191909152509295505060ff8335811694506020909301359092169150611b8c9050565b6106636004803603602081101561065357600080fd5b50356001600160a01b0316611c74565b604080519115158252519081900360200190f35b6103256004803603602081101561068d57600080fd5b810190602081018135600160201b8111156106a757600080fd5b8201836020820111156106b957600080fd5b803590602001918460208302840111600160201b831117156106da57600080fd5b919080806020026020016040519081016040528093929190818152602001838360200280828437600092019190915250929550611c91945050505050565b6102e3611d38565b6103256004803603604081101561073657600080fd5b6001600160a01b038235169190810190604081016020820135600160201b81111561076057600080fd5b82018360208201111561077257600080fd5b803590602001918460018302840111600160201b8311171561079357600080fd5b91908080601f016020809104026020016040519081016040528093929190818152602001838380828437600092019190915250929550611d47945050505050565b61087d600480360360608110156107ea57600080fd5b810190602081018135600160201b81111561080457600080fd5b82018360208201111561081657600080fd5b803590602001918460018302840111600160201b8311171561083757600080fd5b91908080601f0160208091040260200160405190810160405280939291908181526020018383808284376000920191909152509295505082359350505060200135611e72565b604080516001600160e01b03199092168252519081900360200190f35b6108c0600480360360208110156108b057600080fd5b50356001600160a01b0316611ef3565b6040805192835260208301919091528051918290030190f35b6103f6600480360360208110156108ef57600080fd5b50356001600160a01b0316611f7d565b6103256004803603604081101561091557600080fd5b506001600160a01b03813516906020013561213d565b6103256004803603602081101561094157600080fd5b810190602081018135600160201b81111561095b57600080fd5b82018360208201111561096d57600080fd5b803590602001918460208302840111600160201b8311171561098e57600080fd5b919080806020026020016040519081016040528093929190818152602001838360200280828437600092019190915250929550612378945050505050565b610663600480360360408110156109e257600080fd5b6001600160a01b038235169190810190604081016020820135600160201b811115610a0c57600080fd5b820183602082011115610a1e57600080fd5b803590602001918460018302840111600160201b83111715610a3f57600080fd5b91908080601f01602080910402602001604051908101604052809392919081815260200183838082843760009201919091525092955061240f945050505050565b6103f66127f3565b6103256127f9565b61066360048036036020811015610aa657600080fd5b50356001600160a01b0316612859565b6103f660048036036040811015610acc57600080fd5b810190602081018135600160201b811115610ae657600080fd5b820183602082011115610af857600080fd5b803590602001918460018302840111600160201b83111715610b1957600080fd5b91908080601f0160208091040260200160405190810160405280939291908181526020018383808284376000920191909152509295505050903560ff16915061286e9050565b6103f6612885565b61066360048036036020811015610b7d57600080fd5b50356001600160a01b031661288b565b6103f66128dc565b61032560048036036020811015610bab57600080fd5b50356001600160a01b03166128e2565b6103f660048036036040811015610bd157600080fd5b810190602081018135600160201b811115610beb57600080fd5b820183602082011115610bfd57600080fd5b803590602001918460018302840111600160201b83111715610c1e57600080fd5b91908080601f0160208091040260200160405190810160405280939291908181526020018383808284376000920191909152509295505050903560ff1691506129a09050565b610c6c6129c9565b60408051602080825283518183015283519192839290830191858101910280838360005b83811015610ca8578181015183820152602001610c90565b505050509050019250505060405180910390f35b61066360048036036020811015610cd257600080fd5b50356001600160a01b0316612a2b565b6103f6612c20565b61032560048036036020811015610d0057600080fd5b50356001600160a01b0316612c26565b610325612c96565b61066360048036036020811015610d2e57600080fd5b50356001600160a01b0316612d19565b61087d60048036036020811015610d5457600080fd5b810190602081018135600160201b811115610d6e57600080fd5b820183602082011115610d8057600080fd5b803590602001918460018302840111600160201b83111715610da157600080fd5b91908080601f016020809104026020016040519081016040528093929190818152602001838380828437600092019190915250929550612d36945050505050565b6102e3612d45565b6102e360048036036020811015610e0057600080fd5b5035612d54565b61032560048036036020811015610e1d57600080fd5b50356001600160a01b0316612d7b565b6103f660048036036020811015610e4357600080fd5b50356001600160a01b0316612de5565b610325600480360360a0811015610e6957600080fd5b6001600160a01b038235811692602081013590911691810190606081016040820135600160201b811115610e9c57600080fd5b820183602082011115610eae57600080fd5b803590602001918460018302840111600160201b83111715610ecf57600080fd5b91908080601f01602080910402602001604051908101604052809392919081815260200183838082843760009201919091525092956001600160a01b03853516959094909350604081019250602001359050600160201b811115610f3257600080fd5b820183602082011115610f4457600080fd5b803590602001918460208302840111600160201b83111715610f6557600080fd5b919080806020026020016040519081016040528093929190818152602001838360200280828437600092019190915250929550612e34945050505050565b6103f660048036036020811015610fb957600080fd5b50356001600160a01b0316612f4c565b6103f660048036036060811015610fdf57600080fd5b810190602081018135600160201b811115610ff957600080fd5b82018360208201111561100b57600080fd5b803590602001918460018302840111600160201b8311171561102c57600080fd5b91908080601f0160208091040260200160405190810160405280939291908181526020018383808284376000920191909152509295505082359350505060200135612f60565b610c6c612fdc565b6108c061303c565b61108a613046565b60405180806020018060200180602001848103845287818151815260200191508051906020019060200280838360005b838110156110d25781810151838201526020016110ba565b50505050905001848103835286818151815260200191508051906020019060200280838360005b838110156111115781810151838201526020016110f9565b50505050905001848103825285818151815260200191508051906020019060200280838360005b83811015611150578181015183820152602001611138565b50505050905001965050505050505060405180910390f35b611170613238565b6040805160208082528351818301528351919283929083019185019080838360005b838110156111aa578181015183820152602001611192565b50505050905090810190601f1680156111d75780820380516001836020036101000a031916815260200191505b509250505060405180910390f35b6038546001600160a01b031681565b603960009054906101000a90046001600160a01b03166001600160a01b0316638da5cb5b6040518163ffffffff1660e01b815260040160206040518083038186803b15801561124257600080fd5b505afa158015611256573d6000803e3d6000fd5b505050506040513d602081101561126c57600080fd5b50516001600160a01b031633148061129c5750611287611d38565b6001600160a01b0316336001600160a01b0316145b806112bf57506112aa611694565b6001600160a01b0316336001600160a01b0316145b611310576040805162461bcd60e51b815260206004820152601b60248201527f6f6e6c79206d616e616765722c20747261646572206f722044414f0000000000604482015290519081900360640190fd5b61131981611c74565b611360576040805162461bcd60e51b8152602060048201526013602482015272185cdcd95d081b9bdd081cdd5c1c1bdc9d1959606a1b604482015290519081900360640190fd5b6001600160a01b0381166000908152603c602052604090205460ff16156113ce576040805162461bcd60e51b815260206004820152601f60248201527f63616e6e6f742072656d6f76652070657273697374656e742061737365747300604482015290519081900360640190fd5b6113d78161288b565b1515600114156114a557604080516370a0823160e01b815230600482015290516001600160a01b038316916370a08231916024808301926020929190829003018186803b15801561142757600080fd5b505afa15801561143b573d6000803e3d6000fd5b505050506040513d602081101561145157600080fd5b5051156114a5576040805162461bcd60e51b815260206004820152601d60248201527f63616e6e6f742072656d6f7665206e6f6e2d656d707479206173736574000000604482015290519081900360640190fd5b6114ae816132c5565b50565b6033546001600160a01b03163314806114d457506037546001600160a01b031633145b61151e576040805162461bcd60e51b815260206004820152601660248201527537b7363c9036b0b730b3b2b91037b9103a3930b232b960511b604482015290519081900360640190fd5b6114ae81613413565b60008061153f848460200260040160ff166020612f60565b9050600061155285600484016020612f60565b90508061159b576040805162461bcd60e51b8152602060048201526012602482015271696e707574206973206e6f7420617272617960701b604482015290519081900360640190fd5b6115af856020808402850160040190612f60565b925050505b92915050565b6033546001600160a01b03163314611608576040805162461bcd60e51b815260206004820152600c60248201526b37b7363c9036b0b730b3b2b960a11b604482015290519081900360640190fd5b61161181612d19565b61161a576114ae565b6114ae81613637565b6039546001600160a01b03163314611672576040805162461bcd60e51b815260206004820152600d60248201526c3737903832b936b4b9b9b4b7b760991b604482015290519081900360640190fd5b603880546001600160a01b0319166001600160a01b0392909216919091179055565b6037546001600160a01b031690565b805b919050565b603a546060908190818167ffffffffffffffff811180156116ca57600080fd5b506040519080825280602002602001820160405280156116f4578160200160208202803683370190505b50905060608267ffffffffffffffff8111801561171057600080fd5b5060405190808252806020026020018201604052801561173a578160200160208202803683370190505b50603854604080516321f8a72160e01b81526b53797374656d53746174757360a01b600482015290519293506000926001600160a01b03909216916321f8a72191602480820192602092909190829003018186803b15801561179b57600080fd5b505afa1580156117af573d6000803e3d6000fd5b505050506040513d60208110156117c557600080fd5b5051905060005b848110156118ca576000603a82815481106117e357fe5b9060005260206000200160009054906101000a90046001600160a01b031690508085838151811061181057fe5b6001600160a01b03928316602091820292909201015283166342a28e2161183683611f7d565b6040518263ffffffff1660e01b81526004018082815260200191505060006040518083038186803b15801561186a57600080fd5b505afa92505050801561187b575060015b6118a257600184838151811061188d57fe5b911515602092830291909101909101526118c1565b60008483815181106118b057fe5b911515602092830291909101909101525b506001016117cc565b50919450925050509091565b60395460408051638b2f0f4f60e01b81526001600160a01b038581166004830152915160009384931691638b2f0f4f916024808301926020929190829003018186803b15801561192557600080fd5b505afa158015611939573d6000803e3d6000fd5b505050506040513d602081101561194f57600080fd5b5051905061196f670de0b6b3a76400006119698386613730565b90613789565b949350505050565b603b6020526000908152604090205481565b603854604080516321f8a72160e01b8152680a6f2dce8d0cae8d2f60bb1b6004820152905160009283926001600160a01b03909116916321f8a72191602480820192602092909190829003018186803b1580156119e557600080fd5b505afa1580156119f9573d6000803e3d6000fd5b505050506040513d6020811015611a0f57600080fd5b505160408051633260803960e01b81526004810186905290516001600160a01b0390921691633260803991602480820192602092909190829003018186803b158015611a5a57600080fd5b505afa158015611a6e573d6000803e3d6000fd5b505050506040513d6020811015611a8457600080fd5b505190506001600160a01b038116611ad1576040805162461bcd60e51b815260206004820152600b60248201526a696e76616c6964206b657960a81b604482015290519081900360640190fd5b6000816001600160a01b031663ec5568896040518163ffffffff1660e01b815260040160206040518083038186803b158015611b0c57600080fd5b505afa158015611b20573d6000803e3d6000fd5b505050506040513d6020811015611b3657600080fd5b505190506001600160a01b038116611b85576040805162461bcd60e51b815260206004820152600d60248201526c696e76616c69642070726f787960981b604482015290519081900360640190fd5b9392505050565b600080611ba4858560200260040160ff166020612f60565b90506000611bb786600484016020612f60565b905080611c00576040805162461bcd60e51b8152602060048201526012602482015271696e707574206973206e6f7420617272617960701b604482015290519081900360640190fd5b60ff84168111611c50576040805162461bcd60e51b815260206004820152601660248201527534b73b30b634b21030b93930bc903837b9b4ba34b7b760511b604482015290519081900360640190fd5b611c6a866020600160ff8816018102850160040190612f60565b9695505050505050565b6001600160a01b03166000908152603b6020526040902054151590565b6033546001600160a01b03163314611cdf576040805162461bcd60e51b815260206004820152600c60248201526b37b7363c9036b0b730b3b2b960a11b604482015290519081900360640190fd5b60005b8151811015611d3457611d07828281518110611cfa57fe5b6020026020010151612d19565b611d1057611d2c565b611d2c828281518110611d1f57fe5b6020026020010151613637565b600101611ce2565b5050565b6033546001600160a01b031690565b6033546001600160a01b03163314611d95576040805162461bcd60e51b815260206004820152600c60248201526b37b7363c9036b0b730b3b2b960a11b604482015290519081900360640190fd5b603380546001600160a01b0319166001600160a01b0384161790558051611dc3906034906020840190613e21565b507f6ed15082ad038474841528b5badca105106d4463e44b5d434130dfb299aa3669828260405180836001600160a01b0316815260200180602001828103825283818151815260200191508051906020019080838360005b83811015611e33578181015183820152602001611e1b565b50505050905090810190601f168015611e605780820380516001836020036101000a031916815260200191505b50935050505060405180910390a15050565b600081830184511015611ecc576040805162461bcd60e51b815260206004820152601b60248201527f52656164696e67206279746573206f7574206f6620626f756e64730000000000604482015290519081900360640190fd5b826020018401519050816004038015611eeb576008810260020a820491505b509392505050565b60395460408051635bd2a29360e11b81526001600160a01b0384811660048301528251600094859492169263b7a54526926024808301939192829003018186803b158015611f4057600080fd5b505afa158015611f54573d6000803e3d6000fd5b505050506040513d6040811015611f6a57600080fd5b5080516020909101519092509050915091565b6000611f8882612a2b565b611fcb576040805162461bcd60e51b815260206004820152600f60248201526e1b9bdb8b5cde5b9d1a08185cdcd95d608a1b604482015290519081900360640190fd5b603854604080516321f8a72160e01b8152680a6f2dce8d0cae8d2f60bb1b600482015290516001600160a01b03909216916321f8a72191602480820192602092909190829003018186803b15801561202257600080fd5b505afa158015612036573d6000803e3d6000fd5b505050506040513d602081101561204c57600080fd5b505160408051636a5c1cc960e11b815290516001600160a01b03928316926316b2213f929086169163d4b8399291600480820192602092909190829003018186803b15801561209a57600080fd5b505afa1580156120ae573d6000803e3d6000fd5b505050506040513d60208110156120c457600080fd5b5051604080516001600160e01b031960e085901b1681526001600160a01b039092166004830152516024808301926020929190829003018186803b15801561210b57600080fd5b505afa15801561211f573d6000803e3d6000fd5b505050506040513d602081101561213557600080fd5b505192915050565b6033546001600160a01b0316331461218b576040805162461bcd60e51b815260206004820152600c60248201526b37b7363c9036b0b730b3b2b960a11b604482015290519081900360640190fd5b60395460408051635c9bfc2b60e01b815290516000926001600160a01b031691635c9bfc2b916004808301926020929190829003018186803b1580156121d057600080fd5b505afa1580156121e4573d6000803e3d6000fd5b505050506040513d60208110156121fa57600080fd5b5051905060008061220a85611ef3565b909250905080841115612257576040805162461bcd60e51b815260206004820152601060248201526f34b73b30b634b210333930b1ba34b7b760811b604482015290519081900360640190fd5b61226182846137cb565b8411156122b5576040805162461bcd60e51b815260206004820152601960248201527f657863656564656420616c6c6f77656420696e63726561736500000000000000604482015290519081900360640190fd5b6039546040805163ebee461d60e01b815290516000926001600160a01b03169163ebee461d916004808301926020929190829003018186803b1580156122fa57600080fd5b505afa15801561230e573d6000803e3d6000fd5b505050506040513d602081101561232457600080fd5b5051603d869055428101603e81905560408051888152602081019290925280519293507f4db9119741646c419f1ceccdf112b5b9a9b4516355e742e1fa9c479f4dec98da92918290030190a1505050505050565b6033546001600160a01b031633146123c6576040805162461bcd60e51b815260206004820152600c60248201526b37b7363c9036b0b730b3b2b960a11b604482015290519081900360640190fd5b60005b8151811015611d34576123e1828281518110611cfa57fe5b156123eb57612407565b6124078282815181106123fa57fe5b6020026020010151613825565b6001016123c9565b6033546000906001600160a01b031633148061243557506037546001600160a01b031633145b61247f576040805162461bcd60e51b815260206004820152601660248201527537b7363c9036b0b730b3b2b91037b9103a3930b232b960511b604482015290519081900360640190fd5b6001600160a01b0383166124da576040805162461bcd60e51b815260206004820152601c60248201527f6e6f6e2d7a65726f206164647265737320697320726571756972656400000000604482015290519081900360640190fd5b60395460408051631c09fa9b60e21b81526001600160a01b03868116600483015291516000939290921691637027ea6c91602480820192602092909190829003018186803b15801561252b57600080fd5b505afa15801561253f573d6000803e3d6000fd5b505050506040513d602081101561255557600080fd5b505190506001600160a01b0381166125aa576040805162461bcd60e51b815260206004820152601360248201527234b73b30b634b2103232b9ba34b730ba34b7b760691b604482015290519081900360640190fd5b600080600080846001600160a01b031663e23ff43730896040518363ffffffff1660e01b815260040180836001600160a01b0316815260200180602001828103825283818151815260200191508051906020019080838360005b8381101561261c578181015183820152602001612604565b50505050905090810190601f1680156126495780820380516001836020036101000a031916815260200191505b50935050505060806040518083038186803b15801561266757600080fd5b505afa15801561267b573d6000803e3d6000fd5b505050506040513d608081101561269157600080fd5b5080516020820151604083015160609093015191965094509092509050600260ff851614156126e5576126d7886126c7856116a3565b846126d1856116a3565b8b613881565b6001955050505050506115b4565b6000886001600160a01b0316886040518082805190602001908083835b602083106127215780518252601f199092019160209182019101612702565b6001836020036101000a0380198251168184511680821785525050505050509050019150506000604051808303816000865af19150503d8060008114612783576040519150601f19603f3d011682016040523d82523d6000602084013e612788565b606091505b50909150506001811515146127e4576040805162461bcd60e51b815260206004820152601a60248201527f6661696c656420746f2065786563757465207468652063616c6c000000000000604482015290519081900360640190fd5b50600198975050505050505050565b603e5481565b6033546001600160a01b03163314612847576040805162461bcd60e51b815260206004820152600c60248201526b37b7363c9036b0b730b3b2b960a11b604482015290519081900360640190fd5b603780546001600160a01b0319169055565b603c6020526000908152604090205460ff1681565b6000611b85838360200260040160ff166020612f60565b603d5481565b6039546040805163cc435bf360e01b81526001600160a01b0384811660048301529151600093929092169163cc435bf391602480820192602092909190829003018186803b15801561210b57600080fd5b603a5490565b6033546001600160a01b03163314612930576040805162461bcd60e51b815260206004820152600c60248201526b37b7363c9036b0b730b3b2b960a11b604482015290519081900360640190fd5b603e54421015612987576040805162461bcd60e51b815260206004820152601960248201527f66656520696e6372656173652064656c61792061637469766500000000000000604482015290519081900360640190fd5b61299381603d54613ac1565b506000603d819055603e55565b6000806129b8848460200260040160ff166020612f60565b905061196f84600483016020612f60565b60606035805480602002602001604051908101604052809291908181526020018280548015612a2157602002820191906000526020600020905b81546001600160a01b03168152600190910190602001808311612a03575b5050505050905090565b6000612a3f826001600160a01b0316613c16565b612a80576040805162461bcd60e51b815260206004820152600d60248201526c1a5b9d985b1a5908185cdcd95d609a1b604482015290519081900360640190fd5b816001600160a01b031663d4b839926040518163ffffffff1660e01b815260040160206040518083038186803b158015612ab957600080fd5b505afa925050508015612ade57506040513d6020811015612ad957600080fd5b505160015b612b1c573d808015612b0c576040519150601f19603f3d011682016040523d82523d6000602084013e612b11565b606091505b5060009150506116a5565b603854604080516321f8a72160e01b8152680a6f2dce8d0cae8d2f60bb1b600482015290516000926001600160a01b0316916321f8a721916024808301926020929190829003018186803b158015612b7357600080fd5b505afa158015612b87573d6000803e3d6000fd5b505050506040513d6020811015612b9d57600080fd5b5051604080516316b2213f60e01b81526001600160a01b038581166004830152915191909216916316b2213f916024808301926020929190829003018186803b158015612be957600080fd5b505afa158015612bfd573d6000803e3d6000fd5b505050506040513d6020811015612c1357600080fd5b5051141591506116a59050565b60355490565b6033546001600160a01b03163314612c74576040805162461bcd60e51b815260206004820152600c60248201526b37b7363c9036b0b730b3b2b960a11b604482015290519081900360640190fd5b603780546001600160a01b0319166001600160a01b0392909216919091179055565b6033546001600160a01b03163314612ce4576040805162461bcd60e51b815260206004820152600c60248201526b37b7363c9036b0b730b3b2b960a11b604482015290519081900360640190fd5b6000603d819055603e8190556040517fc6f04bf43cbdf1ba5d51b4afa160bb3c7e13858b1409aa32868b239bb2f8d8499190a1565b6001600160a01b0316600090815260366020526040902054151590565b60006115b48260006004611e72565b6039546001600160a01b031681565b603a8181548110612d6157fe5b6000918252602090912001546001600160a01b0316905081565b6033546001600160a01b03163314612dc9576040805162461bcd60e51b815260206004820152600c60248201526b37b7363c9036b0b730b3b2b960a11b604482015290519081900360640190fd5b612dd281612d19565b15612ddc576114ae565b6114ae81613825565b6000816001600160a01b03166370a08231306040518263ffffffff1660e01b815260040180826001600160a01b0316815260200191505060206040518083038186803b15801561210b57600080fd5b600054610100900460ff1680612e4d5750612e4d613c4f565b80612e5b575060005460ff16155b612e965760405162461bcd60e51b815260040180806020018281038252602e815260200180613ed6602e913960400191505060405180910390fd5b600054610100900460ff16158015612ec1576000805460ff1961ff0019909116610100171660011790555b612ecb8585613c55565b603980546001600160a01b038089166001600160a01b031992831617909255603880549286169290911691909117905560005b82518160ff161015612f3157612f29838260ff1681518110612f1c57fe5b6020026020010151613413565b600101612efe565b508015612f44576000805461ff00191690555b505050505050565b60006115b482612f5b84612de5565b6118d6565b600081830184511015612fba576040805162461bcd60e51b815260206004820152601b60248201527f52656164696e67206279746573206f7574206f6620626f756e64730000000000604482015290519081900360640190fd5b826020018401519050816020038015611eeb5760080260020a90049392505050565b6060603a805480602002602001604051908101604052809291908181526020018280548015612a21576020028201919060005260206000209081546001600160a01b03168152600190910190602001808311612a03575050505050905090565b603d54603e549091565b603a5460609081908190818167ffffffffffffffff8111801561306857600080fd5b50604051908082528060200260200182016040528015613092578160200160208202803683370190505b50905060608267ffffffffffffffff811180156130ae57600080fd5b506040519080825280602002602001820160405280156130d8578160200160208202803683370190505b50905060608367ffffffffffffffff811180156130f457600080fd5b5060405190808252806020026020018201604052801561311e578160200160208202803683370190505b50905060005b8481101561322a576000603a828154811061313b57fe5b6000918252602090912001546001600160a01b0316905061315b81612de5565b84838151811061316757fe5b6020026020010181815250508085838151811061318057fe5b6001600160a01b0392831660209182029290920181019190915260395460408051638b2f0f4f60e01b8152858516600482015290519190931692638b2f0f4f926024808301939192829003018186803b1580156131dc57600080fd5b505afa1580156131f0573d6000803e3d6000fd5b505050506040513d602081101561320657600080fd5b5051835184908490811061321657fe5b602090810291909101015250600101613124565b509195509350915050909192565b60348054604080516020601f6002600019610100600188161502019095169490940493840181900481028201810190925282815260609390929091830182828015612a215780601f1061329957610100808354040283529160200191612a21565b820191906000526020600020905b8154815290600101906020018083116132a757509395945050505050565b603a546001600160a01b0382166000908152603b60205260408120546132ec906001613c88565b90506000603a6132fd846001613c88565b8154811061330757fe5b600091825260209091200154603a80546001600160a01b03909216925082918490811061333057fe5b600091825260209091200180546001600160a01b0319166001600160a01b03929092169190911790556133648260016137cb565b6001600160a01b038083166000908152603b602052604080822093909355908616815290812055603a80548061339657fe5b600082815260209020810160001990810180546001600160a01b03191690550190557f9b4f55639e5e283319baee5bc4e69a5625a8e3a1cc004af968f4fee725022027306133e2611d38565b604080516001600160a01b03938416815291831660208301529187168183015290519081900360600190a150505050565b603960009054906101000a90046001600160a01b03166001600160a01b031663aa12ae4d6040518163ffffffff1660e01b815260040160206040518083038186803b15801561346157600080fd5b505afa158015613475573d6000803e3d6000fd5b505050506040513d602081101561348b57600080fd5b5051603a54106134db576040805162461bcd60e51b81526020600482015260166024820152751b585e1a5b5d5b48185cdcd95d1cc81c995858da195960521b604482015290519081900360640190fd5b6134e481611c74565b15613536576040805162461bcd60e51b815260206004820152601760248201527f617373657420616c726561647920737570706f72746564000000000000000000604482015290519081900360640190fd5b61353f8161288b565b1515600114613585576040805162461bcd60e51b815260206004820152600d60248201526c1a5b9d985b1a5908185cdcd95d609a1b604482015290519081900360640190fd5b603a80546001810182557fa2999d817b6757290b50e8ecf3fa939673403dd35c97de392fdb343b4015ce9e0180546001600160a01b0319166001600160a01b03841690811790915590546000918252603b6020526040909120557f0a7426a0630aad7dbc4d5ca5b7d9aac1133d77d2db987caaf4b4186c85d6593f30613609611d38565b604080516001600160a01b03938416815291831660208301529184168183015290519081900360600190a150565b6035546001600160a01b03821660009081526036602052604081205461365e906001613c88565b90506000603561366f846001613c88565b8154811061367957fe5b600091825260209091200154603580546001600160a01b0390921692508291849081106136a257fe5b600091825260209091200180546001600160a01b0319166001600160a01b03929092169190911790556136d68260016137cb565b6001600160a01b0380831660009081526036602052604080822093909355908616815290812055603580548061370857fe5b600082815260209020810160001990810180546001600160a01b031916905501905550505050565b60008261373f575060006115b4565b8282028284828161374c57fe5b0414611b855760405162461bcd60e51b8152600401808060200182810382526021815260200180613eb56021913960400191505060405180910390fd5b6000611b8583836040518060400160405280601a81526020017f536166654d6174683a206469766973696f6e206279207a65726f000000000000815250613cca565b600082820183811015611b85576040805162461bcd60e51b815260206004820152601b60248201527f536166654d6174683a206164646974696f6e206f766572666c6f770000000000604482015290519081900360640190fd5b603580546001810182557fcfa4bec1d3298408bb5afcfcd9c430549c5b31f8aa5c5848151c0a55f473c34d0180546001600160a01b039093166001600160a01b0319909316831790555460009182526036602052604090912055565b61388a84611c74565b6138db576040805162461bcd60e51b815260206004820152601860248201527f756e737570706f7274656420736f757263652061737365740000000000000000604482015290519081900360640190fd5b6138e482611c74565b613935576040805162461bcd60e51b815260206004820152601d60248201527f756e737570706f727465642064657374696e6174696f6e206173736574000000604482015290519081900360640190fd5b60006060866001600160a01b0316836040518082805190602001908083835b602083106139735780518252601f199092019160209182019101613954565b6001836020036101000a0380198251168184511680821785525050505050509050019150506000604051808303816000865af19150503d80600081146139d5576040519150601f19603f3d011682016040523d82523d6000602084013e6139da565b606091505b509092509050600182151514613a37576040805162461bcd60e51b815260206004820152601a60248201527f6661696c656420746f20657865637574652065786368616e6765000000000000604482015290519081900360640190fd5b7f2083d2b241ef1ec859ae0402864fd9fe9d6d36b18c73615625b46acaf113be7830613a61611d38565b888888613a6f876000613d6c565b604080516001600160a01b0397881681529587166020870152938616858501526060850192909252909316608083015260a08201929092524260c082015290519081900360e00190a150505050505050565b6039546040805163011adcb160e21b81526001600160a01b038581166004830152602482018590529151919092169163046b72c491604480830192600092919082900301818387803b158015613b1657600080fd5b505af1158015613b2a573d6000803e3d6000fd5b505060395460408051635bd2a29360e11b81526001600160a01b03878116600483015282516000965086955093169263b7a5452692602480840193919291829003018186803b158015613b7c57600080fd5b505afa158015613b90573d6000803e3d6000fd5b505050506040513d6040811015613ba657600080fd5b50805160209091015190925090507f1780c04ddc6f0b32d866c7a3d7583f53515ef49ed2126af868f804f49160126630613bde611d38565b604080516001600160a01b0393841681529190921660208201528082018590526060810184905290519081900360800190a150505050565b6000813f7fc5d2460186f7233c927e7db2dcc703c0e500b653ca82273b7bfad8045d85a47081811480159061196f575050151592915050565b303b1590565b603380546001600160a01b0319166001600160a01b0384161790558051613c83906034906020840190613e21565b505050565b6000611b8583836040518060400160405280601e81526020017f536166654d6174683a207375627472616374696f6e206f766572666c6f770000815250613dc7565b60008183613d565760405162461bcd60e51b81526004018080602001828103825283818151815260200191508051906020019080838360005b83811015613d1b578181015183820152602001613d03565b50505050905090810190601f168015613d485780820380516001836020036101000a031916815260200191505b509250505060405180910390fd5b506000838581613d6257fe5b0495945050505050565b60008160200183511015613dbe576040805162461bcd60e51b8152602060048201526014602482015273736c6963696e67206f7574206f662072616e676560601b604482015290519081900360640190fd5b50016020015190565b60008184841115613e195760405162461bcd60e51b8152602060048201818152835160248401528351909283926044909101919085019080838360008315613d1b578181015183820152602001613d03565b505050900390565b828054600181600116156101000203166002900490600052602060002090601f016020900481019282601f10613e6257805160ff1916838001178555613e8f565b82800160010185558215613e8f579182015b82811115613e8f578251825591602001919060010190613e74565b50613e9b929150613e9f565b5090565b5b80821115613e9b5760008155600101613ea056fe536166654d6174683a206d756c7469706c69636174696f6e206f766572666c6f77436f6e747261637420696e7374616e63652068617320616c7265616479206265656e20696e697469616c697a6564a2646970667358221220d1bfb56d50c2563520c5fcf20321fbded01e16519cbdfd42880fbb8af024695a64736f6c634300060c0033",
  "linkReferences": {},
  "deployedLinkReferences": {}
}