{
  "_format": "hh-sol-artifact-1",
  "contractName": "PoolManagerLogic",
  "sourceName": "contracts/PoolManagerLogic.sol",
  "abi": [
    {
      "anonymous": false,
      "inputs": [
        {
          "indexed": false,
          "internalType": "address",
          "name": "fundAddress",
          "type": "address"
        },
        {
          "indexed": false,
          "internalType": "address",
          "name": "manager",
          "type": "address"
        },
        {
          "indexed": false,
          "internalType": "bytes32",
          "name": "assetKey",
          "type": "bytes32"
        }
      ],
      "name": "AssetAdded",
      "type": "event"
    },
    {
      "anonymous": false,
      "inputs": [
        {
          "indexed": false,
          "internalType": "address",
          "name": "fundAddress",
          "type": "address"
        },
        {
          "indexed": false,
          "internalType": "address",
          "name": "manager",
          "type": "address"
        },
        {
          "indexed": false,
          "internalType": "bytes32",
          "name": "assetKey",
          "type": "bytes32"
        }
      ],
      "name": "AssetRemoved",
      "type": "event"
    },
    {
      "anonymous": false,
      "inputs": [
        {
          "indexed": false,
          "internalType": "address",
          "name": "fundAddress",
          "type": "address"
        },
        {
          "indexed": false,
          "internalType": "address",
          "name": "manager",
          "type": "address"
        },
        {
          "indexed": false,
          "internalType": "bytes32",
          "name": "sourceKey",
          "type": "bytes32"
        },
        {
          "indexed": false,
          "internalType": "uint256",
          "name": "sourceAmount",
          "type": "uint256"
        },
        {
          "indexed": false,
          "internalType": "bytes32",
          "name": "destinationKey",
          "type": "bytes32"
        },
        {
          "indexed": false,
          "internalType": "uint256",
          "name": "destinationAmount",
          "type": "uint256"
        },
        {
          "indexed": false,
          "internalType": "uint256",
          "name": "time",
          "type": "uint256"
        }
      ],
      "name": "Exchange",
      "type": "event"
    },
    {
      "anonymous": false,
      "inputs": [
        {
          "indexed": false,
          "internalType": "uint256",
          "name": "newNumerator",
          "type": "uint256"
        },
        {
          "indexed": false,
          "internalType": "uint256",
          "name": "announcedFeeActivationTime",
          "type": "uint256"
        }
      ],
      "name": "ManagerFeeIncreaseAnnounced",
      "type": "event"
    },
    {
      "anonymous": false,
      "inputs": [],
      "name": "ManagerFeeIncreaseRenounced",
      "type": "event"
    },
    {
      "anonymous": false,
      "inputs": [
        {
          "indexed": false,
          "internalType": "address",
          "name": "fundAddress",
          "type": "address"
        },
        {
          "indexed": false,
          "internalType": "address",
          "name": "manager",
          "type": "address"
        },
        {
          "indexed": false,
          "internalType": "uint256",
          "name": "numerator",
          "type": "uint256"
        },
        {
          "indexed": false,
          "internalType": "uint256",
          "name": "denominator",
          "type": "uint256"
        }
      ],
      "name": "ManagerFeeSet",
      "type": "event"
    },
    {
      "anonymous": false,
      "inputs": [
        {
          "indexed": false,
          "internalType": "address",
          "name": "newManager",
          "type": "address"
        },
        {
          "indexed": false,
          "internalType": "string",
          "name": "newManagerName",
          "type": "string"
        }
      ],
      "name": "ManagerUpdated",
      "type": "event"
    },
    {
      "inputs": [
        {
          "internalType": "address",
          "name": "member",
          "type": "address"
        }
      ],
      "name": "addMember",
      "outputs": [],
      "stateMutability": "nonpayable",
      "type": "function"
    },
    {
      "inputs": [
        {
          "internalType": "address[]",
          "name": "members",
          "type": "address[]"
        }
      ],
      "name": "addMembers",
      "outputs": [],
      "stateMutability": "nonpayable",
      "type": "function"
    },
    {
      "inputs": [
        {
          "internalType": "bytes32",
          "name": "key",
          "type": "bytes32"
        }
      ],
      "name": "addToSupportedAssets",
      "outputs": [],
      "stateMutability": "nonpayable",
      "type": "function"
    },
    {
      "inputs": [],
      "name": "addressResolver",
      "outputs": [
        {
          "internalType": "contract IAddressResolver",
          "name": "",
          "type": "address"
        }
      ],
      "stateMutability": "view",
      "type": "function"
    },
    {
      "inputs": [
        {
          "internalType": "uint256",
          "name": "numerator",
          "type": "uint256"
        }
      ],
      "name": "announceManagerFeeIncrease",
      "outputs": [],
      "stateMutability": "nonpayable",
      "type": "function"
    },
    {
      "inputs": [],
      "name": "announcedFeeIncreaseNumerator",
      "outputs": [
        {
          "internalType": "uint256",
          "name": "",
          "type": "uint256"
        }
      ],
      "stateMutability": "view",
      "type": "function"
    },
    {
      "inputs": [],
      "name": "announcedFeeIncreaseTimestamp",
      "outputs": [
        {
          "internalType": "uint256",
          "name": "",
          "type": "uint256"
        }
      ],
      "stateMutability": "view",
      "type": "function"
    },
    {
      "inputs": [
        {
          "internalType": "bytes32",
          "name": "",
          "type": "bytes32"
        }
      ],
      "name": "assetPosition",
      "outputs": [
        {
          "internalType": "uint256",
          "name": "",
          "type": "uint256"
        }
      ],
      "stateMutability": "view",
      "type": "function"
    },
    {
      "inputs": [
        {
          "internalType": "bytes32",
          "name": "key",
          "type": "bytes32"
        }
      ],
      "name": "assetValue",
      "outputs": [
        {
          "internalType": "uint256",
          "name": "",
          "type": "uint256"
        }
      ],
      "stateMutability": "view",
      "type": "function"
    },
    {
      "inputs": [
        {
          "internalType": "address",
          "name": "newManager",
          "type": "address"
        },
        {
          "internalType": "string",
          "name": "newManagerName",
          "type": "string"
        }
      ],
      "name": "changeManager",
      "outputs": [],
      "stateMutability": "nonpayable",
      "type": "function"
    },
    {
      "inputs": [],
      "name": "commitManagerFeeIncrease",
      "outputs": [],
      "stateMutability": "nonpayable",
      "type": "function"
    },
    {
      "inputs": [
        {
          "internalType": "bytes32",
          "name": "sourceKey",
          "type": "bytes32"
        },
        {
          "internalType": "uint256",
          "name": "sourceAmount",
          "type": "uint256"
        },
        {
          "internalType": "bytes32",
          "name": "destinationKey",
          "type": "bytes32"
        }
      ],
      "name": "exchange",
      "outputs": [],
      "stateMutability": "nonpayable",
      "type": "function"
    },
    {
      "inputs": [],
      "name": "factory",
      "outputs": [
        {
          "internalType": "address",
          "name": "",
          "type": "address"
        }
      ],
      "stateMutability": "view",
      "type": "function"
    },
    {
      "inputs": [
        {
          "internalType": "bytes32",
          "name": "key",
          "type": "bytes32"
        }
      ],
      "name": "getAssetProxy",
      "outputs": [
        {
          "internalType": "address",
          "name": "",
          "type": "address"
        }
      ],
      "stateMutability": "view",
      "type": "function"
    },
    {
      "inputs": [],
      "name": "getFundComposition",
      "outputs": [
        {
          "internalType": "bytes32[]",
          "name": "",
          "type": "bytes32[]"
        },
        {
          "internalType": "uint256[]",
          "name": "",
          "type": "uint256[]"
        },
        {
          "internalType": "uint256[]",
          "name": "",
          "type": "uint256[]"
        }
      ],
      "stateMutability": "view",
      "type": "function"
    },
    {
      "inputs": [],
      "name": "getManagerFee",
      "outputs": [
        {
          "internalType": "uint256",
          "name": "",
          "type": "uint256"
        },
        {
          "internalType": "uint256",
          "name": "",
          "type": "uint256"
        }
      ],
      "stateMutability": "view",
      "type": "function"
    },
    {
      "inputs": [],
      "name": "getManagerFeeIncreaseInfo",
      "outputs": [
        {
          "internalType": "uint256",
          "name": "",
          "type": "uint256"
        },
        {
          "internalType": "uint256",
          "name": "",
          "type": "uint256"
        }
      ],
      "stateMutability": "view",
      "type": "function"
    },
    {
      "inputs": [],
      "name": "getMembers",
      "outputs": [
        {
          "internalType": "address[]",
          "name": "",
          "type": "address[]"
        }
      ],
      "stateMutability": "view",
      "type": "function"
    },
    {
      "inputs": [],
      "name": "getSupportedAssets",
      "outputs": [
        {
          "internalType": "bytes32[]",
          "name": "",
          "type": "bytes32[]"
        }
      ],
      "stateMutability": "view",
      "type": "function"
    },
    {
      "inputs": [],
      "name": "getSuspendedAssets",
      "outputs": [
        {
          "internalType": "bytes32[]",
          "name": "",
          "type": "bytes32[]"
        },
        {
          "internalType": "bool[]",
          "name": "",
          "type": "bool[]"
        }
      ],
      "stateMutability": "view",
      "type": "function"
    },
    {
      "inputs": [
        {
          "internalType": "address",
          "name": "_factory",
          "type": "address"
        },
        {
          "internalType": "address",
          "name": "_manager",
          "type": "address"
        },
        {
          "internalType": "string",
          "name": "_managerName",
          "type": "string"
        },
        {
          "internalType": "contract IAddressResolver",
          "name": "_addressResolver",
          "type": "address"
        },
        {
          "internalType": "bytes32[]",
          "name": "_supportedAssets",
          "type": "bytes32[]"
        }
      ],
      "name": "initialize",
      "outputs": [],
      "stateMutability": "nonpayable",
      "type": "function"
    },
    {
      "inputs": [
        {
          "internalType": "bytes32",
          "name": "key",
          "type": "bytes32"
        }
      ],
      "name": "isAssetSupported",
      "outputs": [
        {
          "internalType": "bool",
          "name": "",
          "type": "bool"
        }
      ],
      "stateMutability": "view",
      "type": "function"
    },
    {
      "inputs": [
        {
          "internalType": "address",
          "name": "member",
          "type": "address"
        }
      ],
      "name": "isMemberAllowed",
      "outputs": [
        {
          "internalType": "bool",
          "name": "",
          "type": "bool"
        }
      ],
      "stateMutability": "view",
      "type": "function"
    },
    {
      "inputs": [],
      "name": "manager",
      "outputs": [
        {
          "internalType": "address",
          "name": "",
          "type": "address"
        }
      ],
      "stateMutability": "view",
      "type": "function"
    },
    {
      "inputs": [],
      "name": "managerName",
      "outputs": [
        {
          "internalType": "string",
          "name": "",
          "type": "string"
        }
      ],
      "stateMutability": "view",
      "type": "function"
    },
    {
      "inputs": [],
      "name": "numberOfMembers",
      "outputs": [
        {
          "internalType": "uint256",
          "name": "",
          "type": "uint256"
        }
      ],
      "stateMutability": "view",
      "type": "function"
    },
    {
      "inputs": [],
      "name": "numberOfSupportedAssets",
      "outputs": [
        {
          "internalType": "uint256",
          "name": "",
          "type": "uint256"
        }
      ],
      "stateMutability": "view",
      "type": "function"
    },
    {
      "inputs": [
        {
          "internalType": "bytes32",
          "name": "",
          "type": "bytes32"
        }
      ],
      "name": "persistentAsset",
      "outputs": [
        {
          "internalType": "bool",
          "name": "",
          "type": "bool"
        }
      ],
      "stateMutability": "view",
      "type": "function"
    },
    {
      "inputs": [
        {
          "internalType": "bytes32",
          "name": "key",
          "type": "bytes32"
        }
      ],
      "name": "removeFromSupportedAssets",
      "outputs": [],
      "stateMutability": "nonpayable",
      "type": "function"
    },
    {
      "inputs": [
        {
          "internalType": "address",
          "name": "member",
          "type": "address"
        }
      ],
      "name": "removeMember",
      "outputs": [],
      "stateMutability": "nonpayable",
      "type": "function"
    },
    {
      "inputs": [
        {
          "internalType": "address[]",
          "name": "members",
          "type": "address[]"
        }
      ],
      "name": "removeMembers",
      "outputs": [],
      "stateMutability": "nonpayable",
      "type": "function"
    },
    {
      "inputs": [],
      "name": "removeTrader",
      "outputs": [],
      "stateMutability": "nonpayable",
      "type": "function"
    },
    {
      "inputs": [],
      "name": "renounceManagerFeeIncrease",
      "outputs": [],
      "stateMutability": "nonpayable",
      "type": "function"
    },
    {
      "inputs": [
        {
          "internalType": "address",
          "name": "_addressResolver",
          "type": "address"
        }
      ],
      "name": "setAddressResolver",
      "outputs": [],
      "stateMutability": "nonpayable",
      "type": "function"
    },
    {
      "inputs": [
        {
          "internalType": "uint256",
          "name": "numerator",
          "type": "uint256"
        }
      ],
      "name": "setManagerFeeNumerator",
      "outputs": [],
      "stateMutability": "nonpayable",
      "type": "function"
    },
    {
      "inputs": [
        {
          "internalType": "address",
          "name": "newTrader",
          "type": "address"
        }
      ],
      "name": "setTrader",
      "outputs": [],
      "stateMutability": "nonpayable",
      "type": "function"
    },
    {
      "inputs": [
        {
          "internalType": "uint256",
          "name": "",
          "type": "uint256"
        }
      ],
      "name": "supportedAssets",
      "outputs": [
        {
          "internalType": "bytes32",
          "name": "",
          "type": "bytes32"
        }
      ],
      "stateMutability": "view",
      "type": "function"
    },
    {
      "inputs": [],
      "name": "trader",
      "outputs": [
        {
          "internalType": "address",
          "name": "",
          "type": "address"
        }
      ],
      "stateMutability": "view",
      "type": "function"
    },
    {
      "inputs": [
        {
          "internalType": "bytes32",
          "name": "key",
          "type": "bytes32"
        }
      ],
      "name": "validateAsset",
      "outputs": [
        {
          "internalType": "bool",
          "name": "",
          "type": "bool"
        }
      ],
      "stateMutability": "view",
      "type": "function"
    }
  ],
  "bytecode": "0x608060405234801561001057600080fd5b50613005806100206000396000f3fe608060405234801561001057600080fd5b506004361061023d5760003560e01c80638f3234391161013b578063d3cfb3b6116100b8578063eb94917d1161007c578063eb94917d146107f3578063ed5b165d14610943578063ee52a2f31461094b578063f09d14d714610974578063fed4416a14610a5a5761023d565b8063d3cfb3b614610777578063d44fa33e14610794578063d78d7c2e146107b1578063e5406dbf146107ce578063e5ea7759146107d65761023d565b8063b8bd81e6116100ff578063b8bd81e6146106fe578063bbbf725b14610706578063c45a01551461072c578063c68dbb3714610734578063ca6d56dc146107515761023d565b80638f32343914610668578063936553c4146106705780639eab525314610678578063a30e3fa9146106d0578063a6bc18f9146106d85761023d565b806346ee84b0116101c9578063670797491161018d578063670797491461057e5780636e890f3c146105af5780636f4d469b146105b75780637b4d0c63146106585780637c8afd51146106605761023d565b806346ee84b0146103e7578063481c6a7514610488578063522136631461049057806353d9133e1461054457806353f064c9146105615761023d565b8063143023871161021057806314302387146102da5780631758078b14610300578063198055381461030857806321f8c984146103295780633ded6530146103ca5761023d565b8063023f21de146102425780630499123f1461026157806305a2ee2a146102905780630b1ca49a146102b4575b600080fd5b61025f6004803603602081101561025857600080fd5b5035610ad7565b005b61027e6004803603602081101561027757600080fd5b5035610d57565b60408051918252519081900360200190f35b610298610ef4565b604080516001600160a01b039092168252519081900360200190f35b61025f600480360360208110156102ca57600080fd5b50356001600160a01b0316610f03565b61025f600480360360208110156102f057600080fd5b50356001600160a01b0316610f6c565b610298610fdd565b610310610fec565b6040805192835260208301919091528051918290030190f35b610331611073565b604051808060200180602001838103835285818151815260200191508051906020019060200280838360005b8381101561037557818101518382015260200161035d565b50505050905001838103825284818151815260200191508051906020019060200280838360005b838110156103b457818101518382015260200161039c565b5050505090500194505050505060405180910390f35b610298600480360360208110156103e057600080fd5b5035611282565b61025f600480360360208110156103fd57600080fd5b810190602081018135600160201b81111561041757600080fd5b82018360208201111561042957600080fd5b803590602001918460208302840111600160201b8311171561044a57600080fd5b919080806020026020016040519081016040528093929190818152602001838360200280828437600092019190915250929550611485945050505050565b61029861152c565b61025f600480360360408110156104a657600080fd5b6001600160a01b038235169190810190604081016020820135600160201b8111156104d057600080fd5b8201836020820111156104e257600080fd5b803590602001918460018302840111600160201b8311171561050357600080fd5b91908080601f01602080910402602001604051908101604052809392919081815260200183838082843760009201919091525092955061153b945050505050565b61025f6004803603602081101561055a57600080fd5b5035611666565b61025f6004803603602081101561057757600080fd5b50356116dc565b61059b6004803603602081101561059457600080fd5b50356118c9565b604080519115158252519081900360200190f35b61025f6118de565b61025f600480360360208110156105cd57600080fd5b810190602081018135600160201b8111156105e757600080fd5b8201836020820111156105f957600080fd5b803590602001918460208302840111600160201b8311171561061a57600080fd5b91908080602002602001604051908101604052809392919081815260200183836020028082843760009201919091525092955061199a945050505050565b61027e611a31565b61025f611a37565b61027e611a97565b61027e611a9d565b610680611aa3565b60408051602080825283518183015283519192839290830191858101910280838360005b838110156106bc5781810151838201526020016106a4565b505050509050019250505060405180910390f35b61027e611b05565b61025f600480360360208110156106ee57600080fd5b50356001600160a01b0316611b0b565b61025f611b7b565b61059b6004803603602081101561071c57600080fd5b50356001600160a01b0316611bfe565b610298611c1b565b61027e6004803603602081101561074a57600080fd5b5035611c2a565b61025f6004803603602081101561076757600080fd5b50356001600160a01b0316611c48565b61025f6004803603602081101561078d57600080fd5b5035611cb2565b61059b600480360360208110156107aa57600080fd5b5035611d09565b61027e600480360360208110156107c757600080fd5b5035611d1d565b610680611d2f565b61059b600480360360208110156107ec57600080fd5b5035611d86565b61025f600480360360a081101561080957600080fd5b6001600160a01b038235811692602081013590911691810190606081016040820135600160201b81111561083c57600080fd5b82018360208201111561084e57600080fd5b803590602001918460018302840111600160201b8311171561086f57600080fd5b91908080601f01602080910402602001604051908101604052809392919081815260200183838082843760009201919091525092956001600160a01b03853516959094909350604081019250602001359050600160201b8111156108d257600080fd5b8201836020820111156108e457600080fd5b803590602001918460208302840111600160201b8311171561090557600080fd5b919080806020026020016040519081016040528093929190818152602001838360200280828437600092019190915250929550611f29945050505050565b61031061208d565b61025f6004803603606081101561096157600080fd5b5080359060208101359060400135612097565b61097c612423565b60405180806020018060200180602001848103845287818151815260200191508051906020019060200280838360005b838110156109c45781810151838201526020016109ac565b50505050905001848103835286818151815260200191508051906020019060200280838360005b83811015610a035781810151838201526020016109eb565b50505050905001848103825285818151815260200191508051906020019060200280838360005b83811015610a42578181015183820152602001610a2a565b50505050905001965050505050505060405180910390f35b610a62612706565b6040805160208082528351818301528351919283929083019185019080838360005b83811015610a9c578181015183820152602001610a84565b50505050905090810190601f168015610ac95780820380516001836020036101000a031916815260200191505b509250505060405180910390f35b606a60009054906101000a90046001600160a01b03166001600160a01b0316638da5cb5b6040518163ffffffff1660e01b815260040160206040518083038186803b158015610b2557600080fd5b505afa158015610b39573d6000803e3d6000fd5b505050506040513d6020811015610b4f57600080fd5b50516001600160a01b0316331480610b7f5750610b6a61152c565b6001600160a01b0316336001600160a01b0316145b80610ba25750610b8d610fdd565b6001600160a01b0316336001600160a01b0316145b610bdd5760405162461bcd60e51b8152600401808060200182810382526024815260200180612f7e6024913960400191505060405180910390fd5b610be681611d09565b610c2d576040805162461bcd60e51b8152602060048201526013602482015272185cdcd95d081b9bdd081cdd5c1c1bdc9d1959606a1b604482015290519081900360640190fd5b6000818152606d602052604090205460ff1615610c7b5760405162461bcd60e51b8152600401808060200182810382526022815260200180612f5c6022913960400191505060405180910390fd5b610c8481611d86565b151560011415610d4b57610c9781611282565b6001600160a01b03166370a08231306040518263ffffffff1660e01b815260040180826001600160a01b0316815260200191505060206040518083038186803b158015610ce357600080fd5b505afa158015610cf7573d6000803e3d6000fd5b505050506040513d6020811015610d0d57600080fd5b505115610d4b5760405162461bcd60e51b8152600401808060200182810382526021815260200180612f3b6021913960400191505060405180910390fd5b610d5481612792565b50565b606954604080516321f8a72160e01b81526c45786368616e6765526174657360981b600482015290516000926001600160a01b0316916321f8a721916024808301926020929190829003018186803b158015610db257600080fd5b505afa158015610dc6573d6000803e3d6000fd5b505050506040513d6020811015610ddc57600080fd5b50516001600160a01b031663654a60ac83610df681611282565b6001600160a01b03166370a08231306040518263ffffffff1660e01b815260040180826001600160a01b0316815260200191505060206040518083038186803b158015610e4257600080fd5b505afa158015610e56573d6000803e3d6000fd5b505050506040513d6020811015610e6c57600080fd5b5051604080516001600160e01b031960e086901b16815260048101939093526024830191909152631cd554d160e21b6044830152516064808301926020929190829003018186803b158015610ec057600080fd5b505afa158015610ed4573d6000803e3d6000fd5b505050506040513d6020811015610eea57600080fd5b505190505b919050565b6069546001600160a01b031681565b6000546001600160a01b03163314610f51576040805162461bcd60e51b815260206004820152600c60248201526b37b7363c9036b0b730b3b2b960a11b604482015290519081900360640190fd5b610f5a81611bfe565b610f6357610d54565b610d5481612892565b606a546001600160a01b03163314610fbb576040805162461bcd60e51b815260206004820152600d60248201526c3737903832b936b4b9b9b4b7b760991b604482015290519081900360640190fd5b606980546001600160a01b0319166001600160a01b0392909216919091179055565b6004546001600160a01b031690565b606a5460408051635bd2a29360e11b8152306004820152815160009384936001600160a01b039091169263b7a545269260248083019392829003018186803b15801561103757600080fd5b505afa15801561104b573d6000803e3d6000fd5b505050506040513d604081101561106157600080fd5b50805160209091015190925090509091565b606b546060908190818167ffffffffffffffff8111801561109357600080fd5b506040519080825280602002602001820160405280156110bd578160200160208202803683370190505b50905060608267ffffffffffffffff811180156110d957600080fd5b50604051908082528060200260200182016040528015611103578160200160208202803683370190505b50606954604080516321f8a72160e01b81526b53797374656d53746174757360a01b600482015290519293506000926001600160a01b03909216916321f8a72191602480820192602092909190829003018186803b15801561116457600080fd5b505afa158015611178573d6000803e3d6000fd5b505050506040513d602081101561118e57600080fd5b5051905060005b84811015611276576000606b82815481106111ac57fe5b90600052602060002001549050808583815181106111c657fe5b602002602001018181525050826001600160a01b03166342a28e21826040518263ffffffff1660e01b81526004018082815260200191505060006040518083038186803b15801561121657600080fd5b505afa925050508015611227575060015b61124e57600184838151811061123957fe5b9115156020928302919091019091015261126d565b600084838151811061125c57fe5b911515602092830291909101909101525b50600101611195565b50919450925050509091565b606954604080516321f8a72160e01b8152680a6f2dce8d0cae8d2f60bb1b6004820152905160009283926001600160a01b03909116916321f8a72191602480820192602092909190829003018186803b1580156112de57600080fd5b505afa1580156112f2573d6000803e3d6000fd5b505050506040513d602081101561130857600080fd5b505160408051633260803960e01b81526004810186905290516001600160a01b0390921691633260803991602480820192602092909190829003018186803b15801561135357600080fd5b505afa158015611367573d6000803e3d6000fd5b505050506040513d602081101561137d57600080fd5b505190506001600160a01b0381166113ca576040805162461bcd60e51b815260206004820152600b60248201526a696e76616c6964206b657960a81b604482015290519081900360640190fd5b6000816001600160a01b031663ec5568896040518163ffffffff1660e01b815260040160206040518083038186803b15801561140557600080fd5b505afa158015611419573d6000803e3d6000fd5b505050506040513d602081101561142f57600080fd5b505190506001600160a01b03811661147e576040805162461bcd60e51b815260206004820152600d60248201526c696e76616c69642070726f787960981b604482015290519081900360640190fd5b9392505050565b6000546001600160a01b031633146114d3576040805162461bcd60e51b815260206004820152600c60248201526b37b7363c9036b0b730b3b2b960a11b604482015290519081900360640190fd5b60005b8151811015611528576114fb8282815181106114ee57fe5b6020026020010151611bfe565b61150457611520565b61152082828151811061151357fe5b6020026020010151612892565b6001016114d6565b5050565b6000546001600160a01b031690565b6000546001600160a01b03163314611589576040805162461bcd60e51b815260206004820152600c60248201526b37b7363c9036b0b730b3b2b960a11b604482015290519081900360640190fd5b600080546001600160a01b0319166001600160a01b03841617905580516115b7906001906020840190612ea7565b507f6ed15082ad038474841528b5badca105106d4463e44b5d434130dfb299aa3669828260405180836001600160a01b0316815260200180602001828103825283818151815260200191508051906020019080838360005b8381101561162757818101518382015260200161160f565b50505050905090810190601f1680156116545780820380516001836020036101000a031916815260200191505b50935050505060405180910390a15050565b6000546001600160a01b031633148061168957506004546001600160a01b031633145b6116d3576040805162461bcd60e51b815260206004820152601660248201527537b7363c9036b0b730b3b2b91037b9103a3930b232b960511b604482015290519081900360640190fd5b610d548161298b565b6000546001600160a01b0316331461172a576040805162461bcd60e51b815260206004820152600c60248201526b37b7363c9036b0b730b3b2b960a11b604482015290519081900360640190fd5b606a5460408051635c9bfc2b60e01b815290516000926001600160a01b031691635c9bfc2b916004808301926020929190829003018186803b15801561176f57600080fd5b505afa158015611783573d6000803e3d6000fd5b505050506040513d602081101561179957600080fd5b5051905060006117a7610fec565b5090506117b48183612b93565b831115611808576040805162461bcd60e51b815260206004820152601960248201527f657863656564656420616c6c6f77656420696e63726561736500000000000000604482015290519081900360640190fd5b606a546040805163ebee461d60e01b815290516000926001600160a01b03169163ebee461d916004808301926020929190829003018186803b15801561184d57600080fd5b505afa158015611861573d6000803e3d6000fd5b505050506040513d602081101561187757600080fd5b5051606e859055428101606f81905560408051878152602081019290925280519293507f4db9119741646c419f1ceccdf112b5b9a9b4516355e742e1fa9c479f4dec98da92918290030190a150505050565b606d6020526000908152604090205460ff1681565b6000546001600160a01b0316331461192c576040805162461bcd60e51b815260206004820152600c60248201526b37b7363c9036b0b730b3b2b960a11b604482015290519081900360640190fd5b606f54421015611983576040805162461bcd60e51b815260206004820152601960248201527f66656520696e6372656173652064656c61792061637469766500000000000000604482015290519081900360640190fd5b61198e606e54612bed565b6000606e819055606f55565b6000546001600160a01b031633146119e8576040805162461bcd60e51b815260206004820152600c60248201526b37b7363c9036b0b730b3b2b960a11b604482015290519081900360640190fd5b60005b815181101561152857611a038282815181106114ee57fe5b15611a0d57611a29565b611a29828281518110611a1c57fe5b6020026020010151612d3e565b6001016119eb565b606f5481565b6000546001600160a01b03163314611a85576040805162461bcd60e51b815260206004820152600c60248201526b37b7363c9036b0b730b3b2b960a11b604482015290519081900360640190fd5b600480546001600160a01b0319169055565b606e5481565b606b5490565b60606002805480602002602001604051908101604052809291908181526020018280548015611afb57602002820191906000526020600020905b81546001600160a01b03168152600190910190602001808311611add575b5050505050905090565b60025490565b6000546001600160a01b03163314611b59576040805162461bcd60e51b815260206004820152600c60248201526b37b7363c9036b0b730b3b2b960a11b604482015290519081900360640190fd5b600480546001600160a01b0319166001600160a01b0392909216919091179055565b6000546001600160a01b03163314611bc9576040805162461bcd60e51b815260206004820152600c60248201526b37b7363c9036b0b730b3b2b960a11b604482015290519081900360640190fd5b6000606e819055606f8190556040517fc6f04bf43cbdf1ba5d51b4afa160bb3c7e13858b1409aa32868b239bb2f8d8499190a1565b6001600160a01b0316600090815260036020526040902054151590565b606a546001600160a01b031681565b606b8181548110611c3757fe5b600091825260209091200154905081565b6000546001600160a01b03163314611c96576040805162461bcd60e51b815260206004820152600c60248201526b37b7363c9036b0b730b3b2b960a11b604482015290519081900360640190fd5b611c9f81611bfe565b15611ca957610d54565b610d5481612d3e565b6000546001600160a01b03163314611d00576040805162461bcd60e51b815260206004820152600c60248201526b37b7363c9036b0b730b3b2b960a11b604482015290519081900360640190fd5b610d5481612bed565b6000908152606c6020526040902054151590565b606c6020526000908152604090205481565b6060606b805480602002602001604051908101604052809291908181526020018280548015611afb57602002820191906000526020600020905b815481526020019060010190808311611d69575050505050905090565b606954604080516321f8a72160e01b8152680a6f2dce8d0cae8d2f60bb1b6004820152905160009283926001600160a01b03909116916321f8a72191602480820192602092909190829003018186803b158015611de257600080fd5b505afa158015611df6573d6000803e3d6000fd5b505050506040513d6020811015611e0c57600080fd5b505160408051633260803960e01b81526004810186905290516001600160a01b0390921691633260803991602480820192602092909190829003018186803b158015611e5757600080fd5b505afa158015611e6b573d6000803e3d6000fd5b505050506040513d6020811015611e8157600080fd5b505190506001600160a01b038116611e9d576000915050610eef565b6000816001600160a01b031663ec5568896040518163ffffffff1660e01b815260040160206040518083038186803b158015611ed857600080fd5b505afa158015611eec573d6000803e3d6000fd5b505050506040513d6020811015611f0257600080fd5b505190506001600160a01b038116611f1f57600092505050610eef565b5060019392505050565b603654610100900460ff1680611f425750611f42612d9a565b80611f50575060365460ff16155b611f8b5760405162461bcd60e51b815260040180806020018281038252602e815260200180612fa2602e913960400191505060405180910390fd5b603654610100900460ff16158015611fb6576036805460ff1961ff0019909116610100171660011790555b611fc08585612da0565b606a80546001600160a01b038089166001600160a01b0319928316179092556069805492861692909116919091179055612000631cd554d160e21b61298b565b60005b82518160ff1610156120365761202e838260ff168151811061202157fe5b602002602001015161298b565b600101612003565b50631cd554d160e21b600052606d6020527f7c6955eff0bba9326d30b9498854f01c67a0a7f3829998d71d8332495ca5b058805460ff191660011790558015612085576036805461ff00191690555b505050505050565b606e54606f549091565b6000546001600160a01b03163314806120ba57506004546001600160a01b031633145b612104576040805162461bcd60e51b815260206004820152601660248201527537b7363c9036b0b730b3b2b91037b9103a3930b232b960511b604482015290519081900360640190fd5b61210d83611d09565b61215e576040805162461bcd60e51b815260206004820152601b60248201527f756e737570706f7274656420736f757263652063757272656e63790000000000604482015290519081900360640190fd5b61216781611d09565b6121b8576040805162461bcd60e51b815260206004820181905260248201527f756e737570706f727465642064657374696e6174696f6e2063757272656e6379604482015290519081900360640190fd5b606954604080516321f8a72160e01b8152680a6f2dce8d0cae8d2f60bb1b600482015290516000926001600160a01b0316916321f8a721916024808301926020929190829003018186803b15801561220f57600080fd5b505afa158015612223573d6000803e3d6000fd5b505050506040513d602081101561223957600080fd5b5051606a5460408051631d68702d60e01b815290519293506000926001600160a01b03808616936330ead760938a938a938a931691631d68702d916004808301926020929190829003018186803b15801561229357600080fd5b505afa1580156122a7573d6000803e3d6000fd5b505050506040513d60208110156122bd57600080fd5b5051606a54604080516349f7c02d60e01b815290516001600160a01b03909216916349f7c02d91600480820192602092909190829003018186803b15801561230457600080fd5b505afa158015612318573d6000803e3d6000fd5b505050506040513d602081101561232e57600080fd5b5051604080516001600160e01b031960e089901b1681526004810196909652602486019490945260448501929092526001600160a01b0316606484015260848301525160a48083019260209291908290030181600087803b15801561239257600080fd5b505af11580156123a6573d6000803e3d6000fd5b505050506040513d60208110156123bc57600080fd5b505160408051308152336020820152808201889052606081018790526080810186905260a081018390524260c082015290519192507f2f3156bec1dba8438caa2579a04e750d9ca242f1c16d87594c77efdbede59bbe919081900360e00190a15050505050565b606b5460609081908190818167ffffffffffffffff8111801561244557600080fd5b5060405190808252806020026020018201604052801561246f578160200160208202803683370190505b50905060608267ffffffffffffffff8111801561248b57600080fd5b506040519080825280602002602001820160405280156124b5578160200160208202803683370190505b50905060608367ffffffffffffffff811180156124d157600080fd5b506040519080825280602002602001820160405280156124fb578160200160208202803683370190505b50606954604080516321f8a72160e01b81526c45786368616e6765526174657360981b600482015290519293506000926001600160a01b03909216916321f8a72191602480820192602092909190829003018186803b15801561255d57600080fd5b505afa158015612571573d6000803e3d6000fd5b505050506040513d602081101561258757600080fd5b5051905060005b858110156126f8576000606b82815481106125a557fe5b906000526020600020015490506125bb81611282565b6001600160a01b03166370a08231306040518263ffffffff1660e01b815260040180826001600160a01b0316815260200191505060206040518083038186803b15801561260757600080fd5b505afa15801561261b573d6000803e3d6000fd5b505050506040513d602081101561263157600080fd5b5051855186908490811061264157fe5b6020026020010181815250508086838151811061265a57fe5b602002602001018181525050826001600160a01b031663ac82f608826040518263ffffffff1660e01b81526004018082815260200191505060206040518083038186803b1580156126aa57600080fd5b505afa1580156126be573d6000803e3d6000fd5b505050506040513d60208110156126d457600080fd5b505184518590849081106126e457fe5b60209081029190910101525060010161258e565b509297919650945092505050565b60018054604080516020601f60026000196101008789161502019095169490940493840181900481028201810190925282815260609390929091830182828015611afb5780601f1061276657610100808354040283529160200191611afb565b820191906000526020600020905b81548152906001019060200180831161277457509395945050505050565b606b546000828152606c60205260408120546127af906001612dd3565b90506000606b6127c0846001612dd3565b815481106127ca57fe5b9060005260206000200154905080606b83815481106127e557fe5b6000918252602090912001556127fc826001612b93565b6000828152606c60205260408082209290925585815290812055606b80548061282157fe5b600190038181906000526020600020016000905590557f241d622959843ef6d15b4517709d11e054e1c06a2733f7773837c3d2377d8a893061286161152c565b604080516001600160a01b03938416815291909216602082015280820187905290519081900360600190a150505050565b6002546001600160a01b0382166000908152600360205260408120546128b9906001612dd3565b9050600060026128ca846001612dd3565b815481106128d457fe5b600091825260209091200154600280546001600160a01b0390921692508291849081106128fd57fe5b600091825260209091200180546001600160a01b0319166001600160a01b0392909216919091179055612931826001612b93565b6001600160a01b0380831660009081526003602052604080822093909355908616815290812055600280548061296357fe5b600082815260209020810160001990810180546001600160a01b031916905501905550505050565b606a60009054906101000a90046001600160a01b03166001600160a01b031663aa12ae4d6040518163ffffffff1660e01b815260040160206040518083038186803b1580156129d957600080fd5b505afa1580156129ed573d6000803e3d6000fd5b505050506040513d6020811015612a0357600080fd5b5051606b5410612a53576040805162461bcd60e51b81526020600482015260166024820152751b585e1a5b5d5b48185cdcd95d1cc81c995858da195960521b604482015290519081900360640190fd5b612a5c81611d09565b15612aae576040805162461bcd60e51b815260206004820152601760248201527f617373657420616c726561647920737570706f72746564000000000000000000604482015290519081900360640190fd5b612ab781611d86565b1515600114612afc576040805162461bcd60e51b815260206004820152600c60248201526b1b9bdd08185b88185cdcd95d60a21b604482015290519081900360640190fd5b606b80546001810182557fbd43cb8ece8cd1863bcd6082d65c5b0d25665b1ce17980f0da43c0ed545f98b401829055546000828152606c60205260409020557f4c719ca79dbb56150643ac79f2fbfa02370838ed0d116fc28b9703f5a071c4e230612b6561152c565b604080516001600160a01b03938416815291909216602082015280820184905290519081900360600190a150565b60008282018381101561147e576040805162461bcd60e51b815260206004820152601b60248201527f536166654d6174683a206164646974696f6e206f766572666c6f770000000000604482015290519081900360640190fd5b606a546040805163011adcb160e21b81523060048201526024810184905290516001600160a01b039092169163046b72c49160448082019260009290919082900301818387803b158015612c4057600080fd5b505af1158015612c54573d6000803e3d6000fd5b5050606a5460408051635bd2a29360e11b81523060048201528151600095508594506001600160a01b039093169263b7a5452692602480840193919291829003018186803b158015612ca557600080fd5b505afa158015612cb9573d6000803e3d6000fd5b505050506040513d6040811015612ccf57600080fd5b50805160209091015190925090507f1780c04ddc6f0b32d866c7a3d7583f53515ef49ed2126af868f804f49160126630612d0761152c565b604080516001600160a01b0393841681529190921660208201528082018590526060810184905290519081900360800190a1505050565b600280546001810182557f405787fa12a823e0f2b7631cc41b3ba8828b3321ca811111fa75cd3aa3bb5ace0180546001600160a01b039093166001600160a01b0319909316831790555460009182526003602052604090912055565b303b1590565b600080546001600160a01b0319166001600160a01b0384161790558051612dce906001906020840190612ea7565b505050565b600061147e83836040518060400160405280601e81526020017f536166654d6174683a207375627472616374696f6e206f766572666c6f77000081525060008184841115612e9f5760405162461bcd60e51b81526004018080602001828103825283818151815260200191508051906020019080838360005b83811015612e64578181015183820152602001612e4c565b50505050905090810190601f168015612e915780820380516001836020036101000a031916815260200191505b509250505060405180910390fd5b505050900390565b828054600181600116156101000203166002900490600052602060002090601f016020900481019282601f10612ee857805160ff1916838001178555612f15565b82800160010185558215612f15579182015b82811115612f15578251825591602001919060010190612efa565b50612f21929150612f25565b5090565b5b80821115612f215760008155600101612f2656fe6e6f6e2d656d7074792061737365742063616e6e6f742062652072656d6f76656470657273697374656e74206173736574732063616e27742062652072656d6f7665646f6e6c79206d616e616765722c20747261646572206f722050726f746f636f6c2044414f436f6e747261637420696e7374616e63652068617320616c7265616479206265656e20696e697469616c697a6564a2646970667358221220c0d0a5638e7866a97a4a844e7a1c0cd7af326861bb52f78ccd6baed1ce53f09164736f6c634300060c0033",
  "linkReferences": {},
  "deployedLinkReferences": {}
}