{
  "_format": "hh-sol-artifact-1",
  "contractName": "PoolManagerLogic-ovm",
  "sourceName": "contracts/PoolManagerLogic.sol",
  "abi": [
    {
      "anonymous": false,
      "inputs": [
        {
          "indexed": false,
          "internalType": "address",
          "name": "fundAddress",
          "type": "address"
        },
        {
          "indexed": false,
          "internalType": "address",
          "name": "manager",
          "type": "address"
        },
        {
          "indexed": false,
          "internalType": "address",
          "name": "asset",
          "type": "address"
        },
        {
          "indexed": false,
          "internalType": "bool",
          "name": "isDeposit",
          "type": "bool"
        }
      ],
      "name": "AssetAdded",
      "type": "event"
    },
    {
      "anonymous": false,
      "inputs": [
        {
          "indexed": false,
          "internalType": "address",
          "name": "fundAddress",
          "type": "address"
        },
        {
          "indexed": false,
          "internalType": "address",
          "name": "manager",
          "type": "address"
        },
        {
          "indexed": false,
          "internalType": "address",
          "name": "asset",
          "type": "address"
        },
        {
          "indexed": false,
          "internalType": "bool",
          "name": "isDeposit",
          "type": "bool"
        }
      ],
      "name": "AssetRemoved",
      "type": "event"
    },
    {
      "anonymous": false,
      "inputs": [
        {
          "indexed": false,
          "internalType": "uint256",
          "name": "newNumerator",
          "type": "uint256"
        },
        {
          "indexed": false,
          "internalType": "uint256",
          "name": "announcedFeeActivationTime",
          "type": "uint256"
        }
      ],
      "name": "ManagerFeeIncreaseAnnounced",
      "type": "event"
    },
    {
      "anonymous": false,
      "inputs": [],
      "name": "ManagerFeeIncreaseRenounced",
      "type": "event"
    },
    {
      "anonymous": false,
      "inputs": [
        {
          "indexed": false,
          "internalType": "address",
          "name": "fundAddress",
          "type": "address"
        },
        {
          "indexed": false,
          "internalType": "address",
          "name": "manager",
          "type": "address"
        },
        {
          "indexed": false,
          "internalType": "uint256",
          "name": "numerator",
          "type": "uint256"
        },
        {
          "indexed": false,
          "internalType": "uint256",
          "name": "denominator",
          "type": "uint256"
        }
      ],
      "name": "ManagerFeeSet",
      "type": "event"
    },
    {
      "anonymous": false,
      "inputs": [
        {
          "indexed": false,
          "internalType": "address",
          "name": "newManager",
          "type": "address"
        },
        {
          "indexed": false,
          "internalType": "string",
          "name": "newManagerName",
          "type": "string"
        }
      ],
      "name": "ManagerUpdated",
      "type": "event"
    },
    {
      "anonymous": false,
      "inputs": [
        {
          "indexed": false,
          "internalType": "address",
          "name": "poolLogic",
          "type": "address"
        },
        {
          "indexed": false,
          "internalType": "address",
          "name": "from",
          "type": "address"
        }
      ],
      "name": "PoolLogicSet",
      "type": "event"
    },
    {
      "anonymous": false,
      "inputs": [
        {
          "indexed": false,
          "internalType": "address",
          "name": "fundAddress",
          "type": "address"
        },
        {
          "indexed": false,
          "internalType": "address",
          "name": "manager",
          "type": "address"
        },
        {
          "indexed": false,
          "internalType": "uint256",
          "name": "time",
          "type": "uint256"
        }
      ],
      "name": "TransactionExecuted",
      "type": "event"
    },
    {
      "inputs": [
        {
          "internalType": "address",
          "name": "member",
          "type": "address"
        }
      ],
      "name": "addMember",
      "outputs": [],
      "stateMutability": "nonpayable",
      "type": "function"
    },
    {
      "inputs": [
        {
          "internalType": "address[]",
          "name": "members",
          "type": "address[]"
        }
      ],
      "name": "addMembers",
      "outputs": [],
      "stateMutability": "nonpayable",
      "type": "function"
    },
    {
      "inputs": [
        {
          "internalType": "uint256",
          "name": "numerator",
          "type": "uint256"
        }
      ],
      "name": "announceManagerFeeIncrease",
      "outputs": [],
      "stateMutability": "nonpayable",
      "type": "function"
    },
    {
      "inputs": [],
      "name": "announcedFeeIncreaseNumerator",
      "outputs": [
        {
          "internalType": "uint256",
          "name": "",
          "type": "uint256"
        }
      ],
      "stateMutability": "view",
      "type": "function"
    },
    {
      "inputs": [],
      "name": "announcedFeeIncreaseTimestamp",
      "outputs": [
        {
          "internalType": "uint256",
          "name": "",
          "type": "uint256"
        }
      ],
      "stateMutability": "view",
      "type": "function"
    },
    {
      "inputs": [
        {
          "internalType": "address",
          "name": "asset",
          "type": "address"
        }
      ],
      "name": "assetBalance",
      "outputs": [
        {
          "internalType": "uint256",
          "name": "",
          "type": "uint256"
        }
      ],
      "stateMutability": "view",
      "type": "function"
    },
    {
      "inputs": [
        {
          "internalType": "address",
          "name": "",
          "type": "address"
        }
      ],
      "name": "assetPosition",
      "outputs": [
        {
          "internalType": "uint256",
          "name": "",
          "type": "uint256"
        }
      ],
      "stateMutability": "view",
      "type": "function"
    },
    {
      "inputs": [
        {
          "internalType": "address",
          "name": "asset",
          "type": "address"
        },
        {
          "internalType": "uint256",
          "name": "amount",
          "type": "uint256"
        }
      ],
      "name": "assetValue",
      "outputs": [
        {
          "internalType": "uint256",
          "name": "",
          "type": "uint256"
        }
      ],
      "stateMutability": "view",
      "type": "function"
    },
    {
      "inputs": [
        {
          "internalType": "address",
          "name": "asset",
          "type": "address"
        }
      ],
      "name": "assetValue",
      "outputs": [
        {
          "internalType": "uint256",
          "name": "",
          "type": "uint256"
        }
      ],
      "stateMutability": "view",
      "type": "function"
    },
    {
      "inputs": [
        {
          "internalType": "bytes32",
          "name": "c__0x6a082ff4",
          "type": "bytes32"
        }
      ],
      "name": "c_0x6a082ff4",
      "outputs": [],
      "stateMutability": "pure",
      "type": "function"
    },
    {
      "inputs": [
        {
          "internalType": "bytes32",
          "name": "c__0x77bdd477",
          "type": "bytes32"
        }
      ],
      "name": "c_0x77bdd477",
      "outputs": [],
      "stateMutability": "pure",
      "type": "function"
    },
    {
      "inputs": [
        {
          "internalType": "bytes32",
          "name": "c__0x8cd9e52a",
          "type": "bytes32"
        }
      ],
      "name": "c_0x8cd9e52a",
      "outputs": [],
      "stateMutability": "pure",
      "type": "function"
    },
    {
      "inputs": [
        {
          "components": [
            {
              "internalType": "address",
              "name": "asset",
              "type": "address"
            },
            {
              "internalType": "bool",
              "name": "isDeposit",
              "type": "bool"
            }
          ],
          "internalType": "struct IPoolManagerLogic.Asset[]",
          "name": "_addAssets",
          "type": "tuple[]"
        },
        {
          "components": [
            {
              "internalType": "address",
              "name": "asset",
              "type": "address"
            },
            {
              "internalType": "bool",
              "name": "isDeposit",
              "type": "bool"
            }
          ],
          "internalType": "struct IPoolManagerLogic.Asset[]",
          "name": "_removeAssets",
          "type": "tuple[]"
        }
      ],
      "name": "changeAssets",
      "outputs": [],
      "stateMutability": "nonpayable",
      "type": "function"
    },
    {
      "inputs": [
        {
          "internalType": "address",
          "name": "newManager",
          "type": "address"
        },
        {
          "internalType": "string",
          "name": "newManagerName",
          "type": "string"
        }
      ],
      "name": "changeManager",
      "outputs": [],
      "stateMutability": "nonpayable",
      "type": "function"
    },
    {
      "inputs": [],
      "name": "commitManagerFeeIncrease",
      "outputs": [],
      "stateMutability": "nonpayable",
      "type": "function"
    },
    {
      "inputs": [
        {
          "internalType": "bytes32",
          "name": "data",
          "type": "bytes32"
        }
      ],
      "name": "convert32toAddress",
      "outputs": [
        {
          "internalType": "address",
          "name": "o",
          "type": "address"
        }
      ],
      "stateMutability": "pure",
      "type": "function"
    },
    {
      "inputs": [
        {
          "internalType": "address",
          "name": "to",
          "type": "address"
        },
        {
          "internalType": "bytes",
          "name": "data",
          "type": "bytes"
        }
      ],
      "name": "execTransaction",
      "outputs": [
        {
          "internalType": "bool",
          "name": "",
          "type": "bool"
        }
      ],
      "stateMutability": "nonpayable",
      "type": "function"
    },
    {
      "inputs": [],
      "name": "factory",
      "outputs": [
        {
          "internalType": "address",
          "name": "",
          "type": "address"
        }
      ],
      "stateMutability": "view",
      "type": "function"
    },
    {
      "inputs": [
        {
          "internalType": "bytes",
          "name": "data",
          "type": "bytes"
        },
        {
          "internalType": "uint8",
          "name": "inputNum",
          "type": "uint8"
        },
        {
          "internalType": "uint8",
          "name": "arrayIndex",
          "type": "uint8"
        }
      ],
      "name": "getArrayIndex",
      "outputs": [
        {
          "internalType": "bytes32",
          "name": "",
          "type": "bytes32"
        }
      ],
      "stateMutability": "pure",
      "type": "function"
    },
    {
      "inputs": [
        {
          "internalType": "bytes",
          "name": "data",
          "type": "bytes"
        },
        {
          "internalType": "uint8",
          "name": "inputNum",
          "type": "uint8"
        }
      ],
      "name": "getArrayLast",
      "outputs": [
        {
          "internalType": "bytes32",
          "name": "",
          "type": "bytes32"
        }
      ],
      "stateMutability": "pure",
      "type": "function"
    },
    {
      "inputs": [
        {
          "internalType": "bytes",
          "name": "data",
          "type": "bytes"
        },
        {
          "internalType": "uint8",
          "name": "inputNum",
          "type": "uint8"
        }
      ],
      "name": "getArrayLength",
      "outputs": [
        {
          "internalType": "uint256",
          "name": "",
          "type": "uint256"
        }
      ],
      "stateMutability": "pure",
      "type": "function"
    },
    {
      "inputs": [],
      "name": "getFundComposition",
      "outputs": [
        {
          "internalType": "address[]",
          "name": "",
          "type": "address[]"
        },
        {
          "internalType": "uint256[]",
          "name": "",
          "type": "uint256[]"
        },
        {
          "internalType": "uint256[]",
          "name": "",
          "type": "uint256[]"
        }
      ],
      "stateMutability": "view",
      "type": "function"
    },
    {
      "inputs": [
        {
          "internalType": "bytes",
          "name": "data",
          "type": "bytes"
        },
        {
          "internalType": "uint8",
          "name": "inputNum",
          "type": "uint8"
        }
      ],
      "name": "getInput",
      "outputs": [
        {
          "internalType": "bytes32",
          "name": "",
          "type": "bytes32"
        }
      ],
      "stateMutability": "pure",
      "type": "function"
    },
    {
      "inputs": [],
      "name": "getManagerFee",
      "outputs": [
        {
          "internalType": "uint256",
          "name": "",
          "type": "uint256"
        },
        {
          "internalType": "uint256",
          "name": "",
          "type": "uint256"
        }
      ],
      "stateMutability": "view",
      "type": "function"
    },
    {
      "inputs": [],
      "name": "getManagerFeeIncreaseInfo",
      "outputs": [
        {
          "internalType": "uint256",
          "name": "",
          "type": "uint256"
        },
        {
          "internalType": "uint256",
          "name": "",
          "type": "uint256"
        }
      ],
      "stateMutability": "view",
      "type": "function"
    },
    {
      "inputs": [],
      "name": "getMembers",
      "outputs": [
        {
          "internalType": "address[]",
          "name": "",
          "type": "address[]"
        }
      ],
      "stateMutability": "view",
      "type": "function"
    },
    {
      "inputs": [
        {
          "internalType": "bytes",
          "name": "data",
          "type": "bytes"
        }
      ],
      "name": "getMethod",
      "outputs": [
        {
          "internalType": "bytes4",
          "name": "",
          "type": "bytes4"
        }
      ],
      "stateMutability": "pure",
      "type": "function"
    },
    {
      "inputs": [],
      "name": "getSupportedAssets",
      "outputs": [
        {
          "internalType": "address[]",
          "name": "",
          "type": "address[]"
        }
      ],
      "stateMutability": "view",
      "type": "function"
    },
    {
      "inputs": [
        {
          "internalType": "address",
          "name": "_factory",
          "type": "address"
        },
        {
          "internalType": "address",
          "name": "_manager",
          "type": "address"
        },
        {
          "internalType": "string",
          "name": "_managerName",
          "type": "string"
        },
        {
          "components": [
            {
              "internalType": "address",
              "name": "asset",
              "type": "address"
            },
            {
              "internalType": "bool",
              "name": "isDeposit",
              "type": "bool"
            }
          ],
          "internalType": "struct IPoolManagerLogic.Asset[]",
          "name": "_supportedAssets",
          "type": "tuple[]"
        }
      ],
      "name": "initialize",
      "outputs": [],
      "stateMutability": "nonpayable",
      "type": "function"
    },
    {
      "inputs": [
        {
          "internalType": "address",
          "name": "asset",
          "type": "address"
        }
      ],
      "name": "isDepositAsset",
      "outputs": [
        {
          "internalType": "bool",
          "name": "",
          "type": "bool"
        }
      ],
      "stateMutability": "view",
      "type": "function"
    },
    {
      "inputs": [
        {
          "internalType": "address",
          "name": "member",
          "type": "address"
        }
      ],
      "name": "isMemberAllowed",
      "outputs": [
        {
          "internalType": "bool",
          "name": "",
          "type": "bool"
        }
      ],
      "stateMutability": "view",
      "type": "function"
    },
    {
      "inputs": [
        {
          "internalType": "address",
          "name": "asset",
          "type": "address"
        }
      ],
      "name": "isSupportedAsset",
      "outputs": [
        {
          "internalType": "bool",
          "name": "",
          "type": "bool"
        }
      ],
      "stateMutability": "view",
      "type": "function"
    },
    {
      "inputs": [],
      "name": "manager",
      "outputs": [
        {
          "internalType": "address",
          "name": "",
          "type": "address"
        }
      ],
      "stateMutability": "view",
      "type": "function"
    },
    {
      "inputs": [],
      "name": "managerName",
      "outputs": [
        {
          "internalType": "string",
          "name": "",
          "type": "string"
        }
      ],
      "stateMutability": "view",
      "type": "function"
    },
    {
      "inputs": [],
      "name": "numberOfDepositAssets",
      "outputs": [
        {
          "internalType": "uint256",
          "name": "",
          "type": "uint256"
        }
      ],
      "stateMutability": "view",
      "type": "function"
    },
    {
      "inputs": [],
      "name": "numberOfMembers",
      "outputs": [
        {
          "internalType": "uint256",
          "name": "",
          "type": "uint256"
        }
      ],
      "stateMutability": "view",
      "type": "function"
    },
    {
      "inputs": [],
      "name": "numberOfSupportedAssets",
      "outputs": [
        {
          "internalType": "uint256",
          "name": "",
          "type": "uint256"
        }
      ],
      "stateMutability": "view",
      "type": "function"
    },
    {
      "inputs": [],
      "name": "poolLogic",
      "outputs": [
        {
          "internalType": "address",
          "name": "",
          "type": "address"
        }
      ],
      "stateMutability": "view",
      "type": "function"
    },
    {
      "inputs": [
        {
          "internalType": "bytes",
          "name": "data",
          "type": "bytes"
        },
        {
          "internalType": "uint256",
          "name": "offset",
          "type": "uint256"
        },
        {
          "internalType": "uint256",
          "name": "length",
          "type": "uint256"
        }
      ],
      "name": "read32",
      "outputs": [
        {
          "internalType": "bytes32",
          "name": "o",
          "type": "bytes32"
        }
      ],
      "stateMutability": "pure",
      "type": "function"
    },
    {
      "inputs": [
        {
          "internalType": "bytes",
          "name": "data",
          "type": "bytes"
        },
        {
          "internalType": "uint256",
          "name": "offset",
          "type": "uint256"
        },
        {
          "internalType": "uint256",
          "name": "length",
          "type": "uint256"
        }
      ],
      "name": "read4left",
      "outputs": [
        {
          "internalType": "bytes4",
          "name": "o",
          "type": "bytes4"
        }
      ],
      "stateMutability": "pure",
      "type": "function"
    },
    {
      "inputs": [
        {
          "internalType": "address",
          "name": "member",
          "type": "address"
        }
      ],
      "name": "removeMember",
      "outputs": [],
      "stateMutability": "nonpayable",
      "type": "function"
    },
    {
      "inputs": [
        {
          "internalType": "address[]",
          "name": "members",
          "type": "address[]"
        }
      ],
      "name": "removeMembers",
      "outputs": [],
      "stateMutability": "nonpayable",
      "type": "function"
    },
    {
      "inputs": [],
      "name": "removeTrader",
      "outputs": [],
      "stateMutability": "nonpayable",
      "type": "function"
    },
    {
      "inputs": [],
      "name": "renounceManagerFeeIncrease",
      "outputs": [],
      "stateMutability": "nonpayable",
      "type": "function"
    },
    {
      "inputs": [
        {
          "internalType": "address",
          "name": "_poolLogic",
          "type": "address"
        }
      ],
      "name": "setPoolLogic",
      "outputs": [
        {
          "internalType": "bool",
          "name": "",
          "type": "bool"
        }
      ],
      "stateMutability": "nonpayable",
      "type": "function"
    },
    {
      "inputs": [
        {
          "internalType": "address",
          "name": "newTrader",
          "type": "address"
        }
      ],
      "name": "setTrader",
      "outputs": [],
      "stateMutability": "nonpayable",
      "type": "function"
    },
    {
      "inputs": [
        {
          "internalType": "uint256",
          "name": "",
          "type": "uint256"
        }
      ],
      "name": "supportedAssets",
      "outputs": [
        {
          "internalType": "address",
          "name": "asset",
          "type": "address"
        },
        {
          "internalType": "bool",
          "name": "isDeposit",
          "type": "bool"
        }
      ],
      "stateMutability": "view",
      "type": "function"
    },
    {
      "inputs": [],
      "name": "trader",
      "outputs": [
        {
          "internalType": "address",
          "name": "",
          "type": "address"
        }
      ],
      "stateMutability": "view",
      "type": "function"
    },
    {
      "inputs": [
        {
          "internalType": "address",
          "name": "asset",
          "type": "address"
        }
      ],
      "name": "validateAsset",
      "outputs": [
        {
          "internalType": "bool",
          "name": "",
          "type": "bool"
        }
      ],
      "stateMutability": "view",
      "type": "function"
    }
  ],
  "bytecode": "0x60806040523480156200001c576000806200001962000023565b50505b5062000093565b632a2a7adb598160e01b8152600481016020815285602082015260005b868110156200006057808601518160408401015260208101905062000040565b506020828760640184336000905af158600e01573d6000803e3d6000fd5b3d6001141558600a015760016000f35b505050565b61b58680620000a36000396000f3fe60806040523480156100195760008061001661960d565b50505b50600436106102c45760003560e01c806382f86acc1161018b578063bdbef07d116100f2578063d8af8ed4116100ab578063e5406dbf11610085578063e5406dbf1461091c578063ed5b165d1461093a578063f09d14d714610959578063fed4416a14610979576102c4565b8063d8af8ed4146108a0578063db896b57146108d0578063e47d2e0714610900576102c4565b8063bdbef07d146107a5578063c3c6279f146107d5578063c45a015514610805578063c68dbb3714610823578063ca6d56dc14610854578063cd88e55814610870576102c4565b80639be918e6116101445780639be918e6146106e35780639eab525314610713578063a30e3fa914610731578063a6bc18f91461074f578063b8bd81e61461076b578063bbbf725b14610775576102c4565b806382f86acc146105e75780638e10153d146106175780638f323439146106475780639240d29914610665578063936553c414610695578063998546e3146106b3576102c4565b806346ee84b01161022f5780636e890f3c116101e85780636e890f3c1461054d5780636f4d469b1461055757806372260e0f146105735780637ae7cfb51461058f5780637b4d0c63146105bf5780637c8afd51146105dd576102c4565b806346ee84b01461048d578063481c6a75146104a957806352213663146104c757806353f064c9146104e3578063568b5a2f146104ff5780635cd50e481461052f576102c4565b80631eba3077116102815780631eba30771461039357806322cedfc3146103c357806329c07fba146103df57806339b81fd91461040f5780633c570d7d1461042d57806341dc16c31461045d576102c4565b806307f83a5f146102d257806309ff5c7d146102ee5780630b1ca49a1461031e578063147bf0be1461033a5780631758078b146103565780631980553814610374575b6000806102cf61960d565b50505b6102ec60048036038101906102e7919061a191565b610997565b005b6103086004803603810190610303919061a28f565b61099a565b604051610315919061aebf565b60405180910390f35b61033860048036038101906103339190619e62565b610c21565b005b610354600480360381019061034f9190619ec6565b610f50565b005b61035e61127e565b60405161036b919061ac7f565b60405180910390f35b61037c611333565b60405161038a92919061b1f2565b60405180910390f35b6103ad60048036038101906103a8919061a191565b6114c1565b6040516103ba919061ac7f565b60405180910390f35b6103dd60048036038101906103d8919061a191565b611552565b005b6103f960048036038101906103f4919061a040565b611555565b604051610406919061b1d7565b60405180910390f35b610417611842565b604051610424919061ac7f565b60405180910390f35b61044760048036038101906104429190619e62565b61186f565b604051610454919061b1d7565b60405180910390f35b6104776004803603810190610472919061a2f5565b61188e565b604051610484919061aebf565b60405180910390f35b6104a760048036038101906104a2919061a085565b611c1a565b005b6104b1611fb5565b6040516104be919061ac7f565b60405180910390f35b6104e160048036038101906104dc9190619fda565b61206a565b005b6104fd60048036038101906104f8919061a36e565b6123f3565b005b6105196004803603810190610514919061a216565b612cc0565b604051610526919061aeda565b60405180910390f35b610537612e40565b604051610544919061b1d7565b60405180910390f35b610555613109565b005b610571600480360381019061056c919061a085565b613530565b005b61058d6004803603810190610588919061a0d8565b6138cc565b005b6105a960048036038101906105a49190619f74565b613b75565b6040516105b6919061aea4565b60405180910390f35b6105c7614646565b6040516105d4919061b1d7565b60405180910390f35b6105e5614653565b005b61060160048036038101906105fc919061a28f565b6148db565b60405161060e919061aebf565b60405180910390f35b610631600480360381019061062c9190619e62565b61497e565b60405161063e919061aea4565b60405180910390f35b61064f614fd4565b60405161065c919061b1d7565b60405180910390f35b61067f600480360381019061067a9190619e62565b614fe1565b60405161068c919061aea4565b60405180910390f35b61069d615145565b6040516106aa919061b1d7565b60405180910390f35b6106cd60048036038101906106c8919061a28f565b6151dc565b6040516106da919061b1d7565b60405180910390f35b6106fd60048036038101906106f89190619e62565b6152f1565b60405161070a919061aea4565b60405180910390f35b61071b6153c9565b604051610728919061ae36565b60405180910390f35b6107396154f0565b604051610746919061b1d7565b60405180910390f35b61076960048036038101906107649190619e62565b615588565b005b610773615810565b005b61078f600480360381019061078a9190619e62565b615b44565b60405161079c919061aea4565b60405180910390f35b6107bf60048036038101906107ba9190619e62565b615c1c565b6040516107cc919061aea4565b60405180910390f35b6107ef60048036038101906107ea919061a1c3565b615e54565b6040516107fc919061aeda565b60405180910390f35b61080d615eee565b60405161081a919061ac7f565b60405180910390f35b61083d6004803603810190610838919061a36e565b615f1b565b60405161084b92919061ad84565b60405180910390f35b61086e60048036038101906108699190619e62565b615f8a565b005b61088a60048036038101906108859190619e62565b6162ba565b604051610897919061b1d7565b60405180910390f35b6108ba60048036038101906108b59190619e62565b61641e565b6040516108c7919061b1d7565b60405180910390f35b6108ea60048036038101906108e5919061a216565b6164bd565b6040516108f7919061aebf565b60405180910390f35b61091a6004803603810190610915919061a191565b61663d565b005b610924616640565b604051610931919061ae36565b60405180910390f35b610942616944565b60405161095092919061b1f2565b60405180910390f35b6109616169e7565b6040516109709392919061ae58565b60405180910390f35b610981617065565b60405161098e919061aef5565b60405180910390f35b50565b60006109c87f081d82e52646f30f5f6ba661c9f8640c9cd57ce66a80a3e2a8d58ce5bb27187060001b611552565b6109f47f09f957c21d0e9b2ec1b121684a6e7f5ac4edd73009cb6079362e23cfddf9a9c860001b611552565b610a207f3c18b9a50414e713d6d2d9fb3d8f35382b5efbbdea88daeb0918feace849715760001b611552565b6000610a37846004856020020160ff1660206164bd565b9050610a657fef8d397263c2655f4ccf2b9be363e978048ff824160884a4bcae49615516e10d60001b611552565b610a917f74a724fe8f5378a48c6199852895f5901086e6334857b36d1bfda6debb52ec2e60001b611552565b6000610aa58560048460001c0160206164bd565b9050610ad37f9a780319db2dc6e6b23ada0024cb7abdcb735d784ab162fd4df358f7790083e560001b611552565b610aff7feacef85564e6b6c37c507951170fc255c4d3d5c96436eac08483236950ea824b60001b611552565b610b2b7f82a785437fd1ca4984c1c85dd77a837b42b49b0eb13b373e6e257c6c09fbd61f60001b611552565b6000801b8111610b79576040517f08c379a0000000000000000000000000000000000000000000000000000000008152600401610b679061b157565b60405180910390610b7661960d565b50505b610ba57fe43217671634e3774905c2565f4e5137f7fe504fa68fccc06bbf3e58eb71b66160001b611552565b610bd17f1b4b6c92de0ca738f0a984667b3c9678d804cdd2f47c17e91f52d7c5f051c41560001b611552565b610bfd7f09314e957efbeec867fd49fc3e7f5899b2d95ad68a6b5badee8d98784fd97f4460001b611552565b610c178560208360001c0260048560001c010160206164bd565b9250505092915050565b610c4d7ff726fc88418c0a3484479f3aad53d8027d0e2163703da4e11695846a8ecf323960001b610997565b610c797f684725bd78b70c3fb2cf13b500bfd22c1cd461220ef6c85b59f31f1043c5de1f60001b610997565b610ca57f66ea293273b42d90ad1edbe377e4882daf414bd29b0dcec70a1119a20e4da60760001b610997565b610cd17fbba45401a87b3041ecdfeb8ba6cdf9dec1a86b5dc1ad9312274f3d920df5ec4460001b610997565b6033600090610cde61967b565b906101000a900473ffffffffffffffffffffffffffffffffffffffff1673ffffffffffffffffffffffffffffffffffffffff165a610d1a6196de565b73ffffffffffffffffffffffffffffffffffffffff1614610d79576040517f08c379a0000000000000000000000000000000000000000000000000000000008152600401610d679061afb7565b60405180910390610d7661960d565b50505b610da57fe84730383f7e358d6eb5424a73f82ebabefe25dbfc6cacd9a33efe47980ed6a060001b610997565b610dd17f1e8080af53826ea93c0834314df776ac304bf425dcb83719abb60873fded05d360001b610997565b610dfd7fea1757305949ed706951fb794bd2551514c6efdb2d7679c5d85b078142ffe2b260001b610997565b610e297f1ffc6b134d15c295e5f995b3f82b5a0cb18ad84f314a2d960c81c8d81184722e60001b610997565b610e557f3c92deefafc01aaaabda23cc392d833acabe18b8cb00e63048de8ce6998a50d160001b610997565b610e5e81615b44565b610ebf57610e8e7fe426072b40d42570f2a371006c4849244b036fcfab927292797340fc1dfd4f2860001b610997565b610eba7fa87fcaab10e3f72cae704058c7741c3c14bf2347c4ed9f4cf29e77c38f1fd7ec60001b610997565b610f4d565b610eeb7fb95ad00e9df5485a45b440c3dbdda7a5c12dc7d5b9a67813420d09bea2d0d5e360001b610997565b610f177fd6dd051f93c0416ce28a333b5248bf159f01391c2d334ad25964076d30e5c14f60001b610997565b610f437fb71ec9708481e1cb8db1808117b3292284c7507d570cf24576d2cc1110d10c0760001b610997565b610f4c816171a7565b5b50565b6000600190610f5d61967b565b906101000a900460ff1680610f765750610f75617688565b5b80610f935750600080610f8761967b565b906101000a900460ff16155b610fdb576040517f08c379a0000000000000000000000000000000000000000000000000000000008152600401610fc99061b0f7565b60405180910390610fd861960d565b50505b600080600190610fe961967b565b906101000a900460ff161590508015611052576001600060016101000a8161100f61967b565b8160ff0219169083151502179061102461973b565b50505060016000806101000a8161103961967b565b8160ff0219169083151502179061104e61973b565b5050505b61107e7f4fe11b46413b043105d80e62d850f8f1d8ebaad6ba020d45f805c4e62ed16ab360001b61663d565b6110aa7f34982f93521da2679e829a32b243e14a0ea8c59f0b0dab317cef263a23686a3160001b61663d565b6110d67f6353081282e7c9a4d4563c9b85b0eb80ee2350df799b3cfce7a03c4eec3b24d560001b61663d565b6110e08484617701565b61110c7f219f559a3983b7e6318dc55a5e67b08fe107d4ff909d70ac36d8343b085357fc60001b61663d565b6111387f8a1df9a28f6de8ca44a5e16065b3f42adee80bab44e8a8f7358608de215020b260001b61663d565b84603860006101000a8161114a61967b565b8173ffffffffffffffffffffffffffffffffffffffff021916908373ffffffffffffffffffffffffffffffffffffffff1602179061118661973b565b5050506111b57f6db0fdcc49bd602b9c88494b1cc682265556662514226c7efa9824d7ca3fcf2260001b61663d565b6111e17f9d79c14d2bba45be4aa024f5cfdc91dd7b7f7e77c1f760f5d5e15e47cab69e3060001b61663d565b61124682600067ffffffffffffffff811180156112065760008061120361960d565b50505b5060405190808252806020026020018201604052801561124057816020015b61122d6197a0565b8152602001906001900390816112255790505b50617849565b80156112775760008060016101000a8161125e61967b565b8160ff0219169083151502179061127361973b565b5050505b5050505050565b60006112ac7f3aca4bfed5bca6bb4a7952d9916be14f80d41a88cb22b235f78122ad6e4440d360001b610997565b6112d87f0d2afb8ca427495817d996651401041f2a8ab28d5256db0743a91af8ea8627ed60001b610997565b6113047f6d976131b13215f2dcfb2c190b142557b0a055ae766dec008e5ce2e06a5903fc60001b610997565b603760009061131161967b565b906101000a900473ffffffffffffffffffffffffffffffffffffffff16905090565b6000806113627fd9b3af2248ce225cc55a3e10a891b607ce8cef32c0954f62f3635af88602bcc560001b61663d565b61138e7f8ace458d173f0b661858e4e314f6537f64d068449704c3482e488ab657197c5a60001b61663d565b6113ba7f3449d38808554d6d6a37017c0e5961042b53d78cf24cb0a15461c038d6ad23f560001b61663d565b60386000906113c761967b565b906101000a900473ffffffffffffffffffffffffffffffffffffffff1673ffffffffffffffffffffffffffffffffffffffff1663b7a54526603960009061140c61967b565b906101000a900473ffffffffffffffffffffffffffffffffffffffff166040518263ffffffff1660e01b8152600401611445919061ac7f565b604080518083038186806114576197d2565b15801561146c5760008061146961960d565b50505b505a611476619835565b5050505050158015611495573d6000803e3d600061149261960d565b50505b505050506040513d601f19601f820116820180604052508101906114b9919061a3d2565b915091509091565b60006114ef7f746ad3681a882d643153db78e530a3c3631a70addf1fa2b3fb00e7c9e006155c60001b611552565b61151b7fdc74b4c260b28f73b6b9660be3d6c8df22d3969ef9bce7b2d804a0268404b7cd60001b611552565b6115477f72b1c589190589f7b6b45bf4a6392802affc2e6b2798209520a0a75ef72c092560001b611552565b8160001c9050919050565b50565b60006115837f40208f26e8f8dada28766f5e7a22a18aaeafa94c387f582a2b2ac0f8e480c27f60001b61663d565b6115af7f994ba6ba22c746bb7f6f1f67e73da419487148c2766ee732ae086483a975478760001b61663d565b6115db7fd41bb0a14b32ada7c782ee26bcd4e37f0c342b375311dd019f8246932d71937d60001b61663d565b600060386000906115ea61967b565b906101000a900473ffffffffffffffffffffffffffffffffffffffff1673ffffffffffffffffffffffffffffffffffffffff16638b2f0f4f856040518263ffffffff1660e01b815260040161163f919061ac7f565b60206040518083038186806116526197d2565b1580156116675760008061166461960d565b50505b505a611671619835565b5050505050158015611690573d6000803e3d600061168d61960d565b50505b505050506040513d601f19601f820116820180604052508101906116b4919061a3a0565b90506116e27f90ab4b799f717bf6408e67b77ce76a4b62c3c8f5fc5aac7fe641ee74176f579a60001b61663d565b61170e7f1d8da651be16463545a239e6cf9106a8311791917d4446b2f5561c96a418742260001b61663d565b60008473ffffffffffffffffffffffffffffffffffffffff1663313ce5676040518163ffffffff1660e01b815260040160206040518083038186806117516197d2565b1580156117665760008061176361960d565b50505b505a611770619835565b505050505015801561178f573d6000803e3d600061178c61960d565b50505b505050506040513d601f19601f820116820180604052508101906117b3919061a417565b60ff1690506117e47f93bda4fcd0d7a0f12076fec87a8eb33fb565e64da03e69db6bc30f9293c98bfc60001b61663d565b6118107f4f6682842944d35b0af550bf39305306a983ae39eaf03700c160bd44673501c760001b61663d565b61183881600a0a61182a8685617d2790919063ffffffff16565b617da090919063ffffffff16565b9250505092915050565b603960009061184f61967b565b906101000a900473ffffffffffffffffffffffffffffffffffffffff1681565b603b60205280600052604060002060009150905061188b61967b565b81565b60006118bc7f0d2edb964b9e832488b09b10132df8eae74acfc0fc4ef7f9d17163fc2e452a2e60001b611552565b6118e87fec59aeec3a522e44409f61c0fa70319cf1bf4918e86c015c6bd7fd77cfc1ae9360001b611552565b6119147fb4266cc8b2adcdafb3172be707d2eee0716530e37ad5d9f5e65f6c7babc7809d60001b611552565b600061192b856004866020020160ff1660206164bd565b90506119597f1f2b2786ee9ec18f24b6ccdcc72ade656a4dd4d847db4a80de9458d5dc44c09060001b611552565b6119857fb00c56757dd8ec9f02b936996a334928b1ef6f3435c2ba9dbd5d9dc89c70070760001b611552565b60006119998660048460001c0160206164bd565b90506119c77f0561a5eddc039c0aeec1e8962165d9d1f98f95ff176cb1da7911da2d15fc68e160001b611552565b6119f37f2975ca5dd6258a561f9086915a438ad03ff8d21b085793774c29b6f109905d5660001b611552565b611a1f7fe202a0fe1a62fce1431754f635daf3f1e6bc0f9c3ebc648471c03244a4f8700960001b611552565b6000801b8111611a6d576040517f08c379a0000000000000000000000000000000000000000000000000000000008152600401611a5b9061b157565b60405180910390611a6a61960d565b50505b611a997f1e785ed06ba7037d73973307b033d65e2f824f9cc0fcf912d8380dd82538492160001b611552565b611ac57f6ef73466323634ac0f371519fc18548657fcc76f8d0c3ccddbf7468adf89774960001b611552565b611af17f2a303905ffb4cda24ed31526b4f963ad1b91bfadec5c8ed2ca40b29c472ed13660001b611552565b611b1d7ffca3600df76533b6d8f4c84af3473e45313d07b1b4d815f512d23d58304c6ed960001b611552565b8360ff168160001c11611b6e576040517f08c379a0000000000000000000000000000000000000000000000000000000008152600401611b5c9061af17565b60405180910390611b6b61960d565b50505b611b9a7f551e68dba562f6faa3974de6be47a00ae8ddb4d4165ba52d68af2ba1a833bfe360001b611552565b611bc67f4286efa5281a1ee99db835a134f746afbaf3d0fcc3672421febb6a2e4a400a4e60001b611552565b611bf27f5af5a9ef45989c8affc392d2d5d0df701f283a3b0e79d53d1135f03c8d9d5d5e60001b611552565b611c0f8660208660ff166001010260048560001c010160206164bd565b925050509392505050565b611c467ff726fc88418c0a3484479f3aad53d8027d0e2163703da4e11695846a8ecf323960001b610997565b611c727f684725bd78b70c3fb2cf13b500bfd22c1cd461220ef6c85b59f31f1043c5de1f60001b610997565b611c9e7f66ea293273b42d90ad1edbe377e4882daf414bd29b0dcec70a1119a20e4da60760001b610997565b611cca7fbba45401a87b3041ecdfeb8ba6cdf9dec1a86b5dc1ad9312274f3d920df5ec4460001b610997565b6033600090611cd761967b565b906101000a900473ffffffffffffffffffffffffffffffffffffffff1673ffffffffffffffffffffffffffffffffffffffff165a611d136196de565b73ffffffffffffffffffffffffffffffffffffffff1614611d72576040517f08c379a0000000000000000000000000000000000000000000000000000000008152600401611d609061afb7565b60405180910390611d6f61960d565b50505b611d9e7fe84730383f7e358d6eb5424a73f82ebabefe25dbfc6cacd9a33efe47980ed6a060001b610997565b611dca7f1e8080af53826ea93c0834314df776ac304bf425dcb83719abb60873fded05d360001b610997565b611df67fc6d07b0e83c40b72565fd3474fca46c407f6de8c82037d955827819ab972195260001b610997565b611e227f26769fe5ebee2b76e34a63895ab43d409672ad60d9b2755c7de02300820208ed60001b610997565b611e4e7f4d8cfa7afb76b08a12448582f35c146769f30bdd1d5db7c143c2befb31bca2a660001b610997565b60005b8151811015611fb157611e867f7ea9cc9b523311f807b540bd8e9e396ae855b639cde9a015207f324636c69fe160001b610997565b611eb27f01617bcb9958929a8467a5175123be7b9691af9514194a67b05c29563283893d60001b610997565b611ece828281518110611ec157fe5b6020026020010151615b44565b611f0357611efe7f82c7c45be74131f8e447c732657e121e77b9532aa09134f13eb7470fd7501e4f60001b610997565b611fa4565b611f2f7f89a08829e0370111a9a3a659be41f5857cf43cfbb23e711c5855b4c7da2fe67860001b610997565b611f5b7fad00ecdc0b3b8746773d999187984e71c22bff6ec0a2c10dfe65f023ddb95e0b60001b610997565b611f877fbc65408770e0bc90d5f74397619a31b62c42c12ae3d25d3cfdaaf6a116352a0060001b610997565b611fa3828281518110611f9657fe5b60200260200101516171a7565b5b8080600101915050611e51565b5050565b6000611fe37fde4bef5b1a10104dfb102cbba245db1187511edcfe701d03a84f93e19528fd5760001b610997565b61200f7f9a03cddc5c815574fd1412424527aa1728a2f941a016da83fbe4746b459c0bcc60001b610997565b61203b7f652db2c58b82533a98d3829c46f05f55a14d070a33fbdb20e662bb3c22e8649360001b610997565b603360009061204861967b565b906101000a900473ffffffffffffffffffffffffffffffffffffffff16905090565b6120967ff726fc88418c0a3484479f3aad53d8027d0e2163703da4e11695846a8ecf323960001b610997565b6120c27f684725bd78b70c3fb2cf13b500bfd22c1cd461220ef6c85b59f31f1043c5de1f60001b610997565b6120ee7f66ea293273b42d90ad1edbe377e4882daf414bd29b0dcec70a1119a20e4da60760001b610997565b61211a7fbba45401a87b3041ecdfeb8ba6cdf9dec1a86b5dc1ad9312274f3d920df5ec4460001b610997565b603360009061212761967b565b906101000a900473ffffffffffffffffffffffffffffffffffffffff1673ffffffffffffffffffffffffffffffffffffffff165a6121636196de565b73ffffffffffffffffffffffffffffffffffffffff16146121c2576040517f08c379a00000000000000000000000000000000000000000000000000000000081526004016121b09061afb7565b604051809103906121bf61960d565b50505b6121ee7fe84730383f7e358d6eb5424a73f82ebabefe25dbfc6cacd9a33efe47980ed6a060001b610997565b61221a7f1e8080af53826ea93c0834314df776ac304bf425dcb83719abb60873fded05d360001b610997565b6122467f05ee09d98595e06fc5a4608c638f04358e61e9d181a59179d2f93069b2117fac60001b610997565b6122727fb4833cbd64d89313613117a4fc34fce0f62e7bfd670ee93da9aba1ee1ee4586d60001b610997565b61229e7f2d88291758d54b6773dec5516b3661c137bfc881a2a9608292cbf832b3260c2860001b610997565b81603360006101000a816122b061967b565b8173ffffffffffffffffffffffffffffffffffffffff021916908373ffffffffffffffffffffffffffffffffffffffff160217906122ec61973b565b50505061231b7f774972c16bfebd604693d0392cbf1007b58033d47e3ff75ae5d03fcf1a073fef60001b610997565b6123477f1697602808093fbbac294b5c863fdb742a5d480c4016c073e99d70b9e999ce0460001b610997565b806034908051906020019061235d929190619935565b5061238a7fc5759183963137b34820ce6561b6912e6acd940bcfc29dc1306bf55a68e8b3cb60001b610997565b6123b67f37ecb20db872e47571ee95480fabf4fb5cef32145934449f070cea721eeb698660001b610997565b7f6ed15082ad038474841528b5badca105106d4463e44b5d434130dfb299aa366982826040516123e792919061addd565b60405180910390a15050565b61241f7ff726fc88418c0a3484479f3aad53d8027d0e2163703da4e11695846a8ecf323960001b610997565b61244b7f684725bd78b70c3fb2cf13b500bfd22c1cd461220ef6c85b59f31f1043c5de1f60001b610997565b6124777f66ea293273b42d90ad1edbe377e4882daf414bd29b0dcec70a1119a20e4da60760001b610997565b6124a37fbba45401a87b3041ecdfeb8ba6cdf9dec1a86b5dc1ad9312274f3d920df5ec4460001b610997565b60336000906124b061967b565b906101000a900473ffffffffffffffffffffffffffffffffffffffff1673ffffffffffffffffffffffffffffffffffffffff165a6124ec6196de565b73ffffffffffffffffffffffffffffffffffffffff161461254b576040517f08c379a00000000000000000000000000000000000000000000000000000000081526004016125399061afb7565b6040518091039061254861960d565b50505b6125777fe84730383f7e358d6eb5424a73f82ebabefe25dbfc6cacd9a33efe47980ed6a060001b610997565b6125a37f1e8080af53826ea93c0834314df776ac304bf425dcb83719abb60873fded05d360001b610997565b6125cf7f35c1e9cc1199f2200d42143b1301cd36e22bb67856a637d81416be64eea3c39160001b61663d565b6125fb7f7c5ed2051f2e8d2cdd1c28fcc1022795a9c413873ead031205caae4a56f1c0ce60001b61663d565b6126277f96d77a18c27cfdad838712b23fa030639534b43602dac765a890ee0063c53d7e60001b61663d565b6000603860009061263661967b565b906101000a900473ffffffffffffffffffffffffffffffffffffffff1673ffffffffffffffffffffffffffffffffffffffff16635c9bfc2b6040518163ffffffff1660e01b815260040160206040518083038186806126936197d2565b1580156126a8576000806126a561960d565b50505b505a6126b2619835565b50505050501580156126d1573d6000803e3d60006126ce61960d565b50505b505050506040513d601f19601f820116820180604052508101906126f5919061a3a0565b90506127237f7b287b8e9b874a2d30c2de7fb90c019a2f2af8e61cd5e538e39b1c41f1cc8a7a60001b61663d565b61274f7f63e0b714fc2a60675a74a095355a3842de9f9a5c7179d3d475c692f7bf933b3460001b61663d565b600061277d7f438dddc08b33477b5bbd5e2dd648ee46ead20bc61f191afa254c5bfe8e7b5f1f60001b61663d565b6127a97fa4cf39947f8603f6578e885f1e87b75ef5f618a188a13607b4c72dbd4d06030b60001b61663d565b60006127d77f53e1c945940b14a78d3603516084c49ee62625454527edc8cebe5cbedea6b3e260001b61663d565b6128037f0362981071754076d7bbbe283441f20ac41892884b98788142a603693b5405a260001b61663d565b61280b611333565b809250819350505061283f7f20d8de1b1713804aa6e9cd965b2b34f28ef26e5b32f71281476a20511aa6f95e60001b61663d565b61286b7f606775ce780b4f94b0f0d41bfb9e8d6160442b9460756efa6147a859e416962a60001b61663d565b6128977f13140dcc378f12c926a2b4134e3d089c0916981152a6247a7efdd87000938b1d60001b61663d565b808411156128e3576040517f08c379a00000000000000000000000000000000000000000000000000000000081526004016128d19061b057565b604051809103906128e061960d565b50505b61290f7f7a338854fc80b99692c73e4b9ce638bca98d3c67adb5c6e4d6bbcb04c296605560001b61663d565b61293b7f18c1bd354a10a5ff35c544f48b12cdbe876be7260f334dd5a1c9b3a6ca79b79760001b61663d565b6129677fe4fbfa09ad66d3480fba84544da1b5bd55fc3792006422d9c8de5e6b25efcc0a60001b61663d565b6129937f836abf34515ae1627df7cd42bcf8649d36dce8a387598956eb12c04fd577dd6a60001b61663d565b6129a68383617dea90919063ffffffff16565b8411156129f1576040517f08c379a00000000000000000000000000000000000000000000000000000000081526004016129df9061b137565b604051809103906129ee61960d565b50505b612a1d7f064690c6286ea8deaf0b63ed93f8e16c8496e8091fb6d2d973f67145d79328d360001b61663d565b612a497f94fcd0758f7344abd9109ce09fe93c322a11881a65ca501e39db9400c2f0d82b60001b61663d565b612a757f2425633fa874e1876077f9975ef0e086040eb16aa748d250b1cc9cbc2631f6cd60001b61663d565b60006038600090612a8461967b565b906101000a900473ffffffffffffffffffffffffffffffffffffffff1673ffffffffffffffffffffffffffffffffffffffff1663ebee461d6040518163ffffffff1660e01b81526004016020604051808303818680612ae16197d2565b158015612af657600080612af361960d565b50505b505a612b00619835565b5050505050158015612b1f573d6000803e3d6000612b1c61960d565b50505b505050506040513d601f19601f82011682018060405250810190612b43919061a3a0565b9050612b717fe395fb36d33f618fbb953476c12e83719f2b26ac548ecafe16fe8f6ceeffd85960001b61663d565b612b9d7fdcf4ea0bc531eb60c80d95343d76bf7e41bc054315f91a8eef00387d0dbe48e860001b61663d565b84603c8190612baa61973b565b505050612bd97f941e05c000595bb4aa7058df78b8f8c5700468ca092eb7cf5d148783323b944260001b61663d565b612c057f41dae3a67069262cf764fe5774c8ba4dd0743ac86f9ee9a1cb78833fbdb3e47660001b61663d565b805a612c0f6199d7565b01603d8190612c1c61973b565b505050612c4b7f6b97e0c90ce5911aa039998c9fdfbbc1dfc8a3e4dffc42707102e93f7e2de89660001b61663d565b612c777f86370c6e53186843870fb62640f1824b14661ff19b9759c77282d1de31a5a6e160001b61663d565b7f4db9119741646c419f1ceccdf112b5b9a9b4516355e742e1fa9c479f4dec98da85603d612ca361967b565b604051612cb192919061b1f2565b60405180910390a15050505050565b6000612cee7fd6c6dbfd4bf36b156af386725ee599a07a7fc0502d86558792f32d90271a5e9e60001b611552565b612d1a7f0df76cc601986d069b64699d8ff4fb99fcbc1b9e4220f157da3fd86e163df1dd60001b611552565b612d467f74f9c4c8d25560321ca7a58042227880f04c2c9c527d041bc89b76e7bbdf6cdc60001b611552565b612d727f9d0a02e3e973d364b485ed97415c4bc7224e29a836b070d88d00c4291d80398260001b611552565b81830184511015612dc1576040517f08c379a0000000000000000000000000000000000000000000000000000000008152600401612daf9061b077565b60405180910390612dbe61960d565b50505b612ded7f811b5aac9a857ab8c7cd87ee345761773d2b9d61f70042d22951c307ea4c065a60001b611552565b612e197ffd285ebeb1be2f9b4fb9556de5470780f301ad863061c4de10d0104d490e25c360001b611552565b826020018401519050816004038015612e38576008810260020a820491505b509392505050565b6000612e6e7f4ea6bcccf62bebe8b8504fa26ba5b11f6158da01f43822247a89c9c9077acc3060001b61663d565b612e9a7fcccabf2595ba06367590f8f07f79115de7878719def2c2caaf89d0d1f85eb5cf60001b61663d565b612ec67ffaf5da97d5dfed8496ebbdb9ee23869b141eb0e251af5dab54b4222b3322484e60001b61663d565b6000612ef47f8a22b538c96c481cb98dd460624aef04b5d157624120da0e508dc9d35d6f509660001b61663d565b612f207f29f9fc6cf84576c2fb55c6e69a4aeeebaffbd621a0d206e0404731262687d9c960001b61663d565b60005b603a80612f2e61967b565b90508160ff1610156130a957612f667f6ef3f10143a1690be4e04e5f89d9d50479ad6c808ff30e940a975036986086bf60001b61663d565b612f927f297ea3a2ad46089dd9f75dc41e2e25fa807787b58eb2bb811be15c3c8eca854b60001b61663d565b603a8160ff1681612fa161967b565b8110612fa957fe5b90600052602060002001600001601490612fc161967b565b906101000a900460ff161561306f57612ffc7fa28cf4da2e1685952b48b67fc6f16d39107b35c595c293f0001791bea27fe43860001b61663d565b6130287fbe679059e38cbd390ce1ed71f69bea4742b911bbdcb0937304649b6073b87d9c60001b61663d565b6130547f2fbfd66cf080fa3b416a125d3ad7c018b76d4a17a2b7876302710c97de5ddeeb60001b61663d565b613068600183617dea90919063ffffffff16565b915061309c565b61309b7fa2433bd2f1e7531549ff4182ac35b03c297915ab7b56898006ff31730a0ffa2560001b61663d565b5b8080600101915050612f23565b506130d67fee77718a3e133f264674e55c22dde9d337bd852faee73ec6a83f01a22c06a81160001b61663d565b6131027fb276ec9354d38d2badfe1380d230b813963f50161a4bbd05a638a1211ebccc6960001b61663d565b8091505090565b6131357ff726fc88418c0a3484479f3aad53d8027d0e2163703da4e11695846a8ecf323960001b610997565b6131617f684725bd78b70c3fb2cf13b500bfd22c1cd461220ef6c85b59f31f1043c5de1f60001b610997565b61318d7f66ea293273b42d90ad1edbe377e4882daf414bd29b0dcec70a1119a20e4da60760001b610997565b6131b97fbba45401a87b3041ecdfeb8ba6cdf9dec1a86b5dc1ad9312274f3d920df5ec4460001b610997565b60336000906131c661967b565b906101000a900473ffffffffffffffffffffffffffffffffffffffff1673ffffffffffffffffffffffffffffffffffffffff165a6132026196de565b73ffffffffffffffffffffffffffffffffffffffff1614613261576040517f08c379a000000000000000000000000000000000000000000000000000000000815260040161324f9061afb7565b6040518091039061325e61960d565b50505b61328d7fe84730383f7e358d6eb5424a73f82ebabefe25dbfc6cacd9a33efe47980ed6a060001b610997565b6132b97f1e8080af53826ea93c0834314df776ac304bf425dcb83719abb60873fded05d360001b610997565b6132e57f03564171d41e26763f1458ce21ac5e46c5bcc688bb2a6ec3edd11bdad239106060001b61663d565b6133117fbc7714cb3904be6cbf1ecee5581d4d7cb93f3a80d46b2eed55b13df2360d15ce60001b61663d565b61333d7f5dbb347ac9c6729a1fcc453f5ddd090657103ff282df7e7a813b3da66b771dca60001b61663d565b6133697fc43d69ecb333615af4349f9785ddfe3db7c1a0c0fef7d08900fe81016b676b9d60001b61663d565b603d61337361967b565b5a61337c6199d7565b10156133c6576040517f08c379a00000000000000000000000000000000000000000000000000000000081526004016133b49061b0d7565b604051809103906133c361960d565b50505b6133f27f0ba6a0dfbad5015f8c36c2f2e463d10bce2577be64bde311007bba0625bb88d260001b61663d565b61341e7fce8411b5ca17a82026414bd183d019bb29eb279f73922cfd36de3213e3ac31a560001b61663d565b61344a7ff572ad34ba8b967e433222ce22d3b9d51a5cea1d4af1de993d587ac05526b93e60001b61663d565b61345c603c61345761967b565b617e48565b6134887fd110536fee343e375c6d925a1d6c10068e64f1b68f98298b130f665fb2e8992a60001b61663d565b6134b47fd31202305a469a4ac3858cd07989a2e5d3a3d4412d8d95b07486f93f281548b560001b61663d565b6000603c81906134c261973b565b5050506134f17f8e44bd9cec0c013559a1c0433c451e17389c6dec316983a6bdf5ef72c44421d560001b61663d565b61351d7ff5ab4de18c6a1007c298e7e0ff0aaf25b5961af378e0127a76ee0c5b896af45760001b61663d565b6000603d819061352b61973b565b505050565b61355c7ff726fc88418c0a3484479f3aad53d8027d0e2163703da4e11695846a8ecf323960001b610997565b6135887f684725bd78b70c3fb2cf13b500bfd22c1cd461220ef6c85b59f31f1043c5de1f60001b610997565b6135b47f66ea293273b42d90ad1edbe377e4882daf414bd29b0dcec70a1119a20e4da60760001b610997565b6135e07fbba45401a87b3041ecdfeb8ba6cdf9dec1a86b5dc1ad9312274f3d920df5ec4460001b610997565b60336000906135ed61967b565b906101000a900473ffffffffffffffffffffffffffffffffffffffff1673ffffffffffffffffffffffffffffffffffffffff165a6136296196de565b73ffffffffffffffffffffffffffffffffffffffff1614613688576040517f08c379a00000000000000000000000000000000000000000000000000000000081526004016136769061afb7565b6040518091039061368561960d565b50505b6136b47fe84730383f7e358d6eb5424a73f82ebabefe25dbfc6cacd9a33efe47980ed6a060001b610997565b6136e07f1e8080af53826ea93c0834314df776ac304bf425dcb83719abb60873fded05d360001b610997565b61370c7fca3b0b6a8f0568d214a013263a65c9483dba7aa815bd0585a82fcb6e01b44e4260001b610997565b6137387f32a3f81f40bb087c7fd38d5dcb5c29f487af7b6230e95b2acd83a8141b6ef76160001b610997565b6137647f9f1a6c81fd7ccf33f78b471b0320d8b00b85dda096a45429cf89835a066ff67d60001b610997565b60005b81518110156138c85761379c7f7ae0a1ae04f92781454c373617fd96d4c9ab5fb9828a61d367bf00640648c33460001b610997565b6137c87f8dfa20da60ba28b5cf6e6b094b34a50c8c27b4e1efa56d9a9013613e395b454c60001b610997565b6137e48282815181106137d757fe5b6020026020010151615b44565b1561381a576138157f1bce9586341e7e0f103cc61df037ac5c651216e8a53aebe2b8316b0dfe13a21560001b610997565b6138bb565b6138467fa87f7eb0f11b25a4f28d761815fd69c2ac6e783657f1be3d8a92a6c8e7691e3060001b610997565b6138727ffe1fe1a4bae1838cbdef812094bc9bf6a37b3a1b68cd54d8dc58310eec925add60001b610997565b61389e7ff9c6e6aeebb90b2fd8d734adf26bebb0b4a46cfb0a98ed5d1c527b059e5cf19660001b610997565b6138ba8282815181106138ad57fe5b602002602001015161828e565b5b8080600101915050613767565b5050565b6138f87f4a2989e016ee3db5028bcbf218a52c7f8020ec696e924d242d22b4fb6cf6251960001b610997565b6139247f9217d7e909920e7ad8bda7e617457b1b1a010d29311d5f5d7f99725410308c9a60001b610997565b6139507fca99f56d1fecca0928ae1bc5ccb65c5224b8e55dc84dd587a8321f52da29a17660001b610997565b61397c7f1cf1d6bf9a6148d55d8e187c5872b464ed417dfae2a70ed1b7a0d9e352c3c7b360001b610997565b603360009061398961967b565b906101000a900473ffffffffffffffffffffffffffffffffffffffff1673ffffffffffffffffffffffffffffffffffffffff165a6139c56196de565b73ffffffffffffffffffffffffffffffffffffffff161480613a43575060376000906139ef61967b565b906101000a900473ffffffffffffffffffffffffffffffffffffffff1673ffffffffffffffffffffffffffffffffffffffff165a613a2b6196de565b73ffffffffffffffffffffffffffffffffffffffff16145b613a8b576040517f08c379a0000000000000000000000000000000000000000000000000000000008152600401613a799061b037565b60405180910390613a8861960d565b50505b613ab77f97f1b7ddd15e94821b740ac55ec4c7e565e73373b057c2d2019359a0d93eeecb60001b610997565b613ae37fb44f6a4f52199a66d1a724ff6f87f3767fde1451169ed589ee7d359bd007754260001b610997565b613b0f7fea3e0f9c9505507033d00b81c9facaa3a01a8d30930bcbd55858c4d0144ec10c60001b61663d565b613b3b7f1c6936f801b3089cc7c145ace43a2c6223cde13e8d7d31fe74875e2f88465fd460001b61663d565b613b677f57d08ba045e7a92990c7afde1b32768331f0c5d90286bd19f0d3db6af66ecad360001b61663d565b613b718282617849565b5050565b6000613ba37f4a2989e016ee3db5028bcbf218a52c7f8020ec696e924d242d22b4fb6cf6251960001b610997565b613bcf7f9217d7e909920e7ad8bda7e617457b1b1a010d29311d5f5d7f99725410308c9a60001b610997565b613bfb7fca99f56d1fecca0928ae1bc5ccb65c5224b8e55dc84dd587a8321f52da29a17660001b610997565b613c277f1cf1d6bf9a6148d55d8e187c5872b464ed417dfae2a70ed1b7a0d9e352c3c7b360001b610997565b6033600090613c3461967b565b906101000a900473ffffffffffffffffffffffffffffffffffffffff1673ffffffffffffffffffffffffffffffffffffffff165a613c706196de565b73ffffffffffffffffffffffffffffffffffffffff161480613cee57506037600090613c9a61967b565b906101000a900473ffffffffffffffffffffffffffffffffffffffff1673ffffffffffffffffffffffffffffffffffffffff165a613cd66196de565b73ffffffffffffffffffffffffffffffffffffffff16145b613d36576040517f08c379a0000000000000000000000000000000000000000000000000000000008152600401613d249061b037565b60405180910390613d3361960d565b50505b613d627f97f1b7ddd15e94821b740ac55ec4c7e565e73373b057c2d2019359a0d93eeecb60001b610997565b613d8e7fb44f6a4f52199a66d1a724ff6f87f3767fde1451169ed589ee7d359bd007754260001b610997565b613dba7fb23a19f9310d333bb76c98efbb829acae99fe339f582399745a176479b4884f360001b61663d565b613de67fa8c9e34673a68952d8f18da18f9202173a37fd28b1c20cf5a6963f7226fe29b760001b61663d565b613e127fd88e0452eae93ae4eb4797be30771d5bbed0c5576cf3948a549b0b203c3d55a660001b61663d565b613e3e7f820321967153e79223ac541a90437cab91aac199d1d2adfb2a00162691926eaa60001b61663d565b600073ffffffffffffffffffffffffffffffffffffffff168373ffffffffffffffffffffffffffffffffffffffff161415613eb7576040517f08c379a0000000000000000000000000000000000000000000000000000000008152600401613ea59061b197565b60405180910390613eb461960d565b50505b613ee37feb828909975b933b046eac3a87f71c89f7e32c8fc0252d5f626c1e5d03f9d7c460001b61663d565b613f0f7f0a03d57d164dce8580c91bf3e0bd49b7df34444c9da7d96f81ea36e8343659cd60001b61663d565b613f3b7f33b393a4333ea4a06afa89531d2e9144448948c18763404b869a30c63071c7fd60001b61663d565b60006038600090613f4a61967b565b906101000a900473ffffffffffffffffffffffffffffffffffffffff1673ffffffffffffffffffffffffffffffffffffffff16637027ea6c856040518263ffffffff1660e01b8152600401613f9f919061ac7f565b6020604051808303818680613fb26197d2565b158015613fc757600080613fc461960d565b50505b505a613fd1619835565b5050505050158015613ff0573d6000803e3d6000613fed61960d565b50505b505050506040513d601f19601f820116820180604052508101906140149190619e94565b90506140427ff0569f3f8ef565862c9785d2212fd58e7c72e4585a930ef319fb8e287d60a5b360001b61663d565b61406e7f1cab3fe2c8bd312ec393e86a4f9cdcf129dee4153982515cb57f976cb1424a2660001b61663d565b61409a7f871946dd44ea5b5934c478b17113da0fbf903c044c68da200296aec4c28a864460001b61663d565b600073ffffffffffffffffffffffffffffffffffffffff168173ffffffffffffffffffffffffffffffffffffffff161415614113576040517f08c379a00000000000000000000000000000000000000000000000000000000081526004016141019061b097565b6040518091039061411061960d565b50505b61413f7fe0f8bb93a59881d05fe418104abd8dd741d132c7c097a431ffeaea86dba0eb0960001b61663d565b61416b7f53b1d992a7a24b54b99c2b7636a864b9a459c5cf2c1e795f3614f34353862e0560001b61663d565b6141977fa8c80a1145b7338fc803df6ce35524f7031ff0f9b002b79273515b7192ca2a5f60001b61663d565b6141c37f54c04bfda83a07bd7d80f03e93d5edf5d6f1360293cd10d6f9c2569ec9e02dc660001b61663d565b8073ffffffffffffffffffffffffffffffffffffffff1663e23ff4375a63996d79a5598160e01b8152602081600483336000905af158600e01573d6000803e3d6000fd5b3d6001141558600a015760016000f35b8051925060005b60408110156142385760008183015260208101905061421e565b505050856040518363ffffffff1660e01b815260040161425992919061adad565b6020604051808303816000878061426e6197d2565b1580156142835760008061428061960d565b50505b505a61428d619a34565b5050505050501580156142ad573d6000803e3d60006142aa61960d565b50505b505050506040513d601f19601f820116820180604052508101906142d1919061a15f565b614319576040517f08c379a00000000000000000000000000000000000000000000000000000000081526004016143079061af77565b6040518091039061431661960d565b50505b6143457f4a8754677ce17a56817b411116dacd14d6230104c8218f90c4d668fc11ad17ff60001b61663d565b6143717f232f44e7641bcec1702ffb43d49599e04f46d8d82cf380c86dbdfff99d8a8f9160001b61663d565b61439d7fd7c92f03dc0e49d191f5625d3efa37966af49155ed1d6043775ade7652a69a2460001b61663d565b60008473ffffffffffffffffffffffffffffffffffffffff16846040516143c4919061ac68565b6000604051808303816000865a6143d9619a34565b5050505050509150503d806000811461440e576040519150601f19603f3d011682016040523d82523d6000602084013e614413565b606091505b505090506144437fc22862528145745b115fcefed77731d61c540dd49955ff7980ecb2401a0e897d60001b61663d565b61446f7fccd4ff71b27b8138d2f552e081ca1e831ee70aaa49845a78afbb9e32a12c55d660001b61663d565b61449b7f275cb8d808d465f7a3c8073c1da852f4d95e33eba24709d7bf17e3b632264d9560001b61663d565b60011515811515146144eb576040517f08c379a00000000000000000000000000000000000000000000000000000000081526004016144d99061b177565b604051809103906144e861960d565b50505b6145177f2904b3fd39506d6b35dcb4d7fc4d2a4713282253fc0bfd144ebfb231a805ddb960001b61663d565b6145437f22f69d32d939c59bb86d7daa37d42170ba2c3d64ef9b54fdb3c1c043a97e060660001b61663d565b61456f7f7eb05d44d6006b2cbe02c3b2654894860943e2e0fc87ed263c57825eb4a5783260001b61663d565b7f508f3afa87f72dce865a2321107666b28ac822c23a8c0555fbeb3424cf3de563603960009061459d61967b565b906101000a900473ffffffffffffffffffffffffffffffffffffffff166145c2611fb5565b5a6145cb6199d7565b6040516145da9392919061ad08565b60405180910390a161460e7ff111dd7986fefc76d63cf6f7b47d224fc02e7dacacc249ee23d4250c590b706a60001b61663d565b61463a7f199d933c7fccadf369f24e9e6a63c65c665827eec93e597cc9c273d212edb23860001b61663d565b60019250505092915050565b603d61465061967b565b81565b61467f7ff726fc88418c0a3484479f3aad53d8027d0e2163703da4e11695846a8ecf323960001b610997565b6146ab7f684725bd78b70c3fb2cf13b500bfd22c1cd461220ef6c85b59f31f1043c5de1f60001b610997565b6146d77f66ea293273b42d90ad1edbe377e4882daf414bd29b0dcec70a1119a20e4da60760001b610997565b6147037fbba45401a87b3041ecdfeb8ba6cdf9dec1a86b5dc1ad9312274f3d920df5ec4460001b610997565b603360009061471061967b565b906101000a900473ffffffffffffffffffffffffffffffffffffffff1673ffffffffffffffffffffffffffffffffffffffff165a61474c6196de565b73ffffffffffffffffffffffffffffffffffffffff16146147ab576040517f08c379a00000000000000000000000000000000000000000000000000000000081526004016147999061afb7565b604051809103906147a861960d565b50505b6147d77fe84730383f7e358d6eb5424a73f82ebabefe25dbfc6cacd9a33efe47980ed6a060001b610997565b6148037f1e8080af53826ea93c0834314df776ac304bf425dcb83719abb60873fded05d360001b610997565b61482f7ffa543b6f107045bf9c2087163c37dcfab98a23c4a624261978c06a9eca09d75860001b610997565b61485b7f82fb810c0be715dc0d93fe45e4b3a95b91e18835f3f3ca0fa8447a053d3902a760001b610997565b6148877ff819c58381b02ea27fb2e0c25d6dd614b7b856ae0a9cac81bc172816adf45f4660001b610997565b6000603760006101000a8161489a61967b565b8173ffffffffffffffffffffffffffffffffffffffff021916908373ffffffffffffffffffffffffffffffffffffffff160217906148d661973b565b505050565b60006149097ffaab115858d9fce9efc97f1bbbb6e0df3297f8f129d4b2eded2c231a15f4085860001b611552565b6149357ff893ef875ca94e9c3fc4cc86b45216aece14b700e6ec2a78405a4d0c8f88e0ca60001b611552565b6149617fab731ada03353f5fae632f632758df8ca199a2c0ed3b8fca3d506596ce85d1e860001b611552565b614976836004846020020160ff1660206164bd565b905092915050565b60006149ac7f8b3f70460638d519b2bd3c5c69706d337c766051aa7046bc4c199afe25d6e70260001b61663d565b6149d87f9b70d6a507276d3c315c08b4a7fd7c2cb6a031f2f9ec5b4190f406371589cf0b60001b61663d565b614a047f84fea67752f49fd6313a723a261dc8a8028269ce6383124800dd43b23f5e6fc860001b61663d565b614a307fc21712182a89d716a142d001dc70c51b425e4cc5db623cf8137ed7b9e48b423660001b61663d565b6038600090614a3d61967b565b906101000a900473ffffffffffffffffffffffffffffffffffffffff1673ffffffffffffffffffffffffffffffffffffffff165a614a796196de565b73ffffffffffffffffffffffffffffffffffffffff161480614b9957506038600090614aa361967b565b906101000a900473ffffffffffffffffffffffffffffffffffffffff1673ffffffffffffffffffffffffffffffffffffffff16631d68702d6040518163ffffffff1660e01b81526004016020604051808303818680614b006197d2565b158015614b1557600080614b1261960d565b50505b505a614b1f619835565b5050505050158015614b3e573d6000803e3d6000614b3b61960d565b50505b505050506040513d601f19601f82011682018060405250810190614b629190619e94565b73ffffffffffffffffffffffffffffffffffffffff165a614b816196de565b73ffffffffffffffffffffffffffffffffffffffff16145b614be1576040517f08c379a0000000000000000000000000000000000000000000000000000000008152600401614bcf9061aff7565b60405180910390614bde61960d565b50505b614c0d7fe6f4137afa4f45b35a9a17209a519567b4cf7f6f352edea6acf54f58ca946cbe60001b61663d565b614c397fdcda9a052a01f7c048b6cf6aff3f1718ad8e27d874fa0b2e445af5a63b8c867d60001b61663d565b614c657ff4314893ceed0a29d3012f2f3e7c8bf489f2da1967d2ad60a8ff809cea5827c460001b61663d565b614c917f46e1487fa4e5305427fd56bdbb0443978cfc6864e0c9f022663c64491258016360001b61663d565b5a63996d79a5598160e01b8152602081600483336000905af158600e01573d6000803e3d6000fd5b3d6001141558600a015760016000f35b8051925060005b6040811015614cea57600081830152602081019050614cd0565b50505073ffffffffffffffffffffffffffffffffffffffff168273ffffffffffffffffffffffffffffffffffffffff16631e50a4a66040518163ffffffff1660e01b81526004016020604051808303818680614d446197d2565b158015614d5957600080614d5661960d565b50505b505a614d63619835565b5050505050158015614d82573d6000803e3d6000614d7f61960d565b50505b505050506040513d601f19601f82011682018060405250810190614da69190619e94565b73ffffffffffffffffffffffffffffffffffffffff1614614e05576040517f08c379a0000000000000000000000000000000000000000000000000000000008152600401614df39061afd7565b60405180910390614e0261960d565b50505b614e317f0d7aa4b27efd9a78de0ad0e8b27046bfb484a0d63ae514a0f7698e0c6a342f8960001b61663d565b614e5d7f7afc5df97597ebab1e51d0dc4d7acff95cd70cdf5f3874d46bd06459533d1b8a60001b61663d565b614e897f904b22a43de70a318e54a16ff5d6b2cb96d1a81d40826dfc1e9e12dd674da79660001b61663d565b81603960006101000a81614e9b61967b565b8173ffffffffffffffffffffffffffffffffffffffff021916908373ffffffffffffffffffffffffffffffffffffffff16021790614ed761973b565b505050614f067f1aaff7490c0222603ddea6b962514ed89c3c1d0baf8f7a244c6bf6c4c552cbf060001b61663d565b614f327f42dd38a7b2161d5a793a3fbcedd1a1da845c7e6454084e922be74707de4b228a60001b61663d565b7f8c1446ebd2ac8c922b8c9716dfbdfcfef02c9fc167140d7cfd019565b423b249825a614f5d6196de565b604051614f6b92919061ac9a565b60405180910390a1614f9f7f916c419929ef41d842b20f39c05ce07c2a51d1a4b8d041a5550052b4c0afc39860001b61663d565b614fcb7fbc990a81b1853094bbe4188026e30b0d37b3c3837234ec206185fbcb0e57fcb060001b61663d565b60019050919050565b603c614fde61967b565b81565b600061500f7ff4eb5ba226e69772b2b21020f90a9cdd10e942d1315da41a72d2fadbf1d0df5660001b61663d565b61503b7f7d511db2bcc7475f5a3ae878e1958f13f4877eff35c06188f5831ecec13861ed60001b61663d565b6150677faae9066dd90e3e843c5023454fc21a677911c370fbe8ed5bf02c98065b4a440b60001b61663d565b603860009061507461967b565b906101000a900473ffffffffffffffffffffffffffffffffffffffff1673ffffffffffffffffffffffffffffffffffffffff1663cc435bf3836040518263ffffffff1660e01b81526004016150c9919061ac7f565b60206040518083038186806150dc6197d2565b1580156150f1576000806150ee61960d565b50505b505a6150fb619835565b505050505015801561511a573d6000803e3d600061511761960d565b50505b505050506040513d601f19601f8201168201806040525081019061513e919061a15f565b9050919050565b60006151727ecbfaec9af60292b443ac1af0cd2e5c0a6b65e2c43012e7c67213a14adb8aca60001b61663d565b61519e7f1dbb7931e6b0099b6161055ba4527907616a00fa552a3eddff00c84c66b0265760001b61663d565b6151ca7f3f1a2eed188c250001e7a11452425b983accababfdda7d4e0e40498aa20b599260001b61663d565b603a806151d561967b565b9050905090565b600061520a7f8f457202f427629ea60baa80f7f914c085350c8f2ca4f9fd180aca9fc44ec1f560001b611552565b6152367f4da3e58273fe915f61c0c9a457139e818bfac3b557b392cdd56b41b84d0d8def60001b611552565b6152627f5a7820acfad558e8182703c3d21294f7dfe53893d06442449d90f8b2f322864560001b611552565b6000615279846004856020020160ff1660206164bd565b90506152a77f8ccb0543f48fb49fbfcbc888a85917c4133287cc7f38bafdefda960c0dcb4cd760001b611552565b6152d37f2c0a939cfc53a406486784d858b7febb9711ec07456a8d9c024180617f6cc92960001b611552565b6152e58460048360001c0160206164bd565b60001c91505092915050565b600061531f7f53a53a91090dedce43f3ccc2f73eea130dde2155764df6f2ce2d098085f57f7060001b61663d565b61534b7fcc769722de3559752c0f7b8777c5bf0d4619dc8d61fc7ac980fda17ffcee13b360001b61663d565b6153777f6c2ec9bcee2affbc4d741f5d227c20c015750d200621691492782fabad93a70060001b61663d565b6000603b60008473ffffffffffffffffffffffffffffffffffffffff1673ffffffffffffffffffffffffffffffffffffffff1681526020019081526020016000206153c061967b565b14159050919050565b60606153f77f2ed9a800c6e07ab375323e4e1b0434d34b8c38ec279ba4963f47788acfe8c13d60001b610997565b6154237fd5271b2106a2b6b81360a695af0acfd076f10b58c416fca6fb4c2c4d4a66a94360001b610997565b61544f7f6e567f3752e55b17556beeed4082fe27184f8d2629d21114383aa0ea894a70b760001b610997565b60358061545a61967b565b8060200260200160405190810160405280929190818152602001828061547e61967b565b80156154e657602002820191906000526020600020905b816000906154a161967b565b906101000a900473ffffffffffffffffffffffffffffffffffffffff1673ffffffffffffffffffffffffffffffffffffffff1681526020019060010190808311615495575b5050505050905090565b600061551e7fb7631d099694a00ad219758cf924c237e53cf23ca4a9e085b9509716e095fb7260001b610997565b61554a7f1ac44fbaaf227ab2643b07a1ead07ba59b6efee2e01890ca6c3c8eb663480c5b60001b610997565b6155767f9a3ff978878e4f6fc1f75cc42031941c8b2b821a789f51a48ee1f5a5a295543f60001b610997565b60358061558161967b565b9050905090565b6155b47ff726fc88418c0a3484479f3aad53d8027d0e2163703da4e11695846a8ecf323960001b610997565b6155e07f684725bd78b70c3fb2cf13b500bfd22c1cd461220ef6c85b59f31f1043c5de1f60001b610997565b61560c7f66ea293273b42d90ad1edbe377e4882daf414bd29b0dcec70a1119a20e4da60760001b610997565b6156387fbba45401a87b3041ecdfeb8ba6cdf9dec1a86b5dc1ad9312274f3d920df5ec4460001b610997565b603360009061564561967b565b906101000a900473ffffffffffffffffffffffffffffffffffffffff1673ffffffffffffffffffffffffffffffffffffffff165a6156816196de565b73ffffffffffffffffffffffffffffffffffffffff16146156e0576040517f08c379a00000000000000000000000000000000000000000000000000000000081526004016156ce9061afb7565b604051809103906156dd61960d565b50505b61570c7fe84730383f7e358d6eb5424a73f82ebabefe25dbfc6cacd9a33efe47980ed6a060001b610997565b6157387f1e8080af53826ea93c0834314df776ac304bf425dcb83719abb60873fded05d360001b610997565b6157647fa9c54cfd6f30dea6afcf1f9dd7f07ffff37728fe01f0e5a40f5096f606a13c7160001b610997565b6157907f0af02d0f2eb7557c62178a54ab63f9dc59095fafde4b296939f7412ba772544860001b610997565b6157bc7f2298149c6c1d75e262236031617e1bc7933b0658b5158cf017376769c15bb39b60001b610997565b80603760006101000a816157ce61967b565b8173ffffffffffffffffffffffffffffffffffffffff021916908373ffffffffffffffffffffffffffffffffffffffff1602179061580a61973b565b50505050565b61583c7ff726fc88418c0a3484479f3aad53d8027d0e2163703da4e11695846a8ecf323960001b610997565b6158687f684725bd78b70c3fb2cf13b500bfd22c1cd461220ef6c85b59f31f1043c5de1f60001b610997565b6158947f66ea293273b42d90ad1edbe377e4882daf414bd29b0dcec70a1119a20e4da60760001b610997565b6158c07fbba45401a87b3041ecdfeb8ba6cdf9dec1a86b5dc1ad9312274f3d920df5ec4460001b610997565b60336000906158cd61967b565b906101000a900473ffffffffffffffffffffffffffffffffffffffff1673ffffffffffffffffffffffffffffffffffffffff165a6159096196de565b73ffffffffffffffffffffffffffffffffffffffff1614615968576040517f08c379a00000000000000000000000000000000000000000000000000000000081526004016159569061afb7565b6040518091039061596561960d565b50505b6159947fe84730383f7e358d6eb5424a73f82ebabefe25dbfc6cacd9a33efe47980ed6a060001b610997565b6159c07f1e8080af53826ea93c0834314df776ac304bf425dcb83719abb60873fded05d360001b610997565b6159ec7f86bd145c6ef8d8c06e20a7ea04c1b16df6ff38623513f0e063446b695046f03660001b61663d565b615a187f51a73355a1e050a91f0adbd807f0d0e48a00752ef2f457695f3b07fef4f88d3b60001b61663d565b615a447f2dba81259795cf8b901fbc03489dfe07c2cbb0b391ea47b8c2745035f5b73a6560001b61663d565b6000603c8190615a5261973b565b505050615a817f1c8d12560fca8ad52e52f94ab7cd1984b07a21a853dce1e4c8c8ad3f3842b48160001b61663d565b615aad7fa2fc82432c47cf5acb36d31c764e3fd18ff5f7318962b1e1cb4986ce55716d3c60001b61663d565b6000603d8190615abb61973b565b505050615aea7fd9ba4d6f41bd2615687c1de2815dcf15aa6b371c0c67aa4a4c083de53ebf456f60001b61663d565b615b167fa1efd546958776448c77b6a56e2c347eee98b22c3503033475910922eee0dbc860001b61663d565b7fc6f04bf43cbdf1ba5d51b4afa160bb3c7e13858b1409aa32868b239bb2f8d84960405160405180910390a1565b6000615b727f93bced7c6681af6c6d03eb68ab915229f26fad5feb1af98189749dbeb8a77d6b60001b610997565b615b9e7feb16ffe1c44dd3fa467685a7961c9da0f9967e47a0da90e288000ce0c2de65e760001b610997565b615bca7f4f088eeed859d895cbfaa9949df5c86833ec2c751d2ed1f39a62549b72574cc160001b610997565b6000603660008473ffffffffffffffffffffffffffffffffffffffff1673ffffffffffffffffffffffffffffffffffffffff168152602001908152602001600020615c1361967b565b14159050919050565b6000615c4a7f93b04c47422d33905b75292a9cd353e5a29d3fc25495025c87d998896306077c60001b61663d565b615c767f19c187ab9310ab78cf912d171374cb8bb430e540e688489a1c740ad5ce4d77ae60001b61663d565b615ca27f4d09ffdb30207ce60bbc979fb44d847b6797896ff97da1a8be413925940d94b060001b61663d565b6000603b60008473ffffffffffffffffffffffffffffffffffffffff1673ffffffffffffffffffffffffffffffffffffffff168152602001908152602001600020615ceb61967b565b9050615d197f4315c8bca14abddb63fea0481e0fc60c70a499fbe6c38cf75fc39bd9ec412b5660001b61663d565b615d457f5356fdedd5f92d700d763fa2e8bd3d1a99379dfbdf973becc25c26f68bbd723560001b61663d565b60008114615e2257615d797f2212d5541c83fbc01c822ae95cdac3174a22ee9bb8b4b05790b031b00a82aaeb60001b61663d565b615da57f0d282614d8a27842c75b30efb3233d19140dee5c91e603a657422fc084aea3d660001b61663d565b615dd17fe9789cd1672903b223efbb70f567f68ba3a1eac7f8347789397345b03d171e0560001b61663d565b603a615de760018361844990919063ffffffff16565b81615df061967b565b8110615df857fe5b90600052602060002001600001601490615e1061967b565b906101000a900460ff16915050615e4f565b615e4d7e144d81a1d5f8eaa3a9e37fd3c921500eb5762a89f971d8c87421954fa80b2e60001b61663d565b505b919050565b6000615e827fefe2c22b09876a856e39aa166afadf74ae34fe283090d9979cb49ad407e38f1e60001b611552565b615eae7fa17e61bf25b219f9e370180ea595fbf5c5023abe458e1c62e77b21b115a1bd0b60001b611552565b615eda7ff879bb38771c8cf94106f3671591cfac3d19bc2e769322669e85c43b59b6fb8f60001b611552565b615ee78260006004612cc0565b9050919050565b6038600090615efb61967b565b906101000a900473ffffffffffffffffffffffffffffffffffffffff1681565b603a8181615f2761967b565b8110615f2f57fe5b9060005260206000200160009150905080600001600090615f4e61967b565b906101000a900473ffffffffffffffffffffffffffffffffffffffff169080600001601490615f7b61967b565b906101000a900460ff16905082565b615fb67ff726fc88418c0a3484479f3aad53d8027d0e2163703da4e11695846a8ecf323960001b610997565b615fe27f684725bd78b70c3fb2cf13b500bfd22c1cd461220ef6c85b59f31f1043c5de1f60001b610997565b61600e7f66ea293273b42d90ad1edbe377e4882daf414bd29b0dcec70a1119a20e4da60760001b610997565b61603a7fbba45401a87b3041ecdfeb8ba6cdf9dec1a86b5dc1ad9312274f3d920df5ec4460001b610997565b603360009061604761967b565b906101000a900473ffffffffffffffffffffffffffffffffffffffff1673ffffffffffffffffffffffffffffffffffffffff165a6160836196de565b73ffffffffffffffffffffffffffffffffffffffff16146160e2576040517f08c379a00000000000000000000000000000000000000000000000000000000081526004016160d09061afb7565b604051809103906160df61960d565b50505b61610e7fe84730383f7e358d6eb5424a73f82ebabefe25dbfc6cacd9a33efe47980ed6a060001b610997565b61613a7f1e8080af53826ea93c0834314df776ac304bf425dcb83719abb60873fded05d360001b610997565b6161667fca7a2cabde565574087071fe1607587d54e9e4133febff955ce26370d56e3ade60001b610997565b6161927f4ae3bf1ec5df71fa19b4106be830080cd878ca1570b66601524259dfbf1fd26e60001b610997565b6161be7f3838976ed10281aed5556e0ea1a9a9d902617371c45c8baa61360d5bed3477cf60001b610997565b6161c781615b44565b15616229576161f87f9e044fc86a21d5bea6729c5c16aa15fd506f956dfdb708ba65d9e8a7beac4f6f60001b610997565b6162247fd20a97c35c6e3960f640bed6bcf30b3b89d45a7f1e1cd929e6c3af489665defb60001b610997565b6162b7565b6162557fe05601f46dfa4021edf6bb0b2c9f2cf613f1681fffcc7fb98c6d0c830d769bd360001b610997565b6162817f34bbbad5e06ddcd395174303e2003f6303d14e382aefe8484f63907b9abe0d7f60001b610997565b6162ad7f83b37c54dbaea8c77bfadc63f8f606565b9dc8564774a7e836bab8707586de0860001b610997565b6162b68161828e565b5b50565b60006162e87f57c28dc3b9fffcd2809a348a95dd172639da7a162d037461f64b606498a978f860001b61663d565b6163147fbece09c88799d3d5df45f9e8605393ee4c853f1bba390b784c7dc8fd4265410860001b61663d565b6163407f4e2acb629a669d564ffc538dc006e2b57aa1a422a23261ddd3a92287798e04c660001b61663d565b8173ffffffffffffffffffffffffffffffffffffffff166370a08231603960009061636961967b565b906101000a900473ffffffffffffffffffffffffffffffffffffffff166040518263ffffffff1660e01b81526004016163a2919061ac7f565b60206040518083038186806163b56197d2565b1580156163ca576000806163c761960d565b50505b505a6163d4619835565b50505050501580156163f3573d6000803e3d60006163f061960d565b50505b505050506040513d601f19601f82011682018060405250810190616417919061a3a0565b9050919050565b600061644c7f271eda76ea5a2f24aaf7354a2f6a056821e172ad356836f8df08dd15691e98e960001b61663d565b6164787f10fcfd0346feaac440e741509dd990ab5843d253a00469b7235a1546d467362a60001b61663d565b6164a47ffcf7d7b23ef441d9f2c7e067b8792e619c5eba9b696a3d04abaa5ec9b5d313eb60001b61663d565b6164b6826164b1846162ba565b611555565b9050919050565b60006164eb7fdbf66ce83ce63e1b90e474f035c4a8d784e0e29bf54a573c26983a0f4a4cbbcb60001b611552565b6165177feb2cd4358c15899b1595ad29b0ef0b53024f659bfd60d9f832cfd5823d57459460001b611552565b6165437fc3be7f0e5a666c19a596140bd00fdc4df0b35f7dffd237a9b85317c383366c9460001b611552565b61656f7f2acb4df9e63e73b3d49d7b38657b1574f30cd3acb64bc5e5b73ab1144ceb9b8360001b611552565b818301845110156165be576040517f08c379a00000000000000000000000000000000000000000000000000000000081526004016165ac9061b077565b604051809103906165bb61960d565b50505b6165ea7f3f71e92bd14f821d88273ee800e0b73eae1655a1d351098740c416395fb88be160001b611552565b6166167f4012a161d651452a28c3646c96a8ddc6a29d16ef089a2e5ae51fb2b45e28cb2660001b611552565b826020018401519050816020038015616635576008810260020a820491505b509392505050565b50565b606061666e7f3260d180c380e176b198f70a823c04aa387cae8133a8fd0b709f9a3cca2d434c60001b61663d565b61669a7fe0963aa2335554a4f893220841ac9c316bd76c9d38a8bcd38b4bf7d718bc25a560001b61663d565b6166c67f0dbd56dbd86e4dd46b95fc2cb588ed210e641a66e81665800ec64cd2691c55a560001b61663d565b6000603a806166d361967b565b905090506167037fe9072b8625aa2ee72d07ed7735211002981512a650191656fb4f11a9b07c5fd160001b61663d565b61672f7f3ccd0a808e48e44616829758d3d19e77c7ebfc6eaff2aa0e24df20669e6f339e60001b61663d565b60608167ffffffffffffffff811180156167515760008061674e61960d565b50505b506040519080825280602002602001820160405280156167805781602001602082028036833780820191505090505b5090506167af7f4b64c7a0244f39d3332edee08863f3fb57e058aabb848b10de620fdc90c8534b60001b61663d565b6167db7f950b8518bbab3f20e9337b10ec34155f20b78d00ad347f61ad24cdc85f664f9b60001b61663d565b60005b828160ff1610156168e3576168157f96b104a0386b7cb83694400d94b698396520cebba2226759d92e362762fa3f2960001b61663d565b6168417f661f4a1d3037ce8d82c2dfa4e05fbaa776d4753ee4b14186eef4f2a7f74a6fa260001b61663d565b603a8160ff168161685061967b565b811061685857fe5b9060005260206000200160000160009061687061967b565b906101000a900473ffffffffffffffffffffffffffffffffffffffff16828260ff168151811061689c57fe5b602002602001019073ffffffffffffffffffffffffffffffffffffffff16908173ffffffffffffffffffffffffffffffffffffffff168152505080806001019150506167de565b506169107f3e61fa4a848ba22e013a9f1ba7eecdc2f75e84393f5b45c9918c0261f315216f60001b61663d565b61693c7fbdfc574bd44f37e1634105ac4116575557aa36198549b5fecddec43a59e1b86260001b61663d565b809250505090565b6000806169737fcc3c7b1eca5e0de5c031e811b85686338935fc347791b678ff02e03199c4063160001b61663d565b61699f7f62d2d590f4d69e84b62bcabfd091707839a8edbe513dc4385900d68fef1bffb860001b61663d565b6169cb7fed21ea51fbeeca80e17329288396599f0e8d6d369e30d72b9f6fa20eab2d5c6a60001b61663d565b603c6169d561967b565b603d6169df61967b565b915091509091565b6060806060616a187fb31ae6e786136b50c3d8d9f3e059778eee5be310e3a90a7c974f85fc261f88f360001b61663d565b616a447f0d4f20427a457deaa29e2607b9c5d07390315ce5e78b3a59444fd8064982444b60001b61663d565b616a707f174f8435ab98e644e58540d2ea9e0324ee07dd9d1682d7e3f11e31360959458d60001b61663d565b6000603a80616a7d61967b565b90509050616aad7f18acc4040281a664075d5b12d19522595a02a42a5126a1309b9f57c6153396c360001b61663d565b616ad97fb0aed222a936a5014000acecbace83932c650de664a5c698f87841f8dec9835560001b61663d565b60608167ffffffffffffffff81118015616afb57600080616af861960d565b50505b50604051908082528060200260200182016040528015616b2a5781602001602082028036833780820191505090505b509050616b597f37c0b9796bffb771af0967e9d8bf69741515429afbf5e28a9150e49577cedaab60001b61663d565b616b857ffa60933e2597c3f3b416821bd3e92105d5e5aab2cf7d799547d124e9f08d2cba60001b61663d565b60608267ffffffffffffffff81118015616ba757600080616ba461960d565b50505b50604051908082528060200260200182016040528015616bd65781602001602082028036833780820191505090505b509050616c057faa3595169fd0f8408432e52984cf70935fb12d9dae940a5c21a4c6a8613091ea60001b61663d565b616c317f41a9ea5e5bb520d6bfa148ce7d1ca98002533d4d78c2b0adc051bb8263f42de560001b61663d565b60608367ffffffffffffffff81118015616c5357600080616c5061960d565b50505b50604051908082528060200260200182016040528015616c825781602001602082028036833780820191505090505b509050616cb17f317a8a921a25705163543673f3d51faa34585aae87dc6a82e9385f9eea2f726060001b61663d565b616cdd7f1b53fdb681c38023d240f742fa2d21660cd413ae11b63027d4d7ba9dd2b688f560001b61663d565b60005b84811015616ffa57616d147f21e779a67e428f8ebf7ffc9a8a271f50f5a9a01da0d971bc723fdd0bd499674760001b61663d565b616d407f2ce8f06b9931450b0f3c25fffc8ac6c7d4ad12003c4f2a5ce571fe593ac3e41160001b61663d565b6000603a8281616d4e61967b565b8110616d5657fe5b90600052602060002001600001600090616d6e61967b565b906101000a900473ffffffffffffffffffffffffffffffffffffffff169050616db97ff0867a135bb1c2cf61c4d678246e0551b31d8214c5f59558b4dbab0b2d799f4960001b61663d565b616de57f5748963f613e0268fb376aaac1775a2800ebacef2099adbc62514ac4c21d9a3460001b61663d565b616dee816162ba565b848381518110616dfa57fe5b602002602001018181525050616e327fa93a122f4bd2e2d457d0328fb8514945bcae59a49fa02426a5bdd1cf20e7ab6060001b61663d565b616e5e7f94b8a9d4201de8c5313ae52b39b39a888fa5a750842eeaeb03a81c6ba235001d60001b61663d565b80858381518110616e6b57fe5b602002602001019073ffffffffffffffffffffffffffffffffffffffff16908173ffffffffffffffffffffffffffffffffffffffff1681525050616ed17fcf73224d96d4cb4c1b62a45dc937e5cefb345680518a3fed8707a4a28949fc0360001b61663d565b616efd7ff3f14f3bf93c4dc91d9b2740edd7723d51e576d96bb92f0c6c957b47ac2f5c5260001b61663d565b6038600090616f0a61967b565b906101000a900473ffffffffffffffffffffffffffffffffffffffff1673ffffffffffffffffffffffffffffffffffffffff16638b2f0f4f826040518263ffffffff1660e01b8152600401616f5f919061ac7f565b6020604051808303818680616f726197d2565b158015616f8757600080616f8461960d565b50505b505a616f91619835565b5050505050158015616fb0573d6000803e3d6000616fad61960d565b50505b505050506040513d601f19601f82011682018060405250810190616fd4919061a3a0565b838381518110616fe057fe5b602002602001018181525050508080600101915050616ce0565b506170277fc8ab0b423bab6bcce2d5a804a8c6cdc2ade79a98b57bb148e174097506479c5f60001b61663d565b6170537fea25610234b84fbc1217aa774c2003c47bd8800e134f16707a05159a7c3a100a60001b61663d565b82828296509650965050505050909192565b60606170937fe7ded372597b04070dc23b8073f76f16369afe1ba9bb655212499ca4c89078f060001b610997565b6170bf7f01ec58831db98f33618ad51b08b94ed3a3a6b0622fcfb23a3be0f3c3909ecf1c60001b610997565b6170eb7f9cab5560c48acff3bdc66326ea997f6ec4889edc87b772b7ec0867872efa8b0b60001b610997565b6034806170f661967b565b600181600116156101000203166002900480601f0160208091040260200160405190810160405280929190818152602001828061713161967b565b6001816001161561010002031660029004801561719d5780601f1061716b57610100808361715d61967b565b04028352916020019161719d565b820191906000526020600020905b8161718261967b565b8152906001019060200180831161717957829003601f168201915b5050505050905090565b6171d37f43d4d67dc7f967cc97563907b86c2519d42dcc126e20c1f02c04390ace2db7d960001b610997565b6171ff7f9a33241be8ddde47c507c09ca66ad831c8dff917b40a1657dd3f1f7160faa37a60001b610997565b61722b7fd976149b1269705ae23cacedb5a8a0d8cf214428935148b777fd1e2437b701e560001b610997565b600060358061723861967b565b905090506172687f0be28d4891fc3d9806bb2f98a38c5ded5aaf8a95e3656f5059d7c3c51cc7161560001b610997565b6172947f982408f60d6d6df50dc0350c15c812b70faf6b72c73c1f7d4ee3b420355975d260001b610997565b60006172f06001603660008673ffffffffffffffffffffffffffffffffffffffff1673ffffffffffffffffffffffffffffffffffffffff1681526020019081526020016000206172e261967b565b61844990919063ffffffff16565b905061731e7fd23a7fca9f4d6905f8ef0768ea2e240a0f20482a65e1a39a997147409e71e54760001b610997565b61734a7fc12ef148a50437be9c6c3fe2886c3fa010931c5b6d7cdf9403f213763e80a2c260001b610997565b6000603561736260018561844990919063ffffffff16565b8161736b61967b565b811061737357fe5b9060005260206000200160009061738861967b565b906101000a900473ffffffffffffffffffffffffffffffffffffffff1690506173d37f417697173a7e5a834c2b335e9ad87be0f0870d0ce953cde7d1746d7c20393a3660001b610997565b6173ff7f797aa45c850cf8a13ebf5e0692ce4233c1ca36547a673b9667aa0ef542e6204b60001b610997565b806035838161740c61967b565b811061741457fe5b9060005260206000200160006101000a8161742d61967b565b8173ffffffffffffffffffffffffffffffffffffffff021916908373ffffffffffffffffffffffffffffffffffffffff1602179061746961973b565b5050506174987f904707040d9ebaf87a4ba18a853b7f7bfbfb7cc74efbba90b546b2b527e7d77b60001b610997565b6174c47fa36e670d734c079531017080326060167c11cc6330c00467364d94e3901260d060001b610997565b6174d8600183617dea90919063ffffffff16565b603660008373ffffffffffffffffffffffffffffffffffffffff1673ffffffffffffffffffffffffffffffffffffffff168152602001908152602001600020819061752161973b565b5050506175507f6cef904dfc8e44bc602f22936344c33e18e8f32de8130f62b6ac3e044feef62360001b610997565b61757c7f148ba67878f02304e3e32d635da24799fb83800211723c864a28b0e14b0e946260001b610997565b6000603660008673ffffffffffffffffffffffffffffffffffffffff1673ffffffffffffffffffffffffffffffffffffffff16815260200190815260200160002081906175c761973b565b5050506175f67f37cbd5cc2380c7027b945e93e7b84b8577e206e5bca9a39c21c51c2aebbd3f8c60001b610997565b6176227f4731067e33b609595a4497107bfa3cec3fa3eca7626a916057ddc4b5a31456c560001b610997565b60358061762d61967b565b8061763457fe5b6001900381819060005260206000200160006101000a8161765361967b565b9073ffffffffffffffffffffffffffffffffffffffff0219169061767561973b565b50509061768061973b565b505050505050565b6000805a63996d79a5598160e01b8152602081600483336000905af158600e01573d6000803e3d6000fd5b3d6001141558600a015760016000f35b8051925060005b60408110156176e4576000818301526020810190506176ca565b50505090506000816176f46197d2565b9050600081149250505090565b61772d7f7a588846b7b8e59b62e22986f1cb03725d0c799bc40b4c73078dc20574eac2e960001b610997565b6177597f6bd94a7dd2e31883755a94a28e28b0cb8429ba928dc381140d7d77004c42d93360001b610997565b6177857fa83ebde687c92ed750fa8c4250da0e5f9644a2bfe9f251f0e042fe7fc85d576a60001b610997565b81603360006101000a8161779761967b565b8173ffffffffffffffffffffffffffffffffffffffff021916908373ffffffffffffffffffffffffffffffffffffffff160217906177d361973b565b5050506178027fba877d339753ca494df1548e242158439ecda7d0f68d1bab8ffb69bf3ad67e7060001b610997565b61782e7f4bd1b9cef254dde54fb7b4ba3a076b2a8892c4069d2956afda2d83132d0d4ea960001b610997565b8060349080519060200190617844929190619935565b505050565b6178757f34770cbf8a57b8b3f013f4fa1d4f26bf4bbde5ef592bf1fefbccc15cef5e0f4960001b61663d565b6178a17f7e1aa943359470189bab3b6926c9faaa914376640e24ff3f6062628b4235e8a860001b61663d565b6178cd7f35545561e4c776f38d70d9aa9b8bd8d0ca531afda75f4506f3e9a8b575c5676b60001b61663d565b60005b81518160ff161015617960576179087fa1ce611800b7580abeec2c3e8af9f1d0b397ccde8b421409ee990d6fcc7ab0e260001b61663d565b6179347fe6d7a305add7fc1d7104f4f9727d65549338f50192b4ce4e8878404232e2c8cb60001b61663d565b617953828260ff168151811061794657fe5b6020026020010151618493565b80806001019150506178d0565b5061798d7fba3296007eb100af0755214729dff11e2f90b533913707c3e23e06803fe41e8e60001b61663d565b6179b97fc6fcee34de3aed4d9da527111e9e96d34eda55762cd80fc76b51594187e5668460001b61663d565b60005b82518160ff161015617a4c576179f47fb5911200b58547844b7a7b6c37e432b2da01da197a36f65b5f042d818c9b409a60001b61663d565b617a207f074f7dc0131832b232541a8ab6be3c58929ec56bc4fd6696c5a56c679f5bf29360001b61663d565b617a3f838260ff1681518110617a3257fe5b6020026020010151618f32565b80806001019150506179bc565b50617a797fd0ad0705440f457abf32c698209924dae4d62b75e3e3f1335f7d450ce9c4c1a260001b61663d565b617aa57fd1cf248cc2a2b5aa67aa14f63a6fb1138e2cc19b4d9c0f92b091150aac5b3bc160001b61663d565b617ad17fe0a85bbe1af2e847d37b04371d87d4c3bb831bdcd2744a9f3f36d1af53435f3660001b61663d565b6038600090617ade61967b565b906101000a900473ffffffffffffffffffffffffffffffffffffffff1673ffffffffffffffffffffffffffffffffffffffff1663aa12ae4d6040518163ffffffff1660e01b81526004016020604051808303818680617b3b6197d2565b158015617b5057600080617b4d61960d565b50505b505a617b5a619835565b5050505050158015617b79573d6000803e3d6000617b7661960d565b50505b505050506040513d601f19601f82011682018060405250810190617b9d919061a3a0565b603a80617ba861967b565b905010617bf3576040517f08c379a0000000000000000000000000000000000000000000000000000000008152600401617be19061b1b7565b60405180910390617bf061960d565b50505b617c1f7fdc96d2704fa7111d9d998bd88a9aec5d1a44e73f7cf4547e3ed9fe3f0fc28d8560001b61663d565b617c4b7fab0f554eb34e95cfd0955f8ef69a7bfa59fc9e84223a9c82293a9bb0f9fe966460001b61663d565b617c777f922c65978f04faeeee71161e0cd4084b1a646a2b41595560244b450f15842e7f60001b61663d565b617ca37ff55b3dfe467867d5e66e30a02e15f1484c9e9e779f774baaf5e1e042232ca16460001b61663d565b6001617cad612e40565b1015617cf7576040517f08c379a0000000000000000000000000000000000000000000000000000000008152600401617ce59061b017565b60405180910390617cf461960d565b50505b617d237fdc8ce4e8b1b7cf6a85a5286ae3528f900767b4261b3550ae06aec32d8170836f60001b61663d565b5050565b600080831415617d3a5760009050617d9a565b6000828402905082848281617d4b57fe5b0414617d95576040517f08c379a0000000000000000000000000000000000000000000000000000000008152600401617d839061b0b7565b60405180910390617d9261960d565b50505b809150505b92915050565b6000617de283836040518060400160405280601a81526020017f536166654d6174683a206469766973696f6e206279207a65726f00000000000081525061953f565b905092915050565b600080828401905083811015617e3e576040517f08c379a0000000000000000000000000000000000000000000000000000000008152600401617e2c9061af57565b60405180910390617e3b61960d565b50505b8091505092915050565b617e747ffc6b744fce5304ea3119af8fd0c987fd93c9dfe2053293fd49aeebe9ba365da560001b61663d565b617ea07fad09f01e82fb196bf407db0c3168dd58733a98b5a019ca9464d636fec7eb4dac60001b61663d565b617ecc7f4b1a513f7f2dc9041817a129ac65298b2cf6e935997a6ce9195ff84e1efc9b8a60001b61663d565b6038600090617ed961967b565b906101000a900473ffffffffffffffffffffffffffffffffffffffff1673ffffffffffffffffffffffffffffffffffffffff1663046b72c46039600090617f1e61967b565b906101000a900473ffffffffffffffffffffffffffffffffffffffff16836040518363ffffffff1660e01b8152600401617f5992919061ae0d565b60006040518083038160008780617f6e6197d2565b158015617f8357600080617f8061960d565b50505b505a617f8d619a34565b505050505050158015617fad573d6000803e3d6000617faa61960d565b50505b50505050617fdd7f7320b932b5e025971dda27859c97df1d7468cf4b91d1268bd19e5918495d194160001b61663d565b6180097f0d64e274b6efc208e105880651e9eba6b886c22aaba3998e8727a65d7b77119260001b61663d565b60006180377fc6140564aff373523a1c7007b7786b3607eba21db1e8df287dba4fdd41f39e2a60001b61663d565b6180637fb9d037b24a9fae110913e535e026346c0c35c9057b21ccaef6c08118559fe99f60001b61663d565b60006180917f9fe82189419f23150dc69a1ed21ebb4fed8ddd5bc87533e62de46bf38beb494d60001b61663d565b6180bd7f47bd004e0137e0cbc5098f595d9855543279d1e09d0783ccc802264a884269ce60001b61663d565b60386000906180ca61967b565b906101000a900473ffffffffffffffffffffffffffffffffffffffff1673ffffffffffffffffffffffffffffffffffffffff1663b7a54526603960009061810f61967b565b906101000a900473ffffffffffffffffffffffffffffffffffffffff166040518263ffffffff1660e01b8152600401618148919061ac7f565b6040805180830381868061815a6197d2565b15801561816f5760008061816c61960d565b50505b505a618179619835565b5050505050158015618198573d6000803e3d600061819561960d565b50505b505050506040513d601f19601f820116820180604052508101906181bc919061a3d2565b80925081935050506181f07f348092cfb6a2b6d98ad6fc0e694365b2f935b25f57a2fdcea9f78e290d51401d60001b61663d565b61821c7f7b68b4673945606aa36bb42a96a50e3eea0f4ddc5e316d14f2e8c3a1d3391dc660001b61663d565b7f1780c04ddc6f0b32d866c7a3d7583f53515ef49ed2126af868f804f491601266603960009061824a61967b565b906101000a900473ffffffffffffffffffffffffffffffffffffffff1661826f611fb5565b8484604051618281949392919061ad3f565b60405180910390a1505050565b6182ba7f120d4ada38bb5617d62f237f475d91361f9986899c218eb39368b795730a9ad260001b610997565b6182e67ff876760b2cad024af551c4ea79575243fb2b3818ef8518cb46e1dc3035c15f3760001b610997565b6183127f7726f68d522d3254d6528922abd286c5555ff4b7e4f68c51afcd636d246f5abd60001b610997565b603581908060018161832261967b565b01808261832d61973b565b505080915050600190039060005260206000200160009091909190916101000a8161835661967b565b8173ffffffffffffffffffffffffffffffffffffffff021916908373ffffffffffffffffffffffffffffffffffffffff1602179061839261973b565b5050506183c17fb5d83ba033c4b78376e5d2d9da6133c97d5063d821e0ad0aa5af2f3781cf308560001b610997565b6183ed7f89ab2a8e5e1b48c265e8ca3f5097a80099abbe2dbed6e5ffee0f376db28a5d9660001b610997565b6035806183f861967b565b9050603660008373ffffffffffffffffffffffffffffffffffffffff1673ffffffffffffffffffffffffffffffffffffffff168152602001908152602001600020819061844361973b565b50505050565b600061848b83836040518060400160405280601e81526020017f536166654d6174683a207375627472616374696f6e206f766572666c6f7700008152506195a9565b905092915050565b6184bf7f8c131e08a89f1e1646f736d9b42d7a12862af8a096eb7e0cb7d3398312f1240560001b61663d565b6184eb7fd17d716b32fca6bf2bbffc8952c65d6f411df223e2a718cfa0b8630f2af3d89a60001b61663d565b6185177f817435bb2a77c00148077a699cc1e99c1967479a4c1a0522e37ab0f6939c07a460001b61663d565b60008160000151905061854c7f4c8953b94e86cee96ed0e02df66aca90ee1103aa9b00710ba67330c9306da0d460001b61663d565b6185787f3484f866eafb81a3a3721d5e2a9a9f7ed5141d282a9e7ad3bdb32a1137ee4fc160001b61663d565b6000826020015190506185ad7fe2dbd643f94d7721b4cd361d803ec8e020c619e1eb23b6c25479e7824aa19cb660001b61663d565b6185d97f2a6ec88bf5d82b2fac71ab3515111fa41f4ed6c1e99c943c2a191b2721d5135e60001b61663d565b6186057fe32e353dfd42777ee6fbb6ef0461672ff89973a8eba1f3b4378b5f2acbec808c60001b61663d565b61860e826152f1565b618656576040517f08c379a00000000000000000000000000000000000000000000000000000000081526004016186449061b117565b6040518091039061865361960d565b50505b6186827fd468585b959dcba24006a10715a29e50b22b2d790fbbfc037141219e71486af560001b61663d565b6186ae7f6017ba4d5084f594b8d0276d70c03825deeed758d4be56de029eb2d7526405b560001b61663d565b6186da7feed34252e343e883b16f0c6481226ac42255ea0f71666daf40a1804f9f36c8f760001b61663d565b60006187366001603b60008673ffffffffffffffffffffffffffffffffffffffff1673ffffffffffffffffffffffffffffffffffffffff16815260200190815260200160002061872861967b565b61844990919063ffffffff16565b90506187647f114852c0aaa19ca982d11724042cdd393f244cfe474d8d745afadaf82e4644df60001b61663d565b6187907f7789e6aa52baecb248c2418219a820cf035d5c063815cab3ff3e119e472428a560001b61663d565b8115618869576187c27f6ba0fea7465eac8e9b9663f41fef263cd481aa95fa5fcb2537a5467b2801fc5960001b61663d565b6187ee7f374ca0a61d2441dfc9a3bc05a5770751ab9baab926b8ff1f0cd786e33e7a91e660001b61663d565b61881a7f3136c3614165dbe26475603f58d6e5c584773e01bf6bcaf6967b326be739309e60001b61663d565b6000603a828161882861967b565b811061883057fe5b9060005260206000200160000160146101000a8161884c61967b565b8160ff0219169083151502179061886161973b565b505050618e67565b6188957fe334c96f8861cb0dcdcb5e3dcc9320bbd7f7e3d2250fce27c121fed5374a753760001b61663d565b6188c07e2485e33a58f597c35dd0fad258ba4072c2f89d5048350262d510525269250960001b61663d565b6188ec7f219f0beebb52ed0d670b6d0ee1affc85457a61339e690dee96c4d912332cc8b460001b61663d565b6189187f2d0dca3907955c55e66e691a914793881e2198dce99864b5a6e73ee554b49de060001b61663d565b6000618923846162ba565b1461896c576040517f08c379a000000000000000000000000000000000000000000000000000000000815260040161895a9061af97565b6040518091039061896961960d565b50505b6189987ff8dcb9828b68e3bd8c759bf5306c9c251a07b6190df778d7a8930a977eced4b960001b61663d565b6189c47f0408ea1efea032682c3dc30fd9adbff69076d69d6daab0a447e22d056209f0e260001b61663d565b6189f07f25467937fb141c61ed33715b859710ba95a9d74c1b37bf2e6d7932e786fa00f260001b61663d565b6000603a806189fd61967b565b90509050618a2d7f02c8e70ca3af75d35362aa56a9856337ece239600e43f80d7998fba901a2b8fa60001b61663d565b618a597f0fcfcda066a548d89bfce77730c0b3f44e530027f4f6fd43f8d5b5de7f33929160001b61663d565b618a616197a0565b603a618a7760018461844990919063ffffffff16565b81618a8061967b565b8110618a8857fe5b9060005260206000200160405180604001604052908160008201600090618aad61967b565b906101000a900473ffffffffffffffffffffffffffffffffffffffff1673ffffffffffffffffffffffffffffffffffffffff1673ffffffffffffffffffffffffffffffffffffffff16815260200160008201601490618b0a61967b565b906101000a900460ff1615151515815250509050618b4a7f8eddef7bd11ac47753f99399c9a93675e909222b47ff7b4e9fa6a79f59a7ef7960001b61663d565b618b767f5cb1e34d4bf64e70784ef81eb91ed604232558ef92f9bb324515c9ba966aa2ad60001b61663d565b80603a8481618b8361967b565b8110618b8b57fe5b9060005260206000200160008201518160000160006101000a81618bad61967b565b8173ffffffffffffffffffffffffffffffffffffffff021916908373ffffffffffffffffffffffffffffffffffffffff16021790618be961973b565b50505060208201518160000160146101000a81618c0461967b565b8160ff02191690831515021790618c1961973b565b505050905050618c4b7f72ec6a7b2e107afe5aac9a8f159140d0d137ed0c7c7a8f8513afcd5411759d5160001b61663d565b618c777f94773029b3f80d392c36bff5752afc2846bf0e2aee64b1e1cc094c83b6ced84f60001b61663d565b618c8b600184617dea90919063ffffffff16565b603b6000836000015173ffffffffffffffffffffffffffffffffffffffff1673ffffffffffffffffffffffffffffffffffffffff1681526020019081526020016000208190618cd861973b565b505050618d077f7a0fa85b446402d79ebc6665582c2eaa5927b421f6b0da57f5b2e373ddf4c8c160001b61663d565b618d337fc34e77ef9044ec84978f4875f7e2e286f9d8439d1a00c9eea2b966c8a22b7b2f60001b61663d565b6000603b60008773ffffffffffffffffffffffffffffffffffffffff1673ffffffffffffffffffffffffffffffffffffffff1681526020019081526020016000208190618d7e61973b565b505050618dad7f1e118885e4af8ce0fb36c96ad02c22f4e7baf6904ccbcfa20952e7609c7fdd2160001b61663d565b618dd97fffd6c36c212ae49a646f929446ddfe2ad221ce6c427e4a6189400abf89fa1afd60001b61663d565b603a80618de461967b565b80618deb57fe5b60019003818190600052602060002001600080820160006101000a81618e0f61967b565b9073ffffffffffffffffffffffffffffffffffffffff02191690618e3161973b565b50506000820160146101000a81618e4661967b565b9060ff02191690618e5561973b565b5050505090618e6261973b565b505050505b618e937f3d124e11188cf5ebae45d2d236f5f582c7d76624b2438fe6921c4cba732706ce60001b61663d565b618ebf7f982f21d0af97f7d4ac9f81120137b991e0eb411417a71a9cf853eac1165fbf9460001b61663d565b7fe965d54082969a663997d69c24092b2a8571d2fd7d9f74033800398bbab6ffe96039600090618eed61967b565b906101000a900473ffffffffffffffffffffffffffffffffffffffff16618f12611fb5565b8585604051618f24949392919061acc3565b60405180910390a150505050565b618f5e7ffbe96ee0f41174e779ce3c2873f577e7c8bdf8a9b89a6267a6f267dfc61fb60960001b61663d565b618f8a7f57c60d2d00f8ae30c92eb50fdaf5c2b3f04e0364f0641b3c0db7f8dbcef94c3d60001b61663d565b618fb67fdcb38b4800d118d69cbd53d3d686518b7f689683ea5999741c59a5b32c2715e160001b61663d565b600081600001519050618feb7f6925f7029051ea8e6059a42d11b46ba59f51a6081e7ada785d1cbd14547bf20660001b61663d565b6190177ff3dcf7ae24d7e36d1bfdc682546a8da32cdf709ed39eb7beda02a409ba53999660001b61663d565b60008260200151905061904c7f201defc04fe51c356f7458b4c68c8bbd47b9f05640b8a6020c7e6d2cab00b8a460001b61663d565b6190787ff0dedea63d94e1d1b359f55800a5c2661684586897c8978fefdca94204b7a3a760001b61663d565b6190a47f6bef9c261c97bf9af725cbe35a0902efdb21995e204c3bc1700dc37abc90911e60001b61663d565b600115156190b183614fe1565b1515146190fc576040517f08c379a00000000000000000000000000000000000000000000000000000000081526004016190ea9061af37565b604051809103906190f961960d565b50505b6191287fc8220e9c3d14e2c1b874cb399c1a8e00fbe37816d8e6ef15810d0002191a488660001b61663d565b6191547feb0896be43daf2da2e636ea46e0d8bdd32738351e2dc042bfbcb4e5c4455289d60001b61663d565b6191807f33376bdc9d64de7b50cd5e8746cf974bad31c04873c2aadd608027db7e836f3f60001b61663d565b619189826152f1565b15619317576191ba7f78018c28f3dbf1a2a8fa82894f012e3d4675ea36313187c2715a7f2fe04805bd60001b61663d565b6191e67fba682690580363cf4d5a69f22e2304b1c0dd91ed2c20b343155d1d83c4fa84ea60001b61663d565b6192127f40183964a6df3a52c5231c5ca6760fc11dbb01fb78c68474464ed66058e0544460001b61663d565b600061926e6001603b60008673ffffffffffffffffffffffffffffffffffffffff1673ffffffffffffffffffffffffffffffffffffffff16815260200190815260200160002061926061967b565b61844990919063ffffffff16565b905061929c7f04768450b092bf7718cd1cee4e75be1ce8e681e4c7d46cd2fcfe6b299089fcd260001b61663d565b6192c87f4a1dc0d5dd2414f418424d1b147ee40471891e9a9eb9d5be187adb3cb989646b60001b61663d565b81603a82816192d561967b565b81106192dd57fe5b9060005260206000200160000160146101000a816192f961967b565b8160ff0219169083151502179061930e61973b565b5050505061953a565b6193437f82809b4d3cf6ae5598d0990f2867782cf00415896d10766b738e02867403b78160001b61663d565b61936f7fefc1f3aeefb1679e32476ee8ebb9ea99fb954025407a94187b8762e5bcf8d4c860001b61663d565b61939b7ff9bca463705b854f82715e3c4c9a743a0020ea63efe5a63959c2b153c5c5bfa260001b61663d565b603a60405180604001604052808473ffffffffffffffffffffffffffffffffffffffff16815260200183151581525090806001816193d761967b565b0180826193e261973b565b505080915050600190039060005260206000200160009091909190915060008201518160000160006101000a8161941761967b565b8173ffffffffffffffffffffffffffffffffffffffff021916908373ffffffffffffffffffffffffffffffffffffffff1602179061945361973b565b50505060208201518160000160146101000a8161946e61967b565b8160ff0219169083151502179061948361973b565b50505050506194b47f9f00eb6b28045eaf42301807a55bd03f32dd51e626dbdccfa34fe13ae0dd4f9360001b61663d565b6194e07f56eed5e981911cf8a72557a0f986613d36e8e26847516355b43a70669042d5fe60001b61663d565b603a806194eb61967b565b9050603b60008473ffffffffffffffffffffffffffffffffffffffff1673ffffffffffffffffffffffffffffffffffffffff168152602001908152602001600020819061953661973b565b5050505b505050565b6000808311829061958f576040517f08c379a000000000000000000000000000000000000000000000000000000000815260040161957d919061aef5565b6040518091039061958c61960d565b50505b50600083858161959b57fe5b049050809150509392505050565b60008383111582906195fa576040517f08c379a00000000000000000000000000000000000000000000000000000000081526004016195e8919061aef5565b604051809103906195f761960d565b50505b5060008385039050809150509392505050565b632a2a7adb598160e01b8152600481016020815285602082015260005b8681101561964857808601518160408401015260208101905061962a565b506020828760640184336000905af158600e01573d6000803e3d6000fd5b3d6001141558600a015760016000f35b505050565b6303daa959598160e01b8152836004820152602081602483336000905af158600e01573d6000803e3d6000fd5b3d6001141558600a015760016000f35b8051935060005b60408110156196d9576000818301526020810190506196bf565b505050565b6373509064598160e01b8152602081600483336000905af158600e01573d6000803e3d6000fd5b3d6001141558600a015760016000f35b8051935060005b60408110156197365760008183015260208101905061971c565b505050565b6322bd64c0598160e01b8152836004820152846024820152600081604483336000905af158600e01573d6000803e3d6000fd5b3d6001141558600a015760016000f35b60005b604081101561979b57600081830152602081019050619781565b505050565b6040518060400160405280600073ffffffffffffffffffffffffffffffffffffffff1681526020016000151581525090565b638435035b598160e01b8152836004820152602081602483336000905af158600e01573d6000803e3d6000fd5b3d6001141558600a015760016000f35b8051935060005b604081101561983057600081830152602081019050619816565b505050565b638540661f598160e01b8152619874565b600081905081831115619857578290505b92915050565b60008190508183101561986e578290505b92915050565b836004820152846024820152606060448201528660648201526084810160005b888110156198af578088015181830152602081019050619894565b506060828960a40184336000905af158600e01573d6000803e3d6000fd5b3d6001141558600a015760016000f35b815160408301513d6000853e8b8b82606087013350600060045af150596199048d3d61985d565b8c016199108187619846565b5b828110156199285760008152602081019050619911565b50839d5050505050505050565b828061993f61967b565b600181600116156101000203166002900490600052602060002090601f016020900481019282601f1061998657805160ff1916838001178561997f61973b565b50506199c6565b8280016001018561999561973b565b505082156199c6579182015b828111156199c5578251826199b461973b565b5050916020019190600101906199a1565b5b5090506199d39190619b34565b5090565b63bdbf8c36598160e01b8152602081600483336000905af158600e01573d6000803e3d6000fd5b3d6001141558600a015760016000f35b8051935060005b6040811015619a2f57600081830152602081019050619a15565b505050565b6385979f76598160e01b8152619a73565b600081905081831115619a56578290505b92915050565b600081905081831015619a6d578290505b92915050565b836004820152846024820152606060448201528760648201526084810160005b89811015619aae578089015181830152602081019050619a93565b506060828a60a40184336000905af158600e01573d6000803e3d6000fd5b3d6001141558600a015760016000f35b815160408301513d6000853e8c8c82606087013350600060045af15059619b038e3d619a5c565b8d01619b0f8187619a45565b5b82811015619b275760008152602081019050619b10565b50839e5050505050505050565b5b80821115619b5657600081600090619b4b61973b565b505050600101619b35565b5090565b600081359050619b698161b4e6565b92915050565b600081519050619b7e8161b4e6565b92915050565b600082601f830112619b9e57600080619b9b61960d565b50505b8135619bb1619bac8261b251565b61b21b565b91508181835260208401935060208101905083856020840282011115619bdf57600080619bdc61960d565b50505b60005b83811015619c0f5781619bf58882619b5a565b845260208401935060208301925050600181019050619be2565b5050505092915050565b600082601f830112619c3357600080619c3061960d565b50505b8135619c46619c418261b282565b61b21b565b91508181835260208401935060208101905083856040840282011115619c7457600080619c7161960d565b50505b60005b83811015619ca45781619c8a8882619db9565b845260208401935060408301925050600181019050619c77565b5050505092915050565b600081359050619cbd8161b506565b92915050565b600081519050619cd28161b506565b92915050565b600081359050619ce78161b526565b92915050565b600082601f830112619d0757600080619d0461960d565b50505b8135619d1a619d158261b2b3565b61b21b565b91508082526020830160208301858383011115619d3f57600080619d3c61960d565b50505b619d4a83828461b493565b50505092915050565b600082601f830112619d6d57600080619d6a61960d565b50505b8135619d80619d7b8261b2e8565b61b21b565b91508082526020830160208301858383011115619da557600080619da261960d565b50505b619db083828461b493565b50505092915050565b600060408284031215619dd457600080619dd161960d565b50505b619dde604061b21b565b90506000619dee84828501619b5a565b6000830152506020619e0284828501619cae565b60208301525092915050565b600081359050619e1d8161b546565b92915050565b600081519050619e328161b546565b92915050565b600081359050619e478161b566565b92915050565b600081519050619e5c8161b566565b92915050565b600060208284031215619e7d57600080619e7a61960d565b50505b6000619e8b84828501619b5a565b91505092915050565b600060208284031215619eaf57600080619eac61960d565b50505b6000619ebd84828501619b6f565b91505092915050565b60008060008060808587031215619ee557600080619ee261960d565b50505b6000619ef387828801619b5a565b9450506020619f0487828801619b5a565b935050604085013567ffffffffffffffff811115619f2a57600080619f2761960d565b50505b619f3687828801619d53565b925050606085013567ffffffffffffffff811115619f5c57600080619f5961960d565b50505b619f6887828801619c19565b91505092959194509250565b60008060408385031215619f9057600080619f8d61960d565b50505b6000619f9e85828601619b5a565b925050602083013567ffffffffffffffff811115619fc457600080619fc161960d565b50505b619fd085828601619ced565b9150509250929050565b60008060408385031215619ff657600080619ff361960d565b50505b600061a00485828601619b5a565b925050602083013567ffffffffffffffff81111561a02a5760008061a02761960d565b50505b61a03685828601619d53565b9150509250929050565b6000806040838503121561a05c5760008061a05961960d565b50505b600061a06a85828601619b5a565b925050602061a07b85828601619e0e565b9150509250929050565b60006020828403121561a0a05760008061a09d61960d565b50505b600082013567ffffffffffffffff81111561a0c35760008061a0c061960d565b50505b61a0cf84828501619b84565b91505092915050565b6000806040838503121561a0f45760008061a0f161960d565b50505b600083013567ffffffffffffffff81111561a1175760008061a11461960d565b50505b61a12385828601619c19565b925050602083013567ffffffffffffffff81111561a1495760008061a14661960d565b50505b61a15585828601619c19565b9150509250929050565b60006020828403121561a17a5760008061a17761960d565b50505b600061a18884828501619cc3565b91505092915050565b60006020828403121561a1ac5760008061a1a961960d565b50505b600061a1ba84828501619cd8565b91505092915050565b60006020828403121561a1de5760008061a1db61960d565b50505b600082013567ffffffffffffffff81111561a2015760008061a1fe61960d565b50505b61a20d84828501619ced565b91505092915050565b60008060006060848603121561a2345760008061a23161960d565b50505b600084013567ffffffffffffffff81111561a2575760008061a25461960d565b50505b61a26386828701619ced565b935050602061a27486828701619e0e565b925050604061a28586828701619e0e565b9150509250925092565b6000806040838503121561a2ab5760008061a2a861960d565b50505b600083013567ffffffffffffffff81111561a2ce5760008061a2cb61960d565b50505b61a2da85828601619ced565b925050602061a2eb85828601619e38565b9150509250929050565b60008060006060848603121561a3135760008061a31061960d565b50505b600084013567ffffffffffffffff81111561a3365760008061a33361960d565b50505b61a34286828701619ced565b935050602061a35386828701619e38565b925050604061a36486828701619e38565b9150509250925092565b60006020828403121561a3895760008061a38661960d565b50505b600061a39784828501619e0e565b91505092915050565b60006020828403121561a3bb5760008061a3b861960d565b50505b600061a3c984828501619e23565b91505092915050565b6000806040838503121561a3ee5760008061a3eb61960d565b50505b600061a3fc85828601619e23565b925050602061a40d85828601619e23565b9150509250929050565b60006020828403121561a4325760008061a42f61960d565b50505b600061a44084828501619e4d565b91505092915050565b600061a455838361a488565b60208301905092915050565b600061a46d838361ac4a565b60208301905092915050565b61a4828161b45d565b82525050565b61a4918161b3d2565b82525050565b61a4a08161b3d2565b82525050565b600061a4b18261b33d565b61a4bb818561b383565b935061a4c68361b31d565b8060005b8381101561a4f757815161a4de888261a449565b975061a4e98361b369565b92505060018101905061a4ca565b5085935050505092915050565b600061a50f8261b348565b61a519818561b394565b935061a5248361b32d565b8060005b8381101561a55557815161a53c888261a461565b975061a5478361b376565b92505060018101905061a528565b5085935050505092915050565b61a56b8161b3e4565b82525050565b61a57a8161b3f0565b82525050565b61a5898161b3fa565b82525050565b600061a59a8261b353565b61a5a4818561b3a5565b935061a5b481856020860161b4a2565b61a5bd8161b4d5565b840191505092915050565b600061a5d38261b353565b61a5dd818561b3b6565b935061a5ed81856020860161b4a2565b80840191505092915050565b600061a6048261b35e565b61a60e818561b3c1565b935061a61e81856020860161b4a2565b61a6278161b4d5565b840191505092915050565b600061a63f60168361b3c1565b91507f696e76616c696420617272617920706f736974696f6e000000000000000000006000830152602082019050919050565b600061a67f600d8361b3c1565b91507f696e76616c6964206173736574000000000000000000000000000000000000006000830152602082019050919050565b600061a6bf601b8361b3c1565b91507f536166654d6174683a206164646974696f6e206f766572666c6f7700000000006000830152602082019050919050565b600061a6ff60138361b3c1565b91507f696e76616c6964207472616e73616374696f6e000000000000000000000000006000830152602082019050919050565b600061a73f601d8361b3c1565b91507f63616e6e6f742072656d6f7665206e6f6e2d656d7074792061737365740000006000830152602082019050919050565b600061a77f600c8361b3c1565b91507f6f6e6c79206d616e6167657200000000000000000000000000000000000000006000830152602082019050919050565b600061a7bf60128361b3c1565b91507f696e76616c696420706f6f6c206c6f67696300000000000000000000000000006000830152602082019050919050565b600061a7ff60238361b3c1565b91507f6f6e6c792044414f206f7220666163746f7279206164647265737320616c6c6f60008301527f77656400000000000000000000000000000000000000000000000000000000006020830152604082019050919050565b600061a86560228361b3c1565b91507f72657175697265206174206c65617374206f6e65206465706f7369742061737360008301527f65740000000000000000000000000000000000000000000000000000000000006020830152604082019050919050565b600061a8cb60168361b3c1565b91507f6f6e6c79206d616e61676572206f7220747261646572000000000000000000006000830152602082019050919050565b600061a90b60108361b3c1565b91507f696e76616c6964206672616374696f6e000000000000000000000000000000006000830152602082019050919050565b600061a94b601b8361b3c1565b91507f52656164696e67206279746573206f7574206f6620626f756e647300000000006000830152602082019050919050565b600061a98b60138361b3c1565b91507f696e76616c69642064657374696e6174696f6e000000000000000000000000006000830152602082019050919050565b600061a9cb60218361b3c1565b91507f536166654d6174683a206d756c7469706c69636174696f6e206f766572666c6f60008301527f77000000000000000000000000000000000000000000000000000000000000006020830152604082019050919050565b600061aa3160198361b3c1565b91507f66656520696e6372656173652064656c617920616374697665000000000000006000830152602082019050919050565b600061aa71602e8361b3c1565b91507f436f6e747261637420696e7374616e63652068617320616c726561647920626560008301527f656e20696e697469616c697a65640000000000000000000000000000000000006020830152604082019050919050565b600061aad760138361b3c1565b91507f6173736574206e6f7420737570706f72746564000000000000000000000000006000830152602082019050919050565b600061ab1760198361b3c1565b91507f657863656564656420616c6c6f77656420696e637265617365000000000000006000830152602082019050919050565b600061ab5760128361b3c1565b91507f696e707574206973206e6f7420617272617900000000000000000000000000006000830152602082019050919050565b600061ab97601a8361b3c1565b91507f6661696c656420746f2065786563757465207468652063616c6c0000000000006000830152602082019050919050565b600061abd7601c8361b3c1565b91507f6e6f6e2d7a65726f2061646472657373206973207265717569726564000000006000830152602082019050919050565b600061ac1760168361b3c1565b91507f6d6178696d756d206173736574732072656163686564000000000000000000006000830152602082019050919050565b61ac538161b446565b82525050565b61ac628161b446565b82525050565b600061ac74828461a5c8565b915081905092915050565b600060208201905061ac94600083018461a497565b92915050565b600060408201905061acaf600083018561a497565b61acbc602083018461a479565b9392505050565b600060808201905061acd8600083018761a497565b61ace5602083018661a497565b61acf2604083018561a497565b61acff606083018461a562565b95945050505050565b600060608201905061ad1d600083018661a497565b61ad2a602083018561a497565b61ad37604083018461ac59565b949350505050565b600060808201905061ad54600083018761a497565b61ad61602083018661a497565b61ad6e604083018561ac59565b61ad7b606083018461ac59565b95945050505050565b600060408201905061ad99600083018561a497565b61ada6602083018461a562565b9392505050565b600060408201905061adc2600083018561a497565b818103602083015261add4818461a58f565b90509392505050565b600060408201905061adf2600083018561a497565b818103602083015261ae04818461a5f9565b90509392505050565b600060408201905061ae22600083018561a497565b61ae2f602083018461ac59565b9392505050565b6000602082019050818103600083015261ae50818461a4a6565b905092915050565b6000606082019050818103600083015261ae72818661a4a6565b9050818103602083015261ae86818561a504565b9050818103604083015261ae9a818461a504565b9050949350505050565b600060208201905061aeb9600083018461a562565b92915050565b600060208201905061aed4600083018461a571565b92915050565b600060208201905061aeef600083018461a580565b92915050565b6000602082019050818103600083015261af0f818461a5f9565b905092915050565b6000602082019050818103600083015261af308161a632565b9050919050565b6000602082019050818103600083015261af508161a672565b9050919050565b6000602082019050818103600083015261af708161a6b2565b9050919050565b6000602082019050818103600083015261af908161a6f2565b9050919050565b6000602082019050818103600083015261afb08161a732565b9050919050565b6000602082019050818103600083015261afd08161a772565b9050919050565b6000602082019050818103600083015261aff08161a7b2565b9050919050565b6000602082019050818103600083015261b0108161a7f2565b9050919050565b6000602082019050818103600083015261b0308161a858565b9050919050565b6000602082019050818103600083015261b0508161a8be565b9050919050565b6000602082019050818103600083015261b0708161a8fe565b9050919050565b6000602082019050818103600083015261b0908161a93e565b9050919050565b6000602082019050818103600083015261b0b08161a97e565b9050919050565b6000602082019050818103600083015261b0d08161a9be565b9050919050565b6000602082019050818103600083015261b0f08161aa24565b9050919050565b6000602082019050818103600083015261b1108161aa64565b9050919050565b6000602082019050818103600083015261b1308161aaca565b9050919050565b6000602082019050818103600083015261b1508161ab0a565b9050919050565b6000602082019050818103600083015261b1708161ab4a565b9050919050565b6000602082019050818103600083015261b1908161ab8a565b9050919050565b6000602082019050818103600083015261b1b08161abca565b9050919050565b6000602082019050818103600083015261b1d08161ac0a565b9050919050565b600060208201905061b1ec600083018461ac59565b92915050565b600060408201905061b207600083018561ac59565b61b214602083018461ac59565b9392505050565b6000604051905081810181811067ffffffffffffffff8211171561b2475760008061b24461960d565b50505b8060405250919050565b600067ffffffffffffffff82111561b2715760008061b26e61960d565b50505b602082029050602081019050919050565b600067ffffffffffffffff82111561b2a25760008061b29f61960d565b50505b602082029050602081019050919050565b600067ffffffffffffffff82111561b2d35760008061b2d061960d565b50505b601f19601f8301169050602081019050919050565b600067ffffffffffffffff82111561b3085760008061b30561960d565b50505b601f19601f8301169050602081019050919050565b6000819050602082019050919050565b6000819050602082019050919050565b600081519050919050565b600081519050919050565b600081519050919050565b600081519050919050565b6000602082019050919050565b6000602082019050919050565b600082825260208201905092915050565b600082825260208201905092915050565b600082825260208201905092915050565b600081905092915050565b600082825260208201905092915050565b600061b3dd8261b426565b9050919050565b60008115159050919050565b6000819050919050565b60007fffffffff0000000000000000000000000000000000000000000000000000000082169050919050565b600073ffffffffffffffffffffffffffffffffffffffff82169050919050565b6000819050919050565b600060ff82169050919050565b600061b4688261b46f565b9050919050565b600061b47a8261b481565b9050919050565b600061b48c8261b426565b9050919050565b82818337600083830152505050565b60005b8381101561b4c057808201518184015260208101905061b4a5565b8381111561b4cf576000848401525b50505050565b6000601f19601f8301169050919050565b61b4ef8161b3d2565b811461b5035760008061b50061960d565b50505b50565b61b50f8161b3e4565b811461b5235760008061b52061960d565b50505b50565b61b52f8161b3f0565b811461b5435760008061b54061960d565b50505b50565b61b54f8161b446565b811461b5635760008061b56061960d565b50505b50565b61b56f8161b450565b811461b5835760008061b58061960d565b50505b5056",
  "deployedBytecode": "0x60806040523480156100195760008061001661960d565b50505b50600436106102c45760003560e01c806382f86acc1161018b578063bdbef07d116100f2578063d8af8ed4116100ab578063e5406dbf11610085578063e5406dbf1461091c578063ed5b165d1461093a578063f09d14d714610959578063fed4416a14610979576102c4565b8063d8af8ed4146108a0578063db896b57146108d0578063e47d2e0714610900576102c4565b8063bdbef07d146107a5578063c3c6279f146107d5578063c45a015514610805578063c68dbb3714610823578063ca6d56dc14610854578063cd88e55814610870576102c4565b80639be918e6116101445780639be918e6146106e35780639eab525314610713578063a30e3fa914610731578063a6bc18f91461074f578063b8bd81e61461076b578063bbbf725b14610775576102c4565b806382f86acc146105e75780638e10153d146106175780638f323439146106475780639240d29914610665578063936553c414610695578063998546e3146106b3576102c4565b806346ee84b01161022f5780636e890f3c116101e85780636e890f3c1461054d5780636f4d469b1461055757806372260e0f146105735780637ae7cfb51461058f5780637b4d0c63146105bf5780637c8afd51146105dd576102c4565b806346ee84b01461048d578063481c6a75146104a957806352213663146104c757806353f064c9146104e3578063568b5a2f146104ff5780635cd50e481461052f576102c4565b80631eba3077116102815780631eba30771461039357806322cedfc3146103c357806329c07fba146103df57806339b81fd91461040f5780633c570d7d1461042d57806341dc16c31461045d576102c4565b806307f83a5f146102d257806309ff5c7d146102ee5780630b1ca49a1461031e578063147bf0be1461033a5780631758078b146103565780631980553814610374575b6000806102cf61960d565b50505b6102ec60048036038101906102e7919061a191565b610997565b005b6103086004803603810190610303919061a28f565b61099a565b604051610315919061aebf565b60405180910390f35b61033860048036038101906103339190619e62565b610c21565b005b610354600480360381019061034f9190619ec6565b610f50565b005b61035e61127e565b60405161036b919061ac7f565b60405180910390f35b61037c611333565b60405161038a92919061b1f2565b60405180910390f35b6103ad60048036038101906103a8919061a191565b6114c1565b6040516103ba919061ac7f565b60405180910390f35b6103dd60048036038101906103d8919061a191565b611552565b005b6103f960048036038101906103f4919061a040565b611555565b604051610406919061b1d7565b60405180910390f35b610417611842565b604051610424919061ac7f565b60405180910390f35b61044760048036038101906104429190619e62565b61186f565b604051610454919061b1d7565b60405180910390f35b6104776004803603810190610472919061a2f5565b61188e565b604051610484919061aebf565b60405180910390f35b6104a760048036038101906104a2919061a085565b611c1a565b005b6104b1611fb5565b6040516104be919061ac7f565b60405180910390f35b6104e160048036038101906104dc9190619fda565b61206a565b005b6104fd60048036038101906104f8919061a36e565b6123f3565b005b6105196004803603810190610514919061a216565b612cc0565b604051610526919061aeda565b60405180910390f35b610537612e40565b604051610544919061b1d7565b60405180910390f35b610555613109565b005b610571600480360381019061056c919061a085565b613530565b005b61058d6004803603810190610588919061a0d8565b6138cc565b005b6105a960048036038101906105a49190619f74565b613b75565b6040516105b6919061aea4565b60405180910390f35b6105c7614646565b6040516105d4919061b1d7565b60405180910390f35b6105e5614653565b005b61060160048036038101906105fc919061a28f565b6148db565b60405161060e919061aebf565b60405180910390f35b610631600480360381019061062c9190619e62565b61497e565b60405161063e919061aea4565b60405180910390f35b61064f614fd4565b60405161065c919061b1d7565b60405180910390f35b61067f600480360381019061067a9190619e62565b614fe1565b60405161068c919061aea4565b60405180910390f35b61069d615145565b6040516106aa919061b1d7565b60405180910390f35b6106cd60048036038101906106c8919061a28f565b6151dc565b6040516106da919061b1d7565b60405180910390f35b6106fd60048036038101906106f89190619e62565b6152f1565b60405161070a919061aea4565b60405180910390f35b61071b6153c9565b604051610728919061ae36565b60405180910390f35b6107396154f0565b604051610746919061b1d7565b60405180910390f35b61076960048036038101906107649190619e62565b615588565b005b610773615810565b005b61078f600480360381019061078a9190619e62565b615b44565b60405161079c919061aea4565b60405180910390f35b6107bf60048036038101906107ba9190619e62565b615c1c565b6040516107cc919061aea4565b60405180910390f35b6107ef60048036038101906107ea919061a1c3565b615e54565b6040516107fc919061aeda565b60405180910390f35b61080d615eee565b60405161081a919061ac7f565b60405180910390f35b61083d6004803603810190610838919061a36e565b615f1b565b60405161084b92919061ad84565b60405180910390f35b61086e60048036038101906108699190619e62565b615f8a565b005b61088a60048036038101906108859190619e62565b6162ba565b604051610897919061b1d7565b60405180910390f35b6108ba60048036038101906108b59190619e62565b61641e565b6040516108c7919061b1d7565b60405180910390f35b6108ea60048036038101906108e5919061a216565b6164bd565b6040516108f7919061aebf565b60405180910390f35b61091a6004803603810190610915919061a191565b61663d565b005b610924616640565b604051610931919061ae36565b60405180910390f35b610942616944565b60405161095092919061b1f2565b60405180910390f35b6109616169e7565b6040516109709392919061ae58565b60405180910390f35b610981617065565b60405161098e919061aef5565b60405180910390f35b50565b60006109c87f081d82e52646f30f5f6ba661c9f8640c9cd57ce66a80a3e2a8d58ce5bb27187060001b611552565b6109f47f09f957c21d0e9b2ec1b121684a6e7f5ac4edd73009cb6079362e23cfddf9a9c860001b611552565b610a207f3c18b9a50414e713d6d2d9fb3d8f35382b5efbbdea88daeb0918feace849715760001b611552565b6000610a37846004856020020160ff1660206164bd565b9050610a657fef8d397263c2655f4ccf2b9be363e978048ff824160884a4bcae49615516e10d60001b611552565b610a917f74a724fe8f5378a48c6199852895f5901086e6334857b36d1bfda6debb52ec2e60001b611552565b6000610aa58560048460001c0160206164bd565b9050610ad37f9a780319db2dc6e6b23ada0024cb7abdcb735d784ab162fd4df358f7790083e560001b611552565b610aff7feacef85564e6b6c37c507951170fc255c4d3d5c96436eac08483236950ea824b60001b611552565b610b2b7f82a785437fd1ca4984c1c85dd77a837b42b49b0eb13b373e6e257c6c09fbd61f60001b611552565b6000801b8111610b79576040517f08c379a0000000000000000000000000000000000000000000000000000000008152600401610b679061b157565b60405180910390610b7661960d565b50505b610ba57fe43217671634e3774905c2565f4e5137f7fe504fa68fccc06bbf3e58eb71b66160001b611552565b610bd17f1b4b6c92de0ca738f0a984667b3c9678d804cdd2f47c17e91f52d7c5f051c41560001b611552565b610bfd7f09314e957efbeec867fd49fc3e7f5899b2d95ad68a6b5badee8d98784fd97f4460001b611552565b610c178560208360001c0260048560001c010160206164bd565b9250505092915050565b610c4d7ff726fc88418c0a3484479f3aad53d8027d0e2163703da4e11695846a8ecf323960001b610997565b610c797f684725bd78b70c3fb2cf13b500bfd22c1cd461220ef6c85b59f31f1043c5de1f60001b610997565b610ca57f66ea293273b42d90ad1edbe377e4882daf414bd29b0dcec70a1119a20e4da60760001b610997565b610cd17fbba45401a87b3041ecdfeb8ba6cdf9dec1a86b5dc1ad9312274f3d920df5ec4460001b610997565b6033600090610cde61967b565b906101000a900473ffffffffffffffffffffffffffffffffffffffff1673ffffffffffffffffffffffffffffffffffffffff165a610d1a6196de565b73ffffffffffffffffffffffffffffffffffffffff1614610d79576040517f08c379a0000000000000000000000000000000000000000000000000000000008152600401610d679061afb7565b60405180910390610d7661960d565b50505b610da57fe84730383f7e358d6eb5424a73f82ebabefe25dbfc6cacd9a33efe47980ed6a060001b610997565b610dd17f1e8080af53826ea93c0834314df776ac304bf425dcb83719abb60873fded05d360001b610997565b610dfd7fea1757305949ed706951fb794bd2551514c6efdb2d7679c5d85b078142ffe2b260001b610997565b610e297f1ffc6b134d15c295e5f995b3f82b5a0cb18ad84f314a2d960c81c8d81184722e60001b610997565b610e557f3c92deefafc01aaaabda23cc392d833acabe18b8cb00e63048de8ce6998a50d160001b610997565b610e5e81615b44565b610ebf57610e8e7fe426072b40d42570f2a371006c4849244b036fcfab927292797340fc1dfd4f2860001b610997565b610eba7fa87fcaab10e3f72cae704058c7741c3c14bf2347c4ed9f4cf29e77c38f1fd7ec60001b610997565b610f4d565b610eeb7fb95ad00e9df5485a45b440c3dbdda7a5c12dc7d5b9a67813420d09bea2d0d5e360001b610997565b610f177fd6dd051f93c0416ce28a333b5248bf159f01391c2d334ad25964076d30e5c14f60001b610997565b610f437fb71ec9708481e1cb8db1808117b3292284c7507d570cf24576d2cc1110d10c0760001b610997565b610f4c816171a7565b5b50565b6000600190610f5d61967b565b906101000a900460ff1680610f765750610f75617688565b5b80610f935750600080610f8761967b565b906101000a900460ff16155b610fdb576040517f08c379a0000000000000000000000000000000000000000000000000000000008152600401610fc99061b0f7565b60405180910390610fd861960d565b50505b600080600190610fe961967b565b906101000a900460ff161590508015611052576001600060016101000a8161100f61967b565b8160ff0219169083151502179061102461973b565b50505060016000806101000a8161103961967b565b8160ff0219169083151502179061104e61973b565b5050505b61107e7f4fe11b46413b043105d80e62d850f8f1d8ebaad6ba020d45f805c4e62ed16ab360001b61663d565b6110aa7f34982f93521da2679e829a32b243e14a0ea8c59f0b0dab317cef263a23686a3160001b61663d565b6110d67f6353081282e7c9a4d4563c9b85b0eb80ee2350df799b3cfce7a03c4eec3b24d560001b61663d565b6110e08484617701565b61110c7f219f559a3983b7e6318dc55a5e67b08fe107d4ff909d70ac36d8343b085357fc60001b61663d565b6111387f8a1df9a28f6de8ca44a5e16065b3f42adee80bab44e8a8f7358608de215020b260001b61663d565b84603860006101000a8161114a61967b565b8173ffffffffffffffffffffffffffffffffffffffff021916908373ffffffffffffffffffffffffffffffffffffffff1602179061118661973b565b5050506111b57f6db0fdcc49bd602b9c88494b1cc682265556662514226c7efa9824d7ca3fcf2260001b61663d565b6111e17f9d79c14d2bba45be4aa024f5cfdc91dd7b7f7e77c1f760f5d5e15e47cab69e3060001b61663d565b61124682600067ffffffffffffffff811180156112065760008061120361960d565b50505b5060405190808252806020026020018201604052801561124057816020015b61122d6197a0565b8152602001906001900390816112255790505b50617849565b80156112775760008060016101000a8161125e61967b565b8160ff0219169083151502179061127361973b565b5050505b5050505050565b60006112ac7f3aca4bfed5bca6bb4a7952d9916be14f80d41a88cb22b235f78122ad6e4440d360001b610997565b6112d87f0d2afb8ca427495817d996651401041f2a8ab28d5256db0743a91af8ea8627ed60001b610997565b6113047f6d976131b13215f2dcfb2c190b142557b0a055ae766dec008e5ce2e06a5903fc60001b610997565b603760009061131161967b565b906101000a900473ffffffffffffffffffffffffffffffffffffffff16905090565b6000806113627fd9b3af2248ce225cc55a3e10a891b607ce8cef32c0954f62f3635af88602bcc560001b61663d565b61138e7f8ace458d173f0b661858e4e314f6537f64d068449704c3482e488ab657197c5a60001b61663d565b6113ba7f3449d38808554d6d6a37017c0e5961042b53d78cf24cb0a15461c038d6ad23f560001b61663d565b60386000906113c761967b565b906101000a900473ffffffffffffffffffffffffffffffffffffffff1673ffffffffffffffffffffffffffffffffffffffff1663b7a54526603960009061140c61967b565b906101000a900473ffffffffffffffffffffffffffffffffffffffff166040518263ffffffff1660e01b8152600401611445919061ac7f565b604080518083038186806114576197d2565b15801561146c5760008061146961960d565b50505b505a611476619835565b5050505050158015611495573d6000803e3d600061149261960d565b50505b505050506040513d601f19601f820116820180604052508101906114b9919061a3d2565b915091509091565b60006114ef7f746ad3681a882d643153db78e530a3c3631a70addf1fa2b3fb00e7c9e006155c60001b611552565b61151b7fdc74b4c260b28f73b6b9660be3d6c8df22d3969ef9bce7b2d804a0268404b7cd60001b611552565b6115477f72b1c589190589f7b6b45bf4a6392802affc2e6b2798209520a0a75ef72c092560001b611552565b8160001c9050919050565b50565b60006115837f40208f26e8f8dada28766f5e7a22a18aaeafa94c387f582a2b2ac0f8e480c27f60001b61663d565b6115af7f994ba6ba22c746bb7f6f1f67e73da419487148c2766ee732ae086483a975478760001b61663d565b6115db7fd41bb0a14b32ada7c782ee26bcd4e37f0c342b375311dd019f8246932d71937d60001b61663d565b600060386000906115ea61967b565b906101000a900473ffffffffffffffffffffffffffffffffffffffff1673ffffffffffffffffffffffffffffffffffffffff16638b2f0f4f856040518263ffffffff1660e01b815260040161163f919061ac7f565b60206040518083038186806116526197d2565b1580156116675760008061166461960d565b50505b505a611671619835565b5050505050158015611690573d6000803e3d600061168d61960d565b50505b505050506040513d601f19601f820116820180604052508101906116b4919061a3a0565b90506116e27f90ab4b799f717bf6408e67b77ce76a4b62c3c8f5fc5aac7fe641ee74176f579a60001b61663d565b61170e7f1d8da651be16463545a239e6cf9106a8311791917d4446b2f5561c96a418742260001b61663d565b60008473ffffffffffffffffffffffffffffffffffffffff1663313ce5676040518163ffffffff1660e01b815260040160206040518083038186806117516197d2565b1580156117665760008061176361960d565b50505b505a611770619835565b505050505015801561178f573d6000803e3d600061178c61960d565b50505b505050506040513d601f19601f820116820180604052508101906117b3919061a417565b60ff1690506117e47f93bda4fcd0d7a0f12076fec87a8eb33fb565e64da03e69db6bc30f9293c98bfc60001b61663d565b6118107f4f6682842944d35b0af550bf39305306a983ae39eaf03700c160bd44673501c760001b61663d565b61183881600a0a61182a8685617d2790919063ffffffff16565b617da090919063ffffffff16565b9250505092915050565b603960009061184f61967b565b906101000a900473ffffffffffffffffffffffffffffffffffffffff1681565b603b60205280600052604060002060009150905061188b61967b565b81565b60006118bc7f0d2edb964b9e832488b09b10132df8eae74acfc0fc4ef7f9d17163fc2e452a2e60001b611552565b6118e87fec59aeec3a522e44409f61c0fa70319cf1bf4918e86c015c6bd7fd77cfc1ae9360001b611552565b6119147fb4266cc8b2adcdafb3172be707d2eee0716530e37ad5d9f5e65f6c7babc7809d60001b611552565b600061192b856004866020020160ff1660206164bd565b90506119597f1f2b2786ee9ec18f24b6ccdcc72ade656a4dd4d847db4a80de9458d5dc44c09060001b611552565b6119857fb00c56757dd8ec9f02b936996a334928b1ef6f3435c2ba9dbd5d9dc89c70070760001b611552565b60006119998660048460001c0160206164bd565b90506119c77f0561a5eddc039c0aeec1e8962165d9d1f98f95ff176cb1da7911da2d15fc68e160001b611552565b6119f37f2975ca5dd6258a561f9086915a438ad03ff8d21b085793774c29b6f109905d5660001b611552565b611a1f7fe202a0fe1a62fce1431754f635daf3f1e6bc0f9c3ebc648471c03244a4f8700960001b611552565b6000801b8111611a6d576040517f08c379a0000000000000000000000000000000000000000000000000000000008152600401611a5b9061b157565b60405180910390611a6a61960d565b50505b611a997f1e785ed06ba7037d73973307b033d65e2f824f9cc0fcf912d8380dd82538492160001b611552565b611ac57f6ef73466323634ac0f371519fc18548657fcc76f8d0c3ccddbf7468adf89774960001b611552565b611af17f2a303905ffb4cda24ed31526b4f963ad1b91bfadec5c8ed2ca40b29c472ed13660001b611552565b611b1d7ffca3600df76533b6d8f4c84af3473e45313d07b1b4d815f512d23d58304c6ed960001b611552565b8360ff168160001c11611b6e576040517f08c379a0000000000000000000000000000000000000000000000000000000008152600401611b5c9061af17565b60405180910390611b6b61960d565b50505b611b9a7f551e68dba562f6faa3974de6be47a00ae8ddb4d4165ba52d68af2ba1a833bfe360001b611552565b611bc67f4286efa5281a1ee99db835a134f746afbaf3d0fcc3672421febb6a2e4a400a4e60001b611552565b611bf27f5af5a9ef45989c8affc392d2d5d0df701f283a3b0e79d53d1135f03c8d9d5d5e60001b611552565b611c0f8660208660ff166001010260048560001c010160206164bd565b925050509392505050565b611c467ff726fc88418c0a3484479f3aad53d8027d0e2163703da4e11695846a8ecf323960001b610997565b611c727f684725bd78b70c3fb2cf13b500bfd22c1cd461220ef6c85b59f31f1043c5de1f60001b610997565b611c9e7f66ea293273b42d90ad1edbe377e4882daf414bd29b0dcec70a1119a20e4da60760001b610997565b611cca7fbba45401a87b3041ecdfeb8ba6cdf9dec1a86b5dc1ad9312274f3d920df5ec4460001b610997565b6033600090611cd761967b565b906101000a900473ffffffffffffffffffffffffffffffffffffffff1673ffffffffffffffffffffffffffffffffffffffff165a611d136196de565b73ffffffffffffffffffffffffffffffffffffffff1614611d72576040517f08c379a0000000000000000000000000000000000000000000000000000000008152600401611d609061afb7565b60405180910390611d6f61960d565b50505b611d9e7fe84730383f7e358d6eb5424a73f82ebabefe25dbfc6cacd9a33efe47980ed6a060001b610997565b611dca7f1e8080af53826ea93c0834314df776ac304bf425dcb83719abb60873fded05d360001b610997565b611df67fc6d07b0e83c40b72565fd3474fca46c407f6de8c82037d955827819ab972195260001b610997565b611e227f26769fe5ebee2b76e34a63895ab43d409672ad60d9b2755c7de02300820208ed60001b610997565b611e4e7f4d8cfa7afb76b08a12448582f35c146769f30bdd1d5db7c143c2befb31bca2a660001b610997565b60005b8151811015611fb157611e867f7ea9cc9b523311f807b540bd8e9e396ae855b639cde9a015207f324636c69fe160001b610997565b611eb27f01617bcb9958929a8467a5175123be7b9691af9514194a67b05c29563283893d60001b610997565b611ece828281518110611ec157fe5b6020026020010151615b44565b611f0357611efe7f82c7c45be74131f8e447c732657e121e77b9532aa09134f13eb7470fd7501e4f60001b610997565b611fa4565b611f2f7f89a08829e0370111a9a3a659be41f5857cf43cfbb23e711c5855b4c7da2fe67860001b610997565b611f5b7fad00ecdc0b3b8746773d999187984e71c22bff6ec0a2c10dfe65f023ddb95e0b60001b610997565b611f877fbc65408770e0bc90d5f74397619a31b62c42c12ae3d25d3cfdaaf6a116352a0060001b610997565b611fa3828281518110611f9657fe5b60200260200101516171a7565b5b8080600101915050611e51565b5050565b6000611fe37fde4bef5b1a10104dfb102cbba245db1187511edcfe701d03a84f93e19528fd5760001b610997565b61200f7f9a03cddc5c815574fd1412424527aa1728a2f941a016da83fbe4746b459c0bcc60001b610997565b61203b7f652db2c58b82533a98d3829c46f05f55a14d070a33fbdb20e662bb3c22e8649360001b610997565b603360009061204861967b565b906101000a900473ffffffffffffffffffffffffffffffffffffffff16905090565b6120967ff726fc88418c0a3484479f3aad53d8027d0e2163703da4e11695846a8ecf323960001b610997565b6120c27f684725bd78b70c3fb2cf13b500bfd22c1cd461220ef6c85b59f31f1043c5de1f60001b610997565b6120ee7f66ea293273b42d90ad1edbe377e4882daf414bd29b0dcec70a1119a20e4da60760001b610997565b61211a7fbba45401a87b3041ecdfeb8ba6cdf9dec1a86b5dc1ad9312274f3d920df5ec4460001b610997565b603360009061212761967b565b906101000a900473ffffffffffffffffffffffffffffffffffffffff1673ffffffffffffffffffffffffffffffffffffffff165a6121636196de565b73ffffffffffffffffffffffffffffffffffffffff16146121c2576040517f08c379a00000000000000000000000000000000000000000000000000000000081526004016121b09061afb7565b604051809103906121bf61960d565b50505b6121ee7fe84730383f7e358d6eb5424a73f82ebabefe25dbfc6cacd9a33efe47980ed6a060001b610997565b61221a7f1e8080af53826ea93c0834314df776ac304bf425dcb83719abb60873fded05d360001b610997565b6122467f05ee09d98595e06fc5a4608c638f04358e61e9d181a59179d2f93069b2117fac60001b610997565b6122727fb4833cbd64d89313613117a4fc34fce0f62e7bfd670ee93da9aba1ee1ee4586d60001b610997565b61229e7f2d88291758d54b6773dec5516b3661c137bfc881a2a9608292cbf832b3260c2860001b610997565b81603360006101000a816122b061967b565b8173ffffffffffffffffffffffffffffffffffffffff021916908373ffffffffffffffffffffffffffffffffffffffff160217906122ec61973b565b50505061231b7f774972c16bfebd604693d0392cbf1007b58033d47e3ff75ae5d03fcf1a073fef60001b610997565b6123477f1697602808093fbbac294b5c863fdb742a5d480c4016c073e99d70b9e999ce0460001b610997565b806034908051906020019061235d929190619935565b5061238a7fc5759183963137b34820ce6561b6912e6acd940bcfc29dc1306bf55a68e8b3cb60001b610997565b6123b67f37ecb20db872e47571ee95480fabf4fb5cef32145934449f070cea721eeb698660001b610997565b7f6ed15082ad038474841528b5badca105106d4463e44b5d434130dfb299aa366982826040516123e792919061addd565b60405180910390a15050565b61241f7ff726fc88418c0a3484479f3aad53d8027d0e2163703da4e11695846a8ecf323960001b610997565b61244b7f684725bd78b70c3fb2cf13b500bfd22c1cd461220ef6c85b59f31f1043c5de1f60001b610997565b6124777f66ea293273b42d90ad1edbe377e4882daf414bd29b0dcec70a1119a20e4da60760001b610997565b6124a37fbba45401a87b3041ecdfeb8ba6cdf9dec1a86b5dc1ad9312274f3d920df5ec4460001b610997565b60336000906124b061967b565b906101000a900473ffffffffffffffffffffffffffffffffffffffff1673ffffffffffffffffffffffffffffffffffffffff165a6124ec6196de565b73ffffffffffffffffffffffffffffffffffffffff161461254b576040517f08c379a00000000000000000000000000000000000000000000000000000000081526004016125399061afb7565b6040518091039061254861960d565b50505b6125777fe84730383f7e358d6eb5424a73f82ebabefe25dbfc6cacd9a33efe47980ed6a060001b610997565b6125a37f1e8080af53826ea93c0834314df776ac304bf425dcb83719abb60873fded05d360001b610997565b6125cf7f35c1e9cc1199f2200d42143b1301cd36e22bb67856a637d81416be64eea3c39160001b61663d565b6125fb7f7c5ed2051f2e8d2cdd1c28fcc1022795a9c413873ead031205caae4a56f1c0ce60001b61663d565b6126277f96d77a18c27cfdad838712b23fa030639534b43602dac765a890ee0063c53d7e60001b61663d565b6000603860009061263661967b565b906101000a900473ffffffffffffffffffffffffffffffffffffffff1673ffffffffffffffffffffffffffffffffffffffff16635c9bfc2b6040518163ffffffff1660e01b815260040160206040518083038186806126936197d2565b1580156126a8576000806126a561960d565b50505b505a6126b2619835565b50505050501580156126d1573d6000803e3d60006126ce61960d565b50505b505050506040513d601f19601f820116820180604052508101906126f5919061a3a0565b90506127237f7b287b8e9b874a2d30c2de7fb90c019a2f2af8e61cd5e538e39b1c41f1cc8a7a60001b61663d565b61274f7f63e0b714fc2a60675a74a095355a3842de9f9a5c7179d3d475c692f7bf933b3460001b61663d565b600061277d7f438dddc08b33477b5bbd5e2dd648ee46ead20bc61f191afa254c5bfe8e7b5f1f60001b61663d565b6127a97fa4cf39947f8603f6578e885f1e87b75ef5f618a188a13607b4c72dbd4d06030b60001b61663d565b60006127d77f53e1c945940b14a78d3603516084c49ee62625454527edc8cebe5cbedea6b3e260001b61663d565b6128037f0362981071754076d7bbbe283441f20ac41892884b98788142a603693b5405a260001b61663d565b61280b611333565b809250819350505061283f7f20d8de1b1713804aa6e9cd965b2b34f28ef26e5b32f71281476a20511aa6f95e60001b61663d565b61286b7f606775ce780b4f94b0f0d41bfb9e8d6160442b9460756efa6147a859e416962a60001b61663d565b6128977f13140dcc378f12c926a2b4134e3d089c0916981152a6247a7efdd87000938b1d60001b61663d565b808411156128e3576040517f08c379a00000000000000000000000000000000000000000000000000000000081526004016128d19061b057565b604051809103906128e061960d565b50505b61290f7f7a338854fc80b99692c73e4b9ce638bca98d3c67adb5c6e4d6bbcb04c296605560001b61663d565b61293b7f18c1bd354a10a5ff35c544f48b12cdbe876be7260f334dd5a1c9b3a6ca79b79760001b61663d565b6129677fe4fbfa09ad66d3480fba84544da1b5bd55fc3792006422d9c8de5e6b25efcc0a60001b61663d565b6129937f836abf34515ae1627df7cd42bcf8649d36dce8a387598956eb12c04fd577dd6a60001b61663d565b6129a68383617dea90919063ffffffff16565b8411156129f1576040517f08c379a00000000000000000000000000000000000000000000000000000000081526004016129df9061b137565b604051809103906129ee61960d565b50505b612a1d7f064690c6286ea8deaf0b63ed93f8e16c8496e8091fb6d2d973f67145d79328d360001b61663d565b612a497f94fcd0758f7344abd9109ce09fe93c322a11881a65ca501e39db9400c2f0d82b60001b61663d565b612a757f2425633fa874e1876077f9975ef0e086040eb16aa748d250b1cc9cbc2631f6cd60001b61663d565b60006038600090612a8461967b565b906101000a900473ffffffffffffffffffffffffffffffffffffffff1673ffffffffffffffffffffffffffffffffffffffff1663ebee461d6040518163ffffffff1660e01b81526004016020604051808303818680612ae16197d2565b158015612af657600080612af361960d565b50505b505a612b00619835565b5050505050158015612b1f573d6000803e3d6000612b1c61960d565b50505b505050506040513d601f19601f82011682018060405250810190612b43919061a3a0565b9050612b717fe395fb36d33f618fbb953476c12e83719f2b26ac548ecafe16fe8f6ceeffd85960001b61663d565b612b9d7fdcf4ea0bc531eb60c80d95343d76bf7e41bc054315f91a8eef00387d0dbe48e860001b61663d565b84603c8190612baa61973b565b505050612bd97f941e05c000595bb4aa7058df78b8f8c5700468ca092eb7cf5d148783323b944260001b61663d565b612c057f41dae3a67069262cf764fe5774c8ba4dd0743ac86f9ee9a1cb78833fbdb3e47660001b61663d565b805a612c0f6199d7565b01603d8190612c1c61973b565b505050612c4b7f6b97e0c90ce5911aa039998c9fdfbbc1dfc8a3e4dffc42707102e93f7e2de89660001b61663d565b612c777f86370c6e53186843870fb62640f1824b14661ff19b9759c77282d1de31a5a6e160001b61663d565b7f4db9119741646c419f1ceccdf112b5b9a9b4516355e742e1fa9c479f4dec98da85603d612ca361967b565b604051612cb192919061b1f2565b60405180910390a15050505050565b6000612cee7fd6c6dbfd4bf36b156af386725ee599a07a7fc0502d86558792f32d90271a5e9e60001b611552565b612d1a7f0df76cc601986d069b64699d8ff4fb99fcbc1b9e4220f157da3fd86e163df1dd60001b611552565b612d467f74f9c4c8d25560321ca7a58042227880f04c2c9c527d041bc89b76e7bbdf6cdc60001b611552565b612d727f9d0a02e3e973d364b485ed97415c4bc7224e29a836b070d88d00c4291d80398260001b611552565b81830184511015612dc1576040517f08c379a0000000000000000000000000000000000000000000000000000000008152600401612daf9061b077565b60405180910390612dbe61960d565b50505b612ded7f811b5aac9a857ab8c7cd87ee345761773d2b9d61f70042d22951c307ea4c065a60001b611552565b612e197ffd285ebeb1be2f9b4fb9556de5470780f301ad863061c4de10d0104d490e25c360001b611552565b826020018401519050816004038015612e38576008810260020a820491505b509392505050565b6000612e6e7f4ea6bcccf62bebe8b8504fa26ba5b11f6158da01f43822247a89c9c9077acc3060001b61663d565b612e9a7fcccabf2595ba06367590f8f07f79115de7878719def2c2caaf89d0d1f85eb5cf60001b61663d565b612ec67ffaf5da97d5dfed8496ebbdb9ee23869b141eb0e251af5dab54b4222b3322484e60001b61663d565b6000612ef47f8a22b538c96c481cb98dd460624aef04b5d157624120da0e508dc9d35d6f509660001b61663d565b612f207f29f9fc6cf84576c2fb55c6e69a4aeeebaffbd621a0d206e0404731262687d9c960001b61663d565b60005b603a80612f2e61967b565b90508160ff1610156130a957612f667f6ef3f10143a1690be4e04e5f89d9d50479ad6c808ff30e940a975036986086bf60001b61663d565b612f927f297ea3a2ad46089dd9f75dc41e2e25fa807787b58eb2bb811be15c3c8eca854b60001b61663d565b603a8160ff1681612fa161967b565b8110612fa957fe5b90600052602060002001600001601490612fc161967b565b906101000a900460ff161561306f57612ffc7fa28cf4da2e1685952b48b67fc6f16d39107b35c595c293f0001791bea27fe43860001b61663d565b6130287fbe679059e38cbd390ce1ed71f69bea4742b911bbdcb0937304649b6073b87d9c60001b61663d565b6130547f2fbfd66cf080fa3b416a125d3ad7c018b76d4a17a2b7876302710c97de5ddeeb60001b61663d565b613068600183617dea90919063ffffffff16565b915061309c565b61309b7fa2433bd2f1e7531549ff4182ac35b03c297915ab7b56898006ff31730a0ffa2560001b61663d565b5b8080600101915050612f23565b506130d67fee77718a3e133f264674e55c22dde9d337bd852faee73ec6a83f01a22c06a81160001b61663d565b6131027fb276ec9354d38d2badfe1380d230b813963f50161a4bbd05a638a1211ebccc6960001b61663d565b8091505090565b6131357ff726fc88418c0a3484479f3aad53d8027d0e2163703da4e11695846a8ecf323960001b610997565b6131617f684725bd78b70c3fb2cf13b500bfd22c1cd461220ef6c85b59f31f1043c5de1f60001b610997565b61318d7f66ea293273b42d90ad1edbe377e4882daf414bd29b0dcec70a1119a20e4da60760001b610997565b6131b97fbba45401a87b3041ecdfeb8ba6cdf9dec1a86b5dc1ad9312274f3d920df5ec4460001b610997565b60336000906131c661967b565b906101000a900473ffffffffffffffffffffffffffffffffffffffff1673ffffffffffffffffffffffffffffffffffffffff165a6132026196de565b73ffffffffffffffffffffffffffffffffffffffff1614613261576040517f08c379a000000000000000000000000000000000000000000000000000000000815260040161324f9061afb7565b6040518091039061325e61960d565b50505b61328d7fe84730383f7e358d6eb5424a73f82ebabefe25dbfc6cacd9a33efe47980ed6a060001b610997565b6132b97f1e8080af53826ea93c0834314df776ac304bf425dcb83719abb60873fded05d360001b610997565b6132e57f03564171d41e26763f1458ce21ac5e46c5bcc688bb2a6ec3edd11bdad239106060001b61663d565b6133117fbc7714cb3904be6cbf1ecee5581d4d7cb93f3a80d46b2eed55b13df2360d15ce60001b61663d565b61333d7f5dbb347ac9c6729a1fcc453f5ddd090657103ff282df7e7a813b3da66b771dca60001b61663d565b6133697fc43d69ecb333615af4349f9785ddfe3db7c1a0c0fef7d08900fe81016b676b9d60001b61663d565b603d61337361967b565b5a61337c6199d7565b10156133c6576040517f08c379a00000000000000000000000000000000000000000000000000000000081526004016133b49061b0d7565b604051809103906133c361960d565b50505b6133f27f0ba6a0dfbad5015f8c36c2f2e463d10bce2577be64bde311007bba0625bb88d260001b61663d565b61341e7fce8411b5ca17a82026414bd183d019bb29eb279f73922cfd36de3213e3ac31a560001b61663d565b61344a7ff572ad34ba8b967e433222ce22d3b9d51a5cea1d4af1de993d587ac05526b93e60001b61663d565b61345c603c61345761967b565b617e48565b6134887fd110536fee343e375c6d925a1d6c10068e64f1b68f98298b130f665fb2e8992a60001b61663d565b6134b47fd31202305a469a4ac3858cd07989a2e5d3a3d4412d8d95b07486f93f281548b560001b61663d565b6000603c81906134c261973b565b5050506134f17f8e44bd9cec0c013559a1c0433c451e17389c6dec316983a6bdf5ef72c44421d560001b61663d565b61351d7ff5ab4de18c6a1007c298e7e0ff0aaf25b5961af378e0127a76ee0c5b896af45760001b61663d565b6000603d819061352b61973b565b505050565b61355c7ff726fc88418c0a3484479f3aad53d8027d0e2163703da4e11695846a8ecf323960001b610997565b6135887f684725bd78b70c3fb2cf13b500bfd22c1cd461220ef6c85b59f31f1043c5de1f60001b610997565b6135b47f66ea293273b42d90ad1edbe377e4882daf414bd29b0dcec70a1119a20e4da60760001b610997565b6135e07fbba45401a87b3041ecdfeb8ba6cdf9dec1a86b5dc1ad9312274f3d920df5ec4460001b610997565b60336000906135ed61967b565b906101000a900473ffffffffffffffffffffffffffffffffffffffff1673ffffffffffffffffffffffffffffffffffffffff165a6136296196de565b73ffffffffffffffffffffffffffffffffffffffff1614613688576040517f08c379a00000000000000000000000000000000000000000000000000000000081526004016136769061afb7565b6040518091039061368561960d565b50505b6136b47fe84730383f7e358d6eb5424a73f82ebabefe25dbfc6cacd9a33efe47980ed6a060001b610997565b6136e07f1e8080af53826ea93c0834314df776ac304bf425dcb83719abb60873fded05d360001b610997565b61370c7fca3b0b6a8f0568d214a013263a65c9483dba7aa815bd0585a82fcb6e01b44e4260001b610997565b6137387f32a3f81f40bb087c7fd38d5dcb5c29f487af7b6230e95b2acd83a8141b6ef76160001b610997565b6137647f9f1a6c81fd7ccf33f78b471b0320d8b00b85dda096a45429cf89835a066ff67d60001b610997565b60005b81518110156138c85761379c7f7ae0a1ae04f92781454c373617fd96d4c9ab5fb9828a61d367bf00640648c33460001b610997565b6137c87f8dfa20da60ba28b5cf6e6b094b34a50c8c27b4e1efa56d9a9013613e395b454c60001b610997565b6137e48282815181106137d757fe5b6020026020010151615b44565b1561381a576138157f1bce9586341e7e0f103cc61df037ac5c651216e8a53aebe2b8316b0dfe13a21560001b610997565b6138bb565b6138467fa87f7eb0f11b25a4f28d761815fd69c2ac6e783657f1be3d8a92a6c8e7691e3060001b610997565b6138727ffe1fe1a4bae1838cbdef812094bc9bf6a37b3a1b68cd54d8dc58310eec925add60001b610997565b61389e7ff9c6e6aeebb90b2fd8d734adf26bebb0b4a46cfb0a98ed5d1c527b059e5cf19660001b610997565b6138ba8282815181106138ad57fe5b602002602001015161828e565b5b8080600101915050613767565b5050565b6138f87f4a2989e016ee3db5028bcbf218a52c7f8020ec696e924d242d22b4fb6cf6251960001b610997565b6139247f9217d7e909920e7ad8bda7e617457b1b1a010d29311d5f5d7f99725410308c9a60001b610997565b6139507fca99f56d1fecca0928ae1bc5ccb65c5224b8e55dc84dd587a8321f52da29a17660001b610997565b61397c7f1cf1d6bf9a6148d55d8e187c5872b464ed417dfae2a70ed1b7a0d9e352c3c7b360001b610997565b603360009061398961967b565b906101000a900473ffffffffffffffffffffffffffffffffffffffff1673ffffffffffffffffffffffffffffffffffffffff165a6139c56196de565b73ffffffffffffffffffffffffffffffffffffffff161480613a43575060376000906139ef61967b565b906101000a900473ffffffffffffffffffffffffffffffffffffffff1673ffffffffffffffffffffffffffffffffffffffff165a613a2b6196de565b73ffffffffffffffffffffffffffffffffffffffff16145b613a8b576040517f08c379a0000000000000000000000000000000000000000000000000000000008152600401613a799061b037565b60405180910390613a8861960d565b50505b613ab77f97f1b7ddd15e94821b740ac55ec4c7e565e73373b057c2d2019359a0d93eeecb60001b610997565b613ae37fb44f6a4f52199a66d1a724ff6f87f3767fde1451169ed589ee7d359bd007754260001b610997565b613b0f7fea3e0f9c9505507033d00b81c9facaa3a01a8d30930bcbd55858c4d0144ec10c60001b61663d565b613b3b7f1c6936f801b3089cc7c145ace43a2c6223cde13e8d7d31fe74875e2f88465fd460001b61663d565b613b677f57d08ba045e7a92990c7afde1b32768331f0c5d90286bd19f0d3db6af66ecad360001b61663d565b613b718282617849565b5050565b6000613ba37f4a2989e016ee3db5028bcbf218a52c7f8020ec696e924d242d22b4fb6cf6251960001b610997565b613bcf7f9217d7e909920e7ad8bda7e617457b1b1a010d29311d5f5d7f99725410308c9a60001b610997565b613bfb7fca99f56d1fecca0928ae1bc5ccb65c5224b8e55dc84dd587a8321f52da29a17660001b610997565b613c277f1cf1d6bf9a6148d55d8e187c5872b464ed417dfae2a70ed1b7a0d9e352c3c7b360001b610997565b6033600090613c3461967b565b906101000a900473ffffffffffffffffffffffffffffffffffffffff1673ffffffffffffffffffffffffffffffffffffffff165a613c706196de565b73ffffffffffffffffffffffffffffffffffffffff161480613cee57506037600090613c9a61967b565b906101000a900473ffffffffffffffffffffffffffffffffffffffff1673ffffffffffffffffffffffffffffffffffffffff165a613cd66196de565b73ffffffffffffffffffffffffffffffffffffffff16145b613d36576040517f08c379a0000000000000000000000000000000000000000000000000000000008152600401613d249061b037565b60405180910390613d3361960d565b50505b613d627f97f1b7ddd15e94821b740ac55ec4c7e565e73373b057c2d2019359a0d93eeecb60001b610997565b613d8e7fb44f6a4f52199a66d1a724ff6f87f3767fde1451169ed589ee7d359bd007754260001b610997565b613dba7fb23a19f9310d333bb76c98efbb829acae99fe339f582399745a176479b4884f360001b61663d565b613de67fa8c9e34673a68952d8f18da18f9202173a37fd28b1c20cf5a6963f7226fe29b760001b61663d565b613e127fd88e0452eae93ae4eb4797be30771d5bbed0c5576cf3948a549b0b203c3d55a660001b61663d565b613e3e7f820321967153e79223ac541a90437cab91aac199d1d2adfb2a00162691926eaa60001b61663d565b600073ffffffffffffffffffffffffffffffffffffffff168373ffffffffffffffffffffffffffffffffffffffff161415613eb7576040517f08c379a0000000000000000000000000000000000000000000000000000000008152600401613ea59061b197565b60405180910390613eb461960d565b50505b613ee37feb828909975b933b046eac3a87f71c89f7e32c8fc0252d5f626c1e5d03f9d7c460001b61663d565b613f0f7f0a03d57d164dce8580c91bf3e0bd49b7df34444c9da7d96f81ea36e8343659cd60001b61663d565b613f3b7f33b393a4333ea4a06afa89531d2e9144448948c18763404b869a30c63071c7fd60001b61663d565b60006038600090613f4a61967b565b906101000a900473ffffffffffffffffffffffffffffffffffffffff1673ffffffffffffffffffffffffffffffffffffffff16637027ea6c856040518263ffffffff1660e01b8152600401613f9f919061ac7f565b6020604051808303818680613fb26197d2565b158015613fc757600080613fc461960d565b50505b505a613fd1619835565b5050505050158015613ff0573d6000803e3d6000613fed61960d565b50505b505050506040513d601f19601f820116820180604052508101906140149190619e94565b90506140427ff0569f3f8ef565862c9785d2212fd58e7c72e4585a930ef319fb8e287d60a5b360001b61663d565b61406e7f1cab3fe2c8bd312ec393e86a4f9cdcf129dee4153982515cb57f976cb1424a2660001b61663d565b61409a7f871946dd44ea5b5934c478b17113da0fbf903c044c68da200296aec4c28a864460001b61663d565b600073ffffffffffffffffffffffffffffffffffffffff168173ffffffffffffffffffffffffffffffffffffffff161415614113576040517f08c379a00000000000000000000000000000000000000000000000000000000081526004016141019061b097565b6040518091039061411061960d565b50505b61413f7fe0f8bb93a59881d05fe418104abd8dd741d132c7c097a431ffeaea86dba0eb0960001b61663d565b61416b7f53b1d992a7a24b54b99c2b7636a864b9a459c5cf2c1e795f3614f34353862e0560001b61663d565b6141977fa8c80a1145b7338fc803df6ce35524f7031ff0f9b002b79273515b7192ca2a5f60001b61663d565b6141c37f54c04bfda83a07bd7d80f03e93d5edf5d6f1360293cd10d6f9c2569ec9e02dc660001b61663d565b8073ffffffffffffffffffffffffffffffffffffffff1663e23ff4375a63996d79a5598160e01b8152602081600483336000905af158601d01573d60011458600c01573d6000803e3d621234565260ea61109c528051925060005b60408110156142385760008183015260208101905061421e565b505050856040518363ffffffff1660e01b815260040161425992919061adad565b6020604051808303816000878061426e6197d2565b1580156142835760008061428061960d565b50505b505a61428d619a34565b5050505050501580156142ad573d6000803e3d60006142aa61960d565b50505b505050506040513d601f19601f820116820180604052508101906142d1919061a15f565b614319576040517f08c379a00000000000000000000000000000000000000000000000000000000081526004016143079061af77565b6040518091039061431661960d565b50505b6143457f4a8754677ce17a56817b411116dacd14d6230104c8218f90c4d668fc11ad17ff60001b61663d565b6143717f232f44e7641bcec1702ffb43d49599e04f46d8d82cf380c86dbdfff99d8a8f9160001b61663d565b61439d7fd7c92f03dc0e49d191f5625d3efa37966af49155ed1d6043775ade7652a69a2460001b61663d565b60008473ffffffffffffffffffffffffffffffffffffffff16846040516143c4919061ac68565b6000604051808303816000865a6143d9619a34565b5050505050509150503d806000811461440e576040519150601f19603f3d011682016040523d82523d6000602084013e614413565b606091505b505090506144437fc22862528145745b115fcefed77731d61c540dd49955ff7980ecb2401a0e897d60001b61663d565b61446f7fccd4ff71b27b8138d2f552e081ca1e831ee70aaa49845a78afbb9e32a12c55d660001b61663d565b61449b7f275cb8d808d465f7a3c8073c1da852f4d95e33eba24709d7bf17e3b632264d9560001b61663d565b60011515811515146144eb576040517f08c379a00000000000000000000000000000000000000000000000000000000081526004016144d99061b177565b604051809103906144e861960d565b50505b6145177f2904b3fd39506d6b35dcb4d7fc4d2a4713282253fc0bfd144ebfb231a805ddb960001b61663d565b6145437f22f69d32d939c59bb86d7daa37d42170ba2c3d64ef9b54fdb3c1c043a97e060660001b61663d565b61456f7f7eb05d44d6006b2cbe02c3b2654894860943e2e0fc87ed263c57825eb4a5783260001b61663d565b7f508f3afa87f72dce865a2321107666b28ac822c23a8c0555fbeb3424cf3de563603960009061459d61967b565b906101000a900473ffffffffffffffffffffffffffffffffffffffff166145c2611fb5565b5a6145cb6199d7565b6040516145da9392919061ad08565b60405180910390a161460e7ff111dd7986fefc76d63cf6f7b47d224fc02e7dacacc249ee23d4250c590b706a60001b61663d565b61463a7f199d933c7fccadf369f24e9e6a63c65c665827eec93e597cc9c273d212edb23860001b61663d565b60019250505092915050565b603d61465061967b565b81565b61467f7ff726fc88418c0a3484479f3aad53d8027d0e2163703da4e11695846a8ecf323960001b610997565b6146ab7f684725bd78b70c3fb2cf13b500bfd22c1cd461220ef6c85b59f31f1043c5de1f60001b610997565b6146d77f66ea293273b42d90ad1edbe377e4882daf414bd29b0dcec70a1119a20e4da60760001b610997565b6147037fbba45401a87b3041ecdfeb8ba6cdf9dec1a86b5dc1ad9312274f3d920df5ec4460001b610997565b603360009061471061967b565b906101000a900473ffffffffffffffffffffffffffffffffffffffff1673ffffffffffffffffffffffffffffffffffffffff165a61474c6196de565b73ffffffffffffffffffffffffffffffffffffffff16146147ab576040517f08c379a00000000000000000000000000000000000000000000000000000000081526004016147999061afb7565b604051809103906147a861960d565b50505b6147d77fe84730383f7e358d6eb5424a73f82ebabefe25dbfc6cacd9a33efe47980ed6a060001b610997565b6148037f1e8080af53826ea93c0834314df776ac304bf425dcb83719abb60873fded05d360001b610997565b61482f7ffa543b6f107045bf9c2087163c37dcfab98a23c4a624261978c06a9eca09d75860001b610997565b61485b7f82fb810c0be715dc0d93fe45e4b3a95b91e18835f3f3ca0fa8447a053d3902a760001b610997565b6148877ff819c58381b02ea27fb2e0c25d6dd614b7b856ae0a9cac81bc172816adf45f4660001b610997565b6000603760006101000a8161489a61967b565b8173ffffffffffffffffffffffffffffffffffffffff021916908373ffffffffffffffffffffffffffffffffffffffff160217906148d661973b565b505050565b60006149097ffaab115858d9fce9efc97f1bbbb6e0df3297f8f129d4b2eded2c231a15f4085860001b611552565b6149357ff893ef875ca94e9c3fc4cc86b45216aece14b700e6ec2a78405a4d0c8f88e0ca60001b611552565b6149617fab731ada03353f5fae632f632758df8ca199a2c0ed3b8fca3d506596ce85d1e860001b611552565b614976836004846020020160ff1660206164bd565b905092915050565b60006149ac7f8b3f70460638d519b2bd3c5c69706d337c766051aa7046bc4c199afe25d6e70260001b61663d565b6149d87f9b70d6a507276d3c315c08b4a7fd7c2cb6a031f2f9ec5b4190f406371589cf0b60001b61663d565b614a047f84fea67752f49fd6313a723a261dc8a8028269ce6383124800dd43b23f5e6fc860001b61663d565b614a307fc21712182a89d716a142d001dc70c51b425e4cc5db623cf8137ed7b9e48b423660001b61663d565b6038600090614a3d61967b565b906101000a900473ffffffffffffffffffffffffffffffffffffffff1673ffffffffffffffffffffffffffffffffffffffff165a614a796196de565b73ffffffffffffffffffffffffffffffffffffffff161480614b9957506038600090614aa361967b565b906101000a900473ffffffffffffffffffffffffffffffffffffffff1673ffffffffffffffffffffffffffffffffffffffff16631d68702d6040518163ffffffff1660e01b81526004016020604051808303818680614b006197d2565b158015614b1557600080614b1261960d565b50505b505a614b1f619835565b5050505050158015614b3e573d6000803e3d6000614b3b61960d565b50505b505050506040513d601f19601f82011682018060405250810190614b629190619e94565b73ffffffffffffffffffffffffffffffffffffffff165a614b816196de565b73ffffffffffffffffffffffffffffffffffffffff16145b614be1576040517f08c379a0000000000000000000000000000000000000000000000000000000008152600401614bcf9061aff7565b60405180910390614bde61960d565b50505b614c0d7fe6f4137afa4f45b35a9a17209a519567b4cf7f6f352edea6acf54f58ca946cbe60001b61663d565b614c397fdcda9a052a01f7c048b6cf6aff3f1718ad8e27d874fa0b2e445af5a63b8c867d60001b61663d565b614c657ff4314893ceed0a29d3012f2f3e7c8bf489f2da1967d2ad60a8ff809cea5827c460001b61663d565b614c917f46e1487fa4e5305427fd56bdbb0443978cfc6864e0c9f022663c64491258016360001b61663d565b5a63996d79a5598160e01b8152602081600483336000905af158601d01573d60011458600c01573d6000803e3d621234565260ea61109c528051925060005b6040811015614cea57600081830152602081019050614cd0565b50505073ffffffffffffffffffffffffffffffffffffffff168273ffffffffffffffffffffffffffffffffffffffff16631e50a4a66040518163ffffffff1660e01b81526004016020604051808303818680614d446197d2565b158015614d5957600080614d5661960d565b50505b505a614d63619835565b5050505050158015614d82573d6000803e3d6000614d7f61960d565b50505b505050506040513d601f19601f82011682018060405250810190614da69190619e94565b73ffffffffffffffffffffffffffffffffffffffff1614614e05576040517f08c379a0000000000000000000000000000000000000000000000000000000008152600401614df39061afd7565b60405180910390614e0261960d565b50505b614e317f0d7aa4b27efd9a78de0ad0e8b27046bfb484a0d63ae514a0f7698e0c6a342f8960001b61663d565b614e5d7f7afc5df97597ebab1e51d0dc4d7acff95cd70cdf5f3874d46bd06459533d1b8a60001b61663d565b614e897f904b22a43de70a318e54a16ff5d6b2cb96d1a81d40826dfc1e9e12dd674da79660001b61663d565b81603960006101000a81614e9b61967b565b8173ffffffffffffffffffffffffffffffffffffffff021916908373ffffffffffffffffffffffffffffffffffffffff16021790614ed761973b565b505050614f067f1aaff7490c0222603ddea6b962514ed89c3c1d0baf8f7a244c6bf6c4c552cbf060001b61663d565b614f327f42dd38a7b2161d5a793a3fbcedd1a1da845c7e6454084e922be74707de4b228a60001b61663d565b7f8c1446ebd2ac8c922b8c9716dfbdfcfef02c9fc167140d7cfd019565b423b249825a614f5d6196de565b604051614f6b92919061ac9a565b60405180910390a1614f9f7f916c419929ef41d842b20f39c05ce07c2a51d1a4b8d041a5550052b4c0afc39860001b61663d565b614fcb7fbc990a81b1853094bbe4188026e30b0d37b3c3837234ec206185fbcb0e57fcb060001b61663d565b60019050919050565b603c614fde61967b565b81565b600061500f7ff4eb5ba226e69772b2b21020f90a9cdd10e942d1315da41a72d2fadbf1d0df5660001b61663d565b61503b7f7d511db2bcc7475f5a3ae878e1958f13f4877eff35c06188f5831ecec13861ed60001b61663d565b6150677faae9066dd90e3e843c5023454fc21a677911c370fbe8ed5bf02c98065b4a440b60001b61663d565b603860009061507461967b565b906101000a900473ffffffffffffffffffffffffffffffffffffffff1673ffffffffffffffffffffffffffffffffffffffff1663cc435bf3836040518263ffffffff1660e01b81526004016150c9919061ac7f565b60206040518083038186806150dc6197d2565b1580156150f1576000806150ee61960d565b50505b505a6150fb619835565b505050505015801561511a573d6000803e3d600061511761960d565b50505b505050506040513d601f19601f8201168201806040525081019061513e919061a15f565b9050919050565b60006151727ecbfaec9af60292b443ac1af0cd2e5c0a6b65e2c43012e7c67213a14adb8aca60001b61663d565b61519e7f1dbb7931e6b0099b6161055ba4527907616a00fa552a3eddff00c84c66b0265760001b61663d565b6151ca7f3f1a2eed188c250001e7a11452425b983accababfdda7d4e0e40498aa20b599260001b61663d565b603a806151d561967b565b9050905090565b600061520a7f8f457202f427629ea60baa80f7f914c085350c8f2ca4f9fd180aca9fc44ec1f560001b611552565b6152367f4da3e58273fe915f61c0c9a457139e818bfac3b557b392cdd56b41b84d0d8def60001b611552565b6152627f5a7820acfad558e8182703c3d21294f7dfe53893d06442449d90f8b2f322864560001b611552565b6000615279846004856020020160ff1660206164bd565b90506152a77f8ccb0543f48fb49fbfcbc888a85917c4133287cc7f38bafdefda960c0dcb4cd760001b611552565b6152d37f2c0a939cfc53a406486784d858b7febb9711ec07456a8d9c024180617f6cc92960001b611552565b6152e58460048360001c0160206164bd565b60001c91505092915050565b600061531f7f53a53a91090dedce43f3ccc2f73eea130dde2155764df6f2ce2d098085f57f7060001b61663d565b61534b7fcc769722de3559752c0f7b8777c5bf0d4619dc8d61fc7ac980fda17ffcee13b360001b61663d565b6153777f6c2ec9bcee2affbc4d741f5d227c20c015750d200621691492782fabad93a70060001b61663d565b6000603b60008473ffffffffffffffffffffffffffffffffffffffff1673ffffffffffffffffffffffffffffffffffffffff1681526020019081526020016000206153c061967b565b14159050919050565b60606153f77f2ed9a800c6e07ab375323e4e1b0434d34b8c38ec279ba4963f47788acfe8c13d60001b610997565b6154237fd5271b2106a2b6b81360a695af0acfd076f10b58c416fca6fb4c2c4d4a66a94360001b610997565b61544f7f6e567f3752e55b17556beeed4082fe27184f8d2629d21114383aa0ea894a70b760001b610997565b60358061545a61967b565b8060200260200160405190810160405280929190818152602001828061547e61967b565b80156154e657602002820191906000526020600020905b816000906154a161967b565b906101000a900473ffffffffffffffffffffffffffffffffffffffff1673ffffffffffffffffffffffffffffffffffffffff1681526020019060010190808311615495575b5050505050905090565b600061551e7fb7631d099694a00ad219758cf924c237e53cf23ca4a9e085b9509716e095fb7260001b610997565b61554a7f1ac44fbaaf227ab2643b07a1ead07ba59b6efee2e01890ca6c3c8eb663480c5b60001b610997565b6155767f9a3ff978878e4f6fc1f75cc42031941c8b2b821a789f51a48ee1f5a5a295543f60001b610997565b60358061558161967b565b9050905090565b6155b47ff726fc88418c0a3484479f3aad53d8027d0e2163703da4e11695846a8ecf323960001b610997565b6155e07f684725bd78b70c3fb2cf13b500bfd22c1cd461220ef6c85b59f31f1043c5de1f60001b610997565b61560c7f66ea293273b42d90ad1edbe377e4882daf414bd29b0dcec70a1119a20e4da60760001b610997565b6156387fbba45401a87b3041ecdfeb8ba6cdf9dec1a86b5dc1ad9312274f3d920df5ec4460001b610997565b603360009061564561967b565b906101000a900473ffffffffffffffffffffffffffffffffffffffff1673ffffffffffffffffffffffffffffffffffffffff165a6156816196de565b73ffffffffffffffffffffffffffffffffffffffff16146156e0576040517f08c379a00000000000000000000000000000000000000000000000000000000081526004016156ce9061afb7565b604051809103906156dd61960d565b50505b61570c7fe84730383f7e358d6eb5424a73f82ebabefe25dbfc6cacd9a33efe47980ed6a060001b610997565b6157387f1e8080af53826ea93c0834314df776ac304bf425dcb83719abb60873fded05d360001b610997565b6157647fa9c54cfd6f30dea6afcf1f9dd7f07ffff37728fe01f0e5a40f5096f606a13c7160001b610997565b6157907f0af02d0f2eb7557c62178a54ab63f9dc59095fafde4b296939f7412ba772544860001b610997565b6157bc7f2298149c6c1d75e262236031617e1bc7933b0658b5158cf017376769c15bb39b60001b610997565b80603760006101000a816157ce61967b565b8173ffffffffffffffffffffffffffffffffffffffff021916908373ffffffffffffffffffffffffffffffffffffffff1602179061580a61973b565b50505050565b61583c7ff726fc88418c0a3484479f3aad53d8027d0e2163703da4e11695846a8ecf323960001b610997565b6158687f684725bd78b70c3fb2cf13b500bfd22c1cd461220ef6c85b59f31f1043c5de1f60001b610997565b6158947f66ea293273b42d90ad1edbe377e4882daf414bd29b0dcec70a1119a20e4da60760001b610997565b6158c07fbba45401a87b3041ecdfeb8ba6cdf9dec1a86b5dc1ad9312274f3d920df5ec4460001b610997565b60336000906158cd61967b565b906101000a900473ffffffffffffffffffffffffffffffffffffffff1673ffffffffffffffffffffffffffffffffffffffff165a6159096196de565b73ffffffffffffffffffffffffffffffffffffffff1614615968576040517f08c379a00000000000000000000000000000000000000000000000000000000081526004016159569061afb7565b6040518091039061596561960d565b50505b6159947fe84730383f7e358d6eb5424a73f82ebabefe25dbfc6cacd9a33efe47980ed6a060001b610997565b6159c07f1e8080af53826ea93c0834314df776ac304bf425dcb83719abb60873fded05d360001b610997565b6159ec7f86bd145c6ef8d8c06e20a7ea04c1b16df6ff38623513f0e063446b695046f03660001b61663d565b615a187f51a73355a1e050a91f0adbd807f0d0e48a00752ef2f457695f3b07fef4f88d3b60001b61663d565b615a447f2dba81259795cf8b901fbc03489dfe07c2cbb0b391ea47b8c2745035f5b73a6560001b61663d565b6000603c8190615a5261973b565b505050615a817f1c8d12560fca8ad52e52f94ab7cd1984b07a21a853dce1e4c8c8ad3f3842b48160001b61663d565b615aad7fa2fc82432c47cf5acb36d31c764e3fd18ff5f7318962b1e1cb4986ce55716d3c60001b61663d565b6000603d8190615abb61973b565b505050615aea7fd9ba4d6f41bd2615687c1de2815dcf15aa6b371c0c67aa4a4c083de53ebf456f60001b61663d565b615b167fa1efd546958776448c77b6a56e2c347eee98b22c3503033475910922eee0dbc860001b61663d565b7fc6f04bf43cbdf1ba5d51b4afa160bb3c7e13858b1409aa32868b239bb2f8d84960405160405180910390a1565b6000615b727f93bced7c6681af6c6d03eb68ab915229f26fad5feb1af98189749dbeb8a77d6b60001b610997565b615b9e7feb16ffe1c44dd3fa467685a7961c9da0f9967e47a0da90e288000ce0c2de65e760001b610997565b615bca7f4f088eeed859d895cbfaa9949df5c86833ec2c751d2ed1f39a62549b72574cc160001b610997565b6000603660008473ffffffffffffffffffffffffffffffffffffffff1673ffffffffffffffffffffffffffffffffffffffff168152602001908152602001600020615c1361967b565b14159050919050565b6000615c4a7f93b04c47422d33905b75292a9cd353e5a29d3fc25495025c87d998896306077c60001b61663d565b615c767f19c187ab9310ab78cf912d171374cb8bb430e540e688489a1c740ad5ce4d77ae60001b61663d565b615ca27f4d09ffdb30207ce60bbc979fb44d847b6797896ff97da1a8be413925940d94b060001b61663d565b6000603b60008473ffffffffffffffffffffffffffffffffffffffff1673ffffffffffffffffffffffffffffffffffffffff168152602001908152602001600020615ceb61967b565b9050615d197f4315c8bca14abddb63fea0481e0fc60c70a499fbe6c38cf75fc39bd9ec412b5660001b61663d565b615d457f5356fdedd5f92d700d763fa2e8bd3d1a99379dfbdf973becc25c26f68bbd723560001b61663d565b60008114615e2257615d797f2212d5541c83fbc01c822ae95cdac3174a22ee9bb8b4b05790b031b00a82aaeb60001b61663d565b615da57f0d282614d8a27842c75b30efb3233d19140dee5c91e603a657422fc084aea3d660001b61663d565b615dd17fe9789cd1672903b223efbb70f567f68ba3a1eac7f8347789397345b03d171e0560001b61663d565b603a615de760018361844990919063ffffffff16565b81615df061967b565b8110615df857fe5b90600052602060002001600001601490615e1061967b565b906101000a900460ff16915050615e4f565b615e4d7e144d81a1d5f8eaa3a9e37fd3c921500eb5762a89f971d8c87421954fa80b2e60001b61663d565b505b919050565b6000615e827fefe2c22b09876a856e39aa166afadf74ae34fe283090d9979cb49ad407e38f1e60001b611552565b615eae7fa17e61bf25b219f9e370180ea595fbf5c5023abe458e1c62e77b21b115a1bd0b60001b611552565b615eda7ff879bb38771c8cf94106f3671591cfac3d19bc2e769322669e85c43b59b6fb8f60001b611552565b615ee78260006004612cc0565b9050919050565b6038600090615efb61967b565b906101000a900473ffffffffffffffffffffffffffffffffffffffff1681565b603a8181615f2761967b565b8110615f2f57fe5b9060005260206000200160009150905080600001600090615f4e61967b565b906101000a900473ffffffffffffffffffffffffffffffffffffffff169080600001601490615f7b61967b565b906101000a900460ff16905082565b615fb67ff726fc88418c0a3484479f3aad53d8027d0e2163703da4e11695846a8ecf323960001b610997565b615fe27f684725bd78b70c3fb2cf13b500bfd22c1cd461220ef6c85b59f31f1043c5de1f60001b610997565b61600e7f66ea293273b42d90ad1edbe377e4882daf414bd29b0dcec70a1119a20e4da60760001b610997565b61603a7fbba45401a87b3041ecdfeb8ba6cdf9dec1a86b5dc1ad9312274f3d920df5ec4460001b610997565b603360009061604761967b565b906101000a900473ffffffffffffffffffffffffffffffffffffffff1673ffffffffffffffffffffffffffffffffffffffff165a6160836196de565b73ffffffffffffffffffffffffffffffffffffffff16146160e2576040517f08c379a00000000000000000000000000000000000000000000000000000000081526004016160d09061afb7565b604051809103906160df61960d565b50505b61610e7fe84730383f7e358d6eb5424a73f82ebabefe25dbfc6cacd9a33efe47980ed6a060001b610997565b61613a7f1e8080af53826ea93c0834314df776ac304bf425dcb83719abb60873fded05d360001b610997565b6161667fca7a2cabde565574087071fe1607587d54e9e4133febff955ce26370d56e3ade60001b610997565b6161927f4ae3bf1ec5df71fa19b4106be830080cd878ca1570b66601524259dfbf1fd26e60001b610997565b6161be7f3838976ed10281aed5556e0ea1a9a9d902617371c45c8baa61360d5bed3477cf60001b610997565b6161c781615b44565b15616229576161f87f9e044fc86a21d5bea6729c5c16aa15fd506f956dfdb708ba65d9e8a7beac4f6f60001b610997565b6162247fd20a97c35c6e3960f640bed6bcf30b3b89d45a7f1e1cd929e6c3af489665defb60001b610997565b6162b7565b6162557fe05601f46dfa4021edf6bb0b2c9f2cf613f1681fffcc7fb98c6d0c830d769bd360001b610997565b6162817f34bbbad5e06ddcd395174303e2003f6303d14e382aefe8484f63907b9abe0d7f60001b610997565b6162ad7f83b37c54dbaea8c77bfadc63f8f606565b9dc8564774a7e836bab8707586de0860001b610997565b6162b68161828e565b5b50565b60006162e87f57c28dc3b9fffcd2809a348a95dd172639da7a162d037461f64b606498a978f860001b61663d565b6163147fbece09c88799d3d5df45f9e8605393ee4c853f1bba390b784c7dc8fd4265410860001b61663d565b6163407f4e2acb629a669d564ffc538dc006e2b57aa1a422a23261ddd3a92287798e04c660001b61663d565b8173ffffffffffffffffffffffffffffffffffffffff166370a08231603960009061636961967b565b906101000a900473ffffffffffffffffffffffffffffffffffffffff166040518263ffffffff1660e01b81526004016163a2919061ac7f565b60206040518083038186806163b56197d2565b1580156163ca576000806163c761960d565b50505b505a6163d4619835565b50505050501580156163f3573d6000803e3d60006163f061960d565b50505b505050506040513d601f19601f82011682018060405250810190616417919061a3a0565b9050919050565b600061644c7f271eda76ea5a2f24aaf7354a2f6a056821e172ad356836f8df08dd15691e98e960001b61663d565b6164787f10fcfd0346feaac440e741509dd990ab5843d253a00469b7235a1546d467362a60001b61663d565b6164a47ffcf7d7b23ef441d9f2c7e067b8792e619c5eba9b696a3d04abaa5ec9b5d313eb60001b61663d565b6164b6826164b1846162ba565b611555565b9050919050565b60006164eb7fdbf66ce83ce63e1b90e474f035c4a8d784e0e29bf54a573c26983a0f4a4cbbcb60001b611552565b6165177feb2cd4358c15899b1595ad29b0ef0b53024f659bfd60d9f832cfd5823d57459460001b611552565b6165437fc3be7f0e5a666c19a596140bd00fdc4df0b35f7dffd237a9b85317c383366c9460001b611552565b61656f7f2acb4df9e63e73b3d49d7b38657b1574f30cd3acb64bc5e5b73ab1144ceb9b8360001b611552565b818301845110156165be576040517f08c379a00000000000000000000000000000000000000000000000000000000081526004016165ac9061b077565b604051809103906165bb61960d565b50505b6165ea7f3f71e92bd14f821d88273ee800e0b73eae1655a1d351098740c416395fb88be160001b611552565b6166167f4012a161d651452a28c3646c96a8ddc6a29d16ef089a2e5ae51fb2b45e28cb2660001b611552565b826020018401519050816020038015616635576008810260020a820491505b509392505050565b50565b606061666e7f3260d180c380e176b198f70a823c04aa387cae8133a8fd0b709f9a3cca2d434c60001b61663d565b61669a7fe0963aa2335554a4f893220841ac9c316bd76c9d38a8bcd38b4bf7d718bc25a560001b61663d565b6166c67f0dbd56dbd86e4dd46b95fc2cb588ed210e641a66e81665800ec64cd2691c55a560001b61663d565b6000603a806166d361967b565b905090506167037fe9072b8625aa2ee72d07ed7735211002981512a650191656fb4f11a9b07c5fd160001b61663d565b61672f7f3ccd0a808e48e44616829758d3d19e77c7ebfc6eaff2aa0e24df20669e6f339e60001b61663d565b60608167ffffffffffffffff811180156167515760008061674e61960d565b50505b506040519080825280602002602001820160405280156167805781602001602082028036833780820191505090505b5090506167af7f4b64c7a0244f39d3332edee08863f3fb57e058aabb848b10de620fdc90c8534b60001b61663d565b6167db7f950b8518bbab3f20e9337b10ec34155f20b78d00ad347f61ad24cdc85f664f9b60001b61663d565b60005b828160ff1610156168e3576168157f96b104a0386b7cb83694400d94b698396520cebba2226759d92e362762fa3f2960001b61663d565b6168417f661f4a1d3037ce8d82c2dfa4e05fbaa776d4753ee4b14186eef4f2a7f74a6fa260001b61663d565b603a8160ff168161685061967b565b811061685857fe5b9060005260206000200160000160009061687061967b565b906101000a900473ffffffffffffffffffffffffffffffffffffffff16828260ff168151811061689c57fe5b602002602001019073ffffffffffffffffffffffffffffffffffffffff16908173ffffffffffffffffffffffffffffffffffffffff168152505080806001019150506167de565b506169107f3e61fa4a848ba22e013a9f1ba7eecdc2f75e84393f5b45c9918c0261f315216f60001b61663d565b61693c7fbdfc574bd44f37e1634105ac4116575557aa36198549b5fecddec43a59e1b86260001b61663d565b809250505090565b6000806169737fcc3c7b1eca5e0de5c031e811b85686338935fc347791b678ff02e03199c4063160001b61663d565b61699f7f62d2d590f4d69e84b62bcabfd091707839a8edbe513dc4385900d68fef1bffb860001b61663d565b6169cb7fed21ea51fbeeca80e17329288396599f0e8d6d369e30d72b9f6fa20eab2d5c6a60001b61663d565b603c6169d561967b565b603d6169df61967b565b915091509091565b6060806060616a187fb31ae6e786136b50c3d8d9f3e059778eee5be310e3a90a7c974f85fc261f88f360001b61663d565b616a447f0d4f20427a457deaa29e2607b9c5d07390315ce5e78b3a59444fd8064982444b60001b61663d565b616a707f174f8435ab98e644e58540d2ea9e0324ee07dd9d1682d7e3f11e31360959458d60001b61663d565b6000603a80616a7d61967b565b90509050616aad7f18acc4040281a664075d5b12d19522595a02a42a5126a1309b9f57c6153396c360001b61663d565b616ad97fb0aed222a936a5014000acecbace83932c650de664a5c698f87841f8dec9835560001b61663d565b60608167ffffffffffffffff81118015616afb57600080616af861960d565b50505b50604051908082528060200260200182016040528015616b2a5781602001602082028036833780820191505090505b509050616b597f37c0b9796bffb771af0967e9d8bf69741515429afbf5e28a9150e49577cedaab60001b61663d565b616b857ffa60933e2597c3f3b416821bd3e92105d5e5aab2cf7d799547d124e9f08d2cba60001b61663d565b60608267ffffffffffffffff81118015616ba757600080616ba461960d565b50505b50604051908082528060200260200182016040528015616bd65781602001602082028036833780820191505090505b509050616c057faa3595169fd0f8408432e52984cf70935fb12d9dae940a5c21a4c6a8613091ea60001b61663d565b616c317f41a9ea5e5bb520d6bfa148ce7d1ca98002533d4d78c2b0adc051bb8263f42de560001b61663d565b60608367ffffffffffffffff81118015616c5357600080616c5061960d565b50505b50604051908082528060200260200182016040528015616c825781602001602082028036833780820191505090505b509050616cb17f317a8a921a25705163543673f3d51faa34585aae87dc6a82e9385f9eea2f726060001b61663d565b616cdd7f1b53fdb681c38023d240f742fa2d21660cd413ae11b63027d4d7ba9dd2b688f560001b61663d565b60005b84811015616ffa57616d147f21e779a67e428f8ebf7ffc9a8a271f50f5a9a01da0d971bc723fdd0bd499674760001b61663d565b616d407f2ce8f06b9931450b0f3c25fffc8ac6c7d4ad12003c4f2a5ce571fe593ac3e41160001b61663d565b6000603a8281616d4e61967b565b8110616d5657fe5b90600052602060002001600001600090616d6e61967b565b906101000a900473ffffffffffffffffffffffffffffffffffffffff169050616db97ff0867a135bb1c2cf61c4d678246e0551b31d8214c5f59558b4dbab0b2d799f4960001b61663d565b616de57f5748963f613e0268fb376aaac1775a2800ebacef2099adbc62514ac4c21d9a3460001b61663d565b616dee816162ba565b848381518110616dfa57fe5b602002602001018181525050616e327fa93a122f4bd2e2d457d0328fb8514945bcae59a49fa02426a5bdd1cf20e7ab6060001b61663d565b616e5e7f94b8a9d4201de8c5313ae52b39b39a888fa5a750842eeaeb03a81c6ba235001d60001b61663d565b80858381518110616e6b57fe5b602002602001019073ffffffffffffffffffffffffffffffffffffffff16908173ffffffffffffffffffffffffffffffffffffffff1681525050616ed17fcf73224d96d4cb4c1b62a45dc937e5cefb345680518a3fed8707a4a28949fc0360001b61663d565b616efd7ff3f14f3bf93c4dc91d9b2740edd7723d51e576d96bb92f0c6c957b47ac2f5c5260001b61663d565b6038600090616f0a61967b565b906101000a900473ffffffffffffffffffffffffffffffffffffffff1673ffffffffffffffffffffffffffffffffffffffff16638b2f0f4f826040518263ffffffff1660e01b8152600401616f5f919061ac7f565b6020604051808303818680616f726197d2565b158015616f8757600080616f8461960d565b50505b505a616f91619835565b5050505050158015616fb0573d6000803e3d6000616fad61960d565b50505b505050506040513d601f19601f82011682018060405250810190616fd4919061a3a0565b838381518110616fe057fe5b602002602001018181525050508080600101915050616ce0565b506170277fc8ab0b423bab6bcce2d5a804a8c6cdc2ade79a98b57bb148e174097506479c5f60001b61663d565b6170537fea25610234b84fbc1217aa774c2003c47bd8800e134f16707a05159a7c3a100a60001b61663d565b82828296509650965050505050909192565b60606170937fe7ded372597b04070dc23b8073f76f16369afe1ba9bb655212499ca4c89078f060001b610997565b6170bf7f01ec58831db98f33618ad51b08b94ed3a3a6b0622fcfb23a3be0f3c3909ecf1c60001b610997565b6170eb7f9cab5560c48acff3bdc66326ea997f6ec4889edc87b772b7ec0867872efa8b0b60001b610997565b6034806170f661967b565b600181600116156101000203166002900480601f0160208091040260200160405190810160405280929190818152602001828061713161967b565b6001816001161561010002031660029004801561719d5780601f1061716b57610100808361715d61967b565b04028352916020019161719d565b820191906000526020600020905b8161718261967b565b8152906001019060200180831161717957829003601f168201915b5050505050905090565b6171d37f43d4d67dc7f967cc97563907b86c2519d42dcc126e20c1f02c04390ace2db7d960001b610997565b6171ff7f9a33241be8ddde47c507c09ca66ad831c8dff917b40a1657dd3f1f7160faa37a60001b610997565b61722b7fd976149b1269705ae23cacedb5a8a0d8cf214428935148b777fd1e2437b701e560001b610997565b600060358061723861967b565b905090506172687f0be28d4891fc3d9806bb2f98a38c5ded5aaf8a95e3656f5059d7c3c51cc7161560001b610997565b6172947f982408f60d6d6df50dc0350c15c812b70faf6b72c73c1f7d4ee3b420355975d260001b610997565b60006172f06001603660008673ffffffffffffffffffffffffffffffffffffffff1673ffffffffffffffffffffffffffffffffffffffff1681526020019081526020016000206172e261967b565b61844990919063ffffffff16565b905061731e7fd23a7fca9f4d6905f8ef0768ea2e240a0f20482a65e1a39a997147409e71e54760001b610997565b61734a7fc12ef148a50437be9c6c3fe2886c3fa010931c5b6d7cdf9403f213763e80a2c260001b610997565b6000603561736260018561844990919063ffffffff16565b8161736b61967b565b811061737357fe5b9060005260206000200160009061738861967b565b906101000a900473ffffffffffffffffffffffffffffffffffffffff1690506173d37f417697173a7e5a834c2b335e9ad87be0f0870d0ce953cde7d1746d7c20393a3660001b610997565b6173ff7f797aa45c850cf8a13ebf5e0692ce4233c1ca36547a673b9667aa0ef542e6204b60001b610997565b806035838161740c61967b565b811061741457fe5b9060005260206000200160006101000a8161742d61967b565b8173ffffffffffffffffffffffffffffffffffffffff021916908373ffffffffffffffffffffffffffffffffffffffff1602179061746961973b565b5050506174987f904707040d9ebaf87a4ba18a853b7f7bfbfb7cc74efbba90b546b2b527e7d77b60001b610997565b6174c47fa36e670d734c079531017080326060167c11cc6330c00467364d94e3901260d060001b610997565b6174d8600183617dea90919063ffffffff16565b603660008373ffffffffffffffffffffffffffffffffffffffff1673ffffffffffffffffffffffffffffffffffffffff168152602001908152602001600020819061752161973b565b5050506175507f6cef904dfc8e44bc602f22936344c33e18e8f32de8130f62b6ac3e044feef62360001b610997565b61757c7f148ba67878f02304e3e32d635da24799fb83800211723c864a28b0e14b0e946260001b610997565b6000603660008673ffffffffffffffffffffffffffffffffffffffff1673ffffffffffffffffffffffffffffffffffffffff16815260200190815260200160002081906175c761973b565b5050506175f67f37cbd5cc2380c7027b945e93e7b84b8577e206e5bca9a39c21c51c2aebbd3f8c60001b610997565b6176227f4731067e33b609595a4497107bfa3cec3fa3eca7626a916057ddc4b5a31456c560001b610997565b60358061762d61967b565b8061763457fe5b6001900381819060005260206000200160006101000a8161765361967b565b9073ffffffffffffffffffffffffffffffffffffffff0219169061767561973b565b50509061768061973b565b505050505050565b6000805a63996d79a5598160e01b8152602081600483336000905af158601d01573d60011458600c01573d6000803e3d621234565260ea61109c528051925060005b60408110156176e4576000818301526020810190506176ca565b50505090506000816176f46197d2565b9050600081149250505090565b61772d7f7a588846b7b8e59b62e22986f1cb03725d0c799bc40b4c73078dc20574eac2e960001b610997565b6177597f6bd94a7dd2e31883755a94a28e28b0cb8429ba928dc381140d7d77004c42d93360001b610997565b6177857fa83ebde687c92ed750fa8c4250da0e5f9644a2bfe9f251f0e042fe7fc85d576a60001b610997565b81603360006101000a8161779761967b565b8173ffffffffffffffffffffffffffffffffffffffff021916908373ffffffffffffffffffffffffffffffffffffffff160217906177d361973b565b5050506178027fba877d339753ca494df1548e242158439ecda7d0f68d1bab8ffb69bf3ad67e7060001b610997565b61782e7f4bd1b9cef254dde54fb7b4ba3a076b2a8892c4069d2956afda2d83132d0d4ea960001b610997565b8060349080519060200190617844929190619935565b505050565b6178757f34770cbf8a57b8b3f013f4fa1d4f26bf4bbde5ef592bf1fefbccc15cef5e0f4960001b61663d565b6178a17f7e1aa943359470189bab3b6926c9faaa914376640e24ff3f6062628b4235e8a860001b61663d565b6178cd7f35545561e4c776f38d70d9aa9b8bd8d0ca531afda75f4506f3e9a8b575c5676b60001b61663d565b60005b81518160ff161015617960576179087fa1ce611800b7580abeec2c3e8af9f1d0b397ccde8b421409ee990d6fcc7ab0e260001b61663d565b6179347fe6d7a305add7fc1d7104f4f9727d65549338f50192b4ce4e8878404232e2c8cb60001b61663d565b617953828260ff168151811061794657fe5b6020026020010151618493565b80806001019150506178d0565b5061798d7fba3296007eb100af0755214729dff11e2f90b533913707c3e23e06803fe41e8e60001b61663d565b6179b97fc6fcee34de3aed4d9da527111e9e96d34eda55762cd80fc76b51594187e5668460001b61663d565b60005b82518160ff161015617a4c576179f47fb5911200b58547844b7a7b6c37e432b2da01da197a36f65b5f042d818c9b409a60001b61663d565b617a207f074f7dc0131832b232541a8ab6be3c58929ec56bc4fd6696c5a56c679f5bf29360001b61663d565b617a3f838260ff1681518110617a3257fe5b6020026020010151618f32565b80806001019150506179bc565b50617a797fd0ad0705440f457abf32c698209924dae4d62b75e3e3f1335f7d450ce9c4c1a260001b61663d565b617aa57fd1cf248cc2a2b5aa67aa14f63a6fb1138e2cc19b4d9c0f92b091150aac5b3bc160001b61663d565b617ad17fe0a85bbe1af2e847d37b04371d87d4c3bb831bdcd2744a9f3f36d1af53435f3660001b61663d565b6038600090617ade61967b565b906101000a900473ffffffffffffffffffffffffffffffffffffffff1673ffffffffffffffffffffffffffffffffffffffff1663aa12ae4d6040518163ffffffff1660e01b81526004016020604051808303818680617b3b6197d2565b158015617b5057600080617b4d61960d565b50505b505a617b5a619835565b5050505050158015617b79573d6000803e3d6000617b7661960d565b50505b505050506040513d601f19601f82011682018060405250810190617b9d919061a3a0565b603a80617ba861967b565b905010617bf3576040517f08c379a0000000000000000000000000000000000000000000000000000000008152600401617be19061b1b7565b60405180910390617bf061960d565b50505b617c1f7fdc96d2704fa7111d9d998bd88a9aec5d1a44e73f7cf4547e3ed9fe3f0fc28d8560001b61663d565b617c4b7fab0f554eb34e95cfd0955f8ef69a7bfa59fc9e84223a9c82293a9bb0f9fe966460001b61663d565b617c777f922c65978f04faeeee71161e0cd4084b1a646a2b41595560244b450f15842e7f60001b61663d565b617ca37ff55b3dfe467867d5e66e30a02e15f1484c9e9e779f774baaf5e1e042232ca16460001b61663d565b6001617cad612e40565b1015617cf7576040517f08c379a0000000000000000000000000000000000000000000000000000000008152600401617ce59061b017565b60405180910390617cf461960d565b50505b617d237fdc8ce4e8b1b7cf6a85a5286ae3528f900767b4261b3550ae06aec32d8170836f60001b61663d565b5050565b600080831415617d3a5760009050617d9a565b6000828402905082848281617d4b57fe5b0414617d95576040517f08c379a0000000000000000000000000000000000000000000000000000000008152600401617d839061b0b7565b60405180910390617d9261960d565b50505b809150505b92915050565b6000617de283836040518060400160405280601a81526020017f536166654d6174683a206469766973696f6e206279207a65726f00000000000081525061953f565b905092915050565b600080828401905083811015617e3e576040517f08c379a0000000000000000000000000000000000000000000000000000000008152600401617e2c9061af57565b60405180910390617e3b61960d565b50505b8091505092915050565b617e747ffc6b744fce5304ea3119af8fd0c987fd93c9dfe2053293fd49aeebe9ba365da560001b61663d565b617ea07fad09f01e82fb196bf407db0c3168dd58733a98b5a019ca9464d636fec7eb4dac60001b61663d565b617ecc7f4b1a513f7f2dc9041817a129ac65298b2cf6e935997a6ce9195ff84e1efc9b8a60001b61663d565b6038600090617ed961967b565b906101000a900473ffffffffffffffffffffffffffffffffffffffff1673ffffffffffffffffffffffffffffffffffffffff1663046b72c46039600090617f1e61967b565b906101000a900473ffffffffffffffffffffffffffffffffffffffff16836040518363ffffffff1660e01b8152600401617f5992919061ae0d565b60006040518083038160008780617f6e6197d2565b158015617f8357600080617f8061960d565b50505b505a617f8d619a34565b505050505050158015617fad573d6000803e3d6000617faa61960d565b50505b50505050617fdd7f7320b932b5e025971dda27859c97df1d7468cf4b91d1268bd19e5918495d194160001b61663d565b6180097f0d64e274b6efc208e105880651e9eba6b886c22aaba3998e8727a65d7b77119260001b61663d565b60006180377fc6140564aff373523a1c7007b7786b3607eba21db1e8df287dba4fdd41f39e2a60001b61663d565b6180637fb9d037b24a9fae110913e535e026346c0c35c9057b21ccaef6c08118559fe99f60001b61663d565b60006180917f9fe82189419f23150dc69a1ed21ebb4fed8ddd5bc87533e62de46bf38beb494d60001b61663d565b6180bd7f47bd004e0137e0cbc5098f595d9855543279d1e09d0783ccc802264a884269ce60001b61663d565b60386000906180ca61967b565b906101000a900473ffffffffffffffffffffffffffffffffffffffff1673ffffffffffffffffffffffffffffffffffffffff1663b7a54526603960009061810f61967b565b906101000a900473ffffffffffffffffffffffffffffffffffffffff166040518263ffffffff1660e01b8152600401618148919061ac7f565b6040805180830381868061815a6197d2565b15801561816f5760008061816c61960d565b50505b505a618179619835565b5050505050158015618198573d6000803e3d600061819561960d565b50505b505050506040513d601f19601f820116820180604052508101906181bc919061a3d2565b80925081935050506181f07f348092cfb6a2b6d98ad6fc0e694365b2f935b25f57a2fdcea9f78e290d51401d60001b61663d565b61821c7f7b68b4673945606aa36bb42a96a50e3eea0f4ddc5e316d14f2e8c3a1d3391dc660001b61663d565b7f1780c04ddc6f0b32d866c7a3d7583f53515ef49ed2126af868f804f491601266603960009061824a61967b565b906101000a900473ffffffffffffffffffffffffffffffffffffffff1661826f611fb5565b8484604051618281949392919061ad3f565b60405180910390a1505050565b6182ba7f120d4ada38bb5617d62f237f475d91361f9986899c218eb39368b795730a9ad260001b610997565b6182e67ff876760b2cad024af551c4ea79575243fb2b3818ef8518cb46e1dc3035c15f3760001b610997565b6183127f7726f68d522d3254d6528922abd286c5555ff4b7e4f68c51afcd636d246f5abd60001b610997565b603581908060018161832261967b565b01808261832d61973b565b505080915050600190039060005260206000200160009091909190916101000a8161835661967b565b8173ffffffffffffffffffffffffffffffffffffffff021916908373ffffffffffffffffffffffffffffffffffffffff1602179061839261973b565b5050506183c17fb5d83ba033c4b78376e5d2d9da6133c97d5063d821e0ad0aa5af2f3781cf308560001b610997565b6183ed7f89ab2a8e5e1b48c265e8ca3f5097a80099abbe2dbed6e5ffee0f376db28a5d9660001b610997565b6035806183f861967b565b9050603660008373ffffffffffffffffffffffffffffffffffffffff1673ffffffffffffffffffffffffffffffffffffffff168152602001908152602001600020819061844361973b565b50505050565b600061848b83836040518060400160405280601e81526020017f536166654d6174683a207375627472616374696f6e206f766572666c6f7700008152506195a9565b905092915050565b6184bf7f8c131e08a89f1e1646f736d9b42d7a12862af8a096eb7e0cb7d3398312f1240560001b61663d565b6184eb7fd17d716b32fca6bf2bbffc8952c65d6f411df223e2a718cfa0b8630f2af3d89a60001b61663d565b6185177f817435bb2a77c00148077a699cc1e99c1967479a4c1a0522e37ab0f6939c07a460001b61663d565b60008160000151905061854c7f4c8953b94e86cee96ed0e02df66aca90ee1103aa9b00710ba67330c9306da0d460001b61663d565b6185787f3484f866eafb81a3a3721d5e2a9a9f7ed5141d282a9e7ad3bdb32a1137ee4fc160001b61663d565b6000826020015190506185ad7fe2dbd643f94d7721b4cd361d803ec8e020c619e1eb23b6c25479e7824aa19cb660001b61663d565b6185d97f2a6ec88bf5d82b2fac71ab3515111fa41f4ed6c1e99c943c2a191b2721d5135e60001b61663d565b6186057fe32e353dfd42777ee6fbb6ef0461672ff89973a8eba1f3b4378b5f2acbec808c60001b61663d565b61860e826152f1565b618656576040517f08c379a00000000000000000000000000000000000000000000000000000000081526004016186449061b117565b6040518091039061865361960d565b50505b6186827fd468585b959dcba24006a10715a29e50b22b2d790fbbfc037141219e71486af560001b61663d565b6186ae7f6017ba4d5084f594b8d0276d70c03825deeed758d4be56de029eb2d7526405b560001b61663d565b6186da7feed34252e343e883b16f0c6481226ac42255ea0f71666daf40a1804f9f36c8f760001b61663d565b60006187366001603b60008673ffffffffffffffffffffffffffffffffffffffff1673ffffffffffffffffffffffffffffffffffffffff16815260200190815260200160002061872861967b565b61844990919063ffffffff16565b90506187647f114852c0aaa19ca982d11724042cdd393f244cfe474d8d745afadaf82e4644df60001b61663d565b6187907f7789e6aa52baecb248c2418219a820cf035d5c063815cab3ff3e119e472428a560001b61663d565b8115618869576187c27f6ba0fea7465eac8e9b9663f41fef263cd481aa95fa5fcb2537a5467b2801fc5960001b61663d565b6187ee7f374ca0a61d2441dfc9a3bc05a5770751ab9baab926b8ff1f0cd786e33e7a91e660001b61663d565b61881a7f3136c3614165dbe26475603f58d6e5c584773e01bf6bcaf6967b326be739309e60001b61663d565b6000603a828161882861967b565b811061883057fe5b9060005260206000200160000160146101000a8161884c61967b565b8160ff0219169083151502179061886161973b565b505050618e67565b6188957fe334c96f8861cb0dcdcb5e3dcc9320bbd7f7e3d2250fce27c121fed5374a753760001b61663d565b6188c07e2485e33a58f597c35dd0fad258ba4072c2f89d5048350262d510525269250960001b61663d565b6188ec7f219f0beebb52ed0d670b6d0ee1affc85457a61339e690dee96c4d912332cc8b460001b61663d565b6189187f2d0dca3907955c55e66e691a914793881e2198dce99864b5a6e73ee554b49de060001b61663d565b6000618923846162ba565b1461896c576040517f08c379a000000000000000000000000000000000000000000000000000000000815260040161895a9061af97565b6040518091039061896961960d565b50505b6189987ff8dcb9828b68e3bd8c759bf5306c9c251a07b6190df778d7a8930a977eced4b960001b61663d565b6189c47f0408ea1efea032682c3dc30fd9adbff69076d69d6daab0a447e22d056209f0e260001b61663d565b6189f07f25467937fb141c61ed33715b859710ba95a9d74c1b37bf2e6d7932e786fa00f260001b61663d565b6000603a806189fd61967b565b90509050618a2d7f02c8e70ca3af75d35362aa56a9856337ece239600e43f80d7998fba901a2b8fa60001b61663d565b618a597f0fcfcda066a548d89bfce77730c0b3f44e530027f4f6fd43f8d5b5de7f33929160001b61663d565b618a616197a0565b603a618a7760018461844990919063ffffffff16565b81618a8061967b565b8110618a8857fe5b9060005260206000200160405180604001604052908160008201600090618aad61967b565b906101000a900473ffffffffffffffffffffffffffffffffffffffff1673ffffffffffffffffffffffffffffffffffffffff1673ffffffffffffffffffffffffffffffffffffffff16815260200160008201601490618b0a61967b565b906101000a900460ff1615151515815250509050618b4a7f8eddef7bd11ac47753f99399c9a93675e909222b47ff7b4e9fa6a79f59a7ef7960001b61663d565b618b767f5cb1e34d4bf64e70784ef81eb91ed604232558ef92f9bb324515c9ba966aa2ad60001b61663d565b80603a8481618b8361967b565b8110618b8b57fe5b9060005260206000200160008201518160000160006101000a81618bad61967b565b8173ffffffffffffffffffffffffffffffffffffffff021916908373ffffffffffffffffffffffffffffffffffffffff16021790618be961973b565b50505060208201518160000160146101000a81618c0461967b565b8160ff02191690831515021790618c1961973b565b505050905050618c4b7f72ec6a7b2e107afe5aac9a8f159140d0d137ed0c7c7a8f8513afcd5411759d5160001b61663d565b618c777f94773029b3f80d392c36bff5752afc2846bf0e2aee64b1e1cc094c83b6ced84f60001b61663d565b618c8b600184617dea90919063ffffffff16565b603b6000836000015173ffffffffffffffffffffffffffffffffffffffff1673ffffffffffffffffffffffffffffffffffffffff1681526020019081526020016000208190618cd861973b565b505050618d077f7a0fa85b446402d79ebc6665582c2eaa5927b421f6b0da57f5b2e373ddf4c8c160001b61663d565b618d337fc34e77ef9044ec84978f4875f7e2e286f9d8439d1a00c9eea2b966c8a22b7b2f60001b61663d565b6000603b60008773ffffffffffffffffffffffffffffffffffffffff1673ffffffffffffffffffffffffffffffffffffffff1681526020019081526020016000208190618d7e61973b565b505050618dad7f1e118885e4af8ce0fb36c96ad02c22f4e7baf6904ccbcfa20952e7609c7fdd2160001b61663d565b618dd97fffd6c36c212ae49a646f929446ddfe2ad221ce6c427e4a6189400abf89fa1afd60001b61663d565b603a80618de461967b565b80618deb57fe5b60019003818190600052602060002001600080820160006101000a81618e0f61967b565b9073ffffffffffffffffffffffffffffffffffffffff02191690618e3161973b565b50506000820160146101000a81618e4661967b565b9060ff02191690618e5561973b565b5050505090618e6261973b565b505050505b618e937f3d124e11188cf5ebae45d2d236f5f582c7d76624b2438fe6921c4cba732706ce60001b61663d565b618ebf7f982f21d0af97f7d4ac9f81120137b991e0eb411417a71a9cf853eac1165fbf9460001b61663d565b7fe965d54082969a663997d69c24092b2a8571d2fd7d9f74033800398bbab6ffe96039600090618eed61967b565b906101000a900473ffffffffffffffffffffffffffffffffffffffff16618f12611fb5565b8585604051618f24949392919061acc3565b60405180910390a150505050565b618f5e7ffbe96ee0f41174e779ce3c2873f577e7c8bdf8a9b89a6267a6f267dfc61fb60960001b61663d565b618f8a7f57c60d2d00f8ae30c92eb50fdaf5c2b3f04e0364f0641b3c0db7f8dbcef94c3d60001b61663d565b618fb67fdcb38b4800d118d69cbd53d3d686518b7f689683ea5999741c59a5b32c2715e160001b61663d565b600081600001519050618feb7f6925f7029051ea8e6059a42d11b46ba59f51a6081e7ada785d1cbd14547bf20660001b61663d565b6190177ff3dcf7ae24d7e36d1bfdc682546a8da32cdf709ed39eb7beda02a409ba53999660001b61663d565b60008260200151905061904c7f201defc04fe51c356f7458b4c68c8bbd47b9f05640b8a6020c7e6d2cab00b8a460001b61663d565b6190787ff0dedea63d94e1d1b359f55800a5c2661684586897c8978fefdca94204b7a3a760001b61663d565b6190a47f6bef9c261c97bf9af725cbe35a0902efdb21995e204c3bc1700dc37abc90911e60001b61663d565b600115156190b183614fe1565b1515146190fc576040517f08c379a00000000000000000000000000000000000000000000000000000000081526004016190ea9061af37565b604051809103906190f961960d565b50505b6191287fc8220e9c3d14e2c1b874cb399c1a8e00fbe37816d8e6ef15810d0002191a488660001b61663d565b6191547feb0896be43daf2da2e636ea46e0d8bdd32738351e2dc042bfbcb4e5c4455289d60001b61663d565b6191807f33376bdc9d64de7b50cd5e8746cf974bad31c04873c2aadd608027db7e836f3f60001b61663d565b619189826152f1565b15619317576191ba7f78018c28f3dbf1a2a8fa82894f012e3d4675ea36313187c2715a7f2fe04805bd60001b61663d565b6191e67fba682690580363cf4d5a69f22e2304b1c0dd91ed2c20b343155d1d83c4fa84ea60001b61663d565b6192127f40183964a6df3a52c5231c5ca6760fc11dbb01fb78c68474464ed66058e0544460001b61663d565b600061926e6001603b60008673ffffffffffffffffffffffffffffffffffffffff1673ffffffffffffffffffffffffffffffffffffffff16815260200190815260200160002061926061967b565b61844990919063ffffffff16565b905061929c7f04768450b092bf7718cd1cee4e75be1ce8e681e4c7d46cd2fcfe6b299089fcd260001b61663d565b6192c87f4a1dc0d5dd2414f418424d1b147ee40471891e9a9eb9d5be187adb3cb989646b60001b61663d565b81603a82816192d561967b565b81106192dd57fe5b9060005260206000200160000160146101000a816192f961967b565b8160ff0219169083151502179061930e61973b565b5050505061953a565b6193437f82809b4d3cf6ae5598d0990f2867782cf00415896d10766b738e02867403b78160001b61663d565b61936f7fefc1f3aeefb1679e32476ee8ebb9ea99fb954025407a94187b8762e5bcf8d4c860001b61663d565b61939b7ff9bca463705b854f82715e3c4c9a743a0020ea63efe5a63959c2b153c5c5bfa260001b61663d565b603a60405180604001604052808473ffffffffffffffffffffffffffffffffffffffff16815260200183151581525090806001816193d761967b565b0180826193e261973b565b505080915050600190039060005260206000200160009091909190915060008201518160000160006101000a8161941761967b565b8173ffffffffffffffffffffffffffffffffffffffff021916908373ffffffffffffffffffffffffffffffffffffffff1602179061945361973b565b50505060208201518160000160146101000a8161946e61967b565b8160ff0219169083151502179061948361973b565b50505050506194b47f9f00eb6b28045eaf42301807a55bd03f32dd51e626dbdccfa34fe13ae0dd4f9360001b61663d565b6194e07f56eed5e981911cf8a72557a0f986613d36e8e26847516355b43a70669042d5fe60001b61663d565b603a806194eb61967b565b9050603b60008473ffffffffffffffffffffffffffffffffffffffff1673ffffffffffffffffffffffffffffffffffffffff168152602001908152602001600020819061953661973b565b5050505b505050565b6000808311829061958f576040517f08c379a000000000000000000000000000000000000000000000000000000000815260040161957d919061aef5565b6040518091039061958c61960d565b50505b50600083858161959b57fe5b049050809150509392505050565b60008383111582906195fa576040517f08c379a00000000000000000000000000000000000000000000000000000000081526004016195e8919061aef5565b604051809103906195f761960d565b50505b5060008385039050809150509392505050565b632a2a7adb598160e01b8152600481016020815285602082015260005b8681101561964857808601518160408401015260208101905061962a565b506020828760640184336000905af158601d01573d60011458600c01573d6000803e3d621234565260ea61109c52505050565b6303daa959598160e01b8152836004820152602081602483336000905af158601d01573d60011458600c01573d6000803e3d621234565260ea61109c528051935060005b60408110156196d9576000818301526020810190506196bf565b505050565b6373509064598160e01b8152602081600483336000905af158601d01573d60011458600c01573d6000803e3d621234565260ea61109c528051935060005b60408110156197365760008183015260208101905061971c565b505050565b6322bd64c0598160e01b8152836004820152846024820152600081604483336000905af158601d01573d60011458600c01573d6000803e3d621234565260ea61109c5260005b604081101561979b57600081830152602081019050619781565b505050565b6040518060400160405280600073ffffffffffffffffffffffffffffffffffffffff1681526020016000151581525090565b638435035b598160e01b8152836004820152602081602483336000905af158601d01573d60011458600c01573d6000803e3d621234565260ea61109c528051935060005b604081101561983057600081830152602081019050619816565b505050565b638540661f598160e01b8152619874565b600081905081831115619857578290505b92915050565b60008190508183101561986e578290505b92915050565b836004820152846024820152606060448201528660648201526084810160005b888110156198af578088015181830152602081019050619894565b506060828960a40184336000905af158601d01573d60011458600c01573d6000803e3d621234565260ea61109c52815160408301513d6000853e8b8b82606087013350600060045af150596199048d3d61985d565b8c016199108187619846565b5b828110156199285760008152602081019050619911565b50839d5050505050505050565b828061993f61967b565b600181600116156101000203166002900490600052602060002090601f016020900481019282601f1061998657805160ff1916838001178561997f61973b565b50506199c6565b8280016001018561999561973b565b505082156199c6579182015b828111156199c5578251826199b461973b565b5050916020019190600101906199a1565b5b5090506199d39190619b34565b5090565b63bdbf8c36598160e01b8152602081600483336000905af158601d01573d60011458600c01573d6000803e3d621234565260ea61109c528051935060005b6040811015619a2f57600081830152602081019050619a15565b505050565b6385979f76598160e01b8152619a73565b600081905081831115619a56578290505b92915050565b600081905081831015619a6d578290505b92915050565b836004820152846024820152606060448201528760648201526084810160005b89811015619aae578089015181830152602081019050619a93565b506060828a60a40184336000905af158601d01573d60011458600c01573d6000803e3d621234565260ea61109c52815160408301513d6000853e8c8c82606087013350600060045af15059619b038e3d619a5c565b8d01619b0f8187619a45565b5b82811015619b275760008152602081019050619b10565b50839e5050505050505050565b5b80821115619b5657600081600090619b4b61973b565b505050600101619b35565b5090565b600081359050619b698161b4e6565b92915050565b600081519050619b7e8161b4e6565b92915050565b600082601f830112619b9e57600080619b9b61960d565b50505b8135619bb1619bac8261b251565b61b21b565b91508181835260208401935060208101905083856020840282011115619bdf57600080619bdc61960d565b50505b60005b83811015619c0f5781619bf58882619b5a565b845260208401935060208301925050600181019050619be2565b5050505092915050565b600082601f830112619c3357600080619c3061960d565b50505b8135619c46619c418261b282565b61b21b565b91508181835260208401935060208101905083856040840282011115619c7457600080619c7161960d565b50505b60005b83811015619ca45781619c8a8882619db9565b845260208401935060408301925050600181019050619c77565b5050505092915050565b600081359050619cbd8161b506565b92915050565b600081519050619cd28161b506565b92915050565b600081359050619ce78161b526565b92915050565b600082601f830112619d0757600080619d0461960d565b50505b8135619d1a619d158261b2b3565b61b21b565b91508082526020830160208301858383011115619d3f57600080619d3c61960d565b50505b619d4a83828461b493565b50505092915050565b600082601f830112619d6d57600080619d6a61960d565b50505b8135619d80619d7b8261b2e8565b61b21b565b91508082526020830160208301858383011115619da557600080619da261960d565b50505b619db083828461b493565b50505092915050565b600060408284031215619dd457600080619dd161960d565b50505b619dde604061b21b565b90506000619dee84828501619b5a565b6000830152506020619e0284828501619cae565b60208301525092915050565b600081359050619e1d8161b546565b92915050565b600081519050619e328161b546565b92915050565b600081359050619e478161b566565b92915050565b600081519050619e5c8161b566565b92915050565b600060208284031215619e7d57600080619e7a61960d565b50505b6000619e8b84828501619b5a565b91505092915050565b600060208284031215619eaf57600080619eac61960d565b50505b6000619ebd84828501619b6f565b91505092915050565b60008060008060808587031215619ee557600080619ee261960d565b50505b6000619ef387828801619b5a565b9450506020619f0487828801619b5a565b935050604085013567ffffffffffffffff811115619f2a57600080619f2761960d565b50505b619f3687828801619d53565b925050606085013567ffffffffffffffff811115619f5c57600080619f5961960d565b50505b619f6887828801619c19565b91505092959194509250565b60008060408385031215619f9057600080619f8d61960d565b50505b6000619f9e85828601619b5a565b925050602083013567ffffffffffffffff811115619fc457600080619fc161960d565b50505b619fd085828601619ced565b9150509250929050565b60008060408385031215619ff657600080619ff361960d565b50505b600061a00485828601619b5a565b925050602083013567ffffffffffffffff81111561a02a5760008061a02761960d565b50505b61a03685828601619d53565b9150509250929050565b6000806040838503121561a05c5760008061a05961960d565b50505b600061a06a85828601619b5a565b925050602061a07b85828601619e0e565b9150509250929050565b60006020828403121561a0a05760008061a09d61960d565b50505b600082013567ffffffffffffffff81111561a0c35760008061a0c061960d565b50505b61a0cf84828501619b84565b91505092915050565b6000806040838503121561a0f45760008061a0f161960d565b50505b600083013567ffffffffffffffff81111561a1175760008061a11461960d565b50505b61a12385828601619c19565b925050602083013567ffffffffffffffff81111561a1495760008061a14661960d565b50505b61a15585828601619c19565b9150509250929050565b60006020828403121561a17a5760008061a17761960d565b50505b600061a18884828501619cc3565b91505092915050565b60006020828403121561a1ac5760008061a1a961960d565b50505b600061a1ba84828501619cd8565b91505092915050565b60006020828403121561a1de5760008061a1db61960d565b50505b600082013567ffffffffffffffff81111561a2015760008061a1fe61960d565b50505b61a20d84828501619ced565b91505092915050565b60008060006060848603121561a2345760008061a23161960d565b50505b600084013567ffffffffffffffff81111561a2575760008061a25461960d565b50505b61a26386828701619ced565b935050602061a27486828701619e0e565b925050604061a28586828701619e0e565b9150509250925092565b6000806040838503121561a2ab5760008061a2a861960d565b50505b600083013567ffffffffffffffff81111561a2ce5760008061a2cb61960d565b50505b61a2da85828601619ced565b925050602061a2eb85828601619e38565b9150509250929050565b60008060006060848603121561a3135760008061a31061960d565b50505b600084013567ffffffffffffffff81111561a3365760008061a33361960d565b50505b61a34286828701619ced565b935050602061a35386828701619e38565b925050604061a36486828701619e38565b9150509250925092565b60006020828403121561a3895760008061a38661960d565b50505b600061a39784828501619e0e565b91505092915050565b60006020828403121561a3bb5760008061a3b861960d565b50505b600061a3c984828501619e23565b91505092915050565b6000806040838503121561a3ee5760008061a3eb61960d565b50505b600061a3fc85828601619e23565b925050602061a40d85828601619e23565b9150509250929050565b60006020828403121561a4325760008061a42f61960d565b50505b600061a44084828501619e4d565b91505092915050565b600061a455838361a488565b60208301905092915050565b600061a46d838361ac4a565b60208301905092915050565b61a4828161b45d565b82525050565b61a4918161b3d2565b82525050565b61a4a08161b3d2565b82525050565b600061a4b18261b33d565b61a4bb818561b383565b935061a4c68361b31d565b8060005b8381101561a4f757815161a4de888261a449565b975061a4e98361b369565b92505060018101905061a4ca565b5085935050505092915050565b600061a50f8261b348565b61a519818561b394565b935061a5248361b32d565b8060005b8381101561a55557815161a53c888261a461565b975061a5478361b376565b92505060018101905061a528565b5085935050505092915050565b61a56b8161b3e4565b82525050565b61a57a8161b3f0565b82525050565b61a5898161b3fa565b82525050565b600061a59a8261b353565b61a5a4818561b3a5565b935061a5b481856020860161b4a2565b61a5bd8161b4d5565b840191505092915050565b600061a5d38261b353565b61a5dd818561b3b6565b935061a5ed81856020860161b4a2565b80840191505092915050565b600061a6048261b35e565b61a60e818561b3c1565b935061a61e81856020860161b4a2565b61a6278161b4d5565b840191505092915050565b600061a63f60168361b3c1565b91507f696e76616c696420617272617920706f736974696f6e000000000000000000006000830152602082019050919050565b600061a67f600d8361b3c1565b91507f696e76616c6964206173736574000000000000000000000000000000000000006000830152602082019050919050565b600061a6bf601b8361b3c1565b91507f536166654d6174683a206164646974696f6e206f766572666c6f7700000000006000830152602082019050919050565b600061a6ff60138361b3c1565b91507f696e76616c6964207472616e73616374696f6e000000000000000000000000006000830152602082019050919050565b600061a73f601d8361b3c1565b91507f63616e6e6f742072656d6f7665206e6f6e2d656d7074792061737365740000006000830152602082019050919050565b600061a77f600c8361b3c1565b91507f6f6e6c79206d616e6167657200000000000000000000000000000000000000006000830152602082019050919050565b600061a7bf60128361b3c1565b91507f696e76616c696420706f6f6c206c6f67696300000000000000000000000000006000830152602082019050919050565b600061a7ff60238361b3c1565b91507f6f6e6c792044414f206f7220666163746f7279206164647265737320616c6c6f60008301527f77656400000000000000000000000000000000000000000000000000000000006020830152604082019050919050565b600061a86560228361b3c1565b91507f72657175697265206174206c65617374206f6e65206465706f7369742061737360008301527f65740000000000000000000000000000000000000000000000000000000000006020830152604082019050919050565b600061a8cb60168361b3c1565b91507f6f6e6c79206d616e61676572206f7220747261646572000000000000000000006000830152602082019050919050565b600061a90b60108361b3c1565b91507f696e76616c6964206672616374696f6e000000000000000000000000000000006000830152602082019050919050565b600061a94b601b8361b3c1565b91507f52656164696e67206279746573206f7574206f6620626f756e647300000000006000830152602082019050919050565b600061a98b60138361b3c1565b91507f696e76616c69642064657374696e6174696f6e000000000000000000000000006000830152602082019050919050565b600061a9cb60218361b3c1565b91507f536166654d6174683a206d756c7469706c69636174696f6e206f766572666c6f60008301527f77000000000000000000000000000000000000000000000000000000000000006020830152604082019050919050565b600061aa3160198361b3c1565b91507f66656520696e6372656173652064656c617920616374697665000000000000006000830152602082019050919050565b600061aa71602e8361b3c1565b91507f436f6e747261637420696e7374616e63652068617320616c726561647920626560008301527f656e20696e697469616c697a65640000000000000000000000000000000000006020830152604082019050919050565b600061aad760138361b3c1565b91507f6173736574206e6f7420737570706f72746564000000000000000000000000006000830152602082019050919050565b600061ab1760198361b3c1565b91507f657863656564656420616c6c6f77656420696e637265617365000000000000006000830152602082019050919050565b600061ab5760128361b3c1565b91507f696e707574206973206e6f7420617272617900000000000000000000000000006000830152602082019050919050565b600061ab97601a8361b3c1565b91507f6661696c656420746f2065786563757465207468652063616c6c0000000000006000830152602082019050919050565b600061abd7601c8361b3c1565b91507f6e6f6e2d7a65726f2061646472657373206973207265717569726564000000006000830152602082019050919050565b600061ac1760168361b3c1565b91507f6d6178696d756d206173736574732072656163686564000000000000000000006000830152602082019050919050565b61ac538161b446565b82525050565b61ac628161b446565b82525050565b600061ac74828461a5c8565b915081905092915050565b600060208201905061ac94600083018461a497565b92915050565b600060408201905061acaf600083018561a497565b61acbc602083018461a479565b9392505050565b600060808201905061acd8600083018761a497565b61ace5602083018661a497565b61acf2604083018561a497565b61acff606083018461a562565b95945050505050565b600060608201905061ad1d600083018661a497565b61ad2a602083018561a497565b61ad37604083018461ac59565b949350505050565b600060808201905061ad54600083018761a497565b61ad61602083018661a497565b61ad6e604083018561ac59565b61ad7b606083018461ac59565b95945050505050565b600060408201905061ad99600083018561a497565b61ada6602083018461a562565b9392505050565b600060408201905061adc2600083018561a497565b818103602083015261add4818461a58f565b90509392505050565b600060408201905061adf2600083018561a497565b818103602083015261ae04818461a5f9565b90509392505050565b600060408201905061ae22600083018561a497565b61ae2f602083018461ac59565b9392505050565b6000602082019050818103600083015261ae50818461a4a6565b905092915050565b6000606082019050818103600083015261ae72818661a4a6565b9050818103602083015261ae86818561a504565b9050818103604083015261ae9a818461a504565b9050949350505050565b600060208201905061aeb9600083018461a562565b92915050565b600060208201905061aed4600083018461a571565b92915050565b600060208201905061aeef600083018461a580565b92915050565b6000602082019050818103600083015261af0f818461a5f9565b905092915050565b6000602082019050818103600083015261af308161a632565b9050919050565b6000602082019050818103600083015261af508161a672565b9050919050565b6000602082019050818103600083015261af708161a6b2565b9050919050565b6000602082019050818103600083015261af908161a6f2565b9050919050565b6000602082019050818103600083015261afb08161a732565b9050919050565b6000602082019050818103600083015261afd08161a772565b9050919050565b6000602082019050818103600083015261aff08161a7b2565b9050919050565b6000602082019050818103600083015261b0108161a7f2565b9050919050565b6000602082019050818103600083015261b0308161a858565b9050919050565b6000602082019050818103600083015261b0508161a8be565b9050919050565b6000602082019050818103600083015261b0708161a8fe565b9050919050565b6000602082019050818103600083015261b0908161a93e565b9050919050565b6000602082019050818103600083015261b0b08161a97e565b9050919050565b6000602082019050818103600083015261b0d08161a9be565b9050919050565b6000602082019050818103600083015261b0f08161aa24565b9050919050565b6000602082019050818103600083015261b1108161aa64565b9050919050565b6000602082019050818103600083015261b1308161aaca565b9050919050565b6000602082019050818103600083015261b1508161ab0a565b9050919050565b6000602082019050818103600083015261b1708161ab4a565b9050919050565b6000602082019050818103600083015261b1908161ab8a565b9050919050565b6000602082019050818103600083015261b1b08161abca565b9050919050565b6000602082019050818103600083015261b1d08161ac0a565b9050919050565b600060208201905061b1ec600083018461ac59565b92915050565b600060408201905061b207600083018561ac59565b61b214602083018461ac59565b9392505050565b6000604051905081810181811067ffffffffffffffff8211171561b2475760008061b24461960d565b50505b8060405250919050565b600067ffffffffffffffff82111561b2715760008061b26e61960d565b50505b602082029050602081019050919050565b600067ffffffffffffffff82111561b2a25760008061b29f61960d565b50505b602082029050602081019050919050565b600067ffffffffffffffff82111561b2d35760008061b2d061960d565b50505b601f19601f8301169050602081019050919050565b600067ffffffffffffffff82111561b3085760008061b30561960d565b50505b601f19601f8301169050602081019050919050565b6000819050602082019050919050565b6000819050602082019050919050565b600081519050919050565b600081519050919050565b600081519050919050565b600081519050919050565b6000602082019050919050565b6000602082019050919050565b600082825260208201905092915050565b600082825260208201905092915050565b600082825260208201905092915050565b600081905092915050565b600082825260208201905092915050565b600061b3dd8261b426565b9050919050565b60008115159050919050565b6000819050919050565b60007fffffffff0000000000000000000000000000000000000000000000000000000082169050919050565b600073ffffffffffffffffffffffffffffffffffffffff82169050919050565b6000819050919050565b600060ff82169050919050565b600061b4688261b46f565b9050919050565b600061b47a8261b481565b9050919050565b600061b48c8261b426565b9050919050565b82818337600083830152505050565b60005b8381101561b4c057808201518184015260208101905061b4a5565b8381111561b4cf576000848401525b50505050565b6000601f19601f8301169050919050565b61b4ef8161b3d2565b811461b5035760008061b50061960d565b50505b50565b61b50f8161b3e4565b811461b5235760008061b52061960d565b50505b50565b61b52f8161b3f0565b811461b5435760008061b54061960d565b50505b50565b61b54f8161b446565b811461b5635760008061b56061960d565b50505b50565b61b56f8161b450565b811461b5835760008061b58061960d565b50505b5056",
  "linkReferences": {},
  "deployedLinkReferences": {}
}