{
  "_format": "hh-sol-artifact-1",
  "contractName": "PoolManagerLogic",
  "sourceName": "contracts/PoolManagerLogic.sol",
  "abi": [
    {
      "anonymous": false,
      "inputs": [
        {
          "indexed": false,
          "internalType": "address",
          "name": "fundAddress",
          "type": "address"
        },
        {
          "indexed": false,
          "internalType": "address",
          "name": "manager",
          "type": "address"
        },
        {
          "indexed": false,
          "internalType": "address",
          "name": "asset",
          "type": "address"
        }
      ],
      "name": "AssetAdded",
      "type": "event"
    },
    {
      "anonymous": false,
      "inputs": [
        {
          "indexed": false,
          "internalType": "address",
          "name": "fundAddress",
          "type": "address"
        },
        {
          "indexed": false,
          "internalType": "address",
          "name": "manager",
          "type": "address"
        },
        {
          "indexed": false,
          "internalType": "address",
          "name": "asset",
          "type": "address"
        }
      ],
      "name": "AssetRemoved",
      "type": "event"
    },
    {
      "anonymous": false,
      "inputs": [
        {
          "indexed": false,
          "internalType": "uint256",
          "name": "newNumerator",
          "type": "uint256"
        },
        {
          "indexed": false,
          "internalType": "uint256",
          "name": "announcedFeeActivationTime",
          "type": "uint256"
        }
      ],
      "name": "ManagerFeeIncreaseAnnounced",
      "type": "event"
    },
    {
      "anonymous": false,
      "inputs": [],
      "name": "ManagerFeeIncreaseRenounced",
      "type": "event"
    },
    {
      "anonymous": false,
      "inputs": [
        {
          "indexed": false,
          "internalType": "address",
          "name": "fundAddress",
          "type": "address"
        },
        {
          "indexed": false,
          "internalType": "address",
          "name": "manager",
          "type": "address"
        },
        {
          "indexed": false,
          "internalType": "uint256",
          "name": "numerator",
          "type": "uint256"
        },
        {
          "indexed": false,
          "internalType": "uint256",
          "name": "denominator",
          "type": "uint256"
        }
      ],
      "name": "ManagerFeeSet",
      "type": "event"
    },
    {
      "anonymous": false,
      "inputs": [
        {
          "indexed": false,
          "internalType": "address",
          "name": "newManager",
          "type": "address"
        },
        {
          "indexed": false,
          "internalType": "string",
          "name": "newManagerName",
          "type": "string"
        }
      ],
      "name": "ManagerUpdated",
      "type": "event"
    },
    {
      "anonymous": false,
      "inputs": [
        {
          "indexed": false,
          "internalType": "address",
          "name": "fundAddress",
          "type": "address"
        },
        {
          "indexed": false,
          "internalType": "address",
          "name": "manager",
          "type": "address"
        },
        {
          "indexed": false,
          "internalType": "uint256",
          "name": "time",
          "type": "uint256"
        }
      ],
      "name": "TransactionExecuted",
      "type": "event"
    },
    {
      "inputs": [
        {
          "internalType": "address",
          "name": "member",
          "type": "address"
        }
      ],
      "name": "addMember",
      "outputs": [],
      "stateMutability": "nonpayable",
      "type": "function"
    },
    {
      "inputs": [
        {
          "internalType": "address[]",
          "name": "members",
          "type": "address[]"
        }
      ],
      "name": "addMembers",
      "outputs": [],
      "stateMutability": "nonpayable",
      "type": "function"
    },
    {
      "inputs": [
        {
          "internalType": "address",
          "name": "asset",
          "type": "address"
        }
      ],
      "name": "addToSupportedAssets",
      "outputs": [],
      "stateMutability": "nonpayable",
      "type": "function"
    },
    {
      "inputs": [
        {
          "internalType": "address",
          "name": "pool",
          "type": "address"
        },
        {
          "internalType": "uint256",
          "name": "numerator",
          "type": "uint256"
        }
      ],
      "name": "announceManagerFeeIncrease",
      "outputs": [],
      "stateMutability": "nonpayable",
      "type": "function"
    },
    {
      "inputs": [],
      "name": "announcedFeeIncreaseNumerator",
      "outputs": [
        {
          "internalType": "uint256",
          "name": "",
          "type": "uint256"
        }
      ],
      "stateMutability": "view",
      "type": "function"
    },
    {
      "inputs": [],
      "name": "announcedFeeIncreaseTimestamp",
      "outputs": [
        {
          "internalType": "uint256",
          "name": "",
          "type": "uint256"
        }
      ],
      "stateMutability": "view",
      "type": "function"
    },
    {
      "inputs": [
        {
          "internalType": "address",
          "name": "asset",
          "type": "address"
        }
      ],
      "name": "assetBalance",
      "outputs": [
        {
          "internalType": "uint256",
          "name": "",
          "type": "uint256"
        }
      ],
      "stateMutability": "view",
      "type": "function"
    },
    {
      "inputs": [
        {
          "internalType": "address",
          "name": "",
          "type": "address"
        }
      ],
      "name": "assetPosition",
      "outputs": [
        {
          "internalType": "uint256",
          "name": "",
          "type": "uint256"
        }
      ],
      "stateMutability": "view",
      "type": "function"
    },
    {
      "inputs": [
        {
          "internalType": "address",
          "name": "asset",
          "type": "address"
        },
        {
          "internalType": "uint256",
          "name": "amount",
          "type": "uint256"
        }
      ],
      "name": "assetValue",
      "outputs": [
        {
          "internalType": "uint256",
          "name": "",
          "type": "uint256"
        }
      ],
      "stateMutability": "view",
      "type": "function"
    },
    {
      "inputs": [
        {
          "internalType": "address",
          "name": "asset",
          "type": "address"
        }
      ],
      "name": "assetValue",
      "outputs": [
        {
          "internalType": "uint256",
          "name": "",
          "type": "uint256"
        }
      ],
      "stateMutability": "view",
      "type": "function"
    },
    {
      "inputs": [
        {
          "internalType": "address",
          "name": "newManager",
          "type": "address"
        },
        {
          "internalType": "string",
          "name": "newManagerName",
          "type": "string"
        }
      ],
      "name": "changeManager",
      "outputs": [],
      "stateMutability": "nonpayable",
      "type": "function"
    },
    {
      "inputs": [
        {
          "internalType": "address",
          "name": "pool",
          "type": "address"
        }
      ],
      "name": "commitManagerFeeIncrease",
      "outputs": [],
      "stateMutability": "nonpayable",
      "type": "function"
    },
    {
      "inputs": [
        {
          "internalType": "address",
          "name": "to",
          "type": "address"
        },
        {
          "internalType": "bytes",
          "name": "data",
          "type": "bytes"
        }
      ],
      "name": "execTransaction",
      "outputs": [
        {
          "internalType": "bool",
          "name": "",
          "type": "bool"
        }
      ],
      "stateMutability": "nonpayable",
      "type": "function"
    },
    {
      "inputs": [],
      "name": "factory",
      "outputs": [
        {
          "internalType": "address",
          "name": "",
          "type": "address"
        }
      ],
      "stateMutability": "view",
      "type": "function"
    },
    {
      "inputs": [],
      "name": "getFundComposition",
      "outputs": [
        {
          "internalType": "address[]",
          "name": "",
          "type": "address[]"
        },
        {
          "internalType": "uint256[]",
          "name": "",
          "type": "uint256[]"
        },
        {
          "internalType": "uint256[]",
          "name": "",
          "type": "uint256[]"
        }
      ],
      "stateMutability": "view",
      "type": "function"
    },
    {
      "inputs": [
        {
          "internalType": "address",
          "name": "pool",
          "type": "address"
        }
      ],
      "name": "getManagerFee",
      "outputs": [
        {
          "internalType": "uint256",
          "name": "",
          "type": "uint256"
        },
        {
          "internalType": "uint256",
          "name": "",
          "type": "uint256"
        }
      ],
      "stateMutability": "view",
      "type": "function"
    },
    {
      "inputs": [],
      "name": "getManagerFeeIncreaseInfo",
      "outputs": [
        {
          "internalType": "uint256",
          "name": "",
          "type": "uint256"
        },
        {
          "internalType": "uint256",
          "name": "",
          "type": "uint256"
        }
      ],
      "stateMutability": "view",
      "type": "function"
    },
    {
      "inputs": [],
      "name": "getMembers",
      "outputs": [
        {
          "internalType": "address[]",
          "name": "",
          "type": "address[]"
        }
      ],
      "stateMutability": "view",
      "type": "function"
    },
    {
      "inputs": [],
      "name": "getSupportedAssets",
      "outputs": [
        {
          "internalType": "address[]",
          "name": "",
          "type": "address[]"
        }
      ],
      "stateMutability": "view",
      "type": "function"
    },
    {
      "inputs": [
        {
          "internalType": "address",
          "name": "_factory",
          "type": "address"
        },
        {
          "internalType": "address",
          "name": "_manager",
          "type": "address"
        },
        {
          "internalType": "string",
          "name": "_managerName",
          "type": "string"
        },
        {
          "internalType": "address[]",
          "name": "_supportedAssets",
          "type": "address[]"
        }
      ],
      "name": "initialize",
      "outputs": [],
      "stateMutability": "nonpayable",
      "type": "function"
    },
    {
      "inputs": [
        {
          "internalType": "address",
          "name": "asset",
          "type": "address"
        }
      ],
      "name": "isAssetSupported",
      "outputs": [
        {
          "internalType": "bool",
          "name": "",
          "type": "bool"
        }
      ],
      "stateMutability": "view",
      "type": "function"
    },
    {
      "inputs": [
        {
          "internalType": "address",
          "name": "member",
          "type": "address"
        }
      ],
      "name": "isMemberAllowed",
      "outputs": [
        {
          "internalType": "bool",
          "name": "",
          "type": "bool"
        }
      ],
      "stateMutability": "view",
      "type": "function"
    },
    {
      "inputs": [],
      "name": "manager",
      "outputs": [
        {
          "internalType": "address",
          "name": "",
          "type": "address"
        }
      ],
      "stateMutability": "view",
      "type": "function"
    },
    {
      "inputs": [],
      "name": "managerName",
      "outputs": [
        {
          "internalType": "string",
          "name": "",
          "type": "string"
        }
      ],
      "stateMutability": "view",
      "type": "function"
    },
    {
      "inputs": [],
      "name": "numberOfMembers",
      "outputs": [
        {
          "internalType": "uint256",
          "name": "",
          "type": "uint256"
        }
      ],
      "stateMutability": "view",
      "type": "function"
    },
    {
      "inputs": [],
      "name": "numberOfSupportedAssets",
      "outputs": [
        {
          "internalType": "uint256",
          "name": "",
          "type": "uint256"
        }
      ],
      "stateMutability": "view",
      "type": "function"
    },
    {
      "inputs": [
        {
          "internalType": "address",
          "name": "",
          "type": "address"
        }
      ],
      "name": "persistentAsset",
      "outputs": [
        {
          "internalType": "bool",
          "name": "",
          "type": "bool"
        }
      ],
      "stateMutability": "view",
      "type": "function"
    },
    {
      "inputs": [
        {
          "internalType": "address",
          "name": "asset",
          "type": "address"
        }
      ],
      "name": "removeFromSupportedAssets",
      "outputs": [],
      "stateMutability": "nonpayable",
      "type": "function"
    },
    {
      "inputs": [
        {
          "internalType": "address",
          "name": "member",
          "type": "address"
        }
      ],
      "name": "removeMember",
      "outputs": [],
      "stateMutability": "nonpayable",
      "type": "function"
    },
    {
      "inputs": [
        {
          "internalType": "address[]",
          "name": "members",
          "type": "address[]"
        }
      ],
      "name": "removeMembers",
      "outputs": [],
      "stateMutability": "nonpayable",
      "type": "function"
    },
    {
      "inputs": [],
      "name": "removeTrader",
      "outputs": [],
      "stateMutability": "nonpayable",
      "type": "function"
    },
    {
      "inputs": [],
      "name": "renounceManagerFeeIncrease",
      "outputs": [],
      "stateMutability": "nonpayable",
      "type": "function"
    },
    {
      "inputs": [
        {
          "internalType": "address",
          "name": "newTrader",
          "type": "address"
        }
      ],
      "name": "setTrader",
      "outputs": [],
      "stateMutability": "nonpayable",
      "type": "function"
    },
    {
      "inputs": [
        {
          "internalType": "uint256",
          "name": "",
          "type": "uint256"
        }
      ],
      "name": "supportedAssets",
      "outputs": [
        {
          "internalType": "address",
          "name": "",
          "type": "address"
        }
      ],
      "stateMutability": "view",
      "type": "function"
    },
    {
      "inputs": [],
      "name": "trader",
      "outputs": [
        {
          "internalType": "address",
          "name": "",
          "type": "address"
        }
      ],
      "stateMutability": "view",
      "type": "function"
    },
    {
      "inputs": [
        {
          "internalType": "address",
          "name": "asset",
          "type": "address"
        }
      ],
      "name": "validateAsset",
      "outputs": [
        {
          "internalType": "bool",
          "name": "",
          "type": "bool"
        }
      ],
      "stateMutability": "view",
      "type": "function"
    }
  ],
  "bytecode": "0x608060405234801561001057600080fd5b50612b0d806100206000396000f3fe608060405234801561001057600080fd5b506004361061021c5760003560e01c80639240d29911610125578063c688aa64116100ad578063d8af8ed41161007c578063d8af8ed41461096a578063e5406dbf14610990578063ed5b165d14610998578063f09d14d7146109a0578063fed4416a14610a865761021c565b8063c688aa64146107c2578063c68dbb3714610901578063ca6d56dc1461091e578063cd88e558146109445761021c565b8063a30e3fa9116100f4578063a30e3fa91461075e578063a6bc18f914610766578063b8bd81e61461078c578063bbbf725b14610794578063c45a0155146107ba5761021c565b80639240d299146106b2578063936553c4146106d8578063969eed27146106e05780639eab5253146107065761021c565b806352213663116101a85780637ae7cfb5116101775780637ae7cfb5146105c05780637b4d0c63146106745780637c8afd511461067c57806380dd4f62146106845780638f323439146106aa5761021c565b806352213663146104005780635f6eceab146104b45780636708f5d7146104f35780636f4d469b1461051f5761021c565b806329c07fba116101ef57806329c07fba146102b95780633c570d7d146102f7578063464b41581461031d57806346ee84b014610357578063481c6a75146103f85761021c565b80630646858714610221578063093b8825146102495780630b1ca49a1461026f5780631758078b14610295575b600080fd5b6102476004803603602081101561023757600080fd5b50356001600160a01b0316610b03565b005b6102476004803603602081101561025f57600080fd5b50356001600160a01b0316610dad565b6102476004803603602081101561028557600080fd5b50356001600160a01b0316610e23565b61029d610e8c565b604080516001600160a01b039092168252519081900360200190f35b6102e5600480360360408110156102cf57600080fd5b506001600160a01b038135169060200135610e9b565b60408051918252519081900360200190f35b6102e56004803603602081101561030d57600080fd5b50356001600160a01b0316610fb0565b6103436004803603602081101561033357600080fd5b50356001600160a01b0316610fc2565b604080519115158252519081900360200190f35b6102476004803603602081101561036d57600080fd5b810190602081018135600160201b81111561038757600080fd5b82018360208201111561039957600080fd5b803590602001918460208302840111600160201b831117156103ba57600080fd5b919080806020026020016040519081016040528093929190818152602001838360200280828437600092019190915250929550610fdf945050505050565b61029d611086565b6102476004803603604081101561041657600080fd5b6001600160a01b038235169190810190604081016020820135600160201b81111561044057600080fd5b82018360208201111561045257600080fd5b803590602001918460018302840111600160201b8311171561047357600080fd5b91908080601f016020809104026020016040519081016040528093929190818152602001838380828437600092019190915250929550611095945050505050565b6104da600480360360208110156104ca57600080fd5b50356001600160a01b03166111c0565b6040805192835260208301919091528051918290030190f35b6102476004803603604081101561050957600080fd5b506001600160a01b03813516906020013561124a565b6102476004803603602081101561053557600080fd5b810190602081018135600160201b81111561054f57600080fd5b82018360208201111561056157600080fd5b803590602001918460208302840111600160201b8311171561058257600080fd5b919080806020026020016040519081016040528093929190818152602001838360200280828437600092019190915250929550611485945050505050565b610343600480360360408110156105d657600080fd5b6001600160a01b038235169190810190604081016020820135600160201b81111561060057600080fd5b82018360208201111561061257600080fd5b803590602001918460018302840111600160201b8311171561063357600080fd5b91908080601f01602080910402602001604051908101604052809392919081815260200183838082843760009201919091525092955061151c945050505050565b6102e5611938565b61024761193e565b6103436004803603602081101561069a57600080fd5b50356001600160a01b031661199e565b6102e56119b3565b610343600480360360208110156106c857600080fd5b50356001600160a01b03166119b9565b6102e5611a3c565b610247600480360360208110156106f657600080fd5b50356001600160a01b0316611a42565b61070e611b00565b60408051602080825283518183015283519192839290830191858101910280838360005b8381101561074a578181015183820152602001610732565b505050509050019250505060405180910390f35b6102e5611b62565b6102476004803603602081101561077c57600080fd5b50356001600160a01b0316611b68565b610247611bd8565b610343600480360360208110156107aa57600080fd5b50356001600160a01b0316611c5b565b61029d611c78565b610247600480360360808110156107d857600080fd5b6001600160a01b038235811692602081013590911691810190606081016040820135600160201b81111561080b57600080fd5b82018360208201111561081d57600080fd5b803590602001918460018302840111600160201b8311171561083e57600080fd5b91908080601f0160208091040260200160405190810160405280939291908181526020018383808284376000920191909152509295949360208101935035915050600160201b81111561089057600080fd5b8201836020820111156108a257600080fd5b803590602001918460208302840111600160201b831117156108c357600080fd5b919080806020026020016040519081016040528093929190818152602001838360200280828437600092019190915250929550611c87945050505050565b61029d6004803603602081101561091757600080fd5b5035611d89565b6102476004803603602081101561093457600080fd5b50356001600160a01b0316611db0565b6102e56004803603602081101561095a57600080fd5b50356001600160a01b0316611e1a565b6102e56004803603602081101561098057600080fd5b50356001600160a01b0316611e69565b61070e611e7d565b6104da611edd565b6109a8611ee7565b60405180806020018060200180602001848103845287818151815260200191508051906020019060200280838360005b838110156109f05781810151838201526020016109d8565b50505050905001848103835286818151815260200191508051906020019060200280838360005b83811015610a2f578181015183820152602001610a17565b50505050905001848103825285818151815260200191508051906020019060200280838360005b83811015610a6e578181015183820152602001610a56565b50505050905001965050505050505060405180910390f35b610a8e6120d9565b6040805160208082528351818301528351919283929083019185019080838360005b83811015610ac8578181015183820152602001610ab0565b50505050905090810190601f168015610af55780820380516001836020036101000a031916815260200191505b509250505060405180910390f35b603860009054906101000a90046001600160a01b03166001600160a01b0316638da5cb5b6040518163ffffffff1660e01b815260040160206040518083038186803b158015610b5157600080fd5b505afa158015610b65573d6000803e3d6000fd5b505050506040513d6020811015610b7b57600080fd5b50516001600160a01b0316331480610bab5750610b96611086565b6001600160a01b0316336001600160a01b0316145b80610bce5750610bb9610e8c565b6001600160a01b0316336001600160a01b0316145b610c1f576040805162461bcd60e51b815260206004820152601b60248201527f6f6e6c79206d616e616765722c20747261646572206f722044414f0000000000604482015290519081900360640190fd5b610c2881610fc2565b610c6f576040805162461bcd60e51b8152602060048201526013602482015272185cdcd95d081b9bdd081cdd5c1c1bdc9d1959606a1b604482015290519081900360640190fd5b6001600160a01b0381166000908152603b602052604090205460ff1615610cdd576040805162461bcd60e51b815260206004820152601f60248201527f63616e6e6f742072656d6f76652070657273697374656e742061737365747300604482015290519081900360640190fd5b604080516370a0823160e01b815230600482015290516001600160a01b038316916370a08231916024808301926020929190829003018186803b158015610d2357600080fd5b505afa158015610d37573d6000803e3d6000fd5b505050506040513d6020811015610d4d57600080fd5b505115610da1576040805162461bcd60e51b815260206004820152601d60248201527f63616e6e6f742072656d6f7665206e6f6e2d656d707479206173736574000000604482015290519081900360640190fd5b610daa81612166565b50565b6033546001600160a01b0316331480610dd057506037546001600160a01b031633145b610e1a576040805162461bcd60e51b815260206004820152601660248201527537b7363c9036b0b730b3b2b91037b9103a3930b232b960511b604482015290519081900360640190fd5b610daa816122b4565b6033546001600160a01b03163314610e71576040805162461bcd60e51b815260206004820152600c60248201526b37b7363c9036b0b730b3b2b960a11b604482015290519081900360640190fd5b610e7a81611c5b565b610e8357610daa565b610daa816124d8565b6037546001600160a01b031690565b60385460408051638b2f0f4f60e01b81526001600160a01b038581166004830152915160009384931691638b2f0f4f916024808301926020929190829003018186803b158015610eea57600080fd5b505afa158015610efe573d6000803e3d6000fd5b505050506040513d6020811015610f1457600080fd5b50516040805163313ce56760e01b815290519192506000916001600160a01b0387169163313ce567916004808301926020929190829003018186803b158015610f5c57600080fd5b505afa158015610f70573d6000803e3d6000fd5b505050506040513d6020811015610f8657600080fd5b505160ff169050610fa5600a82900a610f9f84876125d1565b90612631565b925050505b92915050565b603a6020526000908152604090205481565b6001600160a01b03166000908152603a6020526040902054151590565b6033546001600160a01b0316331461102d576040805162461bcd60e51b815260206004820152600c60248201526b37b7363c9036b0b730b3b2b960a11b604482015290519081900360640190fd5b60005b81518110156110825761105582828151811061104857fe5b6020026020010151611c5b565b61105e5761107a565b61107a82828151811061106d57fe5b60200260200101516124d8565b600101611030565b5050565b6033546001600160a01b031690565b6033546001600160a01b031633146110e3576040805162461bcd60e51b815260206004820152600c60248201526b37b7363c9036b0b730b3b2b960a11b604482015290519081900360640190fd5b603380546001600160a01b0319166001600160a01b03841617905580516111119060349060208401906129f5565b507f6ed15082ad038474841528b5badca105106d4463e44b5d434130dfb299aa3669828260405180836001600160a01b0316815260200180602001828103825283818151815260200191508051906020019080838360005b83811015611181578181015183820152602001611169565b50505050905090810190601f1680156111ae5780820380516001836020036101000a031916815260200191505b50935050505060405180910390a15050565b60385460408051635bd2a29360e11b81526001600160a01b0384811660048301528251600094859492169263b7a54526926024808301939192829003018186803b15801561120d57600080fd5b505afa158015611221573d6000803e3d6000fd5b505050506040513d604081101561123757600080fd5b5080516020909101519092509050915091565b6033546001600160a01b03163314611298576040805162461bcd60e51b815260206004820152600c60248201526b37b7363c9036b0b730b3b2b960a11b604482015290519081900360640190fd5b60385460408051635c9bfc2b60e01b815290516000926001600160a01b031691635c9bfc2b916004808301926020929190829003018186803b1580156112dd57600080fd5b505afa1580156112f1573d6000803e3d6000fd5b505050506040513d602081101561130757600080fd5b50519050600080611317856111c0565b909250905080841115611364576040805162461bcd60e51b815260206004820152601060248201526f34b73b30b634b210333930b1ba34b7b760811b604482015290519081900360640190fd5b61136e8284612673565b8411156113c2576040805162461bcd60e51b815260206004820152601960248201527f657863656564656420616c6c6f77656420696e63726561736500000000000000604482015290519081900360640190fd5b6038546040805163ebee461d60e01b815290516000926001600160a01b03169163ebee461d916004808301926020929190829003018186803b15801561140757600080fd5b505afa15801561141b573d6000803e3d6000fd5b505050506040513d602081101561143157600080fd5b5051603c869055428101603d81905560408051888152602081019290925280519293507f4db9119741646c419f1ceccdf112b5b9a9b4516355e742e1fa9c479f4dec98da92918290030190a1505050505050565b6033546001600160a01b031633146114d3576040805162461bcd60e51b815260206004820152600c60248201526b37b7363c9036b0b730b3b2b960a11b604482015290519081900360640190fd5b60005b8151811015611082576114ee82828151811061104857fe5b156114f857611514565b61151482828151811061150757fe5b60200260200101516126cd565b6001016114d6565b6033546000906001600160a01b031633148061154257506037546001600160a01b031633145b61158c576040805162461bcd60e51b815260206004820152601660248201527537b7363c9036b0b730b3b2b91037b9103a3930b232b960511b604482015290519081900360640190fd5b6001600160a01b0383166115e7576040805162461bcd60e51b815260206004820152601c60248201527f6e6f6e2d7a65726f206164647265737320697320726571756972656400000000604482015290519081900360640190fd5b60385460408051631c09fa9b60e21b81526001600160a01b03868116600483015291516000939290921691637027ea6c91602480820192602092909190829003018186803b15801561163857600080fd5b505afa15801561164c573d6000803e3d6000fd5b505050506040513d602081101561166257600080fd5b505190506001600160a01b0381166116b7576040805162461bcd60e51b815260206004820152601360248201527234b73b30b634b2103232b9ba34b730ba34b7b760691b604482015290519081900360640190fd5b6040805163e23ff43760e01b81523060048201818152602483019384528651604484015286516001600160a01b0386169463e23ff43794899392606490910190602085019080838360005b8381101561171a578181015183820152602001611702565b50505050905090810190601f1680156117475780820380516001836020036101000a031916815260200191505b509350505050602060405180830381600087803b15801561176757600080fd5b505af115801561177b573d6000803e3d6000fd5b505050506040513d602081101561179157600080fd5b50516117da576040805162461bcd60e51b815260206004820152601360248201527234b73b30b634b2103a3930b739b0b1ba34b7b760691b604482015290519081900360640190fd5b6000846001600160a01b0316846040518082805190602001908083835b602083106118165780518252601f1990920191602091820191016117f7565b6001836020036101000a0380198251168184511680821785525050505050509050019150506000604051808303816000865af19150503d8060008114611878576040519150601f19603f3d011682016040523d82523d6000602084013e61187d565b606091505b50909150506001811515146118d9576040805162461bcd60e51b815260206004820152601a60248201527f6661696c656420746f2065786563757465207468652063616c6c000000000000604482015290519081900360640190fd5b7f508f3afa87f72dce865a2321107666b28ac822c23a8c0555fbeb3424cf3de56330611903611086565b604080516001600160a01b039384168152919092166020820152428183015290519081900360600190a1506001949350505050565b603d5481565b6033546001600160a01b0316331461198c576040805162461bcd60e51b815260206004820152600c60248201526b37b7363c9036b0b730b3b2b960a11b604482015290519081900360640190fd5b603780546001600160a01b0319169055565b603b6020526000908152604090205460ff1681565b603c5481565b6038546040805163cc435bf360e01b81526001600160a01b0384811660048301529151600093929092169163cc435bf391602480820192602092909190829003018186803b158015611a0a57600080fd5b505afa158015611a1e573d6000803e3d6000fd5b505050506040513d6020811015611a3457600080fd5b505192915050565b60395490565b6033546001600160a01b03163314611a90576040805162461bcd60e51b815260206004820152600c60248201526b37b7363c9036b0b730b3b2b960a11b604482015290519081900360640190fd5b603d54421015611ae7576040805162461bcd60e51b815260206004820152601960248201527f66656520696e6372656173652064656c61792061637469766500000000000000604482015290519081900360640190fd5b611af381603c54612729565b506000603c819055603d55565b60606035805480602002602001604051908101604052809291908181526020018280548015611b5857602002820191906000526020600020905b81546001600160a01b03168152600190910190602001808311611b3a575b5050505050905090565b60355490565b6033546001600160a01b03163314611bb6576040805162461bcd60e51b815260206004820152600c60248201526b37b7363c9036b0b730b3b2b960a11b604482015290519081900360640190fd5b603780546001600160a01b0319166001600160a01b0392909216919091179055565b6033546001600160a01b03163314611c26576040805162461bcd60e51b815260206004820152600c60248201526b37b7363c9036b0b730b3b2b960a11b604482015290519081900360640190fd5b6000603c819055603d8190556040517fc6f04bf43cbdf1ba5d51b4afa160bb3c7e13858b1409aa32868b239bb2f8d8499190a1565b6001600160a01b0316600090815260366020526040902054151590565b6038546001600160a01b031681565b600054610100900460ff1680611ca05750611ca061287e565b80611cae575060005460ff16155b611ce95760405162461bcd60e51b815260040180806020018281038252602e815260200180612aaa602e913960400191505060405180910390fd5b600054610100900460ff16158015611d14576000805460ff1961ff0019909116610100171660011790555b611d1e8484612884565b603880546001600160a01b0319166001600160a01b03871617905560005b82518160ff161015611d6f57611d67838260ff1681518110611d5a57fe5b60200260200101516122b4565b600101611d3c565b508015611d82576000805461ff00191690555b5050505050565b60398181548110611d9657fe5b6000918252602090912001546001600160a01b0316905081565b6033546001600160a01b03163314611dfe576040805162461bcd60e51b815260206004820152600c60248201526b37b7363c9036b0b730b3b2b960a11b604482015290519081900360640190fd5b611e0781611c5b565b15611e1157610daa565b610daa816126cd565b6000816001600160a01b03166370a08231306040518263ffffffff1660e01b815260040180826001600160a01b0316815260200191505060206040518083038186803b158015611a0a57600080fd5b6000610faa82611e7884611e1a565b610e9b565b60606039805480602002602001604051908101604052809291908181526020018280548015611b58576020028201919060005260206000209081546001600160a01b03168152600190910190602001808311611b3a575050505050905090565b603c54603d549091565b60395460609081908190818167ffffffffffffffff81118015611f0957600080fd5b50604051908082528060200260200182016040528015611f33578160200160208202803683370190505b50905060608267ffffffffffffffff81118015611f4f57600080fd5b50604051908082528060200260200182016040528015611f79578160200160208202803683370190505b50905060608367ffffffffffffffff81118015611f9557600080fd5b50604051908082528060200260200182016040528015611fbf578160200160208202803683370190505b50905060005b848110156120cb57600060398281548110611fdc57fe5b6000918252602090912001546001600160a01b03169050611ffc81611e1a565b84838151811061200857fe5b6020026020010181815250508085838151811061202157fe5b6001600160a01b0392831660209182029290920181019190915260385460408051638b2f0f4f60e01b8152858516600482015290519190931692638b2f0f4f926024808301939192829003018186803b15801561207d57600080fd5b505afa158015612091573d6000803e3d6000fd5b505050506040513d60208110156120a757600080fd5b505183518490849081106120b757fe5b602090810291909101015250600101611fc5565b509195509350915050909192565b60348054604080516020601f6002600019610100600188161502019095169490940493840181900481028201810190925282815260609390929091830182828015611b585780601f1061213a57610100808354040283529160200191611b58565b820191906000526020600020905b81548152906001019060200180831161214857509395945050505050565b6039546001600160a01b0382166000908152603a602052604081205461218d9060016128b7565b90506000603961219e8460016128b7565b815481106121a857fe5b600091825260209091200154603980546001600160a01b0390921692508291849081106121d157fe5b600091825260209091200180546001600160a01b0319166001600160a01b0392909216919091179055612205826001612673565b6001600160a01b038083166000908152603a602052604080822093909355908616815290812055603980548061223757fe5b600082815260209020810160001990810180546001600160a01b03191690550190557f9b4f55639e5e283319baee5bc4e69a5625a8e3a1cc004af968f4fee72502202730612283611086565b604080516001600160a01b03938416815291831660208301529187168183015290519081900360600190a150505050565b603860009054906101000a90046001600160a01b03166001600160a01b031663aa12ae4d6040518163ffffffff1660e01b815260040160206040518083038186803b15801561230257600080fd5b505afa158015612316573d6000803e3d6000fd5b505050506040513d602081101561232c57600080fd5b50516039541061237c576040805162461bcd60e51b81526020600482015260166024820152751b585e1a5b5d5b48185cdcd95d1cc81c995858da195960521b604482015290519081900360640190fd5b61238581610fc2565b156123d7576040805162461bcd60e51b815260206004820152601760248201527f617373657420616c726561647920737570706f72746564000000000000000000604482015290519081900360640190fd5b6123e0816119b9565b1515600114612426576040805162461bcd60e51b815260206004820152600d60248201526c1a5b9d985b1a5908185cdcd95d609a1b604482015290519081900360640190fd5b603980546001810182557fdc16fef70f8d5ddbc01ee3d903d1e69c18a3c7be080eb86a81e0578814ee58d30180546001600160a01b0319166001600160a01b03841690811790915590546000918252603a6020526040909120557f0a7426a0630aad7dbc4d5ca5b7d9aac1133d77d2db987caaf4b4186c85d6593f306124aa611086565b604080516001600160a01b03938416815291831660208301529184168183015290519081900360600190a150565b6035546001600160a01b0382166000908152603660205260408120546124ff9060016128b7565b9050600060356125108460016128b7565b8154811061251a57fe5b600091825260209091200154603580546001600160a01b03909216925082918490811061254357fe5b600091825260209091200180546001600160a01b0319166001600160a01b0392909216919091179055612577826001612673565b6001600160a01b038083166000908152603660205260408082209390935590861681529081205560358054806125a957fe5b600082815260209020810160001990810180546001600160a01b031916905501905550505050565b6000826125e057506000610faa565b828202828482816125ed57fe5b041461262a5760405162461bcd60e51b8152600401808060200182810382526021815260200180612a896021913960400191505060405180910390fd5b9392505050565b600061262a83836040518060400160405280601a81526020017f536166654d6174683a206469766973696f6e206279207a65726f0000000000008152506128f9565b60008282018381101561262a576040805162461bcd60e51b815260206004820152601b60248201527f536166654d6174683a206164646974696f6e206f766572666c6f770000000000604482015290519081900360640190fd5b603580546001810182557fcfa4bec1d3298408bb5afcfcd9c430549c5b31f8aa5c5848151c0a55f473c34d0180546001600160a01b039093166001600160a01b0319909316831790555460009182526036602052604090912055565b6038546040805163011adcb160e21b81526001600160a01b038581166004830152602482018590529151919092169163046b72c491604480830192600092919082900301818387803b15801561277e57600080fd5b505af1158015612792573d6000803e3d6000fd5b505060385460408051635bd2a29360e11b81526001600160a01b03878116600483015282516000965086955093169263b7a5452692602480840193919291829003018186803b1580156127e457600080fd5b505afa1580156127f8573d6000803e3d6000fd5b505050506040513d604081101561280e57600080fd5b50805160209091015190925090507f1780c04ddc6f0b32d866c7a3d7583f53515ef49ed2126af868f804f49160126630612846611086565b604080516001600160a01b0393841681529190921660208201528082018590526060810184905290519081900360800190a150505050565b303b1590565b603380546001600160a01b0319166001600160a01b03841617905580516128b29060349060208401906129f5565b505050565b600061262a83836040518060400160405280601e81526020017f536166654d6174683a207375627472616374696f6e206f766572666c6f77000081525061299b565b600081836129855760405162461bcd60e51b81526004018080602001828103825283818151815260200191508051906020019080838360005b8381101561294a578181015183820152602001612932565b50505050905090810190601f1680156129775780820380516001836020036101000a031916815260200191505b509250505060405180910390fd5b50600083858161299157fe5b0495945050505050565b600081848411156129ed5760405162461bcd60e51b815260206004820181815283516024840152835190928392604490910191908501908083836000831561294a578181015183820152602001612932565b505050900390565b828054600181600116156101000203166002900490600052602060002090601f016020900481019282601f10612a3657805160ff1916838001178555612a63565b82800160010185558215612a63579182015b82811115612a63578251825591602001919060010190612a48565b50612a6f929150612a73565b5090565b5b80821115612a6f5760008155600101612a7456fe536166654d6174683a206d756c7469706c69636174696f6e206f766572666c6f77436f6e747261637420696e7374616e63652068617320616c7265616479206265656e20696e697469616c697a6564a2646970667358221220848d26d2f1b1b8a988e092f7da5a7dd0259bd0ec4ec04e7f7f4c36997e00efd064736f6c634300060c0033",
  "linkReferences": {},
  "deployedLinkReferences": {}
}