{
  "_format": "hh-sol-artifact-1",
  "contractName": "PoolManagerLogic-ovm",
  "sourceName": "contracts/PoolManagerLogic.sol",
  "abi": [
    {
      "anonymous": false,
      "inputs": [
        {
          "indexed": false,
          "internalType": "address",
          "name": "fundAddress",
          "type": "address"
        },
        {
          "indexed": false,
          "internalType": "address",
          "name": "manager",
          "type": "address"
        },
        {
          "indexed": false,
          "internalType": "address",
          "name": "asset",
          "type": "address"
        }
      ],
      "name": "AssetAdded",
      "type": "event"
    },
    {
      "anonymous": false,
      "inputs": [
        {
          "indexed": false,
          "internalType": "address",
          "name": "fundAddress",
          "type": "address"
        },
        {
          "indexed": false,
          "internalType": "address",
          "name": "manager",
          "type": "address"
        },
        {
          "indexed": false,
          "internalType": "address",
          "name": "asset",
          "type": "address"
        }
      ],
      "name": "AssetRemoved",
      "type": "event"
    },
    {
      "anonymous": false,
      "inputs": [
        {
          "indexed": false,
          "internalType": "address",
          "name": "fundAddress",
          "type": "address"
        },
        {
          "indexed": false,
          "internalType": "address",
          "name": "manager",
          "type": "address"
        },
        {
          "indexed": false,
          "internalType": "address",
          "name": "sourceAsset",
          "type": "address"
        },
        {
          "indexed": false,
          "internalType": "uint256",
          "name": "sourceAmount",
          "type": "uint256"
        },
        {
          "indexed": false,
          "internalType": "address",
          "name": "destinationAddress",
          "type": "address"
        },
        {
          "indexed": false,
          "internalType": "uint256",
          "name": "destinationAmount",
          "type": "uint256"
        },
        {
          "indexed": false,
          "internalType": "uint256",
          "name": "time",
          "type": "uint256"
        }
      ],
      "name": "Exchange",
      "type": "event"
    },
    {
      "anonymous": false,
      "inputs": [
        {
          "indexed": false,
          "internalType": "uint256",
          "name": "newNumerator",
          "type": "uint256"
        },
        {
          "indexed": false,
          "internalType": "uint256",
          "name": "announcedFeeActivationTime",
          "type": "uint256"
        }
      ],
      "name": "ManagerFeeIncreaseAnnounced",
      "type": "event"
    },
    {
      "anonymous": false,
      "inputs": [],
      "name": "ManagerFeeIncreaseRenounced",
      "type": "event"
    },
    {
      "anonymous": false,
      "inputs": [
        {
          "indexed": false,
          "internalType": "address",
          "name": "fundAddress",
          "type": "address"
        },
        {
          "indexed": false,
          "internalType": "address",
          "name": "manager",
          "type": "address"
        },
        {
          "indexed": false,
          "internalType": "uint256",
          "name": "numerator",
          "type": "uint256"
        },
        {
          "indexed": false,
          "internalType": "uint256",
          "name": "denominator",
          "type": "uint256"
        }
      ],
      "name": "ManagerFeeSet",
      "type": "event"
    },
    {
      "anonymous": false,
      "inputs": [
        {
          "indexed": false,
          "internalType": "address",
          "name": "newManager",
          "type": "address"
        },
        {
          "indexed": false,
          "internalType": "string",
          "name": "newManagerName",
          "type": "string"
        }
      ],
      "name": "ManagerUpdated",
      "type": "event"
    },
    {
      "inputs": [
        {
          "internalType": "address",
          "name": "member",
          "type": "address"
        }
      ],
      "name": "addMember",
      "outputs": [],
      "stateMutability": "nonpayable",
      "type": "function"
    },
    {
      "inputs": [
        {
          "internalType": "address[]",
          "name": "members",
          "type": "address[]"
        }
      ],
      "name": "addMembers",
      "outputs": [],
      "stateMutability": "nonpayable",
      "type": "function"
    },
    {
      "inputs": [
        {
          "internalType": "address",
          "name": "asset",
          "type": "address"
        }
      ],
      "name": "addToSupportedAssets",
      "outputs": [],
      "stateMutability": "nonpayable",
      "type": "function"
    },
    {
      "inputs": [],
      "name": "addressResolver",
      "outputs": [
        {
          "internalType": "contract IAddressResolver",
          "name": "",
          "type": "address"
        }
      ],
      "stateMutability": "view",
      "type": "function"
    },
    {
      "inputs": [
        {
          "internalType": "address",
          "name": "pool",
          "type": "address"
        },
        {
          "internalType": "uint256",
          "name": "numerator",
          "type": "uint256"
        }
      ],
      "name": "announceManagerFeeIncrease",
      "outputs": [],
      "stateMutability": "nonpayable",
      "type": "function"
    },
    {
      "inputs": [],
      "name": "announcedFeeIncreaseNumerator",
      "outputs": [
        {
          "internalType": "uint256",
          "name": "",
          "type": "uint256"
        }
      ],
      "stateMutability": "view",
      "type": "function"
    },
    {
      "inputs": [],
      "name": "announcedFeeIncreaseTimestamp",
      "outputs": [
        {
          "internalType": "uint256",
          "name": "",
          "type": "uint256"
        }
      ],
      "stateMutability": "view",
      "type": "function"
    },
    {
      "inputs": [
        {
          "internalType": "address",
          "name": "",
          "type": "address"
        }
      ],
      "name": "assetPosition",
      "outputs": [
        {
          "internalType": "uint256",
          "name": "",
          "type": "uint256"
        }
      ],
      "stateMutability": "view",
      "type": "function"
    },
    {
      "inputs": [
        {
          "internalType": "address",
          "name": "asset",
          "type": "address"
        }
      ],
      "name": "assetValue",
      "outputs": [
        {
          "internalType": "uint256",
          "name": "",
          "type": "uint256"
        }
      ],
      "stateMutability": "view",
      "type": "function"
    },
    {
      "inputs": [
        {
          "internalType": "address",
          "name": "newManager",
          "type": "address"
        },
        {
          "internalType": "string",
          "name": "newManagerName",
          "type": "string"
        }
      ],
      "name": "changeManager",
      "outputs": [],
      "stateMutability": "nonpayable",
      "type": "function"
    },
    {
      "inputs": [
        {
          "internalType": "address",
          "name": "pool",
          "type": "address"
        }
      ],
      "name": "commitManagerFeeIncrease",
      "outputs": [],
      "stateMutability": "nonpayable",
      "type": "function"
    },
    {
      "inputs": [
        {
          "internalType": "bytes32",
          "name": "data",
          "type": "bytes32"
        }
      ],
      "name": "convert32toAddress",
      "outputs": [
        {
          "internalType": "address",
          "name": "o",
          "type": "address"
        }
      ],
      "stateMutability": "pure",
      "type": "function"
    },
    {
      "inputs": [
        {
          "internalType": "address",
          "name": "sourceAsset",
          "type": "address"
        },
        {
          "internalType": "uint256",
          "name": "sourceAmount",
          "type": "uint256"
        },
        {
          "internalType": "address",
          "name": "destinationAsset",
          "type": "address"
        }
      ],
      "name": "exchangeSynth",
      "outputs": [],
      "stateMutability": "nonpayable",
      "type": "function"
    },
    {
      "inputs": [
        {
          "internalType": "address",
          "name": "to",
          "type": "address"
        },
        {
          "internalType": "bytes",
          "name": "data",
          "type": "bytes"
        }
      ],
      "name": "execTransaction",
      "outputs": [
        {
          "internalType": "bool",
          "name": "",
          "type": "bool"
        }
      ],
      "stateMutability": "nonpayable",
      "type": "function"
    },
    {
      "inputs": [],
      "name": "factory",
      "outputs": [
        {
          "internalType": "address",
          "name": "",
          "type": "address"
        }
      ],
      "stateMutability": "view",
      "type": "function"
    },
    {
      "inputs": [
        {
          "internalType": "bytes",
          "name": "data",
          "type": "bytes"
        },
        {
          "internalType": "uint8",
          "name": "inputNum",
          "type": "uint8"
        },
        {
          "internalType": "uint8",
          "name": "arrayIndex",
          "type": "uint8"
        }
      ],
      "name": "getArrayIndex",
      "outputs": [
        {
          "internalType": "bytes32",
          "name": "",
          "type": "bytes32"
        }
      ],
      "stateMutability": "pure",
      "type": "function"
    },
    {
      "inputs": [
        {
          "internalType": "bytes",
          "name": "data",
          "type": "bytes"
        },
        {
          "internalType": "uint8",
          "name": "inputNum",
          "type": "uint8"
        }
      ],
      "name": "getArrayLast",
      "outputs": [
        {
          "internalType": "bytes32",
          "name": "",
          "type": "bytes32"
        }
      ],
      "stateMutability": "pure",
      "type": "function"
    },
    {
      "inputs": [
        {
          "internalType": "bytes",
          "name": "data",
          "type": "bytes"
        },
        {
          "internalType": "uint8",
          "name": "inputNum",
          "type": "uint8"
        }
      ],
      "name": "getArrayLength",
      "outputs": [
        {
          "internalType": "uint256",
          "name": "",
          "type": "uint256"
        }
      ],
      "stateMutability": "pure",
      "type": "function"
    },
    {
      "inputs": [
        {
          "internalType": "bytes32",
          "name": "key",
          "type": "bytes32"
        }
      ],
      "name": "getAssetProxy",
      "outputs": [
        {
          "internalType": "address",
          "name": "",
          "type": "address"
        }
      ],
      "stateMutability": "view",
      "type": "function"
    },
    {
      "inputs": [],
      "name": "getFundComposition",
      "outputs": [
        {
          "internalType": "address[]",
          "name": "",
          "type": "address[]"
        },
        {
          "internalType": "uint256[]",
          "name": "",
          "type": "uint256[]"
        },
        {
          "internalType": "uint256[]",
          "name": "",
          "type": "uint256[]"
        }
      ],
      "stateMutability": "view",
      "type": "function"
    },
    {
      "inputs": [
        {
          "internalType": "bytes",
          "name": "data",
          "type": "bytes"
        },
        {
          "internalType": "uint8",
          "name": "inputNum",
          "type": "uint8"
        }
      ],
      "name": "getInput",
      "outputs": [
        {
          "internalType": "bytes32",
          "name": "",
          "type": "bytes32"
        }
      ],
      "stateMutability": "pure",
      "type": "function"
    },
    {
      "inputs": [
        {
          "internalType": "address",
          "name": "pool",
          "type": "address"
        }
      ],
      "name": "getManagerFee",
      "outputs": [
        {
          "internalType": "uint256",
          "name": "",
          "type": "uint256"
        },
        {
          "internalType": "uint256",
          "name": "",
          "type": "uint256"
        }
      ],
      "stateMutability": "view",
      "type": "function"
    },
    {
      "inputs": [],
      "name": "getManagerFeeIncreaseInfo",
      "outputs": [
        {
          "internalType": "uint256",
          "name": "",
          "type": "uint256"
        },
        {
          "internalType": "uint256",
          "name": "",
          "type": "uint256"
        }
      ],
      "stateMutability": "view",
      "type": "function"
    },
    {
      "inputs": [],
      "name": "getMembers",
      "outputs": [
        {
          "internalType": "address[]",
          "name": "",
          "type": "address[]"
        }
      ],
      "stateMutability": "view",
      "type": "function"
    },
    {
      "inputs": [
        {
          "internalType": "bytes",
          "name": "data",
          "type": "bytes"
        }
      ],
      "name": "getMethod",
      "outputs": [
        {
          "internalType": "bytes4",
          "name": "",
          "type": "bytes4"
        }
      ],
      "stateMutability": "pure",
      "type": "function"
    },
    {
      "inputs": [],
      "name": "getSupportedAssets",
      "outputs": [
        {
          "internalType": "address[]",
          "name": "",
          "type": "address[]"
        }
      ],
      "stateMutability": "view",
      "type": "function"
    },
    {
      "inputs": [],
      "name": "getSuspendedAssets",
      "outputs": [
        {
          "internalType": "address[]",
          "name": "",
          "type": "address[]"
        },
        {
          "internalType": "bool[]",
          "name": "",
          "type": "bool[]"
        }
      ],
      "stateMutability": "view",
      "type": "function"
    },
    {
      "inputs": [
        {
          "internalType": "address",
          "name": "asset",
          "type": "address"
        }
      ],
      "name": "getSynthKey",
      "outputs": [
        {
          "internalType": "bytes32",
          "name": "",
          "type": "bytes32"
        }
      ],
      "stateMutability": "view",
      "type": "function"
    },
    {
      "inputs": [
        {
          "internalType": "address",
          "name": "_factory",
          "type": "address"
        },
        {
          "internalType": "address",
          "name": "_manager",
          "type": "address"
        },
        {
          "internalType": "string",
          "name": "_managerName",
          "type": "string"
        },
        {
          "internalType": "contract IAddressResolver",
          "name": "_addressResolver",
          "type": "address"
        },
        {
          "internalType": "address[]",
          "name": "_supportedAssets",
          "type": "address[]"
        }
      ],
      "name": "initialize",
      "outputs": [],
      "stateMutability": "nonpayable",
      "type": "function"
    },
    {
      "inputs": [
        {
          "internalType": "address",
          "name": "asset",
          "type": "address"
        }
      ],
      "name": "isAssetSupported",
      "outputs": [
        {
          "internalType": "bool",
          "name": "",
          "type": "bool"
        }
      ],
      "stateMutability": "view",
      "type": "function"
    },
    {
      "inputs": [
        {
          "internalType": "address",
          "name": "member",
          "type": "address"
        }
      ],
      "name": "isMemberAllowed",
      "outputs": [
        {
          "internalType": "bool",
          "name": "",
          "type": "bool"
        }
      ],
      "stateMutability": "view",
      "type": "function"
    },
    {
      "inputs": [
        {
          "internalType": "address",
          "name": "",
          "type": "address"
        }
      ],
      "name": "isSynthAsset",
      "outputs": [
        {
          "internalType": "bool",
          "name": "",
          "type": "bool"
        }
      ],
      "stateMutability": "view",
      "type": "function"
    },
    {
      "inputs": [],
      "name": "manager",
      "outputs": [
        {
          "internalType": "address",
          "name": "",
          "type": "address"
        }
      ],
      "stateMutability": "view",
      "type": "function"
    },
    {
      "inputs": [],
      "name": "managerName",
      "outputs": [
        {
          "internalType": "string",
          "name": "",
          "type": "string"
        }
      ],
      "stateMutability": "view",
      "type": "function"
    },
    {
      "inputs": [],
      "name": "numberOfMembers",
      "outputs": [
        {
          "internalType": "uint256",
          "name": "",
          "type": "uint256"
        }
      ],
      "stateMutability": "view",
      "type": "function"
    },
    {
      "inputs": [],
      "name": "numberOfSupportedAssets",
      "outputs": [
        {
          "internalType": "uint256",
          "name": "",
          "type": "uint256"
        }
      ],
      "stateMutability": "view",
      "type": "function"
    },
    {
      "inputs": [
        {
          "internalType": "address",
          "name": "",
          "type": "address"
        }
      ],
      "name": "persistentAsset",
      "outputs": [
        {
          "internalType": "bool",
          "name": "",
          "type": "bool"
        }
      ],
      "stateMutability": "view",
      "type": "function"
    },
    {
      "inputs": [
        {
          "internalType": "bytes",
          "name": "data",
          "type": "bytes"
        },
        {
          "internalType": "uint256",
          "name": "offset",
          "type": "uint256"
        },
        {
          "internalType": "uint256",
          "name": "length",
          "type": "uint256"
        }
      ],
      "name": "read32",
      "outputs": [
        {
          "internalType": "bytes32",
          "name": "o",
          "type": "bytes32"
        }
      ],
      "stateMutability": "pure",
      "type": "function"
    },
    {
      "inputs": [
        {
          "internalType": "bytes",
          "name": "data",
          "type": "bytes"
        },
        {
          "internalType": "uint256",
          "name": "offset",
          "type": "uint256"
        },
        {
          "internalType": "uint256",
          "name": "length",
          "type": "uint256"
        }
      ],
      "name": "read4left",
      "outputs": [
        {
          "internalType": "bytes4",
          "name": "o",
          "type": "bytes4"
        }
      ],
      "stateMutability": "pure",
      "type": "function"
    },
    {
      "inputs": [
        {
          "internalType": "address",
          "name": "asset",
          "type": "address"
        }
      ],
      "name": "removeFromSupportedAssets",
      "outputs": [],
      "stateMutability": "nonpayable",
      "type": "function"
    },
    {
      "inputs": [
        {
          "internalType": "address",
          "name": "member",
          "type": "address"
        }
      ],
      "name": "removeMember",
      "outputs": [],
      "stateMutability": "nonpayable",
      "type": "function"
    },
    {
      "inputs": [
        {
          "internalType": "address[]",
          "name": "members",
          "type": "address[]"
        }
      ],
      "name": "removeMembers",
      "outputs": [],
      "stateMutability": "nonpayable",
      "type": "function"
    },
    {
      "inputs": [],
      "name": "removeTrader",
      "outputs": [],
      "stateMutability": "nonpayable",
      "type": "function"
    },
    {
      "inputs": [],
      "name": "renounceManagerFeeIncrease",
      "outputs": [],
      "stateMutability": "nonpayable",
      "type": "function"
    },
    {
      "inputs": [
        {
          "internalType": "address",
          "name": "_addressResolver",
          "type": "address"
        }
      ],
      "name": "setAddressResolver",
      "outputs": [],
      "stateMutability": "nonpayable",
      "type": "function"
    },
    {
      "inputs": [
        {
          "internalType": "address",
          "name": "newTrader",
          "type": "address"
        }
      ],
      "name": "setTrader",
      "outputs": [],
      "stateMutability": "nonpayable",
      "type": "function"
    },
    {
      "inputs": [
        {
          "internalType": "uint256",
          "name": "",
          "type": "uint256"
        }
      ],
      "name": "supportedAssets",
      "outputs": [
        {
          "internalType": "address",
          "name": "",
          "type": "address"
        }
      ],
      "stateMutability": "view",
      "type": "function"
    },
    {
      "inputs": [],
      "name": "trader",
      "outputs": [
        {
          "internalType": "address",
          "name": "",
          "type": "address"
        }
      ],
      "stateMutability": "view",
      "type": "function"
    },
    {
      "inputs": [
        {
          "internalType": "address",
          "name": "asset",
          "type": "address"
        }
      ],
      "name": "validateAsset",
      "outputs": [
        {
          "internalType": "bool",
          "name": "",
          "type": "bool"
        }
      ],
      "stateMutability": "view",
      "type": "function"
    }
  ],
  "bytecode": "0x60806040523480156200001c576000806200001962000023565b50505b5062000090565b632a2a7adb598160e01b8152600481016020815285602082015260005b868110156200005d57808601518282016040015260200162000040565b506020828760640184336000905af158600e01573d6000803e3d6000fd5b3d6001141558600a015760016000f35b505050565b615c1380620000a06000396000f3fe60806040523480156100195760008061001661573c565b50505b50600436106102c45760003560e01c80637c8afd511161018b578063b8bd81e6116100f2578063d346cc65116100ab578063e5406dbf11610085578063e5406dbf146112cd578063ed5b165d146112d5578063f09d14d7146112dd578063fed4416a146113c3576102c4565b8063d346cc6514611044578063d8af8ed4146111d2578063db896b5714611201576102c4565b8063b8bd81e614610ee9578063bbbf725b14610ef1578063c3c6279f14610f20578063c45a015514610fe7578063c68dbb3714610fef578063ca6d56dc14611015576102c4565b8063969eed2711610144578063969eed2714610d2d578063998546e314610d5c5780639eab525314610e28578063a0f8414c14610e83578063a30e3fa914610eb2578063a6bc18f914610eba576102c4565b80637c8afd5114610beb57806380dd4f6214610bf357806382f86acc14610c225780638f32343914610cee5780639240d29914610cf6578063936553c414610d25576102c4565b806341dc16c31161022f5780635f6eceab116101e85780635f6eceab1461099c5780636141db90146109e35780636708f5d714610a125780636f4d469b14610a475780637ae7cfb514610b0c5780637b4d0c6314610be3576102c4565b806341dc16c3146105f5578063464b4158146106cc57806346ee84b01461070f578063481c6a75146107d457806352213663146107dc578063568b5a2f146108b3576102c4565b80631758078b116102815780631758078b146104925780631eba30771461049a57806321f8c984146104c05780633c570d7d146105615780633ded6530146105905780633f452dab146105b6576102c4565b806305a2ee2a146102d257806306468587146102f6578063093b88251461032757806309ff5c7d146103565780630b1ca49a146104345780631430238714610463575b6000806102cf61573c565b50505b6102da611442565b6040516001600160a01b03909116815260200160405180910390f35b610325600480360360208110156103155760008061031261573c565b50505b50356001600160a01b0316611461565b005b610325600480360360208110156103465760008061034361573c565b50505b50356001600160a01b0316611844565b610422600480360360408110156103755760008061037261573c565b50505b810190602081018135600160201b8111156103985760008061039561573c565b50505b8201836020820111156103b3576000806103b061573c565b50505b803590602001918460018302840111600160201b831117156103dd576000806103da61573c565b50505b91908080601f01602080910402602001604051908101604052818152929190602084018383808284376000920191909152509295505050903560ff1691506119169050565b60405190815260200160405180910390f35b610325600480360360208110156104535760008061045061573c565b50505b50356001600160a01b03166119b1565b610325600480360360208110156104825760008061047f61573c565b50505b50356001600160a01b0316611a4c565b6102da611b03565b6102da600480360360208110156104b9576000806104b661573c565b50505b5035611b25565b6104c8611b2c565b604051808060200180602001838103835285818151815260200191508051906020019060200280838360005b8381101561050c5780820151838201526020016104f4565b50505050905001838103825284818151815260200191508051906020019060200280838360005b8381101561054b578082015183820152602001610533565b5050505090500194505050505060405180910390f35b610422600480360360208110156105805760008061057d61573c565b50505b50356001600160a01b0316611dee565b6102da600480360360208110156105af576000806105ac61573c565b50505b5035611e09565b610325600480360360608110156105d5576000806105d261573c565b50505b506001600160a01b038135811691602081013591604090910135166120cf565b610422600480360360608110156106145760008061061161573c565b50505b810190602081018135600160201b8111156106375760008061063461573c565b50505b8201836020820111156106525760008061064f61573c565b50505b803590602001918460018302840111600160201b8311171561067c5760008061067961573c565b50505b91908080601f01602080910402602001604051908101604052818152929190602084018383808284376000920191909152509295505060ff833581169450602090930135909216915061266b9050565b6106fb600480360360208110156106eb576000806106e861573c565b50505b50356001600160a01b0316612763565b604051901515815260200160405180910390f35b6103256004803603602081101561072e5760008061072b61573c565b50505b810190602081018135600160201b8111156107515760008061074e61573c565b50505b82018360208201111561076c5760008061076961573c565b50505b803590602001918460208302840111600160201b831117156107965760008061079361573c565b50505b91908080602002602001604051908101604052809392919081815260200183836020028082843760009201919091525092955061278b945050505050565b6102da612864565b610325600480360360408110156107fb576000806107f861573c565b50505b6001600160a01b038235169190810190604081016020820135600160201b81111561082e5760008061082b61573c565b50505b8201836020820111156108495760008061084661573c565b50505b803590602001918460018302840111600160201b831117156108735760008061087061573c565b50505b91908080601f0160208091040260200160405190810160405281815292919060208401838380828437600092019190915250929550612871945050505050565b61097f600480360360608110156108d2576000806108cf61573c565b50505b810190602081018135600160201b8111156108f5576000806108f261573c565b50505b8201836020820111156109105760008061090d61573c565b50505b803590602001918460018302840111600160201b8311171561093a5760008061093761573c565b50505b91908080601f016020809104026020016040519081016040528181529291906020840183838082843760009201919091525092955050823593505050602001356129e6565b6040516001600160e01b0319909116815260200160405180910390f35b6109cb600480360360208110156109bb576000806109b861573c565b50505b50356001600160a01b0316612a6f565b60405191825260208201526040908101905180910390f35b61042260048036036020811015610a02576000806109ff61573c565b50505b50356001600160a01b0316612b4e565b61032560048036036040811015610a3157600080610a2e61573c565b50505b506001600160a01b038135169060200135612e43565b61032560048036036020811015610a6657600080610a6361573c565b50505b810190602081018135600160201b811115610a8957600080610a8661573c565b50505b820183602082011115610aa457600080610aa161573c565b50505b803590602001918460208302840111600160201b83111715610ace57600080610acb61573c565b50505b919080806020026020016040519081016040528093929190818152602001838360200280828437600092019190915250929550613173945050505050565b6106fb60048036036040811015610b2b57600080610b2861573c565b50505b6001600160a01b038235169190810190604081016020820135600160201b811115610b5e57600080610b5b61573c565b50505b820183602082011115610b7957600080610b7661573c565b50505b803590602001918460018302840111600160201b83111715610ba357600080610ba061573c565b50505b91908080601f016020809104026020016040519081016040528181529291906020840183838082843760009201919091525092955061323c945050505050565b610422613784565b61032561378e565b6106fb60048036036020811015610c1257600080610c0f61573c565b50505b50356001600160a01b0316613844565b61042260048036036040811015610c4157600080610c3e61573c565b50505b810190602081018135600160201b811115610c6457600080610c6161573c565b50505b820183602082011115610c7f57600080610c7c61573c565b50505b803590602001918460018302840111600160201b83111715610ca957600080610ca661573c565b50505b91908080601f01602080910402602001604051908101604052818152929190602084018383808284376000920191909152509295505050903560ff16915061386b9050565b610422613882565b6106fb60048036036020811015610d1557600080610d1261573c565b50505b50356001600160a01b031661388c565b6104226138b3565b61032560048036036020811015610d4c57600080610d4961573c565b50505b50356001600160a01b03166138c6565b61042260048036036040811015610d7b57600080610d7861573c565b50505b810190602081018135600160201b811115610d9e57600080610d9b61573c565b50505b820183602082011115610db957600080610db661573c565b50505b803590602001918460018302840111600160201b83111715610de357600080610de061573c565b50505b91908080601f01602080910402602001604051908101604052818152929190602084018383808284376000920191909152509295505050903560ff1691506139e59050565b610e30613a16565b60405160208082528190810183818151815260200191508051906020019060200280838360005b83811015610e6f578082015183820152602001610e57565b505050509050019250505060405180910390f35b6106fb60048036036020811015610ea257600080610e9f61573c565b50505b50356001600160a01b0316613a9d565b610422613ab7565b61032560048036036020811015610ed957600080610ed661573c565b50505b50356001600160a01b0316613ac4565b610325613b52565b6106fb60048036036020811015610f1057600080610f0d61573c565b50505b50356001600160a01b0316613c21565b61097f60048036036020811015610f3f57600080610f3c61573c565b50505b810190602081018135600160201b811115610f6257600080610f5f61573c565b50505b820183602082011115610f7d57600080610f7a61573c565b50505b803590602001918460018302840111600160201b83111715610fa757600080610fa461573c565b50505b91908080601f0160208091040260200160405190810160405281815292919060208401838380828437600092019190915250929550613c41945050505050565b6102da613c50565b6102da6004803603602081101561100e5760008061100b61573c565b50505b5035613c5c565b610325600480360360208110156110345760008061103161573c565b50505b50356001600160a01b0316613c86565b610325600480360360a08110156110635760008061106061573c565b50505b6001600160a01b038235811692602081013590911691810190606081016040820135600160201b81111561109f5760008061109c61573c565b50505b8201836020820111156110ba576000806110b761573c565b50505b803590602001918460018302840111600160201b831117156110e4576000806110e161573c565b50505b91908080601f016020809104026020016040519081016040528181529291906020840183838082843760009201919091525092956001600160a01b03853516959094909350604081019250602001359050600160201b81111561114f5760008061114c61573c565b50505b82018360208201111561116a5760008061116761573c565b50505b803590602001918460208302840111600160201b831117156111945760008061119161573c565b50505b919080806020026020016040519081016040528093929190818152602001838360200280828437600092019190915250929550613d22945050505050565b610422600480360360208110156111f1576000806111ee61573c565b50505b50356001600160a01b0316613f67565b610422600480360360608110156112205760008061121d61573c565b50505b810190602081018135600160201b8111156112435760008061124061573c565b50505b82018360208201111561125e5760008061125b61573c565b50505b803590602001918460018302840111600160201b831117156112885760008061128561573c565b50505b91908080601f01602080910402602001604051908101604052818152929190602084018383808284376000920191909152509295505082359350505060200135614213565b610e30614297565b6109cb61431d565b6112e561433c565b60405180806020018060200180602001848103845287818151815260200191508051906020019060200280838360005b8381101561132d578082015183820152602001611315565b50505050905001848103835286818151815260200191508051906020019060200280838360005b8381101561136c578082015183820152602001611354565b50505050905001848103825285818151815260200191508051906020019060200280838360005b838110156113ab578082015183820152602001611393565b50505050905001965050505050505060405180910390f35b6113cb61477d565b60405160208082528190810183818151815260200191508051906020019080838360005b838110156114075780820151838201526020016113ef565b50505050905090810190601f1680156114345780820380516001836020036101000a031916815260200191505b509250505060405180910390f35b6000603861144e6157a7565b906101000a90046001600160a01b031681565b6000603961146d6157a7565b906101000a90046001600160a01b03166001600160a01b0316638da5cb5b6040518163ffffffff1660e01b815260040160206040518083038186806114b0615802565b1580156114c5576000806114c261573c565b50505b505a6114cf61584e565b50505050501580156114ee573d6000803e3d60006114eb61573c565b50505b505050506040513d602081101561150d5760008061150a61573c565b50505b8101908080516001600160a01b0316925050505a611529615939565b6001600160a01b0316148061155e5750611541612864565b6001600160a01b03165a611553615939565b6001600160a01b0316145b80611589575061156c611b03565b6001600160a01b03165a61157e615939565b6001600160a01b0316145b6115e25760405162461bcd60e51b815260206004820152601b60248201527f6f6e6c79206d616e616765722c20747261646572206f722044414f00000000006044820152606401604051809103906115df61573c565b50505b6115eb81612763565b61163a5760405162461bcd60e51b8152602060048201526013602482015272185cdcd95d081b9bdd081cdd5c1c1bdc9d1959606a1b60448201526064016040518091039061163761573c565b50505b6001600160a01b0381166000908152603d6020526040902060009061165d6157a7565b906101000a900460ff16156116c15760405162461bcd60e51b815260206004820152601f60248201527f63616e6e6f742072656d6f76652070657273697374656e7420617373657473006044820152606401604051809103906116be61573c565b50505b6116ca8161388c565b15156001141561183857806001600160a01b03166370a082315a63996d79a5598160e01b8152602081600483336000905af158600e01573d6000803e3d6000fd5b3d6001141558600a015760016000f35b8051925060005b604081101561173957600082820152602001611722565b5050506040516001600160e01b031960e084901b1681526001600160a01b0390911660048201526024016020604051808303818680611776615802565b15801561178b5760008061178861573c565b50505b505a61179561584e565b50505050501580156117b4573d6000803e3d60006117b161573c565b50505b505050506040513d60208110156117d3576000806117d061573c565b50505b8101908080511592506118389150505760405162461bcd60e51b815260206004820152601d60248201527f63616e6e6f742072656d6f7665206e6f6e2d656d70747920617373657400000060448201526064016040518091039061183561573c565b50505b61184181614831565b50565b600060336118506157a7565b906101000a90046001600160a01b03166001600160a01b03165a611872615939565b6001600160a01b031614806118bb57506000603761188e6157a7565b906101000a90046001600160a01b03166001600160a01b03165a6118b0615939565b6001600160a01b0316145b61190d5760405162461bcd60e51b815260206004820152601660248201527537b7363c9036b0b730b3b2b91037b9103a3930b232b960511b60448201526064016040518091039061190a61573c565b50505b61184181614a73565b60008061192e848460200260040160ff166020614213565b9050600061194185600484016020614213565b9050806119925760405162461bcd60e51b8152602060048201526012602482015271696e707574206973206e6f7420617272617960701b60448201526064016040518091039061198f61573c565b50505b6119a6856020808402850160040190614213565b925050505b92915050565b600060336119bd6157a7565b906101000a90046001600160a01b03166001600160a01b03165a6119df615939565b6001600160a01b031614611a315760405162461bcd60e51b815260206004820152600c60248201526b37b7363c9036b0b730b3b2b960a11b604482015260640160405180910390611a2e61573c565b50505b611a3a81613c21565b611a4357611841565b61184181614dd6565b60006039611a586157a7565b906101000a90046001600160a01b03166001600160a01b03165a611a7a615939565b6001600160a01b031614611acd5760405162461bcd60e51b815260206004820152600d60248201526c3737903832b936b4b9b9b4b7b760991b604482015260640160405180910390611aca61573c565b50505b806038600181611adb6157a7565b816001600160a01b0302191690836001600160a01b0316021790611afd61597f565b50505050565b6000806037611b106157a7565b906101000a90046001600160a01b0316905090565b805b919050565b6060806000603a80611b3c6157a7565b9050905060608167ffffffffffffffff81118015611b6257600080611b5f61573c565b50505b50604051908082528060200260200182016040528015611b8c578160200160208202803683370190505b50905060608267ffffffffffffffff81118015611bb157600080611bae61573c565b50505b50604051908082528060200260200182016040528015611bdb578160200160208202803683370190505b5090506000806038611beb6157a7565b906101000a90046001600160a01b03166001600160a01b03166321f8a7216b53797374656d53746174757360a01b6040516001600160e01b031960e084901b16815260048101919091526024016020604051808303818680611c4b615802565b158015611c6057600080611c5d61573c565b50505b505a611c6a61584e565b5050505050158015611c89573d6000803e3d6000611c8661573c565b50505b505050506040513d6020811015611ca857600080611ca561573c565b50505b81019080805193506000925050505b84811015611de2576000603a8281611ccd6157a7565b8110611cd557fe5b90600052602060002001600090611cea6157a7565b906101000a90046001600160a01b0316905080858381518110611d0957fe5b6001600160a01b03928316602091820292909201015283166342a28e21611d2f83612b4e565b6040516001600160e01b031960e084901b16815260048101919091526024016000604051808303818680611d61615802565b158015611d7657600080611d7361573c565b50505b505a611d8061584e565b5050505050925050508015611d93575060015b611dba576001848381518110611da557fe5b91151560209283029190910190910152611dd9565b6000848381518110611dc857fe5b911515602092830291909101909101525b50600101611cb7565b50919450925050509091565b603b6020528060005260406000209050611e066157a7565b81565b600080806038611e176157a7565b906101000a90046001600160a01b03166001600160a01b03166321f8a721680a6f2dce8d0cae8d2f60bb1b6040516001600160e01b031960e084901b16815260048101919091526024016020604051808303818680611e74615802565b158015611e8957600080611e8661573c565b50505b505a611e9361584e565b5050505050158015611eb2573d6000803e3d6000611eaf61573c565b50505b505050506040513d6020811015611ed157600080611ece61573c565b50505b8101908080516001600160a01b03169250633260803991508590506040516001600160e01b031960e084901b16815260048101919091526024016020604051808303818680611f1e615802565b158015611f3357600080611f3061573c565b50505b505a611f3d61584e565b5050505050158015611f5c573d6000803e3d6000611f5961573c565b50505b505050506040513d6020811015611f7b57600080611f7861573c565b50505b81019080805193505050506001600160a01b038116611fd75760405162461bcd60e51b815260206004820152600b60248201526a696e76616c6964206b657960a81b604482015260640160405180910390611fd461573c565b50505b6000816001600160a01b031663ec5568896040518163ffffffff1660e01b8152600401602060405180830381868061200d615802565b1580156120225760008061201f61573c565b50505b505a61202c61584e565b505050505015801561204b573d6000803e3d600061204861573c565b50505b505050506040513d602081101561206a5760008061206761573c565b50505b81019080805193505050506001600160a01b0381166120c85760405162461bcd60e51b815260206004820152600d60248201526c696e76616c69642070726f787960981b6044820152606401604051809103906120c561573c565b50505b9392505050565b600060336120db6157a7565b906101000a90046001600160a01b03166001600160a01b03165a6120fd615939565b6001600160a01b031614806121465750600060376121196157a7565b906101000a90046001600160a01b03166001600160a01b03165a61213b615939565b6001600160a01b0316145b6121985760405162461bcd60e51b815260206004820152601660248201527537b7363c9036b0b730b3b2b91037b9103a3930b232b960511b60448201526064016040518091039061219561573c565b50505b6121a183612763565b6121f55760405162461bcd60e51b81526020600482015260186024820152771d5b9cdd5c1c1bdc9d1959081cdbdd5c98d948185cdcd95d60421b6044820152606401604051809103906121f261573c565b50505b6121fe81612763565b6122575760405162461bcd60e51b815260206004820152601d60248201527f756e737570706f727465642064657374696e6174696f6e20617373657400000060448201526064016040518091039061225461573c565b50505b600061226284612b4e565b9050600061226f83612b4e565b9050600080603861227e6157a7565b906101000a90046001600160a01b03166001600160a01b03166321f8a721680a6f2dce8d0cae8d2f60bb1b6040516001600160e01b031960e084901b168152600481019190915260240160206040518083038186806122db615802565b1580156122f0576000806122ed61573c565b50505b505a6122fa61584e565b5050505050158015612319573d6000803e3d600061231661573c565b50505b505050506040513d60208110156123385760008061233561573c565b50505b810190808051935060009250506001600160a01b03831690506330ead7608588868560396123646157a7565b906101000a90046001600160a01b03166001600160a01b0316631d68702d6040518163ffffffff1660e01b815260040160206040518083038186806123a7615802565b1580156123bc576000806123b961573c565b50505b505a6123c661584e565b50505050501580156123e5573d6000803e3d60006123e261573c565b50505b505050506040513d60208110156124045760008061240161573c565b50505b8101908080519250600091506039905061241c6157a7565b906101000a90046001600160a01b03166001600160a01b03166349f7c02d6040518163ffffffff1660e01b8152600401602060405180830381868061245f615802565b1580156124745760008061247161573c565b50505b505a61247e61584e565b505050505015801561249d573d6000803e3d600061249a61573c565b50505b505050506040513d60208110156124bc576000806124b961573c565b50505b81019080805192506040915050516001600160e01b031960e088901b1681526004810195909552602485019390935260448401919091526001600160a01b03166064830152608482015260a4016020604051808303816000878061251e615802565b1580156125335760008061253061573c565b50505b505a61253d6159cd565b50505050505015801561255d573d6000803e3d600061255a61573c565b50505b505050506040513d602081101561257c5760008061257961573c565b50505b81019080805193507f2083d2b241ef1ec859ae0402864fd9fe9d6d36b18c73615625b46acaf113be78925050505a63996d79a5598160e01b8152602081600483336000905af158600e01573d6000803e3d6000fd5b3d6001141558600a015760016000f35b8051925060005b60408110156125ff576000828201526020016125e8565b5050505a61260b615939565b898989865a612618615a93565b6040516001600160a01b039788168152958716602087015293861660408087019190915260608601939093529416608084015260a083019390935260c082015260e001905180910390a150505050505050565b600080612683858560200260040160ff166020614213565b9050600061269686600484016020614213565b9050806126e75760405162461bcd60e51b8152602060048201526012602482015271696e707574206973206e6f7420617272617960701b6044820152606401604051809103906126e461573c565b50505b60ff8416811161273f5760405162461bcd60e51b815260206004820152601660248201527534b73b30b634b21030b93930bc903837b9b4ba34b7b760511b60448201526064016040518091039061273c61573c565b50505b612759866020600160ff8816018102850160040190614213565b9695505050505050565b6001600160a01b0381166000908152603b602052604081206127836157a7565b151592915050565b600060336127976157a7565b906101000a90046001600160a01b03166001600160a01b03165a6127b9615939565b6001600160a01b03161461280b5760405162461bcd60e51b815260206004820152600c60248201526b37b7363c9036b0b730b3b2b960a11b60448201526064016040518091039061280861573c565b50505b60005b81518110156128605761283382828151811061282657fe5b6020026020010151613c21565b61283c57612858565b61285882828151811061284b57fe5b6020026020010151614dd6565b60010161280e565b5050565b6000806033611b106157a7565b6000603361287d6157a7565b906101000a90046001600160a01b03166001600160a01b03165a61289f615939565b6001600160a01b0316146128f15760405162461bcd60e51b815260206004820152600c60248201526b37b7363c9036b0b730b3b2b960a11b6044820152606401604051809103906128ee61573c565b50505b8160336001816128ff6157a7565b816001600160a01b0302191690836001600160a01b031602179061292161597f565b505050806034908051612938929160200190615ad9565b507f6ed15082ad038474841528b5badca105106d4463e44b5d434130dfb299aa366982826040516001600160a01b038316815260406020820181815290820183818151815260200191508051906020019080838360005b838110156129a757808201518382015260200161298f565b50505050905090810190601f1680156129d45780820380516001836020036101000a031916815260200191505b50935050505060405180910390a15050565b600081830184511015612a485760405162461bcd60e51b815260206004820152601b60248201527f52656164696e67206279746573206f7574206f6620626f756e64730000000000604482015260640160405180910390612a4561573c565b50505b826020018401519050816004038015612a67576008810260020a820491505b509392505050565b600080806039612a7d6157a7565b906101000a90046001600160a01b03166001600160a01b031663b7a54526846040516001600160e01b031960e084901b1681526001600160a01b03909116600482015260240160408051808303818680612ad5615802565b158015612aea57600080612ae761573c565b50505b505a612af461584e565b5050505050158015612b13573d6000803e3d6000612b1061573c565b50505b505050506040513d6040811015612b3257600080612b2f61573c565b50505b8101908080519291906020018051939550929350505050915091565b6000612b62826001600160a01b0316614f49565b612bad5760405162461bcd60e51b815260206004820152600f60248201526e1b9bdb8b5cde5b9d1a08185cdcd95d608a1b604482015260640160405180910390612baa61573c565b50505b816001600160a01b031663d4b839926040518163ffffffff1660e01b81526004016020604051808303818680612be1615802565b158015612bf657600080612bf361573c565b50505b505a612c0061584e565b5050505050925050508015612c3957506040513d6020811015612c2b57600080612c2861573c565b50505b810190808051925060019150505b612cb9573d808015612c67576040513d603f01601f191681016040523d815291503d6000602084013e612c6c565b606091505b5060405162461bcd60e51b815260206004820152600f60248201526e1b9bdb8b5cde5b9d1a08185cdcd95d608a1b604482015260640160405180910390612cb161573c565b505050611b27565b60006038612cc56157a7565b906101000a90046001600160a01b03166001600160a01b03166321f8a721680a6f2dce8d0cae8d2f60bb1b6040516001600160e01b031960e084901b16815260048101919091526024016020604051808303818680612d22615802565b158015612d3757600080612d3461573c565b50505b505a612d4161584e565b5050505050158015612d60573d6000803e3d6000612d5d61573c565b50505b505050506040513d6020811015612d7f57600080612d7c61573c565b50505b8101908080516001600160a01b031692506316b2213f91508390506040516001600160e01b031960e084901b1681526001600160a01b0390911660048201526024016020604051808303818680612dd4615802565b158015612de957600080612de661573c565b50505b505a612df361584e565b5050505050158015612e12573d6000803e3d6000612e0f61573c565b50505b505050506040513d6020811015612e3157600080612e2e61573c565b50505b8101908080519450611b279350505050565b60006033612e4f6157a7565b906101000a90046001600160a01b03166001600160a01b03165a612e71615939565b6001600160a01b031614612ec35760405162461bcd60e51b815260206004820152600c60248201526b37b7363c9036b0b730b3b2b960a11b604482015260640160405180910390612ec061573c565b50505b6000806039612ed06157a7565b906101000a90046001600160a01b03166001600160a01b0316635c9bfc2b6040518163ffffffff1660e01b81526004016020604051808303818680612f13615802565b158015612f2857600080612f2561573c565b50505b505a612f3261584e565b5050505050158015612f51573d6000803e3d6000612f4e61573c565b50505b505050506040513d6020811015612f7057600080612f6d61573c565b50505b810190808051935060009250829150612f8a905085612a6f565b909250905080841115612fdf5760405162461bcd60e51b815260206004820152601060248201526f34b73b30b634b210333930b1ba34b7b760811b604482015260640160405180910390612fdc61573c565b50505b612fe98284614f8c565b8411156130455760405162461bcd60e51b815260206004820152601960248201527f657863656564656420616c6c6f77656420696e6372656173650000000000000060448201526064016040518091039061304261573c565b50505b60008060396130526157a7565b906101000a90046001600160a01b03166001600160a01b031663ebee461d6040518163ffffffff1660e01b81526004016020604051808303818680613095615802565b1580156130aa576000806130a761573c565b50505b505a6130b461584e565b50505050501580156130d3573d6000803e3d60006130d061573c565b50505b505050506040513d60208110156130f2576000806130ef61573c565b50505b8101908080519350879250829150603e905061310c61597f565b505050805a613119615a93565b0180603f61312561597f565b5050507f4db9119741646c419f1ceccdf112b5b9a9b4516355e742e1fa9c479f4dec98da85603f6131546157a7565b60405191825260208201526040908101905180910390a1505050505050565b6000603361317f6157a7565b906101000a90046001600160a01b03166001600160a01b03165a6131a1615939565b6001600160a01b0316146131f35760405162461bcd60e51b815260206004820152600c60248201526b37b7363c9036b0b730b3b2b960a11b6044820152606401604051809103906131f061573c565b50505b60005b81518110156128605761320e82828151811061282657fe5b1561321857613234565b61323482828151811061322757fe5b6020026020010151614feb565b6001016131f6565b60008060336132496157a7565b906101000a90046001600160a01b03166001600160a01b03165a61326b615939565b6001600160a01b031614806132b45750600060376132876157a7565b906101000a90046001600160a01b03166001600160a01b03165a6132a9615939565b6001600160a01b0316145b6133065760405162461bcd60e51b815260206004820152601660248201527537b7363c9036b0b730b3b2b91037b9103a3930b232b960511b60448201526064016040518091039061330361573c565b50505b6001600160a01b0383166133695760405162461bcd60e51b815260206004820152601c60248201527f6e6f6e2d7a65726f20616464726573732069732072657175697265640000000060448201526064016040518091039061336661573c565b50505b60008060396133766157a7565b906101000a90046001600160a01b03166001600160a01b0316637027ea6c856040516001600160e01b031960e084901b1681526001600160a01b03909116600482015260240160206040518083038186806133cf615802565b1580156133e4576000806133e161573c565b50505b505a6133ee61584e565b505050505015801561340d573d6000803e3d600061340a61573c565b50505b505050506040513d602081101561342c5760008061342961573c565b50505b81019080805193505050506001600160a01b0381166134905760405162461bcd60e51b815260206004820152601360248201527234b73b30b634b2103232b9ba34b730ba34b7b760691b60448201526064016040518091039061348d61573c565b50505b600080600080846001600160a01b031663e23ff4375a63996d79a5598160e01b8152602081600483336000905af158600e01573d6000803e3d6000fd5b3d6001141558600a015760016000f35b8051925060005b60408110156134fb576000828201526020016134e4565b505050896040518363ffffffff1660e01b815260040180836001600160a01b0316815260200180602001828103825283818151815260200191508051906020019080838360005b8381101561355a578082015183820152602001613542565b50505050905090810190601f1680156135875780820380516001836020036101000a031916815260200191505b50935050505060806040518083038186806135a0615802565b1580156135b5576000806135b261573c565b50505b505a6135bf61584e565b50505050501580156135de573d6000803e3d60006135db61573c565b50505b505050506040513d60808110156135fd576000806135fa61573c565b50505b81019080805192919060200180519291906020018051929190602001805195995093975091955092935050505060ff841660021415613661576136538861364385611b25565b8461364d85611b25565b8b615077565b6001955050505050506119ab565b6000886001600160a01b0316886040518082805190602001908083835b6020831061369d5780518252601f19909201916020918201910161367e565b6001836020036101000a0380198251168184511680821785525050505050509050019150506000604051808303816000865a6136d76159cd565b5050505050509150503d806000811461370c576040513d603f01601f191681016040523d815291503d6000602084013e613711565b606091505b50909150506001811515146137755760405162461bcd60e51b815260206004820152601a60248201527f6661696c656420746f2065786563757465207468652063616c6c00000000000060448201526064016040518091039061377261573c565b50505b50600198975050505050505050565b603f611e066157a7565b6000603361379a6157a7565b906101000a90046001600160a01b03166001600160a01b03165a6137bc615939565b6001600160a01b03161461380e5760405162461bcd60e51b815260206004820152600c60248201526b37b7363c9036b0b730b3b2b960a11b60448201526064016040518091039061380b61573c565b50505b6000603760018161381d6157a7565b816001600160a01b0302191690836001600160a01b031602179061383f61597f565b505050565b603d6020528060005260406000206000915061385e6157a7565b906101000a900460ff1681565b60006120c8838360200260040160ff166020614213565b603e611e066157a7565b60008061389883612b4e565b905080156138aa576001915050611b27565b50600092915050565b6000603a806138c06157a7565b91505090565b600060336138d26157a7565b906101000a90046001600160a01b03166001600160a01b03165a6138f4615939565b6001600160a01b0316146139465760405162461bcd60e51b815260206004820152600c60248201526b37b7363c9036b0b730b3b2b960a11b60448201526064016040518091039061394361573c565b50505b603f6139506157a7565b5a613959615a93565b10156139b45760405162461bcd60e51b815260206004820152601960248201527f66656520696e6372656173652064656c617920616374697665000000000000006044820152606401604051809103906139b161573c565b50505b6139c781603e6139c26157a7565b6152e6565b600080603e6139d461597f565b5050506000603f8190611afd61597f565b6000806139fd848460200260040160ff166020614213565b9050613a0e84600483016020614213565b949350505050565b6060603580613a236157a7565b806020026020016040519081016040528181529190602083018280613a466157a7565b8015613a9357602002820191906000526020600020905b600082613a686157a7565b906101000a90046001600160a01b03166001600160a01b031681526020019060010190808311613a5d575b5050505050905090565b603c6020528060005260406000206000915061385e6157a7565b60006035806138c06157a7565b60006033613ad06157a7565b906101000a90046001600160a01b03166001600160a01b03165a613af2615939565b6001600160a01b031614613b445760405162461bcd60e51b815260206004820152600c60248201526b37b7363c9036b0b730b3b2b960a11b604482015260640160405180910390613b4161573c565b50505b806037600181611adb6157a7565b60006033613b5e6157a7565b906101000a90046001600160a01b03166001600160a01b03165a613b80615939565b6001600160a01b031614613bd25760405162461bcd60e51b815260206004820152600c60248201526b37b7363c9036b0b730b3b2b960a11b604482015260640160405180910390613bcf61573c565b50505b600080603e613bdf61597f565b5050506000603f8190613bf061597f565b5050507fc6f04bf43cbdf1ba5d51b4afa160bb3c7e13858b1409aa32868b239bb2f8d84960405160405180910390a1565b6001600160a01b03811660009081526036602052604081206127836157a7565b60006119ab82600060046129e6565b6000603961144e6157a7565b603a8181613c686157a7565b8110613c7057fe5b906000526020600020016000915061144e6157a7565b60006033613c926157a7565b906101000a90046001600160a01b03166001600160a01b03165a613cb4615939565b6001600160a01b031614613d065760405162461bcd60e51b815260206004820152600c60248201526b37b7363c9036b0b730b3b2b960a11b604482015260640160405180910390613d0361573c565b50505b613d0f81613c21565b15613d1957611841565b61184181614feb565b60016000613d2e6157a7565b906101000a900460ff1680613d465750613d46615539565b80613d635750600080613d576157a7565b906101000a900460ff16155b613da75760405162461bcd60e51b815260040180806020018281038252602e815260200180615be5602e913960400191505060405180910390613da461573c565b50505b6000600181613db46157a7565b906101000a900460ff161590508015613e1a576001600061010081613dd76157a7565b8160ff02191690831515021790613dec61597f565b50505060016000806101000a81613e016157a7565b8160ff02191690831515021790613e1661597f565b5050505b613e2485856155aa565b856039600181613e326157a7565b816001600160a01b0302191690836001600160a01b0316021790613e5461597f565b50505082603860006101000a81613e696157a7565b816001600160a01b0302191690836001600160a01b0316021790613e8b61597f565b50505060005b82518160ff161015613ec457613ebc838260ff1681518110613eaf57fe5b6020026020010151614a73565b600101613e91565b506000613ed7631cd554d160e21b611e09565b90506001600160a01b03811615613f3057613ef181614a73565b6001600160a01b0381166000908152603d60205260019060409020600181613f176157a7565b8160ff02191690831515021790613f2c61597f565b5050505b508015613f5f5760008061010081613f466157a7565b8160ff02191690831515021790613f5b61597f565b5050505b505050505050565b6000806038613f746157a7565b906101000a90046001600160a01b03166001600160a01b03166321f8a7216c45786368616e6765526174657360981b6040516001600160e01b031960e084901b16815260048101919091526024016020604051808303818680613fd5615802565b158015613fea57600080613fe761573c565b50505b505a613ff461584e565b5050505050158015614013573d6000803e3d600061401061573c565b50505b505050506040513d60208110156140325760008061402f61573c565b50505b8101908080516001600160a01b0316925063654a60ac9150614055905084612b4e565b846001600160a01b03166370a082315a63996d79a5598160e01b8152602081600483336000905af158600e01573d6000803e3d6000fd5b3d6001141558600a015760016000f35b8051925060005b60408110156140ba576000828201526020016140a3565b5050506040516001600160e01b031960e084901b1681526001600160a01b03909116600482015260240160206040518083038186806140f7615802565b15801561410c5760008061410961573c565b50505b505a61411661584e565b5050505050158015614135573d6000803e3d600061413261573c565b50505b505050506040513d60208110156141545760008061415161573c565b50505b8101908080519250631cd554d160e21b915060409050516001600160e01b031960e086901b16815260048101939093526024830191909152604482015260640160206040518083038186806141a7615802565b1580156141bc576000806141b961573c565b50505b505a6141c661584e565b50505050501580156141e5573d6000803e3d60006141e261573c565b50505b505050506040513d60208110156142045760008061420161573c565b50505b81019080805195945050505050565b6000818301845110156142755760405162461bcd60e51b815260206004820152601b60248201527f52656164696e67206279746573206f7574206f6620626f756e6473000000000060448201526064016040518091039061427261573c565b50505b826020018401519050816020038015612a675760080260020a90049392505050565b6060603a806142a46157a7565b8060200260200160405190810160405281815291906020830182806142c76157a7565b8015613a9357602002820191906000526020600020905b6000826142e96157a7565b906101000a90046001600160a01b03166001600160a01b0316815260200190600101908083116142de575050505050905090565b600080603e61432a6157a7565b603f6143346157a7565b915091509091565b60608060606000603a8061434e6157a7565b9050905060608167ffffffffffffffff811180156143745760008061437161573c565b50505b5060405190808252806020026020018201604052801561439e578160200160208202803683370190505b50905060608267ffffffffffffffff811180156143c3576000806143c061573c565b50505b506040519080825280602002602001820160405280156143ed578160200160208202803683370190505b50905060608367ffffffffffffffff811180156144125760008061440f61573c565b50505b5060405190808252806020026020018201604052801561443c578160200160208202803683370190505b509050600080603861444c6157a7565b906101000a90046001600160a01b03166001600160a01b03166321f8a7216c45786368616e6765526174657360981b6040516001600160e01b031960e084901b168152600481019190915260240160206040518083038186806144ad615802565b1580156144c2576000806144bf61573c565b50505b505a6144cc61584e565b50505050501580156144eb573d6000803e3d60006144e861573c565b50505b505050506040513d602081101561450a5760008061450761573c565b50505b81019080805193506000925050505b8581101561476f576000603a828161452f6157a7565b811061453757fe5b9060005260206000200160009061454c6157a7565b906101000a90046001600160a01b03169050806001600160a01b03166370a082315a63996d79a5598160e01b8152602081600483336000905af158600e01573d6000803e3d6000fd5b3d6001141558600a015760016000f35b8051925060005b60408110156145c3576000828201526020016145ac565b5050506040516001600160e01b031960e084901b1681526001600160a01b0390911660048201526024016020604051808303818680614600615802565b1580156146155760008061461261573c565b50505b505a61461f61584e565b505050505015801561463e573d6000803e3d600061463b61573c565b50505b505050506040513d602081101561465d5760008061465a61573c565b50505b81019080805192508791508490508151811061467557fe5b6020026020010181815250508086838151811061468e57fe5b6001600160a01b039283166020918202929092010152831663ac82f6086146b483612b4e565b6040516001600160e01b031960e084901b168152600481019190915260240160206040518083038186806146e6615802565b1580156146fb576000806146f861573c565b50505b505a61470561584e565b5050505050158015614724573d6000803e3d600061472161573c565b50505b505050506040513d60208110156147435760008061474061573c565b50505b81019080805192508691508490508151811061475b57fe5b602090810291909101015250600101614519565b509297919650945092505050565b606060348061478a6157a7565b600181600116156101000203166002900480601f0160208091040260200160405190810160405281815291906020830182806147c46157a7565b60018160011615610100020316600290048015613a935780601f106147fe5761010080836147f06157a7565b040283529160200191613a93565b820191906000526020600020905b816148156157a7565b8152906001019060200180831161480c57509395945050505050565b6000603a8061483e6157a7565b6001600160a01b0384166000908152603b602052909250905061486e6001604083206148686157a7565b906155f1565b90506000603a61487f8460016155f1565b816148886157a7565b811061489057fe5b906000526020600020016000906148a56157a7565b906101000a90046001600160a01b0316905080603a83816148c46157a7565b81106148cc57fe5b906000526020600020016001816148e16157a7565b816001600160a01b0302191690836001600160a01b031602179061490361597f565b5061491391508390506001614f8c565b6001600160a01b0382166000908152603b60205260409020819061493561597f565b5050506001600160a01b0384166000908152603b60205260408120819061495a61597f565b505050603a806149686157a7565b8061496f57fe5b6001900381819060005260206000200160018161498a6157a7565b906001600160a01b030219169061499f61597f565b5050906149aa61597f565b50507f9b4f55639e5e283319baee5bc4e69a5625a8e3a1cc004af968f4fee7250220275a63996d79a5598160e01b8152602081600483336000905af158600e01573d6000803e3d6000fd5b3d6001141558600a015760016000f35b8051925060005b6040811015614a2357600082820152602001614a0c565b505050614a2e612864565b8660405180846001600160a01b03168152602001836001600160a01b03168152602001826001600160a01b03168152602001935050505060405180910390a150505050565b60006039614a7f6157a7565b906101000a90046001600160a01b03166001600160a01b031663aa12ae4d6040518163ffffffff1660e01b81526004016020604051808303818680614ac2615802565b158015614ad757600080614ad461573c565b50505b505a614ae161584e565b5050505050158015614b00573d6000803e3d6000614afd61573c565b50505b505050506040513d6020811015614b1f57600080614b1c61573c565b50505b8101908080519250603a9150819050614b366157a7565b905010614b8b5760405162461bcd60e51b81526020600482015260166024820152751b585e1a5b5d5b48185cdcd95d1cc81c995858da195960521b604482015260640160405180910390614b8861573c565b50505b614b9481612763565b15614bee5760405162461bcd60e51b815260206004820152601760248201527f617373657420616c726561647920737570706f72746564000000000000000000604482015260640160405180910390614beb61573c565b50505b614bf78161388c565b1515600114614c455760405162461bcd60e51b815260206004820152600d60248201526c1a5b9d985b1a5908185cdcd95d609a1b604482015260640160405180910390614c4261573c565b50505b80603a80600181614c546157a7565b018082614c5f61597f565b505060009283526000190191602091502001600181614c7c6157a7565b816001600160a01b0302191690836001600160a01b0316021790614c9e61597f565b505050603a80614cac6157a7565b6001600160a01b0383166000908152603b602052909150604090208190614cd161597f565b5050506001600160a01b0381166000908152603c60205260019060409020600181614cfa6157a7565b8160ff02191690831515021790614d0f61597f565b5050507f0a7426a0630aad7dbc4d5ca5b7d9aac1133d77d2db987caaf4b4186c85d6593f5a63996d79a5598160e01b8152602081600483336000905af158600e01573d6000803e3d6000fd5b3d6001141558600a015760016000f35b8051925060005b6040811015614d8957600082820152602001614d72565b505050614d94612864565b8360405180846001600160a01b03168152602001836001600160a01b03168152602001826001600160a01b03168152602001935050505060405180910390a150565b6000603580614de36157a7565b6001600160a01b038416600090815260366020529092509050614e0d6001604083206148686157a7565b905060006035614e1e8460016155f1565b81614e276157a7565b8110614e2f57fe5b90600052602060002001600090614e446157a7565b906101000a90046001600160a01b031690508060358381614e636157a7565b8110614e6b57fe5b90600052602060002001600181614e806157a7565b816001600160a01b0302191690836001600160a01b0316021790614ea261597f565b50614eb291508390506001614f8c565b6001600160a01b03821660009081526036602052604090208190614ed461597f565b5050506001600160a01b03841660009081526036602052604081208190614ef961597f565b505050603580614f076157a7565b80614f0e57fe5b60019003818190600052602060002001600181614f296157a7565b906001600160a01b0302191690614f3e61597f565b505090613f5f61597f565b6000807fc5d2460186f7233c927e7db2dcc703c0e500b653ca82273b7bfad8045d85a47083614f76615b79565b9150808214158015613a0e575050151592915050565b6000828201838110156120c85760405162461bcd60e51b815260206004820152601b60248201527f536166654d6174683a206164646974696f6e206f766572666c6f7700000000006044820152606401604051809103906120c561573c565b80603580600181614ffa6157a7565b01808261500561597f565b5050600092835260001901916020915020016001816150226157a7565b816001600160a01b0302191690836001600160a01b031602179061504461597f565b5050506035806150526157a7565b6001600160a01b03831660009081526036602052909150604090208190611afd61597f565b61508084612763565b6150d45760405162461bcd60e51b81526020600482015260186024820152771d5b9cdd5c1c1bdc9d1959081cdbdd5c98d948185cdcd95d60421b6044820152606401604051809103906150d161573c565b50505b6150dd82612763565b6151365760405162461bcd60e51b815260206004820152601d60248201527f756e737570706f727465642064657374696e6174696f6e20617373657400000060448201526064016040518091039061513361573c565b50505b60006060866001600160a01b0316836040518082805190602001908083835b602083106151745780518252601f199092019160209182019101615155565b6001836020036101000a0380198251168184511680821785525050505050509050019150506000604051808303816000865a6151ae6159cd565b5050505050509150503d80600081146151e3576040513d603f01601f191681016040523d815291503d6000602084013e6151e8565b606091505b50909250905060018215151461524d5760405162461bcd60e51b815260206004820152601a60248201527f6661696c656420746f20657865637574652065786368616e676500000000000060448201526064016040518091039061524a61573c565b50505b7f2083d2b241ef1ec859ae0402864fd9fe9d6d36b18c73615625b46acaf113be785a63996d79a5598160e01b8152602081600483336000905af158600e01573d6000803e3d6000fd5b3d6001141558600a015760016000f35b8051925060005b60408110156152c4576000828201526020016152ad565b5050506152cf612864565b8888886152dd876000615631565b5a612618615a93565b600060396152f26157a7565b906101000a90046001600160a01b03166001600160a01b031663046b72c483836040516001600160e01b031960e085901b1681526001600160a01b039092166004830152602482015260440160006040518083038160008780615353615802565b1580156153685760008061536561573c565b50505b505a6153726159cd565b505050505050158015615392573d6000803e3d600061538f61573c565b50505b5050505060008060396000906153a66157a7565b906101000a90046001600160a01b03166001600160a01b031663b7a54526856040516001600160e01b031960e084901b1681526001600160a01b039091166004820152602401604080518083038186806153fe615802565b1580156154135760008061541061573c565b50505b505a61541d61584e565b505050505015801561543c573d6000803e3d600061543961573c565b50505b505050506040513d604081101561545b5760008061545861573c565b50505b81019080805192919060200180519395509293507f1780c04ddc6f0b32d866c7a3d7583f53515ef49ed2126af868f804f491601266925050505a63996d79a5598160e01b8152602081600483336000905af158600e01573d6000803e3d6000fd5b3d6001141558600a015760016000f35b8051925060005b60408110156154ea576000828201526020016154d3565b5050506154f5612864565b848460405180856001600160a01b03168152602001846001600160a01b0316815260200183815260200182815260200194505050505060405180910390a150505050565b6000805a63996d79a5598160e01b8152602081600483336000905af158600e01573d6000803e3d6000fd5b3d6001141558600a015760016000f35b8051925060005b60408110156155925760008282015260200161557b565b50505090506000816155a2615802565b159250505090565b8160336001816155b86157a7565b816001600160a01b0302191690836001600160a01b03160217906155da61597f565b50505080603490805161383f929160200190615ad9565b60006120c8838360405160408082019052601e81527f536166654d6174683a207375627472616374696f6e206f766572666c6f770000602082015261569c565b6000816020018351101561568b5760405162461bcd60e51b8152602060048201526014602482015273736c6963696e67206f7574206f662072616e676560601b60448201526064016040518091039061568861573c565b50505b600082602001840151949350505050565b600081848411156157345760405162461bcd60e51b81526004018080602001828103825283818151815260200191508051906020019080838360005b838110156156f05780820151838201526020016156d8565b50505050905090810190601f16801561571d5780820380516001836020036101000a031916815260200191505b50925050506040518091039061573161573c565b50505b505050900390565b632a2a7adb598160e01b8152600481016020815285602082015260005b86811015615774578086015182820160400152602001615759565b506020828760640184336000905af158600e01573d6000803e3d6000fd5b3d6001141558600a015760016000f35b505050565b6303daa959598160e01b8152836004820152602081602483336000905af158600e01573d6000803e3d6000fd5b3d6001141558600a015760016000f35b8051935060005b604081101561383f576000828201526020016157eb565b638435035b598160e01b8152836004820152602081602483336000905af158600e01573d6000803e3d6000fd5b3d6001141558600a015760016000f35b805160008252935060206157eb565b638540661f598160e01b815261587f565b80808311156119ab575090919050565b80808310156119ab575090919050565b836004820152846024820152606060448201528660648201526084810160005b888110156158b757808801518282015260200161589f565b506060828960a40184336000905af158600e01573d6000803e3d6000fd5b3d6001141558600a015760016000f35b815160408301513d6000853e8b8b82606087013350600060045af1505961590c8d3d61586f565b8c01615918818761585f565b5b8281101561592d5760008152602001615919565b50929c50505050505050565b6373509064598160e01b8152602081600483336000905af158600e01573d6000803e3d6000fd5b3d6001141558600a015760016000f35b805160008252935060206157eb565b6322bd64c0598160e01b8152836004820152846024820152600081604483336000905af158600e01573d6000803e3d6000fd5b3d6001141558600a015760016000f35b6000815260206157eb565b6385979f76598160e01b8152836004820152846024820152606060448201528760648201526084810160005b89811015615a115780890151828201526020016159f9565b506060828a60a40184336000905af158600e01573d6000803e3d6000fd5b3d6001141558600a015760016000f35b815160408301513d6000853e8c8c82606087013350600060045af15059615a668e3d61586f565b8d01615a72818761585f565b5b82811015615a875760008152602001615a73565b50929d50505050505050565b63bdbf8c36598160e01b8152602081600483336000905af158600e01573d6000803e3d6000fd5b3d6001141558600a015760016000f35b805160008252935060206157eb565b8280615ae36157a7565b600181600116156101000203166002900490600052602060002090601f016020900481019282601f10615b2a57805160ff19168380011785615b2361597f565b5050615b69565b82800160010185615b3961597f565b50508215615b69579182015b82811115615b6957825182615b5861597f565b505091602001919060010190615b45565b50615b75929150615bc5565b5090565b6324749d5c598160e01b8152836004820152602081602483336000905af158600e01573d6000803e3d6000fd5b3d6001141558600a015760016000f35b805160008252935060206157eb565b80821115615b755760008082615bd961597f565b505050600101615bc556fe436f6e747261637420696e7374616e63652068617320616c7265616479206265656e20696e697469616c697a6564",
  "deployedBytecode": "0x60806040523480156100195760008061001661573c565b50505b50600436106102c45760003560e01c80637c8afd511161018b578063b8bd81e6116100f2578063d346cc65116100ab578063e5406dbf11610085578063e5406dbf146112cd578063ed5b165d146112d5578063f09d14d7146112dd578063fed4416a146113c3576102c4565b8063d346cc6514611044578063d8af8ed4146111d2578063db896b5714611201576102c4565b8063b8bd81e614610ee9578063bbbf725b14610ef1578063c3c6279f14610f20578063c45a015514610fe7578063c68dbb3714610fef578063ca6d56dc14611015576102c4565b8063969eed2711610144578063969eed2714610d2d578063998546e314610d5c5780639eab525314610e28578063a0f8414c14610e83578063a30e3fa914610eb2578063a6bc18f914610eba576102c4565b80637c8afd5114610beb57806380dd4f6214610bf357806382f86acc14610c225780638f32343914610cee5780639240d29914610cf6578063936553c414610d25576102c4565b806341dc16c31161022f5780635f6eceab116101e85780635f6eceab1461099c5780636141db90146109e35780636708f5d714610a125780636f4d469b14610a475780637ae7cfb514610b0c5780637b4d0c6314610be3576102c4565b806341dc16c3146105f5578063464b4158146106cc57806346ee84b01461070f578063481c6a75146107d457806352213663146107dc578063568b5a2f146108b3576102c4565b80631758078b116102815780631758078b146104925780631eba30771461049a57806321f8c984146104c05780633c570d7d146105615780633ded6530146105905780633f452dab146105b6576102c4565b806305a2ee2a146102d257806306468587146102f6578063093b88251461032757806309ff5c7d146103565780630b1ca49a146104345780631430238714610463575b6000806102cf61573c565b50505b6102da611442565b6040516001600160a01b03909116815260200160405180910390f35b610325600480360360208110156103155760008061031261573c565b50505b50356001600160a01b0316611461565b005b610325600480360360208110156103465760008061034361573c565b50505b50356001600160a01b0316611844565b610422600480360360408110156103755760008061037261573c565b50505b810190602081018135600160201b8111156103985760008061039561573c565b50505b8201836020820111156103b3576000806103b061573c565b50505b803590602001918460018302840111600160201b831117156103dd576000806103da61573c565b50505b91908080601f01602080910402602001604051908101604052818152929190602084018383808284376000920191909152509295505050903560ff1691506119169050565b60405190815260200160405180910390f35b610325600480360360208110156104535760008061045061573c565b50505b50356001600160a01b03166119b1565b610325600480360360208110156104825760008061047f61573c565b50505b50356001600160a01b0316611a4c565b6102da611b03565b6102da600480360360208110156104b9576000806104b661573c565b50505b5035611b25565b6104c8611b2c565b604051808060200180602001838103835285818151815260200191508051906020019060200280838360005b8381101561050c5780820151838201526020016104f4565b50505050905001838103825284818151815260200191508051906020019060200280838360005b8381101561054b578082015183820152602001610533565b5050505090500194505050505060405180910390f35b610422600480360360208110156105805760008061057d61573c565b50505b50356001600160a01b0316611dee565b6102da600480360360208110156105af576000806105ac61573c565b50505b5035611e09565b610325600480360360608110156105d5576000806105d261573c565b50505b506001600160a01b038135811691602081013591604090910135166120cf565b610422600480360360608110156106145760008061061161573c565b50505b810190602081018135600160201b8111156106375760008061063461573c565b50505b8201836020820111156106525760008061064f61573c565b50505b803590602001918460018302840111600160201b8311171561067c5760008061067961573c565b50505b91908080601f01602080910402602001604051908101604052818152929190602084018383808284376000920191909152509295505060ff833581169450602090930135909216915061266b9050565b6106fb600480360360208110156106eb576000806106e861573c565b50505b50356001600160a01b0316612763565b604051901515815260200160405180910390f35b6103256004803603602081101561072e5760008061072b61573c565b50505b810190602081018135600160201b8111156107515760008061074e61573c565b50505b82018360208201111561076c5760008061076961573c565b50505b803590602001918460208302840111600160201b831117156107965760008061079361573c565b50505b91908080602002602001604051908101604052809392919081815260200183836020028082843760009201919091525092955061278b945050505050565b6102da612864565b610325600480360360408110156107fb576000806107f861573c565b50505b6001600160a01b038235169190810190604081016020820135600160201b81111561082e5760008061082b61573c565b50505b8201836020820111156108495760008061084661573c565b50505b803590602001918460018302840111600160201b831117156108735760008061087061573c565b50505b91908080601f0160208091040260200160405190810160405281815292919060208401838380828437600092019190915250929550612871945050505050565b61097f600480360360608110156108d2576000806108cf61573c565b50505b810190602081018135600160201b8111156108f5576000806108f261573c565b50505b8201836020820111156109105760008061090d61573c565b50505b803590602001918460018302840111600160201b8311171561093a5760008061093761573c565b50505b91908080601f016020809104026020016040519081016040528181529291906020840183838082843760009201919091525092955050823593505050602001356129e6565b6040516001600160e01b0319909116815260200160405180910390f35b6109cb600480360360208110156109bb576000806109b861573c565b50505b50356001600160a01b0316612a6f565b60405191825260208201526040908101905180910390f35b61042260048036036020811015610a02576000806109ff61573c565b50505b50356001600160a01b0316612b4e565b61032560048036036040811015610a3157600080610a2e61573c565b50505b506001600160a01b038135169060200135612e43565b61032560048036036020811015610a6657600080610a6361573c565b50505b810190602081018135600160201b811115610a8957600080610a8661573c565b50505b820183602082011115610aa457600080610aa161573c565b50505b803590602001918460208302840111600160201b83111715610ace57600080610acb61573c565b50505b919080806020026020016040519081016040528093929190818152602001838360200280828437600092019190915250929550613173945050505050565b6106fb60048036036040811015610b2b57600080610b2861573c565b50505b6001600160a01b038235169190810190604081016020820135600160201b811115610b5e57600080610b5b61573c565b50505b820183602082011115610b7957600080610b7661573c565b50505b803590602001918460018302840111600160201b83111715610ba357600080610ba061573c565b50505b91908080601f016020809104026020016040519081016040528181529291906020840183838082843760009201919091525092955061323c945050505050565b610422613784565b61032561378e565b6106fb60048036036020811015610c1257600080610c0f61573c565b50505b50356001600160a01b0316613844565b61042260048036036040811015610c4157600080610c3e61573c565b50505b810190602081018135600160201b811115610c6457600080610c6161573c565b50505b820183602082011115610c7f57600080610c7c61573c565b50505b803590602001918460018302840111600160201b83111715610ca957600080610ca661573c565b50505b91908080601f01602080910402602001604051908101604052818152929190602084018383808284376000920191909152509295505050903560ff16915061386b9050565b610422613882565b6106fb60048036036020811015610d1557600080610d1261573c565b50505b50356001600160a01b031661388c565b6104226138b3565b61032560048036036020811015610d4c57600080610d4961573c565b50505b50356001600160a01b03166138c6565b61042260048036036040811015610d7b57600080610d7861573c565b50505b810190602081018135600160201b811115610d9e57600080610d9b61573c565b50505b820183602082011115610db957600080610db661573c565b50505b803590602001918460018302840111600160201b83111715610de357600080610de061573c565b50505b91908080601f01602080910402602001604051908101604052818152929190602084018383808284376000920191909152509295505050903560ff1691506139e59050565b610e30613a16565b60405160208082528190810183818151815260200191508051906020019060200280838360005b83811015610e6f578082015183820152602001610e57565b505050509050019250505060405180910390f35b6106fb60048036036020811015610ea257600080610e9f61573c565b50505b50356001600160a01b0316613a9d565b610422613ab7565b61032560048036036020811015610ed957600080610ed661573c565b50505b50356001600160a01b0316613ac4565b610325613b52565b6106fb60048036036020811015610f1057600080610f0d61573c565b50505b50356001600160a01b0316613c21565b61097f60048036036020811015610f3f57600080610f3c61573c565b50505b810190602081018135600160201b811115610f6257600080610f5f61573c565b50505b820183602082011115610f7d57600080610f7a61573c565b50505b803590602001918460018302840111600160201b83111715610fa757600080610fa461573c565b50505b91908080601f0160208091040260200160405190810160405281815292919060208401838380828437600092019190915250929550613c41945050505050565b6102da613c50565b6102da6004803603602081101561100e5760008061100b61573c565b50505b5035613c5c565b610325600480360360208110156110345760008061103161573c565b50505b50356001600160a01b0316613c86565b610325600480360360a08110156110635760008061106061573c565b50505b6001600160a01b038235811692602081013590911691810190606081016040820135600160201b81111561109f5760008061109c61573c565b50505b8201836020820111156110ba576000806110b761573c565b50505b803590602001918460018302840111600160201b831117156110e4576000806110e161573c565b50505b91908080601f016020809104026020016040519081016040528181529291906020840183838082843760009201919091525092956001600160a01b03853516959094909350604081019250602001359050600160201b81111561114f5760008061114c61573c565b50505b82018360208201111561116a5760008061116761573c565b50505b803590602001918460208302840111600160201b831117156111945760008061119161573c565b50505b919080806020026020016040519081016040528093929190818152602001838360200280828437600092019190915250929550613d22945050505050565b610422600480360360208110156111f1576000806111ee61573c565b50505b50356001600160a01b0316613f67565b610422600480360360608110156112205760008061121d61573c565b50505b810190602081018135600160201b8111156112435760008061124061573c565b50505b82018360208201111561125e5760008061125b61573c565b50505b803590602001918460018302840111600160201b831117156112885760008061128561573c565b50505b91908080601f01602080910402602001604051908101604052818152929190602084018383808284376000920191909152509295505082359350505060200135614213565b610e30614297565b6109cb61431d565b6112e561433c565b60405180806020018060200180602001848103845287818151815260200191508051906020019060200280838360005b8381101561132d578082015183820152602001611315565b50505050905001848103835286818151815260200191508051906020019060200280838360005b8381101561136c578082015183820152602001611354565b50505050905001848103825285818151815260200191508051906020019060200280838360005b838110156113ab578082015183820152602001611393565b50505050905001965050505050505060405180910390f35b6113cb61477d565b60405160208082528190810183818151815260200191508051906020019080838360005b838110156114075780820151838201526020016113ef565b50505050905090810190601f1680156114345780820380516001836020036101000a031916815260200191505b509250505060405180910390f35b6000603861144e6157a7565b906101000a90046001600160a01b031681565b6000603961146d6157a7565b906101000a90046001600160a01b03166001600160a01b0316638da5cb5b6040518163ffffffff1660e01b815260040160206040518083038186806114b0615802565b1580156114c5576000806114c261573c565b50505b505a6114cf61584e565b50505050501580156114ee573d6000803e3d60006114eb61573c565b50505b505050506040513d602081101561150d5760008061150a61573c565b50505b8101908080516001600160a01b0316925050505a611529615939565b6001600160a01b0316148061155e5750611541612864565b6001600160a01b03165a611553615939565b6001600160a01b0316145b80611589575061156c611b03565b6001600160a01b03165a61157e615939565b6001600160a01b0316145b6115e25760405162461bcd60e51b815260206004820152601b60248201527f6f6e6c79206d616e616765722c20747261646572206f722044414f00000000006044820152606401604051809103906115df61573c565b50505b6115eb81612763565b61163a5760405162461bcd60e51b8152602060048201526013602482015272185cdcd95d081b9bdd081cdd5c1c1bdc9d1959606a1b60448201526064016040518091039061163761573c565b50505b6001600160a01b0381166000908152603d6020526040902060009061165d6157a7565b906101000a900460ff16156116c15760405162461bcd60e51b815260206004820152601f60248201527f63616e6e6f742072656d6f76652070657273697374656e7420617373657473006044820152606401604051809103906116be61573c565b50505b6116ca8161388c565b15156001141561183857806001600160a01b03166370a082315a63996d79a5598160e01b8152602081600483336000905af158601d01573d60011458600c01573d6000803e3d621234565260ea61109c528051925060005b604081101561173957600082820152602001611722565b5050506040516001600160e01b031960e084901b1681526001600160a01b0390911660048201526024016020604051808303818680611776615802565b15801561178b5760008061178861573c565b50505b505a61179561584e565b50505050501580156117b4573d6000803e3d60006117b161573c565b50505b505050506040513d60208110156117d3576000806117d061573c565b50505b8101908080511592506118389150505760405162461bcd60e51b815260206004820152601d60248201527f63616e6e6f742072656d6f7665206e6f6e2d656d70747920617373657400000060448201526064016040518091039061183561573c565b50505b61184181614831565b50565b600060336118506157a7565b906101000a90046001600160a01b03166001600160a01b03165a611872615939565b6001600160a01b031614806118bb57506000603761188e6157a7565b906101000a90046001600160a01b03166001600160a01b03165a6118b0615939565b6001600160a01b0316145b61190d5760405162461bcd60e51b815260206004820152601660248201527537b7363c9036b0b730b3b2b91037b9103a3930b232b960511b60448201526064016040518091039061190a61573c565b50505b61184181614a73565b60008061192e848460200260040160ff166020614213565b9050600061194185600484016020614213565b9050806119925760405162461bcd60e51b8152602060048201526012602482015271696e707574206973206e6f7420617272617960701b60448201526064016040518091039061198f61573c565b50505b6119a6856020808402850160040190614213565b925050505b92915050565b600060336119bd6157a7565b906101000a90046001600160a01b03166001600160a01b03165a6119df615939565b6001600160a01b031614611a315760405162461bcd60e51b815260206004820152600c60248201526b37b7363c9036b0b730b3b2b960a11b604482015260640160405180910390611a2e61573c565b50505b611a3a81613c21565b611a4357611841565b61184181614dd6565b60006039611a586157a7565b906101000a90046001600160a01b03166001600160a01b03165a611a7a615939565b6001600160a01b031614611acd5760405162461bcd60e51b815260206004820152600d60248201526c3737903832b936b4b9b9b4b7b760991b604482015260640160405180910390611aca61573c565b50505b806038600181611adb6157a7565b816001600160a01b0302191690836001600160a01b0316021790611afd61597f565b50505050565b6000806037611b106157a7565b906101000a90046001600160a01b0316905090565b805b919050565b6060806000603a80611b3c6157a7565b9050905060608167ffffffffffffffff81118015611b6257600080611b5f61573c565b50505b50604051908082528060200260200182016040528015611b8c578160200160208202803683370190505b50905060608267ffffffffffffffff81118015611bb157600080611bae61573c565b50505b50604051908082528060200260200182016040528015611bdb578160200160208202803683370190505b5090506000806038611beb6157a7565b906101000a90046001600160a01b03166001600160a01b03166321f8a7216b53797374656d53746174757360a01b6040516001600160e01b031960e084901b16815260048101919091526024016020604051808303818680611c4b615802565b158015611c6057600080611c5d61573c565b50505b505a611c6a61584e565b5050505050158015611c89573d6000803e3d6000611c8661573c565b50505b505050506040513d6020811015611ca857600080611ca561573c565b50505b81019080805193506000925050505b84811015611de2576000603a8281611ccd6157a7565b8110611cd557fe5b90600052602060002001600090611cea6157a7565b906101000a90046001600160a01b0316905080858381518110611d0957fe5b6001600160a01b03928316602091820292909201015283166342a28e21611d2f83612b4e565b6040516001600160e01b031960e084901b16815260048101919091526024016000604051808303818680611d61615802565b158015611d7657600080611d7361573c565b50505b505a611d8061584e565b5050505050925050508015611d93575060015b611dba576001848381518110611da557fe5b91151560209283029190910190910152611dd9565b6000848381518110611dc857fe5b911515602092830291909101909101525b50600101611cb7565b50919450925050509091565b603b6020528060005260406000209050611e066157a7565b81565b600080806038611e176157a7565b906101000a90046001600160a01b03166001600160a01b03166321f8a721680a6f2dce8d0cae8d2f60bb1b6040516001600160e01b031960e084901b16815260048101919091526024016020604051808303818680611e74615802565b158015611e8957600080611e8661573c565b50505b505a611e9361584e565b5050505050158015611eb2573d6000803e3d6000611eaf61573c565b50505b505050506040513d6020811015611ed157600080611ece61573c565b50505b8101908080516001600160a01b03169250633260803991508590506040516001600160e01b031960e084901b16815260048101919091526024016020604051808303818680611f1e615802565b158015611f3357600080611f3061573c565b50505b505a611f3d61584e565b5050505050158015611f5c573d6000803e3d6000611f5961573c565b50505b505050506040513d6020811015611f7b57600080611f7861573c565b50505b81019080805193505050506001600160a01b038116611fd75760405162461bcd60e51b815260206004820152600b60248201526a696e76616c6964206b657960a81b604482015260640160405180910390611fd461573c565b50505b6000816001600160a01b031663ec5568896040518163ffffffff1660e01b8152600401602060405180830381868061200d615802565b1580156120225760008061201f61573c565b50505b505a61202c61584e565b505050505015801561204b573d6000803e3d600061204861573c565b50505b505050506040513d602081101561206a5760008061206761573c565b50505b81019080805193505050506001600160a01b0381166120c85760405162461bcd60e51b815260206004820152600d60248201526c696e76616c69642070726f787960981b6044820152606401604051809103906120c561573c565b50505b9392505050565b600060336120db6157a7565b906101000a90046001600160a01b03166001600160a01b03165a6120fd615939565b6001600160a01b031614806121465750600060376121196157a7565b906101000a90046001600160a01b03166001600160a01b03165a61213b615939565b6001600160a01b0316145b6121985760405162461bcd60e51b815260206004820152601660248201527537b7363c9036b0b730b3b2b91037b9103a3930b232b960511b60448201526064016040518091039061219561573c565b50505b6121a183612763565b6121f55760405162461bcd60e51b81526020600482015260186024820152771d5b9cdd5c1c1bdc9d1959081cdbdd5c98d948185cdcd95d60421b6044820152606401604051809103906121f261573c565b50505b6121fe81612763565b6122575760405162461bcd60e51b815260206004820152601d60248201527f756e737570706f727465642064657374696e6174696f6e20617373657400000060448201526064016040518091039061225461573c565b50505b600061226284612b4e565b9050600061226f83612b4e565b9050600080603861227e6157a7565b906101000a90046001600160a01b03166001600160a01b03166321f8a721680a6f2dce8d0cae8d2f60bb1b6040516001600160e01b031960e084901b168152600481019190915260240160206040518083038186806122db615802565b1580156122f0576000806122ed61573c565b50505b505a6122fa61584e565b5050505050158015612319573d6000803e3d600061231661573c565b50505b505050506040513d60208110156123385760008061233561573c565b50505b810190808051935060009250506001600160a01b03831690506330ead7608588868560396123646157a7565b906101000a90046001600160a01b03166001600160a01b0316631d68702d6040518163ffffffff1660e01b815260040160206040518083038186806123a7615802565b1580156123bc576000806123b961573c565b50505b505a6123c661584e565b50505050501580156123e5573d6000803e3d60006123e261573c565b50505b505050506040513d60208110156124045760008061240161573c565b50505b8101908080519250600091506039905061241c6157a7565b906101000a90046001600160a01b03166001600160a01b03166349f7c02d6040518163ffffffff1660e01b8152600401602060405180830381868061245f615802565b1580156124745760008061247161573c565b50505b505a61247e61584e565b505050505015801561249d573d6000803e3d600061249a61573c565b50505b505050506040513d60208110156124bc576000806124b961573c565b50505b81019080805192506040915050516001600160e01b031960e088901b1681526004810195909552602485019390935260448401919091526001600160a01b03166064830152608482015260a4016020604051808303816000878061251e615802565b1580156125335760008061253061573c565b50505b505a61253d6159cd565b50505050505015801561255d573d6000803e3d600061255a61573c565b50505b505050506040513d602081101561257c5760008061257961573c565b50505b81019080805193507f2083d2b241ef1ec859ae0402864fd9fe9d6d36b18c73615625b46acaf113be78925050505a63996d79a5598160e01b8152602081600483336000905af158601d01573d60011458600c01573d6000803e3d621234565260ea61109c528051925060005b60408110156125ff576000828201526020016125e8565b5050505a61260b615939565b898989865a612618615a93565b6040516001600160a01b039788168152958716602087015293861660408087019190915260608601939093529416608084015260a083019390935260c082015260e001905180910390a150505050505050565b600080612683858560200260040160ff166020614213565b9050600061269686600484016020614213565b9050806126e75760405162461bcd60e51b8152602060048201526012602482015271696e707574206973206e6f7420617272617960701b6044820152606401604051809103906126e461573c565b50505b60ff8416811161273f5760405162461bcd60e51b815260206004820152601660248201527534b73b30b634b21030b93930bc903837b9b4ba34b7b760511b60448201526064016040518091039061273c61573c565b50505b612759866020600160ff8816018102850160040190614213565b9695505050505050565b6001600160a01b0381166000908152603b602052604081206127836157a7565b151592915050565b600060336127976157a7565b906101000a90046001600160a01b03166001600160a01b03165a6127b9615939565b6001600160a01b03161461280b5760405162461bcd60e51b815260206004820152600c60248201526b37b7363c9036b0b730b3b2b960a11b60448201526064016040518091039061280861573c565b50505b60005b81518110156128605761283382828151811061282657fe5b6020026020010151613c21565b61283c57612858565b61285882828151811061284b57fe5b6020026020010151614dd6565b60010161280e565b5050565b6000806033611b106157a7565b6000603361287d6157a7565b906101000a90046001600160a01b03166001600160a01b03165a61289f615939565b6001600160a01b0316146128f15760405162461bcd60e51b815260206004820152600c60248201526b37b7363c9036b0b730b3b2b960a11b6044820152606401604051809103906128ee61573c565b50505b8160336001816128ff6157a7565b816001600160a01b0302191690836001600160a01b031602179061292161597f565b505050806034908051612938929160200190615ad9565b507f6ed15082ad038474841528b5badca105106d4463e44b5d434130dfb299aa366982826040516001600160a01b038316815260406020820181815290820183818151815260200191508051906020019080838360005b838110156129a757808201518382015260200161298f565b50505050905090810190601f1680156129d45780820380516001836020036101000a031916815260200191505b50935050505060405180910390a15050565b600081830184511015612a485760405162461bcd60e51b815260206004820152601b60248201527f52656164696e67206279746573206f7574206f6620626f756e64730000000000604482015260640160405180910390612a4561573c565b50505b826020018401519050816004038015612a67576008810260020a820491505b509392505050565b600080806039612a7d6157a7565b906101000a90046001600160a01b03166001600160a01b031663b7a54526846040516001600160e01b031960e084901b1681526001600160a01b03909116600482015260240160408051808303818680612ad5615802565b158015612aea57600080612ae761573c565b50505b505a612af461584e565b5050505050158015612b13573d6000803e3d6000612b1061573c565b50505b505050506040513d6040811015612b3257600080612b2f61573c565b50505b8101908080519291906020018051939550929350505050915091565b6000612b62826001600160a01b0316614f49565b612bad5760405162461bcd60e51b815260206004820152600f60248201526e1b9bdb8b5cde5b9d1a08185cdcd95d608a1b604482015260640160405180910390612baa61573c565b50505b816001600160a01b031663d4b839926040518163ffffffff1660e01b81526004016020604051808303818680612be1615802565b158015612bf657600080612bf361573c565b50505b505a612c0061584e565b5050505050925050508015612c3957506040513d6020811015612c2b57600080612c2861573c565b50505b810190808051925060019150505b612cb9573d808015612c67576040513d603f01601f191681016040523d815291503d6000602084013e612c6c565b606091505b5060405162461bcd60e51b815260206004820152600f60248201526e1b9bdb8b5cde5b9d1a08185cdcd95d608a1b604482015260640160405180910390612cb161573c565b505050611b27565b60006038612cc56157a7565b906101000a90046001600160a01b03166001600160a01b03166321f8a721680a6f2dce8d0cae8d2f60bb1b6040516001600160e01b031960e084901b16815260048101919091526024016020604051808303818680612d22615802565b158015612d3757600080612d3461573c565b50505b505a612d4161584e565b5050505050158015612d60573d6000803e3d6000612d5d61573c565b50505b505050506040513d6020811015612d7f57600080612d7c61573c565b50505b8101908080516001600160a01b031692506316b2213f91508390506040516001600160e01b031960e084901b1681526001600160a01b0390911660048201526024016020604051808303818680612dd4615802565b158015612de957600080612de661573c565b50505b505a612df361584e565b5050505050158015612e12573d6000803e3d6000612e0f61573c565b50505b505050506040513d6020811015612e3157600080612e2e61573c565b50505b8101908080519450611b279350505050565b60006033612e4f6157a7565b906101000a90046001600160a01b03166001600160a01b03165a612e71615939565b6001600160a01b031614612ec35760405162461bcd60e51b815260206004820152600c60248201526b37b7363c9036b0b730b3b2b960a11b604482015260640160405180910390612ec061573c565b50505b6000806039612ed06157a7565b906101000a90046001600160a01b03166001600160a01b0316635c9bfc2b6040518163ffffffff1660e01b81526004016020604051808303818680612f13615802565b158015612f2857600080612f2561573c565b50505b505a612f3261584e565b5050505050158015612f51573d6000803e3d6000612f4e61573c565b50505b505050506040513d6020811015612f7057600080612f6d61573c565b50505b810190808051935060009250829150612f8a905085612a6f565b909250905080841115612fdf5760405162461bcd60e51b815260206004820152601060248201526f34b73b30b634b210333930b1ba34b7b760811b604482015260640160405180910390612fdc61573c565b50505b612fe98284614f8c565b8411156130455760405162461bcd60e51b815260206004820152601960248201527f657863656564656420616c6c6f77656420696e6372656173650000000000000060448201526064016040518091039061304261573c565b50505b60008060396130526157a7565b906101000a90046001600160a01b03166001600160a01b031663ebee461d6040518163ffffffff1660e01b81526004016020604051808303818680613095615802565b1580156130aa576000806130a761573c565b50505b505a6130b461584e565b50505050501580156130d3573d6000803e3d60006130d061573c565b50505b505050506040513d60208110156130f2576000806130ef61573c565b50505b8101908080519350879250829150603e905061310c61597f565b505050805a613119615a93565b0180603f61312561597f565b5050507f4db9119741646c419f1ceccdf112b5b9a9b4516355e742e1fa9c479f4dec98da85603f6131546157a7565b60405191825260208201526040908101905180910390a1505050505050565b6000603361317f6157a7565b906101000a90046001600160a01b03166001600160a01b03165a6131a1615939565b6001600160a01b0316146131f35760405162461bcd60e51b815260206004820152600c60248201526b37b7363c9036b0b730b3b2b960a11b6044820152606401604051809103906131f061573c565b50505b60005b81518110156128605761320e82828151811061282657fe5b1561321857613234565b61323482828151811061322757fe5b6020026020010151614feb565b6001016131f6565b60008060336132496157a7565b906101000a90046001600160a01b03166001600160a01b03165a61326b615939565b6001600160a01b031614806132b45750600060376132876157a7565b906101000a90046001600160a01b03166001600160a01b03165a6132a9615939565b6001600160a01b0316145b6133065760405162461bcd60e51b815260206004820152601660248201527537b7363c9036b0b730b3b2b91037b9103a3930b232b960511b60448201526064016040518091039061330361573c565b50505b6001600160a01b0383166133695760405162461bcd60e51b815260206004820152601c60248201527f6e6f6e2d7a65726f20616464726573732069732072657175697265640000000060448201526064016040518091039061336661573c565b50505b60008060396133766157a7565b906101000a90046001600160a01b03166001600160a01b0316637027ea6c856040516001600160e01b031960e084901b1681526001600160a01b03909116600482015260240160206040518083038186806133cf615802565b1580156133e4576000806133e161573c565b50505b505a6133ee61584e565b505050505015801561340d573d6000803e3d600061340a61573c565b50505b505050506040513d602081101561342c5760008061342961573c565b50505b81019080805193505050506001600160a01b0381166134905760405162461bcd60e51b815260206004820152601360248201527234b73b30b634b2103232b9ba34b730ba34b7b760691b60448201526064016040518091039061348d61573c565b50505b600080600080846001600160a01b031663e23ff4375a63996d79a5598160e01b8152602081600483336000905af158601d01573d60011458600c01573d6000803e3d621234565260ea61109c528051925060005b60408110156134fb576000828201526020016134e4565b505050896040518363ffffffff1660e01b815260040180836001600160a01b0316815260200180602001828103825283818151815260200191508051906020019080838360005b8381101561355a578082015183820152602001613542565b50505050905090810190601f1680156135875780820380516001836020036101000a031916815260200191505b50935050505060806040518083038186806135a0615802565b1580156135b5576000806135b261573c565b50505b505a6135bf61584e565b50505050501580156135de573d6000803e3d60006135db61573c565b50505b505050506040513d60808110156135fd576000806135fa61573c565b50505b81019080805192919060200180519291906020018051929190602001805195995093975091955092935050505060ff841660021415613661576136538861364385611b25565b8461364d85611b25565b8b615077565b6001955050505050506119ab565b6000886001600160a01b0316886040518082805190602001908083835b6020831061369d5780518252601f19909201916020918201910161367e565b6001836020036101000a0380198251168184511680821785525050505050509050019150506000604051808303816000865a6136d76159cd565b5050505050509150503d806000811461370c576040513d603f01601f191681016040523d815291503d6000602084013e613711565b606091505b50909150506001811515146137755760405162461bcd60e51b815260206004820152601a60248201527f6661696c656420746f2065786563757465207468652063616c6c00000000000060448201526064016040518091039061377261573c565b50505b50600198975050505050505050565b603f611e066157a7565b6000603361379a6157a7565b906101000a90046001600160a01b03166001600160a01b03165a6137bc615939565b6001600160a01b03161461380e5760405162461bcd60e51b815260206004820152600c60248201526b37b7363c9036b0b730b3b2b960a11b60448201526064016040518091039061380b61573c565b50505b6000603760018161381d6157a7565b816001600160a01b0302191690836001600160a01b031602179061383f61597f565b505050565b603d6020528060005260406000206000915061385e6157a7565b906101000a900460ff1681565b60006120c8838360200260040160ff166020614213565b603e611e066157a7565b60008061389883612b4e565b905080156138aa576001915050611b27565b50600092915050565b6000603a806138c06157a7565b91505090565b600060336138d26157a7565b906101000a90046001600160a01b03166001600160a01b03165a6138f4615939565b6001600160a01b0316146139465760405162461bcd60e51b815260206004820152600c60248201526b37b7363c9036b0b730b3b2b960a11b60448201526064016040518091039061394361573c565b50505b603f6139506157a7565b5a613959615a93565b10156139b45760405162461bcd60e51b815260206004820152601960248201527f66656520696e6372656173652064656c617920616374697665000000000000006044820152606401604051809103906139b161573c565b50505b6139c781603e6139c26157a7565b6152e6565b600080603e6139d461597f565b5050506000603f8190611afd61597f565b6000806139fd848460200260040160ff166020614213565b9050613a0e84600483016020614213565b949350505050565b6060603580613a236157a7565b806020026020016040519081016040528181529190602083018280613a466157a7565b8015613a9357602002820191906000526020600020905b600082613a686157a7565b906101000a90046001600160a01b03166001600160a01b031681526020019060010190808311613a5d575b5050505050905090565b603c6020528060005260406000206000915061385e6157a7565b60006035806138c06157a7565b60006033613ad06157a7565b906101000a90046001600160a01b03166001600160a01b03165a613af2615939565b6001600160a01b031614613b445760405162461bcd60e51b815260206004820152600c60248201526b37b7363c9036b0b730b3b2b960a11b604482015260640160405180910390613b4161573c565b50505b806037600181611adb6157a7565b60006033613b5e6157a7565b906101000a90046001600160a01b03166001600160a01b03165a613b80615939565b6001600160a01b031614613bd25760405162461bcd60e51b815260206004820152600c60248201526b37b7363c9036b0b730b3b2b960a11b604482015260640160405180910390613bcf61573c565b50505b600080603e613bdf61597f565b5050506000603f8190613bf061597f565b5050507fc6f04bf43cbdf1ba5d51b4afa160bb3c7e13858b1409aa32868b239bb2f8d84960405160405180910390a1565b6001600160a01b03811660009081526036602052604081206127836157a7565b60006119ab82600060046129e6565b6000603961144e6157a7565b603a8181613c686157a7565b8110613c7057fe5b906000526020600020016000915061144e6157a7565b60006033613c926157a7565b906101000a90046001600160a01b03166001600160a01b03165a613cb4615939565b6001600160a01b031614613d065760405162461bcd60e51b815260206004820152600c60248201526b37b7363c9036b0b730b3b2b960a11b604482015260640160405180910390613d0361573c565b50505b613d0f81613c21565b15613d1957611841565b61184181614feb565b60016000613d2e6157a7565b906101000a900460ff1680613d465750613d46615539565b80613d635750600080613d576157a7565b906101000a900460ff16155b613da75760405162461bcd60e51b815260040180806020018281038252602e815260200180615be5602e913960400191505060405180910390613da461573c565b50505b6000600181613db46157a7565b906101000a900460ff161590508015613e1a576001600061010081613dd76157a7565b8160ff02191690831515021790613dec61597f565b50505060016000806101000a81613e016157a7565b8160ff02191690831515021790613e1661597f565b5050505b613e2485856155aa565b856039600181613e326157a7565b816001600160a01b0302191690836001600160a01b0316021790613e5461597f565b50505082603860006101000a81613e696157a7565b816001600160a01b0302191690836001600160a01b0316021790613e8b61597f565b50505060005b82518160ff161015613ec457613ebc838260ff1681518110613eaf57fe5b6020026020010151614a73565b600101613e91565b506000613ed7631cd554d160e21b611e09565b90506001600160a01b03811615613f3057613ef181614a73565b6001600160a01b0381166000908152603d60205260019060409020600181613f176157a7565b8160ff02191690831515021790613f2c61597f565b5050505b508015613f5f5760008061010081613f466157a7565b8160ff02191690831515021790613f5b61597f565b5050505b505050505050565b6000806038613f746157a7565b906101000a90046001600160a01b03166001600160a01b03166321f8a7216c45786368616e6765526174657360981b6040516001600160e01b031960e084901b16815260048101919091526024016020604051808303818680613fd5615802565b158015613fea57600080613fe761573c565b50505b505a613ff461584e565b5050505050158015614013573d6000803e3d600061401061573c565b50505b505050506040513d60208110156140325760008061402f61573c565b50505b8101908080516001600160a01b0316925063654a60ac9150614055905084612b4e565b846001600160a01b03166370a082315a63996d79a5598160e01b8152602081600483336000905af158601d01573d60011458600c01573d6000803e3d621234565260ea61109c528051925060005b60408110156140ba576000828201526020016140a3565b5050506040516001600160e01b031960e084901b1681526001600160a01b03909116600482015260240160206040518083038186806140f7615802565b15801561410c5760008061410961573c565b50505b505a61411661584e565b5050505050158015614135573d6000803e3d600061413261573c565b50505b505050506040513d60208110156141545760008061415161573c565b50505b8101908080519250631cd554d160e21b915060409050516001600160e01b031960e086901b16815260048101939093526024830191909152604482015260640160206040518083038186806141a7615802565b1580156141bc576000806141b961573c565b50505b505a6141c661584e565b50505050501580156141e5573d6000803e3d60006141e261573c565b50505b505050506040513d60208110156142045760008061420161573c565b50505b81019080805195945050505050565b6000818301845110156142755760405162461bcd60e51b815260206004820152601b60248201527f52656164696e67206279746573206f7574206f6620626f756e6473000000000060448201526064016040518091039061427261573c565b50505b826020018401519050816020038015612a675760080260020a90049392505050565b6060603a806142a46157a7565b8060200260200160405190810160405281815291906020830182806142c76157a7565b8015613a9357602002820191906000526020600020905b6000826142e96157a7565b906101000a90046001600160a01b03166001600160a01b0316815260200190600101908083116142de575050505050905090565b600080603e61432a6157a7565b603f6143346157a7565b915091509091565b60608060606000603a8061434e6157a7565b9050905060608167ffffffffffffffff811180156143745760008061437161573c565b50505b5060405190808252806020026020018201604052801561439e578160200160208202803683370190505b50905060608267ffffffffffffffff811180156143c3576000806143c061573c565b50505b506040519080825280602002602001820160405280156143ed578160200160208202803683370190505b50905060608367ffffffffffffffff811180156144125760008061440f61573c565b50505b5060405190808252806020026020018201604052801561443c578160200160208202803683370190505b509050600080603861444c6157a7565b906101000a90046001600160a01b03166001600160a01b03166321f8a7216c45786368616e6765526174657360981b6040516001600160e01b031960e084901b168152600481019190915260240160206040518083038186806144ad615802565b1580156144c2576000806144bf61573c565b50505b505a6144cc61584e565b50505050501580156144eb573d6000803e3d60006144e861573c565b50505b505050506040513d602081101561450a5760008061450761573c565b50505b81019080805193506000925050505b8581101561476f576000603a828161452f6157a7565b811061453757fe5b9060005260206000200160009061454c6157a7565b906101000a90046001600160a01b03169050806001600160a01b03166370a082315a63996d79a5598160e01b8152602081600483336000905af158601d01573d60011458600c01573d6000803e3d621234565260ea61109c528051925060005b60408110156145c3576000828201526020016145ac565b5050506040516001600160e01b031960e084901b1681526001600160a01b0390911660048201526024016020604051808303818680614600615802565b1580156146155760008061461261573c565b50505b505a61461f61584e565b505050505015801561463e573d6000803e3d600061463b61573c565b50505b505050506040513d602081101561465d5760008061465a61573c565b50505b81019080805192508791508490508151811061467557fe5b6020026020010181815250508086838151811061468e57fe5b6001600160a01b039283166020918202929092010152831663ac82f6086146b483612b4e565b6040516001600160e01b031960e084901b168152600481019190915260240160206040518083038186806146e6615802565b1580156146fb576000806146f861573c565b50505b505a61470561584e565b5050505050158015614724573d6000803e3d600061472161573c565b50505b505050506040513d60208110156147435760008061474061573c565b50505b81019080805192508691508490508151811061475b57fe5b602090810291909101015250600101614519565b509297919650945092505050565b606060348061478a6157a7565b600181600116156101000203166002900480601f0160208091040260200160405190810160405281815291906020830182806147c46157a7565b60018160011615610100020316600290048015613a935780601f106147fe5761010080836147f06157a7565b040283529160200191613a93565b820191906000526020600020905b816148156157a7565b8152906001019060200180831161480c57509395945050505050565b6000603a8061483e6157a7565b6001600160a01b0384166000908152603b602052909250905061486e6001604083206148686157a7565b906155f1565b90506000603a61487f8460016155f1565b816148886157a7565b811061489057fe5b906000526020600020016000906148a56157a7565b906101000a90046001600160a01b0316905080603a83816148c46157a7565b81106148cc57fe5b906000526020600020016001816148e16157a7565b816001600160a01b0302191690836001600160a01b031602179061490361597f565b5061491391508390506001614f8c565b6001600160a01b0382166000908152603b60205260409020819061493561597f565b5050506001600160a01b0384166000908152603b60205260408120819061495a61597f565b505050603a806149686157a7565b8061496f57fe5b6001900381819060005260206000200160018161498a6157a7565b906001600160a01b030219169061499f61597f565b5050906149aa61597f565b50507f9b4f55639e5e283319baee5bc4e69a5625a8e3a1cc004af968f4fee7250220275a63996d79a5598160e01b8152602081600483336000905af158601d01573d60011458600c01573d6000803e3d621234565260ea61109c528051925060005b6040811015614a2357600082820152602001614a0c565b505050614a2e612864565b8660405180846001600160a01b03168152602001836001600160a01b03168152602001826001600160a01b03168152602001935050505060405180910390a150505050565b60006039614a7f6157a7565b906101000a90046001600160a01b03166001600160a01b031663aa12ae4d6040518163ffffffff1660e01b81526004016020604051808303818680614ac2615802565b158015614ad757600080614ad461573c565b50505b505a614ae161584e565b5050505050158015614b00573d6000803e3d6000614afd61573c565b50505b505050506040513d6020811015614b1f57600080614b1c61573c565b50505b8101908080519250603a9150819050614b366157a7565b905010614b8b5760405162461bcd60e51b81526020600482015260166024820152751b585e1a5b5d5b48185cdcd95d1cc81c995858da195960521b604482015260640160405180910390614b8861573c565b50505b614b9481612763565b15614bee5760405162461bcd60e51b815260206004820152601760248201527f617373657420616c726561647920737570706f72746564000000000000000000604482015260640160405180910390614beb61573c565b50505b614bf78161388c565b1515600114614c455760405162461bcd60e51b815260206004820152600d60248201526c1a5b9d985b1a5908185cdcd95d609a1b604482015260640160405180910390614c4261573c565b50505b80603a80600181614c546157a7565b018082614c5f61597f565b505060009283526000190191602091502001600181614c7c6157a7565b816001600160a01b0302191690836001600160a01b0316021790614c9e61597f565b505050603a80614cac6157a7565b6001600160a01b0383166000908152603b602052909150604090208190614cd161597f565b5050506001600160a01b0381166000908152603c60205260019060409020600181614cfa6157a7565b8160ff02191690831515021790614d0f61597f565b5050507f0a7426a0630aad7dbc4d5ca5b7d9aac1133d77d2db987caaf4b4186c85d6593f5a63996d79a5598160e01b8152602081600483336000905af158601d01573d60011458600c01573d6000803e3d621234565260ea61109c528051925060005b6040811015614d8957600082820152602001614d72565b505050614d94612864565b8360405180846001600160a01b03168152602001836001600160a01b03168152602001826001600160a01b03168152602001935050505060405180910390a150565b6000603580614de36157a7565b6001600160a01b038416600090815260366020529092509050614e0d6001604083206148686157a7565b905060006035614e1e8460016155f1565b81614e276157a7565b8110614e2f57fe5b90600052602060002001600090614e446157a7565b906101000a90046001600160a01b031690508060358381614e636157a7565b8110614e6b57fe5b90600052602060002001600181614e806157a7565b816001600160a01b0302191690836001600160a01b0316021790614ea261597f565b50614eb291508390506001614f8c565b6001600160a01b03821660009081526036602052604090208190614ed461597f565b5050506001600160a01b03841660009081526036602052604081208190614ef961597f565b505050603580614f076157a7565b80614f0e57fe5b60019003818190600052602060002001600181614f296157a7565b906001600160a01b0302191690614f3e61597f565b505090613f5f61597f565b6000807fc5d2460186f7233c927e7db2dcc703c0e500b653ca82273b7bfad8045d85a47083614f76615b79565b9150808214158015613a0e575050151592915050565b6000828201838110156120c85760405162461bcd60e51b815260206004820152601b60248201527f536166654d6174683a206164646974696f6e206f766572666c6f7700000000006044820152606401604051809103906120c561573c565b80603580600181614ffa6157a7565b01808261500561597f565b5050600092835260001901916020915020016001816150226157a7565b816001600160a01b0302191690836001600160a01b031602179061504461597f565b5050506035806150526157a7565b6001600160a01b03831660009081526036602052909150604090208190611afd61597f565b61508084612763565b6150d45760405162461bcd60e51b81526020600482015260186024820152771d5b9cdd5c1c1bdc9d1959081cdbdd5c98d948185cdcd95d60421b6044820152606401604051809103906150d161573c565b50505b6150dd82612763565b6151365760405162461bcd60e51b815260206004820152601d60248201527f756e737570706f727465642064657374696e6174696f6e20617373657400000060448201526064016040518091039061513361573c565b50505b60006060866001600160a01b0316836040518082805190602001908083835b602083106151745780518252601f199092019160209182019101615155565b6001836020036101000a0380198251168184511680821785525050505050509050019150506000604051808303816000865a6151ae6159cd565b5050505050509150503d80600081146151e3576040513d603f01601f191681016040523d815291503d6000602084013e6151e8565b606091505b50909250905060018215151461524d5760405162461bcd60e51b815260206004820152601a60248201527f6661696c656420746f20657865637574652065786368616e676500000000000060448201526064016040518091039061524a61573c565b50505b7f2083d2b241ef1ec859ae0402864fd9fe9d6d36b18c73615625b46acaf113be785a63996d79a5598160e01b8152602081600483336000905af158601d01573d60011458600c01573d6000803e3d621234565260ea61109c528051925060005b60408110156152c4576000828201526020016152ad565b5050506152cf612864565b8888886152dd876000615631565b5a612618615a93565b600060396152f26157a7565b906101000a90046001600160a01b03166001600160a01b031663046b72c483836040516001600160e01b031960e085901b1681526001600160a01b039092166004830152602482015260440160006040518083038160008780615353615802565b1580156153685760008061536561573c565b50505b505a6153726159cd565b505050505050158015615392573d6000803e3d600061538f61573c565b50505b5050505060008060396000906153a66157a7565b906101000a90046001600160a01b03166001600160a01b031663b7a54526856040516001600160e01b031960e084901b1681526001600160a01b039091166004820152602401604080518083038186806153fe615802565b1580156154135760008061541061573c565b50505b505a61541d61584e565b505050505015801561543c573d6000803e3d600061543961573c565b50505b505050506040513d604081101561545b5760008061545861573c565b50505b81019080805192919060200180519395509293507f1780c04ddc6f0b32d866c7a3d7583f53515ef49ed2126af868f804f491601266925050505a63996d79a5598160e01b8152602081600483336000905af158601d01573d60011458600c01573d6000803e3d621234565260ea61109c528051925060005b60408110156154ea576000828201526020016154d3565b5050506154f5612864565b848460405180856001600160a01b03168152602001846001600160a01b0316815260200183815260200182815260200194505050505060405180910390a150505050565b6000805a63996d79a5598160e01b8152602081600483336000905af158601d01573d60011458600c01573d6000803e3d621234565260ea61109c528051925060005b60408110156155925760008282015260200161557b565b50505090506000816155a2615802565b159250505090565b8160336001816155b86157a7565b816001600160a01b0302191690836001600160a01b03160217906155da61597f565b50505080603490805161383f929160200190615ad9565b60006120c8838360405160408082019052601e81527f536166654d6174683a207375627472616374696f6e206f766572666c6f770000602082015261569c565b6000816020018351101561568b5760405162461bcd60e51b8152602060048201526014602482015273736c6963696e67206f7574206f662072616e676560601b60448201526064016040518091039061568861573c565b50505b600082602001840151949350505050565b600081848411156157345760405162461bcd60e51b81526004018080602001828103825283818151815260200191508051906020019080838360005b838110156156f05780820151838201526020016156d8565b50505050905090810190601f16801561571d5780820380516001836020036101000a031916815260200191505b50925050506040518091039061573161573c565b50505b505050900390565b632a2a7adb598160e01b8152600481016020815285602082015260005b86811015615774578086015182820160400152602001615759565b506020828760640184336000905af158601d01573d60011458600c01573d6000803e3d621234565260ea61109c52505050565b6303daa959598160e01b8152836004820152602081602483336000905af158601d01573d60011458600c01573d6000803e3d621234565260ea61109c528051935060005b604081101561383f576000828201526020016157eb565b638435035b598160e01b8152836004820152602081602483336000905af158601d01573d60011458600c01573d6000803e3d621234565260ea61109c52805160008252935060206157eb565b638540661f598160e01b815261587f565b80808311156119ab575090919050565b80808310156119ab575090919050565b836004820152846024820152606060448201528660648201526084810160005b888110156158b757808801518282015260200161589f565b506060828960a40184336000905af158601d01573d60011458600c01573d6000803e3d621234565260ea61109c52815160408301513d6000853e8b8b82606087013350600060045af1505961590c8d3d61586f565b8c01615918818761585f565b5b8281101561592d5760008152602001615919565b50929c50505050505050565b6373509064598160e01b8152602081600483336000905af158601d01573d60011458600c01573d6000803e3d621234565260ea61109c52805160008252935060206157eb565b6322bd64c0598160e01b8152836004820152846024820152600081604483336000905af158601d01573d60011458600c01573d6000803e3d621234565260ea61109c526000815260206157eb565b6385979f76598160e01b8152836004820152846024820152606060448201528760648201526084810160005b89811015615a115780890151828201526020016159f9565b506060828a60a40184336000905af158601d01573d60011458600c01573d6000803e3d621234565260ea61109c52815160408301513d6000853e8c8c82606087013350600060045af15059615a668e3d61586f565b8d01615a72818761585f565b5b82811015615a875760008152602001615a73565b50929d50505050505050565b63bdbf8c36598160e01b8152602081600483336000905af158601d01573d60011458600c01573d6000803e3d621234565260ea61109c52805160008252935060206157eb565b8280615ae36157a7565b600181600116156101000203166002900490600052602060002090601f016020900481019282601f10615b2a57805160ff19168380011785615b2361597f565b5050615b69565b82800160010185615b3961597f565b50508215615b69579182015b82811115615b6957825182615b5861597f565b505091602001919060010190615b45565b50615b75929150615bc5565b5090565b6324749d5c598160e01b8152836004820152602081602483336000905af158601d01573d60011458600c01573d6000803e3d621234565260ea61109c52805160008252935060206157eb565b80821115615b755760008082615bd961597f565b505050600101615bc556fe436f6e747261637420696e7374616e63652068617320616c7265616479206265656e20696e697469616c697a6564",
  "linkReferences": {},
  "deployedLinkReferences": {}
}