{
  "_format": "hh-sol-artifact-1",
  "contractName": "PoolManagerLogic-ovm",
  "sourceName": "contracts/PoolManagerLogic.sol",
  "abi": [
    {
      "anonymous": false,
      "inputs": [
        {
          "indexed": false,
          "internalType": "address",
          "name": "fundAddress",
          "type": "address"
        },
        {
          "indexed": false,
          "internalType": "address",
          "name": "manager",
          "type": "address"
        },
        {
          "indexed": false,
          "internalType": "address",
          "name": "asset",
          "type": "address"
        }
      ],
      "name": "AssetAdded",
      "type": "event"
    },
    {
      "anonymous": false,
      "inputs": [
        {
          "indexed": false,
          "internalType": "address",
          "name": "fundAddress",
          "type": "address"
        },
        {
          "indexed": false,
          "internalType": "address",
          "name": "manager",
          "type": "address"
        },
        {
          "indexed": false,
          "internalType": "address",
          "name": "asset",
          "type": "address"
        }
      ],
      "name": "AssetRemoved",
      "type": "event"
    },
    {
      "anonymous": false,
      "inputs": [
        {
          "indexed": false,
          "internalType": "address",
          "name": "fundAddress",
          "type": "address"
        },
        {
          "indexed": false,
          "internalType": "address",
          "name": "manager",
          "type": "address"
        },
        {
          "indexed": false,
          "internalType": "address",
          "name": "sourceAsset",
          "type": "address"
        },
        {
          "indexed": false,
          "internalType": "uint256",
          "name": "sourceAmount",
          "type": "uint256"
        },
        {
          "indexed": false,
          "internalType": "address",
          "name": "destinationAddress",
          "type": "address"
        },
        {
          "indexed": false,
          "internalType": "uint256",
          "name": "destinationAmount",
          "type": "uint256"
        },
        {
          "indexed": false,
          "internalType": "uint256",
          "name": "time",
          "type": "uint256"
        }
      ],
      "name": "Exchange",
      "type": "event"
    },
    {
      "anonymous": false,
      "inputs": [
        {
          "indexed": false,
          "internalType": "uint256",
          "name": "newNumerator",
          "type": "uint256"
        },
        {
          "indexed": false,
          "internalType": "uint256",
          "name": "announcedFeeActivationTime",
          "type": "uint256"
        }
      ],
      "name": "ManagerFeeIncreaseAnnounced",
      "type": "event"
    },
    {
      "anonymous": false,
      "inputs": [],
      "name": "ManagerFeeIncreaseRenounced",
      "type": "event"
    },
    {
      "anonymous": false,
      "inputs": [
        {
          "indexed": false,
          "internalType": "address",
          "name": "fundAddress",
          "type": "address"
        },
        {
          "indexed": false,
          "internalType": "address",
          "name": "manager",
          "type": "address"
        },
        {
          "indexed": false,
          "internalType": "uint256",
          "name": "numerator",
          "type": "uint256"
        },
        {
          "indexed": false,
          "internalType": "uint256",
          "name": "denominator",
          "type": "uint256"
        }
      ],
      "name": "ManagerFeeSet",
      "type": "event"
    },
    {
      "anonymous": false,
      "inputs": [
        {
          "indexed": false,
          "internalType": "address",
          "name": "newManager",
          "type": "address"
        },
        {
          "indexed": false,
          "internalType": "string",
          "name": "newManagerName",
          "type": "string"
        }
      ],
      "name": "ManagerUpdated",
      "type": "event"
    },
    {
      "inputs": [
        {
          "internalType": "address",
          "name": "member",
          "type": "address"
        }
      ],
      "name": "addMember",
      "outputs": [],
      "stateMutability": "nonpayable",
      "type": "function"
    },
    {
      "inputs": [
        {
          "internalType": "address[]",
          "name": "members",
          "type": "address[]"
        }
      ],
      "name": "addMembers",
      "outputs": [],
      "stateMutability": "nonpayable",
      "type": "function"
    },
    {
      "inputs": [
        {
          "internalType": "address",
          "name": "asset",
          "type": "address"
        }
      ],
      "name": "addToSupportedAssets",
      "outputs": [],
      "stateMutability": "nonpayable",
      "type": "function"
    },
    {
      "inputs": [],
      "name": "addressResolver",
      "outputs": [
        {
          "internalType": "contract IAddressResolver",
          "name": "",
          "type": "address"
        }
      ],
      "stateMutability": "view",
      "type": "function"
    },
    {
      "inputs": [
        {
          "internalType": "address",
          "name": "pool",
          "type": "address"
        },
        {
          "internalType": "uint256",
          "name": "numerator",
          "type": "uint256"
        }
      ],
      "name": "announceManagerFeeIncrease",
      "outputs": [],
      "stateMutability": "nonpayable",
      "type": "function"
    },
    {
      "inputs": [],
      "name": "announcedFeeIncreaseNumerator",
      "outputs": [
        {
          "internalType": "uint256",
          "name": "",
          "type": "uint256"
        }
      ],
      "stateMutability": "view",
      "type": "function"
    },
    {
      "inputs": [],
      "name": "announcedFeeIncreaseTimestamp",
      "outputs": [
        {
          "internalType": "uint256",
          "name": "",
          "type": "uint256"
        }
      ],
      "stateMutability": "view",
      "type": "function"
    },
    {
      "inputs": [
        {
          "internalType": "address",
          "name": "",
          "type": "address"
        }
      ],
      "name": "assetPosition",
      "outputs": [
        {
          "internalType": "uint256",
          "name": "",
          "type": "uint256"
        }
      ],
      "stateMutability": "view",
      "type": "function"
    },
    {
      "inputs": [
        {
          "internalType": "address",
          "name": "asset",
          "type": "address"
        }
      ],
      "name": "assetValue",
      "outputs": [
        {
          "internalType": "uint256",
          "name": "",
          "type": "uint256"
        }
      ],
      "stateMutability": "view",
      "type": "function"
    },
    {
      "inputs": [
        {
          "internalType": "address",
          "name": "newManager",
          "type": "address"
        },
        {
          "internalType": "string",
          "name": "newManagerName",
          "type": "string"
        }
      ],
      "name": "changeManager",
      "outputs": [],
      "stateMutability": "nonpayable",
      "type": "function"
    },
    {
      "inputs": [
        {
          "internalType": "address",
          "name": "pool",
          "type": "address"
        }
      ],
      "name": "commitManagerFeeIncrease",
      "outputs": [],
      "stateMutability": "nonpayable",
      "type": "function"
    },
    {
      "inputs": [
        {
          "internalType": "bytes32",
          "name": "data",
          "type": "bytes32"
        }
      ],
      "name": "convert32toAddress",
      "outputs": [
        {
          "internalType": "address",
          "name": "o",
          "type": "address"
        }
      ],
      "stateMutability": "pure",
      "type": "function"
    },
    {
      "inputs": [
        {
          "internalType": "address",
          "name": "sourceAsset",
          "type": "address"
        },
        {
          "internalType": "uint256",
          "name": "sourceAmount",
          "type": "uint256"
        },
        {
          "internalType": "address",
          "name": "destinationAsset",
          "type": "address"
        }
      ],
      "name": "exchange",
      "outputs": [],
      "stateMutability": "nonpayable",
      "type": "function"
    },
    {
      "inputs": [
        {
          "internalType": "address",
          "name": "to",
          "type": "address"
        },
        {
          "internalType": "bytes",
          "name": "data",
          "type": "bytes"
        }
      ],
      "name": "execTransaction",
      "outputs": [
        {
          "internalType": "bool",
          "name": "",
          "type": "bool"
        }
      ],
      "stateMutability": "nonpayable",
      "type": "function"
    },
    {
      "inputs": [],
      "name": "factory",
      "outputs": [
        {
          "internalType": "address",
          "name": "",
          "type": "address"
        }
      ],
      "stateMutability": "view",
      "type": "function"
    },
    {
      "inputs": [
        {
          "internalType": "bytes",
          "name": "data",
          "type": "bytes"
        },
        {
          "internalType": "uint8",
          "name": "inputNum",
          "type": "uint8"
        },
        {
          "internalType": "uint8",
          "name": "arrayIndex",
          "type": "uint8"
        }
      ],
      "name": "getArrayIndex",
      "outputs": [
        {
          "internalType": "bytes32",
          "name": "",
          "type": "bytes32"
        }
      ],
      "stateMutability": "pure",
      "type": "function"
    },
    {
      "inputs": [
        {
          "internalType": "bytes",
          "name": "data",
          "type": "bytes"
        },
        {
          "internalType": "uint8",
          "name": "inputNum",
          "type": "uint8"
        }
      ],
      "name": "getArrayLast",
      "outputs": [
        {
          "internalType": "bytes32",
          "name": "",
          "type": "bytes32"
        }
      ],
      "stateMutability": "pure",
      "type": "function"
    },
    {
      "inputs": [
        {
          "internalType": "bytes",
          "name": "data",
          "type": "bytes"
        },
        {
          "internalType": "uint8",
          "name": "inputNum",
          "type": "uint8"
        }
      ],
      "name": "getArrayLength",
      "outputs": [
        {
          "internalType": "uint256",
          "name": "",
          "type": "uint256"
        }
      ],
      "stateMutability": "pure",
      "type": "function"
    },
    {
      "inputs": [
        {
          "internalType": "bytes32",
          "name": "key",
          "type": "bytes32"
        }
      ],
      "name": "getAssetProxy",
      "outputs": [
        {
          "internalType": "address",
          "name": "",
          "type": "address"
        }
      ],
      "stateMutability": "view",
      "type": "function"
    },
    {
      "inputs": [],
      "name": "getFundComposition",
      "outputs": [
        {
          "internalType": "address[]",
          "name": "",
          "type": "address[]"
        },
        {
          "internalType": "uint256[]",
          "name": "",
          "type": "uint256[]"
        },
        {
          "internalType": "uint256[]",
          "name": "",
          "type": "uint256[]"
        }
      ],
      "stateMutability": "view",
      "type": "function"
    },
    {
      "inputs": [
        {
          "internalType": "bytes",
          "name": "data",
          "type": "bytes"
        },
        {
          "internalType": "uint8",
          "name": "inputNum",
          "type": "uint8"
        }
      ],
      "name": "getInput",
      "outputs": [
        {
          "internalType": "bytes32",
          "name": "",
          "type": "bytes32"
        }
      ],
      "stateMutability": "pure",
      "type": "function"
    },
    {
      "inputs": [
        {
          "internalType": "address",
          "name": "pool",
          "type": "address"
        }
      ],
      "name": "getManagerFee",
      "outputs": [
        {
          "internalType": "uint256",
          "name": "",
          "type": "uint256"
        },
        {
          "internalType": "uint256",
          "name": "",
          "type": "uint256"
        }
      ],
      "stateMutability": "view",
      "type": "function"
    },
    {
      "inputs": [],
      "name": "getManagerFeeIncreaseInfo",
      "outputs": [
        {
          "internalType": "uint256",
          "name": "",
          "type": "uint256"
        },
        {
          "internalType": "uint256",
          "name": "",
          "type": "uint256"
        }
      ],
      "stateMutability": "view",
      "type": "function"
    },
    {
      "inputs": [],
      "name": "getMembers",
      "outputs": [
        {
          "internalType": "address[]",
          "name": "",
          "type": "address[]"
        }
      ],
      "stateMutability": "view",
      "type": "function"
    },
    {
      "inputs": [
        {
          "internalType": "bytes",
          "name": "data",
          "type": "bytes"
        }
      ],
      "name": "getMethod",
      "outputs": [
        {
          "internalType": "bytes4",
          "name": "",
          "type": "bytes4"
        }
      ],
      "stateMutability": "pure",
      "type": "function"
    },
    {
      "inputs": [],
      "name": "getSupportedAssets",
      "outputs": [
        {
          "internalType": "address[]",
          "name": "",
          "type": "address[]"
        }
      ],
      "stateMutability": "view",
      "type": "function"
    },
    {
      "inputs": [],
      "name": "getSuspendedAssets",
      "outputs": [
        {
          "internalType": "address[]",
          "name": "",
          "type": "address[]"
        },
        {
          "internalType": "bool[]",
          "name": "",
          "type": "bool[]"
        }
      ],
      "stateMutability": "view",
      "type": "function"
    },
    {
      "inputs": [
        {
          "internalType": "address",
          "name": "asset",
          "type": "address"
        }
      ],
      "name": "getSynthKey",
      "outputs": [
        {
          "internalType": "bytes32",
          "name": "",
          "type": "bytes32"
        }
      ],
      "stateMutability": "view",
      "type": "function"
    },
    {
      "inputs": [
        {
          "internalType": "address",
          "name": "_factory",
          "type": "address"
        },
        {
          "internalType": "address",
          "name": "_manager",
          "type": "address"
        },
        {
          "internalType": "string",
          "name": "_managerName",
          "type": "string"
        },
        {
          "internalType": "contract IAddressResolver",
          "name": "_addressResolver",
          "type": "address"
        },
        {
          "internalType": "address[]",
          "name": "_supportedAssets",
          "type": "address[]"
        }
      ],
      "name": "initialize",
      "outputs": [],
      "stateMutability": "nonpayable",
      "type": "function"
    },
    {
      "inputs": [
        {
          "internalType": "address",
          "name": "asset",
          "type": "address"
        }
      ],
      "name": "isAssetSupported",
      "outputs": [
        {
          "internalType": "bool",
          "name": "",
          "type": "bool"
        }
      ],
      "stateMutability": "view",
      "type": "function"
    },
    {
      "inputs": [
        {
          "internalType": "address",
          "name": "member",
          "type": "address"
        }
      ],
      "name": "isMemberAllowed",
      "outputs": [
        {
          "internalType": "bool",
          "name": "",
          "type": "bool"
        }
      ],
      "stateMutability": "view",
      "type": "function"
    },
    {
      "inputs": [
        {
          "internalType": "address",
          "name": "asset",
          "type": "address"
        }
      ],
      "name": "isSynthAsset",
      "outputs": [
        {
          "internalType": "bool",
          "name": "",
          "type": "bool"
        }
      ],
      "stateMutability": "view",
      "type": "function"
    },
    {
      "inputs": [],
      "name": "manager",
      "outputs": [
        {
          "internalType": "address",
          "name": "",
          "type": "address"
        }
      ],
      "stateMutability": "view",
      "type": "function"
    },
    {
      "inputs": [],
      "name": "managerName",
      "outputs": [
        {
          "internalType": "string",
          "name": "",
          "type": "string"
        }
      ],
      "stateMutability": "view",
      "type": "function"
    },
    {
      "inputs": [],
      "name": "numberOfMembers",
      "outputs": [
        {
          "internalType": "uint256",
          "name": "",
          "type": "uint256"
        }
      ],
      "stateMutability": "view",
      "type": "function"
    },
    {
      "inputs": [],
      "name": "numberOfSupportedAssets",
      "outputs": [
        {
          "internalType": "uint256",
          "name": "",
          "type": "uint256"
        }
      ],
      "stateMutability": "view",
      "type": "function"
    },
    {
      "inputs": [
        {
          "internalType": "address",
          "name": "",
          "type": "address"
        }
      ],
      "name": "persistentAsset",
      "outputs": [
        {
          "internalType": "bool",
          "name": "",
          "type": "bool"
        }
      ],
      "stateMutability": "view",
      "type": "function"
    },
    {
      "inputs": [
        {
          "internalType": "bytes",
          "name": "data",
          "type": "bytes"
        },
        {
          "internalType": "uint256",
          "name": "offset",
          "type": "uint256"
        },
        {
          "internalType": "uint256",
          "name": "length",
          "type": "uint256"
        }
      ],
      "name": "read32",
      "outputs": [
        {
          "internalType": "bytes32",
          "name": "o",
          "type": "bytes32"
        }
      ],
      "stateMutability": "pure",
      "type": "function"
    },
    {
      "inputs": [
        {
          "internalType": "bytes",
          "name": "data",
          "type": "bytes"
        },
        {
          "internalType": "uint256",
          "name": "offset",
          "type": "uint256"
        },
        {
          "internalType": "uint256",
          "name": "length",
          "type": "uint256"
        }
      ],
      "name": "read4left",
      "outputs": [
        {
          "internalType": "bytes4",
          "name": "o",
          "type": "bytes4"
        }
      ],
      "stateMutability": "pure",
      "type": "function"
    },
    {
      "inputs": [
        {
          "internalType": "address",
          "name": "asset",
          "type": "address"
        }
      ],
      "name": "removeFromSupportedAssets",
      "outputs": [],
      "stateMutability": "nonpayable",
      "type": "function"
    },
    {
      "inputs": [
        {
          "internalType": "address",
          "name": "member",
          "type": "address"
        }
      ],
      "name": "removeMember",
      "outputs": [],
      "stateMutability": "nonpayable",
      "type": "function"
    },
    {
      "inputs": [
        {
          "internalType": "address[]",
          "name": "members",
          "type": "address[]"
        }
      ],
      "name": "removeMembers",
      "outputs": [],
      "stateMutability": "nonpayable",
      "type": "function"
    },
    {
      "inputs": [],
      "name": "removeTrader",
      "outputs": [],
      "stateMutability": "nonpayable",
      "type": "function"
    },
    {
      "inputs": [],
      "name": "renounceManagerFeeIncrease",
      "outputs": [],
      "stateMutability": "nonpayable",
      "type": "function"
    },
    {
      "inputs": [
        {
          "internalType": "address",
          "name": "_addressResolver",
          "type": "address"
        }
      ],
      "name": "setAddressResolver",
      "outputs": [],
      "stateMutability": "nonpayable",
      "type": "function"
    },
    {
      "inputs": [
        {
          "internalType": "address",
          "name": "newTrader",
          "type": "address"
        }
      ],
      "name": "setTrader",
      "outputs": [],
      "stateMutability": "nonpayable",
      "type": "function"
    },
    {
      "inputs": [
        {
          "internalType": "uint256",
          "name": "",
          "type": "uint256"
        }
      ],
      "name": "supportedAssets",
      "outputs": [
        {
          "internalType": "address",
          "name": "",
          "type": "address"
        }
      ],
      "stateMutability": "view",
      "type": "function"
    },
    {
      "inputs": [],
      "name": "trader",
      "outputs": [
        {
          "internalType": "address",
          "name": "",
          "type": "address"
        }
      ],
      "stateMutability": "view",
      "type": "function"
    },
    {
      "inputs": [
        {
          "internalType": "address",
          "name": "asset",
          "type": "address"
        }
      ],
      "name": "validateAsset",
      "outputs": [
        {
          "internalType": "bool",
          "name": "",
          "type": "bool"
        }
      ],
      "stateMutability": "view",
      "type": "function"
    }
  ],
  "bytecode": "0x60806040523480156200001c576000806200001962000023565b50505b5062000090565b632a2a7adb598160e01b8152600481016020815285602082015260005b868110156200005d57808601518282016040015260200162000040565b506020828760640184336000905af158600e01573d6000803e3d6000fd5b3d6001141558600a015760016000f35b505050565b615ba880620000a06000396000f3fe60806040523480156100195760008061001661571d565b50505b50600436106102c45760003560e01c806380dd4f621161018b578063b8bd81e6116100f2578063d346cc65116100ab578063e5406dbf11610085578063e5406dbf146112cd578063ed5b165d146112d5578063f09d14d7146112dd578063fed4416a146113c3576102c4565b8063d346cc6514611044578063d8af8ed4146111d2578063db896b5714611201576102c4565b8063b8bd81e614610ee9578063bbbf725b14610ef1578063c3c6279f14610f20578063c45a015514610fe7578063c68dbb3714610fef578063ca6d56dc14611015576102c4565b8063998546e311610144578063998546e314610d1d5780639eab525314610de9578063a0f8414c14610e44578063a250bc6b14610e73578063a30e3fa914610eb2578063a6bc18f914610eba576102c4565b806380dd4f6214610bb457806382f86acc14610be35780638f32343914610caf5780639240d29914610cb7578063936553c414610ce6578063969eed2714610cee576102c4565b8063464b41581161022f5780636141db90116101e85780636141db90146109a45780636708f5d7146109d35780636f4d469b14610a085780637ae7cfb514610acd5780637b4d0c6314610ba45780637c8afd5114610bac576102c4565b8063464b41581461068d57806346ee84b0146106d0578063481c6a7514610795578063522136631461079d578063568b5a2f146108745780635f6eceab1461095d576102c4565b80631758078b116102815780631758078b146104925780631eba30771461049a57806321f8c984146104c05780633c570d7d146105615780633ded65301461059057806341dc16c3146105b6576102c4565b806305a2ee2a146102d257806306468587146102f6578063093b88251461032757806309ff5c7d146103565780630b1ca49a146104345780631430238714610463575b6000806102cf61571d565b50505b6102da611442565b6040516001600160a01b03909116815260200160405180910390f35b610325600480360360208110156103155760008061031261571d565b50505b50356001600160a01b0316611461565b005b610325600480360360208110156103465760008061034361571d565b50505b50356001600160a01b0316611844565b610422600480360360408110156103755760008061037261571d565b50505b810190602081018135600160201b8111156103985760008061039561571d565b50505b8201836020820111156103b3576000806103b061571d565b50505b803590602001918460018302840111600160201b831117156103dd576000806103da61571d565b50505b91908080601f01602080910402602001604051908101604052818152929190602084018383808284376000920191909152509295505050903560ff1691506119169050565b60405190815260200160405180910390f35b610325600480360360208110156104535760008061045061571d565b50505b50356001600160a01b03166119b1565b610325600480360360208110156104825760008061047f61571d565b50505b50356001600160a01b0316611a4c565b6102da611b03565b6102da600480360360208110156104b9576000806104b661571d565b50505b5035611b25565b6104c8611b2c565b604051808060200180602001838103835285818151815260200191508051906020019060200280838360005b8381101561050c5780820151838201526020016104f4565b50505050905001838103825284818151815260200191508051906020019060200280838360005b8381101561054b578082015183820152602001610533565b5050505090500194505050505060405180910390f35b610422600480360360208110156105805760008061057d61571d565b50505b50356001600160a01b0316611dee565b6102da600480360360208110156105af576000806105ac61571d565b50505b5035611e09565b610422600480360360608110156105d5576000806105d261571d565b50505b810190602081018135600160201b8111156105f8576000806105f561571d565b50505b8201836020820111156106135760008061061061571d565b50505b803590602001918460018302840111600160201b8311171561063d5760008061063a61571d565b50505b91908080601f01602080910402602001604051908101604052818152929190602084018383808284376000920191909152509295505060ff83358116945060209093013590921691506120cf9050565b6106bc600480360360208110156106ac576000806106a961571d565b50505b50356001600160a01b03166121c7565b604051901515815260200160405180910390f35b610325600480360360208110156106ef576000806106ec61571d565b50505b810190602081018135600160201b8111156107125760008061070f61571d565b50505b82018360208201111561072d5760008061072a61571d565b50505b803590602001918460208302840111600160201b831117156107575760008061075461571d565b50505b9190808060200260200160405190810160405280939291908181526020018383602002808284376000920191909152509295506121ef945050505050565b6102da6122c8565b610325600480360360408110156107bc576000806107b961571d565b50505b6001600160a01b038235169190810190604081016020820135600160201b8111156107ef576000806107ec61571d565b50505b82018360208201111561080a5760008061080761571d565b50505b803590602001918460018302840111600160201b831117156108345760008061083161571d565b50505b91908080601f01602080910402602001604051908101604052818152929190602084018383808284376000920191909152509295506122d5945050505050565b610940600480360360608110156108935760008061089061571d565b50505b810190602081018135600160201b8111156108b6576000806108b361571d565b50505b8201836020820111156108d1576000806108ce61571d565b50505b803590602001918460018302840111600160201b831117156108fb576000806108f861571d565b50505b91908080601f0160208091040260200160405190810160405281815292919060208401838380828437600092019190915250929550508235935050506020013561244a565b6040516001600160e01b0319909116815260200160405180910390f35b61098c6004803603602081101561097c5760008061097961571d565b50505b50356001600160a01b03166124d3565b60405191825260208201526040908101905180910390f35b610422600480360360208110156109c3576000806109c061571d565b50505b50356001600160a01b03166125b2565b610325600480360360408110156109f2576000806109ef61571d565b50505b506001600160a01b03813516906020013561273a565b61032560048036036020811015610a2757600080610a2461571d565b50505b810190602081018135600160201b811115610a4a57600080610a4761571d565b50505b820183602082011115610a6557600080610a6261571d565b50505b803590602001918460208302840111600160201b83111715610a8f57600080610a8c61571d565b50505b919080806020026020016040519081016040528093929190818152602001838360200280828437600092019190915250929550612a6a945050505050565b6106bc60048036036040811015610aec57600080610ae961571d565b50505b6001600160a01b038235169190810190604081016020820135600160201b811115610b1f57600080610b1c61571d565b50505b820183602082011115610b3a57600080610b3761571d565b50505b803590602001918460018302840111600160201b83111715610b6457600080610b6161571d565b50505b91908080601f0160208091040260200160405190810160405281815292919060208401838380828437600092019190915250929550612b33945050505050565b61042261307b565b610325613085565b6106bc60048036036020811015610bd357600080610bd061571d565b50505b50356001600160a01b031661313b565b61042260048036036040811015610c0257600080610bff61571d565b50505b810190602081018135600160201b811115610c2557600080610c2261571d565b50505b820183602082011115610c4057600080610c3d61571d565b50505b803590602001918460018302840111600160201b83111715610c6a57600080610c6761571d565b50505b91908080601f01602080910402602001604051908101604052818152929190602084018383808284376000920191909152509295505050903560ff1691506131629050565b610422613179565b6106bc60048036036020811015610cd657600080610cd361571d565b50505b50356001600160a01b0316613183565b6104226133e9565b61032560048036036020811015610d0d57600080610d0a61571d565b50505b50356001600160a01b03166133fc565b61042260048036036040811015610d3c57600080610d3961571d565b50505b810190602081018135600160201b811115610d5f57600080610d5c61571d565b50505b820183602082011115610d7a57600080610d7761571d565b50505b803590602001918460018302840111600160201b83111715610da457600080610da161571d565b50505b91908080601f01602080910402602001604051908101604052818152929190602084018383808284376000920191909152509295505050903560ff16915061351b9050565b610df161354c565b60405160208082528190810183818151815260200191508051906020019060200280838360005b83811015610e30578082015183820152602001610e18565b505050509050019250505060405180910390f35b6106bc60048036036020811015610e6357600080610e6061571d565b50505b50356001600160a01b03166135d3565b61032560048036036060811015610e9257600080610e8f61571d565b50505b506001600160a01b038135811691602081013591604090910135166135e7565b610422613b83565b61032560048036036020811015610ed957600080610ed661571d565b50505b50356001600160a01b0316613b90565b610325613c1e565b6106bc60048036036020811015610f1057600080610f0d61571d565b50505b50356001600160a01b0316613ced565b61094060048036036020811015610f3f57600080610f3c61571d565b50505b810190602081018135600160201b811115610f6257600080610f5f61571d565b50505b820183602082011115610f7d57600080610f7a61571d565b50505b803590602001918460018302840111600160201b83111715610fa757600080610fa461571d565b50505b91908080601f0160208091040260200160405190810160405281815292919060208401838380828437600092019190915250929550613d0d945050505050565b6102da613d1c565b6102da6004803603602081101561100e5760008061100b61571d565b50505b5035613d28565b610325600480360360208110156110345760008061103161571d565b50505b50356001600160a01b0316613d52565b610325600480360360a08110156110635760008061106061571d565b50505b6001600160a01b038235811692602081013590911691810190606081016040820135600160201b81111561109f5760008061109c61571d565b50505b8201836020820111156110ba576000806110b761571d565b50505b803590602001918460018302840111600160201b831117156110e4576000806110e161571d565b50505b91908080601f016020809104026020016040519081016040528181529291906020840183838082843760009201919091525092956001600160a01b03853516959094909350604081019250602001359050600160201b81111561114f5760008061114c61571d565b50505b82018360208201111561116a5760008061116761571d565b50505b803590602001918460208302840111600160201b831117156111945760008061119161571d565b50505b919080806020026020016040519081016040528093929190818152602001838360200280828437600092019190915250929550613dee945050505050565b610422600480360360208110156111f1576000806111ee61571d565b50505b50356001600160a01b0316614033565b610422600480360360608110156112205760008061121d61571d565b50505b810190602081018135600160201b8111156112435760008061124061571d565b50505b82018360208201111561125e5760008061125b61571d565b50505b803590602001918460018302840111600160201b831117156112885760008061128561571d565b50505b91908080601f01602080910402602001604051908101604052818152929190602084018383808284376000920191909152509295505082359350505060200135614273565b610df16142f7565b61098c61437d565b6112e561439c565b60405180806020018060200180602001848103845287818151815260200191508051906020019060200280838360005b8381101561132d578082015183820152602001611315565b50505050905001848103835286818151815260200191508051906020019060200280838360005b8381101561136c578082015183820152602001611354565b50505050905001848103825285818151815260200191508051906020019060200280838360005b838110156113ab578082015183820152602001611393565b50505050905001965050505050505060405180910390f35b6113cb6147dd565b60405160208082528190810183818151815260200191508051906020019080838360005b838110156114075780820151838201526020016113ef565b50505050905090810190601f1680156114345780820380516001836020036101000a031916815260200191505b509250505060405180910390f35b6000603861144e615788565b906101000a90046001600160a01b031681565b6000603961146d615788565b906101000a90046001600160a01b03166001600160a01b0316638da5cb5b6040518163ffffffff1660e01b815260040160206040518083038186806114b06157e3565b1580156114c5576000806114c261571d565b50505b505a6114cf61582f565b50505050501580156114ee573d6000803e3d60006114eb61571d565b50505b505050506040513d602081101561150d5760008061150a61571d565b50505b8101908080516001600160a01b0316925050505a61152961591a565b6001600160a01b0316148061155e57506115416122c8565b6001600160a01b03165a61155361591a565b6001600160a01b0316145b80611589575061156c611b03565b6001600160a01b03165a61157e61591a565b6001600160a01b0316145b6115e25760405162461bcd60e51b815260206004820152601b60248201527f6f6e6c79206d616e616765722c20747261646572206f722044414f00000000006044820152606401604051809103906115df61571d565b50505b6115eb816121c7565b61163a5760405162461bcd60e51b8152602060048201526013602482015272185cdcd95d081b9bdd081cdd5c1c1bdc9d1959606a1b60448201526064016040518091039061163761571d565b50505b6001600160a01b0381166000908152603c6020526040902060009061165d615788565b906101000a900460ff16156116c15760405162461bcd60e51b815260206004820152601f60248201527f63616e6e6f742072656d6f76652070657273697374656e7420617373657473006044820152606401604051809103906116be61571d565b50505b6116ca81613183565b15156001141561183857806001600160a01b03166370a082315a63996d79a5598160e01b8152602081600483336000905af158600e01573d6000803e3d6000fd5b3d6001141558600a015760016000f35b8051925060005b604081101561173957600082820152602001611722565b5050506040516001600160e01b031960e084901b1681526001600160a01b03909116600482015260240160206040518083038186806117766157e3565b15801561178b5760008061178861571d565b50505b505a61179561582f565b50505050501580156117b4573d6000803e3d60006117b161571d565b50505b505050506040513d60208110156117d3576000806117d061571d565b50505b8101908080511592506118389150505760405162461bcd60e51b815260206004820152601d60248201527f63616e6e6f742072656d6f7665206e6f6e2d656d70747920617373657400000060448201526064016040518091039061183561571d565b50505b61184181614891565b50565b60006033611850615788565b906101000a90046001600160a01b03166001600160a01b03165a61187261591a565b6001600160a01b031614806118bb57506000603761188e615788565b906101000a90046001600160a01b03166001600160a01b03165a6118b061591a565b6001600160a01b0316145b61190d5760405162461bcd60e51b815260206004820152601660248201527537b7363c9036b0b730b3b2b91037b9103a3930b232b960511b60448201526064016040518091039061190a61571d565b50505b61184181614ad3565b60008061192e848460200260040160ff166020614273565b9050600061194185600484016020614273565b9050806119925760405162461bcd60e51b8152602060048201526012602482015271696e707574206973206e6f7420617272617960701b60448201526064016040518091039061198f61571d565b50505b6119a6856020808402850160040190614273565b925050505b92915050565b600060336119bd615788565b906101000a90046001600160a01b03166001600160a01b03165a6119df61591a565b6001600160a01b031614611a315760405162461bcd60e51b815260206004820152600c60248201526b37b7363c9036b0b730b3b2b960a11b604482015260640160405180910390611a2e61571d565b50505b611a3a81613ced565b611a4357611841565b61184181614dfa565b60006039611a58615788565b906101000a90046001600160a01b03166001600160a01b03165a611a7a61591a565b6001600160a01b031614611acd5760405162461bcd60e51b815260206004820152600d60248201526c3737903832b936b4b9b9b4b7b760991b604482015260640160405180910390611aca61571d565b50505b806038600181611adb615788565b816001600160a01b0302191690836001600160a01b0316021790611afd615960565b50505050565b6000806037611b10615788565b906101000a90046001600160a01b0316905090565b805b919050565b6060806000603a80611b3c615788565b9050905060608167ffffffffffffffff81118015611b6257600080611b5f61571d565b50505b50604051908082528060200260200182016040528015611b8c578160200160208202803683370190505b50905060608267ffffffffffffffff81118015611bb157600080611bae61571d565b50505b50604051908082528060200260200182016040528015611bdb578160200160208202803683370190505b5090506000806038611beb615788565b906101000a90046001600160a01b03166001600160a01b03166321f8a7216b53797374656d53746174757360a01b6040516001600160e01b031960e084901b16815260048101919091526024016020604051808303818680611c4b6157e3565b158015611c6057600080611c5d61571d565b50505b505a611c6a61582f565b5050505050158015611c89573d6000803e3d6000611c8661571d565b50505b505050506040513d6020811015611ca857600080611ca561571d565b50505b81019080805193506000925050505b84811015611de2576000603a8281611ccd615788565b8110611cd557fe5b90600052602060002001600090611cea615788565b906101000a90046001600160a01b0316905080858381518110611d0957fe5b6001600160a01b03928316602091820292909201015283166342a28e21611d2f836125b2565b6040516001600160e01b031960e084901b16815260048101919091526024016000604051808303818680611d616157e3565b158015611d7657600080611d7361571d565b50505b505a611d8061582f565b5050505050925050508015611d93575060015b611dba576001848381518110611da557fe5b91151560209283029190910190910152611dd9565b6000848381518110611dc857fe5b911515602092830291909101909101525b50600101611cb7565b50919450925050509091565b603b6020528060005260406000209050611e06615788565b81565b600080806038611e17615788565b906101000a90046001600160a01b03166001600160a01b03166321f8a721680a6f2dce8d0cae8d2f60bb1b6040516001600160e01b031960e084901b16815260048101919091526024016020604051808303818680611e746157e3565b158015611e8957600080611e8661571d565b50505b505a611e9361582f565b5050505050158015611eb2573d6000803e3d6000611eaf61571d565b50505b505050506040513d6020811015611ed157600080611ece61571d565b50505b8101908080516001600160a01b03169250633260803991508590506040516001600160e01b031960e084901b16815260048101919091526024016020604051808303818680611f1e6157e3565b158015611f3357600080611f3061571d565b50505b505a611f3d61582f565b5050505050158015611f5c573d6000803e3d6000611f5961571d565b50505b505050506040513d6020811015611f7b57600080611f7861571d565b50505b81019080805193505050506001600160a01b038116611fd75760405162461bcd60e51b815260206004820152600b60248201526a696e76616c6964206b657960a81b604482015260640160405180910390611fd461571d565b50505b6000816001600160a01b031663ec5568896040518163ffffffff1660e01b8152600401602060405180830381868061200d6157e3565b1580156120225760008061201f61571d565b50505b505a61202c61582f565b505050505015801561204b573d6000803e3d600061204861571d565b50505b505050506040513d602081101561206a5760008061206761571d565b50505b81019080805193505050506001600160a01b0381166120c85760405162461bcd60e51b815260206004820152600d60248201526c696e76616c69642070726f787960981b6044820152606401604051809103906120c561571d565b50505b9392505050565b6000806120e7858560200260040160ff166020614273565b905060006120fa86600484016020614273565b90508061214b5760405162461bcd60e51b8152602060048201526012602482015271696e707574206973206e6f7420617272617960701b60448201526064016040518091039061214861571d565b50505b60ff841681116121a35760405162461bcd60e51b815260206004820152601660248201527534b73b30b634b21030b93930bc903837b9b4ba34b7b760511b6044820152606401604051809103906121a061571d565b50505b6121bd866020600160ff8816018102850160040190614273565b9695505050505050565b6001600160a01b0381166000908152603b602052604081206121e7615788565b151592915050565b600060336121fb615788565b906101000a90046001600160a01b03166001600160a01b03165a61221d61591a565b6001600160a01b03161461226f5760405162461bcd60e51b815260206004820152600c60248201526b37b7363c9036b0b730b3b2b960a11b60448201526064016040518091039061226c61571d565b50505b60005b81518110156122c45761229782828151811061228a57fe5b6020026020010151613ced565b6122a0576122bc565b6122bc8282815181106122af57fe5b6020026020010151614dfa565b600101612272565b5050565b6000806033611b10615788565b600060336122e1615788565b906101000a90046001600160a01b03166001600160a01b03165a61230361591a565b6001600160a01b0316146123555760405162461bcd60e51b815260206004820152600c60248201526b37b7363c9036b0b730b3b2b960a11b60448201526064016040518091039061235261571d565b50505b816033600181612363615788565b816001600160a01b0302191690836001600160a01b0316021790612385615960565b50505080603490805161239c9291602001906159ae565b507f6ed15082ad038474841528b5badca105106d4463e44b5d434130dfb299aa366982826040516001600160a01b038316815260406020820181815290820183818151815260200191508051906020019080838360005b8381101561240b5780820151838201526020016123f3565b50505050905090810190601f1680156124385780820380516001836020036101000a031916815260200191505b50935050505060405180910390a15050565b6000818301845110156124ac5760405162461bcd60e51b815260206004820152601b60248201527f52656164696e67206279746573206f7574206f6620626f756e647300000000006044820152606401604051809103906124a961571d565b50505b8260200184015190508160040380156124cb576008810260020a820491505b509392505050565b6000808060396124e1615788565b906101000a90046001600160a01b03166001600160a01b031663b7a54526846040516001600160e01b031960e084901b1681526001600160a01b039091166004820152602401604080518083038186806125396157e3565b15801561254e5760008061254b61571d565b50505b505a61255861582f565b5050505050158015612577573d6000803e3d600061257461571d565b50505b505050506040513d60408110156125965760008061259361571d565b50505b8101908080519291906020018051939550929350505050915091565b60008060386125bf615788565b906101000a90046001600160a01b03166001600160a01b03166321f8a721680a6f2dce8d0cae8d2f60bb1b6040516001600160e01b031960e084901b1681526004810191909152602401602060405180830381868061261c6157e3565b1580156126315760008061262e61571d565b50505b505a61263b61582f565b505050505015801561265a573d6000803e3d600061265761571d565b50505b505050506040513d60208110156126795760008061267661571d565b50505b8101908080516001600160a01b031692506316b2213f91508490506040516001600160e01b031960e084901b1681526001600160a01b03909116600482015260240160206040518083038186806126ce6157e3565b1580156126e3576000806126e061571d565b50505b505a6126ed61582f565b505050505015801561270c573d6000803e3d600061270961571d565b50505b505050506040513d602081101561272b5760008061272861571d565b50505b81019080805195945050505050565b60006033612746615788565b906101000a90046001600160a01b03166001600160a01b03165a61276861591a565b6001600160a01b0316146127ba5760405162461bcd60e51b815260206004820152600c60248201526b37b7363c9036b0b730b3b2b960a11b6044820152606401604051809103906127b761571d565b50505b60008060396127c7615788565b906101000a90046001600160a01b03166001600160a01b0316635c9bfc2b6040518163ffffffff1660e01b8152600401602060405180830381868061280a6157e3565b15801561281f5760008061281c61571d565b50505b505a61282961582f565b5050505050158015612848573d6000803e3d600061284561571d565b50505b505050506040513d60208110156128675760008061286461571d565b50505b8101908080519350600092508291506128819050856124d3565b9092509050808411156128d65760405162461bcd60e51b815260206004820152601060248201526f34b73b30b634b210333930b1ba34b7b760811b6044820152606401604051809103906128d361571d565b50505b6128e08284614f6d565b84111561293c5760405162461bcd60e51b815260206004820152601960248201527f657863656564656420616c6c6f77656420696e6372656173650000000000000060448201526064016040518091039061293961571d565b50505b6000806039612949615788565b906101000a90046001600160a01b03166001600160a01b031663ebee461d6040518163ffffffff1660e01b8152600401602060405180830381868061298c6157e3565b1580156129a15760008061299e61571d565b50505b505a6129ab61582f565b50505050501580156129ca573d6000803e3d60006129c761571d565b50505b505050506040513d60208110156129e9576000806129e661571d565b50505b8101908080519350879250829150603d9050612a03615960565b505050805a612a10615a4e565b0180603e612a1c615960565b5050507f4db9119741646c419f1ceccdf112b5b9a9b4516355e742e1fa9c479f4dec98da85603e612a4b615788565b60405191825260208201526040908101905180910390a1505050505050565b60006033612a76615788565b906101000a90046001600160a01b03166001600160a01b03165a612a9861591a565b6001600160a01b031614612aea5760405162461bcd60e51b815260206004820152600c60248201526b37b7363c9036b0b730b3b2b960a11b604482015260640160405180910390612ae761571d565b50505b60005b81518110156122c457612b0582828151811061228a57fe5b15612b0f57612b2b565b612b2b828281518110612b1e57fe5b6020026020010151614fcc565b600101612aed565b6000806033612b40615788565b906101000a90046001600160a01b03166001600160a01b03165a612b6261591a565b6001600160a01b03161480612bab575060006037612b7e615788565b906101000a90046001600160a01b03166001600160a01b03165a612ba061591a565b6001600160a01b0316145b612bfd5760405162461bcd60e51b815260206004820152601660248201527537b7363c9036b0b730b3b2b91037b9103a3930b232b960511b604482015260640160405180910390612bfa61571d565b50505b6001600160a01b038316612c605760405162461bcd60e51b815260206004820152601c60248201527f6e6f6e2d7a65726f206164647265737320697320726571756972656400000000604482015260640160405180910390612c5d61571d565b50505b6000806039612c6d615788565b906101000a90046001600160a01b03166001600160a01b0316637027ea6c856040516001600160e01b031960e084901b1681526001600160a01b0390911660048201526024016020604051808303818680612cc66157e3565b158015612cdb57600080612cd861571d565b50505b505a612ce561582f565b5050505050158015612d04573d6000803e3d6000612d0161571d565b50505b505050506040513d6020811015612d2357600080612d2061571d565b50505b81019080805193505050506001600160a01b038116612d875760405162461bcd60e51b815260206004820152601360248201527234b73b30b634b2103232b9ba34b730ba34b7b760691b604482015260640160405180910390612d8461571d565b50505b600080600080846001600160a01b031663e23ff4375a63996d79a5598160e01b8152602081600483336000905af158600e01573d6000803e3d6000fd5b3d6001141558600a015760016000f35b8051925060005b6040811015612df257600082820152602001612ddb565b505050896040518363ffffffff1660e01b815260040180836001600160a01b0316815260200180602001828103825283818151815260200191508051906020019080838360005b83811015612e51578082015183820152602001612e39565b50505050905090810190601f168015612e7e5780820380516001836020036101000a031916815260200191505b5093505050506080604051808303818680612e976157e3565b158015612eac57600080612ea961571d565b50505b505a612eb661582f565b5050505050158015612ed5573d6000803e3d6000612ed261571d565b50505b505050506040513d6080811015612ef457600080612ef161571d565b50505b81019080805192919060200180519291906020018051929190602001805195995093975091955092935050505060ff841660021415612f5857612f4a88612f3a85611b25565b84612f4485611b25565b8b615058565b6001955050505050506119ab565b6000886001600160a01b0316886040518082805190602001908083835b60208310612f945780518252601f199092019160209182019101612f75565b6001836020036101000a0380198251168184511680821785525050505050509050019150506000604051808303816000865a612fce615a94565b5050505050509150503d8060008114613003576040513d603f01601f191681016040523d815291503d6000602084013e613008565b606091505b509091505060018115151461306c5760405162461bcd60e51b815260206004820152601a60248201527f6661696c656420746f2065786563757465207468652063616c6c00000000000060448201526064016040518091039061306961571d565b50505b50600198975050505050505050565b603e611e06615788565b60006033613091615788565b906101000a90046001600160a01b03166001600160a01b03165a6130b361591a565b6001600160a01b0316146131055760405162461bcd60e51b815260206004820152600c60248201526b37b7363c9036b0b730b3b2b960a11b60448201526064016040518091039061310261571d565b50505b60006037600181613114615788565b816001600160a01b0302191690836001600160a01b0316021790613136615960565b505050565b603c60205280600052604060002060009150613155615788565b906101000a900460ff1681565b60006120c8838360200260040160ff166020614273565b603d611e06615788565b60008061318f836125b2565b9050600080603861319e615788565b906101000a90046001600160a01b03166001600160a01b03166321f8a721680a6f2dce8d0cae8d2f60bb1b6040516001600160e01b031960e084901b168152600481019190915260240160206040518083038186806131fb6157e3565b1580156132105760008061320d61571d565b50505b505a61321a61582f565b5050505050158015613239573d6000803e3d600061323661571d565b50505b505050506040513d60208110156132585760008061325561571d565b50505b8101908080516001600160a01b03169250633260803991508490506040516001600160e01b031960e084901b168152600481019190915260240160206040518083038186806132a56157e3565b1580156132ba576000806132b761571d565b50505b505a6132c461582f565b50505050501580156132e3573d6000803e3d60006132e061571d565b50505b505050506040513d6020811015613302576000806132ff61571d565b50505b81019080805193505050506001600160a01b03811661332657600092505050611b27565b6000816001600160a01b031663ec5568896040518163ffffffff1660e01b8152600401602060405180830381868061335c6157e3565b1580156133715760008061336e61571d565b50505b505a61337b61582f565b505050505015801561339a573d6000803e3d600061339761571d565b50505b505050506040513d60208110156133b9576000806133b661571d565b50505b81019080805193505050506001600160a01b0381166133de5760009350505050611b27565b506001949350505050565b6000603a806133f6615788565b91505090565b60006033613408615788565b906101000a90046001600160a01b03166001600160a01b03165a61342a61591a565b6001600160a01b03161461347c5760405162461bcd60e51b815260206004820152600c60248201526b37b7363c9036b0b730b3b2b960a11b60448201526064016040518091039061347961571d565b50505b603e613486615788565b5a61348f615a4e565b10156134ea5760405162461bcd60e51b815260206004820152601960248201527f66656520696e6372656173652064656c617920616374697665000000000000006044820152606401604051809103906134e761571d565b50505b6134fd81603d6134f8615788565b6152c7565b600080603d61350a615960565b5050506000603e8190611afd615960565b600080613533848460200260040160ff166020614273565b905061354484600483016020614273565b949350505050565b6060603580613559615788565b80602002602001604051908101604052818152919060208301828061357c615788565b80156135c957602002820191906000526020600020905b60008261359e615788565b906101000a90046001600160a01b03166001600160a01b031681526020019060010190808311613593575b5050505050905090565b6000806135df836125b2565b141592915050565b600060336135f3615788565b906101000a90046001600160a01b03166001600160a01b03165a61361561591a565b6001600160a01b0316148061365e575060006037613631615788565b906101000a90046001600160a01b03166001600160a01b03165a61365361591a565b6001600160a01b0316145b6136b05760405162461bcd60e51b815260206004820152601660248201527537b7363c9036b0b730b3b2b91037b9103a3930b232b960511b6044820152606401604051809103906136ad61571d565b50505b6136b9836121c7565b61370d5760405162461bcd60e51b81526020600482015260186024820152771d5b9cdd5c1c1bdc9d1959081cdbdd5c98d948185cdcd95d60421b60448201526064016040518091039061370a61571d565b50505b613716816121c7565b61376f5760405162461bcd60e51b815260206004820152601d60248201527f756e737570706f727465642064657374696e6174696f6e20617373657400000060448201526064016040518091039061376c61571d565b50505b600061377a846125b2565b90506000613787836125b2565b90506000806038613796615788565b906101000a90046001600160a01b03166001600160a01b03166321f8a721680a6f2dce8d0cae8d2f60bb1b6040516001600160e01b031960e084901b168152600481019190915260240160206040518083038186806137f36157e3565b1580156138085760008061380561571d565b50505b505a61381261582f565b5050505050158015613831573d6000803e3d600061382e61571d565b50505b505050506040513d60208110156138505760008061384d61571d565b50505b810190808051935060009250506001600160a01b03831690506330ead76085888685603961387c615788565b906101000a90046001600160a01b03166001600160a01b0316631d68702d6040518163ffffffff1660e01b815260040160206040518083038186806138bf6157e3565b1580156138d4576000806138d161571d565b50505b505a6138de61582f565b50505050501580156138fd573d6000803e3d60006138fa61571d565b50505b505050506040513d602081101561391c5760008061391961571d565b50505b81019080805192506000915060399050613934615788565b906101000a90046001600160a01b03166001600160a01b03166349f7c02d6040518163ffffffff1660e01b815260040160206040518083038186806139776157e3565b15801561398c5760008061398961571d565b50505b505a61399661582f565b50505050501580156139b5573d6000803e3d60006139b261571d565b50505b505050506040513d60208110156139d4576000806139d161571d565b50505b81019080805192506040915050516001600160e01b031960e088901b1681526004810195909552602485019390935260448401919091526001600160a01b03166064830152608482015260a40160206040518083038160008780613a366157e3565b158015613a4b57600080613a4861571d565b50505b505a613a55615a94565b505050505050158015613a75573d6000803e3d6000613a7261571d565b50505b505050506040513d6020811015613a9457600080613a9161571d565b50505b81019080805193507f2083d2b241ef1ec859ae0402864fd9fe9d6d36b18c73615625b46acaf113be78925050505a63996d79a5598160e01b8152602081600483336000905af158600e01573d6000803e3d6000fd5b3d6001141558600a015760016000f35b8051925060005b6040811015613b1757600082820152602001613b00565b5050505a613b2361591a565b898989865a613b30615a4e565b6040516001600160a01b039788168152958716602087015293861660408087019190915260608601939093529416608084015260a083019390935260c082015260e001905180910390a150505050505050565b60006035806133f6615788565b60006033613b9c615788565b906101000a90046001600160a01b03166001600160a01b03165a613bbe61591a565b6001600160a01b031614613c105760405162461bcd60e51b815260206004820152600c60248201526b37b7363c9036b0b730b3b2b960a11b604482015260640160405180910390613c0d61571d565b50505b806037600181611adb615788565b60006033613c2a615788565b906101000a90046001600160a01b03166001600160a01b03165a613c4c61591a565b6001600160a01b031614613c9e5760405162461bcd60e51b815260206004820152600c60248201526b37b7363c9036b0b730b3b2b960a11b604482015260640160405180910390613c9b61571d565b50505b600080603d613cab615960565b5050506000603e8190613cbc615960565b5050507fc6f04bf43cbdf1ba5d51b4afa160bb3c7e13858b1409aa32868b239bb2f8d84960405160405180910390a1565b6001600160a01b03811660009081526036602052604081206121e7615788565b60006119ab826000600461244a565b6000603961144e615788565b603a8181613d34615788565b8110613d3c57fe5b906000526020600020016000915061144e615788565b60006033613d5e615788565b906101000a90046001600160a01b03166001600160a01b03165a613d8061591a565b6001600160a01b031614613dd25760405162461bcd60e51b815260206004820152600c60248201526b37b7363c9036b0b730b3b2b960a11b604482015260640160405180910390613dcf61571d565b50505b613ddb81613ced565b15613de557611841565b61184181614fcc565b60016000613dfa615788565b906101000a900460ff1680613e125750613e1261551a565b80613e2f5750600080613e23615788565b906101000a900460ff16155b613e735760405162461bcd60e51b815260040180806020018281038252602e815260200180615b7a602e913960400191505060405180910390613e7061571d565b50505b6000600181613e80615788565b906101000a900460ff161590508015613ee6576001600061010081613ea3615788565b8160ff02191690831515021790613eb8615960565b50505060016000806101000a81613ecd615788565b8160ff02191690831515021790613ee2615960565b5050505b613ef0858561558b565b856039600181613efe615788565b816001600160a01b0302191690836001600160a01b0316021790613f20615960565b50505082603860006101000a81613f35615788565b816001600160a01b0302191690836001600160a01b0316021790613f57615960565b50505060005b82518160ff161015613f9057613f88838260ff1681518110613f7b57fe5b6020026020010151614ad3565b600101613f5d565b506000613fa3631cd554d160e21b611e09565b90506001600160a01b03811615613ffc57613fbd81614ad3565b6001600160a01b0381166000908152603c60205260019060409020600181613fe3615788565b8160ff02191690831515021790613ff8615960565b5050505b50801561402b5760008061010081614012615788565b8160ff02191690831515021790614027615960565b5050505b505050505050565b6000806038614040615788565b906101000a90046001600160a01b03166001600160a01b03166321f8a7216c45786368616e6765526174657360981b6040516001600160e01b031960e084901b168152600481019190915260240160206040518083038186806140a16157e3565b1580156140b6576000806140b361571d565b50505b505a6140c061582f565b50505050501580156140df573d6000803e3d60006140dc61571d565b50505b505050506040513d60208110156140fe576000806140fb61571d565b50505b8101908080516001600160a01b0316925063654a60ac91506141219050846125b2565b846001600160a01b03166370a082315a63996d79a5598160e01b8152602081600483336000905af158600e01573d6000803e3d6000fd5b3d6001141558600a015760016000f35b8051925060005b60408110156141865760008282015260200161416f565b5050506040516001600160e01b031960e084901b1681526001600160a01b03909116600482015260240160206040518083038186806141c36157e3565b1580156141d8576000806141d561571d565b50505b505a6141e261582f565b5050505050158015614201573d6000803e3d60006141fe61571d565b50505b505050506040513d60208110156142205760008061421d61571d565b50505b8101908080519250631cd554d160e21b915060409050516001600160e01b031960e086901b16815260048101939093526024830191909152604482015260640160206040518083038186806126ce6157e3565b6000818301845110156142d55760405162461bcd60e51b815260206004820152601b60248201527f52656164696e67206279746573206f7574206f6620626f756e647300000000006044820152606401604051809103906142d261571d565b50505b8260200184015190508160200380156124cb5760080260020a90049392505050565b6060603a80614304615788565b806020026020016040519081016040528181529190602083018280614327615788565b80156135c957602002820191906000526020600020905b600082614349615788565b906101000a90046001600160a01b03166001600160a01b03168152602001906001019080831161433e575050505050905090565b600080603d61438a615788565b603e614394615788565b915091509091565b60608060606000603a806143ae615788565b9050905060608167ffffffffffffffff811180156143d4576000806143d161571d565b50505b506040519080825280602002602001820160405280156143fe578160200160208202803683370190505b50905060608267ffffffffffffffff811180156144235760008061442061571d565b50505b5060405190808252806020026020018201604052801561444d578160200160208202803683370190505b50905060608367ffffffffffffffff811180156144725760008061446f61571d565b50505b5060405190808252806020026020018201604052801561449c578160200160208202803683370190505b50905060008060386144ac615788565b906101000a90046001600160a01b03166001600160a01b03166321f8a7216c45786368616e6765526174657360981b6040516001600160e01b031960e084901b1681526004810191909152602401602060405180830381868061450d6157e3565b1580156145225760008061451f61571d565b50505b505a61452c61582f565b505050505015801561454b573d6000803e3d600061454861571d565b50505b505050506040513d602081101561456a5760008061456761571d565b50505b81019080805193506000925050505b858110156147cf576000603a828161458f615788565b811061459757fe5b906000526020600020016000906145ac615788565b906101000a90046001600160a01b03169050806001600160a01b03166370a082315a63996d79a5598160e01b8152602081600483336000905af158600e01573d6000803e3d6000fd5b3d6001141558600a015760016000f35b8051925060005b60408110156146235760008282015260200161460c565b5050506040516001600160e01b031960e084901b1681526001600160a01b03909116600482015260240160206040518083038186806146606157e3565b1580156146755760008061467261571d565b50505b505a61467f61582f565b505050505015801561469e573d6000803e3d600061469b61571d565b50505b505050506040513d60208110156146bd576000806146ba61571d565b50505b8101908080519250879150849050815181106146d557fe5b602002602001018181525050808683815181106146ee57fe5b6001600160a01b039283166020918202929092010152831663ac82f608614714836125b2565b6040516001600160e01b031960e084901b168152600481019190915260240160206040518083038186806147466157e3565b15801561475b5760008061475861571d565b50505b505a61476561582f565b5050505050158015614784573d6000803e3d600061478161571d565b50505b505050506040513d60208110156147a3576000806147a061571d565b50505b8101908080519250869150849050815181106147bb57fe5b602090810291909101015250600101614579565b509297919650945092505050565b60606034806147ea615788565b600181600116156101000203166002900480601f016020809104026020016040519081016040528181529190602083018280614824615788565b600181600116156101000203166002900480156135c95780601f1061485e576101008083614850615788565b0402835291602001916135c9565b820191906000526020600020905b81614875615788565b8152906001019060200180831161486c57509395945050505050565b6000603a8061489e615788565b6001600160a01b0384166000908152603b60205290925090506148ce6001604083206148c8615788565b906155d2565b90506000603a6148df8460016155d2565b816148e8615788565b81106148f057fe5b90600052602060002001600090614905615788565b906101000a90046001600160a01b0316905080603a8381614924615788565b811061492c57fe5b90600052602060002001600181614941615788565b816001600160a01b0302191690836001600160a01b0316021790614963615960565b5061497391508390506001614f6d565b6001600160a01b0382166000908152603b602052604090208190614995615960565b5050506001600160a01b0384166000908152603b6020526040812081906149ba615960565b505050603a806149c8615788565b806149cf57fe5b600190038181906000526020600020016001816149ea615788565b906001600160a01b03021916906149ff615960565b505090614a0a615960565b50507f9b4f55639e5e283319baee5bc4e69a5625a8e3a1cc004af968f4fee7250220275a63996d79a5598160e01b8152602081600483336000905af158600e01573d6000803e3d6000fd5b3d6001141558600a015760016000f35b8051925060005b6040811015614a8357600082820152602001614a6c565b505050614a8e6122c8565b8660405180846001600160a01b03168152602001836001600160a01b03168152602001826001600160a01b03168152602001935050505060405180910390a150505050565b60006039614adf615788565b906101000a90046001600160a01b03166001600160a01b031663aa12ae4d6040518163ffffffff1660e01b81526004016020604051808303818680614b226157e3565b158015614b3757600080614b3461571d565b50505b505a614b4161582f565b5050505050158015614b60573d6000803e3d6000614b5d61571d565b50505b505050506040513d6020811015614b7f57600080614b7c61571d565b50505b8101908080519250603a9150819050614b96615788565b905010614beb5760405162461bcd60e51b81526020600482015260166024820152751b585e1a5b5d5b48185cdcd95d1cc81c995858da195960521b604482015260640160405180910390614be861571d565b50505b614bf4816121c7565b15614c4e5760405162461bcd60e51b815260206004820152601760248201527f617373657420616c726561647920737570706f72746564000000000000000000604482015260640160405180910390614c4b61571d565b50505b614c5781613183565b1515600114614ca75760405162461bcd60e51b815260206004820152600f60248201526e1b9bdb8b5cde5b9d1a08185cdcd95d608a1b604482015260640160405180910390614ca461571d565b50505b80603a80600181614cb6615788565b018082614cc1615960565b505060009283526000190191602091502001600181614cde615788565b816001600160a01b0302191690836001600160a01b0316021790614d00615960565b505050603a80614d0e615788565b6001600160a01b0383166000908152603b602052909150604090208190614d33615960565b5050507f0a7426a0630aad7dbc4d5ca5b7d9aac1133d77d2db987caaf4b4186c85d6593f5a63996d79a5598160e01b8152602081600483336000905af158600e01573d6000803e3d6000fd5b3d6001141558600a015760016000f35b8051925060005b6040811015614dad57600082820152602001614d96565b505050614db86122c8565b8360405180846001600160a01b03168152602001836001600160a01b03168152602001826001600160a01b03168152602001935050505060405180910390a150565b6000603580614e07615788565b6001600160a01b038416600090815260366020529092509050614e316001604083206148c8615788565b905060006035614e428460016155d2565b81614e4b615788565b8110614e5357fe5b90600052602060002001600090614e68615788565b906101000a90046001600160a01b031690508060358381614e87615788565b8110614e8f57fe5b90600052602060002001600181614ea4615788565b816001600160a01b0302191690836001600160a01b0316021790614ec6615960565b50614ed691508390506001614f6d565b6001600160a01b03821660009081526036602052604090208190614ef8615960565b5050506001600160a01b03841660009081526036602052604081208190614f1d615960565b505050603580614f2b615788565b80614f3257fe5b60019003818190600052602060002001600181614f4d615788565b906001600160a01b0302191690614f62615960565b50509061402b615960565b6000828201838110156120c85760405162461bcd60e51b815260206004820152601b60248201527f536166654d6174683a206164646974696f6e206f766572666c6f7700000000006044820152606401604051809103906120c561571d565b80603580600181614fdb615788565b018082614fe6615960565b505060009283526000190191602091502001600181615003615788565b816001600160a01b0302191690836001600160a01b0316021790615025615960565b505050603580615033615788565b6001600160a01b03831660009081526036602052909150604090208190611afd615960565b615061846121c7565b6150b55760405162461bcd60e51b81526020600482015260186024820152771d5b9cdd5c1c1bdc9d1959081cdbdd5c98d948185cdcd95d60421b6044820152606401604051809103906150b261571d565b50505b6150be826121c7565b6151175760405162461bcd60e51b815260206004820152601d60248201527f756e737570706f727465642064657374696e6174696f6e20617373657400000060448201526064016040518091039061511461571d565b50505b60006060866001600160a01b0316836040518082805190602001908083835b602083106151555780518252601f199092019160209182019101615136565b6001836020036101000a0380198251168184511680821785525050505050509050019150506000604051808303816000865a61518f615a94565b5050505050509150503d80600081146151c4576040513d603f01601f191681016040523d815291503d6000602084013e6151c9565b606091505b50909250905060018215151461522e5760405162461bcd60e51b815260206004820152601a60248201527f6661696c656420746f20657865637574652065786368616e676500000000000060448201526064016040518091039061522b61571d565b50505b7f2083d2b241ef1ec859ae0402864fd9fe9d6d36b18c73615625b46acaf113be785a63996d79a5598160e01b8152602081600483336000905af158600e01573d6000803e3d6000fd5b3d6001141558600a015760016000f35b8051925060005b60408110156152a55760008282015260200161528e565b5050506152b06122c8565b8888886152be876000615612565b5a613b30615a4e565b600060396152d3615788565b906101000a90046001600160a01b03166001600160a01b031663046b72c483836040516001600160e01b031960e085901b1681526001600160a01b0390921660048301526024820152604401600060405180830381600087806153346157e3565b1580156153495760008061534661571d565b50505b505a615353615a94565b505050505050158015615373573d6000803e3d600061537061571d565b50505b505050506000806039600090615387615788565b906101000a90046001600160a01b03166001600160a01b031663b7a54526856040516001600160e01b031960e084901b1681526001600160a01b039091166004820152602401604080518083038186806153df6157e3565b1580156153f4576000806153f161571d565b50505b505a6153fe61582f565b505050505015801561541d573d6000803e3d600061541a61571d565b50505b505050506040513d604081101561543c5760008061543961571d565b50505b81019080805192919060200180519395509293507f1780c04ddc6f0b32d866c7a3d7583f53515ef49ed2126af868f804f491601266925050505a63996d79a5598160e01b8152602081600483336000905af158600e01573d6000803e3d6000fd5b3d6001141558600a015760016000f35b8051925060005b60408110156154cb576000828201526020016154b4565b5050506154d66122c8565b848460405180856001600160a01b03168152602001846001600160a01b0316815260200183815260200182815260200194505050505060405180910390a150505050565b6000805a63996d79a5598160e01b8152602081600483336000905af158600e01573d6000803e3d6000fd5b3d6001141558600a015760016000f35b8051925060005b60408110156155735760008282015260200161555c565b50505090506000816155836157e3565b159250505090565b816033600181615599615788565b816001600160a01b0302191690836001600160a01b03160217906155bb615960565b5050508060349080516131369291602001906159ae565b60006120c8838360405160408082019052601e81527f536166654d6174683a207375627472616374696f6e206f766572666c6f770000602082015261567d565b6000816020018351101561566c5760405162461bcd60e51b8152602060048201526014602482015273736c6963696e67206f7574206f662072616e676560601b60448201526064016040518091039061566961571d565b50505b600082602001840151949350505050565b600081848411156157155760405162461bcd60e51b81526004018080602001828103825283818151815260200191508051906020019080838360005b838110156156d15780820151838201526020016156b9565b50505050905090810190601f1680156156fe5780820380516001836020036101000a031916815260200191505b50925050506040518091039061571261571d565b50505b505050900390565b632a2a7adb598160e01b8152600481016020815285602082015260005b8681101561575557808601518282016040015260200161573a565b506020828760640184336000905af158600e01573d6000803e3d6000fd5b3d6001141558600a015760016000f35b505050565b6303daa959598160e01b8152836004820152602081602483336000905af158600e01573d6000803e3d6000fd5b3d6001141558600a015760016000f35b8051935060005b6040811015613136576000828201526020016157cc565b638435035b598160e01b8152836004820152602081602483336000905af158600e01573d6000803e3d6000fd5b3d6001141558600a015760016000f35b805160008252935060206157cc565b638540661f598160e01b8152615860565b80808311156119ab575090919050565b80808310156119ab575090919050565b836004820152846024820152606060448201528660648201526084810160005b88811015615898578088015182820152602001615880565b506060828960a40184336000905af158600e01573d6000803e3d6000fd5b3d6001141558600a015760016000f35b815160408301513d6000853e8b8b82606087013350600060045af150596158ed8d3d615850565b8c016158f98187615840565b5b8281101561590e57600081526020016158fa565b50929c50505050505050565b6373509064598160e01b8152602081600483336000905af158600e01573d6000803e3d6000fd5b3d6001141558600a015760016000f35b805160008252935060206157cc565b6322bd64c0598160e01b8152836004820152846024820152600081604483336000905af158600e01573d6000803e3d6000fd5b3d6001141558600a015760016000f35b6000815260206157cc565b82806159b8615788565b600181600116156101000203166002900490600052602060002090601f016020900481019282601f106159ff57805160ff191683800117856159f8615960565b5050615a3e565b82800160010185615a0e615960565b50508215615a3e579182015b82811115615a3e57825182615a2d615960565b505091602001919060010190615a1a565b50615a4a929150615b5a565b5090565b63bdbf8c36598160e01b8152602081600483336000905af158600e01573d6000803e3d6000fd5b3d6001141558600a015760016000f35b805160008252935060206157cc565b6385979f76598160e01b8152836004820152846024820152606060448201528760648201526084810160005b89811015615ad8578089015182820152602001615ac0565b506060828a60a40184336000905af158600e01573d6000803e3d6000fd5b3d6001141558600a015760016000f35b815160408301513d6000853e8c8c82606087013350600060045af15059615b2d8e3d615850565b8d01615b398187615840565b5b82811015615b4e5760008152602001615b3a565b50929d50505050505050565b80821115615a4a5760008082615b6e615960565b505050600101615b5a56fe436f6e747261637420696e7374616e63652068617320616c7265616479206265656e20696e697469616c697a6564",
  "deployedBytecode": "0x60806040523480156100195760008061001661571d565b50505b50600436106102c45760003560e01c806380dd4f621161018b578063b8bd81e6116100f2578063d346cc65116100ab578063e5406dbf11610085578063e5406dbf146112cd578063ed5b165d146112d5578063f09d14d7146112dd578063fed4416a146113c3576102c4565b8063d346cc6514611044578063d8af8ed4146111d2578063db896b5714611201576102c4565b8063b8bd81e614610ee9578063bbbf725b14610ef1578063c3c6279f14610f20578063c45a015514610fe7578063c68dbb3714610fef578063ca6d56dc14611015576102c4565b8063998546e311610144578063998546e314610d1d5780639eab525314610de9578063a0f8414c14610e44578063a250bc6b14610e73578063a30e3fa914610eb2578063a6bc18f914610eba576102c4565b806380dd4f6214610bb457806382f86acc14610be35780638f32343914610caf5780639240d29914610cb7578063936553c414610ce6578063969eed2714610cee576102c4565b8063464b41581161022f5780636141db90116101e85780636141db90146109a45780636708f5d7146109d35780636f4d469b14610a085780637ae7cfb514610acd5780637b4d0c6314610ba45780637c8afd5114610bac576102c4565b8063464b41581461068d57806346ee84b0146106d0578063481c6a7514610795578063522136631461079d578063568b5a2f146108745780635f6eceab1461095d576102c4565b80631758078b116102815780631758078b146104925780631eba30771461049a57806321f8c984146104c05780633c570d7d146105615780633ded65301461059057806341dc16c3146105b6576102c4565b806305a2ee2a146102d257806306468587146102f6578063093b88251461032757806309ff5c7d146103565780630b1ca49a146104345780631430238714610463575b6000806102cf61571d565b50505b6102da611442565b6040516001600160a01b03909116815260200160405180910390f35b610325600480360360208110156103155760008061031261571d565b50505b50356001600160a01b0316611461565b005b610325600480360360208110156103465760008061034361571d565b50505b50356001600160a01b0316611844565b610422600480360360408110156103755760008061037261571d565b50505b810190602081018135600160201b8111156103985760008061039561571d565b50505b8201836020820111156103b3576000806103b061571d565b50505b803590602001918460018302840111600160201b831117156103dd576000806103da61571d565b50505b91908080601f01602080910402602001604051908101604052818152929190602084018383808284376000920191909152509295505050903560ff1691506119169050565b60405190815260200160405180910390f35b610325600480360360208110156104535760008061045061571d565b50505b50356001600160a01b03166119b1565b610325600480360360208110156104825760008061047f61571d565b50505b50356001600160a01b0316611a4c565b6102da611b03565b6102da600480360360208110156104b9576000806104b661571d565b50505b5035611b25565b6104c8611b2c565b604051808060200180602001838103835285818151815260200191508051906020019060200280838360005b8381101561050c5780820151838201526020016104f4565b50505050905001838103825284818151815260200191508051906020019060200280838360005b8381101561054b578082015183820152602001610533565b5050505090500194505050505060405180910390f35b610422600480360360208110156105805760008061057d61571d565b50505b50356001600160a01b0316611dee565b6102da600480360360208110156105af576000806105ac61571d565b50505b5035611e09565b610422600480360360608110156105d5576000806105d261571d565b50505b810190602081018135600160201b8111156105f8576000806105f561571d565b50505b8201836020820111156106135760008061061061571d565b50505b803590602001918460018302840111600160201b8311171561063d5760008061063a61571d565b50505b91908080601f01602080910402602001604051908101604052818152929190602084018383808284376000920191909152509295505060ff83358116945060209093013590921691506120cf9050565b6106bc600480360360208110156106ac576000806106a961571d565b50505b50356001600160a01b03166121c7565b604051901515815260200160405180910390f35b610325600480360360208110156106ef576000806106ec61571d565b50505b810190602081018135600160201b8111156107125760008061070f61571d565b50505b82018360208201111561072d5760008061072a61571d565b50505b803590602001918460208302840111600160201b831117156107575760008061075461571d565b50505b9190808060200260200160405190810160405280939291908181526020018383602002808284376000920191909152509295506121ef945050505050565b6102da6122c8565b610325600480360360408110156107bc576000806107b961571d565b50505b6001600160a01b038235169190810190604081016020820135600160201b8111156107ef576000806107ec61571d565b50505b82018360208201111561080a5760008061080761571d565b50505b803590602001918460018302840111600160201b831117156108345760008061083161571d565b50505b91908080601f01602080910402602001604051908101604052818152929190602084018383808284376000920191909152509295506122d5945050505050565b610940600480360360608110156108935760008061089061571d565b50505b810190602081018135600160201b8111156108b6576000806108b361571d565b50505b8201836020820111156108d1576000806108ce61571d565b50505b803590602001918460018302840111600160201b831117156108fb576000806108f861571d565b50505b91908080601f0160208091040260200160405190810160405281815292919060208401838380828437600092019190915250929550508235935050506020013561244a565b6040516001600160e01b0319909116815260200160405180910390f35b61098c6004803603602081101561097c5760008061097961571d565b50505b50356001600160a01b03166124d3565b60405191825260208201526040908101905180910390f35b610422600480360360208110156109c3576000806109c061571d565b50505b50356001600160a01b03166125b2565b610325600480360360408110156109f2576000806109ef61571d565b50505b506001600160a01b03813516906020013561273a565b61032560048036036020811015610a2757600080610a2461571d565b50505b810190602081018135600160201b811115610a4a57600080610a4761571d565b50505b820183602082011115610a6557600080610a6261571d565b50505b803590602001918460208302840111600160201b83111715610a8f57600080610a8c61571d565b50505b919080806020026020016040519081016040528093929190818152602001838360200280828437600092019190915250929550612a6a945050505050565b6106bc60048036036040811015610aec57600080610ae961571d565b50505b6001600160a01b038235169190810190604081016020820135600160201b811115610b1f57600080610b1c61571d565b50505b820183602082011115610b3a57600080610b3761571d565b50505b803590602001918460018302840111600160201b83111715610b6457600080610b6161571d565b50505b91908080601f0160208091040260200160405190810160405281815292919060208401838380828437600092019190915250929550612b33945050505050565b61042261307b565b610325613085565b6106bc60048036036020811015610bd357600080610bd061571d565b50505b50356001600160a01b031661313b565b61042260048036036040811015610c0257600080610bff61571d565b50505b810190602081018135600160201b811115610c2557600080610c2261571d565b50505b820183602082011115610c4057600080610c3d61571d565b50505b803590602001918460018302840111600160201b83111715610c6a57600080610c6761571d565b50505b91908080601f01602080910402602001604051908101604052818152929190602084018383808284376000920191909152509295505050903560ff1691506131629050565b610422613179565b6106bc60048036036020811015610cd657600080610cd361571d565b50505b50356001600160a01b0316613183565b6104226133e9565b61032560048036036020811015610d0d57600080610d0a61571d565b50505b50356001600160a01b03166133fc565b61042260048036036040811015610d3c57600080610d3961571d565b50505b810190602081018135600160201b811115610d5f57600080610d5c61571d565b50505b820183602082011115610d7a57600080610d7761571d565b50505b803590602001918460018302840111600160201b83111715610da457600080610da161571d565b50505b91908080601f01602080910402602001604051908101604052818152929190602084018383808284376000920191909152509295505050903560ff16915061351b9050565b610df161354c565b60405160208082528190810183818151815260200191508051906020019060200280838360005b83811015610e30578082015183820152602001610e18565b505050509050019250505060405180910390f35b6106bc60048036036020811015610e6357600080610e6061571d565b50505b50356001600160a01b03166135d3565b61032560048036036060811015610e9257600080610e8f61571d565b50505b506001600160a01b038135811691602081013591604090910135166135e7565b610422613b83565b61032560048036036020811015610ed957600080610ed661571d565b50505b50356001600160a01b0316613b90565b610325613c1e565b6106bc60048036036020811015610f1057600080610f0d61571d565b50505b50356001600160a01b0316613ced565b61094060048036036020811015610f3f57600080610f3c61571d565b50505b810190602081018135600160201b811115610f6257600080610f5f61571d565b50505b820183602082011115610f7d57600080610f7a61571d565b50505b803590602001918460018302840111600160201b83111715610fa757600080610fa461571d565b50505b91908080601f0160208091040260200160405190810160405281815292919060208401838380828437600092019190915250929550613d0d945050505050565b6102da613d1c565b6102da6004803603602081101561100e5760008061100b61571d565b50505b5035613d28565b610325600480360360208110156110345760008061103161571d565b50505b50356001600160a01b0316613d52565b610325600480360360a08110156110635760008061106061571d565b50505b6001600160a01b038235811692602081013590911691810190606081016040820135600160201b81111561109f5760008061109c61571d565b50505b8201836020820111156110ba576000806110b761571d565b50505b803590602001918460018302840111600160201b831117156110e4576000806110e161571d565b50505b91908080601f016020809104026020016040519081016040528181529291906020840183838082843760009201919091525092956001600160a01b03853516959094909350604081019250602001359050600160201b81111561114f5760008061114c61571d565b50505b82018360208201111561116a5760008061116761571d565b50505b803590602001918460208302840111600160201b831117156111945760008061119161571d565b50505b919080806020026020016040519081016040528093929190818152602001838360200280828437600092019190915250929550613dee945050505050565b610422600480360360208110156111f1576000806111ee61571d565b50505b50356001600160a01b0316614033565b610422600480360360608110156112205760008061121d61571d565b50505b810190602081018135600160201b8111156112435760008061124061571d565b50505b82018360208201111561125e5760008061125b61571d565b50505b803590602001918460018302840111600160201b831117156112885760008061128561571d565b50505b91908080601f01602080910402602001604051908101604052818152929190602084018383808284376000920191909152509295505082359350505060200135614273565b610df16142f7565b61098c61437d565b6112e561439c565b60405180806020018060200180602001848103845287818151815260200191508051906020019060200280838360005b8381101561132d578082015183820152602001611315565b50505050905001848103835286818151815260200191508051906020019060200280838360005b8381101561136c578082015183820152602001611354565b50505050905001848103825285818151815260200191508051906020019060200280838360005b838110156113ab578082015183820152602001611393565b50505050905001965050505050505060405180910390f35b6113cb6147dd565b60405160208082528190810183818151815260200191508051906020019080838360005b838110156114075780820151838201526020016113ef565b50505050905090810190601f1680156114345780820380516001836020036101000a031916815260200191505b509250505060405180910390f35b6000603861144e615788565b906101000a90046001600160a01b031681565b6000603961146d615788565b906101000a90046001600160a01b03166001600160a01b0316638da5cb5b6040518163ffffffff1660e01b815260040160206040518083038186806114b06157e3565b1580156114c5576000806114c261571d565b50505b505a6114cf61582f565b50505050501580156114ee573d6000803e3d60006114eb61571d565b50505b505050506040513d602081101561150d5760008061150a61571d565b50505b8101908080516001600160a01b0316925050505a61152961591a565b6001600160a01b0316148061155e57506115416122c8565b6001600160a01b03165a61155361591a565b6001600160a01b0316145b80611589575061156c611b03565b6001600160a01b03165a61157e61591a565b6001600160a01b0316145b6115e25760405162461bcd60e51b815260206004820152601b60248201527f6f6e6c79206d616e616765722c20747261646572206f722044414f00000000006044820152606401604051809103906115df61571d565b50505b6115eb816121c7565b61163a5760405162461bcd60e51b8152602060048201526013602482015272185cdcd95d081b9bdd081cdd5c1c1bdc9d1959606a1b60448201526064016040518091039061163761571d565b50505b6001600160a01b0381166000908152603c6020526040902060009061165d615788565b906101000a900460ff16156116c15760405162461bcd60e51b815260206004820152601f60248201527f63616e6e6f742072656d6f76652070657273697374656e7420617373657473006044820152606401604051809103906116be61571d565b50505b6116ca81613183565b15156001141561183857806001600160a01b03166370a082315a63996d79a5598160e01b8152602081600483336000905af158601d01573d60011458600c01573d6000803e3d621234565260ea61109c528051925060005b604081101561173957600082820152602001611722565b5050506040516001600160e01b031960e084901b1681526001600160a01b03909116600482015260240160206040518083038186806117766157e3565b15801561178b5760008061178861571d565b50505b505a61179561582f565b50505050501580156117b4573d6000803e3d60006117b161571d565b50505b505050506040513d60208110156117d3576000806117d061571d565b50505b8101908080511592506118389150505760405162461bcd60e51b815260206004820152601d60248201527f63616e6e6f742072656d6f7665206e6f6e2d656d70747920617373657400000060448201526064016040518091039061183561571d565b50505b61184181614891565b50565b60006033611850615788565b906101000a90046001600160a01b03166001600160a01b03165a61187261591a565b6001600160a01b031614806118bb57506000603761188e615788565b906101000a90046001600160a01b03166001600160a01b03165a6118b061591a565b6001600160a01b0316145b61190d5760405162461bcd60e51b815260206004820152601660248201527537b7363c9036b0b730b3b2b91037b9103a3930b232b960511b60448201526064016040518091039061190a61571d565b50505b61184181614ad3565b60008061192e848460200260040160ff166020614273565b9050600061194185600484016020614273565b9050806119925760405162461bcd60e51b8152602060048201526012602482015271696e707574206973206e6f7420617272617960701b60448201526064016040518091039061198f61571d565b50505b6119a6856020808402850160040190614273565b925050505b92915050565b600060336119bd615788565b906101000a90046001600160a01b03166001600160a01b03165a6119df61591a565b6001600160a01b031614611a315760405162461bcd60e51b815260206004820152600c60248201526b37b7363c9036b0b730b3b2b960a11b604482015260640160405180910390611a2e61571d565b50505b611a3a81613ced565b611a4357611841565b61184181614dfa565b60006039611a58615788565b906101000a90046001600160a01b03166001600160a01b03165a611a7a61591a565b6001600160a01b031614611acd5760405162461bcd60e51b815260206004820152600d60248201526c3737903832b936b4b9b9b4b7b760991b604482015260640160405180910390611aca61571d565b50505b806038600181611adb615788565b816001600160a01b0302191690836001600160a01b0316021790611afd615960565b50505050565b6000806037611b10615788565b906101000a90046001600160a01b0316905090565b805b919050565b6060806000603a80611b3c615788565b9050905060608167ffffffffffffffff81118015611b6257600080611b5f61571d565b50505b50604051908082528060200260200182016040528015611b8c578160200160208202803683370190505b50905060608267ffffffffffffffff81118015611bb157600080611bae61571d565b50505b50604051908082528060200260200182016040528015611bdb578160200160208202803683370190505b5090506000806038611beb615788565b906101000a90046001600160a01b03166001600160a01b03166321f8a7216b53797374656d53746174757360a01b6040516001600160e01b031960e084901b16815260048101919091526024016020604051808303818680611c4b6157e3565b158015611c6057600080611c5d61571d565b50505b505a611c6a61582f565b5050505050158015611c89573d6000803e3d6000611c8661571d565b50505b505050506040513d6020811015611ca857600080611ca561571d565b50505b81019080805193506000925050505b84811015611de2576000603a8281611ccd615788565b8110611cd557fe5b90600052602060002001600090611cea615788565b906101000a90046001600160a01b0316905080858381518110611d0957fe5b6001600160a01b03928316602091820292909201015283166342a28e21611d2f836125b2565b6040516001600160e01b031960e084901b16815260048101919091526024016000604051808303818680611d616157e3565b158015611d7657600080611d7361571d565b50505b505a611d8061582f565b5050505050925050508015611d93575060015b611dba576001848381518110611da557fe5b91151560209283029190910190910152611dd9565b6000848381518110611dc857fe5b911515602092830291909101909101525b50600101611cb7565b50919450925050509091565b603b6020528060005260406000209050611e06615788565b81565b600080806038611e17615788565b906101000a90046001600160a01b03166001600160a01b03166321f8a721680a6f2dce8d0cae8d2f60bb1b6040516001600160e01b031960e084901b16815260048101919091526024016020604051808303818680611e746157e3565b158015611e8957600080611e8661571d565b50505b505a611e9361582f565b5050505050158015611eb2573d6000803e3d6000611eaf61571d565b50505b505050506040513d6020811015611ed157600080611ece61571d565b50505b8101908080516001600160a01b03169250633260803991508590506040516001600160e01b031960e084901b16815260048101919091526024016020604051808303818680611f1e6157e3565b158015611f3357600080611f3061571d565b50505b505a611f3d61582f565b5050505050158015611f5c573d6000803e3d6000611f5961571d565b50505b505050506040513d6020811015611f7b57600080611f7861571d565b50505b81019080805193505050506001600160a01b038116611fd75760405162461bcd60e51b815260206004820152600b60248201526a696e76616c6964206b657960a81b604482015260640160405180910390611fd461571d565b50505b6000816001600160a01b031663ec5568896040518163ffffffff1660e01b8152600401602060405180830381868061200d6157e3565b1580156120225760008061201f61571d565b50505b505a61202c61582f565b505050505015801561204b573d6000803e3d600061204861571d565b50505b505050506040513d602081101561206a5760008061206761571d565b50505b81019080805193505050506001600160a01b0381166120c85760405162461bcd60e51b815260206004820152600d60248201526c696e76616c69642070726f787960981b6044820152606401604051809103906120c561571d565b50505b9392505050565b6000806120e7858560200260040160ff166020614273565b905060006120fa86600484016020614273565b90508061214b5760405162461bcd60e51b8152602060048201526012602482015271696e707574206973206e6f7420617272617960701b60448201526064016040518091039061214861571d565b50505b60ff841681116121a35760405162461bcd60e51b815260206004820152601660248201527534b73b30b634b21030b93930bc903837b9b4ba34b7b760511b6044820152606401604051809103906121a061571d565b50505b6121bd866020600160ff8816018102850160040190614273565b9695505050505050565b6001600160a01b0381166000908152603b602052604081206121e7615788565b151592915050565b600060336121fb615788565b906101000a90046001600160a01b03166001600160a01b03165a61221d61591a565b6001600160a01b03161461226f5760405162461bcd60e51b815260206004820152600c60248201526b37b7363c9036b0b730b3b2b960a11b60448201526064016040518091039061226c61571d565b50505b60005b81518110156122c45761229782828151811061228a57fe5b6020026020010151613ced565b6122a0576122bc565b6122bc8282815181106122af57fe5b6020026020010151614dfa565b600101612272565b5050565b6000806033611b10615788565b600060336122e1615788565b906101000a90046001600160a01b03166001600160a01b03165a61230361591a565b6001600160a01b0316146123555760405162461bcd60e51b815260206004820152600c60248201526b37b7363c9036b0b730b3b2b960a11b60448201526064016040518091039061235261571d565b50505b816033600181612363615788565b816001600160a01b0302191690836001600160a01b0316021790612385615960565b50505080603490805161239c9291602001906159ae565b507f6ed15082ad038474841528b5badca105106d4463e44b5d434130dfb299aa366982826040516001600160a01b038316815260406020820181815290820183818151815260200191508051906020019080838360005b8381101561240b5780820151838201526020016123f3565b50505050905090810190601f1680156124385780820380516001836020036101000a031916815260200191505b50935050505060405180910390a15050565b6000818301845110156124ac5760405162461bcd60e51b815260206004820152601b60248201527f52656164696e67206279746573206f7574206f6620626f756e647300000000006044820152606401604051809103906124a961571d565b50505b8260200184015190508160040380156124cb576008810260020a820491505b509392505050565b6000808060396124e1615788565b906101000a90046001600160a01b03166001600160a01b031663b7a54526846040516001600160e01b031960e084901b1681526001600160a01b039091166004820152602401604080518083038186806125396157e3565b15801561254e5760008061254b61571d565b50505b505a61255861582f565b5050505050158015612577573d6000803e3d600061257461571d565b50505b505050506040513d60408110156125965760008061259361571d565b50505b8101908080519291906020018051939550929350505050915091565b60008060386125bf615788565b906101000a90046001600160a01b03166001600160a01b03166321f8a721680a6f2dce8d0cae8d2f60bb1b6040516001600160e01b031960e084901b1681526004810191909152602401602060405180830381868061261c6157e3565b1580156126315760008061262e61571d565b50505b505a61263b61582f565b505050505015801561265a573d6000803e3d600061265761571d565b50505b505050506040513d60208110156126795760008061267661571d565b50505b8101908080516001600160a01b031692506316b2213f91508490506040516001600160e01b031960e084901b1681526001600160a01b03909116600482015260240160206040518083038186806126ce6157e3565b1580156126e3576000806126e061571d565b50505b505a6126ed61582f565b505050505015801561270c573d6000803e3d600061270961571d565b50505b505050506040513d602081101561272b5760008061272861571d565b50505b81019080805195945050505050565b60006033612746615788565b906101000a90046001600160a01b03166001600160a01b03165a61276861591a565b6001600160a01b0316146127ba5760405162461bcd60e51b815260206004820152600c60248201526b37b7363c9036b0b730b3b2b960a11b6044820152606401604051809103906127b761571d565b50505b60008060396127c7615788565b906101000a90046001600160a01b03166001600160a01b0316635c9bfc2b6040518163ffffffff1660e01b8152600401602060405180830381868061280a6157e3565b15801561281f5760008061281c61571d565b50505b505a61282961582f565b5050505050158015612848573d6000803e3d600061284561571d565b50505b505050506040513d60208110156128675760008061286461571d565b50505b8101908080519350600092508291506128819050856124d3565b9092509050808411156128d65760405162461bcd60e51b815260206004820152601060248201526f34b73b30b634b210333930b1ba34b7b760811b6044820152606401604051809103906128d361571d565b50505b6128e08284614f6d565b84111561293c5760405162461bcd60e51b815260206004820152601960248201527f657863656564656420616c6c6f77656420696e6372656173650000000000000060448201526064016040518091039061293961571d565b50505b6000806039612949615788565b906101000a90046001600160a01b03166001600160a01b031663ebee461d6040518163ffffffff1660e01b8152600401602060405180830381868061298c6157e3565b1580156129a15760008061299e61571d565b50505b505a6129ab61582f565b50505050501580156129ca573d6000803e3d60006129c761571d565b50505b505050506040513d60208110156129e9576000806129e661571d565b50505b8101908080519350879250829150603d9050612a03615960565b505050805a612a10615a4e565b0180603e612a1c615960565b5050507f4db9119741646c419f1ceccdf112b5b9a9b4516355e742e1fa9c479f4dec98da85603e612a4b615788565b60405191825260208201526040908101905180910390a1505050505050565b60006033612a76615788565b906101000a90046001600160a01b03166001600160a01b03165a612a9861591a565b6001600160a01b031614612aea5760405162461bcd60e51b815260206004820152600c60248201526b37b7363c9036b0b730b3b2b960a11b604482015260640160405180910390612ae761571d565b50505b60005b81518110156122c457612b0582828151811061228a57fe5b15612b0f57612b2b565b612b2b828281518110612b1e57fe5b6020026020010151614fcc565b600101612aed565b6000806033612b40615788565b906101000a90046001600160a01b03166001600160a01b03165a612b6261591a565b6001600160a01b03161480612bab575060006037612b7e615788565b906101000a90046001600160a01b03166001600160a01b03165a612ba061591a565b6001600160a01b0316145b612bfd5760405162461bcd60e51b815260206004820152601660248201527537b7363c9036b0b730b3b2b91037b9103a3930b232b960511b604482015260640160405180910390612bfa61571d565b50505b6001600160a01b038316612c605760405162461bcd60e51b815260206004820152601c60248201527f6e6f6e2d7a65726f206164647265737320697320726571756972656400000000604482015260640160405180910390612c5d61571d565b50505b6000806039612c6d615788565b906101000a90046001600160a01b03166001600160a01b0316637027ea6c856040516001600160e01b031960e084901b1681526001600160a01b0390911660048201526024016020604051808303818680612cc66157e3565b158015612cdb57600080612cd861571d565b50505b505a612ce561582f565b5050505050158015612d04573d6000803e3d6000612d0161571d565b50505b505050506040513d6020811015612d2357600080612d2061571d565b50505b81019080805193505050506001600160a01b038116612d875760405162461bcd60e51b815260206004820152601360248201527234b73b30b634b2103232b9ba34b730ba34b7b760691b604482015260640160405180910390612d8461571d565b50505b600080600080846001600160a01b031663e23ff4375a63996d79a5598160e01b8152602081600483336000905af158601d01573d60011458600c01573d6000803e3d621234565260ea61109c528051925060005b6040811015612df257600082820152602001612ddb565b505050896040518363ffffffff1660e01b815260040180836001600160a01b0316815260200180602001828103825283818151815260200191508051906020019080838360005b83811015612e51578082015183820152602001612e39565b50505050905090810190601f168015612e7e5780820380516001836020036101000a031916815260200191505b5093505050506080604051808303818680612e976157e3565b158015612eac57600080612ea961571d565b50505b505a612eb661582f565b5050505050158015612ed5573d6000803e3d6000612ed261571d565b50505b505050506040513d6080811015612ef457600080612ef161571d565b50505b81019080805192919060200180519291906020018051929190602001805195995093975091955092935050505060ff841660021415612f5857612f4a88612f3a85611b25565b84612f4485611b25565b8b615058565b6001955050505050506119ab565b6000886001600160a01b0316886040518082805190602001908083835b60208310612f945780518252601f199092019160209182019101612f75565b6001836020036101000a0380198251168184511680821785525050505050509050019150506000604051808303816000865a612fce615a94565b5050505050509150503d8060008114613003576040513d603f01601f191681016040523d815291503d6000602084013e613008565b606091505b509091505060018115151461306c5760405162461bcd60e51b815260206004820152601a60248201527f6661696c656420746f2065786563757465207468652063616c6c00000000000060448201526064016040518091039061306961571d565b50505b50600198975050505050505050565b603e611e06615788565b60006033613091615788565b906101000a90046001600160a01b03166001600160a01b03165a6130b361591a565b6001600160a01b0316146131055760405162461bcd60e51b815260206004820152600c60248201526b37b7363c9036b0b730b3b2b960a11b60448201526064016040518091039061310261571d565b50505b60006037600181613114615788565b816001600160a01b0302191690836001600160a01b0316021790613136615960565b505050565b603c60205280600052604060002060009150613155615788565b906101000a900460ff1681565b60006120c8838360200260040160ff166020614273565b603d611e06615788565b60008061318f836125b2565b9050600080603861319e615788565b906101000a90046001600160a01b03166001600160a01b03166321f8a721680a6f2dce8d0cae8d2f60bb1b6040516001600160e01b031960e084901b168152600481019190915260240160206040518083038186806131fb6157e3565b1580156132105760008061320d61571d565b50505b505a61321a61582f565b5050505050158015613239573d6000803e3d600061323661571d565b50505b505050506040513d60208110156132585760008061325561571d565b50505b8101908080516001600160a01b03169250633260803991508490506040516001600160e01b031960e084901b168152600481019190915260240160206040518083038186806132a56157e3565b1580156132ba576000806132b761571d565b50505b505a6132c461582f565b50505050501580156132e3573d6000803e3d60006132e061571d565b50505b505050506040513d6020811015613302576000806132ff61571d565b50505b81019080805193505050506001600160a01b03811661332657600092505050611b27565b6000816001600160a01b031663ec5568896040518163ffffffff1660e01b8152600401602060405180830381868061335c6157e3565b1580156133715760008061336e61571d565b50505b505a61337b61582f565b505050505015801561339a573d6000803e3d600061339761571d565b50505b505050506040513d60208110156133b9576000806133b661571d565b50505b81019080805193505050506001600160a01b0381166133de5760009350505050611b27565b506001949350505050565b6000603a806133f6615788565b91505090565b60006033613408615788565b906101000a90046001600160a01b03166001600160a01b03165a61342a61591a565b6001600160a01b03161461347c5760405162461bcd60e51b815260206004820152600c60248201526b37b7363c9036b0b730b3b2b960a11b60448201526064016040518091039061347961571d565b50505b603e613486615788565b5a61348f615a4e565b10156134ea5760405162461bcd60e51b815260206004820152601960248201527f66656520696e6372656173652064656c617920616374697665000000000000006044820152606401604051809103906134e761571d565b50505b6134fd81603d6134f8615788565b6152c7565b600080603d61350a615960565b5050506000603e8190611afd615960565b600080613533848460200260040160ff166020614273565b905061354484600483016020614273565b949350505050565b6060603580613559615788565b80602002602001604051908101604052818152919060208301828061357c615788565b80156135c957602002820191906000526020600020905b60008261359e615788565b906101000a90046001600160a01b03166001600160a01b031681526020019060010190808311613593575b5050505050905090565b6000806135df836125b2565b141592915050565b600060336135f3615788565b906101000a90046001600160a01b03166001600160a01b03165a61361561591a565b6001600160a01b0316148061365e575060006037613631615788565b906101000a90046001600160a01b03166001600160a01b03165a61365361591a565b6001600160a01b0316145b6136b05760405162461bcd60e51b815260206004820152601660248201527537b7363c9036b0b730b3b2b91037b9103a3930b232b960511b6044820152606401604051809103906136ad61571d565b50505b6136b9836121c7565b61370d5760405162461bcd60e51b81526020600482015260186024820152771d5b9cdd5c1c1bdc9d1959081cdbdd5c98d948185cdcd95d60421b60448201526064016040518091039061370a61571d565b50505b613716816121c7565b61376f5760405162461bcd60e51b815260206004820152601d60248201527f756e737570706f727465642064657374696e6174696f6e20617373657400000060448201526064016040518091039061376c61571d565b50505b600061377a846125b2565b90506000613787836125b2565b90506000806038613796615788565b906101000a90046001600160a01b03166001600160a01b03166321f8a721680a6f2dce8d0cae8d2f60bb1b6040516001600160e01b031960e084901b168152600481019190915260240160206040518083038186806137f36157e3565b1580156138085760008061380561571d565b50505b505a61381261582f565b5050505050158015613831573d6000803e3d600061382e61571d565b50505b505050506040513d60208110156138505760008061384d61571d565b50505b810190808051935060009250506001600160a01b03831690506330ead76085888685603961387c615788565b906101000a90046001600160a01b03166001600160a01b0316631d68702d6040518163ffffffff1660e01b815260040160206040518083038186806138bf6157e3565b1580156138d4576000806138d161571d565b50505b505a6138de61582f565b50505050501580156138fd573d6000803e3d60006138fa61571d565b50505b505050506040513d602081101561391c5760008061391961571d565b50505b81019080805192506000915060399050613934615788565b906101000a90046001600160a01b03166001600160a01b03166349f7c02d6040518163ffffffff1660e01b815260040160206040518083038186806139776157e3565b15801561398c5760008061398961571d565b50505b505a61399661582f565b50505050501580156139b5573d6000803e3d60006139b261571d565b50505b505050506040513d60208110156139d4576000806139d161571d565b50505b81019080805192506040915050516001600160e01b031960e088901b1681526004810195909552602485019390935260448401919091526001600160a01b03166064830152608482015260a40160206040518083038160008780613a366157e3565b158015613a4b57600080613a4861571d565b50505b505a613a55615a94565b505050505050158015613a75573d6000803e3d6000613a7261571d565b50505b505050506040513d6020811015613a9457600080613a9161571d565b50505b81019080805193507f2083d2b241ef1ec859ae0402864fd9fe9d6d36b18c73615625b46acaf113be78925050505a63996d79a5598160e01b8152602081600483336000905af158601d01573d60011458600c01573d6000803e3d621234565260ea61109c528051925060005b6040811015613b1757600082820152602001613b00565b5050505a613b2361591a565b898989865a613b30615a4e565b6040516001600160a01b039788168152958716602087015293861660408087019190915260608601939093529416608084015260a083019390935260c082015260e001905180910390a150505050505050565b60006035806133f6615788565b60006033613b9c615788565b906101000a90046001600160a01b03166001600160a01b03165a613bbe61591a565b6001600160a01b031614613c105760405162461bcd60e51b815260206004820152600c60248201526b37b7363c9036b0b730b3b2b960a11b604482015260640160405180910390613c0d61571d565b50505b806037600181611adb615788565b60006033613c2a615788565b906101000a90046001600160a01b03166001600160a01b03165a613c4c61591a565b6001600160a01b031614613c9e5760405162461bcd60e51b815260206004820152600c60248201526b37b7363c9036b0b730b3b2b960a11b604482015260640160405180910390613c9b61571d565b50505b600080603d613cab615960565b5050506000603e8190613cbc615960565b5050507fc6f04bf43cbdf1ba5d51b4afa160bb3c7e13858b1409aa32868b239bb2f8d84960405160405180910390a1565b6001600160a01b03811660009081526036602052604081206121e7615788565b60006119ab826000600461244a565b6000603961144e615788565b603a8181613d34615788565b8110613d3c57fe5b906000526020600020016000915061144e615788565b60006033613d5e615788565b906101000a90046001600160a01b03166001600160a01b03165a613d8061591a565b6001600160a01b031614613dd25760405162461bcd60e51b815260206004820152600c60248201526b37b7363c9036b0b730b3b2b960a11b604482015260640160405180910390613dcf61571d565b50505b613ddb81613ced565b15613de557611841565b61184181614fcc565b60016000613dfa615788565b906101000a900460ff1680613e125750613e1261551a565b80613e2f5750600080613e23615788565b906101000a900460ff16155b613e735760405162461bcd60e51b815260040180806020018281038252602e815260200180615b7a602e913960400191505060405180910390613e7061571d565b50505b6000600181613e80615788565b906101000a900460ff161590508015613ee6576001600061010081613ea3615788565b8160ff02191690831515021790613eb8615960565b50505060016000806101000a81613ecd615788565b8160ff02191690831515021790613ee2615960565b5050505b613ef0858561558b565b856039600181613efe615788565b816001600160a01b0302191690836001600160a01b0316021790613f20615960565b50505082603860006101000a81613f35615788565b816001600160a01b0302191690836001600160a01b0316021790613f57615960565b50505060005b82518160ff161015613f9057613f88838260ff1681518110613f7b57fe5b6020026020010151614ad3565b600101613f5d565b506000613fa3631cd554d160e21b611e09565b90506001600160a01b03811615613ffc57613fbd81614ad3565b6001600160a01b0381166000908152603c60205260019060409020600181613fe3615788565b8160ff02191690831515021790613ff8615960565b5050505b50801561402b5760008061010081614012615788565b8160ff02191690831515021790614027615960565b5050505b505050505050565b6000806038614040615788565b906101000a90046001600160a01b03166001600160a01b03166321f8a7216c45786368616e6765526174657360981b6040516001600160e01b031960e084901b168152600481019190915260240160206040518083038186806140a16157e3565b1580156140b6576000806140b361571d565b50505b505a6140c061582f565b50505050501580156140df573d6000803e3d60006140dc61571d565b50505b505050506040513d60208110156140fe576000806140fb61571d565b50505b8101908080516001600160a01b0316925063654a60ac91506141219050846125b2565b846001600160a01b03166370a082315a63996d79a5598160e01b8152602081600483336000905af158601d01573d60011458600c01573d6000803e3d621234565260ea61109c528051925060005b60408110156141865760008282015260200161416f565b5050506040516001600160e01b031960e084901b1681526001600160a01b03909116600482015260240160206040518083038186806141c36157e3565b1580156141d8576000806141d561571d565b50505b505a6141e261582f565b5050505050158015614201573d6000803e3d60006141fe61571d565b50505b505050506040513d60208110156142205760008061421d61571d565b50505b8101908080519250631cd554d160e21b915060409050516001600160e01b031960e086901b16815260048101939093526024830191909152604482015260640160206040518083038186806126ce6157e3565b6000818301845110156142d55760405162461bcd60e51b815260206004820152601b60248201527f52656164696e67206279746573206f7574206f6620626f756e647300000000006044820152606401604051809103906142d261571d565b50505b8260200184015190508160200380156124cb5760080260020a90049392505050565b6060603a80614304615788565b806020026020016040519081016040528181529190602083018280614327615788565b80156135c957602002820191906000526020600020905b600082614349615788565b906101000a90046001600160a01b03166001600160a01b03168152602001906001019080831161433e575050505050905090565b600080603d61438a615788565b603e614394615788565b915091509091565b60608060606000603a806143ae615788565b9050905060608167ffffffffffffffff811180156143d4576000806143d161571d565b50505b506040519080825280602002602001820160405280156143fe578160200160208202803683370190505b50905060608267ffffffffffffffff811180156144235760008061442061571d565b50505b5060405190808252806020026020018201604052801561444d578160200160208202803683370190505b50905060608367ffffffffffffffff811180156144725760008061446f61571d565b50505b5060405190808252806020026020018201604052801561449c578160200160208202803683370190505b50905060008060386144ac615788565b906101000a90046001600160a01b03166001600160a01b03166321f8a7216c45786368616e6765526174657360981b6040516001600160e01b031960e084901b1681526004810191909152602401602060405180830381868061450d6157e3565b1580156145225760008061451f61571d565b50505b505a61452c61582f565b505050505015801561454b573d6000803e3d600061454861571d565b50505b505050506040513d602081101561456a5760008061456761571d565b50505b81019080805193506000925050505b858110156147cf576000603a828161458f615788565b811061459757fe5b906000526020600020016000906145ac615788565b906101000a90046001600160a01b03169050806001600160a01b03166370a082315a63996d79a5598160e01b8152602081600483336000905af158601d01573d60011458600c01573d6000803e3d621234565260ea61109c528051925060005b60408110156146235760008282015260200161460c565b5050506040516001600160e01b031960e084901b1681526001600160a01b03909116600482015260240160206040518083038186806146606157e3565b1580156146755760008061467261571d565b50505b505a61467f61582f565b505050505015801561469e573d6000803e3d600061469b61571d565b50505b505050506040513d60208110156146bd576000806146ba61571d565b50505b8101908080519250879150849050815181106146d557fe5b602002602001018181525050808683815181106146ee57fe5b6001600160a01b039283166020918202929092010152831663ac82f608614714836125b2565b6040516001600160e01b031960e084901b168152600481019190915260240160206040518083038186806147466157e3565b15801561475b5760008061475861571d565b50505b505a61476561582f565b5050505050158015614784573d6000803e3d600061478161571d565b50505b505050506040513d60208110156147a3576000806147a061571d565b50505b8101908080519250869150849050815181106147bb57fe5b602090810291909101015250600101614579565b509297919650945092505050565b60606034806147ea615788565b600181600116156101000203166002900480601f016020809104026020016040519081016040528181529190602083018280614824615788565b600181600116156101000203166002900480156135c95780601f1061485e576101008083614850615788565b0402835291602001916135c9565b820191906000526020600020905b81614875615788565b8152906001019060200180831161486c57509395945050505050565b6000603a8061489e615788565b6001600160a01b0384166000908152603b60205290925090506148ce6001604083206148c8615788565b906155d2565b90506000603a6148df8460016155d2565b816148e8615788565b81106148f057fe5b90600052602060002001600090614905615788565b906101000a90046001600160a01b0316905080603a8381614924615788565b811061492c57fe5b90600052602060002001600181614941615788565b816001600160a01b0302191690836001600160a01b0316021790614963615960565b5061497391508390506001614f6d565b6001600160a01b0382166000908152603b602052604090208190614995615960565b5050506001600160a01b0384166000908152603b6020526040812081906149ba615960565b505050603a806149c8615788565b806149cf57fe5b600190038181906000526020600020016001816149ea615788565b906001600160a01b03021916906149ff615960565b505090614a0a615960565b50507f9b4f55639e5e283319baee5bc4e69a5625a8e3a1cc004af968f4fee7250220275a63996d79a5598160e01b8152602081600483336000905af158601d01573d60011458600c01573d6000803e3d621234565260ea61109c528051925060005b6040811015614a8357600082820152602001614a6c565b505050614a8e6122c8565b8660405180846001600160a01b03168152602001836001600160a01b03168152602001826001600160a01b03168152602001935050505060405180910390a150505050565b60006039614adf615788565b906101000a90046001600160a01b03166001600160a01b031663aa12ae4d6040518163ffffffff1660e01b81526004016020604051808303818680614b226157e3565b158015614b3757600080614b3461571d565b50505b505a614b4161582f565b5050505050158015614b60573d6000803e3d6000614b5d61571d565b50505b505050506040513d6020811015614b7f57600080614b7c61571d565b50505b8101908080519250603a9150819050614b96615788565b905010614beb5760405162461bcd60e51b81526020600482015260166024820152751b585e1a5b5d5b48185cdcd95d1cc81c995858da195960521b604482015260640160405180910390614be861571d565b50505b614bf4816121c7565b15614c4e5760405162461bcd60e51b815260206004820152601760248201527f617373657420616c726561647920737570706f72746564000000000000000000604482015260640160405180910390614c4b61571d565b50505b614c5781613183565b1515600114614ca75760405162461bcd60e51b815260206004820152600f60248201526e1b9bdb8b5cde5b9d1a08185cdcd95d608a1b604482015260640160405180910390614ca461571d565b50505b80603a80600181614cb6615788565b018082614cc1615960565b505060009283526000190191602091502001600181614cde615788565b816001600160a01b0302191690836001600160a01b0316021790614d00615960565b505050603a80614d0e615788565b6001600160a01b0383166000908152603b602052909150604090208190614d33615960565b5050507f0a7426a0630aad7dbc4d5ca5b7d9aac1133d77d2db987caaf4b4186c85d6593f5a63996d79a5598160e01b8152602081600483336000905af158601d01573d60011458600c01573d6000803e3d621234565260ea61109c528051925060005b6040811015614dad57600082820152602001614d96565b505050614db86122c8565b8360405180846001600160a01b03168152602001836001600160a01b03168152602001826001600160a01b03168152602001935050505060405180910390a150565b6000603580614e07615788565b6001600160a01b038416600090815260366020529092509050614e316001604083206148c8615788565b905060006035614e428460016155d2565b81614e4b615788565b8110614e5357fe5b90600052602060002001600090614e68615788565b906101000a90046001600160a01b031690508060358381614e87615788565b8110614e8f57fe5b90600052602060002001600181614ea4615788565b816001600160a01b0302191690836001600160a01b0316021790614ec6615960565b50614ed691508390506001614f6d565b6001600160a01b03821660009081526036602052604090208190614ef8615960565b5050506001600160a01b03841660009081526036602052604081208190614f1d615960565b505050603580614f2b615788565b80614f3257fe5b60019003818190600052602060002001600181614f4d615788565b906001600160a01b0302191690614f62615960565b50509061402b615960565b6000828201838110156120c85760405162461bcd60e51b815260206004820152601b60248201527f536166654d6174683a206164646974696f6e206f766572666c6f7700000000006044820152606401604051809103906120c561571d565b80603580600181614fdb615788565b018082614fe6615960565b505060009283526000190191602091502001600181615003615788565b816001600160a01b0302191690836001600160a01b0316021790615025615960565b505050603580615033615788565b6001600160a01b03831660009081526036602052909150604090208190611afd615960565b615061846121c7565b6150b55760405162461bcd60e51b81526020600482015260186024820152771d5b9cdd5c1c1bdc9d1959081cdbdd5c98d948185cdcd95d60421b6044820152606401604051809103906150b261571d565b50505b6150be826121c7565b6151175760405162461bcd60e51b815260206004820152601d60248201527f756e737570706f727465642064657374696e6174696f6e20617373657400000060448201526064016040518091039061511461571d565b50505b60006060866001600160a01b0316836040518082805190602001908083835b602083106151555780518252601f199092019160209182019101615136565b6001836020036101000a0380198251168184511680821785525050505050509050019150506000604051808303816000865a61518f615a94565b5050505050509150503d80600081146151c4576040513d603f01601f191681016040523d815291503d6000602084013e6151c9565b606091505b50909250905060018215151461522e5760405162461bcd60e51b815260206004820152601a60248201527f6661696c656420746f20657865637574652065786368616e676500000000000060448201526064016040518091039061522b61571d565b50505b7f2083d2b241ef1ec859ae0402864fd9fe9d6d36b18c73615625b46acaf113be785a63996d79a5598160e01b8152602081600483336000905af158601d01573d60011458600c01573d6000803e3d621234565260ea61109c528051925060005b60408110156152a55760008282015260200161528e565b5050506152b06122c8565b8888886152be876000615612565b5a613b30615a4e565b600060396152d3615788565b906101000a90046001600160a01b03166001600160a01b031663046b72c483836040516001600160e01b031960e085901b1681526001600160a01b0390921660048301526024820152604401600060405180830381600087806153346157e3565b1580156153495760008061534661571d565b50505b505a615353615a94565b505050505050158015615373573d6000803e3d600061537061571d565b50505b505050506000806039600090615387615788565b906101000a90046001600160a01b03166001600160a01b031663b7a54526856040516001600160e01b031960e084901b1681526001600160a01b039091166004820152602401604080518083038186806153df6157e3565b1580156153f4576000806153f161571d565b50505b505a6153fe61582f565b505050505015801561541d573d6000803e3d600061541a61571d565b50505b505050506040513d604081101561543c5760008061543961571d565b50505b81019080805192919060200180519395509293507f1780c04ddc6f0b32d866c7a3d7583f53515ef49ed2126af868f804f491601266925050505a63996d79a5598160e01b8152602081600483336000905af158601d01573d60011458600c01573d6000803e3d621234565260ea61109c528051925060005b60408110156154cb576000828201526020016154b4565b5050506154d66122c8565b848460405180856001600160a01b03168152602001846001600160a01b0316815260200183815260200182815260200194505050505060405180910390a150505050565b6000805a63996d79a5598160e01b8152602081600483336000905af158601d01573d60011458600c01573d6000803e3d621234565260ea61109c528051925060005b60408110156155735760008282015260200161555c565b50505090506000816155836157e3565b159250505090565b816033600181615599615788565b816001600160a01b0302191690836001600160a01b03160217906155bb615960565b5050508060349080516131369291602001906159ae565b60006120c8838360405160408082019052601e81527f536166654d6174683a207375627472616374696f6e206f766572666c6f770000602082015261567d565b6000816020018351101561566c5760405162461bcd60e51b8152602060048201526014602482015273736c6963696e67206f7574206f662072616e676560601b60448201526064016040518091039061566961571d565b50505b600082602001840151949350505050565b600081848411156157155760405162461bcd60e51b81526004018080602001828103825283818151815260200191508051906020019080838360005b838110156156d15780820151838201526020016156b9565b50505050905090810190601f1680156156fe5780820380516001836020036101000a031916815260200191505b50925050506040518091039061571261571d565b50505b505050900390565b632a2a7adb598160e01b8152600481016020815285602082015260005b8681101561575557808601518282016040015260200161573a565b506020828760640184336000905af158601d01573d60011458600c01573d6000803e3d621234565260ea61109c52505050565b6303daa959598160e01b8152836004820152602081602483336000905af158601d01573d60011458600c01573d6000803e3d621234565260ea61109c528051935060005b6040811015613136576000828201526020016157cc565b638435035b598160e01b8152836004820152602081602483336000905af158601d01573d60011458600c01573d6000803e3d621234565260ea61109c52805160008252935060206157cc565b638540661f598160e01b8152615860565b80808311156119ab575090919050565b80808310156119ab575090919050565b836004820152846024820152606060448201528660648201526084810160005b88811015615898578088015182820152602001615880565b506060828960a40184336000905af158601d01573d60011458600c01573d6000803e3d621234565260ea61109c52815160408301513d6000853e8b8b82606087013350600060045af150596158ed8d3d615850565b8c016158f98187615840565b5b8281101561590e57600081526020016158fa565b50929c50505050505050565b6373509064598160e01b8152602081600483336000905af158601d01573d60011458600c01573d6000803e3d621234565260ea61109c52805160008252935060206157cc565b6322bd64c0598160e01b8152836004820152846024820152600081604483336000905af158601d01573d60011458600c01573d6000803e3d621234565260ea61109c526000815260206157cc565b82806159b8615788565b600181600116156101000203166002900490600052602060002090601f016020900481019282601f106159ff57805160ff191683800117856159f8615960565b5050615a3e565b82800160010185615a0e615960565b50508215615a3e579182015b82811115615a3e57825182615a2d615960565b505091602001919060010190615a1a565b50615a4a929150615b5a565b5090565b63bdbf8c36598160e01b8152602081600483336000905af158601d01573d60011458600c01573d6000803e3d621234565260ea61109c52805160008252935060206157cc565b6385979f76598160e01b8152836004820152846024820152606060448201528760648201526084810160005b89811015615ad8578089015182820152602001615ac0565b506060828a60a40184336000905af158601d01573d60011458600c01573d6000803e3d621234565260ea61109c52815160408301513d6000853e8c8c82606087013350600060045af15059615b2d8e3d615850565b8d01615b398187615840565b5b82811015615b4e5760008152602001615b3a565b50929d50505050505050565b80821115615a4a5760008082615b6e615960565b505050600101615b5a56fe436f6e747261637420696e7374616e63652068617320616c7265616479206265656e20696e697469616c697a6564",
  "linkReferences": {},
  "deployedLinkReferences": {}
}