{
  "_format": "hh-sol-artifact-1",
  "contractName": "PoolManagerLogic-ovm",
  "sourceName": "contracts/PoolManagerLogic.sol",
  "abi": [
    {
      "anonymous": false,
      "inputs": [
        {
          "indexed": false,
          "internalType": "address",
          "name": "fundAddress",
          "type": "address"
        },
        {
          "indexed": false,
          "internalType": "address",
          "name": "manager",
          "type": "address"
        },
        {
          "indexed": false,
          "internalType": "address",
          "name": "asset",
          "type": "address"
        }
      ],
      "name": "AssetAdded",
      "type": "event"
    },
    {
      "anonymous": false,
      "inputs": [
        {
          "indexed": false,
          "internalType": "address",
          "name": "fundAddress",
          "type": "address"
        },
        {
          "indexed": false,
          "internalType": "address",
          "name": "manager",
          "type": "address"
        },
        {
          "indexed": false,
          "internalType": "address",
          "name": "asset",
          "type": "address"
        }
      ],
      "name": "AssetRemoved",
      "type": "event"
    },
    {
      "anonymous": false,
      "inputs": [
        {
          "indexed": false,
          "internalType": "uint256",
          "name": "newNumerator",
          "type": "uint256"
        },
        {
          "indexed": false,
          "internalType": "uint256",
          "name": "announcedFeeActivationTime",
          "type": "uint256"
        }
      ],
      "name": "ManagerFeeIncreaseAnnounced",
      "type": "event"
    },
    {
      "anonymous": false,
      "inputs": [],
      "name": "ManagerFeeIncreaseRenounced",
      "type": "event"
    },
    {
      "anonymous": false,
      "inputs": [
        {
          "indexed": false,
          "internalType": "address",
          "name": "fundAddress",
          "type": "address"
        },
        {
          "indexed": false,
          "internalType": "address",
          "name": "manager",
          "type": "address"
        },
        {
          "indexed": false,
          "internalType": "uint256",
          "name": "numerator",
          "type": "uint256"
        },
        {
          "indexed": false,
          "internalType": "uint256",
          "name": "denominator",
          "type": "uint256"
        }
      ],
      "name": "ManagerFeeSet",
      "type": "event"
    },
    {
      "anonymous": false,
      "inputs": [
        {
          "indexed": false,
          "internalType": "address",
          "name": "newManager",
          "type": "address"
        },
        {
          "indexed": false,
          "internalType": "string",
          "name": "newManagerName",
          "type": "string"
        }
      ],
      "name": "ManagerUpdated",
      "type": "event"
    },
    {
      "anonymous": false,
      "inputs": [
        {
          "indexed": false,
          "internalType": "address",
          "name": "fundAddress",
          "type": "address"
        },
        {
          "indexed": false,
          "internalType": "address",
          "name": "manager",
          "type": "address"
        },
        {
          "indexed": false,
          "internalType": "uint256",
          "name": "time",
          "type": "uint256"
        }
      ],
      "name": "TransactionExecuted",
      "type": "event"
    },
    {
      "inputs": [
        {
          "internalType": "address",
          "name": "member",
          "type": "address"
        }
      ],
      "name": "addMember",
      "outputs": [],
      "stateMutability": "nonpayable",
      "type": "function"
    },
    {
      "inputs": [
        {
          "internalType": "address[]",
          "name": "members",
          "type": "address[]"
        }
      ],
      "name": "addMembers",
      "outputs": [],
      "stateMutability": "nonpayable",
      "type": "function"
    },
    {
      "inputs": [
        {
          "internalType": "address",
          "name": "asset",
          "type": "address"
        }
      ],
      "name": "addToSupportedAssets",
      "outputs": [],
      "stateMutability": "nonpayable",
      "type": "function"
    },
    {
      "inputs": [],
      "name": "addressResolver",
      "outputs": [
        {
          "internalType": "contract IAddressResolver",
          "name": "",
          "type": "address"
        }
      ],
      "stateMutability": "view",
      "type": "function"
    },
    {
      "inputs": [
        {
          "internalType": "address",
          "name": "pool",
          "type": "address"
        },
        {
          "internalType": "uint256",
          "name": "numerator",
          "type": "uint256"
        }
      ],
      "name": "announceManagerFeeIncrease",
      "outputs": [],
      "stateMutability": "nonpayable",
      "type": "function"
    },
    {
      "inputs": [],
      "name": "announcedFeeIncreaseNumerator",
      "outputs": [
        {
          "internalType": "uint256",
          "name": "",
          "type": "uint256"
        }
      ],
      "stateMutability": "view",
      "type": "function"
    },
    {
      "inputs": [],
      "name": "announcedFeeIncreaseTimestamp",
      "outputs": [
        {
          "internalType": "uint256",
          "name": "",
          "type": "uint256"
        }
      ],
      "stateMutability": "view",
      "type": "function"
    },
    {
      "inputs": [
        {
          "internalType": "address",
          "name": "asset",
          "type": "address"
        }
      ],
      "name": "assetBalance",
      "outputs": [
        {
          "internalType": "uint256",
          "name": "",
          "type": "uint256"
        }
      ],
      "stateMutability": "view",
      "type": "function"
    },
    {
      "inputs": [
        {
          "internalType": "address",
          "name": "",
          "type": "address"
        }
      ],
      "name": "assetPosition",
      "outputs": [
        {
          "internalType": "uint256",
          "name": "",
          "type": "uint256"
        }
      ],
      "stateMutability": "view",
      "type": "function"
    },
    {
      "inputs": [
        {
          "internalType": "address",
          "name": "asset",
          "type": "address"
        },
        {
          "internalType": "uint256",
          "name": "amount",
          "type": "uint256"
        }
      ],
      "name": "assetValue",
      "outputs": [
        {
          "internalType": "uint256",
          "name": "",
          "type": "uint256"
        }
      ],
      "stateMutability": "view",
      "type": "function"
    },
    {
      "inputs": [
        {
          "internalType": "address",
          "name": "asset",
          "type": "address"
        }
      ],
      "name": "assetValue",
      "outputs": [
        {
          "internalType": "uint256",
          "name": "",
          "type": "uint256"
        }
      ],
      "stateMutability": "view",
      "type": "function"
    },
    {
      "inputs": [
        {
          "internalType": "address",
          "name": "newManager",
          "type": "address"
        },
        {
          "internalType": "string",
          "name": "newManagerName",
          "type": "string"
        }
      ],
      "name": "changeManager",
      "outputs": [],
      "stateMutability": "nonpayable",
      "type": "function"
    },
    {
      "inputs": [
        {
          "internalType": "address",
          "name": "pool",
          "type": "address"
        }
      ],
      "name": "commitManagerFeeIncrease",
      "outputs": [],
      "stateMutability": "nonpayable",
      "type": "function"
    },
    {
      "inputs": [
        {
          "internalType": "bytes32",
          "name": "data",
          "type": "bytes32"
        }
      ],
      "name": "convert32toAddress",
      "outputs": [
        {
          "internalType": "address",
          "name": "o",
          "type": "address"
        }
      ],
      "stateMutability": "pure",
      "type": "function"
    },
    {
      "inputs": [
        {
          "internalType": "address",
          "name": "to",
          "type": "address"
        },
        {
          "internalType": "bytes",
          "name": "data",
          "type": "bytes"
        }
      ],
      "name": "execTransaction",
      "outputs": [
        {
          "internalType": "bool",
          "name": "",
          "type": "bool"
        }
      ],
      "stateMutability": "nonpayable",
      "type": "function"
    },
    {
      "inputs": [],
      "name": "factory",
      "outputs": [
        {
          "internalType": "address",
          "name": "",
          "type": "address"
        }
      ],
      "stateMutability": "view",
      "type": "function"
    },
    {
      "inputs": [
        {
          "internalType": "bytes",
          "name": "data",
          "type": "bytes"
        },
        {
          "internalType": "uint8",
          "name": "inputNum",
          "type": "uint8"
        },
        {
          "internalType": "uint8",
          "name": "arrayIndex",
          "type": "uint8"
        }
      ],
      "name": "getArrayIndex",
      "outputs": [
        {
          "internalType": "bytes32",
          "name": "",
          "type": "bytes32"
        }
      ],
      "stateMutability": "pure",
      "type": "function"
    },
    {
      "inputs": [
        {
          "internalType": "bytes",
          "name": "data",
          "type": "bytes"
        },
        {
          "internalType": "uint8",
          "name": "inputNum",
          "type": "uint8"
        }
      ],
      "name": "getArrayLast",
      "outputs": [
        {
          "internalType": "bytes32",
          "name": "",
          "type": "bytes32"
        }
      ],
      "stateMutability": "pure",
      "type": "function"
    },
    {
      "inputs": [
        {
          "internalType": "bytes",
          "name": "data",
          "type": "bytes"
        },
        {
          "internalType": "uint8",
          "name": "inputNum",
          "type": "uint8"
        }
      ],
      "name": "getArrayLength",
      "outputs": [
        {
          "internalType": "uint256",
          "name": "",
          "type": "uint256"
        }
      ],
      "stateMutability": "pure",
      "type": "function"
    },
    {
      "inputs": [
        {
          "internalType": "bytes32",
          "name": "key",
          "type": "bytes32"
        }
      ],
      "name": "getAssetProxy",
      "outputs": [
        {
          "internalType": "address",
          "name": "",
          "type": "address"
        }
      ],
      "stateMutability": "view",
      "type": "function"
    },
    {
      "inputs": [],
      "name": "getFundComposition",
      "outputs": [
        {
          "internalType": "address[]",
          "name": "",
          "type": "address[]"
        },
        {
          "internalType": "uint256[]",
          "name": "",
          "type": "uint256[]"
        },
        {
          "internalType": "uint256[]",
          "name": "",
          "type": "uint256[]"
        }
      ],
      "stateMutability": "view",
      "type": "function"
    },
    {
      "inputs": [
        {
          "internalType": "bytes",
          "name": "data",
          "type": "bytes"
        },
        {
          "internalType": "uint8",
          "name": "inputNum",
          "type": "uint8"
        }
      ],
      "name": "getInput",
      "outputs": [
        {
          "internalType": "bytes32",
          "name": "",
          "type": "bytes32"
        }
      ],
      "stateMutability": "pure",
      "type": "function"
    },
    {
      "inputs": [
        {
          "internalType": "address",
          "name": "pool",
          "type": "address"
        }
      ],
      "name": "getManagerFee",
      "outputs": [
        {
          "internalType": "uint256",
          "name": "",
          "type": "uint256"
        },
        {
          "internalType": "uint256",
          "name": "",
          "type": "uint256"
        }
      ],
      "stateMutability": "view",
      "type": "function"
    },
    {
      "inputs": [],
      "name": "getManagerFeeIncreaseInfo",
      "outputs": [
        {
          "internalType": "uint256",
          "name": "",
          "type": "uint256"
        },
        {
          "internalType": "uint256",
          "name": "",
          "type": "uint256"
        }
      ],
      "stateMutability": "view",
      "type": "function"
    },
    {
      "inputs": [],
      "name": "getMembers",
      "outputs": [
        {
          "internalType": "address[]",
          "name": "",
          "type": "address[]"
        }
      ],
      "stateMutability": "view",
      "type": "function"
    },
    {
      "inputs": [
        {
          "internalType": "bytes",
          "name": "data",
          "type": "bytes"
        }
      ],
      "name": "getMethod",
      "outputs": [
        {
          "internalType": "bytes4",
          "name": "",
          "type": "bytes4"
        }
      ],
      "stateMutability": "pure",
      "type": "function"
    },
    {
      "inputs": [],
      "name": "getSupportedAssets",
      "outputs": [
        {
          "internalType": "address[]",
          "name": "",
          "type": "address[]"
        }
      ],
      "stateMutability": "view",
      "type": "function"
    },
    {
      "inputs": [],
      "name": "getSuspendedAssets",
      "outputs": [
        {
          "internalType": "address[]",
          "name": "",
          "type": "address[]"
        },
        {
          "internalType": "bool[]",
          "name": "",
          "type": "bool[]"
        }
      ],
      "stateMutability": "view",
      "type": "function"
    },
    {
      "inputs": [
        {
          "internalType": "address",
          "name": "asset",
          "type": "address"
        }
      ],
      "name": "getSynthKey",
      "outputs": [
        {
          "internalType": "bytes32",
          "name": "",
          "type": "bytes32"
        }
      ],
      "stateMutability": "view",
      "type": "function"
    },
    {
      "inputs": [
        {
          "internalType": "address",
          "name": "_factory",
          "type": "address"
        },
        {
          "internalType": "address",
          "name": "_manager",
          "type": "address"
        },
        {
          "internalType": "string",
          "name": "_managerName",
          "type": "string"
        },
        {
          "internalType": "contract IAddressResolver",
          "name": "_addressResolver",
          "type": "address"
        },
        {
          "internalType": "address[]",
          "name": "_supportedAssets",
          "type": "address[]"
        }
      ],
      "name": "initialize",
      "outputs": [],
      "stateMutability": "nonpayable",
      "type": "function"
    },
    {
      "inputs": [
        {
          "internalType": "address",
          "name": "asset",
          "type": "address"
        }
      ],
      "name": "isAssetSupported",
      "outputs": [
        {
          "internalType": "bool",
          "name": "",
          "type": "bool"
        }
      ],
      "stateMutability": "view",
      "type": "function"
    },
    {
      "inputs": [
        {
          "internalType": "address",
          "name": "member",
          "type": "address"
        }
      ],
      "name": "isMemberAllowed",
      "outputs": [
        {
          "internalType": "bool",
          "name": "",
          "type": "bool"
        }
      ],
      "stateMutability": "view",
      "type": "function"
    },
    {
      "inputs": [],
      "name": "manager",
      "outputs": [
        {
          "internalType": "address",
          "name": "",
          "type": "address"
        }
      ],
      "stateMutability": "view",
      "type": "function"
    },
    {
      "inputs": [],
      "name": "managerName",
      "outputs": [
        {
          "internalType": "string",
          "name": "",
          "type": "string"
        }
      ],
      "stateMutability": "view",
      "type": "function"
    },
    {
      "inputs": [],
      "name": "numberOfMembers",
      "outputs": [
        {
          "internalType": "uint256",
          "name": "",
          "type": "uint256"
        }
      ],
      "stateMutability": "view",
      "type": "function"
    },
    {
      "inputs": [],
      "name": "numberOfSupportedAssets",
      "outputs": [
        {
          "internalType": "uint256",
          "name": "",
          "type": "uint256"
        }
      ],
      "stateMutability": "view",
      "type": "function"
    },
    {
      "inputs": [
        {
          "internalType": "address",
          "name": "",
          "type": "address"
        }
      ],
      "name": "persistentAsset",
      "outputs": [
        {
          "internalType": "bool",
          "name": "",
          "type": "bool"
        }
      ],
      "stateMutability": "view",
      "type": "function"
    },
    {
      "inputs": [
        {
          "internalType": "bytes",
          "name": "data",
          "type": "bytes"
        },
        {
          "internalType": "uint256",
          "name": "offset",
          "type": "uint256"
        },
        {
          "internalType": "uint256",
          "name": "length",
          "type": "uint256"
        }
      ],
      "name": "read32",
      "outputs": [
        {
          "internalType": "bytes32",
          "name": "o",
          "type": "bytes32"
        }
      ],
      "stateMutability": "pure",
      "type": "function"
    },
    {
      "inputs": [
        {
          "internalType": "bytes",
          "name": "data",
          "type": "bytes"
        },
        {
          "internalType": "uint256",
          "name": "offset",
          "type": "uint256"
        },
        {
          "internalType": "uint256",
          "name": "length",
          "type": "uint256"
        }
      ],
      "name": "read4left",
      "outputs": [
        {
          "internalType": "bytes4",
          "name": "o",
          "type": "bytes4"
        }
      ],
      "stateMutability": "pure",
      "type": "function"
    },
    {
      "inputs": [
        {
          "internalType": "address",
          "name": "asset",
          "type": "address"
        }
      ],
      "name": "removeFromSupportedAssets",
      "outputs": [],
      "stateMutability": "nonpayable",
      "type": "function"
    },
    {
      "inputs": [
        {
          "internalType": "address",
          "name": "member",
          "type": "address"
        }
      ],
      "name": "removeMember",
      "outputs": [],
      "stateMutability": "nonpayable",
      "type": "function"
    },
    {
      "inputs": [
        {
          "internalType": "address[]",
          "name": "members",
          "type": "address[]"
        }
      ],
      "name": "removeMembers",
      "outputs": [],
      "stateMutability": "nonpayable",
      "type": "function"
    },
    {
      "inputs": [],
      "name": "removeTrader",
      "outputs": [],
      "stateMutability": "nonpayable",
      "type": "function"
    },
    {
      "inputs": [],
      "name": "renounceManagerFeeIncrease",
      "outputs": [],
      "stateMutability": "nonpayable",
      "type": "function"
    },
    {
      "inputs": [
        {
          "internalType": "address",
          "name": "_addressResolver",
          "type": "address"
        }
      ],
      "name": "setAddressResolver",
      "outputs": [],
      "stateMutability": "nonpayable",
      "type": "function"
    },
    {
      "inputs": [
        {
          "internalType": "address",
          "name": "newTrader",
          "type": "address"
        }
      ],
      "name": "setTrader",
      "outputs": [],
      "stateMutability": "nonpayable",
      "type": "function"
    },
    {
      "inputs": [
        {
          "internalType": "uint256",
          "name": "",
          "type": "uint256"
        }
      ],
      "name": "supportedAssets",
      "outputs": [
        {
          "internalType": "address",
          "name": "",
          "type": "address"
        }
      ],
      "stateMutability": "view",
      "type": "function"
    },
    {
      "inputs": [],
      "name": "trader",
      "outputs": [
        {
          "internalType": "address",
          "name": "",
          "type": "address"
        }
      ],
      "stateMutability": "view",
      "type": "function"
    },
    {
      "inputs": [
        {
          "internalType": "address",
          "name": "asset",
          "type": "address"
        }
      ],
      "name": "validateAsset",
      "outputs": [
        {
          "internalType": "bool",
          "name": "",
          "type": "bool"
        }
      ],
      "stateMutability": "view",
      "type": "function"
    }
  ],
  "bytecode": "0x60806040523480156200001c576000806200001962000023565b50505b5062000090565b632a2a7adb598160e01b8152600481016020815285602082015260005b868110156200005d57808601518282016040015260200162000040565b506020828760640184336000905af158600e01573d6000803e3d6000fd5b3d6001141558600a015760016000f35b505050565b6152bc80620000a06000396000f3fe608060405234801561001957600080610016614dc4565b50505b50600436106102c45760003560e01c80637c8afd511161018b578063bbbf725b116100f2578063d346cc65116100ab578063e5406dbf11610085578063e5406dbf146112c3578063ed5b165d146112cb578063f09d14d7146112d3578063fed4416a146113b9576102c4565b8063d346cc651461103a578063d8af8ed4146111c8578063db896b57146111f7576102c4565b8063bbbf725b14610eb8578063c3c6279f14610ee7578063c45a015514610fae578063c68dbb3714610fb6578063ca6d56dc14610fdc578063cd88e5581461100b576102c4565b8063969eed2711610144578063969eed2714610d23578063998546e314610d525780639eab525314610e1e578063a30e3fa914610e79578063a6bc18f914610e81578063b8bd81e614610eb0576102c4565b80637c8afd5114610be157806380dd4f6214610be957806382f86acc14610c185780638f32343914610ce45780639240d29914610cec578063936553c414610d1b576102c4565b806341dc16c31161022f5780635f6eceab116101e85780635f6eceab146109925780636141db90146109d95780636708f5d714610a085780636f4d469b14610a3d5780637ae7cfb514610b025780637b4d0c6314610bd9576102c4565b806341dc16c3146105eb578063464b4158146106c257806346ee84b014610705578063481c6a75146107ca57806352213663146107d2578063568b5a2f146108a9576102c4565b80631758078b116102815780631758078b146104925780631eba30771461049a57806321f8c984146104c057806329c07fba146105615780633c570d7d146105965780633ded6530146105c5576102c4565b806305a2ee2a146102d257806306468587146102f6578063093b88251461032757806309ff5c7d146103565780630b1ca49a146104345780631430238714610463575b6000806102cf614dc4565b50505b6102da611438565b6040516001600160a01b03909116815260200160405180910390f35b6103256004803603602081101561031557600080610312614dc4565b50505b50356001600160a01b0316611457565b005b6103256004803603602081101561034657600080610343614dc4565b50505b50356001600160a01b0316611827565b6104226004803603604081101561037557600080610372614dc4565b50505b810190602081018135600160201b81111561039857600080610395614dc4565b50505b8201836020820111156103b3576000806103b0614dc4565b50505b803590602001918460018302840111600160201b831117156103dd576000806103da614dc4565b50505b91908080601f01602080910402602001604051908101604052818152929190602084018383808284376000920191909152509295505050903560ff1691506118f99050565b60405190815260200160405180910390f35b6103256004803603602081101561045357600080610450614dc4565b50505b50356001600160a01b0316611994565b610325600480360360208110156104825760008061047f614dc4565b50505b50356001600160a01b0316611a2f565b6102da611ae6565b6102da600480360360208110156104b9576000806104b6614dc4565b50505b5035611b08565b6104c8611b0f565b604051808060200180602001838103835285818151815260200191508051906020019060200280838360005b8381101561050c5780820151838201526020016104f4565b50505050905001838103825284818151815260200191508051906020019060200280838360005b8381101561054b578082015183820152602001610533565b5050505090500194505050505060405180910390f35b610422600480360360408110156105805760008061057d614dc4565b50505b506001600160a01b038135169060200135611dd1565b610422600480360360208110156105b5576000806105b2614dc4565b50505b50356001600160a01b0316611ec7565b6102da600480360360208110156105e4576000806105e1614dc4565b50505b5035611ee2565b6104226004803603606081101561060a57600080610607614dc4565b50505b810190602081018135600160201b81111561062d5760008061062a614dc4565b50505b82018360208201111561064857600080610645614dc4565b50505b803590602001918460018302840111600160201b831117156106725760008061066f614dc4565b50505b91908080601f01602080910402602001604051908101604052818152929190602084018383808284376000920191909152509295505060ff83358116945060209093013590921691506121a89050565b6106f1600480360360208110156106e1576000806106de614dc4565b50505b50356001600160a01b03166122a0565b604051901515815260200160405180910390f35b6103256004803603602081101561072457600080610721614dc4565b50505b810190602081018135600160201b81111561074757600080610744614dc4565b50505b8201836020820111156107625760008061075f614dc4565b50505b803590602001918460208302840111600160201b8311171561078c57600080610789614dc4565b50505b9190808060200260200160405190810160405280939291908181526020018383602002808284376000920191909152509295506122c8945050505050565b6102da6123a1565b610325600480360360408110156107f1576000806107ee614dc4565b50505b6001600160a01b038235169190810190604081016020820135600160201b81111561082457600080610821614dc4565b50505b82018360208201111561083f5760008061083c614dc4565b50505b803590602001918460018302840111600160201b8311171561086957600080610866614dc4565b50505b91908080601f01602080910402602001604051908101604052818152929190602084018383808284376000920191909152509295506123ae945050505050565b610975600480360360608110156108c8576000806108c5614dc4565b50505b810190602081018135600160201b8111156108eb576000806108e8614dc4565b50505b82018360208201111561090657600080610903614dc4565b50505b803590602001918460018302840111600160201b831117156109305760008061092d614dc4565b50505b91908080601f01602080910402602001604051908101604052818152929190602084018383808284376000920191909152509295505082359350505060200135612523565b6040516001600160e01b0319909116815260200160405180910390f35b6109c1600480360360208110156109b1576000806109ae614dc4565b50505b50356001600160a01b03166125ac565b60405191825260208201526040908101905180910390f35b610422600480360360208110156109f8576000806109f5614dc4565b50505b50356001600160a01b031661268b565b61032560048036036040811015610a2757600080610a24614dc4565b50505b506001600160a01b03813516906020013561297e565b61032560048036036020811015610a5c57600080610a59614dc4565b50505b810190602081018135600160201b811115610a7f57600080610a7c614dc4565b50505b820183602082011115610a9a57600080610a97614dc4565b50505b803590602001918460208302840111600160201b83111715610ac457600080610ac1614dc4565b50505b919080806020026020016040519081016040528093929190818152602001838360200280828437600092019190915250929550612cae945050505050565b6106f160048036036040811015610b2157600080610b1e614dc4565b50505b6001600160a01b038235169190810190604081016020820135600160201b811115610b5457600080610b51614dc4565b50505b820183602082011115610b6f57600080610b6c614dc4565b50505b803590602001918460018302840111600160201b83111715610b9957600080610b96614dc4565b50505b91908080601f0160208091040260200160405190810160405281815292919060208401838380828437600092019190915250929550612d77945050505050565b610422613365565b61032561336f565b6106f160048036036020811015610c0857600080610c05614dc4565b50505b50356001600160a01b0316613425565b61042260048036036040811015610c3757600080610c34614dc4565b50505b810190602081018135600160201b811115610c5a57600080610c57614dc4565b50505b820183602082011115610c7557600080610c72614dc4565b50505b803590602001918460018302840111600160201b83111715610c9f57600080610c9c614dc4565b50505b91908080601f01602080910402602001604051908101604052818152929190602084018383808284376000920191909152509295505050903560ff16915061344c9050565b610422613463565b6106f160048036036020811015610d0b57600080610d08614dc4565b50505b50356001600160a01b031661346d565b61042261353f565b61032560048036036020811015610d4257600080610d3f614dc4565b50505b50356001600160a01b0316613552565b61042260048036036040811015610d7157600080610d6e614dc4565b50505b810190602081018135600160201b811115610d9457600080610d91614dc4565b50505b820183602082011115610daf57600080610dac614dc4565b50505b803590602001918460018302840111600160201b83111715610dd957600080610dd6614dc4565b50505b91908080601f01602080910402602001604051908101604052818152929190602084018383808284376000920191909152509295505050903560ff1691506136719050565b610e2661369a565b60405160208082528190810183818151815260200191508051906020019060200280838360005b83811015610e65578082015183820152602001610e4d565b505050509050019250505060405180910390f35b610422613721565b61032560048036036020811015610ea057600080610e9d614dc4565b50505b50356001600160a01b031661372e565b6103256137bc565b6106f160048036036020811015610ed757600080610ed4614dc4565b50505b50356001600160a01b031661388b565b61097560048036036020811015610f0657600080610f03614dc4565b50505b810190602081018135600160201b811115610f2957600080610f26614dc4565b50505b820183602082011115610f4457600080610f41614dc4565b50505b803590602001918460018302840111600160201b83111715610f6e57600080610f6b614dc4565b50505b91908080601f01602080910402602001604051908101604052818152929190602084018383808284376000920191909152509295506138ab945050505050565b6102da6138ba565b6102da60048036036020811015610fd557600080610fd2614dc4565b50505b50356138c6565b61032560048036036020811015610ffb57600080610ff8614dc4565b50505b50356001600160a01b03166138f0565b6104226004803603602081101561102a57600080611027614dc4565b50505b50356001600160a01b031661398c565b610325600480360360a081101561105957600080611056614dc4565b50505b6001600160a01b038235811692602081013590911691810190606081016040820135600160201b81111561109557600080611092614dc4565b50505b8201836020820111156110b0576000806110ad614dc4565b50505b803590602001918460018302840111600160201b831117156110da576000806110d7614dc4565b50505b91908080601f016020809104026020016040519081016040528181529291906020840183838082843760009201919091525092956001600160a01b03853516959094909350604081019250602001359050600160201b81111561114557600080611142614dc4565b50505b8201836020820111156111605760008061115d614dc4565b50505b803590602001918460208302840111600160201b8311171561118a57600080611187614dc4565b50505b919080806020026020016040519081016040528093929190818152602001838360200280828437600092019190915250929550613a30945050505050565b610422600480360360208110156111e7576000806111e4614dc4565b50505b50356001600160a01b0316613c09565b6104226004803603606081101561121657600080611213614dc4565b50505b810190602081018135600160201b81111561123957600080611236614dc4565b50505b82018360208201111561125457600080611251614dc4565b50505b803590602001918460018302840111600160201b8311171561127e5760008061127b614dc4565b50505b91908080601f01602080910402602001604051908101604052818152929190602084018383808284376000920191909152509295505082359350505060200135613c1d565b610e26613ca1565b6109c1613d27565b6112db613d46565b60405180806020018060200180602001848103845287818151815260200191508051906020019060200280838360005b8381101561132357808201518382015260200161130b565b50505050905001848103835286818151815260200191508051906020019060200280838360005b8381101561136257808201518382015260200161134a565b50505050905001848103825285818151815260200191508051906020019060200280838360005b838110156113a1578082015183820152602001611389565b50505050905001965050505050505060405180910390f35b6113c1613fd3565b60405160208082528190810183818151815260200191508051906020019080838360005b838110156113fd5780820151838201526020016113e5565b50505050905090810190601f16801561142a5780820380516001836020036101000a031916815260200191505b509250505060405180910390f35b60006038611444614e2f565b906101000a90046001600160a01b031681565b60006039611463614e2f565b906101000a90046001600160a01b03166001600160a01b0316638da5cb5b6040518163ffffffff1660e01b815260040160206040518083038186806114a6614e8a565b1580156114bb576000806114b8614dc4565b50505b505a6114c5614ed6565b50505050501580156114e4573d6000803e3d60006114e1614dc4565b50505b505050506040513d602081101561150357600080611500614dc4565b50505b8101908080516001600160a01b0316925050505a61151f614fc1565b6001600160a01b0316148061155457506115376123a1565b6001600160a01b03165a611549614fc1565b6001600160a01b0316145b8061157f5750611562611ae6565b6001600160a01b03165a611574614fc1565b6001600160a01b0316145b6115d85760405162461bcd60e51b815260206004820152601b60248201527f6f6e6c79206d616e616765722c20747261646572206f722044414f00000000006044820152606401604051809103906115d5614dc4565b50505b6115e1816122a0565b6116305760405162461bcd60e51b8152602060048201526013602482015272185cdcd95d081b9bdd081cdd5c1c1bdc9d1959606a1b60448201526064016040518091039061162d614dc4565b50505b6001600160a01b0381166000908152603c60205260409020600090611653614e2f565b906101000a900460ff16156116b75760405162461bcd60e51b815260206004820152601f60248201527f63616e6e6f742072656d6f76652070657273697374656e7420617373657473006044820152606401604051809103906116b4614dc4565b50505b806001600160a01b03166370a082315a63996d79a5598160e01b8152602081600483336000905af158600e01573d6000803e3d6000fd5b3d6001141558600a015760016000f35b8051925060005b604081101561171c57600082820152602001611705565b5050506040516001600160e01b031960e084901b1681526001600160a01b0390911660048201526024016020604051808303818680611759614e8a565b15801561176e5760008061176b614dc4565b50505b505a611778614ed6565b5050505050158015611797573d6000803e3d6000611794614dc4565b50505b505050506040513d60208110156117b6576000806117b3614dc4565b50505b81019080805115925061181b9150505760405162461bcd60e51b815260206004820152601d60248201527f63616e6e6f742072656d6f7665206e6f6e2d656d707479206173736574000000604482015260640160405180910390611818614dc4565b50505b61182481614087565b50565b60006033611833614e2f565b906101000a90046001600160a01b03166001600160a01b03165a611855614fc1565b6001600160a01b0316148061189e575060006037611871614e2f565b906101000a90046001600160a01b03166001600160a01b03165a611893614fc1565b6001600160a01b0316145b6118f05760405162461bcd60e51b815260206004820152601660248201527537b7363c9036b0b730b3b2b91037b9103a3930b232b960511b6044820152606401604051809103906118ed614dc4565b50505b611824816142c9565b600080611911848460200260040160ff166020613c1d565b9050600061192485600484016020613c1d565b9050806119755760405162461bcd60e51b8152602060048201526012602482015271696e707574206973206e6f7420617272617960701b604482015260640160405180910390611972614dc4565b50505b611989856020808402850160040190613c1d565b925050505b92915050565b600060336119a0614e2f565b906101000a90046001600160a01b03166001600160a01b03165a6119c2614fc1565b6001600160a01b031614611a145760405162461bcd60e51b815260206004820152600c60248201526b37b7363c9036b0b730b3b2b960a11b604482015260640160405180910390611a11614dc4565b50505b611a1d8161388b565b611a2657611824565b611824816145ee565b60006039611a3b614e2f565b906101000a90046001600160a01b03166001600160a01b03165a611a5d614fc1565b6001600160a01b031614611ab05760405162461bcd60e51b815260206004820152600d60248201526c3737903832b936b4b9b9b4b7b760991b604482015260640160405180910390611aad614dc4565b50505b806038600181611abe614e2f565b816001600160a01b0302191690836001600160a01b0316021790611ae0615007565b50505050565b6000806037611af3614e2f565b906101000a90046001600160a01b0316905090565b805b919050565b6060806000603a80611b1f614e2f565b9050905060608167ffffffffffffffff81118015611b4557600080611b42614dc4565b50505b50604051908082528060200260200182016040528015611b6f578160200160208202803683370190505b50905060608267ffffffffffffffff81118015611b9457600080611b91614dc4565b50505b50604051908082528060200260200182016040528015611bbe578160200160208202803683370190505b5090506000806038611bce614e2f565b906101000a90046001600160a01b03166001600160a01b03166321f8a7216b53797374656d53746174757360a01b6040516001600160e01b031960e084901b16815260048101919091526024016020604051808303818680611c2e614e8a565b158015611c4357600080611c40614dc4565b50505b505a611c4d614ed6565b5050505050158015611c6c573d6000803e3d6000611c69614dc4565b50505b505050506040513d6020811015611c8b57600080611c88614dc4565b50505b81019080805193506000925050505b84811015611dc5576000603a8281611cb0614e2f565b8110611cb857fe5b90600052602060002001600090611ccd614e2f565b906101000a90046001600160a01b0316905080858381518110611cec57fe5b6001600160a01b03928316602091820292909201015283166342a28e21611d128361268b565b6040516001600160e01b031960e084901b16815260048101919091526024016000604051808303818680611d44614e8a565b158015611d5957600080611d56614dc4565b50505b505a611d63614ed6565b5050505050925050508015611d76575060015b611d9d576001848381518110611d8857fe5b91151560209283029190910190910152611dbc565b6000848381518110611dab57fe5b911515602092830291909101909101525b50600101611c9a565b50919450925050509091565b600080806039611ddf614e2f565b906101000a90046001600160a01b03166001600160a01b0316638b2f0f4f856040516001600160e01b031960e084901b1681526001600160a01b0390911660048201526024016020604051808303818680611e38614e8a565b158015611e4d57600080611e4a614dc4565b50505b505a611e57614ed6565b5050505050158015611e76573d6000803e3d6000611e73614dc4565b50505b505050506040513d6020811015611e9557600080611e92614dc4565b50505b8101908080519350611ebf9250670de0b6b3a76400009150611eb990508386614761565b906147c0565b949350505050565b603b6020528060005260406000209050611edf614e2f565b81565b600080806038611ef0614e2f565b906101000a90046001600160a01b03166001600160a01b03166321f8a721680a6f2dce8d0cae8d2f60bb1b6040516001600160e01b031960e084901b16815260048101919091526024016020604051808303818680611f4d614e8a565b158015611f6257600080611f5f614dc4565b50505b505a611f6c614ed6565b5050505050158015611f8b573d6000803e3d6000611f88614dc4565b50505b505050506040513d6020811015611faa57600080611fa7614dc4565b50505b8101908080516001600160a01b03169250633260803991508590506040516001600160e01b031960e084901b16815260048101919091526024016020604051808303818680611ff7614e8a565b15801561200c57600080612009614dc4565b50505b505a612016614ed6565b5050505050158015612035573d6000803e3d6000612032614dc4565b50505b505050506040513d602081101561205457600080612051614dc4565b50505b81019080805193505050506001600160a01b0381166120b05760405162461bcd60e51b815260206004820152600b60248201526a696e76616c6964206b657960a81b6044820152606401604051809103906120ad614dc4565b50505b6000816001600160a01b031663ec5568896040518163ffffffff1660e01b815260040160206040518083038186806120e6614e8a565b1580156120fb576000806120f8614dc4565b50505b505a612105614ed6565b5050505050158015612124573d6000803e3d6000612121614dc4565b50505b505050506040513d602081101561214357600080612140614dc4565b50505b81019080805193505050506001600160a01b0381166121a15760405162461bcd60e51b815260206004820152600d60248201526c696e76616c69642070726f787960981b60448201526064016040518091039061219e614dc4565b50505b9392505050565b6000806121c0858560200260040160ff166020613c1d565b905060006121d386600484016020613c1d565b9050806122245760405162461bcd60e51b8152602060048201526012602482015271696e707574206973206e6f7420617272617960701b604482015260640160405180910390612221614dc4565b50505b60ff8416811161227c5760405162461bcd60e51b815260206004820152601660248201527534b73b30b634b21030b93930bc903837b9b4ba34b7b760511b604482015260640160405180910390612279614dc4565b50505b612296866020600160ff8816018102850160040190613c1d565b9695505050505050565b6001600160a01b0381166000908152603b602052604081206122c0614e2f565b151592915050565b600060336122d4614e2f565b906101000a90046001600160a01b03166001600160a01b03165a6122f6614fc1565b6001600160a01b0316146123485760405162461bcd60e51b815260206004820152600c60248201526b37b7363c9036b0b730b3b2b960a11b604482015260640160405180910390612345614dc4565b50505b60005b815181101561239d5761237082828151811061236357fe5b602002602001015161388b565b61237957612395565b61239582828151811061238857fe5b60200260200101516145ee565b60010161234b565b5050565b6000806033611af3614e2f565b600060336123ba614e2f565b906101000a90046001600160a01b03166001600160a01b03165a6123dc614fc1565b6001600160a01b03161461242e5760405162461bcd60e51b815260206004820152600c60248201526b37b7363c9036b0b730b3b2b960a11b60448201526064016040518091039061242b614dc4565b50505b81603360018161243c614e2f565b816001600160a01b0302191690836001600160a01b031602179061245e615007565b505050806034908051612475929160200190615055565b507f6ed15082ad038474841528b5badca105106d4463e44b5d434130dfb299aa366982826040516001600160a01b038316815260406020820181815290820183818151815260200191508051906020019080838360005b838110156124e45780820151838201526020016124cc565b50505050905090810190601f1680156125115780820380516001836020036101000a031916815260200191505b50935050505060405180910390a15050565b6000818301845110156125855760405162461bcd60e51b815260206004820152601b60248201527f52656164696e67206279746573206f7574206f6620626f756e64730000000000604482015260640160405180910390612582614dc4565b50505b8260200184015190508160040380156125a4576008810260020a820491505b509392505050565b6000808060396125ba614e2f565b906101000a90046001600160a01b03166001600160a01b031663b7a54526846040516001600160e01b031960e084901b1681526001600160a01b03909116600482015260240160408051808303818680612612614e8a565b15801561262757600080612624614dc4565b50505b505a612631614ed6565b5050505050158015612650573d6000803e3d600061264d614dc4565b50505b505050506040513d604081101561266f5760008061266c614dc4565b50505b8101908080519291906020018051939550929350505050915091565b600061269f826001600160a01b0316614800565b6126e85760405162461bcd60e51b815260206004820152600d60248201526c1a5b9d985b1a5908185cdcd95d609a1b6044820152606401604051809103906126e5614dc4565b50505b816001600160a01b031663d4b839926040518163ffffffff1660e01b8152600401602060405180830381868061271c614e8a565b1580156127315760008061272e614dc4565b50505b505a61273b614ed6565b505050505092505050801561277457506040513d602081101561276657600080612763614dc4565b50505b810190808051925060019150505b6127f4573d8080156127a2576040513d603f01601f191681016040523d815291503d6000602084013e6127a7565b606091505b5060405162461bcd60e51b815260206004820152600f60248201526e1b9bdb8b5cde5b9d1a08185cdcd95d608a1b6044820152606401604051809103906127ec614dc4565b505050611b0a565b60006038612800614e2f565b906101000a90046001600160a01b03166001600160a01b03166321f8a721680a6f2dce8d0cae8d2f60bb1b6040516001600160e01b031960e084901b1681526004810191909152602401602060405180830381868061285d614e8a565b1580156128725760008061286f614dc4565b50505b505a61287c614ed6565b505050505015801561289b573d6000803e3d6000612898614dc4565b50505b505050506040513d60208110156128ba576000806128b7614dc4565b50505b8101908080516001600160a01b031692506316b2213f91508390506040516001600160e01b031960e084901b1681526001600160a01b039091166004820152602401602060405180830381868061290f614e8a565b15801561292457600080612921614dc4565b50505b505a61292e614ed6565b505050505015801561294d573d6000803e3d600061294a614dc4565b50505b505050506040513d602081101561296c57600080612969614dc4565b50505b8101908080519450611b0a9350505050565b6000603361298a614e2f565b906101000a90046001600160a01b03166001600160a01b03165a6129ac614fc1565b6001600160a01b0316146129fe5760405162461bcd60e51b815260206004820152600c60248201526b37b7363c9036b0b730b3b2b960a11b6044820152606401604051809103906129fb614dc4565b50505b6000806039612a0b614e2f565b906101000a90046001600160a01b03166001600160a01b0316635c9bfc2b6040518163ffffffff1660e01b81526004016020604051808303818680612a4e614e8a565b158015612a6357600080612a60614dc4565b50505b505a612a6d614ed6565b5050505050158015612a8c573d6000803e3d6000612a89614dc4565b50505b505050506040513d6020811015612aab57600080612aa8614dc4565b50505b810190808051935060009250829150612ac59050856125ac565b909250905080841115612b1a5760405162461bcd60e51b815260206004820152601060248201526f34b73b30b634b210333930b1ba34b7b760811b604482015260640160405180910390612b17614dc4565b50505b612b248284614843565b841115612b805760405162461bcd60e51b815260206004820152601960248201527f657863656564656420616c6c6f77656420696e63726561736500000000000000604482015260640160405180910390612b7d614dc4565b50505b6000806039612b8d614e2f565b906101000a90046001600160a01b03166001600160a01b031663ebee461d6040518163ffffffff1660e01b81526004016020604051808303818680612bd0614e8a565b158015612be557600080612be2614dc4565b50505b505a612bef614ed6565b5050505050158015612c0e573d6000803e3d6000612c0b614dc4565b50505b505050506040513d6020811015612c2d57600080612c2a614dc4565b50505b8101908080519350879250829150603d9050612c47615007565b505050805a612c546150f5565b0180603e612c60615007565b5050507f4db9119741646c419f1ceccdf112b5b9a9b4516355e742e1fa9c479f4dec98da85603e612c8f614e2f565b60405191825260208201526040908101905180910390a1505050505050565b60006033612cba614e2f565b906101000a90046001600160a01b03166001600160a01b03165a612cdc614fc1565b6001600160a01b031614612d2e5760405162461bcd60e51b815260206004820152600c60248201526b37b7363c9036b0b730b3b2b960a11b604482015260640160405180910390612d2b614dc4565b50505b60005b815181101561239d57612d4982828151811061236357fe5b15612d5357612d6f565b612d6f828281518110612d6257fe5b60200260200101516148a2565b600101612d31565b6000806033612d84614e2f565b906101000a90046001600160a01b03166001600160a01b03165a612da6614fc1565b6001600160a01b03161480612def575060006037612dc2614e2f565b906101000a90046001600160a01b03166001600160a01b03165a612de4614fc1565b6001600160a01b0316145b612e415760405162461bcd60e51b815260206004820152601660248201527537b7363c9036b0b730b3b2b91037b9103a3930b232b960511b604482015260640160405180910390612e3e614dc4565b50505b6001600160a01b038316612ea45760405162461bcd60e51b815260206004820152601c60248201527f6e6f6e2d7a65726f206164647265737320697320726571756972656400000000604482015260640160405180910390612ea1614dc4565b50505b6000806039612eb1614e2f565b906101000a90046001600160a01b03166001600160a01b0316637027ea6c856040516001600160e01b031960e084901b1681526001600160a01b0390911660048201526024016020604051808303818680612f0a614e8a565b158015612f1f57600080612f1c614dc4565b50505b505a612f29614ed6565b5050505050158015612f48573d6000803e3d6000612f45614dc4565b50505b505050506040513d6020811015612f6757600080612f64614dc4565b50505b81019080805193505050506001600160a01b038116612fcb5760405162461bcd60e51b815260206004820152601360248201527234b73b30b634b2103232b9ba34b730ba34b7b760691b604482015260640160405180910390612fc8614dc4565b50505b806001600160a01b031663e23ff4375a63996d79a5598160e01b8152602081600483336000905af158600e01573d6000803e3d6000fd5b3d6001141558600a015760016000f35b8051925060005b604081101561303057600082820152602001613019565b505050856040518363ffffffff1660e01b815260040180836001600160a01b0316815260200180602001828103825283818151815260200191508051906020019080838360005b8381101561308f578082015183820152602001613077565b50505050905090810190601f1680156130bc5780820380516001836020036101000a031916815260200191505b509350505050602060405180830381600087806130d7614e8a565b1580156130ec576000806130e9614dc4565b50505b505a6130f661513b565b505050505050158015613116573d6000803e3d6000613113614dc4565b50505b505050506040513d602081101561313557600080613132614dc4565b50505b810190808051925061318f9150505760405162461bcd60e51b815260206004820152601360248201527234b73b30b634b2103a3930b739b0b1ba34b7b760691b60448201526064016040518091039061318c614dc4565b50505b6000846001600160a01b0316846040518082805190602001908083835b602083106131cb5780518252601f1990920191602091820191016131ac565b6001836020036101000a0380198251168184511680821785525050505050509050019150506000604051808303816000865a61320561513b565b5050505050509150503d806000811461323a576040513d603f01601f191681016040523d815291503d6000602084013e61323f565b606091505b50909150506001811515146132a35760405162461bcd60e51b815260206004820152601a60248201527f6661696c656420746f2065786563757465207468652063616c6c0000000000006044820152606401604051809103906132a0614dc4565b50505b7f508f3afa87f72dce865a2321107666b28ac822c23a8c0555fbeb3424cf3de5635a63996d79a5598160e01b8152602081600483336000905af158600e01573d6000803e3d6000fd5b3d6001141558600a015760016000f35b8051925060005b604081101561331a57600082820152602001613303565b5050506133256123a1565b5a61332e6150f5565b6040516001600160a01b039384168152919092166020820152604080820192909252606001905180910390a1506001949350505050565b603e611edf614e2f565b6000603361337b614e2f565b906101000a90046001600160a01b03166001600160a01b03165a61339d614fc1565b6001600160a01b0316146133ef5760405162461bcd60e51b815260206004820152600c60248201526b37b7363c9036b0b730b3b2b960a11b6044820152606401604051809103906133ec614dc4565b50505b600060376001816133fe614e2f565b816001600160a01b0302191690836001600160a01b0316021790613420615007565b505050565b603c6020528060005260406000206000915061343f614e2f565b906101000a900460ff1681565b60006121a1838360200260040160ff166020613c1d565b603d611edf614e2f565b600080603961347a614e2f565b906101000a90046001600160a01b03166001600160a01b031663cc435bf3836040516001600160e01b031960e084901b1681526001600160a01b03909116600482015260240160206040518083038186806134d3614e8a565b1580156134e8576000806134e5614dc4565b50505b505a6134f2614ed6565b5050505050158015613511573d6000803e3d600061350e614dc4565b50505b505050506040513d60208110156135305760008061352d614dc4565b50505b81019080805195945050505050565b6000603a8061354c614e2f565b91505090565b6000603361355e614e2f565b906101000a90046001600160a01b03166001600160a01b03165a613580614fc1565b6001600160a01b0316146135d25760405162461bcd60e51b815260206004820152600c60248201526b37b7363c9036b0b730b3b2b960a11b6044820152606401604051809103906135cf614dc4565b50505b603e6135dc614e2f565b5a6135e56150f5565b10156136405760405162461bcd60e51b815260206004820152601960248201527f66656520696e6372656173652064656c6179206163746976650000000000000060448201526064016040518091039061363d614dc4565b50505b61365381603d61364e614e2f565b61492e565b600080603d613660615007565b5050506000603e8190611ae0615007565b600080613689848460200260040160ff166020613c1d565b9050611ebf84600483016020613c1d565b60606035806136a7614e2f565b8060200260200160405190810160405281815291906020830182806136ca614e2f565b801561371757602002820191906000526020600020905b6000826136ec614e2f565b906101000a90046001600160a01b03166001600160a01b0316815260200190600101908083116136e1575b5050505050905090565b600060358061354c614e2f565b6000603361373a614e2f565b906101000a90046001600160a01b03166001600160a01b03165a61375c614fc1565b6001600160a01b0316146137ae5760405162461bcd60e51b815260206004820152600c60248201526b37b7363c9036b0b730b3b2b960a11b6044820152606401604051809103906137ab614dc4565b50505b806037600181611abe614e2f565b600060336137c8614e2f565b906101000a90046001600160a01b03166001600160a01b03165a6137ea614fc1565b6001600160a01b03161461383c5760405162461bcd60e51b815260206004820152600c60248201526b37b7363c9036b0b730b3b2b960a11b604482015260640160405180910390613839614dc4565b50505b600080603d613849615007565b5050506000603e819061385a615007565b5050507fc6f04bf43cbdf1ba5d51b4afa160bb3c7e13858b1409aa32868b239bb2f8d84960405160405180910390a1565b6001600160a01b03811660009081526036602052604081206122c0614e2f565b600061198e8260006004612523565b60006039611444614e2f565b603a81816138d2614e2f565b81106138da57fe5b9060005260206000200160009150611444614e2f565b600060336138fc614e2f565b906101000a90046001600160a01b03166001600160a01b03165a61391e614fc1565b6001600160a01b0316146139705760405162461bcd60e51b815260206004820152600c60248201526b37b7363c9036b0b730b3b2b960a11b60448201526064016040518091039061396d614dc4565b50505b6139798161388b565b1561398357611824565b611824816148a2565b6000816001600160a01b03166370a082315a63996d79a5598160e01b8152602081600483336000905af158600e01573d6000803e3d6000fd5b3d6001141558600a015760016000f35b8051925060005b60408110156139f3576000828201526020016139dc565b5050506040516001600160e01b031960e084901b1681526001600160a01b03909116600482015260240160206040518083038186806134d3614e8a565b60016000613a3c614e2f565b906101000a900460ff1680613a545750613a54614b81565b80613a715750600080613a65614e2f565b906101000a900460ff16155b613ab55760405162461bcd60e51b815260040180806020018281038252602e81526020018061528e602e913960400191505060405180910390613ab2614dc4565b50505b6000600181613ac2614e2f565b906101000a900460ff161590508015613b28576001600061010081613ae5614e2f565b8160ff02191690831515021790613afa615007565b50505060016000806101000a81613b0f614e2f565b8160ff02191690831515021790613b24615007565b5050505b613b328585614bf2565b856039600181613b40614e2f565b816001600160a01b0302191690836001600160a01b0316021790613b62615007565b50505082603860006101000a81613b77614e2f565b816001600160a01b0302191690836001600160a01b0316021790613b99615007565b50505060005b82518160ff161015613bd257613bca838260ff1681518110613bbd57fe5b60200260200101516142c9565b600101613b9f565b508015613c015760008061010081613be8614e2f565b8160ff02191690831515021790613bfd615007565b5050505b505050505050565b600061198e82613c188461398c565b611dd1565b600081830184511015613c7f5760405162461bcd60e51b815260206004820152601b60248201527f52656164696e67206279746573206f7574206f6620626f756e64730000000000604482015260640160405180910390613c7c614dc4565b50505b8260200184015190508160200380156125a45760080260020a90049392505050565b6060603a80613cae614e2f565b806020026020016040519081016040528181529190602083018280613cd1614e2f565b801561371757602002820191906000526020600020905b600082613cf3614e2f565b906101000a90046001600160a01b03166001600160a01b031681526020019060010190808311613ce8575050505050905090565b600080603d613d34614e2f565b603e613d3e614e2f565b915091509091565b60608060606000603a80613d58614e2f565b9050905060608167ffffffffffffffff81118015613d7e57600080613d7b614dc4565b50505b50604051908082528060200260200182016040528015613da8578160200160208202803683370190505b50905060608267ffffffffffffffff81118015613dcd57600080613dca614dc4565b50505b50604051908082528060200260200182016040528015613df7578160200160208202803683370190505b50905060608367ffffffffffffffff81118015613e1c57600080613e19614dc4565b50505b50604051908082528060200260200182016040528015613e46578160200160208202803683370190505b50905060005b84811015613fc5576000603a8281613e62614e2f565b8110613e6a57fe5b90600052602060002001600090613e7f614e2f565b906101000a90046001600160a01b03169050613e9a8161398c565b848381518110613ea657fe5b60200260200101818152505080858381518110613ebf57fe5b6001600160a01b039092166020928302919091019091015260006039613ee3614e2f565b906101000a90046001600160a01b03166001600160a01b0316638b2f0f4f826040516001600160e01b031960e084901b1681526001600160a01b0390911660048201526024016020604051808303818680613f3c614e8a565b158015613f5157600080613f4e614dc4565b50505b505a613f5b614ed6565b5050505050158015613f7a573d6000803e3d6000613f77614dc4565b50505b505050506040513d6020811015613f9957600080613f96614dc4565b50505b810190808051925085915084905081518110613fb157fe5b602090810291909101015250600101613e4c565b509195509350915050909192565b6060603480613fe0614e2f565b600181600116156101000203166002900480601f01602080910402602001604051908101604052818152919060208301828061401a614e2f565b600181600116156101000203166002900480156137175780601f10614054576101008083614046614e2f565b040283529160200191613717565b820191906000526020600020905b8161406b614e2f565b8152906001019060200180831161406257509395945050505050565b6000603a80614094614e2f565b6001600160a01b0384166000908152603b60205290925090506140c46001604083206140be614e2f565b90614c39565b90506000603a6140d5846001614c39565b816140de614e2f565b81106140e657fe5b906000526020600020016000906140fb614e2f565b906101000a90046001600160a01b0316905080603a838161411a614e2f565b811061412257fe5b90600052602060002001600181614137614e2f565b816001600160a01b0302191690836001600160a01b0316021790614159615007565b5061416991508390506001614843565b6001600160a01b0382166000908152603b60205260409020819061418b615007565b5050506001600160a01b0384166000908152603b6020526040812081906141b0615007565b505050603a806141be614e2f565b806141c557fe5b600190038181906000526020600020016001816141e0614e2f565b906001600160a01b03021916906141f5615007565b505090614200615007565b50507f9b4f55639e5e283319baee5bc4e69a5625a8e3a1cc004af968f4fee7250220275a63996d79a5598160e01b8152602081600483336000905af158600e01573d6000803e3d6000fd5b3d6001141558600a015760016000f35b8051925060005b604081101561427957600082820152602001614262565b5050506142846123a1565b8660405180846001600160a01b03168152602001836001600160a01b03168152602001826001600160a01b03168152602001935050505060405180910390a150505050565b600060396142d5614e2f565b906101000a90046001600160a01b03166001600160a01b031663aa12ae4d6040518163ffffffff1660e01b81526004016020604051808303818680614318614e8a565b15801561432d5760008061432a614dc4565b50505b505a614337614ed6565b5050505050158015614356573d6000803e3d6000614353614dc4565b50505b505050506040513d602081101561437557600080614372614dc4565b50505b8101908080519250603a915081905061438c614e2f565b9050106143e15760405162461bcd60e51b81526020600482015260166024820152751b585e1a5b5d5b48185cdcd95d1cc81c995858da195960521b6044820152606401604051809103906143de614dc4565b50505b6143ea816122a0565b156144445760405162461bcd60e51b815260206004820152601760248201527f617373657420616c726561647920737570706f72746564000000000000000000604482015260640160405180910390614441614dc4565b50505b61444d8161346d565b151560011461449b5760405162461bcd60e51b815260206004820152600d60248201526c1a5b9d985b1a5908185cdcd95d609a1b604482015260640160405180910390614498614dc4565b50505b80603a806001816144aa614e2f565b0180826144b5615007565b5050600092835260001901916020915020016001816144d2614e2f565b816001600160a01b0302191690836001600160a01b03160217906144f4615007565b505050603a80614502614e2f565b6001600160a01b0383166000908152603b602052909150604090208190614527615007565b5050507f0a7426a0630aad7dbc4d5ca5b7d9aac1133d77d2db987caaf4b4186c85d6593f5a63996d79a5598160e01b8152602081600483336000905af158600e01573d6000803e3d6000fd5b3d6001141558600a015760016000f35b8051925060005b60408110156145a15760008282015260200161458a565b5050506145ac6123a1565b8360405180846001600160a01b03168152602001836001600160a01b03168152602001826001600160a01b03168152602001935050505060405180910390a150565b60006035806145fb614e2f565b6001600160a01b0384166000908152603660205290925090506146256001604083206140be614e2f565b905060006035614636846001614c39565b8161463f614e2f565b811061464757fe5b9060005260206000200160009061465c614e2f565b906101000a90046001600160a01b03169050806035838161467b614e2f565b811061468357fe5b90600052602060002001600181614698614e2f565b816001600160a01b0302191690836001600160a01b03160217906146ba615007565b506146ca91508390506001614843565b6001600160a01b038216600090815260366020526040902081906146ec615007565b5050506001600160a01b03841660009081526036602052604081208190614711615007565b50505060358061471f614e2f565b8061472657fe5b60019003818190600052602060002001600181614741614e2f565b906001600160a01b0302191690614756615007565b505090613c01615007565b6000826147705750600061198e565b8282028284828161477d57fe5b04146121a15760405162461bcd60e51b815260040180806020018281038252602181526020018061526d602191396040019150506040518091039061219e614dc4565b60006121a1838360405160408082019052601a81527f536166654d6174683a206469766973696f6e206279207a65726f0000000000006020820152614c79565b6000807fc5d2460186f7233c927e7db2dcc703c0e500b653ca82273b7bfad8045d85a4708361482d615201565b9150808214158015611ebf575050151592915050565b6000828201838110156121a15760405162461bcd60e51b815260206004820152601b60248201527f536166654d6174683a206164646974696f6e206f766572666c6f77000000000060448201526064016040518091039061219e614dc4565b806035806001816148b1614e2f565b0180826148bc615007565b5050600092835260001901916020915020016001816148d9614e2f565b816001600160a01b0302191690836001600160a01b03160217906148fb615007565b505050603580614909614e2f565b6001600160a01b03831660009081526036602052909150604090208190611ae0615007565b6000603961493a614e2f565b906101000a90046001600160a01b03166001600160a01b031663046b72c483836040516001600160e01b031960e085901b1681526001600160a01b03909216600483015260248201526044016000604051808303816000878061499b614e8a565b1580156149b0576000806149ad614dc4565b50505b505a6149ba61513b565b5050505050501580156149da573d6000803e3d60006149d7614dc4565b50505b5050505060008060396000906149ee614e2f565b906101000a90046001600160a01b03166001600160a01b031663b7a54526856040516001600160e01b031960e084901b1681526001600160a01b03909116600482015260240160408051808303818680614a46614e8a565b158015614a5b57600080614a58614dc4565b50505b505a614a65614ed6565b5050505050158015614a84573d6000803e3d6000614a81614dc4565b50505b505050506040513d6040811015614aa357600080614aa0614dc4565b50505b81019080805192919060200180519395509293507f1780c04ddc6f0b32d866c7a3d7583f53515ef49ed2126af868f804f491601266925050505a63996d79a5598160e01b8152602081600483336000905af158600e01573d6000803e3d6000fd5b3d6001141558600a015760016000f35b8051925060005b6040811015614b3257600082820152602001614b1b565b505050614b3d6123a1565b848460405180856001600160a01b03168152602001846001600160a01b0316815260200183815260200182815260200194505050505060405180910390a150505050565b6000805a63996d79a5598160e01b8152602081600483336000905af158600e01573d6000803e3d6000fd5b3d6001141558600a015760016000f35b8051925060005b6040811015614bda57600082820152602001614bc3565b5050509050600081614bea614e8a565b159250505090565b816033600181614c00614e2f565b816001600160a01b0302191690836001600160a01b0316021790614c22615007565b505050806034908051613420929160200190615055565b60006121a1838360405160408082019052601e81527f536166654d6174683a207375627472616374696f6e206f766572666c6f7700006020820152614d24565b60008183614d0e5760405162461bcd60e51b81526004018080602001828103825283818151815260200191508051906020019080838360005b83811015614cca578082015183820152602001614cb2565b50505050905090810190601f168015614cf75780820380516001836020036101000a031916815260200191505b509250505060405180910390614d0b614dc4565b50505b506000838581614d1a57fe5b0495945050505050565b60008184841115614dbc5760405162461bcd60e51b81526004018080602001828103825283818151815260200191508051906020019080838360005b83811015614d78578082015183820152602001614d60565b50505050905090810190601f168015614da55780820380516001836020036101000a031916815260200191505b509250505060405180910390614db9614dc4565b50505b505050900390565b632a2a7adb598160e01b8152600481016020815285602082015260005b86811015614dfc578086015182820160400152602001614de1565b506020828760640184336000905af158600e01573d6000803e3d6000fd5b3d6001141558600a015760016000f35b505050565b6303daa959598160e01b8152836004820152602081602483336000905af158600e01573d6000803e3d6000fd5b3d6001141558600a015760016000f35b8051935060005b604081101561342057600082820152602001614e73565b638435035b598160e01b8152836004820152602081602483336000905af158600e01573d6000803e3d6000fd5b3d6001141558600a015760016000f35b80516000825293506020614e73565b638540661f598160e01b8152614f07565b808083111561198e575090919050565b808083101561198e575090919050565b836004820152846024820152606060448201528660648201526084810160005b88811015614f3f578088015182820152602001614f27565b506060828960a40184336000905af158600e01573d6000803e3d6000fd5b3d6001141558600a015760016000f35b815160408301513d6000853e8b8b82606087013350600060045af15059614f948d3d614ef7565b8c01614fa08187614ee7565b5b82811015614fb55760008152602001614fa1565b50929c50505050505050565b6373509064598160e01b8152602081600483336000905af158600e01573d6000803e3d6000fd5b3d6001141558600a015760016000f35b80516000825293506020614e73565b6322bd64c0598160e01b8152836004820152846024820152600081604483336000905af158600e01573d6000803e3d6000fd5b3d6001141558600a015760016000f35b600081526020614e73565b828061505f614e2f565b600181600116156101000203166002900490600052602060002090601f016020900481019282601f106150a657805160ff1916838001178561509f615007565b50506150e5565b828001600101856150b5615007565b505082156150e5579182015b828111156150e5578251826150d4615007565b5050916020019190600101906150c1565b506150f192915061524d565b5090565b63bdbf8c36598160e01b8152602081600483336000905af158600e01573d6000803e3d6000fd5b3d6001141558600a015760016000f35b80516000825293506020614e73565b6385979f76598160e01b8152836004820152846024820152606060448201528760648201526084810160005b8981101561517f578089015182820152602001615167565b506060828a60a40184336000905af158600e01573d6000803e3d6000fd5b3d6001141558600a015760016000f35b815160408301513d6000853e8c8c82606087013350600060045af150596151d48e3d614ef7565b8d016151e08187614ee7565b5b828110156151f557600081526020016151e1565b50929d50505050505050565b6324749d5c598160e01b8152836004820152602081602483336000905af158600e01573d6000803e3d6000fd5b3d6001141558600a015760016000f35b80516000825293506020614e73565b808211156150f15760008082615261615007565b50505060010161524d56fe536166654d6174683a206d756c7469706c69636174696f6e206f766572666c6f77436f6e747261637420696e7374616e63652068617320616c7265616479206265656e20696e697469616c697a6564",
  "deployedBytecode": "0x608060405234801561001957600080610016614dc4565b50505b50600436106102c45760003560e01c80637c8afd511161018b578063bbbf725b116100f2578063d346cc65116100ab578063e5406dbf11610085578063e5406dbf146112c3578063ed5b165d146112cb578063f09d14d7146112d3578063fed4416a146113b9576102c4565b8063d346cc651461103a578063d8af8ed4146111c8578063db896b57146111f7576102c4565b8063bbbf725b14610eb8578063c3c6279f14610ee7578063c45a015514610fae578063c68dbb3714610fb6578063ca6d56dc14610fdc578063cd88e5581461100b576102c4565b8063969eed2711610144578063969eed2714610d23578063998546e314610d525780639eab525314610e1e578063a30e3fa914610e79578063a6bc18f914610e81578063b8bd81e614610eb0576102c4565b80637c8afd5114610be157806380dd4f6214610be957806382f86acc14610c185780638f32343914610ce45780639240d29914610cec578063936553c414610d1b576102c4565b806341dc16c31161022f5780635f6eceab116101e85780635f6eceab146109925780636141db90146109d95780636708f5d714610a085780636f4d469b14610a3d5780637ae7cfb514610b025780637b4d0c6314610bd9576102c4565b806341dc16c3146105eb578063464b4158146106c257806346ee84b014610705578063481c6a75146107ca57806352213663146107d2578063568b5a2f146108a9576102c4565b80631758078b116102815780631758078b146104925780631eba30771461049a57806321f8c984146104c057806329c07fba146105615780633c570d7d146105965780633ded6530146105c5576102c4565b806305a2ee2a146102d257806306468587146102f6578063093b88251461032757806309ff5c7d146103565780630b1ca49a146104345780631430238714610463575b6000806102cf614dc4565b50505b6102da611438565b6040516001600160a01b03909116815260200160405180910390f35b6103256004803603602081101561031557600080610312614dc4565b50505b50356001600160a01b0316611457565b005b6103256004803603602081101561034657600080610343614dc4565b50505b50356001600160a01b0316611827565b6104226004803603604081101561037557600080610372614dc4565b50505b810190602081018135600160201b81111561039857600080610395614dc4565b50505b8201836020820111156103b3576000806103b0614dc4565b50505b803590602001918460018302840111600160201b831117156103dd576000806103da614dc4565b50505b91908080601f01602080910402602001604051908101604052818152929190602084018383808284376000920191909152509295505050903560ff1691506118f99050565b60405190815260200160405180910390f35b6103256004803603602081101561045357600080610450614dc4565b50505b50356001600160a01b0316611994565b610325600480360360208110156104825760008061047f614dc4565b50505b50356001600160a01b0316611a2f565b6102da611ae6565b6102da600480360360208110156104b9576000806104b6614dc4565b50505b5035611b08565b6104c8611b0f565b604051808060200180602001838103835285818151815260200191508051906020019060200280838360005b8381101561050c5780820151838201526020016104f4565b50505050905001838103825284818151815260200191508051906020019060200280838360005b8381101561054b578082015183820152602001610533565b5050505090500194505050505060405180910390f35b610422600480360360408110156105805760008061057d614dc4565b50505b506001600160a01b038135169060200135611dd1565b610422600480360360208110156105b5576000806105b2614dc4565b50505b50356001600160a01b0316611ec7565b6102da600480360360208110156105e4576000806105e1614dc4565b50505b5035611ee2565b6104226004803603606081101561060a57600080610607614dc4565b50505b810190602081018135600160201b81111561062d5760008061062a614dc4565b50505b82018360208201111561064857600080610645614dc4565b50505b803590602001918460018302840111600160201b831117156106725760008061066f614dc4565b50505b91908080601f01602080910402602001604051908101604052818152929190602084018383808284376000920191909152509295505060ff83358116945060209093013590921691506121a89050565b6106f1600480360360208110156106e1576000806106de614dc4565b50505b50356001600160a01b03166122a0565b604051901515815260200160405180910390f35b6103256004803603602081101561072457600080610721614dc4565b50505b810190602081018135600160201b81111561074757600080610744614dc4565b50505b8201836020820111156107625760008061075f614dc4565b50505b803590602001918460208302840111600160201b8311171561078c57600080610789614dc4565b50505b9190808060200260200160405190810160405280939291908181526020018383602002808284376000920191909152509295506122c8945050505050565b6102da6123a1565b610325600480360360408110156107f1576000806107ee614dc4565b50505b6001600160a01b038235169190810190604081016020820135600160201b81111561082457600080610821614dc4565b50505b82018360208201111561083f5760008061083c614dc4565b50505b803590602001918460018302840111600160201b8311171561086957600080610866614dc4565b50505b91908080601f01602080910402602001604051908101604052818152929190602084018383808284376000920191909152509295506123ae945050505050565b610975600480360360608110156108c8576000806108c5614dc4565b50505b810190602081018135600160201b8111156108eb576000806108e8614dc4565b50505b82018360208201111561090657600080610903614dc4565b50505b803590602001918460018302840111600160201b831117156109305760008061092d614dc4565b50505b91908080601f01602080910402602001604051908101604052818152929190602084018383808284376000920191909152509295505082359350505060200135612523565b6040516001600160e01b0319909116815260200160405180910390f35b6109c1600480360360208110156109b1576000806109ae614dc4565b50505b50356001600160a01b03166125ac565b60405191825260208201526040908101905180910390f35b610422600480360360208110156109f8576000806109f5614dc4565b50505b50356001600160a01b031661268b565b61032560048036036040811015610a2757600080610a24614dc4565b50505b506001600160a01b03813516906020013561297e565b61032560048036036020811015610a5c57600080610a59614dc4565b50505b810190602081018135600160201b811115610a7f57600080610a7c614dc4565b50505b820183602082011115610a9a57600080610a97614dc4565b50505b803590602001918460208302840111600160201b83111715610ac457600080610ac1614dc4565b50505b919080806020026020016040519081016040528093929190818152602001838360200280828437600092019190915250929550612cae945050505050565b6106f160048036036040811015610b2157600080610b1e614dc4565b50505b6001600160a01b038235169190810190604081016020820135600160201b811115610b5457600080610b51614dc4565b50505b820183602082011115610b6f57600080610b6c614dc4565b50505b803590602001918460018302840111600160201b83111715610b9957600080610b96614dc4565b50505b91908080601f0160208091040260200160405190810160405281815292919060208401838380828437600092019190915250929550612d77945050505050565b610422613365565b61032561336f565b6106f160048036036020811015610c0857600080610c05614dc4565b50505b50356001600160a01b0316613425565b61042260048036036040811015610c3757600080610c34614dc4565b50505b810190602081018135600160201b811115610c5a57600080610c57614dc4565b50505b820183602082011115610c7557600080610c72614dc4565b50505b803590602001918460018302840111600160201b83111715610c9f57600080610c9c614dc4565b50505b91908080601f01602080910402602001604051908101604052818152929190602084018383808284376000920191909152509295505050903560ff16915061344c9050565b610422613463565b6106f160048036036020811015610d0b57600080610d08614dc4565b50505b50356001600160a01b031661346d565b61042261353f565b61032560048036036020811015610d4257600080610d3f614dc4565b50505b50356001600160a01b0316613552565b61042260048036036040811015610d7157600080610d6e614dc4565b50505b810190602081018135600160201b811115610d9457600080610d91614dc4565b50505b820183602082011115610daf57600080610dac614dc4565b50505b803590602001918460018302840111600160201b83111715610dd957600080610dd6614dc4565b50505b91908080601f01602080910402602001604051908101604052818152929190602084018383808284376000920191909152509295505050903560ff1691506136719050565b610e2661369a565b60405160208082528190810183818151815260200191508051906020019060200280838360005b83811015610e65578082015183820152602001610e4d565b505050509050019250505060405180910390f35b610422613721565b61032560048036036020811015610ea057600080610e9d614dc4565b50505b50356001600160a01b031661372e565b6103256137bc565b6106f160048036036020811015610ed757600080610ed4614dc4565b50505b50356001600160a01b031661388b565b61097560048036036020811015610f0657600080610f03614dc4565b50505b810190602081018135600160201b811115610f2957600080610f26614dc4565b50505b820183602082011115610f4457600080610f41614dc4565b50505b803590602001918460018302840111600160201b83111715610f6e57600080610f6b614dc4565b50505b91908080601f01602080910402602001604051908101604052818152929190602084018383808284376000920191909152509295506138ab945050505050565b6102da6138ba565b6102da60048036036020811015610fd557600080610fd2614dc4565b50505b50356138c6565b61032560048036036020811015610ffb57600080610ff8614dc4565b50505b50356001600160a01b03166138f0565b6104226004803603602081101561102a57600080611027614dc4565b50505b50356001600160a01b031661398c565b610325600480360360a081101561105957600080611056614dc4565b50505b6001600160a01b038235811692602081013590911691810190606081016040820135600160201b81111561109557600080611092614dc4565b50505b8201836020820111156110b0576000806110ad614dc4565b50505b803590602001918460018302840111600160201b831117156110da576000806110d7614dc4565b50505b91908080601f016020809104026020016040519081016040528181529291906020840183838082843760009201919091525092956001600160a01b03853516959094909350604081019250602001359050600160201b81111561114557600080611142614dc4565b50505b8201836020820111156111605760008061115d614dc4565b50505b803590602001918460208302840111600160201b8311171561118a57600080611187614dc4565b50505b919080806020026020016040519081016040528093929190818152602001838360200280828437600092019190915250929550613a30945050505050565b610422600480360360208110156111e7576000806111e4614dc4565b50505b50356001600160a01b0316613c09565b6104226004803603606081101561121657600080611213614dc4565b50505b810190602081018135600160201b81111561123957600080611236614dc4565b50505b82018360208201111561125457600080611251614dc4565b50505b803590602001918460018302840111600160201b8311171561127e5760008061127b614dc4565b50505b91908080601f01602080910402602001604051908101604052818152929190602084018383808284376000920191909152509295505082359350505060200135613c1d565b610e26613ca1565b6109c1613d27565b6112db613d46565b60405180806020018060200180602001848103845287818151815260200191508051906020019060200280838360005b8381101561132357808201518382015260200161130b565b50505050905001848103835286818151815260200191508051906020019060200280838360005b8381101561136257808201518382015260200161134a565b50505050905001848103825285818151815260200191508051906020019060200280838360005b838110156113a1578082015183820152602001611389565b50505050905001965050505050505060405180910390f35b6113c1613fd3565b60405160208082528190810183818151815260200191508051906020019080838360005b838110156113fd5780820151838201526020016113e5565b50505050905090810190601f16801561142a5780820380516001836020036101000a031916815260200191505b509250505060405180910390f35b60006038611444614e2f565b906101000a90046001600160a01b031681565b60006039611463614e2f565b906101000a90046001600160a01b03166001600160a01b0316638da5cb5b6040518163ffffffff1660e01b815260040160206040518083038186806114a6614e8a565b1580156114bb576000806114b8614dc4565b50505b505a6114c5614ed6565b50505050501580156114e4573d6000803e3d60006114e1614dc4565b50505b505050506040513d602081101561150357600080611500614dc4565b50505b8101908080516001600160a01b0316925050505a61151f614fc1565b6001600160a01b0316148061155457506115376123a1565b6001600160a01b03165a611549614fc1565b6001600160a01b0316145b8061157f5750611562611ae6565b6001600160a01b03165a611574614fc1565b6001600160a01b0316145b6115d85760405162461bcd60e51b815260206004820152601b60248201527f6f6e6c79206d616e616765722c20747261646572206f722044414f00000000006044820152606401604051809103906115d5614dc4565b50505b6115e1816122a0565b6116305760405162461bcd60e51b8152602060048201526013602482015272185cdcd95d081b9bdd081cdd5c1c1bdc9d1959606a1b60448201526064016040518091039061162d614dc4565b50505b6001600160a01b0381166000908152603c60205260409020600090611653614e2f565b906101000a900460ff16156116b75760405162461bcd60e51b815260206004820152601f60248201527f63616e6e6f742072656d6f76652070657273697374656e7420617373657473006044820152606401604051809103906116b4614dc4565b50505b806001600160a01b03166370a082315a63996d79a5598160e01b8152602081600483336000905af158601d01573d60011458600c01573d6000803e3d621234565260ea61109c528051925060005b604081101561171c57600082820152602001611705565b5050506040516001600160e01b031960e084901b1681526001600160a01b0390911660048201526024016020604051808303818680611759614e8a565b15801561176e5760008061176b614dc4565b50505b505a611778614ed6565b5050505050158015611797573d6000803e3d6000611794614dc4565b50505b505050506040513d60208110156117b6576000806117b3614dc4565b50505b81019080805115925061181b9150505760405162461bcd60e51b815260206004820152601d60248201527f63616e6e6f742072656d6f7665206e6f6e2d656d707479206173736574000000604482015260640160405180910390611818614dc4565b50505b61182481614087565b50565b60006033611833614e2f565b906101000a90046001600160a01b03166001600160a01b03165a611855614fc1565b6001600160a01b0316148061189e575060006037611871614e2f565b906101000a90046001600160a01b03166001600160a01b03165a611893614fc1565b6001600160a01b0316145b6118f05760405162461bcd60e51b815260206004820152601660248201527537b7363c9036b0b730b3b2b91037b9103a3930b232b960511b6044820152606401604051809103906118ed614dc4565b50505b611824816142c9565b600080611911848460200260040160ff166020613c1d565b9050600061192485600484016020613c1d565b9050806119755760405162461bcd60e51b8152602060048201526012602482015271696e707574206973206e6f7420617272617960701b604482015260640160405180910390611972614dc4565b50505b611989856020808402850160040190613c1d565b925050505b92915050565b600060336119a0614e2f565b906101000a90046001600160a01b03166001600160a01b03165a6119c2614fc1565b6001600160a01b031614611a145760405162461bcd60e51b815260206004820152600c60248201526b37b7363c9036b0b730b3b2b960a11b604482015260640160405180910390611a11614dc4565b50505b611a1d8161388b565b611a2657611824565b611824816145ee565b60006039611a3b614e2f565b906101000a90046001600160a01b03166001600160a01b03165a611a5d614fc1565b6001600160a01b031614611ab05760405162461bcd60e51b815260206004820152600d60248201526c3737903832b936b4b9b9b4b7b760991b604482015260640160405180910390611aad614dc4565b50505b806038600181611abe614e2f565b816001600160a01b0302191690836001600160a01b0316021790611ae0615007565b50505050565b6000806037611af3614e2f565b906101000a90046001600160a01b0316905090565b805b919050565b6060806000603a80611b1f614e2f565b9050905060608167ffffffffffffffff81118015611b4557600080611b42614dc4565b50505b50604051908082528060200260200182016040528015611b6f578160200160208202803683370190505b50905060608267ffffffffffffffff81118015611b9457600080611b91614dc4565b50505b50604051908082528060200260200182016040528015611bbe578160200160208202803683370190505b5090506000806038611bce614e2f565b906101000a90046001600160a01b03166001600160a01b03166321f8a7216b53797374656d53746174757360a01b6040516001600160e01b031960e084901b16815260048101919091526024016020604051808303818680611c2e614e8a565b158015611c4357600080611c40614dc4565b50505b505a611c4d614ed6565b5050505050158015611c6c573d6000803e3d6000611c69614dc4565b50505b505050506040513d6020811015611c8b57600080611c88614dc4565b50505b81019080805193506000925050505b84811015611dc5576000603a8281611cb0614e2f565b8110611cb857fe5b90600052602060002001600090611ccd614e2f565b906101000a90046001600160a01b0316905080858381518110611cec57fe5b6001600160a01b03928316602091820292909201015283166342a28e21611d128361268b565b6040516001600160e01b031960e084901b16815260048101919091526024016000604051808303818680611d44614e8a565b158015611d5957600080611d56614dc4565b50505b505a611d63614ed6565b5050505050925050508015611d76575060015b611d9d576001848381518110611d8857fe5b91151560209283029190910190910152611dbc565b6000848381518110611dab57fe5b911515602092830291909101909101525b50600101611c9a565b50919450925050509091565b600080806039611ddf614e2f565b906101000a90046001600160a01b03166001600160a01b0316638b2f0f4f856040516001600160e01b031960e084901b1681526001600160a01b0390911660048201526024016020604051808303818680611e38614e8a565b158015611e4d57600080611e4a614dc4565b50505b505a611e57614ed6565b5050505050158015611e76573d6000803e3d6000611e73614dc4565b50505b505050506040513d6020811015611e9557600080611e92614dc4565b50505b8101908080519350611ebf9250670de0b6b3a76400009150611eb990508386614761565b906147c0565b949350505050565b603b6020528060005260406000209050611edf614e2f565b81565b600080806038611ef0614e2f565b906101000a90046001600160a01b03166001600160a01b03166321f8a721680a6f2dce8d0cae8d2f60bb1b6040516001600160e01b031960e084901b16815260048101919091526024016020604051808303818680611f4d614e8a565b158015611f6257600080611f5f614dc4565b50505b505a611f6c614ed6565b5050505050158015611f8b573d6000803e3d6000611f88614dc4565b50505b505050506040513d6020811015611faa57600080611fa7614dc4565b50505b8101908080516001600160a01b03169250633260803991508590506040516001600160e01b031960e084901b16815260048101919091526024016020604051808303818680611ff7614e8a565b15801561200c57600080612009614dc4565b50505b505a612016614ed6565b5050505050158015612035573d6000803e3d6000612032614dc4565b50505b505050506040513d602081101561205457600080612051614dc4565b50505b81019080805193505050506001600160a01b0381166120b05760405162461bcd60e51b815260206004820152600b60248201526a696e76616c6964206b657960a81b6044820152606401604051809103906120ad614dc4565b50505b6000816001600160a01b031663ec5568896040518163ffffffff1660e01b815260040160206040518083038186806120e6614e8a565b1580156120fb576000806120f8614dc4565b50505b505a612105614ed6565b5050505050158015612124573d6000803e3d6000612121614dc4565b50505b505050506040513d602081101561214357600080612140614dc4565b50505b81019080805193505050506001600160a01b0381166121a15760405162461bcd60e51b815260206004820152600d60248201526c696e76616c69642070726f787960981b60448201526064016040518091039061219e614dc4565b50505b9392505050565b6000806121c0858560200260040160ff166020613c1d565b905060006121d386600484016020613c1d565b9050806122245760405162461bcd60e51b8152602060048201526012602482015271696e707574206973206e6f7420617272617960701b604482015260640160405180910390612221614dc4565b50505b60ff8416811161227c5760405162461bcd60e51b815260206004820152601660248201527534b73b30b634b21030b93930bc903837b9b4ba34b7b760511b604482015260640160405180910390612279614dc4565b50505b612296866020600160ff8816018102850160040190613c1d565b9695505050505050565b6001600160a01b0381166000908152603b602052604081206122c0614e2f565b151592915050565b600060336122d4614e2f565b906101000a90046001600160a01b03166001600160a01b03165a6122f6614fc1565b6001600160a01b0316146123485760405162461bcd60e51b815260206004820152600c60248201526b37b7363c9036b0b730b3b2b960a11b604482015260640160405180910390612345614dc4565b50505b60005b815181101561239d5761237082828151811061236357fe5b602002602001015161388b565b61237957612395565b61239582828151811061238857fe5b60200260200101516145ee565b60010161234b565b5050565b6000806033611af3614e2f565b600060336123ba614e2f565b906101000a90046001600160a01b03166001600160a01b03165a6123dc614fc1565b6001600160a01b03161461242e5760405162461bcd60e51b815260206004820152600c60248201526b37b7363c9036b0b730b3b2b960a11b60448201526064016040518091039061242b614dc4565b50505b81603360018161243c614e2f565b816001600160a01b0302191690836001600160a01b031602179061245e615007565b505050806034908051612475929160200190615055565b507f6ed15082ad038474841528b5badca105106d4463e44b5d434130dfb299aa366982826040516001600160a01b038316815260406020820181815290820183818151815260200191508051906020019080838360005b838110156124e45780820151838201526020016124cc565b50505050905090810190601f1680156125115780820380516001836020036101000a031916815260200191505b50935050505060405180910390a15050565b6000818301845110156125855760405162461bcd60e51b815260206004820152601b60248201527f52656164696e67206279746573206f7574206f6620626f756e64730000000000604482015260640160405180910390612582614dc4565b50505b8260200184015190508160040380156125a4576008810260020a820491505b509392505050565b6000808060396125ba614e2f565b906101000a90046001600160a01b03166001600160a01b031663b7a54526846040516001600160e01b031960e084901b1681526001600160a01b03909116600482015260240160408051808303818680612612614e8a565b15801561262757600080612624614dc4565b50505b505a612631614ed6565b5050505050158015612650573d6000803e3d600061264d614dc4565b50505b505050506040513d604081101561266f5760008061266c614dc4565b50505b8101908080519291906020018051939550929350505050915091565b600061269f826001600160a01b0316614800565b6126e85760405162461bcd60e51b815260206004820152600d60248201526c1a5b9d985b1a5908185cdcd95d609a1b6044820152606401604051809103906126e5614dc4565b50505b816001600160a01b031663d4b839926040518163ffffffff1660e01b8152600401602060405180830381868061271c614e8a565b1580156127315760008061272e614dc4565b50505b505a61273b614ed6565b505050505092505050801561277457506040513d602081101561276657600080612763614dc4565b50505b810190808051925060019150505b6127f4573d8080156127a2576040513d603f01601f191681016040523d815291503d6000602084013e6127a7565b606091505b5060405162461bcd60e51b815260206004820152600f60248201526e1b9bdb8b5cde5b9d1a08185cdcd95d608a1b6044820152606401604051809103906127ec614dc4565b505050611b0a565b60006038612800614e2f565b906101000a90046001600160a01b03166001600160a01b03166321f8a721680a6f2dce8d0cae8d2f60bb1b6040516001600160e01b031960e084901b1681526004810191909152602401602060405180830381868061285d614e8a565b1580156128725760008061286f614dc4565b50505b505a61287c614ed6565b505050505015801561289b573d6000803e3d6000612898614dc4565b50505b505050506040513d60208110156128ba576000806128b7614dc4565b50505b8101908080516001600160a01b031692506316b2213f91508390506040516001600160e01b031960e084901b1681526001600160a01b039091166004820152602401602060405180830381868061290f614e8a565b15801561292457600080612921614dc4565b50505b505a61292e614ed6565b505050505015801561294d573d6000803e3d600061294a614dc4565b50505b505050506040513d602081101561296c57600080612969614dc4565b50505b8101908080519450611b0a9350505050565b6000603361298a614e2f565b906101000a90046001600160a01b03166001600160a01b03165a6129ac614fc1565b6001600160a01b0316146129fe5760405162461bcd60e51b815260206004820152600c60248201526b37b7363c9036b0b730b3b2b960a11b6044820152606401604051809103906129fb614dc4565b50505b6000806039612a0b614e2f565b906101000a90046001600160a01b03166001600160a01b0316635c9bfc2b6040518163ffffffff1660e01b81526004016020604051808303818680612a4e614e8a565b158015612a6357600080612a60614dc4565b50505b505a612a6d614ed6565b5050505050158015612a8c573d6000803e3d6000612a89614dc4565b50505b505050506040513d6020811015612aab57600080612aa8614dc4565b50505b810190808051935060009250829150612ac59050856125ac565b909250905080841115612b1a5760405162461bcd60e51b815260206004820152601060248201526f34b73b30b634b210333930b1ba34b7b760811b604482015260640160405180910390612b17614dc4565b50505b612b248284614843565b841115612b805760405162461bcd60e51b815260206004820152601960248201527f657863656564656420616c6c6f77656420696e63726561736500000000000000604482015260640160405180910390612b7d614dc4565b50505b6000806039612b8d614e2f565b906101000a90046001600160a01b03166001600160a01b031663ebee461d6040518163ffffffff1660e01b81526004016020604051808303818680612bd0614e8a565b158015612be557600080612be2614dc4565b50505b505a612bef614ed6565b5050505050158015612c0e573d6000803e3d6000612c0b614dc4565b50505b505050506040513d6020811015612c2d57600080612c2a614dc4565b50505b8101908080519350879250829150603d9050612c47615007565b505050805a612c546150f5565b0180603e612c60615007565b5050507f4db9119741646c419f1ceccdf112b5b9a9b4516355e742e1fa9c479f4dec98da85603e612c8f614e2f565b60405191825260208201526040908101905180910390a1505050505050565b60006033612cba614e2f565b906101000a90046001600160a01b03166001600160a01b03165a612cdc614fc1565b6001600160a01b031614612d2e5760405162461bcd60e51b815260206004820152600c60248201526b37b7363c9036b0b730b3b2b960a11b604482015260640160405180910390612d2b614dc4565b50505b60005b815181101561239d57612d4982828151811061236357fe5b15612d5357612d6f565b612d6f828281518110612d6257fe5b60200260200101516148a2565b600101612d31565b6000806033612d84614e2f565b906101000a90046001600160a01b03166001600160a01b03165a612da6614fc1565b6001600160a01b03161480612def575060006037612dc2614e2f565b906101000a90046001600160a01b03166001600160a01b03165a612de4614fc1565b6001600160a01b0316145b612e415760405162461bcd60e51b815260206004820152601660248201527537b7363c9036b0b730b3b2b91037b9103a3930b232b960511b604482015260640160405180910390612e3e614dc4565b50505b6001600160a01b038316612ea45760405162461bcd60e51b815260206004820152601c60248201527f6e6f6e2d7a65726f206164647265737320697320726571756972656400000000604482015260640160405180910390612ea1614dc4565b50505b6000806039612eb1614e2f565b906101000a90046001600160a01b03166001600160a01b0316637027ea6c856040516001600160e01b031960e084901b1681526001600160a01b0390911660048201526024016020604051808303818680612f0a614e8a565b158015612f1f57600080612f1c614dc4565b50505b505a612f29614ed6565b5050505050158015612f48573d6000803e3d6000612f45614dc4565b50505b505050506040513d6020811015612f6757600080612f64614dc4565b50505b81019080805193505050506001600160a01b038116612fcb5760405162461bcd60e51b815260206004820152601360248201527234b73b30b634b2103232b9ba34b730ba34b7b760691b604482015260640160405180910390612fc8614dc4565b50505b806001600160a01b031663e23ff4375a63996d79a5598160e01b8152602081600483336000905af158601d01573d60011458600c01573d6000803e3d621234565260ea61109c528051925060005b604081101561303057600082820152602001613019565b505050856040518363ffffffff1660e01b815260040180836001600160a01b0316815260200180602001828103825283818151815260200191508051906020019080838360005b8381101561308f578082015183820152602001613077565b50505050905090810190601f1680156130bc5780820380516001836020036101000a031916815260200191505b509350505050602060405180830381600087806130d7614e8a565b1580156130ec576000806130e9614dc4565b50505b505a6130f661513b565b505050505050158015613116573d6000803e3d6000613113614dc4565b50505b505050506040513d602081101561313557600080613132614dc4565b50505b810190808051925061318f9150505760405162461bcd60e51b815260206004820152601360248201527234b73b30b634b2103a3930b739b0b1ba34b7b760691b60448201526064016040518091039061318c614dc4565b50505b6000846001600160a01b0316846040518082805190602001908083835b602083106131cb5780518252601f1990920191602091820191016131ac565b6001836020036101000a0380198251168184511680821785525050505050509050019150506000604051808303816000865a61320561513b565b5050505050509150503d806000811461323a576040513d603f01601f191681016040523d815291503d6000602084013e61323f565b606091505b50909150506001811515146132a35760405162461bcd60e51b815260206004820152601a60248201527f6661696c656420746f2065786563757465207468652063616c6c0000000000006044820152606401604051809103906132a0614dc4565b50505b7f508f3afa87f72dce865a2321107666b28ac822c23a8c0555fbeb3424cf3de5635a63996d79a5598160e01b8152602081600483336000905af158601d01573d60011458600c01573d6000803e3d621234565260ea61109c528051925060005b604081101561331a57600082820152602001613303565b5050506133256123a1565b5a61332e6150f5565b6040516001600160a01b039384168152919092166020820152604080820192909252606001905180910390a1506001949350505050565b603e611edf614e2f565b6000603361337b614e2f565b906101000a90046001600160a01b03166001600160a01b03165a61339d614fc1565b6001600160a01b0316146133ef5760405162461bcd60e51b815260206004820152600c60248201526b37b7363c9036b0b730b3b2b960a11b6044820152606401604051809103906133ec614dc4565b50505b600060376001816133fe614e2f565b816001600160a01b0302191690836001600160a01b0316021790613420615007565b505050565b603c6020528060005260406000206000915061343f614e2f565b906101000a900460ff1681565b60006121a1838360200260040160ff166020613c1d565b603d611edf614e2f565b600080603961347a614e2f565b906101000a90046001600160a01b03166001600160a01b031663cc435bf3836040516001600160e01b031960e084901b1681526001600160a01b03909116600482015260240160206040518083038186806134d3614e8a565b1580156134e8576000806134e5614dc4565b50505b505a6134f2614ed6565b5050505050158015613511573d6000803e3d600061350e614dc4565b50505b505050506040513d60208110156135305760008061352d614dc4565b50505b81019080805195945050505050565b6000603a8061354c614e2f565b91505090565b6000603361355e614e2f565b906101000a90046001600160a01b03166001600160a01b03165a613580614fc1565b6001600160a01b0316146135d25760405162461bcd60e51b815260206004820152600c60248201526b37b7363c9036b0b730b3b2b960a11b6044820152606401604051809103906135cf614dc4565b50505b603e6135dc614e2f565b5a6135e56150f5565b10156136405760405162461bcd60e51b815260206004820152601960248201527f66656520696e6372656173652064656c6179206163746976650000000000000060448201526064016040518091039061363d614dc4565b50505b61365381603d61364e614e2f565b61492e565b600080603d613660615007565b5050506000603e8190611ae0615007565b600080613689848460200260040160ff166020613c1d565b9050611ebf84600483016020613c1d565b60606035806136a7614e2f565b8060200260200160405190810160405281815291906020830182806136ca614e2f565b801561371757602002820191906000526020600020905b6000826136ec614e2f565b906101000a90046001600160a01b03166001600160a01b0316815260200190600101908083116136e1575b5050505050905090565b600060358061354c614e2f565b6000603361373a614e2f565b906101000a90046001600160a01b03166001600160a01b03165a61375c614fc1565b6001600160a01b0316146137ae5760405162461bcd60e51b815260206004820152600c60248201526b37b7363c9036b0b730b3b2b960a11b6044820152606401604051809103906137ab614dc4565b50505b806037600181611abe614e2f565b600060336137c8614e2f565b906101000a90046001600160a01b03166001600160a01b03165a6137ea614fc1565b6001600160a01b03161461383c5760405162461bcd60e51b815260206004820152600c60248201526b37b7363c9036b0b730b3b2b960a11b604482015260640160405180910390613839614dc4565b50505b600080603d613849615007565b5050506000603e819061385a615007565b5050507fc6f04bf43cbdf1ba5d51b4afa160bb3c7e13858b1409aa32868b239bb2f8d84960405160405180910390a1565b6001600160a01b03811660009081526036602052604081206122c0614e2f565b600061198e8260006004612523565b60006039611444614e2f565b603a81816138d2614e2f565b81106138da57fe5b9060005260206000200160009150611444614e2f565b600060336138fc614e2f565b906101000a90046001600160a01b03166001600160a01b03165a61391e614fc1565b6001600160a01b0316146139705760405162461bcd60e51b815260206004820152600c60248201526b37b7363c9036b0b730b3b2b960a11b60448201526064016040518091039061396d614dc4565b50505b6139798161388b565b1561398357611824565b611824816148a2565b6000816001600160a01b03166370a082315a63996d79a5598160e01b8152602081600483336000905af158601d01573d60011458600c01573d6000803e3d621234565260ea61109c528051925060005b60408110156139f3576000828201526020016139dc565b5050506040516001600160e01b031960e084901b1681526001600160a01b03909116600482015260240160206040518083038186806134d3614e8a565b60016000613a3c614e2f565b906101000a900460ff1680613a545750613a54614b81565b80613a715750600080613a65614e2f565b906101000a900460ff16155b613ab55760405162461bcd60e51b815260040180806020018281038252602e81526020018061528e602e913960400191505060405180910390613ab2614dc4565b50505b6000600181613ac2614e2f565b906101000a900460ff161590508015613b28576001600061010081613ae5614e2f565b8160ff02191690831515021790613afa615007565b50505060016000806101000a81613b0f614e2f565b8160ff02191690831515021790613b24615007565b5050505b613b328585614bf2565b856039600181613b40614e2f565b816001600160a01b0302191690836001600160a01b0316021790613b62615007565b50505082603860006101000a81613b77614e2f565b816001600160a01b0302191690836001600160a01b0316021790613b99615007565b50505060005b82518160ff161015613bd257613bca838260ff1681518110613bbd57fe5b60200260200101516142c9565b600101613b9f565b508015613c015760008061010081613be8614e2f565b8160ff02191690831515021790613bfd615007565b5050505b505050505050565b600061198e82613c188461398c565b611dd1565b600081830184511015613c7f5760405162461bcd60e51b815260206004820152601b60248201527f52656164696e67206279746573206f7574206f6620626f756e64730000000000604482015260640160405180910390613c7c614dc4565b50505b8260200184015190508160200380156125a45760080260020a90049392505050565b6060603a80613cae614e2f565b806020026020016040519081016040528181529190602083018280613cd1614e2f565b801561371757602002820191906000526020600020905b600082613cf3614e2f565b906101000a90046001600160a01b03166001600160a01b031681526020019060010190808311613ce8575050505050905090565b600080603d613d34614e2f565b603e613d3e614e2f565b915091509091565b60608060606000603a80613d58614e2f565b9050905060608167ffffffffffffffff81118015613d7e57600080613d7b614dc4565b50505b50604051908082528060200260200182016040528015613da8578160200160208202803683370190505b50905060608267ffffffffffffffff81118015613dcd57600080613dca614dc4565b50505b50604051908082528060200260200182016040528015613df7578160200160208202803683370190505b50905060608367ffffffffffffffff81118015613e1c57600080613e19614dc4565b50505b50604051908082528060200260200182016040528015613e46578160200160208202803683370190505b50905060005b84811015613fc5576000603a8281613e62614e2f565b8110613e6a57fe5b90600052602060002001600090613e7f614e2f565b906101000a90046001600160a01b03169050613e9a8161398c565b848381518110613ea657fe5b60200260200101818152505080858381518110613ebf57fe5b6001600160a01b039092166020928302919091019091015260006039613ee3614e2f565b906101000a90046001600160a01b03166001600160a01b0316638b2f0f4f826040516001600160e01b031960e084901b1681526001600160a01b0390911660048201526024016020604051808303818680613f3c614e8a565b158015613f5157600080613f4e614dc4565b50505b505a613f5b614ed6565b5050505050158015613f7a573d6000803e3d6000613f77614dc4565b50505b505050506040513d6020811015613f9957600080613f96614dc4565b50505b810190808051925085915084905081518110613fb157fe5b602090810291909101015250600101613e4c565b509195509350915050909192565b6060603480613fe0614e2f565b600181600116156101000203166002900480601f01602080910402602001604051908101604052818152919060208301828061401a614e2f565b600181600116156101000203166002900480156137175780601f10614054576101008083614046614e2f565b040283529160200191613717565b820191906000526020600020905b8161406b614e2f565b8152906001019060200180831161406257509395945050505050565b6000603a80614094614e2f565b6001600160a01b0384166000908152603b60205290925090506140c46001604083206140be614e2f565b90614c39565b90506000603a6140d5846001614c39565b816140de614e2f565b81106140e657fe5b906000526020600020016000906140fb614e2f565b906101000a90046001600160a01b0316905080603a838161411a614e2f565b811061412257fe5b90600052602060002001600181614137614e2f565b816001600160a01b0302191690836001600160a01b0316021790614159615007565b5061416991508390506001614843565b6001600160a01b0382166000908152603b60205260409020819061418b615007565b5050506001600160a01b0384166000908152603b6020526040812081906141b0615007565b505050603a806141be614e2f565b806141c557fe5b600190038181906000526020600020016001816141e0614e2f565b906001600160a01b03021916906141f5615007565b505090614200615007565b50507f9b4f55639e5e283319baee5bc4e69a5625a8e3a1cc004af968f4fee7250220275a63996d79a5598160e01b8152602081600483336000905af158601d01573d60011458600c01573d6000803e3d621234565260ea61109c528051925060005b604081101561427957600082820152602001614262565b5050506142846123a1565b8660405180846001600160a01b03168152602001836001600160a01b03168152602001826001600160a01b03168152602001935050505060405180910390a150505050565b600060396142d5614e2f565b906101000a90046001600160a01b03166001600160a01b031663aa12ae4d6040518163ffffffff1660e01b81526004016020604051808303818680614318614e8a565b15801561432d5760008061432a614dc4565b50505b505a614337614ed6565b5050505050158015614356573d6000803e3d6000614353614dc4565b50505b505050506040513d602081101561437557600080614372614dc4565b50505b8101908080519250603a915081905061438c614e2f565b9050106143e15760405162461bcd60e51b81526020600482015260166024820152751b585e1a5b5d5b48185cdcd95d1cc81c995858da195960521b6044820152606401604051809103906143de614dc4565b50505b6143ea816122a0565b156144445760405162461bcd60e51b815260206004820152601760248201527f617373657420616c726561647920737570706f72746564000000000000000000604482015260640160405180910390614441614dc4565b50505b61444d8161346d565b151560011461449b5760405162461bcd60e51b815260206004820152600d60248201526c1a5b9d985b1a5908185cdcd95d609a1b604482015260640160405180910390614498614dc4565b50505b80603a806001816144aa614e2f565b0180826144b5615007565b5050600092835260001901916020915020016001816144d2614e2f565b816001600160a01b0302191690836001600160a01b03160217906144f4615007565b505050603a80614502614e2f565b6001600160a01b0383166000908152603b602052909150604090208190614527615007565b5050507f0a7426a0630aad7dbc4d5ca5b7d9aac1133d77d2db987caaf4b4186c85d6593f5a63996d79a5598160e01b8152602081600483336000905af158601d01573d60011458600c01573d6000803e3d621234565260ea61109c528051925060005b60408110156145a15760008282015260200161458a565b5050506145ac6123a1565b8360405180846001600160a01b03168152602001836001600160a01b03168152602001826001600160a01b03168152602001935050505060405180910390a150565b60006035806145fb614e2f565b6001600160a01b0384166000908152603660205290925090506146256001604083206140be614e2f565b905060006035614636846001614c39565b8161463f614e2f565b811061464757fe5b9060005260206000200160009061465c614e2f565b906101000a90046001600160a01b03169050806035838161467b614e2f565b811061468357fe5b90600052602060002001600181614698614e2f565b816001600160a01b0302191690836001600160a01b03160217906146ba615007565b506146ca91508390506001614843565b6001600160a01b038216600090815260366020526040902081906146ec615007565b5050506001600160a01b03841660009081526036602052604081208190614711615007565b50505060358061471f614e2f565b8061472657fe5b60019003818190600052602060002001600181614741614e2f565b906001600160a01b0302191690614756615007565b505090613c01615007565b6000826147705750600061198e565b8282028284828161477d57fe5b04146121a15760405162461bcd60e51b815260040180806020018281038252602181526020018061526d602191396040019150506040518091039061219e614dc4565b60006121a1838360405160408082019052601a81527f536166654d6174683a206469766973696f6e206279207a65726f0000000000006020820152614c79565b6000807fc5d2460186f7233c927e7db2dcc703c0e500b653ca82273b7bfad8045d85a4708361482d615201565b9150808214158015611ebf575050151592915050565b6000828201838110156121a15760405162461bcd60e51b815260206004820152601b60248201527f536166654d6174683a206164646974696f6e206f766572666c6f77000000000060448201526064016040518091039061219e614dc4565b806035806001816148b1614e2f565b0180826148bc615007565b5050600092835260001901916020915020016001816148d9614e2f565b816001600160a01b0302191690836001600160a01b03160217906148fb615007565b505050603580614909614e2f565b6001600160a01b03831660009081526036602052909150604090208190611ae0615007565b6000603961493a614e2f565b906101000a90046001600160a01b03166001600160a01b031663046b72c483836040516001600160e01b031960e085901b1681526001600160a01b03909216600483015260248201526044016000604051808303816000878061499b614e8a565b1580156149b0576000806149ad614dc4565b50505b505a6149ba61513b565b5050505050501580156149da573d6000803e3d60006149d7614dc4565b50505b5050505060008060396000906149ee614e2f565b906101000a90046001600160a01b03166001600160a01b031663b7a54526856040516001600160e01b031960e084901b1681526001600160a01b03909116600482015260240160408051808303818680614a46614e8a565b158015614a5b57600080614a58614dc4565b50505b505a614a65614ed6565b5050505050158015614a84573d6000803e3d6000614a81614dc4565b50505b505050506040513d6040811015614aa357600080614aa0614dc4565b50505b81019080805192919060200180519395509293507f1780c04ddc6f0b32d866c7a3d7583f53515ef49ed2126af868f804f491601266925050505a63996d79a5598160e01b8152602081600483336000905af158601d01573d60011458600c01573d6000803e3d621234565260ea61109c528051925060005b6040811015614b3257600082820152602001614b1b565b505050614b3d6123a1565b848460405180856001600160a01b03168152602001846001600160a01b0316815260200183815260200182815260200194505050505060405180910390a150505050565b6000805a63996d79a5598160e01b8152602081600483336000905af158601d01573d60011458600c01573d6000803e3d621234565260ea61109c528051925060005b6040811015614bda57600082820152602001614bc3565b5050509050600081614bea614e8a565b159250505090565b816033600181614c00614e2f565b816001600160a01b0302191690836001600160a01b0316021790614c22615007565b505050806034908051613420929160200190615055565b60006121a1838360405160408082019052601e81527f536166654d6174683a207375627472616374696f6e206f766572666c6f7700006020820152614d24565b60008183614d0e5760405162461bcd60e51b81526004018080602001828103825283818151815260200191508051906020019080838360005b83811015614cca578082015183820152602001614cb2565b50505050905090810190601f168015614cf75780820380516001836020036101000a031916815260200191505b509250505060405180910390614d0b614dc4565b50505b506000838581614d1a57fe5b0495945050505050565b60008184841115614dbc5760405162461bcd60e51b81526004018080602001828103825283818151815260200191508051906020019080838360005b83811015614d78578082015183820152602001614d60565b50505050905090810190601f168015614da55780820380516001836020036101000a031916815260200191505b509250505060405180910390614db9614dc4565b50505b505050900390565b632a2a7adb598160e01b8152600481016020815285602082015260005b86811015614dfc578086015182820160400152602001614de1565b506020828760640184336000905af158601d01573d60011458600c01573d6000803e3d621234565260ea61109c52505050565b6303daa959598160e01b8152836004820152602081602483336000905af158601d01573d60011458600c01573d6000803e3d621234565260ea61109c528051935060005b604081101561342057600082820152602001614e73565b638435035b598160e01b8152836004820152602081602483336000905af158601d01573d60011458600c01573d6000803e3d621234565260ea61109c5280516000825293506020614e73565b638540661f598160e01b8152614f07565b808083111561198e575090919050565b808083101561198e575090919050565b836004820152846024820152606060448201528660648201526084810160005b88811015614f3f578088015182820152602001614f27565b506060828960a40184336000905af158601d01573d60011458600c01573d6000803e3d621234565260ea61109c52815160408301513d6000853e8b8b82606087013350600060045af15059614f948d3d614ef7565b8c01614fa08187614ee7565b5b82811015614fb55760008152602001614fa1565b50929c50505050505050565b6373509064598160e01b8152602081600483336000905af158601d01573d60011458600c01573d6000803e3d621234565260ea61109c5280516000825293506020614e73565b6322bd64c0598160e01b8152836004820152846024820152600081604483336000905af158601d01573d60011458600c01573d6000803e3d621234565260ea61109c52600081526020614e73565b828061505f614e2f565b600181600116156101000203166002900490600052602060002090601f016020900481019282601f106150a657805160ff1916838001178561509f615007565b50506150e5565b828001600101856150b5615007565b505082156150e5579182015b828111156150e5578251826150d4615007565b5050916020019190600101906150c1565b506150f192915061524d565b5090565b63bdbf8c36598160e01b8152602081600483336000905af158601d01573d60011458600c01573d6000803e3d621234565260ea61109c5280516000825293506020614e73565b6385979f76598160e01b8152836004820152846024820152606060448201528760648201526084810160005b8981101561517f578089015182820152602001615167565b506060828a60a40184336000905af158601d01573d60011458600c01573d6000803e3d621234565260ea61109c52815160408301513d6000853e8c8c82606087013350600060045af150596151d48e3d614ef7565b8d016151e08187614ee7565b5b828110156151f557600081526020016151e1565b50929d50505050505050565b6324749d5c598160e01b8152836004820152602081602483336000905af158601d01573d60011458600c01573d6000803e3d621234565260ea61109c5280516000825293506020614e73565b808211156150f15760008082615261615007565b50505060010161524d56fe536166654d6174683a206d756c7469706c69636174696f6e206f766572666c6f77436f6e747261637420696e7374616e63652068617320616c7265616479206265656e20696e697469616c697a6564",
  "linkReferences": {},
  "deployedLinkReferences": {}
}