{
  "_format": "hh-sol-artifact-1",
  "contractName": "PoolManagerLogic",
  "sourceName": "contracts/PoolManagerLogic.sol",
  "abi": [
    {
      "anonymous": false,
      "inputs": [
        {
          "indexed": false,
          "internalType": "address",
          "name": "fundAddress",
          "type": "address"
        },
        {
          "indexed": false,
          "internalType": "address",
          "name": "manager",
          "type": "address"
        },
        {
          "indexed": false,
          "internalType": "address",
          "name": "asset",
          "type": "address"
        }
      ],
      "name": "AssetAdded",
      "type": "event"
    },
    {
      "anonymous": false,
      "inputs": [
        {
          "indexed": false,
          "internalType": "address",
          "name": "fundAddress",
          "type": "address"
        },
        {
          "indexed": false,
          "internalType": "address",
          "name": "manager",
          "type": "address"
        },
        {
          "indexed": false,
          "internalType": "address",
          "name": "asset",
          "type": "address"
        }
      ],
      "name": "AssetRemoved",
      "type": "event"
    },
    {
      "anonymous": false,
      "inputs": [
        {
          "indexed": false,
          "internalType": "uint256",
          "name": "newNumerator",
          "type": "uint256"
        },
        {
          "indexed": false,
          "internalType": "uint256",
          "name": "announcedFeeActivationTime",
          "type": "uint256"
        }
      ],
      "name": "ManagerFeeIncreaseAnnounced",
      "type": "event"
    },
    {
      "anonymous": false,
      "inputs": [],
      "name": "ManagerFeeIncreaseRenounced",
      "type": "event"
    },
    {
      "anonymous": false,
      "inputs": [
        {
          "indexed": false,
          "internalType": "address",
          "name": "fundAddress",
          "type": "address"
        },
        {
          "indexed": false,
          "internalType": "address",
          "name": "manager",
          "type": "address"
        },
        {
          "indexed": false,
          "internalType": "uint256",
          "name": "numerator",
          "type": "uint256"
        },
        {
          "indexed": false,
          "internalType": "uint256",
          "name": "denominator",
          "type": "uint256"
        }
      ],
      "name": "ManagerFeeSet",
      "type": "event"
    },
    {
      "anonymous": false,
      "inputs": [
        {
          "indexed": false,
          "internalType": "address",
          "name": "newManager",
          "type": "address"
        },
        {
          "indexed": false,
          "internalType": "string",
          "name": "newManagerName",
          "type": "string"
        }
      ],
      "name": "ManagerUpdated",
      "type": "event"
    },
    {
      "anonymous": false,
      "inputs": [
        {
          "indexed": false,
          "internalType": "address",
          "name": "fundAddress",
          "type": "address"
        },
        {
          "indexed": false,
          "internalType": "address",
          "name": "manager",
          "type": "address"
        },
        {
          "indexed": false,
          "internalType": "uint256",
          "name": "time",
          "type": "uint256"
        }
      ],
      "name": "TransactionExecuted",
      "type": "event"
    },
    {
      "inputs": [
        {
          "internalType": "address",
          "name": "member",
          "type": "address"
        }
      ],
      "name": "addMember",
      "outputs": [],
      "stateMutability": "nonpayable",
      "type": "function"
    },
    {
      "inputs": [
        {
          "internalType": "address[]",
          "name": "members",
          "type": "address[]"
        }
      ],
      "name": "addMembers",
      "outputs": [],
      "stateMutability": "nonpayable",
      "type": "function"
    },
    {
      "inputs": [
        {
          "internalType": "address",
          "name": "asset",
          "type": "address"
        }
      ],
      "name": "addToSupportedAssets",
      "outputs": [],
      "stateMutability": "nonpayable",
      "type": "function"
    },
    {
      "inputs": [],
      "name": "addressResolver",
      "outputs": [
        {
          "internalType": "contract IAddressResolver",
          "name": "",
          "type": "address"
        }
      ],
      "stateMutability": "view",
      "type": "function"
    },
    {
      "inputs": [
        {
          "internalType": "address",
          "name": "pool",
          "type": "address"
        },
        {
          "internalType": "uint256",
          "name": "numerator",
          "type": "uint256"
        }
      ],
      "name": "announceManagerFeeIncrease",
      "outputs": [],
      "stateMutability": "nonpayable",
      "type": "function"
    },
    {
      "inputs": [],
      "name": "announcedFeeIncreaseNumerator",
      "outputs": [
        {
          "internalType": "uint256",
          "name": "",
          "type": "uint256"
        }
      ],
      "stateMutability": "view",
      "type": "function"
    },
    {
      "inputs": [],
      "name": "announcedFeeIncreaseTimestamp",
      "outputs": [
        {
          "internalType": "uint256",
          "name": "",
          "type": "uint256"
        }
      ],
      "stateMutability": "view",
      "type": "function"
    },
    {
      "inputs": [
        {
          "internalType": "address",
          "name": "asset",
          "type": "address"
        }
      ],
      "name": "assetBalance",
      "outputs": [
        {
          "internalType": "uint256",
          "name": "",
          "type": "uint256"
        }
      ],
      "stateMutability": "view",
      "type": "function"
    },
    {
      "inputs": [
        {
          "internalType": "address",
          "name": "",
          "type": "address"
        }
      ],
      "name": "assetPosition",
      "outputs": [
        {
          "internalType": "uint256",
          "name": "",
          "type": "uint256"
        }
      ],
      "stateMutability": "view",
      "type": "function"
    },
    {
      "inputs": [
        {
          "internalType": "address",
          "name": "asset",
          "type": "address"
        },
        {
          "internalType": "uint256",
          "name": "amount",
          "type": "uint256"
        }
      ],
      "name": "assetValue",
      "outputs": [
        {
          "internalType": "uint256",
          "name": "",
          "type": "uint256"
        }
      ],
      "stateMutability": "view",
      "type": "function"
    },
    {
      "inputs": [
        {
          "internalType": "address",
          "name": "asset",
          "type": "address"
        }
      ],
      "name": "assetValue",
      "outputs": [
        {
          "internalType": "uint256",
          "name": "",
          "type": "uint256"
        }
      ],
      "stateMutability": "view",
      "type": "function"
    },
    {
      "inputs": [
        {
          "internalType": "address",
          "name": "newManager",
          "type": "address"
        },
        {
          "internalType": "string",
          "name": "newManagerName",
          "type": "string"
        }
      ],
      "name": "changeManager",
      "outputs": [],
      "stateMutability": "nonpayable",
      "type": "function"
    },
    {
      "inputs": [
        {
          "internalType": "address",
          "name": "pool",
          "type": "address"
        }
      ],
      "name": "commitManagerFeeIncrease",
      "outputs": [],
      "stateMutability": "nonpayable",
      "type": "function"
    },
    {
      "inputs": [
        {
          "internalType": "bytes32",
          "name": "data",
          "type": "bytes32"
        }
      ],
      "name": "convert32toAddress",
      "outputs": [
        {
          "internalType": "address",
          "name": "o",
          "type": "address"
        }
      ],
      "stateMutability": "pure",
      "type": "function"
    },
    {
      "inputs": [
        {
          "internalType": "address",
          "name": "to",
          "type": "address"
        },
        {
          "internalType": "bytes",
          "name": "data",
          "type": "bytes"
        }
      ],
      "name": "execTransaction",
      "outputs": [
        {
          "internalType": "bool",
          "name": "",
          "type": "bool"
        }
      ],
      "stateMutability": "nonpayable",
      "type": "function"
    },
    {
      "inputs": [],
      "name": "factory",
      "outputs": [
        {
          "internalType": "address",
          "name": "",
          "type": "address"
        }
      ],
      "stateMutability": "view",
      "type": "function"
    },
    {
      "inputs": [
        {
          "internalType": "bytes",
          "name": "data",
          "type": "bytes"
        },
        {
          "internalType": "uint8",
          "name": "inputNum",
          "type": "uint8"
        },
        {
          "internalType": "uint8",
          "name": "arrayIndex",
          "type": "uint8"
        }
      ],
      "name": "getArrayIndex",
      "outputs": [
        {
          "internalType": "bytes32",
          "name": "",
          "type": "bytes32"
        }
      ],
      "stateMutability": "pure",
      "type": "function"
    },
    {
      "inputs": [
        {
          "internalType": "bytes",
          "name": "data",
          "type": "bytes"
        },
        {
          "internalType": "uint8",
          "name": "inputNum",
          "type": "uint8"
        }
      ],
      "name": "getArrayLast",
      "outputs": [
        {
          "internalType": "bytes32",
          "name": "",
          "type": "bytes32"
        }
      ],
      "stateMutability": "pure",
      "type": "function"
    },
    {
      "inputs": [
        {
          "internalType": "bytes",
          "name": "data",
          "type": "bytes"
        },
        {
          "internalType": "uint8",
          "name": "inputNum",
          "type": "uint8"
        }
      ],
      "name": "getArrayLength",
      "outputs": [
        {
          "internalType": "uint256",
          "name": "",
          "type": "uint256"
        }
      ],
      "stateMutability": "pure",
      "type": "function"
    },
    {
      "inputs": [
        {
          "internalType": "bytes32",
          "name": "key",
          "type": "bytes32"
        }
      ],
      "name": "getAssetProxy",
      "outputs": [
        {
          "internalType": "address",
          "name": "",
          "type": "address"
        }
      ],
      "stateMutability": "view",
      "type": "function"
    },
    {
      "inputs": [],
      "name": "getFundComposition",
      "outputs": [
        {
          "internalType": "address[]",
          "name": "",
          "type": "address[]"
        },
        {
          "internalType": "uint256[]",
          "name": "",
          "type": "uint256[]"
        },
        {
          "internalType": "uint256[]",
          "name": "",
          "type": "uint256[]"
        }
      ],
      "stateMutability": "view",
      "type": "function"
    },
    {
      "inputs": [
        {
          "internalType": "bytes",
          "name": "data",
          "type": "bytes"
        },
        {
          "internalType": "uint8",
          "name": "inputNum",
          "type": "uint8"
        }
      ],
      "name": "getInput",
      "outputs": [
        {
          "internalType": "bytes32",
          "name": "",
          "type": "bytes32"
        }
      ],
      "stateMutability": "pure",
      "type": "function"
    },
    {
      "inputs": [
        {
          "internalType": "address",
          "name": "pool",
          "type": "address"
        }
      ],
      "name": "getManagerFee",
      "outputs": [
        {
          "internalType": "uint256",
          "name": "",
          "type": "uint256"
        },
        {
          "internalType": "uint256",
          "name": "",
          "type": "uint256"
        }
      ],
      "stateMutability": "view",
      "type": "function"
    },
    {
      "inputs": [],
      "name": "getManagerFeeIncreaseInfo",
      "outputs": [
        {
          "internalType": "uint256",
          "name": "",
          "type": "uint256"
        },
        {
          "internalType": "uint256",
          "name": "",
          "type": "uint256"
        }
      ],
      "stateMutability": "view",
      "type": "function"
    },
    {
      "inputs": [],
      "name": "getMembers",
      "outputs": [
        {
          "internalType": "address[]",
          "name": "",
          "type": "address[]"
        }
      ],
      "stateMutability": "view",
      "type": "function"
    },
    {
      "inputs": [
        {
          "internalType": "bytes",
          "name": "data",
          "type": "bytes"
        }
      ],
      "name": "getMethod",
      "outputs": [
        {
          "internalType": "bytes4",
          "name": "",
          "type": "bytes4"
        }
      ],
      "stateMutability": "pure",
      "type": "function"
    },
    {
      "inputs": [],
      "name": "getSupportedAssets",
      "outputs": [
        {
          "internalType": "address[]",
          "name": "",
          "type": "address[]"
        }
      ],
      "stateMutability": "view",
      "type": "function"
    },
    {
      "inputs": [],
      "name": "getSuspendedAssets",
      "outputs": [
        {
          "internalType": "address[]",
          "name": "",
          "type": "address[]"
        },
        {
          "internalType": "bool[]",
          "name": "",
          "type": "bool[]"
        }
      ],
      "stateMutability": "view",
      "type": "function"
    },
    {
      "inputs": [
        {
          "internalType": "address",
          "name": "asset",
          "type": "address"
        }
      ],
      "name": "getSynthKey",
      "outputs": [
        {
          "internalType": "bytes32",
          "name": "",
          "type": "bytes32"
        }
      ],
      "stateMutability": "view",
      "type": "function"
    },
    {
      "inputs": [
        {
          "internalType": "address",
          "name": "_factory",
          "type": "address"
        },
        {
          "internalType": "address",
          "name": "_manager",
          "type": "address"
        },
        {
          "internalType": "string",
          "name": "_managerName",
          "type": "string"
        },
        {
          "internalType": "contract IAddressResolver",
          "name": "_addressResolver",
          "type": "address"
        },
        {
          "internalType": "address[]",
          "name": "_supportedAssets",
          "type": "address[]"
        }
      ],
      "name": "initialize",
      "outputs": [],
      "stateMutability": "nonpayable",
      "type": "function"
    },
    {
      "inputs": [
        {
          "internalType": "address",
          "name": "asset",
          "type": "address"
        }
      ],
      "name": "isAssetSupported",
      "outputs": [
        {
          "internalType": "bool",
          "name": "",
          "type": "bool"
        }
      ],
      "stateMutability": "view",
      "type": "function"
    },
    {
      "inputs": [
        {
          "internalType": "address",
          "name": "member",
          "type": "address"
        }
      ],
      "name": "isMemberAllowed",
      "outputs": [
        {
          "internalType": "bool",
          "name": "",
          "type": "bool"
        }
      ],
      "stateMutability": "view",
      "type": "function"
    },
    {
      "inputs": [],
      "name": "manager",
      "outputs": [
        {
          "internalType": "address",
          "name": "",
          "type": "address"
        }
      ],
      "stateMutability": "view",
      "type": "function"
    },
    {
      "inputs": [],
      "name": "managerName",
      "outputs": [
        {
          "internalType": "string",
          "name": "",
          "type": "string"
        }
      ],
      "stateMutability": "view",
      "type": "function"
    },
    {
      "inputs": [],
      "name": "numberOfMembers",
      "outputs": [
        {
          "internalType": "uint256",
          "name": "",
          "type": "uint256"
        }
      ],
      "stateMutability": "view",
      "type": "function"
    },
    {
      "inputs": [],
      "name": "numberOfSupportedAssets",
      "outputs": [
        {
          "internalType": "uint256",
          "name": "",
          "type": "uint256"
        }
      ],
      "stateMutability": "view",
      "type": "function"
    },
    {
      "inputs": [
        {
          "internalType": "address",
          "name": "",
          "type": "address"
        }
      ],
      "name": "persistentAsset",
      "outputs": [
        {
          "internalType": "bool",
          "name": "",
          "type": "bool"
        }
      ],
      "stateMutability": "view",
      "type": "function"
    },
    {
      "inputs": [
        {
          "internalType": "bytes",
          "name": "data",
          "type": "bytes"
        },
        {
          "internalType": "uint256",
          "name": "offset",
          "type": "uint256"
        },
        {
          "internalType": "uint256",
          "name": "length",
          "type": "uint256"
        }
      ],
      "name": "read32",
      "outputs": [
        {
          "internalType": "bytes32",
          "name": "o",
          "type": "bytes32"
        }
      ],
      "stateMutability": "pure",
      "type": "function"
    },
    {
      "inputs": [
        {
          "internalType": "bytes",
          "name": "data",
          "type": "bytes"
        },
        {
          "internalType": "uint256",
          "name": "offset",
          "type": "uint256"
        },
        {
          "internalType": "uint256",
          "name": "length",
          "type": "uint256"
        }
      ],
      "name": "read4left",
      "outputs": [
        {
          "internalType": "bytes4",
          "name": "o",
          "type": "bytes4"
        }
      ],
      "stateMutability": "pure",
      "type": "function"
    },
    {
      "inputs": [
        {
          "internalType": "address",
          "name": "asset",
          "type": "address"
        }
      ],
      "name": "removeFromSupportedAssets",
      "outputs": [],
      "stateMutability": "nonpayable",
      "type": "function"
    },
    {
      "inputs": [
        {
          "internalType": "address",
          "name": "member",
          "type": "address"
        }
      ],
      "name": "removeMember",
      "outputs": [],
      "stateMutability": "nonpayable",
      "type": "function"
    },
    {
      "inputs": [
        {
          "internalType": "address[]",
          "name": "members",
          "type": "address[]"
        }
      ],
      "name": "removeMembers",
      "outputs": [],
      "stateMutability": "nonpayable",
      "type": "function"
    },
    {
      "inputs": [],
      "name": "removeTrader",
      "outputs": [],
      "stateMutability": "nonpayable",
      "type": "function"
    },
    {
      "inputs": [],
      "name": "renounceManagerFeeIncrease",
      "outputs": [],
      "stateMutability": "nonpayable",
      "type": "function"
    },
    {
      "inputs": [
        {
          "internalType": "address",
          "name": "_addressResolver",
          "type": "address"
        }
      ],
      "name": "setAddressResolver",
      "outputs": [],
      "stateMutability": "nonpayable",
      "type": "function"
    },
    {
      "inputs": [
        {
          "internalType": "address",
          "name": "newTrader",
          "type": "address"
        }
      ],
      "name": "setTrader",
      "outputs": [],
      "stateMutability": "nonpayable",
      "type": "function"
    },
    {
      "inputs": [
        {
          "internalType": "uint256",
          "name": "",
          "type": "uint256"
        }
      ],
      "name": "supportedAssets",
      "outputs": [
        {
          "internalType": "address",
          "name": "",
          "type": "address"
        }
      ],
      "stateMutability": "view",
      "type": "function"
    },
    {
      "inputs": [],
      "name": "trader",
      "outputs": [
        {
          "internalType": "address",
          "name": "",
          "type": "address"
        }
      ],
      "stateMutability": "view",
      "type": "function"
    },
    {
      "inputs": [
        {
          "internalType": "address",
          "name": "asset",
          "type": "address"
        }
      ],
      "name": "validateAsset",
      "outputs": [
        {
          "internalType": "bool",
          "name": "",
          "type": "bool"
        }
      ],
      "stateMutability": "view",
      "type": "function"
    }
  ],
  "bytecode": "0x608060405234801561001057600080fd5b50613b98806100206000396000f3fe608060405234801561001057600080fd5b50600436106102bb5760003560e01c80637c8afd5111610182578063bbbf725b116100e9578063d346cc65116100a2578063e5406dbf1161007c578063e5406dbf14611031578063ed5b165d14611039578063f09d14d714611041578063fed4416a14611127576102bb565b8063d346cc6514610e12578063d8af8ed414610f62578063db896b5714610f88576102bb565b8063bbbf725b14610cd7578063c3c6279f14610cfd578063c45a015514610da1578063c68dbb3714610da9578063ca6d56dc14610dc6578063cd88e55814610dec576102bb565b8063969eed271161013b578063969eed2714610b7a578063998546e314610ba05780639eab525314610c49578063a30e3fa914610ca1578063a6bc18f914610ca9578063b8bd81e614610ccf576102bb565b80637c8afd5114610a6d57806380dd4f6214610a7557806382f86acc14610a9b5780638f32343914610b445780639240d29914610b4c578063936553c414610b72576102bb565b806341dc16c3116102265780635f6eceab116101df5780635f6eceab1461087f5780636141db90146108be5780636708f5d7146108e45780636f4d469b146109105780637ae7cfb5146109b15780637b4d0c6314610a65576102bb565b806341dc16c31461056e578063464b41581461062257806346ee84b01461065c578063481c6a75146106fd5780635221366314610705578063568b5a2f146107b9576102bb565b80631758078b116102785780631758078b146104395780631eba30771461044157806321f8c9841461045e57806329c07fba146104ff5780633c570d7d1461052b5780633ded653014610551576102bb565b806305a2ee2a146102c057806306468587146102e4578063093b88251461030c57806309ff5c7d146103325780630b1ca49a146103ed5780631430238714610413575b600080fd5b6102c86111a4565b604080516001600160a01b039092168252519081900360200190f35b61030a600480360360208110156102fa57600080fd5b50356001600160a01b03166111b3565b005b61030a6004803603602081101561032257600080fd5b50356001600160a01b031661145d565b6103db6004803603604081101561034857600080fd5b810190602081018135600160201b81111561036257600080fd5b82018360208201111561037457600080fd5b803590602001918460018302840111600160201b8311171561039557600080fd5b91908080601f0160208091040260200160405190810160405280939291908181526020018383808284376000920191909152509295505050903560ff1691506114d39050565b60408051918252519081900360200190f35b61030a6004803603602081101561040357600080fd5b50356001600160a01b0316611566565b61030a6004803603602081101561042957600080fd5b50356001600160a01b03166115cf565b6102c8611640565b6102c86004803603602081101561045757600080fd5b503561164f565b610466611656565b604051808060200180602001838103835285818151815260200191508051906020019060200280838360005b838110156104aa578181015183820152602001610492565b50505050905001838103825284818151815260200191508051906020019060200280838360005b838110156104e95781810151838201526020016104d1565b5050505090500194505050505060405180910390f35b6103db6004803603604081101561051557600080fd5b506001600160a01b038135169060200135611882565b6103db6004803603602081101561054157600080fd5b50356001600160a01b031661198c565b6102c86004803603602081101561056757600080fd5b503561199e565b6103db6004803603606081101561058457600080fd5b810190602081018135600160201b81111561059e57600080fd5b8201836020820111156105b057600080fd5b803590602001918460018302840111600160201b831117156105d157600080fd5b91908080601f0160208091040260200160405190810160405280939291908181526020018383808284376000920191909152509295505060ff8335811694506020909301359092169150611ba19050565b6106486004803603602081101561063857600080fd5b50356001600160a01b0316611c89565b604080519115158252519081900360200190f35b61030a6004803603602081101561067257600080fd5b810190602081018135600160201b81111561068c57600080fd5b82018360208201111561069e57600080fd5b803590602001918460208302840111600160201b831117156106bf57600080fd5b919080806020026020016040519081016040528093929190818152602001838360200280828437600092019190915250929550611ca6945050505050565b6102c8611d4d565b61030a6004803603604081101561071b57600080fd5b6001600160a01b038235169190810190604081016020820135600160201b81111561074557600080fd5b82018360208201111561075757600080fd5b803590602001918460018302840111600160201b8311171561077857600080fd5b91908080601f016020809104026020016040519081016040528093929190818152602001838380828437600092019190915250929550611d5c945050505050565b610862600480360360608110156107cf57600080fd5b810190602081018135600160201b8111156107e957600080fd5b8201836020820111156107fb57600080fd5b803590602001918460018302840111600160201b8311171561081c57600080fd5b91908080601f0160208091040260200160405190810160405280939291908181526020018383808284376000920191909152509295505082359350505060200135611e87565b604080516001600160e01b03199092168252519081900360200190f35b6108a56004803603602081101561089557600080fd5b50356001600160a01b0316611f08565b6040805192835260208301919091528051918290030190f35b6103db600480360360208110156108d457600080fd5b50356001600160a01b0316611f92565b61030a600480360360408110156108fa57600080fd5b506001600160a01b0381351690602001356121ba565b61030a6004803603602081101561092657600080fd5b810190602081018135600160201b81111561094057600080fd5b82018360208201111561095257600080fd5b803590602001918460208302840111600160201b8311171561097357600080fd5b9190808060200260200160405190810160405280939291908181526020018383602002808284376000920191909152509295506123f5945050505050565b610648600480360360408110156109c757600080fd5b6001600160a01b038235169190810190604081016020820135600160201b8111156109f157600080fd5b820183602082011115610a0357600080fd5b803590602001918460018302840111600160201b83111715610a2457600080fd5b91908080601f01602080910402602001604051908101604052809392919081815260200183838082843760009201919091525092955061248c945050505050565b6103db6128a8565b61030a6128ae565b61064860048036036020811015610a8b57600080fd5b50356001600160a01b031661290e565b6103db60048036036040811015610ab157600080fd5b810190602081018135600160201b811115610acb57600080fd5b820183602082011115610add57600080fd5b803590602001918460018302840111600160201b83111715610afe57600080fd5b91908080601f0160208091040260200160405190810160405280939291908181526020018383808284376000920191909152509295505050903560ff1691506129239050565b6103db61293a565b61064860048036036020811015610b6257600080fd5b50356001600160a01b0316612940565b6103db6129c3565b61030a60048036036020811015610b9057600080fd5b50356001600160a01b03166129c9565b6103db60048036036040811015610bb657600080fd5b810190602081018135600160201b811115610bd057600080fd5b820183602082011115610be257600080fd5b803590602001918460018302840111600160201b83111715610c0357600080fd5b91908080601f0160208091040260200160405190810160405280939291908181526020018383808284376000920191909152509295505050903560ff169150612a879050565b610c51612ab8565b60408051602080825283518183015283519192839290830191858101910280838360005b83811015610c8d578181015183820152602001610c75565b505050509050019250505060405180910390f35b6103db612b1a565b61030a60048036036020811015610cbf57600080fd5b50356001600160a01b0316612b20565b61030a612b90565b61064860048036036020811015610ced57600080fd5b50356001600160a01b0316612c13565b61086260048036036020811015610d1357600080fd5b810190602081018135600160201b811115610d2d57600080fd5b820183602082011115610d3f57600080fd5b803590602001918460018302840111600160201b83111715610d6057600080fd5b91908080601f016020809104026020016040519081016040528093929190818152602001838380828437600092019190915250929550612c30945050505050565b6102c8612c3f565b6102c860048036036020811015610dbf57600080fd5b5035612c4e565b61030a60048036036020811015610ddc57600080fd5b50356001600160a01b0316612c75565b6103db60048036036020811015610e0257600080fd5b50356001600160a01b0316612cdf565b61030a600480360360a0811015610e2857600080fd5b6001600160a01b038235811692602081013590911691810190606081016040820135600160201b811115610e5b57600080fd5b820183602082011115610e6d57600080fd5b803590602001918460018302840111600160201b83111715610e8e57600080fd5b91908080601f01602080910402602001604051908101604052809392919081815260200183838082843760009201919091525092956001600160a01b03853516959094909350604081019250602001359050600160201b811115610ef157600080fd5b820183602082011115610f0357600080fd5b803590602001918460208302840111600160201b83111715610f2457600080fd5b919080806020026020016040519081016040528093929190818152602001838360200280828437600092019190915250929550612d2e945050505050565b6103db60048036036020811015610f7857600080fd5b50356001600160a01b0316612e46565b6103db60048036036060811015610f9e57600080fd5b810190602081018135600160201b811115610fb857600080fd5b820183602082011115610fca57600080fd5b803590602001918460018302840111600160201b83111715610feb57600080fd5b91908080601f0160208091040260200160405190810160405280939291908181526020018383808284376000920191909152509295505082359350505060200135612e5a565b610c51612ed6565b6108a5612f36565b611049612f40565b60405180806020018060200180602001848103845287818151815260200191508051906020019060200280838360005b83811015611091578181015183820152602001611079565b50505050905001848103835286818151815260200191508051906020019060200280838360005b838110156110d05781810151838201526020016110b8565b50505050905001848103825285818151815260200191508051906020019060200280838360005b8381101561110f5781810151838201526020016110f7565b50505050905001965050505050505060405180910390f35b61112f613132565b6040805160208082528351818301528351919283929083019185019080838360005b83811015611169578181015183820152602001611151565b50505050905090810190601f1680156111965780820380516001836020036101000a031916815260200191505b509250505060405180910390f35b6038546001600160a01b031681565b603960009054906101000a90046001600160a01b03166001600160a01b0316638da5cb5b6040518163ffffffff1660e01b815260040160206040518083038186803b15801561120157600080fd5b505afa158015611215573d6000803e3d6000fd5b505050506040513d602081101561122b57600080fd5b50516001600160a01b031633148061125b5750611246611d4d565b6001600160a01b0316336001600160a01b0316145b8061127e5750611269611640565b6001600160a01b0316336001600160a01b0316145b6112cf576040805162461bcd60e51b815260206004820152601b60248201527f6f6e6c79206d616e616765722c20747261646572206f722044414f0000000000604482015290519081900360640190fd5b6112d881611c89565b61131f576040805162461bcd60e51b8152602060048201526013602482015272185cdcd95d081b9bdd081cdd5c1c1bdc9d1959606a1b604482015290519081900360640190fd5b6001600160a01b0381166000908152603c602052604090205460ff161561138d576040805162461bcd60e51b815260206004820152601f60248201527f63616e6e6f742072656d6f76652070657273697374656e742061737365747300604482015290519081900360640190fd5b604080516370a0823160e01b815230600482015290516001600160a01b038316916370a08231916024808301926020929190829003018186803b1580156113d357600080fd5b505afa1580156113e7573d6000803e3d6000fd5b505050506040513d60208110156113fd57600080fd5b505115611451576040805162461bcd60e51b815260206004820152601d60248201527f63616e6e6f742072656d6f7665206e6f6e2d656d707479206173736574000000604482015290519081900360640190fd5b61145a816131bf565b50565b6033546001600160a01b031633148061148057506037546001600160a01b031633145b6114ca576040805162461bcd60e51b815260206004820152601660248201527537b7363c9036b0b730b3b2b91037b9103a3930b232b960511b604482015290519081900360640190fd5b61145a8161330d565b6000806114eb848460200260040160ff166020612e5a565b905060006114fe85600484016020612e5a565b905080611547576040805162461bcd60e51b8152602060048201526012602482015271696e707574206973206e6f7420617272617960701b604482015290519081900360640190fd5b61155b856020808402850160040190612e5a565b925050505b92915050565b6033546001600160a01b031633146115b4576040805162461bcd60e51b815260206004820152600c60248201526b37b7363c9036b0b730b3b2b960a11b604482015290519081900360640190fd5b6115bd81612c13565b6115c65761145a565b61145a81613531565b6039546001600160a01b0316331461161e576040805162461bcd60e51b815260206004820152600d60248201526c3737903832b936b4b9b9b4b7b760991b604482015290519081900360640190fd5b603880546001600160a01b0319166001600160a01b0392909216919091179055565b6037546001600160a01b031690565b805b919050565b603a546060908190818167ffffffffffffffff8111801561167657600080fd5b506040519080825280602002602001820160405280156116a0578160200160208202803683370190505b50905060608267ffffffffffffffff811180156116bc57600080fd5b506040519080825280602002602001820160405280156116e6578160200160208202803683370190505b50603854604080516321f8a72160e01b81526b53797374656d53746174757360a01b600482015290519293506000926001600160a01b03909216916321f8a72191602480820192602092909190829003018186803b15801561174757600080fd5b505afa15801561175b573d6000803e3d6000fd5b505050506040513d602081101561177157600080fd5b5051905060005b84811015611876576000603a828154811061178f57fe5b9060005260206000200160009054906101000a90046001600160a01b03169050808583815181106117bc57fe5b6001600160a01b03928316602091820292909201015283166342a28e216117e283611f92565b6040518263ffffffff1660e01b81526004018082815260200191505060006040518083038186803b15801561181657600080fd5b505afa925050508015611827575060015b61184e57600184838151811061183957fe5b9115156020928302919091019091015261186d565b600084838151811061185c57fe5b911515602092830291909101909101525b50600101611778565b50919450925050509091565b60395460408051638b2f0f4f60e01b81526001600160a01b038581166004830152915160009384931691638b2f0f4f916024808301926020929190829003018186803b1580156118d157600080fd5b505afa1580156118e5573d6000803e3d6000fd5b505050506040513d60208110156118fb57600080fd5b50516040805163313ce56760e01b815290519192506000916001600160a01b0387169163313ce567916004808301926020929190829003018186803b15801561194357600080fd5b505afa158015611957573d6000803e3d6000fd5b505050506040513d602081101561196d57600080fd5b505160ff16905061155b600a82900a611986848761362a565b90613683565b603b6020526000908152604090205481565b603854604080516321f8a72160e01b8152680a6f2dce8d0cae8d2f60bb1b6004820152905160009283926001600160a01b03909116916321f8a72191602480820192602092909190829003018186803b1580156119fa57600080fd5b505afa158015611a0e573d6000803e3d6000fd5b505050506040513d6020811015611a2457600080fd5b505160408051633260803960e01b81526004810186905290516001600160a01b0390921691633260803991602480820192602092909190829003018186803b158015611a6f57600080fd5b505afa158015611a83573d6000803e3d6000fd5b505050506040513d6020811015611a9957600080fd5b505190506001600160a01b038116611ae6576040805162461bcd60e51b815260206004820152600b60248201526a696e76616c6964206b657960a81b604482015290519081900360640190fd5b6000816001600160a01b031663ec5568896040518163ffffffff1660e01b815260040160206040518083038186803b158015611b2157600080fd5b505afa158015611b35573d6000803e3d6000fd5b505050506040513d6020811015611b4b57600080fd5b505190506001600160a01b038116611b9a576040805162461bcd60e51b815260206004820152600d60248201526c696e76616c69642070726f787960981b604482015290519081900360640190fd5b9392505050565b600080611bb9858560200260040160ff166020612e5a565b90506000611bcc86600484016020612e5a565b905080611c15576040805162461bcd60e51b8152602060048201526012602482015271696e707574206973206e6f7420617272617960701b604482015290519081900360640190fd5b60ff84168111611c65576040805162461bcd60e51b815260206004820152601660248201527534b73b30b634b21030b93930bc903837b9b4ba34b7b760511b604482015290519081900360640190fd5b611c7f866020600160ff8816018102850160040190612e5a565b9695505050505050565b6001600160a01b03166000908152603b6020526040902054151590565b6033546001600160a01b03163314611cf4576040805162461bcd60e51b815260206004820152600c60248201526b37b7363c9036b0b730b3b2b960a11b604482015290519081900360640190fd5b60005b8151811015611d4957611d1c828281518110611d0f57fe5b6020026020010151612c13565b611d2557611d41565b611d41828281518110611d3457fe5b6020026020010151613531565b600101611cf7565b5050565b6033546001600160a01b031690565b6033546001600160a01b03163314611daa576040805162461bcd60e51b815260206004820152600c60248201526b37b7363c9036b0b730b3b2b960a11b604482015290519081900360640190fd5b603380546001600160a01b0319166001600160a01b0384161790558051611dd8906034906020840190613a80565b507f6ed15082ad038474841528b5badca105106d4463e44b5d434130dfb299aa3669828260405180836001600160a01b0316815260200180602001828103825283818151815260200191508051906020019080838360005b83811015611e48578181015183820152602001611e30565b50505050905090810190601f168015611e755780820380516001836020036101000a031916815260200191505b50935050505060405180910390a15050565b600081830184511015611ee1576040805162461bcd60e51b815260206004820152601b60248201527f52656164696e67206279746573206f7574206f6620626f756e64730000000000604482015290519081900360640190fd5b826020018401519050816004038015611f00576008810260020a820491505b509392505050565b60395460408051635bd2a29360e11b81526001600160a01b0384811660048301528251600094859492169263b7a54526926024808301939192829003018186803b158015611f5557600080fd5b505afa158015611f69573d6000803e3d6000fd5b505050506040513d6040811015611f7f57600080fd5b5080516020909101519092509050915091565b6000611fa6826001600160a01b03166136c5565b611fe7576040805162461bcd60e51b815260206004820152600d60248201526c1a5b9d985b1a5908185cdcd95d609a1b604482015290519081900360640190fd5b816001600160a01b031663d4b839926040518163ffffffff1660e01b815260040160206040518083038186803b15801561202057600080fd5b505afa92505050801561204557506040513d602081101561204057600080fd5b505160015b6120b8573d808015612073576040519150601f19603f3d011682016040523d82523d6000602084013e612078565b606091505b506040805162461bcd60e51b815260206004820152600f60248201526e1b9bdb8b5cde5b9d1a08185cdcd95d608a1b604482015290519081900360640190fd5b603854604080516321f8a72160e01b8152680a6f2dce8d0cae8d2f60bb1b600482015290516001600160a01b03909216916321f8a72191602480820192602092909190829003018186803b15801561210f57600080fd5b505afa158015612123573d6000803e3d6000fd5b505050506040513d602081101561213957600080fd5b5051604080516316b2213f60e01b81526001600160a01b038481166004830152915191909216916316b2213f916024808301926020929190829003018186803b15801561218557600080fd5b505afa158015612199573d6000803e3d6000fd5b505050506040513d60208110156121af57600080fd5b505191506116519050565b6033546001600160a01b03163314612208576040805162461bcd60e51b815260206004820152600c60248201526b37b7363c9036b0b730b3b2b960a11b604482015290519081900360640190fd5b60395460408051635c9bfc2b60e01b815290516000926001600160a01b031691635c9bfc2b916004808301926020929190829003018186803b15801561224d57600080fd5b505afa158015612261573d6000803e3d6000fd5b505050506040513d602081101561227757600080fd5b5051905060008061228785611f08565b9092509050808411156122d4576040805162461bcd60e51b815260206004820152601060248201526f34b73b30b634b210333930b1ba34b7b760811b604482015290519081900360640190fd5b6122de82846136fe565b841115612332576040805162461bcd60e51b815260206004820152601960248201527f657863656564656420616c6c6f77656420696e63726561736500000000000000604482015290519081900360640190fd5b6039546040805163ebee461d60e01b815290516000926001600160a01b03169163ebee461d916004808301926020929190829003018186803b15801561237757600080fd5b505afa15801561238b573d6000803e3d6000fd5b505050506040513d60208110156123a157600080fd5b5051603d869055428101603e81905560408051888152602081019290925280519293507f4db9119741646c419f1ceccdf112b5b9a9b4516355e742e1fa9c479f4dec98da92918290030190a1505050505050565b6033546001600160a01b03163314612443576040805162461bcd60e51b815260206004820152600c60248201526b37b7363c9036b0b730b3b2b960a11b604482015290519081900360640190fd5b60005b8151811015611d495761245e828281518110611d0f57fe5b1561246857612484565b61248482828151811061247757fe5b6020026020010151613758565b600101612446565b6033546000906001600160a01b03163314806124b257506037546001600160a01b031633145b6124fc576040805162461bcd60e51b815260206004820152601660248201527537b7363c9036b0b730b3b2b91037b9103a3930b232b960511b604482015290519081900360640190fd5b6001600160a01b038316612557576040805162461bcd60e51b815260206004820152601c60248201527f6e6f6e2d7a65726f206164647265737320697320726571756972656400000000604482015290519081900360640190fd5b60395460408051631c09fa9b60e21b81526001600160a01b03868116600483015291516000939290921691637027ea6c91602480820192602092909190829003018186803b1580156125a857600080fd5b505afa1580156125bc573d6000803e3d6000fd5b505050506040513d60208110156125d257600080fd5b505190506001600160a01b038116612627576040805162461bcd60e51b815260206004820152601360248201527234b73b30b634b2103232b9ba34b730ba34b7b760691b604482015290519081900360640190fd5b6040805163e23ff43760e01b81523060048201818152602483019384528651604484015286516001600160a01b0386169463e23ff43794899392606490910190602085019080838360005b8381101561268a578181015183820152602001612672565b50505050905090810190601f1680156126b75780820380516001836020036101000a031916815260200191505b509350505050602060405180830381600087803b1580156126d757600080fd5b505af11580156126eb573d6000803e3d6000fd5b505050506040513d602081101561270157600080fd5b505161274a576040805162461bcd60e51b815260206004820152601360248201527234b73b30b634b2103a3930b739b0b1ba34b7b760691b604482015290519081900360640190fd5b6000846001600160a01b0316846040518082805190602001908083835b602083106127865780518252601f199092019160209182019101612767565b6001836020036101000a0380198251168184511680821785525050505050509050019150506000604051808303816000865af19150503d80600081146127e8576040519150601f19603f3d011682016040523d82523d6000602084013e6127ed565b606091505b5090915050600181151514612849576040805162461bcd60e51b815260206004820152601a60248201527f6661696c656420746f2065786563757465207468652063616c6c000000000000604482015290519081900360640190fd5b7f508f3afa87f72dce865a2321107666b28ac822c23a8c0555fbeb3424cf3de56330612873611d4d565b604080516001600160a01b039384168152919092166020820152428183015290519081900360600190a1506001949350505050565b603e5481565b6033546001600160a01b031633146128fc576040805162461bcd60e51b815260206004820152600c60248201526b37b7363c9036b0b730b3b2b960a11b604482015290519081900360640190fd5b603780546001600160a01b0319169055565b603c6020526000908152604090205460ff1681565b6000611b9a838360200260040160ff166020612e5a565b603d5481565b6039546040805163cc435bf360e01b81526001600160a01b0384811660048301529151600093929092169163cc435bf391602480820192602092909190829003018186803b15801561299157600080fd5b505afa1580156129a5573d6000803e3d6000fd5b505050506040513d60208110156129bb57600080fd5b505192915050565b603a5490565b6033546001600160a01b03163314612a17576040805162461bcd60e51b815260206004820152600c60248201526b37b7363c9036b0b730b3b2b960a11b604482015290519081900360640190fd5b603e54421015612a6e576040805162461bcd60e51b815260206004820152601960248201527f66656520696e6372656173652064656c61792061637469766500000000000000604482015290519081900360640190fd5b612a7a81603d546137b4565b506000603d819055603e55565b600080612a9f848460200260040160ff166020612e5a565b9050612ab084600483016020612e5a565b949350505050565b60606035805480602002602001604051908101604052809291908181526020018280548015612b1057602002820191906000526020600020905b81546001600160a01b03168152600190910190602001808311612af2575b5050505050905090565b60355490565b6033546001600160a01b03163314612b6e576040805162461bcd60e51b815260206004820152600c60248201526b37b7363c9036b0b730b3b2b960a11b604482015290519081900360640190fd5b603780546001600160a01b0319166001600160a01b0392909216919091179055565b6033546001600160a01b03163314612bde576040805162461bcd60e51b815260206004820152600c60248201526b37b7363c9036b0b730b3b2b960a11b604482015290519081900360640190fd5b6000603d819055603e8190556040517fc6f04bf43cbdf1ba5d51b4afa160bb3c7e13858b1409aa32868b239bb2f8d8499190a1565b6001600160a01b0316600090815260366020526040902054151590565b60006115608260006004611e87565b6039546001600160a01b031681565b603a8181548110612c5b57fe5b6000918252602090912001546001600160a01b0316905081565b6033546001600160a01b03163314612cc3576040805162461bcd60e51b815260206004820152600c60248201526b37b7363c9036b0b730b3b2b960a11b604482015290519081900360640190fd5b612ccc81612c13565b15612cd65761145a565b61145a81613758565b6000816001600160a01b03166370a08231306040518263ffffffff1660e01b815260040180826001600160a01b0316815260200191505060206040518083038186803b15801561299157600080fd5b600054610100900460ff1680612d475750612d47613909565b80612d55575060005460ff16155b612d905760405162461bcd60e51b815260040180806020018281038252602e815260200180613b35602e913960400191505060405180910390fd5b600054610100900460ff16158015612dbb576000805460ff1961ff0019909116610100171660011790555b612dc5858561390f565b603980546001600160a01b038089166001600160a01b031992831617909255603880549286169290911691909117905560005b82518160ff161015612e2b57612e23838260ff1681518110612e1657fe5b602002602001015161330d565b600101612df8565b508015612e3e576000805461ff00191690555b505050505050565b600061156082612e5584612cdf565b611882565b600081830184511015612eb4576040805162461bcd60e51b815260206004820152601b60248201527f52656164696e67206279746573206f7574206f6620626f756e64730000000000604482015290519081900360640190fd5b826020018401519050816020038015611f005760080260020a90049392505050565b6060603a805480602002602001604051908101604052809291908181526020018280548015612b10576020028201919060005260206000209081546001600160a01b03168152600190910190602001808311612af2575050505050905090565b603d54603e549091565b603a5460609081908190818167ffffffffffffffff81118015612f6257600080fd5b50604051908082528060200260200182016040528015612f8c578160200160208202803683370190505b50905060608267ffffffffffffffff81118015612fa857600080fd5b50604051908082528060200260200182016040528015612fd2578160200160208202803683370190505b50905060608367ffffffffffffffff81118015612fee57600080fd5b50604051908082528060200260200182016040528015613018578160200160208202803683370190505b50905060005b84811015613124576000603a828154811061303557fe5b6000918252602090912001546001600160a01b0316905061305581612cdf565b84838151811061306157fe5b6020026020010181815250508085838151811061307a57fe5b6001600160a01b0392831660209182029290920181019190915260395460408051638b2f0f4f60e01b8152858516600482015290519190931692638b2f0f4f926024808301939192829003018186803b1580156130d657600080fd5b505afa1580156130ea573d6000803e3d6000fd5b505050506040513d602081101561310057600080fd5b5051835184908490811061311057fe5b60209081029190910101525060010161301e565b509195509350915050909192565b60348054604080516020601f6002600019610100600188161502019095169490940493840181900481028201810190925282815260609390929091830182828015612b105780601f1061319357610100808354040283529160200191612b10565b820191906000526020600020905b8154815290600101906020018083116131a157509395945050505050565b603a546001600160a01b0382166000908152603b60205260408120546131e6906001613942565b90506000603a6131f7846001613942565b8154811061320157fe5b600091825260209091200154603a80546001600160a01b03909216925082918490811061322a57fe5b600091825260209091200180546001600160a01b0319166001600160a01b039290921691909117905561325e8260016136fe565b6001600160a01b038083166000908152603b602052604080822093909355908616815290812055603a80548061329057fe5b600082815260209020810160001990810180546001600160a01b03191690550190557f9b4f55639e5e283319baee5bc4e69a5625a8e3a1cc004af968f4fee725022027306132dc611d4d565b604080516001600160a01b03938416815291831660208301529187168183015290519081900360600190a150505050565b603960009054906101000a90046001600160a01b03166001600160a01b031663aa12ae4d6040518163ffffffff1660e01b815260040160206040518083038186803b15801561335b57600080fd5b505afa15801561336f573d6000803e3d6000fd5b505050506040513d602081101561338557600080fd5b5051603a54106133d5576040805162461bcd60e51b81526020600482015260166024820152751b585e1a5b5d5b48185cdcd95d1cc81c995858da195960521b604482015290519081900360640190fd5b6133de81611c89565b15613430576040805162461bcd60e51b815260206004820152601760248201527f617373657420616c726561647920737570706f72746564000000000000000000604482015290519081900360640190fd5b61343981612940565b151560011461347f576040805162461bcd60e51b815260206004820152600d60248201526c1a5b9d985b1a5908185cdcd95d609a1b604482015290519081900360640190fd5b603a80546001810182557fa2999d817b6757290b50e8ecf3fa939673403dd35c97de392fdb343b4015ce9e0180546001600160a01b0319166001600160a01b03841690811790915590546000918252603b6020526040909120557f0a7426a0630aad7dbc4d5ca5b7d9aac1133d77d2db987caaf4b4186c85d6593f30613503611d4d565b604080516001600160a01b03938416815291831660208301529184168183015290519081900360600190a150565b6035546001600160a01b038216600090815260366020526040812054613558906001613942565b905060006035613569846001613942565b8154811061357357fe5b600091825260209091200154603580546001600160a01b03909216925082918490811061359c57fe5b600091825260209091200180546001600160a01b0319166001600160a01b03929092169190911790556135d08260016136fe565b6001600160a01b0380831660009081526036602052604080822093909355908616815290812055603580548061360257fe5b600082815260209020810160001990810180546001600160a01b031916905501905550505050565b60008261363957506000611560565b8282028284828161364657fe5b0414611b9a5760405162461bcd60e51b8152600401808060200182810382526021815260200180613b146021913960400191505060405180910390fd5b6000611b9a83836040518060400160405280601a81526020017f536166654d6174683a206469766973696f6e206279207a65726f000000000000815250613984565b6000813f7fc5d2460186f7233c927e7db2dcc703c0e500b653ca82273b7bfad8045d85a470818114801590612ab0575050151592915050565b600082820183811015611b9a576040805162461bcd60e51b815260206004820152601b60248201527f536166654d6174683a206164646974696f6e206f766572666c6f770000000000604482015290519081900360640190fd5b603580546001810182557fcfa4bec1d3298408bb5afcfcd9c430549c5b31f8aa5c5848151c0a55f473c34d0180546001600160a01b039093166001600160a01b0319909316831790555460009182526036602052604090912055565b6039546040805163011adcb160e21b81526001600160a01b038581166004830152602482018590529151919092169163046b72c491604480830192600092919082900301818387803b15801561380957600080fd5b505af115801561381d573d6000803e3d6000fd5b505060395460408051635bd2a29360e11b81526001600160a01b03878116600483015282516000965086955093169263b7a5452692602480840193919291829003018186803b15801561386f57600080fd5b505afa158015613883573d6000803e3d6000fd5b505050506040513d604081101561389957600080fd5b50805160209091015190925090507f1780c04ddc6f0b32d866c7a3d7583f53515ef49ed2126af868f804f491601266306138d1611d4d565b604080516001600160a01b0393841681529190921660208201528082018590526060810184905290519081900360800190a150505050565b303b1590565b603380546001600160a01b0319166001600160a01b038416179055805161393d906034906020840190613a80565b505050565b6000611b9a83836040518060400160405280601e81526020017f536166654d6174683a207375627472616374696f6e206f766572666c6f770000815250613a26565b60008183613a105760405162461bcd60e51b81526004018080602001828103825283818151815260200191508051906020019080838360005b838110156139d55781810151838201526020016139bd565b50505050905090810190601f168015613a025780820380516001836020036101000a031916815260200191505b509250505060405180910390fd5b506000838581613a1c57fe5b0495945050505050565b60008184841115613a785760405162461bcd60e51b81526020600482018181528351602484015283519092839260449091019190850190808383600083156139d55781810151838201526020016139bd565b505050900390565b828054600181600116156101000203166002900490600052602060002090601f016020900481019282601f10613ac157805160ff1916838001178555613aee565b82800160010185558215613aee579182015b82811115613aee578251825591602001919060010190613ad3565b50613afa929150613afe565b5090565b5b80821115613afa5760008155600101613aff56fe536166654d6174683a206d756c7469706c69636174696f6e206f766572666c6f77436f6e747261637420696e7374616e63652068617320616c7265616479206265656e20696e697469616c697a6564a26469706673582212205bd4627c81905e7856866f3e13cb9995fdca553a7176f9788fc6716bec60ecec64736f6c634300060c0033",
  "linkReferences": {},
  "deployedLinkReferences": {}
}