{
  "_format": "hh-sol-artifact-1",
  "contractName": "PoolManagerLogic-ovm",
  "sourceName": "contracts/PoolManagerLogic.sol",
  "abi": [
    {
      "anonymous": false,
      "inputs": [
        {
          "indexed": false,
          "internalType": "address",
          "name": "fundAddress",
          "type": "address"
        },
        {
          "indexed": false,
          "internalType": "address",
          "name": "manager",
          "type": "address"
        },
        {
          "indexed": false,
          "internalType": "address",
          "name": "asset",
          "type": "address"
        }
      ],
      "name": "AssetAdded",
      "type": "event"
    },
    {
      "anonymous": false,
      "inputs": [
        {
          "indexed": false,
          "internalType": "address",
          "name": "fundAddress",
          "type": "address"
        },
        {
          "indexed": false,
          "internalType": "address",
          "name": "manager",
          "type": "address"
        },
        {
          "indexed": false,
          "internalType": "address",
          "name": "asset",
          "type": "address"
        }
      ],
      "name": "AssetRemoved",
      "type": "event"
    },
    {
      "anonymous": false,
      "inputs": [
        {
          "indexed": false,
          "internalType": "uint256",
          "name": "newNumerator",
          "type": "uint256"
        },
        {
          "indexed": false,
          "internalType": "uint256",
          "name": "announcedFeeActivationTime",
          "type": "uint256"
        }
      ],
      "name": "ManagerFeeIncreaseAnnounced",
      "type": "event"
    },
    {
      "anonymous": false,
      "inputs": [],
      "name": "ManagerFeeIncreaseRenounced",
      "type": "event"
    },
    {
      "anonymous": false,
      "inputs": [
        {
          "indexed": false,
          "internalType": "address",
          "name": "fundAddress",
          "type": "address"
        },
        {
          "indexed": false,
          "internalType": "address",
          "name": "manager",
          "type": "address"
        },
        {
          "indexed": false,
          "internalType": "uint256",
          "name": "numerator",
          "type": "uint256"
        },
        {
          "indexed": false,
          "internalType": "uint256",
          "name": "denominator",
          "type": "uint256"
        }
      ],
      "name": "ManagerFeeSet",
      "type": "event"
    },
    {
      "anonymous": false,
      "inputs": [
        {
          "indexed": false,
          "internalType": "address",
          "name": "newManager",
          "type": "address"
        },
        {
          "indexed": false,
          "internalType": "string",
          "name": "newManagerName",
          "type": "string"
        }
      ],
      "name": "ManagerUpdated",
      "type": "event"
    },
    {
      "anonymous": false,
      "inputs": [
        {
          "indexed": false,
          "internalType": "address",
          "name": "fundAddress",
          "type": "address"
        },
        {
          "indexed": false,
          "internalType": "address",
          "name": "manager",
          "type": "address"
        },
        {
          "indexed": false,
          "internalType": "uint256",
          "name": "time",
          "type": "uint256"
        }
      ],
      "name": "TransactionExecuted",
      "type": "event"
    },
    {
      "inputs": [
        {
          "internalType": "address",
          "name": "member",
          "type": "address"
        }
      ],
      "name": "addMember",
      "outputs": [],
      "stateMutability": "nonpayable",
      "type": "function"
    },
    {
      "inputs": [
        {
          "internalType": "address[]",
          "name": "members",
          "type": "address[]"
        }
      ],
      "name": "addMembers",
      "outputs": [],
      "stateMutability": "nonpayable",
      "type": "function"
    },
    {
      "inputs": [
        {
          "internalType": "address",
          "name": "asset",
          "type": "address"
        }
      ],
      "name": "addToSupportedAssets",
      "outputs": [],
      "stateMutability": "nonpayable",
      "type": "function"
    },
    {
      "inputs": [
        {
          "internalType": "address",
          "name": "pool",
          "type": "address"
        },
        {
          "internalType": "uint256",
          "name": "numerator",
          "type": "uint256"
        }
      ],
      "name": "announceManagerFeeIncrease",
      "outputs": [],
      "stateMutability": "nonpayable",
      "type": "function"
    },
    {
      "inputs": [],
      "name": "announcedFeeIncreaseNumerator",
      "outputs": [
        {
          "internalType": "uint256",
          "name": "",
          "type": "uint256"
        }
      ],
      "stateMutability": "view",
      "type": "function"
    },
    {
      "inputs": [],
      "name": "announcedFeeIncreaseTimestamp",
      "outputs": [
        {
          "internalType": "uint256",
          "name": "",
          "type": "uint256"
        }
      ],
      "stateMutability": "view",
      "type": "function"
    },
    {
      "inputs": [
        {
          "internalType": "address",
          "name": "asset",
          "type": "address"
        }
      ],
      "name": "assetBalance",
      "outputs": [
        {
          "internalType": "uint256",
          "name": "",
          "type": "uint256"
        }
      ],
      "stateMutability": "view",
      "type": "function"
    },
    {
      "inputs": [
        {
          "internalType": "address",
          "name": "",
          "type": "address"
        }
      ],
      "name": "assetPosition",
      "outputs": [
        {
          "internalType": "uint256",
          "name": "",
          "type": "uint256"
        }
      ],
      "stateMutability": "view",
      "type": "function"
    },
    {
      "inputs": [
        {
          "internalType": "address",
          "name": "asset",
          "type": "address"
        },
        {
          "internalType": "uint256",
          "name": "amount",
          "type": "uint256"
        }
      ],
      "name": "assetValue",
      "outputs": [
        {
          "internalType": "uint256",
          "name": "",
          "type": "uint256"
        }
      ],
      "stateMutability": "view",
      "type": "function"
    },
    {
      "inputs": [
        {
          "internalType": "address",
          "name": "asset",
          "type": "address"
        }
      ],
      "name": "assetValue",
      "outputs": [
        {
          "internalType": "uint256",
          "name": "",
          "type": "uint256"
        }
      ],
      "stateMutability": "view",
      "type": "function"
    },
    {
      "inputs": [
        {
          "internalType": "address",
          "name": "newManager",
          "type": "address"
        },
        {
          "internalType": "string",
          "name": "newManagerName",
          "type": "string"
        }
      ],
      "name": "changeManager",
      "outputs": [],
      "stateMutability": "nonpayable",
      "type": "function"
    },
    {
      "inputs": [
        {
          "internalType": "address",
          "name": "pool",
          "type": "address"
        }
      ],
      "name": "commitManagerFeeIncrease",
      "outputs": [],
      "stateMutability": "nonpayable",
      "type": "function"
    },
    {
      "inputs": [
        {
          "internalType": "address",
          "name": "to",
          "type": "address"
        },
        {
          "internalType": "bytes",
          "name": "data",
          "type": "bytes"
        }
      ],
      "name": "execTransaction",
      "outputs": [
        {
          "internalType": "bool",
          "name": "",
          "type": "bool"
        }
      ],
      "stateMutability": "nonpayable",
      "type": "function"
    },
    {
      "inputs": [],
      "name": "factory",
      "outputs": [
        {
          "internalType": "address",
          "name": "",
          "type": "address"
        }
      ],
      "stateMutability": "view",
      "type": "function"
    },
    {
      "inputs": [],
      "name": "getFundComposition",
      "outputs": [
        {
          "internalType": "address[]",
          "name": "",
          "type": "address[]"
        },
        {
          "internalType": "uint256[]",
          "name": "",
          "type": "uint256[]"
        },
        {
          "internalType": "uint256[]",
          "name": "",
          "type": "uint256[]"
        }
      ],
      "stateMutability": "view",
      "type": "function"
    },
    {
      "inputs": [
        {
          "internalType": "address",
          "name": "pool",
          "type": "address"
        }
      ],
      "name": "getManagerFee",
      "outputs": [
        {
          "internalType": "uint256",
          "name": "",
          "type": "uint256"
        },
        {
          "internalType": "uint256",
          "name": "",
          "type": "uint256"
        }
      ],
      "stateMutability": "view",
      "type": "function"
    },
    {
      "inputs": [],
      "name": "getManagerFeeIncreaseInfo",
      "outputs": [
        {
          "internalType": "uint256",
          "name": "",
          "type": "uint256"
        },
        {
          "internalType": "uint256",
          "name": "",
          "type": "uint256"
        }
      ],
      "stateMutability": "view",
      "type": "function"
    },
    {
      "inputs": [],
      "name": "getMembers",
      "outputs": [
        {
          "internalType": "address[]",
          "name": "",
          "type": "address[]"
        }
      ],
      "stateMutability": "view",
      "type": "function"
    },
    {
      "inputs": [],
      "name": "getSupportedAssets",
      "outputs": [
        {
          "internalType": "address[]",
          "name": "",
          "type": "address[]"
        }
      ],
      "stateMutability": "view",
      "type": "function"
    },
    {
      "inputs": [
        {
          "internalType": "address",
          "name": "_factory",
          "type": "address"
        },
        {
          "internalType": "address",
          "name": "_manager",
          "type": "address"
        },
        {
          "internalType": "string",
          "name": "_managerName",
          "type": "string"
        },
        {
          "internalType": "address[]",
          "name": "_supportedAssets",
          "type": "address[]"
        }
      ],
      "name": "initialize",
      "outputs": [],
      "stateMutability": "nonpayable",
      "type": "function"
    },
    {
      "inputs": [
        {
          "internalType": "address",
          "name": "asset",
          "type": "address"
        }
      ],
      "name": "isAssetSupported",
      "outputs": [
        {
          "internalType": "bool",
          "name": "",
          "type": "bool"
        }
      ],
      "stateMutability": "view",
      "type": "function"
    },
    {
      "inputs": [
        {
          "internalType": "address",
          "name": "member",
          "type": "address"
        }
      ],
      "name": "isMemberAllowed",
      "outputs": [
        {
          "internalType": "bool",
          "name": "",
          "type": "bool"
        }
      ],
      "stateMutability": "view",
      "type": "function"
    },
    {
      "inputs": [],
      "name": "manager",
      "outputs": [
        {
          "internalType": "address",
          "name": "",
          "type": "address"
        }
      ],
      "stateMutability": "view",
      "type": "function"
    },
    {
      "inputs": [],
      "name": "managerName",
      "outputs": [
        {
          "internalType": "string",
          "name": "",
          "type": "string"
        }
      ],
      "stateMutability": "view",
      "type": "function"
    },
    {
      "inputs": [],
      "name": "numberOfMembers",
      "outputs": [
        {
          "internalType": "uint256",
          "name": "",
          "type": "uint256"
        }
      ],
      "stateMutability": "view",
      "type": "function"
    },
    {
      "inputs": [],
      "name": "numberOfSupportedAssets",
      "outputs": [
        {
          "internalType": "uint256",
          "name": "",
          "type": "uint256"
        }
      ],
      "stateMutability": "view",
      "type": "function"
    },
    {
      "inputs": [
        {
          "internalType": "address",
          "name": "",
          "type": "address"
        }
      ],
      "name": "persistentAsset",
      "outputs": [
        {
          "internalType": "bool",
          "name": "",
          "type": "bool"
        }
      ],
      "stateMutability": "view",
      "type": "function"
    },
    {
      "inputs": [
        {
          "internalType": "address",
          "name": "asset",
          "type": "address"
        }
      ],
      "name": "removeFromSupportedAssets",
      "outputs": [],
      "stateMutability": "nonpayable",
      "type": "function"
    },
    {
      "inputs": [
        {
          "internalType": "address",
          "name": "member",
          "type": "address"
        }
      ],
      "name": "removeMember",
      "outputs": [],
      "stateMutability": "nonpayable",
      "type": "function"
    },
    {
      "inputs": [
        {
          "internalType": "address[]",
          "name": "members",
          "type": "address[]"
        }
      ],
      "name": "removeMembers",
      "outputs": [],
      "stateMutability": "nonpayable",
      "type": "function"
    },
    {
      "inputs": [],
      "name": "removeTrader",
      "outputs": [],
      "stateMutability": "nonpayable",
      "type": "function"
    },
    {
      "inputs": [],
      "name": "renounceManagerFeeIncrease",
      "outputs": [],
      "stateMutability": "nonpayable",
      "type": "function"
    },
    {
      "inputs": [
        {
          "internalType": "address",
          "name": "newTrader",
          "type": "address"
        }
      ],
      "name": "setTrader",
      "outputs": [],
      "stateMutability": "nonpayable",
      "type": "function"
    },
    {
      "inputs": [
        {
          "internalType": "uint256",
          "name": "",
          "type": "uint256"
        }
      ],
      "name": "supportedAssets",
      "outputs": [
        {
          "internalType": "address",
          "name": "",
          "type": "address"
        }
      ],
      "stateMutability": "view",
      "type": "function"
    },
    {
      "inputs": [],
      "name": "trader",
      "outputs": [
        {
          "internalType": "address",
          "name": "",
          "type": "address"
        }
      ],
      "stateMutability": "view",
      "type": "function"
    },
    {
      "inputs": [
        {
          "internalType": "address",
          "name": "asset",
          "type": "address"
        }
      ],
      "name": "validateAsset",
      "outputs": [
        {
          "internalType": "bool",
          "name": "",
          "type": "bool"
        }
      ],
      "stateMutability": "view",
      "type": "function"
    }
  ],
  "bytecode": "0x60806040523480156200001c576000806200001962000023565b50505b5062000090565b632a2a7adb598160e01b8152600481016020815285602082015260005b868110156200005d57808601518282016040015260200162000040565b506020828760640184336000905af158600e01573d6000803e3d6000fd5b3d6001141558600a015760016000f35b505050565b613ee080620000a06000396000f3fe608060405234801561001957600080610016613a34565b50505b50600436106102255760003560e01c80639240d2991161012e578063c688aa64116100b6578063d8af8ed411610085578063d8af8ed414610ada578063e5406dbf14610b09578063ed5b165d14610b11578063f09d14d714610b19578063fed4416a14610bff57610225565b8063c688aa64146108d9578063c68dbb3714610a56578063ca6d56dc14610a7c578063cd88e55814610aab57610225565b8063a30e3fa9116100fd578063a30e3fa914610863578063a6bc18f91461086b578063b8bd81e61461089a578063bbbf725b146108a2578063c45a0155146108d157610225565b80639240d299146107a2578063936553c4146107d1578063969eed27146107d95780639eab52531461080857610225565b806352213663116101b15780637ae7cfb5116101805780637ae7cfb5146106845780637b4d0c631461075b5780637c8afd511461076357806380dd4f621461076b5780638f3234391461079a57610225565b8063522136631461046c5780635f6eceab146105435780636708f5d71461058a5780636f4d469b146105bf57610225565b806329c07fba116101f857806329c07fba146102e65780633c570d7d1461032d578063464b41581461035c57806346ee84b01461039f578063481c6a751461046457610225565b80630646858714610233578063093b8825146102645780630b1ca49a146102935780631758078b146102c2575b600080610230613a34565b50505b610262600480360360208110156102525760008061024f613a34565b50505b50356001600160a01b0316610c7e565b005b6102626004803603602081101561028357600080610280613a34565b50505b50356001600160a01b031661104e565b610262600480360360208110156102b2576000806102af613a34565b50505b50356001600160a01b0316611120565b6102ca6111bb565b6040516001600160a01b03909116815260200160405180910390f35b61031b6004803603604081101561030557600080610302613a34565b50505b506001600160a01b0381351690602001356111dd565b60405190815260200160405180910390f35b61031b6004803603602081101561034c57600080610349613a34565b50505b50356001600160a01b0316611372565b61038b6004803603602081101561037b57600080610378613a34565b50505b50356001600160a01b031661138d565b604051901515815260200160405180910390f35b610262600480360360208110156103be576000806103bb613a34565b50505b810190602081018135600160201b8111156103e1576000806103de613a34565b50505b8201836020820111156103fc576000806103f9613a34565b50505b803590602001918460208302840111600160201b8311171561042657600080610423613a34565b50505b9190808060200260200160405190810160405280939291908181526020018383602002808284376000920191909152509295506113b5945050505050565b6102ca61148e565b6102626004803603604081101561048b57600080610488613a34565b50505b6001600160a01b038235169190810190604081016020820135600160201b8111156104be576000806104bb613a34565b50505b8201836020820111156104d9576000806104d6613a34565b50505b803590602001918460018302840111600160201b8311171561050357600080610500613a34565b50505b91908080601f016020809104026020016040519081016040528181529291906020840183838082843760009201919091525092955061149b945050505050565b610572600480360360208110156105625760008061055f613a34565b50505b50356001600160a01b0316611610565b60405191825260208201526040908101905180910390f35b610262600480360360408110156105a9576000806105a6613a34565b50505b506001600160a01b0381351690602001356116ef565b610262600480360360208110156105de576000806105db613a34565b50505b810190602081018135600160201b811115610601576000806105fe613a34565b50505b82018360208201111561061c57600080610619613a34565b50505b803590602001918460208302840111600160201b8311171561064657600080610643613a34565b50505b919080806020026020016040519081016040528093929190818152602001838360200280828437600092019190915250929550611a1f945050505050565b61038b600480360360408110156106a3576000806106a0613a34565b50505b6001600160a01b038235169190810190604081016020820135600160201b8111156106d6576000806106d3613a34565b50505b8201836020820111156106f1576000806106ee613a34565b50505b803590602001918460018302840111600160201b8311171561071b57600080610718613a34565b50505b91908080601f0160208091040260200160405190810160405281815292919060208401838380828437600092019190915250929550611ae8945050505050565b61031b6120d6565b6102626120e0565b61038b6004803603602081101561078a57600080610787613a34565b50505b50356001600160a01b0316612196565b61031b6121bd565b61038b600480360360208110156107c1576000806107be613a34565b50505b50356001600160a01b03166121c7565b61031b612299565b610262600480360360208110156107f8576000806107f5613a34565b50505b50356001600160a01b03166122ac565b6108106123d1565b60405160208082528190810183818151815260200191508051906020019060200280838360005b8381101561084f578082015183820152602001610837565b505050509050019250505060405180910390f35b61031b612458565b6102626004803603602081101561088a57600080610887613a34565b50505b50356001600160a01b0316612465565b610262612515565b61038b600480360360208110156108c1576000806108be613a34565b50505b50356001600160a01b03166125e4565b6102ca612604565b610262600480360360808110156108f8576000806108f5613a34565b50505b6001600160a01b038235811692602081013590911691810190606081016040820135600160201b81111561093457600080610931613a34565b50505b82018360208201111561094f5760008061094c613a34565b50505b803590602001918460018302840111600160201b8311171561097957600080610976613a34565b50505b91908080601f01602080910402602001604051908101604052818152929190602084018383808284376000920191909152509295949360208101935035915050600160201b8111156109d3576000806109d0613a34565b50505b8201836020820111156109ee576000806109eb613a34565b50505b803590602001918460208302840111600160201b83111715610a1857600080610a15613a34565b50505b919080806020026020016040519081016040528093929190818152602001838360200280828437600092019190915250929550612623945050505050565b6102ca60048036036020811015610a7557600080610a72613a34565b50505b50356127c4565b61026260048036036020811015610a9b57600080610a98613a34565b50505b50356001600160a01b03166127ee565b61031b60048036036020811015610aca57600080610ac7613a34565b50505b50356001600160a01b031661288a565b61031b60048036036020811015610af957600080610af6613a34565b50505b50356001600160a01b031661292e565b610810612942565b6105726129c8565b610b216129e7565b60405180806020018060200180602001848103845287818151815260200191508051906020019060200280838360005b83811015610b69578082015183820152602001610b51565b50505050905001848103835286818151815260200191508051906020019060200280838360005b83811015610ba8578082015183820152602001610b90565b50505050905001848103825285818151815260200191508051906020019060200280838360005b83811015610be7578082015183820152602001610bcf565b50505050905001965050505050505060405180910390f35b610c07612c74565b60405160208082528190810183818151815260200191508051906020019080838360005b83811015610c43578082015183820152602001610c2b565b50505050905090810190601f168015610c705780820380516001836020036101000a031916815260200191505b509250505060405180910390f35b60006038610c8a613a9f565b906101000a90046001600160a01b03166001600160a01b0316638da5cb5b6040518163ffffffff1660e01b81526004016020604051808303818680610ccd613afa565b158015610ce257600080610cdf613a34565b50505b505a610cec613b46565b5050505050158015610d0b573d6000803e3d6000610d08613a34565b50505b505050506040513d6020811015610d2a57600080610d27613a34565b50505b8101908080516001600160a01b0316925050505a610d46613c31565b6001600160a01b03161480610d7b5750610d5e61148e565b6001600160a01b03165a610d70613c31565b6001600160a01b0316145b80610da65750610d896111bb565b6001600160a01b03165a610d9b613c31565b6001600160a01b0316145b610dff5760405162461bcd60e51b815260206004820152601b60248201527f6f6e6c79206d616e616765722c20747261646572206f722044414f0000000000604482015260640160405180910390610dfc613a34565b50505b610e088161138d565b610e575760405162461bcd60e51b8152602060048201526013602482015272185cdcd95d081b9bdd081cdd5c1c1bdc9d1959606a1b604482015260640160405180910390610e54613a34565b50505b6001600160a01b0381166000908152603b60205260409020600090610e7a613a9f565b906101000a900460ff1615610ede5760405162461bcd60e51b815260206004820152601f60248201527f63616e6e6f742072656d6f76652070657273697374656e742061737365747300604482015260640160405180910390610edb613a34565b50505b806001600160a01b03166370a082315a63996d79a5598160e01b8152602081600483336000905af158600e01573d6000803e3d6000fd5b3d6001141558600a015760016000f35b8051925060005b6040811015610f4357600082820152602001610f2c565b5050506040516001600160e01b031960e084901b1681526001600160a01b0390911660048201526024016020604051808303818680610f80613afa565b158015610f9557600080610f92613a34565b50505b505a610f9f613b46565b5050505050158015610fbe573d6000803e3d6000610fbb613a34565b50505b505050506040513d6020811015610fdd57600080610fda613a34565b50505b8101908080511592506110429150505760405162461bcd60e51b815260206004820152601d60248201527f63616e6e6f742072656d6f7665206e6f6e2d656d70747920617373657400000060448201526064016040518091039061103f613a34565b50505b61104b81612d28565b50565b6000603361105a613a9f565b906101000a90046001600160a01b03166001600160a01b03165a61107c613c31565b6001600160a01b031614806110c5575060006037611098613a9f565b906101000a90046001600160a01b03166001600160a01b03165a6110ba613c31565b6001600160a01b0316145b6111175760405162461bcd60e51b815260206004820152601660248201527537b7363c9036b0b730b3b2b91037b9103a3930b232b960511b604482015260640160405180910390611114613a34565b50505b61104b81612f6a565b6000603361112c613a9f565b906101000a90046001600160a01b03166001600160a01b03165a61114e613c31565b6001600160a01b0316146111a05760405162461bcd60e51b815260206004820152600c60248201526b37b7363c9036b0b730b3b2b960a11b60448201526064016040518091039061119d613a34565b50505b6111a9816125e4565b6111b25761104b565b61104b8161328f565b60008060376111c8613a9f565b906101000a90046001600160a01b0316905090565b6000808060386111eb613a9f565b906101000a90046001600160a01b03166001600160a01b0316638b2f0f4f856040516001600160e01b031960e084901b1681526001600160a01b0390911660048201526024016020604051808303818680611244613afa565b15801561125957600080611256613a34565b50505b505a611263613b46565b5050505050158015611282573d6000803e3d600061127f613a34565b50505b505050506040513d60208110156112a15760008061129e613a34565b50505b81019080805193506000925050506001600160a01b03851663313ce5676040518163ffffffff1660e01b815260040160206040518083038186806112e3613afa565b1580156112f8576000806112f5613a34565b50505b505a611302613b46565b5050505050158015611321573d6000803e3d600061131e613a34565b50505b505050506040513d60208110156113405760008061133d613a34565b50505b81019080805160ff16935061136792505050600a82900a611361848761340a565b90613473565b925050505b92915050565b603a602052806000526040600020905061138a613a9f565b81565b6001600160a01b0381166000908152603a602052604081206113ad613a9f565b151592915050565b600060336113c1613a9f565b906101000a90046001600160a01b03166001600160a01b03165a6113e3613c31565b6001600160a01b0316146114355760405162461bcd60e51b815260206004820152600c60248201526b37b7363c9036b0b730b3b2b960a11b604482015260640160405180910390611432613a34565b50505b60005b815181101561148a5761145d82828151811061145057fe5b60200260200101516125e4565b61146657611482565b61148282828151811061147557fe5b602002602001015161328f565b600101611438565b5050565b60008060336111c8613a9f565b600060336114a7613a9f565b906101000a90046001600160a01b03166001600160a01b03165a6114c9613c31565b6001600160a01b03161461151b5760405162461bcd60e51b815260206004820152600c60248201526b37b7363c9036b0b730b3b2b960a11b604482015260640160405180910390611518613a34565b50505b816033600181611529613a9f565b816001600160a01b0302191690836001600160a01b031602179061154b613c77565b505050806034908051611562929160200190613cc5565b507f6ed15082ad038474841528b5badca105106d4463e44b5d434130dfb299aa366982826040516001600160a01b038316815260406020820181815290820183818151815260200191508051906020019080838360005b838110156115d15780820151838201526020016115b9565b50505050905090810190601f1680156115fe5780820380516001836020036101000a031916815260200191505b50935050505060405180910390a15050565b60008080603861161e613a9f565b906101000a90046001600160a01b03166001600160a01b031663b7a54526846040516001600160e01b031960e084901b1681526001600160a01b03909116600482015260240160408051808303818680611676613afa565b15801561168b57600080611688613a34565b50505b505a611695613b46565b50505050501580156116b4573d6000803e3d60006116b1613a34565b50505b505050506040513d60408110156116d3576000806116d0613a34565b50505b8101908080519291906020018051939550929350505050915091565b600060336116fb613a9f565b906101000a90046001600160a01b03166001600160a01b03165a61171d613c31565b6001600160a01b03161461176f5760405162461bcd60e51b815260206004820152600c60248201526b37b7363c9036b0b730b3b2b960a11b60448201526064016040518091039061176c613a34565b50505b600080603861177c613a9f565b906101000a90046001600160a01b03166001600160a01b0316635c9bfc2b6040518163ffffffff1660e01b815260040160206040518083038186806117bf613afa565b1580156117d4576000806117d1613a34565b50505b505a6117de613b46565b50505050501580156117fd573d6000803e3d60006117fa613a34565b50505b505050506040513d602081101561181c57600080611819613a34565b50505b810190808051935060009250829150611836905085611610565b90925090508084111561188b5760405162461bcd60e51b815260206004820152601060248201526f34b73b30b634b210333930b1ba34b7b760811b604482015260640160405180910390611888613a34565b50505b61189582846134b3565b8411156118f15760405162461bcd60e51b815260206004820152601960248201527f657863656564656420616c6c6f77656420696e637265617365000000000000006044820152606401604051809103906118ee613a34565b50505b60008060386118fe613a9f565b906101000a90046001600160a01b03166001600160a01b031663ebee461d6040518163ffffffff1660e01b81526004016020604051808303818680611941613afa565b15801561195657600080611953613a34565b50505b505a611960613b46565b505050505015801561197f573d6000803e3d600061197c613a34565b50505b505050506040513d602081101561199e5760008061199b613a34565b50505b8101908080519350879250829150603c90506119b8613c77565b505050805a6119c5613d65565b0180603d6119d1613c77565b5050507f4db9119741646c419f1ceccdf112b5b9a9b4516355e742e1fa9c479f4dec98da85603d611a00613a9f565b60405191825260208201526040908101905180910390a1505050505050565b60006033611a2b613a9f565b906101000a90046001600160a01b03166001600160a01b03165a611a4d613c31565b6001600160a01b031614611a9f5760405162461bcd60e51b815260206004820152600c60248201526b37b7363c9036b0b730b3b2b960a11b604482015260640160405180910390611a9c613a34565b50505b60005b815181101561148a57611aba82828151811061145057fe5b15611ac457611ae0565b611ae0828281518110611ad357fe5b6020026020010151613512565b600101611aa2565b6000806033611af5613a9f565b906101000a90046001600160a01b03166001600160a01b03165a611b17613c31565b6001600160a01b03161480611b60575060006037611b33613a9f565b906101000a90046001600160a01b03166001600160a01b03165a611b55613c31565b6001600160a01b0316145b611bb25760405162461bcd60e51b815260206004820152601660248201527537b7363c9036b0b730b3b2b91037b9103a3930b232b960511b604482015260640160405180910390611baf613a34565b50505b6001600160a01b038316611c155760405162461bcd60e51b815260206004820152601c60248201527f6e6f6e2d7a65726f206164647265737320697320726571756972656400000000604482015260640160405180910390611c12613a34565b50505b6000806038611c22613a9f565b906101000a90046001600160a01b03166001600160a01b0316637027ea6c856040516001600160e01b031960e084901b1681526001600160a01b0390911660048201526024016020604051808303818680611c7b613afa565b158015611c9057600080611c8d613a34565b50505b505a611c9a613b46565b5050505050158015611cb9573d6000803e3d6000611cb6613a34565b50505b505050506040513d6020811015611cd857600080611cd5613a34565b50505b81019080805193505050506001600160a01b038116611d3c5760405162461bcd60e51b815260206004820152601360248201527234b73b30b634b2103232b9ba34b730ba34b7b760691b604482015260640160405180910390611d39613a34565b50505b806001600160a01b031663e23ff4375a63996d79a5598160e01b8152602081600483336000905af158600e01573d6000803e3d6000fd5b3d6001141558600a015760016000f35b8051925060005b6040811015611da157600082820152602001611d8a565b505050856040518363ffffffff1660e01b815260040180836001600160a01b0316815260200180602001828103825283818151815260200191508051906020019080838360005b83811015611e00578082015183820152602001611de8565b50505050905090810190601f168015611e2d5780820380516001836020036101000a031916815260200191505b50935050505060206040518083038160008780611e48613afa565b158015611e5d57600080611e5a613a34565b50505b505a611e67613dab565b505050505050158015611e87573d6000803e3d6000611e84613a34565b50505b505050506040513d6020811015611ea657600080611ea3613a34565b50505b8101908080519250611f009150505760405162461bcd60e51b815260206004820152601360248201527234b73b30b634b2103a3930b739b0b1ba34b7b760691b604482015260640160405180910390611efd613a34565b50505b6000846001600160a01b0316846040518082805190602001908083835b60208310611f3c5780518252601f199092019160209182019101611f1d565b6001836020036101000a0380198251168184511680821785525050505050509050019150506000604051808303816000865a611f76613dab565b5050505050509150503d8060008114611fab576040513d603f01601f191681016040523d815291503d6000602084013e611fb0565b606091505b50909150506001811515146120145760405162461bcd60e51b815260206004820152601a60248201527f6661696c656420746f2065786563757465207468652063616c6c000000000000604482015260640160405180910390612011613a34565b50505b7f508f3afa87f72dce865a2321107666b28ac822c23a8c0555fbeb3424cf3de5635a63996d79a5598160e01b8152602081600483336000905af158600e01573d6000803e3d6000fd5b3d6001141558600a015760016000f35b8051925060005b604081101561208b57600082820152602001612074565b50505061209661148e565b5a61209f613d65565b6040516001600160a01b039384168152919092166020820152604080820192909252606001905180910390a1506001949350505050565b603d61138a613a9f565b600060336120ec613a9f565b906101000a90046001600160a01b03166001600160a01b03165a61210e613c31565b6001600160a01b0316146121605760405162461bcd60e51b815260206004820152600c60248201526b37b7363c9036b0b730b3b2b960a11b60448201526064016040518091039061215d613a34565b50505b6000603760018161216f613a9f565b816001600160a01b0302191690836001600160a01b0316021790612191613c77565b505050565b603b602052806000526040600020600091506121b0613a9f565b906101000a900460ff1681565b603c61138a613a9f565b60008060386121d4613a9f565b906101000a90046001600160a01b03166001600160a01b031663cc435bf3836040516001600160e01b031960e084901b1681526001600160a01b039091166004820152602401602060405180830381868061222d613afa565b1580156122425760008061223f613a34565b50505b505a61224c613b46565b505050505015801561226b573d6000803e3d6000612268613a34565b50505b505050506040513d602081101561228a57600080612287613a34565b50505b81019080805195945050505050565b60006039806122a6613a9f565b91505090565b600060336122b8613a9f565b906101000a90046001600160a01b03166001600160a01b03165a6122da613c31565b6001600160a01b03161461232c5760405162461bcd60e51b815260206004820152600c60248201526b37b7363c9036b0b730b3b2b960a11b604482015260640160405180910390612329613a34565b50505b603d612336613a9f565b5a61233f613d65565b101561239a5760405162461bcd60e51b815260206004820152601960248201527f66656520696e6372656173652064656c61792061637469766500000000000000604482015260640160405180910390612397613a34565b50505b6123ad81603c6123a8613a9f565b61359e565b600080603c6123ba613c77565b5050506000603d81906123cb613c77565b50505050565b60606035806123de613a9f565b806020026020016040519081016040528181529190602083018280612401613a9f565b801561244e57602002820191906000526020600020905b600082612423613a9f565b906101000a90046001600160a01b03166001600160a01b031681526020019060010190808311612418575b5050505050905090565b60006035806122a6613a9f565b60006033612471613a9f565b906101000a90046001600160a01b03166001600160a01b03165a612493613c31565b6001600160a01b0316146124e55760405162461bcd60e51b815260206004820152600c60248201526b37b7363c9036b0b730b3b2b960a11b6044820152606401604051809103906124e2613a34565b50505b8060376001816124f3613a9f565b816001600160a01b0302191690836001600160a01b03160217906123cb613c77565b60006033612521613a9f565b906101000a90046001600160a01b03166001600160a01b03165a612543613c31565b6001600160a01b0316146125955760405162461bcd60e51b815260206004820152600c60248201526b37b7363c9036b0b730b3b2b960a11b604482015260640160405180910390612592613a34565b50505b600080603c6125a2613c77565b5050506000603d81906125b3613c77565b5050507fc6f04bf43cbdf1ba5d51b4afa160bb3c7e13858b1409aa32868b239bb2f8d84960405160405180910390a1565b6001600160a01b03811660009081526036602052604081206113ad613a9f565b60006038612610613a9f565b906101000a90046001600160a01b031681565b6001600061262f613a9f565b906101000a900460ff168061264757506126476137f1565b806126645750600080612658613a9f565b906101000a900460ff16155b6126a85760405162461bcd60e51b815260040180806020018281038252602e815260200180613eb2602e9139604001915050604051809103906126a5613a34565b50505b60006001816126b5613a9f565b906101000a900460ff16159050801561271b5760016000610100816126d8613a9f565b8160ff021916908315150217906126ed613c77565b50505060016000806101000a81612702613a9f565b8160ff02191690831515021790612717613c77565b5050505b6127258484613862565b846038600181612733613a9f565b816001600160a01b0302191690836001600160a01b0316021790612755613c77565b50505060005b82518160ff16101561278e57612786838260ff168151811061277957fe5b6020026020010151612f6a565b60010161275b565b5080156127bd57600080610100816127a4613a9f565b8160ff021916908315150217906127b9613c77565b5050505b5050505050565b603981816127d0613a9f565b81106127d857fe5b9060005260206000200160009150612610613a9f565b600060336127fa613a9f565b906101000a90046001600160a01b03166001600160a01b03165a61281c613c31565b6001600160a01b03161461286e5760405162461bcd60e51b815260206004820152600c60248201526b37b7363c9036b0b730b3b2b960a11b60448201526064016040518091039061286b613a34565b50505b612877816125e4565b156128815761104b565b61104b81613512565b6000816001600160a01b03166370a082315a63996d79a5598160e01b8152602081600483336000905af158600e01573d6000803e3d6000fd5b3d6001141558600a015760016000f35b8051925060005b60408110156128f1576000828201526020016128da565b5050506040516001600160e01b031960e084901b1681526001600160a01b039091166004820152602401602060405180830381868061222d613afa565b600061136c8261293d8461288a565b6111dd565b606060398061294f613a9f565b806020026020016040519081016040528181529190602083018280612972613a9f565b801561244e57602002820191906000526020600020905b600082612994613a9f565b906101000a90046001600160a01b03166001600160a01b031681526020019060010190808311612989575050505050905090565b600080603c6129d5613a9f565b603d6129df613a9f565b915091509091565b606080606060006039806129f9613a9f565b9050905060608167ffffffffffffffff81118015612a1f57600080612a1c613a34565b50505b50604051908082528060200260200182016040528015612a49578160200160208202803683370190505b50905060608267ffffffffffffffff81118015612a6e57600080612a6b613a34565b50505b50604051908082528060200260200182016040528015612a98578160200160208202803683370190505b50905060608367ffffffffffffffff81118015612abd57600080612aba613a34565b50505b50604051908082528060200260200182016040528015612ae7578160200160208202803683370190505b50905060005b84811015612c6657600060398281612b03613a9f565b8110612b0b57fe5b90600052602060002001600090612b20613a9f565b906101000a90046001600160a01b03169050612b3b8161288a565b848381518110612b4757fe5b60200260200101818152505080858381518110612b6057fe5b6001600160a01b039092166020928302919091019091015260006038612b84613a9f565b906101000a90046001600160a01b03166001600160a01b0316638b2f0f4f826040516001600160e01b031960e084901b1681526001600160a01b0390911660048201526024016020604051808303818680612bdd613afa565b158015612bf257600080612bef613a34565b50505b505a612bfc613b46565b5050505050158015612c1b573d6000803e3d6000612c18613a34565b50505b505050506040513d6020811015612c3a57600080612c37613a34565b50505b810190808051925085915084905081518110612c5257fe5b602090810291909101015250600101612aed565b509195509350915050909192565b6060603480612c81613a9f565b600181600116156101000203166002900480601f016020809104026020016040519081016040528181529190602083018280612cbb613a9f565b6001816001161561010002031660029004801561244e5780601f10612cf5576101008083612ce7613a9f565b04028352916020019161244e565b820191906000526020600020905b81612d0c613a9f565b81529060010190602001808311612d0357509395945050505050565b6000603980612d35613a9f565b6001600160a01b0384166000908152603a6020529092509050612d65600160408320612d5f613a9f565b906138a9565b905060006039612d768460016138a9565b81612d7f613a9f565b8110612d8757fe5b90600052602060002001600090612d9c613a9f565b906101000a90046001600160a01b031690508060398381612dbb613a9f565b8110612dc357fe5b90600052602060002001600181612dd8613a9f565b816001600160a01b0302191690836001600160a01b0316021790612dfa613c77565b50612e0a915083905060016134b3565b6001600160a01b0382166000908152603a602052604090208190612e2c613c77565b5050506001600160a01b0384166000908152603a602052604081208190612e51613c77565b505050603980612e5f613a9f565b80612e6657fe5b60019003818190600052602060002001600181612e81613a9f565b906001600160a01b0302191690612e96613c77565b505090612ea1613c77565b50507f9b4f55639e5e283319baee5bc4e69a5625a8e3a1cc004af968f4fee7250220275a63996d79a5598160e01b8152602081600483336000905af158600e01573d6000803e3d6000fd5b3d6001141558600a015760016000f35b8051925060005b6040811015612f1a57600082820152602001612f03565b505050612f2561148e565b8660405180846001600160a01b03168152602001836001600160a01b03168152602001826001600160a01b03168152602001935050505060405180910390a150505050565b60006038612f76613a9f565b906101000a90046001600160a01b03166001600160a01b031663aa12ae4d6040518163ffffffff1660e01b81526004016020604051808303818680612fb9613afa565b158015612fce57600080612fcb613a34565b50505b505a612fd8613b46565b5050505050158015612ff7573d6000803e3d6000612ff4613a34565b50505b505050506040513d602081101561301657600080613013613a34565b50505b81019080805192506039915081905061302d613a9f565b9050106130825760405162461bcd60e51b81526020600482015260166024820152751b585e1a5b5d5b48185cdcd95d1cc81c995858da195960521b60448201526064016040518091039061307f613a34565b50505b61308b8161138d565b156130e55760405162461bcd60e51b815260206004820152601760248201527f617373657420616c726561647920737570706f727465640000000000000000006044820152606401604051809103906130e2613a34565b50505b6130ee816121c7565b151560011461313c5760405162461bcd60e51b815260206004820152600d60248201526c1a5b9d985b1a5908185cdcd95d609a1b604482015260640160405180910390613139613a34565b50505b8060398060018161314b613a9f565b018082613156613c77565b505060009283526000190191602091502001600181613173613a9f565b816001600160a01b0302191690836001600160a01b0316021790613195613c77565b5050506039806131a3613a9f565b6001600160a01b0383166000908152603a6020529091506040902081906131c8613c77565b5050507f0a7426a0630aad7dbc4d5ca5b7d9aac1133d77d2db987caaf4b4186c85d6593f5a63996d79a5598160e01b8152602081600483336000905af158600e01573d6000803e3d6000fd5b3d6001141558600a015760016000f35b8051925060005b60408110156132425760008282015260200161322b565b50505061324d61148e565b8360405180846001600160a01b03168152602001836001600160a01b03168152602001826001600160a01b03168152602001935050505060405180910390a150565b600060358061329c613a9f565b6001600160a01b0384166000908152603660205290925090506132c6600160408320612d5f613a9f565b9050600060356132d78460016138a9565b816132e0613a9f565b81106132e857fe5b906000526020600020016000906132fd613a9f565b906101000a90046001600160a01b03169050806035838161331c613a9f565b811061332457fe5b90600052602060002001600181613339613a9f565b816001600160a01b0302191690836001600160a01b031602179061335b613c77565b5061336b915083905060016134b3565b6001600160a01b0382166000908152603660205260409020819061338d613c77565b5050506001600160a01b038416600090815260366020526040812081906133b2613c77565b5050506035806133c0613a9f565b806133c757fe5b600190038181906000526020600020016001816133e2613a9f565b906001600160a01b03021916906133f7613c77565b505090613402613c77565b505050505050565b6000826134195750600061136c565b8282028284828161342657fe5b041461346c5760405162461bcd60e51b8152600401808060200182810382526021815260200180613e916021913960400191505060405180910390613469613a34565b50505b9392505050565b600061346c838360405160408082019052601a81527f536166654d6174683a206469766973696f6e206279207a65726f00000000000060208201526138e9565b60008282018381101561346c5760405162461bcd60e51b815260206004820152601b60248201527f536166654d6174683a206164646974696f6e206f766572666c6f770000000000604482015260640160405180910390613469613a34565b80603580600181613521613a9f565b01808261352c613c77565b505060009283526000190191602091502001600181613549613a9f565b816001600160a01b0302191690836001600160a01b031602179061356b613c77565b505050603580613579613a9f565b6001600160a01b038316600090815260366020529091506040902081906123cb613c77565b600060386135aa613a9f565b906101000a90046001600160a01b03166001600160a01b031663046b72c483836040516001600160e01b031960e085901b1681526001600160a01b03909216600483015260248201526044016000604051808303816000878061360b613afa565b1580156136205760008061361d613a34565b50505b505a61362a613dab565b50505050505015801561364a573d6000803e3d6000613647613a34565b50505b50505050600080603860009061365e613a9f565b906101000a90046001600160a01b03166001600160a01b031663b7a54526856040516001600160e01b031960e084901b1681526001600160a01b039091166004820152602401604080518083038186806136b6613afa565b1580156136cb576000806136c8613a34565b50505b505a6136d5613b46565b50505050501580156136f4573d6000803e3d60006136f1613a34565b50505b505050506040513d604081101561371357600080613710613a34565b50505b81019080805192919060200180519395509293507f1780c04ddc6f0b32d866c7a3d7583f53515ef49ed2126af868f804f491601266925050505a63996d79a5598160e01b8152602081600483336000905af158600e01573d6000803e3d6000fd5b3d6001141558600a015760016000f35b8051925060005b60408110156137a25760008282015260200161378b565b5050506137ad61148e565b848460405180856001600160a01b03168152602001846001600160a01b0316815260200183815260200182815260200194505050505060405180910390a150505050565b6000805a63996d79a5598160e01b8152602081600483336000905af158600e01573d6000803e3d6000fd5b3d6001141558600a015760016000f35b8051925060005b604081101561384a57600082820152602001613833565b505050905060008161385a613afa565b159250505090565b816033600181613870613a9f565b816001600160a01b0302191690836001600160a01b0316021790613892613c77565b505050806034908051612191929160200190613cc5565b600061346c838360405160408082019052601e81527f536166654d6174683a207375627472616374696f6e206f766572666c6f7700006020820152613994565b6000818361397e5760405162461bcd60e51b81526004018080602001828103825283818151815260200191508051906020019080838360005b8381101561393a578082015183820152602001613922565b50505050905090810190601f1680156139675780820380516001836020036101000a031916815260200191505b50925050506040518091039061397b613a34565b50505b50600083858161398a57fe5b0495945050505050565b60008184841115613a2c5760405162461bcd60e51b81526004018080602001828103825283818151815260200191508051906020019080838360005b838110156139e85780820151838201526020016139d0565b50505050905090810190601f168015613a155780820380516001836020036101000a031916815260200191505b509250505060405180910390613a29613a34565b50505b505050900390565b632a2a7adb598160e01b8152600481016020815285602082015260005b86811015613a6c578086015182820160400152602001613a51565b506020828760640184336000905af158600e01573d6000803e3d6000fd5b3d6001141558600a015760016000f35b505050565b6303daa959598160e01b8152836004820152602081602483336000905af158600e01573d6000803e3d6000fd5b3d6001141558600a015760016000f35b8051935060005b604081101561219157600082820152602001613ae3565b638435035b598160e01b8152836004820152602081602483336000905af158600e01573d6000803e3d6000fd5b3d6001141558600a015760016000f35b80516000825293506020613ae3565b638540661f598160e01b8152613b77565b808083111561136c575090919050565b808083101561136c575090919050565b836004820152846024820152606060448201528660648201526084810160005b88811015613baf578088015182820152602001613b97565b506060828960a40184336000905af158600e01573d6000803e3d6000fd5b3d6001141558600a015760016000f35b815160408301513d6000853e8b8b82606087013350600060045af15059613c048d3d613b67565b8c01613c108187613b57565b5b82811015613c255760008152602001613c11565b50929c50505050505050565b6373509064598160e01b8152602081600483336000905af158600e01573d6000803e3d6000fd5b3d6001141558600a015760016000f35b80516000825293506020613ae3565b6322bd64c0598160e01b8152836004820152846024820152600081604483336000905af158600e01573d6000803e3d6000fd5b3d6001141558600a015760016000f35b600081526020613ae3565b8280613ccf613a9f565b600181600116156101000203166002900490600052602060002090601f016020900481019282601f10613d1657805160ff19168380011785613d0f613c77565b5050613d55565b82800160010185613d25613c77565b50508215613d55579182015b82811115613d5557825182613d44613c77565b505091602001919060010190613d31565b50613d61929150613e71565b5090565b63bdbf8c36598160e01b8152602081600483336000905af158600e01573d6000803e3d6000fd5b3d6001141558600a015760016000f35b80516000825293506020613ae3565b6385979f76598160e01b8152836004820152846024820152606060448201528760648201526084810160005b89811015613def578089015182820152602001613dd7565b506060828a60a40184336000905af158600e01573d6000803e3d6000fd5b3d6001141558600a015760016000f35b815160408301513d6000853e8c8c82606087013350600060045af15059613e448e3d613b67565b8d01613e508187613b57565b5b82811015613e655760008152602001613e51565b50929d50505050505050565b80821115613d615760008082613e85613c77565b505050600101613e7156fe536166654d6174683a206d756c7469706c69636174696f6e206f766572666c6f77436f6e747261637420696e7374616e63652068617320616c7265616479206265656e20696e697469616c697a6564",
  "deployedBytecode": "0x608060405234801561001957600080610016613a34565b50505b50600436106102255760003560e01c80639240d2991161012e578063c688aa64116100b6578063d8af8ed411610085578063d8af8ed414610ada578063e5406dbf14610b09578063ed5b165d14610b11578063f09d14d714610b19578063fed4416a14610bff57610225565b8063c688aa64146108d9578063c68dbb3714610a56578063ca6d56dc14610a7c578063cd88e55814610aab57610225565b8063a30e3fa9116100fd578063a30e3fa914610863578063a6bc18f91461086b578063b8bd81e61461089a578063bbbf725b146108a2578063c45a0155146108d157610225565b80639240d299146107a2578063936553c4146107d1578063969eed27146107d95780639eab52531461080857610225565b806352213663116101b15780637ae7cfb5116101805780637ae7cfb5146106845780637b4d0c631461075b5780637c8afd511461076357806380dd4f621461076b5780638f3234391461079a57610225565b8063522136631461046c5780635f6eceab146105435780636708f5d71461058a5780636f4d469b146105bf57610225565b806329c07fba116101f857806329c07fba146102e65780633c570d7d1461032d578063464b41581461035c57806346ee84b01461039f578063481c6a751461046457610225565b80630646858714610233578063093b8825146102645780630b1ca49a146102935780631758078b146102c2575b600080610230613a34565b50505b610262600480360360208110156102525760008061024f613a34565b50505b50356001600160a01b0316610c7e565b005b6102626004803603602081101561028357600080610280613a34565b50505b50356001600160a01b031661104e565b610262600480360360208110156102b2576000806102af613a34565b50505b50356001600160a01b0316611120565b6102ca6111bb565b6040516001600160a01b03909116815260200160405180910390f35b61031b6004803603604081101561030557600080610302613a34565b50505b506001600160a01b0381351690602001356111dd565b60405190815260200160405180910390f35b61031b6004803603602081101561034c57600080610349613a34565b50505b50356001600160a01b0316611372565b61038b6004803603602081101561037b57600080610378613a34565b50505b50356001600160a01b031661138d565b604051901515815260200160405180910390f35b610262600480360360208110156103be576000806103bb613a34565b50505b810190602081018135600160201b8111156103e1576000806103de613a34565b50505b8201836020820111156103fc576000806103f9613a34565b50505b803590602001918460208302840111600160201b8311171561042657600080610423613a34565b50505b9190808060200260200160405190810160405280939291908181526020018383602002808284376000920191909152509295506113b5945050505050565b6102ca61148e565b6102626004803603604081101561048b57600080610488613a34565b50505b6001600160a01b038235169190810190604081016020820135600160201b8111156104be576000806104bb613a34565b50505b8201836020820111156104d9576000806104d6613a34565b50505b803590602001918460018302840111600160201b8311171561050357600080610500613a34565b50505b91908080601f016020809104026020016040519081016040528181529291906020840183838082843760009201919091525092955061149b945050505050565b610572600480360360208110156105625760008061055f613a34565b50505b50356001600160a01b0316611610565b60405191825260208201526040908101905180910390f35b610262600480360360408110156105a9576000806105a6613a34565b50505b506001600160a01b0381351690602001356116ef565b610262600480360360208110156105de576000806105db613a34565b50505b810190602081018135600160201b811115610601576000806105fe613a34565b50505b82018360208201111561061c57600080610619613a34565b50505b803590602001918460208302840111600160201b8311171561064657600080610643613a34565b50505b919080806020026020016040519081016040528093929190818152602001838360200280828437600092019190915250929550611a1f945050505050565b61038b600480360360408110156106a3576000806106a0613a34565b50505b6001600160a01b038235169190810190604081016020820135600160201b8111156106d6576000806106d3613a34565b50505b8201836020820111156106f1576000806106ee613a34565b50505b803590602001918460018302840111600160201b8311171561071b57600080610718613a34565b50505b91908080601f0160208091040260200160405190810160405281815292919060208401838380828437600092019190915250929550611ae8945050505050565b61031b6120d6565b6102626120e0565b61038b6004803603602081101561078a57600080610787613a34565b50505b50356001600160a01b0316612196565b61031b6121bd565b61038b600480360360208110156107c1576000806107be613a34565b50505b50356001600160a01b03166121c7565b61031b612299565b610262600480360360208110156107f8576000806107f5613a34565b50505b50356001600160a01b03166122ac565b6108106123d1565b60405160208082528190810183818151815260200191508051906020019060200280838360005b8381101561084f578082015183820152602001610837565b505050509050019250505060405180910390f35b61031b612458565b6102626004803603602081101561088a57600080610887613a34565b50505b50356001600160a01b0316612465565b610262612515565b61038b600480360360208110156108c1576000806108be613a34565b50505b50356001600160a01b03166125e4565b6102ca612604565b610262600480360360808110156108f8576000806108f5613a34565b50505b6001600160a01b038235811692602081013590911691810190606081016040820135600160201b81111561093457600080610931613a34565b50505b82018360208201111561094f5760008061094c613a34565b50505b803590602001918460018302840111600160201b8311171561097957600080610976613a34565b50505b91908080601f01602080910402602001604051908101604052818152929190602084018383808284376000920191909152509295949360208101935035915050600160201b8111156109d3576000806109d0613a34565b50505b8201836020820111156109ee576000806109eb613a34565b50505b803590602001918460208302840111600160201b83111715610a1857600080610a15613a34565b50505b919080806020026020016040519081016040528093929190818152602001838360200280828437600092019190915250929550612623945050505050565b6102ca60048036036020811015610a7557600080610a72613a34565b50505b50356127c4565b61026260048036036020811015610a9b57600080610a98613a34565b50505b50356001600160a01b03166127ee565b61031b60048036036020811015610aca57600080610ac7613a34565b50505b50356001600160a01b031661288a565b61031b60048036036020811015610af957600080610af6613a34565b50505b50356001600160a01b031661292e565b610810612942565b6105726129c8565b610b216129e7565b60405180806020018060200180602001848103845287818151815260200191508051906020019060200280838360005b83811015610b69578082015183820152602001610b51565b50505050905001848103835286818151815260200191508051906020019060200280838360005b83811015610ba8578082015183820152602001610b90565b50505050905001848103825285818151815260200191508051906020019060200280838360005b83811015610be7578082015183820152602001610bcf565b50505050905001965050505050505060405180910390f35b610c07612c74565b60405160208082528190810183818151815260200191508051906020019080838360005b83811015610c43578082015183820152602001610c2b565b50505050905090810190601f168015610c705780820380516001836020036101000a031916815260200191505b509250505060405180910390f35b60006038610c8a613a9f565b906101000a90046001600160a01b03166001600160a01b0316638da5cb5b6040518163ffffffff1660e01b81526004016020604051808303818680610ccd613afa565b158015610ce257600080610cdf613a34565b50505b505a610cec613b46565b5050505050158015610d0b573d6000803e3d6000610d08613a34565b50505b505050506040513d6020811015610d2a57600080610d27613a34565b50505b8101908080516001600160a01b0316925050505a610d46613c31565b6001600160a01b03161480610d7b5750610d5e61148e565b6001600160a01b03165a610d70613c31565b6001600160a01b0316145b80610da65750610d896111bb565b6001600160a01b03165a610d9b613c31565b6001600160a01b0316145b610dff5760405162461bcd60e51b815260206004820152601b60248201527f6f6e6c79206d616e616765722c20747261646572206f722044414f0000000000604482015260640160405180910390610dfc613a34565b50505b610e088161138d565b610e575760405162461bcd60e51b8152602060048201526013602482015272185cdcd95d081b9bdd081cdd5c1c1bdc9d1959606a1b604482015260640160405180910390610e54613a34565b50505b6001600160a01b0381166000908152603b60205260409020600090610e7a613a9f565b906101000a900460ff1615610ede5760405162461bcd60e51b815260206004820152601f60248201527f63616e6e6f742072656d6f76652070657273697374656e742061737365747300604482015260640160405180910390610edb613a34565b50505b806001600160a01b03166370a082315a63996d79a5598160e01b8152602081600483336000905af158601d01573d60011458600c01573d6000803e3d621234565260ea61109c528051925060005b6040811015610f4357600082820152602001610f2c565b5050506040516001600160e01b031960e084901b1681526001600160a01b0390911660048201526024016020604051808303818680610f80613afa565b158015610f9557600080610f92613a34565b50505b505a610f9f613b46565b5050505050158015610fbe573d6000803e3d6000610fbb613a34565b50505b505050506040513d6020811015610fdd57600080610fda613a34565b50505b8101908080511592506110429150505760405162461bcd60e51b815260206004820152601d60248201527f63616e6e6f742072656d6f7665206e6f6e2d656d70747920617373657400000060448201526064016040518091039061103f613a34565b50505b61104b81612d28565b50565b6000603361105a613a9f565b906101000a90046001600160a01b03166001600160a01b03165a61107c613c31565b6001600160a01b031614806110c5575060006037611098613a9f565b906101000a90046001600160a01b03166001600160a01b03165a6110ba613c31565b6001600160a01b0316145b6111175760405162461bcd60e51b815260206004820152601660248201527537b7363c9036b0b730b3b2b91037b9103a3930b232b960511b604482015260640160405180910390611114613a34565b50505b61104b81612f6a565b6000603361112c613a9f565b906101000a90046001600160a01b03166001600160a01b03165a61114e613c31565b6001600160a01b0316146111a05760405162461bcd60e51b815260206004820152600c60248201526b37b7363c9036b0b730b3b2b960a11b60448201526064016040518091039061119d613a34565b50505b6111a9816125e4565b6111b25761104b565b61104b8161328f565b60008060376111c8613a9f565b906101000a90046001600160a01b0316905090565b6000808060386111eb613a9f565b906101000a90046001600160a01b03166001600160a01b0316638b2f0f4f856040516001600160e01b031960e084901b1681526001600160a01b0390911660048201526024016020604051808303818680611244613afa565b15801561125957600080611256613a34565b50505b505a611263613b46565b5050505050158015611282573d6000803e3d600061127f613a34565b50505b505050506040513d60208110156112a15760008061129e613a34565b50505b81019080805193506000925050506001600160a01b03851663313ce5676040518163ffffffff1660e01b815260040160206040518083038186806112e3613afa565b1580156112f8576000806112f5613a34565b50505b505a611302613b46565b5050505050158015611321573d6000803e3d600061131e613a34565b50505b505050506040513d60208110156113405760008061133d613a34565b50505b81019080805160ff16935061136792505050600a82900a611361848761340a565b90613473565b925050505b92915050565b603a602052806000526040600020905061138a613a9f565b81565b6001600160a01b0381166000908152603a602052604081206113ad613a9f565b151592915050565b600060336113c1613a9f565b906101000a90046001600160a01b03166001600160a01b03165a6113e3613c31565b6001600160a01b0316146114355760405162461bcd60e51b815260206004820152600c60248201526b37b7363c9036b0b730b3b2b960a11b604482015260640160405180910390611432613a34565b50505b60005b815181101561148a5761145d82828151811061145057fe5b60200260200101516125e4565b61146657611482565b61148282828151811061147557fe5b602002602001015161328f565b600101611438565b5050565b60008060336111c8613a9f565b600060336114a7613a9f565b906101000a90046001600160a01b03166001600160a01b03165a6114c9613c31565b6001600160a01b03161461151b5760405162461bcd60e51b815260206004820152600c60248201526b37b7363c9036b0b730b3b2b960a11b604482015260640160405180910390611518613a34565b50505b816033600181611529613a9f565b816001600160a01b0302191690836001600160a01b031602179061154b613c77565b505050806034908051611562929160200190613cc5565b507f6ed15082ad038474841528b5badca105106d4463e44b5d434130dfb299aa366982826040516001600160a01b038316815260406020820181815290820183818151815260200191508051906020019080838360005b838110156115d15780820151838201526020016115b9565b50505050905090810190601f1680156115fe5780820380516001836020036101000a031916815260200191505b50935050505060405180910390a15050565b60008080603861161e613a9f565b906101000a90046001600160a01b03166001600160a01b031663b7a54526846040516001600160e01b031960e084901b1681526001600160a01b03909116600482015260240160408051808303818680611676613afa565b15801561168b57600080611688613a34565b50505b505a611695613b46565b50505050501580156116b4573d6000803e3d60006116b1613a34565b50505b505050506040513d60408110156116d3576000806116d0613a34565b50505b8101908080519291906020018051939550929350505050915091565b600060336116fb613a9f565b906101000a90046001600160a01b03166001600160a01b03165a61171d613c31565b6001600160a01b03161461176f5760405162461bcd60e51b815260206004820152600c60248201526b37b7363c9036b0b730b3b2b960a11b60448201526064016040518091039061176c613a34565b50505b600080603861177c613a9f565b906101000a90046001600160a01b03166001600160a01b0316635c9bfc2b6040518163ffffffff1660e01b815260040160206040518083038186806117bf613afa565b1580156117d4576000806117d1613a34565b50505b505a6117de613b46565b50505050501580156117fd573d6000803e3d60006117fa613a34565b50505b505050506040513d602081101561181c57600080611819613a34565b50505b810190808051935060009250829150611836905085611610565b90925090508084111561188b5760405162461bcd60e51b815260206004820152601060248201526f34b73b30b634b210333930b1ba34b7b760811b604482015260640160405180910390611888613a34565b50505b61189582846134b3565b8411156118f15760405162461bcd60e51b815260206004820152601960248201527f657863656564656420616c6c6f77656420696e637265617365000000000000006044820152606401604051809103906118ee613a34565b50505b60008060386118fe613a9f565b906101000a90046001600160a01b03166001600160a01b031663ebee461d6040518163ffffffff1660e01b81526004016020604051808303818680611941613afa565b15801561195657600080611953613a34565b50505b505a611960613b46565b505050505015801561197f573d6000803e3d600061197c613a34565b50505b505050506040513d602081101561199e5760008061199b613a34565b50505b8101908080519350879250829150603c90506119b8613c77565b505050805a6119c5613d65565b0180603d6119d1613c77565b5050507f4db9119741646c419f1ceccdf112b5b9a9b4516355e742e1fa9c479f4dec98da85603d611a00613a9f565b60405191825260208201526040908101905180910390a1505050505050565b60006033611a2b613a9f565b906101000a90046001600160a01b03166001600160a01b03165a611a4d613c31565b6001600160a01b031614611a9f5760405162461bcd60e51b815260206004820152600c60248201526b37b7363c9036b0b730b3b2b960a11b604482015260640160405180910390611a9c613a34565b50505b60005b815181101561148a57611aba82828151811061145057fe5b15611ac457611ae0565b611ae0828281518110611ad357fe5b6020026020010151613512565b600101611aa2565b6000806033611af5613a9f565b906101000a90046001600160a01b03166001600160a01b03165a611b17613c31565b6001600160a01b03161480611b60575060006037611b33613a9f565b906101000a90046001600160a01b03166001600160a01b03165a611b55613c31565b6001600160a01b0316145b611bb25760405162461bcd60e51b815260206004820152601660248201527537b7363c9036b0b730b3b2b91037b9103a3930b232b960511b604482015260640160405180910390611baf613a34565b50505b6001600160a01b038316611c155760405162461bcd60e51b815260206004820152601c60248201527f6e6f6e2d7a65726f206164647265737320697320726571756972656400000000604482015260640160405180910390611c12613a34565b50505b6000806038611c22613a9f565b906101000a90046001600160a01b03166001600160a01b0316637027ea6c856040516001600160e01b031960e084901b1681526001600160a01b0390911660048201526024016020604051808303818680611c7b613afa565b158015611c9057600080611c8d613a34565b50505b505a611c9a613b46565b5050505050158015611cb9573d6000803e3d6000611cb6613a34565b50505b505050506040513d6020811015611cd857600080611cd5613a34565b50505b81019080805193505050506001600160a01b038116611d3c5760405162461bcd60e51b815260206004820152601360248201527234b73b30b634b2103232b9ba34b730ba34b7b760691b604482015260640160405180910390611d39613a34565b50505b806001600160a01b031663e23ff4375a63996d79a5598160e01b8152602081600483336000905af158601d01573d60011458600c01573d6000803e3d621234565260ea61109c528051925060005b6040811015611da157600082820152602001611d8a565b505050856040518363ffffffff1660e01b815260040180836001600160a01b0316815260200180602001828103825283818151815260200191508051906020019080838360005b83811015611e00578082015183820152602001611de8565b50505050905090810190601f168015611e2d5780820380516001836020036101000a031916815260200191505b50935050505060206040518083038160008780611e48613afa565b158015611e5d57600080611e5a613a34565b50505b505a611e67613dab565b505050505050158015611e87573d6000803e3d6000611e84613a34565b50505b505050506040513d6020811015611ea657600080611ea3613a34565b50505b8101908080519250611f009150505760405162461bcd60e51b815260206004820152601360248201527234b73b30b634b2103a3930b739b0b1ba34b7b760691b604482015260640160405180910390611efd613a34565b50505b6000846001600160a01b0316846040518082805190602001908083835b60208310611f3c5780518252601f199092019160209182019101611f1d565b6001836020036101000a0380198251168184511680821785525050505050509050019150506000604051808303816000865a611f76613dab565b5050505050509150503d8060008114611fab576040513d603f01601f191681016040523d815291503d6000602084013e611fb0565b606091505b50909150506001811515146120145760405162461bcd60e51b815260206004820152601a60248201527f6661696c656420746f2065786563757465207468652063616c6c000000000000604482015260640160405180910390612011613a34565b50505b7f508f3afa87f72dce865a2321107666b28ac822c23a8c0555fbeb3424cf3de5635a63996d79a5598160e01b8152602081600483336000905af158601d01573d60011458600c01573d6000803e3d621234565260ea61109c528051925060005b604081101561208b57600082820152602001612074565b50505061209661148e565b5a61209f613d65565b6040516001600160a01b039384168152919092166020820152604080820192909252606001905180910390a1506001949350505050565b603d61138a613a9f565b600060336120ec613a9f565b906101000a90046001600160a01b03166001600160a01b03165a61210e613c31565b6001600160a01b0316146121605760405162461bcd60e51b815260206004820152600c60248201526b37b7363c9036b0b730b3b2b960a11b60448201526064016040518091039061215d613a34565b50505b6000603760018161216f613a9f565b816001600160a01b0302191690836001600160a01b0316021790612191613c77565b505050565b603b602052806000526040600020600091506121b0613a9f565b906101000a900460ff1681565b603c61138a613a9f565b60008060386121d4613a9f565b906101000a90046001600160a01b03166001600160a01b031663cc435bf3836040516001600160e01b031960e084901b1681526001600160a01b039091166004820152602401602060405180830381868061222d613afa565b1580156122425760008061223f613a34565b50505b505a61224c613b46565b505050505015801561226b573d6000803e3d6000612268613a34565b50505b505050506040513d602081101561228a57600080612287613a34565b50505b81019080805195945050505050565b60006039806122a6613a9f565b91505090565b600060336122b8613a9f565b906101000a90046001600160a01b03166001600160a01b03165a6122da613c31565b6001600160a01b03161461232c5760405162461bcd60e51b815260206004820152600c60248201526b37b7363c9036b0b730b3b2b960a11b604482015260640160405180910390612329613a34565b50505b603d612336613a9f565b5a61233f613d65565b101561239a5760405162461bcd60e51b815260206004820152601960248201527f66656520696e6372656173652064656c61792061637469766500000000000000604482015260640160405180910390612397613a34565b50505b6123ad81603c6123a8613a9f565b61359e565b600080603c6123ba613c77565b5050506000603d81906123cb613c77565b50505050565b60606035806123de613a9f565b806020026020016040519081016040528181529190602083018280612401613a9f565b801561244e57602002820191906000526020600020905b600082612423613a9f565b906101000a90046001600160a01b03166001600160a01b031681526020019060010190808311612418575b5050505050905090565b60006035806122a6613a9f565b60006033612471613a9f565b906101000a90046001600160a01b03166001600160a01b03165a612493613c31565b6001600160a01b0316146124e55760405162461bcd60e51b815260206004820152600c60248201526b37b7363c9036b0b730b3b2b960a11b6044820152606401604051809103906124e2613a34565b50505b8060376001816124f3613a9f565b816001600160a01b0302191690836001600160a01b03160217906123cb613c77565b60006033612521613a9f565b906101000a90046001600160a01b03166001600160a01b03165a612543613c31565b6001600160a01b0316146125955760405162461bcd60e51b815260206004820152600c60248201526b37b7363c9036b0b730b3b2b960a11b604482015260640160405180910390612592613a34565b50505b600080603c6125a2613c77565b5050506000603d81906125b3613c77565b5050507fc6f04bf43cbdf1ba5d51b4afa160bb3c7e13858b1409aa32868b239bb2f8d84960405160405180910390a1565b6001600160a01b03811660009081526036602052604081206113ad613a9f565b60006038612610613a9f565b906101000a90046001600160a01b031681565b6001600061262f613a9f565b906101000a900460ff168061264757506126476137f1565b806126645750600080612658613a9f565b906101000a900460ff16155b6126a85760405162461bcd60e51b815260040180806020018281038252602e815260200180613eb2602e9139604001915050604051809103906126a5613a34565b50505b60006001816126b5613a9f565b906101000a900460ff16159050801561271b5760016000610100816126d8613a9f565b8160ff021916908315150217906126ed613c77565b50505060016000806101000a81612702613a9f565b8160ff02191690831515021790612717613c77565b5050505b6127258484613862565b846038600181612733613a9f565b816001600160a01b0302191690836001600160a01b0316021790612755613c77565b50505060005b82518160ff16101561278e57612786838260ff168151811061277957fe5b6020026020010151612f6a565b60010161275b565b5080156127bd57600080610100816127a4613a9f565b8160ff021916908315150217906127b9613c77565b5050505b5050505050565b603981816127d0613a9f565b81106127d857fe5b9060005260206000200160009150612610613a9f565b600060336127fa613a9f565b906101000a90046001600160a01b03166001600160a01b03165a61281c613c31565b6001600160a01b03161461286e5760405162461bcd60e51b815260206004820152600c60248201526b37b7363c9036b0b730b3b2b960a11b60448201526064016040518091039061286b613a34565b50505b612877816125e4565b156128815761104b565b61104b81613512565b6000816001600160a01b03166370a082315a63996d79a5598160e01b8152602081600483336000905af158601d01573d60011458600c01573d6000803e3d621234565260ea61109c528051925060005b60408110156128f1576000828201526020016128da565b5050506040516001600160e01b031960e084901b1681526001600160a01b039091166004820152602401602060405180830381868061222d613afa565b600061136c8261293d8461288a565b6111dd565b606060398061294f613a9f565b806020026020016040519081016040528181529190602083018280612972613a9f565b801561244e57602002820191906000526020600020905b600082612994613a9f565b906101000a90046001600160a01b03166001600160a01b031681526020019060010190808311612989575050505050905090565b600080603c6129d5613a9f565b603d6129df613a9f565b915091509091565b606080606060006039806129f9613a9f565b9050905060608167ffffffffffffffff81118015612a1f57600080612a1c613a34565b50505b50604051908082528060200260200182016040528015612a49578160200160208202803683370190505b50905060608267ffffffffffffffff81118015612a6e57600080612a6b613a34565b50505b50604051908082528060200260200182016040528015612a98578160200160208202803683370190505b50905060608367ffffffffffffffff81118015612abd57600080612aba613a34565b50505b50604051908082528060200260200182016040528015612ae7578160200160208202803683370190505b50905060005b84811015612c6657600060398281612b03613a9f565b8110612b0b57fe5b90600052602060002001600090612b20613a9f565b906101000a90046001600160a01b03169050612b3b8161288a565b848381518110612b4757fe5b60200260200101818152505080858381518110612b6057fe5b6001600160a01b039092166020928302919091019091015260006038612b84613a9f565b906101000a90046001600160a01b03166001600160a01b0316638b2f0f4f826040516001600160e01b031960e084901b1681526001600160a01b0390911660048201526024016020604051808303818680612bdd613afa565b158015612bf257600080612bef613a34565b50505b505a612bfc613b46565b5050505050158015612c1b573d6000803e3d6000612c18613a34565b50505b505050506040513d6020811015612c3a57600080612c37613a34565b50505b810190808051925085915084905081518110612c5257fe5b602090810291909101015250600101612aed565b509195509350915050909192565b6060603480612c81613a9f565b600181600116156101000203166002900480601f016020809104026020016040519081016040528181529190602083018280612cbb613a9f565b6001816001161561010002031660029004801561244e5780601f10612cf5576101008083612ce7613a9f565b04028352916020019161244e565b820191906000526020600020905b81612d0c613a9f565b81529060010190602001808311612d0357509395945050505050565b6000603980612d35613a9f565b6001600160a01b0384166000908152603a6020529092509050612d65600160408320612d5f613a9f565b906138a9565b905060006039612d768460016138a9565b81612d7f613a9f565b8110612d8757fe5b90600052602060002001600090612d9c613a9f565b906101000a90046001600160a01b031690508060398381612dbb613a9f565b8110612dc357fe5b90600052602060002001600181612dd8613a9f565b816001600160a01b0302191690836001600160a01b0316021790612dfa613c77565b50612e0a915083905060016134b3565b6001600160a01b0382166000908152603a602052604090208190612e2c613c77565b5050506001600160a01b0384166000908152603a602052604081208190612e51613c77565b505050603980612e5f613a9f565b80612e6657fe5b60019003818190600052602060002001600181612e81613a9f565b906001600160a01b0302191690612e96613c77565b505090612ea1613c77565b50507f9b4f55639e5e283319baee5bc4e69a5625a8e3a1cc004af968f4fee7250220275a63996d79a5598160e01b8152602081600483336000905af158601d01573d60011458600c01573d6000803e3d621234565260ea61109c528051925060005b6040811015612f1a57600082820152602001612f03565b505050612f2561148e565b8660405180846001600160a01b03168152602001836001600160a01b03168152602001826001600160a01b03168152602001935050505060405180910390a150505050565b60006038612f76613a9f565b906101000a90046001600160a01b03166001600160a01b031663aa12ae4d6040518163ffffffff1660e01b81526004016020604051808303818680612fb9613afa565b158015612fce57600080612fcb613a34565b50505b505a612fd8613b46565b5050505050158015612ff7573d6000803e3d6000612ff4613a34565b50505b505050506040513d602081101561301657600080613013613a34565b50505b81019080805192506039915081905061302d613a9f565b9050106130825760405162461bcd60e51b81526020600482015260166024820152751b585e1a5b5d5b48185cdcd95d1cc81c995858da195960521b60448201526064016040518091039061307f613a34565b50505b61308b8161138d565b156130e55760405162461bcd60e51b815260206004820152601760248201527f617373657420616c726561647920737570706f727465640000000000000000006044820152606401604051809103906130e2613a34565b50505b6130ee816121c7565b151560011461313c5760405162461bcd60e51b815260206004820152600d60248201526c1a5b9d985b1a5908185cdcd95d609a1b604482015260640160405180910390613139613a34565b50505b8060398060018161314b613a9f565b018082613156613c77565b505060009283526000190191602091502001600181613173613a9f565b816001600160a01b0302191690836001600160a01b0316021790613195613c77565b5050506039806131a3613a9f565b6001600160a01b0383166000908152603a6020529091506040902081906131c8613c77565b5050507f0a7426a0630aad7dbc4d5ca5b7d9aac1133d77d2db987caaf4b4186c85d6593f5a63996d79a5598160e01b8152602081600483336000905af158601d01573d60011458600c01573d6000803e3d621234565260ea61109c528051925060005b60408110156132425760008282015260200161322b565b50505061324d61148e565b8360405180846001600160a01b03168152602001836001600160a01b03168152602001826001600160a01b03168152602001935050505060405180910390a150565b600060358061329c613a9f565b6001600160a01b0384166000908152603660205290925090506132c6600160408320612d5f613a9f565b9050600060356132d78460016138a9565b816132e0613a9f565b81106132e857fe5b906000526020600020016000906132fd613a9f565b906101000a90046001600160a01b03169050806035838161331c613a9f565b811061332457fe5b90600052602060002001600181613339613a9f565b816001600160a01b0302191690836001600160a01b031602179061335b613c77565b5061336b915083905060016134b3565b6001600160a01b0382166000908152603660205260409020819061338d613c77565b5050506001600160a01b038416600090815260366020526040812081906133b2613c77565b5050506035806133c0613a9f565b806133c757fe5b600190038181906000526020600020016001816133e2613a9f565b906001600160a01b03021916906133f7613c77565b505090613402613c77565b505050505050565b6000826134195750600061136c565b8282028284828161342657fe5b041461346c5760405162461bcd60e51b8152600401808060200182810382526021815260200180613e916021913960400191505060405180910390613469613a34565b50505b9392505050565b600061346c838360405160408082019052601a81527f536166654d6174683a206469766973696f6e206279207a65726f00000000000060208201526138e9565b60008282018381101561346c5760405162461bcd60e51b815260206004820152601b60248201527f536166654d6174683a206164646974696f6e206f766572666c6f770000000000604482015260640160405180910390613469613a34565b80603580600181613521613a9f565b01808261352c613c77565b505060009283526000190191602091502001600181613549613a9f565b816001600160a01b0302191690836001600160a01b031602179061356b613c77565b505050603580613579613a9f565b6001600160a01b038316600090815260366020529091506040902081906123cb613c77565b600060386135aa613a9f565b906101000a90046001600160a01b03166001600160a01b031663046b72c483836040516001600160e01b031960e085901b1681526001600160a01b03909216600483015260248201526044016000604051808303816000878061360b613afa565b1580156136205760008061361d613a34565b50505b505a61362a613dab565b50505050505015801561364a573d6000803e3d6000613647613a34565b50505b50505050600080603860009061365e613a9f565b906101000a90046001600160a01b03166001600160a01b031663b7a54526856040516001600160e01b031960e084901b1681526001600160a01b039091166004820152602401604080518083038186806136b6613afa565b1580156136cb576000806136c8613a34565b50505b505a6136d5613b46565b50505050501580156136f4573d6000803e3d60006136f1613a34565b50505b505050506040513d604081101561371357600080613710613a34565b50505b81019080805192919060200180519395509293507f1780c04ddc6f0b32d866c7a3d7583f53515ef49ed2126af868f804f491601266925050505a63996d79a5598160e01b8152602081600483336000905af158601d01573d60011458600c01573d6000803e3d621234565260ea61109c528051925060005b60408110156137a25760008282015260200161378b565b5050506137ad61148e565b848460405180856001600160a01b03168152602001846001600160a01b0316815260200183815260200182815260200194505050505060405180910390a150505050565b6000805a63996d79a5598160e01b8152602081600483336000905af158601d01573d60011458600c01573d6000803e3d621234565260ea61109c528051925060005b604081101561384a57600082820152602001613833565b505050905060008161385a613afa565b159250505090565b816033600181613870613a9f565b816001600160a01b0302191690836001600160a01b0316021790613892613c77565b505050806034908051612191929160200190613cc5565b600061346c838360405160408082019052601e81527f536166654d6174683a207375627472616374696f6e206f766572666c6f7700006020820152613994565b6000818361397e5760405162461bcd60e51b81526004018080602001828103825283818151815260200191508051906020019080838360005b8381101561393a578082015183820152602001613922565b50505050905090810190601f1680156139675780820380516001836020036101000a031916815260200191505b50925050506040518091039061397b613a34565b50505b50600083858161398a57fe5b0495945050505050565b60008184841115613a2c5760405162461bcd60e51b81526004018080602001828103825283818151815260200191508051906020019080838360005b838110156139e85780820151838201526020016139d0565b50505050905090810190601f168015613a155780820380516001836020036101000a031916815260200191505b509250505060405180910390613a29613a34565b50505b505050900390565b632a2a7adb598160e01b8152600481016020815285602082015260005b86811015613a6c578086015182820160400152602001613a51565b506020828760640184336000905af158601d01573d60011458600c01573d6000803e3d621234565260ea61109c52505050565b6303daa959598160e01b8152836004820152602081602483336000905af158601d01573d60011458600c01573d6000803e3d621234565260ea61109c528051935060005b604081101561219157600082820152602001613ae3565b638435035b598160e01b8152836004820152602081602483336000905af158601d01573d60011458600c01573d6000803e3d621234565260ea61109c5280516000825293506020613ae3565b638540661f598160e01b8152613b77565b808083111561136c575090919050565b808083101561136c575090919050565b836004820152846024820152606060448201528660648201526084810160005b88811015613baf578088015182820152602001613b97565b506060828960a40184336000905af158601d01573d60011458600c01573d6000803e3d621234565260ea61109c52815160408301513d6000853e8b8b82606087013350600060045af15059613c048d3d613b67565b8c01613c108187613b57565b5b82811015613c255760008152602001613c11565b50929c50505050505050565b6373509064598160e01b8152602081600483336000905af158601d01573d60011458600c01573d6000803e3d621234565260ea61109c5280516000825293506020613ae3565b6322bd64c0598160e01b8152836004820152846024820152600081604483336000905af158601d01573d60011458600c01573d6000803e3d621234565260ea61109c52600081526020613ae3565b8280613ccf613a9f565b600181600116156101000203166002900490600052602060002090601f016020900481019282601f10613d1657805160ff19168380011785613d0f613c77565b5050613d55565b82800160010185613d25613c77565b50508215613d55579182015b82811115613d5557825182613d44613c77565b505091602001919060010190613d31565b50613d61929150613e71565b5090565b63bdbf8c36598160e01b8152602081600483336000905af158601d01573d60011458600c01573d6000803e3d621234565260ea61109c5280516000825293506020613ae3565b6385979f76598160e01b8152836004820152846024820152606060448201528760648201526084810160005b89811015613def578089015182820152602001613dd7565b506060828a60a40184336000905af158601d01573d60011458600c01573d6000803e3d621234565260ea61109c52815160408301513d6000853e8c8c82606087013350600060045af15059613e448e3d613b67565b8d01613e508187613b57565b5b82811015613e655760008152602001613e51565b50929d50505050505050565b80821115613d615760008082613e85613c77565b505050600101613e7156fe536166654d6174683a206d756c7469706c69636174696f6e206f766572666c6f77436f6e747261637420696e7374616e63652068617320616c7265616479206265656e20696e697469616c697a6564",
  "linkReferences": {},
  "deployedLinkReferences": {}
}