{
  "_format": "hh-sol-artifact-1",
  "contractName": "PoolManagerLogic",
  "sourceName": "contracts/PoolManagerLogic.sol",
  "abi": [
    {
      "anonymous": false,
      "inputs": [
        {
          "indexed": false,
          "internalType": "address",
          "name": "fundAddress",
          "type": "address"
        },
        {
          "indexed": false,
          "internalType": "address",
          "name": "manager",
          "type": "address"
        },
        {
          "indexed": false,
          "internalType": "bytes32",
          "name": "assetKey",
          "type": "bytes32"
        }
      ],
      "name": "AssetAdded",
      "type": "event"
    },
    {
      "anonymous": false,
      "inputs": [
        {
          "indexed": false,
          "internalType": "address",
          "name": "fundAddress",
          "type": "address"
        },
        {
          "indexed": false,
          "internalType": "address",
          "name": "manager",
          "type": "address"
        },
        {
          "indexed": false,
          "internalType": "bytes32",
          "name": "assetKey",
          "type": "bytes32"
        }
      ],
      "name": "AssetRemoved",
      "type": "event"
    },
    {
      "anonymous": false,
      "inputs": [
        {
          "indexed": false,
          "internalType": "address",
          "name": "fundAddress",
          "type": "address"
        },
        {
          "indexed": false,
          "internalType": "address",
          "name": "manager",
          "type": "address"
        },
        {
          "indexed": false,
          "internalType": "bytes32",
          "name": "sourceKey",
          "type": "bytes32"
        },
        {
          "indexed": false,
          "internalType": "uint256",
          "name": "sourceAmount",
          "type": "uint256"
        },
        {
          "indexed": false,
          "internalType": "bytes32",
          "name": "destinationKey",
          "type": "bytes32"
        },
        {
          "indexed": false,
          "internalType": "uint256",
          "name": "destinationAmount",
          "type": "uint256"
        },
        {
          "indexed": false,
          "internalType": "uint256",
          "name": "time",
          "type": "uint256"
        }
      ],
      "name": "Exchange",
      "type": "event"
    },
    {
      "anonymous": false,
      "inputs": [
        {
          "indexed": false,
          "internalType": "address",
          "name": "fundAddress",
          "type": "address"
        },
        {
          "indexed": false,
          "internalType": "address",
          "name": "manager",
          "type": "address"
        },
        {
          "indexed": false,
          "internalType": "uint256",
          "name": "numerator",
          "type": "uint256"
        },
        {
          "indexed": false,
          "internalType": "uint256",
          "name": "denominator",
          "type": "uint256"
        }
      ],
      "name": "ManagerFeeSet",
      "type": "event"
    },
    {
      "anonymous": false,
      "inputs": [
        {
          "indexed": false,
          "internalType": "address",
          "name": "newManager",
          "type": "address"
        },
        {
          "indexed": false,
          "internalType": "string",
          "name": "newManagerName",
          "type": "string"
        }
      ],
      "name": "ManagerUpdated",
      "type": "event"
    },
    {
      "inputs": [
        {
          "internalType": "address",
          "name": "member",
          "type": "address"
        }
      ],
      "name": "addMember",
      "outputs": [],
      "stateMutability": "nonpayable",
      "type": "function"
    },
    {
      "inputs": [
        {
          "internalType": "address[]",
          "name": "members",
          "type": "address[]"
        }
      ],
      "name": "addMembers",
      "outputs": [],
      "stateMutability": "nonpayable",
      "type": "function"
    },
    {
      "inputs": [
        {
          "internalType": "bytes32",
          "name": "key",
          "type": "bytes32"
        }
      ],
      "name": "addToSupportedAssets",
      "outputs": [],
      "stateMutability": "nonpayable",
      "type": "function"
    },
    {
      "inputs": [],
      "name": "addressResolver",
      "outputs": [
        {
          "internalType": "contract IAddressResolver",
          "name": "",
          "type": "address"
        }
      ],
      "stateMutability": "view",
      "type": "function"
    },
    {
      "inputs": [],
      "name": "addressResolverAddress",
      "outputs": [
        {
          "internalType": "address",
          "name": "",
          "type": "address"
        }
      ],
      "stateMutability": "view",
      "type": "function"
    },
    {
      "inputs": [
        {
          "internalType": "bytes32",
          "name": "",
          "type": "bytes32"
        }
      ],
      "name": "assetPosition",
      "outputs": [
        {
          "internalType": "uint256",
          "name": "",
          "type": "uint256"
        }
      ],
      "stateMutability": "view",
      "type": "function"
    },
    {
      "inputs": [
        {
          "internalType": "bytes32",
          "name": "key",
          "type": "bytes32"
        }
      ],
      "name": "assetValue",
      "outputs": [
        {
          "internalType": "uint256",
          "name": "",
          "type": "uint256"
        }
      ],
      "stateMutability": "view",
      "type": "function"
    },
    {
      "inputs": [
        {
          "internalType": "address",
          "name": "newManager",
          "type": "address"
        },
        {
          "internalType": "string",
          "name": "newManagerName",
          "type": "string"
        }
      ],
      "name": "changeManager",
      "outputs": [],
      "stateMutability": "nonpayable",
      "type": "function"
    },
    {
      "inputs": [
        {
          "internalType": "bytes32",
          "name": "sourceKey",
          "type": "bytes32"
        },
        {
          "internalType": "uint256",
          "name": "sourceAmount",
          "type": "uint256"
        },
        {
          "internalType": "bytes32",
          "name": "destinationKey",
          "type": "bytes32"
        }
      ],
      "name": "exchange",
      "outputs": [],
      "stateMutability": "nonpayable",
      "type": "function"
    },
    {
      "inputs": [],
      "name": "factory",
      "outputs": [
        {
          "internalType": "address",
          "name": "",
          "type": "address"
        }
      ],
      "stateMutability": "view",
      "type": "function"
    },
    {
      "inputs": [
        {
          "internalType": "bytes32",
          "name": "key",
          "type": "bytes32"
        }
      ],
      "name": "getAssetProxy",
      "outputs": [
        {
          "internalType": "address",
          "name": "",
          "type": "address"
        }
      ],
      "stateMutability": "view",
      "type": "function"
    },
    {
      "inputs": [],
      "name": "getFundComposition",
      "outputs": [
        {
          "internalType": "bytes32[]",
          "name": "",
          "type": "bytes32[]"
        },
        {
          "internalType": "uint256[]",
          "name": "",
          "type": "uint256[]"
        },
        {
          "internalType": "uint256[]",
          "name": "",
          "type": "uint256[]"
        }
      ],
      "stateMutability": "view",
      "type": "function"
    },
    {
      "inputs": [],
      "name": "getManagerFee",
      "outputs": [
        {
          "internalType": "uint256",
          "name": "",
          "type": "uint256"
        },
        {
          "internalType": "uint256",
          "name": "",
          "type": "uint256"
        }
      ],
      "stateMutability": "view",
      "type": "function"
    },
    {
      "inputs": [],
      "name": "getMembers",
      "outputs": [
        {
          "internalType": "address[]",
          "name": "",
          "type": "address[]"
        }
      ],
      "stateMutability": "view",
      "type": "function"
    },
    {
      "inputs": [],
      "name": "getSupportedAssets",
      "outputs": [
        {
          "internalType": "bytes32[]",
          "name": "",
          "type": "bytes32[]"
        }
      ],
      "stateMutability": "view",
      "type": "function"
    },
    {
      "inputs": [],
      "name": "getSuspendedAssets",
      "outputs": [
        {
          "internalType": "bytes32[]",
          "name": "",
          "type": "bytes32[]"
        },
        {
          "internalType": "bool[]",
          "name": "",
          "type": "bool[]"
        }
      ],
      "stateMutability": "view",
      "type": "function"
    },
    {
      "inputs": [
        {
          "internalType": "address",
          "name": "_factory",
          "type": "address"
        },
        {
          "internalType": "address",
          "name": "_manager",
          "type": "address"
        },
        {
          "internalType": "string",
          "name": "_managerName",
          "type": "string"
        },
        {
          "internalType": "address",
          "name": "_addressResolver",
          "type": "address"
        },
        {
          "internalType": "bytes32[]",
          "name": "_supportedAssets",
          "type": "bytes32[]"
        }
      ],
      "name": "initialize",
      "outputs": [],
      "stateMutability": "nonpayable",
      "type": "function"
    },
    {
      "inputs": [
        {
          "internalType": "bytes32",
          "name": "key",
          "type": "bytes32"
        }
      ],
      "name": "isAssetSupported",
      "outputs": [
        {
          "internalType": "bool",
          "name": "",
          "type": "bool"
        }
      ],
      "stateMutability": "view",
      "type": "function"
    },
    {
      "inputs": [
        {
          "internalType": "address",
          "name": "member",
          "type": "address"
        }
      ],
      "name": "isMemberAllowed",
      "outputs": [
        {
          "internalType": "bool",
          "name": "",
          "type": "bool"
        }
      ],
      "stateMutability": "view",
      "type": "function"
    },
    {
      "inputs": [],
      "name": "manager",
      "outputs": [
        {
          "internalType": "address",
          "name": "",
          "type": "address"
        }
      ],
      "stateMutability": "view",
      "type": "function"
    },
    {
      "inputs": [],
      "name": "managerName",
      "outputs": [
        {
          "internalType": "string",
          "name": "",
          "type": "string"
        }
      ],
      "stateMutability": "view",
      "type": "function"
    },
    {
      "inputs": [],
      "name": "numberOfMembers",
      "outputs": [
        {
          "internalType": "uint256",
          "name": "",
          "type": "uint256"
        }
      ],
      "stateMutability": "view",
      "type": "function"
    },
    {
      "inputs": [],
      "name": "numberOfSupportedAssets",
      "outputs": [
        {
          "internalType": "uint256",
          "name": "",
          "type": "uint256"
        }
      ],
      "stateMutability": "view",
      "type": "function"
    },
    {
      "inputs": [
        {
          "internalType": "bytes32",
          "name": "",
          "type": "bytes32"
        }
      ],
      "name": "persistentAsset",
      "outputs": [
        {
          "internalType": "bool",
          "name": "",
          "type": "bool"
        }
      ],
      "stateMutability": "view",
      "type": "function"
    },
    {
      "inputs": [
        {
          "internalType": "bytes32",
          "name": "key",
          "type": "bytes32"
        }
      ],
      "name": "removeFromSupportedAssets",
      "outputs": [],
      "stateMutability": "nonpayable",
      "type": "function"
    },
    {
      "inputs": [
        {
          "internalType": "address",
          "name": "member",
          "type": "address"
        }
      ],
      "name": "removeMember",
      "outputs": [],
      "stateMutability": "nonpayable",
      "type": "function"
    },
    {
      "inputs": [
        {
          "internalType": "address[]",
          "name": "members",
          "type": "address[]"
        }
      ],
      "name": "removeMembers",
      "outputs": [],
      "stateMutability": "nonpayable",
      "type": "function"
    },
    {
      "inputs": [
        {
          "internalType": "uint256",
          "name": "numerator",
          "type": "uint256"
        }
      ],
      "name": "setManagerFeeNumerator",
      "outputs": [],
      "stateMutability": "nonpayable",
      "type": "function"
    },
    {
      "inputs": [
        {
          "internalType": "uint256",
          "name": "",
          "type": "uint256"
        }
      ],
      "name": "supportedAssets",
      "outputs": [
        {
          "internalType": "bytes32",
          "name": "",
          "type": "bytes32"
        }
      ],
      "stateMutability": "view",
      "type": "function"
    },
    {
      "inputs": [
        {
          "internalType": "bytes32",
          "name": "key",
          "type": "bytes32"
        }
      ],
      "name": "validateAsset",
      "outputs": [
        {
          "internalType": "bool",
          "name": "",
          "type": "bool"
        }
      ],
      "stateMutability": "view",
      "type": "function"
    }
  ],
  "bytecode": "0x608060405234801561001057600080fd5b506129cf806100206000396000f3fe608060405234801561001057600080fd5b50600436106101da5760003560e01c80639eab525311610104578063d44fa33e116100a2578063eb94917d11610071578063eb94917d146106ff578063ee52a2f31461084f578063f09d14d714610878578063fed4416a1461095e576101da565b8063d44fa33e146106a0578063d78d7c2e146106bd578063e5406dbf146106da578063e5ea7759146106e2576101da565b8063c45a0155116100de578063c45a015514610638578063c68dbb3714610640578063ca6d56dc1461065d578063d3cfb3b614610683576101da565b80639eab5253146105b2578063a30e3fa91461060a578063bbbf725b14610612576101da565b80633ded65301161017c57806353d9133e1161014b57806353d9133e146104bb57806367079749146104d85780636f4d469b14610509578063936553c4146105aa576101da565b80633ded65301461034157806346ee84b01461035e578063481c6a75146103ff5780635221366314610407576101da565b80630b1ca49a116101b85780630b1ca49a146102515780630e53b75114610277578063198055381461027f57806321f8c984146102a0576101da565b8063023f21de146101df5780630499123f146101fe57806305a2ee2a1461022d575b600080fd5b6101fc600480360360208110156101f557600080fd5b50356109db565b005b61021b6004803603602081101561021457600080fd5b5035610be4565b60408051918252519081900360200190f35b610235610d81565b604080516001600160a01b039092168252519081900360200190f35b6101fc6004803603602081101561026757600080fd5b50356001600160a01b0316610d90565b610235610df9565b610287610e08565b6040805192835260208301919091528051918290030190f35b6102a8610e8f565b604051808060200180602001838103835285818151815260200191508051906020019060200280838360005b838110156102ec5781810151838201526020016102d4565b50505050905001838103825284818151815260200191508051906020019060200280838360005b8381101561032b578181015183820152602001610313565b5050505090500194505050505060405180910390f35b6102356004803603602081101561035757600080fd5b503561109e565b6101fc6004803603602081101561037457600080fd5b810190602081018135600160201b81111561038e57600080fd5b8201836020820111156103a057600080fd5b803590602001918460208302840111600160201b831117156103c157600080fd5b9190808060200260200160405190810160405280939291908181526020018383602002808284376000920191909152509295506112a1945050505050565b610235611348565b6101fc6004803603604081101561041d57600080fd5b6001600160a01b038235169190810190604081016020820135600160201b81111561044757600080fd5b82018360208201111561045957600080fd5b803590602001918460018302840111600160201b8311171561047a57600080fd5b91908080601f016020809104026020016040519081016040528093929190818152602001838380828437600092019190915250929550611357945050505050565b6101fc600480360360208110156104d157600080fd5b5035611482565b6104f5600480360360208110156104ee57600080fd5b50356114d9565b604080519115158252519081900360200190f35b6101fc6004803603602081101561051f57600080fd5b810190602081018135600160201b81111561053957600080fd5b82018360208201111561054b57600080fd5b803590602001918460208302840111600160201b8311171561056c57600080fd5b9190808060200260200160405190810160405280939291908181526020018383602002808284376000920191909152509295506114ee945050505050565b61021b611585565b6105ba61158b565b60408051602080825283518183015283519192839290830191858101910280838360005b838110156105f65781810151838201526020016105de565b505050509050019250505060405180910390f35b61021b6115ed565b6104f56004803603602081101561062857600080fd5b50356001600160a01b03166115f3565b610235611610565b61021b6004803603602081101561065657600080fd5b503561161f565b6101fc6004803603602081101561067357600080fd5b50356001600160a01b031661163d565b6101fc6004803603602081101561069957600080fd5b50356116a7565b6104f5600480360360208110156106b657600080fd5b50356116fe565b61021b600480360360208110156106d357600080fd5b5035611712565b6105ba611724565b6104f5600480360360208110156106f857600080fd5b503561177b565b6101fc600480360360a081101561071557600080fd5b6001600160a01b038235811692602081013590911691810190606081016040820135600160201b81111561074857600080fd5b82018360208201111561075a57600080fd5b803590602001918460018302840111600160201b8311171561077b57600080fd5b91908080601f01602080910402602001604051908101604052809392919081815260200183838082843760009201919091525092956001600160a01b03853516959094909350604081019250602001359050600160201b8111156107de57600080fd5b8201836020820111156107f057600080fd5b803590602001918460208302840111600160201b8311171561081157600080fd5b91908080602002602001604051908101604052809392919081815260200183836020028082843760009201919091525092955061191e945050505050565b6101fc6004803603606081101561086557600080fd5b5080359060208101359060400135611a8b565b610880611e0c565b60405180806020018060200180602001848103845287818151815260200191508051906020019060200280838360005b838110156108c85781810151838201526020016108b0565b50505050905001848103835286818151815260200191508051906020019060200280838360005b838110156109075781810151838201526020016108ef565b50505050905001848103825285818151815260200191508051906020019060200280838360005b8381101561094657818101518382015260200161092e565b50505050905001965050505050505060405180910390f35b6109666120ef565b6040805160208082528351818301528351919283929083019185019080838360005b838110156109a0578181015183820152602001610988565b50505050905090810190601f1680156109cd5780820380516001836020036101000a031916815260200191505b509250505060405180910390f35b6000546001600160a01b03163314610a29576040805162461bcd60e51b815260206004820152600c60248201526b37b7363c9036b0b730b3b2b960a11b604482015290519081900360640190fd5b610a32816116fe565b610a79576040805162461bcd60e51b8152602060048201526013602482015272185cdcd95d081b9bdd081cdd5c1c1bdc9d1959606a1b604482015290519081900360640190fd5b6000818152606d602052604090205460ff1615610ac75760405162461bcd60e51b815260040180806020018281038252602281526020018061294a6022913960400191505060405180910390fd5b610ad08161109e565b6001600160a01b03166370a08231306040518263ffffffff1660e01b815260040180826001600160a01b0316815260200191505060206040518083038186803b158015610b1c57600080fd5b505afa158015610b30573d6000803e3d6000fd5b505050506040513d6020811015610b4657600080fd5b505115610b845760405162461bcd60e51b81526004018080602001828103825260218152602001806129296021913960400191505060405180910390fd5b631cd554d160e21b811415610bd8576040805162461bcd60e51b81526020600482015260156024820152741cd554d10818d85b89dd081899481c995b5bdd9959605a1b604482015290519081900360640190fd5b610be18161217b565b50565b606954604080516321f8a72160e01b81526c45786368616e6765526174657360981b600482015290516000926001600160a01b0316916321f8a721916024808301926020929190829003018186803b158015610c3f57600080fd5b505afa158015610c53573d6000803e3d6000fd5b505050506040513d6020811015610c6957600080fd5b50516001600160a01b031663654a60ac83610c838161109e565b6001600160a01b03166370a08231306040518263ffffffff1660e01b815260040180826001600160a01b0316815260200191505060206040518083038186803b158015610ccf57600080fd5b505afa158015610ce3573d6000803e3d6000fd5b505050506040513d6020811015610cf957600080fd5b5051604080516001600160e01b031960e086901b16815260048101939093526024830191909152631cd554d160e21b6044830152516064808301926020929190829003018186803b158015610d4d57600080fd5b505afa158015610d61573d6000803e3d6000fd5b505050506040513d6020811015610d7757600080fd5b505190505b919050565b6069546001600160a01b031681565b6000546001600160a01b03163314610dde576040805162461bcd60e51b815260206004820152600c60248201526b37b7363c9036b0b730b3b2b960a11b604482015290519081900360640190fd5b610de7816115f3565b610df057610be1565b610be18161227b565b606a546001600160a01b031681565b606c5460408051635bd2a29360e11b8152306004820152815160009384936001600160a01b039091169263b7a545269260248083019392829003018186803b158015610e5357600080fd5b505afa158015610e67573d6000803e3d6000fd5b505050506040513d6040811015610e7d57600080fd5b50805160209091015190925090509091565b606b546060908190818167ffffffffffffffff81118015610eaf57600080fd5b50604051908082528060200260200182016040528015610ed9578160200160208202803683370190505b50905060608267ffffffffffffffff81118015610ef557600080fd5b50604051908082528060200260200182016040528015610f1f578160200160208202803683370190505b50606954604080516321f8a72160e01b81526b53797374656d53746174757360a01b600482015290519293506000926001600160a01b03909216916321f8a72191602480820192602092909190829003018186803b158015610f8057600080fd5b505afa158015610f94573d6000803e3d6000fd5b505050506040513d6020811015610faa57600080fd5b5051905060005b84811015611092576000606b8281548110610fc857fe5b9060005260206000200154905080858381518110610fe257fe5b602002602001018181525050826001600160a01b03166342a28e21826040518263ffffffff1660e01b81526004018082815260200191505060006040518083038186803b15801561103257600080fd5b505afa925050508015611043575060015b61106a57600184838151811061105557fe5b91151560209283029190910190910152611089565b600084838151811061107857fe5b911515602092830291909101909101525b50600101610fb1565b50919450925050509091565b606954604080516321f8a72160e01b8152680a6f2dce8d0cae8d2f60bb1b6004820152905160009283926001600160a01b03909116916321f8a72191602480820192602092909190829003018186803b1580156110fa57600080fd5b505afa15801561110e573d6000803e3d6000fd5b505050506040513d602081101561112457600080fd5b505160408051633260803960e01b81526004810186905290516001600160a01b0390921691633260803991602480820192602092909190829003018186803b15801561116f57600080fd5b505afa158015611183573d6000803e3d6000fd5b505050506040513d602081101561119957600080fd5b505190506001600160a01b0381166111e6576040805162461bcd60e51b815260206004820152600b60248201526a696e76616c6964206b657960a81b604482015290519081900360640190fd5b6000816001600160a01b031663ec5568896040518163ffffffff1660e01b815260040160206040518083038186803b15801561122157600080fd5b505afa158015611235573d6000803e3d6000fd5b505050506040513d602081101561124b57600080fd5b505190506001600160a01b03811661129a576040805162461bcd60e51b815260206004820152600d60248201526c696e76616c69642070726f787960981b604482015290519081900360640190fd5b9392505050565b6000546001600160a01b031633146112ef576040805162461bcd60e51b815260206004820152600c60248201526b37b7363c9036b0b730b3b2b960a11b604482015290519081900360640190fd5b60005b81518110156113445761131782828151811061130a57fe5b60200260200101516115f3565b6113205761133c565b61133c82828151811061132f57fe5b602002602001015161227b565b6001016112f2565b5050565b6000546001600160a01b031690565b6000546001600160a01b031633146113a5576040805162461bcd60e51b815260206004820152600c60248201526b37b7363c9036b0b730b3b2b960a11b604482015290519081900360640190fd5b600080546001600160a01b0319166001600160a01b03841617905580516113d3906001906020840190612895565b507f6ed15082ad038474841528b5badca105106d4463e44b5d434130dfb299aa3669828260405180836001600160a01b0316815260200180602001828103825283818151815260200191508051906020019080838360005b8381101561144357818101518382015260200161142b565b50505050905090810190601f1680156114705780820380516001836020036101000a031916815260200191505b50935050505060405180910390a15050565b6000546001600160a01b031633146114d0576040805162461bcd60e51b815260206004820152600c60248201526b37b7363c9036b0b730b3b2b960a11b604482015290519081900360640190fd5b610be181612374565b606d6020526000908152604090205460ff1681565b6000546001600160a01b0316331461153c576040805162461bcd60e51b815260206004820152600c60248201526b37b7363c9036b0b730b3b2b960a11b604482015290519081900360640190fd5b60005b81518110156113445761155782828151811061130a57fe5b156115615761157d565b61157d82828151811061157057fe5b602002602001015161257c565b60010161153f565b606b5490565b606060028054806020026020016040519081016040528092919081815260200182805480156115e357602002820191906000526020600020905b81546001600160a01b031681526001909101906020018083116115c5575b5050505050905090565b60025490565b6001600160a01b0316600090815260036020526040902054151590565b606c546001600160a01b031681565b606b818154811061162c57fe5b600091825260209091200154905081565b6000546001600160a01b0316331461168b576040805162461bcd60e51b815260206004820152600c60248201526b37b7363c9036b0b730b3b2b960a11b604482015290519081900360640190fd5b611694816115f3565b1561169e57610be1565b610be18161257c565b6000546001600160a01b031633146116f5576040805162461bcd60e51b815260206004820152600c60248201526b37b7363c9036b0b730b3b2b960a11b604482015290519081900360640190fd5b610be1816125d8565b6000908152606e6020526040902054151590565b606e6020526000908152604090205481565b6060606b8054806020026020016040519081016040528092919081815260200182805480156115e357602002820191906000526020600020905b81548152602001906001019080831161175e575050505050905090565b606954604080516321f8a72160e01b8152680a6f2dce8d0cae8d2f60bb1b6004820152905160009283926001600160a01b03909116916321f8a72191602480820192602092909190829003018186803b1580156117d757600080fd5b505afa1580156117eb573d6000803e3d6000fd5b505050506040513d602081101561180157600080fd5b505160408051633260803960e01b81526004810186905290516001600160a01b0390921691633260803991602480820192602092909190829003018186803b15801561184c57600080fd5b505afa158015611860573d6000803e3d6000fd5b505050506040513d602081101561187657600080fd5b505190506001600160a01b038116611892576000915050610d7c565b6000816001600160a01b031663ec5568896040518163ffffffff1660e01b815260040160206040518083038186803b1580156118cd57600080fd5b505afa1580156118e1573d6000803e3d6000fd5b505050506040513d60208110156118f757600080fd5b505190506001600160a01b03811661191457600092505050610d7c565b5060019392505050565b603654610100900460ff16806119375750611937612729565b80611945575060365460ff16155b6119805760405162461bcd60e51b815260040180806020018281038252602e81526020018061296c602e913960400191505060405180910390fd5b603654610100900460ff161580156119ab576036805460ff1961ff0019909116610100171660011790555b6119b5858561272f565b606c80546001600160a01b038089166001600160a01b0319928316179092556069805492861692821683179055606a805490911690911790556119fe631cd554d160e21b612374565b60005b82518160ff161015611a3457611a2c838260ff1681518110611a1f57fe5b6020026020010151612374565b600101611a01565b50631cd554d160e21b600052606d6020527f7c6955eff0bba9326d30b9498854f01c67a0a7f3829998d71d8332495ca5b058805460ff191660011790558015611a83576036805461ff00191690555b505050505050565b6000546001600160a01b03163314611ad9576040805162461bcd60e51b815260206004820152600c60248201526b37b7363c9036b0b730b3b2b960a11b604482015290519081900360640190fd5b611ae2836116fe565b611b33576040805162461bcd60e51b815260206004820152601b60248201527f756e737570706f7274656420736f757263652063757272656e63790000000000604482015290519081900360640190fd5b611b3c816116fe565b611b8d576040805162461bcd60e51b815260206004820181905260248201527f756e737570706f727465642064657374696e6174696f6e2063757272656e6379604482015290519081900360640190fd5b606954604080516321f8a72160e01b8152680a6f2dce8d0cae8d2f60bb1b600482015290516000926001600160a01b0316916321f8a721916024808301926020929190829003018186803b158015611be457600080fd5b505afa158015611bf8573d6000803e3d6000fd5b505050506040513d6020811015611c0e57600080fd5b5051606c5460408051631d68702d60e01b815290519293506000926001600160a01b03808616936330ead760938a938a938a931691631d68702d916004808301926020929190829003018186803b158015611c6857600080fd5b505afa158015611c7c573d6000803e3d6000fd5b505050506040513d6020811015611c9257600080fd5b5051606c54604080516349f7c02d60e01b815290516001600160a01b03909216916349f7c02d91600480820192602092909190829003018186803b158015611cd957600080fd5b505afa158015611ced573d6000803e3d6000fd5b505050506040513d6020811015611d0357600080fd5b5051604080516001600160e01b031960e089901b1681526004810196909652602486019490945260448501929092526001600160a01b0316606484015260848301525160a48083019260209291908290030181600087803b158015611d6757600080fd5b505af1158015611d7b573d6000803e3d6000fd5b505050506040513d6020811015611d9157600080fd5b505190507f2f3156bec1dba8438caa2579a04e750d9ca242f1c16d87594c77efdbede59bbe30611dbf611348565b604080516001600160a01b039384168152919092166020820152808201889052606081018790526080810186905260a081018490524260c082015290519081900360e00190a15050505050565b606b5460609081908190818167ffffffffffffffff81118015611e2e57600080fd5b50604051908082528060200260200182016040528015611e58578160200160208202803683370190505b50905060608267ffffffffffffffff81118015611e7457600080fd5b50604051908082528060200260200182016040528015611e9e578160200160208202803683370190505b50905060608367ffffffffffffffff81118015611eba57600080fd5b50604051908082528060200260200182016040528015611ee4578160200160208202803683370190505b50606954604080516321f8a72160e01b81526c45786368616e6765526174657360981b600482015290519293506000926001600160a01b03909216916321f8a72191602480820192602092909190829003018186803b158015611f4657600080fd5b505afa158015611f5a573d6000803e3d6000fd5b505050506040513d6020811015611f7057600080fd5b5051905060005b858110156120e1576000606b8281548110611f8e57fe5b90600052602060002001549050611fa48161109e565b6001600160a01b03166370a08231306040518263ffffffff1660e01b815260040180826001600160a01b0316815260200191505060206040518083038186803b158015611ff057600080fd5b505afa158015612004573d6000803e3d6000fd5b505050506040513d602081101561201a57600080fd5b5051855186908490811061202a57fe5b6020026020010181815250508086838151811061204357fe5b602002602001018181525050826001600160a01b031663ac82f608826040518263ffffffff1660e01b81526004018082815260200191505060206040518083038186803b15801561209357600080fd5b505afa1580156120a7573d6000803e3d6000fd5b505050506040513d60208110156120bd57600080fd5b505184518590849081106120cd57fe5b602090810291909101015250600101611f77565b509297919650945092505050565b60018054604080516020601f600260001961010087891615020190951694909404938401819004810282018101909252828152606093909290918301828280156115e35780601f1061214f576101008083540402835291602001916115e3565b820191906000526020600020905b81548152906001019060200180831161215d57509395945050505050565b606b546000828152606e6020526040812054612198906001612762565b90506000606b6121a9846001612762565b815481106121b357fe5b9060005260206000200154905080606b83815481106121ce57fe5b6000918252602090912001556121e58260016127a4565b6000828152606e60205260408082209290925585815290812055606b80548061220a57fe5b600190038181906000526020600020016000905590557f241d622959843ef6d15b4517709d11e054e1c06a2733f7773837c3d2377d8a893061224a611348565b604080516001600160a01b03938416815291909216602082015280820187905290519081900360600190a150505050565b6002546001600160a01b0382166000908152600360205260408120546122a2906001612762565b9050600060026122b3846001612762565b815481106122bd57fe5b600091825260209091200154600280546001600160a01b0390921692508291849081106122e657fe5b600091825260209091200180546001600160a01b0319166001600160a01b039290921691909117905561231a8260016127a4565b6001600160a01b0380831660009081526003602052604080822093909355908616815290812055600280548061234c57fe5b600082815260209020810160001990810180546001600160a01b031916905501905550505050565b606c60009054906101000a90046001600160a01b03166001600160a01b031663aa12ae4d6040518163ffffffff1660e01b815260040160206040518083038186803b1580156123c257600080fd5b505afa1580156123d6573d6000803e3d6000fd5b505050506040513d60208110156123ec57600080fd5b5051606b541061243c576040805162461bcd60e51b81526020600482015260166024820152751b585e1a5b5d5b48185cdcd95d1cc81c995858da195960521b604482015290519081900360640190fd5b612445816116fe565b15612497576040805162461bcd60e51b815260206004820152601760248201527f617373657420616c726561647920737570706f72746564000000000000000000604482015290519081900360640190fd5b6124a08161177b565b15156001146124e5576040805162461bcd60e51b815260206004820152600c60248201526b1b9bdd08185b88185cdcd95d60a21b604482015290519081900360640190fd5b606b80546001810182557fbd43cb8ece8cd1863bcd6082d65c5b0d25665b1ce17980f0da43c0ed545f98b401829055546000828152606e60205260409020557f4c719ca79dbb56150643ac79f2fbfa02370838ed0d116fc28b9703f5a071c4e23061254e611348565b604080516001600160a01b03938416815291909216602082015280820184905290519081900360600190a150565b600280546001810182557f405787fa12a823e0f2b7631cc41b3ba8828b3321ca811111fa75cd3aa3bb5ace0180546001600160a01b039093166001600160a01b0319909316831790555460009182526003602052604090912055565b606c546040805163011adcb160e21b81523060048201526024810184905290516001600160a01b039092169163046b72c49160448082019260009290919082900301818387803b15801561262b57600080fd5b505af115801561263f573d6000803e3d6000fd5b5050606c5460408051635bd2a29360e11b81523060048201528151600095508594506001600160a01b039093169263b7a5452692602480840193919291829003018186803b15801561269057600080fd5b505afa1580156126a4573d6000803e3d6000fd5b505050506040513d60408110156126ba57600080fd5b50805160209091015190925090507f1780c04ddc6f0b32d866c7a3d7583f53515ef49ed2126af868f804f491601266306126f2611348565b604080516001600160a01b0393841681529190921660208201528082018590526060810184905290519081900360800190a1505050565b303b1590565b600080546001600160a01b0319166001600160a01b038416179055805161275d906001906020840190612895565b505050565b600061129a83836040518060400160405280601e81526020017f536166654d6174683a207375627472616374696f6e206f766572666c6f7700008152506127fe565b60008282018381101561129a576040805162461bcd60e51b815260206004820152601b60248201527f536166654d6174683a206164646974696f6e206f766572666c6f770000000000604482015290519081900360640190fd5b6000818484111561288d5760405162461bcd60e51b81526004018080602001828103825283818151815260200191508051906020019080838360005b8381101561285257818101518382015260200161283a565b50505050905090810190601f16801561287f5780820380516001836020036101000a031916815260200191505b509250505060405180910390fd5b505050900390565b828054600181600116156101000203166002900490600052602060002090601f016020900481019282601f106128d657805160ff1916838001178555612903565b82800160010185558215612903579182015b828111156129035782518255916020019190600101906128e8565b5061290f929150612913565b5090565b5b8082111561290f576000815560010161291456fe6e6f6e2d656d7074792061737365742063616e6e6f742062652072656d6f76656470657273697374656e74206173736574732063616e27742062652072656d6f766564436f6e747261637420696e7374616e63652068617320616c7265616479206265656e20696e697469616c697a6564a264697066735822122051ffdae005ff216654d729dcc59dca24e061512f7341c4c2c95095d27127cc0e64736f6c634300060c0033",
  "linkReferences": {},
  "deployedLinkReferences": {}
}