{
  "_format": "hh-sol-artifact-1",
  "contractName": "PoolManagerLogic-ovm",
  "sourceName": "contracts/PoolManagerLogic.sol",
  "abi": [
    {
      "anonymous": false,
      "inputs": [
        {
          "indexed": false,
          "internalType": "address",
          "name": "fundAddress",
          "type": "address"
        },
        {
          "indexed": false,
          "internalType": "address",
          "name": "manager",
          "type": "address"
        },
        {
          "indexed": false,
          "internalType": "address",
          "name": "asset",
          "type": "address"
        }
      ],
      "name": "AssetAdded",
      "type": "event"
    },
    {
      "anonymous": false,
      "inputs": [
        {
          "indexed": false,
          "internalType": "address",
          "name": "fundAddress",
          "type": "address"
        },
        {
          "indexed": false,
          "internalType": "address",
          "name": "manager",
          "type": "address"
        },
        {
          "indexed": false,
          "internalType": "address",
          "name": "asset",
          "type": "address"
        }
      ],
      "name": "AssetRemoved",
      "type": "event"
    },
    {
      "anonymous": false,
      "inputs": [
        {
          "indexed": false,
          "internalType": "address",
          "name": "fundAddress",
          "type": "address"
        },
        {
          "indexed": false,
          "internalType": "address",
          "name": "manager",
          "type": "address"
        },
        {
          "indexed": false,
          "internalType": "address",
          "name": "sourceAsset",
          "type": "address"
        },
        {
          "indexed": false,
          "internalType": "uint256",
          "name": "sourceAmount",
          "type": "uint256"
        },
        {
          "indexed": false,
          "internalType": "address",
          "name": "destinationAddress",
          "type": "address"
        },
        {
          "indexed": false,
          "internalType": "uint256",
          "name": "destinationAmount",
          "type": "uint256"
        },
        {
          "indexed": false,
          "internalType": "uint256",
          "name": "time",
          "type": "uint256"
        }
      ],
      "name": "Exchange",
      "type": "event"
    },
    {
      "anonymous": false,
      "inputs": [
        {
          "indexed": false,
          "internalType": "uint256",
          "name": "newNumerator",
          "type": "uint256"
        },
        {
          "indexed": false,
          "internalType": "uint256",
          "name": "announcedFeeActivationTime",
          "type": "uint256"
        }
      ],
      "name": "ManagerFeeIncreaseAnnounced",
      "type": "event"
    },
    {
      "anonymous": false,
      "inputs": [],
      "name": "ManagerFeeIncreaseRenounced",
      "type": "event"
    },
    {
      "anonymous": false,
      "inputs": [
        {
          "indexed": false,
          "internalType": "address",
          "name": "fundAddress",
          "type": "address"
        },
        {
          "indexed": false,
          "internalType": "address",
          "name": "manager",
          "type": "address"
        },
        {
          "indexed": false,
          "internalType": "uint256",
          "name": "numerator",
          "type": "uint256"
        },
        {
          "indexed": false,
          "internalType": "uint256",
          "name": "denominator",
          "type": "uint256"
        }
      ],
      "name": "ManagerFeeSet",
      "type": "event"
    },
    {
      "anonymous": false,
      "inputs": [
        {
          "indexed": false,
          "internalType": "address",
          "name": "newManager",
          "type": "address"
        },
        {
          "indexed": false,
          "internalType": "string",
          "name": "newManagerName",
          "type": "string"
        }
      ],
      "name": "ManagerUpdated",
      "type": "event"
    },
    {
      "inputs": [
        {
          "internalType": "address",
          "name": "member",
          "type": "address"
        }
      ],
      "name": "addMember",
      "outputs": [],
      "stateMutability": "nonpayable",
      "type": "function"
    },
    {
      "inputs": [
        {
          "internalType": "address[]",
          "name": "members",
          "type": "address[]"
        }
      ],
      "name": "addMembers",
      "outputs": [],
      "stateMutability": "nonpayable",
      "type": "function"
    },
    {
      "inputs": [
        {
          "internalType": "address",
          "name": "asset",
          "type": "address"
        }
      ],
      "name": "addToSupportedAssets",
      "outputs": [],
      "stateMutability": "nonpayable",
      "type": "function"
    },
    {
      "inputs": [],
      "name": "addressResolver",
      "outputs": [
        {
          "internalType": "contract IAddressResolver",
          "name": "",
          "type": "address"
        }
      ],
      "stateMutability": "view",
      "type": "function"
    },
    {
      "inputs": [
        {
          "internalType": "address",
          "name": "pool",
          "type": "address"
        },
        {
          "internalType": "uint256",
          "name": "numerator",
          "type": "uint256"
        }
      ],
      "name": "announceManagerFeeIncrease",
      "outputs": [],
      "stateMutability": "nonpayable",
      "type": "function"
    },
    {
      "inputs": [],
      "name": "announcedFeeIncreaseNumerator",
      "outputs": [
        {
          "internalType": "uint256",
          "name": "",
          "type": "uint256"
        }
      ],
      "stateMutability": "view",
      "type": "function"
    },
    {
      "inputs": [],
      "name": "announcedFeeIncreaseTimestamp",
      "outputs": [
        {
          "internalType": "uint256",
          "name": "",
          "type": "uint256"
        }
      ],
      "stateMutability": "view",
      "type": "function"
    },
    {
      "inputs": [
        {
          "internalType": "address",
          "name": "asset",
          "type": "address"
        }
      ],
      "name": "assetBalance",
      "outputs": [
        {
          "internalType": "uint256",
          "name": "",
          "type": "uint256"
        }
      ],
      "stateMutability": "view",
      "type": "function"
    },
    {
      "inputs": [
        {
          "internalType": "address",
          "name": "",
          "type": "address"
        }
      ],
      "name": "assetPosition",
      "outputs": [
        {
          "internalType": "uint256",
          "name": "",
          "type": "uint256"
        }
      ],
      "stateMutability": "view",
      "type": "function"
    },
    {
      "inputs": [
        {
          "internalType": "address",
          "name": "asset",
          "type": "address"
        },
        {
          "internalType": "uint256",
          "name": "amount",
          "type": "uint256"
        }
      ],
      "name": "assetValue",
      "outputs": [
        {
          "internalType": "uint256",
          "name": "",
          "type": "uint256"
        }
      ],
      "stateMutability": "view",
      "type": "function"
    },
    {
      "inputs": [
        {
          "internalType": "address",
          "name": "asset",
          "type": "address"
        }
      ],
      "name": "assetValue",
      "outputs": [
        {
          "internalType": "uint256",
          "name": "",
          "type": "uint256"
        }
      ],
      "stateMutability": "view",
      "type": "function"
    },
    {
      "inputs": [
        {
          "internalType": "address",
          "name": "newManager",
          "type": "address"
        },
        {
          "internalType": "string",
          "name": "newManagerName",
          "type": "string"
        }
      ],
      "name": "changeManager",
      "outputs": [],
      "stateMutability": "nonpayable",
      "type": "function"
    },
    {
      "inputs": [
        {
          "internalType": "address",
          "name": "pool",
          "type": "address"
        }
      ],
      "name": "commitManagerFeeIncrease",
      "outputs": [],
      "stateMutability": "nonpayable",
      "type": "function"
    },
    {
      "inputs": [
        {
          "internalType": "bytes32",
          "name": "data",
          "type": "bytes32"
        }
      ],
      "name": "convert32toAddress",
      "outputs": [
        {
          "internalType": "address",
          "name": "o",
          "type": "address"
        }
      ],
      "stateMutability": "pure",
      "type": "function"
    },
    {
      "inputs": [
        {
          "internalType": "address",
          "name": "to",
          "type": "address"
        },
        {
          "internalType": "bytes",
          "name": "data",
          "type": "bytes"
        }
      ],
      "name": "execTransaction",
      "outputs": [
        {
          "internalType": "bool",
          "name": "",
          "type": "bool"
        }
      ],
      "stateMutability": "nonpayable",
      "type": "function"
    },
    {
      "inputs": [],
      "name": "factory",
      "outputs": [
        {
          "internalType": "address",
          "name": "",
          "type": "address"
        }
      ],
      "stateMutability": "view",
      "type": "function"
    },
    {
      "inputs": [
        {
          "internalType": "bytes",
          "name": "data",
          "type": "bytes"
        },
        {
          "internalType": "uint8",
          "name": "inputNum",
          "type": "uint8"
        },
        {
          "internalType": "uint8",
          "name": "arrayIndex",
          "type": "uint8"
        }
      ],
      "name": "getArrayIndex",
      "outputs": [
        {
          "internalType": "bytes32",
          "name": "",
          "type": "bytes32"
        }
      ],
      "stateMutability": "pure",
      "type": "function"
    },
    {
      "inputs": [
        {
          "internalType": "bytes",
          "name": "data",
          "type": "bytes"
        },
        {
          "internalType": "uint8",
          "name": "inputNum",
          "type": "uint8"
        }
      ],
      "name": "getArrayLast",
      "outputs": [
        {
          "internalType": "bytes32",
          "name": "",
          "type": "bytes32"
        }
      ],
      "stateMutability": "pure",
      "type": "function"
    },
    {
      "inputs": [
        {
          "internalType": "bytes",
          "name": "data",
          "type": "bytes"
        },
        {
          "internalType": "uint8",
          "name": "inputNum",
          "type": "uint8"
        }
      ],
      "name": "getArrayLength",
      "outputs": [
        {
          "internalType": "uint256",
          "name": "",
          "type": "uint256"
        }
      ],
      "stateMutability": "pure",
      "type": "function"
    },
    {
      "inputs": [
        {
          "internalType": "bytes32",
          "name": "key",
          "type": "bytes32"
        }
      ],
      "name": "getAssetProxy",
      "outputs": [
        {
          "internalType": "address",
          "name": "",
          "type": "address"
        }
      ],
      "stateMutability": "view",
      "type": "function"
    },
    {
      "inputs": [],
      "name": "getFundComposition",
      "outputs": [
        {
          "internalType": "address[]",
          "name": "",
          "type": "address[]"
        },
        {
          "internalType": "uint256[]",
          "name": "",
          "type": "uint256[]"
        },
        {
          "internalType": "uint256[]",
          "name": "",
          "type": "uint256[]"
        }
      ],
      "stateMutability": "view",
      "type": "function"
    },
    {
      "inputs": [
        {
          "internalType": "bytes",
          "name": "data",
          "type": "bytes"
        },
        {
          "internalType": "uint8",
          "name": "inputNum",
          "type": "uint8"
        }
      ],
      "name": "getInput",
      "outputs": [
        {
          "internalType": "bytes32",
          "name": "",
          "type": "bytes32"
        }
      ],
      "stateMutability": "pure",
      "type": "function"
    },
    {
      "inputs": [
        {
          "internalType": "address",
          "name": "pool",
          "type": "address"
        }
      ],
      "name": "getManagerFee",
      "outputs": [
        {
          "internalType": "uint256",
          "name": "",
          "type": "uint256"
        },
        {
          "internalType": "uint256",
          "name": "",
          "type": "uint256"
        }
      ],
      "stateMutability": "view",
      "type": "function"
    },
    {
      "inputs": [],
      "name": "getManagerFeeIncreaseInfo",
      "outputs": [
        {
          "internalType": "uint256",
          "name": "",
          "type": "uint256"
        },
        {
          "internalType": "uint256",
          "name": "",
          "type": "uint256"
        }
      ],
      "stateMutability": "view",
      "type": "function"
    },
    {
      "inputs": [],
      "name": "getMembers",
      "outputs": [
        {
          "internalType": "address[]",
          "name": "",
          "type": "address[]"
        }
      ],
      "stateMutability": "view",
      "type": "function"
    },
    {
      "inputs": [
        {
          "internalType": "bytes",
          "name": "data",
          "type": "bytes"
        }
      ],
      "name": "getMethod",
      "outputs": [
        {
          "internalType": "bytes4",
          "name": "",
          "type": "bytes4"
        }
      ],
      "stateMutability": "pure",
      "type": "function"
    },
    {
      "inputs": [],
      "name": "getSupportedAssets",
      "outputs": [
        {
          "internalType": "address[]",
          "name": "",
          "type": "address[]"
        }
      ],
      "stateMutability": "view",
      "type": "function"
    },
    {
      "inputs": [],
      "name": "getSuspendedAssets",
      "outputs": [
        {
          "internalType": "address[]",
          "name": "",
          "type": "address[]"
        },
        {
          "internalType": "bool[]",
          "name": "",
          "type": "bool[]"
        }
      ],
      "stateMutability": "view",
      "type": "function"
    },
    {
      "inputs": [
        {
          "internalType": "address",
          "name": "asset",
          "type": "address"
        }
      ],
      "name": "getSynthKey",
      "outputs": [
        {
          "internalType": "bytes32",
          "name": "",
          "type": "bytes32"
        }
      ],
      "stateMutability": "view",
      "type": "function"
    },
    {
      "inputs": [
        {
          "internalType": "address",
          "name": "_factory",
          "type": "address"
        },
        {
          "internalType": "address",
          "name": "_manager",
          "type": "address"
        },
        {
          "internalType": "string",
          "name": "_managerName",
          "type": "string"
        },
        {
          "internalType": "contract IAddressResolver",
          "name": "_addressResolver",
          "type": "address"
        },
        {
          "internalType": "address[]",
          "name": "_supportedAssets",
          "type": "address[]"
        }
      ],
      "name": "initialize",
      "outputs": [],
      "stateMutability": "nonpayable",
      "type": "function"
    },
    {
      "inputs": [
        {
          "internalType": "address",
          "name": "asset",
          "type": "address"
        }
      ],
      "name": "isAssetSupported",
      "outputs": [
        {
          "internalType": "bool",
          "name": "",
          "type": "bool"
        }
      ],
      "stateMutability": "view",
      "type": "function"
    },
    {
      "inputs": [
        {
          "internalType": "address",
          "name": "member",
          "type": "address"
        }
      ],
      "name": "isMemberAllowed",
      "outputs": [
        {
          "internalType": "bool",
          "name": "",
          "type": "bool"
        }
      ],
      "stateMutability": "view",
      "type": "function"
    },
    {
      "inputs": [
        {
          "internalType": "address",
          "name": "asset",
          "type": "address"
        }
      ],
      "name": "isSynthAsset",
      "outputs": [
        {
          "internalType": "bool",
          "name": "",
          "type": "bool"
        }
      ],
      "stateMutability": "view",
      "type": "function"
    },
    {
      "inputs": [],
      "name": "manager",
      "outputs": [
        {
          "internalType": "address",
          "name": "",
          "type": "address"
        }
      ],
      "stateMutability": "view",
      "type": "function"
    },
    {
      "inputs": [],
      "name": "managerName",
      "outputs": [
        {
          "internalType": "string",
          "name": "",
          "type": "string"
        }
      ],
      "stateMutability": "view",
      "type": "function"
    },
    {
      "inputs": [],
      "name": "numberOfMembers",
      "outputs": [
        {
          "internalType": "uint256",
          "name": "",
          "type": "uint256"
        }
      ],
      "stateMutability": "view",
      "type": "function"
    },
    {
      "inputs": [],
      "name": "numberOfSupportedAssets",
      "outputs": [
        {
          "internalType": "uint256",
          "name": "",
          "type": "uint256"
        }
      ],
      "stateMutability": "view",
      "type": "function"
    },
    {
      "inputs": [
        {
          "internalType": "address",
          "name": "",
          "type": "address"
        }
      ],
      "name": "persistentAsset",
      "outputs": [
        {
          "internalType": "bool",
          "name": "",
          "type": "bool"
        }
      ],
      "stateMutability": "view",
      "type": "function"
    },
    {
      "inputs": [
        {
          "internalType": "bytes",
          "name": "data",
          "type": "bytes"
        },
        {
          "internalType": "uint256",
          "name": "offset",
          "type": "uint256"
        },
        {
          "internalType": "uint256",
          "name": "length",
          "type": "uint256"
        }
      ],
      "name": "read32",
      "outputs": [
        {
          "internalType": "bytes32",
          "name": "o",
          "type": "bytes32"
        }
      ],
      "stateMutability": "pure",
      "type": "function"
    },
    {
      "inputs": [
        {
          "internalType": "bytes",
          "name": "data",
          "type": "bytes"
        },
        {
          "internalType": "uint256",
          "name": "offset",
          "type": "uint256"
        },
        {
          "internalType": "uint256",
          "name": "length",
          "type": "uint256"
        }
      ],
      "name": "read4left",
      "outputs": [
        {
          "internalType": "bytes4",
          "name": "o",
          "type": "bytes4"
        }
      ],
      "stateMutability": "pure",
      "type": "function"
    },
    {
      "inputs": [
        {
          "internalType": "address",
          "name": "asset",
          "type": "address"
        }
      ],
      "name": "removeFromSupportedAssets",
      "outputs": [],
      "stateMutability": "nonpayable",
      "type": "function"
    },
    {
      "inputs": [
        {
          "internalType": "address",
          "name": "member",
          "type": "address"
        }
      ],
      "name": "removeMember",
      "outputs": [],
      "stateMutability": "nonpayable",
      "type": "function"
    },
    {
      "inputs": [
        {
          "internalType": "address[]",
          "name": "members",
          "type": "address[]"
        }
      ],
      "name": "removeMembers",
      "outputs": [],
      "stateMutability": "nonpayable",
      "type": "function"
    },
    {
      "inputs": [],
      "name": "removeTrader",
      "outputs": [],
      "stateMutability": "nonpayable",
      "type": "function"
    },
    {
      "inputs": [],
      "name": "renounceManagerFeeIncrease",
      "outputs": [],
      "stateMutability": "nonpayable",
      "type": "function"
    },
    {
      "inputs": [
        {
          "internalType": "address",
          "name": "_addressResolver",
          "type": "address"
        }
      ],
      "name": "setAddressResolver",
      "outputs": [],
      "stateMutability": "nonpayable",
      "type": "function"
    },
    {
      "inputs": [
        {
          "internalType": "address",
          "name": "newTrader",
          "type": "address"
        }
      ],
      "name": "setTrader",
      "outputs": [],
      "stateMutability": "nonpayable",
      "type": "function"
    },
    {
      "inputs": [
        {
          "internalType": "uint256",
          "name": "",
          "type": "uint256"
        }
      ],
      "name": "supportedAssets",
      "outputs": [
        {
          "internalType": "address",
          "name": "",
          "type": "address"
        }
      ],
      "stateMutability": "view",
      "type": "function"
    },
    {
      "inputs": [],
      "name": "trader",
      "outputs": [
        {
          "internalType": "address",
          "name": "",
          "type": "address"
        }
      ],
      "stateMutability": "view",
      "type": "function"
    },
    {
      "inputs": [
        {
          "internalType": "address",
          "name": "asset",
          "type": "address"
        }
      ],
      "name": "validateAsset",
      "outputs": [
        {
          "internalType": "bool",
          "name": "",
          "type": "bool"
        }
      ],
      "stateMutability": "view",
      "type": "function"
    }
  ],
  "bytecode": "0x60806040523480156200001c576000806200001962000023565b50505b5062000090565b632a2a7adb598160e01b8152600481016020815285602082015260005b868110156200005d57808601518282016040015260200162000040565b506020828760640184336000905af158600e01573d6000803e3d6000fd5b3d6001141558600a015760016000f35b505050565b61576f80620000a06000396000f3fe608060405234801561001957600080610016615277565b50505b50600436106102df5760003560e01c806380dd4f621161018b578063bbbf725b116100f2578063d346cc65116100ab578063e5406dbf11610085578063e5406dbf1461130d578063ed5b165d14611315578063f09d14d71461131d578063fed4416a14611403576102df565b8063d346cc6514611084578063d8af8ed414611212578063db896b5714611241576102df565b8063bbbf725b14610f02578063c3c6279f14610f31578063c45a015514610ff8578063c68dbb3714611000578063ca6d56dc14611026578063cd88e55814611055576102df565b8063998546e311610144578063998546e314610d6d5780639eab525314610e39578063a0f8414c14610e94578063a30e3fa914610ec3578063a6bc18f914610ecb578063b8bd81e614610efa576102df565b806380dd4f6214610c0457806382f86acc14610c335780638f32343914610cff5780639240d29914610d07578063936553c414610d36578063969eed2714610d3e576102df565b806341dc16c31161024a5780635f6eceab116102035780636f4d469b116101dd5780636f4d469b14610a585780637ae7cfb514610b1d5780637b4d0c6314610bf45780637c8afd5114610bfc576102df565b80635f6eceab146109ad5780636141db90146109f45780636708f5d714610a23576102df565b806341dc16c314610606578063464b4158146106dd57806346ee84b014610720578063481c6a75146107e557806352213663146107ed578063568b5a2f146108c4576102df565b80631758078b1161029c5780631758078b146104ad5780631eba3077146104b557806321f8c984146104db57806329c07fba1461057c5780633c570d7d146105b15780633ded6530146105e0576102df565b806305a2ee2a146102ed5780630646858714610311578063093b88251461034257806309ff5c7d146103715780630b1ca49a1461044f578063143023871461047e575b6000806102ea615277565b50505b6102f5611482565b6040516001600160a01b03909116815260200160405180910390f35b610340600480360360208110156103305760008061032d615277565b50505b50356001600160a01b03166114a1565b005b610340600480360360208110156103615760008061035e615277565b50505b50356001600160a01b0316611884565b61043d600480360360408110156103905760008061038d615277565b50505b810190602081018135600160201b8111156103b3576000806103b0615277565b50505b8201836020820111156103ce576000806103cb615277565b50505b803590602001918460018302840111600160201b831117156103f8576000806103f5615277565b50505b91908080601f01602080910402602001604051908101604052818152929190602084018383808284376000920191909152509295505050903560ff1691506119569050565b60405190815260200160405180910390f35b6103406004803603602081101561046e5760008061046b615277565b50505b50356001600160a01b03166119f1565b6103406004803603602081101561049d5760008061049a615277565b50505b50356001600160a01b0316611a8c565b6102f5611b43565b6102f5600480360360208110156104d4576000806104d1615277565b50505b5035611b65565b6104e3611b6c565b604051808060200180602001838103835285818151815260200191508051906020019060200280838360005b8381101561052757808201518382015260200161050f565b50505050905001838103825284818151815260200191508051906020019060200280838360005b8381101561056657808201518382015260200161054e565b5050505090500194505050505060405180910390f35b61043d6004803603604081101561059b57600080610598615277565b50505b506001600160a01b038135169060200135611e2e565b61043d600480360360208110156105d0576000806105cd615277565b50505b50356001600160a01b0316611f24565b6102f5600480360360208110156105ff576000806105fc615277565b50505b5035611f3f565b61043d6004803603606081101561062557600080610622615277565b50505b810190602081018135600160201b81111561064857600080610645615277565b50505b82018360208201111561066357600080610660615277565b50505b803590602001918460018302840111600160201b8311171561068d5760008061068a615277565b50505b91908080601f01602080910402602001604051908101604052818152929190602084018383808284376000920191909152509295505060ff83358116945060209093013590921691506122059050565b61070c600480360360208110156106fc576000806106f9615277565b50505b50356001600160a01b03166122fd565b604051901515815260200160405180910390f35b6103406004803603602081101561073f5760008061073c615277565b50505b810190602081018135600160201b8111156107625760008061075f615277565b50505b82018360208201111561077d5760008061077a615277565b50505b803590602001918460208302840111600160201b831117156107a7576000806107a4615277565b50505b919080806020026020016040519081016040528093929190818152602001838360200280828437600092019190915250929550612325945050505050565b6102f56123fe565b6103406004803603604081101561080c57600080610809615277565b50505b6001600160a01b038235169190810190604081016020820135600160201b81111561083f5760008061083c615277565b50505b82018360208201111561085a57600080610857615277565b50505b803590602001918460018302840111600160201b8311171561088457600080610881615277565b50505b91908080601f016020809104026020016040519081016040528181529291906020840183838082843760009201919091525092955061240b945050505050565b610990600480360360608110156108e3576000806108e0615277565b50505b810190602081018135600160201b81111561090657600080610903615277565b50505b8201836020820111156109215760008061091e615277565b50505b803590602001918460018302840111600160201b8311171561094b57600080610948615277565b50505b91908080601f01602080910402602001604051908101604052818152929190602084018383808284376000920191909152509295505082359350505060200135612580565b6040516001600160e01b0319909116815260200160405180910390f35b6109dc600480360360208110156109cc576000806109c9615277565b50505b50356001600160a01b0316612609565b60405191825260208201526040908101905180910390f35b61043d60048036036020811015610a1357600080610a10615277565b50505b50356001600160a01b03166126e8565b61034060048036036040811015610a4257600080610a3f615277565b50505b506001600160a01b03813516906020013561295a565b61034060048036036020811015610a7757600080610a74615277565b50505b810190602081018135600160201b811115610a9a57600080610a97615277565b50505b820183602082011115610ab557600080610ab2615277565b50505b803590602001918460208302840111600160201b83111715610adf57600080610adc615277565b50505b919080806020026020016040519081016040528093929190818152602001838360200280828437600092019190915250929550612c8a945050505050565b61070c60048036036040811015610b3c57600080610b39615277565b50505b6001600160a01b038235169190810190604081016020820135600160201b811115610b6f57600080610b6c615277565b50505b820183602082011115610b8a57600080610b87615277565b50505b803590602001918460018302840111600160201b83111715610bb457600080610bb1615277565b50505b91908080601f0160208091040260200160405190810160405281815292919060208401838380828437600092019190915250929550612d53945050505050565b61043d61329b565b6103406132a5565b61070c60048036036020811015610c2357600080610c20615277565b50505b50356001600160a01b031661335b565b61043d60048036036040811015610c5257600080610c4f615277565b50505b810190602081018135600160201b811115610c7557600080610c72615277565b50505b820183602082011115610c9057600080610c8d615277565b50505b803590602001918460018302840111600160201b83111715610cba57600080610cb7615277565b50505b91908080601f01602080910402602001604051908101604052818152929190602084018383808284376000920191909152509295505050903560ff1691506133829050565b61043d613399565b61070c60048036036020811015610d2657600080610d23615277565b50505b50356001600160a01b03166133a3565b61043d613409565b61034060048036036020811015610d5d57600080610d5a615277565b50505b50356001600160a01b031661341c565b61043d60048036036040811015610d8c57600080610d89615277565b50505b810190602081018135600160201b811115610daf57600080610dac615277565b50505b820183602082011115610dca57600080610dc7615277565b50505b803590602001918460018302840111600160201b83111715610df457600080610df1615277565b50505b91908080601f01602080910402602001604051908101604052818152929190602084018383808284376000920191909152509295505050903560ff16915061353b9050565b610e41613564565b60405160208082528190810183818151815260200191508051906020019060200280838360005b83811015610e80578082015183820152602001610e68565b505050509050019250505060405180910390f35b61070c60048036036020811015610eb357600080610eb0615277565b50505b50356001600160a01b03166135eb565b61043d6138a2565b61034060048036036020811015610eea57600080610ee7615277565b50505b50356001600160a01b03166138af565b61034061393d565b61070c60048036036020811015610f2157600080610f1e615277565b50505b50356001600160a01b0316613a0c565b61099060048036036020811015610f5057600080610f4d615277565b50505b810190602081018135600160201b811115610f7357600080610f70615277565b50505b820183602082011115610f8e57600080610f8b615277565b50505b803590602001918460018302840111600160201b83111715610fb857600080610fb5615277565b50505b91908080601f0160208091040260200160405190810160405281815292919060208401838380828437600092019190915250929550613a2c945050505050565b6102f5613a3b565b6102f56004803603602081101561101f5760008061101c615277565b50505b5035613a47565b6103406004803603602081101561104557600080611042615277565b50505b50356001600160a01b0316613a71565b61043d6004803603602081101561107457600080611071615277565b50505b50356001600160a01b0316613b0d565b610340600480360360a08110156110a3576000806110a0615277565b50505b6001600160a01b038235811692602081013590911691810190606081016040820135600160201b8111156110df576000806110dc615277565b50505b8201836020820111156110fa576000806110f7615277565b50505b803590602001918460018302840111600160201b8311171561112457600080611121615277565b50505b91908080601f016020809104026020016040519081016040528181529291906020840183838082843760009201919091525092956001600160a01b03853516959094909350604081019250602001359050600160201b81111561118f5760008061118c615277565b50505b8201836020820111156111aa576000806111a7615277565b50505b803590602001918460208302840111600160201b831117156111d4576000806111d1615277565b50505b919080806020026020016040519081016040528093929190818152602001838360200280828437600092019190915250929550613bb1945050505050565b61043d600480360360208110156112315760008061122e615277565b50505b50356001600160a01b0316613d8a565b61043d600480360360608110156112605760008061125d615277565b50505b810190602081018135600160201b81111561128357600080611280615277565b50505b82018360208201111561129e5760008061129b615277565b50505b803590602001918460018302840111600160201b831117156112c8576000806112c5615277565b50505b91908080601f01602080910402602001604051908101604052818152929190602084018383808284376000920191909152509295505082359350505060200135613d9e565b610e41613e22565b6109dc613ea8565b611325613ec7565b60405180806020018060200180602001848103845287818151815260200191508051906020019060200280838360005b8381101561136d578082015183820152602001611355565b50505050905001848103835286818151815260200191508051906020019060200280838360005b838110156113ac578082015183820152602001611394565b50505050905001848103825285818151815260200191508051906020019060200280838360005b838110156113eb5780820151838201526020016113d3565b50505050905001965050505050505060405180910390f35b61140b614154565b60405160208082528190810183818151815260200191508051906020019080838360005b8381101561144757808201518382015260200161142f565b50505050905090810190601f1680156114745780820380516001836020036101000a031916815260200191505b509250505060405180910390f35b6000603861148e6152e2565b906101000a90046001600160a01b031681565b600060396114ad6152e2565b906101000a90046001600160a01b03166001600160a01b0316638da5cb5b6040518163ffffffff1660e01b815260040160206040518083038186806114f061533d565b15801561150557600080611502615277565b50505b505a61150f615389565b505050505015801561152e573d6000803e3d600061152b615277565b50505b505050506040513d602081101561154d5760008061154a615277565b50505b8101908080516001600160a01b0316925050505a611569615474565b6001600160a01b0316148061159e57506115816123fe565b6001600160a01b03165a611593615474565b6001600160a01b0316145b806115c957506115ac611b43565b6001600160a01b03165a6115be615474565b6001600160a01b0316145b6116225760405162461bcd60e51b815260206004820152601b60248201527f6f6e6c79206d616e616765722c20747261646572206f722044414f000000000060448201526064016040518091039061161f615277565b50505b61162b816122fd565b61167a5760405162461bcd60e51b8152602060048201526013602482015272185cdcd95d081b9bdd081cdd5c1c1bdc9d1959606a1b604482015260640160405180910390611677615277565b50505b6001600160a01b0381166000908152603c6020526040902060009061169d6152e2565b906101000a900460ff16156117015760405162461bcd60e51b815260206004820152601f60248201527f63616e6e6f742072656d6f76652070657273697374656e7420617373657473006044820152606401604051809103906116fe615277565b50505b61170a816133a3565b15156001141561187857806001600160a01b03166370a082315a63996d79a5598160e01b8152602081600483336000905af158600e01573d6000803e3d6000fd5b3d6001141558600a015760016000f35b8051925060005b604081101561177957600082820152602001611762565b5050506040516001600160e01b031960e084901b1681526001600160a01b03909116600482015260240160206040518083038186806117b661533d565b1580156117cb576000806117c8615277565b50505b505a6117d5615389565b50505050501580156117f4573d6000803e3d60006117f1615277565b50505b505050506040513d602081101561181357600080611810615277565b50505b8101908080511592506118789150505760405162461bcd60e51b815260206004820152601d60248201527f63616e6e6f742072656d6f7665206e6f6e2d656d707479206173736574000000604482015260640160405180910390611875615277565b50505b61188181614208565b50565b600060336118906152e2565b906101000a90046001600160a01b03166001600160a01b03165a6118b2615474565b6001600160a01b031614806118fb5750600060376118ce6152e2565b906101000a90046001600160a01b03166001600160a01b03165a6118f0615474565b6001600160a01b0316145b61194d5760405162461bcd60e51b815260206004820152601660248201527537b7363c9036b0b730b3b2b91037b9103a3930b232b960511b60448201526064016040518091039061194a615277565b50505b6118818161444a565b60008061196e848460200260040160ff166020613d9e565b9050600061198185600484016020613d9e565b9050806119d25760405162461bcd60e51b8152602060048201526012602482015271696e707574206973206e6f7420617272617960701b6044820152606401604051809103906119cf615277565b50505b6119e6856020808402850160040190613d9e565b925050505b92915050565b600060336119fd6152e2565b906101000a90046001600160a01b03166001600160a01b03165a611a1f615474565b6001600160a01b031614611a715760405162461bcd60e51b815260206004820152600c60248201526b37b7363c9036b0b730b3b2b960a11b604482015260640160405180910390611a6e615277565b50505b611a7a81613a0c565b611a8357611881565b6118818161476f565b60006039611a986152e2565b906101000a90046001600160a01b03166001600160a01b03165a611aba615474565b6001600160a01b031614611b0d5760405162461bcd60e51b815260206004820152600d60248201526c3737903832b936b4b9b9b4b7b760991b604482015260640160405180910390611b0a615277565b50505b806038600181611b1b6152e2565b816001600160a01b0302191690836001600160a01b0316021790611b3d6154ba565b50505050565b6000806037611b506152e2565b906101000a90046001600160a01b0316905090565b805b919050565b6060806000603a80611b7c6152e2565b9050905060608167ffffffffffffffff81118015611ba257600080611b9f615277565b50505b50604051908082528060200260200182016040528015611bcc578160200160208202803683370190505b50905060608267ffffffffffffffff81118015611bf157600080611bee615277565b50505b50604051908082528060200260200182016040528015611c1b578160200160208202803683370190505b5090506000806038611c2b6152e2565b906101000a90046001600160a01b03166001600160a01b03166321f8a7216b53797374656d53746174757360a01b6040516001600160e01b031960e084901b16815260048101919091526024016020604051808303818680611c8b61533d565b158015611ca057600080611c9d615277565b50505b505a611caa615389565b5050505050158015611cc9573d6000803e3d6000611cc6615277565b50505b505050506040513d6020811015611ce857600080611ce5615277565b50505b81019080805193506000925050505b84811015611e22576000603a8281611d0d6152e2565b8110611d1557fe5b90600052602060002001600090611d2a6152e2565b906101000a90046001600160a01b0316905080858381518110611d4957fe5b6001600160a01b03928316602091820292909201015283166342a28e21611d6f836126e8565b6040516001600160e01b031960e084901b16815260048101919091526024016000604051808303818680611da161533d565b158015611db657600080611db3615277565b50505b505a611dc0615389565b5050505050925050508015611dd3575060015b611dfa576001848381518110611de557fe5b91151560209283029190910190910152611e19565b6000848381518110611e0857fe5b911515602092830291909101909101525b50600101611cf7565b50919450925050509091565b600080806039611e3c6152e2565b906101000a90046001600160a01b03166001600160a01b0316638b2f0f4f856040516001600160e01b031960e084901b1681526001600160a01b0390911660048201526024016020604051808303818680611e9561533d565b158015611eaa57600080611ea7615277565b50505b505a611eb4615389565b5050505050158015611ed3573d6000803e3d6000611ed0615277565b50505b505050506040513d6020811015611ef257600080611eef615277565b50505b8101908080519350611f1c9250670de0b6b3a76400009150611f16905083866148e2565b90614941565b949350505050565b603b6020528060005260406000209050611f3c6152e2565b81565b600080806038611f4d6152e2565b906101000a90046001600160a01b03166001600160a01b03166321f8a721680a6f2dce8d0cae8d2f60bb1b6040516001600160e01b031960e084901b16815260048101919091526024016020604051808303818680611faa61533d565b158015611fbf57600080611fbc615277565b50505b505a611fc9615389565b5050505050158015611fe8573d6000803e3d6000611fe5615277565b50505b505050506040513d602081101561200757600080612004615277565b50505b8101908080516001600160a01b03169250633260803991508590506040516001600160e01b031960e084901b1681526004810191909152602401602060405180830381868061205461533d565b15801561206957600080612066615277565b50505b505a612073615389565b5050505050158015612092573d6000803e3d600061208f615277565b50505b505050506040513d60208110156120b1576000806120ae615277565b50505b81019080805193505050506001600160a01b03811661210d5760405162461bcd60e51b815260206004820152600b60248201526a696e76616c6964206b657960a81b60448201526064016040518091039061210a615277565b50505b6000816001600160a01b031663ec5568896040518163ffffffff1660e01b8152600401602060405180830381868061214361533d565b15801561215857600080612155615277565b50505b505a612162615389565b5050505050158015612181573d6000803e3d600061217e615277565b50505b505050506040513d60208110156121a05760008061219d615277565b50505b81019080805193505050506001600160a01b0381166121fe5760405162461bcd60e51b815260206004820152600d60248201526c696e76616c69642070726f787960981b6044820152606401604051809103906121fb615277565b50505b9392505050565b60008061221d858560200260040160ff166020613d9e565b9050600061223086600484016020613d9e565b9050806122815760405162461bcd60e51b8152602060048201526012602482015271696e707574206973206e6f7420617272617960701b60448201526064016040518091039061227e615277565b50505b60ff841681116122d95760405162461bcd60e51b815260206004820152601660248201527534b73b30b634b21030b93930bc903837b9b4ba34b7b760511b6044820152606401604051809103906122d6615277565b50505b6122f3866020600160ff8816018102850160040190613d9e565b9695505050505050565b6001600160a01b0381166000908152603b6020526040812061231d6152e2565b151592915050565b600060336123316152e2565b906101000a90046001600160a01b03166001600160a01b03165a612353615474565b6001600160a01b0316146123a55760405162461bcd60e51b815260206004820152600c60248201526b37b7363c9036b0b730b3b2b960a11b6044820152606401604051809103906123a2615277565b50505b60005b81518110156123fa576123cd8282815181106123c057fe5b6020026020010151613a0c565b6123d6576123f2565b6123f28282815181106123e557fe5b602002602001015161476f565b6001016123a8565b5050565b6000806033611b506152e2565b600060336124176152e2565b906101000a90046001600160a01b03166001600160a01b03165a612439615474565b6001600160a01b03161461248b5760405162461bcd60e51b815260206004820152600c60248201526b37b7363c9036b0b730b3b2b960a11b604482015260640160405180910390612488615277565b50505b8160336001816124996152e2565b816001600160a01b0302191690836001600160a01b03160217906124bb6154ba565b5050508060349080516124d2929160200190615508565b507f6ed15082ad038474841528b5badca105106d4463e44b5d434130dfb299aa366982826040516001600160a01b038316815260406020820181815290820183818151815260200191508051906020019080838360005b83811015612541578082015183820152602001612529565b50505050905090810190601f16801561256e5780820380516001836020036101000a031916815260200191505b50935050505060405180910390a15050565b6000818301845110156125e25760405162461bcd60e51b815260206004820152601b60248201527f52656164696e67206279746573206f7574206f6620626f756e647300000000006044820152606401604051809103906125df615277565b50505b826020018401519050816004038015612601576008810260020a820491505b509392505050565b6000808060396126176152e2565b906101000a90046001600160a01b03166001600160a01b031663b7a54526846040516001600160e01b031960e084901b1681526001600160a01b0390911660048201526024016040805180830381868061266f61533d565b15801561268457600080612681615277565b50505b505a61268e615389565b50505050501580156126ad573d6000803e3d60006126aa615277565b50505b505050506040513d60408110156126cc576000806126c9615277565b50505b8101908080519291906020018051939550929350505050915091565b60006126f3826135eb565b61273e5760405162461bcd60e51b815260206004820152600f60248201526e1b9bdb8b5cde5b9d1a08185cdcd95d608a1b60448201526064016040518091039061273b615277565b50505b6000603861274a6152e2565b906101000a90046001600160a01b03166001600160a01b03166321f8a721680a6f2dce8d0cae8d2f60bb1b6040516001600160e01b031960e084901b168152600481019190915260240160206040518083038186806127a761533d565b1580156127bc576000806127b9615277565b50505b505a6127c6615389565b50505050501580156127e5573d6000803e3d60006127e2615277565b50505b505050506040513d602081101561280457600080612801615277565b50505b8101908080516001600160a01b0390811693506316b2213f92508516905063d4b839926040518163ffffffff1660e01b8152600401602060405180830381868061284c61533d565b1580156128615760008061285e615277565b50505b505a61286b615389565b505050505015801561288a573d6000803e3d6000612887615277565b50505b505050506040513d60208110156128a9576000806128a6615277565b50505b81019080805192506040915050516001600160e01b031960e084901b1681526001600160a01b03909116600482015260240160206040518083038186806128ee61533d565b15801561290357600080612900615277565b50505b505a61290d615389565b505050505015801561292c573d6000803e3d6000612929615277565b50505b505050506040513d602081101561294b57600080612948615277565b50505b81019080805195945050505050565b600060336129666152e2565b906101000a90046001600160a01b03166001600160a01b03165a612988615474565b6001600160a01b0316146129da5760405162461bcd60e51b815260206004820152600c60248201526b37b7363c9036b0b730b3b2b960a11b6044820152606401604051809103906129d7615277565b50505b60008060396129e76152e2565b906101000a90046001600160a01b03166001600160a01b0316635c9bfc2b6040518163ffffffff1660e01b81526004016020604051808303818680612a2a61533d565b158015612a3f57600080612a3c615277565b50505b505a612a49615389565b5050505050158015612a68573d6000803e3d6000612a65615277565b50505b505050506040513d6020811015612a8757600080612a84615277565b50505b810190808051935060009250829150612aa1905085612609565b909250905080841115612af65760405162461bcd60e51b815260206004820152601060248201526f34b73b30b634b210333930b1ba34b7b760811b604482015260640160405180910390612af3615277565b50505b612b008284614981565b841115612b5c5760405162461bcd60e51b815260206004820152601960248201527f657863656564656420616c6c6f77656420696e63726561736500000000000000604482015260640160405180910390612b59615277565b50505b6000806039612b696152e2565b906101000a90046001600160a01b03166001600160a01b031663ebee461d6040518163ffffffff1660e01b81526004016020604051808303818680612bac61533d565b158015612bc157600080612bbe615277565b50505b505a612bcb615389565b5050505050158015612bea573d6000803e3d6000612be7615277565b50505b505050506040513d6020811015612c0957600080612c06615277565b50505b8101908080519350879250829150603d9050612c236154ba565b505050805a612c306155a8565b0180603e612c3c6154ba565b5050507f4db9119741646c419f1ceccdf112b5b9a9b4516355e742e1fa9c479f4dec98da85603e612c6b6152e2565b60405191825260208201526040908101905180910390a1505050505050565b60006033612c966152e2565b906101000a90046001600160a01b03166001600160a01b03165a612cb8615474565b6001600160a01b031614612d0a5760405162461bcd60e51b815260206004820152600c60248201526b37b7363c9036b0b730b3b2b960a11b604482015260640160405180910390612d07615277565b50505b60005b81518110156123fa57612d258282815181106123c057fe5b15612d2f57612d4b565b612d4b828281518110612d3e57fe5b60200260200101516149e0565b600101612d0d565b6000806033612d606152e2565b906101000a90046001600160a01b03166001600160a01b03165a612d82615474565b6001600160a01b03161480612dcb575060006037612d9e6152e2565b906101000a90046001600160a01b03166001600160a01b03165a612dc0615474565b6001600160a01b0316145b612e1d5760405162461bcd60e51b815260206004820152601660248201527537b7363c9036b0b730b3b2b91037b9103a3930b232b960511b604482015260640160405180910390612e1a615277565b50505b6001600160a01b038316612e805760405162461bcd60e51b815260206004820152601c60248201527f6e6f6e2d7a65726f206164647265737320697320726571756972656400000000604482015260640160405180910390612e7d615277565b50505b6000806039612e8d6152e2565b906101000a90046001600160a01b03166001600160a01b0316637027ea6c856040516001600160e01b031960e084901b1681526001600160a01b0390911660048201526024016020604051808303818680612ee661533d565b158015612efb57600080612ef8615277565b50505b505a612f05615389565b5050505050158015612f24573d6000803e3d6000612f21615277565b50505b505050506040513d6020811015612f4357600080612f40615277565b50505b81019080805193505050506001600160a01b038116612fa75760405162461bcd60e51b815260206004820152601360248201527234b73b30b634b2103232b9ba34b730ba34b7b760691b604482015260640160405180910390612fa4615277565b50505b600080600080846001600160a01b031663e23ff4375a63996d79a5598160e01b8152602081600483336000905af158600e01573d6000803e3d6000fd5b3d6001141558600a015760016000f35b8051925060005b604081101561301257600082820152602001612ffb565b505050896040518363ffffffff1660e01b815260040180836001600160a01b0316815260200180602001828103825283818151815260200191508051906020019080838360005b83811015613071578082015183820152602001613059565b50505050905090810190601f16801561309e5780820380516001836020036101000a031916815260200191505b50935050505060806040518083038186806130b761533d565b1580156130cc576000806130c9615277565b50505b505a6130d6615389565b50505050501580156130f5573d6000803e3d60006130f2615277565b50505b505050506040513d608081101561311457600080613111615277565b50505b81019080805192919060200180519291906020018051929190602001805195995093975091955092935050505060ff8416600214156131785761316a8861315a85611b65565b8461316485611b65565b8b614a6c565b6001955050505050506119eb565b6000886001600160a01b0316886040518082805190602001908083835b602083106131b45780518252601f199092019160209182019101613195565b6001836020036101000a0380198251168184511680821785525050505050509050019150506000604051808303816000865a6131ee6155ee565b5050505050509150503d8060008114613223576040513d603f01601f191681016040523d815291503d6000602084013e613228565b606091505b509091505060018115151461328c5760405162461bcd60e51b815260206004820152601a60248201527f6661696c656420746f2065786563757465207468652063616c6c000000000000604482015260640160405180910390613289615277565b50505b50600198975050505050505050565b603e611f3c6152e2565b600060336132b16152e2565b906101000a90046001600160a01b03166001600160a01b03165a6132d3615474565b6001600160a01b0316146133255760405162461bcd60e51b815260206004820152600c60248201526b37b7363c9036b0b730b3b2b960a11b604482015260640160405180910390613322615277565b50505b600060376001816133346152e2565b816001600160a01b0302191690836001600160a01b03160217906133566154ba565b505050565b603c602052806000526040600020600091506133756152e2565b906101000a900460ff1681565b60006121fe838360200260040160ff166020613d9e565b603d611f3c6152e2565b60008060396133b06152e2565b906101000a90046001600160a01b03166001600160a01b031663cc435bf3836040516001600160e01b031960e084901b1681526001600160a01b03909116600482015260240160206040518083038186806128ee61533d565b6000603a806134166152e2565b91505090565b600060336134286152e2565b906101000a90046001600160a01b03166001600160a01b03165a61344a615474565b6001600160a01b03161461349c5760405162461bcd60e51b815260206004820152600c60248201526b37b7363c9036b0b730b3b2b960a11b604482015260640160405180910390613499615277565b50505b603e6134a66152e2565b5a6134af6155a8565b101561350a5760405162461bcd60e51b815260206004820152601960248201527f66656520696e6372656173652064656c61792061637469766500000000000000604482015260640160405180910390613507615277565b50505b61351d81603d6135186152e2565b614d33565b600080603d61352a6154ba565b5050506000603e8190611b3d6154ba565b600080613553848460200260040160ff166020613d9e565b9050611f1c84600483016020613d9e565b60606035806135716152e2565b8060200260200160405190810160405281815291906020830182806135946152e2565b80156135e157602002820191906000526020600020905b6000826135b66152e2565b906101000a90046001600160a01b03166001600160a01b0316815260200190600101908083116135ab575b5050505050905090565b60006135ff826001600160a01b0316614f86565b6136485760405162461bcd60e51b815260206004820152600d60248201526c1a5b9d985b1a5908185cdcd95d609a1b604482015260640160405180910390613645615277565b50505b816001600160a01b031663d4b839926040518163ffffffff1660e01b8152600401602060405180830381868061367c61533d565b1580156136915760008061368e615277565b50505b505a61369b615389565b50505050509250505080156136d457506040513d60208110156136c6576000806136c3615277565b50505b810190808051925060019150505b613712573d808015613702576040513d603f01601f191681016040523d815291503d6000602084013e613707565b606091505b506000915050611b67565b600080603861371f6152e2565b906101000a90046001600160a01b03166001600160a01b03166321f8a721680a6f2dce8d0cae8d2f60bb1b6040516001600160e01b031960e084901b1681526004810191909152602401602060405180830381868061377c61533d565b1580156137915760008061378e615277565b50505b505a61379b615389565b50505050501580156137ba573d6000803e3d60006137b7615277565b50505b505050506040513d60208110156137d9576000806137d6615277565b50505b8101908080516001600160a01b031692506316b2213f91508490506040516001600160e01b031960e084901b1681526001600160a01b039091166004820152602401602060405180830381868061382e61533d565b15801561384357600080613840615277565b50505b505a61384d615389565b505050505015801561386c573d6000803e3d6000613869615277565b50505b505050506040513d602081101561388b57600080613888615277565b50505b81019080805193909314159450611b679350505050565b60006035806134166152e2565b600060336138bb6152e2565b906101000a90046001600160a01b03166001600160a01b03165a6138dd615474565b6001600160a01b03161461392f5760405162461bcd60e51b815260206004820152600c60248201526b37b7363c9036b0b730b3b2b960a11b60448201526064016040518091039061392c615277565b50505b806037600181611b1b6152e2565b600060336139496152e2565b906101000a90046001600160a01b03166001600160a01b03165a61396b615474565b6001600160a01b0316146139bd5760405162461bcd60e51b815260206004820152600c60248201526b37b7363c9036b0b730b3b2b960a11b6044820152606401604051809103906139ba615277565b50505b600080603d6139ca6154ba565b5050506000603e81906139db6154ba565b5050507fc6f04bf43cbdf1ba5d51b4afa160bb3c7e13858b1409aa32868b239bb2f8d84960405160405180910390a1565b6001600160a01b038116600090815260366020526040812061231d6152e2565b60006119eb8260006004612580565b6000603961148e6152e2565b603a8181613a536152e2565b8110613a5b57fe5b906000526020600020016000915061148e6152e2565b60006033613a7d6152e2565b906101000a90046001600160a01b03166001600160a01b03165a613a9f615474565b6001600160a01b031614613af15760405162461bcd60e51b815260206004820152600c60248201526b37b7363c9036b0b730b3b2b960a11b604482015260640160405180910390613aee615277565b50505b613afa81613a0c565b15613b0457611881565b611881816149e0565b6000816001600160a01b03166370a082315a63996d79a5598160e01b8152602081600483336000905af158600e01573d6000803e3d6000fd5b3d6001141558600a015760016000f35b8051925060005b6040811015613b7457600082820152602001613b5d565b5050506040516001600160e01b031960e084901b1681526001600160a01b03909116600482015260240160206040518083038186806128ee61533d565b60016000613bbd6152e2565b906101000a900460ff1680613bd55750613bd5614fc9565b80613bf25750600080613be66152e2565b906101000a900460ff16155b613c365760405162461bcd60e51b815260040180806020018281038252602e815260200180615741602e913960400191505060405180910390613c33615277565b50505b6000600181613c436152e2565b906101000a900460ff161590508015613ca9576001600061010081613c666152e2565b8160ff02191690831515021790613c7b6154ba565b50505060016000806101000a81613c906152e2565b8160ff02191690831515021790613ca56154ba565b5050505b613cb3858561503a565b856039600181613cc16152e2565b816001600160a01b0302191690836001600160a01b0316021790613ce36154ba565b50505082603860006101000a81613cf86152e2565b816001600160a01b0302191690836001600160a01b0316021790613d1a6154ba565b50505060005b82518160ff161015613d5357613d4b838260ff1681518110613d3e57fe5b602002602001015161444a565b600101613d20565b508015613d825760008061010081613d696152e2565b8160ff02191690831515021790613d7e6154ba565b5050505b505050505050565b60006119eb82613d9984613b0d565b611e2e565b600081830184511015613e005760405162461bcd60e51b815260206004820152601b60248201527f52656164696e67206279746573206f7574206f6620626f756e64730000000000604482015260640160405180910390613dfd615277565b50505b8260200184015190508160200380156126015760080260020a90049392505050565b6060603a80613e2f6152e2565b806020026020016040519081016040528181529190602083018280613e526152e2565b80156135e157602002820191906000526020600020905b600082613e746152e2565b906101000a90046001600160a01b03166001600160a01b031681526020019060010190808311613e69575050505050905090565b600080603d613eb56152e2565b603e613ebf6152e2565b915091509091565b60608060606000603a80613ed96152e2565b9050905060608167ffffffffffffffff81118015613eff57600080613efc615277565b50505b50604051908082528060200260200182016040528015613f29578160200160208202803683370190505b50905060608267ffffffffffffffff81118015613f4e57600080613f4b615277565b50505b50604051908082528060200260200182016040528015613f78578160200160208202803683370190505b50905060608367ffffffffffffffff81118015613f9d57600080613f9a615277565b50505b50604051908082528060200260200182016040528015613fc7578160200160208202803683370190505b50905060005b84811015614146576000603a8281613fe36152e2565b8110613feb57fe5b906000526020600020016000906140006152e2565b906101000a90046001600160a01b0316905061401b81613b0d565b84838151811061402757fe5b6020026020010181815250508085838151811061404057fe5b6001600160a01b0390921660209283029190910190910152600060396140646152e2565b906101000a90046001600160a01b03166001600160a01b0316638b2f0f4f826040516001600160e01b031960e084901b1681526001600160a01b03909116600482015260240160206040518083038186806140bd61533d565b1580156140d2576000806140cf615277565b50505b505a6140dc615389565b50505050501580156140fb573d6000803e3d60006140f8615277565b50505b505050506040513d602081101561411a57600080614117615277565b50505b81019080805192508591508490508151811061413257fe5b602090810291909101015250600101613fcd565b509195509350915050909192565b60606034806141616152e2565b600181600116156101000203166002900480601f01602080910402602001604051908101604052818152919060208301828061419b6152e2565b600181600116156101000203166002900480156135e15780601f106141d55761010080836141c76152e2565b0402835291602001916135e1565b820191906000526020600020905b816141ec6152e2565b815290600101906020018083116141e357509395945050505050565b6000603a806142156152e2565b6001600160a01b0384166000908152603b602052909250905061424560016040832061423f6152e2565b90615081565b90506000603a614256846001615081565b8161425f6152e2565b811061426757fe5b9060005260206000200160009061427c6152e2565b906101000a90046001600160a01b0316905080603a838161429b6152e2565b81106142a357fe5b906000526020600020016001816142b86152e2565b816001600160a01b0302191690836001600160a01b03160217906142da6154ba565b506142ea91508390506001614981565b6001600160a01b0382166000908152603b60205260409020819061430c6154ba565b5050506001600160a01b0384166000908152603b6020526040812081906143316154ba565b505050603a8061433f6152e2565b8061434657fe5b600190038181906000526020600020016001816143616152e2565b906001600160a01b03021916906143766154ba565b5050906143816154ba565b50507f9b4f55639e5e283319baee5bc4e69a5625a8e3a1cc004af968f4fee7250220275a63996d79a5598160e01b8152602081600483336000905af158600e01573d6000803e3d6000fd5b3d6001141558600a015760016000f35b8051925060005b60408110156143fa576000828201526020016143e3565b5050506144056123fe565b8660405180846001600160a01b03168152602001836001600160a01b03168152602001826001600160a01b03168152602001935050505060405180910390a150505050565b600060396144566152e2565b906101000a90046001600160a01b03166001600160a01b031663aa12ae4d6040518163ffffffff1660e01b8152600401602060405180830381868061449961533d565b1580156144ae576000806144ab615277565b50505b505a6144b8615389565b50505050501580156144d7573d6000803e3d60006144d4615277565b50505b505050506040513d60208110156144f6576000806144f3615277565b50505b8101908080519250603a915081905061450d6152e2565b9050106145625760405162461bcd60e51b81526020600482015260166024820152751b585e1a5b5d5b48185cdcd95d1cc81c995858da195960521b60448201526064016040518091039061455f615277565b50505b61456b816122fd565b156145c55760405162461bcd60e51b815260206004820152601760248201527f617373657420616c726561647920737570706f727465640000000000000000006044820152606401604051809103906145c2615277565b50505b6145ce816133a3565b151560011461461c5760405162461bcd60e51b815260206004820152600d60248201526c1a5b9d985b1a5908185cdcd95d609a1b604482015260640160405180910390614619615277565b50505b80603a8060018161462b6152e2565b0180826146366154ba565b5050600092835260001901916020915020016001816146536152e2565b816001600160a01b0302191690836001600160a01b03160217906146756154ba565b505050603a806146836152e2565b6001600160a01b0383166000908152603b6020529091506040902081906146a86154ba565b5050507f0a7426a0630aad7dbc4d5ca5b7d9aac1133d77d2db987caaf4b4186c85d6593f5a63996d79a5598160e01b8152602081600483336000905af158600e01573d6000803e3d6000fd5b3d6001141558600a015760016000f35b8051925060005b60408110156147225760008282015260200161470b565b50505061472d6123fe565b8360405180846001600160a01b03168152602001836001600160a01b03168152602001826001600160a01b03168152602001935050505060405180910390a150565b600060358061477c6152e2565b6001600160a01b0384166000908152603660205290925090506147a660016040832061423f6152e2565b9050600060356147b7846001615081565b816147c06152e2565b81106147c857fe5b906000526020600020016000906147dd6152e2565b906101000a90046001600160a01b0316905080603583816147fc6152e2565b811061480457fe5b906000526020600020016001816148196152e2565b816001600160a01b0302191690836001600160a01b031602179061483b6154ba565b5061484b91508390506001614981565b6001600160a01b0382166000908152603660205260409020819061486d6154ba565b5050506001600160a01b038416600090815260366020526040812081906148926154ba565b5050506035806148a06152e2565b806148a757fe5b600190038181906000526020600020016001816148c26152e2565b906001600160a01b03021916906148d76154ba565b505090613d826154ba565b6000826148f1575060006119eb565b828202828482816148fe57fe5b04146121fe5760405162461bcd60e51b815260040180806020018281038252602181526020018061572060219139604001915050604051809103906121fb615277565b60006121fe838360405160408082019052601a81527f536166654d6174683a206469766973696f6e206279207a65726f00000000000060208201526150c1565b6000828201838110156121fe5760405162461bcd60e51b815260206004820152601b60248201527f536166654d6174683a206164646974696f6e206f766572666c6f7700000000006044820152606401604051809103906121fb615277565b806035806001816149ef6152e2565b0180826149fa6154ba565b505060009283526000190191602091502001600181614a176152e2565b816001600160a01b0302191690836001600160a01b0316021790614a396154ba565b505050603580614a476152e2565b6001600160a01b03831660009081526036602052909150604090208190611b3d6154ba565b614a75846122fd565b614ace5760405162461bcd60e51b815260206004820152601860248201527f756e737570706f7274656420736f757263652061737365740000000000000000604482015260640160405180910390614acb615277565b50505b614ad7826122fd565b614b305760405162461bcd60e51b815260206004820152601d60248201527f756e737570706f727465642064657374696e6174696f6e206173736574000000604482015260640160405180910390614b2d615277565b50505b60006060866001600160a01b0316836040518082805190602001908083835b60208310614b6e5780518252601f199092019160209182019101614b4f565b6001836020036101000a0380198251168184511680821785525050505050509050019150506000604051808303816000865a614ba86155ee565b5050505050509150503d8060008114614bdd576040513d603f01601f191681016040523d815291503d6000602084013e614be2565b606091505b509092509050600182151514614c475760405162461bcd60e51b815260206004820152601a60248201527f6661696c656420746f20657865637574652065786368616e6765000000000000604482015260640160405180910390614c44615277565b50505b7f2083d2b241ef1ec859ae0402864fd9fe9d6d36b18c73615625b46acaf113be785a63996d79a5598160e01b8152602081600483336000905af158600e01573d6000803e3d6000fd5b3d6001141558600a015760016000f35b8051925060005b6040811015614cbe57600082820152602001614ca7565b505050614cc96123fe565b888888614cd787600061516c565b5a614ce06155a8565b6040516001600160a01b039788168152958716602087015293861660408087019190915260608601939093529416608084015260a083019390935260c082015260e001905180910390a150505050505050565b60006039614d3f6152e2565b906101000a90046001600160a01b03166001600160a01b031663046b72c483836040516001600160e01b031960e085901b1681526001600160a01b039092166004830152602482015260440160006040518083038160008780614da061533d565b158015614db557600080614db2615277565b50505b505a614dbf6155ee565b505050505050158015614ddf573d6000803e3d6000614ddc615277565b50505b505050506000806039600090614df36152e2565b906101000a90046001600160a01b03166001600160a01b031663b7a54526856040516001600160e01b031960e084901b1681526001600160a01b03909116600482015260240160408051808303818680614e4b61533d565b158015614e6057600080614e5d615277565b50505b505a614e6a615389565b5050505050158015614e89573d6000803e3d6000614e86615277565b50505b505050506040513d6040811015614ea857600080614ea5615277565b50505b81019080805192919060200180519395509293507f1780c04ddc6f0b32d866c7a3d7583f53515ef49ed2126af868f804f491601266925050505a63996d79a5598160e01b8152602081600483336000905af158600e01573d6000803e3d6000fd5b3d6001141558600a015760016000f35b8051925060005b6040811015614f3757600082820152602001614f20565b505050614f426123fe565b848460405180856001600160a01b03168152602001846001600160a01b0316815260200183815260200182815260200194505050505060405180910390a150505050565b6000807fc5d2460186f7233c927e7db2dcc703c0e500b653ca82273b7bfad8045d85a47083614fb36156b4565b9150808214158015611f1c575050151592915050565b6000805a63996d79a5598160e01b8152602081600483336000905af158600e01573d6000803e3d6000fd5b3d6001141558600a015760016000f35b8051925060005b60408110156150225760008282015260200161500b565b505050905060008161503261533d565b159250505090565b8160336001816150486152e2565b816001600160a01b0302191690836001600160a01b031602179061506a6154ba565b505050806034908051613356929160200190615508565b60006121fe838360405160408082019052601e81527f536166654d6174683a207375627472616374696f6e206f766572666c6f77000060208201526151d7565b600081836151565760405162461bcd60e51b81526004018080602001828103825283818151815260200191508051906020019080838360005b838110156151125780820151838201526020016150fa565b50505050905090810190601f16801561513f5780820380516001836020036101000a031916815260200191505b509250505060405180910390615153615277565b50505b50600083858161516257fe5b0495945050505050565b600081602001835110156151c65760405162461bcd60e51b8152602060048201526014602482015273736c6963696e67206f7574206f662072616e676560601b6044820152606401604051809103906151c3615277565b50505b600082602001840151949350505050565b6000818484111561526f5760405162461bcd60e51b81526004018080602001828103825283818151815260200191508051906020019080838360005b8381101561522b578082015183820152602001615213565b50505050905090810190601f1680156152585780820380516001836020036101000a031916815260200191505b50925050506040518091039061526c615277565b50505b505050900390565b632a2a7adb598160e01b8152600481016020815285602082015260005b868110156152af578086015182820160400152602001615294565b506020828760640184336000905af158600e01573d6000803e3d6000fd5b3d6001141558600a015760016000f35b505050565b6303daa959598160e01b8152836004820152602081602483336000905af158600e01573d6000803e3d6000fd5b3d6001141558600a015760016000f35b8051935060005b604081101561335657600082820152602001615326565b638435035b598160e01b8152836004820152602081602483336000905af158600e01573d6000803e3d6000fd5b3d6001141558600a015760016000f35b80516000825293506020615326565b638540661f598160e01b81526153ba565b80808311156119eb575090919050565b80808310156119eb575090919050565b836004820152846024820152606060448201528660648201526084810160005b888110156153f25780880151828201526020016153da565b506060828960a40184336000905af158600e01573d6000803e3d6000fd5b3d6001141558600a015760016000f35b815160408301513d6000853e8b8b82606087013350600060045af150596154478d3d6153aa565b8c01615453818761539a565b5b828110156154685760008152602001615454565b50929c50505050505050565b6373509064598160e01b8152602081600483336000905af158600e01573d6000803e3d6000fd5b3d6001141558600a015760016000f35b80516000825293506020615326565b6322bd64c0598160e01b8152836004820152846024820152600081604483336000905af158600e01573d6000803e3d6000fd5b3d6001141558600a015760016000f35b600081526020615326565b82806155126152e2565b600181600116156101000203166002900490600052602060002090601f016020900481019282601f1061555957805160ff191683800117856155526154ba565b5050615598565b828001600101856155686154ba565b50508215615598579182015b82811115615598578251826155876154ba565b505091602001919060010190615574565b506155a4929150615700565b5090565b63bdbf8c36598160e01b8152602081600483336000905af158600e01573d6000803e3d6000fd5b3d6001141558600a015760016000f35b80516000825293506020615326565b6385979f76598160e01b8152836004820152846024820152606060448201528760648201526084810160005b8981101561563257808901518282015260200161561a565b506060828a60a40184336000905af158600e01573d6000803e3d6000fd5b3d6001141558600a015760016000f35b815160408301513d6000853e8c8c82606087013350600060045af150596156878e3d6153aa565b8d01615693818761539a565b5b828110156156a85760008152602001615694565b50929d50505050505050565b6324749d5c598160e01b8152836004820152602081602483336000905af158600e01573d6000803e3d6000fd5b3d6001141558600a015760016000f35b80516000825293506020615326565b808211156155a457600080826157146154ba565b50505060010161570056fe536166654d6174683a206d756c7469706c69636174696f6e206f766572666c6f77436f6e747261637420696e7374616e63652068617320616c7265616479206265656e20696e697469616c697a6564",
  "deployedBytecode": "0x608060405234801561001957600080610016615277565b50505b50600436106102df5760003560e01c806380dd4f621161018b578063bbbf725b116100f2578063d346cc65116100ab578063e5406dbf11610085578063e5406dbf1461130d578063ed5b165d14611315578063f09d14d71461131d578063fed4416a14611403576102df565b8063d346cc6514611084578063d8af8ed414611212578063db896b5714611241576102df565b8063bbbf725b14610f02578063c3c6279f14610f31578063c45a015514610ff8578063c68dbb3714611000578063ca6d56dc14611026578063cd88e55814611055576102df565b8063998546e311610144578063998546e314610d6d5780639eab525314610e39578063a0f8414c14610e94578063a30e3fa914610ec3578063a6bc18f914610ecb578063b8bd81e614610efa576102df565b806380dd4f6214610c0457806382f86acc14610c335780638f32343914610cff5780639240d29914610d07578063936553c414610d36578063969eed2714610d3e576102df565b806341dc16c31161024a5780635f6eceab116102035780636f4d469b116101dd5780636f4d469b14610a585780637ae7cfb514610b1d5780637b4d0c6314610bf45780637c8afd5114610bfc576102df565b80635f6eceab146109ad5780636141db90146109f45780636708f5d714610a23576102df565b806341dc16c314610606578063464b4158146106dd57806346ee84b014610720578063481c6a75146107e557806352213663146107ed578063568b5a2f146108c4576102df565b80631758078b1161029c5780631758078b146104ad5780631eba3077146104b557806321f8c984146104db57806329c07fba1461057c5780633c570d7d146105b15780633ded6530146105e0576102df565b806305a2ee2a146102ed5780630646858714610311578063093b88251461034257806309ff5c7d146103715780630b1ca49a1461044f578063143023871461047e575b6000806102ea615277565b50505b6102f5611482565b6040516001600160a01b03909116815260200160405180910390f35b610340600480360360208110156103305760008061032d615277565b50505b50356001600160a01b03166114a1565b005b610340600480360360208110156103615760008061035e615277565b50505b50356001600160a01b0316611884565b61043d600480360360408110156103905760008061038d615277565b50505b810190602081018135600160201b8111156103b3576000806103b0615277565b50505b8201836020820111156103ce576000806103cb615277565b50505b803590602001918460018302840111600160201b831117156103f8576000806103f5615277565b50505b91908080601f01602080910402602001604051908101604052818152929190602084018383808284376000920191909152509295505050903560ff1691506119569050565b60405190815260200160405180910390f35b6103406004803603602081101561046e5760008061046b615277565b50505b50356001600160a01b03166119f1565b6103406004803603602081101561049d5760008061049a615277565b50505b50356001600160a01b0316611a8c565b6102f5611b43565b6102f5600480360360208110156104d4576000806104d1615277565b50505b5035611b65565b6104e3611b6c565b604051808060200180602001838103835285818151815260200191508051906020019060200280838360005b8381101561052757808201518382015260200161050f565b50505050905001838103825284818151815260200191508051906020019060200280838360005b8381101561056657808201518382015260200161054e565b5050505090500194505050505060405180910390f35b61043d6004803603604081101561059b57600080610598615277565b50505b506001600160a01b038135169060200135611e2e565b61043d600480360360208110156105d0576000806105cd615277565b50505b50356001600160a01b0316611f24565b6102f5600480360360208110156105ff576000806105fc615277565b50505b5035611f3f565b61043d6004803603606081101561062557600080610622615277565b50505b810190602081018135600160201b81111561064857600080610645615277565b50505b82018360208201111561066357600080610660615277565b50505b803590602001918460018302840111600160201b8311171561068d5760008061068a615277565b50505b91908080601f01602080910402602001604051908101604052818152929190602084018383808284376000920191909152509295505060ff83358116945060209093013590921691506122059050565b61070c600480360360208110156106fc576000806106f9615277565b50505b50356001600160a01b03166122fd565b604051901515815260200160405180910390f35b6103406004803603602081101561073f5760008061073c615277565b50505b810190602081018135600160201b8111156107625760008061075f615277565b50505b82018360208201111561077d5760008061077a615277565b50505b803590602001918460208302840111600160201b831117156107a7576000806107a4615277565b50505b919080806020026020016040519081016040528093929190818152602001838360200280828437600092019190915250929550612325945050505050565b6102f56123fe565b6103406004803603604081101561080c57600080610809615277565b50505b6001600160a01b038235169190810190604081016020820135600160201b81111561083f5760008061083c615277565b50505b82018360208201111561085a57600080610857615277565b50505b803590602001918460018302840111600160201b8311171561088457600080610881615277565b50505b91908080601f016020809104026020016040519081016040528181529291906020840183838082843760009201919091525092955061240b945050505050565b610990600480360360608110156108e3576000806108e0615277565b50505b810190602081018135600160201b81111561090657600080610903615277565b50505b8201836020820111156109215760008061091e615277565b50505b803590602001918460018302840111600160201b8311171561094b57600080610948615277565b50505b91908080601f01602080910402602001604051908101604052818152929190602084018383808284376000920191909152509295505082359350505060200135612580565b6040516001600160e01b0319909116815260200160405180910390f35b6109dc600480360360208110156109cc576000806109c9615277565b50505b50356001600160a01b0316612609565b60405191825260208201526040908101905180910390f35b61043d60048036036020811015610a1357600080610a10615277565b50505b50356001600160a01b03166126e8565b61034060048036036040811015610a4257600080610a3f615277565b50505b506001600160a01b03813516906020013561295a565b61034060048036036020811015610a7757600080610a74615277565b50505b810190602081018135600160201b811115610a9a57600080610a97615277565b50505b820183602082011115610ab557600080610ab2615277565b50505b803590602001918460208302840111600160201b83111715610adf57600080610adc615277565b50505b919080806020026020016040519081016040528093929190818152602001838360200280828437600092019190915250929550612c8a945050505050565b61070c60048036036040811015610b3c57600080610b39615277565b50505b6001600160a01b038235169190810190604081016020820135600160201b811115610b6f57600080610b6c615277565b50505b820183602082011115610b8a57600080610b87615277565b50505b803590602001918460018302840111600160201b83111715610bb457600080610bb1615277565b50505b91908080601f0160208091040260200160405190810160405281815292919060208401838380828437600092019190915250929550612d53945050505050565b61043d61329b565b6103406132a5565b61070c60048036036020811015610c2357600080610c20615277565b50505b50356001600160a01b031661335b565b61043d60048036036040811015610c5257600080610c4f615277565b50505b810190602081018135600160201b811115610c7557600080610c72615277565b50505b820183602082011115610c9057600080610c8d615277565b50505b803590602001918460018302840111600160201b83111715610cba57600080610cb7615277565b50505b91908080601f01602080910402602001604051908101604052818152929190602084018383808284376000920191909152509295505050903560ff1691506133829050565b61043d613399565b61070c60048036036020811015610d2657600080610d23615277565b50505b50356001600160a01b03166133a3565b61043d613409565b61034060048036036020811015610d5d57600080610d5a615277565b50505b50356001600160a01b031661341c565b61043d60048036036040811015610d8c57600080610d89615277565b50505b810190602081018135600160201b811115610daf57600080610dac615277565b50505b820183602082011115610dca57600080610dc7615277565b50505b803590602001918460018302840111600160201b83111715610df457600080610df1615277565b50505b91908080601f01602080910402602001604051908101604052818152929190602084018383808284376000920191909152509295505050903560ff16915061353b9050565b610e41613564565b60405160208082528190810183818151815260200191508051906020019060200280838360005b83811015610e80578082015183820152602001610e68565b505050509050019250505060405180910390f35b61070c60048036036020811015610eb357600080610eb0615277565b50505b50356001600160a01b03166135eb565b61043d6138a2565b61034060048036036020811015610eea57600080610ee7615277565b50505b50356001600160a01b03166138af565b61034061393d565b61070c60048036036020811015610f2157600080610f1e615277565b50505b50356001600160a01b0316613a0c565b61099060048036036020811015610f5057600080610f4d615277565b50505b810190602081018135600160201b811115610f7357600080610f70615277565b50505b820183602082011115610f8e57600080610f8b615277565b50505b803590602001918460018302840111600160201b83111715610fb857600080610fb5615277565b50505b91908080601f0160208091040260200160405190810160405281815292919060208401838380828437600092019190915250929550613a2c945050505050565b6102f5613a3b565b6102f56004803603602081101561101f5760008061101c615277565b50505b5035613a47565b6103406004803603602081101561104557600080611042615277565b50505b50356001600160a01b0316613a71565b61043d6004803603602081101561107457600080611071615277565b50505b50356001600160a01b0316613b0d565b610340600480360360a08110156110a3576000806110a0615277565b50505b6001600160a01b038235811692602081013590911691810190606081016040820135600160201b8111156110df576000806110dc615277565b50505b8201836020820111156110fa576000806110f7615277565b50505b803590602001918460018302840111600160201b8311171561112457600080611121615277565b50505b91908080601f016020809104026020016040519081016040528181529291906020840183838082843760009201919091525092956001600160a01b03853516959094909350604081019250602001359050600160201b81111561118f5760008061118c615277565b50505b8201836020820111156111aa576000806111a7615277565b50505b803590602001918460208302840111600160201b831117156111d4576000806111d1615277565b50505b919080806020026020016040519081016040528093929190818152602001838360200280828437600092019190915250929550613bb1945050505050565b61043d600480360360208110156112315760008061122e615277565b50505b50356001600160a01b0316613d8a565b61043d600480360360608110156112605760008061125d615277565b50505b810190602081018135600160201b81111561128357600080611280615277565b50505b82018360208201111561129e5760008061129b615277565b50505b803590602001918460018302840111600160201b831117156112c8576000806112c5615277565b50505b91908080601f01602080910402602001604051908101604052818152929190602084018383808284376000920191909152509295505082359350505060200135613d9e565b610e41613e22565b6109dc613ea8565b611325613ec7565b60405180806020018060200180602001848103845287818151815260200191508051906020019060200280838360005b8381101561136d578082015183820152602001611355565b50505050905001848103835286818151815260200191508051906020019060200280838360005b838110156113ac578082015183820152602001611394565b50505050905001848103825285818151815260200191508051906020019060200280838360005b838110156113eb5780820151838201526020016113d3565b50505050905001965050505050505060405180910390f35b61140b614154565b60405160208082528190810183818151815260200191508051906020019080838360005b8381101561144757808201518382015260200161142f565b50505050905090810190601f1680156114745780820380516001836020036101000a031916815260200191505b509250505060405180910390f35b6000603861148e6152e2565b906101000a90046001600160a01b031681565b600060396114ad6152e2565b906101000a90046001600160a01b03166001600160a01b0316638da5cb5b6040518163ffffffff1660e01b815260040160206040518083038186806114f061533d565b15801561150557600080611502615277565b50505b505a61150f615389565b505050505015801561152e573d6000803e3d600061152b615277565b50505b505050506040513d602081101561154d5760008061154a615277565b50505b8101908080516001600160a01b0316925050505a611569615474565b6001600160a01b0316148061159e57506115816123fe565b6001600160a01b03165a611593615474565b6001600160a01b0316145b806115c957506115ac611b43565b6001600160a01b03165a6115be615474565b6001600160a01b0316145b6116225760405162461bcd60e51b815260206004820152601b60248201527f6f6e6c79206d616e616765722c20747261646572206f722044414f000000000060448201526064016040518091039061161f615277565b50505b61162b816122fd565b61167a5760405162461bcd60e51b8152602060048201526013602482015272185cdcd95d081b9bdd081cdd5c1c1bdc9d1959606a1b604482015260640160405180910390611677615277565b50505b6001600160a01b0381166000908152603c6020526040902060009061169d6152e2565b906101000a900460ff16156117015760405162461bcd60e51b815260206004820152601f60248201527f63616e6e6f742072656d6f76652070657273697374656e7420617373657473006044820152606401604051809103906116fe615277565b50505b61170a816133a3565b15156001141561187857806001600160a01b03166370a082315a63996d79a5598160e01b8152602081600483336000905af158601d01573d60011458600c01573d6000803e3d621234565260ea61109c528051925060005b604081101561177957600082820152602001611762565b5050506040516001600160e01b031960e084901b1681526001600160a01b03909116600482015260240160206040518083038186806117b661533d565b1580156117cb576000806117c8615277565b50505b505a6117d5615389565b50505050501580156117f4573d6000803e3d60006117f1615277565b50505b505050506040513d602081101561181357600080611810615277565b50505b8101908080511592506118789150505760405162461bcd60e51b815260206004820152601d60248201527f63616e6e6f742072656d6f7665206e6f6e2d656d707479206173736574000000604482015260640160405180910390611875615277565b50505b61188181614208565b50565b600060336118906152e2565b906101000a90046001600160a01b03166001600160a01b03165a6118b2615474565b6001600160a01b031614806118fb5750600060376118ce6152e2565b906101000a90046001600160a01b03166001600160a01b03165a6118f0615474565b6001600160a01b0316145b61194d5760405162461bcd60e51b815260206004820152601660248201527537b7363c9036b0b730b3b2b91037b9103a3930b232b960511b60448201526064016040518091039061194a615277565b50505b6118818161444a565b60008061196e848460200260040160ff166020613d9e565b9050600061198185600484016020613d9e565b9050806119d25760405162461bcd60e51b8152602060048201526012602482015271696e707574206973206e6f7420617272617960701b6044820152606401604051809103906119cf615277565b50505b6119e6856020808402850160040190613d9e565b925050505b92915050565b600060336119fd6152e2565b906101000a90046001600160a01b03166001600160a01b03165a611a1f615474565b6001600160a01b031614611a715760405162461bcd60e51b815260206004820152600c60248201526b37b7363c9036b0b730b3b2b960a11b604482015260640160405180910390611a6e615277565b50505b611a7a81613a0c565b611a8357611881565b6118818161476f565b60006039611a986152e2565b906101000a90046001600160a01b03166001600160a01b03165a611aba615474565b6001600160a01b031614611b0d5760405162461bcd60e51b815260206004820152600d60248201526c3737903832b936b4b9b9b4b7b760991b604482015260640160405180910390611b0a615277565b50505b806038600181611b1b6152e2565b816001600160a01b0302191690836001600160a01b0316021790611b3d6154ba565b50505050565b6000806037611b506152e2565b906101000a90046001600160a01b0316905090565b805b919050565b6060806000603a80611b7c6152e2565b9050905060608167ffffffffffffffff81118015611ba257600080611b9f615277565b50505b50604051908082528060200260200182016040528015611bcc578160200160208202803683370190505b50905060608267ffffffffffffffff81118015611bf157600080611bee615277565b50505b50604051908082528060200260200182016040528015611c1b578160200160208202803683370190505b5090506000806038611c2b6152e2565b906101000a90046001600160a01b03166001600160a01b03166321f8a7216b53797374656d53746174757360a01b6040516001600160e01b031960e084901b16815260048101919091526024016020604051808303818680611c8b61533d565b158015611ca057600080611c9d615277565b50505b505a611caa615389565b5050505050158015611cc9573d6000803e3d6000611cc6615277565b50505b505050506040513d6020811015611ce857600080611ce5615277565b50505b81019080805193506000925050505b84811015611e22576000603a8281611d0d6152e2565b8110611d1557fe5b90600052602060002001600090611d2a6152e2565b906101000a90046001600160a01b0316905080858381518110611d4957fe5b6001600160a01b03928316602091820292909201015283166342a28e21611d6f836126e8565b6040516001600160e01b031960e084901b16815260048101919091526024016000604051808303818680611da161533d565b158015611db657600080611db3615277565b50505b505a611dc0615389565b5050505050925050508015611dd3575060015b611dfa576001848381518110611de557fe5b91151560209283029190910190910152611e19565b6000848381518110611e0857fe5b911515602092830291909101909101525b50600101611cf7565b50919450925050509091565b600080806039611e3c6152e2565b906101000a90046001600160a01b03166001600160a01b0316638b2f0f4f856040516001600160e01b031960e084901b1681526001600160a01b0390911660048201526024016020604051808303818680611e9561533d565b158015611eaa57600080611ea7615277565b50505b505a611eb4615389565b5050505050158015611ed3573d6000803e3d6000611ed0615277565b50505b505050506040513d6020811015611ef257600080611eef615277565b50505b8101908080519350611f1c9250670de0b6b3a76400009150611f16905083866148e2565b90614941565b949350505050565b603b6020528060005260406000209050611f3c6152e2565b81565b600080806038611f4d6152e2565b906101000a90046001600160a01b03166001600160a01b03166321f8a721680a6f2dce8d0cae8d2f60bb1b6040516001600160e01b031960e084901b16815260048101919091526024016020604051808303818680611faa61533d565b158015611fbf57600080611fbc615277565b50505b505a611fc9615389565b5050505050158015611fe8573d6000803e3d6000611fe5615277565b50505b505050506040513d602081101561200757600080612004615277565b50505b8101908080516001600160a01b03169250633260803991508590506040516001600160e01b031960e084901b1681526004810191909152602401602060405180830381868061205461533d565b15801561206957600080612066615277565b50505b505a612073615389565b5050505050158015612092573d6000803e3d600061208f615277565b50505b505050506040513d60208110156120b1576000806120ae615277565b50505b81019080805193505050506001600160a01b03811661210d5760405162461bcd60e51b815260206004820152600b60248201526a696e76616c6964206b657960a81b60448201526064016040518091039061210a615277565b50505b6000816001600160a01b031663ec5568896040518163ffffffff1660e01b8152600401602060405180830381868061214361533d565b15801561215857600080612155615277565b50505b505a612162615389565b5050505050158015612181573d6000803e3d600061217e615277565b50505b505050506040513d60208110156121a05760008061219d615277565b50505b81019080805193505050506001600160a01b0381166121fe5760405162461bcd60e51b815260206004820152600d60248201526c696e76616c69642070726f787960981b6044820152606401604051809103906121fb615277565b50505b9392505050565b60008061221d858560200260040160ff166020613d9e565b9050600061223086600484016020613d9e565b9050806122815760405162461bcd60e51b8152602060048201526012602482015271696e707574206973206e6f7420617272617960701b60448201526064016040518091039061227e615277565b50505b60ff841681116122d95760405162461bcd60e51b815260206004820152601660248201527534b73b30b634b21030b93930bc903837b9b4ba34b7b760511b6044820152606401604051809103906122d6615277565b50505b6122f3866020600160ff8816018102850160040190613d9e565b9695505050505050565b6001600160a01b0381166000908152603b6020526040812061231d6152e2565b151592915050565b600060336123316152e2565b906101000a90046001600160a01b03166001600160a01b03165a612353615474565b6001600160a01b0316146123a55760405162461bcd60e51b815260206004820152600c60248201526b37b7363c9036b0b730b3b2b960a11b6044820152606401604051809103906123a2615277565b50505b60005b81518110156123fa576123cd8282815181106123c057fe5b6020026020010151613a0c565b6123d6576123f2565b6123f28282815181106123e557fe5b602002602001015161476f565b6001016123a8565b5050565b6000806033611b506152e2565b600060336124176152e2565b906101000a90046001600160a01b03166001600160a01b03165a612439615474565b6001600160a01b03161461248b5760405162461bcd60e51b815260206004820152600c60248201526b37b7363c9036b0b730b3b2b960a11b604482015260640160405180910390612488615277565b50505b8160336001816124996152e2565b816001600160a01b0302191690836001600160a01b03160217906124bb6154ba565b5050508060349080516124d2929160200190615508565b507f6ed15082ad038474841528b5badca105106d4463e44b5d434130dfb299aa366982826040516001600160a01b038316815260406020820181815290820183818151815260200191508051906020019080838360005b83811015612541578082015183820152602001612529565b50505050905090810190601f16801561256e5780820380516001836020036101000a031916815260200191505b50935050505060405180910390a15050565b6000818301845110156125e25760405162461bcd60e51b815260206004820152601b60248201527f52656164696e67206279746573206f7574206f6620626f756e647300000000006044820152606401604051809103906125df615277565b50505b826020018401519050816004038015612601576008810260020a820491505b509392505050565b6000808060396126176152e2565b906101000a90046001600160a01b03166001600160a01b031663b7a54526846040516001600160e01b031960e084901b1681526001600160a01b0390911660048201526024016040805180830381868061266f61533d565b15801561268457600080612681615277565b50505b505a61268e615389565b50505050501580156126ad573d6000803e3d60006126aa615277565b50505b505050506040513d60408110156126cc576000806126c9615277565b50505b8101908080519291906020018051939550929350505050915091565b60006126f3826135eb565b61273e5760405162461bcd60e51b815260206004820152600f60248201526e1b9bdb8b5cde5b9d1a08185cdcd95d608a1b60448201526064016040518091039061273b615277565b50505b6000603861274a6152e2565b906101000a90046001600160a01b03166001600160a01b03166321f8a721680a6f2dce8d0cae8d2f60bb1b6040516001600160e01b031960e084901b168152600481019190915260240160206040518083038186806127a761533d565b1580156127bc576000806127b9615277565b50505b505a6127c6615389565b50505050501580156127e5573d6000803e3d60006127e2615277565b50505b505050506040513d602081101561280457600080612801615277565b50505b8101908080516001600160a01b0390811693506316b2213f92508516905063d4b839926040518163ffffffff1660e01b8152600401602060405180830381868061284c61533d565b1580156128615760008061285e615277565b50505b505a61286b615389565b505050505015801561288a573d6000803e3d6000612887615277565b50505b505050506040513d60208110156128a9576000806128a6615277565b50505b81019080805192506040915050516001600160e01b031960e084901b1681526001600160a01b03909116600482015260240160206040518083038186806128ee61533d565b15801561290357600080612900615277565b50505b505a61290d615389565b505050505015801561292c573d6000803e3d6000612929615277565b50505b505050506040513d602081101561294b57600080612948615277565b50505b81019080805195945050505050565b600060336129666152e2565b906101000a90046001600160a01b03166001600160a01b03165a612988615474565b6001600160a01b0316146129da5760405162461bcd60e51b815260206004820152600c60248201526b37b7363c9036b0b730b3b2b960a11b6044820152606401604051809103906129d7615277565b50505b60008060396129e76152e2565b906101000a90046001600160a01b03166001600160a01b0316635c9bfc2b6040518163ffffffff1660e01b81526004016020604051808303818680612a2a61533d565b158015612a3f57600080612a3c615277565b50505b505a612a49615389565b5050505050158015612a68573d6000803e3d6000612a65615277565b50505b505050506040513d6020811015612a8757600080612a84615277565b50505b810190808051935060009250829150612aa1905085612609565b909250905080841115612af65760405162461bcd60e51b815260206004820152601060248201526f34b73b30b634b210333930b1ba34b7b760811b604482015260640160405180910390612af3615277565b50505b612b008284614981565b841115612b5c5760405162461bcd60e51b815260206004820152601960248201527f657863656564656420616c6c6f77656420696e63726561736500000000000000604482015260640160405180910390612b59615277565b50505b6000806039612b696152e2565b906101000a90046001600160a01b03166001600160a01b031663ebee461d6040518163ffffffff1660e01b81526004016020604051808303818680612bac61533d565b158015612bc157600080612bbe615277565b50505b505a612bcb615389565b5050505050158015612bea573d6000803e3d6000612be7615277565b50505b505050506040513d6020811015612c0957600080612c06615277565b50505b8101908080519350879250829150603d9050612c236154ba565b505050805a612c306155a8565b0180603e612c3c6154ba565b5050507f4db9119741646c419f1ceccdf112b5b9a9b4516355e742e1fa9c479f4dec98da85603e612c6b6152e2565b60405191825260208201526040908101905180910390a1505050505050565b60006033612c966152e2565b906101000a90046001600160a01b03166001600160a01b03165a612cb8615474565b6001600160a01b031614612d0a5760405162461bcd60e51b815260206004820152600c60248201526b37b7363c9036b0b730b3b2b960a11b604482015260640160405180910390612d07615277565b50505b60005b81518110156123fa57612d258282815181106123c057fe5b15612d2f57612d4b565b612d4b828281518110612d3e57fe5b60200260200101516149e0565b600101612d0d565b6000806033612d606152e2565b906101000a90046001600160a01b03166001600160a01b03165a612d82615474565b6001600160a01b03161480612dcb575060006037612d9e6152e2565b906101000a90046001600160a01b03166001600160a01b03165a612dc0615474565b6001600160a01b0316145b612e1d5760405162461bcd60e51b815260206004820152601660248201527537b7363c9036b0b730b3b2b91037b9103a3930b232b960511b604482015260640160405180910390612e1a615277565b50505b6001600160a01b038316612e805760405162461bcd60e51b815260206004820152601c60248201527f6e6f6e2d7a65726f206164647265737320697320726571756972656400000000604482015260640160405180910390612e7d615277565b50505b6000806039612e8d6152e2565b906101000a90046001600160a01b03166001600160a01b0316637027ea6c856040516001600160e01b031960e084901b1681526001600160a01b0390911660048201526024016020604051808303818680612ee661533d565b158015612efb57600080612ef8615277565b50505b505a612f05615389565b5050505050158015612f24573d6000803e3d6000612f21615277565b50505b505050506040513d6020811015612f4357600080612f40615277565b50505b81019080805193505050506001600160a01b038116612fa75760405162461bcd60e51b815260206004820152601360248201527234b73b30b634b2103232b9ba34b730ba34b7b760691b604482015260640160405180910390612fa4615277565b50505b600080600080846001600160a01b031663e23ff4375a63996d79a5598160e01b8152602081600483336000905af158601d01573d60011458600c01573d6000803e3d621234565260ea61109c528051925060005b604081101561301257600082820152602001612ffb565b505050896040518363ffffffff1660e01b815260040180836001600160a01b0316815260200180602001828103825283818151815260200191508051906020019080838360005b83811015613071578082015183820152602001613059565b50505050905090810190601f16801561309e5780820380516001836020036101000a031916815260200191505b50935050505060806040518083038186806130b761533d565b1580156130cc576000806130c9615277565b50505b505a6130d6615389565b50505050501580156130f5573d6000803e3d60006130f2615277565b50505b505050506040513d608081101561311457600080613111615277565b50505b81019080805192919060200180519291906020018051929190602001805195995093975091955092935050505060ff8416600214156131785761316a8861315a85611b65565b8461316485611b65565b8b614a6c565b6001955050505050506119eb565b6000886001600160a01b0316886040518082805190602001908083835b602083106131b45780518252601f199092019160209182019101613195565b6001836020036101000a0380198251168184511680821785525050505050509050019150506000604051808303816000865a6131ee6155ee565b5050505050509150503d8060008114613223576040513d603f01601f191681016040523d815291503d6000602084013e613228565b606091505b509091505060018115151461328c5760405162461bcd60e51b815260206004820152601a60248201527f6661696c656420746f2065786563757465207468652063616c6c000000000000604482015260640160405180910390613289615277565b50505b50600198975050505050505050565b603e611f3c6152e2565b600060336132b16152e2565b906101000a90046001600160a01b03166001600160a01b03165a6132d3615474565b6001600160a01b0316146133255760405162461bcd60e51b815260206004820152600c60248201526b37b7363c9036b0b730b3b2b960a11b604482015260640160405180910390613322615277565b50505b600060376001816133346152e2565b816001600160a01b0302191690836001600160a01b03160217906133566154ba565b505050565b603c602052806000526040600020600091506133756152e2565b906101000a900460ff1681565b60006121fe838360200260040160ff166020613d9e565b603d611f3c6152e2565b60008060396133b06152e2565b906101000a90046001600160a01b03166001600160a01b031663cc435bf3836040516001600160e01b031960e084901b1681526001600160a01b03909116600482015260240160206040518083038186806128ee61533d565b6000603a806134166152e2565b91505090565b600060336134286152e2565b906101000a90046001600160a01b03166001600160a01b03165a61344a615474565b6001600160a01b03161461349c5760405162461bcd60e51b815260206004820152600c60248201526b37b7363c9036b0b730b3b2b960a11b604482015260640160405180910390613499615277565b50505b603e6134a66152e2565b5a6134af6155a8565b101561350a5760405162461bcd60e51b815260206004820152601960248201527f66656520696e6372656173652064656c61792061637469766500000000000000604482015260640160405180910390613507615277565b50505b61351d81603d6135186152e2565b614d33565b600080603d61352a6154ba565b5050506000603e8190611b3d6154ba565b600080613553848460200260040160ff166020613d9e565b9050611f1c84600483016020613d9e565b60606035806135716152e2565b8060200260200160405190810160405281815291906020830182806135946152e2565b80156135e157602002820191906000526020600020905b6000826135b66152e2565b906101000a90046001600160a01b03166001600160a01b0316815260200190600101908083116135ab575b5050505050905090565b60006135ff826001600160a01b0316614f86565b6136485760405162461bcd60e51b815260206004820152600d60248201526c1a5b9d985b1a5908185cdcd95d609a1b604482015260640160405180910390613645615277565b50505b816001600160a01b031663d4b839926040518163ffffffff1660e01b8152600401602060405180830381868061367c61533d565b1580156136915760008061368e615277565b50505b505a61369b615389565b50505050509250505080156136d457506040513d60208110156136c6576000806136c3615277565b50505b810190808051925060019150505b613712573d808015613702576040513d603f01601f191681016040523d815291503d6000602084013e613707565b606091505b506000915050611b67565b600080603861371f6152e2565b906101000a90046001600160a01b03166001600160a01b03166321f8a721680a6f2dce8d0cae8d2f60bb1b6040516001600160e01b031960e084901b1681526004810191909152602401602060405180830381868061377c61533d565b1580156137915760008061378e615277565b50505b505a61379b615389565b50505050501580156137ba573d6000803e3d60006137b7615277565b50505b505050506040513d60208110156137d9576000806137d6615277565b50505b8101908080516001600160a01b031692506316b2213f91508490506040516001600160e01b031960e084901b1681526001600160a01b039091166004820152602401602060405180830381868061382e61533d565b15801561384357600080613840615277565b50505b505a61384d615389565b505050505015801561386c573d6000803e3d6000613869615277565b50505b505050506040513d602081101561388b57600080613888615277565b50505b81019080805193909314159450611b679350505050565b60006035806134166152e2565b600060336138bb6152e2565b906101000a90046001600160a01b03166001600160a01b03165a6138dd615474565b6001600160a01b03161461392f5760405162461bcd60e51b815260206004820152600c60248201526b37b7363c9036b0b730b3b2b960a11b60448201526064016040518091039061392c615277565b50505b806037600181611b1b6152e2565b600060336139496152e2565b906101000a90046001600160a01b03166001600160a01b03165a61396b615474565b6001600160a01b0316146139bd5760405162461bcd60e51b815260206004820152600c60248201526b37b7363c9036b0b730b3b2b960a11b6044820152606401604051809103906139ba615277565b50505b600080603d6139ca6154ba565b5050506000603e81906139db6154ba565b5050507fc6f04bf43cbdf1ba5d51b4afa160bb3c7e13858b1409aa32868b239bb2f8d84960405160405180910390a1565b6001600160a01b038116600090815260366020526040812061231d6152e2565b60006119eb8260006004612580565b6000603961148e6152e2565b603a8181613a536152e2565b8110613a5b57fe5b906000526020600020016000915061148e6152e2565b60006033613a7d6152e2565b906101000a90046001600160a01b03166001600160a01b03165a613a9f615474565b6001600160a01b031614613af15760405162461bcd60e51b815260206004820152600c60248201526b37b7363c9036b0b730b3b2b960a11b604482015260640160405180910390613aee615277565b50505b613afa81613a0c565b15613b0457611881565b611881816149e0565b6000816001600160a01b03166370a082315a63996d79a5598160e01b8152602081600483336000905af158601d01573d60011458600c01573d6000803e3d621234565260ea61109c528051925060005b6040811015613b7457600082820152602001613b5d565b5050506040516001600160e01b031960e084901b1681526001600160a01b03909116600482015260240160206040518083038186806128ee61533d565b60016000613bbd6152e2565b906101000a900460ff1680613bd55750613bd5614fc9565b80613bf25750600080613be66152e2565b906101000a900460ff16155b613c365760405162461bcd60e51b815260040180806020018281038252602e815260200180615741602e913960400191505060405180910390613c33615277565b50505b6000600181613c436152e2565b906101000a900460ff161590508015613ca9576001600061010081613c666152e2565b8160ff02191690831515021790613c7b6154ba565b50505060016000806101000a81613c906152e2565b8160ff02191690831515021790613ca56154ba565b5050505b613cb3858561503a565b856039600181613cc16152e2565b816001600160a01b0302191690836001600160a01b0316021790613ce36154ba565b50505082603860006101000a81613cf86152e2565b816001600160a01b0302191690836001600160a01b0316021790613d1a6154ba565b50505060005b82518160ff161015613d5357613d4b838260ff1681518110613d3e57fe5b602002602001015161444a565b600101613d20565b508015613d825760008061010081613d696152e2565b8160ff02191690831515021790613d7e6154ba565b5050505b505050505050565b60006119eb82613d9984613b0d565b611e2e565b600081830184511015613e005760405162461bcd60e51b815260206004820152601b60248201527f52656164696e67206279746573206f7574206f6620626f756e64730000000000604482015260640160405180910390613dfd615277565b50505b8260200184015190508160200380156126015760080260020a90049392505050565b6060603a80613e2f6152e2565b806020026020016040519081016040528181529190602083018280613e526152e2565b80156135e157602002820191906000526020600020905b600082613e746152e2565b906101000a90046001600160a01b03166001600160a01b031681526020019060010190808311613e69575050505050905090565b600080603d613eb56152e2565b603e613ebf6152e2565b915091509091565b60608060606000603a80613ed96152e2565b9050905060608167ffffffffffffffff81118015613eff57600080613efc615277565b50505b50604051908082528060200260200182016040528015613f29578160200160208202803683370190505b50905060608267ffffffffffffffff81118015613f4e57600080613f4b615277565b50505b50604051908082528060200260200182016040528015613f78578160200160208202803683370190505b50905060608367ffffffffffffffff81118015613f9d57600080613f9a615277565b50505b50604051908082528060200260200182016040528015613fc7578160200160208202803683370190505b50905060005b84811015614146576000603a8281613fe36152e2565b8110613feb57fe5b906000526020600020016000906140006152e2565b906101000a90046001600160a01b0316905061401b81613b0d565b84838151811061402757fe5b6020026020010181815250508085838151811061404057fe5b6001600160a01b0390921660209283029190910190910152600060396140646152e2565b906101000a90046001600160a01b03166001600160a01b0316638b2f0f4f826040516001600160e01b031960e084901b1681526001600160a01b03909116600482015260240160206040518083038186806140bd61533d565b1580156140d2576000806140cf615277565b50505b505a6140dc615389565b50505050501580156140fb573d6000803e3d60006140f8615277565b50505b505050506040513d602081101561411a57600080614117615277565b50505b81019080805192508591508490508151811061413257fe5b602090810291909101015250600101613fcd565b509195509350915050909192565b60606034806141616152e2565b600181600116156101000203166002900480601f01602080910402602001604051908101604052818152919060208301828061419b6152e2565b600181600116156101000203166002900480156135e15780601f106141d55761010080836141c76152e2565b0402835291602001916135e1565b820191906000526020600020905b816141ec6152e2565b815290600101906020018083116141e357509395945050505050565b6000603a806142156152e2565b6001600160a01b0384166000908152603b602052909250905061424560016040832061423f6152e2565b90615081565b90506000603a614256846001615081565b8161425f6152e2565b811061426757fe5b9060005260206000200160009061427c6152e2565b906101000a90046001600160a01b0316905080603a838161429b6152e2565b81106142a357fe5b906000526020600020016001816142b86152e2565b816001600160a01b0302191690836001600160a01b03160217906142da6154ba565b506142ea91508390506001614981565b6001600160a01b0382166000908152603b60205260409020819061430c6154ba565b5050506001600160a01b0384166000908152603b6020526040812081906143316154ba565b505050603a8061433f6152e2565b8061434657fe5b600190038181906000526020600020016001816143616152e2565b906001600160a01b03021916906143766154ba565b5050906143816154ba565b50507f9b4f55639e5e283319baee5bc4e69a5625a8e3a1cc004af968f4fee7250220275a63996d79a5598160e01b8152602081600483336000905af158601d01573d60011458600c01573d6000803e3d621234565260ea61109c528051925060005b60408110156143fa576000828201526020016143e3565b5050506144056123fe565b8660405180846001600160a01b03168152602001836001600160a01b03168152602001826001600160a01b03168152602001935050505060405180910390a150505050565b600060396144566152e2565b906101000a90046001600160a01b03166001600160a01b031663aa12ae4d6040518163ffffffff1660e01b8152600401602060405180830381868061449961533d565b1580156144ae576000806144ab615277565b50505b505a6144b8615389565b50505050501580156144d7573d6000803e3d60006144d4615277565b50505b505050506040513d60208110156144f6576000806144f3615277565b50505b8101908080519250603a915081905061450d6152e2565b9050106145625760405162461bcd60e51b81526020600482015260166024820152751b585e1a5b5d5b48185cdcd95d1cc81c995858da195960521b60448201526064016040518091039061455f615277565b50505b61456b816122fd565b156145c55760405162461bcd60e51b815260206004820152601760248201527f617373657420616c726561647920737570706f727465640000000000000000006044820152606401604051809103906145c2615277565b50505b6145ce816133a3565b151560011461461c5760405162461bcd60e51b815260206004820152600d60248201526c1a5b9d985b1a5908185cdcd95d609a1b604482015260640160405180910390614619615277565b50505b80603a8060018161462b6152e2565b0180826146366154ba565b5050600092835260001901916020915020016001816146536152e2565b816001600160a01b0302191690836001600160a01b03160217906146756154ba565b505050603a806146836152e2565b6001600160a01b0383166000908152603b6020529091506040902081906146a86154ba565b5050507f0a7426a0630aad7dbc4d5ca5b7d9aac1133d77d2db987caaf4b4186c85d6593f5a63996d79a5598160e01b8152602081600483336000905af158601d01573d60011458600c01573d6000803e3d621234565260ea61109c528051925060005b60408110156147225760008282015260200161470b565b50505061472d6123fe565b8360405180846001600160a01b03168152602001836001600160a01b03168152602001826001600160a01b03168152602001935050505060405180910390a150565b600060358061477c6152e2565b6001600160a01b0384166000908152603660205290925090506147a660016040832061423f6152e2565b9050600060356147b7846001615081565b816147c06152e2565b81106147c857fe5b906000526020600020016000906147dd6152e2565b906101000a90046001600160a01b0316905080603583816147fc6152e2565b811061480457fe5b906000526020600020016001816148196152e2565b816001600160a01b0302191690836001600160a01b031602179061483b6154ba565b5061484b91508390506001614981565b6001600160a01b0382166000908152603660205260409020819061486d6154ba565b5050506001600160a01b038416600090815260366020526040812081906148926154ba565b5050506035806148a06152e2565b806148a757fe5b600190038181906000526020600020016001816148c26152e2565b906001600160a01b03021916906148d76154ba565b505090613d826154ba565b6000826148f1575060006119eb565b828202828482816148fe57fe5b04146121fe5760405162461bcd60e51b815260040180806020018281038252602181526020018061572060219139604001915050604051809103906121fb615277565b60006121fe838360405160408082019052601a81527f536166654d6174683a206469766973696f6e206279207a65726f00000000000060208201526150c1565b6000828201838110156121fe5760405162461bcd60e51b815260206004820152601b60248201527f536166654d6174683a206164646974696f6e206f766572666c6f7700000000006044820152606401604051809103906121fb615277565b806035806001816149ef6152e2565b0180826149fa6154ba565b505060009283526000190191602091502001600181614a176152e2565b816001600160a01b0302191690836001600160a01b0316021790614a396154ba565b505050603580614a476152e2565b6001600160a01b03831660009081526036602052909150604090208190611b3d6154ba565b614a75846122fd565b614ace5760405162461bcd60e51b815260206004820152601860248201527f756e737570706f7274656420736f757263652061737365740000000000000000604482015260640160405180910390614acb615277565b50505b614ad7826122fd565b614b305760405162461bcd60e51b815260206004820152601d60248201527f756e737570706f727465642064657374696e6174696f6e206173736574000000604482015260640160405180910390614b2d615277565b50505b60006060866001600160a01b0316836040518082805190602001908083835b60208310614b6e5780518252601f199092019160209182019101614b4f565b6001836020036101000a0380198251168184511680821785525050505050509050019150506000604051808303816000865a614ba86155ee565b5050505050509150503d8060008114614bdd576040513d603f01601f191681016040523d815291503d6000602084013e614be2565b606091505b509092509050600182151514614c475760405162461bcd60e51b815260206004820152601a60248201527f6661696c656420746f20657865637574652065786368616e6765000000000000604482015260640160405180910390614c44615277565b50505b7f2083d2b241ef1ec859ae0402864fd9fe9d6d36b18c73615625b46acaf113be785a63996d79a5598160e01b8152602081600483336000905af158601d01573d60011458600c01573d6000803e3d621234565260ea61109c528051925060005b6040811015614cbe57600082820152602001614ca7565b505050614cc96123fe565b888888614cd787600061516c565b5a614ce06155a8565b6040516001600160a01b039788168152958716602087015293861660408087019190915260608601939093529416608084015260a083019390935260c082015260e001905180910390a150505050505050565b60006039614d3f6152e2565b906101000a90046001600160a01b03166001600160a01b031663046b72c483836040516001600160e01b031960e085901b1681526001600160a01b039092166004830152602482015260440160006040518083038160008780614da061533d565b158015614db557600080614db2615277565b50505b505a614dbf6155ee565b505050505050158015614ddf573d6000803e3d6000614ddc615277565b50505b505050506000806039600090614df36152e2565b906101000a90046001600160a01b03166001600160a01b031663b7a54526856040516001600160e01b031960e084901b1681526001600160a01b03909116600482015260240160408051808303818680614e4b61533d565b158015614e6057600080614e5d615277565b50505b505a614e6a615389565b5050505050158015614e89573d6000803e3d6000614e86615277565b50505b505050506040513d6040811015614ea857600080614ea5615277565b50505b81019080805192919060200180519395509293507f1780c04ddc6f0b32d866c7a3d7583f53515ef49ed2126af868f804f491601266925050505a63996d79a5598160e01b8152602081600483336000905af158601d01573d60011458600c01573d6000803e3d621234565260ea61109c528051925060005b6040811015614f3757600082820152602001614f20565b505050614f426123fe565b848460405180856001600160a01b03168152602001846001600160a01b0316815260200183815260200182815260200194505050505060405180910390a150505050565b6000807fc5d2460186f7233c927e7db2dcc703c0e500b653ca82273b7bfad8045d85a47083614fb36156b4565b9150808214158015611f1c575050151592915050565b6000805a63996d79a5598160e01b8152602081600483336000905af158601d01573d60011458600c01573d6000803e3d621234565260ea61109c528051925060005b60408110156150225760008282015260200161500b565b505050905060008161503261533d565b159250505090565b8160336001816150486152e2565b816001600160a01b0302191690836001600160a01b031602179061506a6154ba565b505050806034908051613356929160200190615508565b60006121fe838360405160408082019052601e81527f536166654d6174683a207375627472616374696f6e206f766572666c6f77000060208201526151d7565b600081836151565760405162461bcd60e51b81526004018080602001828103825283818151815260200191508051906020019080838360005b838110156151125780820151838201526020016150fa565b50505050905090810190601f16801561513f5780820380516001836020036101000a031916815260200191505b509250505060405180910390615153615277565b50505b50600083858161516257fe5b0495945050505050565b600081602001835110156151c65760405162461bcd60e51b8152602060048201526014602482015273736c6963696e67206f7574206f662072616e676560601b6044820152606401604051809103906151c3615277565b50505b600082602001840151949350505050565b6000818484111561526f5760405162461bcd60e51b81526004018080602001828103825283818151815260200191508051906020019080838360005b8381101561522b578082015183820152602001615213565b50505050905090810190601f1680156152585780820380516001836020036101000a031916815260200191505b50925050506040518091039061526c615277565b50505b505050900390565b632a2a7adb598160e01b8152600481016020815285602082015260005b868110156152af578086015182820160400152602001615294565b506020828760640184336000905af158601d01573d60011458600c01573d6000803e3d621234565260ea61109c52505050565b6303daa959598160e01b8152836004820152602081602483336000905af158601d01573d60011458600c01573d6000803e3d621234565260ea61109c528051935060005b604081101561335657600082820152602001615326565b638435035b598160e01b8152836004820152602081602483336000905af158601d01573d60011458600c01573d6000803e3d621234565260ea61109c5280516000825293506020615326565b638540661f598160e01b81526153ba565b80808311156119eb575090919050565b80808310156119eb575090919050565b836004820152846024820152606060448201528660648201526084810160005b888110156153f25780880151828201526020016153da565b506060828960a40184336000905af158601d01573d60011458600c01573d6000803e3d621234565260ea61109c52815160408301513d6000853e8b8b82606087013350600060045af150596154478d3d6153aa565b8c01615453818761539a565b5b828110156154685760008152602001615454565b50929c50505050505050565b6373509064598160e01b8152602081600483336000905af158601d01573d60011458600c01573d6000803e3d621234565260ea61109c5280516000825293506020615326565b6322bd64c0598160e01b8152836004820152846024820152600081604483336000905af158601d01573d60011458600c01573d6000803e3d621234565260ea61109c52600081526020615326565b82806155126152e2565b600181600116156101000203166002900490600052602060002090601f016020900481019282601f1061555957805160ff191683800117856155526154ba565b5050615598565b828001600101856155686154ba565b50508215615598579182015b82811115615598578251826155876154ba565b505091602001919060010190615574565b506155a4929150615700565b5090565b63bdbf8c36598160e01b8152602081600483336000905af158601d01573d60011458600c01573d6000803e3d621234565260ea61109c5280516000825293506020615326565b6385979f76598160e01b8152836004820152846024820152606060448201528760648201526084810160005b8981101561563257808901518282015260200161561a565b506060828a60a40184336000905af158601d01573d60011458600c01573d6000803e3d621234565260ea61109c52815160408301513d6000853e8c8c82606087013350600060045af150596156878e3d6153aa565b8d01615693818761539a565b5b828110156156a85760008152602001615694565b50929d50505050505050565b6324749d5c598160e01b8152836004820152602081602483336000905af158601d01573d60011458600c01573d6000803e3d621234565260ea61109c5280516000825293506020615326565b808211156155a457600080826157146154ba565b50505060010161570056fe536166654d6174683a206d756c7469706c69636174696f6e206f766572666c6f77436f6e747261637420696e7374616e63652068617320616c7265616479206265656e20696e697469616c697a6564",
  "linkReferences": {},
  "deployedLinkReferences": {}
}