{
  "_format": "hh-sol-artifact-1",
  "contractName": "PoolManagerLogic",
  "sourceName": "contracts/PoolManagerLogic.sol",
  "abi": [
    {
      "anonymous": false,
      "inputs": [
        {
          "indexed": false,
          "internalType": "address",
          "name": "fundAddress",
          "type": "address"
        },
        {
          "indexed": false,
          "internalType": "address",
          "name": "manager",
          "type": "address"
        },
        {
          "indexed": false,
          "internalType": "address",
          "name": "asset",
          "type": "address"
        }
      ],
      "name": "AssetAdded",
      "type": "event"
    },
    {
      "anonymous": false,
      "inputs": [
        {
          "indexed": false,
          "internalType": "address",
          "name": "fundAddress",
          "type": "address"
        },
        {
          "indexed": false,
          "internalType": "address",
          "name": "manager",
          "type": "address"
        },
        {
          "indexed": false,
          "internalType": "address",
          "name": "asset",
          "type": "address"
        }
      ],
      "name": "AssetRemoved",
      "type": "event"
    },
    {
      "anonymous": false,
      "inputs": [
        {
          "indexed": false,
          "internalType": "uint256",
          "name": "newNumerator",
          "type": "uint256"
        },
        {
          "indexed": false,
          "internalType": "uint256",
          "name": "announcedFeeActivationTime",
          "type": "uint256"
        }
      ],
      "name": "ManagerFeeIncreaseAnnounced",
      "type": "event"
    },
    {
      "anonymous": false,
      "inputs": [],
      "name": "ManagerFeeIncreaseRenounced",
      "type": "event"
    },
    {
      "anonymous": false,
      "inputs": [
        {
          "indexed": false,
          "internalType": "address",
          "name": "fundAddress",
          "type": "address"
        },
        {
          "indexed": false,
          "internalType": "address",
          "name": "manager",
          "type": "address"
        },
        {
          "indexed": false,
          "internalType": "uint256",
          "name": "numerator",
          "type": "uint256"
        },
        {
          "indexed": false,
          "internalType": "uint256",
          "name": "denominator",
          "type": "uint256"
        }
      ],
      "name": "ManagerFeeSet",
      "type": "event"
    },
    {
      "anonymous": false,
      "inputs": [
        {
          "indexed": false,
          "internalType": "address",
          "name": "newManager",
          "type": "address"
        },
        {
          "indexed": false,
          "internalType": "string",
          "name": "newManagerName",
          "type": "string"
        }
      ],
      "name": "ManagerUpdated",
      "type": "event"
    },
    {
      "anonymous": false,
      "inputs": [
        {
          "indexed": false,
          "internalType": "address",
          "name": "fundAddress",
          "type": "address"
        },
        {
          "indexed": false,
          "internalType": "address",
          "name": "manager",
          "type": "address"
        },
        {
          "indexed": false,
          "internalType": "uint256",
          "name": "time",
          "type": "uint256"
        }
      ],
      "name": "TransactionExecuted",
      "type": "event"
    },
    {
      "inputs": [
        {
          "internalType": "address",
          "name": "member",
          "type": "address"
        }
      ],
      "name": "addMember",
      "outputs": [],
      "stateMutability": "nonpayable",
      "type": "function"
    },
    {
      "inputs": [
        {
          "internalType": "address[]",
          "name": "members",
          "type": "address[]"
        }
      ],
      "name": "addMembers",
      "outputs": [],
      "stateMutability": "nonpayable",
      "type": "function"
    },
    {
      "inputs": [
        {
          "internalType": "address",
          "name": "asset",
          "type": "address"
        }
      ],
      "name": "addToSupportedAssets",
      "outputs": [],
      "stateMutability": "nonpayable",
      "type": "function"
    },
    {
      "inputs": [
        {
          "internalType": "address",
          "name": "pool",
          "type": "address"
        },
        {
          "internalType": "uint256",
          "name": "numerator",
          "type": "uint256"
        }
      ],
      "name": "announceManagerFeeIncrease",
      "outputs": [],
      "stateMutability": "nonpayable",
      "type": "function"
    },
    {
      "inputs": [],
      "name": "announcedFeeIncreaseNumerator",
      "outputs": [
        {
          "internalType": "uint256",
          "name": "",
          "type": "uint256"
        }
      ],
      "stateMutability": "view",
      "type": "function"
    },
    {
      "inputs": [],
      "name": "announcedFeeIncreaseTimestamp",
      "outputs": [
        {
          "internalType": "uint256",
          "name": "",
          "type": "uint256"
        }
      ],
      "stateMutability": "view",
      "type": "function"
    },
    {
      "inputs": [
        {
          "internalType": "address",
          "name": "asset",
          "type": "address"
        }
      ],
      "name": "assetBalance",
      "outputs": [
        {
          "internalType": "uint256",
          "name": "",
          "type": "uint256"
        }
      ],
      "stateMutability": "view",
      "type": "function"
    },
    {
      "inputs": [
        {
          "internalType": "address",
          "name": "",
          "type": "address"
        }
      ],
      "name": "assetPosition",
      "outputs": [
        {
          "internalType": "uint256",
          "name": "",
          "type": "uint256"
        }
      ],
      "stateMutability": "view",
      "type": "function"
    },
    {
      "inputs": [
        {
          "internalType": "address",
          "name": "asset",
          "type": "address"
        },
        {
          "internalType": "uint256",
          "name": "amount",
          "type": "uint256"
        }
      ],
      "name": "assetValue",
      "outputs": [
        {
          "internalType": "uint256",
          "name": "",
          "type": "uint256"
        }
      ],
      "stateMutability": "view",
      "type": "function"
    },
    {
      "inputs": [
        {
          "internalType": "address",
          "name": "asset",
          "type": "address"
        }
      ],
      "name": "assetValue",
      "outputs": [
        {
          "internalType": "uint256",
          "name": "",
          "type": "uint256"
        }
      ],
      "stateMutability": "view",
      "type": "function"
    },
    {
      "inputs": [
        {
          "internalType": "address",
          "name": "newManager",
          "type": "address"
        },
        {
          "internalType": "string",
          "name": "newManagerName",
          "type": "string"
        }
      ],
      "name": "changeManager",
      "outputs": [],
      "stateMutability": "nonpayable",
      "type": "function"
    },
    {
      "inputs": [
        {
          "internalType": "address",
          "name": "pool",
          "type": "address"
        }
      ],
      "name": "commitManagerFeeIncrease",
      "outputs": [],
      "stateMutability": "nonpayable",
      "type": "function"
    },
    {
      "inputs": [
        {
          "internalType": "bytes32",
          "name": "data",
          "type": "bytes32"
        }
      ],
      "name": "convert32toAddress",
      "outputs": [
        {
          "internalType": "address",
          "name": "o",
          "type": "address"
        }
      ],
      "stateMutability": "pure",
      "type": "function"
    },
    {
      "inputs": [
        {
          "internalType": "address",
          "name": "to",
          "type": "address"
        },
        {
          "internalType": "bytes",
          "name": "data",
          "type": "bytes"
        }
      ],
      "name": "execTransaction",
      "outputs": [
        {
          "internalType": "bool",
          "name": "",
          "type": "bool"
        }
      ],
      "stateMutability": "nonpayable",
      "type": "function"
    },
    {
      "inputs": [],
      "name": "factory",
      "outputs": [
        {
          "internalType": "address",
          "name": "",
          "type": "address"
        }
      ],
      "stateMutability": "view",
      "type": "function"
    },
    {
      "inputs": [
        {
          "internalType": "bytes",
          "name": "data",
          "type": "bytes"
        },
        {
          "internalType": "uint8",
          "name": "inputNum",
          "type": "uint8"
        },
        {
          "internalType": "uint8",
          "name": "arrayIndex",
          "type": "uint8"
        }
      ],
      "name": "getArrayIndex",
      "outputs": [
        {
          "internalType": "bytes32",
          "name": "",
          "type": "bytes32"
        }
      ],
      "stateMutability": "pure",
      "type": "function"
    },
    {
      "inputs": [
        {
          "internalType": "bytes",
          "name": "data",
          "type": "bytes"
        },
        {
          "internalType": "uint8",
          "name": "inputNum",
          "type": "uint8"
        }
      ],
      "name": "getArrayLast",
      "outputs": [
        {
          "internalType": "bytes32",
          "name": "",
          "type": "bytes32"
        }
      ],
      "stateMutability": "pure",
      "type": "function"
    },
    {
      "inputs": [
        {
          "internalType": "bytes",
          "name": "data",
          "type": "bytes"
        },
        {
          "internalType": "uint8",
          "name": "inputNum",
          "type": "uint8"
        }
      ],
      "name": "getArrayLength",
      "outputs": [
        {
          "internalType": "uint256",
          "name": "",
          "type": "uint256"
        }
      ],
      "stateMutability": "pure",
      "type": "function"
    },
    {
      "inputs": [],
      "name": "getFundComposition",
      "outputs": [
        {
          "internalType": "address[]",
          "name": "",
          "type": "address[]"
        },
        {
          "internalType": "uint256[]",
          "name": "",
          "type": "uint256[]"
        },
        {
          "internalType": "uint256[]",
          "name": "",
          "type": "uint256[]"
        }
      ],
      "stateMutability": "view",
      "type": "function"
    },
    {
      "inputs": [
        {
          "internalType": "bytes",
          "name": "data",
          "type": "bytes"
        },
        {
          "internalType": "uint8",
          "name": "inputNum",
          "type": "uint8"
        }
      ],
      "name": "getInput",
      "outputs": [
        {
          "internalType": "bytes32",
          "name": "",
          "type": "bytes32"
        }
      ],
      "stateMutability": "pure",
      "type": "function"
    },
    {
      "inputs": [
        {
          "internalType": "address",
          "name": "pool",
          "type": "address"
        }
      ],
      "name": "getManagerFee",
      "outputs": [
        {
          "internalType": "uint256",
          "name": "",
          "type": "uint256"
        },
        {
          "internalType": "uint256",
          "name": "",
          "type": "uint256"
        }
      ],
      "stateMutability": "view",
      "type": "function"
    },
    {
      "inputs": [],
      "name": "getManagerFeeIncreaseInfo",
      "outputs": [
        {
          "internalType": "uint256",
          "name": "",
          "type": "uint256"
        },
        {
          "internalType": "uint256",
          "name": "",
          "type": "uint256"
        }
      ],
      "stateMutability": "view",
      "type": "function"
    },
    {
      "inputs": [],
      "name": "getMembers",
      "outputs": [
        {
          "internalType": "address[]",
          "name": "",
          "type": "address[]"
        }
      ],
      "stateMutability": "view",
      "type": "function"
    },
    {
      "inputs": [
        {
          "internalType": "bytes",
          "name": "data",
          "type": "bytes"
        }
      ],
      "name": "getMethod",
      "outputs": [
        {
          "internalType": "bytes4",
          "name": "",
          "type": "bytes4"
        }
      ],
      "stateMutability": "pure",
      "type": "function"
    },
    {
      "inputs": [],
      "name": "getSupportedAssets",
      "outputs": [
        {
          "internalType": "address[]",
          "name": "",
          "type": "address[]"
        }
      ],
      "stateMutability": "view",
      "type": "function"
    },
    {
      "inputs": [
        {
          "internalType": "address",
          "name": "_factory",
          "type": "address"
        },
        {
          "internalType": "address",
          "name": "_manager",
          "type": "address"
        },
        {
          "internalType": "string",
          "name": "_managerName",
          "type": "string"
        },
        {
          "internalType": "address[]",
          "name": "_supportedAssets",
          "type": "address[]"
        }
      ],
      "name": "initialize",
      "outputs": [],
      "stateMutability": "nonpayable",
      "type": "function"
    },
    {
      "inputs": [
        {
          "internalType": "address",
          "name": "asset",
          "type": "address"
        }
      ],
      "name": "isAssetSupported",
      "outputs": [
        {
          "internalType": "bool",
          "name": "",
          "type": "bool"
        }
      ],
      "stateMutability": "view",
      "type": "function"
    },
    {
      "inputs": [
        {
          "internalType": "address",
          "name": "member",
          "type": "address"
        }
      ],
      "name": "isMemberAllowed",
      "outputs": [
        {
          "internalType": "bool",
          "name": "",
          "type": "bool"
        }
      ],
      "stateMutability": "view",
      "type": "function"
    },
    {
      "inputs": [],
      "name": "manager",
      "outputs": [
        {
          "internalType": "address",
          "name": "",
          "type": "address"
        }
      ],
      "stateMutability": "view",
      "type": "function"
    },
    {
      "inputs": [],
      "name": "managerName",
      "outputs": [
        {
          "internalType": "string",
          "name": "",
          "type": "string"
        }
      ],
      "stateMutability": "view",
      "type": "function"
    },
    {
      "inputs": [],
      "name": "numberOfMembers",
      "outputs": [
        {
          "internalType": "uint256",
          "name": "",
          "type": "uint256"
        }
      ],
      "stateMutability": "view",
      "type": "function"
    },
    {
      "inputs": [],
      "name": "numberOfSupportedAssets",
      "outputs": [
        {
          "internalType": "uint256",
          "name": "",
          "type": "uint256"
        }
      ],
      "stateMutability": "view",
      "type": "function"
    },
    {
      "inputs": [
        {
          "internalType": "address",
          "name": "",
          "type": "address"
        }
      ],
      "name": "persistentAsset",
      "outputs": [
        {
          "internalType": "bool",
          "name": "",
          "type": "bool"
        }
      ],
      "stateMutability": "view",
      "type": "function"
    },
    {
      "inputs": [
        {
          "internalType": "bytes",
          "name": "data",
          "type": "bytes"
        },
        {
          "internalType": "uint256",
          "name": "offset",
          "type": "uint256"
        },
        {
          "internalType": "uint256",
          "name": "length",
          "type": "uint256"
        }
      ],
      "name": "read32",
      "outputs": [
        {
          "internalType": "bytes32",
          "name": "o",
          "type": "bytes32"
        }
      ],
      "stateMutability": "pure",
      "type": "function"
    },
    {
      "inputs": [
        {
          "internalType": "bytes",
          "name": "data",
          "type": "bytes"
        },
        {
          "internalType": "uint256",
          "name": "offset",
          "type": "uint256"
        },
        {
          "internalType": "uint256",
          "name": "length",
          "type": "uint256"
        }
      ],
      "name": "read4left",
      "outputs": [
        {
          "internalType": "bytes4",
          "name": "o",
          "type": "bytes4"
        }
      ],
      "stateMutability": "pure",
      "type": "function"
    },
    {
      "inputs": [
        {
          "internalType": "address",
          "name": "asset",
          "type": "address"
        }
      ],
      "name": "removeFromSupportedAssets",
      "outputs": [],
      "stateMutability": "nonpayable",
      "type": "function"
    },
    {
      "inputs": [
        {
          "internalType": "address",
          "name": "member",
          "type": "address"
        }
      ],
      "name": "removeMember",
      "outputs": [],
      "stateMutability": "nonpayable",
      "type": "function"
    },
    {
      "inputs": [
        {
          "internalType": "address[]",
          "name": "members",
          "type": "address[]"
        }
      ],
      "name": "removeMembers",
      "outputs": [],
      "stateMutability": "nonpayable",
      "type": "function"
    },
    {
      "inputs": [],
      "name": "removeTrader",
      "outputs": [],
      "stateMutability": "nonpayable",
      "type": "function"
    },
    {
      "inputs": [],
      "name": "renounceManagerFeeIncrease",
      "outputs": [],
      "stateMutability": "nonpayable",
      "type": "function"
    },
    {
      "inputs": [
        {
          "internalType": "address",
          "name": "newTrader",
          "type": "address"
        }
      ],
      "name": "setTrader",
      "outputs": [],
      "stateMutability": "nonpayable",
      "type": "function"
    },
    {
      "inputs": [
        {
          "internalType": "uint256",
          "name": "",
          "type": "uint256"
        }
      ],
      "name": "supportedAssets",
      "outputs": [
        {
          "internalType": "address",
          "name": "",
          "type": "address"
        }
      ],
      "stateMutability": "view",
      "type": "function"
    },
    {
      "inputs": [],
      "name": "trader",
      "outputs": [
        {
          "internalType": "address",
          "name": "",
          "type": "address"
        }
      ],
      "stateMutability": "view",
      "type": "function"
    },
    {
      "inputs": [
        {
          "internalType": "address",
          "name": "asset",
          "type": "address"
        }
      ],
      "name": "validateAsset",
      "outputs": [
        {
          "internalType": "bool",
          "name": "",
          "type": "bool"
        }
      ],
      "stateMutability": "view",
      "type": "function"
    }
  ],
  "bytecode": "0x608060405234801561001057600080fd5b5061330b806100206000396000f3fe608060405234801561001057600080fd5b50600436106102745760003560e01c80638f32343911610151578063c45a0155116100c3578063d8af8ed411610087578063d8af8ed414610df8578063db896b5714610e1e578063e5406dbf14610ec7578063ed5b165d14610ecf578063f09d14d714610ed7578063fed4416a14610fbd57610274565b8063c45a015514610c48578063c688aa6414610c50578063c68dbb3714610d8f578063ca6d56dc14610dac578063cd88e55814610dd257610274565b80639eab5253116101155780639eab525314610af0578063a30e3fa914610b48578063a6bc18f914610b50578063b8bd81e614610b76578063bbbf725b14610b7e578063c3c6279f14610ba457610274565b80638f323439146109eb5780639240d299146109f3578063936553c414610a19578063969eed2714610a21578063998546e314610a4757610274565b8063481c6a75116101ea5780636f4d469b116101ae5780636f4d469b146107b75780637ae7cfb5146108585780637b4d0c631461090c5780637c8afd511461091457806380dd4f621461091c57806382f86acc1461094257610274565b8063481c6a75146105ca57806352213663146105d2578063568b5a2f146106865780635f6eceab1461074c5780636708f5d71461078b57610274565b80631eba30771161023c5780631eba3077146103cc57806329c07fba146103e95780633c570d7d1461041557806341dc16c31461043b578063464b4158146104ef57806346ee84b01461052957610274565b80630646858714610279578063093b8825146102a157806309ff5c7d146102c75780630b1ca49a146103825780631758078b146103a8575b600080fd5b61029f6004803603602081101561028f57600080fd5b50356001600160a01b031661103a565b005b61029f600480360360208110156102b757600080fd5b50356001600160a01b03166112e4565b610370600480360360408110156102dd57600080fd5b810190602081018135600160201b8111156102f757600080fd5b82018360208201111561030957600080fd5b803590602001918460018302840111600160201b8311171561032a57600080fd5b91908080601f0160208091040260200160405190810160405280939291908181526020018383808284376000920191909152509295505050903560ff16915061135a9050565b60408051918252519081900360200190f35b61029f6004803603602081101561039857600080fd5b50356001600160a01b03166113ed565b6103b0611456565b604080516001600160a01b039092168252519081900360200190f35b6103b0600480360360208110156103e257600080fd5b5035611465565b610370600480360360408110156103ff57600080fd5b506001600160a01b038135169060200135611468565b6103706004803603602081101561042b57600080fd5b50356001600160a01b0316611572565b6103706004803603606081101561045157600080fd5b810190602081018135600160201b81111561046b57600080fd5b82018360208201111561047d57600080fd5b803590602001918460018302840111600160201b8311171561049e57600080fd5b91908080601f0160208091040260200160405190810160405280939291908181526020018383808284376000920191909152509295505060ff83358116945060209093013590921691506115849050565b6105156004803603602081101561050557600080fd5b50356001600160a01b031661166c565b604080519115158252519081900360200190f35b61029f6004803603602081101561053f57600080fd5b810190602081018135600160201b81111561055957600080fd5b82018360208201111561056b57600080fd5b803590602001918460208302840111600160201b8311171561058c57600080fd5b919080806020026020016040519081016040528093929190818152602001838360200280828437600092019190915250929550611689945050505050565b6103b0611730565b61029f600480360360408110156105e857600080fd5b6001600160a01b038235169190810190604081016020820135600160201b81111561061257600080fd5b82018360208201111561062457600080fd5b803590602001918460018302840111600160201b8311171561064557600080fd5b91908080601f01602080910402602001604051908101604052809392919081815260200183838082843760009201919091525092955061173f945050505050565b61072f6004803603606081101561069c57600080fd5b810190602081018135600160201b8111156106b657600080fd5b8201836020820111156106c857600080fd5b803590602001918460018302840111600160201b831117156106e957600080fd5b91908080601f016020809104026020016040519081016040528093929190818152602001838380828437600092019190915250929550508235935050506020013561186a565b604080516001600160e01b03199092168252519081900360200190f35b6107726004803603602081101561076257600080fd5b50356001600160a01b03166118eb565b6040805192835260208301919091528051918290030190f35b61029f600480360360408110156107a157600080fd5b506001600160a01b038135169060200135611975565b61029f600480360360208110156107cd57600080fd5b810190602081018135600160201b8111156107e757600080fd5b8201836020820111156107f957600080fd5b803590602001918460208302840111600160201b8311171561081a57600080fd5b919080806020026020016040519081016040528093929190818152602001838360200280828437600092019190915250929550611bb0945050505050565b6105156004803603604081101561086e57600080fd5b6001600160a01b038235169190810190604081016020820135600160201b81111561089857600080fd5b8201836020820111156108aa57600080fd5b803590602001918460018302840111600160201b831117156108cb57600080fd5b91908080601f016020809104026020016040519081016040528093929190818152602001838380828437600092019190915250929550611c47945050505050565b610370612063565b61029f612069565b6105156004803603602081101561093257600080fd5b50356001600160a01b03166120c9565b6103706004803603604081101561095857600080fd5b810190602081018135600160201b81111561097257600080fd5b82018360208201111561098457600080fd5b803590602001918460018302840111600160201b831117156109a557600080fd5b91908080601f0160208091040260200160405190810160405280939291908181526020018383808284376000920191909152509295505050903560ff1691506120de9050565b6103706120fc565b61051560048036036020811015610a0957600080fd5b50356001600160a01b0316612102565b610370612185565b61029f60048036036020811015610a3757600080fd5b50356001600160a01b031661218b565b61037060048036036040811015610a5d57600080fd5b810190602081018135600160201b811115610a7757600080fd5b820183602082011115610a8957600080fd5b803590602001918460018302840111600160201b83111715610aaa57600080fd5b91908080601f0160208091040260200160405190810160405280939291908181526020018383808284376000920191909152509295505050903560ff1691506122499050565b610af861227a565b60408051602080825283518183015283519192839290830191858101910280838360005b83811015610b34578181015183820152602001610b1c565b505050509050019250505060405180910390f35b6103706122dc565b61029f60048036036020811015610b6657600080fd5b50356001600160a01b03166122e2565b61029f612352565b61051560048036036020811015610b9457600080fd5b50356001600160a01b03166123d5565b61072f60048036036020811015610bba57600080fd5b810190602081018135600160201b811115610bd457600080fd5b820183602082011115610be657600080fd5b803590602001918460018302840111600160201b83111715610c0757600080fd5b91908080601f0160208091040260200160405190810160405280939291908181526020018383808284376000920191909152509295506123f2945050505050565b6103b0612401565b61029f60048036036080811015610c6657600080fd5b6001600160a01b038235811692602081013590911691810190606081016040820135600160201b811115610c9957600080fd5b820183602082011115610cab57600080fd5b803590602001918460018302840111600160201b83111715610ccc57600080fd5b91908080601f0160208091040260200160405190810160405280939291908181526020018383808284376000920191909152509295949360208101935035915050600160201b811115610d1e57600080fd5b820183602082011115610d3057600080fd5b803590602001918460208302840111600160201b83111715610d5157600080fd5b919080806020026020016040519081016040528093929190818152602001838360200280828437600092019190915250929550612410945050505050565b6103b060048036036020811015610da557600080fd5b5035612512565b61029f60048036036020811015610dc257600080fd5b50356001600160a01b0316612539565b61037060048036036020811015610de857600080fd5b50356001600160a01b03166125a3565b61037060048036036020811015610e0e57600080fd5b50356001600160a01b03166125f2565b61037060048036036060811015610e3457600080fd5b810190602081018135600160201b811115610e4e57600080fd5b820183602082011115610e6057600080fd5b803590602001918460018302840111600160201b83111715610e8157600080fd5b91908080601f0160208091040260200160405190810160405280939291908181526020018383808284376000920191909152509295505082359350505060200135612606565b610af8612682565b6107726126e2565b610edf6126ec565b60405180806020018060200180602001848103845287818151815260200191508051906020019060200280838360005b83811015610f27578181015183820152602001610f0f565b50505050905001848103835286818151815260200191508051906020019060200280838360005b83811015610f66578181015183820152602001610f4e565b50505050905001848103825285818151815260200191508051906020019060200280838360005b83811015610fa5578181015183820152602001610f8d565b50505050905001965050505050505060405180910390f35b610fc56128de565b6040805160208082528351818301528351919283929083019185019080838360005b83811015610fff578181015183820152602001610fe7565b50505050905090810190601f16801561102c5780820380516001836020036101000a031916815260200191505b509250505060405180910390f35b603860009054906101000a90046001600160a01b03166001600160a01b0316638da5cb5b6040518163ffffffff1660e01b815260040160206040518083038186803b15801561108857600080fd5b505afa15801561109c573d6000803e3d6000fd5b505050506040513d60208110156110b257600080fd5b50516001600160a01b03163314806110e257506110cd611730565b6001600160a01b0316336001600160a01b0316145b8061110557506110f0611456565b6001600160a01b0316336001600160a01b0316145b611156576040805162461bcd60e51b815260206004820152601b60248201527f6f6e6c79206d616e616765722c20747261646572206f722044414f0000000000604482015290519081900360640190fd5b61115f8161166c565b6111a6576040805162461bcd60e51b8152602060048201526013602482015272185cdcd95d081b9bdd081cdd5c1c1bdc9d1959606a1b604482015290519081900360640190fd5b6001600160a01b0381166000908152603b602052604090205460ff1615611214576040805162461bcd60e51b815260206004820152601f60248201527f63616e6e6f742072656d6f76652070657273697374656e742061737365747300604482015290519081900360640190fd5b604080516370a0823160e01b815230600482015290516001600160a01b038316916370a08231916024808301926020929190829003018186803b15801561125a57600080fd5b505afa15801561126e573d6000803e3d6000fd5b505050506040513d602081101561128457600080fd5b5051156112d8576040805162461bcd60e51b815260206004820152601d60248201527f63616e6e6f742072656d6f7665206e6f6e2d656d707479206173736574000000604482015290519081900360640190fd5b6112e18161296b565b50565b6033546001600160a01b031633148061130757506037546001600160a01b031633145b611351576040805162461bcd60e51b815260206004820152601660248201527537b7363c9036b0b730b3b2b91037b9103a3930b232b960511b604482015290519081900360640190fd5b6112e181612ab9565b600080611372848460200260040160ff166020612606565b9050600061138585600484016020612606565b9050806113ce576040805162461bcd60e51b8152602060048201526012602482015271696e707574206973206e6f7420617272617960701b604482015290519081900360640190fd5b6113e2856020808402850160040190612606565b925050505b92915050565b6033546001600160a01b0316331461143b576040805162461bcd60e51b815260206004820152600c60248201526b37b7363c9036b0b730b3b2b960a11b604482015290519081900360640190fd5b611444816123d5565b61144d576112e1565b6112e181612cdd565b6037546001600160a01b031690565b90565b6038546040805163b3596f0760e01b81526001600160a01b03858116600483015291516000938493169163b3596f07916024808301926020929190829003018186803b1580156114b757600080fd5b505afa1580156114cb573d6000803e3d6000fd5b505050506040513d60208110156114e157600080fd5b50516040805163313ce56760e01b815290519192506000916001600160a01b0387169163313ce567916004808301926020929190829003018186803b15801561152957600080fd5b505afa15801561153d573d6000803e3d6000fd5b505050506040513d602081101561155357600080fd5b505160ff1690506113e2600a82900a61156c8487612dd6565b90612e2f565b603a6020526000908152604090205481565b60008061159c858560200260040160ff166020612606565b905060006115af86600484016020612606565b9050806115f8576040805162461bcd60e51b8152602060048201526012602482015271696e707574206973206e6f7420617272617960701b604482015290519081900360640190fd5b60ff84168111611648576040805162461bcd60e51b815260206004820152601660248201527534b73b30b634b21030b93930bc903837b9b4ba34b7b760511b604482015290519081900360640190fd5b611662866020600160ff8816018102850160040190612606565b9695505050505050565b6001600160a01b03166000908152603a6020526040902054151590565b6033546001600160a01b031633146116d7576040805162461bcd60e51b815260206004820152600c60248201526b37b7363c9036b0b730b3b2b960a11b604482015290519081900360640190fd5b60005b815181101561172c576116ff8282815181106116f257fe5b60200260200101516123d5565b61170857611724565b61172482828151811061171757fe5b6020026020010151612cdd565b6001016116da565b5050565b6033546001600160a01b031690565b6033546001600160a01b0316331461178d576040805162461bcd60e51b815260206004820152600c60248201526b37b7363c9036b0b730b3b2b960a11b604482015290519081900360640190fd5b603380546001600160a01b0319166001600160a01b03841617905580516117bb9060349060208401906131f3565b507f6ed15082ad038474841528b5badca105106d4463e44b5d434130dfb299aa3669828260405180836001600160a01b0316815260200180602001828103825283818151815260200191508051906020019080838360005b8381101561182b578181015183820152602001611813565b50505050905090810190601f1680156118585780820380516001836020036101000a031916815260200191505b50935050505060405180910390a15050565b6000818301845110156118c4576040805162461bcd60e51b815260206004820152601b60248201527f52656164696e67206279746573206f7574206f6620626f756e64730000000000604482015290519081900360640190fd5b8260200184015190508160040380156118e3576008810260020a820491505b509392505050565b60385460408051635bd2a29360e11b81526001600160a01b0384811660048301528251600094859492169263b7a54526926024808301939192829003018186803b15801561193857600080fd5b505afa15801561194c573d6000803e3d6000fd5b505050506040513d604081101561196257600080fd5b5080516020909101519092509050915091565b6033546001600160a01b031633146119c3576040805162461bcd60e51b815260206004820152600c60248201526b37b7363c9036b0b730b3b2b960a11b604482015290519081900360640190fd5b60385460408051635c9bfc2b60e01b815290516000926001600160a01b031691635c9bfc2b916004808301926020929190829003018186803b158015611a0857600080fd5b505afa158015611a1c573d6000803e3d6000fd5b505050506040513d6020811015611a3257600080fd5b50519050600080611a42856118eb565b909250905080841115611a8f576040805162461bcd60e51b815260206004820152601060248201526f34b73b30b634b210333930b1ba34b7b760811b604482015290519081900360640190fd5b611a998284612e71565b841115611aed576040805162461bcd60e51b815260206004820152601960248201527f657863656564656420616c6c6f77656420696e63726561736500000000000000604482015290519081900360640190fd5b6038546040805163ebee461d60e01b815290516000926001600160a01b03169163ebee461d916004808301926020929190829003018186803b158015611b3257600080fd5b505afa158015611b46573d6000803e3d6000fd5b505050506040513d6020811015611b5c57600080fd5b5051603c869055428101603d81905560408051888152602081019290925280519293507f4db9119741646c419f1ceccdf112b5b9a9b4516355e742e1fa9c479f4dec98da92918290030190a1505050505050565b6033546001600160a01b03163314611bfe576040805162461bcd60e51b815260206004820152600c60248201526b37b7363c9036b0b730b3b2b960a11b604482015290519081900360640190fd5b60005b815181101561172c57611c198282815181106116f257fe5b15611c2357611c3f565b611c3f828281518110611c3257fe5b6020026020010151612ecb565b600101611c01565b6033546000906001600160a01b0316331480611c6d57506037546001600160a01b031633145b611cb7576040805162461bcd60e51b815260206004820152601660248201527537b7363c9036b0b730b3b2b91037b9103a3930b232b960511b604482015290519081900360640190fd5b6001600160a01b038316611d12576040805162461bcd60e51b815260206004820152601c60248201527f6e6f6e2d7a65726f206164647265737320697320726571756972656400000000604482015290519081900360640190fd5b60385460408051631c09fa9b60e21b81526001600160a01b03868116600483015291516000939290921691637027ea6c91602480820192602092909190829003018186803b158015611d6357600080fd5b505afa158015611d77573d6000803e3d6000fd5b505050506040513d6020811015611d8d57600080fd5b505190506001600160a01b038116611de2576040805162461bcd60e51b815260206004820152601360248201527234b73b30b634b2103232b9ba34b730ba34b7b760691b604482015290519081900360640190fd5b6040805163e23ff43760e01b81523060048201818152602483019384528651604484015286516001600160a01b0386169463e23ff43794899392606490910190602085019080838360005b83811015611e45578181015183820152602001611e2d565b50505050905090810190601f168015611e725780820380516001836020036101000a031916815260200191505b509350505050602060405180830381600087803b158015611e9257600080fd5b505af1158015611ea6573d6000803e3d6000fd5b505050506040513d6020811015611ebc57600080fd5b5051611f05576040805162461bcd60e51b815260206004820152601360248201527234b73b30b634b2103a3930b739b0b1ba34b7b760691b604482015290519081900360640190fd5b6000846001600160a01b0316846040518082805190602001908083835b60208310611f415780518252601f199092019160209182019101611f22565b6001836020036101000a0380198251168184511680821785525050505050509050019150506000604051808303816000865af19150503d8060008114611fa3576040519150601f19603f3d011682016040523d82523d6000602084013e611fa8565b606091505b5090915050600181151514612004576040805162461bcd60e51b815260206004820152601a60248201527f6661696c656420746f2065786563757465207468652063616c6c000000000000604482015290519081900360640190fd5b7f508f3afa87f72dce865a2321107666b28ac822c23a8c0555fbeb3424cf3de5633061202e611730565b604080516001600160a01b039384168152919092166020820152428183015290519081900360600190a1506001949350505050565b603d5481565b6033546001600160a01b031633146120b7576040805162461bcd60e51b815260206004820152600c60248201526b37b7363c9036b0b730b3b2b960a11b604482015290519081900360640190fd5b603780546001600160a01b0319169055565b603b6020526000908152604090205460ff1681565b60006120f5838360200260040160ff166020612606565b9392505050565b603c5481565b6038546040805163cc435bf360e01b81526001600160a01b0384811660048301529151600093929092169163cc435bf391602480820192602092909190829003018186803b15801561215357600080fd5b505afa158015612167573d6000803e3d6000fd5b505050506040513d602081101561217d57600080fd5b505192915050565b60395490565b6033546001600160a01b031633146121d9576040805162461bcd60e51b815260206004820152600c60248201526b37b7363c9036b0b730b3b2b960a11b604482015290519081900360640190fd5b603d54421015612230576040805162461bcd60e51b815260206004820152601960248201527f66656520696e6372656173652064656c61792061637469766500000000000000604482015290519081900360640190fd5b61223c81603c54612f27565b506000603c819055603d55565b600080612261848460200260040160ff166020612606565b905061227284600483016020612606565b949350505050565b606060358054806020026020016040519081016040528092919081815260200182805480156122d257602002820191906000526020600020905b81546001600160a01b031681526001909101906020018083116122b4575b5050505050905090565b60355490565b6033546001600160a01b03163314612330576040805162461bcd60e51b815260206004820152600c60248201526b37b7363c9036b0b730b3b2b960a11b604482015290519081900360640190fd5b603780546001600160a01b0319166001600160a01b0392909216919091179055565b6033546001600160a01b031633146123a0576040805162461bcd60e51b815260206004820152600c60248201526b37b7363c9036b0b730b3b2b960a11b604482015290519081900360640190fd5b6000603c819055603d8190556040517fc6f04bf43cbdf1ba5d51b4afa160bb3c7e13858b1409aa32868b239bb2f8d8499190a1565b6001600160a01b0316600090815260366020526040902054151590565b60006113e7826000600461186a565b6038546001600160a01b031681565b600054610100900460ff1680612429575061242961307c565b80612437575060005460ff16155b6124725760405162461bcd60e51b815260040180806020018281038252602e8152602001806132a8602e913960400191505060405180910390fd5b600054610100900460ff1615801561249d576000805460ff1961ff0019909116610100171660011790555b6124a78484613082565b603880546001600160a01b0319166001600160a01b03871617905560005b82518160ff1610156124f8576124f0838260ff16815181106124e357fe5b6020026020010151612ab9565b6001016124c5565b50801561250b576000805461ff00191690555b5050505050565b6039818154811061251f57fe5b6000918252602090912001546001600160a01b0316905081565b6033546001600160a01b03163314612587576040805162461bcd60e51b815260206004820152600c60248201526b37b7363c9036b0b730b3b2b960a11b604482015290519081900360640190fd5b612590816123d5565b1561259a576112e1565b6112e181612ecb565b6000816001600160a01b03166370a08231306040518263ffffffff1660e01b815260040180826001600160a01b0316815260200191505060206040518083038186803b15801561215357600080fd5b60006113e782612601846125a3565b611468565b600081830184511015612660576040805162461bcd60e51b815260206004820152601b60248201527f52656164696e67206279746573206f7574206f6620626f756e64730000000000604482015290519081900360640190fd5b8260200184015190508160200380156118e35760080260020a90049392505050565b606060398054806020026020016040519081016040528092919081815260200182805480156122d2576020028201919060005260206000209081546001600160a01b031681526001909101906020018083116122b4575050505050905090565b603c54603d549091565b60395460609081908190818167ffffffffffffffff8111801561270e57600080fd5b50604051908082528060200260200182016040528015612738578160200160208202803683370190505b50905060608267ffffffffffffffff8111801561275457600080fd5b5060405190808252806020026020018201604052801561277e578160200160208202803683370190505b50905060608367ffffffffffffffff8111801561279a57600080fd5b506040519080825280602002602001820160405280156127c4578160200160208202803683370190505b50905060005b848110156128d0576000603982815481106127e157fe5b6000918252602090912001546001600160a01b03169050612801816125a3565b84838151811061280d57fe5b6020026020010181815250508085838151811061282657fe5b6001600160a01b039283166020918202929092018101919091526038546040805163b3596f0760e01b815285851660048201529051919093169263b3596f07926024808301939192829003018186803b15801561288257600080fd5b505afa158015612896573d6000803e3d6000fd5b505050506040513d60208110156128ac57600080fd5b505183518490849081106128bc57fe5b6020908102919091010152506001016127ca565b509195509350915050909192565b60348054604080516020601f60026000196101006001881615020190951694909404938401819004810282018101909252828152606093909290918301828280156122d25780601f1061293f576101008083540402835291602001916122d2565b820191906000526020600020905b81548152906001019060200180831161294d57509395945050505050565b6039546001600160a01b0382166000908152603a60205260408120546129929060016130b5565b9050600060396129a38460016130b5565b815481106129ad57fe5b600091825260209091200154603980546001600160a01b0390921692508291849081106129d657fe5b600091825260209091200180546001600160a01b0319166001600160a01b0392909216919091179055612a0a826001612e71565b6001600160a01b038083166000908152603a6020526040808220939093559086168152908120556039805480612a3c57fe5b600082815260209020810160001990810180546001600160a01b03191690550190557f9b4f55639e5e283319baee5bc4e69a5625a8e3a1cc004af968f4fee72502202730612a88611730565b604080516001600160a01b03938416815291831660208301529187168183015290519081900360600190a150505050565b603860009054906101000a90046001600160a01b03166001600160a01b031663aa12ae4d6040518163ffffffff1660e01b815260040160206040518083038186803b158015612b0757600080fd5b505afa158015612b1b573d6000803e3d6000fd5b505050506040513d6020811015612b3157600080fd5b505160395410612b81576040805162461bcd60e51b81526020600482015260166024820152751b585e1a5b5d5b48185cdcd95d1cc81c995858da195960521b604482015290519081900360640190fd5b612b8a8161166c565b15612bdc576040805162461bcd60e51b815260206004820152601760248201527f617373657420616c726561647920737570706f72746564000000000000000000604482015290519081900360640190fd5b612be581612102565b1515600114612c2b576040805162461bcd60e51b815260206004820152600d60248201526c1a5b9d985b1a5908185cdcd95d609a1b604482015290519081900360640190fd5b603980546001810182557fdc16fef70f8d5ddbc01ee3d903d1e69c18a3c7be080eb86a81e0578814ee58d30180546001600160a01b0319166001600160a01b03841690811790915590546000918252603a6020526040909120557f0a7426a0630aad7dbc4d5ca5b7d9aac1133d77d2db987caaf4b4186c85d6593f30612caf611730565b604080516001600160a01b03938416815291831660208301529184168183015290519081900360600190a150565b6035546001600160a01b038216600090815260366020526040812054612d049060016130b5565b905060006035612d158460016130b5565b81548110612d1f57fe5b600091825260209091200154603580546001600160a01b039092169250829184908110612d4857fe5b600091825260209091200180546001600160a01b0319166001600160a01b0392909216919091179055612d7c826001612e71565b6001600160a01b03808316600090815260366020526040808220939093559086168152908120556035805480612dae57fe5b600082815260209020810160001990810180546001600160a01b031916905501905550505050565b600082612de5575060006113e7565b82820282848281612df257fe5b04146120f55760405162461bcd60e51b81526004018080602001828103825260218152602001806132876021913960400191505060405180910390fd5b60006120f583836040518060400160405280601a81526020017f536166654d6174683a206469766973696f6e206279207a65726f0000000000008152506130f7565b6000828201838110156120f5576040805162461bcd60e51b815260206004820152601b60248201527f536166654d6174683a206164646974696f6e206f766572666c6f770000000000604482015290519081900360640190fd5b603580546001810182557fcfa4bec1d3298408bb5afcfcd9c430549c5b31f8aa5c5848151c0a55f473c34d0180546001600160a01b039093166001600160a01b0319909316831790555460009182526036602052604090912055565b6038546040805163011adcb160e21b81526001600160a01b038581166004830152602482018590529151919092169163046b72c491604480830192600092919082900301818387803b158015612f7c57600080fd5b505af1158015612f90573d6000803e3d6000fd5b505060385460408051635bd2a29360e11b81526001600160a01b03878116600483015282516000965086955093169263b7a5452692602480840193919291829003018186803b158015612fe257600080fd5b505afa158015612ff6573d6000803e3d6000fd5b505050506040513d604081101561300c57600080fd5b50805160209091015190925090507f1780c04ddc6f0b32d866c7a3d7583f53515ef49ed2126af868f804f49160126630613044611730565b604080516001600160a01b0393841681529190921660208201528082018590526060810184905290519081900360800190a150505050565b303b1590565b603380546001600160a01b0319166001600160a01b03841617905580516130b09060349060208401906131f3565b505050565b60006120f583836040518060400160405280601e81526020017f536166654d6174683a207375627472616374696f6e206f766572666c6f770000815250613199565b600081836131835760405162461bcd60e51b81526004018080602001828103825283818151815260200191508051906020019080838360005b83811015613148578181015183820152602001613130565b50505050905090810190601f1680156131755780820380516001836020036101000a031916815260200191505b509250505060405180910390fd5b50600083858161318f57fe5b0495945050505050565b600081848411156131eb5760405162461bcd60e51b8152602060048201818152835160248401528351909283926044909101919085019080838360008315613148578181015183820152602001613130565b505050900390565b828054600181600116156101000203166002900490600052602060002090601f016020900481019282601f1061323457805160ff1916838001178555613261565b82800160010185558215613261579182015b82811115613261578251825591602001919060010190613246565b5061326d929150613271565b5090565b5b8082111561326d576000815560010161327256fe536166654d6174683a206d756c7469706c69636174696f6e206f766572666c6f77436f6e747261637420696e7374616e63652068617320616c7265616479206265656e20696e697469616c697a6564a2646970667358221220429285a1126155aaa05aa041e41f0b38b2cc4d9a6ec075942dbe77ed1dd77fb264736f6c634300060c0033",
  "linkReferences": {},
  "deployedLinkReferences": {}
}