{
  "_format": "hh-sol-artifact-1",
  "contractName": "PoolManagerLogic-ovm",
  "sourceName": "contracts/PoolManagerLogic.sol",
  "abi": [
    {
      "anonymous": false,
      "inputs": [
        {
          "indexed": false,
          "internalType": "address",
          "name": "fundAddress",
          "type": "address"
        },
        {
          "indexed": false,
          "internalType": "address",
          "name": "manager",
          "type": "address"
        },
        {
          "indexed": false,
          "internalType": "address",
          "name": "asset",
          "type": "address"
        }
      ],
      "name": "AssetAdded",
      "type": "event"
    },
    {
      "anonymous": false,
      "inputs": [
        {
          "indexed": false,
          "internalType": "address",
          "name": "fundAddress",
          "type": "address"
        },
        {
          "indexed": false,
          "internalType": "address",
          "name": "manager",
          "type": "address"
        },
        {
          "indexed": false,
          "internalType": "address",
          "name": "asset",
          "type": "address"
        }
      ],
      "name": "AssetRemoved",
      "type": "event"
    },
    {
      "anonymous": false,
      "inputs": [
        {
          "indexed": false,
          "internalType": "uint256",
          "name": "newNumerator",
          "type": "uint256"
        },
        {
          "indexed": false,
          "internalType": "uint256",
          "name": "announcedFeeActivationTime",
          "type": "uint256"
        }
      ],
      "name": "ManagerFeeIncreaseAnnounced",
      "type": "event"
    },
    {
      "anonymous": false,
      "inputs": [],
      "name": "ManagerFeeIncreaseRenounced",
      "type": "event"
    },
    {
      "anonymous": false,
      "inputs": [
        {
          "indexed": false,
          "internalType": "address",
          "name": "fundAddress",
          "type": "address"
        },
        {
          "indexed": false,
          "internalType": "address",
          "name": "manager",
          "type": "address"
        },
        {
          "indexed": false,
          "internalType": "uint256",
          "name": "numerator",
          "type": "uint256"
        },
        {
          "indexed": false,
          "internalType": "uint256",
          "name": "denominator",
          "type": "uint256"
        }
      ],
      "name": "ManagerFeeSet",
      "type": "event"
    },
    {
      "anonymous": false,
      "inputs": [
        {
          "indexed": false,
          "internalType": "address",
          "name": "newManager",
          "type": "address"
        },
        {
          "indexed": false,
          "internalType": "string",
          "name": "newManagerName",
          "type": "string"
        }
      ],
      "name": "ManagerUpdated",
      "type": "event"
    },
    {
      "anonymous": false,
      "inputs": [
        {
          "indexed": false,
          "internalType": "address",
          "name": "poolLogic",
          "type": "address"
        },
        {
          "indexed": false,
          "internalType": "address",
          "name": "from",
          "type": "address"
        }
      ],
      "name": "PoolLogicSet",
      "type": "event"
    },
    {
      "anonymous": false,
      "inputs": [
        {
          "indexed": false,
          "internalType": "address",
          "name": "fundAddress",
          "type": "address"
        },
        {
          "indexed": false,
          "internalType": "address",
          "name": "manager",
          "type": "address"
        },
        {
          "indexed": false,
          "internalType": "uint256",
          "name": "time",
          "type": "uint256"
        }
      ],
      "name": "TransactionExecuted",
      "type": "event"
    },
    {
      "inputs": [
        {
          "internalType": "address",
          "name": "member",
          "type": "address"
        }
      ],
      "name": "addMember",
      "outputs": [],
      "stateMutability": "nonpayable",
      "type": "function"
    },
    {
      "inputs": [
        {
          "internalType": "address[]",
          "name": "members",
          "type": "address[]"
        }
      ],
      "name": "addMembers",
      "outputs": [],
      "stateMutability": "nonpayable",
      "type": "function"
    },
    {
      "inputs": [
        {
          "internalType": "address",
          "name": "asset",
          "type": "address"
        }
      ],
      "name": "addToSupportedAssets",
      "outputs": [],
      "stateMutability": "nonpayable",
      "type": "function"
    },
    {
      "inputs": [
        {
          "internalType": "uint256",
          "name": "numerator",
          "type": "uint256"
        }
      ],
      "name": "announceManagerFeeIncrease",
      "outputs": [],
      "stateMutability": "nonpayable",
      "type": "function"
    },
    {
      "inputs": [],
      "name": "announcedFeeIncreaseNumerator",
      "outputs": [
        {
          "internalType": "uint256",
          "name": "",
          "type": "uint256"
        }
      ],
      "stateMutability": "view",
      "type": "function"
    },
    {
      "inputs": [],
      "name": "announcedFeeIncreaseTimestamp",
      "outputs": [
        {
          "internalType": "uint256",
          "name": "",
          "type": "uint256"
        }
      ],
      "stateMutability": "view",
      "type": "function"
    },
    {
      "inputs": [
        {
          "internalType": "address",
          "name": "asset",
          "type": "address"
        }
      ],
      "name": "assetBalance",
      "outputs": [
        {
          "internalType": "uint256",
          "name": "",
          "type": "uint256"
        }
      ],
      "stateMutability": "view",
      "type": "function"
    },
    {
      "inputs": [
        {
          "internalType": "address",
          "name": "",
          "type": "address"
        }
      ],
      "name": "assetPosition",
      "outputs": [
        {
          "internalType": "uint256",
          "name": "",
          "type": "uint256"
        }
      ],
      "stateMutability": "view",
      "type": "function"
    },
    {
      "inputs": [
        {
          "internalType": "address",
          "name": "asset",
          "type": "address"
        },
        {
          "internalType": "uint256",
          "name": "amount",
          "type": "uint256"
        }
      ],
      "name": "assetValue",
      "outputs": [
        {
          "internalType": "uint256",
          "name": "",
          "type": "uint256"
        }
      ],
      "stateMutability": "view",
      "type": "function"
    },
    {
      "inputs": [
        {
          "internalType": "address",
          "name": "asset",
          "type": "address"
        }
      ],
      "name": "assetValue",
      "outputs": [
        {
          "internalType": "uint256",
          "name": "",
          "type": "uint256"
        }
      ],
      "stateMutability": "view",
      "type": "function"
    },
    {
      "inputs": [
        {
          "internalType": "address",
          "name": "newManager",
          "type": "address"
        },
        {
          "internalType": "string",
          "name": "newManagerName",
          "type": "string"
        }
      ],
      "name": "changeManager",
      "outputs": [],
      "stateMutability": "nonpayable",
      "type": "function"
    },
    {
      "inputs": [],
      "name": "commitManagerFeeIncrease",
      "outputs": [],
      "stateMutability": "nonpayable",
      "type": "function"
    },
    {
      "inputs": [
        {
          "internalType": "bytes32",
          "name": "data",
          "type": "bytes32"
        }
      ],
      "name": "convert32toAddress",
      "outputs": [
        {
          "internalType": "address",
          "name": "o",
          "type": "address"
        }
      ],
      "stateMutability": "pure",
      "type": "function"
    },
    {
      "inputs": [
        {
          "internalType": "address",
          "name": "to",
          "type": "address"
        },
        {
          "internalType": "bytes",
          "name": "data",
          "type": "bytes"
        }
      ],
      "name": "execTransaction",
      "outputs": [
        {
          "internalType": "bool",
          "name": "",
          "type": "bool"
        }
      ],
      "stateMutability": "nonpayable",
      "type": "function"
    },
    {
      "inputs": [],
      "name": "factory",
      "outputs": [
        {
          "internalType": "address",
          "name": "",
          "type": "address"
        }
      ],
      "stateMutability": "view",
      "type": "function"
    },
    {
      "inputs": [
        {
          "internalType": "bytes",
          "name": "data",
          "type": "bytes"
        },
        {
          "internalType": "uint8",
          "name": "inputNum",
          "type": "uint8"
        },
        {
          "internalType": "uint8",
          "name": "arrayIndex",
          "type": "uint8"
        }
      ],
      "name": "getArrayIndex",
      "outputs": [
        {
          "internalType": "bytes32",
          "name": "",
          "type": "bytes32"
        }
      ],
      "stateMutability": "pure",
      "type": "function"
    },
    {
      "inputs": [
        {
          "internalType": "bytes",
          "name": "data",
          "type": "bytes"
        },
        {
          "internalType": "uint8",
          "name": "inputNum",
          "type": "uint8"
        }
      ],
      "name": "getArrayLast",
      "outputs": [
        {
          "internalType": "bytes32",
          "name": "",
          "type": "bytes32"
        }
      ],
      "stateMutability": "pure",
      "type": "function"
    },
    {
      "inputs": [
        {
          "internalType": "bytes",
          "name": "data",
          "type": "bytes"
        },
        {
          "internalType": "uint8",
          "name": "inputNum",
          "type": "uint8"
        }
      ],
      "name": "getArrayLength",
      "outputs": [
        {
          "internalType": "uint256",
          "name": "",
          "type": "uint256"
        }
      ],
      "stateMutability": "pure",
      "type": "function"
    },
    {
      "inputs": [],
      "name": "getFundComposition",
      "outputs": [
        {
          "internalType": "address[]",
          "name": "",
          "type": "address[]"
        },
        {
          "internalType": "uint256[]",
          "name": "",
          "type": "uint256[]"
        },
        {
          "internalType": "uint256[]",
          "name": "",
          "type": "uint256[]"
        }
      ],
      "stateMutability": "view",
      "type": "function"
    },
    {
      "inputs": [
        {
          "internalType": "bytes",
          "name": "data",
          "type": "bytes"
        },
        {
          "internalType": "uint8",
          "name": "inputNum",
          "type": "uint8"
        }
      ],
      "name": "getInput",
      "outputs": [
        {
          "internalType": "bytes32",
          "name": "",
          "type": "bytes32"
        }
      ],
      "stateMutability": "pure",
      "type": "function"
    },
    {
      "inputs": [],
      "name": "getManagerFee",
      "outputs": [
        {
          "internalType": "uint256",
          "name": "",
          "type": "uint256"
        },
        {
          "internalType": "uint256",
          "name": "",
          "type": "uint256"
        }
      ],
      "stateMutability": "view",
      "type": "function"
    },
    {
      "inputs": [],
      "name": "getManagerFeeIncreaseInfo",
      "outputs": [
        {
          "internalType": "uint256",
          "name": "",
          "type": "uint256"
        },
        {
          "internalType": "uint256",
          "name": "",
          "type": "uint256"
        }
      ],
      "stateMutability": "view",
      "type": "function"
    },
    {
      "inputs": [],
      "name": "getMembers",
      "outputs": [
        {
          "internalType": "address[]",
          "name": "",
          "type": "address[]"
        }
      ],
      "stateMutability": "view",
      "type": "function"
    },
    {
      "inputs": [
        {
          "internalType": "bytes",
          "name": "data",
          "type": "bytes"
        }
      ],
      "name": "getMethod",
      "outputs": [
        {
          "internalType": "bytes4",
          "name": "",
          "type": "bytes4"
        }
      ],
      "stateMutability": "pure",
      "type": "function"
    },
    {
      "inputs": [],
      "name": "getSupportedAssets",
      "outputs": [
        {
          "internalType": "address[]",
          "name": "",
          "type": "address[]"
        }
      ],
      "stateMutability": "view",
      "type": "function"
    },
    {
      "inputs": [
        {
          "internalType": "address",
          "name": "_factory",
          "type": "address"
        },
        {
          "internalType": "address",
          "name": "_manager",
          "type": "address"
        },
        {
          "internalType": "string",
          "name": "_managerName",
          "type": "string"
        },
        {
          "internalType": "address[]",
          "name": "_supportedAssets",
          "type": "address[]"
        }
      ],
      "name": "initialize",
      "outputs": [],
      "stateMutability": "nonpayable",
      "type": "function"
    },
    {
      "inputs": [
        {
          "internalType": "address",
          "name": "asset",
          "type": "address"
        }
      ],
      "name": "isAssetSupported",
      "outputs": [
        {
          "internalType": "bool",
          "name": "",
          "type": "bool"
        }
      ],
      "stateMutability": "view",
      "type": "function"
    },
    {
      "inputs": [
        {
          "internalType": "address",
          "name": "member",
          "type": "address"
        }
      ],
      "name": "isMemberAllowed",
      "outputs": [
        {
          "internalType": "bool",
          "name": "",
          "type": "bool"
        }
      ],
      "stateMutability": "view",
      "type": "function"
    },
    {
      "inputs": [],
      "name": "manager",
      "outputs": [
        {
          "internalType": "address",
          "name": "",
          "type": "address"
        }
      ],
      "stateMutability": "view",
      "type": "function"
    },
    {
      "inputs": [],
      "name": "managerName",
      "outputs": [
        {
          "internalType": "string",
          "name": "",
          "type": "string"
        }
      ],
      "stateMutability": "view",
      "type": "function"
    },
    {
      "inputs": [],
      "name": "numberOfMembers",
      "outputs": [
        {
          "internalType": "uint256",
          "name": "",
          "type": "uint256"
        }
      ],
      "stateMutability": "view",
      "type": "function"
    },
    {
      "inputs": [],
      "name": "numberOfSupportedAssets",
      "outputs": [
        {
          "internalType": "uint256",
          "name": "",
          "type": "uint256"
        }
      ],
      "stateMutability": "view",
      "type": "function"
    },
    {
      "inputs": [
        {
          "internalType": "address",
          "name": "",
          "type": "address"
        }
      ],
      "name": "persistentAsset",
      "outputs": [
        {
          "internalType": "bool",
          "name": "",
          "type": "bool"
        }
      ],
      "stateMutability": "view",
      "type": "function"
    },
    {
      "inputs": [],
      "name": "poolLogic",
      "outputs": [
        {
          "internalType": "address",
          "name": "",
          "type": "address"
        }
      ],
      "stateMutability": "view",
      "type": "function"
    },
    {
      "inputs": [
        {
          "internalType": "bytes",
          "name": "data",
          "type": "bytes"
        },
        {
          "internalType": "uint256",
          "name": "offset",
          "type": "uint256"
        },
        {
          "internalType": "uint256",
          "name": "length",
          "type": "uint256"
        }
      ],
      "name": "read32",
      "outputs": [
        {
          "internalType": "bytes32",
          "name": "o",
          "type": "bytes32"
        }
      ],
      "stateMutability": "pure",
      "type": "function"
    },
    {
      "inputs": [
        {
          "internalType": "bytes",
          "name": "data",
          "type": "bytes"
        },
        {
          "internalType": "uint256",
          "name": "offset",
          "type": "uint256"
        },
        {
          "internalType": "uint256",
          "name": "length",
          "type": "uint256"
        }
      ],
      "name": "read4left",
      "outputs": [
        {
          "internalType": "bytes4",
          "name": "o",
          "type": "bytes4"
        }
      ],
      "stateMutability": "pure",
      "type": "function"
    },
    {
      "inputs": [
        {
          "internalType": "address",
          "name": "asset",
          "type": "address"
        }
      ],
      "name": "removeFromSupportedAssets",
      "outputs": [],
      "stateMutability": "nonpayable",
      "type": "function"
    },
    {
      "inputs": [
        {
          "internalType": "address",
          "name": "member",
          "type": "address"
        }
      ],
      "name": "removeMember",
      "outputs": [],
      "stateMutability": "nonpayable",
      "type": "function"
    },
    {
      "inputs": [
        {
          "internalType": "address[]",
          "name": "members",
          "type": "address[]"
        }
      ],
      "name": "removeMembers",
      "outputs": [],
      "stateMutability": "nonpayable",
      "type": "function"
    },
    {
      "inputs": [],
      "name": "removeTrader",
      "outputs": [],
      "stateMutability": "nonpayable",
      "type": "function"
    },
    {
      "inputs": [],
      "name": "renounceManagerFeeIncrease",
      "outputs": [],
      "stateMutability": "nonpayable",
      "type": "function"
    },
    {
      "inputs": [
        {
          "internalType": "address",
          "name": "_poolLogic",
          "type": "address"
        }
      ],
      "name": "setPoolLogic",
      "outputs": [
        {
          "internalType": "bool",
          "name": "",
          "type": "bool"
        }
      ],
      "stateMutability": "nonpayable",
      "type": "function"
    },
    {
      "inputs": [
        {
          "internalType": "address",
          "name": "newTrader",
          "type": "address"
        }
      ],
      "name": "setTrader",
      "outputs": [],
      "stateMutability": "nonpayable",
      "type": "function"
    },
    {
      "inputs": [
        {
          "internalType": "uint256",
          "name": "",
          "type": "uint256"
        }
      ],
      "name": "supportedAssets",
      "outputs": [
        {
          "internalType": "address",
          "name": "",
          "type": "address"
        }
      ],
      "stateMutability": "view",
      "type": "function"
    },
    {
      "inputs": [],
      "name": "trader",
      "outputs": [
        {
          "internalType": "address",
          "name": "",
          "type": "address"
        }
      ],
      "stateMutability": "view",
      "type": "function"
    },
    {
      "inputs": [
        {
          "internalType": "address",
          "name": "asset",
          "type": "address"
        }
      ],
      "name": "validateAsset",
      "outputs": [
        {
          "internalType": "bool",
          "name": "",
          "type": "bool"
        }
      ],
      "stateMutability": "view",
      "type": "function"
    }
  ],
  "bytecode": "0x60806040523480156200001c576000806200001962000023565b50505b5062000090565b632a2a7adb598160e01b8152600481016020815285602082015260005b868110156200005d57808601518282016040015260200162000040565b506020828760640184336000905af158600e01573d6000803e3d6000fd5b3d6001141558600a015760016000f35b505050565b61496980620000a06000396000f3fe60806040523480156100195760008061001661449a565b50505b50600436106102935760003560e01c806382f86acc11610165578063c3c6279f116100d7578063d8af8ed411610090578063d8af8ed414611033578063db896b5714611062578063e5406dbf1461112e578063ed5b165d14611136578063f09d14d71461113e578063fed4416a1461122457610293565b8063c3c6279f14610d63578063c45a015514610e2a578063c688aa6414610e32578063c68dbb3714610faf578063ca6d56dc14610fd5578063cd88e5581461100457610293565b8063998546e311610129578063998546e314610bce5780639eab525314610c9a578063a30e3fa914610cf5578063a6bc18f914610cfd578063b8bd81e614610d2c578063bbbf725b14610d3457610293565b806382f86acc14610a945780638e10153d14610b605780638f32343914610b8f5780639240d29914610b97578063936553c414610bc657610293565b8063464b4158116102095780636e890f3c116101c25780636e890f3c146108b15780636f4d469b146108b95780637ae7cfb51461097e5780637b4d0c6314610a555780637c8afd5114610a5d57806380dd4f6214610a6557610293565b8063464b4158146105bb57806346ee84b0146105fe578063481c6a75146106c357806352213663146106cb57806353f064c9146107a2578063568b5a2f146107c857610293565b8063198055381161025b57806319805538146104325780631eba30771461045257806329c07fba1461047857806339b81fd9146104ad5780633c570d7d146104b557806341dc16c3146104e457610293565b806306468587146102a1578063093b8825146102d257806309ff5c7d146103015780630b1ca49a146103df5780631758078b1461040e575b60008061029e61449a565b50505b6102d0600480360360208110156102c0576000806102bd61449a565b50505b50356001600160a01b03166112a3565b005b6102d0600480360360208110156102f1576000806102ee61449a565b50505b50356001600160a01b0316611572565b6103cd600480360360408110156103205760008061031d61449a565b50505b810190602081018135600160201b8111156103435760008061034061449a565b50505b82018360208201111561035e5760008061035b61449a565b50505b803590602001918460018302840111600160201b831117156103885760008061038561449a565b50505b91908080601f01602080910402602001604051908101604052818152929190602084018383808284376000920191909152509295505050903560ff1691506116449050565b60405190815260200160405180910390f35b6102d0600480360360208110156103fe576000806103fb61449a565b50505b50356001600160a01b03166116df565b61041661177a565b6040516001600160a01b03909116815260200160405180910390f35b61043a61179c565b60405191825260208201526040908101905180910390f35b610416600480360360208110156104715760008061046e61449a565b50505b503561188e565b6103cd600480360360408110156104975760008061049461449a565b50505b506001600160a01b038135169060200135611891565b610416611a1b565b6103cd600480360360208110156104d4576000806104d161449a565b50505b50356001600160a01b0316611a3a565b6103cd600480360360608110156105035760008061050061449a565b50505b810190602081018135600160201b8111156105265760008061052361449a565b50505b8201836020820111156105415760008061053e61449a565b50505b803590602001918460018302840111600160201b8311171561056b5760008061056861449a565b50505b91908080601f01602080910402602001604051908101604052818152929190602084018383808284376000920191909152509295505060ff8335811694506020909301359092169150611a559050565b6105ea600480360360208110156105da576000806105d761449a565b50505b50356001600160a01b0316611b4d565b604051901515815260200160405180910390f35b6102d06004803603602081101561061d5760008061061a61449a565b50505b810190602081018135600160201b8111156106405760008061063d61449a565b50505b82018360208201111561065b5760008061065861449a565b50505b803590602001918460208302840111600160201b831117156106855760008061068261449a565b50505b919080806020026020016040519081016040528093929190818152602001838360200280828437600092019190915250929550611b75945050505050565b610416611c4e565b6102d0600480360360408110156106ea576000806106e761449a565b50505b6001600160a01b038235169190810190604081016020820135600160201b81111561071d5760008061071a61449a565b50505b8201836020820111156107385760008061073561449a565b50505b803590602001918460018302840111600160201b831117156107625760008061075f61449a565b50505b91908080601f0160208091040260200160405190810160405281815292919060208401838380828437600092019190915250929550611c5b945050505050565b6102d0600480360360208110156107c1576000806107be61449a565b50505b5035611dd0565b610894600480360360608110156107e7576000806107e461449a565b50505b810190602081018135600160201b81111561080a5760008061080761449a565b50505b8201836020820111156108255760008061082261449a565b50505b803590602001918460018302840111600160201b8311171561084f5760008061084c61449a565b50505b91908080601f016020809104026020016040519081016040528181529291906020840183838082843760009201919091525092955050823593505050602001356120fe565b6040516001600160e01b0319909116815260200160405180910390f35b6102d0612187565b6102d0600480360360208110156108d8576000806108d561449a565b50505b810190602081018135600160201b8111156108fb576000806108f861449a565b50505b8201836020820111156109165760008061091361449a565b50505b803590602001918460208302840111600160201b831117156109405760008061093d61449a565b50505b9190808060200260200160405190810160405280939291908181526020018383602002808284376000920191909152509295506122aa945050505050565b6105ea6004803603604081101561099d5760008061099a61449a565b50505b6001600160a01b038235169190810190604081016020820135600160201b8111156109d0576000806109cd61449a565b50505b8201836020820111156109eb576000806109e861449a565b50505b803590602001918460018302840111600160201b83111715610a1557600080610a1261449a565b50505b91908080601f0160208091040260200160405190810160405281815292919060208401838380828437600092019190915250929550612373945050505050565b6103cd612924565b6102d061292e565b6105ea60048036036020811015610a8457600080610a8161449a565b50505b50356001600160a01b03166129df565b6103cd60048036036040811015610ab357600080610ab061449a565b50505b810190602081018135600160201b811115610ad657600080610ad361449a565b50505b820183602082011115610af157600080610aee61449a565b50505b803590602001918460018302840111600160201b83111715610b1b57600080610b1861449a565b50505b91908080601f01602080910402602001604051908101604052818152929190602084018383808284376000920191909152509295505050903560ff169150612a069050565b6105ea60048036036020811015610b7f57600080610b7c61449a565b50505b50356001600160a01b0316612a24565b6103cd612d5c565b6105ea60048036036020811015610bb657600080610bb361449a565b50505b50356001600160a01b0316612d66565b6103cd612e38565b6103cd60048036036040811015610bed57600080610bea61449a565b50505b810190602081018135600160201b811115610c1057600080610c0d61449a565b50505b820183602082011115610c2b57600080610c2861449a565b50505b803590602001918460018302840111600160201b83111715610c5557600080610c5261449a565b50505b91908080601f01602080910402602001604051908101604052818152929190602084018383808284376000920191909152509295505050903560ff169150612e4b9050565b610ca2612e7c565b60405160208082528190810183818151815260200191508051906020019060200280838360005b83811015610ce1578082015183820152602001610cc9565b505050509050019250505060405180910390f35b6103cd612f03565b6102d060048036036020811015610d1c57600080610d1961449a565b50505b50356001600160a01b0316612f10565b6102d0612fc6565b6105ea60048036036020811015610d5357600080610d5061449a565b50505b50356001600160a01b0316613095565b61089460048036036020811015610d8257600080610d7f61449a565b50505b810190602081018135600160201b811115610da557600080610da261449a565b50505b820183602082011115610dc057600080610dbd61449a565b50505b803590602001918460018302840111600160201b83111715610dea57600080610de761449a565b50505b91908080601f01602080910402602001604051908101604052818152929190602084018383808284376000920191909152509295506130b5945050505050565b6104166130c4565b6102d060048036036080811015610e5157600080610e4e61449a565b50505b6001600160a01b038235811692602081013590911691810190606081016040820135600160201b811115610e8d57600080610e8a61449a565b50505b820183602082011115610ea857600080610ea561449a565b50505b803590602001918460018302840111600160201b83111715610ed257600080610ecf61449a565b50505b91908080601f01602080910402602001604051908101604052818152929190602084018383808284376000920191909152509295949360208101935035915050600160201b811115610f2c57600080610f2961449a565b50505b820183602082011115610f4757600080610f4461449a565b50505b803590602001918460208302840111600160201b83111715610f7157600080610f6e61449a565b50505b9190808060200260200160405190810160405280939291908181526020018383602002808284376000920191909152509295506130d0945050505050565b61041660048036036020811015610fce57600080610fcb61449a565b50505b5035613271565b6102d060048036036020811015610ff457600080610ff161449a565b50505b50356001600160a01b031661329b565b6103cd600480360360208110156110235760008061102061449a565b50505b50356001600160a01b0316613337565b6103cd600480360360208110156110525760008061104f61449a565b50505b50356001600160a01b031661339d565b6103cd600480360360608110156110815760008061107e61449a565b50505b810190602081018135600160201b8111156110a4576000806110a161449a565b50505b8201836020820111156110bf576000806110bc61449a565b50505b803590602001918460018302840111600160201b831117156110e9576000806110e661449a565b50505b91908080601f016020809104026020016040519081016040528181529291906020840183838082843760009201919091525092955050823593505050602001356133b1565b610ca2613435565b61043a6134bb565b6111466134da565b60405180806020018060200180602001848103845287818151815260200191508051906020019060200280838360005b8381101561118e578082015183820152602001611176565b50505050905001848103835286818151815260200191508051906020019060200280838360005b838110156111cd5780820151838201526020016111b5565b50505050905001848103825285818151815260200191508051906020019060200280838360005b8381101561120c5780820151838201526020016111f4565b50505050905001965050505050505060405180910390f35b61122c613767565b60405160208082528190810183818151815260200191508051906020019080838360005b83811015611268578082015183820152602001611250565b50505050905090810190601f1680156112955780820380516001836020036101000a031916815260200191505b509250505060405180910390f35b600060386112af614505565b906101000a90046001600160a01b03166001600160a01b0316638da5cb5b6040518163ffffffff1660e01b815260040160206040518083038186806112f2614560565b1580156113075760008061130461449a565b50505b505a6113116145ac565b5050505050158015611330573d6000803e3d600061132d61449a565b50505b505050506040513d602081101561134f5760008061134c61449a565b50505b8101908080516001600160a01b0316925050505a61136b614697565b6001600160a01b031614806113a05750611383611c4e565b6001600160a01b03165a611395614697565b6001600160a01b0316145b806113cb57506113ae61177a565b6001600160a01b03165a6113c0614697565b6001600160a01b0316145b6114245760405162461bcd60e51b815260206004820152601b60248201527f6f6e6c79206d616e616765722c20747261646572206f722044414f000000000060448201526064016040518091039061142161449a565b50505b61142d81611b4d565b61147c5760405162461bcd60e51b8152602060048201526013602482015272185cdcd95d081b9bdd081cdd5c1c1bdc9d1959606a1b60448201526064016040518091039061147961449a565b50505b6001600160a01b0381166000908152603c6020526040902060009061149f614505565b906101000a900460ff16156115035760405162461bcd60e51b815260206004820152601f60248201527f63616e6e6f742072656d6f76652070657273697374656e74206173736574730060448201526064016040518091039061150061449a565b50505b61150c81613337565b156115665760405162461bcd60e51b815260206004820152601d60248201527f63616e6e6f742072656d6f7665206e6f6e2d656d70747920617373657400000060448201526064016040518091039061156361449a565b50505b61156f8161381b565b50565b6000603361157e614505565b906101000a90046001600160a01b03166001600160a01b03165a6115a0614697565b6001600160a01b031614806115e95750600060376115bc614505565b906101000a90046001600160a01b03166001600160a01b03165a6115de614697565b6001600160a01b0316145b61163b5760405162461bcd60e51b815260206004820152601660248201527537b7363c9036b0b730b3b2b91037b9103a3930b232b960511b60448201526064016040518091039061163861449a565b50505b61156f81613a21565b60008061165c848460200260040160ff1660206133b1565b9050600061166f856004840160206133b1565b9050806116c05760405162461bcd60e51b8152602060048201526012602482015271696e707574206973206e6f7420617272617960701b6044820152606401604051809103906116bd61449a565b50505b6116d48560208084028501600401906133b1565b925050505b92915050565b600060336116eb614505565b906101000a90046001600160a01b03166001600160a01b03165a61170d614697565b6001600160a01b03161461175f5760405162461bcd60e51b815260206004820152600c60248201526b37b7363c9036b0b730b3b2b960a11b60448201526064016040518091039061175c61449a565b50505b61176881613095565b6117715761156f565b61156f81613d0a565b6000806037611787614505565b906101000a90046001600160a01b0316905090565b6000808060386117aa614505565b6001600160a01b036101009290920a90041663b7a54526600060396117cd614505565b906101000a90046001600160a01b03166040516001600160e01b031960e084901b1681526001600160a01b03909116600482015260240160408051808303818680611816614560565b15801561182b5760008061182861449a565b50505b505a6118356145ac565b5050505050158015611854573d6000803e3d600061185161449a565b50505b505050506040513d60408110156118735760008061187061449a565b50505b81019080805192919060200180519395509293505050509091565b90565b60008080603861189f614505565b906101000a90046001600160a01b03166001600160a01b0316638b2f0f4f856040516001600160e01b031960e084901b1681526001600160a01b03909116600482015260240160206040518083038186806118f8614560565b15801561190d5760008061190a61449a565b50505b505a6119176145ac565b5050505050158015611936573d6000803e3d600061193361449a565b50505b505050506040513d60208110156119555760008061195261449a565b50505b81019080805193506000925050506001600160a01b03851663313ce5676040518163ffffffff1660e01b81526004016020604051808303818680611997614560565b1580156119ac576000806119a961449a565b50505b505a6119b66145ac565b50505050501580156119d5573d6000803e3d60006119d261449a565b50505b505050506040513d60208110156119f4576000806119f161449a565b50505b81019080805160ff1693506116d492505050600a82900a611a158487613e85565b90613eed565b60006039611a27614505565b906101000a90046001600160a01b031681565b603b6020528060005260406000209050611a52614505565b81565b600080611a6d858560200260040160ff1660206133b1565b90506000611a80866004840160206133b1565b905080611ad15760405162461bcd60e51b8152602060048201526012602482015271696e707574206973206e6f7420617272617960701b604482015260640160405180910390611ace61449a565b50505b60ff84168111611b295760405162461bcd60e51b815260206004820152601660248201527534b73b30b634b21030b93930bc903837b9b4ba34b7b760511b604482015260640160405180910390611b2661449a565b50505b611b43866020600160ff88160181028501600401906133b1565b9695505050505050565b6001600160a01b0381166000908152603b60205260408120611b6d614505565b151592915050565b60006033611b81614505565b906101000a90046001600160a01b03166001600160a01b03165a611ba3614697565b6001600160a01b031614611bf55760405162461bcd60e51b815260206004820152600c60248201526b37b7363c9036b0b730b3b2b960a11b604482015260640160405180910390611bf261449a565b50505b60005b8151811015611c4a57611c1d828281518110611c1057fe5b6020026020010151613095565b611c2657611c42565b611c42828281518110611c3557fe5b6020026020010151613d0a565b600101611bf8565b5050565b6000806033611787614505565b60006033611c67614505565b906101000a90046001600160a01b03166001600160a01b03165a611c89614697565b6001600160a01b031614611cdb5760405162461bcd60e51b815260206004820152600c60248201526b37b7363c9036b0b730b3b2b960a11b604482015260640160405180910390611cd861449a565b50505b816033600181611ce9614505565b816001600160a01b0302191690836001600160a01b0316021790611d0b6146dd565b505050806034908051611d2292916020019061472b565b507f6ed15082ad038474841528b5badca105106d4463e44b5d434130dfb299aa366982826040516001600160a01b038316815260406020820181815290820183818151815260200191508051906020019080838360005b83811015611d91578082015183820152602001611d79565b50505050905090810190601f168015611dbe5780820380516001836020036101000a031916815260200191505b50935050505060405180910390a15050565b60006033611ddc614505565b906101000a90046001600160a01b03166001600160a01b03165a611dfe614697565b6001600160a01b031614611e505760405162461bcd60e51b815260206004820152600c60248201526b37b7363c9036b0b730b3b2b960a11b604482015260640160405180910390611e4d61449a565b50505b6000806038611e5d614505565b906101000a90046001600160a01b03166001600160a01b0316635c9bfc2b6040518163ffffffff1660e01b81526004016020604051808303818680611ea0614560565b158015611eb557600080611eb261449a565b50505b505a611ebf6145ac565b5050505050158015611ede573d6000803e3d6000611edb61449a565b50505b505050506040513d6020811015611efd57600080611efa61449a565b50505b810190808051935060009250829150611f16905061179c565b909250905080841115611f6b5760405162461bcd60e51b815260206004820152601060248201526f34b73b30b634b210333930b1ba34b7b760811b604482015260640160405180910390611f6861449a565b50505b611f758284613f2d565b841115611fd15760405162461bcd60e51b815260206004820152601960248201527f657863656564656420616c6c6f77656420696e63726561736500000000000000604482015260640160405180910390611fce61449a565b50505b6000806038611fde614505565b906101000a90046001600160a01b03166001600160a01b031663ebee461d6040518163ffffffff1660e01b81526004016020604051808303818680612021614560565b1580156120365760008061203361449a565b50505b505a6120406145ac565b505050505015801561205f573d6000803e3d600061205c61449a565b50505b505050506040513d602081101561207e5760008061207b61449a565b50505b8101908080519350879250829150603d90506120986146dd565b505050805a6120a56147cb565b0180603e6120b16146dd565b5050507f4db9119741646c419f1ceccdf112b5b9a9b4516355e742e1fa9c479f4dec98da85603e6120e0614505565b60405191825260208201526040908101905180910390a15050505050565b6000818301845110156121605760405162461bcd60e51b815260206004820152601b60248201527f52656164696e67206279746573206f7574206f6620626f756e6473000000000060448201526064016040518091039061215d61449a565b50505b82602001840151905081600403801561217f576008810260020a820491505b509392505050565b60006033612193614505565b906101000a90046001600160a01b03166001600160a01b03165a6121b5614697565b6001600160a01b0316146122075760405162461bcd60e51b815260206004820152600c60248201526b37b7363c9036b0b730b3b2b960a11b60448201526064016040518091039061220461449a565b50505b603e612211614505565b5a61221a6147cb565b10156122755760405162461bcd60e51b815260206004820152601960248201527f66656520696e6372656173652064656c6179206163746976650000000000000060448201526064016040518091039061227261449a565b50505b612287603d612282614505565b613f8c565b600080603d6122946146dd565b5050506000603e81906122a56146dd565b505050565b600060336122b6614505565b906101000a90046001600160a01b03166001600160a01b03165a6122d8614697565b6001600160a01b03161461232a5760405162461bcd60e51b815260206004820152600c60248201526b37b7363c9036b0b730b3b2b960a11b60448201526064016040518091039061232761449a565b50505b60005b8151811015611c4a57612345828281518110611c1057fe5b1561234f5761236b565b61236b82828151811061235e57fe5b60200260200101516141cb565b60010161232d565b6000806033612380614505565b906101000a90046001600160a01b03166001600160a01b03165a6123a2614697565b6001600160a01b031614806123eb5750600060376123be614505565b906101000a90046001600160a01b03166001600160a01b03165a6123e0614697565b6001600160a01b0316145b61243d5760405162461bcd60e51b815260206004820152601660248201527537b7363c9036b0b730b3b2b91037b9103a3930b232b960511b60448201526064016040518091039061243a61449a565b50505b6001600160a01b0383166124a05760405162461bcd60e51b815260206004820152601c60248201527f6e6f6e2d7a65726f20616464726573732069732072657175697265640000000060448201526064016040518091039061249d61449a565b50505b60008060386124ad614505565b906101000a90046001600160a01b03166001600160a01b0316637027ea6c856040516001600160e01b031960e084901b1681526001600160a01b0390911660048201526024016020604051808303818680612506614560565b15801561251b5760008061251861449a565b50505b505a6125256145ac565b5050505050158015612544573d6000803e3d600061254161449a565b50505b505050506040513d60208110156125635760008061256061449a565b50505b81019080805193505050506001600160a01b0381166125c75760405162461bcd60e51b815260206004820152601360248201527234b73b30b634b2103232b9ba34b730ba34b7b760691b6044820152606401604051809103906125c461449a565b50505b806001600160a01b031663e23ff4375a63996d79a5598160e01b8152602081600483336000905af158600e01573d6000803e3d6000fd5b3d6001141558600a015760016000f35b8051925060005b604081101561262c57600082820152602001612615565b505050856040518363ffffffff1660e01b815260040180836001600160a01b0316815260200180602001828103825283818151815260200191508051906020019080838360005b8381101561268b578082015183820152602001612673565b50505050905090810190601f1680156126b85780820380516001836020036101000a031916815260200191505b509350505050602060405180830381600087806126d3614560565b1580156126e8576000806126e561449a565b50505b505a6126f2614811565b505050505050158015612712573d6000803e3d600061270f61449a565b50505b505050506040513d60208110156127315760008061272e61449a565b50505b810190808051925061278b9150505760405162461bcd60e51b815260206004820152601360248201527234b73b30b634b2103a3930b739b0b1ba34b7b760691b60448201526064016040518091039061278861449a565b50505b6000846001600160a01b0316846040518082805190602001908083835b602083106127c75780518252601f1990920191602091820191016127a8565b6001836020036101000a0380198251168184511680821785525050505050509050019150506000604051808303816000865a612801614811565b5050505050509150503d8060008114612836576040513d603f01601f191681016040523d815291503d6000602084013e61283b565b606091505b509091505060018115151461289f5760405162461bcd60e51b815260206004820152601a60248201527f6661696c656420746f2065786563757465207468652063616c6c00000000000060448201526064016040518091039061289c61449a565b50505b7f508f3afa87f72dce865a2321107666b28ac822c23a8c0555fbeb3424cf3de563600060396128cc614505565b906101000a90046001600160a01b03166128e4611c4e565b5a6128ed6147cb565b6040516001600160a01b039384168152919092166020820152604080820192909252606001905180910390a1506001949350505050565b603e611a52614505565b6000603361293a614505565b906101000a90046001600160a01b03166001600160a01b03165a61295c614697565b6001600160a01b0316146129ae5760405162461bcd60e51b815260206004820152600c60248201526b37b7363c9036b0b730b3b2b960a11b6044820152606401604051809103906129ab61449a565b50505b600060376001816129bd614505565b816001600160a01b0302191690836001600160a01b03160217906122a56146dd565b603c602052806000526040600020600091506129f9614505565b906101000a900460ff1681565b6000612a1d838360200260040160ff1660206133b1565b9392505050565b6000806038612a31614505565b906101000a90046001600160a01b03166001600160a01b03165a612a53614697565b6001600160a01b03161480612b36575060006038612a6f614505565b906101000a90046001600160a01b03166001600160a01b0316631d68702d6040518163ffffffff1660e01b81526004016020604051808303818680612ab2614560565b158015612ac757600080612ac461449a565b50505b505a612ad16145ac565b5050505050158015612af0573d6000803e3d6000612aed61449a565b50505b505050506040513d6020811015612b0f57600080612b0c61449a565b50505b8101908080516001600160a01b0316925050505a612b2b614697565b6001600160a01b0316145b612b7a5760405162461bcd60e51b81526004018080602001828103825260238152602001806148f76023913960400191505060405180910390612b7761449a565b50505b5a63996d79a5598160e01b8152602081600483336000905af158600e01573d6000803e3d6000fd5b3d6001141558600a015760016000f35b8051925060005b6040811015612bd057600082820152602001612bb9565b5050506001600160a01b0316826001600160a01b0316631e50a4a66040518163ffffffff1660e01b81526004016020604051808303818680612c10614560565b158015612c2557600080612c2261449a565b50505b505a612c2f6145ac565b5050505050158015612c4e573d6000803e3d6000612c4b61449a565b50505b505050506040513d6020811015612c6d57600080612c6a61449a565b50505b8101908080516001600160a01b0316939093149250612cd39150505760405162461bcd60e51b8152602060048201526012602482015271696e76616c696420706f6f6c206c6f67696360701b604482015260640160405180910390612cd061449a565b50505b816039600181612ce1614505565b816001600160a01b0302191690836001600160a01b0316021790612d036146dd565b5050507f8c1446ebd2ac8c922b8c9716dfbdfcfef02c9fc167140d7cfd019565b423b249825a612d31614697565b6040516001600160a01b039283168152911660208201526040908101905180910390a1506001919050565b603d611a52614505565b6000806038612d73614505565b906101000a90046001600160a01b03166001600160a01b031663cc435bf3836040516001600160e01b031960e084901b1681526001600160a01b0390911660048201526024016020604051808303818680612dcc614560565b158015612de157600080612dde61449a565b50505b505a612deb6145ac565b5050505050158015612e0a573d6000803e3d6000612e0761449a565b50505b505050506040513d6020811015612e2957600080612e2661449a565b50505b81019080805195945050505050565b6000603a80612e45614505565b91505090565b600080612e63848460200260040160ff1660206133b1565b9050612e74846004830160206133b1565b949350505050565b6060603580612e89614505565b806020026020016040519081016040528181529190602083018280612eac614505565b8015612ef957602002820191906000526020600020905b600082612ece614505565b906101000a90046001600160a01b03166001600160a01b031681526020019060010190808311612ec3575b5050505050905090565b6000603580612e45614505565b60006033612f1c614505565b906101000a90046001600160a01b03166001600160a01b03165a612f3e614697565b6001600160a01b031614612f905760405162461bcd60e51b815260206004820152600c60248201526b37b7363c9036b0b730b3b2b960a11b604482015260640160405180910390612f8d61449a565b50505b806037600181612f9e614505565b816001600160a01b0302191690836001600160a01b0316021790612fc06146dd565b50505050565b60006033612fd2614505565b906101000a90046001600160a01b03166001600160a01b03165a612ff4614697565b6001600160a01b0316146130465760405162461bcd60e51b815260206004820152600c60248201526b37b7363c9036b0b730b3b2b960a11b60448201526064016040518091039061304361449a565b50505b600080603d6130536146dd565b5050506000603e81906130646146dd565b5050507fc6f04bf43cbdf1ba5d51b4afa160bb3c7e13858b1409aa32868b239bb2f8d84960405160405180910390a1565b6001600160a01b0381166000908152603660205260408120611b6d614505565b60006116d982600060046120fe565b60006038611a27614505565b600160006130dc614505565b906101000a900460ff16806130f457506130f4614257565b806131115750600080613105614505565b906101000a900460ff16155b6131555760405162461bcd60e51b815260040180806020018281038252602e81526020018061493b602e91396040019150506040518091039061315261449a565b50505b6000600181613162614505565b906101000a900460ff1615905080156131c8576001600061010081613185614505565b8160ff0219169083151502179061319a6146dd565b50505060016000806101000a816131af614505565b8160ff021916908315150217906131c46146dd565b5050505b6131d284846142c8565b8460386001816131e0614505565b816001600160a01b0302191690836001600160a01b03160217906132026146dd565b50505060005b82518160ff16101561323b57613233838260ff168151811061322657fe5b6020026020010151613a21565b600101613208565b50801561326a5760008061010081613251614505565b8160ff021916908315150217906132666146dd565b5050505b5050505050565b603a818161327d614505565b811061328557fe5b9060005260206000200160009150611a27614505565b600060336132a7614505565b906101000a90046001600160a01b03166001600160a01b03165a6132c9614697565b6001600160a01b03161461331b5760405162461bcd60e51b815260206004820152600c60248201526b37b7363c9036b0b730b3b2b960a11b60448201526064016040518091039061331861449a565b50505b61332481613095565b1561332e5761156f565b61156f816141cb565b60006001600160a01b0382166370a08231826039613353614505565b906101000a90046001600160a01b03166040516001600160e01b031960e084901b1681526001600160a01b0390911660048201526024016020604051808303818680612dcc614560565b60006116d9826133ac84613337565b611891565b6000818301845110156134135760405162461bcd60e51b815260206004820152601b60248201527f52656164696e67206279746573206f7574206f6620626f756e6473000000000060448201526064016040518091039061341061449a565b50505b82602001840151905081602003801561217f5760080260020a90049392505050565b6060603a80613442614505565b806020026020016040519081016040528181529190602083018280613465614505565b8015612ef957602002820191906000526020600020905b600082613487614505565b906101000a90046001600160a01b03166001600160a01b03168152602001906001019080831161347c575050505050905090565b600080603d6134c8614505565b603e6134d2614505565b915091509091565b60608060606000603a806134ec614505565b9050905060608167ffffffffffffffff811180156135125760008061350f61449a565b50505b5060405190808252806020026020018201604052801561353c578160200160208202803683370190505b50905060608267ffffffffffffffff811180156135615760008061355e61449a565b50505b5060405190808252806020026020018201604052801561358b578160200160208202803683370190505b50905060608367ffffffffffffffff811180156135b0576000806135ad61449a565b50505b506040519080825280602002602001820160405280156135da578160200160208202803683370190505b50905060005b84811015613759576000603a82816135f6614505565b81106135fe57fe5b90600052602060002001600090613613614505565b906101000a90046001600160a01b0316905061362e81613337565b84838151811061363a57fe5b6020026020010181815250508085838151811061365357fe5b6001600160a01b039092166020928302919091019091015260006038613677614505565b906101000a90046001600160a01b03166001600160a01b0316638b2f0f4f826040516001600160e01b031960e084901b1681526001600160a01b03909116600482015260240160206040518083038186806136d0614560565b1580156136e5576000806136e261449a565b50505b505a6136ef6145ac565b505050505015801561370e573d6000803e3d600061370b61449a565b50505b505050506040513d602081101561372d5760008061372a61449a565b50505b81019080805192508591508490508151811061374557fe5b6020908102919091010152506001016135e0565b509195509350915050909192565b6060603480613774614505565b600181600116156101000203166002900480601f0160208091040260200160405190810160405281815291906020830182806137ae614505565b60018160011615610100020316600290048015612ef95780601f106137e85761010080836137da614505565b040283529160200191612ef9565b820191906000526020600020905b816137ff614505565b815290600101906020018083116137f657509395945050505050565b6000603a80613828614505565b6001600160a01b0384166000908152603b6020529092509050613858600160408320613852614505565b9061430f565b90506000603a61386984600161430f565b81613872614505565b811061387a57fe5b9060005260206000200160009061388f614505565b906101000a90046001600160a01b0316905080603a83816138ae614505565b81106138b657fe5b906000526020600020016001816138cb614505565b816001600160a01b0302191690836001600160a01b03160217906138ed6146dd565b506138fd91508390506001613f2d565b6001600160a01b0382166000908152603b60205260409020819061391f6146dd565b5050506001600160a01b0384166000908152603b6020526040812081906139446146dd565b505050603a80613952614505565b8061395957fe5b60019003818190600052602060002001600181613974614505565b906001600160a01b03021916906139896146dd565b5050906139946146dd565b50507f9b4f55639e5e283319baee5bc4e69a5625a8e3a1cc004af968f4fee72502202760396000906139c4614505565b906101000a90046001600160a01b03166139dc611c4e565b8660405180846001600160a01b03168152602001836001600160a01b03168152602001826001600160a01b03168152602001935050505060405180910390a150505050565b60006038613a2d614505565b906101000a90046001600160a01b03166001600160a01b031663aa12ae4d6040518163ffffffff1660e01b81526004016020604051808303818680613a70614560565b158015613a8557600080613a8261449a565b50505b505a613a8f6145ac565b5050505050158015613aae573d6000803e3d6000613aab61449a565b50505b505050506040513d6020811015613acd57600080613aca61449a565b50505b8101908080519250603a9150819050613ae4614505565b905010613b395760405162461bcd60e51b81526020600482015260166024820152751b585e1a5b5d5b48185cdcd95d1cc81c995858da195960521b604482015260640160405180910390613b3661449a565b50505b613b4281611b4d565b15613b9c5760405162461bcd60e51b815260206004820152601760248201527f617373657420616c726561647920737570706f72746564000000000000000000604482015260640160405180910390613b9961449a565b50505b613ba581612d66565b1515600114613bf35760405162461bcd60e51b815260206004820152600d60248201526c1a5b9d985b1a5908185cdcd95d609a1b604482015260640160405180910390613bf061449a565b50505b80603a80600181613c02614505565b018082613c0d6146dd565b505060009283526000190191602091502001600181613c2a614505565b816001600160a01b0302191690836001600160a01b0316021790613c4c6146dd565b505050603a80613c5a614505565b6001600160a01b0383166000908152603b602052909150604090208190613c7f6146dd565b5050507f0a7426a0630aad7dbc4d5ca5b7d9aac1133d77d2db987caaf4b4186c85d6593f6039600090613cb0614505565b906101000a90046001600160a01b0316613cc8611c4e565b8360405180846001600160a01b03168152602001836001600160a01b03168152602001826001600160a01b03168152602001935050505060405180910390a150565b6000603580613d17614505565b6001600160a01b038416600090815260366020529092509050613d41600160408320613852614505565b905060006035613d5284600161430f565b81613d5b614505565b8110613d6357fe5b90600052602060002001600090613d78614505565b906101000a90046001600160a01b031690508060358381613d97614505565b8110613d9f57fe5b90600052602060002001600181613db4614505565b816001600160a01b0302191690836001600160a01b0316021790613dd66146dd565b50613de691508390506001613f2d565b6001600160a01b03821660009081526036602052604090208190613e086146dd565b5050506001600160a01b03841660009081526036602052604081208190613e2d6146dd565b505050603580613e3b614505565b80613e4257fe5b60019003818190600052602060002001600181613e5d614505565b906001600160a01b0302191690613e726146dd565b505090613e7d6146dd565b505050505050565b600082613e94575060006116d9565b82820282848281613ea157fe5b0414612a1d5760405162461bcd60e51b815260040180806020018281038252602181526020018061491a6021913960400191505060405180910390613ee461449a565b50509392505050565b6000612a1d838360405160408082019052601a81527f536166654d6174683a206469766973696f6e206279207a65726f000000000000602082015261434f565b600082820183811015612a1d5760405162461bcd60e51b815260206004820152601b60248201527f536166654d6174683a206164646974696f6e206f766572666c6f770000000000604482015260640160405180910390613ee461449a565b60006038613f98614505565b6001600160a01b036101009290920a90041663046b72c460006039613fbb614505565b906101000a90046001600160a01b0316836040516001600160e01b031960e085901b1681526001600160a01b03909216600483015260248201526044016000604051808303816000878061400d614560565b1580156140225760008061401f61449a565b50505b505a61402c614811565b50505050505015801561404c573d6000803e3d600061404961449a565b50505b505050506000806038600090614060614505565b6001600160a01b036101009290920a90041663b7a5452660006039614083614505565b906101000a90046001600160a01b03166040516001600160e01b031960e084901b1681526001600160a01b039091166004820152602401604080518083038186806140cc614560565b1580156140e1576000806140de61449a565b50505b505a6140eb6145ac565b505050505015801561410a573d6000803e3d600061410761449a565b50505b505050506040513d60408110156141295760008061412661449a565b50505b81019080805192919060200180519395509293507f1780c04ddc6f0b32d866c7a3d7583f53515ef49ed2126af868f804f49160126692506000915060399050614170614505565b906101000a90046001600160a01b0316614188611c4e565b848460405180856001600160a01b03168152602001846001600160a01b0316815260200183815260200182815260200194505050505060405180910390a1505050565b806035806001816141da614505565b0180826141e56146dd565b505060009283526000190191602091502001600181614202614505565b816001600160a01b0302191690836001600160a01b03160217906142246146dd565b505050603580614232614505565b6001600160a01b03831660009081526036602052909150604090208190612fc06146dd565b6000805a63996d79a5598160e01b8152602081600483336000905af158600e01573d6000803e3d6000fd5b3d6001141558600a015760016000f35b8051925060005b60408110156142b057600082820152602001614299565b50505090506000816142c0614560565b159250505090565b8160336001816142d6614505565b816001600160a01b0302191690836001600160a01b03160217906142f86146dd565b5050508060349080516122a592916020019061472b565b6000612a1d838360405160408082019052601e81527f536166654d6174683a207375627472616374696f6e206f766572666c6f77000060208201526143fa565b600081836143e45760405162461bcd60e51b81526004018080602001828103825283818151815260200191508051906020019080838360005b838110156143a0578082015183820152602001614388565b50505050905090810190601f1680156143cd5780820380516001836020036101000a031916815260200191505b5092505050604051809103906143e161449a565b50505b5060008385816143f057fe5b0495945050505050565b600081848411156144925760405162461bcd60e51b81526004018080602001828103825283818151815260200191508051906020019080838360005b8381101561444e578082015183820152602001614436565b50505050905090810190601f16801561447b5780820380516001836020036101000a031916815260200191505b50925050506040518091039061448f61449a565b50505b505050900390565b632a2a7adb598160e01b8152600481016020815285602082015260005b868110156144d25780860151828201604001526020016144b7565b506020828760640184336000905af158600e01573d6000803e3d6000fd5b3d6001141558600a015760016000f35b505050565b6303daa959598160e01b8152836004820152602081602483336000905af158600e01573d6000803e3d6000fd5b3d6001141558600a015760016000f35b8051935060005b60408110156122a557600082820152602001614549565b638435035b598160e01b8152836004820152602081602483336000905af158600e01573d6000803e3d6000fd5b3d6001141558600a015760016000f35b80516000825293506020614549565b638540661f598160e01b81526145dd565b80808311156116d9575090919050565b80808310156116d9575090919050565b836004820152846024820152606060448201528660648201526084810160005b888110156146155780880151828201526020016145fd565b506060828960a40184336000905af158600e01573d6000803e3d6000fd5b3d6001141558600a015760016000f35b815160408301513d6000853e8b8b82606087013350600060045af1505961466a8d3d6145cd565b8c0161467681876145bd565b5b8281101561468b5760008152602001614677565b50929c50505050505050565b6373509064598160e01b8152602081600483336000905af158600e01573d6000803e3d6000fd5b3d6001141558600a015760016000f35b80516000825293506020614549565b6322bd64c0598160e01b8152836004820152846024820152600081604483336000905af158600e01573d6000803e3d6000fd5b3d6001141558600a015760016000f35b600081526020614549565b8280614735614505565b600181600116156101000203166002900490600052602060002090601f016020900481019282601f1061477c57805160ff191683800117856147756146dd565b50506147bb565b8280016001018561478b6146dd565b505082156147bb579182015b828111156147bb578251826147aa6146dd565b505091602001919060010190614797565b506147c79291506148d7565b5090565b63bdbf8c36598160e01b8152602081600483336000905af158600e01573d6000803e3d6000fd5b3d6001141558600a015760016000f35b80516000825293506020614549565b6385979f76598160e01b8152836004820152846024820152606060448201528760648201526084810160005b8981101561485557808901518282015260200161483d565b506060828a60a40184336000905af158600e01573d6000803e3d6000fd5b3d6001141558600a015760016000f35b815160408301513d6000853e8c8c82606087013350600060045af150596148aa8e3d6145cd565b8d016148b681876145bd565b5b828110156148cb57600081526020016148b7565b50929d50505050505050565b808211156147c757600080826148eb6146dd565b5050506001016148d756fe6f6e6c792044414f206f7220666163746f7279206164647265737320616c6c6f776564536166654d6174683a206d756c7469706c69636174696f6e206f766572666c6f77436f6e747261637420696e7374616e63652068617320616c7265616479206265656e20696e697469616c697a6564",
  "deployedBytecode": "0x60806040523480156100195760008061001661449a565b50505b50600436106102935760003560e01c806382f86acc11610165578063c3c6279f116100d7578063d8af8ed411610090578063d8af8ed414611033578063db896b5714611062578063e5406dbf1461112e578063ed5b165d14611136578063f09d14d71461113e578063fed4416a1461122457610293565b8063c3c6279f14610d63578063c45a015514610e2a578063c688aa6414610e32578063c68dbb3714610faf578063ca6d56dc14610fd5578063cd88e5581461100457610293565b8063998546e311610129578063998546e314610bce5780639eab525314610c9a578063a30e3fa914610cf5578063a6bc18f914610cfd578063b8bd81e614610d2c578063bbbf725b14610d3457610293565b806382f86acc14610a945780638e10153d14610b605780638f32343914610b8f5780639240d29914610b97578063936553c414610bc657610293565b8063464b4158116102095780636e890f3c116101c25780636e890f3c146108b15780636f4d469b146108b95780637ae7cfb51461097e5780637b4d0c6314610a555780637c8afd5114610a5d57806380dd4f6214610a6557610293565b8063464b4158146105bb57806346ee84b0146105fe578063481c6a75146106c357806352213663146106cb57806353f064c9146107a2578063568b5a2f146107c857610293565b8063198055381161025b57806319805538146104325780631eba30771461045257806329c07fba1461047857806339b81fd9146104ad5780633c570d7d146104b557806341dc16c3146104e457610293565b806306468587146102a1578063093b8825146102d257806309ff5c7d146103015780630b1ca49a146103df5780631758078b1461040e575b60008061029e61449a565b50505b6102d0600480360360208110156102c0576000806102bd61449a565b50505b50356001600160a01b03166112a3565b005b6102d0600480360360208110156102f1576000806102ee61449a565b50505b50356001600160a01b0316611572565b6103cd600480360360408110156103205760008061031d61449a565b50505b810190602081018135600160201b8111156103435760008061034061449a565b50505b82018360208201111561035e5760008061035b61449a565b50505b803590602001918460018302840111600160201b831117156103885760008061038561449a565b50505b91908080601f01602080910402602001604051908101604052818152929190602084018383808284376000920191909152509295505050903560ff1691506116449050565b60405190815260200160405180910390f35b6102d0600480360360208110156103fe576000806103fb61449a565b50505b50356001600160a01b03166116df565b61041661177a565b6040516001600160a01b03909116815260200160405180910390f35b61043a61179c565b60405191825260208201526040908101905180910390f35b610416600480360360208110156104715760008061046e61449a565b50505b503561188e565b6103cd600480360360408110156104975760008061049461449a565b50505b506001600160a01b038135169060200135611891565b610416611a1b565b6103cd600480360360208110156104d4576000806104d161449a565b50505b50356001600160a01b0316611a3a565b6103cd600480360360608110156105035760008061050061449a565b50505b810190602081018135600160201b8111156105265760008061052361449a565b50505b8201836020820111156105415760008061053e61449a565b50505b803590602001918460018302840111600160201b8311171561056b5760008061056861449a565b50505b91908080601f01602080910402602001604051908101604052818152929190602084018383808284376000920191909152509295505060ff8335811694506020909301359092169150611a559050565b6105ea600480360360208110156105da576000806105d761449a565b50505b50356001600160a01b0316611b4d565b604051901515815260200160405180910390f35b6102d06004803603602081101561061d5760008061061a61449a565b50505b810190602081018135600160201b8111156106405760008061063d61449a565b50505b82018360208201111561065b5760008061065861449a565b50505b803590602001918460208302840111600160201b831117156106855760008061068261449a565b50505b919080806020026020016040519081016040528093929190818152602001838360200280828437600092019190915250929550611b75945050505050565b610416611c4e565b6102d0600480360360408110156106ea576000806106e761449a565b50505b6001600160a01b038235169190810190604081016020820135600160201b81111561071d5760008061071a61449a565b50505b8201836020820111156107385760008061073561449a565b50505b803590602001918460018302840111600160201b831117156107625760008061075f61449a565b50505b91908080601f0160208091040260200160405190810160405281815292919060208401838380828437600092019190915250929550611c5b945050505050565b6102d0600480360360208110156107c1576000806107be61449a565b50505b5035611dd0565b610894600480360360608110156107e7576000806107e461449a565b50505b810190602081018135600160201b81111561080a5760008061080761449a565b50505b8201836020820111156108255760008061082261449a565b50505b803590602001918460018302840111600160201b8311171561084f5760008061084c61449a565b50505b91908080601f016020809104026020016040519081016040528181529291906020840183838082843760009201919091525092955050823593505050602001356120fe565b6040516001600160e01b0319909116815260200160405180910390f35b6102d0612187565b6102d0600480360360208110156108d8576000806108d561449a565b50505b810190602081018135600160201b8111156108fb576000806108f861449a565b50505b8201836020820111156109165760008061091361449a565b50505b803590602001918460208302840111600160201b831117156109405760008061093d61449a565b50505b9190808060200260200160405190810160405280939291908181526020018383602002808284376000920191909152509295506122aa945050505050565b6105ea6004803603604081101561099d5760008061099a61449a565b50505b6001600160a01b038235169190810190604081016020820135600160201b8111156109d0576000806109cd61449a565b50505b8201836020820111156109eb576000806109e861449a565b50505b803590602001918460018302840111600160201b83111715610a1557600080610a1261449a565b50505b91908080601f0160208091040260200160405190810160405281815292919060208401838380828437600092019190915250929550612373945050505050565b6103cd612924565b6102d061292e565b6105ea60048036036020811015610a8457600080610a8161449a565b50505b50356001600160a01b03166129df565b6103cd60048036036040811015610ab357600080610ab061449a565b50505b810190602081018135600160201b811115610ad657600080610ad361449a565b50505b820183602082011115610af157600080610aee61449a565b50505b803590602001918460018302840111600160201b83111715610b1b57600080610b1861449a565b50505b91908080601f01602080910402602001604051908101604052818152929190602084018383808284376000920191909152509295505050903560ff169150612a069050565b6105ea60048036036020811015610b7f57600080610b7c61449a565b50505b50356001600160a01b0316612a24565b6103cd612d5c565b6105ea60048036036020811015610bb657600080610bb361449a565b50505b50356001600160a01b0316612d66565b6103cd612e38565b6103cd60048036036040811015610bed57600080610bea61449a565b50505b810190602081018135600160201b811115610c1057600080610c0d61449a565b50505b820183602082011115610c2b57600080610c2861449a565b50505b803590602001918460018302840111600160201b83111715610c5557600080610c5261449a565b50505b91908080601f01602080910402602001604051908101604052818152929190602084018383808284376000920191909152509295505050903560ff169150612e4b9050565b610ca2612e7c565b60405160208082528190810183818151815260200191508051906020019060200280838360005b83811015610ce1578082015183820152602001610cc9565b505050509050019250505060405180910390f35b6103cd612f03565b6102d060048036036020811015610d1c57600080610d1961449a565b50505b50356001600160a01b0316612f10565b6102d0612fc6565b6105ea60048036036020811015610d5357600080610d5061449a565b50505b50356001600160a01b0316613095565b61089460048036036020811015610d8257600080610d7f61449a565b50505b810190602081018135600160201b811115610da557600080610da261449a565b50505b820183602082011115610dc057600080610dbd61449a565b50505b803590602001918460018302840111600160201b83111715610dea57600080610de761449a565b50505b91908080601f01602080910402602001604051908101604052818152929190602084018383808284376000920191909152509295506130b5945050505050565b6104166130c4565b6102d060048036036080811015610e5157600080610e4e61449a565b50505b6001600160a01b038235811692602081013590911691810190606081016040820135600160201b811115610e8d57600080610e8a61449a565b50505b820183602082011115610ea857600080610ea561449a565b50505b803590602001918460018302840111600160201b83111715610ed257600080610ecf61449a565b50505b91908080601f01602080910402602001604051908101604052818152929190602084018383808284376000920191909152509295949360208101935035915050600160201b811115610f2c57600080610f2961449a565b50505b820183602082011115610f4757600080610f4461449a565b50505b803590602001918460208302840111600160201b83111715610f7157600080610f6e61449a565b50505b9190808060200260200160405190810160405280939291908181526020018383602002808284376000920191909152509295506130d0945050505050565b61041660048036036020811015610fce57600080610fcb61449a565b50505b5035613271565b6102d060048036036020811015610ff457600080610ff161449a565b50505b50356001600160a01b031661329b565b6103cd600480360360208110156110235760008061102061449a565b50505b50356001600160a01b0316613337565b6103cd600480360360208110156110525760008061104f61449a565b50505b50356001600160a01b031661339d565b6103cd600480360360608110156110815760008061107e61449a565b50505b810190602081018135600160201b8111156110a4576000806110a161449a565b50505b8201836020820111156110bf576000806110bc61449a565b50505b803590602001918460018302840111600160201b831117156110e9576000806110e661449a565b50505b91908080601f016020809104026020016040519081016040528181529291906020840183838082843760009201919091525092955050823593505050602001356133b1565b610ca2613435565b61043a6134bb565b6111466134da565b60405180806020018060200180602001848103845287818151815260200191508051906020019060200280838360005b8381101561118e578082015183820152602001611176565b50505050905001848103835286818151815260200191508051906020019060200280838360005b838110156111cd5780820151838201526020016111b5565b50505050905001848103825285818151815260200191508051906020019060200280838360005b8381101561120c5780820151838201526020016111f4565b50505050905001965050505050505060405180910390f35b61122c613767565b60405160208082528190810183818151815260200191508051906020019080838360005b83811015611268578082015183820152602001611250565b50505050905090810190601f1680156112955780820380516001836020036101000a031916815260200191505b509250505060405180910390f35b600060386112af614505565b906101000a90046001600160a01b03166001600160a01b0316638da5cb5b6040518163ffffffff1660e01b815260040160206040518083038186806112f2614560565b1580156113075760008061130461449a565b50505b505a6113116145ac565b5050505050158015611330573d6000803e3d600061132d61449a565b50505b505050506040513d602081101561134f5760008061134c61449a565b50505b8101908080516001600160a01b0316925050505a61136b614697565b6001600160a01b031614806113a05750611383611c4e565b6001600160a01b03165a611395614697565b6001600160a01b0316145b806113cb57506113ae61177a565b6001600160a01b03165a6113c0614697565b6001600160a01b0316145b6114245760405162461bcd60e51b815260206004820152601b60248201527f6f6e6c79206d616e616765722c20747261646572206f722044414f000000000060448201526064016040518091039061142161449a565b50505b61142d81611b4d565b61147c5760405162461bcd60e51b8152602060048201526013602482015272185cdcd95d081b9bdd081cdd5c1c1bdc9d1959606a1b60448201526064016040518091039061147961449a565b50505b6001600160a01b0381166000908152603c6020526040902060009061149f614505565b906101000a900460ff16156115035760405162461bcd60e51b815260206004820152601f60248201527f63616e6e6f742072656d6f76652070657273697374656e74206173736574730060448201526064016040518091039061150061449a565b50505b61150c81613337565b156115665760405162461bcd60e51b815260206004820152601d60248201527f63616e6e6f742072656d6f7665206e6f6e2d656d70747920617373657400000060448201526064016040518091039061156361449a565b50505b61156f8161381b565b50565b6000603361157e614505565b906101000a90046001600160a01b03166001600160a01b03165a6115a0614697565b6001600160a01b031614806115e95750600060376115bc614505565b906101000a90046001600160a01b03166001600160a01b03165a6115de614697565b6001600160a01b0316145b61163b5760405162461bcd60e51b815260206004820152601660248201527537b7363c9036b0b730b3b2b91037b9103a3930b232b960511b60448201526064016040518091039061163861449a565b50505b61156f81613a21565b60008061165c848460200260040160ff1660206133b1565b9050600061166f856004840160206133b1565b9050806116c05760405162461bcd60e51b8152602060048201526012602482015271696e707574206973206e6f7420617272617960701b6044820152606401604051809103906116bd61449a565b50505b6116d48560208084028501600401906133b1565b925050505b92915050565b600060336116eb614505565b906101000a90046001600160a01b03166001600160a01b03165a61170d614697565b6001600160a01b03161461175f5760405162461bcd60e51b815260206004820152600c60248201526b37b7363c9036b0b730b3b2b960a11b60448201526064016040518091039061175c61449a565b50505b61176881613095565b6117715761156f565b61156f81613d0a565b6000806037611787614505565b906101000a90046001600160a01b0316905090565b6000808060386117aa614505565b6001600160a01b036101009290920a90041663b7a54526600060396117cd614505565b906101000a90046001600160a01b03166040516001600160e01b031960e084901b1681526001600160a01b03909116600482015260240160408051808303818680611816614560565b15801561182b5760008061182861449a565b50505b505a6118356145ac565b5050505050158015611854573d6000803e3d600061185161449a565b50505b505050506040513d60408110156118735760008061187061449a565b50505b81019080805192919060200180519395509293505050509091565b90565b60008080603861189f614505565b906101000a90046001600160a01b03166001600160a01b0316638b2f0f4f856040516001600160e01b031960e084901b1681526001600160a01b03909116600482015260240160206040518083038186806118f8614560565b15801561190d5760008061190a61449a565b50505b505a6119176145ac565b5050505050158015611936573d6000803e3d600061193361449a565b50505b505050506040513d60208110156119555760008061195261449a565b50505b81019080805193506000925050506001600160a01b03851663313ce5676040518163ffffffff1660e01b81526004016020604051808303818680611997614560565b1580156119ac576000806119a961449a565b50505b505a6119b66145ac565b50505050501580156119d5573d6000803e3d60006119d261449a565b50505b505050506040513d60208110156119f4576000806119f161449a565b50505b81019080805160ff1693506116d492505050600a82900a611a158487613e85565b90613eed565b60006039611a27614505565b906101000a90046001600160a01b031681565b603b6020528060005260406000209050611a52614505565b81565b600080611a6d858560200260040160ff1660206133b1565b90506000611a80866004840160206133b1565b905080611ad15760405162461bcd60e51b8152602060048201526012602482015271696e707574206973206e6f7420617272617960701b604482015260640160405180910390611ace61449a565b50505b60ff84168111611b295760405162461bcd60e51b815260206004820152601660248201527534b73b30b634b21030b93930bc903837b9b4ba34b7b760511b604482015260640160405180910390611b2661449a565b50505b611b43866020600160ff88160181028501600401906133b1565b9695505050505050565b6001600160a01b0381166000908152603b60205260408120611b6d614505565b151592915050565b60006033611b81614505565b906101000a90046001600160a01b03166001600160a01b03165a611ba3614697565b6001600160a01b031614611bf55760405162461bcd60e51b815260206004820152600c60248201526b37b7363c9036b0b730b3b2b960a11b604482015260640160405180910390611bf261449a565b50505b60005b8151811015611c4a57611c1d828281518110611c1057fe5b6020026020010151613095565b611c2657611c42565b611c42828281518110611c3557fe5b6020026020010151613d0a565b600101611bf8565b5050565b6000806033611787614505565b60006033611c67614505565b906101000a90046001600160a01b03166001600160a01b03165a611c89614697565b6001600160a01b031614611cdb5760405162461bcd60e51b815260206004820152600c60248201526b37b7363c9036b0b730b3b2b960a11b604482015260640160405180910390611cd861449a565b50505b816033600181611ce9614505565b816001600160a01b0302191690836001600160a01b0316021790611d0b6146dd565b505050806034908051611d2292916020019061472b565b507f6ed15082ad038474841528b5badca105106d4463e44b5d434130dfb299aa366982826040516001600160a01b038316815260406020820181815290820183818151815260200191508051906020019080838360005b83811015611d91578082015183820152602001611d79565b50505050905090810190601f168015611dbe5780820380516001836020036101000a031916815260200191505b50935050505060405180910390a15050565b60006033611ddc614505565b906101000a90046001600160a01b03166001600160a01b03165a611dfe614697565b6001600160a01b031614611e505760405162461bcd60e51b815260206004820152600c60248201526b37b7363c9036b0b730b3b2b960a11b604482015260640160405180910390611e4d61449a565b50505b6000806038611e5d614505565b906101000a90046001600160a01b03166001600160a01b0316635c9bfc2b6040518163ffffffff1660e01b81526004016020604051808303818680611ea0614560565b158015611eb557600080611eb261449a565b50505b505a611ebf6145ac565b5050505050158015611ede573d6000803e3d6000611edb61449a565b50505b505050506040513d6020811015611efd57600080611efa61449a565b50505b810190808051935060009250829150611f16905061179c565b909250905080841115611f6b5760405162461bcd60e51b815260206004820152601060248201526f34b73b30b634b210333930b1ba34b7b760811b604482015260640160405180910390611f6861449a565b50505b611f758284613f2d565b841115611fd15760405162461bcd60e51b815260206004820152601960248201527f657863656564656420616c6c6f77656420696e63726561736500000000000000604482015260640160405180910390611fce61449a565b50505b6000806038611fde614505565b906101000a90046001600160a01b03166001600160a01b031663ebee461d6040518163ffffffff1660e01b81526004016020604051808303818680612021614560565b1580156120365760008061203361449a565b50505b505a6120406145ac565b505050505015801561205f573d6000803e3d600061205c61449a565b50505b505050506040513d602081101561207e5760008061207b61449a565b50505b8101908080519350879250829150603d90506120986146dd565b505050805a6120a56147cb565b0180603e6120b16146dd565b5050507f4db9119741646c419f1ceccdf112b5b9a9b4516355e742e1fa9c479f4dec98da85603e6120e0614505565b60405191825260208201526040908101905180910390a15050505050565b6000818301845110156121605760405162461bcd60e51b815260206004820152601b60248201527f52656164696e67206279746573206f7574206f6620626f756e6473000000000060448201526064016040518091039061215d61449a565b50505b82602001840151905081600403801561217f576008810260020a820491505b509392505050565b60006033612193614505565b906101000a90046001600160a01b03166001600160a01b03165a6121b5614697565b6001600160a01b0316146122075760405162461bcd60e51b815260206004820152600c60248201526b37b7363c9036b0b730b3b2b960a11b60448201526064016040518091039061220461449a565b50505b603e612211614505565b5a61221a6147cb565b10156122755760405162461bcd60e51b815260206004820152601960248201527f66656520696e6372656173652064656c6179206163746976650000000000000060448201526064016040518091039061227261449a565b50505b612287603d612282614505565b613f8c565b600080603d6122946146dd565b5050506000603e81906122a56146dd565b505050565b600060336122b6614505565b906101000a90046001600160a01b03166001600160a01b03165a6122d8614697565b6001600160a01b03161461232a5760405162461bcd60e51b815260206004820152600c60248201526b37b7363c9036b0b730b3b2b960a11b60448201526064016040518091039061232761449a565b50505b60005b8151811015611c4a57612345828281518110611c1057fe5b1561234f5761236b565b61236b82828151811061235e57fe5b60200260200101516141cb565b60010161232d565b6000806033612380614505565b906101000a90046001600160a01b03166001600160a01b03165a6123a2614697565b6001600160a01b031614806123eb5750600060376123be614505565b906101000a90046001600160a01b03166001600160a01b03165a6123e0614697565b6001600160a01b0316145b61243d5760405162461bcd60e51b815260206004820152601660248201527537b7363c9036b0b730b3b2b91037b9103a3930b232b960511b60448201526064016040518091039061243a61449a565b50505b6001600160a01b0383166124a05760405162461bcd60e51b815260206004820152601c60248201527f6e6f6e2d7a65726f20616464726573732069732072657175697265640000000060448201526064016040518091039061249d61449a565b50505b60008060386124ad614505565b906101000a90046001600160a01b03166001600160a01b0316637027ea6c856040516001600160e01b031960e084901b1681526001600160a01b0390911660048201526024016020604051808303818680612506614560565b15801561251b5760008061251861449a565b50505b505a6125256145ac565b5050505050158015612544573d6000803e3d600061254161449a565b50505b505050506040513d60208110156125635760008061256061449a565b50505b81019080805193505050506001600160a01b0381166125c75760405162461bcd60e51b815260206004820152601360248201527234b73b30b634b2103232b9ba34b730ba34b7b760691b6044820152606401604051809103906125c461449a565b50505b806001600160a01b031663e23ff4375a63996d79a5598160e01b8152602081600483336000905af158601d01573d60011458600c01573d6000803e3d621234565260ea61109c528051925060005b604081101561262c57600082820152602001612615565b505050856040518363ffffffff1660e01b815260040180836001600160a01b0316815260200180602001828103825283818151815260200191508051906020019080838360005b8381101561268b578082015183820152602001612673565b50505050905090810190601f1680156126b85780820380516001836020036101000a031916815260200191505b509350505050602060405180830381600087806126d3614560565b1580156126e8576000806126e561449a565b50505b505a6126f2614811565b505050505050158015612712573d6000803e3d600061270f61449a565b50505b505050506040513d60208110156127315760008061272e61449a565b50505b810190808051925061278b9150505760405162461bcd60e51b815260206004820152601360248201527234b73b30b634b2103a3930b739b0b1ba34b7b760691b60448201526064016040518091039061278861449a565b50505b6000846001600160a01b0316846040518082805190602001908083835b602083106127c75780518252601f1990920191602091820191016127a8565b6001836020036101000a0380198251168184511680821785525050505050509050019150506000604051808303816000865a612801614811565b5050505050509150503d8060008114612836576040513d603f01601f191681016040523d815291503d6000602084013e61283b565b606091505b509091505060018115151461289f5760405162461bcd60e51b815260206004820152601a60248201527f6661696c656420746f2065786563757465207468652063616c6c00000000000060448201526064016040518091039061289c61449a565b50505b7f508f3afa87f72dce865a2321107666b28ac822c23a8c0555fbeb3424cf3de563600060396128cc614505565b906101000a90046001600160a01b03166128e4611c4e565b5a6128ed6147cb565b6040516001600160a01b039384168152919092166020820152604080820192909252606001905180910390a1506001949350505050565b603e611a52614505565b6000603361293a614505565b906101000a90046001600160a01b03166001600160a01b03165a61295c614697565b6001600160a01b0316146129ae5760405162461bcd60e51b815260206004820152600c60248201526b37b7363c9036b0b730b3b2b960a11b6044820152606401604051809103906129ab61449a565b50505b600060376001816129bd614505565b816001600160a01b0302191690836001600160a01b03160217906122a56146dd565b603c602052806000526040600020600091506129f9614505565b906101000a900460ff1681565b6000612a1d838360200260040160ff1660206133b1565b9392505050565b6000806038612a31614505565b906101000a90046001600160a01b03166001600160a01b03165a612a53614697565b6001600160a01b03161480612b36575060006038612a6f614505565b906101000a90046001600160a01b03166001600160a01b0316631d68702d6040518163ffffffff1660e01b81526004016020604051808303818680612ab2614560565b158015612ac757600080612ac461449a565b50505b505a612ad16145ac565b5050505050158015612af0573d6000803e3d6000612aed61449a565b50505b505050506040513d6020811015612b0f57600080612b0c61449a565b50505b8101908080516001600160a01b0316925050505a612b2b614697565b6001600160a01b0316145b612b7a5760405162461bcd60e51b81526004018080602001828103825260238152602001806148f76023913960400191505060405180910390612b7761449a565b50505b5a63996d79a5598160e01b8152602081600483336000905af158601d01573d60011458600c01573d6000803e3d621234565260ea61109c528051925060005b6040811015612bd057600082820152602001612bb9565b5050506001600160a01b0316826001600160a01b0316631e50a4a66040518163ffffffff1660e01b81526004016020604051808303818680612c10614560565b158015612c2557600080612c2261449a565b50505b505a612c2f6145ac565b5050505050158015612c4e573d6000803e3d6000612c4b61449a565b50505b505050506040513d6020811015612c6d57600080612c6a61449a565b50505b8101908080516001600160a01b0316939093149250612cd39150505760405162461bcd60e51b8152602060048201526012602482015271696e76616c696420706f6f6c206c6f67696360701b604482015260640160405180910390612cd061449a565b50505b816039600181612ce1614505565b816001600160a01b0302191690836001600160a01b0316021790612d036146dd565b5050507f8c1446ebd2ac8c922b8c9716dfbdfcfef02c9fc167140d7cfd019565b423b249825a612d31614697565b6040516001600160a01b039283168152911660208201526040908101905180910390a1506001919050565b603d611a52614505565b6000806038612d73614505565b906101000a90046001600160a01b03166001600160a01b031663cc435bf3836040516001600160e01b031960e084901b1681526001600160a01b0390911660048201526024016020604051808303818680612dcc614560565b158015612de157600080612dde61449a565b50505b505a612deb6145ac565b5050505050158015612e0a573d6000803e3d6000612e0761449a565b50505b505050506040513d6020811015612e2957600080612e2661449a565b50505b81019080805195945050505050565b6000603a80612e45614505565b91505090565b600080612e63848460200260040160ff1660206133b1565b9050612e74846004830160206133b1565b949350505050565b6060603580612e89614505565b806020026020016040519081016040528181529190602083018280612eac614505565b8015612ef957602002820191906000526020600020905b600082612ece614505565b906101000a90046001600160a01b03166001600160a01b031681526020019060010190808311612ec3575b5050505050905090565b6000603580612e45614505565b60006033612f1c614505565b906101000a90046001600160a01b03166001600160a01b03165a612f3e614697565b6001600160a01b031614612f905760405162461bcd60e51b815260206004820152600c60248201526b37b7363c9036b0b730b3b2b960a11b604482015260640160405180910390612f8d61449a565b50505b806037600181612f9e614505565b816001600160a01b0302191690836001600160a01b0316021790612fc06146dd565b50505050565b60006033612fd2614505565b906101000a90046001600160a01b03166001600160a01b03165a612ff4614697565b6001600160a01b0316146130465760405162461bcd60e51b815260206004820152600c60248201526b37b7363c9036b0b730b3b2b960a11b60448201526064016040518091039061304361449a565b50505b600080603d6130536146dd565b5050506000603e81906130646146dd565b5050507fc6f04bf43cbdf1ba5d51b4afa160bb3c7e13858b1409aa32868b239bb2f8d84960405160405180910390a1565b6001600160a01b0381166000908152603660205260408120611b6d614505565b60006116d982600060046120fe565b60006038611a27614505565b600160006130dc614505565b906101000a900460ff16806130f457506130f4614257565b806131115750600080613105614505565b906101000a900460ff16155b6131555760405162461bcd60e51b815260040180806020018281038252602e81526020018061493b602e91396040019150506040518091039061315261449a565b50505b6000600181613162614505565b906101000a900460ff1615905080156131c8576001600061010081613185614505565b8160ff0219169083151502179061319a6146dd565b50505060016000806101000a816131af614505565b8160ff021916908315150217906131c46146dd565b5050505b6131d284846142c8565b8460386001816131e0614505565b816001600160a01b0302191690836001600160a01b03160217906132026146dd565b50505060005b82518160ff16101561323b57613233838260ff168151811061322657fe5b6020026020010151613a21565b600101613208565b50801561326a5760008061010081613251614505565b8160ff021916908315150217906132666146dd565b5050505b5050505050565b603a818161327d614505565b811061328557fe5b9060005260206000200160009150611a27614505565b600060336132a7614505565b906101000a90046001600160a01b03166001600160a01b03165a6132c9614697565b6001600160a01b03161461331b5760405162461bcd60e51b815260206004820152600c60248201526b37b7363c9036b0b730b3b2b960a11b60448201526064016040518091039061331861449a565b50505b61332481613095565b1561332e5761156f565b61156f816141cb565b60006001600160a01b0382166370a08231826039613353614505565b906101000a90046001600160a01b03166040516001600160e01b031960e084901b1681526001600160a01b0390911660048201526024016020604051808303818680612dcc614560565b60006116d9826133ac84613337565b611891565b6000818301845110156134135760405162461bcd60e51b815260206004820152601b60248201527f52656164696e67206279746573206f7574206f6620626f756e6473000000000060448201526064016040518091039061341061449a565b50505b82602001840151905081602003801561217f5760080260020a90049392505050565b6060603a80613442614505565b806020026020016040519081016040528181529190602083018280613465614505565b8015612ef957602002820191906000526020600020905b600082613487614505565b906101000a90046001600160a01b03166001600160a01b03168152602001906001019080831161347c575050505050905090565b600080603d6134c8614505565b603e6134d2614505565b915091509091565b60608060606000603a806134ec614505565b9050905060608167ffffffffffffffff811180156135125760008061350f61449a565b50505b5060405190808252806020026020018201604052801561353c578160200160208202803683370190505b50905060608267ffffffffffffffff811180156135615760008061355e61449a565b50505b5060405190808252806020026020018201604052801561358b578160200160208202803683370190505b50905060608367ffffffffffffffff811180156135b0576000806135ad61449a565b50505b506040519080825280602002602001820160405280156135da578160200160208202803683370190505b50905060005b84811015613759576000603a82816135f6614505565b81106135fe57fe5b90600052602060002001600090613613614505565b906101000a90046001600160a01b0316905061362e81613337565b84838151811061363a57fe5b6020026020010181815250508085838151811061365357fe5b6001600160a01b039092166020928302919091019091015260006038613677614505565b906101000a90046001600160a01b03166001600160a01b0316638b2f0f4f826040516001600160e01b031960e084901b1681526001600160a01b03909116600482015260240160206040518083038186806136d0614560565b1580156136e5576000806136e261449a565b50505b505a6136ef6145ac565b505050505015801561370e573d6000803e3d600061370b61449a565b50505b505050506040513d602081101561372d5760008061372a61449a565b50505b81019080805192508591508490508151811061374557fe5b6020908102919091010152506001016135e0565b509195509350915050909192565b6060603480613774614505565b600181600116156101000203166002900480601f0160208091040260200160405190810160405281815291906020830182806137ae614505565b60018160011615610100020316600290048015612ef95780601f106137e85761010080836137da614505565b040283529160200191612ef9565b820191906000526020600020905b816137ff614505565b815290600101906020018083116137f657509395945050505050565b6000603a80613828614505565b6001600160a01b0384166000908152603b6020529092509050613858600160408320613852614505565b9061430f565b90506000603a61386984600161430f565b81613872614505565b811061387a57fe5b9060005260206000200160009061388f614505565b906101000a90046001600160a01b0316905080603a83816138ae614505565b81106138b657fe5b906000526020600020016001816138cb614505565b816001600160a01b0302191690836001600160a01b03160217906138ed6146dd565b506138fd91508390506001613f2d565b6001600160a01b0382166000908152603b60205260409020819061391f6146dd565b5050506001600160a01b0384166000908152603b6020526040812081906139446146dd565b505050603a80613952614505565b8061395957fe5b60019003818190600052602060002001600181613974614505565b906001600160a01b03021916906139896146dd565b5050906139946146dd565b50507f9b4f55639e5e283319baee5bc4e69a5625a8e3a1cc004af968f4fee72502202760396000906139c4614505565b906101000a90046001600160a01b03166139dc611c4e565b8660405180846001600160a01b03168152602001836001600160a01b03168152602001826001600160a01b03168152602001935050505060405180910390a150505050565b60006038613a2d614505565b906101000a90046001600160a01b03166001600160a01b031663aa12ae4d6040518163ffffffff1660e01b81526004016020604051808303818680613a70614560565b158015613a8557600080613a8261449a565b50505b505a613a8f6145ac565b5050505050158015613aae573d6000803e3d6000613aab61449a565b50505b505050506040513d6020811015613acd57600080613aca61449a565b50505b8101908080519250603a9150819050613ae4614505565b905010613b395760405162461bcd60e51b81526020600482015260166024820152751b585e1a5b5d5b48185cdcd95d1cc81c995858da195960521b604482015260640160405180910390613b3661449a565b50505b613b4281611b4d565b15613b9c5760405162461bcd60e51b815260206004820152601760248201527f617373657420616c726561647920737570706f72746564000000000000000000604482015260640160405180910390613b9961449a565b50505b613ba581612d66565b1515600114613bf35760405162461bcd60e51b815260206004820152600d60248201526c1a5b9d985b1a5908185cdcd95d609a1b604482015260640160405180910390613bf061449a565b50505b80603a80600181613c02614505565b018082613c0d6146dd565b505060009283526000190191602091502001600181613c2a614505565b816001600160a01b0302191690836001600160a01b0316021790613c4c6146dd565b505050603a80613c5a614505565b6001600160a01b0383166000908152603b602052909150604090208190613c7f6146dd565b5050507f0a7426a0630aad7dbc4d5ca5b7d9aac1133d77d2db987caaf4b4186c85d6593f6039600090613cb0614505565b906101000a90046001600160a01b0316613cc8611c4e565b8360405180846001600160a01b03168152602001836001600160a01b03168152602001826001600160a01b03168152602001935050505060405180910390a150565b6000603580613d17614505565b6001600160a01b038416600090815260366020529092509050613d41600160408320613852614505565b905060006035613d5284600161430f565b81613d5b614505565b8110613d6357fe5b90600052602060002001600090613d78614505565b906101000a90046001600160a01b031690508060358381613d97614505565b8110613d9f57fe5b90600052602060002001600181613db4614505565b816001600160a01b0302191690836001600160a01b0316021790613dd66146dd565b50613de691508390506001613f2d565b6001600160a01b03821660009081526036602052604090208190613e086146dd565b5050506001600160a01b03841660009081526036602052604081208190613e2d6146dd565b505050603580613e3b614505565b80613e4257fe5b60019003818190600052602060002001600181613e5d614505565b906001600160a01b0302191690613e726146dd565b505090613e7d6146dd565b505050505050565b600082613e94575060006116d9565b82820282848281613ea157fe5b0414612a1d5760405162461bcd60e51b815260040180806020018281038252602181526020018061491a6021913960400191505060405180910390613ee461449a565b50509392505050565b6000612a1d838360405160408082019052601a81527f536166654d6174683a206469766973696f6e206279207a65726f000000000000602082015261434f565b600082820183811015612a1d5760405162461bcd60e51b815260206004820152601b60248201527f536166654d6174683a206164646974696f6e206f766572666c6f770000000000604482015260640160405180910390613ee461449a565b60006038613f98614505565b6001600160a01b036101009290920a90041663046b72c460006039613fbb614505565b906101000a90046001600160a01b0316836040516001600160e01b031960e085901b1681526001600160a01b03909216600483015260248201526044016000604051808303816000878061400d614560565b1580156140225760008061401f61449a565b50505b505a61402c614811565b50505050505015801561404c573d6000803e3d600061404961449a565b50505b505050506000806038600090614060614505565b6001600160a01b036101009290920a90041663b7a5452660006039614083614505565b906101000a90046001600160a01b03166040516001600160e01b031960e084901b1681526001600160a01b039091166004820152602401604080518083038186806140cc614560565b1580156140e1576000806140de61449a565b50505b505a6140eb6145ac565b505050505015801561410a573d6000803e3d600061410761449a565b50505b505050506040513d60408110156141295760008061412661449a565b50505b81019080805192919060200180519395509293507f1780c04ddc6f0b32d866c7a3d7583f53515ef49ed2126af868f804f49160126692506000915060399050614170614505565b906101000a90046001600160a01b0316614188611c4e565b848460405180856001600160a01b03168152602001846001600160a01b0316815260200183815260200182815260200194505050505060405180910390a1505050565b806035806001816141da614505565b0180826141e56146dd565b505060009283526000190191602091502001600181614202614505565b816001600160a01b0302191690836001600160a01b03160217906142246146dd565b505050603580614232614505565b6001600160a01b03831660009081526036602052909150604090208190612fc06146dd565b6000805a63996d79a5598160e01b8152602081600483336000905af158601d01573d60011458600c01573d6000803e3d621234565260ea61109c528051925060005b60408110156142b057600082820152602001614299565b50505090506000816142c0614560565b159250505090565b8160336001816142d6614505565b816001600160a01b0302191690836001600160a01b03160217906142f86146dd565b5050508060349080516122a592916020019061472b565b6000612a1d838360405160408082019052601e81527f536166654d6174683a207375627472616374696f6e206f766572666c6f77000060208201526143fa565b600081836143e45760405162461bcd60e51b81526004018080602001828103825283818151815260200191508051906020019080838360005b838110156143a0578082015183820152602001614388565b50505050905090810190601f1680156143cd5780820380516001836020036101000a031916815260200191505b5092505050604051809103906143e161449a565b50505b5060008385816143f057fe5b0495945050505050565b600081848411156144925760405162461bcd60e51b81526004018080602001828103825283818151815260200191508051906020019080838360005b8381101561444e578082015183820152602001614436565b50505050905090810190601f16801561447b5780820380516001836020036101000a031916815260200191505b50925050506040518091039061448f61449a565b50505b505050900390565b632a2a7adb598160e01b8152600481016020815285602082015260005b868110156144d25780860151828201604001526020016144b7565b506020828760640184336000905af158601d01573d60011458600c01573d6000803e3d621234565260ea61109c52505050565b6303daa959598160e01b8152836004820152602081602483336000905af158601d01573d60011458600c01573d6000803e3d621234565260ea61109c528051935060005b60408110156122a557600082820152602001614549565b638435035b598160e01b8152836004820152602081602483336000905af158601d01573d60011458600c01573d6000803e3d621234565260ea61109c5280516000825293506020614549565b638540661f598160e01b81526145dd565b80808311156116d9575090919050565b80808310156116d9575090919050565b836004820152846024820152606060448201528660648201526084810160005b888110156146155780880151828201526020016145fd565b506060828960a40184336000905af158601d01573d60011458600c01573d6000803e3d621234565260ea61109c52815160408301513d6000853e8b8b82606087013350600060045af1505961466a8d3d6145cd565b8c0161467681876145bd565b5b8281101561468b5760008152602001614677565b50929c50505050505050565b6373509064598160e01b8152602081600483336000905af158601d01573d60011458600c01573d6000803e3d621234565260ea61109c5280516000825293506020614549565b6322bd64c0598160e01b8152836004820152846024820152600081604483336000905af158601d01573d60011458600c01573d6000803e3d621234565260ea61109c52600081526020614549565b8280614735614505565b600181600116156101000203166002900490600052602060002090601f016020900481019282601f1061477c57805160ff191683800117856147756146dd565b50506147bb565b8280016001018561478b6146dd565b505082156147bb579182015b828111156147bb578251826147aa6146dd565b505091602001919060010190614797565b506147c79291506148d7565b5090565b63bdbf8c36598160e01b8152602081600483336000905af158601d01573d60011458600c01573d6000803e3d621234565260ea61109c5280516000825293506020614549565b6385979f76598160e01b8152836004820152846024820152606060448201528760648201526084810160005b8981101561485557808901518282015260200161483d565b506060828a60a40184336000905af158601d01573d60011458600c01573d6000803e3d621234565260ea61109c52815160408301513d6000853e8c8c82606087013350600060045af150596148aa8e3d6145cd565b8d016148b681876145bd565b5b828110156148cb57600081526020016148b7565b50929d50505050505050565b808211156147c757600080826148eb6146dd565b5050506001016148d756fe6f6e6c792044414f206f7220666163746f7279206164647265737320616c6c6f776564536166654d6174683a206d756c7469706c69636174696f6e206f766572666c6f77436f6e747261637420696e7374616e63652068617320616c7265616479206265656e20696e697469616c697a6564",
  "linkReferences": {},
  "deployedLinkReferences": {}
}