{
  "_format": "hh-sol-artifact-1",
  "contractName": "PoolManagerLogic-ovm",
  "sourceName": "contracts/PoolManagerLogic.sol",
  "abi": [
    {
      "anonymous": false,
      "inputs": [
        {
          "indexed": false,
          "internalType": "address",
          "name": "fundAddress",
          "type": "address"
        },
        {
          "indexed": false,
          "internalType": "address",
          "name": "manager",
          "type": "address"
        },
        {
          "indexed": false,
          "internalType": "bytes32",
          "name": "assetKey",
          "type": "bytes32"
        }
      ],
      "name": "AssetAdded",
      "type": "event"
    },
    {
      "anonymous": false,
      "inputs": [
        {
          "indexed": false,
          "internalType": "address",
          "name": "fundAddress",
          "type": "address"
        },
        {
          "indexed": false,
          "internalType": "address",
          "name": "manager",
          "type": "address"
        },
        {
          "indexed": false,
          "internalType": "bytes32",
          "name": "assetKey",
          "type": "bytes32"
        }
      ],
      "name": "AssetRemoved",
      "type": "event"
    },
    {
      "anonymous": false,
      "inputs": [
        {
          "indexed": false,
          "internalType": "address",
          "name": "fundAddress",
          "type": "address"
        },
        {
          "indexed": false,
          "internalType": "address",
          "name": "manager",
          "type": "address"
        },
        {
          "indexed": false,
          "internalType": "bytes32",
          "name": "sourceKey",
          "type": "bytes32"
        },
        {
          "indexed": false,
          "internalType": "uint256",
          "name": "sourceAmount",
          "type": "uint256"
        },
        {
          "indexed": false,
          "internalType": "bytes32",
          "name": "destinationKey",
          "type": "bytes32"
        },
        {
          "indexed": false,
          "internalType": "uint256",
          "name": "destinationAmount",
          "type": "uint256"
        },
        {
          "indexed": false,
          "internalType": "uint256",
          "name": "time",
          "type": "uint256"
        }
      ],
      "name": "Exchange",
      "type": "event"
    },
    {
      "anonymous": false,
      "inputs": [
        {
          "indexed": false,
          "internalType": "uint256",
          "name": "newNumerator",
          "type": "uint256"
        },
        {
          "indexed": false,
          "internalType": "uint256",
          "name": "announcedFeeActivationTime",
          "type": "uint256"
        }
      ],
      "name": "ManagerFeeIncreaseAnnounced",
      "type": "event"
    },
    {
      "anonymous": false,
      "inputs": [],
      "name": "ManagerFeeIncreaseRenounced",
      "type": "event"
    },
    {
      "anonymous": false,
      "inputs": [
        {
          "indexed": false,
          "internalType": "address",
          "name": "fundAddress",
          "type": "address"
        },
        {
          "indexed": false,
          "internalType": "address",
          "name": "manager",
          "type": "address"
        },
        {
          "indexed": false,
          "internalType": "uint256",
          "name": "numerator",
          "type": "uint256"
        },
        {
          "indexed": false,
          "internalType": "uint256",
          "name": "denominator",
          "type": "uint256"
        }
      ],
      "name": "ManagerFeeSet",
      "type": "event"
    },
    {
      "anonymous": false,
      "inputs": [
        {
          "indexed": false,
          "internalType": "address",
          "name": "newManager",
          "type": "address"
        },
        {
          "indexed": false,
          "internalType": "string",
          "name": "newManagerName",
          "type": "string"
        }
      ],
      "name": "ManagerUpdated",
      "type": "event"
    },
    {
      "inputs": [
        {
          "internalType": "address",
          "name": "member",
          "type": "address"
        }
      ],
      "name": "addMember",
      "outputs": [],
      "stateMutability": "nonpayable",
      "type": "function"
    },
    {
      "inputs": [
        {
          "internalType": "address[]",
          "name": "members",
          "type": "address[]"
        }
      ],
      "name": "addMembers",
      "outputs": [],
      "stateMutability": "nonpayable",
      "type": "function"
    },
    {
      "inputs": [
        {
          "internalType": "bytes32",
          "name": "key",
          "type": "bytes32"
        }
      ],
      "name": "addToSupportedAssets",
      "outputs": [],
      "stateMutability": "nonpayable",
      "type": "function"
    },
    {
      "inputs": [],
      "name": "addressResolver",
      "outputs": [
        {
          "internalType": "contract IAddressResolver",
          "name": "",
          "type": "address"
        }
      ],
      "stateMutability": "view",
      "type": "function"
    },
    {
      "inputs": [
        {
          "internalType": "address",
          "name": "pool",
          "type": "address"
        },
        {
          "internalType": "uint256",
          "name": "numerator",
          "type": "uint256"
        }
      ],
      "name": "announceManagerFeeIncrease",
      "outputs": [],
      "stateMutability": "nonpayable",
      "type": "function"
    },
    {
      "inputs": [],
      "name": "announcedFeeIncreaseNumerator",
      "outputs": [
        {
          "internalType": "uint256",
          "name": "",
          "type": "uint256"
        }
      ],
      "stateMutability": "view",
      "type": "function"
    },
    {
      "inputs": [],
      "name": "announcedFeeIncreaseTimestamp",
      "outputs": [
        {
          "internalType": "uint256",
          "name": "",
          "type": "uint256"
        }
      ],
      "stateMutability": "view",
      "type": "function"
    },
    {
      "inputs": [
        {
          "internalType": "bytes32",
          "name": "",
          "type": "bytes32"
        }
      ],
      "name": "assetPosition",
      "outputs": [
        {
          "internalType": "uint256",
          "name": "",
          "type": "uint256"
        }
      ],
      "stateMutability": "view",
      "type": "function"
    },
    {
      "inputs": [
        {
          "internalType": "bytes32",
          "name": "key",
          "type": "bytes32"
        }
      ],
      "name": "assetValue",
      "outputs": [
        {
          "internalType": "uint256",
          "name": "",
          "type": "uint256"
        }
      ],
      "stateMutability": "view",
      "type": "function"
    },
    {
      "inputs": [
        {
          "internalType": "address",
          "name": "newManager",
          "type": "address"
        },
        {
          "internalType": "string",
          "name": "newManagerName",
          "type": "string"
        }
      ],
      "name": "changeManager",
      "outputs": [],
      "stateMutability": "nonpayable",
      "type": "function"
    },
    {
      "inputs": [
        {
          "internalType": "address",
          "name": "pool",
          "type": "address"
        }
      ],
      "name": "commitManagerFeeIncrease",
      "outputs": [],
      "stateMutability": "nonpayable",
      "type": "function"
    },
    {
      "inputs": [
        {
          "internalType": "bytes32",
          "name": "data",
          "type": "bytes32"
        }
      ],
      "name": "convert32toAddress",
      "outputs": [
        {
          "internalType": "address",
          "name": "o",
          "type": "address"
        }
      ],
      "stateMutability": "pure",
      "type": "function"
    },
    {
      "inputs": [
        {
          "internalType": "bytes32",
          "name": "sourceKey",
          "type": "bytes32"
        },
        {
          "internalType": "uint256",
          "name": "sourceAmount",
          "type": "uint256"
        },
        {
          "internalType": "bytes32",
          "name": "destinationKey",
          "type": "bytes32"
        }
      ],
      "name": "exchange",
      "outputs": [],
      "stateMutability": "nonpayable",
      "type": "function"
    },
    {
      "inputs": [
        {
          "internalType": "address",
          "name": "to",
          "type": "address"
        },
        {
          "internalType": "bytes",
          "name": "data",
          "type": "bytes"
        }
      ],
      "name": "execTransaction",
      "outputs": [
        {
          "internalType": "bool",
          "name": "",
          "type": "bool"
        }
      ],
      "stateMutability": "nonpayable",
      "type": "function"
    },
    {
      "inputs": [],
      "name": "factory",
      "outputs": [
        {
          "internalType": "address",
          "name": "",
          "type": "address"
        }
      ],
      "stateMutability": "view",
      "type": "function"
    },
    {
      "inputs": [
        {
          "internalType": "bytes",
          "name": "data",
          "type": "bytes"
        },
        {
          "internalType": "uint8",
          "name": "inputNum",
          "type": "uint8"
        },
        {
          "internalType": "uint8",
          "name": "arrayIndex",
          "type": "uint8"
        }
      ],
      "name": "getArrayIndex",
      "outputs": [
        {
          "internalType": "bytes32",
          "name": "",
          "type": "bytes32"
        }
      ],
      "stateMutability": "pure",
      "type": "function"
    },
    {
      "inputs": [
        {
          "internalType": "bytes",
          "name": "data",
          "type": "bytes"
        },
        {
          "internalType": "uint8",
          "name": "inputNum",
          "type": "uint8"
        }
      ],
      "name": "getArrayLast",
      "outputs": [
        {
          "internalType": "bytes32",
          "name": "",
          "type": "bytes32"
        }
      ],
      "stateMutability": "pure",
      "type": "function"
    },
    {
      "inputs": [
        {
          "internalType": "bytes",
          "name": "data",
          "type": "bytes"
        },
        {
          "internalType": "uint8",
          "name": "inputNum",
          "type": "uint8"
        }
      ],
      "name": "getArrayLength",
      "outputs": [
        {
          "internalType": "uint256",
          "name": "",
          "type": "uint256"
        }
      ],
      "stateMutability": "pure",
      "type": "function"
    },
    {
      "inputs": [
        {
          "internalType": "bytes32",
          "name": "key",
          "type": "bytes32"
        }
      ],
      "name": "getAssetProxy",
      "outputs": [
        {
          "internalType": "address",
          "name": "",
          "type": "address"
        }
      ],
      "stateMutability": "view",
      "type": "function"
    },
    {
      "inputs": [],
      "name": "getFundComposition",
      "outputs": [
        {
          "internalType": "bytes32[]",
          "name": "",
          "type": "bytes32[]"
        },
        {
          "internalType": "uint256[]",
          "name": "",
          "type": "uint256[]"
        },
        {
          "internalType": "uint256[]",
          "name": "",
          "type": "uint256[]"
        }
      ],
      "stateMutability": "view",
      "type": "function"
    },
    {
      "inputs": [
        {
          "internalType": "bytes",
          "name": "data",
          "type": "bytes"
        },
        {
          "internalType": "uint8",
          "name": "inputNum",
          "type": "uint8"
        }
      ],
      "name": "getInput",
      "outputs": [
        {
          "internalType": "bytes32",
          "name": "",
          "type": "bytes32"
        }
      ],
      "stateMutability": "pure",
      "type": "function"
    },
    {
      "inputs": [
        {
          "internalType": "address",
          "name": "pool",
          "type": "address"
        }
      ],
      "name": "getManagerFee",
      "outputs": [
        {
          "internalType": "uint256",
          "name": "",
          "type": "uint256"
        },
        {
          "internalType": "uint256",
          "name": "",
          "type": "uint256"
        }
      ],
      "stateMutability": "view",
      "type": "function"
    },
    {
      "inputs": [],
      "name": "getManagerFeeIncreaseInfo",
      "outputs": [
        {
          "internalType": "uint256",
          "name": "",
          "type": "uint256"
        },
        {
          "internalType": "uint256",
          "name": "",
          "type": "uint256"
        }
      ],
      "stateMutability": "view",
      "type": "function"
    },
    {
      "inputs": [],
      "name": "getMembers",
      "outputs": [
        {
          "internalType": "address[]",
          "name": "",
          "type": "address[]"
        }
      ],
      "stateMutability": "view",
      "type": "function"
    },
    {
      "inputs": [
        {
          "internalType": "bytes",
          "name": "data",
          "type": "bytes"
        }
      ],
      "name": "getMethod",
      "outputs": [
        {
          "internalType": "bytes4",
          "name": "",
          "type": "bytes4"
        }
      ],
      "stateMutability": "pure",
      "type": "function"
    },
    {
      "inputs": [],
      "name": "getSupportedAssets",
      "outputs": [
        {
          "internalType": "bytes32[]",
          "name": "",
          "type": "bytes32[]"
        }
      ],
      "stateMutability": "view",
      "type": "function"
    },
    {
      "inputs": [],
      "name": "getSuspendedAssets",
      "outputs": [
        {
          "internalType": "bytes32[]",
          "name": "",
          "type": "bytes32[]"
        },
        {
          "internalType": "bool[]",
          "name": "",
          "type": "bool[]"
        }
      ],
      "stateMutability": "view",
      "type": "function"
    },
    {
      "inputs": [
        {
          "internalType": "address",
          "name": "_factory",
          "type": "address"
        },
        {
          "internalType": "address",
          "name": "_manager",
          "type": "address"
        },
        {
          "internalType": "string",
          "name": "_managerName",
          "type": "string"
        },
        {
          "internalType": "contract IAddressResolver",
          "name": "_addressResolver",
          "type": "address"
        },
        {
          "internalType": "bytes32[]",
          "name": "_supportedAssets",
          "type": "bytes32[]"
        }
      ],
      "name": "initialize",
      "outputs": [],
      "stateMutability": "nonpayable",
      "type": "function"
    },
    {
      "inputs": [
        {
          "internalType": "bytes32",
          "name": "key",
          "type": "bytes32"
        }
      ],
      "name": "isAssetSupported",
      "outputs": [
        {
          "internalType": "bool",
          "name": "",
          "type": "bool"
        }
      ],
      "stateMutability": "view",
      "type": "function"
    },
    {
      "inputs": [
        {
          "internalType": "address",
          "name": "member",
          "type": "address"
        }
      ],
      "name": "isMemberAllowed",
      "outputs": [
        {
          "internalType": "bool",
          "name": "",
          "type": "bool"
        }
      ],
      "stateMutability": "view",
      "type": "function"
    },
    {
      "inputs": [],
      "name": "manager",
      "outputs": [
        {
          "internalType": "address",
          "name": "",
          "type": "address"
        }
      ],
      "stateMutability": "view",
      "type": "function"
    },
    {
      "inputs": [],
      "name": "managerName",
      "outputs": [
        {
          "internalType": "string",
          "name": "",
          "type": "string"
        }
      ],
      "stateMutability": "view",
      "type": "function"
    },
    {
      "inputs": [],
      "name": "numberOfMembers",
      "outputs": [
        {
          "internalType": "uint256",
          "name": "",
          "type": "uint256"
        }
      ],
      "stateMutability": "view",
      "type": "function"
    },
    {
      "inputs": [],
      "name": "numberOfSupportedAssets",
      "outputs": [
        {
          "internalType": "uint256",
          "name": "",
          "type": "uint256"
        }
      ],
      "stateMutability": "view",
      "type": "function"
    },
    {
      "inputs": [
        {
          "internalType": "bytes32",
          "name": "",
          "type": "bytes32"
        }
      ],
      "name": "persistentAsset",
      "outputs": [
        {
          "internalType": "bool",
          "name": "",
          "type": "bool"
        }
      ],
      "stateMutability": "view",
      "type": "function"
    },
    {
      "inputs": [
        {
          "internalType": "bytes",
          "name": "data",
          "type": "bytes"
        },
        {
          "internalType": "uint256",
          "name": "offset",
          "type": "uint256"
        },
        {
          "internalType": "uint256",
          "name": "length",
          "type": "uint256"
        }
      ],
      "name": "read32",
      "outputs": [
        {
          "internalType": "bytes32",
          "name": "o",
          "type": "bytes32"
        }
      ],
      "stateMutability": "pure",
      "type": "function"
    },
    {
      "inputs": [
        {
          "internalType": "bytes",
          "name": "data",
          "type": "bytes"
        },
        {
          "internalType": "uint256",
          "name": "offset",
          "type": "uint256"
        },
        {
          "internalType": "uint256",
          "name": "length",
          "type": "uint256"
        }
      ],
      "name": "read4left",
      "outputs": [
        {
          "internalType": "bytes4",
          "name": "o",
          "type": "bytes4"
        }
      ],
      "stateMutability": "pure",
      "type": "function"
    },
    {
      "inputs": [
        {
          "internalType": "bytes32",
          "name": "key",
          "type": "bytes32"
        }
      ],
      "name": "removeFromSupportedAssets",
      "outputs": [],
      "stateMutability": "nonpayable",
      "type": "function"
    },
    {
      "inputs": [
        {
          "internalType": "address",
          "name": "member",
          "type": "address"
        }
      ],
      "name": "removeMember",
      "outputs": [],
      "stateMutability": "nonpayable",
      "type": "function"
    },
    {
      "inputs": [
        {
          "internalType": "address[]",
          "name": "members",
          "type": "address[]"
        }
      ],
      "name": "removeMembers",
      "outputs": [],
      "stateMutability": "nonpayable",
      "type": "function"
    },
    {
      "inputs": [],
      "name": "removeTrader",
      "outputs": [],
      "stateMutability": "nonpayable",
      "type": "function"
    },
    {
      "inputs": [],
      "name": "renounceManagerFeeIncrease",
      "outputs": [],
      "stateMutability": "nonpayable",
      "type": "function"
    },
    {
      "inputs": [
        {
          "internalType": "address",
          "name": "_addressResolver",
          "type": "address"
        }
      ],
      "name": "setAddressResolver",
      "outputs": [],
      "stateMutability": "nonpayable",
      "type": "function"
    },
    {
      "inputs": [
        {
          "internalType": "address",
          "name": "newTrader",
          "type": "address"
        }
      ],
      "name": "setTrader",
      "outputs": [],
      "stateMutability": "nonpayable",
      "type": "function"
    },
    {
      "inputs": [
        {
          "internalType": "uint256",
          "name": "",
          "type": "uint256"
        }
      ],
      "name": "supportedAssets",
      "outputs": [
        {
          "internalType": "bytes32",
          "name": "",
          "type": "bytes32"
        }
      ],
      "stateMutability": "view",
      "type": "function"
    },
    {
      "inputs": [],
      "name": "trader",
      "outputs": [
        {
          "internalType": "address",
          "name": "",
          "type": "address"
        }
      ],
      "stateMutability": "view",
      "type": "function"
    },
    {
      "inputs": [
        {
          "internalType": "bytes32",
          "name": "key",
          "type": "bytes32"
        }
      ],
      "name": "validateAsset",
      "outputs": [
        {
          "internalType": "bool",
          "name": "",
          "type": "bool"
        }
      ],
      "stateMutability": "view",
      "type": "function"
    }
  ],
  "bytecode": "0x60806040523480156200001c576000806200001962000023565b50505b5062000090565b632a2a7adb598160e01b8152600481016020815285602082015260005b868110156200005d57808601518282016040015260200162000040565b506020828760640184336000905af158600e01573d6000803e3d6000fd5b3d6001141558600a015760016000f35b505050565b61588780620000a06000396000f3fe6080604052348015610019576000806100166153fc565b50505b506004361061029e5760003560e01c806382f86acc11610170578063c68dbb37116100d7578063e5ea775911610090578063e5ea77591461101f578063eb94917d14611045578063ed5b165d146111d3578063ee52a2f3146111db578063f09d14d71461120d578063fed4416a146112f35761029e565b8063c68dbb3714610eaa578063ca6d56dc14610ed0578063d44fa33e14610eff578063d78d7c2e14610f25578063db896b5714610f4b578063e5406dbf146110175761029e565b8063a30e3fa911610129578063a30e3fa914610d6d578063a6bc18f914610d75578063b8bd81e614610da4578063bbbf725b14610dac578063c3c6279f14610ddb578063c45a015514610ea25761029e565b806382f86acc14610b3b5780638f32343914610c07578063936553c414610c0f578063969eed2714610c17578063998546e314610c465780639eab525314610d125761029e565b806346ee84b01161021457806367079749116101cd57806367079749146109205780636708f5d71461095a5780636f4d469b1461098f5780637ae7cfb514610a545780637b4d0c6314610b2b5780637c8afd5114610b335761029e565b806346ee84b014610626578063481c6a75146106eb57806352213663146106f357806353d9133e146107ca578063568b5a2f146107f05780635f6eceab146108d95761029e565b80631430238711610266578063143023871461042b5780631758078b1461045a5780631eba30771461046257806321f8c984146104885780633ded65301461052957806341dc16c31461054f5761029e565b8063023f21de146102ac5780630499123f146102d457806305a2ee2a1461030c57806309ff5c7d146103305780630b1ca49a146103fc575b6000806102a96153fc565b50505b6102d2600480360360208110156102cb576000806102c86153fc565b50505b5035611372565b005b6102fa600480360360208110156102f3576000806102f06153fc565b50505b5035611753565b60405190815260200160405180910390f35b610314611a01565b6040516001600160a01b03909116815260200160405180910390f35b6102fa6004803603604081101561034f5760008061034c6153fc565b50505b810190602081018135600160201b8111156103725760008061036f6153fc565b50505b82018360208201111561038d5760008061038a6153fc565b50505b803590602001918460018302840111600160201b831117156103b7576000806103b46153fc565b50505b91908080601f01602080910402602001604051908101604052818152929190602084018383808284376000920191909152509295505050903560ff169150611a209050565b6102d26004803603602081101561041b576000806104186153fc565b50505b50356001600160a01b0316611abb565b6102d26004803603602081101561044a576000806104476153fc565b50505b50356001600160a01b0316611b56565b610314611c0d565b610314600480360360208110156104815760008061047e6153fc565b50505b5035611c2f565b610490611c32565b604051808060200180602001838103835285818151815260200191508051906020019060200280838360005b838110156104d45780820151838201526020016104bc565b50505050905001838103825284818151815260200191508051906020019060200280838360005b838110156105135780820151838201526020016104fb565b5050505090500194505050505060405180910390f35b61031460048036036020811015610548576000806105456153fc565b50505b5035611ed7565b6102fa6004803603606081101561056e5760008061056b6153fc565b50505b810190602081018135600160201b8111156105915760008061058e6153fc565b50505b8201836020820111156105ac576000806105a96153fc565b50505b803590602001918460018302840111600160201b831117156105d6576000806105d36153fc565b50505b91908080601f01602080910402602001604051908101604052818152929190602084018383808284376000920191909152509295505060ff833581169450602090930135909216915061219d9050565b6102d260048036036020811015610645576000806106426153fc565b50505b810190602081018135600160201b811115610668576000806106656153fc565b50505b820183602082011115610683576000806106806153fc565b50505b803590602001918460208302840111600160201b831117156106ad576000806106aa6153fc565b50505b919080806020026020016040519081016040528093929190818152602001838360200280828437600092019190915250929550612295945050505050565b61031461236e565b6102d2600480360360408110156107125760008061070f6153fc565b50505b6001600160a01b038235169190810190604081016020820135600160201b811115610745576000806107426153fc565b50505b8201836020820111156107605760008061075d6153fc565b50505b803590602001918460018302840111600160201b8311171561078a576000806107876153fc565b50505b91908080601f016020809104026020016040519081016040528181529291906020840183838082843760009201919091525092955061237b945050505050565b6102d2600480360360208110156107e9576000806107e66153fc565b50505b50356124f0565b6108bc6004803603606081101561080f5760008061080c6153fc565b50505b810190602081018135600160201b8111156108325760008061082f6153fc565b50505b82018360208201111561084d5760008061084a6153fc565b50505b803590602001918460018302840111600160201b83111715610877576000806108746153fc565b50505b91908080601f016020809104026020016040519081016040528181529291906020840183838082843760009201919091525092955050823593505050602001356125c2565b6040516001600160e01b0319909116815260200160405180910390f35b610908600480360360208110156108f8576000806108f56153fc565b50505b50356001600160a01b031661264b565b60405191825260208201526040908101905180910390f35b6109466004803603602081101561093f5760008061093c6153fc565b50505b503561272a565b604051901515815260200160405180910390f35b6102d260048036036040811015610979576000806109766153fc565b50505b506001600160a01b038135169060200135612751565b6102d2600480360360208110156109ae576000806109ab6153fc565b50505b810190602081018135600160201b8111156109d1576000806109ce6153fc565b50505b8201836020820111156109ec576000806109e96153fc565b50505b803590602001918460208302840111600160201b83111715610a1657600080610a136153fc565b50505b919080806020026020016040519081016040528093929190818152602001838360200280828437600092019190915250929550612a81945050505050565b61094660048036036040811015610a7357600080610a706153fc565b50505b6001600160a01b038235169190810190604081016020820135600160201b811115610aa657600080610aa36153fc565b50505b820183602082011115610ac157600080610abe6153fc565b50505b803590602001918460018302840111600160201b83111715610aeb57600080610ae86153fc565b50505b91908080601f0160208091040260200160405190810160405281815292919060208401838380828437600092019190915250929550612b4a945050505050565b6102fa613082565b6102d261308f565b6102fa60048036036040811015610b5a57600080610b576153fc565b50505b810190602081018135600160201b811115610b7d57600080610b7a6153fc565b50505b820183602082011115610b9857600080610b956153fc565b50505b803590602001918460018302840111600160201b83111715610bc257600080610bbf6153fc565b50505b91908080601f01602080910402602001604051908101604052818152929190602084018383808284376000920191909152509295505050903560ff1691506131459050565b6102fa61315c565b6102fa613166565b6102d260048036036020811015610c3657600080610c336153fc565b50505b50356001600160a01b0316613179565b6102fa60048036036040811015610c6557600080610c626153fc565b50505b810190602081018135600160201b811115610c8857600080610c856153fc565b50505b820183602082011115610ca357600080610ca06153fc565b50505b803590602001918460018302840111600160201b83111715610ccd57600080610cca6153fc565b50505b91908080601f01602080910402602001604051908101604052818152929190602084018383808284376000920191909152509295505050903560ff1691506132989050565b610d1a6132c9565b60405160208082528190810183818151815260200191508051906020019060200280838360005b83811015610d59578082015183820152602001610d41565b505050509050019250505060405180910390f35b6102fa613350565b6102d260048036036020811015610d9457600080610d916153fc565b50505b50356001600160a01b031661335d565b6102d26133eb565b61094660048036036020811015610dcb57600080610dc86153fc565b50505b50356001600160a01b03166134ba565b6108bc60048036036020811015610dfa57600080610df76153fc565b50505b810190602081018135600160201b811115610e1d57600080610e1a6153fc565b50505b820183602082011115610e3857600080610e356153fc565b50505b803590602001918460018302840111600160201b83111715610e6257600080610e5f6153fc565b50505b91908080601f01602080910402602001604051908101604052818152929190602084018383808284376000920191909152509295506134e2945050505050565b6103146134f1565b6102fa60048036036020811015610ec957600080610ec66153fc565b50505b50356134fd565b6102d260048036036020811015610eef57600080610eec6153fc565b50505b50356001600160a01b0316613525565b61094660048036036020811015610f1e57600080610f1b6153fc565b50505b50356135c1565b6102fa60048036036020811015610f4457600080610f416153fc565b50505b50356135d7565b6102fa60048036036060811015610f6a57600080610f676153fc565b50505b810190602081018135600160201b811115610f8d57600080610f8a6153fc565b50505b820183602082011115610fa857600080610fa56153fc565b50505b803590602001918460018302840111600160201b83111715610fd257600080610fcf6153fc565b50505b91908080601f016020809104026020016040519081016040528181529291906020840183838082843760009201919091525092955050823593505050602001356135ef565b610d1a613673565b6109466004803603602081101561103e5760008061103b6153fc565b50505b50356136de565b6102d2600480360360a0811015611064576000806110616153fc565b50505b6001600160a01b038235811692602081013590911691810190606081016040820135600160201b8111156110a05760008061109d6153fc565b50505b8201836020820111156110bb576000806110b86153fc565b50505b803590602001918460018302840111600160201b831117156110e5576000806110e26153fc565b50505b91908080601f016020809104026020016040519081016040528181529291906020840183838082843760009201919091525092956001600160a01b03853516959094909350604081019250602001359050600160201b8111156111505760008061114d6153fc565b50505b82018360208201111561116b576000806111686153fc565b50505b803590602001918460208302840111600160201b83111715611195576000806111926153fc565b50505b919080806020026020016040519081016040528093929190818152602001838360200280828437600092019190915250929550613934945050505050565b610908613b59565b6102d2600480360360608110156111fa576000806111f76153fc565b50505b5080359060208101359060400135613b78565b6112156140f9565b60405180806020018060200180602001848103845287818151815260200191508051906020019060200280838360005b8381101561125d578082015183820152602001611245565b50505050905001848103835286818151815260200191508051906020019060200280838360005b8381101561129c578082015183820152602001611284565b50505050905001848103825285818151815260200191508051906020019060200280838360005b838110156112db5780820151838201526020016112c3565b50505050905001965050505050505060405180910390f35b6112fb614525565b60405160208082528190810183818151815260200191508051906020019080838360005b8381101561133757808201518382015260200161131f565b50505050905090810190601f1680156113645780820380516001836020036101000a031916815260200191505b509250505060405180910390f35b6000603961137e615467565b906101000a90046001600160a01b03166001600160a01b0316638da5cb5b6040518163ffffffff1660e01b815260040160206040518083038186806113c16154c2565b1580156113d6576000806113d36153fc565b50505b505a6113e061550e565b50505050501580156113ff573d6000803e3d60006113fc6153fc565b50505b505050506040513d602081101561141e5760008061141b6153fc565b50505b8101908080516001600160a01b0316925050505a61143a6155f9565b6001600160a01b0316148061146f575061145261236e565b6001600160a01b03165a6114646155f9565b6001600160a01b0316145b8061149a575061147d611c0d565b6001600160a01b03165a61148f6155f9565b6001600160a01b0316145b6114f35760405162461bcd60e51b815260206004820152601b60248201527f6f6e6c79206d616e616765722c20747261646572206f722044414f00000000006044820152606401604051809103906114f06153fc565b50505b6114fc816135c1565b61154b5760405162461bcd60e51b8152602060048201526013602482015272185cdcd95d081b9bdd081cdd5c1c1bdc9d1959606a1b6044820152606401604051809103906115486153fc565b50505b6000818152603c60205260409020600090611564615467565b906101000a900460ff16156115c85760405162461bcd60e51b815260206004820152601f60248201527f63616e6e6f742072656d6f76652070657273697374656e7420617373657473006044820152606401604051809103906115c56153fc565b50505b6115d1816136de565b151560011415611747576115e481611ed7565b6001600160a01b03166370a082315a63996d79a5598160e01b8152602081600483336000905af158600e01573d6000803e3d6000fd5b3d6001141558600a015760016000f35b8051925060005b604081101561164857600082820152602001611631565b5050506040516001600160e01b031960e084901b1681526001600160a01b03909116600482015260240160206040518083038186806116856154c2565b15801561169a576000806116976153fc565b50505b505a6116a461550e565b50505050501580156116c3573d6000803e3d60006116c06153fc565b50505b505050506040513d60208110156116e2576000806116df6153fc565b50505b8101908080511592506117479150505760405162461bcd60e51b815260206004820152601d60248201527f63616e6e6f742072656d6f7665206e6f6e2d656d7074792061737365740000006044820152606401604051809103906117446153fc565b50505b611750816145d9565b50565b6000806038611760615467565b906101000a90046001600160a01b03166001600160a01b03166321f8a7216c45786368616e6765526174657360981b6040516001600160e01b031960e084901b168152600481019190915260240160206040518083038186806117c16154c2565b1580156117d6576000806117d36153fc565b50505b505a6117e061550e565b50505050501580156117ff573d6000803e3d60006117fc6153fc565b50505b505050506040513d602081101561181e5760008061181b6153fc565b50505b8101908080516001600160a01b0316925063654a60ac915084905061184281611ed7565b6001600160a01b03166370a082315a63996d79a5598160e01b8152602081600483336000905af158600e01573d6000803e3d6000fd5b3d6001141558600a015760016000f35b8051925060005b60408110156118a65760008282015260200161188f565b5050506040516001600160e01b031960e084901b1681526001600160a01b03909116600482015260240160206040518083038186806118e36154c2565b1580156118f8576000806118f56153fc565b50505b505a61190261550e565b5050505050158015611921573d6000803e3d600061191e6153fc565b50505b505050506040513d60208110156119405760008061193d6153fc565b50505b8101908080519250631cd554d160e21b915060409050516001600160e01b031960e086901b16815260048101939093526024830191909152604482015260640160206040518083038186806119936154c2565b1580156119a8576000806119a56153fc565b50505b505a6119b261550e565b50505050501580156119d1573d6000803e3d60006119ce6153fc565b50505b505050506040513d60208110156119f0576000806119ed6153fc565b50505b81019080805193505050505b919050565b60006038611a0d615467565b906101000a90046001600160a01b031681565b600080611a38848460200260040160ff1660206135ef565b90506000611a4b856004840160206135ef565b905080611a9c5760405162461bcd60e51b8152602060048201526012602482015271696e707574206973206e6f7420617272617960701b604482015260640160405180910390611a996153fc565b50505b611ab08560208084028501600401906135ef565b925050505b92915050565b60006033611ac7615467565b906101000a90046001600160a01b03166001600160a01b03165a611ae96155f9565b6001600160a01b031614611b3b5760405162461bcd60e51b815260206004820152600c60248201526b37b7363c9036b0b730b3b2b960a11b604482015260640160405180910390611b386153fc565b50505b611b44816134ba565b611b4d57611750565b611750816147a0565b60006039611b62615467565b906101000a90046001600160a01b03166001600160a01b03165a611b846155f9565b6001600160a01b031614611bd75760405162461bcd60e51b815260206004820152600d60248201526c3737903832b936b4b9b9b4b7b760991b604482015260640160405180910390611bd46153fc565b50505b806038600181611be5615467565b816001600160a01b0302191690836001600160a01b0316021790611c0761563f565b50505050565b6000806037611c1a615467565b906101000a90046001600160a01b0316905090565b90565b6060806000603a80611c42615467565b9050905060608167ffffffffffffffff81118015611c6857600080611c656153fc565b50505b50604051908082528060200260200182016040528015611c92578160200160208202803683370190505b50905060608267ffffffffffffffff81118015611cb757600080611cb46153fc565b50505b50604051908082528060200260200182016040528015611ce1578160200160208202803683370190505b5090506000806038611cf1615467565b906101000a90046001600160a01b03166001600160a01b03166321f8a7216b53797374656d53746174757360a01b6040516001600160e01b031960e084901b16815260048101919091526024016020604051808303818680611d516154c2565b158015611d6657600080611d636153fc565b50505b505a611d7061550e565b5050505050158015611d8f573d6000803e3d6000611d8c6153fc565b50505b505050506040513d6020811015611dae57600080611dab6153fc565b50505b81019080805193506000925050505b84811015611ecb576000603a8281611dd3615467565b8110611ddb57fe5b90600052602060002001611ded615467565b905080858381518110611dfc57fe5b602002602001018181525050826001600160a01b03166342a28e21826040516001600160e01b031960e084901b16815260048101919091526024016000604051808303818680611e4a6154c2565b158015611e5f57600080611e5c6153fc565b50505b505a611e6961550e565b5050505050925050508015611e7c575060015b611ea3576001848381518110611e8e57fe5b91151560209283029190910190910152611ec2565b6000848381518110611eb157fe5b911515602092830291909101909101525b50600101611dbd565b50919450925050509091565b600080806038611ee5615467565b906101000a90046001600160a01b03166001600160a01b03166321f8a721680a6f2dce8d0cae8d2f60bb1b6040516001600160e01b031960e084901b16815260048101919091526024016020604051808303818680611f426154c2565b158015611f5757600080611f546153fc565b50505b505a611f6161550e565b5050505050158015611f80573d6000803e3d6000611f7d6153fc565b50505b505050506040513d6020811015611f9f57600080611f9c6153fc565b50505b8101908080516001600160a01b03169250633260803991508590506040516001600160e01b031960e084901b16815260048101919091526024016020604051808303818680611fec6154c2565b15801561200157600080611ffe6153fc565b50505b505a61200b61550e565b505050505015801561202a573d6000803e3d60006120276153fc565b50505b505050506040513d6020811015612049576000806120466153fc565b50505b81019080805193505050506001600160a01b0381166120a55760405162461bcd60e51b815260206004820152600b60248201526a696e76616c6964206b657960a81b6044820152606401604051809103906120a26153fc565b50505b6000816001600160a01b031663ec5568896040518163ffffffff1660e01b815260040160206040518083038186806120db6154c2565b1580156120f0576000806120ed6153fc565b50505b505a6120fa61550e565b5050505050158015612119573d6000803e3d60006121166153fc565b50505b505050506040513d6020811015612138576000806121356153fc565b50505b81019080805193505050506001600160a01b0381166121965760405162461bcd60e51b815260206004820152600d60248201526c696e76616c69642070726f787960981b6044820152606401604051809103906121936153fc565b50505b9392505050565b6000806121b5858560200260040160ff1660206135ef565b905060006121c8866004840160206135ef565b9050806122195760405162461bcd60e51b8152602060048201526012602482015271696e707574206973206e6f7420617272617960701b6044820152606401604051809103906122166153fc565b50505b60ff841681116122715760405162461bcd60e51b815260206004820152601660248201527534b73b30b634b21030b93930bc903837b9b4ba34b7b760511b60448201526064016040518091039061226e6153fc565b50505b61228b866020600160ff88160181028501600401906135ef565b9695505050505050565b600060336122a1615467565b906101000a90046001600160a01b03166001600160a01b03165a6122c36155f9565b6001600160a01b0316146123155760405162461bcd60e51b815260206004820152600c60248201526b37b7363c9036b0b730b3b2b960a11b6044820152606401604051809103906123126153fc565b50505b60005b815181101561236a5761233d82828151811061233057fe5b60200260200101516134ba565b61234657612362565b61236282828151811061235557fe5b60200260200101516147a0565b600101612318565b5050565b6000806033611c1a615467565b60006033612387615467565b906101000a90046001600160a01b03166001600160a01b03165a6123a96155f9565b6001600160a01b0316146123fb5760405162461bcd60e51b815260206004820152600c60248201526b37b7363c9036b0b730b3b2b960a11b6044820152606401604051809103906123f86153fc565b50505b816033600181612409615467565b816001600160a01b0302191690836001600160a01b031602179061242b61563f565b50505080603490805161244292916020019061568d565b507f6ed15082ad038474841528b5badca105106d4463e44b5d434130dfb299aa366982826040516001600160a01b038316815260406020820181815290820183818151815260200191508051906020019080838360005b838110156124b1578082015183820152602001612499565b50505050905090810190601f1680156124de5780820380516001836020036101000a031916815260200191505b50935050505060405180910390a15050565b600060336124fc615467565b906101000a90046001600160a01b03166001600160a01b03165a61251e6155f9565b6001600160a01b0316148061256757506000603761253a615467565b906101000a90046001600160a01b03166001600160a01b03165a61255c6155f9565b6001600160a01b0316145b6125b95760405162461bcd60e51b815260206004820152601660248201527537b7363c9036b0b730b3b2b91037b9103a3930b232b960511b6044820152606401604051809103906125b66153fc565b50505b61175081614913565b6000818301845110156126245760405162461bcd60e51b815260206004820152601b60248201527f52656164696e67206279746573206f7574206f6620626f756e647300000000006044820152606401604051809103906126216153fc565b50505b826020018401519050816004038015612643576008810260020a820491505b509392505050565b600080806039612659615467565b906101000a90046001600160a01b03166001600160a01b031663b7a54526846040516001600160e01b031960e084901b1681526001600160a01b039091166004820152602401604080518083038186806126b16154c2565b1580156126c6576000806126c36153fc565b50505b505a6126d061550e565b50505050501580156126ef573d6000803e3d60006126ec6153fc565b50505b505050506040513d604081101561270e5760008061270b6153fc565b50505b8101908080519291906020018051939550929350505050915091565b603c60205280600052604060002060009150612744615467565b906101000a900460ff1681565b6000603361275d615467565b906101000a90046001600160a01b03166001600160a01b03165a61277f6155f9565b6001600160a01b0316146127d15760405162461bcd60e51b815260206004820152600c60248201526b37b7363c9036b0b730b3b2b960a11b6044820152606401604051809103906127ce6153fc565b50505b60008060396127de615467565b906101000a90046001600160a01b03166001600160a01b0316635c9bfc2b6040518163ffffffff1660e01b815260040160206040518083038186806128216154c2565b158015612836576000806128336153fc565b50505b505a61284061550e565b505050505015801561285f573d6000803e3d600061285c6153fc565b50505b505050506040513d602081101561287e5760008061287b6153fc565b50505b81019080805193506000925082915061289890508561264b565b9092509050808411156128ed5760405162461bcd60e51b815260206004820152601060248201526f34b73b30b634b210333930b1ba34b7b760811b6044820152606401604051809103906128ea6153fc565b50505b6128f78284614bf8565b8411156129535760405162461bcd60e51b815260206004820152601960248201527f657863656564656420616c6c6f77656420696e637265617365000000000000006044820152606401604051809103906129506153fc565b50505b6000806039612960615467565b906101000a90046001600160a01b03166001600160a01b031663ebee461d6040518163ffffffff1660e01b815260040160206040518083038186806129a36154c2565b1580156129b8576000806129b56153fc565b50505b505a6129c261550e565b50505050501580156129e1573d6000803e3d60006129de6153fc565b50505b505050506040513d6020811015612a00576000806129fd6153fc565b50505b8101908080519350879250829150603d9050612a1a61563f565b505050805a612a2761572d565b0180603e612a3361563f565b5050507f4db9119741646c419f1ceccdf112b5b9a9b4516355e742e1fa9c479f4dec98da85603e612a62615467565b60405191825260208201526040908101905180910390a1505050505050565b60006033612a8d615467565b906101000a90046001600160a01b03166001600160a01b03165a612aaf6155f9565b6001600160a01b031614612b015760405162461bcd60e51b815260206004820152600c60248201526b37b7363c9036b0b730b3b2b960a11b604482015260640160405180910390612afe6153fc565b50505b60005b815181101561236a57612b1c82828151811061233057fe5b15612b2657612b42565b612b42828281518110612b3557fe5b6020026020010151614c57565b600101612b04565b6000806033612b57615467565b906101000a90046001600160a01b03166001600160a01b03165a612b796155f9565b6001600160a01b03161480612bc2575060006037612b95615467565b906101000a90046001600160a01b03166001600160a01b03165a612bb76155f9565b6001600160a01b0316145b612c145760405162461bcd60e51b815260206004820152601660248201527537b7363c9036b0b730b3b2b91037b9103a3930b232b960511b604482015260640160405180910390612c116153fc565b50505b6001600160a01b038316612c775760405162461bcd60e51b815260206004820152601c60248201527f6e6f6e2d7a65726f206164647265737320697320726571756972656400000000604482015260640160405180910390612c746153fc565b50505b6000806039612c84615467565b906101000a90046001600160a01b03166001600160a01b0316637027ea6c856040516001600160e01b031960e084901b1681526001600160a01b0390911660048201526024016020604051808303818680612cdd6154c2565b158015612cf257600080612cef6153fc565b50505b505a612cfc61550e565b5050505050158015612d1b573d6000803e3d6000612d186153fc565b50505b505050506040513d6020811015612d3a57600080612d376153fc565b50505b81019080805193505050506001600160a01b038116612d9e5760405162461bcd60e51b815260206004820152601360248201527234b73b30b634b2103232b9ba34b730ba34b7b760691b604482015260640160405180910390612d9b6153fc565b50505b600080600080846001600160a01b031663e23ff4375a63996d79a5598160e01b8152602081600483336000905af158600e01573d6000803e3d6000fd5b3d6001141558600a015760016000f35b8051925060005b6040811015612e0957600082820152602001612df2565b505050896040518363ffffffff1660e01b815260040180836001600160a01b0316815260200180602001828103825283818151815260200191508051906020019080838360005b83811015612e68578082015183820152602001612e50565b50505050905090810190601f168015612e955780820380516001836020036101000a031916815260200191505b5093505050506080604051808303818680612eae6154c2565b158015612ec357600080612ec06153fc565b50505b505a612ecd61550e565b5050505050158015612eec573d6000803e3d6000612ee96153fc565b50505b505050506040513d6080811015612f0b57600080612f086153fc565b50505b81019080805192919060200180519291906020018051929190602001805195995093975091955092935050505060ff841660021415612f5f57612f51888484848b614ce3565b600195505050505050611ab5565b6000886001600160a01b0316886040518082805190602001908083835b60208310612f9b5780518252601f199092019160209182019101612f7c565b6001836020036101000a0380198251168184511680821785525050505050509050019150506000604051808303816000865a612fd5615773565b5050505050509150503d806000811461300a576040513d603f01601f191681016040523d815291503d6000602084013e61300f565b606091505b50909150506001811515146130735760405162461bcd60e51b815260206004820152601a60248201527f6661696c656420746f2065786563757465207468652063616c6c0000000000006044820152606401604051809103906130706153fc565b50505b50600198975050505050505050565b603e61308c615467565b81565b6000603361309b615467565b906101000a90046001600160a01b03166001600160a01b03165a6130bd6155f9565b6001600160a01b03161461310f5760405162461bcd60e51b815260206004820152600c60248201526b37b7363c9036b0b730b3b2b960a11b60448201526064016040518091039061310c6153fc565b50505b6000603760018161311e615467565b816001600160a01b0302191690836001600160a01b031602179061314061563f565b505050565b6000612196838360200260040160ff1660206135ef565b603d61308c615467565b6000603a80613173615467565b91505090565b60006033613185615467565b906101000a90046001600160a01b03166001600160a01b03165a6131a76155f9565b6001600160a01b0316146131f95760405162461bcd60e51b815260206004820152600c60248201526b37b7363c9036b0b730b3b2b960a11b6044820152606401604051809103906131f66153fc565b50505b603e613203615467565b5a61320c61572d565b10156132675760405162461bcd60e51b815260206004820152601960248201527f66656520696e6372656173652064656c617920616374697665000000000000006044820152606401604051809103906132646153fc565b50505b61327a81603d613275615467565b614fa6565b600080603d61328761563f565b5050506000603e8190611c0761563f565b6000806132b0848460200260040160ff1660206135ef565b90506132c1846004830160206135ef565b949350505050565b60606035806132d6615467565b8060200260200160405190810160405281815291906020830182806132f9615467565b801561334657602002820191906000526020600020905b60008261331b615467565b906101000a90046001600160a01b03166001600160a01b031681526020019060010190808311613310575b5050505050905090565b6000603580613173615467565b60006033613369615467565b906101000a90046001600160a01b03166001600160a01b03165a61338b6155f9565b6001600160a01b0316146133dd5760405162461bcd60e51b815260206004820152600c60248201526b37b7363c9036b0b730b3b2b960a11b6044820152606401604051809103906133da6153fc565b50505b806037600181611be5615467565b600060336133f7615467565b906101000a90046001600160a01b03166001600160a01b03165a6134196155f9565b6001600160a01b03161461346b5760405162461bcd60e51b815260206004820152600c60248201526b37b7363c9036b0b730b3b2b960a11b6044820152606401604051809103906134686153fc565b50505b600080603d61347861563f565b5050506000603e819061348961563f565b5050507fc6f04bf43cbdf1ba5d51b4afa160bb3c7e13858b1409aa32868b239bb2f8d84960405160405180910390a1565b6001600160a01b03811660009081526036602052604081206134da615467565b151592915050565b6000611ab582600060046125c2565b60006039611a0d615467565b603a8181613509615467565b811061351157fe5b90600052602060002001905061308c615467565b60006033613531615467565b906101000a90046001600160a01b03166001600160a01b03165a6135536155f9565b6001600160a01b0316146135a55760405162461bcd60e51b815260206004820152600c60248201526b37b7363c9036b0b730b3b2b960a11b6044820152606401604051809103906135a26153fc565b50505b6135ae816134ba565b156135b857611750565b61175081614c57565b6000818152603b602052604081206134da615467565b603b602052806000526040600020905061308c615467565b6000818301845110156136515760405162461bcd60e51b815260206004820152601b60248201527f52656164696e67206279746573206f7574206f6620626f756e6473000000000060448201526064016040518091039061364e6153fc565b50505b8260200184015190508160200380156126435760080260020a90049392505050565b6060603a80613680615467565b8060200260200160405190810160405281815291906020830182806136a3615467565b801561334657602002820191906000526020600020905b816136c3615467565b815260200190600101908083116136ba575050505050905090565b6000808060386136ec615467565b906101000a90046001600160a01b03166001600160a01b03166321f8a721680a6f2dce8d0cae8d2f60bb1b6040516001600160e01b031960e084901b168152600481019190915260240160206040518083038186806137496154c2565b15801561375e5760008061375b6153fc565b50505b505a61376861550e565b5050505050158015613787573d6000803e3d60006137846153fc565b50505b505050506040513d60208110156137a6576000806137a36153fc565b50505b8101908080516001600160a01b03169250633260803991508590506040516001600160e01b031960e084901b168152600481019190915260240160206040518083038186806137f36154c2565b158015613808576000806138056153fc565b50505b505a61381261550e565b5050505050158015613831573d6000803e3d600061382e6153fc565b50505b505050506040513d60208110156138505760008061384d6153fc565b50505b81019080805193505050506001600160a01b0381166138735760009150506119fc565b6000816001600160a01b031663ec5568896040518163ffffffff1660e01b815260040160206040518083038186806138a96154c2565b1580156138be576000806138bb6153fc565b50505b505a6138c861550e565b50505050501580156138e7573d6000803e3d60006138e46153fc565b50505b505050506040513d6020811015613906576000806139036153fc565b50505b81019080805193505050506001600160a01b03811661392a576000925050506119fc565b5060019392505050565b60016000613940615467565b906101000a900460ff168061395857506139586151f9565b806139755750600080613969615467565b906101000a900460ff16155b6139b95760405162461bcd60e51b815260040180806020018281038252602e815260200180615859602e9139604001915050604051809103906139b66153fc565b50505b60006001816139c6615467565b906101000a900460ff161590508015613a2c5760016000610100816139e9615467565b8160ff021916908315150217906139fe61563f565b50505060016000806101000a81613a13615467565b8160ff02191690831515021790613a2861563f565b5050505b613a36858561526a565b856039600181613a44615467565b816001600160a01b0302191690836001600160a01b0316021790613a6661563f565b50505082603860006101000a81613a7b615467565b816001600160a01b0302191690836001600160a01b0316021790613a9d61563f565b505050613ab0631cd554d160e21b614913565b60005b82518160ff161015613ae657613ade838260ff1681518110613ad157fe5b6020026020010151614913565b600101613ab3565b50631cd554d160e21b6000908152603c60205260019060409020600181613b0b615467565b8160ff02191690831515021790613b2061563f565b5050508015613b515760008061010081613b38615467565b8160ff02191690831515021790613b4d61563f565b5050505b505050505050565b600080603d613b66615467565b603e613b70615467565b915091509091565b60006033613b84615467565b906101000a90046001600160a01b03166001600160a01b03165a613ba66155f9565b6001600160a01b03161480613bef575060006037613bc2615467565b906101000a90046001600160a01b03166001600160a01b03165a613be46155f9565b6001600160a01b0316145b613c415760405162461bcd60e51b815260206004820152601660248201527537b7363c9036b0b730b3b2b91037b9103a3930b232b960511b604482015260640160405180910390613c3e6153fc565b50505b613c4a836135c1565b613ca35760405162461bcd60e51b815260206004820152601b60248201527f756e737570706f7274656420736f757263652063757272656e63790000000000604482015260640160405180910390613ca06153fc565b50505b613cac816135c1565b613d055760405162461bcd60e51b815260206004820181905260248201527f756e737570706f727465642064657374696e6174696f6e2063757272656e6379604482015260640160405180910390613d026153fc565b50505b6000806038613d12615467565b906101000a90046001600160a01b03166001600160a01b03166321f8a721680a6f2dce8d0cae8d2f60bb1b6040516001600160e01b031960e084901b16815260048101919091526024016020604051808303818680613d6f6154c2565b158015613d8457600080613d816153fc565b50505b505a613d8e61550e565b5050505050158015613dad573d6000803e3d6000613daa6153fc565b50505b505050506040513d6020811015613dcc57600080613dc96153fc565b50505b810190808051935060009250506001600160a01b03831690506330ead760868686856039613df8615467565b906101000a90046001600160a01b03166001600160a01b0316631d68702d6040518163ffffffff1660e01b81526004016020604051808303818680613e3b6154c2565b158015613e5057600080613e4d6153fc565b50505b505a613e5a61550e565b5050505050158015613e79573d6000803e3d6000613e766153fc565b50505b505050506040513d6020811015613e9857600080613e956153fc565b50505b81019080805192506000915060399050613eb0615467565b906101000a90046001600160a01b03166001600160a01b03166349f7c02d6040518163ffffffff1660e01b81526004016020604051808303818680613ef36154c2565b158015613f0857600080613f056153fc565b50505b505a613f1261550e565b5050505050158015613f31573d6000803e3d6000613f2e6153fc565b50505b505050506040513d6020811015613f5057600080613f4d6153fc565b50505b81019080805192506040915050516001600160e01b031960e088901b1681526004810195909552602485019390935260448401919091526001600160a01b03166064830152608482015260a40160206040518083038160008780613fb26154c2565b158015613fc757600080613fc46153fc565b50505b505a613fd1615773565b505050505050158015613ff1573d6000803e3d6000613fee6153fc565b50505b505050506040513d60208110156140105760008061400d6153fc565b50505b81019080805193507f2f3156bec1dba8438caa2579a04e750d9ca242f1c16d87594c77efdbede59bbe925050505a63996d79a5598160e01b8152602081600483336000905af158600e01573d6000803e3d6000fd5b3d6001141558600a015760016000f35b8051925060005b60408110156140935760008282015260200161407c565b5050505a61409f6155f9565b878787865a6140ac61572d565b6040516001600160a01b0397881681529590961660208601526040808601949094526060850192909252608084015260a083015260c082019290925260e001905180910390a15050505050565b60608060606000603a8061410b615467565b9050905060608167ffffffffffffffff811180156141315760008061412e6153fc565b50505b5060405190808252806020026020018201604052801561415b578160200160208202803683370190505b50905060608267ffffffffffffffff811180156141805760008061417d6153fc565b50505b506040519080825280602002602001820160405280156141aa578160200160208202803683370190505b50905060608367ffffffffffffffff811180156141cf576000806141cc6153fc565b50505b506040519080825280602002602001820160405280156141f9578160200160208202803683370190505b5090506000806038614209615467565b906101000a90046001600160a01b03166001600160a01b03166321f8a7216c45786368616e6765526174657360981b6040516001600160e01b031960e084901b1681526004810191909152602401602060405180830381868061426a6154c2565b15801561427f5760008061427c6153fc565b50505b505a61428961550e565b50505050501580156142a8573d6000803e3d60006142a56153fc565b50505b505050506040513d60208110156142c7576000806142c46153fc565b50505b81019080805193506000925050505b85811015614517576000603a82816142ec615467565b81106142f457fe5b90600052602060002001614306615467565b905061431181611ed7565b6001600160a01b03166370a082315a63996d79a5598160e01b8152602081600483336000905af158600e01573d6000803e3d6000fd5b3d6001141558600a015760016000f35b8051925060005b60408110156143755760008282015260200161435e565b5050506040516001600160e01b031960e084901b1681526001600160a01b03909116600482015260240160206040518083038186806143b26154c2565b1580156143c7576000806143c46153fc565b50505b505a6143d161550e565b50505050501580156143f0573d6000803e3d60006143ed6153fc565b50505b505050506040513d602081101561440f5760008061440c6153fc565b50505b81019080805192508791508490508151811061442757fe5b6020026020010181815250508086838151811061444057fe5b602002602001018181525050826001600160a01b031663ac82f608826040516001600160e01b031960e084901b1681526004810191909152602401602060405180830381868061448e6154c2565b1580156144a3576000806144a06153fc565b50505b505a6144ad61550e565b50505050501580156144cc573d6000803e3d60006144c96153fc565b50505b505050506040513d60208110156144eb576000806144e86153fc565b50505b81019080805192508691508490508151811061450357fe5b6020908102919091010152506001016142d6565b509297919650945092505050565b6060603480614532615467565b600181600116156101000203166002900480601f01602080910402602001604051908101604052818152919060208301828061456c615467565b600181600116156101000203166002900480156133465780601f106145a6576101008083614598615467565b040283529160200191613346565b820191906000526020600020905b816145bd615467565b815290600101906020018083116145b457509395945050505050565b6000603a806145e6615467565b6000848152603b602052909250905061460c600160408320614606615467565b906152b1565b90506000603a61461d8460016152b1565b81614626615467565b811061462e57fe5b90600052602060002001614640615467565b905080603a838161464f615467565b811061465757fe5b90600052602060002001819061466b61563f565b5061467b91508390506001614bf8565b6000828152603b60205260409020819061469361563f565b5050506000848152603b6020526040812081906146ae61563f565b505050603a806146bc615467565b806146c357fe5b600190038181906000526020600020016000906146de61563f565b5050906146e961563f565b50507f241d622959843ef6d15b4517709d11e054e1c06a2733f7773837c3d2377d8a895a63996d79a5598160e01b8152602081600483336000905af158600e01573d6000803e3d6000fd5b3d6001141558600a015760016000f35b8051925060005b60408110156147625760008282015260200161474b565b50505061476d61236e565b866040516001600160a01b039384168152919092166020820152604080820192909252606001905180910390a150505050565b60006035806147ad615467565b6001600160a01b0384166000908152603660205290925090506147d7600160408320614606615467565b9050600060356147e88460016152b1565b816147f1615467565b81106147f957fe5b9060005260206000200160009061480e615467565b906101000a90046001600160a01b03169050806035838161482d615467565b811061483557fe5b9060005260206000200160018161484a615467565b816001600160a01b0302191690836001600160a01b031602179061486c61563f565b5061487c91508390506001614bf8565b6001600160a01b0382166000908152603660205260409020819061489e61563f565b5050506001600160a01b038416600090815260366020526040812081906148c361563f565b5050506035806148d1615467565b806148d857fe5b600190038181906000526020600020016001816148f3615467565b906001600160a01b030219169061490861563f565b505090613b5161563f565b6000603961491f615467565b906101000a90046001600160a01b03166001600160a01b031663aa12ae4d6040518163ffffffff1660e01b815260040160206040518083038186806149626154c2565b158015614977576000806149746153fc565b50505b505a61498161550e565b50505050501580156149a0573d6000803e3d600061499d6153fc565b50505b505050506040513d60208110156149bf576000806149bc6153fc565b50505b8101908080519250603a91508190506149d6615467565b905010614a2b5760405162461bcd60e51b81526020600482015260166024820152751b585e1a5b5d5b48185cdcd95d1cc81c995858da195960521b604482015260640160405180910390614a286153fc565b50505b614a34816135c1565b15614a8e5760405162461bcd60e51b815260206004820152601760248201527f617373657420616c726561647920737570706f72746564000000000000000000604482015260640160405180910390614a8b6153fc565b50505b614a97816136de565b1515600114614ae75760405162461bcd60e51b815260206004820152600f60248201526e1b9bdb8b5cde5b9d1a08185cdcd95d608a1b604482015260640160405180910390614ae46153fc565b50505b80603a80600181614af6615467565b018082614b0161563f565b505060009283526000190191602091502001614b1b61563f565b5050603a80614b28615467565b6000838152603b602052909150604090208190614b4361563f565b5050507f4c719ca79dbb56150643ac79f2fbfa02370838ed0d116fc28b9703f5a071c4e25a63996d79a5598160e01b8152602081600483336000905af158600e01573d6000803e3d6000fd5b3d6001141558600a015760016000f35b8051925060005b6040811015614bbd57600082820152602001614ba6565b505050614bc861236e565b836040516001600160a01b039384168152919092166020820152604080820192909252606001905180910390a150565b6000828201838110156121965760405162461bcd60e51b815260206004820152601b60248201527f536166654d6174683a206164646974696f6e206f766572666c6f7700000000006044820152606401604051809103906121936153fc565b80603580600181614c66615467565b018082614c7161563f565b505060009283526000190191602091502001600181614c8e615467565b816001600160a01b0302191690836001600160a01b0316021790614cb061563f565b505050603580614cbe615467565b6001600160a01b03831660009081526036602052909150604090208190611c0761563f565b614cec846135c1565b614d455760405162461bcd60e51b815260206004820152601b60248201527f756e737570706f7274656420736f757263652063757272656e63790000000000604482015260640160405180910390614d426153fc565b50505b614d4e826135c1565b614da75760405162461bcd60e51b815260206004820181905260248201527f756e737570706f727465642064657374696e6174696f6e2063757272656e6379604482015260640160405180910390614da46153fc565b50505b60006060866001600160a01b0316836040518082805190602001908083835b60208310614de55780518252601f199092019160209182019101614dc6565b6001836020036101000a0380198251168184511680821785525050505050509050019150506000604051808303816000865a614e1f615773565b5050505050509150503d8060008114614e54576040513d603f01601f191681016040523d815291503d6000602084013e614e59565b606091505b509092509050600182151514614ebe5760405162461bcd60e51b815260206004820152601a60248201527f6661696c656420746f20657865637574652065786368616e6765000000000000604482015260640160405180910390614ebb6153fc565b50505b7f2f3156bec1dba8438caa2579a04e750d9ca242f1c16d87594c77efdbede59bbe5a63996d79a5598160e01b8152602081600483336000905af158600e01573d6000803e3d6000fd5b3d6001141558600a015760016000f35b8051925060005b6040811015614f3557600082820152602001614f1e565b505050614f4061236e565b888888614f4e8760006152f1565b5a614f5761572d565b6040516001600160a01b0397881681529590961660208601526040808601949094526060850192909252608084015260a083015260c082019290925260e001905180910390a150505050505050565b60006039614fb2615467565b906101000a90046001600160a01b03166001600160a01b031663046b72c483836040516001600160e01b031960e085901b1681526001600160a01b0390921660048301526024820152604401600060405180830381600087806150136154c2565b158015615028576000806150256153fc565b50505b505a615032615773565b505050505050158015615052573d6000803e3d600061504f6153fc565b50505b505050506000806039600090615066615467565b906101000a90046001600160a01b03166001600160a01b031663b7a54526856040516001600160e01b031960e084901b1681526001600160a01b039091166004820152602401604080518083038186806150be6154c2565b1580156150d3576000806150d06153fc565b50505b505a6150dd61550e565b50505050501580156150fc573d6000803e3d60006150f96153fc565b50505b505050506040513d604081101561511b576000806151186153fc565b50505b81019080805192919060200180519395509293507f1780c04ddc6f0b32d866c7a3d7583f53515ef49ed2126af868f804f491601266925050505a63996d79a5598160e01b8152602081600483336000905af158600e01573d6000803e3d6000fd5b3d6001141558600a015760016000f35b8051925060005b60408110156151aa57600082820152602001615193565b5050506151b561236e565b848460405180856001600160a01b03168152602001846001600160a01b0316815260200183815260200182815260200194505050505060405180910390a150505050565b6000805a63996d79a5598160e01b8152602081600483336000905af158600e01573d6000803e3d6000fd5b3d6001141558600a015760016000f35b8051925060005b60408110156152525760008282015260200161523b565b50505090506000816152626154c2565b159250505090565b816033600181615278615467565b816001600160a01b0302191690836001600160a01b031602179061529a61563f565b50505080603490805161314092916020019061568d565b6000612196838360405160408082019052601e81527f536166654d6174683a207375627472616374696f6e206f766572666c6f770000602082015261535c565b6000816020018351101561534b5760405162461bcd60e51b8152602060048201526014602482015273736c6963696e67206f7574206f662072616e676560601b6044820152606401604051809103906153486153fc565b50505b600082602001840151949350505050565b600081848411156153f45760405162461bcd60e51b81526004018080602001828103825283818151815260200191508051906020019080838360005b838110156153b0578082015183820152602001615398565b50505050905090810190601f1680156153dd5780820380516001836020036101000a031916815260200191505b5092505050604051809103906153f16153fc565b50505b505050900390565b632a2a7adb598160e01b8152600481016020815285602082015260005b86811015615434578086015182820160400152602001615419565b506020828760640184336000905af158600e01573d6000803e3d6000fd5b3d6001141558600a015760016000f35b505050565b6303daa959598160e01b8152836004820152602081602483336000905af158600e01573d6000803e3d6000fd5b3d6001141558600a015760016000f35b8051935060005b6040811015613140576000828201526020016154ab565b638435035b598160e01b8152836004820152602081602483336000905af158600e01573d6000803e3d6000fd5b3d6001141558600a015760016000f35b805160008252935060206154ab565b638540661f598160e01b815261553f565b8080831115611ab5575090919050565b8080831015611ab5575090919050565b836004820152846024820152606060448201528660648201526084810160005b8881101561557757808801518282015260200161555f565b506060828960a40184336000905af158600e01573d6000803e3d6000fd5b3d6001141558600a015760016000f35b815160408301513d6000853e8b8b82606087013350600060045af150596155cc8d3d61552f565b8c016155d8818761551f565b5b828110156155ed57600081526020016155d9565b50929c50505050505050565b6373509064598160e01b8152602081600483336000905af158600e01573d6000803e3d6000fd5b3d6001141558600a015760016000f35b805160008252935060206154ab565b6322bd64c0598160e01b8152836004820152846024820152600081604483336000905af158600e01573d6000803e3d6000fd5b3d6001141558600a015760016000f35b6000815260206154ab565b8280615697615467565b600181600116156101000203166002900490600052602060002090601f016020900481019282601f106156de57805160ff191683800117856156d761563f565b505061571d565b828001600101856156ed61563f565b5050821561571d579182015b8281111561571d5782518261570c61563f565b5050916020019190600101906156f9565b50615729929150615839565b5090565b63bdbf8c36598160e01b8152602081600483336000905af158600e01573d6000803e3d6000fd5b3d6001141558600a015760016000f35b805160008252935060206154ab565b6385979f76598160e01b8152836004820152846024820152606060448201528760648201526084810160005b898110156157b757808901518282015260200161579f565b506060828a60a40184336000905af158600e01573d6000803e3d6000fd5b3d6001141558600a015760016000f35b815160408301513d6000853e8c8c82606087013350600060045af1505961580c8e3d61552f565b8d01615818818761551f565b5b8281101561582d5760008152602001615819565b50929d50505050505050565b80821115615729576000808261584d61563f565b50505060010161583956fe436f6e747261637420696e7374616e63652068617320616c7265616479206265656e20696e697469616c697a6564",
  "deployedBytecode": "0x6080604052348015610019576000806100166153fc565b50505b506004361061029e5760003560e01c806382f86acc11610170578063c68dbb37116100d7578063e5ea775911610090578063e5ea77591461101f578063eb94917d14611045578063ed5b165d146111d3578063ee52a2f3146111db578063f09d14d71461120d578063fed4416a146112f35761029e565b8063c68dbb3714610eaa578063ca6d56dc14610ed0578063d44fa33e14610eff578063d78d7c2e14610f25578063db896b5714610f4b578063e5406dbf146110175761029e565b8063a30e3fa911610129578063a30e3fa914610d6d578063a6bc18f914610d75578063b8bd81e614610da4578063bbbf725b14610dac578063c3c6279f14610ddb578063c45a015514610ea25761029e565b806382f86acc14610b3b5780638f32343914610c07578063936553c414610c0f578063969eed2714610c17578063998546e314610c465780639eab525314610d125761029e565b806346ee84b01161021457806367079749116101cd57806367079749146109205780636708f5d71461095a5780636f4d469b1461098f5780637ae7cfb514610a545780637b4d0c6314610b2b5780637c8afd5114610b335761029e565b806346ee84b014610626578063481c6a75146106eb57806352213663146106f357806353d9133e146107ca578063568b5a2f146107f05780635f6eceab146108d95761029e565b80631430238711610266578063143023871461042b5780631758078b1461045a5780631eba30771461046257806321f8c984146104885780633ded65301461052957806341dc16c31461054f5761029e565b8063023f21de146102ac5780630499123f146102d457806305a2ee2a1461030c57806309ff5c7d146103305780630b1ca49a146103fc575b6000806102a96153fc565b50505b6102d2600480360360208110156102cb576000806102c86153fc565b50505b5035611372565b005b6102fa600480360360208110156102f3576000806102f06153fc565b50505b5035611753565b60405190815260200160405180910390f35b610314611a01565b6040516001600160a01b03909116815260200160405180910390f35b6102fa6004803603604081101561034f5760008061034c6153fc565b50505b810190602081018135600160201b8111156103725760008061036f6153fc565b50505b82018360208201111561038d5760008061038a6153fc565b50505b803590602001918460018302840111600160201b831117156103b7576000806103b46153fc565b50505b91908080601f01602080910402602001604051908101604052818152929190602084018383808284376000920191909152509295505050903560ff169150611a209050565b6102d26004803603602081101561041b576000806104186153fc565b50505b50356001600160a01b0316611abb565b6102d26004803603602081101561044a576000806104476153fc565b50505b50356001600160a01b0316611b56565b610314611c0d565b610314600480360360208110156104815760008061047e6153fc565b50505b5035611c2f565b610490611c32565b604051808060200180602001838103835285818151815260200191508051906020019060200280838360005b838110156104d45780820151838201526020016104bc565b50505050905001838103825284818151815260200191508051906020019060200280838360005b838110156105135780820151838201526020016104fb565b5050505090500194505050505060405180910390f35b61031460048036036020811015610548576000806105456153fc565b50505b5035611ed7565b6102fa6004803603606081101561056e5760008061056b6153fc565b50505b810190602081018135600160201b8111156105915760008061058e6153fc565b50505b8201836020820111156105ac576000806105a96153fc565b50505b803590602001918460018302840111600160201b831117156105d6576000806105d36153fc565b50505b91908080601f01602080910402602001604051908101604052818152929190602084018383808284376000920191909152509295505060ff833581169450602090930135909216915061219d9050565b6102d260048036036020811015610645576000806106426153fc565b50505b810190602081018135600160201b811115610668576000806106656153fc565b50505b820183602082011115610683576000806106806153fc565b50505b803590602001918460208302840111600160201b831117156106ad576000806106aa6153fc565b50505b919080806020026020016040519081016040528093929190818152602001838360200280828437600092019190915250929550612295945050505050565b61031461236e565b6102d2600480360360408110156107125760008061070f6153fc565b50505b6001600160a01b038235169190810190604081016020820135600160201b811115610745576000806107426153fc565b50505b8201836020820111156107605760008061075d6153fc565b50505b803590602001918460018302840111600160201b8311171561078a576000806107876153fc565b50505b91908080601f016020809104026020016040519081016040528181529291906020840183838082843760009201919091525092955061237b945050505050565b6102d2600480360360208110156107e9576000806107e66153fc565b50505b50356124f0565b6108bc6004803603606081101561080f5760008061080c6153fc565b50505b810190602081018135600160201b8111156108325760008061082f6153fc565b50505b82018360208201111561084d5760008061084a6153fc565b50505b803590602001918460018302840111600160201b83111715610877576000806108746153fc565b50505b91908080601f016020809104026020016040519081016040528181529291906020840183838082843760009201919091525092955050823593505050602001356125c2565b6040516001600160e01b0319909116815260200160405180910390f35b610908600480360360208110156108f8576000806108f56153fc565b50505b50356001600160a01b031661264b565b60405191825260208201526040908101905180910390f35b6109466004803603602081101561093f5760008061093c6153fc565b50505b503561272a565b604051901515815260200160405180910390f35b6102d260048036036040811015610979576000806109766153fc565b50505b506001600160a01b038135169060200135612751565b6102d2600480360360208110156109ae576000806109ab6153fc565b50505b810190602081018135600160201b8111156109d1576000806109ce6153fc565b50505b8201836020820111156109ec576000806109e96153fc565b50505b803590602001918460208302840111600160201b83111715610a1657600080610a136153fc565b50505b919080806020026020016040519081016040528093929190818152602001838360200280828437600092019190915250929550612a81945050505050565b61094660048036036040811015610a7357600080610a706153fc565b50505b6001600160a01b038235169190810190604081016020820135600160201b811115610aa657600080610aa36153fc565b50505b820183602082011115610ac157600080610abe6153fc565b50505b803590602001918460018302840111600160201b83111715610aeb57600080610ae86153fc565b50505b91908080601f0160208091040260200160405190810160405281815292919060208401838380828437600092019190915250929550612b4a945050505050565b6102fa613082565b6102d261308f565b6102fa60048036036040811015610b5a57600080610b576153fc565b50505b810190602081018135600160201b811115610b7d57600080610b7a6153fc565b50505b820183602082011115610b9857600080610b956153fc565b50505b803590602001918460018302840111600160201b83111715610bc257600080610bbf6153fc565b50505b91908080601f01602080910402602001604051908101604052818152929190602084018383808284376000920191909152509295505050903560ff1691506131459050565b6102fa61315c565b6102fa613166565b6102d260048036036020811015610c3657600080610c336153fc565b50505b50356001600160a01b0316613179565b6102fa60048036036040811015610c6557600080610c626153fc565b50505b810190602081018135600160201b811115610c8857600080610c856153fc565b50505b820183602082011115610ca357600080610ca06153fc565b50505b803590602001918460018302840111600160201b83111715610ccd57600080610cca6153fc565b50505b91908080601f01602080910402602001604051908101604052818152929190602084018383808284376000920191909152509295505050903560ff1691506132989050565b610d1a6132c9565b60405160208082528190810183818151815260200191508051906020019060200280838360005b83811015610d59578082015183820152602001610d41565b505050509050019250505060405180910390f35b6102fa613350565b6102d260048036036020811015610d9457600080610d916153fc565b50505b50356001600160a01b031661335d565b6102d26133eb565b61094660048036036020811015610dcb57600080610dc86153fc565b50505b50356001600160a01b03166134ba565b6108bc60048036036020811015610dfa57600080610df76153fc565b50505b810190602081018135600160201b811115610e1d57600080610e1a6153fc565b50505b820183602082011115610e3857600080610e356153fc565b50505b803590602001918460018302840111600160201b83111715610e6257600080610e5f6153fc565b50505b91908080601f01602080910402602001604051908101604052818152929190602084018383808284376000920191909152509295506134e2945050505050565b6103146134f1565b6102fa60048036036020811015610ec957600080610ec66153fc565b50505b50356134fd565b6102d260048036036020811015610eef57600080610eec6153fc565b50505b50356001600160a01b0316613525565b61094660048036036020811015610f1e57600080610f1b6153fc565b50505b50356135c1565b6102fa60048036036020811015610f4457600080610f416153fc565b50505b50356135d7565b6102fa60048036036060811015610f6a57600080610f676153fc565b50505b810190602081018135600160201b811115610f8d57600080610f8a6153fc565b50505b820183602082011115610fa857600080610fa56153fc565b50505b803590602001918460018302840111600160201b83111715610fd257600080610fcf6153fc565b50505b91908080601f016020809104026020016040519081016040528181529291906020840183838082843760009201919091525092955050823593505050602001356135ef565b610d1a613673565b6109466004803603602081101561103e5760008061103b6153fc565b50505b50356136de565b6102d2600480360360a0811015611064576000806110616153fc565b50505b6001600160a01b038235811692602081013590911691810190606081016040820135600160201b8111156110a05760008061109d6153fc565b50505b8201836020820111156110bb576000806110b86153fc565b50505b803590602001918460018302840111600160201b831117156110e5576000806110e26153fc565b50505b91908080601f016020809104026020016040519081016040528181529291906020840183838082843760009201919091525092956001600160a01b03853516959094909350604081019250602001359050600160201b8111156111505760008061114d6153fc565b50505b82018360208201111561116b576000806111686153fc565b50505b803590602001918460208302840111600160201b83111715611195576000806111926153fc565b50505b919080806020026020016040519081016040528093929190818152602001838360200280828437600092019190915250929550613934945050505050565b610908613b59565b6102d2600480360360608110156111fa576000806111f76153fc565b50505b5080359060208101359060400135613b78565b6112156140f9565b60405180806020018060200180602001848103845287818151815260200191508051906020019060200280838360005b8381101561125d578082015183820152602001611245565b50505050905001848103835286818151815260200191508051906020019060200280838360005b8381101561129c578082015183820152602001611284565b50505050905001848103825285818151815260200191508051906020019060200280838360005b838110156112db5780820151838201526020016112c3565b50505050905001965050505050505060405180910390f35b6112fb614525565b60405160208082528190810183818151815260200191508051906020019080838360005b8381101561133757808201518382015260200161131f565b50505050905090810190601f1680156113645780820380516001836020036101000a031916815260200191505b509250505060405180910390f35b6000603961137e615467565b906101000a90046001600160a01b03166001600160a01b0316638da5cb5b6040518163ffffffff1660e01b815260040160206040518083038186806113c16154c2565b1580156113d6576000806113d36153fc565b50505b505a6113e061550e565b50505050501580156113ff573d6000803e3d60006113fc6153fc565b50505b505050506040513d602081101561141e5760008061141b6153fc565b50505b8101908080516001600160a01b0316925050505a61143a6155f9565b6001600160a01b0316148061146f575061145261236e565b6001600160a01b03165a6114646155f9565b6001600160a01b0316145b8061149a575061147d611c0d565b6001600160a01b03165a61148f6155f9565b6001600160a01b0316145b6114f35760405162461bcd60e51b815260206004820152601b60248201527f6f6e6c79206d616e616765722c20747261646572206f722044414f00000000006044820152606401604051809103906114f06153fc565b50505b6114fc816135c1565b61154b5760405162461bcd60e51b8152602060048201526013602482015272185cdcd95d081b9bdd081cdd5c1c1bdc9d1959606a1b6044820152606401604051809103906115486153fc565b50505b6000818152603c60205260409020600090611564615467565b906101000a900460ff16156115c85760405162461bcd60e51b815260206004820152601f60248201527f63616e6e6f742072656d6f76652070657273697374656e7420617373657473006044820152606401604051809103906115c56153fc565b50505b6115d1816136de565b151560011415611747576115e481611ed7565b6001600160a01b03166370a082315a63996d79a5598160e01b8152602081600483336000905af158601d01573d60011458600c01573d6000803e3d621234565260ea61109c528051925060005b604081101561164857600082820152602001611631565b5050506040516001600160e01b031960e084901b1681526001600160a01b03909116600482015260240160206040518083038186806116856154c2565b15801561169a576000806116976153fc565b50505b505a6116a461550e565b50505050501580156116c3573d6000803e3d60006116c06153fc565b50505b505050506040513d60208110156116e2576000806116df6153fc565b50505b8101908080511592506117479150505760405162461bcd60e51b815260206004820152601d60248201527f63616e6e6f742072656d6f7665206e6f6e2d656d7074792061737365740000006044820152606401604051809103906117446153fc565b50505b611750816145d9565b50565b6000806038611760615467565b906101000a90046001600160a01b03166001600160a01b03166321f8a7216c45786368616e6765526174657360981b6040516001600160e01b031960e084901b168152600481019190915260240160206040518083038186806117c16154c2565b1580156117d6576000806117d36153fc565b50505b505a6117e061550e565b50505050501580156117ff573d6000803e3d60006117fc6153fc565b50505b505050506040513d602081101561181e5760008061181b6153fc565b50505b8101908080516001600160a01b0316925063654a60ac915084905061184281611ed7565b6001600160a01b03166370a082315a63996d79a5598160e01b8152602081600483336000905af158601d01573d60011458600c01573d6000803e3d621234565260ea61109c528051925060005b60408110156118a65760008282015260200161188f565b5050506040516001600160e01b031960e084901b1681526001600160a01b03909116600482015260240160206040518083038186806118e36154c2565b1580156118f8576000806118f56153fc565b50505b505a61190261550e565b5050505050158015611921573d6000803e3d600061191e6153fc565b50505b505050506040513d60208110156119405760008061193d6153fc565b50505b8101908080519250631cd554d160e21b915060409050516001600160e01b031960e086901b16815260048101939093526024830191909152604482015260640160206040518083038186806119936154c2565b1580156119a8576000806119a56153fc565b50505b505a6119b261550e565b50505050501580156119d1573d6000803e3d60006119ce6153fc565b50505b505050506040513d60208110156119f0576000806119ed6153fc565b50505b81019080805193505050505b919050565b60006038611a0d615467565b906101000a90046001600160a01b031681565b600080611a38848460200260040160ff1660206135ef565b90506000611a4b856004840160206135ef565b905080611a9c5760405162461bcd60e51b8152602060048201526012602482015271696e707574206973206e6f7420617272617960701b604482015260640160405180910390611a996153fc565b50505b611ab08560208084028501600401906135ef565b925050505b92915050565b60006033611ac7615467565b906101000a90046001600160a01b03166001600160a01b03165a611ae96155f9565b6001600160a01b031614611b3b5760405162461bcd60e51b815260206004820152600c60248201526b37b7363c9036b0b730b3b2b960a11b604482015260640160405180910390611b386153fc565b50505b611b44816134ba565b611b4d57611750565b611750816147a0565b60006039611b62615467565b906101000a90046001600160a01b03166001600160a01b03165a611b846155f9565b6001600160a01b031614611bd75760405162461bcd60e51b815260206004820152600d60248201526c3737903832b936b4b9b9b4b7b760991b604482015260640160405180910390611bd46153fc565b50505b806038600181611be5615467565b816001600160a01b0302191690836001600160a01b0316021790611c0761563f565b50505050565b6000806037611c1a615467565b906101000a90046001600160a01b0316905090565b90565b6060806000603a80611c42615467565b9050905060608167ffffffffffffffff81118015611c6857600080611c656153fc565b50505b50604051908082528060200260200182016040528015611c92578160200160208202803683370190505b50905060608267ffffffffffffffff81118015611cb757600080611cb46153fc565b50505b50604051908082528060200260200182016040528015611ce1578160200160208202803683370190505b5090506000806038611cf1615467565b906101000a90046001600160a01b03166001600160a01b03166321f8a7216b53797374656d53746174757360a01b6040516001600160e01b031960e084901b16815260048101919091526024016020604051808303818680611d516154c2565b158015611d6657600080611d636153fc565b50505b505a611d7061550e565b5050505050158015611d8f573d6000803e3d6000611d8c6153fc565b50505b505050506040513d6020811015611dae57600080611dab6153fc565b50505b81019080805193506000925050505b84811015611ecb576000603a8281611dd3615467565b8110611ddb57fe5b90600052602060002001611ded615467565b905080858381518110611dfc57fe5b602002602001018181525050826001600160a01b03166342a28e21826040516001600160e01b031960e084901b16815260048101919091526024016000604051808303818680611e4a6154c2565b158015611e5f57600080611e5c6153fc565b50505b505a611e6961550e565b5050505050925050508015611e7c575060015b611ea3576001848381518110611e8e57fe5b91151560209283029190910190910152611ec2565b6000848381518110611eb157fe5b911515602092830291909101909101525b50600101611dbd565b50919450925050509091565b600080806038611ee5615467565b906101000a90046001600160a01b03166001600160a01b03166321f8a721680a6f2dce8d0cae8d2f60bb1b6040516001600160e01b031960e084901b16815260048101919091526024016020604051808303818680611f426154c2565b158015611f5757600080611f546153fc565b50505b505a611f6161550e565b5050505050158015611f80573d6000803e3d6000611f7d6153fc565b50505b505050506040513d6020811015611f9f57600080611f9c6153fc565b50505b8101908080516001600160a01b03169250633260803991508590506040516001600160e01b031960e084901b16815260048101919091526024016020604051808303818680611fec6154c2565b15801561200157600080611ffe6153fc565b50505b505a61200b61550e565b505050505015801561202a573d6000803e3d60006120276153fc565b50505b505050506040513d6020811015612049576000806120466153fc565b50505b81019080805193505050506001600160a01b0381166120a55760405162461bcd60e51b815260206004820152600b60248201526a696e76616c6964206b657960a81b6044820152606401604051809103906120a26153fc565b50505b6000816001600160a01b031663ec5568896040518163ffffffff1660e01b815260040160206040518083038186806120db6154c2565b1580156120f0576000806120ed6153fc565b50505b505a6120fa61550e565b5050505050158015612119573d6000803e3d60006121166153fc565b50505b505050506040513d6020811015612138576000806121356153fc565b50505b81019080805193505050506001600160a01b0381166121965760405162461bcd60e51b815260206004820152600d60248201526c696e76616c69642070726f787960981b6044820152606401604051809103906121936153fc565b50505b9392505050565b6000806121b5858560200260040160ff1660206135ef565b905060006121c8866004840160206135ef565b9050806122195760405162461bcd60e51b8152602060048201526012602482015271696e707574206973206e6f7420617272617960701b6044820152606401604051809103906122166153fc565b50505b60ff841681116122715760405162461bcd60e51b815260206004820152601660248201527534b73b30b634b21030b93930bc903837b9b4ba34b7b760511b60448201526064016040518091039061226e6153fc565b50505b61228b866020600160ff88160181028501600401906135ef565b9695505050505050565b600060336122a1615467565b906101000a90046001600160a01b03166001600160a01b03165a6122c36155f9565b6001600160a01b0316146123155760405162461bcd60e51b815260206004820152600c60248201526b37b7363c9036b0b730b3b2b960a11b6044820152606401604051809103906123126153fc565b50505b60005b815181101561236a5761233d82828151811061233057fe5b60200260200101516134ba565b61234657612362565b61236282828151811061235557fe5b60200260200101516147a0565b600101612318565b5050565b6000806033611c1a615467565b60006033612387615467565b906101000a90046001600160a01b03166001600160a01b03165a6123a96155f9565b6001600160a01b0316146123fb5760405162461bcd60e51b815260206004820152600c60248201526b37b7363c9036b0b730b3b2b960a11b6044820152606401604051809103906123f86153fc565b50505b816033600181612409615467565b816001600160a01b0302191690836001600160a01b031602179061242b61563f565b50505080603490805161244292916020019061568d565b507f6ed15082ad038474841528b5badca105106d4463e44b5d434130dfb299aa366982826040516001600160a01b038316815260406020820181815290820183818151815260200191508051906020019080838360005b838110156124b1578082015183820152602001612499565b50505050905090810190601f1680156124de5780820380516001836020036101000a031916815260200191505b50935050505060405180910390a15050565b600060336124fc615467565b906101000a90046001600160a01b03166001600160a01b03165a61251e6155f9565b6001600160a01b0316148061256757506000603761253a615467565b906101000a90046001600160a01b03166001600160a01b03165a61255c6155f9565b6001600160a01b0316145b6125b95760405162461bcd60e51b815260206004820152601660248201527537b7363c9036b0b730b3b2b91037b9103a3930b232b960511b6044820152606401604051809103906125b66153fc565b50505b61175081614913565b6000818301845110156126245760405162461bcd60e51b815260206004820152601b60248201527f52656164696e67206279746573206f7574206f6620626f756e647300000000006044820152606401604051809103906126216153fc565b50505b826020018401519050816004038015612643576008810260020a820491505b509392505050565b600080806039612659615467565b906101000a90046001600160a01b03166001600160a01b031663b7a54526846040516001600160e01b031960e084901b1681526001600160a01b039091166004820152602401604080518083038186806126b16154c2565b1580156126c6576000806126c36153fc565b50505b505a6126d061550e565b50505050501580156126ef573d6000803e3d60006126ec6153fc565b50505b505050506040513d604081101561270e5760008061270b6153fc565b50505b8101908080519291906020018051939550929350505050915091565b603c60205280600052604060002060009150612744615467565b906101000a900460ff1681565b6000603361275d615467565b906101000a90046001600160a01b03166001600160a01b03165a61277f6155f9565b6001600160a01b0316146127d15760405162461bcd60e51b815260206004820152600c60248201526b37b7363c9036b0b730b3b2b960a11b6044820152606401604051809103906127ce6153fc565b50505b60008060396127de615467565b906101000a90046001600160a01b03166001600160a01b0316635c9bfc2b6040518163ffffffff1660e01b815260040160206040518083038186806128216154c2565b158015612836576000806128336153fc565b50505b505a61284061550e565b505050505015801561285f573d6000803e3d600061285c6153fc565b50505b505050506040513d602081101561287e5760008061287b6153fc565b50505b81019080805193506000925082915061289890508561264b565b9092509050808411156128ed5760405162461bcd60e51b815260206004820152601060248201526f34b73b30b634b210333930b1ba34b7b760811b6044820152606401604051809103906128ea6153fc565b50505b6128f78284614bf8565b8411156129535760405162461bcd60e51b815260206004820152601960248201527f657863656564656420616c6c6f77656420696e637265617365000000000000006044820152606401604051809103906129506153fc565b50505b6000806039612960615467565b906101000a90046001600160a01b03166001600160a01b031663ebee461d6040518163ffffffff1660e01b815260040160206040518083038186806129a36154c2565b1580156129b8576000806129b56153fc565b50505b505a6129c261550e565b50505050501580156129e1573d6000803e3d60006129de6153fc565b50505b505050506040513d6020811015612a00576000806129fd6153fc565b50505b8101908080519350879250829150603d9050612a1a61563f565b505050805a612a2761572d565b0180603e612a3361563f565b5050507f4db9119741646c419f1ceccdf112b5b9a9b4516355e742e1fa9c479f4dec98da85603e612a62615467565b60405191825260208201526040908101905180910390a1505050505050565b60006033612a8d615467565b906101000a90046001600160a01b03166001600160a01b03165a612aaf6155f9565b6001600160a01b031614612b015760405162461bcd60e51b815260206004820152600c60248201526b37b7363c9036b0b730b3b2b960a11b604482015260640160405180910390612afe6153fc565b50505b60005b815181101561236a57612b1c82828151811061233057fe5b15612b2657612b42565b612b42828281518110612b3557fe5b6020026020010151614c57565b600101612b04565b6000806033612b57615467565b906101000a90046001600160a01b03166001600160a01b03165a612b796155f9565b6001600160a01b03161480612bc2575060006037612b95615467565b906101000a90046001600160a01b03166001600160a01b03165a612bb76155f9565b6001600160a01b0316145b612c145760405162461bcd60e51b815260206004820152601660248201527537b7363c9036b0b730b3b2b91037b9103a3930b232b960511b604482015260640160405180910390612c116153fc565b50505b6001600160a01b038316612c775760405162461bcd60e51b815260206004820152601c60248201527f6e6f6e2d7a65726f206164647265737320697320726571756972656400000000604482015260640160405180910390612c746153fc565b50505b6000806039612c84615467565b906101000a90046001600160a01b03166001600160a01b0316637027ea6c856040516001600160e01b031960e084901b1681526001600160a01b0390911660048201526024016020604051808303818680612cdd6154c2565b158015612cf257600080612cef6153fc565b50505b505a612cfc61550e565b5050505050158015612d1b573d6000803e3d6000612d186153fc565b50505b505050506040513d6020811015612d3a57600080612d376153fc565b50505b81019080805193505050506001600160a01b038116612d9e5760405162461bcd60e51b815260206004820152601360248201527234b73b30b634b2103232b9ba34b730ba34b7b760691b604482015260640160405180910390612d9b6153fc565b50505b600080600080846001600160a01b031663e23ff4375a63996d79a5598160e01b8152602081600483336000905af158601d01573d60011458600c01573d6000803e3d621234565260ea61109c528051925060005b6040811015612e0957600082820152602001612df2565b505050896040518363ffffffff1660e01b815260040180836001600160a01b0316815260200180602001828103825283818151815260200191508051906020019080838360005b83811015612e68578082015183820152602001612e50565b50505050905090810190601f168015612e955780820380516001836020036101000a031916815260200191505b5093505050506080604051808303818680612eae6154c2565b158015612ec357600080612ec06153fc565b50505b505a612ecd61550e565b5050505050158015612eec573d6000803e3d6000612ee96153fc565b50505b505050506040513d6080811015612f0b57600080612f086153fc565b50505b81019080805192919060200180519291906020018051929190602001805195995093975091955092935050505060ff841660021415612f5f57612f51888484848b614ce3565b600195505050505050611ab5565b6000886001600160a01b0316886040518082805190602001908083835b60208310612f9b5780518252601f199092019160209182019101612f7c565b6001836020036101000a0380198251168184511680821785525050505050509050019150506000604051808303816000865a612fd5615773565b5050505050509150503d806000811461300a576040513d603f01601f191681016040523d815291503d6000602084013e61300f565b606091505b50909150506001811515146130735760405162461bcd60e51b815260206004820152601a60248201527f6661696c656420746f2065786563757465207468652063616c6c0000000000006044820152606401604051809103906130706153fc565b50505b50600198975050505050505050565b603e61308c615467565b81565b6000603361309b615467565b906101000a90046001600160a01b03166001600160a01b03165a6130bd6155f9565b6001600160a01b03161461310f5760405162461bcd60e51b815260206004820152600c60248201526b37b7363c9036b0b730b3b2b960a11b60448201526064016040518091039061310c6153fc565b50505b6000603760018161311e615467565b816001600160a01b0302191690836001600160a01b031602179061314061563f565b505050565b6000612196838360200260040160ff1660206135ef565b603d61308c615467565b6000603a80613173615467565b91505090565b60006033613185615467565b906101000a90046001600160a01b03166001600160a01b03165a6131a76155f9565b6001600160a01b0316146131f95760405162461bcd60e51b815260206004820152600c60248201526b37b7363c9036b0b730b3b2b960a11b6044820152606401604051809103906131f66153fc565b50505b603e613203615467565b5a61320c61572d565b10156132675760405162461bcd60e51b815260206004820152601960248201527f66656520696e6372656173652064656c617920616374697665000000000000006044820152606401604051809103906132646153fc565b50505b61327a81603d613275615467565b614fa6565b600080603d61328761563f565b5050506000603e8190611c0761563f565b6000806132b0848460200260040160ff1660206135ef565b90506132c1846004830160206135ef565b949350505050565b60606035806132d6615467565b8060200260200160405190810160405281815291906020830182806132f9615467565b801561334657602002820191906000526020600020905b60008261331b615467565b906101000a90046001600160a01b03166001600160a01b031681526020019060010190808311613310575b5050505050905090565b6000603580613173615467565b60006033613369615467565b906101000a90046001600160a01b03166001600160a01b03165a61338b6155f9565b6001600160a01b0316146133dd5760405162461bcd60e51b815260206004820152600c60248201526b37b7363c9036b0b730b3b2b960a11b6044820152606401604051809103906133da6153fc565b50505b806037600181611be5615467565b600060336133f7615467565b906101000a90046001600160a01b03166001600160a01b03165a6134196155f9565b6001600160a01b03161461346b5760405162461bcd60e51b815260206004820152600c60248201526b37b7363c9036b0b730b3b2b960a11b6044820152606401604051809103906134686153fc565b50505b600080603d61347861563f565b5050506000603e819061348961563f565b5050507fc6f04bf43cbdf1ba5d51b4afa160bb3c7e13858b1409aa32868b239bb2f8d84960405160405180910390a1565b6001600160a01b03811660009081526036602052604081206134da615467565b151592915050565b6000611ab582600060046125c2565b60006039611a0d615467565b603a8181613509615467565b811061351157fe5b90600052602060002001905061308c615467565b60006033613531615467565b906101000a90046001600160a01b03166001600160a01b03165a6135536155f9565b6001600160a01b0316146135a55760405162461bcd60e51b815260206004820152600c60248201526b37b7363c9036b0b730b3b2b960a11b6044820152606401604051809103906135a26153fc565b50505b6135ae816134ba565b156135b857611750565b61175081614c57565b6000818152603b602052604081206134da615467565b603b602052806000526040600020905061308c615467565b6000818301845110156136515760405162461bcd60e51b815260206004820152601b60248201527f52656164696e67206279746573206f7574206f6620626f756e6473000000000060448201526064016040518091039061364e6153fc565b50505b8260200184015190508160200380156126435760080260020a90049392505050565b6060603a80613680615467565b8060200260200160405190810160405281815291906020830182806136a3615467565b801561334657602002820191906000526020600020905b816136c3615467565b815260200190600101908083116136ba575050505050905090565b6000808060386136ec615467565b906101000a90046001600160a01b03166001600160a01b03166321f8a721680a6f2dce8d0cae8d2f60bb1b6040516001600160e01b031960e084901b168152600481019190915260240160206040518083038186806137496154c2565b15801561375e5760008061375b6153fc565b50505b505a61376861550e565b5050505050158015613787573d6000803e3d60006137846153fc565b50505b505050506040513d60208110156137a6576000806137a36153fc565b50505b8101908080516001600160a01b03169250633260803991508590506040516001600160e01b031960e084901b168152600481019190915260240160206040518083038186806137f36154c2565b158015613808576000806138056153fc565b50505b505a61381261550e565b5050505050158015613831573d6000803e3d600061382e6153fc565b50505b505050506040513d60208110156138505760008061384d6153fc565b50505b81019080805193505050506001600160a01b0381166138735760009150506119fc565b6000816001600160a01b031663ec5568896040518163ffffffff1660e01b815260040160206040518083038186806138a96154c2565b1580156138be576000806138bb6153fc565b50505b505a6138c861550e565b50505050501580156138e7573d6000803e3d60006138e46153fc565b50505b505050506040513d6020811015613906576000806139036153fc565b50505b81019080805193505050506001600160a01b03811661392a576000925050506119fc565b5060019392505050565b60016000613940615467565b906101000a900460ff168061395857506139586151f9565b806139755750600080613969615467565b906101000a900460ff16155b6139b95760405162461bcd60e51b815260040180806020018281038252602e815260200180615859602e9139604001915050604051809103906139b66153fc565b50505b60006001816139c6615467565b906101000a900460ff161590508015613a2c5760016000610100816139e9615467565b8160ff021916908315150217906139fe61563f565b50505060016000806101000a81613a13615467565b8160ff02191690831515021790613a2861563f565b5050505b613a36858561526a565b856039600181613a44615467565b816001600160a01b0302191690836001600160a01b0316021790613a6661563f565b50505082603860006101000a81613a7b615467565b816001600160a01b0302191690836001600160a01b0316021790613a9d61563f565b505050613ab0631cd554d160e21b614913565b60005b82518160ff161015613ae657613ade838260ff1681518110613ad157fe5b6020026020010151614913565b600101613ab3565b50631cd554d160e21b6000908152603c60205260019060409020600181613b0b615467565b8160ff02191690831515021790613b2061563f565b5050508015613b515760008061010081613b38615467565b8160ff02191690831515021790613b4d61563f565b5050505b505050505050565b600080603d613b66615467565b603e613b70615467565b915091509091565b60006033613b84615467565b906101000a90046001600160a01b03166001600160a01b03165a613ba66155f9565b6001600160a01b03161480613bef575060006037613bc2615467565b906101000a90046001600160a01b03166001600160a01b03165a613be46155f9565b6001600160a01b0316145b613c415760405162461bcd60e51b815260206004820152601660248201527537b7363c9036b0b730b3b2b91037b9103a3930b232b960511b604482015260640160405180910390613c3e6153fc565b50505b613c4a836135c1565b613ca35760405162461bcd60e51b815260206004820152601b60248201527f756e737570706f7274656420736f757263652063757272656e63790000000000604482015260640160405180910390613ca06153fc565b50505b613cac816135c1565b613d055760405162461bcd60e51b815260206004820181905260248201527f756e737570706f727465642064657374696e6174696f6e2063757272656e6379604482015260640160405180910390613d026153fc565b50505b6000806038613d12615467565b906101000a90046001600160a01b03166001600160a01b03166321f8a721680a6f2dce8d0cae8d2f60bb1b6040516001600160e01b031960e084901b16815260048101919091526024016020604051808303818680613d6f6154c2565b158015613d8457600080613d816153fc565b50505b505a613d8e61550e565b5050505050158015613dad573d6000803e3d6000613daa6153fc565b50505b505050506040513d6020811015613dcc57600080613dc96153fc565b50505b810190808051935060009250506001600160a01b03831690506330ead760868686856039613df8615467565b906101000a90046001600160a01b03166001600160a01b0316631d68702d6040518163ffffffff1660e01b81526004016020604051808303818680613e3b6154c2565b158015613e5057600080613e4d6153fc565b50505b505a613e5a61550e565b5050505050158015613e79573d6000803e3d6000613e766153fc565b50505b505050506040513d6020811015613e9857600080613e956153fc565b50505b81019080805192506000915060399050613eb0615467565b906101000a90046001600160a01b03166001600160a01b03166349f7c02d6040518163ffffffff1660e01b81526004016020604051808303818680613ef36154c2565b158015613f0857600080613f056153fc565b50505b505a613f1261550e565b5050505050158015613f31573d6000803e3d6000613f2e6153fc565b50505b505050506040513d6020811015613f5057600080613f4d6153fc565b50505b81019080805192506040915050516001600160e01b031960e088901b1681526004810195909552602485019390935260448401919091526001600160a01b03166064830152608482015260a40160206040518083038160008780613fb26154c2565b158015613fc757600080613fc46153fc565b50505b505a613fd1615773565b505050505050158015613ff1573d6000803e3d6000613fee6153fc565b50505b505050506040513d60208110156140105760008061400d6153fc565b50505b81019080805193507f2f3156bec1dba8438caa2579a04e750d9ca242f1c16d87594c77efdbede59bbe925050505a63996d79a5598160e01b8152602081600483336000905af158601d01573d60011458600c01573d6000803e3d621234565260ea61109c528051925060005b60408110156140935760008282015260200161407c565b5050505a61409f6155f9565b878787865a6140ac61572d565b6040516001600160a01b0397881681529590961660208601526040808601949094526060850192909252608084015260a083015260c082019290925260e001905180910390a15050505050565b60608060606000603a8061410b615467565b9050905060608167ffffffffffffffff811180156141315760008061412e6153fc565b50505b5060405190808252806020026020018201604052801561415b578160200160208202803683370190505b50905060608267ffffffffffffffff811180156141805760008061417d6153fc565b50505b506040519080825280602002602001820160405280156141aa578160200160208202803683370190505b50905060608367ffffffffffffffff811180156141cf576000806141cc6153fc565b50505b506040519080825280602002602001820160405280156141f9578160200160208202803683370190505b5090506000806038614209615467565b906101000a90046001600160a01b03166001600160a01b03166321f8a7216c45786368616e6765526174657360981b6040516001600160e01b031960e084901b1681526004810191909152602401602060405180830381868061426a6154c2565b15801561427f5760008061427c6153fc565b50505b505a61428961550e565b50505050501580156142a8573d6000803e3d60006142a56153fc565b50505b505050506040513d60208110156142c7576000806142c46153fc565b50505b81019080805193506000925050505b85811015614517576000603a82816142ec615467565b81106142f457fe5b90600052602060002001614306615467565b905061431181611ed7565b6001600160a01b03166370a082315a63996d79a5598160e01b8152602081600483336000905af158601d01573d60011458600c01573d6000803e3d621234565260ea61109c528051925060005b60408110156143755760008282015260200161435e565b5050506040516001600160e01b031960e084901b1681526001600160a01b03909116600482015260240160206040518083038186806143b26154c2565b1580156143c7576000806143c46153fc565b50505b505a6143d161550e565b50505050501580156143f0573d6000803e3d60006143ed6153fc565b50505b505050506040513d602081101561440f5760008061440c6153fc565b50505b81019080805192508791508490508151811061442757fe5b6020026020010181815250508086838151811061444057fe5b602002602001018181525050826001600160a01b031663ac82f608826040516001600160e01b031960e084901b1681526004810191909152602401602060405180830381868061448e6154c2565b1580156144a3576000806144a06153fc565b50505b505a6144ad61550e565b50505050501580156144cc573d6000803e3d60006144c96153fc565b50505b505050506040513d60208110156144eb576000806144e86153fc565b50505b81019080805192508691508490508151811061450357fe5b6020908102919091010152506001016142d6565b509297919650945092505050565b6060603480614532615467565b600181600116156101000203166002900480601f01602080910402602001604051908101604052818152919060208301828061456c615467565b600181600116156101000203166002900480156133465780601f106145a6576101008083614598615467565b040283529160200191613346565b820191906000526020600020905b816145bd615467565b815290600101906020018083116145b457509395945050505050565b6000603a806145e6615467565b6000848152603b602052909250905061460c600160408320614606615467565b906152b1565b90506000603a61461d8460016152b1565b81614626615467565b811061462e57fe5b90600052602060002001614640615467565b905080603a838161464f615467565b811061465757fe5b90600052602060002001819061466b61563f565b5061467b91508390506001614bf8565b6000828152603b60205260409020819061469361563f565b5050506000848152603b6020526040812081906146ae61563f565b505050603a806146bc615467565b806146c357fe5b600190038181906000526020600020016000906146de61563f565b5050906146e961563f565b50507f241d622959843ef6d15b4517709d11e054e1c06a2733f7773837c3d2377d8a895a63996d79a5598160e01b8152602081600483336000905af158601d01573d60011458600c01573d6000803e3d621234565260ea61109c528051925060005b60408110156147625760008282015260200161474b565b50505061476d61236e565b866040516001600160a01b039384168152919092166020820152604080820192909252606001905180910390a150505050565b60006035806147ad615467565b6001600160a01b0384166000908152603660205290925090506147d7600160408320614606615467565b9050600060356147e88460016152b1565b816147f1615467565b81106147f957fe5b9060005260206000200160009061480e615467565b906101000a90046001600160a01b03169050806035838161482d615467565b811061483557fe5b9060005260206000200160018161484a615467565b816001600160a01b0302191690836001600160a01b031602179061486c61563f565b5061487c91508390506001614bf8565b6001600160a01b0382166000908152603660205260409020819061489e61563f565b5050506001600160a01b038416600090815260366020526040812081906148c361563f565b5050506035806148d1615467565b806148d857fe5b600190038181906000526020600020016001816148f3615467565b906001600160a01b030219169061490861563f565b505090613b5161563f565b6000603961491f615467565b906101000a90046001600160a01b03166001600160a01b031663aa12ae4d6040518163ffffffff1660e01b815260040160206040518083038186806149626154c2565b158015614977576000806149746153fc565b50505b505a61498161550e565b50505050501580156149a0573d6000803e3d600061499d6153fc565b50505b505050506040513d60208110156149bf576000806149bc6153fc565b50505b8101908080519250603a91508190506149d6615467565b905010614a2b5760405162461bcd60e51b81526020600482015260166024820152751b585e1a5b5d5b48185cdcd95d1cc81c995858da195960521b604482015260640160405180910390614a286153fc565b50505b614a34816135c1565b15614a8e5760405162461bcd60e51b815260206004820152601760248201527f617373657420616c726561647920737570706f72746564000000000000000000604482015260640160405180910390614a8b6153fc565b50505b614a97816136de565b1515600114614ae75760405162461bcd60e51b815260206004820152600f60248201526e1b9bdb8b5cde5b9d1a08185cdcd95d608a1b604482015260640160405180910390614ae46153fc565b50505b80603a80600181614af6615467565b018082614b0161563f565b505060009283526000190191602091502001614b1b61563f565b5050603a80614b28615467565b6000838152603b602052909150604090208190614b4361563f565b5050507f4c719ca79dbb56150643ac79f2fbfa02370838ed0d116fc28b9703f5a071c4e25a63996d79a5598160e01b8152602081600483336000905af158601d01573d60011458600c01573d6000803e3d621234565260ea61109c528051925060005b6040811015614bbd57600082820152602001614ba6565b505050614bc861236e565b836040516001600160a01b039384168152919092166020820152604080820192909252606001905180910390a150565b6000828201838110156121965760405162461bcd60e51b815260206004820152601b60248201527f536166654d6174683a206164646974696f6e206f766572666c6f7700000000006044820152606401604051809103906121936153fc565b80603580600181614c66615467565b018082614c7161563f565b505060009283526000190191602091502001600181614c8e615467565b816001600160a01b0302191690836001600160a01b0316021790614cb061563f565b505050603580614cbe615467565b6001600160a01b03831660009081526036602052909150604090208190611c0761563f565b614cec846135c1565b614d455760405162461bcd60e51b815260206004820152601b60248201527f756e737570706f7274656420736f757263652063757272656e63790000000000604482015260640160405180910390614d426153fc565b50505b614d4e826135c1565b614da75760405162461bcd60e51b815260206004820181905260248201527f756e737570706f727465642064657374696e6174696f6e2063757272656e6379604482015260640160405180910390614da46153fc565b50505b60006060866001600160a01b0316836040518082805190602001908083835b60208310614de55780518252601f199092019160209182019101614dc6565b6001836020036101000a0380198251168184511680821785525050505050509050019150506000604051808303816000865a614e1f615773565b5050505050509150503d8060008114614e54576040513d603f01601f191681016040523d815291503d6000602084013e614e59565b606091505b509092509050600182151514614ebe5760405162461bcd60e51b815260206004820152601a60248201527f6661696c656420746f20657865637574652065786368616e6765000000000000604482015260640160405180910390614ebb6153fc565b50505b7f2f3156bec1dba8438caa2579a04e750d9ca242f1c16d87594c77efdbede59bbe5a63996d79a5598160e01b8152602081600483336000905af158601d01573d60011458600c01573d6000803e3d621234565260ea61109c528051925060005b6040811015614f3557600082820152602001614f1e565b505050614f4061236e565b888888614f4e8760006152f1565b5a614f5761572d565b6040516001600160a01b0397881681529590961660208601526040808601949094526060850192909252608084015260a083015260c082019290925260e001905180910390a150505050505050565b60006039614fb2615467565b906101000a90046001600160a01b03166001600160a01b031663046b72c483836040516001600160e01b031960e085901b1681526001600160a01b0390921660048301526024820152604401600060405180830381600087806150136154c2565b158015615028576000806150256153fc565b50505b505a615032615773565b505050505050158015615052573d6000803e3d600061504f6153fc565b50505b505050506000806039600090615066615467565b906101000a90046001600160a01b03166001600160a01b031663b7a54526856040516001600160e01b031960e084901b1681526001600160a01b039091166004820152602401604080518083038186806150be6154c2565b1580156150d3576000806150d06153fc565b50505b505a6150dd61550e565b50505050501580156150fc573d6000803e3d60006150f96153fc565b50505b505050506040513d604081101561511b576000806151186153fc565b50505b81019080805192919060200180519395509293507f1780c04ddc6f0b32d866c7a3d7583f53515ef49ed2126af868f804f491601266925050505a63996d79a5598160e01b8152602081600483336000905af158601d01573d60011458600c01573d6000803e3d621234565260ea61109c528051925060005b60408110156151aa57600082820152602001615193565b5050506151b561236e565b848460405180856001600160a01b03168152602001846001600160a01b0316815260200183815260200182815260200194505050505060405180910390a150505050565b6000805a63996d79a5598160e01b8152602081600483336000905af158601d01573d60011458600c01573d6000803e3d621234565260ea61109c528051925060005b60408110156152525760008282015260200161523b565b50505090506000816152626154c2565b159250505090565b816033600181615278615467565b816001600160a01b0302191690836001600160a01b031602179061529a61563f565b50505080603490805161314092916020019061568d565b6000612196838360405160408082019052601e81527f536166654d6174683a207375627472616374696f6e206f766572666c6f770000602082015261535c565b6000816020018351101561534b5760405162461bcd60e51b8152602060048201526014602482015273736c6963696e67206f7574206f662072616e676560601b6044820152606401604051809103906153486153fc565b50505b600082602001840151949350505050565b600081848411156153f45760405162461bcd60e51b81526004018080602001828103825283818151815260200191508051906020019080838360005b838110156153b0578082015183820152602001615398565b50505050905090810190601f1680156153dd5780820380516001836020036101000a031916815260200191505b5092505050604051809103906153f16153fc565b50505b505050900390565b632a2a7adb598160e01b8152600481016020815285602082015260005b86811015615434578086015182820160400152602001615419565b506020828760640184336000905af158601d01573d60011458600c01573d6000803e3d621234565260ea61109c52505050565b6303daa959598160e01b8152836004820152602081602483336000905af158601d01573d60011458600c01573d6000803e3d621234565260ea61109c528051935060005b6040811015613140576000828201526020016154ab565b638435035b598160e01b8152836004820152602081602483336000905af158601d01573d60011458600c01573d6000803e3d621234565260ea61109c52805160008252935060206154ab565b638540661f598160e01b815261553f565b8080831115611ab5575090919050565b8080831015611ab5575090919050565b836004820152846024820152606060448201528660648201526084810160005b8881101561557757808801518282015260200161555f565b506060828960a40184336000905af158601d01573d60011458600c01573d6000803e3d621234565260ea61109c52815160408301513d6000853e8b8b82606087013350600060045af150596155cc8d3d61552f565b8c016155d8818761551f565b5b828110156155ed57600081526020016155d9565b50929c50505050505050565b6373509064598160e01b8152602081600483336000905af158601d01573d60011458600c01573d6000803e3d621234565260ea61109c52805160008252935060206154ab565b6322bd64c0598160e01b8152836004820152846024820152600081604483336000905af158601d01573d60011458600c01573d6000803e3d621234565260ea61109c526000815260206154ab565b8280615697615467565b600181600116156101000203166002900490600052602060002090601f016020900481019282601f106156de57805160ff191683800117856156d761563f565b505061571d565b828001600101856156ed61563f565b5050821561571d579182015b8281111561571d5782518261570c61563f565b5050916020019190600101906156f9565b50615729929150615839565b5090565b63bdbf8c36598160e01b8152602081600483336000905af158601d01573d60011458600c01573d6000803e3d621234565260ea61109c52805160008252935060206154ab565b6385979f76598160e01b8152836004820152846024820152606060448201528760648201526084810160005b898110156157b757808901518282015260200161579f565b506060828a60a40184336000905af158601d01573d60011458600c01573d6000803e3d621234565260ea61109c52815160408301513d6000853e8c8c82606087013350600060045af1505961580c8e3d61552f565b8d01615818818761551f565b5b8281101561582d5760008152602001615819565b50929d50505050505050565b80821115615729576000808261584d61563f565b50505060010161583956fe436f6e747261637420696e7374616e63652068617320616c7265616479206265656e20696e697469616c697a6564",
  "linkReferences": {},
  "deployedLinkReferences": {}
}