{
  "_format": "hh-sol-artifact-1",
  "contractName": "PoolManagerLogic-ovm",
  "sourceName": "contracts/PoolManagerLogic.sol",
  "abi": [
    {
      "anonymous": false,
      "inputs": [
        {
          "indexed": false,
          "internalType": "address",
          "name": "fundAddress",
          "type": "address"
        },
        {
          "indexed": false,
          "internalType": "address",
          "name": "manager",
          "type": "address"
        },
        {
          "indexed": false,
          "internalType": "address",
          "name": "asset",
          "type": "address"
        }
      ],
      "name": "AssetAdded",
      "type": "event"
    },
    {
      "anonymous": false,
      "inputs": [
        {
          "indexed": false,
          "internalType": "address",
          "name": "fundAddress",
          "type": "address"
        },
        {
          "indexed": false,
          "internalType": "address",
          "name": "manager",
          "type": "address"
        },
        {
          "indexed": false,
          "internalType": "address",
          "name": "asset",
          "type": "address"
        }
      ],
      "name": "AssetRemoved",
      "type": "event"
    },
    {
      "anonymous": false,
      "inputs": [
        {
          "indexed": false,
          "internalType": "address",
          "name": "fundAddress",
          "type": "address"
        },
        {
          "indexed": false,
          "internalType": "address",
          "name": "manager",
          "type": "address"
        },
        {
          "indexed": false,
          "internalType": "address",
          "name": "sourceAsset",
          "type": "address"
        },
        {
          "indexed": false,
          "internalType": "uint256",
          "name": "sourceAmount",
          "type": "uint256"
        },
        {
          "indexed": false,
          "internalType": "address",
          "name": "destinationAddress",
          "type": "address"
        },
        {
          "indexed": false,
          "internalType": "uint256",
          "name": "destinationAmount",
          "type": "uint256"
        },
        {
          "indexed": false,
          "internalType": "uint256",
          "name": "time",
          "type": "uint256"
        }
      ],
      "name": "Exchange",
      "type": "event"
    },
    {
      "anonymous": false,
      "inputs": [
        {
          "indexed": false,
          "internalType": "uint256",
          "name": "newNumerator",
          "type": "uint256"
        },
        {
          "indexed": false,
          "internalType": "uint256",
          "name": "announcedFeeActivationTime",
          "type": "uint256"
        }
      ],
      "name": "ManagerFeeIncreaseAnnounced",
      "type": "event"
    },
    {
      "anonymous": false,
      "inputs": [],
      "name": "ManagerFeeIncreaseRenounced",
      "type": "event"
    },
    {
      "anonymous": false,
      "inputs": [
        {
          "indexed": false,
          "internalType": "address",
          "name": "fundAddress",
          "type": "address"
        },
        {
          "indexed": false,
          "internalType": "address",
          "name": "manager",
          "type": "address"
        },
        {
          "indexed": false,
          "internalType": "uint256",
          "name": "numerator",
          "type": "uint256"
        },
        {
          "indexed": false,
          "internalType": "uint256",
          "name": "denominator",
          "type": "uint256"
        }
      ],
      "name": "ManagerFeeSet",
      "type": "event"
    },
    {
      "anonymous": false,
      "inputs": [
        {
          "indexed": false,
          "internalType": "address",
          "name": "newManager",
          "type": "address"
        },
        {
          "indexed": false,
          "internalType": "string",
          "name": "newManagerName",
          "type": "string"
        }
      ],
      "name": "ManagerUpdated",
      "type": "event"
    },
    {
      "inputs": [
        {
          "internalType": "address",
          "name": "member",
          "type": "address"
        }
      ],
      "name": "addMember",
      "outputs": [],
      "stateMutability": "nonpayable",
      "type": "function"
    },
    {
      "inputs": [
        {
          "internalType": "address[]",
          "name": "members",
          "type": "address[]"
        }
      ],
      "name": "addMembers",
      "outputs": [],
      "stateMutability": "nonpayable",
      "type": "function"
    },
    {
      "inputs": [
        {
          "internalType": "address",
          "name": "asset",
          "type": "address"
        }
      ],
      "name": "addToSupportedAssets",
      "outputs": [],
      "stateMutability": "nonpayable",
      "type": "function"
    },
    {
      "inputs": [],
      "name": "addressResolver",
      "outputs": [
        {
          "internalType": "contract IAddressResolver",
          "name": "",
          "type": "address"
        }
      ],
      "stateMutability": "view",
      "type": "function"
    },
    {
      "inputs": [
        {
          "internalType": "address",
          "name": "pool",
          "type": "address"
        },
        {
          "internalType": "uint256",
          "name": "numerator",
          "type": "uint256"
        }
      ],
      "name": "announceManagerFeeIncrease",
      "outputs": [],
      "stateMutability": "nonpayable",
      "type": "function"
    },
    {
      "inputs": [],
      "name": "announcedFeeIncreaseNumerator",
      "outputs": [
        {
          "internalType": "uint256",
          "name": "",
          "type": "uint256"
        }
      ],
      "stateMutability": "view",
      "type": "function"
    },
    {
      "inputs": [],
      "name": "announcedFeeIncreaseTimestamp",
      "outputs": [
        {
          "internalType": "uint256",
          "name": "",
          "type": "uint256"
        }
      ],
      "stateMutability": "view",
      "type": "function"
    },
    {
      "inputs": [
        {
          "internalType": "address",
          "name": "",
          "type": "address"
        }
      ],
      "name": "assetPosition",
      "outputs": [
        {
          "internalType": "uint256",
          "name": "",
          "type": "uint256"
        }
      ],
      "stateMutability": "view",
      "type": "function"
    },
    {
      "inputs": [
        {
          "internalType": "address",
          "name": "asset",
          "type": "address"
        }
      ],
      "name": "assetValue",
      "outputs": [
        {
          "internalType": "uint256",
          "name": "",
          "type": "uint256"
        }
      ],
      "stateMutability": "view",
      "type": "function"
    },
    {
      "inputs": [
        {
          "internalType": "address",
          "name": "newManager",
          "type": "address"
        },
        {
          "internalType": "string",
          "name": "newManagerName",
          "type": "string"
        }
      ],
      "name": "changeManager",
      "outputs": [],
      "stateMutability": "nonpayable",
      "type": "function"
    },
    {
      "inputs": [
        {
          "internalType": "address",
          "name": "pool",
          "type": "address"
        }
      ],
      "name": "commitManagerFeeIncrease",
      "outputs": [],
      "stateMutability": "nonpayable",
      "type": "function"
    },
    {
      "inputs": [
        {
          "internalType": "bytes32",
          "name": "data",
          "type": "bytes32"
        }
      ],
      "name": "convert32toAddress",
      "outputs": [
        {
          "internalType": "address",
          "name": "o",
          "type": "address"
        }
      ],
      "stateMutability": "pure",
      "type": "function"
    },
    {
      "inputs": [
        {
          "internalType": "address",
          "name": "sourceAsset",
          "type": "address"
        },
        {
          "internalType": "uint256",
          "name": "sourceAmount",
          "type": "uint256"
        },
        {
          "internalType": "address",
          "name": "destinationAsset",
          "type": "address"
        }
      ],
      "name": "exchangeSynth",
      "outputs": [],
      "stateMutability": "nonpayable",
      "type": "function"
    },
    {
      "inputs": [
        {
          "internalType": "address",
          "name": "to",
          "type": "address"
        },
        {
          "internalType": "bytes",
          "name": "data",
          "type": "bytes"
        }
      ],
      "name": "execTransaction",
      "outputs": [
        {
          "internalType": "bool",
          "name": "",
          "type": "bool"
        }
      ],
      "stateMutability": "nonpayable",
      "type": "function"
    },
    {
      "inputs": [],
      "name": "factory",
      "outputs": [
        {
          "internalType": "address",
          "name": "",
          "type": "address"
        }
      ],
      "stateMutability": "view",
      "type": "function"
    },
    {
      "inputs": [
        {
          "internalType": "bytes",
          "name": "data",
          "type": "bytes"
        },
        {
          "internalType": "uint8",
          "name": "inputNum",
          "type": "uint8"
        },
        {
          "internalType": "uint8",
          "name": "arrayIndex",
          "type": "uint8"
        }
      ],
      "name": "getArrayIndex",
      "outputs": [
        {
          "internalType": "bytes32",
          "name": "",
          "type": "bytes32"
        }
      ],
      "stateMutability": "pure",
      "type": "function"
    },
    {
      "inputs": [
        {
          "internalType": "bytes",
          "name": "data",
          "type": "bytes"
        },
        {
          "internalType": "uint8",
          "name": "inputNum",
          "type": "uint8"
        }
      ],
      "name": "getArrayLast",
      "outputs": [
        {
          "internalType": "bytes32",
          "name": "",
          "type": "bytes32"
        }
      ],
      "stateMutability": "pure",
      "type": "function"
    },
    {
      "inputs": [
        {
          "internalType": "bytes",
          "name": "data",
          "type": "bytes"
        },
        {
          "internalType": "uint8",
          "name": "inputNum",
          "type": "uint8"
        }
      ],
      "name": "getArrayLength",
      "outputs": [
        {
          "internalType": "uint256",
          "name": "",
          "type": "uint256"
        }
      ],
      "stateMutability": "pure",
      "type": "function"
    },
    {
      "inputs": [
        {
          "internalType": "bytes32",
          "name": "key",
          "type": "bytes32"
        }
      ],
      "name": "getAssetProxy",
      "outputs": [
        {
          "internalType": "address",
          "name": "",
          "type": "address"
        }
      ],
      "stateMutability": "view",
      "type": "function"
    },
    {
      "inputs": [],
      "name": "getFundComposition",
      "outputs": [
        {
          "internalType": "address[]",
          "name": "",
          "type": "address[]"
        },
        {
          "internalType": "uint256[]",
          "name": "",
          "type": "uint256[]"
        },
        {
          "internalType": "uint256[]",
          "name": "",
          "type": "uint256[]"
        }
      ],
      "stateMutability": "view",
      "type": "function"
    },
    {
      "inputs": [
        {
          "internalType": "bytes",
          "name": "data",
          "type": "bytes"
        },
        {
          "internalType": "uint8",
          "name": "inputNum",
          "type": "uint8"
        }
      ],
      "name": "getInput",
      "outputs": [
        {
          "internalType": "bytes32",
          "name": "",
          "type": "bytes32"
        }
      ],
      "stateMutability": "pure",
      "type": "function"
    },
    {
      "inputs": [
        {
          "internalType": "address",
          "name": "pool",
          "type": "address"
        }
      ],
      "name": "getManagerFee",
      "outputs": [
        {
          "internalType": "uint256",
          "name": "",
          "type": "uint256"
        },
        {
          "internalType": "uint256",
          "name": "",
          "type": "uint256"
        }
      ],
      "stateMutability": "view",
      "type": "function"
    },
    {
      "inputs": [],
      "name": "getManagerFeeIncreaseInfo",
      "outputs": [
        {
          "internalType": "uint256",
          "name": "",
          "type": "uint256"
        },
        {
          "internalType": "uint256",
          "name": "",
          "type": "uint256"
        }
      ],
      "stateMutability": "view",
      "type": "function"
    },
    {
      "inputs": [],
      "name": "getMembers",
      "outputs": [
        {
          "internalType": "address[]",
          "name": "",
          "type": "address[]"
        }
      ],
      "stateMutability": "view",
      "type": "function"
    },
    {
      "inputs": [
        {
          "internalType": "bytes",
          "name": "data",
          "type": "bytes"
        }
      ],
      "name": "getMethod",
      "outputs": [
        {
          "internalType": "bytes4",
          "name": "",
          "type": "bytes4"
        }
      ],
      "stateMutability": "pure",
      "type": "function"
    },
    {
      "inputs": [],
      "name": "getSupportedAssets",
      "outputs": [
        {
          "internalType": "address[]",
          "name": "",
          "type": "address[]"
        }
      ],
      "stateMutability": "view",
      "type": "function"
    },
    {
      "inputs": [],
      "name": "getSuspendedAssets",
      "outputs": [
        {
          "internalType": "address[]",
          "name": "",
          "type": "address[]"
        },
        {
          "internalType": "bool[]",
          "name": "",
          "type": "bool[]"
        }
      ],
      "stateMutability": "view",
      "type": "function"
    },
    {
      "inputs": [
        {
          "internalType": "address",
          "name": "asset",
          "type": "address"
        }
      ],
      "name": "getSynthKey",
      "outputs": [
        {
          "internalType": "bytes32",
          "name": "",
          "type": "bytes32"
        }
      ],
      "stateMutability": "view",
      "type": "function"
    },
    {
      "inputs": [
        {
          "internalType": "address",
          "name": "_factory",
          "type": "address"
        },
        {
          "internalType": "address",
          "name": "_manager",
          "type": "address"
        },
        {
          "internalType": "string",
          "name": "_managerName",
          "type": "string"
        },
        {
          "internalType": "contract IAddressResolver",
          "name": "_addressResolver",
          "type": "address"
        },
        {
          "internalType": "address[]",
          "name": "_supportedAssets",
          "type": "address[]"
        }
      ],
      "name": "initialize",
      "outputs": [],
      "stateMutability": "nonpayable",
      "type": "function"
    },
    {
      "inputs": [
        {
          "internalType": "address",
          "name": "asset",
          "type": "address"
        }
      ],
      "name": "isAssetSupported",
      "outputs": [
        {
          "internalType": "bool",
          "name": "",
          "type": "bool"
        }
      ],
      "stateMutability": "view",
      "type": "function"
    },
    {
      "inputs": [
        {
          "internalType": "address",
          "name": "member",
          "type": "address"
        }
      ],
      "name": "isMemberAllowed",
      "outputs": [
        {
          "internalType": "bool",
          "name": "",
          "type": "bool"
        }
      ],
      "stateMutability": "view",
      "type": "function"
    },
    {
      "inputs": [
        {
          "internalType": "address",
          "name": "",
          "type": "address"
        }
      ],
      "name": "isSynthAsset",
      "outputs": [
        {
          "internalType": "bool",
          "name": "",
          "type": "bool"
        }
      ],
      "stateMutability": "view",
      "type": "function"
    },
    {
      "inputs": [],
      "name": "manager",
      "outputs": [
        {
          "internalType": "address",
          "name": "",
          "type": "address"
        }
      ],
      "stateMutability": "view",
      "type": "function"
    },
    {
      "inputs": [],
      "name": "managerName",
      "outputs": [
        {
          "internalType": "string",
          "name": "",
          "type": "string"
        }
      ],
      "stateMutability": "view",
      "type": "function"
    },
    {
      "inputs": [],
      "name": "numberOfMembers",
      "outputs": [
        {
          "internalType": "uint256",
          "name": "",
          "type": "uint256"
        }
      ],
      "stateMutability": "view",
      "type": "function"
    },
    {
      "inputs": [],
      "name": "numberOfSupportedAssets",
      "outputs": [
        {
          "internalType": "uint256",
          "name": "",
          "type": "uint256"
        }
      ],
      "stateMutability": "view",
      "type": "function"
    },
    {
      "inputs": [
        {
          "internalType": "address",
          "name": "",
          "type": "address"
        }
      ],
      "name": "persistentAsset",
      "outputs": [
        {
          "internalType": "bool",
          "name": "",
          "type": "bool"
        }
      ],
      "stateMutability": "view",
      "type": "function"
    },
    {
      "inputs": [
        {
          "internalType": "bytes",
          "name": "data",
          "type": "bytes"
        },
        {
          "internalType": "uint256",
          "name": "offset",
          "type": "uint256"
        },
        {
          "internalType": "uint256",
          "name": "length",
          "type": "uint256"
        }
      ],
      "name": "read32",
      "outputs": [
        {
          "internalType": "bytes32",
          "name": "o",
          "type": "bytes32"
        }
      ],
      "stateMutability": "pure",
      "type": "function"
    },
    {
      "inputs": [
        {
          "internalType": "bytes",
          "name": "data",
          "type": "bytes"
        },
        {
          "internalType": "uint256",
          "name": "offset",
          "type": "uint256"
        },
        {
          "internalType": "uint256",
          "name": "length",
          "type": "uint256"
        }
      ],
      "name": "read4left",
      "outputs": [
        {
          "internalType": "bytes4",
          "name": "o",
          "type": "bytes4"
        }
      ],
      "stateMutability": "pure",
      "type": "function"
    },
    {
      "inputs": [
        {
          "internalType": "address",
          "name": "asset",
          "type": "address"
        }
      ],
      "name": "removeFromSupportedAssets",
      "outputs": [],
      "stateMutability": "nonpayable",
      "type": "function"
    },
    {
      "inputs": [
        {
          "internalType": "address",
          "name": "member",
          "type": "address"
        }
      ],
      "name": "removeMember",
      "outputs": [],
      "stateMutability": "nonpayable",
      "type": "function"
    },
    {
      "inputs": [
        {
          "internalType": "address[]",
          "name": "members",
          "type": "address[]"
        }
      ],
      "name": "removeMembers",
      "outputs": [],
      "stateMutability": "nonpayable",
      "type": "function"
    },
    {
      "inputs": [],
      "name": "removeTrader",
      "outputs": [],
      "stateMutability": "nonpayable",
      "type": "function"
    },
    {
      "inputs": [],
      "name": "renounceManagerFeeIncrease",
      "outputs": [],
      "stateMutability": "nonpayable",
      "type": "function"
    },
    {
      "inputs": [
        {
          "internalType": "address",
          "name": "_addressResolver",
          "type": "address"
        }
      ],
      "name": "setAddressResolver",
      "outputs": [],
      "stateMutability": "nonpayable",
      "type": "function"
    },
    {
      "inputs": [
        {
          "internalType": "address",
          "name": "newTrader",
          "type": "address"
        }
      ],
      "name": "setTrader",
      "outputs": [],
      "stateMutability": "nonpayable",
      "type": "function"
    },
    {
      "inputs": [
        {
          "internalType": "uint256",
          "name": "",
          "type": "uint256"
        }
      ],
      "name": "supportedAssets",
      "outputs": [
        {
          "internalType": "address",
          "name": "",
          "type": "address"
        }
      ],
      "stateMutability": "view",
      "type": "function"
    },
    {
      "inputs": [],
      "name": "trader",
      "outputs": [
        {
          "internalType": "address",
          "name": "",
          "type": "address"
        }
      ],
      "stateMutability": "view",
      "type": "function"
    },
    {
      "inputs": [
        {
          "internalType": "address",
          "name": "asset",
          "type": "address"
        }
      ],
      "name": "validateAsset",
      "outputs": [
        {
          "internalType": "bool",
          "name": "",
          "type": "bool"
        }
      ],
      "stateMutability": "view",
      "type": "function"
    }
  ],
  "bytecode": "0x60806040523480156200001c576000806200001962000023565b50505b5062000090565b632a2a7adb598160e01b8152600481016020815285602082015260005b868110156200005d57808601518282016040015260200162000040565b506020828760640184336000905af158600e01573d6000803e3d6000fd5b3d6001141558600a015760016000f35b505050565b615b9080620000a06000396000f3fe608060405234801561001957600080610016615705565b50505b50600436106102c45760003560e01c80637c8afd511161018b578063b8bd81e6116100f2578063d346cc65116100ab578063e5406dbf11610085578063e5406dbf146112cd578063ed5b165d146112d5578063f09d14d7146112dd578063fed4416a146113c3576102c4565b8063d346cc6514611044578063d8af8ed4146111d2578063db896b5714611201576102c4565b8063b8bd81e614610ee9578063bbbf725b14610ef1578063c3c6279f14610f20578063c45a015514610fe7578063c68dbb3714610fef578063ca6d56dc14611015576102c4565b8063969eed2711610144578063969eed2714610d2d578063998546e314610d5c5780639eab525314610e28578063a0f8414c14610e83578063a30e3fa914610eb2578063a6bc18f914610eba576102c4565b80637c8afd5114610beb57806380dd4f6214610bf357806382f86acc14610c225780638f32343914610cee5780639240d29914610cf6578063936553c414610d25576102c4565b806341dc16c31161022f5780635f6eceab116101e85780635f6eceab1461099c5780636141db90146109e35780636708f5d714610a125780636f4d469b14610a475780637ae7cfb514610b0c5780637b4d0c6314610be3576102c4565b806341dc16c3146105f5578063464b4158146106cc57806346ee84b01461070f578063481c6a75146107d457806352213663146107dc578063568b5a2f146108b3576102c4565b80631758078b116102815780631758078b146104925780631eba30771461049a57806321f8c984146104c05780633c570d7d146105615780633ded6530146105905780633f452dab146105b6576102c4565b806305a2ee2a146102d257806306468587146102f6578063093b88251461032757806309ff5c7d146103565780630b1ca49a146104345780631430238714610463575b6000806102cf615705565b50505b6102da611442565b6040516001600160a01b03909116815260200160405180910390f35b6103256004803603602081101561031557600080610312615705565b50505b50356001600160a01b0316611461565b005b6103256004803603602081101561034657600080610343615705565b50505b50356001600160a01b0316611844565b6104226004803603604081101561037557600080610372615705565b50505b810190602081018135600160201b81111561039857600080610395615705565b50505b8201836020820111156103b3576000806103b0615705565b50505b803590602001918460018302840111600160201b831117156103dd576000806103da615705565b50505b91908080601f01602080910402602001604051908101604052818152929190602084018383808284376000920191909152509295505050903560ff1691506119169050565b60405190815260200160405180910390f35b6103256004803603602081101561045357600080610450615705565b50505b50356001600160a01b03166119b1565b610325600480360360208110156104825760008061047f615705565b50505b50356001600160a01b0316611a4c565b6102da611b03565b6102da600480360360208110156104b9576000806104b6615705565b50505b5035611b25565b6104c8611b2c565b604051808060200180602001838103835285818151815260200191508051906020019060200280838360005b8381101561050c5780820151838201526020016104f4565b50505050905001838103825284818151815260200191508051906020019060200280838360005b8381101561054b578082015183820152602001610533565b5050505090500194505050505060405180910390f35b610422600480360360208110156105805760008061057d615705565b50505b50356001600160a01b0316611dee565b6102da600480360360208110156105af576000806105ac615705565b50505b5035611e09565b610325600480360360608110156105d5576000806105d2615705565b50505b506001600160a01b038135811691602081013591604090910135166120cf565b6104226004803603606081101561061457600080610611615705565b50505b810190602081018135600160201b81111561063757600080610634615705565b50505b8201836020820111156106525760008061064f615705565b50505b803590602001918460018302840111600160201b8311171561067c57600080610679615705565b50505b91908080601f01602080910402602001604051908101604052818152929190602084018383808284376000920191909152509295505060ff833581169450602090930135909216915061266b9050565b6106fb600480360360208110156106eb576000806106e8615705565b50505b50356001600160a01b0316612763565b604051901515815260200160405180910390f35b6103256004803603602081101561072e5760008061072b615705565b50505b810190602081018135600160201b8111156107515760008061074e615705565b50505b82018360208201111561076c57600080610769615705565b50505b803590602001918460208302840111600160201b8311171561079657600080610793615705565b50505b91908080602002602001604051908101604052809392919081815260200183836020028082843760009201919091525092955061278b945050505050565b6102da612864565b610325600480360360408110156107fb576000806107f8615705565b50505b6001600160a01b038235169190810190604081016020820135600160201b81111561082e5760008061082b615705565b50505b82018360208201111561084957600080610846615705565b50505b803590602001918460018302840111600160201b8311171561087357600080610870615705565b50505b91908080601f0160208091040260200160405190810160405281815292919060208401838380828437600092019190915250929550612871945050505050565b61097f600480360360608110156108d2576000806108cf615705565b50505b810190602081018135600160201b8111156108f5576000806108f2615705565b50505b8201836020820111156109105760008061090d615705565b50505b803590602001918460018302840111600160201b8311171561093a57600080610937615705565b50505b91908080601f016020809104026020016040519081016040528181529291906020840183838082843760009201919091525092955050823593505050602001356129e6565b6040516001600160e01b0319909116815260200160405180910390f35b6109cb600480360360208110156109bb576000806109b8615705565b50505b50356001600160a01b0316612a6f565b60405191825260208201526040908101905180910390f35b61042260048036036020811015610a02576000806109ff615705565b50505b50356001600160a01b0316612b4e565b61032560048036036040811015610a3157600080610a2e615705565b50505b506001600160a01b038135169060200135612e3a565b61032560048036036020811015610a6657600080610a63615705565b50505b810190602081018135600160201b811115610a8957600080610a86615705565b50505b820183602082011115610aa457600080610aa1615705565b50505b803590602001918460208302840111600160201b83111715610ace57600080610acb615705565b50505b91908080602002602001604051908101604052809392919081815260200183836020028082843760009201919091525092955061316a945050505050565b6106fb60048036036040811015610b2b57600080610b28615705565b50505b6001600160a01b038235169190810190604081016020820135600160201b811115610b5e57600080610b5b615705565b50505b820183602082011115610b7957600080610b76615705565b50505b803590602001918460018302840111600160201b83111715610ba357600080610ba0615705565b50505b91908080601f0160208091040260200160405190810160405281815292919060208401838380828437600092019190915250929550613233945050505050565b61042261377b565b610325613785565b6106fb60048036036020811015610c1257600080610c0f615705565b50505b50356001600160a01b031661383b565b61042260048036036040811015610c4157600080610c3e615705565b50505b810190602081018135600160201b811115610c6457600080610c61615705565b50505b820183602082011115610c7f57600080610c7c615705565b50505b803590602001918460018302840111600160201b83111715610ca957600080610ca6615705565b50505b91908080601f01602080910402602001604051908101604052818152929190602084018383808284376000920191909152509295505050903560ff1691506138629050565b610422613879565b6106fb60048036036020811015610d1557600080610d12615705565b50505b50356001600160a01b0316613883565b6104226138aa565b61032560048036036020811015610d4c57600080610d49615705565b50505b50356001600160a01b03166138bd565b61042260048036036040811015610d7b57600080610d78615705565b50505b810190602081018135600160201b811115610d9e57600080610d9b615705565b50505b820183602082011115610db957600080610db6615705565b50505b803590602001918460018302840111600160201b83111715610de357600080610de0615705565b50505b91908080601f01602080910402602001604051908101604052818152929190602084018383808284376000920191909152509295505050903560ff1691506139dc9050565b610e30613a0d565b60405160208082528190810183818151815260200191508051906020019060200280838360005b83811015610e6f578082015183820152602001610e57565b505050509050019250505060405180910390f35b6106fb60048036036020811015610ea257600080610e9f615705565b50505b50356001600160a01b0316613a94565b610422613aae565b61032560048036036020811015610ed957600080610ed6615705565b50505b50356001600160a01b0316613abb565b610325613b49565b6106fb60048036036020811015610f1057600080610f0d615705565b50505b50356001600160a01b0316613c18565b61097f60048036036020811015610f3f57600080610f3c615705565b50505b810190602081018135600160201b811115610f6257600080610f5f615705565b50505b820183602082011115610f7d57600080610f7a615705565b50505b803590602001918460018302840111600160201b83111715610fa757600080610fa4615705565b50505b91908080601f0160208091040260200160405190810160405281815292919060208401838380828437600092019190915250929550613c38945050505050565b6102da613c47565b6102da6004803603602081101561100e5760008061100b615705565b50505b5035613c53565b6103256004803603602081101561103457600080611031615705565b50505b50356001600160a01b0316613c7d565b610325600480360360a081101561106357600080611060615705565b50505b6001600160a01b038235811692602081013590911691810190606081016040820135600160201b81111561109f5760008061109c615705565b50505b8201836020820111156110ba576000806110b7615705565b50505b803590602001918460018302840111600160201b831117156110e4576000806110e1615705565b50505b91908080601f016020809104026020016040519081016040528181529291906020840183838082843760009201919091525092956001600160a01b03853516959094909350604081019250602001359050600160201b81111561114f5760008061114c615705565b50505b82018360208201111561116a57600080611167615705565b50505b803590602001918460208302840111600160201b8311171561119457600080611191615705565b50505b919080806020026020016040519081016040528093929190818152602001838360200280828437600092019190915250929550613d19945050505050565b610422600480360360208110156111f1576000806111ee615705565b50505b50356001600160a01b0316613f5e565b610422600480360360608110156112205760008061121d615705565b50505b810190602081018135600160201b81111561124357600080611240615705565b50505b82018360208201111561125e5760008061125b615705565b50505b803590602001918460018302840111600160201b8311171561128857600080611285615705565b50505b91908080601f0160208091040260200160405190810160405281815292919060208401838380828437600092019190915250929550508235935050506020013561420a565b610e3061428e565b6109cb614314565b6112e5614333565b60405180806020018060200180602001848103845287818151815260200191508051906020019060200280838360005b8381101561132d578082015183820152602001611315565b50505050905001848103835286818151815260200191508051906020019060200280838360005b8381101561136c578082015183820152602001611354565b50505050905001848103825285818151815260200191508051906020019060200280838360005b838110156113ab578082015183820152602001611393565b50505050905001965050505050505060405180910390f35b6113cb614774565b60405160208082528190810183818151815260200191508051906020019080838360005b838110156114075780820151838201526020016113ef565b50505050905090810190601f1680156114345780820380516001836020036101000a031916815260200191505b509250505060405180910390f35b6000603861144e615770565b906101000a90046001600160a01b031681565b6000603961146d615770565b906101000a90046001600160a01b03166001600160a01b0316638da5cb5b6040518163ffffffff1660e01b815260040160206040518083038186806114b06157cb565b1580156114c5576000806114c2615705565b50505b505a6114cf615817565b50505050501580156114ee573d6000803e3d60006114eb615705565b50505b505050506040513d602081101561150d5760008061150a615705565b50505b8101908080516001600160a01b0316925050505a611529615902565b6001600160a01b0316148061155e5750611541612864565b6001600160a01b03165a611553615902565b6001600160a01b0316145b80611589575061156c611b03565b6001600160a01b03165a61157e615902565b6001600160a01b0316145b6115e25760405162461bcd60e51b815260206004820152601b60248201527f6f6e6c79206d616e616765722c20747261646572206f722044414f00000000006044820152606401604051809103906115df615705565b50505b6115eb81612763565b61163a5760405162461bcd60e51b8152602060048201526013602482015272185cdcd95d081b9bdd081cdd5c1c1bdc9d1959606a1b604482015260640160405180910390611637615705565b50505b6001600160a01b0381166000908152603d6020526040902060009061165d615770565b906101000a900460ff16156116c15760405162461bcd60e51b815260206004820152601f60248201527f63616e6e6f742072656d6f76652070657273697374656e7420617373657473006044820152606401604051809103906116be615705565b50505b6116ca81613883565b15156001141561183857806001600160a01b03166370a082315a63996d79a5598160e01b8152602081600483336000905af158600e01573d6000803e3d6000fd5b3d6001141558600a015760016000f35b8051925060005b604081101561173957600082820152602001611722565b5050506040516001600160e01b031960e084901b1681526001600160a01b03909116600482015260240160206040518083038186806117766157cb565b15801561178b57600080611788615705565b50505b505a611795615817565b50505050501580156117b4573d6000803e3d60006117b1615705565b50505b505050506040513d60208110156117d3576000806117d0615705565b50505b8101908080511592506118389150505760405162461bcd60e51b815260206004820152601d60248201527f63616e6e6f742072656d6f7665206e6f6e2d656d707479206173736574000000604482015260640160405180910390611835615705565b50505b61184181614828565b50565b60006033611850615770565b906101000a90046001600160a01b03166001600160a01b03165a611872615902565b6001600160a01b031614806118bb57506000603761188e615770565b906101000a90046001600160a01b03166001600160a01b03165a6118b0615902565b6001600160a01b0316145b61190d5760405162461bcd60e51b815260206004820152601660248201527537b7363c9036b0b730b3b2b91037b9103a3930b232b960511b60448201526064016040518091039061190a615705565b50505b61184181614a6a565b60008061192e848460200260040160ff16602061420a565b905060006119418560048401602061420a565b9050806119925760405162461bcd60e51b8152602060048201526012602482015271696e707574206973206e6f7420617272617960701b60448201526064016040518091039061198f615705565b50505b6119a685602080840285016004019061420a565b925050505b92915050565b600060336119bd615770565b906101000a90046001600160a01b03166001600160a01b03165a6119df615902565b6001600160a01b031614611a315760405162461bcd60e51b815260206004820152600c60248201526b37b7363c9036b0b730b3b2b960a11b604482015260640160405180910390611a2e615705565b50505b611a3a81613c18565b611a4357611841565b61184181614dcd565b60006039611a58615770565b906101000a90046001600160a01b03166001600160a01b03165a611a7a615902565b6001600160a01b031614611acd5760405162461bcd60e51b815260206004820152600d60248201526c3737903832b936b4b9b9b4b7b760991b604482015260640160405180910390611aca615705565b50505b806038600181611adb615770565b816001600160a01b0302191690836001600160a01b0316021790611afd615948565b50505050565b6000806037611b10615770565b906101000a90046001600160a01b0316905090565b805b919050565b6060806000603a80611b3c615770565b9050905060608167ffffffffffffffff81118015611b6257600080611b5f615705565b50505b50604051908082528060200260200182016040528015611b8c578160200160208202803683370190505b50905060608267ffffffffffffffff81118015611bb157600080611bae615705565b50505b50604051908082528060200260200182016040528015611bdb578160200160208202803683370190505b5090506000806038611beb615770565b906101000a90046001600160a01b03166001600160a01b03166321f8a7216b53797374656d53746174757360a01b6040516001600160e01b031960e084901b16815260048101919091526024016020604051808303818680611c4b6157cb565b158015611c6057600080611c5d615705565b50505b505a611c6a615817565b5050505050158015611c89573d6000803e3d6000611c86615705565b50505b505050506040513d6020811015611ca857600080611ca5615705565b50505b81019080805193506000925050505b84811015611de2576000603a8281611ccd615770565b8110611cd557fe5b90600052602060002001600090611cea615770565b906101000a90046001600160a01b0316905080858381518110611d0957fe5b6001600160a01b03928316602091820292909201015283166342a28e21611d2f83612b4e565b6040516001600160e01b031960e084901b16815260048101919091526024016000604051808303818680611d616157cb565b158015611d7657600080611d73615705565b50505b505a611d80615817565b5050505050925050508015611d93575060015b611dba576001848381518110611da557fe5b91151560209283029190910190910152611dd9565b6000848381518110611dc857fe5b911515602092830291909101909101525b50600101611cb7565b50919450925050509091565b603b6020528060005260406000209050611e06615770565b81565b600080806038611e17615770565b906101000a90046001600160a01b03166001600160a01b03166321f8a721680a6f2dce8d0cae8d2f60bb1b6040516001600160e01b031960e084901b16815260048101919091526024016020604051808303818680611e746157cb565b158015611e8957600080611e86615705565b50505b505a611e93615817565b5050505050158015611eb2573d6000803e3d6000611eaf615705565b50505b505050506040513d6020811015611ed157600080611ece615705565b50505b8101908080516001600160a01b03169250633260803991508590506040516001600160e01b031960e084901b16815260048101919091526024016020604051808303818680611f1e6157cb565b158015611f3357600080611f30615705565b50505b505a611f3d615817565b5050505050158015611f5c573d6000803e3d6000611f59615705565b50505b505050506040513d6020811015611f7b57600080611f78615705565b50505b81019080805193505050506001600160a01b038116611fd75760405162461bcd60e51b815260206004820152600b60248201526a696e76616c6964206b657960a81b604482015260640160405180910390611fd4615705565b50505b6000816001600160a01b031663ec5568896040518163ffffffff1660e01b8152600401602060405180830381868061200d6157cb565b1580156120225760008061201f615705565b50505b505a61202c615817565b505050505015801561204b573d6000803e3d6000612048615705565b50505b505050506040513d602081101561206a57600080612067615705565b50505b81019080805193505050506001600160a01b0381166120c85760405162461bcd60e51b815260206004820152600d60248201526c696e76616c69642070726f787960981b6044820152606401604051809103906120c5615705565b50505b9392505050565b600060336120db615770565b906101000a90046001600160a01b03166001600160a01b03165a6120fd615902565b6001600160a01b03161480612146575060006037612119615770565b906101000a90046001600160a01b03166001600160a01b03165a61213b615902565b6001600160a01b0316145b6121985760405162461bcd60e51b815260206004820152601660248201527537b7363c9036b0b730b3b2b91037b9103a3930b232b960511b604482015260640160405180910390612195615705565b50505b6121a183612763565b6121f55760405162461bcd60e51b81526020600482015260186024820152771d5b9cdd5c1c1bdc9d1959081cdbdd5c98d948185cdcd95d60421b6044820152606401604051809103906121f2615705565b50505b6121fe81612763565b6122575760405162461bcd60e51b815260206004820152601d60248201527f756e737570706f727465642064657374696e6174696f6e206173736574000000604482015260640160405180910390612254615705565b50505b600061226284612b4e565b9050600061226f83612b4e565b9050600080603861227e615770565b906101000a90046001600160a01b03166001600160a01b03166321f8a721680a6f2dce8d0cae8d2f60bb1b6040516001600160e01b031960e084901b168152600481019190915260240160206040518083038186806122db6157cb565b1580156122f0576000806122ed615705565b50505b505a6122fa615817565b5050505050158015612319573d6000803e3d6000612316615705565b50505b505050506040513d602081101561233857600080612335615705565b50505b810190808051935060009250506001600160a01b03831690506330ead760858886856039612364615770565b906101000a90046001600160a01b03166001600160a01b0316631d68702d6040518163ffffffff1660e01b815260040160206040518083038186806123a76157cb565b1580156123bc576000806123b9615705565b50505b505a6123c6615817565b50505050501580156123e5573d6000803e3d60006123e2615705565b50505b505050506040513d602081101561240457600080612401615705565b50505b8101908080519250600091506039905061241c615770565b906101000a90046001600160a01b03166001600160a01b03166349f7c02d6040518163ffffffff1660e01b8152600401602060405180830381868061245f6157cb565b15801561247457600080612471615705565b50505b505a61247e615817565b505050505015801561249d573d6000803e3d600061249a615705565b50505b505050506040513d60208110156124bc576000806124b9615705565b50505b81019080805192506040915050516001600160e01b031960e088901b1681526004810195909552602485019390935260448401919091526001600160a01b03166064830152608482015260a4016020604051808303816000878061251e6157cb565b15801561253357600080612530615705565b50505b505a61253d615996565b50505050505015801561255d573d6000803e3d600061255a615705565b50505b505050506040513d602081101561257c57600080612579615705565b50505b81019080805193507f2083d2b241ef1ec859ae0402864fd9fe9d6d36b18c73615625b46acaf113be78925050505a63996d79a5598160e01b8152602081600483336000905af158600e01573d6000803e3d6000fd5b3d6001141558600a015760016000f35b8051925060005b60408110156125ff576000828201526020016125e8565b5050505a61260b615902565b898989865a612618615a5c565b6040516001600160a01b039788168152958716602087015293861660408087019190915260608601939093529416608084015260a083019390935260c082015260e001905180910390a150505050505050565b600080612683858560200260040160ff16602061420a565b905060006126968660048401602061420a565b9050806126e75760405162461bcd60e51b8152602060048201526012602482015271696e707574206973206e6f7420617272617960701b6044820152606401604051809103906126e4615705565b50505b60ff8416811161273f5760405162461bcd60e51b815260206004820152601660248201527534b73b30b634b21030b93930bc903837b9b4ba34b7b760511b60448201526064016040518091039061273c615705565b50505b612759866020600160ff881601810285016004019061420a565b9695505050505050565b6001600160a01b0381166000908152603b60205260408120612783615770565b151592915050565b60006033612797615770565b906101000a90046001600160a01b03166001600160a01b03165a6127b9615902565b6001600160a01b03161461280b5760405162461bcd60e51b815260206004820152600c60248201526b37b7363c9036b0b730b3b2b960a11b604482015260640160405180910390612808615705565b50505b60005b81518110156128605761283382828151811061282657fe5b6020026020010151613c18565b61283c57612858565b61285882828151811061284b57fe5b6020026020010151614dcd565b60010161280e565b5050565b6000806033611b10615770565b6000603361287d615770565b906101000a90046001600160a01b03166001600160a01b03165a61289f615902565b6001600160a01b0316146128f15760405162461bcd60e51b815260206004820152600c60248201526b37b7363c9036b0b730b3b2b960a11b6044820152606401604051809103906128ee615705565b50505b8160336001816128ff615770565b816001600160a01b0302191690836001600160a01b0316021790612921615948565b505050806034908051612938929160200190615aa2565b507f6ed15082ad038474841528b5badca105106d4463e44b5d434130dfb299aa366982826040516001600160a01b038316815260406020820181815290820183818151815260200191508051906020019080838360005b838110156129a757808201518382015260200161298f565b50505050905090810190601f1680156129d45780820380516001836020036101000a031916815260200191505b50935050505060405180910390a15050565b600081830184511015612a485760405162461bcd60e51b815260206004820152601b60248201527f52656164696e67206279746573206f7574206f6620626f756e64730000000000604482015260640160405180910390612a45615705565b50505b826020018401519050816004038015612a67576008810260020a820491505b509392505050565b600080806039612a7d615770565b906101000a90046001600160a01b03166001600160a01b031663b7a54526846040516001600160e01b031960e084901b1681526001600160a01b03909116600482015260240160408051808303818680612ad56157cb565b158015612aea57600080612ae7615705565b50505b505a612af4615817565b5050505050158015612b13573d6000803e3d6000612b10615705565b50505b505050506040513d6040811015612b3257600080612b2f615705565b50505b8101908080519291906020018051939550929350505050915091565b6000612b5982614f40565b612ba45760405162461bcd60e51b815260206004820152600f60248201526e1b9bdb8b5cde5b9d1a08185cdcd95d608a1b604482015260640160405180910390612ba1615705565b50505b816001600160a01b031663d4b839926040518163ffffffff1660e01b81526004016020604051808303818680612bd86157cb565b158015612bed57600080612bea615705565b50505b505a612bf7615817565b5050505050925050508015612c3057506040513d6020811015612c2257600080612c1f615705565b50505b810190808051925060019150505b612cb0573d808015612c5e576040513d603f01601f191681016040523d815291503d6000602084013e612c63565b606091505b5060405162461bcd60e51b815260206004820152600f60248201526e1b9bdb8b5cde5b9d1a08185cdcd95d608a1b604482015260640160405180910390612ca8615705565b505050611b27565b60006038612cbc615770565b906101000a90046001600160a01b03166001600160a01b03166321f8a721680a6f2dce8d0cae8d2f60bb1b6040516001600160e01b031960e084901b16815260048101919091526024016020604051808303818680612d196157cb565b158015612d2e57600080612d2b615705565b50505b505a612d38615817565b5050505050158015612d57573d6000803e3d6000612d54615705565b50505b505050506040513d6020811015612d7657600080612d73615705565b50505b8101908080516001600160a01b031692506316b2213f91508390506040516001600160e01b031960e084901b1681526001600160a01b0390911660048201526024016020604051808303818680612dcb6157cb565b158015612de057600080612ddd615705565b50505b505a612dea615817565b5050505050158015612e09573d6000803e3d6000612e06615705565b50505b505050506040513d6020811015612e2857600080612e25615705565b50505b8101908080519450611b279350505050565b60006033612e46615770565b906101000a90046001600160a01b03166001600160a01b03165a612e68615902565b6001600160a01b031614612eba5760405162461bcd60e51b815260206004820152600c60248201526b37b7363c9036b0b730b3b2b960a11b604482015260640160405180910390612eb7615705565b50505b6000806039612ec7615770565b906101000a90046001600160a01b03166001600160a01b0316635c9bfc2b6040518163ffffffff1660e01b81526004016020604051808303818680612f0a6157cb565b158015612f1f57600080612f1c615705565b50505b505a612f29615817565b5050505050158015612f48573d6000803e3d6000612f45615705565b50505b505050506040513d6020811015612f6757600080612f64615705565b50505b810190808051935060009250829150612f81905085612a6f565b909250905080841115612fd65760405162461bcd60e51b815260206004820152601060248201526f34b73b30b634b210333930b1ba34b7b760811b604482015260640160405180910390612fd3615705565b50505b612fe08284614f55565b84111561303c5760405162461bcd60e51b815260206004820152601960248201527f657863656564656420616c6c6f77656420696e63726561736500000000000000604482015260640160405180910390613039615705565b50505b6000806039613049615770565b906101000a90046001600160a01b03166001600160a01b031663ebee461d6040518163ffffffff1660e01b8152600401602060405180830381868061308c6157cb565b1580156130a15760008061309e615705565b50505b505a6130ab615817565b50505050501580156130ca573d6000803e3d60006130c7615705565b50505b505050506040513d60208110156130e9576000806130e6615705565b50505b8101908080519350879250829150603e9050613103615948565b505050805a613110615a5c565b0180603f61311c615948565b5050507f4db9119741646c419f1ceccdf112b5b9a9b4516355e742e1fa9c479f4dec98da85603f61314b615770565b60405191825260208201526040908101905180910390a1505050505050565b60006033613176615770565b906101000a90046001600160a01b03166001600160a01b03165a613198615902565b6001600160a01b0316146131ea5760405162461bcd60e51b815260206004820152600c60248201526b37b7363c9036b0b730b3b2b960a11b6044820152606401604051809103906131e7615705565b50505b60005b81518110156128605761320582828151811061282657fe5b1561320f5761322b565b61322b82828151811061321e57fe5b6020026020010151614fb4565b6001016131ed565b6000806033613240615770565b906101000a90046001600160a01b03166001600160a01b03165a613262615902565b6001600160a01b031614806132ab57506000603761327e615770565b906101000a90046001600160a01b03166001600160a01b03165a6132a0615902565b6001600160a01b0316145b6132fd5760405162461bcd60e51b815260206004820152601660248201527537b7363c9036b0b730b3b2b91037b9103a3930b232b960511b6044820152606401604051809103906132fa615705565b50505b6001600160a01b0383166133605760405162461bcd60e51b815260206004820152601c60248201527f6e6f6e2d7a65726f20616464726573732069732072657175697265640000000060448201526064016040518091039061335d615705565b50505b600080603961336d615770565b906101000a90046001600160a01b03166001600160a01b0316637027ea6c856040516001600160e01b031960e084901b1681526001600160a01b03909116600482015260240160206040518083038186806133c66157cb565b1580156133db576000806133d8615705565b50505b505a6133e5615817565b5050505050158015613404573d6000803e3d6000613401615705565b50505b505050506040513d602081101561342357600080613420615705565b50505b81019080805193505050506001600160a01b0381166134875760405162461bcd60e51b815260206004820152601360248201527234b73b30b634b2103232b9ba34b730ba34b7b760691b604482015260640160405180910390613484615705565b50505b600080600080846001600160a01b031663e23ff4375a63996d79a5598160e01b8152602081600483336000905af158600e01573d6000803e3d6000fd5b3d6001141558600a015760016000f35b8051925060005b60408110156134f2576000828201526020016134db565b505050896040518363ffffffff1660e01b815260040180836001600160a01b0316815260200180602001828103825283818151815260200191508051906020019080838360005b83811015613551578082015183820152602001613539565b50505050905090810190601f16801561357e5780820380516001836020036101000a031916815260200191505b50935050505060806040518083038186806135976157cb565b1580156135ac576000806135a9615705565b50505b505a6135b6615817565b50505050501580156135d5573d6000803e3d60006135d2615705565b50505b505050506040513d60808110156135f4576000806135f1615705565b50505b81019080805192919060200180519291906020018051929190602001805195995093975091955092935050505060ff8416600214156136585761364a8861363a85611b25565b8461364485611b25565b8b615040565b6001955050505050506119ab565b6000886001600160a01b0316886040518082805190602001908083835b602083106136945780518252601f199092019160209182019101613675565b6001836020036101000a0380198251168184511680821785525050505050509050019150506000604051808303816000865a6136ce615996565b5050505050509150503d8060008114613703576040513d603f01601f191681016040523d815291503d6000602084013e613708565b606091505b509091505060018115151461376c5760405162461bcd60e51b815260206004820152601a60248201527f6661696c656420746f2065786563757465207468652063616c6c000000000000604482015260640160405180910390613769615705565b50505b50600198975050505050505050565b603f611e06615770565b60006033613791615770565b906101000a90046001600160a01b03166001600160a01b03165a6137b3615902565b6001600160a01b0316146138055760405162461bcd60e51b815260206004820152600c60248201526b37b7363c9036b0b730b3b2b960a11b604482015260640160405180910390613802615705565b50505b60006037600181613814615770565b816001600160a01b0302191690836001600160a01b0316021790613836615948565b505050565b603d60205280600052604060002060009150613855615770565b906101000a900460ff1681565b60006120c8838360200260040160ff16602061420a565b603e611e06615770565b60008061388f83612b4e565b905080156138a1576001915050611b27565b50600092915050565b6000603a806138b7615770565b91505090565b600060336138c9615770565b906101000a90046001600160a01b03166001600160a01b03165a6138eb615902565b6001600160a01b03161461393d5760405162461bcd60e51b815260206004820152600c60248201526b37b7363c9036b0b730b3b2b960a11b60448201526064016040518091039061393a615705565b50505b603f613947615770565b5a613950615a5c565b10156139ab5760405162461bcd60e51b815260206004820152601960248201527f66656520696e6372656173652064656c617920616374697665000000000000006044820152606401604051809103906139a8615705565b50505b6139be81603e6139b9615770565b6152af565b600080603e6139cb615948565b5050506000603f8190611afd615948565b6000806139f4848460200260040160ff16602061420a565b9050613a058460048301602061420a565b949350505050565b6060603580613a1a615770565b806020026020016040519081016040528181529190602083018280613a3d615770565b8015613a8a57602002820191906000526020600020905b600082613a5f615770565b906101000a90046001600160a01b03166001600160a01b031681526020019060010190808311613a54575b5050505050905090565b603c60205280600052604060002060009150613855615770565b60006035806138b7615770565b60006033613ac7615770565b906101000a90046001600160a01b03166001600160a01b03165a613ae9615902565b6001600160a01b031614613b3b5760405162461bcd60e51b815260206004820152600c60248201526b37b7363c9036b0b730b3b2b960a11b604482015260640160405180910390613b38615705565b50505b806037600181611adb615770565b60006033613b55615770565b906101000a90046001600160a01b03166001600160a01b03165a613b77615902565b6001600160a01b031614613bc95760405162461bcd60e51b815260206004820152600c60248201526b37b7363c9036b0b730b3b2b960a11b604482015260640160405180910390613bc6615705565b50505b600080603e613bd6615948565b5050506000603f8190613be7615948565b5050507fc6f04bf43cbdf1ba5d51b4afa160bb3c7e13858b1409aa32868b239bb2f8d84960405160405180910390a1565b6001600160a01b0381166000908152603660205260408120612783615770565b60006119ab82600060046129e6565b6000603961144e615770565b603a8181613c5f615770565b8110613c6757fe5b906000526020600020016000915061144e615770565b60006033613c89615770565b906101000a90046001600160a01b03166001600160a01b03165a613cab615902565b6001600160a01b031614613cfd5760405162461bcd60e51b815260206004820152600c60248201526b37b7363c9036b0b730b3b2b960a11b604482015260640160405180910390613cfa615705565b50505b613d0681613c18565b15613d1057611841565b61184181614fb4565b60016000613d25615770565b906101000a900460ff1680613d3d5750613d3d615502565b80613d5a5750600080613d4e615770565b906101000a900460ff16155b613d9e5760405162461bcd60e51b815260040180806020018281038252602e815260200180615b62602e913960400191505060405180910390613d9b615705565b50505b6000600181613dab615770565b906101000a900460ff161590508015613e11576001600061010081613dce615770565b8160ff02191690831515021790613de3615948565b50505060016000806101000a81613df8615770565b8160ff02191690831515021790613e0d615948565b5050505b613e1b8585615573565b856039600181613e29615770565b816001600160a01b0302191690836001600160a01b0316021790613e4b615948565b50505082603860006101000a81613e60615770565b816001600160a01b0302191690836001600160a01b0316021790613e82615948565b50505060005b82518160ff161015613ebb57613eb3838260ff1681518110613ea657fe5b6020026020010151614a6a565b600101613e88565b506000613ece631cd554d160e21b611e09565b90506001600160a01b03811615613f2757613ee881614a6a565b6001600160a01b0381166000908152603d60205260019060409020600181613f0e615770565b8160ff02191690831515021790613f23615948565b5050505b508015613f565760008061010081613f3d615770565b8160ff02191690831515021790613f52615948565b5050505b505050505050565b6000806038613f6b615770565b906101000a90046001600160a01b03166001600160a01b03166321f8a7216c45786368616e6765526174657360981b6040516001600160e01b031960e084901b16815260048101919091526024016020604051808303818680613fcc6157cb565b158015613fe157600080613fde615705565b50505b505a613feb615817565b505050505015801561400a573d6000803e3d6000614007615705565b50505b505050506040513d602081101561402957600080614026615705565b50505b8101908080516001600160a01b0316925063654a60ac915061404c905084612b4e565b846001600160a01b03166370a082315a63996d79a5598160e01b8152602081600483336000905af158600e01573d6000803e3d6000fd5b3d6001141558600a015760016000f35b8051925060005b60408110156140b15760008282015260200161409a565b5050506040516001600160e01b031960e084901b1681526001600160a01b03909116600482015260240160206040518083038186806140ee6157cb565b15801561410357600080614100615705565b50505b505a61410d615817565b505050505015801561412c573d6000803e3d6000614129615705565b50505b505050506040513d602081101561414b57600080614148615705565b50505b8101908080519250631cd554d160e21b915060409050516001600160e01b031960e086901b168152600481019390935260248301919091526044820152606401602060405180830381868061419e6157cb565b1580156141b3576000806141b0615705565b50505b505a6141bd615817565b50505050501580156141dc573d6000803e3d60006141d9615705565b50505b505050506040513d60208110156141fb576000806141f8615705565b50505b81019080805195945050505050565b60008183018451101561426c5760405162461bcd60e51b815260206004820152601b60248201527f52656164696e67206279746573206f7574206f6620626f756e64730000000000604482015260640160405180910390614269615705565b50505b826020018401519050816020038015612a675760080260020a90049392505050565b6060603a8061429b615770565b8060200260200160405190810160405281815291906020830182806142be615770565b8015613a8a57602002820191906000526020600020905b6000826142e0615770565b906101000a90046001600160a01b03166001600160a01b0316815260200190600101908083116142d5575050505050905090565b600080603e614321615770565b603f61432b615770565b915091509091565b60608060606000603a80614345615770565b9050905060608167ffffffffffffffff8111801561436b57600080614368615705565b50505b50604051908082528060200260200182016040528015614395578160200160208202803683370190505b50905060608267ffffffffffffffff811180156143ba576000806143b7615705565b50505b506040519080825280602002602001820160405280156143e4578160200160208202803683370190505b50905060608367ffffffffffffffff8111801561440957600080614406615705565b50505b50604051908082528060200260200182016040528015614433578160200160208202803683370190505b5090506000806038614443615770565b906101000a90046001600160a01b03166001600160a01b03166321f8a7216c45786368616e6765526174657360981b6040516001600160e01b031960e084901b168152600481019190915260240160206040518083038186806144a46157cb565b1580156144b9576000806144b6615705565b50505b505a6144c3615817565b50505050501580156144e2573d6000803e3d60006144df615705565b50505b505050506040513d6020811015614501576000806144fe615705565b50505b81019080805193506000925050505b85811015614766576000603a8281614526615770565b811061452e57fe5b90600052602060002001600090614543615770565b906101000a90046001600160a01b03169050806001600160a01b03166370a082315a63996d79a5598160e01b8152602081600483336000905af158600e01573d6000803e3d6000fd5b3d6001141558600a015760016000f35b8051925060005b60408110156145ba576000828201526020016145a3565b5050506040516001600160e01b031960e084901b1681526001600160a01b03909116600482015260240160206040518083038186806145f76157cb565b15801561460c57600080614609615705565b50505b505a614616615817565b5050505050158015614635573d6000803e3d6000614632615705565b50505b505050506040513d602081101561465457600080614651615705565b50505b81019080805192508791508490508151811061466c57fe5b6020026020010181815250508086838151811061468557fe5b6001600160a01b039283166020918202929092010152831663ac82f6086146ab83612b4e565b6040516001600160e01b031960e084901b168152600481019190915260240160206040518083038186806146dd6157cb565b1580156146f2576000806146ef615705565b50505b505a6146fc615817565b505050505015801561471b573d6000803e3d6000614718615705565b50505b505050506040513d602081101561473a57600080614737615705565b50505b81019080805192508691508490508151811061475257fe5b602090810291909101015250600101614510565b509297919650945092505050565b6060603480614781615770565b600181600116156101000203166002900480601f0160208091040260200160405190810160405281815291906020830182806147bb615770565b60018160011615610100020316600290048015613a8a5780601f106147f55761010080836147e7615770565b040283529160200191613a8a565b820191906000526020600020905b8161480c615770565b8152906001019060200180831161480357509395945050505050565b6000603a80614835615770565b6001600160a01b0384166000908152603b602052909250905061486560016040832061485f615770565b906155ba565b90506000603a6148768460016155ba565b8161487f615770565b811061488757fe5b9060005260206000200160009061489c615770565b906101000a90046001600160a01b0316905080603a83816148bb615770565b81106148c357fe5b906000526020600020016001816148d8615770565b816001600160a01b0302191690836001600160a01b03160217906148fa615948565b5061490a91508390506001614f55565b6001600160a01b0382166000908152603b60205260409020819061492c615948565b5050506001600160a01b0384166000908152603b602052604081208190614951615948565b505050603a8061495f615770565b8061496657fe5b60019003818190600052602060002001600181614981615770565b906001600160a01b0302191690614996615948565b5050906149a1615948565b50507f9b4f55639e5e283319baee5bc4e69a5625a8e3a1cc004af968f4fee7250220275a63996d79a5598160e01b8152602081600483336000905af158600e01573d6000803e3d6000fd5b3d6001141558600a015760016000f35b8051925060005b6040811015614a1a57600082820152602001614a03565b505050614a25612864565b8660405180846001600160a01b03168152602001836001600160a01b03168152602001826001600160a01b03168152602001935050505060405180910390a150505050565b60006039614a76615770565b906101000a90046001600160a01b03166001600160a01b031663aa12ae4d6040518163ffffffff1660e01b81526004016020604051808303818680614ab96157cb565b158015614ace57600080614acb615705565b50505b505a614ad8615817565b5050505050158015614af7573d6000803e3d6000614af4615705565b50505b505050506040513d6020811015614b1657600080614b13615705565b50505b8101908080519250603a9150819050614b2d615770565b905010614b825760405162461bcd60e51b81526020600482015260166024820152751b585e1a5b5d5b48185cdcd95d1cc81c995858da195960521b604482015260640160405180910390614b7f615705565b50505b614b8b81612763565b15614be55760405162461bcd60e51b815260206004820152601760248201527f617373657420616c726561647920737570706f72746564000000000000000000604482015260640160405180910390614be2615705565b50505b614bee81613883565b1515600114614c3c5760405162461bcd60e51b815260206004820152600d60248201526c1a5b9d985b1a5908185cdcd95d609a1b604482015260640160405180910390614c39615705565b50505b80603a80600181614c4b615770565b018082614c56615948565b505060009283526000190191602091502001600181614c73615770565b816001600160a01b0302191690836001600160a01b0316021790614c95615948565b505050603a80614ca3615770565b6001600160a01b0383166000908152603b602052909150604090208190614cc8615948565b5050506001600160a01b0381166000908152603c60205260019060409020600181614cf1615770565b8160ff02191690831515021790614d06615948565b5050507f0a7426a0630aad7dbc4d5ca5b7d9aac1133d77d2db987caaf4b4186c85d6593f5a63996d79a5598160e01b8152602081600483336000905af158600e01573d6000803e3d6000fd5b3d6001141558600a015760016000f35b8051925060005b6040811015614d8057600082820152602001614d69565b505050614d8b612864565b8360405180846001600160a01b03168152602001836001600160a01b03168152602001826001600160a01b03168152602001935050505060405180910390a150565b6000603580614dda615770565b6001600160a01b038416600090815260366020529092509050614e0460016040832061485f615770565b905060006035614e158460016155ba565b81614e1e615770565b8110614e2657fe5b90600052602060002001600090614e3b615770565b906101000a90046001600160a01b031690508060358381614e5a615770565b8110614e6257fe5b90600052602060002001600181614e77615770565b816001600160a01b0302191690836001600160a01b0316021790614e99615948565b50614ea991508390506001614f55565b6001600160a01b03821660009081526036602052604090208190614ecb615948565b5050506001600160a01b03841660009081526036602052604081208190614ef0615948565b505050603580614efe615770565b80614f0557fe5b60019003818190600052602060002001600181614f20615770565b906001600160a01b0302191690614f35615948565b505090613f56615948565b60008082614f4c6157cb565b15159392505050565b6000828201838110156120c85760405162461bcd60e51b815260206004820152601b60248201527f536166654d6174683a206164646974696f6e206f766572666c6f7700000000006044820152606401604051809103906120c5615705565b80603580600181614fc3615770565b018082614fce615948565b505060009283526000190191602091502001600181614feb615770565b816001600160a01b0302191690836001600160a01b031602179061500d615948565b50505060358061501b615770565b6001600160a01b03831660009081526036602052909150604090208190611afd615948565b61504984612763565b61509d5760405162461bcd60e51b81526020600482015260186024820152771d5b9cdd5c1c1bdc9d1959081cdbdd5c98d948185cdcd95d60421b60448201526064016040518091039061509a615705565b50505b6150a682612763565b6150ff5760405162461bcd60e51b815260206004820152601d60248201527f756e737570706f727465642064657374696e6174696f6e2061737365740000006044820152606401604051809103906150fc615705565b50505b60006060866001600160a01b0316836040518082805190602001908083835b6020831061513d5780518252601f19909201916020918201910161511e565b6001836020036101000a0380198251168184511680821785525050505050509050019150506000604051808303816000865a615177615996565b5050505050509150503d80600081146151ac576040513d603f01601f191681016040523d815291503d6000602084013e6151b1565b606091505b5090925090506001821515146152165760405162461bcd60e51b815260206004820152601a60248201527f6661696c656420746f20657865637574652065786368616e6765000000000000604482015260640160405180910390615213615705565b50505b7f2083d2b241ef1ec859ae0402864fd9fe9d6d36b18c73615625b46acaf113be785a63996d79a5598160e01b8152602081600483336000905af158600e01573d6000803e3d6000fd5b3d6001141558600a015760016000f35b8051925060005b604081101561528d57600082820152602001615276565b505050615298612864565b8888886152a68760006155fa565b5a612618615a5c565b600060396152bb615770565b906101000a90046001600160a01b03166001600160a01b031663046b72c483836040516001600160e01b031960e085901b1681526001600160a01b03909216600483015260248201526044016000604051808303816000878061531c6157cb565b1580156153315760008061532e615705565b50505b505a61533b615996565b50505050505015801561535b573d6000803e3d6000615358615705565b50505b50505050600080603960009061536f615770565b906101000a90046001600160a01b03166001600160a01b031663b7a54526856040516001600160e01b031960e084901b1681526001600160a01b039091166004820152602401604080518083038186806153c76157cb565b1580156153dc576000806153d9615705565b50505b505a6153e6615817565b5050505050158015615405573d6000803e3d6000615402615705565b50505b505050506040513d604081101561542457600080615421615705565b50505b81019080805192919060200180519395509293507f1780c04ddc6f0b32d866c7a3d7583f53515ef49ed2126af868f804f491601266925050505a63996d79a5598160e01b8152602081600483336000905af158600e01573d6000803e3d6000fd5b3d6001141558600a015760016000f35b8051925060005b60408110156154b35760008282015260200161549c565b5050506154be612864565b848460405180856001600160a01b03168152602001846001600160a01b0316815260200183815260200182815260200194505050505060405180910390a150505050565b6000805a63996d79a5598160e01b8152602081600483336000905af158600e01573d6000803e3d6000fd5b3d6001141558600a015760016000f35b8051925060005b604081101561555b57600082820152602001615544565b505050905060008161556b6157cb565b159250505090565b816033600181615581615770565b816001600160a01b0302191690836001600160a01b03160217906155a3615948565b505050806034908051613836929160200190615aa2565b60006120c8838360405160408082019052601e81527f536166654d6174683a207375627472616374696f6e206f766572666c6f7700006020820152615665565b600081602001835110156156545760405162461bcd60e51b8152602060048201526014602482015273736c6963696e67206f7574206f662072616e676560601b604482015260640160405180910390615651615705565b50505b600082602001840151949350505050565b600081848411156156fd5760405162461bcd60e51b81526004018080602001828103825283818151815260200191508051906020019080838360005b838110156156b95780820151838201526020016156a1565b50505050905090810190601f1680156156e65780820380516001836020036101000a031916815260200191505b5092505050604051809103906156fa615705565b50505b505050900390565b632a2a7adb598160e01b8152600481016020815285602082015260005b8681101561573d578086015182820160400152602001615722565b506020828760640184336000905af158600e01573d6000803e3d6000fd5b3d6001141558600a015760016000f35b505050565b6303daa959598160e01b8152836004820152602081602483336000905af158600e01573d6000803e3d6000fd5b3d6001141558600a015760016000f35b8051935060005b6040811015613836576000828201526020016157b4565b638435035b598160e01b8152836004820152602081602483336000905af158600e01573d6000803e3d6000fd5b3d6001141558600a015760016000f35b805160008252935060206157b4565b638540661f598160e01b8152615848565b80808311156119ab575090919050565b80808310156119ab575090919050565b836004820152846024820152606060448201528660648201526084810160005b88811015615880578088015182820152602001615868565b506060828960a40184336000905af158600e01573d6000803e3d6000fd5b3d6001141558600a015760016000f35b815160408301513d6000853e8b8b82606087013350600060045af150596158d58d3d615838565b8c016158e18187615828565b5b828110156158f657600081526020016158e2565b50929c50505050505050565b6373509064598160e01b8152602081600483336000905af158600e01573d6000803e3d6000fd5b3d6001141558600a015760016000f35b805160008252935060206157b4565b6322bd64c0598160e01b8152836004820152846024820152600081604483336000905af158600e01573d6000803e3d6000fd5b3d6001141558600a015760016000f35b6000815260206157b4565b6385979f76598160e01b8152836004820152846024820152606060448201528760648201526084810160005b898110156159da5780890151828201526020016159c2565b506060828a60a40184336000905af158600e01573d6000803e3d6000fd5b3d6001141558600a015760016000f35b815160408301513d6000853e8c8c82606087013350600060045af15059615a2f8e3d615838565b8d01615a3b8187615828565b5b82811015615a505760008152602001615a3c565b50929d50505050505050565b63bdbf8c36598160e01b8152602081600483336000905af158600e01573d6000803e3d6000fd5b3d6001141558600a015760016000f35b805160008252935060206157b4565b8280615aac615770565b600181600116156101000203166002900490600052602060002090601f016020900481019282601f10615af357805160ff19168380011785615aec615948565b5050615b32565b82800160010185615b02615948565b50508215615b32579182015b82811115615b3257825182615b21615948565b505091602001919060010190615b0e565b50615b3e929150615b42565b5090565b80821115615b3e5760008082615b56615948565b505050600101615b4256fe436f6e747261637420696e7374616e63652068617320616c7265616479206265656e20696e697469616c697a6564",
  "deployedBytecode": "0x608060405234801561001957600080610016615705565b50505b50600436106102c45760003560e01c80637c8afd511161018b578063b8bd81e6116100f2578063d346cc65116100ab578063e5406dbf11610085578063e5406dbf146112cd578063ed5b165d146112d5578063f09d14d7146112dd578063fed4416a146113c3576102c4565b8063d346cc6514611044578063d8af8ed4146111d2578063db896b5714611201576102c4565b8063b8bd81e614610ee9578063bbbf725b14610ef1578063c3c6279f14610f20578063c45a015514610fe7578063c68dbb3714610fef578063ca6d56dc14611015576102c4565b8063969eed2711610144578063969eed2714610d2d578063998546e314610d5c5780639eab525314610e28578063a0f8414c14610e83578063a30e3fa914610eb2578063a6bc18f914610eba576102c4565b80637c8afd5114610beb57806380dd4f6214610bf357806382f86acc14610c225780638f32343914610cee5780639240d29914610cf6578063936553c414610d25576102c4565b806341dc16c31161022f5780635f6eceab116101e85780635f6eceab1461099c5780636141db90146109e35780636708f5d714610a125780636f4d469b14610a475780637ae7cfb514610b0c5780637b4d0c6314610be3576102c4565b806341dc16c3146105f5578063464b4158146106cc57806346ee84b01461070f578063481c6a75146107d457806352213663146107dc578063568b5a2f146108b3576102c4565b80631758078b116102815780631758078b146104925780631eba30771461049a57806321f8c984146104c05780633c570d7d146105615780633ded6530146105905780633f452dab146105b6576102c4565b806305a2ee2a146102d257806306468587146102f6578063093b88251461032757806309ff5c7d146103565780630b1ca49a146104345780631430238714610463575b6000806102cf615705565b50505b6102da611442565b6040516001600160a01b03909116815260200160405180910390f35b6103256004803603602081101561031557600080610312615705565b50505b50356001600160a01b0316611461565b005b6103256004803603602081101561034657600080610343615705565b50505b50356001600160a01b0316611844565b6104226004803603604081101561037557600080610372615705565b50505b810190602081018135600160201b81111561039857600080610395615705565b50505b8201836020820111156103b3576000806103b0615705565b50505b803590602001918460018302840111600160201b831117156103dd576000806103da615705565b50505b91908080601f01602080910402602001604051908101604052818152929190602084018383808284376000920191909152509295505050903560ff1691506119169050565b60405190815260200160405180910390f35b6103256004803603602081101561045357600080610450615705565b50505b50356001600160a01b03166119b1565b610325600480360360208110156104825760008061047f615705565b50505b50356001600160a01b0316611a4c565b6102da611b03565b6102da600480360360208110156104b9576000806104b6615705565b50505b5035611b25565b6104c8611b2c565b604051808060200180602001838103835285818151815260200191508051906020019060200280838360005b8381101561050c5780820151838201526020016104f4565b50505050905001838103825284818151815260200191508051906020019060200280838360005b8381101561054b578082015183820152602001610533565b5050505090500194505050505060405180910390f35b610422600480360360208110156105805760008061057d615705565b50505b50356001600160a01b0316611dee565b6102da600480360360208110156105af576000806105ac615705565b50505b5035611e09565b610325600480360360608110156105d5576000806105d2615705565b50505b506001600160a01b038135811691602081013591604090910135166120cf565b6104226004803603606081101561061457600080610611615705565b50505b810190602081018135600160201b81111561063757600080610634615705565b50505b8201836020820111156106525760008061064f615705565b50505b803590602001918460018302840111600160201b8311171561067c57600080610679615705565b50505b91908080601f01602080910402602001604051908101604052818152929190602084018383808284376000920191909152509295505060ff833581169450602090930135909216915061266b9050565b6106fb600480360360208110156106eb576000806106e8615705565b50505b50356001600160a01b0316612763565b604051901515815260200160405180910390f35b6103256004803603602081101561072e5760008061072b615705565b50505b810190602081018135600160201b8111156107515760008061074e615705565b50505b82018360208201111561076c57600080610769615705565b50505b803590602001918460208302840111600160201b8311171561079657600080610793615705565b50505b91908080602002602001604051908101604052809392919081815260200183836020028082843760009201919091525092955061278b945050505050565b6102da612864565b610325600480360360408110156107fb576000806107f8615705565b50505b6001600160a01b038235169190810190604081016020820135600160201b81111561082e5760008061082b615705565b50505b82018360208201111561084957600080610846615705565b50505b803590602001918460018302840111600160201b8311171561087357600080610870615705565b50505b91908080601f0160208091040260200160405190810160405281815292919060208401838380828437600092019190915250929550612871945050505050565b61097f600480360360608110156108d2576000806108cf615705565b50505b810190602081018135600160201b8111156108f5576000806108f2615705565b50505b8201836020820111156109105760008061090d615705565b50505b803590602001918460018302840111600160201b8311171561093a57600080610937615705565b50505b91908080601f016020809104026020016040519081016040528181529291906020840183838082843760009201919091525092955050823593505050602001356129e6565b6040516001600160e01b0319909116815260200160405180910390f35b6109cb600480360360208110156109bb576000806109b8615705565b50505b50356001600160a01b0316612a6f565b60405191825260208201526040908101905180910390f35b61042260048036036020811015610a02576000806109ff615705565b50505b50356001600160a01b0316612b4e565b61032560048036036040811015610a3157600080610a2e615705565b50505b506001600160a01b038135169060200135612e3a565b61032560048036036020811015610a6657600080610a63615705565b50505b810190602081018135600160201b811115610a8957600080610a86615705565b50505b820183602082011115610aa457600080610aa1615705565b50505b803590602001918460208302840111600160201b83111715610ace57600080610acb615705565b50505b91908080602002602001604051908101604052809392919081815260200183836020028082843760009201919091525092955061316a945050505050565b6106fb60048036036040811015610b2b57600080610b28615705565b50505b6001600160a01b038235169190810190604081016020820135600160201b811115610b5e57600080610b5b615705565b50505b820183602082011115610b7957600080610b76615705565b50505b803590602001918460018302840111600160201b83111715610ba357600080610ba0615705565b50505b91908080601f0160208091040260200160405190810160405281815292919060208401838380828437600092019190915250929550613233945050505050565b61042261377b565b610325613785565b6106fb60048036036020811015610c1257600080610c0f615705565b50505b50356001600160a01b031661383b565b61042260048036036040811015610c4157600080610c3e615705565b50505b810190602081018135600160201b811115610c6457600080610c61615705565b50505b820183602082011115610c7f57600080610c7c615705565b50505b803590602001918460018302840111600160201b83111715610ca957600080610ca6615705565b50505b91908080601f01602080910402602001604051908101604052818152929190602084018383808284376000920191909152509295505050903560ff1691506138629050565b610422613879565b6106fb60048036036020811015610d1557600080610d12615705565b50505b50356001600160a01b0316613883565b6104226138aa565b61032560048036036020811015610d4c57600080610d49615705565b50505b50356001600160a01b03166138bd565b61042260048036036040811015610d7b57600080610d78615705565b50505b810190602081018135600160201b811115610d9e57600080610d9b615705565b50505b820183602082011115610db957600080610db6615705565b50505b803590602001918460018302840111600160201b83111715610de357600080610de0615705565b50505b91908080601f01602080910402602001604051908101604052818152929190602084018383808284376000920191909152509295505050903560ff1691506139dc9050565b610e30613a0d565b60405160208082528190810183818151815260200191508051906020019060200280838360005b83811015610e6f578082015183820152602001610e57565b505050509050019250505060405180910390f35b6106fb60048036036020811015610ea257600080610e9f615705565b50505b50356001600160a01b0316613a94565b610422613aae565b61032560048036036020811015610ed957600080610ed6615705565b50505b50356001600160a01b0316613abb565b610325613b49565b6106fb60048036036020811015610f1057600080610f0d615705565b50505b50356001600160a01b0316613c18565b61097f60048036036020811015610f3f57600080610f3c615705565b50505b810190602081018135600160201b811115610f6257600080610f5f615705565b50505b820183602082011115610f7d57600080610f7a615705565b50505b803590602001918460018302840111600160201b83111715610fa757600080610fa4615705565b50505b91908080601f0160208091040260200160405190810160405281815292919060208401838380828437600092019190915250929550613c38945050505050565b6102da613c47565b6102da6004803603602081101561100e5760008061100b615705565b50505b5035613c53565b6103256004803603602081101561103457600080611031615705565b50505b50356001600160a01b0316613c7d565b610325600480360360a081101561106357600080611060615705565b50505b6001600160a01b038235811692602081013590911691810190606081016040820135600160201b81111561109f5760008061109c615705565b50505b8201836020820111156110ba576000806110b7615705565b50505b803590602001918460018302840111600160201b831117156110e4576000806110e1615705565b50505b91908080601f016020809104026020016040519081016040528181529291906020840183838082843760009201919091525092956001600160a01b03853516959094909350604081019250602001359050600160201b81111561114f5760008061114c615705565b50505b82018360208201111561116a57600080611167615705565b50505b803590602001918460208302840111600160201b8311171561119457600080611191615705565b50505b919080806020026020016040519081016040528093929190818152602001838360200280828437600092019190915250929550613d19945050505050565b610422600480360360208110156111f1576000806111ee615705565b50505b50356001600160a01b0316613f5e565b610422600480360360608110156112205760008061121d615705565b50505b810190602081018135600160201b81111561124357600080611240615705565b50505b82018360208201111561125e5760008061125b615705565b50505b803590602001918460018302840111600160201b8311171561128857600080611285615705565b50505b91908080601f0160208091040260200160405190810160405281815292919060208401838380828437600092019190915250929550508235935050506020013561420a565b610e3061428e565b6109cb614314565b6112e5614333565b60405180806020018060200180602001848103845287818151815260200191508051906020019060200280838360005b8381101561132d578082015183820152602001611315565b50505050905001848103835286818151815260200191508051906020019060200280838360005b8381101561136c578082015183820152602001611354565b50505050905001848103825285818151815260200191508051906020019060200280838360005b838110156113ab578082015183820152602001611393565b50505050905001965050505050505060405180910390f35b6113cb614774565b60405160208082528190810183818151815260200191508051906020019080838360005b838110156114075780820151838201526020016113ef565b50505050905090810190601f1680156114345780820380516001836020036101000a031916815260200191505b509250505060405180910390f35b6000603861144e615770565b906101000a90046001600160a01b031681565b6000603961146d615770565b906101000a90046001600160a01b03166001600160a01b0316638da5cb5b6040518163ffffffff1660e01b815260040160206040518083038186806114b06157cb565b1580156114c5576000806114c2615705565b50505b505a6114cf615817565b50505050501580156114ee573d6000803e3d60006114eb615705565b50505b505050506040513d602081101561150d5760008061150a615705565b50505b8101908080516001600160a01b0316925050505a611529615902565b6001600160a01b0316148061155e5750611541612864565b6001600160a01b03165a611553615902565b6001600160a01b0316145b80611589575061156c611b03565b6001600160a01b03165a61157e615902565b6001600160a01b0316145b6115e25760405162461bcd60e51b815260206004820152601b60248201527f6f6e6c79206d616e616765722c20747261646572206f722044414f00000000006044820152606401604051809103906115df615705565b50505b6115eb81612763565b61163a5760405162461bcd60e51b8152602060048201526013602482015272185cdcd95d081b9bdd081cdd5c1c1bdc9d1959606a1b604482015260640160405180910390611637615705565b50505b6001600160a01b0381166000908152603d6020526040902060009061165d615770565b906101000a900460ff16156116c15760405162461bcd60e51b815260206004820152601f60248201527f63616e6e6f742072656d6f76652070657273697374656e7420617373657473006044820152606401604051809103906116be615705565b50505b6116ca81613883565b15156001141561183857806001600160a01b03166370a082315a63996d79a5598160e01b8152602081600483336000905af158601d01573d60011458600c01573d6000803e3d621234565260ea61109c528051925060005b604081101561173957600082820152602001611722565b5050506040516001600160e01b031960e084901b1681526001600160a01b03909116600482015260240160206040518083038186806117766157cb565b15801561178b57600080611788615705565b50505b505a611795615817565b50505050501580156117b4573d6000803e3d60006117b1615705565b50505b505050506040513d60208110156117d3576000806117d0615705565b50505b8101908080511592506118389150505760405162461bcd60e51b815260206004820152601d60248201527f63616e6e6f742072656d6f7665206e6f6e2d656d707479206173736574000000604482015260640160405180910390611835615705565b50505b61184181614828565b50565b60006033611850615770565b906101000a90046001600160a01b03166001600160a01b03165a611872615902565b6001600160a01b031614806118bb57506000603761188e615770565b906101000a90046001600160a01b03166001600160a01b03165a6118b0615902565b6001600160a01b0316145b61190d5760405162461bcd60e51b815260206004820152601660248201527537b7363c9036b0b730b3b2b91037b9103a3930b232b960511b60448201526064016040518091039061190a615705565b50505b61184181614a6a565b60008061192e848460200260040160ff16602061420a565b905060006119418560048401602061420a565b9050806119925760405162461bcd60e51b8152602060048201526012602482015271696e707574206973206e6f7420617272617960701b60448201526064016040518091039061198f615705565b50505b6119a685602080840285016004019061420a565b925050505b92915050565b600060336119bd615770565b906101000a90046001600160a01b03166001600160a01b03165a6119df615902565b6001600160a01b031614611a315760405162461bcd60e51b815260206004820152600c60248201526b37b7363c9036b0b730b3b2b960a11b604482015260640160405180910390611a2e615705565b50505b611a3a81613c18565b611a4357611841565b61184181614dcd565b60006039611a58615770565b906101000a90046001600160a01b03166001600160a01b03165a611a7a615902565b6001600160a01b031614611acd5760405162461bcd60e51b815260206004820152600d60248201526c3737903832b936b4b9b9b4b7b760991b604482015260640160405180910390611aca615705565b50505b806038600181611adb615770565b816001600160a01b0302191690836001600160a01b0316021790611afd615948565b50505050565b6000806037611b10615770565b906101000a90046001600160a01b0316905090565b805b919050565b6060806000603a80611b3c615770565b9050905060608167ffffffffffffffff81118015611b6257600080611b5f615705565b50505b50604051908082528060200260200182016040528015611b8c578160200160208202803683370190505b50905060608267ffffffffffffffff81118015611bb157600080611bae615705565b50505b50604051908082528060200260200182016040528015611bdb578160200160208202803683370190505b5090506000806038611beb615770565b906101000a90046001600160a01b03166001600160a01b03166321f8a7216b53797374656d53746174757360a01b6040516001600160e01b031960e084901b16815260048101919091526024016020604051808303818680611c4b6157cb565b158015611c6057600080611c5d615705565b50505b505a611c6a615817565b5050505050158015611c89573d6000803e3d6000611c86615705565b50505b505050506040513d6020811015611ca857600080611ca5615705565b50505b81019080805193506000925050505b84811015611de2576000603a8281611ccd615770565b8110611cd557fe5b90600052602060002001600090611cea615770565b906101000a90046001600160a01b0316905080858381518110611d0957fe5b6001600160a01b03928316602091820292909201015283166342a28e21611d2f83612b4e565b6040516001600160e01b031960e084901b16815260048101919091526024016000604051808303818680611d616157cb565b158015611d7657600080611d73615705565b50505b505a611d80615817565b5050505050925050508015611d93575060015b611dba576001848381518110611da557fe5b91151560209283029190910190910152611dd9565b6000848381518110611dc857fe5b911515602092830291909101909101525b50600101611cb7565b50919450925050509091565b603b6020528060005260406000209050611e06615770565b81565b600080806038611e17615770565b906101000a90046001600160a01b03166001600160a01b03166321f8a721680a6f2dce8d0cae8d2f60bb1b6040516001600160e01b031960e084901b16815260048101919091526024016020604051808303818680611e746157cb565b158015611e8957600080611e86615705565b50505b505a611e93615817565b5050505050158015611eb2573d6000803e3d6000611eaf615705565b50505b505050506040513d6020811015611ed157600080611ece615705565b50505b8101908080516001600160a01b03169250633260803991508590506040516001600160e01b031960e084901b16815260048101919091526024016020604051808303818680611f1e6157cb565b158015611f3357600080611f30615705565b50505b505a611f3d615817565b5050505050158015611f5c573d6000803e3d6000611f59615705565b50505b505050506040513d6020811015611f7b57600080611f78615705565b50505b81019080805193505050506001600160a01b038116611fd75760405162461bcd60e51b815260206004820152600b60248201526a696e76616c6964206b657960a81b604482015260640160405180910390611fd4615705565b50505b6000816001600160a01b031663ec5568896040518163ffffffff1660e01b8152600401602060405180830381868061200d6157cb565b1580156120225760008061201f615705565b50505b505a61202c615817565b505050505015801561204b573d6000803e3d6000612048615705565b50505b505050506040513d602081101561206a57600080612067615705565b50505b81019080805193505050506001600160a01b0381166120c85760405162461bcd60e51b815260206004820152600d60248201526c696e76616c69642070726f787960981b6044820152606401604051809103906120c5615705565b50505b9392505050565b600060336120db615770565b906101000a90046001600160a01b03166001600160a01b03165a6120fd615902565b6001600160a01b03161480612146575060006037612119615770565b906101000a90046001600160a01b03166001600160a01b03165a61213b615902565b6001600160a01b0316145b6121985760405162461bcd60e51b815260206004820152601660248201527537b7363c9036b0b730b3b2b91037b9103a3930b232b960511b604482015260640160405180910390612195615705565b50505b6121a183612763565b6121f55760405162461bcd60e51b81526020600482015260186024820152771d5b9cdd5c1c1bdc9d1959081cdbdd5c98d948185cdcd95d60421b6044820152606401604051809103906121f2615705565b50505b6121fe81612763565b6122575760405162461bcd60e51b815260206004820152601d60248201527f756e737570706f727465642064657374696e6174696f6e206173736574000000604482015260640160405180910390612254615705565b50505b600061226284612b4e565b9050600061226f83612b4e565b9050600080603861227e615770565b906101000a90046001600160a01b03166001600160a01b03166321f8a721680a6f2dce8d0cae8d2f60bb1b6040516001600160e01b031960e084901b168152600481019190915260240160206040518083038186806122db6157cb565b1580156122f0576000806122ed615705565b50505b505a6122fa615817565b5050505050158015612319573d6000803e3d6000612316615705565b50505b505050506040513d602081101561233857600080612335615705565b50505b810190808051935060009250506001600160a01b03831690506330ead760858886856039612364615770565b906101000a90046001600160a01b03166001600160a01b0316631d68702d6040518163ffffffff1660e01b815260040160206040518083038186806123a76157cb565b1580156123bc576000806123b9615705565b50505b505a6123c6615817565b50505050501580156123e5573d6000803e3d60006123e2615705565b50505b505050506040513d602081101561240457600080612401615705565b50505b8101908080519250600091506039905061241c615770565b906101000a90046001600160a01b03166001600160a01b03166349f7c02d6040518163ffffffff1660e01b8152600401602060405180830381868061245f6157cb565b15801561247457600080612471615705565b50505b505a61247e615817565b505050505015801561249d573d6000803e3d600061249a615705565b50505b505050506040513d60208110156124bc576000806124b9615705565b50505b81019080805192506040915050516001600160e01b031960e088901b1681526004810195909552602485019390935260448401919091526001600160a01b03166064830152608482015260a4016020604051808303816000878061251e6157cb565b15801561253357600080612530615705565b50505b505a61253d615996565b50505050505015801561255d573d6000803e3d600061255a615705565b50505b505050506040513d602081101561257c57600080612579615705565b50505b81019080805193507f2083d2b241ef1ec859ae0402864fd9fe9d6d36b18c73615625b46acaf113be78925050505a63996d79a5598160e01b8152602081600483336000905af158601d01573d60011458600c01573d6000803e3d621234565260ea61109c528051925060005b60408110156125ff576000828201526020016125e8565b5050505a61260b615902565b898989865a612618615a5c565b6040516001600160a01b039788168152958716602087015293861660408087019190915260608601939093529416608084015260a083019390935260c082015260e001905180910390a150505050505050565b600080612683858560200260040160ff16602061420a565b905060006126968660048401602061420a565b9050806126e75760405162461bcd60e51b8152602060048201526012602482015271696e707574206973206e6f7420617272617960701b6044820152606401604051809103906126e4615705565b50505b60ff8416811161273f5760405162461bcd60e51b815260206004820152601660248201527534b73b30b634b21030b93930bc903837b9b4ba34b7b760511b60448201526064016040518091039061273c615705565b50505b612759866020600160ff881601810285016004019061420a565b9695505050505050565b6001600160a01b0381166000908152603b60205260408120612783615770565b151592915050565b60006033612797615770565b906101000a90046001600160a01b03166001600160a01b03165a6127b9615902565b6001600160a01b03161461280b5760405162461bcd60e51b815260206004820152600c60248201526b37b7363c9036b0b730b3b2b960a11b604482015260640160405180910390612808615705565b50505b60005b81518110156128605761283382828151811061282657fe5b6020026020010151613c18565b61283c57612858565b61285882828151811061284b57fe5b6020026020010151614dcd565b60010161280e565b5050565b6000806033611b10615770565b6000603361287d615770565b906101000a90046001600160a01b03166001600160a01b03165a61289f615902565b6001600160a01b0316146128f15760405162461bcd60e51b815260206004820152600c60248201526b37b7363c9036b0b730b3b2b960a11b6044820152606401604051809103906128ee615705565b50505b8160336001816128ff615770565b816001600160a01b0302191690836001600160a01b0316021790612921615948565b505050806034908051612938929160200190615aa2565b507f6ed15082ad038474841528b5badca105106d4463e44b5d434130dfb299aa366982826040516001600160a01b038316815260406020820181815290820183818151815260200191508051906020019080838360005b838110156129a757808201518382015260200161298f565b50505050905090810190601f1680156129d45780820380516001836020036101000a031916815260200191505b50935050505060405180910390a15050565b600081830184511015612a485760405162461bcd60e51b815260206004820152601b60248201527f52656164696e67206279746573206f7574206f6620626f756e64730000000000604482015260640160405180910390612a45615705565b50505b826020018401519050816004038015612a67576008810260020a820491505b509392505050565b600080806039612a7d615770565b906101000a90046001600160a01b03166001600160a01b031663b7a54526846040516001600160e01b031960e084901b1681526001600160a01b03909116600482015260240160408051808303818680612ad56157cb565b158015612aea57600080612ae7615705565b50505b505a612af4615817565b5050505050158015612b13573d6000803e3d6000612b10615705565b50505b505050506040513d6040811015612b3257600080612b2f615705565b50505b8101908080519291906020018051939550929350505050915091565b6000612b5982614f40565b612ba45760405162461bcd60e51b815260206004820152600f60248201526e1b9bdb8b5cde5b9d1a08185cdcd95d608a1b604482015260640160405180910390612ba1615705565b50505b816001600160a01b031663d4b839926040518163ffffffff1660e01b81526004016020604051808303818680612bd86157cb565b158015612bed57600080612bea615705565b50505b505a612bf7615817565b5050505050925050508015612c3057506040513d6020811015612c2257600080612c1f615705565b50505b810190808051925060019150505b612cb0573d808015612c5e576040513d603f01601f191681016040523d815291503d6000602084013e612c63565b606091505b5060405162461bcd60e51b815260206004820152600f60248201526e1b9bdb8b5cde5b9d1a08185cdcd95d608a1b604482015260640160405180910390612ca8615705565b505050611b27565b60006038612cbc615770565b906101000a90046001600160a01b03166001600160a01b03166321f8a721680a6f2dce8d0cae8d2f60bb1b6040516001600160e01b031960e084901b16815260048101919091526024016020604051808303818680612d196157cb565b158015612d2e57600080612d2b615705565b50505b505a612d38615817565b5050505050158015612d57573d6000803e3d6000612d54615705565b50505b505050506040513d6020811015612d7657600080612d73615705565b50505b8101908080516001600160a01b031692506316b2213f91508390506040516001600160e01b031960e084901b1681526001600160a01b0390911660048201526024016020604051808303818680612dcb6157cb565b158015612de057600080612ddd615705565b50505b505a612dea615817565b5050505050158015612e09573d6000803e3d6000612e06615705565b50505b505050506040513d6020811015612e2857600080612e25615705565b50505b8101908080519450611b279350505050565b60006033612e46615770565b906101000a90046001600160a01b03166001600160a01b03165a612e68615902565b6001600160a01b031614612eba5760405162461bcd60e51b815260206004820152600c60248201526b37b7363c9036b0b730b3b2b960a11b604482015260640160405180910390612eb7615705565b50505b6000806039612ec7615770565b906101000a90046001600160a01b03166001600160a01b0316635c9bfc2b6040518163ffffffff1660e01b81526004016020604051808303818680612f0a6157cb565b158015612f1f57600080612f1c615705565b50505b505a612f29615817565b5050505050158015612f48573d6000803e3d6000612f45615705565b50505b505050506040513d6020811015612f6757600080612f64615705565b50505b810190808051935060009250829150612f81905085612a6f565b909250905080841115612fd65760405162461bcd60e51b815260206004820152601060248201526f34b73b30b634b210333930b1ba34b7b760811b604482015260640160405180910390612fd3615705565b50505b612fe08284614f55565b84111561303c5760405162461bcd60e51b815260206004820152601960248201527f657863656564656420616c6c6f77656420696e63726561736500000000000000604482015260640160405180910390613039615705565b50505b6000806039613049615770565b906101000a90046001600160a01b03166001600160a01b031663ebee461d6040518163ffffffff1660e01b8152600401602060405180830381868061308c6157cb565b1580156130a15760008061309e615705565b50505b505a6130ab615817565b50505050501580156130ca573d6000803e3d60006130c7615705565b50505b505050506040513d60208110156130e9576000806130e6615705565b50505b8101908080519350879250829150603e9050613103615948565b505050805a613110615a5c565b0180603f61311c615948565b5050507f4db9119741646c419f1ceccdf112b5b9a9b4516355e742e1fa9c479f4dec98da85603f61314b615770565b60405191825260208201526040908101905180910390a1505050505050565b60006033613176615770565b906101000a90046001600160a01b03166001600160a01b03165a613198615902565b6001600160a01b0316146131ea5760405162461bcd60e51b815260206004820152600c60248201526b37b7363c9036b0b730b3b2b960a11b6044820152606401604051809103906131e7615705565b50505b60005b81518110156128605761320582828151811061282657fe5b1561320f5761322b565b61322b82828151811061321e57fe5b6020026020010151614fb4565b6001016131ed565b6000806033613240615770565b906101000a90046001600160a01b03166001600160a01b03165a613262615902565b6001600160a01b031614806132ab57506000603761327e615770565b906101000a90046001600160a01b03166001600160a01b03165a6132a0615902565b6001600160a01b0316145b6132fd5760405162461bcd60e51b815260206004820152601660248201527537b7363c9036b0b730b3b2b91037b9103a3930b232b960511b6044820152606401604051809103906132fa615705565b50505b6001600160a01b0383166133605760405162461bcd60e51b815260206004820152601c60248201527f6e6f6e2d7a65726f20616464726573732069732072657175697265640000000060448201526064016040518091039061335d615705565b50505b600080603961336d615770565b906101000a90046001600160a01b03166001600160a01b0316637027ea6c856040516001600160e01b031960e084901b1681526001600160a01b03909116600482015260240160206040518083038186806133c66157cb565b1580156133db576000806133d8615705565b50505b505a6133e5615817565b5050505050158015613404573d6000803e3d6000613401615705565b50505b505050506040513d602081101561342357600080613420615705565b50505b81019080805193505050506001600160a01b0381166134875760405162461bcd60e51b815260206004820152601360248201527234b73b30b634b2103232b9ba34b730ba34b7b760691b604482015260640160405180910390613484615705565b50505b600080600080846001600160a01b031663e23ff4375a63996d79a5598160e01b8152602081600483336000905af158601d01573d60011458600c01573d6000803e3d621234565260ea61109c528051925060005b60408110156134f2576000828201526020016134db565b505050896040518363ffffffff1660e01b815260040180836001600160a01b0316815260200180602001828103825283818151815260200191508051906020019080838360005b83811015613551578082015183820152602001613539565b50505050905090810190601f16801561357e5780820380516001836020036101000a031916815260200191505b50935050505060806040518083038186806135976157cb565b1580156135ac576000806135a9615705565b50505b505a6135b6615817565b50505050501580156135d5573d6000803e3d60006135d2615705565b50505b505050506040513d60808110156135f4576000806135f1615705565b50505b81019080805192919060200180519291906020018051929190602001805195995093975091955092935050505060ff8416600214156136585761364a8861363a85611b25565b8461364485611b25565b8b615040565b6001955050505050506119ab565b6000886001600160a01b0316886040518082805190602001908083835b602083106136945780518252601f199092019160209182019101613675565b6001836020036101000a0380198251168184511680821785525050505050509050019150506000604051808303816000865a6136ce615996565b5050505050509150503d8060008114613703576040513d603f01601f191681016040523d815291503d6000602084013e613708565b606091505b509091505060018115151461376c5760405162461bcd60e51b815260206004820152601a60248201527f6661696c656420746f2065786563757465207468652063616c6c000000000000604482015260640160405180910390613769615705565b50505b50600198975050505050505050565b603f611e06615770565b60006033613791615770565b906101000a90046001600160a01b03166001600160a01b03165a6137b3615902565b6001600160a01b0316146138055760405162461bcd60e51b815260206004820152600c60248201526b37b7363c9036b0b730b3b2b960a11b604482015260640160405180910390613802615705565b50505b60006037600181613814615770565b816001600160a01b0302191690836001600160a01b0316021790613836615948565b505050565b603d60205280600052604060002060009150613855615770565b906101000a900460ff1681565b60006120c8838360200260040160ff16602061420a565b603e611e06615770565b60008061388f83612b4e565b905080156138a1576001915050611b27565b50600092915050565b6000603a806138b7615770565b91505090565b600060336138c9615770565b906101000a90046001600160a01b03166001600160a01b03165a6138eb615902565b6001600160a01b03161461393d5760405162461bcd60e51b815260206004820152600c60248201526b37b7363c9036b0b730b3b2b960a11b60448201526064016040518091039061393a615705565b50505b603f613947615770565b5a613950615a5c565b10156139ab5760405162461bcd60e51b815260206004820152601960248201527f66656520696e6372656173652064656c617920616374697665000000000000006044820152606401604051809103906139a8615705565b50505b6139be81603e6139b9615770565b6152af565b600080603e6139cb615948565b5050506000603f8190611afd615948565b6000806139f4848460200260040160ff16602061420a565b9050613a058460048301602061420a565b949350505050565b6060603580613a1a615770565b806020026020016040519081016040528181529190602083018280613a3d615770565b8015613a8a57602002820191906000526020600020905b600082613a5f615770565b906101000a90046001600160a01b03166001600160a01b031681526020019060010190808311613a54575b5050505050905090565b603c60205280600052604060002060009150613855615770565b60006035806138b7615770565b60006033613ac7615770565b906101000a90046001600160a01b03166001600160a01b03165a613ae9615902565b6001600160a01b031614613b3b5760405162461bcd60e51b815260206004820152600c60248201526b37b7363c9036b0b730b3b2b960a11b604482015260640160405180910390613b38615705565b50505b806037600181611adb615770565b60006033613b55615770565b906101000a90046001600160a01b03166001600160a01b03165a613b77615902565b6001600160a01b031614613bc95760405162461bcd60e51b815260206004820152600c60248201526b37b7363c9036b0b730b3b2b960a11b604482015260640160405180910390613bc6615705565b50505b600080603e613bd6615948565b5050506000603f8190613be7615948565b5050507fc6f04bf43cbdf1ba5d51b4afa160bb3c7e13858b1409aa32868b239bb2f8d84960405160405180910390a1565b6001600160a01b0381166000908152603660205260408120612783615770565b60006119ab82600060046129e6565b6000603961144e615770565b603a8181613c5f615770565b8110613c6757fe5b906000526020600020016000915061144e615770565b60006033613c89615770565b906101000a90046001600160a01b03166001600160a01b03165a613cab615902565b6001600160a01b031614613cfd5760405162461bcd60e51b815260206004820152600c60248201526b37b7363c9036b0b730b3b2b960a11b604482015260640160405180910390613cfa615705565b50505b613d0681613c18565b15613d1057611841565b61184181614fb4565b60016000613d25615770565b906101000a900460ff1680613d3d5750613d3d615502565b80613d5a5750600080613d4e615770565b906101000a900460ff16155b613d9e5760405162461bcd60e51b815260040180806020018281038252602e815260200180615b62602e913960400191505060405180910390613d9b615705565b50505b6000600181613dab615770565b906101000a900460ff161590508015613e11576001600061010081613dce615770565b8160ff02191690831515021790613de3615948565b50505060016000806101000a81613df8615770565b8160ff02191690831515021790613e0d615948565b5050505b613e1b8585615573565b856039600181613e29615770565b816001600160a01b0302191690836001600160a01b0316021790613e4b615948565b50505082603860006101000a81613e60615770565b816001600160a01b0302191690836001600160a01b0316021790613e82615948565b50505060005b82518160ff161015613ebb57613eb3838260ff1681518110613ea657fe5b6020026020010151614a6a565b600101613e88565b506000613ece631cd554d160e21b611e09565b90506001600160a01b03811615613f2757613ee881614a6a565b6001600160a01b0381166000908152603d60205260019060409020600181613f0e615770565b8160ff02191690831515021790613f23615948565b5050505b508015613f565760008061010081613f3d615770565b8160ff02191690831515021790613f52615948565b5050505b505050505050565b6000806038613f6b615770565b906101000a90046001600160a01b03166001600160a01b03166321f8a7216c45786368616e6765526174657360981b6040516001600160e01b031960e084901b16815260048101919091526024016020604051808303818680613fcc6157cb565b158015613fe157600080613fde615705565b50505b505a613feb615817565b505050505015801561400a573d6000803e3d6000614007615705565b50505b505050506040513d602081101561402957600080614026615705565b50505b8101908080516001600160a01b0316925063654a60ac915061404c905084612b4e565b846001600160a01b03166370a082315a63996d79a5598160e01b8152602081600483336000905af158601d01573d60011458600c01573d6000803e3d621234565260ea61109c528051925060005b60408110156140b15760008282015260200161409a565b5050506040516001600160e01b031960e084901b1681526001600160a01b03909116600482015260240160206040518083038186806140ee6157cb565b15801561410357600080614100615705565b50505b505a61410d615817565b505050505015801561412c573d6000803e3d6000614129615705565b50505b505050506040513d602081101561414b57600080614148615705565b50505b8101908080519250631cd554d160e21b915060409050516001600160e01b031960e086901b168152600481019390935260248301919091526044820152606401602060405180830381868061419e6157cb565b1580156141b3576000806141b0615705565b50505b505a6141bd615817565b50505050501580156141dc573d6000803e3d60006141d9615705565b50505b505050506040513d60208110156141fb576000806141f8615705565b50505b81019080805195945050505050565b60008183018451101561426c5760405162461bcd60e51b815260206004820152601b60248201527f52656164696e67206279746573206f7574206f6620626f756e64730000000000604482015260640160405180910390614269615705565b50505b826020018401519050816020038015612a675760080260020a90049392505050565b6060603a8061429b615770565b8060200260200160405190810160405281815291906020830182806142be615770565b8015613a8a57602002820191906000526020600020905b6000826142e0615770565b906101000a90046001600160a01b03166001600160a01b0316815260200190600101908083116142d5575050505050905090565b600080603e614321615770565b603f61432b615770565b915091509091565b60608060606000603a80614345615770565b9050905060608167ffffffffffffffff8111801561436b57600080614368615705565b50505b50604051908082528060200260200182016040528015614395578160200160208202803683370190505b50905060608267ffffffffffffffff811180156143ba576000806143b7615705565b50505b506040519080825280602002602001820160405280156143e4578160200160208202803683370190505b50905060608367ffffffffffffffff8111801561440957600080614406615705565b50505b50604051908082528060200260200182016040528015614433578160200160208202803683370190505b5090506000806038614443615770565b906101000a90046001600160a01b03166001600160a01b03166321f8a7216c45786368616e6765526174657360981b6040516001600160e01b031960e084901b168152600481019190915260240160206040518083038186806144a46157cb565b1580156144b9576000806144b6615705565b50505b505a6144c3615817565b50505050501580156144e2573d6000803e3d60006144df615705565b50505b505050506040513d6020811015614501576000806144fe615705565b50505b81019080805193506000925050505b85811015614766576000603a8281614526615770565b811061452e57fe5b90600052602060002001600090614543615770565b906101000a90046001600160a01b03169050806001600160a01b03166370a082315a63996d79a5598160e01b8152602081600483336000905af158601d01573d60011458600c01573d6000803e3d621234565260ea61109c528051925060005b60408110156145ba576000828201526020016145a3565b5050506040516001600160e01b031960e084901b1681526001600160a01b03909116600482015260240160206040518083038186806145f76157cb565b15801561460c57600080614609615705565b50505b505a614616615817565b5050505050158015614635573d6000803e3d6000614632615705565b50505b505050506040513d602081101561465457600080614651615705565b50505b81019080805192508791508490508151811061466c57fe5b6020026020010181815250508086838151811061468557fe5b6001600160a01b039283166020918202929092010152831663ac82f6086146ab83612b4e565b6040516001600160e01b031960e084901b168152600481019190915260240160206040518083038186806146dd6157cb565b1580156146f2576000806146ef615705565b50505b505a6146fc615817565b505050505015801561471b573d6000803e3d6000614718615705565b50505b505050506040513d602081101561473a57600080614737615705565b50505b81019080805192508691508490508151811061475257fe5b602090810291909101015250600101614510565b509297919650945092505050565b6060603480614781615770565b600181600116156101000203166002900480601f0160208091040260200160405190810160405281815291906020830182806147bb615770565b60018160011615610100020316600290048015613a8a5780601f106147f55761010080836147e7615770565b040283529160200191613a8a565b820191906000526020600020905b8161480c615770565b8152906001019060200180831161480357509395945050505050565b6000603a80614835615770565b6001600160a01b0384166000908152603b602052909250905061486560016040832061485f615770565b906155ba565b90506000603a6148768460016155ba565b8161487f615770565b811061488757fe5b9060005260206000200160009061489c615770565b906101000a90046001600160a01b0316905080603a83816148bb615770565b81106148c357fe5b906000526020600020016001816148d8615770565b816001600160a01b0302191690836001600160a01b03160217906148fa615948565b5061490a91508390506001614f55565b6001600160a01b0382166000908152603b60205260409020819061492c615948565b5050506001600160a01b0384166000908152603b602052604081208190614951615948565b505050603a8061495f615770565b8061496657fe5b60019003818190600052602060002001600181614981615770565b906001600160a01b0302191690614996615948565b5050906149a1615948565b50507f9b4f55639e5e283319baee5bc4e69a5625a8e3a1cc004af968f4fee7250220275a63996d79a5598160e01b8152602081600483336000905af158601d01573d60011458600c01573d6000803e3d621234565260ea61109c528051925060005b6040811015614a1a57600082820152602001614a03565b505050614a25612864565b8660405180846001600160a01b03168152602001836001600160a01b03168152602001826001600160a01b03168152602001935050505060405180910390a150505050565b60006039614a76615770565b906101000a90046001600160a01b03166001600160a01b031663aa12ae4d6040518163ffffffff1660e01b81526004016020604051808303818680614ab96157cb565b158015614ace57600080614acb615705565b50505b505a614ad8615817565b5050505050158015614af7573d6000803e3d6000614af4615705565b50505b505050506040513d6020811015614b1657600080614b13615705565b50505b8101908080519250603a9150819050614b2d615770565b905010614b825760405162461bcd60e51b81526020600482015260166024820152751b585e1a5b5d5b48185cdcd95d1cc81c995858da195960521b604482015260640160405180910390614b7f615705565b50505b614b8b81612763565b15614be55760405162461bcd60e51b815260206004820152601760248201527f617373657420616c726561647920737570706f72746564000000000000000000604482015260640160405180910390614be2615705565b50505b614bee81613883565b1515600114614c3c5760405162461bcd60e51b815260206004820152600d60248201526c1a5b9d985b1a5908185cdcd95d609a1b604482015260640160405180910390614c39615705565b50505b80603a80600181614c4b615770565b018082614c56615948565b505060009283526000190191602091502001600181614c73615770565b816001600160a01b0302191690836001600160a01b0316021790614c95615948565b505050603a80614ca3615770565b6001600160a01b0383166000908152603b602052909150604090208190614cc8615948565b5050506001600160a01b0381166000908152603c60205260019060409020600181614cf1615770565b8160ff02191690831515021790614d06615948565b5050507f0a7426a0630aad7dbc4d5ca5b7d9aac1133d77d2db987caaf4b4186c85d6593f5a63996d79a5598160e01b8152602081600483336000905af158601d01573d60011458600c01573d6000803e3d621234565260ea61109c528051925060005b6040811015614d8057600082820152602001614d69565b505050614d8b612864565b8360405180846001600160a01b03168152602001836001600160a01b03168152602001826001600160a01b03168152602001935050505060405180910390a150565b6000603580614dda615770565b6001600160a01b038416600090815260366020529092509050614e0460016040832061485f615770565b905060006035614e158460016155ba565b81614e1e615770565b8110614e2657fe5b90600052602060002001600090614e3b615770565b906101000a90046001600160a01b031690508060358381614e5a615770565b8110614e6257fe5b90600052602060002001600181614e77615770565b816001600160a01b0302191690836001600160a01b0316021790614e99615948565b50614ea991508390506001614f55565b6001600160a01b03821660009081526036602052604090208190614ecb615948565b5050506001600160a01b03841660009081526036602052604081208190614ef0615948565b505050603580614efe615770565b80614f0557fe5b60019003818190600052602060002001600181614f20615770565b906001600160a01b0302191690614f35615948565b505090613f56615948565b60008082614f4c6157cb565b15159392505050565b6000828201838110156120c85760405162461bcd60e51b815260206004820152601b60248201527f536166654d6174683a206164646974696f6e206f766572666c6f7700000000006044820152606401604051809103906120c5615705565b80603580600181614fc3615770565b018082614fce615948565b505060009283526000190191602091502001600181614feb615770565b816001600160a01b0302191690836001600160a01b031602179061500d615948565b50505060358061501b615770565b6001600160a01b03831660009081526036602052909150604090208190611afd615948565b61504984612763565b61509d5760405162461bcd60e51b81526020600482015260186024820152771d5b9cdd5c1c1bdc9d1959081cdbdd5c98d948185cdcd95d60421b60448201526064016040518091039061509a615705565b50505b6150a682612763565b6150ff5760405162461bcd60e51b815260206004820152601d60248201527f756e737570706f727465642064657374696e6174696f6e2061737365740000006044820152606401604051809103906150fc615705565b50505b60006060866001600160a01b0316836040518082805190602001908083835b6020831061513d5780518252601f19909201916020918201910161511e565b6001836020036101000a0380198251168184511680821785525050505050509050019150506000604051808303816000865a615177615996565b5050505050509150503d80600081146151ac576040513d603f01601f191681016040523d815291503d6000602084013e6151b1565b606091505b5090925090506001821515146152165760405162461bcd60e51b815260206004820152601a60248201527f6661696c656420746f20657865637574652065786368616e6765000000000000604482015260640160405180910390615213615705565b50505b7f2083d2b241ef1ec859ae0402864fd9fe9d6d36b18c73615625b46acaf113be785a63996d79a5598160e01b8152602081600483336000905af158601d01573d60011458600c01573d6000803e3d621234565260ea61109c528051925060005b604081101561528d57600082820152602001615276565b505050615298612864565b8888886152a68760006155fa565b5a612618615a5c565b600060396152bb615770565b906101000a90046001600160a01b03166001600160a01b031663046b72c483836040516001600160e01b031960e085901b1681526001600160a01b03909216600483015260248201526044016000604051808303816000878061531c6157cb565b1580156153315760008061532e615705565b50505b505a61533b615996565b50505050505015801561535b573d6000803e3d6000615358615705565b50505b50505050600080603960009061536f615770565b906101000a90046001600160a01b03166001600160a01b031663b7a54526856040516001600160e01b031960e084901b1681526001600160a01b039091166004820152602401604080518083038186806153c76157cb565b1580156153dc576000806153d9615705565b50505b505a6153e6615817565b5050505050158015615405573d6000803e3d6000615402615705565b50505b505050506040513d604081101561542457600080615421615705565b50505b81019080805192919060200180519395509293507f1780c04ddc6f0b32d866c7a3d7583f53515ef49ed2126af868f804f491601266925050505a63996d79a5598160e01b8152602081600483336000905af158601d01573d60011458600c01573d6000803e3d621234565260ea61109c528051925060005b60408110156154b35760008282015260200161549c565b5050506154be612864565b848460405180856001600160a01b03168152602001846001600160a01b0316815260200183815260200182815260200194505050505060405180910390a150505050565b6000805a63996d79a5598160e01b8152602081600483336000905af158601d01573d60011458600c01573d6000803e3d621234565260ea61109c528051925060005b604081101561555b57600082820152602001615544565b505050905060008161556b6157cb565b159250505090565b816033600181615581615770565b816001600160a01b0302191690836001600160a01b03160217906155a3615948565b505050806034908051613836929160200190615aa2565b60006120c8838360405160408082019052601e81527f536166654d6174683a207375627472616374696f6e206f766572666c6f7700006020820152615665565b600081602001835110156156545760405162461bcd60e51b8152602060048201526014602482015273736c6963696e67206f7574206f662072616e676560601b604482015260640160405180910390615651615705565b50505b600082602001840151949350505050565b600081848411156156fd5760405162461bcd60e51b81526004018080602001828103825283818151815260200191508051906020019080838360005b838110156156b95780820151838201526020016156a1565b50505050905090810190601f1680156156e65780820380516001836020036101000a031916815260200191505b5092505050604051809103906156fa615705565b50505b505050900390565b632a2a7adb598160e01b8152600481016020815285602082015260005b8681101561573d578086015182820160400152602001615722565b506020828760640184336000905af158601d01573d60011458600c01573d6000803e3d621234565260ea61109c52505050565b6303daa959598160e01b8152836004820152602081602483336000905af158601d01573d60011458600c01573d6000803e3d621234565260ea61109c528051935060005b6040811015613836576000828201526020016157b4565b638435035b598160e01b8152836004820152602081602483336000905af158601d01573d60011458600c01573d6000803e3d621234565260ea61109c52805160008252935060206157b4565b638540661f598160e01b8152615848565b80808311156119ab575090919050565b80808310156119ab575090919050565b836004820152846024820152606060448201528660648201526084810160005b88811015615880578088015182820152602001615868565b506060828960a40184336000905af158601d01573d60011458600c01573d6000803e3d621234565260ea61109c52815160408301513d6000853e8b8b82606087013350600060045af150596158d58d3d615838565b8c016158e18187615828565b5b828110156158f657600081526020016158e2565b50929c50505050505050565b6373509064598160e01b8152602081600483336000905af158601d01573d60011458600c01573d6000803e3d621234565260ea61109c52805160008252935060206157b4565b6322bd64c0598160e01b8152836004820152846024820152600081604483336000905af158601d01573d60011458600c01573d6000803e3d621234565260ea61109c526000815260206157b4565b6385979f76598160e01b8152836004820152846024820152606060448201528760648201526084810160005b898110156159da5780890151828201526020016159c2565b506060828a60a40184336000905af158601d01573d60011458600c01573d6000803e3d621234565260ea61109c52815160408301513d6000853e8c8c82606087013350600060045af15059615a2f8e3d615838565b8d01615a3b8187615828565b5b82811015615a505760008152602001615a3c565b50929d50505050505050565b63bdbf8c36598160e01b8152602081600483336000905af158601d01573d60011458600c01573d6000803e3d621234565260ea61109c52805160008252935060206157b4565b8280615aac615770565b600181600116156101000203166002900490600052602060002090601f016020900481019282601f10615af357805160ff19168380011785615aec615948565b5050615b32565b82800160010185615b02615948565b50508215615b32579182015b82811115615b3257825182615b21615948565b505091602001919060010190615b0e565b50615b3e929150615b42565b5090565b80821115615b3e5760008082615b56615948565b505050600101615b4256fe436f6e747261637420696e7374616e63652068617320616c7265616479206265656e20696e697469616c697a6564",
  "linkReferences": {},
  "deployedLinkReferences": {}
}