{
  "_format": "hh-sol-artifact-1",
  "contractName": "PoolManagerLogic-ovm",
  "sourceName": "contracts/PoolManagerLogic.sol",
  "abi": [
    {
      "anonymous": false,
      "inputs": [
        {
          "indexed": false,
          "internalType": "address",
          "name": "fundAddress",
          "type": "address"
        },
        {
          "indexed": false,
          "internalType": "address",
          "name": "manager",
          "type": "address"
        },
        {
          "indexed": false,
          "internalType": "bytes32",
          "name": "assetKey",
          "type": "bytes32"
        }
      ],
      "name": "AssetAdded",
      "type": "event"
    },
    {
      "anonymous": false,
      "inputs": [
        {
          "indexed": false,
          "internalType": "address",
          "name": "fundAddress",
          "type": "address"
        },
        {
          "indexed": false,
          "internalType": "address",
          "name": "manager",
          "type": "address"
        },
        {
          "indexed": false,
          "internalType": "bytes32",
          "name": "assetKey",
          "type": "bytes32"
        }
      ],
      "name": "AssetRemoved",
      "type": "event"
    },
    {
      "anonymous": false,
      "inputs": [
        {
          "indexed": false,
          "internalType": "address",
          "name": "fundAddress",
          "type": "address"
        },
        {
          "indexed": false,
          "internalType": "address",
          "name": "manager",
          "type": "address"
        },
        {
          "indexed": false,
          "internalType": "bytes32",
          "name": "sourceKey",
          "type": "bytes32"
        },
        {
          "indexed": false,
          "internalType": "uint256",
          "name": "sourceAmount",
          "type": "uint256"
        },
        {
          "indexed": false,
          "internalType": "bytes32",
          "name": "destinationKey",
          "type": "bytes32"
        },
        {
          "indexed": false,
          "internalType": "uint256",
          "name": "destinationAmount",
          "type": "uint256"
        },
        {
          "indexed": false,
          "internalType": "uint256",
          "name": "time",
          "type": "uint256"
        }
      ],
      "name": "Exchange",
      "type": "event"
    },
    {
      "anonymous": false,
      "inputs": [
        {
          "indexed": false,
          "internalType": "address",
          "name": "fundAddress",
          "type": "address"
        },
        {
          "indexed": false,
          "internalType": "address",
          "name": "manager",
          "type": "address"
        },
        {
          "indexed": false,
          "internalType": "uint256",
          "name": "numerator",
          "type": "uint256"
        },
        {
          "indexed": false,
          "internalType": "uint256",
          "name": "denominator",
          "type": "uint256"
        }
      ],
      "name": "ManagerFeeSet",
      "type": "event"
    },
    {
      "anonymous": false,
      "inputs": [
        {
          "indexed": false,
          "internalType": "address",
          "name": "newManager",
          "type": "address"
        },
        {
          "indexed": false,
          "internalType": "string",
          "name": "newManagerName",
          "type": "string"
        }
      ],
      "name": "ManagerUpdated",
      "type": "event"
    },
    {
      "inputs": [
        {
          "internalType": "address",
          "name": "member",
          "type": "address"
        }
      ],
      "name": "addMember",
      "outputs": [],
      "stateMutability": "nonpayable",
      "type": "function"
    },
    {
      "inputs": [
        {
          "internalType": "address[]",
          "name": "members",
          "type": "address[]"
        }
      ],
      "name": "addMembers",
      "outputs": [],
      "stateMutability": "nonpayable",
      "type": "function"
    },
    {
      "inputs": [
        {
          "internalType": "bytes32",
          "name": "key",
          "type": "bytes32"
        }
      ],
      "name": "addToSupportedAssets",
      "outputs": [],
      "stateMutability": "nonpayable",
      "type": "function"
    },
    {
      "inputs": [],
      "name": "addressResolver",
      "outputs": [
        {
          "internalType": "contract IAddressResolver",
          "name": "",
          "type": "address"
        }
      ],
      "stateMutability": "view",
      "type": "function"
    },
    {
      "inputs": [],
      "name": "addressResolverAddress",
      "outputs": [
        {
          "internalType": "address",
          "name": "",
          "type": "address"
        }
      ],
      "stateMutability": "view",
      "type": "function"
    },
    {
      "inputs": [
        {
          "internalType": "bytes32",
          "name": "",
          "type": "bytes32"
        }
      ],
      "name": "assetPosition",
      "outputs": [
        {
          "internalType": "uint256",
          "name": "",
          "type": "uint256"
        }
      ],
      "stateMutability": "view",
      "type": "function"
    },
    {
      "inputs": [
        {
          "internalType": "bytes32",
          "name": "key",
          "type": "bytes32"
        }
      ],
      "name": "assetValue",
      "outputs": [
        {
          "internalType": "uint256",
          "name": "",
          "type": "uint256"
        }
      ],
      "stateMutability": "view",
      "type": "function"
    },
    {
      "inputs": [
        {
          "internalType": "address",
          "name": "newManager",
          "type": "address"
        },
        {
          "internalType": "string",
          "name": "newManagerName",
          "type": "string"
        }
      ],
      "name": "changeManager",
      "outputs": [],
      "stateMutability": "nonpayable",
      "type": "function"
    },
    {
      "inputs": [
        {
          "internalType": "bytes32",
          "name": "sourceKey",
          "type": "bytes32"
        },
        {
          "internalType": "uint256",
          "name": "sourceAmount",
          "type": "uint256"
        },
        {
          "internalType": "bytes32",
          "name": "destinationKey",
          "type": "bytes32"
        }
      ],
      "name": "exchange",
      "outputs": [],
      "stateMutability": "nonpayable",
      "type": "function"
    },
    {
      "inputs": [],
      "name": "factory",
      "outputs": [
        {
          "internalType": "address",
          "name": "",
          "type": "address"
        }
      ],
      "stateMutability": "view",
      "type": "function"
    },
    {
      "inputs": [
        {
          "internalType": "bytes32",
          "name": "key",
          "type": "bytes32"
        }
      ],
      "name": "getAssetProxy",
      "outputs": [
        {
          "internalType": "address",
          "name": "",
          "type": "address"
        }
      ],
      "stateMutability": "view",
      "type": "function"
    },
    {
      "inputs": [],
      "name": "getFundComposition",
      "outputs": [
        {
          "internalType": "bytes32[]",
          "name": "",
          "type": "bytes32[]"
        },
        {
          "internalType": "uint256[]",
          "name": "",
          "type": "uint256[]"
        },
        {
          "internalType": "uint256[]",
          "name": "",
          "type": "uint256[]"
        }
      ],
      "stateMutability": "view",
      "type": "function"
    },
    {
      "inputs": [],
      "name": "getManagerFee",
      "outputs": [
        {
          "internalType": "uint256",
          "name": "",
          "type": "uint256"
        },
        {
          "internalType": "uint256",
          "name": "",
          "type": "uint256"
        }
      ],
      "stateMutability": "view",
      "type": "function"
    },
    {
      "inputs": [],
      "name": "getMembers",
      "outputs": [
        {
          "internalType": "address[]",
          "name": "",
          "type": "address[]"
        }
      ],
      "stateMutability": "view",
      "type": "function"
    },
    {
      "inputs": [],
      "name": "getSupportedAssets",
      "outputs": [
        {
          "internalType": "bytes32[]",
          "name": "",
          "type": "bytes32[]"
        }
      ],
      "stateMutability": "view",
      "type": "function"
    },
    {
      "inputs": [],
      "name": "getSuspendedAssets",
      "outputs": [
        {
          "internalType": "bytes32[]",
          "name": "",
          "type": "bytes32[]"
        },
        {
          "internalType": "bool[]",
          "name": "",
          "type": "bool[]"
        }
      ],
      "stateMutability": "view",
      "type": "function"
    },
    {
      "inputs": [
        {
          "internalType": "address",
          "name": "_factory",
          "type": "address"
        },
        {
          "internalType": "address",
          "name": "_manager",
          "type": "address"
        },
        {
          "internalType": "string",
          "name": "_managerName",
          "type": "string"
        },
        {
          "internalType": "address",
          "name": "_addressResolver",
          "type": "address"
        },
        {
          "internalType": "bytes32[]",
          "name": "_supportedAssets",
          "type": "bytes32[]"
        }
      ],
      "name": "initialize",
      "outputs": [],
      "stateMutability": "nonpayable",
      "type": "function"
    },
    {
      "inputs": [
        {
          "internalType": "bytes32",
          "name": "key",
          "type": "bytes32"
        }
      ],
      "name": "isAssetSupported",
      "outputs": [
        {
          "internalType": "bool",
          "name": "",
          "type": "bool"
        }
      ],
      "stateMutability": "view",
      "type": "function"
    },
    {
      "inputs": [
        {
          "internalType": "address",
          "name": "member",
          "type": "address"
        }
      ],
      "name": "isMemberAllowed",
      "outputs": [
        {
          "internalType": "bool",
          "name": "",
          "type": "bool"
        }
      ],
      "stateMutability": "view",
      "type": "function"
    },
    {
      "inputs": [],
      "name": "manager",
      "outputs": [
        {
          "internalType": "address",
          "name": "",
          "type": "address"
        }
      ],
      "stateMutability": "view",
      "type": "function"
    },
    {
      "inputs": [],
      "name": "managerName",
      "outputs": [
        {
          "internalType": "string",
          "name": "",
          "type": "string"
        }
      ],
      "stateMutability": "view",
      "type": "function"
    },
    {
      "inputs": [],
      "name": "numberOfMembers",
      "outputs": [
        {
          "internalType": "uint256",
          "name": "",
          "type": "uint256"
        }
      ],
      "stateMutability": "view",
      "type": "function"
    },
    {
      "inputs": [],
      "name": "numberOfSupportedAssets",
      "outputs": [
        {
          "internalType": "uint256",
          "name": "",
          "type": "uint256"
        }
      ],
      "stateMutability": "view",
      "type": "function"
    },
    {
      "inputs": [
        {
          "internalType": "bytes32",
          "name": "",
          "type": "bytes32"
        }
      ],
      "name": "persistentAsset",
      "outputs": [
        {
          "internalType": "bool",
          "name": "",
          "type": "bool"
        }
      ],
      "stateMutability": "view",
      "type": "function"
    },
    {
      "inputs": [
        {
          "internalType": "bytes32",
          "name": "key",
          "type": "bytes32"
        }
      ],
      "name": "removeFromSupportedAssets",
      "outputs": [],
      "stateMutability": "nonpayable",
      "type": "function"
    },
    {
      "inputs": [
        {
          "internalType": "address",
          "name": "member",
          "type": "address"
        }
      ],
      "name": "removeMember",
      "outputs": [],
      "stateMutability": "nonpayable",
      "type": "function"
    },
    {
      "inputs": [
        {
          "internalType": "address[]",
          "name": "members",
          "type": "address[]"
        }
      ],
      "name": "removeMembers",
      "outputs": [],
      "stateMutability": "nonpayable",
      "type": "function"
    },
    {
      "inputs": [
        {
          "internalType": "uint256",
          "name": "numerator",
          "type": "uint256"
        }
      ],
      "name": "setManagerFeeNumerator",
      "outputs": [],
      "stateMutability": "nonpayable",
      "type": "function"
    },
    {
      "inputs": [
        {
          "internalType": "uint256",
          "name": "",
          "type": "uint256"
        }
      ],
      "name": "supportedAssets",
      "outputs": [
        {
          "internalType": "bytes32",
          "name": "",
          "type": "bytes32"
        }
      ],
      "stateMutability": "view",
      "type": "function"
    },
    {
      "inputs": [
        {
          "internalType": "bytes32",
          "name": "key",
          "type": "bytes32"
        }
      ],
      "name": "validateAsset",
      "outputs": [
        {
          "internalType": "bool",
          "name": "",
          "type": "bool"
        }
      ],
      "stateMutability": "view",
      "type": "function"
    }
  ],
  "bytecode": "0x60806040523480156200001c576000806200001962000023565b50505b5062000090565b632a2a7adb598160e01b8152600481016020815285602082015260005b868110156200005d57808601518282016040015260200162000040565b506020828760640184336000905af158600e01573d6000803e3d6000fd5b3d6001141558600a015760016000f35b505050565b613e1f80620000a06000396000f3fe608060405234801561001957600080610016613951565b50505b50600436106101e35760003560e01c80639eab52531161010d578063d44fa33e116100ab578063eb94917d1161007a578063eb94917d146107f3578063ee52a2f314610981578063f09d14d7146109b3578063fed4416a14610a99576101e3565b8063d44fa33e14610779578063d78d7c2e1461079f578063e5406dbf146107c5578063e5ea7759146107cd576101e3565b8063c45a0155116100e7578063c45a0155146106f6578063c68dbb37146106fe578063ca6d56dc14610724578063d3cfb3b614610753576101e3565b80639eab525314610664578063a30e3fa9146106bf578063bbbf725b146106c7576101e3565b80633ded65301161018557806353d9133e1161015457806353d9133e14610537578063670797491461055d5780636f4d469b14610597578063936553c41461065c576101e3565b80633ded65301461036d57806346ee84b014610393578063481c6a75146104585780635221366314610460576101e3565b80630b1ca49a116101c15780630b1ca49a146102755780630e53b751146102a457806319805538146102ac57806321f8c984146102cc576101e3565b8063023f21de146101f15780630499123f1461021957806305a2ee2a14610251575b6000806101ee613951565b50505b610217600480360360208110156102105760008061020d613951565b50505b5035610b18565b005b61023f6004803603602081101561023857600080610235613951565b50505b5035610e16565b60405190815260200160405180910390f35b6102596110c4565b6040516001600160a01b03909116815260200160405180910390f35b6102176004803603602081101561029457600080610291613951565b50505b50356001600160a01b03166110e3565b61025961117d565b6102b4611189565b60405191825260208201526040908101905180910390f35b6102d46112bf565b604051808060200180602001838103835285818151815260200191508051906020019060200280838360005b83811015610318578082015183820152602001610300565b50505050905001838103825284818151815260200191508051906020019060200280838360005b8381101561035757808201518382015260200161033f565b5050505090500194505050505060405180910390f35b6102596004803603602081101561038c57600080610389613951565b50505b5035611564565b610217600480360360208110156103b2576000806103af613951565b50505b810190602081018135600160201b8111156103d5576000806103d2613951565b50505b8201836020820111156103f0576000806103ed613951565b50505b803590602001918460208302840111600160201b8311171561041a57600080610417613951565b50505b91908080602002602001604051908101604052809392919081815260200183836020028082843760009201919091525092955061182a945050505050565b610259611902565b6102176004803603604081101561047f5760008061047c613951565b50505b6001600160a01b038235169190810190604081016020820135600160201b8111156104b2576000806104af613951565b50505b8201836020820111156104cd576000806104ca613951565b50505b803590602001918460018302840111600160201b831117156104f7576000806104f4613951565b50505b91908080601f0160208091040260200160405190810160405281815292919060208401838380828437600092019190915250929550611923945050505050565b6102176004803603602081101561055657600080610553613951565b50505b5035611a97565b6105836004803603602081101561057c57600080610579613951565b50505b5035611b1f565b604051901515815260200160405180910390f35b610217600480360360208110156105b6576000806105b3613951565b50505b810190602081018135600160201b8111156105d9576000806105d6613951565b50505b8201836020820111156105f4576000806105f1613951565b50505b803590602001918460208302840111600160201b8311171561061e5760008061061b613951565b50505b919080806020026020016040519081016040528093929190818152602001838360200280828437600092019190915250929550611b46945050505050565b61023f611c0e565b61066c611c21565b60405160208082528190810183818151815260200191508051906020019060200280838360005b838110156106ab578082015183820152602001610693565b505050509050019250505060405180910390f35b61023f611ca8565b610583600480360360208110156106e6576000806106e3613951565b50505b50356001600160a01b0316611cb5565b610259611cdd565b61023f6004803603602081101561071d5760008061071a613951565b50505b5035611ce9565b6102176004803603602081101561074357600080610740613951565b50505b50356001600160a01b0316611d14565b610217600480360360208110156107725760008061076f613951565b50505b5035611daf565b6105836004803603602081101561079857600080610795613951565b50505b5035611e37565b61023f600480360360208110156107be576000806107bb613951565b50505b5035611e4d565b61066c611e65565b610583600480360360208110156107ec576000806107e9613951565b50505b5035611ed0565b610217600480360360a08110156108125760008061080f613951565b50505b6001600160a01b038235811692602081013590911691810190606081016040820135600160201b81111561084e5760008061084b613951565b50505b82018360208201111561086957600080610866613951565b50505b803590602001918460018302840111600160201b8311171561089357600080610890613951565b50505b91908080601f016020809104026020016040519081016040528181529291906020840183838082843760009201919091525092956001600160a01b03853516959094909350604081019250602001359050600160201b8111156108fe576000806108fb613951565b50505b82018360208201111561091957600080610916613951565b50505b803590602001918460208302840111600160201b8311171561094357600080610940613951565b50505b919080806020026020016040519081016040528093929190818152602001838360200280828437600092019190915250929550612126945050505050565b610217600480360360608110156109a05760008061099d613951565b50505b5080359060208101359060400135612386565b6109bb6128bc565b60405180806020018060200180602001848103845287818151815260200191508051906020019060200280838360005b83811015610a035780820151838201526020016109eb565b50505050905001848103835286818151815260200191508051906020019060200280838360005b83811015610a42578082015183820152602001610a2a565b50505050905001848103825285818151815260200191508051906020019060200280838360005b83811015610a81578082015183820152602001610a69565b50505050905001965050505050505060405180910390f35b610aa1612ce8565b60405160208082528190810183818151815260200191508051906020019080838360005b83811015610add578082015183820152602001610ac5565b50505050905090810190601f168015610b0a5780820380516001836020036101000a031916815260200191505b509250505060405180910390f35b600080610b236139bc565b906101000a90046001600160a01b03166001600160a01b03165a610b45613a17565b6001600160a01b031614610b975760405162461bcd60e51b815260206004820152600c60248201526b37b7363c9036b0b730b3b2b960a11b604482015260640160405180910390610b94613951565b50505b610ba081611e37565b610bef5760405162461bcd60e51b8152602060048201526013602482015272185cdcd95d081b9bdd081cdd5c1c1bdc9d1959606a1b604482015260640160405180910390610bec613951565b50505b6000818152606d60205260409020600090610c086139bc565b906101000a900460ff1615610c575760405162461bcd60e51b8152600401808060200182810382526022815260200180613dcf6022913960400191505060405180910390610c54613951565b50505b610c6081611564565b6001600160a01b03166370a082315a63996d79a5598160e01b8152602081600483336000905af158600e01573d6000803e3d6000fd5b3d6001141558600a015760016000f35b8051925060005b6040811015610cc457600082820152602001610cad565b5050506040516001600160e01b031960e084901b1681526001600160a01b0390911660048201526024016020604051808303818680610d01613a5d565b158015610d1657600080610d13613951565b50505b505a610d20613aa9565b5050505050158015610d3f573d6000803e3d6000610d3c613951565b50505b505050506040513d6020811015610d5e57600080610d5b613951565b50505b810190808051159250610dae9150505760405162461bcd60e51b8152600401808060200182810382526021815260200180613dae6021913960400191505060405180910390610dab613951565b50505b631cd554d160e21b811415610e0a5760405162461bcd60e51b81526020600482015260156024820152741cd554d10818d85b89dd081899481c995b5bdd9959605a1b604482015260640160405180910390610e07613951565b50505b610e1381612d9c565b50565b6000806069610e236139bc565b906101000a90046001600160a01b03166001600160a01b03166321f8a7216c45786368616e6765526174657360981b6040516001600160e01b031960e084901b16815260048101919091526024016020604051808303818680610e84613a5d565b158015610e9957600080610e96613951565b50505b505a610ea3613aa9565b5050505050158015610ec2573d6000803e3d6000610ebf613951565b50505b505050506040513d6020811015610ee157600080610ede613951565b50505b8101908080516001600160a01b0316925063654a60ac9150849050610f0581611564565b6001600160a01b03166370a082315a63996d79a5598160e01b8152602081600483336000905af158600e01573d6000803e3d6000fd5b3d6001141558600a015760016000f35b8051925060005b6040811015610f6957600082820152602001610f52565b5050506040516001600160e01b031960e084901b1681526001600160a01b0390911660048201526024016020604051808303818680610fa6613a5d565b158015610fbb57600080610fb8613951565b50505b505a610fc5613aa9565b5050505050158015610fe4573d6000803e3d6000610fe1613951565b50505b505050506040513d602081101561100357600080611000613951565b50505b8101908080519250631cd554d160e21b915060409050516001600160e01b031960e086901b1681526004810193909352602483019190915260448201526064016020604051808303818680611056613a5d565b15801561106b57600080611068613951565b50505b505a611075613aa9565b5050505050158015611094573d6000803e3d6000611091613951565b50505b505050506040513d60208110156110b3576000806110b0613951565b50505b81019080805193505050505b919050565b600060696110d06139bc565b906101000a90046001600160a01b031681565b6000806110ee6139bc565b906101000a90046001600160a01b03166001600160a01b03165a611110613a17565b6001600160a01b0316146111625760405162461bcd60e51b815260206004820152600c60248201526b37b7363c9036b0b730b3b2b960a11b60448201526064016040518091039061115f613951565b50505b61116b81611cb5565b61117457610e13565b610e1381612f63565b6000606a6110d06139bc565b60008080606c6111976139bc565b906101000a90046001600160a01b03166001600160a01b031663b7a545265a63996d79a5598160e01b8152602081600483336000905af158600e01573d6000803e3d6000fd5b3d6001141558600a015760016000f35b8051925060005b604081101561120b576000828201526020016111f4565b5050506040516001600160e01b031960e084901b1681526001600160a01b03909116600482015260240160408051808303818680611247613a5d565b15801561125c57600080611259613951565b50505b505a611266613aa9565b5050505050158015611285573d6000803e3d6000611282613951565b50505b505050506040513d60408110156112a4576000806112a1613951565b50505b81019080805192919060200180519395509293505050509091565b6060806000606b806112cf6139bc565b9050905060608167ffffffffffffffff811180156112f5576000806112f2613951565b50505b5060405190808252806020026020018201604052801561131f578160200160208202803683370190505b50905060608267ffffffffffffffff8111801561134457600080611341613951565b50505b5060405190808252806020026020018201604052801561136e578160200160208202803683370190505b509050600080606961137e6139bc565b906101000a90046001600160a01b03166001600160a01b03166321f8a7216b53797374656d53746174757360a01b6040516001600160e01b031960e084901b168152600481019190915260240160206040518083038186806113de613a5d565b1580156113f3576000806113f0613951565b50505b505a6113fd613aa9565b505050505015801561141c573d6000803e3d6000611419613951565b50505b505050506040513d602081101561143b57600080611438613951565b50505b81019080805193506000925050505b84811015611558576000606b82816114606139bc565b811061146857fe5b9060005260206000200161147a6139bc565b90508085838151811061148957fe5b602002602001018181525050826001600160a01b03166342a28e21826040516001600160e01b031960e084901b168152600481019190915260240160006040518083038186806114d7613a5d565b1580156114ec576000806114e9613951565b50505b505a6114f6613aa9565b5050505050925050508015611509575060015b61153057600184838151811061151b57fe5b9115156020928302919091019091015261154f565b600084838151811061153e57fe5b911515602092830291909101909101525b5060010161144a565b50919450925050509091565b6000808060696115726139bc565b906101000a90046001600160a01b03166001600160a01b03166321f8a721680a6f2dce8d0cae8d2f60bb1b6040516001600160e01b031960e084901b168152600481019190915260240160206040518083038186806115cf613a5d565b1580156115e4576000806115e1613951565b50505b505a6115ee613aa9565b505050505015801561160d573d6000803e3d600061160a613951565b50505b505050506040513d602081101561162c57600080611629613951565b50505b8101908080516001600160a01b03169250633260803991508590506040516001600160e01b031960e084901b16815260048101919091526024016020604051808303818680611679613a5d565b15801561168e5760008061168b613951565b50505b505a611698613aa9565b50505050501580156116b7573d6000803e3d60006116b4613951565b50505b505050506040513d60208110156116d6576000806116d3613951565b50505b81019080805193505050506001600160a01b0381166117325760405162461bcd60e51b815260206004820152600b60248201526a696e76616c6964206b657960a81b60448201526064016040518091039061172f613951565b50505b6000816001600160a01b031663ec5568896040518163ffffffff1660e01b81526004016020604051808303818680611768613a5d565b15801561177d5760008061177a613951565b50505b505a611787613aa9565b50505050501580156117a6573d6000803e3d60006117a3613951565b50505b505050506040513d60208110156117c5576000806117c2613951565b50505b81019080805193505050506001600160a01b0381166118235760405162461bcd60e51b815260206004820152600d60248201526c696e76616c69642070726f787960981b604482015260640160405180910390611820613951565b50505b9392505050565b6000806118356139bc565b906101000a90046001600160a01b03166001600160a01b03165a611857613a17565b6001600160a01b0316146118a95760405162461bcd60e51b815260206004820152600c60248201526b37b7363c9036b0b730b3b2b960a11b6044820152606401604051809103906118a6613951565b50505b60005b81518110156118fe576118d18282815181106118c457fe5b6020026020010151611cb5565b6118da576118f6565b6118f68282815181106118e957fe5b6020026020010151612f63565b6001016118ac565b5050565b6000808061190e6139bc565b906101000a90046001600160a01b0316905090565b60008061192e6139bc565b906101000a90046001600160a01b03166001600160a01b03165a611950613a17565b6001600160a01b0316146119a25760405162461bcd60e51b815260206004820152600c60248201526b37b7363c9036b0b730b3b2b960a11b60448201526064016040518091039061199f613951565b50505b8160006001816119b06139bc565b816001600160a01b0302191690836001600160a01b03160217906119d2613b94565b5050508060019080516119e9929160200190613be2565b507f6ed15082ad038474841528b5badca105106d4463e44b5d434130dfb299aa366982826040516001600160a01b038316815260406020820181815290820183818151815260200191508051906020019080838360005b83811015611a58578082015183820152602001611a40565b50505050905090810190601f168015611a855780820380516001836020036101000a031916815260200191505b50935050505060405180910390a15050565b600080611aa26139bc565b906101000a90046001600160a01b03166001600160a01b03165a611ac4613a17565b6001600160a01b031614611b165760405162461bcd60e51b815260206004820152600c60248201526b37b7363c9036b0b730b3b2b960a11b604482015260640160405180910390611b13613951565b50505b610e13816130d6565b606d60205280600052604060002060009150611b396139bc565b906101000a900460ff1681565b600080611b516139bc565b906101000a90046001600160a01b03166001600160a01b03165a611b73613a17565b6001600160a01b031614611bc55760405162461bcd60e51b815260206004820152600c60248201526b37b7363c9036b0b730b3b2b960a11b604482015260640160405180910390611bc2613951565b50505b60005b81518110156118fe57611be08282815181106118c457fe5b15611bea57611c06565b611c06828281518110611bf957fe5b60200260200101516133b8565b600101611bc8565b6000606b80611c1b6139bc565b91505090565b6060600280611c2e6139bc565b806020026020016040519081016040528181529190602083018280611c516139bc565b8015611c9e57602002820191906000526020600020905b600082611c736139bc565b906101000a90046001600160a01b03166001600160a01b031681526020019060010190808311611c68575b5050505050905090565b6000600280611c1b6139bc565b6001600160a01b0381166000908152600360205260408120611cd56139bc565b151592915050565b6000606c6110d06139bc565b606b8181611cf56139bc565b8110611cfd57fe5b906000526020600020019050611d116139bc565b81565b600080611d1f6139bc565b906101000a90046001600160a01b03166001600160a01b03165a611d41613a17565b6001600160a01b031614611d935760405162461bcd60e51b815260206004820152600c60248201526b37b7363c9036b0b730b3b2b960a11b604482015260640160405180910390611d90613951565b50505b611d9c81611cb5565b15611da657610e13565b610e13816133b8565b600080611dba6139bc565b906101000a90046001600160a01b03166001600160a01b03165a611ddc613a17565b6001600160a01b031614611e2e5760405162461bcd60e51b815260206004820152600c60248201526b37b7363c9036b0b730b3b2b960a11b604482015260640160405180910390611e2b613951565b50505b610e138161344a565b6000818152606e60205260408120611cd56139bc565b606e6020528060005260406000209050611d116139bc565b6060606b80611e726139bc565b806020026020016040519081016040528181529190602083018280611e956139bc565b8015611c9e57602002820191906000526020600020905b81611eb56139bc565b81526020019060010190808311611eac575050505050905090565b600080806069611ede6139bc565b906101000a90046001600160a01b03166001600160a01b03166321f8a721680a6f2dce8d0cae8d2f60bb1b6040516001600160e01b031960e084901b16815260048101919091526024016020604051808303818680611f3b613a5d565b158015611f5057600080611f4d613951565b50505b505a611f5a613aa9565b5050505050158015611f79573d6000803e3d6000611f76613951565b50505b505050506040513d6020811015611f9857600080611f95613951565b50505b8101908080516001600160a01b03169250633260803991508590506040516001600160e01b031960e084901b16815260048101919091526024016020604051808303818680611fe5613a5d565b158015611ffa57600080611ff7613951565b50505b505a612004613aa9565b5050505050158015612023573d6000803e3d6000612020613951565b50505b505050506040513d60208110156120425760008061203f613951565b50505b81019080805193505050506001600160a01b0381166120655760009150506110bf565b6000816001600160a01b031663ec5568896040518163ffffffff1660e01b8152600401602060405180830381868061209b613a5d565b1580156120b0576000806120ad613951565b50505b505a6120ba613aa9565b50505050501580156120d9573d6000803e3d60006120d6613951565b50505b505050506040513d60208110156120f8576000806120f5613951565b50505b81019080805193505050506001600160a01b03811661211c576000925050506110bf565b5060019392505050565b600160366121326139bc565b906101000a900460ff168061214a575061214a61374c565b8061216857506000603661215c6139bc565b906101000a900460ff16155b6121ac5760405162461bcd60e51b815260040180806020018281038252602e815260200180613df1602e9139604001915050604051809103906121a9613951565b50505b6000600160366121ba6139bc565b906101000a900460ff1615905080156122215760016036610100816121dd6139bc565b8160ff021916908315150217906121f2613b94565b5050506001603660006101000a816122086139bc565b8160ff0219169083151502179061221d613b94565b5050505b61222b85856137bd565b85606c6001816122396139bc565b816001600160a01b0302191690836001600160a01b031602179061225b613b94565b50505082606960006101000a816122706139bc565b816001600160a01b0302191690836001600160a01b0316021790612292613b94565b50505082606a60006101000a816122a76139bc565b816001600160a01b0302191690836001600160a01b03160217906122c9613b94565b5050506122dc631cd554d160e21b6130d6565b60005b82518160ff1610156123125761230a838260ff16815181106122fd57fe5b60200260200101516130d6565b6001016122df565b50631cd554d160e21b6000908152606d602052600190604090206001816123376139bc565b8160ff0219169083151502179061234c613b94565b505050801561237e5760006036610100816123656139bc565b8160ff0219169083151502179061237a613b94565b5050505b505050505050565b6000806123916139bc565b906101000a90046001600160a01b03166001600160a01b03165a6123b3613a17565b6001600160a01b0316146124055760405162461bcd60e51b815260206004820152600c60248201526b37b7363c9036b0b730b3b2b960a11b604482015260640160405180910390612402613951565b50505b61240e83611e37565b6124675760405162461bcd60e51b815260206004820152601b60248201527f756e737570706f7274656420736f757263652063757272656e63790000000000604482015260640160405180910390612464613951565b50505b61247081611e37565b6124c95760405162461bcd60e51b815260206004820181905260248201527f756e737570706f727465642064657374696e6174696f6e2063757272656e63796044820152606401604051809103906124c6613951565b50505b60008060696124d66139bc565b906101000a90046001600160a01b03166001600160a01b03166321f8a721680a6f2dce8d0cae8d2f60bb1b6040516001600160e01b031960e084901b16815260048101919091526024016020604051808303818680612533613a5d565b15801561254857600080612545613951565b50505b505a612552613aa9565b5050505050158015612571573d6000803e3d600061256e613951565b50505b505050506040513d60208110156125905760008061258d613951565b50505b810190808051935060009250506001600160a01b03831690506330ead76086868685606c6125bc6139bc565b906101000a90046001600160a01b03166001600160a01b0316631d68702d6040518163ffffffff1660e01b815260040160206040518083038186806125ff613a5d565b15801561261457600080612611613951565b50505b505a61261e613aa9565b505050505015801561263d573d6000803e3d600061263a613951565b50505b505050506040513d602081101561265c57600080612659613951565b50505b810190808051925060009150606c90506126746139bc565b906101000a90046001600160a01b03166001600160a01b03166349f7c02d6040518163ffffffff1660e01b815260040160206040518083038186806126b7613a5d565b1580156126cc576000806126c9613951565b50505b505a6126d6613aa9565b50505050501580156126f5573d6000803e3d60006126f2613951565b50505b505050506040513d602081101561271457600080612711613951565b50505b81019080805192506040915050516001600160e01b031960e088901b1681526004810195909552602485019390935260448401919091526001600160a01b03166064830152608482015260a40160206040518083038160008780612776613a5d565b15801561278b57600080612788613951565b50505b505a612795613c82565b5050505050501580156127b5573d6000803e3d60006127b2613951565b50505b505050506040513d60208110156127d4576000806127d1613951565b50505b81019080805193507f2f3156bec1dba8438caa2579a04e750d9ca242f1c16d87594c77efdbede59bbe925050505a63996d79a5598160e01b8152602081600483336000905af158600e01573d6000803e3d6000fd5b3d6001141558600a015760016000f35b8051925060005b604081101561285757600082820152602001612840565b505050612862611902565b878787865a61286f613d48565b6040516001600160a01b0397881681529590961660208601526040808601949094526060850192909252608084015260a083015260c082019290925260e001905180910390a15050505050565b60608060606000606b806128ce6139bc565b9050905060608167ffffffffffffffff811180156128f4576000806128f1613951565b50505b5060405190808252806020026020018201604052801561291e578160200160208202803683370190505b50905060608267ffffffffffffffff8111801561294357600080612940613951565b50505b5060405190808252806020026020018201604052801561296d578160200160208202803683370190505b50905060608367ffffffffffffffff811180156129925760008061298f613951565b50505b506040519080825280602002602001820160405280156129bc578160200160208202803683370190505b50905060008060696129cc6139bc565b906101000a90046001600160a01b03166001600160a01b03166321f8a7216c45786368616e6765526174657360981b6040516001600160e01b031960e084901b16815260048101919091526024016020604051808303818680612a2d613a5d565b158015612a4257600080612a3f613951565b50505b505a612a4c613aa9565b5050505050158015612a6b573d6000803e3d6000612a68613951565b50505b505050506040513d6020811015612a8a57600080612a87613951565b50505b81019080805193506000925050505b85811015612cda576000606b8281612aaf6139bc565b8110612ab757fe5b90600052602060002001612ac96139bc565b9050612ad481611564565b6001600160a01b03166370a082315a63996d79a5598160e01b8152602081600483336000905af158600e01573d6000803e3d6000fd5b3d6001141558600a015760016000f35b8051925060005b6040811015612b3857600082820152602001612b21565b5050506040516001600160e01b031960e084901b1681526001600160a01b0390911660048201526024016020604051808303818680612b75613a5d565b158015612b8a57600080612b87613951565b50505b505a612b94613aa9565b5050505050158015612bb3573d6000803e3d6000612bb0613951565b50505b505050506040513d6020811015612bd257600080612bcf613951565b50505b810190808051925087915084905081518110612bea57fe5b60200260200101818152505080868381518110612c0357fe5b602002602001018181525050826001600160a01b031663ac82f608826040516001600160e01b031960e084901b16815260048101919091526024016020604051808303818680612c51613a5d565b158015612c6657600080612c63613951565b50505b505a612c70613aa9565b5050505050158015612c8f573d6000803e3d6000612c8c613951565b50505b505050506040513d6020811015612cae57600080612cab613951565b50505b810190808051925086915084905081518110612cc657fe5b602090810291909101015250600101612a99565b509297919650945092505050565b6060600180612cf56139bc565b600181600116156101000203166002900480601f016020809104026020016040519081016040528181529190602083018280612d2f6139bc565b60018160011615610100020316600290048015611c9e5780601f10612d69576101008083612d5b6139bc565b040283529160200191611c9e565b820191906000526020600020905b81612d806139bc565b81529060010190602001808311612d7757509395945050505050565b6000606b80612da96139bc565b6000848152606e6020529092509050612dcf600160408320612dc96139bc565b90613809565b90506000606b612de0846001613809565b81612de96139bc565b8110612df157fe5b90600052602060002001612e036139bc565b905080606b8381612e126139bc565b8110612e1a57fe5b906000526020600020018190612e2e613b94565b50612e3e91508390506001613852565b6000828152606e602052604090208190612e56613b94565b5050506000848152606e602052604081208190612e71613b94565b505050606b80612e7f6139bc565b80612e8657fe5b60019003818190600052602060002001600090612ea1613b94565b505090612eac613b94565b50507f241d622959843ef6d15b4517709d11e054e1c06a2733f7773837c3d2377d8a895a63996d79a5598160e01b8152602081600483336000905af158600e01573d6000803e3d6000fd5b3d6001141558600a015760016000f35b8051925060005b6040811015612f2557600082820152602001612f0e565b505050612f30611902565b866040516001600160a01b039384168152919092166020820152604080820192909252606001905180910390a150505050565b6000600280612f706139bc565b6001600160a01b038416600090815260036020529092509050612f9a600160408320612dc96139bc565b905060006002612fab846001613809565b81612fb46139bc565b8110612fbc57fe5b90600052602060002001600090612fd16139bc565b906101000a90046001600160a01b031690508060028381612ff06139bc565b8110612ff857fe5b9060005260206000200160018161300d6139bc565b816001600160a01b0302191690836001600160a01b031602179061302f613b94565b5061303f91508390506001613852565b6001600160a01b03821660009081526003602052604090208190613061613b94565b5050506001600160a01b03841660009081526003602052604081208190613086613b94565b5050506002806130946139bc565b8061309b57fe5b600190038181906000526020600020016001816130b66139bc565b906001600160a01b03021916906130cb613b94565b50509061237e613b94565b6000606c6130e26139bc565b906101000a90046001600160a01b03166001600160a01b031663aa12ae4d6040518163ffffffff1660e01b81526004016020604051808303818680613125613a5d565b15801561313a57600080613137613951565b50505b505a613144613aa9565b5050505050158015613163573d6000803e3d6000613160613951565b50505b505050506040513d60208110156131825760008061317f613951565b50505b8101908080519250606b91508190506131996139bc565b9050106131ee5760405162461bcd60e51b81526020600482015260166024820152751b585e1a5b5d5b48185cdcd95d1cc81c995858da195960521b6044820152606401604051809103906131eb613951565b50505b6131f781611e37565b156132515760405162461bcd60e51b815260206004820152601760248201527f617373657420616c726561647920737570706f7274656400000000000000000060448201526064016040518091039061324e613951565b50505b61325a81611ed0565b15156001146132a75760405162461bcd60e51b815260206004820152600c60248201526b1b9bdd08185b88185cdcd95d60a21b6044820152606401604051809103906132a4613951565b50505b80606b806001816132b66139bc565b0180826132c1613b94565b5050600092835260001901916020915020016132db613b94565b5050606b806132e86139bc565b6000838152606e602052909150604090208190613303613b94565b5050507f4c719ca79dbb56150643ac79f2fbfa02370838ed0d116fc28b9703f5a071c4e25a63996d79a5598160e01b8152602081600483336000905af158600e01573d6000803e3d6000fd5b3d6001141558600a015760016000f35b8051925060005b604081101561337d57600082820152602001613366565b505050613388611902565b836040516001600160a01b039384168152919092166020820152604080820192909252606001905180910390a150565b806002806001816133c76139bc565b0180826133d2613b94565b5050600092835260001901916020915020016001816133ef6139bc565b816001600160a01b0302191690836001600160a01b0316021790613411613b94565b50505060028061341f6139bc565b6001600160a01b03831660009081526003602052909150604090208190613444613b94565b50505050565b6000606c6134566139bc565b906101000a90046001600160a01b03166001600160a01b031663046b72c45a63996d79a5598160e01b8152602081600483336000905af158600e01573d6000803e3d6000fd5b3d6001141558600a015760016000f35b8051925060005b60408110156134ca576000828201526020016134b3565b505050836040516001600160e01b031960e085901b1681526001600160a01b03909216600483015260248201526044016000604051808303816000878061350f613a5d565b15801561352457600080613521613951565b50505b505a61352e613c82565b50505050505015801561354e573d6000803e3d600061354b613951565b50505b50505050600080606c6000906135626139bc565b906101000a90046001600160a01b03166001600160a01b031663b7a545265a63996d79a5598160e01b8152602081600483336000905af158600e01573d6000803e3d6000fd5b3d6001141558600a015760016000f35b8051925060005b60408110156135d6576000828201526020016135bf565b5050506040516001600160e01b031960e084901b1681526001600160a01b03909116600482015260240160408051808303818680613612613a5d565b15801561362757600080613624613951565b50505b505a613631613aa9565b5050505050158015613650573d6000803e3d600061364d613951565b50505b505050506040513d604081101561366f5760008061366c613951565b50505b81019080805192919060200180519395509293507f1780c04ddc6f0b32d866c7a3d7583f53515ef49ed2126af868f804f491601266925050505a63996d79a5598160e01b8152602081600483336000905af158600e01573d6000803e3d6000fd5b3d6001141558600a015760016000f35b8051925060005b60408110156136fe576000828201526020016136e7565b505050613709611902565b848460405180856001600160a01b03168152602001846001600160a01b0316815260200183815260200182815260200194505050505060405180910390a1505050565b6000805a63996d79a5598160e01b8152602081600483336000905af158600e01573d6000803e3d6000fd5b3d6001141558600a015760016000f35b8051925060005b60408110156137a55760008282015260200161378e565b50505090506000816137b5613a5d565b159250505090565b8160006001816137cb6139bc565b816001600160a01b0302191690836001600160a01b03160217906137ed613b94565b505050806001908051613804929160200190613be2565b505050565b6000613849838360405160408082019052601e81527f536166654d6174683a207375627472616374696f6e206f766572666c6f77000060208201526138b1565b90505b92915050565b6000828201838110156138495760405162461bcd60e51b815260206004820152601b60248201527f536166654d6174683a206164646974696f6e206f766572666c6f770000000000604482015260640160405180910390611820613951565b600081848411156139495760405162461bcd60e51b81526004018080602001828103825283818151815260200191508051906020019080838360005b838110156139055780820151838201526020016138ed565b50505050905090810190601f1680156139325780820380516001836020036101000a031916815260200191505b509250505060405180910390613946613951565b50505b505050900390565b632a2a7adb598160e01b8152600481016020815285602082015260005b8681101561398957808601518282016040015260200161396e565b506020828760640184336000905af158600e01573d6000803e3d6000fd5b3d6001141558600a015760016000f35b505050565b6303daa959598160e01b8152836004820152602081602483336000905af158600e01573d6000803e3d6000fd5b3d6001141558600a015760016000f35b8051935060005b604081101561380457600082820152602001613a00565b6373509064598160e01b8152602081600483336000905af158600e01573d6000803e3d6000fd5b3d6001141558600a015760016000f35b80516000825293506020613a00565b638435035b598160e01b8152836004820152602081602483336000905af158600e01573d6000803e3d6000fd5b3d6001141558600a015760016000f35b80516000825293506020613a00565b638540661f598160e01b8152613ada565b808083111561384c575090919050565b808083101561384c575090919050565b836004820152846024820152606060448201528660648201526084810160005b88811015613b12578088015182820152602001613afa565b506060828960a40184336000905af158600e01573d6000803e3d6000fd5b3d6001141558600a015760016000f35b815160408301513d6000853e8b8b82606087013350600060045af15059613b678d3d613aca565b8c01613b738187613aba565b5b82811015613b885760008152602001613b74565b50929c50505050505050565b6322bd64c0598160e01b8152836004820152846024820152600081604483336000905af158600e01573d6000803e3d6000fd5b3d6001141558600a015760016000f35b600081526020613a00565b8280613bec6139bc565b600181600116156101000203166002900490600052602060002090601f016020900481019282601f10613c3357805160ff19168380011785613c2c613b94565b5050613c72565b82800160010185613c42613b94565b50508215613c72579182015b82811115613c7257825182613c61613b94565b505091602001919060010190613c4e565b50613c7e929150613d8e565b5090565b6385979f76598160e01b8152836004820152846024820152606060448201528760648201526084810160005b89811015613cc6578089015182820152602001613cae565b506060828a60a40184336000905af158600e01573d6000803e3d6000fd5b3d6001141558600a015760016000f35b815160408301513d6000853e8c8c82606087013350600060045af15059613d1b8e3d613aca565b8d01613d278187613aba565b5b82811015613d3c5760008152602001613d28565b50929d50505050505050565b63bdbf8c36598160e01b8152602081600483336000905af158600e01573d6000803e3d6000fd5b3d6001141558600a015760016000f35b80516000825293506020613a00565b80821115613c7e5760008082613da2613b94565b505050600101613d8e56fe6e6f6e2d656d7074792061737365742063616e6e6f742062652072656d6f76656470657273697374656e74206173736574732063616e27742062652072656d6f766564436f6e747261637420696e7374616e63652068617320616c7265616479206265656e20696e697469616c697a6564",
  "deployedBytecode": "0x608060405234801561001957600080610016613951565b50505b50600436106101e35760003560e01c80639eab52531161010d578063d44fa33e116100ab578063eb94917d1161007a578063eb94917d146107f3578063ee52a2f314610981578063f09d14d7146109b3578063fed4416a14610a99576101e3565b8063d44fa33e14610779578063d78d7c2e1461079f578063e5406dbf146107c5578063e5ea7759146107cd576101e3565b8063c45a0155116100e7578063c45a0155146106f6578063c68dbb37146106fe578063ca6d56dc14610724578063d3cfb3b614610753576101e3565b80639eab525314610664578063a30e3fa9146106bf578063bbbf725b146106c7576101e3565b80633ded65301161018557806353d9133e1161015457806353d9133e14610537578063670797491461055d5780636f4d469b14610597578063936553c41461065c576101e3565b80633ded65301461036d57806346ee84b014610393578063481c6a75146104585780635221366314610460576101e3565b80630b1ca49a116101c15780630b1ca49a146102755780630e53b751146102a457806319805538146102ac57806321f8c984146102cc576101e3565b8063023f21de146101f15780630499123f1461021957806305a2ee2a14610251575b6000806101ee613951565b50505b610217600480360360208110156102105760008061020d613951565b50505b5035610b18565b005b61023f6004803603602081101561023857600080610235613951565b50505b5035610e16565b60405190815260200160405180910390f35b6102596110c4565b6040516001600160a01b03909116815260200160405180910390f35b6102176004803603602081101561029457600080610291613951565b50505b50356001600160a01b03166110e3565b61025961117d565b6102b4611189565b60405191825260208201526040908101905180910390f35b6102d46112bf565b604051808060200180602001838103835285818151815260200191508051906020019060200280838360005b83811015610318578082015183820152602001610300565b50505050905001838103825284818151815260200191508051906020019060200280838360005b8381101561035757808201518382015260200161033f565b5050505090500194505050505060405180910390f35b6102596004803603602081101561038c57600080610389613951565b50505b5035611564565b610217600480360360208110156103b2576000806103af613951565b50505b810190602081018135600160201b8111156103d5576000806103d2613951565b50505b8201836020820111156103f0576000806103ed613951565b50505b803590602001918460208302840111600160201b8311171561041a57600080610417613951565b50505b91908080602002602001604051908101604052809392919081815260200183836020028082843760009201919091525092955061182a945050505050565b610259611902565b6102176004803603604081101561047f5760008061047c613951565b50505b6001600160a01b038235169190810190604081016020820135600160201b8111156104b2576000806104af613951565b50505b8201836020820111156104cd576000806104ca613951565b50505b803590602001918460018302840111600160201b831117156104f7576000806104f4613951565b50505b91908080601f0160208091040260200160405190810160405281815292919060208401838380828437600092019190915250929550611923945050505050565b6102176004803603602081101561055657600080610553613951565b50505b5035611a97565b6105836004803603602081101561057c57600080610579613951565b50505b5035611b1f565b604051901515815260200160405180910390f35b610217600480360360208110156105b6576000806105b3613951565b50505b810190602081018135600160201b8111156105d9576000806105d6613951565b50505b8201836020820111156105f4576000806105f1613951565b50505b803590602001918460208302840111600160201b8311171561061e5760008061061b613951565b50505b919080806020026020016040519081016040528093929190818152602001838360200280828437600092019190915250929550611b46945050505050565b61023f611c0e565b61066c611c21565b60405160208082528190810183818151815260200191508051906020019060200280838360005b838110156106ab578082015183820152602001610693565b505050509050019250505060405180910390f35b61023f611ca8565b610583600480360360208110156106e6576000806106e3613951565b50505b50356001600160a01b0316611cb5565b610259611cdd565b61023f6004803603602081101561071d5760008061071a613951565b50505b5035611ce9565b6102176004803603602081101561074357600080610740613951565b50505b50356001600160a01b0316611d14565b610217600480360360208110156107725760008061076f613951565b50505b5035611daf565b6105836004803603602081101561079857600080610795613951565b50505b5035611e37565b61023f600480360360208110156107be576000806107bb613951565b50505b5035611e4d565b61066c611e65565b610583600480360360208110156107ec576000806107e9613951565b50505b5035611ed0565b610217600480360360a08110156108125760008061080f613951565b50505b6001600160a01b038235811692602081013590911691810190606081016040820135600160201b81111561084e5760008061084b613951565b50505b82018360208201111561086957600080610866613951565b50505b803590602001918460018302840111600160201b8311171561089357600080610890613951565b50505b91908080601f016020809104026020016040519081016040528181529291906020840183838082843760009201919091525092956001600160a01b03853516959094909350604081019250602001359050600160201b8111156108fe576000806108fb613951565b50505b82018360208201111561091957600080610916613951565b50505b803590602001918460208302840111600160201b8311171561094357600080610940613951565b50505b919080806020026020016040519081016040528093929190818152602001838360200280828437600092019190915250929550612126945050505050565b610217600480360360608110156109a05760008061099d613951565b50505b5080359060208101359060400135612386565b6109bb6128bc565b60405180806020018060200180602001848103845287818151815260200191508051906020019060200280838360005b83811015610a035780820151838201526020016109eb565b50505050905001848103835286818151815260200191508051906020019060200280838360005b83811015610a42578082015183820152602001610a2a565b50505050905001848103825285818151815260200191508051906020019060200280838360005b83811015610a81578082015183820152602001610a69565b50505050905001965050505050505060405180910390f35b610aa1612ce8565b60405160208082528190810183818151815260200191508051906020019080838360005b83811015610add578082015183820152602001610ac5565b50505050905090810190601f168015610b0a5780820380516001836020036101000a031916815260200191505b509250505060405180910390f35b600080610b236139bc565b906101000a90046001600160a01b03166001600160a01b03165a610b45613a17565b6001600160a01b031614610b975760405162461bcd60e51b815260206004820152600c60248201526b37b7363c9036b0b730b3b2b960a11b604482015260640160405180910390610b94613951565b50505b610ba081611e37565b610bef5760405162461bcd60e51b8152602060048201526013602482015272185cdcd95d081b9bdd081cdd5c1c1bdc9d1959606a1b604482015260640160405180910390610bec613951565b50505b6000818152606d60205260409020600090610c086139bc565b906101000a900460ff1615610c575760405162461bcd60e51b8152600401808060200182810382526022815260200180613dcf6022913960400191505060405180910390610c54613951565b50505b610c6081611564565b6001600160a01b03166370a082315a63996d79a5598160e01b8152602081600483336000905af158601d01573d60011458600c01573d6000803e3d621234565260ea61109c528051925060005b6040811015610cc457600082820152602001610cad565b5050506040516001600160e01b031960e084901b1681526001600160a01b0390911660048201526024016020604051808303818680610d01613a5d565b158015610d1657600080610d13613951565b50505b505a610d20613aa9565b5050505050158015610d3f573d6000803e3d6000610d3c613951565b50505b505050506040513d6020811015610d5e57600080610d5b613951565b50505b810190808051159250610dae9150505760405162461bcd60e51b8152600401808060200182810382526021815260200180613dae6021913960400191505060405180910390610dab613951565b50505b631cd554d160e21b811415610e0a5760405162461bcd60e51b81526020600482015260156024820152741cd554d10818d85b89dd081899481c995b5bdd9959605a1b604482015260640160405180910390610e07613951565b50505b610e1381612d9c565b50565b6000806069610e236139bc565b906101000a90046001600160a01b03166001600160a01b03166321f8a7216c45786368616e6765526174657360981b6040516001600160e01b031960e084901b16815260048101919091526024016020604051808303818680610e84613a5d565b158015610e9957600080610e96613951565b50505b505a610ea3613aa9565b5050505050158015610ec2573d6000803e3d6000610ebf613951565b50505b505050506040513d6020811015610ee157600080610ede613951565b50505b8101908080516001600160a01b0316925063654a60ac9150849050610f0581611564565b6001600160a01b03166370a082315a63996d79a5598160e01b8152602081600483336000905af158601d01573d60011458600c01573d6000803e3d621234565260ea61109c528051925060005b6040811015610f6957600082820152602001610f52565b5050506040516001600160e01b031960e084901b1681526001600160a01b0390911660048201526024016020604051808303818680610fa6613a5d565b158015610fbb57600080610fb8613951565b50505b505a610fc5613aa9565b5050505050158015610fe4573d6000803e3d6000610fe1613951565b50505b505050506040513d602081101561100357600080611000613951565b50505b8101908080519250631cd554d160e21b915060409050516001600160e01b031960e086901b1681526004810193909352602483019190915260448201526064016020604051808303818680611056613a5d565b15801561106b57600080611068613951565b50505b505a611075613aa9565b5050505050158015611094573d6000803e3d6000611091613951565b50505b505050506040513d60208110156110b3576000806110b0613951565b50505b81019080805193505050505b919050565b600060696110d06139bc565b906101000a90046001600160a01b031681565b6000806110ee6139bc565b906101000a90046001600160a01b03166001600160a01b03165a611110613a17565b6001600160a01b0316146111625760405162461bcd60e51b815260206004820152600c60248201526b37b7363c9036b0b730b3b2b960a11b60448201526064016040518091039061115f613951565b50505b61116b81611cb5565b61117457610e13565b610e1381612f63565b6000606a6110d06139bc565b60008080606c6111976139bc565b906101000a90046001600160a01b03166001600160a01b031663b7a545265a63996d79a5598160e01b8152602081600483336000905af158601d01573d60011458600c01573d6000803e3d621234565260ea61109c528051925060005b604081101561120b576000828201526020016111f4565b5050506040516001600160e01b031960e084901b1681526001600160a01b03909116600482015260240160408051808303818680611247613a5d565b15801561125c57600080611259613951565b50505b505a611266613aa9565b5050505050158015611285573d6000803e3d6000611282613951565b50505b505050506040513d60408110156112a4576000806112a1613951565b50505b81019080805192919060200180519395509293505050509091565b6060806000606b806112cf6139bc565b9050905060608167ffffffffffffffff811180156112f5576000806112f2613951565b50505b5060405190808252806020026020018201604052801561131f578160200160208202803683370190505b50905060608267ffffffffffffffff8111801561134457600080611341613951565b50505b5060405190808252806020026020018201604052801561136e578160200160208202803683370190505b509050600080606961137e6139bc565b906101000a90046001600160a01b03166001600160a01b03166321f8a7216b53797374656d53746174757360a01b6040516001600160e01b031960e084901b168152600481019190915260240160206040518083038186806113de613a5d565b1580156113f3576000806113f0613951565b50505b505a6113fd613aa9565b505050505015801561141c573d6000803e3d6000611419613951565b50505b505050506040513d602081101561143b57600080611438613951565b50505b81019080805193506000925050505b84811015611558576000606b82816114606139bc565b811061146857fe5b9060005260206000200161147a6139bc565b90508085838151811061148957fe5b602002602001018181525050826001600160a01b03166342a28e21826040516001600160e01b031960e084901b168152600481019190915260240160006040518083038186806114d7613a5d565b1580156114ec576000806114e9613951565b50505b505a6114f6613aa9565b5050505050925050508015611509575060015b61153057600184838151811061151b57fe5b9115156020928302919091019091015261154f565b600084838151811061153e57fe5b911515602092830291909101909101525b5060010161144a565b50919450925050509091565b6000808060696115726139bc565b906101000a90046001600160a01b03166001600160a01b03166321f8a721680a6f2dce8d0cae8d2f60bb1b6040516001600160e01b031960e084901b168152600481019190915260240160206040518083038186806115cf613a5d565b1580156115e4576000806115e1613951565b50505b505a6115ee613aa9565b505050505015801561160d573d6000803e3d600061160a613951565b50505b505050506040513d602081101561162c57600080611629613951565b50505b8101908080516001600160a01b03169250633260803991508590506040516001600160e01b031960e084901b16815260048101919091526024016020604051808303818680611679613a5d565b15801561168e5760008061168b613951565b50505b505a611698613aa9565b50505050501580156116b7573d6000803e3d60006116b4613951565b50505b505050506040513d60208110156116d6576000806116d3613951565b50505b81019080805193505050506001600160a01b0381166117325760405162461bcd60e51b815260206004820152600b60248201526a696e76616c6964206b657960a81b60448201526064016040518091039061172f613951565b50505b6000816001600160a01b031663ec5568896040518163ffffffff1660e01b81526004016020604051808303818680611768613a5d565b15801561177d5760008061177a613951565b50505b505a611787613aa9565b50505050501580156117a6573d6000803e3d60006117a3613951565b50505b505050506040513d60208110156117c5576000806117c2613951565b50505b81019080805193505050506001600160a01b0381166118235760405162461bcd60e51b815260206004820152600d60248201526c696e76616c69642070726f787960981b604482015260640160405180910390611820613951565b50505b9392505050565b6000806118356139bc565b906101000a90046001600160a01b03166001600160a01b03165a611857613a17565b6001600160a01b0316146118a95760405162461bcd60e51b815260206004820152600c60248201526b37b7363c9036b0b730b3b2b960a11b6044820152606401604051809103906118a6613951565b50505b60005b81518110156118fe576118d18282815181106118c457fe5b6020026020010151611cb5565b6118da576118f6565b6118f68282815181106118e957fe5b6020026020010151612f63565b6001016118ac565b5050565b6000808061190e6139bc565b906101000a90046001600160a01b0316905090565b60008061192e6139bc565b906101000a90046001600160a01b03166001600160a01b03165a611950613a17565b6001600160a01b0316146119a25760405162461bcd60e51b815260206004820152600c60248201526b37b7363c9036b0b730b3b2b960a11b60448201526064016040518091039061199f613951565b50505b8160006001816119b06139bc565b816001600160a01b0302191690836001600160a01b03160217906119d2613b94565b5050508060019080516119e9929160200190613be2565b507f6ed15082ad038474841528b5badca105106d4463e44b5d434130dfb299aa366982826040516001600160a01b038316815260406020820181815290820183818151815260200191508051906020019080838360005b83811015611a58578082015183820152602001611a40565b50505050905090810190601f168015611a855780820380516001836020036101000a031916815260200191505b50935050505060405180910390a15050565b600080611aa26139bc565b906101000a90046001600160a01b03166001600160a01b03165a611ac4613a17565b6001600160a01b031614611b165760405162461bcd60e51b815260206004820152600c60248201526b37b7363c9036b0b730b3b2b960a11b604482015260640160405180910390611b13613951565b50505b610e13816130d6565b606d60205280600052604060002060009150611b396139bc565b906101000a900460ff1681565b600080611b516139bc565b906101000a90046001600160a01b03166001600160a01b03165a611b73613a17565b6001600160a01b031614611bc55760405162461bcd60e51b815260206004820152600c60248201526b37b7363c9036b0b730b3b2b960a11b604482015260640160405180910390611bc2613951565b50505b60005b81518110156118fe57611be08282815181106118c457fe5b15611bea57611c06565b611c06828281518110611bf957fe5b60200260200101516133b8565b600101611bc8565b6000606b80611c1b6139bc565b91505090565b6060600280611c2e6139bc565b806020026020016040519081016040528181529190602083018280611c516139bc565b8015611c9e57602002820191906000526020600020905b600082611c736139bc565b906101000a90046001600160a01b03166001600160a01b031681526020019060010190808311611c68575b5050505050905090565b6000600280611c1b6139bc565b6001600160a01b0381166000908152600360205260408120611cd56139bc565b151592915050565b6000606c6110d06139bc565b606b8181611cf56139bc565b8110611cfd57fe5b906000526020600020019050611d116139bc565b81565b600080611d1f6139bc565b906101000a90046001600160a01b03166001600160a01b03165a611d41613a17565b6001600160a01b031614611d935760405162461bcd60e51b815260206004820152600c60248201526b37b7363c9036b0b730b3b2b960a11b604482015260640160405180910390611d90613951565b50505b611d9c81611cb5565b15611da657610e13565b610e13816133b8565b600080611dba6139bc565b906101000a90046001600160a01b03166001600160a01b03165a611ddc613a17565b6001600160a01b031614611e2e5760405162461bcd60e51b815260206004820152600c60248201526b37b7363c9036b0b730b3b2b960a11b604482015260640160405180910390611e2b613951565b50505b610e138161344a565b6000818152606e60205260408120611cd56139bc565b606e6020528060005260406000209050611d116139bc565b6060606b80611e726139bc565b806020026020016040519081016040528181529190602083018280611e956139bc565b8015611c9e57602002820191906000526020600020905b81611eb56139bc565b81526020019060010190808311611eac575050505050905090565b600080806069611ede6139bc565b906101000a90046001600160a01b03166001600160a01b03166321f8a721680a6f2dce8d0cae8d2f60bb1b6040516001600160e01b031960e084901b16815260048101919091526024016020604051808303818680611f3b613a5d565b158015611f5057600080611f4d613951565b50505b505a611f5a613aa9565b5050505050158015611f79573d6000803e3d6000611f76613951565b50505b505050506040513d6020811015611f9857600080611f95613951565b50505b8101908080516001600160a01b03169250633260803991508590506040516001600160e01b031960e084901b16815260048101919091526024016020604051808303818680611fe5613a5d565b158015611ffa57600080611ff7613951565b50505b505a612004613aa9565b5050505050158015612023573d6000803e3d6000612020613951565b50505b505050506040513d60208110156120425760008061203f613951565b50505b81019080805193505050506001600160a01b0381166120655760009150506110bf565b6000816001600160a01b031663ec5568896040518163ffffffff1660e01b8152600401602060405180830381868061209b613a5d565b1580156120b0576000806120ad613951565b50505b505a6120ba613aa9565b50505050501580156120d9573d6000803e3d60006120d6613951565b50505b505050506040513d60208110156120f8576000806120f5613951565b50505b81019080805193505050506001600160a01b03811661211c576000925050506110bf565b5060019392505050565b600160366121326139bc565b906101000a900460ff168061214a575061214a61374c565b8061216857506000603661215c6139bc565b906101000a900460ff16155b6121ac5760405162461bcd60e51b815260040180806020018281038252602e815260200180613df1602e9139604001915050604051809103906121a9613951565b50505b6000600160366121ba6139bc565b906101000a900460ff1615905080156122215760016036610100816121dd6139bc565b8160ff021916908315150217906121f2613b94565b5050506001603660006101000a816122086139bc565b8160ff0219169083151502179061221d613b94565b5050505b61222b85856137bd565b85606c6001816122396139bc565b816001600160a01b0302191690836001600160a01b031602179061225b613b94565b50505082606960006101000a816122706139bc565b816001600160a01b0302191690836001600160a01b0316021790612292613b94565b50505082606a60006101000a816122a76139bc565b816001600160a01b0302191690836001600160a01b03160217906122c9613b94565b5050506122dc631cd554d160e21b6130d6565b60005b82518160ff1610156123125761230a838260ff16815181106122fd57fe5b60200260200101516130d6565b6001016122df565b50631cd554d160e21b6000908152606d602052600190604090206001816123376139bc565b8160ff0219169083151502179061234c613b94565b505050801561237e5760006036610100816123656139bc565b8160ff0219169083151502179061237a613b94565b5050505b505050505050565b6000806123916139bc565b906101000a90046001600160a01b03166001600160a01b03165a6123b3613a17565b6001600160a01b0316146124055760405162461bcd60e51b815260206004820152600c60248201526b37b7363c9036b0b730b3b2b960a11b604482015260640160405180910390612402613951565b50505b61240e83611e37565b6124675760405162461bcd60e51b815260206004820152601b60248201527f756e737570706f7274656420736f757263652063757272656e63790000000000604482015260640160405180910390612464613951565b50505b61247081611e37565b6124c95760405162461bcd60e51b815260206004820181905260248201527f756e737570706f727465642064657374696e6174696f6e2063757272656e63796044820152606401604051809103906124c6613951565b50505b60008060696124d66139bc565b906101000a90046001600160a01b03166001600160a01b03166321f8a721680a6f2dce8d0cae8d2f60bb1b6040516001600160e01b031960e084901b16815260048101919091526024016020604051808303818680612533613a5d565b15801561254857600080612545613951565b50505b505a612552613aa9565b5050505050158015612571573d6000803e3d600061256e613951565b50505b505050506040513d60208110156125905760008061258d613951565b50505b810190808051935060009250506001600160a01b03831690506330ead76086868685606c6125bc6139bc565b906101000a90046001600160a01b03166001600160a01b0316631d68702d6040518163ffffffff1660e01b815260040160206040518083038186806125ff613a5d565b15801561261457600080612611613951565b50505b505a61261e613aa9565b505050505015801561263d573d6000803e3d600061263a613951565b50505b505050506040513d602081101561265c57600080612659613951565b50505b810190808051925060009150606c90506126746139bc565b906101000a90046001600160a01b03166001600160a01b03166349f7c02d6040518163ffffffff1660e01b815260040160206040518083038186806126b7613a5d565b1580156126cc576000806126c9613951565b50505b505a6126d6613aa9565b50505050501580156126f5573d6000803e3d60006126f2613951565b50505b505050506040513d602081101561271457600080612711613951565b50505b81019080805192506040915050516001600160e01b031960e088901b1681526004810195909552602485019390935260448401919091526001600160a01b03166064830152608482015260a40160206040518083038160008780612776613a5d565b15801561278b57600080612788613951565b50505b505a612795613c82565b5050505050501580156127b5573d6000803e3d60006127b2613951565b50505b505050506040513d60208110156127d4576000806127d1613951565b50505b81019080805193507f2f3156bec1dba8438caa2579a04e750d9ca242f1c16d87594c77efdbede59bbe925050505a63996d79a5598160e01b8152602081600483336000905af158601d01573d60011458600c01573d6000803e3d621234565260ea61109c528051925060005b604081101561285757600082820152602001612840565b505050612862611902565b878787865a61286f613d48565b6040516001600160a01b0397881681529590961660208601526040808601949094526060850192909252608084015260a083015260c082019290925260e001905180910390a15050505050565b60608060606000606b806128ce6139bc565b9050905060608167ffffffffffffffff811180156128f4576000806128f1613951565b50505b5060405190808252806020026020018201604052801561291e578160200160208202803683370190505b50905060608267ffffffffffffffff8111801561294357600080612940613951565b50505b5060405190808252806020026020018201604052801561296d578160200160208202803683370190505b50905060608367ffffffffffffffff811180156129925760008061298f613951565b50505b506040519080825280602002602001820160405280156129bc578160200160208202803683370190505b50905060008060696129cc6139bc565b906101000a90046001600160a01b03166001600160a01b03166321f8a7216c45786368616e6765526174657360981b6040516001600160e01b031960e084901b16815260048101919091526024016020604051808303818680612a2d613a5d565b158015612a4257600080612a3f613951565b50505b505a612a4c613aa9565b5050505050158015612a6b573d6000803e3d6000612a68613951565b50505b505050506040513d6020811015612a8a57600080612a87613951565b50505b81019080805193506000925050505b85811015612cda576000606b8281612aaf6139bc565b8110612ab757fe5b90600052602060002001612ac96139bc565b9050612ad481611564565b6001600160a01b03166370a082315a63996d79a5598160e01b8152602081600483336000905af158601d01573d60011458600c01573d6000803e3d621234565260ea61109c528051925060005b6040811015612b3857600082820152602001612b21565b5050506040516001600160e01b031960e084901b1681526001600160a01b0390911660048201526024016020604051808303818680612b75613a5d565b158015612b8a57600080612b87613951565b50505b505a612b94613aa9565b5050505050158015612bb3573d6000803e3d6000612bb0613951565b50505b505050506040513d6020811015612bd257600080612bcf613951565b50505b810190808051925087915084905081518110612bea57fe5b60200260200101818152505080868381518110612c0357fe5b602002602001018181525050826001600160a01b031663ac82f608826040516001600160e01b031960e084901b16815260048101919091526024016020604051808303818680612c51613a5d565b158015612c6657600080612c63613951565b50505b505a612c70613aa9565b5050505050158015612c8f573d6000803e3d6000612c8c613951565b50505b505050506040513d6020811015612cae57600080612cab613951565b50505b810190808051925086915084905081518110612cc657fe5b602090810291909101015250600101612a99565b509297919650945092505050565b6060600180612cf56139bc565b600181600116156101000203166002900480601f016020809104026020016040519081016040528181529190602083018280612d2f6139bc565b60018160011615610100020316600290048015611c9e5780601f10612d69576101008083612d5b6139bc565b040283529160200191611c9e565b820191906000526020600020905b81612d806139bc565b81529060010190602001808311612d7757509395945050505050565b6000606b80612da96139bc565b6000848152606e6020529092509050612dcf600160408320612dc96139bc565b90613809565b90506000606b612de0846001613809565b81612de96139bc565b8110612df157fe5b90600052602060002001612e036139bc565b905080606b8381612e126139bc565b8110612e1a57fe5b906000526020600020018190612e2e613b94565b50612e3e91508390506001613852565b6000828152606e602052604090208190612e56613b94565b5050506000848152606e602052604081208190612e71613b94565b505050606b80612e7f6139bc565b80612e8657fe5b60019003818190600052602060002001600090612ea1613b94565b505090612eac613b94565b50507f241d622959843ef6d15b4517709d11e054e1c06a2733f7773837c3d2377d8a895a63996d79a5598160e01b8152602081600483336000905af158601d01573d60011458600c01573d6000803e3d621234565260ea61109c528051925060005b6040811015612f2557600082820152602001612f0e565b505050612f30611902565b866040516001600160a01b039384168152919092166020820152604080820192909252606001905180910390a150505050565b6000600280612f706139bc565b6001600160a01b038416600090815260036020529092509050612f9a600160408320612dc96139bc565b905060006002612fab846001613809565b81612fb46139bc565b8110612fbc57fe5b90600052602060002001600090612fd16139bc565b906101000a90046001600160a01b031690508060028381612ff06139bc565b8110612ff857fe5b9060005260206000200160018161300d6139bc565b816001600160a01b0302191690836001600160a01b031602179061302f613b94565b5061303f91508390506001613852565b6001600160a01b03821660009081526003602052604090208190613061613b94565b5050506001600160a01b03841660009081526003602052604081208190613086613b94565b5050506002806130946139bc565b8061309b57fe5b600190038181906000526020600020016001816130b66139bc565b906001600160a01b03021916906130cb613b94565b50509061237e613b94565b6000606c6130e26139bc565b906101000a90046001600160a01b03166001600160a01b031663aa12ae4d6040518163ffffffff1660e01b81526004016020604051808303818680613125613a5d565b15801561313a57600080613137613951565b50505b505a613144613aa9565b5050505050158015613163573d6000803e3d6000613160613951565b50505b505050506040513d60208110156131825760008061317f613951565b50505b8101908080519250606b91508190506131996139bc565b9050106131ee5760405162461bcd60e51b81526020600482015260166024820152751b585e1a5b5d5b48185cdcd95d1cc81c995858da195960521b6044820152606401604051809103906131eb613951565b50505b6131f781611e37565b156132515760405162461bcd60e51b815260206004820152601760248201527f617373657420616c726561647920737570706f7274656400000000000000000060448201526064016040518091039061324e613951565b50505b61325a81611ed0565b15156001146132a75760405162461bcd60e51b815260206004820152600c60248201526b1b9bdd08185b88185cdcd95d60a21b6044820152606401604051809103906132a4613951565b50505b80606b806001816132b66139bc565b0180826132c1613b94565b5050600092835260001901916020915020016132db613b94565b5050606b806132e86139bc565b6000838152606e602052909150604090208190613303613b94565b5050507f4c719ca79dbb56150643ac79f2fbfa02370838ed0d116fc28b9703f5a071c4e25a63996d79a5598160e01b8152602081600483336000905af158601d01573d60011458600c01573d6000803e3d621234565260ea61109c528051925060005b604081101561337d57600082820152602001613366565b505050613388611902565b836040516001600160a01b039384168152919092166020820152604080820192909252606001905180910390a150565b806002806001816133c76139bc565b0180826133d2613b94565b5050600092835260001901916020915020016001816133ef6139bc565b816001600160a01b0302191690836001600160a01b0316021790613411613b94565b50505060028061341f6139bc565b6001600160a01b03831660009081526003602052909150604090208190613444613b94565b50505050565b6000606c6134566139bc565b906101000a90046001600160a01b03166001600160a01b031663046b72c45a63996d79a5598160e01b8152602081600483336000905af158601d01573d60011458600c01573d6000803e3d621234565260ea61109c528051925060005b60408110156134ca576000828201526020016134b3565b505050836040516001600160e01b031960e085901b1681526001600160a01b03909216600483015260248201526044016000604051808303816000878061350f613a5d565b15801561352457600080613521613951565b50505b505a61352e613c82565b50505050505015801561354e573d6000803e3d600061354b613951565b50505b50505050600080606c6000906135626139bc565b906101000a90046001600160a01b03166001600160a01b031663b7a545265a63996d79a5598160e01b8152602081600483336000905af158601d01573d60011458600c01573d6000803e3d621234565260ea61109c528051925060005b60408110156135d6576000828201526020016135bf565b5050506040516001600160e01b031960e084901b1681526001600160a01b03909116600482015260240160408051808303818680613612613a5d565b15801561362757600080613624613951565b50505b505a613631613aa9565b5050505050158015613650573d6000803e3d600061364d613951565b50505b505050506040513d604081101561366f5760008061366c613951565b50505b81019080805192919060200180519395509293507f1780c04ddc6f0b32d866c7a3d7583f53515ef49ed2126af868f804f491601266925050505a63996d79a5598160e01b8152602081600483336000905af158601d01573d60011458600c01573d6000803e3d621234565260ea61109c528051925060005b60408110156136fe576000828201526020016136e7565b505050613709611902565b848460405180856001600160a01b03168152602001846001600160a01b0316815260200183815260200182815260200194505050505060405180910390a1505050565b6000805a63996d79a5598160e01b8152602081600483336000905af158601d01573d60011458600c01573d6000803e3d621234565260ea61109c528051925060005b60408110156137a55760008282015260200161378e565b50505090506000816137b5613a5d565b159250505090565b8160006001816137cb6139bc565b816001600160a01b0302191690836001600160a01b03160217906137ed613b94565b505050806001908051613804929160200190613be2565b505050565b6000613849838360405160408082019052601e81527f536166654d6174683a207375627472616374696f6e206f766572666c6f77000060208201526138b1565b90505b92915050565b6000828201838110156138495760405162461bcd60e51b815260206004820152601b60248201527f536166654d6174683a206164646974696f6e206f766572666c6f770000000000604482015260640160405180910390611820613951565b600081848411156139495760405162461bcd60e51b81526004018080602001828103825283818151815260200191508051906020019080838360005b838110156139055780820151838201526020016138ed565b50505050905090810190601f1680156139325780820380516001836020036101000a031916815260200191505b509250505060405180910390613946613951565b50505b505050900390565b632a2a7adb598160e01b8152600481016020815285602082015260005b8681101561398957808601518282016040015260200161396e565b506020828760640184336000905af158601d01573d60011458600c01573d6000803e3d621234565260ea61109c52505050565b6303daa959598160e01b8152836004820152602081602483336000905af158601d01573d60011458600c01573d6000803e3d621234565260ea61109c528051935060005b604081101561380457600082820152602001613a00565b6373509064598160e01b8152602081600483336000905af158601d01573d60011458600c01573d6000803e3d621234565260ea61109c5280516000825293506020613a00565b638435035b598160e01b8152836004820152602081602483336000905af158601d01573d60011458600c01573d6000803e3d621234565260ea61109c5280516000825293506020613a00565b638540661f598160e01b8152613ada565b808083111561384c575090919050565b808083101561384c575090919050565b836004820152846024820152606060448201528660648201526084810160005b88811015613b12578088015182820152602001613afa565b506060828960a40184336000905af158601d01573d60011458600c01573d6000803e3d621234565260ea61109c52815160408301513d6000853e8b8b82606087013350600060045af15059613b678d3d613aca565b8c01613b738187613aba565b5b82811015613b885760008152602001613b74565b50929c50505050505050565b6322bd64c0598160e01b8152836004820152846024820152600081604483336000905af158601d01573d60011458600c01573d6000803e3d621234565260ea61109c52600081526020613a00565b8280613bec6139bc565b600181600116156101000203166002900490600052602060002090601f016020900481019282601f10613c3357805160ff19168380011785613c2c613b94565b5050613c72565b82800160010185613c42613b94565b50508215613c72579182015b82811115613c7257825182613c61613b94565b505091602001919060010190613c4e565b50613c7e929150613d8e565b5090565b6385979f76598160e01b8152836004820152846024820152606060448201528760648201526084810160005b89811015613cc6578089015182820152602001613cae565b506060828a60a40184336000905af158601d01573d60011458600c01573d6000803e3d621234565260ea61109c52815160408301513d6000853e8c8c82606087013350600060045af15059613d1b8e3d613aca565b8d01613d278187613aba565b5b82811015613d3c5760008152602001613d28565b50929d50505050505050565b63bdbf8c36598160e01b8152602081600483336000905af158601d01573d60011458600c01573d6000803e3d621234565260ea61109c5280516000825293506020613a00565b80821115613c7e5760008082613da2613b94565b505050600101613d8e56fe6e6f6e2d656d7074792061737365742063616e6e6f742062652072656d6f76656470657273697374656e74206173736574732063616e27742062652072656d6f766564436f6e747261637420696e7374616e63652068617320616c7265616479206265656e20696e697469616c697a6564",
  "linkReferences": {},
  "deployedLinkReferences": {}
}