{
  "_format": "hh-sol-artifact-1",
  "contractName": "PoolManagerLogic",
  "sourceName": "contracts/PoolManagerLogic.sol",
  "abi": [
    {
      "anonymous": false,
      "inputs": [
        {
          "indexed": false,
          "internalType": "address",
          "name": "fundAddress",
          "type": "address"
        },
        {
          "indexed": false,
          "internalType": "address",
          "name": "manager",
          "type": "address"
        },
        {
          "indexed": false,
          "internalType": "bytes32",
          "name": "assetKey",
          "type": "bytes32"
        }
      ],
      "name": "AssetAdded",
      "type": "event"
    },
    {
      "anonymous": false,
      "inputs": [
        {
          "indexed": false,
          "internalType": "address",
          "name": "fundAddress",
          "type": "address"
        },
        {
          "indexed": false,
          "internalType": "address",
          "name": "manager",
          "type": "address"
        },
        {
          "indexed": false,
          "internalType": "bytes32",
          "name": "assetKey",
          "type": "bytes32"
        }
      ],
      "name": "AssetRemoved",
      "type": "event"
    },
    {
      "anonymous": false,
      "inputs": [
        {
          "indexed": false,
          "internalType": "address",
          "name": "fundAddress",
          "type": "address"
        },
        {
          "indexed": false,
          "internalType": "address",
          "name": "manager",
          "type": "address"
        },
        {
          "indexed": false,
          "internalType": "bytes32",
          "name": "sourceKey",
          "type": "bytes32"
        },
        {
          "indexed": false,
          "internalType": "uint256",
          "name": "sourceAmount",
          "type": "uint256"
        },
        {
          "indexed": false,
          "internalType": "bytes32",
          "name": "destinationKey",
          "type": "bytes32"
        },
        {
          "indexed": false,
          "internalType": "uint256",
          "name": "destinationAmount",
          "type": "uint256"
        },
        {
          "indexed": false,
          "internalType": "uint256",
          "name": "time",
          "type": "uint256"
        }
      ],
      "name": "Exchange",
      "type": "event"
    },
    {
      "anonymous": false,
      "inputs": [
        {
          "indexed": false,
          "internalType": "uint256",
          "name": "newNumerator",
          "type": "uint256"
        },
        {
          "indexed": false,
          "internalType": "uint256",
          "name": "announcedFeeActivationTime",
          "type": "uint256"
        }
      ],
      "name": "ManagerFeeIncreaseAnnounced",
      "type": "event"
    },
    {
      "anonymous": false,
      "inputs": [],
      "name": "ManagerFeeIncreaseRenounced",
      "type": "event"
    },
    {
      "anonymous": false,
      "inputs": [
        {
          "indexed": false,
          "internalType": "address",
          "name": "fundAddress",
          "type": "address"
        },
        {
          "indexed": false,
          "internalType": "address",
          "name": "manager",
          "type": "address"
        },
        {
          "indexed": false,
          "internalType": "uint256",
          "name": "numerator",
          "type": "uint256"
        },
        {
          "indexed": false,
          "internalType": "uint256",
          "name": "denominator",
          "type": "uint256"
        }
      ],
      "name": "ManagerFeeSet",
      "type": "event"
    },
    {
      "anonymous": false,
      "inputs": [
        {
          "indexed": false,
          "internalType": "address",
          "name": "newManager",
          "type": "address"
        },
        {
          "indexed": false,
          "internalType": "string",
          "name": "newManagerName",
          "type": "string"
        }
      ],
      "name": "ManagerUpdated",
      "type": "event"
    },
    {
      "inputs": [
        {
          "internalType": "address",
          "name": "member",
          "type": "address"
        }
      ],
      "name": "addMember",
      "outputs": [],
      "stateMutability": "nonpayable",
      "type": "function"
    },
    {
      "inputs": [
        {
          "internalType": "address[]",
          "name": "members",
          "type": "address[]"
        }
      ],
      "name": "addMembers",
      "outputs": [],
      "stateMutability": "nonpayable",
      "type": "function"
    },
    {
      "inputs": [
        {
          "internalType": "bytes32",
          "name": "key",
          "type": "bytes32"
        }
      ],
      "name": "addToSupportedAssets",
      "outputs": [],
      "stateMutability": "nonpayable",
      "type": "function"
    },
    {
      "inputs": [],
      "name": "addressResolver",
      "outputs": [
        {
          "internalType": "contract IAddressResolver",
          "name": "",
          "type": "address"
        }
      ],
      "stateMutability": "view",
      "type": "function"
    },
    {
      "inputs": [
        {
          "internalType": "address",
          "name": "pool",
          "type": "address"
        },
        {
          "internalType": "uint256",
          "name": "numerator",
          "type": "uint256"
        }
      ],
      "name": "announceManagerFeeIncrease",
      "outputs": [],
      "stateMutability": "nonpayable",
      "type": "function"
    },
    {
      "inputs": [],
      "name": "announcedFeeIncreaseNumerator",
      "outputs": [
        {
          "internalType": "uint256",
          "name": "",
          "type": "uint256"
        }
      ],
      "stateMutability": "view",
      "type": "function"
    },
    {
      "inputs": [],
      "name": "announcedFeeIncreaseTimestamp",
      "outputs": [
        {
          "internalType": "uint256",
          "name": "",
          "type": "uint256"
        }
      ],
      "stateMutability": "view",
      "type": "function"
    },
    {
      "inputs": [
        {
          "internalType": "bytes32",
          "name": "",
          "type": "bytes32"
        }
      ],
      "name": "assetPosition",
      "outputs": [
        {
          "internalType": "uint256",
          "name": "",
          "type": "uint256"
        }
      ],
      "stateMutability": "view",
      "type": "function"
    },
    {
      "inputs": [
        {
          "internalType": "bytes32",
          "name": "key",
          "type": "bytes32"
        }
      ],
      "name": "assetValue",
      "outputs": [
        {
          "internalType": "uint256",
          "name": "",
          "type": "uint256"
        }
      ],
      "stateMutability": "view",
      "type": "function"
    },
    {
      "inputs": [
        {
          "internalType": "address",
          "name": "newManager",
          "type": "address"
        },
        {
          "internalType": "string",
          "name": "newManagerName",
          "type": "string"
        }
      ],
      "name": "changeManager",
      "outputs": [],
      "stateMutability": "nonpayable",
      "type": "function"
    },
    {
      "inputs": [
        {
          "internalType": "address",
          "name": "pool",
          "type": "address"
        }
      ],
      "name": "commitManagerFeeIncrease",
      "outputs": [],
      "stateMutability": "nonpayable",
      "type": "function"
    },
    {
      "inputs": [
        {
          "internalType": "bytes32",
          "name": "sourceKey",
          "type": "bytes32"
        },
        {
          "internalType": "uint256",
          "name": "sourceAmount",
          "type": "uint256"
        },
        {
          "internalType": "bytes32",
          "name": "destinationKey",
          "type": "bytes32"
        }
      ],
      "name": "exchange",
      "outputs": [],
      "stateMutability": "nonpayable",
      "type": "function"
    },
    {
      "inputs": [],
      "name": "factory",
      "outputs": [
        {
          "internalType": "address",
          "name": "",
          "type": "address"
        }
      ],
      "stateMutability": "view",
      "type": "function"
    },
    {
      "inputs": [
        {
          "internalType": "bytes32",
          "name": "key",
          "type": "bytes32"
        }
      ],
      "name": "getAssetProxy",
      "outputs": [
        {
          "internalType": "address",
          "name": "",
          "type": "address"
        }
      ],
      "stateMutability": "view",
      "type": "function"
    },
    {
      "inputs": [],
      "name": "getFundComposition",
      "outputs": [
        {
          "internalType": "bytes32[]",
          "name": "",
          "type": "bytes32[]"
        },
        {
          "internalType": "uint256[]",
          "name": "",
          "type": "uint256[]"
        },
        {
          "internalType": "uint256[]",
          "name": "",
          "type": "uint256[]"
        }
      ],
      "stateMutability": "view",
      "type": "function"
    },
    {
      "inputs": [
        {
          "internalType": "address",
          "name": "pool",
          "type": "address"
        }
      ],
      "name": "getManagerFee",
      "outputs": [
        {
          "internalType": "uint256",
          "name": "",
          "type": "uint256"
        },
        {
          "internalType": "uint256",
          "name": "",
          "type": "uint256"
        }
      ],
      "stateMutability": "view",
      "type": "function"
    },
    {
      "inputs": [],
      "name": "getManagerFeeIncreaseInfo",
      "outputs": [
        {
          "internalType": "uint256",
          "name": "",
          "type": "uint256"
        },
        {
          "internalType": "uint256",
          "name": "",
          "type": "uint256"
        }
      ],
      "stateMutability": "view",
      "type": "function"
    },
    {
      "inputs": [],
      "name": "getMembers",
      "outputs": [
        {
          "internalType": "address[]",
          "name": "",
          "type": "address[]"
        }
      ],
      "stateMutability": "view",
      "type": "function"
    },
    {
      "inputs": [],
      "name": "getSupportedAssets",
      "outputs": [
        {
          "internalType": "bytes32[]",
          "name": "",
          "type": "bytes32[]"
        }
      ],
      "stateMutability": "view",
      "type": "function"
    },
    {
      "inputs": [],
      "name": "getSuspendedAssets",
      "outputs": [
        {
          "internalType": "bytes32[]",
          "name": "",
          "type": "bytes32[]"
        },
        {
          "internalType": "bool[]",
          "name": "",
          "type": "bool[]"
        }
      ],
      "stateMutability": "view",
      "type": "function"
    },
    {
      "inputs": [
        {
          "internalType": "address",
          "name": "_factory",
          "type": "address"
        },
        {
          "internalType": "address",
          "name": "_manager",
          "type": "address"
        },
        {
          "internalType": "string",
          "name": "_managerName",
          "type": "string"
        },
        {
          "internalType": "contract IAddressResolver",
          "name": "_addressResolver",
          "type": "address"
        },
        {
          "internalType": "bytes32[]",
          "name": "_supportedAssets",
          "type": "bytes32[]"
        }
      ],
      "name": "initialize",
      "outputs": [],
      "stateMutability": "nonpayable",
      "type": "function"
    },
    {
      "inputs": [
        {
          "internalType": "bytes32",
          "name": "key",
          "type": "bytes32"
        }
      ],
      "name": "isAssetSupported",
      "outputs": [
        {
          "internalType": "bool",
          "name": "",
          "type": "bool"
        }
      ],
      "stateMutability": "view",
      "type": "function"
    },
    {
      "inputs": [
        {
          "internalType": "address",
          "name": "member",
          "type": "address"
        }
      ],
      "name": "isMemberAllowed",
      "outputs": [
        {
          "internalType": "bool",
          "name": "",
          "type": "bool"
        }
      ],
      "stateMutability": "view",
      "type": "function"
    },
    {
      "inputs": [],
      "name": "manager",
      "outputs": [
        {
          "internalType": "address",
          "name": "",
          "type": "address"
        }
      ],
      "stateMutability": "view",
      "type": "function"
    },
    {
      "inputs": [],
      "name": "managerName",
      "outputs": [
        {
          "internalType": "string",
          "name": "",
          "type": "string"
        }
      ],
      "stateMutability": "view",
      "type": "function"
    },
    {
      "inputs": [],
      "name": "numberOfMembers",
      "outputs": [
        {
          "internalType": "uint256",
          "name": "",
          "type": "uint256"
        }
      ],
      "stateMutability": "view",
      "type": "function"
    },
    {
      "inputs": [],
      "name": "numberOfSupportedAssets",
      "outputs": [
        {
          "internalType": "uint256",
          "name": "",
          "type": "uint256"
        }
      ],
      "stateMutability": "view",
      "type": "function"
    },
    {
      "inputs": [
        {
          "internalType": "bytes32",
          "name": "",
          "type": "bytes32"
        }
      ],
      "name": "persistentAsset",
      "outputs": [
        {
          "internalType": "bool",
          "name": "",
          "type": "bool"
        }
      ],
      "stateMutability": "view",
      "type": "function"
    },
    {
      "inputs": [
        {
          "internalType": "bytes32",
          "name": "key",
          "type": "bytes32"
        }
      ],
      "name": "removeFromSupportedAssets",
      "outputs": [],
      "stateMutability": "nonpayable",
      "type": "function"
    },
    {
      "inputs": [
        {
          "internalType": "address",
          "name": "member",
          "type": "address"
        }
      ],
      "name": "removeMember",
      "outputs": [],
      "stateMutability": "nonpayable",
      "type": "function"
    },
    {
      "inputs": [
        {
          "internalType": "address[]",
          "name": "members",
          "type": "address[]"
        }
      ],
      "name": "removeMembers",
      "outputs": [],
      "stateMutability": "nonpayable",
      "type": "function"
    },
    {
      "inputs": [],
      "name": "removeTrader",
      "outputs": [],
      "stateMutability": "nonpayable",
      "type": "function"
    },
    {
      "inputs": [],
      "name": "renounceManagerFeeIncrease",
      "outputs": [],
      "stateMutability": "nonpayable",
      "type": "function"
    },
    {
      "inputs": [
        {
          "internalType": "address",
          "name": "_addressResolver",
          "type": "address"
        }
      ],
      "name": "setAddressResolver",
      "outputs": [],
      "stateMutability": "nonpayable",
      "type": "function"
    },
    {
      "inputs": [
        {
          "internalType": "address",
          "name": "newTrader",
          "type": "address"
        }
      ],
      "name": "setTrader",
      "outputs": [],
      "stateMutability": "nonpayable",
      "type": "function"
    },
    {
      "inputs": [
        {
          "internalType": "uint256",
          "name": "",
          "type": "uint256"
        }
      ],
      "name": "supportedAssets",
      "outputs": [
        {
          "internalType": "bytes32",
          "name": "",
          "type": "bytes32"
        }
      ],
      "stateMutability": "view",
      "type": "function"
    },
    {
      "inputs": [],
      "name": "trader",
      "outputs": [
        {
          "internalType": "address",
          "name": "",
          "type": "address"
        }
      ],
      "stateMutability": "view",
      "type": "function"
    },
    {
      "inputs": [
        {
          "internalType": "bytes32",
          "name": "key",
          "type": "bytes32"
        }
      ],
      "name": "validateAsset",
      "outputs": [
        {
          "internalType": "bool",
          "name": "",
          "type": "bool"
        }
      ],
      "stateMutability": "view",
      "type": "function"
    }
  ],
  "bytecode": "0x608060405234801561001057600080fd5b50613042806100206000396000f3fe608060405234801561001057600080fd5b50600436106102325760003560e01c8063936553c411610130578063ca6d56dc116100b8578063eb94917d1161007c578063eb94917d14610816578063ed5b165d14610966578063ee52a2f31461096e578063f09d14d714610997578063fed4416a14610a7d57610232565b8063ca6d56dc14610791578063d44fa33e146107b7578063d78d7c2e146107d4578063e5406dbf146107f1578063e5ea7759146107f957610232565b8063a6bc18f9116100ff578063a6bc18f914610718578063b8bd81e61461073e578063bbbf725b14610746578063c45a01551461076c578063c68dbb371461077457610232565b8063936553c41461068a578063969eed27146106925780639eab5253146106b8578063a30e3fa91461071057610232565b8063481c6a75116101be5780636708f5d7116101825780636708f5d7146105a55780636f4d469b146105d15780637b4d0c63146106725780637c8afd511461067a5780638f3234391461068257610232565b8063481c6a751461045c578063522136631461046457806353d9133e146105185780635f6eceab14610535578063670797491461057457610232565b8063143023871161020557806314302387146102cf5780631758078b146102f557806321f8c984146102fd5780633ded65301461039e57806346ee84b0146103bb57610232565b8063023f21de146102375780630499123f1461025657806305a2ee2a146102855780630b1ca49a146102a9575b600080fd5b6102546004803603602081101561024d57600080fd5b5035610afa565b005b6102736004803603602081101561026c57600080fd5b5035610d7a565b60408051918252519081900360200190f35b61028d610f17565b604080516001600160a01b039092168252519081900360200190f35b610254600480360360208110156102bf57600080fd5b50356001600160a01b0316610f26565b610254600480360360208110156102e557600080fd5b50356001600160a01b0316610f8f565b61028d611000565b61030561100f565b604051808060200180602001838103835285818151815260200191508051906020019060200280838360005b83811015610349578181015183820152602001610331565b50505050905001838103825284818151815260200191508051906020019060200280838360005b83811015610388578181015183820152602001610370565b5050505090500194505050505060405180910390f35b61028d600480360360208110156103b457600080fd5b503561121e565b610254600480360360208110156103d157600080fd5b810190602081018135600160201b8111156103eb57600080fd5b8201836020820111156103fd57600080fd5b803590602001918460208302840111600160201b8311171561041e57600080fd5b919080806020026020016040519081016040528093929190818152602001838360200280828437600092019190915250929550611421945050505050565b61028d6114c8565b6102546004803603604081101561047a57600080fd5b6001600160a01b038235169190810190604081016020820135600160201b8111156104a457600080fd5b8201836020820111156104b657600080fd5b803590602001918460018302840111600160201b831117156104d757600080fd5b91908080601f0160208091040260200160405190810160405280939291908181526020018383808284376000920191909152509295506114d7945050505050565b6102546004803603602081101561052e57600080fd5b5035611602565b61055b6004803603602081101561054b57600080fd5b50356001600160a01b0316611678565b6040805192835260208301919091528051918290030190f35b6105916004803603602081101561058a57600080fd5b5035611702565b604080519115158252519081900360200190f35b610254600480360360408110156105bb57600080fd5b506001600160a01b038135169060200135611717565b610254600480360360208110156105e757600080fd5b810190602081018135600160201b81111561060157600080fd5b82018360208201111561061357600080fd5b803590602001918460208302840111600160201b8311171561063457600080fd5b919080806020026020016040519081016040528093929190818152602001838360200280828437600092019190915250929550611952945050505050565b6102736119e9565b6102546119ef565b610273611a4f565b610273611a55565b610254600480360360208110156106a857600080fd5b50356001600160a01b0316611a5b565b6106c0611b19565b60408051602080825283518183015283519192839290830191858101910280838360005b838110156106fc5781810151838201526020016106e4565b505050509050019250505060405180910390f35b610273611b7b565b6102546004803603602081101561072e57600080fd5b50356001600160a01b0316611b81565b610254611bf1565b6105916004803603602081101561075c57600080fd5b50356001600160a01b0316611c74565b61028d611c91565b6102736004803603602081101561078a57600080fd5b5035611ca0565b610254600480360360208110156107a757600080fd5b50356001600160a01b0316611cbe565b610591600480360360208110156107cd57600080fd5b5035611d28565b610273600480360360208110156107ea57600080fd5b5035611d3c565b6106c0611d4e565b6105916004803603602081101561080f57600080fd5b5035611da5565b610254600480360360a081101561082c57600080fd5b6001600160a01b038235811692602081013590911691810190606081016040820135600160201b81111561085f57600080fd5b82018360208201111561087157600080fd5b803590602001918460018302840111600160201b8311171561089257600080fd5b91908080601f01602080910402602001604051908101604052809392919081815260200183838082843760009201919091525092956001600160a01b03853516959094909350604081019250602001359050600160201b8111156108f557600080fd5b82018360208201111561090757600080fd5b803590602001918460208302840111600160201b8311171561092857600080fd5b919080806020026020016040519081016040528093929190818152602001838360200280828437600092019190915250929550611f48945050505050565b61055b6120c3565b6102546004803603606081101561098457600080fd5b50803590602081013590604001356120cd565b61099f612459565b60405180806020018060200180602001848103845287818151815260200191508051906020019060200280838360005b838110156109e75781810151838201526020016109cf565b50505050905001848103835286818151815260200191508051906020019060200280838360005b83811015610a26578181015183820152602001610a0e565b50505050905001848103825285818151815260200191508051906020019060200280838360005b83811015610a65578181015183820152602001610a4d565b50505050905001965050505050505060405180910390f35b610a8561273c565b6040805160208082528351818301528351919283929083019185019080838360005b83811015610abf578181015183820152602001610aa7565b50505050905090810190601f168015610aec5780820380516001836020036101000a031916815260200191505b509250505060405180910390f35b603860009054906101000a90046001600160a01b03166001600160a01b0316638da5cb5b6040518163ffffffff1660e01b815260040160206040518083038186803b158015610b4857600080fd5b505afa158015610b5c573d6000803e3d6000fd5b505050506040513d6020811015610b7257600080fd5b50516001600160a01b0316331480610ba25750610b8d6114c8565b6001600160a01b0316336001600160a01b0316145b80610bc55750610bb0611000565b6001600160a01b0316336001600160a01b0316145b610c005760405162461bcd60e51b8152600401808060200182810382526024815260200180612fbb6024913960400191505060405180910390fd5b610c0981611d28565b610c50576040805162461bcd60e51b8152602060048201526013602482015272185cdcd95d081b9bdd081cdd5c1c1bdc9d1959606a1b604482015290519081900360640190fd5b6000818152603b602052604090205460ff1615610c9e5760405162461bcd60e51b8152600401808060200182810382526022815260200180612f996022913960400191505060405180910390fd5b610ca781611da5565b151560011415610d6e57610cba8161121e565b6001600160a01b03166370a08231306040518263ffffffff1660e01b815260040180826001600160a01b0316815260200191505060206040518083038186803b158015610d0657600080fd5b505afa158015610d1a573d6000803e3d6000fd5b505050506040513d6020811015610d3057600080fd5b505115610d6e5760405162461bcd60e51b8152600401808060200182810382526021815260200180612f786021913960400191505060405180910390fd5b610d77816127c8565b50565b603754604080516321f8a72160e01b81526c45786368616e6765526174657360981b600482015290516000926001600160a01b0316916321f8a721916024808301926020929190829003018186803b158015610dd557600080fd5b505afa158015610de9573d6000803e3d6000fd5b505050506040513d6020811015610dff57600080fd5b50516001600160a01b031663654a60ac83610e198161121e565b6001600160a01b03166370a08231306040518263ffffffff1660e01b815260040180826001600160a01b0316815260200191505060206040518083038186803b158015610e6557600080fd5b505afa158015610e79573d6000803e3d6000fd5b505050506040513d6020811015610e8f57600080fd5b5051604080516001600160e01b031960e086901b16815260048101939093526024830191909152631cd554d160e21b6044830152516064808301926020929190829003018186803b158015610ee357600080fd5b505afa158015610ef7573d6000803e3d6000fd5b505050506040513d6020811015610f0d57600080fd5b505190505b919050565b6037546001600160a01b031681565b6000546001600160a01b03163314610f74576040805162461bcd60e51b815260206004820152600c60248201526b37b7363c9036b0b730b3b2b960a11b604482015290519081900360640190fd5b610f7d81611c74565b610f8657610d77565b610d77816128c8565b6038546001600160a01b03163314610fde576040805162461bcd60e51b815260206004820152600d60248201526c3737903832b936b4b9b9b4b7b760991b604482015290519081900360640190fd5b603780546001600160a01b0319166001600160a01b0392909216919091179055565b6004546001600160a01b031690565b6039546060908190818167ffffffffffffffff8111801561102f57600080fd5b50604051908082528060200260200182016040528015611059578160200160208202803683370190505b50905060608267ffffffffffffffff8111801561107557600080fd5b5060405190808252806020026020018201604052801561109f578160200160208202803683370190505b50603754604080516321f8a72160e01b81526b53797374656d53746174757360a01b600482015290519293506000926001600160a01b03909216916321f8a72191602480820192602092909190829003018186803b15801561110057600080fd5b505afa158015611114573d6000803e3d6000fd5b505050506040513d602081101561112a57600080fd5b5051905060005b848110156112125760006039828154811061114857fe5b906000526020600020015490508085838151811061116257fe5b602002602001018181525050826001600160a01b03166342a28e21826040518263ffffffff1660e01b81526004018082815260200191505060006040518083038186803b1580156111b257600080fd5b505afa9250505080156111c3575060015b6111ea5760018483815181106111d557fe5b91151560209283029190910190910152611209565b60008483815181106111f857fe5b911515602092830291909101909101525b50600101611131565b50919450925050509091565b603754604080516321f8a72160e01b8152680a6f2dce8d0cae8d2f60bb1b6004820152905160009283926001600160a01b03909116916321f8a72191602480820192602092909190829003018186803b15801561127a57600080fd5b505afa15801561128e573d6000803e3d6000fd5b505050506040513d60208110156112a457600080fd5b505160408051633260803960e01b81526004810186905290516001600160a01b0390921691633260803991602480820192602092909190829003018186803b1580156112ef57600080fd5b505afa158015611303573d6000803e3d6000fd5b505050506040513d602081101561131957600080fd5b505190506001600160a01b038116611366576040805162461bcd60e51b815260206004820152600b60248201526a696e76616c6964206b657960a81b604482015290519081900360640190fd5b6000816001600160a01b031663ec5568896040518163ffffffff1660e01b815260040160206040518083038186803b1580156113a157600080fd5b505afa1580156113b5573d6000803e3d6000fd5b505050506040513d60208110156113cb57600080fd5b505190506001600160a01b03811661141a576040805162461bcd60e51b815260206004820152600d60248201526c696e76616c69642070726f787960981b604482015290519081900360640190fd5b9392505050565b6000546001600160a01b0316331461146f576040805162461bcd60e51b815260206004820152600c60248201526b37b7363c9036b0b730b3b2b960a11b604482015290519081900360640190fd5b60005b81518110156114c45761149782828151811061148a57fe5b6020026020010151611c74565b6114a0576114bc565b6114bc8282815181106114af57fe5b60200260200101516128c8565b600101611472565b5050565b6000546001600160a01b031690565b6000546001600160a01b03163314611525576040805162461bcd60e51b815260206004820152600c60248201526b37b7363c9036b0b730b3b2b960a11b604482015290519081900360640190fd5b600080546001600160a01b0319166001600160a01b0384161790558051611553906001906020840190612ee4565b507f6ed15082ad038474841528b5badca105106d4463e44b5d434130dfb299aa3669828260405180836001600160a01b0316815260200180602001828103825283818151815260200191508051906020019080838360005b838110156115c35781810151838201526020016115ab565b50505050905090810190601f1680156115f05780820380516001836020036101000a031916815260200191505b50935050505060405180910390a15050565b6000546001600160a01b031633148061162557506004546001600160a01b031633145b61166f576040805162461bcd60e51b815260206004820152601660248201527537b7363c9036b0b730b3b2b91037b9103a3930b232b960511b604482015290519081900360640190fd5b610d77816129c1565b60385460408051635bd2a29360e11b81526001600160a01b0384811660048301528251600094859492169263b7a54526926024808301939192829003018186803b1580156116c557600080fd5b505afa1580156116d9573d6000803e3d6000fd5b505050506040513d60408110156116ef57600080fd5b5080516020909101519092509050915091565b603b6020526000908152604090205460ff1681565b6000546001600160a01b03163314611765576040805162461bcd60e51b815260206004820152600c60248201526b37b7363c9036b0b730b3b2b960a11b604482015290519081900360640190fd5b60385460408051635c9bfc2b60e01b815290516000926001600160a01b031691635c9bfc2b916004808301926020929190829003018186803b1580156117aa57600080fd5b505afa1580156117be573d6000803e3d6000fd5b505050506040513d60208110156117d457600080fd5b505190506000806117e485611678565b909250905080841115611831576040805162461bcd60e51b815260206004820152601060248201526f34b73b30b634b210333930b1ba34b7b760811b604482015290519081900360640190fd5b61183b8284612bcc565b84111561188f576040805162461bcd60e51b815260206004820152601960248201527f657863656564656420616c6c6f77656420696e63726561736500000000000000604482015290519081900360640190fd5b6038546040805163ebee461d60e01b815290516000926001600160a01b03169163ebee461d916004808301926020929190829003018186803b1580156118d457600080fd5b505afa1580156118e8573d6000803e3d6000fd5b505050506040513d60208110156118fe57600080fd5b5051603c869055428101603d81905560408051888152602081019290925280519293507f4db9119741646c419f1ceccdf112b5b9a9b4516355e742e1fa9c479f4dec98da92918290030190a1505050505050565b6000546001600160a01b031633146119a0576040805162461bcd60e51b815260206004820152600c60248201526b37b7363c9036b0b730b3b2b960a11b604482015290519081900360640190fd5b60005b81518110156114c4576119bb82828151811061148a57fe5b156119c5576119e1565b6119e18282815181106119d457fe5b6020026020010151612c26565b6001016119a3565b603d5481565b6000546001600160a01b03163314611a3d576040805162461bcd60e51b815260206004820152600c60248201526b37b7363c9036b0b730b3b2b960a11b604482015290519081900360640190fd5b600480546001600160a01b0319169055565b603c5481565b60395490565b6000546001600160a01b03163314611aa9576040805162461bcd60e51b815260206004820152600c60248201526b37b7363c9036b0b730b3b2b960a11b604482015290519081900360640190fd5b603d54421015611b00576040805162461bcd60e51b815260206004820152601960248201527f66656520696e6372656173652064656c61792061637469766500000000000000604482015290519081900360640190fd5b611b0c81603c54612c82565b506000603c819055603d55565b60606002805480602002602001604051908101604052809291908181526020018280548015611b7157602002820191906000526020600020905b81546001600160a01b03168152600190910190602001808311611b53575b5050505050905090565b60025490565b6000546001600160a01b03163314611bcf576040805162461bcd60e51b815260206004820152600c60248201526b37b7363c9036b0b730b3b2b960a11b604482015290519081900360640190fd5b600480546001600160a01b0319166001600160a01b0392909216919091179055565b6000546001600160a01b03163314611c3f576040805162461bcd60e51b815260206004820152600c60248201526b37b7363c9036b0b730b3b2b960a11b604482015290519081900360640190fd5b6000603c819055603d8190556040517fc6f04bf43cbdf1ba5d51b4afa160bb3c7e13858b1409aa32868b239bb2f8d8499190a1565b6001600160a01b0316600090815260036020526040902054151590565b6038546001600160a01b031681565b60398181548110611cad57fe5b600091825260209091200154905081565b6000546001600160a01b03163314611d0c576040805162461bcd60e51b815260206004820152600c60248201526b37b7363c9036b0b730b3b2b960a11b604482015290519081900360640190fd5b611d1581611c74565b15611d1f57610d77565b610d7781612c26565b6000908152603a6020526040902054151590565b603a6020526000908152604090205481565b60606039805480602002602001604051908101604052809291908181526020018280548015611b7157602002820191906000526020600020905b815481526020019060010190808311611d88575050505050905090565b603754604080516321f8a72160e01b8152680a6f2dce8d0cae8d2f60bb1b6004820152905160009283926001600160a01b03909116916321f8a72191602480820192602092909190829003018186803b158015611e0157600080fd5b505afa158015611e15573d6000803e3d6000fd5b505050506040513d6020811015611e2b57600080fd5b505160408051633260803960e01b81526004810186905290516001600160a01b0390921691633260803991602480820192602092909190829003018186803b158015611e7657600080fd5b505afa158015611e8a573d6000803e3d6000fd5b505050506040513d6020811015611ea057600080fd5b505190506001600160a01b038116611ebc576000915050610f12565b6000816001600160a01b031663ec5568896040518163ffffffff1660e01b815260040160206040518083038186803b158015611ef757600080fd5b505afa158015611f0b573d6000803e3d6000fd5b505050506040513d6020811015611f2157600080fd5b505190506001600160a01b038116611f3e57600092505050610f12565b5060019392505050565b600454600160a81b900460ff1680611f635750611f63612dd7565b80611f785750600454600160a01b900460ff16155b611fb35760405162461bcd60e51b815260040180806020018281038252602e815260200180612fdf602e913960400191505060405180910390fd5b600454600160a81b900460ff16158015611fea576004805460ff60a01b1960ff60a81b19909116600160a81b1716600160a01b1790555b611ff48585612ddd565b603880546001600160a01b038089166001600160a01b0319928316179092556037805492861692909116919091179055612034631cd554d160e21b6129c1565b60005b82518160ff16101561206a57612062838260ff168151811061205557fe5b60200260200101516129c1565b600101612037565b50631cd554d160e21b600052603b6020527fd767419ac96d5faa5aea5e81cfd8e0c809d6de09df1359544637fab71d645fa1805460ff1916600117905580156120bb576004805460ff60a81b191690555b505050505050565b603c54603d549091565b6000546001600160a01b03163314806120f057506004546001600160a01b031633145b61213a576040805162461bcd60e51b815260206004820152601660248201527537b7363c9036b0b730b3b2b91037b9103a3930b232b960511b604482015290519081900360640190fd5b61214383611d28565b612194576040805162461bcd60e51b815260206004820152601b60248201527f756e737570706f7274656420736f757263652063757272656e63790000000000604482015290519081900360640190fd5b61219d81611d28565b6121ee576040805162461bcd60e51b815260206004820181905260248201527f756e737570706f727465642064657374696e6174696f6e2063757272656e6379604482015290519081900360640190fd5b603754604080516321f8a72160e01b8152680a6f2dce8d0cae8d2f60bb1b600482015290516000926001600160a01b0316916321f8a721916024808301926020929190829003018186803b15801561224557600080fd5b505afa158015612259573d6000803e3d6000fd5b505050506040513d602081101561226f57600080fd5b505160385460408051631d68702d60e01b815290519293506000926001600160a01b03808616936330ead760938a938a938a931691631d68702d916004808301926020929190829003018186803b1580156122c957600080fd5b505afa1580156122dd573d6000803e3d6000fd5b505050506040513d60208110156122f357600080fd5b5051603854604080516349f7c02d60e01b815290516001600160a01b03909216916349f7c02d91600480820192602092909190829003018186803b15801561233a57600080fd5b505afa15801561234e573d6000803e3d6000fd5b505050506040513d602081101561236457600080fd5b5051604080516001600160e01b031960e089901b1681526004810196909652602486019490945260448501929092526001600160a01b0316606484015260848301525160a48083019260209291908290030181600087803b1580156123c857600080fd5b505af11580156123dc573d6000803e3d6000fd5b505050506040513d60208110156123f257600080fd5b505160408051308152336020820152808201889052606081018790526080810186905260a081018390524260c082015290519192507f2f3156bec1dba8438caa2579a04e750d9ca242f1c16d87594c77efdbede59bbe919081900360e00190a15050505050565b60395460609081908190818167ffffffffffffffff8111801561247b57600080fd5b506040519080825280602002602001820160405280156124a5578160200160208202803683370190505b50905060608267ffffffffffffffff811180156124c157600080fd5b506040519080825280602002602001820160405280156124eb578160200160208202803683370190505b50905060608367ffffffffffffffff8111801561250757600080fd5b50604051908082528060200260200182016040528015612531578160200160208202803683370190505b50603754604080516321f8a72160e01b81526c45786368616e6765526174657360981b600482015290519293506000926001600160a01b03909216916321f8a72191602480820192602092909190829003018186803b15801561259357600080fd5b505afa1580156125a7573d6000803e3d6000fd5b505050506040513d60208110156125bd57600080fd5b5051905060005b8581101561272e576000603982815481106125db57fe5b906000526020600020015490506125f18161121e565b6001600160a01b03166370a08231306040518263ffffffff1660e01b815260040180826001600160a01b0316815260200191505060206040518083038186803b15801561263d57600080fd5b505afa158015612651573d6000803e3d6000fd5b505050506040513d602081101561266757600080fd5b5051855186908490811061267757fe5b6020026020010181815250508086838151811061269057fe5b602002602001018181525050826001600160a01b031663ac82f608826040518263ffffffff1660e01b81526004018082815260200191505060206040518083038186803b1580156126e057600080fd5b505afa1580156126f4573d6000803e3d6000fd5b505050506040513d602081101561270a57600080fd5b5051845185908490811061271a57fe5b6020908102919091010152506001016125c4565b509297919650945092505050565b60018054604080516020601f60026000196101008789161502019095169490940493840181900481028201810190925282815260609390929091830182828015611b715780601f1061279c57610100808354040283529160200191611b71565b820191906000526020600020905b8154815290600101906020018083116127aa57509395945050505050565b6039546000828152603a60205260408120546127e5906001612e10565b9050600060396127f6846001612e10565b8154811061280057fe5b90600052602060002001549050806039838154811061281b57fe5b600091825260209091200155612832826001612bcc565b6000828152603a60205260408082209290925585815290812055603980548061285757fe5b600190038181906000526020600020016000905590557f241d622959843ef6d15b4517709d11e054e1c06a2733f7773837c3d2377d8a89306128976114c8565b604080516001600160a01b03938416815291909216602082015280820187905290519081900360600190a150505050565b6002546001600160a01b0382166000908152600360205260408120546128ef906001612e10565b905060006002612900846001612e10565b8154811061290a57fe5b600091825260209091200154600280546001600160a01b03909216925082918490811061293357fe5b600091825260209091200180546001600160a01b0319166001600160a01b0392909216919091179055612967826001612bcc565b6001600160a01b0380831660009081526003602052604080822093909355908616815290812055600280548061299957fe5b600082815260209020810160001990810180546001600160a01b031916905501905550505050565b603860009054906101000a90046001600160a01b03166001600160a01b031663aa12ae4d6040518163ffffffff1660e01b815260040160206040518083038186803b158015612a0f57600080fd5b505afa158015612a23573d6000803e3d6000fd5b505050506040513d6020811015612a3957600080fd5b505160395410612a89576040805162461bcd60e51b81526020600482015260166024820152751b585e1a5b5d5b48185cdcd95d1cc81c995858da195960521b604482015290519081900360640190fd5b612a9281611d28565b15612ae4576040805162461bcd60e51b815260206004820152601760248201527f617373657420616c726561647920737570706f72746564000000000000000000604482015290519081900360640190fd5b612aed81611da5565b1515600114612b35576040805162461bcd60e51b815260206004820152600f60248201526e1b9bdb8b5cde5b9d1a08185cdcd95d608a1b604482015290519081900360640190fd5b603980546001810182557fdc16fef70f8d5ddbc01ee3d903d1e69c18a3c7be080eb86a81e0578814ee58d301829055546000828152603a60205260409020557f4c719ca79dbb56150643ac79f2fbfa02370838ed0d116fc28b9703f5a071c4e230612b9e6114c8565b604080516001600160a01b03938416815291909216602082015280820184905290519081900360600190a150565b60008282018381101561141a576040805162461bcd60e51b815260206004820152601b60248201527f536166654d6174683a206164646974696f6e206f766572666c6f770000000000604482015290519081900360640190fd5b600280546001810182557f405787fa12a823e0f2b7631cc41b3ba8828b3321ca811111fa75cd3aa3bb5ace0180546001600160a01b039093166001600160a01b0319909316831790555460009182526003602052604090912055565b6038546040805163011adcb160e21b81526001600160a01b038581166004830152602482018590529151919092169163046b72c491604480830192600092919082900301818387803b158015612cd757600080fd5b505af1158015612ceb573d6000803e3d6000fd5b505060385460408051635bd2a29360e11b81526001600160a01b03878116600483015282516000965086955093169263b7a5452692602480840193919291829003018186803b158015612d3d57600080fd5b505afa158015612d51573d6000803e3d6000fd5b505050506040513d6040811015612d6757600080fd5b50805160209091015190925090507f1780c04ddc6f0b32d866c7a3d7583f53515ef49ed2126af868f804f49160126630612d9f6114c8565b604080516001600160a01b0393841681529190921660208201528082018590526060810184905290519081900360800190a150505050565b303b1590565b600080546001600160a01b0319166001600160a01b0384161790558051612e0b906001906020840190612ee4565b505050565b600061141a83836040518060400160405280601e81526020017f536166654d6174683a207375627472616374696f6e206f766572666c6f77000081525060008184841115612edc5760405162461bcd60e51b81526004018080602001828103825283818151815260200191508051906020019080838360005b83811015612ea1578181015183820152602001612e89565b50505050905090810190601f168015612ece5780820380516001836020036101000a031916815260200191505b509250505060405180910390fd5b505050900390565b828054600181600116156101000203166002900490600052602060002090601f016020900481019282601f10612f2557805160ff1916838001178555612f52565b82800160010185558215612f52579182015b82811115612f52578251825591602001919060010190612f37565b50612f5e929150612f62565b5090565b5b80821115612f5e5760008155600101612f6356fe6e6f6e2d656d7074792061737365742063616e6e6f742062652072656d6f76656470657273697374656e74206173736574732063616e27742062652072656d6f7665646f6e6c79206d616e616765722c20747261646572206f722050726f746f636f6c2044414f436f6e747261637420696e7374616e63652068617320616c7265616479206265656e20696e697469616c697a6564a2646970667358221220f01a65cc406e4f617a3ee2070aca265411ff2be1563dfe80280438da03c919ef64736f6c634300060c0033",
  "linkReferences": {},
  "deployedLinkReferences": {}
}