{
  "_format": "hh-sol-artifact-1",
  "contractName": "PoolManagerLogic",
  "sourceName": "contracts/PoolManagerLogic.sol",
  "abi": [
    {
      "anonymous": false,
      "inputs": [
        {
          "indexed": false,
          "internalType": "address",
          "name": "fundAddress",
          "type": "address"
        },
        {
          "indexed": false,
          "internalType": "address",
          "name": "manager",
          "type": "address"
        },
        {
          "indexed": false,
          "internalType": "address",
          "name": "asset",
          "type": "address"
        },
        {
          "indexed": false,
          "internalType": "bool",
          "name": "isDeposit",
          "type": "bool"
        }
      ],
      "name": "AssetAdded",
      "type": "event"
    },
    {
      "anonymous": false,
      "inputs": [
        {
          "indexed": false,
          "internalType": "address",
          "name": "fundAddress",
          "type": "address"
        },
        {
          "indexed": false,
          "internalType": "address",
          "name": "manager",
          "type": "address"
        },
        {
          "indexed": false,
          "internalType": "address",
          "name": "asset",
          "type": "address"
        },
        {
          "indexed": false,
          "internalType": "bool",
          "name": "isDeposit",
          "type": "bool"
        }
      ],
      "name": "AssetRemoved",
      "type": "event"
    },
    {
      "anonymous": false,
      "inputs": [
        {
          "indexed": false,
          "internalType": "uint256",
          "name": "newNumerator",
          "type": "uint256"
        },
        {
          "indexed": false,
          "internalType": "uint256",
          "name": "announcedFeeActivationTime",
          "type": "uint256"
        }
      ],
      "name": "ManagerFeeIncreaseAnnounced",
      "type": "event"
    },
    {
      "anonymous": false,
      "inputs": [],
      "name": "ManagerFeeIncreaseRenounced",
      "type": "event"
    },
    {
      "anonymous": false,
      "inputs": [
        {
          "indexed": false,
          "internalType": "address",
          "name": "fundAddress",
          "type": "address"
        },
        {
          "indexed": false,
          "internalType": "address",
          "name": "manager",
          "type": "address"
        },
        {
          "indexed": false,
          "internalType": "uint256",
          "name": "numerator",
          "type": "uint256"
        },
        {
          "indexed": false,
          "internalType": "uint256",
          "name": "denominator",
          "type": "uint256"
        }
      ],
      "name": "ManagerFeeSet",
      "type": "event"
    },
    {
      "anonymous": false,
      "inputs": [
        {
          "indexed": false,
          "internalType": "address",
          "name": "newManager",
          "type": "address"
        },
        {
          "indexed": false,
          "internalType": "string",
          "name": "newManagerName",
          "type": "string"
        }
      ],
      "name": "ManagerUpdated",
      "type": "event"
    },
    {
      "anonymous": false,
      "inputs": [
        {
          "indexed": false,
          "internalType": "address",
          "name": "account",
          "type": "address"
        }
      ],
      "name": "Paused",
      "type": "event"
    },
    {
      "anonymous": false,
      "inputs": [
        {
          "indexed": false,
          "internalType": "address",
          "name": "poolLogic",
          "type": "address"
        },
        {
          "indexed": false,
          "internalType": "address",
          "name": "from",
          "type": "address"
        }
      ],
      "name": "PoolLogicSet",
      "type": "event"
    },
    {
      "anonymous": false,
      "inputs": [
        {
          "indexed": false,
          "internalType": "address",
          "name": "fundAddress",
          "type": "address"
        },
        {
          "indexed": false,
          "internalType": "address",
          "name": "manager",
          "type": "address"
        },
        {
          "indexed": false,
          "internalType": "uint256",
          "name": "time",
          "type": "uint256"
        }
      ],
      "name": "TransactionExecuted",
      "type": "event"
    },
    {
      "anonymous": false,
      "inputs": [
        {
          "indexed": false,
          "internalType": "address",
          "name": "account",
          "type": "address"
        }
      ],
      "name": "Unpaused",
      "type": "event"
    },
    {
      "inputs": [
        {
          "internalType": "address",
          "name": "member",
          "type": "address"
        }
      ],
      "name": "addMember",
      "outputs": [],
      "stateMutability": "nonpayable",
      "type": "function"
    },
    {
      "inputs": [
        {
          "internalType": "address[]",
          "name": "members",
          "type": "address[]"
        }
      ],
      "name": "addMembers",
      "outputs": [],
      "stateMutability": "nonpayable",
      "type": "function"
    },
    {
      "inputs": [
        {
          "internalType": "uint256",
          "name": "numerator",
          "type": "uint256"
        }
      ],
      "name": "announceManagerFeeIncrease",
      "outputs": [],
      "stateMutability": "nonpayable",
      "type": "function"
    },
    {
      "inputs": [],
      "name": "announcedFeeIncreaseNumerator",
      "outputs": [
        {
          "internalType": "uint256",
          "name": "",
          "type": "uint256"
        }
      ],
      "stateMutability": "view",
      "type": "function"
    },
    {
      "inputs": [],
      "name": "announcedFeeIncreaseTimestamp",
      "outputs": [
        {
          "internalType": "uint256",
          "name": "",
          "type": "uint256"
        }
      ],
      "stateMutability": "view",
      "type": "function"
    },
    {
      "inputs": [
        {
          "internalType": "address",
          "name": "asset",
          "type": "address"
        }
      ],
      "name": "assetBalance",
      "outputs": [
        {
          "internalType": "uint256",
          "name": "",
          "type": "uint256"
        }
      ],
      "stateMutability": "view",
      "type": "function"
    },
    {
      "inputs": [
        {
          "internalType": "address",
          "name": "",
          "type": "address"
        }
      ],
      "name": "assetPosition",
      "outputs": [
        {
          "internalType": "uint256",
          "name": "",
          "type": "uint256"
        }
      ],
      "stateMutability": "view",
      "type": "function"
    },
    {
      "inputs": [
        {
          "internalType": "address",
          "name": "asset",
          "type": "address"
        },
        {
          "internalType": "uint256",
          "name": "amount",
          "type": "uint256"
        }
      ],
      "name": "assetValue",
      "outputs": [
        {
          "internalType": "uint256",
          "name": "",
          "type": "uint256"
        }
      ],
      "stateMutability": "view",
      "type": "function"
    },
    {
      "inputs": [
        {
          "internalType": "address",
          "name": "asset",
          "type": "address"
        }
      ],
      "name": "assetValue",
      "outputs": [
        {
          "internalType": "uint256",
          "name": "",
          "type": "uint256"
        }
      ],
      "stateMutability": "view",
      "type": "function"
    },
    {
      "inputs": [
        {
          "components": [
            {
              "internalType": "address",
              "name": "asset",
              "type": "address"
            },
            {
              "internalType": "bool",
              "name": "isDeposit",
              "type": "bool"
            }
          ],
          "internalType": "struct IPoolManagerLogic.Asset[]",
          "name": "_addAssets",
          "type": "tuple[]"
        },
        {
          "components": [
            {
              "internalType": "address",
              "name": "asset",
              "type": "address"
            },
            {
              "internalType": "bool",
              "name": "isDeposit",
              "type": "bool"
            }
          ],
          "internalType": "struct IPoolManagerLogic.Asset[]",
          "name": "_removeAssets",
          "type": "tuple[]"
        }
      ],
      "name": "changeAssets",
      "outputs": [],
      "stateMutability": "nonpayable",
      "type": "function"
    },
    {
      "inputs": [
        {
          "internalType": "address",
          "name": "newManager",
          "type": "address"
        },
        {
          "internalType": "string",
          "name": "newManagerName",
          "type": "string"
        }
      ],
      "name": "changeManager",
      "outputs": [],
      "stateMutability": "nonpayable",
      "type": "function"
    },
    {
      "inputs": [],
      "name": "commitManagerFeeIncrease",
      "outputs": [],
      "stateMutability": "nonpayable",
      "type": "function"
    },
    {
      "inputs": [
        {
          "internalType": "bytes32",
          "name": "data",
          "type": "bytes32"
        }
      ],
      "name": "convert32toAddress",
      "outputs": [
        {
          "internalType": "address",
          "name": "o",
          "type": "address"
        }
      ],
      "stateMutability": "pure",
      "type": "function"
    },
    {
      "inputs": [
        {
          "internalType": "address",
          "name": "to",
          "type": "address"
        },
        {
          "internalType": "bytes",
          "name": "data",
          "type": "bytes"
        }
      ],
      "name": "execTransaction",
      "outputs": [
        {
          "internalType": "bool",
          "name": "",
          "type": "bool"
        }
      ],
      "stateMutability": "nonpayable",
      "type": "function"
    },
    {
      "inputs": [],
      "name": "factory",
      "outputs": [
        {
          "internalType": "address",
          "name": "",
          "type": "address"
        }
      ],
      "stateMutability": "view",
      "type": "function"
    },
    {
      "inputs": [
        {
          "internalType": "bytes",
          "name": "data",
          "type": "bytes"
        },
        {
          "internalType": "uint8",
          "name": "inputNum",
          "type": "uint8"
        },
        {
          "internalType": "uint8",
          "name": "arrayIndex",
          "type": "uint8"
        }
      ],
      "name": "getArrayIndex",
      "outputs": [
        {
          "internalType": "bytes32",
          "name": "",
          "type": "bytes32"
        }
      ],
      "stateMutability": "pure",
      "type": "function"
    },
    {
      "inputs": [
        {
          "internalType": "bytes",
          "name": "data",
          "type": "bytes"
        },
        {
          "internalType": "uint8",
          "name": "inputNum",
          "type": "uint8"
        }
      ],
      "name": "getArrayLast",
      "outputs": [
        {
          "internalType": "bytes32",
          "name": "",
          "type": "bytes32"
        }
      ],
      "stateMutability": "pure",
      "type": "function"
    },
    {
      "inputs": [
        {
          "internalType": "bytes",
          "name": "data",
          "type": "bytes"
        },
        {
          "internalType": "uint8",
          "name": "inputNum",
          "type": "uint8"
        }
      ],
      "name": "getArrayLength",
      "outputs": [
        {
          "internalType": "uint256",
          "name": "",
          "type": "uint256"
        }
      ],
      "stateMutability": "pure",
      "type": "function"
    },
    {
      "inputs": [],
      "name": "getFundComposition",
      "outputs": [
        {
          "internalType": "address[]",
          "name": "",
          "type": "address[]"
        },
        {
          "internalType": "uint256[]",
          "name": "",
          "type": "uint256[]"
        },
        {
          "internalType": "uint256[]",
          "name": "",
          "type": "uint256[]"
        }
      ],
      "stateMutability": "view",
      "type": "function"
    },
    {
      "inputs": [
        {
          "internalType": "bytes",
          "name": "data",
          "type": "bytes"
        },
        {
          "internalType": "uint8",
          "name": "inputNum",
          "type": "uint8"
        }
      ],
      "name": "getInput",
      "outputs": [
        {
          "internalType": "bytes32",
          "name": "",
          "type": "bytes32"
        }
      ],
      "stateMutability": "pure",
      "type": "function"
    },
    {
      "inputs": [],
      "name": "getManagerFee",
      "outputs": [
        {
          "internalType": "uint256",
          "name": "",
          "type": "uint256"
        },
        {
          "internalType": "uint256",
          "name": "",
          "type": "uint256"
        }
      ],
      "stateMutability": "view",
      "type": "function"
    },
    {
      "inputs": [],
      "name": "getManagerFeeIncreaseInfo",
      "outputs": [
        {
          "internalType": "uint256",
          "name": "",
          "type": "uint256"
        },
        {
          "internalType": "uint256",
          "name": "",
          "type": "uint256"
        }
      ],
      "stateMutability": "view",
      "type": "function"
    },
    {
      "inputs": [],
      "name": "getMembers",
      "outputs": [
        {
          "internalType": "address[]",
          "name": "",
          "type": "address[]"
        }
      ],
      "stateMutability": "view",
      "type": "function"
    },
    {
      "inputs": [
        {
          "internalType": "bytes",
          "name": "data",
          "type": "bytes"
        }
      ],
      "name": "getMethod",
      "outputs": [
        {
          "internalType": "bytes4",
          "name": "",
          "type": "bytes4"
        }
      ],
      "stateMutability": "pure",
      "type": "function"
    },
    {
      "inputs": [],
      "name": "getSupportedAssets",
      "outputs": [
        {
          "internalType": "address[]",
          "name": "",
          "type": "address[]"
        }
      ],
      "stateMutability": "view",
      "type": "function"
    },
    {
      "inputs": [
        {
          "internalType": "address",
          "name": "_factory",
          "type": "address"
        },
        {
          "internalType": "address",
          "name": "_manager",
          "type": "address"
        },
        {
          "internalType": "string",
          "name": "_managerName",
          "type": "string"
        },
        {
          "components": [
            {
              "internalType": "address",
              "name": "asset",
              "type": "address"
            },
            {
              "internalType": "bool",
              "name": "isDeposit",
              "type": "bool"
            }
          ],
          "internalType": "struct IPoolManagerLogic.Asset[]",
          "name": "_supportedAssets",
          "type": "tuple[]"
        }
      ],
      "name": "initialize",
      "outputs": [],
      "stateMutability": "nonpayable",
      "type": "function"
    },
    {
      "inputs": [
        {
          "internalType": "address",
          "name": "asset",
          "type": "address"
        }
      ],
      "name": "isDepositAsset",
      "outputs": [
        {
          "internalType": "bool",
          "name": "",
          "type": "bool"
        }
      ],
      "stateMutability": "view",
      "type": "function"
    },
    {
      "inputs": [
        {
          "internalType": "address",
          "name": "member",
          "type": "address"
        }
      ],
      "name": "isMemberAllowed",
      "outputs": [
        {
          "internalType": "bool",
          "name": "",
          "type": "bool"
        }
      ],
      "stateMutability": "view",
      "type": "function"
    },
    {
      "inputs": [],
      "name": "isPaused",
      "outputs": [
        {
          "internalType": "bool",
          "name": "",
          "type": "bool"
        }
      ],
      "stateMutability": "view",
      "type": "function"
    },
    {
      "inputs": [],
      "name": "isSupportedAsset",
      "outputs": [
        {
          "internalType": "bool",
          "name": "",
          "type": "bool"
        }
      ],
      "stateMutability": "view",
      "type": "function"
    },
    {
      "inputs": [],
      "name": "manager",
      "outputs": [
        {
          "internalType": "address",
          "name": "",
          "type": "address"
        }
      ],
      "stateMutability": "view",
      "type": "function"
    },
    {
      "inputs": [],
      "name": "managerName",
      "outputs": [
        {
          "internalType": "string",
          "name": "",
          "type": "string"
        }
      ],
      "stateMutability": "view",
      "type": "function"
    },
    {
      "inputs": [],
      "name": "numberOfDepositAssets",
      "outputs": [
        {
          "internalType": "uint256",
          "name": "",
          "type": "uint256"
        }
      ],
      "stateMutability": "view",
      "type": "function"
    },
    {
      "inputs": [],
      "name": "pause",
      "outputs": [],
      "stateMutability": "nonpayable",
      "type": "function"
    },
    {
      "inputs": [],
      "name": "paused",
      "outputs": [
        {
          "internalType": "uint256",
          "name": "",
          "type": "uint256"
        }
      ],
      "stateMutability": "view",
      "type": "function"
    },
    {
      "inputs": [],
      "name": "numberOfSupportedAssets",
      "outputs": [
        {
          "internalType": "uint256",
          "name": "",
          "type": "uint256"
        }
      ],
      "stateMutability": "view",
      "type": "function"
    },
    {
      "inputs": [],
      "name": "poolLogic",
      "outputs": [
        {
          "internalType": "address",
          "name": "",
          "type": "address"
        }
      ],
      "stateMutability": "view",
      "type": "function"
    },
    {
      "inputs": [
        {
          "internalType": "bytes",
          "name": "data",
          "type": "bytes"
        },
        {
          "internalType": "uint256",
          "name": "offset",
          "type": "uint256"
        },
        {
          "internalType": "uint256",
          "name": "length",
          "type": "uint256"
        }
      ],
      "name": "read32",
      "outputs": [
        {
          "internalType": "bytes32",
          "name": "o",
          "type": "bytes32"
        }
      ],
      "stateMutability": "pure",
      "type": "function"
    },
    {
      "inputs": [
        {
          "internalType": "bytes",
          "name": "data",
          "type": "bytes"
        },
        {
          "internalType": "uint256",
          "name": "offset",
          "type": "uint256"
        },
        {
          "internalType": "uint256",
          "name": "length",
          "type": "uint256"
        }
      ],
      "name": "read4left",
      "outputs": [
        {
          "internalType": "bytes4",
          "name": "o",
          "type": "bytes4"
        }
      ],
      "stateMutability": "pure",
      "type": "function"
    },
    {
      "inputs": [
        {
          "internalType": "address",
          "name": "member",
          "type": "address"
        }
      ],
      "name": "removeMember",
      "outputs": [],
      "stateMutability": "nonpayable",
      "type": "function"
    },
    {
      "inputs": [
        {
          "internalType": "address[]",
          "name": "members",
          "type": "address[]"
        }
      ],
      "name": "removeMembers",
      "outputs": [],
      "stateMutability": "nonpayable",
      "type": "function"
    },
    {
      "inputs": [],
      "name": "removeTrader",
      "outputs": [],
      "stateMutability": "nonpayable",
      "type": "function"
    },
    {
      "inputs": [],
      "name": "renounceManagerFeeIncrease",
      "outputs": [],
      "stateMutability": "nonpayable",
      "type": "function"
    },
    {
      "inputs": [
        {
          "internalType": "address",
          "name": "_poolLogic",
          "type": "address"
        }
      ],
      "name": "setPoolLogic",
      "outputs": [
        {
          "internalType": "bool",
          "name": "",
          "type": "bool"
        }
      ],
      "stateMutability": "nonpayable",
      "type": "function"
    },
    {
      "inputs": [
        {
          "internalType": "address",
          "name": "newTrader",
          "type": "address"
        }
      ],
      "name": "setTrader",
      "outputs": [],
      "stateMutability": "nonpayable",
      "type": "function"
    },
    {
      "inputs": [
        {
          "internalType": "uint256",
          "name": "",
          "type": "uint256"
        }
      ],
      "name": "supportedAssets",
      "outputs": [
        {
          "internalType": "address",
          "name": "asset",
          "type": "address"
        },
        {
          "internalType": "bool",
          "name": "isDeposit",
          "type": "bool"
        }
      ],
      "stateMutability": "view",
      "type": "function"
    },
    {
      "inputs": [],
      "name": "trader",
      "outputs": [
        {
          "internalType": "address",
          "name": "",
          "type": "address"
        }
      ],
      "stateMutability": "view",
      "type": "function"
    },
    {
      "inputs": [],
      "name": "unpause",
      "outputs": [],
      "stateMutability": "nonpayable",
      "type": "function"
    },
    {
      "inputs": [
        {
          "internalType": "address",
          "name": "asset",
          "type": "address"
        }
      ],
      "name": "validateAsset",
      "outputs": [
        {
          "internalType": "bool",
          "name": "",
          "type": "bool"
        }
      ],
      "stateMutability": "view",
      "type": "function"
    }
  ],
  "bytecode": "0x608060405234801561001057600080fd5b50613993806100206000396000f3fe608060405234801561001057600080fd5b50600436106102d65760003560e01c806382f86acc11610182578063bbbf725b116100e9578063cd88e558116100a2578063e5406dbf1161007c578063e5406dbf14610f2c578063ed5b165d14610f34578063f09d14d714610f3c578063fed4416a14611022576102d6565b8063cd88e55814610e37578063d8af8ed414610e5d578063db896b5714610e83576102d6565b8063bbbf725b14610be3578063c3c6279f14610c09578063c45a015514610cad578063c688aa6414610cb5578063c68dbb3714610df4578063ca6d56dc14610e11576102d6565b8063998546e31161013b578063998546e314610aa45780639eab525314610b4d578063a30e3fa914610ba5578063a6bc18f914610bad578063b187bd2614610bd3578063b8bd81e614610bdb576102d6565b806382f86acc146109975780638456cb5914610a405780638e10153d14610a485780638f32343914610a6e5780639240d29914610a76578063936553c414610a9c576102d6565b8063464b4158116102415780635c975abb116101fa5780637ae7cfb5116101d45780637ae7cfb5146108ad5780637b4d0c63146109615780637c8afd511461096957806380dd4f6214610971576102d6565b80635c975abb146107fc5780636e890f3c146108045780636f4d469b1461080c576102d6565b8063464b41581461058257806346ee84b0146105bc578063481c6a751461065d578063522136631461066557806353f064c914610719578063568b5a2f14610736576102d6565b80631eba3077116102935780631eba30771461044f57806329c07fba1461046c57806339b81fd9146104985780633c570d7d146104a05780633f4ba83a146104c657806341dc16c3146104ce576102d6565b806306468587146102db578063093b88251461030357806309ff5c7d146103295780630b1ca49a146103e45780631758078b1461040a578063198055381461042e575b600080fd5b610301600480360360208110156102f157600080fd5b50356001600160a01b031661109f565b005b6103016004803603602081101561031957600080fd5b50356001600160a01b03166112e0565b6103d26004803603604081101561033f57600080fd5b810190602081018135600160201b81111561035957600080fd5b82018360208201111561036b57600080fd5b803590602001918460018302840111600160201b8311171561038c57600080fd5b91908080601f0160208091040260200160405190810160405280939291908181526020018383808284376000920191909152509295505050903560ff1691506113569050565b60408051918252519081900360200190f35b610301600480360360208110156103fa57600080fd5b50356001600160a01b03166113e9565b610412611452565b604080516001600160a01b039092168252519081900360200190f35b610436611461565b6040805192835260208301919091528051918290030190f35b6104126004803603602081101561046557600080fd5b50356114eb565b6103d26004803603604081101561048257600080fd5b506001600160a01b0381351690602001356114ee565b6104126115f8565b6103d2600480360360208110156104b657600080fd5b50356001600160a01b0316611607565b610301611619565b6103d2600480360360608110156104e457600080fd5b810190602081018135600160201b8111156104fe57600080fd5b82018360208201111561051057600080fd5b803590602001918460018302840111600160201b8311171561053157600080fd5b91908080601f0160208091040260200160405190810160405280939291908181526020018383808284376000920191909152509295505060ff83358116945060209093013590921691506116719050565b6105a86004803603602081101561059857600080fd5b50356001600160a01b0316611759565b604080519115158252519081900360200190f35b610301600480360360208110156105d257600080fd5b810190602081018135600160201b8111156105ec57600080fd5b8201836020820111156105fe57600080fd5b803590602001918460208302840111600160201b8311171561061f57600080fd5b919080806020026020016040519081016040528093929190818152602001838360200280828437600092019190915250929550611776945050505050565b61041261181d565b6103016004803603604081101561067b57600080fd5b6001600160a01b038235169190810190604081016020820135600160201b8111156106a557600080fd5b8201836020820111156106b757600080fd5b803590602001918460018302840111600160201b831117156106d857600080fd5b91908080601f01602080910402602001604051908101604052809392919081815260200183838082843760009201919091525092955061182c945050505050565b6103016004803603602081101561072f57600080fd5b5035611957565b6107df6004803603606081101561074c57600080fd5b810190602081018135600160201b81111561076657600080fd5b82018360208201111561077857600080fd5b803590602001918460018302840111600160201b8311171561079957600080fd5b91908080601f0160208091040260200160405190810160405280939291908181526020018383808284376000920191909152509295505082359350505060200135611b90565b604080516001600160e01b03199092168252519081900360200190f35b6105a8611c11565b610301611c1a565b6103016004803603602081101561082257600080fd5b810190602081018135600160201b81111561083c57600080fd5b82018360208201111561084e57600080fd5b803590602001918460208302840111600160201b8311171561086f57600080fd5b919080806020026020016040519081016040528093929190818152602001838360200280828437600092019190915250929550611cd6945050505050565b6105a8600480360360408110156108c357600080fd5b6001600160a01b038235169190810190604081016020820135600160201b8111156108ed57600080fd5b8201836020820111156108ff57600080fd5b803590602001918460018302840111600160201b8311171561092057600080fd5b91908080601f016020809104026020016040519081016040528093929190818152602001838380828437600092019190915250929550611d6d945050505050565b6103d26121e0565b6103016121e6565b6105a86004803603602081101561098757600080fd5b50356001600160a01b0316612246565b6103d2600480360360408110156109ad57600080fd5b810190602081018135600160201b8111156109c757600080fd5b8201836020820111156109d957600080fd5b803590602001918460018302840111600160201b831117156109fa57600080fd5b91908080601f0160208091040260200160405190810160405280939291908181526020018383808284376000920191909152509295505050903560ff16915061225b9050565b610301612279565b6105a860048036036020811015610a5e57600080fd5b50356001600160a01b03166122cf565b6103d26124c5565b6105a860048036036020811015610a8c57600080fd5b50356001600160a01b03166124cb565b6103d261254e565b6103d260048036036040811015610aba57600080fd5b810190602081018135600160201b811115610ad457600080fd5b820183602082011115610ae657600080fd5b803590602001918460018302840111600160201b83111715610b0757600080fd5b91908080601f0160208091040260200160405190810160405280939291908181526020018383808284376000920191909152509295505050903560ff1691506125549050565b610b55612585565b60408051602080825283518183015283519192839290830191858101910280838360005b83811015610b91578181015183820152602001610b79565b505050509050019250505060405180910390f35b6103d26125e7565b61030160048036036020811015610bc357600080fd5b50356001600160a01b03166125ed565b6105a861265d565b61030161266c565b6105a860048036036020811015610bf957600080fd5b50356001600160a01b03166126ef565b6107df60048036036020811015610c1f57600080fd5b810190602081018135600160201b811115610c3957600080fd5b820183602082011115610c4b57600080fd5b803590602001918460018302840111600160201b83111715610c6c57600080fd5b91908080601f01602080910402602001604051908101604052809392919081815260200183838082843760009201919091525092955061270c945050505050565b61041261271b565b61030160048036036080811015610ccb57600080fd5b6001600160a01b038235811692602081013590911691810190606081016040820135600160201b811115610cfe57600080fd5b820183602082011115610d1057600080fd5b803590602001918460018302840111600160201b83111715610d3157600080fd5b91908080601f0160208091040260200160405190810160405280939291908181526020018383808284376000920191909152509295949360208101935035915050600160201b811115610d8357600080fd5b820183602082011115610d9557600080fd5b803590602001918460208302840111600160201b83111715610db657600080fd5b91908080602002602001604051908101604052809392919081815260200183836020028082843760009201919091525092955061272a945050505050565b61041260048036036020811015610e0a57600080fd5b5035612834565b61030160048036036020811015610e2757600080fd5b50356001600160a01b031661285b565b6103d260048036036020811015610e4d57600080fd5b50356001600160a01b03166128c5565b6103d260048036036020811015610e7357600080fd5b50356001600160a01b0316612913565b6103d260048036036060811015610e9957600080fd5b810190602081018135600160201b811115610eb357600080fd5b820183602082011115610ec557600080fd5b803590602001918460018302840111600160201b83111715610ee657600080fd5b91908080601f0160208091040260200160405190810160405280939291908181526020018383808284376000920191909152509295505082359350505060200135612927565b610b556129a3565b610436612a03565b610f44612a0d565b60405180806020018060200180602001848103845287818151815260200191508051906020019060200280838360005b83811015610f8c578181015183820152602001610f74565b50505050905001848103835286818151815260200191508051906020019060200280838360005b83811015610fcb578181015183820152602001610fb3565b50505050905001848103825285818151815260200191508051906020019060200280838360005b8381101561100a578181015183820152602001610ff2565b50505050905001965050505050505060405180910390f35b61102a612bff565b6040805160208082528351818301528351919283929083019185019080838360005b8381101561106457818101518382015260200161104c565b50505050905090810190601f1680156110915780820380516001836020036101000a031916815260200191505b509250505060405180910390f35b609c60009054906101000a90046001600160a01b03166001600160a01b0316638da5cb5b6040518163ffffffff1660e01b815260040160206040518083038186803b1580156110ed57600080fd5b505afa158015611101573d6000803e3d6000fd5b505050506040513d602081101561111757600080fd5b50516001600160a01b0316331480611147575061113261181d565b6001600160a01b0316336001600160a01b0316145b8061116a5750611155611452565b6001600160a01b0316336001600160a01b0316145b6111bb576040805162461bcd60e51b815260206004820152601b60248201527f6f6e6c79206d616e616765722c20747261646572206f722044414f0000000000604482015290519081900360640190fd5b6111c481611759565b61120b576040805162461bcd60e51b8152602060048201526013602482015272185cdcd95d081b9bdd081cdd5c1c1bdc9d1959606a1b604482015290519081900360640190fd5b6001600160a01b038116600090815260a0602052604090205460ff1615611279576040805162461bcd60e51b815260206004820152601f60248201527f63616e6e6f742072656d6f76652070657273697374656e742061737365747300604482015290519081900360640190fd5b611282816128c5565b156112d4576040805162461bcd60e51b815260206004820152601d60248201527f63616e6e6f742072656d6f7665206e6f6e2d656d707479206173736574000000604482015290519081900360640190fd5b6112dd81612c8c565b50565b6033546001600160a01b031633148061130357506037546001600160a01b031633145b61134d576040805162461bcd60e51b815260206004820152601660248201527537b7363c9036b0b730b3b2b91037b9103a3930b232b960511b604482015290519081900360640190fd5b6112dd81612de6565b60008061136e848460200260040160ff166020612927565b9050600061138185600484016020612927565b9050806113ca576040805162461bcd60e51b8152602060048201526012602482015271696e707574206973206e6f7420617272617960701b604482015290519081900360640190fd5b6113de856020808402850160040190612927565b925050505b92915050565b6033546001600160a01b03163314611437576040805162461bcd60e51b815260206004820152600c60248201526b37b7363c9036b0b730b3b2b960a11b604482015290519081900360640190fd5b611440816126ef565b611449576112dd565b6112dd81613012565b6037546001600160a01b031690565b609c54609d5460408051635bd2a29360e11b81526001600160a01b03928316600482015281516000948594169263b7a545269260248082019391829003018186803b1580156114af57600080fd5b505afa1580156114c3573d6000803e3d6000fd5b505050506040513d60408110156114d957600080fd5b50805160209091015190925090509091565b90565b609c5460408051638b2f0f4f60e01b81526001600160a01b038581166004830152915160009384931691638b2f0f4f916024808301926020929190829003018186803b15801561153d57600080fd5b505afa158015611551573d6000803e3d6000fd5b505050506040513d602081101561156757600080fd5b50516040805163313ce56760e01b815290519192506000916001600160a01b0387169163313ce567916004808301926020929190829003018186803b1580156115af57600080fd5b505afa1580156115c3573d6000803e3d6000fd5b505050506040513d60208110156115d957600080fd5b505160ff1690506113de600a82900a6115f2848761310b565b90613164565b609d546001600160a01b031681565b609f6020526000908152604090205481565b6033546001600160a01b03163314611667576040805162461bcd60e51b815260206004820152600c60248201526b37b7363c9036b0b730b3b2b960a11b604482015290519081900360640190fd5b61166f6131a6565b565b600080611689858560200260040160ff166020612927565b9050600061169c86600484016020612927565b9050806116e5576040805162461bcd60e51b8152602060048201526012602482015271696e707574206973206e6f7420617272617960701b604482015290519081900360640190fd5b60ff84168111611735576040805162461bcd60e51b815260206004820152601660248201527534b73b30b634b21030b93930bc903837b9b4ba34b7b760511b604482015290519081900360640190fd5b61174f866020600160ff8816018102850160040190612927565b9695505050505050565b6001600160a01b03166000908152609f6020526040902054151590565b6033546001600160a01b031633146117c4576040805162461bcd60e51b815260206004820152600c60248201526b37b7363c9036b0b730b3b2b960a11b604482015290519081900360640190fd5b60005b8151811015611819576117ec8282815181106117df57fe5b60200260200101516126ef565b6117f557611811565b61181182828151811061180457fe5b6020026020010151613012565b6001016117c7565b5050565b6033546001600160a01b031690565b6033546001600160a01b0316331461187a576040805162461bcd60e51b815260206004820152600c60248201526b37b7363c9036b0b730b3b2b960a11b604482015290519081900360640190fd5b603380546001600160a01b0319166001600160a01b03841617905580516118a8906034906020840190613858565b507f6ed15082ad038474841528b5badca105106d4463e44b5d434130dfb299aa3669828260405180836001600160a01b0316815260200180602001828103825283818151815260200191508051906020019080838360005b83811015611918578181015183820152602001611900565b50505050905090810190601f1680156119455780820380516001836020036101000a031916815260200191505b50935050505060405180910390a15050565b6033546001600160a01b031633146119a5576040805162461bcd60e51b815260206004820152600c60248201526b37b7363c9036b0b730b3b2b960a11b604482015290519081900360640190fd5b609c5460408051635c9bfc2b60e01b815290516000926001600160a01b031691635c9bfc2b916004808301926020929190829003018186803b1580156119ea57600080fd5b505afa1580156119fe573d6000803e3d6000fd5b505050506040513d6020811015611a1457600080fd5b50519050600080611a23611461565b909250905080841115611a70576040805162461bcd60e51b815260206004820152601060248201526f34b73b30b634b210333930b1ba34b7b760811b604482015290519081900360640190fd5b611a7a8284613244565b841115611ace576040805162461bcd60e51b815260206004820152601960248201527f657863656564656420616c6c6f77656420696e63726561736500000000000000604482015290519081900360640190fd5b609c546040805163ebee461d60e01b815290516000926001600160a01b03169163ebee461d916004808301926020929190829003018186803b158015611b1357600080fd5b505afa158015611b27573d6000803e3d6000fd5b505050506040513d6020811015611b3d57600080fd5b505160a186905542810160a281905560408051888152602081019290925280519293507f4db9119741646c419f1ceccdf112b5b9a9b4516355e742e1fa9c479f4dec98da92918290030190a15050505050565b600081830184511015611bea576040805162461bcd60e51b815260206004820152601b60248201527f52656164696e67206279746573206f7574206f6620626f756e64730000000000604482015290519081900360640190fd5b826020018401519050816004038015611c09576008810260020a820491505b509392505050565b606a5460ff1690565b6033546001600160a01b03163314611c68576040805162461bcd60e51b815260206004820152600c60248201526b37b7363c9036b0b730b3b2b960a11b604482015290519081900360640190fd5b60a254421015611cbf576040805162461bcd60e51b815260206004820152601960248201527f66656520696e6372656173652064656c61792061637469766500000000000000604482015290519081900360640190fd5b611cca60a15461329e565b600060a181905560a255565b6033546001600160a01b03163314611d24576040805162461bcd60e51b815260206004820152600c60248201526b37b7363c9036b0b730b3b2b960a11b604482015290519081900360640190fd5b60005b815181101561181957611d3f8282815181106117df57fe5b15611d4957611d65565b611d65828281518110611d5857fe5b6020026020010151613404565b600101611d27565b6033546000906001600160a01b0316331480611d9357506037546001600160a01b031633145b611ddd576040805162461bcd60e51b815260206004820152601660248201527537b7363c9036b0b730b3b2b91037b9103a3930b232b960511b604482015290519081900360640190fd5b606a5460ff1615611e28576040805162461bcd60e51b815260206004820152601060248201526f14185d5cd8589b194e881c185d5cd95960821b604482015290519081900360640190fd5b6001600160a01b038316611e83576040805162461bcd60e51b815260206004820152601c60248201527f6e6f6e2d7a65726f206164647265737320697320726571756972656400000000604482015290519081900360640190fd5b609c5460408051631c09fa9b60e21b81526001600160a01b03868116600483015291516000939290921691637027ea6c91602480820192602092909190829003018186803b158015611ed457600080fd5b505afa158015611ee8573d6000803e3d6000fd5b505050506040513d6020811015611efe57600080fd5b505190506001600160a01b038116611f53576040805162461bcd60e51b815260206004820152601360248201527234b73b30b634b2103232b9ba34b730ba34b7b760691b604482015290519081900360640190fd5b6040805163e23ff43760e01b81523060048201818152602483019384528651604484015286516001600160a01b0386169463e23ff43794899392606490910190602085019080838360005b83811015611fb6578181015183820152602001611f9e565b50505050905090810190601f168015611fe35780820380516001836020036101000a031916815260200191505b509350505050602060405180830381600087803b15801561200357600080fd5b505af1158015612017573d6000803e3d6000fd5b505050506040513d602081101561202d57600080fd5b5051612076576040805162461bcd60e51b815260206004820152601360248201527234b73b30b634b2103a3930b739b0b1ba34b7b760691b604482015290519081900360640190fd5b6000846001600160a01b0316846040518082805190602001908083835b602083106120b25780518252601f199092019160209182019101612093565b6001836020036101000a0380198251168184511680821785525050505050509050019150506000604051808303816000865af19150503d8060008114612114576040519150601f19603f3d011682016040523d82523d6000602084013e612119565b606091505b5090915050600181151514612175576040805162461bcd60e51b815260206004820152601a60248201527f6661696c656420746f2065786563757465207468652063616c6c000000000000604482015290519081900360640190fd5b609d547f508f3afa87f72dce865a2321107666b28ac822c23a8c0555fbeb3424cf3de563906001600160a01b03166121ab61181d565b604080516001600160a01b039384168152919092166020820152428183015290519081900360600190a1506001949350505050565b60a25481565b6033546001600160a01b03163314612234576040805162461bcd60e51b815260206004820152600c60248201526b37b7363c9036b0b730b3b2b960a11b604482015290519081900360640190fd5b603780546001600160a01b0319169055565b60a06020526000908152604090205460ff1681565b6000612272838360200260040160ff166020612927565b9392505050565b6033546001600160a01b031633146122c7576040805162461bcd60e51b815260206004820152600c60248201526b37b7363c9036b0b730b3b2b960a11b604482015290519081900360640190fd5b61166f613460565b609c546000906001600160a01b031633148061236c5750609c60009054906101000a90046001600160a01b03166001600160a01b0316631d68702d6040518163ffffffff1660e01b815260040160206040518083038186803b15801561233457600080fd5b505afa158015612348573d6000803e3d6000fd5b505050506040513d602081101561235e57600080fd5b50516001600160a01b031633145b6123a75760405162461bcd60e51b81526004018080602001828103825260238152602001806138ec6023913960400191505060405180910390fd5b306001600160a01b0316826001600160a01b0316631e50a4a66040518163ffffffff1660e01b815260040160206040518083038186803b1580156123ea57600080fd5b505afa1580156123fe573d6000803e3d6000fd5b505050506040513d602081101561241457600080fd5b50516001600160a01b031614612466576040805162461bcd60e51b8152602060048201526012602482015271696e76616c696420706f6f6c206c6f67696360701b604482015290519081900360640190fd5b609d80546001600160a01b0319166001600160a01b0384169081179091556040805191825233602083015280517f8c1446ebd2ac8c922b8c9716dfbdfcfef02c9fc167140d7cfd019565b423b2499281900390910190a1506001919050565b60a15481565b609c546040805163cc435bf360e01b81526001600160a01b0384811660048301529151600093929092169163cc435bf391602480820192602092909190829003018186803b15801561251c57600080fd5b505afa158015612530573d6000803e3d6000fd5b505050506040513d602081101561254657600080fd5b505192915050565b609e5490565b60008061256c848460200260040160ff166020612927565b905061257d84600483016020612927565b949350505050565b606060358054806020026020016040519081016040528092919081815260200182805480156125dd57602002820191906000526020600020905b81546001600160a01b031681526001909101906020018083116125bf575b5050505050905090565b60355490565b6033546001600160a01b0316331461263b576040805162461bcd60e51b815260206004820152600c60248201526b37b7363c9036b0b730b3b2b960a11b604482015290519081900360640190fd5b603780546001600160a01b0319166001600160a01b0392909216919091179055565b6000612667611c11565b905090565b6033546001600160a01b031633146126ba576040805162461bcd60e51b815260206004820152600c60248201526b37b7363c9036b0b730b3b2b960a11b604482015290519081900360640190fd5b600060a181905560a28190556040517fc6f04bf43cbdf1ba5d51b4afa160bb3c7e13858b1409aa32868b239bb2f8d8499190a1565b6001600160a01b0316600090815260366020526040902054151590565b60006113e38260006004611b90565b609c546001600160a01b031681565b600054610100900460ff168061274357506127436134e1565b80612751575060005460ff16155b61278c5760405162461bcd60e51b815260040180806020018281038252602e815260200180613930602e913960400191505060405180910390fd5b600054610100900460ff161580156127b7576000805460ff1961ff0019909116610100171660011790555b6127c184846134e7565b6127c961351a565b609c80546001600160a01b0319166001600160a01b03871617905560005b82518160ff16101561281a57612812838260ff168151811061280557fe5b6020026020010151612de6565b6001016127e7565b50801561282d576000805461ff00191690555b5050505050565b609e818154811061284157fe5b6000918252602090912001546001600160a01b0316905081565b6033546001600160a01b031633146128a9576040805162461bcd60e51b815260206004820152600c60248201526b37b7363c9036b0b730b3b2b960a11b604482015290519081900360640190fd5b6128b2816126ef565b156128bc576112dd565b6112dd81613404565b609d54604080516370a0823160e01b81526001600160a01b03928316600482015290516000928416916370a08231916024808301926020929190829003018186803b15801561251c57600080fd5b60006113e382612922846128c5565b6114ee565b600081830184511015612981576040805162461bcd60e51b815260206004820152601b60248201527f52656164696e67206279746573206f7574206f6620626f756e64730000000000604482015290519081900360640190fd5b826020018401519050816020038015611c095760080260020a90049392505050565b6060609e8054806020026020016040519081016040528092919081815260200182805480156125dd576020028201919060005260206000209081546001600160a01b031681526001909101906020018083116125bf575050505050905090565b60a15460a2549091565b609e5460609081908190818167ffffffffffffffff81118015612a2f57600080fd5b50604051908082528060200260200182016040528015612a59578160200160208202803683370190505b50905060608267ffffffffffffffff81118015612a7557600080fd5b50604051908082528060200260200182016040528015612a9f578160200160208202803683370190505b50905060608367ffffffffffffffff81118015612abb57600080fd5b50604051908082528060200260200182016040528015612ae5578160200160208202803683370190505b50905060005b84811015612bf1576000609e8281548110612b0257fe5b6000918252602090912001546001600160a01b03169050612b22816128c5565b848381518110612b2e57fe5b60200260200101818152505080858381518110612b4757fe5b6001600160a01b03928316602091820292909201810191909152609c5460408051638b2f0f4f60e01b8152858516600482015290519190931692638b2f0f4f926024808301939192829003018186803b158015612ba357600080fd5b505afa158015612bb7573d6000803e3d6000fd5b505050506040513d6020811015612bcd57600080fd5b50518351849084908110612bdd57fe5b602090810291909101015250600101612aeb565b509195509350915050909192565b60348054604080516020601f60026000196101006001881615020190951694909404938401819004810282018101909252828152606093909290918301828280156125dd5780601f10612c60576101008083540402835291602001916125dd565b820191906000526020600020905b815481529060010190602001808311612c6e57509395945050505050565b609e546001600160a01b0382166000908152609f6020526040812054612cb39060016135cb565b90506000609e612cc48460016135cb565b81548110612cce57fe5b600091825260209091200154609e80546001600160a01b039092169250829184908110612cf757fe5b600091825260209091200180546001600160a01b0319166001600160a01b0392909216919091179055612d2b826001613244565b6001600160a01b038083166000908152609f602052604080822093909355908616815290812055609e805480612d5d57fe5b600082815260209020810160001990810180546001600160a01b0319169055019055609d547f9b4f55639e5e283319baee5bc4e69a5625a8e3a1cc004af968f4fee725022027906001600160a01b0316612db561181d565b604080516001600160a01b03938416815291831660208301529187168183015290519081900360600190a150505050565b609c60009054906101000a90046001600160a01b03166001600160a01b031663aa12ae4d6040518163ffffffff1660e01b815260040160206040518083038186803b158015612e3457600080fd5b505afa158015612e48573d6000803e3d6000fd5b505050506040513d6020811015612e5e57600080fd5b5051609e5410612eae576040805162461bcd60e51b81526020600482015260166024820152751b585e1a5b5d5b48185cdcd95d1cc81c995858da195960521b604482015290519081900360640190fd5b612eb781611759565b15612f09576040805162461bcd60e51b815260206004820152601760248201527f617373657420616c726561647920737570706f72746564000000000000000000604482015290519081900360640190fd5b612f12816124cb565b1515600114612f58576040805162461bcd60e51b815260206004820152600d60248201526c1a5b9d985b1a5908185cdcd95d609a1b604482015290519081900360640190fd5b609e80546001810182557fcfe2a20ff701a1f3e14f63bd70d6c6bc6fba8172ec6d5a505cdab3927c0a9de60180546001600160a01b0319166001600160a01b0384811691821790925591546000928352609f602052604090922091909155609d547f0a7426a0630aad7dbc4d5ca5b7d9aac1133d77d2db987caaf4b4186c85d6593f9116612fe461181d565b604080516001600160a01b03938416815291831660208301529184168183015290519081900360600190a150565b6035546001600160a01b0382166000908152603660205260408120546130399060016135cb565b90506000603561304a8460016135cb565b8154811061305457fe5b600091825260209091200154603580546001600160a01b03909216925082918490811061307d57fe5b600091825260209091200180546001600160a01b0319166001600160a01b03929092169190911790556130b1826001613244565b6001600160a01b038083166000908152603660205260408082209390935590861681529081205560358054806130e357fe5b600082815260209020810160001990810180546001600160a01b031916905501905550505050565b60008261311a575060006113e3565b8282028284828161312757fe5b04146122725760405162461bcd60e51b815260040180806020018281038252602181526020018061390f6021913960400191505060405180910390fd5b600061227283836040518060400160405280601a81526020017f536166654d6174683a206469766973696f6e206279207a65726f00000000000081525061360d565b606a5460ff166131f4576040805162461bcd60e51b815260206004820152601460248201527314185d5cd8589b194e881b9bdd081c185d5cd95960621b604482015290519081900360640190fd5b606a805460ff191690557f5db9ee0a495bf2e6ff9c91a7834c1ba4fdd244a5e8aa4e537bd38aeae4b073aa6132276136af565b604080516001600160a01b039092168252519081900360200190a1565b600082820183811015612272576040805162461bcd60e51b815260206004820152601b60248201527f536166654d6174683a206164646974696f6e206f766572666c6f770000000000604482015290519081900360640190fd5b609c54609d546040805163011adcb160e21b81526001600160a01b039283166004820152602481018590529051919092169163046b72c491604480830192600092919082900301818387803b1580156132f657600080fd5b505af115801561330a573d6000803e3d6000fd5b5050609c54609d5460408051635bd2a29360e11b81526001600160a01b039283166004820152815160009650869550929093169263b7a545269260248083019392829003018186803b15801561335f57600080fd5b505afa158015613373573d6000803e3d6000fd5b505050506040513d604081101561338957600080fd5b508051602090910151609d5491935091507f1780c04ddc6f0b32d866c7a3d7583f53515ef49ed2126af868f804f491601266906001600160a01b03166133cd61181d565b604080516001600160a01b0393841681529190921660208201528082018590526060810184905290519081900360800190a1505050565b603580546001810182557fcfa4bec1d3298408bb5afcfcd9c430549c5b31f8aa5c5848151c0a55f473c34d0180546001600160a01b039093166001600160a01b0319909316831790555460009182526036602052604090912055565b606a5460ff16156134ab576040805162461bcd60e51b815260206004820152601060248201526f14185d5cd8589b194e881c185d5cd95960821b604482015290519081900360640190fd5b606a805460ff191660011790557f62e78cea01bee320cd4e420270b5ea74000d11b0c9f74754ebdbfc544b05a2586132276136af565b303b1590565b603380546001600160a01b0319166001600160a01b0384161790558051613515906034906020840190613858565b505050565b600054610100900460ff168061353357506135336134e1565b80613541575060005460ff16155b61357c5760405162461bcd60e51b815260040180806020018281038252602e815260200180613930602e913960400191505060405180910390fd5b600054610100900460ff161580156135a7576000805460ff1961ff0019909116610100171660011790555b6135af6136b3565b6135b7613753565b80156112dd576000805461ff001916905550565b600061227283836040518060400160405280601e81526020017f536166654d6174683a207375627472616374696f6e206f766572666c6f7700008152506137fe565b600081836136995760405162461bcd60e51b81526004018080602001828103825283818151815260200191508051906020019080838360005b8381101561365e578181015183820152602001613646565b50505050905090810190601f16801561368b5780820380516001836020036101000a031916815260200191505b509250505060405180910390fd5b5060008385816136a557fe5b0495945050505050565b3390565b600054610100900460ff16806136cc57506136cc6134e1565b806136da575060005460ff16155b6137155760405162461bcd60e51b815260040180806020018281038252602e815260200180613930602e913960400191505060405180910390fd5b600054610100900460ff161580156135b7576000805460ff1961ff00199091166101001716600117905580156112dd576000805461ff001916905550565b600054610100900460ff168061376c575061376c6134e1565b8061377a575060005460ff16155b6137b55760405162461bcd60e51b815260040180806020018281038252602e815260200180613930602e913960400191505060405180910390fd5b600054610100900460ff161580156137e0576000805460ff1961ff0019909116610100171660011790555b606a805460ff1916905580156112dd576000805461ff001916905550565b600081848411156138505760405162461bcd60e51b815260206004820181815283516024840152835190928392604490910191908501908083836000831561365e578181015183820152602001613646565b505050900390565b828054600181600116156101000203166002900490600052602060002090601f016020900481019282601f1061389957805160ff19168380011785556138c6565b828001600101855582156138c6579182015b828111156138c65782518255916020019190600101906138ab565b506138d29291506138d6565b5090565b5b808211156138d257600081556001016138d756fe6f6e6c792044414f206f7220666163746f7279206164647265737320616c6c6f776564536166654d6174683a206d756c7469706c69636174696f6e206f766572666c6f77436f6e747261637420696e7374616e63652068617320616c7265616479206265656e20696e697469616c697a6564a26469706673582212205adbff3443dd94d6732e851f69a02d2c183b9021640c368cd7ca9a794c1c6da064736f6c634300060c0033",
  "linkReferences": {},
  "deployedLinkReferences": {}
}