{
  "_format": "hh-sol-artifact-1",
  "contractName": "PoolManagerLogic-ovm",
  "sourceName": "contracts/PoolManagerLogic.sol",
  "abi": [
    {
      "anonymous": false,
      "inputs": [
        {
          "indexed": false,
          "internalType": "address",
          "name": "fundAddress",
          "type": "address"
        },
        {
          "indexed": false,
          "internalType": "address",
          "name": "manager",
          "type": "address"
        },
        {
          "indexed": false,
          "internalType": "address",
          "name": "asset",
          "type": "address"
        },
        {
          "indexed": false,
          "internalType": "bool",
          "name": "isDeposit",
          "type": "bool"
        }
      ],
      "name": "AssetAdded",
      "type": "event"
    },
    {
      "anonymous": false,
      "inputs": [
        {
          "indexed": false,
          "internalType": "address",
          "name": "fundAddress",
          "type": "address"
        },
        {
          "indexed": false,
          "internalType": "address",
          "name": "manager",
          "type": "address"
        },
        {
          "indexed": false,
          "internalType": "address",
          "name": "asset",
          "type": "address"
        },
        {
          "indexed": false,
          "internalType": "bool",
          "name": "isDeposit",
          "type": "bool"
        }
      ],
      "name": "AssetRemoved",
      "type": "event"
    },
    {
      "anonymous": false,
      "inputs": [
        {
          "indexed": false,
          "internalType": "uint256",
          "name": "newNumerator",
          "type": "uint256"
        },
        {
          "indexed": false,
          "internalType": "uint256",
          "name": "announcedFeeActivationTime",
          "type": "uint256"
        }
      ],
      "name": "ManagerFeeIncreaseAnnounced",
      "type": "event"
    },
    {
      "anonymous": false,
      "inputs": [],
      "name": "ManagerFeeIncreaseRenounced",
      "type": "event"
    },
    {
      "anonymous": false,
      "inputs": [
        {
          "indexed": false,
          "internalType": "address",
          "name": "fundAddress",
          "type": "address"
        },
        {
          "indexed": false,
          "internalType": "address",
          "name": "manager",
          "type": "address"
        },
        {
          "indexed": false,
          "internalType": "uint256",
          "name": "numerator",
          "type": "uint256"
        },
        {
          "indexed": false,
          "internalType": "uint256",
          "name": "denominator",
          "type": "uint256"
        }
      ],
      "name": "ManagerFeeSet",
      "type": "event"
    },
    {
      "anonymous": false,
      "inputs": [
        {
          "indexed": false,
          "internalType": "address",
          "name": "newManager",
          "type": "address"
        },
        {
          "indexed": false,
          "internalType": "string",
          "name": "newManagerName",
          "type": "string"
        }
      ],
      "name": "ManagerUpdated",
      "type": "event"
    },
    {
      "anonymous": false,
      "inputs": [
        {
          "indexed": false,
          "internalType": "address",
          "name": "poolLogic",
          "type": "address"
        },
        {
          "indexed": false,
          "internalType": "address",
          "name": "from",
          "type": "address"
        }
      ],
      "name": "PoolLogicSet",
      "type": "event"
    },
    {
      "anonymous": false,
      "inputs": [
        {
          "indexed": false,
          "internalType": "address",
          "name": "fundAddress",
          "type": "address"
        },
        {
          "indexed": false,
          "internalType": "address",
          "name": "manager",
          "type": "address"
        },
        {
          "indexed": false,
          "internalType": "uint256",
          "name": "time",
          "type": "uint256"
        }
      ],
      "name": "TransactionExecuted",
      "type": "event"
    },
    {
      "inputs": [
        {
          "internalType": "address",
          "name": "member",
          "type": "address"
        }
      ],
      "name": "addMember",
      "outputs": [],
      "stateMutability": "nonpayable",
      "type": "function"
    },
    {
      "inputs": [
        {
          "internalType": "address[]",
          "name": "members",
          "type": "address[]"
        }
      ],
      "name": "addMembers",
      "outputs": [],
      "stateMutability": "nonpayable",
      "type": "function"
    },
    {
      "inputs": [
        {
          "internalType": "uint256",
          "name": "numerator",
          "type": "uint256"
        }
      ],
      "name": "announceManagerFeeIncrease",
      "outputs": [],
      "stateMutability": "nonpayable",
      "type": "function"
    },
    {
      "inputs": [],
      "name": "announcedFeeIncreaseNumerator",
      "outputs": [
        {
          "internalType": "uint256",
          "name": "",
          "type": "uint256"
        }
      ],
      "stateMutability": "view",
      "type": "function"
    },
    {
      "inputs": [],
      "name": "announcedFeeIncreaseTimestamp",
      "outputs": [
        {
          "internalType": "uint256",
          "name": "",
          "type": "uint256"
        }
      ],
      "stateMutability": "view",
      "type": "function"
    },
    {
      "inputs": [
        {
          "internalType": "address",
          "name": "asset",
          "type": "address"
        }
      ],
      "name": "assetBalance",
      "outputs": [
        {
          "internalType": "uint256",
          "name": "",
          "type": "uint256"
        }
      ],
      "stateMutability": "view",
      "type": "function"
    },
    {
      "inputs": [
        {
          "internalType": "address",
          "name": "",
          "type": "address"
        }
      ],
      "name": "assetPosition",
      "outputs": [
        {
          "internalType": "uint256",
          "name": "",
          "type": "uint256"
        }
      ],
      "stateMutability": "view",
      "type": "function"
    },
    {
      "inputs": [
        {
          "internalType": "address",
          "name": "asset",
          "type": "address"
        },
        {
          "internalType": "uint256",
          "name": "amount",
          "type": "uint256"
        }
      ],
      "name": "assetValue",
      "outputs": [
        {
          "internalType": "uint256",
          "name": "",
          "type": "uint256"
        }
      ],
      "stateMutability": "view",
      "type": "function"
    },
    {
      "inputs": [
        {
          "internalType": "address",
          "name": "asset",
          "type": "address"
        }
      ],
      "name": "assetValue",
      "outputs": [
        {
          "internalType": "uint256",
          "name": "",
          "type": "uint256"
        }
      ],
      "stateMutability": "view",
      "type": "function"
    },
    {
      "inputs": [
        {
          "components": [
            {
              "internalType": "address",
              "name": "asset",
              "type": "address"
            },
            {
              "internalType": "bool",
              "name": "isDeposit",
              "type": "bool"
            }
          ],
          "internalType": "struct IPoolManagerLogic.Asset[]",
          "name": "_addAssets",
          "type": "tuple[]"
        },
        {
          "components": [
            {
              "internalType": "address",
              "name": "asset",
              "type": "address"
            },
            {
              "internalType": "bool",
              "name": "isDeposit",
              "type": "bool"
            }
          ],
          "internalType": "struct IPoolManagerLogic.Asset[]",
          "name": "_removeAssets",
          "type": "tuple[]"
        }
      ],
      "name": "changeAssets",
      "outputs": [],
      "stateMutability": "nonpayable",
      "type": "function"
    },
    {
      "inputs": [
        {
          "internalType": "address",
          "name": "newManager",
          "type": "address"
        },
        {
          "internalType": "string",
          "name": "newManagerName",
          "type": "string"
        }
      ],
      "name": "changeManager",
      "outputs": [],
      "stateMutability": "nonpayable",
      "type": "function"
    },
    {
      "inputs": [],
      "name": "commitManagerFeeIncrease",
      "outputs": [],
      "stateMutability": "nonpayable",
      "type": "function"
    },
    {
      "inputs": [
        {
          "internalType": "bytes32",
          "name": "data",
          "type": "bytes32"
        }
      ],
      "name": "convert32toAddress",
      "outputs": [
        {
          "internalType": "address",
          "name": "o",
          "type": "address"
        }
      ],
      "stateMutability": "pure",
      "type": "function"
    },
    {
      "inputs": [
        {
          "internalType": "address",
          "name": "to",
          "type": "address"
        },
        {
          "internalType": "bytes",
          "name": "data",
          "type": "bytes"
        }
      ],
      "name": "execTransaction",
      "outputs": [
        {
          "internalType": "bool",
          "name": "",
          "type": "bool"
        }
      ],
      "stateMutability": "nonpayable",
      "type": "function"
    },
    {
      "inputs": [],
      "name": "factory",
      "outputs": [
        {
          "internalType": "address",
          "name": "",
          "type": "address"
        }
      ],
      "stateMutability": "view",
      "type": "function"
    },
    {
      "inputs": [
        {
          "internalType": "bytes",
          "name": "data",
          "type": "bytes"
        },
        {
          "internalType": "uint8",
          "name": "inputNum",
          "type": "uint8"
        },
        {
          "internalType": "uint8",
          "name": "arrayIndex",
          "type": "uint8"
        }
      ],
      "name": "getArrayIndex",
      "outputs": [
        {
          "internalType": "bytes32",
          "name": "",
          "type": "bytes32"
        }
      ],
      "stateMutability": "pure",
      "type": "function"
    },
    {
      "inputs": [
        {
          "internalType": "bytes",
          "name": "data",
          "type": "bytes"
        },
        {
          "internalType": "uint8",
          "name": "inputNum",
          "type": "uint8"
        }
      ],
      "name": "getArrayLast",
      "outputs": [
        {
          "internalType": "bytes32",
          "name": "",
          "type": "bytes32"
        }
      ],
      "stateMutability": "pure",
      "type": "function"
    },
    {
      "inputs": [
        {
          "internalType": "bytes",
          "name": "data",
          "type": "bytes"
        },
        {
          "internalType": "uint8",
          "name": "inputNum",
          "type": "uint8"
        }
      ],
      "name": "getArrayLength",
      "outputs": [
        {
          "internalType": "uint256",
          "name": "",
          "type": "uint256"
        }
      ],
      "stateMutability": "pure",
      "type": "function"
    },
    {
      "inputs": [],
      "name": "getFundComposition",
      "outputs": [
        {
          "internalType": "address[]",
          "name": "",
          "type": "address[]"
        },
        {
          "internalType": "uint256[]",
          "name": "",
          "type": "uint256[]"
        },
        {
          "internalType": "uint256[]",
          "name": "",
          "type": "uint256[]"
        }
      ],
      "stateMutability": "view",
      "type": "function"
    },
    {
      "inputs": [
        {
          "internalType": "bytes",
          "name": "data",
          "type": "bytes"
        },
        {
          "internalType": "uint8",
          "name": "inputNum",
          "type": "uint8"
        }
      ],
      "name": "getInput",
      "outputs": [
        {
          "internalType": "bytes32",
          "name": "",
          "type": "bytes32"
        }
      ],
      "stateMutability": "pure",
      "type": "function"
    },
    {
      "inputs": [],
      "name": "getManagerFee",
      "outputs": [
        {
          "internalType": "uint256",
          "name": "",
          "type": "uint256"
        },
        {
          "internalType": "uint256",
          "name": "",
          "type": "uint256"
        }
      ],
      "stateMutability": "view",
      "type": "function"
    },
    {
      "inputs": [],
      "name": "getManagerFeeIncreaseInfo",
      "outputs": [
        {
          "internalType": "uint256",
          "name": "",
          "type": "uint256"
        },
        {
          "internalType": "uint256",
          "name": "",
          "type": "uint256"
        }
      ],
      "stateMutability": "view",
      "type": "function"
    },
    {
      "inputs": [],
      "name": "getMembers",
      "outputs": [
        {
          "internalType": "address[]",
          "name": "",
          "type": "address[]"
        }
      ],
      "stateMutability": "view",
      "type": "function"
    },
    {
      "inputs": [
        {
          "internalType": "bytes",
          "name": "data",
          "type": "bytes"
        }
      ],
      "name": "getMethod",
      "outputs": [
        {
          "internalType": "bytes4",
          "name": "",
          "type": "bytes4"
        }
      ],
      "stateMutability": "pure",
      "type": "function"
    },
    {
      "inputs": [],
      "name": "getSupportedAssets",
      "outputs": [
        {
          "internalType": "address[]",
          "name": "",
          "type": "address[]"
        }
      ],
      "stateMutability": "view",
      "type": "function"
    },
    {
      "inputs": [
        {
          "internalType": "address",
          "name": "_factory",
          "type": "address"
        },
        {
          "internalType": "address",
          "name": "_manager",
          "type": "address"
        },
        {
          "internalType": "string",
          "name": "_managerName",
          "type": "string"
        },
        {
          "components": [
            {
              "internalType": "address",
              "name": "asset",
              "type": "address"
            },
            {
              "internalType": "bool",
              "name": "isDeposit",
              "type": "bool"
            }
          ],
          "internalType": "struct IPoolManagerLogic.Asset[]",
          "name": "_supportedAssets",
          "type": "tuple[]"
        }
      ],
      "name": "initialize",
      "outputs": [],
      "stateMutability": "nonpayable",
      "type": "function"
    },
    {
      "inputs": [
        {
          "internalType": "address",
          "name": "asset",
          "type": "address"
        }
      ],
      "name": "isDepositAsset",
      "outputs": [
        {
          "internalType": "bool",
          "name": "",
          "type": "bool"
        }
      ],
      "stateMutability": "view",
      "type": "function"
    },
    {
      "inputs": [
        {
          "internalType": "address",
          "name": "member",
          "type": "address"
        }
      ],
      "name": "isMemberAllowed",
      "outputs": [
        {
          "internalType": "bool",
          "name": "",
          "type": "bool"
        }
      ],
      "stateMutability": "view",
      "type": "function"
    },
    {
      "inputs": [],
      "name": "isSupportedAsset",
      "outputs": [
        {
          "internalType": "bool",
          "name": "",
          "type": "bool"
        }
      ],
      "stateMutability": "view",
      "type": "function"
    },
    {
      "inputs": [],
      "name": "manager",
      "outputs": [
        {
          "internalType": "address",
          "name": "",
          "type": "address"
        }
      ],
      "stateMutability": "view",
      "type": "function"
    },
    {
      "inputs": [],
      "name": "managerName",
      "outputs": [
        {
          "internalType": "string",
          "name": "",
          "type": "string"
        }
      ],
      "stateMutability": "view",
      "type": "function"
    },
    {
      "inputs": [],
      "name": "numberOfDepositAssets",
      "outputs": [
        {
          "internalType": "uint256",
          "name": "",
          "type": "uint256"
        }
      ],
      "stateMutability": "view",
      "type": "function"
    },
    {
      "inputs": [
        {
          "internalType": "address",
          "name": "",
          "type": "address"
        }
      ],
      "name": "persistentAsset",
      "outputs": [
        {
          "internalType": "uint256",
          "name": "",
          "type": "uint256"
        }
      ],
      "stateMutability": "view",
      "type": "function"
    },
    {
      "inputs": [],
      "name": "poolLogic",
      "outputs": [
        {
          "internalType": "address",
          "name": "",
          "type": "address"
        }
      ],
      "stateMutability": "view",
      "type": "function"
    },
    {
      "inputs": [
        {
          "internalType": "bytes",
          "name": "data",
          "type": "bytes"
        },
        {
          "internalType": "uint256",
          "name": "offset",
          "type": "uint256"
        },
        {
          "internalType": "uint256",
          "name": "length",
          "type": "uint256"
        }
      ],
      "name": "read32",
      "outputs": [
        {
          "internalType": "bytes32",
          "name": "o",
          "type": "bytes32"
        }
      ],
      "stateMutability": "pure",
      "type": "function"
    },
    {
      "inputs": [
        {
          "internalType": "bytes",
          "name": "data",
          "type": "bytes"
        },
        {
          "internalType": "uint256",
          "name": "offset",
          "type": "uint256"
        },
        {
          "internalType": "uint256",
          "name": "length",
          "type": "uint256"
        }
      ],
      "name": "read4left",
      "outputs": [
        {
          "internalType": "bytes4",
          "name": "o",
          "type": "bytes4"
        }
      ],
      "stateMutability": "pure",
      "type": "function"
    },
    {
      "inputs": [
        {
          "internalType": "address",
          "name": "member",
          "type": "address"
        }
      ],
      "name": "removeMember",
      "outputs": [],
      "stateMutability": "nonpayable",
      "type": "function"
    },
    {
      "inputs": [
        {
          "internalType": "address[]",
          "name": "members",
          "type": "address[]"
        }
      ],
      "name": "removeMembers",
      "outputs": [],
      "stateMutability": "nonpayable",
      "type": "function"
    },
    {
      "inputs": [],
      "name": "removeTrader",
      "outputs": [],
      "stateMutability": "nonpayable",
      "type": "function"
    },
    {
      "inputs": [],
      "name": "renounceManagerFeeIncrease",
      "outputs": [],
      "stateMutability": "nonpayable",
      "type": "function"
    },
    {
      "inputs": [
        {
          "internalType": "address",
          "name": "_poolLogic",
          "type": "address"
        }
      ],
      "name": "setPoolLogic",
      "outputs": [
        {
          "internalType": "bool",
          "name": "",
          "type": "bool"
        }
      ],
      "stateMutability": "nonpayable",
      "type": "function"
    },
    {
      "inputs": [
        {
          "internalType": "address",
          "name": "newTrader",
          "type": "address"
        }
      ],
      "name": "setTrader",
      "outputs": [],
      "stateMutability": "nonpayable",
      "type": "function"
    },
    {
      "inputs": [
        {
          "internalType": "uint256",
          "name": "",
          "type": "uint256"
        }
      ],
      "name": "supportedAssets",
      "outputs": [
        {
          "internalType": "address",
          "name": "asset",
          "type": "address"
        },
        {
          "internalType": "bool",
          "name": "isDeposit",
          "type": "bool"
        }
      ],
      "stateMutability": "view",
      "type": "function"
    },
    {
      "inputs": [],
      "name": "trader",
      "outputs": [
        {
          "internalType": "address",
          "name": "",
          "type": "address"
        }
      ],
      "stateMutability": "view",
      "type": "function"
    },
    {
      "inputs": [
        {
          "internalType": "address",
          "name": "asset",
          "type": "address"
        }
      ],
      "name": "validateAsset",
      "outputs": [
        {
          "internalType": "bool",
          "name": "",
          "type": "bool"
        }
      ],
      "stateMutability": "view",
      "type": "function"
    }
  ],
  "bytecode": "0x60806040523480156200001c576000806200001962000023565b50505b5062000090565b632a2a7adb598160e01b8152600481016020815285602082015260005b868110156200005d57808601518282016040015260200162000040565b506020828760640184336000905af158600e01573d6000803e3d6000fd5b3d6001141558600a015760016000f35b505050565b614a6d80620000a06000396000f3fe60806040523480156100195760008061001661459e565b50505b50600436106102935760003560e01c806382f86acc11610165578063c3c6279f116100d7578063d8af8ed411610090578063d8af8ed414611033578063db896b5714611062578063e5406dbf1461112e578063ed5b165d14611136578063f09d14d71461113e578063fed4416a1461122457610293565b8063c3c6279f14610d63578063c45a015514610e2a578063c688aa6414610e32578063c68dbb3714610faf578063ca6d56dc14610fd5578063cd88e5581461100457610293565b8063998546e311610129578063998546e314610bce5780639eab525314610c9a578063a30e3fa914610cf5578063a6bc18f914610cfd578063b8bd81e614610d2c578063bbbf725b14610d3457610293565b806382f86acc14610a945780638e10153d14610b605780638f32343914610b8f5780639240d29914610b97578063936553c414610bc657610293565b8063464b4158116102095780636e890f3c116101c25780636e890f3c146108b15780636f4d469b146108b95780637ae7cfb51461097e5780637b4d0c6314610a555780637c8afd5114610a5d57806380dd4f6214610a6557610293565b8063464b4158146105bb57806346ee84b0146105fe578063481c6a75146106c357806352213663146106cb57806353f064c9146107a2578063568b5a2f146107c857610293565b8063198055381161025b57806319805538146104325780631eba30771461045257806329c07fba1461047857806339b81fd9146104ad5780633c570d7d146104b557806341dc16c3146104e457610293565b806306468587146102a1578063093b8825146102d257806309ff5c7d146103015780630b1ca49a146103df5780631758078b1461040e575b60008061029e61459e565b50505b6102d0600480360360208110156102c0576000806102bd61459e565b50505b50356001600160a01b03166112a3565b005b6102d0600480360360208110156102f1576000806102ee61459e565b50505b50356001600160a01b0316611572565b6103cd600480360360408110156103205760008061031d61459e565b50505b810190602081018135600160201b8111156103435760008061034061459e565b50505b82018360208201111561035e5760008061035b61459e565b50505b803590602001918460018302840111600160201b831117156103885760008061038561459e565b50505b91908080601f01602080910402602001604051908101604052818152929190602084018383808284376000920191909152509295505050903560ff1691506116449050565b60405190815260200160405180910390f35b6102d0600480360360208110156103fe576000806103fb61459e565b50505b50356001600160a01b03166116df565b61041661177a565b6040516001600160a01b03909116815260200160405180910390f35b61043a61179c565b60405191825260208201526040908101905180910390f35b610416600480360360208110156104715760008061046e61459e565b50505b503561188e565b6103cd600480360360408110156104975760008061049461459e565b50505b506001600160a01b038135169060200135611891565b610416611a1b565b6103cd600480360360208110156104d4576000806104d161459e565b50505b50356001600160a01b0316611a3a565b6103cd600480360360608110156105035760008061050061459e565b50505b810190602081018135600160201b8111156105265760008061052361459e565b50505b8201836020820111156105415760008061053e61459e565b50505b803590602001918460018302840111600160201b8311171561056b5760008061056861459e565b50505b91908080601f01602080910402602001604051908101604052818152929190602084018383808284376000920191909152509295505060ff8335811694506020909301359092169150611a559050565b6105ea600480360360208110156105da576000806105d761459e565b50505b50356001600160a01b0316611b4d565b604051901515815260200160405180910390f35b6102d06004803603602081101561061d5760008061061a61459e565b50505b810190602081018135600160201b8111156106405760008061063d61459e565b50505b82018360208201111561065b5760008061065861459e565b50505b803590602001918460208302840111600160201b831117156106855760008061068261459e565b50505b919080806020026020016040519081016040528093929190818152602001838360200280828437600092019190915250929550611b75945050505050565b610416611c4e565b6102d0600480360360408110156106ea576000806106e761459e565b50505b6001600160a01b038235169190810190604081016020820135600160201b81111561071d5760008061071a61459e565b50505b8201836020820111156107385760008061073561459e565b50505b803590602001918460018302840111600160201b831117156107625760008061075f61459e565b50505b91908080601f0160208091040260200160405190810160405281815292919060208401838380828437600092019190915250929550611c5b945050505050565b6102d0600480360360208110156107c1576000806107be61459e565b50505b5035611dd0565b610894600480360360608110156107e7576000806107e461459e565b50505b810190602081018135600160201b81111561080a5760008061080761459e565b50505b8201836020820111156108255760008061082261459e565b50505b803590602001918460018302840111600160201b8311171561084f5760008061084c61459e565b50505b91908080601f016020809104026020016040519081016040528181529291906020840183838082843760009201919091525092955050823593505050602001356120fe565b6040516001600160e01b0319909116815260200160405180910390f35b6102d0612187565b6102d0600480360360208110156108d8576000806108d561459e565b50505b810190602081018135600160201b8111156108fb576000806108f861459e565b50505b8201836020820111156109165760008061091361459e565b50505b803590602001918460208302840111600160201b831117156109405760008061093d61459e565b50505b9190808060200260200160405190810160405280939291908181526020018383602002808284376000920191909152509295506122aa945050505050565b6105ea6004803603604081101561099d5760008061099a61459e565b50505b6001600160a01b038235169190810190604081016020820135600160201b8111156109d0576000806109cd61459e565b50505b8201836020820111156109eb576000806109e861459e565b50505b803590602001918460018302840111600160201b83111715610a1557600080610a1261459e565b50505b91908080601f0160208091040260200160405190810160405281815292919060208401838380828437600092019190915250929550612373945050505050565b6103cd612a28565b6102d0612a32565b6105ea60048036036020811015610a8457600080610a8161459e565b50505b50356001600160a01b0316612ae3565b6103cd60048036036040811015610ab357600080610ab061459e565b50505b810190602081018135600160201b811115610ad657600080610ad361459e565b50505b820183602082011115610af157600080610aee61459e565b50505b803590602001918460018302840111600160201b83111715610b1b57600080610b1861459e565b50505b91908080601f01602080910402602001604051908101604052818152929190602084018383808284376000920191909152509295505050903560ff169150612b0a9050565b6105ea60048036036020811015610b7f57600080610b7c61459e565b50505b50356001600160a01b0316612b28565b6103cd612e60565b6105ea60048036036020811015610bb657600080610bb361459e565b50505b50356001600160a01b0316612e6a565b6103cd612f3c565b6103cd60048036036040811015610bed57600080610bea61459e565b50505b810190602081018135600160201b811115610c1057600080610c0d61459e565b50505b820183602082011115610c2b57600080610c2861459e565b50505b803590602001918460018302840111600160201b83111715610c5557600080610c5261459e565b50505b91908080601f01602080910402602001604051908101604052818152929190602084018383808284376000920191909152509295505050903560ff169150612f4f9050565b610ca2612f80565b60405160208082528190810183818151815260200191508051906020019060200280838360005b83811015610ce1578082015183820152602001610cc9565b505050509050019250505060405180910390f35b6103cd613007565b6102d060048036036020811015610d1c57600080610d1961459e565b50505b50356001600160a01b0316613014565b6102d06130ca565b6105ea60048036036020811015610d5357600080610d5061459e565b50505b50356001600160a01b0316613199565b61089460048036036020811015610d8257600080610d7f61459e565b50505b810190602081018135600160201b811115610da557600080610da261459e565b50505b820183602082011115610dc057600080610dbd61459e565b50505b803590602001918460018302840111600160201b83111715610dea57600080610de761459e565b50505b91908080601f01602080910402602001604051908101604052818152929190602084018383808284376000920191909152509295506131b9945050505050565b6104166131c8565b6102d060048036036080811015610e5157600080610e4e61459e565b50505b6001600160a01b038235811692602081013590911691810190606081016040820135600160201b811115610e8d57600080610e8a61459e565b50505b820183602082011115610ea857600080610ea561459e565b50505b803590602001918460018302840111600160201b83111715610ed257600080610ecf61459e565b50505b91908080601f01602080910402602001604051908101604052818152929190602084018383808284376000920191909152509295949360208101935035915050600160201b811115610f2c57600080610f2961459e565b50505b820183602082011115610f4757600080610f4461459e565b50505b803590602001918460208302840111600160201b83111715610f7157600080610f6e61459e565b50505b9190808060200260200160405190810160405280939291908181526020018383602002808284376000920191909152509295506131d4945050505050565b61041660048036036020811015610fce57600080610fcb61459e565b50505b5035613375565b6102d060048036036020811015610ff457600080610ff161459e565b50505b50356001600160a01b031661339f565b6103cd600480360360208110156110235760008061102061459e565b50505b50356001600160a01b031661343b565b6103cd600480360360208110156110525760008061104f61459e565b50505b50356001600160a01b03166134a1565b6103cd600480360360608110156110815760008061107e61459e565b50505b810190602081018135600160201b8111156110a4576000806110a161459e565b50505b8201836020820111156110bf576000806110bc61459e565b50505b803590602001918460018302840111600160201b831117156110e9576000806110e661459e565b50505b91908080601f016020809104026020016040519081016040528181529291906020840183838082843760009201919091525092955050823593505050602001356134b5565b610ca2613539565b61043a6135bf565b6111466135de565b60405180806020018060200180602001848103845287818151815260200191508051906020019060200280838360005b8381101561118e578082015183820152602001611176565b50505050905001848103835286818151815260200191508051906020019060200280838360005b838110156111cd5780820151838201526020016111b5565b50505050905001848103825285818151815260200191508051906020019060200280838360005b8381101561120c5780820151838201526020016111f4565b50505050905001965050505050505060405180910390f35b61122c61386b565b60405160208082528190810183818151815260200191508051906020019080838360005b83811015611268578082015183820152602001611250565b50505050905090810190601f1680156112955780820380516001836020036101000a031916815260200191505b509250505060405180910390f35b600060386112af614609565b906101000a90046001600160a01b03166001600160a01b0316638da5cb5b6040518163ffffffff1660e01b815260040160206040518083038186806112f2614664565b1580156113075760008061130461459e565b50505b505a6113116146b0565b5050505050158015611330573d6000803e3d600061132d61459e565b50505b505050506040513d602081101561134f5760008061134c61459e565b50505b8101908080516001600160a01b0316925050505a61136b61479b565b6001600160a01b031614806113a05750611383611c4e565b6001600160a01b03165a61139561479b565b6001600160a01b0316145b806113cb57506113ae61177a565b6001600160a01b03165a6113c061479b565b6001600160a01b0316145b6114245760405162461bcd60e51b815260206004820152601b60248201527f6f6e6c79206d616e616765722c20747261646572206f722044414f000000000060448201526064016040518091039061142161459e565b50505b61142d81611b4d565b61147c5760405162461bcd60e51b8152602060048201526013602482015272185cdcd95d081b9bdd081cdd5c1c1bdc9d1959606a1b60448201526064016040518091039061147961459e565b50505b6001600160a01b0381166000908152603c6020526040902060009061149f614609565b906101000a900460ff16156115035760405162461bcd60e51b815260206004820152601f60248201527f63616e6e6f742072656d6f76652070657273697374656e74206173736574730060448201526064016040518091039061150061459e565b50505b61150c8161343b565b156115665760405162461bcd60e51b815260206004820152601d60248201527f63616e6e6f742072656d6f7665206e6f6e2d656d70747920617373657400000060448201526064016040518091039061156361459e565b50505b61156f8161391f565b50565b6000603361157e614609565b906101000a90046001600160a01b03166001600160a01b03165a6115a061479b565b6001600160a01b031614806115e95750600060376115bc614609565b906101000a90046001600160a01b03166001600160a01b03165a6115de61479b565b6001600160a01b0316145b61163b5760405162461bcd60e51b815260206004820152601660248201527537b7363c9036b0b730b3b2b91037b9103a3930b232b960511b60448201526064016040518091039061163861459e565b50505b61156f81613b25565b60008061165c848460200260040160ff1660206134b5565b9050600061166f856004840160206134b5565b9050806116c05760405162461bcd60e51b8152602060048201526012602482015271696e707574206973206e6f7420617272617960701b6044820152606401604051809103906116bd61459e565b50505b6116d48560208084028501600401906134b5565b925050505b92915050565b600060336116eb614609565b906101000a90046001600160a01b03166001600160a01b03165a61170d61479b565b6001600160a01b03161461175f5760405162461bcd60e51b815260206004820152600c60248201526b37b7363c9036b0b730b3b2b960a11b60448201526064016040518091039061175c61459e565b50505b61176881613199565b6117715761156f565b61156f81613e0e565b6000806037611787614609565b906101000a90046001600160a01b0316905090565b6000808060386117aa614609565b6001600160a01b036101009290920a90041663b7a54526600060396117cd614609565b906101000a90046001600160a01b03166040516001600160e01b031960e084901b1681526001600160a01b03909116600482015260240160408051808303818680611816614664565b15801561182b5760008061182861459e565b50505b505a6118356146b0565b5050505050158015611854573d6000803e3d600061185161459e565b50505b505050506040513d60408110156118735760008061187061459e565b50505b81019080805192919060200180519395509293505050509091565b90565b60008080603861189f614609565b906101000a90046001600160a01b03166001600160a01b0316638b2f0f4f856040516001600160e01b031960e084901b1681526001600160a01b03909116600482015260240160206040518083038186806118f8614664565b15801561190d5760008061190a61459e565b50505b505a6119176146b0565b5050505050158015611936573d6000803e3d600061193361459e565b50505b505050506040513d60208110156119555760008061195261459e565b50505b81019080805193506000925050506001600160a01b03851663313ce5676040518163ffffffff1660e01b81526004016020604051808303818680611997614664565b1580156119ac576000806119a961459e565b50505b505a6119b66146b0565b50505050501580156119d5573d6000803e3d60006119d261459e565b50505b505050506040513d60208110156119f4576000806119f161459e565b50505b81019080805160ff1693506116d492505050600a82900a611a158487613f89565b90613ff1565b60006039611a27614609565b906101000a90046001600160a01b031681565b603b6020528060005260406000209050611a52614609565b81565b600080611a6d858560200260040160ff1660206134b5565b90506000611a80866004840160206134b5565b905080611ad15760405162461bcd60e51b8152602060048201526012602482015271696e707574206973206e6f7420617272617960701b604482015260640160405180910390611ace61459e565b50505b60ff84168111611b295760405162461bcd60e51b815260206004820152601660248201527534b73b30b634b21030b93930bc903837b9b4ba34b7b760511b604482015260640160405180910390611b2661459e565b50505b611b43866020600160ff88160181028501600401906134b5565b9695505050505050565b6001600160a01b0381166000908152603b60205260408120611b6d614609565b151592915050565b60006033611b81614609565b906101000a90046001600160a01b03166001600160a01b03165a611ba361479b565b6001600160a01b031614611bf55760405162461bcd60e51b815260206004820152600c60248201526b37b7363c9036b0b730b3b2b960a11b604482015260640160405180910390611bf261459e565b50505b60005b8151811015611c4a57611c1d828281518110611c1057fe5b6020026020010151613199565b611c2657611c42565b611c42828281518110611c3557fe5b6020026020010151613e0e565b600101611bf8565b5050565b6000806033611787614609565b60006033611c67614609565b906101000a90046001600160a01b03166001600160a01b03165a611c8961479b565b6001600160a01b031614611cdb5760405162461bcd60e51b815260206004820152600c60248201526b37b7363c9036b0b730b3b2b960a11b604482015260640160405180910390611cd861459e565b50505b816033600181611ce9614609565b816001600160a01b0302191690836001600160a01b0316021790611d0b6147e1565b505050806034908051611d2292916020019061482f565b507f6ed15082ad038474841528b5badca105106d4463e44b5d434130dfb299aa366982826040516001600160a01b038316815260406020820181815290820183818151815260200191508051906020019080838360005b83811015611d91578082015183820152602001611d79565b50505050905090810190601f168015611dbe5780820380516001836020036101000a031916815260200191505b50935050505060405180910390a15050565b60006033611ddc614609565b906101000a90046001600160a01b03166001600160a01b03165a611dfe61479b565b6001600160a01b031614611e505760405162461bcd60e51b815260206004820152600c60248201526b37b7363c9036b0b730b3b2b960a11b604482015260640160405180910390611e4d61459e565b50505b6000806038611e5d614609565b906101000a90046001600160a01b03166001600160a01b0316635c9bfc2b6040518163ffffffff1660e01b81526004016020604051808303818680611ea0614664565b158015611eb557600080611eb261459e565b50505b505a611ebf6146b0565b5050505050158015611ede573d6000803e3d6000611edb61459e565b50505b505050506040513d6020811015611efd57600080611efa61459e565b50505b810190808051935060009250829150611f16905061179c565b909250905080841115611f6b5760405162461bcd60e51b815260206004820152601060248201526f34b73b30b634b210333930b1ba34b7b760811b604482015260640160405180910390611f6861459e565b50505b611f758284614031565b841115611fd15760405162461bcd60e51b815260206004820152601960248201527f657863656564656420616c6c6f77656420696e63726561736500000000000000604482015260640160405180910390611fce61459e565b50505b6000806038611fde614609565b906101000a90046001600160a01b03166001600160a01b031663ebee461d6040518163ffffffff1660e01b81526004016020604051808303818680612021614664565b1580156120365760008061203361459e565b50505b505a6120406146b0565b505050505015801561205f573d6000803e3d600061205c61459e565b50505b505050506040513d602081101561207e5760008061207b61459e565b50505b8101908080519350879250829150603d90506120986147e1565b505050805a6120a56148cf565b0180603e6120b16147e1565b5050507f4db9119741646c419f1ceccdf112b5b9a9b4516355e742e1fa9c479f4dec98da85603e6120e0614609565b60405191825260208201526040908101905180910390a15050505050565b6000818301845110156121605760405162461bcd60e51b815260206004820152601b60248201527f52656164696e67206279746573206f7574206f6620626f756e6473000000000060448201526064016040518091039061215d61459e565b50505b82602001840151905081600403801561217f576008810260020a820491505b509392505050565b60006033612193614609565b906101000a90046001600160a01b03166001600160a01b03165a6121b561479b565b6001600160a01b0316146122075760405162461bcd60e51b815260206004820152600c60248201526b37b7363c9036b0b730b3b2b960a11b60448201526064016040518091039061220461459e565b50505b603e612211614609565b5a61221a6148cf565b10156122755760405162461bcd60e51b815260206004820152601960248201527f66656520696e6372656173652064656c6179206163746976650000000000000060448201526064016040518091039061227261459e565b50505b612287603d612282614609565b614090565b600080603d6122946147e1565b5050506000603e81906122a56147e1565b505050565b600060336122b6614609565b906101000a90046001600160a01b03166001600160a01b03165a6122d861479b565b6001600160a01b03161461232a5760405162461bcd60e51b815260206004820152600c60248201526b37b7363c9036b0b730b3b2b960a11b60448201526064016040518091039061232761459e565b50505b60005b8151811015611c4a57612345828281518110611c1057fe5b1561234f5761236b565b61236b82828151811061235e57fe5b60200260200101516142cf565b60010161232d565b6000806033612380614609565b906101000a90046001600160a01b03166001600160a01b03165a6123a261479b565b6001600160a01b031614806123eb5750600060376123be614609565b906101000a90046001600160a01b03166001600160a01b03165a6123e061479b565b6001600160a01b0316145b61243d5760405162461bcd60e51b815260206004820152601660248201527537b7363c9036b0b730b3b2b91037b9103a3930b232b960511b60448201526064016040518091039061243a61459e565b50505b60006038612449614609565b906101000a90046001600160a01b03166001600160a01b031663b187bd266040518163ffffffff1660e01b8152600401602060405180830381868061248c614664565b1580156124a15760008061249e61459e565b50505b505a6124ab6146b0565b50505050501580156124ca573d6000803e3d60006124c761459e565b50505b505050506040513d60208110156124e9576000806124e661459e565b50505b8101908080511592506125419150505760405162461bcd60e51b815260206004820152601060248201526f14185d5cd8589b194e881c185d5cd95960821b60448201526064016040518091039061253e61459e565b50505b6001600160a01b0383166125a45760405162461bcd60e51b815260206004820152601c60248201527f6e6f6e2d7a65726f2061646472657373206973207265717569726564000000006044820152606401604051809103906125a161459e565b50505b60008060386125b1614609565b906101000a90046001600160a01b03166001600160a01b0316637027ea6c856040516001600160e01b031960e084901b1681526001600160a01b039091166004820152602401602060405180830381868061260a614664565b15801561261f5760008061261c61459e565b50505b505a6126296146b0565b5050505050158015612648573d6000803e3d600061264561459e565b50505b505050506040513d60208110156126675760008061266461459e565b50505b81019080805193505050506001600160a01b0381166126cb5760405162461bcd60e51b815260206004820152601360248201527234b73b30b634b2103232b9ba34b730ba34b7b760691b6044820152606401604051809103906126c861459e565b50505b806001600160a01b031663e23ff4375a63996d79a5598160e01b8152602081600483336000905af158600e01573d6000803e3d6000fd5b3d6001141558600a015760016000f35b8051925060005b604081101561273057600082820152602001612719565b505050856040518363ffffffff1660e01b815260040180836001600160a01b0316815260200180602001828103825283818151815260200191508051906020019080838360005b8381101561278f578082015183820152602001612777565b50505050905090810190601f1680156127bc5780820380516001836020036101000a031916815260200191505b509350505050602060405180830381600087806127d7614664565b1580156127ec576000806127e961459e565b50505b505a6127f6614915565b505050505050158015612816573d6000803e3d600061281361459e565b50505b505050506040513d60208110156128355760008061283261459e565b50505b810190808051925061288f9150505760405162461bcd60e51b815260206004820152601360248201527234b73b30b634b2103a3930b739b0b1ba34b7b760691b60448201526064016040518091039061288c61459e565b50505b6000846001600160a01b0316846040518082805190602001908083835b602083106128cb5780518252601f1990920191602091820191016128ac565b6001836020036101000a0380198251168184511680821785525050505050509050019150506000604051808303816000865a612905614915565b5050505050509150503d806000811461293a576040513d603f01601f191681016040523d815291503d6000602084013e61293f565b606091505b50909150506001811515146129a35760405162461bcd60e51b815260206004820152601a60248201527f6661696c656420746f2065786563757465207468652063616c6c0000000000006044820152606401604051809103906129a061459e565b50505b7f508f3afa87f72dce865a2321107666b28ac822c23a8c0555fbeb3424cf3de563600060396129d0614609565b906101000a90046001600160a01b03166129e8611c4e565b5a6129f16148cf565b6040516001600160a01b039384168152919092166020820152604080820192909252606001905180910390a1506001949350505050565b603e611a52614609565b60006033612a3e614609565b906101000a90046001600160a01b03166001600160a01b03165a612a6061479b565b6001600160a01b031614612ab25760405162461bcd60e51b815260206004820152600c60248201526b37b7363c9036b0b730b3b2b960a11b604482015260640160405180910390612aaf61459e565b50505b60006037600181612ac1614609565b816001600160a01b0302191690836001600160a01b03160217906122a56147e1565b603c60205280600052604060002060009150612afd614609565b906101000a900460ff1681565b6000612b21838360200260040160ff1660206134b5565b9392505050565b6000806038612b35614609565b906101000a90046001600160a01b03166001600160a01b03165a612b5761479b565b6001600160a01b03161480612c3a575060006038612b73614609565b906101000a90046001600160a01b03166001600160a01b0316631d68702d6040518163ffffffff1660e01b81526004016020604051808303818680612bb6614664565b158015612bcb57600080612bc861459e565b50505b505a612bd56146b0565b5050505050158015612bf4573d6000803e3d6000612bf161459e565b50505b505050506040513d6020811015612c1357600080612c1061459e565b50505b8101908080516001600160a01b0316925050505a612c2f61479b565b6001600160a01b0316145b612c7e5760405162461bcd60e51b81526004018080602001828103825260238152602001806149fb6023913960400191505060405180910390612c7b61459e565b50505b5a63996d79a5598160e01b8152602081600483336000905af158600e01573d6000803e3d6000fd5b3d6001141558600a015760016000f35b8051925060005b6040811015612cd457600082820152602001612cbd565b5050506001600160a01b0316826001600160a01b0316631e50a4a66040518163ffffffff1660e01b81526004016020604051808303818680612d14614664565b158015612d2957600080612d2661459e565b50505b505a612d336146b0565b5050505050158015612d52573d6000803e3d6000612d4f61459e565b50505b505050506040513d6020811015612d7157600080612d6e61459e565b50505b8101908080516001600160a01b0316939093149250612dd79150505760405162461bcd60e51b8152602060048201526012602482015271696e76616c696420706f6f6c206c6f67696360701b604482015260640160405180910390612dd461459e565b50505b816039600181612de5614609565b816001600160a01b0302191690836001600160a01b0316021790612e076147e1565b5050507f8c1446ebd2ac8c922b8c9716dfbdfcfef02c9fc167140d7cfd019565b423b249825a612e3561479b565b6040516001600160a01b039283168152911660208201526040908101905180910390a1506001919050565b603d611a52614609565b6000806038612e77614609565b906101000a90046001600160a01b03166001600160a01b031663cc435bf3836040516001600160e01b031960e084901b1681526001600160a01b0390911660048201526024016020604051808303818680612ed0614664565b158015612ee557600080612ee261459e565b50505b505a612eef6146b0565b5050505050158015612f0e573d6000803e3d6000612f0b61459e565b50505b505050506040513d6020811015612f2d57600080612f2a61459e565b50505b81019080805195945050505050565b6000603a80612f49614609565b91505090565b600080612f67848460200260040160ff1660206134b5565b9050612f78846004830160206134b5565b949350505050565b6060603580612f8d614609565b806020026020016040519081016040528181529190602083018280612fb0614609565b8015612ffd57602002820191906000526020600020905b600082612fd2614609565b906101000a90046001600160a01b03166001600160a01b031681526020019060010190808311612fc7575b5050505050905090565b6000603580612f49614609565b60006033613020614609565b906101000a90046001600160a01b03166001600160a01b03165a61304261479b565b6001600160a01b0316146130945760405162461bcd60e51b815260206004820152600c60248201526b37b7363c9036b0b730b3b2b960a11b60448201526064016040518091039061309161459e565b50505b8060376001816130a2614609565b816001600160a01b0302191690836001600160a01b03160217906130c46147e1565b50505050565b600060336130d6614609565b906101000a90046001600160a01b03166001600160a01b03165a6130f861479b565b6001600160a01b03161461314a5760405162461bcd60e51b815260206004820152600c60248201526b37b7363c9036b0b730b3b2b960a11b60448201526064016040518091039061314761459e565b50505b600080603d6131576147e1565b5050506000603e81906131686147e1565b5050507fc6f04bf43cbdf1ba5d51b4afa160bb3c7e13858b1409aa32868b239bb2f8d84960405160405180910390a1565b6001600160a01b0381166000908152603660205260408120611b6d614609565b60006116d982600060046120fe565b60006038611a27614609565b600160006131e0614609565b906101000a900460ff16806131f857506131f861435b565b806132155750600080613209614609565b906101000a900460ff16155b6132595760405162461bcd60e51b815260040180806020018281038252602e815260200180614a3f602e91396040019150506040518091039061325661459e565b50505b6000600181613266614609565b906101000a900460ff1615905080156132cc576001600061010081613289614609565b8160ff0219169083151502179061329e6147e1565b50505060016000806101000a816132b3614609565b8160ff021916908315150217906132c86147e1565b5050505b6132d684846143cc565b8460386001816132e4614609565b816001600160a01b0302191690836001600160a01b03160217906133066147e1565b50505060005b82518160ff16101561333f57613337838260ff168151811061332a57fe5b6020026020010151613b25565b60010161330c565b50801561336e5760008061010081613355614609565b8160ff0219169083151502179061336a6147e1565b5050505b5050505050565b603a8181613381614609565b811061338957fe5b9060005260206000200160009150611a27614609565b600060336133ab614609565b906101000a90046001600160a01b03166001600160a01b03165a6133cd61479b565b6001600160a01b03161461341f5760405162461bcd60e51b815260206004820152600c60248201526b37b7363c9036b0b730b3b2b960a11b60448201526064016040518091039061341c61459e565b50505b61342881613199565b156134325761156f565b61156f816142cf565b60006001600160a01b0382166370a08231826039613457614609565b906101000a90046001600160a01b03166040516001600160e01b031960e084901b1681526001600160a01b0390911660048201526024016020604051808303818680612ed0614664565b60006116d9826134b08461343b565b611891565b6000818301845110156135175760405162461bcd60e51b815260206004820152601b60248201527f52656164696e67206279746573206f7574206f6620626f756e6473000000000060448201526064016040518091039061351461459e565b50505b82602001840151905081602003801561217f5760080260020a90049392505050565b6060603a80613546614609565b806020026020016040519081016040528181529190602083018280613569614609565b8015612ffd57602002820191906000526020600020905b60008261358b614609565b906101000a90046001600160a01b03166001600160a01b031681526020019060010190808311613580575050505050905090565b600080603d6135cc614609565b603e6135d6614609565b915091509091565b60608060606000603a806135f0614609565b9050905060608167ffffffffffffffff811180156136165760008061361361459e565b50505b50604051908082528060200260200182016040528015613640578160200160208202803683370190505b50905060608267ffffffffffffffff811180156136655760008061366261459e565b50505b5060405190808252806020026020018201604052801561368f578160200160208202803683370190505b50905060608367ffffffffffffffff811180156136b4576000806136b161459e565b50505b506040519080825280602002602001820160405280156136de578160200160208202803683370190505b50905060005b8481101561385d576000603a82816136fa614609565b811061370257fe5b90600052602060002001600090613717614609565b906101000a90046001600160a01b031690506137328161343b565b84838151811061373e57fe5b6020026020010181815250508085838151811061375757fe5b6001600160a01b03909216602092830291909101909101526000603861377b614609565b906101000a90046001600160a01b03166001600160a01b0316638b2f0f4f826040516001600160e01b031960e084901b1681526001600160a01b03909116600482015260240160206040518083038186806137d4614664565b1580156137e9576000806137e661459e565b50505b505a6137f36146b0565b5050505050158015613812573d6000803e3d600061380f61459e565b50505b505050506040513d60208110156138315760008061382e61459e565b50505b81019080805192508591508490508151811061384957fe5b6020908102919091010152506001016136e4565b509195509350915050909192565b6060603480613878614609565b600181600116156101000203166002900480601f0160208091040260200160405190810160405281815291906020830182806138b2614609565b60018160011615610100020316600290048015612ffd5780601f106138ec5761010080836138de614609565b040283529160200191612ffd565b820191906000526020600020905b81613903614609565b815290600101906020018083116138fa57509395945050505050565b6000603a8061392c614609565b6001600160a01b0384166000908152603b602052909250905061395c600160408320613956614609565b90614413565b90506000603a61396d846001614413565b81613976614609565b811061397e57fe5b90600052602060002001600090613993614609565b906101000a90046001600160a01b0316905080603a83816139b2614609565b81106139ba57fe5b906000526020600020016001816139cf614609565b816001600160a01b0302191690836001600160a01b03160217906139f16147e1565b50613a0191508390506001614031565b6001600160a01b0382166000908152603b602052604090208190613a236147e1565b5050506001600160a01b0384166000908152603b602052604081208190613a486147e1565b505050603a80613a56614609565b80613a5d57fe5b60019003818190600052602060002001600181613a78614609565b906001600160a01b0302191690613a8d6147e1565b505090613a986147e1565b50507f9b4f55639e5e283319baee5bc4e69a5625a8e3a1cc004af968f4fee7250220276039600090613ac8614609565b906101000a90046001600160a01b0316613ae0611c4e565b8660405180846001600160a01b03168152602001836001600160a01b03168152602001826001600160a01b03168152602001935050505060405180910390a150505050565b60006038613b31614609565b906101000a90046001600160a01b03166001600160a01b031663aa12ae4d6040518163ffffffff1660e01b81526004016020604051808303818680613b74614664565b158015613b8957600080613b8661459e565b50505b505a613b936146b0565b5050505050158015613bb2573d6000803e3d6000613baf61459e565b50505b505050506040513d6020811015613bd157600080613bce61459e565b50505b8101908080519250603a9150819050613be8614609565b905010613c3d5760405162461bcd60e51b81526020600482015260166024820152751b585e1a5b5d5b48185cdcd95d1cc81c995858da195960521b604482015260640160405180910390613c3a61459e565b50505b613c4681611b4d565b15613ca05760405162461bcd60e51b815260206004820152601760248201527f617373657420616c726561647920737570706f72746564000000000000000000604482015260640160405180910390613c9d61459e565b50505b613ca981612e6a565b1515600114613cf75760405162461bcd60e51b815260206004820152600d60248201526c1a5b9d985b1a5908185cdcd95d609a1b604482015260640160405180910390613cf461459e565b50505b80603a80600181613d06614609565b018082613d116147e1565b505060009283526000190191602091502001600181613d2e614609565b816001600160a01b0302191690836001600160a01b0316021790613d506147e1565b505050603a80613d5e614609565b6001600160a01b0383166000908152603b602052909150604090208190613d836147e1565b5050507f0a7426a0630aad7dbc4d5ca5b7d9aac1133d77d2db987caaf4b4186c85d6593f6039600090613db4614609565b906101000a90046001600160a01b0316613dcc611c4e565b8360405180846001600160a01b03168152602001836001600160a01b03168152602001826001600160a01b03168152602001935050505060405180910390a150565b6000603580613e1b614609565b6001600160a01b038416600090815260366020529092509050613e45600160408320613956614609565b905060006035613e56846001614413565b81613e5f614609565b8110613e6757fe5b90600052602060002001600090613e7c614609565b906101000a90046001600160a01b031690508060358381613e9b614609565b8110613ea357fe5b90600052602060002001600181613eb8614609565b816001600160a01b0302191690836001600160a01b0316021790613eda6147e1565b50613eea91508390506001614031565b6001600160a01b03821660009081526036602052604090208190613f0c6147e1565b5050506001600160a01b03841660009081526036602052604081208190613f316147e1565b505050603580613f3f614609565b80613f4657fe5b60019003818190600052602060002001600181613f61614609565b906001600160a01b0302191690613f766147e1565b505090613f816147e1565b505050505050565b600082613f98575060006116d9565b82820282848281613fa557fe5b0414612b215760405162461bcd60e51b8152600401808060200182810382526021815260200180614a1e6021913960400191505060405180910390613fe861459e565b50509392505050565b6000612b21838360405160408082019052601a81527f536166654d6174683a206469766973696f6e206279207a65726f0000000000006020820152614453565b600082820183811015612b215760405162461bcd60e51b815260206004820152601b60248201527f536166654d6174683a206164646974696f6e206f766572666c6f770000000000604482015260640160405180910390613fe861459e565b6000603861409c614609565b6001600160a01b036101009290920a90041663046b72c4600060396140bf614609565b906101000a90046001600160a01b0316836040516001600160e01b031960e085901b1681526001600160a01b039092166004830152602482015260440160006040518083038160008780614111614664565b1580156141265760008061412361459e565b50505b505a614130614915565b505050505050158015614150573d6000803e3d600061414d61459e565b50505b505050506000806038600090614164614609565b6001600160a01b036101009290920a90041663b7a5452660006039614187614609565b906101000a90046001600160a01b03166040516001600160e01b031960e084901b1681526001600160a01b039091166004820152602401604080518083038186806141d0614664565b1580156141e5576000806141e261459e565b50505b505a6141ef6146b0565b505050505015801561420e573d6000803e3d600061420b61459e565b50505b505050506040513d604081101561422d5760008061422a61459e565b50505b81019080805192919060200180519395509293507f1780c04ddc6f0b32d866c7a3d7583f53515ef49ed2126af868f804f49160126692506000915060399050614274614609565b906101000a90046001600160a01b031661428c611c4e565b848460405180856001600160a01b03168152602001846001600160a01b0316815260200183815260200182815260200194505050505060405180910390a1505050565b806035806001816142de614609565b0180826142e96147e1565b505060009283526000190191602091502001600181614306614609565b816001600160a01b0302191690836001600160a01b03160217906143286147e1565b505050603580614336614609565b6001600160a01b038316600090815260366020529091506040902081906130c46147e1565b6000805a63996d79a5598160e01b8152602081600483336000905af158600e01573d6000803e3d6000fd5b3d6001141558600a015760016000f35b8051925060005b60408110156143b45760008282015260200161439d565b50505090506000816143c4614664565b159250505090565b8160336001816143da614609565b816001600160a01b0302191690836001600160a01b03160217906143fc6147e1565b5050508060349080516122a592916020019061482f565b6000612b21838360405160408082019052601e81527f536166654d6174683a207375627472616374696f6e206f766572666c6f77000060208201526144fe565b600081836144e85760405162461bcd60e51b81526004018080602001828103825283818151815260200191508051906020019080838360005b838110156144a457808201518382015260200161448c565b50505050905090810190601f1680156144d15780820380516001836020036101000a031916815260200191505b5092505050604051809103906144e561459e565b50505b5060008385816144f457fe5b0495945050505050565b600081848411156145965760405162461bcd60e51b81526004018080602001828103825283818151815260200191508051906020019080838360005b8381101561455257808201518382015260200161453a565b50505050905090810190601f16801561457f5780820380516001836020036101000a031916815260200191505b50925050506040518091039061459361459e565b50505b505050900390565b632a2a7adb598160e01b8152600481016020815285602082015260005b868110156145d65780860151828201604001526020016145bb565b506020828760640184336000905af158600e01573d6000803e3d6000fd5b3d6001141558600a015760016000f35b505050565b6303daa959598160e01b8152836004820152602081602483336000905af158600e01573d6000803e3d6000fd5b3d6001141558600a015760016000f35b8051935060005b60408110156122a55760008282015260200161464d565b638435035b598160e01b8152836004820152602081602483336000905af158600e01573d6000803e3d6000fd5b3d6001141558600a015760016000f35b8051600082529350602061464d565b638540661f598160e01b81526146e1565b80808311156116d9575090919050565b80808310156116d9575090919050565b836004820152846024820152606060448201528660648201526084810160005b88811015614719578088015182820152602001614701565b506060828960a40184336000905af158600e01573d6000803e3d6000fd5b3d6001141558600a015760016000f35b815160408301513d6000853e8b8b82606087013350600060045af1505961476e8d3d6146d1565b8c0161477a81876146c1565b5b8281101561478f576000815260200161477b565b50929c50505050505050565b6373509064598160e01b8152602081600483336000905af158600e01573d6000803e3d6000fd5b3d6001141558600a015760016000f35b8051600082529350602061464d565b6322bd64c0598160e01b8152836004820152846024820152600081604483336000905af158600e01573d6000803e3d6000fd5b3d6001141558600a015760016000f35b60008152602061464d565b8280614839614609565b600181600116156101000203166002900490600052602060002090601f016020900481019282601f1061488057805160ff191683800117856148796147e1565b50506148bf565b8280016001018561488f6147e1565b505082156148bf579182015b828111156148bf578251826148ae6147e1565b50509160200191906001019061489b565b506148cb9291506149db565b5090565b63bdbf8c36598160e01b8152602081600483336000905af158600e01573d6000803e3d6000fd5b3d6001141558600a015760016000f35b8051600082529350602061464d565b6385979f76598160e01b8152836004820152846024820152606060448201528760648201526084810160005b89811015614959578089015182820152602001614941565b506060828a60a40184336000905af158600e01573d6000803e3d6000fd5b3d6001141558600a015760016000f35b815160408301513d6000853e8c8c82606087013350600060045af150596149ae8e3d6146d1565b8d016149ba81876146c1565b5b828110156149cf57600081526020016149bb565b50929d50505050505050565b808211156148cb57600080826149ef6147e1565b5050506001016149db56fe6f6e6c792044414f206f7220666163746f7279206164647265737320616c6c6f776564536166654d6174683a206d756c7469706c69636174696f6e206f766572666c6f77436f6e747261637420696e7374616e63652068617320616c7265616479206265656e20696e697469616c697a6564",
  "deployedBytecode": "0x60806040523480156100195760008061001661459e565b50505b50600436106102935760003560e01c806382f86acc11610165578063c3c6279f116100d7578063d8af8ed411610090578063d8af8ed414611033578063db896b5714611062578063e5406dbf1461112e578063ed5b165d14611136578063f09d14d71461113e578063fed4416a1461122457610293565b8063c3c6279f14610d63578063c45a015514610e2a578063c688aa6414610e32578063c68dbb3714610faf578063ca6d56dc14610fd5578063cd88e5581461100457610293565b8063998546e311610129578063998546e314610bce5780639eab525314610c9a578063a30e3fa914610cf5578063a6bc18f914610cfd578063b8bd81e614610d2c578063bbbf725b14610d3457610293565b806382f86acc14610a945780638e10153d14610b605780638f32343914610b8f5780639240d29914610b97578063936553c414610bc657610293565b8063464b4158116102095780636e890f3c116101c25780636e890f3c146108b15780636f4d469b146108b95780637ae7cfb51461097e5780637b4d0c6314610a555780637c8afd5114610a5d57806380dd4f6214610a6557610293565b8063464b4158146105bb57806346ee84b0146105fe578063481c6a75146106c357806352213663146106cb57806353f064c9146107a2578063568b5a2f146107c857610293565b8063198055381161025b57806319805538146104325780631eba30771461045257806329c07fba1461047857806339b81fd9146104ad5780633c570d7d146104b557806341dc16c3146104e457610293565b806306468587146102a1578063093b8825146102d257806309ff5c7d146103015780630b1ca49a146103df5780631758078b1461040e575b60008061029e61459e565b50505b6102d0600480360360208110156102c0576000806102bd61459e565b50505b50356001600160a01b03166112a3565b005b6102d0600480360360208110156102f1576000806102ee61459e565b50505b50356001600160a01b0316611572565b6103cd600480360360408110156103205760008061031d61459e565b50505b810190602081018135600160201b8111156103435760008061034061459e565b50505b82018360208201111561035e5760008061035b61459e565b50505b803590602001918460018302840111600160201b831117156103885760008061038561459e565b50505b91908080601f01602080910402602001604051908101604052818152929190602084018383808284376000920191909152509295505050903560ff1691506116449050565b60405190815260200160405180910390f35b6102d0600480360360208110156103fe576000806103fb61459e565b50505b50356001600160a01b03166116df565b61041661177a565b6040516001600160a01b03909116815260200160405180910390f35b61043a61179c565b60405191825260208201526040908101905180910390f35b610416600480360360208110156104715760008061046e61459e565b50505b503561188e565b6103cd600480360360408110156104975760008061049461459e565b50505b506001600160a01b038135169060200135611891565b610416611a1b565b6103cd600480360360208110156104d4576000806104d161459e565b50505b50356001600160a01b0316611a3a565b6103cd600480360360608110156105035760008061050061459e565b50505b810190602081018135600160201b8111156105265760008061052361459e565b50505b8201836020820111156105415760008061053e61459e565b50505b803590602001918460018302840111600160201b8311171561056b5760008061056861459e565b50505b91908080601f01602080910402602001604051908101604052818152929190602084018383808284376000920191909152509295505060ff8335811694506020909301359092169150611a559050565b6105ea600480360360208110156105da576000806105d761459e565b50505b50356001600160a01b0316611b4d565b604051901515815260200160405180910390f35b6102d06004803603602081101561061d5760008061061a61459e565b50505b810190602081018135600160201b8111156106405760008061063d61459e565b50505b82018360208201111561065b5760008061065861459e565b50505b803590602001918460208302840111600160201b831117156106855760008061068261459e565b50505b919080806020026020016040519081016040528093929190818152602001838360200280828437600092019190915250929550611b75945050505050565b610416611c4e565b6102d0600480360360408110156106ea576000806106e761459e565b50505b6001600160a01b038235169190810190604081016020820135600160201b81111561071d5760008061071a61459e565b50505b8201836020820111156107385760008061073561459e565b50505b803590602001918460018302840111600160201b831117156107625760008061075f61459e565b50505b91908080601f0160208091040260200160405190810160405281815292919060208401838380828437600092019190915250929550611c5b945050505050565b6102d0600480360360208110156107c1576000806107be61459e565b50505b5035611dd0565b610894600480360360608110156107e7576000806107e461459e565b50505b810190602081018135600160201b81111561080a5760008061080761459e565b50505b8201836020820111156108255760008061082261459e565b50505b803590602001918460018302840111600160201b8311171561084f5760008061084c61459e565b50505b91908080601f016020809104026020016040519081016040528181529291906020840183838082843760009201919091525092955050823593505050602001356120fe565b6040516001600160e01b0319909116815260200160405180910390f35b6102d0612187565b6102d0600480360360208110156108d8576000806108d561459e565b50505b810190602081018135600160201b8111156108fb576000806108f861459e565b50505b8201836020820111156109165760008061091361459e565b50505b803590602001918460208302840111600160201b831117156109405760008061093d61459e565b50505b9190808060200260200160405190810160405280939291908181526020018383602002808284376000920191909152509295506122aa945050505050565b6105ea6004803603604081101561099d5760008061099a61459e565b50505b6001600160a01b038235169190810190604081016020820135600160201b8111156109d0576000806109cd61459e565b50505b8201836020820111156109eb576000806109e861459e565b50505b803590602001918460018302840111600160201b83111715610a1557600080610a1261459e565b50505b91908080601f0160208091040260200160405190810160405281815292919060208401838380828437600092019190915250929550612373945050505050565b6103cd612a28565b6102d0612a32565b6105ea60048036036020811015610a8457600080610a8161459e565b50505b50356001600160a01b0316612ae3565b6103cd60048036036040811015610ab357600080610ab061459e565b50505b810190602081018135600160201b811115610ad657600080610ad361459e565b50505b820183602082011115610af157600080610aee61459e565b50505b803590602001918460018302840111600160201b83111715610b1b57600080610b1861459e565b50505b91908080601f01602080910402602001604051908101604052818152929190602084018383808284376000920191909152509295505050903560ff169150612b0a9050565b6105ea60048036036020811015610b7f57600080610b7c61459e565b50505b50356001600160a01b0316612b28565b6103cd612e60565b6105ea60048036036020811015610bb657600080610bb361459e565b50505b50356001600160a01b0316612e6a565b6103cd612f3c565b6103cd60048036036040811015610bed57600080610bea61459e565b50505b810190602081018135600160201b811115610c1057600080610c0d61459e565b50505b820183602082011115610c2b57600080610c2861459e565b50505b803590602001918460018302840111600160201b83111715610c5557600080610c5261459e565b50505b91908080601f01602080910402602001604051908101604052818152929190602084018383808284376000920191909152509295505050903560ff169150612f4f9050565b610ca2612f80565b60405160208082528190810183818151815260200191508051906020019060200280838360005b83811015610ce1578082015183820152602001610cc9565b505050509050019250505060405180910390f35b6103cd613007565b6102d060048036036020811015610d1c57600080610d1961459e565b50505b50356001600160a01b0316613014565b6102d06130ca565b6105ea60048036036020811015610d5357600080610d5061459e565b50505b50356001600160a01b0316613199565b61089460048036036020811015610d8257600080610d7f61459e565b50505b810190602081018135600160201b811115610da557600080610da261459e565b50505b820183602082011115610dc057600080610dbd61459e565b50505b803590602001918460018302840111600160201b83111715610dea57600080610de761459e565b50505b91908080601f01602080910402602001604051908101604052818152929190602084018383808284376000920191909152509295506131b9945050505050565b6104166131c8565b6102d060048036036080811015610e5157600080610e4e61459e565b50505b6001600160a01b038235811692602081013590911691810190606081016040820135600160201b811115610e8d57600080610e8a61459e565b50505b820183602082011115610ea857600080610ea561459e565b50505b803590602001918460018302840111600160201b83111715610ed257600080610ecf61459e565b50505b91908080601f01602080910402602001604051908101604052818152929190602084018383808284376000920191909152509295949360208101935035915050600160201b811115610f2c57600080610f2961459e565b50505b820183602082011115610f4757600080610f4461459e565b50505b803590602001918460208302840111600160201b83111715610f7157600080610f6e61459e565b50505b9190808060200260200160405190810160405280939291908181526020018383602002808284376000920191909152509295506131d4945050505050565b61041660048036036020811015610fce57600080610fcb61459e565b50505b5035613375565b6102d060048036036020811015610ff457600080610ff161459e565b50505b50356001600160a01b031661339f565b6103cd600480360360208110156110235760008061102061459e565b50505b50356001600160a01b031661343b565b6103cd600480360360208110156110525760008061104f61459e565b50505b50356001600160a01b03166134a1565b6103cd600480360360608110156110815760008061107e61459e565b50505b810190602081018135600160201b8111156110a4576000806110a161459e565b50505b8201836020820111156110bf576000806110bc61459e565b50505b803590602001918460018302840111600160201b831117156110e9576000806110e661459e565b50505b91908080601f016020809104026020016040519081016040528181529291906020840183838082843760009201919091525092955050823593505050602001356134b5565b610ca2613539565b61043a6135bf565b6111466135de565b60405180806020018060200180602001848103845287818151815260200191508051906020019060200280838360005b8381101561118e578082015183820152602001611176565b50505050905001848103835286818151815260200191508051906020019060200280838360005b838110156111cd5780820151838201526020016111b5565b50505050905001848103825285818151815260200191508051906020019060200280838360005b8381101561120c5780820151838201526020016111f4565b50505050905001965050505050505060405180910390f35b61122c61386b565b60405160208082528190810183818151815260200191508051906020019080838360005b83811015611268578082015183820152602001611250565b50505050905090810190601f1680156112955780820380516001836020036101000a031916815260200191505b509250505060405180910390f35b600060386112af614609565b906101000a90046001600160a01b03166001600160a01b0316638da5cb5b6040518163ffffffff1660e01b815260040160206040518083038186806112f2614664565b1580156113075760008061130461459e565b50505b505a6113116146b0565b5050505050158015611330573d6000803e3d600061132d61459e565b50505b505050506040513d602081101561134f5760008061134c61459e565b50505b8101908080516001600160a01b0316925050505a61136b61479b565b6001600160a01b031614806113a05750611383611c4e565b6001600160a01b03165a61139561479b565b6001600160a01b0316145b806113cb57506113ae61177a565b6001600160a01b03165a6113c061479b565b6001600160a01b0316145b6114245760405162461bcd60e51b815260206004820152601b60248201527f6f6e6c79206d616e616765722c20747261646572206f722044414f000000000060448201526064016040518091039061142161459e565b50505b61142d81611b4d565b61147c5760405162461bcd60e51b8152602060048201526013602482015272185cdcd95d081b9bdd081cdd5c1c1bdc9d1959606a1b60448201526064016040518091039061147961459e565b50505b6001600160a01b0381166000908152603c6020526040902060009061149f614609565b906101000a900460ff16156115035760405162461bcd60e51b815260206004820152601f60248201527f63616e6e6f742072656d6f76652070657273697374656e74206173736574730060448201526064016040518091039061150061459e565b50505b61150c8161343b565b156115665760405162461bcd60e51b815260206004820152601d60248201527f63616e6e6f742072656d6f7665206e6f6e2d656d70747920617373657400000060448201526064016040518091039061156361459e565b50505b61156f8161391f565b50565b6000603361157e614609565b906101000a90046001600160a01b03166001600160a01b03165a6115a061479b565b6001600160a01b031614806115e95750600060376115bc614609565b906101000a90046001600160a01b03166001600160a01b03165a6115de61479b565b6001600160a01b0316145b61163b5760405162461bcd60e51b815260206004820152601660248201527537b7363c9036b0b730b3b2b91037b9103a3930b232b960511b60448201526064016040518091039061163861459e565b50505b61156f81613b25565b60008061165c848460200260040160ff1660206134b5565b9050600061166f856004840160206134b5565b9050806116c05760405162461bcd60e51b8152602060048201526012602482015271696e707574206973206e6f7420617272617960701b6044820152606401604051809103906116bd61459e565b50505b6116d48560208084028501600401906134b5565b925050505b92915050565b600060336116eb614609565b906101000a90046001600160a01b03166001600160a01b03165a61170d61479b565b6001600160a01b03161461175f5760405162461bcd60e51b815260206004820152600c60248201526b37b7363c9036b0b730b3b2b960a11b60448201526064016040518091039061175c61459e565b50505b61176881613199565b6117715761156f565b61156f81613e0e565b6000806037611787614609565b906101000a90046001600160a01b0316905090565b6000808060386117aa614609565b6001600160a01b036101009290920a90041663b7a54526600060396117cd614609565b906101000a90046001600160a01b03166040516001600160e01b031960e084901b1681526001600160a01b03909116600482015260240160408051808303818680611816614664565b15801561182b5760008061182861459e565b50505b505a6118356146b0565b5050505050158015611854573d6000803e3d600061185161459e565b50505b505050506040513d60408110156118735760008061187061459e565b50505b81019080805192919060200180519395509293505050509091565b90565b60008080603861189f614609565b906101000a90046001600160a01b03166001600160a01b0316638b2f0f4f856040516001600160e01b031960e084901b1681526001600160a01b03909116600482015260240160206040518083038186806118f8614664565b15801561190d5760008061190a61459e565b50505b505a6119176146b0565b5050505050158015611936573d6000803e3d600061193361459e565b50505b505050506040513d60208110156119555760008061195261459e565b50505b81019080805193506000925050506001600160a01b03851663313ce5676040518163ffffffff1660e01b81526004016020604051808303818680611997614664565b1580156119ac576000806119a961459e565b50505b505a6119b66146b0565b50505050501580156119d5573d6000803e3d60006119d261459e565b50505b505050506040513d60208110156119f4576000806119f161459e565b50505b81019080805160ff1693506116d492505050600a82900a611a158487613f89565b90613ff1565b60006039611a27614609565b906101000a90046001600160a01b031681565b603b6020528060005260406000209050611a52614609565b81565b600080611a6d858560200260040160ff1660206134b5565b90506000611a80866004840160206134b5565b905080611ad15760405162461bcd60e51b8152602060048201526012602482015271696e707574206973206e6f7420617272617960701b604482015260640160405180910390611ace61459e565b50505b60ff84168111611b295760405162461bcd60e51b815260206004820152601660248201527534b73b30b634b21030b93930bc903837b9b4ba34b7b760511b604482015260640160405180910390611b2661459e565b50505b611b43866020600160ff88160181028501600401906134b5565b9695505050505050565b6001600160a01b0381166000908152603b60205260408120611b6d614609565b151592915050565b60006033611b81614609565b906101000a90046001600160a01b03166001600160a01b03165a611ba361479b565b6001600160a01b031614611bf55760405162461bcd60e51b815260206004820152600c60248201526b37b7363c9036b0b730b3b2b960a11b604482015260640160405180910390611bf261459e565b50505b60005b8151811015611c4a57611c1d828281518110611c1057fe5b6020026020010151613199565b611c2657611c42565b611c42828281518110611c3557fe5b6020026020010151613e0e565b600101611bf8565b5050565b6000806033611787614609565b60006033611c67614609565b906101000a90046001600160a01b03166001600160a01b03165a611c8961479b565b6001600160a01b031614611cdb5760405162461bcd60e51b815260206004820152600c60248201526b37b7363c9036b0b730b3b2b960a11b604482015260640160405180910390611cd861459e565b50505b816033600181611ce9614609565b816001600160a01b0302191690836001600160a01b0316021790611d0b6147e1565b505050806034908051611d2292916020019061482f565b507f6ed15082ad038474841528b5badca105106d4463e44b5d434130dfb299aa366982826040516001600160a01b038316815260406020820181815290820183818151815260200191508051906020019080838360005b83811015611d91578082015183820152602001611d79565b50505050905090810190601f168015611dbe5780820380516001836020036101000a031916815260200191505b50935050505060405180910390a15050565b60006033611ddc614609565b906101000a90046001600160a01b03166001600160a01b03165a611dfe61479b565b6001600160a01b031614611e505760405162461bcd60e51b815260206004820152600c60248201526b37b7363c9036b0b730b3b2b960a11b604482015260640160405180910390611e4d61459e565b50505b6000806038611e5d614609565b906101000a90046001600160a01b03166001600160a01b0316635c9bfc2b6040518163ffffffff1660e01b81526004016020604051808303818680611ea0614664565b158015611eb557600080611eb261459e565b50505b505a611ebf6146b0565b5050505050158015611ede573d6000803e3d6000611edb61459e565b50505b505050506040513d6020811015611efd57600080611efa61459e565b50505b810190808051935060009250829150611f16905061179c565b909250905080841115611f6b5760405162461bcd60e51b815260206004820152601060248201526f34b73b30b634b210333930b1ba34b7b760811b604482015260640160405180910390611f6861459e565b50505b611f758284614031565b841115611fd15760405162461bcd60e51b815260206004820152601960248201527f657863656564656420616c6c6f77656420696e63726561736500000000000000604482015260640160405180910390611fce61459e565b50505b6000806038611fde614609565b906101000a90046001600160a01b03166001600160a01b031663ebee461d6040518163ffffffff1660e01b81526004016020604051808303818680612021614664565b1580156120365760008061203361459e565b50505b505a6120406146b0565b505050505015801561205f573d6000803e3d600061205c61459e565b50505b505050506040513d602081101561207e5760008061207b61459e565b50505b8101908080519350879250829150603d90506120986147e1565b505050805a6120a56148cf565b0180603e6120b16147e1565b5050507f4db9119741646c419f1ceccdf112b5b9a9b4516355e742e1fa9c479f4dec98da85603e6120e0614609565b60405191825260208201526040908101905180910390a15050505050565b6000818301845110156121605760405162461bcd60e51b815260206004820152601b60248201527f52656164696e67206279746573206f7574206f6620626f756e6473000000000060448201526064016040518091039061215d61459e565b50505b82602001840151905081600403801561217f576008810260020a820491505b509392505050565b60006033612193614609565b906101000a90046001600160a01b03166001600160a01b03165a6121b561479b565b6001600160a01b0316146122075760405162461bcd60e51b815260206004820152600c60248201526b37b7363c9036b0b730b3b2b960a11b60448201526064016040518091039061220461459e565b50505b603e612211614609565b5a61221a6148cf565b10156122755760405162461bcd60e51b815260206004820152601960248201527f66656520696e6372656173652064656c6179206163746976650000000000000060448201526064016040518091039061227261459e565b50505b612287603d612282614609565b614090565b600080603d6122946147e1565b5050506000603e81906122a56147e1565b505050565b600060336122b6614609565b906101000a90046001600160a01b03166001600160a01b03165a6122d861479b565b6001600160a01b03161461232a5760405162461bcd60e51b815260206004820152600c60248201526b37b7363c9036b0b730b3b2b960a11b60448201526064016040518091039061232761459e565b50505b60005b8151811015611c4a57612345828281518110611c1057fe5b1561234f5761236b565b61236b82828151811061235e57fe5b60200260200101516142cf565b60010161232d565b6000806033612380614609565b906101000a90046001600160a01b03166001600160a01b03165a6123a261479b565b6001600160a01b031614806123eb5750600060376123be614609565b906101000a90046001600160a01b03166001600160a01b03165a6123e061479b565b6001600160a01b0316145b61243d5760405162461bcd60e51b815260206004820152601660248201527537b7363c9036b0b730b3b2b91037b9103a3930b232b960511b60448201526064016040518091039061243a61459e565b50505b60006038612449614609565b906101000a90046001600160a01b03166001600160a01b031663b187bd266040518163ffffffff1660e01b8152600401602060405180830381868061248c614664565b1580156124a15760008061249e61459e565b50505b505a6124ab6146b0565b50505050501580156124ca573d6000803e3d60006124c761459e565b50505b505050506040513d60208110156124e9576000806124e661459e565b50505b8101908080511592506125419150505760405162461bcd60e51b815260206004820152601060248201526f14185d5cd8589b194e881c185d5cd95960821b60448201526064016040518091039061253e61459e565b50505b6001600160a01b0383166125a45760405162461bcd60e51b815260206004820152601c60248201527f6e6f6e2d7a65726f2061646472657373206973207265717569726564000000006044820152606401604051809103906125a161459e565b50505b60008060386125b1614609565b906101000a90046001600160a01b03166001600160a01b0316637027ea6c856040516001600160e01b031960e084901b1681526001600160a01b039091166004820152602401602060405180830381868061260a614664565b15801561261f5760008061261c61459e565b50505b505a6126296146b0565b5050505050158015612648573d6000803e3d600061264561459e565b50505b505050506040513d60208110156126675760008061266461459e565b50505b81019080805193505050506001600160a01b0381166126cb5760405162461bcd60e51b815260206004820152601360248201527234b73b30b634b2103232b9ba34b730ba34b7b760691b6044820152606401604051809103906126c861459e565b50505b806001600160a01b031663e23ff4375a63996d79a5598160e01b8152602081600483336000905af158601d01573d60011458600c01573d6000803e3d621234565260ea61109c528051925060005b604081101561273057600082820152602001612719565b505050856040518363ffffffff1660e01b815260040180836001600160a01b0316815260200180602001828103825283818151815260200191508051906020019080838360005b8381101561278f578082015183820152602001612777565b50505050905090810190601f1680156127bc5780820380516001836020036101000a031916815260200191505b509350505050602060405180830381600087806127d7614664565b1580156127ec576000806127e961459e565b50505b505a6127f6614915565b505050505050158015612816573d6000803e3d600061281361459e565b50505b505050506040513d60208110156128355760008061283261459e565b50505b810190808051925061288f9150505760405162461bcd60e51b815260206004820152601360248201527234b73b30b634b2103a3930b739b0b1ba34b7b760691b60448201526064016040518091039061288c61459e565b50505b6000846001600160a01b0316846040518082805190602001908083835b602083106128cb5780518252601f1990920191602091820191016128ac565b6001836020036101000a0380198251168184511680821785525050505050509050019150506000604051808303816000865a612905614915565b5050505050509150503d806000811461293a576040513d603f01601f191681016040523d815291503d6000602084013e61293f565b606091505b50909150506001811515146129a35760405162461bcd60e51b815260206004820152601a60248201527f6661696c656420746f2065786563757465207468652063616c6c0000000000006044820152606401604051809103906129a061459e565b50505b7f508f3afa87f72dce865a2321107666b28ac822c23a8c0555fbeb3424cf3de563600060396129d0614609565b906101000a90046001600160a01b03166129e8611c4e565b5a6129f16148cf565b6040516001600160a01b039384168152919092166020820152604080820192909252606001905180910390a1506001949350505050565b603e611a52614609565b60006033612a3e614609565b906101000a90046001600160a01b03166001600160a01b03165a612a6061479b565b6001600160a01b031614612ab25760405162461bcd60e51b815260206004820152600c60248201526b37b7363c9036b0b730b3b2b960a11b604482015260640160405180910390612aaf61459e565b50505b60006037600181612ac1614609565b816001600160a01b0302191690836001600160a01b03160217906122a56147e1565b603c60205280600052604060002060009150612afd614609565b906101000a900460ff1681565b6000612b21838360200260040160ff1660206134b5565b9392505050565b6000806038612b35614609565b906101000a90046001600160a01b03166001600160a01b03165a612b5761479b565b6001600160a01b03161480612c3a575060006038612b73614609565b906101000a90046001600160a01b03166001600160a01b0316631d68702d6040518163ffffffff1660e01b81526004016020604051808303818680612bb6614664565b158015612bcb57600080612bc861459e565b50505b505a612bd56146b0565b5050505050158015612bf4573d6000803e3d6000612bf161459e565b50505b505050506040513d6020811015612c1357600080612c1061459e565b50505b8101908080516001600160a01b0316925050505a612c2f61479b565b6001600160a01b0316145b612c7e5760405162461bcd60e51b81526004018080602001828103825260238152602001806149fb6023913960400191505060405180910390612c7b61459e565b50505b5a63996d79a5598160e01b8152602081600483336000905af158601d01573d60011458600c01573d6000803e3d621234565260ea61109c528051925060005b6040811015612cd457600082820152602001612cbd565b5050506001600160a01b0316826001600160a01b0316631e50a4a66040518163ffffffff1660e01b81526004016020604051808303818680612d14614664565b158015612d2957600080612d2661459e565b50505b505a612d336146b0565b5050505050158015612d52573d6000803e3d6000612d4f61459e565b50505b505050506040513d6020811015612d7157600080612d6e61459e565b50505b8101908080516001600160a01b0316939093149250612dd79150505760405162461bcd60e51b8152602060048201526012602482015271696e76616c696420706f6f6c206c6f67696360701b604482015260640160405180910390612dd461459e565b50505b816039600181612de5614609565b816001600160a01b0302191690836001600160a01b0316021790612e076147e1565b5050507f8c1446ebd2ac8c922b8c9716dfbdfcfef02c9fc167140d7cfd019565b423b249825a612e3561479b565b6040516001600160a01b039283168152911660208201526040908101905180910390a1506001919050565b603d611a52614609565b6000806038612e77614609565b906101000a90046001600160a01b03166001600160a01b031663cc435bf3836040516001600160e01b031960e084901b1681526001600160a01b0390911660048201526024016020604051808303818680612ed0614664565b158015612ee557600080612ee261459e565b50505b505a612eef6146b0565b5050505050158015612f0e573d6000803e3d6000612f0b61459e565b50505b505050506040513d6020811015612f2d57600080612f2a61459e565b50505b81019080805195945050505050565b6000603a80612f49614609565b91505090565b600080612f67848460200260040160ff1660206134b5565b9050612f78846004830160206134b5565b949350505050565b6060603580612f8d614609565b806020026020016040519081016040528181529190602083018280612fb0614609565b8015612ffd57602002820191906000526020600020905b600082612fd2614609565b906101000a90046001600160a01b03166001600160a01b031681526020019060010190808311612fc7575b5050505050905090565b6000603580612f49614609565b60006033613020614609565b906101000a90046001600160a01b03166001600160a01b03165a61304261479b565b6001600160a01b0316146130945760405162461bcd60e51b815260206004820152600c60248201526b37b7363c9036b0b730b3b2b960a11b60448201526064016040518091039061309161459e565b50505b8060376001816130a2614609565b816001600160a01b0302191690836001600160a01b03160217906130c46147e1565b50505050565b600060336130d6614609565b906101000a90046001600160a01b03166001600160a01b03165a6130f861479b565b6001600160a01b03161461314a5760405162461bcd60e51b815260206004820152600c60248201526b37b7363c9036b0b730b3b2b960a11b60448201526064016040518091039061314761459e565b50505b600080603d6131576147e1565b5050506000603e81906131686147e1565b5050507fc6f04bf43cbdf1ba5d51b4afa160bb3c7e13858b1409aa32868b239bb2f8d84960405160405180910390a1565b6001600160a01b0381166000908152603660205260408120611b6d614609565b60006116d982600060046120fe565b60006038611a27614609565b600160006131e0614609565b906101000a900460ff16806131f857506131f861435b565b806132155750600080613209614609565b906101000a900460ff16155b6132595760405162461bcd60e51b815260040180806020018281038252602e815260200180614a3f602e91396040019150506040518091039061325661459e565b50505b6000600181613266614609565b906101000a900460ff1615905080156132cc576001600061010081613289614609565b8160ff0219169083151502179061329e6147e1565b50505060016000806101000a816132b3614609565b8160ff021916908315150217906132c86147e1565b5050505b6132d684846143cc565b8460386001816132e4614609565b816001600160a01b0302191690836001600160a01b03160217906133066147e1565b50505060005b82518160ff16101561333f57613337838260ff168151811061332a57fe5b6020026020010151613b25565b60010161330c565b50801561336e5760008061010081613355614609565b8160ff0219169083151502179061336a6147e1565b5050505b5050505050565b603a8181613381614609565b811061338957fe5b9060005260206000200160009150611a27614609565b600060336133ab614609565b906101000a90046001600160a01b03166001600160a01b03165a6133cd61479b565b6001600160a01b03161461341f5760405162461bcd60e51b815260206004820152600c60248201526b37b7363c9036b0b730b3b2b960a11b60448201526064016040518091039061341c61459e565b50505b61342881613199565b156134325761156f565b61156f816142cf565b60006001600160a01b0382166370a08231826039613457614609565b906101000a90046001600160a01b03166040516001600160e01b031960e084901b1681526001600160a01b0390911660048201526024016020604051808303818680612ed0614664565b60006116d9826134b08461343b565b611891565b6000818301845110156135175760405162461bcd60e51b815260206004820152601b60248201527f52656164696e67206279746573206f7574206f6620626f756e6473000000000060448201526064016040518091039061351461459e565b50505b82602001840151905081602003801561217f5760080260020a90049392505050565b6060603a80613546614609565b806020026020016040519081016040528181529190602083018280613569614609565b8015612ffd57602002820191906000526020600020905b60008261358b614609565b906101000a90046001600160a01b03166001600160a01b031681526020019060010190808311613580575050505050905090565b600080603d6135cc614609565b603e6135d6614609565b915091509091565b60608060606000603a806135f0614609565b9050905060608167ffffffffffffffff811180156136165760008061361361459e565b50505b50604051908082528060200260200182016040528015613640578160200160208202803683370190505b50905060608267ffffffffffffffff811180156136655760008061366261459e565b50505b5060405190808252806020026020018201604052801561368f578160200160208202803683370190505b50905060608367ffffffffffffffff811180156136b4576000806136b161459e565b50505b506040519080825280602002602001820160405280156136de578160200160208202803683370190505b50905060005b8481101561385d576000603a82816136fa614609565b811061370257fe5b90600052602060002001600090613717614609565b906101000a90046001600160a01b031690506137328161343b565b84838151811061373e57fe5b6020026020010181815250508085838151811061375757fe5b6001600160a01b03909216602092830291909101909101526000603861377b614609565b906101000a90046001600160a01b03166001600160a01b0316638b2f0f4f826040516001600160e01b031960e084901b1681526001600160a01b03909116600482015260240160206040518083038186806137d4614664565b1580156137e9576000806137e661459e565b50505b505a6137f36146b0565b5050505050158015613812573d6000803e3d600061380f61459e565b50505b505050506040513d60208110156138315760008061382e61459e565b50505b81019080805192508591508490508151811061384957fe5b6020908102919091010152506001016136e4565b509195509350915050909192565b6060603480613878614609565b600181600116156101000203166002900480601f0160208091040260200160405190810160405281815291906020830182806138b2614609565b60018160011615610100020316600290048015612ffd5780601f106138ec5761010080836138de614609565b040283529160200191612ffd565b820191906000526020600020905b81613903614609565b815290600101906020018083116138fa57509395945050505050565b6000603a8061392c614609565b6001600160a01b0384166000908152603b602052909250905061395c600160408320613956614609565b90614413565b90506000603a61396d846001614413565b81613976614609565b811061397e57fe5b90600052602060002001600090613993614609565b906101000a90046001600160a01b0316905080603a83816139b2614609565b81106139ba57fe5b906000526020600020016001816139cf614609565b816001600160a01b0302191690836001600160a01b03160217906139f16147e1565b50613a0191508390506001614031565b6001600160a01b0382166000908152603b602052604090208190613a236147e1565b5050506001600160a01b0384166000908152603b602052604081208190613a486147e1565b505050603a80613a56614609565b80613a5d57fe5b60019003818190600052602060002001600181613a78614609565b906001600160a01b0302191690613a8d6147e1565b505090613a986147e1565b50507f9b4f55639e5e283319baee5bc4e69a5625a8e3a1cc004af968f4fee7250220276039600090613ac8614609565b906101000a90046001600160a01b0316613ae0611c4e565b8660405180846001600160a01b03168152602001836001600160a01b03168152602001826001600160a01b03168152602001935050505060405180910390a150505050565b60006038613b31614609565b906101000a90046001600160a01b03166001600160a01b031663aa12ae4d6040518163ffffffff1660e01b81526004016020604051808303818680613b74614664565b158015613b8957600080613b8661459e565b50505b505a613b936146b0565b5050505050158015613bb2573d6000803e3d6000613baf61459e565b50505b505050506040513d6020811015613bd157600080613bce61459e565b50505b8101908080519250603a9150819050613be8614609565b905010613c3d5760405162461bcd60e51b81526020600482015260166024820152751b585e1a5b5d5b48185cdcd95d1cc81c995858da195960521b604482015260640160405180910390613c3a61459e565b50505b613c4681611b4d565b15613ca05760405162461bcd60e51b815260206004820152601760248201527f617373657420616c726561647920737570706f72746564000000000000000000604482015260640160405180910390613c9d61459e565b50505b613ca981612e6a565b1515600114613cf75760405162461bcd60e51b815260206004820152600d60248201526c1a5b9d985b1a5908185cdcd95d609a1b604482015260640160405180910390613cf461459e565b50505b80603a80600181613d06614609565b018082613d116147e1565b505060009283526000190191602091502001600181613d2e614609565b816001600160a01b0302191690836001600160a01b0316021790613d506147e1565b505050603a80613d5e614609565b6001600160a01b0383166000908152603b602052909150604090208190613d836147e1565b5050507f0a7426a0630aad7dbc4d5ca5b7d9aac1133d77d2db987caaf4b4186c85d6593f6039600090613db4614609565b906101000a90046001600160a01b0316613dcc611c4e565b8360405180846001600160a01b03168152602001836001600160a01b03168152602001826001600160a01b03168152602001935050505060405180910390a150565b6000603580613e1b614609565b6001600160a01b038416600090815260366020529092509050613e45600160408320613956614609565b905060006035613e56846001614413565b81613e5f614609565b8110613e6757fe5b90600052602060002001600090613e7c614609565b906101000a90046001600160a01b031690508060358381613e9b614609565b8110613ea357fe5b90600052602060002001600181613eb8614609565b816001600160a01b0302191690836001600160a01b0316021790613eda6147e1565b50613eea91508390506001614031565b6001600160a01b03821660009081526036602052604090208190613f0c6147e1565b5050506001600160a01b03841660009081526036602052604081208190613f316147e1565b505050603580613f3f614609565b80613f4657fe5b60019003818190600052602060002001600181613f61614609565b906001600160a01b0302191690613f766147e1565b505090613f816147e1565b505050505050565b600082613f98575060006116d9565b82820282848281613fa557fe5b0414612b215760405162461bcd60e51b8152600401808060200182810382526021815260200180614a1e6021913960400191505060405180910390613fe861459e565b50509392505050565b6000612b21838360405160408082019052601a81527f536166654d6174683a206469766973696f6e206279207a65726f0000000000006020820152614453565b600082820183811015612b215760405162461bcd60e51b815260206004820152601b60248201527f536166654d6174683a206164646974696f6e206f766572666c6f770000000000604482015260640160405180910390613fe861459e565b6000603861409c614609565b6001600160a01b036101009290920a90041663046b72c4600060396140bf614609565b906101000a90046001600160a01b0316836040516001600160e01b031960e085901b1681526001600160a01b039092166004830152602482015260440160006040518083038160008780614111614664565b1580156141265760008061412361459e565b50505b505a614130614915565b505050505050158015614150573d6000803e3d600061414d61459e565b50505b505050506000806038600090614164614609565b6001600160a01b036101009290920a90041663b7a5452660006039614187614609565b906101000a90046001600160a01b03166040516001600160e01b031960e084901b1681526001600160a01b039091166004820152602401604080518083038186806141d0614664565b1580156141e5576000806141e261459e565b50505b505a6141ef6146b0565b505050505015801561420e573d6000803e3d600061420b61459e565b50505b505050506040513d604081101561422d5760008061422a61459e565b50505b81019080805192919060200180519395509293507f1780c04ddc6f0b32d866c7a3d7583f53515ef49ed2126af868f804f49160126692506000915060399050614274614609565b906101000a90046001600160a01b031661428c611c4e565b848460405180856001600160a01b03168152602001846001600160a01b0316815260200183815260200182815260200194505050505060405180910390a1505050565b806035806001816142de614609565b0180826142e96147e1565b505060009283526000190191602091502001600181614306614609565b816001600160a01b0302191690836001600160a01b03160217906143286147e1565b505050603580614336614609565b6001600160a01b038316600090815260366020529091506040902081906130c46147e1565b6000805a63996d79a5598160e01b8152602081600483336000905af158601d01573d60011458600c01573d6000803e3d621234565260ea61109c528051925060005b60408110156143b45760008282015260200161439d565b50505090506000816143c4614664565b159250505090565b8160336001816143da614609565b816001600160a01b0302191690836001600160a01b03160217906143fc6147e1565b5050508060349080516122a592916020019061482f565b6000612b21838360405160408082019052601e81527f536166654d6174683a207375627472616374696f6e206f766572666c6f77000060208201526144fe565b600081836144e85760405162461bcd60e51b81526004018080602001828103825283818151815260200191508051906020019080838360005b838110156144a457808201518382015260200161448c565b50505050905090810190601f1680156144d15780820380516001836020036101000a031916815260200191505b5092505050604051809103906144e561459e565b50505b5060008385816144f457fe5b0495945050505050565b600081848411156145965760405162461bcd60e51b81526004018080602001828103825283818151815260200191508051906020019080838360005b8381101561455257808201518382015260200161453a565b50505050905090810190601f16801561457f5780820380516001836020036101000a031916815260200191505b50925050506040518091039061459361459e565b50505b505050900390565b632a2a7adb598160e01b8152600481016020815285602082015260005b868110156145d65780860151828201604001526020016145bb565b506020828760640184336000905af158601d01573d60011458600c01573d6000803e3d621234565260ea61109c52505050565b6303daa959598160e01b8152836004820152602081602483336000905af158601d01573d60011458600c01573d6000803e3d621234565260ea61109c528051935060005b60408110156122a55760008282015260200161464d565b638435035b598160e01b8152836004820152602081602483336000905af158601d01573d60011458600c01573d6000803e3d621234565260ea61109c528051600082529350602061464d565b638540661f598160e01b81526146e1565b80808311156116d9575090919050565b80808310156116d9575090919050565b836004820152846024820152606060448201528660648201526084810160005b88811015614719578088015182820152602001614701565b506060828960a40184336000905af158601d01573d60011458600c01573d6000803e3d621234565260ea61109c52815160408301513d6000853e8b8b82606087013350600060045af1505961476e8d3d6146d1565b8c0161477a81876146c1565b5b8281101561478f576000815260200161477b565b50929c50505050505050565b6373509064598160e01b8152602081600483336000905af158601d01573d60011458600c01573d6000803e3d621234565260ea61109c528051600082529350602061464d565b6322bd64c0598160e01b8152836004820152846024820152600081604483336000905af158601d01573d60011458600c01573d6000803e3d621234565260ea61109c5260008152602061464d565b8280614839614609565b600181600116156101000203166002900490600052602060002090601f016020900481019282601f1061488057805160ff191683800117856148796147e1565b50506148bf565b8280016001018561488f6147e1565b505082156148bf579182015b828111156148bf578251826148ae6147e1565b50509160200191906001019061489b565b506148cb9291506149db565b5090565b63bdbf8c36598160e01b8152602081600483336000905af158601d01573d60011458600c01573d6000803e3d621234565260ea61109c528051600082529350602061464d565b6385979f76598160e01b8152836004820152846024820152606060448201528760648201526084810160005b89811015614959578089015182820152602001614941565b506060828a60a40184336000905af158601d01573d60011458600c01573d6000803e3d621234565260ea61109c52815160408301513d6000853e8c8c82606087013350600060045af150596149ae8e3d6146d1565b8d016149ba81876146c1565b5b828110156149cf57600081526020016149bb565b50929d50505050505050565b808211156148cb57600080826149ef6147e1565b5050506001016149db56fe6f6e6c792044414f206f7220666163746f7279206164647265737320616c6c6f776564536166654d6174683a206d756c7469706c69636174696f6e206f766572666c6f77436f6e747261637420696e7374616e63652068617320616c7265616479206265656e20696e697469616c697a6564",
  "linkReferences": {},
  "deployedLinkReferences": {}
}