{
  "_format": "hh-sol-artifact-1",
  "contractName": "PoolManagerLogic",
  "sourceName": "contracts/PoolManagerLogic.sol",
  "abi": [
    {
      "anonymous": false,
      "inputs": [
        {
          "indexed": false,
          "internalType": "address",
          "name": "fundAddress",
          "type": "address"
        },
        {
          "indexed": false,
          "internalType": "address",
          "name": "manager",
          "type": "address"
        },
        {
          "indexed": false,
          "internalType": "address",
          "name": "asset",
          "type": "address"
        },
        {
          "indexed": false,
          "internalType": "bool",
          "name": "isDeposit",
          "type": "bool"
        }
      ],
      "name": "AssetAdded",
      "type": "event"
    },
    {
      "anonymous": false,
      "inputs": [
        {
          "indexed": false,
          "internalType": "address",
          "name": "fundAddress",
          "type": "address"
        },
        {
          "indexed": false,
          "internalType": "address",
          "name": "manager",
          "type": "address"
        },
        {
          "indexed": false,
          "internalType": "address",
          "name": "asset",
          "type": "address"
        },
        {
          "indexed": false,
          "internalType": "bool",
          "name": "isDeposit",
          "type": "bool"
        }
      ],
      "name": "AssetRemoved",
      "type": "event"
    },
    {
      "anonymous": false,
      "inputs": [
        {
          "indexed": false,
          "internalType": "uint256",
          "name": "newNumerator",
          "type": "uint256"
        },
        {
          "indexed": false,
          "internalType": "uint256",
          "name": "announcedFeeActivationTime",
          "type": "uint256"
        }
      ],
      "name": "ManagerFeeIncreaseAnnounced",
      "type": "event"
    },
    {
      "anonymous": false,
      "inputs": [],
      "name": "ManagerFeeIncreaseRenounced",
      "type": "event"
    },
    {
      "anonymous": false,
      "inputs": [
        {
          "indexed": false,
          "internalType": "address",
          "name": "fundAddress",
          "type": "address"
        },
        {
          "indexed": false,
          "internalType": "address",
          "name": "manager",
          "type": "address"
        },
        {
          "indexed": false,
          "internalType": "uint256",
          "name": "numerator",
          "type": "uint256"
        },
        {
          "indexed": false,
          "internalType": "uint256",
          "name": "denominator",
          "type": "uint256"
        }
      ],
      "name": "ManagerFeeSet",
      "type": "event"
    },
    {
      "anonymous": false,
      "inputs": [
        {
          "indexed": false,
          "internalType": "address",
          "name": "newManager",
          "type": "address"
        },
        {
          "indexed": false,
          "internalType": "string",
          "name": "newManagerName",
          "type": "string"
        }
      ],
      "name": "ManagerUpdated",
      "type": "event"
    },
    {
      "anonymous": false,
      "inputs": [
        {
          "indexed": false,
          "internalType": "address",
          "name": "account",
          "type": "address"
        }
      ],
      "name": "Paused",
      "type": "event"
    },
    {
      "anonymous": false,
      "inputs": [
        {
          "indexed": false,
          "internalType": "address",
          "name": "poolLogic",
          "type": "address"
        },
        {
          "indexed": false,
          "internalType": "address",
          "name": "from",
          "type": "address"
        }
      ],
      "name": "PoolLogicSet",
      "type": "event"
    },
    {
      "anonymous": false,
      "inputs": [
        {
          "indexed": false,
          "internalType": "address",
          "name": "fundAddress",
          "type": "address"
        },
        {
          "indexed": false,
          "internalType": "address",
          "name": "manager",
          "type": "address"
        },
        {
          "indexed": false,
          "internalType": "uint256",
          "name": "time",
          "type": "uint256"
        }
      ],
      "name": "TransactionExecuted",
      "type": "event"
    },
    {
      "anonymous": false,
      "inputs": [
        {
          "indexed": false,
          "internalType": "address",
          "name": "account",
          "type": "address"
        }
      ],
      "name": "Unpaused",
      "type": "event"
    },
    {
      "inputs": [
        {
          "internalType": "address",
          "name": "member",
          "type": "address"
        }
      ],
      "name": "addMember",
      "outputs": [],
      "stateMutability": "nonpayable",
      "type": "function"
    },
    {
      "inputs": [
        {
          "internalType": "address[]",
          "name": "members",
          "type": "address[]"
        }
      ],
      "name": "addMembers",
      "outputs": [],
      "stateMutability": "nonpayable",
      "type": "function"
    },
    {
      "inputs": [
        {
          "internalType": "uint256",
          "name": "numerator",
          "type": "uint256"
        }
      ],
      "name": "announceManagerFeeIncrease",
      "outputs": [],
      "stateMutability": "nonpayable",
      "type": "function"
    },
    {
      "inputs": [],
      "name": "announcedFeeIncreaseNumerator",
      "outputs": [
        {
          "internalType": "uint256",
          "name": "",
          "type": "uint256"
        }
      ],
      "stateMutability": "view",
      "type": "function"
    },
    {
      "inputs": [],
      "name": "announcedFeeIncreaseTimestamp",
      "outputs": [
        {
          "internalType": "uint256",
          "name": "",
          "type": "uint256"
        }
      ],
      "stateMutability": "view",
      "type": "function"
    },
    {
      "inputs": [
        {
          "internalType": "address",
          "name": "asset",
          "type": "address"
        }
      ],
      "name": "assetBalance",
      "outputs": [
        {
          "internalType": "uint256",
          "name": "",
          "type": "uint256"
        }
      ],
      "stateMutability": "view",
      "type": "function"
    },
    {
      "inputs": [
        {
          "internalType": "address",
          "name": "",
          "type": "address"
        }
      ],
      "name": "assetPosition",
      "outputs": [
        {
          "internalType": "uint256",
          "name": "",
          "type": "uint256"
        }
      ],
      "stateMutability": "view",
      "type": "function"
    },
    {
      "inputs": [
        {
          "internalType": "address",
          "name": "asset",
          "type": "address"
        },
        {
          "internalType": "uint256",
          "name": "amount",
          "type": "uint256"
        }
      ],
      "name": "assetValue",
      "outputs": [
        {
          "internalType": "uint256",
          "name": "",
          "type": "uint256"
        }
      ],
      "stateMutability": "view",
      "type": "function"
    },
    {
      "inputs": [
        {
          "internalType": "address",
          "name": "asset",
          "type": "address"
        }
      ],
      "name": "assetValue",
      "outputs": [
        {
          "internalType": "uint256",
          "name": "",
          "type": "uint256"
        }
      ],
      "stateMutability": "view",
      "type": "function"
    },
    {
      "inputs": [
        {
          "components": [
            {
              "internalType": "address",
              "name": "asset",
              "type": "address"
            },
            {
              "internalType": "bool",
              "name": "isDeposit",
              "type": "bool"
            }
          ],
          "internalType": "struct IPoolManagerLogic.Asset[]",
          "name": "_addAssets",
          "type": "tuple[]"
        },
        {
          "components": [
            {
              "internalType": "address",
              "name": "asset",
              "type": "address"
            },
            {
              "internalType": "bool",
              "name": "isDeposit",
              "type": "bool"
            }
          ],
          "internalType": "struct IPoolManagerLogic.Asset[]",
          "name": "_removeAssets",
          "type": "tuple[]"
        }
      ],
      "name": "changeAssets",
      "outputs": [],
      "stateMutability": "nonpayable",
      "type": "function"
    },
    {
      "inputs": [
        {
          "internalType": "address",
          "name": "newManager",
          "type": "address"
        },
        {
          "internalType": "string",
          "name": "newManagerName",
          "type": "string"
        }
      ],
      "name": "changeManager",
      "outputs": [],
      "stateMutability": "nonpayable",
      "type": "function"
    },
    {
      "inputs": [],
      "name": "commitManagerFeeIncrease",
      "outputs": [],
      "stateMutability": "nonpayable",
      "type": "function"
    },
    {
      "inputs": [
        {
          "internalType": "bytes32",
          "name": "data",
          "type": "bytes32"
        }
      ],
      "name": "convert32toAddress",
      "outputs": [
        {
          "internalType": "address",
          "name": "o",
          "type": "address"
        }
      ],
      "stateMutability": "pure",
      "type": "function"
    },
    {
      "inputs": [
        {
          "internalType": "address",
          "name": "to",
          "type": "address"
        },
        {
          "internalType": "bytes",
          "name": "data",
          "type": "bytes"
        }
      ],
      "name": "execTransaction",
      "outputs": [
        {
          "internalType": "bool",
          "name": "",
          "type": "bool"
        }
      ],
      "stateMutability": "nonpayable",
      "type": "function"
    },
    {
      "inputs": [],
      "name": "factory",
      "outputs": [
        {
          "internalType": "address",
          "name": "",
          "type": "address"
        }
      ],
      "stateMutability": "view",
      "type": "function"
    },
    {
      "inputs": [
        {
          "internalType": "bytes",
          "name": "data",
          "type": "bytes"
        },
        {
          "internalType": "uint8",
          "name": "inputNum",
          "type": "uint8"
        },
        {
          "internalType": "uint8",
          "name": "arrayIndex",
          "type": "uint8"
        }
      ],
      "name": "getArrayIndex",
      "outputs": [
        {
          "internalType": "bytes32",
          "name": "",
          "type": "bytes32"
        }
      ],
      "stateMutability": "pure",
      "type": "function"
    },
    {
      "inputs": [
        {
          "internalType": "bytes",
          "name": "data",
          "type": "bytes"
        },
        {
          "internalType": "uint8",
          "name": "inputNum",
          "type": "uint8"
        }
      ],
      "name": "getArrayLast",
      "outputs": [
        {
          "internalType": "bytes32",
          "name": "",
          "type": "bytes32"
        }
      ],
      "stateMutability": "pure",
      "type": "function"
    },
    {
      "inputs": [
        {
          "internalType": "bytes",
          "name": "data",
          "type": "bytes"
        },
        {
          "internalType": "uint8",
          "name": "inputNum",
          "type": "uint8"
        }
      ],
      "name": "getArrayLength",
      "outputs": [
        {
          "internalType": "uint256",
          "name": "",
          "type": "uint256"
        }
      ],
      "stateMutability": "pure",
      "type": "function"
    },
    {
      "inputs": [],
      "name": "getFundComposition",
      "outputs": [
        {
          "internalType": "address[]",
          "name": "",
          "type": "address[]"
        },
        {
          "internalType": "uint256[]",
          "name": "",
          "type": "uint256[]"
        },
        {
          "internalType": "uint256[]",
          "name": "",
          "type": "uint256[]"
        }
      ],
      "stateMutability": "view",
      "type": "function"
    },
    {
      "inputs": [
        {
          "internalType": "bytes",
          "name": "data",
          "type": "bytes"
        },
        {
          "internalType": "uint8",
          "name": "inputNum",
          "type": "uint8"
        }
      ],
      "name": "getInput",
      "outputs": [
        {
          "internalType": "bytes32",
          "name": "",
          "type": "bytes32"
        }
      ],
      "stateMutability": "pure",
      "type": "function"
    },
    {
      "inputs": [],
      "name": "getManagerFee",
      "outputs": [
        {
          "internalType": "uint256",
          "name": "",
          "type": "uint256"
        },
        {
          "internalType": "uint256",
          "name": "",
          "type": "uint256"
        }
      ],
      "stateMutability": "view",
      "type": "function"
    },
    {
      "inputs": [],
      "name": "getManagerFeeIncreaseInfo",
      "outputs": [
        {
          "internalType": "uint256",
          "name": "",
          "type": "uint256"
        },
        {
          "internalType": "uint256",
          "name": "",
          "type": "uint256"
        }
      ],
      "stateMutability": "view",
      "type": "function"
    },
    {
      "inputs": [],
      "name": "getMembers",
      "outputs": [
        {
          "internalType": "address[]",
          "name": "",
          "type": "address[]"
        }
      ],
      "stateMutability": "view",
      "type": "function"
    },
    {
      "inputs": [
        {
          "internalType": "bytes",
          "name": "data",
          "type": "bytes"
        }
      ],
      "name": "getMethod",
      "outputs": [
        {
          "internalType": "bytes4",
          "name": "",
          "type": "bytes4"
        }
      ],
      "stateMutability": "pure",
      "type": "function"
    },
    {
      "inputs": [],
      "name": "getSupportedAssets",
      "outputs": [
        {
          "internalType": "address[]",
          "name": "",
          "type": "address[]"
        }
      ],
      "stateMutability": "view",
      "type": "function"
    },
    {
      "inputs": [
        {
          "internalType": "address",
          "name": "_factory",
          "type": "address"
        },
        {
          "internalType": "address",
          "name": "_manager",
          "type": "address"
        },
        {
          "internalType": "string",
          "name": "_managerName",
          "type": "string"
        },
        {
          "components": [
            {
              "internalType": "address",
              "name": "asset",
              "type": "address"
            },
            {
              "internalType": "bool",
              "name": "isDeposit",
              "type": "bool"
            }
          ],
          "internalType": "struct IPoolManagerLogic.Asset[]",
          "name": "_supportedAssets",
          "type": "tuple[]"
        }
      ],
      "name": "initialize",
      "outputs": [],
      "stateMutability": "nonpayable",
      "type": "function"
    },
    {
      "inputs": [
        {
          "internalType": "address",
          "name": "asset",
          "type": "address"
        }
      ],
      "name": "isDepositAsset",
      "outputs": [
        {
          "internalType": "bool",
          "name": "",
          "type": "bool"
        }
      ],
      "stateMutability": "view",
      "type": "function"
    },
    {
      "inputs": [
        {
          "internalType": "address",
          "name": "member",
          "type": "address"
        }
      ],
      "name": "isMemberAllowed",
      "outputs": [
        {
          "internalType": "bool",
          "name": "",
          "type": "bool"
        }
      ],
      "stateMutability": "view",
      "type": "function"
    },
    {
      "inputs": [
        {
          "internalType": "address",
          "name": "asset",
          "type": "address"
        }
      ],
      "name": "isSupportedAsset",
      "outputs": [
        {
          "internalType": "bool",
          "name": "",
          "type": "bool"
        }
      ],
      "stateMutability": "view",
      "type": "function"
    },
    {
      "inputs": [],
      "name": "manager",
      "outputs": [
        {
          "internalType": "address",
          "name": "",
          "type": "address"
        }
      ],
      "stateMutability": "view",
      "type": "function"
    },
    {
      "inputs": [],
      "name": "managerName",
      "outputs": [
        {
          "internalType": "string",
          "name": "",
          "type": "string"
        }
      ],
      "stateMutability": "view",
      "type": "function"
    },
    {
      "inputs": [],
      "name": "numberOfDepositAssets",
      "outputs": [
        {
          "internalType": "uint256",
          "name": "",
          "type": "uint256"
        }
      ],
      "stateMutability": "view",
      "type": "function"
    },
    {
      "inputs": [],
      "name": "numberOfMembers",
      "outputs": [
        {
          "internalType": "uint256",
          "name": "",
          "type": "uint256"
        }
      ],
      "stateMutability": "view",
      "type": "function"
    },
    {
      "inputs": [],
      "name": "numberOfSupportedAssets",
      "outputs": [
        {
          "internalType": "uint256",
          "name": "",
          "type": "uint256"
        }
      ],
      "stateMutability": "view",
      "type": "function"
    },
    {
      "inputs": [],
      "name": "poolLogic",
      "outputs": [
        {
          "internalType": "address",
          "name": "",
          "type": "address"
        }
      ],
      "stateMutability": "view",
      "type": "function"
    },
    {
      "inputs": [
        {
          "internalType": "bytes",
          "name": "data",
          "type": "bytes"
        },
        {
          "internalType": "uint256",
          "name": "offset",
          "type": "uint256"
        },
        {
          "internalType": "uint256",
          "name": "length",
          "type": "uint256"
        }
      ],
      "name": "read32",
      "outputs": [
        {
          "internalType": "bytes32",
          "name": "o",
          "type": "bytes32"
        }
      ],
      "stateMutability": "pure",
      "type": "function"
    },
    {
      "inputs": [
        {
          "internalType": "bytes",
          "name": "data",
          "type": "bytes"
        },
        {
          "internalType": "uint256",
          "name": "offset",
          "type": "uint256"
        },
        {
          "internalType": "uint256",
          "name": "length",
          "type": "uint256"
        }
      ],
      "name": "read4left",
      "outputs": [
        {
          "internalType": "bytes4",
          "name": "o",
          "type": "bytes4"
        }
      ],
      "stateMutability": "pure",
      "type": "function"
    },
    {
      "inputs": [
        {
          "internalType": "address",
          "name": "member",
          "type": "address"
        }
      ],
      "name": "removeMember",
      "outputs": [],
      "stateMutability": "nonpayable",
      "type": "function"
    },
    {
      "inputs": [
        {
          "internalType": "address[]",
          "name": "members",
          "type": "address[]"
        }
      ],
      "name": "removeMembers",
      "outputs": [],
      "stateMutability": "nonpayable",
      "type": "function"
    },
    {
      "inputs": [],
      "name": "removeTrader",
      "outputs": [],
      "stateMutability": "nonpayable",
      "type": "function"
    },
    {
      "inputs": [],
      "name": "renounceManagerFeeIncrease",
      "outputs": [],
      "stateMutability": "nonpayable",
      "type": "function"
    },
    {
      "inputs": [
        {
          "internalType": "address",
          "name": "_poolLogic",
          "type": "address"
        }
      ],
      "name": "setPoolLogic",
      "outputs": [
        {
          "internalType": "bool",
          "name": "",
          "type": "bool"
        }
      ],
      "stateMutability": "nonpayable",
      "type": "function"
    },
    {
      "inputs": [
        {
          "internalType": "address",
          "name": "newTrader",
          "type": "address"
        }
      ],
      "name": "setTrader",
      "outputs": [],
      "stateMutability": "nonpayable",
      "type": "function"
    },
    {
      "inputs": [
        {
          "internalType": "uint256",
          "name": "",
          "type": "uint256"
        }
      ],
      "name": "supportedAssets",
      "outputs": [
        {
          "internalType": "address",
          "name": "asset",
          "type": "address"
        },
        {
          "internalType": "bool",
          "name": "isDeposit",
          "type": "bool"
        }
      ],
      "stateMutability": "view",
      "type": "function"
    },
    {
      "inputs": [],
      "name": "trader",
      "outputs": [
        {
          "internalType": "address",
          "name": "",
          "type": "address"
        }
      ],
      "stateMutability": "view",
      "type": "function"
    },
    {
      "inputs": [
        {
          "internalType": "address",
          "name": "asset",
          "type": "address"
        }
      ],
      "name": "validateAsset",
      "outputs": [
        {
          "internalType": "bool",
          "name": "",
          "type": "bool"
        }
      ],
      "stateMutability": "view",
      "type": "function"
    }
  ],
  "bytecode": "0x608060405234801561001057600080fd5b50613556806100206000396000f3fe608060405234801561001057600080fd5b50600436106102955760003560e01c806380dd4f6211610167578063c3c6279f116100ce578063d8af8ed411610087578063d8af8ed414610e04578063db896b5714610e2a578063e5406dbf14610ed3578063ed5b165d14610edb578063f09d14d714610ee3578063fed4416a14610fc957610295565b8063c3c6279f14610bb0578063c45a015514610c54578063c688aa6414610c5c578063c68dbb3714610d9b578063ca6d56dc14610db8578063cd88e55814610dde57610295565b8063998546e311610120578063998546e314610a535780639eab525314610afc578063a30e3fa914610b54578063a6bc18f914610b5c578063b8bd81e614610b82578063bbbf725b14610b8a57610295565b806380dd4f621461092857806382f86acc1461094e5780638e10153d146109f75780638f32343914610a1d5780639240d29914610a25578063936553c414610a4b57610295565b8063464b41581161020b5780635c975abb116101c45780635c975abb146107b35780636e890f3c146107bb5780636f4d469b146107c35780637ae7cfb5146108645780637b4d0c63146109185780637c8afd511461092057610295565b8063464b41581461053957806346ee84b014610573578063481c6a7514610614578063522136631461061c57806353f064c9146106d0578063568b5a2f146106ed57610295565b8063198055381161025d57806319805538146103ed5780631eba30771461040e57806329c07fba1461042b57806339b81fd9146104575780633c570d7d1461045f57806341dc16c31461048557610295565b8063064685871461029a578063093b8825146102c257806309ff5c7d146102e85780630b1ca49a146103a35780631758078b146103c9575b600080fd5b6102c0600480360360208110156102b057600080fd5b50356001600160a01b0316611046565b005b6102c0600480360360208110156102d857600080fd5b50356001600160a01b0316611287565b610391600480360360408110156102fe57600080fd5b810190602081018135600160201b81111561031857600080fd5b82018360208201111561032a57600080fd5b803590602001918460018302840111600160201b8311171561034b57600080fd5b91908080601f0160208091040260200160405190810160405280939291908181526020018383808284376000920191909152509295505050903560ff1691506112fd9050565b60408051918252519081900360200190f35b6102c0600480360360208110156103b957600080fd5b50356001600160a01b0316611390565b6103d16113f9565b604080516001600160a01b039092168252519081900360200190f35b6103f5611408565b6040805192835260208301919091528051918290030190f35b6103d16004803603602081101561042457600080fd5b5035611492565b6103916004803603604081101561044157600080fd5b506001600160a01b038135169060200135611495565b6103d161159f565b6103916004803603602081101561047557600080fd5b50356001600160a01b03166115ae565b6103916004803603606081101561049b57600080fd5b810190602081018135600160201b8111156104b557600080fd5b8201836020820111156104c757600080fd5b803590602001918460018302840111600160201b831117156104e857600080fd5b91908080601f0160208091040260200160405190810160405280939291908181526020018383808284376000920191909152509295505060ff83358116945060209093013590921691506115c09050565b61055f6004803603602081101561054f57600080fd5b50356001600160a01b03166116a8565b604080519115158252519081900360200190f35b6102c06004803603602081101561058957600080fd5b810190602081018135600160201b8111156105a357600080fd5b8201836020820111156105b557600080fd5b803590602001918460208302840111600160201b831117156105d657600080fd5b9190808060200260200160405190810160405280939291908181526020018383602002808284376000920191909152509295506116c5945050505050565b6103d161176c565b6102c06004803603604081101561063257600080fd5b6001600160a01b038235169190810190604081016020820135600160201b81111561065c57600080fd5b82018360208201111561066e57600080fd5b803590602001918460018302840111600160201b8311171561068f57600080fd5b91908080601f01602080910402602001604051908101604052809392919081815260200183838082843760009201919091525092955061177b945050505050565b6102c0600480360360208110156106e657600080fd5b50356118a6565b6107966004803603606081101561070357600080fd5b810190602081018135600160201b81111561071d57600080fd5b82018360208201111561072f57600080fd5b803590602001918460018302840111600160201b8311171561075057600080fd5b91908080601f0160208091040260200160405190810160405280939291908181526020018383808284376000920191909152509295505082359350505060200135611adf565b604080516001600160e01b03199092168252519081900360200190f35b61055f611b60565b6102c0611b69565b6102c0600480360360208110156107d957600080fd5b810190602081018135600160201b8111156107f357600080fd5b82018360208201111561080557600080fd5b803590602001918460208302840111600160201b8311171561082657600080fd5b919080806020026020016040519081016040528093929190818152602001838360200280828437600092019190915250929550611c25945050505050565b61055f6004803603604081101561087a57600080fd5b6001600160a01b038235169190810190604081016020820135600160201b8111156108a457600080fd5b8201836020820111156108b657600080fd5b803590602001918460018302840111600160201b831117156108d757600080fd5b91908080601f016020809104026020016040519081016040528093929190818152602001838380828437600092019190915250929550611cbc945050505050565b61039161212f565b6102c0612135565b61055f6004803603602081101561093e57600080fd5b50356001600160a01b0316612195565b6103916004803603604081101561096457600080fd5b810190602081018135600160201b81111561097e57600080fd5b82018360208201111561099057600080fd5b803590602001918460018302840111600160201b831117156109b157600080fd5b91908080601f0160208091040260200160405190810160405280939291908181526020018383808284376000920191909152509295505050903560ff1691506121aa9050565b61055f60048036036020811015610a0d57600080fd5b50356001600160a01b03166121c8565b6103916123be565b61055f60048036036020811015610a3b57600080fd5b50356001600160a01b03166123c4565b610391612447565b61039160048036036040811015610a6957600080fd5b810190602081018135600160201b811115610a8357600080fd5b820183602082011115610a9557600080fd5b803590602001918460018302840111600160201b83111715610ab657600080fd5b91908080601f0160208091040260200160405190810160405280939291908181526020018383808284376000920191909152509295505050903560ff16915061244d9050565b610b0461247e565b60408051602080825283518183015283519192839290830191858101910280838360005b83811015610b40578181015183820152602001610b28565b505050509050019250505060405180910390f35b6103916124e0565b6102c060048036036020811015610b7257600080fd5b50356001600160a01b03166124e6565b6102c0612556565b61055f60048036036020811015610ba057600080fd5b50356001600160a01b03166125d9565b61079660048036036020811015610bc657600080fd5b810190602081018135600160201b811115610be057600080fd5b820183602082011115610bf257600080fd5b803590602001918460018302840111600160201b83111715610c1357600080fd5b91908080601f0160208091040260200160405190810160405280939291908181526020018383808284376000920191909152509295506125f6945050505050565b6103d1612605565b6102c060048036036080811015610c7257600080fd5b6001600160a01b038235811692602081013590911691810190606081016040820135600160201b811115610ca557600080fd5b820183602082011115610cb757600080fd5b803590602001918460018302840111600160201b83111715610cd857600080fd5b91908080601f0160208091040260200160405190810160405280939291908181526020018383808284376000920191909152509295949360208101935035915050600160201b811115610d2a57600080fd5b820183602082011115610d3c57600080fd5b803590602001918460208302840111600160201b83111715610d5d57600080fd5b919080806020026020016040519081016040528093929190818152602001838360200280828437600092019190915250929550612614945050505050565b6103d160048036036020811015610db157600080fd5b5035612716565b6102c060048036036020811015610dce57600080fd5b50356001600160a01b031661273d565b61039160048036036020811015610df457600080fd5b50356001600160a01b03166127a7565b61039160048036036020811015610e1a57600080fd5b50356001600160a01b03166127f5565b61039160048036036060811015610e4057600080fd5b810190602081018135600160201b811115610e5a57600080fd5b820183602082011115610e6c57600080fd5b803590602001918460018302840111600160201b83111715610e8d57600080fd5b91908080601f0160208091040260200160405190810160405280939291908181526020018383808284376000920191909152509295505082359350505060200135612809565b610b04612885565b6103f56128e5565b610eeb6128ef565b60405180806020018060200180602001848103845287818151815260200191508051906020019060200280838360005b83811015610f33578181015183820152602001610f1b565b50505050905001848103835286818151815260200191508051906020019060200280838360005b83811015610f72578181015183820152602001610f5a565b50505050905001848103825285818151815260200191508051906020019060200280838360005b83811015610fb1578181015183820152602001610f99565b50505050905001965050505050505060405180910390f35b610fd1612ae1565b6040805160208082528351818301528351919283929083019185019080838360005b8381101561100b578181015183820152602001610ff3565b50505050905090810190601f1680156110385780820380516001836020036101000a031916815260200191505b509250505060405180910390f35b609c60009054906101000a90046001600160a01b03166001600160a01b0316638da5cb5b6040518163ffffffff1660e01b815260040160206040518083038186803b15801561109457600080fd5b505afa1580156110a8573d6000803e3d6000fd5b505050506040513d60208110156110be57600080fd5b50516001600160a01b03163314806110ee57506110d961176c565b6001600160a01b0316336001600160a01b0316145b8061111157506110fc6113f9565b6001600160a01b0316336001600160a01b0316145b611162576040805162461bcd60e51b815260206004820152601b60248201527f6f6e6c79206d616e616765722c20747261646572206f722044414f0000000000604482015290519081900360640190fd5b61116b816116a8565b6111b2576040805162461bcd60e51b8152602060048201526013602482015272185cdcd95d081b9bdd081cdd5c1c1bdc9d1959606a1b604482015290519081900360640190fd5b6001600160a01b038116600090815260a0602052604090205460ff1615611220576040805162461bcd60e51b815260206004820152601f60248201527f63616e6e6f742072656d6f76652070657273697374656e742061737365747300604482015290519081900360640190fd5b611229816127a7565b1561127b576040805162461bcd60e51b815260206004820152601d60248201527f63616e6e6f742072656d6f7665206e6f6e2d656d707479206173736574000000604482015290519081900360640190fd5b61128481612b6e565b50565b6033546001600160a01b03163314806112aa57506037546001600160a01b031633145b6112f4576040805162461bcd60e51b815260206004820152601660248201527537b7363c9036b0b730b3b2b91037b9103a3930b232b960511b604482015290519081900360640190fd5b61128481612cc8565b600080611315848460200260040160ff166020612809565b9050600061132885600484016020612809565b905080611371576040805162461bcd60e51b8152602060048201526012602482015271696e707574206973206e6f7420617272617960701b604482015290519081900360640190fd5b611385856020808402850160040190612809565b925050505b92915050565b6033546001600160a01b031633146113de576040805162461bcd60e51b815260206004820152600c60248201526b37b7363c9036b0b730b3b2b960a11b604482015290519081900360640190fd5b6113e7816125d9565b6113f057611284565b61128481612ef4565b6037546001600160a01b031690565b609c54609d5460408051635bd2a29360e11b81526001600160a01b03928316600482015281516000948594169263b7a545269260248082019391829003018186803b15801561145657600080fd5b505afa15801561146a573d6000803e3d6000fd5b505050506040513d604081101561148057600080fd5b50805160209091015190925090509091565b90565b609c5460408051638b2f0f4f60e01b81526001600160a01b038581166004830152915160009384931691638b2f0f4f916024808301926020929190829003018186803b1580156114e457600080fd5b505afa1580156114f8573d6000803e3d6000fd5b505050506040513d602081101561150e57600080fd5b50516040805163313ce56760e01b815290519192506000916001600160a01b0387169163313ce567916004808301926020929190829003018186803b15801561155657600080fd5b505afa15801561156a573d6000803e3d6000fd5b505050506040513d602081101561158057600080fd5b505160ff169050611385600a82900a6115998487612fed565b90613046565b609d546001600160a01b031681565b609f6020526000908152604090205481565b6000806115d8858560200260040160ff166020612809565b905060006115eb86600484016020612809565b905080611634576040805162461bcd60e51b8152602060048201526012602482015271696e707574206973206e6f7420617272617960701b604482015290519081900360640190fd5b60ff84168111611684576040805162461bcd60e51b815260206004820152601660248201527534b73b30b634b21030b93930bc903837b9b4ba34b7b760511b604482015290519081900360640190fd5b61169e866020600160ff8816018102850160040190612809565b9695505050505050565b6001600160a01b03166000908152609f6020526040902054151590565b6033546001600160a01b03163314611713576040805162461bcd60e51b815260206004820152600c60248201526b37b7363c9036b0b730b3b2b960a11b604482015290519081900360640190fd5b60005b81518110156117685761173b82828151811061172e57fe5b60200260200101516125d9565b61174457611760565b61176082828151811061175357fe5b6020026020010151612ef4565b600101611716565b5050565b6033546001600160a01b031690565b6033546001600160a01b031633146117c9576040805162461bcd60e51b815260206004820152600c60248201526b37b7363c9036b0b730b3b2b960a11b604482015290519081900360640190fd5b603380546001600160a01b0319166001600160a01b03841617905580516117f790603490602084019061341b565b507f6ed15082ad038474841528b5badca105106d4463e44b5d434130dfb299aa3669828260405180836001600160a01b0316815260200180602001828103825283818151815260200191508051906020019080838360005b8381101561186757818101518382015260200161184f565b50505050905090810190601f1680156118945780820380516001836020036101000a031916815260200191505b50935050505060405180910390a15050565b6033546001600160a01b031633146118f4576040805162461bcd60e51b815260206004820152600c60248201526b37b7363c9036b0b730b3b2b960a11b604482015290519081900360640190fd5b609c5460408051635c9bfc2b60e01b815290516000926001600160a01b031691635c9bfc2b916004808301926020929190829003018186803b15801561193957600080fd5b505afa15801561194d573d6000803e3d6000fd5b505050506040513d602081101561196357600080fd5b50519050600080611972611408565b9092509050808411156119bf576040805162461bcd60e51b815260206004820152601060248201526f34b73b30b634b210333930b1ba34b7b760811b604482015290519081900360640190fd5b6119c98284613088565b841115611a1d576040805162461bcd60e51b815260206004820152601960248201527f657863656564656420616c6c6f77656420696e63726561736500000000000000604482015290519081900360640190fd5b609c546040805163ebee461d60e01b815290516000926001600160a01b03169163ebee461d916004808301926020929190829003018186803b158015611a6257600080fd5b505afa158015611a76573d6000803e3d6000fd5b505050506040513d6020811015611a8c57600080fd5b505160a186905542810160a281905560408051888152602081019290925280519293507f4db9119741646c419f1ceccdf112b5b9a9b4516355e742e1fa9c479f4dec98da92918290030190a15050505050565b600081830184511015611b39576040805162461bcd60e51b815260206004820152601b60248201527f52656164696e67206279746573206f7574206f6620626f756e64730000000000604482015290519081900360640190fd5b826020018401519050816004038015611b58576008810260020a820491505b509392505050565b606a5460ff1690565b6033546001600160a01b03163314611bb7576040805162461bcd60e51b815260206004820152600c60248201526b37b7363c9036b0b730b3b2b960a11b604482015290519081900360640190fd5b60a254421015611c0e576040805162461bcd60e51b815260206004820152601960248201527f66656520696e6372656173652064656c61792061637469766500000000000000604482015290519081900360640190fd5b611c1960a1546130e2565b600060a181905560a255565b6033546001600160a01b03163314611c73576040805162461bcd60e51b815260206004820152600c60248201526b37b7363c9036b0b730b3b2b960a11b604482015290519081900360640190fd5b60005b815181101561176857611c8e82828151811061172e57fe5b15611c9857611cb4565b611cb4828281518110611ca757fe5b6020026020010151613248565b600101611c76565b6033546000906001600160a01b0316331480611ce257506037546001600160a01b031633145b611d2c576040805162461bcd60e51b815260206004820152601660248201527537b7363c9036b0b730b3b2b91037b9103a3930b232b960511b604482015290519081900360640190fd5b606a5460ff1615611d77576040805162461bcd60e51b815260206004820152601060248201526f14185d5cd8589b194e881c185d5cd95960821b604482015290519081900360640190fd5b6001600160a01b038316611dd2576040805162461bcd60e51b815260206004820152601c60248201527f6e6f6e2d7a65726f206164647265737320697320726571756972656400000000604482015290519081900360640190fd5b609c5460408051631c09fa9b60e21b81526001600160a01b03868116600483015291516000939290921691637027ea6c91602480820192602092909190829003018186803b158015611e2357600080fd5b505afa158015611e37573d6000803e3d6000fd5b505050506040513d6020811015611e4d57600080fd5b505190506001600160a01b038116611ea2576040805162461bcd60e51b815260206004820152601360248201527234b73b30b634b2103232b9ba34b730ba34b7b760691b604482015290519081900360640190fd5b6040805163e23ff43760e01b81523060048201818152602483019384528651604484015286516001600160a01b0386169463e23ff43794899392606490910190602085019080838360005b83811015611f05578181015183820152602001611eed565b50505050905090810190601f168015611f325780820380516001836020036101000a031916815260200191505b509350505050602060405180830381600087803b158015611f5257600080fd5b505af1158015611f66573d6000803e3d6000fd5b505050506040513d6020811015611f7c57600080fd5b5051611fc5576040805162461bcd60e51b815260206004820152601360248201527234b73b30b634b2103a3930b739b0b1ba34b7b760691b604482015290519081900360640190fd5b6000846001600160a01b0316846040518082805190602001908083835b602083106120015780518252601f199092019160209182019101611fe2565b6001836020036101000a0380198251168184511680821785525050505050509050019150506000604051808303816000865af19150503d8060008114612063576040519150601f19603f3d011682016040523d82523d6000602084013e612068565b606091505b50909150506001811515146120c4576040805162461bcd60e51b815260206004820152601a60248201527f6661696c656420746f2065786563757465207468652063616c6c000000000000604482015290519081900360640190fd5b609d547f508f3afa87f72dce865a2321107666b28ac822c23a8c0555fbeb3424cf3de563906001600160a01b03166120fa61176c565b604080516001600160a01b039384168152919092166020820152428183015290519081900360600190a1506001949350505050565b60a25481565b6033546001600160a01b03163314612183576040805162461bcd60e51b815260206004820152600c60248201526b37b7363c9036b0b730b3b2b960a11b604482015290519081900360640190fd5b603780546001600160a01b0319169055565b60a06020526000908152604090205460ff1681565b60006121c1838360200260040160ff166020612809565b9392505050565b609c546000906001600160a01b03163314806122655750609c60009054906101000a90046001600160a01b03166001600160a01b0316631d68702d6040518163ffffffff1660e01b815260040160206040518083038186803b15801561222d57600080fd5b505afa158015612241573d6000803e3d6000fd5b505050506040513d602081101561225757600080fd5b50516001600160a01b031633145b6122a05760405162461bcd60e51b81526004018080602001828103825260238152602001806134af6023913960400191505060405180910390fd5b306001600160a01b0316826001600160a01b0316631e50a4a66040518163ffffffff1660e01b815260040160206040518083038186803b1580156122e357600080fd5b505afa1580156122f7573d6000803e3d6000fd5b505050506040513d602081101561230d57600080fd5b50516001600160a01b03161461235f576040805162461bcd60e51b8152602060048201526012602482015271696e76616c696420706f6f6c206c6f67696360701b604482015290519081900360640190fd5b609d80546001600160a01b0319166001600160a01b0384169081179091556040805191825233602083015280517f8c1446ebd2ac8c922b8c9716dfbdfcfef02c9fc167140d7cfd019565b423b2499281900390910190a1506001919050565b60a15481565b609c546040805163cc435bf360e01b81526001600160a01b0384811660048301529151600093929092169163cc435bf391602480820192602092909190829003018186803b15801561241557600080fd5b505afa158015612429573d6000803e3d6000fd5b505050506040513d602081101561243f57600080fd5b505192915050565b609e5490565b600080612465848460200260040160ff166020612809565b905061247684600483016020612809565b949350505050565b606060358054806020026020016040519081016040528092919081815260200182805480156124d657602002820191906000526020600020905b81546001600160a01b031681526001909101906020018083116124b8575b5050505050905090565b60355490565b6033546001600160a01b03163314612534576040805162461bcd60e51b815260206004820152600c60248201526b37b7363c9036b0b730b3b2b960a11b604482015290519081900360640190fd5b603780546001600160a01b0319166001600160a01b0392909216919091179055565b6033546001600160a01b031633146125a4576040805162461bcd60e51b815260206004820152600c60248201526b37b7363c9036b0b730b3b2b960a11b604482015290519081900360640190fd5b600060a181905560a28190556040517fc6f04bf43cbdf1ba5d51b4afa160bb3c7e13858b1409aa32868b239bb2f8d8499190a1565b6001600160a01b0316600090815260366020526040902054151590565b600061138a8260006004611adf565b609c546001600160a01b031681565b600054610100900460ff168061262d575061262d6132a4565b8061263b575060005460ff16155b6126765760405162461bcd60e51b815260040180806020018281038252602e8152602001806134f3602e913960400191505060405180910390fd5b600054610100900460ff161580156126a1576000805460ff1961ff0019909116610100171660011790555b6126ab84846132aa565b609c80546001600160a01b0319166001600160a01b03871617905560005b82518160ff1610156126fc576126f4838260ff16815181106126e757fe5b6020026020010151612cc8565b6001016126c9565b50801561270f576000805461ff00191690555b5050505050565b609e818154811061272357fe5b6000918252602090912001546001600160a01b0316905081565b6033546001600160a01b0316331461278b576040805162461bcd60e51b815260206004820152600c60248201526b37b7363c9036b0b730b3b2b960a11b604482015290519081900360640190fd5b612794816125d9565b1561279e57611284565b61128481613248565b609d54604080516370a0823160e01b81526001600160a01b03928316600482015290516000928416916370a08231916024808301926020929190829003018186803b15801561241557600080fd5b600061138a82612804846127a7565b611495565b600081830184511015612863576040805162461bcd60e51b815260206004820152601b60248201527f52656164696e67206279746573206f7574206f6620626f756e64730000000000604482015290519081900360640190fd5b826020018401519050816020038015611b585760080260020a90049392505050565b6060609e8054806020026020016040519081016040528092919081815260200182805480156124d6576020028201919060005260206000209081546001600160a01b031681526001909101906020018083116124b8575050505050905090565b60a15460a2549091565b609e5460609081908190818167ffffffffffffffff8111801561291157600080fd5b5060405190808252806020026020018201604052801561293b578160200160208202803683370190505b50905060608267ffffffffffffffff8111801561295757600080fd5b50604051908082528060200260200182016040528015612981578160200160208202803683370190505b50905060608367ffffffffffffffff8111801561299d57600080fd5b506040519080825280602002602001820160405280156129c7578160200160208202803683370190505b50905060005b84811015612ad3576000609e82815481106129e457fe5b6000918252602090912001546001600160a01b03169050612a04816127a7565b848381518110612a1057fe5b60200260200101818152505080858381518110612a2957fe5b6001600160a01b03928316602091820292909201810191909152609c5460408051638b2f0f4f60e01b8152858516600482015290519190931692638b2f0f4f926024808301939192829003018186803b158015612a8557600080fd5b505afa158015612a99573d6000803e3d6000fd5b505050506040513d6020811015612aaf57600080fd5b50518351849084908110612abf57fe5b6020908102919091010152506001016129cd565b509195509350915050909192565b60348054604080516020601f60026000196101006001881615020190951694909404938401819004810282018101909252828152606093909290918301828280156124d65780601f10612b42576101008083540402835291602001916124d6565b820191906000526020600020905b815481529060010190602001808311612b5057509395945050505050565b609e546001600160a01b0382166000908152609f6020526040812054612b959060016132dd565b90506000609e612ba68460016132dd565b81548110612bb057fe5b600091825260209091200154609e80546001600160a01b039092169250829184908110612bd957fe5b600091825260209091200180546001600160a01b0319166001600160a01b0392909216919091179055612c0d826001613088565b6001600160a01b038083166000908152609f602052604080822093909355908616815290812055609e805480612c3f57fe5b600082815260209020810160001990810180546001600160a01b0319169055019055609d547f9b4f55639e5e283319baee5bc4e69a5625a8e3a1cc004af968f4fee725022027906001600160a01b0316612c9761176c565b604080516001600160a01b03938416815291831660208301529187168183015290519081900360600190a150505050565b609c60009054906101000a90046001600160a01b03166001600160a01b031663aa12ae4d6040518163ffffffff1660e01b815260040160206040518083038186803b158015612d1657600080fd5b505afa158015612d2a573d6000803e3d6000fd5b505050506040513d6020811015612d4057600080fd5b5051609e5410612d90576040805162461bcd60e51b81526020600482015260166024820152751b585e1a5b5d5b48185cdcd95d1cc81c995858da195960521b604482015290519081900360640190fd5b612d99816116a8565b15612deb576040805162461bcd60e51b815260206004820152601760248201527f617373657420616c726561647920737570706f72746564000000000000000000604482015290519081900360640190fd5b612df4816123c4565b1515600114612e3a576040805162461bcd60e51b815260206004820152600d60248201526c1a5b9d985b1a5908185cdcd95d609a1b604482015290519081900360640190fd5b609e80546001810182557fcfe2a20ff701a1f3e14f63bd70d6c6bc6fba8172ec6d5a505cdab3927c0a9de60180546001600160a01b0319166001600160a01b0384811691821790925591546000928352609f602052604090922091909155609d547f0a7426a0630aad7dbc4d5ca5b7d9aac1133d77d2db987caaf4b4186c85d6593f9116612ec661176c565b604080516001600160a01b03938416815291831660208301529184168183015290519081900360600190a150565b6035546001600160a01b038216600090815260366020526040812054612f1b9060016132dd565b905060006035612f2c8460016132dd565b81548110612f3657fe5b600091825260209091200154603580546001600160a01b039092169250829184908110612f5f57fe5b600091825260209091200180546001600160a01b0319166001600160a01b0392909216919091179055612f93826001613088565b6001600160a01b03808316600090815260366020526040808220939093559086168152908120556035805480612fc557fe5b600082815260209020810160001990810180546001600160a01b031916905501905550505050565b600082612ffc5750600061138a565b8282028284828161300957fe5b04146121c15760405162461bcd60e51b81526004018080602001828103825260218152602001806134d26021913960400191505060405180910390fd5b60006121c183836040518060400160405280601a81526020017f536166654d6174683a206469766973696f6e206279207a65726f00000000000081525061331f565b6000828201838110156121c1576040805162461bcd60e51b815260206004820152601b60248201527f536166654d6174683a206164646974696f6e206f766572666c6f770000000000604482015290519081900360640190fd5b609c54609d546040805163011adcb160e21b81526001600160a01b039283166004820152602481018590529051919092169163046b72c491604480830192600092919082900301818387803b15801561313a57600080fd5b505af115801561314e573d6000803e3d6000fd5b5050609c54609d5460408051635bd2a29360e11b81526001600160a01b039283166004820152815160009650869550929093169263b7a545269260248083019392829003018186803b1580156131a357600080fd5b505afa1580156131b7573d6000803e3d6000fd5b505050506040513d60408110156131cd57600080fd5b508051602090910151609d5491935091507f1780c04ddc6f0b32d866c7a3d7583f53515ef49ed2126af868f804f491601266906001600160a01b031661321161176c565b604080516001600160a01b0393841681529190921660208201528082018590526060810184905290519081900360800190a1505050565b603580546001810182557fcfa4bec1d3298408bb5afcfcd9c430549c5b31f8aa5c5848151c0a55f473c34d0180546001600160a01b039093166001600160a01b0319909316831790555460009182526036602052604090912055565b303b1590565b603380546001600160a01b0319166001600160a01b03841617905580516132d890603490602084019061341b565b505050565b60006121c183836040518060400160405280601e81526020017f536166654d6174683a207375627472616374696f6e206f766572666c6f7700008152506133c1565b600081836133ab5760405162461bcd60e51b81526004018080602001828103825283818151815260200191508051906020019080838360005b83811015613370578181015183820152602001613358565b50505050905090810190601f16801561339d5780820380516001836020036101000a031916815260200191505b509250505060405180910390fd5b5060008385816133b757fe5b0495945050505050565b600081848411156134135760405162461bcd60e51b8152602060048201818152835160248401528351909283926044909101919085019080838360008315613370578181015183820152602001613358565b505050900390565b828054600181600116156101000203166002900490600052602060002090601f016020900481019282601f1061345c57805160ff1916838001178555613489565b82800160010185558215613489579182015b8281111561348957825182559160200191906001019061346e565b50613495929150613499565b5090565b5b80821115613495576000815560010161349a56fe6f6e6c792044414f206f7220666163746f7279206164647265737320616c6c6f776564536166654d6174683a206d756c7469706c69636174696f6e206f766572666c6f77436f6e747261637420696e7374616e63652068617320616c7265616479206265656e20696e697469616c697a6564a26469706673582212202b7a260e2f6434a5436f6ce0e97f24cc820ceb71b1cc583c3daaa16a4ad48bfb64736f6c634300060c0033",
  "linkReferences": {},
  "deployedLinkReferences": {}
}