{
  "_format": "hh-sol-artifact-1",
  "contractName": "PoolManagerLogic-ovm",
  "sourceName": "contracts/PoolManagerLogic.sol",
  "abi": [
    {
      "anonymous": false,
      "inputs": [
        {
          "indexed": false,
          "internalType": "address",
          "name": "fundAddress",
          "type": "address"
        },
        {
          "indexed": false,
          "internalType": "address",
          "name": "manager",
          "type": "address"
        },
        {
          "indexed": false,
          "internalType": "bytes32",
          "name": "assetKey",
          "type": "bytes32"
        }
      ],
      "name": "AssetAdded",
      "type": "event"
    },
    {
      "anonymous": false,
      "inputs": [
        {
          "indexed": false,
          "internalType": "address",
          "name": "fundAddress",
          "type": "address"
        },
        {
          "indexed": false,
          "internalType": "address",
          "name": "manager",
          "type": "address"
        },
        {
          "indexed": false,
          "internalType": "bytes32",
          "name": "assetKey",
          "type": "bytes32"
        }
      ],
      "name": "AssetRemoved",
      "type": "event"
    },
    {
      "anonymous": false,
      "inputs": [
        {
          "indexed": false,
          "internalType": "address",
          "name": "fundAddress",
          "type": "address"
        },
        {
          "indexed": false,
          "internalType": "address",
          "name": "manager",
          "type": "address"
        },
        {
          "indexed": false,
          "internalType": "bytes32",
          "name": "sourceKey",
          "type": "bytes32"
        },
        {
          "indexed": false,
          "internalType": "uint256",
          "name": "sourceAmount",
          "type": "uint256"
        },
        {
          "indexed": false,
          "internalType": "bytes32",
          "name": "destinationKey",
          "type": "bytes32"
        },
        {
          "indexed": false,
          "internalType": "uint256",
          "name": "destinationAmount",
          "type": "uint256"
        },
        {
          "indexed": false,
          "internalType": "uint256",
          "name": "time",
          "type": "uint256"
        }
      ],
      "name": "Exchange",
      "type": "event"
    },
    {
      "anonymous": false,
      "inputs": [
        {
          "indexed": false,
          "internalType": "uint256",
          "name": "newNumerator",
          "type": "uint256"
        },
        {
          "indexed": false,
          "internalType": "uint256",
          "name": "announcedFeeActivationTime",
          "type": "uint256"
        }
      ],
      "name": "ManagerFeeIncreaseAnnounced",
      "type": "event"
    },
    {
      "anonymous": false,
      "inputs": [],
      "name": "ManagerFeeIncreaseRenounced",
      "type": "event"
    },
    {
      "anonymous": false,
      "inputs": [
        {
          "indexed": false,
          "internalType": "address",
          "name": "fundAddress",
          "type": "address"
        },
        {
          "indexed": false,
          "internalType": "address",
          "name": "manager",
          "type": "address"
        },
        {
          "indexed": false,
          "internalType": "uint256",
          "name": "numerator",
          "type": "uint256"
        },
        {
          "indexed": false,
          "internalType": "uint256",
          "name": "denominator",
          "type": "uint256"
        }
      ],
      "name": "ManagerFeeSet",
      "type": "event"
    },
    {
      "anonymous": false,
      "inputs": [
        {
          "indexed": false,
          "internalType": "address",
          "name": "newManager",
          "type": "address"
        },
        {
          "indexed": false,
          "internalType": "string",
          "name": "newManagerName",
          "type": "string"
        }
      ],
      "name": "ManagerUpdated",
      "type": "event"
    },
    {
      "inputs": [
        {
          "internalType": "address",
          "name": "member",
          "type": "address"
        }
      ],
      "name": "addMember",
      "outputs": [],
      "stateMutability": "nonpayable",
      "type": "function"
    },
    {
      "inputs": [
        {
          "internalType": "address[]",
          "name": "members",
          "type": "address[]"
        }
      ],
      "name": "addMembers",
      "outputs": [],
      "stateMutability": "nonpayable",
      "type": "function"
    },
    {
      "inputs": [
        {
          "internalType": "bytes32",
          "name": "key",
          "type": "bytes32"
        }
      ],
      "name": "addToSupportedAssets",
      "outputs": [],
      "stateMutability": "nonpayable",
      "type": "function"
    },
    {
      "inputs": [],
      "name": "addressResolver",
      "outputs": [
        {
          "internalType": "contract IAddressResolver",
          "name": "",
          "type": "address"
        }
      ],
      "stateMutability": "view",
      "type": "function"
    },
    {
      "inputs": [
        {
          "internalType": "address",
          "name": "pool",
          "type": "address"
        },
        {
          "internalType": "uint256",
          "name": "numerator",
          "type": "uint256"
        }
      ],
      "name": "announceManagerFeeIncrease",
      "outputs": [],
      "stateMutability": "nonpayable",
      "type": "function"
    },
    {
      "inputs": [],
      "name": "announcedFeeIncreaseNumerator",
      "outputs": [
        {
          "internalType": "uint256",
          "name": "",
          "type": "uint256"
        }
      ],
      "stateMutability": "view",
      "type": "function"
    },
    {
      "inputs": [],
      "name": "announcedFeeIncreaseTimestamp",
      "outputs": [
        {
          "internalType": "uint256",
          "name": "",
          "type": "uint256"
        }
      ],
      "stateMutability": "view",
      "type": "function"
    },
    {
      "inputs": [
        {
          "internalType": "bytes32",
          "name": "",
          "type": "bytes32"
        }
      ],
      "name": "assetPosition",
      "outputs": [
        {
          "internalType": "uint256",
          "name": "",
          "type": "uint256"
        }
      ],
      "stateMutability": "view",
      "type": "function"
    },
    {
      "inputs": [
        {
          "internalType": "bytes32",
          "name": "key",
          "type": "bytes32"
        }
      ],
      "name": "assetValue",
      "outputs": [
        {
          "internalType": "uint256",
          "name": "",
          "type": "uint256"
        }
      ],
      "stateMutability": "view",
      "type": "function"
    },
    {
      "inputs": [
        {
          "internalType": "address",
          "name": "newManager",
          "type": "address"
        },
        {
          "internalType": "string",
          "name": "newManagerName",
          "type": "string"
        }
      ],
      "name": "changeManager",
      "outputs": [],
      "stateMutability": "nonpayable",
      "type": "function"
    },
    {
      "inputs": [
        {
          "internalType": "address",
          "name": "pool",
          "type": "address"
        }
      ],
      "name": "commitManagerFeeIncrease",
      "outputs": [],
      "stateMutability": "nonpayable",
      "type": "function"
    },
    {
      "inputs": [
        {
          "internalType": "bytes32",
          "name": "sourceKey",
          "type": "bytes32"
        },
        {
          "internalType": "uint256",
          "name": "sourceAmount",
          "type": "uint256"
        },
        {
          "internalType": "bytes32",
          "name": "destinationKey",
          "type": "bytes32"
        }
      ],
      "name": "exchange",
      "outputs": [],
      "stateMutability": "nonpayable",
      "type": "function"
    },
    {
      "inputs": [],
      "name": "factory",
      "outputs": [
        {
          "internalType": "address",
          "name": "",
          "type": "address"
        }
      ],
      "stateMutability": "view",
      "type": "function"
    },
    {
      "inputs": [
        {
          "internalType": "bytes32",
          "name": "key",
          "type": "bytes32"
        }
      ],
      "name": "getAssetProxy",
      "outputs": [
        {
          "internalType": "address",
          "name": "",
          "type": "address"
        }
      ],
      "stateMutability": "view",
      "type": "function"
    },
    {
      "inputs": [],
      "name": "getFundComposition",
      "outputs": [
        {
          "internalType": "bytes32[]",
          "name": "",
          "type": "bytes32[]"
        },
        {
          "internalType": "uint256[]",
          "name": "",
          "type": "uint256[]"
        },
        {
          "internalType": "uint256[]",
          "name": "",
          "type": "uint256[]"
        }
      ],
      "stateMutability": "view",
      "type": "function"
    },
    {
      "inputs": [
        {
          "internalType": "address",
          "name": "pool",
          "type": "address"
        }
      ],
      "name": "getManagerFee",
      "outputs": [
        {
          "internalType": "uint256",
          "name": "",
          "type": "uint256"
        },
        {
          "internalType": "uint256",
          "name": "",
          "type": "uint256"
        }
      ],
      "stateMutability": "view",
      "type": "function"
    },
    {
      "inputs": [],
      "name": "getManagerFeeIncreaseInfo",
      "outputs": [
        {
          "internalType": "uint256",
          "name": "",
          "type": "uint256"
        },
        {
          "internalType": "uint256",
          "name": "",
          "type": "uint256"
        }
      ],
      "stateMutability": "view",
      "type": "function"
    },
    {
      "inputs": [],
      "name": "getMembers",
      "outputs": [
        {
          "internalType": "address[]",
          "name": "",
          "type": "address[]"
        }
      ],
      "stateMutability": "view",
      "type": "function"
    },
    {
      "inputs": [],
      "name": "getSupportedAssets",
      "outputs": [
        {
          "internalType": "bytes32[]",
          "name": "",
          "type": "bytes32[]"
        }
      ],
      "stateMutability": "view",
      "type": "function"
    },
    {
      "inputs": [],
      "name": "getSuspendedAssets",
      "outputs": [
        {
          "internalType": "bytes32[]",
          "name": "",
          "type": "bytes32[]"
        },
        {
          "internalType": "bool[]",
          "name": "",
          "type": "bool[]"
        }
      ],
      "stateMutability": "view",
      "type": "function"
    },
    {
      "inputs": [
        {
          "internalType": "address",
          "name": "_factory",
          "type": "address"
        },
        {
          "internalType": "address",
          "name": "_manager",
          "type": "address"
        },
        {
          "internalType": "string",
          "name": "_managerName",
          "type": "string"
        },
        {
          "internalType": "contract IAddressResolver",
          "name": "_addressResolver",
          "type": "address"
        },
        {
          "internalType": "bytes32[]",
          "name": "_supportedAssets",
          "type": "bytes32[]"
        }
      ],
      "name": "initialize",
      "outputs": [],
      "stateMutability": "nonpayable",
      "type": "function"
    },
    {
      "inputs": [
        {
          "internalType": "bytes32",
          "name": "key",
          "type": "bytes32"
        }
      ],
      "name": "isAssetSupported",
      "outputs": [
        {
          "internalType": "bool",
          "name": "",
          "type": "bool"
        }
      ],
      "stateMutability": "view",
      "type": "function"
    },
    {
      "inputs": [
        {
          "internalType": "address",
          "name": "member",
          "type": "address"
        }
      ],
      "name": "isMemberAllowed",
      "outputs": [
        {
          "internalType": "bool",
          "name": "",
          "type": "bool"
        }
      ],
      "stateMutability": "view",
      "type": "function"
    },
    {
      "inputs": [],
      "name": "manager",
      "outputs": [
        {
          "internalType": "address",
          "name": "",
          "type": "address"
        }
      ],
      "stateMutability": "view",
      "type": "function"
    },
    {
      "inputs": [],
      "name": "managerName",
      "outputs": [
        {
          "internalType": "string",
          "name": "",
          "type": "string"
        }
      ],
      "stateMutability": "view",
      "type": "function"
    },
    {
      "inputs": [],
      "name": "numberOfMembers",
      "outputs": [
        {
          "internalType": "uint256",
          "name": "",
          "type": "uint256"
        }
      ],
      "stateMutability": "view",
      "type": "function"
    },
    {
      "inputs": [],
      "name": "numberOfSupportedAssets",
      "outputs": [
        {
          "internalType": "uint256",
          "name": "",
          "type": "uint256"
        }
      ],
      "stateMutability": "view",
      "type": "function"
    },
    {
      "inputs": [
        {
          "internalType": "bytes32",
          "name": "",
          "type": "bytes32"
        }
      ],
      "name": "persistentAsset",
      "outputs": [
        {
          "internalType": "bool",
          "name": "",
          "type": "bool"
        }
      ],
      "stateMutability": "view",
      "type": "function"
    },
    {
      "inputs": [
        {
          "internalType": "bytes32",
          "name": "key",
          "type": "bytes32"
        }
      ],
      "name": "removeFromSupportedAssets",
      "outputs": [],
      "stateMutability": "nonpayable",
      "type": "function"
    },
    {
      "inputs": [
        {
          "internalType": "address",
          "name": "member",
          "type": "address"
        }
      ],
      "name": "removeMember",
      "outputs": [],
      "stateMutability": "nonpayable",
      "type": "function"
    },
    {
      "inputs": [
        {
          "internalType": "address[]",
          "name": "members",
          "type": "address[]"
        }
      ],
      "name": "removeMembers",
      "outputs": [],
      "stateMutability": "nonpayable",
      "type": "function"
    },
    {
      "inputs": [],
      "name": "removeTrader",
      "outputs": [],
      "stateMutability": "nonpayable",
      "type": "function"
    },
    {
      "inputs": [],
      "name": "renounceManagerFeeIncrease",
      "outputs": [],
      "stateMutability": "nonpayable",
      "type": "function"
    },
    {
      "inputs": [
        {
          "internalType": "address",
          "name": "_addressResolver",
          "type": "address"
        }
      ],
      "name": "setAddressResolver",
      "outputs": [],
      "stateMutability": "nonpayable",
      "type": "function"
    },
    {
      "inputs": [
        {
          "internalType": "address",
          "name": "newTrader",
          "type": "address"
        }
      ],
      "name": "setTrader",
      "outputs": [],
      "stateMutability": "nonpayable",
      "type": "function"
    },
    {
      "inputs": [
        {
          "internalType": "uint256",
          "name": "",
          "type": "uint256"
        }
      ],
      "name": "supportedAssets",
      "outputs": [
        {
          "internalType": "bytes32",
          "name": "",
          "type": "bytes32"
        }
      ],
      "stateMutability": "view",
      "type": "function"
    },
    {
      "inputs": [],
      "name": "trader",
      "outputs": [
        {
          "internalType": "address",
          "name": "",
          "type": "address"
        }
      ],
      "stateMutability": "view",
      "type": "function"
    },
    {
      "inputs": [
        {
          "internalType": "bytes32",
          "name": "key",
          "type": "bytes32"
        }
      ],
      "name": "validateAsset",
      "outputs": [
        {
          "internalType": "bool",
          "name": "",
          "type": "bool"
        }
      ],
      "stateMutability": "view",
      "type": "function"
    }
  ],
  "bytecode": "0x60806040523480156200001c576000806200001962000023565b50505b5062000090565b632a2a7adb598160e01b8152600481016020815285602082015260005b868110156200005d57808601518282016040015260200162000040565b506020828760640184336000905af158600e01573d6000803e3d6000fd5b3d6001141558600a015760016000f35b505050565b61463a80620000a06000396000f3fe608060405234801561001957600080610016614148565b50505b506004361061023b5760003560e01c8063936553c411610139578063ca6d56dc116100c1578063eb94917d11610085578063eb94917d1461092e578063ed5b165d14610abc578063ee52a2f314610ac4578063f09d14d714610af6578063fed4416a14610bdc5761023b565b8063ca6d56dc14610885578063d44fa33e146108b4578063d78d7c2e146108da578063e5406dbf14610900578063e5ea7759146109085761023b565b8063a6bc18f911610108578063a6bc18f9146107f1578063b8bd81e614610820578063bbbf725b14610828578063c45a015514610857578063c68dbb371461085f5761023b565b8063936553c414610757578063969eed271461075f5780639eab52531461078e578063a30e3fa9146107e95761023b565b8063481c6a75116101c75780636708f5d71161018b5780636708f5d7146106455780636f4d469b1461067a5780637b4d0c631461073f5780637c8afd51146107475780638f3234391461074f5761023b565b8063481c6a75146104bf57806352213663146104c757806353d9133e1461059e5780635f6eceab146105c4578063670797491461060b5761023b565b8063143023871161020e57806314302387146102fc5780631758078b1461032b57806321f8c984146103335780633ded6530146103d457806346ee84b0146103fa5761023b565b8063023f21de146102495780630499123f1461027157806305a2ee2a146102a95780630b1ca49a146102cd575b600080610246614148565b50505b61026f6004803603602081101561026857600080610265614148565b50505b5035610c5b565b005b610297600480360360208110156102905760008061028d614148565b50505b5035610ffd565b60405190815260200160405180910390f35b6102b16112ab565b6040516001600160a01b03909116815260200160405180910390f35b61026f600480360360208110156102ec576000806102e9614148565b50505b50356001600160a01b03166112ca565b61026f6004803603602081101561031b57600080610318614148565b50505b50356001600160a01b0316611364565b6102b161141b565b61033b61143d565b604051808060200180602001838103835285818151815260200191508051906020019060200280838360005b8381101561037f578082015183820152602001610367565b50505050905001838103825284818151815260200191508051906020019060200280838360005b838110156103be5780820151838201526020016103a6565b5050505090500194505050505060405180910390f35b6102b1600480360360208110156103f3576000806103f0614148565b50505b50356116e2565b61026f6004803603602081101561041957600080610416614148565b50505b810190602081018135600160201b81111561043c57600080610439614148565b50505b82018360208201111561045757600080610454614148565b50505b803590602001918460208302840111600160201b831117156104815760008061047e614148565b50505b9190808060200260200160405190810160405280939291908181526020018383602002808284376000920191909152509295506119a8945050505050565b6102b1611a80565b61026f600480360360408110156104e6576000806104e3614148565b50505b6001600160a01b038235169190810190604081016020820135600160201b81111561051957600080610516614148565b50505b82018360208201111561053457600080610531614148565b50505b803590602001918460018302840111600160201b8311171561055e5760008061055b614148565b50505b91908080601f0160208091040260200160405190810160405281815292919060208401838380828437600092019190915250929550611a8c945050505050565b61026f600480360360208110156105bd576000806105ba614148565b50505b5035611c00565b6105f3600480360360208110156105e3576000806105e0614148565b50505b50356001600160a01b0316611cd1565b60405191825260208201526040908101905180910390f35b6106316004803603602081101561062a57600080610627614148565b50505b5035611db0565b604051901515815260200160405180910390f35b61026f6004803603604081101561066457600080610661614148565b50505b506001600160a01b038135169060200135611dd7565b61026f6004803603602081101561069957600080610696614148565b50505b810190602081018135600160201b8111156106bc576000806106b9614148565b50505b8201836020820111156106d7576000806106d4614148565b50505b803590602001918460208302840111600160201b83111715610701576000806106fe614148565b50505b919080806020026020016040519081016040528093929190818152602001838360200280828437600092019190915250929550612106945050505050565b6102976121ce565b61026f6121db565b610297612290565b61029761229a565b61026f6004803603602081101561077e5760008061077b614148565b50505b50356001600160a01b03166122ad565b6107966123cb565b60405160208082528190810183818151815260200191508051906020019060200280838360005b838110156107d55780820151838201526020016107bd565b505050509050019250505060405180910390f35b610297612452565b61026f600480360360208110156108105760008061080d614148565b50505b50356001600160a01b031661245f565b61026f6124ec565b6106316004803603602081101561084757600080610844614148565b50505b50356001600160a01b03166125ba565b6102b16125e2565b6102976004803603602081101561087e5760008061087b614148565b50505b50356125ee565b61026f600480360360208110156108a4576000806108a1614148565b50505b50356001600160a01b0316612616565b610631600480360360208110156108d3576000806108d0614148565b50505b50356126b1565b610297600480360360208110156108f9576000806108f6614148565b50505b50356126c7565b6107966126df565b6106316004803603602081101561092757600080610924614148565b50505b503561274a565b61026f600480360360a081101561094d5760008061094a614148565b50505b6001600160a01b038235811692602081013590911691810190606081016040820135600160201b81111561098957600080610986614148565b50505b8201836020820111156109a4576000806109a1614148565b50505b803590602001918460018302840111600160201b831117156109ce576000806109cb614148565b50505b91908080601f016020809104026020016040519081016040528181529291906020840183838082843760009201919091525092956001600160a01b03853516959094909350604081019250602001359050600160201b811115610a3957600080610a36614148565b50505b820183602082011115610a5457600080610a51614148565b50505b803590602001918460208302840111600160201b83111715610a7e57600080610a7b614148565b50505b9190808060200260200160405190810160405280939291908181526020018383602002808284376000920191909152509295506129a0945050505050565b6105f3612bcd565b61026f60048036036060811015610ae357600080610ae0614148565b50505b5080359060208101359060400135612bec565b610afe61316c565b60405180806020018060200180602001848103845287818151815260200191508051906020019060200280838360005b83811015610b46578082015183820152602001610b2e565b50505050905001848103835286818151815260200191508051906020019060200280838360005b83811015610b85578082015183820152602001610b6d565b50505050905001848103825285818151815260200191508051906020019060200280838360005b83811015610bc4578082015183820152602001610bac565b50505050905001965050505050505060405180910390f35b610be4613598565b60405160208082528190810183818151815260200191508051906020019080838360005b83811015610c20578082015183820152602001610c08565b50505050905090810190601f168015610c4d5780820380516001836020036101000a031916815260200191505b509250505060405180910390f35b60006038610c676141b3565b906101000a90046001600160a01b03166001600160a01b0316638da5cb5b6040518163ffffffff1660e01b81526004016020604051808303818680610caa61420e565b158015610cbf57600080610cbc614148565b50505b505a610cc961425a565b5050505050158015610ce8573d6000803e3d6000610ce5614148565b50505b505050506040513d6020811015610d0757600080610d04614148565b50505b8101908080516001600160a01b0316925050505a610d23614345565b6001600160a01b03161480610d585750610d3b611a80565b6001600160a01b03165a610d4d614345565b6001600160a01b0316145b80610d835750610d6661141b565b6001600160a01b03165a610d78614345565b6001600160a01b0316145b610dc75760405162461bcd60e51b81526004018080602001828103825260248152602001806145e86024913960400191505060405180910390610dc4614148565b50505b610dd0816126b1565b610e1f5760405162461bcd60e51b8152602060048201526013602482015272185cdcd95d081b9bdd081cdd5c1c1bdc9d1959606a1b604482015260640160405180910390610e1c614148565b50505b6000818152603b60205260409020600090610e386141b3565b906101000a900460ff1615610e875760405162461bcd60e51b81526004018080602001828103825260228152602001806145c66022913960400191505060405180910390610e84614148565b50505b610e908161274a565b151560011415610ff157610ea3816116e2565b6001600160a01b03166370a082315a63996d79a5598160e01b8152602081600483336000905af158600e01573d6000803e3d6000fd5b3d6001141558600a015760016000f35b8051925060005b6040811015610f0757600082820152602001610ef0565b5050506040516001600160e01b031960e084901b1681526001600160a01b0390911660048201526024016020604051808303818680610f4461420e565b158015610f5957600080610f56614148565b50505b505a610f6361425a565b5050505050158015610f82573d6000803e3d6000610f7f614148565b50505b505050506040513d6020811015610fa157600080610f9e614148565b50505b810190808051159250610ff19150505760405162461bcd60e51b81526004018080602001828103825260218152602001806145a56021913960400191505060405180910390610fee614148565b50505b610ffa8161364c565b50565b600080603761100a6141b3565b906101000a90046001600160a01b03166001600160a01b03166321f8a7216c45786368616e6765526174657360981b6040516001600160e01b031960e084901b1681526004810191909152602401602060405180830381868061106b61420e565b1580156110805760008061107d614148565b50505b505a61108a61425a565b50505050501580156110a9573d6000803e3d60006110a6614148565b50505b505050506040513d60208110156110c8576000806110c5614148565b50505b8101908080516001600160a01b0316925063654a60ac91508490506110ec816116e2565b6001600160a01b03166370a082315a63996d79a5598160e01b8152602081600483336000905af158600e01573d6000803e3d6000fd5b3d6001141558600a015760016000f35b8051925060005b604081101561115057600082820152602001611139565b5050506040516001600160e01b031960e084901b1681526001600160a01b039091166004820152602401602060405180830381868061118d61420e565b1580156111a25760008061119f614148565b50505b505a6111ac61425a565b50505050501580156111cb573d6000803e3d60006111c8614148565b50505b505050506040513d60208110156111ea576000806111e7614148565b50505b8101908080519250631cd554d160e21b915060409050516001600160e01b031960e086901b168152600481019390935260248301919091526044820152606401602060405180830381868061123d61420e565b1580156112525760008061124f614148565b50505b505a61125c61425a565b505050505015801561127b573d6000803e3d6000611278614148565b50505b505050506040513d602081101561129a57600080611297614148565b50505b81019080805193505050505b919050565b600060376112b76141b3565b906101000a90046001600160a01b031681565b6000806112d56141b3565b906101000a90046001600160a01b03166001600160a01b03165a6112f7614345565b6001600160a01b0316146113495760405162461bcd60e51b815260206004820152600c60248201526b37b7363c9036b0b730b3b2b960a11b604482015260640160405180910390611346614148565b50505b611352816125ba565b61135b57610ffa565b610ffa81613813565b600060386113706141b3565b906101000a90046001600160a01b03166001600160a01b03165a611392614345565b6001600160a01b0316146113e55760405162461bcd60e51b815260206004820152600d60248201526c3737903832b936b4b9b9b4b7b760991b6044820152606401604051809103906113e2614148565b50505b8060376001816113f36141b3565b816001600160a01b0302191690836001600160a01b031602179061141561438b565b50505050565b60008060046114286141b3565b906101000a90046001600160a01b0316905090565b606080600060398061144d6141b3565b9050905060608167ffffffffffffffff8111801561147357600080611470614148565b50505b5060405190808252806020026020018201604052801561149d578160200160208202803683370190505b50905060608267ffffffffffffffff811180156114c2576000806114bf614148565b50505b506040519080825280602002602001820160405280156114ec578160200160208202803683370190505b50905060008060376114fc6141b3565b906101000a90046001600160a01b03166001600160a01b03166321f8a7216b53797374656d53746174757360a01b6040516001600160e01b031960e084901b1681526004810191909152602401602060405180830381868061155c61420e565b1580156115715760008061156e614148565b50505b505a61157b61425a565b505050505015801561159a573d6000803e3d6000611597614148565b50505b505050506040513d60208110156115b9576000806115b6614148565b50505b81019080805193506000925050505b848110156116d6576000603982816115de6141b3565b81106115e657fe5b906000526020600020016115f86141b3565b90508085838151811061160757fe5b602002602001018181525050826001600160a01b03166342a28e21826040516001600160e01b031960e084901b1681526004810191909152602401600060405180830381868061165561420e565b15801561166a57600080611667614148565b50505b505a61167461425a565b5050505050925050508015611687575060015b6116ae57600184838151811061169957fe5b911515602092830291909101909101526116cd565b60008483815181106116bc57fe5b911515602092830291909101909101525b506001016115c8565b50919450925050509091565b6000808060376116f06141b3565b906101000a90046001600160a01b03166001600160a01b03166321f8a721680a6f2dce8d0cae8d2f60bb1b6040516001600160e01b031960e084901b1681526004810191909152602401602060405180830381868061174d61420e565b1580156117625760008061175f614148565b50505b505a61176c61425a565b505050505015801561178b573d6000803e3d6000611788614148565b50505b505050506040513d60208110156117aa576000806117a7614148565b50505b8101908080516001600160a01b03169250633260803991508590506040516001600160e01b031960e084901b168152600481019190915260240160206040518083038186806117f761420e565b15801561180c57600080611809614148565b50505b505a61181661425a565b5050505050158015611835573d6000803e3d6000611832614148565b50505b505050506040513d602081101561185457600080611851614148565b50505b81019080805193505050506001600160a01b0381166118b05760405162461bcd60e51b815260206004820152600b60248201526a696e76616c6964206b657960a81b6044820152606401604051809103906118ad614148565b50505b6000816001600160a01b031663ec5568896040518163ffffffff1660e01b815260040160206040518083038186806118e661420e565b1580156118fb576000806118f8614148565b50505b505a61190561425a565b5050505050158015611924573d6000803e3d6000611921614148565b50505b505050506040513d602081101561194357600080611940614148565b50505b81019080805193505050506001600160a01b0381166119a15760405162461bcd60e51b815260206004820152600d60248201526c696e76616c69642070726f787960981b60448201526064016040518091039061199e614148565b50505b9392505050565b6000806119b36141b3565b906101000a90046001600160a01b03166001600160a01b03165a6119d5614345565b6001600160a01b031614611a275760405162461bcd60e51b815260206004820152600c60248201526b37b7363c9036b0b730b3b2b960a11b604482015260640160405180910390611a24614148565b50505b60005b8151811015611a7c57611a4f828281518110611a4257fe5b60200260200101516125ba565b611a5857611a74565b611a74828281518110611a6757fe5b6020026020010151613813565b600101611a2a565b5050565b600080806114286141b3565b600080611a976141b3565b906101000a90046001600160a01b03166001600160a01b03165a611ab9614345565b6001600160a01b031614611b0b5760405162461bcd60e51b815260206004820152600c60248201526b37b7363c9036b0b730b3b2b960a11b604482015260640160405180910390611b08614148565b50505b816000600181611b196141b3565b816001600160a01b0302191690836001600160a01b0316021790611b3b61438b565b505050806001908051611b529291602001906143d9565b507f6ed15082ad038474841528b5badca105106d4463e44b5d434130dfb299aa366982826040516001600160a01b038316815260406020820181815290820183818151815260200191508051906020019080838360005b83811015611bc1578082015183820152602001611ba9565b50505050905090810190601f168015611bee5780820380516001836020036101000a031916815260200191505b50935050505060405180910390a15050565b600080611c0b6141b3565b906101000a90046001600160a01b03166001600160a01b03165a611c2d614345565b6001600160a01b03161480611c76575060006004611c496141b3565b906101000a90046001600160a01b03166001600160a01b03165a611c6b614345565b6001600160a01b0316145b611cc85760405162461bcd60e51b815260206004820152601660248201527537b7363c9036b0b730b3b2b91037b9103a3930b232b960511b604482015260640160405180910390611cc5614148565b50505b610ffa81613986565b600080806038611cdf6141b3565b906101000a90046001600160a01b03166001600160a01b031663b7a54526846040516001600160e01b031960e084901b1681526001600160a01b03909116600482015260240160408051808303818680611d3761420e565b158015611d4c57600080611d49614148565b50505b505a611d5661425a565b5050505050158015611d75573d6000803e3d6000611d72614148565b50505b505050506040513d6040811015611d9457600080611d91614148565b50505b8101908080519291906020018051939550929350505050915091565b603b60205280600052604060002060009150611dca6141b3565b906101000a900460ff1681565b600080611de26141b3565b906101000a90046001600160a01b03166001600160a01b03165a611e04614345565b6001600160a01b031614611e565760405162461bcd60e51b815260206004820152600c60248201526b37b7363c9036b0b730b3b2b960a11b604482015260640160405180910390611e53614148565b50505b6000806038611e636141b3565b906101000a90046001600160a01b03166001600160a01b0316635c9bfc2b6040518163ffffffff1660e01b81526004016020604051808303818680611ea661420e565b158015611ebb57600080611eb8614148565b50505b505a611ec561425a565b5050505050158015611ee4573d6000803e3d6000611ee1614148565b50505b505050506040513d6020811015611f0357600080611f00614148565b50505b810190808051935060009250829150611f1d905085611cd1565b909250905080841115611f725760405162461bcd60e51b815260206004820152601060248201526f34b73b30b634b210333930b1ba34b7b760811b604482015260640160405180910390611f6f614148565b50505b611f7c8284613c6b565b841115611fd85760405162461bcd60e51b815260206004820152601960248201527f657863656564656420616c6c6f77656420696e63726561736500000000000000604482015260640160405180910390611fd5614148565b50505b6000806038611fe56141b3565b906101000a90046001600160a01b03166001600160a01b031663ebee461d6040518163ffffffff1660e01b8152600401602060405180830381868061202861420e565b15801561203d5760008061203a614148565b50505b505a61204761425a565b5050505050158015612066573d6000803e3d6000612063614148565b50505b505050506040513d602081101561208557600080612082614148565b50505b8101908080519350879250829150603c905061209f61438b565b505050805a6120ac614479565b0180603d6120b861438b565b5050507f4db9119741646c419f1ceccdf112b5b9a9b4516355e742e1fa9c479f4dec98da85603d6120e76141b3565b60405191825260208201526040908101905180910390a1505050505050565b6000806121116141b3565b906101000a90046001600160a01b03166001600160a01b03165a612133614345565b6001600160a01b0316146121855760405162461bcd60e51b815260206004820152600c60248201526b37b7363c9036b0b730b3b2b960a11b604482015260640160405180910390612182614148565b50505b60005b8151811015611a7c576121a0828281518110611a4257fe5b156121aa576121c6565b6121c68282815181106121b957fe5b6020026020010151613cd6565b600101612188565b603d6121d86141b3565b81565b6000806121e66141b3565b906101000a90046001600160a01b03166001600160a01b03165a612208614345565b6001600160a01b03161461225a5760405162461bcd60e51b815260206004820152600c60248201526b37b7363c9036b0b730b3b2b960a11b604482015260640160405180910390612257614148565b50505b600060046001816122696141b3565b816001600160a01b0302191690836001600160a01b031602179061228b61438b565b505050565b603c6121d86141b3565b60006039806122a76141b3565b91505090565b6000806122b86141b3565b906101000a90046001600160a01b03166001600160a01b03165a6122da614345565b6001600160a01b03161461232c5760405162461bcd60e51b815260206004820152600c60248201526b37b7363c9036b0b730b3b2b960a11b604482015260640160405180910390612329614148565b50505b603d6123366141b3565b5a61233f614479565b101561239a5760405162461bcd60e51b815260206004820152601960248201527f66656520696e6372656173652064656c61792061637469766500000000000000604482015260640160405180910390612397614148565b50505b6123ad81603c6123a86141b3565b613d62565b600080603c6123ba61438b565b5050506000603d819061141561438b565b60606002806123d86141b3565b8060200260200160405190810160405281815291906020830182806123fb6141b3565b801561244857602002820191906000526020600020905b60008261241d6141b3565b906101000a90046001600160a01b03166001600160a01b031681526020019060010190808311612412575b5050505050905090565b60006002806122a76141b3565b60008061246a6141b3565b906101000a90046001600160a01b03166001600160a01b03165a61248c614345565b6001600160a01b0316146124de5760405162461bcd60e51b815260206004820152600c60248201526b37b7363c9036b0b730b3b2b960a11b6044820152606401604051809103906124db614148565b50505b8060046001816113f36141b3565b6000806124f76141b3565b906101000a90046001600160a01b03166001600160a01b03165a612519614345565b6001600160a01b03161461256b5760405162461bcd60e51b815260206004820152600c60248201526b37b7363c9036b0b730b3b2b960a11b604482015260640160405180910390612568614148565b50505b600080603c61257861438b565b5050506000603d819061258961438b565b5050507fc6f04bf43cbdf1ba5d51b4afa160bb3c7e13858b1409aa32868b239bb2f8d84960405160405180910390a1565b6001600160a01b03811660009081526003602052604081206125da6141b3565b151592915050565b600060386112b76141b3565b603981816125fa6141b3565b811061260257fe5b9060005260206000200190506121d86141b3565b6000806126216141b3565b906101000a90046001600160a01b03166001600160a01b03165a612643614345565b6001600160a01b0316146126955760405162461bcd60e51b815260206004820152600c60248201526b37b7363c9036b0b730b3b2b960a11b604482015260640160405180910390612692614148565b50505b61269e816125ba565b156126a857610ffa565b610ffa81613cd6565b6000818152603a602052604081206125da6141b3565b603a60205280600052604060002090506121d86141b3565b60606039806126ec6141b3565b80602002602001604051908101604052818152919060208301828061270f6141b3565b801561244857602002820191906000526020600020905b8161272f6141b3565b81526020019060010190808311612726575050505050905090565b6000808060376127586141b3565b906101000a90046001600160a01b03166001600160a01b03166321f8a721680a6f2dce8d0cae8d2f60bb1b6040516001600160e01b031960e084901b168152600481019190915260240160206040518083038186806127b561420e565b1580156127ca576000806127c7614148565b50505b505a6127d461425a565b50505050501580156127f3573d6000803e3d60006127f0614148565b50505b505050506040513d60208110156128125760008061280f614148565b50505b8101908080516001600160a01b03169250633260803991508590506040516001600160e01b031960e084901b1681526004810191909152602401602060405180830381868061285f61420e565b15801561287457600080612871614148565b50505b505a61287e61425a565b505050505015801561289d573d6000803e3d600061289a614148565b50505b505050506040513d60208110156128bc576000806128b9614148565b50505b81019080805193505050506001600160a01b0381166128df5760009150506112a6565b6000816001600160a01b031663ec5568896040518163ffffffff1660e01b8152600401602060405180830381868061291561420e565b15801561292a57600080612927614148565b50505b505a61293461425a565b5050505050158015612953573d6000803e3d6000612950614148565b50505b505050506040513d60208110156129725760008061296f614148565b50505b81019080805193505050506001600160a01b038116612996576000925050506112a6565b5060019392505050565b601560046129ac6141b3565b906101000a900460ff16806129c457506129c4613fb5565b806129e25750601460046129d66141b3565b906101000a900460ff16155b612a265760405162461bcd60e51b815260040180806020018281038252602e81526020018061460c602e913960400191505060405180910390612a23614148565b50505b600060156004612a346141b3565b906101000a900460ff161590508015612a9d5760016004600160a81b81612a596141b3565b8160ff02191690831515021790612a6e61438b565b5050506001600460146101000a81612a846141b3565b8160ff02191690831515021790612a9961438b565b5050505b612aa78585614026565b856038600181612ab56141b3565b816001600160a01b0302191690836001600160a01b0316021790612ad761438b565b50505082603760006101000a81612aec6141b3565b816001600160a01b0302191690836001600160a01b0316021790612b0e61438b565b505050612b21631cd554d160e21b613986565b60005b82518160ff161015612b5757612b4f838260ff1681518110612b4257fe5b6020026020010151613986565b600101612b24565b50631cd554d160e21b6000908152603b60205260019060409020600181612b7c6141b3565b8160ff02191690831515021790612b9161438b565b5050508015612bc55760006004600160a81b81612bac6141b3565b8160ff02191690831515021790612bc161438b565b5050505b505050505050565b600080603c612bda6141b3565b603d612be46141b3565b915091509091565b600080612bf76141b3565b906101000a90046001600160a01b03166001600160a01b03165a612c19614345565b6001600160a01b03161480612c62575060006004612c356141b3565b906101000a90046001600160a01b03166001600160a01b03165a612c57614345565b6001600160a01b0316145b612cb45760405162461bcd60e51b815260206004820152601660248201527537b7363c9036b0b730b3b2b91037b9103a3930b232b960511b604482015260640160405180910390612cb1614148565b50505b612cbd836126b1565b612d165760405162461bcd60e51b815260206004820152601b60248201527f756e737570706f7274656420736f757263652063757272656e63790000000000604482015260640160405180910390612d13614148565b50505b612d1f816126b1565b612d785760405162461bcd60e51b815260206004820181905260248201527f756e737570706f727465642064657374696e6174696f6e2063757272656e6379604482015260640160405180910390612d75614148565b50505b6000806037612d856141b3565b906101000a90046001600160a01b03166001600160a01b03166321f8a721680a6f2dce8d0cae8d2f60bb1b6040516001600160e01b031960e084901b16815260048101919091526024016020604051808303818680612de261420e565b158015612df757600080612df4614148565b50505b505a612e0161425a565b5050505050158015612e20573d6000803e3d6000612e1d614148565b50505b505050506040513d6020811015612e3f57600080612e3c614148565b50505b810190808051935060009250506001600160a01b03831690506330ead760868686856038612e6b6141b3565b906101000a90046001600160a01b03166001600160a01b0316631d68702d6040518163ffffffff1660e01b81526004016020604051808303818680612eae61420e565b158015612ec357600080612ec0614148565b50505b505a612ecd61425a565b5050505050158015612eec573d6000803e3d6000612ee9614148565b50505b505050506040513d6020811015612f0b57600080612f08614148565b50505b81019080805192506000915060389050612f236141b3565b906101000a90046001600160a01b03166001600160a01b03166349f7c02d6040518163ffffffff1660e01b81526004016020604051808303818680612f6661420e565b158015612f7b57600080612f78614148565b50505b505a612f8561425a565b5050505050158015612fa4573d6000803e3d6000612fa1614148565b50505b505050506040513d6020811015612fc357600080612fc0614148565b50505b81019080805192506040915050516001600160e01b031960e088901b1681526004810195909552602485019390935260448401919091526001600160a01b03166064830152608482015260a4016020604051808303816000878061302561420e565b15801561303a57600080613037614148565b50505b505a6130446144bf565b505050505050158015613064573d6000803e3d6000613061614148565b50505b505050506040513d602081101561308357600080613080614148565b50505b81019080805193507f2f3156bec1dba8438caa2579a04e750d9ca242f1c16d87594c77efdbede59bbe925050505a63996d79a5598160e01b8152602081600483336000905af158600e01573d6000803e3d6000fd5b3d6001141558600a015760016000f35b8051925060005b6040811015613106576000828201526020016130ef565b5050505a613112614345565b878787865a61311f614479565b6040516001600160a01b0397881681529590961660208601526040808601949094526060850192909252608084015260a083015260c082019290925260e001905180910390a15050505050565b6060806060600060398061317e6141b3565b9050905060608167ffffffffffffffff811180156131a4576000806131a1614148565b50505b506040519080825280602002602001820160405280156131ce578160200160208202803683370190505b50905060608267ffffffffffffffff811180156131f3576000806131f0614148565b50505b5060405190808252806020026020018201604052801561321d578160200160208202803683370190505b50905060608367ffffffffffffffff811180156132425760008061323f614148565b50505b5060405190808252806020026020018201604052801561326c578160200160208202803683370190505b509050600080603761327c6141b3565b906101000a90046001600160a01b03166001600160a01b03166321f8a7216c45786368616e6765526174657360981b6040516001600160e01b031960e084901b168152600481019190915260240160206040518083038186806132dd61420e565b1580156132f2576000806132ef614148565b50505b505a6132fc61425a565b505050505015801561331b573d6000803e3d6000613318614148565b50505b505050506040513d602081101561333a57600080613337614148565b50505b81019080805193506000925050505b8581101561358a5760006039828161335f6141b3565b811061336757fe5b906000526020600020016133796141b3565b9050613384816116e2565b6001600160a01b03166370a082315a63996d79a5598160e01b8152602081600483336000905af158600e01573d6000803e3d6000fd5b3d6001141558600a015760016000f35b8051925060005b60408110156133e8576000828201526020016133d1565b5050506040516001600160e01b031960e084901b1681526001600160a01b039091166004820152602401602060405180830381868061342561420e565b15801561343a57600080613437614148565b50505b505a61344461425a565b5050505050158015613463573d6000803e3d6000613460614148565b50505b505050506040513d60208110156134825760008061347f614148565b50505b81019080805192508791508490508151811061349a57fe5b602002602001018181525050808683815181106134b357fe5b602002602001018181525050826001600160a01b031663ac82f608826040516001600160e01b031960e084901b1681526004810191909152602401602060405180830381868061350161420e565b15801561351657600080613513614148565b50505b505a61352061425a565b505050505015801561353f573d6000803e3d600061353c614148565b50505b505050506040513d602081101561355e5760008061355b614148565b50505b81019080805192508691508490508151811061357657fe5b602090810291909101015250600101613349565b509297919650945092505050565b60606001806135a56141b3565b600181600116156101000203166002900480601f0160208091040260200160405190810160405281815291906020830182806135df6141b3565b600181600116156101000203166002900480156124485780601f1061361957610100808361360b6141b3565b040283529160200191612448565b820191906000526020600020905b816136306141b3565b8152906001019060200180831161362757509395945050505050565b60006039806136596141b3565b6000848152603a602052909250905061367f6001604083206136796141b3565b9061406d565b90506000603961369084600161406d565b816136996141b3565b81106136a157fe5b906000526020600020016136b36141b3565b905080603983816136c26141b3565b81106136ca57fe5b9060005260206000200181906136de61438b565b506136ee91508390506001613c6b565b6000828152603a60205260409020819061370661438b565b5050506000848152603a60205260408120819061372161438b565b50505060398061372f6141b3565b8061373657fe5b6001900381819060005260206000200160009061375161438b565b50509061375c61438b565b50507f241d622959843ef6d15b4517709d11e054e1c06a2733f7773837c3d2377d8a895a63996d79a5598160e01b8152602081600483336000905af158600e01573d6000803e3d6000fd5b3d6001141558600a015760016000f35b8051925060005b60408110156137d5576000828201526020016137be565b5050506137e0611a80565b866040516001600160a01b039384168152919092166020820152604080820192909252606001905180910390a150505050565b60006002806138206141b3565b6001600160a01b03841660009081526003602052909250905061384a6001604083206136796141b3565b90506000600261385b84600161406d565b816138646141b3565b811061386c57fe5b906000526020600020016000906138816141b3565b906101000a90046001600160a01b0316905080600283816138a06141b3565b81106138a857fe5b906000526020600020016001816138bd6141b3565b816001600160a01b0302191690836001600160a01b03160217906138df61438b565b506138ef91508390506001613c6b565b6001600160a01b0382166000908152600360205260409020819061391161438b565b5050506001600160a01b0384166000908152600360205260408120819061393661438b565b5050506002806139446141b3565b8061394b57fe5b600190038181906000526020600020016001816139666141b3565b906001600160a01b030219169061397b61438b565b505090612bc561438b565b600060386139926141b3565b906101000a90046001600160a01b03166001600160a01b031663aa12ae4d6040518163ffffffff1660e01b815260040160206040518083038186806139d561420e565b1580156139ea576000806139e7614148565b50505b505a6139f461425a565b5050505050158015613a13573d6000803e3d6000613a10614148565b50505b505050506040513d6020811015613a3257600080613a2f614148565b50505b810190808051925060399150819050613a496141b3565b905010613a9e5760405162461bcd60e51b81526020600482015260166024820152751b585e1a5b5d5b48185cdcd95d1cc81c995858da195960521b604482015260640160405180910390613a9b614148565b50505b613aa7816126b1565b15613b015760405162461bcd60e51b815260206004820152601760248201527f617373657420616c726561647920737570706f72746564000000000000000000604482015260640160405180910390613afe614148565b50505b613b0a8161274a565b1515600114613b5a5760405162461bcd60e51b815260206004820152600f60248201526e1b9bdb8b5cde5b9d1a08185cdcd95d608a1b604482015260640160405180910390613b57614148565b50505b80603980600181613b696141b3565b018082613b7461438b565b505060009283526000190191602091502001613b8e61438b565b5050603980613b9b6141b3565b6000838152603a602052909150604090208190613bb661438b565b5050507f4c719ca79dbb56150643ac79f2fbfa02370838ed0d116fc28b9703f5a071c4e25a63996d79a5598160e01b8152602081600483336000905af158600e01573d6000803e3d6000fd5b3d6001141558600a015760016000f35b8051925060005b6040811015613c3057600082820152602001613c19565b505050613c3b611a80565b836040516001600160a01b039384168152919092166020820152604080820192909252606001905180910390a150565b600082820183811015613ccd5760405162461bcd60e51b815260206004820152601b60248201527f536166654d6174683a206164646974696f6e206f766572666c6f770000000000604482015260640160405180910390613cca614148565b50505b90505b92915050565b80600280600181613ce56141b3565b018082613cf061438b565b505060009283526000190191602091502001600181613d0d6141b3565b816001600160a01b0302191690836001600160a01b0316021790613d2f61438b565b505050600280613d3d6141b3565b6001600160a01b0383166000908152600360205290915060409020819061141561438b565b60006038613d6e6141b3565b906101000a90046001600160a01b03166001600160a01b031663046b72c483836040516001600160e01b031960e085901b1681526001600160a01b039092166004830152602482015260440160006040518083038160008780613dcf61420e565b158015613de457600080613de1614148565b50505b505a613dee6144bf565b505050505050158015613e0e573d6000803e3d6000613e0b614148565b50505b505050506000806038600090613e226141b3565b906101000a90046001600160a01b03166001600160a01b031663b7a54526856040516001600160e01b031960e084901b1681526001600160a01b03909116600482015260240160408051808303818680613e7a61420e565b158015613e8f57600080613e8c614148565b50505b505a613e9961425a565b5050505050158015613eb8573d6000803e3d6000613eb5614148565b50505b505050506040513d6040811015613ed757600080613ed4614148565b50505b81019080805192919060200180519395509293507f1780c04ddc6f0b32d866c7a3d7583f53515ef49ed2126af868f804f491601266925050505a63996d79a5598160e01b8152602081600483336000905af158600e01573d6000803e3d6000fd5b3d6001141558600a015760016000f35b8051925060005b6040811015613f6657600082820152602001613f4f565b505050613f71611a80565b848460405180856001600160a01b03168152602001846001600160a01b0316815260200183815260200182815260200194505050505060405180910390a150505050565b6000805a63996d79a5598160e01b8152602081600483336000905af158600e01573d6000803e3d6000fd5b3d6001141558600a015760016000f35b8051925060005b604081101561400e57600082820152602001613ff7565b505050905060008161401e61420e565b159250505090565b8160006001816140346141b3565b816001600160a01b0302191690836001600160a01b031602179061405661438b565b50505080600190805161228b9291602001906143d9565b6000613ccd838360405160408082019052601e81527f536166654d6174683a207375627472616374696f6e206f766572666c6f7700006020820152600081848411156141405760405162461bcd60e51b81526004018080602001828103825283818151815260200191508051906020019080838360005b838110156140fc5780820151838201526020016140e4565b50505050905090810190601f1680156141295780820380516001836020036101000a031916815260200191505b50925050506040518091039061413d614148565b50505b505050900390565b632a2a7adb598160e01b8152600481016020815285602082015260005b86811015614180578086015182820160400152602001614165565b506020828760640184336000905af158600e01573d6000803e3d6000fd5b3d6001141558600a015760016000f35b505050565b6303daa959598160e01b8152836004820152602081602483336000905af158600e01573d6000803e3d6000fd5b3d6001141558600a015760016000f35b8051935060005b604081101561228b576000828201526020016141f7565b638435035b598160e01b8152836004820152602081602483336000905af158600e01573d6000803e3d6000fd5b3d6001141558600a015760016000f35b805160008252935060206141f7565b638540661f598160e01b815261428b565b8080831115613cd0575090919050565b8080831015613cd0575090919050565b836004820152846024820152606060448201528660648201526084810160005b888110156142c35780880151828201526020016142ab565b506060828960a40184336000905af158600e01573d6000803e3d6000fd5b3d6001141558600a015760016000f35b815160408301513d6000853e8b8b82606087013350600060045af150596143188d3d61427b565b8c01614324818761426b565b5b828110156143395760008152602001614325565b50929c50505050505050565b6373509064598160e01b8152602081600483336000905af158600e01573d6000803e3d6000fd5b3d6001141558600a015760016000f35b805160008252935060206141f7565b6322bd64c0598160e01b8152836004820152846024820152600081604483336000905af158600e01573d6000803e3d6000fd5b3d6001141558600a015760016000f35b6000815260206141f7565b82806143e36141b3565b600181600116156101000203166002900490600052602060002090601f016020900481019282601f1061442a57805160ff1916838001178561442361438b565b5050614469565b8280016001018561443961438b565b50508215614469579182015b828111156144695782518261445861438b565b505091602001919060010190614445565b50614475929150614585565b5090565b63bdbf8c36598160e01b8152602081600483336000905af158600e01573d6000803e3d6000fd5b3d6001141558600a015760016000f35b805160008252935060206141f7565b6385979f76598160e01b8152836004820152846024820152606060448201528760648201526084810160005b898110156145035780890151828201526020016144eb565b506060828a60a40184336000905af158600e01573d6000803e3d6000fd5b3d6001141558600a015760016000f35b815160408301513d6000853e8c8c82606087013350600060045af150596145588e3d61427b565b8d01614564818761426b565b5b828110156145795760008152602001614565565b50929d50505050505050565b80821115614475576000808261459961438b565b50505060010161458556fe6e6f6e2d656d7074792061737365742063616e6e6f742062652072656d6f76656470657273697374656e74206173736574732063616e27742062652072656d6f7665646f6e6c79206d616e616765722c20747261646572206f722050726f746f636f6c2044414f436f6e747261637420696e7374616e63652068617320616c7265616479206265656e20696e697469616c697a6564",
  "deployedBytecode": "0x608060405234801561001957600080610016614148565b50505b506004361061023b5760003560e01c8063936553c411610139578063ca6d56dc116100c1578063eb94917d11610085578063eb94917d1461092e578063ed5b165d14610abc578063ee52a2f314610ac4578063f09d14d714610af6578063fed4416a14610bdc5761023b565b8063ca6d56dc14610885578063d44fa33e146108b4578063d78d7c2e146108da578063e5406dbf14610900578063e5ea7759146109085761023b565b8063a6bc18f911610108578063a6bc18f9146107f1578063b8bd81e614610820578063bbbf725b14610828578063c45a015514610857578063c68dbb371461085f5761023b565b8063936553c414610757578063969eed271461075f5780639eab52531461078e578063a30e3fa9146107e95761023b565b8063481c6a75116101c75780636708f5d71161018b5780636708f5d7146106455780636f4d469b1461067a5780637b4d0c631461073f5780637c8afd51146107475780638f3234391461074f5761023b565b8063481c6a75146104bf57806352213663146104c757806353d9133e1461059e5780635f6eceab146105c4578063670797491461060b5761023b565b8063143023871161020e57806314302387146102fc5780631758078b1461032b57806321f8c984146103335780633ded6530146103d457806346ee84b0146103fa5761023b565b8063023f21de146102495780630499123f1461027157806305a2ee2a146102a95780630b1ca49a146102cd575b600080610246614148565b50505b61026f6004803603602081101561026857600080610265614148565b50505b5035610c5b565b005b610297600480360360208110156102905760008061028d614148565b50505b5035610ffd565b60405190815260200160405180910390f35b6102b16112ab565b6040516001600160a01b03909116815260200160405180910390f35b61026f600480360360208110156102ec576000806102e9614148565b50505b50356001600160a01b03166112ca565b61026f6004803603602081101561031b57600080610318614148565b50505b50356001600160a01b0316611364565b6102b161141b565b61033b61143d565b604051808060200180602001838103835285818151815260200191508051906020019060200280838360005b8381101561037f578082015183820152602001610367565b50505050905001838103825284818151815260200191508051906020019060200280838360005b838110156103be5780820151838201526020016103a6565b5050505090500194505050505060405180910390f35b6102b1600480360360208110156103f3576000806103f0614148565b50505b50356116e2565b61026f6004803603602081101561041957600080610416614148565b50505b810190602081018135600160201b81111561043c57600080610439614148565b50505b82018360208201111561045757600080610454614148565b50505b803590602001918460208302840111600160201b831117156104815760008061047e614148565b50505b9190808060200260200160405190810160405280939291908181526020018383602002808284376000920191909152509295506119a8945050505050565b6102b1611a80565b61026f600480360360408110156104e6576000806104e3614148565b50505b6001600160a01b038235169190810190604081016020820135600160201b81111561051957600080610516614148565b50505b82018360208201111561053457600080610531614148565b50505b803590602001918460018302840111600160201b8311171561055e5760008061055b614148565b50505b91908080601f0160208091040260200160405190810160405281815292919060208401838380828437600092019190915250929550611a8c945050505050565b61026f600480360360208110156105bd576000806105ba614148565b50505b5035611c00565b6105f3600480360360208110156105e3576000806105e0614148565b50505b50356001600160a01b0316611cd1565b60405191825260208201526040908101905180910390f35b6106316004803603602081101561062a57600080610627614148565b50505b5035611db0565b604051901515815260200160405180910390f35b61026f6004803603604081101561066457600080610661614148565b50505b506001600160a01b038135169060200135611dd7565b61026f6004803603602081101561069957600080610696614148565b50505b810190602081018135600160201b8111156106bc576000806106b9614148565b50505b8201836020820111156106d7576000806106d4614148565b50505b803590602001918460208302840111600160201b83111715610701576000806106fe614148565b50505b919080806020026020016040519081016040528093929190818152602001838360200280828437600092019190915250929550612106945050505050565b6102976121ce565b61026f6121db565b610297612290565b61029761229a565b61026f6004803603602081101561077e5760008061077b614148565b50505b50356001600160a01b03166122ad565b6107966123cb565b60405160208082528190810183818151815260200191508051906020019060200280838360005b838110156107d55780820151838201526020016107bd565b505050509050019250505060405180910390f35b610297612452565b61026f600480360360208110156108105760008061080d614148565b50505b50356001600160a01b031661245f565b61026f6124ec565b6106316004803603602081101561084757600080610844614148565b50505b50356001600160a01b03166125ba565b6102b16125e2565b6102976004803603602081101561087e5760008061087b614148565b50505b50356125ee565b61026f600480360360208110156108a4576000806108a1614148565b50505b50356001600160a01b0316612616565b610631600480360360208110156108d3576000806108d0614148565b50505b50356126b1565b610297600480360360208110156108f9576000806108f6614148565b50505b50356126c7565b6107966126df565b6106316004803603602081101561092757600080610924614148565b50505b503561274a565b61026f600480360360a081101561094d5760008061094a614148565b50505b6001600160a01b038235811692602081013590911691810190606081016040820135600160201b81111561098957600080610986614148565b50505b8201836020820111156109a4576000806109a1614148565b50505b803590602001918460018302840111600160201b831117156109ce576000806109cb614148565b50505b91908080601f016020809104026020016040519081016040528181529291906020840183838082843760009201919091525092956001600160a01b03853516959094909350604081019250602001359050600160201b811115610a3957600080610a36614148565b50505b820183602082011115610a5457600080610a51614148565b50505b803590602001918460208302840111600160201b83111715610a7e57600080610a7b614148565b50505b9190808060200260200160405190810160405280939291908181526020018383602002808284376000920191909152509295506129a0945050505050565b6105f3612bcd565b61026f60048036036060811015610ae357600080610ae0614148565b50505b5080359060208101359060400135612bec565b610afe61316c565b60405180806020018060200180602001848103845287818151815260200191508051906020019060200280838360005b83811015610b46578082015183820152602001610b2e565b50505050905001848103835286818151815260200191508051906020019060200280838360005b83811015610b85578082015183820152602001610b6d565b50505050905001848103825285818151815260200191508051906020019060200280838360005b83811015610bc4578082015183820152602001610bac565b50505050905001965050505050505060405180910390f35b610be4613598565b60405160208082528190810183818151815260200191508051906020019080838360005b83811015610c20578082015183820152602001610c08565b50505050905090810190601f168015610c4d5780820380516001836020036101000a031916815260200191505b509250505060405180910390f35b60006038610c676141b3565b906101000a90046001600160a01b03166001600160a01b0316638da5cb5b6040518163ffffffff1660e01b81526004016020604051808303818680610caa61420e565b158015610cbf57600080610cbc614148565b50505b505a610cc961425a565b5050505050158015610ce8573d6000803e3d6000610ce5614148565b50505b505050506040513d6020811015610d0757600080610d04614148565b50505b8101908080516001600160a01b0316925050505a610d23614345565b6001600160a01b03161480610d585750610d3b611a80565b6001600160a01b03165a610d4d614345565b6001600160a01b0316145b80610d835750610d6661141b565b6001600160a01b03165a610d78614345565b6001600160a01b0316145b610dc75760405162461bcd60e51b81526004018080602001828103825260248152602001806145e86024913960400191505060405180910390610dc4614148565b50505b610dd0816126b1565b610e1f5760405162461bcd60e51b8152602060048201526013602482015272185cdcd95d081b9bdd081cdd5c1c1bdc9d1959606a1b604482015260640160405180910390610e1c614148565b50505b6000818152603b60205260409020600090610e386141b3565b906101000a900460ff1615610e875760405162461bcd60e51b81526004018080602001828103825260228152602001806145c66022913960400191505060405180910390610e84614148565b50505b610e908161274a565b151560011415610ff157610ea3816116e2565b6001600160a01b03166370a082315a63996d79a5598160e01b8152602081600483336000905af158601d01573d60011458600c01573d6000803e3d621234565260ea61109c528051925060005b6040811015610f0757600082820152602001610ef0565b5050506040516001600160e01b031960e084901b1681526001600160a01b0390911660048201526024016020604051808303818680610f4461420e565b158015610f5957600080610f56614148565b50505b505a610f6361425a565b5050505050158015610f82573d6000803e3d6000610f7f614148565b50505b505050506040513d6020811015610fa157600080610f9e614148565b50505b810190808051159250610ff19150505760405162461bcd60e51b81526004018080602001828103825260218152602001806145a56021913960400191505060405180910390610fee614148565b50505b610ffa8161364c565b50565b600080603761100a6141b3565b906101000a90046001600160a01b03166001600160a01b03166321f8a7216c45786368616e6765526174657360981b6040516001600160e01b031960e084901b1681526004810191909152602401602060405180830381868061106b61420e565b1580156110805760008061107d614148565b50505b505a61108a61425a565b50505050501580156110a9573d6000803e3d60006110a6614148565b50505b505050506040513d60208110156110c8576000806110c5614148565b50505b8101908080516001600160a01b0316925063654a60ac91508490506110ec816116e2565b6001600160a01b03166370a082315a63996d79a5598160e01b8152602081600483336000905af158601d01573d60011458600c01573d6000803e3d621234565260ea61109c528051925060005b604081101561115057600082820152602001611139565b5050506040516001600160e01b031960e084901b1681526001600160a01b039091166004820152602401602060405180830381868061118d61420e565b1580156111a25760008061119f614148565b50505b505a6111ac61425a565b50505050501580156111cb573d6000803e3d60006111c8614148565b50505b505050506040513d60208110156111ea576000806111e7614148565b50505b8101908080519250631cd554d160e21b915060409050516001600160e01b031960e086901b168152600481019390935260248301919091526044820152606401602060405180830381868061123d61420e565b1580156112525760008061124f614148565b50505b505a61125c61425a565b505050505015801561127b573d6000803e3d6000611278614148565b50505b505050506040513d602081101561129a57600080611297614148565b50505b81019080805193505050505b919050565b600060376112b76141b3565b906101000a90046001600160a01b031681565b6000806112d56141b3565b906101000a90046001600160a01b03166001600160a01b03165a6112f7614345565b6001600160a01b0316146113495760405162461bcd60e51b815260206004820152600c60248201526b37b7363c9036b0b730b3b2b960a11b604482015260640160405180910390611346614148565b50505b611352816125ba565b61135b57610ffa565b610ffa81613813565b600060386113706141b3565b906101000a90046001600160a01b03166001600160a01b03165a611392614345565b6001600160a01b0316146113e55760405162461bcd60e51b815260206004820152600d60248201526c3737903832b936b4b9b9b4b7b760991b6044820152606401604051809103906113e2614148565b50505b8060376001816113f36141b3565b816001600160a01b0302191690836001600160a01b031602179061141561438b565b50505050565b60008060046114286141b3565b906101000a90046001600160a01b0316905090565b606080600060398061144d6141b3565b9050905060608167ffffffffffffffff8111801561147357600080611470614148565b50505b5060405190808252806020026020018201604052801561149d578160200160208202803683370190505b50905060608267ffffffffffffffff811180156114c2576000806114bf614148565b50505b506040519080825280602002602001820160405280156114ec578160200160208202803683370190505b50905060008060376114fc6141b3565b906101000a90046001600160a01b03166001600160a01b03166321f8a7216b53797374656d53746174757360a01b6040516001600160e01b031960e084901b1681526004810191909152602401602060405180830381868061155c61420e565b1580156115715760008061156e614148565b50505b505a61157b61425a565b505050505015801561159a573d6000803e3d6000611597614148565b50505b505050506040513d60208110156115b9576000806115b6614148565b50505b81019080805193506000925050505b848110156116d6576000603982816115de6141b3565b81106115e657fe5b906000526020600020016115f86141b3565b90508085838151811061160757fe5b602002602001018181525050826001600160a01b03166342a28e21826040516001600160e01b031960e084901b1681526004810191909152602401600060405180830381868061165561420e565b15801561166a57600080611667614148565b50505b505a61167461425a565b5050505050925050508015611687575060015b6116ae57600184838151811061169957fe5b911515602092830291909101909101526116cd565b60008483815181106116bc57fe5b911515602092830291909101909101525b506001016115c8565b50919450925050509091565b6000808060376116f06141b3565b906101000a90046001600160a01b03166001600160a01b03166321f8a721680a6f2dce8d0cae8d2f60bb1b6040516001600160e01b031960e084901b1681526004810191909152602401602060405180830381868061174d61420e565b1580156117625760008061175f614148565b50505b505a61176c61425a565b505050505015801561178b573d6000803e3d6000611788614148565b50505b505050506040513d60208110156117aa576000806117a7614148565b50505b8101908080516001600160a01b03169250633260803991508590506040516001600160e01b031960e084901b168152600481019190915260240160206040518083038186806117f761420e565b15801561180c57600080611809614148565b50505b505a61181661425a565b5050505050158015611835573d6000803e3d6000611832614148565b50505b505050506040513d602081101561185457600080611851614148565b50505b81019080805193505050506001600160a01b0381166118b05760405162461bcd60e51b815260206004820152600b60248201526a696e76616c6964206b657960a81b6044820152606401604051809103906118ad614148565b50505b6000816001600160a01b031663ec5568896040518163ffffffff1660e01b815260040160206040518083038186806118e661420e565b1580156118fb576000806118f8614148565b50505b505a61190561425a565b5050505050158015611924573d6000803e3d6000611921614148565b50505b505050506040513d602081101561194357600080611940614148565b50505b81019080805193505050506001600160a01b0381166119a15760405162461bcd60e51b815260206004820152600d60248201526c696e76616c69642070726f787960981b60448201526064016040518091039061199e614148565b50505b9392505050565b6000806119b36141b3565b906101000a90046001600160a01b03166001600160a01b03165a6119d5614345565b6001600160a01b031614611a275760405162461bcd60e51b815260206004820152600c60248201526b37b7363c9036b0b730b3b2b960a11b604482015260640160405180910390611a24614148565b50505b60005b8151811015611a7c57611a4f828281518110611a4257fe5b60200260200101516125ba565b611a5857611a74565b611a74828281518110611a6757fe5b6020026020010151613813565b600101611a2a565b5050565b600080806114286141b3565b600080611a976141b3565b906101000a90046001600160a01b03166001600160a01b03165a611ab9614345565b6001600160a01b031614611b0b5760405162461bcd60e51b815260206004820152600c60248201526b37b7363c9036b0b730b3b2b960a11b604482015260640160405180910390611b08614148565b50505b816000600181611b196141b3565b816001600160a01b0302191690836001600160a01b0316021790611b3b61438b565b505050806001908051611b529291602001906143d9565b507f6ed15082ad038474841528b5badca105106d4463e44b5d434130dfb299aa366982826040516001600160a01b038316815260406020820181815290820183818151815260200191508051906020019080838360005b83811015611bc1578082015183820152602001611ba9565b50505050905090810190601f168015611bee5780820380516001836020036101000a031916815260200191505b50935050505060405180910390a15050565b600080611c0b6141b3565b906101000a90046001600160a01b03166001600160a01b03165a611c2d614345565b6001600160a01b03161480611c76575060006004611c496141b3565b906101000a90046001600160a01b03166001600160a01b03165a611c6b614345565b6001600160a01b0316145b611cc85760405162461bcd60e51b815260206004820152601660248201527537b7363c9036b0b730b3b2b91037b9103a3930b232b960511b604482015260640160405180910390611cc5614148565b50505b610ffa81613986565b600080806038611cdf6141b3565b906101000a90046001600160a01b03166001600160a01b031663b7a54526846040516001600160e01b031960e084901b1681526001600160a01b03909116600482015260240160408051808303818680611d3761420e565b158015611d4c57600080611d49614148565b50505b505a611d5661425a565b5050505050158015611d75573d6000803e3d6000611d72614148565b50505b505050506040513d6040811015611d9457600080611d91614148565b50505b8101908080519291906020018051939550929350505050915091565b603b60205280600052604060002060009150611dca6141b3565b906101000a900460ff1681565b600080611de26141b3565b906101000a90046001600160a01b03166001600160a01b03165a611e04614345565b6001600160a01b031614611e565760405162461bcd60e51b815260206004820152600c60248201526b37b7363c9036b0b730b3b2b960a11b604482015260640160405180910390611e53614148565b50505b6000806038611e636141b3565b906101000a90046001600160a01b03166001600160a01b0316635c9bfc2b6040518163ffffffff1660e01b81526004016020604051808303818680611ea661420e565b158015611ebb57600080611eb8614148565b50505b505a611ec561425a565b5050505050158015611ee4573d6000803e3d6000611ee1614148565b50505b505050506040513d6020811015611f0357600080611f00614148565b50505b810190808051935060009250829150611f1d905085611cd1565b909250905080841115611f725760405162461bcd60e51b815260206004820152601060248201526f34b73b30b634b210333930b1ba34b7b760811b604482015260640160405180910390611f6f614148565b50505b611f7c8284613c6b565b841115611fd85760405162461bcd60e51b815260206004820152601960248201527f657863656564656420616c6c6f77656420696e63726561736500000000000000604482015260640160405180910390611fd5614148565b50505b6000806038611fe56141b3565b906101000a90046001600160a01b03166001600160a01b031663ebee461d6040518163ffffffff1660e01b8152600401602060405180830381868061202861420e565b15801561203d5760008061203a614148565b50505b505a61204761425a565b5050505050158015612066573d6000803e3d6000612063614148565b50505b505050506040513d602081101561208557600080612082614148565b50505b8101908080519350879250829150603c905061209f61438b565b505050805a6120ac614479565b0180603d6120b861438b565b5050507f4db9119741646c419f1ceccdf112b5b9a9b4516355e742e1fa9c479f4dec98da85603d6120e76141b3565b60405191825260208201526040908101905180910390a1505050505050565b6000806121116141b3565b906101000a90046001600160a01b03166001600160a01b03165a612133614345565b6001600160a01b0316146121855760405162461bcd60e51b815260206004820152600c60248201526b37b7363c9036b0b730b3b2b960a11b604482015260640160405180910390612182614148565b50505b60005b8151811015611a7c576121a0828281518110611a4257fe5b156121aa576121c6565b6121c68282815181106121b957fe5b6020026020010151613cd6565b600101612188565b603d6121d86141b3565b81565b6000806121e66141b3565b906101000a90046001600160a01b03166001600160a01b03165a612208614345565b6001600160a01b03161461225a5760405162461bcd60e51b815260206004820152600c60248201526b37b7363c9036b0b730b3b2b960a11b604482015260640160405180910390612257614148565b50505b600060046001816122696141b3565b816001600160a01b0302191690836001600160a01b031602179061228b61438b565b505050565b603c6121d86141b3565b60006039806122a76141b3565b91505090565b6000806122b86141b3565b906101000a90046001600160a01b03166001600160a01b03165a6122da614345565b6001600160a01b03161461232c5760405162461bcd60e51b815260206004820152600c60248201526b37b7363c9036b0b730b3b2b960a11b604482015260640160405180910390612329614148565b50505b603d6123366141b3565b5a61233f614479565b101561239a5760405162461bcd60e51b815260206004820152601960248201527f66656520696e6372656173652064656c61792061637469766500000000000000604482015260640160405180910390612397614148565b50505b6123ad81603c6123a86141b3565b613d62565b600080603c6123ba61438b565b5050506000603d819061141561438b565b60606002806123d86141b3565b8060200260200160405190810160405281815291906020830182806123fb6141b3565b801561244857602002820191906000526020600020905b60008261241d6141b3565b906101000a90046001600160a01b03166001600160a01b031681526020019060010190808311612412575b5050505050905090565b60006002806122a76141b3565b60008061246a6141b3565b906101000a90046001600160a01b03166001600160a01b03165a61248c614345565b6001600160a01b0316146124de5760405162461bcd60e51b815260206004820152600c60248201526b37b7363c9036b0b730b3b2b960a11b6044820152606401604051809103906124db614148565b50505b8060046001816113f36141b3565b6000806124f76141b3565b906101000a90046001600160a01b03166001600160a01b03165a612519614345565b6001600160a01b03161461256b5760405162461bcd60e51b815260206004820152600c60248201526b37b7363c9036b0b730b3b2b960a11b604482015260640160405180910390612568614148565b50505b600080603c61257861438b565b5050506000603d819061258961438b565b5050507fc6f04bf43cbdf1ba5d51b4afa160bb3c7e13858b1409aa32868b239bb2f8d84960405160405180910390a1565b6001600160a01b03811660009081526003602052604081206125da6141b3565b151592915050565b600060386112b76141b3565b603981816125fa6141b3565b811061260257fe5b9060005260206000200190506121d86141b3565b6000806126216141b3565b906101000a90046001600160a01b03166001600160a01b03165a612643614345565b6001600160a01b0316146126955760405162461bcd60e51b815260206004820152600c60248201526b37b7363c9036b0b730b3b2b960a11b604482015260640160405180910390612692614148565b50505b61269e816125ba565b156126a857610ffa565b610ffa81613cd6565b6000818152603a602052604081206125da6141b3565b603a60205280600052604060002090506121d86141b3565b60606039806126ec6141b3565b80602002602001604051908101604052818152919060208301828061270f6141b3565b801561244857602002820191906000526020600020905b8161272f6141b3565b81526020019060010190808311612726575050505050905090565b6000808060376127586141b3565b906101000a90046001600160a01b03166001600160a01b03166321f8a721680a6f2dce8d0cae8d2f60bb1b6040516001600160e01b031960e084901b168152600481019190915260240160206040518083038186806127b561420e565b1580156127ca576000806127c7614148565b50505b505a6127d461425a565b50505050501580156127f3573d6000803e3d60006127f0614148565b50505b505050506040513d60208110156128125760008061280f614148565b50505b8101908080516001600160a01b03169250633260803991508590506040516001600160e01b031960e084901b1681526004810191909152602401602060405180830381868061285f61420e565b15801561287457600080612871614148565b50505b505a61287e61425a565b505050505015801561289d573d6000803e3d600061289a614148565b50505b505050506040513d60208110156128bc576000806128b9614148565b50505b81019080805193505050506001600160a01b0381166128df5760009150506112a6565b6000816001600160a01b031663ec5568896040518163ffffffff1660e01b8152600401602060405180830381868061291561420e565b15801561292a57600080612927614148565b50505b505a61293461425a565b5050505050158015612953573d6000803e3d6000612950614148565b50505b505050506040513d60208110156129725760008061296f614148565b50505b81019080805193505050506001600160a01b038116612996576000925050506112a6565b5060019392505050565b601560046129ac6141b3565b906101000a900460ff16806129c457506129c4613fb5565b806129e25750601460046129d66141b3565b906101000a900460ff16155b612a265760405162461bcd60e51b815260040180806020018281038252602e81526020018061460c602e913960400191505060405180910390612a23614148565b50505b600060156004612a346141b3565b906101000a900460ff161590508015612a9d5760016004600160a81b81612a596141b3565b8160ff02191690831515021790612a6e61438b565b5050506001600460146101000a81612a846141b3565b8160ff02191690831515021790612a9961438b565b5050505b612aa78585614026565b856038600181612ab56141b3565b816001600160a01b0302191690836001600160a01b0316021790612ad761438b565b50505082603760006101000a81612aec6141b3565b816001600160a01b0302191690836001600160a01b0316021790612b0e61438b565b505050612b21631cd554d160e21b613986565b60005b82518160ff161015612b5757612b4f838260ff1681518110612b4257fe5b6020026020010151613986565b600101612b24565b50631cd554d160e21b6000908152603b60205260019060409020600181612b7c6141b3565b8160ff02191690831515021790612b9161438b565b5050508015612bc55760006004600160a81b81612bac6141b3565b8160ff02191690831515021790612bc161438b565b5050505b505050505050565b600080603c612bda6141b3565b603d612be46141b3565b915091509091565b600080612bf76141b3565b906101000a90046001600160a01b03166001600160a01b03165a612c19614345565b6001600160a01b03161480612c62575060006004612c356141b3565b906101000a90046001600160a01b03166001600160a01b03165a612c57614345565b6001600160a01b0316145b612cb45760405162461bcd60e51b815260206004820152601660248201527537b7363c9036b0b730b3b2b91037b9103a3930b232b960511b604482015260640160405180910390612cb1614148565b50505b612cbd836126b1565b612d165760405162461bcd60e51b815260206004820152601b60248201527f756e737570706f7274656420736f757263652063757272656e63790000000000604482015260640160405180910390612d13614148565b50505b612d1f816126b1565b612d785760405162461bcd60e51b815260206004820181905260248201527f756e737570706f727465642064657374696e6174696f6e2063757272656e6379604482015260640160405180910390612d75614148565b50505b6000806037612d856141b3565b906101000a90046001600160a01b03166001600160a01b03166321f8a721680a6f2dce8d0cae8d2f60bb1b6040516001600160e01b031960e084901b16815260048101919091526024016020604051808303818680612de261420e565b158015612df757600080612df4614148565b50505b505a612e0161425a565b5050505050158015612e20573d6000803e3d6000612e1d614148565b50505b505050506040513d6020811015612e3f57600080612e3c614148565b50505b810190808051935060009250506001600160a01b03831690506330ead760868686856038612e6b6141b3565b906101000a90046001600160a01b03166001600160a01b0316631d68702d6040518163ffffffff1660e01b81526004016020604051808303818680612eae61420e565b158015612ec357600080612ec0614148565b50505b505a612ecd61425a565b5050505050158015612eec573d6000803e3d6000612ee9614148565b50505b505050506040513d6020811015612f0b57600080612f08614148565b50505b81019080805192506000915060389050612f236141b3565b906101000a90046001600160a01b03166001600160a01b03166349f7c02d6040518163ffffffff1660e01b81526004016020604051808303818680612f6661420e565b158015612f7b57600080612f78614148565b50505b505a612f8561425a565b5050505050158015612fa4573d6000803e3d6000612fa1614148565b50505b505050506040513d6020811015612fc357600080612fc0614148565b50505b81019080805192506040915050516001600160e01b031960e088901b1681526004810195909552602485019390935260448401919091526001600160a01b03166064830152608482015260a4016020604051808303816000878061302561420e565b15801561303a57600080613037614148565b50505b505a6130446144bf565b505050505050158015613064573d6000803e3d6000613061614148565b50505b505050506040513d602081101561308357600080613080614148565b50505b81019080805193507f2f3156bec1dba8438caa2579a04e750d9ca242f1c16d87594c77efdbede59bbe925050505a63996d79a5598160e01b8152602081600483336000905af158601d01573d60011458600c01573d6000803e3d621234565260ea61109c528051925060005b6040811015613106576000828201526020016130ef565b5050505a613112614345565b878787865a61311f614479565b6040516001600160a01b0397881681529590961660208601526040808601949094526060850192909252608084015260a083015260c082019290925260e001905180910390a15050505050565b6060806060600060398061317e6141b3565b9050905060608167ffffffffffffffff811180156131a4576000806131a1614148565b50505b506040519080825280602002602001820160405280156131ce578160200160208202803683370190505b50905060608267ffffffffffffffff811180156131f3576000806131f0614148565b50505b5060405190808252806020026020018201604052801561321d578160200160208202803683370190505b50905060608367ffffffffffffffff811180156132425760008061323f614148565b50505b5060405190808252806020026020018201604052801561326c578160200160208202803683370190505b509050600080603761327c6141b3565b906101000a90046001600160a01b03166001600160a01b03166321f8a7216c45786368616e6765526174657360981b6040516001600160e01b031960e084901b168152600481019190915260240160206040518083038186806132dd61420e565b1580156132f2576000806132ef614148565b50505b505a6132fc61425a565b505050505015801561331b573d6000803e3d6000613318614148565b50505b505050506040513d602081101561333a57600080613337614148565b50505b81019080805193506000925050505b8581101561358a5760006039828161335f6141b3565b811061336757fe5b906000526020600020016133796141b3565b9050613384816116e2565b6001600160a01b03166370a082315a63996d79a5598160e01b8152602081600483336000905af158601d01573d60011458600c01573d6000803e3d621234565260ea61109c528051925060005b60408110156133e8576000828201526020016133d1565b5050506040516001600160e01b031960e084901b1681526001600160a01b039091166004820152602401602060405180830381868061342561420e565b15801561343a57600080613437614148565b50505b505a61344461425a565b5050505050158015613463573d6000803e3d6000613460614148565b50505b505050506040513d60208110156134825760008061347f614148565b50505b81019080805192508791508490508151811061349a57fe5b602002602001018181525050808683815181106134b357fe5b602002602001018181525050826001600160a01b031663ac82f608826040516001600160e01b031960e084901b1681526004810191909152602401602060405180830381868061350161420e565b15801561351657600080613513614148565b50505b505a61352061425a565b505050505015801561353f573d6000803e3d600061353c614148565b50505b505050506040513d602081101561355e5760008061355b614148565b50505b81019080805192508691508490508151811061357657fe5b602090810291909101015250600101613349565b509297919650945092505050565b60606001806135a56141b3565b600181600116156101000203166002900480601f0160208091040260200160405190810160405281815291906020830182806135df6141b3565b600181600116156101000203166002900480156124485780601f1061361957610100808361360b6141b3565b040283529160200191612448565b820191906000526020600020905b816136306141b3565b8152906001019060200180831161362757509395945050505050565b60006039806136596141b3565b6000848152603a602052909250905061367f6001604083206136796141b3565b9061406d565b90506000603961369084600161406d565b816136996141b3565b81106136a157fe5b906000526020600020016136b36141b3565b905080603983816136c26141b3565b81106136ca57fe5b9060005260206000200181906136de61438b565b506136ee91508390506001613c6b565b6000828152603a60205260409020819061370661438b565b5050506000848152603a60205260408120819061372161438b565b50505060398061372f6141b3565b8061373657fe5b6001900381819060005260206000200160009061375161438b565b50509061375c61438b565b50507f241d622959843ef6d15b4517709d11e054e1c06a2733f7773837c3d2377d8a895a63996d79a5598160e01b8152602081600483336000905af158601d01573d60011458600c01573d6000803e3d621234565260ea61109c528051925060005b60408110156137d5576000828201526020016137be565b5050506137e0611a80565b866040516001600160a01b039384168152919092166020820152604080820192909252606001905180910390a150505050565b60006002806138206141b3565b6001600160a01b03841660009081526003602052909250905061384a6001604083206136796141b3565b90506000600261385b84600161406d565b816138646141b3565b811061386c57fe5b906000526020600020016000906138816141b3565b906101000a90046001600160a01b0316905080600283816138a06141b3565b81106138a857fe5b906000526020600020016001816138bd6141b3565b816001600160a01b0302191690836001600160a01b03160217906138df61438b565b506138ef91508390506001613c6b565b6001600160a01b0382166000908152600360205260409020819061391161438b565b5050506001600160a01b0384166000908152600360205260408120819061393661438b565b5050506002806139446141b3565b8061394b57fe5b600190038181906000526020600020016001816139666141b3565b906001600160a01b030219169061397b61438b565b505090612bc561438b565b600060386139926141b3565b906101000a90046001600160a01b03166001600160a01b031663aa12ae4d6040518163ffffffff1660e01b815260040160206040518083038186806139d561420e565b1580156139ea576000806139e7614148565b50505b505a6139f461425a565b5050505050158015613a13573d6000803e3d6000613a10614148565b50505b505050506040513d6020811015613a3257600080613a2f614148565b50505b810190808051925060399150819050613a496141b3565b905010613a9e5760405162461bcd60e51b81526020600482015260166024820152751b585e1a5b5d5b48185cdcd95d1cc81c995858da195960521b604482015260640160405180910390613a9b614148565b50505b613aa7816126b1565b15613b015760405162461bcd60e51b815260206004820152601760248201527f617373657420616c726561647920737570706f72746564000000000000000000604482015260640160405180910390613afe614148565b50505b613b0a8161274a565b1515600114613b5a5760405162461bcd60e51b815260206004820152600f60248201526e1b9bdb8b5cde5b9d1a08185cdcd95d608a1b604482015260640160405180910390613b57614148565b50505b80603980600181613b696141b3565b018082613b7461438b565b505060009283526000190191602091502001613b8e61438b565b5050603980613b9b6141b3565b6000838152603a602052909150604090208190613bb661438b565b5050507f4c719ca79dbb56150643ac79f2fbfa02370838ed0d116fc28b9703f5a071c4e25a63996d79a5598160e01b8152602081600483336000905af158601d01573d60011458600c01573d6000803e3d621234565260ea61109c528051925060005b6040811015613c3057600082820152602001613c19565b505050613c3b611a80565b836040516001600160a01b039384168152919092166020820152604080820192909252606001905180910390a150565b600082820183811015613ccd5760405162461bcd60e51b815260206004820152601b60248201527f536166654d6174683a206164646974696f6e206f766572666c6f770000000000604482015260640160405180910390613cca614148565b50505b90505b92915050565b80600280600181613ce56141b3565b018082613cf061438b565b505060009283526000190191602091502001600181613d0d6141b3565b816001600160a01b0302191690836001600160a01b0316021790613d2f61438b565b505050600280613d3d6141b3565b6001600160a01b0383166000908152600360205290915060409020819061141561438b565b60006038613d6e6141b3565b906101000a90046001600160a01b03166001600160a01b031663046b72c483836040516001600160e01b031960e085901b1681526001600160a01b039092166004830152602482015260440160006040518083038160008780613dcf61420e565b158015613de457600080613de1614148565b50505b505a613dee6144bf565b505050505050158015613e0e573d6000803e3d6000613e0b614148565b50505b505050506000806038600090613e226141b3565b906101000a90046001600160a01b03166001600160a01b031663b7a54526856040516001600160e01b031960e084901b1681526001600160a01b03909116600482015260240160408051808303818680613e7a61420e565b158015613e8f57600080613e8c614148565b50505b505a613e9961425a565b5050505050158015613eb8573d6000803e3d6000613eb5614148565b50505b505050506040513d6040811015613ed757600080613ed4614148565b50505b81019080805192919060200180519395509293507f1780c04ddc6f0b32d866c7a3d7583f53515ef49ed2126af868f804f491601266925050505a63996d79a5598160e01b8152602081600483336000905af158601d01573d60011458600c01573d6000803e3d621234565260ea61109c528051925060005b6040811015613f6657600082820152602001613f4f565b505050613f71611a80565b848460405180856001600160a01b03168152602001846001600160a01b0316815260200183815260200182815260200194505050505060405180910390a150505050565b6000805a63996d79a5598160e01b8152602081600483336000905af158601d01573d60011458600c01573d6000803e3d621234565260ea61109c528051925060005b604081101561400e57600082820152602001613ff7565b505050905060008161401e61420e565b159250505090565b8160006001816140346141b3565b816001600160a01b0302191690836001600160a01b031602179061405661438b565b50505080600190805161228b9291602001906143d9565b6000613ccd838360405160408082019052601e81527f536166654d6174683a207375627472616374696f6e206f766572666c6f7700006020820152600081848411156141405760405162461bcd60e51b81526004018080602001828103825283818151815260200191508051906020019080838360005b838110156140fc5780820151838201526020016140e4565b50505050905090810190601f1680156141295780820380516001836020036101000a031916815260200191505b50925050506040518091039061413d614148565b50505b505050900390565b632a2a7adb598160e01b8152600481016020815285602082015260005b86811015614180578086015182820160400152602001614165565b506020828760640184336000905af158601d01573d60011458600c01573d6000803e3d621234565260ea61109c52505050565b6303daa959598160e01b8152836004820152602081602483336000905af158601d01573d60011458600c01573d6000803e3d621234565260ea61109c528051935060005b604081101561228b576000828201526020016141f7565b638435035b598160e01b8152836004820152602081602483336000905af158601d01573d60011458600c01573d6000803e3d621234565260ea61109c52805160008252935060206141f7565b638540661f598160e01b815261428b565b8080831115613cd0575090919050565b8080831015613cd0575090919050565b836004820152846024820152606060448201528660648201526084810160005b888110156142c35780880151828201526020016142ab565b506060828960a40184336000905af158601d01573d60011458600c01573d6000803e3d621234565260ea61109c52815160408301513d6000853e8b8b82606087013350600060045af150596143188d3d61427b565b8c01614324818761426b565b5b828110156143395760008152602001614325565b50929c50505050505050565b6373509064598160e01b8152602081600483336000905af158601d01573d60011458600c01573d6000803e3d621234565260ea61109c52805160008252935060206141f7565b6322bd64c0598160e01b8152836004820152846024820152600081604483336000905af158601d01573d60011458600c01573d6000803e3d621234565260ea61109c526000815260206141f7565b82806143e36141b3565b600181600116156101000203166002900490600052602060002090601f016020900481019282601f1061442a57805160ff1916838001178561442361438b565b5050614469565b8280016001018561443961438b565b50508215614469579182015b828111156144695782518261445861438b565b505091602001919060010190614445565b50614475929150614585565b5090565b63bdbf8c36598160e01b8152602081600483336000905af158601d01573d60011458600c01573d6000803e3d621234565260ea61109c52805160008252935060206141f7565b6385979f76598160e01b8152836004820152846024820152606060448201528760648201526084810160005b898110156145035780890151828201526020016144eb565b506060828a60a40184336000905af158601d01573d60011458600c01573d6000803e3d621234565260ea61109c52815160408301513d6000853e8c8c82606087013350600060045af150596145588e3d61427b565b8d01614564818761426b565b5b828110156145795760008152602001614565565b50929d50505050505050565b80821115614475576000808261459961438b565b50505060010161458556fe6e6f6e2d656d7074792061737365742063616e6e6f742062652072656d6f76656470657273697374656e74206173736574732063616e27742062652072656d6f7665646f6e6c79206d616e616765722c20747261646572206f722050726f746f636f6c2044414f436f6e747261637420696e7374616e63652068617320616c7265616479206265656e20696e697469616c697a6564",
  "linkReferences": {},
  "deployedLinkReferences": {}
}