{
  "_format": "hh-sol-artifact-1",
  "contractName": "PoolManagerLogic",
  "sourceName": "contracts/PoolManagerLogic.sol",
  "abi": [
    {
      "anonymous": false,
      "inputs": [
        {
          "indexed": false,
          "internalType": "address",
          "name": "fundAddress",
          "type": "address"
        },
        {
          "indexed": false,
          "internalType": "address",
          "name": "manager",
          "type": "address"
        },
        {
          "indexed": false,
          "internalType": "address",
          "name": "asset",
          "type": "address"
        }
      ],
      "name": "AssetAdded",
      "type": "event"
    },
    {
      "anonymous": false,
      "inputs": [
        {
          "indexed": false,
          "internalType": "address",
          "name": "fundAddress",
          "type": "address"
        },
        {
          "indexed": false,
          "internalType": "address",
          "name": "manager",
          "type": "address"
        },
        {
          "indexed": false,
          "internalType": "address",
          "name": "asset",
          "type": "address"
        }
      ],
      "name": "AssetRemoved",
      "type": "event"
    },
    {
      "anonymous": false,
      "inputs": [
        {
          "indexed": false,
          "internalType": "uint256",
          "name": "newNumerator",
          "type": "uint256"
        },
        {
          "indexed": false,
          "internalType": "uint256",
          "name": "announcedFeeActivationTime",
          "type": "uint256"
        }
      ],
      "name": "ManagerFeeIncreaseAnnounced",
      "type": "event"
    },
    {
      "anonymous": false,
      "inputs": [],
      "name": "ManagerFeeIncreaseRenounced",
      "type": "event"
    },
    {
      "anonymous": false,
      "inputs": [
        {
          "indexed": false,
          "internalType": "address",
          "name": "fundAddress",
          "type": "address"
        },
        {
          "indexed": false,
          "internalType": "address",
          "name": "manager",
          "type": "address"
        },
        {
          "indexed": false,
          "internalType": "uint256",
          "name": "numerator",
          "type": "uint256"
        },
        {
          "indexed": false,
          "internalType": "uint256",
          "name": "denominator",
          "type": "uint256"
        }
      ],
      "name": "ManagerFeeSet",
      "type": "event"
    },
    {
      "anonymous": false,
      "inputs": [
        {
          "indexed": false,
          "internalType": "address",
          "name": "newManager",
          "type": "address"
        },
        {
          "indexed": false,
          "internalType": "string",
          "name": "newManagerName",
          "type": "string"
        }
      ],
      "name": "ManagerUpdated",
      "type": "event"
    },
    {
      "anonymous": false,
      "inputs": [
        {
          "indexed": false,
          "internalType": "address",
          "name": "poolLogic",
          "type": "address"
        },
        {
          "indexed": false,
          "internalType": "address",
          "name": "from",
          "type": "address"
        }
      ],
      "name": "PoolLogicSet",
      "type": "event"
    },
    {
      "anonymous": false,
      "inputs": [
        {
          "indexed": false,
          "internalType": "address",
          "name": "fundAddress",
          "type": "address"
        },
        {
          "indexed": false,
          "internalType": "address",
          "name": "manager",
          "type": "address"
        },
        {
          "indexed": false,
          "internalType": "uint256",
          "name": "time",
          "type": "uint256"
        }
      ],
      "name": "TransactionExecuted",
      "type": "event"
    },
    {
      "inputs": [
        {
          "internalType": "address",
          "name": "member",
          "type": "address"
        }
      ],
      "name": "addMember",
      "outputs": [],
      "stateMutability": "nonpayable",
      "type": "function"
    },
    {
      "inputs": [
        {
          "internalType": "address[]",
          "name": "members",
          "type": "address[]"
        }
      ],
      "name": "addMembers",
      "outputs": [],
      "stateMutability": "nonpayable",
      "type": "function"
    },
    {
      "inputs": [
        {
          "internalType": "address",
          "name": "asset",
          "type": "address"
        }
      ],
      "name": "addToSupportedAssets",
      "outputs": [],
      "stateMutability": "nonpayable",
      "type": "function"
    },
    {
      "inputs": [
        {
          "internalType": "uint256",
          "name": "numerator",
          "type": "uint256"
        }
      ],
      "name": "announceManagerFeeIncrease",
      "outputs": [],
      "stateMutability": "nonpayable",
      "type": "function"
    },
    {
      "inputs": [],
      "name": "announcedFeeIncreaseNumerator",
      "outputs": [
        {
          "internalType": "uint256",
          "name": "",
          "type": "uint256"
        }
      ],
      "stateMutability": "view",
      "type": "function"
    },
    {
      "inputs": [],
      "name": "announcedFeeIncreaseTimestamp",
      "outputs": [
        {
          "internalType": "uint256",
          "name": "",
          "type": "uint256"
        }
      ],
      "stateMutability": "view",
      "type": "function"
    },
    {
      "inputs": [
        {
          "internalType": "address",
          "name": "asset",
          "type": "address"
        }
      ],
      "name": "assetBalance",
      "outputs": [
        {
          "internalType": "uint256",
          "name": "",
          "type": "uint256"
        }
      ],
      "stateMutability": "view",
      "type": "function"
    },
    {
      "inputs": [
        {
          "internalType": "address",
          "name": "",
          "type": "address"
        }
      ],
      "name": "assetPosition",
      "outputs": [
        {
          "internalType": "uint256",
          "name": "",
          "type": "uint256"
        }
      ],
      "stateMutability": "view",
      "type": "function"
    },
    {
      "inputs": [
        {
          "internalType": "address",
          "name": "asset",
          "type": "address"
        },
        {
          "internalType": "uint256",
          "name": "amount",
          "type": "uint256"
        }
      ],
      "name": "assetValue",
      "outputs": [
        {
          "internalType": "uint256",
          "name": "",
          "type": "uint256"
        }
      ],
      "stateMutability": "view",
      "type": "function"
    },
    {
      "inputs": [
        {
          "internalType": "address",
          "name": "asset",
          "type": "address"
        }
      ],
      "name": "assetValue",
      "outputs": [
        {
          "internalType": "uint256",
          "name": "",
          "type": "uint256"
        }
      ],
      "stateMutability": "view",
      "type": "function"
    },
    {
      "inputs": [
        {
          "internalType": "address",
          "name": "newManager",
          "type": "address"
        },
        {
          "internalType": "string",
          "name": "newManagerName",
          "type": "string"
        }
      ],
      "name": "changeManager",
      "outputs": [],
      "stateMutability": "nonpayable",
      "type": "function"
    },
    {
      "inputs": [],
      "name": "commitManagerFeeIncrease",
      "outputs": [],
      "stateMutability": "nonpayable",
      "type": "function"
    },
    {
      "inputs": [
        {
          "internalType": "bytes32",
          "name": "data",
          "type": "bytes32"
        }
      ],
      "name": "convert32toAddress",
      "outputs": [
        {
          "internalType": "address",
          "name": "o",
          "type": "address"
        }
      ],
      "stateMutability": "pure",
      "type": "function"
    },
    {
      "inputs": [
        {
          "internalType": "address",
          "name": "to",
          "type": "address"
        },
        {
          "internalType": "bytes",
          "name": "data",
          "type": "bytes"
        }
      ],
      "name": "execTransaction",
      "outputs": [
        {
          "internalType": "bool",
          "name": "",
          "type": "bool"
        }
      ],
      "stateMutability": "nonpayable",
      "type": "function"
    },
    {
      "inputs": [],
      "name": "factory",
      "outputs": [
        {
          "internalType": "address",
          "name": "",
          "type": "address"
        }
      ],
      "stateMutability": "view",
      "type": "function"
    },
    {
      "inputs": [
        {
          "internalType": "bytes",
          "name": "data",
          "type": "bytes"
        },
        {
          "internalType": "uint8",
          "name": "inputNum",
          "type": "uint8"
        },
        {
          "internalType": "uint8",
          "name": "arrayIndex",
          "type": "uint8"
        }
      ],
      "name": "getArrayIndex",
      "outputs": [
        {
          "internalType": "bytes32",
          "name": "",
          "type": "bytes32"
        }
      ],
      "stateMutability": "pure",
      "type": "function"
    },
    {
      "inputs": [
        {
          "internalType": "bytes",
          "name": "data",
          "type": "bytes"
        },
        {
          "internalType": "uint8",
          "name": "inputNum",
          "type": "uint8"
        }
      ],
      "name": "getArrayLast",
      "outputs": [
        {
          "internalType": "bytes32",
          "name": "",
          "type": "bytes32"
        }
      ],
      "stateMutability": "pure",
      "type": "function"
    },
    {
      "inputs": [
        {
          "internalType": "bytes",
          "name": "data",
          "type": "bytes"
        },
        {
          "internalType": "uint8",
          "name": "inputNum",
          "type": "uint8"
        }
      ],
      "name": "getArrayLength",
      "outputs": [
        {
          "internalType": "uint256",
          "name": "",
          "type": "uint256"
        }
      ],
      "stateMutability": "pure",
      "type": "function"
    },
    {
      "inputs": [],
      "name": "getFundComposition",
      "outputs": [
        {
          "internalType": "address[]",
          "name": "",
          "type": "address[]"
        },
        {
          "internalType": "uint256[]",
          "name": "",
          "type": "uint256[]"
        },
        {
          "internalType": "uint256[]",
          "name": "",
          "type": "uint256[]"
        }
      ],
      "stateMutability": "view",
      "type": "function"
    },
    {
      "inputs": [
        {
          "internalType": "bytes",
          "name": "data",
          "type": "bytes"
        },
        {
          "internalType": "uint8",
          "name": "inputNum",
          "type": "uint8"
        }
      ],
      "name": "getInput",
      "outputs": [
        {
          "internalType": "bytes32",
          "name": "",
          "type": "bytes32"
        }
      ],
      "stateMutability": "pure",
      "type": "function"
    },
    {
      "inputs": [],
      "name": "getManagerFee",
      "outputs": [
        {
          "internalType": "uint256",
          "name": "",
          "type": "uint256"
        },
        {
          "internalType": "uint256",
          "name": "",
          "type": "uint256"
        }
      ],
      "stateMutability": "view",
      "type": "function"
    },
    {
      "inputs": [],
      "name": "getManagerFeeIncreaseInfo",
      "outputs": [
        {
          "internalType": "uint256",
          "name": "",
          "type": "uint256"
        },
        {
          "internalType": "uint256",
          "name": "",
          "type": "uint256"
        }
      ],
      "stateMutability": "view",
      "type": "function"
    },
    {
      "inputs": [],
      "name": "getMembers",
      "outputs": [
        {
          "internalType": "address[]",
          "name": "",
          "type": "address[]"
        }
      ],
      "stateMutability": "view",
      "type": "function"
    },
    {
      "inputs": [
        {
          "internalType": "bytes",
          "name": "data",
          "type": "bytes"
        }
      ],
      "name": "getMethod",
      "outputs": [
        {
          "internalType": "bytes4",
          "name": "",
          "type": "bytes4"
        }
      ],
      "stateMutability": "pure",
      "type": "function"
    },
    {
      "inputs": [],
      "name": "getSupportedAssets",
      "outputs": [
        {
          "internalType": "address[]",
          "name": "",
          "type": "address[]"
        }
      ],
      "stateMutability": "view",
      "type": "function"
    },
    {
      "inputs": [
        {
          "internalType": "address",
          "name": "_factory",
          "type": "address"
        },
        {
          "internalType": "address",
          "name": "_manager",
          "type": "address"
        },
        {
          "internalType": "string",
          "name": "_managerName",
          "type": "string"
        },
        {
          "internalType": "address[]",
          "name": "_supportedAssets",
          "type": "address[]"
        }
      ],
      "name": "initialize",
      "outputs": [],
      "stateMutability": "nonpayable",
      "type": "function"
    },
    {
      "inputs": [
        {
          "internalType": "address",
          "name": "asset",
          "type": "address"
        }
      ],
      "name": "isAssetSupported",
      "outputs": [
        {
          "internalType": "bool",
          "name": "",
          "type": "bool"
        }
      ],
      "stateMutability": "view",
      "type": "function"
    },
    {
      "inputs": [
        {
          "internalType": "address",
          "name": "member",
          "type": "address"
        }
      ],
      "name": "isMemberAllowed",
      "outputs": [
        {
          "internalType": "bool",
          "name": "",
          "type": "bool"
        }
      ],
      "stateMutability": "view",
      "type": "function"
    },
    {
      "inputs": [],
      "name": "manager",
      "outputs": [
        {
          "internalType": "address",
          "name": "",
          "type": "address"
        }
      ],
      "stateMutability": "view",
      "type": "function"
    },
    {
      "inputs": [],
      "name": "managerName",
      "outputs": [
        {
          "internalType": "string",
          "name": "",
          "type": "string"
        }
      ],
      "stateMutability": "view",
      "type": "function"
    },
    {
      "inputs": [],
      "name": "numberOfMembers",
      "outputs": [
        {
          "internalType": "uint256",
          "name": "",
          "type": "uint256"
        }
      ],
      "stateMutability": "view",
      "type": "function"
    },
    {
      "inputs": [],
      "name": "numberOfSupportedAssets",
      "outputs": [
        {
          "internalType": "uint256",
          "name": "",
          "type": "uint256"
        }
      ],
      "stateMutability": "view",
      "type": "function"
    },
    {
      "inputs": [
        {
          "internalType": "address",
          "name": "",
          "type": "address"
        }
      ],
      "name": "persistentAsset",
      "outputs": [
        {
          "internalType": "bool",
          "name": "",
          "type": "bool"
        }
      ],
      "stateMutability": "view",
      "type": "function"
    },
    {
      "inputs": [],
      "name": "poolLogic",
      "outputs": [
        {
          "internalType": "address",
          "name": "",
          "type": "address"
        }
      ],
      "stateMutability": "view",
      "type": "function"
    },
    {
      "inputs": [
        {
          "internalType": "bytes",
          "name": "data",
          "type": "bytes"
        },
        {
          "internalType": "uint256",
          "name": "offset",
          "type": "uint256"
        },
        {
          "internalType": "uint256",
          "name": "length",
          "type": "uint256"
        }
      ],
      "name": "read32",
      "outputs": [
        {
          "internalType": "bytes32",
          "name": "o",
          "type": "bytes32"
        }
      ],
      "stateMutability": "pure",
      "type": "function"
    },
    {
      "inputs": [
        {
          "internalType": "bytes",
          "name": "data",
          "type": "bytes"
        },
        {
          "internalType": "uint256",
          "name": "offset",
          "type": "uint256"
        },
        {
          "internalType": "uint256",
          "name": "length",
          "type": "uint256"
        }
      ],
      "name": "read4left",
      "outputs": [
        {
          "internalType": "bytes4",
          "name": "o",
          "type": "bytes4"
        }
      ],
      "stateMutability": "pure",
      "type": "function"
    },
    {
      "inputs": [
        {
          "internalType": "address",
          "name": "asset",
          "type": "address"
        }
      ],
      "name": "removeFromSupportedAssets",
      "outputs": [],
      "stateMutability": "nonpayable",
      "type": "function"
    },
    {
      "inputs": [
        {
          "internalType": "address",
          "name": "member",
          "type": "address"
        }
      ],
      "name": "removeMember",
      "outputs": [],
      "stateMutability": "nonpayable",
      "type": "function"
    },
    {
      "inputs": [
        {
          "internalType": "address[]",
          "name": "members",
          "type": "address[]"
        }
      ],
      "name": "removeMembers",
      "outputs": [],
      "stateMutability": "nonpayable",
      "type": "function"
    },
    {
      "inputs": [],
      "name": "removeTrader",
      "outputs": [],
      "stateMutability": "nonpayable",
      "type": "function"
    },
    {
      "inputs": [],
      "name": "renounceManagerFeeIncrease",
      "outputs": [],
      "stateMutability": "nonpayable",
      "type": "function"
    },
    {
      "inputs": [
        {
          "internalType": "address",
          "name": "_poolLogic",
          "type": "address"
        }
      ],
      "name": "setPoolLogic",
      "outputs": [
        {
          "internalType": "bool",
          "name": "",
          "type": "bool"
        }
      ],
      "stateMutability": "nonpayable",
      "type": "function"
    },
    {
      "inputs": [
        {
          "internalType": "address",
          "name": "newTrader",
          "type": "address"
        }
      ],
      "name": "setTrader",
      "outputs": [],
      "stateMutability": "nonpayable",
      "type": "function"
    },
    {
      "inputs": [
        {
          "internalType": "uint256",
          "name": "",
          "type": "uint256"
        }
      ],
      "name": "supportedAssets",
      "outputs": [
        {
          "internalType": "address",
          "name": "",
          "type": "address"
        }
      ],
      "stateMutability": "view",
      "type": "function"
    },
    {
      "inputs": [],
      "name": "trader",
      "outputs": [
        {
          "internalType": "address",
          "name": "",
          "type": "address"
        }
      ],
      "stateMutability": "view",
      "type": "function"
    },
    {
      "inputs": [
        {
          "internalType": "address",
          "name": "asset",
          "type": "address"
        }
      ],
      "name": "validateAsset",
      "outputs": [
        {
          "internalType": "bool",
          "name": "",
          "type": "bool"
        }
      ],
      "stateMutability": "view",
      "type": "function"
    }
  ],
  "bytecode": "0x608060405234801561001057600080fd5b506134c3806100206000396000f3fe608060405234801561001057600080fd5b506004361061028a5760003560e01c806382f86acc1161015c578063c3c6279f116100ce578063d8af8ed411610087578063d8af8ed414610df1578063db896b5714610e17578063e5406dbf14610ec0578063ed5b165d14610ec8578063f09d14d714610ed0578063fed4416a14610fb65761028a565b8063c3c6279f14610b9d578063c45a015514610c41578063c688aa6414610c49578063c68dbb3714610d88578063ca6d56dc14610da5578063cd88e55814610dcb5761028a565b8063998546e311610120578063998546e314610a405780639eab525314610ae9578063a30e3fa914610b41578063a6bc18f914610b49578063b8bd81e614610b6f578063bbbf725b14610b775761028a565b806382f86acc1461093b5780638e10153d146109e45780638f32343914610a0a5780639240d29914610a12578063936553c414610a385761028a565b8063464b4158116102005780636e890f3c116101b95780636e890f3c146107a85780636f4d469b146107b05780637ae7cfb5146108515780637b4d0c63146109055780637c8afd511461090d57806380dd4f62146109155761028a565b8063464b41581461052e57806346ee84b014610568578063481c6a7514610609578063522136631461061157806353f064c9146106c5578063568b5a2f146106e25761028a565b8063198055381161025257806319805538146103e25780631eba30771461040357806329c07fba1461042057806339b81fd91461044c5780633c570d7d1461045457806341dc16c31461047a5761028a565b8063064685871461028f578063093b8825146102b757806309ff5c7d146102dd5780630b1ca49a146103985780631758078b146103be575b600080fd5b6102b5600480360360208110156102a557600080fd5b50356001600160a01b0316611033565b005b6102b5600480360360208110156102cd57600080fd5b50356001600160a01b0316611274565b610386600480360360408110156102f357600080fd5b810190602081018135600160201b81111561030d57600080fd5b82018360208201111561031f57600080fd5b803590602001918460018302840111600160201b8311171561034057600080fd5b91908080601f0160208091040260200160405190810160405280939291908181526020018383808284376000920191909152509295505050903560ff1691506112ea9050565b60408051918252519081900360200190f35b6102b5600480360360208110156103ae57600080fd5b50356001600160a01b031661137d565b6103c66113e6565b604080516001600160a01b039092168252519081900360200190f35b6103ea6113f5565b6040805192835260208301919091528051918290030190f35b6103c66004803603602081101561041957600080fd5b503561147f565b6103866004803603604081101561043657600080fd5b506001600160a01b038135169060200135611482565b6103c661158c565b6103866004803603602081101561046a57600080fd5b50356001600160a01b031661159b565b6103866004803603606081101561049057600080fd5b810190602081018135600160201b8111156104aa57600080fd5b8201836020820111156104bc57600080fd5b803590602001918460018302840111600160201b831117156104dd57600080fd5b91908080601f0160208091040260200160405190810160405280939291908181526020018383808284376000920191909152509295505060ff83358116945060209093013590921691506115ad9050565b6105546004803603602081101561054457600080fd5b50356001600160a01b0316611695565b604080519115158252519081900360200190f35b6102b56004803603602081101561057e57600080fd5b810190602081018135600160201b81111561059857600080fd5b8201836020820111156105aa57600080fd5b803590602001918460208302840111600160201b831117156105cb57600080fd5b9190808060200260200160405190810160405280939291908181526020018383602002808284376000920191909152509295506116b2945050505050565b6103c6611759565b6102b56004803603604081101561062757600080fd5b6001600160a01b038235169190810190604081016020820135600160201b81111561065157600080fd5b82018360208201111561066357600080fd5b803590602001918460018302840111600160201b8311171561068457600080fd5b91908080601f016020809104026020016040519081016040528093929190818152602001838380828437600092019190915250929550611768945050505050565b6102b5600480360360208110156106db57600080fd5b5035611893565b61078b600480360360608110156106f857600080fd5b810190602081018135600160201b81111561071257600080fd5b82018360208201111561072457600080fd5b803590602001918460018302840111600160201b8311171561074557600080fd5b91908080601f0160208091040260200160405190810160405280939291908181526020018383808284376000920191909152509295505082359350505060200135611acc565b604080516001600160e01b03199092168252519081900360200190f35b6102b5611b4d565b6102b5600480360360208110156107c657600080fd5b810190602081018135600160201b8111156107e057600080fd5b8201836020820111156107f257600080fd5b803590602001918460208302840111600160201b8311171561081357600080fd5b919080806020026020016040519081016040528093929190818152602001838360200280828437600092019190915250929550611c09945050505050565b6105546004803603604081101561086757600080fd5b6001600160a01b038235169190810190604081016020820135600160201b81111561089157600080fd5b8201836020820111156108a357600080fd5b803590602001918460018302840111600160201b831117156108c457600080fd5b91908080601f016020809104026020016040519081016040528093929190818152602001838380828437600092019190915250929550611ca0945050505050565b6103866120bc565b6102b56120c2565b6105546004803603602081101561092b57600080fd5b50356001600160a01b0316612122565b6103866004803603604081101561095157600080fd5b810190602081018135600160201b81111561096b57600080fd5b82018360208201111561097d57600080fd5b803590602001918460018302840111600160201b8311171561099e57600080fd5b91908080601f0160208091040260200160405190810160405280939291908181526020018383808284376000920191909152509295505050903560ff1691506121379050565b610554600480360360208110156109fa57600080fd5b50356001600160a01b0316612155565b61038661234b565b61055460048036036020811015610a2857600080fd5b50356001600160a01b0316612351565b6103866123d4565b61038660048036036040811015610a5657600080fd5b810190602081018135600160201b811115610a7057600080fd5b820183602082011115610a8257600080fd5b803590602001918460018302840111600160201b83111715610aa357600080fd5b91908080601f0160208091040260200160405190810160405280939291908181526020018383808284376000920191909152509295505050903560ff1691506123da9050565b610af161240b565b60408051602080825283518183015283519192839290830191858101910280838360005b83811015610b2d578181015183820152602001610b15565b505050509050019250505060405180910390f35b61038661246d565b6102b560048036036020811015610b5f57600080fd5b50356001600160a01b0316612473565b6102b56124e3565b61055460048036036020811015610b8d57600080fd5b50356001600160a01b0316612566565b61078b60048036036020811015610bb357600080fd5b810190602081018135600160201b811115610bcd57600080fd5b820183602082011115610bdf57600080fd5b803590602001918460018302840111600160201b83111715610c0057600080fd5b91908080601f016020809104026020016040519081016040528093929190818152602001838380828437600092019190915250929550612583945050505050565b6103c6612592565b6102b560048036036080811015610c5f57600080fd5b6001600160a01b038235811692602081013590911691810190606081016040820135600160201b811115610c9257600080fd5b820183602082011115610ca457600080fd5b803590602001918460018302840111600160201b83111715610cc557600080fd5b91908080601f0160208091040260200160405190810160405280939291908181526020018383808284376000920191909152509295949360208101935035915050600160201b811115610d1757600080fd5b820183602082011115610d2957600080fd5b803590602001918460208302840111600160201b83111715610d4a57600080fd5b9190808060200260200160405190810160405280939291908181526020018383602002808284376000920191909152509295506125a1945050505050565b6103c660048036036020811015610d9e57600080fd5b50356126a3565b6102b560048036036020811015610dbb57600080fd5b50356001600160a01b03166126ca565b61038660048036036020811015610de157600080fd5b50356001600160a01b0316612734565b61038660048036036020811015610e0757600080fd5b50356001600160a01b0316612782565b61038660048036036060811015610e2d57600080fd5b810190602081018135600160201b811115610e4757600080fd5b820183602082011115610e5957600080fd5b803590602001918460018302840111600160201b83111715610e7a57600080fd5b91908080601f0160208091040260200160405190810160405280939291908181526020018383808284376000920191909152509295505082359350505060200135612796565b610af1612812565b6103ea612872565b610ed861287c565b60405180806020018060200180602001848103845287818151815260200191508051906020019060200280838360005b83811015610f20578181015183820152602001610f08565b50505050905001848103835286818151815260200191508051906020019060200280838360005b83811015610f5f578181015183820152602001610f47565b50505050905001848103825285818151815260200191508051906020019060200280838360005b83811015610f9e578181015183820152602001610f86565b50505050905001965050505050505060405180910390f35b610fbe612a6e565b6040805160208082528351818301528351919283929083019185019080838360005b83811015610ff8578181015183820152602001610fe0565b50505050905090810190601f1680156110255780820380516001836020036101000a031916815260200191505b509250505060405180910390f35b603860009054906101000a90046001600160a01b03166001600160a01b0316638da5cb5b6040518163ffffffff1660e01b815260040160206040518083038186803b15801561108157600080fd5b505afa158015611095573d6000803e3d6000fd5b505050506040513d60208110156110ab57600080fd5b50516001600160a01b03163314806110db57506110c6611759565b6001600160a01b0316336001600160a01b0316145b806110fe57506110e96113e6565b6001600160a01b0316336001600160a01b0316145b61114f576040805162461bcd60e51b815260206004820152601b60248201527f6f6e6c79206d616e616765722c20747261646572206f722044414f0000000000604482015290519081900360640190fd5b61115881611695565b61119f576040805162461bcd60e51b8152602060048201526013602482015272185cdcd95d081b9bdd081cdd5c1c1bdc9d1959606a1b604482015290519081900360640190fd5b6001600160a01b0381166000908152603c602052604090205460ff161561120d576040805162461bcd60e51b815260206004820152601f60248201527f63616e6e6f742072656d6f76652070657273697374656e742061737365747300604482015290519081900360640190fd5b61121681612734565b15611268576040805162461bcd60e51b815260206004820152601d60248201527f63616e6e6f742072656d6f7665206e6f6e2d656d707479206173736574000000604482015290519081900360640190fd5b61127181612afb565b50565b6033546001600160a01b031633148061129757506037546001600160a01b031633145b6112e1576040805162461bcd60e51b815260206004820152601660248201527537b7363c9036b0b730b3b2b91037b9103a3930b232b960511b604482015290519081900360640190fd5b61127181612c49565b600080611302848460200260040160ff166020612796565b9050600061131585600484016020612796565b90508061135e576040805162461bcd60e51b8152602060048201526012602482015271696e707574206973206e6f7420617272617960701b604482015290519081900360640190fd5b611372856020808402850160040190612796565b925050505b92915050565b6033546001600160a01b031633146113cb576040805162461bcd60e51b815260206004820152600c60248201526b37b7363c9036b0b730b3b2b960a11b604482015290519081900360640190fd5b6113d481612566565b6113dd57611271565b61127181612e6d565b6037546001600160a01b031690565b60385460395460408051635bd2a29360e11b81526001600160a01b03928316600482015281516000948594169263b7a545269260248082019391829003018186803b15801561144357600080fd5b505afa158015611457573d6000803e3d6000fd5b505050506040513d604081101561146d57600080fd5b50805160209091015190925090509091565b90565b60385460408051638b2f0f4f60e01b81526001600160a01b038581166004830152915160009384931691638b2f0f4f916024808301926020929190829003018186803b1580156114d157600080fd5b505afa1580156114e5573d6000803e3d6000fd5b505050506040513d60208110156114fb57600080fd5b50516040805163313ce56760e01b815290519192506000916001600160a01b0387169163313ce567916004808301926020929190829003018186803b15801561154357600080fd5b505afa158015611557573d6000803e3d6000fd5b505050506040513d602081101561156d57600080fd5b505160ff169050611372600a82900a6115868487612f66565b90612fbf565b6039546001600160a01b031681565b603b6020526000908152604090205481565b6000806115c5858560200260040160ff166020612796565b905060006115d886600484016020612796565b905080611621576040805162461bcd60e51b8152602060048201526012602482015271696e707574206973206e6f7420617272617960701b604482015290519081900360640190fd5b60ff84168111611671576040805162461bcd60e51b815260206004820152601660248201527534b73b30b634b21030b93930bc903837b9b4ba34b7b760511b604482015290519081900360640190fd5b61168b866020600160ff8816018102850160040190612796565b9695505050505050565b6001600160a01b03166000908152603b6020526040902054151590565b6033546001600160a01b03163314611700576040805162461bcd60e51b815260206004820152600c60248201526b37b7363c9036b0b730b3b2b960a11b604482015290519081900360640190fd5b60005b81518110156117555761172882828151811061171b57fe5b6020026020010151612566565b6117315761174d565b61174d82828151811061174057fe5b6020026020010151612e6d565b600101611703565b5050565b6033546001600160a01b031690565b6033546001600160a01b031633146117b6576040805162461bcd60e51b815260206004820152600c60248201526b37b7363c9036b0b730b3b2b960a11b604482015290519081900360640190fd5b603380546001600160a01b0319166001600160a01b03841617905580516117e4906034906020840190613388565b507f6ed15082ad038474841528b5badca105106d4463e44b5d434130dfb299aa3669828260405180836001600160a01b0316815260200180602001828103825283818151815260200191508051906020019080838360005b8381101561185457818101518382015260200161183c565b50505050905090810190601f1680156118815780820380516001836020036101000a031916815260200191505b50935050505060405180910390a15050565b6033546001600160a01b031633146118e1576040805162461bcd60e51b815260206004820152600c60248201526b37b7363c9036b0b730b3b2b960a11b604482015290519081900360640190fd5b60385460408051635c9bfc2b60e01b815290516000926001600160a01b031691635c9bfc2b916004808301926020929190829003018186803b15801561192657600080fd5b505afa15801561193a573d6000803e3d6000fd5b505050506040513d602081101561195057600080fd5b5051905060008061195f6113f5565b9092509050808411156119ac576040805162461bcd60e51b815260206004820152601060248201526f34b73b30b634b210333930b1ba34b7b760811b604482015290519081900360640190fd5b6119b68284613001565b841115611a0a576040805162461bcd60e51b815260206004820152601960248201527f657863656564656420616c6c6f77656420696e63726561736500000000000000604482015290519081900360640190fd5b6038546040805163ebee461d60e01b815290516000926001600160a01b03169163ebee461d916004808301926020929190829003018186803b158015611a4f57600080fd5b505afa158015611a63573d6000803e3d6000fd5b505050506040513d6020811015611a7957600080fd5b5051603d869055428101603e81905560408051888152602081019290925280519293507f4db9119741646c419f1ceccdf112b5b9a9b4516355e742e1fa9c479f4dec98da92918290030190a15050505050565b600081830184511015611b26576040805162461bcd60e51b815260206004820152601b60248201527f52656164696e67206279746573206f7574206f6620626f756e64730000000000604482015290519081900360640190fd5b826020018401519050816004038015611b45576008810260020a820491505b509392505050565b6033546001600160a01b03163314611b9b576040805162461bcd60e51b815260206004820152600c60248201526b37b7363c9036b0b730b3b2b960a11b604482015290519081900360640190fd5b603e54421015611bf2576040805162461bcd60e51b815260206004820152601960248201527f66656520696e6372656173652064656c61792061637469766500000000000000604482015290519081900360640190fd5b611bfd603d5461305b565b6000603d819055603e55565b6033546001600160a01b03163314611c57576040805162461bcd60e51b815260206004820152600c60248201526b37b7363c9036b0b730b3b2b960a11b604482015290519081900360640190fd5b60005b815181101561175557611c7282828151811061171b57fe5b15611c7c57611c98565b611c98828281518110611c8b57fe5b60200260200101516131b5565b600101611c5a565b6033546000906001600160a01b0316331480611cc657506037546001600160a01b031633145b611d10576040805162461bcd60e51b815260206004820152601660248201527537b7363c9036b0b730b3b2b91037b9103a3930b232b960511b604482015290519081900360640190fd5b6001600160a01b038316611d6b576040805162461bcd60e51b815260206004820152601c60248201527f6e6f6e2d7a65726f206164647265737320697320726571756972656400000000604482015290519081900360640190fd5b60385460408051631c09fa9b60e21b81526001600160a01b03868116600483015291516000939290921691637027ea6c91602480820192602092909190829003018186803b158015611dbc57600080fd5b505afa158015611dd0573d6000803e3d6000fd5b505050506040513d6020811015611de657600080fd5b505190506001600160a01b038116611e3b576040805162461bcd60e51b815260206004820152601360248201527234b73b30b634b2103232b9ba34b730ba34b7b760691b604482015290519081900360640190fd5b6040805163e23ff43760e01b81523060048201818152602483019384528651604484015286516001600160a01b0386169463e23ff43794899392606490910190602085019080838360005b83811015611e9e578181015183820152602001611e86565b50505050905090810190601f168015611ecb5780820380516001836020036101000a031916815260200191505b509350505050602060405180830381600087803b158015611eeb57600080fd5b505af1158015611eff573d6000803e3d6000fd5b505050506040513d6020811015611f1557600080fd5b5051611f5e576040805162461bcd60e51b815260206004820152601360248201527234b73b30b634b2103a3930b739b0b1ba34b7b760691b604482015290519081900360640190fd5b6000846001600160a01b0316846040518082805190602001908083835b60208310611f9a5780518252601f199092019160209182019101611f7b565b6001836020036101000a0380198251168184511680821785525050505050509050019150506000604051808303816000865af19150503d8060008114611ffc576040519150601f19603f3d011682016040523d82523d6000602084013e612001565b606091505b509091505060018115151461205d576040805162461bcd60e51b815260206004820152601a60248201527f6661696c656420746f2065786563757465207468652063616c6c000000000000604482015290519081900360640190fd5b7f508f3afa87f72dce865a2321107666b28ac822c23a8c0555fbeb3424cf3de56330612087611759565b604080516001600160a01b039384168152919092166020820152428183015290519081900360600190a1506001949350505050565b603e5481565b6033546001600160a01b03163314612110576040805162461bcd60e51b815260206004820152600c60248201526b37b7363c9036b0b730b3b2b960a11b604482015290519081900360640190fd5b603780546001600160a01b0319169055565b603c6020526000908152604090205460ff1681565b600061214e838360200260040160ff166020612796565b9392505050565b6038546000906001600160a01b03163314806121f25750603860009054906101000a90046001600160a01b03166001600160a01b0316631d68702d6040518163ffffffff1660e01b815260040160206040518083038186803b1580156121ba57600080fd5b505afa1580156121ce573d6000803e3d6000fd5b505050506040513d60208110156121e457600080fd5b50516001600160a01b031633145b61222d5760405162461bcd60e51b815260040180806020018281038252602381526020018061341c6023913960400191505060405180910390fd5b306001600160a01b0316826001600160a01b0316631e50a4a66040518163ffffffff1660e01b815260040160206040518083038186803b15801561227057600080fd5b505afa158015612284573d6000803e3d6000fd5b505050506040513d602081101561229a57600080fd5b50516001600160a01b0316146122ec576040805162461bcd60e51b8152602060048201526012602482015271696e76616c696420706f6f6c206c6f67696360701b604482015290519081900360640190fd5b603980546001600160a01b0319166001600160a01b0384169081179091556040805191825233602083015280517f8c1446ebd2ac8c922b8c9716dfbdfcfef02c9fc167140d7cfd019565b423b2499281900390910190a1506001919050565b603d5481565b6038546040805163cc435bf360e01b81526001600160a01b0384811660048301529151600093929092169163cc435bf391602480820192602092909190829003018186803b1580156123a257600080fd5b505afa1580156123b6573d6000803e3d6000fd5b505050506040513d60208110156123cc57600080fd5b505192915050565b603a5490565b6000806123f2848460200260040160ff166020612796565b905061240384600483016020612796565b949350505050565b6060603580548060200260200160405190810160405280929190818152602001828054801561246357602002820191906000526020600020905b81546001600160a01b03168152600190910190602001808311612445575b5050505050905090565b60355490565b6033546001600160a01b031633146124c1576040805162461bcd60e51b815260206004820152600c60248201526b37b7363c9036b0b730b3b2b960a11b604482015290519081900360640190fd5b603780546001600160a01b0319166001600160a01b0392909216919091179055565b6033546001600160a01b03163314612531576040805162461bcd60e51b815260206004820152600c60248201526b37b7363c9036b0b730b3b2b960a11b604482015290519081900360640190fd5b6000603d819055603e8190556040517fc6f04bf43cbdf1ba5d51b4afa160bb3c7e13858b1409aa32868b239bb2f8d8499190a1565b6001600160a01b0316600090815260366020526040902054151590565b60006113778260006004611acc565b6038546001600160a01b031681565b600054610100900460ff16806125ba57506125ba613211565b806125c8575060005460ff16155b6126035760405162461bcd60e51b815260040180806020018281038252602e815260200180613460602e913960400191505060405180910390fd5b600054610100900460ff1615801561262e576000805460ff1961ff0019909116610100171660011790555b6126388484613217565b603880546001600160a01b0319166001600160a01b03871617905560005b82518160ff16101561268957612681838260ff168151811061267457fe5b6020026020010151612c49565b600101612656565b50801561269c576000805461ff00191690555b5050505050565b603a81815481106126b057fe5b6000918252602090912001546001600160a01b0316905081565b6033546001600160a01b03163314612718576040805162461bcd60e51b815260206004820152600c60248201526b37b7363c9036b0b730b3b2b960a11b604482015290519081900360640190fd5b61272181612566565b1561272b57611271565b611271816131b5565b603954604080516370a0823160e01b81526001600160a01b03928316600482015290516000928416916370a08231916024808301926020929190829003018186803b1580156123a257600080fd5b60006113778261279184612734565b611482565b6000818301845110156127f0576040805162461bcd60e51b815260206004820152601b60248201527f52656164696e67206279746573206f7574206f6620626f756e64730000000000604482015290519081900360640190fd5b826020018401519050816020038015611b455760080260020a90049392505050565b6060603a805480602002602001604051908101604052809291908181526020018280548015612463576020028201919060005260206000209081546001600160a01b03168152600190910190602001808311612445575050505050905090565b603d54603e549091565b603a5460609081908190818167ffffffffffffffff8111801561289e57600080fd5b506040519080825280602002602001820160405280156128c8578160200160208202803683370190505b50905060608267ffffffffffffffff811180156128e457600080fd5b5060405190808252806020026020018201604052801561290e578160200160208202803683370190505b50905060608367ffffffffffffffff8111801561292a57600080fd5b50604051908082528060200260200182016040528015612954578160200160208202803683370190505b50905060005b84811015612a60576000603a828154811061297157fe5b6000918252602090912001546001600160a01b0316905061299181612734565b84838151811061299d57fe5b602002602001018181525050808583815181106129b657fe5b6001600160a01b0392831660209182029290920181019190915260385460408051638b2f0f4f60e01b8152858516600482015290519190931692638b2f0f4f926024808301939192829003018186803b158015612a1257600080fd5b505afa158015612a26573d6000803e3d6000fd5b505050506040513d6020811015612a3c57600080fd5b50518351849084908110612a4c57fe5b60209081029190910101525060010161295a565b509195509350915050909192565b60348054604080516020601f60026000196101006001881615020190951694909404938401819004810282018101909252828152606093909290918301828280156124635780601f10612acf57610100808354040283529160200191612463565b820191906000526020600020905b815481529060010190602001808311612add57509395945050505050565b603a546001600160a01b0382166000908152603b6020526040812054612b2290600161324a565b90506000603a612b3384600161324a565b81548110612b3d57fe5b600091825260209091200154603a80546001600160a01b039092169250829184908110612b6657fe5b600091825260209091200180546001600160a01b0319166001600160a01b0392909216919091179055612b9a826001613001565b6001600160a01b038083166000908152603b602052604080822093909355908616815290812055603a805480612bcc57fe5b600082815260209020810160001990810180546001600160a01b03191690550190557f9b4f55639e5e283319baee5bc4e69a5625a8e3a1cc004af968f4fee72502202730612c18611759565b604080516001600160a01b03938416815291831660208301529187168183015290519081900360600190a150505050565b603860009054906101000a90046001600160a01b03166001600160a01b031663aa12ae4d6040518163ffffffff1660e01b815260040160206040518083038186803b158015612c9757600080fd5b505afa158015612cab573d6000803e3d6000fd5b505050506040513d6020811015612cc157600080fd5b5051603a5410612d11576040805162461bcd60e51b81526020600482015260166024820152751b585e1a5b5d5b48185cdcd95d1cc81c995858da195960521b604482015290519081900360640190fd5b612d1a81611695565b15612d6c576040805162461bcd60e51b815260206004820152601760248201527f617373657420616c726561647920737570706f72746564000000000000000000604482015290519081900360640190fd5b612d7581612351565b1515600114612dbb576040805162461bcd60e51b815260206004820152600d60248201526c1a5b9d985b1a5908185cdcd95d609a1b604482015290519081900360640190fd5b603a80546001810182557fa2999d817b6757290b50e8ecf3fa939673403dd35c97de392fdb343b4015ce9e0180546001600160a01b0319166001600160a01b03841690811790915590546000918252603b6020526040909120557f0a7426a0630aad7dbc4d5ca5b7d9aac1133d77d2db987caaf4b4186c85d6593f30612e3f611759565b604080516001600160a01b03938416815291831660208301529184168183015290519081900360600190a150565b6035546001600160a01b038216600090815260366020526040812054612e9490600161324a565b905060006035612ea584600161324a565b81548110612eaf57fe5b600091825260209091200154603580546001600160a01b039092169250829184908110612ed857fe5b600091825260209091200180546001600160a01b0319166001600160a01b0392909216919091179055612f0c826001613001565b6001600160a01b03808316600090815260366020526040808220939093559086168152908120556035805480612f3e57fe5b600082815260209020810160001990810180546001600160a01b031916905501905550505050565b600082612f7557506000611377565b82820282848281612f8257fe5b041461214e5760405162461bcd60e51b815260040180806020018281038252602181526020018061343f6021913960400191505060405180910390fd5b600061214e83836040518060400160405280601a81526020017f536166654d6174683a206469766973696f6e206279207a65726f00000000000081525061328c565b60008282018381101561214e576040805162461bcd60e51b815260206004820152601b60248201527f536166654d6174683a206164646974696f6e206f766572666c6f770000000000604482015290519081900360640190fd5b6038546039546040805163011adcb160e21b81526001600160a01b039283166004820152602481018590529051919092169163046b72c491604480830192600092919082900301818387803b1580156130b357600080fd5b505af11580156130c7573d6000803e3d6000fd5b505060385460395460408051635bd2a29360e11b81526001600160a01b039283166004820152815160009650869550929093169263b7a545269260248083019392829003018186803b15801561311c57600080fd5b505afa158015613130573d6000803e3d6000fd5b505050506040513d604081101561314657600080fd5b50805160209091015190925090507f1780c04ddc6f0b32d866c7a3d7583f53515ef49ed2126af868f804f4916012663061317e611759565b604080516001600160a01b0393841681529190921660208201528082018590526060810184905290519081900360800190a1505050565b603580546001810182557fcfa4bec1d3298408bb5afcfcd9c430549c5b31f8aa5c5848151c0a55f473c34d0180546001600160a01b039093166001600160a01b0319909316831790555460009182526036602052604090912055565b303b1590565b603380546001600160a01b0319166001600160a01b0384161790558051613245906034906020840190613388565b505050565b600061214e83836040518060400160405280601e81526020017f536166654d6174683a207375627472616374696f6e206f766572666c6f77000081525061332e565b600081836133185760405162461bcd60e51b81526004018080602001828103825283818151815260200191508051906020019080838360005b838110156132dd5781810151838201526020016132c5565b50505050905090810190601f16801561330a5780820380516001836020036101000a031916815260200191505b509250505060405180910390fd5b50600083858161332457fe5b0495945050505050565b600081848411156133805760405162461bcd60e51b81526020600482018181528351602484015283519092839260449091019190850190808383600083156132dd5781810151838201526020016132c5565b505050900390565b828054600181600116156101000203166002900490600052602060002090601f016020900481019282601f106133c957805160ff19168380011785556133f6565b828001600101855582156133f6579182015b828111156133f65782518255916020019190600101906133db565b50613402929150613406565b5090565b5b80821115613402576000815560010161340756fe6f6e6c792044414f206f7220666163746f7279206164647265737320616c6c6f776564536166654d6174683a206d756c7469706c69636174696f6e206f766572666c6f77436f6e747261637420696e7374616e63652068617320616c7265616479206265656e20696e697469616c697a6564a264697066735822122049a3f3cf523257faa3d8e985e8468dbab889f14bb01aff3b430bedf85180742564736f6c634300060c0033",
  "linkReferences": {},
  "deployedLinkReferences": {}
}