{
  "_format": "hh-sol-artifact-1",
  "contractName": "PoolManagerLogic",
  "sourceName": "contracts/PoolManagerLogic.sol",
  "abi": [
    {
      "anonymous": false,
      "inputs": [
        {
          "indexed": false,
          "internalType": "address",
          "name": "fundAddress",
          "type": "address"
        },
        {
          "indexed": false,
          "internalType": "address",
          "name": "manager",
          "type": "address"
        },
        {
          "indexed": false,
          "internalType": "bytes32",
          "name": "assetKey",
          "type": "bytes32"
        }
      ],
      "name": "AssetAdded",
      "type": "event"
    },
    {
      "anonymous": false,
      "inputs": [
        {
          "indexed": false,
          "internalType": "address",
          "name": "fundAddress",
          "type": "address"
        },
        {
          "indexed": false,
          "internalType": "address",
          "name": "manager",
          "type": "address"
        },
        {
          "indexed": false,
          "internalType": "bytes32",
          "name": "assetKey",
          "type": "bytes32"
        }
      ],
      "name": "AssetRemoved",
      "type": "event"
    },
    {
      "anonymous": false,
      "inputs": [
        {
          "indexed": false,
          "internalType": "address",
          "name": "fundAddress",
          "type": "address"
        },
        {
          "indexed": false,
          "internalType": "address",
          "name": "manager",
          "type": "address"
        },
        {
          "indexed": false,
          "internalType": "bytes32",
          "name": "sourceKey",
          "type": "bytes32"
        },
        {
          "indexed": false,
          "internalType": "uint256",
          "name": "sourceAmount",
          "type": "uint256"
        },
        {
          "indexed": false,
          "internalType": "bytes32",
          "name": "destinationKey",
          "type": "bytes32"
        },
        {
          "indexed": false,
          "internalType": "uint256",
          "name": "destinationAmount",
          "type": "uint256"
        },
        {
          "indexed": false,
          "internalType": "uint256",
          "name": "time",
          "type": "uint256"
        }
      ],
      "name": "Exchange",
      "type": "event"
    },
    {
      "anonymous": false,
      "inputs": [
        {
          "indexed": false,
          "internalType": "uint256",
          "name": "newNumerator",
          "type": "uint256"
        },
        {
          "indexed": false,
          "internalType": "uint256",
          "name": "announcedFeeActivationTime",
          "type": "uint256"
        }
      ],
      "name": "ManagerFeeIncreaseAnnounced",
      "type": "event"
    },
    {
      "anonymous": false,
      "inputs": [],
      "name": "ManagerFeeIncreaseRenounced",
      "type": "event"
    },
    {
      "anonymous": false,
      "inputs": [
        {
          "indexed": false,
          "internalType": "address",
          "name": "fundAddress",
          "type": "address"
        },
        {
          "indexed": false,
          "internalType": "address",
          "name": "manager",
          "type": "address"
        },
        {
          "indexed": false,
          "internalType": "uint256",
          "name": "numerator",
          "type": "uint256"
        },
        {
          "indexed": false,
          "internalType": "uint256",
          "name": "denominator",
          "type": "uint256"
        }
      ],
      "name": "ManagerFeeSet",
      "type": "event"
    },
    {
      "anonymous": false,
      "inputs": [
        {
          "indexed": false,
          "internalType": "address",
          "name": "newManager",
          "type": "address"
        },
        {
          "indexed": false,
          "internalType": "string",
          "name": "newManagerName",
          "type": "string"
        }
      ],
      "name": "ManagerUpdated",
      "type": "event"
    },
    {
      "inputs": [
        {
          "internalType": "address",
          "name": "member",
          "type": "address"
        }
      ],
      "name": "addMember",
      "outputs": [],
      "stateMutability": "nonpayable",
      "type": "function"
    },
    {
      "inputs": [
        {
          "internalType": "address[]",
          "name": "members",
          "type": "address[]"
        }
      ],
      "name": "addMembers",
      "outputs": [],
      "stateMutability": "nonpayable",
      "type": "function"
    },
    {
      "inputs": [
        {
          "internalType": "bytes32",
          "name": "key",
          "type": "bytes32"
        }
      ],
      "name": "addToSupportedAssets",
      "outputs": [],
      "stateMutability": "nonpayable",
      "type": "function"
    },
    {
      "inputs": [],
      "name": "addressResolver",
      "outputs": [
        {
          "internalType": "contract IAddressResolver",
          "name": "",
          "type": "address"
        }
      ],
      "stateMutability": "view",
      "type": "function"
    },
    {
      "inputs": [
        {
          "internalType": "address",
          "name": "pool",
          "type": "address"
        },
        {
          "internalType": "uint256",
          "name": "numerator",
          "type": "uint256"
        }
      ],
      "name": "announceManagerFeeIncrease",
      "outputs": [],
      "stateMutability": "nonpayable",
      "type": "function"
    },
    {
      "inputs": [],
      "name": "announcedFeeIncreaseNumerator",
      "outputs": [
        {
          "internalType": "uint256",
          "name": "",
          "type": "uint256"
        }
      ],
      "stateMutability": "view",
      "type": "function"
    },
    {
      "inputs": [],
      "name": "announcedFeeIncreaseTimestamp",
      "outputs": [
        {
          "internalType": "uint256",
          "name": "",
          "type": "uint256"
        }
      ],
      "stateMutability": "view",
      "type": "function"
    },
    {
      "inputs": [
        {
          "internalType": "bytes32",
          "name": "",
          "type": "bytes32"
        }
      ],
      "name": "assetPosition",
      "outputs": [
        {
          "internalType": "uint256",
          "name": "",
          "type": "uint256"
        }
      ],
      "stateMutability": "view",
      "type": "function"
    },
    {
      "inputs": [
        {
          "internalType": "bytes32",
          "name": "key",
          "type": "bytes32"
        }
      ],
      "name": "assetValue",
      "outputs": [
        {
          "internalType": "uint256",
          "name": "",
          "type": "uint256"
        }
      ],
      "stateMutability": "view",
      "type": "function"
    },
    {
      "inputs": [
        {
          "internalType": "address",
          "name": "newManager",
          "type": "address"
        },
        {
          "internalType": "string",
          "name": "newManagerName",
          "type": "string"
        }
      ],
      "name": "changeManager",
      "outputs": [],
      "stateMutability": "nonpayable",
      "type": "function"
    },
    {
      "inputs": [
        {
          "internalType": "address",
          "name": "pool",
          "type": "address"
        }
      ],
      "name": "commitManagerFeeIncrease",
      "outputs": [],
      "stateMutability": "nonpayable",
      "type": "function"
    },
    {
      "inputs": [
        {
          "internalType": "bytes32",
          "name": "data",
          "type": "bytes32"
        }
      ],
      "name": "convert32toAddress",
      "outputs": [
        {
          "internalType": "address",
          "name": "o",
          "type": "address"
        }
      ],
      "stateMutability": "pure",
      "type": "function"
    },
    {
      "inputs": [
        {
          "internalType": "bytes32",
          "name": "sourceKey",
          "type": "bytes32"
        },
        {
          "internalType": "uint256",
          "name": "sourceAmount",
          "type": "uint256"
        },
        {
          "internalType": "bytes32",
          "name": "destinationKey",
          "type": "bytes32"
        }
      ],
      "name": "exchange",
      "outputs": [],
      "stateMutability": "nonpayable",
      "type": "function"
    },
    {
      "inputs": [
        {
          "internalType": "address",
          "name": "to",
          "type": "address"
        },
        {
          "internalType": "bytes",
          "name": "data",
          "type": "bytes"
        }
      ],
      "name": "execTransaction",
      "outputs": [
        {
          "internalType": "bool",
          "name": "",
          "type": "bool"
        }
      ],
      "stateMutability": "nonpayable",
      "type": "function"
    },
    {
      "inputs": [],
      "name": "factory",
      "outputs": [
        {
          "internalType": "address",
          "name": "",
          "type": "address"
        }
      ],
      "stateMutability": "view",
      "type": "function"
    },
    {
      "inputs": [
        {
          "internalType": "bytes",
          "name": "data",
          "type": "bytes"
        },
        {
          "internalType": "uint8",
          "name": "inputNum",
          "type": "uint8"
        },
        {
          "internalType": "uint8",
          "name": "arrayIndex",
          "type": "uint8"
        }
      ],
      "name": "getArrayIndex",
      "outputs": [
        {
          "internalType": "bytes32",
          "name": "",
          "type": "bytes32"
        }
      ],
      "stateMutability": "pure",
      "type": "function"
    },
    {
      "inputs": [
        {
          "internalType": "bytes",
          "name": "data",
          "type": "bytes"
        },
        {
          "internalType": "uint8",
          "name": "inputNum",
          "type": "uint8"
        }
      ],
      "name": "getArrayLast",
      "outputs": [
        {
          "internalType": "bytes32",
          "name": "",
          "type": "bytes32"
        }
      ],
      "stateMutability": "pure",
      "type": "function"
    },
    {
      "inputs": [
        {
          "internalType": "bytes",
          "name": "data",
          "type": "bytes"
        },
        {
          "internalType": "uint8",
          "name": "inputNum",
          "type": "uint8"
        }
      ],
      "name": "getArrayLength",
      "outputs": [
        {
          "internalType": "uint256",
          "name": "",
          "type": "uint256"
        }
      ],
      "stateMutability": "pure",
      "type": "function"
    },
    {
      "inputs": [
        {
          "internalType": "bytes32",
          "name": "key",
          "type": "bytes32"
        }
      ],
      "name": "getAssetProxy",
      "outputs": [
        {
          "internalType": "address",
          "name": "",
          "type": "address"
        }
      ],
      "stateMutability": "view",
      "type": "function"
    },
    {
      "inputs": [],
      "name": "getFundComposition",
      "outputs": [
        {
          "internalType": "bytes32[]",
          "name": "",
          "type": "bytes32[]"
        },
        {
          "internalType": "uint256[]",
          "name": "",
          "type": "uint256[]"
        },
        {
          "internalType": "uint256[]",
          "name": "",
          "type": "uint256[]"
        }
      ],
      "stateMutability": "view",
      "type": "function"
    },
    {
      "inputs": [
        {
          "internalType": "bytes",
          "name": "data",
          "type": "bytes"
        },
        {
          "internalType": "uint8",
          "name": "inputNum",
          "type": "uint8"
        }
      ],
      "name": "getInput",
      "outputs": [
        {
          "internalType": "bytes32",
          "name": "",
          "type": "bytes32"
        }
      ],
      "stateMutability": "pure",
      "type": "function"
    },
    {
      "inputs": [
        {
          "internalType": "address",
          "name": "pool",
          "type": "address"
        }
      ],
      "name": "getManagerFee",
      "outputs": [
        {
          "internalType": "uint256",
          "name": "",
          "type": "uint256"
        },
        {
          "internalType": "uint256",
          "name": "",
          "type": "uint256"
        }
      ],
      "stateMutability": "view",
      "type": "function"
    },
    {
      "inputs": [],
      "name": "getManagerFeeIncreaseInfo",
      "outputs": [
        {
          "internalType": "uint256",
          "name": "",
          "type": "uint256"
        },
        {
          "internalType": "uint256",
          "name": "",
          "type": "uint256"
        }
      ],
      "stateMutability": "view",
      "type": "function"
    },
    {
      "inputs": [],
      "name": "getMembers",
      "outputs": [
        {
          "internalType": "address[]",
          "name": "",
          "type": "address[]"
        }
      ],
      "stateMutability": "view",
      "type": "function"
    },
    {
      "inputs": [
        {
          "internalType": "bytes",
          "name": "data",
          "type": "bytes"
        }
      ],
      "name": "getMethod",
      "outputs": [
        {
          "internalType": "bytes4",
          "name": "",
          "type": "bytes4"
        }
      ],
      "stateMutability": "pure",
      "type": "function"
    },
    {
      "inputs": [],
      "name": "getSupportedAssets",
      "outputs": [
        {
          "internalType": "bytes32[]",
          "name": "",
          "type": "bytes32[]"
        }
      ],
      "stateMutability": "view",
      "type": "function"
    },
    {
      "inputs": [],
      "name": "getSuspendedAssets",
      "outputs": [
        {
          "internalType": "bytes32[]",
          "name": "",
          "type": "bytes32[]"
        },
        {
          "internalType": "bool[]",
          "name": "",
          "type": "bool[]"
        }
      ],
      "stateMutability": "view",
      "type": "function"
    },
    {
      "inputs": [
        {
          "internalType": "address",
          "name": "_factory",
          "type": "address"
        },
        {
          "internalType": "address",
          "name": "_manager",
          "type": "address"
        },
        {
          "internalType": "string",
          "name": "_managerName",
          "type": "string"
        },
        {
          "internalType": "contract IAddressResolver",
          "name": "_addressResolver",
          "type": "address"
        },
        {
          "internalType": "bytes32[]",
          "name": "_supportedAssets",
          "type": "bytes32[]"
        }
      ],
      "name": "initialize",
      "outputs": [],
      "stateMutability": "nonpayable",
      "type": "function"
    },
    {
      "inputs": [
        {
          "internalType": "bytes32",
          "name": "key",
          "type": "bytes32"
        }
      ],
      "name": "isAssetSupported",
      "outputs": [
        {
          "internalType": "bool",
          "name": "",
          "type": "bool"
        }
      ],
      "stateMutability": "view",
      "type": "function"
    },
    {
      "inputs": [
        {
          "internalType": "address",
          "name": "member",
          "type": "address"
        }
      ],
      "name": "isMemberAllowed",
      "outputs": [
        {
          "internalType": "bool",
          "name": "",
          "type": "bool"
        }
      ],
      "stateMutability": "view",
      "type": "function"
    },
    {
      "inputs": [],
      "name": "manager",
      "outputs": [
        {
          "internalType": "address",
          "name": "",
          "type": "address"
        }
      ],
      "stateMutability": "view",
      "type": "function"
    },
    {
      "inputs": [],
      "name": "managerName",
      "outputs": [
        {
          "internalType": "string",
          "name": "",
          "type": "string"
        }
      ],
      "stateMutability": "view",
      "type": "function"
    },
    {
      "inputs": [],
      "name": "numberOfMembers",
      "outputs": [
        {
          "internalType": "uint256",
          "name": "",
          "type": "uint256"
        }
      ],
      "stateMutability": "view",
      "type": "function"
    },
    {
      "inputs": [],
      "name": "numberOfSupportedAssets",
      "outputs": [
        {
          "internalType": "uint256",
          "name": "",
          "type": "uint256"
        }
      ],
      "stateMutability": "view",
      "type": "function"
    },
    {
      "inputs": [
        {
          "internalType": "bytes32",
          "name": "",
          "type": "bytes32"
        }
      ],
      "name": "persistentAsset",
      "outputs": [
        {
          "internalType": "bool",
          "name": "",
          "type": "bool"
        }
      ],
      "stateMutability": "view",
      "type": "function"
    },
    {
      "inputs": [
        {
          "internalType": "bytes",
          "name": "data",
          "type": "bytes"
        },
        {
          "internalType": "uint256",
          "name": "offset",
          "type": "uint256"
        },
        {
          "internalType": "uint256",
          "name": "length",
          "type": "uint256"
        }
      ],
      "name": "read32",
      "outputs": [
        {
          "internalType": "bytes32",
          "name": "o",
          "type": "bytes32"
        }
      ],
      "stateMutability": "pure",
      "type": "function"
    },
    {
      "inputs": [
        {
          "internalType": "bytes",
          "name": "data",
          "type": "bytes"
        },
        {
          "internalType": "uint256",
          "name": "offset",
          "type": "uint256"
        },
        {
          "internalType": "uint256",
          "name": "length",
          "type": "uint256"
        }
      ],
      "name": "read4left",
      "outputs": [
        {
          "internalType": "bytes4",
          "name": "o",
          "type": "bytes4"
        }
      ],
      "stateMutability": "pure",
      "type": "function"
    },
    {
      "inputs": [
        {
          "internalType": "bytes32",
          "name": "key",
          "type": "bytes32"
        }
      ],
      "name": "removeFromSupportedAssets",
      "outputs": [],
      "stateMutability": "nonpayable",
      "type": "function"
    },
    {
      "inputs": [
        {
          "internalType": "address",
          "name": "member",
          "type": "address"
        }
      ],
      "name": "removeMember",
      "outputs": [],
      "stateMutability": "nonpayable",
      "type": "function"
    },
    {
      "inputs": [
        {
          "internalType": "address[]",
          "name": "members",
          "type": "address[]"
        }
      ],
      "name": "removeMembers",
      "outputs": [],
      "stateMutability": "nonpayable",
      "type": "function"
    },
    {
      "inputs": [],
      "name": "removeTrader",
      "outputs": [],
      "stateMutability": "nonpayable",
      "type": "function"
    },
    {
      "inputs": [],
      "name": "renounceManagerFeeIncrease",
      "outputs": [],
      "stateMutability": "nonpayable",
      "type": "function"
    },
    {
      "inputs": [
        {
          "internalType": "address",
          "name": "_addressResolver",
          "type": "address"
        }
      ],
      "name": "setAddressResolver",
      "outputs": [],
      "stateMutability": "nonpayable",
      "type": "function"
    },
    {
      "inputs": [
        {
          "internalType": "address",
          "name": "newTrader",
          "type": "address"
        }
      ],
      "name": "setTrader",
      "outputs": [],
      "stateMutability": "nonpayable",
      "type": "function"
    },
    {
      "inputs": [
        {
          "internalType": "uint256",
          "name": "",
          "type": "uint256"
        }
      ],
      "name": "supportedAssets",
      "outputs": [
        {
          "internalType": "bytes32",
          "name": "",
          "type": "bytes32"
        }
      ],
      "stateMutability": "view",
      "type": "function"
    },
    {
      "inputs": [],
      "name": "trader",
      "outputs": [
        {
          "internalType": "address",
          "name": "",
          "type": "address"
        }
      ],
      "stateMutability": "view",
      "type": "function"
    },
    {
      "inputs": [
        {
          "internalType": "bytes32",
          "name": "key",
          "type": "bytes32"
        }
      ],
      "name": "validateAsset",
      "outputs": [
        {
          "internalType": "bool",
          "name": "",
          "type": "bool"
        }
      ],
      "stateMutability": "view",
      "type": "function"
    }
  ],
  "bytecode": "0x608060405234801561001057600080fd5b50613ee3806100206000396000f3fe608060405234801561001057600080fd5b50600436106102955760003560e01c806382f86acc11610167578063c68dbb37116100ce578063e5ea775911610087578063e5ea775914610def578063eb94917d14610e0c578063ed5b165d14610f5c578063ee52a2f314610f64578063f09d14d714610f8d578063fed4416a1461107357610295565b8063c68dbb3714610cc1578063ca6d56dc14610cde578063d44fa33e14610d04578063d78d7c2e14610d21578063db896b5714610d3e578063e5406dbf14610de757610295565b8063a30e3fa911610120578063a30e3fa914610bb9578063a6bc18f914610bc1578063b8bd81e614610be7578063bbbf725b14610bef578063c3c6279f14610c15578063c45a015514610cb957610295565b806382f86acc146109d95780638f32343914610a82578063936553c414610a8a578063969eed2714610a92578063998546e314610ab85780639eab525314610b6157610295565b806346ee84b01161020b57806367079749116101c457806367079749146108175780636708f5d7146108485780636f4d469b146108745780637ae7cfb5146109155780637b4d0c63146109c95780637c8afd51146109d157610295565b806346ee84b014610598578063481c6a7514610639578063522136631461064157806353d9133e146106f5578063568b5a2f146107125780635f6eceab146107d857610295565b8063143023871161025d57806314302387146103db5780631758078b146104015780631eba30771461040957806321f8c984146104265780633ded6530146104c757806341dc16c3146104e457610295565b8063023f21de1461029a5780630499123f146102b957806305a2ee2a146102e857806309ff5c7d1461030c5780630b1ca49a146103b5575b600080fd5b6102b7600480360360208110156102b057600080fd5b50356110f0565b005b6102d6600480360360208110156102cf57600080fd5b50356113b2565b60408051918252519081900360200190f35b6102f061154f565b604080516001600160a01b039092168252519081900360200190f35b6102d66004803603604081101561032257600080fd5b810190602081018135600160201b81111561033c57600080fd5b82018360208201111561034e57600080fd5b803590602001918460018302840111600160201b8311171561036f57600080fd5b91908080601f0160208091040260200160405190810160405280939291908181526020018383808284376000920191909152509295505050903560ff16915061155e9050565b6102b7600480360360208110156103cb57600080fd5b50356001600160a01b03166115f1565b6102b7600480360360208110156103f157600080fd5b50356001600160a01b031661165a565b6102f06116cb565b6102f06004803603602081101561041f57600080fd5b50356116da565b61042e6116dd565b604051808060200180602001838103835285818151815260200191508051906020019060200280838360005b8381101561047257818101518382015260200161045a565b50505050905001838103825284818151815260200191508051906020019060200280838360005b838110156104b1578181015183820152602001610499565b5050505090500194505050505060405180910390f35b6102f0600480360360208110156104dd57600080fd5b50356118ec565b6102d6600480360360608110156104fa57600080fd5b810190602081018135600160201b81111561051457600080fd5b82018360208201111561052657600080fd5b803590602001918460018302840111600160201b8311171561054757600080fd5b91908080601f0160208091040260200160405190810160405280939291908181526020018383808284376000920191909152509295505060ff8335811694506020909301359092169150611aef9050565b6102b7600480360360208110156105ae57600080fd5b810190602081018135600160201b8111156105c857600080fd5b8201836020820111156105da57600080fd5b803590602001918460208302840111600160201b831117156105fb57600080fd5b919080806020026020016040519081016040528093929190818152602001838360200280828437600092019190915250929550611bd7945050505050565b6102f0611c7e565b6102b76004803603604081101561065757600080fd5b6001600160a01b038235169190810190604081016020820135600160201b81111561068157600080fd5b82018360208201111561069357600080fd5b803590602001918460018302840111600160201b831117156106b457600080fd5b91908080601f016020809104026020016040519081016040528093929190818152602001838380828437600092019190915250929550611c8d945050505050565b6102b76004803603602081101561070b57600080fd5b5035611db8565b6107bb6004803603606081101561072857600080fd5b810190602081018135600160201b81111561074257600080fd5b82018360208201111561075457600080fd5b803590602001918460018302840111600160201b8311171561077557600080fd5b91908080601f0160208091040260200160405190810160405280939291908181526020018383808284376000920191909152509295505082359350505060200135611e2e565b604080516001600160e01b03199092168252519081900360200190f35b6107fe600480360360208110156107ee57600080fd5b50356001600160a01b0316611eaf565b6040805192835260208301919091528051918290030190f35b6108346004803603602081101561082d57600080fd5b5035611f39565b604080519115158252519081900360200190f35b6102b76004803603604081101561085e57600080fd5b506001600160a01b038135169060200135611f4e565b6102b76004803603602081101561088a57600080fd5b810190602081018135600160201b8111156108a457600080fd5b8201836020820111156108b657600080fd5b803590602001918460208302840111600160201b831117156108d757600080fd5b919080806020026020016040519081016040528093929190818152602001838360200280828437600092019190915250929550612189945050505050565b6108346004803603604081101561092b57600080fd5b6001600160a01b038235169190810190604081016020820135600160201b81111561095557600080fd5b82018360208201111561096757600080fd5b803590602001918460018302840111600160201b8311171561098857600080fd5b91908080601f016020809104026020016040519081016040528093929190818152602001838380828437600092019190915250929550612220945050505050565b6102d6612599565b6102b761259f565b6102d6600480360360408110156109ef57600080fd5b810190602081018135600160201b811115610a0957600080fd5b820183602082011115610a1b57600080fd5b803590602001918460018302840111600160201b83111715610a3c57600080fd5b91908080601f0160208091040260200160405190810160405280939291908181526020018383808284376000920191909152509295505050903560ff1691506125ff9050565b6102d6612616565b6102d661261c565b6102b760048036036020811015610aa857600080fd5b50356001600160a01b0316612622565b6102d660048036036040811015610ace57600080fd5b810190602081018135600160201b811115610ae857600080fd5b820183602082011115610afa57600080fd5b803590602001918460018302840111600160201b83111715610b1b57600080fd5b91908080601f0160208091040260200160405190810160405280939291908181526020018383808284376000920191909152509295505050903560ff1691506126e09050565b610b69612711565b60408051602080825283518183015283519192839290830191858101910280838360005b83811015610ba5578181015183820152602001610b8d565b505050509050019250505060405180910390f35b6102d6612773565b6102b760048036036020811015610bd757600080fd5b50356001600160a01b0316612779565b6102b76127e9565b61083460048036036020811015610c0557600080fd5b50356001600160a01b031661286c565b6107bb60048036036020811015610c2b57600080fd5b810190602081018135600160201b811115610c4557600080fd5b820183602082011115610c5757600080fd5b803590602001918460018302840111600160201b83111715610c7857600080fd5b91908080601f016020809104026020016040519081016040528093929190818152602001838380828437600092019190915250929550612889945050505050565b6102f0612898565b6102d660048036036020811015610cd757600080fd5b50356128a7565b6102b760048036036020811015610cf457600080fd5b50356001600160a01b03166128c5565b61083460048036036020811015610d1a57600080fd5b503561292f565b6102d660048036036020811015610d3757600080fd5b5035612943565b6102d660048036036060811015610d5457600080fd5b810190602081018135600160201b811115610d6e57600080fd5b820183602082011115610d8057600080fd5b803590602001918460018302840111600160201b83111715610da157600080fd5b91908080601f0160208091040260200160405190810160405280939291908181526020018383808284376000920191909152509295505082359350505060200135612955565b610b696129d1565b61083460048036036020811015610e0557600080fd5b5035612a28565b6102b7600480360360a0811015610e2257600080fd5b6001600160a01b038235811692602081013590911691810190606081016040820135600160201b811115610e5557600080fd5b820183602082011115610e6757600080fd5b803590602001918460018302840111600160201b83111715610e8857600080fd5b91908080601f01602080910402602001604051908101604052809392919081815260200183838082843760009201919091525092956001600160a01b03853516959094909350604081019250602001359050600160201b811115610eeb57600080fd5b820183602082011115610efd57600080fd5b803590602001918460208302840111600160201b83111715610f1e57600080fd5b919080806020026020016040519081016040528093929190818152602001838360200280828437600092019190915250929550612bcb945050505050565b6107fe612d2f565b6102b760048036036060811015610f7a57600080fd5b5080359060208101359060400135612d39565b610f956130c5565b60405180806020018060200180602001848103845287818151815260200191508051906020019060200280838360005b83811015610fdd578181015183820152602001610fc5565b50505050905001848103835286818151815260200191508051906020019060200280838360005b8381101561101c578181015183820152602001611004565b50505050905001848103825285818151815260200191508051906020019060200280838360005b8381101561105b578181015183820152602001611043565b50505050905001965050505050505060405180910390f35b61107b6133a8565b6040805160208082528351818301528351919283929083019185019080838360005b838110156110b557818101518382015260200161109d565b50505050905090810190601f1680156110e25780820380516001836020036101000a031916815260200191505b509250505060405180910390f35b603960009054906101000a90046001600160a01b03166001600160a01b0316638da5cb5b6040518163ffffffff1660e01b815260040160206040518083038186803b15801561113e57600080fd5b505afa158015611152573d6000803e3d6000fd5b505050506040513d602081101561116857600080fd5b50516001600160a01b03163314806111985750611183611c7e565b6001600160a01b0316336001600160a01b0316145b806111bb57506111a66116cb565b6001600160a01b0316336001600160a01b0316145b61120c576040805162461bcd60e51b815260206004820152601b60248201527f6f6e6c79206d616e616765722c20747261646572206f722044414f0000000000604482015290519081900360640190fd5b6112158161292f565b61125c576040805162461bcd60e51b8152602060048201526013602482015272185cdcd95d081b9bdd081cdd5c1c1bdc9d1959606a1b604482015290519081900360640190fd5b6000818152603c602052604090205460ff16156112c0576040805162461bcd60e51b815260206004820152601f60248201527f63616e6e6f742072656d6f76652070657273697374656e742061737365747300604482015290519081900360640190fd5b6112c981612a28565b1515600114156113a6576112dc816118ec565b6001600160a01b03166370a08231306040518263ffffffff1660e01b815260040180826001600160a01b0316815260200191505060206040518083038186803b15801561132857600080fd5b505afa15801561133c573d6000803e3d6000fd5b505050506040513d602081101561135257600080fd5b5051156113a6576040805162461bcd60e51b815260206004820152601d60248201527f63616e6e6f742072656d6f7665206e6f6e2d656d707479206173736574000000604482015290519081900360640190fd5b6113af81613435565b50565b603854604080516321f8a72160e01b81526c45786368616e6765526174657360981b600482015290516000926001600160a01b0316916321f8a721916024808301926020929190829003018186803b15801561140d57600080fd5b505afa158015611421573d6000803e3d6000fd5b505050506040513d602081101561143757600080fd5b50516001600160a01b031663654a60ac83611451816118ec565b6001600160a01b03166370a08231306040518263ffffffff1660e01b815260040180826001600160a01b0316815260200191505060206040518083038186803b15801561149d57600080fd5b505afa1580156114b1573d6000803e3d6000fd5b505050506040513d60208110156114c757600080fd5b5051604080516001600160e01b031960e086901b16815260048101939093526024830191909152631cd554d160e21b6044830152516064808301926020929190829003018186803b15801561151b57600080fd5b505afa15801561152f573d6000803e3d6000fd5b505050506040513d602081101561154557600080fd5b505190505b919050565b6038546001600160a01b031681565b600080611576848460200260040160ff166020612955565b9050600061158985600484016020612955565b9050806115d2576040805162461bcd60e51b8152602060048201526012602482015271696e707574206973206e6f7420617272617960701b604482015290519081900360640190fd5b6115e6856020808402850160040190612955565b925050505b92915050565b6033546001600160a01b0316331461163f576040805162461bcd60e51b815260206004820152600c60248201526b37b7363c9036b0b730b3b2b960a11b604482015290519081900360640190fd5b6116488161286c565b611651576113af565b6113af81613535565b6039546001600160a01b031633146116a9576040805162461bcd60e51b815260206004820152600d60248201526c3737903832b936b4b9b9b4b7b760991b604482015290519081900360640190fd5b603880546001600160a01b0319166001600160a01b0392909216919091179055565b6037546001600160a01b031690565b90565b603a546060908190818167ffffffffffffffff811180156116fd57600080fd5b50604051908082528060200260200182016040528015611727578160200160208202803683370190505b50905060608267ffffffffffffffff8111801561174357600080fd5b5060405190808252806020026020018201604052801561176d578160200160208202803683370190505b50603854604080516321f8a72160e01b81526b53797374656d53746174757360a01b600482015290519293506000926001600160a01b03909216916321f8a72191602480820192602092909190829003018186803b1580156117ce57600080fd5b505afa1580156117e2573d6000803e3d6000fd5b505050506040513d60208110156117f857600080fd5b5051905060005b848110156118e0576000603a828154811061181657fe5b906000526020600020015490508085838151811061183057fe5b602002602001018181525050826001600160a01b03166342a28e21826040518263ffffffff1660e01b81526004018082815260200191505060006040518083038186803b15801561188057600080fd5b505afa925050508015611891575060015b6118b85760018483815181106118a357fe5b911515602092830291909101909101526118d7565b60008483815181106118c657fe5b911515602092830291909101909101525b506001016117ff565b50919450925050509091565b603854604080516321f8a72160e01b8152680a6f2dce8d0cae8d2f60bb1b6004820152905160009283926001600160a01b03909116916321f8a72191602480820192602092909190829003018186803b15801561194857600080fd5b505afa15801561195c573d6000803e3d6000fd5b505050506040513d602081101561197257600080fd5b505160408051633260803960e01b81526004810186905290516001600160a01b0390921691633260803991602480820192602092909190829003018186803b1580156119bd57600080fd5b505afa1580156119d1573d6000803e3d6000fd5b505050506040513d60208110156119e757600080fd5b505190506001600160a01b038116611a34576040805162461bcd60e51b815260206004820152600b60248201526a696e76616c6964206b657960a81b604482015290519081900360640190fd5b6000816001600160a01b031663ec5568896040518163ffffffff1660e01b815260040160206040518083038186803b158015611a6f57600080fd5b505afa158015611a83573d6000803e3d6000fd5b505050506040513d6020811015611a9957600080fd5b505190506001600160a01b038116611ae8576040805162461bcd60e51b815260206004820152600d60248201526c696e76616c69642070726f787960981b604482015290519081900360640190fd5b9392505050565b600080611b07858560200260040160ff166020612955565b90506000611b1a86600484016020612955565b905080611b63576040805162461bcd60e51b8152602060048201526012602482015271696e707574206973206e6f7420617272617960701b604482015290519081900360640190fd5b60ff84168111611bb3576040805162461bcd60e51b815260206004820152601660248201527534b73b30b634b21030b93930bc903837b9b4ba34b7b760511b604482015290519081900360640190fd5b611bcd866020600160ff8816018102850160040190612955565b9695505050505050565b6033546001600160a01b03163314611c25576040805162461bcd60e51b815260206004820152600c60248201526b37b7363c9036b0b730b3b2b960a11b604482015290519081900360640190fd5b60005b8151811015611c7a57611c4d828281518110611c4057fe5b602002602001015161286c565b611c5657611c72565b611c72828281518110611c6557fe5b6020026020010151613535565b600101611c28565b5050565b6033546001600160a01b031690565b6033546001600160a01b03163314611cdb576040805162461bcd60e51b815260206004820152600c60248201526b37b7363c9036b0b730b3b2b960a11b604482015290519081900360640190fd5b603380546001600160a01b0319166001600160a01b0384161790558051611d09906034906020840190613dec565b507f6ed15082ad038474841528b5badca105106d4463e44b5d434130dfb299aa3669828260405180836001600160a01b0316815260200180602001828103825283818151815260200191508051906020019080838360005b83811015611d79578181015183820152602001611d61565b50505050905090810190601f168015611da65780820380516001836020036101000a031916815260200191505b50935050505060405180910390a15050565b6033546001600160a01b0316331480611ddb57506037546001600160a01b031633145b611e25576040805162461bcd60e51b815260206004820152601660248201527537b7363c9036b0b730b3b2b91037b9103a3930b232b960511b604482015290519081900360640190fd5b6113af8161362e565b600081830184511015611e88576040805162461bcd60e51b815260206004820152601b60248201527f52656164696e67206279746573206f7574206f6620626f756e64730000000000604482015290519081900360640190fd5b826020018401519050816004038015611ea7576008810260020a820491505b509392505050565b60395460408051635bd2a29360e11b81526001600160a01b0384811660048301528251600094859492169263b7a54526926024808301939192829003018186803b158015611efc57600080fd5b505afa158015611f10573d6000803e3d6000fd5b505050506040513d6040811015611f2657600080fd5b5080516020909101519092509050915091565b603c6020526000908152604090205460ff1681565b6033546001600160a01b03163314611f9c576040805162461bcd60e51b815260206004820152600c60248201526b37b7363c9036b0b730b3b2b960a11b604482015290519081900360640190fd5b60395460408051635c9bfc2b60e01b815290516000926001600160a01b031691635c9bfc2b916004808301926020929190829003018186803b158015611fe157600080fd5b505afa158015611ff5573d6000803e3d6000fd5b505050506040513d602081101561200b57600080fd5b5051905060008061201b85611eaf565b909250905080841115612068576040805162461bcd60e51b815260206004820152601060248201526f34b73b30b634b210333930b1ba34b7b760811b604482015290519081900360640190fd5b6120728284613839565b8411156120c6576040805162461bcd60e51b815260206004820152601960248201527f657863656564656420616c6c6f77656420696e63726561736500000000000000604482015290519081900360640190fd5b6039546040805163ebee461d60e01b815290516000926001600160a01b03169163ebee461d916004808301926020929190829003018186803b15801561210b57600080fd5b505afa15801561211f573d6000803e3d6000fd5b505050506040513d602081101561213557600080fd5b5051603d869055428101603e81905560408051888152602081019290925280519293507f4db9119741646c419f1ceccdf112b5b9a9b4516355e742e1fa9c479f4dec98da92918290030190a1505050505050565b6033546001600160a01b031633146121d7576040805162461bcd60e51b815260206004820152600c60248201526b37b7363c9036b0b730b3b2b960a11b604482015290519081900360640190fd5b60005b8151811015611c7a576121f2828281518110611c4057fe5b156121fc57612218565b61221882828151811061220b57fe5b6020026020010151613893565b6001016121da565b6033546000906001600160a01b031633148061224657506037546001600160a01b031633145b612290576040805162461bcd60e51b815260206004820152601660248201527537b7363c9036b0b730b3b2b91037b9103a3930b232b960511b604482015290519081900360640190fd5b60395460408051631c09fa9b60e21b81526001600160a01b03868116600483015291516000939290921691637027ea6c91602480820192602092909190829003018186803b1580156122e157600080fd5b505afa1580156122f5573d6000803e3d6000fd5b505050506040513d602081101561230b57600080fd5b505190506001600160a01b038116612360576040805162461bcd60e51b815260206004820152601360248201527234b73b30b634b2103232b9ba34b730ba34b7b760691b604482015290519081900360640190fd5b600080600080846001600160a01b031663e23ff43730896040518363ffffffff1660e01b815260040180836001600160a01b0316815260200180602001828103825283818151815260200191508051906020019080838360005b838110156123d25781810151838201526020016123ba565b50505050905090810190601f1680156123ff5780820380516001836020036101000a031916815260200191505b50935050505060806040518083038186803b15801561241d57600080fd5b505afa158015612431573d6000803e3d6000fd5b505050506040513d608081101561244757600080fd5b5080516020820151604083015160609093015191965094509092509050600260ff8516141561248b5761247d888484848b6138ef565b6001955050505050506115eb565b6000886001600160a01b0316886040518082805190602001908083835b602083106124c75780518252601f1990920191602091820191016124a8565b6001836020036101000a0380198251168184511680821785525050505050509050019150506000604051808303816000865af19150503d8060008114612529576040519150601f19603f3d011682016040523d82523d6000602084013e61252e565b606091505b509091505060018115151461258a576040805162461bcd60e51b815260206004820152601a60248201527f6661696c656420746f2065786563757465207468652063616c6c000000000000604482015290519081900360640190fd5b50600198975050505050505050565b603e5481565b6033546001600160a01b031633146125ed576040805162461bcd60e51b815260206004820152600c60248201526b37b7363c9036b0b730b3b2b960a11b604482015290519081900360640190fd5b603780546001600160a01b0319169055565b6000611ae8838360200260040160ff166020612955565b603d5481565b603a5490565b6033546001600160a01b03163314612670576040805162461bcd60e51b815260206004820152600c60248201526b37b7363c9036b0b730b3b2b960a11b604482015290519081900360640190fd5b603e544210156126c7576040805162461bcd60e51b815260206004820152601960248201527f66656520696e6372656173652064656c61792061637469766500000000000000604482015290519081900360640190fd5b6126d381603d54613b2a565b506000603d819055603e55565b6000806126f8848460200260040160ff166020612955565b905061270984600483016020612955565b949350505050565b6060603580548060200260200160405190810160405280929190818152602001828054801561276957602002820191906000526020600020905b81546001600160a01b0316815260019091019060200180831161274b575b5050505050905090565b60355490565b6033546001600160a01b031633146127c7576040805162461bcd60e51b815260206004820152600c60248201526b37b7363c9036b0b730b3b2b960a11b604482015290519081900360640190fd5b603780546001600160a01b0319166001600160a01b0392909216919091179055565b6033546001600160a01b03163314612837576040805162461bcd60e51b815260206004820152600c60248201526b37b7363c9036b0b730b3b2b960a11b604482015290519081900360640190fd5b6000603d819055603e8190556040517fc6f04bf43cbdf1ba5d51b4afa160bb3c7e13858b1409aa32868b239bb2f8d8499190a1565b6001600160a01b0316600090815260366020526040902054151590565b60006115eb8260006004611e2e565b6039546001600160a01b031681565b603a81815481106128b457fe5b600091825260209091200154905081565b6033546001600160a01b03163314612913576040805162461bcd60e51b815260206004820152600c60248201526b37b7363c9036b0b730b3b2b960a11b604482015290519081900360640190fd5b61291c8161286c565b15612926576113af565b6113af81613893565b6000908152603b6020526040902054151590565b603b6020526000908152604090205481565b6000818301845110156129af576040805162461bcd60e51b815260206004820152601b60248201527f52656164696e67206279746573206f7574206f6620626f756e64730000000000604482015290519081900360640190fd5b826020018401519050816020038015611ea75760080260020a90049392505050565b6060603a80548060200260200160405190810160405280929190818152602001828054801561276957602002820191906000526020600020905b815481526020019060010190808311612a0b575050505050905090565b603854604080516321f8a72160e01b8152680a6f2dce8d0cae8d2f60bb1b6004820152905160009283926001600160a01b03909116916321f8a72191602480820192602092909190829003018186803b158015612a8457600080fd5b505afa158015612a98573d6000803e3d6000fd5b505050506040513d6020811015612aae57600080fd5b505160408051633260803960e01b81526004810186905290516001600160a01b0390921691633260803991602480820192602092909190829003018186803b158015612af957600080fd5b505afa158015612b0d573d6000803e3d6000fd5b505050506040513d6020811015612b2357600080fd5b505190506001600160a01b038116612b3f57600091505061154a565b6000816001600160a01b031663ec5568896040518163ffffffff1660e01b815260040160206040518083038186803b158015612b7a57600080fd5b505afa158015612b8e573d6000803e3d6000fd5b505050506040513d6020811015612ba457600080fd5b505190506001600160a01b038116612bc15760009250505061154a565b5060019392505050565b600054610100900460ff1680612be45750612be4613c7f565b80612bf2575060005460ff16155b612c2d5760405162461bcd60e51b815260040180806020018281038252602e815260200180613e80602e913960400191505060405180910390fd5b600054610100900460ff16158015612c58576000805460ff1961ff0019909116610100171660011790555b612c628585613c85565b603980546001600160a01b038089166001600160a01b0319928316179092556038805492861692909116919091179055612ca2631cd554d160e21b61362e565b60005b82518160ff161015612cd857612cd0838260ff1681518110612cc357fe5b602002602001015161362e565b600101612ca5565b50631cd554d160e21b600052603c6020527f235919248ad0a4a8de962d1e9d037b5aa5fe0122df257ba743b607362f21450b805460ff191660011790558015612d27576000805461ff00191690555b505050505050565b603d54603e549091565b6033546001600160a01b0316331480612d5c57506037546001600160a01b031633145b612da6576040805162461bcd60e51b815260206004820152601660248201527537b7363c9036b0b730b3b2b91037b9103a3930b232b960511b604482015290519081900360640190fd5b612daf8361292f565b612e00576040805162461bcd60e51b815260206004820152601b60248201527f756e737570706f7274656420736f757263652063757272656e63790000000000604482015290519081900360640190fd5b612e098161292f565b612e5a576040805162461bcd60e51b815260206004820181905260248201527f756e737570706f727465642064657374696e6174696f6e2063757272656e6379604482015290519081900360640190fd5b603854604080516321f8a72160e01b8152680a6f2dce8d0cae8d2f60bb1b600482015290516000926001600160a01b0316916321f8a721916024808301926020929190829003018186803b158015612eb157600080fd5b505afa158015612ec5573d6000803e3d6000fd5b505050506040513d6020811015612edb57600080fd5b505160395460408051631d68702d60e01b815290519293506000926001600160a01b03808616936330ead760938a938a938a931691631d68702d916004808301926020929190829003018186803b158015612f3557600080fd5b505afa158015612f49573d6000803e3d6000fd5b505050506040513d6020811015612f5f57600080fd5b5051603954604080516349f7c02d60e01b815290516001600160a01b03909216916349f7c02d91600480820192602092909190829003018186803b158015612fa657600080fd5b505afa158015612fba573d6000803e3d6000fd5b505050506040513d6020811015612fd057600080fd5b5051604080516001600160e01b031960e089901b1681526004810196909652602486019490945260448501929092526001600160a01b0316606484015260848301525160a48083019260209291908290030181600087803b15801561303457600080fd5b505af1158015613048573d6000803e3d6000fd5b505050506040513d602081101561305e57600080fd5b505160408051308152336020820152808201889052606081018790526080810186905260a081018390524260c082015290519192507f2f3156bec1dba8438caa2579a04e750d9ca242f1c16d87594c77efdbede59bbe919081900360e00190a15050505050565b603a5460609081908190818167ffffffffffffffff811180156130e757600080fd5b50604051908082528060200260200182016040528015613111578160200160208202803683370190505b50905060608267ffffffffffffffff8111801561312d57600080fd5b50604051908082528060200260200182016040528015613157578160200160208202803683370190505b50905060608367ffffffffffffffff8111801561317357600080fd5b5060405190808252806020026020018201604052801561319d578160200160208202803683370190505b50603854604080516321f8a72160e01b81526c45786368616e6765526174657360981b600482015290519293506000926001600160a01b03909216916321f8a72191602480820192602092909190829003018186803b1580156131ff57600080fd5b505afa158015613213573d6000803e3d6000fd5b505050506040513d602081101561322957600080fd5b5051905060005b8581101561339a576000603a828154811061324757fe5b9060005260206000200154905061325d816118ec565b6001600160a01b03166370a08231306040518263ffffffff1660e01b815260040180826001600160a01b0316815260200191505060206040518083038186803b1580156132a957600080fd5b505afa1580156132bd573d6000803e3d6000fd5b505050506040513d60208110156132d357600080fd5b505185518690849081106132e357fe5b602002602001018181525050808683815181106132fc57fe5b602002602001018181525050826001600160a01b031663ac82f608826040518263ffffffff1660e01b81526004018082815260200191505060206040518083038186803b15801561334c57600080fd5b505afa158015613360573d6000803e3d6000fd5b505050506040513d602081101561337657600080fd5b5051845185908490811061338657fe5b602090810291909101015250600101613230565b509297919650945092505050565b60348054604080516020601f60026000196101006001881615020190951694909404938401819004810282018101909252828152606093909290918301828280156127695780601f1061340957610100808354040283529160200191612769565b820191906000526020600020905b81548152906001019060200180831161341757509395945050505050565b603a546000828152603b6020526040812054613452906001613cb8565b90506000603a613463846001613cb8565b8154811061346d57fe5b9060005260206000200154905080603a838154811061348857fe5b60009182526020909120015561349f826001613839565b6000828152603b60205260408082209290925585815290812055603a8054806134c457fe5b600190038181906000526020600020016000905590557f241d622959843ef6d15b4517709d11e054e1c06a2733f7773837c3d2377d8a8930613504611c7e565b604080516001600160a01b03938416815291909216602082015280820187905290519081900360600190a150505050565b6035546001600160a01b03821660009081526036602052604081205461355c906001613cb8565b90506000603561356d846001613cb8565b8154811061357757fe5b600091825260209091200154603580546001600160a01b0390921692508291849081106135a057fe5b600091825260209091200180546001600160a01b0319166001600160a01b03929092169190911790556135d4826001613839565b6001600160a01b0380831660009081526036602052604080822093909355908616815290812055603580548061360657fe5b600082815260209020810160001990810180546001600160a01b031916905501905550505050565b603960009054906101000a90046001600160a01b03166001600160a01b031663aa12ae4d6040518163ffffffff1660e01b815260040160206040518083038186803b15801561367c57600080fd5b505afa158015613690573d6000803e3d6000fd5b505050506040513d60208110156136a657600080fd5b5051603a54106136f6576040805162461bcd60e51b81526020600482015260166024820152751b585e1a5b5d5b48185cdcd95d1cc81c995858da195960521b604482015290519081900360640190fd5b6136ff8161292f565b15613751576040805162461bcd60e51b815260206004820152601760248201527f617373657420616c726561647920737570706f72746564000000000000000000604482015290519081900360640190fd5b61375a81612a28565b15156001146137a2576040805162461bcd60e51b815260206004820152600f60248201526e1b9bdb8b5cde5b9d1a08185cdcd95d608a1b604482015290519081900360640190fd5b603a80546001810182557fa2999d817b6757290b50e8ecf3fa939673403dd35c97de392fdb343b4015ce9e01829055546000828152603b60205260409020557f4c719ca79dbb56150643ac79f2fbfa02370838ed0d116fc28b9703f5a071c4e23061380b611c7e565b604080516001600160a01b03938416815291909216602082015280820184905290519081900360600190a150565b600082820183811015611ae8576040805162461bcd60e51b815260206004820152601b60248201527f536166654d6174683a206164646974696f6e206f766572666c6f770000000000604482015290519081900360640190fd5b603580546001810182557fcfa4bec1d3298408bb5afcfcd9c430549c5b31f8aa5c5848151c0a55f473c34d0180546001600160a01b039093166001600160a01b0319909316831790555460009182526036602052604090912055565b6138f88461292f565b613949576040805162461bcd60e51b815260206004820152601b60248201527f756e737570706f7274656420736f757263652063757272656e63790000000000604482015290519081900360640190fd5b6139528261292f565b6139a3576040805162461bcd60e51b815260206004820181905260248201527f756e737570706f727465642064657374696e6174696f6e2063757272656e6379604482015290519081900360640190fd5b60006060866001600160a01b0316836040518082805190602001908083835b602083106139e15780518252601f1990920191602091820191016139c2565b6001836020036101000a0380198251168184511680821785525050505050509050019150506000604051808303816000865af19150503d8060008114613a43576040519150601f19603f3d011682016040523d82523d6000602084013e613a48565b606091505b509092509050600182151514613aa5576040805162461bcd60e51b815260206004820152601a60248201527f6661696c656420746f20657865637574652065786368616e6765000000000000604482015290519081900360640190fd5b7f2f3156bec1dba8438caa2579a04e750d9ca242f1c16d87594c77efdbede59bbe30613acf611c7e565b888888613add876000613cfa565b604080516001600160a01b039788168152959096166020860152848601939093526060840191909152608083015260a08201524260c082015290519081900360e00190a150505050505050565b6039546040805163011adcb160e21b81526001600160a01b038581166004830152602482018590529151919092169163046b72c491604480830192600092919082900301818387803b158015613b7f57600080fd5b505af1158015613b93573d6000803e3d6000fd5b505060395460408051635bd2a29360e11b81526001600160a01b03878116600483015282516000965086955093169263b7a5452692602480840193919291829003018186803b158015613be557600080fd5b505afa158015613bf9573d6000803e3d6000fd5b505050506040513d6040811015613c0f57600080fd5b50805160209091015190925090507f1780c04ddc6f0b32d866c7a3d7583f53515ef49ed2126af868f804f49160126630613c47611c7e565b604080516001600160a01b0393841681529190921660208201528082018590526060810184905290519081900360800190a150505050565b303b1590565b603380546001600160a01b0319166001600160a01b0384161790558051613cb3906034906020840190613dec565b505050565b6000611ae883836040518060400160405280601e81526020017f536166654d6174683a207375627472616374696f6e206f766572666c6f770000815250613d55565b60008160200183511015613d4c576040805162461bcd60e51b8152602060048201526014602482015273736c6963696e67206f7574206f662072616e676560601b604482015290519081900360640190fd5b50016020015190565b60008184841115613de45760405162461bcd60e51b81526004018080602001828103825283818151815260200191508051906020019080838360005b83811015613da9578181015183820152602001613d91565b50505050905090810190601f168015613dd65780820380516001836020036101000a031916815260200191505b509250505060405180910390fd5b505050900390565b828054600181600116156101000203166002900490600052602060002090601f016020900481019282601f10613e2d57805160ff1916838001178555613e5a565b82800160010185558215613e5a579182015b82811115613e5a578251825591602001919060010190613e3f565b50613e66929150613e6a565b5090565b5b80821115613e665760008155600101613e6b56fe436f6e747261637420696e7374616e63652068617320616c7265616479206265656e20696e697469616c697a6564a264697066735822122077fd30232b22ea453f0db6f5ce1a4f4927998b43ea84d3fe6fcd5d1574e0c28f64736f6c634300060c0033",
  "linkReferences": {},
  "deployedLinkReferences": {}
}