{
  "_format": "hh-sol-artifact-1",
  "contractName": "PoolManagerLogic-ovm",
  "sourceName": "contracts/PoolManagerLogic.sol",
  "abi": [
    {
      "anonymous": false,
      "inputs": [
        {
          "indexed": false,
          "internalType": "address",
          "name": "fundAddress",
          "type": "address"
        },
        {
          "indexed": false,
          "internalType": "address",
          "name": "manager",
          "type": "address"
        },
        {
          "indexed": false,
          "internalType": "address",
          "name": "asset",
          "type": "address"
        },
        {
          "indexed": false,
          "internalType": "bool",
          "name": "isDeposit",
          "type": "bool"
        }
      ],
      "name": "AssetAdded",
      "type": "event"
    },
    {
      "anonymous": false,
      "inputs": [
        {
          "indexed": false,
          "internalType": "address",
          "name": "fundAddress",
          "type": "address"
        },
        {
          "indexed": false,
          "internalType": "address",
          "name": "manager",
          "type": "address"
        },
        {
          "indexed": false,
          "internalType": "address",
          "name": "asset",
          "type": "address"
        },
        {
          "indexed": false,
          "internalType": "bool",
          "name": "isDeposit",
          "type": "bool"
        }
      ],
      "name": "AssetRemoved",
      "type": "event"
    },
    {
      "anonymous": false,
      "inputs": [
        {
          "indexed": false,
          "internalType": "uint256",
          "name": "newNumerator",
          "type": "uint256"
        },
        {
          "indexed": false,
          "internalType": "uint256",
          "name": "announcedFeeActivationTime",
          "type": "uint256"
        }
      ],
      "name": "ManagerFeeIncreaseAnnounced",
      "type": "event"
    },
    {
      "anonymous": false,
      "inputs": [],
      "name": "ManagerFeeIncreaseRenounced",
      "type": "event"
    },
    {
      "anonymous": false,
      "inputs": [
        {
          "indexed": false,
          "internalType": "address",
          "name": "fundAddress",
          "type": "address"
        },
        {
          "indexed": false,
          "internalType": "address",
          "name": "manager",
          "type": "address"
        },
        {
          "indexed": false,
          "internalType": "uint256",
          "name": "numerator",
          "type": "uint256"
        },
        {
          "indexed": false,
          "internalType": "uint256",
          "name": "denominator",
          "type": "uint256"
        }
      ],
      "name": "ManagerFeeSet",
      "type": "event"
    },
    {
      "anonymous": false,
      "inputs": [
        {
          "indexed": false,
          "internalType": "address",
          "name": "newManager",
          "type": "address"
        },
        {
          "indexed": false,
          "internalType": "string",
          "name": "newManagerName",
          "type": "string"
        }
      ],
      "name": "ManagerUpdated",
      "type": "event"
    },
    {
      "anonymous": false,
      "inputs": [
        {
          "indexed": false,
          "internalType": "address",
          "name": "poolLogic",
          "type": "address"
        },
        {
          "indexed": false,
          "internalType": "address",
          "name": "from",
          "type": "address"
        }
      ],
      "name": "PoolLogicSet",
      "type": "event"
    },
    {
      "inputs": [
        {
          "internalType": "address",
          "name": "member",
          "type": "address"
        }
      ],
      "name": "addMember",
      "outputs": [],
      "stateMutability": "nonpayable",
      "type": "function"
    },
    {
      "inputs": [
        {
          "internalType": "address[]",
          "name": "members",
          "type": "address[]"
        }
      ],
      "name": "addMembers",
      "outputs": [],
      "stateMutability": "nonpayable",
      "type": "function"
    },
    {
      "inputs": [
        {
          "internalType": "uint256",
          "name": "numerator",
          "type": "uint256"
        }
      ],
      "name": "announceManagerFeeIncrease",
      "outputs": [],
      "stateMutability": "nonpayable",
      "type": "function"
    },
    {
      "inputs": [],
      "name": "announcedFeeIncreaseNumerator",
      "outputs": [
        {
          "internalType": "uint256",
          "name": "",
          "type": "uint256"
        }
      ],
      "stateMutability": "view",
      "type": "function"
    },
    {
      "inputs": [],
      "name": "announcedFeeIncreaseTimestamp",
      "outputs": [
        {
          "internalType": "uint256",
          "name": "",
          "type": "uint256"
        }
      ],
      "stateMutability": "view",
      "type": "function"
    },
    {
      "inputs": [
        {
          "internalType": "address",
          "name": "asset",
          "type": "address"
        }
      ],
      "name": "assetBalance",
      "outputs": [
        {
          "internalType": "uint256",
          "name": "",
          "type": "uint256"
        }
      ],
      "stateMutability": "view",
      "type": "function"
    },
    {
      "inputs": [
        {
          "internalType": "address",
          "name": "",
          "type": "address"
        }
      ],
      "name": "assetPosition",
      "outputs": [
        {
          "internalType": "uint256",
          "name": "",
          "type": "uint256"
        }
      ],
      "stateMutability": "view",
      "type": "function"
    },
    {
      "inputs": [
        {
          "internalType": "address",
          "name": "asset",
          "type": "address"
        },
        {
          "internalType": "uint256",
          "name": "amount",
          "type": "uint256"
        }
      ],
      "name": "assetValue",
      "outputs": [
        {
          "internalType": "uint256",
          "name": "",
          "type": "uint256"
        }
      ],
      "stateMutability": "view",
      "type": "function"
    },
    {
      "inputs": [
        {
          "internalType": "address",
          "name": "asset",
          "type": "address"
        }
      ],
      "name": "assetValue",
      "outputs": [
        {
          "internalType": "uint256",
          "name": "",
          "type": "uint256"
        }
      ],
      "stateMutability": "view",
      "type": "function"
    },
    {
      "inputs": [
        {
          "components": [
            {
              "internalType": "address",
              "name": "asset",
              "type": "address"
            },
            {
              "internalType": "bool",
              "name": "isDeposit",
              "type": "bool"
            }
          ],
          "internalType": "struct IPoolManagerLogic.Asset[]",
          "name": "_addAssets",
          "type": "tuple[]"
        },
        {
          "components": [
            {
              "internalType": "address",
              "name": "asset",
              "type": "address"
            },
            {
              "internalType": "bool",
              "name": "isDeposit",
              "type": "bool"
            }
          ],
          "internalType": "struct IPoolManagerLogic.Asset[]",
          "name": "_removeAssets",
          "type": "tuple[]"
        }
      ],
      "name": "changeAssets",
      "outputs": [],
      "stateMutability": "nonpayable",
      "type": "function"
    },
    {
      "inputs": [
        {
          "internalType": "address",
          "name": "newManager",
          "type": "address"
        },
        {
          "internalType": "string",
          "name": "newManagerName",
          "type": "string"
        }
      ],
      "name": "changeManager",
      "outputs": [],
      "stateMutability": "nonpayable",
      "type": "function"
    },
    {
      "inputs": [],
      "name": "commitManagerFeeIncrease",
      "outputs": [],
      "stateMutability": "nonpayable",
      "type": "function"
    },
    {
      "inputs": [],
      "name": "factory",
      "outputs": [
        {
          "internalType": "address",
          "name": "",
          "type": "address"
        }
      ],
      "stateMutability": "view",
      "type": "function"
    },
    {
      "inputs": [],
      "name": "getFundComposition",
      "outputs": [
        {
          "internalType": "address[]",
          "name": "",
          "type": "address[]"
        },
        {
          "internalType": "uint256[]",
          "name": "",
          "type": "uint256[]"
        },
        {
          "internalType": "uint256[]",
          "name": "",
          "type": "uint256[]"
        }
      ],
      "stateMutability": "view",
      "type": "function"
    },
    {
      "inputs": [],
      "name": "getManagerFee",
      "outputs": [
        {
          "internalType": "uint256",
          "name": "",
          "type": "uint256"
        },
        {
          "internalType": "uint256",
          "name": "",
          "type": "uint256"
        }
      ],
      "stateMutability": "view",
      "type": "function"
    },
    {
      "inputs": [],
      "name": "getManagerFeeIncreaseInfo",
      "outputs": [
        {
          "internalType": "uint256",
          "name": "",
          "type": "uint256"
        },
        {
          "internalType": "uint256",
          "name": "",
          "type": "uint256"
        }
      ],
      "stateMutability": "view",
      "type": "function"
    },
    {
      "inputs": [],
      "name": "getMembers",
      "outputs": [
        {
          "internalType": "address[]",
          "name": "",
          "type": "address[]"
        }
      ],
      "stateMutability": "view",
      "type": "function"
    },
    {
      "inputs": [],
      "name": "getSupportedAssets",
      "outputs": [
        {
          "internalType": "address[]",
          "name": "",
          "type": "address[]"
        }
      ],
      "stateMutability": "view",
      "type": "function"
    },
    {
      "inputs": [
        {
          "internalType": "address",
          "name": "_factory",
          "type": "address"
        },
        {
          "internalType": "address",
          "name": "_manager",
          "type": "address"
        },
        {
          "internalType": "string",
          "name": "_managerName",
          "type": "string"
        },
        {
          "components": [
            {
              "internalType": "address",
              "name": "asset",
              "type": "address"
            },
            {
              "internalType": "bool",
              "name": "isDeposit",
              "type": "bool"
            }
          ],
          "internalType": "struct IPoolManagerLogic.Asset[]",
          "name": "_supportedAssets",
          "type": "tuple[]"
        }
      ],
      "name": "initialize",
      "outputs": [],
      "stateMutability": "nonpayable",
      "type": "function"
    },
    {
      "inputs": [
        {
          "internalType": "address",
          "name": "asset",
          "type": "address"
        }
      ],
      "name": "isDepositAsset",
      "outputs": [
        {
          "internalType": "bool",
          "name": "",
          "type": "bool"
        }
      ],
      "stateMutability": "view",
      "type": "function"
    },
    {
      "inputs": [
        {
          "internalType": "address",
          "name": "member",
          "type": "address"
        }
      ],
      "name": "isMemberAllowed",
      "outputs": [
        {
          "internalType": "bool",
          "name": "",
          "type": "bool"
        }
      ],
      "stateMutability": "view",
      "type": "function"
    },
    {
      "inputs": [
        {
          "internalType": "address",
          "name": "asset",
          "type": "address"
        }
      ],
      "name": "isSupportedAsset",
      "outputs": [
        {
          "internalType": "bool",
          "name": "",
          "type": "bool"
        }
      ],
      "stateMutability": "view",
      "type": "function"
    },
    {
      "inputs": [],
      "name": "manager",
      "outputs": [
        {
          "internalType": "address",
          "name": "",
          "type": "address"
        }
      ],
      "stateMutability": "view",
      "type": "function"
    },
    {
      "inputs": [],
      "name": "managerName",
      "outputs": [
        {
          "internalType": "string",
          "name": "",
          "type": "string"
        }
      ],
      "stateMutability": "view",
      "type": "function"
    },
    {
      "inputs": [],
      "name": "numberOfDepositAssets",
      "outputs": [
        {
          "internalType": "uint256",
          "name": "",
          "type": "uint256"
        }
      ],
      "stateMutability": "view",
      "type": "function"
    },
    {
      "inputs": [],
      "name": "numberOfMembers",
      "outputs": [
        {
          "internalType": "uint256",
          "name": "",
          "type": "uint256"
        }
      ],
      "stateMutability": "view",
      "type": "function"
    },
    {
      "inputs": [],
      "name": "numberOfSupportedAssets",
      "outputs": [
        {
          "internalType": "uint256",
          "name": "",
          "type": "uint256"
        }
      ],
      "stateMutability": "view",
      "type": "function"
    },
    {
      "inputs": [],
      "name": "poolLogic",
      "outputs": [
        {
          "internalType": "address",
          "name": "",
          "type": "address"
        }
      ],
      "stateMutability": "view",
      "type": "function"
    },
    {
      "inputs": [
        {
          "internalType": "address",
          "name": "member",
          "type": "address"
        }
      ],
      "name": "removeMember",
      "outputs": [],
      "stateMutability": "nonpayable",
      "type": "function"
    },
    {
      "inputs": [
        {
          "internalType": "address[]",
          "name": "members",
          "type": "address[]"
        }
      ],
      "name": "removeMembers",
      "outputs": [],
      "stateMutability": "nonpayable",
      "type": "function"
    },
    {
      "inputs": [],
      "name": "removeTrader",
      "outputs": [],
      "stateMutability": "nonpayable",
      "type": "function"
    },
    {
      "inputs": [],
      "name": "renounceManagerFeeIncrease",
      "outputs": [],
      "stateMutability": "nonpayable",
      "type": "function"
    },
    {
      "inputs": [
        {
          "internalType": "address",
          "name": "_poolLogic",
          "type": "address"
        }
      ],
      "name": "setPoolLogic",
      "outputs": [
        {
          "internalType": "bool",
          "name": "",
          "type": "bool"
        }
      ],
      "stateMutability": "nonpayable",
      "type": "function"
    },
    {
      "inputs": [
        {
          "internalType": "address",
          "name": "newTrader",
          "type": "address"
        }
      ],
      "name": "setTrader",
      "outputs": [],
      "stateMutability": "nonpayable",
      "type": "function"
    },
    {
      "inputs": [
        {
          "internalType": "uint256",
          "name": "",
          "type": "uint256"
        }
      ],
      "name": "supportedAssets",
      "outputs": [
        {
          "internalType": "address",
          "name": "asset",
          "type": "address"
        },
        {
          "internalType": "bool",
          "name": "isDeposit",
          "type": "bool"
        }
      ],
      "stateMutability": "view",
      "type": "function"
    },
    {
      "inputs": [],
      "name": "trader",
      "outputs": [
        {
          "internalType": "address",
          "name": "",
          "type": "address"
        }
      ],
      "stateMutability": "view",
      "type": "function"
    },
    {
      "inputs": [
        {
          "internalType": "address",
          "name": "asset",
          "type": "address"
        }
      ],
      "name": "validateAsset",
      "outputs": [
        {
          "internalType": "bool",
          "name": "",
          "type": "bool"
        }
      ],
      "stateMutability": "view",
      "type": "function"
    }
  ],
  "bytecode": "0x60806040523480156200001c576000806200001962000023565b50505b5062000090565b632a2a7adb598160e01b8152600481016020815285602082015260005b868110156200005d57808601518282016040015260200162000040565b506020828760640184336000905af158600e01573d6000803e3d6000fd5b3d6001141558600a015760016000f35b505050565b61398c80620000a06000396000f3fe608060405234801561001957600080610016612a80565b50505b50600436106102305760003560e01c80638f32343911610139578063bdbef07d116100c1578063d8af8ed411610085578063d8af8ed41461045f578063e5406dbf14610472578063ed5b165d1461047a578063f09d14d714610482578063fed4416a1461049957610230565b8063bdbef07d146103fd578063c45a015514610410578063c68dbb3714610418578063ca6d56dc14610439578063cd88e5581461044c57610230565b80639eab5253116101085780639eab5253146103b2578063a30e3fa9146103c7578063a6bc18f9146103cf578063b8bd81e6146103e2578063bbbf725b146103ea57610230565b80638f3234391461037c5780639240d29914610384578063936553c4146103975780639be918e61461039f57610230565b806352213663116101bc5780636f4d469b1161018b5780636f4d469b1461032657806372260e0f146103395780637b4d0c631461034c5780637c8afd51146103545780638e10153d1461035c57610230565b806352213663146102f057806353f064c9146103035780635cd50e48146103165780636e890f3c1461031e57610230565b806329c07fba1161020357806329c07fba1461029a57806339b81fd9146102ba5780633c570d7d146102c257806346ee84b0146102d5578063481c6a75146102e857610230565b80630b1ca49a1461023e578063147bf0be146102535780631758078b146102665780631980553814610284575b60008061023b612a80565b50505b61025161024c366004613043565b6104ae565b005b61025161026136600461308d565b610532565b61026e6106cd565b60405161027b9190613474565b60405180910390f35b61028c6106ef565b60405161027b9291906138f2565b6102ad6102a836600461318e565b6107c7565b60405161027b91906138e9565b61026e610945565b6102ad6102d0366004613043565b610964565b6102516102e33660046131c2565b61097f565b61026e610a3e565b6102516102fe36600461312e565b610a4b565b610251610311366004613315565b610b36565b6102ad610df0565b610251610e63565b6102516103343660046131c2565b610f41565b61025161034736600461327e565b610ff0565b6102ad61109f565b6102516110a9565b61036f61036a366004613043565b611140565b60405161027b91906135ab565b6102ad611425565b61036f610392366004613043565b61142f565b6102ad6114eb565b61036f6103ad366004613043565b6114fe565b6103ba611526565b60405161027b9190613555565b6102ad6115ad565b6102516103dd366004613043565b6115ba565b610251611656565b61036f6103f8366004613043565b61170b565b61036f61040b366004613043565b61172b565b61026e61179d565b61042b610426366004613315565b6117a9565b60405161027b9291906134f5565b610251610447366004613043565b611801565b6102ad61045a366004613043565b611883565b6102ad61046d366004613043565b61193f565b6103ba61194e565b61028c611a30565b61048a611a47565b60405161027b93929190613568565b6104a1611cc1565b60405161027b91906135b6565b600060336104ba612aeb565b906101000a90046001600160a01b03166001600160a01b03165a6104dc612b46565b6001600160a01b0316146105145760405162461bcd60e51b81526004016105029061365e565b60405180910390610511612a80565b50505b61051d8161170b565b6105265761052f565b61052f81611d75565b50565b6001600061053e612aeb565b906101000a900460ff16806105565750610556611ef6565b806105735750600080610567612aeb565b906101000a900460ff16155b6105a15760405162461bcd60e51b815260040161058f90613807565b6040518091039061059e612a80565b50505b60006001816105ae612aeb565b906101000a900460ff1615905080156106145760016000610100816105d1612aeb565b8160ff021916908315150217906105e6612b8c565b50505060016000806101000a816105fb612aeb565b8160ff02191690831515021790610610612b8c565b5050505b61061e8484611f67565b84603860018161062c612aeb565b816001600160a01b0302191690836001600160a01b031602179061064e612b8c565b506106989150839050600060405190808252806020026020018201604052801561069257816020015b61067f612bda565b8152602001906001900390816106775790505b50611fae565b80156106c657600080610100816106ad612aeb565b8160ff021916908315150217906106c2612b8c565b5050505b5050505050565b60008060376106da612aeb565b906101000a90046001600160a01b0316905090565b6000808060386106fd612aeb565b6001600160a01b036101009290920a90041663b7a5452660006039610720612aeb565b906101000a90046001600160a01b03166040518263ffffffff1660e01b815260040161074c9190613474565b6040805180830381868061075e612bf1565b15801561077357600080610770612a80565b50505b505a61077d612c3d565b505050505015801561079c573d6000803e3d6000610799612a80565b50505b50505050604051601f3d908101601f191682016040526107bf9190810190613359565b915091509091565b6000808060386107d5612aeb565b906101000a90046001600160a01b03166001600160a01b031663b3596f07856040518263ffffffff1660e01b81526004016108109190613474565b6020604051808303818680610823612bf1565b15801561083857600080610835612a80565b50505b505a610842612c3d565b5050505050158015610861573d6000803e3d600061085e612a80565b50505b50505050604051601f3d908101601f191682016040526108849190810190613336565b90506000846001600160a01b031663313ce5676040518163ffffffff1660e01b815260040160206040518083038186806108bc612bf1565b1580156108d1576000806108ce612a80565b50505b505a6108db612c3d565b50505050501580156108fa573d6000803e3d60006108f7612a80565b50505b50505050604051601f3d908101601f1916820160405261091d9190810190613386565b60ff16905061093a600a82900a610934848761213f565b90612191565b925050505b92915050565b60006039610951612aeb565b906101000a90046001600160a01b031681565b603b602052806000526040600020905061097c612aeb565b81565b6000603361098b612aeb565b906101000a90046001600160a01b03166001600160a01b03165a6109ad612b46565b6001600160a01b0316146109e55760405162461bcd60e51b81526004016109d39061365e565b604051809103906109e2612a80565b50505b60005b8151811015610a3a57610a0d828281518110610a0057fe5b602002602001015161170b565b610a1657610a32565b610a32828281518110610a2557fe5b6020026020010151611d75565b6001016109e8565b5050565b60008060336106da612aeb565b60006033610a57612aeb565b906101000a90046001600160a01b03166001600160a01b03165a610a79612b46565b6001600160a01b031614610ab15760405162461bcd60e51b8152600401610a9f9061365e565b60405180910390610aae612a80565b50505b816033600181610abf612aeb565b816001600160a01b0302191690836001600160a01b0316021790610ae1612b8c565b505050806034908051610af8929160200190612d28565b507f6ed15082ad038474841528b5badca105106d4463e44b5d434130dfb299aa36698282604051610b2a929190613510565b60405180910390a15050565b60006033610b42612aeb565b906101000a90046001600160a01b03166001600160a01b03165a610b64612b46565b6001600160a01b031614610b9c5760405162461bcd60e51b8152600401610b8a9061365e565b60405180910390610b99612a80565b50505b6000806038610ba9612aeb565b906101000a90046001600160a01b03166001600160a01b0316635c9bfc2b6040518163ffffffff1660e01b81526004016020604051808303818680610bec612bf1565b158015610c0157600080610bfe612a80565b50505b505a610c0b612c3d565b5050505050158015610c2a573d6000803e3d6000610c27612a80565b50505b50505050604051601f3d908101601f19168201604052610c4d9190810190613336565b9050600080610c5a6106ef565b909250905080841115610c915760405162461bcd60e51b8152600401610c7f90613765565b60405180910390610c8e612a80565b50505b610c9b82846121d1565b841115610ccc5760405162461bcd60e51b8152600401610cba90613882565b60405180910390610cc9612a80565b50505b6000806038610cd9612aeb565b906101000a90046001600160a01b03166001600160a01b031663ebee461d6040518163ffffffff1660e01b81526004016020604051808303818680610d1c612bf1565b158015610d3157600080610d2e612a80565b50505b505a610d3b612c3d565b5050505050158015610d5a573d6000803e3d6000610d57612a80565b50505b50505050604051601f3d908101601f19168201604052610d7d9190810190613336565b90508480603c610d8b612b8c565b505050805a610d98612dc8565b0180603d610da4612b8c565b5050507f4db9119741646c419f1ceccdf112b5b9a9b4516355e742e1fa9c479f4dec98da85603d610dd3612aeb565b604051610de19291906138f2565b60405180910390a15050505050565b600080805b603a80610e00612aeb565b90508160ff161015610e5d57603a8160ff1681610e1b612aeb565b8110610e2357fe5b90600052602060002060149101610e38612aeb565b906101000a900460ff1615610e5557610e528260016121d1565b91505b600101610df5565b50905090565b60006033610e6f612aeb565b906101000a90046001600160a01b03166001600160a01b03165a610e91612b46565b6001600160a01b031614610ec95760405162461bcd60e51b8152600401610eb79061365e565b60405180910390610ec6612a80565b50505b603d610ed3612aeb565b5a610edc612dc8565b1015610f0c5760405162461bcd60e51b8152600401610efa906137d0565b60405180910390610f09612a80565b50505b610f1e603c610f19612aeb565b6121f6565b600080603c610f2b612b8c565b5050506000603d8190610f3c612b8c565b505050565b60006033610f4d612aeb565b906101000a90046001600160a01b03166001600160a01b03165a610f6f612b46565b6001600160a01b031614610fa75760405162461bcd60e51b8152600401610f959061365e565b60405180910390610fa4612a80565b50505b60005b8151811015610a3a57610fc2828281518110610a0057fe5b15610fcc57610fe8565b610fe8828281518110610fdb57fe5b60200260200101516123e6565b600101610faa565b60006033610ffc612aeb565b906101000a90046001600160a01b03166001600160a01b03165a61101e612b46565b6001600160a01b0316148061106757506000603761103a612aeb565b906101000a90046001600160a01b03166001600160a01b03165a61105c612b46565b6001600160a01b0316145b6110955760405162461bcd60e51b815260040161108390613735565b60405180910390611092612a80565b50505b610a3a8282611fae565b603d61097c612aeb565b600060336110b5612aeb565b906101000a90046001600160a01b03166001600160a01b03165a6110d7612b46565b6001600160a01b03161461110f5760405162461bcd60e51b81526004016110fd9061365e565b6040518091039061110c612a80565b50505b6000603760018161111e612aeb565b816001600160a01b0302191690836001600160a01b0316021790610f3c612b8c565b600080603861114d612aeb565b906101000a90046001600160a01b03166001600160a01b03165a61116f612b46565b6001600160a01b0316148061124c57506000603861118b612aeb565b906101000a90046001600160a01b03166001600160a01b0316631d68702d6040518163ffffffff1660e01b815260040160206040518083038186806111ce612bf1565b1580156111e3576000806111e0612a80565b50505b505a6111ed612c3d565b505050505015801561120c573d6000803e3d6000611209612a80565b50505b50505050604051601f3d908101601f1916820160405261122f9190810190613068565b6001600160a01b03165a611241612b46565b6001600160a01b0316145b61127a5760405162461bcd60e51b8152600401611268906136b0565b60405180910390611277612a80565b50505b5a63996d79a5598160e01b8152602081600483336000905af158600e01573d6000803e3d6000fd5b3d6001141558600a015760016000f35b8051925060005b60408110156112d0576000828201526020016112b9565b5050506001600160a01b0316826001600160a01b0316631e50a4a66040518163ffffffff1660e01b81526004016020604051808303818680611310612bf1565b15801561132557600080611322612a80565b50505b505a61132f612c3d565b505050505015801561134e573d6000803e3d600061134b612a80565b50505b50505050604051601f3d908101601f191682016040526113719190810190613068565b6001600160a01b0316146113a95760405162461bcd60e51b815260040161139790613684565b604051809103906113a6612a80565b50505b8160396001816113b7612aeb565b816001600160a01b0302191690836001600160a01b03160217906113d9612b8c565b5050507f8c1446ebd2ac8c922b8c9716dfbdfcfef02c9fc167140d7cfd019565b423b249825a611407612b46565b604051611415929190613488565b60405180910390a1506001919050565b603c61097c612aeb565b600080603861143c612aeb565b906101000a90046001600160a01b03166001600160a01b031663cc435bf3836040518263ffffffff1660e01b81526004016114779190613474565b602060405180830381868061148a612bf1565b15801561149f5760008061149c612a80565b50505b505a6114a9612c3d565b50505050501580156114c8573d6000803e3d60006114c5612a80565b50505b50505050604051601f3d908101601f1916820160405261093f91908101906132f0565b6000603a806114f8612aeb565b91505090565b6001600160a01b0381166000908152603b6020526040812061151e612aeb565b151592915050565b6060603580611533612aeb565b806020026020016040519081016040528181529190602083018280611556612aeb565b80156115a357602002820191906000526020600020905b600082611578612aeb565b906101000a90046001600160a01b03166001600160a01b03168152602001906001019080831161156d575b5050505050905090565b60006035806114f8612aeb565b600060336115c6612aeb565b906101000a90046001600160a01b03166001600160a01b03165a6115e8612b46565b6001600160a01b0316146116205760405162461bcd60e51b815260040161160e9061365e565b6040518091039061161d612a80565b50505b80603760018161162e612aeb565b816001600160a01b0302191690836001600160a01b0316021790611650612b8c565b50505050565b60006033611662612aeb565b906101000a90046001600160a01b03166001600160a01b03165a611684612b46565b6001600160a01b0316146116bc5760405162461bcd60e51b81526004016116aa9061365e565b604051809103906116b9612a80565b50505b600080603c6116c9612b8c565b5050506000603d81906116da612b8c565b5050507fc6f04bf43cbdf1ba5d51b4afa160bb3c7e13858b1409aa32868b239bb2f8d84960405160405180910390a1565b6001600160a01b038116600090815260366020526040812061151e612aeb565b6001600160a01b0381166000908152603b602052806040812061174c612aeb565b905080158015906117965750603a611765826001612472565b8161176e612aeb565b811061177657fe5b9060005260206000206014910161178b612aeb565b906101000a900460ff165b9392505050565b60006038610951612aeb565b603a81816117b5612aeb565b81106117bd57fe5b9060005260206000200190506000816117d4612aeb565b6001600160a01b036101009290920a900416906014816117f2612aeb565b906101000a900460ff16905082565b6000603361180d612aeb565b906101000a90046001600160a01b03166001600160a01b03165a61182f612b46565b6001600160a01b0316146118675760405162461bcd60e51b81526004016118559061365e565b60405180910390611864612a80565b50505b6118708161170b565b1561187a5761052f565b61052f816123e6565b60006001600160a01b0382166370a0823182603961189f612aeb565b906101000a90046001600160a01b03166040518263ffffffff1660e01b81526004016118cb9190613474565b60206040518083038186806118de612bf1565b1580156118f3576000806118f0612a80565b50505b505a6118fd612c3d565b505050505015801561191c573d6000803e3d6000611919612a80565b50505b50505050604051601f3d908101601f1916820160405261093f9190810190613336565b600061093f826102a884611883565b60606000603a8061195d612aeb565b9050905060608167ffffffffffffffff8111801561198357600080611980612a80565b50505b506040519080825280602002602001820160405280156119ad578160200160208202803683370190505b50905060005b828160ff161015611a2957603a8160ff16816119cd612aeb565b81106119d557fe5b906000526020600020600091016119ea612aeb565b906101000a90046001600160a01b0316828260ff1681518110611a0957fe5b6001600160a01b03909216602092830291909101909101526001016119b3565b5091505090565b600080603c611a3d612aeb565b603d6107bf612aeb565b60608060606000603a80611a59612aeb565b9050905060608167ffffffffffffffff81118015611a7f57600080611a7c612a80565b50505b50604051908082528060200260200182016040528015611aa9578160200160208202803683370190505b50905060608267ffffffffffffffff81118015611ace57600080611acb612a80565b50505b50604051908082528060200260200182016040528015611af8578160200160208202803683370190505b50905060608367ffffffffffffffff81118015611b1d57600080611b1a612a80565b50505b50604051908082528060200260200182016040528015611b47578160200160208202803683370190505b50905060005b84811015611cb3576000603a8281611b63612aeb565b8110611b6b57fe5b90600052602060002060009101611b80612aeb565b906101000a90046001600160a01b03169050611b9b81611883565b848381518110611ba757fe5b60200260200101818152505080858381518110611bc057fe5b6001600160a01b039092166020928302919091019091015260006038611be4612aeb565b906101000a90046001600160a01b03166001600160a01b031663b3596f07826040518263ffffffff1660e01b8152600401611c1f9190613474565b6020604051808303818680611c32612bf1565b158015611c4757600080611c44612a80565b50505b505a611c51612c3d565b5050505050158015611c70573d6000803e3d6000611c6d612a80565b50505b50505050604051601f3d908101601f19168201604052611c939190810190613336565b838381518110611c9f57fe5b602090810291909101015250600101611b4d565b509195509350915050909192565b6060603480611cce612aeb565b600181600116156101000203166002900480601f016020809104026020016040519081016040528181529190602083018280611d08612aeb565b600181600116156101000203166002900480156115a35780601f10611d42576101008083611d34612aeb565b0402835291602001916115a3565b820191906000526020600020905b81611d59612aeb565b81529060010190602001808311611d5057509395945050505050565b6000603580611d82612aeb565b6001600160a01b038416600090815260366020529092509050611db2600160408320611dac612aeb565b90612472565b905060006035611dc3846001612472565b81611dcc612aeb565b8110611dd457fe5b90600052602060002001600090611de9612aeb565b906101000a90046001600160a01b031690508060358381611e08612aeb565b8110611e1057fe5b90600052602060002001600181611e25612aeb565b816001600160a01b0302191690836001600160a01b0316021790611e47612b8c565b50611e57915083905060016121d1565b6001600160a01b03821660009081526036602052604090208190611e79612b8c565b5050506001600160a01b03841660009081526036602052604081208190611e9e612b8c565b505050603580611eac612aeb565b80611eb357fe5b60019003818190600052602060002001600181611ece612aeb565b906001600160a01b0302191690611ee3612b8c565b505090611eee612b8c565b505050505050565b6000805a63996d79a5598160e01b8152602081600483336000905af158600e01573d6000803e3d6000fd5b3d6001141558600a015760016000f35b8051925060005b6040811015611f4f57600082820152602001611f38565b5050509050600081611f5f612bf1565b159250505090565b816033600181611f75612aeb565b816001600160a01b0302191690836001600160a01b0316021790611f97612b8c565b505050806034908051610f3c929160200190612d28565b60005b81518160ff161015611fe457611fdc828260ff1681518110611fcf57fe5b60200260200101516124b2565b600101611fb1565b5060005b82518160ff16101561201b57612013838260ff168151811061200657fe5b60200260200101516127f8565b600101611fe8565b5060006038612028612aeb565b906101000a90046001600160a01b03166001600160a01b031663aa12ae4d6040518163ffffffff1660e01b8152600401602060405180830381868061206b612bf1565b1580156120805760008061207d612a80565b50505b505a61208a612c3d565b50505050501580156120a9573d6000803e3d60006120a6612a80565b50505b50505050604051601f3d908101601f191682016040526120cc9190810190613336565b603a806120d7612aeb565b9050106121085760405162461bcd60e51b81526004016120f6906138b9565b60405180910390612105612a80565b50505b6001612112610df0565b1015610a3a5760405162461bcd60e51b8152600401612130906136f3565b60405180910390611650612a80565b60008261214e5750600061093f565b8282028284828161215b57fe5b04146117965760405162461bcd60e51b81526004016121799061378f565b60405180910390612188612a80565b50509392505050565b6000611796838360405160408082019052601a81527f536166654d6174683a206469766973696f6e206279207a65726f00000000000060208201526129f9565b6000828201838110156117965760405162461bcd60e51b8152600401612179906135f0565b60006038612202612aeb565b6001600160a01b036101009290920a90041663046b72c460006039612225612aeb565b906101000a90046001600160a01b0316836040518363ffffffff1660e01b815260040161225392919061353c565b60006040518083038160008780612268612bf1565b15801561227d5760008061227a612a80565b50505b505a612287612e0e565b5050505050501580156122a7573d6000803e3d60006122a4612a80565b50505b5050505060008060386000906122bb612aeb565b6001600160a01b036101009290920a90041663b7a54526600060396122de612aeb565b906101000a90046001600160a01b03166040518263ffffffff1660e01b815260040161230a9190613474565b6040805180830381868061231c612bf1565b1580156123315760008061232e612a80565b50505b505a61233b612c3d565b505050505015801561235a573d6000803e3d6000612357612a80565b50505b50505050604051601f3d908101601f1916820160405261237d9190810190613359565b90925090507f1780c04ddc6f0b32d866c7a3d7583f53515ef49ed2126af868f804f491601266600060396123af612aeb565b906101000a90046001600160a01b03166123c7610a3e565b84846040516123d994939291906134cc565b60405180910390a1505050565b806035806001816123f5612aeb565b018082612400612b8c565b50506000928352600019019160209150200160018161241d612aeb565b816001600160a01b0302191690836001600160a01b031602179061243f612b8c565b50505060358061244d612aeb565b6001600160a01b03831660009081526036602052909150604090208190611650612b8c565b6000611796838360405160408082019052601e81527f536166654d6174683a207375627472616374696f6e206f766572666c6f7700006020820152612a42565b6000815190506000826020015190506124ca826114fe565b6124f85760405162461bcd60e51b81526004016124e690613855565b604051809103906124f5612a80565b50505b6001600160a01b0382166000908152603b60205261251d600160408320611dac612aeb565b90508115612570576000603a8281612533612aeb565b811061253b57fe5b90600052602060002001600160a01b81612553612aeb565b8160ff02191690831515021790612568612b8c565b505050612793565b61257983611883565b156125a85760405162461bcd60e51b815260040161259690613627565b604051809103906125a5612a80565b50505b6000603a806125b5612aeb565b905090506125c1612bda565b603a6125ce836001612472565b816125d7612aeb565b81106125df57fe5b90600052602060002001604051604080820190529081600082612600612aeb565b6001600160a01b036101009290920a9004168152602001601482612622612aeb565b60ff6101009290920a9004161515905250905080603a8481612642612aeb565b811061264a57fe5b90600052602060002001815181600181612662612aeb565b816001600160a01b0302191690836001600160a01b0316021790612684612b8c565b505050602082015181600160a01b8161269b612aeb565b8160ff021916908315150217906126b0612b8c565b506126c3935086925060019150506121d1565b603b600083516001600160a01b03166001600160a01b0316815260200190815260200160002081906126f3612b8c565b5050506001600160a01b0385166000908152603b602052604081208190612718612b8c565b505050603a80612726612aeb565b8061272d57fe5b6001900381819060005260206000200160008160018161274b612aeb565b906001600160a01b0302191690612760612b8c565b50829050600160a01b81612772612aeb565b9060ff02191690612781612b8c565b505050509061278e612b8c565b505050505b7fe965d54082969a663997d69c24092b2a8571d2fd7d9f74033800398bbab6ffe9600060396127c0612aeb565b906101000a90046001600160a01b03166127d8610a3e565b85856040516127ea94939291906134a2565b60405180910390a150505050565b6000815190506000826020015190506128108261142f565b15156001146128435760405162461bcd60e51b8152600401612831906135c9565b60405180910390612840612a80565b50505b61284c826114fe565b156128c3576001600160a01b0382166000908152603b602052612876600160408320611dac612aeb565b905081603a8281612885612aeb565b811061288d57fe5b90600052602060002001600160a01b816128a5612aeb565b8160ff021916908315150217906128ba612b8c565b505050506129a2565b603a604051604080820190526001600160a01b0384168152821515602082015290806001816128f0612aeb565b0180826128fb612b8c565b50506000928352600019019160209150200181518160018161291b612aeb565b816001600160a01b0302191690836001600160a01b031602179061293d612b8c565b505050602082015181600160a01b81612954612aeb565b8160ff02191690831515021790612969612b8c565b5050505050603a80612979612aeb565b6001600160a01b0384166000908152603b60205290915060409020819061299e612b8c565b5050505b7fdb9319bd5f91884f639cec9a5e01b183bedb3e6a3ab459b6e72c0b1264e7742b600060396129cf612aeb565b906101000a90046001600160a01b03166129e7610a3e565b84846040516123d994939291906134a2565b60008183612a2c5760405162461bcd60e51b8152600401612a1a91906135b6565b60405180910390612a29612a80565b50505b506000838581612a3857fe5b0495945050505050565b60008184841115612a785760405162461bcd60e51b8152600401612a6691906135b6565b60405180910390612a75612a80565b50505b505050900390565b632a2a7adb598160e01b8152600481016020815285602082015260005b86811015612ab8578086015182820160400152602001612a9d565b506020828760640184336000905af158600e01573d6000803e3d6000fd5b3d6001141558600a015760016000f35b505050565b6303daa959598160e01b8152836004820152602081602483336000905af158600e01573d6000803e3d6000fd5b3d6001141558600a015760016000f35b8051935060005b6040811015610f3c57600082820152602001612b2f565b6373509064598160e01b8152602081600483336000905af158600e01573d6000803e3d6000fd5b3d6001141558600a015760016000f35b80516000825293506020612b2f565b6322bd64c0598160e01b8152836004820152846024820152600081604483336000905af158600e01573d6000803e3d6000fd5b3d6001141558600a015760016000f35b600081526020612b2f565b604051604080820190526000808252602082015290565b638435035b598160e01b8152836004820152602081602483336000905af158600e01573d6000803e3d6000fd5b3d6001141558600a015760016000f35b80516000825293506020612b2f565b638540661f598160e01b8152612c6e565b808083111561093f575090919050565b808083101561093f575090919050565b836004820152846024820152606060448201528660648201526084810160005b88811015612ca6578088015182820152602001612c8e565b506060828960a40184336000905af158600e01573d6000803e3d6000fd5b3d6001141558600a015760016000f35b815160408301513d6000853e8b8b82606087013350600060045af15059612cfb8d3d612c5e565b8c01612d078187612c4e565b5b82811015612d1c5760008152602001612d08565b50929c50505050505050565b8280612d32612aeb565b600181600116156101000203166002900490600052602060002090601f016020900481019282601f10612d7957805160ff19168380011785612d72612b8c565b5050612db8565b82800160010185612d88612b8c565b50508215612db8579182015b82811115612db857825182612da7612b8c565b505091602001919060010190612d94565b50612dc4929150612ed4565b5090565b63bdbf8c36598160e01b8152602081600483336000905af158600e01573d6000803e3d6000fd5b3d6001141558600a015760016000f35b80516000825293506020612b2f565b6385979f76598160e01b8152836004820152846024820152606060448201528760648201526084810160005b89811015612e52578089015182820152602001612e3a565b506060828a60a40184336000905af158600e01573d6000803e3d6000fd5b3d6001141558600a015760016000f35b815160408301513d6000853e8c8c82606087013350600060045af15059612ea78e3d612c5e565b8d01612eb38187612c4e565b5b82811015612ec85760008152602001612eb4565b50929d50505050505050565b80821115612dc45760008082612ee8612b8c565b505050600101612ed4565b803561093f8161395d565b600082601f830112612f17578081612f14612a80565b50505b8135612f2a612f2582613934565b613900565b8181529150602080830190848101604080850287018301881015612f5657600080612f53612a80565b50505b6000805b86811015612fb25782848b031215612f79578182612f76612a80565b50505b612f8283613900565b8435612f8d8161395d565b815284860135612f9c81613978565b8187015286529484019492820192600101612f5a565b5050505050505092915050565b600082601f830112612fd8578081612fd5612a80565b50505b813567ffffffffffffffff811115612ff7578182612ff4612a80565b50505b61300a601f8201601f1916602001613900565b915080825283602082850101111561302a57600080613027612a80565b50505b8060208401602084013760009082016020015292915050565b60006020828403121561305d57808161305a612a80565b50505b81356117968161395d565b60006020828403121561308257808161307f612a80565b50505b81516117968161395d565b600080600080608085870312156130ab5782836130a8612a80565b50505b84356130b68161395d565b935060208501356130c68161395d565b9250604085013567ffffffffffffffff808211156130eb5783846130e8612a80565b50505b6130f788838901612fbf565b93506060870135915080821115613115578283613112612a80565b50505b5061312287828801612efe565b91505092959194509250565b60008060408385031215613149578182613146612a80565b50505b82356131548161395d565b9150602083013567ffffffffffffffff811115613178578182613175612a80565b50505b61318485828601612fbf565b9150509250929050565b600080604083850312156131a95781826131a6612a80565b50505b82356131b48161395d565b946020939093013593505050565b600060208083850312156131dd5781826131da612a80565b50505b823567ffffffffffffffff8111156131fc5782836131f9612a80565b50505b8301601f81018513613215578283613212612a80565b50505b8035613223612f2582613934565b8181528381019083850185840285018601891015613248578687613245612a80565b50505b8694505b838510156132725761325e8982612ef3565b83526001949094019391850191850161324c565b50979650505050505050565b60008060408385031215613299578182613296612a80565b50505b823567ffffffffffffffff808211156132b95783846132b6612a80565b50505b6132c586838701612efe565b935060208501359150808211156132e35782836132e0612a80565b50505b5061318485828601612efe565b60006020828403121561330a578081613307612a80565b50505b815161179681613978565b60006020828403121561332f57808161332c612a80565b50505b5035919050565b60006020828403121561335057808161334d612a80565b50505b81519392505050565b60008060408385031215613374578182613371612a80565b50505b82519150602083015190509250929050565b6000602082840312156133a057808161339d612a80565b50505b815160ff81168114611796578182612188612a80565b60008151808452602093840193838101835b838110156133ed576001600160a01b03825116875295820195908201906001016133c8565b509495945050505050565b60008151808452602093840193838101835b838110156133ed5781518752958201959082019060010161340a565b60008151808452815b8181101561344e5760208082860101518683019091015260200161342f565b8181111561345f5782602083870101525b50601f01601f19169290920160200192915050565b6001600160a01b0391909116815260200190565b6001600160a01b0392831681529116602082015260400190565b6001600160a01b039485168152928416602084015292166040820152901515606082015260800190565b6001600160a01b0394851681529290931660208301526040820152606081019190915260800190565b6001600160a01b039290921682521515602082015260400190565b6001600160a01b038316815260406020820181905260009061353490830184613426565b949350505050565b6001600160a01b03929092168252602082015260400190565b60006020825261179660208301846133b6565b60006060825261357b60608301866133b6565b828103602084015261358d81866133f8565b905082810360408401526135a181856133f8565b9695505050505050565b901515815260200190565b6000602082526117966020830184613426565b6020808252600d908201526c1a5b9d985b1a5908185cdcd95d609a1b604082015260600190565b6020808252601b908201527f536166654d6174683a206164646974696f6e206f766572666c6f770000000000604082015260600190565b6020808252601d908201527f63616e6e6f742072656d6f7665206e6f6e2d656d707479206173736574000000604082015260600190565b6020808252600c908201526b37b7363c9036b0b730b3b2b960a11b604082015260600190565b602080825260129082015271696e76616c696420706f6f6c206c6f67696360701b604082015260600190565b60208082526023908201527f6f6e6c792044414f206f7220666163746f7279206164647265737320616c6c6f6040820152621dd95960ea1b606082015260800190565b60208082526022908201527f72657175697265206174206c65617374206f6e65206465706f73697420617373604082015261195d60f21b606082015260800190565b60208082526016908201527537b7363c9036b0b730b3b2b91037b9103a3930b232b960511b604082015260600190565b60208082526010908201526f34b73b30b634b210333930b1ba34b7b760811b604082015260600190565b60208082526021908201527f536166654d6174683a206d756c7469706c69636174696f6e206f766572666c6f6040820152607760f81b606082015260800190565b60208082526019908201527f66656520696e6372656173652064656c61792061637469766500000000000000604082015260600190565b6020808252602e908201527f436f6e747261637420696e7374616e63652068617320616c726561647920626560408201526d195b881a5b9a5d1a585b1a5e995960921b606082015260800190565b602080825260139082015272185cdcd95d081b9bdd081cdd5c1c1bdc9d1959606a1b604082015260600190565b60208082526019908201527f657863656564656420616c6c6f77656420696e63726561736500000000000000604082015260600190565b6020808252601690820152751b585e1a5b5d5b48185cdcd95d1cc81c995858da195960521b604082015260600190565b90815260200190565b918252602082015260400190565b6000604051905081810181811067ffffffffffffffff8211171561392c57600080613929612a80565b50505b604052919050565b600067ffffffffffffffff821115613953578081613950612a80565b50505b5060209081020190565b6001600160a01b038116811461052f57600080610f3c612a80565b801515811461052f57600080610f3c612a8056",
  "deployedBytecode": "0x608060405234801561001957600080610016612a80565b50505b50600436106102305760003560e01c80638f32343911610139578063bdbef07d116100c1578063d8af8ed411610085578063d8af8ed41461045f578063e5406dbf14610472578063ed5b165d1461047a578063f09d14d714610482578063fed4416a1461049957610230565b8063bdbef07d146103fd578063c45a015514610410578063c68dbb3714610418578063ca6d56dc14610439578063cd88e5581461044c57610230565b80639eab5253116101085780639eab5253146103b2578063a30e3fa9146103c7578063a6bc18f9146103cf578063b8bd81e6146103e2578063bbbf725b146103ea57610230565b80638f3234391461037c5780639240d29914610384578063936553c4146103975780639be918e61461039f57610230565b806352213663116101bc5780636f4d469b1161018b5780636f4d469b1461032657806372260e0f146103395780637b4d0c631461034c5780637c8afd51146103545780638e10153d1461035c57610230565b806352213663146102f057806353f064c9146103035780635cd50e48146103165780636e890f3c1461031e57610230565b806329c07fba1161020357806329c07fba1461029a57806339b81fd9146102ba5780633c570d7d146102c257806346ee84b0146102d5578063481c6a75146102e857610230565b80630b1ca49a1461023e578063147bf0be146102535780631758078b146102665780631980553814610284575b60008061023b612a80565b50505b61025161024c366004613043565b6104ae565b005b61025161026136600461308d565b610532565b61026e6106cd565b60405161027b9190613474565b60405180910390f35b61028c6106ef565b60405161027b9291906138f2565b6102ad6102a836600461318e565b6107c7565b60405161027b91906138e9565b61026e610945565b6102ad6102d0366004613043565b610964565b6102516102e33660046131c2565b61097f565b61026e610a3e565b6102516102fe36600461312e565b610a4b565b610251610311366004613315565b610b36565b6102ad610df0565b610251610e63565b6102516103343660046131c2565b610f41565b61025161034736600461327e565b610ff0565b6102ad61109f565b6102516110a9565b61036f61036a366004613043565b611140565b60405161027b91906135ab565b6102ad611425565b61036f610392366004613043565b61142f565b6102ad6114eb565b61036f6103ad366004613043565b6114fe565b6103ba611526565b60405161027b9190613555565b6102ad6115ad565b6102516103dd366004613043565b6115ba565b610251611656565b61036f6103f8366004613043565b61170b565b61036f61040b366004613043565b61172b565b61026e61179d565b61042b610426366004613315565b6117a9565b60405161027b9291906134f5565b610251610447366004613043565b611801565b6102ad61045a366004613043565b611883565b6102ad61046d366004613043565b61193f565b6103ba61194e565b61028c611a30565b61048a611a47565b60405161027b93929190613568565b6104a1611cc1565b60405161027b91906135b6565b600060336104ba612aeb565b906101000a90046001600160a01b03166001600160a01b03165a6104dc612b46565b6001600160a01b0316146105145760405162461bcd60e51b81526004016105029061365e565b60405180910390610511612a80565b50505b61051d8161170b565b6105265761052f565b61052f81611d75565b50565b6001600061053e612aeb565b906101000a900460ff16806105565750610556611ef6565b806105735750600080610567612aeb565b906101000a900460ff16155b6105a15760405162461bcd60e51b815260040161058f90613807565b6040518091039061059e612a80565b50505b60006001816105ae612aeb565b906101000a900460ff1615905080156106145760016000610100816105d1612aeb565b8160ff021916908315150217906105e6612b8c565b50505060016000806101000a816105fb612aeb565b8160ff02191690831515021790610610612b8c565b5050505b61061e8484611f67565b84603860018161062c612aeb565b816001600160a01b0302191690836001600160a01b031602179061064e612b8c565b506106989150839050600060405190808252806020026020018201604052801561069257816020015b61067f612bda565b8152602001906001900390816106775790505b50611fae565b80156106c657600080610100816106ad612aeb565b8160ff021916908315150217906106c2612b8c565b5050505b5050505050565b60008060376106da612aeb565b906101000a90046001600160a01b0316905090565b6000808060386106fd612aeb565b6001600160a01b036101009290920a90041663b7a5452660006039610720612aeb565b906101000a90046001600160a01b03166040518263ffffffff1660e01b815260040161074c9190613474565b6040805180830381868061075e612bf1565b15801561077357600080610770612a80565b50505b505a61077d612c3d565b505050505015801561079c573d6000803e3d6000610799612a80565b50505b50505050604051601f3d908101601f191682016040526107bf9190810190613359565b915091509091565b6000808060386107d5612aeb565b906101000a90046001600160a01b03166001600160a01b031663b3596f07856040518263ffffffff1660e01b81526004016108109190613474565b6020604051808303818680610823612bf1565b15801561083857600080610835612a80565b50505b505a610842612c3d565b5050505050158015610861573d6000803e3d600061085e612a80565b50505b50505050604051601f3d908101601f191682016040526108849190810190613336565b90506000846001600160a01b031663313ce5676040518163ffffffff1660e01b815260040160206040518083038186806108bc612bf1565b1580156108d1576000806108ce612a80565b50505b505a6108db612c3d565b50505050501580156108fa573d6000803e3d60006108f7612a80565b50505b50505050604051601f3d908101601f1916820160405261091d9190810190613386565b60ff16905061093a600a82900a610934848761213f565b90612191565b925050505b92915050565b60006039610951612aeb565b906101000a90046001600160a01b031681565b603b602052806000526040600020905061097c612aeb565b81565b6000603361098b612aeb565b906101000a90046001600160a01b03166001600160a01b03165a6109ad612b46565b6001600160a01b0316146109e55760405162461bcd60e51b81526004016109d39061365e565b604051809103906109e2612a80565b50505b60005b8151811015610a3a57610a0d828281518110610a0057fe5b602002602001015161170b565b610a1657610a32565b610a32828281518110610a2557fe5b6020026020010151611d75565b6001016109e8565b5050565b60008060336106da612aeb565b60006033610a57612aeb565b906101000a90046001600160a01b03166001600160a01b03165a610a79612b46565b6001600160a01b031614610ab15760405162461bcd60e51b8152600401610a9f9061365e565b60405180910390610aae612a80565b50505b816033600181610abf612aeb565b816001600160a01b0302191690836001600160a01b0316021790610ae1612b8c565b505050806034908051610af8929160200190612d28565b507f6ed15082ad038474841528b5badca105106d4463e44b5d434130dfb299aa36698282604051610b2a929190613510565b60405180910390a15050565b60006033610b42612aeb565b906101000a90046001600160a01b03166001600160a01b03165a610b64612b46565b6001600160a01b031614610b9c5760405162461bcd60e51b8152600401610b8a9061365e565b60405180910390610b99612a80565b50505b6000806038610ba9612aeb565b906101000a90046001600160a01b03166001600160a01b0316635c9bfc2b6040518163ffffffff1660e01b81526004016020604051808303818680610bec612bf1565b158015610c0157600080610bfe612a80565b50505b505a610c0b612c3d565b5050505050158015610c2a573d6000803e3d6000610c27612a80565b50505b50505050604051601f3d908101601f19168201604052610c4d9190810190613336565b9050600080610c5a6106ef565b909250905080841115610c915760405162461bcd60e51b8152600401610c7f90613765565b60405180910390610c8e612a80565b50505b610c9b82846121d1565b841115610ccc5760405162461bcd60e51b8152600401610cba90613882565b60405180910390610cc9612a80565b50505b6000806038610cd9612aeb565b906101000a90046001600160a01b03166001600160a01b031663ebee461d6040518163ffffffff1660e01b81526004016020604051808303818680610d1c612bf1565b158015610d3157600080610d2e612a80565b50505b505a610d3b612c3d565b5050505050158015610d5a573d6000803e3d6000610d57612a80565b50505b50505050604051601f3d908101601f19168201604052610d7d9190810190613336565b90508480603c610d8b612b8c565b505050805a610d98612dc8565b0180603d610da4612b8c565b5050507f4db9119741646c419f1ceccdf112b5b9a9b4516355e742e1fa9c479f4dec98da85603d610dd3612aeb565b604051610de19291906138f2565b60405180910390a15050505050565b600080805b603a80610e00612aeb565b90508160ff161015610e5d57603a8160ff1681610e1b612aeb565b8110610e2357fe5b90600052602060002060149101610e38612aeb565b906101000a900460ff1615610e5557610e528260016121d1565b91505b600101610df5565b50905090565b60006033610e6f612aeb565b906101000a90046001600160a01b03166001600160a01b03165a610e91612b46565b6001600160a01b031614610ec95760405162461bcd60e51b8152600401610eb79061365e565b60405180910390610ec6612a80565b50505b603d610ed3612aeb565b5a610edc612dc8565b1015610f0c5760405162461bcd60e51b8152600401610efa906137d0565b60405180910390610f09612a80565b50505b610f1e603c610f19612aeb565b6121f6565b600080603c610f2b612b8c565b5050506000603d8190610f3c612b8c565b505050565b60006033610f4d612aeb565b906101000a90046001600160a01b03166001600160a01b03165a610f6f612b46565b6001600160a01b031614610fa75760405162461bcd60e51b8152600401610f959061365e565b60405180910390610fa4612a80565b50505b60005b8151811015610a3a57610fc2828281518110610a0057fe5b15610fcc57610fe8565b610fe8828281518110610fdb57fe5b60200260200101516123e6565b600101610faa565b60006033610ffc612aeb565b906101000a90046001600160a01b03166001600160a01b03165a61101e612b46565b6001600160a01b0316148061106757506000603761103a612aeb565b906101000a90046001600160a01b03166001600160a01b03165a61105c612b46565b6001600160a01b0316145b6110955760405162461bcd60e51b815260040161108390613735565b60405180910390611092612a80565b50505b610a3a8282611fae565b603d61097c612aeb565b600060336110b5612aeb565b906101000a90046001600160a01b03166001600160a01b03165a6110d7612b46565b6001600160a01b03161461110f5760405162461bcd60e51b81526004016110fd9061365e565b6040518091039061110c612a80565b50505b6000603760018161111e612aeb565b816001600160a01b0302191690836001600160a01b0316021790610f3c612b8c565b600080603861114d612aeb565b906101000a90046001600160a01b03166001600160a01b03165a61116f612b46565b6001600160a01b0316148061124c57506000603861118b612aeb565b906101000a90046001600160a01b03166001600160a01b0316631d68702d6040518163ffffffff1660e01b815260040160206040518083038186806111ce612bf1565b1580156111e3576000806111e0612a80565b50505b505a6111ed612c3d565b505050505015801561120c573d6000803e3d6000611209612a80565b50505b50505050604051601f3d908101601f1916820160405261122f9190810190613068565b6001600160a01b03165a611241612b46565b6001600160a01b0316145b61127a5760405162461bcd60e51b8152600401611268906136b0565b60405180910390611277612a80565b50505b5a63996d79a5598160e01b8152602081600483336000905af158601d01573d60011458600c01573d6000803e3d621234565260ea61109c528051925060005b60408110156112d0576000828201526020016112b9565b5050506001600160a01b0316826001600160a01b0316631e50a4a66040518163ffffffff1660e01b81526004016020604051808303818680611310612bf1565b15801561132557600080611322612a80565b50505b505a61132f612c3d565b505050505015801561134e573d6000803e3d600061134b612a80565b50505b50505050604051601f3d908101601f191682016040526113719190810190613068565b6001600160a01b0316146113a95760405162461bcd60e51b815260040161139790613684565b604051809103906113a6612a80565b50505b8160396001816113b7612aeb565b816001600160a01b0302191690836001600160a01b03160217906113d9612b8c565b5050507f8c1446ebd2ac8c922b8c9716dfbdfcfef02c9fc167140d7cfd019565b423b249825a611407612b46565b604051611415929190613488565b60405180910390a1506001919050565b603c61097c612aeb565b600080603861143c612aeb565b906101000a90046001600160a01b03166001600160a01b031663cc435bf3836040518263ffffffff1660e01b81526004016114779190613474565b602060405180830381868061148a612bf1565b15801561149f5760008061149c612a80565b50505b505a6114a9612c3d565b50505050501580156114c8573d6000803e3d60006114c5612a80565b50505b50505050604051601f3d908101601f1916820160405261093f91908101906132f0565b6000603a806114f8612aeb565b91505090565b6001600160a01b0381166000908152603b6020526040812061151e612aeb565b151592915050565b6060603580611533612aeb565b806020026020016040519081016040528181529190602083018280611556612aeb565b80156115a357602002820191906000526020600020905b600082611578612aeb565b906101000a90046001600160a01b03166001600160a01b03168152602001906001019080831161156d575b5050505050905090565b60006035806114f8612aeb565b600060336115c6612aeb565b906101000a90046001600160a01b03166001600160a01b03165a6115e8612b46565b6001600160a01b0316146116205760405162461bcd60e51b815260040161160e9061365e565b6040518091039061161d612a80565b50505b80603760018161162e612aeb565b816001600160a01b0302191690836001600160a01b0316021790611650612b8c565b50505050565b60006033611662612aeb565b906101000a90046001600160a01b03166001600160a01b03165a611684612b46565b6001600160a01b0316146116bc5760405162461bcd60e51b81526004016116aa9061365e565b604051809103906116b9612a80565b50505b600080603c6116c9612b8c565b5050506000603d81906116da612b8c565b5050507fc6f04bf43cbdf1ba5d51b4afa160bb3c7e13858b1409aa32868b239bb2f8d84960405160405180910390a1565b6001600160a01b038116600090815260366020526040812061151e612aeb565b6001600160a01b0381166000908152603b602052806040812061174c612aeb565b905080158015906117965750603a611765826001612472565b8161176e612aeb565b811061177657fe5b9060005260206000206014910161178b612aeb565b906101000a900460ff165b9392505050565b60006038610951612aeb565b603a81816117b5612aeb565b81106117bd57fe5b9060005260206000200190506000816117d4612aeb565b6001600160a01b036101009290920a900416906014816117f2612aeb565b906101000a900460ff16905082565b6000603361180d612aeb565b906101000a90046001600160a01b03166001600160a01b03165a61182f612b46565b6001600160a01b0316146118675760405162461bcd60e51b81526004016118559061365e565b60405180910390611864612a80565b50505b6118708161170b565b1561187a5761052f565b61052f816123e6565b60006001600160a01b0382166370a0823182603961189f612aeb565b906101000a90046001600160a01b03166040518263ffffffff1660e01b81526004016118cb9190613474565b60206040518083038186806118de612bf1565b1580156118f3576000806118f0612a80565b50505b505a6118fd612c3d565b505050505015801561191c573d6000803e3d6000611919612a80565b50505b50505050604051601f3d908101601f1916820160405261093f9190810190613336565b600061093f826102a884611883565b60606000603a8061195d612aeb565b9050905060608167ffffffffffffffff8111801561198357600080611980612a80565b50505b506040519080825280602002602001820160405280156119ad578160200160208202803683370190505b50905060005b828160ff161015611a2957603a8160ff16816119cd612aeb565b81106119d557fe5b906000526020600020600091016119ea612aeb565b906101000a90046001600160a01b0316828260ff1681518110611a0957fe5b6001600160a01b03909216602092830291909101909101526001016119b3565b5091505090565b600080603c611a3d612aeb565b603d6107bf612aeb565b60608060606000603a80611a59612aeb565b9050905060608167ffffffffffffffff81118015611a7f57600080611a7c612a80565b50505b50604051908082528060200260200182016040528015611aa9578160200160208202803683370190505b50905060608267ffffffffffffffff81118015611ace57600080611acb612a80565b50505b50604051908082528060200260200182016040528015611af8578160200160208202803683370190505b50905060608367ffffffffffffffff81118015611b1d57600080611b1a612a80565b50505b50604051908082528060200260200182016040528015611b47578160200160208202803683370190505b50905060005b84811015611cb3576000603a8281611b63612aeb565b8110611b6b57fe5b90600052602060002060009101611b80612aeb565b906101000a90046001600160a01b03169050611b9b81611883565b848381518110611ba757fe5b60200260200101818152505080858381518110611bc057fe5b6001600160a01b039092166020928302919091019091015260006038611be4612aeb565b906101000a90046001600160a01b03166001600160a01b031663b3596f07826040518263ffffffff1660e01b8152600401611c1f9190613474565b6020604051808303818680611c32612bf1565b158015611c4757600080611c44612a80565b50505b505a611c51612c3d565b5050505050158015611c70573d6000803e3d6000611c6d612a80565b50505b50505050604051601f3d908101601f19168201604052611c939190810190613336565b838381518110611c9f57fe5b602090810291909101015250600101611b4d565b509195509350915050909192565b6060603480611cce612aeb565b600181600116156101000203166002900480601f016020809104026020016040519081016040528181529190602083018280611d08612aeb565b600181600116156101000203166002900480156115a35780601f10611d42576101008083611d34612aeb565b0402835291602001916115a3565b820191906000526020600020905b81611d59612aeb565b81529060010190602001808311611d5057509395945050505050565b6000603580611d82612aeb565b6001600160a01b038416600090815260366020529092509050611db2600160408320611dac612aeb565b90612472565b905060006035611dc3846001612472565b81611dcc612aeb565b8110611dd457fe5b90600052602060002001600090611de9612aeb565b906101000a90046001600160a01b031690508060358381611e08612aeb565b8110611e1057fe5b90600052602060002001600181611e25612aeb565b816001600160a01b0302191690836001600160a01b0316021790611e47612b8c565b50611e57915083905060016121d1565b6001600160a01b03821660009081526036602052604090208190611e79612b8c565b5050506001600160a01b03841660009081526036602052604081208190611e9e612b8c565b505050603580611eac612aeb565b80611eb357fe5b60019003818190600052602060002001600181611ece612aeb565b906001600160a01b0302191690611ee3612b8c565b505090611eee612b8c565b505050505050565b6000805a63996d79a5598160e01b8152602081600483336000905af158601d01573d60011458600c01573d6000803e3d621234565260ea61109c528051925060005b6040811015611f4f57600082820152602001611f38565b5050509050600081611f5f612bf1565b159250505090565b816033600181611f75612aeb565b816001600160a01b0302191690836001600160a01b0316021790611f97612b8c565b505050806034908051610f3c929160200190612d28565b60005b81518160ff161015611fe457611fdc828260ff1681518110611fcf57fe5b60200260200101516124b2565b600101611fb1565b5060005b82518160ff16101561201b57612013838260ff168151811061200657fe5b60200260200101516127f8565b600101611fe8565b5060006038612028612aeb565b906101000a90046001600160a01b03166001600160a01b031663aa12ae4d6040518163ffffffff1660e01b8152600401602060405180830381868061206b612bf1565b1580156120805760008061207d612a80565b50505b505a61208a612c3d565b50505050501580156120a9573d6000803e3d60006120a6612a80565b50505b50505050604051601f3d908101601f191682016040526120cc9190810190613336565b603a806120d7612aeb565b9050106121085760405162461bcd60e51b81526004016120f6906138b9565b60405180910390612105612a80565b50505b6001612112610df0565b1015610a3a5760405162461bcd60e51b8152600401612130906136f3565b60405180910390611650612a80565b60008261214e5750600061093f565b8282028284828161215b57fe5b04146117965760405162461bcd60e51b81526004016121799061378f565b60405180910390612188612a80565b50509392505050565b6000611796838360405160408082019052601a81527f536166654d6174683a206469766973696f6e206279207a65726f00000000000060208201526129f9565b6000828201838110156117965760405162461bcd60e51b8152600401612179906135f0565b60006038612202612aeb565b6001600160a01b036101009290920a90041663046b72c460006039612225612aeb565b906101000a90046001600160a01b0316836040518363ffffffff1660e01b815260040161225392919061353c565b60006040518083038160008780612268612bf1565b15801561227d5760008061227a612a80565b50505b505a612287612e0e565b5050505050501580156122a7573d6000803e3d60006122a4612a80565b50505b5050505060008060386000906122bb612aeb565b6001600160a01b036101009290920a90041663b7a54526600060396122de612aeb565b906101000a90046001600160a01b03166040518263ffffffff1660e01b815260040161230a9190613474565b6040805180830381868061231c612bf1565b1580156123315760008061232e612a80565b50505b505a61233b612c3d565b505050505015801561235a573d6000803e3d6000612357612a80565b50505b50505050604051601f3d908101601f1916820160405261237d9190810190613359565b90925090507f1780c04ddc6f0b32d866c7a3d7583f53515ef49ed2126af868f804f491601266600060396123af612aeb565b906101000a90046001600160a01b03166123c7610a3e565b84846040516123d994939291906134cc565b60405180910390a1505050565b806035806001816123f5612aeb565b018082612400612b8c565b50506000928352600019019160209150200160018161241d612aeb565b816001600160a01b0302191690836001600160a01b031602179061243f612b8c565b50505060358061244d612aeb565b6001600160a01b03831660009081526036602052909150604090208190611650612b8c565b6000611796838360405160408082019052601e81527f536166654d6174683a207375627472616374696f6e206f766572666c6f7700006020820152612a42565b6000815190506000826020015190506124ca826114fe565b6124f85760405162461bcd60e51b81526004016124e690613855565b604051809103906124f5612a80565b50505b6001600160a01b0382166000908152603b60205261251d600160408320611dac612aeb565b90508115612570576000603a8281612533612aeb565b811061253b57fe5b90600052602060002001600160a01b81612553612aeb565b8160ff02191690831515021790612568612b8c565b505050612793565b61257983611883565b156125a85760405162461bcd60e51b815260040161259690613627565b604051809103906125a5612a80565b50505b6000603a806125b5612aeb565b905090506125c1612bda565b603a6125ce836001612472565b816125d7612aeb565b81106125df57fe5b90600052602060002001604051604080820190529081600082612600612aeb565b6001600160a01b036101009290920a9004168152602001601482612622612aeb565b60ff6101009290920a9004161515905250905080603a8481612642612aeb565b811061264a57fe5b90600052602060002001815181600181612662612aeb565b816001600160a01b0302191690836001600160a01b0316021790612684612b8c565b505050602082015181600160a01b8161269b612aeb565b8160ff021916908315150217906126b0612b8c565b506126c3935086925060019150506121d1565b603b600083516001600160a01b03166001600160a01b0316815260200190815260200160002081906126f3612b8c565b5050506001600160a01b0385166000908152603b602052604081208190612718612b8c565b505050603a80612726612aeb565b8061272d57fe5b6001900381819060005260206000200160008160018161274b612aeb565b906001600160a01b0302191690612760612b8c565b50829050600160a01b81612772612aeb565b9060ff02191690612781612b8c565b505050509061278e612b8c565b505050505b7fe965d54082969a663997d69c24092b2a8571d2fd7d9f74033800398bbab6ffe9600060396127c0612aeb565b906101000a90046001600160a01b03166127d8610a3e565b85856040516127ea94939291906134a2565b60405180910390a150505050565b6000815190506000826020015190506128108261142f565b15156001146128435760405162461bcd60e51b8152600401612831906135c9565b60405180910390612840612a80565b50505b61284c826114fe565b156128c3576001600160a01b0382166000908152603b602052612876600160408320611dac612aeb565b905081603a8281612885612aeb565b811061288d57fe5b90600052602060002001600160a01b816128a5612aeb565b8160ff021916908315150217906128ba612b8c565b505050506129a2565b603a604051604080820190526001600160a01b0384168152821515602082015290806001816128f0612aeb565b0180826128fb612b8c565b50506000928352600019019160209150200181518160018161291b612aeb565b816001600160a01b0302191690836001600160a01b031602179061293d612b8c565b505050602082015181600160a01b81612954612aeb565b8160ff02191690831515021790612969612b8c565b5050505050603a80612979612aeb565b6001600160a01b0384166000908152603b60205290915060409020819061299e612b8c565b5050505b7fdb9319bd5f91884f639cec9a5e01b183bedb3e6a3ab459b6e72c0b1264e7742b600060396129cf612aeb565b906101000a90046001600160a01b03166129e7610a3e565b84846040516123d994939291906134a2565b60008183612a2c5760405162461bcd60e51b8152600401612a1a91906135b6565b60405180910390612a29612a80565b50505b506000838581612a3857fe5b0495945050505050565b60008184841115612a785760405162461bcd60e51b8152600401612a6691906135b6565b60405180910390612a75612a80565b50505b505050900390565b632a2a7adb598160e01b8152600481016020815285602082015260005b86811015612ab8578086015182820160400152602001612a9d565b506020828760640184336000905af158601d01573d60011458600c01573d6000803e3d621234565260ea61109c52505050565b6303daa959598160e01b8152836004820152602081602483336000905af158601d01573d60011458600c01573d6000803e3d621234565260ea61109c528051935060005b6040811015610f3c57600082820152602001612b2f565b6373509064598160e01b8152602081600483336000905af158601d01573d60011458600c01573d6000803e3d621234565260ea61109c5280516000825293506020612b2f565b6322bd64c0598160e01b8152836004820152846024820152600081604483336000905af158601d01573d60011458600c01573d6000803e3d621234565260ea61109c52600081526020612b2f565b604051604080820190526000808252602082015290565b638435035b598160e01b8152836004820152602081602483336000905af158601d01573d60011458600c01573d6000803e3d621234565260ea61109c5280516000825293506020612b2f565b638540661f598160e01b8152612c6e565b808083111561093f575090919050565b808083101561093f575090919050565b836004820152846024820152606060448201528660648201526084810160005b88811015612ca6578088015182820152602001612c8e565b506060828960a40184336000905af158601d01573d60011458600c01573d6000803e3d621234565260ea61109c52815160408301513d6000853e8b8b82606087013350600060045af15059612cfb8d3d612c5e565b8c01612d078187612c4e565b5b82811015612d1c5760008152602001612d08565b50929c50505050505050565b8280612d32612aeb565b600181600116156101000203166002900490600052602060002090601f016020900481019282601f10612d7957805160ff19168380011785612d72612b8c565b5050612db8565b82800160010185612d88612b8c565b50508215612db8579182015b82811115612db857825182612da7612b8c565b505091602001919060010190612d94565b50612dc4929150612ed4565b5090565b63bdbf8c36598160e01b8152602081600483336000905af158601d01573d60011458600c01573d6000803e3d621234565260ea61109c5280516000825293506020612b2f565b6385979f76598160e01b8152836004820152846024820152606060448201528760648201526084810160005b89811015612e52578089015182820152602001612e3a565b506060828a60a40184336000905af158601d01573d60011458600c01573d6000803e3d621234565260ea61109c52815160408301513d6000853e8c8c82606087013350600060045af15059612ea78e3d612c5e565b8d01612eb38187612c4e565b5b82811015612ec85760008152602001612eb4565b50929d50505050505050565b80821115612dc45760008082612ee8612b8c565b505050600101612ed4565b803561093f8161395d565b600082601f830112612f17578081612f14612a80565b50505b8135612f2a612f2582613934565b613900565b8181529150602080830190848101604080850287018301881015612f5657600080612f53612a80565b50505b6000805b86811015612fb25782848b031215612f79578182612f76612a80565b50505b612f8283613900565b8435612f8d8161395d565b815284860135612f9c81613978565b8187015286529484019492820192600101612f5a565b5050505050505092915050565b600082601f830112612fd8578081612fd5612a80565b50505b813567ffffffffffffffff811115612ff7578182612ff4612a80565b50505b61300a601f8201601f1916602001613900565b915080825283602082850101111561302a57600080613027612a80565b50505b8060208401602084013760009082016020015292915050565b60006020828403121561305d57808161305a612a80565b50505b81356117968161395d565b60006020828403121561308257808161307f612a80565b50505b81516117968161395d565b600080600080608085870312156130ab5782836130a8612a80565b50505b84356130b68161395d565b935060208501356130c68161395d565b9250604085013567ffffffffffffffff808211156130eb5783846130e8612a80565b50505b6130f788838901612fbf565b93506060870135915080821115613115578283613112612a80565b50505b5061312287828801612efe565b91505092959194509250565b60008060408385031215613149578182613146612a80565b50505b82356131548161395d565b9150602083013567ffffffffffffffff811115613178578182613175612a80565b50505b61318485828601612fbf565b9150509250929050565b600080604083850312156131a95781826131a6612a80565b50505b82356131b48161395d565b946020939093013593505050565b600060208083850312156131dd5781826131da612a80565b50505b823567ffffffffffffffff8111156131fc5782836131f9612a80565b50505b8301601f81018513613215578283613212612a80565b50505b8035613223612f2582613934565b8181528381019083850185840285018601891015613248578687613245612a80565b50505b8694505b838510156132725761325e8982612ef3565b83526001949094019391850191850161324c565b50979650505050505050565b60008060408385031215613299578182613296612a80565b50505b823567ffffffffffffffff808211156132b95783846132b6612a80565b50505b6132c586838701612efe565b935060208501359150808211156132e35782836132e0612a80565b50505b5061318485828601612efe565b60006020828403121561330a578081613307612a80565b50505b815161179681613978565b60006020828403121561332f57808161332c612a80565b50505b5035919050565b60006020828403121561335057808161334d612a80565b50505b81519392505050565b60008060408385031215613374578182613371612a80565b50505b82519150602083015190509250929050565b6000602082840312156133a057808161339d612a80565b50505b815160ff81168114611796578182612188612a80565b60008151808452602093840193838101835b838110156133ed576001600160a01b03825116875295820195908201906001016133c8565b509495945050505050565b60008151808452602093840193838101835b838110156133ed5781518752958201959082019060010161340a565b60008151808452815b8181101561344e5760208082860101518683019091015260200161342f565b8181111561345f5782602083870101525b50601f01601f19169290920160200192915050565b6001600160a01b0391909116815260200190565b6001600160a01b0392831681529116602082015260400190565b6001600160a01b039485168152928416602084015292166040820152901515606082015260800190565b6001600160a01b0394851681529290931660208301526040820152606081019190915260800190565b6001600160a01b039290921682521515602082015260400190565b6001600160a01b038316815260406020820181905260009061353490830184613426565b949350505050565b6001600160a01b03929092168252602082015260400190565b60006020825261179660208301846133b6565b60006060825261357b60608301866133b6565b828103602084015261358d81866133f8565b905082810360408401526135a181856133f8565b9695505050505050565b901515815260200190565b6000602082526117966020830184613426565b6020808252600d908201526c1a5b9d985b1a5908185cdcd95d609a1b604082015260600190565b6020808252601b908201527f536166654d6174683a206164646974696f6e206f766572666c6f770000000000604082015260600190565b6020808252601d908201527f63616e6e6f742072656d6f7665206e6f6e2d656d707479206173736574000000604082015260600190565b6020808252600c908201526b37b7363c9036b0b730b3b2b960a11b604082015260600190565b602080825260129082015271696e76616c696420706f6f6c206c6f67696360701b604082015260600190565b60208082526023908201527f6f6e6c792044414f206f7220666163746f7279206164647265737320616c6c6f6040820152621dd95960ea1b606082015260800190565b60208082526022908201527f72657175697265206174206c65617374206f6e65206465706f73697420617373604082015261195d60f21b606082015260800190565b60208082526016908201527537b7363c9036b0b730b3b2b91037b9103a3930b232b960511b604082015260600190565b60208082526010908201526f34b73b30b634b210333930b1ba34b7b760811b604082015260600190565b60208082526021908201527f536166654d6174683a206d756c7469706c69636174696f6e206f766572666c6f6040820152607760f81b606082015260800190565b60208082526019908201527f66656520696e6372656173652064656c61792061637469766500000000000000604082015260600190565b6020808252602e908201527f436f6e747261637420696e7374616e63652068617320616c726561647920626560408201526d195b881a5b9a5d1a585b1a5e995960921b606082015260800190565b602080825260139082015272185cdcd95d081b9bdd081cdd5c1c1bdc9d1959606a1b604082015260600190565b60208082526019908201527f657863656564656420616c6c6f77656420696e63726561736500000000000000604082015260600190565b6020808252601690820152751b585e1a5b5d5b48185cdcd95d1cc81c995858da195960521b604082015260600190565b90815260200190565b918252602082015260400190565b6000604051905081810181811067ffffffffffffffff8211171561392c57600080613929612a80565b50505b604052919050565b600067ffffffffffffffff821115613953578081613950612a80565b50505b5060209081020190565b6001600160a01b038116811461052f57600080610f3c612a80565b801515811461052f57600080610f3c612a8056",
  "linkReferences": {},
  "deployedLinkReferences": {}
}