{
  "_format": "hh-sol-artifact-1",
  "contractName": "PoolManagerLogic-ovm",
  "sourceName": "contracts/PoolManagerLogic.sol",
  "abi": [
    {
      "anonymous": false,
      "inputs": [
        {
          "indexed": false,
          "internalType": "address",
          "name": "fundAddress",
          "type": "address"
        },
        {
          "indexed": false,
          "internalType": "address",
          "name": "manager",
          "type": "address"
        },
        {
          "indexed": false,
          "internalType": "address",
          "name": "asset",
          "type": "address"
        }
      ],
      "name": "AssetAdded",
      "type": "event"
    },
    {
      "anonymous": false,
      "inputs": [
        {
          "indexed": false,
          "internalType": "address",
          "name": "fundAddress",
          "type": "address"
        },
        {
          "indexed": false,
          "internalType": "address",
          "name": "manager",
          "type": "address"
        },
        {
          "indexed": false,
          "internalType": "address",
          "name": "asset",
          "type": "address"
        }
      ],
      "name": "AssetRemoved",
      "type": "event"
    },
    {
      "anonymous": false,
      "inputs": [
        {
          "indexed": false,
          "internalType": "uint256",
          "name": "newNumerator",
          "type": "uint256"
        },
        {
          "indexed": false,
          "internalType": "uint256",
          "name": "announcedFeeActivationTime",
          "type": "uint256"
        }
      ],
      "name": "ManagerFeeIncreaseAnnounced",
      "type": "event"
    },
    {
      "anonymous": false,
      "inputs": [],
      "name": "ManagerFeeIncreaseRenounced",
      "type": "event"
    },
    {
      "anonymous": false,
      "inputs": [
        {
          "indexed": false,
          "internalType": "address",
          "name": "fundAddress",
          "type": "address"
        },
        {
          "indexed": false,
          "internalType": "address",
          "name": "manager",
          "type": "address"
        },
        {
          "indexed": false,
          "internalType": "uint256",
          "name": "numerator",
          "type": "uint256"
        },
        {
          "indexed": false,
          "internalType": "uint256",
          "name": "denominator",
          "type": "uint256"
        }
      ],
      "name": "ManagerFeeSet",
      "type": "event"
    },
    {
      "anonymous": false,
      "inputs": [
        {
          "indexed": false,
          "internalType": "address",
          "name": "newManager",
          "type": "address"
        },
        {
          "indexed": false,
          "internalType": "string",
          "name": "newManagerName",
          "type": "string"
        }
      ],
      "name": "ManagerUpdated",
      "type": "event"
    },
    {
      "anonymous": false,
      "inputs": [
        {
          "indexed": false,
          "internalType": "address",
          "name": "poolLogic",
          "type": "address"
        },
        {
          "indexed": false,
          "internalType": "address",
          "name": "from",
          "type": "address"
        }
      ],
      "name": "PoolLogicSet",
      "type": "event"
    },
    {
      "anonymous": false,
      "inputs": [
        {
          "indexed": false,
          "internalType": "address",
          "name": "fundAddress",
          "type": "address"
        },
        {
          "indexed": false,
          "internalType": "address",
          "name": "manager",
          "type": "address"
        },
        {
          "indexed": false,
          "internalType": "uint256",
          "name": "time",
          "type": "uint256"
        }
      ],
      "name": "TransactionExecuted",
      "type": "event"
    },
    {
      "inputs": [
        {
          "internalType": "address",
          "name": "member",
          "type": "address"
        }
      ],
      "name": "addMember",
      "outputs": [],
      "stateMutability": "nonpayable",
      "type": "function"
    },
    {
      "inputs": [
        {
          "internalType": "address[]",
          "name": "members",
          "type": "address[]"
        }
      ],
      "name": "addMembers",
      "outputs": [],
      "stateMutability": "nonpayable",
      "type": "function"
    },
    {
      "inputs": [
        {
          "internalType": "address",
          "name": "asset",
          "type": "address"
        }
      ],
      "name": "addToDepositAssets",
      "outputs": [],
      "stateMutability": "nonpayable",
      "type": "function"
    },
    {
      "inputs": [
        {
          "internalType": "address",
          "name": "asset",
          "type": "address"
        }
      ],
      "name": "addToSupportedAndDepositAssets",
      "outputs": [],
      "stateMutability": "nonpayable",
      "type": "function"
    },
    {
      "inputs": [
        {
          "internalType": "address",
          "name": "asset",
          "type": "address"
        }
      ],
      "name": "addToSupportedAssets",
      "outputs": [],
      "stateMutability": "nonpayable",
      "type": "function"
    },
    {
      "inputs": [
        {
          "internalType": "uint256",
          "name": "numerator",
          "type": "uint256"
        }
      ],
      "name": "announceManagerFeeIncrease",
      "outputs": [],
      "stateMutability": "nonpayable",
      "type": "function"
    },
    {
      "inputs": [],
      "name": "announcedFeeIncreaseNumerator",
      "outputs": [
        {
          "internalType": "uint256",
          "name": "",
          "type": "uint256"
        }
      ],
      "stateMutability": "view",
      "type": "function"
    },
    {
      "inputs": [],
      "name": "announcedFeeIncreaseTimestamp",
      "outputs": [
        {
          "internalType": "uint256",
          "name": "",
          "type": "uint256"
        }
      ],
      "stateMutability": "view",
      "type": "function"
    },
    {
      "inputs": [
        {
          "internalType": "address",
          "name": "asset",
          "type": "address"
        }
      ],
      "name": "assetBalance",
      "outputs": [
        {
          "internalType": "uint256",
          "name": "",
          "type": "uint256"
        }
      ],
      "stateMutability": "view",
      "type": "function"
    },
    {
      "inputs": [
        {
          "internalType": "address",
          "name": "",
          "type": "address"
        }
      ],
      "name": "assetPosition",
      "outputs": [
        {
          "internalType": "uint256",
          "name": "",
          "type": "uint256"
        }
      ],
      "stateMutability": "view",
      "type": "function"
    },
    {
      "inputs": [
        {
          "internalType": "address",
          "name": "asset",
          "type": "address"
        },
        {
          "internalType": "uint256",
          "name": "amount",
          "type": "uint256"
        }
      ],
      "name": "assetValue",
      "outputs": [
        {
          "internalType": "uint256",
          "name": "",
          "type": "uint256"
        }
      ],
      "stateMutability": "view",
      "type": "function"
    },
    {
      "inputs": [
        {
          "internalType": "address",
          "name": "asset",
          "type": "address"
        }
      ],
      "name": "assetValue",
      "outputs": [
        {
          "internalType": "uint256",
          "name": "",
          "type": "uint256"
        }
      ],
      "stateMutability": "view",
      "type": "function"
    },
    {
      "inputs": [
        {
          "internalType": "address",
          "name": "newManager",
          "type": "address"
        },
        {
          "internalType": "string",
          "name": "newManagerName",
          "type": "string"
        }
      ],
      "name": "changeManager",
      "outputs": [],
      "stateMutability": "nonpayable",
      "type": "function"
    },
    {
      "inputs": [],
      "name": "commitManagerFeeIncrease",
      "outputs": [],
      "stateMutability": "nonpayable",
      "type": "function"
    },
    {
      "inputs": [
        {
          "internalType": "bytes32",
          "name": "data",
          "type": "bytes32"
        }
      ],
      "name": "convert32toAddress",
      "outputs": [
        {
          "internalType": "address",
          "name": "o",
          "type": "address"
        }
      ],
      "stateMutability": "pure",
      "type": "function"
    },
    {
      "inputs": [
        {
          "internalType": "address",
          "name": "",
          "type": "address"
        }
      ],
      "name": "depositAssets",
      "outputs": [
        {
          "internalType": "bool",
          "name": "",
          "type": "bool"
        }
      ],
      "stateMutability": "view",
      "type": "function"
    },
    {
      "inputs": [],
      "name": "depositAssetsCount",
      "outputs": [
        {
          "internalType": "uint256",
          "name": "",
          "type": "uint256"
        }
      ],
      "stateMutability": "view",
      "type": "function"
    },
    {
      "inputs": [
        {
          "internalType": "address",
          "name": "to",
          "type": "address"
        },
        {
          "internalType": "bytes",
          "name": "data",
          "type": "bytes"
        }
      ],
      "name": "execTransaction",
      "outputs": [
        {
          "internalType": "bool",
          "name": "",
          "type": "bool"
        }
      ],
      "stateMutability": "nonpayable",
      "type": "function"
    },
    {
      "inputs": [],
      "name": "factory",
      "outputs": [
        {
          "internalType": "address",
          "name": "",
          "type": "address"
        }
      ],
      "stateMutability": "view",
      "type": "function"
    },
    {
      "inputs": [
        {
          "internalType": "bytes",
          "name": "data",
          "type": "bytes"
        },
        {
          "internalType": "uint8",
          "name": "inputNum",
          "type": "uint8"
        },
        {
          "internalType": "uint8",
          "name": "arrayIndex",
          "type": "uint8"
        }
      ],
      "name": "getArrayIndex",
      "outputs": [
        {
          "internalType": "bytes32",
          "name": "",
          "type": "bytes32"
        }
      ],
      "stateMutability": "pure",
      "type": "function"
    },
    {
      "inputs": [
        {
          "internalType": "bytes",
          "name": "data",
          "type": "bytes"
        },
        {
          "internalType": "uint8",
          "name": "inputNum",
          "type": "uint8"
        }
      ],
      "name": "getArrayLast",
      "outputs": [
        {
          "internalType": "bytes32",
          "name": "",
          "type": "bytes32"
        }
      ],
      "stateMutability": "pure",
      "type": "function"
    },
    {
      "inputs": [
        {
          "internalType": "bytes",
          "name": "data",
          "type": "bytes"
        },
        {
          "internalType": "uint8",
          "name": "inputNum",
          "type": "uint8"
        }
      ],
      "name": "getArrayLength",
      "outputs": [
        {
          "internalType": "uint256",
          "name": "",
          "type": "uint256"
        }
      ],
      "stateMutability": "pure",
      "type": "function"
    },
    {
      "inputs": [],
      "name": "getFundComposition",
      "outputs": [
        {
          "internalType": "address[]",
          "name": "",
          "type": "address[]"
        },
        {
          "internalType": "uint256[]",
          "name": "",
          "type": "uint256[]"
        },
        {
          "internalType": "uint256[]",
          "name": "",
          "type": "uint256[]"
        }
      ],
      "stateMutability": "view",
      "type": "function"
    },
    {
      "inputs": [
        {
          "internalType": "bytes",
          "name": "data",
          "type": "bytes"
        },
        {
          "internalType": "uint8",
          "name": "inputNum",
          "type": "uint8"
        }
      ],
      "name": "getInput",
      "outputs": [
        {
          "internalType": "bytes32",
          "name": "",
          "type": "bytes32"
        }
      ],
      "stateMutability": "pure",
      "type": "function"
    },
    {
      "inputs": [],
      "name": "getManagerFee",
      "outputs": [
        {
          "internalType": "uint256",
          "name": "",
          "type": "uint256"
        },
        {
          "internalType": "uint256",
          "name": "",
          "type": "uint256"
        }
      ],
      "stateMutability": "view",
      "type": "function"
    },
    {
      "inputs": [],
      "name": "getManagerFeeIncreaseInfo",
      "outputs": [
        {
          "internalType": "uint256",
          "name": "",
          "type": "uint256"
        },
        {
          "internalType": "uint256",
          "name": "",
          "type": "uint256"
        }
      ],
      "stateMutability": "view",
      "type": "function"
    },
    {
      "inputs": [],
      "name": "getMembers",
      "outputs": [
        {
          "internalType": "address[]",
          "name": "",
          "type": "address[]"
        }
      ],
      "stateMutability": "view",
      "type": "function"
    },
    {
      "inputs": [
        {
          "internalType": "bytes",
          "name": "data",
          "type": "bytes"
        }
      ],
      "name": "getMethod",
      "outputs": [
        {
          "internalType": "bytes4",
          "name": "",
          "type": "bytes4"
        }
      ],
      "stateMutability": "pure",
      "type": "function"
    },
    {
      "inputs": [],
      "name": "getSupportedAssets",
      "outputs": [
        {
          "internalType": "address[]",
          "name": "",
          "type": "address[]"
        }
      ],
      "stateMutability": "view",
      "type": "function"
    },
    {
      "inputs": [
        {
          "internalType": "address",
          "name": "_factory",
          "type": "address"
        },
        {
          "internalType": "address",
          "name": "_manager",
          "type": "address"
        },
        {
          "internalType": "string",
          "name": "_managerName",
          "type": "string"
        },
        {
          "components": [
            {
              "internalType": "address",
              "name": "asset",
              "type": "address"
            },
            {
              "internalType": "bool",
              "name": "isDeposit",
              "type": "bool"
            }
          ],
          "internalType": "struct IPoolManagerLogic.Asset[]",
          "name": "_supportedAssets",
          "type": "tuple[]"
        }
      ],
      "name": "initialize",
      "outputs": [],
      "stateMutability": "nonpayable",
      "type": "function"
    },
    {
      "inputs": [
        {
          "internalType": "address",
          "name": "asset",
          "type": "address"
        }
      ],
      "name": "isAssetSupported",
      "outputs": [
        {
          "internalType": "bool",
          "name": "",
          "type": "bool"
        }
      ],
      "stateMutability": "view",
      "type": "function"
    },
    {
      "inputs": [
        {
          "internalType": "address",
          "name": "member",
          "type": "address"
        }
      ],
      "name": "isMemberAllowed",
      "outputs": [
        {
          "internalType": "bool",
          "name": "",
          "type": "bool"
        }
      ],
      "stateMutability": "view",
      "type": "function"
    },
    {
      "inputs": [],
      "name": "manager",
      "outputs": [
        {
          "internalType": "address",
          "name": "",
          "type": "address"
        }
      ],
      "stateMutability": "view",
      "type": "function"
    },
    {
      "inputs": [],
      "name": "managerName",
      "outputs": [
        {
          "internalType": "string",
          "name": "",
          "type": "string"
        }
      ],
      "stateMutability": "view",
      "type": "function"
    },
    {
      "inputs": [],
      "name": "numberOfMembers",
      "outputs": [
        {
          "internalType": "uint256",
          "name": "",
          "type": "uint256"
        }
      ],
      "stateMutability": "view",
      "type": "function"
    },
    {
      "inputs": [],
      "name": "numberOfSupportedAssets",
      "outputs": [
        {
          "internalType": "uint256",
          "name": "",
          "type": "uint256"
        }
      ],
      "stateMutability": "view",
      "type": "function"
    },
    {
      "inputs": [],
      "name": "poolLogic",
      "outputs": [
        {
          "internalType": "address",
          "name": "",
          "type": "address"
        }
      ],
      "stateMutability": "view",
      "type": "function"
    },
    {
      "inputs": [
        {
          "internalType": "bytes",
          "name": "data",
          "type": "bytes"
        },
        {
          "internalType": "uint256",
          "name": "offset",
          "type": "uint256"
        },
        {
          "internalType": "uint256",
          "name": "length",
          "type": "uint256"
        }
      ],
      "name": "read32",
      "outputs": [
        {
          "internalType": "bytes32",
          "name": "o",
          "type": "bytes32"
        }
      ],
      "stateMutability": "pure",
      "type": "function"
    },
    {
      "inputs": [
        {
          "internalType": "bytes",
          "name": "data",
          "type": "bytes"
        },
        {
          "internalType": "uint256",
          "name": "offset",
          "type": "uint256"
        },
        {
          "internalType": "uint256",
          "name": "length",
          "type": "uint256"
        }
      ],
      "name": "read4left",
      "outputs": [
        {
          "internalType": "bytes4",
          "name": "o",
          "type": "bytes4"
        }
      ],
      "stateMutability": "pure",
      "type": "function"
    },
    {
      "inputs": [
        {
          "internalType": "address",
          "name": "asset",
          "type": "address"
        }
      ],
      "name": "removeFromDepositAssets",
      "outputs": [],
      "stateMutability": "nonpayable",
      "type": "function"
    },
    {
      "inputs": [
        {
          "internalType": "address",
          "name": "asset",
          "type": "address"
        }
      ],
      "name": "removeFromSupportedAssets",
      "outputs": [],
      "stateMutability": "nonpayable",
      "type": "function"
    },
    {
      "inputs": [
        {
          "internalType": "address",
          "name": "member",
          "type": "address"
        }
      ],
      "name": "removeMember",
      "outputs": [],
      "stateMutability": "nonpayable",
      "type": "function"
    },
    {
      "inputs": [
        {
          "internalType": "address[]",
          "name": "members",
          "type": "address[]"
        }
      ],
      "name": "removeMembers",
      "outputs": [],
      "stateMutability": "nonpayable",
      "type": "function"
    },
    {
      "inputs": [],
      "name": "removeTrader",
      "outputs": [],
      "stateMutability": "nonpayable",
      "type": "function"
    },
    {
      "inputs": [],
      "name": "renounceManagerFeeIncrease",
      "outputs": [],
      "stateMutability": "nonpayable",
      "type": "function"
    },
    {
      "inputs": [
        {
          "internalType": "address",
          "name": "_poolLogic",
          "type": "address"
        }
      ],
      "name": "setPoolLogic",
      "outputs": [
        {
          "internalType": "bool",
          "name": "",
          "type": "bool"
        }
      ],
      "stateMutability": "nonpayable",
      "type": "function"
    },
    {
      "inputs": [
        {
          "internalType": "address",
          "name": "newTrader",
          "type": "address"
        }
      ],
      "name": "setTrader",
      "outputs": [],
      "stateMutability": "nonpayable",
      "type": "function"
    },
    {
      "inputs": [
        {
          "internalType": "uint256",
          "name": "",
          "type": "uint256"
        }
      ],
      "name": "supportedAssets",
      "outputs": [
        {
          "internalType": "address",
          "name": "",
          "type": "address"
        }
      ],
      "stateMutability": "view",
      "type": "function"
    },
    {
      "inputs": [],
      "name": "trader",
      "outputs": [
        {
          "internalType": "address",
          "name": "",
          "type": "address"
        }
      ],
      "stateMutability": "view",
      "type": "function"
    },
    {
      "inputs": [
        {
          "internalType": "address",
          "name": "asset",
          "type": "address"
        }
      ],
      "name": "validateAsset",
      "outputs": [
        {
          "internalType": "bool",
          "name": "",
          "type": "bool"
        }
      ],
      "stateMutability": "view",
      "type": "function"
    }
  ],
  "bytecode": "0x60806040523480156200001c576000806200001962000023565b50505b5062000090565b632a2a7adb598160e01b8152600481016020815285602082015260005b868110156200005d57808601518282016040015260200162000040565b506020828760640184336000905af158600e01573d6000803e3d6000fd5b3d6001141558600a015760016000f35b505050565b61478e80620000a06000396000f3fe608060405234801561001957600080610016613543565b50505b50600436106102df5760003560e01c80637c8afd511161018b578063bbbf725b116100f2578063d8af8ed4116100ab578063ea0c50b211610085578063ea0c50b21461060c578063ed5b165d1461061f578063f09d14d714610627578063fed4416a1461063e576102df565b8063d8af8ed4146105de578063db896b57146105f1578063e5406dbf14610604576102df565b8063bbbf725b14610577578063c3c6279f1461058a578063c45a01551461059d578063c68dbb37146105a5578063ca6d56dc146105b8578063cd88e558146105cb576102df565b806397e005b81161014457806397e005b814610524578063998546e31461052c5780639eab52531461053f578063a30e3fa914610554578063a6bc18f91461055c578063b8bd81e61461056f576102df565b80637c8afd51146104d357806382f86acc146104db5780638e10153d146104ee5780638f323439146105015780639240d29914610509578063936553c41461051c576102df565b806341dc16c31161024a578063568b5a2f116102035780636e890f3c116101dd5780636e890f3c1461049d5780636f4d469b146104a55780637ae7cfb5146104b85780637b4d0c63146104cb576102df565b8063568b5a2f146104575780635abff090146104775780636c41b2e51461048a576102df565b806341dc16c3146103e3578063464b4158146103f657806346ee84b014610416578063481c6a7514610429578063522136631461043157806353f064c914610444576102df565b8063198055381161029c57806319805538146103795780631eba30771461038f57806329c07fba146103a257806339b81fd9146103b55780633c570d7d146103bd5780633fef9afa146103d0576102df565b806306468587146102ed578063093b88251461030257806309ff5c7d146103155780630b1ca49a1461033e578063147bf0be146103515780631758078b14610364575b6000806102ea613543565b50505b6103006102fb366004613a79565b610653565b005b610300610310366004613a79565b610859565b610328610323366004613e0e565b610907565b6040516103359190614141565b60405180910390f35b61030061034c366004613a79565b610982565b61030061035f366004613ac3565b610a03565b61036c610bcf565b604051610335919061400f565b610381610bf1565b6040516103359291906146b5565b61036c61039d366004613d4c565b610cc9565b6103286103b0366004613c38565b610ccc565b61036c610e3f565b6103286103cb366004613a79565b610e5e565b6103006103de366004613a79565b610e79565b6103286103f1366004613e6f565b610f30565b610409610404366004613a79565b610fe4565b6040516103359190614136565b610300610424366004613c6c565b61100c565b61036c6110cb565b61030061043f366004613bd9565b6110d8565b610300610452366004613d4c565b6111c3565b61046a610465366004613db1565b61147d565b604051610335919061414a565b610300610485366004613a79565b6114db565b610300610498366004613a79565b611588565b6103006116e1565b6103006104b3366004613c6c565b6117bf565b6104096104c6366004613bd9565b61186e565b610328611c7f565b610300611c89565b6103286104e9366004613e0e565b611d20565b6104096104fc366004613a79565b611d3e565b610328612023565b610409610517366004613a79565b61202d565b6103286120e9565b6103286120fc565b61032861053a366004613e0e565b612106565b610547612137565b60405161033591906140ea565b6103286121be565b61030061056a366004613a79565b6121cb565b610300612267565b610409610585366004613a79565b61231c565b61046a610598366004613d6d565b61233c565b61036c61234b565b61036c6105b3366004613d4c565b612357565b6103006105c6366004613a79565b612381565b6103286105d9366004613a79565b612403565b6103286105ec366004613a79565b6124bf565b6103286105ff366004613db1565b6124ce565b610547612527565b61040961061a366004613a79565b6125ad565b6103816125d4565b61062f6125eb565b604051610335939291906140fd565b610646612862565b604051610335919061415f565b6000603861065f6135ae565b906101000a90046001600160a01b03166001600160a01b0316638da5cb5b6040518163ffffffff1660e01b815260040160206040518083038186806106a2613609565b1580156106b7576000806106b4613543565b50505b505a6106c1613655565b50505050501580156106e0573d6000803e3d60006106dd613543565b50505b50505050604051601f3d908101601f191682016040526107039190810190613a9e565b6001600160a01b03165a610715613740565b6001600160a01b0316148061074a575061072d6110cb565b6001600160a01b03165a61073f613740565b6001600160a01b0316145b806107755750610758610bcf565b6001600160a01b03165a61076a613740565b6001600160a01b0316145b6107a35760405162461bcd60e51b8152600401610791906141f8565b604051809103906107a0613543565b50505b6107ac81610fe4565b6107da5760405162461bcd60e51b81526004016107c890614587565b604051809103906107d7613543565b50505b6107e381612403565b156108125760405162461bcd60e51b815260040161080090614293565b6040518091039061080f613543565b50505b6001600160a01b0381166000908152603c602052604090206000906108356135ae565b906101000a900460ff161561084d5761084d81612916565b61085681612a07565b50565b600060336108656135ae565b906101000a90046001600160a01b03166001600160a01b03165a610887613740565b6001600160a01b031614806108d05750600060376108a36135ae565b906101000a90046001600160a01b03166001600160a01b03165a6108c5613740565b6001600160a01b0316145b6108fe5760405162461bcd60e51b81526004016108ec906143d8565b604051809103906108fb613543565b50505b61085681612be0565b60008061091f848460200260040160ff1660206124ce565b90506000610932856004840160206124ce565b9050806109635760405162461bcd60e51b8152600401610951906145eb565b60405180910390610960613543565b50505b6109778560208084028501600401906124ce565b925050505b92915050565b6000603361098e6135ae565b906101000a90046001600160a01b03166001600160a01b03165a6109b0613740565b6001600160a01b0316146109e85760405162461bcd60e51b81526004016109d6906142ca565b604051809103906109e5613543565b50505b6109f18161231c565b6109fa57610856565b61085681612e30565b60016000610a0f6135ae565b906101000a900460ff1680610a275750610a27612fab565b80610a445750600080610a386135ae565b906101000a900460ff16155b610a725760405162461bcd60e51b8152600401610a609061450e565b60405180910390610a6f613543565b50505b6000600181610a7f6135ae565b906101000a900460ff161590508015610ae5576001600061010081610aa26135ae565b8160ff02191690831515021790610ab7613786565b50505060016000806101000a81610acc6135ae565b8160ff02191690831515021790610ae1613786565b5050505b610aef848461301c565b846038600181610afd6135ae565b816001600160a01b0302191690836001600160a01b0316021790610b1f613786565b50505060005b82518160ff161015610b9957610b51838260ff1681518110610b4357fe5b602002602001015151612be0565b828160ff1681518110610b6057fe5b60200260200101516020015115610b9157610b91838260ff1681518110610b8357fe5b602002602001015151613063565b600101610b25565b508015610bc85760008061010081610baf6135ae565b8160ff02191690831515021790610bc4613786565b5050505b5050505050565b6000806037610bdc6135ae565b906101000a90046001600160a01b0316905090565b600080806038610bff6135ae565b6001600160a01b036101009290920a90041663b7a5452660006039610c226135ae565b906101000a90046001600160a01b03166040518263ffffffff1660e01b8152600401610c4e919061400f565b60408051808303818680610c60613609565b158015610c7557600080610c72613543565b50505b505a610c7f613655565b5050505050158015610c9e573d6000803e3d6000610c9b613543565b50505b50505050604051601f3d908101601f19168201604052610cc19190810190613f05565b915091509091565b90565b600080806038610cda6135ae565b906101000a90046001600160a01b03166001600160a01b0316638b2f0f4f856040518263ffffffff1660e01b8152600401610d15919061400f565b6020604051808303818680610d28613609565b158015610d3d57600080610d3a613543565b50505b505a610d47613655565b5050505050158015610d66573d6000803e3d6000610d63613543565b50505b50505050604051601f3d908101601f19168201604052610d899190810190613ee2565b90506000846001600160a01b031663313ce5676040518163ffffffff1660e01b81526004016020604051808303818680610dc1613609565b158015610dd657600080610dd3613543565b50505b505a610de0613655565b5050505050158015610dff573d6000803e3d6000610dfc613543565b50505b50505050604051601f3d908101601f19168201604052610e229190810190613f32565b60ff169050610977600a82900a610e398487613149565b9061319b565b60006039610e4b6135ae565b906101000a90046001600160a01b031681565b603b6020528060005260406000209050610e766135ae565b81565b60006033610e856135ae565b906101000a90046001600160a01b03166001600160a01b03165a610ea7613740565b6001600160a01b03161480610ef0575060006037610ec36135ae565b906101000a90046001600160a01b03166001600160a01b03165a610ee5613740565b6001600160a01b0316145b610f1e5760405162461bcd60e51b8152600401610f0c906143d8565b60405180910390610f1b613543565b50505b610f2781612be0565b61085681613063565b600080610f48858560200260040160ff1660206124ce565b90506000610f5b866004840160206124ce565b905080610f8c5760405162461bcd60e51b8152600401610f7a906145eb565b60405180910390610f89613543565b50505b60ff84168111610fc05760405162461bcd60e51b8152600401610fae90614172565b60405180910390610fbd613543565b50505b610fda866020600160ff88160181028501600401906124ce565b9695505050505050565b6001600160a01b0381166000908152603b602052604081206110046135ae565b151592915050565b600060336110186135ae565b906101000a90046001600160a01b03166001600160a01b03165a61103a613740565b6001600160a01b0316146110725760405162461bcd60e51b8152600401611060906142ca565b6040518091039061106f613543565b50505b60005b81518110156110c75761109a82828151811061108d57fe5b602002602001015161231c565b6110a3576110bf565b6110bf8282815181106110b257fe5b6020026020010151612e30565b600101611075565b5050565b6000806033610bdc6135ae565b600060336110e46135ae565b906101000a90046001600160a01b03166001600160a01b03165a611106613740565b6001600160a01b03161461113e5760405162461bcd60e51b815260040161112c906142ca565b6040518091039061113b613543565b50505b81603360018161114c6135ae565b816001600160a01b0302191690836001600160a01b031602179061116e613786565b5050508060349080516111859291602001906137d4565b507f6ed15082ad038474841528b5badca105106d4463e44b5d434130dfb299aa366982826040516111b79291906140ad565b60405180910390a15050565b600060336111cf6135ae565b906101000a90046001600160a01b03166001600160a01b03165a6111f1613740565b6001600160a01b0316146112295760405162461bcd60e51b8152600401611217906142ca565b60405180910390611226613543565b50505b60008060386112366135ae565b906101000a90046001600160a01b03166001600160a01b0316635c9bfc2b6040518163ffffffff1660e01b81526004016020604051808303818680611279613609565b15801561128e5760008061128b613543565b50505b505a611298613655565b50505050501580156112b7573d6000803e3d60006112b4613543565b50505b50505050604051601f3d908101601f191682016040526112da9190810190613ee2565b90506000806112e7610bf1565b90925090508084111561131e5760405162461bcd60e51b815260040161130c90614408565b6040518091039061131b613543565b50505b61132882846131db565b8411156113595760405162461bcd60e51b8152600401611347906145b4565b60405180910390611356613543565b50505b60008060386113666135ae565b906101000a90046001600160a01b03166001600160a01b031663ebee461d6040518163ffffffff1660e01b815260040160206040518083038186806113a9613609565b1580156113be576000806113bb613543565b50505b505a6113c8613655565b50505050501580156113e7573d6000803e3d60006113e4613543565b50505b50505050604051601f3d908101601f1916820160405261140a9190810190613ee2565b90508480603e611418613786565b505050805a611425613874565b0180603f611431613786565b5050507f4db9119741646c419f1ceccdf112b5b9a9b4516355e742e1fa9c479f4dec98da85603f6114606135ae565b60405161146e9291906146b5565b60405180910390a15050505050565b6000818301845110156114b45760405162461bcd60e51b81526004016114a290614432565b604051809103906114b1613543565b50505b8260200184015190508160040380156114d3576008810260020a820491505b509392505050565b600060336114e76135ae565b906101000a90046001600160a01b03166001600160a01b03165a611509613740565b6001600160a01b031614806115525750600060376115256135ae565b906101000a90046001600160a01b03166001600160a01b03165a611547613740565b6001600160a01b0316145b610f275760405162461bcd60e51b815260040161156e906143d8565b6040518091039061157d613543565b505061085681613063565b600060386115946135ae565b906101000a90046001600160a01b03166001600160a01b0316638da5cb5b6040518163ffffffff1660e01b815260040160206040518083038186806115d7613609565b1580156115ec576000806115e9613543565b50505b505a6115f6613655565b5050505050158015611615573d6000803e3d6000611612613543565b50505b50505050604051601f3d908101601f191682016040526116389190810190613a9e565b6001600160a01b03165a61164a613740565b6001600160a01b0316148061167f57506116626110cb565b6001600160a01b03165a611674613740565b6001600160a01b0316145b806116aa575061168d610bcf565b6001600160a01b03165a61169f613740565b6001600160a01b0316145b6116d85760405162461bcd60e51b81526004016116c6906141f8565b604051809103906116d5613543565b50505b61085681612916565b600060336116ed6135ae565b906101000a90046001600160a01b03166001600160a01b03165a61170f613740565b6001600160a01b0316146117475760405162461bcd60e51b8152600401611735906142ca565b60405180910390611744613543565b50505b603f6117516135ae565b5a61175a613874565b101561178a5760405162461bcd60e51b8152600401611778906144d7565b60405180910390611787613543565b50505b61179c603e6117976135ae565b613200565b600080603e6117a9613786565b5050506000603f81906117ba613786565b505050565b600060336117cb6135ae565b906101000a90046001600160a01b03166001600160a01b03165a6117ed613740565b6001600160a01b0316146118255760405162461bcd60e51b8152600401611813906142ca565b60405180910390611822613543565b50505b60005b81518110156110c75761184082828151811061108d57fe5b1561184a57611866565b61186682828151811061185957fe5b60200260200101516133f0565b600101611828565b600080603361187b6135ae565b906101000a90046001600160a01b03166001600160a01b03165a61189d613740565b6001600160a01b031614806118e65750600060376118b96135ae565b906101000a90046001600160a01b03166001600160a01b03165a6118db613740565b6001600160a01b0316145b6119145760405162461bcd60e51b8152600401611902906143d8565b60405180910390611911613543565b50505b6001600160a01b03831661194c5760405162461bcd60e51b815260040161193a9061464e565b60405180910390611949613543565b50505b60008060386119596135ae565b906101000a90046001600160a01b03166001600160a01b0316637027ea6c856040518263ffffffff1660e01b8152600401611994919061400f565b60206040518083038186806119a7613609565b1580156119bc576000806119b9613543565b50505b505a6119c6613655565b50505050501580156119e5573d6000803e3d60006119e2613543565b50505b50505050604051601f3d908101601f19168201604052611a089190810190613a9e565b90506001600160a01b038116611a425760405162461bcd60e51b8152600401611a3090614469565b60405180910390611a3f613543565b50505b806001600160a01b031663e23ff4375a63996d79a5598160e01b8152602081600483336000905af158600e01573d6000803e3d6000fd5b3d6001141558600a015760016000f35b8051925060005b6040811015611aa757600082820152602001611a90565b505050856040518363ffffffff1660e01b8152600401611ac89291906140ad565b60206040518083038160008780611add613609565b158015611af257600080611aef613543565b50505b505a611afc6138ba565b505050505050158015611b1c573d6000803e3d6000611b19613543565b50505b50505050604051601f3d908101601f19168201604052611b3f9190810190613d27565b611b6d5760405162461bcd60e51b8152600401611b5b90614266565b60405180910390611b6a613543565b50505b6000846001600160a01b031684604051611b879190613ff3565b6000604051808303816000865a611b9c6138ba565b5050505050509150503d8060008114611bd1576040513d603f01601f191681016040523d815291503d6000602084013e611bd6565b606091505b5090915050600181151514611c0f5760405162461bcd60e51b8152600401611bfd90614617565b60405180910390611c0c613543565b50505b7f508f3afa87f72dce865a2321107666b28ac822c23a8c0555fbeb3424cf3de56360006039611c3c6135ae565b906101000a90046001600160a01b0316611c546110cb565b5a611c5d613874565b604051611c6c93929190614060565b60405180910390a1506001949350505050565b603f610e766135ae565b60006033611c956135ae565b906101000a90046001600160a01b03166001600160a01b03165a611cb7613740565b6001600160a01b031614611cef5760405162461bcd60e51b8152600401611cdd906142ca565b60405180910390611cec613543565b50505b60006037600181611cfe6135ae565b816001600160a01b0302191690836001600160a01b03160217906117ba613786565b6000611d37838360200260040160ff1660206124ce565b9392505050565b6000806038611d4b6135ae565b906101000a90046001600160a01b03166001600160a01b03165a611d6d613740565b6001600160a01b03161480611e4a575060006038611d896135ae565b906101000a90046001600160a01b03166001600160a01b0316631d68702d6040518163ffffffff1660e01b81526004016020604051808303818680611dcc613609565b158015611de157600080611dde613543565b50505b505a611deb613655565b5050505050158015611e0a573d6000803e3d6000611e07613543565b50505b50505050604051601f3d908101601f19168201604052611e2d9190810190613a9e565b6001600160a01b03165a611e3f613740565b6001600160a01b0316145b611e785760405162461bcd60e51b8152600401611e6690614353565b60405180910390611e75613543565b50505b5a63996d79a5598160e01b8152602081600483336000905af158600e01573d6000803e3d6000fd5b3d6001141558600a015760016000f35b8051925060005b6040811015611ece57600082820152602001611eb7565b5050506001600160a01b0316826001600160a01b0316631e50a4a66040518163ffffffff1660e01b81526004016020604051808303818680611f0e613609565b158015611f2357600080611f20613543565b50505b505a611f2d613655565b5050505050158015611f4c573d6000803e3d6000611f49613543565b50505b50505050604051601f3d908101601f19168201604052611f6f9190810190613a9e565b6001600160a01b031614611fa75760405162461bcd60e51b8152600401611f95906142f0565b60405180910390611fa4613543565b50505b816039600181611fb56135ae565b816001600160a01b0302191690836001600160a01b0316021790611fd7613786565b5050507f8c1446ebd2ac8c922b8c9716dfbdfcfef02c9fc167140d7cfd019565b423b249825a612005613740565b604051612013929190614023565b60405180910390a1506001919050565b603e610e766135ae565b600080603861203a6135ae565b906101000a90046001600160a01b03166001600160a01b031663cc435bf3836040518263ffffffff1660e01b8152600401612075919061400f565b6020604051808303818680612088613609565b15801561209d5760008061209a613543565b50505b505a6120a7613655565b50505050501580156120c6573d6000803e3d60006120c3613543565b50505b50505050604051601f3d908101601f1916820160405261097c9190810190613d27565b6000603a806120f66135ae565b91505090565b603d610e766135ae565b60008061211e848460200260040160ff1660206124ce565b905061212f846004830160206124ce565b949350505050565b60606035806121446135ae565b8060200260200160405190810160405281815291906020830182806121676135ae565b80156121b457602002820191906000526020600020905b6000826121896135ae565b906101000a90046001600160a01b03166001600160a01b03168152602001906001019080831161217e575b5050505050905090565b60006035806120f66135ae565b600060336121d76135ae565b906101000a90046001600160a01b03166001600160a01b03165a6121f9613740565b6001600160a01b0316146122315760405162461bcd60e51b815260040161221f906142ca565b6040518091039061222e613543565b50505b80603760018161223f6135ae565b816001600160a01b0302191690836001600160a01b0316021790612261613786565b50505050565b600060336122736135ae565b906101000a90046001600160a01b03166001600160a01b03165a612295613740565b6001600160a01b0316146122cd5760405162461bcd60e51b81526004016122bb906142ca565b604051809103906122ca613543565b50505b600080603e6122da613786565b5050506000603f81906122eb613786565b5050507fc6f04bf43cbdf1ba5d51b4afa160bb3c7e13858b1409aa32868b239bb2f8d84960405160405180910390a1565b6001600160a01b03811660009081526036602052604081206110046135ae565b600061097c826000600461147d565b60006038610e4b6135ae565b603a81816123636135ae565b811061236b57fe5b9060005260206000200160009150610e4b6135ae565b6000603361238d6135ae565b906101000a90046001600160a01b03166001600160a01b03165a6123af613740565b6001600160a01b0316146123e75760405162461bcd60e51b81526004016123d5906142ca565b604051809103906123e4613543565b50505b6123f08161231c565b156123fa57610856565b610856816133f0565b60006001600160a01b0382166370a0823182603961241f6135ae565b906101000a90046001600160a01b03166040518263ffffffff1660e01b815260040161244b919061400f565b602060405180830381868061245e613609565b15801561247357600080612470613543565b50505b505a61247d613655565b505050505015801561249c573d6000803e3d6000612499613543565b50505b50505050604051601f3d908101601f1916820160405261097c9190810190613ee2565b600061097c826103b084612403565b6000818301845110156125055760405162461bcd60e51b81526004016124f390614432565b60405180910390612502613543565b50505b8260200184015190508160200380156114d35760080260020a90049392505050565b6060603a806125346135ae565b8060200260200160405190810160405281815291906020830182806125576135ae565b80156121b457602002820191906000526020600020905b6000826125796135ae565b906101000a90046001600160a01b03166001600160a01b03168152602001906001019080831161256e575050505050905090565b603c602052806000526040600020600091506125c76135ae565b906101000a900460ff1681565b600080603e6125e16135ae565b603f610cc16135ae565b60608060606000603a806125fd6135ae565b905090506060816001600160401b03811180156126225760008061261f613543565b50505b5060405190808252806020026020018201604052801561264c578160200160208202803683370190505b5090506060826001600160401b03811180156126705760008061266d613543565b50505b5060405190808252806020026020018201604052801561269a578160200160208202803683370190505b5090506060836001600160401b03811180156126be576000806126bb613543565b50505b506040519080825280602002602001820160405280156126e8578160200160208202803683370190505b50905060005b84811015612854576000603a82816127046135ae565b811061270c57fe5b906000526020600020016000906127216135ae565b906101000a90046001600160a01b0316905061273c81612403565b84838151811061274857fe5b6020026020010181815250508085838151811061276157fe5b6001600160a01b0390921660209283029190910190910152600060386127856135ae565b906101000a90046001600160a01b03166001600160a01b0316638b2f0f4f826040518263ffffffff1660e01b81526004016127c0919061400f565b60206040518083038186806127d3613609565b1580156127e8576000806127e5613543565b50505b505a6127f2613655565b5050505050158015612811573d6000803e3d600061280e613543565b50505b50505050604051601f3d908101601f191682016040526128349190810190613ee2565b83838151811061284057fe5b6020908102919091010152506001016126ee565b509195509350915050909192565b606060348061286f6135ae565b600181600116156101000203166002900480601f0160208091040260200160405190810160405281815291906020830182806128a96135ae565b600181600116156101000203166002900480156121b45780601f106128e35761010080836128d56135ae565b0402835291602001916121b4565b820191906000526020600020905b816128fa6135ae565b815290600101906020018083116128f157509395945050505050565b6001600160a01b0381166000908152603c602052604090206000906129396135ae565b906101000a900460ff166129715760405162461bcd60e51b815260040161295f9061455c565b6040518091039061296e613543565b50505b6001603d61297d6135ae565b116129ac5760405162461bcd60e51b815260040161299a90614396565b604051809103906129a9613543565b50505b6001600160a01b0381166000908152603c602052604081206001816129cf6135ae565b8160ff021916908315150217906129e4613786565b5050506129fc6001603d6129f66135ae565b9061347c565b80603d612261613786565b6000603a80612a146135ae565b6001600160a01b0384166000908152603b6020529092509050612a3e6001604083206129f66135ae565b90506000603a612a4f84600161347c565b81612a586135ae565b8110612a6057fe5b90600052602060002001600090612a756135ae565b906101000a90046001600160a01b0316905080603a8381612a946135ae565b8110612a9c57fe5b90600052602060002001600181612ab16135ae565b816001600160a01b0302191690836001600160a01b0316021790612ad3613786565b50612ae3915083905060016131db565b6001600160a01b0382166000908152603b602052604090208190612b05613786565b5050506001600160a01b0384166000908152603b602052604081208190612b2a613786565b505050603a80612b386135ae565b80612b3f57fe5b60019003818190600052602060002001600181612b5a6135ae565b906001600160a01b0302191690612b6f613786565b505090612b7a613786565b50507f9b4f55639e5e283319baee5bc4e69a5625a8e3a1cc004af968f4fee7250220276039600090612baa6135ae565b906101000a90046001600160a01b0316612bc26110cb565b86604051612bd29392919061403d565b60405180910390a150505050565b60006038612bec6135ae565b906101000a90046001600160a01b03166001600160a01b031663aa12ae4d6040518163ffffffff1660e01b81526004016020604051808303818680612c2f613609565b158015612c4457600080612c41613543565b50505b505a612c4e613655565b5050505050158015612c6d573d6000803e3d6000612c6a613543565b50505b50505050604051601f3d908101601f19168201604052612c909190810190613ee2565b603a80612c9b6135ae565b905010612ccc5760405162461bcd60e51b8152600401612cba90614685565b60405180910390612cc9613543565b50505b612cd581610fe4565b15612d045760405162461bcd60e51b8152600401612cf29061431c565b60405180910390612d01613543565b50505b612d0d8161202d565b1515600114612d405760405162461bcd60e51b8152600401612d2e906141a2565b60405180910390612d3d613543565b50505b80603a80600181612d4f6135ae565b018082612d5a613786565b505060009283526000190191602091502001600181612d776135ae565b816001600160a01b0302191690836001600160a01b0316021790612d99613786565b505050603a80612da76135ae565b6001600160a01b0383166000908152603b602052909150604090208190612dcc613786565b5050507f0a7426a0630aad7dbc4d5ca5b7d9aac1133d77d2db987caaf4b4186c85d6593f6039600090612dfd6135ae565b906101000a90046001600160a01b0316612e156110cb565b83604051612e259392919061403d565b60405180910390a150565b6000603580612e3d6135ae565b6001600160a01b038416600090815260366020529092509050612e676001604083206129f66135ae565b905060006035612e7884600161347c565b81612e816135ae565b8110612e8957fe5b90600052602060002001600090612e9e6135ae565b906101000a90046001600160a01b031690508060358381612ebd6135ae565b8110612ec557fe5b90600052602060002001600181612eda6135ae565b816001600160a01b0302191690836001600160a01b0316021790612efc613786565b50612f0c915083905060016131db565b6001600160a01b03821660009081526036602052604090208190612f2e613786565b5050506001600160a01b03841660009081526036602052604081208190612f53613786565b505050603580612f616135ae565b80612f6857fe5b60019003818190600052602060002001600181612f836135ae565b906001600160a01b0302191690612f98613786565b505090612fa3613786565b505050505050565b6000805a63996d79a5598160e01b8152602081600483336000905af158600e01573d6000803e3d6000fd5b3d6001141558600a015760016000f35b8051925060005b604081101561300457600082820152602001612fed565b5050509050600081613014613609565b159250505090565b81603360018161302a6135ae565b816001600160a01b0302191690836001600160a01b031602179061304c613786565b5050508060349080516117ba9291602001906137d4565b61306c81610fe4565b61309a5760405162461bcd60e51b815260040161308890614587565b60405180910390613097613543565b50505b6001600160a01b0381166000908152603c602052604090206000906130bd6135ae565b906101000a900460ff16156130f65760405162461bcd60e51b81526004016130e4906141c9565b604051809103906130f3613543565b50505b6001600160a01b0381166000908152603c6020526001906040902060018161311c6135ae565b8160ff02191690831515021790613131613786565b5050506129fc6001603d6131436135ae565b906131db565b6000826131585750600061097c565b8282028284828161316557fe5b0414611d375760405162461bcd60e51b815260040161318390614496565b60405180910390613192613543565b50509392505050565b6000611d37838360405160408082019052601a81527f536166654d6174683a206469766973696f6e206279207a65726f00000000000060208201526134bc565b600082820183811015611d375760405162461bcd60e51b81526004016131839061422f565b6000603861320c6135ae565b6001600160a01b036101009290920a90041663046b72c46000603961322f6135ae565b906101000a90046001600160a01b0316836040518363ffffffff1660e01b815260040161325d9291906140d1565b60006040518083038160008780613272613609565b15801561328757600080613284613543565b50505b505a6132916138ba565b5050505050501580156132b1573d6000803e3d60006132ae613543565b50505b5050505060008060386000906132c56135ae565b6001600160a01b036101009290920a90041663b7a54526600060396132e86135ae565b906101000a90046001600160a01b03166040518263ffffffff1660e01b8152600401613314919061400f565b60408051808303818680613326613609565b15801561333b57600080613338613543565b50505b505a613345613655565b5050505050158015613364573d6000803e3d6000613361613543565b50505b50505050604051601f3d908101601f191682016040526133879190810190613f05565b90925090507f1780c04ddc6f0b32d866c7a3d7583f53515ef49ed2126af868f804f491601266600060396133b96135ae565b906101000a90046001600160a01b03166133d16110cb565b84846040516133e39493929190614084565b60405180910390a1505050565b806035806001816133ff6135ae565b01808261340a613786565b5050600092835260001901916020915020016001816134276135ae565b816001600160a01b0302191690836001600160a01b0316021790613449613786565b5050506035806134576135ae565b6001600160a01b03831660009081526036602052909150604090208190612261613786565b6000611d37838360405160408082019052601e81527f536166654d6174683a207375627472616374696f6e206f766572666c6f7700006020820152613505565b600081836134ef5760405162461bcd60e51b81526004016134dd919061415f565b604051809103906134ec613543565b50505b5060008385816134fb57fe5b0495945050505050565b6000818484111561353b5760405162461bcd60e51b8152600401613529919061415f565b60405180910390613538613543565b50505b505050900390565b632a2a7adb598160e01b8152600481016020815285602082015260005b8681101561357b578086015182820160400152602001613560565b506020828760640184336000905af158600e01573d6000803e3d6000fd5b3d6001141558600a015760016000f35b505050565b6303daa959598160e01b8152836004820152602081602483336000905af158600e01573d6000803e3d6000fd5b3d6001141558600a015760016000f35b8051935060005b60408110156117ba576000828201526020016135f2565b638435035b598160e01b8152836004820152602081602483336000905af158600e01573d6000803e3d6000fd5b3d6001141558600a015760016000f35b805160008252935060206135f2565b638540661f598160e01b8152613686565b808083111561097c575090919050565b808083101561097c575090919050565b836004820152846024820152606060448201528660648201526084810160005b888110156136be5780880151828201526020016136a6565b506060828960a40184336000905af158600e01573d6000803e3d6000fd5b3d6001141558600a015760016000f35b815160408301513d6000853e8b8b82606087013350600060045af150596137138d3d613676565b8c0161371f8187613666565b5b828110156137345760008152602001613720565b50929c50505050505050565b6373509064598160e01b8152602081600483336000905af158600e01573d6000803e3d6000fd5b3d6001141558600a015760016000f35b805160008252935060206135f2565b6322bd64c0598160e01b8152836004820152846024820152600081604483336000905af158600e01573d6000803e3d6000fd5b3d6001141558600a015760016000f35b6000815260206135f2565b82806137de6135ae565b600181600116156101000203166002900490600052602060002090601f016020900481019282601f1061382557805160ff1916838001178561381e613786565b5050613864565b82800160010185613834613786565b50508215613864579182015b8281111561386457825182613853613786565b505091602001919060010190613840565b50613870929150613980565b5090565b63bdbf8c36598160e01b8152602081600483336000905af158600e01573d6000803e3d6000fd5b3d6001141558600a015760016000f35b805160008252935060206135f2565b6385979f76598160e01b8152836004820152846024820152606060448201528760648201526084810160005b898110156138fe5780890151828201526020016138e6565b506060828a60a40184336000905af158600e01573d6000803e3d6000fd5b3d6001141558600a015760016000f35b815160408301513d6000853e8c8c82606087013350600060045af150596139538e3d613676565b8d0161395f8187613666565b5b828110156139745760008152602001613960565b50929d50505050505050565b808211156138705760008082613994613786565b505050600101613980565b803561097c8161474a565b600082601f8301126139c35780816139c0613543565b50505b81356001600160401b038111156139e15781826139de613543565b50505b6139f4601f8201601f19166020016146c3565b9150808252836020828501011115613a1457600080613a11613543565b50505b8060208401602084013760009082016020015292915050565b600060408284031215613a47578081613a44613543565b50505b613a5160406146c3565b90508135613a5e8161474a565b81526020820135613a6e81614765565b602082015292915050565b600060208284031215613a93578081613a90613543565b50505b8135611d378161474a565b600060208284031215613ab8578081613ab5613543565b50505b8151611d378161474a565b60008060008060808587031215613ae1578283613ade613543565b50505b8435613aec8161474a565b9350602085810135613afd8161474a565b93506040868101356001600160401b0380821115613b22578586613b1f613543565b50505b613b2e8a838b016139aa565b95506060890135915080821115613b4c578485613b49613543565b50505b508701601f81018913613b66578384613b63613543565b50505b8035613b79613b74826146f6565b6146c3565b81815284810190838601858402850187018d1015613b9e578788613b9b613543565b50505b8794505b83851015613bc857613bb48d82613a2d565b835260019490940193918601918501613ba2565b50989b979a50959850505050505050565b60008060408385031215613bf4578182613bf1613543565b50505b8235613bff8161474a565b915060208301356001600160401b03811115613c22578182613c1f613543565b50505b613c2e858286016139aa565b9150509250929050565b60008060408385031215613c53578182613c50613543565b50505b8235613c5e8161474a565b946020939093013593505050565b60006020808385031215613c87578182613c84613543565b50505b82356001600160401b03811115613ca5578283613ca2613543565b50505b8301601f81018513613cbe578283613cbb613543565b50505b8035613ccc613b74826146f6565b8181528381019083850185840285018601891015613cf1578687613cee613543565b50505b8694505b83851015613d1b57613d07898261399f565b835260019490940193918501918501613cf5565b50979650505050505050565b600060208284031215613d41578081613d3e613543565b50505b8151611d3781614765565b600060208284031215613d66578081613d63613543565b50505b5035919050565b600060208284031215613d87578081613d84613543565b50505b81356001600160401b03811115613da5578182613da2613543565b50505b61212f848285016139aa565b600080600060608486031215613dce578081613dcb613543565b50505b83356001600160401b03811115613dec578182613de9613543565b50505b613df8868287016139aa565b9660208601359650604090950135949350505050565b60008060408385031215613e29578182613e26613543565b50505b82356001600160401b03811115613e47578283613e44613543565b50505b613e53858286016139aa565b9250506020830135613e6481614779565b809150509250929050565b600080600060608486031215613e8c578081613e89613543565b50505b83356001600160401b03811115613eaa578182613ea7613543565b50505b613eb6868287016139aa565b9350506020840135613ec781614779565b91506040840135613ed781614779565b809150509250925092565b600060208284031215613efc578081613ef9613543565b50505b81519392505050565b60008060408385031215613f20578182613f1d613543565b50505b82519150602083015190509250929050565b600060208284031215613f4c578081613f49613543565b50505b8151611d3781614779565b60008151808452602093840193838101835b83811015613f8e576001600160a01b0382511687529582019590820190600101613f69565b509495945050505050565b60008151808452602093840193838101835b83811015613f8e57815187529582019590820190600101613fab565b60008151808452613fdf81602086016020860161471e565b601f01601f19169290920160200192915050565b6000825161400581846020870161471e565b9190910192915050565b6001600160a01b0391909116815260200190565b6001600160a01b0392831681529116602082015260400190565b6001600160a01b0393841681529183166020830152909116604082015260600190565b6001600160a01b039384168152919092166020820152604081019190915260600190565b6001600160a01b0394851681529290931660208301526040820152606081019190915260800190565b6001600160a01b038316815260406020820181905260009061212f90830184613fc7565b6001600160a01b03929092168252602082015260400190565b600060208252611d376020830184613f57565b6000606082526141106060830186613f57565b82810360208401526141228186613f99565b90508281036040840152610fda8185613f99565b901515815260200190565b90815260200190565b6001600160e01b031991909116815260200190565b600060208252611d376020830184613fc7565b60208082526016908201527534b73b30b634b21030b93930bc903837b9b4ba34b7b760511b604082015260600190565b6020808252600d908201526c1a5b9d985b1a5908185cdcd95d609a1b604082015260600190565b602080825260159082015274185b1c9958591e4819195c1bdcda5d08185cdcd95d605a1b604082015260600190565b6020808252601b908201527f6f6e6c79206d616e616765722c20747261646572206f722044414f0000000000604082015260600190565b6020808252601b908201527f536166654d6174683a206164646974696f6e206f766572666c6f770000000000604082015260600190565b60208082526013908201527234b73b30b634b2103a3930b739b0b1ba34b7b760691b604082015260600190565b6020808252601d908201527f63616e6e6f742072656d6f7665206e6f6e2d656d707479206173736574000000604082015260600190565b6020808252600c908201526b37b7363c9036b0b730b3b2b960a11b604082015260600190565b602080825260129082015271696e76616c696420706f6f6c206c6f67696360701b604082015260600190565b60208082526017908201527f617373657420616c726561647920737570706f72746564000000000000000000604082015260600190565b60208082526023908201527f6f6e6c792044414f206f7220666163746f7279206164647265737320616c6c6f6040820152621dd95960ea1b606082015260800190565b60208082526022908201527f72657175697265206174206c65617374206f6e65206465706f73697420617373604082015261195d60f21b606082015260800190565b60208082526016908201527537b7363c9036b0b730b3b2b91037b9103a3930b232b960511b604082015260600190565b60208082526010908201526f34b73b30b634b210333930b1ba34b7b760811b604082015260600190565b6020808252601b908201527f52656164696e67206279746573206f7574206f6620626f756e64730000000000604082015260600190565b60208082526013908201527234b73b30b634b2103232b9ba34b730ba34b7b760691b604082015260600190565b60208082526021908201527f536166654d6174683a206d756c7469706c69636174696f6e206f766572666c6f6040820152607760f81b606082015260800190565b60208082526019908201527f66656520696e6372656173652064656c61792061637469766500000000000000604082015260600190565b6020808252602e908201527f436f6e747261637420696e7374616e63652068617320616c726561647920626560408201526d195b881a5b9a5d1a585b1a5e995960921b606082015260800190565b6020808252601190820152701b9bdd0819195c1bdcda5d08185cdcd95d607a1b604082015260600190565b602080825260139082015272185cdcd95d081b9bdd081cdd5c1c1bdc9d1959606a1b604082015260600190565b60208082526019908201527f657863656564656420616c6c6f77656420696e63726561736500000000000000604082015260600190565b602080825260129082015271696e707574206973206e6f7420617272617960701b604082015260600190565b6020808252601a908201527f6661696c656420746f2065786563757465207468652063616c6c000000000000604082015260600190565b6020808252601c908201527f6e6f6e2d7a65726f206164647265737320697320726571756972656400000000604082015260600190565b6020808252601690820152751b585e1a5b5d5b48185cdcd95d1cc81c995858da195960521b604082015260600190565b918252602082015260400190565b600060405190508181018181106001600160401b03821117156146ee576000806146eb613543565b50505b604052919050565b60006001600160401b03821115614714578081614711613543565b50505b5060209081020190565b60005b83811015614739578082015183820152602001614721565b838111156122615750506000910152565b6001600160a01b0381168114610856576000806117ba613543565b8015158114610856576000806117ba613543565b60ff81168114610856576000806117ba61354356",
  "deployedBytecode": "0x608060405234801561001957600080610016613543565b50505b50600436106102df5760003560e01c80637c8afd511161018b578063bbbf725b116100f2578063d8af8ed4116100ab578063ea0c50b211610085578063ea0c50b21461060c578063ed5b165d1461061f578063f09d14d714610627578063fed4416a1461063e576102df565b8063d8af8ed4146105de578063db896b57146105f1578063e5406dbf14610604576102df565b8063bbbf725b14610577578063c3c6279f1461058a578063c45a01551461059d578063c68dbb37146105a5578063ca6d56dc146105b8578063cd88e558146105cb576102df565b806397e005b81161014457806397e005b814610524578063998546e31461052c5780639eab52531461053f578063a30e3fa914610554578063a6bc18f91461055c578063b8bd81e61461056f576102df565b80637c8afd51146104d357806382f86acc146104db5780638e10153d146104ee5780638f323439146105015780639240d29914610509578063936553c41461051c576102df565b806341dc16c31161024a578063568b5a2f116102035780636e890f3c116101dd5780636e890f3c1461049d5780636f4d469b146104a55780637ae7cfb5146104b85780637b4d0c63146104cb576102df565b8063568b5a2f146104575780635abff090146104775780636c41b2e51461048a576102df565b806341dc16c3146103e3578063464b4158146103f657806346ee84b014610416578063481c6a7514610429578063522136631461043157806353f064c914610444576102df565b8063198055381161029c57806319805538146103795780631eba30771461038f57806329c07fba146103a257806339b81fd9146103b55780633c570d7d146103bd5780633fef9afa146103d0576102df565b806306468587146102ed578063093b88251461030257806309ff5c7d146103155780630b1ca49a1461033e578063147bf0be146103515780631758078b14610364575b6000806102ea613543565b50505b6103006102fb366004613a79565b610653565b005b610300610310366004613a79565b610859565b610328610323366004613e0e565b610907565b6040516103359190614141565b60405180910390f35b61030061034c366004613a79565b610982565b61030061035f366004613ac3565b610a03565b61036c610bcf565b604051610335919061400f565b610381610bf1565b6040516103359291906146b5565b61036c61039d366004613d4c565b610cc9565b6103286103b0366004613c38565b610ccc565b61036c610e3f565b6103286103cb366004613a79565b610e5e565b6103006103de366004613a79565b610e79565b6103286103f1366004613e6f565b610f30565b610409610404366004613a79565b610fe4565b6040516103359190614136565b610300610424366004613c6c565b61100c565b61036c6110cb565b61030061043f366004613bd9565b6110d8565b610300610452366004613d4c565b6111c3565b61046a610465366004613db1565b61147d565b604051610335919061414a565b610300610485366004613a79565b6114db565b610300610498366004613a79565b611588565b6103006116e1565b6103006104b3366004613c6c565b6117bf565b6104096104c6366004613bd9565b61186e565b610328611c7f565b610300611c89565b6103286104e9366004613e0e565b611d20565b6104096104fc366004613a79565b611d3e565b610328612023565b610409610517366004613a79565b61202d565b6103286120e9565b6103286120fc565b61032861053a366004613e0e565b612106565b610547612137565b60405161033591906140ea565b6103286121be565b61030061056a366004613a79565b6121cb565b610300612267565b610409610585366004613a79565b61231c565b61046a610598366004613d6d565b61233c565b61036c61234b565b61036c6105b3366004613d4c565b612357565b6103006105c6366004613a79565b612381565b6103286105d9366004613a79565b612403565b6103286105ec366004613a79565b6124bf565b6103286105ff366004613db1565b6124ce565b610547612527565b61040961061a366004613a79565b6125ad565b6103816125d4565b61062f6125eb565b604051610335939291906140fd565b610646612862565b604051610335919061415f565b6000603861065f6135ae565b906101000a90046001600160a01b03166001600160a01b0316638da5cb5b6040518163ffffffff1660e01b815260040160206040518083038186806106a2613609565b1580156106b7576000806106b4613543565b50505b505a6106c1613655565b50505050501580156106e0573d6000803e3d60006106dd613543565b50505b50505050604051601f3d908101601f191682016040526107039190810190613a9e565b6001600160a01b03165a610715613740565b6001600160a01b0316148061074a575061072d6110cb565b6001600160a01b03165a61073f613740565b6001600160a01b0316145b806107755750610758610bcf565b6001600160a01b03165a61076a613740565b6001600160a01b0316145b6107a35760405162461bcd60e51b8152600401610791906141f8565b604051809103906107a0613543565b50505b6107ac81610fe4565b6107da5760405162461bcd60e51b81526004016107c890614587565b604051809103906107d7613543565b50505b6107e381612403565b156108125760405162461bcd60e51b815260040161080090614293565b6040518091039061080f613543565b50505b6001600160a01b0381166000908152603c602052604090206000906108356135ae565b906101000a900460ff161561084d5761084d81612916565b61085681612a07565b50565b600060336108656135ae565b906101000a90046001600160a01b03166001600160a01b03165a610887613740565b6001600160a01b031614806108d05750600060376108a36135ae565b906101000a90046001600160a01b03166001600160a01b03165a6108c5613740565b6001600160a01b0316145b6108fe5760405162461bcd60e51b81526004016108ec906143d8565b604051809103906108fb613543565b50505b61085681612be0565b60008061091f848460200260040160ff1660206124ce565b90506000610932856004840160206124ce565b9050806109635760405162461bcd60e51b8152600401610951906145eb565b60405180910390610960613543565b50505b6109778560208084028501600401906124ce565b925050505b92915050565b6000603361098e6135ae565b906101000a90046001600160a01b03166001600160a01b03165a6109b0613740565b6001600160a01b0316146109e85760405162461bcd60e51b81526004016109d6906142ca565b604051809103906109e5613543565b50505b6109f18161231c565b6109fa57610856565b61085681612e30565b60016000610a0f6135ae565b906101000a900460ff1680610a275750610a27612fab565b80610a445750600080610a386135ae565b906101000a900460ff16155b610a725760405162461bcd60e51b8152600401610a609061450e565b60405180910390610a6f613543565b50505b6000600181610a7f6135ae565b906101000a900460ff161590508015610ae5576001600061010081610aa26135ae565b8160ff02191690831515021790610ab7613786565b50505060016000806101000a81610acc6135ae565b8160ff02191690831515021790610ae1613786565b5050505b610aef848461301c565b846038600181610afd6135ae565b816001600160a01b0302191690836001600160a01b0316021790610b1f613786565b50505060005b82518160ff161015610b9957610b51838260ff1681518110610b4357fe5b602002602001015151612be0565b828160ff1681518110610b6057fe5b60200260200101516020015115610b9157610b91838260ff1681518110610b8357fe5b602002602001015151613063565b600101610b25565b508015610bc85760008061010081610baf6135ae565b8160ff02191690831515021790610bc4613786565b5050505b5050505050565b6000806037610bdc6135ae565b906101000a90046001600160a01b0316905090565b600080806038610bff6135ae565b6001600160a01b036101009290920a90041663b7a5452660006039610c226135ae565b906101000a90046001600160a01b03166040518263ffffffff1660e01b8152600401610c4e919061400f565b60408051808303818680610c60613609565b158015610c7557600080610c72613543565b50505b505a610c7f613655565b5050505050158015610c9e573d6000803e3d6000610c9b613543565b50505b50505050604051601f3d908101601f19168201604052610cc19190810190613f05565b915091509091565b90565b600080806038610cda6135ae565b906101000a90046001600160a01b03166001600160a01b0316638b2f0f4f856040518263ffffffff1660e01b8152600401610d15919061400f565b6020604051808303818680610d28613609565b158015610d3d57600080610d3a613543565b50505b505a610d47613655565b5050505050158015610d66573d6000803e3d6000610d63613543565b50505b50505050604051601f3d908101601f19168201604052610d899190810190613ee2565b90506000846001600160a01b031663313ce5676040518163ffffffff1660e01b81526004016020604051808303818680610dc1613609565b158015610dd657600080610dd3613543565b50505b505a610de0613655565b5050505050158015610dff573d6000803e3d6000610dfc613543565b50505b50505050604051601f3d908101601f19168201604052610e229190810190613f32565b60ff169050610977600a82900a610e398487613149565b9061319b565b60006039610e4b6135ae565b906101000a90046001600160a01b031681565b603b6020528060005260406000209050610e766135ae565b81565b60006033610e856135ae565b906101000a90046001600160a01b03166001600160a01b03165a610ea7613740565b6001600160a01b03161480610ef0575060006037610ec36135ae565b906101000a90046001600160a01b03166001600160a01b03165a610ee5613740565b6001600160a01b0316145b610f1e5760405162461bcd60e51b8152600401610f0c906143d8565b60405180910390610f1b613543565b50505b610f2781612be0565b61085681613063565b600080610f48858560200260040160ff1660206124ce565b90506000610f5b866004840160206124ce565b905080610f8c5760405162461bcd60e51b8152600401610f7a906145eb565b60405180910390610f89613543565b50505b60ff84168111610fc05760405162461bcd60e51b8152600401610fae90614172565b60405180910390610fbd613543565b50505b610fda866020600160ff88160181028501600401906124ce565b9695505050505050565b6001600160a01b0381166000908152603b602052604081206110046135ae565b151592915050565b600060336110186135ae565b906101000a90046001600160a01b03166001600160a01b03165a61103a613740565b6001600160a01b0316146110725760405162461bcd60e51b8152600401611060906142ca565b6040518091039061106f613543565b50505b60005b81518110156110c75761109a82828151811061108d57fe5b602002602001015161231c565b6110a3576110bf565b6110bf8282815181106110b257fe5b6020026020010151612e30565b600101611075565b5050565b6000806033610bdc6135ae565b600060336110e46135ae565b906101000a90046001600160a01b03166001600160a01b03165a611106613740565b6001600160a01b03161461113e5760405162461bcd60e51b815260040161112c906142ca565b6040518091039061113b613543565b50505b81603360018161114c6135ae565b816001600160a01b0302191690836001600160a01b031602179061116e613786565b5050508060349080516111859291602001906137d4565b507f6ed15082ad038474841528b5badca105106d4463e44b5d434130dfb299aa366982826040516111b79291906140ad565b60405180910390a15050565b600060336111cf6135ae565b906101000a90046001600160a01b03166001600160a01b03165a6111f1613740565b6001600160a01b0316146112295760405162461bcd60e51b8152600401611217906142ca565b60405180910390611226613543565b50505b60008060386112366135ae565b906101000a90046001600160a01b03166001600160a01b0316635c9bfc2b6040518163ffffffff1660e01b81526004016020604051808303818680611279613609565b15801561128e5760008061128b613543565b50505b505a611298613655565b50505050501580156112b7573d6000803e3d60006112b4613543565b50505b50505050604051601f3d908101601f191682016040526112da9190810190613ee2565b90506000806112e7610bf1565b90925090508084111561131e5760405162461bcd60e51b815260040161130c90614408565b6040518091039061131b613543565b50505b61132882846131db565b8411156113595760405162461bcd60e51b8152600401611347906145b4565b60405180910390611356613543565b50505b60008060386113666135ae565b906101000a90046001600160a01b03166001600160a01b031663ebee461d6040518163ffffffff1660e01b815260040160206040518083038186806113a9613609565b1580156113be576000806113bb613543565b50505b505a6113c8613655565b50505050501580156113e7573d6000803e3d60006113e4613543565b50505b50505050604051601f3d908101601f1916820160405261140a9190810190613ee2565b90508480603e611418613786565b505050805a611425613874565b0180603f611431613786565b5050507f4db9119741646c419f1ceccdf112b5b9a9b4516355e742e1fa9c479f4dec98da85603f6114606135ae565b60405161146e9291906146b5565b60405180910390a15050505050565b6000818301845110156114b45760405162461bcd60e51b81526004016114a290614432565b604051809103906114b1613543565b50505b8260200184015190508160040380156114d3576008810260020a820491505b509392505050565b600060336114e76135ae565b906101000a90046001600160a01b03166001600160a01b03165a611509613740565b6001600160a01b031614806115525750600060376115256135ae565b906101000a90046001600160a01b03166001600160a01b03165a611547613740565b6001600160a01b0316145b610f275760405162461bcd60e51b815260040161156e906143d8565b6040518091039061157d613543565b505061085681613063565b600060386115946135ae565b906101000a90046001600160a01b03166001600160a01b0316638da5cb5b6040518163ffffffff1660e01b815260040160206040518083038186806115d7613609565b1580156115ec576000806115e9613543565b50505b505a6115f6613655565b5050505050158015611615573d6000803e3d6000611612613543565b50505b50505050604051601f3d908101601f191682016040526116389190810190613a9e565b6001600160a01b03165a61164a613740565b6001600160a01b0316148061167f57506116626110cb565b6001600160a01b03165a611674613740565b6001600160a01b0316145b806116aa575061168d610bcf565b6001600160a01b03165a61169f613740565b6001600160a01b0316145b6116d85760405162461bcd60e51b81526004016116c6906141f8565b604051809103906116d5613543565b50505b61085681612916565b600060336116ed6135ae565b906101000a90046001600160a01b03166001600160a01b03165a61170f613740565b6001600160a01b0316146117475760405162461bcd60e51b8152600401611735906142ca565b60405180910390611744613543565b50505b603f6117516135ae565b5a61175a613874565b101561178a5760405162461bcd60e51b8152600401611778906144d7565b60405180910390611787613543565b50505b61179c603e6117976135ae565b613200565b600080603e6117a9613786565b5050506000603f81906117ba613786565b505050565b600060336117cb6135ae565b906101000a90046001600160a01b03166001600160a01b03165a6117ed613740565b6001600160a01b0316146118255760405162461bcd60e51b8152600401611813906142ca565b60405180910390611822613543565b50505b60005b81518110156110c75761184082828151811061108d57fe5b1561184a57611866565b61186682828151811061185957fe5b60200260200101516133f0565b600101611828565b600080603361187b6135ae565b906101000a90046001600160a01b03166001600160a01b03165a61189d613740565b6001600160a01b031614806118e65750600060376118b96135ae565b906101000a90046001600160a01b03166001600160a01b03165a6118db613740565b6001600160a01b0316145b6119145760405162461bcd60e51b8152600401611902906143d8565b60405180910390611911613543565b50505b6001600160a01b03831661194c5760405162461bcd60e51b815260040161193a9061464e565b60405180910390611949613543565b50505b60008060386119596135ae565b906101000a90046001600160a01b03166001600160a01b0316637027ea6c856040518263ffffffff1660e01b8152600401611994919061400f565b60206040518083038186806119a7613609565b1580156119bc576000806119b9613543565b50505b505a6119c6613655565b50505050501580156119e5573d6000803e3d60006119e2613543565b50505b50505050604051601f3d908101601f19168201604052611a089190810190613a9e565b90506001600160a01b038116611a425760405162461bcd60e51b8152600401611a3090614469565b60405180910390611a3f613543565b50505b806001600160a01b031663e23ff4375a63996d79a5598160e01b8152602081600483336000905af158601d01573d60011458600c01573d6000803e3d621234565260ea61109c528051925060005b6040811015611aa757600082820152602001611a90565b505050856040518363ffffffff1660e01b8152600401611ac89291906140ad565b60206040518083038160008780611add613609565b158015611af257600080611aef613543565b50505b505a611afc6138ba565b505050505050158015611b1c573d6000803e3d6000611b19613543565b50505b50505050604051601f3d908101601f19168201604052611b3f9190810190613d27565b611b6d5760405162461bcd60e51b8152600401611b5b90614266565b60405180910390611b6a613543565b50505b6000846001600160a01b031684604051611b879190613ff3565b6000604051808303816000865a611b9c6138ba565b5050505050509150503d8060008114611bd1576040513d603f01601f191681016040523d815291503d6000602084013e611bd6565b606091505b5090915050600181151514611c0f5760405162461bcd60e51b8152600401611bfd90614617565b60405180910390611c0c613543565b50505b7f508f3afa87f72dce865a2321107666b28ac822c23a8c0555fbeb3424cf3de56360006039611c3c6135ae565b906101000a90046001600160a01b0316611c546110cb565b5a611c5d613874565b604051611c6c93929190614060565b60405180910390a1506001949350505050565b603f610e766135ae565b60006033611c956135ae565b906101000a90046001600160a01b03166001600160a01b03165a611cb7613740565b6001600160a01b031614611cef5760405162461bcd60e51b8152600401611cdd906142ca565b60405180910390611cec613543565b50505b60006037600181611cfe6135ae565b816001600160a01b0302191690836001600160a01b03160217906117ba613786565b6000611d37838360200260040160ff1660206124ce565b9392505050565b6000806038611d4b6135ae565b906101000a90046001600160a01b03166001600160a01b03165a611d6d613740565b6001600160a01b03161480611e4a575060006038611d896135ae565b906101000a90046001600160a01b03166001600160a01b0316631d68702d6040518163ffffffff1660e01b81526004016020604051808303818680611dcc613609565b158015611de157600080611dde613543565b50505b505a611deb613655565b5050505050158015611e0a573d6000803e3d6000611e07613543565b50505b50505050604051601f3d908101601f19168201604052611e2d9190810190613a9e565b6001600160a01b03165a611e3f613740565b6001600160a01b0316145b611e785760405162461bcd60e51b8152600401611e6690614353565b60405180910390611e75613543565b50505b5a63996d79a5598160e01b8152602081600483336000905af158601d01573d60011458600c01573d6000803e3d621234565260ea61109c528051925060005b6040811015611ece57600082820152602001611eb7565b5050506001600160a01b0316826001600160a01b0316631e50a4a66040518163ffffffff1660e01b81526004016020604051808303818680611f0e613609565b158015611f2357600080611f20613543565b50505b505a611f2d613655565b5050505050158015611f4c573d6000803e3d6000611f49613543565b50505b50505050604051601f3d908101601f19168201604052611f6f9190810190613a9e565b6001600160a01b031614611fa75760405162461bcd60e51b8152600401611f95906142f0565b60405180910390611fa4613543565b50505b816039600181611fb56135ae565b816001600160a01b0302191690836001600160a01b0316021790611fd7613786565b5050507f8c1446ebd2ac8c922b8c9716dfbdfcfef02c9fc167140d7cfd019565b423b249825a612005613740565b604051612013929190614023565b60405180910390a1506001919050565b603e610e766135ae565b600080603861203a6135ae565b906101000a90046001600160a01b03166001600160a01b031663cc435bf3836040518263ffffffff1660e01b8152600401612075919061400f565b6020604051808303818680612088613609565b15801561209d5760008061209a613543565b50505b505a6120a7613655565b50505050501580156120c6573d6000803e3d60006120c3613543565b50505b50505050604051601f3d908101601f1916820160405261097c9190810190613d27565b6000603a806120f66135ae565b91505090565b603d610e766135ae565b60008061211e848460200260040160ff1660206124ce565b905061212f846004830160206124ce565b949350505050565b60606035806121446135ae565b8060200260200160405190810160405281815291906020830182806121676135ae565b80156121b457602002820191906000526020600020905b6000826121896135ae565b906101000a90046001600160a01b03166001600160a01b03168152602001906001019080831161217e575b5050505050905090565b60006035806120f66135ae565b600060336121d76135ae565b906101000a90046001600160a01b03166001600160a01b03165a6121f9613740565b6001600160a01b0316146122315760405162461bcd60e51b815260040161221f906142ca565b6040518091039061222e613543565b50505b80603760018161223f6135ae565b816001600160a01b0302191690836001600160a01b0316021790612261613786565b50505050565b600060336122736135ae565b906101000a90046001600160a01b03166001600160a01b03165a612295613740565b6001600160a01b0316146122cd5760405162461bcd60e51b81526004016122bb906142ca565b604051809103906122ca613543565b50505b600080603e6122da613786565b5050506000603f81906122eb613786565b5050507fc6f04bf43cbdf1ba5d51b4afa160bb3c7e13858b1409aa32868b239bb2f8d84960405160405180910390a1565b6001600160a01b03811660009081526036602052604081206110046135ae565b600061097c826000600461147d565b60006038610e4b6135ae565b603a81816123636135ae565b811061236b57fe5b9060005260206000200160009150610e4b6135ae565b6000603361238d6135ae565b906101000a90046001600160a01b03166001600160a01b03165a6123af613740565b6001600160a01b0316146123e75760405162461bcd60e51b81526004016123d5906142ca565b604051809103906123e4613543565b50505b6123f08161231c565b156123fa57610856565b610856816133f0565b60006001600160a01b0382166370a0823182603961241f6135ae565b906101000a90046001600160a01b03166040518263ffffffff1660e01b815260040161244b919061400f565b602060405180830381868061245e613609565b15801561247357600080612470613543565b50505b505a61247d613655565b505050505015801561249c573d6000803e3d6000612499613543565b50505b50505050604051601f3d908101601f1916820160405261097c9190810190613ee2565b600061097c826103b084612403565b6000818301845110156125055760405162461bcd60e51b81526004016124f390614432565b60405180910390612502613543565b50505b8260200184015190508160200380156114d35760080260020a90049392505050565b6060603a806125346135ae565b8060200260200160405190810160405281815291906020830182806125576135ae565b80156121b457602002820191906000526020600020905b6000826125796135ae565b906101000a90046001600160a01b03166001600160a01b03168152602001906001019080831161256e575050505050905090565b603c602052806000526040600020600091506125c76135ae565b906101000a900460ff1681565b600080603e6125e16135ae565b603f610cc16135ae565b60608060606000603a806125fd6135ae565b905090506060816001600160401b03811180156126225760008061261f613543565b50505b5060405190808252806020026020018201604052801561264c578160200160208202803683370190505b5090506060826001600160401b03811180156126705760008061266d613543565b50505b5060405190808252806020026020018201604052801561269a578160200160208202803683370190505b5090506060836001600160401b03811180156126be576000806126bb613543565b50505b506040519080825280602002602001820160405280156126e8578160200160208202803683370190505b50905060005b84811015612854576000603a82816127046135ae565b811061270c57fe5b906000526020600020016000906127216135ae565b906101000a90046001600160a01b0316905061273c81612403565b84838151811061274857fe5b6020026020010181815250508085838151811061276157fe5b6001600160a01b0390921660209283029190910190910152600060386127856135ae565b906101000a90046001600160a01b03166001600160a01b0316638b2f0f4f826040518263ffffffff1660e01b81526004016127c0919061400f565b60206040518083038186806127d3613609565b1580156127e8576000806127e5613543565b50505b505a6127f2613655565b5050505050158015612811573d6000803e3d600061280e613543565b50505b50505050604051601f3d908101601f191682016040526128349190810190613ee2565b83838151811061284057fe5b6020908102919091010152506001016126ee565b509195509350915050909192565b606060348061286f6135ae565b600181600116156101000203166002900480601f0160208091040260200160405190810160405281815291906020830182806128a96135ae565b600181600116156101000203166002900480156121b45780601f106128e35761010080836128d56135ae565b0402835291602001916121b4565b820191906000526020600020905b816128fa6135ae565b815290600101906020018083116128f157509395945050505050565b6001600160a01b0381166000908152603c602052604090206000906129396135ae565b906101000a900460ff166129715760405162461bcd60e51b815260040161295f9061455c565b6040518091039061296e613543565b50505b6001603d61297d6135ae565b116129ac5760405162461bcd60e51b815260040161299a90614396565b604051809103906129a9613543565b50505b6001600160a01b0381166000908152603c602052604081206001816129cf6135ae565b8160ff021916908315150217906129e4613786565b5050506129fc6001603d6129f66135ae565b9061347c565b80603d612261613786565b6000603a80612a146135ae565b6001600160a01b0384166000908152603b6020529092509050612a3e6001604083206129f66135ae565b90506000603a612a4f84600161347c565b81612a586135ae565b8110612a6057fe5b90600052602060002001600090612a756135ae565b906101000a90046001600160a01b0316905080603a8381612a946135ae565b8110612a9c57fe5b90600052602060002001600181612ab16135ae565b816001600160a01b0302191690836001600160a01b0316021790612ad3613786565b50612ae3915083905060016131db565b6001600160a01b0382166000908152603b602052604090208190612b05613786565b5050506001600160a01b0384166000908152603b602052604081208190612b2a613786565b505050603a80612b386135ae565b80612b3f57fe5b60019003818190600052602060002001600181612b5a6135ae565b906001600160a01b0302191690612b6f613786565b505090612b7a613786565b50507f9b4f55639e5e283319baee5bc4e69a5625a8e3a1cc004af968f4fee7250220276039600090612baa6135ae565b906101000a90046001600160a01b0316612bc26110cb565b86604051612bd29392919061403d565b60405180910390a150505050565b60006038612bec6135ae565b906101000a90046001600160a01b03166001600160a01b031663aa12ae4d6040518163ffffffff1660e01b81526004016020604051808303818680612c2f613609565b158015612c4457600080612c41613543565b50505b505a612c4e613655565b5050505050158015612c6d573d6000803e3d6000612c6a613543565b50505b50505050604051601f3d908101601f19168201604052612c909190810190613ee2565b603a80612c9b6135ae565b905010612ccc5760405162461bcd60e51b8152600401612cba90614685565b60405180910390612cc9613543565b50505b612cd581610fe4565b15612d045760405162461bcd60e51b8152600401612cf29061431c565b60405180910390612d01613543565b50505b612d0d8161202d565b1515600114612d405760405162461bcd60e51b8152600401612d2e906141a2565b60405180910390612d3d613543565b50505b80603a80600181612d4f6135ae565b018082612d5a613786565b505060009283526000190191602091502001600181612d776135ae565b816001600160a01b0302191690836001600160a01b0316021790612d99613786565b505050603a80612da76135ae565b6001600160a01b0383166000908152603b602052909150604090208190612dcc613786565b5050507f0a7426a0630aad7dbc4d5ca5b7d9aac1133d77d2db987caaf4b4186c85d6593f6039600090612dfd6135ae565b906101000a90046001600160a01b0316612e156110cb565b83604051612e259392919061403d565b60405180910390a150565b6000603580612e3d6135ae565b6001600160a01b038416600090815260366020529092509050612e676001604083206129f66135ae565b905060006035612e7884600161347c565b81612e816135ae565b8110612e8957fe5b90600052602060002001600090612e9e6135ae565b906101000a90046001600160a01b031690508060358381612ebd6135ae565b8110612ec557fe5b90600052602060002001600181612eda6135ae565b816001600160a01b0302191690836001600160a01b0316021790612efc613786565b50612f0c915083905060016131db565b6001600160a01b03821660009081526036602052604090208190612f2e613786565b5050506001600160a01b03841660009081526036602052604081208190612f53613786565b505050603580612f616135ae565b80612f6857fe5b60019003818190600052602060002001600181612f836135ae565b906001600160a01b0302191690612f98613786565b505090612fa3613786565b505050505050565b6000805a63996d79a5598160e01b8152602081600483336000905af158601d01573d60011458600c01573d6000803e3d621234565260ea61109c528051925060005b604081101561300457600082820152602001612fed565b5050509050600081613014613609565b159250505090565b81603360018161302a6135ae565b816001600160a01b0302191690836001600160a01b031602179061304c613786565b5050508060349080516117ba9291602001906137d4565b61306c81610fe4565b61309a5760405162461bcd60e51b815260040161308890614587565b60405180910390613097613543565b50505b6001600160a01b0381166000908152603c602052604090206000906130bd6135ae565b906101000a900460ff16156130f65760405162461bcd60e51b81526004016130e4906141c9565b604051809103906130f3613543565b50505b6001600160a01b0381166000908152603c6020526001906040902060018161311c6135ae565b8160ff02191690831515021790613131613786565b5050506129fc6001603d6131436135ae565b906131db565b6000826131585750600061097c565b8282028284828161316557fe5b0414611d375760405162461bcd60e51b815260040161318390614496565b60405180910390613192613543565b50509392505050565b6000611d37838360405160408082019052601a81527f536166654d6174683a206469766973696f6e206279207a65726f00000000000060208201526134bc565b600082820183811015611d375760405162461bcd60e51b81526004016131839061422f565b6000603861320c6135ae565b6001600160a01b036101009290920a90041663046b72c46000603961322f6135ae565b906101000a90046001600160a01b0316836040518363ffffffff1660e01b815260040161325d9291906140d1565b60006040518083038160008780613272613609565b15801561328757600080613284613543565b50505b505a6132916138ba565b5050505050501580156132b1573d6000803e3d60006132ae613543565b50505b5050505060008060386000906132c56135ae565b6001600160a01b036101009290920a90041663b7a54526600060396132e86135ae565b906101000a90046001600160a01b03166040518263ffffffff1660e01b8152600401613314919061400f565b60408051808303818680613326613609565b15801561333b57600080613338613543565b50505b505a613345613655565b5050505050158015613364573d6000803e3d6000613361613543565b50505b50505050604051601f3d908101601f191682016040526133879190810190613f05565b90925090507f1780c04ddc6f0b32d866c7a3d7583f53515ef49ed2126af868f804f491601266600060396133b96135ae565b906101000a90046001600160a01b03166133d16110cb565b84846040516133e39493929190614084565b60405180910390a1505050565b806035806001816133ff6135ae565b01808261340a613786565b5050600092835260001901916020915020016001816134276135ae565b816001600160a01b0302191690836001600160a01b0316021790613449613786565b5050506035806134576135ae565b6001600160a01b03831660009081526036602052909150604090208190612261613786565b6000611d37838360405160408082019052601e81527f536166654d6174683a207375627472616374696f6e206f766572666c6f7700006020820152613505565b600081836134ef5760405162461bcd60e51b81526004016134dd919061415f565b604051809103906134ec613543565b50505b5060008385816134fb57fe5b0495945050505050565b6000818484111561353b5760405162461bcd60e51b8152600401613529919061415f565b60405180910390613538613543565b50505b505050900390565b632a2a7adb598160e01b8152600481016020815285602082015260005b8681101561357b578086015182820160400152602001613560565b506020828760640184336000905af158601d01573d60011458600c01573d6000803e3d621234565260ea61109c52505050565b6303daa959598160e01b8152836004820152602081602483336000905af158601d01573d60011458600c01573d6000803e3d621234565260ea61109c528051935060005b60408110156117ba576000828201526020016135f2565b638435035b598160e01b8152836004820152602081602483336000905af158601d01573d60011458600c01573d6000803e3d621234565260ea61109c52805160008252935060206135f2565b638540661f598160e01b8152613686565b808083111561097c575090919050565b808083101561097c575090919050565b836004820152846024820152606060448201528660648201526084810160005b888110156136be5780880151828201526020016136a6565b506060828960a40184336000905af158601d01573d60011458600c01573d6000803e3d621234565260ea61109c52815160408301513d6000853e8b8b82606087013350600060045af150596137138d3d613676565b8c0161371f8187613666565b5b828110156137345760008152602001613720565b50929c50505050505050565b6373509064598160e01b8152602081600483336000905af158601d01573d60011458600c01573d6000803e3d621234565260ea61109c52805160008252935060206135f2565b6322bd64c0598160e01b8152836004820152846024820152600081604483336000905af158601d01573d60011458600c01573d6000803e3d621234565260ea61109c526000815260206135f2565b82806137de6135ae565b600181600116156101000203166002900490600052602060002090601f016020900481019282601f1061382557805160ff1916838001178561381e613786565b5050613864565b82800160010185613834613786565b50508215613864579182015b8281111561386457825182613853613786565b505091602001919060010190613840565b50613870929150613980565b5090565b63bdbf8c36598160e01b8152602081600483336000905af158601d01573d60011458600c01573d6000803e3d621234565260ea61109c52805160008252935060206135f2565b6385979f76598160e01b8152836004820152846024820152606060448201528760648201526084810160005b898110156138fe5780890151828201526020016138e6565b506060828a60a40184336000905af158601d01573d60011458600c01573d6000803e3d621234565260ea61109c52815160408301513d6000853e8c8c82606087013350600060045af150596139538e3d613676565b8d0161395f8187613666565b5b828110156139745760008152602001613960565b50929d50505050505050565b808211156138705760008082613994613786565b505050600101613980565b803561097c8161474a565b600082601f8301126139c35780816139c0613543565b50505b81356001600160401b038111156139e15781826139de613543565b50505b6139f4601f8201601f19166020016146c3565b9150808252836020828501011115613a1457600080613a11613543565b50505b8060208401602084013760009082016020015292915050565b600060408284031215613a47578081613a44613543565b50505b613a5160406146c3565b90508135613a5e8161474a565b81526020820135613a6e81614765565b602082015292915050565b600060208284031215613a93578081613a90613543565b50505b8135611d378161474a565b600060208284031215613ab8578081613ab5613543565b50505b8151611d378161474a565b60008060008060808587031215613ae1578283613ade613543565b50505b8435613aec8161474a565b9350602085810135613afd8161474a565b93506040868101356001600160401b0380821115613b22578586613b1f613543565b50505b613b2e8a838b016139aa565b95506060890135915080821115613b4c578485613b49613543565b50505b508701601f81018913613b66578384613b63613543565b50505b8035613b79613b74826146f6565b6146c3565b81815284810190838601858402850187018d1015613b9e578788613b9b613543565b50505b8794505b83851015613bc857613bb48d82613a2d565b835260019490940193918601918501613ba2565b50989b979a50959850505050505050565b60008060408385031215613bf4578182613bf1613543565b50505b8235613bff8161474a565b915060208301356001600160401b03811115613c22578182613c1f613543565b50505b613c2e858286016139aa565b9150509250929050565b60008060408385031215613c53578182613c50613543565b50505b8235613c5e8161474a565b946020939093013593505050565b60006020808385031215613c87578182613c84613543565b50505b82356001600160401b03811115613ca5578283613ca2613543565b50505b8301601f81018513613cbe578283613cbb613543565b50505b8035613ccc613b74826146f6565b8181528381019083850185840285018601891015613cf1578687613cee613543565b50505b8694505b83851015613d1b57613d07898261399f565b835260019490940193918501918501613cf5565b50979650505050505050565b600060208284031215613d41578081613d3e613543565b50505b8151611d3781614765565b600060208284031215613d66578081613d63613543565b50505b5035919050565b600060208284031215613d87578081613d84613543565b50505b81356001600160401b03811115613da5578182613da2613543565b50505b61212f848285016139aa565b600080600060608486031215613dce578081613dcb613543565b50505b83356001600160401b03811115613dec578182613de9613543565b50505b613df8868287016139aa565b9660208601359650604090950135949350505050565b60008060408385031215613e29578182613e26613543565b50505b82356001600160401b03811115613e47578283613e44613543565b50505b613e53858286016139aa565b9250506020830135613e6481614779565b809150509250929050565b600080600060608486031215613e8c578081613e89613543565b50505b83356001600160401b03811115613eaa578182613ea7613543565b50505b613eb6868287016139aa565b9350506020840135613ec781614779565b91506040840135613ed781614779565b809150509250925092565b600060208284031215613efc578081613ef9613543565b50505b81519392505050565b60008060408385031215613f20578182613f1d613543565b50505b82519150602083015190509250929050565b600060208284031215613f4c578081613f49613543565b50505b8151611d3781614779565b60008151808452602093840193838101835b83811015613f8e576001600160a01b0382511687529582019590820190600101613f69565b509495945050505050565b60008151808452602093840193838101835b83811015613f8e57815187529582019590820190600101613fab565b60008151808452613fdf81602086016020860161471e565b601f01601f19169290920160200192915050565b6000825161400581846020870161471e565b9190910192915050565b6001600160a01b0391909116815260200190565b6001600160a01b0392831681529116602082015260400190565b6001600160a01b0393841681529183166020830152909116604082015260600190565b6001600160a01b039384168152919092166020820152604081019190915260600190565b6001600160a01b0394851681529290931660208301526040820152606081019190915260800190565b6001600160a01b038316815260406020820181905260009061212f90830184613fc7565b6001600160a01b03929092168252602082015260400190565b600060208252611d376020830184613f57565b6000606082526141106060830186613f57565b82810360208401526141228186613f99565b90508281036040840152610fda8185613f99565b901515815260200190565b90815260200190565b6001600160e01b031991909116815260200190565b600060208252611d376020830184613fc7565b60208082526016908201527534b73b30b634b21030b93930bc903837b9b4ba34b7b760511b604082015260600190565b6020808252600d908201526c1a5b9d985b1a5908185cdcd95d609a1b604082015260600190565b602080825260159082015274185b1c9958591e4819195c1bdcda5d08185cdcd95d605a1b604082015260600190565b6020808252601b908201527f6f6e6c79206d616e616765722c20747261646572206f722044414f0000000000604082015260600190565b6020808252601b908201527f536166654d6174683a206164646974696f6e206f766572666c6f770000000000604082015260600190565b60208082526013908201527234b73b30b634b2103a3930b739b0b1ba34b7b760691b604082015260600190565b6020808252601d908201527f63616e6e6f742072656d6f7665206e6f6e2d656d707479206173736574000000604082015260600190565b6020808252600c908201526b37b7363c9036b0b730b3b2b960a11b604082015260600190565b602080825260129082015271696e76616c696420706f6f6c206c6f67696360701b604082015260600190565b60208082526017908201527f617373657420616c726561647920737570706f72746564000000000000000000604082015260600190565b60208082526023908201527f6f6e6c792044414f206f7220666163746f7279206164647265737320616c6c6f6040820152621dd95960ea1b606082015260800190565b60208082526022908201527f72657175697265206174206c65617374206f6e65206465706f73697420617373604082015261195d60f21b606082015260800190565b60208082526016908201527537b7363c9036b0b730b3b2b91037b9103a3930b232b960511b604082015260600190565b60208082526010908201526f34b73b30b634b210333930b1ba34b7b760811b604082015260600190565b6020808252601b908201527f52656164696e67206279746573206f7574206f6620626f756e64730000000000604082015260600190565b60208082526013908201527234b73b30b634b2103232b9ba34b730ba34b7b760691b604082015260600190565b60208082526021908201527f536166654d6174683a206d756c7469706c69636174696f6e206f766572666c6f6040820152607760f81b606082015260800190565b60208082526019908201527f66656520696e6372656173652064656c61792061637469766500000000000000604082015260600190565b6020808252602e908201527f436f6e747261637420696e7374616e63652068617320616c726561647920626560408201526d195b881a5b9a5d1a585b1a5e995960921b606082015260800190565b6020808252601190820152701b9bdd0819195c1bdcda5d08185cdcd95d607a1b604082015260600190565b602080825260139082015272185cdcd95d081b9bdd081cdd5c1c1bdc9d1959606a1b604082015260600190565b60208082526019908201527f657863656564656420616c6c6f77656420696e63726561736500000000000000604082015260600190565b602080825260129082015271696e707574206973206e6f7420617272617960701b604082015260600190565b6020808252601a908201527f6661696c656420746f2065786563757465207468652063616c6c000000000000604082015260600190565b6020808252601c908201527f6e6f6e2d7a65726f206164647265737320697320726571756972656400000000604082015260600190565b6020808252601690820152751b585e1a5b5d5b48185cdcd95d1cc81c995858da195960521b604082015260600190565b918252602082015260400190565b600060405190508181018181106001600160401b03821117156146ee576000806146eb613543565b50505b604052919050565b60006001600160401b03821115614714578081614711613543565b50505b5060209081020190565b60005b83811015614739578082015183820152602001614721565b838111156122615750506000910152565b6001600160a01b0381168114610856576000806117ba613543565b8015158114610856576000806117ba613543565b60ff81168114610856576000806117ba61354356",
  "linkReferences": {},
  "deployedLinkReferences": {}
}