{
  "_format": "hh-sol-artifact-1",
  "contractName": "PoolManagerLogic",
  "sourceName": "contracts/PoolManagerLogic.sol",
  "abi": [
    {
      "anonymous": false,
      "inputs": [
        {
          "indexed": false,
          "internalType": "address",
          "name": "fundAddress",
          "type": "address"
        },
        {
          "indexed": false,
          "internalType": "address",
          "name": "manager",
          "type": "address"
        },
        {
          "indexed": false,
          "internalType": "address",
          "name": "asset",
          "type": "address"
        }
      ],
      "name": "AssetAdded",
      "type": "event"
    },
    {
      "anonymous": false,
      "inputs": [
        {
          "indexed": false,
          "internalType": "address",
          "name": "fundAddress",
          "type": "address"
        },
        {
          "indexed": false,
          "internalType": "address",
          "name": "manager",
          "type": "address"
        },
        {
          "indexed": false,
          "internalType": "address",
          "name": "asset",
          "type": "address"
        }
      ],
      "name": "AssetRemoved",
      "type": "event"
    },
    {
      "anonymous": false,
      "inputs": [
        {
          "indexed": false,
          "internalType": "address",
          "name": "fundAddress",
          "type": "address"
        },
        {
          "indexed": false,
          "internalType": "address",
          "name": "manager",
          "type": "address"
        },
        {
          "indexed": false,
          "internalType": "address",
          "name": "sourceAsset",
          "type": "address"
        },
        {
          "indexed": false,
          "internalType": "uint256",
          "name": "sourceAmount",
          "type": "uint256"
        },
        {
          "indexed": false,
          "internalType": "address",
          "name": "destinationAddress",
          "type": "address"
        },
        {
          "indexed": false,
          "internalType": "uint256",
          "name": "destinationAmount",
          "type": "uint256"
        },
        {
          "indexed": false,
          "internalType": "uint256",
          "name": "time",
          "type": "uint256"
        }
      ],
      "name": "Exchange",
      "type": "event"
    },
    {
      "anonymous": false,
      "inputs": [
        {
          "indexed": false,
          "internalType": "uint256",
          "name": "newNumerator",
          "type": "uint256"
        },
        {
          "indexed": false,
          "internalType": "uint256",
          "name": "announcedFeeActivationTime",
          "type": "uint256"
        }
      ],
      "name": "ManagerFeeIncreaseAnnounced",
      "type": "event"
    },
    {
      "anonymous": false,
      "inputs": [],
      "name": "ManagerFeeIncreaseRenounced",
      "type": "event"
    },
    {
      "anonymous": false,
      "inputs": [
        {
          "indexed": false,
          "internalType": "address",
          "name": "fundAddress",
          "type": "address"
        },
        {
          "indexed": false,
          "internalType": "address",
          "name": "manager",
          "type": "address"
        },
        {
          "indexed": false,
          "internalType": "uint256",
          "name": "numerator",
          "type": "uint256"
        },
        {
          "indexed": false,
          "internalType": "uint256",
          "name": "denominator",
          "type": "uint256"
        }
      ],
      "name": "ManagerFeeSet",
      "type": "event"
    },
    {
      "anonymous": false,
      "inputs": [
        {
          "indexed": false,
          "internalType": "address",
          "name": "newManager",
          "type": "address"
        },
        {
          "indexed": false,
          "internalType": "string",
          "name": "newManagerName",
          "type": "string"
        }
      ],
      "name": "ManagerUpdated",
      "type": "event"
    },
    {
      "inputs": [
        {
          "internalType": "address",
          "name": "member",
          "type": "address"
        }
      ],
      "name": "addMember",
      "outputs": [],
      "stateMutability": "nonpayable",
      "type": "function"
    },
    {
      "inputs": [
        {
          "internalType": "address[]",
          "name": "members",
          "type": "address[]"
        }
      ],
      "name": "addMembers",
      "outputs": [],
      "stateMutability": "nonpayable",
      "type": "function"
    },
    {
      "inputs": [
        {
          "internalType": "address",
          "name": "asset",
          "type": "address"
        }
      ],
      "name": "addToSupportedAssets",
      "outputs": [],
      "stateMutability": "nonpayable",
      "type": "function"
    },
    {
      "inputs": [],
      "name": "addressResolver",
      "outputs": [
        {
          "internalType": "contract IAddressResolver",
          "name": "",
          "type": "address"
        }
      ],
      "stateMutability": "view",
      "type": "function"
    },
    {
      "inputs": [
        {
          "internalType": "address",
          "name": "pool",
          "type": "address"
        },
        {
          "internalType": "uint256",
          "name": "numerator",
          "type": "uint256"
        }
      ],
      "name": "announceManagerFeeIncrease",
      "outputs": [],
      "stateMutability": "nonpayable",
      "type": "function"
    },
    {
      "inputs": [],
      "name": "announcedFeeIncreaseNumerator",
      "outputs": [
        {
          "internalType": "uint256",
          "name": "",
          "type": "uint256"
        }
      ],
      "stateMutability": "view",
      "type": "function"
    },
    {
      "inputs": [],
      "name": "announcedFeeIncreaseTimestamp",
      "outputs": [
        {
          "internalType": "uint256",
          "name": "",
          "type": "uint256"
        }
      ],
      "stateMutability": "view",
      "type": "function"
    },
    {
      "inputs": [
        {
          "internalType": "address",
          "name": "",
          "type": "address"
        }
      ],
      "name": "assetPosition",
      "outputs": [
        {
          "internalType": "uint256",
          "name": "",
          "type": "uint256"
        }
      ],
      "stateMutability": "view",
      "type": "function"
    },
    {
      "inputs": [
        {
          "internalType": "address",
          "name": "asset",
          "type": "address"
        }
      ],
      "name": "assetValue",
      "outputs": [
        {
          "internalType": "uint256",
          "name": "",
          "type": "uint256"
        }
      ],
      "stateMutability": "view",
      "type": "function"
    },
    {
      "inputs": [
        {
          "internalType": "address",
          "name": "newManager",
          "type": "address"
        },
        {
          "internalType": "string",
          "name": "newManagerName",
          "type": "string"
        }
      ],
      "name": "changeManager",
      "outputs": [],
      "stateMutability": "nonpayable",
      "type": "function"
    },
    {
      "inputs": [
        {
          "internalType": "address",
          "name": "pool",
          "type": "address"
        }
      ],
      "name": "commitManagerFeeIncrease",
      "outputs": [],
      "stateMutability": "nonpayable",
      "type": "function"
    },
    {
      "inputs": [
        {
          "internalType": "bytes32",
          "name": "data",
          "type": "bytes32"
        }
      ],
      "name": "convert32toAddress",
      "outputs": [
        {
          "internalType": "address",
          "name": "o",
          "type": "address"
        }
      ],
      "stateMutability": "pure",
      "type": "function"
    },
    {
      "inputs": [
        {
          "internalType": "address",
          "name": "sourceAsset",
          "type": "address"
        },
        {
          "internalType": "uint256",
          "name": "sourceAmount",
          "type": "uint256"
        },
        {
          "internalType": "address",
          "name": "destinationAsset",
          "type": "address"
        }
      ],
      "name": "exchange",
      "outputs": [],
      "stateMutability": "nonpayable",
      "type": "function"
    },
    {
      "inputs": [
        {
          "internalType": "address",
          "name": "to",
          "type": "address"
        },
        {
          "internalType": "bytes",
          "name": "data",
          "type": "bytes"
        }
      ],
      "name": "execTransaction",
      "outputs": [
        {
          "internalType": "bool",
          "name": "",
          "type": "bool"
        }
      ],
      "stateMutability": "nonpayable",
      "type": "function"
    },
    {
      "inputs": [],
      "name": "factory",
      "outputs": [
        {
          "internalType": "address",
          "name": "",
          "type": "address"
        }
      ],
      "stateMutability": "view",
      "type": "function"
    },
    {
      "inputs": [
        {
          "internalType": "bytes",
          "name": "data",
          "type": "bytes"
        },
        {
          "internalType": "uint8",
          "name": "inputNum",
          "type": "uint8"
        },
        {
          "internalType": "uint8",
          "name": "arrayIndex",
          "type": "uint8"
        }
      ],
      "name": "getArrayIndex",
      "outputs": [
        {
          "internalType": "bytes32",
          "name": "",
          "type": "bytes32"
        }
      ],
      "stateMutability": "pure",
      "type": "function"
    },
    {
      "inputs": [
        {
          "internalType": "bytes",
          "name": "data",
          "type": "bytes"
        },
        {
          "internalType": "uint8",
          "name": "inputNum",
          "type": "uint8"
        }
      ],
      "name": "getArrayLast",
      "outputs": [
        {
          "internalType": "bytes32",
          "name": "",
          "type": "bytes32"
        }
      ],
      "stateMutability": "pure",
      "type": "function"
    },
    {
      "inputs": [
        {
          "internalType": "bytes",
          "name": "data",
          "type": "bytes"
        },
        {
          "internalType": "uint8",
          "name": "inputNum",
          "type": "uint8"
        }
      ],
      "name": "getArrayLength",
      "outputs": [
        {
          "internalType": "uint256",
          "name": "",
          "type": "uint256"
        }
      ],
      "stateMutability": "pure",
      "type": "function"
    },
    {
      "inputs": [
        {
          "internalType": "bytes32",
          "name": "key",
          "type": "bytes32"
        }
      ],
      "name": "getAssetProxy",
      "outputs": [
        {
          "internalType": "address",
          "name": "",
          "type": "address"
        }
      ],
      "stateMutability": "view",
      "type": "function"
    },
    {
      "inputs": [],
      "name": "getFundComposition",
      "outputs": [
        {
          "internalType": "address[]",
          "name": "",
          "type": "address[]"
        },
        {
          "internalType": "uint256[]",
          "name": "",
          "type": "uint256[]"
        },
        {
          "internalType": "uint256[]",
          "name": "",
          "type": "uint256[]"
        }
      ],
      "stateMutability": "view",
      "type": "function"
    },
    {
      "inputs": [
        {
          "internalType": "bytes",
          "name": "data",
          "type": "bytes"
        },
        {
          "internalType": "uint8",
          "name": "inputNum",
          "type": "uint8"
        }
      ],
      "name": "getInput",
      "outputs": [
        {
          "internalType": "bytes32",
          "name": "",
          "type": "bytes32"
        }
      ],
      "stateMutability": "pure",
      "type": "function"
    },
    {
      "inputs": [
        {
          "internalType": "address",
          "name": "pool",
          "type": "address"
        }
      ],
      "name": "getManagerFee",
      "outputs": [
        {
          "internalType": "uint256",
          "name": "",
          "type": "uint256"
        },
        {
          "internalType": "uint256",
          "name": "",
          "type": "uint256"
        }
      ],
      "stateMutability": "view",
      "type": "function"
    },
    {
      "inputs": [],
      "name": "getManagerFeeIncreaseInfo",
      "outputs": [
        {
          "internalType": "uint256",
          "name": "",
          "type": "uint256"
        },
        {
          "internalType": "uint256",
          "name": "",
          "type": "uint256"
        }
      ],
      "stateMutability": "view",
      "type": "function"
    },
    {
      "inputs": [],
      "name": "getMembers",
      "outputs": [
        {
          "internalType": "address[]",
          "name": "",
          "type": "address[]"
        }
      ],
      "stateMutability": "view",
      "type": "function"
    },
    {
      "inputs": [
        {
          "internalType": "bytes",
          "name": "data",
          "type": "bytes"
        }
      ],
      "name": "getMethod",
      "outputs": [
        {
          "internalType": "bytes4",
          "name": "",
          "type": "bytes4"
        }
      ],
      "stateMutability": "pure",
      "type": "function"
    },
    {
      "inputs": [],
      "name": "getSupportedAssets",
      "outputs": [
        {
          "internalType": "address[]",
          "name": "",
          "type": "address[]"
        }
      ],
      "stateMutability": "view",
      "type": "function"
    },
    {
      "inputs": [],
      "name": "getSuspendedAssets",
      "outputs": [
        {
          "internalType": "address[]",
          "name": "",
          "type": "address[]"
        },
        {
          "internalType": "bool[]",
          "name": "",
          "type": "bool[]"
        }
      ],
      "stateMutability": "view",
      "type": "function"
    },
    {
      "inputs": [
        {
          "internalType": "address",
          "name": "asset",
          "type": "address"
        }
      ],
      "name": "getSynthKey",
      "outputs": [
        {
          "internalType": "bytes32",
          "name": "",
          "type": "bytes32"
        }
      ],
      "stateMutability": "view",
      "type": "function"
    },
    {
      "inputs": [
        {
          "internalType": "address",
          "name": "_factory",
          "type": "address"
        },
        {
          "internalType": "address",
          "name": "_manager",
          "type": "address"
        },
        {
          "internalType": "string",
          "name": "_managerName",
          "type": "string"
        },
        {
          "internalType": "contract IAddressResolver",
          "name": "_addressResolver",
          "type": "address"
        },
        {
          "internalType": "address[]",
          "name": "_supportedAssets",
          "type": "address[]"
        }
      ],
      "name": "initialize",
      "outputs": [],
      "stateMutability": "nonpayable",
      "type": "function"
    },
    {
      "inputs": [
        {
          "internalType": "address",
          "name": "asset",
          "type": "address"
        }
      ],
      "name": "isAssetSupported",
      "outputs": [
        {
          "internalType": "bool",
          "name": "",
          "type": "bool"
        }
      ],
      "stateMutability": "view",
      "type": "function"
    },
    {
      "inputs": [
        {
          "internalType": "address",
          "name": "member",
          "type": "address"
        }
      ],
      "name": "isMemberAllowed",
      "outputs": [
        {
          "internalType": "bool",
          "name": "",
          "type": "bool"
        }
      ],
      "stateMutability": "view",
      "type": "function"
    },
    {
      "inputs": [
        {
          "internalType": "address",
          "name": "asset",
          "type": "address"
        }
      ],
      "name": "isSynthAsset",
      "outputs": [
        {
          "internalType": "bool",
          "name": "",
          "type": "bool"
        }
      ],
      "stateMutability": "view",
      "type": "function"
    },
    {
      "inputs": [],
      "name": "manager",
      "outputs": [
        {
          "internalType": "address",
          "name": "",
          "type": "address"
        }
      ],
      "stateMutability": "view",
      "type": "function"
    },
    {
      "inputs": [],
      "name": "managerName",
      "outputs": [
        {
          "internalType": "string",
          "name": "",
          "type": "string"
        }
      ],
      "stateMutability": "view",
      "type": "function"
    },
    {
      "inputs": [],
      "name": "numberOfMembers",
      "outputs": [
        {
          "internalType": "uint256",
          "name": "",
          "type": "uint256"
        }
      ],
      "stateMutability": "view",
      "type": "function"
    },
    {
      "inputs": [],
      "name": "numberOfSupportedAssets",
      "outputs": [
        {
          "internalType": "uint256",
          "name": "",
          "type": "uint256"
        }
      ],
      "stateMutability": "view",
      "type": "function"
    },
    {
      "inputs": [
        {
          "internalType": "address",
          "name": "",
          "type": "address"
        }
      ],
      "name": "persistentAsset",
      "outputs": [
        {
          "internalType": "bool",
          "name": "",
          "type": "bool"
        }
      ],
      "stateMutability": "view",
      "type": "function"
    },
    {
      "inputs": [
        {
          "internalType": "bytes",
          "name": "data",
          "type": "bytes"
        },
        {
          "internalType": "uint256",
          "name": "offset",
          "type": "uint256"
        },
        {
          "internalType": "uint256",
          "name": "length",
          "type": "uint256"
        }
      ],
      "name": "read32",
      "outputs": [
        {
          "internalType": "bytes32",
          "name": "o",
          "type": "bytes32"
        }
      ],
      "stateMutability": "pure",
      "type": "function"
    },
    {
      "inputs": [
        {
          "internalType": "bytes",
          "name": "data",
          "type": "bytes"
        },
        {
          "internalType": "uint256",
          "name": "offset",
          "type": "uint256"
        },
        {
          "internalType": "uint256",
          "name": "length",
          "type": "uint256"
        }
      ],
      "name": "read4left",
      "outputs": [
        {
          "internalType": "bytes4",
          "name": "o",
          "type": "bytes4"
        }
      ],
      "stateMutability": "pure",
      "type": "function"
    },
    {
      "inputs": [
        {
          "internalType": "address",
          "name": "asset",
          "type": "address"
        }
      ],
      "name": "removeFromSupportedAssets",
      "outputs": [],
      "stateMutability": "nonpayable",
      "type": "function"
    },
    {
      "inputs": [
        {
          "internalType": "address",
          "name": "member",
          "type": "address"
        }
      ],
      "name": "removeMember",
      "outputs": [],
      "stateMutability": "nonpayable",
      "type": "function"
    },
    {
      "inputs": [
        {
          "internalType": "address[]",
          "name": "members",
          "type": "address[]"
        }
      ],
      "name": "removeMembers",
      "outputs": [],
      "stateMutability": "nonpayable",
      "type": "function"
    },
    {
      "inputs": [],
      "name": "removeTrader",
      "outputs": [],
      "stateMutability": "nonpayable",
      "type": "function"
    },
    {
      "inputs": [],
      "name": "renounceManagerFeeIncrease",
      "outputs": [],
      "stateMutability": "nonpayable",
      "type": "function"
    },
    {
      "inputs": [
        {
          "internalType": "address",
          "name": "_addressResolver",
          "type": "address"
        }
      ],
      "name": "setAddressResolver",
      "outputs": [],
      "stateMutability": "nonpayable",
      "type": "function"
    },
    {
      "inputs": [
        {
          "internalType": "address",
          "name": "newTrader",
          "type": "address"
        }
      ],
      "name": "setTrader",
      "outputs": [],
      "stateMutability": "nonpayable",
      "type": "function"
    },
    {
      "inputs": [
        {
          "internalType": "uint256",
          "name": "",
          "type": "uint256"
        }
      ],
      "name": "supportedAssets",
      "outputs": [
        {
          "internalType": "address",
          "name": "",
          "type": "address"
        }
      ],
      "stateMutability": "view",
      "type": "function"
    },
    {
      "inputs": [],
      "name": "trader",
      "outputs": [
        {
          "internalType": "address",
          "name": "",
          "type": "address"
        }
      ],
      "stateMutability": "view",
      "type": "function"
    },
    {
      "inputs": [
        {
          "internalType": "address",
          "name": "asset",
          "type": "address"
        }
      ],
      "name": "validateAsset",
      "outputs": [
        {
          "internalType": "bool",
          "name": "",
          "type": "bool"
        }
      ],
      "stateMutability": "view",
      "type": "function"
    }
  ],
  "bytecode": "0x608060405234801561001057600080fd5b506141b7806100206000396000f3fe608060405234801561001057600080fd5b50600436106102bb5760003560e01c806380dd4f6211610182578063b8bd81e6116100e9578063d346cc65116100a2578063e5406dbf1161007c578063e5406dbf1461103b578063ed5b165d14611043578063f09d14d71461104b578063fed4416a14611131576102bb565b8063d346cc6514610e1c578063d8af8ed414610f6c578063db896b5714610f92576102bb565b8063b8bd81e614610cff578063bbbf725b14610d07578063c3c6279f14610d2d578063c45a015514610dd1578063c68dbb3714610dd9578063ca6d56dc14610df6576102bb565b8063998546e31161013b578063998546e314610b745780639eab525314610c1d578063a0f8414c14610c75578063a250bc6b14610c9b578063a30e3fa914610cd1578063a6bc18f914610cd9576102bb565b806380dd4f6214610a4957806382f86acc14610a6f5780638f32343914610b185780639240d29914610b20578063936553c414610b46578063969eed2714610b4e576102bb565b8063464b4158116102265780636141db90116101df5780636141db90146108925780636708f5d7146108b85780636f4d469b146108e45780637ae7cfb5146109855780637b4d0c6314610a395780637c8afd5114610a41576102bb565b8063464b4158146105f657806346ee84b014610630578063481c6a75146106d157806352213663146106d9578063568b5a2f1461078d5780635f6eceab14610853576102bb565b80631758078b116102785780631758078b146104395780631eba30771461044157806321f8c9841461045e5780633c570d7d146104ff5780633ded65301461052557806341dc16c314610542576102bb565b806305a2ee2a146102c057806306468587146102e4578063093b88251461030c57806309ff5c7d146103325780630b1ca49a146103ed5780631430238714610413575b600080fd5b6102c86111ae565b604080516001600160a01b039092168252519081900360200190f35b61030a600480360360208110156102fa57600080fd5b50356001600160a01b03166111bd565b005b61030a6004803603602081101561032257600080fd5b50356001600160a01b031661147a565b6103db6004803603604081101561034857600080fd5b810190602081018135600160201b81111561036257600080fd5b82018360208201111561037457600080fd5b803590602001918460018302840111600160201b8311171561039557600080fd5b91908080601f0160208091040260200160405190810160405280939291908181526020018383808284376000920191909152509295505050903560ff1691506114f09050565b60408051918252519081900360200190f35b61030a6004803603602081101561040357600080fd5b50356001600160a01b0316611583565b61030a6004803603602081101561042957600080fd5b50356001600160a01b03166115ec565b6102c861165d565b6102c86004803603602081101561045757600080fd5b503561166c565b610466611673565b604051808060200180602001838103835285818151815260200191508051906020019060200280838360005b838110156104aa578181015183820152602001610492565b50505050905001838103825284818151815260200191508051906020019060200280838360005b838110156104e95781810151838201526020016104d1565b5050505090500194505050505060405180910390f35b6103db6004803603602081101561051557600080fd5b50356001600160a01b031661189f565b6102c86004803603602081101561053b57600080fd5b50356118b1565b6103db6004803603606081101561055857600080fd5b810190602081018135600160201b81111561057257600080fd5b82018360208201111561058457600080fd5b803590602001918460018302840111600160201b831117156105a557600080fd5b91908080601f0160208091040260200160405190810160405280939291908181526020018383808284376000920191909152509295505060ff8335811694506020909301359092169150611ab49050565b61061c6004803603602081101561060c57600080fd5b50356001600160a01b0316611b9c565b604080519115158252519081900360200190f35b61030a6004803603602081101561064657600080fd5b810190602081018135600160201b81111561066057600080fd5b82018360208201111561067257600080fd5b803590602001918460208302840111600160201b8311171561069357600080fd5b919080806020026020016040519081016040528093929190818152602001838360200280828437600092019190915250929550611bb9945050505050565b6102c8611c60565b61030a600480360360408110156106ef57600080fd5b6001600160a01b038235169190810190604081016020820135600160201b81111561071957600080fd5b82018360208201111561072b57600080fd5b803590602001918460018302840111600160201b8311171561074c57600080fd5b91908080601f016020809104026020016040519081016040528093929190818152602001838380828437600092019190915250929550611c6f945050505050565b610836600480360360608110156107a357600080fd5b810190602081018135600160201b8111156107bd57600080fd5b8201836020820111156107cf57600080fd5b803590602001918460018302840111600160201b831117156107f057600080fd5b91908080601f0160208091040260200160405190810160405280939291908181526020018383808284376000920191909152509295505082359350505060200135611d9a565b604080516001600160e01b03199092168252519081900360200190f35b6108796004803603602081101561086957600080fd5b50356001600160a01b0316611e1b565b6040805192835260208301919091528051918290030190f35b6103db600480360360208110156108a857600080fd5b50356001600160a01b0316611ea5565b61030a600480360360408110156108ce57600080fd5b506001600160a01b038135169060200135611fa4565b61030a600480360360208110156108fa57600080fd5b810190602081018135600160201b81111561091457600080fd5b82018360208201111561092657600080fd5b803590602001918460208302840111600160201b8311171561094757600080fd5b9190808060200260200160405190810160405280939291908181526020018383602002808284376000920191909152509295506121df945050505050565b61061c6004803603604081101561099b57600080fd5b6001600160a01b038235169190810190604081016020820135600160201b8111156109c557600080fd5b8201836020820111156109d757600080fd5b803590602001918460018302840111600160201b831117156109f857600080fd5b91908080601f016020809104026020016040519081016040528093929190818152602001838380828437600092019190915250929550612276945050505050565b6103db61265a565b61030a612660565b61061c60048036036020811015610a5f57600080fd5b50356001600160a01b03166126c0565b6103db60048036036040811015610a8557600080fd5b810190602081018135600160201b811115610a9f57600080fd5b820183602082011115610ab157600080fd5b803590602001918460018302840111600160201b83111715610ad257600080fd5b91908080601f0160208091040260200160405190810160405280939291908181526020018383808284376000920191909152509295505050903560ff1691506126d59050565b6103db6126ec565b61061c60048036036020811015610b3657600080fd5b50356001600160a01b03166126f2565b6103db6128a5565b61030a60048036036020811015610b6457600080fd5b50356001600160a01b03166128ab565b6103db60048036036040811015610b8a57600080fd5b810190602081018135600160201b811115610ba457600080fd5b820183602082011115610bb657600080fd5b803590602001918460018302840111600160201b83111715610bd757600080fd5b91908080601f0160208091040260200160405190810160405280939291908181526020018383808284376000920191909152509295505050903560ff1691506129699050565b610c2561299a565b60408051602080825283518183015283519192839290830191858101910280838360005b83811015610c61578181015183820152602001610c49565b505050509050019250505060405180910390f35b61061c60048036036020811015610c8b57600080fd5b50356001600160a01b03166129fc565b61030a60048036036060811015610cb157600080fd5b506001600160a01b03813581169160208101359160409091013516612a10565b6103db612dc0565b61030a60048036036020811015610cef57600080fd5b50356001600160a01b0316612dc6565b61030a612e36565b61061c60048036036020811015610d1d57600080fd5b50356001600160a01b0316612eb9565b61083660048036036020811015610d4357600080fd5b810190602081018135600160201b811115610d5d57600080fd5b820183602082011115610d6f57600080fd5b803590602001918460018302840111600160201b83111715610d9057600080fd5b91908080601f016020809104026020016040519081016040528093929190818152602001838380828437600092019190915250929550612ed6945050505050565b6102c8612ee5565b6102c860048036036020811015610def57600080fd5b5035612ef4565b61030a60048036036020811015610e0c57600080fd5b50356001600160a01b0316612f1b565b61030a600480360360a0811015610e3257600080fd5b6001600160a01b038235811692602081013590911691810190606081016040820135600160201b811115610e6557600080fd5b820183602082011115610e7757600080fd5b803590602001918460018302840111600160201b83111715610e9857600080fd5b91908080601f01602080910402602001604051908101604052809392919081815260200183838082843760009201919091525092956001600160a01b03853516959094909350604081019250602001359050600160201b811115610efb57600080fd5b820183602082011115610f0d57600080fd5b803590602001918460208302840111600160201b83111715610f2e57600080fd5b919080806020026020016040519081016040528093929190818152602001838360200280828437600092019190915250929550612f85945050505050565b6103db60048036036020811015610f8257600080fd5b50356001600160a01b03166130ee565b6103db60048036036060811015610fa857600080fd5b810190602081018135600160201b811115610fc257600080fd5b820183602082011115610fd457600080fd5b803590602001918460018302840111600160201b83111715610ff557600080fd5b91908080601f0160208091040260200160405190810160405280939291908181526020018383808284376000920191909152509295505082359350505060200135613250565b610c256132cc565b61087961332c565b611053613336565b60405180806020018060200180602001848103845287818151815260200191508051906020019060200280838360005b8381101561109b578181015183820152602001611083565b50505050905001848103835286818151815260200191508051906020019060200280838360005b838110156110da5781810151838201526020016110c2565b50505050905001848103825285818151815260200191508051906020019060200280838360005b83811015611119578181015183820152602001611101565b50505050905001965050505050505060405180910390f35b611139613613565b6040805160208082528351818301528351919283929083019185019080838360005b8381101561117357818101518382015260200161115b565b50505050905090810190601f1680156111a05780820380516001836020036101000a031916815260200191505b509250505060405180910390f35b6038546001600160a01b031681565b603960009054906101000a90046001600160a01b03166001600160a01b0316638da5cb5b6040518163ffffffff1660e01b815260040160206040518083038186803b15801561120b57600080fd5b505afa15801561121f573d6000803e3d6000fd5b505050506040513d602081101561123557600080fd5b50516001600160a01b03163314806112655750611250611c60565b6001600160a01b0316336001600160a01b0316145b80611288575061127361165d565b6001600160a01b0316336001600160a01b0316145b6112d9576040805162461bcd60e51b815260206004820152601b60248201527f6f6e6c79206d616e616765722c20747261646572206f722044414f0000000000604482015290519081900360640190fd5b6112e281611b9c565b611329576040805162461bcd60e51b8152602060048201526013602482015272185cdcd95d081b9bdd081cdd5c1c1bdc9d1959606a1b604482015290519081900360640190fd5b6001600160a01b0381166000908152603c602052604090205460ff1615611397576040805162461bcd60e51b815260206004820152601f60248201527f63616e6e6f742072656d6f76652070657273697374656e742061737365747300604482015290519081900360640190fd5b6113a0816126f2565b15156001141561146e57604080516370a0823160e01b815230600482015290516001600160a01b038316916370a08231916024808301926020929190829003018186803b1580156113f057600080fd5b505afa158015611404573d6000803e3d6000fd5b505050506040513d602081101561141a57600080fd5b50511561146e576040805162461bcd60e51b815260206004820152601d60248201527f63616e6e6f742072656d6f7665206e6f6e2d656d707479206173736574000000604482015290519081900360640190fd5b611477816136a0565b50565b6033546001600160a01b031633148061149d57506037546001600160a01b031633145b6114e7576040805162461bcd60e51b815260206004820152601660248201527537b7363c9036b0b730b3b2b91037b9103a3930b232b960511b604482015290519081900360640190fd5b611477816137ee565b600080611508848460200260040160ff166020613250565b9050600061151b85600484016020613250565b905080611564576040805162461bcd60e51b8152602060048201526012602482015271696e707574206973206e6f7420617272617960701b604482015290519081900360640190fd5b611578856020808402850160040190613250565b925050505b92915050565b6033546001600160a01b031633146115d1576040805162461bcd60e51b815260206004820152600c60248201526b37b7363c9036b0b730b3b2b960a11b604482015290519081900360640190fd5b6115da81612eb9565b6115e357611477565b61147781613a14565b6039546001600160a01b0316331461163b576040805162461bcd60e51b815260206004820152600d60248201526c3737903832b936b4b9b9b4b7b760991b604482015290519081900360640190fd5b603880546001600160a01b0319166001600160a01b0392909216919091179055565b6037546001600160a01b031690565b805b919050565b603a546060908190818167ffffffffffffffff8111801561169357600080fd5b506040519080825280602002602001820160405280156116bd578160200160208202803683370190505b50905060608267ffffffffffffffff811180156116d957600080fd5b50604051908082528060200260200182016040528015611703578160200160208202803683370190505b50603854604080516321f8a72160e01b81526b53797374656d53746174757360a01b600482015290519293506000926001600160a01b03909216916321f8a72191602480820192602092909190829003018186803b15801561176457600080fd5b505afa158015611778573d6000803e3d6000fd5b505050506040513d602081101561178e57600080fd5b5051905060005b84811015611893576000603a82815481106117ac57fe5b9060005260206000200160009054906101000a90046001600160a01b03169050808583815181106117d957fe5b6001600160a01b03928316602091820292909201015283166342a28e216117ff83611ea5565b6040518263ffffffff1660e01b81526004018082815260200191505060006040518083038186803b15801561183357600080fd5b505afa925050508015611844575060015b61186b57600184838151811061185657fe5b9115156020928302919091019091015261188a565b600084838151811061187957fe5b911515602092830291909101909101525b50600101611795565b50919450925050509091565b603b6020526000908152604090205481565b603854604080516321f8a72160e01b8152680a6f2dce8d0cae8d2f60bb1b6004820152905160009283926001600160a01b03909116916321f8a72191602480820192602092909190829003018186803b15801561190d57600080fd5b505afa158015611921573d6000803e3d6000fd5b505050506040513d602081101561193757600080fd5b505160408051633260803960e01b81526004810186905290516001600160a01b0390921691633260803991602480820192602092909190829003018186803b15801561198257600080fd5b505afa158015611996573d6000803e3d6000fd5b505050506040513d60208110156119ac57600080fd5b505190506001600160a01b0381166119f9576040805162461bcd60e51b815260206004820152600b60248201526a696e76616c6964206b657960a81b604482015290519081900360640190fd5b6000816001600160a01b031663ec5568896040518163ffffffff1660e01b815260040160206040518083038186803b158015611a3457600080fd5b505afa158015611a48573d6000803e3d6000fd5b505050506040513d6020811015611a5e57600080fd5b505190506001600160a01b038116611aad576040805162461bcd60e51b815260206004820152600d60248201526c696e76616c69642070726f787960981b604482015290519081900360640190fd5b9392505050565b600080611acc858560200260040160ff166020613250565b90506000611adf86600484016020613250565b905080611b28576040805162461bcd60e51b8152602060048201526012602482015271696e707574206973206e6f7420617272617960701b604482015290519081900360640190fd5b60ff84168111611b78576040805162461bcd60e51b815260206004820152601660248201527534b73b30b634b21030b93930bc903837b9b4ba34b7b760511b604482015290519081900360640190fd5b611b92866020600160ff8816018102850160040190613250565b9695505050505050565b6001600160a01b03166000908152603b6020526040902054151590565b6033546001600160a01b03163314611c07576040805162461bcd60e51b815260206004820152600c60248201526b37b7363c9036b0b730b3b2b960a11b604482015290519081900360640190fd5b60005b8151811015611c5c57611c2f828281518110611c2257fe5b6020026020010151612eb9565b611c3857611c54565b611c54828281518110611c4757fe5b6020026020010151613a14565b600101611c0a565b5050565b6033546001600160a01b031690565b6033546001600160a01b03163314611cbd576040805162461bcd60e51b815260206004820152600c60248201526b37b7363c9036b0b730b3b2b960a11b604482015290519081900360640190fd5b603380546001600160a01b0319166001600160a01b0384161790558051611ceb9060349060208401906140c0565b507f6ed15082ad038474841528b5badca105106d4463e44b5d434130dfb299aa3669828260405180836001600160a01b0316815260200180602001828103825283818151815260200191508051906020019080838360005b83811015611d5b578181015183820152602001611d43565b50505050905090810190601f168015611d885780820380516001836020036101000a031916815260200191505b50935050505060405180910390a15050565b600081830184511015611df4576040805162461bcd60e51b815260206004820152601b60248201527f52656164696e67206279746573206f7574206f6620626f756e64730000000000604482015290519081900360640190fd5b826020018401519050816004038015611e13576008810260020a820491505b509392505050565b60395460408051635bd2a29360e11b81526001600160a01b0384811660048301528251600094859492169263b7a54526926024808301939192829003018186803b158015611e6857600080fd5b505afa158015611e7c573d6000803e3d6000fd5b505050506040513d6040811015611e9257600080fd5b5080516020909101519092509050915091565b603854604080516321f8a72160e01b8152680a6f2dce8d0cae8d2f60bb1b600482015290516000926001600160a01b0316916321f8a721916024808301926020929190829003018186803b158015611efc57600080fd5b505afa158015611f10573d6000803e3d6000fd5b505050506040513d6020811015611f2657600080fd5b5051604080516316b2213f60e01b81526001600160a01b038581166004830152915191909216916316b2213f916024808301926020929190829003018186803b158015611f7257600080fd5b505afa158015611f86573d6000803e3d6000fd5b505050506040513d6020811015611f9c57600080fd5b505192915050565b6033546001600160a01b03163314611ff2576040805162461bcd60e51b815260206004820152600c60248201526b37b7363c9036b0b730b3b2b960a11b604482015290519081900360640190fd5b60395460408051635c9bfc2b60e01b815290516000926001600160a01b031691635c9bfc2b916004808301926020929190829003018186803b15801561203757600080fd5b505afa15801561204b573d6000803e3d6000fd5b505050506040513d602081101561206157600080fd5b5051905060008061207185611e1b565b9092509050808411156120be576040805162461bcd60e51b815260206004820152601060248201526f34b73b30b634b210333930b1ba34b7b760811b604482015290519081900360640190fd5b6120c88284613b0d565b84111561211c576040805162461bcd60e51b815260206004820152601960248201527f657863656564656420616c6c6f77656420696e63726561736500000000000000604482015290519081900360640190fd5b6039546040805163ebee461d60e01b815290516000926001600160a01b03169163ebee461d916004808301926020929190829003018186803b15801561216157600080fd5b505afa158015612175573d6000803e3d6000fd5b505050506040513d602081101561218b57600080fd5b5051603d869055428101603e81905560408051888152602081019290925280519293507f4db9119741646c419f1ceccdf112b5b9a9b4516355e742e1fa9c479f4dec98da92918290030190a1505050505050565b6033546001600160a01b0316331461222d576040805162461bcd60e51b815260206004820152600c60248201526b37b7363c9036b0b730b3b2b960a11b604482015290519081900360640190fd5b60005b8151811015611c5c57612248828281518110611c2257fe5b156122525761226e565b61226e82828151811061226157fe5b6020026020010151613b67565b600101612230565b6033546000906001600160a01b031633148061229c57506037546001600160a01b031633145b6122e6576040805162461bcd60e51b815260206004820152601660248201527537b7363c9036b0b730b3b2b91037b9103a3930b232b960511b604482015290519081900360640190fd5b6001600160a01b038316612341576040805162461bcd60e51b815260206004820152601c60248201527f6e6f6e2d7a65726f206164647265737320697320726571756972656400000000604482015290519081900360640190fd5b60395460408051631c09fa9b60e21b81526001600160a01b03868116600483015291516000939290921691637027ea6c91602480820192602092909190829003018186803b15801561239257600080fd5b505afa1580156123a6573d6000803e3d6000fd5b505050506040513d60208110156123bc57600080fd5b505190506001600160a01b038116612411576040805162461bcd60e51b815260206004820152601360248201527234b73b30b634b2103232b9ba34b730ba34b7b760691b604482015290519081900360640190fd5b600080600080846001600160a01b031663e23ff43730896040518363ffffffff1660e01b815260040180836001600160a01b0316815260200180602001828103825283818151815260200191508051906020019080838360005b8381101561248357818101518382015260200161246b565b50505050905090810190601f1680156124b05780820380516001836020036101000a031916815260200191505b50935050505060806040518083038186803b1580156124ce57600080fd5b505afa1580156124e2573d6000803e3d6000fd5b505050506040513d60808110156124f857600080fd5b5080516020820151604083015160609093015191965094509092509050600260ff8516141561254c5761253e8861252e8561166c565b846125388561166c565b8b613bc3565b60019550505050505061157d565b6000886001600160a01b0316886040518082805190602001908083835b602083106125885780518252601f199092019160209182019101612569565b6001836020036101000a0380198251168184511680821785525050505050509050019150506000604051808303816000865af19150503d80600081146125ea576040519150601f19603f3d011682016040523d82523d6000602084013e6125ef565b606091505b509091505060018115151461264b576040805162461bcd60e51b815260206004820152601a60248201527f6661696c656420746f2065786563757465207468652063616c6c000000000000604482015290519081900360640190fd5b50600198975050505050505050565b603e5481565b6033546001600160a01b031633146126ae576040805162461bcd60e51b815260206004820152600c60248201526b37b7363c9036b0b730b3b2b960a11b604482015290519081900360640190fd5b603780546001600160a01b0319169055565b603c6020526000908152604090205460ff1681565b6000611aad838360200260040160ff166020613250565b603d5481565b6000806126fe83611ea5565b603854604080516321f8a72160e01b8152680a6f2dce8d0cae8d2f60bb1b600482015290519293506000926001600160a01b03909216916321f8a72191602480820192602092909190829003018186803b15801561275b57600080fd5b505afa15801561276f573d6000803e3d6000fd5b505050506040513d602081101561278557600080fd5b505160408051633260803960e01b81526004810185905290516001600160a01b0390921691633260803991602480820192602092909190829003018186803b1580156127d057600080fd5b505afa1580156127e4573d6000803e3d6000fd5b505050506040513d60208110156127fa57600080fd5b505190506001600160a01b0381166128175760009250505061166e565b6000816001600160a01b031663ec5568896040518163ffffffff1660e01b815260040160206040518083038186803b15801561285257600080fd5b505afa158015612866573d6000803e3d6000fd5b505050506040513d602081101561287c57600080fd5b505190506001600160a01b03811661289a576000935050505061166e565b506001949350505050565b603a5490565b6033546001600160a01b031633146128f9576040805162461bcd60e51b815260206004820152600c60248201526b37b7363c9036b0b730b3b2b960a11b604482015290519081900360640190fd5b603e54421015612950576040805162461bcd60e51b815260206004820152601960248201527f66656520696e6372656173652064656c61792061637469766500000000000000604482015290519081900360640190fd5b61295c81603d54613dfe565b506000603d819055603e55565b600080612981848460200260040160ff166020613250565b905061299284600483016020613250565b949350505050565b606060358054806020026020016040519081016040528092919081815260200182805480156129f257602002820191906000526020600020905b81546001600160a01b031681526001909101906020018083116129d4575b5050505050905090565b600080612a0883611ea5565b141592915050565b6033546001600160a01b0316331480612a3357506037546001600160a01b031633145b612a7d576040805162461bcd60e51b815260206004820152601660248201527537b7363c9036b0b730b3b2b91037b9103a3930b232b960511b604482015290519081900360640190fd5b612a8683611b9c565b612ad2576040805162461bcd60e51b81526020600482015260186024820152771d5b9cdd5c1c1bdc9d1959081cdbdd5c98d948185cdcd95d60421b604482015290519081900360640190fd5b612adb81611b9c565b612b2c576040805162461bcd60e51b815260206004820152601d60248201527f756e737570706f727465642064657374696e6174696f6e206173736574000000604482015290519081900360640190fd5b6000612b3784611ea5565b90506000612b4483611ea5565b603854604080516321f8a72160e01b8152680a6f2dce8d0cae8d2f60bb1b600482015290519293506000926001600160a01b03909216916321f8a72191602480820192602092909190829003018186803b158015612ba157600080fd5b505afa158015612bb5573d6000803e3d6000fd5b505050506040513d6020811015612bcb57600080fd5b505160395460408051631d68702d60e01b815290519293506000926001600160a01b03808616936330ead7609389938c938a931691631d68702d916004808301926020929190829003018186803b158015612c2557600080fd5b505afa158015612c39573d6000803e3d6000fd5b505050506040513d6020811015612c4f57600080fd5b5051603954604080516349f7c02d60e01b815290516001600160a01b03909216916349f7c02d91600480820192602092909190829003018186803b158015612c9657600080fd5b505afa158015612caa573d6000803e3d6000fd5b505050506040513d6020811015612cc057600080fd5b5051604080516001600160e01b031960e089901b1681526004810196909652602486019490945260448501929092526001600160a01b0316606484015260848301525160a48083019260209291908290030181600087803b158015612d2457600080fd5b505af1158015612d38573d6000803e3d6000fd5b505050506040513d6020811015612d4e57600080fd5b5051604080513081523360208201526001600160a01b03808b1682840152606082018a90528816608082015260a081018390524260c082015290519192507f2083d2b241ef1ec859ae0402864fd9fe9d6d36b18c73615625b46acaf113be78919081900360e00190a150505050505050565b60355490565b6033546001600160a01b03163314612e14576040805162461bcd60e51b815260206004820152600c60248201526b37b7363c9036b0b730b3b2b960a11b604482015290519081900360640190fd5b603780546001600160a01b0319166001600160a01b0392909216919091179055565b6033546001600160a01b03163314612e84576040805162461bcd60e51b815260206004820152600c60248201526b37b7363c9036b0b730b3b2b960a11b604482015290519081900360640190fd5b6000603d819055603e8190556040517fc6f04bf43cbdf1ba5d51b4afa160bb3c7e13858b1409aa32868b239bb2f8d8499190a1565b6001600160a01b0316600090815260366020526040902054151590565b600061157d8260006004611d9a565b6039546001600160a01b031681565b603a8181548110612f0157fe5b6000918252602090912001546001600160a01b0316905081565b6033546001600160a01b03163314612f69576040805162461bcd60e51b815260206004820152600c60248201526b37b7363c9036b0b730b3b2b960a11b604482015290519081900360640190fd5b612f7281612eb9565b15612f7c57611477565b61147781613b67565b600054610100900460ff1680612f9e5750612f9e613f53565b80612fac575060005460ff16155b612fe75760405162461bcd60e51b815260040180806020018281038252602e815260200180614154602e913960400191505060405180910390fd5b600054610100900460ff16158015613012576000805460ff1961ff0019909116610100171660011790555b61301c8585613f59565b603980546001600160a01b038089166001600160a01b031992831617909255603880549286169290911691909117905560005b82518160ff1610156130825761307a838260ff168151811061306d57fe5b60200260200101516137ee565b60010161304f565b506000613095631cd554d160e21b6118b1565b90506001600160a01b038116156130d3576130af816137ee565b6001600160a01b0381166000908152603c60205260409020805460ff191660011790555b5080156130e6576000805461ff00191690555b505050505050565b603854604080516321f8a72160e01b81526c45786368616e6765526174657360981b600482015290516000926001600160a01b0316916321f8a721916024808301926020929190829003018186803b15801561314957600080fd5b505afa15801561315d573d6000803e3d6000fd5b505050506040513d602081101561317357600080fd5b50516001600160a01b031663654a60ac61318c84611ea5565b604080516370a0823160e01b815230600482015290516001600160a01b038716916370a08231916024808301926020929190829003018186803b1580156131d257600080fd5b505afa1580156131e6573d6000803e3d6000fd5b505050506040513d60208110156131fc57600080fd5b5051604080516001600160e01b031960e086901b16815260048101939093526024830191909152631cd554d160e21b6044830152516064808301926020929190829003018186803b158015611f7257600080fd5b6000818301845110156132aa576040805162461bcd60e51b815260206004820152601b60248201527f52656164696e67206279746573206f7574206f6620626f756e64730000000000604482015290519081900360640190fd5b826020018401519050816020038015611e135760080260020a90049392505050565b6060603a8054806020026020016040519081016040528092919081815260200182805480156129f2576020028201919060005260206000209081546001600160a01b031681526001909101906020018083116129d4575050505050905090565b603d54603e549091565b603a5460609081908190818167ffffffffffffffff8111801561335857600080fd5b50604051908082528060200260200182016040528015613382578160200160208202803683370190505b50905060608267ffffffffffffffff8111801561339e57600080fd5b506040519080825280602002602001820160405280156133c8578160200160208202803683370190505b50905060608367ffffffffffffffff811180156133e457600080fd5b5060405190808252806020026020018201604052801561340e578160200160208202803683370190505b50603854604080516321f8a72160e01b81526c45786368616e6765526174657360981b600482015290519293506000926001600160a01b03909216916321f8a72191602480820192602092909190829003018186803b15801561347057600080fd5b505afa158015613484573d6000803e3d6000fd5b505050506040513d602081101561349a57600080fd5b5051905060005b85811015613605576000603a82815481106134b857fe5b60009182526020918290200154604080516370a0823160e01b815230600482015290516001600160a01b03909216935083926370a0823192602480840193829003018186803b15801561350a57600080fd5b505afa15801561351e573d6000803e3d6000fd5b505050506040513d602081101561353457600080fd5b5051855186908490811061354457fe5b6020026020010181815250508086838151811061355d57fe5b6001600160a01b039283166020918202929092010152831663ac82f60861358383611ea5565b6040518263ffffffff1660e01b81526004018082815260200191505060206040518083038186803b1580156135b757600080fd5b505afa1580156135cb573d6000803e3d6000fd5b505050506040513d60208110156135e157600080fd5b505184518590849081106135f157fe5b6020908102919091010152506001016134a1565b509297919650945092505050565b60348054604080516020601f60026000196101006001881615020190951694909404938401819004810282018101909252828152606093909290918301828280156129f25780601f10613674576101008083540402835291602001916129f2565b820191906000526020600020905b81548152906001019060200180831161368257509395945050505050565b603a546001600160a01b0382166000908152603b60205260408120546136c7906001613f8c565b90506000603a6136d8846001613f8c565b815481106136e257fe5b600091825260209091200154603a80546001600160a01b03909216925082918490811061370b57fe5b600091825260209091200180546001600160a01b0319166001600160a01b039290921691909117905561373f826001613b0d565b6001600160a01b038083166000908152603b602052604080822093909355908616815290812055603a80548061377157fe5b600082815260209020810160001990810180546001600160a01b03191690550190557f9b4f55639e5e283319baee5bc4e69a5625a8e3a1cc004af968f4fee725022027306137bd611c60565b604080516001600160a01b03938416815291831660208301529187168183015290519081900360600190a150505050565b603960009054906101000a90046001600160a01b03166001600160a01b031663aa12ae4d6040518163ffffffff1660e01b815260040160206040518083038186803b15801561383c57600080fd5b505afa158015613850573d6000803e3d6000fd5b505050506040513d602081101561386657600080fd5b5051603a54106138b6576040805162461bcd60e51b81526020600482015260166024820152751b585e1a5b5d5b48185cdcd95d1cc81c995858da195960521b604482015290519081900360640190fd5b6138bf81611b9c565b15613911576040805162461bcd60e51b815260206004820152601760248201527f617373657420616c726561647920737570706f72746564000000000000000000604482015290519081900360640190fd5b61391a816126f2565b1515600114613962576040805162461bcd60e51b815260206004820152600f60248201526e1b9bdb8b5cde5b9d1a08185cdcd95d608a1b604482015290519081900360640190fd5b603a80546001810182557fa2999d817b6757290b50e8ecf3fa939673403dd35c97de392fdb343b4015ce9e0180546001600160a01b0319166001600160a01b03841690811790915590546000918252603b6020526040909120557f0a7426a0630aad7dbc4d5ca5b7d9aac1133d77d2db987caaf4b4186c85d6593f306139e6611c60565b604080516001600160a01b03938416815291831660208301529184168183015290519081900360600190a150565b6035546001600160a01b038216600090815260366020526040812054613a3b906001613f8c565b905060006035613a4c846001613f8c565b81548110613a5657fe5b600091825260209091200154603580546001600160a01b039092169250829184908110613a7f57fe5b600091825260209091200180546001600160a01b0319166001600160a01b0392909216919091179055613ab3826001613b0d565b6001600160a01b03808316600090815260366020526040808220939093559086168152908120556035805480613ae557fe5b600082815260209020810160001990810180546001600160a01b031916905501905550505050565b600082820183811015611aad576040805162461bcd60e51b815260206004820152601b60248201527f536166654d6174683a206164646974696f6e206f766572666c6f770000000000604482015290519081900360640190fd5b603580546001810182557fcfa4bec1d3298408bb5afcfcd9c430549c5b31f8aa5c5848151c0a55f473c34d0180546001600160a01b039093166001600160a01b0319909316831790555460009182526036602052604090912055565b613bcc84611b9c565b613c18576040805162461bcd60e51b81526020600482015260186024820152771d5b9cdd5c1c1bdc9d1959081cdbdd5c98d948185cdcd95d60421b604482015290519081900360640190fd5b613c2182611b9c565b613c72576040805162461bcd60e51b815260206004820152601d60248201527f756e737570706f727465642064657374696e6174696f6e206173736574000000604482015290519081900360640190fd5b60006060866001600160a01b0316836040518082805190602001908083835b60208310613cb05780518252601f199092019160209182019101613c91565b6001836020036101000a0380198251168184511680821785525050505050509050019150506000604051808303816000865af19150503d8060008114613d12576040519150601f19603f3d011682016040523d82523d6000602084013e613d17565b606091505b509092509050600182151514613d74576040805162461bcd60e51b815260206004820152601a60248201527f6661696c656420746f20657865637574652065786368616e6765000000000000604482015290519081900360640190fd5b7f2083d2b241ef1ec859ae0402864fd9fe9d6d36b18c73615625b46acaf113be7830613d9e611c60565b888888613dac876000613fce565b604080516001600160a01b0397881681529587166020870152938616858501526060850192909252909316608083015260a08201929092524260c082015290519081900360e00190a150505050505050565b6039546040805163011adcb160e21b81526001600160a01b038581166004830152602482018590529151919092169163046b72c491604480830192600092919082900301818387803b158015613e5357600080fd5b505af1158015613e67573d6000803e3d6000fd5b505060395460408051635bd2a29360e11b81526001600160a01b03878116600483015282516000965086955093169263b7a5452692602480840193919291829003018186803b158015613eb957600080fd5b505afa158015613ecd573d6000803e3d6000fd5b505050506040513d6040811015613ee357600080fd5b50805160209091015190925090507f1780c04ddc6f0b32d866c7a3d7583f53515ef49ed2126af868f804f49160126630613f1b611c60565b604080516001600160a01b0393841681529190921660208201528082018590526060810184905290519081900360800190a150505050565b303b1590565b603380546001600160a01b0319166001600160a01b0384161790558051613f879060349060208401906140c0565b505050565b6000611aad83836040518060400160405280601e81526020017f536166654d6174683a207375627472616374696f6e206f766572666c6f770000815250614029565b60008160200183511015614020576040805162461bcd60e51b8152602060048201526014602482015273736c6963696e67206f7574206f662072616e676560601b604482015290519081900360640190fd5b50016020015190565b600081848411156140b85760405162461bcd60e51b81526004018080602001828103825283818151815260200191508051906020019080838360005b8381101561407d578181015183820152602001614065565b50505050905090810190601f1680156140aa5780820380516001836020036101000a031916815260200191505b509250505060405180910390fd5b505050900390565b828054600181600116156101000203166002900490600052602060002090601f016020900481019282601f1061410157805160ff191683800117855561412e565b8280016001018555821561412e579182015b8281111561412e578251825591602001919060010190614113565b5061413a92915061413e565b5090565b5b8082111561413a576000815560010161413f56fe436f6e747261637420696e7374616e63652068617320616c7265616479206265656e20696e697469616c697a6564a2646970667358221220f3eaed0e210fc4c1c40e5f0502b75b36e896e31a5dbd78b89226d81d7460560764736f6c634300060c0033",
  "linkReferences": {},
  "deployedLinkReferences": {}
}