{
  "_format": "hh-sol-artifact-1",
  "contractName": "PoolManagerLogic",
  "sourceName": "contracts/PoolManagerLogic.sol",
  "abi": [
    {
      "anonymous": false,
      "inputs": [
        {
          "indexed": false,
          "internalType": "address",
          "name": "fundAddress",
          "type": "address"
        },
        {
          "indexed": false,
          "internalType": "address",
          "name": "manager",
          "type": "address"
        },
        {
          "indexed": false,
          "internalType": "address",
          "name": "asset",
          "type": "address"
        },
        {
          "indexed": false,
          "internalType": "bool",
          "name": "isDeposit",
          "type": "bool"
        }
      ],
      "name": "AssetAdded",
      "type": "event"
    },
    {
      "anonymous": false,
      "inputs": [
        {
          "indexed": false,
          "internalType": "address",
          "name": "fundAddress",
          "type": "address"
        },
        {
          "indexed": false,
          "internalType": "address",
          "name": "manager",
          "type": "address"
        },
        {
          "indexed": false,
          "internalType": "address",
          "name": "asset",
          "type": "address"
        },
        {
          "indexed": false,
          "internalType": "bool",
          "name": "isDeposit",
          "type": "bool"
        }
      ],
      "name": "AssetRemoved",
      "type": "event"
    },
    {
      "anonymous": false,
      "inputs": [
        {
          "indexed": false,
          "internalType": "uint256",
          "name": "newNumerator",
          "type": "uint256"
        },
        {
          "indexed": false,
          "internalType": "uint256",
          "name": "announcedFeeActivationTime",
          "type": "uint256"
        }
      ],
      "name": "ManagerFeeIncreaseAnnounced",
      "type": "event"
    },
    {
      "anonymous": false,
      "inputs": [],
      "name": "ManagerFeeIncreaseRenounced",
      "type": "event"
    },
    {
      "anonymous": false,
      "inputs": [
        {
          "indexed": false,
          "internalType": "address",
          "name": "fundAddress",
          "type": "address"
        },
        {
          "indexed": false,
          "internalType": "address",
          "name": "manager",
          "type": "address"
        },
        {
          "indexed": false,
          "internalType": "uint256",
          "name": "numerator",
          "type": "uint256"
        },
        {
          "indexed": false,
          "internalType": "uint256",
          "name": "denominator",
          "type": "uint256"
        }
      ],
      "name": "ManagerFeeSet",
      "type": "event"
    },
    {
      "anonymous": false,
      "inputs": [
        {
          "indexed": false,
          "internalType": "address",
          "name": "newManager",
          "type": "address"
        },
        {
          "indexed": false,
          "internalType": "string",
          "name": "newManagerName",
          "type": "string"
        }
      ],
      "name": "ManagerUpdated",
      "type": "event"
    },
    {
      "anonymous": false,
      "inputs": [
        {
          "indexed": false,
          "internalType": "address",
          "name": "poolLogic",
          "type": "address"
        },
        {
          "indexed": false,
          "internalType": "address",
          "name": "from",
          "type": "address"
        }
      ],
      "name": "PoolLogicSet",
      "type": "event"
    },
    {
      "anonymous": false,
      "inputs": [
        {
          "indexed": false,
          "internalType": "address",
          "name": "fundAddress",
          "type": "address"
        },
        {
          "indexed": false,
          "internalType": "address",
          "name": "manager",
          "type": "address"
        },
        {
          "indexed": false,
          "internalType": "uint256",
          "name": "time",
          "type": "uint256"
        }
      ],
      "name": "TransactionExecuted",
      "type": "event"
    },
    {
      "inputs": [
        {
          "internalType": "address",
          "name": "member",
          "type": "address"
        }
      ],
      "name": "addMember",
      "outputs": [],
      "stateMutability": "nonpayable",
      "type": "function"
    },
    {
      "inputs": [
        {
          "internalType": "address[]",
          "name": "members",
          "type": "address[]"
        }
      ],
      "name": "addMembers",
      "outputs": [],
      "stateMutability": "nonpayable",
      "type": "function"
    },
    {
      "inputs": [
        {
          "internalType": "uint256",
          "name": "numerator",
          "type": "uint256"
        }
      ],
      "name": "announceManagerFeeIncrease",
      "outputs": [],
      "stateMutability": "nonpayable",
      "type": "function"
    },
    {
      "inputs": [],
      "name": "announcedFeeIncreaseNumerator",
      "outputs": [
        {
          "internalType": "uint256",
          "name": "",
          "type": "uint256"
        }
      ],
      "stateMutability": "view",
      "type": "function"
    },
    {
      "inputs": [],
      "name": "announcedFeeIncreaseTimestamp",
      "outputs": [
        {
          "internalType": "uint256",
          "name": "",
          "type": "uint256"
        }
      ],
      "stateMutability": "view",
      "type": "function"
    },
    {
      "inputs": [
        {
          "internalType": "address",
          "name": "asset",
          "type": "address"
        }
      ],
      "name": "assetBalance",
      "outputs": [
        {
          "internalType": "uint256",
          "name": "",
          "type": "uint256"
        }
      ],
      "stateMutability": "view",
      "type": "function"
    },
    {
      "inputs": [
        {
          "internalType": "address",
          "name": "",
          "type": "address"
        }
      ],
      "name": "assetPosition",
      "outputs": [
        {
          "internalType": "uint256",
          "name": "",
          "type": "uint256"
        }
      ],
      "stateMutability": "view",
      "type": "function"
    },
    {
      "inputs": [
        {
          "internalType": "address",
          "name": "asset",
          "type": "address"
        },
        {
          "internalType": "uint256",
          "name": "amount",
          "type": "uint256"
        }
      ],
      "name": "assetValue",
      "outputs": [
        {
          "internalType": "uint256",
          "name": "",
          "type": "uint256"
        }
      ],
      "stateMutability": "view",
      "type": "function"
    },
    {
      "inputs": [
        {
          "internalType": "address",
          "name": "asset",
          "type": "address"
        }
      ],
      "name": "assetValue",
      "outputs": [
        {
          "internalType": "uint256",
          "name": "",
          "type": "uint256"
        }
      ],
      "stateMutability": "view",
      "type": "function"
    },
    {
      "inputs": [
        {
          "components": [
            {
              "internalType": "address",
              "name": "asset",
              "type": "address"
            },
            {
              "internalType": "bool",
              "name": "isDeposit",
              "type": "bool"
            }
          ],
          "internalType": "struct IPoolManagerLogic.Asset[]",
          "name": "_addAssets",
          "type": "tuple[]"
        },
        {
          "components": [
            {
              "internalType": "address",
              "name": "asset",
              "type": "address"
            },
            {
              "internalType": "bool",
              "name": "isDeposit",
              "type": "bool"
            }
          ],
          "internalType": "struct IPoolManagerLogic.Asset[]",
          "name": "_removeAssets",
          "type": "tuple[]"
        }
      ],
      "name": "changeAssets",
      "outputs": [],
      "stateMutability": "nonpayable",
      "type": "function"
    },
    {
      "inputs": [
        {
          "internalType": "address",
          "name": "newManager",
          "type": "address"
        },
        {
          "internalType": "string",
          "name": "newManagerName",
          "type": "string"
        }
      ],
      "name": "changeManager",
      "outputs": [],
      "stateMutability": "nonpayable",
      "type": "function"
    },
    {
      "inputs": [],
      "name": "commitManagerFeeIncrease",
      "outputs": [],
      "stateMutability": "nonpayable",
      "type": "function"
    },
    {
      "inputs": [
        {
          "internalType": "bytes32",
          "name": "data",
          "type": "bytes32"
        }
      ],
      "name": "convert32toAddress",
      "outputs": [
        {
          "internalType": "address",
          "name": "o",
          "type": "address"
        }
      ],
      "stateMutability": "pure",
      "type": "function"
    },
    {
      "inputs": [
        {
          "internalType": "address",
          "name": "to",
          "type": "address"
        },
        {
          "internalType": "bytes",
          "name": "data",
          "type": "bytes"
        }
      ],
      "name": "execTransaction",
      "outputs": [
        {
          "internalType": "bool",
          "name": "",
          "type": "bool"
        }
      ],
      "stateMutability": "nonpayable",
      "type": "function"
    },
    {
      "inputs": [],
      "name": "factory",
      "outputs": [
        {
          "internalType": "address",
          "name": "",
          "type": "address"
        }
      ],
      "stateMutability": "view",
      "type": "function"
    },
    {
      "inputs": [
        {
          "internalType": "bytes",
          "name": "data",
          "type": "bytes"
        },
        {
          "internalType": "uint8",
          "name": "inputNum",
          "type": "uint8"
        },
        {
          "internalType": "uint8",
          "name": "arrayIndex",
          "type": "uint8"
        }
      ],
      "name": "getArrayIndex",
      "outputs": [
        {
          "internalType": "bytes32",
          "name": "",
          "type": "bytes32"
        }
      ],
      "stateMutability": "pure",
      "type": "function"
    },
    {
      "inputs": [
        {
          "internalType": "bytes",
          "name": "data",
          "type": "bytes"
        },
        {
          "internalType": "uint8",
          "name": "inputNum",
          "type": "uint8"
        }
      ],
      "name": "getArrayLast",
      "outputs": [
        {
          "internalType": "bytes32",
          "name": "",
          "type": "bytes32"
        }
      ],
      "stateMutability": "pure",
      "type": "function"
    },
    {
      "inputs": [
        {
          "internalType": "bytes",
          "name": "data",
          "type": "bytes"
        },
        {
          "internalType": "uint8",
          "name": "inputNum",
          "type": "uint8"
        }
      ],
      "name": "getArrayLength",
      "outputs": [
        {
          "internalType": "uint256",
          "name": "",
          "type": "uint256"
        }
      ],
      "stateMutability": "pure",
      "type": "function"
    },
    {
      "inputs": [],
      "name": "getFundComposition",
      "outputs": [
        {
          "internalType": "address[]",
          "name": "",
          "type": "address[]"
        },
        {
          "internalType": "uint256[]",
          "name": "",
          "type": "uint256[]"
        },
        {
          "internalType": "uint256[]",
          "name": "",
          "type": "uint256[]"
        }
      ],
      "stateMutability": "view",
      "type": "function"
    },
    {
      "inputs": [
        {
          "internalType": "bytes",
          "name": "data",
          "type": "bytes"
        },
        {
          "internalType": "uint8",
          "name": "inputNum",
          "type": "uint8"
        }
      ],
      "name": "getInput",
      "outputs": [
        {
          "internalType": "bytes32",
          "name": "",
          "type": "bytes32"
        }
      ],
      "stateMutability": "pure",
      "type": "function"
    },
    {
      "inputs": [],
      "name": "getManagerFee",
      "outputs": [
        {
          "internalType": "uint256",
          "name": "",
          "type": "uint256"
        },
        {
          "internalType": "uint256",
          "name": "",
          "type": "uint256"
        }
      ],
      "stateMutability": "view",
      "type": "function"
    },
    {
      "inputs": [],
      "name": "getManagerFeeIncreaseInfo",
      "outputs": [
        {
          "internalType": "uint256",
          "name": "",
          "type": "uint256"
        },
        {
          "internalType": "uint256",
          "name": "",
          "type": "uint256"
        }
      ],
      "stateMutability": "view",
      "type": "function"
    },
    {
      "inputs": [],
      "name": "getMembers",
      "outputs": [
        {
          "internalType": "address[]",
          "name": "",
          "type": "address[]"
        }
      ],
      "stateMutability": "view",
      "type": "function"
    },
    {
      "inputs": [
        {
          "internalType": "bytes",
          "name": "data",
          "type": "bytes"
        }
      ],
      "name": "getMethod",
      "outputs": [
        {
          "internalType": "bytes4",
          "name": "",
          "type": "bytes4"
        }
      ],
      "stateMutability": "pure",
      "type": "function"
    },
    {
      "inputs": [],
      "name": "getSupportedAssets",
      "outputs": [
        {
          "internalType": "address[]",
          "name": "",
          "type": "address[]"
        }
      ],
      "stateMutability": "view",
      "type": "function"
    },
    {
      "inputs": [
        {
          "internalType": "address",
          "name": "_factory",
          "type": "address"
        },
        {
          "internalType": "address",
          "name": "_manager",
          "type": "address"
        },
        {
          "internalType": "string",
          "name": "_managerName",
          "type": "string"
        },
        {
          "components": [
            {
              "internalType": "address",
              "name": "asset",
              "type": "address"
            },
            {
              "internalType": "bool",
              "name": "isDeposit",
              "type": "bool"
            }
          ],
          "internalType": "struct IPoolManagerLogic.Asset[]",
          "name": "_supportedAssets",
          "type": "tuple[]"
        }
      ],
      "name": "initialize",
      "outputs": [],
      "stateMutability": "nonpayable",
      "type": "function"
    },
    {
      "inputs": [
        {
          "internalType": "address",
          "name": "asset",
          "type": "address"
        }
      ],
      "name": "isDepositAsset",
      "outputs": [
        {
          "internalType": "bool",
          "name": "",
          "type": "bool"
        }
      ],
      "stateMutability": "view",
      "type": "function"
    },
    {
      "inputs": [
        {
          "internalType": "address",
          "name": "member",
          "type": "address"
        }
      ],
      "name": "isMemberAllowed",
      "outputs": [
        {
          "internalType": "bool",
          "name": "",
          "type": "bool"
        }
      ],
      "stateMutability": "view",
      "type": "function"
    },
    {
      "inputs": [
        {
          "internalType": "address",
          "name": "asset",
          "type": "address"
        }
      ],
      "name": "isSupportedAsset",
      "outputs": [
        {
          "internalType": "bool",
          "name": "",
          "type": "bool"
        }
      ],
      "stateMutability": "view",
      "type": "function"
    },
    {
      "inputs": [],
      "name": "manager",
      "outputs": [
        {
          "internalType": "address",
          "name": "",
          "type": "address"
        }
      ],
      "stateMutability": "view",
      "type": "function"
    },
    {
      "inputs": [],
      "name": "managerName",
      "outputs": [
        {
          "internalType": "string",
          "name": "",
          "type": "string"
        }
      ],
      "stateMutability": "view",
      "type": "function"
    },
    {
      "inputs": [],
      "name": "numberOfDepositAssets",
      "outputs": [
        {
          "internalType": "uint256",
          "name": "",
          "type": "uint256"
        }
      ],
      "stateMutability": "view",
      "type": "function"
    },
    {
      "inputs": [],
      "name": "numberOfMembers",
      "outputs": [
        {
          "internalType": "uint256",
          "name": "",
          "type": "uint256"
        }
      ],
      "stateMutability": "view",
      "type": "function"
    },
    {
      "inputs": [],
      "name": "numberOfSupportedAssets",
      "outputs": [
        {
          "internalType": "uint256",
          "name": "",
          "type": "uint256"
        }
      ],
      "stateMutability": "view",
      "type": "function"
    },
    {
      "inputs": [],
      "name": "poolLogic",
      "outputs": [
        {
          "internalType": "address",
          "name": "",
          "type": "address"
        }
      ],
      "stateMutability": "view",
      "type": "function"
    },
    {
      "inputs": [
        {
          "internalType": "bytes",
          "name": "data",
          "type": "bytes"
        },
        {
          "internalType": "uint256",
          "name": "offset",
          "type": "uint256"
        },
        {
          "internalType": "uint256",
          "name": "length",
          "type": "uint256"
        }
      ],
      "name": "read32",
      "outputs": [
        {
          "internalType": "bytes32",
          "name": "o",
          "type": "bytes32"
        }
      ],
      "stateMutability": "pure",
      "type": "function"
    },
    {
      "inputs": [
        {
          "internalType": "bytes",
          "name": "data",
          "type": "bytes"
        },
        {
          "internalType": "uint256",
          "name": "offset",
          "type": "uint256"
        },
        {
          "internalType": "uint256",
          "name": "length",
          "type": "uint256"
        }
      ],
      "name": "read4left",
      "outputs": [
        {
          "internalType": "bytes4",
          "name": "o",
          "type": "bytes4"
        }
      ],
      "stateMutability": "pure",
      "type": "function"
    },
    {
      "inputs": [
        {
          "internalType": "address",
          "name": "member",
          "type": "address"
        }
      ],
      "name": "removeMember",
      "outputs": [],
      "stateMutability": "nonpayable",
      "type": "function"
    },
    {
      "inputs": [
        {
          "internalType": "address[]",
          "name": "members",
          "type": "address[]"
        }
      ],
      "name": "removeMembers",
      "outputs": [],
      "stateMutability": "nonpayable",
      "type": "function"
    },
    {
      "inputs": [],
      "name": "removeTrader",
      "outputs": [],
      "stateMutability": "nonpayable",
      "type": "function"
    },
    {
      "inputs": [],
      "name": "renounceManagerFeeIncrease",
      "outputs": [],
      "stateMutability": "nonpayable",
      "type": "function"
    },
    {
      "inputs": [
        {
          "internalType": "address",
          "name": "_poolLogic",
          "type": "address"
        }
      ],
      "name": "setPoolLogic",
      "outputs": [
        {
          "internalType": "bool",
          "name": "",
          "type": "bool"
        }
      ],
      "stateMutability": "nonpayable",
      "type": "function"
    },
    {
      "inputs": [
        {
          "internalType": "address",
          "name": "newTrader",
          "type": "address"
        }
      ],
      "name": "setTrader",
      "outputs": [],
      "stateMutability": "nonpayable",
      "type": "function"
    },
    {
      "inputs": [
        {
          "internalType": "uint256",
          "name": "",
          "type": "uint256"
        }
      ],
      "name": "supportedAssets",
      "outputs": [
        {
          "internalType": "address",
          "name": "asset",
          "type": "address"
        },
        {
          "internalType": "bool",
          "name": "isDeposit",
          "type": "bool"
        }
      ],
      "stateMutability": "view",
      "type": "function"
    },
    {
      "inputs": [],
      "name": "trader",
      "outputs": [
        {
          "internalType": "address",
          "name": "",
          "type": "address"
        }
      ],
      "stateMutability": "view",
      "type": "function"
    },
    {
      "inputs": [
        {
          "internalType": "address",
          "name": "asset",
          "type": "address"
        }
      ],
      "name": "validateAsset",
      "outputs": [
        {
          "internalType": "bool",
          "name": "",
          "type": "bool"
        }
      ],
      "stateMutability": "view",
      "type": "function"
    }
  ],
  "bytecode": "0x608060405234801561001057600080fd5b50613158806100206000396000f3fe608060405234801561001057600080fd5b506004361061028a5760003560e01c80638e10153d1161015c578063bdbef07d116100ce578063d8af8ed411610087578063d8af8ed414610555578063db896b5714610568578063e5406dbf1461057b578063ed5b165d14610583578063f09d14d71461058b578063fed4416a146105a25761028a565b8063bdbef07d146104e0578063c3c6279f146104f3578063c45a015514610506578063c68dbb371461050e578063ca6d56dc1461052f578063cd88e558146105425761028a565b80639be918e6116101205780639be918e6146104825780639eab525314610495578063a30e3fa9146104aa578063a6bc18f9146104b2578063b8bd81e6146104c5578063bbbf725b146104cd5761028a565b80638e10153d146104395780638f3234391461044c5780639240d29914610454578063936553c414610467578063998546e31461046f5761028a565b8063481c6a75116102005780636f4d469b116101b95780636f4d469b146103d057806372260e0f146103e35780637ae7cfb5146103f65780637b4d0c63146104165780637c8afd511461041e57806382f86acc146104265761028a565b8063481c6a7514610372578063522136631461037a57806353f064c91461038d578063568b5a2f146103a05780635cd50e48146103c05780636e890f3c146103c85761028a565b80631eba3077116102525780631eba30771461030b57806329c07fba1461031e57806339b81fd9146103315780633c570d7d1461033957806341dc16c31461034c57806346ee84b01461035f5761028a565b806309ff5c7d1461028f5780630b1ca49a146102b8578063147bf0be146102cd5780631758078b146102e057806319805538146102f5575b600080fd5b6102a261029d366004612862565b6105b7565b6040516102af9190612b77565b60405180910390f35b6102cb6102c636600461258f565b610629565b005b6102cb6102db3660046125c7565b610671565b6102e8610762565b6040516102af9190612a23565b6102fd610771565b6040516102af92919061306d565b6102e86103193660046127cd565b610800565b6102a261032c366004612699565b610803565b6102e861091a565b6102a261034736600461258f565b610929565b6102a261035a3660046128b1565b61093b565b6102cb61036d3660046126c4565b6109cb565b6102e8610a4e565b6102cb61038836600461264c565b610a5d565b6102cb61039b3660046127cd565b610af3565b6103b36103ae366004612817565b610cc1565b6040516102af9190612b80565b6102a2610d0d565b6102cb610d66565b6102cb6103de3660046126c4565b610dc9565b6102cb6103f136600461275b565b610e3c565b61040961040436600461264c565b610e85565b6040516102af9190612b6c565b6102a26111d4565b6102cb6111da565b6102a2610434366004612862565b611216565b61040961044736600461258f565b611234565b6102a2611400565b61040961046236600461258f565b611406565b6102a2611487565b6102a261047d366004612862565b61148d565b61040961049036600461258f565b6114be565b61049d6114db565b6040516102af9190612b20565b6102a261153d565b6102cb6104c036600461258f565b611543565b6102cb61158f565b6104096104db36600461258f565b6115ee565b6104096104ee36600461258f565b61160b565b6103b36105013660046127e5565b611662565b6102e8611671565b61052161051c3660046127cd565b611680565b6040516102af929190612ac8565b6102cb61053d36600461258f565b6116b2565b6102a261055036600461258f565b6116f8565b6102a261056336600461258f565b61177b565b6102a2610576366004612817565b61178a565b61049d6117d1565b6102fd611889565b610593611893565b6040516102af93929190612b33565b6105aa611a85565b6040516102af9190612b95565b6000806105cf848460200260040160ff16602061178a565b905060006105e28560048401602061178a565b90508061060a5760405162461bcd60e51b815260040161060190612fa3565b60405180910390fd5b61061e85602080840285016004019061178a565b925050505b92915050565b6033546001600160a01b031633146106535760405162461bcd60e51b815260040161060190612ce4565b61065c816115ee565b6106655761066e565b61066e81611b12565b50565b600054610100900460ff168061068a575061068a611c0b565b80610698575060005460ff16155b6106b45760405162461bcd60e51b815260040161060190612ef1565b600054610100900460ff161580156106df576000805460ff1961ff0019909116610100171660011790555b6106e98484611c11565b603880546001600160a01b0319166001600160a01b03871617905561074982600060405190808252806020026020018201604052801561074357816020015b6107306123c3565b8152602001906001900390816107285790505b50611c44565b801561075b576000805461ff00191690555b5050505050565b6037546001600160a01b031690565b603854603954604051635bd2a29360e11b815260009283926001600160a01b039182169263b7a54526926107a9921690600401612a23565b604080518083038186803b1580156107c057600080fd5b505afa1580156107d4573d6000803e3d6000fd5b505050506040513d601f19601f820116820180604052508101906107f8919061292a565b915091509091565b90565b603854604051638b2f0f4f60e01b815260009182916001600160a01b0390911690638b2f0f4f90610838908790600401612a23565b60206040518083038186803b15801561085057600080fd5b505afa158015610864573d6000803e3d6000fd5b505050506040513d601f19601f820116820180604052508101906108889190612912565b90506000846001600160a01b031663313ce5676040518163ffffffff1660e01b815260040160206040518083038186803b1580156108c557600080fd5b505afa1580156108d9573d6000803e3d6000fd5b505050506040513d601f19601f820116820180604052508101906108fd919061294d565b60ff16905061061e600a82900a6109148487611d80565b90611dba565b6039546001600160a01b031681565b603b6020526000908152604090205481565b600080610953858560200260040160ff16602061178a565b905060006109668660048401602061178a565b9050806109855760405162461bcd60e51b815260040161060190612fa3565b60ff841681116109a75760405162461bcd60e51b815260040161060190612ba8565b6109c1866020600160ff881601810285016004019061178a565b9695505050505050565b6033546001600160a01b031633146109f55760405162461bcd60e51b815260040161060190612ce4565b60005b8151811015610a4a57610a1d828281518110610a1057fe5b60200260200101516115ee565b610a2657610a42565b610a42828281518110610a3557fe5b6020026020010151611b12565b6001016109f8565b5050565b6033546001600160a01b031690565b6033546001600160a01b03163314610a875760405162461bcd60e51b815260040161060190612ce4565b603380546001600160a01b0319166001600160a01b0384161790558051610ab59060349060208401906123da565b507f6ed15082ad038474841528b5badca105106d4463e44b5d434130dfb299aa36698282604051610ae7929190612ae3565b60405180910390a15050565b6033546001600160a01b03163314610b1d5760405162461bcd60e51b815260040161060190612ce4565b60385460408051635c9bfc2b60e01b815290516000926001600160a01b031691635c9bfc2b916004808301926020929190829003018186803b158015610b6257600080fd5b505afa158015610b76573d6000803e3d6000fd5b505050506040513d601f19601f82011682018060405250810190610b9a9190612912565b9050600080610ba7610771565b909250905080841115610bcc5760405162461bcd60e51b815260040161060190612deb565b610bd68284611dfc565b841115610bf55760405162461bcd60e51b815260040161060190612f6c565b6038546040805163ebee461d60e01b815290516000926001600160a01b03169163ebee461d916004808301926020929190829003018186803b158015610c3a57600080fd5b505afa158015610c4e573d6000803e3d6000fd5b505050506040513d601f19601f82011682018060405250810190610c729190612912565b603c869055428101603d8190556040519192507f4db9119741646c419f1ceccdf112b5b9a9b4516355e742e1fa9c479f4dec98da91610cb291889161306d565b60405180910390a15050505050565b600081830184511015610ce65760405162461bcd60e51b815260040161060190612e15565b826020018401519050816004038015610d05576008810260020a820491505b509392505050565b600080805b603a5460ff82161015610d6057603a8160ff1681548110610d2f57fe5b600091825260209091200154600160a01b900460ff1615610d5857610d55826001611dfc565b91505b600101610d12565b50905090565b6033546001600160a01b03163314610d905760405162461bcd60e51b815260040161060190612ce4565b603d54421015610db25760405162461bcd60e51b815260040161060190612eba565b610dbd603c54611e21565b6000603c819055603d55565b6033546001600160a01b03163314610df35760405162461bcd60e51b815260040161060190612ce4565b60005b8151811015610a4a57610e0e828281518110610a1057fe5b15610e1857610e34565b610e34828281518110610e2757fe5b6020026020010151611f6b565b600101610df6565b6033546001600160a01b0316331480610e5f57506037546001600160a01b031633145b610e7b5760405162461bcd60e51b815260040161060190612dbb565b610a4a8282611c44565b6033546000906001600160a01b0316331480610eab57506037546001600160a01b031633145b610ec75760405162461bcd60e51b815260040161060190612dbb565b6001600160a01b038316610eed5760405162461bcd60e51b815260040161060190613006565b603854604051631c09fa9b60e21b81526000916001600160a01b031690637027ea6c90610f1e908790600401612a23565b60206040518083038186803b158015610f3657600080fd5b505afa158015610f4a573d6000803e3d6000fd5b505050506040513d601f19601f82011682018060405250810190610f6e91906125ab565b90506001600160a01b038116610f965760405162461bcd60e51b815260040161060190612e4c565b603860009054906101000a90046001600160a01b03166001600160a01b0316638d554cad6040518163ffffffff1660e01b815260040160206040518083038186803b158015610fe457600080fd5b505afa158015610ff8573d6000803e3d6000fd5b505050506040513d601f19601f8201168201806040525081019061101c91906125ab565b6001600160a01b0316816001600160a01b03161415806110405750611040846114be565b61105c5760405162461bcd60e51b815260040161060190612c63565b60405163e23ff43760e01b81526001600160a01b0382169063e23ff4379061108a9030908790600401612ae3565b602060405180830381600087803b1580156110a457600080fd5b505af11580156110b8573d6000803e3d6000fd5b505050506040513d601f19601f820116820180604052508101906110dc91906127b1565b6110f85760405162461bcd60e51b815260040161060190612c36565b6000846001600160a01b0316846040516111129190612a07565b6000604051808303816000865af19150503d806000811461114f576040519150601f19603f3d011682016040523d82523d6000602084013e611154565b606091505b509091505060018115151461117b5760405162461bcd60e51b815260040161060190612fcf565b6039547f508f3afa87f72dce865a2321107666b28ac822c23a8c0555fbeb3424cf3de563906001600160a01b03166111b1610a4e565b426040516111c193929190612a7b565b60405180910390a1506001949350505050565b603d5481565b6033546001600160a01b031633146112045760405162461bcd60e51b815260040161060190612ce4565b603780546001600160a01b0319169055565b600061122d838360200260040160ff16602061178a565b9392505050565b6038546000906001600160a01b03163314806112e65750603860009054906101000a90046001600160a01b03166001600160a01b0316631d68702d6040518163ffffffff1660e01b815260040160206040518083038186803b15801561129957600080fd5b505afa1580156112ad573d6000803e3d6000fd5b505050506040513d601f19601f820116820180604052508101906112d191906125ab565b6001600160a01b0316336001600160a01b0316145b6113025760405162461bcd60e51b815260040161060190612d36565b306001600160a01b0316826001600160a01b0316631e50a4a66040518163ffffffff1660e01b815260040160206040518083038186803b15801561134557600080fd5b505afa158015611359573d6000803e3d6000fd5b505050506040513d601f19601f8201168201806040525081019061137d91906125ab565b6001600160a01b0316146113a35760405162461bcd60e51b815260040161060190612d0a565b603980546001600160a01b0319166001600160a01b0384161790556040517f8c1446ebd2ac8c922b8c9716dfbdfcfef02c9fc167140d7cfd019565b423b249906113f09084903390612a37565b60405180910390a1506001919050565b603c5481565b60385460405163cc435bf360e01b81526000916001600160a01b03169063cc435bf390611437908590600401612a23565b60206040518083038186803b15801561144f57600080fd5b505afa158015611463573d6000803e3d6000fd5b505050506040513d601f19601f8201168201806040525081019061062391906127b1565b603a5490565b6000806114a5848460200260040160ff16602061178a565b90506114b68460048301602061178a565b949350505050565b6001600160a01b03166000908152603b6020526040902054151590565b6060603580548060200260200160405190810160405280929190818152602001828054801561153357602002820191906000526020600020905b81546001600160a01b03168152600190910190602001808311611515575b5050505050905090565b60355490565b6033546001600160a01b0316331461156d5760405162461bcd60e51b815260040161060190612ce4565b603780546001600160a01b0319166001600160a01b0392909216919091179055565b6033546001600160a01b031633146115b95760405162461bcd60e51b815260040161060190612ce4565b6000603c819055603d8190556040517fc6f04bf43cbdf1ba5d51b4afa160bb3c7e13858b1409aa32868b239bb2f8d8499190a1565b6001600160a01b0316600090815260366020526040902054151590565b6001600160a01b0381166000908152603b6020526040812054801580159061122d5750603a61163b826001611fc7565b8154811061164557fe5b600091825260209091200154600160a01b900460ff169392505050565b60006106238260006004610cc1565b6038546001600160a01b031681565b603a818154811061168d57fe5b6000918252602090912001546001600160a01b0381169150600160a01b900460ff1682565b6033546001600160a01b031633146116dc5760405162461bcd60e51b815260040161060190612ce4565b6116e5816115ee565b156116ef5761066e565b61066e81611f6b565b6039546040516370a0823160e01b81526000916001600160a01b03808516926370a082319261172b921690600401612a23565b60206040518083038186803b15801561174357600080fd5b505afa158015611757573d6000803e3d6000fd5b505050506040513d601f19601f820116820180604052508101906106239190612912565b60006106238261032c846116f8565b6000818301845110156117af5760405162461bcd60e51b815260040161060190612e15565b826020018401519050816020038015610d055760080260020a90049392505050565b603a5460609081816001600160401b03811180156117ee57600080fd5b50604051908082528060200260200182016040528015611818578160200160208202803683370190505b50905060005b828160ff16101561188257603a8160ff168154811061183957fe5b60009182526020909120015482516001600160a01b0390911690839060ff841690811061186257fe5b6001600160a01b039092166020928302919091019091015260010161181e565b5091505090565b603c54603d549091565b603a546060908190819081816001600160401b03811180156118b457600080fd5b506040519080825280602002602001820160405280156118de578160200160208202803683370190505b5090506060826001600160401b03811180156118f957600080fd5b50604051908082528060200260200182016040528015611923578160200160208202803683370190505b5090506060836001600160401b038111801561193e57600080fd5b50604051908082528060200260200182016040528015611968578160200160208202803683370190505b50905060005b84811015611a77576000603a828154811061198557fe5b6000918252602090912001546001600160a01b031690506119a5816116f8565b8483815181106119b157fe5b602002602001018181525050808583815181106119ca57fe5b6001600160a01b039283166020918202929092010152603854604051638b2f0f4f60e01b8152911690638b2f0f4f90611a07908490600401612a23565b60206040518083038186803b158015611a1f57600080fd5b505afa158015611a33573d6000803e3d6000fd5b505050506040513d601f19601f82011682018060405250810190611a579190612912565b838381518110611a6357fe5b60209081029190910101525060010161196e565b509195509350915050909192565b60348054604080516020601f60026000196101006001881615020190951694909404938401819004810282018101909252828152606093909290918301828280156115335780601f10611ae657610100808354040283529160200191611533565b820191906000526020600020905b815481529060010190602001808311611af457509395945050505050565b6035546001600160a01b038216600090815260366020526040812054611b39906001611fc7565b905060006035611b4a846001611fc7565b81548110611b5457fe5b600091825260209091200154603580546001600160a01b039092169250829184908110611b7d57fe5b600091825260209091200180546001600160a01b0319166001600160a01b0392909216919091179055611bb1826001611dfc565b6001600160a01b03808316600090815260366020526040808220939093559086168152908120556035805480611be357fe5b600082815260209020810160001990810180546001600160a01b031916905501905550505050565b303b1590565b603380546001600160a01b0319166001600160a01b0384161790558051611c3f9060349060208401906123da565b505050565b60005b81518160ff161015611c7a57611c72828260ff1681518110611c6557fe5b6020026020010151612009565b600101611c47565b5060005b82518160ff161015611cb157611ca9838260ff1681518110611c9c57fe5b602002602001015161222c565b600101611c7e565b50603860009054906101000a90046001600160a01b03166001600160a01b031663aa12ae4d6040518163ffffffff1660e01b815260040160206040518083038186803b158015611d0057600080fd5b505afa158015611d14573d6000803e3d6000fd5b505050506040513d601f19601f82011682018060405250810190611d389190612912565b603a5410611d585760405162461bcd60e51b81526004016106019061303d565b6001611d62610d0d565b1015610a4a5760405162461bcd60e51b815260040161060190612d79565b600082611d8f57506000610623565b82820282848281611d9c57fe5b041461122d5760405162461bcd60e51b815260040161060190612e79565b600061122d83836040518060400160405280601a81526020017f536166654d6174683a206469766973696f6e206279207a65726f000000000000815250612360565b60008282018381101561122d5760405162461bcd60e51b815260040161060190612bff565b60385460395460405163011adcb160e21b81526001600160a01b039283169263046b72c492611e57929116908590600401612b07565b600060405180830381600087803b158015611e7157600080fd5b505af1158015611e85573d6000803e3d6000fd5b5050603854603954604051635bd2a29360e11b8152600094508493506001600160a01b039283169263b7a5452692611ec292911690600401612a23565b604080518083038186803b158015611ed957600080fd5b505afa158015611eed573d6000803e3d6000fd5b505050506040513d601f19601f82011682018060405250810190611f11919061292a565b60395491935091507f1780c04ddc6f0b32d866c7a3d7583f53515ef49ed2126af868f804f491601266906001600160a01b0316611f4c610a4e565b8484604051611f5e9493929190612a9f565b60405180910390a1505050565b603580546001810182557fcfa4bec1d3298408bb5afcfcd9c430549c5b31f8aa5c5848151c0a55f473c34d0180546001600160a01b039093166001600160a01b0319909316831790555460009182526036602052604090912055565b600061122d83836040518060400160405280601e81526020017f536166654d6174683a207375627472616374696f6e206f766572666c6f770000815250612397565b80516020820151612019826114be565b6120355760405162461bcd60e51b815260040161060190612f3f565b6001600160a01b0382166000908152603b6020526040812054612059906001611fc7565b9050811561209a576000603a828154811061207057fe5b60009182526020909120018054911515600160a01b0260ff60a01b199092169190911790556121d6565b6120a3836116f8565b156120c05760405162461bcd60e51b815260040161060190612cad565b603a546120cb6123c3565b603a6120d8836001611fc7565b815481106120e257fe5b6000918252602091829020604080518082019091529101546001600160a01b0381168252600160a01b900460ff16151591810191909152603a805491925082918590811061212c57fe5b600091825260209182902083519101805493909201511515600160a01b0260ff60a01b196001600160a01b039092166001600160a01b0319909416939093171691909117905561217d836001611dfc565b81516001600160a01b039081166000908152603b602052604080822093909355908716815290812055603a8054806121b157fe5b600082815260209020810160001990810180546001600160a81b031916905501905550505b6039547fe965d54082969a663997d69c24092b2a8571d2fd7d9f74033800398bbab6ffe9906001600160a01b031661220c610a4e565b858560405161221e9493929190612a51565b60405180910390a150505050565b8051602082015161223c82611406565b151560011461225d5760405162461bcd60e51b815260040161060190612bd8565b612266826114be565b156122ca576001600160a01b0382166000908152603b602052604081205461228f906001611fc7565b905081603a828154811061229f57fe5b60009182526020909120018054911515600160a01b0260ff60a01b1990921691909117905550611c3f565b6040805180820182526001600160a01b039384168082529215156020808301918252603a8054600181018255600082815294517fa2999d817b6757290b50e8ecf3fa939673403dd35c97de392fdb343b4015ce9e909101805494516001600160a01b0319909516919098161760ff60a01b1916600160a01b931515939093029290921790955554928152603b9093529091205550565b600081836123815760405162461bcd60e51b81526004016106019190612b95565b50600083858161238d57fe5b0495945050505050565b600081848411156123bb5760405162461bcd60e51b81526004016106019190612b95565b505050900390565b604080518082019091526000808252602082015290565b828054600181600116156101000203166002900490600052602060002090601f016020900481019282601f1061241b57805160ff1916838001178555612448565b82800160010185558215612448579182015b8281111561244857825182559160200191906001019061242d565b50612454929150612458565b5090565b5b808211156124545760008155600101612459565b8035610623816130f0565b600082601f830112612488578081fd5b813561249b612496826130a1565b61307b565b81815291506020808301908481016040808502870183018810156124be57600080fd5b6000805b8681101561250f5782848b0312156124d8578182fd5b6124e18361307b565b6124eb8b8661246d565b81526124f98b87870161251c565b81870152865294840194928201926001016124c2565b5050505050505092915050565b803561062381613105565b600082601f830112612537578081fd5b81356001600160401b0381111561254c578182fd5b61255f601f8201601f191660200161307b565b915080825283602082850101111561257657600080fd5b8060208401602084013760009082016020015292915050565b6000602082840312156125a0578081fd5b813561122d816130f0565b6000602082840312156125bc578081fd5b815161122d816130f0565b600080600080608085870312156125dc578283fd5b84356125e7816130f0565b935060208501356125f7816130f0565b925060408501356001600160401b0380821115612612578384fd5b61261e88838901612527565b93506060870135915080821115612633578283fd5b5061264087828801612478565b91505092959194509250565b6000806040838503121561265e578182fd5b8235612669816130f0565b915060208301356001600160401b03811115612683578182fd5b61268f85828601612527565b9150509250929050565b600080604083850312156126ab578182fd5b82356126b6816130f0565b946020939093013593505050565b600060208083850312156126d6578182fd5b82356001600160401b038111156126eb578283fd5b8301601f810185136126fb578283fd5b8035612709612496826130a1565b8181528381019083850185840285018601891015612725578687fd5b8694505b8385101561274f5761273b898261246d565b835260019490940193918501918501612729565b50979650505050505050565b6000806040838503121561276d578182fd5b82356001600160401b0380821115612783578384fd5b61278f86838701612478565b935060208501359150808211156127a4578283fd5b5061268f85828601612478565b6000602082840312156127c2578081fd5b815161122d81613105565b6000602082840312156127de578081fd5b5035919050565b6000602082840312156127f6578081fd5b81356001600160401b0381111561280b578182fd5b6114b684828501612527565b60008060006060848603121561282b578081fd5b83356001600160401b03811115612840578182fd5b61284c86828701612527565b9660208601359650604090950135949350505050565b60008060408385031215612874578182fd5b82356001600160401b03811115612889578283fd5b61289585828601612527565b92505060208301356128a681613113565b809150509250929050565b6000806000606084860312156128c5578081fd5b83356001600160401b038111156128da578182fd5b6128e686828701612527565b93505060208401356128f781613113565b9150604084013561290781613113565b809150509250925092565b600060208284031215612923578081fd5b5051919050565b6000806040838503121561293c578182fd5b505080516020909101519092909150565b60006020828403121561295e578081fd5b815161122d81613113565b6000815180845260208085019450808401835b838110156129a15781516001600160a01b03168752958201959082019060010161297c565b509495945050505050565b6000815180845260208085019450808401835b838110156129a1578151875295820195908201906001016129bf565b600081518084526129f38160208601602086016130c0565b601f01601f19169290920160200192915050565b60008251612a198184602087016130c0565b9190910192915050565b6001600160a01b0391909116815260200190565b6001600160a01b0392831681529116602082015260400190565b6001600160a01b039485168152928416602084015292166040820152901515606082015260800190565b6001600160a01b039384168152919092166020820152604081019190915260600190565b6001600160a01b0394851681529290931660208301526040820152606081019190915260800190565b6001600160a01b039290921682521515602082015260400190565b6001600160a01b03831681526040602082018190526000906114b6908301846129db565b6001600160a01b03929092168252602082015260400190565b60006020825261122d6020830184612969565b600060608252612b466060830186612969565b8281036020840152612b5881866129ac565b905082810360408401526109c181856129ac565b901515815260200190565b90815260200190565b6001600160e01b031991909116815260200190565b60006020825261122d60208301846129db565b60208082526016908201527534b73b30b634b21030b93930bc903837b9b4ba34b7b760511b604082015260600190565b6020808252600d908201526c1a5b9d985b1a5908185cdcd95d609a1b604082015260600190565b6020808252601b908201527f536166654d6174683a206164646974696f6e206f766572666c6f770000000000604082015260600190565b60208082526013908201527234b73b30b634b2103a3930b739b0b1ba34b7b760691b604082015260600190565b6020808252602a908201527f696e76616c69642064657374696e6174696f6e206f72206173736574206e6f74604082015269081cdd5c1c1bdc9d195960b21b606082015260800190565b6020808252601d908201527f63616e6e6f742072656d6f7665206e6f6e2d656d707479206173736574000000604082015260600190565b6020808252600c908201526b37b7363c9036b0b730b3b2b960a11b604082015260600190565b602080825260129082015271696e76616c696420706f6f6c206c6f67696360701b604082015260600190565b60208082526023908201527f6f6e6c792044414f206f7220666163746f7279206164647265737320616c6c6f6040820152621dd95960ea1b606082015260800190565b60208082526022908201527f72657175697265206174206c65617374206f6e65206465706f73697420617373604082015261195d60f21b606082015260800190565b60208082526016908201527537b7363c9036b0b730b3b2b91037b9103a3930b232b960511b604082015260600190565b60208082526010908201526f34b73b30b634b210333930b1ba34b7b760811b604082015260600190565b6020808252601b908201527f52656164696e67206279746573206f7574206f6620626f756e64730000000000604082015260600190565b60208082526013908201527234b73b30b634b2103232b9ba34b730ba34b7b760691b604082015260600190565b60208082526021908201527f536166654d6174683a206d756c7469706c69636174696f6e206f766572666c6f6040820152607760f81b606082015260800190565b60208082526019908201527f66656520696e6372656173652064656c61792061637469766500000000000000604082015260600190565b6020808252602e908201527f436f6e747261637420696e7374616e63652068617320616c726561647920626560408201526d195b881a5b9a5d1a585b1a5e995960921b606082015260800190565b602080825260139082015272185cdcd95d081b9bdd081cdd5c1c1bdc9d1959606a1b604082015260600190565b60208082526019908201527f657863656564656420616c6c6f77656420696e63726561736500000000000000604082015260600190565b602080825260129082015271696e707574206973206e6f7420617272617960701b604082015260600190565b6020808252601a908201527f6661696c656420746f2065786563757465207468652063616c6c000000000000604082015260600190565b6020808252601c908201527f6e6f6e2d7a65726f206164647265737320697320726571756972656400000000604082015260600190565b6020808252601690820152751b585e1a5b5d5b48185cdcd95d1cc81c995858da195960521b604082015260600190565b918252602082015260400190565b6040518181016001600160401b038111828210171561309957600080fd5b604052919050565b60006001600160401b038211156130b6578081fd5b5060209081020190565b60005b838110156130db5781810151838201526020016130c3565b838111156130ea576000848401525b50505050565b6001600160a01b038116811461066e57600080fd5b801515811461066e57600080fd5b60ff8116811461066e57600080fdfea264697066735822122098e53143478a4ee43635a2e7d6e05db33536b0ccf85ae1e9cb080471adfff03364736f6c634300060c0033",
  "linkReferences": {},
  "deployedLinkReferences": {}
}