{
  "_format": "hh-sol-artifact-1",
  "contractName": "PoolManagerLogic-ovm",
  "sourceName": "contracts/PoolManagerLogic.sol",
  "abi": [
    {
      "anonymous": false,
      "inputs": [
        {
          "indexed": false,
          "internalType": "address",
          "name": "fundAddress",
          "type": "address"
        },
        {
          "indexed": false,
          "internalType": "address",
          "name": "manager",
          "type": "address"
        },
        {
          "indexed": false,
          "internalType": "address",
          "name": "asset",
          "type": "address"
        }
      ],
      "name": "AssetAdded",
      "type": "event"
    },
    {
      "anonymous": false,
      "inputs": [
        {
          "indexed": false,
          "internalType": "address",
          "name": "fundAddress",
          "type": "address"
        },
        {
          "indexed": false,
          "internalType": "address",
          "name": "manager",
          "type": "address"
        },
        {
          "indexed": false,
          "internalType": "address",
          "name": "asset",
          "type": "address"
        }
      ],
      "name": "AssetRemoved",
      "type": "event"
    },
    {
      "anonymous": false,
      "inputs": [
        {
          "indexed": false,
          "internalType": "uint256",
          "name": "newNumerator",
          "type": "uint256"
        },
        {
          "indexed": false,
          "internalType": "uint256",
          "name": "announcedFeeActivationTime",
          "type": "uint256"
        }
      ],
      "name": "ManagerFeeIncreaseAnnounced",
      "type": "event"
    },
    {
      "anonymous": false,
      "inputs": [],
      "name": "ManagerFeeIncreaseRenounced",
      "type": "event"
    },
    {
      "anonymous": false,
      "inputs": [
        {
          "indexed": false,
          "internalType": "address",
          "name": "fundAddress",
          "type": "address"
        },
        {
          "indexed": false,
          "internalType": "address",
          "name": "manager",
          "type": "address"
        },
        {
          "indexed": false,
          "internalType": "uint256",
          "name": "numerator",
          "type": "uint256"
        },
        {
          "indexed": false,
          "internalType": "uint256",
          "name": "denominator",
          "type": "uint256"
        }
      ],
      "name": "ManagerFeeSet",
      "type": "event"
    },
    {
      "anonymous": false,
      "inputs": [
        {
          "indexed": false,
          "internalType": "address",
          "name": "newManager",
          "type": "address"
        },
        {
          "indexed": false,
          "internalType": "string",
          "name": "newManagerName",
          "type": "string"
        }
      ],
      "name": "ManagerUpdated",
      "type": "event"
    },
    {
      "anonymous": false,
      "inputs": [
        {
          "indexed": false,
          "internalType": "address",
          "name": "fundAddress",
          "type": "address"
        },
        {
          "indexed": false,
          "internalType": "address",
          "name": "manager",
          "type": "address"
        },
        {
          "indexed": false,
          "internalType": "uint256",
          "name": "time",
          "type": "uint256"
        }
      ],
      "name": "TransactionExecuted",
      "type": "event"
    },
    {
      "inputs": [
        {
          "internalType": "address",
          "name": "member",
          "type": "address"
        }
      ],
      "name": "addMember",
      "outputs": [],
      "stateMutability": "nonpayable",
      "type": "function"
    },
    {
      "inputs": [
        {
          "internalType": "address[]",
          "name": "members",
          "type": "address[]"
        }
      ],
      "name": "addMembers",
      "outputs": [],
      "stateMutability": "nonpayable",
      "type": "function"
    },
    {
      "inputs": [
        {
          "internalType": "address",
          "name": "asset",
          "type": "address"
        }
      ],
      "name": "addToSupportedAssets",
      "outputs": [],
      "stateMutability": "nonpayable",
      "type": "function"
    },
    {
      "inputs": [
        {
          "internalType": "address",
          "name": "pool",
          "type": "address"
        },
        {
          "internalType": "uint256",
          "name": "numerator",
          "type": "uint256"
        }
      ],
      "name": "announceManagerFeeIncrease",
      "outputs": [],
      "stateMutability": "nonpayable",
      "type": "function"
    },
    {
      "inputs": [],
      "name": "announcedFeeIncreaseNumerator",
      "outputs": [
        {
          "internalType": "uint256",
          "name": "",
          "type": "uint256"
        }
      ],
      "stateMutability": "view",
      "type": "function"
    },
    {
      "inputs": [],
      "name": "announcedFeeIncreaseTimestamp",
      "outputs": [
        {
          "internalType": "uint256",
          "name": "",
          "type": "uint256"
        }
      ],
      "stateMutability": "view",
      "type": "function"
    },
    {
      "inputs": [
        {
          "internalType": "address",
          "name": "asset",
          "type": "address"
        }
      ],
      "name": "assetBalance",
      "outputs": [
        {
          "internalType": "uint256",
          "name": "",
          "type": "uint256"
        }
      ],
      "stateMutability": "view",
      "type": "function"
    },
    {
      "inputs": [
        {
          "internalType": "address",
          "name": "",
          "type": "address"
        }
      ],
      "name": "assetPosition",
      "outputs": [
        {
          "internalType": "uint256",
          "name": "",
          "type": "uint256"
        }
      ],
      "stateMutability": "view",
      "type": "function"
    },
    {
      "inputs": [
        {
          "internalType": "address",
          "name": "asset",
          "type": "address"
        },
        {
          "internalType": "uint256",
          "name": "amount",
          "type": "uint256"
        }
      ],
      "name": "assetValue",
      "outputs": [
        {
          "internalType": "uint256",
          "name": "",
          "type": "uint256"
        }
      ],
      "stateMutability": "view",
      "type": "function"
    },
    {
      "inputs": [
        {
          "internalType": "address",
          "name": "asset",
          "type": "address"
        }
      ],
      "name": "assetValue",
      "outputs": [
        {
          "internalType": "uint256",
          "name": "",
          "type": "uint256"
        }
      ],
      "stateMutability": "view",
      "type": "function"
    },
    {
      "inputs": [
        {
          "internalType": "address",
          "name": "newManager",
          "type": "address"
        },
        {
          "internalType": "string",
          "name": "newManagerName",
          "type": "string"
        }
      ],
      "name": "changeManager",
      "outputs": [],
      "stateMutability": "nonpayable",
      "type": "function"
    },
    {
      "inputs": [
        {
          "internalType": "address",
          "name": "pool",
          "type": "address"
        }
      ],
      "name": "commitManagerFeeIncrease",
      "outputs": [],
      "stateMutability": "nonpayable",
      "type": "function"
    },
    {
      "inputs": [
        {
          "internalType": "bytes32",
          "name": "data",
          "type": "bytes32"
        }
      ],
      "name": "convert32toAddress",
      "outputs": [
        {
          "internalType": "address",
          "name": "o",
          "type": "address"
        }
      ],
      "stateMutability": "pure",
      "type": "function"
    },
    {
      "inputs": [
        {
          "internalType": "address",
          "name": "to",
          "type": "address"
        },
        {
          "internalType": "bytes",
          "name": "data",
          "type": "bytes"
        }
      ],
      "name": "execTransaction",
      "outputs": [
        {
          "internalType": "bool",
          "name": "",
          "type": "bool"
        }
      ],
      "stateMutability": "nonpayable",
      "type": "function"
    },
    {
      "inputs": [],
      "name": "factory",
      "outputs": [
        {
          "internalType": "address",
          "name": "",
          "type": "address"
        }
      ],
      "stateMutability": "view",
      "type": "function"
    },
    {
      "inputs": [
        {
          "internalType": "bytes",
          "name": "data",
          "type": "bytes"
        },
        {
          "internalType": "uint8",
          "name": "inputNum",
          "type": "uint8"
        },
        {
          "internalType": "uint8",
          "name": "arrayIndex",
          "type": "uint8"
        }
      ],
      "name": "getArrayIndex",
      "outputs": [
        {
          "internalType": "bytes32",
          "name": "",
          "type": "bytes32"
        }
      ],
      "stateMutability": "pure",
      "type": "function"
    },
    {
      "inputs": [
        {
          "internalType": "bytes",
          "name": "data",
          "type": "bytes"
        },
        {
          "internalType": "uint8",
          "name": "inputNum",
          "type": "uint8"
        }
      ],
      "name": "getArrayLast",
      "outputs": [
        {
          "internalType": "bytes32",
          "name": "",
          "type": "bytes32"
        }
      ],
      "stateMutability": "pure",
      "type": "function"
    },
    {
      "inputs": [
        {
          "internalType": "bytes",
          "name": "data",
          "type": "bytes"
        },
        {
          "internalType": "uint8",
          "name": "inputNum",
          "type": "uint8"
        }
      ],
      "name": "getArrayLength",
      "outputs": [
        {
          "internalType": "uint256",
          "name": "",
          "type": "uint256"
        }
      ],
      "stateMutability": "pure",
      "type": "function"
    },
    {
      "inputs": [],
      "name": "getFundComposition",
      "outputs": [
        {
          "internalType": "address[]",
          "name": "",
          "type": "address[]"
        },
        {
          "internalType": "uint256[]",
          "name": "",
          "type": "uint256[]"
        },
        {
          "internalType": "uint256[]",
          "name": "",
          "type": "uint256[]"
        }
      ],
      "stateMutability": "view",
      "type": "function"
    },
    {
      "inputs": [
        {
          "internalType": "bytes",
          "name": "data",
          "type": "bytes"
        },
        {
          "internalType": "uint8",
          "name": "inputNum",
          "type": "uint8"
        }
      ],
      "name": "getInput",
      "outputs": [
        {
          "internalType": "bytes32",
          "name": "",
          "type": "bytes32"
        }
      ],
      "stateMutability": "pure",
      "type": "function"
    },
    {
      "inputs": [
        {
          "internalType": "address",
          "name": "pool",
          "type": "address"
        }
      ],
      "name": "getManagerFee",
      "outputs": [
        {
          "internalType": "uint256",
          "name": "",
          "type": "uint256"
        },
        {
          "internalType": "uint256",
          "name": "",
          "type": "uint256"
        }
      ],
      "stateMutability": "view",
      "type": "function"
    },
    {
      "inputs": [],
      "name": "getManagerFeeIncreaseInfo",
      "outputs": [
        {
          "internalType": "uint256",
          "name": "",
          "type": "uint256"
        },
        {
          "internalType": "uint256",
          "name": "",
          "type": "uint256"
        }
      ],
      "stateMutability": "view",
      "type": "function"
    },
    {
      "inputs": [],
      "name": "getMembers",
      "outputs": [
        {
          "internalType": "address[]",
          "name": "",
          "type": "address[]"
        }
      ],
      "stateMutability": "view",
      "type": "function"
    },
    {
      "inputs": [
        {
          "internalType": "bytes",
          "name": "data",
          "type": "bytes"
        }
      ],
      "name": "getMethod",
      "outputs": [
        {
          "internalType": "bytes4",
          "name": "",
          "type": "bytes4"
        }
      ],
      "stateMutability": "pure",
      "type": "function"
    },
    {
      "inputs": [],
      "name": "getSupportedAssets",
      "outputs": [
        {
          "internalType": "address[]",
          "name": "",
          "type": "address[]"
        }
      ],
      "stateMutability": "view",
      "type": "function"
    },
    {
      "inputs": [
        {
          "internalType": "address",
          "name": "_factory",
          "type": "address"
        },
        {
          "internalType": "address",
          "name": "_manager",
          "type": "address"
        },
        {
          "internalType": "string",
          "name": "_managerName",
          "type": "string"
        },
        {
          "internalType": "address[]",
          "name": "_supportedAssets",
          "type": "address[]"
        }
      ],
      "name": "initialize",
      "outputs": [],
      "stateMutability": "nonpayable",
      "type": "function"
    },
    {
      "inputs": [
        {
          "internalType": "address",
          "name": "asset",
          "type": "address"
        }
      ],
      "name": "isAssetSupported",
      "outputs": [
        {
          "internalType": "bool",
          "name": "",
          "type": "bool"
        }
      ],
      "stateMutability": "view",
      "type": "function"
    },
    {
      "inputs": [
        {
          "internalType": "address",
          "name": "member",
          "type": "address"
        }
      ],
      "name": "isMemberAllowed",
      "outputs": [
        {
          "internalType": "bool",
          "name": "",
          "type": "bool"
        }
      ],
      "stateMutability": "view",
      "type": "function"
    },
    {
      "inputs": [],
      "name": "manager",
      "outputs": [
        {
          "internalType": "address",
          "name": "",
          "type": "address"
        }
      ],
      "stateMutability": "view",
      "type": "function"
    },
    {
      "inputs": [],
      "name": "managerName",
      "outputs": [
        {
          "internalType": "string",
          "name": "",
          "type": "string"
        }
      ],
      "stateMutability": "view",
      "type": "function"
    },
    {
      "inputs": [],
      "name": "numberOfMembers",
      "outputs": [
        {
          "internalType": "uint256",
          "name": "",
          "type": "uint256"
        }
      ],
      "stateMutability": "view",
      "type": "function"
    },
    {
      "inputs": [],
      "name": "numberOfSupportedAssets",
      "outputs": [
        {
          "internalType": "uint256",
          "name": "",
          "type": "uint256"
        }
      ],
      "stateMutability": "view",
      "type": "function"
    },
    {
      "inputs": [
        {
          "internalType": "address",
          "name": "",
          "type": "address"
        }
      ],
      "name": "persistentAsset",
      "outputs": [
        {
          "internalType": "bool",
          "name": "",
          "type": "bool"
        }
      ],
      "stateMutability": "view",
      "type": "function"
    },
    {
      "inputs": [
        {
          "internalType": "bytes",
          "name": "data",
          "type": "bytes"
        },
        {
          "internalType": "uint256",
          "name": "offset",
          "type": "uint256"
        },
        {
          "internalType": "uint256",
          "name": "length",
          "type": "uint256"
        }
      ],
      "name": "read32",
      "outputs": [
        {
          "internalType": "bytes32",
          "name": "o",
          "type": "bytes32"
        }
      ],
      "stateMutability": "pure",
      "type": "function"
    },
    {
      "inputs": [
        {
          "internalType": "bytes",
          "name": "data",
          "type": "bytes"
        },
        {
          "internalType": "uint256",
          "name": "offset",
          "type": "uint256"
        },
        {
          "internalType": "uint256",
          "name": "length",
          "type": "uint256"
        }
      ],
      "name": "read4left",
      "outputs": [
        {
          "internalType": "bytes4",
          "name": "o",
          "type": "bytes4"
        }
      ],
      "stateMutability": "pure",
      "type": "function"
    },
    {
      "inputs": [
        {
          "internalType": "address",
          "name": "asset",
          "type": "address"
        }
      ],
      "name": "removeFromSupportedAssets",
      "outputs": [],
      "stateMutability": "nonpayable",
      "type": "function"
    },
    {
      "inputs": [
        {
          "internalType": "address",
          "name": "member",
          "type": "address"
        }
      ],
      "name": "removeMember",
      "outputs": [],
      "stateMutability": "nonpayable",
      "type": "function"
    },
    {
      "inputs": [
        {
          "internalType": "address[]",
          "name": "members",
          "type": "address[]"
        }
      ],
      "name": "removeMembers",
      "outputs": [],
      "stateMutability": "nonpayable",
      "type": "function"
    },
    {
      "inputs": [],
      "name": "removeTrader",
      "outputs": [],
      "stateMutability": "nonpayable",
      "type": "function"
    },
    {
      "inputs": [],
      "name": "renounceManagerFeeIncrease",
      "outputs": [],
      "stateMutability": "nonpayable",
      "type": "function"
    },
    {
      "inputs": [
        {
          "internalType": "address",
          "name": "newTrader",
          "type": "address"
        }
      ],
      "name": "setTrader",
      "outputs": [],
      "stateMutability": "nonpayable",
      "type": "function"
    },
    {
      "inputs": [
        {
          "internalType": "uint256",
          "name": "",
          "type": "uint256"
        }
      ],
      "name": "supportedAssets",
      "outputs": [
        {
          "internalType": "address",
          "name": "",
          "type": "address"
        }
      ],
      "stateMutability": "view",
      "type": "function"
    },
    {
      "inputs": [],
      "name": "trader",
      "outputs": [
        {
          "internalType": "address",
          "name": "",
          "type": "address"
        }
      ],
      "stateMutability": "view",
      "type": "function"
    },
    {
      "inputs": [
        {
          "internalType": "address",
          "name": "asset",
          "type": "address"
        }
      ],
      "name": "validateAsset",
      "outputs": [
        {
          "internalType": "bool",
          "name": "",
          "type": "bool"
        }
      ],
      "stateMutability": "view",
      "type": "function"
    }
  ],
  "bytecode": "0x60806040523480156200001c576000806200001962000023565b50505b5062000090565b632a2a7adb598160e01b8152600481016020815285602082015260005b868110156200005d57808601518282016040015260200162000040565b506020828760640184336000905af158600e01573d6000803e3d6000fd5b3d6001141558600a015760016000f35b505050565b61480a80620000a06000396000f3fe60806040523480156100195760008061001661435e565b50505b506004361061027d5760003560e01c80638f3234391161015a578063c45a0155116100cc578063d8af8ed411610090578063d8af8ed414611043578063db896b5714611072578063e5406dbf1461113e578063ed5b165d14611146578063f09d14d71461114e578063fed4416a146112345761027d565b8063c45a015514610e3a578063c688aa6414610e42578063c68dbb3714610fbf578063ca6d56dc14610fe5578063cd88e558146110145761027d565b80639eab52531161011e5780639eab525314610caa578063a30e3fa914610d05578063a6bc18f914610d0d578063b8bd81e614610d3c578063bbbf725b14610d44578063c3c6279f14610d735761027d565b80638f32343914610b705780639240d29914610b78578063936553c414610ba7578063969eed2714610baf578063998546e314610bde5761027d565b8063481c6a75116101f35780636f4d469b116101b75780636f4d469b146108c95780637ae7cfb51461098e5780637b4d0c6314610a655780637c8afd5114610a6d57806380dd4f6214610a7557806382f86acc14610aa45761027d565b8063481c6a7514610685578063522136631461068d578063568b5a2f146107645780635f6eceab1461084d5780636708f5d7146108945761027d565b80631eba3077116102455780631eba30771461041c57806329c07fba146104425780633c570d7d1461047757806341dc16c3146104a6578063464b41581461057d57806346ee84b0146105c05761027d565b8063064685871461028b578063093b8825146102bc57806309ff5c7d146102eb5780630b1ca49a146103c95780631758078b146103f8575b60008061028861435e565b50505b6102ba600480360360208110156102aa576000806102a761435e565b50505b50356001600160a01b03166112b3565b005b6102ba600480360360208110156102db576000806102d861435e565b50505b50356001600160a01b0316611683565b6103b76004803603604081101561030a5760008061030761435e565b50505b810190602081018135600160201b81111561032d5760008061032a61435e565b50505b8201836020820111156103485760008061034561435e565b50505b803590602001918460018302840111600160201b831117156103725760008061036f61435e565b50505b91908080601f01602080910402602001604051908101604052818152929190602084018383808284376000920191909152509295505050903560ff1691506117559050565b60405190815260200160405180910390f35b6102ba600480360360208110156103e8576000806103e561435e565b50505b50356001600160a01b03166117f0565b61040061188b565b6040516001600160a01b03909116815260200160405180910390f35b6104006004803603602081101561043b5760008061043861435e565b50505b50356118ad565b6103b7600480360360408110156104615760008061045e61435e565b50505b506001600160a01b0381351690602001356118b0565b6103b7600480360360208110156104965760008061049361435e565b50505b50356001600160a01b0316611a3a565b6103b7600480360360608110156104c5576000806104c261435e565b50505b810190602081018135600160201b8111156104e8576000806104e561435e565b50505b8201836020820111156105035760008061050061435e565b50505b803590602001918460018302840111600160201b8311171561052d5760008061052a61435e565b50505b91908080601f01602080910402602001604051908101604052818152929190602084018383808284376000920191909152509295505060ff8335811694506020909301359092169150611a559050565b6105ac6004803603602081101561059c5760008061059961435e565b50505b50356001600160a01b0316611b4d565b604051901515815260200160405180910390f35b6102ba600480360360208110156105df576000806105dc61435e565b50505b810190602081018135600160201b811115610602576000806105ff61435e565b50505b82018360208201111561061d5760008061061a61435e565b50505b803590602001918460208302840111600160201b831117156106475760008061064461435e565b50505b919080806020026020016040519081016040528093929190818152602001838360200280828437600092019190915250929550611b75945050505050565b610400611c4e565b6102ba600480360360408110156106ac576000806106a961435e565b50505b6001600160a01b038235169190810190604081016020820135600160201b8111156106df576000806106dc61435e565b50505b8201836020820111156106fa576000806106f761435e565b50505b803590602001918460018302840111600160201b831117156107245760008061072161435e565b50505b91908080601f0160208091040260200160405190810160405281815292919060208401838380828437600092019190915250929550611c5b945050505050565b610830600480360360608110156107835760008061078061435e565b50505b810190602081018135600160201b8111156107a6576000806107a361435e565b50505b8201836020820111156107c1576000806107be61435e565b50505b803590602001918460018302840111600160201b831117156107eb576000806107e861435e565b50505b91908080601f01602080910402602001604051908101604052818152929190602084018383808284376000920191909152509295505082359350505060200135611dd0565b6040516001600160e01b0319909116815260200160405180910390f35b61087c6004803603602081101561086c5760008061086961435e565b50505b50356001600160a01b0316611e59565b60405191825260208201526040908101905180910390f35b6102ba600480360360408110156108b3576000806108b061435e565b50505b506001600160a01b038135169060200135611f38565b6102ba600480360360208110156108e8576000806108e561435e565b50505b810190602081018135600160201b81111561090b5760008061090861435e565b50505b8201836020820111156109265760008061092361435e565b50505b803590602001918460208302840111600160201b831117156109505760008061094d61435e565b50505b919080806020026020016040519081016040528093929190818152602001838360200280828437600092019190915250929550612268945050505050565b6105ac600480360360408110156109ad576000806109aa61435e565b50505b6001600160a01b038235169190810190604081016020820135600160201b8111156109e0576000806109dd61435e565b50505b8201836020820111156109fb576000806109f861435e565b50505b803590602001918460018302840111600160201b83111715610a2557600080610a2261435e565b50505b91908080601f0160208091040260200160405190810160405281815292919060208401838380828437600092019190915250929550612331945050505050565b6103b761291f565b6102ba612929565b6105ac60048036036020811015610a9457600080610a9161435e565b50505b50356001600160a01b03166129df565b6103b760048036036040811015610ac357600080610ac061435e565b50505b810190602081018135600160201b811115610ae657600080610ae361435e565b50505b820183602082011115610b0157600080610afe61435e565b50505b803590602001918460018302840111600160201b83111715610b2b57600080610b2861435e565b50505b91908080601f01602080910402602001604051908101604052818152929190602084018383808284376000920191909152509295505050903560ff169150612a069050565b6103b7612a24565b6105ac60048036036020811015610b9757600080610b9461435e565b50505b50356001600160a01b0316612a2e565b6103b7612b00565b6102ba60048036036020811015610bce57600080610bcb61435e565b50505b50356001600160a01b0316612b13565b6103b760048036036040811015610bfd57600080610bfa61435e565b50505b810190602081018135600160201b811115610c2057600080610c1d61435e565b50505b820183602082011115610c3b57600080610c3861435e565b50505b803590602001918460018302840111600160201b83111715610c6557600080610c6261435e565b50505b91908080601f01602080910402602001604051908101604052818152929190602084018383808284376000920191909152509295505050903560ff169150612c389050565b610cb2612c69565b60405160208082528190810183818151815260200191508051906020019060200280838360005b83811015610cf1578082015183820152602001610cd9565b505050509050019250505060405180910390f35b6103b7612cf0565b6102ba60048036036020811015610d2c57600080610d2961435e565b50505b50356001600160a01b0316612cfd565b6102ba612dad565b6105ac60048036036020811015610d6357600080610d6061435e565b50505b50356001600160a01b0316612e7c565b61083060048036036020811015610d9257600080610d8f61435e565b50505b810190602081018135600160201b811115610db557600080610db261435e565b50505b820183602082011115610dd057600080610dcd61435e565b50505b803590602001918460018302840111600160201b83111715610dfa57600080610df761435e565b50505b91908080601f0160208091040260200160405190810160405281815292919060208401838380828437600092019190915250929550612e9c945050505050565b610400612eab565b6102ba60048036036080811015610e6157600080610e5e61435e565b50505b6001600160a01b038235811692602081013590911691810190606081016040820135600160201b811115610e9d57600080610e9a61435e565b50505b820183602082011115610eb857600080610eb561435e565b50505b803590602001918460018302840111600160201b83111715610ee257600080610edf61435e565b50505b91908080601f01602080910402602001604051908101604052818152929190602084018383808284376000920191909152509295949360208101935035915050600160201b811115610f3c57600080610f3961435e565b50505b820183602082011115610f5757600080610f5461435e565b50505b803590602001918460208302840111600160201b83111715610f8157600080610f7e61435e565b50505b919080806020026020016040519081016040528093929190818152602001838360200280828437600092019190915250929550612eca945050505050565b61040060048036036020811015610fde57600080610fdb61435e565b50505b503561306b565b6102ba600480360360208110156110045760008061100161435e565b50505b50356001600160a01b0316613095565b6103b7600480360360208110156110335760008061103061435e565b50505b50356001600160a01b0316613131565b6103b7600480360360208110156110625760008061105f61435e565b50505b50356001600160a01b03166131d5565b6103b7600480360360608110156110915760008061108e61435e565b50505b810190602081018135600160201b8111156110b4576000806110b161435e565b50505b8201836020820111156110cf576000806110cc61435e565b50505b803590602001918460018302840111600160201b831117156110f9576000806110f661435e565b50505b91908080601f016020809104026020016040519081016040528181529291906020840183838082843760009201919091525092955050823593505050602001356131e9565b610cb261326d565b61087c6132f3565b611156613312565b60405180806020018060200180602001848103845287818151815260200191508051906020019060200280838360005b8381101561119e578082015183820152602001611186565b50505050905001848103835286818151815260200191508051906020019060200280838360005b838110156111dd5780820151838201526020016111c5565b50505050905001848103825285818151815260200191508051906020019060200280838360005b8381101561121c578082015183820152602001611204565b50505050905001965050505050505060405180910390f35b61123c61359f565b60405160208082528190810183818151815260200191508051906020019080838360005b83811015611278578082015183820152602001611260565b50505050905090810190601f1680156112a55780820380516001836020036101000a031916815260200191505b509250505060405180910390f35b600060386112bf6143c9565b906101000a90046001600160a01b03166001600160a01b0316638da5cb5b6040518163ffffffff1660e01b81526004016020604051808303818680611302614424565b1580156113175760008061131461435e565b50505b505a611321614470565b5050505050158015611340573d6000803e3d600061133d61435e565b50505b505050506040513d602081101561135f5760008061135c61435e565b50505b8101908080516001600160a01b0316925050505a61137b61455b565b6001600160a01b031614806113b05750611393611c4e565b6001600160a01b03165a6113a561455b565b6001600160a01b0316145b806113db57506113be61188b565b6001600160a01b03165a6113d061455b565b6001600160a01b0316145b6114345760405162461bcd60e51b815260206004820152601b60248201527f6f6e6c79206d616e616765722c20747261646572206f722044414f000000000060448201526064016040518091039061143161435e565b50505b61143d81611b4d565b61148c5760405162461bcd60e51b8152602060048201526013602482015272185cdcd95d081b9bdd081cdd5c1c1bdc9d1959606a1b60448201526064016040518091039061148961435e565b50505b6001600160a01b0381166000908152603b602052604090206000906114af6143c9565b906101000a900460ff16156115135760405162461bcd60e51b815260206004820152601f60248201527f63616e6e6f742072656d6f76652070657273697374656e74206173736574730060448201526064016040518091039061151061435e565b50505b806001600160a01b03166370a082315a63996d79a5598160e01b8152602081600483336000905af158600e01573d6000803e3d6000fd5b3d6001141558600a015760016000f35b8051925060005b604081101561157857600082820152602001611561565b5050506040516001600160e01b031960e084901b1681526001600160a01b03909116600482015260240160206040518083038186806115b5614424565b1580156115ca576000806115c761435e565b50505b505a6115d4614470565b50505050501580156115f3573d6000803e3d60006115f061435e565b50505b505050506040513d60208110156116125760008061160f61435e565b50505b8101908080511592506116779150505760405162461bcd60e51b815260206004820152601d60248201527f63616e6e6f742072656d6f7665206e6f6e2d656d70747920617373657400000060448201526064016040518091039061167461435e565b50505b61168081613653565b50565b6000603361168f6143c9565b906101000a90046001600160a01b03166001600160a01b03165a6116b161455b565b6001600160a01b031614806116fa5750600060376116cd6143c9565b906101000a90046001600160a01b03166001600160a01b03165a6116ef61455b565b6001600160a01b0316145b61174c5760405162461bcd60e51b815260206004820152601660248201527537b7363c9036b0b730b3b2b91037b9103a3930b232b960511b60448201526064016040518091039061174961435e565b50505b61168081613895565b60008061176d848460200260040160ff1660206131e9565b90506000611780856004840160206131e9565b9050806117d15760405162461bcd60e51b8152602060048201526012602482015271696e707574206973206e6f7420617272617960701b6044820152606401604051809103906117ce61435e565b50505b6117e58560208084028501600401906131e9565b925050505b92915050565b600060336117fc6143c9565b906101000a90046001600160a01b03166001600160a01b03165a61181e61455b565b6001600160a01b0316146118705760405162461bcd60e51b815260206004820152600c60248201526b37b7363c9036b0b730b3b2b960a11b60448201526064016040518091039061186d61435e565b50505b61187981612e7c565b61188257611680565b61168081613bba565b60008060376118986143c9565b906101000a90046001600160a01b0316905090565b90565b6000808060386118be6143c9565b906101000a90046001600160a01b03166001600160a01b031663b3596f07856040516001600160e01b031960e084901b1681526001600160a01b0390911660048201526024016020604051808303818680611917614424565b15801561192c5760008061192961435e565b50505b505a611936614470565b5050505050158015611955573d6000803e3d600061195261435e565b50505b505050506040513d60208110156119745760008061197161435e565b50505b81019080805193506000925050506001600160a01b03851663313ce5676040518163ffffffff1660e01b815260040160206040518083038186806119b6614424565b1580156119cb576000806119c861435e565b50505b505a6119d5614470565b50505050501580156119f4573d6000803e3d60006119f161435e565b50505b505050506040513d6020811015611a1357600080611a1061435e565b50505b81019080805160ff1693506117e592505050600a82900a611a348487613d35565b90613d9d565b603a6020528060005260406000209050611a526143c9565b81565b600080611a6d858560200260040160ff1660206131e9565b90506000611a80866004840160206131e9565b905080611ad15760405162461bcd60e51b8152602060048201526012602482015271696e707574206973206e6f7420617272617960701b604482015260640160405180910390611ace61435e565b50505b60ff84168111611b295760405162461bcd60e51b815260206004820152601660248201527534b73b30b634b21030b93930bc903837b9b4ba34b7b760511b604482015260640160405180910390611b2661435e565b50505b611b43866020600160ff88160181028501600401906131e9565b9695505050505050565b6001600160a01b0381166000908152603a60205260408120611b6d6143c9565b151592915050565b60006033611b816143c9565b906101000a90046001600160a01b03166001600160a01b03165a611ba361455b565b6001600160a01b031614611bf55760405162461bcd60e51b815260206004820152600c60248201526b37b7363c9036b0b730b3b2b960a11b604482015260640160405180910390611bf261435e565b50505b60005b8151811015611c4a57611c1d828281518110611c1057fe5b6020026020010151612e7c565b611c2657611c42565b611c42828281518110611c3557fe5b6020026020010151613bba565b600101611bf8565b5050565b60008060336118986143c9565b60006033611c676143c9565b906101000a90046001600160a01b03166001600160a01b03165a611c8961455b565b6001600160a01b031614611cdb5760405162461bcd60e51b815260206004820152600c60248201526b37b7363c9036b0b730b3b2b960a11b604482015260640160405180910390611cd861435e565b50505b816033600181611ce96143c9565b816001600160a01b0302191690836001600160a01b0316021790611d0b6145a1565b505050806034908051611d229291602001906145ef565b507f6ed15082ad038474841528b5badca105106d4463e44b5d434130dfb299aa366982826040516001600160a01b038316815260406020820181815290820183818151815260200191508051906020019080838360005b83811015611d91578082015183820152602001611d79565b50505050905090810190601f168015611dbe5780820380516001836020036101000a031916815260200191505b50935050505060405180910390a15050565b600081830184511015611e325760405162461bcd60e51b815260206004820152601b60248201527f52656164696e67206279746573206f7574206f6620626f756e64730000000000604482015260640160405180910390611e2f61435e565b50505b826020018401519050816004038015611e51576008810260020a820491505b509392505050565b600080806038611e676143c9565b906101000a90046001600160a01b03166001600160a01b031663b7a54526846040516001600160e01b031960e084901b1681526001600160a01b03909116600482015260240160408051808303818680611ebf614424565b158015611ed457600080611ed161435e565b50505b505a611ede614470565b5050505050158015611efd573d6000803e3d6000611efa61435e565b50505b505050506040513d6040811015611f1c57600080611f1961435e565b50505b8101908080519291906020018051939550929350505050915091565b60006033611f446143c9565b906101000a90046001600160a01b03166001600160a01b03165a611f6661455b565b6001600160a01b031614611fb85760405162461bcd60e51b815260206004820152600c60248201526b37b7363c9036b0b730b3b2b960a11b604482015260640160405180910390611fb561435e565b50505b6000806038611fc56143c9565b906101000a90046001600160a01b03166001600160a01b0316635c9bfc2b6040518163ffffffff1660e01b81526004016020604051808303818680612008614424565b15801561201d5760008061201a61435e565b50505b505a612027614470565b5050505050158015612046573d6000803e3d600061204361435e565b50505b505050506040513d60208110156120655760008061206261435e565b50505b81019080805193506000925082915061207f905085611e59565b9092509050808411156120d45760405162461bcd60e51b815260206004820152601060248201526f34b73b30b634b210333930b1ba34b7b760811b6044820152606401604051809103906120d161435e565b50505b6120de8284613ddd565b84111561213a5760405162461bcd60e51b815260206004820152601960248201527f657863656564656420616c6c6f77656420696e6372656173650000000000000060448201526064016040518091039061213761435e565b50505b60008060386121476143c9565b906101000a90046001600160a01b03166001600160a01b031663ebee461d6040518163ffffffff1660e01b8152600401602060405180830381868061218a614424565b15801561219f5760008061219c61435e565b50505b505a6121a9614470565b50505050501580156121c8573d6000803e3d60006121c561435e565b50505b505050506040513d60208110156121e7576000806121e461435e565b50505b8101908080519350879250829150603c90506122016145a1565b505050805a61220e61468f565b0180603d61221a6145a1565b5050507f4db9119741646c419f1ceccdf112b5b9a9b4516355e742e1fa9c479f4dec98da85603d6122496143c9565b60405191825260208201526040908101905180910390a1505050505050565b600060336122746143c9565b906101000a90046001600160a01b03166001600160a01b03165a61229661455b565b6001600160a01b0316146122e85760405162461bcd60e51b815260206004820152600c60248201526b37b7363c9036b0b730b3b2b960a11b6044820152606401604051809103906122e561435e565b50505b60005b8151811015611c4a57612303828281518110611c1057fe5b1561230d57612329565b61232982828151811061231c57fe5b6020026020010151613e3c565b6001016122eb565b600080603361233e6143c9565b906101000a90046001600160a01b03166001600160a01b03165a61236061455b565b6001600160a01b031614806123a957506000603761237c6143c9565b906101000a90046001600160a01b03166001600160a01b03165a61239e61455b565b6001600160a01b0316145b6123fb5760405162461bcd60e51b815260206004820152601660248201527537b7363c9036b0b730b3b2b91037b9103a3930b232b960511b6044820152606401604051809103906123f861435e565b50505b6001600160a01b03831661245e5760405162461bcd60e51b815260206004820152601c60248201527f6e6f6e2d7a65726f20616464726573732069732072657175697265640000000060448201526064016040518091039061245b61435e565b50505b600080603861246b6143c9565b906101000a90046001600160a01b03166001600160a01b0316637027ea6c856040516001600160e01b031960e084901b1681526001600160a01b03909116600482015260240160206040518083038186806124c4614424565b1580156124d9576000806124d661435e565b50505b505a6124e3614470565b5050505050158015612502573d6000803e3d60006124ff61435e565b50505b505050506040513d60208110156125215760008061251e61435e565b50505b81019080805193505050506001600160a01b0381166125855760405162461bcd60e51b815260206004820152601360248201527234b73b30b634b2103232b9ba34b730ba34b7b760691b60448201526064016040518091039061258261435e565b50505b806001600160a01b031663e23ff4375a63996d79a5598160e01b8152602081600483336000905af158600e01573d6000803e3d6000fd5b3d6001141558600a015760016000f35b8051925060005b60408110156125ea576000828201526020016125d3565b505050856040518363ffffffff1660e01b815260040180836001600160a01b0316815260200180602001828103825283818151815260200191508051906020019080838360005b83811015612649578082015183820152602001612631565b50505050905090810190601f1680156126765780820380516001836020036101000a031916815260200191505b50935050505060206040518083038160008780612691614424565b1580156126a6576000806126a361435e565b50505b505a6126b06146d5565b5050505050501580156126d0573d6000803e3d60006126cd61435e565b50505b505050506040513d60208110156126ef576000806126ec61435e565b50505b81019080805192506127499150505760405162461bcd60e51b815260206004820152601360248201527234b73b30b634b2103a3930b739b0b1ba34b7b760691b60448201526064016040518091039061274661435e565b50505b6000846001600160a01b0316846040518082805190602001908083835b602083106127855780518252601f199092019160209182019101612766565b6001836020036101000a0380198251168184511680821785525050505050509050019150506000604051808303816000865a6127bf6146d5565b5050505050509150503d80600081146127f4576040513d603f01601f191681016040523d815291503d6000602084013e6127f9565b606091505b509091505060018115151461285d5760405162461bcd60e51b815260206004820152601a60248201527f6661696c656420746f2065786563757465207468652063616c6c00000000000060448201526064016040518091039061285a61435e565b50505b7f508f3afa87f72dce865a2321107666b28ac822c23a8c0555fbeb3424cf3de5635a63996d79a5598160e01b8152602081600483336000905af158600e01573d6000803e3d6000fd5b3d6001141558600a015760016000f35b8051925060005b60408110156128d4576000828201526020016128bd565b5050506128df611c4e565b5a6128e861468f565b6040516001600160a01b039384168152919092166020820152604080820192909252606001905180910390a1506001949350505050565b603d611a526143c9565b600060336129356143c9565b906101000a90046001600160a01b03166001600160a01b03165a61295761455b565b6001600160a01b0316146129a95760405162461bcd60e51b815260206004820152600c60248201526b37b7363c9036b0b730b3b2b960a11b6044820152606401604051809103906129a661435e565b50505b600060376001816129b86143c9565b816001600160a01b0302191690836001600160a01b03160217906129da6145a1565b505050565b603b602052806000526040600020600091506129f96143c9565b906101000a900460ff1681565b6000612a1d838360200260040160ff1660206131e9565b9392505050565b603c611a526143c9565b6000806038612a3b6143c9565b906101000a90046001600160a01b03166001600160a01b031663cc435bf3836040516001600160e01b031960e084901b1681526001600160a01b0390911660048201526024016020604051808303818680612a94614424565b158015612aa957600080612aa661435e565b50505b505a612ab3614470565b5050505050158015612ad2573d6000803e3d6000612acf61435e565b50505b505050506040513d6020811015612af157600080612aee61435e565b50505b81019080805195945050505050565b6000603980612b0d6143c9565b91505090565b60006033612b1f6143c9565b906101000a90046001600160a01b03166001600160a01b03165a612b4161455b565b6001600160a01b031614612b935760405162461bcd60e51b815260206004820152600c60248201526b37b7363c9036b0b730b3b2b960a11b604482015260640160405180910390612b9061435e565b50505b603d612b9d6143c9565b5a612ba661468f565b1015612c015760405162461bcd60e51b815260206004820152601960248201527f66656520696e6372656173652064656c61792061637469766500000000000000604482015260640160405180910390612bfe61435e565b50505b612c1481603c612c0f6143c9565b613ec8565b600080603c612c216145a1565b5050506000603d8190612c326145a1565b50505050565b600080612c50848460200260040160ff1660206131e9565b9050612c61846004830160206131e9565b949350505050565b6060603580612c766143c9565b806020026020016040519081016040528181529190602083018280612c996143c9565b8015612ce657602002820191906000526020600020905b600082612cbb6143c9565b906101000a90046001600160a01b03166001600160a01b031681526020019060010190808311612cb0575b5050505050905090565b6000603580612b0d6143c9565b60006033612d096143c9565b906101000a90046001600160a01b03166001600160a01b03165a612d2b61455b565b6001600160a01b031614612d7d5760405162461bcd60e51b815260206004820152600c60248201526b37b7363c9036b0b730b3b2b960a11b604482015260640160405180910390612d7a61435e565b50505b806037600181612d8b6143c9565b816001600160a01b0302191690836001600160a01b0316021790612c326145a1565b60006033612db96143c9565b906101000a90046001600160a01b03166001600160a01b03165a612ddb61455b565b6001600160a01b031614612e2d5760405162461bcd60e51b815260206004820152600c60248201526b37b7363c9036b0b730b3b2b960a11b604482015260640160405180910390612e2a61435e565b50505b600080603c612e3a6145a1565b5050506000603d8190612e4b6145a1565b5050507fc6f04bf43cbdf1ba5d51b4afa160bb3c7e13858b1409aa32868b239bb2f8d84960405160405180910390a1565b6001600160a01b0381166000908152603660205260408120611b6d6143c9565b60006117ea8260006004611dd0565b60006038612eb76143c9565b906101000a90046001600160a01b031681565b60016000612ed66143c9565b906101000a900460ff1680612eee5750612eee61411b565b80612f0b5750600080612eff6143c9565b906101000a900460ff16155b612f4f5760405162461bcd60e51b815260040180806020018281038252602e8152602001806147dc602e913960400191505060405180910390612f4c61435e565b50505b6000600181612f5c6143c9565b906101000a900460ff161590508015612fc2576001600061010081612f7f6143c9565b8160ff02191690831515021790612f946145a1565b50505060016000806101000a81612fa96143c9565b8160ff02191690831515021790612fbe6145a1565b5050505b612fcc848461418c565b846038600181612fda6143c9565b816001600160a01b0302191690836001600160a01b0316021790612ffc6145a1565b50505060005b82518160ff1610156130355761302d838260ff168151811061302057fe5b6020026020010151613895565b600101613002565b508015613064576000806101008161304b6143c9565b8160ff021916908315150217906130606145a1565b5050505b5050505050565b603981816130776143c9565b811061307f57fe5b9060005260206000200160009150612eb76143c9565b600060336130a16143c9565b906101000a90046001600160a01b03166001600160a01b03165a6130c361455b565b6001600160a01b0316146131155760405162461bcd60e51b815260206004820152600c60248201526b37b7363c9036b0b730b3b2b960a11b60448201526064016040518091039061311261435e565b50505b61311e81612e7c565b1561312857611680565b61168081613e3c565b6000816001600160a01b03166370a082315a63996d79a5598160e01b8152602081600483336000905af158600e01573d6000803e3d6000fd5b3d6001141558600a015760016000f35b8051925060005b604081101561319857600082820152602001613181565b5050506040516001600160e01b031960e084901b1681526001600160a01b0390911660048201526024016020604051808303818680612a94614424565b60006117ea826131e484613131565b6118b0565b60008183018451101561324b5760405162461bcd60e51b815260206004820152601b60248201527f52656164696e67206279746573206f7574206f6620626f756e6473000000000060448201526064016040518091039061324861435e565b50505b826020018401519050816020038015611e515760080260020a90049392505050565b606060398061327a6143c9565b80602002602001604051908101604052818152919060208301828061329d6143c9565b8015612ce657602002820191906000526020600020905b6000826132bf6143c9565b906101000a90046001600160a01b03166001600160a01b0316815260200190600101908083116132b4575050505050905090565b600080603c6133006143c9565b603d61330a6143c9565b915091509091565b606080606060006039806133246143c9565b9050905060608167ffffffffffffffff8111801561334a5760008061334761435e565b50505b50604051908082528060200260200182016040528015613374578160200160208202803683370190505b50905060608267ffffffffffffffff811180156133995760008061339661435e565b50505b506040519080825280602002602001820160405280156133c3578160200160208202803683370190505b50905060608367ffffffffffffffff811180156133e8576000806133e561435e565b50505b50604051908082528060200260200182016040528015613412578160200160208202803683370190505b50905060005b848110156135915760006039828161342e6143c9565b811061343657fe5b9060005260206000200160009061344b6143c9565b906101000a90046001600160a01b0316905061346681613131565b84838151811061347257fe5b6020026020010181815250508085838151811061348b57fe5b6001600160a01b0390921660209283029190910190910152600060386134af6143c9565b906101000a90046001600160a01b03166001600160a01b031663b3596f07826040516001600160e01b031960e084901b1681526001600160a01b0390911660048201526024016020604051808303818680613508614424565b15801561351d5760008061351a61435e565b50505b505a613527614470565b5050505050158015613546573d6000803e3d600061354361435e565b50505b505050506040513d60208110156135655760008061356261435e565b50505b81019080805192508591508490508151811061357d57fe5b602090810291909101015250600101613418565b509195509350915050909192565b60606034806135ac6143c9565b600181600116156101000203166002900480601f0160208091040260200160405190810160405281815291906020830182806135e66143c9565b60018160011615610100020316600290048015612ce65780601f106136205761010080836136126143c9565b040283529160200191612ce6565b820191906000526020600020905b816136376143c9565b8152906001019060200180831161362e57509395945050505050565b60006039806136606143c9565b6001600160a01b0384166000908152603a602052909250905061369060016040832061368a6143c9565b906141d3565b9050600060396136a18460016141d3565b816136aa6143c9565b81106136b257fe5b906000526020600020016000906136c76143c9565b906101000a90046001600160a01b0316905080603983816136e66143c9565b81106136ee57fe5b906000526020600020016001816137036143c9565b816001600160a01b0302191690836001600160a01b03160217906137256145a1565b5061373591508390506001613ddd565b6001600160a01b0382166000908152603a6020526040902081906137576145a1565b5050506001600160a01b0384166000908152603a60205260408120819061377c6145a1565b50505060398061378a6143c9565b8061379157fe5b600190038181906000526020600020016001816137ac6143c9565b906001600160a01b03021916906137c16145a1565b5050906137cc6145a1565b50507f9b4f55639e5e283319baee5bc4e69a5625a8e3a1cc004af968f4fee7250220275a63996d79a5598160e01b8152602081600483336000905af158600e01573d6000803e3d6000fd5b3d6001141558600a015760016000f35b8051925060005b60408110156138455760008282015260200161382e565b505050613850611c4e565b8660405180846001600160a01b03168152602001836001600160a01b03168152602001826001600160a01b03168152602001935050505060405180910390a150505050565b600060386138a16143c9565b906101000a90046001600160a01b03166001600160a01b031663aa12ae4d6040518163ffffffff1660e01b815260040160206040518083038186806138e4614424565b1580156138f9576000806138f661435e565b50505b505a613903614470565b5050505050158015613922573d6000803e3d600061391f61435e565b50505b505050506040513d60208110156139415760008061393e61435e565b50505b8101908080519250603991508190506139586143c9565b9050106139ad5760405162461bcd60e51b81526020600482015260166024820152751b585e1a5b5d5b48185cdcd95d1cc81c995858da195960521b6044820152606401604051809103906139aa61435e565b50505b6139b681611b4d565b15613a105760405162461bcd60e51b815260206004820152601760248201527f617373657420616c726561647920737570706f72746564000000000000000000604482015260640160405180910390613a0d61435e565b50505b613a1981612a2e565b1515600114613a675760405162461bcd60e51b815260206004820152600d60248201526c1a5b9d985b1a5908185cdcd95d609a1b604482015260640160405180910390613a6461435e565b50505b80603980600181613a766143c9565b018082613a816145a1565b505060009283526000190191602091502001600181613a9e6143c9565b816001600160a01b0302191690836001600160a01b0316021790613ac06145a1565b505050603980613ace6143c9565b6001600160a01b0383166000908152603a602052909150604090208190613af36145a1565b5050507f0a7426a0630aad7dbc4d5ca5b7d9aac1133d77d2db987caaf4b4186c85d6593f5a63996d79a5598160e01b8152602081600483336000905af158600e01573d6000803e3d6000fd5b3d6001141558600a015760016000f35b8051925060005b6040811015613b6d57600082820152602001613b56565b505050613b78611c4e565b8360405180846001600160a01b03168152602001836001600160a01b03168152602001826001600160a01b03168152602001935050505060405180910390a150565b6000603580613bc76143c9565b6001600160a01b038416600090815260366020529092509050613bf160016040832061368a6143c9565b905060006035613c028460016141d3565b81613c0b6143c9565b8110613c1357fe5b90600052602060002001600090613c286143c9565b906101000a90046001600160a01b031690508060358381613c476143c9565b8110613c4f57fe5b90600052602060002001600181613c646143c9565b816001600160a01b0302191690836001600160a01b0316021790613c866145a1565b50613c9691508390506001613ddd565b6001600160a01b03821660009081526036602052604090208190613cb86145a1565b5050506001600160a01b03841660009081526036602052604081208190613cdd6145a1565b505050603580613ceb6143c9565b80613cf257fe5b60019003818190600052602060002001600181613d0d6143c9565b906001600160a01b0302191690613d226145a1565b505090613d2d6145a1565b505050505050565b600082613d44575060006117ea565b82820282848281613d5157fe5b0414612a1d5760405162461bcd60e51b81526004018080602001828103825260218152602001806147bb6021913960400191505060405180910390613d9461435e565b50509392505050565b6000612a1d838360405160408082019052601a81527f536166654d6174683a206469766973696f6e206279207a65726f0000000000006020820152614213565b600082820183811015612a1d5760405162461bcd60e51b815260206004820152601b60248201527f536166654d6174683a206164646974696f6e206f766572666c6f770000000000604482015260640160405180910390613d9461435e565b80603580600181613e4b6143c9565b018082613e566145a1565b505060009283526000190191602091502001600181613e736143c9565b816001600160a01b0302191690836001600160a01b0316021790613e956145a1565b505050603580613ea36143c9565b6001600160a01b03831660009081526036602052909150604090208190612c326145a1565b60006038613ed46143c9565b906101000a90046001600160a01b03166001600160a01b031663046b72c483836040516001600160e01b031960e085901b1681526001600160a01b039092166004830152602482015260440160006040518083038160008780613f35614424565b158015613f4a57600080613f4761435e565b50505b505a613f546146d5565b505050505050158015613f74573d6000803e3d6000613f7161435e565b50505b505050506000806038600090613f886143c9565b906101000a90046001600160a01b03166001600160a01b031663b7a54526856040516001600160e01b031960e084901b1681526001600160a01b03909116600482015260240160408051808303818680613fe0614424565b158015613ff557600080613ff261435e565b50505b505a613fff614470565b505050505015801561401e573d6000803e3d600061401b61435e565b50505b505050506040513d604081101561403d5760008061403a61435e565b50505b81019080805192919060200180519395509293507f1780c04ddc6f0b32d866c7a3d7583f53515ef49ed2126af868f804f491601266925050505a63996d79a5598160e01b8152602081600483336000905af158600e01573d6000803e3d6000fd5b3d6001141558600a015760016000f35b8051925060005b60408110156140cc576000828201526020016140b5565b5050506140d7611c4e565b848460405180856001600160a01b03168152602001846001600160a01b0316815260200183815260200182815260200194505050505060405180910390a150505050565b6000805a63996d79a5598160e01b8152602081600483336000905af158600e01573d6000803e3d6000fd5b3d6001141558600a015760016000f35b8051925060005b60408110156141745760008282015260200161415d565b5050509050600081614184614424565b159250505090565b81603360018161419a6143c9565b816001600160a01b0302191690836001600160a01b03160217906141bc6145a1565b5050508060349080516129da9291602001906145ef565b6000612a1d838360405160408082019052601e81527f536166654d6174683a207375627472616374696f6e206f766572666c6f77000060208201526142be565b600081836142a85760405162461bcd60e51b81526004018080602001828103825283818151815260200191508051906020019080838360005b8381101561426457808201518382015260200161424c565b50505050905090810190601f1680156142915780820380516001836020036101000a031916815260200191505b5092505050604051809103906142a561435e565b50505b5060008385816142b457fe5b0495945050505050565b600081848411156143565760405162461bcd60e51b81526004018080602001828103825283818151815260200191508051906020019080838360005b838110156143125780820151838201526020016142fa565b50505050905090810190601f16801561433f5780820380516001836020036101000a031916815260200191505b50925050506040518091039061435361435e565b50505b505050900390565b632a2a7adb598160e01b8152600481016020815285602082015260005b8681101561439657808601518282016040015260200161437b565b506020828760640184336000905af158600e01573d6000803e3d6000fd5b3d6001141558600a015760016000f35b505050565b6303daa959598160e01b8152836004820152602081602483336000905af158600e01573d6000803e3d6000fd5b3d6001141558600a015760016000f35b8051935060005b60408110156129da5760008282015260200161440d565b638435035b598160e01b8152836004820152602081602483336000905af158600e01573d6000803e3d6000fd5b3d6001141558600a015760016000f35b8051600082529350602061440d565b638540661f598160e01b81526144a1565b80808311156117ea575090919050565b80808310156117ea575090919050565b836004820152846024820152606060448201528660648201526084810160005b888110156144d95780880151828201526020016144c1565b506060828960a40184336000905af158600e01573d6000803e3d6000fd5b3d6001141558600a015760016000f35b815160408301513d6000853e8b8b82606087013350600060045af1505961452e8d3d614491565b8c0161453a8187614481565b5b8281101561454f576000815260200161453b565b50929c50505050505050565b6373509064598160e01b8152602081600483336000905af158600e01573d6000803e3d6000fd5b3d6001141558600a015760016000f35b8051600082529350602061440d565b6322bd64c0598160e01b8152836004820152846024820152600081604483336000905af158600e01573d6000803e3d6000fd5b3d6001141558600a015760016000f35b60008152602061440d565b82806145f96143c9565b600181600116156101000203166002900490600052602060002090601f016020900481019282601f1061464057805160ff191683800117856146396145a1565b505061467f565b8280016001018561464f6145a1565b5050821561467f579182015b8281111561467f5782518261466e6145a1565b50509160200191906001019061465b565b5061468b92915061479b565b5090565b63bdbf8c36598160e01b8152602081600483336000905af158600e01573d6000803e3d6000fd5b3d6001141558600a015760016000f35b8051600082529350602061440d565b6385979f76598160e01b8152836004820152846024820152606060448201528760648201526084810160005b89811015614719578089015182820152602001614701565b506060828a60a40184336000905af158600e01573d6000803e3d6000fd5b3d6001141558600a015760016000f35b815160408301513d6000853e8c8c82606087013350600060045af1505961476e8e3d614491565b8d0161477a8187614481565b5b8281101561478f576000815260200161477b565b50929d50505050505050565b8082111561468b57600080826147af6145a1565b50505060010161479b56fe536166654d6174683a206d756c7469706c69636174696f6e206f766572666c6f77436f6e747261637420696e7374616e63652068617320616c7265616479206265656e20696e697469616c697a6564",
  "deployedBytecode": "0x60806040523480156100195760008061001661435e565b50505b506004361061027d5760003560e01c80638f3234391161015a578063c45a0155116100cc578063d8af8ed411610090578063d8af8ed414611043578063db896b5714611072578063e5406dbf1461113e578063ed5b165d14611146578063f09d14d71461114e578063fed4416a146112345761027d565b8063c45a015514610e3a578063c688aa6414610e42578063c68dbb3714610fbf578063ca6d56dc14610fe5578063cd88e558146110145761027d565b80639eab52531161011e5780639eab525314610caa578063a30e3fa914610d05578063a6bc18f914610d0d578063b8bd81e614610d3c578063bbbf725b14610d44578063c3c6279f14610d735761027d565b80638f32343914610b705780639240d29914610b78578063936553c414610ba7578063969eed2714610baf578063998546e314610bde5761027d565b8063481c6a75116101f35780636f4d469b116101b75780636f4d469b146108c95780637ae7cfb51461098e5780637b4d0c6314610a655780637c8afd5114610a6d57806380dd4f6214610a7557806382f86acc14610aa45761027d565b8063481c6a7514610685578063522136631461068d578063568b5a2f146107645780635f6eceab1461084d5780636708f5d7146108945761027d565b80631eba3077116102455780631eba30771461041c57806329c07fba146104425780633c570d7d1461047757806341dc16c3146104a6578063464b41581461057d57806346ee84b0146105c05761027d565b8063064685871461028b578063093b8825146102bc57806309ff5c7d146102eb5780630b1ca49a146103c95780631758078b146103f8575b60008061028861435e565b50505b6102ba600480360360208110156102aa576000806102a761435e565b50505b50356001600160a01b03166112b3565b005b6102ba600480360360208110156102db576000806102d861435e565b50505b50356001600160a01b0316611683565b6103b76004803603604081101561030a5760008061030761435e565b50505b810190602081018135600160201b81111561032d5760008061032a61435e565b50505b8201836020820111156103485760008061034561435e565b50505b803590602001918460018302840111600160201b831117156103725760008061036f61435e565b50505b91908080601f01602080910402602001604051908101604052818152929190602084018383808284376000920191909152509295505050903560ff1691506117559050565b60405190815260200160405180910390f35b6102ba600480360360208110156103e8576000806103e561435e565b50505b50356001600160a01b03166117f0565b61040061188b565b6040516001600160a01b03909116815260200160405180910390f35b6104006004803603602081101561043b5760008061043861435e565b50505b50356118ad565b6103b7600480360360408110156104615760008061045e61435e565b50505b506001600160a01b0381351690602001356118b0565b6103b7600480360360208110156104965760008061049361435e565b50505b50356001600160a01b0316611a3a565b6103b7600480360360608110156104c5576000806104c261435e565b50505b810190602081018135600160201b8111156104e8576000806104e561435e565b50505b8201836020820111156105035760008061050061435e565b50505b803590602001918460018302840111600160201b8311171561052d5760008061052a61435e565b50505b91908080601f01602080910402602001604051908101604052818152929190602084018383808284376000920191909152509295505060ff8335811694506020909301359092169150611a559050565b6105ac6004803603602081101561059c5760008061059961435e565b50505b50356001600160a01b0316611b4d565b604051901515815260200160405180910390f35b6102ba600480360360208110156105df576000806105dc61435e565b50505b810190602081018135600160201b811115610602576000806105ff61435e565b50505b82018360208201111561061d5760008061061a61435e565b50505b803590602001918460208302840111600160201b831117156106475760008061064461435e565b50505b919080806020026020016040519081016040528093929190818152602001838360200280828437600092019190915250929550611b75945050505050565b610400611c4e565b6102ba600480360360408110156106ac576000806106a961435e565b50505b6001600160a01b038235169190810190604081016020820135600160201b8111156106df576000806106dc61435e565b50505b8201836020820111156106fa576000806106f761435e565b50505b803590602001918460018302840111600160201b831117156107245760008061072161435e565b50505b91908080601f0160208091040260200160405190810160405281815292919060208401838380828437600092019190915250929550611c5b945050505050565b610830600480360360608110156107835760008061078061435e565b50505b810190602081018135600160201b8111156107a6576000806107a361435e565b50505b8201836020820111156107c1576000806107be61435e565b50505b803590602001918460018302840111600160201b831117156107eb576000806107e861435e565b50505b91908080601f01602080910402602001604051908101604052818152929190602084018383808284376000920191909152509295505082359350505060200135611dd0565b6040516001600160e01b0319909116815260200160405180910390f35b61087c6004803603602081101561086c5760008061086961435e565b50505b50356001600160a01b0316611e59565b60405191825260208201526040908101905180910390f35b6102ba600480360360408110156108b3576000806108b061435e565b50505b506001600160a01b038135169060200135611f38565b6102ba600480360360208110156108e8576000806108e561435e565b50505b810190602081018135600160201b81111561090b5760008061090861435e565b50505b8201836020820111156109265760008061092361435e565b50505b803590602001918460208302840111600160201b831117156109505760008061094d61435e565b50505b919080806020026020016040519081016040528093929190818152602001838360200280828437600092019190915250929550612268945050505050565b6105ac600480360360408110156109ad576000806109aa61435e565b50505b6001600160a01b038235169190810190604081016020820135600160201b8111156109e0576000806109dd61435e565b50505b8201836020820111156109fb576000806109f861435e565b50505b803590602001918460018302840111600160201b83111715610a2557600080610a2261435e565b50505b91908080601f0160208091040260200160405190810160405281815292919060208401838380828437600092019190915250929550612331945050505050565b6103b761291f565b6102ba612929565b6105ac60048036036020811015610a9457600080610a9161435e565b50505b50356001600160a01b03166129df565b6103b760048036036040811015610ac357600080610ac061435e565b50505b810190602081018135600160201b811115610ae657600080610ae361435e565b50505b820183602082011115610b0157600080610afe61435e565b50505b803590602001918460018302840111600160201b83111715610b2b57600080610b2861435e565b50505b91908080601f01602080910402602001604051908101604052818152929190602084018383808284376000920191909152509295505050903560ff169150612a069050565b6103b7612a24565b6105ac60048036036020811015610b9757600080610b9461435e565b50505b50356001600160a01b0316612a2e565b6103b7612b00565b6102ba60048036036020811015610bce57600080610bcb61435e565b50505b50356001600160a01b0316612b13565b6103b760048036036040811015610bfd57600080610bfa61435e565b50505b810190602081018135600160201b811115610c2057600080610c1d61435e565b50505b820183602082011115610c3b57600080610c3861435e565b50505b803590602001918460018302840111600160201b83111715610c6557600080610c6261435e565b50505b91908080601f01602080910402602001604051908101604052818152929190602084018383808284376000920191909152509295505050903560ff169150612c389050565b610cb2612c69565b60405160208082528190810183818151815260200191508051906020019060200280838360005b83811015610cf1578082015183820152602001610cd9565b505050509050019250505060405180910390f35b6103b7612cf0565b6102ba60048036036020811015610d2c57600080610d2961435e565b50505b50356001600160a01b0316612cfd565b6102ba612dad565b6105ac60048036036020811015610d6357600080610d6061435e565b50505b50356001600160a01b0316612e7c565b61083060048036036020811015610d9257600080610d8f61435e565b50505b810190602081018135600160201b811115610db557600080610db261435e565b50505b820183602082011115610dd057600080610dcd61435e565b50505b803590602001918460018302840111600160201b83111715610dfa57600080610df761435e565b50505b91908080601f0160208091040260200160405190810160405281815292919060208401838380828437600092019190915250929550612e9c945050505050565b610400612eab565b6102ba60048036036080811015610e6157600080610e5e61435e565b50505b6001600160a01b038235811692602081013590911691810190606081016040820135600160201b811115610e9d57600080610e9a61435e565b50505b820183602082011115610eb857600080610eb561435e565b50505b803590602001918460018302840111600160201b83111715610ee257600080610edf61435e565b50505b91908080601f01602080910402602001604051908101604052818152929190602084018383808284376000920191909152509295949360208101935035915050600160201b811115610f3c57600080610f3961435e565b50505b820183602082011115610f5757600080610f5461435e565b50505b803590602001918460208302840111600160201b83111715610f8157600080610f7e61435e565b50505b919080806020026020016040519081016040528093929190818152602001838360200280828437600092019190915250929550612eca945050505050565b61040060048036036020811015610fde57600080610fdb61435e565b50505b503561306b565b6102ba600480360360208110156110045760008061100161435e565b50505b50356001600160a01b0316613095565b6103b7600480360360208110156110335760008061103061435e565b50505b50356001600160a01b0316613131565b6103b7600480360360208110156110625760008061105f61435e565b50505b50356001600160a01b03166131d5565b6103b7600480360360608110156110915760008061108e61435e565b50505b810190602081018135600160201b8111156110b4576000806110b161435e565b50505b8201836020820111156110cf576000806110cc61435e565b50505b803590602001918460018302840111600160201b831117156110f9576000806110f661435e565b50505b91908080601f016020809104026020016040519081016040528181529291906020840183838082843760009201919091525092955050823593505050602001356131e9565b610cb261326d565b61087c6132f3565b611156613312565b60405180806020018060200180602001848103845287818151815260200191508051906020019060200280838360005b8381101561119e578082015183820152602001611186565b50505050905001848103835286818151815260200191508051906020019060200280838360005b838110156111dd5780820151838201526020016111c5565b50505050905001848103825285818151815260200191508051906020019060200280838360005b8381101561121c578082015183820152602001611204565b50505050905001965050505050505060405180910390f35b61123c61359f565b60405160208082528190810183818151815260200191508051906020019080838360005b83811015611278578082015183820152602001611260565b50505050905090810190601f1680156112a55780820380516001836020036101000a031916815260200191505b509250505060405180910390f35b600060386112bf6143c9565b906101000a90046001600160a01b03166001600160a01b0316638da5cb5b6040518163ffffffff1660e01b81526004016020604051808303818680611302614424565b1580156113175760008061131461435e565b50505b505a611321614470565b5050505050158015611340573d6000803e3d600061133d61435e565b50505b505050506040513d602081101561135f5760008061135c61435e565b50505b8101908080516001600160a01b0316925050505a61137b61455b565b6001600160a01b031614806113b05750611393611c4e565b6001600160a01b03165a6113a561455b565b6001600160a01b0316145b806113db57506113be61188b565b6001600160a01b03165a6113d061455b565b6001600160a01b0316145b6114345760405162461bcd60e51b815260206004820152601b60248201527f6f6e6c79206d616e616765722c20747261646572206f722044414f000000000060448201526064016040518091039061143161435e565b50505b61143d81611b4d565b61148c5760405162461bcd60e51b8152602060048201526013602482015272185cdcd95d081b9bdd081cdd5c1c1bdc9d1959606a1b60448201526064016040518091039061148961435e565b50505b6001600160a01b0381166000908152603b602052604090206000906114af6143c9565b906101000a900460ff16156115135760405162461bcd60e51b815260206004820152601f60248201527f63616e6e6f742072656d6f76652070657273697374656e74206173736574730060448201526064016040518091039061151061435e565b50505b806001600160a01b03166370a082315a63996d79a5598160e01b8152602081600483336000905af158601d01573d60011458600c01573d6000803e3d621234565260ea61109c528051925060005b604081101561157857600082820152602001611561565b5050506040516001600160e01b031960e084901b1681526001600160a01b03909116600482015260240160206040518083038186806115b5614424565b1580156115ca576000806115c761435e565b50505b505a6115d4614470565b50505050501580156115f3573d6000803e3d60006115f061435e565b50505b505050506040513d60208110156116125760008061160f61435e565b50505b8101908080511592506116779150505760405162461bcd60e51b815260206004820152601d60248201527f63616e6e6f742072656d6f7665206e6f6e2d656d70747920617373657400000060448201526064016040518091039061167461435e565b50505b61168081613653565b50565b6000603361168f6143c9565b906101000a90046001600160a01b03166001600160a01b03165a6116b161455b565b6001600160a01b031614806116fa5750600060376116cd6143c9565b906101000a90046001600160a01b03166001600160a01b03165a6116ef61455b565b6001600160a01b0316145b61174c5760405162461bcd60e51b815260206004820152601660248201527537b7363c9036b0b730b3b2b91037b9103a3930b232b960511b60448201526064016040518091039061174961435e565b50505b61168081613895565b60008061176d848460200260040160ff1660206131e9565b90506000611780856004840160206131e9565b9050806117d15760405162461bcd60e51b8152602060048201526012602482015271696e707574206973206e6f7420617272617960701b6044820152606401604051809103906117ce61435e565b50505b6117e58560208084028501600401906131e9565b925050505b92915050565b600060336117fc6143c9565b906101000a90046001600160a01b03166001600160a01b03165a61181e61455b565b6001600160a01b0316146118705760405162461bcd60e51b815260206004820152600c60248201526b37b7363c9036b0b730b3b2b960a11b60448201526064016040518091039061186d61435e565b50505b61187981612e7c565b61188257611680565b61168081613bba565b60008060376118986143c9565b906101000a90046001600160a01b0316905090565b90565b6000808060386118be6143c9565b906101000a90046001600160a01b03166001600160a01b031663b3596f07856040516001600160e01b031960e084901b1681526001600160a01b0390911660048201526024016020604051808303818680611917614424565b15801561192c5760008061192961435e565b50505b505a611936614470565b5050505050158015611955573d6000803e3d600061195261435e565b50505b505050506040513d60208110156119745760008061197161435e565b50505b81019080805193506000925050506001600160a01b03851663313ce5676040518163ffffffff1660e01b815260040160206040518083038186806119b6614424565b1580156119cb576000806119c861435e565b50505b505a6119d5614470565b50505050501580156119f4573d6000803e3d60006119f161435e565b50505b505050506040513d6020811015611a1357600080611a1061435e565b50505b81019080805160ff1693506117e592505050600a82900a611a348487613d35565b90613d9d565b603a6020528060005260406000209050611a526143c9565b81565b600080611a6d858560200260040160ff1660206131e9565b90506000611a80866004840160206131e9565b905080611ad15760405162461bcd60e51b8152602060048201526012602482015271696e707574206973206e6f7420617272617960701b604482015260640160405180910390611ace61435e565b50505b60ff84168111611b295760405162461bcd60e51b815260206004820152601660248201527534b73b30b634b21030b93930bc903837b9b4ba34b7b760511b604482015260640160405180910390611b2661435e565b50505b611b43866020600160ff88160181028501600401906131e9565b9695505050505050565b6001600160a01b0381166000908152603a60205260408120611b6d6143c9565b151592915050565b60006033611b816143c9565b906101000a90046001600160a01b03166001600160a01b03165a611ba361455b565b6001600160a01b031614611bf55760405162461bcd60e51b815260206004820152600c60248201526b37b7363c9036b0b730b3b2b960a11b604482015260640160405180910390611bf261435e565b50505b60005b8151811015611c4a57611c1d828281518110611c1057fe5b6020026020010151612e7c565b611c2657611c42565b611c42828281518110611c3557fe5b6020026020010151613bba565b600101611bf8565b5050565b60008060336118986143c9565b60006033611c676143c9565b906101000a90046001600160a01b03166001600160a01b03165a611c8961455b565b6001600160a01b031614611cdb5760405162461bcd60e51b815260206004820152600c60248201526b37b7363c9036b0b730b3b2b960a11b604482015260640160405180910390611cd861435e565b50505b816033600181611ce96143c9565b816001600160a01b0302191690836001600160a01b0316021790611d0b6145a1565b505050806034908051611d229291602001906145ef565b507f6ed15082ad038474841528b5badca105106d4463e44b5d434130dfb299aa366982826040516001600160a01b038316815260406020820181815290820183818151815260200191508051906020019080838360005b83811015611d91578082015183820152602001611d79565b50505050905090810190601f168015611dbe5780820380516001836020036101000a031916815260200191505b50935050505060405180910390a15050565b600081830184511015611e325760405162461bcd60e51b815260206004820152601b60248201527f52656164696e67206279746573206f7574206f6620626f756e64730000000000604482015260640160405180910390611e2f61435e565b50505b826020018401519050816004038015611e51576008810260020a820491505b509392505050565b600080806038611e676143c9565b906101000a90046001600160a01b03166001600160a01b031663b7a54526846040516001600160e01b031960e084901b1681526001600160a01b03909116600482015260240160408051808303818680611ebf614424565b158015611ed457600080611ed161435e565b50505b505a611ede614470565b5050505050158015611efd573d6000803e3d6000611efa61435e565b50505b505050506040513d6040811015611f1c57600080611f1961435e565b50505b8101908080519291906020018051939550929350505050915091565b60006033611f446143c9565b906101000a90046001600160a01b03166001600160a01b03165a611f6661455b565b6001600160a01b031614611fb85760405162461bcd60e51b815260206004820152600c60248201526b37b7363c9036b0b730b3b2b960a11b604482015260640160405180910390611fb561435e565b50505b6000806038611fc56143c9565b906101000a90046001600160a01b03166001600160a01b0316635c9bfc2b6040518163ffffffff1660e01b81526004016020604051808303818680612008614424565b15801561201d5760008061201a61435e565b50505b505a612027614470565b5050505050158015612046573d6000803e3d600061204361435e565b50505b505050506040513d60208110156120655760008061206261435e565b50505b81019080805193506000925082915061207f905085611e59565b9092509050808411156120d45760405162461bcd60e51b815260206004820152601060248201526f34b73b30b634b210333930b1ba34b7b760811b6044820152606401604051809103906120d161435e565b50505b6120de8284613ddd565b84111561213a5760405162461bcd60e51b815260206004820152601960248201527f657863656564656420616c6c6f77656420696e6372656173650000000000000060448201526064016040518091039061213761435e565b50505b60008060386121476143c9565b906101000a90046001600160a01b03166001600160a01b031663ebee461d6040518163ffffffff1660e01b8152600401602060405180830381868061218a614424565b15801561219f5760008061219c61435e565b50505b505a6121a9614470565b50505050501580156121c8573d6000803e3d60006121c561435e565b50505b505050506040513d60208110156121e7576000806121e461435e565b50505b8101908080519350879250829150603c90506122016145a1565b505050805a61220e61468f565b0180603d61221a6145a1565b5050507f4db9119741646c419f1ceccdf112b5b9a9b4516355e742e1fa9c479f4dec98da85603d6122496143c9565b60405191825260208201526040908101905180910390a1505050505050565b600060336122746143c9565b906101000a90046001600160a01b03166001600160a01b03165a61229661455b565b6001600160a01b0316146122e85760405162461bcd60e51b815260206004820152600c60248201526b37b7363c9036b0b730b3b2b960a11b6044820152606401604051809103906122e561435e565b50505b60005b8151811015611c4a57612303828281518110611c1057fe5b1561230d57612329565b61232982828151811061231c57fe5b6020026020010151613e3c565b6001016122eb565b600080603361233e6143c9565b906101000a90046001600160a01b03166001600160a01b03165a61236061455b565b6001600160a01b031614806123a957506000603761237c6143c9565b906101000a90046001600160a01b03166001600160a01b03165a61239e61455b565b6001600160a01b0316145b6123fb5760405162461bcd60e51b815260206004820152601660248201527537b7363c9036b0b730b3b2b91037b9103a3930b232b960511b6044820152606401604051809103906123f861435e565b50505b6001600160a01b03831661245e5760405162461bcd60e51b815260206004820152601c60248201527f6e6f6e2d7a65726f20616464726573732069732072657175697265640000000060448201526064016040518091039061245b61435e565b50505b600080603861246b6143c9565b906101000a90046001600160a01b03166001600160a01b0316637027ea6c856040516001600160e01b031960e084901b1681526001600160a01b03909116600482015260240160206040518083038186806124c4614424565b1580156124d9576000806124d661435e565b50505b505a6124e3614470565b5050505050158015612502573d6000803e3d60006124ff61435e565b50505b505050506040513d60208110156125215760008061251e61435e565b50505b81019080805193505050506001600160a01b0381166125855760405162461bcd60e51b815260206004820152601360248201527234b73b30b634b2103232b9ba34b730ba34b7b760691b60448201526064016040518091039061258261435e565b50505b806001600160a01b031663e23ff4375a63996d79a5598160e01b8152602081600483336000905af158601d01573d60011458600c01573d6000803e3d621234565260ea61109c528051925060005b60408110156125ea576000828201526020016125d3565b505050856040518363ffffffff1660e01b815260040180836001600160a01b0316815260200180602001828103825283818151815260200191508051906020019080838360005b83811015612649578082015183820152602001612631565b50505050905090810190601f1680156126765780820380516001836020036101000a031916815260200191505b50935050505060206040518083038160008780612691614424565b1580156126a6576000806126a361435e565b50505b505a6126b06146d5565b5050505050501580156126d0573d6000803e3d60006126cd61435e565b50505b505050506040513d60208110156126ef576000806126ec61435e565b50505b81019080805192506127499150505760405162461bcd60e51b815260206004820152601360248201527234b73b30b634b2103a3930b739b0b1ba34b7b760691b60448201526064016040518091039061274661435e565b50505b6000846001600160a01b0316846040518082805190602001908083835b602083106127855780518252601f199092019160209182019101612766565b6001836020036101000a0380198251168184511680821785525050505050509050019150506000604051808303816000865a6127bf6146d5565b5050505050509150503d80600081146127f4576040513d603f01601f191681016040523d815291503d6000602084013e6127f9565b606091505b509091505060018115151461285d5760405162461bcd60e51b815260206004820152601a60248201527f6661696c656420746f2065786563757465207468652063616c6c00000000000060448201526064016040518091039061285a61435e565b50505b7f508f3afa87f72dce865a2321107666b28ac822c23a8c0555fbeb3424cf3de5635a63996d79a5598160e01b8152602081600483336000905af158601d01573d60011458600c01573d6000803e3d621234565260ea61109c528051925060005b60408110156128d4576000828201526020016128bd565b5050506128df611c4e565b5a6128e861468f565b6040516001600160a01b039384168152919092166020820152604080820192909252606001905180910390a1506001949350505050565b603d611a526143c9565b600060336129356143c9565b906101000a90046001600160a01b03166001600160a01b03165a61295761455b565b6001600160a01b0316146129a95760405162461bcd60e51b815260206004820152600c60248201526b37b7363c9036b0b730b3b2b960a11b6044820152606401604051809103906129a661435e565b50505b600060376001816129b86143c9565b816001600160a01b0302191690836001600160a01b03160217906129da6145a1565b505050565b603b602052806000526040600020600091506129f96143c9565b906101000a900460ff1681565b6000612a1d838360200260040160ff1660206131e9565b9392505050565b603c611a526143c9565b6000806038612a3b6143c9565b906101000a90046001600160a01b03166001600160a01b031663cc435bf3836040516001600160e01b031960e084901b1681526001600160a01b0390911660048201526024016020604051808303818680612a94614424565b158015612aa957600080612aa661435e565b50505b505a612ab3614470565b5050505050158015612ad2573d6000803e3d6000612acf61435e565b50505b505050506040513d6020811015612af157600080612aee61435e565b50505b81019080805195945050505050565b6000603980612b0d6143c9565b91505090565b60006033612b1f6143c9565b906101000a90046001600160a01b03166001600160a01b03165a612b4161455b565b6001600160a01b031614612b935760405162461bcd60e51b815260206004820152600c60248201526b37b7363c9036b0b730b3b2b960a11b604482015260640160405180910390612b9061435e565b50505b603d612b9d6143c9565b5a612ba661468f565b1015612c015760405162461bcd60e51b815260206004820152601960248201527f66656520696e6372656173652064656c61792061637469766500000000000000604482015260640160405180910390612bfe61435e565b50505b612c1481603c612c0f6143c9565b613ec8565b600080603c612c216145a1565b5050506000603d8190612c326145a1565b50505050565b600080612c50848460200260040160ff1660206131e9565b9050612c61846004830160206131e9565b949350505050565b6060603580612c766143c9565b806020026020016040519081016040528181529190602083018280612c996143c9565b8015612ce657602002820191906000526020600020905b600082612cbb6143c9565b906101000a90046001600160a01b03166001600160a01b031681526020019060010190808311612cb0575b5050505050905090565b6000603580612b0d6143c9565b60006033612d096143c9565b906101000a90046001600160a01b03166001600160a01b03165a612d2b61455b565b6001600160a01b031614612d7d5760405162461bcd60e51b815260206004820152600c60248201526b37b7363c9036b0b730b3b2b960a11b604482015260640160405180910390612d7a61435e565b50505b806037600181612d8b6143c9565b816001600160a01b0302191690836001600160a01b0316021790612c326145a1565b60006033612db96143c9565b906101000a90046001600160a01b03166001600160a01b03165a612ddb61455b565b6001600160a01b031614612e2d5760405162461bcd60e51b815260206004820152600c60248201526b37b7363c9036b0b730b3b2b960a11b604482015260640160405180910390612e2a61435e565b50505b600080603c612e3a6145a1565b5050506000603d8190612e4b6145a1565b5050507fc6f04bf43cbdf1ba5d51b4afa160bb3c7e13858b1409aa32868b239bb2f8d84960405160405180910390a1565b6001600160a01b0381166000908152603660205260408120611b6d6143c9565b60006117ea8260006004611dd0565b60006038612eb76143c9565b906101000a90046001600160a01b031681565b60016000612ed66143c9565b906101000a900460ff1680612eee5750612eee61411b565b80612f0b5750600080612eff6143c9565b906101000a900460ff16155b612f4f5760405162461bcd60e51b815260040180806020018281038252602e8152602001806147dc602e913960400191505060405180910390612f4c61435e565b50505b6000600181612f5c6143c9565b906101000a900460ff161590508015612fc2576001600061010081612f7f6143c9565b8160ff02191690831515021790612f946145a1565b50505060016000806101000a81612fa96143c9565b8160ff02191690831515021790612fbe6145a1565b5050505b612fcc848461418c565b846038600181612fda6143c9565b816001600160a01b0302191690836001600160a01b0316021790612ffc6145a1565b50505060005b82518160ff1610156130355761302d838260ff168151811061302057fe5b6020026020010151613895565b600101613002565b508015613064576000806101008161304b6143c9565b8160ff021916908315150217906130606145a1565b5050505b5050505050565b603981816130776143c9565b811061307f57fe5b9060005260206000200160009150612eb76143c9565b600060336130a16143c9565b906101000a90046001600160a01b03166001600160a01b03165a6130c361455b565b6001600160a01b0316146131155760405162461bcd60e51b815260206004820152600c60248201526b37b7363c9036b0b730b3b2b960a11b60448201526064016040518091039061311261435e565b50505b61311e81612e7c565b1561312857611680565b61168081613e3c565b6000816001600160a01b03166370a082315a63996d79a5598160e01b8152602081600483336000905af158601d01573d60011458600c01573d6000803e3d621234565260ea61109c528051925060005b604081101561319857600082820152602001613181565b5050506040516001600160e01b031960e084901b1681526001600160a01b0390911660048201526024016020604051808303818680612a94614424565b60006117ea826131e484613131565b6118b0565b60008183018451101561324b5760405162461bcd60e51b815260206004820152601b60248201527f52656164696e67206279746573206f7574206f6620626f756e6473000000000060448201526064016040518091039061324861435e565b50505b826020018401519050816020038015611e515760080260020a90049392505050565b606060398061327a6143c9565b80602002602001604051908101604052818152919060208301828061329d6143c9565b8015612ce657602002820191906000526020600020905b6000826132bf6143c9565b906101000a90046001600160a01b03166001600160a01b0316815260200190600101908083116132b4575050505050905090565b600080603c6133006143c9565b603d61330a6143c9565b915091509091565b606080606060006039806133246143c9565b9050905060608167ffffffffffffffff8111801561334a5760008061334761435e565b50505b50604051908082528060200260200182016040528015613374578160200160208202803683370190505b50905060608267ffffffffffffffff811180156133995760008061339661435e565b50505b506040519080825280602002602001820160405280156133c3578160200160208202803683370190505b50905060608367ffffffffffffffff811180156133e8576000806133e561435e565b50505b50604051908082528060200260200182016040528015613412578160200160208202803683370190505b50905060005b848110156135915760006039828161342e6143c9565b811061343657fe5b9060005260206000200160009061344b6143c9565b906101000a90046001600160a01b0316905061346681613131565b84838151811061347257fe5b6020026020010181815250508085838151811061348b57fe5b6001600160a01b0390921660209283029190910190910152600060386134af6143c9565b906101000a90046001600160a01b03166001600160a01b031663b3596f07826040516001600160e01b031960e084901b1681526001600160a01b0390911660048201526024016020604051808303818680613508614424565b15801561351d5760008061351a61435e565b50505b505a613527614470565b5050505050158015613546573d6000803e3d600061354361435e565b50505b505050506040513d60208110156135655760008061356261435e565b50505b81019080805192508591508490508151811061357d57fe5b602090810291909101015250600101613418565b509195509350915050909192565b60606034806135ac6143c9565b600181600116156101000203166002900480601f0160208091040260200160405190810160405281815291906020830182806135e66143c9565b60018160011615610100020316600290048015612ce65780601f106136205761010080836136126143c9565b040283529160200191612ce6565b820191906000526020600020905b816136376143c9565b8152906001019060200180831161362e57509395945050505050565b60006039806136606143c9565b6001600160a01b0384166000908152603a602052909250905061369060016040832061368a6143c9565b906141d3565b9050600060396136a18460016141d3565b816136aa6143c9565b81106136b257fe5b906000526020600020016000906136c76143c9565b906101000a90046001600160a01b0316905080603983816136e66143c9565b81106136ee57fe5b906000526020600020016001816137036143c9565b816001600160a01b0302191690836001600160a01b03160217906137256145a1565b5061373591508390506001613ddd565b6001600160a01b0382166000908152603a6020526040902081906137576145a1565b5050506001600160a01b0384166000908152603a60205260408120819061377c6145a1565b50505060398061378a6143c9565b8061379157fe5b600190038181906000526020600020016001816137ac6143c9565b906001600160a01b03021916906137c16145a1565b5050906137cc6145a1565b50507f9b4f55639e5e283319baee5bc4e69a5625a8e3a1cc004af968f4fee7250220275a63996d79a5598160e01b8152602081600483336000905af158601d01573d60011458600c01573d6000803e3d621234565260ea61109c528051925060005b60408110156138455760008282015260200161382e565b505050613850611c4e565b8660405180846001600160a01b03168152602001836001600160a01b03168152602001826001600160a01b03168152602001935050505060405180910390a150505050565b600060386138a16143c9565b906101000a90046001600160a01b03166001600160a01b031663aa12ae4d6040518163ffffffff1660e01b815260040160206040518083038186806138e4614424565b1580156138f9576000806138f661435e565b50505b505a613903614470565b5050505050158015613922573d6000803e3d600061391f61435e565b50505b505050506040513d60208110156139415760008061393e61435e565b50505b8101908080519250603991508190506139586143c9565b9050106139ad5760405162461bcd60e51b81526020600482015260166024820152751b585e1a5b5d5b48185cdcd95d1cc81c995858da195960521b6044820152606401604051809103906139aa61435e565b50505b6139b681611b4d565b15613a105760405162461bcd60e51b815260206004820152601760248201527f617373657420616c726561647920737570706f72746564000000000000000000604482015260640160405180910390613a0d61435e565b50505b613a1981612a2e565b1515600114613a675760405162461bcd60e51b815260206004820152600d60248201526c1a5b9d985b1a5908185cdcd95d609a1b604482015260640160405180910390613a6461435e565b50505b80603980600181613a766143c9565b018082613a816145a1565b505060009283526000190191602091502001600181613a9e6143c9565b816001600160a01b0302191690836001600160a01b0316021790613ac06145a1565b505050603980613ace6143c9565b6001600160a01b0383166000908152603a602052909150604090208190613af36145a1565b5050507f0a7426a0630aad7dbc4d5ca5b7d9aac1133d77d2db987caaf4b4186c85d6593f5a63996d79a5598160e01b8152602081600483336000905af158601d01573d60011458600c01573d6000803e3d621234565260ea61109c528051925060005b6040811015613b6d57600082820152602001613b56565b505050613b78611c4e565b8360405180846001600160a01b03168152602001836001600160a01b03168152602001826001600160a01b03168152602001935050505060405180910390a150565b6000603580613bc76143c9565b6001600160a01b038416600090815260366020529092509050613bf160016040832061368a6143c9565b905060006035613c028460016141d3565b81613c0b6143c9565b8110613c1357fe5b90600052602060002001600090613c286143c9565b906101000a90046001600160a01b031690508060358381613c476143c9565b8110613c4f57fe5b90600052602060002001600181613c646143c9565b816001600160a01b0302191690836001600160a01b0316021790613c866145a1565b50613c9691508390506001613ddd565b6001600160a01b03821660009081526036602052604090208190613cb86145a1565b5050506001600160a01b03841660009081526036602052604081208190613cdd6145a1565b505050603580613ceb6143c9565b80613cf257fe5b60019003818190600052602060002001600181613d0d6143c9565b906001600160a01b0302191690613d226145a1565b505090613d2d6145a1565b505050505050565b600082613d44575060006117ea565b82820282848281613d5157fe5b0414612a1d5760405162461bcd60e51b81526004018080602001828103825260218152602001806147bb6021913960400191505060405180910390613d9461435e565b50509392505050565b6000612a1d838360405160408082019052601a81527f536166654d6174683a206469766973696f6e206279207a65726f0000000000006020820152614213565b600082820183811015612a1d5760405162461bcd60e51b815260206004820152601b60248201527f536166654d6174683a206164646974696f6e206f766572666c6f770000000000604482015260640160405180910390613d9461435e565b80603580600181613e4b6143c9565b018082613e566145a1565b505060009283526000190191602091502001600181613e736143c9565b816001600160a01b0302191690836001600160a01b0316021790613e956145a1565b505050603580613ea36143c9565b6001600160a01b03831660009081526036602052909150604090208190612c326145a1565b60006038613ed46143c9565b906101000a90046001600160a01b03166001600160a01b031663046b72c483836040516001600160e01b031960e085901b1681526001600160a01b039092166004830152602482015260440160006040518083038160008780613f35614424565b158015613f4a57600080613f4761435e565b50505b505a613f546146d5565b505050505050158015613f74573d6000803e3d6000613f7161435e565b50505b505050506000806038600090613f886143c9565b906101000a90046001600160a01b03166001600160a01b031663b7a54526856040516001600160e01b031960e084901b1681526001600160a01b03909116600482015260240160408051808303818680613fe0614424565b158015613ff557600080613ff261435e565b50505b505a613fff614470565b505050505015801561401e573d6000803e3d600061401b61435e565b50505b505050506040513d604081101561403d5760008061403a61435e565b50505b81019080805192919060200180519395509293507f1780c04ddc6f0b32d866c7a3d7583f53515ef49ed2126af868f804f491601266925050505a63996d79a5598160e01b8152602081600483336000905af158601d01573d60011458600c01573d6000803e3d621234565260ea61109c528051925060005b60408110156140cc576000828201526020016140b5565b5050506140d7611c4e565b848460405180856001600160a01b03168152602001846001600160a01b0316815260200183815260200182815260200194505050505060405180910390a150505050565b6000805a63996d79a5598160e01b8152602081600483336000905af158601d01573d60011458600c01573d6000803e3d621234565260ea61109c528051925060005b60408110156141745760008282015260200161415d565b5050509050600081614184614424565b159250505090565b81603360018161419a6143c9565b816001600160a01b0302191690836001600160a01b03160217906141bc6145a1565b5050508060349080516129da9291602001906145ef565b6000612a1d838360405160408082019052601e81527f536166654d6174683a207375627472616374696f6e206f766572666c6f77000060208201526142be565b600081836142a85760405162461bcd60e51b81526004018080602001828103825283818151815260200191508051906020019080838360005b8381101561426457808201518382015260200161424c565b50505050905090810190601f1680156142915780820380516001836020036101000a031916815260200191505b5092505050604051809103906142a561435e565b50505b5060008385816142b457fe5b0495945050505050565b600081848411156143565760405162461bcd60e51b81526004018080602001828103825283818151815260200191508051906020019080838360005b838110156143125780820151838201526020016142fa565b50505050905090810190601f16801561433f5780820380516001836020036101000a031916815260200191505b50925050506040518091039061435361435e565b50505b505050900390565b632a2a7adb598160e01b8152600481016020815285602082015260005b8681101561439657808601518282016040015260200161437b565b506020828760640184336000905af158601d01573d60011458600c01573d6000803e3d621234565260ea61109c52505050565b6303daa959598160e01b8152836004820152602081602483336000905af158601d01573d60011458600c01573d6000803e3d621234565260ea61109c528051935060005b60408110156129da5760008282015260200161440d565b638435035b598160e01b8152836004820152602081602483336000905af158601d01573d60011458600c01573d6000803e3d621234565260ea61109c528051600082529350602061440d565b638540661f598160e01b81526144a1565b80808311156117ea575090919050565b80808310156117ea575090919050565b836004820152846024820152606060448201528660648201526084810160005b888110156144d95780880151828201526020016144c1565b506060828960a40184336000905af158601d01573d60011458600c01573d6000803e3d621234565260ea61109c52815160408301513d6000853e8b8b82606087013350600060045af1505961452e8d3d614491565b8c0161453a8187614481565b5b8281101561454f576000815260200161453b565b50929c50505050505050565b6373509064598160e01b8152602081600483336000905af158601d01573d60011458600c01573d6000803e3d621234565260ea61109c528051600082529350602061440d565b6322bd64c0598160e01b8152836004820152846024820152600081604483336000905af158601d01573d60011458600c01573d6000803e3d621234565260ea61109c5260008152602061440d565b82806145f96143c9565b600181600116156101000203166002900490600052602060002090601f016020900481019282601f1061464057805160ff191683800117856146396145a1565b505061467f565b8280016001018561464f6145a1565b5050821561467f579182015b8281111561467f5782518261466e6145a1565b50509160200191906001019061465b565b5061468b92915061479b565b5090565b63bdbf8c36598160e01b8152602081600483336000905af158601d01573d60011458600c01573d6000803e3d621234565260ea61109c528051600082529350602061440d565b6385979f76598160e01b8152836004820152846024820152606060448201528760648201526084810160005b89811015614719578089015182820152602001614701565b506060828a60a40184336000905af158601d01573d60011458600c01573d6000803e3d621234565260ea61109c52815160408301513d6000853e8c8c82606087013350600060045af1505961476e8e3d614491565b8d0161477a8187614481565b5b8281101561478f576000815260200161477b565b50929d50505050505050565b8082111561468b57600080826147af6145a1565b50505060010161479b56fe536166654d6174683a206d756c7469706c69636174696f6e206f766572666c6f77436f6e747261637420696e7374616e63652068617320616c7265616479206265656e20696e697469616c697a6564",
  "linkReferences": {},
  "deployedLinkReferences": {}
}