{
  "_format": "hh-sol-artifact-1",
  "contractName": "PoolManagerLogic",
  "sourceName": "contracts/PoolManagerLogic.sol",
  "abi": [
    {
      "anonymous": false,
      "inputs": [
        {
          "indexed": false,
          "internalType": "address",
          "name": "fundAddress",
          "type": "address"
        },
        {
          "indexed": false,
          "internalType": "address",
          "name": "manager",
          "type": "address"
        },
        {
          "indexed": false,
          "internalType": "address",
          "name": "asset",
          "type": "address"
        }
      ],
      "name": "AssetAdded",
      "type": "event"
    },
    {
      "anonymous": false,
      "inputs": [
        {
          "indexed": false,
          "internalType": "address",
          "name": "fundAddress",
          "type": "address"
        },
        {
          "indexed": false,
          "internalType": "address",
          "name": "manager",
          "type": "address"
        },
        {
          "indexed": false,
          "internalType": "address",
          "name": "asset",
          "type": "address"
        }
      ],
      "name": "AssetRemoved",
      "type": "event"
    },
    {
      "anonymous": false,
      "inputs": [
        {
          "indexed": false,
          "internalType": "uint256",
          "name": "newNumerator",
          "type": "uint256"
        },
        {
          "indexed": false,
          "internalType": "uint256",
          "name": "announcedFeeActivationTime",
          "type": "uint256"
        }
      ],
      "name": "ManagerFeeIncreaseAnnounced",
      "type": "event"
    },
    {
      "anonymous": false,
      "inputs": [],
      "name": "ManagerFeeIncreaseRenounced",
      "type": "event"
    },
    {
      "anonymous": false,
      "inputs": [
        {
          "indexed": false,
          "internalType": "address",
          "name": "fundAddress",
          "type": "address"
        },
        {
          "indexed": false,
          "internalType": "address",
          "name": "manager",
          "type": "address"
        },
        {
          "indexed": false,
          "internalType": "uint256",
          "name": "numerator",
          "type": "uint256"
        },
        {
          "indexed": false,
          "internalType": "uint256",
          "name": "denominator",
          "type": "uint256"
        }
      ],
      "name": "ManagerFeeSet",
      "type": "event"
    },
    {
      "anonymous": false,
      "inputs": [
        {
          "indexed": false,
          "internalType": "address",
          "name": "newManager",
          "type": "address"
        },
        {
          "indexed": false,
          "internalType": "string",
          "name": "newManagerName",
          "type": "string"
        }
      ],
      "name": "ManagerUpdated",
      "type": "event"
    },
    {
      "anonymous": false,
      "inputs": [
        {
          "indexed": false,
          "internalType": "address",
          "name": "poolLogic",
          "type": "address"
        },
        {
          "indexed": false,
          "internalType": "address",
          "name": "from",
          "type": "address"
        }
      ],
      "name": "PoolLogicSet",
      "type": "event"
    },
    {
      "anonymous": false,
      "inputs": [
        {
          "indexed": false,
          "internalType": "address",
          "name": "fundAddress",
          "type": "address"
        },
        {
          "indexed": false,
          "internalType": "address",
          "name": "manager",
          "type": "address"
        },
        {
          "indexed": false,
          "internalType": "uint256",
          "name": "time",
          "type": "uint256"
        }
      ],
      "name": "TransactionExecuted",
      "type": "event"
    },
    {
      "inputs": [
        {
          "internalType": "address",
          "name": "member",
          "type": "address"
        }
      ],
      "name": "addMember",
      "outputs": [],
      "stateMutability": "nonpayable",
      "type": "function"
    },
    {
      "inputs": [
        {
          "internalType": "address[]",
          "name": "members",
          "type": "address[]"
        }
      ],
      "name": "addMembers",
      "outputs": [],
      "stateMutability": "nonpayable",
      "type": "function"
    },
    {
      "inputs": [
        {
          "internalType": "address",
          "name": "asset",
          "type": "address"
        }
      ],
      "name": "addToDepositAssets",
      "outputs": [],
      "stateMutability": "nonpayable",
      "type": "function"
    },
    {
      "inputs": [
        {
          "internalType": "address",
          "name": "asset",
          "type": "address"
        }
      ],
      "name": "addToSupportedAndDepositAssets",
      "outputs": [],
      "stateMutability": "nonpayable",
      "type": "function"
    },
    {
      "inputs": [
        {
          "internalType": "address",
          "name": "asset",
          "type": "address"
        }
      ],
      "name": "addToSupportedAssets",
      "outputs": [],
      "stateMutability": "nonpayable",
      "type": "function"
    },
    {
      "inputs": [
        {
          "internalType": "uint256",
          "name": "numerator",
          "type": "uint256"
        }
      ],
      "name": "announceManagerFeeIncrease",
      "outputs": [],
      "stateMutability": "nonpayable",
      "type": "function"
    },
    {
      "inputs": [],
      "name": "announcedFeeIncreaseNumerator",
      "outputs": [
        {
          "internalType": "uint256",
          "name": "",
          "type": "uint256"
        }
      ],
      "stateMutability": "view",
      "type": "function"
    },
    {
      "inputs": [],
      "name": "announcedFeeIncreaseTimestamp",
      "outputs": [
        {
          "internalType": "uint256",
          "name": "",
          "type": "uint256"
        }
      ],
      "stateMutability": "view",
      "type": "function"
    },
    {
      "inputs": [
        {
          "internalType": "address",
          "name": "asset",
          "type": "address"
        }
      ],
      "name": "assetBalance",
      "outputs": [
        {
          "internalType": "uint256",
          "name": "",
          "type": "uint256"
        }
      ],
      "stateMutability": "view",
      "type": "function"
    },
    {
      "inputs": [
        {
          "internalType": "address",
          "name": "",
          "type": "address"
        }
      ],
      "name": "assetPosition",
      "outputs": [
        {
          "internalType": "uint256",
          "name": "",
          "type": "uint256"
        }
      ],
      "stateMutability": "view",
      "type": "function"
    },
    {
      "inputs": [
        {
          "internalType": "address",
          "name": "asset",
          "type": "address"
        },
        {
          "internalType": "uint256",
          "name": "amount",
          "type": "uint256"
        }
      ],
      "name": "assetValue",
      "outputs": [
        {
          "internalType": "uint256",
          "name": "",
          "type": "uint256"
        }
      ],
      "stateMutability": "view",
      "type": "function"
    },
    {
      "inputs": [
        {
          "internalType": "address",
          "name": "asset",
          "type": "address"
        }
      ],
      "name": "assetValue",
      "outputs": [
        {
          "internalType": "uint256",
          "name": "",
          "type": "uint256"
        }
      ],
      "stateMutability": "view",
      "type": "function"
    },
    {
      "inputs": [
        {
          "internalType": "address",
          "name": "newManager",
          "type": "address"
        },
        {
          "internalType": "string",
          "name": "newManagerName",
          "type": "string"
        }
      ],
      "name": "changeManager",
      "outputs": [],
      "stateMutability": "nonpayable",
      "type": "function"
    },
    {
      "inputs": [],
      "name": "commitManagerFeeIncrease",
      "outputs": [],
      "stateMutability": "nonpayable",
      "type": "function"
    },
    {
      "inputs": [
        {
          "internalType": "bytes32",
          "name": "data",
          "type": "bytes32"
        }
      ],
      "name": "convert32toAddress",
      "outputs": [
        {
          "internalType": "address",
          "name": "o",
          "type": "address"
        }
      ],
      "stateMutability": "pure",
      "type": "function"
    },
    {
      "inputs": [
        {
          "internalType": "address",
          "name": "",
          "type": "address"
        }
      ],
      "name": "depositAssets",
      "outputs": [
        {
          "internalType": "bool",
          "name": "",
          "type": "bool"
        }
      ],
      "stateMutability": "view",
      "type": "function"
    },
    {
      "inputs": [],
      "name": "depositAssetsCount",
      "outputs": [
        {
          "internalType": "uint256",
          "name": "",
          "type": "uint256"
        }
      ],
      "stateMutability": "view",
      "type": "function"
    },
    {
      "inputs": [
        {
          "internalType": "address",
          "name": "to",
          "type": "address"
        },
        {
          "internalType": "bytes",
          "name": "data",
          "type": "bytes"
        }
      ],
      "name": "execTransaction",
      "outputs": [
        {
          "internalType": "bool",
          "name": "",
          "type": "bool"
        }
      ],
      "stateMutability": "nonpayable",
      "type": "function"
    },
    {
      "inputs": [],
      "name": "factory",
      "outputs": [
        {
          "internalType": "address",
          "name": "",
          "type": "address"
        }
      ],
      "stateMutability": "view",
      "type": "function"
    },
    {
      "inputs": [
        {
          "internalType": "bytes",
          "name": "data",
          "type": "bytes"
        },
        {
          "internalType": "uint8",
          "name": "inputNum",
          "type": "uint8"
        },
        {
          "internalType": "uint8",
          "name": "arrayIndex",
          "type": "uint8"
        }
      ],
      "name": "getArrayIndex",
      "outputs": [
        {
          "internalType": "bytes32",
          "name": "",
          "type": "bytes32"
        }
      ],
      "stateMutability": "pure",
      "type": "function"
    },
    {
      "inputs": [
        {
          "internalType": "bytes",
          "name": "data",
          "type": "bytes"
        },
        {
          "internalType": "uint8",
          "name": "inputNum",
          "type": "uint8"
        }
      ],
      "name": "getArrayLast",
      "outputs": [
        {
          "internalType": "bytes32",
          "name": "",
          "type": "bytes32"
        }
      ],
      "stateMutability": "pure",
      "type": "function"
    },
    {
      "inputs": [
        {
          "internalType": "bytes",
          "name": "data",
          "type": "bytes"
        },
        {
          "internalType": "uint8",
          "name": "inputNum",
          "type": "uint8"
        }
      ],
      "name": "getArrayLength",
      "outputs": [
        {
          "internalType": "uint256",
          "name": "",
          "type": "uint256"
        }
      ],
      "stateMutability": "pure",
      "type": "function"
    },
    {
      "inputs": [],
      "name": "getFundComposition",
      "outputs": [
        {
          "internalType": "address[]",
          "name": "",
          "type": "address[]"
        },
        {
          "internalType": "uint256[]",
          "name": "",
          "type": "uint256[]"
        },
        {
          "internalType": "uint256[]",
          "name": "",
          "type": "uint256[]"
        }
      ],
      "stateMutability": "view",
      "type": "function"
    },
    {
      "inputs": [
        {
          "internalType": "bytes",
          "name": "data",
          "type": "bytes"
        },
        {
          "internalType": "uint8",
          "name": "inputNum",
          "type": "uint8"
        }
      ],
      "name": "getInput",
      "outputs": [
        {
          "internalType": "bytes32",
          "name": "",
          "type": "bytes32"
        }
      ],
      "stateMutability": "pure",
      "type": "function"
    },
    {
      "inputs": [],
      "name": "getManagerFee",
      "outputs": [
        {
          "internalType": "uint256",
          "name": "",
          "type": "uint256"
        },
        {
          "internalType": "uint256",
          "name": "",
          "type": "uint256"
        }
      ],
      "stateMutability": "view",
      "type": "function"
    },
    {
      "inputs": [],
      "name": "getManagerFeeIncreaseInfo",
      "outputs": [
        {
          "internalType": "uint256",
          "name": "",
          "type": "uint256"
        },
        {
          "internalType": "uint256",
          "name": "",
          "type": "uint256"
        }
      ],
      "stateMutability": "view",
      "type": "function"
    },
    {
      "inputs": [],
      "name": "getMembers",
      "outputs": [
        {
          "internalType": "address[]",
          "name": "",
          "type": "address[]"
        }
      ],
      "stateMutability": "view",
      "type": "function"
    },
    {
      "inputs": [
        {
          "internalType": "bytes",
          "name": "data",
          "type": "bytes"
        }
      ],
      "name": "getMethod",
      "outputs": [
        {
          "internalType": "bytes4",
          "name": "",
          "type": "bytes4"
        }
      ],
      "stateMutability": "pure",
      "type": "function"
    },
    {
      "inputs": [],
      "name": "getSupportedAssets",
      "outputs": [
        {
          "internalType": "address[]",
          "name": "",
          "type": "address[]"
        }
      ],
      "stateMutability": "view",
      "type": "function"
    },
    {
      "inputs": [
        {
          "internalType": "address",
          "name": "_factory",
          "type": "address"
        },
        {
          "internalType": "address",
          "name": "_manager",
          "type": "address"
        },
        {
          "internalType": "string",
          "name": "_managerName",
          "type": "string"
        },
        {
          "components": [
            {
              "internalType": "address",
              "name": "asset",
              "type": "address"
            },
            {
              "internalType": "bool",
              "name": "isDeposit",
              "type": "bool"
            }
          ],
          "internalType": "struct IPoolManagerLogic.Asset[]",
          "name": "_supportedAssets",
          "type": "tuple[]"
        }
      ],
      "name": "initialize",
      "outputs": [],
      "stateMutability": "nonpayable",
      "type": "function"
    },
    {
      "inputs": [
        {
          "internalType": "address",
          "name": "asset",
          "type": "address"
        }
      ],
      "name": "isAssetSupported",
      "outputs": [
        {
          "internalType": "bool",
          "name": "",
          "type": "bool"
        }
      ],
      "stateMutability": "view",
      "type": "function"
    },
    {
      "inputs": [
        {
          "internalType": "address",
          "name": "member",
          "type": "address"
        }
      ],
      "name": "isMemberAllowed",
      "outputs": [
        {
          "internalType": "bool",
          "name": "",
          "type": "bool"
        }
      ],
      "stateMutability": "view",
      "type": "function"
    },
    {
      "inputs": [],
      "name": "manager",
      "outputs": [
        {
          "internalType": "address",
          "name": "",
          "type": "address"
        }
      ],
      "stateMutability": "view",
      "type": "function"
    },
    {
      "inputs": [],
      "name": "managerName",
      "outputs": [
        {
          "internalType": "string",
          "name": "",
          "type": "string"
        }
      ],
      "stateMutability": "view",
      "type": "function"
    },
    {
      "inputs": [],
      "name": "numberOfMembers",
      "outputs": [
        {
          "internalType": "uint256",
          "name": "",
          "type": "uint256"
        }
      ],
      "stateMutability": "view",
      "type": "function"
    },
    {
      "inputs": [],
      "name": "numberOfSupportedAssets",
      "outputs": [
        {
          "internalType": "uint256",
          "name": "",
          "type": "uint256"
        }
      ],
      "stateMutability": "view",
      "type": "function"
    },
    {
      "inputs": [],
      "name": "poolLogic",
      "outputs": [
        {
          "internalType": "address",
          "name": "",
          "type": "address"
        }
      ],
      "stateMutability": "view",
      "type": "function"
    },
    {
      "inputs": [
        {
          "internalType": "bytes",
          "name": "data",
          "type": "bytes"
        },
        {
          "internalType": "uint256",
          "name": "offset",
          "type": "uint256"
        },
        {
          "internalType": "uint256",
          "name": "length",
          "type": "uint256"
        }
      ],
      "name": "read32",
      "outputs": [
        {
          "internalType": "bytes32",
          "name": "o",
          "type": "bytes32"
        }
      ],
      "stateMutability": "pure",
      "type": "function"
    },
    {
      "inputs": [
        {
          "internalType": "bytes",
          "name": "data",
          "type": "bytes"
        },
        {
          "internalType": "uint256",
          "name": "offset",
          "type": "uint256"
        },
        {
          "internalType": "uint256",
          "name": "length",
          "type": "uint256"
        }
      ],
      "name": "read4left",
      "outputs": [
        {
          "internalType": "bytes4",
          "name": "o",
          "type": "bytes4"
        }
      ],
      "stateMutability": "pure",
      "type": "function"
    },
    {
      "inputs": [
        {
          "internalType": "address",
          "name": "asset",
          "type": "address"
        }
      ],
      "name": "removeFromDepositAssets",
      "outputs": [],
      "stateMutability": "nonpayable",
      "type": "function"
    },
    {
      "inputs": [
        {
          "internalType": "address",
          "name": "asset",
          "type": "address"
        }
      ],
      "name": "removeFromSupportedAssets",
      "outputs": [],
      "stateMutability": "nonpayable",
      "type": "function"
    },
    {
      "inputs": [
        {
          "internalType": "address",
          "name": "member",
          "type": "address"
        }
      ],
      "name": "removeMember",
      "outputs": [],
      "stateMutability": "nonpayable",
      "type": "function"
    },
    {
      "inputs": [
        {
          "internalType": "address[]",
          "name": "members",
          "type": "address[]"
        }
      ],
      "name": "removeMembers",
      "outputs": [],
      "stateMutability": "nonpayable",
      "type": "function"
    },
    {
      "inputs": [],
      "name": "removeTrader",
      "outputs": [],
      "stateMutability": "nonpayable",
      "type": "function"
    },
    {
      "inputs": [],
      "name": "renounceManagerFeeIncrease",
      "outputs": [],
      "stateMutability": "nonpayable",
      "type": "function"
    },
    {
      "inputs": [
        {
          "internalType": "address",
          "name": "_poolLogic",
          "type": "address"
        }
      ],
      "name": "setPoolLogic",
      "outputs": [
        {
          "internalType": "bool",
          "name": "",
          "type": "bool"
        }
      ],
      "stateMutability": "nonpayable",
      "type": "function"
    },
    {
      "inputs": [
        {
          "internalType": "address",
          "name": "newTrader",
          "type": "address"
        }
      ],
      "name": "setTrader",
      "outputs": [],
      "stateMutability": "nonpayable",
      "type": "function"
    },
    {
      "inputs": [
        {
          "internalType": "uint256",
          "name": "",
          "type": "uint256"
        }
      ],
      "name": "supportedAssets",
      "outputs": [
        {
          "internalType": "address",
          "name": "",
          "type": "address"
        }
      ],
      "stateMutability": "view",
      "type": "function"
    },
    {
      "inputs": [],
      "name": "trader",
      "outputs": [
        {
          "internalType": "address",
          "name": "",
          "type": "address"
        }
      ],
      "stateMutability": "view",
      "type": "function"
    },
    {
      "inputs": [
        {
          "internalType": "address",
          "name": "asset",
          "type": "address"
        }
      ],
      "name": "validateAsset",
      "outputs": [
        {
          "internalType": "bool",
          "name": "",
          "type": "bool"
        }
      ],
      "stateMutability": "view",
      "type": "function"
    }
  ],
  "bytecode": "0x608060405234801561001057600080fd5b506132a9806100206000396000f3fe608060405234801561001057600080fd5b50600436106102d65760003560e01c80637c8afd5111610182578063bbbf725b116100e9578063d8af8ed4116100a2578063ea0c50b21161007c578063ea0c50b2146105fa578063ed5b165d1461060d578063f09d14d714610615578063fed4416a1461062c576102d6565b8063d8af8ed4146105cc578063db896b57146105df578063e5406dbf146105f2576102d6565b8063bbbf725b14610565578063c3c6279f14610578578063c45a01551461058b578063c68dbb3714610593578063ca6d56dc146105a6578063cd88e558146105b9576102d6565b806397e005b81161013b57806397e005b814610512578063998546e31461051a5780639eab52531461052d578063a30e3fa914610542578063a6bc18f91461054a578063b8bd81e61461055d576102d6565b80637c8afd51146104c157806382f86acc146104c95780638e10153d146104dc5780638f323439146104ef5780639240d299146104f7578063936553c41461050a576102d6565b806341dc16c311610241578063568b5a2f116101fa5780636e890f3c116101d45780636e890f3c1461048b5780636f4d469b146104935780637ae7cfb5146104a65780637b4d0c63146104b9576102d6565b8063568b5a2f146104455780635abff090146104655780636c41b2e514610478576102d6565b806341dc16c3146103d1578063464b4158146103e457806346ee84b014610404578063481c6a7514610417578063522136631461041f57806353f064c914610432576102d6565b8063198055381161029357806319805538146103675780631eba30771461037d57806329c07fba1461039057806339b81fd9146103a35780633c570d7d146103ab5780633fef9afa146103be576102d6565b806306468587146102db578063093b8825146102f057806309ff5c7d146103035780630b1ca49a1461032c578063147bf0be1461033f5780631758078b14610352575b600080fd5b6102ee6102e936600461264b565b610641565b005b6102ee6102fe36600461264b565b6107c7565b610316610311366004612957565b61080f565b6040516103239190612c4a565b60405180910390f35b6102ee61033a36600461264b565b610878565b6102ee61034d366004612683565b6108bd565b61035a6109e7565b6040516103239190612b18565b61036f6109f6565b6040516103239291906131be565b61035a61038b3660046128c2565b610a85565b61031661039e3660046127e4565b610a88565b61035a610b9f565b6103166103b936600461264b565b610bae565b6102ee6103cc36600461264b565b610bc0565b6103166103df3660046129a6565b610c11565b6103f76103f236600461264b565b610ca1565b6040516103239190612c3f565b6102ee61041236600461280f565b610cbe565b61035a610d41565b6102ee61042d366004612797565b610d50565b6102ee6104403660046128c2565b610de6565b61045861045336600461290c565b610fb4565b6040516103239190612c53565b6102ee61047336600461264b565b611000565b6102ee61048636600461264b565b61103f565b6102ee611144565b6102ee6104a136600461280f565b6111a7565b6103f76104b4366004612797565b61121a565b6103166114a3565b6102ee6114a9565b6103166104d7366004612957565b6114e5565b6103f76104ea36600461264b565b611503565b6103166116cf565b6103f761050536600461264b565b6116d5565b610316611756565b61031661175c565b610316610528366004612957565b611762565b610535611793565b6040516103239190612bf3565b6103166117f5565b6102ee61055836600461264b565b6117fb565b6102ee611847565b6103f761057336600461264b565b6118a6565b6104586105863660046128da565b6118c3565b61035a6118d2565b61035a6105a13660046128c2565b6118e1565b6102ee6105b436600461264b565b611908565b6103166105c736600461264b565b61194e565b6103166105da36600461264b565b6119d1565b6103166105ed36600461290c565b6119e0565b610535611a27565b6103f761060836600461264b565b611a87565b61036f611a9c565b61061d611aa6565b60405161032393929190612c06565b610634611c98565b6040516103239190612c68565b603860009054906101000a90046001600160a01b03166001600160a01b0316638da5cb5b6040518163ffffffff1660e01b815260040160206040518083038186803b15801561068f57600080fd5b505afa1580156106a3573d6000803e3d6000fd5b505050506040513d601f19601f820116820180604052508101906106c79190612667565b6001600160a01b0316336001600160a01b031614806106fe57506106e9610d41565b6001600160a01b0316336001600160a01b0316145b80610721575061070c6109e7565b6001600160a01b0316336001600160a01b0316145b6107465760405162461bcd60e51b815260040161073d90612d01565b60405180910390fd5b61074f81610ca1565b61076b5760405162461bcd60e51b815260040161073d90613090565b6107748161194e565b156107915760405162461bcd60e51b815260040161073d90612d9c565b6001600160a01b0381166000908152603c602052604090205460ff16156107bb576107bb81611d25565b6107c481611db3565b50565b6033546001600160a01b03163314806107ea57506037546001600160a01b031633145b6108065760405162461bcd60e51b815260040161073d90612ee1565b6107c481611efa565b600080610827848460200260040160ff1660206119e0565b9050600061083a856004840160206119e0565b9050806108595760405162461bcd60e51b815260040161073d906130f4565b61086d8560208084028501600401906119e0565b925050505b92915050565b6033546001600160a01b031633146108a25760405162461bcd60e51b815260040161073d90612dd3565b6108ab816118a6565b6108b4576107c4565b6107c481612097565b600054610100900460ff16806108d657506108d6612190565b806108e4575060005460ff16155b6109005760405162461bcd60e51b815260040161073d90613017565b600054610100900460ff1615801561092b576000805460ff1961ff0019909116610100171660011790555b6109358484612196565b603880546001600160a01b0319166001600160a01b03871617905560005b82518160ff1610156109cd57610982838260ff168151811061097157fe5b602002602001015160000151611efa565b828160ff168151811061099157fe5b602002602001015160200151156109c5576109c5838260ff16815181106109b457fe5b6020026020010151600001516121c9565b600101610953565b5080156109e0576000805461ff00191690555b5050505050565b6037546001600160a01b031690565b603854603954604051635bd2a29360e11b815260009283926001600160a01b039182169263b7a5452692610a2e921690600401612b18565b604080518083038186803b158015610a4557600080fd5b505afa158015610a59573d6000803e3d6000fd5b505050506040513d601f19601f82011682018060405250810190610a7d9190612a1f565b915091509091565b90565b603854604051638b2f0f4f60e01b815260009182916001600160a01b0390911690638b2f0f4f90610abd908790600401612b18565b60206040518083038186803b158015610ad557600080fd5b505afa158015610ae9573d6000803e3d6000fd5b505050506040513d601f19601f82011682018060405250810190610b0d9190612a07565b90506000846001600160a01b031663313ce5676040518163ffffffff1660e01b815260040160206040518083038186803b158015610b4a57600080fd5b505afa158015610b5e573d6000803e3d6000fd5b505050506040513d601f19601f82011682018060405250810190610b829190612a42565b60ff16905061086d600a82900a610b998487612259565b90612293565b6039546001600160a01b031681565b603b6020526000908152604090205481565b6033546001600160a01b0316331480610be357506037546001600160a01b031633145b610bff5760405162461bcd60e51b815260040161073d90612ee1565b610c0881611efa565b6107c4816121c9565b600080610c29858560200260040160ff1660206119e0565b90506000610c3c866004840160206119e0565b905080610c5b5760405162461bcd60e51b815260040161073d906130f4565b60ff84168111610c7d5760405162461bcd60e51b815260040161073d90612c7b565b610c97866020600160ff88160181028501600401906119e0565b9695505050505050565b6001600160a01b03166000908152603b6020526040902054151590565b6033546001600160a01b03163314610ce85760405162461bcd60e51b815260040161073d90612dd3565b60005b8151811015610d3d57610d10828281518110610d0357fe5b60200260200101516118a6565b610d1957610d35565b610d35828281518110610d2857fe5b6020026020010151612097565b600101610ceb565b5050565b6033546001600160a01b031690565b6033546001600160a01b03163314610d7a5760405162461bcd60e51b815260040161073d90612dd3565b603380546001600160a01b0319166001600160a01b0384161790558051610da8906034906020840190612545565b507f6ed15082ad038474841528b5badca105106d4463e44b5d434130dfb299aa36698282604051610dda929190612bb6565b60405180910390a15050565b6033546001600160a01b03163314610e105760405162461bcd60e51b815260040161073d90612dd3565b60385460408051635c9bfc2b60e01b815290516000926001600160a01b031691635c9bfc2b916004808301926020929190829003018186803b158015610e5557600080fd5b505afa158015610e69573d6000803e3d6000fd5b505050506040513d601f19601f82011682018060405250810190610e8d9190612a07565b9050600080610e9a6109f6565b909250905080841115610ebf5760405162461bcd60e51b815260040161073d90612f11565b610ec982846122d5565b841115610ee85760405162461bcd60e51b815260040161073d906130bd565b6038546040805163ebee461d60e01b815290516000926001600160a01b03169163ebee461d916004808301926020929190829003018186803b158015610f2d57600080fd5b505afa158015610f41573d6000803e3d6000fd5b505050506040513d601f19601f82011682018060405250810190610f659190612a07565b603e869055428101603f8190556040519192507f4db9119741646c419f1ceccdf112b5b9a9b4516355e742e1fa9c479f4dec98da91610fa59188916131be565b60405180910390a15050505050565b600081830184511015610fd95760405162461bcd60e51b815260040161073d90612f3b565b826020018401519050816004038015610ff8576008810260020a820491505b509392505050565b6033546001600160a01b031633148061102357506037546001600160a01b031633145b610c085760405162461bcd60e51b815260040161073d90612ee1565b603860009054906101000a90046001600160a01b03166001600160a01b0316638da5cb5b6040518163ffffffff1660e01b815260040160206040518083038186803b15801561108d57600080fd5b505afa1580156110a1573d6000803e3d6000fd5b505050506040513d601f19601f820116820180604052508101906110c59190612667565b6001600160a01b0316336001600160a01b031614806110fc57506110e7610d41565b6001600160a01b0316336001600160a01b0316145b8061111f575061110a6109e7565b6001600160a01b0316336001600160a01b0316145b61113b5760405162461bcd60e51b815260040161073d90612d01565b6107c481611d25565b6033546001600160a01b0316331461116e5760405162461bcd60e51b815260040161073d90612dd3565b603f544210156111905760405162461bcd60e51b815260040161073d90612fe0565b61119b603e546122fa565b6000603e819055603f55565b6033546001600160a01b031633146111d15760405162461bcd60e51b815260040161073d90612dd3565b60005b8151811015610d3d576111ec828281518110610d0357fe5b156111f657611212565b61121282828151811061120557fe5b6020026020010151612444565b6001016111d4565b6033546000906001600160a01b031633148061124057506037546001600160a01b031633145b61125c5760405162461bcd60e51b815260040161073d90612ee1565b6001600160a01b0383166112825760405162461bcd60e51b815260040161073d90613157565b603854604051631c09fa9b60e21b81526000916001600160a01b031690637027ea6c906112b3908790600401612b18565b60206040518083038186803b1580156112cb57600080fd5b505afa1580156112df573d6000803e3d6000fd5b505050506040513d601f19601f820116820180604052508101906113039190612667565b90506001600160a01b03811661132b5760405162461bcd60e51b815260040161073d90612f72565b60405163e23ff43760e01b81526001600160a01b0382169063e23ff437906113599030908790600401612bb6565b602060405180830381600087803b15801561137357600080fd5b505af1158015611387573d6000803e3d6000fd5b505050506040513d601f19601f820116820180604052508101906113ab91906128a6565b6113c75760405162461bcd60e51b815260040161073d90612d6f565b6000846001600160a01b0316846040516113e19190612afc565b6000604051808303816000865af19150503d806000811461141e576040519150601f19603f3d011682016040523d82523d6000602084013e611423565b606091505b509091505060018115151461144a5760405162461bcd60e51b815260040161073d90613120565b6039547f508f3afa87f72dce865a2321107666b28ac822c23a8c0555fbeb3424cf3de563906001600160a01b0316611480610d41565b4260405161149093929190612b69565b60405180910390a1506001949350505050565b603f5481565b6033546001600160a01b031633146114d35760405162461bcd60e51b815260040161073d90612dd3565b603780546001600160a01b0319169055565b60006114fc838360200260040160ff1660206119e0565b9392505050565b6038546000906001600160a01b03163314806115b55750603860009054906101000a90046001600160a01b03166001600160a01b0316631d68702d6040518163ffffffff1660e01b815260040160206040518083038186803b15801561156857600080fd5b505afa15801561157c573d6000803e3d6000fd5b505050506040513d601f19601f820116820180604052508101906115a09190612667565b6001600160a01b0316336001600160a01b0316145b6115d15760405162461bcd60e51b815260040161073d90612e5c565b306001600160a01b0316826001600160a01b0316631e50a4a66040518163ffffffff1660e01b815260040160206040518083038186803b15801561161457600080fd5b505afa158015611628573d6000803e3d6000fd5b505050506040513d601f19601f8201168201806040525081019061164c9190612667565b6001600160a01b0316146116725760405162461bcd60e51b815260040161073d90612df9565b603980546001600160a01b0319166001600160a01b0384161790556040517f8c1446ebd2ac8c922b8c9716dfbdfcfef02c9fc167140d7cfd019565b423b249906116bf9084903390612b2c565b60405180910390a1506001919050565b603e5481565b60385460405163cc435bf360e01b81526000916001600160a01b03169063cc435bf390611706908590600401612b18565b60206040518083038186803b15801561171e57600080fd5b505afa158015611732573d6000803e3d6000fd5b505050506040513d601f19601f8201168201806040525081019061087291906128a6565b603a5490565b603d5481565b60008061177a848460200260040160ff1660206119e0565b905061178b846004830160206119e0565b949350505050565b606060358054806020026020016040519081016040528092919081815260200182805480156117eb57602002820191906000526020600020905b81546001600160a01b031681526001909101906020018083116117cd575b5050505050905090565b60355490565b6033546001600160a01b031633146118255760405162461bcd60e51b815260040161073d90612dd3565b603780546001600160a01b0319166001600160a01b0392909216919091179055565b6033546001600160a01b031633146118715760405162461bcd60e51b815260040161073d90612dd3565b6000603e819055603f8190556040517fc6f04bf43cbdf1ba5d51b4afa160bb3c7e13858b1409aa32868b239bb2f8d8499190a1565b6001600160a01b0316600090815260366020526040902054151590565b60006108728260006004610fb4565b6038546001600160a01b031681565b603a81815481106118ee57fe5b6000918252602090912001546001600160a01b0316905081565b6033546001600160a01b031633146119325760405162461bcd60e51b815260040161073d90612dd3565b61193b816118a6565b15611945576107c4565b6107c481612444565b6039546040516370a0823160e01b81526000916001600160a01b03808516926370a0823192611981921690600401612b18565b60206040518083038186803b15801561199957600080fd5b505afa1580156119ad573d6000803e3d6000fd5b505050506040513d601f19601f820116820180604052508101906108729190612a07565b60006108728261039e8461194e565b600081830184511015611a055760405162461bcd60e51b815260040161073d90612f3b565b826020018401519050816020038015610ff85760080260020a90049392505050565b6060603a8054806020026020016040519081016040528092919081815260200182805480156117eb576020028201919060005260206000209081546001600160a01b031681526001909101906020018083116117cd575050505050905090565b603c6020526000908152604090205460ff1681565b603e54603f549091565b603a546060908190819081816001600160401b0381118015611ac757600080fd5b50604051908082528060200260200182016040528015611af1578160200160208202803683370190505b5090506060826001600160401b0381118015611b0c57600080fd5b50604051908082528060200260200182016040528015611b36578160200160208202803683370190505b5090506060836001600160401b0381118015611b5157600080fd5b50604051908082528060200260200182016040528015611b7b578160200160208202803683370190505b50905060005b84811015611c8a576000603a8281548110611b9857fe5b6000918252602090912001546001600160a01b03169050611bb88161194e565b848381518110611bc457fe5b60200260200101818152505080858381518110611bdd57fe5b6001600160a01b039283166020918202929092010152603854604051638b2f0f4f60e01b8152911690638b2f0f4f90611c1a908490600401612b18565b60206040518083038186803b158015611c3257600080fd5b505afa158015611c46573d6000803e3d6000fd5b505050506040513d601f19601f82011682018060405250810190611c6a9190612a07565b838381518110611c7657fe5b602090810291909101015250600101611b81565b509195509350915050909192565b60348054604080516020601f60026000196101006001881615020190951694909404938401819004810282018101909252828152606093909290918301828280156117eb5780601f10611cf9576101008083540402835291602001916117eb565b820191906000526020600020905b815481529060010190602001808311611d0757509395945050505050565b6001600160a01b0381166000908152603c602052604090205460ff16611d5d5760405162461bcd60e51b815260040161073d90613065565b6001603d5411611d7f5760405162461bcd60e51b815260040161073d90612e9f565b6001600160a01b0381166000908152603c60205260409020805460ff19169055603d54611dad9060016124a0565b603d5550565b603a546001600160a01b0382166000908152603b6020526040812054611dda9060016124a0565b90506000603a611deb8460016124a0565b81548110611df557fe5b600091825260209091200154603a80546001600160a01b039092169250829184908110611e1e57fe5b600091825260209091200180546001600160a01b0319166001600160a01b0392909216919091179055611e528260016122d5565b6001600160a01b038083166000908152603b602052604080822093909355908616815290812055603a805480611e8457fe5b600082815260209020810160001990810180546001600160a01b03191690550190556039547f9b4f55639e5e283319baee5bc4e69a5625a8e3a1cc004af968f4fee725022027906001600160a01b0316611edc610d41565b86604051611eec93929190612b46565b60405180910390a150505050565b603860009054906101000a90046001600160a01b03166001600160a01b031663aa12ae4d6040518163ffffffff1660e01b815260040160206040518083038186803b158015611f4857600080fd5b505afa158015611f5c573d6000803e3d6000fd5b505050506040513d601f19601f82011682018060405250810190611f809190612a07565b603a5410611fa05760405162461bcd60e51b815260040161073d9061318e565b611fa981610ca1565b15611fc65760405162461bcd60e51b815260040161073d90612e25565b611fcf816116d5565b1515600114611ff05760405162461bcd60e51b815260040161073d90612cab565b603a80546001810182557fa2999d817b6757290b50e8ecf3fa939673403dd35c97de392fdb343b4015ce9e0180546001600160a01b0319166001600160a01b0384811691821790925591546000928352603b6020526040909220919091556039547f0a7426a0630aad7dbc4d5ca5b7d9aac1133d77d2db987caaf4b4186c85d6593f911661207c610d41565b8360405161208c93929190612b46565b60405180910390a150565b6035546001600160a01b0382166000908152603660205260408120546120be9060016124a0565b9050600060356120cf8460016124a0565b815481106120d957fe5b600091825260209091200154603580546001600160a01b03909216925082918490811061210257fe5b600091825260209091200180546001600160a01b0319166001600160a01b03929092169190911790556121368260016122d5565b6001600160a01b0380831660009081526036602052604080822093909355908616815290812055603580548061216857fe5b600082815260209020810160001990810180546001600160a01b031916905501905550505050565b303b1590565b603380546001600160a01b0319166001600160a01b03841617905580516121c4906034906020840190612545565b505050565b6121d281610ca1565b6121ee5760405162461bcd60e51b815260040161073d90613090565b6001600160a01b0381166000908152603c602052604090205460ff16156122275760405162461bcd60e51b815260040161073d90612cd2565b6001600160a01b0381166000908152603c60205260409020805460ff19166001908117909155603d54611dad916122d5565b60008261226857506000610872565b8282028284828161227557fe5b04146114fc5760405162461bcd60e51b815260040161073d90612f9f565b60006114fc83836040518060400160405280601a81526020017f536166654d6174683a206469766973696f6e206279207a65726f0000000000008152506124e2565b6000828201838110156114fc5760405162461bcd60e51b815260040161073d90612d38565b60385460395460405163011adcb160e21b81526001600160a01b039283169263046b72c492612330929116908590600401612bda565b600060405180830381600087803b15801561234a57600080fd5b505af115801561235e573d6000803e3d6000fd5b5050603854603954604051635bd2a29360e11b8152600094508493506001600160a01b039283169263b7a545269261239b92911690600401612b18565b604080518083038186803b1580156123b257600080fd5b505afa1580156123c6573d6000803e3d6000fd5b505050506040513d601f19601f820116820180604052508101906123ea9190612a1f565b60395491935091507f1780c04ddc6f0b32d866c7a3d7583f53515ef49ed2126af868f804f491601266906001600160a01b0316612425610d41565b84846040516124379493929190612b8d565b60405180910390a1505050565b603580546001810182557fcfa4bec1d3298408bb5afcfcd9c430549c5b31f8aa5c5848151c0a55f473c34d0180546001600160a01b039093166001600160a01b0319909316831790555460009182526036602052604090912055565b60006114fc83836040518060400160405280601e81526020017f536166654d6174683a207375627472616374696f6e206f766572666c6f770000815250612519565b600081836125035760405162461bcd60e51b815260040161073d9190612c68565b50600083858161250f57fe5b0495945050505050565b6000818484111561253d5760405162461bcd60e51b815260040161073d9190612c68565b505050900390565b828054600181600116156101000203166002900490600052602060002090601f016020900481019282601f1061258657805160ff19168380011785556125b3565b828001600101855582156125b3579182015b828111156125b3578251825591602001919060010190612598565b506125bf9291506125c3565b5090565b5b808211156125bf57600081556001016125c4565b803561087281613241565b600082601f8301126125f3578081fd5b81356001600160401b03811115612608578182fd5b61261b601f8201601f19166020016131cc565b915080825283602082850101111561263257600080fd5b8060208401602084013760009082016020015292915050565b60006020828403121561265c578081fd5b81356114fc81613241565b600060208284031215612678578081fd5b81516114fc81613241565b60008060008060808587031215612698578283fd5b84356126a381613241565b93506020858101356126b481613241565b93506040868101356001600160401b03808211156126d0578586fd5b6126dc8a838b016125e3565b955060608901359150808211156126f1578485fd5b508701601f81018913612702578384fd5b8035612715612710826131f2565b6131cc565b81815284810190838601858402850187018d1015612731578788fd5b8794505b838510156127865785818e03121561274b578788fd5b612754866131cc565b813561275f81613241565b81528188013561276e81613256565b81890152835260019490940193918601918501612735565b50989b979a50959850505050505050565b600080604083850312156127a9578182fd5b82356127b481613241565b915060208301356001600160401b038111156127ce578182fd5b6127da858286016125e3565b9150509250929050565b600080604083850312156127f6578182fd5b823561280181613241565b946020939093013593505050565b60006020808385031215612821578182fd5b82356001600160401b03811115612836578283fd5b8301601f81018513612846578283fd5b8035612854612710826131f2565b8181528381019083850185840285018601891015612870578687fd5b8694505b8385101561289a5761288689826125d8565b835260019490940193918501918501612874565b50979650505050505050565b6000602082840312156128b7578081fd5b81516114fc81613256565b6000602082840312156128d3578081fd5b5035919050565b6000602082840312156128eb578081fd5b81356001600160401b03811115612900578182fd5b61178b848285016125e3565b600080600060608486031215612920578081fd5b83356001600160401b03811115612935578182fd5b612941868287016125e3565b9660208601359650604090950135949350505050565b60008060408385031215612969578182fd5b82356001600160401b0381111561297e578283fd5b61298a858286016125e3565b925050602083013561299b81613264565b809150509250929050565b6000806000606084860312156129ba578081fd5b83356001600160401b038111156129cf578182fd5b6129db868287016125e3565b93505060208401356129ec81613264565b915060408401356129fc81613264565b809150509250925092565b600060208284031215612a18578081fd5b5051919050565b60008060408385031215612a31578182fd5b505080516020909101519092909150565b600060208284031215612a53578081fd5b81516114fc81613264565b6000815180845260208085019450808401835b83811015612a965781516001600160a01b031687529582019590820190600101612a71565b509495945050505050565b6000815180845260208085019450808401835b83811015612a9657815187529582019590820190600101612ab4565b60008151808452612ae8816020860160208601613211565b601f01601f19169290920160200192915050565b60008251612b0e818460208701613211565b9190910192915050565b6001600160a01b0391909116815260200190565b6001600160a01b0392831681529116602082015260400190565b6001600160a01b0393841681529183166020830152909116604082015260600190565b6001600160a01b039384168152919092166020820152604081019190915260600190565b6001600160a01b0394851681529290931660208301526040820152606081019190915260800190565b6001600160a01b038316815260406020820181905260009061178b90830184612ad0565b6001600160a01b03929092168252602082015260400190565b6000602082526114fc6020830184612a5e565b600060608252612c196060830186612a5e565b8281036020840152612c2b8186612aa1565b90508281036040840152610c978185612aa1565b901515815260200190565b90815260200190565b6001600160e01b031991909116815260200190565b6000602082526114fc6020830184612ad0565b60208082526016908201527534b73b30b634b21030b93930bc903837b9b4ba34b7b760511b604082015260600190565b6020808252600d908201526c1a5b9d985b1a5908185cdcd95d609a1b604082015260600190565b602080825260159082015274185b1c9958591e4819195c1bdcda5d08185cdcd95d605a1b604082015260600190565b6020808252601b908201527f6f6e6c79206d616e616765722c20747261646572206f722044414f0000000000604082015260600190565b6020808252601b908201527f536166654d6174683a206164646974696f6e206f766572666c6f770000000000604082015260600190565b60208082526013908201527234b73b30b634b2103a3930b739b0b1ba34b7b760691b604082015260600190565b6020808252601d908201527f63616e6e6f742072656d6f7665206e6f6e2d656d707479206173736574000000604082015260600190565b6020808252600c908201526b37b7363c9036b0b730b3b2b960a11b604082015260600190565b602080825260129082015271696e76616c696420706f6f6c206c6f67696360701b604082015260600190565b60208082526017908201527f617373657420616c726561647920737570706f72746564000000000000000000604082015260600190565b60208082526023908201527f6f6e6c792044414f206f7220666163746f7279206164647265737320616c6c6f6040820152621dd95960ea1b606082015260800190565b60208082526022908201527f72657175697265206174206c65617374206f6e65206465706f73697420617373604082015261195d60f21b606082015260800190565b60208082526016908201527537b7363c9036b0b730b3b2b91037b9103a3930b232b960511b604082015260600190565b60208082526010908201526f34b73b30b634b210333930b1ba34b7b760811b604082015260600190565b6020808252601b908201527f52656164696e67206279746573206f7574206f6620626f756e64730000000000604082015260600190565b60208082526013908201527234b73b30b634b2103232b9ba34b730ba34b7b760691b604082015260600190565b60208082526021908201527f536166654d6174683a206d756c7469706c69636174696f6e206f766572666c6f6040820152607760f81b606082015260800190565b60208082526019908201527f66656520696e6372656173652064656c61792061637469766500000000000000604082015260600190565b6020808252602e908201527f436f6e747261637420696e7374616e63652068617320616c726561647920626560408201526d195b881a5b9a5d1a585b1a5e995960921b606082015260800190565b6020808252601190820152701b9bdd0819195c1bdcda5d08185cdcd95d607a1b604082015260600190565b602080825260139082015272185cdcd95d081b9bdd081cdd5c1c1bdc9d1959606a1b604082015260600190565b60208082526019908201527f657863656564656420616c6c6f77656420696e63726561736500000000000000604082015260600190565b602080825260129082015271696e707574206973206e6f7420617272617960701b604082015260600190565b6020808252601a908201527f6661696c656420746f2065786563757465207468652063616c6c000000000000604082015260600190565b6020808252601c908201527f6e6f6e2d7a65726f206164647265737320697320726571756972656400000000604082015260600190565b6020808252601690820152751b585e1a5b5d5b48185cdcd95d1cc81c995858da195960521b604082015260600190565b918252602082015260400190565b6040518181016001600160401b03811182821017156131ea57600080fd5b604052919050565b60006001600160401b03821115613207578081fd5b5060209081020190565b60005b8381101561322c578181015183820152602001613214565b8381111561323b576000848401525b50505050565b6001600160a01b03811681146107c457600080fd5b80151581146107c457600080fd5b60ff811681146107c457600080fdfea26469706673582212207dc01743851707e9bd08761bc9d8634ce4ff6b4b8f45f82183ce0df29849b9f864736f6c634300060c0033",
  "linkReferences": {},
  "deployedLinkReferences": {}
}