{
  "_format": "hh-sol-artifact-1",
  "contractName": "PoolManagerLogic-ovm",
  "sourceName": "contracts/PoolManagerLogic.sol",
  "abi": [
    {
      "anonymous": false,
      "inputs": [
        {
          "indexed": false,
          "internalType": "address",
          "name": "fundAddress",
          "type": "address"
        },
        {
          "indexed": false,
          "internalType": "address",
          "name": "manager",
          "type": "address"
        },
        {
          "indexed": false,
          "internalType": "bytes32",
          "name": "assetKey",
          "type": "bytes32"
        }
      ],
      "name": "AssetAdded",
      "type": "event"
    },
    {
      "anonymous": false,
      "inputs": [
        {
          "indexed": false,
          "internalType": "address",
          "name": "fundAddress",
          "type": "address"
        },
        {
          "indexed": false,
          "internalType": "address",
          "name": "manager",
          "type": "address"
        },
        {
          "indexed": false,
          "internalType": "bytes32",
          "name": "assetKey",
          "type": "bytes32"
        }
      ],
      "name": "AssetRemoved",
      "type": "event"
    },
    {
      "anonymous": false,
      "inputs": [
        {
          "indexed": false,
          "internalType": "address",
          "name": "fundAddress",
          "type": "address"
        },
        {
          "indexed": false,
          "internalType": "address",
          "name": "manager",
          "type": "address"
        },
        {
          "indexed": false,
          "internalType": "bytes32",
          "name": "sourceKey",
          "type": "bytes32"
        },
        {
          "indexed": false,
          "internalType": "uint256",
          "name": "sourceAmount",
          "type": "uint256"
        },
        {
          "indexed": false,
          "internalType": "bytes32",
          "name": "destinationKey",
          "type": "bytes32"
        },
        {
          "indexed": false,
          "internalType": "uint256",
          "name": "destinationAmount",
          "type": "uint256"
        },
        {
          "indexed": false,
          "internalType": "uint256",
          "name": "time",
          "type": "uint256"
        }
      ],
      "name": "Exchange",
      "type": "event"
    },
    {
      "anonymous": false,
      "inputs": [
        {
          "indexed": false,
          "internalType": "uint256",
          "name": "newNumerator",
          "type": "uint256"
        },
        {
          "indexed": false,
          "internalType": "uint256",
          "name": "announcedFeeActivationTime",
          "type": "uint256"
        }
      ],
      "name": "ManagerFeeIncreaseAnnounced",
      "type": "event"
    },
    {
      "anonymous": false,
      "inputs": [],
      "name": "ManagerFeeIncreaseRenounced",
      "type": "event"
    },
    {
      "anonymous": false,
      "inputs": [
        {
          "indexed": false,
          "internalType": "address",
          "name": "fundAddress",
          "type": "address"
        },
        {
          "indexed": false,
          "internalType": "address",
          "name": "manager",
          "type": "address"
        },
        {
          "indexed": false,
          "internalType": "uint256",
          "name": "numerator",
          "type": "uint256"
        },
        {
          "indexed": false,
          "internalType": "uint256",
          "name": "denominator",
          "type": "uint256"
        }
      ],
      "name": "ManagerFeeSet",
      "type": "event"
    },
    {
      "anonymous": false,
      "inputs": [
        {
          "indexed": false,
          "internalType": "address",
          "name": "newManager",
          "type": "address"
        },
        {
          "indexed": false,
          "internalType": "string",
          "name": "newManagerName",
          "type": "string"
        }
      ],
      "name": "ManagerUpdated",
      "type": "event"
    },
    {
      "inputs": [
        {
          "internalType": "address",
          "name": "member",
          "type": "address"
        }
      ],
      "name": "addMember",
      "outputs": [],
      "stateMutability": "nonpayable",
      "type": "function"
    },
    {
      "inputs": [
        {
          "internalType": "address[]",
          "name": "members",
          "type": "address[]"
        }
      ],
      "name": "addMembers",
      "outputs": [],
      "stateMutability": "nonpayable",
      "type": "function"
    },
    {
      "inputs": [
        {
          "internalType": "bytes32",
          "name": "key",
          "type": "bytes32"
        }
      ],
      "name": "addToSupportedAssets",
      "outputs": [],
      "stateMutability": "nonpayable",
      "type": "function"
    },
    {
      "inputs": [],
      "name": "addressResolver",
      "outputs": [
        {
          "internalType": "contract IAddressResolver",
          "name": "",
          "type": "address"
        }
      ],
      "stateMutability": "view",
      "type": "function"
    },
    {
      "inputs": [
        {
          "internalType": "uint256",
          "name": "numerator",
          "type": "uint256"
        }
      ],
      "name": "announceManagerFeeIncrease",
      "outputs": [],
      "stateMutability": "nonpayable",
      "type": "function"
    },
    {
      "inputs": [],
      "name": "announcedFeeIncreaseNumerator",
      "outputs": [
        {
          "internalType": "uint256",
          "name": "",
          "type": "uint256"
        }
      ],
      "stateMutability": "view",
      "type": "function"
    },
    {
      "inputs": [],
      "name": "announcedFeeIncreaseTimestamp",
      "outputs": [
        {
          "internalType": "uint256",
          "name": "",
          "type": "uint256"
        }
      ],
      "stateMutability": "view",
      "type": "function"
    },
    {
      "inputs": [
        {
          "internalType": "bytes32",
          "name": "",
          "type": "bytes32"
        }
      ],
      "name": "assetPosition",
      "outputs": [
        {
          "internalType": "uint256",
          "name": "",
          "type": "uint256"
        }
      ],
      "stateMutability": "view",
      "type": "function"
    },
    {
      "inputs": [
        {
          "internalType": "bytes32",
          "name": "key",
          "type": "bytes32"
        }
      ],
      "name": "assetValue",
      "outputs": [
        {
          "internalType": "uint256",
          "name": "",
          "type": "uint256"
        }
      ],
      "stateMutability": "view",
      "type": "function"
    },
    {
      "inputs": [
        {
          "internalType": "address",
          "name": "newManager",
          "type": "address"
        },
        {
          "internalType": "string",
          "name": "newManagerName",
          "type": "string"
        }
      ],
      "name": "changeManager",
      "outputs": [],
      "stateMutability": "nonpayable",
      "type": "function"
    },
    {
      "inputs": [],
      "name": "commitManagerFeeIncrease",
      "outputs": [],
      "stateMutability": "nonpayable",
      "type": "function"
    },
    {
      "inputs": [
        {
          "internalType": "bytes32",
          "name": "sourceKey",
          "type": "bytes32"
        },
        {
          "internalType": "uint256",
          "name": "sourceAmount",
          "type": "uint256"
        },
        {
          "internalType": "bytes32",
          "name": "destinationKey",
          "type": "bytes32"
        }
      ],
      "name": "exchange",
      "outputs": [],
      "stateMutability": "nonpayable",
      "type": "function"
    },
    {
      "inputs": [],
      "name": "factory",
      "outputs": [
        {
          "internalType": "address",
          "name": "",
          "type": "address"
        }
      ],
      "stateMutability": "view",
      "type": "function"
    },
    {
      "inputs": [
        {
          "internalType": "bytes32",
          "name": "key",
          "type": "bytes32"
        }
      ],
      "name": "getAssetProxy",
      "outputs": [
        {
          "internalType": "address",
          "name": "",
          "type": "address"
        }
      ],
      "stateMutability": "view",
      "type": "function"
    },
    {
      "inputs": [],
      "name": "getFundComposition",
      "outputs": [
        {
          "internalType": "bytes32[]",
          "name": "",
          "type": "bytes32[]"
        },
        {
          "internalType": "uint256[]",
          "name": "",
          "type": "uint256[]"
        },
        {
          "internalType": "uint256[]",
          "name": "",
          "type": "uint256[]"
        }
      ],
      "stateMutability": "view",
      "type": "function"
    },
    {
      "inputs": [],
      "name": "getManagerFee",
      "outputs": [
        {
          "internalType": "uint256",
          "name": "",
          "type": "uint256"
        },
        {
          "internalType": "uint256",
          "name": "",
          "type": "uint256"
        }
      ],
      "stateMutability": "view",
      "type": "function"
    },
    {
      "inputs": [],
      "name": "getManagerFeeIncreaseInfo",
      "outputs": [
        {
          "internalType": "uint256",
          "name": "",
          "type": "uint256"
        },
        {
          "internalType": "uint256",
          "name": "",
          "type": "uint256"
        }
      ],
      "stateMutability": "view",
      "type": "function"
    },
    {
      "inputs": [],
      "name": "getMembers",
      "outputs": [
        {
          "internalType": "address[]",
          "name": "",
          "type": "address[]"
        }
      ],
      "stateMutability": "view",
      "type": "function"
    },
    {
      "inputs": [],
      "name": "getSupportedAssets",
      "outputs": [
        {
          "internalType": "bytes32[]",
          "name": "",
          "type": "bytes32[]"
        }
      ],
      "stateMutability": "view",
      "type": "function"
    },
    {
      "inputs": [],
      "name": "getSuspendedAssets",
      "outputs": [
        {
          "internalType": "bytes32[]",
          "name": "",
          "type": "bytes32[]"
        },
        {
          "internalType": "bool[]",
          "name": "",
          "type": "bool[]"
        }
      ],
      "stateMutability": "view",
      "type": "function"
    },
    {
      "inputs": [
        {
          "internalType": "address",
          "name": "_factory",
          "type": "address"
        },
        {
          "internalType": "address",
          "name": "_manager",
          "type": "address"
        },
        {
          "internalType": "string",
          "name": "_managerName",
          "type": "string"
        },
        {
          "internalType": "contract IAddressResolver",
          "name": "_addressResolver",
          "type": "address"
        },
        {
          "internalType": "bytes32[]",
          "name": "_supportedAssets",
          "type": "bytes32[]"
        }
      ],
      "name": "initialize",
      "outputs": [],
      "stateMutability": "nonpayable",
      "type": "function"
    },
    {
      "inputs": [
        {
          "internalType": "bytes32",
          "name": "key",
          "type": "bytes32"
        }
      ],
      "name": "isAssetSupported",
      "outputs": [
        {
          "internalType": "bool",
          "name": "",
          "type": "bool"
        }
      ],
      "stateMutability": "view",
      "type": "function"
    },
    {
      "inputs": [
        {
          "internalType": "address",
          "name": "member",
          "type": "address"
        }
      ],
      "name": "isMemberAllowed",
      "outputs": [
        {
          "internalType": "bool",
          "name": "",
          "type": "bool"
        }
      ],
      "stateMutability": "view",
      "type": "function"
    },
    {
      "inputs": [],
      "name": "manager",
      "outputs": [
        {
          "internalType": "address",
          "name": "",
          "type": "address"
        }
      ],
      "stateMutability": "view",
      "type": "function"
    },
    {
      "inputs": [],
      "name": "managerName",
      "outputs": [
        {
          "internalType": "string",
          "name": "",
          "type": "string"
        }
      ],
      "stateMutability": "view",
      "type": "function"
    },
    {
      "inputs": [],
      "name": "numberOfMembers",
      "outputs": [
        {
          "internalType": "uint256",
          "name": "",
          "type": "uint256"
        }
      ],
      "stateMutability": "view",
      "type": "function"
    },
    {
      "inputs": [],
      "name": "numberOfSupportedAssets",
      "outputs": [
        {
          "internalType": "uint256",
          "name": "",
          "type": "uint256"
        }
      ],
      "stateMutability": "view",
      "type": "function"
    },
    {
      "inputs": [
        {
          "internalType": "bytes32",
          "name": "",
          "type": "bytes32"
        }
      ],
      "name": "persistentAsset",
      "outputs": [
        {
          "internalType": "bool",
          "name": "",
          "type": "bool"
        }
      ],
      "stateMutability": "view",
      "type": "function"
    },
    {
      "inputs": [
        {
          "internalType": "bytes32",
          "name": "key",
          "type": "bytes32"
        }
      ],
      "name": "removeFromSupportedAssets",
      "outputs": [],
      "stateMutability": "nonpayable",
      "type": "function"
    },
    {
      "inputs": [
        {
          "internalType": "address",
          "name": "member",
          "type": "address"
        }
      ],
      "name": "removeMember",
      "outputs": [],
      "stateMutability": "nonpayable",
      "type": "function"
    },
    {
      "inputs": [
        {
          "internalType": "address[]",
          "name": "members",
          "type": "address[]"
        }
      ],
      "name": "removeMembers",
      "outputs": [],
      "stateMutability": "nonpayable",
      "type": "function"
    },
    {
      "inputs": [],
      "name": "removeTrader",
      "outputs": [],
      "stateMutability": "nonpayable",
      "type": "function"
    },
    {
      "inputs": [],
      "name": "renounceManagerFeeIncrease",
      "outputs": [],
      "stateMutability": "nonpayable",
      "type": "function"
    },
    {
      "inputs": [
        {
          "internalType": "address",
          "name": "_addressResolver",
          "type": "address"
        }
      ],
      "name": "setAddressResolver",
      "outputs": [],
      "stateMutability": "nonpayable",
      "type": "function"
    },
    {
      "inputs": [
        {
          "internalType": "uint256",
          "name": "numerator",
          "type": "uint256"
        }
      ],
      "name": "setManagerFeeNumerator",
      "outputs": [],
      "stateMutability": "nonpayable",
      "type": "function"
    },
    {
      "inputs": [
        {
          "internalType": "address",
          "name": "newTrader",
          "type": "address"
        }
      ],
      "name": "setTrader",
      "outputs": [],
      "stateMutability": "nonpayable",
      "type": "function"
    },
    {
      "inputs": [
        {
          "internalType": "uint256",
          "name": "",
          "type": "uint256"
        }
      ],
      "name": "supportedAssets",
      "outputs": [
        {
          "internalType": "bytes32",
          "name": "",
          "type": "bytes32"
        }
      ],
      "stateMutability": "view",
      "type": "function"
    },
    {
      "inputs": [],
      "name": "trader",
      "outputs": [
        {
          "internalType": "address",
          "name": "",
          "type": "address"
        }
      ],
      "stateMutability": "view",
      "type": "function"
    },
    {
      "inputs": [
        {
          "internalType": "bytes32",
          "name": "key",
          "type": "bytes32"
        }
      ],
      "name": "validateAsset",
      "outputs": [
        {
          "internalType": "bool",
          "name": "",
          "type": "bool"
        }
      ],
      "stateMutability": "view",
      "type": "function"
    }
  ],
  "bytecode": "0x60806040523480156200001c576000806200001962000023565b50505b5062000090565b632a2a7adb598160e01b8152600481016020815285602082015260005b868110156200005d57808601518282016040015260200162000040565b506020828760640184336000905af158600e01573d6000803e3d6000fd5b3d6001141558600a015760016000f35b505050565b61473e80620000a06000396000f3fe60806040523480156100195760008061001661424c565b50505b50600436106102465760003560e01c80638f32343911610144578063d3cfb3b6116100c1578063eb94917d11610085578063eb94917d14610902578063ed5b165d14610a90578063ee52a2f314610a98578063f09d14d714610aca578063fed4416a14610bb057610246565b8063d3cfb3b614610862578063d44fa33e14610888578063d78d7c2e146108ae578063e5406dbf146108d4578063e5ea7759146108dc57610246565b8063b8bd81e611610108578063b8bd81e6146107ce578063bbbf725b146107d6578063c45a015514610805578063c68dbb371461080d578063ca6d56dc1461083357610246565b80638f3234391461072c578063936553c4146107345780639eab52531461073c578063a30e3fa914610797578063a6bc18f91461079f57610246565b806346ee84b0116101d2578063670797491161019657806367079749146106155780636e890f3c1461064f5780636f4d469b146106575780637b4d0c631461071c5780637c8afd511461072457610246565b806346ee84b014610425578063481c6a75146104ea57806352213663146104f257806353d9133e146105c957806353f064c9146105ef57610246565b8063143023871161021957806314302387146103075780631758078b14610336578063198055381461033e57806321f8c9841461035e5780633ded6530146103ff57610246565b8063023f21de146102545780630499123f1461027c57806305a2ee2a146102b45780630b1ca49a146102d8575b60008061025161424c565b50505b61027a600480360360208110156102735760008061027061424c565b50505b5035610c2f565b005b6102a26004803603602081101561029b5760008061029861424c565b50505b5035610fd1565b60405190815260200160405180910390f35b6102bc61127f565b6040516001600160a01b03909116815260200160405180910390f35b61027a600480360360208110156102f7576000806102f461424c565b50505b50356001600160a01b031661129e565b61027a600480360360208110156103265760008061032361424c565b50505b50356001600160a01b0316611338565b6102bc6113ef565b610346611411565b60405191825260208201526040908101905180910390f35b610366611547565b604051808060200180602001838103835285818151815260200191508051906020019060200280838360005b838110156103aa578082015183820152602001610392565b50505050905001838103825284818151815260200191508051906020019060200280838360005b838110156103e95780820151838201526020016103d1565b5050505090500194505050505060405180910390f35b6102bc6004803603602081101561041e5760008061041b61424c565b50505b50356117ec565b61027a600480360360208110156104445760008061044161424c565b50505b810190602081018135600160201b8111156104675760008061046461424c565b50505b8201836020820111156104825760008061047f61424c565b50505b803590602001918460208302840111600160201b831117156104ac576000806104a961424c565b50505b919080806020026020016040519081016040528093929190818152602001838360200280828437600092019190915250929550611ab2945050505050565b6102bc611b8a565b61027a600480360360408110156105115760008061050e61424c565b50505b6001600160a01b038235169190810190604081016020820135600160201b8111156105445760008061054161424c565b50505b82018360208201111561055f5760008061055c61424c565b50505b803590602001918460018302840111600160201b831117156105895760008061058661424c565b50505b91908080601f0160208091040260200160405190810160405281815292919060208401838380828437600092019190915250929550611b96945050505050565b61027a600480360360208110156105e8576000806105e561424c565b50505b5035611d0a565b61027a6004803603602081101561060e5760008061060b61424c565b50505b5035611ddb565b61063b600480360360208110156106345760008061063161424c565b50505b50356120b4565b604051901515815260200160405180910390f35b61027a6120db565b61027a600480360360208110156106765760008061067361424c565b50505b810190602081018135600160201b8111156106995760008061069661424c565b50505b8201836020820111156106b4576000806106b161424c565b50505b803590602001918460208302840111600160201b831117156106de576000806106db61424c565b50505b9190808060200260200160405190810160405280939291908181526020018383602002808284376000920191909152509295506121fd945050505050565b6102a26122c5565b61027a6122d2565b6102a2612382565b6102a261238c565b61074461239f565b60405160208082528190810183818151815260200191508051906020019060200280838360005b8381101561078357808201518382015260200161076b565b505050509050019250505060405180910390f35b6102a2612426565b61027a600480360360208110156107be576000806107bb61424c565b50505b50356001600160a01b0316612433565b61027a6124c0565b61063b600480360360208110156107f5576000806107f261424c565b50505b50356001600160a01b031661258e565b6102bc6125b6565b6102a26004803603602081101561082c5760008061082961424c565b50505b50356125c2565b61027a600480360360208110156108525760008061084f61424c565b50505b50356001600160a01b03166125ea565b61027a600480360360208110156108815760008061087e61424c565b50505b5035612685565b61063b600480360360208110156108a7576000806108a461424c565b50505b503561270d565b6102a2600480360360208110156108cd576000806108ca61424c565b50505b5035612723565b61074461273b565b61063b600480360360208110156108fb576000806108f861424c565b50505b50356127a6565b61027a600480360360a08110156109215760008061091e61424c565b50505b6001600160a01b038235811692602081013590911691810190606081016040820135600160201b81111561095d5760008061095a61424c565b50505b8201836020820111156109785760008061097561424c565b50505b803590602001918460018302840111600160201b831117156109a25760008061099f61424c565b50505b91908080601f016020809104026020016040519081016040528181529291906020840183838082843760009201919091525092956001600160a01b03853516959094909350604081019250602001359050600160201b811115610a0d57600080610a0a61424c565b50505b820183602082011115610a2857600080610a2561424c565b50505b803590602001918460208302840111600160201b83111715610a5257600080610a4f61424c565b50505b9190808060200260200160405190810160405280939291908181526020018383602002808284376000920191909152509295506129fc945050505050565b610346612c25565b61027a60048036036060811015610ab757600080610ab461424c565b50505b5080359060208101359060400135612c44565b610ad26131c4565b60405180806020018060200180602001848103845287818151815260200191508051906020019060200280838360005b83811015610b1a578082015183820152602001610b02565b50505050905001848103835286818151815260200191508051906020019060200280838360005b83811015610b59578082015183820152602001610b41565b50505050905001848103825285818151815260200191508051906020019060200280838360005b83811015610b98578082015183820152602001610b80565b50505050905001965050505050505060405180910390f35b610bb86135f0565b60405160208082528190810183818151815260200191508051906020019080838360005b83811015610bf4578082015183820152602001610bdc565b50505050905090810190601f168015610c215780820380516001836020036101000a031916815260200191505b509250505060405180910390f35b6000606a610c3b6142b7565b906101000a90046001600160a01b03166001600160a01b0316638da5cb5b6040518163ffffffff1660e01b81526004016020604051808303818680610c7e614312565b158015610c9357600080610c9061424c565b50505b505a610c9d61435e565b5050505050158015610cbc573d6000803e3d6000610cb961424c565b50505b505050506040513d6020811015610cdb57600080610cd861424c565b50505b8101908080516001600160a01b0316925050505a610cf7614449565b6001600160a01b03161480610d2c5750610d0f611b8a565b6001600160a01b03165a610d21614449565b6001600160a01b0316145b80610d575750610d3a6113ef565b6001600160a01b03165a610d4c614449565b6001600160a01b0316145b610d9b5760405162461bcd60e51b81526004018080602001828103825260248152602001806146ec6024913960400191505060405180910390610d9861424c565b50505b610da48161270d565b610df35760405162461bcd60e51b8152602060048201526013602482015272185cdcd95d081b9bdd081cdd5c1c1bdc9d1959606a1b604482015260640160405180910390610df061424c565b50505b6000818152606d60205260409020600090610e0c6142b7565b906101000a900460ff1615610e5b5760405162461bcd60e51b81526004018080602001828103825260228152602001806146ca6022913960400191505060405180910390610e5861424c565b50505b610e64816127a6565b151560011415610fc557610e77816117ec565b6001600160a01b03166370a082315a63996d79a5598160e01b8152602081600483336000905af158600e01573d6000803e3d6000fd5b3d6001141558600a015760016000f35b8051925060005b6040811015610edb57600082820152602001610ec4565b5050506040516001600160e01b031960e084901b1681526001600160a01b0390911660048201526024016020604051808303818680610f18614312565b158015610f2d57600080610f2a61424c565b50505b505a610f3761435e565b5050505050158015610f56573d6000803e3d6000610f5361424c565b50505b505050506040513d6020811015610f7557600080610f7261424c565b50505b810190808051159250610fc59150505760405162461bcd60e51b81526004018080602001828103825260218152602001806146a96021913960400191505060405180910390610fc261424c565b50505b610fce816136a4565b50565b6000806069610fde6142b7565b906101000a90046001600160a01b03166001600160a01b03166321f8a7216c45786368616e6765526174657360981b6040516001600160e01b031960e084901b1681526004810191909152602401602060405180830381868061103f614312565b1580156110545760008061105161424c565b50505b505a61105e61435e565b505050505015801561107d573d6000803e3d600061107a61424c565b50505b505050506040513d602081101561109c5760008061109961424c565b50505b8101908080516001600160a01b0316925063654a60ac91508490506110c0816117ec565b6001600160a01b03166370a082315a63996d79a5598160e01b8152602081600483336000905af158600e01573d6000803e3d6000fd5b3d6001141558600a015760016000f35b8051925060005b60408110156111245760008282015260200161110d565b5050506040516001600160e01b031960e084901b1681526001600160a01b0390911660048201526024016020604051808303818680611161614312565b1580156111765760008061117361424c565b50505b505a61118061435e565b505050505015801561119f573d6000803e3d600061119c61424c565b50505b505050506040513d60208110156111be576000806111bb61424c565b50505b8101908080519250631cd554d160e21b915060409050516001600160e01b031960e086901b1681526004810193909352602483019190915260448201526064016020604051808303818680611211614312565b1580156112265760008061122361424c565b50505b505a61123061435e565b505050505015801561124f573d6000803e3d600061124c61424c565b50505b505050506040513d602081101561126e5760008061126b61424c565b50505b81019080805193505050505b919050565b6000606961128b6142b7565b906101000a90046001600160a01b031681565b6000806112a96142b7565b906101000a90046001600160a01b03166001600160a01b03165a6112cb614449565b6001600160a01b03161461131d5760405162461bcd60e51b815260206004820152600c60248201526b37b7363c9036b0b730b3b2b960a11b60448201526064016040518091039061131a61424c565b50505b6113268161258e565b61132f57610fce565b610fce8161386b565b6000606a6113446142b7565b906101000a90046001600160a01b03166001600160a01b03165a611366614449565b6001600160a01b0316146113b95760405162461bcd60e51b815260206004820152600d60248201526c3737903832b936b4b9b9b4b7b760991b6044820152606401604051809103906113b661424c565b50505b8060696001816113c76142b7565b816001600160a01b0302191690836001600160a01b03160217906113e961448f565b50505050565b60008060046113fc6142b7565b906101000a90046001600160a01b0316905090565b60008080606a61141f6142b7565b906101000a90046001600160a01b03166001600160a01b031663b7a545265a63996d79a5598160e01b8152602081600483336000905af158600e01573d6000803e3d6000fd5b3d6001141558600a015760016000f35b8051925060005b60408110156114935760008282015260200161147c565b5050506040516001600160e01b031960e084901b1681526001600160a01b039091166004820152602401604080518083038186806114cf614312565b1580156114e4576000806114e161424c565b50505b505a6114ee61435e565b505050505015801561150d573d6000803e3d600061150a61424c565b50505b505050506040513d604081101561152c5760008061152961424c565b50505b81019080805192919060200180519395509293505050509091565b6060806000606b806115576142b7565b9050905060608167ffffffffffffffff8111801561157d5760008061157a61424c565b50505b506040519080825280602002602001820160405280156115a7578160200160208202803683370190505b50905060608267ffffffffffffffff811180156115cc576000806115c961424c565b50505b506040519080825280602002602001820160405280156115f6578160200160208202803683370190505b50905060008060696116066142b7565b906101000a90046001600160a01b03166001600160a01b03166321f8a7216b53797374656d53746174757360a01b6040516001600160e01b031960e084901b16815260048101919091526024016020604051808303818680611666614312565b15801561167b5760008061167861424c565b50505b505a61168561435e565b50505050501580156116a4573d6000803e3d60006116a161424c565b50505b505050506040513d60208110156116c3576000806116c061424c565b50505b81019080805193506000925050505b848110156117e0576000606b82816116e86142b7565b81106116f057fe5b906000526020600020016117026142b7565b90508085838151811061171157fe5b602002602001018181525050826001600160a01b03166342a28e21826040516001600160e01b031960e084901b1681526004810191909152602401600060405180830381868061175f614312565b1580156117745760008061177161424c565b50505b505a61177e61435e565b5050505050925050508015611791575060015b6117b85760018483815181106117a357fe5b911515602092830291909101909101526117d7565b60008483815181106117c657fe5b911515602092830291909101909101525b506001016116d2565b50919450925050509091565b6000808060696117fa6142b7565b906101000a90046001600160a01b03166001600160a01b03166321f8a721680a6f2dce8d0cae8d2f60bb1b6040516001600160e01b031960e084901b16815260048101919091526024016020604051808303818680611857614312565b15801561186c5760008061186961424c565b50505b505a61187661435e565b5050505050158015611895573d6000803e3d600061189261424c565b50505b505050506040513d60208110156118b4576000806118b161424c565b50505b8101908080516001600160a01b03169250633260803991508590506040516001600160e01b031960e084901b16815260048101919091526024016020604051808303818680611901614312565b1580156119165760008061191361424c565b50505b505a61192061435e565b505050505015801561193f573d6000803e3d600061193c61424c565b50505b505050506040513d602081101561195e5760008061195b61424c565b50505b81019080805193505050506001600160a01b0381166119ba5760405162461bcd60e51b815260206004820152600b60248201526a696e76616c6964206b657960a81b6044820152606401604051809103906119b761424c565b50505b6000816001600160a01b031663ec5568896040518163ffffffff1660e01b815260040160206040518083038186806119f0614312565b158015611a0557600080611a0261424c565b50505b505a611a0f61435e565b5050505050158015611a2e573d6000803e3d6000611a2b61424c565b50505b505050506040513d6020811015611a4d57600080611a4a61424c565b50505b81019080805193505050506001600160a01b038116611aab5760405162461bcd60e51b815260206004820152600d60248201526c696e76616c69642070726f787960981b604482015260640160405180910390611aa861424c565b50505b9392505050565b600080611abd6142b7565b906101000a90046001600160a01b03166001600160a01b03165a611adf614449565b6001600160a01b031614611b315760405162461bcd60e51b815260206004820152600c60248201526b37b7363c9036b0b730b3b2b960a11b604482015260640160405180910390611b2e61424c565b50505b60005b8151811015611b8657611b59828281518110611b4c57fe5b602002602001015161258e565b611b6257611b7e565b611b7e828281518110611b7157fe5b602002602001015161386b565b600101611b34565b5050565b600080806113fc6142b7565b600080611ba16142b7565b906101000a90046001600160a01b03166001600160a01b03165a611bc3614449565b6001600160a01b031614611c155760405162461bcd60e51b815260206004820152600c60248201526b37b7363c9036b0b730b3b2b960a11b604482015260640160405180910390611c1261424c565b50505b816000600181611c236142b7565b816001600160a01b0302191690836001600160a01b0316021790611c4561448f565b505050806001908051611c5c9291602001906144dd565b507f6ed15082ad038474841528b5badca105106d4463e44b5d434130dfb299aa366982826040516001600160a01b038316815260406020820181815290820183818151815260200191508051906020019080838360005b83811015611ccb578082015183820152602001611cb3565b50505050905090810190601f168015611cf85780820380516001836020036101000a031916815260200191505b50935050505060405180910390a15050565b600080611d156142b7565b906101000a90046001600160a01b03166001600160a01b03165a611d37614449565b6001600160a01b03161480611d80575060006004611d536142b7565b906101000a90046001600160a01b03166001600160a01b03165a611d75614449565b6001600160a01b0316145b611dd25760405162461bcd60e51b815260206004820152601660248201527537b7363c9036b0b730b3b2b91037b9103a3930b232b960511b604482015260640160405180910390611dcf61424c565b50505b610fce816139de565b600080611de66142b7565b906101000a90046001600160a01b03166001600160a01b03165a611e08614449565b6001600160a01b031614611e5a5760405162461bcd60e51b815260206004820152600c60248201526b37b7363c9036b0b730b3b2b960a11b604482015260640160405180910390611e5761424c565b50505b600080606a611e676142b7565b906101000a90046001600160a01b03166001600160a01b0316635c9bfc2b6040518163ffffffff1660e01b81526004016020604051808303818680611eaa614312565b158015611ebf57600080611ebc61424c565b50505b505a611ec961435e565b5050505050158015611ee8573d6000803e3d6000611ee561424c565b50505b505050506040513d6020811015611f0757600080611f0461424c565b50505b810190808051935060009250611f1f91506114119050565b509050611f2c8183613cc0565b831115611f885760405162461bcd60e51b815260206004820152601960248201527f657863656564656420616c6c6f77656420696e63726561736500000000000000604482015260640160405180910390611f8561424c565b50505b600080606a611f956142b7565b906101000a90046001600160a01b03166001600160a01b031663ebee461d6040518163ffffffff1660e01b81526004016020604051808303818680611fd8614312565b158015611fed57600080611fea61424c565b50505b505a611ff761435e565b5050505050158015612016573d6000803e3d600061201361424c565b50505b505050506040513d60208110156120355760008061203261424c565b50505b8101908080519350869250829150606e905061204f61448f565b505050805a61205c61457d565b0180606f61206861448f565b5050507f4db9119741646c419f1ceccdf112b5b9a9b4516355e742e1fa9c479f4dec98da84606f6120976142b7565b60405191825260208201526040908101905180910390a150505050565b606d602052806000526040600020600091506120ce6142b7565b906101000a900460ff1681565b6000806120e66142b7565b906101000a90046001600160a01b03166001600160a01b03165a612108614449565b6001600160a01b03161461215a5760405162461bcd60e51b815260206004820152600c60248201526b37b7363c9036b0b730b3b2b960a11b60448201526064016040518091039061215761424c565b50505b606f6121646142b7565b5a61216d61457d565b10156121c85760405162461bcd60e51b815260206004820152601960248201527f66656520696e6372656173652064656c617920616374697665000000000000006044820152606401604051809103906121c561424c565b50505b6121da606e6121d56142b7565b613d2b565b600080606e6121e761448f565b5050506000606f81906121f861448f565b505050565b6000806122086142b7565b906101000a90046001600160a01b03166001600160a01b03165a61222a614449565b6001600160a01b03161461227c5760405162461bcd60e51b815260206004820152600c60248201526b37b7363c9036b0b730b3b2b960a11b60448201526064016040518091039061227961424c565b50505b60005b8151811015611b8657612297828281518110611b4c57fe5b156122a1576122bd565b6122bd8282815181106122b057fe5b602002602001015161402d565b60010161227f565b606f6122cf6142b7565b81565b6000806122dd6142b7565b906101000a90046001600160a01b03166001600160a01b03165a6122ff614449565b6001600160a01b0316146123515760405162461bcd60e51b815260206004820152600c60248201526b37b7363c9036b0b730b3b2b960a11b60448201526064016040518091039061234e61424c565b50505b600060046001816123606142b7565b816001600160a01b0302191690836001600160a01b03160217906121f861448f565b606e6122cf6142b7565b6000606b806123996142b7565b91505090565b60606002806123ac6142b7565b8060200260200160405190810160405281815291906020830182806123cf6142b7565b801561241c57602002820191906000526020600020905b6000826123f16142b7565b906101000a90046001600160a01b03166001600160a01b0316815260200190600101908083116123e6575b5050505050905090565b60006002806123996142b7565b60008061243e6142b7565b906101000a90046001600160a01b03166001600160a01b03165a612460614449565b6001600160a01b0316146124b25760405162461bcd60e51b815260206004820152600c60248201526b37b7363c9036b0b730b3b2b960a11b6044820152606401604051809103906124af61424c565b50505b8060046001816113c76142b7565b6000806124cb6142b7565b906101000a90046001600160a01b03166001600160a01b03165a6124ed614449565b6001600160a01b03161461253f5760405162461bcd60e51b815260206004820152600c60248201526b37b7363c9036b0b730b3b2b960a11b60448201526064016040518091039061253c61424c565b50505b600080606e61254c61448f565b5050506000606f819061255d61448f565b5050507fc6f04bf43cbdf1ba5d51b4afa160bb3c7e13858b1409aa32868b239bb2f8d84960405160405180910390a1565b6001600160a01b03811660009081526003602052604081206125ae6142b7565b151592915050565b6000606a61128b6142b7565b606b81816125ce6142b7565b81106125d657fe5b9060005260206000200190506122cf6142b7565b6000806125f56142b7565b906101000a90046001600160a01b03166001600160a01b03165a612617614449565b6001600160a01b0316146126695760405162461bcd60e51b815260206004820152600c60248201526b37b7363c9036b0b730b3b2b960a11b60448201526064016040518091039061266661424c565b50505b6126728161258e565b1561267c57610fce565b610fce8161402d565b6000806126906142b7565b906101000a90046001600160a01b03166001600160a01b03165a6126b2614449565b6001600160a01b0316146127045760405162461bcd60e51b815260206004820152600c60248201526b37b7363c9036b0b730b3b2b960a11b60448201526064016040518091039061270161424c565b50505b610fce81613d2b565b6000818152606c602052604081206125ae6142b7565b606c60205280600052604060002090506122cf6142b7565b6060606b806127486142b7565b80602002602001604051908101604052818152919060208301828061276b6142b7565b801561241c57602002820191906000526020600020905b8161278b6142b7565b81526020019060010190808311612782575050505050905090565b6000808060696127b46142b7565b906101000a90046001600160a01b03166001600160a01b03166321f8a721680a6f2dce8d0cae8d2f60bb1b6040516001600160e01b031960e084901b16815260048101919091526024016020604051808303818680612811614312565b1580156128265760008061282361424c565b50505b505a61283061435e565b505050505015801561284f573d6000803e3d600061284c61424c565b50505b505050506040513d602081101561286e5760008061286b61424c565b50505b8101908080516001600160a01b03169250633260803991508590506040516001600160e01b031960e084901b168152600481019190915260240160206040518083038186806128bb614312565b1580156128d0576000806128cd61424c565b50505b505a6128da61435e565b50505050501580156128f9573d6000803e3d60006128f661424c565b50505b505050506040513d60208110156129185760008061291561424c565b50505b81019080805193505050506001600160a01b03811661293b57600091505061127a565b6000816001600160a01b031663ec5568896040518163ffffffff1660e01b81526004016020604051808303818680612971614312565b1580156129865760008061298361424c565b50505b505a61299061435e565b50505050501580156129af573d6000803e3d60006129ac61424c565b50505b505050506040513d60208110156129ce576000806129cb61424c565b50505b81019080805193505050506001600160a01b0381166129f25760009250505061127a565b5060019392505050565b60016036612a086142b7565b906101000a900460ff1680612a205750612a206140b9565b80612a3e575060006036612a326142b7565b906101000a900460ff16155b612a825760405162461bcd60e51b815260040180806020018281038252602e815260200180614710602e913960400191505060405180910390612a7f61424c565b50505b600060016036612a906142b7565b906101000a900460ff161590508015612af7576001603661010081612ab36142b7565b8160ff02191690831515021790612ac861448f565b5050506001603660006101000a81612ade6142b7565b8160ff02191690831515021790612af361448f565b5050505b612b01858561412a565b85606a600181612b0f6142b7565b816001600160a01b0302191690836001600160a01b0316021790612b3161448f565b50505082606960006101000a81612b466142b7565b816001600160a01b0302191690836001600160a01b0316021790612b6861448f565b505050612b7b631cd554d160e21b6139de565b60005b82518160ff161015612bb157612ba9838260ff1681518110612b9c57fe5b60200260200101516139de565b600101612b7e565b50631cd554d160e21b6000908152606d60205260019060409020600181612bd66142b7565b8160ff02191690831515021790612beb61448f565b5050508015612c1d576000603661010081612c046142b7565b8160ff02191690831515021790612c1961448f565b5050505b505050505050565b600080606e612c326142b7565b606f612c3c6142b7565b915091509091565b600080612c4f6142b7565b906101000a90046001600160a01b03166001600160a01b03165a612c71614449565b6001600160a01b03161480612cba575060006004612c8d6142b7565b906101000a90046001600160a01b03166001600160a01b03165a612caf614449565b6001600160a01b0316145b612d0c5760405162461bcd60e51b815260206004820152601660248201527537b7363c9036b0b730b3b2b91037b9103a3930b232b960511b604482015260640160405180910390612d0961424c565b50505b612d158361270d565b612d6e5760405162461bcd60e51b815260206004820152601b60248201527f756e737570706f7274656420736f757263652063757272656e63790000000000604482015260640160405180910390612d6b61424c565b50505b612d778161270d565b612dd05760405162461bcd60e51b815260206004820181905260248201527f756e737570706f727465642064657374696e6174696f6e2063757272656e6379604482015260640160405180910390612dcd61424c565b50505b6000806069612ddd6142b7565b906101000a90046001600160a01b03166001600160a01b03166321f8a721680a6f2dce8d0cae8d2f60bb1b6040516001600160e01b031960e084901b16815260048101919091526024016020604051808303818680612e3a614312565b158015612e4f57600080612e4c61424c565b50505b505a612e5961435e565b5050505050158015612e78573d6000803e3d6000612e7561424c565b50505b505050506040513d6020811015612e9757600080612e9461424c565b50505b810190808051935060009250506001600160a01b03831690506330ead76086868685606a612ec36142b7565b906101000a90046001600160a01b03166001600160a01b0316631d68702d6040518163ffffffff1660e01b81526004016020604051808303818680612f06614312565b158015612f1b57600080612f1861424c565b50505b505a612f2561435e565b5050505050158015612f44573d6000803e3d6000612f4161424c565b50505b505050506040513d6020811015612f6357600080612f6061424c565b50505b810190808051925060009150606a9050612f7b6142b7565b906101000a90046001600160a01b03166001600160a01b03166349f7c02d6040518163ffffffff1660e01b81526004016020604051808303818680612fbe614312565b158015612fd357600080612fd061424c565b50505b505a612fdd61435e565b5050505050158015612ffc573d6000803e3d6000612ff961424c565b50505b505050506040513d602081101561301b5760008061301861424c565b50505b81019080805192506040915050516001600160e01b031960e088901b1681526004810195909552602485019390935260448401919091526001600160a01b03166064830152608482015260a4016020604051808303816000878061307d614312565b1580156130925760008061308f61424c565b50505b505a61309c6145c3565b5050505050501580156130bc573d6000803e3d60006130b961424c565b50505b505050506040513d60208110156130db576000806130d861424c565b50505b81019080805193507f2f3156bec1dba8438caa2579a04e750d9ca242f1c16d87594c77efdbede59bbe925050505a63996d79a5598160e01b8152602081600483336000905af158600e01573d6000803e3d6000fd5b3d6001141558600a015760016000f35b8051925060005b604081101561315e57600082820152602001613147565b5050505a61316a614449565b878787865a61317761457d565b6040516001600160a01b0397881681529590961660208601526040808601949094526060850192909252608084015260a083015260c082019290925260e001905180910390a15050505050565b60608060606000606b806131d66142b7565b9050905060608167ffffffffffffffff811180156131fc576000806131f961424c565b50505b50604051908082528060200260200182016040528015613226578160200160208202803683370190505b50905060608267ffffffffffffffff8111801561324b5760008061324861424c565b50505b50604051908082528060200260200182016040528015613275578160200160208202803683370190505b50905060608367ffffffffffffffff8111801561329a5760008061329761424c565b50505b506040519080825280602002602001820160405280156132c4578160200160208202803683370190505b50905060008060696132d46142b7565b906101000a90046001600160a01b03166001600160a01b03166321f8a7216c45786368616e6765526174657360981b6040516001600160e01b031960e084901b16815260048101919091526024016020604051808303818680613335614312565b15801561334a5760008061334761424c565b50505b505a61335461435e565b5050505050158015613373573d6000803e3d600061337061424c565b50505b505050506040513d60208110156133925760008061338f61424c565b50505b81019080805193506000925050505b858110156135e2576000606b82816133b76142b7565b81106133bf57fe5b906000526020600020016133d16142b7565b90506133dc816117ec565b6001600160a01b03166370a082315a63996d79a5598160e01b8152602081600483336000905af158600e01573d6000803e3d6000fd5b3d6001141558600a015760016000f35b8051925060005b604081101561344057600082820152602001613429565b5050506040516001600160e01b031960e084901b1681526001600160a01b039091166004820152602401602060405180830381868061347d614312565b1580156134925760008061348f61424c565b50505b505a61349c61435e565b50505050501580156134bb573d6000803e3d60006134b861424c565b50505b505050506040513d60208110156134da576000806134d761424c565b50505b8101908080519250879150849050815181106134f257fe5b6020026020010181815250508086838151811061350b57fe5b602002602001018181525050826001600160a01b031663ac82f608826040516001600160e01b031960e084901b16815260048101919091526024016020604051808303818680613559614312565b15801561356e5760008061356b61424c565b50505b505a61357861435e565b5050505050158015613597573d6000803e3d600061359461424c565b50505b505050506040513d60208110156135b6576000806135b361424c565b50505b8101908080519250869150849050815181106135ce57fe5b6020908102919091010152506001016133a1565b509297919650945092505050565b60606001806135fd6142b7565b600181600116156101000203166002900480601f0160208091040260200160405190810160405281815291906020830182806136376142b7565b6001816001161561010002031660029004801561241c5780601f106136715761010080836136636142b7565b04028352916020019161241c565b820191906000526020600020905b816136886142b7565b8152906001019060200180831161367f57509395945050505050565b6000606b806136b16142b7565b6000848152606c60205290925090506136d76001604083206136d16142b7565b90614171565b90506000606b6136e8846001614171565b816136f16142b7565b81106136f957fe5b9060005260206000200161370b6142b7565b905080606b838161371a6142b7565b811061372257fe5b90600052602060002001819061373661448f565b5061374691508390506001613cc0565b6000828152606c60205260409020819061375e61448f565b5050506000848152606c60205260408120819061377961448f565b505050606b806137876142b7565b8061378e57fe5b600190038181906000526020600020016000906137a961448f565b5050906137b461448f565b50507f241d622959843ef6d15b4517709d11e054e1c06a2733f7773837c3d2377d8a895a63996d79a5598160e01b8152602081600483336000905af158600e01573d6000803e3d6000fd5b3d6001141558600a015760016000f35b8051925060005b604081101561382d57600082820152602001613816565b505050613838611b8a565b866040516001600160a01b039384168152919092166020820152604080820192909252606001905180910390a150505050565b60006002806138786142b7565b6001600160a01b0384166000908152600360205290925090506138a26001604083206136d16142b7565b9050600060026138b3846001614171565b816138bc6142b7565b81106138c457fe5b906000526020600020016000906138d96142b7565b906101000a90046001600160a01b0316905080600283816138f86142b7565b811061390057fe5b906000526020600020016001816139156142b7565b816001600160a01b0302191690836001600160a01b031602179061393761448f565b5061394791508390506001613cc0565b6001600160a01b0382166000908152600360205260409020819061396961448f565b5050506001600160a01b0384166000908152600360205260408120819061398e61448f565b50505060028061399c6142b7565b806139a357fe5b600190038181906000526020600020016001816139be6142b7565b906001600160a01b03021916906139d361448f565b505090612c1d61448f565b6000606a6139ea6142b7565b906101000a90046001600160a01b03166001600160a01b031663aa12ae4d6040518163ffffffff1660e01b81526004016020604051808303818680613a2d614312565b158015613a4257600080613a3f61424c565b50505b505a613a4c61435e565b5050505050158015613a6b573d6000803e3d6000613a6861424c565b50505b505050506040513d6020811015613a8a57600080613a8761424c565b50505b8101908080519250606b9150819050613aa16142b7565b905010613af65760405162461bcd60e51b81526020600482015260166024820152751b585e1a5b5d5b48185cdcd95d1cc81c995858da195960521b604482015260640160405180910390613af361424c565b50505b613aff8161270d565b15613b595760405162461bcd60e51b815260206004820152601760248201527f617373657420616c726561647920737570706f72746564000000000000000000604482015260640160405180910390613b5661424c565b50505b613b62816127a6565b1515600114613baf5760405162461bcd60e51b815260206004820152600c60248201526b1b9bdd08185b88185cdcd95d60a21b604482015260640160405180910390613bac61424c565b50505b80606b80600181613bbe6142b7565b018082613bc961448f565b505060009283526000190191602091502001613be361448f565b5050606b80613bf06142b7565b6000838152606c602052909150604090208190613c0b61448f565b5050507f4c719ca79dbb56150643ac79f2fbfa02370838ed0d116fc28b9703f5a071c4e25a63996d79a5598160e01b8152602081600483336000905af158600e01573d6000803e3d6000fd5b3d6001141558600a015760016000f35b8051925060005b6040811015613c8557600082820152602001613c6e565b505050613c90611b8a565b836040516001600160a01b039384168152919092166020820152604080820192909252606001905180910390a150565b600082820183811015613d225760405162461bcd60e51b815260206004820152601b60248201527f536166654d6174683a206164646974696f6e206f766572666c6f770000000000604482015260640160405180910390613d1f61424c565b50505b90505b92915050565b6000606a613d376142b7565b906101000a90046001600160a01b03166001600160a01b031663046b72c45a63996d79a5598160e01b8152602081600483336000905af158600e01573d6000803e3d6000fd5b3d6001141558600a015760016000f35b8051925060005b6040811015613dab57600082820152602001613d94565b505050836040516001600160e01b031960e085901b1681526001600160a01b039092166004830152602482015260440160006040518083038160008780613df0614312565b158015613e0557600080613e0261424c565b50505b505a613e0f6145c3565b505050505050158015613e2f573d6000803e3d6000613e2c61424c565b50505b50505050600080606a600090613e436142b7565b906101000a90046001600160a01b03166001600160a01b031663b7a545265a63996d79a5598160e01b8152602081600483336000905af158600e01573d6000803e3d6000fd5b3d6001141558600a015760016000f35b8051925060005b6040811015613eb757600082820152602001613ea0565b5050506040516001600160e01b031960e084901b1681526001600160a01b03909116600482015260240160408051808303818680613ef3614312565b158015613f0857600080613f0561424c565b50505b505a613f1261435e565b5050505050158015613f31573d6000803e3d6000613f2e61424c565b50505b505050506040513d6040811015613f5057600080613f4d61424c565b50505b81019080805192919060200180519395509293507f1780c04ddc6f0b32d866c7a3d7583f53515ef49ed2126af868f804f491601266925050505a63996d79a5598160e01b8152602081600483336000905af158600e01573d6000803e3d6000fd5b3d6001141558600a015760016000f35b8051925060005b6040811015613fdf57600082820152602001613fc8565b505050613fea611b8a565b848460405180856001600160a01b03168152602001846001600160a01b0316815260200183815260200182815260200194505050505060405180910390a1505050565b8060028060018161403c6142b7565b01808261404761448f565b5050600092835260001901916020915020016001816140646142b7565b816001600160a01b0302191690836001600160a01b031602179061408661448f565b5050506002806140946142b7565b6001600160a01b038316600090815260036020529091506040902081906113e961448f565b6000805a63996d79a5598160e01b8152602081600483336000905af158600e01573d6000803e3d6000fd5b3d6001141558600a015760016000f35b8051925060005b6040811015614112576000828201526020016140fb565b5050509050600081614122614312565b159250505090565b8160006001816141386142b7565b816001600160a01b0302191690836001600160a01b031602179061415a61448f565b5050508060019080516121f89291602001906144dd565b6000613d22838360405160408082019052601e81527f536166654d6174683a207375627472616374696f6e206f766572666c6f7700006020820152600081848411156142445760405162461bcd60e51b81526004018080602001828103825283818151815260200191508051906020019080838360005b838110156142005780820151838201526020016141e8565b50505050905090810190601f16801561422d5780820380516001836020036101000a031916815260200191505b50925050506040518091039061424161424c565b50505b505050900390565b632a2a7adb598160e01b8152600481016020815285602082015260005b86811015614284578086015182820160400152602001614269565b506020828760640184336000905af158600e01573d6000803e3d6000fd5b3d6001141558600a015760016000f35b505050565b6303daa959598160e01b8152836004820152602081602483336000905af158600e01573d6000803e3d6000fd5b3d6001141558600a015760016000f35b8051935060005b60408110156121f8576000828201526020016142fb565b638435035b598160e01b8152836004820152602081602483336000905af158600e01573d6000803e3d6000fd5b3d6001141558600a015760016000f35b805160008252935060206142fb565b638540661f598160e01b815261438f565b8080831115613d25575090919050565b8080831015613d25575090919050565b836004820152846024820152606060448201528660648201526084810160005b888110156143c75780880151828201526020016143af565b506060828960a40184336000905af158600e01573d6000803e3d6000fd5b3d6001141558600a015760016000f35b815160408301513d6000853e8b8b82606087013350600060045af1505961441c8d3d61437f565b8c01614428818761436f565b5b8281101561443d5760008152602001614429565b50929c50505050505050565b6373509064598160e01b8152602081600483336000905af158600e01573d6000803e3d6000fd5b3d6001141558600a015760016000f35b805160008252935060206142fb565b6322bd64c0598160e01b8152836004820152846024820152600081604483336000905af158600e01573d6000803e3d6000fd5b3d6001141558600a015760016000f35b6000815260206142fb565b82806144e76142b7565b600181600116156101000203166002900490600052602060002090601f016020900481019282601f1061452e57805160ff1916838001178561452761448f565b505061456d565b8280016001018561453d61448f565b5050821561456d579182015b8281111561456d5782518261455c61448f565b505091602001919060010190614549565b50614579929150614689565b5090565b63bdbf8c36598160e01b8152602081600483336000905af158600e01573d6000803e3d6000fd5b3d6001141558600a015760016000f35b805160008252935060206142fb565b6385979f76598160e01b8152836004820152846024820152606060448201528760648201526084810160005b898110156146075780890151828201526020016145ef565b506060828a60a40184336000905af158600e01573d6000803e3d6000fd5b3d6001141558600a015760016000f35b815160408301513d6000853e8c8c82606087013350600060045af1505961465c8e3d61437f565b8d01614668818761436f565b5b8281101561467d5760008152602001614669565b50929d50505050505050565b80821115614579576000808261469d61448f565b50505060010161468956fe6e6f6e2d656d7074792061737365742063616e6e6f742062652072656d6f76656470657273697374656e74206173736574732063616e27742062652072656d6f7665646f6e6c79206d616e616765722c20747261646572206f722050726f746f636f6c2044414f436f6e747261637420696e7374616e63652068617320616c7265616479206265656e20696e697469616c697a6564",
  "deployedBytecode": "0x60806040523480156100195760008061001661424c565b50505b50600436106102465760003560e01c80638f32343911610144578063d3cfb3b6116100c1578063eb94917d11610085578063eb94917d14610902578063ed5b165d14610a90578063ee52a2f314610a98578063f09d14d714610aca578063fed4416a14610bb057610246565b8063d3cfb3b614610862578063d44fa33e14610888578063d78d7c2e146108ae578063e5406dbf146108d4578063e5ea7759146108dc57610246565b8063b8bd81e611610108578063b8bd81e6146107ce578063bbbf725b146107d6578063c45a015514610805578063c68dbb371461080d578063ca6d56dc1461083357610246565b80638f3234391461072c578063936553c4146107345780639eab52531461073c578063a30e3fa914610797578063a6bc18f91461079f57610246565b806346ee84b0116101d2578063670797491161019657806367079749146106155780636e890f3c1461064f5780636f4d469b146106575780637b4d0c631461071c5780637c8afd511461072457610246565b806346ee84b014610425578063481c6a75146104ea57806352213663146104f257806353d9133e146105c957806353f064c9146105ef57610246565b8063143023871161021957806314302387146103075780631758078b14610336578063198055381461033e57806321f8c9841461035e5780633ded6530146103ff57610246565b8063023f21de146102545780630499123f1461027c57806305a2ee2a146102b45780630b1ca49a146102d8575b60008061025161424c565b50505b61027a600480360360208110156102735760008061027061424c565b50505b5035610c2f565b005b6102a26004803603602081101561029b5760008061029861424c565b50505b5035610fd1565b60405190815260200160405180910390f35b6102bc61127f565b6040516001600160a01b03909116815260200160405180910390f35b61027a600480360360208110156102f7576000806102f461424c565b50505b50356001600160a01b031661129e565b61027a600480360360208110156103265760008061032361424c565b50505b50356001600160a01b0316611338565b6102bc6113ef565b610346611411565b60405191825260208201526040908101905180910390f35b610366611547565b604051808060200180602001838103835285818151815260200191508051906020019060200280838360005b838110156103aa578082015183820152602001610392565b50505050905001838103825284818151815260200191508051906020019060200280838360005b838110156103e95780820151838201526020016103d1565b5050505090500194505050505060405180910390f35b6102bc6004803603602081101561041e5760008061041b61424c565b50505b50356117ec565b61027a600480360360208110156104445760008061044161424c565b50505b810190602081018135600160201b8111156104675760008061046461424c565b50505b8201836020820111156104825760008061047f61424c565b50505b803590602001918460208302840111600160201b831117156104ac576000806104a961424c565b50505b919080806020026020016040519081016040528093929190818152602001838360200280828437600092019190915250929550611ab2945050505050565b6102bc611b8a565b61027a600480360360408110156105115760008061050e61424c565b50505b6001600160a01b038235169190810190604081016020820135600160201b8111156105445760008061054161424c565b50505b82018360208201111561055f5760008061055c61424c565b50505b803590602001918460018302840111600160201b831117156105895760008061058661424c565b50505b91908080601f0160208091040260200160405190810160405281815292919060208401838380828437600092019190915250929550611b96945050505050565b61027a600480360360208110156105e8576000806105e561424c565b50505b5035611d0a565b61027a6004803603602081101561060e5760008061060b61424c565b50505b5035611ddb565b61063b600480360360208110156106345760008061063161424c565b50505b50356120b4565b604051901515815260200160405180910390f35b61027a6120db565b61027a600480360360208110156106765760008061067361424c565b50505b810190602081018135600160201b8111156106995760008061069661424c565b50505b8201836020820111156106b4576000806106b161424c565b50505b803590602001918460208302840111600160201b831117156106de576000806106db61424c565b50505b9190808060200260200160405190810160405280939291908181526020018383602002808284376000920191909152509295506121fd945050505050565b6102a26122c5565b61027a6122d2565b6102a2612382565b6102a261238c565b61074461239f565b60405160208082528190810183818151815260200191508051906020019060200280838360005b8381101561078357808201518382015260200161076b565b505050509050019250505060405180910390f35b6102a2612426565b61027a600480360360208110156107be576000806107bb61424c565b50505b50356001600160a01b0316612433565b61027a6124c0565b61063b600480360360208110156107f5576000806107f261424c565b50505b50356001600160a01b031661258e565b6102bc6125b6565b6102a26004803603602081101561082c5760008061082961424c565b50505b50356125c2565b61027a600480360360208110156108525760008061084f61424c565b50505b50356001600160a01b03166125ea565b61027a600480360360208110156108815760008061087e61424c565b50505b5035612685565b61063b600480360360208110156108a7576000806108a461424c565b50505b503561270d565b6102a2600480360360208110156108cd576000806108ca61424c565b50505b5035612723565b61074461273b565b61063b600480360360208110156108fb576000806108f861424c565b50505b50356127a6565b61027a600480360360a08110156109215760008061091e61424c565b50505b6001600160a01b038235811692602081013590911691810190606081016040820135600160201b81111561095d5760008061095a61424c565b50505b8201836020820111156109785760008061097561424c565b50505b803590602001918460018302840111600160201b831117156109a25760008061099f61424c565b50505b91908080601f016020809104026020016040519081016040528181529291906020840183838082843760009201919091525092956001600160a01b03853516959094909350604081019250602001359050600160201b811115610a0d57600080610a0a61424c565b50505b820183602082011115610a2857600080610a2561424c565b50505b803590602001918460208302840111600160201b83111715610a5257600080610a4f61424c565b50505b9190808060200260200160405190810160405280939291908181526020018383602002808284376000920191909152509295506129fc945050505050565b610346612c25565b61027a60048036036060811015610ab757600080610ab461424c565b50505b5080359060208101359060400135612c44565b610ad26131c4565b60405180806020018060200180602001848103845287818151815260200191508051906020019060200280838360005b83811015610b1a578082015183820152602001610b02565b50505050905001848103835286818151815260200191508051906020019060200280838360005b83811015610b59578082015183820152602001610b41565b50505050905001848103825285818151815260200191508051906020019060200280838360005b83811015610b98578082015183820152602001610b80565b50505050905001965050505050505060405180910390f35b610bb86135f0565b60405160208082528190810183818151815260200191508051906020019080838360005b83811015610bf4578082015183820152602001610bdc565b50505050905090810190601f168015610c215780820380516001836020036101000a031916815260200191505b509250505060405180910390f35b6000606a610c3b6142b7565b906101000a90046001600160a01b03166001600160a01b0316638da5cb5b6040518163ffffffff1660e01b81526004016020604051808303818680610c7e614312565b158015610c9357600080610c9061424c565b50505b505a610c9d61435e565b5050505050158015610cbc573d6000803e3d6000610cb961424c565b50505b505050506040513d6020811015610cdb57600080610cd861424c565b50505b8101908080516001600160a01b0316925050505a610cf7614449565b6001600160a01b03161480610d2c5750610d0f611b8a565b6001600160a01b03165a610d21614449565b6001600160a01b0316145b80610d575750610d3a6113ef565b6001600160a01b03165a610d4c614449565b6001600160a01b0316145b610d9b5760405162461bcd60e51b81526004018080602001828103825260248152602001806146ec6024913960400191505060405180910390610d9861424c565b50505b610da48161270d565b610df35760405162461bcd60e51b8152602060048201526013602482015272185cdcd95d081b9bdd081cdd5c1c1bdc9d1959606a1b604482015260640160405180910390610df061424c565b50505b6000818152606d60205260409020600090610e0c6142b7565b906101000a900460ff1615610e5b5760405162461bcd60e51b81526004018080602001828103825260228152602001806146ca6022913960400191505060405180910390610e5861424c565b50505b610e64816127a6565b151560011415610fc557610e77816117ec565b6001600160a01b03166370a082315a63996d79a5598160e01b8152602081600483336000905af158601d01573d60011458600c01573d6000803e3d621234565260ea61109c528051925060005b6040811015610edb57600082820152602001610ec4565b5050506040516001600160e01b031960e084901b1681526001600160a01b0390911660048201526024016020604051808303818680610f18614312565b158015610f2d57600080610f2a61424c565b50505b505a610f3761435e565b5050505050158015610f56573d6000803e3d6000610f5361424c565b50505b505050506040513d6020811015610f7557600080610f7261424c565b50505b810190808051159250610fc59150505760405162461bcd60e51b81526004018080602001828103825260218152602001806146a96021913960400191505060405180910390610fc261424c565b50505b610fce816136a4565b50565b6000806069610fde6142b7565b906101000a90046001600160a01b03166001600160a01b03166321f8a7216c45786368616e6765526174657360981b6040516001600160e01b031960e084901b1681526004810191909152602401602060405180830381868061103f614312565b1580156110545760008061105161424c565b50505b505a61105e61435e565b505050505015801561107d573d6000803e3d600061107a61424c565b50505b505050506040513d602081101561109c5760008061109961424c565b50505b8101908080516001600160a01b0316925063654a60ac91508490506110c0816117ec565b6001600160a01b03166370a082315a63996d79a5598160e01b8152602081600483336000905af158601d01573d60011458600c01573d6000803e3d621234565260ea61109c528051925060005b60408110156111245760008282015260200161110d565b5050506040516001600160e01b031960e084901b1681526001600160a01b0390911660048201526024016020604051808303818680611161614312565b1580156111765760008061117361424c565b50505b505a61118061435e565b505050505015801561119f573d6000803e3d600061119c61424c565b50505b505050506040513d60208110156111be576000806111bb61424c565b50505b8101908080519250631cd554d160e21b915060409050516001600160e01b031960e086901b1681526004810193909352602483019190915260448201526064016020604051808303818680611211614312565b1580156112265760008061122361424c565b50505b505a61123061435e565b505050505015801561124f573d6000803e3d600061124c61424c565b50505b505050506040513d602081101561126e5760008061126b61424c565b50505b81019080805193505050505b919050565b6000606961128b6142b7565b906101000a90046001600160a01b031681565b6000806112a96142b7565b906101000a90046001600160a01b03166001600160a01b03165a6112cb614449565b6001600160a01b03161461131d5760405162461bcd60e51b815260206004820152600c60248201526b37b7363c9036b0b730b3b2b960a11b60448201526064016040518091039061131a61424c565b50505b6113268161258e565b61132f57610fce565b610fce8161386b565b6000606a6113446142b7565b906101000a90046001600160a01b03166001600160a01b03165a611366614449565b6001600160a01b0316146113b95760405162461bcd60e51b815260206004820152600d60248201526c3737903832b936b4b9b9b4b7b760991b6044820152606401604051809103906113b661424c565b50505b8060696001816113c76142b7565b816001600160a01b0302191690836001600160a01b03160217906113e961448f565b50505050565b60008060046113fc6142b7565b906101000a90046001600160a01b0316905090565b60008080606a61141f6142b7565b906101000a90046001600160a01b03166001600160a01b031663b7a545265a63996d79a5598160e01b8152602081600483336000905af158601d01573d60011458600c01573d6000803e3d621234565260ea61109c528051925060005b60408110156114935760008282015260200161147c565b5050506040516001600160e01b031960e084901b1681526001600160a01b039091166004820152602401604080518083038186806114cf614312565b1580156114e4576000806114e161424c565b50505b505a6114ee61435e565b505050505015801561150d573d6000803e3d600061150a61424c565b50505b505050506040513d604081101561152c5760008061152961424c565b50505b81019080805192919060200180519395509293505050509091565b6060806000606b806115576142b7565b9050905060608167ffffffffffffffff8111801561157d5760008061157a61424c565b50505b506040519080825280602002602001820160405280156115a7578160200160208202803683370190505b50905060608267ffffffffffffffff811180156115cc576000806115c961424c565b50505b506040519080825280602002602001820160405280156115f6578160200160208202803683370190505b50905060008060696116066142b7565b906101000a90046001600160a01b03166001600160a01b03166321f8a7216b53797374656d53746174757360a01b6040516001600160e01b031960e084901b16815260048101919091526024016020604051808303818680611666614312565b15801561167b5760008061167861424c565b50505b505a61168561435e565b50505050501580156116a4573d6000803e3d60006116a161424c565b50505b505050506040513d60208110156116c3576000806116c061424c565b50505b81019080805193506000925050505b848110156117e0576000606b82816116e86142b7565b81106116f057fe5b906000526020600020016117026142b7565b90508085838151811061171157fe5b602002602001018181525050826001600160a01b03166342a28e21826040516001600160e01b031960e084901b1681526004810191909152602401600060405180830381868061175f614312565b1580156117745760008061177161424c565b50505b505a61177e61435e565b5050505050925050508015611791575060015b6117b85760018483815181106117a357fe5b911515602092830291909101909101526117d7565b60008483815181106117c657fe5b911515602092830291909101909101525b506001016116d2565b50919450925050509091565b6000808060696117fa6142b7565b906101000a90046001600160a01b03166001600160a01b03166321f8a721680a6f2dce8d0cae8d2f60bb1b6040516001600160e01b031960e084901b16815260048101919091526024016020604051808303818680611857614312565b15801561186c5760008061186961424c565b50505b505a61187661435e565b5050505050158015611895573d6000803e3d600061189261424c565b50505b505050506040513d60208110156118b4576000806118b161424c565b50505b8101908080516001600160a01b03169250633260803991508590506040516001600160e01b031960e084901b16815260048101919091526024016020604051808303818680611901614312565b1580156119165760008061191361424c565b50505b505a61192061435e565b505050505015801561193f573d6000803e3d600061193c61424c565b50505b505050506040513d602081101561195e5760008061195b61424c565b50505b81019080805193505050506001600160a01b0381166119ba5760405162461bcd60e51b815260206004820152600b60248201526a696e76616c6964206b657960a81b6044820152606401604051809103906119b761424c565b50505b6000816001600160a01b031663ec5568896040518163ffffffff1660e01b815260040160206040518083038186806119f0614312565b158015611a0557600080611a0261424c565b50505b505a611a0f61435e565b5050505050158015611a2e573d6000803e3d6000611a2b61424c565b50505b505050506040513d6020811015611a4d57600080611a4a61424c565b50505b81019080805193505050506001600160a01b038116611aab5760405162461bcd60e51b815260206004820152600d60248201526c696e76616c69642070726f787960981b604482015260640160405180910390611aa861424c565b50505b9392505050565b600080611abd6142b7565b906101000a90046001600160a01b03166001600160a01b03165a611adf614449565b6001600160a01b031614611b315760405162461bcd60e51b815260206004820152600c60248201526b37b7363c9036b0b730b3b2b960a11b604482015260640160405180910390611b2e61424c565b50505b60005b8151811015611b8657611b59828281518110611b4c57fe5b602002602001015161258e565b611b6257611b7e565b611b7e828281518110611b7157fe5b602002602001015161386b565b600101611b34565b5050565b600080806113fc6142b7565b600080611ba16142b7565b906101000a90046001600160a01b03166001600160a01b03165a611bc3614449565b6001600160a01b031614611c155760405162461bcd60e51b815260206004820152600c60248201526b37b7363c9036b0b730b3b2b960a11b604482015260640160405180910390611c1261424c565b50505b816000600181611c236142b7565b816001600160a01b0302191690836001600160a01b0316021790611c4561448f565b505050806001908051611c5c9291602001906144dd565b507f6ed15082ad038474841528b5badca105106d4463e44b5d434130dfb299aa366982826040516001600160a01b038316815260406020820181815290820183818151815260200191508051906020019080838360005b83811015611ccb578082015183820152602001611cb3565b50505050905090810190601f168015611cf85780820380516001836020036101000a031916815260200191505b50935050505060405180910390a15050565b600080611d156142b7565b906101000a90046001600160a01b03166001600160a01b03165a611d37614449565b6001600160a01b03161480611d80575060006004611d536142b7565b906101000a90046001600160a01b03166001600160a01b03165a611d75614449565b6001600160a01b0316145b611dd25760405162461bcd60e51b815260206004820152601660248201527537b7363c9036b0b730b3b2b91037b9103a3930b232b960511b604482015260640160405180910390611dcf61424c565b50505b610fce816139de565b600080611de66142b7565b906101000a90046001600160a01b03166001600160a01b03165a611e08614449565b6001600160a01b031614611e5a5760405162461bcd60e51b815260206004820152600c60248201526b37b7363c9036b0b730b3b2b960a11b604482015260640160405180910390611e5761424c565b50505b600080606a611e676142b7565b906101000a90046001600160a01b03166001600160a01b0316635c9bfc2b6040518163ffffffff1660e01b81526004016020604051808303818680611eaa614312565b158015611ebf57600080611ebc61424c565b50505b505a611ec961435e565b5050505050158015611ee8573d6000803e3d6000611ee561424c565b50505b505050506040513d6020811015611f0757600080611f0461424c565b50505b810190808051935060009250611f1f91506114119050565b509050611f2c8183613cc0565b831115611f885760405162461bcd60e51b815260206004820152601960248201527f657863656564656420616c6c6f77656420696e63726561736500000000000000604482015260640160405180910390611f8561424c565b50505b600080606a611f956142b7565b906101000a90046001600160a01b03166001600160a01b031663ebee461d6040518163ffffffff1660e01b81526004016020604051808303818680611fd8614312565b158015611fed57600080611fea61424c565b50505b505a611ff761435e565b5050505050158015612016573d6000803e3d600061201361424c565b50505b505050506040513d60208110156120355760008061203261424c565b50505b8101908080519350869250829150606e905061204f61448f565b505050805a61205c61457d565b0180606f61206861448f565b5050507f4db9119741646c419f1ceccdf112b5b9a9b4516355e742e1fa9c479f4dec98da84606f6120976142b7565b60405191825260208201526040908101905180910390a150505050565b606d602052806000526040600020600091506120ce6142b7565b906101000a900460ff1681565b6000806120e66142b7565b906101000a90046001600160a01b03166001600160a01b03165a612108614449565b6001600160a01b03161461215a5760405162461bcd60e51b815260206004820152600c60248201526b37b7363c9036b0b730b3b2b960a11b60448201526064016040518091039061215761424c565b50505b606f6121646142b7565b5a61216d61457d565b10156121c85760405162461bcd60e51b815260206004820152601960248201527f66656520696e6372656173652064656c617920616374697665000000000000006044820152606401604051809103906121c561424c565b50505b6121da606e6121d56142b7565b613d2b565b600080606e6121e761448f565b5050506000606f81906121f861448f565b505050565b6000806122086142b7565b906101000a90046001600160a01b03166001600160a01b03165a61222a614449565b6001600160a01b03161461227c5760405162461bcd60e51b815260206004820152600c60248201526b37b7363c9036b0b730b3b2b960a11b60448201526064016040518091039061227961424c565b50505b60005b8151811015611b8657612297828281518110611b4c57fe5b156122a1576122bd565b6122bd8282815181106122b057fe5b602002602001015161402d565b60010161227f565b606f6122cf6142b7565b81565b6000806122dd6142b7565b906101000a90046001600160a01b03166001600160a01b03165a6122ff614449565b6001600160a01b0316146123515760405162461bcd60e51b815260206004820152600c60248201526b37b7363c9036b0b730b3b2b960a11b60448201526064016040518091039061234e61424c565b50505b600060046001816123606142b7565b816001600160a01b0302191690836001600160a01b03160217906121f861448f565b606e6122cf6142b7565b6000606b806123996142b7565b91505090565b60606002806123ac6142b7565b8060200260200160405190810160405281815291906020830182806123cf6142b7565b801561241c57602002820191906000526020600020905b6000826123f16142b7565b906101000a90046001600160a01b03166001600160a01b0316815260200190600101908083116123e6575b5050505050905090565b60006002806123996142b7565b60008061243e6142b7565b906101000a90046001600160a01b03166001600160a01b03165a612460614449565b6001600160a01b0316146124b25760405162461bcd60e51b815260206004820152600c60248201526b37b7363c9036b0b730b3b2b960a11b6044820152606401604051809103906124af61424c565b50505b8060046001816113c76142b7565b6000806124cb6142b7565b906101000a90046001600160a01b03166001600160a01b03165a6124ed614449565b6001600160a01b03161461253f5760405162461bcd60e51b815260206004820152600c60248201526b37b7363c9036b0b730b3b2b960a11b60448201526064016040518091039061253c61424c565b50505b600080606e61254c61448f565b5050506000606f819061255d61448f565b5050507fc6f04bf43cbdf1ba5d51b4afa160bb3c7e13858b1409aa32868b239bb2f8d84960405160405180910390a1565b6001600160a01b03811660009081526003602052604081206125ae6142b7565b151592915050565b6000606a61128b6142b7565b606b81816125ce6142b7565b81106125d657fe5b9060005260206000200190506122cf6142b7565b6000806125f56142b7565b906101000a90046001600160a01b03166001600160a01b03165a612617614449565b6001600160a01b0316146126695760405162461bcd60e51b815260206004820152600c60248201526b37b7363c9036b0b730b3b2b960a11b60448201526064016040518091039061266661424c565b50505b6126728161258e565b1561267c57610fce565b610fce8161402d565b6000806126906142b7565b906101000a90046001600160a01b03166001600160a01b03165a6126b2614449565b6001600160a01b0316146127045760405162461bcd60e51b815260206004820152600c60248201526b37b7363c9036b0b730b3b2b960a11b60448201526064016040518091039061270161424c565b50505b610fce81613d2b565b6000818152606c602052604081206125ae6142b7565b606c60205280600052604060002090506122cf6142b7565b6060606b806127486142b7565b80602002602001604051908101604052818152919060208301828061276b6142b7565b801561241c57602002820191906000526020600020905b8161278b6142b7565b81526020019060010190808311612782575050505050905090565b6000808060696127b46142b7565b906101000a90046001600160a01b03166001600160a01b03166321f8a721680a6f2dce8d0cae8d2f60bb1b6040516001600160e01b031960e084901b16815260048101919091526024016020604051808303818680612811614312565b1580156128265760008061282361424c565b50505b505a61283061435e565b505050505015801561284f573d6000803e3d600061284c61424c565b50505b505050506040513d602081101561286e5760008061286b61424c565b50505b8101908080516001600160a01b03169250633260803991508590506040516001600160e01b031960e084901b168152600481019190915260240160206040518083038186806128bb614312565b1580156128d0576000806128cd61424c565b50505b505a6128da61435e565b50505050501580156128f9573d6000803e3d60006128f661424c565b50505b505050506040513d60208110156129185760008061291561424c565b50505b81019080805193505050506001600160a01b03811661293b57600091505061127a565b6000816001600160a01b031663ec5568896040518163ffffffff1660e01b81526004016020604051808303818680612971614312565b1580156129865760008061298361424c565b50505b505a61299061435e565b50505050501580156129af573d6000803e3d60006129ac61424c565b50505b505050506040513d60208110156129ce576000806129cb61424c565b50505b81019080805193505050506001600160a01b0381166129f25760009250505061127a565b5060019392505050565b60016036612a086142b7565b906101000a900460ff1680612a205750612a206140b9565b80612a3e575060006036612a326142b7565b906101000a900460ff16155b612a825760405162461bcd60e51b815260040180806020018281038252602e815260200180614710602e913960400191505060405180910390612a7f61424c565b50505b600060016036612a906142b7565b906101000a900460ff161590508015612af7576001603661010081612ab36142b7565b8160ff02191690831515021790612ac861448f565b5050506001603660006101000a81612ade6142b7565b8160ff02191690831515021790612af361448f565b5050505b612b01858561412a565b85606a600181612b0f6142b7565b816001600160a01b0302191690836001600160a01b0316021790612b3161448f565b50505082606960006101000a81612b466142b7565b816001600160a01b0302191690836001600160a01b0316021790612b6861448f565b505050612b7b631cd554d160e21b6139de565b60005b82518160ff161015612bb157612ba9838260ff1681518110612b9c57fe5b60200260200101516139de565b600101612b7e565b50631cd554d160e21b6000908152606d60205260019060409020600181612bd66142b7565b8160ff02191690831515021790612beb61448f565b5050508015612c1d576000603661010081612c046142b7565b8160ff02191690831515021790612c1961448f565b5050505b505050505050565b600080606e612c326142b7565b606f612c3c6142b7565b915091509091565b600080612c4f6142b7565b906101000a90046001600160a01b03166001600160a01b03165a612c71614449565b6001600160a01b03161480612cba575060006004612c8d6142b7565b906101000a90046001600160a01b03166001600160a01b03165a612caf614449565b6001600160a01b0316145b612d0c5760405162461bcd60e51b815260206004820152601660248201527537b7363c9036b0b730b3b2b91037b9103a3930b232b960511b604482015260640160405180910390612d0961424c565b50505b612d158361270d565b612d6e5760405162461bcd60e51b815260206004820152601b60248201527f756e737570706f7274656420736f757263652063757272656e63790000000000604482015260640160405180910390612d6b61424c565b50505b612d778161270d565b612dd05760405162461bcd60e51b815260206004820181905260248201527f756e737570706f727465642064657374696e6174696f6e2063757272656e6379604482015260640160405180910390612dcd61424c565b50505b6000806069612ddd6142b7565b906101000a90046001600160a01b03166001600160a01b03166321f8a721680a6f2dce8d0cae8d2f60bb1b6040516001600160e01b031960e084901b16815260048101919091526024016020604051808303818680612e3a614312565b158015612e4f57600080612e4c61424c565b50505b505a612e5961435e565b5050505050158015612e78573d6000803e3d6000612e7561424c565b50505b505050506040513d6020811015612e9757600080612e9461424c565b50505b810190808051935060009250506001600160a01b03831690506330ead76086868685606a612ec36142b7565b906101000a90046001600160a01b03166001600160a01b0316631d68702d6040518163ffffffff1660e01b81526004016020604051808303818680612f06614312565b158015612f1b57600080612f1861424c565b50505b505a612f2561435e565b5050505050158015612f44573d6000803e3d6000612f4161424c565b50505b505050506040513d6020811015612f6357600080612f6061424c565b50505b810190808051925060009150606a9050612f7b6142b7565b906101000a90046001600160a01b03166001600160a01b03166349f7c02d6040518163ffffffff1660e01b81526004016020604051808303818680612fbe614312565b158015612fd357600080612fd061424c565b50505b505a612fdd61435e565b5050505050158015612ffc573d6000803e3d6000612ff961424c565b50505b505050506040513d602081101561301b5760008061301861424c565b50505b81019080805192506040915050516001600160e01b031960e088901b1681526004810195909552602485019390935260448401919091526001600160a01b03166064830152608482015260a4016020604051808303816000878061307d614312565b1580156130925760008061308f61424c565b50505b505a61309c6145c3565b5050505050501580156130bc573d6000803e3d60006130b961424c565b50505b505050506040513d60208110156130db576000806130d861424c565b50505b81019080805193507f2f3156bec1dba8438caa2579a04e750d9ca242f1c16d87594c77efdbede59bbe925050505a63996d79a5598160e01b8152602081600483336000905af158601d01573d60011458600c01573d6000803e3d621234565260ea61109c528051925060005b604081101561315e57600082820152602001613147565b5050505a61316a614449565b878787865a61317761457d565b6040516001600160a01b0397881681529590961660208601526040808601949094526060850192909252608084015260a083015260c082019290925260e001905180910390a15050505050565b60608060606000606b806131d66142b7565b9050905060608167ffffffffffffffff811180156131fc576000806131f961424c565b50505b50604051908082528060200260200182016040528015613226578160200160208202803683370190505b50905060608267ffffffffffffffff8111801561324b5760008061324861424c565b50505b50604051908082528060200260200182016040528015613275578160200160208202803683370190505b50905060608367ffffffffffffffff8111801561329a5760008061329761424c565b50505b506040519080825280602002602001820160405280156132c4578160200160208202803683370190505b50905060008060696132d46142b7565b906101000a90046001600160a01b03166001600160a01b03166321f8a7216c45786368616e6765526174657360981b6040516001600160e01b031960e084901b16815260048101919091526024016020604051808303818680613335614312565b15801561334a5760008061334761424c565b50505b505a61335461435e565b5050505050158015613373573d6000803e3d600061337061424c565b50505b505050506040513d60208110156133925760008061338f61424c565b50505b81019080805193506000925050505b858110156135e2576000606b82816133b76142b7565b81106133bf57fe5b906000526020600020016133d16142b7565b90506133dc816117ec565b6001600160a01b03166370a082315a63996d79a5598160e01b8152602081600483336000905af158601d01573d60011458600c01573d6000803e3d621234565260ea61109c528051925060005b604081101561344057600082820152602001613429565b5050506040516001600160e01b031960e084901b1681526001600160a01b039091166004820152602401602060405180830381868061347d614312565b1580156134925760008061348f61424c565b50505b505a61349c61435e565b50505050501580156134bb573d6000803e3d60006134b861424c565b50505b505050506040513d60208110156134da576000806134d761424c565b50505b8101908080519250879150849050815181106134f257fe5b6020026020010181815250508086838151811061350b57fe5b602002602001018181525050826001600160a01b031663ac82f608826040516001600160e01b031960e084901b16815260048101919091526024016020604051808303818680613559614312565b15801561356e5760008061356b61424c565b50505b505a61357861435e565b5050505050158015613597573d6000803e3d600061359461424c565b50505b505050506040513d60208110156135b6576000806135b361424c565b50505b8101908080519250869150849050815181106135ce57fe5b6020908102919091010152506001016133a1565b509297919650945092505050565b60606001806135fd6142b7565b600181600116156101000203166002900480601f0160208091040260200160405190810160405281815291906020830182806136376142b7565b6001816001161561010002031660029004801561241c5780601f106136715761010080836136636142b7565b04028352916020019161241c565b820191906000526020600020905b816136886142b7565b8152906001019060200180831161367f57509395945050505050565b6000606b806136b16142b7565b6000848152606c60205290925090506136d76001604083206136d16142b7565b90614171565b90506000606b6136e8846001614171565b816136f16142b7565b81106136f957fe5b9060005260206000200161370b6142b7565b905080606b838161371a6142b7565b811061372257fe5b90600052602060002001819061373661448f565b5061374691508390506001613cc0565b6000828152606c60205260409020819061375e61448f565b5050506000848152606c60205260408120819061377961448f565b505050606b806137876142b7565b8061378e57fe5b600190038181906000526020600020016000906137a961448f565b5050906137b461448f565b50507f241d622959843ef6d15b4517709d11e054e1c06a2733f7773837c3d2377d8a895a63996d79a5598160e01b8152602081600483336000905af158601d01573d60011458600c01573d6000803e3d621234565260ea61109c528051925060005b604081101561382d57600082820152602001613816565b505050613838611b8a565b866040516001600160a01b039384168152919092166020820152604080820192909252606001905180910390a150505050565b60006002806138786142b7565b6001600160a01b0384166000908152600360205290925090506138a26001604083206136d16142b7565b9050600060026138b3846001614171565b816138bc6142b7565b81106138c457fe5b906000526020600020016000906138d96142b7565b906101000a90046001600160a01b0316905080600283816138f86142b7565b811061390057fe5b906000526020600020016001816139156142b7565b816001600160a01b0302191690836001600160a01b031602179061393761448f565b5061394791508390506001613cc0565b6001600160a01b0382166000908152600360205260409020819061396961448f565b5050506001600160a01b0384166000908152600360205260408120819061398e61448f565b50505060028061399c6142b7565b806139a357fe5b600190038181906000526020600020016001816139be6142b7565b906001600160a01b03021916906139d361448f565b505090612c1d61448f565b6000606a6139ea6142b7565b906101000a90046001600160a01b03166001600160a01b031663aa12ae4d6040518163ffffffff1660e01b81526004016020604051808303818680613a2d614312565b158015613a4257600080613a3f61424c565b50505b505a613a4c61435e565b5050505050158015613a6b573d6000803e3d6000613a6861424c565b50505b505050506040513d6020811015613a8a57600080613a8761424c565b50505b8101908080519250606b9150819050613aa16142b7565b905010613af65760405162461bcd60e51b81526020600482015260166024820152751b585e1a5b5d5b48185cdcd95d1cc81c995858da195960521b604482015260640160405180910390613af361424c565b50505b613aff8161270d565b15613b595760405162461bcd60e51b815260206004820152601760248201527f617373657420616c726561647920737570706f72746564000000000000000000604482015260640160405180910390613b5661424c565b50505b613b62816127a6565b1515600114613baf5760405162461bcd60e51b815260206004820152600c60248201526b1b9bdd08185b88185cdcd95d60a21b604482015260640160405180910390613bac61424c565b50505b80606b80600181613bbe6142b7565b018082613bc961448f565b505060009283526000190191602091502001613be361448f565b5050606b80613bf06142b7565b6000838152606c602052909150604090208190613c0b61448f565b5050507f4c719ca79dbb56150643ac79f2fbfa02370838ed0d116fc28b9703f5a071c4e25a63996d79a5598160e01b8152602081600483336000905af158601d01573d60011458600c01573d6000803e3d621234565260ea61109c528051925060005b6040811015613c8557600082820152602001613c6e565b505050613c90611b8a565b836040516001600160a01b039384168152919092166020820152604080820192909252606001905180910390a150565b600082820183811015613d225760405162461bcd60e51b815260206004820152601b60248201527f536166654d6174683a206164646974696f6e206f766572666c6f770000000000604482015260640160405180910390613d1f61424c565b50505b90505b92915050565b6000606a613d376142b7565b906101000a90046001600160a01b03166001600160a01b031663046b72c45a63996d79a5598160e01b8152602081600483336000905af158601d01573d60011458600c01573d6000803e3d621234565260ea61109c528051925060005b6040811015613dab57600082820152602001613d94565b505050836040516001600160e01b031960e085901b1681526001600160a01b039092166004830152602482015260440160006040518083038160008780613df0614312565b158015613e0557600080613e0261424c565b50505b505a613e0f6145c3565b505050505050158015613e2f573d6000803e3d6000613e2c61424c565b50505b50505050600080606a600090613e436142b7565b906101000a90046001600160a01b03166001600160a01b031663b7a545265a63996d79a5598160e01b8152602081600483336000905af158601d01573d60011458600c01573d6000803e3d621234565260ea61109c528051925060005b6040811015613eb757600082820152602001613ea0565b5050506040516001600160e01b031960e084901b1681526001600160a01b03909116600482015260240160408051808303818680613ef3614312565b158015613f0857600080613f0561424c565b50505b505a613f1261435e565b5050505050158015613f31573d6000803e3d6000613f2e61424c565b50505b505050506040513d6040811015613f5057600080613f4d61424c565b50505b81019080805192919060200180519395509293507f1780c04ddc6f0b32d866c7a3d7583f53515ef49ed2126af868f804f491601266925050505a63996d79a5598160e01b8152602081600483336000905af158601d01573d60011458600c01573d6000803e3d621234565260ea61109c528051925060005b6040811015613fdf57600082820152602001613fc8565b505050613fea611b8a565b848460405180856001600160a01b03168152602001846001600160a01b0316815260200183815260200182815260200194505050505060405180910390a1505050565b8060028060018161403c6142b7565b01808261404761448f565b5050600092835260001901916020915020016001816140646142b7565b816001600160a01b0302191690836001600160a01b031602179061408661448f565b5050506002806140946142b7565b6001600160a01b038316600090815260036020529091506040902081906113e961448f565b6000805a63996d79a5598160e01b8152602081600483336000905af158601d01573d60011458600c01573d6000803e3d621234565260ea61109c528051925060005b6040811015614112576000828201526020016140fb565b5050509050600081614122614312565b159250505090565b8160006001816141386142b7565b816001600160a01b0302191690836001600160a01b031602179061415a61448f565b5050508060019080516121f89291602001906144dd565b6000613d22838360405160408082019052601e81527f536166654d6174683a207375627472616374696f6e206f766572666c6f7700006020820152600081848411156142445760405162461bcd60e51b81526004018080602001828103825283818151815260200191508051906020019080838360005b838110156142005780820151838201526020016141e8565b50505050905090810190601f16801561422d5780820380516001836020036101000a031916815260200191505b50925050506040518091039061424161424c565b50505b505050900390565b632a2a7adb598160e01b8152600481016020815285602082015260005b86811015614284578086015182820160400152602001614269565b506020828760640184336000905af158601d01573d60011458600c01573d6000803e3d621234565260ea61109c52505050565b6303daa959598160e01b8152836004820152602081602483336000905af158601d01573d60011458600c01573d6000803e3d621234565260ea61109c528051935060005b60408110156121f8576000828201526020016142fb565b638435035b598160e01b8152836004820152602081602483336000905af158601d01573d60011458600c01573d6000803e3d621234565260ea61109c52805160008252935060206142fb565b638540661f598160e01b815261438f565b8080831115613d25575090919050565b8080831015613d25575090919050565b836004820152846024820152606060448201528660648201526084810160005b888110156143c75780880151828201526020016143af565b506060828960a40184336000905af158601d01573d60011458600c01573d6000803e3d621234565260ea61109c52815160408301513d6000853e8b8b82606087013350600060045af1505961441c8d3d61437f565b8c01614428818761436f565b5b8281101561443d5760008152602001614429565b50929c50505050505050565b6373509064598160e01b8152602081600483336000905af158601d01573d60011458600c01573d6000803e3d621234565260ea61109c52805160008252935060206142fb565b6322bd64c0598160e01b8152836004820152846024820152600081604483336000905af158601d01573d60011458600c01573d6000803e3d621234565260ea61109c526000815260206142fb565b82806144e76142b7565b600181600116156101000203166002900490600052602060002090601f016020900481019282601f1061452e57805160ff1916838001178561452761448f565b505061456d565b8280016001018561453d61448f565b5050821561456d579182015b8281111561456d5782518261455c61448f565b505091602001919060010190614549565b50614579929150614689565b5090565b63bdbf8c36598160e01b8152602081600483336000905af158601d01573d60011458600c01573d6000803e3d621234565260ea61109c52805160008252935060206142fb565b6385979f76598160e01b8152836004820152846024820152606060448201528760648201526084810160005b898110156146075780890151828201526020016145ef565b506060828a60a40184336000905af158601d01573d60011458600c01573d6000803e3d621234565260ea61109c52815160408301513d6000853e8c8c82606087013350600060045af1505961465c8e3d61437f565b8d01614668818761436f565b5b8281101561467d5760008152602001614669565b50929d50505050505050565b80821115614579576000808261469d61448f565b50505060010161468956fe6e6f6e2d656d7074792061737365742063616e6e6f742062652072656d6f76656470657273697374656e74206173736574732063616e27742062652072656d6f7665646f6e6c79206d616e616765722c20747261646572206f722050726f746f636f6c2044414f436f6e747261637420696e7374616e63652068617320616c7265616479206265656e20696e697469616c697a6564",
  "linkReferences": {},
  "deployedLinkReferences": {}
}