{
  "_format": "hh-sol-artifact-1",
  "contractName": "PriceConsumer-ovm",
  "sourceName": "contracts/priceFeeds/PriceConsumer.sol",
  "abi": [
    {
      "anonymous": false,
      "inputs": [
        {
          "indexed": true,
          "internalType": "address",
          "name": "previousOwner",
          "type": "address"
        },
        {
          "indexed": true,
          "internalType": "address",
          "name": "newOwner",
          "type": "address"
        }
      ],
      "name": "OwnershipTransferred",
      "type": "event"
    },
    {
      "inputs": [
        {
          "internalType": "address",
          "name": "asset",
          "type": "address"
        },
        {
          "internalType": "uint8",
          "name": "assetType",
          "type": "uint8"
        },
        {
          "internalType": "address",
          "name": "aggregator",
          "type": "address"
        }
      ],
      "name": "addAsset",
      "outputs": [],
      "stateMutability": "nonpayable",
      "type": "function"
    },
    {
      "inputs": [
        {
          "components": [
            {
              "internalType": "address",
              "name": "asset",
              "type": "address"
            },
            {
              "internalType": "uint8",
              "name": "assetType",
              "type": "uint8"
            },
            {
              "internalType": "address",
              "name": "aggregator",
              "type": "address"
            }
          ],
          "internalType": "struct IPriceConsumer.Asset[]",
          "name": "assets",
          "type": "tuple[]"
        }
      ],
      "name": "addAssets",
      "outputs": [],
      "stateMutability": "nonpayable",
      "type": "function"
    },
    {
      "inputs": [],
      "name": "disableChainlink",
      "outputs": [],
      "stateMutability": "nonpayable",
      "type": "function"
    },
    {
      "inputs": [],
      "name": "enableChainlink",
      "outputs": [],
      "stateMutability": "nonpayable",
      "type": "function"
    },
    {
      "inputs": [
        {
          "internalType": "address",
          "name": "asset",
          "type": "address"
        }
      ],
      "name": "getAggregator",
      "outputs": [
        {
          "internalType": "address",
          "name": "",
          "type": "address"
        }
      ],
      "stateMutability": "view",
      "type": "function"
    },
    {
      "inputs": [
        {
          "internalType": "address",
          "name": "asset",
          "type": "address"
        }
      ],
      "name": "getTypeAndAggregator",
      "outputs": [
        {
          "internalType": "uint8",
          "name": "",
          "type": "uint8"
        },
        {
          "internalType": "address",
          "name": "",
          "type": "address"
        }
      ],
      "stateMutability": "view",
      "type": "function"
    },
    {
      "inputs": [
        {
          "internalType": "address",
          "name": "asset",
          "type": "address"
        }
      ],
      "name": "getUSDPrice",
      "outputs": [
        {
          "internalType": "uint256",
          "name": "",
          "type": "uint256"
        }
      ],
      "stateMutability": "view",
      "type": "function"
    },
    {
      "inputs": [
        {
          "internalType": "address",
          "name": "_poolFactory",
          "type": "address"
        },
        {
          "components": [
            {
              "internalType": "address",
              "name": "asset",
              "type": "address"
            },
            {
              "internalType": "uint8",
              "name": "assetType",
              "type": "uint8"
            },
            {
              "internalType": "address",
              "name": "aggregator",
              "type": "address"
            }
          ],
          "internalType": "struct IPriceConsumer.Asset[]",
          "name": "assets",
          "type": "tuple[]"
        }
      ],
      "name": "initialize",
      "outputs": [],
      "stateMutability": "nonpayable",
      "type": "function"
    },
    {
      "inputs": [],
      "name": "isDisabledChainlink",
      "outputs": [
        {
          "internalType": "bool",
          "name": "",
          "type": "bool"
        }
      ],
      "stateMutability": "view",
      "type": "function"
    },
    {
      "inputs": [],
      "name": "owner",
      "outputs": [
        {
          "internalType": "address",
          "name": "",
          "type": "address"
        }
      ],
      "stateMutability": "view",
      "type": "function"
    },
    {
      "inputs": [],
      "name": "poolFactory",
      "outputs": [
        {
          "internalType": "address",
          "name": "",
          "type": "address"
        }
      ],
      "stateMutability": "view",
      "type": "function"
    },
    {
      "inputs": [
        {
          "internalType": "address",
          "name": "asset",
          "type": "address"
        }
      ],
      "name": "removeAsset",
      "outputs": [],
      "stateMutability": "nonpayable",
      "type": "function"
    },
    {
      "inputs": [],
      "name": "renounceOwnership",
      "outputs": [],
      "stateMutability": "nonpayable",
      "type": "function"
    },
    {
      "inputs": [
        {
          "internalType": "address",
          "name": "_poolFactory",
          "type": "address"
        }
      ],
      "name": "setPoolFactory",
      "outputs": [],
      "stateMutability": "nonpayable",
      "type": "function"
    },
    {
      "inputs": [
        {
          "internalType": "address",
          "name": "newOwner",
          "type": "address"
        }
      ],
      "name": "transferOwnership",
      "outputs": [],
      "stateMutability": "nonpayable",
      "type": "function"
    }
  ],
  "bytecode": "0x60806040523480156100195760008061001661001f565b50505b5061008a565b632a2a7adb598160e01b8152600481016020815285602082015260005b8681101561005757808601518282016040015260200161003c565b506020828760640184336000905af158600e01573d6000803e3d6000fd5b3d6001141558600a015760016000f35b505050565b61199f806100996000396000f3fe608060405234801561001957600080610016611137565b50505b50600436106100fe5760003560e01c80638b2f0f4f116100a0578063cf45ba1b1161006f578063cf45ba1b146101e4578063d54e96d2146101f9578063eee6812014610201578063f2fde38b14610214576100fe565b80638b2f0f4f146101a15780638da5cb5b146101c1578063b2806001146101c9578063b91ba548146101d1576100fe565b80634a5e42b1116100dc5780634a5e42b1146101525780635cb9e26f14610165578063715018a614610186578063752d4bcb1461018e576100fe565b806329a42d561461010c5780634219dc4014610135578063473597a01461013d575b600080610109611137565b50505b61011f61011a36600461156d565b610227565b60405161012c91906116e4565b60405180910390f35b61011f610261565b61015061014b36600461156d565b610280565b005b61015061016036600461156d565b61031c565b61017861017336600461156d565b6103e0565b60405161012c92919061194f565b610150610457565b61015061019c366004611645565b610544565b6101b46101af36600461156d565b61061a565b60405161012c9190611946565b61011f610838565b61015061085a565b6101506101df3660046115f7565b6108e2565b6101ec6109d4565b60405161012c91906116f8565b6101506109ed565b61015061020f366004611598565b610a61565b61015061022236600461156d565b610bb2565b6001600160a01b038116600090815260996020526040812060009061024a6111a2565b906101000a90046001600160a01b03169050919050565b6001609761026d6111a2565b906101000a90046001600160a01b031681565b610288610cb8565b6001600160a01b03166000606561029d6111a2565b906101000a90046001600160a01b03166001600160a01b0316146102e55760405162461bcd60e51b81526004016102d3906118c3565b604051809103906102e2611137565b50505b806097610100816102f46111a2565b816001600160a01b0302191690836001600160a01b03160217906103166111fd565b50505050565b610324610cb8565b6001600160a01b0316600060656103396111a2565b906101000a90046001600160a01b03166001600160a01b0316146103815760405162461bcd60e51b815260040161036f906118c3565b6040518091039061037e611137565b50505b6001600160a01b03811660009081526098602052604081206001816103a46111a2565b8160ff021916908360ff160217906103ba6111fd565b5050506001600160a01b03811660009081526099602052604081206001816102f46111a2565b6001600160a01b0381166000908152609860205280604081206000906104046111a2565b906101000a900460ff1660996000856001600160a01b03166001600160a01b0316815260200190815260200160002060009061043e6111a2565b906101000a90046001600160a01b031691509150915091565b61045f610cb8565b6001600160a01b0316600060656104746111a2565b906101000a90046001600160a01b03166001600160a01b0316146104bc5760405162461bcd60e51b81526004016104aa906118c3565b604051809103906104b9611137565b50505b60008060656104c96111a2565b906101000a90046001600160a01b03166001600160a01b03167f8be0079c531659141344cd1fd0a4f28419497f9722a3daafe3b4186f6b6457e060405160405180910390a36000606560018161051d6111a2565b816001600160a01b0302191690836001600160a01b031602179061053f6111fd565b505050565b61054c610cb8565b6001600160a01b0316600060656105616111a2565b906101000a90046001600160a01b03166001600160a01b0316146105a95760405162461bcd60e51b8152600401610597906118c3565b604051809103906105a6611137565b50505b60005b81518160ff1610156106165761060e828260ff16815181106105ca57fe5b602002602001015151838360ff16815181106105e257fe5b602002602001015160200151848460ff16815181106105fd57fe5b6020026020010151604001516108e2565b6001016105ac565b5050565b6001600160a01b03811660009081526099602052806040812060009061063e6111a2565b6001600160a01b03858116600090815260986020526101009390930a9091041691506040812060009061066f6111a2565b60ff6101009290920a90041690506001600160a01b0382166106b55760405162461bcd60e51b81526004016106a390611780565b604051809103906106b2611137565b50505b600060ff82161580156106db5750600060976106cf6111a2565b906101000a900460ff16155b156107fe57826001600160a01b031663feaf968c6040518163ffffffff1660e01b815260040160a060405180830381868061071461124b565b15801561072957600080610726611137565b50505b505a610733611297565b50505050509250505080156107655750604051601f3d908101601f19168201604052610762919081019061168a565b60015b6107975760405162461bcd60e51b815260040161078190611809565b60405180910390610790611137565b50506107fe565b5a6107a0611382565b6107ad8362015f90610cc8565b10156107dd5760405162461bcd60e51b81526004016107cb906117c3565b604051809103906107da611137565b50505b60008413156107f8576107f5846402540be400610d08565b95505b50505050505b600081116108305760405162461bcd60e51b815260040161081e90611840565b6040518091039061082d611137565b50505b949350505050565b60008060656108456111a2565b906101000a90046001600160a01b0316905090565b610862610cb8565b6001600160a01b0316600060656108776111a2565b906101000a90046001600160a01b03166001600160a01b0316146108bf5760405162461bcd60e51b81526004016108ad906118c3565b604051809103906108bc611137565b50505b6001609781816108cd6111a2565b8160ff0219169083151502179061053f6111fd565b6108ea610cb8565b6001600160a01b0316600060656108ff6111a2565b906101000a90046001600160a01b03166001600160a01b0316146109475760405162461bcd60e51b8152600401610935906118c3565b60405180910390610944611137565b50505b6001600160a01b0383166000908152609860205282906040902060018161096c6111a2565b8160ff021916908360ff160217906109826111fd565b5050506001600160a01b038316600090815260996020528190604090206001816109aa6111a2565b816001600160a01b0302191690836001600160a01b03160217906109cc6111fd565b505050505050565b600060976109e06111a2565b906101000a900460ff1681565b6109f5610cb8565b6001600160a01b031660006065610a0a6111a2565b906101000a90046001600160a01b03166001600160a01b031614610a525760405162461bcd60e51b8152600401610a40906118c3565b60405180910390610a4f611137565b50505b600060976001816108cd6111a2565b60016000610a6d6111a2565b906101000a900460ff1680610a855750610a85610d42565b80610aa25750600080610a966111a2565b906101000a900460ff16155b610ad05760405162461bcd60e51b8152600401610abe906118f8565b60405180910390610acd611137565b50505b6000600181610add6111a2565b906101000a900460ff161590508015610b43576001600061010081610b006111a2565b8160ff02191690831515021790610b156111fd565b50505060016000806101000a81610b2a6111a2565b8160ff02191690831515021790610b3f6111fd565b5050505b610b4b610db3565b82609761010081610b5a6111a2565b816001600160a01b0302191690836001600160a01b0316021790610b7c6111fd565b505050610b8882610544565b801561053f5760008061010081610b9d6111a2565b8160ff021916908315150217906109cc6111fd565b610bba610cb8565b6001600160a01b031660006065610bcf6111a2565b906101000a90046001600160a01b03166001600160a01b031614610c175760405162461bcd60e51b8152600401610c05906118c3565b60405180910390610c14611137565b50505b6001600160a01b038116610c4f5760405162461bcd60e51b8152600401610c3d90611703565b60405180910390610c4c611137565b50505b6001600160a01b03811660006065610c656111a2565b906101000a90046001600160a01b03166001600160a01b03167f8be0079c531659141344cd1fd0a4f28419497f9722a3daafe3b4186f6b6457e060405160405180910390a38060656001816102f46111a2565b60005a610cc36113c8565b905090565b600082820183811015610cff5760405162461bcd60e51b8152600401610ced90611749565b60405180910390610cfc611137565b50505b90505b92915050565b600082610d1757506000610d02565b82820282848281610d2457fe5b0414610cff5760405162461bcd60e51b8152600401610ced90611882565b6000805a63996d79a5598160e01b8152602081600483336000905af158600e01573d6000803e3d6000fd5b3d6001141558600a015760016000f35b8051925060005b6040811015610d9b57600082820152602001610d84565b5050509050600081610dab61124b565b159250505090565b60016000610dbf6111a2565b906101000a900460ff1680610dd75750610dd7610d42565b80610df45750600080610de86111a2565b906101000a900460ff16155b610e225760405162461bcd60e51b8152600401610e10906118f8565b60405180910390610e1f611137565b50505b6000600181610e2f6111a2565b906101000a900460ff161590508015610e95576001600061010081610e526111a2565b8160ff02191690831515021790610e676111fd565b50505060016000806101000a81610e7c6111a2565b8160ff02191690831515021790610e916111fd565b5050505b610e9d610ed2565b610ea5610fc8565b8015610ecf5760008061010081610eba6111a2565b8160ff021916908315150217906103166111fd565b50565b60016000610ede6111a2565b906101000a900460ff1680610ef65750610ef6610d42565b80610f135750600080610f076111a2565b906101000a900460ff16155b610f415760405162461bcd60e51b8152600401610f2f906118f8565b60405180910390610f3e611137565b50505b6000600181610f4e6111a2565b906101000a900460ff161590508015610ea5576001600061010081610f716111a2565b8160ff02191690831515021790610f866111fd565b50505060016000806101000a81610f9b6111a2565b8160ff02191690831515021790610fb06111fd565b5050508015610ecf5760008061010081610eba6111a2565b60016000610fd46111a2565b906101000a900460ff1680610fec5750610fec610d42565b806110095750600080610ffd6111a2565b906101000a900460ff16155b6110375760405162461bcd60e51b8152600401611025906118f8565b60405180910390611034611137565b50505b60006001816110446111a2565b906101000a900460ff1615905080156110aa5760016000610100816110676111a2565b8160ff0219169083151502179061107c6111fd565b50505060016000806101000a816110916111a2565b8160ff021916908315150217906110a66111fd565b5050505b60006110b4610cb8565b90508060656001816110c46111a2565b816001600160a01b0302191690836001600160a01b03160217906110e66111fd565b5050506001600160a01b03811660007f8be0079c531659141344cd1fd0a4f28419497f9722a3daafe3b4186f6b6457e060405160405180910390a3508015610ecf5760008061010081610eba6111a2565b632a2a7adb598160e01b8152600481016020815285602082015260005b8681101561116f578086015182820160400152602001611154565b506020828760640184336000905af158600e01573d6000803e3d6000fd5b3d6001141558600a015760016000f35b505050565b6303daa959598160e01b8152836004820152602081602483336000905af158600e01573d6000803e3d6000fd5b3d6001141558600a015760016000f35b8051935060005b604081101561053f576000828201526020016111e6565b6322bd64c0598160e01b8152836004820152846024820152600081604483336000905af158600e01573d6000803e3d6000fd5b3d6001141558600a015760016000f35b6000815260206111e6565b638435035b598160e01b8152836004820152602081602483336000905af158600e01573d6000803e3d6000fd5b3d6001141558600a015760016000f35b805160008252935060206111e6565b638540661f598160e01b81526112c8565b8080831115610d02575090919050565b8080831015610d02575090919050565b836004820152846024820152606060448201528660648201526084810160005b888110156113005780880151828201526020016112e8565b506060828960a40184336000905af158600e01573d6000803e3d6000fd5b3d6001141558600a015760016000f35b815160408301513d6000853e8b8b82606087013350600060045af150596113558d3d6112b8565b8c0161136181876112a8565b5b828110156113765760008152602001611362565b50929c50505050505050565b63bdbf8c36598160e01b8152602081600483336000905af158600e01573d6000803e3d6000fd5b3d6001141558600a015760016000f35b805160008252935060206111e6565b6373509064598160e01b8152602081600483336000905af158600e01573d6000803e3d6000fd5b3d6001141558600a015760016000f35b805160008252935060206111e6565b80356001600160a01b0381168114610d025760008061142b611137565b505092915050565b600082601f83011261144c578081611449611137565b50505b813567ffffffffffffffff81111561146b578182611468611137565b50505b602061147a818284020161196b565b82815292508083018482016060808502870184018810156114a3576000806114a0611137565b50505b60005b858110156114ca576114b889846114d6565b845292840192918101916001016114a6565b50505050505092915050565b6000606082840312156114f05780816114ed611137565b50505b6114fa606061196b565b9050611506838361140e565b81526115158360208401611532565b6020820152611527836040840161140e565b604082015292915050565b803560ff81168114610d025760008061142b611137565b60008151905069ffffffffffffffffffff81168114610d025760008061142b611137565b600060208284031215611587578081611584611137565b50505b611591838361140e565b9392505050565b600080604083850312156115b35780816115b0611137565b50505b6115bd848461140e565b9150602083013567ffffffffffffffff8111156115e15781826115de611137565b50505b6115ed85828601611433565b9150509250929050565b600080600060608486031215611614578081611611611137565b50505b61161e858561140e565b925061162d8560208601611532565b915061163c856040860161140e565b90509250925092565b60006020828403121561165f57808161165c611137565b50505b813567ffffffffffffffff81111561167e57818261167b611137565b50505b61083084828501611433565b600080600080600060a086880312156116aa5780816116a7611137565b50505b6116b48787611549565b94506020860151935060408601519250606086015191506116d88760808801611549565b90509295509295909350565b6001600160a01b0391909116815260200190565b901515815260200190565b60208082526026908201527f4f776e61626c653a206e6577206f776e657220697320746865207a65726f206160408201526564647265737360d01b606082015260800190565b6020808252601b908201527f536166654d6174683a206164646974696f6e206f766572666c6f770000000000604082015260600190565b60208082526023908201527f5072696365436f6e73756d65723a2061676772656761746f72206e6f7420666f6040820152621d5b9960ea1b606082015260800190565b60208082526026908201527f5072696365436f6e73756d65723a20636861696e6c696e6b20707269636520656040820152651e1c1a5c995960d21b606082015260800190565b6020808252601f908201527f5072696365436f6e73756d65723a20707269636520676574206661696c656400604082015260600190565b60208082526022908201527f5072696365436f6e73756d65723a207072696365206e6f7420617661696c61626040820152616c6560f01b606082015260800190565b60208082526021908201527f536166654d6174683a206d756c7469706c69636174696f6e206f766572666c6f6040820152607760f81b606082015260800190565b6020808252818101527f4f776e61626c653a2063616c6c6572206973206e6f7420746865206f776e6572604082015260600190565b6020808252602e908201527f436f6e747261637420696e7374616e63652068617320616c726561647920626560408201526d195b881a5b9a5d1a585b1a5e995960921b606082015260800190565b90815260200190565b60ff9290921682526001600160a01b0316602082015260400190565b6000604051905081810181811067ffffffffffffffff8211171561199757600080611994611137565b50505b60405291905056",
  "deployedBytecode": "0x608060405234801561001957600080610016611137565b50505b50600436106100fe5760003560e01c80638b2f0f4f116100a0578063cf45ba1b1161006f578063cf45ba1b146101e4578063d54e96d2146101f9578063eee6812014610201578063f2fde38b14610214576100fe565b80638b2f0f4f146101a15780638da5cb5b146101c1578063b2806001146101c9578063b91ba548146101d1576100fe565b80634a5e42b1116100dc5780634a5e42b1146101525780635cb9e26f14610165578063715018a614610186578063752d4bcb1461018e576100fe565b806329a42d561461010c5780634219dc4014610135578063473597a01461013d575b600080610109611137565b50505b61011f61011a36600461156d565b610227565b60405161012c91906116e4565b60405180910390f35b61011f610261565b61015061014b36600461156d565b610280565b005b61015061016036600461156d565b61031c565b61017861017336600461156d565b6103e0565b60405161012c92919061194f565b610150610457565b61015061019c366004611645565b610544565b6101b46101af36600461156d565b61061a565b60405161012c9190611946565b61011f610838565b61015061085a565b6101506101df3660046115f7565b6108e2565b6101ec6109d4565b60405161012c91906116f8565b6101506109ed565b61015061020f366004611598565b610a61565b61015061022236600461156d565b610bb2565b6001600160a01b038116600090815260996020526040812060009061024a6111a2565b906101000a90046001600160a01b03169050919050565b6001609761026d6111a2565b906101000a90046001600160a01b031681565b610288610cb8565b6001600160a01b03166000606561029d6111a2565b906101000a90046001600160a01b03166001600160a01b0316146102e55760405162461bcd60e51b81526004016102d3906118c3565b604051809103906102e2611137565b50505b806097610100816102f46111a2565b816001600160a01b0302191690836001600160a01b03160217906103166111fd565b50505050565b610324610cb8565b6001600160a01b0316600060656103396111a2565b906101000a90046001600160a01b03166001600160a01b0316146103815760405162461bcd60e51b815260040161036f906118c3565b6040518091039061037e611137565b50505b6001600160a01b03811660009081526098602052604081206001816103a46111a2565b8160ff021916908360ff160217906103ba6111fd565b5050506001600160a01b03811660009081526099602052604081206001816102f46111a2565b6001600160a01b0381166000908152609860205280604081206000906104046111a2565b906101000a900460ff1660996000856001600160a01b03166001600160a01b0316815260200190815260200160002060009061043e6111a2565b906101000a90046001600160a01b031691509150915091565b61045f610cb8565b6001600160a01b0316600060656104746111a2565b906101000a90046001600160a01b03166001600160a01b0316146104bc5760405162461bcd60e51b81526004016104aa906118c3565b604051809103906104b9611137565b50505b60008060656104c96111a2565b906101000a90046001600160a01b03166001600160a01b03167f8be0079c531659141344cd1fd0a4f28419497f9722a3daafe3b4186f6b6457e060405160405180910390a36000606560018161051d6111a2565b816001600160a01b0302191690836001600160a01b031602179061053f6111fd565b505050565b61054c610cb8565b6001600160a01b0316600060656105616111a2565b906101000a90046001600160a01b03166001600160a01b0316146105a95760405162461bcd60e51b8152600401610597906118c3565b604051809103906105a6611137565b50505b60005b81518160ff1610156106165761060e828260ff16815181106105ca57fe5b602002602001015151838360ff16815181106105e257fe5b602002602001015160200151848460ff16815181106105fd57fe5b6020026020010151604001516108e2565b6001016105ac565b5050565b6001600160a01b03811660009081526099602052806040812060009061063e6111a2565b6001600160a01b03858116600090815260986020526101009390930a9091041691506040812060009061066f6111a2565b60ff6101009290920a90041690506001600160a01b0382166106b55760405162461bcd60e51b81526004016106a390611780565b604051809103906106b2611137565b50505b600060ff82161580156106db5750600060976106cf6111a2565b906101000a900460ff16155b156107fe57826001600160a01b031663feaf968c6040518163ffffffff1660e01b815260040160a060405180830381868061071461124b565b15801561072957600080610726611137565b50505b505a610733611297565b50505050509250505080156107655750604051601f3d908101601f19168201604052610762919081019061168a565b60015b6107975760405162461bcd60e51b815260040161078190611809565b60405180910390610790611137565b50506107fe565b5a6107a0611382565b6107ad8362015f90610cc8565b10156107dd5760405162461bcd60e51b81526004016107cb906117c3565b604051809103906107da611137565b50505b60008413156107f8576107f5846402540be400610d08565b95505b50505050505b600081116108305760405162461bcd60e51b815260040161081e90611840565b6040518091039061082d611137565b50505b949350505050565b60008060656108456111a2565b906101000a90046001600160a01b0316905090565b610862610cb8565b6001600160a01b0316600060656108776111a2565b906101000a90046001600160a01b03166001600160a01b0316146108bf5760405162461bcd60e51b81526004016108ad906118c3565b604051809103906108bc611137565b50505b6001609781816108cd6111a2565b8160ff0219169083151502179061053f6111fd565b6108ea610cb8565b6001600160a01b0316600060656108ff6111a2565b906101000a90046001600160a01b03166001600160a01b0316146109475760405162461bcd60e51b8152600401610935906118c3565b60405180910390610944611137565b50505b6001600160a01b0383166000908152609860205282906040902060018161096c6111a2565b8160ff021916908360ff160217906109826111fd565b5050506001600160a01b038316600090815260996020528190604090206001816109aa6111a2565b816001600160a01b0302191690836001600160a01b03160217906109cc6111fd565b505050505050565b600060976109e06111a2565b906101000a900460ff1681565b6109f5610cb8565b6001600160a01b031660006065610a0a6111a2565b906101000a90046001600160a01b03166001600160a01b031614610a525760405162461bcd60e51b8152600401610a40906118c3565b60405180910390610a4f611137565b50505b600060976001816108cd6111a2565b60016000610a6d6111a2565b906101000a900460ff1680610a855750610a85610d42565b80610aa25750600080610a966111a2565b906101000a900460ff16155b610ad05760405162461bcd60e51b8152600401610abe906118f8565b60405180910390610acd611137565b50505b6000600181610add6111a2565b906101000a900460ff161590508015610b43576001600061010081610b006111a2565b8160ff02191690831515021790610b156111fd565b50505060016000806101000a81610b2a6111a2565b8160ff02191690831515021790610b3f6111fd565b5050505b610b4b610db3565b82609761010081610b5a6111a2565b816001600160a01b0302191690836001600160a01b0316021790610b7c6111fd565b505050610b8882610544565b801561053f5760008061010081610b9d6111a2565b8160ff021916908315150217906109cc6111fd565b610bba610cb8565b6001600160a01b031660006065610bcf6111a2565b906101000a90046001600160a01b03166001600160a01b031614610c175760405162461bcd60e51b8152600401610c05906118c3565b60405180910390610c14611137565b50505b6001600160a01b038116610c4f5760405162461bcd60e51b8152600401610c3d90611703565b60405180910390610c4c611137565b50505b6001600160a01b03811660006065610c656111a2565b906101000a90046001600160a01b03166001600160a01b03167f8be0079c531659141344cd1fd0a4f28419497f9722a3daafe3b4186f6b6457e060405160405180910390a38060656001816102f46111a2565b60005a610cc36113c8565b905090565b600082820183811015610cff5760405162461bcd60e51b8152600401610ced90611749565b60405180910390610cfc611137565b50505b90505b92915050565b600082610d1757506000610d02565b82820282848281610d2457fe5b0414610cff5760405162461bcd60e51b8152600401610ced90611882565b6000805a63996d79a5598160e01b8152602081600483336000905af158601d01573d60011458600c01573d6000803e3d621234565260ea61109c528051925060005b6040811015610d9b57600082820152602001610d84565b5050509050600081610dab61124b565b159250505090565b60016000610dbf6111a2565b906101000a900460ff1680610dd75750610dd7610d42565b80610df45750600080610de86111a2565b906101000a900460ff16155b610e225760405162461bcd60e51b8152600401610e10906118f8565b60405180910390610e1f611137565b50505b6000600181610e2f6111a2565b906101000a900460ff161590508015610e95576001600061010081610e526111a2565b8160ff02191690831515021790610e676111fd565b50505060016000806101000a81610e7c6111a2565b8160ff02191690831515021790610e916111fd565b5050505b610e9d610ed2565b610ea5610fc8565b8015610ecf5760008061010081610eba6111a2565b8160ff021916908315150217906103166111fd565b50565b60016000610ede6111a2565b906101000a900460ff1680610ef65750610ef6610d42565b80610f135750600080610f076111a2565b906101000a900460ff16155b610f415760405162461bcd60e51b8152600401610f2f906118f8565b60405180910390610f3e611137565b50505b6000600181610f4e6111a2565b906101000a900460ff161590508015610ea5576001600061010081610f716111a2565b8160ff02191690831515021790610f866111fd565b50505060016000806101000a81610f9b6111a2565b8160ff02191690831515021790610fb06111fd565b5050508015610ecf5760008061010081610eba6111a2565b60016000610fd46111a2565b906101000a900460ff1680610fec5750610fec610d42565b806110095750600080610ffd6111a2565b906101000a900460ff16155b6110375760405162461bcd60e51b8152600401611025906118f8565b60405180910390611034611137565b50505b60006001816110446111a2565b906101000a900460ff1615905080156110aa5760016000610100816110676111a2565b8160ff0219169083151502179061107c6111fd565b50505060016000806101000a816110916111a2565b8160ff021916908315150217906110a66111fd565b5050505b60006110b4610cb8565b90508060656001816110c46111a2565b816001600160a01b0302191690836001600160a01b03160217906110e66111fd565b5050506001600160a01b03811660007f8be0079c531659141344cd1fd0a4f28419497f9722a3daafe3b4186f6b6457e060405160405180910390a3508015610ecf5760008061010081610eba6111a2565b632a2a7adb598160e01b8152600481016020815285602082015260005b8681101561116f578086015182820160400152602001611154565b506020828760640184336000905af158601d01573d60011458600c01573d6000803e3d621234565260ea61109c52505050565b6303daa959598160e01b8152836004820152602081602483336000905af158601d01573d60011458600c01573d6000803e3d621234565260ea61109c528051935060005b604081101561053f576000828201526020016111e6565b6322bd64c0598160e01b8152836004820152846024820152600081604483336000905af158601d01573d60011458600c01573d6000803e3d621234565260ea61109c526000815260206111e6565b638435035b598160e01b8152836004820152602081602483336000905af158601d01573d60011458600c01573d6000803e3d621234565260ea61109c52805160008252935060206111e6565b638540661f598160e01b81526112c8565b8080831115610d02575090919050565b8080831015610d02575090919050565b836004820152846024820152606060448201528660648201526084810160005b888110156113005780880151828201526020016112e8565b506060828960a40184336000905af158601d01573d60011458600c01573d6000803e3d621234565260ea61109c52815160408301513d6000853e8b8b82606087013350600060045af150596113558d3d6112b8565b8c0161136181876112a8565b5b828110156113765760008152602001611362565b50929c50505050505050565b63bdbf8c36598160e01b8152602081600483336000905af158601d01573d60011458600c01573d6000803e3d621234565260ea61109c52805160008252935060206111e6565b6373509064598160e01b8152602081600483336000905af158601d01573d60011458600c01573d6000803e3d621234565260ea61109c52805160008252935060206111e6565b80356001600160a01b0381168114610d025760008061142b611137565b505092915050565b600082601f83011261144c578081611449611137565b50505b813567ffffffffffffffff81111561146b578182611468611137565b50505b602061147a818284020161196b565b82815292508083018482016060808502870184018810156114a3576000806114a0611137565b50505b60005b858110156114ca576114b889846114d6565b845292840192918101916001016114a6565b50505050505092915050565b6000606082840312156114f05780816114ed611137565b50505b6114fa606061196b565b9050611506838361140e565b81526115158360208401611532565b6020820152611527836040840161140e565b604082015292915050565b803560ff81168114610d025760008061142b611137565b60008151905069ffffffffffffffffffff81168114610d025760008061142b611137565b600060208284031215611587578081611584611137565b50505b611591838361140e565b9392505050565b600080604083850312156115b35780816115b0611137565b50505b6115bd848461140e565b9150602083013567ffffffffffffffff8111156115e15781826115de611137565b50505b6115ed85828601611433565b9150509250929050565b600080600060608486031215611614578081611611611137565b50505b61161e858561140e565b925061162d8560208601611532565b915061163c856040860161140e565b90509250925092565b60006020828403121561165f57808161165c611137565b50505b813567ffffffffffffffff81111561167e57818261167b611137565b50505b61083084828501611433565b600080600080600060a086880312156116aa5780816116a7611137565b50505b6116b48787611549565b94506020860151935060408601519250606086015191506116d88760808801611549565b90509295509295909350565b6001600160a01b0391909116815260200190565b901515815260200190565b60208082526026908201527f4f776e61626c653a206e6577206f776e657220697320746865207a65726f206160408201526564647265737360d01b606082015260800190565b6020808252601b908201527f536166654d6174683a206164646974696f6e206f766572666c6f770000000000604082015260600190565b60208082526023908201527f5072696365436f6e73756d65723a2061676772656761746f72206e6f7420666f6040820152621d5b9960ea1b606082015260800190565b60208082526026908201527f5072696365436f6e73756d65723a20636861696e6c696e6b20707269636520656040820152651e1c1a5c995960d21b606082015260800190565b6020808252601f908201527f5072696365436f6e73756d65723a20707269636520676574206661696c656400604082015260600190565b60208082526022908201527f5072696365436f6e73756d65723a207072696365206e6f7420617661696c61626040820152616c6560f01b606082015260800190565b60208082526021908201527f536166654d6174683a206d756c7469706c69636174696f6e206f766572666c6f6040820152607760f81b606082015260800190565b6020808252818101527f4f776e61626c653a2063616c6c6572206973206e6f7420746865206f776e6572604082015260600190565b6020808252602e908201527f436f6e747261637420696e7374616e63652068617320616c726561647920626560408201526d195b881a5b9a5d1a585b1a5e995960921b606082015260800190565b90815260200190565b60ff9290921682526001600160a01b0316602082015260400190565b6000604051905081810181811067ffffffffffffffff8211171561199757600080611994611137565b50505b60405291905056",
  "linkReferences": {},
  "deployedLinkReferences": {}
}