{
  "_format": "hh-sol-artifact-1",
  "contractName": "PriceConsumer",
  "sourceName": "contracts/priceFeeds/PriceConsumer.sol",
  "abi": [
    {
      "anonymous": false,
      "inputs": [
        {
          "indexed": true,
          "internalType": "address",
          "name": "previousOwner",
          "type": "address"
        },
        {
          "indexed": true,
          "internalType": "address",
          "name": "newOwner",
          "type": "address"
        }
      ],
      "name": "OwnershipTransferred",
      "type": "event"
    },
    {
      "inputs": [
        {
          "internalType": "address",
          "name": "_asset",
          "type": "address"
        },
        {
          "internalType": "uint8",
          "name": "_assetType",
          "type": "uint8"
        },
        {
          "internalType": "address",
          "name": "_aggregator",
          "type": "address"
        }
      ],
      "name": "addAggregator",
      "outputs": [],
      "stateMutability": "nonpayable",
      "type": "function"
    },
    {
      "inputs": [],
      "name": "disableChainlink",
      "outputs": [],
      "stateMutability": "nonpayable",
      "type": "function"
    },
    {
      "inputs": [],
      "name": "enableChainlink",
      "outputs": [],
      "stateMutability": "nonpayable",
      "type": "function"
    },
    {
      "inputs": [
        {
          "internalType": "address",
          "name": "_asset",
          "type": "address"
        }
      ],
      "name": "getUSDPrice",
      "outputs": [
        {
          "internalType": "uint256",
          "name": "",
          "type": "uint256"
        }
      ],
      "stateMutability": "view",
      "type": "function"
    },
    {
      "inputs": [
        {
          "internalType": "address",
          "name": "_poolFactory",
          "type": "address"
        }
      ],
      "name": "initialize",
      "outputs": [],
      "stateMutability": "nonpayable",
      "type": "function"
    },
    {
      "inputs": [],
      "name": "isDisabledChainlink",
      "outputs": [
        {
          "internalType": "bool",
          "name": "",
          "type": "bool"
        }
      ],
      "stateMutability": "view",
      "type": "function"
    },
    {
      "inputs": [],
      "name": "owner",
      "outputs": [
        {
          "internalType": "address",
          "name": "",
          "type": "address"
        }
      ],
      "stateMutability": "view",
      "type": "function"
    },
    {
      "inputs": [],
      "name": "poolFactory",
      "outputs": [
        {
          "internalType": "address",
          "name": "",
          "type": "address"
        }
      ],
      "stateMutability": "view",
      "type": "function"
    },
    {
      "inputs": [
        {
          "internalType": "address",
          "name": "_asset",
          "type": "address"
        }
      ],
      "name": "removeAggregator",
      "outputs": [],
      "stateMutability": "nonpayable",
      "type": "function"
    },
    {
      "inputs": [],
      "name": "renounceOwnership",
      "outputs": [],
      "stateMutability": "nonpayable",
      "type": "function"
    },
    {
      "inputs": [
        {
          "internalType": "address",
          "name": "_poolFactory",
          "type": "address"
        }
      ],
      "name": "setPoolFactory",
      "outputs": [],
      "stateMutability": "nonpayable",
      "type": "function"
    },
    {
      "inputs": [
        {
          "internalType": "address",
          "name": "newOwner",
          "type": "address"
        }
      ],
      "name": "transferOwnership",
      "outputs": [],
      "stateMutability": "nonpayable",
      "type": "function"
    }
  ],
  "bytecode": "0x608060405234801561001057600080fd5b50610e69806100206000396000f3fe608060405234801561001057600080fd5b50600436106100b45760003560e01c80638da5cb5b116100715780638da5cb5b146101a4578063b2806001146101ac578063c4d66de8146101b4578063cf45ba1b146101da578063d54e96d2146101f6578063f2fde38b146101fe576100b4565b80632c63812c146100b95780634219dc40146100f4578063473597a014610118578063715018a61461013e5780638b2f0f4f146101465780638c651f111461017e575b600080fd5b6100f2600480360360608110156100cf57600080fd5b506001600160a01b03813581169160ff6020820135169160409091013516610224565b005b6100fc6102ca565b604080516001600160a01b039092168252519081900360200190f35b6100f26004803603602081101561012e57600080fd5b50356001600160a01b03166102de565b6100f2610370565b61016c6004803603602081101561015c57600080fd5b50356001600160a01b0316610424565b60408051918252519081900360200190f35b6100f26004803603602081101561019457600080fd5b50356001600160a01b0316610626565b6100fc6106b7565b6100f26106c6565b6100f2600480360360208110156101ca57600080fd5b50356001600160a01b0316610796565b6101e2610861565b604080519115158252519081900360200190f35b6100f261086a565b6100f26004803603602081101561021457600080fd5b50356001600160a01b0316610937565b60975461010090046001600160a01b0316331461027c576040805162461bcd60e51b81526020600482015260116024820152706f6e6c7920706f6f6c20666163746f727960781b604482015290519081900360640190fd5b6001600160a01b03928316600090815260996020908152604080832080546001600160a01b03191694909616939093179094556098909352909120805460ff191660ff909216919091179055565b60975461010090046001600160a01b031681565b6102e6610a42565b6065546001600160a01b03908116911614610348576040805162461bcd60e51b815260206004820181905260248201527f4f776e61626c653a2063616c6c6572206973206e6f7420746865206f776e6572604482015290519081900360640190fd5b609780546001600160a01b0390921661010002610100600160a81b0319909216919091179055565b610378610a42565b6065546001600160a01b039081169116146103da576040805162461bcd60e51b815260206004820181905260248201527f4f776e61626c653a2063616c6c6572206973206e6f7420746865206f776e6572604482015290519081900360640190fd5b6065546040516000916001600160a01b0316907f8be0079c531659141344cd1fd0a4f28419497f9722a3daafe3b4186f6b6457e0908390a3606580546001600160a01b0319169055565b6001600160a01b0380821660009081526099602090815260408083205460989092528220549192169060ff168161048c5760405162461bcd60e51b8152600401808060200182810382526023815260200180610d7a6023913960400191505060405180910390fd5b600060ff82161580156104a2575060975460ff16155b156105df57826001600160a01b031663feaf968c6040518163ffffffff1660e01b815260040160a06040518083038186803b1580156104e057600080fd5b505afa92505050801561052257506040513d60a081101561050057600080fd5b5080516020820151604083015160608401516080909401519293919290919060015b610573576040805162461bcd60e51b815260206004820152601f60248201527f5072696365436f6e73756d65723a20707269636520676574206661696c656400604482015290519081900360640190fd5b426105818362015f90610a46565b10156105be5760405162461bcd60e51b8152600401808060200182810382526026815260200180610d9d6026913960400191505060405180910390fd5b60008413156105d9576105d6846402540be400610aa9565b95505b50505050505b6000811161061e5760405162461bcd60e51b8152600401808060200182810382526022815260200180610dc36022913960400191505060405180910390fd5b949350505050565b60975461010090046001600160a01b0316331461067e576040805162461bcd60e51b81526020600482015260116024820152706f6e6c7920706f6f6c20666163746f727960781b604482015290519081900360640190fd5b6001600160a01b0316600090815260996020908152604080832080546001600160a01b031916905560989091529020805460ff19169055565b6065546001600160a01b031690565b609760019054906101000a90046001600160a01b03166001600160a01b0316631d68702d6040518163ffffffff1660e01b815260040160206040518083038186803b15801561071457600080fd5b505afa158015610728573d6000803e3d6000fd5b505050506040513d602081101561073e57600080fd5b50516001600160a01b03163314610787576040805162461bcd60e51b81526020600482015260086024820152676f6e6c792064616f60c01b604482015290519081900360640190fd5b6097805460ff19166001179055565b600054610100900460ff16806107af57506107af610b02565b806107bd575060005460ff16155b6107f85760405162461bcd60e51b815260040180806020018281038252602e815260200180610e06602e913960400191505060405180910390fd5b600054610100900460ff16158015610823576000805460ff1961ff0019909116610100171660011790555b61082b610b08565b60978054610100600160a81b0319166101006001600160a01b03851602179055801561085d576000805461ff00191690555b5050565b60975460ff1681565b609760019054906101000a90046001600160a01b03166001600160a01b0316631d68702d6040518163ffffffff1660e01b815260040160206040518083038186803b1580156108b857600080fd5b505afa1580156108cc573d6000803e3d6000fd5b505050506040513d60208110156108e257600080fd5b50516001600160a01b0316331461092b576040805162461bcd60e51b81526020600482015260086024820152676f6e6c792064616f60c01b604482015290519081900360640190fd5b6097805460ff19169055565b61093f610a42565b6065546001600160a01b039081169116146109a1576040805162461bcd60e51b815260206004820181905260248201527f4f776e61626c653a2063616c6c6572206973206e6f7420746865206f776e6572604482015290519081900360640190fd5b6001600160a01b0381166109e65760405162461bcd60e51b8152600401808060200182810382526026815260200180610d546026913960400191505060405180910390fd5b6065546040516001600160a01b038084169216907f8be0079c531659141344cd1fd0a4f28419497f9722a3daafe3b4186f6b6457e090600090a3606580546001600160a01b0319166001600160a01b0392909216919091179055565b3390565b600082820183811015610aa0576040805162461bcd60e51b815260206004820152601b60248201527f536166654d6174683a206164646974696f6e206f766572666c6f770000000000604482015290519081900360640190fd5b90505b92915050565b600082610ab857506000610aa3565b82820282848281610ac557fe5b0414610aa05760405162461bcd60e51b8152600401808060200182810382526021815260200180610de56021913960400191505060405180910390fd5b303b1590565b600054610100900460ff1680610b215750610b21610b02565b80610b2f575060005460ff16155b610b6a5760405162461bcd60e51b815260040180806020018281038252602e815260200180610e06602e913960400191505060405180910390fd5b600054610100900460ff16158015610b95576000805460ff1961ff0019909116610100171660011790555b610b9d610bba565b610ba5610c5a565b8015610bb7576000805461ff00191690555b50565b600054610100900460ff1680610bd35750610bd3610b02565b80610be1575060005460ff16155b610c1c5760405162461bcd60e51b815260040180806020018281038252602e815260200180610e06602e913960400191505060405180910390fd5b600054610100900460ff16158015610ba5576000805460ff1961ff0019909116610100171660011790558015610bb7576000805461ff001916905550565b600054610100900460ff1680610c735750610c73610b02565b80610c81575060005460ff16155b610cbc5760405162461bcd60e51b815260040180806020018281038252602e815260200180610e06602e913960400191505060405180910390fd5b600054610100900460ff16158015610ce7576000805460ff1961ff0019909116610100171660011790555b6000610cf1610a42565b606580546001600160a01b0319166001600160a01b038316908117909155604051919250906000907f8be0079c531659141344cd1fd0a4f28419497f9722a3daafe3b4186f6b6457e0908290a3508015610bb7576000805461ff00191690555056fe4f776e61626c653a206e6577206f776e657220697320746865207a65726f20616464726573735072696365436f6e73756d65723a2061676772656761746f72206e6f7420666f756e645072696365436f6e73756d65723a20636861696e6c696e6b20707269636520657870697265645072696365436f6e73756d65723a207072696365206e6f7420617661696c61626c65536166654d6174683a206d756c7469706c69636174696f6e206f766572666c6f77436f6e747261637420696e7374616e63652068617320616c7265616479206265656e20696e697469616c697a6564a2646970667358221220539158a3dd03796b050d0150e84c25deb28c6303f8308184db2623d6a5f4f9dc64736f6c634300060c0033",
  "linkReferences": {},
  "deployedLinkReferences": {}
}