{
  "_format": "hh-sol-artifact-1",
  "contractName": "PriceConsumer-ovm",
  "sourceName": "contracts/priceFeeds/PriceConsumer.sol",
  "abi": [
    {
      "anonymous": false,
      "inputs": [
        {
          "indexed": true,
          "internalType": "address",
          "name": "previousOwner",
          "type": "address"
        },
        {
          "indexed": true,
          "internalType": "address",
          "name": "newOwner",
          "type": "address"
        }
      ],
      "name": "OwnershipTransferred",
      "type": "event"
    },
    {
      "inputs": [
        {
          "internalType": "address",
          "name": "_asset",
          "type": "address"
        },
        {
          "internalType": "uint8",
          "name": "_assetType",
          "type": "uint8"
        },
        {
          "internalType": "address",
          "name": "_aggregator",
          "type": "address"
        }
      ],
      "name": "addAggregator",
      "outputs": [],
      "stateMutability": "nonpayable",
      "type": "function"
    },
    {
      "inputs": [],
      "name": "disableChainlink",
      "outputs": [],
      "stateMutability": "nonpayable",
      "type": "function"
    },
    {
      "inputs": [],
      "name": "enableChainlink",
      "outputs": [],
      "stateMutability": "nonpayable",
      "type": "function"
    },
    {
      "inputs": [
        {
          "internalType": "address",
          "name": "_asset",
          "type": "address"
        }
      ],
      "name": "getUSDPrice",
      "outputs": [
        {
          "internalType": "uint256",
          "name": "",
          "type": "uint256"
        }
      ],
      "stateMutability": "view",
      "type": "function"
    },
    {
      "inputs": [],
      "name": "initialize",
      "outputs": [],
      "stateMutability": "nonpayable",
      "type": "function"
    },
    {
      "inputs": [],
      "name": "owner",
      "outputs": [
        {
          "internalType": "address",
          "name": "",
          "type": "address"
        }
      ],
      "stateMutability": "view",
      "type": "function"
    },
    {
      "inputs": [],
      "name": "poolFactory",
      "outputs": [
        {
          "internalType": "address",
          "name": "",
          "type": "address"
        }
      ],
      "stateMutability": "view",
      "type": "function"
    },
    {
      "inputs": [
        {
          "internalType": "address",
          "name": "_asset",
          "type": "address"
        }
      ],
      "name": "removeAggregator",
      "outputs": [],
      "stateMutability": "nonpayable",
      "type": "function"
    },
    {
      "inputs": [],
      "name": "renounceOwnership",
      "outputs": [],
      "stateMutability": "nonpayable",
      "type": "function"
    },
    {
      "inputs": [
        {
          "internalType": "address",
          "name": "_poolFactory",
          "type": "address"
        }
      ],
      "name": "setPoolFactory",
      "outputs": [],
      "stateMutability": "nonpayable",
      "type": "function"
    },
    {
      "inputs": [
        {
          "internalType": "address",
          "name": "newOwner",
          "type": "address"
        }
      ],
      "name": "transferOwnership",
      "outputs": [],
      "stateMutability": "nonpayable",
      "type": "function"
    }
  ],
  "bytecode": "0x60806040523480156100195760008061001661001f565b50505b5061008a565b632a2a7adb598160e01b8152600481016020815285602082015260005b8681101561005757808601518282016040015260200161003c565b506020828760640184336000905af158600e01573d6000803e3d6000fd5b3d6001141558600a015760016000f35b505050565b611676806100996000396000f3fe6080604052348015610019576000806100166112be565b50505b50600436106100b25760003560e01c80638b2f0f4f1161007a5780638b2f0f4f146101675780638c651f11146101a85780638da5cb5b146101d7578063b2806001146101df578063d54e96d2146101e7578063f2fde38b146101ef576100b2565b80632c63812c146100c05780634219dc4014610104578063473597a014610128578063715018a6146101575780638129fc1c1461015f575b6000806100bd6112be565b50505b610102600480360360608110156100df576000806100dc6112be565b50505b506001600160a01b03813581169160ff602082013516916040909101351661021e565b005b61010c610330565b6040516001600160a01b03909116815260200160405180910390f35b61010260048036036020811015610147576000806101446112be565b50505b50356001600160a01b031661034f565b610102610416565b61010261052e565b61019660048036036020811015610186576000806101836112be565b50505b50356001600160a01b031661065b565b60405190815260200160405180910390f35b610102600480360360208110156101c7576000806101c46112be565b50505b50356001600160a01b031661090d565b61010c610a13565b610102610a35565b610102610b6e565b6101026004803603602081101561020e5760008061020b6112be565b50505b50356001600160a01b0316610c93565b6001609761022a611329565b906101000a90046001600160a01b03166001600160a01b03165a61024c611384565b6001600160a01b0316146102a35760405162461bcd60e51b81526020600482015260116024820152706f6e6c7920706f6f6c20666163746f727960781b6044820152606401604051809103906102a06112be565b50505b6001600160a01b038316600090815260996020528190604090206001816102c8611329565b816001600160a01b0302191690836001600160a01b03160217906102ea6113ca565b5050506001600160a01b03831660009081526098602052829060409020600181610312611329565b8160ff021916908360ff160217906103286113ca565b505050505050565b6001609761033c611329565b906101000a90046001600160a01b031681565b610357610dda565b6001600160a01b03166000606561036c611329565b906101000a90046001600160a01b03166001600160a01b0316146103df5760405162461bcd60e51b815260206004820181905260248201527f4f776e61626c653a2063616c6c6572206973206e6f7420746865206f776e65726044820152606401604051809103906103dc6112be565b50505b806097610100816103ee611329565b816001600160a01b0302191690836001600160a01b03160217906104106113ca565b50505050565b61041e610dda565b6001600160a01b031660006065610433611329565b906101000a90046001600160a01b03166001600160a01b0316146104a65760405162461bcd60e51b815260206004820181905260248201527f4f776e61626c653a2063616c6c6572206973206e6f7420746865206f776e65726044820152606401604051809103906104a36112be565b50505b60008060656104b3611329565b906101000a90046001600160a01b03166001600160a01b03167f8be0079c531659141344cd1fd0a4f28419497f9722a3daafe3b4186f6b6457e060405160405180910390a360006065600181610507611329565b816001600160a01b0302191690836001600160a01b03160217906105296113ca565b505050565b6001600061053a611329565b906101000a900460ff16806105525750610552610dea565b8061056f5750600080610563611329565b906101000a900460ff16155b6105b35760405162461bcd60e51b815260040180806020018281038252602e815260200180611648602e9139604001915050604051809103906105b06112be565b50505b60006001816105c0611329565b906101000a900460ff1615905080156106265760016000610100816105e3611329565b8160ff021916908315150217906105f86113ca565b50505060016000806101000a8161060d611329565b8160ff021916908315150217906106226113ca565b5050505b61062e610e5b565b80156106585760008061010081610643611329565b8160ff021916908315150217906104106113ca565b50565b6001600160a01b03811660009081526099602052806040812060009061067f611329565b6001600160a01b03858116600090815260986020526101009390930a909104169150604081206000906106b0611329565b60ff6101009290920a90041690506001600160a01b03821661070c5760405162461bcd60e51b81526004018080602001828103825260238152602001806115bc60239139604001915050604051809103906107096112be565b50505b600060ff8216158015610732575060006097610726611329565b906101000a900460ff16155b156108bd57826001600160a01b031663feaf968c6040518163ffffffff1660e01b815260040160a060405180830381868061076b611418565b1580156107805760008061077d6112be565b50505b505a61078a611464565b50505050509250505080156107e357506040513d60a08110156107b5576000806107b26112be565b50505b8101908080519291906020018051929190602001805192919060200180519291906020018051925060019150505b6108405760405162461bcd60e51b815260206004820152601f60248201527f5072696365436f6e73756d65723a20707269636520676574206661696c6564006044820152606401604051809103906108396112be565b50506108bd565b5a61084961154f565b6108568362015f90610f63565b101561089c5760405162461bcd60e51b81526004018080602001828103825260268152602001806115df60269139604001915050604051809103906108996112be565b50505b60008413156108b7576108b4846402540be400610fce565b95505b50505050505b600081116109055760405162461bcd60e51b815260040180806020018281038252602281526020018061160560229139604001915050604051809103906109026112be565b50505b949350505050565b60016097610919611329565b906101000a90046001600160a01b03166001600160a01b03165a61093b611384565b6001600160a01b0316146109925760405162461bcd60e51b81526020600482015260116024820152706f6e6c7920706f6f6c20666163746f727960781b60448201526064016040518091039061098f6112be565b50505b6001600160a01b03811660009081526099602052604081206001816109b5611329565b816001600160a01b0302191690836001600160a01b03160217906109d76113ca565b5050506001600160a01b03811660009081526098602052604081206001816109fd611329565b8160ff021916908360ff160217906104106113ca565b6000806065610a20611329565b906101000a90046001600160a01b0316905090565b60016097610a41611329565b906101000a90046001600160a01b03166001600160a01b0316631d68702d6040518163ffffffff1660e01b81526004016020604051808303818680610a84611418565b158015610a9957600080610a966112be565b50505b505a610aa3611464565b5050505050158015610ac2573d6000803e3d6000610abf6112be565b50505b505050506040513d6020811015610ae157600080610ade6112be565b50505b8101908080516001600160a01b0316925050505a610afd611384565b6001600160a01b031614610b4b5760405162461bcd60e51b81526020600482015260086024820152676f6e6c792064616f60c01b604482015260640160405180910390610b486112be565b50505b600160978181610b59611329565b8160ff021916908315150217906105296113ca565b60016097610b7a611329565b906101000a90046001600160a01b03166001600160a01b0316631d68702d6040518163ffffffff1660e01b81526004016020604051808303818680610bbd611418565b158015610bd257600080610bcf6112be565b50505b505a610bdc611464565b5050505050158015610bfb573d6000803e3d6000610bf86112be565b50505b505050506040513d6020811015610c1a57600080610c176112be565b50505b8101908080516001600160a01b0316925050505a610c36611384565b6001600160a01b031614610c845760405162461bcd60e51b81526020600482015260086024820152676f6e6c792064616f60c01b604482015260640160405180910390610c816112be565b50505b60006097600181610b59611329565b610c9b610dda565b6001600160a01b031660006065610cb0611329565b906101000a90046001600160a01b03166001600160a01b031614610d235760405162461bcd60e51b815260206004820181905260248201527f4f776e61626c653a2063616c6c6572206973206e6f7420746865206f776e6572604482015260640160405180910390610d206112be565b50505b6001600160a01b038116610d715760405162461bcd60e51b81526004018080602001828103825260268152602001806115966026913960400191505060405180910390610d6e6112be565b50505b6001600160a01b03811660006065610d87611329565b906101000a90046001600160a01b03166001600160a01b03167f8be0079c531659141344cd1fd0a4f28419497f9722a3daafe3b4186f6b6457e060405160405180910390a38060656001816103ee611329565b60005a610de5611384565b905090565b6000805a63996d79a5598160e01b8152602081600483336000905af158600e01573d6000803e3d6000fd5b3d6001141558600a015760016000f35b8051925060005b6040811015610e4357600082820152602001610e2c565b5050509050600081610e53611418565b159250505090565b60016000610e67611329565b906101000a900460ff1680610e7f5750610e7f610dea565b80610e9c5750600080610e90611329565b906101000a900460ff16155b610ee05760405162461bcd60e51b815260040180806020018281038252602e815260200180611648602e913960400191505060405180910390610edd6112be565b50505b6000600181610eed611329565b906101000a900460ff161590508015610f53576001600061010081610f10611329565b8160ff02191690831515021790610f256113ca565b50505060016000806101000a81610f3a611329565b8160ff02191690831515021790610f4f6113ca565b5050505b610f5b61102d565b61062e611139565b600082820183811015610fc55760405162461bcd60e51b815260206004820152601b60248201527f536166654d6174683a206164646974696f6e206f766572666c6f770000000000604482015260640160405180910390610fc26112be565b50505b90505b92915050565b600082610fdd57506000610fc8565b82820282848281610fea57fe5b0414610fc55760405162461bcd60e51b81526004018080602001828103825260218152602001806116276021913960400191505060405180910390610fc26112be565b60016000611039611329565b906101000a900460ff16806110515750611051610dea565b8061106e5750600080611062611329565b906101000a900460ff16155b6110b25760405162461bcd60e51b815260040180806020018281038252602e815260200180611648602e9139604001915050604051809103906110af6112be565b50505b60006001816110bf611329565b906101000a900460ff16159050801561062e5760016000610100816110e2611329565b8160ff021916908315150217906110f76113ca565b50505060016000806101000a8161110c611329565b8160ff021916908315150217906111216113ca565b50505080156106585760008061010081610643611329565b60016000611145611329565b906101000a900460ff168061115d575061115d610dea565b8061117a575060008061116e611329565b906101000a900460ff16155b6111be5760405162461bcd60e51b815260040180806020018281038252602e815260200180611648602e9139604001915050604051809103906111bb6112be565b50505b60006001816111cb611329565b906101000a900460ff1615905080156112315760016000610100816111ee611329565b8160ff021916908315150217906112036113ca565b50505060016000806101000a81611218611329565b8160ff0219169083151502179061122d6113ca565b5050505b600061123b610dda565b905080606560018161124b611329565b816001600160a01b0302191690836001600160a01b031602179061126d6113ca565b5050506001600160a01b03811660007f8be0079c531659141344cd1fd0a4f28419497f9722a3daafe3b4186f6b6457e060405160405180910390a35080156106585760008061010081610643611329565b632a2a7adb598160e01b8152600481016020815285602082015260005b868110156112f65780860151828201604001526020016112db565b506020828760640184336000905af158600e01573d6000803e3d6000fd5b3d6001141558600a015760016000f35b505050565b6303daa959598160e01b8152836004820152602081602483336000905af158600e01573d6000803e3d6000fd5b3d6001141558600a015760016000f35b8051935060005b60408110156105295760008282015260200161136d565b6373509064598160e01b8152602081600483336000905af158600e01573d6000803e3d6000fd5b3d6001141558600a015760016000f35b8051600082529350602061136d565b6322bd64c0598160e01b8152836004820152846024820152600081604483336000905af158600e01573d6000803e3d6000fd5b3d6001141558600a015760016000f35b60008152602061136d565b638435035b598160e01b8152836004820152602081602483336000905af158600e01573d6000803e3d6000fd5b3d6001141558600a015760016000f35b8051600082529350602061136d565b638540661f598160e01b8152611495565b8080831115610fc8575090919050565b8080831015610fc8575090919050565b836004820152846024820152606060448201528660648201526084810160005b888110156114cd5780880151828201526020016114b5565b506060828960a40184336000905af158600e01573d6000803e3d6000fd5b3d6001141558600a015760016000f35b815160408301513d6000853e8b8b82606087013350600060045af150596115228d3d611485565b8c0161152e8187611475565b5b82811015611543576000815260200161152f565b50929c50505050505050565b63bdbf8c36598160e01b8152602081600483336000905af158600e01573d6000803e3d6000fd5b3d6001141558600a015760016000f35b8051600082529350602061136d56fe4f776e61626c653a206e6577206f776e657220697320746865207a65726f20616464726573735072696365436f6e73756d65723a2061676772656761746f72206e6f7420666f756e645072696365436f6e73756d65723a20636861696e6c696e6b20707269636520657870697265645072696365436f6e73756d65723a207072696365206e6f7420617661696c61626c65536166654d6174683a206d756c7469706c69636174696f6e206f766572666c6f77436f6e747261637420696e7374616e63652068617320616c7265616479206265656e20696e697469616c697a6564",
  "deployedBytecode": "0x6080604052348015610019576000806100166112be565b50505b50600436106100b25760003560e01c80638b2f0f4f1161007a5780638b2f0f4f146101675780638c651f11146101a85780638da5cb5b146101d7578063b2806001146101df578063d54e96d2146101e7578063f2fde38b146101ef576100b2565b80632c63812c146100c05780634219dc4014610104578063473597a014610128578063715018a6146101575780638129fc1c1461015f575b6000806100bd6112be565b50505b610102600480360360608110156100df576000806100dc6112be565b50505b506001600160a01b03813581169160ff602082013516916040909101351661021e565b005b61010c610330565b6040516001600160a01b03909116815260200160405180910390f35b61010260048036036020811015610147576000806101446112be565b50505b50356001600160a01b031661034f565b610102610416565b61010261052e565b61019660048036036020811015610186576000806101836112be565b50505b50356001600160a01b031661065b565b60405190815260200160405180910390f35b610102600480360360208110156101c7576000806101c46112be565b50505b50356001600160a01b031661090d565b61010c610a13565b610102610a35565b610102610b6e565b6101026004803603602081101561020e5760008061020b6112be565b50505b50356001600160a01b0316610c93565b6001609761022a611329565b906101000a90046001600160a01b03166001600160a01b03165a61024c611384565b6001600160a01b0316146102a35760405162461bcd60e51b81526020600482015260116024820152706f6e6c7920706f6f6c20666163746f727960781b6044820152606401604051809103906102a06112be565b50505b6001600160a01b038316600090815260996020528190604090206001816102c8611329565b816001600160a01b0302191690836001600160a01b03160217906102ea6113ca565b5050506001600160a01b03831660009081526098602052829060409020600181610312611329565b8160ff021916908360ff160217906103286113ca565b505050505050565b6001609761033c611329565b906101000a90046001600160a01b031681565b610357610dda565b6001600160a01b03166000606561036c611329565b906101000a90046001600160a01b03166001600160a01b0316146103df5760405162461bcd60e51b815260206004820181905260248201527f4f776e61626c653a2063616c6c6572206973206e6f7420746865206f776e65726044820152606401604051809103906103dc6112be565b50505b806097610100816103ee611329565b816001600160a01b0302191690836001600160a01b03160217906104106113ca565b50505050565b61041e610dda565b6001600160a01b031660006065610433611329565b906101000a90046001600160a01b03166001600160a01b0316146104a65760405162461bcd60e51b815260206004820181905260248201527f4f776e61626c653a2063616c6c6572206973206e6f7420746865206f776e65726044820152606401604051809103906104a36112be565b50505b60008060656104b3611329565b906101000a90046001600160a01b03166001600160a01b03167f8be0079c531659141344cd1fd0a4f28419497f9722a3daafe3b4186f6b6457e060405160405180910390a360006065600181610507611329565b816001600160a01b0302191690836001600160a01b03160217906105296113ca565b505050565b6001600061053a611329565b906101000a900460ff16806105525750610552610dea565b8061056f5750600080610563611329565b906101000a900460ff16155b6105b35760405162461bcd60e51b815260040180806020018281038252602e815260200180611648602e9139604001915050604051809103906105b06112be565b50505b60006001816105c0611329565b906101000a900460ff1615905080156106265760016000610100816105e3611329565b8160ff021916908315150217906105f86113ca565b50505060016000806101000a8161060d611329565b8160ff021916908315150217906106226113ca565b5050505b61062e610e5b565b80156106585760008061010081610643611329565b8160ff021916908315150217906104106113ca565b50565b6001600160a01b03811660009081526099602052806040812060009061067f611329565b6001600160a01b03858116600090815260986020526101009390930a909104169150604081206000906106b0611329565b60ff6101009290920a90041690506001600160a01b03821661070c5760405162461bcd60e51b81526004018080602001828103825260238152602001806115bc60239139604001915050604051809103906107096112be565b50505b600060ff8216158015610732575060006097610726611329565b906101000a900460ff16155b156108bd57826001600160a01b031663feaf968c6040518163ffffffff1660e01b815260040160a060405180830381868061076b611418565b1580156107805760008061077d6112be565b50505b505a61078a611464565b50505050509250505080156107e357506040513d60a08110156107b5576000806107b26112be565b50505b8101908080519291906020018051929190602001805192919060200180519291906020018051925060019150505b6108405760405162461bcd60e51b815260206004820152601f60248201527f5072696365436f6e73756d65723a20707269636520676574206661696c6564006044820152606401604051809103906108396112be565b50506108bd565b5a61084961154f565b6108568362015f90610f63565b101561089c5760405162461bcd60e51b81526004018080602001828103825260268152602001806115df60269139604001915050604051809103906108996112be565b50505b60008413156108b7576108b4846402540be400610fce565b95505b50505050505b600081116109055760405162461bcd60e51b815260040180806020018281038252602281526020018061160560229139604001915050604051809103906109026112be565b50505b949350505050565b60016097610919611329565b906101000a90046001600160a01b03166001600160a01b03165a61093b611384565b6001600160a01b0316146109925760405162461bcd60e51b81526020600482015260116024820152706f6e6c7920706f6f6c20666163746f727960781b60448201526064016040518091039061098f6112be565b50505b6001600160a01b03811660009081526099602052604081206001816109b5611329565b816001600160a01b0302191690836001600160a01b03160217906109d76113ca565b5050506001600160a01b03811660009081526098602052604081206001816109fd611329565b8160ff021916908360ff160217906104106113ca565b6000806065610a20611329565b906101000a90046001600160a01b0316905090565b60016097610a41611329565b906101000a90046001600160a01b03166001600160a01b0316631d68702d6040518163ffffffff1660e01b81526004016020604051808303818680610a84611418565b158015610a9957600080610a966112be565b50505b505a610aa3611464565b5050505050158015610ac2573d6000803e3d6000610abf6112be565b50505b505050506040513d6020811015610ae157600080610ade6112be565b50505b8101908080516001600160a01b0316925050505a610afd611384565b6001600160a01b031614610b4b5760405162461bcd60e51b81526020600482015260086024820152676f6e6c792064616f60c01b604482015260640160405180910390610b486112be565b50505b600160978181610b59611329565b8160ff021916908315150217906105296113ca565b60016097610b7a611329565b906101000a90046001600160a01b03166001600160a01b0316631d68702d6040518163ffffffff1660e01b81526004016020604051808303818680610bbd611418565b158015610bd257600080610bcf6112be565b50505b505a610bdc611464565b5050505050158015610bfb573d6000803e3d6000610bf86112be565b50505b505050506040513d6020811015610c1a57600080610c176112be565b50505b8101908080516001600160a01b0316925050505a610c36611384565b6001600160a01b031614610c845760405162461bcd60e51b81526020600482015260086024820152676f6e6c792064616f60c01b604482015260640160405180910390610c816112be565b50505b60006097600181610b59611329565b610c9b610dda565b6001600160a01b031660006065610cb0611329565b906101000a90046001600160a01b03166001600160a01b031614610d235760405162461bcd60e51b815260206004820181905260248201527f4f776e61626c653a2063616c6c6572206973206e6f7420746865206f776e6572604482015260640160405180910390610d206112be565b50505b6001600160a01b038116610d715760405162461bcd60e51b81526004018080602001828103825260268152602001806115966026913960400191505060405180910390610d6e6112be565b50505b6001600160a01b03811660006065610d87611329565b906101000a90046001600160a01b03166001600160a01b03167f8be0079c531659141344cd1fd0a4f28419497f9722a3daafe3b4186f6b6457e060405160405180910390a38060656001816103ee611329565b60005a610de5611384565b905090565b6000805a63996d79a5598160e01b8152602081600483336000905af158601d01573d60011458600c01573d6000803e3d621234565260ea61109c528051925060005b6040811015610e4357600082820152602001610e2c565b5050509050600081610e53611418565b159250505090565b60016000610e67611329565b906101000a900460ff1680610e7f5750610e7f610dea565b80610e9c5750600080610e90611329565b906101000a900460ff16155b610ee05760405162461bcd60e51b815260040180806020018281038252602e815260200180611648602e913960400191505060405180910390610edd6112be565b50505b6000600181610eed611329565b906101000a900460ff161590508015610f53576001600061010081610f10611329565b8160ff02191690831515021790610f256113ca565b50505060016000806101000a81610f3a611329565b8160ff02191690831515021790610f4f6113ca565b5050505b610f5b61102d565b61062e611139565b600082820183811015610fc55760405162461bcd60e51b815260206004820152601b60248201527f536166654d6174683a206164646974696f6e206f766572666c6f770000000000604482015260640160405180910390610fc26112be565b50505b90505b92915050565b600082610fdd57506000610fc8565b82820282848281610fea57fe5b0414610fc55760405162461bcd60e51b81526004018080602001828103825260218152602001806116276021913960400191505060405180910390610fc26112be565b60016000611039611329565b906101000a900460ff16806110515750611051610dea565b8061106e5750600080611062611329565b906101000a900460ff16155b6110b25760405162461bcd60e51b815260040180806020018281038252602e815260200180611648602e9139604001915050604051809103906110af6112be565b50505b60006001816110bf611329565b906101000a900460ff16159050801561062e5760016000610100816110e2611329565b8160ff021916908315150217906110f76113ca565b50505060016000806101000a8161110c611329565b8160ff021916908315150217906111216113ca565b50505080156106585760008061010081610643611329565b60016000611145611329565b906101000a900460ff168061115d575061115d610dea565b8061117a575060008061116e611329565b906101000a900460ff16155b6111be5760405162461bcd60e51b815260040180806020018281038252602e815260200180611648602e9139604001915050604051809103906111bb6112be565b50505b60006001816111cb611329565b906101000a900460ff1615905080156112315760016000610100816111ee611329565b8160ff021916908315150217906112036113ca565b50505060016000806101000a81611218611329565b8160ff0219169083151502179061122d6113ca565b5050505b600061123b610dda565b905080606560018161124b611329565b816001600160a01b0302191690836001600160a01b031602179061126d6113ca565b5050506001600160a01b03811660007f8be0079c531659141344cd1fd0a4f28419497f9722a3daafe3b4186f6b6457e060405160405180910390a35080156106585760008061010081610643611329565b632a2a7adb598160e01b8152600481016020815285602082015260005b868110156112f65780860151828201604001526020016112db565b506020828760640184336000905af158601d01573d60011458600c01573d6000803e3d621234565260ea61109c52505050565b6303daa959598160e01b8152836004820152602081602483336000905af158601d01573d60011458600c01573d6000803e3d621234565260ea61109c528051935060005b60408110156105295760008282015260200161136d565b6373509064598160e01b8152602081600483336000905af158601d01573d60011458600c01573d6000803e3d621234565260ea61109c528051600082529350602061136d565b6322bd64c0598160e01b8152836004820152846024820152600081604483336000905af158601d01573d60011458600c01573d6000803e3d621234565260ea61109c5260008152602061136d565b638435035b598160e01b8152836004820152602081602483336000905af158601d01573d60011458600c01573d6000803e3d621234565260ea61109c528051600082529350602061136d565b638540661f598160e01b8152611495565b8080831115610fc8575090919050565b8080831015610fc8575090919050565b836004820152846024820152606060448201528660648201526084810160005b888110156114cd5780880151828201526020016114b5565b506060828960a40184336000905af158601d01573d60011458600c01573d6000803e3d621234565260ea61109c52815160408301513d6000853e8b8b82606087013350600060045af150596115228d3d611485565b8c0161152e8187611475565b5b82811015611543576000815260200161152f565b50929c50505050505050565b63bdbf8c36598160e01b8152602081600483336000905af158601d01573d60011458600c01573d6000803e3d621234565260ea61109c528051600082529350602061136d56fe4f776e61626c653a206e6577206f776e657220697320746865207a65726f20616464726573735072696365436f6e73756d65723a2061676772656761746f72206e6f7420666f756e645072696365436f6e73756d65723a20636861696e6c696e6b20707269636520657870697265645072696365436f6e73756d65723a207072696365206e6f7420617661696c61626c65536166654d6174683a206d756c7469706c69636174696f6e206f766572666c6f77436f6e747261637420696e7374616e63652068617320616c7265616479206265656e20696e697469616c697a6564",
  "linkReferences": {},
  "deployedLinkReferences": {}
}