{
  "_format": "hh-sol-artifact-1",
  "contractName": "PriceConsumer",
  "sourceName": "contracts/priceFeeds/PriceConsumer.sol",
  "abi": [
    {
      "anonymous": false,
      "inputs": [
        {
          "indexed": true,
          "internalType": "address",
          "name": "previousOwner",
          "type": "address"
        },
        {
          "indexed": true,
          "internalType": "address",
          "name": "newOwner",
          "type": "address"
        }
      ],
      "name": "OwnershipTransferred",
      "type": "event"
    },
    {
      "inputs": [
        {
          "internalType": "address",
          "name": "_asset",
          "type": "address"
        },
        {
          "internalType": "uint8",
          "name": "_assetType",
          "type": "uint8"
        },
        {
          "internalType": "address",
          "name": "_aggregator",
          "type": "address"
        }
      ],
      "name": "addAggregator",
      "outputs": [],
      "stateMutability": "nonpayable",
      "type": "function"
    },
    {
      "inputs": [],
      "name": "disableChainlink",
      "outputs": [],
      "stateMutability": "nonpayable",
      "type": "function"
    },
    {
      "inputs": [],
      "name": "enableChainlink",
      "outputs": [],
      "stateMutability": "nonpayable",
      "type": "function"
    },
    {
      "inputs": [
        {
          "internalType": "address",
          "name": "_asset",
          "type": "address"
        }
      ],
      "name": "getUSDPrice",
      "outputs": [
        {
          "internalType": "uint256",
          "name": "",
          "type": "uint256"
        }
      ],
      "stateMutability": "view",
      "type": "function"
    },
    {
      "inputs": [
        {
          "internalType": "address",
          "name": "_poolFactory",
          "type": "address"
        }
      ],
      "name": "initialize",
      "outputs": [],
      "stateMutability": "nonpayable",
      "type": "function"
    },
    {
      "inputs": [],
      "name": "owner",
      "outputs": [
        {
          "internalType": "address",
          "name": "",
          "type": "address"
        }
      ],
      "stateMutability": "view",
      "type": "function"
    },
    {
      "inputs": [],
      "name": "poolFactory",
      "outputs": [
        {
          "internalType": "address",
          "name": "",
          "type": "address"
        }
      ],
      "stateMutability": "view",
      "type": "function"
    },
    {
      "inputs": [
        {
          "internalType": "address",
          "name": "_asset",
          "type": "address"
        }
      ],
      "name": "removeAggregator",
      "outputs": [],
      "stateMutability": "nonpayable",
      "type": "function"
    },
    {
      "inputs": [],
      "name": "renounceOwnership",
      "outputs": [],
      "stateMutability": "nonpayable",
      "type": "function"
    },
    {
      "inputs": [
        {
          "internalType": "address",
          "name": "_poolFactory",
          "type": "address"
        }
      ],
      "name": "setPoolFactory",
      "outputs": [],
      "stateMutability": "nonpayable",
      "type": "function"
    },
    {
      "inputs": [
        {
          "internalType": "address",
          "name": "newOwner",
          "type": "address"
        }
      ],
      "name": "transferOwnership",
      "outputs": [],
      "stateMutability": "nonpayable",
      "type": "function"
    }
  ],
  "bytecode": "0x608060405234801561001057600080fd5b50610e39806100206000396000f3fe608060405234801561001057600080fd5b50600436106100a95760003560e01c80638c651f11116100715780638c651f11146101735780638da5cb5b14610199578063b2806001146101a1578063c4d66de8146101a9578063d54e96d2146101cf578063f2fde38b146101d7576100a9565b80632c63812c146100ae5780634219dc40146100e9578063473597a01461010d578063715018a6146101335780638b2f0f4f1461013b575b600080fd5b6100e7600480360360608110156100c457600080fd5b506001600160a01b03813581169160ff60208201351691604090910135166101fd565b005b6100f16102a3565b604080516001600160a01b039092168252519081900360200190f35b6100e76004803603602081101561012357600080fd5b50356001600160a01b03166102b7565b6100e7610349565b6101616004803603602081101561015157600080fd5b50356001600160a01b03166103fd565b60408051918252519081900360200190f35b6100e76004803603602081101561018957600080fd5b50356001600160a01b03166105ff565b6100f1610690565b6100e761069f565b6100e7600480360360208110156101bf57600080fd5b50356001600160a01b031661076f565b6100e761083a565b6100e7600480360360208110156101ed57600080fd5b50356001600160a01b0316610907565b60975461010090046001600160a01b03163314610255576040805162461bcd60e51b81526020600482015260116024820152706f6e6c7920706f6f6c20666163746f727960781b604482015290519081900360640190fd5b6001600160a01b03928316600090815260996020908152604080832080546001600160a01b03191694909616939093179094556098909352909120805460ff191660ff909216919091179055565b60975461010090046001600160a01b031681565b6102bf610a12565b6065546001600160a01b03908116911614610321576040805162461bcd60e51b815260206004820181905260248201527f4f776e61626c653a2063616c6c6572206973206e6f7420746865206f776e6572604482015290519081900360640190fd5b609780546001600160a01b0390921661010002610100600160a81b0319909216919091179055565b610351610a12565b6065546001600160a01b039081169116146103b3576040805162461bcd60e51b815260206004820181905260248201527f4f776e61626c653a2063616c6c6572206973206e6f7420746865206f776e6572604482015290519081900360640190fd5b6065546040516000916001600160a01b0316907f8be0079c531659141344cd1fd0a4f28419497f9722a3daafe3b4186f6b6457e0908390a3606580546001600160a01b0319169055565b6001600160a01b0380821660009081526099602090815260408083205460989092528220549192169060ff16816104655760405162461bcd60e51b8152600401808060200182810382526023815260200180610d4a6023913960400191505060405180910390fd5b600060ff821615801561047b575060975460ff16155b156105b857826001600160a01b031663feaf968c6040518163ffffffff1660e01b815260040160a06040518083038186803b1580156104b957600080fd5b505afa9250505080156104fb57506040513d60a08110156104d957600080fd5b5080516020820151604083015160608401516080909401519293919290919060015b61054c576040805162461bcd60e51b815260206004820152601f60248201527f5072696365436f6e73756d65723a20707269636520676574206661696c656400604482015290519081900360640190fd5b4261055a8362015f90610a16565b10156105975760405162461bcd60e51b8152600401808060200182810382526026815260200180610d6d6026913960400191505060405180910390fd5b60008413156105b2576105af846402540be400610a79565b95505b50505050505b600081116105f75760405162461bcd60e51b8152600401808060200182810382526022815260200180610d936022913960400191505060405180910390fd5b949350505050565b60975461010090046001600160a01b03163314610657576040805162461bcd60e51b81526020600482015260116024820152706f6e6c7920706f6f6c20666163746f727960781b604482015290519081900360640190fd5b6001600160a01b0316600090815260996020908152604080832080546001600160a01b031916905560989091529020805460ff19169055565b6065546001600160a01b031690565b609760019054906101000a90046001600160a01b03166001600160a01b0316631d68702d6040518163ffffffff1660e01b815260040160206040518083038186803b1580156106ed57600080fd5b505afa158015610701573d6000803e3d6000fd5b505050506040513d602081101561071757600080fd5b50516001600160a01b03163314610760576040805162461bcd60e51b81526020600482015260086024820152676f6e6c792064616f60c01b604482015290519081900360640190fd5b6097805460ff19166001179055565b600054610100900460ff16806107885750610788610ad2565b80610796575060005460ff16155b6107d15760405162461bcd60e51b815260040180806020018281038252602e815260200180610dd6602e913960400191505060405180910390fd5b600054610100900460ff161580156107fc576000805460ff1961ff0019909116610100171660011790555b610804610ad8565b60978054610100600160a81b0319166101006001600160a01b038516021790558015610836576000805461ff00191690555b5050565b609760019054906101000a90046001600160a01b03166001600160a01b0316631d68702d6040518163ffffffff1660e01b815260040160206040518083038186803b15801561088857600080fd5b505afa15801561089c573d6000803e3d6000fd5b505050506040513d60208110156108b257600080fd5b50516001600160a01b031633146108fb576040805162461bcd60e51b81526020600482015260086024820152676f6e6c792064616f60c01b604482015290519081900360640190fd5b6097805460ff19169055565b61090f610a12565b6065546001600160a01b03908116911614610971576040805162461bcd60e51b815260206004820181905260248201527f4f776e61626c653a2063616c6c6572206973206e6f7420746865206f776e6572604482015290519081900360640190fd5b6001600160a01b0381166109b65760405162461bcd60e51b8152600401808060200182810382526026815260200180610d246026913960400191505060405180910390fd5b6065546040516001600160a01b038084169216907f8be0079c531659141344cd1fd0a4f28419497f9722a3daafe3b4186f6b6457e090600090a3606580546001600160a01b0319166001600160a01b0392909216919091179055565b3390565b600082820183811015610a70576040805162461bcd60e51b815260206004820152601b60248201527f536166654d6174683a206164646974696f6e206f766572666c6f770000000000604482015290519081900360640190fd5b90505b92915050565b600082610a8857506000610a73565b82820282848281610a9557fe5b0414610a705760405162461bcd60e51b8152600401808060200182810382526021815260200180610db56021913960400191505060405180910390fd5b303b1590565b600054610100900460ff1680610af15750610af1610ad2565b80610aff575060005460ff16155b610b3a5760405162461bcd60e51b815260040180806020018281038252602e815260200180610dd6602e913960400191505060405180910390fd5b600054610100900460ff16158015610b65576000805460ff1961ff0019909116610100171660011790555b610b6d610b8a565b610b75610c2a565b8015610b87576000805461ff00191690555b50565b600054610100900460ff1680610ba35750610ba3610ad2565b80610bb1575060005460ff16155b610bec5760405162461bcd60e51b815260040180806020018281038252602e815260200180610dd6602e913960400191505060405180910390fd5b600054610100900460ff16158015610b75576000805460ff1961ff0019909116610100171660011790558015610b87576000805461ff001916905550565b600054610100900460ff1680610c435750610c43610ad2565b80610c51575060005460ff16155b610c8c5760405162461bcd60e51b815260040180806020018281038252602e815260200180610dd6602e913960400191505060405180910390fd5b600054610100900460ff16158015610cb7576000805460ff1961ff0019909116610100171660011790555b6000610cc1610a12565b606580546001600160a01b0319166001600160a01b038316908117909155604051919250906000907f8be0079c531659141344cd1fd0a4f28419497f9722a3daafe3b4186f6b6457e0908290a3508015610b87576000805461ff00191690555056fe4f776e61626c653a206e6577206f776e657220697320746865207a65726f20616464726573735072696365436f6e73756d65723a2061676772656761746f72206e6f7420666f756e645072696365436f6e73756d65723a20636861696e6c696e6b20707269636520657870697265645072696365436f6e73756d65723a207072696365206e6f7420617661696c61626c65536166654d6174683a206d756c7469706c69636174696f6e206f766572666c6f77436f6e747261637420696e7374616e63652068617320616c7265616479206265656e20696e697469616c697a6564a2646970667358221220fdcf263ab191100381e72d72ecf48eee39b65370e73b48fa05a7b2984fcb5c7c64736f6c634300060c0033",
  "linkReferences": {},
  "deployedLinkReferences": {}
}