{
  "_format": "hh-sol-artifact-1",
  "contractName": "PriceConsumer",
  "sourceName": "contracts/priceFeeds/PriceConsumer.sol",
  "abi": [
    {
      "anonymous": false,
      "inputs": [
        {
          "indexed": false,
          "internalType": "address",
          "name": "asset",
          "type": "address"
        },
        {
          "indexed": false,
          "internalType": "uint8",
          "name": "assetType",
          "type": "uint8"
        },
        {
          "indexed": false,
          "internalType": "address",
          "name": "aggregator",
          "type": "address"
        }
      ],
      "name": "AddedAsset",
      "type": "event"
    },
    {
      "anonymous": false,
      "inputs": [
        {
          "indexed": true,
          "internalType": "address",
          "name": "previousOwner",
          "type": "address"
        },
        {
          "indexed": true,
          "internalType": "address",
          "name": "newOwner",
          "type": "address"
        }
      ],
      "name": "OwnershipTransferred",
      "type": "event"
    },
    {
      "anonymous": false,
      "inputs": [
        {
          "indexed": false,
          "internalType": "address",
          "name": "asset",
          "type": "address"
        }
      ],
      "name": "RemovedAsset",
      "type": "event"
    },
    {
      "inputs": [
        {
          "internalType": "address",
          "name": "asset",
          "type": "address"
        },
        {
          "internalType": "uint8",
          "name": "assetType",
          "type": "uint8"
        },
        {
          "internalType": "address",
          "name": "aggregator",
          "type": "address"
        }
      ],
      "name": "addAsset",
      "outputs": [],
      "stateMutability": "nonpayable",
      "type": "function"
    },
    {
      "inputs": [
        {
          "components": [
            {
              "internalType": "address",
              "name": "asset",
              "type": "address"
            },
            {
              "internalType": "uint8",
              "name": "assetType",
              "type": "uint8"
            },
            {
              "internalType": "address",
              "name": "aggregator",
              "type": "address"
            }
          ],
          "internalType": "struct IPriceConsumer.Asset[]",
          "name": "assets",
          "type": "tuple[]"
        }
      ],
      "name": "addAssets",
      "outputs": [],
      "stateMutability": "nonpayable",
      "type": "function"
    },
    {
      "inputs": [],
      "name": "disableChainlink",
      "outputs": [],
      "stateMutability": "nonpayable",
      "type": "function"
    },
    {
      "inputs": [],
      "name": "enableChainlink",
      "outputs": [],
      "stateMutability": "nonpayable",
      "type": "function"
    },
    {
      "inputs": [
        {
          "internalType": "address",
          "name": "asset",
          "type": "address"
        }
      ],
      "name": "getAggregator",
      "outputs": [
        {
          "internalType": "address",
          "name": "",
          "type": "address"
        }
      ],
      "stateMutability": "view",
      "type": "function"
    },
    {
      "inputs": [
        {
          "internalType": "address",
          "name": "asset",
          "type": "address"
        }
      ],
      "name": "getAssetType",
      "outputs": [
        {
          "internalType": "uint8",
          "name": "",
          "type": "uint8"
        }
      ],
      "stateMutability": "view",
      "type": "function"
    },
    {
      "inputs": [
        {
          "internalType": "address",
          "name": "asset",
          "type": "address"
        }
      ],
      "name": "getAssetTypeAndAggregator",
      "outputs": [
        {
          "internalType": "uint8",
          "name": "",
          "type": "uint8"
        },
        {
          "internalType": "address",
          "name": "",
          "type": "address"
        }
      ],
      "stateMutability": "view",
      "type": "function"
    },
    {
      "inputs": [
        {
          "internalType": "address",
          "name": "asset",
          "type": "address"
        }
      ],
      "name": "getUSDPrice",
      "outputs": [
        {
          "internalType": "uint256",
          "name": "",
          "type": "uint256"
        }
      ],
      "stateMutability": "view",
      "type": "function"
    },
    {
      "inputs": [
        {
          "internalType": "address",
          "name": "_poolFactory",
          "type": "address"
        },
        {
          "components": [
            {
              "internalType": "address",
              "name": "asset",
              "type": "address"
            },
            {
              "internalType": "uint8",
              "name": "assetType",
              "type": "uint8"
            },
            {
              "internalType": "address",
              "name": "aggregator",
              "type": "address"
            }
          ],
          "internalType": "struct IPriceConsumer.Asset[]",
          "name": "assets",
          "type": "tuple[]"
        }
      ],
      "name": "initialize",
      "outputs": [],
      "stateMutability": "nonpayable",
      "type": "function"
    },
    {
      "inputs": [],
      "name": "isDisabledChainlink",
      "outputs": [
        {
          "internalType": "bool",
          "name": "",
          "type": "bool"
        }
      ],
      "stateMutability": "view",
      "type": "function"
    },
    {
      "inputs": [],
      "name": "owner",
      "outputs": [
        {
          "internalType": "address",
          "name": "",
          "type": "address"
        }
      ],
      "stateMutability": "view",
      "type": "function"
    },
    {
      "inputs": [],
      "name": "poolFactory",
      "outputs": [
        {
          "internalType": "address",
          "name": "",
          "type": "address"
        }
      ],
      "stateMutability": "view",
      "type": "function"
    },
    {
      "inputs": [
        {
          "internalType": "address",
          "name": "asset",
          "type": "address"
        }
      ],
      "name": "removeAsset",
      "outputs": [],
      "stateMutability": "nonpayable",
      "type": "function"
    },
    {
      "inputs": [],
      "name": "renounceOwnership",
      "outputs": [],
      "stateMutability": "nonpayable",
      "type": "function"
    },
    {
      "inputs": [
        {
          "internalType": "address",
          "name": "_poolFactory",
          "type": "address"
        }
      ],
      "name": "setPoolFactory",
      "outputs": [],
      "stateMutability": "nonpayable",
      "type": "function"
    },
    {
      "inputs": [
        {
          "internalType": "address",
          "name": "newOwner",
          "type": "address"
        }
      ],
      "name": "transferOwnership",
      "outputs": [],
      "stateMutability": "nonpayable",
      "type": "function"
    }
  ],
  "bytecode": "0x608060405234801561001057600080fd5b506110ff806100206000396000f3fe608060405234801561001057600080fd5b50600436106101005760003560e01c80638b2f0f4f11610097578063cf45ba1b11610066578063cf45ba1b146101fd578063d54e96d214610212578063eee681201461021a578063f2fde38b1461022d57610100565b80638b2f0f4f146101ba5780638da5cb5b146101da578063b2806001146101e2578063b91ba548146101ea57610100565b80634a5e42b1116100d35780634a5e42b11461016b57806368efa6261461017e578063715018a61461019f578063752d4bcb146101a757610100565b8063032c49ed1461010557806329a42d561461012e5780634219dc401461014e578063473597a014610156575b600080fd5b610118610113366004610c9a565b610240565b6040516101259190611063565b60405180910390f35b61014161013c366004610c9a565b61025e565b6040516101259190610dd2565b61014161027c565b610169610164366004610c9a565b610290565b005b610169610179366004610c9a565b6102f6565b61019161018c366004610c9a565b61039e565b604051610125929190611071565b6101696103cf565b6101696101b5366004610d4e565b61044e565b6101cd6101c8366004610c9a565b6104f7565b604051610125919061105a565b610141610655565b610169610664565b6101696101f8366004610d09565b6106a8565b610205610764565b6040516101259190610e0c565b61016961076d565b610169610228366004610cbc565b6107ae565b61016961023b366004610c9a565b610864565b6001600160a01b031660009081526098602052604090205460ff1690565b6001600160a01b039081166000908152609960205260409020541690565b60975461010090046001600160a01b031681565b61029861091b565b6065546001600160a01b039081169116146102ce5760405162461bcd60e51b81526004016102c590610fd7565b60405180910390fd5b609780546001600160a01b0390921661010002610100600160a81b0319909216919091179055565b6102fe61091b565b6065546001600160a01b0390811691161461032b5760405162461bcd60e51b81526004016102c590610fd7565b6001600160a01b0381166000908152609860209081526040808320805460ff1916905560999091529081902080546001600160a01b0319169055517fb5c3bd787b070cfb84ba6afb620405d01603f2dff7019495776c0fa8be3c909590610393908390610dd2565b60405180910390a150565b6001600160a01b0390811660009081526098602090815260408083205460999092529091205460ff90911692911690565b6103d761091b565b6065546001600160a01b039081169116146104045760405162461bcd60e51b81526004016102c590610fd7565b6065546040516000916001600160a01b0316907f8be0079c531659141344cd1fd0a4f28419497f9722a3daafe3b4186f6b6457e0908390a3606580546001600160a01b0319169055565b61045661091b565b6065546001600160a01b039081169116146104835760405162461bcd60e51b81526004016102c590610fd7565b60005b81518160ff1610156104f3576104eb828260ff16815181106104a457fe5b602002602001015160000151838360ff16815181106104bf57fe5b602002602001015160200151848460ff16815181106104da57fe5b6020026020010151604001516106a8565b600101610486565b5050565b6001600160a01b0380821660009081526099602090815260408083205460989092528220549192169060ff16816105405760405162461bcd60e51b81526004016102c590610e94565b600060ff8216158015610556575060975460ff16155b1561062d57826001600160a01b031663feaf968c6040518163ffffffff1660e01b815260040160a06040518083038186803b15801561059457600080fd5b505afa9250505080156105c4575060408051601f3d908101601f191682019092526105c191810190610d81565b60015b6105e05760405162461bcd60e51b81526004016102c590610f1d565b426105ee8362015f9061091f565b101561060c5760405162461bcd60e51b81526004016102c590610ed7565b600084131561062757610624846402540be40061094d565b95505b50505050505b6000811161064d5760405162461bcd60e51b81526004016102c590610f54565b949350505050565b6065546001600160a01b031690565b61066c61091b565b6065546001600160a01b039081169116146106995760405162461bcd60e51b81526004016102c590610fd7565b6097805460ff19166001179055565b6106b061091b565b6065546001600160a01b039081169116146106dd5760405162461bcd60e51b81526004016102c590610fd7565b6001600160a01b038381166000908152609860209081526040808320805460ff191660ff881617905560999091529081902080546001600160a01b03191692841692909217909155517fc5c8c14f537465c45219816a52dc841f2c2d567961cc2929e3be355a419fa3719061075790859085908590610de6565b60405180910390a1505050565b60975460ff1681565b61077561091b565b6065546001600160a01b039081169116146107a25760405162461bcd60e51b81526004016102c590610fd7565b6097805460ff19169055565b600054610100900460ff16806107c757506107c7610987565b806107d5575060005460ff16155b6107f15760405162461bcd60e51b81526004016102c59061100c565b600054610100900460ff1615801561081c576000805460ff1961ff0019909116610100171660011790555b61082461098d565b60978054610100600160a81b0319166101006001600160a01b0386160217905561084d8261044e565b801561085f576000805461ff00191690555b505050565b61086c61091b565b6065546001600160a01b039081169116146108995760405162461bcd60e51b81526004016102c590610fd7565b6001600160a01b0381166108bf5760405162461bcd60e51b81526004016102c590610e17565b6065546040516001600160a01b038084169216907f8be0079c531659141344cd1fd0a4f28419497f9722a3daafe3b4186f6b6457e090600090a3606580546001600160a01b0319166001600160a01b0392909216919091179055565b3390565b6000828201838110156109445760405162461bcd60e51b81526004016102c590610e5d565b90505b92915050565b60008261095c57506000610947565b8282028284828161096957fe5b04146109445760405162461bcd60e51b81526004016102c590610f96565b303b1590565b600054610100900460ff16806109a657506109a6610987565b806109b4575060005460ff16155b6109d05760405162461bcd60e51b81526004016102c59061100c565b600054610100900460ff161580156109fb576000805460ff1961ff0019909116610100171660011790555b610a03610a20565b610a0b610aa1565b8015610a1d576000805461ff00191690555b50565b600054610100900460ff1680610a395750610a39610987565b80610a47575060005460ff16155b610a635760405162461bcd60e51b81526004016102c59061100c565b600054610100900460ff16158015610a0b576000805460ff1961ff0019909116610100171660011790558015610a1d576000805461ff001916905550565b600054610100900460ff1680610aba5750610aba610987565b80610ac8575060005460ff16155b610ae45760405162461bcd60e51b81526004016102c59061100c565b600054610100900460ff16158015610b0f576000805460ff1961ff0019909116610100171660011790555b6000610b1961091b565b606580546001600160a01b0319166001600160a01b038316908117909155604051919250906000907f8be0079c531659141344cd1fd0a4f28419497f9722a3daafe3b4186f6b6457e0908290a3508015610a1d576000805461ff001916905550565b80356001600160a01b038116811461094757600080fd5b600082601f830112610ba2578081fd5b813567ffffffffffffffff811115610bb8578182fd5b6020610bc7818284020161108d565b8281529250808301848201606080850287018401881015610be757600080fd5b60005b85811015610c0e57610bfc8984610c1a565b84529284019291810191600101610bea565b50505050505092915050565b600060608284031215610c2b578081fd5b610c35606061108d565b90508135610c42816110b4565b8152610c518360208401610c6f565b60208201526040820135610c64816110b4565b604082015292915050565b803560ff8116811461094757600080fd5b805169ffffffffffffffffffff8116811461094757600080fd5b600060208284031215610cab578081fd5b610cb58383610b7b565b9392505050565b60008060408385031215610cce578081fd5b610cd88484610b7b565b9150602083013567ffffffffffffffff811115610cf3578182fd5b610cff85828601610b92565b9150509250929050565b600080600060608486031215610d1d578081fd5b610d278585610b7b565b9250610d368560208601610c6f565b9150610d458560408601610b7b565b90509250925092565b600060208284031215610d5f578081fd5b813567ffffffffffffffff811115610d75578182fd5b61064d84828501610b92565b600080600080600060a08688031215610d98578081fd5b610da28787610c80565b9450602086015193506040860151925060608601519150610dc68760808801610c80565b90509295509295909350565b6001600160a01b0391909116815260200190565b6001600160a01b03938416815260ff929092166020830152909116604082015260600190565b901515815260200190565b60208082526026908201527f4f776e61626c653a206e6577206f776e657220697320746865207a65726f206160408201526564647265737360d01b606082015260800190565b6020808252601b908201527f536166654d6174683a206164646974696f6e206f766572666c6f770000000000604082015260600190565b60208082526023908201527f5072696365436f6e73756d65723a2061676772656761746f72206e6f7420666f6040820152621d5b9960ea1b606082015260800190565b60208082526026908201527f5072696365436f6e73756d65723a20636861696e6c696e6b20707269636520656040820152651e1c1a5c995960d21b606082015260800190565b6020808252601f908201527f5072696365436f6e73756d65723a20707269636520676574206661696c656400604082015260600190565b60208082526022908201527f5072696365436f6e73756d65723a207072696365206e6f7420617661696c61626040820152616c6560f01b606082015260800190565b60208082526021908201527f536166654d6174683a206d756c7469706c69636174696f6e206f766572666c6f6040820152607760f81b606082015260800190565b6020808252818101527f4f776e61626c653a2063616c6c6572206973206e6f7420746865206f776e6572604082015260600190565b6020808252602e908201527f436f6e747261637420696e7374616e63652068617320616c726561647920626560408201526d195b881a5b9a5d1a585b1a5e995960921b606082015260800190565b90815260200190565b60ff91909116815260200190565b60ff9290921682526001600160a01b0316602082015260400190565b60405181810167ffffffffffffffff811182821017156110ac57600080fd5b604052919050565b6001600160a01b0381168114610a1d57600080fdfea2646970667358221220eb3a771eb7e545f1faef72fb71615734538bb6fc86475b4fa7cf9e05367424df64736f6c634300060c0033",
  "linkReferences": {},
  "deployedLinkReferences": {}
}