{
  "_format": "hh-sol-artifact-1",
  "contractName": "PriceConsumer-ovm",
  "sourceName": "contracts/priceFeeds/PriceConsumer.sol",
  "abi": [
    {
      "anonymous": false,
      "inputs": [
        {
          "indexed": true,
          "internalType": "address",
          "name": "previousOwner",
          "type": "address"
        },
        {
          "indexed": true,
          "internalType": "address",
          "name": "newOwner",
          "type": "address"
        }
      ],
      "name": "OwnershipTransferred",
      "type": "event"
    },
    {
      "inputs": [
        {
          "internalType": "address",
          "name": "_asset",
          "type": "address"
        },
        {
          "internalType": "uint8",
          "name": "_assetType",
          "type": "uint8"
        },
        {
          "internalType": "address",
          "name": "_aggregator",
          "type": "address"
        }
      ],
      "name": "addAggregator",
      "outputs": [],
      "stateMutability": "nonpayable",
      "type": "function"
    },
    {
      "inputs": [],
      "name": "disableChainlink",
      "outputs": [],
      "stateMutability": "nonpayable",
      "type": "function"
    },
    {
      "inputs": [],
      "name": "enableChainlink",
      "outputs": [],
      "stateMutability": "nonpayable",
      "type": "function"
    },
    {
      "inputs": [
        {
          "internalType": "address",
          "name": "_asset",
          "type": "address"
        }
      ],
      "name": "getUSDPrice",
      "outputs": [
        {
          "internalType": "uint256",
          "name": "",
          "type": "uint256"
        }
      ],
      "stateMutability": "view",
      "type": "function"
    },
    {
      "inputs": [
        {
          "internalType": "address",
          "name": "_poolFactory",
          "type": "address"
        }
      ],
      "name": "initialize",
      "outputs": [],
      "stateMutability": "nonpayable",
      "type": "function"
    },
    {
      "inputs": [],
      "name": "isDisabledChainlink",
      "outputs": [
        {
          "internalType": "bool",
          "name": "",
          "type": "bool"
        }
      ],
      "stateMutability": "view",
      "type": "function"
    },
    {
      "inputs": [],
      "name": "owner",
      "outputs": [
        {
          "internalType": "address",
          "name": "",
          "type": "address"
        }
      ],
      "stateMutability": "view",
      "type": "function"
    },
    {
      "inputs": [],
      "name": "poolFactory",
      "outputs": [
        {
          "internalType": "address",
          "name": "",
          "type": "address"
        }
      ],
      "stateMutability": "view",
      "type": "function"
    },
    {
      "inputs": [
        {
          "internalType": "address",
          "name": "_asset",
          "type": "address"
        }
      ],
      "name": "removeAggregator",
      "outputs": [],
      "stateMutability": "nonpayable",
      "type": "function"
    },
    {
      "inputs": [],
      "name": "renounceOwnership",
      "outputs": [],
      "stateMutability": "nonpayable",
      "type": "function"
    },
    {
      "inputs": [
        {
          "internalType": "address",
          "name": "_poolFactory",
          "type": "address"
        }
      ],
      "name": "setPoolFactory",
      "outputs": [],
      "stateMutability": "nonpayable",
      "type": "function"
    },
    {
      "inputs": [
        {
          "internalType": "address",
          "name": "newOwner",
          "type": "address"
        }
      ],
      "name": "transferOwnership",
      "outputs": [],
      "stateMutability": "nonpayable",
      "type": "function"
    }
  ],
  "bytecode": "0x60806040523480156100195760008061001661001f565b50505b5061008a565b632a2a7adb598160e01b8152600481016020815285602082015260005b8681101561005757808601518282016040015260200161003c565b506020828760640184336000905af158600e01573d6000803e3d6000fd5b3d6001141558600a015760016000f35b505050565b611743806100996000396000f3fe60806040523480156100195760008061001661138b565b50505b50600436106100bd5760003560e01c80638da5cb5b1161007a5780638da5cb5b146101da578063b2806001146101e2578063c4d66de8146101ea578063cf45ba1b14610219578063d54e96d214610235578063f2fde38b1461023d576100bd565b80632c63812c146100cb5780634219dc401461010f578063473597a014610133578063715018a6146101625780638b2f0f4f1461016a5780638c651f11146101ab575b6000806100c861138b565b50505b61010d600480360360608110156100ea576000806100e761138b565b50505b506001600160a01b03813581169160ff602082013516916040909101351661026c565b005b61011761037e565b6040516001600160a01b03909116815260200160405180910390f35b61010d600480360360208110156101525760008061014f61138b565b50505b50356001600160a01b031661039d565b61010d610464565b610199600480360360208110156101895760008061018661138b565b50505b50356001600160a01b031661057c565b60405190815260200160405180910390f35b61010d600480360360208110156101ca576000806101c761138b565b50505b50356001600160a01b031661082e565b610117610934565b61010d610956565b61010d600480360360208110156102095760008061020661138b565b50505b50356001600160a01b0316610a8f565b610221610bf5565b604051901515815260200160405180910390f35b61010d610c0e565b61010d6004803603602081101561025c5760008061025961138b565b50505b50356001600160a01b0316610d33565b600160976102786113f6565b906101000a90046001600160a01b03166001600160a01b03165a61029a611451565b6001600160a01b0316146102f15760405162461bcd60e51b81526020600482015260116024820152706f6e6c7920706f6f6c20666163746f727960781b6044820152606401604051809103906102ee61138b565b50505b6001600160a01b038316600090815260996020528190604090206001816103166113f6565b816001600160a01b0302191690836001600160a01b0316021790610338611497565b5050506001600160a01b038316600090815260986020528290604090206001816103606113f6565b8160ff021916908360ff16021790610376611497565b505050505050565b6001609761038a6113f6565b906101000a90046001600160a01b031681565b6103a5610e7a565b6001600160a01b0316600060656103ba6113f6565b906101000a90046001600160a01b03166001600160a01b03161461042d5760405162461bcd60e51b815260206004820181905260248201527f4f776e61626c653a2063616c6c6572206973206e6f7420746865206f776e657260448201526064016040518091039061042a61138b565b50505b8060976101008161043c6113f6565b816001600160a01b0302191690836001600160a01b031602179061045e611497565b50505050565b61046c610e7a565b6001600160a01b0316600060656104816113f6565b906101000a90046001600160a01b03166001600160a01b0316146104f45760405162461bcd60e51b815260206004820181905260248201527f4f776e61626c653a2063616c6c6572206973206e6f7420746865206f776e65726044820152606401604051809103906104f161138b565b50505b60008060656105016113f6565b906101000a90046001600160a01b03166001600160a01b03167f8be0079c531659141344cd1fd0a4f28419497f9722a3daafe3b4186f6b6457e060405160405180910390a3600060656001816105556113f6565b816001600160a01b0302191690836001600160a01b0316021790610577611497565b505050565b6001600160a01b0381166000908152609960205280604081206000906105a06113f6565b6001600160a01b03858116600090815260986020526101009390930a909104169150604081206000906105d16113f6565b60ff6101009290920a90041690506001600160a01b03821661062d5760405162461bcd60e51b8152600401808060200182810382526023815260200180611689602391396040019150506040518091039061062a61138b565b50505b600060ff82161580156106535750600060976106476113f6565b906101000a900460ff16155b156107de57826001600160a01b031663feaf968c6040518163ffffffff1660e01b815260040160a060405180830381868061068c6114e5565b1580156106a15760008061069e61138b565b50505b505a6106ab611531565b505050505092505050801561070457506040513d60a08110156106d6576000806106d361138b565b50505b8101908080519291906020018051929190602001805192919060200180519291906020018051925060019150505b6107615760405162461bcd60e51b815260206004820152601f60248201527f5072696365436f6e73756d65723a20707269636520676574206661696c65640060448201526064016040518091039061075a61138b565b50506107de565b5a61076a61161c565b6107778362015f90610e8a565b10156107bd5760405162461bcd60e51b81526004018080602001828103825260268152602001806116ac60269139604001915050604051809103906107ba61138b565b50505b60008413156107d8576107d5846402540be400610ef5565b95505b50505050505b600081116108265760405162461bcd60e51b81526004018080602001828103825260228152602001806116d2602291396040019150506040518091039061082361138b565b50505b949350505050565b6001609761083a6113f6565b906101000a90046001600160a01b03166001600160a01b03165a61085c611451565b6001600160a01b0316146108b35760405162461bcd60e51b81526020600482015260116024820152706f6e6c7920706f6f6c20666163746f727960781b6044820152606401604051809103906108b061138b565b50505b6001600160a01b03811660009081526099602052604081206001816108d66113f6565b816001600160a01b0302191690836001600160a01b03160217906108f8611497565b5050506001600160a01b038116600090815260986020526040812060018161091e6113f6565b8160ff021916908360ff1602179061045e611497565b60008060656109416113f6565b906101000a90046001600160a01b0316905090565b600160976109626113f6565b906101000a90046001600160a01b03166001600160a01b0316631d68702d6040518163ffffffff1660e01b815260040160206040518083038186806109a56114e5565b1580156109ba576000806109b761138b565b50505b505a6109c4611531565b50505050501580156109e3573d6000803e3d60006109e061138b565b50505b505050506040513d6020811015610a02576000806109ff61138b565b50505b8101908080516001600160a01b0316925050505a610a1e611451565b6001600160a01b031614610a6c5760405162461bcd60e51b81526020600482015260086024820152676f6e6c792064616f60c01b604482015260640160405180910390610a6961138b565b50505b600160978181610a7a6113f6565b8160ff02191690831515021790610577611497565b60016000610a9b6113f6565b906101000a900460ff1680610ab35750610ab3610f54565b80610ad05750600080610ac46113f6565b906101000a900460ff16155b610b145760405162461bcd60e51b815260040180806020018281038252602e815260200180611715602e913960400191505060405180910390610b1161138b565b50505b6000600181610b216113f6565b906101000a900460ff161590508015610b87576001600061010081610b446113f6565b8160ff02191690831515021790610b59611497565b50505060016000806101000a81610b6e6113f6565b8160ff02191690831515021790610b83611497565b5050505b610b8f610fc5565b81609761010081610b9e6113f6565b816001600160a01b0302191690836001600160a01b0316021790610bc0611497565b5050508015610bf15760008061010081610bd86113f6565b8160ff02191690831515021790610bed611497565b5050505b5050565b60006097610c016113f6565b906101000a900460ff1681565b60016097610c1a6113f6565b906101000a90046001600160a01b03166001600160a01b0316631d68702d6040518163ffffffff1660e01b81526004016020604051808303818680610c5d6114e5565b158015610c7257600080610c6f61138b565b50505b505a610c7c611531565b5050505050158015610c9b573d6000803e3d6000610c9861138b565b50505b505050506040513d6020811015610cba57600080610cb761138b565b50505b8101908080516001600160a01b0316925050505a610cd6611451565b6001600160a01b031614610d245760405162461bcd60e51b81526020600482015260086024820152676f6e6c792064616f60c01b604482015260640160405180910390610d2161138b565b50505b60006097600181610a7a6113f6565b610d3b610e7a565b6001600160a01b031660006065610d506113f6565b906101000a90046001600160a01b03166001600160a01b031614610dc35760405162461bcd60e51b815260206004820181905260248201527f4f776e61626c653a2063616c6c6572206973206e6f7420746865206f776e6572604482015260640160405180910390610dc061138b565b50505b6001600160a01b038116610e115760405162461bcd60e51b81526004018080602001828103825260268152602001806116636026913960400191505060405180910390610e0e61138b565b50505b6001600160a01b03811660006065610e276113f6565b906101000a90046001600160a01b03166001600160a01b03167f8be0079c531659141344cd1fd0a4f28419497f9722a3daafe3b4186f6b6457e060405160405180910390a380606560018161043c6113f6565b60005a610e85611451565b905090565b600082820183811015610eec5760405162461bcd60e51b815260206004820152601b60248201527f536166654d6174683a206164646974696f6e206f766572666c6f770000000000604482015260640160405180910390610ee961138b565b50505b90505b92915050565b600082610f0457506000610eef565b82820282848281610f1157fe5b0414610eec5760405162461bcd60e51b81526004018080602001828103825260218152602001806116f46021913960400191505060405180910390610ee961138b565b6000805a63996d79a5598160e01b8152602081600483336000905af158600e01573d6000803e3d6000fd5b3d6001141558600a015760016000f35b8051925060005b6040811015610fad57600082820152602001610f96565b5050509050600081610fbd6114e5565b159250505090565b60016000610fd16113f6565b906101000a900460ff1680610fe95750610fe9610f54565b806110065750600080610ffa6113f6565b906101000a900460ff16155b61104a5760405162461bcd60e51b815260040180806020018281038252602e815260200180611715602e91396040019150506040518091039061104761138b565b50505b60006001816110576113f6565b906101000a900460ff1615905080156110bd57600160006101008161107a6113f6565b8160ff0219169083151502179061108f611497565b50505060016000806101000a816110a46113f6565b8160ff021916908315150217906110b9611497565b5050505b6110c56110fa565b6110cd611206565b80156110f757600080610100816110e26113f6565b8160ff0219169083151502179061045e611497565b50565b600160006111066113f6565b906101000a900460ff168061111e575061111e610f54565b8061113b575060008061112f6113f6565b906101000a900460ff16155b61117f5760405162461bcd60e51b815260040180806020018281038252602e815260200180611715602e91396040019150506040518091039061117c61138b565b50505b600060018161118c6113f6565b906101000a900460ff1615905080156110cd5760016000610100816111af6113f6565b8160ff021916908315150217906111c4611497565b50505060016000806101000a816111d96113f6565b8160ff021916908315150217906111ee611497565b50505080156110f757600080610100816110e26113f6565b600160006112126113f6565b906101000a900460ff168061122a575061122a610f54565b80611247575060008061123b6113f6565b906101000a900460ff16155b61128b5760405162461bcd60e51b815260040180806020018281038252602e815260200180611715602e91396040019150506040518091039061128861138b565b50505b60006001816112986113f6565b906101000a900460ff1615905080156112fe5760016000610100816112bb6113f6565b8160ff021916908315150217906112d0611497565b50505060016000806101000a816112e56113f6565b8160ff021916908315150217906112fa611497565b5050505b6000611308610e7a565b90508060656001816113186113f6565b816001600160a01b0302191690836001600160a01b031602179061133a611497565b5050506001600160a01b03811660007f8be0079c531659141344cd1fd0a4f28419497f9722a3daafe3b4186f6b6457e060405160405180910390a35080156110f757600080610100816110e26113f6565b632a2a7adb598160e01b8152600481016020815285602082015260005b868110156113c35780860151828201604001526020016113a8565b506020828760640184336000905af158600e01573d6000803e3d6000fd5b3d6001141558600a015760016000f35b505050565b6303daa959598160e01b8152836004820152602081602483336000905af158600e01573d6000803e3d6000fd5b3d6001141558600a015760016000f35b8051935060005b60408110156105775760008282015260200161143a565b6373509064598160e01b8152602081600483336000905af158600e01573d6000803e3d6000fd5b3d6001141558600a015760016000f35b8051600082529350602061143a565b6322bd64c0598160e01b8152836004820152846024820152600081604483336000905af158600e01573d6000803e3d6000fd5b3d6001141558600a015760016000f35b60008152602061143a565b638435035b598160e01b8152836004820152602081602483336000905af158600e01573d6000803e3d6000fd5b3d6001141558600a015760016000f35b8051600082529350602061143a565b638540661f598160e01b8152611562565b8080831115610eef575090919050565b8080831015610eef575090919050565b836004820152846024820152606060448201528660648201526084810160005b8881101561159a578088015182820152602001611582565b506060828960a40184336000905af158600e01573d6000803e3d6000fd5b3d6001141558600a015760016000f35b815160408301513d6000853e8b8b82606087013350600060045af150596115ef8d3d611552565b8c016115fb8187611542565b5b8281101561161057600081526020016115fc565b50929c50505050505050565b63bdbf8c36598160e01b8152602081600483336000905af158600e01573d6000803e3d6000fd5b3d6001141558600a015760016000f35b8051600082529350602061143a56fe4f776e61626c653a206e6577206f776e657220697320746865207a65726f20616464726573735072696365436f6e73756d65723a2061676772656761746f72206e6f7420666f756e645072696365436f6e73756d65723a20636861696e6c696e6b20707269636520657870697265645072696365436f6e73756d65723a207072696365206e6f7420617661696c61626c65536166654d6174683a206d756c7469706c69636174696f6e206f766572666c6f77436f6e747261637420696e7374616e63652068617320616c7265616479206265656e20696e697469616c697a6564",
  "deployedBytecode": "0x60806040523480156100195760008061001661138b565b50505b50600436106100bd5760003560e01c80638da5cb5b1161007a5780638da5cb5b146101da578063b2806001146101e2578063c4d66de8146101ea578063cf45ba1b14610219578063d54e96d214610235578063f2fde38b1461023d576100bd565b80632c63812c146100cb5780634219dc401461010f578063473597a014610133578063715018a6146101625780638b2f0f4f1461016a5780638c651f11146101ab575b6000806100c861138b565b50505b61010d600480360360608110156100ea576000806100e761138b565b50505b506001600160a01b03813581169160ff602082013516916040909101351661026c565b005b61011761037e565b6040516001600160a01b03909116815260200160405180910390f35b61010d600480360360208110156101525760008061014f61138b565b50505b50356001600160a01b031661039d565b61010d610464565b610199600480360360208110156101895760008061018661138b565b50505b50356001600160a01b031661057c565b60405190815260200160405180910390f35b61010d600480360360208110156101ca576000806101c761138b565b50505b50356001600160a01b031661082e565b610117610934565b61010d610956565b61010d600480360360208110156102095760008061020661138b565b50505b50356001600160a01b0316610a8f565b610221610bf5565b604051901515815260200160405180910390f35b61010d610c0e565b61010d6004803603602081101561025c5760008061025961138b565b50505b50356001600160a01b0316610d33565b600160976102786113f6565b906101000a90046001600160a01b03166001600160a01b03165a61029a611451565b6001600160a01b0316146102f15760405162461bcd60e51b81526020600482015260116024820152706f6e6c7920706f6f6c20666163746f727960781b6044820152606401604051809103906102ee61138b565b50505b6001600160a01b038316600090815260996020528190604090206001816103166113f6565b816001600160a01b0302191690836001600160a01b0316021790610338611497565b5050506001600160a01b038316600090815260986020528290604090206001816103606113f6565b8160ff021916908360ff16021790610376611497565b505050505050565b6001609761038a6113f6565b906101000a90046001600160a01b031681565b6103a5610e7a565b6001600160a01b0316600060656103ba6113f6565b906101000a90046001600160a01b03166001600160a01b03161461042d5760405162461bcd60e51b815260206004820181905260248201527f4f776e61626c653a2063616c6c6572206973206e6f7420746865206f776e657260448201526064016040518091039061042a61138b565b50505b8060976101008161043c6113f6565b816001600160a01b0302191690836001600160a01b031602179061045e611497565b50505050565b61046c610e7a565b6001600160a01b0316600060656104816113f6565b906101000a90046001600160a01b03166001600160a01b0316146104f45760405162461bcd60e51b815260206004820181905260248201527f4f776e61626c653a2063616c6c6572206973206e6f7420746865206f776e65726044820152606401604051809103906104f161138b565b50505b60008060656105016113f6565b906101000a90046001600160a01b03166001600160a01b03167f8be0079c531659141344cd1fd0a4f28419497f9722a3daafe3b4186f6b6457e060405160405180910390a3600060656001816105556113f6565b816001600160a01b0302191690836001600160a01b0316021790610577611497565b505050565b6001600160a01b0381166000908152609960205280604081206000906105a06113f6565b6001600160a01b03858116600090815260986020526101009390930a909104169150604081206000906105d16113f6565b60ff6101009290920a90041690506001600160a01b03821661062d5760405162461bcd60e51b8152600401808060200182810382526023815260200180611689602391396040019150506040518091039061062a61138b565b50505b600060ff82161580156106535750600060976106476113f6565b906101000a900460ff16155b156107de57826001600160a01b031663feaf968c6040518163ffffffff1660e01b815260040160a060405180830381868061068c6114e5565b1580156106a15760008061069e61138b565b50505b505a6106ab611531565b505050505092505050801561070457506040513d60a08110156106d6576000806106d361138b565b50505b8101908080519291906020018051929190602001805192919060200180519291906020018051925060019150505b6107615760405162461bcd60e51b815260206004820152601f60248201527f5072696365436f6e73756d65723a20707269636520676574206661696c65640060448201526064016040518091039061075a61138b565b50506107de565b5a61076a61161c565b6107778362015f90610e8a565b10156107bd5760405162461bcd60e51b81526004018080602001828103825260268152602001806116ac60269139604001915050604051809103906107ba61138b565b50505b60008413156107d8576107d5846402540be400610ef5565b95505b50505050505b600081116108265760405162461bcd60e51b81526004018080602001828103825260228152602001806116d2602291396040019150506040518091039061082361138b565b50505b949350505050565b6001609761083a6113f6565b906101000a90046001600160a01b03166001600160a01b03165a61085c611451565b6001600160a01b0316146108b35760405162461bcd60e51b81526020600482015260116024820152706f6e6c7920706f6f6c20666163746f727960781b6044820152606401604051809103906108b061138b565b50505b6001600160a01b03811660009081526099602052604081206001816108d66113f6565b816001600160a01b0302191690836001600160a01b03160217906108f8611497565b5050506001600160a01b038116600090815260986020526040812060018161091e6113f6565b8160ff021916908360ff1602179061045e611497565b60008060656109416113f6565b906101000a90046001600160a01b0316905090565b600160976109626113f6565b906101000a90046001600160a01b03166001600160a01b0316631d68702d6040518163ffffffff1660e01b815260040160206040518083038186806109a56114e5565b1580156109ba576000806109b761138b565b50505b505a6109c4611531565b50505050501580156109e3573d6000803e3d60006109e061138b565b50505b505050506040513d6020811015610a02576000806109ff61138b565b50505b8101908080516001600160a01b0316925050505a610a1e611451565b6001600160a01b031614610a6c5760405162461bcd60e51b81526020600482015260086024820152676f6e6c792064616f60c01b604482015260640160405180910390610a6961138b565b50505b600160978181610a7a6113f6565b8160ff02191690831515021790610577611497565b60016000610a9b6113f6565b906101000a900460ff1680610ab35750610ab3610f54565b80610ad05750600080610ac46113f6565b906101000a900460ff16155b610b145760405162461bcd60e51b815260040180806020018281038252602e815260200180611715602e913960400191505060405180910390610b1161138b565b50505b6000600181610b216113f6565b906101000a900460ff161590508015610b87576001600061010081610b446113f6565b8160ff02191690831515021790610b59611497565b50505060016000806101000a81610b6e6113f6565b8160ff02191690831515021790610b83611497565b5050505b610b8f610fc5565b81609761010081610b9e6113f6565b816001600160a01b0302191690836001600160a01b0316021790610bc0611497565b5050508015610bf15760008061010081610bd86113f6565b8160ff02191690831515021790610bed611497565b5050505b5050565b60006097610c016113f6565b906101000a900460ff1681565b60016097610c1a6113f6565b906101000a90046001600160a01b03166001600160a01b0316631d68702d6040518163ffffffff1660e01b81526004016020604051808303818680610c5d6114e5565b158015610c7257600080610c6f61138b565b50505b505a610c7c611531565b5050505050158015610c9b573d6000803e3d6000610c9861138b565b50505b505050506040513d6020811015610cba57600080610cb761138b565b50505b8101908080516001600160a01b0316925050505a610cd6611451565b6001600160a01b031614610d245760405162461bcd60e51b81526020600482015260086024820152676f6e6c792064616f60c01b604482015260640160405180910390610d2161138b565b50505b60006097600181610a7a6113f6565b610d3b610e7a565b6001600160a01b031660006065610d506113f6565b906101000a90046001600160a01b03166001600160a01b031614610dc35760405162461bcd60e51b815260206004820181905260248201527f4f776e61626c653a2063616c6c6572206973206e6f7420746865206f776e6572604482015260640160405180910390610dc061138b565b50505b6001600160a01b038116610e115760405162461bcd60e51b81526004018080602001828103825260268152602001806116636026913960400191505060405180910390610e0e61138b565b50505b6001600160a01b03811660006065610e276113f6565b906101000a90046001600160a01b03166001600160a01b03167f8be0079c531659141344cd1fd0a4f28419497f9722a3daafe3b4186f6b6457e060405160405180910390a380606560018161043c6113f6565b60005a610e85611451565b905090565b600082820183811015610eec5760405162461bcd60e51b815260206004820152601b60248201527f536166654d6174683a206164646974696f6e206f766572666c6f770000000000604482015260640160405180910390610ee961138b565b50505b90505b92915050565b600082610f0457506000610eef565b82820282848281610f1157fe5b0414610eec5760405162461bcd60e51b81526004018080602001828103825260218152602001806116f46021913960400191505060405180910390610ee961138b565b6000805a63996d79a5598160e01b8152602081600483336000905af158601d01573d60011458600c01573d6000803e3d621234565260ea61109c528051925060005b6040811015610fad57600082820152602001610f96565b5050509050600081610fbd6114e5565b159250505090565b60016000610fd16113f6565b906101000a900460ff1680610fe95750610fe9610f54565b806110065750600080610ffa6113f6565b906101000a900460ff16155b61104a5760405162461bcd60e51b815260040180806020018281038252602e815260200180611715602e91396040019150506040518091039061104761138b565b50505b60006001816110576113f6565b906101000a900460ff1615905080156110bd57600160006101008161107a6113f6565b8160ff0219169083151502179061108f611497565b50505060016000806101000a816110a46113f6565b8160ff021916908315150217906110b9611497565b5050505b6110c56110fa565b6110cd611206565b80156110f757600080610100816110e26113f6565b8160ff0219169083151502179061045e611497565b50565b600160006111066113f6565b906101000a900460ff168061111e575061111e610f54565b8061113b575060008061112f6113f6565b906101000a900460ff16155b61117f5760405162461bcd60e51b815260040180806020018281038252602e815260200180611715602e91396040019150506040518091039061117c61138b565b50505b600060018161118c6113f6565b906101000a900460ff1615905080156110cd5760016000610100816111af6113f6565b8160ff021916908315150217906111c4611497565b50505060016000806101000a816111d96113f6565b8160ff021916908315150217906111ee611497565b50505080156110f757600080610100816110e26113f6565b600160006112126113f6565b906101000a900460ff168061122a575061122a610f54565b80611247575060008061123b6113f6565b906101000a900460ff16155b61128b5760405162461bcd60e51b815260040180806020018281038252602e815260200180611715602e91396040019150506040518091039061128861138b565b50505b60006001816112986113f6565b906101000a900460ff1615905080156112fe5760016000610100816112bb6113f6565b8160ff021916908315150217906112d0611497565b50505060016000806101000a816112e56113f6565b8160ff021916908315150217906112fa611497565b5050505b6000611308610e7a565b90508060656001816113186113f6565b816001600160a01b0302191690836001600160a01b031602179061133a611497565b5050506001600160a01b03811660007f8be0079c531659141344cd1fd0a4f28419497f9722a3daafe3b4186f6b6457e060405160405180910390a35080156110f757600080610100816110e26113f6565b632a2a7adb598160e01b8152600481016020815285602082015260005b868110156113c35780860151828201604001526020016113a8565b506020828760640184336000905af158601d01573d60011458600c01573d6000803e3d621234565260ea61109c52505050565b6303daa959598160e01b8152836004820152602081602483336000905af158601d01573d60011458600c01573d6000803e3d621234565260ea61109c528051935060005b60408110156105775760008282015260200161143a565b6373509064598160e01b8152602081600483336000905af158601d01573d60011458600c01573d6000803e3d621234565260ea61109c528051600082529350602061143a565b6322bd64c0598160e01b8152836004820152846024820152600081604483336000905af158601d01573d60011458600c01573d6000803e3d621234565260ea61109c5260008152602061143a565b638435035b598160e01b8152836004820152602081602483336000905af158601d01573d60011458600c01573d6000803e3d621234565260ea61109c528051600082529350602061143a565b638540661f598160e01b8152611562565b8080831115610eef575090919050565b8080831015610eef575090919050565b836004820152846024820152606060448201528660648201526084810160005b8881101561159a578088015182820152602001611582565b506060828960a40184336000905af158601d01573d60011458600c01573d6000803e3d621234565260ea61109c52815160408301513d6000853e8b8b82606087013350600060045af150596115ef8d3d611552565b8c016115fb8187611542565b5b8281101561161057600081526020016115fc565b50929c50505050505050565b63bdbf8c36598160e01b8152602081600483336000905af158601d01573d60011458600c01573d6000803e3d621234565260ea61109c528051600082529350602061143a56fe4f776e61626c653a206e6577206f776e657220697320746865207a65726f20616464726573735072696365436f6e73756d65723a2061676772656761746f72206e6f7420666f756e645072696365436f6e73756d65723a20636861696e6c696e6b20707269636520657870697265645072696365436f6e73756d65723a207072696365206e6f7420617661696c61626c65536166654d6174683a206d756c7469706c69636174696f6e206f766572666c6f77436f6e747261637420696e7374616e63652068617320616c7265616479206265656e20696e697469616c697a6564",
  "linkReferences": {},
  "deployedLinkReferences": {}
}