{
  "_format": "hh-sol-artifact-1",
  "contractName": "PriceConsumer-ovm",
  "sourceName": "contracts/priceFeeds/PriceConsumer.sol",
  "abi": [
    {
      "anonymous": false,
      "inputs": [
        {
          "indexed": true,
          "internalType": "address",
          "name": "previousOwner",
          "type": "address"
        },
        {
          "indexed": true,
          "internalType": "address",
          "name": "newOwner",
          "type": "address"
        }
      ],
      "name": "OwnershipTransferred",
      "type": "event"
    },
    {
      "inputs": [
        {
          "internalType": "address",
          "name": "_asset",
          "type": "address"
        },
        {
          "internalType": "uint8",
          "name": "_assetType",
          "type": "uint8"
        },
        {
          "internalType": "address",
          "name": "_aggregator",
          "type": "address"
        }
      ],
      "name": "addAggregator",
      "outputs": [],
      "stateMutability": "nonpayable",
      "type": "function"
    },
    {
      "inputs": [],
      "name": "disableChainlink",
      "outputs": [],
      "stateMutability": "nonpayable",
      "type": "function"
    },
    {
      "inputs": [],
      "name": "enableChainlink",
      "outputs": [],
      "stateMutability": "nonpayable",
      "type": "function"
    },
    {
      "inputs": [
        {
          "internalType": "address",
          "name": "_asset",
          "type": "address"
        }
      ],
      "name": "getUSDPrice",
      "outputs": [
        {
          "internalType": "uint256",
          "name": "",
          "type": "uint256"
        }
      ],
      "stateMutability": "view",
      "type": "function"
    },
    {
      "inputs": [
        {
          "internalType": "address",
          "name": "_poolFactory",
          "type": "address"
        }
      ],
      "name": "initialize",
      "outputs": [],
      "stateMutability": "nonpayable",
      "type": "function"
    },
    {
      "inputs": [],
      "name": "owner",
      "outputs": [
        {
          "internalType": "address",
          "name": "",
          "type": "address"
        }
      ],
      "stateMutability": "view",
      "type": "function"
    },
    {
      "inputs": [],
      "name": "poolFactory",
      "outputs": [
        {
          "internalType": "address",
          "name": "",
          "type": "address"
        }
      ],
      "stateMutability": "view",
      "type": "function"
    },
    {
      "inputs": [
        {
          "internalType": "address",
          "name": "_asset",
          "type": "address"
        }
      ],
      "name": "removeAggregator",
      "outputs": [],
      "stateMutability": "nonpayable",
      "type": "function"
    },
    {
      "inputs": [],
      "name": "renounceOwnership",
      "outputs": [],
      "stateMutability": "nonpayable",
      "type": "function"
    },
    {
      "inputs": [
        {
          "internalType": "address",
          "name": "_poolFactory",
          "type": "address"
        }
      ],
      "name": "setPoolFactory",
      "outputs": [],
      "stateMutability": "nonpayable",
      "type": "function"
    },
    {
      "inputs": [
        {
          "internalType": "address",
          "name": "newOwner",
          "type": "address"
        }
      ],
      "name": "transferOwnership",
      "outputs": [],
      "stateMutability": "nonpayable",
      "type": "function"
    }
  ],
  "bytecode": "0x60806040523480156100195760008061001661001f565b50505b5061008a565b632a2a7adb598160e01b8152600481016020815285602082015260005b8681101561005757808601518282016040015260200161003c565b506020828760640184336000905af158600e01573d6000803e3d6000fd5b3d6001141558600a015760016000f35b505050565b611703806100996000396000f3fe60806040523480156100195760008061001661134b565b50505b50600436106100b25760003560e01c80638c651f111161007a5780638c651f11146101a05780638da5cb5b146101cf578063b2806001146101d7578063c4d66de8146101df578063d54e96d21461020e578063f2fde38b14610216576100b2565b80632c63812c146100c05780634219dc4014610104578063473597a014610128578063715018a6146101575780638b2f0f4f1461015f575b6000806100bd61134b565b50505b610102600480360360608110156100df576000806100dc61134b565b50505b506001600160a01b03813581169160ff6020820135169160409091013516610245565b005b61010c610357565b6040516001600160a01b03909116815260200160405180910390f35b610102600480360360208110156101475760008061014461134b565b50505b50356001600160a01b0316610376565b61010261043d565b61018e6004803603602081101561017e5760008061017b61134b565b50505b50356001600160a01b0316610555565b60405190815260200160405180910390f35b610102600480360360208110156101bf576000806101bc61134b565b50505b50356001600160a01b0316610807565b61010c61090d565b61010261092f565b610102600480360360208110156101fe576000806101fb61134b565b50505b50356001600160a01b0316610a68565b610102610bce565b610102600480360360208110156102355760008061023261134b565b50505b50356001600160a01b0316610cf3565b600160976102516113b6565b906101000a90046001600160a01b03166001600160a01b03165a610273611411565b6001600160a01b0316146102ca5760405162461bcd60e51b81526020600482015260116024820152706f6e6c7920706f6f6c20666163746f727960781b6044820152606401604051809103906102c761134b565b50505b6001600160a01b038316600090815260996020528190604090206001816102ef6113b6565b816001600160a01b0302191690836001600160a01b0316021790610311611457565b5050506001600160a01b038316600090815260986020528290604090206001816103396113b6565b8160ff021916908360ff1602179061034f611457565b505050505050565b600160976103636113b6565b906101000a90046001600160a01b031681565b61037e610e3a565b6001600160a01b0316600060656103936113b6565b906101000a90046001600160a01b03166001600160a01b0316146104065760405162461bcd60e51b815260206004820181905260248201527f4f776e61626c653a2063616c6c6572206973206e6f7420746865206f776e657260448201526064016040518091039061040361134b565b50505b806097610100816104156113b6565b816001600160a01b0302191690836001600160a01b0316021790610437611457565b50505050565b610445610e3a565b6001600160a01b03166000606561045a6113b6565b906101000a90046001600160a01b03166001600160a01b0316146104cd5760405162461bcd60e51b815260206004820181905260248201527f4f776e61626c653a2063616c6c6572206973206e6f7420746865206f776e65726044820152606401604051809103906104ca61134b565b50505b60008060656104da6113b6565b906101000a90046001600160a01b03166001600160a01b03167f8be0079c531659141344cd1fd0a4f28419497f9722a3daafe3b4186f6b6457e060405160405180910390a36000606560018161052e6113b6565b816001600160a01b0302191690836001600160a01b0316021790610550611457565b505050565b6001600160a01b0381166000908152609960205280604081206000906105796113b6565b6001600160a01b03858116600090815260986020526101009390930a909104169150604081206000906105aa6113b6565b60ff6101009290920a90041690506001600160a01b0382166106065760405162461bcd60e51b8152600401808060200182810382526023815260200180611649602391396040019150506040518091039061060361134b565b50505b600060ff821615801561062c5750600060976106206113b6565b906101000a900460ff16155b156107b757826001600160a01b031663feaf968c6040518163ffffffff1660e01b815260040160a06040518083038186806106656114a5565b15801561067a5760008061067761134b565b50505b505a6106846114f1565b50505050509250505080156106dd57506040513d60a08110156106af576000806106ac61134b565b50505b8101908080519291906020018051929190602001805192919060200180519291906020018051925060019150505b61073a5760405162461bcd60e51b815260206004820152601f60248201527f5072696365436f6e73756d65723a20707269636520676574206661696c65640060448201526064016040518091039061073361134b565b50506107b7565b5a6107436115dc565b6107508362015f90610e4a565b10156107965760405162461bcd60e51b815260040180806020018281038252602681526020018061166c602691396040019150506040518091039061079361134b565b50505b60008413156107b1576107ae846402540be400610eb5565b95505b50505050505b600081116107ff5760405162461bcd60e51b815260040180806020018281038252602281526020018061169260229139604001915050604051809103906107fc61134b565b50505b949350505050565b600160976108136113b6565b906101000a90046001600160a01b03166001600160a01b03165a610835611411565b6001600160a01b03161461088c5760405162461bcd60e51b81526020600482015260116024820152706f6e6c7920706f6f6c20666163746f727960781b60448201526064016040518091039061088961134b565b50505b6001600160a01b03811660009081526099602052604081206001816108af6113b6565b816001600160a01b0302191690836001600160a01b03160217906108d1611457565b5050506001600160a01b03811660009081526098602052604081206001816108f76113b6565b8160ff021916908360ff16021790610437611457565b600080606561091a6113b6565b906101000a90046001600160a01b0316905090565b6001609761093b6113b6565b906101000a90046001600160a01b03166001600160a01b0316631d68702d6040518163ffffffff1660e01b8152600401602060405180830381868061097e6114a5565b1580156109935760008061099061134b565b50505b505a61099d6114f1565b50505050501580156109bc573d6000803e3d60006109b961134b565b50505b505050506040513d60208110156109db576000806109d861134b565b50505b8101908080516001600160a01b0316925050505a6109f7611411565b6001600160a01b031614610a455760405162461bcd60e51b81526020600482015260086024820152676f6e6c792064616f60c01b604482015260640160405180910390610a4261134b565b50505b600160978181610a536113b6565b8160ff02191690831515021790610550611457565b60016000610a746113b6565b906101000a900460ff1680610a8c5750610a8c610f14565b80610aa95750600080610a9d6113b6565b906101000a900460ff16155b610aed5760405162461bcd60e51b815260040180806020018281038252602e8152602001806116d5602e913960400191505060405180910390610aea61134b565b50505b6000600181610afa6113b6565b906101000a900460ff161590508015610b60576001600061010081610b1d6113b6565b8160ff02191690831515021790610b32611457565b50505060016000806101000a81610b476113b6565b8160ff02191690831515021790610b5c611457565b5050505b610b68610f85565b81609761010081610b776113b6565b816001600160a01b0302191690836001600160a01b0316021790610b99611457565b5050508015610bca5760008061010081610bb16113b6565b8160ff02191690831515021790610bc6611457565b5050505b5050565b60016097610bda6113b6565b906101000a90046001600160a01b03166001600160a01b0316631d68702d6040518163ffffffff1660e01b81526004016020604051808303818680610c1d6114a5565b158015610c3257600080610c2f61134b565b50505b505a610c3c6114f1565b5050505050158015610c5b573d6000803e3d6000610c5861134b565b50505b505050506040513d6020811015610c7a57600080610c7761134b565b50505b8101908080516001600160a01b0316925050505a610c96611411565b6001600160a01b031614610ce45760405162461bcd60e51b81526020600482015260086024820152676f6e6c792064616f60c01b604482015260640160405180910390610ce161134b565b50505b60006097600181610a536113b6565b610cfb610e3a565b6001600160a01b031660006065610d106113b6565b906101000a90046001600160a01b03166001600160a01b031614610d835760405162461bcd60e51b815260206004820181905260248201527f4f776e61626c653a2063616c6c6572206973206e6f7420746865206f776e6572604482015260640160405180910390610d8061134b565b50505b6001600160a01b038116610dd15760405162461bcd60e51b81526004018080602001828103825260268152602001806116236026913960400191505060405180910390610dce61134b565b50505b6001600160a01b03811660006065610de76113b6565b906101000a90046001600160a01b03166001600160a01b03167f8be0079c531659141344cd1fd0a4f28419497f9722a3daafe3b4186f6b6457e060405160405180910390a38060656001816104156113b6565b60005a610e45611411565b905090565b600082820183811015610eac5760405162461bcd60e51b815260206004820152601b60248201527f536166654d6174683a206164646974696f6e206f766572666c6f770000000000604482015260640160405180910390610ea961134b565b50505b90505b92915050565b600082610ec457506000610eaf565b82820282848281610ed157fe5b0414610eac5760405162461bcd60e51b81526004018080602001828103825260218152602001806116b46021913960400191505060405180910390610ea961134b565b6000805a63996d79a5598160e01b8152602081600483336000905af158600e01573d6000803e3d6000fd5b3d6001141558600a015760016000f35b8051925060005b6040811015610f6d57600082820152602001610f56565b5050509050600081610f7d6114a5565b159250505090565b60016000610f916113b6565b906101000a900460ff1680610fa95750610fa9610f14565b80610fc65750600080610fba6113b6565b906101000a900460ff16155b61100a5760405162461bcd60e51b815260040180806020018281038252602e8152602001806116d5602e91396040019150506040518091039061100761134b565b50505b60006001816110176113b6565b906101000a900460ff16159050801561107d57600160006101008161103a6113b6565b8160ff0219169083151502179061104f611457565b50505060016000806101000a816110646113b6565b8160ff02191690831515021790611079611457565b5050505b6110856110ba565b61108d6111c6565b80156110b757600080610100816110a26113b6565b8160ff02191690831515021790610437611457565b50565b600160006110c66113b6565b906101000a900460ff16806110de57506110de610f14565b806110fb57506000806110ef6113b6565b906101000a900460ff16155b61113f5760405162461bcd60e51b815260040180806020018281038252602e8152602001806116d5602e91396040019150506040518091039061113c61134b565b50505b600060018161114c6113b6565b906101000a900460ff16159050801561108d57600160006101008161116f6113b6565b8160ff02191690831515021790611184611457565b50505060016000806101000a816111996113b6565b8160ff021916908315150217906111ae611457565b50505080156110b757600080610100816110a26113b6565b600160006111d26113b6565b906101000a900460ff16806111ea57506111ea610f14565b8061120757506000806111fb6113b6565b906101000a900460ff16155b61124b5760405162461bcd60e51b815260040180806020018281038252602e8152602001806116d5602e91396040019150506040518091039061124861134b565b50505b60006001816112586113b6565b906101000a900460ff1615905080156112be57600160006101008161127b6113b6565b8160ff02191690831515021790611290611457565b50505060016000806101000a816112a56113b6565b8160ff021916908315150217906112ba611457565b5050505b60006112c8610e3a565b90508060656001816112d86113b6565b816001600160a01b0302191690836001600160a01b03160217906112fa611457565b5050506001600160a01b03811660007f8be0079c531659141344cd1fd0a4f28419497f9722a3daafe3b4186f6b6457e060405160405180910390a35080156110b757600080610100816110a26113b6565b632a2a7adb598160e01b8152600481016020815285602082015260005b86811015611383578086015182820160400152602001611368565b506020828760640184336000905af158600e01573d6000803e3d6000fd5b3d6001141558600a015760016000f35b505050565b6303daa959598160e01b8152836004820152602081602483336000905af158600e01573d6000803e3d6000fd5b3d6001141558600a015760016000f35b8051935060005b6040811015610550576000828201526020016113fa565b6373509064598160e01b8152602081600483336000905af158600e01573d6000803e3d6000fd5b3d6001141558600a015760016000f35b805160008252935060206113fa565b6322bd64c0598160e01b8152836004820152846024820152600081604483336000905af158600e01573d6000803e3d6000fd5b3d6001141558600a015760016000f35b6000815260206113fa565b638435035b598160e01b8152836004820152602081602483336000905af158600e01573d6000803e3d6000fd5b3d6001141558600a015760016000f35b805160008252935060206113fa565b638540661f598160e01b8152611522565b8080831115610eaf575090919050565b8080831015610eaf575090919050565b836004820152846024820152606060448201528660648201526084810160005b8881101561155a578088015182820152602001611542565b506060828960a40184336000905af158600e01573d6000803e3d6000fd5b3d6001141558600a015760016000f35b815160408301513d6000853e8b8b82606087013350600060045af150596115af8d3d611512565b8c016115bb8187611502565b5b828110156115d057600081526020016115bc565b50929c50505050505050565b63bdbf8c36598160e01b8152602081600483336000905af158600e01573d6000803e3d6000fd5b3d6001141558600a015760016000f35b805160008252935060206113fa56fe4f776e61626c653a206e6577206f776e657220697320746865207a65726f20616464726573735072696365436f6e73756d65723a2061676772656761746f72206e6f7420666f756e645072696365436f6e73756d65723a20636861696e6c696e6b20707269636520657870697265645072696365436f6e73756d65723a207072696365206e6f7420617661696c61626c65536166654d6174683a206d756c7469706c69636174696f6e206f766572666c6f77436f6e747261637420696e7374616e63652068617320616c7265616479206265656e20696e697469616c697a6564",
  "deployedBytecode": "0x60806040523480156100195760008061001661134b565b50505b50600436106100b25760003560e01c80638c651f111161007a5780638c651f11146101a05780638da5cb5b146101cf578063b2806001146101d7578063c4d66de8146101df578063d54e96d21461020e578063f2fde38b14610216576100b2565b80632c63812c146100c05780634219dc4014610104578063473597a014610128578063715018a6146101575780638b2f0f4f1461015f575b6000806100bd61134b565b50505b610102600480360360608110156100df576000806100dc61134b565b50505b506001600160a01b03813581169160ff6020820135169160409091013516610245565b005b61010c610357565b6040516001600160a01b03909116815260200160405180910390f35b610102600480360360208110156101475760008061014461134b565b50505b50356001600160a01b0316610376565b61010261043d565b61018e6004803603602081101561017e5760008061017b61134b565b50505b50356001600160a01b0316610555565b60405190815260200160405180910390f35b610102600480360360208110156101bf576000806101bc61134b565b50505b50356001600160a01b0316610807565b61010c61090d565b61010261092f565b610102600480360360208110156101fe576000806101fb61134b565b50505b50356001600160a01b0316610a68565b610102610bce565b610102600480360360208110156102355760008061023261134b565b50505b50356001600160a01b0316610cf3565b600160976102516113b6565b906101000a90046001600160a01b03166001600160a01b03165a610273611411565b6001600160a01b0316146102ca5760405162461bcd60e51b81526020600482015260116024820152706f6e6c7920706f6f6c20666163746f727960781b6044820152606401604051809103906102c761134b565b50505b6001600160a01b038316600090815260996020528190604090206001816102ef6113b6565b816001600160a01b0302191690836001600160a01b0316021790610311611457565b5050506001600160a01b038316600090815260986020528290604090206001816103396113b6565b8160ff021916908360ff1602179061034f611457565b505050505050565b600160976103636113b6565b906101000a90046001600160a01b031681565b61037e610e3a565b6001600160a01b0316600060656103936113b6565b906101000a90046001600160a01b03166001600160a01b0316146104065760405162461bcd60e51b815260206004820181905260248201527f4f776e61626c653a2063616c6c6572206973206e6f7420746865206f776e657260448201526064016040518091039061040361134b565b50505b806097610100816104156113b6565b816001600160a01b0302191690836001600160a01b0316021790610437611457565b50505050565b610445610e3a565b6001600160a01b03166000606561045a6113b6565b906101000a90046001600160a01b03166001600160a01b0316146104cd5760405162461bcd60e51b815260206004820181905260248201527f4f776e61626c653a2063616c6c6572206973206e6f7420746865206f776e65726044820152606401604051809103906104ca61134b565b50505b60008060656104da6113b6565b906101000a90046001600160a01b03166001600160a01b03167f8be0079c531659141344cd1fd0a4f28419497f9722a3daafe3b4186f6b6457e060405160405180910390a36000606560018161052e6113b6565b816001600160a01b0302191690836001600160a01b0316021790610550611457565b505050565b6001600160a01b0381166000908152609960205280604081206000906105796113b6565b6001600160a01b03858116600090815260986020526101009390930a909104169150604081206000906105aa6113b6565b60ff6101009290920a90041690506001600160a01b0382166106065760405162461bcd60e51b8152600401808060200182810382526023815260200180611649602391396040019150506040518091039061060361134b565b50505b600060ff821615801561062c5750600060976106206113b6565b906101000a900460ff16155b156107b757826001600160a01b031663feaf968c6040518163ffffffff1660e01b815260040160a06040518083038186806106656114a5565b15801561067a5760008061067761134b565b50505b505a6106846114f1565b50505050509250505080156106dd57506040513d60a08110156106af576000806106ac61134b565b50505b8101908080519291906020018051929190602001805192919060200180519291906020018051925060019150505b61073a5760405162461bcd60e51b815260206004820152601f60248201527f5072696365436f6e73756d65723a20707269636520676574206661696c65640060448201526064016040518091039061073361134b565b50506107b7565b5a6107436115dc565b6107508362015f90610e4a565b10156107965760405162461bcd60e51b815260040180806020018281038252602681526020018061166c602691396040019150506040518091039061079361134b565b50505b60008413156107b1576107ae846402540be400610eb5565b95505b50505050505b600081116107ff5760405162461bcd60e51b815260040180806020018281038252602281526020018061169260229139604001915050604051809103906107fc61134b565b50505b949350505050565b600160976108136113b6565b906101000a90046001600160a01b03166001600160a01b03165a610835611411565b6001600160a01b03161461088c5760405162461bcd60e51b81526020600482015260116024820152706f6e6c7920706f6f6c20666163746f727960781b60448201526064016040518091039061088961134b565b50505b6001600160a01b03811660009081526099602052604081206001816108af6113b6565b816001600160a01b0302191690836001600160a01b03160217906108d1611457565b5050506001600160a01b03811660009081526098602052604081206001816108f76113b6565b8160ff021916908360ff16021790610437611457565b600080606561091a6113b6565b906101000a90046001600160a01b0316905090565b6001609761093b6113b6565b906101000a90046001600160a01b03166001600160a01b0316631d68702d6040518163ffffffff1660e01b8152600401602060405180830381868061097e6114a5565b1580156109935760008061099061134b565b50505b505a61099d6114f1565b50505050501580156109bc573d6000803e3d60006109b961134b565b50505b505050506040513d60208110156109db576000806109d861134b565b50505b8101908080516001600160a01b0316925050505a6109f7611411565b6001600160a01b031614610a455760405162461bcd60e51b81526020600482015260086024820152676f6e6c792064616f60c01b604482015260640160405180910390610a4261134b565b50505b600160978181610a536113b6565b8160ff02191690831515021790610550611457565b60016000610a746113b6565b906101000a900460ff1680610a8c5750610a8c610f14565b80610aa95750600080610a9d6113b6565b906101000a900460ff16155b610aed5760405162461bcd60e51b815260040180806020018281038252602e8152602001806116d5602e913960400191505060405180910390610aea61134b565b50505b6000600181610afa6113b6565b906101000a900460ff161590508015610b60576001600061010081610b1d6113b6565b8160ff02191690831515021790610b32611457565b50505060016000806101000a81610b476113b6565b8160ff02191690831515021790610b5c611457565b5050505b610b68610f85565b81609761010081610b776113b6565b816001600160a01b0302191690836001600160a01b0316021790610b99611457565b5050508015610bca5760008061010081610bb16113b6565b8160ff02191690831515021790610bc6611457565b5050505b5050565b60016097610bda6113b6565b906101000a90046001600160a01b03166001600160a01b0316631d68702d6040518163ffffffff1660e01b81526004016020604051808303818680610c1d6114a5565b158015610c3257600080610c2f61134b565b50505b505a610c3c6114f1565b5050505050158015610c5b573d6000803e3d6000610c5861134b565b50505b505050506040513d6020811015610c7a57600080610c7761134b565b50505b8101908080516001600160a01b0316925050505a610c96611411565b6001600160a01b031614610ce45760405162461bcd60e51b81526020600482015260086024820152676f6e6c792064616f60c01b604482015260640160405180910390610ce161134b565b50505b60006097600181610a536113b6565b610cfb610e3a565b6001600160a01b031660006065610d106113b6565b906101000a90046001600160a01b03166001600160a01b031614610d835760405162461bcd60e51b815260206004820181905260248201527f4f776e61626c653a2063616c6c6572206973206e6f7420746865206f776e6572604482015260640160405180910390610d8061134b565b50505b6001600160a01b038116610dd15760405162461bcd60e51b81526004018080602001828103825260268152602001806116236026913960400191505060405180910390610dce61134b565b50505b6001600160a01b03811660006065610de76113b6565b906101000a90046001600160a01b03166001600160a01b03167f8be0079c531659141344cd1fd0a4f28419497f9722a3daafe3b4186f6b6457e060405160405180910390a38060656001816104156113b6565b60005a610e45611411565b905090565b600082820183811015610eac5760405162461bcd60e51b815260206004820152601b60248201527f536166654d6174683a206164646974696f6e206f766572666c6f770000000000604482015260640160405180910390610ea961134b565b50505b90505b92915050565b600082610ec457506000610eaf565b82820282848281610ed157fe5b0414610eac5760405162461bcd60e51b81526004018080602001828103825260218152602001806116b46021913960400191505060405180910390610ea961134b565b6000805a63996d79a5598160e01b8152602081600483336000905af158601d01573d60011458600c01573d6000803e3d621234565260ea61109c528051925060005b6040811015610f6d57600082820152602001610f56565b5050509050600081610f7d6114a5565b159250505090565b60016000610f916113b6565b906101000a900460ff1680610fa95750610fa9610f14565b80610fc65750600080610fba6113b6565b906101000a900460ff16155b61100a5760405162461bcd60e51b815260040180806020018281038252602e8152602001806116d5602e91396040019150506040518091039061100761134b565b50505b60006001816110176113b6565b906101000a900460ff16159050801561107d57600160006101008161103a6113b6565b8160ff0219169083151502179061104f611457565b50505060016000806101000a816110646113b6565b8160ff02191690831515021790611079611457565b5050505b6110856110ba565b61108d6111c6565b80156110b757600080610100816110a26113b6565b8160ff02191690831515021790610437611457565b50565b600160006110c66113b6565b906101000a900460ff16806110de57506110de610f14565b806110fb57506000806110ef6113b6565b906101000a900460ff16155b61113f5760405162461bcd60e51b815260040180806020018281038252602e8152602001806116d5602e91396040019150506040518091039061113c61134b565b50505b600060018161114c6113b6565b906101000a900460ff16159050801561108d57600160006101008161116f6113b6565b8160ff02191690831515021790611184611457565b50505060016000806101000a816111996113b6565b8160ff021916908315150217906111ae611457565b50505080156110b757600080610100816110a26113b6565b600160006111d26113b6565b906101000a900460ff16806111ea57506111ea610f14565b8061120757506000806111fb6113b6565b906101000a900460ff16155b61124b5760405162461bcd60e51b815260040180806020018281038252602e8152602001806116d5602e91396040019150506040518091039061124861134b565b50505b60006001816112586113b6565b906101000a900460ff1615905080156112be57600160006101008161127b6113b6565b8160ff02191690831515021790611290611457565b50505060016000806101000a816112a56113b6565b8160ff021916908315150217906112ba611457565b5050505b60006112c8610e3a565b90508060656001816112d86113b6565b816001600160a01b0302191690836001600160a01b03160217906112fa611457565b5050506001600160a01b03811660007f8be0079c531659141344cd1fd0a4f28419497f9722a3daafe3b4186f6b6457e060405160405180910390a35080156110b757600080610100816110a26113b6565b632a2a7adb598160e01b8152600481016020815285602082015260005b86811015611383578086015182820160400152602001611368565b506020828760640184336000905af158601d01573d60011458600c01573d6000803e3d621234565260ea61109c52505050565b6303daa959598160e01b8152836004820152602081602483336000905af158601d01573d60011458600c01573d6000803e3d621234565260ea61109c528051935060005b6040811015610550576000828201526020016113fa565b6373509064598160e01b8152602081600483336000905af158601d01573d60011458600c01573d6000803e3d621234565260ea61109c52805160008252935060206113fa565b6322bd64c0598160e01b8152836004820152846024820152600081604483336000905af158601d01573d60011458600c01573d6000803e3d621234565260ea61109c526000815260206113fa565b638435035b598160e01b8152836004820152602081602483336000905af158601d01573d60011458600c01573d6000803e3d621234565260ea61109c52805160008252935060206113fa565b638540661f598160e01b8152611522565b8080831115610eaf575090919050565b8080831015610eaf575090919050565b836004820152846024820152606060448201528660648201526084810160005b8881101561155a578088015182820152602001611542565b506060828960a40184336000905af158601d01573d60011458600c01573d6000803e3d621234565260ea61109c52815160408301513d6000853e8b8b82606087013350600060045af150596115af8d3d611512565b8c016115bb8187611502565b5b828110156115d057600081526020016115bc565b50929c50505050505050565b63bdbf8c36598160e01b8152602081600483336000905af158601d01573d60011458600c01573d6000803e3d621234565260ea61109c52805160008252935060206113fa56fe4f776e61626c653a206e6577206f776e657220697320746865207a65726f20616464726573735072696365436f6e73756d65723a2061676772656761746f72206e6f7420666f756e645072696365436f6e73756d65723a20636861696e6c696e6b20707269636520657870697265645072696365436f6e73756d65723a207072696365206e6f7420617661696c61626c65536166654d6174683a206d756c7469706c69636174696f6e206f766572666c6f77436f6e747261637420696e7374616e63652068617320616c7265616479206265656e20696e697469616c697a6564",
  "linkReferences": {},
  "deployedLinkReferences": {}
}