{
  "_format": "hh-sol-artifact-1",
  "contractName": "PriceConsumer-ovm",
  "sourceName": "contracts/priceFeeds/PriceConsumer.sol",
  "abi": [
    {
      "anonymous": false,
      "inputs": [
        {
          "indexed": true,
          "internalType": "address",
          "name": "previousOwner",
          "type": "address"
        },
        {
          "indexed": true,
          "internalType": "address",
          "name": "newOwner",
          "type": "address"
        }
      ],
      "name": "OwnershipTransferred",
      "type": "event"
    },
    {
      "inputs": [
        {
          "internalType": "address",
          "name": "asset",
          "type": "address"
        },
        {
          "internalType": "uint8",
          "name": "assetType",
          "type": "uint8"
        },
        {
          "internalType": "address",
          "name": "aggregator",
          "type": "address"
        }
      ],
      "name": "addAsset",
      "outputs": [],
      "stateMutability": "nonpayable",
      "type": "function"
    },
    {
      "inputs": [],
      "name": "disableChainlink",
      "outputs": [],
      "stateMutability": "nonpayable",
      "type": "function"
    },
    {
      "inputs": [],
      "name": "enableChainlink",
      "outputs": [],
      "stateMutability": "nonpayable",
      "type": "function"
    },
    {
      "inputs": [
        {
          "internalType": "address",
          "name": "asset",
          "type": "address"
        }
      ],
      "name": "getAggregator",
      "outputs": [
        {
          "internalType": "address",
          "name": "",
          "type": "address"
        }
      ],
      "stateMutability": "view",
      "type": "function"
    },
    {
      "inputs": [
        {
          "internalType": "address",
          "name": "asset",
          "type": "address"
        }
      ],
      "name": "getTypeAndAggregator",
      "outputs": [
        {
          "internalType": "uint8",
          "name": "",
          "type": "uint8"
        },
        {
          "internalType": "address",
          "name": "",
          "type": "address"
        }
      ],
      "stateMutability": "view",
      "type": "function"
    },
    {
      "inputs": [
        {
          "internalType": "address",
          "name": "asset",
          "type": "address"
        }
      ],
      "name": "getUSDPrice",
      "outputs": [
        {
          "internalType": "uint256",
          "name": "",
          "type": "uint256"
        }
      ],
      "stateMutability": "view",
      "type": "function"
    },
    {
      "inputs": [
        {
          "internalType": "address",
          "name": "_poolFactory",
          "type": "address"
        }
      ],
      "name": "initialize",
      "outputs": [],
      "stateMutability": "nonpayable",
      "type": "function"
    },
    {
      "inputs": [],
      "name": "isDisabledChainlink",
      "outputs": [
        {
          "internalType": "bool",
          "name": "",
          "type": "bool"
        }
      ],
      "stateMutability": "view",
      "type": "function"
    },
    {
      "inputs": [],
      "name": "owner",
      "outputs": [
        {
          "internalType": "address",
          "name": "",
          "type": "address"
        }
      ],
      "stateMutability": "view",
      "type": "function"
    },
    {
      "inputs": [],
      "name": "poolFactory",
      "outputs": [
        {
          "internalType": "address",
          "name": "",
          "type": "address"
        }
      ],
      "stateMutability": "view",
      "type": "function"
    },
    {
      "inputs": [
        {
          "internalType": "address",
          "name": "asset",
          "type": "address"
        }
      ],
      "name": "removeAsset",
      "outputs": [],
      "stateMutability": "nonpayable",
      "type": "function"
    },
    {
      "inputs": [],
      "name": "renounceOwnership",
      "outputs": [],
      "stateMutability": "nonpayable",
      "type": "function"
    },
    {
      "inputs": [
        {
          "internalType": "address",
          "name": "_poolFactory",
          "type": "address"
        }
      ],
      "name": "setPoolFactory",
      "outputs": [],
      "stateMutability": "nonpayable",
      "type": "function"
    },
    {
      "inputs": [
        {
          "internalType": "address",
          "name": "newOwner",
          "type": "address"
        }
      ],
      "name": "transferOwnership",
      "outputs": [],
      "stateMutability": "nonpayable",
      "type": "function"
    }
  ],
  "bytecode": "0x60806040523480156100195760008061001661001f565b50505b5061008a565b632a2a7adb598160e01b8152600481016020815285602082015260005b8681101561005757808601518282016040015260200161003c565b506020828760640184336000905af158600e01573d6000803e3d6000fd5b3d6001141558600a015760016000f35b505050565b6118c1806100996000396000f3fe608060405234801561001957600080610016611509565b50505b50600436106100f35760003560e01c80638da5cb5b11610095578063c4d66de81161006f578063c4d66de8146102a3578063cf45ba1b146102d2578063d54e96d2146102ee578063f2fde38b146102f6576100f3565b80638da5cb5b14610251578063b280600114610259578063b91ba54814610261576100f3565b80634a5e42b1116100d15780634a5e42b1146101855780635cb9e26f146101b4578063715018a6146102085780638b2f0f4f14610210576100f3565b806329a42d56146101015780634219dc401461014c578063473597a014610154575b6000806100fe611509565b50505b610130600480360360208110156101205760008061011d611509565b50505b50356001600160a01b0316610325565b6040516001600160a01b03909116815260200160405180910390f35b61013061035f565b6101836004803603602081101561017357600080610170611509565b50505b50356001600160a01b031661037e565b005b610183600480360360208110156101a4576000806101a1611509565b50505b50356001600160a01b0316610445565b6101e3600480360360208110156101d3576000806101d0611509565b50505b50356001600160a01b0316610555565b60405160ff90921682526001600160a01b031660208201526040908101905180910390f35b6101836105cc565b61023f6004803603602081101561022f5760008061022c611509565b50505b50356001600160a01b03166106e4565b60405190815260200160405180910390f35b610130610996565b6101836109b8565b610183600480360360608110156102805760008061027d611509565b50505b506001600160a01b03813581169160ff6020820135169160409091013516610af1565b610183600480360360208110156102c2576000806102bf611509565b50505b50356001600160a01b0316610c0d565b6102da610d73565b604051901515815260200160405180910390f35b610183610d8c565b6101836004803603602081101561031557600080610312611509565b50505b50356001600160a01b0316610eb1565b6001600160a01b0381166000908152609860205260408120600190610348611574565b906101000a90046001600160a01b03169050919050565b6001609761036b611574565b906101000a90046001600160a01b031681565b610386610ff8565b6001600160a01b03166000606561039b611574565b906101000a90046001600160a01b03166001600160a01b03161461040e5760405162461bcd60e51b815260206004820181905260248201527f4f776e61626c653a2063616c6c6572206973206e6f7420746865206f776e657260448201526064016040518091039061040b611509565b50505b8060976101008161041d611574565b816001600160a01b0302191690836001600160a01b031602179061043f6115cf565b50505050565b60016097610451611574565b906101000a90046001600160a01b03166001600160a01b03165a61047361161d565b6001600160a01b0316146104ca5760405162461bcd60e51b81526020600482015260116024820152706f6e6c7920706f6f6c20666163746f727960781b6044820152606401604051809103906104c7611509565b50505b60405160408082018152600080835260208084018290526001600160a01b03851682526098905220815181600181610500611574565b8160ff021916908360ff160217906105166115cf565b5050506020820151816101008161052b611574565b816001600160a01b0302191690836001600160a01b031602179061054d6115cf565b505050505050565b6001600160a01b038116600090815260986020528060408120600090610579611574565b906101000a900460ff1660986000856001600160a01b03166001600160a01b031681526020019081526020016000206001906105b3611574565b906101000a90046001600160a01b031691509150915091565b6105d4610ff8565b6001600160a01b0316600060656105e9611574565b906101000a90046001600160a01b03166001600160a01b03161461065c5760405162461bcd60e51b815260206004820181905260248201527f4f776e61626c653a2063616c6c6572206973206e6f7420746865206f776e6572604482015260640160405180910390610659611509565b50505b6000806065610669611574565b906101000a90046001600160a01b03166001600160a01b03167f8be0079c531659141344cd1fd0a4f28419497f9722a3daafe3b4186f6b6457e060405160405180910390a3600060656001816106bd611574565b816001600160a01b0302191690836001600160a01b03160217906106df6115cf565b505050565b6001600160a01b038116600090815260986020528060408120600190610708611574565b6001600160a01b03858116600090815260986020526101009390930a90910416915060408120600090610739611574565b60ff6101009290920a90041690506001600160a01b0382166107955760405162461bcd60e51b81526004018080602001828103825260238152602001806118076023913960400191505060405180910390610792611509565b50505b600060ff82161580156107bb5750600060976107af611574565b906101000a900460ff16155b1561094657826001600160a01b031663feaf968c6040518163ffffffff1660e01b815260040160a06040518083038186806107f4611663565b15801561080957600080610806611509565b50505b505a6108136116af565b505050505092505050801561086c57506040513d60a081101561083e5760008061083b611509565b50505b8101908080519291906020018051929190602001805192919060200180519291906020018051925060019150505b6108c95760405162461bcd60e51b815260206004820152601f60248201527f5072696365436f6e73756d65723a20707269636520676574206661696c6564006044820152606401604051809103906108c2611509565b5050610946565b5a6108d261179a565b6108df8362015f90611008565b10156109255760405162461bcd60e51b815260040180806020018281038252602681526020018061182a6026913960400191505060405180910390610922611509565b50505b60008413156109405761093d846402540be400611073565b95505b50505050505b6000811161098e5760405162461bcd60e51b8152600401808060200182810382526022815260200180611850602291396040019150506040518091039061098b611509565b50505b949350505050565b60008060656109a3611574565b906101000a90046001600160a01b0316905090565b600160976109c4611574565b906101000a90046001600160a01b03166001600160a01b0316631d68702d6040518163ffffffff1660e01b81526004016020604051808303818680610a07611663565b158015610a1c57600080610a19611509565b50505b505a610a266116af565b5050505050158015610a45573d6000803e3d6000610a42611509565b50505b505050506040513d6020811015610a6457600080610a61611509565b50505b8101908080516001600160a01b0316925050505a610a8061161d565b6001600160a01b031614610ace5760405162461bcd60e51b81526020600482015260086024820152676f6e6c792064616f60c01b604482015260640160405180910390610acb611509565b50505b600160978181610adc611574565b8160ff021916908315150217906106df6115cf565b60016097610afd611574565b906101000a90046001600160a01b03166001600160a01b03165a610b1f61161d565b6001600160a01b031614610b765760405162461bcd60e51b81526020600482015260116024820152706f6e6c7920706f6f6c20666163746f727960781b604482015260640160405180910390610b73611509565b50505b6040516040808201815260ff841682526001600160a01b038084166020808501919091529086166000908152609890915220815181600181610bb6611574565b8160ff021916908360ff16021790610bcc6115cf565b50505060208201518161010081610be1611574565b816001600160a01b0302191690836001600160a01b0316021790610c036115cf565b5050505050505050565b60016000610c19611574565b906101000a900460ff1680610c315750610c316110d2565b80610c4e5750600080610c42611574565b906101000a900460ff16155b610c925760405162461bcd60e51b815260040180806020018281038252602e815260200180611893602e913960400191505060405180910390610c8f611509565b50505b6000600181610c9f611574565b906101000a900460ff161590508015610d05576001600061010081610cc2611574565b8160ff02191690831515021790610cd76115cf565b50505060016000806101000a81610cec611574565b8160ff02191690831515021790610d016115cf565b5050505b610d0d611143565b81609761010081610d1c611574565b816001600160a01b0302191690836001600160a01b0316021790610d3e6115cf565b5050508015610d6f5760008061010081610d56611574565b8160ff02191690831515021790610d6b6115cf565b5050505b5050565b60006097610d7f611574565b906101000a900460ff1681565b60016097610d98611574565b906101000a90046001600160a01b03166001600160a01b0316631d68702d6040518163ffffffff1660e01b81526004016020604051808303818680610ddb611663565b158015610df057600080610ded611509565b50505b505a610dfa6116af565b5050505050158015610e19573d6000803e3d6000610e16611509565b50505b505050506040513d6020811015610e3857600080610e35611509565b50505b8101908080516001600160a01b0316925050505a610e5461161d565b6001600160a01b031614610ea25760405162461bcd60e51b81526020600482015260086024820152676f6e6c792064616f60c01b604482015260640160405180910390610e9f611509565b50505b60006097600181610adc611574565b610eb9610ff8565b6001600160a01b031660006065610ece611574565b906101000a90046001600160a01b03166001600160a01b031614610f415760405162461bcd60e51b815260206004820181905260248201527f4f776e61626c653a2063616c6c6572206973206e6f7420746865206f776e6572604482015260640160405180910390610f3e611509565b50505b6001600160a01b038116610f8f5760405162461bcd60e51b81526004018080602001828103825260268152602001806117e16026913960400191505060405180910390610f8c611509565b50505b6001600160a01b03811660006065610fa5611574565b906101000a90046001600160a01b03166001600160a01b03167f8be0079c531659141344cd1fd0a4f28419497f9722a3daafe3b4186f6b6457e060405160405180910390a380606560018161041d611574565b60005a61100361161d565b905090565b60008282018381101561106a5760405162461bcd60e51b815260206004820152601b60248201527f536166654d6174683a206164646974696f6e206f766572666c6f770000000000604482015260640160405180910390611067611509565b50505b90505b92915050565b6000826110825750600061106d565b8282028284828161108f57fe5b041461106a5760405162461bcd60e51b81526004018080602001828103825260218152602001806118726021913960400191505060405180910390611067611509565b6000805a63996d79a5598160e01b8152602081600483336000905af158600e01573d6000803e3d6000fd5b3d6001141558600a015760016000f35b8051925060005b604081101561112b57600082820152602001611114565b505050905060008161113b611663565b159250505090565b6001600061114f611574565b906101000a900460ff168061116757506111676110d2565b806111845750600080611178611574565b906101000a900460ff16155b6111c85760405162461bcd60e51b815260040180806020018281038252602e815260200180611893602e9139604001915050604051809103906111c5611509565b50505b60006001816111d5611574565b906101000a900460ff16159050801561123b5760016000610100816111f8611574565b8160ff0219169083151502179061120d6115cf565b50505060016000806101000a81611222611574565b8160ff021916908315150217906112376115cf565b5050505b611243611278565b61124b611384565b80156112755760008061010081611260611574565b8160ff0219169083151502179061043f6115cf565b50565b60016000611284611574565b906101000a900460ff168061129c575061129c6110d2565b806112b957506000806112ad611574565b906101000a900460ff16155b6112fd5760405162461bcd60e51b815260040180806020018281038252602e815260200180611893602e9139604001915050604051809103906112fa611509565b50505b600060018161130a611574565b906101000a900460ff16159050801561124b57600160006101008161132d611574565b8160ff021916908315150217906113426115cf565b50505060016000806101000a81611357611574565b8160ff0219169083151502179061136c6115cf565b50505080156112755760008061010081611260611574565b60016000611390611574565b906101000a900460ff16806113a857506113a86110d2565b806113c557506000806113b9611574565b906101000a900460ff16155b6114095760405162461bcd60e51b815260040180806020018281038252602e815260200180611893602e913960400191505060405180910390611406611509565b50505b6000600181611416611574565b906101000a900460ff16159050801561147c576001600061010081611439611574565b8160ff0219169083151502179061144e6115cf565b50505060016000806101000a81611463611574565b8160ff021916908315150217906114786115cf565b5050505b6000611486610ff8565b9050806065600181611496611574565b816001600160a01b0302191690836001600160a01b03160217906114b86115cf565b5050506001600160a01b03811660007f8be0079c531659141344cd1fd0a4f28419497f9722a3daafe3b4186f6b6457e060405160405180910390a35080156112755760008061010081611260611574565b632a2a7adb598160e01b8152600481016020815285602082015260005b86811015611541578086015182820160400152602001611526565b506020828760640184336000905af158600e01573d6000803e3d6000fd5b3d6001141558600a015760016000f35b505050565b6303daa959598160e01b8152836004820152602081602483336000905af158600e01573d6000803e3d6000fd5b3d6001141558600a015760016000f35b8051935060005b60408110156106df576000828201526020016115b8565b6322bd64c0598160e01b8152836004820152846024820152600081604483336000905af158600e01573d6000803e3d6000fd5b3d6001141558600a015760016000f35b6000815260206115b8565b6373509064598160e01b8152602081600483336000905af158600e01573d6000803e3d6000fd5b3d6001141558600a015760016000f35b805160008252935060206115b8565b638435035b598160e01b8152836004820152602081602483336000905af158600e01573d6000803e3d6000fd5b3d6001141558600a015760016000f35b805160008252935060206115b8565b638540661f598160e01b81526116e0565b808083111561106d575090919050565b808083101561106d575090919050565b836004820152846024820152606060448201528660648201526084810160005b88811015611718578088015182820152602001611700565b506060828960a40184336000905af158600e01573d6000803e3d6000fd5b3d6001141558600a015760016000f35b815160408301513d6000853e8b8b82606087013350600060045af1505961176d8d3d6116d0565b8c0161177981876116c0565b5b8281101561178e576000815260200161177a565b50929c50505050505050565b63bdbf8c36598160e01b8152602081600483336000905af158600e01573d6000803e3d6000fd5b3d6001141558600a015760016000f35b805160008252935060206115b856fe4f776e61626c653a206e6577206f776e657220697320746865207a65726f20616464726573735072696365436f6e73756d65723a2061676772656761746f72206e6f7420666f756e645072696365436f6e73756d65723a20636861696e6c696e6b20707269636520657870697265645072696365436f6e73756d65723a207072696365206e6f7420617661696c61626c65536166654d6174683a206d756c7469706c69636174696f6e206f766572666c6f77436f6e747261637420696e7374616e63652068617320616c7265616479206265656e20696e697469616c697a6564",
  "deployedBytecode": "0x608060405234801561001957600080610016611509565b50505b50600436106100f35760003560e01c80638da5cb5b11610095578063c4d66de81161006f578063c4d66de8146102a3578063cf45ba1b146102d2578063d54e96d2146102ee578063f2fde38b146102f6576100f3565b80638da5cb5b14610251578063b280600114610259578063b91ba54814610261576100f3565b80634a5e42b1116100d15780634a5e42b1146101855780635cb9e26f146101b4578063715018a6146102085780638b2f0f4f14610210576100f3565b806329a42d56146101015780634219dc401461014c578063473597a014610154575b6000806100fe611509565b50505b610130600480360360208110156101205760008061011d611509565b50505b50356001600160a01b0316610325565b6040516001600160a01b03909116815260200160405180910390f35b61013061035f565b6101836004803603602081101561017357600080610170611509565b50505b50356001600160a01b031661037e565b005b610183600480360360208110156101a4576000806101a1611509565b50505b50356001600160a01b0316610445565b6101e3600480360360208110156101d3576000806101d0611509565b50505b50356001600160a01b0316610555565b60405160ff90921682526001600160a01b031660208201526040908101905180910390f35b6101836105cc565b61023f6004803603602081101561022f5760008061022c611509565b50505b50356001600160a01b03166106e4565b60405190815260200160405180910390f35b610130610996565b6101836109b8565b610183600480360360608110156102805760008061027d611509565b50505b506001600160a01b03813581169160ff6020820135169160409091013516610af1565b610183600480360360208110156102c2576000806102bf611509565b50505b50356001600160a01b0316610c0d565b6102da610d73565b604051901515815260200160405180910390f35b610183610d8c565b6101836004803603602081101561031557600080610312611509565b50505b50356001600160a01b0316610eb1565b6001600160a01b0381166000908152609860205260408120600190610348611574565b906101000a90046001600160a01b03169050919050565b6001609761036b611574565b906101000a90046001600160a01b031681565b610386610ff8565b6001600160a01b03166000606561039b611574565b906101000a90046001600160a01b03166001600160a01b03161461040e5760405162461bcd60e51b815260206004820181905260248201527f4f776e61626c653a2063616c6c6572206973206e6f7420746865206f776e657260448201526064016040518091039061040b611509565b50505b8060976101008161041d611574565b816001600160a01b0302191690836001600160a01b031602179061043f6115cf565b50505050565b60016097610451611574565b906101000a90046001600160a01b03166001600160a01b03165a61047361161d565b6001600160a01b0316146104ca5760405162461bcd60e51b81526020600482015260116024820152706f6e6c7920706f6f6c20666163746f727960781b6044820152606401604051809103906104c7611509565b50505b60405160408082018152600080835260208084018290526001600160a01b03851682526098905220815181600181610500611574565b8160ff021916908360ff160217906105166115cf565b5050506020820151816101008161052b611574565b816001600160a01b0302191690836001600160a01b031602179061054d6115cf565b505050505050565b6001600160a01b038116600090815260986020528060408120600090610579611574565b906101000a900460ff1660986000856001600160a01b03166001600160a01b031681526020019081526020016000206001906105b3611574565b906101000a90046001600160a01b031691509150915091565b6105d4610ff8565b6001600160a01b0316600060656105e9611574565b906101000a90046001600160a01b03166001600160a01b03161461065c5760405162461bcd60e51b815260206004820181905260248201527f4f776e61626c653a2063616c6c6572206973206e6f7420746865206f776e6572604482015260640160405180910390610659611509565b50505b6000806065610669611574565b906101000a90046001600160a01b03166001600160a01b03167f8be0079c531659141344cd1fd0a4f28419497f9722a3daafe3b4186f6b6457e060405160405180910390a3600060656001816106bd611574565b816001600160a01b0302191690836001600160a01b03160217906106df6115cf565b505050565b6001600160a01b038116600090815260986020528060408120600190610708611574565b6001600160a01b03858116600090815260986020526101009390930a90910416915060408120600090610739611574565b60ff6101009290920a90041690506001600160a01b0382166107955760405162461bcd60e51b81526004018080602001828103825260238152602001806118076023913960400191505060405180910390610792611509565b50505b600060ff82161580156107bb5750600060976107af611574565b906101000a900460ff16155b1561094657826001600160a01b031663feaf968c6040518163ffffffff1660e01b815260040160a06040518083038186806107f4611663565b15801561080957600080610806611509565b50505b505a6108136116af565b505050505092505050801561086c57506040513d60a081101561083e5760008061083b611509565b50505b8101908080519291906020018051929190602001805192919060200180519291906020018051925060019150505b6108c95760405162461bcd60e51b815260206004820152601f60248201527f5072696365436f6e73756d65723a20707269636520676574206661696c6564006044820152606401604051809103906108c2611509565b5050610946565b5a6108d261179a565b6108df8362015f90611008565b10156109255760405162461bcd60e51b815260040180806020018281038252602681526020018061182a6026913960400191505060405180910390610922611509565b50505b60008413156109405761093d846402540be400611073565b95505b50505050505b6000811161098e5760405162461bcd60e51b8152600401808060200182810382526022815260200180611850602291396040019150506040518091039061098b611509565b50505b949350505050565b60008060656109a3611574565b906101000a90046001600160a01b0316905090565b600160976109c4611574565b906101000a90046001600160a01b03166001600160a01b0316631d68702d6040518163ffffffff1660e01b81526004016020604051808303818680610a07611663565b158015610a1c57600080610a19611509565b50505b505a610a266116af565b5050505050158015610a45573d6000803e3d6000610a42611509565b50505b505050506040513d6020811015610a6457600080610a61611509565b50505b8101908080516001600160a01b0316925050505a610a8061161d565b6001600160a01b031614610ace5760405162461bcd60e51b81526020600482015260086024820152676f6e6c792064616f60c01b604482015260640160405180910390610acb611509565b50505b600160978181610adc611574565b8160ff021916908315150217906106df6115cf565b60016097610afd611574565b906101000a90046001600160a01b03166001600160a01b03165a610b1f61161d565b6001600160a01b031614610b765760405162461bcd60e51b81526020600482015260116024820152706f6e6c7920706f6f6c20666163746f727960781b604482015260640160405180910390610b73611509565b50505b6040516040808201815260ff841682526001600160a01b038084166020808501919091529086166000908152609890915220815181600181610bb6611574565b8160ff021916908360ff16021790610bcc6115cf565b50505060208201518161010081610be1611574565b816001600160a01b0302191690836001600160a01b0316021790610c036115cf565b5050505050505050565b60016000610c19611574565b906101000a900460ff1680610c315750610c316110d2565b80610c4e5750600080610c42611574565b906101000a900460ff16155b610c925760405162461bcd60e51b815260040180806020018281038252602e815260200180611893602e913960400191505060405180910390610c8f611509565b50505b6000600181610c9f611574565b906101000a900460ff161590508015610d05576001600061010081610cc2611574565b8160ff02191690831515021790610cd76115cf565b50505060016000806101000a81610cec611574565b8160ff02191690831515021790610d016115cf565b5050505b610d0d611143565b81609761010081610d1c611574565b816001600160a01b0302191690836001600160a01b0316021790610d3e6115cf565b5050508015610d6f5760008061010081610d56611574565b8160ff02191690831515021790610d6b6115cf565b5050505b5050565b60006097610d7f611574565b906101000a900460ff1681565b60016097610d98611574565b906101000a90046001600160a01b03166001600160a01b0316631d68702d6040518163ffffffff1660e01b81526004016020604051808303818680610ddb611663565b158015610df057600080610ded611509565b50505b505a610dfa6116af565b5050505050158015610e19573d6000803e3d6000610e16611509565b50505b505050506040513d6020811015610e3857600080610e35611509565b50505b8101908080516001600160a01b0316925050505a610e5461161d565b6001600160a01b031614610ea25760405162461bcd60e51b81526020600482015260086024820152676f6e6c792064616f60c01b604482015260640160405180910390610e9f611509565b50505b60006097600181610adc611574565b610eb9610ff8565b6001600160a01b031660006065610ece611574565b906101000a90046001600160a01b03166001600160a01b031614610f415760405162461bcd60e51b815260206004820181905260248201527f4f776e61626c653a2063616c6c6572206973206e6f7420746865206f776e6572604482015260640160405180910390610f3e611509565b50505b6001600160a01b038116610f8f5760405162461bcd60e51b81526004018080602001828103825260268152602001806117e16026913960400191505060405180910390610f8c611509565b50505b6001600160a01b03811660006065610fa5611574565b906101000a90046001600160a01b03166001600160a01b03167f8be0079c531659141344cd1fd0a4f28419497f9722a3daafe3b4186f6b6457e060405160405180910390a380606560018161041d611574565b60005a61100361161d565b905090565b60008282018381101561106a5760405162461bcd60e51b815260206004820152601b60248201527f536166654d6174683a206164646974696f6e206f766572666c6f770000000000604482015260640160405180910390611067611509565b50505b90505b92915050565b6000826110825750600061106d565b8282028284828161108f57fe5b041461106a5760405162461bcd60e51b81526004018080602001828103825260218152602001806118726021913960400191505060405180910390611067611509565b6000805a63996d79a5598160e01b8152602081600483336000905af158601d01573d60011458600c01573d6000803e3d621234565260ea61109c528051925060005b604081101561112b57600082820152602001611114565b505050905060008161113b611663565b159250505090565b6001600061114f611574565b906101000a900460ff168061116757506111676110d2565b806111845750600080611178611574565b906101000a900460ff16155b6111c85760405162461bcd60e51b815260040180806020018281038252602e815260200180611893602e9139604001915050604051809103906111c5611509565b50505b60006001816111d5611574565b906101000a900460ff16159050801561123b5760016000610100816111f8611574565b8160ff0219169083151502179061120d6115cf565b50505060016000806101000a81611222611574565b8160ff021916908315150217906112376115cf565b5050505b611243611278565b61124b611384565b80156112755760008061010081611260611574565b8160ff0219169083151502179061043f6115cf565b50565b60016000611284611574565b906101000a900460ff168061129c575061129c6110d2565b806112b957506000806112ad611574565b906101000a900460ff16155b6112fd5760405162461bcd60e51b815260040180806020018281038252602e815260200180611893602e9139604001915050604051809103906112fa611509565b50505b600060018161130a611574565b906101000a900460ff16159050801561124b57600160006101008161132d611574565b8160ff021916908315150217906113426115cf565b50505060016000806101000a81611357611574565b8160ff0219169083151502179061136c6115cf565b50505080156112755760008061010081611260611574565b60016000611390611574565b906101000a900460ff16806113a857506113a86110d2565b806113c557506000806113b9611574565b906101000a900460ff16155b6114095760405162461bcd60e51b815260040180806020018281038252602e815260200180611893602e913960400191505060405180910390611406611509565b50505b6000600181611416611574565b906101000a900460ff16159050801561147c576001600061010081611439611574565b8160ff0219169083151502179061144e6115cf565b50505060016000806101000a81611463611574565b8160ff021916908315150217906114786115cf565b5050505b6000611486610ff8565b9050806065600181611496611574565b816001600160a01b0302191690836001600160a01b03160217906114b86115cf565b5050506001600160a01b03811660007f8be0079c531659141344cd1fd0a4f28419497f9722a3daafe3b4186f6b6457e060405160405180910390a35080156112755760008061010081611260611574565b632a2a7adb598160e01b8152600481016020815285602082015260005b86811015611541578086015182820160400152602001611526565b506020828760640184336000905af158601d01573d60011458600c01573d6000803e3d621234565260ea61109c52505050565b6303daa959598160e01b8152836004820152602081602483336000905af158601d01573d60011458600c01573d6000803e3d621234565260ea61109c528051935060005b60408110156106df576000828201526020016115b8565b6322bd64c0598160e01b8152836004820152846024820152600081604483336000905af158601d01573d60011458600c01573d6000803e3d621234565260ea61109c526000815260206115b8565b6373509064598160e01b8152602081600483336000905af158601d01573d60011458600c01573d6000803e3d621234565260ea61109c52805160008252935060206115b8565b638435035b598160e01b8152836004820152602081602483336000905af158601d01573d60011458600c01573d6000803e3d621234565260ea61109c52805160008252935060206115b8565b638540661f598160e01b81526116e0565b808083111561106d575090919050565b808083101561106d575090919050565b836004820152846024820152606060448201528660648201526084810160005b88811015611718578088015182820152602001611700565b506060828960a40184336000905af158601d01573d60011458600c01573d6000803e3d621234565260ea61109c52815160408301513d6000853e8b8b82606087013350600060045af1505961176d8d3d6116d0565b8c0161177981876116c0565b5b8281101561178e576000815260200161177a565b50929c50505050505050565b63bdbf8c36598160e01b8152602081600483336000905af158601d01573d60011458600c01573d6000803e3d621234565260ea61109c52805160008252935060206115b856fe4f776e61626c653a206e6577206f776e657220697320746865207a65726f20616464726573735072696365436f6e73756d65723a2061676772656761746f72206e6f7420666f756e645072696365436f6e73756d65723a20636861696e6c696e6b20707269636520657870697265645072696365436f6e73756d65723a207072696365206e6f7420617661696c61626c65536166654d6174683a206d756c7469706c69636174696f6e206f766572666c6f77436f6e747261637420696e7374616e63652068617320616c7265616479206265656e20696e697469616c697a6564",
  "linkReferences": {},
  "deployedLinkReferences": {}
}