{
  "_format": "hh-sol-artifact-1",
  "contractName": "PriceConsumer",
  "sourceName": "contracts/priceFeeds/PriceConsumer.sol",
  "abi": [
    {
      "anonymous": false,
      "inputs": [
        {
          "indexed": true,
          "internalType": "address",
          "name": "previousOwner",
          "type": "address"
        },
        {
          "indexed": true,
          "internalType": "address",
          "name": "newOwner",
          "type": "address"
        }
      ],
      "name": "OwnershipTransferred",
      "type": "event"
    },
    {
      "inputs": [
        {
          "internalType": "address",
          "name": "asset",
          "type": "address"
        },
        {
          "internalType": "uint8",
          "name": "assetType",
          "type": "uint8"
        },
        {
          "internalType": "address",
          "name": "aggregator",
          "type": "address"
        }
      ],
      "name": "addAsset",
      "outputs": [],
      "stateMutability": "nonpayable",
      "type": "function"
    },
    {
      "inputs": [],
      "name": "disableChainlink",
      "outputs": [],
      "stateMutability": "nonpayable",
      "type": "function"
    },
    {
      "inputs": [],
      "name": "enableChainlink",
      "outputs": [],
      "stateMutability": "nonpayable",
      "type": "function"
    },
    {
      "inputs": [
        {
          "internalType": "address",
          "name": "asset",
          "type": "address"
        }
      ],
      "name": "getAggregator",
      "outputs": [
        {
          "internalType": "address",
          "name": "",
          "type": "address"
        }
      ],
      "stateMutability": "view",
      "type": "function"
    },
    {
      "inputs": [
        {
          "internalType": "address",
          "name": "asset",
          "type": "address"
        }
      ],
      "name": "getTypeAndAggregator",
      "outputs": [
        {
          "internalType": "uint8",
          "name": "",
          "type": "uint8"
        },
        {
          "internalType": "address",
          "name": "",
          "type": "address"
        }
      ],
      "stateMutability": "view",
      "type": "function"
    },
    {
      "inputs": [
        {
          "internalType": "address",
          "name": "_asset",
          "type": "address"
        }
      ],
      "name": "getUSDPrice",
      "outputs": [
        {
          "internalType": "uint256",
          "name": "",
          "type": "uint256"
        }
      ],
      "stateMutability": "view",
      "type": "function"
    },
    {
      "inputs": [
        {
          "internalType": "address",
          "name": "_poolFactory",
          "type": "address"
        }
      ],
      "name": "initialize",
      "outputs": [],
      "stateMutability": "nonpayable",
      "type": "function"
    },
    {
      "inputs": [],
      "name": "isDisabledChainlink",
      "outputs": [
        {
          "internalType": "bool",
          "name": "",
          "type": "bool"
        }
      ],
      "stateMutability": "view",
      "type": "function"
    },
    {
      "inputs": [],
      "name": "owner",
      "outputs": [
        {
          "internalType": "address",
          "name": "",
          "type": "address"
        }
      ],
      "stateMutability": "view",
      "type": "function"
    },
    {
      "inputs": [],
      "name": "poolFactory",
      "outputs": [
        {
          "internalType": "address",
          "name": "",
          "type": "address"
        }
      ],
      "stateMutability": "view",
      "type": "function"
    },
    {
      "inputs": [
        {
          "internalType": "address",
          "name": "asset",
          "type": "address"
        }
      ],
      "name": "removeAsset",
      "outputs": [],
      "stateMutability": "nonpayable",
      "type": "function"
    },
    {
      "inputs": [],
      "name": "renounceOwnership",
      "outputs": [],
      "stateMutability": "nonpayable",
      "type": "function"
    },
    {
      "inputs": [
        {
          "internalType": "address",
          "name": "_poolFactory",
          "type": "address"
        }
      ],
      "name": "setPoolFactory",
      "outputs": [],
      "stateMutability": "nonpayable",
      "type": "function"
    },
    {
      "inputs": [
        {
          "internalType": "address",
          "name": "newOwner",
          "type": "address"
        }
      ],
      "name": "transferOwnership",
      "outputs": [],
      "stateMutability": "nonpayable",
      "type": "function"
    }
  ],
  "bytecode": "0x608060405234801561001057600080fd5b50610f5f806100206000396000f3fe608060405234801561001057600080fd5b50600436106100ea5760003560e01c80638da5cb5b1161008c578063c4d66de811610066578063c4d66de81461025b578063cf45ba1b14610281578063d54e96d21461029d578063f2fde38b146102a5576100ea565b80638da5cb5b14610212578063b28060011461021a578063b91ba54814610222576100ea565b80634a5e42b1116100c85780634a5e42b1146101615780635cb9e26f14610187578063715018a6146101d25780638b2f0f4f146101da576100ea565b806329a42d56146100ef5780634219dc4014610131578063473597a014610139575b600080fd5b6101156004803603602081101561010557600080fd5b50356001600160a01b03166102cb565b604080516001600160a01b039092168252519081900360200190f35b6101156102e9565b61015f6004803603602081101561014f57600080fd5b50356001600160a01b03166102fd565b005b61015f6004803603602081101561017757600080fd5b50356001600160a01b031661038f565b6101ad6004803603602081101561019d57600080fd5b50356001600160a01b0316610420565b6040805160ff90931683526001600160a01b0390911660208301528051918290030190f35b61015f610451565b610200600480360360208110156101f057600080fd5b50356001600160a01b0316610505565b60408051918252519081900360200190f35b610115610707565b61015f610716565b61015f6004803603606081101561023857600080fd5b506001600160a01b03813581169160ff60208201351691604090910135166107e6565b61015f6004803603602081101561027157600080fd5b50356001600160a01b031661088c565b610289610957565b604080519115158252519081900360200190f35b61015f610960565b61015f600480360360208110156102bb57600080fd5b50356001600160a01b0316610a2d565b6001600160a01b039081166000908152609960205260409020541690565b60975461010090046001600160a01b031681565b610305610b38565b6065546001600160a01b03908116911614610367576040805162461bcd60e51b815260206004820181905260248201527f4f776e61626c653a2063616c6c6572206973206e6f7420746865206f776e6572604482015290519081900360640190fd5b609780546001600160a01b0390921661010002610100600160a81b0319909216919091179055565b60975461010090046001600160a01b031633146103e7576040805162461bcd60e51b81526020600482015260116024820152706f6e6c7920706f6f6c20666163746f727960781b604482015290519081900360640190fd5b6001600160a01b0316600090815260996020908152604080832080546001600160a01b031916905560989091529020805460ff19169055565b6001600160a01b0390811660009081526098602090815260408083205460999092529091205460ff90911692911690565b610459610b38565b6065546001600160a01b039081169116146104bb576040805162461bcd60e51b815260206004820181905260248201527f4f776e61626c653a2063616c6c6572206973206e6f7420746865206f776e6572604482015290519081900360640190fd5b6065546040516000916001600160a01b0316907f8be0079c531659141344cd1fd0a4f28419497f9722a3daafe3b4186f6b6457e0908390a3606580546001600160a01b0319169055565b6001600160a01b0380821660009081526099602090815260408083205460989092528220549192169060ff168161056d5760405162461bcd60e51b8152600401808060200182810382526023815260200180610e706023913960400191505060405180910390fd5b600060ff8216158015610583575060975460ff16155b156106c057826001600160a01b031663feaf968c6040518163ffffffff1660e01b815260040160a06040518083038186803b1580156105c157600080fd5b505afa92505050801561060357506040513d60a08110156105e157600080fd5b5080516020820151604083015160608401516080909401519293919290919060015b610654576040805162461bcd60e51b815260206004820152601f60248201527f5072696365436f6e73756d65723a20707269636520676574206661696c656400604482015290519081900360640190fd5b426106628362015f90610b3c565b101561069f5760405162461bcd60e51b8152600401808060200182810382526026815260200180610e936026913960400191505060405180910390fd5b60008413156106ba576106b7846402540be400610b9f565b95505b50505050505b600081116106ff5760405162461bcd60e51b8152600401808060200182810382526022815260200180610eb96022913960400191505060405180910390fd5b949350505050565b6065546001600160a01b031690565b609760019054906101000a90046001600160a01b03166001600160a01b0316631d68702d6040518163ffffffff1660e01b815260040160206040518083038186803b15801561076457600080fd5b505afa158015610778573d6000803e3d6000fd5b505050506040513d602081101561078e57600080fd5b50516001600160a01b031633146107d7576040805162461bcd60e51b81526020600482015260086024820152676f6e6c792064616f60c01b604482015290519081900360640190fd5b6097805460ff19166001179055565b60975461010090046001600160a01b0316331461083e576040805162461bcd60e51b81526020600482015260116024820152706f6e6c7920706f6f6c20666163746f727960781b604482015290519081900360640190fd5b6001600160a01b03928316600090815260996020908152604080832080546001600160a01b03191694909616939093179094556098909352909120805460ff191660ff909216919091179055565b600054610100900460ff16806108a557506108a5610bf8565b806108b3575060005460ff16155b6108ee5760405162461bcd60e51b815260040180806020018281038252602e815260200180610efc602e913960400191505060405180910390fd5b600054610100900460ff16158015610919576000805460ff1961ff0019909116610100171660011790555b610921610bfe565b60978054610100600160a81b0319166101006001600160a01b038516021790558015610953576000805461ff00191690555b5050565b60975460ff1681565b609760019054906101000a90046001600160a01b03166001600160a01b0316631d68702d6040518163ffffffff1660e01b815260040160206040518083038186803b1580156109ae57600080fd5b505afa1580156109c2573d6000803e3d6000fd5b505050506040513d60208110156109d857600080fd5b50516001600160a01b03163314610a21576040805162461bcd60e51b81526020600482015260086024820152676f6e6c792064616f60c01b604482015290519081900360640190fd5b6097805460ff19169055565b610a35610b38565b6065546001600160a01b03908116911614610a97576040805162461bcd60e51b815260206004820181905260248201527f4f776e61626c653a2063616c6c6572206973206e6f7420746865206f776e6572604482015290519081900360640190fd5b6001600160a01b038116610adc5760405162461bcd60e51b8152600401808060200182810382526026815260200180610e4a6026913960400191505060405180910390fd5b6065546040516001600160a01b038084169216907f8be0079c531659141344cd1fd0a4f28419497f9722a3daafe3b4186f6b6457e090600090a3606580546001600160a01b0319166001600160a01b0392909216919091179055565b3390565b600082820183811015610b96576040805162461bcd60e51b815260206004820152601b60248201527f536166654d6174683a206164646974696f6e206f766572666c6f770000000000604482015290519081900360640190fd5b90505b92915050565b600082610bae57506000610b99565b82820282848281610bbb57fe5b0414610b965760405162461bcd60e51b8152600401808060200182810382526021815260200180610edb6021913960400191505060405180910390fd5b303b1590565b600054610100900460ff1680610c175750610c17610bf8565b80610c25575060005460ff16155b610c605760405162461bcd60e51b815260040180806020018281038252602e815260200180610efc602e913960400191505060405180910390fd5b600054610100900460ff16158015610c8b576000805460ff1961ff0019909116610100171660011790555b610c93610cb0565b610c9b610d50565b8015610cad576000805461ff00191690555b50565b600054610100900460ff1680610cc95750610cc9610bf8565b80610cd7575060005460ff16155b610d125760405162461bcd60e51b815260040180806020018281038252602e815260200180610efc602e913960400191505060405180910390fd5b600054610100900460ff16158015610c9b576000805460ff1961ff0019909116610100171660011790558015610cad576000805461ff001916905550565b600054610100900460ff1680610d695750610d69610bf8565b80610d77575060005460ff16155b610db25760405162461bcd60e51b815260040180806020018281038252602e815260200180610efc602e913960400191505060405180910390fd5b600054610100900460ff16158015610ddd576000805460ff1961ff0019909116610100171660011790555b6000610de7610b38565b606580546001600160a01b0319166001600160a01b038316908117909155604051919250906000907f8be0079c531659141344cd1fd0a4f28419497f9722a3daafe3b4186f6b6457e0908290a3508015610cad576000805461ff00191690555056fe4f776e61626c653a206e6577206f776e657220697320746865207a65726f20616464726573735072696365436f6e73756d65723a2061676772656761746f72206e6f7420666f756e645072696365436f6e73756d65723a20636861696e6c696e6b20707269636520657870697265645072696365436f6e73756d65723a207072696365206e6f7420617661696c61626c65536166654d6174683a206d756c7469706c69636174696f6e206f766572666c6f77436f6e747261637420696e7374616e63652068617320616c7265616479206265656e20696e697469616c697a6564a2646970667358221220e9f775d464a3f83fb4c398215cc71ed7f07be274ab009afac118d84834b0ddc364736f6c634300060c0033",
  "linkReferences": {},
  "deployedLinkReferences": {}
}