{
  "_format": "hh-sol-artifact-1",
  "contractName": "PriceConsumer-ovm",
  "sourceName": "contracts/priceFeeds/PriceConsumer.sol",
  "abi": [
    {
      "anonymous": false,
      "inputs": [
        {
          "indexed": false,
          "internalType": "address",
          "name": "asset",
          "type": "address"
        },
        {
          "indexed": false,
          "internalType": "uint8",
          "name": "assetType",
          "type": "uint8"
        },
        {
          "indexed": false,
          "internalType": "address",
          "name": "aggregator",
          "type": "address"
        }
      ],
      "name": "AddedAsset",
      "type": "event"
    },
    {
      "anonymous": false,
      "inputs": [
        {
          "indexed": true,
          "internalType": "address",
          "name": "previousOwner",
          "type": "address"
        },
        {
          "indexed": true,
          "internalType": "address",
          "name": "newOwner",
          "type": "address"
        }
      ],
      "name": "OwnershipTransferred",
      "type": "event"
    },
    {
      "anonymous": false,
      "inputs": [
        {
          "indexed": false,
          "internalType": "address",
          "name": "asset",
          "type": "address"
        }
      ],
      "name": "RemovedAsset",
      "type": "event"
    },
    {
      "inputs": [
        {
          "internalType": "address",
          "name": "asset",
          "type": "address"
        },
        {
          "internalType": "uint8",
          "name": "assetType",
          "type": "uint8"
        },
        {
          "internalType": "address",
          "name": "aggregator",
          "type": "address"
        }
      ],
      "name": "addAsset",
      "outputs": [],
      "stateMutability": "nonpayable",
      "type": "function"
    },
    {
      "inputs": [
        {
          "components": [
            {
              "internalType": "address",
              "name": "asset",
              "type": "address"
            },
            {
              "internalType": "uint8",
              "name": "assetType",
              "type": "uint8"
            },
            {
              "internalType": "address",
              "name": "aggregator",
              "type": "address"
            }
          ],
          "internalType": "struct IPriceConsumer.Asset[]",
          "name": "assets",
          "type": "tuple[]"
        }
      ],
      "name": "addAssets",
      "outputs": [],
      "stateMutability": "nonpayable",
      "type": "function"
    },
    {
      "inputs": [],
      "name": "disableChainlink",
      "outputs": [],
      "stateMutability": "nonpayable",
      "type": "function"
    },
    {
      "inputs": [],
      "name": "enableChainlink",
      "outputs": [],
      "stateMutability": "nonpayable",
      "type": "function"
    },
    {
      "inputs": [
        {
          "internalType": "address",
          "name": "asset",
          "type": "address"
        }
      ],
      "name": "getAggregator",
      "outputs": [
        {
          "internalType": "address",
          "name": "",
          "type": "address"
        }
      ],
      "stateMutability": "view",
      "type": "function"
    },
    {
      "inputs": [
        {
          "internalType": "address",
          "name": "asset",
          "type": "address"
        }
      ],
      "name": "getAssetType",
      "outputs": [
        {
          "internalType": "uint8",
          "name": "",
          "type": "uint8"
        }
      ],
      "stateMutability": "view",
      "type": "function"
    },
    {
      "inputs": [
        {
          "internalType": "address",
          "name": "asset",
          "type": "address"
        }
      ],
      "name": "getAssetTypeAndAggregator",
      "outputs": [
        {
          "internalType": "uint8",
          "name": "",
          "type": "uint8"
        },
        {
          "internalType": "address",
          "name": "",
          "type": "address"
        }
      ],
      "stateMutability": "view",
      "type": "function"
    },
    {
      "inputs": [
        {
          "internalType": "address",
          "name": "asset",
          "type": "address"
        }
      ],
      "name": "getUSDPrice",
      "outputs": [
        {
          "internalType": "uint256",
          "name": "",
          "type": "uint256"
        }
      ],
      "stateMutability": "view",
      "type": "function"
    },
    {
      "inputs": [
        {
          "internalType": "address",
          "name": "_poolFactory",
          "type": "address"
        },
        {
          "components": [
            {
              "internalType": "address",
              "name": "asset",
              "type": "address"
            },
            {
              "internalType": "uint8",
              "name": "assetType",
              "type": "uint8"
            },
            {
              "internalType": "address",
              "name": "aggregator",
              "type": "address"
            }
          ],
          "internalType": "struct IPriceConsumer.Asset[]",
          "name": "assets",
          "type": "tuple[]"
        }
      ],
      "name": "initialize",
      "outputs": [],
      "stateMutability": "nonpayable",
      "type": "function"
    },
    {
      "inputs": [],
      "name": "isDisabledChainlink",
      "outputs": [
        {
          "internalType": "bool",
          "name": "",
          "type": "bool"
        }
      ],
      "stateMutability": "view",
      "type": "function"
    },
    {
      "inputs": [],
      "name": "owner",
      "outputs": [
        {
          "internalType": "address",
          "name": "",
          "type": "address"
        }
      ],
      "stateMutability": "view",
      "type": "function"
    },
    {
      "inputs": [],
      "name": "poolFactory",
      "outputs": [
        {
          "internalType": "address",
          "name": "",
          "type": "address"
        }
      ],
      "stateMutability": "view",
      "type": "function"
    },
    {
      "inputs": [
        {
          "internalType": "address",
          "name": "asset",
          "type": "address"
        }
      ],
      "name": "removeAsset",
      "outputs": [],
      "stateMutability": "nonpayable",
      "type": "function"
    },
    {
      "inputs": [],
      "name": "renounceOwnership",
      "outputs": [],
      "stateMutability": "nonpayable",
      "type": "function"
    },
    {
      "inputs": [
        {
          "internalType": "address",
          "name": "_poolFactory",
          "type": "address"
        }
      ],
      "name": "setPoolFactory",
      "outputs": [],
      "stateMutability": "nonpayable",
      "type": "function"
    },
    {
      "inputs": [
        {
          "internalType": "address",
          "name": "newOwner",
          "type": "address"
        }
      ],
      "name": "transferOwnership",
      "outputs": [],
      "stateMutability": "nonpayable",
      "type": "function"
    }
  ],
  "bytecode": "0x60806040523480156100195760008061001661001f565b50505b5061008a565b632a2a7adb598160e01b8152600481016020815285602082015260005b8681101561005757808601518282016040015260200161003c565b506020828760640184336000905af158600e01573d6000803e3d6000fd5b3d6001141558600a015760016000f35b505050565b611af1806100996000396000f3fe608060405234801561001957600080610016611238565b50505b50600436106101095760003560e01c80638b2f0f4f116100a0578063cf45ba1b1161006f578063cf45ba1b1461020f578063d54e96d214610224578063eee681201461022c578063f2fde38b1461023f57610109565b80638b2f0f4f146101cc5780638da5cb5b146101ec578063b2806001146101f4578063b91ba548146101fc57610109565b80634a5e42b1116100dc5780634a5e42b11461017d57806368efa62614610190578063715018a6146101b1578063752d4bcb146101b957610109565b8063032c49ed1461011757806329a42d56146101405780634219dc4014610160578063473597a014610168575b600080610114611238565b50505b61012a610125366004611670565b610252565b6040516101379190611a78565b60405180910390f35b61015361014e366004611670565b610286565b60405161013791906117e7565b6101536102c0565b61017b610176366004611670565b6102df565b005b61017b61018b366004611670565b61037b565b6101a361019e366004611670565b61049e565b604051610137929190611a86565b61017b610515565b61017b6101c7366004611748565b610602565b6101df6101da366004611670565b6106d8565b6040516101379190611a6f565b6101536108f6565b61017b610918565b61017b61020a3660046116fa565b6109a0565b610217610acd565b6040516101379190611821565b61017b610ae6565b61017b61023a36600461169b565b610b5a565b61017b61024d366004611670565b610cb3565b6001600160a01b03811660009081526098602052604081206000906102756112a3565b906101000a900460ff169050919050565b6001600160a01b03811660009081526099602052604081206000906102a96112a3565b906101000a90046001600160a01b03169050919050565b600160976102cc6112a3565b906101000a90046001600160a01b031681565b6102e7610db9565b6001600160a01b0316600060656102fc6112a3565b906101000a90046001600160a01b03166001600160a01b0316146103445760405162461bcd60e51b8152600401610332906119ec565b60405180910390610341611238565b50505b806097610100816103536112a3565b816001600160a01b0302191690836001600160a01b03160217906103756112fe565b50505050565b610383610db9565b6001600160a01b0316600060656103986112a3565b906101000a90046001600160a01b03166001600160a01b0316146103e05760405162461bcd60e51b81526004016103ce906119ec565b604051809103906103dd611238565b50505b6001600160a01b03811660009081526098602052604081206001816104036112a3565b8160ff021916908360ff160217906104196112fe565b5050506001600160a01b038116600090815260996020526040812060018161043f6112a3565b816001600160a01b0302191690836001600160a01b03160217906104616112fe565b5050507fb5c3bd787b070cfb84ba6afb620405d01603f2dff7019495776c0fa8be3c90958160405161049391906117e7565b60405180910390a150565b6001600160a01b0381166000908152609860205280604081206000906104c26112a3565b906101000a900460ff1660996000856001600160a01b03166001600160a01b031681526020019081526020016000206000906104fc6112a3565b906101000a90046001600160a01b031691509150915091565b61051d610db9565b6001600160a01b0316600060656105326112a3565b906101000a90046001600160a01b03166001600160a01b03161461057a5760405162461bcd60e51b8152600401610568906119ec565b60405180910390610577611238565b50505b60008060656105876112a3565b906101000a90046001600160a01b03166001600160a01b03167f8be0079c531659141344cd1fd0a4f28419497f9722a3daafe3b4186f6b6457e060405160405180910390a3600060656001816105db6112a3565b816001600160a01b0302191690836001600160a01b03160217906105fd6112fe565b505050565b61060a610db9565b6001600160a01b03166000606561061f6112a3565b906101000a90046001600160a01b03166001600160a01b0316146106675760405162461bcd60e51b8152600401610655906119ec565b60405180910390610664611238565b50505b60005b81518160ff1610156106d4576106cc828260ff168151811061068857fe5b602002602001015151838360ff16815181106106a057fe5b602002602001015160200151848460ff16815181106106bb57fe5b6020026020010151604001516109a0565b60010161066a565b5050565b6001600160a01b0381166000908152609960205280604081206000906106fc6112a3565b6001600160a01b03858116600090815260986020526101009390930a9091041691506040812060009061072d6112a3565b60ff6101009290920a90041690506001600160a01b0382166107735760405162461bcd60e51b8152600401610761906118a9565b60405180910390610770611238565b50505b600060ff821615801561079957506000609761078d6112a3565b906101000a900460ff16155b156108bc57826001600160a01b031663feaf968c6040518163ffffffff1660e01b815260040160a06040518083038186806107d261134c565b1580156107e7576000806107e4611238565b50505b505a6107f1611398565b50505050509250505080156108235750604051601f3d908101601f19168201604052610820919081019061178d565b60015b6108555760405162461bcd60e51b815260040161083f90611932565b6040518091039061084e611238565b50506108bc565b5a61085e611483565b61086b8362015f90610dc9565b101561089b5760405162461bcd60e51b8152600401610889906118ec565b60405180910390610898611238565b50505b60008413156108b6576108b3846402540be400610e09565b95505b50505050505b600081116108ee5760405162461bcd60e51b81526004016108dc90611969565b604051809103906108eb611238565b50505b949350505050565b60008060656109036112a3565b906101000a90046001600160a01b0316905090565b610920610db9565b6001600160a01b0316600060656109356112a3565b906101000a90046001600160a01b03166001600160a01b03161461097d5760405162461bcd60e51b815260040161096b906119ec565b6040518091039061097a611238565b50505b60016097818161098b6112a3565b8160ff021916908315150217906105fd6112fe565b6109a8610db9565b6001600160a01b0316600060656109bd6112a3565b906101000a90046001600160a01b03166001600160a01b031614610a055760405162461bcd60e51b81526004016109f3906119ec565b60405180910390610a02611238565b50505b6001600160a01b03831660009081526098602052829060409020600181610a2a6112a3565b8160ff021916908360ff16021790610a406112fe565b5050506001600160a01b03831660009081526099602052819060409020600181610a686112a3565b816001600160a01b0302191690836001600160a01b0316021790610a8a6112fe565b5050507fc5c8c14f537465c45219816a52dc841f2c2d567961cc2929e3be355a419fa371838383604051610ac0939291906117fb565b60405180910390a1505050565b60006097610ad96112a3565b906101000a900460ff1681565b610aee610db9565b6001600160a01b031660006065610b036112a3565b906101000a90046001600160a01b03166001600160a01b031614610b4b5760405162461bcd60e51b8152600401610b39906119ec565b60405180910390610b48611238565b50505b6000609760018161098b6112a3565b60016000610b666112a3565b906101000a900460ff1680610b7e5750610b7e610e43565b80610b9b5750600080610b8f6112a3565b906101000a900460ff16155b610bc95760405162461bcd60e51b8152600401610bb790611a21565b60405180910390610bc6611238565b50505b6000600181610bd66112a3565b906101000a900460ff161590508015610c3c576001600061010081610bf96112a3565b8160ff02191690831515021790610c0e6112fe565b50505060016000806101000a81610c236112a3565b8160ff02191690831515021790610c386112fe565b5050505b610c44610eb4565b82609761010081610c536112a3565b816001600160a01b0302191690836001600160a01b0316021790610c756112fe565b505050610c8182610602565b80156105fd5760008061010081610c966112a3565b8160ff02191690831515021790610cab6112fe565b505050505050565b610cbb610db9565b6001600160a01b031660006065610cd06112a3565b906101000a90046001600160a01b03166001600160a01b031614610d185760405162461bcd60e51b8152600401610d06906119ec565b60405180910390610d15611238565b50505b6001600160a01b038116610d505760405162461bcd60e51b8152600401610d3e9061182c565b60405180910390610d4d611238565b50505b6001600160a01b03811660006065610d666112a3565b906101000a90046001600160a01b03166001600160a01b03167f8be0079c531659141344cd1fd0a4f28419497f9722a3daafe3b4186f6b6457e060405160405180910390a38060656001816103536112a3565b60005a610dc46114c9565b905090565b600082820183811015610e005760405162461bcd60e51b8152600401610dee90611872565b60405180910390610dfd611238565b50505b90505b92915050565b600082610e1857506000610e03565b82820282848281610e2557fe5b0414610e005760405162461bcd60e51b8152600401610dee906119ab565b6000805a63996d79a5598160e01b8152602081600483336000905af158600e01573d6000803e3d6000fd5b3d6001141558600a015760016000f35b8051925060005b6040811015610e9c57600082820152602001610e85565b5050509050600081610eac61134c565b159250505090565b60016000610ec06112a3565b906101000a900460ff1680610ed85750610ed8610e43565b80610ef55750600080610ee96112a3565b906101000a900460ff16155b610f235760405162461bcd60e51b8152600401610f1190611a21565b60405180910390610f20611238565b50505b6000600181610f306112a3565b906101000a900460ff161590508015610f96576001600061010081610f536112a3565b8160ff02191690831515021790610f686112fe565b50505060016000806101000a81610f7d6112a3565b8160ff02191690831515021790610f926112fe565b5050505b610f9e610fd3565b610fa66110c9565b8015610fd05760008061010081610fbb6112a3565b8160ff021916908315150217906103756112fe565b50565b60016000610fdf6112a3565b906101000a900460ff1680610ff75750610ff7610e43565b8061101457506000806110086112a3565b906101000a900460ff16155b6110425760405162461bcd60e51b815260040161103090611a21565b6040518091039061103f611238565b50505b600060018161104f6112a3565b906101000a900460ff161590508015610fa65760016000610100816110726112a3565b8160ff021916908315150217906110876112fe565b50505060016000806101000a8161109c6112a3565b8160ff021916908315150217906110b16112fe565b5050508015610fd05760008061010081610fbb6112a3565b600160006110d56112a3565b906101000a900460ff16806110ed57506110ed610e43565b8061110a57506000806110fe6112a3565b906101000a900460ff16155b6111385760405162461bcd60e51b815260040161112690611a21565b60405180910390611135611238565b50505b60006001816111456112a3565b906101000a900460ff1615905080156111ab5760016000610100816111686112a3565b8160ff0219169083151502179061117d6112fe565b50505060016000806101000a816111926112a3565b8160ff021916908315150217906111a76112fe565b5050505b60006111b5610db9565b90508060656001816111c56112a3565b816001600160a01b0302191690836001600160a01b03160217906111e76112fe565b5050506001600160a01b03811660007f8be0079c531659141344cd1fd0a4f28419497f9722a3daafe3b4186f6b6457e060405160405180910390a3508015610fd05760008061010081610fbb6112a3565b632a2a7adb598160e01b8152600481016020815285602082015260005b86811015611270578086015182820160400152602001611255565b506020828760640184336000905af158600e01573d6000803e3d6000fd5b3d6001141558600a015760016000f35b505050565b6303daa959598160e01b8152836004820152602081602483336000905af158600e01573d6000803e3d6000fd5b3d6001141558600a015760016000f35b8051935060005b60408110156105fd576000828201526020016112e7565b6322bd64c0598160e01b8152836004820152846024820152600081604483336000905af158600e01573d6000803e3d6000fd5b3d6001141558600a015760016000f35b6000815260206112e7565b638435035b598160e01b8152836004820152602081602483336000905af158600e01573d6000803e3d6000fd5b3d6001141558600a015760016000f35b805160008252935060206112e7565b638540661f598160e01b81526113c9565b8080831115610e03575090919050565b8080831015610e03575090919050565b836004820152846024820152606060448201528660648201526084810160005b888110156114015780880151828201526020016113e9565b506060828960a40184336000905af158600e01573d6000803e3d6000fd5b3d6001141558600a015760016000f35b815160408301513d6000853e8b8b82606087013350600060045af150596114568d3d6113b9565b8c0161146281876113a9565b5b828110156114775760008152602001611463565b50929c50505050505050565b63bdbf8c36598160e01b8152602081600483336000905af158600e01573d6000803e3d6000fd5b3d6001141558600a015760016000f35b805160008252935060206112e7565b6373509064598160e01b8152602081600483336000905af158600e01573d6000803e3d6000fd5b3d6001141558600a015760016000f35b805160008252935060206112e7565b80356001600160a01b0381168114610e035760008061152c611238565b505092915050565b600082601f83011261154d57808161154a611238565b50505b813567ffffffffffffffff81111561156c578182611569611238565b50505b602061157b8182840201611aa2565b82815292508083018482016060808502870184018810156115a4576000806115a1611238565b50505b60005b858110156115cb576115b989846115d7565b845292840192918101916001016115a7565b50505050505092915050565b6000606082840312156115f15780816115ee611238565b50505b6115fb6060611aa2565b9050813561160881611ad6565b81526116178360208401611635565b6020820152604082013561162a81611ad6565b604082015292915050565b803560ff81168114610e035760008061152c611238565b60008151905069ffffffffffffffffffff81168114610e035760008061152c611238565b60006020828403121561168a578081611687611238565b50505b611694838361150f565b9392505050565b600080604083850312156116b65780816116b3611238565b50505b6116c0848461150f565b9150602083013567ffffffffffffffff8111156116e45781826116e1611238565b50505b6116f085828601611534565b9150509250929050565b600080600060608486031215611717578081611714611238565b50505b611721858561150f565b92506117308560208601611635565b915061173f856040860161150f565b90509250925092565b60006020828403121561176257808161175f611238565b50505b813567ffffffffffffffff81111561178157818261177e611238565b50505b6108ee84828501611534565b600080600080600060a086880312156117ad5780816117aa611238565b50505b6117b7878761164c565b94506020860151935060408601519250606086015191506117db876080880161164c565b90509295509295909350565b6001600160a01b0391909116815260200190565b6001600160a01b03938416815260ff929092166020830152909116604082015260600190565b901515815260200190565b60208082526026908201527f4f776e61626c653a206e6577206f776e657220697320746865207a65726f206160408201526564647265737360d01b606082015260800190565b6020808252601b908201527f536166654d6174683a206164646974696f6e206f766572666c6f770000000000604082015260600190565b60208082526023908201527f5072696365436f6e73756d65723a2061676772656761746f72206e6f7420666f6040820152621d5b9960ea1b606082015260800190565b60208082526026908201527f5072696365436f6e73756d65723a20636861696e6c696e6b20707269636520656040820152651e1c1a5c995960d21b606082015260800190565b6020808252601f908201527f5072696365436f6e73756d65723a20707269636520676574206661696c656400604082015260600190565b60208082526022908201527f5072696365436f6e73756d65723a207072696365206e6f7420617661696c61626040820152616c6560f01b606082015260800190565b60208082526021908201527f536166654d6174683a206d756c7469706c69636174696f6e206f766572666c6f6040820152607760f81b606082015260800190565b6020808252818101527f4f776e61626c653a2063616c6c6572206973206e6f7420746865206f776e6572604082015260600190565b6020808252602e908201527f436f6e747261637420696e7374616e63652068617320616c726561647920626560408201526d195b881a5b9a5d1a585b1a5e995960921b606082015260800190565b90815260200190565b60ff91909116815260200190565b60ff9290921682526001600160a01b0316602082015260400190565b6000604051905081810181811067ffffffffffffffff82111715611ace57600080611acb611238565b50505b604052919050565b6001600160a01b0381168114610fd0576000806105fd61123856",
  "deployedBytecode": "0x608060405234801561001957600080610016611238565b50505b50600436106101095760003560e01c80638b2f0f4f116100a0578063cf45ba1b1161006f578063cf45ba1b1461020f578063d54e96d214610224578063eee681201461022c578063f2fde38b1461023f57610109565b80638b2f0f4f146101cc5780638da5cb5b146101ec578063b2806001146101f4578063b91ba548146101fc57610109565b80634a5e42b1116100dc5780634a5e42b11461017d57806368efa62614610190578063715018a6146101b1578063752d4bcb146101b957610109565b8063032c49ed1461011757806329a42d56146101405780634219dc4014610160578063473597a014610168575b600080610114611238565b50505b61012a610125366004611670565b610252565b6040516101379190611a78565b60405180910390f35b61015361014e366004611670565b610286565b60405161013791906117e7565b6101536102c0565b61017b610176366004611670565b6102df565b005b61017b61018b366004611670565b61037b565b6101a361019e366004611670565b61049e565b604051610137929190611a86565b61017b610515565b61017b6101c7366004611748565b610602565b6101df6101da366004611670565b6106d8565b6040516101379190611a6f565b6101536108f6565b61017b610918565b61017b61020a3660046116fa565b6109a0565b610217610acd565b6040516101379190611821565b61017b610ae6565b61017b61023a36600461169b565b610b5a565b61017b61024d366004611670565b610cb3565b6001600160a01b03811660009081526098602052604081206000906102756112a3565b906101000a900460ff169050919050565b6001600160a01b03811660009081526099602052604081206000906102a96112a3565b906101000a90046001600160a01b03169050919050565b600160976102cc6112a3565b906101000a90046001600160a01b031681565b6102e7610db9565b6001600160a01b0316600060656102fc6112a3565b906101000a90046001600160a01b03166001600160a01b0316146103445760405162461bcd60e51b8152600401610332906119ec565b60405180910390610341611238565b50505b806097610100816103536112a3565b816001600160a01b0302191690836001600160a01b03160217906103756112fe565b50505050565b610383610db9565b6001600160a01b0316600060656103986112a3565b906101000a90046001600160a01b03166001600160a01b0316146103e05760405162461bcd60e51b81526004016103ce906119ec565b604051809103906103dd611238565b50505b6001600160a01b03811660009081526098602052604081206001816104036112a3565b8160ff021916908360ff160217906104196112fe565b5050506001600160a01b038116600090815260996020526040812060018161043f6112a3565b816001600160a01b0302191690836001600160a01b03160217906104616112fe565b5050507fb5c3bd787b070cfb84ba6afb620405d01603f2dff7019495776c0fa8be3c90958160405161049391906117e7565b60405180910390a150565b6001600160a01b0381166000908152609860205280604081206000906104c26112a3565b906101000a900460ff1660996000856001600160a01b03166001600160a01b031681526020019081526020016000206000906104fc6112a3565b906101000a90046001600160a01b031691509150915091565b61051d610db9565b6001600160a01b0316600060656105326112a3565b906101000a90046001600160a01b03166001600160a01b03161461057a5760405162461bcd60e51b8152600401610568906119ec565b60405180910390610577611238565b50505b60008060656105876112a3565b906101000a90046001600160a01b03166001600160a01b03167f8be0079c531659141344cd1fd0a4f28419497f9722a3daafe3b4186f6b6457e060405160405180910390a3600060656001816105db6112a3565b816001600160a01b0302191690836001600160a01b03160217906105fd6112fe565b505050565b61060a610db9565b6001600160a01b03166000606561061f6112a3565b906101000a90046001600160a01b03166001600160a01b0316146106675760405162461bcd60e51b8152600401610655906119ec565b60405180910390610664611238565b50505b60005b81518160ff1610156106d4576106cc828260ff168151811061068857fe5b602002602001015151838360ff16815181106106a057fe5b602002602001015160200151848460ff16815181106106bb57fe5b6020026020010151604001516109a0565b60010161066a565b5050565b6001600160a01b0381166000908152609960205280604081206000906106fc6112a3565b6001600160a01b03858116600090815260986020526101009390930a9091041691506040812060009061072d6112a3565b60ff6101009290920a90041690506001600160a01b0382166107735760405162461bcd60e51b8152600401610761906118a9565b60405180910390610770611238565b50505b600060ff821615801561079957506000609761078d6112a3565b906101000a900460ff16155b156108bc57826001600160a01b031663feaf968c6040518163ffffffff1660e01b815260040160a06040518083038186806107d261134c565b1580156107e7576000806107e4611238565b50505b505a6107f1611398565b50505050509250505080156108235750604051601f3d908101601f19168201604052610820919081019061178d565b60015b6108555760405162461bcd60e51b815260040161083f90611932565b6040518091039061084e611238565b50506108bc565b5a61085e611483565b61086b8362015f90610dc9565b101561089b5760405162461bcd60e51b8152600401610889906118ec565b60405180910390610898611238565b50505b60008413156108b6576108b3846402540be400610e09565b95505b50505050505b600081116108ee5760405162461bcd60e51b81526004016108dc90611969565b604051809103906108eb611238565b50505b949350505050565b60008060656109036112a3565b906101000a90046001600160a01b0316905090565b610920610db9565b6001600160a01b0316600060656109356112a3565b906101000a90046001600160a01b03166001600160a01b03161461097d5760405162461bcd60e51b815260040161096b906119ec565b6040518091039061097a611238565b50505b60016097818161098b6112a3565b8160ff021916908315150217906105fd6112fe565b6109a8610db9565b6001600160a01b0316600060656109bd6112a3565b906101000a90046001600160a01b03166001600160a01b031614610a055760405162461bcd60e51b81526004016109f3906119ec565b60405180910390610a02611238565b50505b6001600160a01b03831660009081526098602052829060409020600181610a2a6112a3565b8160ff021916908360ff16021790610a406112fe565b5050506001600160a01b03831660009081526099602052819060409020600181610a686112a3565b816001600160a01b0302191690836001600160a01b0316021790610a8a6112fe565b5050507fc5c8c14f537465c45219816a52dc841f2c2d567961cc2929e3be355a419fa371838383604051610ac0939291906117fb565b60405180910390a1505050565b60006097610ad96112a3565b906101000a900460ff1681565b610aee610db9565b6001600160a01b031660006065610b036112a3565b906101000a90046001600160a01b03166001600160a01b031614610b4b5760405162461bcd60e51b8152600401610b39906119ec565b60405180910390610b48611238565b50505b6000609760018161098b6112a3565b60016000610b666112a3565b906101000a900460ff1680610b7e5750610b7e610e43565b80610b9b5750600080610b8f6112a3565b906101000a900460ff16155b610bc95760405162461bcd60e51b8152600401610bb790611a21565b60405180910390610bc6611238565b50505b6000600181610bd66112a3565b906101000a900460ff161590508015610c3c576001600061010081610bf96112a3565b8160ff02191690831515021790610c0e6112fe565b50505060016000806101000a81610c236112a3565b8160ff02191690831515021790610c386112fe565b5050505b610c44610eb4565b82609761010081610c536112a3565b816001600160a01b0302191690836001600160a01b0316021790610c756112fe565b505050610c8182610602565b80156105fd5760008061010081610c966112a3565b8160ff02191690831515021790610cab6112fe565b505050505050565b610cbb610db9565b6001600160a01b031660006065610cd06112a3565b906101000a90046001600160a01b03166001600160a01b031614610d185760405162461bcd60e51b8152600401610d06906119ec565b60405180910390610d15611238565b50505b6001600160a01b038116610d505760405162461bcd60e51b8152600401610d3e9061182c565b60405180910390610d4d611238565b50505b6001600160a01b03811660006065610d666112a3565b906101000a90046001600160a01b03166001600160a01b03167f8be0079c531659141344cd1fd0a4f28419497f9722a3daafe3b4186f6b6457e060405160405180910390a38060656001816103536112a3565b60005a610dc46114c9565b905090565b600082820183811015610e005760405162461bcd60e51b8152600401610dee90611872565b60405180910390610dfd611238565b50505b90505b92915050565b600082610e1857506000610e03565b82820282848281610e2557fe5b0414610e005760405162461bcd60e51b8152600401610dee906119ab565b6000805a63996d79a5598160e01b8152602081600483336000905af158601d01573d60011458600c01573d6000803e3d621234565260ea61109c528051925060005b6040811015610e9c57600082820152602001610e85565b5050509050600081610eac61134c565b159250505090565b60016000610ec06112a3565b906101000a900460ff1680610ed85750610ed8610e43565b80610ef55750600080610ee96112a3565b906101000a900460ff16155b610f235760405162461bcd60e51b8152600401610f1190611a21565b60405180910390610f20611238565b50505b6000600181610f306112a3565b906101000a900460ff161590508015610f96576001600061010081610f536112a3565b8160ff02191690831515021790610f686112fe565b50505060016000806101000a81610f7d6112a3565b8160ff02191690831515021790610f926112fe565b5050505b610f9e610fd3565b610fa66110c9565b8015610fd05760008061010081610fbb6112a3565b8160ff021916908315150217906103756112fe565b50565b60016000610fdf6112a3565b906101000a900460ff1680610ff75750610ff7610e43565b8061101457506000806110086112a3565b906101000a900460ff16155b6110425760405162461bcd60e51b815260040161103090611a21565b6040518091039061103f611238565b50505b600060018161104f6112a3565b906101000a900460ff161590508015610fa65760016000610100816110726112a3565b8160ff021916908315150217906110876112fe565b50505060016000806101000a8161109c6112a3565b8160ff021916908315150217906110b16112fe565b5050508015610fd05760008061010081610fbb6112a3565b600160006110d56112a3565b906101000a900460ff16806110ed57506110ed610e43565b8061110a57506000806110fe6112a3565b906101000a900460ff16155b6111385760405162461bcd60e51b815260040161112690611a21565b60405180910390611135611238565b50505b60006001816111456112a3565b906101000a900460ff1615905080156111ab5760016000610100816111686112a3565b8160ff0219169083151502179061117d6112fe565b50505060016000806101000a816111926112a3565b8160ff021916908315150217906111a76112fe565b5050505b60006111b5610db9565b90508060656001816111c56112a3565b816001600160a01b0302191690836001600160a01b03160217906111e76112fe565b5050506001600160a01b03811660007f8be0079c531659141344cd1fd0a4f28419497f9722a3daafe3b4186f6b6457e060405160405180910390a3508015610fd05760008061010081610fbb6112a3565b632a2a7adb598160e01b8152600481016020815285602082015260005b86811015611270578086015182820160400152602001611255565b506020828760640184336000905af158601d01573d60011458600c01573d6000803e3d621234565260ea61109c52505050565b6303daa959598160e01b8152836004820152602081602483336000905af158601d01573d60011458600c01573d6000803e3d621234565260ea61109c528051935060005b60408110156105fd576000828201526020016112e7565b6322bd64c0598160e01b8152836004820152846024820152600081604483336000905af158601d01573d60011458600c01573d6000803e3d621234565260ea61109c526000815260206112e7565b638435035b598160e01b8152836004820152602081602483336000905af158601d01573d60011458600c01573d6000803e3d621234565260ea61109c52805160008252935060206112e7565b638540661f598160e01b81526113c9565b8080831115610e03575090919050565b8080831015610e03575090919050565b836004820152846024820152606060448201528660648201526084810160005b888110156114015780880151828201526020016113e9565b506060828960a40184336000905af158601d01573d60011458600c01573d6000803e3d621234565260ea61109c52815160408301513d6000853e8b8b82606087013350600060045af150596114568d3d6113b9565b8c0161146281876113a9565b5b828110156114775760008152602001611463565b50929c50505050505050565b63bdbf8c36598160e01b8152602081600483336000905af158601d01573d60011458600c01573d6000803e3d621234565260ea61109c52805160008252935060206112e7565b6373509064598160e01b8152602081600483336000905af158601d01573d60011458600c01573d6000803e3d621234565260ea61109c52805160008252935060206112e7565b80356001600160a01b0381168114610e035760008061152c611238565b505092915050565b600082601f83011261154d57808161154a611238565b50505b813567ffffffffffffffff81111561156c578182611569611238565b50505b602061157b8182840201611aa2565b82815292508083018482016060808502870184018810156115a4576000806115a1611238565b50505b60005b858110156115cb576115b989846115d7565b845292840192918101916001016115a7565b50505050505092915050565b6000606082840312156115f15780816115ee611238565b50505b6115fb6060611aa2565b9050813561160881611ad6565b81526116178360208401611635565b6020820152604082013561162a81611ad6565b604082015292915050565b803560ff81168114610e035760008061152c611238565b60008151905069ffffffffffffffffffff81168114610e035760008061152c611238565b60006020828403121561168a578081611687611238565b50505b611694838361150f565b9392505050565b600080604083850312156116b65780816116b3611238565b50505b6116c0848461150f565b9150602083013567ffffffffffffffff8111156116e45781826116e1611238565b50505b6116f085828601611534565b9150509250929050565b600080600060608486031215611717578081611714611238565b50505b611721858561150f565b92506117308560208601611635565b915061173f856040860161150f565b90509250925092565b60006020828403121561176257808161175f611238565b50505b813567ffffffffffffffff81111561178157818261177e611238565b50505b6108ee84828501611534565b600080600080600060a086880312156117ad5780816117aa611238565b50505b6117b7878761164c565b94506020860151935060408601519250606086015191506117db876080880161164c565b90509295509295909350565b6001600160a01b0391909116815260200190565b6001600160a01b03938416815260ff929092166020830152909116604082015260600190565b901515815260200190565b60208082526026908201527f4f776e61626c653a206e6577206f776e657220697320746865207a65726f206160408201526564647265737360d01b606082015260800190565b6020808252601b908201527f536166654d6174683a206164646974696f6e206f766572666c6f770000000000604082015260600190565b60208082526023908201527f5072696365436f6e73756d65723a2061676772656761746f72206e6f7420666f6040820152621d5b9960ea1b606082015260800190565b60208082526026908201527f5072696365436f6e73756d65723a20636861696e6c696e6b20707269636520656040820152651e1c1a5c995960d21b606082015260800190565b6020808252601f908201527f5072696365436f6e73756d65723a20707269636520676574206661696c656400604082015260600190565b60208082526022908201527f5072696365436f6e73756d65723a207072696365206e6f7420617661696c61626040820152616c6560f01b606082015260800190565b60208082526021908201527f536166654d6174683a206d756c7469706c69636174696f6e206f766572666c6f6040820152607760f81b606082015260800190565b6020808252818101527f4f776e61626c653a2063616c6c6572206973206e6f7420746865206f776e6572604082015260600190565b6020808252602e908201527f436f6e747261637420696e7374616e63652068617320616c726561647920626560408201526d195b881a5b9a5d1a585b1a5e995960921b606082015260800190565b90815260200190565b60ff91909116815260200190565b60ff9290921682526001600160a01b0316602082015260400190565b6000604051905081810181811067ffffffffffffffff82111715611ace57600080611acb611238565b50505b604052919050565b6001600160a01b0381168114610fd0576000806105fd61123856",
  "linkReferences": {},
  "deployedLinkReferences": {}
}