{
  "_format": "hh-sol-artifact-1",
  "contractName": "PriceConsumer",
  "sourceName": "contracts/priceFeeds/PriceConsumer.sol",
  "abi": [
    {
      "anonymous": false,
      "inputs": [
        {
          "indexed": true,
          "internalType": "address",
          "name": "previousOwner",
          "type": "address"
        },
        {
          "indexed": true,
          "internalType": "address",
          "name": "newOwner",
          "type": "address"
        }
      ],
      "name": "OwnershipTransferred",
      "type": "event"
    },
    {
      "inputs": [
        {
          "internalType": "address",
          "name": "asset",
          "type": "address"
        },
        {
          "internalType": "uint8",
          "name": "assetType",
          "type": "uint8"
        },
        {
          "internalType": "address",
          "name": "aggregator",
          "type": "address"
        }
      ],
      "name": "addAsset",
      "outputs": [],
      "stateMutability": "nonpayable",
      "type": "function"
    },
    {
      "inputs": [
        {
          "components": [
            {
              "internalType": "address",
              "name": "asset",
              "type": "address"
            },
            {
              "internalType": "uint8",
              "name": "assetType",
              "type": "uint8"
            },
            {
              "internalType": "address",
              "name": "aggregator",
              "type": "address"
            }
          ],
          "internalType": "struct IPriceConsumer.Asset[]",
          "name": "assets",
          "type": "tuple[]"
        }
      ],
      "name": "addAssets",
      "outputs": [],
      "stateMutability": "nonpayable",
      "type": "function"
    },
    {
      "inputs": [],
      "name": "disableChainlink",
      "outputs": [],
      "stateMutability": "nonpayable",
      "type": "function"
    },
    {
      "inputs": [],
      "name": "enableChainlink",
      "outputs": [],
      "stateMutability": "nonpayable",
      "type": "function"
    },
    {
      "inputs": [
        {
          "internalType": "address",
          "name": "asset",
          "type": "address"
        }
      ],
      "name": "getAggregator",
      "outputs": [
        {
          "internalType": "address",
          "name": "",
          "type": "address"
        }
      ],
      "stateMutability": "view",
      "type": "function"
    },
    {
      "inputs": [
        {
          "internalType": "address",
          "name": "asset",
          "type": "address"
        }
      ],
      "name": "getTypeAndAggregator",
      "outputs": [
        {
          "internalType": "uint8",
          "name": "",
          "type": "uint8"
        },
        {
          "internalType": "address",
          "name": "",
          "type": "address"
        }
      ],
      "stateMutability": "view",
      "type": "function"
    },
    {
      "inputs": [
        {
          "internalType": "address",
          "name": "asset",
          "type": "address"
        }
      ],
      "name": "getUSDPrice",
      "outputs": [
        {
          "internalType": "uint256",
          "name": "",
          "type": "uint256"
        }
      ],
      "stateMutability": "view",
      "type": "function"
    },
    {
      "inputs": [
        {
          "internalType": "address",
          "name": "_poolFactory",
          "type": "address"
        },
        {
          "components": [
            {
              "internalType": "address",
              "name": "asset",
              "type": "address"
            },
            {
              "internalType": "uint8",
              "name": "assetType",
              "type": "uint8"
            },
            {
              "internalType": "address",
              "name": "aggregator",
              "type": "address"
            }
          ],
          "internalType": "struct IPriceConsumer.Asset[]",
          "name": "assets",
          "type": "tuple[]"
        }
      ],
      "name": "initialize",
      "outputs": [],
      "stateMutability": "nonpayable",
      "type": "function"
    },
    {
      "inputs": [],
      "name": "isDisabledChainlink",
      "outputs": [
        {
          "internalType": "bool",
          "name": "",
          "type": "bool"
        }
      ],
      "stateMutability": "view",
      "type": "function"
    },
    {
      "inputs": [],
      "name": "owner",
      "outputs": [
        {
          "internalType": "address",
          "name": "",
          "type": "address"
        }
      ],
      "stateMutability": "view",
      "type": "function"
    },
    {
      "inputs": [],
      "name": "poolFactory",
      "outputs": [
        {
          "internalType": "address",
          "name": "",
          "type": "address"
        }
      ],
      "stateMutability": "view",
      "type": "function"
    },
    {
      "inputs": [
        {
          "internalType": "address",
          "name": "asset",
          "type": "address"
        }
      ],
      "name": "removeAsset",
      "outputs": [],
      "stateMutability": "nonpayable",
      "type": "function"
    },
    {
      "inputs": [],
      "name": "renounceOwnership",
      "outputs": [],
      "stateMutability": "nonpayable",
      "type": "function"
    },
    {
      "inputs": [
        {
          "internalType": "address",
          "name": "_poolFactory",
          "type": "address"
        }
      ],
      "name": "setPoolFactory",
      "outputs": [],
      "stateMutability": "nonpayable",
      "type": "function"
    },
    {
      "inputs": [
        {
          "internalType": "address",
          "name": "newOwner",
          "type": "address"
        }
      ],
      "name": "transferOwnership",
      "outputs": [],
      "stateMutability": "nonpayable",
      "type": "function"
    }
  ],
  "bytecode": "0x608060405234801561001057600080fd5b50610ff6806100206000396000f3fe608060405234801561001057600080fd5b50600436106100f55760003560e01c80638b2f0f4f11610097578063cf45ba1b11610066578063cf45ba1b146101d2578063d54e96d2146101e7578063eee68120146101ef578063f2fde38b14610202576100f5565b80638b2f0f4f1461018f5780638da5cb5b146101af578063b2806001146101b7578063b91ba548146101bf576100f5565b80634a5e42b1116100d35780634a5e42b1146101405780635cb9e26f14610153578063715018a614610174578063752d4bcb1461017c576100f5565b806329a42d56146100fa5780634219dc4014610123578063473597a01461012b575b600080fd5b61010d610108366004610bda565b610215565b60405161011a9190610d12565b60405180910390f35b61010d610233565b61013e610139366004610bda565b610247565b005b61013e61014e366004610bda565b6102ad565b610166610161366004610bda565b61031b565b60405161011a929190610f7d565b61013e61034c565b61013e61018a366004610c8e565b6103cb565b6101a261019d366004610bda565b610474565b60405161011a9190610f74565b61010d6105d2565b61013e6105e1565b61013e6101cd366004610c49565b610625565b6101da6106a6565b60405161011a9190610d26565b61013e6106af565b61013e6101fd366004610bfc565b6106f0565b61013e610210366004610bda565b6107a6565b6001600160a01b039081166000908152609960205260409020541690565b60975461010090046001600160a01b031681565b61024f61085d565b6065546001600160a01b039081169116146102855760405162461bcd60e51b815260040161027c90610ef1565b60405180910390fd5b609780546001600160a01b0390921661010002610100600160a81b0319909216919091179055565b6102b561085d565b6065546001600160a01b039081169116146102e25760405162461bcd60e51b815260040161027c90610ef1565b6001600160a01b03166000908152609860209081526040808320805460ff191690556099909152902080546001600160a01b0319169055565b6001600160a01b0390811660009081526098602090815260408083205460999092529091205460ff90911692911690565b61035461085d565b6065546001600160a01b039081169116146103815760405162461bcd60e51b815260040161027c90610ef1565b6065546040516000916001600160a01b0316907f8be0079c531659141344cd1fd0a4f28419497f9722a3daafe3b4186f6b6457e0908390a3606580546001600160a01b0319169055565b6103d361085d565b6065546001600160a01b039081169116146104005760405162461bcd60e51b815260040161027c90610ef1565b60005b81518160ff16101561047057610468828260ff168151811061042157fe5b602002602001015160000151838360ff168151811061043c57fe5b602002602001015160200151848460ff168151811061045757fe5b602002602001015160400151610625565b600101610403565b5050565b6001600160a01b0380821660009081526099602090815260408083205460989092528220549192169060ff16816104bd5760405162461bcd60e51b815260040161027c90610dae565b600060ff82161580156104d3575060975460ff16155b156105aa57826001600160a01b031663feaf968c6040518163ffffffff1660e01b815260040160a06040518083038186803b15801561051157600080fd5b505afa925050508015610541575060408051601f3d908101601f1916820190925261053e91810190610cc1565b60015b61055d5760405162461bcd60e51b815260040161027c90610e37565b4261056b8362015f90610861565b10156105895760405162461bcd60e51b815260040161027c90610df1565b60008413156105a4576105a1846402540be40061088f565b95505b50505050505b600081116105ca5760405162461bcd60e51b815260040161027c90610e6e565b949350505050565b6065546001600160a01b031690565b6105e961085d565b6065546001600160a01b039081169116146106165760405162461bcd60e51b815260040161027c90610ef1565b6097805460ff19166001179055565b61062d61085d565b6065546001600160a01b0390811691161461065a5760405162461bcd60e51b815260040161027c90610ef1565b6001600160a01b039283166000908152609860209081526040808320805460ff191660ff9690961695909517909455609990529190912080546001600160a01b03191691909216179055565b60975460ff1681565b6106b761085d565b6065546001600160a01b039081169116146106e45760405162461bcd60e51b815260040161027c90610ef1565b6097805460ff19169055565b600054610100900460ff168061070957506107096108c9565b80610717575060005460ff16155b6107335760405162461bcd60e51b815260040161027c90610f26565b600054610100900460ff1615801561075e576000805460ff1961ff0019909116610100171660011790555b6107666108cf565b60978054610100600160a81b0319166101006001600160a01b0386160217905561078f826103cb565b80156107a1576000805461ff00191690555b505050565b6107ae61085d565b6065546001600160a01b039081169116146107db5760405162461bcd60e51b815260040161027c90610ef1565b6001600160a01b0381166108015760405162461bcd60e51b815260040161027c90610d31565b6065546040516001600160a01b038084169216907f8be0079c531659141344cd1fd0a4f28419497f9722a3daafe3b4186f6b6457e090600090a3606580546001600160a01b0319166001600160a01b0392909216919091179055565b3390565b6000828201838110156108865760405162461bcd60e51b815260040161027c90610d77565b90505b92915050565b60008261089e57506000610889565b828202828482816108ab57fe5b04146108865760405162461bcd60e51b815260040161027c90610eb0565b303b1590565b600054610100900460ff16806108e857506108e86108c9565b806108f6575060005460ff16155b6109125760405162461bcd60e51b815260040161027c90610f26565b600054610100900460ff1615801561093d576000805460ff1961ff0019909116610100171660011790555b610945610962565b61094d6109e3565b801561095f576000805461ff00191690555b50565b600054610100900460ff168061097b575061097b6108c9565b80610989575060005460ff16155b6109a55760405162461bcd60e51b815260040161027c90610f26565b600054610100900460ff1615801561094d576000805460ff1961ff001990911661010017166001179055801561095f576000805461ff001916905550565b600054610100900460ff16806109fc57506109fc6108c9565b80610a0a575060005460ff16155b610a265760405162461bcd60e51b815260040161027c90610f26565b600054610100900460ff16158015610a51576000805460ff1961ff0019909116610100171660011790555b6000610a5b61085d565b606580546001600160a01b0319166001600160a01b038316908117909155604051919250906000907f8be0079c531659141344cd1fd0a4f28419497f9722a3daafe3b4186f6b6457e0908290a350801561095f576000805461ff001916905550565b80356001600160a01b038116811461088957600080fd5b600082601f830112610ae4578081fd5b813567ffffffffffffffff811115610afa578182fd5b6020610b098182840201610f99565b8281529250808301848201606080850287018401881015610b2957600080fd5b60005b85811015610b5057610b3e8984610b5c565b84529284019291810191600101610b2c565b50505050505092915050565b600060608284031215610b6d578081fd5b610b776060610f99565b9050610b838383610abd565b8152610b928360208401610baf565b6020820152610ba48360408401610abd565b604082015292915050565b803560ff8116811461088957600080fd5b805169ffffffffffffffffffff8116811461088957600080fd5b600060208284031215610beb578081fd5b610bf58383610abd565b9392505050565b60008060408385031215610c0e578081fd5b610c188484610abd565b9150602083013567ffffffffffffffff811115610c33578182fd5b610c3f85828601610ad4565b9150509250929050565b600080600060608486031215610c5d578081fd5b610c678585610abd565b9250610c768560208601610baf565b9150610c858560408601610abd565b90509250925092565b600060208284031215610c9f578081fd5b813567ffffffffffffffff811115610cb5578182fd5b6105ca84828501610ad4565b600080600080600060a08688031215610cd8578081fd5b610ce28787610bc0565b9450602086015193506040860151925060608601519150610d068760808801610bc0565b90509295509295909350565b6001600160a01b0391909116815260200190565b901515815260200190565b60208082526026908201527f4f776e61626c653a206e6577206f776e657220697320746865207a65726f206160408201526564647265737360d01b606082015260800190565b6020808252601b908201527f536166654d6174683a206164646974696f6e206f766572666c6f770000000000604082015260600190565b60208082526023908201527f5072696365436f6e73756d65723a2061676772656761746f72206e6f7420666f6040820152621d5b9960ea1b606082015260800190565b60208082526026908201527f5072696365436f6e73756d65723a20636861696e6c696e6b20707269636520656040820152651e1c1a5c995960d21b606082015260800190565b6020808252601f908201527f5072696365436f6e73756d65723a20707269636520676574206661696c656400604082015260600190565b60208082526022908201527f5072696365436f6e73756d65723a207072696365206e6f7420617661696c61626040820152616c6560f01b606082015260800190565b60208082526021908201527f536166654d6174683a206d756c7469706c69636174696f6e206f766572666c6f6040820152607760f81b606082015260800190565b6020808252818101527f4f776e61626c653a2063616c6c6572206973206e6f7420746865206f776e6572604082015260600190565b6020808252602e908201527f436f6e747261637420696e7374616e63652068617320616c726561647920626560408201526d195b881a5b9a5d1a585b1a5e995960921b606082015260800190565b90815260200190565b60ff9290921682526001600160a01b0316602082015260400190565b60405181810167ffffffffffffffff81118282101715610fb857600080fd5b60405291905056fea2646970667358221220befeda2e0b0ba09ef9d3f32718123424692e886dd46bcec0df4b4a7b46f7609464736f6c634300060c0033",
  "linkReferences": {},
  "deployedLinkReferences": {}
}