{
  "_format": "hh-sol-artifact-1",
  "contractName": "DHedgeFactory",
  "sourceName": "contracts/PoolFactory.sol",
  "abi": [
    {
      "anonymous": false,
      "inputs": [
        {
          "indexed": false,
          "internalType": "address",
          "name": "dao",
          "type": "address"
        }
      ],
      "name": "DaoAddressSet",
      "type": "event"
    },
    {
      "anonymous": false,
      "inputs": [
        {
          "indexed": false,
          "internalType": "uint256",
          "name": "numerator",
          "type": "uint256"
        },
        {
          "indexed": false,
          "internalType": "uint256",
          "name": "denominator",
          "type": "uint256"
        }
      ],
      "name": "DaoFeeSet",
      "type": "event"
    },
    {
      "anonymous": false,
      "inputs": [
        {
          "indexed": false,
          "internalType": "address",
          "name": "dhptSwap",
          "type": "address"
        }
      ],
      "name": "DhptSwapAddressSet",
      "type": "event"
    },
    {
      "anonymous": false,
      "inputs": [
        {
          "indexed": false,
          "internalType": "uint256",
          "name": "cooldown",
          "type": "uint256"
        }
      ],
      "name": "ExitFeeCooldownSet",
      "type": "event"
    },
    {
      "anonymous": false,
      "inputs": [
        {
          "indexed": false,
          "internalType": "uint256",
          "name": "numerator",
          "type": "uint256"
        },
        {
          "indexed": false,
          "internalType": "uint256",
          "name": "denominator",
          "type": "uint256"
        }
      ],
      "name": "ExitFeeSet",
      "type": "event"
    },
    {
      "anonymous": false,
      "inputs": [
        {
          "indexed": false,
          "internalType": "address",
          "name": "fundAddress",
          "type": "address"
        },
        {
          "indexed": false,
          "internalType": "bool",
          "name": "isPoolPrivate",
          "type": "bool"
        },
        {
          "indexed": false,
          "internalType": "string",
          "name": "fundName",
          "type": "string"
        },
        {
          "indexed": false,
          "internalType": "string",
          "name": "managerName",
          "type": "string"
        },
        {
          "indexed": false,
          "internalType": "address",
          "name": "manager",
          "type": "address"
        },
        {
          "indexed": false,
          "internalType": "uint256",
          "name": "time",
          "type": "uint256"
        },
        {
          "indexed": false,
          "internalType": "uint256",
          "name": "managerFeeNumerator",
          "type": "uint256"
        },
        {
          "indexed": false,
          "internalType": "uint256",
          "name": "managerFeeDenominator",
          "type": "uint256"
        }
      ],
      "name": "FundCreated",
      "type": "event"
    },
    {
      "anonymous": false,
      "inputs": [
        {
          "indexed": true,
          "internalType": "address",
          "name": "manager",
          "type": "address"
        },
        {
          "indexed": true,
          "internalType": "address",
          "name": "pool",
          "type": "address"
        }
      ],
      "name": "LogUpgrade",
      "type": "event"
    },
    {
      "anonymous": false,
      "inputs": [
        {
          "indexed": false,
          "internalType": "uint256",
          "name": "count",
          "type": "uint256"
        }
      ],
      "name": "MaximumSupportedAssetCountSet",
      "type": "event"
    },
    {
      "anonymous": false,
      "inputs": [
        {
          "indexed": true,
          "internalType": "address",
          "name": "previousOwner",
          "type": "address"
        },
        {
          "indexed": true,
          "internalType": "address",
          "name": "newOwner",
          "type": "address"
        }
      ],
      "name": "OwnershipTransferred",
      "type": "event"
    },
    {
      "anonymous": false,
      "inputs": [
        {
          "indexed": false,
          "internalType": "address",
          "name": "proxy",
          "type": "address"
        }
      ],
      "name": "ProxyCreated",
      "type": "event"
    },
    {
      "inputs": [],
      "name": "addressResolver",
      "outputs": [
        {
          "internalType": "contract IAddressResolver",
          "name": "",
          "type": "address"
        }
      ],
      "stateMutability": "view",
      "type": "function"
    },
    {
      "inputs": [
        {
          "internalType": "bool",
          "name": "_privatePool",
          "type": "bool"
        },
        {
          "internalType": "address",
          "name": "_manager",
          "type": "address"
        },
        {
          "internalType": "string",
          "name": "_managerName",
          "type": "string"
        },
        {
          "internalType": "string",
          "name": "_fundName",
          "type": "string"
        },
        {
          "internalType": "string",
          "name": "_fundSymbol",
          "type": "string"
        },
        {
          "internalType": "uint256",
          "name": "_managerFeeNumerator",
          "type": "uint256"
        },
        {
          "internalType": "bytes32[]",
          "name": "_supportedAssets",
          "type": "bytes32[]"
        }
      ],
      "name": "createFund",
      "outputs": [
        {
          "internalType": "address",
          "name": "",
          "type": "address"
        }
      ],
      "stateMutability": "nonpayable",
      "type": "function"
    },
    {
      "inputs": [
        {
          "internalType": "bytes",
          "name": "_data",
          "type": "bytes"
        },
        {
          "internalType": "uint8",
          "name": "_proxyType",
          "type": "uint8"
        }
      ],
      "name": "deploy",
      "outputs": [
        {
          "internalType": "address",
          "name": "",
          "type": "address"
        }
      ],
      "stateMutability": "nonpayable",
      "type": "function"
    },
    {
      "inputs": [
        {
          "internalType": "uint256",
          "name": "",
          "type": "uint256"
        }
      ],
      "name": "deployedFunds",
      "outputs": [
        {
          "internalType": "address",
          "name": "",
          "type": "address"
        }
      ],
      "stateMutability": "view",
      "type": "function"
    },
    {
      "inputs": [],
      "name": "deployedFundsLength",
      "outputs": [
        {
          "internalType": "uint256",
          "name": "",
          "type": "uint256"
        }
      ],
      "stateMutability": "view",
      "type": "function"
    },
    {
      "inputs": [],
      "name": "getAddressResolver",
      "outputs": [
        {
          "internalType": "contract IAddressResolver",
          "name": "",
          "type": "address"
        }
      ],
      "stateMutability": "view",
      "type": "function"
    },
    {
      "inputs": [],
      "name": "getDaoAddress",
      "outputs": [
        {
          "internalType": "address",
          "name": "",
          "type": "address"
        }
      ],
      "stateMutability": "view",
      "type": "function"
    },
    {
      "inputs": [],
      "name": "getDaoFee",
      "outputs": [
        {
          "internalType": "uint256",
          "name": "",
          "type": "uint256"
        },
        {
          "internalType": "uint256",
          "name": "",
          "type": "uint256"
        }
      ],
      "stateMutability": "view",
      "type": "function"
    },
    {
      "inputs": [],
      "name": "getDhptSwapAddress",
      "outputs": [
        {
          "internalType": "address",
          "name": "",
          "type": "address"
        }
      ],
      "stateMutability": "view",
      "type": "function"
    },
    {
      "inputs": [],
      "name": "getExitFee",
      "outputs": [
        {
          "internalType": "uint256",
          "name": "",
          "type": "uint256"
        },
        {
          "internalType": "uint256",
          "name": "",
          "type": "uint256"
        }
      ],
      "stateMutability": "view",
      "type": "function"
    },
    {
      "inputs": [],
      "name": "getExitFeeCooldown",
      "outputs": [
        {
          "internalType": "uint256",
          "name": "",
          "type": "uint256"
        }
      ],
      "stateMutability": "view",
      "type": "function"
    },
    {
      "inputs": [
        {
          "internalType": "uint8",
          "name": "_proxyType",
          "type": "uint8"
        }
      ],
      "name": "getLogic",
      "outputs": [
        {
          "internalType": "address",
          "name": "",
          "type": "address"
        }
      ],
      "stateMutability": "view",
      "type": "function"
    },
    {
      "inputs": [],
      "name": "getManagerFeeNumeratorChangeDelay",
      "outputs": [
        {
          "internalType": "uint256",
          "name": "",
          "type": "uint256"
        }
      ],
      "stateMutability": "view",
      "type": "function"
    },
    {
      "inputs": [],
      "name": "getMaximumManagerFee",
      "outputs": [
        {
          "internalType": "uint256",
          "name": "",
          "type": "uint256"
        },
        {
          "internalType": "uint256",
          "name": "",
          "type": "uint256"
        }
      ],
      "stateMutability": "view",
      "type": "function"
    },
    {
      "inputs": [],
      "name": "getMaximumManagerFeeNumeratorChange",
      "outputs": [
        {
          "internalType": "uint256",
          "name": "",
          "type": "uint256"
        }
      ],
      "stateMutability": "view",
      "type": "function"
    },
    {
      "inputs": [],
      "name": "getMaximumSupportedAssetCount",
      "outputs": [
        {
          "internalType": "uint256",
          "name": "",
          "type": "uint256"
        }
      ],
      "stateMutability": "view",
      "type": "function"
    },
    {
      "inputs": [
        {
          "internalType": "address",
          "name": "pool",
          "type": "address"
        }
      ],
      "name": "getPoolManagerFee",
      "outputs": [
        {
          "internalType": "uint256",
          "name": "",
          "type": "uint256"
        },
        {
          "internalType": "uint256",
          "name": "",
          "type": "uint256"
        }
      ],
      "stateMutability": "view",
      "type": "function"
    },
    {
      "inputs": [],
      "name": "getTrackingCode",
      "outputs": [
        {
          "internalType": "bytes32",
          "name": "",
          "type": "bytes32"
        }
      ],
      "stateMutability": "view",
      "type": "function"
    },
    {
      "inputs": [
        {
          "internalType": "contract IAddressResolver",
          "name": "_addressResolver",
          "type": "address"
        },
        {
          "internalType": "address",
          "name": "_poolLogic",
          "type": "address"
        },
        {
          "internalType": "address",
          "name": "_managerLogic",
          "type": "address"
        },
        {
          "internalType": "address",
          "name": "daoAddress",
          "type": "address"
        }
      ],
      "name": "initialize",
      "outputs": [],
      "stateMutability": "nonpayable",
      "type": "function"
    },
    {
      "inputs": [
        {
          "internalType": "address",
          "name": "",
          "type": "address"
        }
      ],
      "name": "isPool",
      "outputs": [
        {
          "internalType": "bool",
          "name": "",
          "type": "bool"
        }
      ],
      "stateMutability": "view",
      "type": "function"
    },
    {
      "inputs": [],
      "name": "managerFeeNumeratorChangeDelay",
      "outputs": [
        {
          "internalType": "uint256",
          "name": "",
          "type": "uint256"
        }
      ],
      "stateMutability": "view",
      "type": "function"
    },
    {
      "inputs": [],
      "name": "maximumManagerFeeNumeratorChange",
      "outputs": [
        {
          "internalType": "uint256",
          "name": "",
          "type": "uint256"
        }
      ],
      "stateMutability": "view",
      "type": "function"
    },
    {
      "inputs": [],
      "name": "owner",
      "outputs": [
        {
          "internalType": "address",
          "name": "",
          "type": "address"
        }
      ],
      "stateMutability": "view",
      "type": "function"
    },
    {
      "inputs": [
        {
          "internalType": "address",
          "name": "",
          "type": "address"
        }
      ],
      "name": "poolManagerFeeDenominator",
      "outputs": [
        {
          "internalType": "uint256",
          "name": "",
          "type": "uint256"
        }
      ],
      "stateMutability": "view",
      "type": "function"
    },
    {
      "inputs": [
        {
          "internalType": "address",
          "name": "",
          "type": "address"
        }
      ],
      "name": "poolManagerFeeNumerator",
      "outputs": [
        {
          "internalType": "uint256",
          "name": "",
          "type": "uint256"
        }
      ],
      "stateMutability": "view",
      "type": "function"
    },
    {
      "inputs": [],
      "name": "poolStorageVersion",
      "outputs": [
        {
          "internalType": "uint256",
          "name": "",
          "type": "uint256"
        }
      ],
      "stateMutability": "view",
      "type": "function"
    },
    {
      "inputs": [
        {
          "internalType": "address",
          "name": "",
          "type": "address"
        }
      ],
      "name": "poolVersion",
      "outputs": [
        {
          "internalType": "uint256",
          "name": "",
          "type": "uint256"
        }
      ],
      "stateMutability": "view",
      "type": "function"
    },
    {
      "inputs": [],
      "name": "renounceOwnership",
      "outputs": [],
      "stateMutability": "nonpayable",
      "type": "function"
    },
    {
      "inputs": [
        {
          "internalType": "address",
          "name": "_addressResolver",
          "type": "address"
        }
      ],
      "name": "setAddressResolver",
      "outputs": [],
      "stateMutability": "nonpayable",
      "type": "function"
    },
    {
      "inputs": [
        {
          "internalType": "address",
          "name": "daoAddress",
          "type": "address"
        }
      ],
      "name": "setDaoAddress",
      "outputs": [],
      "stateMutability": "nonpayable",
      "type": "function"
    },
    {
      "inputs": [
        {
          "internalType": "uint256",
          "name": "numerator",
          "type": "uint256"
        },
        {
          "internalType": "uint256",
          "name": "denominator",
          "type": "uint256"
        }
      ],
      "name": "setDaoFee",
      "outputs": [],
      "stateMutability": "nonpayable",
      "type": "function"
    },
    {
      "inputs": [
        {
          "internalType": "address",
          "name": "dhptSwapAddress",
          "type": "address"
        }
      ],
      "name": "setDhptSwapAddress",
      "outputs": [],
      "stateMutability": "nonpayable",
      "type": "function"
    },
    {
      "inputs": [
        {
          "internalType": "uint256",
          "name": "numerator",
          "type": "uint256"
        },
        {
          "internalType": "uint256",
          "name": "denominator",
          "type": "uint256"
        }
      ],
      "name": "setExitFee",
      "outputs": [],
      "stateMutability": "nonpayable",
      "type": "function"
    },
    {
      "inputs": [
        {
          "internalType": "uint256",
          "name": "cooldown",
          "type": "uint256"
        }
      ],
      "name": "setExitFeeCooldown",
      "outputs": [],
      "stateMutability": "nonpayable",
      "type": "function"
    },
    {
      "inputs": [
        {
          "internalType": "address",
          "name": "_poolLogic",
          "type": "address"
        },
        {
          "internalType": "address",
          "name": "_poolManagerLogic",
          "type": "address"
        }
      ],
      "name": "setLogic",
      "outputs": [],
      "stateMutability": "nonpayable",
      "type": "function"
    },
    {
      "inputs": [
        {
          "internalType": "uint256",
          "name": "delay",
          "type": "uint256"
        }
      ],
      "name": "setManagerFeeNumeratorChangeDelay",
      "outputs": [],
      "stateMutability": "nonpayable",
      "type": "function"
    },
    {
      "inputs": [
        {
          "internalType": "uint256",
          "name": "amount",
          "type": "uint256"
        }
      ],
      "name": "setMaximumManagerFeeNumeratorChange",
      "outputs": [],
      "stateMutability": "nonpayable",
      "type": "function"
    },
    {
      "inputs": [
        {
          "internalType": "uint256",
          "name": "count",
          "type": "uint256"
        }
      ],
      "name": "setMaximumSupportedAssetCount",
      "outputs": [],
      "stateMutability": "nonpayable",
      "type": "function"
    },
    {
      "inputs": [
        {
          "internalType": "address",
          "name": "pool",
          "type": "address"
        },
        {
          "internalType": "uint256",
          "name": "numerator",
          "type": "uint256"
        }
      ],
      "name": "setPoolManagerFeeNumerator",
      "outputs": [],
      "stateMutability": "nonpayable",
      "type": "function"
    },
    {
      "inputs": [
        {
          "internalType": "bytes32",
          "name": "code",
          "type": "bytes32"
        }
      ],
      "name": "setTrackingCode",
      "outputs": [],
      "stateMutability": "nonpayable",
      "type": "function"
    },
    {
      "inputs": [
        {
          "internalType": "address",
          "name": "newOwner",
          "type": "address"
        }
      ],
      "name": "transferOwnership",
      "outputs": [],
      "stateMutability": "nonpayable",
      "type": "function"
    },
    {
      "inputs": [
        {
          "internalType": "uint256",
          "name": "startIndex",
          "type": "uint256"
        },
        {
          "internalType": "uint256",
          "name": "endIndex",
          "type": "uint256"
        },
        {
          "internalType": "uint256",
          "name": "sourceVersion",
          "type": "uint256"
        },
        {
          "internalType": "uint256",
          "name": "targetVersion",
          "type": "uint256"
        },
        {
          "internalType": "bytes",
          "name": "data",
          "type": "bytes"
        }
      ],
      "name": "upgradePoolBatch",
      "outputs": [],
      "stateMutability": "nonpayable",
      "type": "function"
    }
  ],
  "bytecode": "0x608060405234801561001057600080fd5b5061280a806100206000396000f3fe608060405234801561001057600080fd5b506004361061025e5760003560e01c8063973f65ea11610146578063bfeaf71d116100c3578063ecef89d511610087578063ecef89d51461091f578063eda96ea91461093f578063eec16c4414610947578063f2fde38b14610964578063f8c8765e1461098a578063fcf61657146109c85761025e565b8063bfeaf71d146108c4578063e60eb412146108cc578063e99c0fa6146108f2578063ebee461d1461090f578063ecb0116a146109175761025e565b8063aa12ae4d1161010a578063aa12ae4d14610836578063ad3905661461083e578063b7a545261461085b578063bcb01f4414610881578063bee37e521461089e5761025e565b8063973f65ea146107a25780639a068bd6146107c85780639a3cac6a146107e55780639cada6e41461080b5780639f49b60e146108135761025e565b806348281272116101df578063715018a6116101a3578063715018a61461071857806371c1c54914610720578063771d1baf14610728578063808ae5fb1461074b5780638da5cb5b1461077957806394d0d23b146107815761025e565b8063482812721461045957806349f7c02d146106a85780635556ee55146106b05780635b16ebb7146106d65780635c9bfc2b146107105761025e565b8063143023871161022657806314302387146102df5780631d68702d146103055780631e666d131461030d5780631e8e8bca1461039357806345812ca5146103b05761025e565b8063046b72c41461026357806305a2ee2a146102915780630bf99bd9146102b55780630f6559c4146102cf57806310bf69dc146102d7575b600080fd5b61028f6004803603604081101561027957600080fd5b506001600160a01b0381351690602001356109d0565b005b610299610b40565b604080516001600160a01b039092168252519081900360200190f35b6102bd610b4f565b60408051918252519081900360200190f35b6102bd610b55565b6102bd610b5b565b61028f600480360360208110156102f557600080fd5b50356001600160a01b0316610b61565b610299610bdb565b61028f600480360360a081101561032357600080fd5b81359160208101359160408201359160608101359181019060a081016080820135600160201b81111561035557600080fd5b82018360208201111561036757600080fd5b803590602001918460018302840111600160201b8311171561038857600080fd5b509092509050610bea565b61028f600480360360208110156103a957600080fd5b5035610d0d565b610299600480360360408110156103c657600080fd5b810190602081018135600160201b8111156103e057600080fd5b8201836020820111156103f257600080fd5b803590602001918460018302840111600160201b8311171561041357600080fd5b91908080601f0160208091040260200160405190810160405280939291908181526020018383808284376000920191909152509295505050903560ff169150610d719050565b610299600480360360e081101561046f57600080fd5b81351515916001600160a01b0360208201351691810190606081016040820135600160201b8111156104a057600080fd5b8201836020820111156104b257600080fd5b803590602001918460018302840111600160201b831117156104d357600080fd5b91908080601f0160208091040260200160405190810160405280939291908181526020018383808284376000920191909152509295949360208101935035915050600160201b81111561052557600080fd5b82018360208201111561053757600080fd5b803590602001918460018302840111600160201b8311171561055857600080fd5b91908080601f0160208091040260200160405190810160405280939291908181526020018383808284376000920191909152509295949360208101935035915050600160201b8111156105aa57600080fd5b8201836020820111156105bc57600080fd5b803590602001918460018302840111600160201b831117156105dd57600080fd5b91908080601f01602080910402602001604051908101604052809392919081815260200183838082843760009201919091525092958435959094909350604081019250602001359050600160201b81111561063757600080fd5b82018360208201111561064957600080fd5b803590602001918460208302840111600160201b8311171561066a57600080fd5b919080806020026020016040519081016040528093929190818152602001838360200280828437600092019190915250929550610d84945050505050565b6102bd61124f565b6102bd600480360360208110156106c657600080fd5b50356001600160a01b0316611255565b6106fc600480360360208110156106ec57600080fd5b50356001600160a01b0316611267565b604080519115158252519081900360200190f35b6102bd61127c565b61028f611282565b610299611324565b61028f6004803603604081101561073e57600080fd5b5080359060200135611333565b61028f6004803603604081101561076157600080fd5b506001600160a01b0381358116916020013516611395565b61029961141b565b61078961142a565b6040805192835260208301919091528051918290030190f35b61028f600480360360208110156107b857600080fd5b50356001600160a01b0316611434565b610299600480360360208110156107de57600080fd5b5035611495565b61028f600480360360208110156107fb57600080fd5b50356001600160a01b03166114bc565b61078961151d565b61028f6004803603604081101561082957600080fd5b5080359060200135611527565b6102bd611589565b61028f6004803603602081101561085457600080fd5b503561158f565b6107896004803603602081101561087157600080fd5b50356001600160a01b03166115f0565b61028f6004803603602081101561089757600080fd5b503561168e565b6102bd600480360360208110156108b457600080fd5b50356001600160a01b03166116eb565b6102bd6116fd565b6102bd600480360360208110156108e257600080fd5b50356001600160a01b0316611703565b61028f6004803603602081101561090857600080fd5b5035611715565b6102bd611772565b610789611778565b6102996004803603602081101561093557600080fd5b503560ff16611782565b6102bd6117b5565b61028f6004803603602081101561095d57600080fd5b50356117bb565b61028f6004803603602081101561097a57600080fd5b50356001600160a01b031661181c565b61028f600480360360808110156109a057600080fd5b506001600160a01b038135811691602081013582169160408201358116916060013516611915565b610299611a38565b6001600160a01b038216331480156109fc575033600090815260d0602052604090205460ff1615156001145b610a4d576040805162461bcd60e51b815260206004820152601e60248201527f6f6e6c79206120706f6f6c2063616e206368616e6765206f776e206665650000604482015290519081900360640190fd5b6001600160a01b038216600090815260d0602052604090205460ff161515600114610abf576040805162461bcd60e51b815260206004820152601e60248201527f737570706c6965642061646472657373206973206e6f74206120706f6f6c0000604482015290519081900360640190fd5b60dd546001600160a01b038316600090815260d36020526040902054610ae491611a47565b811115610b2f576040805162461bcd60e51b81526020600482015260146024820152730dac2dcc2cecae440cccaca40e8dede40d0d2ced60631b604482015290519081900360640190fd5b610b3c338260d254611aa1565b5050565b60cb546001600160a01b031681565b60cc5490565b60db5481565b60dd5481565b610b69611b1f565b6065546001600160a01b03908116911614610bb9576040805162461bcd60e51b81526020600482018190526024820152600080516020612787833981519152604482015290519081900360640190fd5b60cb80546001600160a01b0319166001600160a01b0392909216919091179055565b60cd546001600160a01b031690565b610bf2611b1f565b6065546001600160a01b03908116911614610c42576040805162461bcd60e51b81526020600482018190526024820152600080516020612787833981519152604482015290519081900360640190fd5b848611158015610c53575060cc5486105b8015610c60575060cc5485105b610ca2576040805162461bcd60e51b815260206004820152600e60248201526d696e76616c696420626f756e647360901b604482015290519081900360640190fd5b855b858111610d0457600060cc8281548110610cba57fe5b60009182526020808320909101546001600160a01b031680835260da9091526040909120549091508614610cee5750610cfc565b610cfa81858588611b23565b505b600101610ca4565b50505050505050565b610d15611b1f565b6065546001600160a01b03908116911614610d65576040805162461bcd60e51b81526020600482018190526024820152600080516020612787833981519152604482015290519081900360640190fd5b610d6e81611c6b565b50565b6000610d7d8383611c70565b9392505050565b60cb5460405130602482018181526001600160a01b03808b1660448501529093166084830181905260a060648401908152895160c485015289516000956060958d948d9490938a939260a481019160e49091019060208801908083838f5b83811015610dfa578181015183820152602001610de2565b50505050905090810190601f168015610e275780820380516001836020036101000a031916815260200191505b508381038252845181528451602091820191808701910280838360005b83811015610e5c578181015183820152602001610e44565b5050505090500197505050505050505060405160208183030381529060405263eb94917d60e01b6001600160e01b0319166020820180516001600160e01b03838183161783525050505090506000610eb5826001610d71565b90506060308b8b8b8b8b8760405160240180886001600160a01b031681526020018715158152602001866001600160a01b03168152602001806020018060200180602001856001600160a01b03168152602001848103845288818151815260200191508051906020019080838360005b83811015610f3d578181015183820152602001610f25565b50505050905090810190601f168015610f6a5780820380516001836020036101000a031916815260200191505b50848103835287518152875160209182019189019080838360005b83811015610f9d578181015183820152602001610f85565b50505050905090810190601f168015610fca5780820380516001836020036101000a031916815260200191505b50848103825286518152865160209182019188019080838360005b83811015610ffd578181015183820152602001610fe5565b50505050905090810190601f16801561102a5780820380516001836020036101000a031916815260200191505b5060408051601f198184030181529190526020810180516001600160e01b03166302ce12f960e51b1790529b5060009a5061107499508b985060029750610d719650505050505050565b60cc805460018082019092557f47197230e1e4b29fc0bd84d7d78966c0925452aff72a2a121538b102457e9ebe0180546001600160a01b0319166001600160a01b038416908117909155600090815260d060209081526040808320805460ff191690941790935560db5460da9091529190205560d2549091506110fa9082908990611aa1565b7f73a0638fe578fc759744633aa170a433061ca2cc1bb855d116c506e04a29901f818d8b8d8f428d60d25460405180896001600160a01b0316815260200188151581526020018060200180602001876001600160a01b03168152602001868152602001858152602001848152602001838103835289818151815260200191508051906020019080838360005b8381101561119e578181015183820152602001611186565b50505050905090810190601f1680156111cb5780820380516001836020036101000a031916815260200191505b5083810382528851815288516020918201918a019080838360005b838110156111fe5781810151838201526020016111e6565b50505050905090810190601f16801561122b5780820380516001836020036101000a031916815260200191505b509a505050505050505050505060405180910390a19b9a5050505050505050505050565b60d95490565b60da6020526000908152604090205481565b60d06020526000908152604090205460ff1681565b60dd5490565b61128a611b1f565b6065546001600160a01b039081169116146112da576040805162461bcd60e51b81526020600482018190526024820152600080516020612787833981519152604482015290519081900360640190fd5b6065546040516000916001600160a01b0316907f8be0079c531659141344cd1fd0a4f28419497f9722a3daafe3b4186f6b6457e0908390a3606580546001600160a01b0319169055565b60cb546001600160a01b031690565b61133b611b1f565b6065546001600160a01b0390811691161461138b576040805162461bcd60e51b81526020600482018190526024820152600080516020612787833981519152604482015290519081900360640190fd5b610b3c8282611d9e565b61139d611b1f565b6065546001600160a01b039081169116146113ed576040805162461bcd60e51b81526020600482018190526024820152600080516020612787833981519152604482015290519081900360640190fd5b609780546001600160a01b039384166001600160a01b03199182161790915560988054929093169116179055565b6065546001600160a01b031690565b60d15460d2549091565b61143c611b1f565b6065546001600160a01b0390811691161461148c576040805162461bcd60e51b81526020600482018190526024820152600080516020612787833981519152604482015290519081900360640190fd5b610d6e81611e2f565b60cc81815481106114a257fe5b6000918252602090912001546001600160a01b0316905081565b6114c4611b1f565b6065546001600160a01b03908116911614611514576040805162461bcd60e51b81526020600482018190526024820152600080516020612787833981519152604482015290519081900360640190fd5b610d6e81611e83565b60ce5460cf549091565b61152f611b1f565b6065546001600160a01b0390811691161461157f576040805162461bcd60e51b81526020600482018190526024820152600080516020612787833981519152604482015290519081900360640190fd5b610b3c8282611ed7565b60d85490565b611597611b1f565b6065546001600160a01b039081169116146115e7576040805162461bcd60e51b81526020600482018190526024820152600080516020612787833981519152604482015290519081900360640190fd5b610d6e81611f68565b6001600160a01b038116600090815260d06020526040812054819060ff161515600114611664576040805162461bcd60e51b815260206004820152601e60248201527f737570706c6965642061646472657373206973206e6f74206120706f6f6c0000604482015290519081900360640190fd5b50506001600160a01b0316600090815260d3602090815260408083205460d4909252909120549091565b611696611b1f565b6065546001600160a01b039081169116146116e6576040805162461bcd60e51b81526020600482018190526024820152600080516020612787833981519152604482015290519081900360640190fd5b60de55565b60d36020526000908152604090205481565b60de5481565b60d46020526000908152604090205481565b61171d611b1f565b6065546001600160a01b0390811691161461176d576040805162461bcd60e51b81526020600482018190526024820152600080516020612787833981519152604482015290519081900360640190fd5b60dd55565b60de5490565b60d55460d6549091565b60008160ff16600114156117a257506098546001600160a01b03166117b0565b506097546001600160a01b03165b919050565b60d75490565b6117c3611b1f565b6065546001600160a01b03908116911614611813576040805162461bcd60e51b81526020600482018190526024820152600080516020612787833981519152604482015290519081900360640190fd5b610d6e81611fa3565b611824611b1f565b6065546001600160a01b03908116911614611874576040805162461bcd60e51b81526020600482018190526024820152600080516020612787833981519152604482015290519081900360640190fd5b6001600160a01b0381166118b95760405162461bcd60e51b81526004018080602001828103825260268152602001806127616026913960400191505060405180910390fd5b6065546040516001600160a01b038084169216907f8be0079c531659141344cd1fd0a4f28419497f9722a3daafe3b4186f6b6457e090600090a3606580546001600160a01b0319166001600160a01b0392909216919091179055565b600054610100900460ff168061192e575061192e611fde565b8061193c575060005460ff16155b6119775760405162461bcd60e51b815260040180806020018281038252602e8152602001806127a7602e913960400191505060405180910390fd5b600054610100900460ff161580156119a2576000805460ff1961ff0019909116610100171660011790555b6119ac8484611fe4565b60cb80546001600160a01b0319166001600160a01b0387161790556119d082611e83565b6119de611388612710611fec565b6119ea600a6064611d9e565b6119f760056103e8611ed7565b611a0362015180611f68565b611a0d600a611fa3565b611a1f6544484544474560d01b611c6b565b8015611a31576000805461ff00191690555b5050505050565b60dc546001600160a01b031690565b600082820183811015610d7d576040805162461bcd60e51b815260206004820152601b60248201527f536166654d6174683a206164646974696f6e206f766572666c6f770000000000604482015290519081900360640190fd5b808211158015611ab3575060d1548211155b611af7576040805162461bcd60e51b815260206004820152601060248201526f34b73b30b634b210333930b1ba34b7b760811b604482015290519081900360640190fd5b6001600160a01b03909216600090815260d3602090815260408083209390935560d490522055565b3390565b6001600160a01b038416611b6f576040805162461bcd60e51b815260206004820152600e60248201526d1d185c99d95d0b5a5b9d985b1a5960921b604482015290519081900360640190fd5b81611bb0576040805162461bcd60e51b815260206004820152600c60248201526b19185d184b5a5b9d985b1a5960a21b604482015290519081900360640190fd5b606083838080601f016020809104026020016040519081016040528093929190818152602001838380828437600092018290525084519495509384935091505060208401885af4801560018114611c0657611c11565b3d806000803e806000fd5b50506040516001600160a01b0386169033907f78a9b536049c39a00adaf57016b1376c99dd48a0faf2cef23690232f21ce42cc90600090a3506001600160a01b03909316600090815260da60205260409020929092555050565b60d955565b600080611c7b61204c565b604080516001600160a01b038316815290519192507efffc2da0b561cae30d9826d37709e9421c4725faebc226cbbb7ef5fc5e7349919081900360200190a1806001600160a01b031663e74a474a3086866040518463ffffffff1660e01b815260040180846001600160a01b03168152602001806020018360ff168152602001828103825284818151815260200191508051906020019080838360005b83811015611d30578181015183820152602001611d18565b50505050905090810190601f168015611d5d5780820380516001836020036101000a031916815260200191505b50945050505050600060405180830381600087803b158015611d7e57600080fd5b505af1158015611d92573d6000803e3d6000fd5b50929695505050505050565b80821115611de6576040805162461bcd60e51b815260206004820152601060248201526f34b73b30b634b210333930b1ba34b7b760811b604482015290519081900360640190fd5b60ce82905560cf819055604080518381526020810183905281517fb10da2958bf5ec1bff3164ff753a09e0460ed44d3abf73e79b817b500ed0f2f1929181900390910190a15050565b60dc80546001600160a01b0383166001600160a01b0319909116811790915560408051918252517f9bf656ec65146ae8ac6e269af401761bdf7d2b9e09c00ecf39f6552394d529999181900360200190a150565b60cd80546001600160a01b0383166001600160a01b0319909116811790915560408051918252517ff1034ad6b4d45dc33a4142b9c51c2b7f89bf4a410696e426cc0f3224869e0aca9181900360200190a150565b80821115611f1f576040805162461bcd60e51b815260206004820152601060248201526f34b73b30b634b210333930b1ba34b7b760811b604482015290519081900360640190fd5b60d582905560d6819055604080518381526020810183905281517fc84081a9c94a2300cdec20e3d60952b84e96e11edf24cb65ba26b7f8455f29db929181900390910190a15050565b60d78190556040805182815290517f3c6bcf0eff145e812fd913d4220f52c2a428932b0d2c196ab56e3e005ae2ace49181900360200190a150565b60d88190556040805182815290517f0cd8fcb5e08d7632af461f0ad793e5c63dc0d7595c301f5880650175e37a87489181900360200190a150565b303b1590565b6113ed612093565b60008111612041576040805162461bcd60e51b815260206004820152601c60248201527f64656e6f6d696e61746f72206d75737420626520706f73697469766500000000604482015290519081900360640190fd5b60d19190915560d255565b600080606060405180602001612061906122dd565b6020820181038252601f19601f8201166040525090508051602082016000f09150813b61208d57600080fd5b50905090565b600054610100900460ff16806120ac57506120ac611fde565b806120ba575060005460ff16155b6120f55760405162461bcd60e51b815260040180806020018281038252602e8152602001806127a7602e913960400191505060405180910390fd5b600054610100900460ff16158015612120576000805460ff1961ff0019909116610100171660011790555b612128612144565b6121306121e4565b8015610d6e576000805461ff001916905550565b600054610100900460ff168061215d575061215d611fde565b8061216b575060005460ff16155b6121a65760405162461bcd60e51b815260040180806020018281038252602e8152602001806127a7602e913960400191505060405180910390fd5b600054610100900460ff16158015612130576000805460ff1961ff0019909116610100171660011790558015610d6e576000805461ff001916905550565b600054610100900460ff16806121fd57506121fd611fde565b8061220b575060005460ff16155b6122465760405162461bcd60e51b815260040180806020018281038252602e8152602001806127a7602e913960400191505060405180910390fd5b600054610100900460ff16158015612271576000805460ff1961ff0019909116610100171660011790555b600061227b611b1f565b606580546001600160a01b0319166001600160a01b038316908117909155604051919250906000907f8be0079c531659141344cd1fd0a4f28419497f9722a3daafe3b4186f6b6457e0908290a3508015610d6e576000805461ff001916905550565b610476806122eb8339019056fe608060405234801561001057600080fd5b50610456806100206000396000f3fe6080604052600436106100225760003560e01c8063e74a474a1461003957610031565b366100315761002f6100f4565b005b61002f6100f4565b61002f6004803603606081101561004f57600080fd5b6001600160a01b03823516919081019060408101602082013564010000000081111561007a57600080fd5b82018360208201111561008c57600080fd5b803590602001918460018302840111640100000000831117156100ae57600080fd5b91908080601f0160208091040260200160405190810160405280939291908181526020018383808284376000920191909152509295505050903560ff16915061010e9050565b6100fc61010c565b61010c610107610281565b610342565b565b6000610118610281565b6001600160a01b031614610163576040805162461bcd60e51b815260206004820152600d60248201526c496d706c206e6f74207a65726f60981b604482015290519081900360640190fd5b61016c83610366565b610175816103ce565b81511561027c576000610186610281565b6001600160a01b0316836040518082805190602001908083835b602083106101bf5780518252601f1990920191602091820191016101a0565b6001836020036101000a038019825116818451168082178552505050505050905001915050600060405180830381855af49150503d806000811461021f576040519150601f19603f3d011682016040523d82523d6000602084013e610224565b606091505b505090508061027a576040805162461bcd60e51b815260206004820152601a60248201527f496d706c656d656e746174696f6e20696e6974206661696c6564000000000000604482015290519081900360640190fd5b505b505050565b7f360894a13ba1a3210667c828492db98dca3e2076cc3735a920a3ca505d382bbc80546000916001600160a01b0382166102c05760009250505061033f565b816001600160a01b031663ecef89d56102d76103d6565b6040518263ffffffff1660e01b8152600401808260ff16815260200191505060206040518083038186803b15801561030e57600080fd5b505afa158015610322573d6000803e3d6000fd5b505050506040513d602081101561033857600080fd5b5051925050505b90565b3660008037600080366000845af43d6000803e808015610361573d6000f35b3d6000fd5b61036f816103df565b6103aa5760405162461bcd60e51b815260040180806020018281038252603b8152602001806103e6603b913960400191505060405180910390fd5b7f360894a13ba1a3210667c828492db98dca3e2076cc3735a920a3ca505d382bbc55565b600160fc1b55565b600160fc1b5490565b3b15159056fe43616e6e6f742073657420612070726f787920696d706c656d656e746174696f6e20746f2061206e6f6e2d636f6e74726163742061646472657373a264697066735822122074c59b121a2a0d1e02a85cb8ac366f5c31b6c267d5337204c70208ad502f448c64736f6c634300060c00334f776e61626c653a206e6577206f776e657220697320746865207a65726f20616464726573734f776e61626c653a2063616c6c6572206973206e6f7420746865206f776e6572436f6e747261637420696e7374616e63652068617320616c7265616479206265656e20696e697469616c697a6564a2646970667358221220201eb44de228885e5960c711d772ff70ad2366cd5f59c93b26b7794708e12ba364736f6c634300060c0033",
  "linkReferences": {},
  "deployedLinkReferences": {}
}