{
  "_format": "hh-sol-artifact-1",
  "contractName": "DHedgeFactory-ovm",
  "sourceName": "contracts/PoolFactory.sol",
  "abi": [
    {
      "anonymous": false,
      "inputs": [
        {
          "indexed": false,
          "internalType": "address",
          "name": "dao",
          "type": "address"
        }
      ],
      "name": "DaoAddressSet",
      "type": "event"
    },
    {
      "anonymous": false,
      "inputs": [
        {
          "indexed": false,
          "internalType": "uint256",
          "name": "numerator",
          "type": "uint256"
        },
        {
          "indexed": false,
          "internalType": "uint256",
          "name": "denominator",
          "type": "uint256"
        }
      ],
      "name": "DaoFeeSet",
      "type": "event"
    },
    {
      "anonymous": false,
      "inputs": [
        {
          "indexed": false,
          "internalType": "address",
          "name": "dhptSwap",
          "type": "address"
        }
      ],
      "name": "DhptSwapAddressSet",
      "type": "event"
    },
    {
      "anonymous": false,
      "inputs": [
        {
          "indexed": false,
          "internalType": "uint256",
          "name": "cooldown",
          "type": "uint256"
        }
      ],
      "name": "ExitFeeCooldownSet",
      "type": "event"
    },
    {
      "anonymous": false,
      "inputs": [
        {
          "indexed": false,
          "internalType": "uint256",
          "name": "numerator",
          "type": "uint256"
        },
        {
          "indexed": false,
          "internalType": "uint256",
          "name": "denominator",
          "type": "uint256"
        }
      ],
      "name": "ExitFeeSet",
      "type": "event"
    },
    {
      "anonymous": false,
      "inputs": [
        {
          "indexed": false,
          "internalType": "address",
          "name": "fundAddress",
          "type": "address"
        },
        {
          "indexed": false,
          "internalType": "bool",
          "name": "isPoolPrivate",
          "type": "bool"
        },
        {
          "indexed": false,
          "internalType": "string",
          "name": "fundName",
          "type": "string"
        },
        {
          "indexed": false,
          "internalType": "string",
          "name": "managerName",
          "type": "string"
        },
        {
          "indexed": false,
          "internalType": "address",
          "name": "manager",
          "type": "address"
        },
        {
          "indexed": false,
          "internalType": "uint256",
          "name": "time",
          "type": "uint256"
        },
        {
          "indexed": false,
          "internalType": "uint256",
          "name": "managerFeeNumerator",
          "type": "uint256"
        },
        {
          "indexed": false,
          "internalType": "uint256",
          "name": "managerFeeDenominator",
          "type": "uint256"
        }
      ],
      "name": "FundCreated",
      "type": "event"
    },
    {
      "anonymous": false,
      "inputs": [
        {
          "indexed": true,
          "internalType": "address",
          "name": "manager",
          "type": "address"
        },
        {
          "indexed": true,
          "internalType": "address",
          "name": "pool",
          "type": "address"
        }
      ],
      "name": "LogUpgrade",
      "type": "event"
    },
    {
      "anonymous": false,
      "inputs": [
        {
          "indexed": false,
          "internalType": "uint256",
          "name": "count",
          "type": "uint256"
        }
      ],
      "name": "MaximumSupportedAssetCountSet",
      "type": "event"
    },
    {
      "anonymous": false,
      "inputs": [
        {
          "indexed": true,
          "internalType": "address",
          "name": "previousOwner",
          "type": "address"
        },
        {
          "indexed": true,
          "internalType": "address",
          "name": "newOwner",
          "type": "address"
        }
      ],
      "name": "OwnershipTransferred",
      "type": "event"
    },
    {
      "anonymous": false,
      "inputs": [
        {
          "indexed": false,
          "internalType": "address",
          "name": "proxy",
          "type": "address"
        }
      ],
      "name": "ProxyCreated",
      "type": "event"
    },
    {
      "inputs": [],
      "name": "addressResolver",
      "outputs": [
        {
          "internalType": "contract IAddressResolver",
          "name": "",
          "type": "address"
        }
      ],
      "stateMutability": "view",
      "type": "function"
    },
    {
      "inputs": [
        {
          "internalType": "bool",
          "name": "_privatePool",
          "type": "bool"
        },
        {
          "internalType": "address",
          "name": "_manager",
          "type": "address"
        },
        {
          "internalType": "string",
          "name": "_managerName",
          "type": "string"
        },
        {
          "internalType": "string",
          "name": "_fundName",
          "type": "string"
        },
        {
          "internalType": "string",
          "name": "_fundSymbol",
          "type": "string"
        },
        {
          "internalType": "uint256",
          "name": "_managerFeeNumerator",
          "type": "uint256"
        },
        {
          "internalType": "bytes32[]",
          "name": "_supportedAssets",
          "type": "bytes32[]"
        }
      ],
      "name": "createFund",
      "outputs": [
        {
          "internalType": "address",
          "name": "",
          "type": "address"
        }
      ],
      "stateMutability": "nonpayable",
      "type": "function"
    },
    {
      "inputs": [
        {
          "internalType": "bytes",
          "name": "_data",
          "type": "bytes"
        },
        {
          "internalType": "uint8",
          "name": "_proxyType",
          "type": "uint8"
        }
      ],
      "name": "deploy",
      "outputs": [
        {
          "internalType": "address",
          "name": "",
          "type": "address"
        }
      ],
      "stateMutability": "nonpayable",
      "type": "function"
    },
    {
      "inputs": [
        {
          "internalType": "uint256",
          "name": "",
          "type": "uint256"
        }
      ],
      "name": "deployedFunds",
      "outputs": [
        {
          "internalType": "address",
          "name": "",
          "type": "address"
        }
      ],
      "stateMutability": "view",
      "type": "function"
    },
    {
      "inputs": [],
      "name": "deployedFundsLength",
      "outputs": [
        {
          "internalType": "uint256",
          "name": "",
          "type": "uint256"
        }
      ],
      "stateMutability": "view",
      "type": "function"
    },
    {
      "inputs": [],
      "name": "getAddressResolver",
      "outputs": [
        {
          "internalType": "contract IAddressResolver",
          "name": "",
          "type": "address"
        }
      ],
      "stateMutability": "view",
      "type": "function"
    },
    {
      "inputs": [],
      "name": "getDaoAddress",
      "outputs": [
        {
          "internalType": "address",
          "name": "",
          "type": "address"
        }
      ],
      "stateMutability": "view",
      "type": "function"
    },
    {
      "inputs": [],
      "name": "getDaoFee",
      "outputs": [
        {
          "internalType": "uint256",
          "name": "",
          "type": "uint256"
        },
        {
          "internalType": "uint256",
          "name": "",
          "type": "uint256"
        }
      ],
      "stateMutability": "view",
      "type": "function"
    },
    {
      "inputs": [],
      "name": "getDhptSwapAddress",
      "outputs": [
        {
          "internalType": "address",
          "name": "",
          "type": "address"
        }
      ],
      "stateMutability": "view",
      "type": "function"
    },
    {
      "inputs": [],
      "name": "getExitFee",
      "outputs": [
        {
          "internalType": "uint256",
          "name": "",
          "type": "uint256"
        },
        {
          "internalType": "uint256",
          "name": "",
          "type": "uint256"
        }
      ],
      "stateMutability": "view",
      "type": "function"
    },
    {
      "inputs": [],
      "name": "getExitFeeCooldown",
      "outputs": [
        {
          "internalType": "uint256",
          "name": "",
          "type": "uint256"
        }
      ],
      "stateMutability": "view",
      "type": "function"
    },
    {
      "inputs": [
        {
          "internalType": "uint8",
          "name": "_proxyType",
          "type": "uint8"
        }
      ],
      "name": "getLogic",
      "outputs": [
        {
          "internalType": "address",
          "name": "",
          "type": "address"
        }
      ],
      "stateMutability": "view",
      "type": "function"
    },
    {
      "inputs": [],
      "name": "getManagerFeeNumeratorChangeDelay",
      "outputs": [
        {
          "internalType": "uint256",
          "name": "",
          "type": "uint256"
        }
      ],
      "stateMutability": "view",
      "type": "function"
    },
    {
      "inputs": [],
      "name": "getMaximumManagerFee",
      "outputs": [
        {
          "internalType": "uint256",
          "name": "",
          "type": "uint256"
        },
        {
          "internalType": "uint256",
          "name": "",
          "type": "uint256"
        }
      ],
      "stateMutability": "view",
      "type": "function"
    },
    {
      "inputs": [],
      "name": "getMaximumManagerFeeNumeratorChange",
      "outputs": [
        {
          "internalType": "uint256",
          "name": "",
          "type": "uint256"
        }
      ],
      "stateMutability": "view",
      "type": "function"
    },
    {
      "inputs": [],
      "name": "getMaximumSupportedAssetCount",
      "outputs": [
        {
          "internalType": "uint256",
          "name": "",
          "type": "uint256"
        }
      ],
      "stateMutability": "view",
      "type": "function"
    },
    {
      "inputs": [
        {
          "internalType": "address",
          "name": "pool",
          "type": "address"
        }
      ],
      "name": "getPoolManagerFee",
      "outputs": [
        {
          "internalType": "uint256",
          "name": "",
          "type": "uint256"
        },
        {
          "internalType": "uint256",
          "name": "",
          "type": "uint256"
        }
      ],
      "stateMutability": "view",
      "type": "function"
    },
    {
      "inputs": [],
      "name": "getTrackingCode",
      "outputs": [
        {
          "internalType": "bytes32",
          "name": "",
          "type": "bytes32"
        }
      ],
      "stateMutability": "view",
      "type": "function"
    },
    {
      "inputs": [
        {
          "internalType": "contract IAddressResolver",
          "name": "_addressResolver",
          "type": "address"
        },
        {
          "internalType": "address",
          "name": "_poolLogic",
          "type": "address"
        },
        {
          "internalType": "address",
          "name": "_managerLogic",
          "type": "address"
        },
        {
          "internalType": "address",
          "name": "daoAddress",
          "type": "address"
        }
      ],
      "name": "initialize",
      "outputs": [],
      "stateMutability": "nonpayable",
      "type": "function"
    },
    {
      "inputs": [
        {
          "internalType": "address",
          "name": "",
          "type": "address"
        }
      ],
      "name": "isPool",
      "outputs": [
        {
          "internalType": "bool",
          "name": "",
          "type": "bool"
        }
      ],
      "stateMutability": "view",
      "type": "function"
    },
    {
      "inputs": [],
      "name": "managerFeeNumeratorChangeDelay",
      "outputs": [
        {
          "internalType": "uint256",
          "name": "",
          "type": "uint256"
        }
      ],
      "stateMutability": "view",
      "type": "function"
    },
    {
      "inputs": [],
      "name": "maximumManagerFeeNumeratorChange",
      "outputs": [
        {
          "internalType": "uint256",
          "name": "",
          "type": "uint256"
        }
      ],
      "stateMutability": "view",
      "type": "function"
    },
    {
      "inputs": [],
      "name": "owner",
      "outputs": [
        {
          "internalType": "address",
          "name": "",
          "type": "address"
        }
      ],
      "stateMutability": "view",
      "type": "function"
    },
    {
      "inputs": [
        {
          "internalType": "address",
          "name": "",
          "type": "address"
        }
      ],
      "name": "poolManagerFeeDenominator",
      "outputs": [
        {
          "internalType": "uint256",
          "name": "",
          "type": "uint256"
        }
      ],
      "stateMutability": "view",
      "type": "function"
    },
    {
      "inputs": [
        {
          "internalType": "address",
          "name": "",
          "type": "address"
        }
      ],
      "name": "poolManagerFeeNumerator",
      "outputs": [
        {
          "internalType": "uint256",
          "name": "",
          "type": "uint256"
        }
      ],
      "stateMutability": "view",
      "type": "function"
    },
    {
      "inputs": [],
      "name": "poolStorageVersion",
      "outputs": [
        {
          "internalType": "uint256",
          "name": "",
          "type": "uint256"
        }
      ],
      "stateMutability": "view",
      "type": "function"
    },
    {
      "inputs": [
        {
          "internalType": "address",
          "name": "",
          "type": "address"
        }
      ],
      "name": "poolVersion",
      "outputs": [
        {
          "internalType": "uint256",
          "name": "",
          "type": "uint256"
        }
      ],
      "stateMutability": "view",
      "type": "function"
    },
    {
      "inputs": [],
      "name": "renounceOwnership",
      "outputs": [],
      "stateMutability": "nonpayable",
      "type": "function"
    },
    {
      "inputs": [
        {
          "internalType": "address",
          "name": "_addressResolver",
          "type": "address"
        }
      ],
      "name": "setAddressResolver",
      "outputs": [],
      "stateMutability": "nonpayable",
      "type": "function"
    },
    {
      "inputs": [
        {
          "internalType": "address",
          "name": "daoAddress",
          "type": "address"
        }
      ],
      "name": "setDaoAddress",
      "outputs": [],
      "stateMutability": "nonpayable",
      "type": "function"
    },
    {
      "inputs": [
        {
          "internalType": "uint256",
          "name": "numerator",
          "type": "uint256"
        },
        {
          "internalType": "uint256",
          "name": "denominator",
          "type": "uint256"
        }
      ],
      "name": "setDaoFee",
      "outputs": [],
      "stateMutability": "nonpayable",
      "type": "function"
    },
    {
      "inputs": [
        {
          "internalType": "address",
          "name": "dhptSwapAddress",
          "type": "address"
        }
      ],
      "name": "setDhptSwapAddress",
      "outputs": [],
      "stateMutability": "nonpayable",
      "type": "function"
    },
    {
      "inputs": [
        {
          "internalType": "uint256",
          "name": "numerator",
          "type": "uint256"
        },
        {
          "internalType": "uint256",
          "name": "denominator",
          "type": "uint256"
        }
      ],
      "name": "setExitFee",
      "outputs": [],
      "stateMutability": "nonpayable",
      "type": "function"
    },
    {
      "inputs": [
        {
          "internalType": "uint256",
          "name": "cooldown",
          "type": "uint256"
        }
      ],
      "name": "setExitFeeCooldown",
      "outputs": [],
      "stateMutability": "nonpayable",
      "type": "function"
    },
    {
      "inputs": [
        {
          "internalType": "address",
          "name": "_poolLogic",
          "type": "address"
        },
        {
          "internalType": "address",
          "name": "_poolManagerLogic",
          "type": "address"
        }
      ],
      "name": "setLogic",
      "outputs": [],
      "stateMutability": "nonpayable",
      "type": "function"
    },
    {
      "inputs": [
        {
          "internalType": "uint256",
          "name": "delay",
          "type": "uint256"
        }
      ],
      "name": "setManagerFeeNumeratorChangeDelay",
      "outputs": [],
      "stateMutability": "nonpayable",
      "type": "function"
    },
    {
      "inputs": [
        {
          "internalType": "uint256",
          "name": "amount",
          "type": "uint256"
        }
      ],
      "name": "setMaximumManagerFeeNumeratorChange",
      "outputs": [],
      "stateMutability": "nonpayable",
      "type": "function"
    },
    {
      "inputs": [
        {
          "internalType": "uint256",
          "name": "count",
          "type": "uint256"
        }
      ],
      "name": "setMaximumSupportedAssetCount",
      "outputs": [],
      "stateMutability": "nonpayable",
      "type": "function"
    },
    {
      "inputs": [
        {
          "internalType": "address",
          "name": "pool",
          "type": "address"
        },
        {
          "internalType": "uint256",
          "name": "numerator",
          "type": "uint256"
        }
      ],
      "name": "setPoolManagerFeeNumerator",
      "outputs": [],
      "stateMutability": "nonpayable",
      "type": "function"
    },
    {
      "inputs": [
        {
          "internalType": "bytes32",
          "name": "code",
          "type": "bytes32"
        }
      ],
      "name": "setTrackingCode",
      "outputs": [],
      "stateMutability": "nonpayable",
      "type": "function"
    },
    {
      "inputs": [
        {
          "internalType": "address",
          "name": "newOwner",
          "type": "address"
        }
      ],
      "name": "transferOwnership",
      "outputs": [],
      "stateMutability": "nonpayable",
      "type": "function"
    },
    {
      "inputs": [
        {
          "internalType": "uint256",
          "name": "startIndex",
          "type": "uint256"
        },
        {
          "internalType": "uint256",
          "name": "endIndex",
          "type": "uint256"
        },
        {
          "internalType": "uint256",
          "name": "sourceVersion",
          "type": "uint256"
        },
        {
          "internalType": "uint256",
          "name": "targetVersion",
          "type": "uint256"
        },
        {
          "internalType": "bytes",
          "name": "data",
          "type": "bytes"
        }
      ],
      "name": "upgradePoolBatch",
      "outputs": [],
      "stateMutability": "nonpayable",
      "type": "function"
    }
  ],
  "bytecode": "0x60806040523480156200001c576000806200001962000023565b50505b5062000090565b632a2a7adb598160e01b8152600481016020815285602082015260005b868110156200005d57808601518282016040015260200162000040565b506020828760640184336000905af158600e01573d6000803e3d6000fd5b3d6001141558600a015760016000f35b505050565b613e5a80620000a06000396000f3fe60806040523480156200001c5760008062000019620031b2565b50505b5060043610620002a35760003560e01c8063973f65ea1162000170578063bfeaf71d11620000e0578063ecef89d5116200009e578063ecef89d51462000b7a578063eda96ea91462000ba8578063eec16c441462000bb2578063f2fde38b1462000bdd578063f8c8765e1462000c11578063fcf616571462000c5d57620002a3565b8063bfeaf71d1462000afd578063e60eb4121462000b07578063e99c0fa61462000b3b578063ebee461d1462000b66578063ecb0116a1462000b7057620002a3565b8063aa12ae4d116200012e578063aa12ae4d1462000a35578063ad3905661462000a3f578063b7a545261462000a6a578063bcb01f441462000a9e578063bee37e521462000ac957620002a3565b8063973f65ea14620009675780639a068bd6146200099b5780639a3cac6a14620009c65780639cada6e414620009fa5780639f49b60e1462000a0457620002a3565b8063482812721162000218578063715018a611620001d6578063715018a614620008ba57806371c1c54914620008c4578063771d1baf14620008ce578063808ae5fb14620008ff5780638da5cb5b146200093b57806394d0d23b146200094557620002a3565b806348281272146200054057806349f7c02d146200082a5780635556ee5514620008345780635b16ebb714620008685780635c9bfc2b14620008b057620002a3565b80631430238711620002665780631430238714620003455780631d68702d14620003795780631e666d1314620003835780631e8e8bca146200043b57806345812ca5146200046657620002a3565b8063046b72c414620002b357806305a2ee2a14620002ef5780630bf99bd914620003155780630f6559c4146200033157806310bf69dc146200033b575b600080620002b0620031b2565b50505b620002ed60048036036040811015620002d657600080620002d3620031b2565b50505b506001600160a01b03813516906020013562000c67565b005b620002f962000e7f565b6040516001600160a01b03909116815260200160405180910390f35b6200031f62000ea0565b60405190815260200160405180910390f35b6200031f62000eb5565b6200031f62000ec4565b620002ed60048036036020811015620003685760008062000365620031b2565b50505b50356001600160a01b031662000ed0565b620002f962000f90565b620002ed600480360360a0811015620003a657600080620003a3620031b2565b50505b81359160208101359160408201359160608101359181019060a081016080820135600160201b811115620003e457600080620003e1620031b2565b50505b8201836020820111156200040257600080620003ff620031b2565b50505b803590602001918460018302840111600160201b831117156200042f576000806200042c620031b2565b50505b50909250905062000fb4565b620002ed600480360360208110156200045e576000806200045b620031b2565b50505b503562001157565b620002f960048036036040811015620004895760008062000486620031b2565b50505b810190602081018135600160201b811115620004af57600080620004ac620031b2565b50505b820183602082011115620004cd57600080620004ca620031b2565b50505b803590602001918460018302840111600160201b83111715620004fa57600080620004f7620031b2565b50505b91908080601f01602080910402602001604051908101604052818152929190602084018383808284376000920191909152509295505050903560ff169150620011eb9050565b620002f9600480360360e0811015620005635760008062000560620031b2565b50505b81351515916001600160a01b0360208201351691810190606081016040820135600160201b811115620005a0576000806200059d620031b2565b50505b820183602082011115620005be57600080620005bb620031b2565b50505b803590602001918460018302840111600160201b83111715620005eb57600080620005e8620031b2565b50505b91908080601f01602080910402602001604051908101604052818152929190602084018383808284376000920191909152509295949360208101935035915050600160201b811115620006485760008062000645620031b2565b50505b820183602082011115620006665760008062000663620031b2565b50505b803590602001918460018302840111600160201b83111715620006935760008062000690620031b2565b50505b91908080601f01602080910402602001604051908101604052818152929190602084018383808284376000920191909152509295949360208101935035915050600160201b811115620006f057600080620006ed620031b2565b50505b8201836020820111156200070e576000806200070b620031b2565b50505b803590602001918460018302840111600160201b831117156200073b5760008062000738620031b2565b50505b91908080601f016020809104026020016040519081016040528181529291906020840183838082843760009201919091525092958435959094909350604081019250602001359050600160201b811115620007a0576000806200079d620031b2565b50505b820183602082011115620007be57600080620007bb620031b2565b50505b803590602001918460208302840111600160201b83111715620007eb57600080620007e8620031b2565b50505b91908080602002602001604051908101604052809392919081815260200183836020028082843760009201919091525092955062001202945050505050565b6200031f62001836565b6200031f60048036036020811015620008575760008062000854620031b2565b50505b50356001600160a01b031662001849565b6200089c600480360360208110156200088b5760008062000888620031b2565b50505b50356001600160a01b031662001863565b604051901515815260200160405180910390f35b6200031f6200188c565b620002ed6200189a565b620002f9620019ae565b620002ed60048036036040811015620008f157600080620008ee620031b2565b50505b5080359060200135620019bd565b620002ed6004803603604081101562000922576000806200091f620031b2565b50505b506001600160a01b038135811691602001351662001a4f565b620002f962001b4b565b6200094f62001b5a565b60405191825260208201526040908101905180910390f35b620002ed600480360360208110156200098a5760008062000987620031b2565b50505b50356001600160a01b031662001b7d565b620002f960048036036020811015620009be57600080620009bb620031b2565b50505b503562001c0e565b620002ed60048036036020811015620009e957600080620009e6620031b2565b50505b50356001600160a01b031662001c3d565b6200094f62001cce565b620002ed6004803603604081101562000a275760008062000a24620031b2565b50505b508035906020013562001ce9565b6200031f62001d7b565b620002ed6004803603602081101562000a625760008062000a5f620031b2565b50505b503562001d89565b6200094f6004803603602081101562000a8d5760008062000a8a620031b2565b50505b50356001600160a01b031662001e1a565b620002ed6004803603602081101562000ac15760008062000abe620031b2565b50505b503562001efa565b6200031f6004803603602081101562000aec5760008062000ae9620031b2565b50505b50356001600160a01b031662001f8e565b6200031f62001fa8565b6200031f6004803603602081101562000b2a5760008062000b27620031b2565b50505b50356001600160a01b031662001fb4565b620002ed6004803603602081101562000b5e5760008062000b5b620031b2565b50505b503562001fce565b6200031f62002062565b6200094f62002070565b620002f96004803603602081101562000b9d5760008062000b9a620031b2565b50505b503560ff166200208b565b6200031f620020d3565b620002ed6004803603602081101562000bd55760008062000bd2620031b2565b50505b5035620020e1565b620002ed6004803603602081101562000c005760008062000bfd620031b2565b50505b50356001600160a01b031662002172565b620002ed6004803603608081101562000c345760008062000c31620031b2565b50505b506001600160a01b038135811691602081013582169160408201358116916060013516620022b7565b620002f9620024a8565b5a62000c726200321f565b6001600160a01b0316826001600160a01b031614801562000cdc575060d060005a62000c9d6200321f565b6001600160a01b03166001600160a01b0316815260200190815260200160002060009062000cca62003276565b906101000a900460ff16151560011515145b62000d385760405162461bcd60e51b815260206004820152601e60248201527f6f6e6c79206120706f6f6c2063616e206368616e6765206f776e20666565000060448201526064016040518091039062000d35620031b2565b50505b6001600160a01b038216600090815260d06020526040902060009062000d5d62003276565b906101000a900460ff161515600115151462000dca5760405162461bcd60e51b815260206004820152601e60248201527f737570706c6965642061646472657373206973206e6f74206120706f6f6c000060448201526064016040518091039062000dc7620031b2565b50505b62000e0360dd62000dda62003276565b6001600160a01b038416600090815260d36020526040902062000dfc62003276565b90620024b7565b81111562000e595760405162461bcd60e51b81526020600482015260146024820152730dac2dcc2cecae440cccaca40e8dede40d0d2ced60631b60448201526064016040518091039062000e56620031b2565b50505b62000e7b5a62000e686200321f565b8260d262000e7562003276565b62002522565b5050565b600060cb62000e8d62003276565b906101000a90046001600160a01b031681565b600060cc8062000eaf62003276565b91505090565b60db62000ec162003276565b81565b60dd62000ec162003276565b62000eda620025e4565b6001600160a01b03166000606562000ef162003276565b906101000a90046001600160a01b03166001600160a01b03161462000f565760405162461bcd60e51b8152602060048201819052602482015260008051602062003e0c83398151915260448201526064016040518091039062000f53620031b2565b50505b8060cb60018162000f6662003276565b816001600160a01b0302191690836001600160a01b031602179062000f8a620032c3565b50505050565b60008060cd62000f9f62003276565b906101000a90046001600160a01b0316905090565b62000fbe620025e4565b6001600160a01b03166000606562000fd562003276565b906101000a90046001600160a01b03166001600160a01b0316146200103a5760405162461bcd60e51b8152602060048201819052602482015260008051602062003e0c83398151915260448201526064016040518091039062001037620031b2565b50505b84861115801562001058575060cc806200105362003276565b905086105b801562001072575060cc806200106d62003276565b905085105b620010bf5760405162461bcd60e51b815260206004820152600e60248201526d696e76616c696420626f756e647360901b604482015260640160405180910390620010bc620031b2565b50505b855b8581116200114e57600060cc8281620010d962003276565b8110620010e257fe5b90600052602060002001600090620010f962003276565b6001600160a01b036101009290920a900416600081815260da6020529091508690604090206200112862003276565b1462001135575062001145565b6200114381858588620025f1565b505b600101620010c1565b50505050505050565b62001161620025e4565b6001600160a01b0316600060656200117862003276565b906101000a90046001600160a01b03166001600160a01b031614620011dd5760405162461bcd60e51b8152602060048201819052602482015260008051602062003e0c833981519152604482015260640160405180910390620011da620031b2565b50505b620011e88162002781565b50565b6000620011f983836200278f565b90505b92915050565b600060605a63996d79a5598160e01b8152602081600483336000905af158600e01573d6000803e3d6000fd5b3d6001141558600a015760016000f35b8051925060005b60408110156200125e5760008282015260200162001245565b505050888860cb6000906200127262003276565b906101000a90046001600160a01b03168660405160240180866001600160a01b03168152602001856001600160a01b0316815260200180602001846001600160a01b0316815260200180602001838103835286818151815260200191508051906020019080838360005b83811015620012f6578082015183820152602001620012dc565b50505050905090810190601f168015620013245780820380516001836020036101000a031916815260200191505b50838103825284818151815260200191508051906020019060200280838360005b838110156200135f57808201518382015260200162001345565b50505050905001975050505050505050604051601f1981830301815260409190915263eb94917d60e01b6020820180516001600160e01b0316909117905290506000620013ae826001620011eb565b905060605a63996d79a5598160e01b8152602081600483336000905af158600e01573d6000803e3d6000fd5b3d6001141558600a015760016000f35b8051925060005b60408110156200140a57600082820152602001620013f1565b5050508b8b8b8b8b8760405160240180886001600160a01b031681526020018715158152602001866001600160a01b03168152602001806020018060200180602001856001600160a01b03168152602001848103845288818151815260200191508051906020019080838360005b838110156200149257808201518382015260200162001478565b50505050905090810190601f168015620014c05780820380516001836020036101000a031916815260200191505b50848103835287818151815260200191508051906020019080838360005b83811015620014f8578082015183820152602001620014de565b50505050905090810190601f168015620015265780820380516001836020036101000a031916815260200191505b50848103825286818151815260200191508051906020019080838360005b838110156200155e57808201518382015260200162001544565b50505050905090810190601f1680156200158c5780820380516001836020036101000a031916815260200191505b509a5050505050505050505050604051601f198183030181526040919091526302ce12f960e51b6020820180516001600160e01b0316909117905290506000620015d8826002620011eb565b90508060cc80600181620015eb62003276565b018082620015f8620032c3565b5050600092835260001901916020915020016001816200161762003276565b816001600160a01b0302191690836001600160a01b03160217906200163b620032c3565b5050506001600160a01b038116600090815260d0602052600190604090206001816200166662003276565b8160ff021916908315150217906200167d620032c3565b50505060db6200168c62003276565b6001600160a01b038216600090815260da602052604090208190620016b0620032c3565b505050620016c5818860d262000e7562003276565b7f73a0638fe578fc759744633aa170a433061ca2cc1bb855d116c506e04a29901f818d8b8d8f5a620016f662003312565b8d60d26200170362003276565b60405180896001600160a01b0316815260200188151581526020018060200180602001876001600160a01b03168152602001868152602001858152602001848152602001838103835289818151815260200191508051906020019080838360005b838110156200177e57808201518382015260200162001764565b50505050905090810190601f168015620017ac5780820380516001836020036101000a031916815260200191505b50838103825288818151815260200191508051906020019080838360005b83811015620017e4578082015183820152602001620017ca565b50505050905090810190601f168015620018125780820380516001836020036101000a031916815260200191505b509a505050505050505050505060405180910390a19b9a5050505050505050505050565b600060d96200184462003276565b905090565b60da602052806000526040600020905062000ec162003276565b60d0602052806000526040600020600091506200187f62003276565b906101000a900460ff1681565b600060dd6200184462003276565b620018a4620025e4565b6001600160a01b031660006065620018bb62003276565b906101000a90046001600160a01b03166001600160a01b031614620019205760405162461bcd60e51b8152602060048201819052602482015260008051602062003e0c8339815191526044820152606401604051809103906200191d620031b2565b50505b60008060656200192f62003276565b906101000a90046001600160a01b03166001600160a01b03167f8be0079c531659141344cd1fd0a4f28419497f9722a3daafe3b4186f6b6457e060405160405180910390a3600060656001816200198562003276565b816001600160a01b0302191690836001600160a01b0316021790620019a9620032c3565b505050565b60008060cb62000f9f62003276565b620019c7620025e4565b6001600160a01b031660006065620019de62003276565b906101000a90046001600160a01b03166001600160a01b03161462001a435760405162461bcd60e51b8152602060048201819052602482015260008051602062003e0c83398151915260448201526064016040518091039062001a40620031b2565b50505b62000e7b82826200294b565b62001a59620025e4565b6001600160a01b03166000606562001a7062003276565b906101000a90046001600160a01b03166001600160a01b03161462001ad55760405162461bcd60e51b8152602060048201819052602482015260008051602062003e0c83398151915260448201526064016040518091039062001ad2620031b2565b50505b81609760018162001ae562003276565b816001600160a01b0302191690836001600160a01b031602179062001b09620032c3565b50505080609860006101000a8162001b2062003276565b816001600160a01b0302191690836001600160a01b031602179062001b44620032c3565b5050505050565b600080606562000f9f62003276565b60008060d162001b6962003276565b60d262001b7562003276565b915091509091565b62001b87620025e4565b6001600160a01b03166000606562001b9e62003276565b906101000a90046001600160a01b03166001600160a01b03161462001c035760405162461bcd60e51b8152602060048201819052602482015260008051602062003e0c83398151915260448201526064016040518091039062001c00620031b2565b50505b620011e881620029ff565b60cc818162001c1c62003276565b811062001c2557fe5b906000526020600020016000915062000e8d62003276565b62001c47620025e4565b6001600160a01b03166000606562001c5e62003276565b906101000a90046001600160a01b03166001600160a01b03161462001cc35760405162461bcd60e51b8152602060048201819052602482015260008051602062003e0c83398151915260448201526064016040518091039062001cc0620031b2565b50505b620011e88162002a76565b60008060ce62001cdd62003276565b60cf62001b7562003276565b62001cf3620025e4565b6001600160a01b03166000606562001d0a62003276565b906101000a90046001600160a01b03166001600160a01b03161462001d6f5760405162461bcd60e51b8152602060048201819052602482015260008051602062003e0c83398151915260448201526064016040518091039062001d6c620031b2565b50505b62000e7b828262002aed565b600060d86200184462003276565b62001d93620025e4565b6001600160a01b03166000606562001daa62003276565b906101000a90046001600160a01b03166001600160a01b03161462001e0f5760405162461bcd60e51b8152602060048201819052602482015260008051602062003e0c83398151915260448201526064016040518091039062001e0c620031b2565b50505b620011e88162002ba1565b6001600160a01b038116600090815260d0602052806040812060009062001e4062003276565b906101000a900460ff161515600115151462001ead5760405162461bcd60e51b815260206004820152601e60248201527f737570706c6965642061646472657373206973206e6f74206120706f6f6c000060448201526064016040518091039062001eaa620031b2565b50505b6001600160a01b038316600090815260d36020526040902062001ecf62003276565b6001600160a01b038416600090815260d46020526040902062001ef162003276565b91509150915091565b62001f04620025e4565b6001600160a01b03166000606562001f1b62003276565b906101000a90046001600160a01b03166001600160a01b03161462001f805760405162461bcd60e51b8152602060048201819052602482015260008051602062003e0c83398151915260448201526064016040518091039062001f7d620031b2565b50505b808060de62000f8a620032c3565b60d3602052806000526040600020905062000ec162003276565b60de62000ec162003276565b60d4602052806000526040600020905062000ec162003276565b62001fd8620025e4565b6001600160a01b03166000606562001fef62003276565b906101000a90046001600160a01b03166001600160a01b031614620020545760405162461bcd60e51b8152602060048201819052602482015260008051602062003e0c83398151915260448201526064016040518091039062002051620031b2565b50505b808060dd62000f8a620032c3565b600060de6200184462003276565b60008060d56200207f62003276565b60d662001b7562003276565b60008160ff1660011415620020c05760006098620020a862003276565b906101000a90046001600160a01b03169050620020ce565b60006097620020a862003276565b919050565b600060d76200184462003276565b620020eb620025e4565b6001600160a01b0316600060656200210262003276565b906101000a90046001600160a01b03166001600160a01b031614620021675760405162461bcd60e51b8152602060048201819052602482015260008051602062003e0c83398151915260448201526064016040518091039062002164620031b2565b50505b620011e88162002be8565b6200217c620025e4565b6001600160a01b0316600060656200219362003276565b906101000a90046001600160a01b03166001600160a01b031614620021f85760405162461bcd60e51b8152602060048201819052602482015260008051602062003e0c833981519152604482015260640160405180910390620021f5620031b2565b50505b6001600160a01b0381166200224a5760405162461bcd60e51b815260040180806020018281038252602681526020018062003de6602691396040019150506040518091039062002247620031b2565b50505b6001600160a01b038116600060656200226262003276565b906101000a90046001600160a01b03166001600160a01b03167f8be0079c531659141344cd1fd0a4f28419497f9722a3daafe3b4186f6b6457e060405160405180910390a380606560018162000f6662003276565b60016000620022c562003276565b906101000a900460ff1680620022e05750620022e062002c2f565b80620023005750600080620022f462003276565b906101000a900460ff16155b620023485760405162461bcd60e51b815260040180806020018281038252602e81526020018062003e2c602e91396040019150506040518091039062002345620031b2565b50505b60006001816200235762003276565b906101000a900460ff161590508015620023c65760016000610100816200237d62003276565b8160ff0219169083151502179062002394620032c3565b50505060016000806101000a81620023ab62003276565b8160ff02191690831515021790620023c2620032c3565b5050505b620023d2848462002ca4565b8460cb600181620023e262003276565b816001600160a01b0302191690836001600160a01b031602179062002406620032c3565b505050620024148262002a76565b6200242461138861271062002cae565b62002432600a60646200294b565b6200244160056103e862002aed565b6200244f6201518062002ba1565b6200245b600a62002be8565b6200246f6544484544474560d01b62002781565b801562001b4457600080610100816200248762003276565b8160ff021916908315150217906200249e620032c3565b5050505050505050565b60008060dc62000f9f62003276565b600082820183811015620011f95760405162461bcd60e51b815260206004820152601b60248201527f536166654d6174683a206164646974696f6e206f766572666c6f77000000000060448201526064016040518091039062002519620031b2565b50509392505050565b8082111580156200253e575060d16200253a62003276565b8211155b6200258d5760405162461bcd60e51b815260206004820152601060248201526f34b73b30b634b210333930b1ba34b7b760811b6044820152606401604051809103906200258a620031b2565b50505b6001600160a01b038316600090815260d36020528290604090208190620025b3620032c3565b5050506001600160a01b038316600090815260d46020528190604090208190620025dc620032c3565b505050505050565b60005a620018446200321f565b6001600160a01b038416620026485760405162461bcd60e51b815260206004820152600e60248201526d1d185c99d95d0b5a5b9d985b1a5960921b60448201526064016040518091039062002645620031b2565b50505b81620026945760405162461bcd60e51b815260206004820152600c60248201526b19185d184b5a5b9d985b1a5960a21b60448201526064016040518091039062002691620031b2565b50505b606083838080601f01602080910402602001604051908101604052818152929190602084018383808284376000920182905250939450839250849150505160208401885a620026e262003359565b5050505050801560018114620026f8576200270f565b3d806000803e8060006200270b620031b2565b5050505b5050846001600160a01b03165a620027266200321f565b6001600160a01b03167f78a9b536049c39a00adaf57016b1376c99dd48a0faf2cef23690232f21ce42cc60405160405180910390a36001600160a01b038516600090815260da60205282906040902081906200249e620032c3565b808060d962000f8a620032c3565b6000806200279c62002d2e565b90507efffc2da0b561cae30d9826d37709e9421c4725faebc226cbbb7ef5fc5e7349816040516001600160a01b03909116815260200160405180910390a1806001600160a01b031663e74a474a5a63996d79a5598160e01b8152602081600483336000905af158600e01573d6000803e3d6000fd5b3d6001141558600a015760016000f35b8051925060005b6040811015620028415760008282015260200162002828565b50505086866040518463ffffffff1660e01b815260040180846001600160a01b03168152602001806020018360ff168152602001828103825284818151815260200191508051906020019080838360005b83811015620028ac57808201518382015260200162002892565b50505050905090810190601f168015620028da5780820380516001836020036101000a031916815260200191505b5094505050505060006040518083038160008780620028f86200344f565b15801562002910576000806200290d620031b2565b50505b505a6200291c6200349c565b5050505050501580156200293f573d6000803e3d60006200293c620031b2565b50505b50929695505050505050565b808211156200299e5760405162461bcd60e51b815260206004820152601060248201526f34b73b30b634b210333930b1ba34b7b760811b6044820152606401604051809103906200299b620031b2565b50505b818060ce620029ac620032c3565b5050508060cf8190620029be620032c3565b5050507fb10da2958bf5ec1bff3164ff753a09e0460ed44d3abf73e79b817b500ed0f2f1828260405191825260208201526040908101905180910390a15050565b8060dc60018162002a0f62003276565b816001600160a01b0302191690836001600160a01b031602179062002a33620032c3565b5050507f9bf656ec65146ae8ac6e269af401761bdf7d2b9e09c00ecf39f6552394d52999816040516001600160a01b03909116815260200160405180910390a150565b8060cd60018162002a8662003276565b816001600160a01b0302191690836001600160a01b031602179062002aaa620032c3565b5050507ff1034ad6b4d45dc33a4142b9c51c2b7f89bf4a410696e426cc0f3224869e0aca816040516001600160a01b03909116815260200160405180910390a150565b8082111562002b405760405162461bcd60e51b815260206004820152601060248201526f34b73b30b634b210333930b1ba34b7b760811b60448201526064016040518091039062002b3d620031b2565b50505b818060d562002b4e620032c3565b5050508060d6819062002b60620032c3565b5050507fc84081a9c94a2300cdec20e3d60952b84e96e11edf24cb65ba26b7f8455f29db828260405191825260208201526040908101905180910390a15050565b808060d762002baf620032c3565b5050507f3c6bcf0eff145e812fd913d4220f52c2a428932b0d2c196ab56e3e005ae2ace48160405190815260200160405180910390a150565b808060d862002bf6620032c3565b5050507f0cd8fcb5e08d7632af461f0ad793e5c63dc0d7595c301f5880650175e37a87488160405190815260200160405180910390a150565b6000805a63996d79a5598160e01b8152602081600483336000905af158600e01573d6000803e3d6000fd5b3d6001141558600a015760016000f35b8051925060005b604081101562002c8a5760008282015260200162002c71565b505050905060008162002c9c6200344f565b159250505090565b62001ad562002d95565b6000811162002d0e5760405162461bcd60e51b815260206004820152601c60248201527f64656e6f6d696e61746f72206d75737420626520706f7369746976650000000060448201526064016040518091039062002d0b620031b2565b50505b818060d162002d1c620032c3565b5050508060d2819062001b44620032c3565b600080606060405162002d44602082016200356a565b601f1982820381018352601f909101166040529050805160208201600062002d6b62003578565b505091508162002d7a6200344f565b62002d8f5760008062002d8c620031b2565b50505b50905090565b6001600062002da362003276565b906101000a900460ff168062002dbe575062002dbe62002c2f565b8062002dde575060008062002dd262003276565b906101000a900460ff16155b62002e265760405162461bcd60e51b815260040180806020018281038252602e81526020018062003e2c602e91396040019150506040518091039062002e23620031b2565b50505b600060018162002e3562003276565b906101000a900460ff16159050801562002ea457600160006101008162002e5b62003276565b8160ff0219169083151502179062002e72620032c3565b50505060016000806101000a8162002e8962003276565b8160ff0219169083151502179062002ea0620032c3565b5050505b62002eae62002ee7565b62002eb86200300d565b8015620011e8576000806101008162002ed062003276565b8160ff0219169083151502179062000f8a620032c3565b6001600062002ef562003276565b906101000a900460ff168062002f10575062002f1062002c2f565b8062002f30575060008062002f2462003276565b906101000a900460ff16155b62002f785760405162461bcd60e51b815260040180806020018281038252602e81526020018062003e2c602e91396040019150506040518091039062002f75620031b2565b50505b600060018162002f8762003276565b906101000a900460ff16159050801562002eb857600160006101008162002fad62003276565b8160ff0219169083151502179062002fc4620032c3565b50505060016000806101000a8162002fdb62003276565b8160ff0219169083151502179062002ff2620032c3565b5050508015620011e8576000806101008162002ed062003276565b600160006200301b62003276565b906101000a900460ff16806200303657506200303662002c2f565b806200305657506000806200304a62003276565b906101000a900460ff16155b6200309e5760405162461bcd60e51b815260040180806020018281038252602e81526020018062003e2c602e9139604001915050604051809103906200309b620031b2565b50505b6000600181620030ad62003276565b906101000a900460ff1615905080156200311c576001600061010081620030d362003276565b8160ff02191690831515021790620030ea620032c3565b50505060016000806101000a816200310162003276565b8160ff0219169083151502179062003118620032c3565b5050505b600062003128620025e4565b90508060656001816200313a62003276565b816001600160a01b0302191690836001600160a01b03160217906200315e620032c3565b5050506001600160a01b03811660007f8be0079c531659141344cd1fd0a4f28419497f9722a3daafe3b4186f6b6457e060405160405180910390a3508015620011e8576000806101008162002ed062003276565b632a2a7adb598160e01b8152600481016020815285602082015260005b86811015620031ec578086015182820160400152602001620031cf565b506020828760640184336000905af158600e01573d6000803e3d6000fd5b3d6001141558600a015760016000f35b505050565b6373509064598160e01b8152602081600483336000905af158600e01573d6000803e3d6000fd5b3d6001141558600a015760016000f35b8051935060005b6040811015620019a9576000828201526020016200325d565b6303daa959598160e01b8152836004820152602081602483336000905af158600e01573d6000803e3d6000fd5b3d6001141558600a015760016000f35b805160008252935060206200325d565b6322bd64c0598160e01b8152836004820152846024820152600081604483336000905af158600e01573d6000803e3d6000fd5b3d6001141558600a015760016000f35b6000815260206200325d565b63bdbf8c36598160e01b8152602081600483336000905af158600e01573d6000803e3d6000fd5b3d6001141558600a015760016000f35b805160008252935060206200325d565b63ffe73914598160e01b81526200338d565b8080831115620011fc575090919050565b8080831015620011fc575090919050565b836004820152846024820152606060448201528660648201526084810160005b88811015620033c7578088015182820152602001620033ad565b506060828960a40184336000905af158600e01573d6000803e3d6000fd5b3d6001141558600a015760016000f35b815160408301513d6000853e8b8b82606087013350600060045af150596200341e8d3d6200337c565b8c016200342c81876200336b565b5b828110156200344357600081526020016200342d565b50929c50505050505050565b638435035b598160e01b8152836004820152602081602483336000905af158600e01573d6000803e3d6000fd5b3d6001141558600a015760016000f35b805160008252935060206200325d565b6385979f76598160e01b8152836004820152846024820152606060448201528760648201526084810160005b89811015620034e2578089015182820152602001620034c8565b506060828a60a40184336000905af158600e01573d6000803e3d6000fd5b3d6001141558600a015760016000f35b815160408301513d6000853e8c8c82606087013350600060045af15059620035398e3d6200337c565b8d016200354781876200336b565b5b828110156200355e576000815260200162003548565b50929d50505050505050565b6107e880620035fe83390190565b6314aa2ff7598160e01b8152600481016020815286602082015260005b87811015620035b257808701518282016040015260200162003595565b506020828860640184336000905af158600e01573d6000803e3d6000fd5b3d6001141558600a015760016000f35b8151965059825b8181101562001b445760008152602001620035e756fe60806040523480156100195760008061001661001f565b50505b5061008a565b632a2a7adb598160e01b8152600481016020815285602082015260005b8681101561005757808601518282016040015260200161003c565b506020828760640184336000905af158600e01573d6000803e3d6000fd5b3d6001141558600a015760016000f35b505050565b61074f806100996000396000f3fe6080604052600436106100225760003560e01c8063e74a474a1461003957610031565b366100315761002f610117565b005b61002f610117565b61002f60048036036060811015610058576000806100556104b5565b50505b6001600160a01b03823516919081019060408101602082013564010000000081111561008c576000806100896104b5565b50505b8201836020820111156100a7576000806100a46104b5565b50505b803590602001918460018302840111640100000000831117156100d2576000806100cf6104b5565b50505b91908080601f01602080910402602001604051908101604052818152929190602084018383808284376000920191909152509295505050903560ff1691506101319050565b61011f61012f565b61012f61012a6102c3565b6103c4565b565b600061013b6102c3565b6001600160a01b03161461018e5760405162461bcd60e51b815260206004820152600d60248201526c496d706c206e6f74207a65726f60981b60448201526064016040518091039061018b6104b5565b50505b61019783610401565b6101a081610479565b6000825111156102be5760006101b46102c3565b6001600160a01b0316836040518082805190602001908083835b602083106101ed5780518252601f1990920191602091820191016101ce565b6001836020036101000a038019825116818451168082178552505050505050905001915050600060405180830381855a610225610520565b50505050509150503d8060008114610259576040513d603f01601f191681016040523d815291503d6000602084013e61025e565b606091505b50509050806102bc5760405162461bcd60e51b815260206004820152601a60248201527f496d706c656d656e746174696f6e20696e6974206661696c65640000000000006044820152606401604051809103906102b96104b5565b50505b505b505050565b6000807f360894a13ba1a3210667c828492db98dca3e2076cc3735a920a3ca505d382bbc806102f061060d565b91506001600160a01b03821661030b576000925050506103c1565b816001600160a01b031663ecef89d5610322610488565b6040516001600160e01b031960e084901b16815260ff90911660048201526024016020604051808303818680610356610668565b15801561036b576000806103686104b5565b50505b505a6103756106b4565b5050505050158015610394573d6000803e3d60006103916104b5565b50505b505050506040513d60208110156103b3576000806103b06104b5565b50505b810190808051955050505050505b90565b3660008037600080366000845a6103d9610520565b50505050503d6000803e8080156103ef573d6000f35b3d60006103fa6104b5565b5050505050565b61040a816104a0565b61044e5760405162461bcd60e51b815260040180806020018281038252603b815260200180610714603b91396040019150506040518091039061044b6104b5565b50505b7f360894a13ba1a3210667c828492db98dca3e2076cc3735a920a3ca505d382bbc81816102bc6106c5565b600160fc1b81816102bc6106c5565b600080600160fc1b8061049961060d565b9250505090565b600080826104ac610668565b15159392505050565b632a2a7adb598160e01b8152600481016020815285602082015260005b868110156104ed5780860151828201604001526020016104d2565b506020828760640184336000905af158600e01573d6000803e3d6000fd5b3d6001141558600a015760016000f35b505050565b63ffe73914598160e01b8152610553565b808083111561053d5750815b92915050565b808083101561053d575090919050565b836004820152846024820152606060448201528660648201526084810160005b8881101561058b578088015182820152602001610573565b506060828960a40184336000905af158600e01573d6000803e3d6000fd5b3d6001141558600a015760016000f35b815160408301513d6000853e8b8b82606087013350600060045af150596105e08d3d610543565b8c016105ec8187610531565b5b8281101561060157600081526020016105ed565b50929c50505050505050565b6303daa959598160e01b8152836004820152602081602483336000905af158600e01573d6000803e3d6000fd5b3d6001141558600a015760016000f35b8051935060005b60408110156102be57600082820152602001610651565b638435035b598160e01b8152836004820152602081602483336000905af158600e01573d6000803e3d6000fd5b3d6001141558600a015760016000f35b80516000825293506020610651565b638540661f598160e01b8152610553565b6322bd64c0598160e01b8152836004820152846024820152600081604483336000905af158600e01573d6000803e3d6000fd5b3d6001141558600a015760016000f35b60008152602061065156fe43616e6e6f742073657420612070726f787920696d706c656d656e746174696f6e20746f2061206e6f6e2d636f6e747261637420616464726573734f776e61626c653a206e6577206f776e657220697320746865207a65726f20616464726573734f776e61626c653a2063616c6c6572206973206e6f7420746865206f776e6572436f6e747261637420696e7374616e63652068617320616c7265616479206265656e20696e697469616c697a6564",
  "deployedBytecode": "0x60806040523480156200001c5760008062000019620031b2565b50505b5060043610620002a35760003560e01c8063973f65ea1162000170578063bfeaf71d11620000e0578063ecef89d5116200009e578063ecef89d51462000b7a578063eda96ea91462000ba8578063eec16c441462000bb2578063f2fde38b1462000bdd578063f8c8765e1462000c11578063fcf616571462000c5d57620002a3565b8063bfeaf71d1462000afd578063e60eb4121462000b07578063e99c0fa61462000b3b578063ebee461d1462000b66578063ecb0116a1462000b7057620002a3565b8063aa12ae4d116200012e578063aa12ae4d1462000a35578063ad3905661462000a3f578063b7a545261462000a6a578063bcb01f441462000a9e578063bee37e521462000ac957620002a3565b8063973f65ea14620009675780639a068bd6146200099b5780639a3cac6a14620009c65780639cada6e414620009fa5780639f49b60e1462000a0457620002a3565b8063482812721162000218578063715018a611620001d6578063715018a614620008ba57806371c1c54914620008c4578063771d1baf14620008ce578063808ae5fb14620008ff5780638da5cb5b146200093b57806394d0d23b146200094557620002a3565b806348281272146200054057806349f7c02d146200082a5780635556ee5514620008345780635b16ebb714620008685780635c9bfc2b14620008b057620002a3565b80631430238711620002665780631430238714620003455780631d68702d14620003795780631e666d1314620003835780631e8e8bca146200043b57806345812ca5146200046657620002a3565b8063046b72c414620002b357806305a2ee2a14620002ef5780630bf99bd914620003155780630f6559c4146200033157806310bf69dc146200033b575b600080620002b0620031b2565b50505b620002ed60048036036040811015620002d657600080620002d3620031b2565b50505b506001600160a01b03813516906020013562000c67565b005b620002f962000e7f565b6040516001600160a01b03909116815260200160405180910390f35b6200031f62000ea0565b60405190815260200160405180910390f35b6200031f62000eb5565b6200031f62000ec4565b620002ed60048036036020811015620003685760008062000365620031b2565b50505b50356001600160a01b031662000ed0565b620002f962000f90565b620002ed600480360360a0811015620003a657600080620003a3620031b2565b50505b81359160208101359160408201359160608101359181019060a081016080820135600160201b811115620003e457600080620003e1620031b2565b50505b8201836020820111156200040257600080620003ff620031b2565b50505b803590602001918460018302840111600160201b831117156200042f576000806200042c620031b2565b50505b50909250905062000fb4565b620002ed600480360360208110156200045e576000806200045b620031b2565b50505b503562001157565b620002f960048036036040811015620004895760008062000486620031b2565b50505b810190602081018135600160201b811115620004af57600080620004ac620031b2565b50505b820183602082011115620004cd57600080620004ca620031b2565b50505b803590602001918460018302840111600160201b83111715620004fa57600080620004f7620031b2565b50505b91908080601f01602080910402602001604051908101604052818152929190602084018383808284376000920191909152509295505050903560ff169150620011eb9050565b620002f9600480360360e0811015620005635760008062000560620031b2565b50505b81351515916001600160a01b0360208201351691810190606081016040820135600160201b811115620005a0576000806200059d620031b2565b50505b820183602082011115620005be57600080620005bb620031b2565b50505b803590602001918460018302840111600160201b83111715620005eb57600080620005e8620031b2565b50505b91908080601f01602080910402602001604051908101604052818152929190602084018383808284376000920191909152509295949360208101935035915050600160201b811115620006485760008062000645620031b2565b50505b820183602082011115620006665760008062000663620031b2565b50505b803590602001918460018302840111600160201b83111715620006935760008062000690620031b2565b50505b91908080601f01602080910402602001604051908101604052818152929190602084018383808284376000920191909152509295949360208101935035915050600160201b811115620006f057600080620006ed620031b2565b50505b8201836020820111156200070e576000806200070b620031b2565b50505b803590602001918460018302840111600160201b831117156200073b5760008062000738620031b2565b50505b91908080601f016020809104026020016040519081016040528181529291906020840183838082843760009201919091525092958435959094909350604081019250602001359050600160201b811115620007a0576000806200079d620031b2565b50505b820183602082011115620007be57600080620007bb620031b2565b50505b803590602001918460208302840111600160201b83111715620007eb57600080620007e8620031b2565b50505b91908080602002602001604051908101604052809392919081815260200183836020028082843760009201919091525092955062001202945050505050565b6200031f62001836565b6200031f60048036036020811015620008575760008062000854620031b2565b50505b50356001600160a01b031662001849565b6200089c600480360360208110156200088b5760008062000888620031b2565b50505b50356001600160a01b031662001863565b604051901515815260200160405180910390f35b6200031f6200188c565b620002ed6200189a565b620002f9620019ae565b620002ed60048036036040811015620008f157600080620008ee620031b2565b50505b5080359060200135620019bd565b620002ed6004803603604081101562000922576000806200091f620031b2565b50505b506001600160a01b038135811691602001351662001a4f565b620002f962001b4b565b6200094f62001b5a565b60405191825260208201526040908101905180910390f35b620002ed600480360360208110156200098a5760008062000987620031b2565b50505b50356001600160a01b031662001b7d565b620002f960048036036020811015620009be57600080620009bb620031b2565b50505b503562001c0e565b620002ed60048036036020811015620009e957600080620009e6620031b2565b50505b50356001600160a01b031662001c3d565b6200094f62001cce565b620002ed6004803603604081101562000a275760008062000a24620031b2565b50505b508035906020013562001ce9565b6200031f62001d7b565b620002ed6004803603602081101562000a625760008062000a5f620031b2565b50505b503562001d89565b6200094f6004803603602081101562000a8d5760008062000a8a620031b2565b50505b50356001600160a01b031662001e1a565b620002ed6004803603602081101562000ac15760008062000abe620031b2565b50505b503562001efa565b6200031f6004803603602081101562000aec5760008062000ae9620031b2565b50505b50356001600160a01b031662001f8e565b6200031f62001fa8565b6200031f6004803603602081101562000b2a5760008062000b27620031b2565b50505b50356001600160a01b031662001fb4565b620002ed6004803603602081101562000b5e5760008062000b5b620031b2565b50505b503562001fce565b6200031f62002062565b6200094f62002070565b620002f96004803603602081101562000b9d5760008062000b9a620031b2565b50505b503560ff166200208b565b6200031f620020d3565b620002ed6004803603602081101562000bd55760008062000bd2620031b2565b50505b5035620020e1565b620002ed6004803603602081101562000c005760008062000bfd620031b2565b50505b50356001600160a01b031662002172565b620002ed6004803603608081101562000c345760008062000c31620031b2565b50505b506001600160a01b038135811691602081013582169160408201358116916060013516620022b7565b620002f9620024a8565b5a62000c726200321f565b6001600160a01b0316826001600160a01b031614801562000cdc575060d060005a62000c9d6200321f565b6001600160a01b03166001600160a01b0316815260200190815260200160002060009062000cca62003276565b906101000a900460ff16151560011515145b62000d385760405162461bcd60e51b815260206004820152601e60248201527f6f6e6c79206120706f6f6c2063616e206368616e6765206f776e20666565000060448201526064016040518091039062000d35620031b2565b50505b6001600160a01b038216600090815260d06020526040902060009062000d5d62003276565b906101000a900460ff161515600115151462000dca5760405162461bcd60e51b815260206004820152601e60248201527f737570706c6965642061646472657373206973206e6f74206120706f6f6c000060448201526064016040518091039062000dc7620031b2565b50505b62000e0360dd62000dda62003276565b6001600160a01b038416600090815260d36020526040902062000dfc62003276565b90620024b7565b81111562000e595760405162461bcd60e51b81526020600482015260146024820152730dac2dcc2cecae440cccaca40e8dede40d0d2ced60631b60448201526064016040518091039062000e56620031b2565b50505b62000e7b5a62000e686200321f565b8260d262000e7562003276565b62002522565b5050565b600060cb62000e8d62003276565b906101000a90046001600160a01b031681565b600060cc8062000eaf62003276565b91505090565b60db62000ec162003276565b81565b60dd62000ec162003276565b62000eda620025e4565b6001600160a01b03166000606562000ef162003276565b906101000a90046001600160a01b03166001600160a01b03161462000f565760405162461bcd60e51b8152602060048201819052602482015260008051602062003e0c83398151915260448201526064016040518091039062000f53620031b2565b50505b8060cb60018162000f6662003276565b816001600160a01b0302191690836001600160a01b031602179062000f8a620032c3565b50505050565b60008060cd62000f9f62003276565b906101000a90046001600160a01b0316905090565b62000fbe620025e4565b6001600160a01b03166000606562000fd562003276565b906101000a90046001600160a01b03166001600160a01b0316146200103a5760405162461bcd60e51b8152602060048201819052602482015260008051602062003e0c83398151915260448201526064016040518091039062001037620031b2565b50505b84861115801562001058575060cc806200105362003276565b905086105b801562001072575060cc806200106d62003276565b905085105b620010bf5760405162461bcd60e51b815260206004820152600e60248201526d696e76616c696420626f756e647360901b604482015260640160405180910390620010bc620031b2565b50505b855b8581116200114e57600060cc8281620010d962003276565b8110620010e257fe5b90600052602060002001600090620010f962003276565b6001600160a01b036101009290920a900416600081815260da6020529091508690604090206200112862003276565b1462001135575062001145565b6200114381858588620025f1565b505b600101620010c1565b50505050505050565b62001161620025e4565b6001600160a01b0316600060656200117862003276565b906101000a90046001600160a01b03166001600160a01b031614620011dd5760405162461bcd60e51b8152602060048201819052602482015260008051602062003e0c833981519152604482015260640160405180910390620011da620031b2565b50505b620011e88162002781565b50565b6000620011f983836200278f565b90505b92915050565b600060605a63996d79a5598160e01b8152602081600483336000905af158601d01573d60011458600c01573d6000803e3d621234565260ea61109c528051925060005b60408110156200125e5760008282015260200162001245565b505050888860cb6000906200127262003276565b906101000a90046001600160a01b03168660405160240180866001600160a01b03168152602001856001600160a01b0316815260200180602001846001600160a01b0316815260200180602001838103835286818151815260200191508051906020019080838360005b83811015620012f6578082015183820152602001620012dc565b50505050905090810190601f168015620013245780820380516001836020036101000a031916815260200191505b50838103825284818151815260200191508051906020019060200280838360005b838110156200135f57808201518382015260200162001345565b50505050905001975050505050505050604051601f1981830301815260409190915263eb94917d60e01b6020820180516001600160e01b0316909117905290506000620013ae826001620011eb565b905060605a63996d79a5598160e01b8152602081600483336000905af158601d01573d60011458600c01573d6000803e3d621234565260ea61109c528051925060005b60408110156200140a57600082820152602001620013f1565b5050508b8b8b8b8b8760405160240180886001600160a01b031681526020018715158152602001866001600160a01b03168152602001806020018060200180602001856001600160a01b03168152602001848103845288818151815260200191508051906020019080838360005b838110156200149257808201518382015260200162001478565b50505050905090810190601f168015620014c05780820380516001836020036101000a031916815260200191505b50848103835287818151815260200191508051906020019080838360005b83811015620014f8578082015183820152602001620014de565b50505050905090810190601f168015620015265780820380516001836020036101000a031916815260200191505b50848103825286818151815260200191508051906020019080838360005b838110156200155e57808201518382015260200162001544565b50505050905090810190601f1680156200158c5780820380516001836020036101000a031916815260200191505b509a5050505050505050505050604051601f198183030181526040919091526302ce12f960e51b6020820180516001600160e01b0316909117905290506000620015d8826002620011eb565b90508060cc80600181620015eb62003276565b018082620015f8620032c3565b5050600092835260001901916020915020016001816200161762003276565b816001600160a01b0302191690836001600160a01b03160217906200163b620032c3565b5050506001600160a01b038116600090815260d0602052600190604090206001816200166662003276565b8160ff021916908315150217906200167d620032c3565b50505060db6200168c62003276565b6001600160a01b038216600090815260da602052604090208190620016b0620032c3565b505050620016c5818860d262000e7562003276565b7f73a0638fe578fc759744633aa170a433061ca2cc1bb855d116c506e04a29901f818d8b8d8f5a620016f662003312565b8d60d26200170362003276565b60405180896001600160a01b0316815260200188151581526020018060200180602001876001600160a01b03168152602001868152602001858152602001848152602001838103835289818151815260200191508051906020019080838360005b838110156200177e57808201518382015260200162001764565b50505050905090810190601f168015620017ac5780820380516001836020036101000a031916815260200191505b50838103825288818151815260200191508051906020019080838360005b83811015620017e4578082015183820152602001620017ca565b50505050905090810190601f168015620018125780820380516001836020036101000a031916815260200191505b509a505050505050505050505060405180910390a19b9a5050505050505050505050565b600060d96200184462003276565b905090565b60da602052806000526040600020905062000ec162003276565b60d0602052806000526040600020600091506200187f62003276565b906101000a900460ff1681565b600060dd6200184462003276565b620018a4620025e4565b6001600160a01b031660006065620018bb62003276565b906101000a90046001600160a01b03166001600160a01b031614620019205760405162461bcd60e51b8152602060048201819052602482015260008051602062003e0c8339815191526044820152606401604051809103906200191d620031b2565b50505b60008060656200192f62003276565b906101000a90046001600160a01b03166001600160a01b03167f8be0079c531659141344cd1fd0a4f28419497f9722a3daafe3b4186f6b6457e060405160405180910390a3600060656001816200198562003276565b816001600160a01b0302191690836001600160a01b0316021790620019a9620032c3565b505050565b60008060cb62000f9f62003276565b620019c7620025e4565b6001600160a01b031660006065620019de62003276565b906101000a90046001600160a01b03166001600160a01b03161462001a435760405162461bcd60e51b8152602060048201819052602482015260008051602062003e0c83398151915260448201526064016040518091039062001a40620031b2565b50505b62000e7b82826200294b565b62001a59620025e4565b6001600160a01b03166000606562001a7062003276565b906101000a90046001600160a01b03166001600160a01b03161462001ad55760405162461bcd60e51b8152602060048201819052602482015260008051602062003e0c83398151915260448201526064016040518091039062001ad2620031b2565b50505b81609760018162001ae562003276565b816001600160a01b0302191690836001600160a01b031602179062001b09620032c3565b50505080609860006101000a8162001b2062003276565b816001600160a01b0302191690836001600160a01b031602179062001b44620032c3565b5050505050565b600080606562000f9f62003276565b60008060d162001b6962003276565b60d262001b7562003276565b915091509091565b62001b87620025e4565b6001600160a01b03166000606562001b9e62003276565b906101000a90046001600160a01b03166001600160a01b03161462001c035760405162461bcd60e51b8152602060048201819052602482015260008051602062003e0c83398151915260448201526064016040518091039062001c00620031b2565b50505b620011e881620029ff565b60cc818162001c1c62003276565b811062001c2557fe5b906000526020600020016000915062000e8d62003276565b62001c47620025e4565b6001600160a01b03166000606562001c5e62003276565b906101000a90046001600160a01b03166001600160a01b03161462001cc35760405162461bcd60e51b8152602060048201819052602482015260008051602062003e0c83398151915260448201526064016040518091039062001cc0620031b2565b50505b620011e88162002a76565b60008060ce62001cdd62003276565b60cf62001b7562003276565b62001cf3620025e4565b6001600160a01b03166000606562001d0a62003276565b906101000a90046001600160a01b03166001600160a01b03161462001d6f5760405162461bcd60e51b8152602060048201819052602482015260008051602062003e0c83398151915260448201526064016040518091039062001d6c620031b2565b50505b62000e7b828262002aed565b600060d86200184462003276565b62001d93620025e4565b6001600160a01b03166000606562001daa62003276565b906101000a90046001600160a01b03166001600160a01b03161462001e0f5760405162461bcd60e51b8152602060048201819052602482015260008051602062003e0c83398151915260448201526064016040518091039062001e0c620031b2565b50505b620011e88162002ba1565b6001600160a01b038116600090815260d0602052806040812060009062001e4062003276565b906101000a900460ff161515600115151462001ead5760405162461bcd60e51b815260206004820152601e60248201527f737570706c6965642061646472657373206973206e6f74206120706f6f6c000060448201526064016040518091039062001eaa620031b2565b50505b6001600160a01b038316600090815260d36020526040902062001ecf62003276565b6001600160a01b038416600090815260d46020526040902062001ef162003276565b91509150915091565b62001f04620025e4565b6001600160a01b03166000606562001f1b62003276565b906101000a90046001600160a01b03166001600160a01b03161462001f805760405162461bcd60e51b8152602060048201819052602482015260008051602062003e0c83398151915260448201526064016040518091039062001f7d620031b2565b50505b808060de62000f8a620032c3565b60d3602052806000526040600020905062000ec162003276565b60de62000ec162003276565b60d4602052806000526040600020905062000ec162003276565b62001fd8620025e4565b6001600160a01b03166000606562001fef62003276565b906101000a90046001600160a01b03166001600160a01b031614620020545760405162461bcd60e51b8152602060048201819052602482015260008051602062003e0c83398151915260448201526064016040518091039062002051620031b2565b50505b808060dd62000f8a620032c3565b600060de6200184462003276565b60008060d56200207f62003276565b60d662001b7562003276565b60008160ff1660011415620020c05760006098620020a862003276565b906101000a90046001600160a01b03169050620020ce565b60006097620020a862003276565b919050565b600060d76200184462003276565b620020eb620025e4565b6001600160a01b0316600060656200210262003276565b906101000a90046001600160a01b03166001600160a01b031614620021675760405162461bcd60e51b8152602060048201819052602482015260008051602062003e0c83398151915260448201526064016040518091039062002164620031b2565b50505b620011e88162002be8565b6200217c620025e4565b6001600160a01b0316600060656200219362003276565b906101000a90046001600160a01b03166001600160a01b031614620021f85760405162461bcd60e51b8152602060048201819052602482015260008051602062003e0c833981519152604482015260640160405180910390620021f5620031b2565b50505b6001600160a01b0381166200224a5760405162461bcd60e51b815260040180806020018281038252602681526020018062003de6602691396040019150506040518091039062002247620031b2565b50505b6001600160a01b038116600060656200226262003276565b906101000a90046001600160a01b03166001600160a01b03167f8be0079c531659141344cd1fd0a4f28419497f9722a3daafe3b4186f6b6457e060405160405180910390a380606560018162000f6662003276565b60016000620022c562003276565b906101000a900460ff1680620022e05750620022e062002c2f565b80620023005750600080620022f462003276565b906101000a900460ff16155b620023485760405162461bcd60e51b815260040180806020018281038252602e81526020018062003e2c602e91396040019150506040518091039062002345620031b2565b50505b60006001816200235762003276565b906101000a900460ff161590508015620023c65760016000610100816200237d62003276565b8160ff0219169083151502179062002394620032c3565b50505060016000806101000a81620023ab62003276565b8160ff02191690831515021790620023c2620032c3565b5050505b620023d2848462002ca4565b8460cb600181620023e262003276565b816001600160a01b0302191690836001600160a01b031602179062002406620032c3565b505050620024148262002a76565b6200242461138861271062002cae565b62002432600a60646200294b565b6200244160056103e862002aed565b6200244f6201518062002ba1565b6200245b600a62002be8565b6200246f6544484544474560d01b62002781565b801562001b4457600080610100816200248762003276565b8160ff021916908315150217906200249e620032c3565b5050505050505050565b60008060dc62000f9f62003276565b600082820183811015620011f95760405162461bcd60e51b815260206004820152601b60248201527f536166654d6174683a206164646974696f6e206f766572666c6f77000000000060448201526064016040518091039062002519620031b2565b50509392505050565b8082111580156200253e575060d16200253a62003276565b8211155b6200258d5760405162461bcd60e51b815260206004820152601060248201526f34b73b30b634b210333930b1ba34b7b760811b6044820152606401604051809103906200258a620031b2565b50505b6001600160a01b038316600090815260d36020528290604090208190620025b3620032c3565b5050506001600160a01b038316600090815260d46020528190604090208190620025dc620032c3565b505050505050565b60005a620018446200321f565b6001600160a01b038416620026485760405162461bcd60e51b815260206004820152600e60248201526d1d185c99d95d0b5a5b9d985b1a5960921b60448201526064016040518091039062002645620031b2565b50505b81620026945760405162461bcd60e51b815260206004820152600c60248201526b19185d184b5a5b9d985b1a5960a21b60448201526064016040518091039062002691620031b2565b50505b606083838080601f01602080910402602001604051908101604052818152929190602084018383808284376000920182905250939450839250849150505160208401885a620026e262003359565b5050505050801560018114620026f8576200270f565b3d806000803e8060006200270b620031b2565b5050505b5050846001600160a01b03165a620027266200321f565b6001600160a01b03167f78a9b536049c39a00adaf57016b1376c99dd48a0faf2cef23690232f21ce42cc60405160405180910390a36001600160a01b038516600090815260da60205282906040902081906200249e620032c3565b808060d962000f8a620032c3565b6000806200279c62002d2e565b90507efffc2da0b561cae30d9826d37709e9421c4725faebc226cbbb7ef5fc5e7349816040516001600160a01b03909116815260200160405180910390a1806001600160a01b031663e74a474a5a63996d79a5598160e01b8152602081600483336000905af158601d01573d60011458600c01573d6000803e3d621234565260ea61109c528051925060005b6040811015620028415760008282015260200162002828565b50505086866040518463ffffffff1660e01b815260040180846001600160a01b03168152602001806020018360ff168152602001828103825284818151815260200191508051906020019080838360005b83811015620028ac57808201518382015260200162002892565b50505050905090810190601f168015620028da5780820380516001836020036101000a031916815260200191505b5094505050505060006040518083038160008780620028f86200344f565b15801562002910576000806200290d620031b2565b50505b505a6200291c6200349c565b5050505050501580156200293f573d6000803e3d60006200293c620031b2565b50505b50929695505050505050565b808211156200299e5760405162461bcd60e51b815260206004820152601060248201526f34b73b30b634b210333930b1ba34b7b760811b6044820152606401604051809103906200299b620031b2565b50505b818060ce620029ac620032c3565b5050508060cf8190620029be620032c3565b5050507fb10da2958bf5ec1bff3164ff753a09e0460ed44d3abf73e79b817b500ed0f2f1828260405191825260208201526040908101905180910390a15050565b8060dc60018162002a0f62003276565b816001600160a01b0302191690836001600160a01b031602179062002a33620032c3565b5050507f9bf656ec65146ae8ac6e269af401761bdf7d2b9e09c00ecf39f6552394d52999816040516001600160a01b03909116815260200160405180910390a150565b8060cd60018162002a8662003276565b816001600160a01b0302191690836001600160a01b031602179062002aaa620032c3565b5050507ff1034ad6b4d45dc33a4142b9c51c2b7f89bf4a410696e426cc0f3224869e0aca816040516001600160a01b03909116815260200160405180910390a150565b8082111562002b405760405162461bcd60e51b815260206004820152601060248201526f34b73b30b634b210333930b1ba34b7b760811b60448201526064016040518091039062002b3d620031b2565b50505b818060d562002b4e620032c3565b5050508060d6819062002b60620032c3565b5050507fc84081a9c94a2300cdec20e3d60952b84e96e11edf24cb65ba26b7f8455f29db828260405191825260208201526040908101905180910390a15050565b808060d762002baf620032c3565b5050507f3c6bcf0eff145e812fd913d4220f52c2a428932b0d2c196ab56e3e005ae2ace48160405190815260200160405180910390a150565b808060d862002bf6620032c3565b5050507f0cd8fcb5e08d7632af461f0ad793e5c63dc0d7595c301f5880650175e37a87488160405190815260200160405180910390a150565b6000805a63996d79a5598160e01b8152602081600483336000905af158601d01573d60011458600c01573d6000803e3d621234565260ea61109c528051925060005b604081101562002c8a5760008282015260200162002c71565b505050905060008162002c9c6200344f565b159250505090565b62001ad562002d95565b6000811162002d0e5760405162461bcd60e51b815260206004820152601c60248201527f64656e6f6d696e61746f72206d75737420626520706f7369746976650000000060448201526064016040518091039062002d0b620031b2565b50505b818060d162002d1c620032c3565b5050508060d2819062001b44620032c3565b600080606060405162002d44602082016200356a565b601f1982820381018352601f909101166040529050805160208201600062002d6b62003578565b505091508162002d7a6200344f565b62002d8f5760008062002d8c620031b2565b50505b50905090565b6001600062002da362003276565b906101000a900460ff168062002dbe575062002dbe62002c2f565b8062002dde575060008062002dd262003276565b906101000a900460ff16155b62002e265760405162461bcd60e51b815260040180806020018281038252602e81526020018062003e2c602e91396040019150506040518091039062002e23620031b2565b50505b600060018162002e3562003276565b906101000a900460ff16159050801562002ea457600160006101008162002e5b62003276565b8160ff0219169083151502179062002e72620032c3565b50505060016000806101000a8162002e8962003276565b8160ff0219169083151502179062002ea0620032c3565b5050505b62002eae62002ee7565b62002eb86200300d565b8015620011e8576000806101008162002ed062003276565b8160ff0219169083151502179062000f8a620032c3565b6001600062002ef562003276565b906101000a900460ff168062002f10575062002f1062002c2f565b8062002f30575060008062002f2462003276565b906101000a900460ff16155b62002f785760405162461bcd60e51b815260040180806020018281038252602e81526020018062003e2c602e91396040019150506040518091039062002f75620031b2565b50505b600060018162002f8762003276565b906101000a900460ff16159050801562002eb857600160006101008162002fad62003276565b8160ff0219169083151502179062002fc4620032c3565b50505060016000806101000a8162002fdb62003276565b8160ff0219169083151502179062002ff2620032c3565b5050508015620011e8576000806101008162002ed062003276565b600160006200301b62003276565b906101000a900460ff16806200303657506200303662002c2f565b806200305657506000806200304a62003276565b906101000a900460ff16155b6200309e5760405162461bcd60e51b815260040180806020018281038252602e81526020018062003e2c602e9139604001915050604051809103906200309b620031b2565b50505b6000600181620030ad62003276565b906101000a900460ff1615905080156200311c576001600061010081620030d362003276565b8160ff02191690831515021790620030ea620032c3565b50505060016000806101000a816200310162003276565b8160ff0219169083151502179062003118620032c3565b5050505b600062003128620025e4565b90508060656001816200313a62003276565b816001600160a01b0302191690836001600160a01b03160217906200315e620032c3565b5050506001600160a01b03811660007f8be0079c531659141344cd1fd0a4f28419497f9722a3daafe3b4186f6b6457e060405160405180910390a3508015620011e8576000806101008162002ed062003276565b632a2a7adb598160e01b8152600481016020815285602082015260005b86811015620031ec578086015182820160400152602001620031cf565b506020828760640184336000905af158601d01573d60011458600c01573d6000803e3d621234565260ea61109c52505050565b6373509064598160e01b8152602081600483336000905af158601d01573d60011458600c01573d6000803e3d621234565260ea61109c528051935060005b6040811015620019a9576000828201526020016200325d565b6303daa959598160e01b8152836004820152602081602483336000905af158601d01573d60011458600c01573d6000803e3d621234565260ea61109c52805160008252935060206200325d565b6322bd64c0598160e01b8152836004820152846024820152600081604483336000905af158601d01573d60011458600c01573d6000803e3d621234565260ea61109c526000815260206200325d565b63bdbf8c36598160e01b8152602081600483336000905af158601d01573d60011458600c01573d6000803e3d621234565260ea61109c52805160008252935060206200325d565b63ffe73914598160e01b81526200338d565b8080831115620011fc575090919050565b8080831015620011fc575090919050565b836004820152846024820152606060448201528660648201526084810160005b88811015620033c7578088015182820152602001620033ad565b506060828960a40184336000905af158601d01573d60011458600c01573d6000803e3d621234565260ea61109c52815160408301513d6000853e8b8b82606087013350600060045af150596200341e8d3d6200337c565b8c016200342c81876200336b565b5b828110156200344357600081526020016200342d565b50929c50505050505050565b638435035b598160e01b8152836004820152602081602483336000905af158601d01573d60011458600c01573d6000803e3d621234565260ea61109c52805160008252935060206200325d565b6385979f76598160e01b8152836004820152846024820152606060448201528760648201526084810160005b89811015620034e2578089015182820152602001620034c8565b506060828a60a40184336000905af158601d01573d60011458600c01573d6000803e3d621234565260ea61109c52815160408301513d6000853e8c8c82606087013350600060045af15059620035398e3d6200337c565b8d016200354781876200336b565b5b828110156200355e576000815260200162003548565b50929d50505050505050565b6107e880620035fe83390190565b6314aa2ff7598160e01b8152600481016020815286602082015260005b87811015620035b257808701518282016040015260200162003595565b506020828860640184336000905af158601d01573d60011458600c01573d6000803e3d621234565260ea61109c528151965059825b8181101562001b445760008152602001620035e756fe60806040523480156100195760008061001661001f565b50505b5061008a565b632a2a7adb598160e01b8152600481016020815285602082015260005b8681101561005757808601518282016040015260200161003c565b506020828760640184336000905af158601d01573d60011458600c01573d6000803e3d621234565260ea61109c52505050565b61074f806100996000396000f3fe6080604052600436106100225760003560e01c8063e74a474a1461003957610031565b366100315761002f610117565b005b61002f610117565b61002f60048036036060811015610058576000806100556104b5565b50505b6001600160a01b03823516919081019060408101602082013564010000000081111561008c576000806100896104b5565b50505b8201836020820111156100a7576000806100a46104b5565b50505b803590602001918460018302840111640100000000831117156100d2576000806100cf6104b5565b50505b91908080601f01602080910402602001604051908101604052818152929190602084018383808284376000920191909152509295505050903560ff1691506101319050565b61011f61012f565b61012f61012a6102c3565b6103c4565b565b600061013b6102c3565b6001600160a01b03161461018e5760405162461bcd60e51b815260206004820152600d60248201526c496d706c206e6f74207a65726f60981b60448201526064016040518091039061018b6104b5565b50505b61019783610401565b6101a081610479565b6000825111156102be5760006101b46102c3565b6001600160a01b0316836040518082805190602001908083835b602083106101ed5780518252601f1990920191602091820191016101ce565b6001836020036101000a038019825116818451168082178552505050505050905001915050600060405180830381855a610225610520565b50505050509150503d8060008114610259576040513d603f01601f191681016040523d815291503d6000602084013e61025e565b606091505b50509050806102bc5760405162461bcd60e51b815260206004820152601a60248201527f496d706c656d656e746174696f6e20696e6974206661696c65640000000000006044820152606401604051809103906102b96104b5565b50505b505b505050565b6000807f360894a13ba1a3210667c828492db98dca3e2076cc3735a920a3ca505d382bbc806102f061060d565b91506001600160a01b03821661030b576000925050506103c1565b816001600160a01b031663ecef89d5610322610488565b6040516001600160e01b031960e084901b16815260ff90911660048201526024016020604051808303818680610356610668565b15801561036b576000806103686104b5565b50505b505a6103756106b4565b5050505050158015610394573d6000803e3d60006103916104b5565b50505b505050506040513d60208110156103b3576000806103b06104b5565b50505b810190808051955050505050505b90565b3660008037600080366000845a6103d9610520565b50505050503d6000803e8080156103ef573d6000f35b3d60006103fa6104b5565b5050505050565b61040a816104a0565b61044e5760405162461bcd60e51b815260040180806020018281038252603b815260200180610714603b91396040019150506040518091039061044b6104b5565b50505b7f360894a13ba1a3210667c828492db98dca3e2076cc3735a920a3ca505d382bbc81816102bc6106c5565b600160fc1b81816102bc6106c5565b600080600160fc1b8061049961060d565b9250505090565b600080826104ac610668565b15159392505050565b632a2a7adb598160e01b8152600481016020815285602082015260005b868110156104ed5780860151828201604001526020016104d2565b506020828760640184336000905af158601d01573d60011458600c01573d6000803e3d621234565260ea61109c52505050565b63ffe73914598160e01b8152610553565b808083111561053d5750815b92915050565b808083101561053d575090919050565b836004820152846024820152606060448201528660648201526084810160005b8881101561058b578088015182820152602001610573565b506060828960a40184336000905af158601d01573d60011458600c01573d6000803e3d621234565260ea61109c52815160408301513d6000853e8b8b82606087013350600060045af150596105e08d3d610543565b8c016105ec8187610531565b5b8281101561060157600081526020016105ed565b50929c50505050505050565b6303daa959598160e01b8152836004820152602081602483336000905af158601d01573d60011458600c01573d6000803e3d621234565260ea61109c528051935060005b60408110156102be57600082820152602001610651565b638435035b598160e01b8152836004820152602081602483336000905af158601d01573d60011458600c01573d6000803e3d621234565260ea61109c5280516000825293506020610651565b638540661f598160e01b8152610553565b6322bd64c0598160e01b8152836004820152846024820152600081604483336000905af158601d01573d60011458600c01573d6000803e3d621234565260ea61109c5260008152602061065156fe43616e6e6f742073657420612070726f787920696d706c656d656e746174696f6e20746f2061206e6f6e2d636f6e747261637420616464726573734f776e61626c653a206e6577206f776e657220697320746865207a65726f20616464726573734f776e61626c653a2063616c6c6572206973206e6f7420746865206f776e6572436f6e747261637420696e7374616e63652068617320616c7265616479206265656e20696e697469616c697a6564",
  "linkReferences": {},
  "deployedLinkReferences": {}
}