{
  "_format": "hh-sol-artifact-1",
  "contractName": "PoolFactory",
  "sourceName": "contracts/PoolFactory.sol",
  "abi": [
    {
      "anonymous": false,
      "inputs": [
        {
          "indexed": false,
          "internalType": "address",
          "name": "dao",
          "type": "address"
        }
      ],
      "name": "DaoAddressSet",
      "type": "event"
    },
    {
      "anonymous": false,
      "inputs": [
        {
          "indexed": false,
          "internalType": "uint256",
          "name": "numerator",
          "type": "uint256"
        },
        {
          "indexed": false,
          "internalType": "uint256",
          "name": "denominator",
          "type": "uint256"
        }
      ],
      "name": "DaoFeeSet",
      "type": "event"
    },
    {
      "anonymous": false,
      "inputs": [
        {
          "indexed": false,
          "internalType": "uint256",
          "name": "cooldown",
          "type": "uint256"
        }
      ],
      "name": "ExitCooldownSet",
      "type": "event"
    },
    {
      "anonymous": false,
      "inputs": [
        {
          "indexed": false,
          "internalType": "uint256",
          "name": "numerator",
          "type": "uint256"
        },
        {
          "indexed": false,
          "internalType": "uint256",
          "name": "denominator",
          "type": "uint256"
        }
      ],
      "name": "ExitFeeSet",
      "type": "event"
    },
    {
      "anonymous": false,
      "inputs": [
        {
          "indexed": false,
          "internalType": "address",
          "name": "fundAddress",
          "type": "address"
        },
        {
          "indexed": false,
          "internalType": "bool",
          "name": "isPoolPrivate",
          "type": "bool"
        },
        {
          "indexed": false,
          "internalType": "string",
          "name": "fundName",
          "type": "string"
        },
        {
          "indexed": false,
          "internalType": "string",
          "name": "managerName",
          "type": "string"
        },
        {
          "indexed": false,
          "internalType": "address",
          "name": "manager",
          "type": "address"
        },
        {
          "indexed": false,
          "internalType": "uint256",
          "name": "time",
          "type": "uint256"
        },
        {
          "indexed": false,
          "internalType": "uint256",
          "name": "managerFeeNumerator",
          "type": "uint256"
        },
        {
          "indexed": false,
          "internalType": "uint256",
          "name": "managerFeeDenominator",
          "type": "uint256"
        }
      ],
      "name": "FundCreated",
      "type": "event"
    },
    {
      "anonymous": false,
      "inputs": [
        {
          "indexed": true,
          "internalType": "address",
          "name": "manager",
          "type": "address"
        },
        {
          "indexed": true,
          "internalType": "address",
          "name": "pool",
          "type": "address"
        }
      ],
      "name": "LogUpgrade",
      "type": "event"
    },
    {
      "anonymous": false,
      "inputs": [
        {
          "indexed": false,
          "internalType": "uint256",
          "name": "count",
          "type": "uint256"
        }
      ],
      "name": "MaximumSupportedAssetCountSet",
      "type": "event"
    },
    {
      "anonymous": false,
      "inputs": [
        {
          "indexed": true,
          "internalType": "address",
          "name": "previousOwner",
          "type": "address"
        },
        {
          "indexed": true,
          "internalType": "address",
          "name": "newOwner",
          "type": "address"
        }
      ],
      "name": "OwnershipTransferred",
      "type": "event"
    },
    {
      "anonymous": false,
      "inputs": [
        {
          "indexed": false,
          "internalType": "address",
          "name": "proxy",
          "type": "address"
        }
      ],
      "name": "ProxyCreated",
      "type": "event"
    },
    {
      "inputs": [],
      "name": "addressResolver",
      "outputs": [
        {
          "internalType": "contract IAddressResolver",
          "name": "",
          "type": "address"
        }
      ],
      "stateMutability": "view",
      "type": "function"
    },
    {
      "inputs": [
        {
          "internalType": "bool",
          "name": "_privatePool",
          "type": "bool"
        },
        {
          "internalType": "address",
          "name": "_manager",
          "type": "address"
        },
        {
          "internalType": "string",
          "name": "_managerName",
          "type": "string"
        },
        {
          "internalType": "string",
          "name": "_fundName",
          "type": "string"
        },
        {
          "internalType": "string",
          "name": "_fundSymbol",
          "type": "string"
        },
        {
          "internalType": "uint256",
          "name": "_managerFeeNumerator",
          "type": "uint256"
        },
        {
          "internalType": "bytes32[]",
          "name": "_supportedAssets",
          "type": "bytes32[]"
        }
      ],
      "name": "createFund",
      "outputs": [
        {
          "internalType": "address",
          "name": "",
          "type": "address"
        }
      ],
      "stateMutability": "nonpayable",
      "type": "function"
    },
    {
      "inputs": [
        {
          "internalType": "bytes",
          "name": "_data",
          "type": "bytes"
        },
        {
          "internalType": "uint8",
          "name": "_proxyType",
          "type": "uint8"
        }
      ],
      "name": "deploy",
      "outputs": [
        {
          "internalType": "address",
          "name": "",
          "type": "address"
        }
      ],
      "stateMutability": "nonpayable",
      "type": "function"
    },
    {
      "inputs": [
        {
          "internalType": "uint256",
          "name": "",
          "type": "uint256"
        }
      ],
      "name": "deployedFunds",
      "outputs": [
        {
          "internalType": "address",
          "name": "",
          "type": "address"
        }
      ],
      "stateMutability": "view",
      "type": "function"
    },
    {
      "inputs": [],
      "name": "deployedFundsLength",
      "outputs": [
        {
          "internalType": "uint256",
          "name": "",
          "type": "uint256"
        }
      ],
      "stateMutability": "view",
      "type": "function"
    },
    {
      "inputs": [],
      "name": "getAddressResolver",
      "outputs": [
        {
          "internalType": "contract IAddressResolver",
          "name": "",
          "type": "address"
        }
      ],
      "stateMutability": "view",
      "type": "function"
    },
    {
      "inputs": [],
      "name": "getDaoAddress",
      "outputs": [
        {
          "internalType": "address",
          "name": "",
          "type": "address"
        }
      ],
      "stateMutability": "view",
      "type": "function"
    },
    {
      "inputs": [],
      "name": "getDaoFee",
      "outputs": [
        {
          "internalType": "uint256",
          "name": "",
          "type": "uint256"
        },
        {
          "internalType": "uint256",
          "name": "",
          "type": "uint256"
        }
      ],
      "stateMutability": "view",
      "type": "function"
    },
    {
      "inputs": [],
      "name": "getExitCooldown",
      "outputs": [
        {
          "internalType": "uint256",
          "name": "",
          "type": "uint256"
        }
      ],
      "stateMutability": "view",
      "type": "function"
    },
    {
      "inputs": [
        {
          "internalType": "uint8",
          "name": "_proxyType",
          "type": "uint8"
        }
      ],
      "name": "getLogic",
      "outputs": [
        {
          "internalType": "address",
          "name": "",
          "type": "address"
        }
      ],
      "stateMutability": "view",
      "type": "function"
    },
    {
      "inputs": [],
      "name": "getManagerFeeNumeratorChangeDelay",
      "outputs": [
        {
          "internalType": "uint256",
          "name": "",
          "type": "uint256"
        }
      ],
      "stateMutability": "view",
      "type": "function"
    },
    {
      "inputs": [],
      "name": "getMaximumManagerFee",
      "outputs": [
        {
          "internalType": "uint256",
          "name": "",
          "type": "uint256"
        },
        {
          "internalType": "uint256",
          "name": "",
          "type": "uint256"
        }
      ],
      "stateMutability": "view",
      "type": "function"
    },
    {
      "inputs": [],
      "name": "getMaximumManagerFeeNumeratorChange",
      "outputs": [
        {
          "internalType": "uint256",
          "name": "",
          "type": "uint256"
        }
      ],
      "stateMutability": "view",
      "type": "function"
    },
    {
      "inputs": [],
      "name": "getMaximumSupportedAssetCount",
      "outputs": [
        {
          "internalType": "uint256",
          "name": "",
          "type": "uint256"
        }
      ],
      "stateMutability": "view",
      "type": "function"
    },
    {
      "inputs": [
        {
          "internalType": "address",
          "name": "pool",
          "type": "address"
        }
      ],
      "name": "getPoolManagerFee",
      "outputs": [
        {
          "internalType": "uint256",
          "name": "",
          "type": "uint256"
        },
        {
          "internalType": "uint256",
          "name": "",
          "type": "uint256"
        }
      ],
      "stateMutability": "view",
      "type": "function"
    },
    {
      "inputs": [],
      "name": "getTrackingCode",
      "outputs": [
        {
          "internalType": "bytes32",
          "name": "",
          "type": "bytes32"
        }
      ],
      "stateMutability": "view",
      "type": "function"
    },
    {
      "inputs": [
        {
          "internalType": "contract IAddressResolver",
          "name": "_addressResolver",
          "type": "address"
        },
        {
          "internalType": "address",
          "name": "_poolLogic",
          "type": "address"
        },
        {
          "internalType": "address",
          "name": "_managerLogic",
          "type": "address"
        },
        {
          "internalType": "address",
          "name": "daoAddress",
          "type": "address"
        }
      ],
      "name": "initialize",
      "outputs": [],
      "stateMutability": "nonpayable",
      "type": "function"
    },
    {
      "inputs": [
        {
          "internalType": "address",
          "name": "",
          "type": "address"
        }
      ],
      "name": "isPool",
      "outputs": [
        {
          "internalType": "bool",
          "name": "",
          "type": "bool"
        }
      ],
      "stateMutability": "view",
      "type": "function"
    },
    {
      "inputs": [],
      "name": "managerFeeNumeratorChangeDelay",
      "outputs": [
        {
          "internalType": "uint256",
          "name": "",
          "type": "uint256"
        }
      ],
      "stateMutability": "view",
      "type": "function"
    },
    {
      "inputs": [],
      "name": "maximumManagerFeeNumeratorChange",
      "outputs": [
        {
          "internalType": "uint256",
          "name": "",
          "type": "uint256"
        }
      ],
      "stateMutability": "view",
      "type": "function"
    },
    {
      "inputs": [],
      "name": "owner",
      "outputs": [
        {
          "internalType": "address",
          "name": "",
          "type": "address"
        }
      ],
      "stateMutability": "view",
      "type": "function"
    },
    {
      "inputs": [
        {
          "internalType": "address",
          "name": "",
          "type": "address"
        }
      ],
      "name": "poolManagerFeeDenominator",
      "outputs": [
        {
          "internalType": "uint256",
          "name": "",
          "type": "uint256"
        }
      ],
      "stateMutability": "view",
      "type": "function"
    },
    {
      "inputs": [
        {
          "internalType": "address",
          "name": "",
          "type": "address"
        }
      ],
      "name": "poolManagerFeeNumerator",
      "outputs": [
        {
          "internalType": "uint256",
          "name": "",
          "type": "uint256"
        }
      ],
      "stateMutability": "view",
      "type": "function"
    },
    {
      "inputs": [],
      "name": "poolStorageVersion",
      "outputs": [
        {
          "internalType": "uint256",
          "name": "",
          "type": "uint256"
        }
      ],
      "stateMutability": "view",
      "type": "function"
    },
    {
      "inputs": [
        {
          "internalType": "address",
          "name": "",
          "type": "address"
        }
      ],
      "name": "poolVersion",
      "outputs": [
        {
          "internalType": "uint256",
          "name": "",
          "type": "uint256"
        }
      ],
      "stateMutability": "view",
      "type": "function"
    },
    {
      "inputs": [],
      "name": "renounceOwnership",
      "outputs": [],
      "stateMutability": "nonpayable",
      "type": "function"
    },
    {
      "inputs": [
        {
          "internalType": "address",
          "name": "_addressResolver",
          "type": "address"
        }
      ],
      "name": "setAddressResolver",
      "outputs": [],
      "stateMutability": "nonpayable",
      "type": "function"
    },
    {
      "inputs": [
        {
          "internalType": "address",
          "name": "daoAddress",
          "type": "address"
        }
      ],
      "name": "setDaoAddress",
      "outputs": [],
      "stateMutability": "nonpayable",
      "type": "function"
    },
    {
      "inputs": [
        {
          "internalType": "uint256",
          "name": "numerator",
          "type": "uint256"
        },
        {
          "internalType": "uint256",
          "name": "denominator",
          "type": "uint256"
        }
      ],
      "name": "setDaoFee",
      "outputs": [],
      "stateMutability": "nonpayable",
      "type": "function"
    },
    {
      "inputs": [
        {
          "internalType": "uint256",
          "name": "cooldown",
          "type": "uint256"
        }
      ],
      "name": "setExitCooldown",
      "outputs": [],
      "stateMutability": "nonpayable",
      "type": "function"
    },
    {
      "inputs": [
        {
          "internalType": "address",
          "name": "_poolLogic",
          "type": "address"
        },
        {
          "internalType": "address",
          "name": "_poolManagerLogic",
          "type": "address"
        }
      ],
      "name": "setLogic",
      "outputs": [],
      "stateMutability": "nonpayable",
      "type": "function"
    },
    {
      "inputs": [
        {
          "internalType": "uint256",
          "name": "delay",
          "type": "uint256"
        }
      ],
      "name": "setManagerFeeNumeratorChangeDelay",
      "outputs": [],
      "stateMutability": "nonpayable",
      "type": "function"
    },
    {
      "inputs": [
        {
          "internalType": "uint256",
          "name": "amount",
          "type": "uint256"
        }
      ],
      "name": "setMaximumManagerFeeNumeratorChange",
      "outputs": [],
      "stateMutability": "nonpayable",
      "type": "function"
    },
    {
      "inputs": [
        {
          "internalType": "uint256",
          "name": "count",
          "type": "uint256"
        }
      ],
      "name": "setMaximumSupportedAssetCount",
      "outputs": [],
      "stateMutability": "nonpayable",
      "type": "function"
    },
    {
      "inputs": [
        {
          "internalType": "address",
          "name": "pool",
          "type": "address"
        },
        {
          "internalType": "uint256",
          "name": "numerator",
          "type": "uint256"
        }
      ],
      "name": "setPoolManagerFeeNumerator",
      "outputs": [],
      "stateMutability": "nonpayable",
      "type": "function"
    },
    {
      "inputs": [
        {
          "internalType": "bytes32",
          "name": "code",
          "type": "bytes32"
        }
      ],
      "name": "setTrackingCode",
      "outputs": [],
      "stateMutability": "nonpayable",
      "type": "function"
    },
    {
      "inputs": [
        {
          "internalType": "address",
          "name": "newOwner",
          "type": "address"
        }
      ],
      "name": "transferOwnership",
      "outputs": [],
      "stateMutability": "nonpayable",
      "type": "function"
    },
    {
      "inputs": [
        {
          "internalType": "uint256",
          "name": "startIndex",
          "type": "uint256"
        },
        {
          "internalType": "uint256",
          "name": "endIndex",
          "type": "uint256"
        },
        {
          "internalType": "uint256",
          "name": "sourceVersion",
          "type": "uint256"
        },
        {
          "internalType": "uint256",
          "name": "targetVersion",
          "type": "uint256"
        },
        {
          "internalType": "bytes",
          "name": "data",
          "type": "bytes"
        }
      ],
      "name": "upgradePoolBatch",
      "outputs": [],
      "stateMutability": "nonpayable",
      "type": "function"
    }
  ],
  "bytecode": "0x608060405234801561001057600080fd5b506125b7806100206000396000f3fe608060405234801561001057600080fd5b50600436106102325760003560e01c8063808ae5fb11610130578063bcb01f44116100b8578063ebee461d1161007c578063ebee461d146108a2578063ecef89d5146108aa578063eec16c44146108ca578063f2fde38b146108e7578063f8c8765e1461090d57610232565b8063bcb01f4414610814578063bee37e5214610831578063bfeaf71d14610857578063e60eb4121461085f578063e99c0fa61461088557610232565b80639a3cac6a116100ff5780639a3cac6a1461079b5780639cada6e4146107c1578063aa12ae4d146107c9578063aa7d664e146107d1578063b7a54526146107ee57610232565b8063808ae5fb146107275780638da5cb5b1461075557806394d0d23b1461075d5780639a068bd61461077e57610232565b80634501b088116101be5780635b16ebb7116101825780635b16ebb7146106b25780635c9bfc2b146106ec578063715018a6146106f457806371c1c549146106fc578063771d1baf1461070457610232565b80634501b0881461038457806345812ca51461038c578063482812721461043557806349f7c02d146106845780635556ee551461068c57610232565b806310bf69dc1161020557806310bf69dc146102ab57806314302387146102b35780631d68702d146102d95780631e666d13146102e15780631e8e8bca1461036757610232565b8063046b72c41461023757806305a2ee2a146102655780630bf99bd9146102895780630f6559c4146102a3575b600080fd5b6102636004803603604081101561024d57600080fd5b506001600160a01b03813516906020013561094b565b005b61026d610abb565b604080516001600160a01b039092168252519081900360200190f35b610291610aca565b60408051918252519081900360200190f35b610291610ad0565b610291610ad6565b610263600480360360208110156102c957600080fd5b50356001600160a01b0316610adc565b61026d610b56565b610263600480360360a08110156102f757600080fd5b81359160208101359160408201359160608101359181019060a081016080820135600160201b81111561032957600080fd5b82018360208201111561033b57600080fd5b803590602001918460018302840111600160201b8311171561035c57600080fd5b509092509050610b65565b6102636004803603602081101561037d57600080fd5b5035610c88565b610291610cec565b61026d600480360360408110156103a257600080fd5b810190602081018135600160201b8111156103bc57600080fd5b8201836020820111156103ce57600080fd5b803590602001918460018302840111600160201b831117156103ef57600080fd5b91908080601f0160208091040260200160405190810160405280939291908181526020018383808284376000920191909152509295505050903560ff169150610cf29050565b61026d600480360360e081101561044b57600080fd5b81351515916001600160a01b0360208201351691810190606081016040820135600160201b81111561047c57600080fd5b82018360208201111561048e57600080fd5b803590602001918460018302840111600160201b831117156104af57600080fd5b91908080601f0160208091040260200160405190810160405280939291908181526020018383808284376000920191909152509295949360208101935035915050600160201b81111561050157600080fd5b82018360208201111561051357600080fd5b803590602001918460018302840111600160201b8311171561053457600080fd5b91908080601f0160208091040260200160405190810160405280939291908181526020018383808284376000920191909152509295949360208101935035915050600160201b81111561058657600080fd5b82018360208201111561059857600080fd5b803590602001918460018302840111600160201b831117156105b957600080fd5b91908080601f01602080910402602001604051908101604052809392919081815260200183838082843760009201919091525092958435959094909350604081019250602001359050600160201b81111561061357600080fd5b82018360208201111561062557600080fd5b803590602001918460208302840111600160201b8311171561064657600080fd5b919080806020026020016040519081016040528093929190818152602001838360200280828437600092019190915250929550610d05945050505050565b6102916111d0565b610291600480360360208110156106a257600080fd5b50356001600160a01b03166111d6565b6106d8600480360360208110156106c857600080fd5b50356001600160a01b03166111e8565b604080519115158252519081900360200190f35b6102916111fd565b610263611203565b61026d6112a5565b6102636004803603604081101561071a57600080fd5b50803590602001356112b4565b6102636004803603604081101561073d57600080fd5b506001600160a01b0381358116916020013516611316565b61026d61139c565b6107656113ab565b6040805192835260208301919091528051918290030190f35b61026d6004803603602081101561079457600080fd5b50356113b5565b610263600480360360208110156107b157600080fd5b50356001600160a01b03166113dc565b61076561143d565b610291611447565b610263600480360360208110156107e757600080fd5b503561144d565b6107656004803603602081101561080457600080fd5b50356001600160a01b03166114ae565b6102636004803603602081101561082a57600080fd5b503561154c565b6102916004803603602081101561084757600080fd5b50356001600160a01b03166115a9565b6102916115bb565b6102916004803603602081101561087557600080fd5b50356001600160a01b03166115c1565b6102636004803603602081101561089b57600080fd5b50356115d3565b610291611630565b61026d600480360360208110156108c057600080fd5b503560ff16611636565b610263600480360360208110156108e057600080fd5b5035611669565b610263600480360360208110156108fd57600080fd5b50356001600160a01b03166116ca565b6102636004803603608081101561092357600080fd5b506001600160a01b0381358116916020810135821691604082013581169160600135166117c3565b6001600160a01b03821633148015610977575033600090815260d0602052604090205460ff1615156001145b6109c8576040805162461bcd60e51b815260206004820152601e60248201527f6f6e6c79206120706f6f6c2063616e206368616e6765206f776e206665650000604482015290519081900360640190fd5b6001600160a01b038216600090815260d0602052604090205460ff161515600114610a3a576040805162461bcd60e51b815260206004820152601e60248201527f737570706c6965642061646472657373206973206e6f74206120706f6f6c0000604482015290519081900360640190fd5b60da546001600160a01b038316600090815260d36020526040902054610a5f916118d9565b811115610aaa576040805162461bcd60e51b81526020600482015260146024820152730dac2dcc2cecae440cccaca40e8dede40d0d2ced60631b604482015290519081900360640190fd5b610ab7338260d254611933565b5050565b60cb546001600160a01b031681565b60cc5490565b60d95481565b60da5481565b610ae46119b1565b6065546001600160a01b03908116911614610b34576040805162461bcd60e51b81526020600482018190526024820152600080516020612534833981519152604482015290519081900360640190fd5b60cb80546001600160a01b0319166001600160a01b0392909216919091179055565b60cd546001600160a01b031690565b610b6d6119b1565b6065546001600160a01b03908116911614610bbd576040805162461bcd60e51b81526020600482018190526024820152600080516020612534833981519152604482015290519081900360640190fd5b848611158015610bce575060cc5486105b8015610bdb575060cc5485105b610c1d576040805162461bcd60e51b815260206004820152600e60248201526d696e76616c696420626f756e647360901b604482015290519081900360640190fd5b855b858111610c7f57600060cc8281548110610c3557fe5b60009182526020808320909101546001600160a01b031680835260d89091526040909120549091508614610c695750610c77565b610c75818585886119b5565b505b600101610c1f565b50505050505050565b610c906119b1565b6065546001600160a01b03908116911614610ce0576040805162461bcd60e51b81526020600482018190526024820152600080516020612534833981519152604482015290519081900360640190fd5b610ce981611afd565b50565b60d55490565b6000610cfe8383611b02565b9392505050565b60cb5460405130602482018181526001600160a01b03808b1660448501529093166084830181905260a060648401908152895160c485015289516000956060958d948d9490938a939260a481019160e49091019060208801908083838f5b83811015610d7b578181015183820152602001610d63565b50505050905090810190601f168015610da85780820380516001836020036101000a031916815260200191505b508381038252845181528451602091820191808701910280838360005b83811015610ddd578181015183820152602001610dc5565b5050505090500197505050505050505060405160208183030381529060405263eb94917d60e01b6001600160e01b0319166020820180516001600160e01b03838183161783525050505090506000610e36826001610cf2565b90506060308b8b8b8b8b8760405160240180886001600160a01b031681526020018715158152602001866001600160a01b03168152602001806020018060200180602001856001600160a01b03168152602001848103845288818151815260200191508051906020019080838360005b83811015610ebe578181015183820152602001610ea6565b50505050905090810190601f168015610eeb5780820380516001836020036101000a031916815260200191505b50848103835287518152875160209182019189019080838360005b83811015610f1e578181015183820152602001610f06565b50505050905090810190601f168015610f4b5780820380516001836020036101000a031916815260200191505b50848103825286518152865160209182019188019080838360005b83811015610f7e578181015183820152602001610f66565b50505050905090810190601f168015610fab5780820380516001836020036101000a031916815260200191505b5060408051601f198184030181529190526020810180516001600160e01b03166366fd3ce960e11b1790529b5060009a50610ff599508b985060029750610cf29650505050505050565b60cc805460018082019092557f47197230e1e4b29fc0bd84d7d78966c0925452aff72a2a121538b102457e9ebe0180546001600160a01b0319166001600160a01b038416908117909155600090815260d060209081526040808320805460ff191690941790935560d95460d89091529190205560d25490915061107b9082908990611933565b7f73a0638fe578fc759744633aa170a433061ca2cc1bb855d116c506e04a29901f818d8b8d8f428d60d25460405180896001600160a01b0316815260200188151581526020018060200180602001876001600160a01b03168152602001868152602001858152602001848152602001838103835289818151815260200191508051906020019080838360005b8381101561111f578181015183820152602001611107565b50505050905090810190601f16801561114c5780820380516001836020036101000a031916815260200191505b5083810382528851815288516020918201918a019080838360005b8381101561117f578181015183820152602001611167565b50505050905090810190601f1680156111ac5780820380516001836020036101000a031916815260200191505b509a505050505050505050505060405180910390a19b9a5050505050505050505050565b60d75490565b60d86020526000908152604090205481565b60d06020526000908152604090205460ff1681565b60da5490565b61120b6119b1565b6065546001600160a01b0390811691161461125b576040805162461bcd60e51b81526020600482018190526024820152600080516020612534833981519152604482015290519081900360640190fd5b6065546040516000916001600160a01b0316907f8be0079c531659141344cd1fd0a4f28419497f9722a3daafe3b4186f6b6457e0908390a3606580546001600160a01b0319169055565b60cb546001600160a01b031690565b6112bc6119b1565b6065546001600160a01b0390811691161461130c576040805162461bcd60e51b81526020600482018190526024820152600080516020612534833981519152604482015290519081900360640190fd5b610ab78282611c30565b61131e6119b1565b6065546001600160a01b0390811691161461136e576040805162461bcd60e51b81526020600482018190526024820152600080516020612534833981519152604482015290519081900360640190fd5b609780546001600160a01b039384166001600160a01b03199182161790915560988054929093169116179055565b6065546001600160a01b031690565b60d15460d2549091565b60cc81815481106113c257fe5b6000918252602090912001546001600160a01b0316905081565b6113e46119b1565b6065546001600160a01b03908116911614611434576040805162461bcd60e51b81526020600482018190526024820152600080516020612534833981519152604482015290519081900360640190fd5b610ce981611cc1565b60ce5460cf549091565b60d65490565b6114556119b1565b6065546001600160a01b039081169116146114a5576040805162461bcd60e51b81526020600482018190526024820152600080516020612534833981519152604482015290519081900360640190fd5b610ce981611d15565b6001600160a01b038116600090815260d06020526040812054819060ff161515600114611522576040805162461bcd60e51b815260206004820152601e60248201527f737570706c6965642061646472657373206973206e6f74206120706f6f6c0000604482015290519081900360640190fd5b50506001600160a01b0316600090815260d3602090815260408083205460d4909252909120549091565b6115546119b1565b6065546001600160a01b039081169116146115a4576040805162461bcd60e51b81526020600482018190526024820152600080516020612534833981519152604482015290519081900360640190fd5b60db55565b60d36020526000908152604090205481565b60db5481565b60d46020526000908152604090205481565b6115db6119b1565b6065546001600160a01b0390811691161461162b576040805162461bcd60e51b81526020600482018190526024820152600080516020612534833981519152604482015290519081900360640190fd5b60da55565b60db5490565b60008160ff166001141561165657506098546001600160a01b0316611664565b506097546001600160a01b03165b919050565b6116716119b1565b6065546001600160a01b039081169116146116c1576040805162461bcd60e51b81526020600482018190526024820152600080516020612534833981519152604482015290519081900360640190fd5b610ce981611d50565b6116d26119b1565b6065546001600160a01b03908116911614611722576040805162461bcd60e51b81526020600482018190526024820152600080516020612534833981519152604482015290519081900360640190fd5b6001600160a01b0381166117675760405162461bcd60e51b815260040180806020018281038252602681526020018061250e6026913960400191505060405180910390fd5b6065546040516001600160a01b038084169216907f8be0079c531659141344cd1fd0a4f28419497f9722a3daafe3b4186f6b6457e090600090a3606580546001600160a01b0319166001600160a01b0392909216919091179055565b600054610100900460ff16806117dc57506117dc611d8b565b806117ea575060005460ff16155b6118255760405162461bcd60e51b815260040180806020018281038252602e815260200180612554602e913960400191505060405180910390fd5b600054610100900460ff16158015611850576000805460ff1961ff0019909116610100171660011790555b61185a8484611d91565b60cb80546001600160a01b0319166001600160a01b03871617905561187e82611cc1565b61188c611388612710611d99565b611898600a6064611c30565b6118a462015180611d15565b6118ae600a611d50565b6118c06544484544474560d01b611afd565b80156118d2576000805461ff00191690555b5050505050565b600082820183811015610cfe576040805162461bcd60e51b815260206004820152601b60248201527f536166654d6174683a206164646974696f6e206f766572666c6f770000000000604482015290519081900360640190fd5b808211158015611945575060d1548211155b611989576040805162461bcd60e51b815260206004820152601060248201526f34b73b30b634b210333930b1ba34b7b760811b604482015290519081900360640190fd5b6001600160a01b03909216600090815260d3602090815260408083209390935560d490522055565b3390565b6001600160a01b038416611a01576040805162461bcd60e51b815260206004820152600e60248201526d1d185c99d95d0b5a5b9d985b1a5960921b604482015290519081900360640190fd5b81611a42576040805162461bcd60e51b815260206004820152600c60248201526b19185d184b5a5b9d985b1a5960a21b604482015290519081900360640190fd5b606083838080601f016020809104026020016040519081016040528093929190818152602001838380828437600092018290525084519495509384935091505060208401885af4801560018114611a9857611aa3565b3d806000803e806000fd5b50506040516001600160a01b0386169033907f78a9b536049c39a00adaf57016b1376c99dd48a0faf2cef23690232f21ce42cc90600090a3506001600160a01b03909316600090815260d860205260409020929092555050565b60d755565b600080611b0d611df9565b604080516001600160a01b038316815290519192507efffc2da0b561cae30d9826d37709e9421c4725faebc226cbbb7ef5fc5e7349919081900360200190a1806001600160a01b031663e74a474a3086866040518463ffffffff1660e01b815260040180846001600160a01b03168152602001806020018360ff168152602001828103825284818151815260200191508051906020019080838360005b83811015611bc2578181015183820152602001611baa565b50505050905090810190601f168015611bef5780820380516001836020036101000a031916815260200191505b50945050505050600060405180830381600087803b158015611c1057600080fd5b505af1158015611c24573d6000803e3d6000fd5b50929695505050505050565b80821115611c78576040805162461bcd60e51b815260206004820152601060248201526f34b73b30b634b210333930b1ba34b7b760811b604482015290519081900360640190fd5b60ce82905560cf819055604080518381526020810183905281517fb10da2958bf5ec1bff3164ff753a09e0460ed44d3abf73e79b817b500ed0f2f1929181900390910190a15050565b60cd80546001600160a01b0383166001600160a01b0319909116811790915560408051918252517ff1034ad6b4d45dc33a4142b9c51c2b7f89bf4a410696e426cc0f3224869e0aca9181900360200190a150565b60d58190556040805182815290517f20d916c976f3971e8200089411b0b712ef4612d98380b8ad2e3d8a8a376d85c79181900360200190a150565b60d68190556040805182815290517f0cd8fcb5e08d7632af461f0ad793e5c63dc0d7595c301f5880650175e37a87489181900360200190a150565b303b1590565b61136e611e40565b60008111611dee576040805162461bcd60e51b815260206004820152601c60248201527f64656e6f6d696e61746f72206d75737420626520706f73697469766500000000604482015290519081900360640190fd5b60d19190915560d255565b600080606060405180602001611e0e9061208a565b6020820181038252601f19601f8201166040525090508051602082016000f09150813b611e3a57600080fd5b50905090565b600054610100900460ff1680611e595750611e59611d8b565b80611e67575060005460ff16155b611ea25760405162461bcd60e51b815260040180806020018281038252602e815260200180612554602e913960400191505060405180910390fd5b600054610100900460ff16158015611ecd576000805460ff1961ff0019909116610100171660011790555b611ed5611ef1565b611edd611f91565b8015610ce9576000805461ff001916905550565b600054610100900460ff1680611f0a5750611f0a611d8b565b80611f18575060005460ff16155b611f535760405162461bcd60e51b815260040180806020018281038252602e815260200180612554602e913960400191505060405180910390fd5b600054610100900460ff16158015611edd576000805460ff1961ff0019909116610100171660011790558015610ce9576000805461ff001916905550565b600054610100900460ff1680611faa5750611faa611d8b565b80611fb8575060005460ff16155b611ff35760405162461bcd60e51b815260040180806020018281038252602e815260200180612554602e913960400191505060405180910390fd5b600054610100900460ff1615801561201e576000805460ff1961ff0019909116610100171660011790555b60006120286119b1565b606580546001600160a01b0319166001600160a01b038316908117909155604051919250906000907f8be0079c531659141344cd1fd0a4f28419497f9722a3daafe3b4186f6b6457e0908290a3508015610ce9576000805461ff001916905550565b610476806120988339019056fe608060405234801561001057600080fd5b50610456806100206000396000f3fe6080604052600436106100225760003560e01c8063e74a474a1461003957610031565b366100315761002f6100f4565b005b61002f6100f4565b61002f6004803603606081101561004f57600080fd5b6001600160a01b03823516919081019060408101602082013564010000000081111561007a57600080fd5b82018360208201111561008c57600080fd5b803590602001918460018302840111640100000000831117156100ae57600080fd5b91908080601f0160208091040260200160405190810160405280939291908181526020018383808284376000920191909152509295505050903560ff16915061010e9050565b6100fc61010c565b61010c610107610281565b610342565b565b6000610118610281565b6001600160a01b031614610163576040805162461bcd60e51b815260206004820152600d60248201526c496d706c206e6f74207a65726f60981b604482015290519081900360640190fd5b61016c83610366565b610175816103ce565b81511561027c576000610186610281565b6001600160a01b0316836040518082805190602001908083835b602083106101bf5780518252601f1990920191602091820191016101a0565b6001836020036101000a038019825116818451168082178552505050505050905001915050600060405180830381855af49150503d806000811461021f576040519150601f19603f3d011682016040523d82523d6000602084013e610224565b606091505b505090508061027a576040805162461bcd60e51b815260206004820152601a60248201527f496d706c656d656e746174696f6e20696e6974206661696c6564000000000000604482015290519081900360640190fd5b505b505050565b7f360894a13ba1a3210667c828492db98dca3e2076cc3735a920a3ca505d382bbc80546000916001600160a01b0382166102c05760009250505061033f565b816001600160a01b031663ecef89d56102d76103d6565b6040518263ffffffff1660e01b8152600401808260ff16815260200191505060206040518083038186803b15801561030e57600080fd5b505afa158015610322573d6000803e3d6000fd5b505050506040513d602081101561033857600080fd5b5051925050505b90565b3660008037600080366000845af43d6000803e808015610361573d6000f35b3d6000fd5b61036f816103df565b6103aa5760405162461bcd60e51b815260040180806020018281038252603b8152602001806103e6603b913960400191505060405180910390fd5b7f360894a13ba1a3210667c828492db98dca3e2076cc3735a920a3ca505d382bbc55565b600160fc1b55565b600160fc1b5490565b3b15159056fe43616e6e6f742073657420612070726f787920696d706c656d656e746174696f6e20746f2061206e6f6e2d636f6e74726163742061646472657373a264697066735822122074c59b121a2a0d1e02a85cb8ac366f5c31b6c267d5337204c70208ad502f448c64736f6c634300060c00334f776e61626c653a206e6577206f776e657220697320746865207a65726f20616464726573734f776e61626c653a2063616c6c6572206973206e6f7420746865206f776e6572436f6e747261637420696e7374616e63652068617320616c7265616479206265656e20696e697469616c697a6564a264697066735822122019efee9cfd657f7e4edefae1f694eddae8a689468eb14bfb3640f2860884942364736f6c634300060c0033",
  "linkReferences": {},
  "deployedLinkReferences": {}
}