{
  "_format": "hh-sol-artifact-1",
  "contractName": "PoolFactory-ovm",
  "sourceName": "contracts/PoolFactory.sol",
  "abi": [
    {
      "anonymous": false,
      "inputs": [
        {
          "indexed": true,
          "internalType": "address",
          "name": "asset",
          "type": "address"
        }
      ],
      "name": "AddedValidAsset",
      "type": "event"
    },
    {
      "anonymous": false,
      "inputs": [
        {
          "indexed": false,
          "internalType": "address",
          "name": "dao",
          "type": "address"
        }
      ],
      "name": "DaoAddressSet",
      "type": "event"
    },
    {
      "anonymous": false,
      "inputs": [
        {
          "indexed": false,
          "internalType": "uint256",
          "name": "numerator",
          "type": "uint256"
        },
        {
          "indexed": false,
          "internalType": "uint256",
          "name": "denominator",
          "type": "uint256"
        }
      ],
      "name": "DaoFeeSet",
      "type": "event"
    },
    {
      "anonymous": false,
      "inputs": [
        {
          "indexed": false,
          "internalType": "uint256",
          "name": "cooldown",
          "type": "uint256"
        }
      ],
      "name": "ExitCooldownSet",
      "type": "event"
    },
    {
      "anonymous": false,
      "inputs": [
        {
          "indexed": false,
          "internalType": "uint256",
          "name": "numerator",
          "type": "uint256"
        },
        {
          "indexed": false,
          "internalType": "uint256",
          "name": "denominator",
          "type": "uint256"
        }
      ],
      "name": "ExitFeeSet",
      "type": "event"
    },
    {
      "anonymous": false,
      "inputs": [
        {
          "indexed": false,
          "internalType": "address",
          "name": "fundAddress",
          "type": "address"
        },
        {
          "indexed": false,
          "internalType": "bool",
          "name": "isPoolPrivate",
          "type": "bool"
        },
        {
          "indexed": false,
          "internalType": "string",
          "name": "fundName",
          "type": "string"
        },
        {
          "indexed": false,
          "internalType": "string",
          "name": "managerName",
          "type": "string"
        },
        {
          "indexed": false,
          "internalType": "address",
          "name": "manager",
          "type": "address"
        },
        {
          "indexed": false,
          "internalType": "uint256",
          "name": "time",
          "type": "uint256"
        },
        {
          "indexed": false,
          "internalType": "uint256",
          "name": "managerFeeNumerator",
          "type": "uint256"
        },
        {
          "indexed": false,
          "internalType": "uint256",
          "name": "managerFeeDenominator",
          "type": "uint256"
        }
      ],
      "name": "FundCreated",
      "type": "event"
    },
    {
      "anonymous": false,
      "inputs": [
        {
          "indexed": true,
          "internalType": "address",
          "name": "manager",
          "type": "address"
        },
        {
          "indexed": true,
          "internalType": "address",
          "name": "pool",
          "type": "address"
        }
      ],
      "name": "LogUpgrade",
      "type": "event"
    },
    {
      "anonymous": false,
      "inputs": [
        {
          "indexed": false,
          "internalType": "uint256",
          "name": "count",
          "type": "uint256"
        }
      ],
      "name": "MaximumSupportedAssetCountSet",
      "type": "event"
    },
    {
      "anonymous": false,
      "inputs": [
        {
          "indexed": true,
          "internalType": "address",
          "name": "previousOwner",
          "type": "address"
        },
        {
          "indexed": true,
          "internalType": "address",
          "name": "newOwner",
          "type": "address"
        }
      ],
      "name": "OwnershipTransferred",
      "type": "event"
    },
    {
      "anonymous": false,
      "inputs": [
        {
          "indexed": false,
          "internalType": "address",
          "name": "proxy",
          "type": "address"
        }
      ],
      "name": "ProxyCreated",
      "type": "event"
    },
    {
      "anonymous": false,
      "inputs": [
        {
          "indexed": true,
          "internalType": "address",
          "name": "asset",
          "type": "address"
        }
      ],
      "name": "RemovedValidAsset",
      "type": "event"
    },
    {
      "inputs": [
        {
          "internalType": "address",
          "name": "asset",
          "type": "address"
        },
        {
          "internalType": "uint8",
          "name": "assetType",
          "type": "uint8"
        },
        {
          "internalType": "address",
          "name": "aggregator",
          "type": "address"
        }
      ],
      "name": "addValidAsset",
      "outputs": [],
      "stateMutability": "nonpayable",
      "type": "function"
    },
    {
      "inputs": [
        {
          "internalType": "bool",
          "name": "_privatePool",
          "type": "bool"
        },
        {
          "internalType": "address",
          "name": "_manager",
          "type": "address"
        },
        {
          "internalType": "string",
          "name": "_managerName",
          "type": "string"
        },
        {
          "internalType": "string",
          "name": "_fundName",
          "type": "string"
        },
        {
          "internalType": "string",
          "name": "_fundSymbol",
          "type": "string"
        },
        {
          "internalType": "uint256",
          "name": "_managerFeeNumerator",
          "type": "uint256"
        },
        {
          "internalType": "address[]",
          "name": "_supportedAssets",
          "type": "address[]"
        }
      ],
      "name": "createFund",
      "outputs": [
        {
          "internalType": "address",
          "name": "",
          "type": "address"
        }
      ],
      "stateMutability": "nonpayable",
      "type": "function"
    },
    {
      "inputs": [
        {
          "internalType": "bytes",
          "name": "_data",
          "type": "bytes"
        },
        {
          "internalType": "uint8",
          "name": "_proxyType",
          "type": "uint8"
        }
      ],
      "name": "deploy",
      "outputs": [
        {
          "internalType": "address",
          "name": "",
          "type": "address"
        }
      ],
      "stateMutability": "nonpayable",
      "type": "function"
    },
    {
      "inputs": [
        {
          "internalType": "uint256",
          "name": "",
          "type": "uint256"
        }
      ],
      "name": "deployedFunds",
      "outputs": [
        {
          "internalType": "address",
          "name": "",
          "type": "address"
        }
      ],
      "stateMutability": "view",
      "type": "function"
    },
    {
      "inputs": [],
      "name": "deployedFundsLength",
      "outputs": [
        {
          "internalType": "uint256",
          "name": "",
          "type": "uint256"
        }
      ],
      "stateMutability": "view",
      "type": "function"
    },
    {
      "inputs": [
        {
          "internalType": "address",
          "name": "asset",
          "type": "address"
        }
      ],
      "name": "getAssetPrice",
      "outputs": [
        {
          "internalType": "uint256",
          "name": "",
          "type": "uint256"
        }
      ],
      "stateMutability": "view",
      "type": "function"
    },
    {
      "inputs": [],
      "name": "getDaoAddress",
      "outputs": [
        {
          "internalType": "address",
          "name": "",
          "type": "address"
        }
      ],
      "stateMutability": "view",
      "type": "function"
    },
    {
      "inputs": [],
      "name": "getDaoFee",
      "outputs": [
        {
          "internalType": "uint256",
          "name": "",
          "type": "uint256"
        },
        {
          "internalType": "uint256",
          "name": "",
          "type": "uint256"
        }
      ],
      "stateMutability": "view",
      "type": "function"
    },
    {
      "inputs": [],
      "name": "getExitCooldown",
      "outputs": [
        {
          "internalType": "uint256",
          "name": "",
          "type": "uint256"
        }
      ],
      "stateMutability": "view",
      "type": "function"
    },
    {
      "inputs": [
        {
          "internalType": "address",
          "name": "extContract",
          "type": "address"
        }
      ],
      "name": "getGuard",
      "outputs": [
        {
          "internalType": "address",
          "name": "",
          "type": "address"
        }
      ],
      "stateMutability": "view",
      "type": "function"
    },
    {
      "inputs": [
        {
          "internalType": "uint8",
          "name": "_proxyType",
          "type": "uint8"
        }
      ],
      "name": "getLogic",
      "outputs": [
        {
          "internalType": "address",
          "name": "",
          "type": "address"
        }
      ],
      "stateMutability": "view",
      "type": "function"
    },
    {
      "inputs": [],
      "name": "getManagerFeeNumeratorChangeDelay",
      "outputs": [
        {
          "internalType": "uint256",
          "name": "",
          "type": "uint256"
        }
      ],
      "stateMutability": "view",
      "type": "function"
    },
    {
      "inputs": [],
      "name": "getMaximumManagerFee",
      "outputs": [
        {
          "internalType": "uint256",
          "name": "",
          "type": "uint256"
        },
        {
          "internalType": "uint256",
          "name": "",
          "type": "uint256"
        }
      ],
      "stateMutability": "view",
      "type": "function"
    },
    {
      "inputs": [],
      "name": "getMaximumManagerFeeNumeratorChange",
      "outputs": [
        {
          "internalType": "uint256",
          "name": "",
          "type": "uint256"
        }
      ],
      "stateMutability": "view",
      "type": "function"
    },
    {
      "inputs": [],
      "name": "getMaximumSupportedAssetCount",
      "outputs": [
        {
          "internalType": "uint256",
          "name": "",
          "type": "uint256"
        }
      ],
      "stateMutability": "view",
      "type": "function"
    },
    {
      "inputs": [
        {
          "internalType": "address",
          "name": "pool",
          "type": "address"
        }
      ],
      "name": "getPoolManagerFee",
      "outputs": [
        {
          "internalType": "uint256",
          "name": "",
          "type": "uint256"
        },
        {
          "internalType": "uint256",
          "name": "",
          "type": "uint256"
        }
      ],
      "stateMutability": "view",
      "type": "function"
    },
    {
      "inputs": [],
      "name": "getPriceConsumer",
      "outputs": [
        {
          "internalType": "address",
          "name": "",
          "type": "address"
        }
      ],
      "stateMutability": "view",
      "type": "function"
    },
    {
      "inputs": [],
      "name": "getTrackingCode",
      "outputs": [
        {
          "internalType": "bytes32",
          "name": "",
          "type": "bytes32"
        }
      ],
      "stateMutability": "view",
      "type": "function"
    },
    {
      "inputs": [
        {
          "internalType": "address",
          "name": "_poolLogic",
          "type": "address"
        },
        {
          "internalType": "address",
          "name": "_managerLogic",
          "type": "address"
        },
        {
          "internalType": "address",
          "name": "priceConsumer",
          "type": "address"
        },
        {
          "internalType": "address",
          "name": "daoAddress",
          "type": "address"
        },
        {
          "internalType": "address[]",
          "name": "_validAssets",
          "type": "address[]"
        },
        {
          "internalType": "uint8[]",
          "name": "_assetTypes",
          "type": "uint8[]"
        },
        {
          "internalType": "address[]",
          "name": "_aggregators",
          "type": "address[]"
        }
      ],
      "name": "initialize",
      "outputs": [],
      "stateMutability": "nonpayable",
      "type": "function"
    },
    {
      "inputs": [
        {
          "internalType": "address",
          "name": "",
          "type": "address"
        }
      ],
      "name": "isPool",
      "outputs": [
        {
          "internalType": "bool",
          "name": "",
          "type": "bool"
        }
      ],
      "stateMutability": "view",
      "type": "function"
    },
    {
      "inputs": [
        {
          "internalType": "address",
          "name": "",
          "type": "address"
        }
      ],
      "name": "isPoolManager",
      "outputs": [
        {
          "internalType": "bool",
          "name": "",
          "type": "bool"
        }
      ],
      "stateMutability": "view",
      "type": "function"
    },
    {
      "inputs": [
        {
          "internalType": "address",
          "name": "asset",
          "type": "address"
        }
      ],
      "name": "isValidAsset",
      "outputs": [
        {
          "internalType": "bool",
          "name": "",
          "type": "bool"
        }
      ],
      "stateMutability": "view",
      "type": "function"
    },
    {
      "inputs": [],
      "name": "managerFeeNumeratorChangeDelay",
      "outputs": [
        {
          "internalType": "uint256",
          "name": "",
          "type": "uint256"
        }
      ],
      "stateMutability": "view",
      "type": "function"
    },
    {
      "inputs": [],
      "name": "maximumManagerFeeNumeratorChange",
      "outputs": [
        {
          "internalType": "uint256",
          "name": "",
          "type": "uint256"
        }
      ],
      "stateMutability": "view",
      "type": "function"
    },
    {
      "inputs": [],
      "name": "owner",
      "outputs": [
        {
          "internalType": "address",
          "name": "",
          "type": "address"
        }
      ],
      "stateMutability": "view",
      "type": "function"
    },
    {
      "inputs": [
        {
          "internalType": "address",
          "name": "",
          "type": "address"
        }
      ],
      "name": "poolManagerFeeDenominator",
      "outputs": [
        {
          "internalType": "uint256",
          "name": "",
          "type": "uint256"
        }
      ],
      "stateMutability": "view",
      "type": "function"
    },
    {
      "inputs": [
        {
          "internalType": "address",
          "name": "",
          "type": "address"
        }
      ],
      "name": "poolManagerFeeNumerator",
      "outputs": [
        {
          "internalType": "uint256",
          "name": "",
          "type": "uint256"
        }
      ],
      "stateMutability": "view",
      "type": "function"
    },
    {
      "inputs": [],
      "name": "poolStorageVersion",
      "outputs": [
        {
          "internalType": "uint256",
          "name": "",
          "type": "uint256"
        }
      ],
      "stateMutability": "view",
      "type": "function"
    },
    {
      "inputs": [
        {
          "internalType": "address",
          "name": "",
          "type": "address"
        }
      ],
      "name": "poolVersion",
      "outputs": [
        {
          "internalType": "uint256",
          "name": "",
          "type": "uint256"
        }
      ],
      "stateMutability": "view",
      "type": "function"
    },
    {
      "inputs": [
        {
          "internalType": "address",
          "name": "asset",
          "type": "address"
        }
      ],
      "name": "removeValidAsset",
      "outputs": [],
      "stateMutability": "nonpayable",
      "type": "function"
    },
    {
      "inputs": [],
      "name": "renounceOwnership",
      "outputs": [],
      "stateMutability": "nonpayable",
      "type": "function"
    },
    {
      "inputs": [
        {
          "internalType": "address",
          "name": "daoAddress",
          "type": "address"
        }
      ],
      "name": "setDaoAddress",
      "outputs": [],
      "stateMutability": "nonpayable",
      "type": "function"
    },
    {
      "inputs": [
        {
          "internalType": "uint256",
          "name": "numerator",
          "type": "uint256"
        },
        {
          "internalType": "uint256",
          "name": "denominator",
          "type": "uint256"
        }
      ],
      "name": "setDaoFee",
      "outputs": [],
      "stateMutability": "nonpayable",
      "type": "function"
    },
    {
      "inputs": [
        {
          "internalType": "uint256",
          "name": "cooldown",
          "type": "uint256"
        }
      ],
      "name": "setExitCooldown",
      "outputs": [],
      "stateMutability": "nonpayable",
      "type": "function"
    },
    {
      "inputs": [
        {
          "internalType": "address",
          "name": "extContract",
          "type": "address"
        },
        {
          "internalType": "address",
          "name": "guardAddress",
          "type": "address"
        }
      ],
      "name": "setGuard",
      "outputs": [],
      "stateMutability": "nonpayable",
      "type": "function"
    },
    {
      "inputs": [
        {
          "internalType": "address",
          "name": "_poolLogic",
          "type": "address"
        },
        {
          "internalType": "address",
          "name": "_poolManagerLogic",
          "type": "address"
        }
      ],
      "name": "setLogic",
      "outputs": [],
      "stateMutability": "nonpayable",
      "type": "function"
    },
    {
      "inputs": [
        {
          "internalType": "uint256",
          "name": "delay",
          "type": "uint256"
        }
      ],
      "name": "setManagerFeeNumeratorChangeDelay",
      "outputs": [],
      "stateMutability": "nonpayable",
      "type": "function"
    },
    {
      "inputs": [
        {
          "internalType": "uint256",
          "name": "amount",
          "type": "uint256"
        }
      ],
      "name": "setMaximumManagerFeeNumeratorChange",
      "outputs": [],
      "stateMutability": "nonpayable",
      "type": "function"
    },
    {
      "inputs": [
        {
          "internalType": "uint256",
          "name": "count",
          "type": "uint256"
        }
      ],
      "name": "setMaximumSupportedAssetCount",
      "outputs": [],
      "stateMutability": "nonpayable",
      "type": "function"
    },
    {
      "inputs": [
        {
          "internalType": "address",
          "name": "pool",
          "type": "address"
        },
        {
          "internalType": "uint256",
          "name": "numerator",
          "type": "uint256"
        }
      ],
      "name": "setPoolManagerFeeNumerator",
      "outputs": [],
      "stateMutability": "nonpayable",
      "type": "function"
    },
    {
      "inputs": [
        {
          "internalType": "address",
          "name": "priceConsumer",
          "type": "address"
        }
      ],
      "name": "setPriceConsumer",
      "outputs": [],
      "stateMutability": "nonpayable",
      "type": "function"
    },
    {
      "inputs": [
        {
          "internalType": "bytes32",
          "name": "code",
          "type": "bytes32"
        }
      ],
      "name": "setTrackingCode",
      "outputs": [],
      "stateMutability": "nonpayable",
      "type": "function"
    },
    {
      "inputs": [
        {
          "internalType": "address",
          "name": "newOwner",
          "type": "address"
        }
      ],
      "name": "transferOwnership",
      "outputs": [],
      "stateMutability": "nonpayable",
      "type": "function"
    },
    {
      "inputs": [
        {
          "internalType": "uint256",
          "name": "startIndex",
          "type": "uint256"
        },
        {
          "internalType": "uint256",
          "name": "endIndex",
          "type": "uint256"
        },
        {
          "internalType": "uint256",
          "name": "sourceVersion",
          "type": "uint256"
        },
        {
          "internalType": "uint256",
          "name": "targetVersion",
          "type": "uint256"
        },
        {
          "internalType": "bytes",
          "name": "data",
          "type": "bytes"
        }
      ],
      "name": "upgradePoolBatch",
      "outputs": [],
      "stateMutability": "nonpayable",
      "type": "function"
    }
  ],
  "bytecode": "0x60806040523480156200001c576000806200001962000023565b50505b5062000090565b632a2a7adb598160e01b8152600481016020815285602082015260005b868110156200005d57808601518282016040015260200162000040565b506020828760640184336000905af158600e01573d6000803e3d6000fd5b3d6001141558600a015760016000f35b505050565b6145fd80620000a06000396000f3fe60806040523480156200001c57600080620000196200396a565b50505b5060043610620002bb5760003560e01c80639a068bd6116200017c578063c4a2267711620000e0578063e60eb412116200009e578063e60eb4121462000e88578063e99c0fa61462000ebc578063ebee461d1462000ee7578063ecef89d51462000ef1578063eec16c441462000f1f578063f2fde38b1462000f4a57620002bb565b8063c4a226771462000b88578063cc435bf31462000bcf578063ce26e9ef1462000c03578063dc76d2541462000c0d578063e527a1041462000c4157620002bb565b8063b193a5f4116200013a578063b193a5f41462000a83578063b3596f071462000ab7578063b7a545261462000aeb578063bcb01f441462000b1f578063bee37e521462000b4a578063bfeaf71d1462000b7e57620002bb565b80639a068bd614620009e55780639a3cac6a1462000a105780639cada6e41462000a44578063aa12ae4d1462000a4e578063aa7d664e1462000a5857620002bb565b806349f7c02d1162000224578063715018a611620001e2578063715018a6146200090e578063771d1baf1462000918578063808ae5fb146200094957806386e76f7314620009855780638da5cb5b14620009b957806394d0d23b14620009c357620002bb565b806349f7c02d146200084a5780635556ee5514620008545780635b16ebb714620008885780635c9bfc2b14620008d05780637027ea6c14620008da57620002bb565b80631e666d13116200027e5780631e666d13146200035d5780631e8e8bca1462000415578063227773ee1462000440578063391d348b146200047c5780634501b088146200076657806345812ca5146200077057620002bb565b8063046b72c414620002cb5780630bf99bd914620003075780630f6559c4146200032357806310bf69dc146200032d5780631d68702d1462000337575b600080620002c86200396a565b50505b6200030560048036036040811015620002ee57600080620002eb6200396a565b50505b506001600160a01b03813516906020013562000f7e565b005b6200031162001159565b60405190815260200160405180910390f35b620003116200116e565b620003116200117d565b6200034162001189565b6040516001600160a01b03909116815260200160405180910390f35b62000305600480360360a081101562000380576000806200037d6200396a565b50505b81359160208101359160408201359160608101359181019060a081016080820135600160201b811115620003be57600080620003bb6200396a565b50505b820183602082011115620003dc57600080620003d96200396a565b50505b803590602001918460018302840111600160201b831117156200040957600080620004066200396a565b50505b509092509050620011ad565b62000305600480360360208110156200043857600080620004356200396a565b50505b503562001350565b62000305600480360360408110156200046357600080620004606200396a565b50505b506001600160a01b0381358116916020013516620013e4565b62000341600480360360e08110156200049f576000806200049c6200396a565b50505b81351515916001600160a01b0360208201351691810190606081016040820135600160201b811115620004dc57600080620004d96200396a565b50505b820183602082011115620004fa57600080620004f76200396a565b50505b803590602001918460018302840111600160201b831117156200052757600080620005246200396a565b50505b91908080601f01602080910402602001604051908101604052818152929190602084018383808284376000920191909152509295949360208101935035915050600160201b8111156200058457600080620005816200396a565b50505b820183602082011115620005a2576000806200059f6200396a565b50505b803590602001918460018302840111600160201b83111715620005cf57600080620005cc6200396a565b50505b91908080601f01602080910402602001604051908101604052818152929190602084018383808284376000920191909152509295949360208101935035915050600160201b8111156200062c57600080620006296200396a565b50505b8201836020820111156200064a57600080620006476200396a565b50505b803590602001918460018302840111600160201b831117156200067757600080620006746200396a565b50505b91908080601f016020809104026020016040519081016040528181529291906020840183838082843760009201919091525092958435959094909350604081019250602001359050600160201b811115620006dc57600080620006d96200396a565b50505b820183602082011115620006fa57600080620006f76200396a565b50505b803590602001918460208302840111600160201b831117156200072757600080620007246200396a565b50505b91908080602002602001604051908101604052809392919081815260200183836020028082843760009201919091525092955062001473945050505050565b6200031162001a3c565b62000341600480360360408110156200079357600080620007906200396a565b50505b810190602081018135600160201b811115620007b957600080620007b66200396a565b50505b820183602082011115620007d757600080620007d46200396a565b50505b803590602001918460018302840111600160201b831117156200080457600080620008016200396a565b50505b91908080601f01602080910402602001604051908101604052818152929190602084018383808284376000920191909152509295505050903560ff16915062001a4f9050565b6200031162001a66565b62000311600480360360208110156200087757600080620008746200396a565b50505b50356001600160a01b031662001a74565b620008bc60048036036020811015620008ab57600080620008a86200396a565b50505b50356001600160a01b031662001a8e565b604051901515815260200160405180910390f35b6200031162001ab7565b6200034160048036036020811015620008fd57600080620008fa6200396a565b50505b50356001600160a01b031662001ac5565b6200030562001b02565b62000305600480360360408110156200093b57600080620009386200396a565b50505b508035906020013562001c16565b62000305600480360360408110156200096c57600080620009696200396a565b50505b506001600160a01b038135811691602001351662001ca8565b6200030560048036036020811015620009a857600080620009a56200396a565b50505b50356001600160a01b031662001da4565b6200034162001e35565b620009cd62001e44565b60405191825260208201526040908101905180910390f35b620003416004803603602081101562000a085760008062000a056200396a565b50505b503562001e67565b620003056004803603602081101562000a335760008062000a306200396a565b50505b50356001600160a01b031662001ea9565b620009cd62001f3a565b6200031162001f55565b620003056004803603602081101562000a7b5760008062000a786200396a565b50505b503562001f63565b620008bc6004803603602081101562000aa65760008062000aa36200396a565b50505b50356001600160a01b031662001ff4565b620003116004803603602081101562000ada5760008062000ad76200396a565b50505b50356001600160a01b031662002010565b620009cd6004803603602081101562000b0e5760008062000b0b6200396a565b50505b50356001600160a01b0316620020f1565b620003056004803603602081101562000b425760008062000b3f6200396a565b50505b5035620021d1565b620003116004803603602081101562000b6d5760008062000b6a6200396a565b50505b50356001600160a01b03166200226b565b6200031162002285565b620003056004803603606081101562000bab5760008062000ba86200396a565b50505b506001600160a01b03813581169160ff602082013516916040909101351662002291565b620008bc6004803603602081101562000bf25760008062000bef6200396a565b50505b50356001600160a01b0316620024bb565b62000341620024f1565b620003056004803603602081101562000c305760008062000c2d6200396a565b50505b50356001600160a01b031662002500565b62000305600480360360e081101562000c645760008062000c616200396a565b50505b6001600160a01b03823581169260208101358216926040820135831692606083013516919081019060a081016080820135600160201b81111562000cb25760008062000caf6200396a565b50505b82018360208201111562000cd05760008062000ccd6200396a565b50505b803590602001918460208302840111600160201b8311171562000cfd5760008062000cfa6200396a565b50505b9190808060200260200160405190810160405280939291908181526020018383602002808284376000920191909152509295949360208101935035915050600160201b81111562000d585760008062000d556200396a565b50505b82018360208201111562000d765760008062000d736200396a565b50505b803590602001918460208302840111600160201b8311171562000da35760008062000da06200396a565b50505b9190808060200260200160405190810160405280939291908181526020018383602002808284376000920191909152509295949360208101935035915050600160201b81111562000dfe5760008062000dfb6200396a565b50505b82018360208201111562000e1c5760008062000e196200396a565b50505b803590602001918460208302840111600160201b8311171562000e495760008062000e466200396a565b50505b9190808060200260200160405190810160405280939291908181526020018383602002808284376000920191909152509295506200270f945050505050565b620003116004803603602081101562000eab5760008062000ea86200396a565b50505b50356001600160a01b031662002a77565b620003056004803603602081101562000edf5760008062000edc6200396a565b50505b503562002a91565b6200031162002b25565b620003416004803603602081101562000f145760008062000f116200396a565b50505b503560ff1662002b33565b620003056004803603602081101562000f425760008062000f3f6200396a565b50505b503562002b76565b620003056004803603602081101562000f6d5760008062000f6a6200396a565b50505b50356001600160a01b031662002c07565b60d160005a62000f8d620039d7565b6001600160a01b03166001600160a01b0316815260200190815260200160002060009062000fba62003a2e565b906101000a900460ff16151560011515146200101c5760405162461bcd60e51b81526020600482015260126024820152712737ba1030903837b7b61036b0b730b3b2b960711b604482015260640160405180910390620010196200396a565b50505b6001600160a01b038216600090815260d0602052604090206000906200104162003a2e565b906101000a900460ff1615156001151514620010ae5760405162461bcd60e51b815260206004820152601e60248201527f737570706c6965642061646472657373206973206e6f74206120706f6f6c0000604482015260640160405180910390620010ab6200396a565b50505b620010e760dc620010be62003a2e565b6001600160a01b038416600090815260d460205260409020620010e062003a2e565b9062002d70565b8111156200113d5760405162461bcd60e51b81526020600482015260146024820152730dac2dcc2cecae440cccaca40e8dede40d0d2ced60631b6044820152606401604051809103906200113a6200396a565b50505b62001155828260d36200114f62003a2e565b62002ddb565b5050565b600060cb806200116862003a2e565b91505090565b60db6200117a62003a2e565b81565b60dc6200117a62003a2e565b60008060cc6200119862003a2e565b906101000a90046001600160a01b0316905090565b620011b762002e9d565b6001600160a01b031660006065620011ce62003a2e565b906101000a90046001600160a01b03166001600160a01b031614620012335760405162461bcd60e51b81526020600482018190526024820152600080516020620045af833981519152604482015260640160405180910390620012306200396a565b50505b84861115801562001251575060cb806200124c62003a2e565b905086105b80156200126b575060cb806200126662003a2e565b905085105b620012b85760405162461bcd60e51b815260206004820152600e60248201526d696e76616c696420626f756e647360901b604482015260640160405180910390620012b56200396a565b50505b855b8581116200134757600060cb8281620012d262003a2e565b8110620012db57fe5b90600052602060002001600090620012f262003a2e565b6001600160a01b036101009290920a900416600081815260da6020529091508690604090206200132162003a2e565b146200132e57506200133e565b6200133c8185858862002eaa565b505b600101620012ba565b50505050505050565b6200135a62002e9d565b6001600160a01b0316600060656200137162003a2e565b906101000a90046001600160a01b03166001600160a01b031614620013d65760405162461bcd60e51b81526020600482018190526024820152600080516020620045af833981519152604482015260640160405180910390620013d36200396a565b50505b620013e1816200303a565b50565b600060cc620013f262003a2e565b906101000a90046001600160a01b03166001600160a01b03165a62001416620039d7565b6001600160a01b031614620014675760405162461bcd60e51b81526020600482015260086024820152676f6e6c792064616f60c01b604482015260640160405180910390620014646200396a565b50505b62001155828262003048565b600060605a63996d79a5598160e01b8152602081600483336000905af158600e01573d6000803e3d6000fd5b3d6001141558600a015760016000f35b8051925060005b6040811015620014cf57600082820152602001620014b6565b50505088888560405160240180856001600160a01b03168152602001846001600160a01b031681526020018060200180602001838103835285818151815260200191508051906020019080838360005b83811015620015395780820151838201526020016200151f565b50505050905090810190601f168015620015675780820380516001836020036101000a031916815260200191505b50838103825284818151815260200191508051906020019060200280838360005b83811015620015a257808201518382015260200162001588565b505050509050019650505050505050604051601f198183030181526040919091526331a22a9960e21b6020820180516001600160e01b0316909117905290506000620015f082600162001a4f565b905060605a63996d79a5598160e01b8152602081600483336000905af158600e01573d6000803e3d6000fd5b3d6001141558600a015760016000f35b8051925060005b60408110156200164c5760008282015260200162001633565b5050508b89898560405160240180866001600160a01b0316815260200185151581526020018060200180602001846001600160a01b03168152602001838103835286818151815260200191508051906020019080838360005b83811015620016bf578082015183820152602001620016a5565b50505050905090810190601f168015620016ed5780820380516001836020036101000a031916815260200191505b50838103825285818151815260200191508051906020019080838360005b83811015620017255780820151838201526020016200170b565b50505050905090810190601f168015620017535780820380516001836020036101000a031916815260200191505b50975050505050505050604051601f19818303018152604091909152630ccb30c760e01b6020820180516001600160e01b03169091179052905060006200179c82600262001a4f565b90508060cb80600181620017af62003a2e565b018082620017bc62003a7b565b505060009283526000190191602091502001600181620017db62003a2e565b816001600160a01b0302191690836001600160a01b0316021790620017ff62003a7b565b5050506001600160a01b038116600090815260d0602052600190604090206001816200182a62003a2e565b8160ff021916908315150217906200184162003a7b565b5050506001600160a01b038316600090815260d1602052600190604090206001816200186c62003a2e565b8160ff021916908315150217906200188362003a7b565b50505060db6200189262003a2e565b6001600160a01b038216600090815260da602052604090208190620018b662003a7b565b505050620018cb818860d36200114f62003a2e565b7f73a0638fe578fc759744633aa170a433061ca2cc1bb855d116c506e04a29901f818d8b8d8f5a620018fc62003aca565b8d60d36200190962003a2e565b60405180896001600160a01b0316815260200188151581526020018060200180602001876001600160a01b03168152602001868152602001858152602001848152602001838103835289818151815260200191508051906020019080838360005b83811015620019845780820151838201526020016200196a565b50505050905090810190601f168015620019b25780820380516001836020036101000a031916815260200191505b50838103825288818151815260200191508051906020019080838360005b83811015620019ea578082015183820152602001620019d0565b50505050905090810190601f16801562001a185780820380516001836020036101000a031916815260200191505b509a505050505050505050505060405180910390a19b9a5050505050505050505050565b600060d662001a4a62003a2e565b905090565b600062001a5d83836200306f565b90505b92915050565b600060d962001a4a62003a2e565b60da60205280600052604060002090506200117a62003a2e565b60d06020528060005260406000206000915062001aaa62003a2e565b906101000a900460ff1681565b600060dc62001a4a62003a2e565b6001600160a01b038116600090815260de6020526040812060009062001aea62003a2e565b906101000a90046001600160a01b031690505b919050565b62001b0c62002e9d565b6001600160a01b03166000606562001b2362003a2e565b906101000a90046001600160a01b03166001600160a01b03161462001b885760405162461bcd60e51b81526020600482018190526024820152600080516020620045af83398151915260448201526064016040518091039062001b856200396a565b50505b600080606562001b9762003a2e565b906101000a90046001600160a01b03166001600160a01b03167f8be0079c531659141344cd1fd0a4f28419497f9722a3daafe3b4186f6b6457e060405160405180910390a36000606560018162001bed62003a2e565b816001600160a01b0302191690836001600160a01b031602179062001c1162003a7b565b505050565b62001c2062002e9d565b6001600160a01b03166000606562001c3762003a2e565b906101000a90046001600160a01b03166001600160a01b03161462001c9c5760405162461bcd60e51b81526020600482018190526024820152600080516020620045af83398151915260448201526064016040518091039062001c996200396a565b50505b6200115582826200322b565b62001cb262002e9d565b6001600160a01b03166000606562001cc962003a2e565b906101000a90046001600160a01b03166001600160a01b03161462001d2e5760405162461bcd60e51b81526020600482018190526024820152600080516020620045af83398151915260448201526064016040518091039062001d2b6200396a565b50505b81609760018162001d3e62003a2e565b816001600160a01b0302191690836001600160a01b031602179062001d6262003a7b565b50505080609860006101000a8162001d7962003a2e565b816001600160a01b0302191690836001600160a01b031602179062001d9d62003a7b565b5050505050565b62001dae62002e9d565b6001600160a01b03166000606562001dc562003a2e565b906101000a90046001600160a01b03166001600160a01b03161462001e2a5760405162461bcd60e51b81526020600482018190526024820152600080516020620045af83398151915260448201526064016040518091039062001e276200396a565b50505b620013e181620032df565b60008060656200119862003a2e565b60008060d262001e5362003a2e565b60d362001e5f62003a2e565b915091509091565b60cb818162001e7562003a2e565b811062001e7e57fe5b906000526020600020016000915062001e9662003a2e565b906101000a90046001600160a01b031681565b62001eb362002e9d565b6001600160a01b03166000606562001eca62003a2e565b906101000a90046001600160a01b03166001600160a01b03161462001f2f5760405162461bcd60e51b81526020600482018190526024820152600080516020620045af83398151915260448201526064016040518091039062001f2c6200396a565b50505b620013e181620032ef565b60008060ce62001f4962003a2e565b60cf62001e5f62003a2e565b600060d862001a4a62003a2e565b62001f6d62002e9d565b6001600160a01b03166000606562001f8462003a2e565b906101000a90046001600160a01b03166001600160a01b03161462001fe95760405162461bcd60e51b81526020600482018190526024820152600080516020620045af83398151915260448201526064016040518091039062001fe66200396a565b50505b620013e18162003366565b60d16020528060005260406000206000915062001aaa62003a2e565b60008060cd6200201f62003a2e565b906101000a90046001600160a01b03166001600160a01b0316638b2f0f4f836040516001600160e01b031960e084901b1681526001600160a01b03909116600482015260240160206040518083038186806200207a62003b11565b15801562002092576000806200208f6200396a565b50505b505a6200209e62003b5e565b5050505050158015620020c0573d6000803e3d6000620020bd6200396a565b50505b505050506040513d6020811015620020e257600080620020df6200396a565b50505b81019080805195945050505050565b6001600160a01b038116600090815260d060205280604081206000906200211762003a2e565b906101000a900460ff1615156001151514620021845760405162461bcd60e51b815260206004820152601e60248201527f737570706c6965642061646472657373206973206e6f74206120706f6f6c0000604482015260640160405180910390620021816200396a565b50505b6001600160a01b038316600090815260d460205260409020620021a662003a2e565b6001600160a01b038416600090815260d560205260409020620021c862003a2e565b91509150915091565b620021db62002e9d565b6001600160a01b031660006065620021f262003a2e565b906101000a90046001600160a01b03166001600160a01b031614620022575760405162461bcd60e51b81526020600482018190526024820152600080516020620045af833981519152604482015260640160405180910390620022546200396a565b50505b808060dd6200226562003a7b565b50505050565b60d460205280600052604060002090506200117a62003a2e565b60dd6200117a62003a2e565b600060cc6200229f62003a2e565b906101000a90046001600160a01b03166001600160a01b03165a620022c3620039d7565b6001600160a01b031614620023145760405162461bcd60e51b81526020600482015260086024820152676f6e6c792064616f60c01b604482015260640160405180910390620023116200396a565b50505b6200231f83620024bb565b15620023735760405162461bcd60e51b8152602060048201526014602482015273617373657420616c72656164792065786973747360601b604482015260640160405180910390620023706200396a565b50505b6001600160a01b038316600090815260d7602052600190604090206001816200239b62003a2e565b8160ff02191690831515021790620023b262003a7b565b50505060cd600090620023c462003a2e565b906101000a90046001600160a01b03166001600160a01b0316632c63812c8484846040516001600160e01b031960e086901b1681526001600160a01b03938416600482015260ff90921660248301529091166044820152606401600060405180830381600087806200243562003b11565b1580156200244d576000806200244a6200396a565b50505b505a6200245962003c54565b5050505050501580156200247c573d6000803e3d6000620024796200396a565b50505b50505050826001600160a01b03167fd63c302652b86334fe4eb891e7a01e61e836496485d9394f2c95b4222006ae5060405160405180910390a2505050565b6001600160a01b038116600090815260d760205260408120600090620024e062003a2e565b906101000a900460ff169050919050565b60008060cd6200119862003a2e565b600060cc6200250e62003a2e565b906101000a90046001600160a01b03166001600160a01b03165a62002532620039d7565b6001600160a01b031614620025835760405162461bcd60e51b81526020600482015260086024820152676f6e6c792064616f60c01b604482015260640160405180910390620025806200396a565b50505b6200258e81620024bb565b620025e05760405162461bcd60e51b8152602060048201526013602482015272185cdcd95d08191bd95cdb89dd08195e1a5cdd606a1b604482015260640160405180910390620025dd6200396a565b50505b6001600160a01b038116600090815260d7602052604081206001816200260562003a2e565b8160ff021916908315150217906200261c62003a7b565b50505060cd6000906200262e62003a2e565b906101000a90046001600160a01b03166001600160a01b0316638c651f11826040516001600160e01b031960e084901b1681526001600160a01b039091166004820152602401600060405180830381600087806200268b62003b11565b158015620026a357600080620026a06200396a565b50505b505a620026af62003c54565b505050505050158015620026d2573d6000803e3d6000620026cf6200396a565b50505b50505050806001600160a01b03167fe8b3c469b395bfd934168e4b7d14590c9cd1a6740533df170dbe3c219ff5a67460405160405180910390a250565b600160006200271d62003a2e565b906101000a900460ff168062002738575062002738620033ad565b806200275857506000806200274c62003a2e565b906101000a900460ff16155b620027a05760405162461bcd60e51b815260040180806020018281038252602e815260200180620045cf602e9139604001915050604051809103906200279d6200396a565b50505b6000600181620027af62003a2e565b906101000a900460ff1615905080156200281e576001600061010081620027d562003a2e565b8160ff02191690831515021790620027ec62003a7b565b50505060016000806101000a816200280362003a2e565b8160ff021916908315150217906200281a62003a7b565b5050505b6200282a888862003422565b6200283586620032df565b6200284085620032ef565b620028506113886127106200342c565b6200285e600a60646200322b565b6200286c6201518062003366565b6200287a6224ea00620021d1565b620028876103e862002a91565b62002893600a6200349f565b620028a76544484544474560d01b6200303a565b60005b84518160ff16101562002a3957600160d76000878460ff1681518110620028cd57fe5b60200260200101516001600160a01b03166001600160a01b031681526020019081526020016000206001816200290262003a2e565b8160ff021916908315150217906200291962003a7b565b50505060cd6000906200292b62003a2e565b906101000a90046001600160a01b03166001600160a01b0316632c63812c868360ff16815181106200295957fe5b6020026020010151868460ff16815181106200297157fe5b6020026020010151868560ff16815181106200298957fe5b60200260200101516040516001600160e01b031960e086901b1681526001600160a01b03938416600482015260ff9092166024830152909116604482015260640160006040518083038160008780620029e162003b11565b158015620029f957600080620029f66200396a565b50505b505a62002a0562003c54565b50505050505015801562002a28573d6000803e3d600062002a256200396a565b50505b505060019092019150620028aa9050565b50801562002a6d576000806101008162002a5262003a2e565b8160ff0219169083151502179062002a6962003a7b565b5050505b5050505050505050565b60d560205280600052604060002090506200117a62003a2e565b62002a9b62002e9d565b6001600160a01b03166000606562002ab262003a2e565b906101000a90046001600160a01b03166001600160a01b03161462002b175760405162461bcd60e51b81526020600482018190526024820152600080516020620045af83398151915260448201526064016040518091039062002b146200396a565b50505b808060dc6200226562003a7b565b600060dd62001a4a62003a2e565b60008160ff166001141562002b68576000609862002b5062003a2e565b906101000a90046001600160a01b0316905062001afd565b6000609762002b5062003a2e565b62002b8062002e9d565b6001600160a01b03166000606562002b9762003a2e565b906101000a90046001600160a01b03166001600160a01b03161462002bfc5760405162461bcd60e51b81526020600482018190526024820152600080516020620045af83398151915260448201526064016040518091039062002bf96200396a565b50505b620013e1816200349f565b62002c1162002e9d565b6001600160a01b03166000606562002c2862003a2e565b906101000a90046001600160a01b03166001600160a01b03161462002c8d5760405162461bcd60e51b81526020600482018190526024820152600080516020620045af83398151915260448201526064016040518091039062002c8a6200396a565b50505b6001600160a01b03811662002cdf5760405162461bcd60e51b815260040180806020018281038252602681526020018062004589602691396040019150506040518091039062002cdc6200396a565b50505b6001600160a01b0381166000606562002cf762003a2e565b906101000a90046001600160a01b03166001600160a01b03167f8be0079c531659141344cd1fd0a4f28419497f9722a3daafe3b4186f6b6457e060405160405180910390a380606560018162002d4c62003a2e565b816001600160a01b0302191690836001600160a01b03160217906200226562003a7b565b60008282018381101562001a5d5760405162461bcd60e51b815260206004820152601b60248201527f536166654d6174683a206164646974696f6e206f766572666c6f77000000000060448201526064016040518091039062002dd26200396a565b50509392505050565b80821115801562002df7575060d262002df362003a2e565b8211155b62002e465760405162461bcd60e51b815260206004820152601060248201526f34b73b30b634b210333930b1ba34b7b760811b60448201526064016040518091039062002e436200396a565b50505b6001600160a01b038316600090815260d4602052829060409020819062002e6c62003a7b565b5050506001600160a01b038316600090815260d5602052819060409020819062002e9562003a7b565b505050505050565b60005a62001a4a620039d7565b6001600160a01b03841662002f015760405162461bcd60e51b815260206004820152600e60248201526d1d185c99d95d0b5a5b9d985b1a5960921b60448201526064016040518091039062002efe6200396a565b50505b8162002f4d5760405162461bcd60e51b815260206004820152600c60248201526b19185d184b5a5b9d985b1a5960a21b60448201526064016040518091039062002f4a6200396a565b50505b606083838080601f01602080910402602001604051908101604052818152929190602084018383808284376000920182905250939450839250849150505160208401885a62002f9b62003d22565b505050505080156001811462002fb15762002fc8565b3d806000803e80600062002fc46200396a565b5050505b5050846001600160a01b03165a62002fdf620039d7565b6001600160a01b03167f78a9b536049c39a00adaf57016b1376c99dd48a0faf2cef23690232f21ce42cc60405160405180910390a36001600160a01b038516600090815260da602052829060409020819062002a6d62003a7b565b808060d96200226562003a7b565b6001600160a01b038216600090815260de60205281906040902060018162001d7962003a2e565b6000806200307c620034e6565b90507efffc2da0b561cae30d9826d37709e9421c4725faebc226cbbb7ef5fc5e7349816040516001600160a01b03909116815260200160405180910390a1806001600160a01b031663e74a474a5a63996d79a5598160e01b8152602081600483336000905af158600e01573d6000803e3d6000fd5b3d6001141558600a015760016000f35b8051925060005b6040811015620031215760008282015260200162003108565b50505086866040518463ffffffff1660e01b815260040180846001600160a01b03168152602001806020018360ff168152602001828103825284818151815260200191508051906020019080838360005b838110156200318c57808201518382015260200162003172565b50505050905090810190601f168015620031ba5780820380516001836020036101000a031916815260200191505b5094505050505060006040518083038160008780620031d862003b11565b158015620031f057600080620031ed6200396a565b50505b505a620031fc62003c54565b5050505050501580156200321f573d6000803e3d60006200321c6200396a565b50505b50929695505050505050565b808211156200327e5760405162461bcd60e51b815260206004820152601060248201526f34b73b30b634b210333930b1ba34b7b760811b6044820152606401604051809103906200327b6200396a565b50505b818060ce6200328c62003a7b565b5050508060cf81906200329e62003a7b565b5050507fb10da2958bf5ec1bff3164ff753a09e0460ed44d3abf73e79b817b500ed0f2f1828260405191825260208201526040908101905180910390a15050565b8060cd60018162002d4c62003a2e565b8060cc600181620032ff62003a2e565b816001600160a01b0302191690836001600160a01b03160217906200332362003a7b565b5050507ff1034ad6b4d45dc33a4142b9c51c2b7f89bf4a410696e426cc0f3224869e0aca816040516001600160a01b03909116815260200160405180910390a150565b808060d66200337462003a7b565b5050507f20d916c976f3971e8200089411b0b712ef4612d98380b8ad2e3d8a8a376d85c78160405190815260200160405180910390a150565b6000805a63996d79a5598160e01b8152602081600483336000905af158600e01573d6000803e3d6000fd5b3d6001141558600a015760016000f35b8051925060005b60408110156200340857600082820152602001620033ef565b50505090506000816200341a62003b11565b159250505090565b62001d2e6200354d565b808211156200347f5760405162461bcd60e51b815260206004820152601060248201526f34b73b30b634b210333930b1ba34b7b760811b6044820152606401604051809103906200347c6200396a565b50505b818060d26200348d62003a7b565b5050508060d3819062001d9d62003a7b565b808060d8620034ad62003a7b565b5050507f0cd8fcb5e08d7632af461f0ad793e5c63dc0d7595c301f5880650175e37a87488160405190815260200160405180910390a150565b6000806060604051620034fc6020820162003d34565b601f1982820381018352601f90910116604052905080516020820160006200352362003d42565b50509150816200353262003b11565b6200354757600080620035446200396a565b50505b50905090565b600160006200355b62003a2e565b906101000a900460ff168062003576575062003576620033ad565b806200359657506000806200358a62003a2e565b906101000a900460ff16155b620035de5760405162461bcd60e51b815260040180806020018281038252602e815260200180620045cf602e913960400191505060405180910390620035db6200396a565b50505b6000600181620035ed62003a2e565b906101000a900460ff1615905080156200365c5760016000610100816200361362003a2e565b8160ff021916908315150217906200362a62003a7b565b50505060016000806101000a816200364162003a2e565b8160ff021916908315150217906200365862003a7b565b5050505b620036666200369f565b62003670620037c5565b8015620013e157600080610100816200368862003a2e565b8160ff021916908315150217906200226562003a7b565b60016000620036ad62003a2e565b906101000a900460ff1680620036c85750620036c8620033ad565b80620036e85750600080620036dc62003a2e565b906101000a900460ff16155b620037305760405162461bcd60e51b815260040180806020018281038252602e815260200180620045cf602e9139604001915050604051809103906200372d6200396a565b50505b60006001816200373f62003a2e565b906101000a900460ff161590508015620036705760016000610100816200376562003a2e565b8160ff021916908315150217906200377c62003a7b565b50505060016000806101000a816200379362003a2e565b8160ff02191690831515021790620037aa62003a7b565b5050508015620013e157600080610100816200368862003a2e565b60016000620037d362003a2e565b906101000a900460ff1680620037ee5750620037ee620033ad565b806200380e57506000806200380262003a2e565b906101000a900460ff16155b620038565760405162461bcd60e51b815260040180806020018281038252602e815260200180620045cf602e913960400191505060405180910390620038536200396a565b50505b60006001816200386562003a2e565b906101000a900460ff161590508015620038d45760016000610100816200388b62003a2e565b8160ff02191690831515021790620038a262003a7b565b50505060016000806101000a81620038b962003a2e565b8160ff02191690831515021790620038d062003a7b565b5050505b6000620038e062002e9d565b9050806065600181620038f262003a2e565b816001600160a01b0302191690836001600160a01b03160217906200391662003a7b565b5050506001600160a01b03811660007f8be0079c531659141344cd1fd0a4f28419497f9722a3daafe3b4186f6b6457e060405160405180910390a3508015620013e157600080610100816200368862003a2e565b632a2a7adb598160e01b8152600481016020815285602082015260005b86811015620039a457808601518282016040015260200162003987565b506020828760640184336000905af158600e01573d6000803e3d6000fd5b3d6001141558600a015760016000f35b505050565b6373509064598160e01b8152602081600483336000905af158600e01573d6000803e3d6000fd5b3d6001141558600a015760016000f35b8051935060005b604081101562001c115760008282015260200162003a15565b6303daa959598160e01b8152836004820152602081602483336000905af158600e01573d6000803e3d6000fd5b3d6001141558600a015760016000f35b8051600082529350602062003a15565b6322bd64c0598160e01b8152836004820152846024820152600081604483336000905af158600e01573d6000803e3d6000fd5b3d6001141558600a015760016000f35b60008152602062003a15565b63bdbf8c36598160e01b8152602081600483336000905af158600e01573d6000803e3d6000fd5b3d6001141558600a015760016000f35b8051600082529350602062003a15565b638435035b598160e01b8152836004820152602081602483336000905af158600e01573d6000803e3d6000fd5b3d6001141558600a015760016000f35b8051600082529350602062003a15565b638540661f598160e01b815262003b92565b808083111562001a60575090919050565b808083101562001a60575090919050565b836004820152846024820152606060448201528660648201526084810160005b8881101562003bcc57808801518282015260200162003bb2565b506060828960a40184336000905af158600e01573d6000803e3d6000fd5b3d6001141558600a015760016000f35b815160408301513d6000853e8b8b82606087013350600060045af1505962003c238d3d62003b81565b8c0162003c31818762003b70565b5b8281101562003c48576000815260200162003c32565b50929c50505050505050565b6385979f76598160e01b8152836004820152846024820152606060448201528760648201526084810160005b8981101562003c9a57808901518282015260200162003c80565b506060828a60a40184336000905af158600e01573d6000803e3d6000fd5b3d6001141558600a015760016000f35b815160408301513d6000853e8c8c82606087013350600060045af1505962003cf18e3d62003b81565b8d0162003cff818762003b70565b5b8281101562003d16576000815260200162003d00565b50929d50505050505050565b63ffe73914598160e01b815262003b92565b6107c18062003dc883390190565b6314aa2ff7598160e01b8152600481016020815286602082015260005b8781101562003d7c57808701518282016040015260200162003d5f565b506020828860640184336000905af158600e01573d6000803e3d6000fd5b3d6001141558600a015760016000f35b8151965059825b8181101562001d9d576000815260200162003db156fe60806040523480156100195760008061001661001f565b50505b5061008a565b632a2a7adb598160e01b8152600481016020815285602082015260005b8681101561005757808601518282016040015260200161003c565b506020828760640184336000905af158600e01573d6000803e3d6000fd5b3d6001141558600a015760016000f35b505050565b610728806100996000396000f3fe6080604052600436106100225760003560e01c8063e74a474a1461003957610031565b366100315761002f610117565b005b61002f610117565b61002f60048036036060811015610058576000806100556104ca565b50505b6001600160a01b03823516919081019060408101602082013564010000000081111561008c576000806100896104ca565b50505b8201836020820111156100a7576000806100a46104ca565b50505b803590602001918460018302840111640100000000831117156100d2576000806100cf6104ca565b50505b91908080601f01602080910402602001604051908101604052818152929190602084018383808284376000920191909152509295505050903560ff1691506101319050565b61011f61012f565b61012f61012a6102c3565b6103c4565b565b600061013b6102c3565b6001600160a01b03161461018e5760405162461bcd60e51b815260206004820152600d60248201526c496d706c206e6f74207a65726f60981b60448201526064016040518091039061018b6104ca565b50505b61019783610401565b6101a08161048e565b6000825111156102be5760006101b46102c3565b6001600160a01b0316836040518082805190602001908083835b602083106101ed5780518252601f1990920191602091820191016101ce565b6001836020036101000a038019825116818451168082178552505050505050905001915050600060405180830381855a610225610535565b50505050509150503d8060008114610259576040513d603f01601f191681016040523d815291503d6000602084013e61025e565b606091505b50509050806102bc5760405162461bcd60e51b815260206004820152601a60248201527f496d706c656d656e746174696f6e20696e6974206661696c65640000000000006044820152606401604051809103906102b96104ca565b50505b505b505050565b6000807f360894a13ba1a3210667c828492db98dca3e2076cc3735a920a3ca505d382bbc806102f0610622565b91506001600160a01b03821661030b576000925050506103c1565b816001600160a01b031663ecef89d561032261049d565b6040516001600160e01b031960e084901b16815260ff9091166004820152602401602060405180830381868061035661067d565b15801561036b576000806103686104ca565b50505b505a6103756106c9565b5050505050158015610394573d6000803e3d60006103916104ca565b50505b505050506040513d60208110156103b3576000806103b06104ca565b50505b810190808051955050505050505b90565b3660008037600080366000845a6103d9610535565b50505050503d6000803e8080156103ef573d6000f35b3d60006103fa6104ca565b5050505050565b61040a816104b5565b6104635760405162461bcd60e51b815260206004820181905260248201527f43616e6e6f742073657420696d706c656d656e746174696f6e20746f20454f416044820152606401604051809103906104606104ca565b50505b7f360894a13ba1a3210667c828492db98dca3e2076cc3735a920a3ca505d382bbc81816102bc6106da565b600160fc1b81816102bc6106da565b600080600160fc1b806104ae610622565b9250505090565b600080826104c161067d565b15159392505050565b632a2a7adb598160e01b8152600481016020815285602082015260005b868110156105025780860151828201604001526020016104e7565b506020828760640184336000905af158600e01573d6000803e3d6000fd5b3d6001141558600a015760016000f35b505050565b63ffe73914598160e01b8152610568565b80808311156105525750815b92915050565b8080831015610552575090919050565b836004820152846024820152606060448201528660648201526084810160005b888110156105a0578088015182820152602001610588565b506060828960a40184336000905af158600e01573d6000803e3d6000fd5b3d6001141558600a015760016000f35b815160408301513d6000853e8b8b82606087013350600060045af150596105f58d3d610558565b8c016106018187610546565b5b828110156106165760008152602001610602565b50929c50505050505050565b6303daa959598160e01b8152836004820152602081602483336000905af158600e01573d6000803e3d6000fd5b3d6001141558600a015760016000f35b8051935060005b60408110156102be57600082820152602001610666565b638435035b598160e01b8152836004820152602081602483336000905af158600e01573d6000803e3d6000fd5b3d6001141558600a015760016000f35b80516000825293506020610666565b638540661f598160e01b8152610568565b6322bd64c0598160e01b8152836004820152846024820152600081604483336000905af158600e01573d6000803e3d6000fd5b3d6001141558600a015760016000f35b600081526020610666564f776e61626c653a206e6577206f776e657220697320746865207a65726f20616464726573734f776e61626c653a2063616c6c6572206973206e6f7420746865206f776e6572436f6e747261637420696e7374616e63652068617320616c7265616479206265656e20696e697469616c697a6564",
  "deployedBytecode": "0x60806040523480156200001c57600080620000196200396a565b50505b5060043610620002bb5760003560e01c80639a068bd6116200017c578063c4a2267711620000e0578063e60eb412116200009e578063e60eb4121462000e88578063e99c0fa61462000ebc578063ebee461d1462000ee7578063ecef89d51462000ef1578063eec16c441462000f1f578063f2fde38b1462000f4a57620002bb565b8063c4a226771462000b88578063cc435bf31462000bcf578063ce26e9ef1462000c03578063dc76d2541462000c0d578063e527a1041462000c4157620002bb565b8063b193a5f4116200013a578063b193a5f41462000a83578063b3596f071462000ab7578063b7a545261462000aeb578063bcb01f441462000b1f578063bee37e521462000b4a578063bfeaf71d1462000b7e57620002bb565b80639a068bd614620009e55780639a3cac6a1462000a105780639cada6e41462000a44578063aa12ae4d1462000a4e578063aa7d664e1462000a5857620002bb565b806349f7c02d1162000224578063715018a611620001e2578063715018a6146200090e578063771d1baf1462000918578063808ae5fb146200094957806386e76f7314620009855780638da5cb5b14620009b957806394d0d23b14620009c357620002bb565b806349f7c02d146200084a5780635556ee5514620008545780635b16ebb714620008885780635c9bfc2b14620008d05780637027ea6c14620008da57620002bb565b80631e666d13116200027e5780631e666d13146200035d5780631e8e8bca1462000415578063227773ee1462000440578063391d348b146200047c5780634501b088146200076657806345812ca5146200077057620002bb565b8063046b72c414620002cb5780630bf99bd914620003075780630f6559c4146200032357806310bf69dc146200032d5780631d68702d1462000337575b600080620002c86200396a565b50505b6200030560048036036040811015620002ee57600080620002eb6200396a565b50505b506001600160a01b03813516906020013562000f7e565b005b6200031162001159565b60405190815260200160405180910390f35b620003116200116e565b620003116200117d565b6200034162001189565b6040516001600160a01b03909116815260200160405180910390f35b62000305600480360360a081101562000380576000806200037d6200396a565b50505b81359160208101359160408201359160608101359181019060a081016080820135600160201b811115620003be57600080620003bb6200396a565b50505b820183602082011115620003dc57600080620003d96200396a565b50505b803590602001918460018302840111600160201b831117156200040957600080620004066200396a565b50505b509092509050620011ad565b62000305600480360360208110156200043857600080620004356200396a565b50505b503562001350565b62000305600480360360408110156200046357600080620004606200396a565b50505b506001600160a01b0381358116916020013516620013e4565b62000341600480360360e08110156200049f576000806200049c6200396a565b50505b81351515916001600160a01b0360208201351691810190606081016040820135600160201b811115620004dc57600080620004d96200396a565b50505b820183602082011115620004fa57600080620004f76200396a565b50505b803590602001918460018302840111600160201b831117156200052757600080620005246200396a565b50505b91908080601f01602080910402602001604051908101604052818152929190602084018383808284376000920191909152509295949360208101935035915050600160201b8111156200058457600080620005816200396a565b50505b820183602082011115620005a2576000806200059f6200396a565b50505b803590602001918460018302840111600160201b83111715620005cf57600080620005cc6200396a565b50505b91908080601f01602080910402602001604051908101604052818152929190602084018383808284376000920191909152509295949360208101935035915050600160201b8111156200062c57600080620006296200396a565b50505b8201836020820111156200064a57600080620006476200396a565b50505b803590602001918460018302840111600160201b831117156200067757600080620006746200396a565b50505b91908080601f016020809104026020016040519081016040528181529291906020840183838082843760009201919091525092958435959094909350604081019250602001359050600160201b811115620006dc57600080620006d96200396a565b50505b820183602082011115620006fa57600080620006f76200396a565b50505b803590602001918460208302840111600160201b831117156200072757600080620007246200396a565b50505b91908080602002602001604051908101604052809392919081815260200183836020028082843760009201919091525092955062001473945050505050565b6200031162001a3c565b62000341600480360360408110156200079357600080620007906200396a565b50505b810190602081018135600160201b811115620007b957600080620007b66200396a565b50505b820183602082011115620007d757600080620007d46200396a565b50505b803590602001918460018302840111600160201b831117156200080457600080620008016200396a565b50505b91908080601f01602080910402602001604051908101604052818152929190602084018383808284376000920191909152509295505050903560ff16915062001a4f9050565b6200031162001a66565b62000311600480360360208110156200087757600080620008746200396a565b50505b50356001600160a01b031662001a74565b620008bc60048036036020811015620008ab57600080620008a86200396a565b50505b50356001600160a01b031662001a8e565b604051901515815260200160405180910390f35b6200031162001ab7565b6200034160048036036020811015620008fd57600080620008fa6200396a565b50505b50356001600160a01b031662001ac5565b6200030562001b02565b62000305600480360360408110156200093b57600080620009386200396a565b50505b508035906020013562001c16565b62000305600480360360408110156200096c57600080620009696200396a565b50505b506001600160a01b038135811691602001351662001ca8565b6200030560048036036020811015620009a857600080620009a56200396a565b50505b50356001600160a01b031662001da4565b6200034162001e35565b620009cd62001e44565b60405191825260208201526040908101905180910390f35b620003416004803603602081101562000a085760008062000a056200396a565b50505b503562001e67565b620003056004803603602081101562000a335760008062000a306200396a565b50505b50356001600160a01b031662001ea9565b620009cd62001f3a565b6200031162001f55565b620003056004803603602081101562000a7b5760008062000a786200396a565b50505b503562001f63565b620008bc6004803603602081101562000aa65760008062000aa36200396a565b50505b50356001600160a01b031662001ff4565b620003116004803603602081101562000ada5760008062000ad76200396a565b50505b50356001600160a01b031662002010565b620009cd6004803603602081101562000b0e5760008062000b0b6200396a565b50505b50356001600160a01b0316620020f1565b620003056004803603602081101562000b425760008062000b3f6200396a565b50505b5035620021d1565b620003116004803603602081101562000b6d5760008062000b6a6200396a565b50505b50356001600160a01b03166200226b565b6200031162002285565b620003056004803603606081101562000bab5760008062000ba86200396a565b50505b506001600160a01b03813581169160ff602082013516916040909101351662002291565b620008bc6004803603602081101562000bf25760008062000bef6200396a565b50505b50356001600160a01b0316620024bb565b62000341620024f1565b620003056004803603602081101562000c305760008062000c2d6200396a565b50505b50356001600160a01b031662002500565b62000305600480360360e081101562000c645760008062000c616200396a565b50505b6001600160a01b03823581169260208101358216926040820135831692606083013516919081019060a081016080820135600160201b81111562000cb25760008062000caf6200396a565b50505b82018360208201111562000cd05760008062000ccd6200396a565b50505b803590602001918460208302840111600160201b8311171562000cfd5760008062000cfa6200396a565b50505b9190808060200260200160405190810160405280939291908181526020018383602002808284376000920191909152509295949360208101935035915050600160201b81111562000d585760008062000d556200396a565b50505b82018360208201111562000d765760008062000d736200396a565b50505b803590602001918460208302840111600160201b8311171562000da35760008062000da06200396a565b50505b9190808060200260200160405190810160405280939291908181526020018383602002808284376000920191909152509295949360208101935035915050600160201b81111562000dfe5760008062000dfb6200396a565b50505b82018360208201111562000e1c5760008062000e196200396a565b50505b803590602001918460208302840111600160201b8311171562000e495760008062000e466200396a565b50505b9190808060200260200160405190810160405280939291908181526020018383602002808284376000920191909152509295506200270f945050505050565b620003116004803603602081101562000eab5760008062000ea86200396a565b50505b50356001600160a01b031662002a77565b620003056004803603602081101562000edf5760008062000edc6200396a565b50505b503562002a91565b6200031162002b25565b620003416004803603602081101562000f145760008062000f116200396a565b50505b503560ff1662002b33565b620003056004803603602081101562000f425760008062000f3f6200396a565b50505b503562002b76565b620003056004803603602081101562000f6d5760008062000f6a6200396a565b50505b50356001600160a01b031662002c07565b60d160005a62000f8d620039d7565b6001600160a01b03166001600160a01b0316815260200190815260200160002060009062000fba62003a2e565b906101000a900460ff16151560011515146200101c5760405162461bcd60e51b81526020600482015260126024820152712737ba1030903837b7b61036b0b730b3b2b960711b604482015260640160405180910390620010196200396a565b50505b6001600160a01b038216600090815260d0602052604090206000906200104162003a2e565b906101000a900460ff1615156001151514620010ae5760405162461bcd60e51b815260206004820152601e60248201527f737570706c6965642061646472657373206973206e6f74206120706f6f6c0000604482015260640160405180910390620010ab6200396a565b50505b620010e760dc620010be62003a2e565b6001600160a01b038416600090815260d460205260409020620010e062003a2e565b9062002d70565b8111156200113d5760405162461bcd60e51b81526020600482015260146024820152730dac2dcc2cecae440cccaca40e8dede40d0d2ced60631b6044820152606401604051809103906200113a6200396a565b50505b62001155828260d36200114f62003a2e565b62002ddb565b5050565b600060cb806200116862003a2e565b91505090565b60db6200117a62003a2e565b81565b60dc6200117a62003a2e565b60008060cc6200119862003a2e565b906101000a90046001600160a01b0316905090565b620011b762002e9d565b6001600160a01b031660006065620011ce62003a2e565b906101000a90046001600160a01b03166001600160a01b031614620012335760405162461bcd60e51b81526020600482018190526024820152600080516020620045af833981519152604482015260640160405180910390620012306200396a565b50505b84861115801562001251575060cb806200124c62003a2e565b905086105b80156200126b575060cb806200126662003a2e565b905085105b620012b85760405162461bcd60e51b815260206004820152600e60248201526d696e76616c696420626f756e647360901b604482015260640160405180910390620012b56200396a565b50505b855b8581116200134757600060cb8281620012d262003a2e565b8110620012db57fe5b90600052602060002001600090620012f262003a2e565b6001600160a01b036101009290920a900416600081815260da6020529091508690604090206200132162003a2e565b146200132e57506200133e565b6200133c8185858862002eaa565b505b600101620012ba565b50505050505050565b6200135a62002e9d565b6001600160a01b0316600060656200137162003a2e565b906101000a90046001600160a01b03166001600160a01b031614620013d65760405162461bcd60e51b81526020600482018190526024820152600080516020620045af833981519152604482015260640160405180910390620013d36200396a565b50505b620013e1816200303a565b50565b600060cc620013f262003a2e565b906101000a90046001600160a01b03166001600160a01b03165a62001416620039d7565b6001600160a01b031614620014675760405162461bcd60e51b81526020600482015260086024820152676f6e6c792064616f60c01b604482015260640160405180910390620014646200396a565b50505b62001155828262003048565b600060605a63996d79a5598160e01b8152602081600483336000905af158601d01573d60011458600c01573d6000803e3d621234565260ea61109c528051925060005b6040811015620014cf57600082820152602001620014b6565b50505088888560405160240180856001600160a01b03168152602001846001600160a01b031681526020018060200180602001838103835285818151815260200191508051906020019080838360005b83811015620015395780820151838201526020016200151f565b50505050905090810190601f168015620015675780820380516001836020036101000a031916815260200191505b50838103825284818151815260200191508051906020019060200280838360005b83811015620015a257808201518382015260200162001588565b505050509050019650505050505050604051601f198183030181526040919091526331a22a9960e21b6020820180516001600160e01b0316909117905290506000620015f082600162001a4f565b905060605a63996d79a5598160e01b8152602081600483336000905af158601d01573d60011458600c01573d6000803e3d621234565260ea61109c528051925060005b60408110156200164c5760008282015260200162001633565b5050508b89898560405160240180866001600160a01b0316815260200185151581526020018060200180602001846001600160a01b03168152602001838103835286818151815260200191508051906020019080838360005b83811015620016bf578082015183820152602001620016a5565b50505050905090810190601f168015620016ed5780820380516001836020036101000a031916815260200191505b50838103825285818151815260200191508051906020019080838360005b83811015620017255780820151838201526020016200170b565b50505050905090810190601f168015620017535780820380516001836020036101000a031916815260200191505b50975050505050505050604051601f19818303018152604091909152630ccb30c760e01b6020820180516001600160e01b03169091179052905060006200179c82600262001a4f565b90508060cb80600181620017af62003a2e565b018082620017bc62003a7b565b505060009283526000190191602091502001600181620017db62003a2e565b816001600160a01b0302191690836001600160a01b0316021790620017ff62003a7b565b5050506001600160a01b038116600090815260d0602052600190604090206001816200182a62003a2e565b8160ff021916908315150217906200184162003a7b565b5050506001600160a01b038316600090815260d1602052600190604090206001816200186c62003a2e565b8160ff021916908315150217906200188362003a7b565b50505060db6200189262003a2e565b6001600160a01b038216600090815260da602052604090208190620018b662003a7b565b505050620018cb818860d36200114f62003a2e565b7f73a0638fe578fc759744633aa170a433061ca2cc1bb855d116c506e04a29901f818d8b8d8f5a620018fc62003aca565b8d60d36200190962003a2e565b60405180896001600160a01b0316815260200188151581526020018060200180602001876001600160a01b03168152602001868152602001858152602001848152602001838103835289818151815260200191508051906020019080838360005b83811015620019845780820151838201526020016200196a565b50505050905090810190601f168015620019b25780820380516001836020036101000a031916815260200191505b50838103825288818151815260200191508051906020019080838360005b83811015620019ea578082015183820152602001620019d0565b50505050905090810190601f16801562001a185780820380516001836020036101000a031916815260200191505b509a505050505050505050505060405180910390a19b9a5050505050505050505050565b600060d662001a4a62003a2e565b905090565b600062001a5d83836200306f565b90505b92915050565b600060d962001a4a62003a2e565b60da60205280600052604060002090506200117a62003a2e565b60d06020528060005260406000206000915062001aaa62003a2e565b906101000a900460ff1681565b600060dc62001a4a62003a2e565b6001600160a01b038116600090815260de6020526040812060009062001aea62003a2e565b906101000a90046001600160a01b031690505b919050565b62001b0c62002e9d565b6001600160a01b03166000606562001b2362003a2e565b906101000a90046001600160a01b03166001600160a01b03161462001b885760405162461bcd60e51b81526020600482018190526024820152600080516020620045af83398151915260448201526064016040518091039062001b856200396a565b50505b600080606562001b9762003a2e565b906101000a90046001600160a01b03166001600160a01b03167f8be0079c531659141344cd1fd0a4f28419497f9722a3daafe3b4186f6b6457e060405160405180910390a36000606560018162001bed62003a2e565b816001600160a01b0302191690836001600160a01b031602179062001c1162003a7b565b505050565b62001c2062002e9d565b6001600160a01b03166000606562001c3762003a2e565b906101000a90046001600160a01b03166001600160a01b03161462001c9c5760405162461bcd60e51b81526020600482018190526024820152600080516020620045af83398151915260448201526064016040518091039062001c996200396a565b50505b6200115582826200322b565b62001cb262002e9d565b6001600160a01b03166000606562001cc962003a2e565b906101000a90046001600160a01b03166001600160a01b03161462001d2e5760405162461bcd60e51b81526020600482018190526024820152600080516020620045af83398151915260448201526064016040518091039062001d2b6200396a565b50505b81609760018162001d3e62003a2e565b816001600160a01b0302191690836001600160a01b031602179062001d6262003a7b565b50505080609860006101000a8162001d7962003a2e565b816001600160a01b0302191690836001600160a01b031602179062001d9d62003a7b565b5050505050565b62001dae62002e9d565b6001600160a01b03166000606562001dc562003a2e565b906101000a90046001600160a01b03166001600160a01b03161462001e2a5760405162461bcd60e51b81526020600482018190526024820152600080516020620045af83398151915260448201526064016040518091039062001e276200396a565b50505b620013e181620032df565b60008060656200119862003a2e565b60008060d262001e5362003a2e565b60d362001e5f62003a2e565b915091509091565b60cb818162001e7562003a2e565b811062001e7e57fe5b906000526020600020016000915062001e9662003a2e565b906101000a90046001600160a01b031681565b62001eb362002e9d565b6001600160a01b03166000606562001eca62003a2e565b906101000a90046001600160a01b03166001600160a01b03161462001f2f5760405162461bcd60e51b81526020600482018190526024820152600080516020620045af83398151915260448201526064016040518091039062001f2c6200396a565b50505b620013e181620032ef565b60008060ce62001f4962003a2e565b60cf62001e5f62003a2e565b600060d862001a4a62003a2e565b62001f6d62002e9d565b6001600160a01b03166000606562001f8462003a2e565b906101000a90046001600160a01b03166001600160a01b03161462001fe95760405162461bcd60e51b81526020600482018190526024820152600080516020620045af83398151915260448201526064016040518091039062001fe66200396a565b50505b620013e18162003366565b60d16020528060005260406000206000915062001aaa62003a2e565b60008060cd6200201f62003a2e565b906101000a90046001600160a01b03166001600160a01b0316638b2f0f4f836040516001600160e01b031960e084901b1681526001600160a01b03909116600482015260240160206040518083038186806200207a62003b11565b15801562002092576000806200208f6200396a565b50505b505a6200209e62003b5e565b5050505050158015620020c0573d6000803e3d6000620020bd6200396a565b50505b505050506040513d6020811015620020e257600080620020df6200396a565b50505b81019080805195945050505050565b6001600160a01b038116600090815260d060205280604081206000906200211762003a2e565b906101000a900460ff1615156001151514620021845760405162461bcd60e51b815260206004820152601e60248201527f737570706c6965642061646472657373206973206e6f74206120706f6f6c0000604482015260640160405180910390620021816200396a565b50505b6001600160a01b038316600090815260d460205260409020620021a662003a2e565b6001600160a01b038416600090815260d560205260409020620021c862003a2e565b91509150915091565b620021db62002e9d565b6001600160a01b031660006065620021f262003a2e565b906101000a90046001600160a01b03166001600160a01b031614620022575760405162461bcd60e51b81526020600482018190526024820152600080516020620045af833981519152604482015260640160405180910390620022546200396a565b50505b808060dd6200226562003a7b565b50505050565b60d460205280600052604060002090506200117a62003a2e565b60dd6200117a62003a2e565b600060cc6200229f62003a2e565b906101000a90046001600160a01b03166001600160a01b03165a620022c3620039d7565b6001600160a01b031614620023145760405162461bcd60e51b81526020600482015260086024820152676f6e6c792064616f60c01b604482015260640160405180910390620023116200396a565b50505b6200231f83620024bb565b15620023735760405162461bcd60e51b8152602060048201526014602482015273617373657420616c72656164792065786973747360601b604482015260640160405180910390620023706200396a565b50505b6001600160a01b038316600090815260d7602052600190604090206001816200239b62003a2e565b8160ff02191690831515021790620023b262003a7b565b50505060cd600090620023c462003a2e565b906101000a90046001600160a01b03166001600160a01b0316632c63812c8484846040516001600160e01b031960e086901b1681526001600160a01b03938416600482015260ff90921660248301529091166044820152606401600060405180830381600087806200243562003b11565b1580156200244d576000806200244a6200396a565b50505b505a6200245962003c54565b5050505050501580156200247c573d6000803e3d6000620024796200396a565b50505b50505050826001600160a01b03167fd63c302652b86334fe4eb891e7a01e61e836496485d9394f2c95b4222006ae5060405160405180910390a2505050565b6001600160a01b038116600090815260d760205260408120600090620024e062003a2e565b906101000a900460ff169050919050565b60008060cd6200119862003a2e565b600060cc6200250e62003a2e565b906101000a90046001600160a01b03166001600160a01b03165a62002532620039d7565b6001600160a01b031614620025835760405162461bcd60e51b81526020600482015260086024820152676f6e6c792064616f60c01b604482015260640160405180910390620025806200396a565b50505b6200258e81620024bb565b620025e05760405162461bcd60e51b8152602060048201526013602482015272185cdcd95d08191bd95cdb89dd08195e1a5cdd606a1b604482015260640160405180910390620025dd6200396a565b50505b6001600160a01b038116600090815260d7602052604081206001816200260562003a2e565b8160ff021916908315150217906200261c62003a7b565b50505060cd6000906200262e62003a2e565b906101000a90046001600160a01b03166001600160a01b0316638c651f11826040516001600160e01b031960e084901b1681526001600160a01b039091166004820152602401600060405180830381600087806200268b62003b11565b158015620026a357600080620026a06200396a565b50505b505a620026af62003c54565b505050505050158015620026d2573d6000803e3d6000620026cf6200396a565b50505b50505050806001600160a01b03167fe8b3c469b395bfd934168e4b7d14590c9cd1a6740533df170dbe3c219ff5a67460405160405180910390a250565b600160006200271d62003a2e565b906101000a900460ff168062002738575062002738620033ad565b806200275857506000806200274c62003a2e565b906101000a900460ff16155b620027a05760405162461bcd60e51b815260040180806020018281038252602e815260200180620045cf602e9139604001915050604051809103906200279d6200396a565b50505b6000600181620027af62003a2e565b906101000a900460ff1615905080156200281e576001600061010081620027d562003a2e565b8160ff02191690831515021790620027ec62003a7b565b50505060016000806101000a816200280362003a2e565b8160ff021916908315150217906200281a62003a7b565b5050505b6200282a888862003422565b6200283586620032df565b6200284085620032ef565b620028506113886127106200342c565b6200285e600a60646200322b565b6200286c6201518062003366565b6200287a6224ea00620021d1565b620028876103e862002a91565b62002893600a6200349f565b620028a76544484544474560d01b6200303a565b60005b84518160ff16101562002a3957600160d76000878460ff1681518110620028cd57fe5b60200260200101516001600160a01b03166001600160a01b031681526020019081526020016000206001816200290262003a2e565b8160ff021916908315150217906200291962003a7b565b50505060cd6000906200292b62003a2e565b906101000a90046001600160a01b03166001600160a01b0316632c63812c868360ff16815181106200295957fe5b6020026020010151868460ff16815181106200297157fe5b6020026020010151868560ff16815181106200298957fe5b60200260200101516040516001600160e01b031960e086901b1681526001600160a01b03938416600482015260ff9092166024830152909116604482015260640160006040518083038160008780620029e162003b11565b158015620029f957600080620029f66200396a565b50505b505a62002a0562003c54565b50505050505015801562002a28573d6000803e3d600062002a256200396a565b50505b505060019092019150620028aa9050565b50801562002a6d576000806101008162002a5262003a2e565b8160ff0219169083151502179062002a6962003a7b565b5050505b5050505050505050565b60d560205280600052604060002090506200117a62003a2e565b62002a9b62002e9d565b6001600160a01b03166000606562002ab262003a2e565b906101000a90046001600160a01b03166001600160a01b03161462002b175760405162461bcd60e51b81526020600482018190526024820152600080516020620045af83398151915260448201526064016040518091039062002b146200396a565b50505b808060dc6200226562003a7b565b600060dd62001a4a62003a2e565b60008160ff166001141562002b68576000609862002b5062003a2e565b906101000a90046001600160a01b0316905062001afd565b6000609762002b5062003a2e565b62002b8062002e9d565b6001600160a01b03166000606562002b9762003a2e565b906101000a90046001600160a01b03166001600160a01b03161462002bfc5760405162461bcd60e51b81526020600482018190526024820152600080516020620045af83398151915260448201526064016040518091039062002bf96200396a565b50505b620013e1816200349f565b62002c1162002e9d565b6001600160a01b03166000606562002c2862003a2e565b906101000a90046001600160a01b03166001600160a01b03161462002c8d5760405162461bcd60e51b81526020600482018190526024820152600080516020620045af83398151915260448201526064016040518091039062002c8a6200396a565b50505b6001600160a01b03811662002cdf5760405162461bcd60e51b815260040180806020018281038252602681526020018062004589602691396040019150506040518091039062002cdc6200396a565b50505b6001600160a01b0381166000606562002cf762003a2e565b906101000a90046001600160a01b03166001600160a01b03167f8be0079c531659141344cd1fd0a4f28419497f9722a3daafe3b4186f6b6457e060405160405180910390a380606560018162002d4c62003a2e565b816001600160a01b0302191690836001600160a01b03160217906200226562003a7b565b60008282018381101562001a5d5760405162461bcd60e51b815260206004820152601b60248201527f536166654d6174683a206164646974696f6e206f766572666c6f77000000000060448201526064016040518091039062002dd26200396a565b50509392505050565b80821115801562002df7575060d262002df362003a2e565b8211155b62002e465760405162461bcd60e51b815260206004820152601060248201526f34b73b30b634b210333930b1ba34b7b760811b60448201526064016040518091039062002e436200396a565b50505b6001600160a01b038316600090815260d4602052829060409020819062002e6c62003a7b565b5050506001600160a01b038316600090815260d5602052819060409020819062002e9562003a7b565b505050505050565b60005a62001a4a620039d7565b6001600160a01b03841662002f015760405162461bcd60e51b815260206004820152600e60248201526d1d185c99d95d0b5a5b9d985b1a5960921b60448201526064016040518091039062002efe6200396a565b50505b8162002f4d5760405162461bcd60e51b815260206004820152600c60248201526b19185d184b5a5b9d985b1a5960a21b60448201526064016040518091039062002f4a6200396a565b50505b606083838080601f01602080910402602001604051908101604052818152929190602084018383808284376000920182905250939450839250849150505160208401885a62002f9b62003d22565b505050505080156001811462002fb15762002fc8565b3d806000803e80600062002fc46200396a565b5050505b5050846001600160a01b03165a62002fdf620039d7565b6001600160a01b03167f78a9b536049c39a00adaf57016b1376c99dd48a0faf2cef23690232f21ce42cc60405160405180910390a36001600160a01b038516600090815260da602052829060409020819062002a6d62003a7b565b808060d96200226562003a7b565b6001600160a01b038216600090815260de60205281906040902060018162001d7962003a2e565b6000806200307c620034e6565b90507efffc2da0b561cae30d9826d37709e9421c4725faebc226cbbb7ef5fc5e7349816040516001600160a01b03909116815260200160405180910390a1806001600160a01b031663e74a474a5a63996d79a5598160e01b8152602081600483336000905af158601d01573d60011458600c01573d6000803e3d621234565260ea61109c528051925060005b6040811015620031215760008282015260200162003108565b50505086866040518463ffffffff1660e01b815260040180846001600160a01b03168152602001806020018360ff168152602001828103825284818151815260200191508051906020019080838360005b838110156200318c57808201518382015260200162003172565b50505050905090810190601f168015620031ba5780820380516001836020036101000a031916815260200191505b5094505050505060006040518083038160008780620031d862003b11565b158015620031f057600080620031ed6200396a565b50505b505a620031fc62003c54565b5050505050501580156200321f573d6000803e3d60006200321c6200396a565b50505b50929695505050505050565b808211156200327e5760405162461bcd60e51b815260206004820152601060248201526f34b73b30b634b210333930b1ba34b7b760811b6044820152606401604051809103906200327b6200396a565b50505b818060ce6200328c62003a7b565b5050508060cf81906200329e62003a7b565b5050507fb10da2958bf5ec1bff3164ff753a09e0460ed44d3abf73e79b817b500ed0f2f1828260405191825260208201526040908101905180910390a15050565b8060cd60018162002d4c62003a2e565b8060cc600181620032ff62003a2e565b816001600160a01b0302191690836001600160a01b03160217906200332362003a7b565b5050507ff1034ad6b4d45dc33a4142b9c51c2b7f89bf4a410696e426cc0f3224869e0aca816040516001600160a01b03909116815260200160405180910390a150565b808060d66200337462003a7b565b5050507f20d916c976f3971e8200089411b0b712ef4612d98380b8ad2e3d8a8a376d85c78160405190815260200160405180910390a150565b6000805a63996d79a5598160e01b8152602081600483336000905af158601d01573d60011458600c01573d6000803e3d621234565260ea61109c528051925060005b60408110156200340857600082820152602001620033ef565b50505090506000816200341a62003b11565b159250505090565b62001d2e6200354d565b808211156200347f5760405162461bcd60e51b815260206004820152601060248201526f34b73b30b634b210333930b1ba34b7b760811b6044820152606401604051809103906200347c6200396a565b50505b818060d26200348d62003a7b565b5050508060d3819062001d9d62003a7b565b808060d8620034ad62003a7b565b5050507f0cd8fcb5e08d7632af461f0ad793e5c63dc0d7595c301f5880650175e37a87488160405190815260200160405180910390a150565b6000806060604051620034fc6020820162003d34565b601f1982820381018352601f90910116604052905080516020820160006200352362003d42565b50509150816200353262003b11565b6200354757600080620035446200396a565b50505b50905090565b600160006200355b62003a2e565b906101000a900460ff168062003576575062003576620033ad565b806200359657506000806200358a62003a2e565b906101000a900460ff16155b620035de5760405162461bcd60e51b815260040180806020018281038252602e815260200180620045cf602e913960400191505060405180910390620035db6200396a565b50505b6000600181620035ed62003a2e565b906101000a900460ff1615905080156200365c5760016000610100816200361362003a2e565b8160ff021916908315150217906200362a62003a7b565b50505060016000806101000a816200364162003a2e565b8160ff021916908315150217906200365862003a7b565b5050505b620036666200369f565b62003670620037c5565b8015620013e157600080610100816200368862003a2e565b8160ff021916908315150217906200226562003a7b565b60016000620036ad62003a2e565b906101000a900460ff1680620036c85750620036c8620033ad565b80620036e85750600080620036dc62003a2e565b906101000a900460ff16155b620037305760405162461bcd60e51b815260040180806020018281038252602e815260200180620045cf602e9139604001915050604051809103906200372d6200396a565b50505b60006001816200373f62003a2e565b906101000a900460ff161590508015620036705760016000610100816200376562003a2e565b8160ff021916908315150217906200377c62003a7b565b50505060016000806101000a816200379362003a2e565b8160ff02191690831515021790620037aa62003a7b565b5050508015620013e157600080610100816200368862003a2e565b60016000620037d362003a2e565b906101000a900460ff1680620037ee5750620037ee620033ad565b806200380e57506000806200380262003a2e565b906101000a900460ff16155b620038565760405162461bcd60e51b815260040180806020018281038252602e815260200180620045cf602e913960400191505060405180910390620038536200396a565b50505b60006001816200386562003a2e565b906101000a900460ff161590508015620038d45760016000610100816200388b62003a2e565b8160ff02191690831515021790620038a262003a7b565b50505060016000806101000a81620038b962003a2e565b8160ff02191690831515021790620038d062003a7b565b5050505b6000620038e062002e9d565b9050806065600181620038f262003a2e565b816001600160a01b0302191690836001600160a01b03160217906200391662003a7b565b5050506001600160a01b03811660007f8be0079c531659141344cd1fd0a4f28419497f9722a3daafe3b4186f6b6457e060405160405180910390a3508015620013e157600080610100816200368862003a2e565b632a2a7adb598160e01b8152600481016020815285602082015260005b86811015620039a457808601518282016040015260200162003987565b506020828760640184336000905af158601d01573d60011458600c01573d6000803e3d621234565260ea61109c52505050565b6373509064598160e01b8152602081600483336000905af158601d01573d60011458600c01573d6000803e3d621234565260ea61109c528051935060005b604081101562001c115760008282015260200162003a15565b6303daa959598160e01b8152836004820152602081602483336000905af158601d01573d60011458600c01573d6000803e3d621234565260ea61109c528051600082529350602062003a15565b6322bd64c0598160e01b8152836004820152846024820152600081604483336000905af158601d01573d60011458600c01573d6000803e3d621234565260ea61109c5260008152602062003a15565b63bdbf8c36598160e01b8152602081600483336000905af158601d01573d60011458600c01573d6000803e3d621234565260ea61109c528051600082529350602062003a15565b638435035b598160e01b8152836004820152602081602483336000905af158601d01573d60011458600c01573d6000803e3d621234565260ea61109c528051600082529350602062003a15565b638540661f598160e01b815262003b92565b808083111562001a60575090919050565b808083101562001a60575090919050565b836004820152846024820152606060448201528660648201526084810160005b8881101562003bcc57808801518282015260200162003bb2565b506060828960a40184336000905af158601d01573d60011458600c01573d6000803e3d621234565260ea61109c52815160408301513d6000853e8b8b82606087013350600060045af1505962003c238d3d62003b81565b8c0162003c31818762003b70565b5b8281101562003c48576000815260200162003c32565b50929c50505050505050565b6385979f76598160e01b8152836004820152846024820152606060448201528760648201526084810160005b8981101562003c9a57808901518282015260200162003c80565b506060828a60a40184336000905af158601d01573d60011458600c01573d6000803e3d621234565260ea61109c52815160408301513d6000853e8c8c82606087013350600060045af1505962003cf18e3d62003b81565b8d0162003cff818762003b70565b5b8281101562003d16576000815260200162003d00565b50929d50505050505050565b63ffe73914598160e01b815262003b92565b6107c18062003dc883390190565b6314aa2ff7598160e01b8152600481016020815286602082015260005b8781101562003d7c57808701518282016040015260200162003d5f565b506020828860640184336000905af158601d01573d60011458600c01573d6000803e3d621234565260ea61109c528151965059825b8181101562001d9d576000815260200162003db156fe60806040523480156100195760008061001661001f565b50505b5061008a565b632a2a7adb598160e01b8152600481016020815285602082015260005b8681101561005757808601518282016040015260200161003c565b506020828760640184336000905af158601d01573d60011458600c01573d6000803e3d621234565260ea61109c52505050565b610728806100996000396000f3fe6080604052600436106100225760003560e01c8063e74a474a1461003957610031565b366100315761002f610117565b005b61002f610117565b61002f60048036036060811015610058576000806100556104ca565b50505b6001600160a01b03823516919081019060408101602082013564010000000081111561008c576000806100896104ca565b50505b8201836020820111156100a7576000806100a46104ca565b50505b803590602001918460018302840111640100000000831117156100d2576000806100cf6104ca565b50505b91908080601f01602080910402602001604051908101604052818152929190602084018383808284376000920191909152509295505050903560ff1691506101319050565b61011f61012f565b61012f61012a6102c3565b6103c4565b565b600061013b6102c3565b6001600160a01b03161461018e5760405162461bcd60e51b815260206004820152600d60248201526c496d706c206e6f74207a65726f60981b60448201526064016040518091039061018b6104ca565b50505b61019783610401565b6101a08161048e565b6000825111156102be5760006101b46102c3565b6001600160a01b0316836040518082805190602001908083835b602083106101ed5780518252601f1990920191602091820191016101ce565b6001836020036101000a038019825116818451168082178552505050505050905001915050600060405180830381855a610225610535565b50505050509150503d8060008114610259576040513d603f01601f191681016040523d815291503d6000602084013e61025e565b606091505b50509050806102bc5760405162461bcd60e51b815260206004820152601a60248201527f496d706c656d656e746174696f6e20696e6974206661696c65640000000000006044820152606401604051809103906102b96104ca565b50505b505b505050565b6000807f360894a13ba1a3210667c828492db98dca3e2076cc3735a920a3ca505d382bbc806102f0610622565b91506001600160a01b03821661030b576000925050506103c1565b816001600160a01b031663ecef89d561032261049d565b6040516001600160e01b031960e084901b16815260ff9091166004820152602401602060405180830381868061035661067d565b15801561036b576000806103686104ca565b50505b505a6103756106c9565b5050505050158015610394573d6000803e3d60006103916104ca565b50505b505050506040513d60208110156103b3576000806103b06104ca565b50505b810190808051955050505050505b90565b3660008037600080366000845a6103d9610535565b50505050503d6000803e8080156103ef573d6000f35b3d60006103fa6104ca565b5050505050565b61040a816104b5565b6104635760405162461bcd60e51b815260206004820181905260248201527f43616e6e6f742073657420696d706c656d656e746174696f6e20746f20454f416044820152606401604051809103906104606104ca565b50505b7f360894a13ba1a3210667c828492db98dca3e2076cc3735a920a3ca505d382bbc81816102bc6106da565b600160fc1b81816102bc6106da565b600080600160fc1b806104ae610622565b9250505090565b600080826104c161067d565b15159392505050565b632a2a7adb598160e01b8152600481016020815285602082015260005b868110156105025780860151828201604001526020016104e7565b506020828760640184336000905af158601d01573d60011458600c01573d6000803e3d621234565260ea61109c52505050565b63ffe73914598160e01b8152610568565b80808311156105525750815b92915050565b8080831015610552575090919050565b836004820152846024820152606060448201528660648201526084810160005b888110156105a0578088015182820152602001610588565b506060828960a40184336000905af158601d01573d60011458600c01573d6000803e3d621234565260ea61109c52815160408301513d6000853e8b8b82606087013350600060045af150596105f58d3d610558565b8c016106018187610546565b5b828110156106165760008152602001610602565b50929c50505050505050565b6303daa959598160e01b8152836004820152602081602483336000905af158601d01573d60011458600c01573d6000803e3d621234565260ea61109c528051935060005b60408110156102be57600082820152602001610666565b638435035b598160e01b8152836004820152602081602483336000905af158601d01573d60011458600c01573d6000803e3d621234565260ea61109c5280516000825293506020610666565b638540661f598160e01b8152610568565b6322bd64c0598160e01b8152836004820152846024820152600081604483336000905af158601d01573d60011458600c01573d6000803e3d621234565260ea61109c52600081526020610666564f776e61626c653a206e6577206f776e657220697320746865207a65726f20616464726573734f776e61626c653a2063616c6c6572206973206e6f7420746865206f776e6572436f6e747261637420696e7374616e63652068617320616c7265616479206265656e20696e697469616c697a6564",
  "linkReferences": {},
  "deployedLinkReferences": {}
}