{
  "_format": "hh-sol-artifact-1",
  "contractName": "PoolFactory-ovm",
  "sourceName": "contracts/PoolFactory.sol",
  "abi": [
    {
      "anonymous": false,
      "inputs": [
        {
          "indexed": false,
          "internalType": "address",
          "name": "dao",
          "type": "address"
        }
      ],
      "name": "DaoAddressSet",
      "type": "event"
    },
    {
      "anonymous": false,
      "inputs": [
        {
          "indexed": false,
          "internalType": "uint256",
          "name": "numerator",
          "type": "uint256"
        },
        {
          "indexed": false,
          "internalType": "uint256",
          "name": "denominator",
          "type": "uint256"
        }
      ],
      "name": "DaoFeeSet",
      "type": "event"
    },
    {
      "anonymous": false,
      "inputs": [
        {
          "indexed": false,
          "internalType": "uint256",
          "name": "cooldown",
          "type": "uint256"
        }
      ],
      "name": "ExitCooldownSet",
      "type": "event"
    },
    {
      "anonymous": false,
      "inputs": [
        {
          "indexed": false,
          "internalType": "uint256",
          "name": "numerator",
          "type": "uint256"
        },
        {
          "indexed": false,
          "internalType": "uint256",
          "name": "denominator",
          "type": "uint256"
        }
      ],
      "name": "ExitFeeSet",
      "type": "event"
    },
    {
      "anonymous": false,
      "inputs": [
        {
          "indexed": false,
          "internalType": "address",
          "name": "fundAddress",
          "type": "address"
        },
        {
          "indexed": false,
          "internalType": "bool",
          "name": "isPoolPrivate",
          "type": "bool"
        },
        {
          "indexed": false,
          "internalType": "string",
          "name": "fundName",
          "type": "string"
        },
        {
          "indexed": false,
          "internalType": "string",
          "name": "managerName",
          "type": "string"
        },
        {
          "indexed": false,
          "internalType": "address",
          "name": "manager",
          "type": "address"
        },
        {
          "indexed": false,
          "internalType": "uint256",
          "name": "time",
          "type": "uint256"
        },
        {
          "indexed": false,
          "internalType": "uint256",
          "name": "managerFeeNumerator",
          "type": "uint256"
        },
        {
          "indexed": false,
          "internalType": "uint256",
          "name": "managerFeeDenominator",
          "type": "uint256"
        }
      ],
      "name": "FundCreated",
      "type": "event"
    },
    {
      "anonymous": false,
      "inputs": [
        {
          "indexed": true,
          "internalType": "address",
          "name": "manager",
          "type": "address"
        },
        {
          "indexed": true,
          "internalType": "address",
          "name": "pool",
          "type": "address"
        }
      ],
      "name": "LogUpgrade",
      "type": "event"
    },
    {
      "anonymous": false,
      "inputs": [
        {
          "indexed": false,
          "internalType": "uint256",
          "name": "count",
          "type": "uint256"
        }
      ],
      "name": "MaximumSupportedAssetCountSet",
      "type": "event"
    },
    {
      "anonymous": false,
      "inputs": [
        {
          "indexed": true,
          "internalType": "address",
          "name": "previousOwner",
          "type": "address"
        },
        {
          "indexed": true,
          "internalType": "address",
          "name": "newOwner",
          "type": "address"
        }
      ],
      "name": "OwnershipTransferred",
      "type": "event"
    },
    {
      "anonymous": false,
      "inputs": [
        {
          "indexed": false,
          "internalType": "address",
          "name": "proxy",
          "type": "address"
        }
      ],
      "name": "ProxyCreated",
      "type": "event"
    },
    {
      "inputs": [],
      "name": "addressResolver",
      "outputs": [
        {
          "internalType": "contract IAddressResolver",
          "name": "",
          "type": "address"
        }
      ],
      "stateMutability": "view",
      "type": "function"
    },
    {
      "inputs": [
        {
          "internalType": "bool",
          "name": "_privatePool",
          "type": "bool"
        },
        {
          "internalType": "address",
          "name": "_manager",
          "type": "address"
        },
        {
          "internalType": "string",
          "name": "_managerName",
          "type": "string"
        },
        {
          "internalType": "string",
          "name": "_fundName",
          "type": "string"
        },
        {
          "internalType": "string",
          "name": "_fundSymbol",
          "type": "string"
        },
        {
          "internalType": "uint256",
          "name": "_managerFeeNumerator",
          "type": "uint256"
        },
        {
          "internalType": "bytes32[]",
          "name": "_supportedAssets",
          "type": "bytes32[]"
        }
      ],
      "name": "createFund",
      "outputs": [
        {
          "internalType": "address",
          "name": "",
          "type": "address"
        }
      ],
      "stateMutability": "nonpayable",
      "type": "function"
    },
    {
      "inputs": [
        {
          "internalType": "bytes",
          "name": "_data",
          "type": "bytes"
        },
        {
          "internalType": "uint8",
          "name": "_proxyType",
          "type": "uint8"
        }
      ],
      "name": "deploy",
      "outputs": [
        {
          "internalType": "address",
          "name": "",
          "type": "address"
        }
      ],
      "stateMutability": "nonpayable",
      "type": "function"
    },
    {
      "inputs": [
        {
          "internalType": "uint256",
          "name": "",
          "type": "uint256"
        }
      ],
      "name": "deployedFunds",
      "outputs": [
        {
          "internalType": "address",
          "name": "",
          "type": "address"
        }
      ],
      "stateMutability": "view",
      "type": "function"
    },
    {
      "inputs": [],
      "name": "deployedFundsLength",
      "outputs": [
        {
          "internalType": "uint256",
          "name": "",
          "type": "uint256"
        }
      ],
      "stateMutability": "view",
      "type": "function"
    },
    {
      "inputs": [],
      "name": "getAddressResolver",
      "outputs": [
        {
          "internalType": "contract IAddressResolver",
          "name": "",
          "type": "address"
        }
      ],
      "stateMutability": "view",
      "type": "function"
    },
    {
      "inputs": [],
      "name": "getDaoAddress",
      "outputs": [
        {
          "internalType": "address",
          "name": "",
          "type": "address"
        }
      ],
      "stateMutability": "view",
      "type": "function"
    },
    {
      "inputs": [],
      "name": "getDaoFee",
      "outputs": [
        {
          "internalType": "uint256",
          "name": "",
          "type": "uint256"
        },
        {
          "internalType": "uint256",
          "name": "",
          "type": "uint256"
        }
      ],
      "stateMutability": "view",
      "type": "function"
    },
    {
      "inputs": [],
      "name": "getExitCooldown",
      "outputs": [
        {
          "internalType": "uint256",
          "name": "",
          "type": "uint256"
        }
      ],
      "stateMutability": "view",
      "type": "function"
    },
    {
      "inputs": [
        {
          "internalType": "uint8",
          "name": "_proxyType",
          "type": "uint8"
        }
      ],
      "name": "getLogic",
      "outputs": [
        {
          "internalType": "address",
          "name": "",
          "type": "address"
        }
      ],
      "stateMutability": "view",
      "type": "function"
    },
    {
      "inputs": [],
      "name": "getManagerFeeNumeratorChangeDelay",
      "outputs": [
        {
          "internalType": "uint256",
          "name": "",
          "type": "uint256"
        }
      ],
      "stateMutability": "view",
      "type": "function"
    },
    {
      "inputs": [],
      "name": "getMaximumManagerFee",
      "outputs": [
        {
          "internalType": "uint256",
          "name": "",
          "type": "uint256"
        },
        {
          "internalType": "uint256",
          "name": "",
          "type": "uint256"
        }
      ],
      "stateMutability": "view",
      "type": "function"
    },
    {
      "inputs": [],
      "name": "getMaximumManagerFeeNumeratorChange",
      "outputs": [
        {
          "internalType": "uint256",
          "name": "",
          "type": "uint256"
        }
      ],
      "stateMutability": "view",
      "type": "function"
    },
    {
      "inputs": [],
      "name": "getMaximumSupportedAssetCount",
      "outputs": [
        {
          "internalType": "uint256",
          "name": "",
          "type": "uint256"
        }
      ],
      "stateMutability": "view",
      "type": "function"
    },
    {
      "inputs": [
        {
          "internalType": "address",
          "name": "pool",
          "type": "address"
        }
      ],
      "name": "getPoolManagerFee",
      "outputs": [
        {
          "internalType": "uint256",
          "name": "",
          "type": "uint256"
        },
        {
          "internalType": "uint256",
          "name": "",
          "type": "uint256"
        }
      ],
      "stateMutability": "view",
      "type": "function"
    },
    {
      "inputs": [],
      "name": "getTrackingCode",
      "outputs": [
        {
          "internalType": "bytes32",
          "name": "",
          "type": "bytes32"
        }
      ],
      "stateMutability": "view",
      "type": "function"
    },
    {
      "inputs": [
        {
          "internalType": "contract IAddressResolver",
          "name": "_addressResolver",
          "type": "address"
        },
        {
          "internalType": "address",
          "name": "_poolLogic",
          "type": "address"
        },
        {
          "internalType": "address",
          "name": "_managerLogic",
          "type": "address"
        },
        {
          "internalType": "address",
          "name": "daoAddress",
          "type": "address"
        }
      ],
      "name": "initialize",
      "outputs": [],
      "stateMutability": "nonpayable",
      "type": "function"
    },
    {
      "inputs": [
        {
          "internalType": "address",
          "name": "",
          "type": "address"
        }
      ],
      "name": "isPool",
      "outputs": [
        {
          "internalType": "bool",
          "name": "",
          "type": "bool"
        }
      ],
      "stateMutability": "view",
      "type": "function"
    },
    {
      "inputs": [
        {
          "internalType": "address",
          "name": "",
          "type": "address"
        }
      ],
      "name": "isPoolManager",
      "outputs": [
        {
          "internalType": "bool",
          "name": "",
          "type": "bool"
        }
      ],
      "stateMutability": "view",
      "type": "function"
    },
    {
      "inputs": [],
      "name": "managerFeeNumeratorChangeDelay",
      "outputs": [
        {
          "internalType": "uint256",
          "name": "",
          "type": "uint256"
        }
      ],
      "stateMutability": "view",
      "type": "function"
    },
    {
      "inputs": [],
      "name": "maximumManagerFeeNumeratorChange",
      "outputs": [
        {
          "internalType": "uint256",
          "name": "",
          "type": "uint256"
        }
      ],
      "stateMutability": "view",
      "type": "function"
    },
    {
      "inputs": [],
      "name": "owner",
      "outputs": [
        {
          "internalType": "address",
          "name": "",
          "type": "address"
        }
      ],
      "stateMutability": "view",
      "type": "function"
    },
    {
      "inputs": [
        {
          "internalType": "address",
          "name": "",
          "type": "address"
        }
      ],
      "name": "poolManagerFeeDenominator",
      "outputs": [
        {
          "internalType": "uint256",
          "name": "",
          "type": "uint256"
        }
      ],
      "stateMutability": "view",
      "type": "function"
    },
    {
      "inputs": [
        {
          "internalType": "address",
          "name": "",
          "type": "address"
        }
      ],
      "name": "poolManagerFeeNumerator",
      "outputs": [
        {
          "internalType": "uint256",
          "name": "",
          "type": "uint256"
        }
      ],
      "stateMutability": "view",
      "type": "function"
    },
    {
      "inputs": [],
      "name": "poolStorageVersion",
      "outputs": [
        {
          "internalType": "uint256",
          "name": "",
          "type": "uint256"
        }
      ],
      "stateMutability": "view",
      "type": "function"
    },
    {
      "inputs": [
        {
          "internalType": "address",
          "name": "",
          "type": "address"
        }
      ],
      "name": "poolVersion",
      "outputs": [
        {
          "internalType": "uint256",
          "name": "",
          "type": "uint256"
        }
      ],
      "stateMutability": "view",
      "type": "function"
    },
    {
      "inputs": [],
      "name": "renounceOwnership",
      "outputs": [],
      "stateMutability": "nonpayable",
      "type": "function"
    },
    {
      "inputs": [
        {
          "internalType": "address",
          "name": "_addressResolver",
          "type": "address"
        }
      ],
      "name": "setAddressResolver",
      "outputs": [],
      "stateMutability": "nonpayable",
      "type": "function"
    },
    {
      "inputs": [
        {
          "internalType": "address",
          "name": "daoAddress",
          "type": "address"
        }
      ],
      "name": "setDaoAddress",
      "outputs": [],
      "stateMutability": "nonpayable",
      "type": "function"
    },
    {
      "inputs": [
        {
          "internalType": "uint256",
          "name": "numerator",
          "type": "uint256"
        },
        {
          "internalType": "uint256",
          "name": "denominator",
          "type": "uint256"
        }
      ],
      "name": "setDaoFee",
      "outputs": [],
      "stateMutability": "nonpayable",
      "type": "function"
    },
    {
      "inputs": [
        {
          "internalType": "uint256",
          "name": "cooldown",
          "type": "uint256"
        }
      ],
      "name": "setExitCooldown",
      "outputs": [],
      "stateMutability": "nonpayable",
      "type": "function"
    },
    {
      "inputs": [
        {
          "internalType": "address",
          "name": "_poolLogic",
          "type": "address"
        },
        {
          "internalType": "address",
          "name": "_poolManagerLogic",
          "type": "address"
        }
      ],
      "name": "setLogic",
      "outputs": [],
      "stateMutability": "nonpayable",
      "type": "function"
    },
    {
      "inputs": [
        {
          "internalType": "uint256",
          "name": "delay",
          "type": "uint256"
        }
      ],
      "name": "setManagerFeeNumeratorChangeDelay",
      "outputs": [],
      "stateMutability": "nonpayable",
      "type": "function"
    },
    {
      "inputs": [
        {
          "internalType": "uint256",
          "name": "amount",
          "type": "uint256"
        }
      ],
      "name": "setMaximumManagerFeeNumeratorChange",
      "outputs": [],
      "stateMutability": "nonpayable",
      "type": "function"
    },
    {
      "inputs": [
        {
          "internalType": "uint256",
          "name": "count",
          "type": "uint256"
        }
      ],
      "name": "setMaximumSupportedAssetCount",
      "outputs": [],
      "stateMutability": "nonpayable",
      "type": "function"
    },
    {
      "inputs": [
        {
          "internalType": "address",
          "name": "pool",
          "type": "address"
        },
        {
          "internalType": "uint256",
          "name": "numerator",
          "type": "uint256"
        }
      ],
      "name": "setPoolManagerFeeNumerator",
      "outputs": [],
      "stateMutability": "nonpayable",
      "type": "function"
    },
    {
      "inputs": [
        {
          "internalType": "bytes32",
          "name": "code",
          "type": "bytes32"
        }
      ],
      "name": "setTrackingCode",
      "outputs": [],
      "stateMutability": "nonpayable",
      "type": "function"
    },
    {
      "inputs": [
        {
          "internalType": "address",
          "name": "newOwner",
          "type": "address"
        }
      ],
      "name": "transferOwnership",
      "outputs": [],
      "stateMutability": "nonpayable",
      "type": "function"
    },
    {
      "inputs": [
        {
          "internalType": "uint256",
          "name": "startIndex",
          "type": "uint256"
        },
        {
          "internalType": "uint256",
          "name": "endIndex",
          "type": "uint256"
        },
        {
          "internalType": "uint256",
          "name": "sourceVersion",
          "type": "uint256"
        },
        {
          "internalType": "uint256",
          "name": "targetVersion",
          "type": "uint256"
        },
        {
          "internalType": "bytes",
          "name": "data",
          "type": "bytes"
        }
      ],
      "name": "upgradePoolBatch",
      "outputs": [],
      "stateMutability": "nonpayable",
      "type": "function"
    }
  ],
  "bytecode": "0x60806040523480156200001c576000806200001962000023565b50505b5062000090565b632a2a7adb598160e01b8152600481016020815285602082015260005b868110156200005d57808601518282016040015260200162000040565b506020828760640184336000905af158600e01573d6000803e3d6000fd5b3d6001141558600a015760016000f35b505050565b613bb780620000a06000396000f3fe60806040523480156200001c576000806200001962002edb565b50505b50600436106200027f5760003560e01c8063808ae5fb1162000164578063bcb01f4411620000d4578063ebee461d1162000092578063ebee461d1462000b1b578063ecef89d51462000b25578063eec16c441462000b53578063f2fde38b1462000b7e578063f8c8765e1462000bb2576200027f565b8063bcb01f441462000a53578063bee37e521462000a7e578063bfeaf71d1462000ab2578063e60eb4121462000abc578063e99c0fa61462000af0576200027f565b80639cada6e411620001225780639cada6e414620009ac578063aa12ae4d14620009b6578063aa7d664e14620009c0578063b193a5f414620009eb578063b7a545261462000a1f576200027f565b8063808ae5fb14620008e55780638da5cb5b146200092157806394d0d23b146200092b5780639a068bd6146200094d5780639a3cac6a1462000978576200027f565b80634501b08811620002005780635b16ebb711620001be5780635b16ebb7146200084e5780635c9bfc2b1462000896578063715018a614620008a057806371c1c54914620008aa578063771d1baf14620008b4576200027f565b80634501b088146200044257806345812ca5146200044c57806348281272146200052657806349f7c02d14620008105780635556ee55146200081a576200027f565b806310bf69dc116200024e57806310bf69dc14620003175780631430238714620003215780631d68702d14620003555780631e666d13146200035f5780631e8e8bca1462000417576200027f565b8063046b72c4146200028f57806305a2ee2a14620002cb5780630bf99bd914620002f15780630f6559c4146200030d575b6000806200028c62002edb565b50505b620002c960048036036040811015620002b257600080620002af62002edb565b50505b506001600160a01b03813516906020013562000bfe565b005b620002d562000dd0565b6040516001600160a01b03909116815260200160405180910390f35b620002fb62000df1565b60405190815260200160405180910390f35b620002fb62000e06565b620002fb62000e15565b620002c96004803603602081101562000344576000806200034162002edb565b50505b50356001600160a01b031662000e21565b620002d562000ee1565b620002c9600480360360a081101562000382576000806200037f62002edb565b50505b81359160208101359160408201359160608101359181019060a081016080820135600160201b811115620003c057600080620003bd62002edb565b50505b820183602082011115620003de57600080620003db62002edb565b50505b803590602001918460018302840111600160201b831117156200040b576000806200040862002edb565b50505b50909250905062000f05565b620002c9600480360360208110156200043a576000806200043762002edb565b50505b5035620010a8565b620002fb6200113c565b620002d5600480360360408110156200046f576000806200046c62002edb565b50505b810190602081018135600160201b81111562000495576000806200049262002edb565b50505b820183602082011115620004b357600080620004b062002edb565b50505b803590602001918460018302840111600160201b83111715620004e057600080620004dd62002edb565b50505b91908080601f01602080910402602001604051908101604052818152929190602084018383808284376000920191909152509295505050903560ff1691506200114f9050565b620002d5600480360360e081101562000549576000806200054662002edb565b50505b81351515916001600160a01b0360208201351691810190606081016040820135600160201b81111562000586576000806200058362002edb565b50505b820183602082011115620005a457600080620005a162002edb565b50505b803590602001918460018302840111600160201b83111715620005d157600080620005ce62002edb565b50505b91908080601f01602080910402602001604051908101604052818152929190602084018383808284376000920191909152509295949360208101935035915050600160201b8111156200062e576000806200062b62002edb565b50505b8201836020820111156200064c576000806200064962002edb565b50505b803590602001918460018302840111600160201b8311171562000679576000806200067662002edb565b50505b91908080601f01602080910402602001604051908101604052818152929190602084018383808284376000920191909152509295949360208101935035915050600160201b811115620006d657600080620006d362002edb565b50505b820183602082011115620006f457600080620006f162002edb565b50505b803590602001918460018302840111600160201b8311171562000721576000806200071e62002edb565b50505b91908080601f016020809104026020016040519081016040528181529291906020840183838082843760009201919091525092958435959094909350604081019250602001359050600160201b81111562000786576000806200078362002edb565b50505b820183602082011115620007a457600080620007a162002edb565b50505b803590602001918460208302840111600160201b83111715620007d157600080620007ce62002edb565b50505b91908080602002602001604051908101604052809392919081815260200183836020028082843760009201919091525092955062001166945050505050565b620002fb620017dc565b620002fb600480360360208110156200083d576000806200083a62002edb565b50505b50356001600160a01b0316620017ea565b620008826004803603602081101562000871576000806200086e62002edb565b50505b50356001600160a01b031662001804565b604051901515815260200160405180910390f35b620002fb6200182d565b620002c96200183b565b620002d56200194f565b620002c960048036036040811015620008d757600080620008d462002edb565b50505b50803590602001356200195e565b620002c96004803603604081101562000908576000806200090562002edb565b50505b506001600160a01b0381358116916020013516620019f0565b620002d562001aec565b6200093562001afb565b60405191825260208201526040908101905180910390f35b620002d56004803603602081101562000970576000806200096d62002edb565b50505b503562001b1e565b620002c9600480360360208110156200099b576000806200099862002edb565b50505b50356001600160a01b031662001b4d565b6200093562001bde565b620002fb62001bf9565b620002c960048036036020811015620009e357600080620009e062002edb565b50505b503562001c07565b620008826004803603602081101562000a0e5760008062000a0b62002edb565b50505b50356001600160a01b031662001c98565b620009356004803603602081101562000a425760008062000a3f62002edb565b50505b50356001600160a01b031662001cb4565b620002c96004803603602081101562000a765760008062000a7362002edb565b50505b503562001d94565b620002fb6004803603602081101562000aa15760008062000a9e62002edb565b50505b50356001600160a01b031662001e28565b620002fb62001e42565b620002fb6004803603602081101562000adf5760008062000adc62002edb565b50505b50356001600160a01b031662001e4e565b620002c96004803603602081101562000b135760008062000b1062002edb565b50505b503562001e68565b620002fb62001efc565b620002d56004803603602081101562000b485760008062000b4562002edb565b50505b503560ff1662001f0a565b620002c96004803603602081101562000b765760008062000b7362002edb565b50505b503562001f52565b620002c96004803603602081101562000ba15760008062000b9e62002edb565b50505b50356001600160a01b031662001fe3565b620002c96004803603608081101562000bd55760008062000bd262002edb565b50505b506001600160a01b03813581169160208101358216916040820135811691606001351662002128565b60d160005a62000c0d62002f48565b6001600160a01b03166001600160a01b0316815260200190815260200160002060009062000c3a62002f9f565b906101000a900460ff161515600115151462000c935760405162461bcd60e51b815260040180806020018281038252603481526020018062003b83603491396040019150506040518091039062000c9062002edb565b50505b6001600160a01b038216600090815260d06020526040902060009062000cb862002f9f565b906101000a900460ff161515600115151462000d255760405162461bcd60e51b815260206004820152601e60248201527f737570706c6965642061646472657373206973206e6f74206120706f6f6c000060448201526064016040518091039062000d2262002edb565b50505b62000d5e60db62000d3562002f9f565b6001600160a01b038416600090815260d46020526040902062000d5762002f9f565b9062002318565b81111562000db45760405162461bcd60e51b81526020600482015260146024820152730dac2dcc2cecae440cccaca40e8dede40d0d2ced60631b60448201526064016040518091039062000db162002edb565b50505b62000dcc828260d362000dc662002f9f565b62002383565b5050565b600060cb62000dde62002f9f565b906101000a90046001600160a01b031681565b600060cc8062000e0062002f9f565b91505090565b60da62000e1262002f9f565b81565b60db62000e1262002f9f565b62000e2b62002445565b6001600160a01b03166000606562000e4262002f9f565b906101000a90046001600160a01b03166001600160a01b03161462000ea75760405162461bcd60e51b8152602060048201819052602482015260008051602062003b3583398151915260448201526064016040518091039062000ea462002edb565b50505b8060cb60018162000eb762002f9f565b816001600160a01b0302191690836001600160a01b031602179062000edb62002fec565b50505050565b60008060cd62000ef062002f9f565b906101000a90046001600160a01b0316905090565b62000f0f62002445565b6001600160a01b03166000606562000f2662002f9f565b906101000a90046001600160a01b03166001600160a01b03161462000f8b5760405162461bcd60e51b8152602060048201819052602482015260008051602062003b3583398151915260448201526064016040518091039062000f8862002edb565b50505b84861115801562000fa9575060cc8062000fa462002f9f565b905086105b801562000fc3575060cc8062000fbe62002f9f565b905085105b620010105760405162461bcd60e51b815260206004820152600e60248201526d696e76616c696420626f756e647360901b6044820152606401604051809103906200100d62002edb565b50505b855b8581116200109f57600060cc82816200102a62002f9f565b81106200103357fe5b906000526020600020016000906200104a62002f9f565b6001600160a01b036101009290920a900416600081815260d96020529091508690604090206200107962002f9f565b1462001086575062001096565b620010948185858862002452565b505b60010162001012565b50505050505050565b620010b262002445565b6001600160a01b031660006065620010c962002f9f565b906101000a90046001600160a01b03166001600160a01b0316146200112e5760405162461bcd60e51b8152602060048201819052602482015260008051602062003b358339815191526044820152606401604051809103906200112b62002edb565b50505b6200113981620025e2565b50565b600060d66200114a62002f9f565b905090565b60006200115d8383620025f0565b90505b92915050565b600060605a63996d79a5598160e01b8152602081600483336000905af158600e01573d6000803e3d6000fd5b3d6001141558600a015760016000f35b8051925060005b6040811015620011c257600082820152602001620011a9565b505050888860cb600090620011d662002f9f565b906101000a90046001600160a01b03168660405160240180866001600160a01b03168152602001856001600160a01b0316815260200180602001846001600160a01b0316815260200180602001838103835286818151815260200191508051906020019080838360005b838110156200125a57808201518382015260200162001240565b50505050905090810190601f168015620012885780820380516001836020036101000a031916815260200191505b50838103825284818151815260200191508051906020019060200280838360005b83811015620012c3578082015183820152602001620012a9565b50505050905001975050505050505050604051601f1981830301815260409190915263eb94917d60e01b6020820180516001600160e01b0316909117905290506000620013128260016200114f565b905060605a63996d79a5598160e01b8152602081600483336000905af158600e01573d6000803e3d6000fd5b3d6001141558600a015760016000f35b8051925060005b60408110156200136e5760008282015260200162001355565b5050508b8b8b8b8b8760405160240180886001600160a01b031681526020018715158152602001866001600160a01b03168152602001806020018060200180602001856001600160a01b03168152602001848103845288818151815260200191508051906020019080838360005b83811015620013f6578082015183820152602001620013dc565b50505050905090810190601f168015620014245780820380516001836020036101000a031916815260200191505b50848103835287818151815260200191508051906020019080838360005b838110156200145c57808201518382015260200162001442565b50505050905090810190601f1680156200148a5780820380516001836020036101000a031916815260200191505b50848103825286818151815260200191508051906020019080838360005b83811015620014c2578082015183820152602001620014a8565b50505050905090810190601f168015620014f05780820380516001836020036101000a031916815260200191505b509a5050505050505050505050604051601f198183030181526040919091526366fd3ce960e11b6020820180516001600160e01b03169091179052905060006200153c8260026200114f565b90508060cc806001816200154f62002f9f565b0180826200155c62002fec565b5050600092835260001901916020915020016001816200157b62002f9f565b816001600160a01b0302191690836001600160a01b03160217906200159f62002fec565b5050506001600160a01b038116600090815260d060205260019060409020600181620015ca62002f9f565b8160ff02191690831515021790620015e162002fec565b5050506001600160a01b038316600090815260d1602052600190604090206001816200160c62002f9f565b8160ff021916908315150217906200162362002fec565b50505060da6200163262002f9f565b6001600160a01b038216600090815260d96020526040902081906200165662002fec565b5050506200166b818860d362000dc662002f9f565b7f73a0638fe578fc759744633aa170a433061ca2cc1bb855d116c506e04a29901f818d8b8d8f5a6200169c6200303b565b8d60d3620016a962002f9f565b60405180896001600160a01b0316815260200188151581526020018060200180602001876001600160a01b03168152602001868152602001858152602001848152602001838103835289818151815260200191508051906020019080838360005b83811015620017245780820151838201526020016200170a565b50505050905090810190601f168015620017525780820380516001836020036101000a031916815260200191505b50838103825288818151815260200191508051906020019080838360005b838110156200178a57808201518382015260200162001770565b50505050905090810190601f168015620017b85780820380516001836020036101000a031916815260200191505b509a505050505050505050505060405180910390a19b9a5050505050505050505050565b600060d86200114a62002f9f565b60d9602052806000526040600020905062000e1262002f9f565b60d0602052806000526040600020600091506200182062002f9f565b906101000a900460ff1681565b600060db6200114a62002f9f565b6200184562002445565b6001600160a01b0316600060656200185c62002f9f565b906101000a90046001600160a01b03166001600160a01b031614620018c15760405162461bcd60e51b8152602060048201819052602482015260008051602062003b35833981519152604482015260640160405180910390620018be62002edb565b50505b6000806065620018d062002f9f565b906101000a90046001600160a01b03166001600160a01b03167f8be0079c531659141344cd1fd0a4f28419497f9722a3daafe3b4186f6b6457e060405160405180910390a3600060656001816200192662002f9f565b816001600160a01b0302191690836001600160a01b03160217906200194a62002fec565b505050565b60008060cb62000ef062002f9f565b6200196862002445565b6001600160a01b0316600060656200197f62002f9f565b906101000a90046001600160a01b03166001600160a01b031614620019e45760405162461bcd60e51b8152602060048201819052602482015260008051602062003b35833981519152604482015260640160405180910390620019e162002edb565b50505b62000dcc8282620027ac565b620019fa62002445565b6001600160a01b03166000606562001a1162002f9f565b906101000a90046001600160a01b03166001600160a01b03161462001a765760405162461bcd60e51b8152602060048201819052602482015260008051602062003b3583398151915260448201526064016040518091039062001a7362002edb565b50505b81609760018162001a8662002f9f565b816001600160a01b0302191690836001600160a01b031602179062001aaa62002fec565b50505080609860006101000a8162001ac162002f9f565b816001600160a01b0302191690836001600160a01b031602179062001ae562002fec565b5050505050565b600080606562000ef062002f9f565b60008060d262001b0a62002f9f565b60d362001b1662002f9f565b915091509091565b60cc818162001b2c62002f9f565b811062001b3557fe5b906000526020600020016000915062000dde62002f9f565b62001b5762002445565b6001600160a01b03166000606562001b6e62002f9f565b906101000a90046001600160a01b03166001600160a01b03161462001bd35760405162461bcd60e51b8152602060048201819052602482015260008051602062003b3583398151915260448201526064016040518091039062001bd062002edb565b50505b620011398162002860565b60008060ce62001bed62002f9f565b60cf62001b1662002f9f565b600060d76200114a62002f9f565b62001c1162002445565b6001600160a01b03166000606562001c2862002f9f565b906101000a90046001600160a01b03166001600160a01b03161462001c8d5760405162461bcd60e51b8152602060048201819052602482015260008051602062003b3583398151915260448201526064016040518091039062001c8a62002edb565b50505b6200113981620028d7565b60d1602052806000526040600020600091506200182062002f9f565b6001600160a01b038116600090815260d0602052806040812060009062001cda62002f9f565b906101000a900460ff161515600115151462001d475760405162461bcd60e51b815260206004820152601e60248201527f737570706c6965642061646472657373206973206e6f74206120706f6f6c000060448201526064016040518091039062001d4462002edb565b50505b6001600160a01b038316600090815260d46020526040902062001d6962002f9f565b6001600160a01b038416600090815260d56020526040902062001d8b62002f9f565b91509150915091565b62001d9e62002445565b6001600160a01b03166000606562001db562002f9f565b906101000a90046001600160a01b03166001600160a01b03161462001e1a5760405162461bcd60e51b8152602060048201819052602482015260008051602062003b3583398151915260448201526064016040518091039062001e1762002edb565b50505b808060dc62000edb62002fec565b60d4602052806000526040600020905062000e1262002f9f565b60dc62000e1262002f9f565b60d5602052806000526040600020905062000e1262002f9f565b62001e7262002445565b6001600160a01b03166000606562001e8962002f9f565b906101000a90046001600160a01b03166001600160a01b03161462001eee5760405162461bcd60e51b8152602060048201819052602482015260008051602062003b3583398151915260448201526064016040518091039062001eeb62002edb565b50505b808060db62000edb62002fec565b600060dc6200114a62002f9f565b60008160ff166001141562001f3f576000609862001f2762002f9f565b906101000a90046001600160a01b0316905062001f4d565b6000609762001f2762002f9f565b919050565b62001f5c62002445565b6001600160a01b03166000606562001f7362002f9f565b906101000a90046001600160a01b03166001600160a01b03161462001fd85760405162461bcd60e51b8152602060048201819052602482015260008051602062003b3583398151915260448201526064016040518091039062001fd562002edb565b50505b62001139816200291e565b62001fed62002445565b6001600160a01b0316600060656200200462002f9f565b906101000a90046001600160a01b03166001600160a01b031614620020695760405162461bcd60e51b8152602060048201819052602482015260008051602062003b358339815191526044820152606401604051809103906200206662002edb565b50505b6001600160a01b038116620020bb5760405162461bcd60e51b815260040180806020018281038252602681526020018062003b0f6026913960400191505060405180910390620020b862002edb565b50505b6001600160a01b03811660006065620020d362002f9f565b906101000a90046001600160a01b03166001600160a01b03167f8be0079c531659141344cd1fd0a4f28419497f9722a3daafe3b4186f6b6457e060405160405180910390a380606560018162000eb762002f9f565b600160006200213662002f9f565b906101000a900460ff16806200215157506200215162002965565b806200217157506000806200216562002f9f565b906101000a900460ff16155b620021b95760405162461bcd60e51b815260040180806020018281038252602e81526020018062003b55602e913960400191505060405180910390620021b662002edb565b50505b6000600181620021c862002f9f565b906101000a900460ff16159050801562002237576001600061010081620021ee62002f9f565b8160ff021916908315150217906200220562002fec565b50505060016000806101000a816200221c62002f9f565b8160ff021916908315150217906200223362002fec565b5050505b620022438484620029da565b8460cb6001816200225362002f9f565b816001600160a01b0302191690836001600160a01b03160217906200227762002fec565b505050620022858262002860565b62002295611388612710620029e4565b620022a3600a6064620027ac565b620022b162015180620028d7565b620022bf6201518062001d94565b620022cb600a6200291e565b620022df6544484544474560d01b620025e2565b801562001ae55760008061010081620022f762002f9f565b8160ff021916908315150217906200230e62002fec565b5050505050505050565b6000828201838110156200115d5760405162461bcd60e51b815260206004820152601b60248201527f536166654d6174683a206164646974696f6e206f766572666c6f7700000000006044820152606401604051809103906200237a62002edb565b50509392505050565b8082111580156200239f575060d26200239b62002f9f565b8211155b620023ee5760405162461bcd60e51b815260206004820152601060248201526f34b73b30b634b210333930b1ba34b7b760811b604482015260640160405180910390620023eb62002edb565b50505b6001600160a01b038316600090815260d460205282906040902081906200241462002fec565b5050506001600160a01b038316600090815260d560205281906040902081906200243d62002fec565b505050505050565b60005a6200114a62002f48565b6001600160a01b038416620024a95760405162461bcd60e51b815260206004820152600e60248201526d1d185c99d95d0b5a5b9d985b1a5960921b604482015260640160405180910390620024a662002edb565b50505b81620024f55760405162461bcd60e51b815260206004820152600c60248201526b19185d184b5a5b9d985b1a5960a21b604482015260640160405180910390620024f262002edb565b50505b606083838080601f01602080910402602001604051908101604052818152929190602084018383808284376000920182905250939450839250849150505160208401885a6200254362003082565b5050505050801560018114620025595762002570565b3d806000803e8060006200256c62002edb565b5050505b5050846001600160a01b03165a6200258762002f48565b6001600160a01b03167f78a9b536049c39a00adaf57016b1376c99dd48a0faf2cef23690232f21ce42cc60405160405180910390a36001600160a01b038516600090815260d960205282906040902081906200230e62002fec565b808060d862000edb62002fec565b600080620025fd62002a57565b90507efffc2da0b561cae30d9826d37709e9421c4725faebc226cbbb7ef5fc5e7349816040516001600160a01b03909116815260200160405180910390a1806001600160a01b031663e74a474a5a63996d79a5598160e01b8152602081600483336000905af158600e01573d6000803e3d6000fd5b3d6001141558600a015760016000f35b8051925060005b6040811015620026a25760008282015260200162002689565b50505086866040518463ffffffff1660e01b815260040180846001600160a01b03168152602001806020018360ff168152602001828103825284818151815260200191508051906020019080838360005b838110156200270d578082015183820152602001620026f3565b50505050905090810190601f1680156200273b5780820380516001836020036101000a031916815260200191505b50945050505050600060405180830381600087806200275962003178565b15801562002771576000806200276e62002edb565b50505b505a6200277d620031c5565b505050505050158015620027a0573d6000803e3d60006200279d62002edb565b50505b50929695505050505050565b80821115620027ff5760405162461bcd60e51b815260206004820152601060248201526f34b73b30b634b210333930b1ba34b7b760811b604482015260640160405180910390620027fc62002edb565b50505b818060ce6200280d62002fec565b5050508060cf81906200281f62002fec565b5050507fb10da2958bf5ec1bff3164ff753a09e0460ed44d3abf73e79b817b500ed0f2f1828260405191825260208201526040908101905180910390a15050565b8060cd6001816200287062002f9f565b816001600160a01b0302191690836001600160a01b03160217906200289462002fec565b5050507ff1034ad6b4d45dc33a4142b9c51c2b7f89bf4a410696e426cc0f3224869e0aca816040516001600160a01b03909116815260200160405180910390a150565b808060d6620028e562002fec565b5050507f20d916c976f3971e8200089411b0b712ef4612d98380b8ad2e3d8a8a376d85c78160405190815260200160405180910390a150565b808060d76200292c62002fec565b5050507f0cd8fcb5e08d7632af461f0ad793e5c63dc0d7595c301f5880650175e37a87488160405190815260200160405180910390a150565b6000805a63996d79a5598160e01b8152602081600483336000905af158600e01573d6000803e3d6000fd5b3d6001141558600a015760016000f35b8051925060005b6040811015620029c057600082820152602001620029a7565b5050509050600081620029d262003178565b159250505090565b62001a7662002abe565b8082111562002a375760405162461bcd60e51b815260206004820152601060248201526f34b73b30b634b210333930b1ba34b7b760811b60448201526064016040518091039062002a3462002edb565b50505b818060d262002a4562002fec565b5050508060d3819062001ae562002fec565b600080606060405162002a6d6020820162003293565b601f1982820381018352601f909101166040529050805160208201600062002a94620032a1565b505091508162002aa362003178565b62002ab85760008062002ab562002edb565b50505b50905090565b6001600062002acc62002f9f565b906101000a900460ff168062002ae7575062002ae762002965565b8062002b07575060008062002afb62002f9f565b906101000a900460ff16155b62002b4f5760405162461bcd60e51b815260040180806020018281038252602e81526020018062003b55602e91396040019150506040518091039062002b4c62002edb565b50505b600060018162002b5e62002f9f565b906101000a900460ff16159050801562002bcd57600160006101008162002b8462002f9f565b8160ff0219169083151502179062002b9b62002fec565b50505060016000806101000a8162002bb262002f9f565b8160ff0219169083151502179062002bc962002fec565b5050505b62002bd762002c10565b62002be162002d36565b801562001139576000806101008162002bf962002f9f565b8160ff0219169083151502179062000edb62002fec565b6001600062002c1e62002f9f565b906101000a900460ff168062002c39575062002c3962002965565b8062002c59575060008062002c4d62002f9f565b906101000a900460ff16155b62002ca15760405162461bcd60e51b815260040180806020018281038252602e81526020018062003b55602e91396040019150506040518091039062002c9e62002edb565b50505b600060018162002cb062002f9f565b906101000a900460ff16159050801562002be157600160006101008162002cd662002f9f565b8160ff0219169083151502179062002ced62002fec565b50505060016000806101000a8162002d0462002f9f565b8160ff0219169083151502179062002d1b62002fec565b505050801562001139576000806101008162002bf962002f9f565b6001600062002d4462002f9f565b906101000a900460ff168062002d5f575062002d5f62002965565b8062002d7f575060008062002d7362002f9f565b906101000a900460ff16155b62002dc75760405162461bcd60e51b815260040180806020018281038252602e81526020018062003b55602e91396040019150506040518091039062002dc462002edb565b50505b600060018162002dd662002f9f565b906101000a900460ff16159050801562002e4557600160006101008162002dfc62002f9f565b8160ff0219169083151502179062002e1362002fec565b50505060016000806101000a8162002e2a62002f9f565b8160ff0219169083151502179062002e4162002fec565b5050505b600062002e5162002445565b905080606560018162002e6362002f9f565b816001600160a01b0302191690836001600160a01b031602179062002e8762002fec565b5050506001600160a01b03811660007f8be0079c531659141344cd1fd0a4f28419497f9722a3daafe3b4186f6b6457e060405160405180910390a350801562001139576000806101008162002bf962002f9f565b632a2a7adb598160e01b8152600481016020815285602082015260005b8681101562002f1557808601518282016040015260200162002ef8565b506020828760640184336000905af158600e01573d6000803e3d6000fd5b3d6001141558600a015760016000f35b505050565b6373509064598160e01b8152602081600483336000905af158600e01573d6000803e3d6000fd5b3d6001141558600a015760016000f35b8051935060005b60408110156200194a5760008282015260200162002f86565b6303daa959598160e01b8152836004820152602081602483336000905af158600e01573d6000803e3d6000fd5b3d6001141558600a015760016000f35b8051600082529350602062002f86565b6322bd64c0598160e01b8152836004820152846024820152600081604483336000905af158600e01573d6000803e3d6000fd5b3d6001141558600a015760016000f35b60008152602062002f86565b63bdbf8c36598160e01b8152602081600483336000905af158600e01573d6000803e3d6000fd5b3d6001141558600a015760016000f35b8051600082529350602062002f86565b63ffe73914598160e01b8152620030b6565b808083111562001160575090919050565b808083101562001160575090919050565b836004820152846024820152606060448201528660648201526084810160005b88811015620030f0578088015182820152602001620030d6565b506060828960a40184336000905af158600e01573d6000803e3d6000fd5b3d6001141558600a015760016000f35b815160408301513d6000853e8b8b82606087013350600060045af15059620031478d3d620030a5565b8c0162003155818762003094565b5b828110156200316c576000815260200162003156565b50929c50505050505050565b638435035b598160e01b8152836004820152602081602483336000905af158600e01573d6000803e3d6000fd5b3d6001141558600a015760016000f35b8051600082529350602062002f86565b6385979f76598160e01b8152836004820152846024820152606060448201528760648201526084810160005b898110156200320b578089015182820152602001620031f1565b506060828a60a40184336000905af158600e01573d6000803e3d6000fd5b3d6001141558600a015760016000f35b815160408301513d6000853e8c8c82606087013350600060045af15059620032628e3d620030a5565b8d0162003270818762003094565b5b8281101562003287576000815260200162003271565b50929d50505050505050565b6107e8806200332783390190565b6314aa2ff7598160e01b8152600481016020815286602082015260005b87811015620032db578087015182820160400152602001620032be565b506020828860640184336000905af158600e01573d6000803e3d6000fd5b3d6001141558600a015760016000f35b8151965059825b8181101562001ae557600081526020016200331056fe60806040523480156100195760008061001661001f565b50505b5061008a565b632a2a7adb598160e01b8152600481016020815285602082015260005b8681101561005757808601518282016040015260200161003c565b506020828760640184336000905af158600e01573d6000803e3d6000fd5b3d6001141558600a015760016000f35b505050565b61074f806100996000396000f3fe6080604052600436106100225760003560e01c8063e74a474a1461003957610031565b366100315761002f610117565b005b61002f610117565b61002f60048036036060811015610058576000806100556104b5565b50505b6001600160a01b03823516919081019060408101602082013564010000000081111561008c576000806100896104b5565b50505b8201836020820111156100a7576000806100a46104b5565b50505b803590602001918460018302840111640100000000831117156100d2576000806100cf6104b5565b50505b91908080601f01602080910402602001604051908101604052818152929190602084018383808284376000920191909152509295505050903560ff1691506101319050565b61011f61012f565b61012f61012a6102c3565b6103c4565b565b600061013b6102c3565b6001600160a01b03161461018e5760405162461bcd60e51b815260206004820152600d60248201526c496d706c206e6f74207a65726f60981b60448201526064016040518091039061018b6104b5565b50505b61019783610401565b6101a081610479565b6000825111156102be5760006101b46102c3565b6001600160a01b0316836040518082805190602001908083835b602083106101ed5780518252601f1990920191602091820191016101ce565b6001836020036101000a038019825116818451168082178552505050505050905001915050600060405180830381855a610225610520565b50505050509150503d8060008114610259576040513d603f01601f191681016040523d815291503d6000602084013e61025e565b606091505b50509050806102bc5760405162461bcd60e51b815260206004820152601a60248201527f496d706c656d656e746174696f6e20696e6974206661696c65640000000000006044820152606401604051809103906102b96104b5565b50505b505b505050565b6000807f360894a13ba1a3210667c828492db98dca3e2076cc3735a920a3ca505d382bbc806102f061060d565b91506001600160a01b03821661030b576000925050506103c1565b816001600160a01b031663ecef89d5610322610488565b6040516001600160e01b031960e084901b16815260ff90911660048201526024016020604051808303818680610356610668565b15801561036b576000806103686104b5565b50505b505a6103756106b4565b5050505050158015610394573d6000803e3d60006103916104b5565b50505b505050506040513d60208110156103b3576000806103b06104b5565b50505b810190808051955050505050505b90565b3660008037600080366000845a6103d9610520565b50505050503d6000803e8080156103ef573d6000f35b3d60006103fa6104b5565b5050505050565b61040a816104a0565b61044e5760405162461bcd60e51b815260040180806020018281038252603b815260200180610714603b91396040019150506040518091039061044b6104b5565b50505b7f360894a13ba1a3210667c828492db98dca3e2076cc3735a920a3ca505d382bbc81816102bc6106c5565b600160fc1b81816102bc6106c5565b600080600160fc1b8061049961060d565b9250505090565b600080826104ac610668565b15159392505050565b632a2a7adb598160e01b8152600481016020815285602082015260005b868110156104ed5780860151828201604001526020016104d2565b506020828760640184336000905af158600e01573d6000803e3d6000fd5b3d6001141558600a015760016000f35b505050565b63ffe73914598160e01b8152610553565b808083111561053d5750815b92915050565b808083101561053d575090919050565b836004820152846024820152606060448201528660648201526084810160005b8881101561058b578088015182820152602001610573565b506060828960a40184336000905af158600e01573d6000803e3d6000fd5b3d6001141558600a015760016000f35b815160408301513d6000853e8b8b82606087013350600060045af150596105e08d3d610543565b8c016105ec8187610531565b5b8281101561060157600081526020016105ed565b50929c50505050505050565b6303daa959598160e01b8152836004820152602081602483336000905af158600e01573d6000803e3d6000fd5b3d6001141558600a015760016000f35b8051935060005b60408110156102be57600082820152602001610651565b638435035b598160e01b8152836004820152602081602483336000905af158600e01573d6000803e3d6000fd5b3d6001141558600a015760016000f35b80516000825293506020610651565b638540661f598160e01b8152610553565b6322bd64c0598160e01b8152836004820152846024820152600081604483336000905af158600e01573d6000803e3d6000fd5b3d6001141558600a015760016000f35b60008152602061065156fe43616e6e6f742073657420612070726f787920696d706c656d656e746174696f6e20746f2061206e6f6e2d636f6e747261637420616464726573734f776e61626c653a206e6577206f776e657220697320746865207a65726f20616464726573734f776e61626c653a2063616c6c6572206973206e6f7420746865206f776e6572436f6e747261637420696e7374616e63652068617320616c7265616479206265656e20696e697469616c697a65644f6e6c79206120706f6f6c206d616e6167657220636f6e74726163742063616e20706572666f726d207468697320616374696f6e",
  "deployedBytecode": "0x60806040523480156200001c576000806200001962002edb565b50505b50600436106200027f5760003560e01c8063808ae5fb1162000164578063bcb01f4411620000d4578063ebee461d1162000092578063ebee461d1462000b1b578063ecef89d51462000b25578063eec16c441462000b53578063f2fde38b1462000b7e578063f8c8765e1462000bb2576200027f565b8063bcb01f441462000a53578063bee37e521462000a7e578063bfeaf71d1462000ab2578063e60eb4121462000abc578063e99c0fa61462000af0576200027f565b80639cada6e411620001225780639cada6e414620009ac578063aa12ae4d14620009b6578063aa7d664e14620009c0578063b193a5f414620009eb578063b7a545261462000a1f576200027f565b8063808ae5fb14620008e55780638da5cb5b146200092157806394d0d23b146200092b5780639a068bd6146200094d5780639a3cac6a1462000978576200027f565b80634501b08811620002005780635b16ebb711620001be5780635b16ebb7146200084e5780635c9bfc2b1462000896578063715018a614620008a057806371c1c54914620008aa578063771d1baf14620008b4576200027f565b80634501b088146200044257806345812ca5146200044c57806348281272146200052657806349f7c02d14620008105780635556ee55146200081a576200027f565b806310bf69dc116200024e57806310bf69dc14620003175780631430238714620003215780631d68702d14620003555780631e666d13146200035f5780631e8e8bca1462000417576200027f565b8063046b72c4146200028f57806305a2ee2a14620002cb5780630bf99bd914620002f15780630f6559c4146200030d575b6000806200028c62002edb565b50505b620002c960048036036040811015620002b257600080620002af62002edb565b50505b506001600160a01b03813516906020013562000bfe565b005b620002d562000dd0565b6040516001600160a01b03909116815260200160405180910390f35b620002fb62000df1565b60405190815260200160405180910390f35b620002fb62000e06565b620002fb62000e15565b620002c96004803603602081101562000344576000806200034162002edb565b50505b50356001600160a01b031662000e21565b620002d562000ee1565b620002c9600480360360a081101562000382576000806200037f62002edb565b50505b81359160208101359160408201359160608101359181019060a081016080820135600160201b811115620003c057600080620003bd62002edb565b50505b820183602082011115620003de57600080620003db62002edb565b50505b803590602001918460018302840111600160201b831117156200040b576000806200040862002edb565b50505b50909250905062000f05565b620002c9600480360360208110156200043a576000806200043762002edb565b50505b5035620010a8565b620002fb6200113c565b620002d5600480360360408110156200046f576000806200046c62002edb565b50505b810190602081018135600160201b81111562000495576000806200049262002edb565b50505b820183602082011115620004b357600080620004b062002edb565b50505b803590602001918460018302840111600160201b83111715620004e057600080620004dd62002edb565b50505b91908080601f01602080910402602001604051908101604052818152929190602084018383808284376000920191909152509295505050903560ff1691506200114f9050565b620002d5600480360360e081101562000549576000806200054662002edb565b50505b81351515916001600160a01b0360208201351691810190606081016040820135600160201b81111562000586576000806200058362002edb565b50505b820183602082011115620005a457600080620005a162002edb565b50505b803590602001918460018302840111600160201b83111715620005d157600080620005ce62002edb565b50505b91908080601f01602080910402602001604051908101604052818152929190602084018383808284376000920191909152509295949360208101935035915050600160201b8111156200062e576000806200062b62002edb565b50505b8201836020820111156200064c576000806200064962002edb565b50505b803590602001918460018302840111600160201b8311171562000679576000806200067662002edb565b50505b91908080601f01602080910402602001604051908101604052818152929190602084018383808284376000920191909152509295949360208101935035915050600160201b811115620006d657600080620006d362002edb565b50505b820183602082011115620006f457600080620006f162002edb565b50505b803590602001918460018302840111600160201b8311171562000721576000806200071e62002edb565b50505b91908080601f016020809104026020016040519081016040528181529291906020840183838082843760009201919091525092958435959094909350604081019250602001359050600160201b81111562000786576000806200078362002edb565b50505b820183602082011115620007a457600080620007a162002edb565b50505b803590602001918460208302840111600160201b83111715620007d157600080620007ce62002edb565b50505b91908080602002602001604051908101604052809392919081815260200183836020028082843760009201919091525092955062001166945050505050565b620002fb620017dc565b620002fb600480360360208110156200083d576000806200083a62002edb565b50505b50356001600160a01b0316620017ea565b620008826004803603602081101562000871576000806200086e62002edb565b50505b50356001600160a01b031662001804565b604051901515815260200160405180910390f35b620002fb6200182d565b620002c96200183b565b620002d56200194f565b620002c960048036036040811015620008d757600080620008d462002edb565b50505b50803590602001356200195e565b620002c96004803603604081101562000908576000806200090562002edb565b50505b506001600160a01b0381358116916020013516620019f0565b620002d562001aec565b6200093562001afb565b60405191825260208201526040908101905180910390f35b620002d56004803603602081101562000970576000806200096d62002edb565b50505b503562001b1e565b620002c9600480360360208110156200099b576000806200099862002edb565b50505b50356001600160a01b031662001b4d565b6200093562001bde565b620002fb62001bf9565b620002c960048036036020811015620009e357600080620009e062002edb565b50505b503562001c07565b620008826004803603602081101562000a0e5760008062000a0b62002edb565b50505b50356001600160a01b031662001c98565b620009356004803603602081101562000a425760008062000a3f62002edb565b50505b50356001600160a01b031662001cb4565b620002c96004803603602081101562000a765760008062000a7362002edb565b50505b503562001d94565b620002fb6004803603602081101562000aa15760008062000a9e62002edb565b50505b50356001600160a01b031662001e28565b620002fb62001e42565b620002fb6004803603602081101562000adf5760008062000adc62002edb565b50505b50356001600160a01b031662001e4e565b620002c96004803603602081101562000b135760008062000b1062002edb565b50505b503562001e68565b620002fb62001efc565b620002d56004803603602081101562000b485760008062000b4562002edb565b50505b503560ff1662001f0a565b620002c96004803603602081101562000b765760008062000b7362002edb565b50505b503562001f52565b620002c96004803603602081101562000ba15760008062000b9e62002edb565b50505b50356001600160a01b031662001fe3565b620002c96004803603608081101562000bd55760008062000bd262002edb565b50505b506001600160a01b03813581169160208101358216916040820135811691606001351662002128565b60d160005a62000c0d62002f48565b6001600160a01b03166001600160a01b0316815260200190815260200160002060009062000c3a62002f9f565b906101000a900460ff161515600115151462000c935760405162461bcd60e51b815260040180806020018281038252603481526020018062003b83603491396040019150506040518091039062000c9062002edb565b50505b6001600160a01b038216600090815260d06020526040902060009062000cb862002f9f565b906101000a900460ff161515600115151462000d255760405162461bcd60e51b815260206004820152601e60248201527f737570706c6965642061646472657373206973206e6f74206120706f6f6c000060448201526064016040518091039062000d2262002edb565b50505b62000d5e60db62000d3562002f9f565b6001600160a01b038416600090815260d46020526040902062000d5762002f9f565b9062002318565b81111562000db45760405162461bcd60e51b81526020600482015260146024820152730dac2dcc2cecae440cccaca40e8dede40d0d2ced60631b60448201526064016040518091039062000db162002edb565b50505b62000dcc828260d362000dc662002f9f565b62002383565b5050565b600060cb62000dde62002f9f565b906101000a90046001600160a01b031681565b600060cc8062000e0062002f9f565b91505090565b60da62000e1262002f9f565b81565b60db62000e1262002f9f565b62000e2b62002445565b6001600160a01b03166000606562000e4262002f9f565b906101000a90046001600160a01b03166001600160a01b03161462000ea75760405162461bcd60e51b8152602060048201819052602482015260008051602062003b3583398151915260448201526064016040518091039062000ea462002edb565b50505b8060cb60018162000eb762002f9f565b816001600160a01b0302191690836001600160a01b031602179062000edb62002fec565b50505050565b60008060cd62000ef062002f9f565b906101000a90046001600160a01b0316905090565b62000f0f62002445565b6001600160a01b03166000606562000f2662002f9f565b906101000a90046001600160a01b03166001600160a01b03161462000f8b5760405162461bcd60e51b8152602060048201819052602482015260008051602062003b3583398151915260448201526064016040518091039062000f8862002edb565b50505b84861115801562000fa9575060cc8062000fa462002f9f565b905086105b801562000fc3575060cc8062000fbe62002f9f565b905085105b620010105760405162461bcd60e51b815260206004820152600e60248201526d696e76616c696420626f756e647360901b6044820152606401604051809103906200100d62002edb565b50505b855b8581116200109f57600060cc82816200102a62002f9f565b81106200103357fe5b906000526020600020016000906200104a62002f9f565b6001600160a01b036101009290920a900416600081815260d96020529091508690604090206200107962002f9f565b1462001086575062001096565b620010948185858862002452565b505b60010162001012565b50505050505050565b620010b262002445565b6001600160a01b031660006065620010c962002f9f565b906101000a90046001600160a01b03166001600160a01b0316146200112e5760405162461bcd60e51b8152602060048201819052602482015260008051602062003b358339815191526044820152606401604051809103906200112b62002edb565b50505b6200113981620025e2565b50565b600060d66200114a62002f9f565b905090565b60006200115d8383620025f0565b90505b92915050565b600060605a63996d79a5598160e01b8152602081600483336000905af158601d01573d60011458600c01573d6000803e3d621234565260ea61109c528051925060005b6040811015620011c257600082820152602001620011a9565b505050888860cb600090620011d662002f9f565b906101000a90046001600160a01b03168660405160240180866001600160a01b03168152602001856001600160a01b0316815260200180602001846001600160a01b0316815260200180602001838103835286818151815260200191508051906020019080838360005b838110156200125a57808201518382015260200162001240565b50505050905090810190601f168015620012885780820380516001836020036101000a031916815260200191505b50838103825284818151815260200191508051906020019060200280838360005b83811015620012c3578082015183820152602001620012a9565b50505050905001975050505050505050604051601f1981830301815260409190915263eb94917d60e01b6020820180516001600160e01b0316909117905290506000620013128260016200114f565b905060605a63996d79a5598160e01b8152602081600483336000905af158601d01573d60011458600c01573d6000803e3d621234565260ea61109c528051925060005b60408110156200136e5760008282015260200162001355565b5050508b8b8b8b8b8760405160240180886001600160a01b031681526020018715158152602001866001600160a01b03168152602001806020018060200180602001856001600160a01b03168152602001848103845288818151815260200191508051906020019080838360005b83811015620013f6578082015183820152602001620013dc565b50505050905090810190601f168015620014245780820380516001836020036101000a031916815260200191505b50848103835287818151815260200191508051906020019080838360005b838110156200145c57808201518382015260200162001442565b50505050905090810190601f1680156200148a5780820380516001836020036101000a031916815260200191505b50848103825286818151815260200191508051906020019080838360005b83811015620014c2578082015183820152602001620014a8565b50505050905090810190601f168015620014f05780820380516001836020036101000a031916815260200191505b509a5050505050505050505050604051601f198183030181526040919091526366fd3ce960e11b6020820180516001600160e01b03169091179052905060006200153c8260026200114f565b90508060cc806001816200154f62002f9f565b0180826200155c62002fec565b5050600092835260001901916020915020016001816200157b62002f9f565b816001600160a01b0302191690836001600160a01b03160217906200159f62002fec565b5050506001600160a01b038116600090815260d060205260019060409020600181620015ca62002f9f565b8160ff02191690831515021790620015e162002fec565b5050506001600160a01b038316600090815260d1602052600190604090206001816200160c62002f9f565b8160ff021916908315150217906200162362002fec565b50505060da6200163262002f9f565b6001600160a01b038216600090815260d96020526040902081906200165662002fec565b5050506200166b818860d362000dc662002f9f565b7f73a0638fe578fc759744633aa170a433061ca2cc1bb855d116c506e04a29901f818d8b8d8f5a6200169c6200303b565b8d60d3620016a962002f9f565b60405180896001600160a01b0316815260200188151581526020018060200180602001876001600160a01b03168152602001868152602001858152602001848152602001838103835289818151815260200191508051906020019080838360005b83811015620017245780820151838201526020016200170a565b50505050905090810190601f168015620017525780820380516001836020036101000a031916815260200191505b50838103825288818151815260200191508051906020019080838360005b838110156200178a57808201518382015260200162001770565b50505050905090810190601f168015620017b85780820380516001836020036101000a031916815260200191505b509a505050505050505050505060405180910390a19b9a5050505050505050505050565b600060d86200114a62002f9f565b60d9602052806000526040600020905062000e1262002f9f565b60d0602052806000526040600020600091506200182062002f9f565b906101000a900460ff1681565b600060db6200114a62002f9f565b6200184562002445565b6001600160a01b0316600060656200185c62002f9f565b906101000a90046001600160a01b03166001600160a01b031614620018c15760405162461bcd60e51b8152602060048201819052602482015260008051602062003b35833981519152604482015260640160405180910390620018be62002edb565b50505b6000806065620018d062002f9f565b906101000a90046001600160a01b03166001600160a01b03167f8be0079c531659141344cd1fd0a4f28419497f9722a3daafe3b4186f6b6457e060405160405180910390a3600060656001816200192662002f9f565b816001600160a01b0302191690836001600160a01b03160217906200194a62002fec565b505050565b60008060cb62000ef062002f9f565b6200196862002445565b6001600160a01b0316600060656200197f62002f9f565b906101000a90046001600160a01b03166001600160a01b031614620019e45760405162461bcd60e51b8152602060048201819052602482015260008051602062003b35833981519152604482015260640160405180910390620019e162002edb565b50505b62000dcc8282620027ac565b620019fa62002445565b6001600160a01b03166000606562001a1162002f9f565b906101000a90046001600160a01b03166001600160a01b03161462001a765760405162461bcd60e51b8152602060048201819052602482015260008051602062003b3583398151915260448201526064016040518091039062001a7362002edb565b50505b81609760018162001a8662002f9f565b816001600160a01b0302191690836001600160a01b031602179062001aaa62002fec565b50505080609860006101000a8162001ac162002f9f565b816001600160a01b0302191690836001600160a01b031602179062001ae562002fec565b5050505050565b600080606562000ef062002f9f565b60008060d262001b0a62002f9f565b60d362001b1662002f9f565b915091509091565b60cc818162001b2c62002f9f565b811062001b3557fe5b906000526020600020016000915062000dde62002f9f565b62001b5762002445565b6001600160a01b03166000606562001b6e62002f9f565b906101000a90046001600160a01b03166001600160a01b03161462001bd35760405162461bcd60e51b8152602060048201819052602482015260008051602062003b3583398151915260448201526064016040518091039062001bd062002edb565b50505b620011398162002860565b60008060ce62001bed62002f9f565b60cf62001b1662002f9f565b600060d76200114a62002f9f565b62001c1162002445565b6001600160a01b03166000606562001c2862002f9f565b906101000a90046001600160a01b03166001600160a01b03161462001c8d5760405162461bcd60e51b8152602060048201819052602482015260008051602062003b3583398151915260448201526064016040518091039062001c8a62002edb565b50505b6200113981620028d7565b60d1602052806000526040600020600091506200182062002f9f565b6001600160a01b038116600090815260d0602052806040812060009062001cda62002f9f565b906101000a900460ff161515600115151462001d475760405162461bcd60e51b815260206004820152601e60248201527f737570706c6965642061646472657373206973206e6f74206120706f6f6c000060448201526064016040518091039062001d4462002edb565b50505b6001600160a01b038316600090815260d46020526040902062001d6962002f9f565b6001600160a01b038416600090815260d56020526040902062001d8b62002f9f565b91509150915091565b62001d9e62002445565b6001600160a01b03166000606562001db562002f9f565b906101000a90046001600160a01b03166001600160a01b03161462001e1a5760405162461bcd60e51b8152602060048201819052602482015260008051602062003b3583398151915260448201526064016040518091039062001e1762002edb565b50505b808060dc62000edb62002fec565b60d4602052806000526040600020905062000e1262002f9f565b60dc62000e1262002f9f565b60d5602052806000526040600020905062000e1262002f9f565b62001e7262002445565b6001600160a01b03166000606562001e8962002f9f565b906101000a90046001600160a01b03166001600160a01b03161462001eee5760405162461bcd60e51b8152602060048201819052602482015260008051602062003b3583398151915260448201526064016040518091039062001eeb62002edb565b50505b808060db62000edb62002fec565b600060dc6200114a62002f9f565b60008160ff166001141562001f3f576000609862001f2762002f9f565b906101000a90046001600160a01b0316905062001f4d565b6000609762001f2762002f9f565b919050565b62001f5c62002445565b6001600160a01b03166000606562001f7362002f9f565b906101000a90046001600160a01b03166001600160a01b03161462001fd85760405162461bcd60e51b8152602060048201819052602482015260008051602062003b3583398151915260448201526064016040518091039062001fd562002edb565b50505b62001139816200291e565b62001fed62002445565b6001600160a01b0316600060656200200462002f9f565b906101000a90046001600160a01b03166001600160a01b031614620020695760405162461bcd60e51b8152602060048201819052602482015260008051602062003b358339815191526044820152606401604051809103906200206662002edb565b50505b6001600160a01b038116620020bb5760405162461bcd60e51b815260040180806020018281038252602681526020018062003b0f6026913960400191505060405180910390620020b862002edb565b50505b6001600160a01b03811660006065620020d362002f9f565b906101000a90046001600160a01b03166001600160a01b03167f8be0079c531659141344cd1fd0a4f28419497f9722a3daafe3b4186f6b6457e060405160405180910390a380606560018162000eb762002f9f565b600160006200213662002f9f565b906101000a900460ff16806200215157506200215162002965565b806200217157506000806200216562002f9f565b906101000a900460ff16155b620021b95760405162461bcd60e51b815260040180806020018281038252602e81526020018062003b55602e913960400191505060405180910390620021b662002edb565b50505b6000600181620021c862002f9f565b906101000a900460ff16159050801562002237576001600061010081620021ee62002f9f565b8160ff021916908315150217906200220562002fec565b50505060016000806101000a816200221c62002f9f565b8160ff021916908315150217906200223362002fec565b5050505b620022438484620029da565b8460cb6001816200225362002f9f565b816001600160a01b0302191690836001600160a01b03160217906200227762002fec565b505050620022858262002860565b62002295611388612710620029e4565b620022a3600a6064620027ac565b620022b162015180620028d7565b620022bf6201518062001d94565b620022cb600a6200291e565b620022df6544484544474560d01b620025e2565b801562001ae55760008061010081620022f762002f9f565b8160ff021916908315150217906200230e62002fec565b5050505050505050565b6000828201838110156200115d5760405162461bcd60e51b815260206004820152601b60248201527f536166654d6174683a206164646974696f6e206f766572666c6f7700000000006044820152606401604051809103906200237a62002edb565b50509392505050565b8082111580156200239f575060d26200239b62002f9f565b8211155b620023ee5760405162461bcd60e51b815260206004820152601060248201526f34b73b30b634b210333930b1ba34b7b760811b604482015260640160405180910390620023eb62002edb565b50505b6001600160a01b038316600090815260d460205282906040902081906200241462002fec565b5050506001600160a01b038316600090815260d560205281906040902081906200243d62002fec565b505050505050565b60005a6200114a62002f48565b6001600160a01b038416620024a95760405162461bcd60e51b815260206004820152600e60248201526d1d185c99d95d0b5a5b9d985b1a5960921b604482015260640160405180910390620024a662002edb565b50505b81620024f55760405162461bcd60e51b815260206004820152600c60248201526b19185d184b5a5b9d985b1a5960a21b604482015260640160405180910390620024f262002edb565b50505b606083838080601f01602080910402602001604051908101604052818152929190602084018383808284376000920182905250939450839250849150505160208401885a6200254362003082565b5050505050801560018114620025595762002570565b3d806000803e8060006200256c62002edb565b5050505b5050846001600160a01b03165a6200258762002f48565b6001600160a01b03167f78a9b536049c39a00adaf57016b1376c99dd48a0faf2cef23690232f21ce42cc60405160405180910390a36001600160a01b038516600090815260d960205282906040902081906200230e62002fec565b808060d862000edb62002fec565b600080620025fd62002a57565b90507efffc2da0b561cae30d9826d37709e9421c4725faebc226cbbb7ef5fc5e7349816040516001600160a01b03909116815260200160405180910390a1806001600160a01b031663e74a474a5a63996d79a5598160e01b8152602081600483336000905af158601d01573d60011458600c01573d6000803e3d621234565260ea61109c528051925060005b6040811015620026a25760008282015260200162002689565b50505086866040518463ffffffff1660e01b815260040180846001600160a01b03168152602001806020018360ff168152602001828103825284818151815260200191508051906020019080838360005b838110156200270d578082015183820152602001620026f3565b50505050905090810190601f1680156200273b5780820380516001836020036101000a031916815260200191505b50945050505050600060405180830381600087806200275962003178565b15801562002771576000806200276e62002edb565b50505b505a6200277d620031c5565b505050505050158015620027a0573d6000803e3d60006200279d62002edb565b50505b50929695505050505050565b80821115620027ff5760405162461bcd60e51b815260206004820152601060248201526f34b73b30b634b210333930b1ba34b7b760811b604482015260640160405180910390620027fc62002edb565b50505b818060ce6200280d62002fec565b5050508060cf81906200281f62002fec565b5050507fb10da2958bf5ec1bff3164ff753a09e0460ed44d3abf73e79b817b500ed0f2f1828260405191825260208201526040908101905180910390a15050565b8060cd6001816200287062002f9f565b816001600160a01b0302191690836001600160a01b03160217906200289462002fec565b5050507ff1034ad6b4d45dc33a4142b9c51c2b7f89bf4a410696e426cc0f3224869e0aca816040516001600160a01b03909116815260200160405180910390a150565b808060d6620028e562002fec565b5050507f20d916c976f3971e8200089411b0b712ef4612d98380b8ad2e3d8a8a376d85c78160405190815260200160405180910390a150565b808060d76200292c62002fec565b5050507f0cd8fcb5e08d7632af461f0ad793e5c63dc0d7595c301f5880650175e37a87488160405190815260200160405180910390a150565b6000805a63996d79a5598160e01b8152602081600483336000905af158601d01573d60011458600c01573d6000803e3d621234565260ea61109c528051925060005b6040811015620029c057600082820152602001620029a7565b5050509050600081620029d262003178565b159250505090565b62001a7662002abe565b8082111562002a375760405162461bcd60e51b815260206004820152601060248201526f34b73b30b634b210333930b1ba34b7b760811b60448201526064016040518091039062002a3462002edb565b50505b818060d262002a4562002fec565b5050508060d3819062001ae562002fec565b600080606060405162002a6d6020820162003293565b601f1982820381018352601f909101166040529050805160208201600062002a94620032a1565b505091508162002aa362003178565b62002ab85760008062002ab562002edb565b50505b50905090565b6001600062002acc62002f9f565b906101000a900460ff168062002ae7575062002ae762002965565b8062002b07575060008062002afb62002f9f565b906101000a900460ff16155b62002b4f5760405162461bcd60e51b815260040180806020018281038252602e81526020018062003b55602e91396040019150506040518091039062002b4c62002edb565b50505b600060018162002b5e62002f9f565b906101000a900460ff16159050801562002bcd57600160006101008162002b8462002f9f565b8160ff0219169083151502179062002b9b62002fec565b50505060016000806101000a8162002bb262002f9f565b8160ff0219169083151502179062002bc962002fec565b5050505b62002bd762002c10565b62002be162002d36565b801562001139576000806101008162002bf962002f9f565b8160ff0219169083151502179062000edb62002fec565b6001600062002c1e62002f9f565b906101000a900460ff168062002c39575062002c3962002965565b8062002c59575060008062002c4d62002f9f565b906101000a900460ff16155b62002ca15760405162461bcd60e51b815260040180806020018281038252602e81526020018062003b55602e91396040019150506040518091039062002c9e62002edb565b50505b600060018162002cb062002f9f565b906101000a900460ff16159050801562002be157600160006101008162002cd662002f9f565b8160ff0219169083151502179062002ced62002fec565b50505060016000806101000a8162002d0462002f9f565b8160ff0219169083151502179062002d1b62002fec565b505050801562001139576000806101008162002bf962002f9f565b6001600062002d4462002f9f565b906101000a900460ff168062002d5f575062002d5f62002965565b8062002d7f575060008062002d7362002f9f565b906101000a900460ff16155b62002dc75760405162461bcd60e51b815260040180806020018281038252602e81526020018062003b55602e91396040019150506040518091039062002dc462002edb565b50505b600060018162002dd662002f9f565b906101000a900460ff16159050801562002e4557600160006101008162002dfc62002f9f565b8160ff0219169083151502179062002e1362002fec565b50505060016000806101000a8162002e2a62002f9f565b8160ff0219169083151502179062002e4162002fec565b5050505b600062002e5162002445565b905080606560018162002e6362002f9f565b816001600160a01b0302191690836001600160a01b031602179062002e8762002fec565b5050506001600160a01b03811660007f8be0079c531659141344cd1fd0a4f28419497f9722a3daafe3b4186f6b6457e060405160405180910390a350801562001139576000806101008162002bf962002f9f565b632a2a7adb598160e01b8152600481016020815285602082015260005b8681101562002f1557808601518282016040015260200162002ef8565b506020828760640184336000905af158601d01573d60011458600c01573d6000803e3d621234565260ea61109c52505050565b6373509064598160e01b8152602081600483336000905af158601d01573d60011458600c01573d6000803e3d621234565260ea61109c528051935060005b60408110156200194a5760008282015260200162002f86565b6303daa959598160e01b8152836004820152602081602483336000905af158601d01573d60011458600c01573d6000803e3d621234565260ea61109c528051600082529350602062002f86565b6322bd64c0598160e01b8152836004820152846024820152600081604483336000905af158601d01573d60011458600c01573d6000803e3d621234565260ea61109c5260008152602062002f86565b63bdbf8c36598160e01b8152602081600483336000905af158601d01573d60011458600c01573d6000803e3d621234565260ea61109c528051600082529350602062002f86565b63ffe73914598160e01b8152620030b6565b808083111562001160575090919050565b808083101562001160575090919050565b836004820152846024820152606060448201528660648201526084810160005b88811015620030f0578088015182820152602001620030d6565b506060828960a40184336000905af158601d01573d60011458600c01573d6000803e3d621234565260ea61109c52815160408301513d6000853e8b8b82606087013350600060045af15059620031478d3d620030a5565b8c0162003155818762003094565b5b828110156200316c576000815260200162003156565b50929c50505050505050565b638435035b598160e01b8152836004820152602081602483336000905af158601d01573d60011458600c01573d6000803e3d621234565260ea61109c528051600082529350602062002f86565b6385979f76598160e01b8152836004820152846024820152606060448201528760648201526084810160005b898110156200320b578089015182820152602001620031f1565b506060828a60a40184336000905af158601d01573d60011458600c01573d6000803e3d621234565260ea61109c52815160408301513d6000853e8c8c82606087013350600060045af15059620032628e3d620030a5565b8d0162003270818762003094565b5b8281101562003287576000815260200162003271565b50929d50505050505050565b6107e8806200332783390190565b6314aa2ff7598160e01b8152600481016020815286602082015260005b87811015620032db578087015182820160400152602001620032be565b506020828860640184336000905af158601d01573d60011458600c01573d6000803e3d621234565260ea61109c528151965059825b8181101562001ae557600081526020016200331056fe60806040523480156100195760008061001661001f565b50505b5061008a565b632a2a7adb598160e01b8152600481016020815285602082015260005b8681101561005757808601518282016040015260200161003c565b506020828760640184336000905af158601d01573d60011458600c01573d6000803e3d621234565260ea61109c52505050565b61074f806100996000396000f3fe6080604052600436106100225760003560e01c8063e74a474a1461003957610031565b366100315761002f610117565b005b61002f610117565b61002f60048036036060811015610058576000806100556104b5565b50505b6001600160a01b03823516919081019060408101602082013564010000000081111561008c576000806100896104b5565b50505b8201836020820111156100a7576000806100a46104b5565b50505b803590602001918460018302840111640100000000831117156100d2576000806100cf6104b5565b50505b91908080601f01602080910402602001604051908101604052818152929190602084018383808284376000920191909152509295505050903560ff1691506101319050565b61011f61012f565b61012f61012a6102c3565b6103c4565b565b600061013b6102c3565b6001600160a01b03161461018e5760405162461bcd60e51b815260206004820152600d60248201526c496d706c206e6f74207a65726f60981b60448201526064016040518091039061018b6104b5565b50505b61019783610401565b6101a081610479565b6000825111156102be5760006101b46102c3565b6001600160a01b0316836040518082805190602001908083835b602083106101ed5780518252601f1990920191602091820191016101ce565b6001836020036101000a038019825116818451168082178552505050505050905001915050600060405180830381855a610225610520565b50505050509150503d8060008114610259576040513d603f01601f191681016040523d815291503d6000602084013e61025e565b606091505b50509050806102bc5760405162461bcd60e51b815260206004820152601a60248201527f496d706c656d656e746174696f6e20696e6974206661696c65640000000000006044820152606401604051809103906102b96104b5565b50505b505b505050565b6000807f360894a13ba1a3210667c828492db98dca3e2076cc3735a920a3ca505d382bbc806102f061060d565b91506001600160a01b03821661030b576000925050506103c1565b816001600160a01b031663ecef89d5610322610488565b6040516001600160e01b031960e084901b16815260ff90911660048201526024016020604051808303818680610356610668565b15801561036b576000806103686104b5565b50505b505a6103756106b4565b5050505050158015610394573d6000803e3d60006103916104b5565b50505b505050506040513d60208110156103b3576000806103b06104b5565b50505b810190808051955050505050505b90565b3660008037600080366000845a6103d9610520565b50505050503d6000803e8080156103ef573d6000f35b3d60006103fa6104b5565b5050505050565b61040a816104a0565b61044e5760405162461bcd60e51b815260040180806020018281038252603b815260200180610714603b91396040019150506040518091039061044b6104b5565b50505b7f360894a13ba1a3210667c828492db98dca3e2076cc3735a920a3ca505d382bbc81816102bc6106c5565b600160fc1b81816102bc6106c5565b600080600160fc1b8061049961060d565b9250505090565b600080826104ac610668565b15159392505050565b632a2a7adb598160e01b8152600481016020815285602082015260005b868110156104ed5780860151828201604001526020016104d2565b506020828760640184336000905af158601d01573d60011458600c01573d6000803e3d621234565260ea61109c52505050565b63ffe73914598160e01b8152610553565b808083111561053d5750815b92915050565b808083101561053d575090919050565b836004820152846024820152606060448201528660648201526084810160005b8881101561058b578088015182820152602001610573565b506060828960a40184336000905af158601d01573d60011458600c01573d6000803e3d621234565260ea61109c52815160408301513d6000853e8b8b82606087013350600060045af150596105e08d3d610543565b8c016105ec8187610531565b5b8281101561060157600081526020016105ed565b50929c50505050505050565b6303daa959598160e01b8152836004820152602081602483336000905af158601d01573d60011458600c01573d6000803e3d621234565260ea61109c528051935060005b60408110156102be57600082820152602001610651565b638435035b598160e01b8152836004820152602081602483336000905af158601d01573d60011458600c01573d6000803e3d621234565260ea61109c5280516000825293506020610651565b638540661f598160e01b8152610553565b6322bd64c0598160e01b8152836004820152846024820152600081604483336000905af158601d01573d60011458600c01573d6000803e3d621234565260ea61109c5260008152602061065156fe43616e6e6f742073657420612070726f787920696d706c656d656e746174696f6e20746f2061206e6f6e2d636f6e747261637420616464726573734f776e61626c653a206e6577206f776e657220697320746865207a65726f20616464726573734f776e61626c653a2063616c6c6572206973206e6f7420746865206f776e6572436f6e747261637420696e7374616e63652068617320616c7265616479206265656e20696e697469616c697a65644f6e6c79206120706f6f6c206d616e6167657220636f6e74726163742063616e20706572666f726d207468697320616374696f6e",
  "linkReferences": {},
  "deployedLinkReferences": {}
}