{
  "_format": "hh-sol-artifact-1",
  "contractName": "PoolFactory-ovm",
  "sourceName": "contracts/PoolFactory.sol",
  "abi": [
    {
      "anonymous": false,
      "inputs": [
        {
          "indexed": true,
          "internalType": "address",
          "name": "asset",
          "type": "address"
        }
      ],
      "name": "AddedValidAsset",
      "type": "event"
    },
    {
      "anonymous": false,
      "inputs": [
        {
          "indexed": false,
          "internalType": "address",
          "name": "dao",
          "type": "address"
        }
      ],
      "name": "DaoAddressSet",
      "type": "event"
    },
    {
      "anonymous": false,
      "inputs": [
        {
          "indexed": false,
          "internalType": "uint256",
          "name": "numerator",
          "type": "uint256"
        },
        {
          "indexed": false,
          "internalType": "uint256",
          "name": "denominator",
          "type": "uint256"
        }
      ],
      "name": "DaoFeeSet",
      "type": "event"
    },
    {
      "anonymous": false,
      "inputs": [
        {
          "indexed": false,
          "internalType": "uint256",
          "name": "cooldown",
          "type": "uint256"
        }
      ],
      "name": "ExitCooldownSet",
      "type": "event"
    },
    {
      "anonymous": false,
      "inputs": [
        {
          "indexed": false,
          "internalType": "uint256",
          "name": "numerator",
          "type": "uint256"
        },
        {
          "indexed": false,
          "internalType": "uint256",
          "name": "denominator",
          "type": "uint256"
        }
      ],
      "name": "ExitFeeSet",
      "type": "event"
    },
    {
      "anonymous": false,
      "inputs": [
        {
          "indexed": false,
          "internalType": "address",
          "name": "fundAddress",
          "type": "address"
        },
        {
          "indexed": false,
          "internalType": "bool",
          "name": "isPoolPrivate",
          "type": "bool"
        },
        {
          "indexed": false,
          "internalType": "string",
          "name": "fundName",
          "type": "string"
        },
        {
          "indexed": false,
          "internalType": "string",
          "name": "managerName",
          "type": "string"
        },
        {
          "indexed": false,
          "internalType": "address",
          "name": "manager",
          "type": "address"
        },
        {
          "indexed": false,
          "internalType": "uint256",
          "name": "time",
          "type": "uint256"
        },
        {
          "indexed": false,
          "internalType": "uint256",
          "name": "managerFeeNumerator",
          "type": "uint256"
        },
        {
          "indexed": false,
          "internalType": "uint256",
          "name": "managerFeeDenominator",
          "type": "uint256"
        }
      ],
      "name": "FundCreated",
      "type": "event"
    },
    {
      "anonymous": false,
      "inputs": [
        {
          "indexed": true,
          "internalType": "address",
          "name": "manager",
          "type": "address"
        },
        {
          "indexed": true,
          "internalType": "address",
          "name": "pool",
          "type": "address"
        }
      ],
      "name": "LogUpgrade",
      "type": "event"
    },
    {
      "anonymous": false,
      "inputs": [
        {
          "indexed": false,
          "internalType": "uint256",
          "name": "count",
          "type": "uint256"
        }
      ],
      "name": "MaximumSupportedAssetCountSet",
      "type": "event"
    },
    {
      "anonymous": false,
      "inputs": [
        {
          "indexed": true,
          "internalType": "address",
          "name": "previousOwner",
          "type": "address"
        },
        {
          "indexed": true,
          "internalType": "address",
          "name": "newOwner",
          "type": "address"
        }
      ],
      "name": "OwnershipTransferred",
      "type": "event"
    },
    {
      "anonymous": false,
      "inputs": [
        {
          "indexed": false,
          "internalType": "address",
          "name": "proxy",
          "type": "address"
        }
      ],
      "name": "ProxyCreated",
      "type": "event"
    },
    {
      "anonymous": false,
      "inputs": [
        {
          "indexed": true,
          "internalType": "address",
          "name": "asset",
          "type": "address"
        }
      ],
      "name": "RemovedValidAsset",
      "type": "event"
    },
    {
      "inputs": [
        {
          "internalType": "address",
          "name": "asset",
          "type": "address"
        },
        {
          "internalType": "address",
          "name": "aggregator",
          "type": "address"
        }
      ],
      "name": "addValidAsset",
      "outputs": [],
      "stateMutability": "nonpayable",
      "type": "function"
    },
    {
      "inputs": [
        {
          "internalType": "bool",
          "name": "_privatePool",
          "type": "bool"
        },
        {
          "internalType": "address",
          "name": "_manager",
          "type": "address"
        },
        {
          "internalType": "string",
          "name": "_managerName",
          "type": "string"
        },
        {
          "internalType": "string",
          "name": "_fundName",
          "type": "string"
        },
        {
          "internalType": "string",
          "name": "_fundSymbol",
          "type": "string"
        },
        {
          "internalType": "uint256",
          "name": "_managerFeeNumerator",
          "type": "uint256"
        },
        {
          "components": [
            {
              "internalType": "address",
              "name": "asset",
              "type": "address"
            },
            {
              "internalType": "bool",
              "name": "isDeposit",
              "type": "bool"
            }
          ],
          "internalType": "struct IPoolManagerLogic.Asset[]",
          "name": "_supportedAssets",
          "type": "tuple[]"
        }
      ],
      "name": "createFund",
      "outputs": [
        {
          "internalType": "address",
          "name": "",
          "type": "address"
        }
      ],
      "stateMutability": "nonpayable",
      "type": "function"
    },
    {
      "inputs": [
        {
          "internalType": "bytes",
          "name": "_data",
          "type": "bytes"
        },
        {
          "internalType": "uint8",
          "name": "_proxyType",
          "type": "uint8"
        }
      ],
      "name": "deploy",
      "outputs": [
        {
          "internalType": "address",
          "name": "",
          "type": "address"
        }
      ],
      "stateMutability": "nonpayable",
      "type": "function"
    },
    {
      "inputs": [
        {
          "internalType": "uint256",
          "name": "",
          "type": "uint256"
        }
      ],
      "name": "deployedFunds",
      "outputs": [
        {
          "internalType": "address",
          "name": "",
          "type": "address"
        }
      ],
      "stateMutability": "view",
      "type": "function"
    },
    {
      "inputs": [],
      "name": "deployedFundsLength",
      "outputs": [
        {
          "internalType": "uint256",
          "name": "",
          "type": "uint256"
        }
      ],
      "stateMutability": "view",
      "type": "function"
    },
    {
      "inputs": [],
      "name": "disableChainlink",
      "outputs": [],
      "stateMutability": "nonpayable",
      "type": "function"
    },
    {
      "inputs": [],
      "name": "enableChainlink",
      "outputs": [],
      "stateMutability": "nonpayable",
      "type": "function"
    },
    {
      "inputs": [],
      "name": "getDaoAddress",
      "outputs": [
        {
          "internalType": "address",
          "name": "",
          "type": "address"
        }
      ],
      "stateMutability": "view",
      "type": "function"
    },
    {
      "inputs": [],
      "name": "getDaoFee",
      "outputs": [
        {
          "internalType": "uint256",
          "name": "",
          "type": "uint256"
        },
        {
          "internalType": "uint256",
          "name": "",
          "type": "uint256"
        }
      ],
      "stateMutability": "view",
      "type": "function"
    },
    {
      "inputs": [],
      "name": "getExitCooldown",
      "outputs": [
        {
          "internalType": "uint256",
          "name": "",
          "type": "uint256"
        }
      ],
      "stateMutability": "view",
      "type": "function"
    },
    {
      "inputs": [
        {
          "internalType": "address",
          "name": "extContract",
          "type": "address"
        }
      ],
      "name": "getGuard",
      "outputs": [
        {
          "internalType": "address",
          "name": "",
          "type": "address"
        }
      ],
      "stateMutability": "view",
      "type": "function"
    },
    {
      "inputs": [
        {
          "internalType": "uint8",
          "name": "_proxyType",
          "type": "uint8"
        }
      ],
      "name": "getLogic",
      "outputs": [
        {
          "internalType": "address",
          "name": "",
          "type": "address"
        }
      ],
      "stateMutability": "view",
      "type": "function"
    },
    {
      "inputs": [],
      "name": "getManagerFeeNumeratorChangeDelay",
      "outputs": [
        {
          "internalType": "uint256",
          "name": "",
          "type": "uint256"
        }
      ],
      "stateMutability": "view",
      "type": "function"
    },
    {
      "inputs": [],
      "name": "getMaximumManagerFee",
      "outputs": [
        {
          "internalType": "uint256",
          "name": "",
          "type": "uint256"
        },
        {
          "internalType": "uint256",
          "name": "",
          "type": "uint256"
        }
      ],
      "stateMutability": "view",
      "type": "function"
    },
    {
      "inputs": [],
      "name": "getMaximumManagerFeeNumeratorChange",
      "outputs": [
        {
          "internalType": "uint256",
          "name": "",
          "type": "uint256"
        }
      ],
      "stateMutability": "view",
      "type": "function"
    },
    {
      "inputs": [],
      "name": "getMaximumSupportedAssetCount",
      "outputs": [
        {
          "internalType": "uint256",
          "name": "",
          "type": "uint256"
        }
      ],
      "stateMutability": "view",
      "type": "function"
    },
    {
      "inputs": [
        {
          "internalType": "address",
          "name": "pool",
          "type": "address"
        }
      ],
      "name": "getPoolManagerFee",
      "outputs": [
        {
          "internalType": "uint256",
          "name": "",
          "type": "uint256"
        },
        {
          "internalType": "uint256",
          "name": "",
          "type": "uint256"
        }
      ],
      "stateMutability": "view",
      "type": "function"
    },
    {
      "inputs": [],
      "name": "getTrackingCode",
      "outputs": [
        {
          "internalType": "bytes32",
          "name": "",
          "type": "bytes32"
        }
      ],
      "stateMutability": "view",
      "type": "function"
    },
    {
      "inputs": [
        {
          "internalType": "address",
          "name": "_asset",
          "type": "address"
        }
      ],
      "name": "getUSDPrice",
      "outputs": [
        {
          "internalType": "uint256",
          "name": "",
          "type": "uint256"
        }
      ],
      "stateMutability": "view",
      "type": "function"
    },
    {
      "inputs": [
        {
          "internalType": "address",
          "name": "_poolLogic",
          "type": "address"
        },
        {
          "internalType": "address",
          "name": "_managerLogic",
          "type": "address"
        },
        {
          "internalType": "address",
          "name": "daoAddress",
          "type": "address"
        },
        {
          "internalType": "address[]",
          "name": "_validAssets",
          "type": "address[]"
        },
        {
          "internalType": "address[]",
          "name": "_aggregators",
          "type": "address[]"
        }
      ],
      "name": "initialize",
      "outputs": [],
      "stateMutability": "nonpayable",
      "type": "function"
    },
    {
      "inputs": [
        {
          "internalType": "address",
          "name": "",
          "type": "address"
        }
      ],
      "name": "isPool",
      "outputs": [
        {
          "internalType": "bool",
          "name": "",
          "type": "bool"
        }
      ],
      "stateMutability": "view",
      "type": "function"
    },
    {
      "inputs": [
        {
          "internalType": "address",
          "name": "",
          "type": "address"
        }
      ],
      "name": "isPoolManager",
      "outputs": [
        {
          "internalType": "bool",
          "name": "",
          "type": "bool"
        }
      ],
      "stateMutability": "view",
      "type": "function"
    },
    {
      "inputs": [
        {
          "internalType": "address",
          "name": "asset",
          "type": "address"
        }
      ],
      "name": "isValidAsset",
      "outputs": [
        {
          "internalType": "bool",
          "name": "",
          "type": "bool"
        }
      ],
      "stateMutability": "view",
      "type": "function"
    },
    {
      "inputs": [],
      "name": "managerFeeNumeratorChangeDelay",
      "outputs": [
        {
          "internalType": "uint256",
          "name": "",
          "type": "uint256"
        }
      ],
      "stateMutability": "view",
      "type": "function"
    },
    {
      "inputs": [],
      "name": "maximumManagerFeeNumeratorChange",
      "outputs": [
        {
          "internalType": "uint256",
          "name": "",
          "type": "uint256"
        }
      ],
      "stateMutability": "view",
      "type": "function"
    },
    {
      "inputs": [],
      "name": "owner",
      "outputs": [
        {
          "internalType": "address",
          "name": "",
          "type": "address"
        }
      ],
      "stateMutability": "view",
      "type": "function"
    },
    {
      "inputs": [
        {
          "internalType": "address",
          "name": "",
          "type": "address"
        }
      ],
      "name": "poolManagerFeeDenominator",
      "outputs": [
        {
          "internalType": "uint256",
          "name": "",
          "type": "uint256"
        }
      ],
      "stateMutability": "view",
      "type": "function"
    },
    {
      "inputs": [
        {
          "internalType": "address",
          "name": "",
          "type": "address"
        }
      ],
      "name": "poolManagerFeeNumerator",
      "outputs": [
        {
          "internalType": "uint256",
          "name": "",
          "type": "uint256"
        }
      ],
      "stateMutability": "view",
      "type": "function"
    },
    {
      "inputs": [],
      "name": "poolStorageVersion",
      "outputs": [
        {
          "internalType": "uint256",
          "name": "",
          "type": "uint256"
        }
      ],
      "stateMutability": "view",
      "type": "function"
    },
    {
      "inputs": [
        {
          "internalType": "address",
          "name": "",
          "type": "address"
        }
      ],
      "name": "poolVersion",
      "outputs": [
        {
          "internalType": "uint256",
          "name": "",
          "type": "uint256"
        }
      ],
      "stateMutability": "view",
      "type": "function"
    },
    {
      "inputs": [
        {
          "internalType": "address",
          "name": "asset",
          "type": "address"
        }
      ],
      "name": "removeValidAsset",
      "outputs": [],
      "stateMutability": "nonpayable",
      "type": "function"
    },
    {
      "inputs": [],
      "name": "renounceOwnership",
      "outputs": [],
      "stateMutability": "nonpayable",
      "type": "function"
    },
    {
      "inputs": [
        {
          "internalType": "address",
          "name": "daoAddress",
          "type": "address"
        }
      ],
      "name": "setDaoAddress",
      "outputs": [],
      "stateMutability": "nonpayable",
      "type": "function"
    },
    {
      "inputs": [
        {
          "internalType": "uint256",
          "name": "numerator",
          "type": "uint256"
        },
        {
          "internalType": "uint256",
          "name": "denominator",
          "type": "uint256"
        }
      ],
      "name": "setDaoFee",
      "outputs": [],
      "stateMutability": "nonpayable",
      "type": "function"
    },
    {
      "inputs": [
        {
          "internalType": "uint256",
          "name": "cooldown",
          "type": "uint256"
        }
      ],
      "name": "setExitCooldown",
      "outputs": [],
      "stateMutability": "nonpayable",
      "type": "function"
    },
    {
      "inputs": [
        {
          "internalType": "address",
          "name": "extContract",
          "type": "address"
        },
        {
          "internalType": "address",
          "name": "guardAddress",
          "type": "address"
        }
      ],
      "name": "setGuard",
      "outputs": [],
      "stateMutability": "nonpayable",
      "type": "function"
    },
    {
      "inputs": [
        {
          "internalType": "address",
          "name": "_poolLogic",
          "type": "address"
        },
        {
          "internalType": "address",
          "name": "_poolManagerLogic",
          "type": "address"
        }
      ],
      "name": "setLogic",
      "outputs": [],
      "stateMutability": "nonpayable",
      "type": "function"
    },
    {
      "inputs": [
        {
          "internalType": "uint256",
          "name": "delay",
          "type": "uint256"
        }
      ],
      "name": "setManagerFeeNumeratorChangeDelay",
      "outputs": [],
      "stateMutability": "nonpayable",
      "type": "function"
    },
    {
      "inputs": [
        {
          "internalType": "uint256",
          "name": "amount",
          "type": "uint256"
        }
      ],
      "name": "setMaximumManagerFeeNumeratorChange",
      "outputs": [],
      "stateMutability": "nonpayable",
      "type": "function"
    },
    {
      "inputs": [
        {
          "internalType": "uint256",
          "name": "count",
          "type": "uint256"
        }
      ],
      "name": "setMaximumSupportedAssetCount",
      "outputs": [],
      "stateMutability": "nonpayable",
      "type": "function"
    },
    {
      "inputs": [
        {
          "internalType": "address",
          "name": "pool",
          "type": "address"
        },
        {
          "internalType": "uint256",
          "name": "numerator",
          "type": "uint256"
        }
      ],
      "name": "setPoolManagerFeeNumerator",
      "outputs": [],
      "stateMutability": "nonpayable",
      "type": "function"
    },
    {
      "inputs": [
        {
          "internalType": "bytes32",
          "name": "code",
          "type": "bytes32"
        }
      ],
      "name": "setTrackingCode",
      "outputs": [],
      "stateMutability": "nonpayable",
      "type": "function"
    },
    {
      "inputs": [
        {
          "internalType": "address",
          "name": "newOwner",
          "type": "address"
        }
      ],
      "name": "transferOwnership",
      "outputs": [],
      "stateMutability": "nonpayable",
      "type": "function"
    },
    {
      "inputs": [
        {
          "internalType": "uint256",
          "name": "startIndex",
          "type": "uint256"
        },
        {
          "internalType": "uint256",
          "name": "endIndex",
          "type": "uint256"
        },
        {
          "internalType": "uint256",
          "name": "sourceVersion",
          "type": "uint256"
        },
        {
          "internalType": "uint256",
          "name": "targetVersion",
          "type": "uint256"
        },
        {
          "internalType": "bytes",
          "name": "data",
          "type": "bytes"
        }
      ],
      "name": "upgradePoolBatch",
      "outputs": [],
      "stateMutability": "nonpayable",
      "type": "function"
    }
  ],
  "bytecode": "0x60806040523480156200001c576000806200001962000023565b50505b5062000090565b632a2a7adb598160e01b8152600481016020815285602082015260005b868110156200005d57808601518282016040015260200162000040565b506020828760640184336000905af158600e01573d6000803e3d6000fd5b3d6001141558600a015760016000f35b505050565b61444680620000a06000396000f3fe60806040523480156200001c576000806200001962002a53565b50505b5060043610620002bb5760003560e01c80638da5cb5b116200017c578063bee37e5211620000e0578063e60eb412116200009e578063e60eb41214620005ba578063e99c0fa614620005d1578063ebee461d14620005e8578063ecef89d514620005f2578063eec16c441462000609578063f2fde38b146200062057620002bb565b8063bee37e521462000561578063bfeaf71d1462000578578063cc435bf31462000582578063d54e96d21462000599578063dc76d25414620005a357620002bb565b8063aa12ae4d116200013a578063aa12ae4d14620004f1578063aa7d664e14620004fb578063b193a5f41462000512578063b28060011462000529578063b7a545261462000533578063bcb01f44146200054a57620002bb565b80638da5cb5b146200049557806394d0d23b146200049f5780639a068bd614620004b95780639a3cac6a14620004d05780639cada6e414620004e757620002bb565b80635556ee551162000224578063742a96cd11620001e2578063742a96cd146200040b578063771d1baf146200042257806378a86e3a1462000439578063790fcf9f1462000450578063808ae5fb14620004675780638b2f0f4f146200047e57620002bb565b80635556ee5514620003a35780635b16ebb714620003ba5780635c9bfc2b14620003e05780637027ea6c14620003ea578063715018a6146200040157620002bb565b80631e666d13116200027e5780631e666d1314620003335780631e8e8bca146200034a578063227773ee14620003615780634501b088146200037857806345812ca5146200038257806349f7c02d146200039957620002bb565b8063046b72c414620002cb5780630bf99bd914620002e45780630f6559c4146200030657806310bf69dc14620003105780631d68702d146200031a575b600080620002c862002a53565b50505b620002e2620002dc3660046200324d565b62000637565b005b620002ee620007ab565b604051620002fd9190620037c6565b60405180910390f35b620002ee620007c0565b620002ee620007cf565b62000324620007db565b604051620002fd919062003627565b620002e2620003443660046200347d565b620007ff565b620002e26200035b366004620033cc565b62000970565b620002e26200037236600462003145565b620009ec565b620002ee62000a67565b6200032462000393366004620033f0565b62000a7a565b620002ee62000a91565b620002ee620003b43660046200311c565b62000a9f565b620003d1620003cb3660046200311c565b62000ab9565b604051620002fd9190620037bb565b620002ee62000ae2565b62000324620003fb3660046200311c565b62000af0565b620002e262000b2d565b620002e26200041c36600462003145565b62000c29565b620002e26200043336600462003450565b62000d5f565b620003246200044a366004620032af565b62000dd9565b620002e26200046136600462003189565b62001193565b620002e26200047836600462003145565b620013ff565b620002ee6200048f3660046200311c565b620014e3565b62000324620016d7565b620004a9620016e6565b604051620002fd92919062003bde565b62000324620004ca366004620033cc565b62001709565b620002e2620004e13660046200311c565b6200174b565b620004a9620017c4565b620002ee620017df565b620002e26200050c366004620033cc565b620017ed565b620003d1620005233660046200311c565b62001866565b620002e262001882565b620004a9620005443660046200311c565b6200194b565b620002e26200055b366004620033cc565b62001a02565b620002ee620005723660046200311c565b62001a84565b620002ee62001a9e565b620003d1620005933660046200311c565b62001aaa565b620002e262001ae0565b620002e2620005b43660046200311c565b62001bab565b620002ee620005cb3660046200311c565b62001cdb565b620002e2620005e2366004620033cc565b62001cf5565b620002ee62001d71565b62000324620006033660046200354c565b62001d7f565b620002e26200061a366004620033cc565b62001dc2565b620002e2620006313660046200311c565b62001e3b565b60d260005a6200064662002ac0565b6001600160a01b03166001600160a01b031681526020019081526020016000206000906200067362002b17565b906101000a900460ff1615156001151514620006b75760405162461bcd60e51b8152600401620006a390620037cf565b60405180910390620006b462002a53565b50505b6001600160a01b038216600090815260d160205260409020600090620006dc62002b17565b906101000a900460ff1615156001151514620007205760405162461bcd60e51b81526004016200070c9062003ba7565b604051809103906200071d62002a53565b50505b6200075960dd6200073062002b17565b6001600160a01b038416600090815260d5602052604090206200075262002b17565b9062001f77565b8111156200078f5760405162461bcd60e51b81526004016200077b90620038e8565b604051809103906200078c62002a53565b50505b620007a7828260d4620007a162002b17565b62001f9f565b5050565b600060cd80620007ba62002b17565b91505090565b60dc620007cc62002b17565b81565b60dd620007cc62002b17565b60008060ce620007ea62002b17565b906101000a90046001600160a01b0316905090565b620008096200203d565b6001600160a01b0316600060656200082062002b17565b906101000a90046001600160a01b03166001600160a01b0316146200086d5760405162461bcd60e51b8152600401620008599062003a68565b604051809103906200086a62002a53565b50505b8486111580156200088b575060cd806200088662002b17565b905086105b8015620008a5575060cd80620008a062002b17565b905085105b620008d85760405162461bcd60e51b8152600401620008c490620037fb565b60405180910390620008d562002a53565b50505b855b8581116200096757600060cd8281620008f262002b17565b8110620008fb57fe5b906000526020600020016000906200091262002b17565b6001600160a01b036101009290920a900416600081815260db6020529091508690604090206200094162002b17565b146200094e57506200095e565b6200095c818585886200204a565b505b600101620008da565b50505050505050565b6200097a6200203d565b6001600160a01b0316600060656200099162002b17565b906101000a90046001600160a01b03166001600160a01b031614620009de5760405162461bcd60e51b8152600401620009ca9062003a68565b60405180910390620009db62002a53565b50505b620009e981620021b2565b50565b600060ce620009fa62002b17565b906101000a90046001600160a01b03166001600160a01b03165a62000a1e62002ac0565b6001600160a01b03161462000a5b5760405162461bcd60e51b815260040162000a4790620038a0565b6040518091039062000a5862002a53565b50505b620007a78282620021c0565b600060d762000a7562002b17565b905090565b600062000a888383620021e7565b90505b92915050565b600060da62000a7562002b17565b60db6020528060005260406000209050620007cc62002b17565b60d16020528060005260406000206000915062000ad562002b17565b906101000a900460ff1681565b600060dd62000a7562002b17565b6001600160a01b038116600090815260df6020526040812060009062000b1562002b17565b906101000a90046001600160a01b031690505b919050565b62000b376200203d565b6001600160a01b03166000606562000b4e62002b17565b906101000a90046001600160a01b03166001600160a01b03161462000b9b5760405162461bcd60e51b815260040162000b879062003a68565b6040518091039062000b9862002a53565b50505b600080606562000baa62002b17565b906101000a90046001600160a01b03166001600160a01b03167f8be0079c531659141344cd1fd0a4f28419497f9722a3daafe3b4186f6b6457e060405160405180910390a36000606560018162000c0062002b17565b816001600160a01b0302191690836001600160a01b031602179062000c2462002b64565b505050565b600060ce62000c3762002b17565b906101000a90046001600160a01b03166001600160a01b03165a62000c5b62002ac0565b6001600160a01b03161462000c985760405162461bcd60e51b815260040162000c8490620038a0565b6040518091039062000c9562002a53565b50505b62000ca38262001aaa565b1562000cd75760405162461bcd60e51b815260040162000cc39062003aeb565b6040518091039062000cd462002a53565b50505b6001600160a01b038216600090815260d86020526001906040902060018162000cff62002b17565b8160ff0219169083151502179062000d1662002b64565b50505062000d25828262002324565b816001600160a01b03167fd63c302652b86334fe4eb891e7a01e61e836496485d9394f2c95b4222006ae5060405160405180910390a25050565b62000d696200203d565b6001600160a01b03166000606562000d8062002b17565b906101000a90046001600160a01b03166001600160a01b03161462000dcd5760405162461bcd60e51b815260040162000db99062003a68565b6040518091039062000dca62002a53565b50505b620007a782826200234b565b600060605a63996d79a5598160e01b8152602081600483336000905af158600e01573d6000803e3d6000fd5b3d6001141558600a015760016000f35b8051925060005b604081101562000e355760008282015260200162000e1c565b50505088888560405160240162000e5094939291906200363b565b604051601f19818303018152604091909152630a3df85f60e11b6020820180516001600160e01b031690911790529050600062000e8f82600162000a7a565b905060605a63996d79a5598160e01b8152602081600483336000905af158600e01573d6000803e3d6000fd5b3d6001141558600a015760016000f35b8051925060005b604081101562000eeb5760008282015260200162000ed2565b5050508b89898560405160240162000f08959493929190620036bf565b604051601f19818303018152604091909152630ccb30c760e01b6020820180516001600160e01b031690911790529050600062000f4782600262000a7a565b9050826001600160a01b0316638e10153d826040518263ffffffff1660e01b815260040162000f77919062003627565b6020604051808303816000878062000f8e62002bb3565b15801562000fa65760008062000fa362002a53565b50505b505a62000fb262002c00565b50505050505015801562000fd5573d6000803e3d600062000fd262002a53565b50505b50505050604051601f3d908101601f1916820160405262000ffa919081019062003285565b508060cd806001816200100c62002b17565b0180826200101962002b64565b5050600092835260001901916020915020016001816200103862002b17565b816001600160a01b0302191690836001600160a01b03160217906200105c62002b64565b5050506001600160a01b038116600090815260d1602052600190604090206001816200108762002b17565b8160ff021916908315150217906200109e62002b64565b5050506001600160a01b038316600090815260d260205260019060409020600181620010c962002b17565b8160ff02191690831515021790620010e062002b64565b50505060dc620010ef62002b17565b6001600160a01b038216600090815260db6020526040902081906200111362002b64565b50505062001128818860d4620007a162002b17565b7f73a0638fe578fc759744633aa170a433061ca2cc1bb855d116c506e04a29901f818d8b8d8f5a6200115962002cf6565b8d60d46200116662002b17565b6040516200117c98979695949392919062003715565b60405180910390a19b9a5050505050505050505050565b60016000620011a162002b17565b906101000a900460ff1680620011bc5750620011bc620023e4565b80620011dc5750600080620011d062002b17565b906101000a900460ff16155b6200120f5760405162461bcd60e51b8152600401620011fb9062003a9d565b604051809103906200120c62002a53565b50505b60006001816200121e62002b17565b906101000a900460ff1615905080156200128d5760016000610100816200124462002b17565b8160ff021916908315150217906200125b62002b64565b50505060016000806101000a816200127262002b17565b8160ff021916908315150217906200128962002b64565b5050505b62001299868662002459565b620012a48462002463565b620012b4611388612710620024d6565b620012c2600a60646200234b565b620012d0620151806200252d565b620012de6224ea0062001a02565b620012eb6103e862001cf5565b620012f7600a6200256f565b6200130b6544484544474560d01b620021b2565b60005b83518160ff161015620013c357600160d86000868460ff16815181106200133157fe5b60200260200101516001600160a01b03166001600160a01b031681526020019081526020016000206001816200136662002b17565b8160ff021916908315150217906200137d62002b64565b505050620013ba848260ff16815181106200139457fe5b6020026020010151848360ff1681518110620013ac57fe5b602002602001015162002324565b6001016200130e565b508015620013f75760008061010081620013dc62002b17565b8160ff02191690831515021790620013f362002b64565b5050505b505050505050565b620014096200203d565b6001600160a01b0316600060656200142062002b17565b906101000a90046001600160a01b03166001600160a01b0316146200146d5760405162461bcd60e51b8152600401620014599062003a68565b604051809103906200146a62002a53565b50505b8160976001816200147d62002b17565b816001600160a01b0302191690836001600160a01b0316021790620014a162002b64565b50505080609860006101000a81620014b862002b17565b816001600160a01b0302191690836001600160a01b0316021790620014dc62002b64565b5050505050565b6001600160a01b038116600090815260cc60205280604081206000906200150962002b17565b6001600160a01b036101009290920a900416905080620015515760405162461bcd60e51b81526004016200153d9062003916565b604051809103906200154e62002a53565b50505b60008060cb6200156062002b17565b906101000a900460ff166200169957816001600160a01b031663feaf968c6040518163ffffffff1660e01b815260040160a0604051808303818680620015a562002bb3565b158015620015bd57600080620015ba62002a53565b50505b505a620015c962002d3d565b5050505050925050508015620015fe5750604051601f3d908101601f19168201604052620015fb919081019062003575565b60015b620016365760405162461bcd60e51b81526004016200161d9062003a24565b604051809103906200162e62002a53565b505062001699565b5a6200164162002cf6565b620016508362015f9062001f77565b1015620016855760405162461bcd60e51b8152600401620016719062003b19565b604051809103906200168262002a53565b50505b600084131562001693578395505b50505050505b60008111620016d05760405162461bcd60e51b8152600401620016bc9062003a24565b60405180910390620016cd62002a53565b50505b9392505050565b6000806065620007ea62002b17565b60008060d3620016f562002b17565b60d46200170162002b17565b915091509091565b60cd81816200171762002b17565b81106200172057fe5b90600052602060002001600091506200173862002b17565b906101000a90046001600160a01b031681565b620017556200203d565b6001600160a01b0316600060656200176c62002b17565b906101000a90046001600160a01b03166001600160a01b031614620017b95760405162461bcd60e51b8152600401620017a59062003a68565b60405180910390620017b662002a53565b50505b620009e98162002463565b60008060cf620017d362002b17565b60d06200170162002b17565b600060d962000a7562002b17565b620017f76200203d565b6001600160a01b0316600060656200180e62002b17565b906101000a90046001600160a01b03166001600160a01b0316146200185b5760405162461bcd60e51b8152600401620018479062003a68565b604051809103906200185862002a53565b50505b620009e9816200252d565b60d26020528060005260406000206000915062000ad562002b17565b600060ce6200189062002b17565b906101000a90046001600160a01b03166001600160a01b03165a620018b462002ac0565b6001600160a01b031614620018f15760405162461bcd60e51b8152600401620018dd90620038a0565b60405180910390620018ee62002a53565b50505b600060cb620018ff62002b17565b60ff6101009290920a900416156200193f5760405162461bcd60e51b81526004016200192b9062003b61565b604051809103906200193c62002a53565b50505b62001949620025b1565b565b6001600160a01b038116600090815260d160205280604081206000906200197162002b17565b906101000a900460ff1615156001151514620019b55760405162461bcd60e51b8152600401620019a19062003ba7565b60405180910390620019b262002a53565b50505b6001600160a01b038316600090815260d560205260409020620019d762002b17565b6001600160a01b038416600090815260d660205260409020620019f962002b17565b91509150915091565b62001a0c6200203d565b6001600160a01b03166000606562001a2362002b17565b906101000a90046001600160a01b03166001600160a01b03161462001a705760405162461bcd60e51b815260040162001a5c9062003a68565b6040518091039062001a6d62002a53565b50505b808060de62001a7e62002b64565b50505050565b60d56020528060005260406000209050620007cc62002b17565b60de620007cc62002b17565b6001600160a01b038116600090815260d86020526040812060009062001acf62002b17565b906101000a900460ff169050919050565b600060ce62001aee62002b17565b906101000a90046001600160a01b03166001600160a01b03165a62001b1262002ac0565b6001600160a01b03161462001b4f5760405162461bcd60e51b815260040162001b3b90620038a0565b6040518091039062001b4c62002a53565b50505b600060cb62001b5d62002b17565b906101000a900460ff161515600115151462001ba15760405162461bcd60e51b815260040162001b8d9062003983565b6040518091039062001b9e62002a53565b50505b62001949620025d8565b600060ce62001bb962002b17565b906101000a90046001600160a01b03166001600160a01b03165a62001bdd62002ac0565b6001600160a01b03161462001c1a5760405162461bcd60e51b815260040162001c0690620038a0565b6040518091039062001c1762002a53565b50505b62001c258162001aaa565b62001c585760405162461bcd60e51b815260040162001c4490620039cd565b6040518091039062001c5562002a53565b50505b6001600160a01b038116600090815260d86020526040812060018162001c7d62002b17565b8160ff0219169083151502179062001c9462002b64565b50505062001ca281620025e9565b806001600160a01b03167fe8b3c469b395bfd934168e4b7d14590c9cd1a6740533df170dbe3c219ff5a67460405160405180910390a250565b60d66020528060005260406000209050620007cc62002b17565b62001cff6200203d565b6001600160a01b03166000606562001d1662002b17565b906101000a90046001600160a01b03166001600160a01b03161462001d635760405162461bcd60e51b815260040162001d4f9062003a68565b6040518091039062001d6062002a53565b50505b808060dd62001a7e62002b64565b600060de62000a7562002b17565b60008160ff166001141562001db4576000609862001d9c62002b17565b906101000a90046001600160a01b0316905062000b28565b6000609762001d9c62002b17565b62001dcc6200203d565b6001600160a01b03166000606562001de362002b17565b906101000a90046001600160a01b03166001600160a01b03161462001e305760405162461bcd60e51b815260040162001e1c9062003a68565b6040518091039062001e2d62002a53565b50505b620009e9816200256f565b62001e456200203d565b6001600160a01b03166000606562001e5c62002b17565b906101000a90046001600160a01b03166001600160a01b03161462001ea95760405162461bcd60e51b815260040162001e959062003a68565b6040518091039062001ea662002a53565b50505b6001600160a01b03811662001ee65760405162461bcd60e51b815260040162001ed29062003823565b6040518091039062001ee362002a53565b50505b6001600160a01b0381166000606562001efe62002b17565b906101000a90046001600160a01b03166001600160a01b03167f8be0079c531659141344cd1fd0a4f28419497f9722a3daafe3b4186f6b6457e060405160405180910390a380606560018162001f5362002b17565b816001600160a01b0302191690836001600160a01b031602179062001a7e62002b64565b60008282018381101562000a885760405162461bcd60e51b8152600401620016bc9062003869565b80821115801562001fbb575060d362001fb762002b17565b8211155b62001fee5760405162461bcd60e51b815260040162001fda90620039fa565b6040518091039062001feb62002a53565b50505b6001600160a01b038316600090815260d560205282906040902081906200201462002b64565b5050506001600160a01b038316600090815260d66020528190604090208190620013f762002b64565b60005a62000a7562002ac0565b6001600160a01b038416620020875760405162461bcd60e51b815260040162002073906200395b565b604051809103906200208462002a53565b50505b81620020bb5760405162461bcd60e51b8152600401620020a790620038c2565b60405180910390620020b862002a53565b50505b606083838080601f01602080910402602001604051908101604052818152929190602084018383808284376000920182905250939450839250849150505160208401885a6200210962002e0c565b50505050508015600181146200211f5762002136565b3d806000803e8060006200213262002a53565b5050505b5050846001600160a01b03165a6200214d62002ac0565b6001600160a01b03167f78a9b536049c39a00adaf57016b1376c99dd48a0faf2cef23690232f21ce42cc60405160405180910390a36001600160a01b038516600090815260db6020528290604090208190620021a862002b64565b5050505050505050565b808060da62001a7e62002b64565b6001600160a01b038216600090815260df602052819060409020600181620014b862002b17565b600080620021f46200260e565b90507efffc2da0b561cae30d9826d37709e9421c4725faebc226cbbb7ef5fc5e73498160405162002226919062003627565b60405180910390a1806001600160a01b031663e74a474a5a63996d79a5598160e01b8152602081600483336000905af158600e01573d6000803e3d6000fd5b3d6001141558600a015760016000f35b8051925060005b604081101562002295576000828201526020016200227c565b50505086866040518463ffffffff1660e01b8152600401620022ba9392919062003782565b60006040518083038160008780620022d162002bb3565b158015620022e957600080620022e662002a53565b50505b505a620022f562002c00565b50505050505015801562002318573d6000803e3d60006200231562002a53565b50505b50929695505050505050565b6001600160a01b038216600090815260cc602052819060409020600181620014b862002b17565b80821115620023825760405162461bcd60e51b81526004016200236e90620039fa565b604051809103906200237f62002a53565b50505b818060cf6200239062002b64565b5050508060d08190620023a262002b64565b5050507fb10da2958bf5ec1bff3164ff753a09e0460ed44d3abf73e79b817b500ed0f2f18282604051620023d892919062003bde565b60405180910390a15050565b6000805a63996d79a5598160e01b8152602081600483336000905af158600e01573d6000803e3d6000fd5b3d6001141558600a015760016000f35b8051925060005b60408110156200243f5760008282015260200162002426565b50505090506000816200245162002bb3565b159250505090565b6200146d62002675565b8060ce6001816200247362002b17565b816001600160a01b0302191690836001600160a01b03160217906200249762002b64565b5050507ff1034ad6b4d45dc33a4142b9c51c2b7f89bf4a410696e426cc0f3224869e0aca81604051620024cb919062003627565b60405180910390a150565b808211156200250d5760405162461bcd60e51b8152600401620024f990620039fa565b604051809103906200250a62002a53565b50505b818060d36200251b62002b64565b5050508060d48190620014dc62002b64565b808060d76200253b62002b64565b5050507f20d916c976f3971e8200089411b0b712ef4612d98380b8ad2e3d8a8a376d85c781604051620024cb9190620037c6565b808060d96200257d62002b64565b5050507f0cd8fcb5e08d7632af461f0ad793e5c63dc0d7595c301f5880650175e37a874881604051620024cb9190620037c6565b600160cb8181620025c162002b17565b8160ff0219169083151502179062000c2462002b64565b600060cb600181620025c162002b17565b6001600160a01b038116600090815260cc6020526040812060018162001f5362002b17565b6000806060604051620026246020820162002e1e565b601f1982820381018352601f90910116604052905080516020820160006200264b62002e2c565b50509150816200265a62002bb3565b6200266f576000806200266c62002a53565b50505b50905090565b600160006200268362002b17565b906101000a900460ff16806200269e57506200269e620023e4565b80620026be5750600080620026b262002b17565b906101000a900460ff16155b620026f15760405162461bcd60e51b8152600401620026dd9062003a9d565b60405180910390620026ee62002a53565b50505b60006001816200270062002b17565b906101000a900460ff1615905080156200276f5760016000610100816200272662002b17565b8160ff021916908315150217906200273d62002b64565b50505060016000806101000a816200275462002b17565b8160ff021916908315150217906200276b62002b64565b5050505b62002779620027b2565b62002783620028c3565b8015620009e957600080610100816200279b62002b17565b8160ff0219169083151502179062001a7e62002b64565b60016000620027c062002b17565b906101000a900460ff1680620027db5750620027db620023e4565b80620027fb5750600080620027ef62002b17565b906101000a900460ff16155b6200282e5760405162461bcd60e51b81526004016200281a9062003a9d565b604051809103906200282b62002a53565b50505b60006001816200283d62002b17565b906101000a900460ff161590508015620027835760016000610100816200286362002b17565b8160ff021916908315150217906200287a62002b64565b50505060016000806101000a816200289162002b17565b8160ff02191690831515021790620028a862002b64565b5050508015620009e957600080610100816200279b62002b17565b60016000620028d162002b17565b906101000a900460ff1680620028ec5750620028ec620023e4565b806200290c57506000806200290062002b17565b906101000a900460ff16155b6200293f5760405162461bcd60e51b81526004016200292b9062003a9d565b604051809103906200293c62002a53565b50505b60006001816200294e62002b17565b906101000a900460ff161590508015620029bd5760016000610100816200297462002b17565b8160ff021916908315150217906200298b62002b64565b50505060016000806101000a81620029a262002b17565b8160ff02191690831515021790620029b962002b64565b5050505b6000620029c96200203d565b9050806065600181620029db62002b17565b816001600160a01b0302191690836001600160a01b0316021790620029ff62002b64565b5050506001600160a01b03811660007f8be0079c531659141344cd1fd0a4f28419497f9722a3daafe3b4186f6b6457e060405160405180910390a3508015620009e957600080610100816200279b62002b17565b632a2a7adb598160e01b8152600481016020815285602082015260005b8681101562002a8d57808601518282016040015260200162002a70565b506020828760640184336000905af158600e01573d6000803e3d6000fd5b3d6001141558600a015760016000f35b505050565b6373509064598160e01b8152602081600483336000905af158600e01573d6000803e3d6000fd5b3d6001141558600a015760016000f35b8051935060005b604081101562000c245760008282015260200162002afe565b6303daa959598160e01b8152836004820152602081602483336000905af158600e01573d6000803e3d6000fd5b3d6001141558600a015760016000f35b8051600082529350602062002afe565b6322bd64c0598160e01b8152836004820152846024820152600081604483336000905af158600e01573d6000803e3d6000fd5b3d6001141558600a015760016000f35b60008152602062002afe565b638435035b598160e01b8152836004820152602081602483336000905af158600e01573d6000803e3d6000fd5b3d6001141558600a015760016000f35b8051600082529350602062002afe565b6385979f76598160e01b815262002c34565b808083111562000a8b575090919050565b808083101562000a8b575090919050565b836004820152846024820152606060448201528760648201526084810160005b8981101562002c6e57808901518282015260200162002c54565b506060828a60a40184336000905af158600e01573d6000803e3d6000fd5b3d6001141558600a015760016000f35b815160408301513d6000853e8c8c82606087013350600060045af1505962002cc58e3d62002c23565b8d0162002cd3818762002c12565b5b8281101562002cea576000815260200162002cd4565b50929d50505050505050565b63bdbf8c36598160e01b8152602081600483336000905af158600e01573d6000803e3d6000fd5b3d6001141558600a015760016000f35b8051600082529350602062002afe565b638540661f598160e01b81525b836004820152846024820152606060448201528660648201526084810160005b8881101562002d8457808801518282015260200162002d6a565b506060828960a40184336000905af158600e01573d6000803e3d6000fd5b3d6001141558600a015760016000f35b815160408301513d6000853e8b8b82606087013350600060045af1505962002ddb8d3d62002c23565b8c0162002de9818762002c12565b5b8281101562002e00576000815260200162002dea565b50929c50505050505050565b63ffe73914598160e01b815262002d4a565b6107c18062003c8583390190565b6314aa2ff7598160e01b8152600481016020815286602082015260005b8781101562002e6657808701518282016040015260200162002e49565b506020828860640184336000905af158600e01573d6000803e3d6000fd5b3d6001141558600a015760016000f35b8151965059825b81811015620014dc576000815260200162002e9b565b80356001600160a01b038116811462000a8b5760008062002ed162002a53565b505092915050565b600082601f83011262002ef557808162002ef262002a53565b50505b813562002f0c62002f068262003c23565b62003bec565b81815291506020808301908481018184028601820187101562002f395760008062002f3662002a53565b50505b60005b8481101562002f645762002f51888362002eb1565b8452928201929082019060010162002f3c565b505050505092915050565b600082601f83011262002f8b57808162002f8862002a53565b50505b813562002f9c62002f068262003c23565b818152915060208083019084810160408085028701830188101562002fcb5760008062002fc862002a53565b50505b6000805b86811015620030325782848b03121562002ff257818262002fef62002a53565b50505b62002ffd8362003bec565b84356200300a8162003c4f565b8152848601356200301b8162003c6d565b818701528652948401949282019260010162002fcf565b5050505050505092915050565b803562000a8b8162003c6d565b600082601f830112620030685780816200306562002a53565b50505b813567ffffffffffffffff8111156200308a5781826200308762002a53565b50505b6200309f601f8201601f191660200162003bec565b9150808252836020828501011115620030c257600080620030bf62002a53565b50505b8060208401602084013760009082016020015292915050565b803560ff8116811462000a8b5760008062002ed162002a53565b60008151905069ffffffffffffffffffff8116811462000a8b5760008062002ed162002a53565b600060208284031215620031395780816200313662002a53565b50505b62000a88838362002eb1565b60008060408385031215620031635780816200316062002a53565b50505b6200316f848462002eb1565b915062003180846020850162002eb1565b90509250929050565b600080600080600060a08688031215620031ac578081620031a962002a53565b50505b620031b8878762002eb1565b9450620031c9876020880162002eb1565b9350620031da876040880162002eb1565b9250606086013567ffffffffffffffff8082111562003202578283620031ff62002a53565b50505b6200321089838a0162002ed9565b93506080880135915080821115620032315782836200322e62002a53565b50505b50620032408882890162002ed9565b9150509295509295909350565b600080604083850312156200326b5781826200326862002a53565b50505b62003277848462002eb1565b946020939093013593505050565b600060208284031215620032a25780816200329f62002a53565b50505b815162000a888162003c6d565b600080600080600080600060e0888a031215620032d5578182620032d262002a53565b50505b620032e189896200303f565b9650620032f28960208a0162002eb1565b9550604088013567ffffffffffffffff808211156200331a5783846200331762002a53565b50505b620033288b838c016200304c565b965060608a0135915080821115620033495783846200334662002a53565b50505b620033578b838c016200304c565b955060808a0135915080821115620033785783846200337562002a53565b50505b620033868b838c016200304c565b945060a08a0135935060c08a0135915080821115620033ae578283620033ab62002a53565b50505b50620033bd8a828b0162002f6f565b91505092959891949750929550565b600060208284031215620033e9578081620033e662002a53565b50505b5035919050565b600080604083850312156200340e5781826200340b62002a53565b50505b823567ffffffffffffffff811115620034305782836200342d62002a53565b50505b6200343e858286016200304c565b925050620031808460208501620030db565b600080604083850312156200346e5781826200346b62002a53565b50505b50508035926020909101359150565b60008060008060008060a08789031215620034a15783846200349e62002a53565b50505b86359550602087013594506040870135935060608701359250608087013567ffffffffffffffff80821115620034e0578384620034dd62002a53565b50505b818901915089601f830112620034ff578384620034fc62002a53565b50505b813581811115620035195784856200351662002a53565b50505b8a6020828501011115620035365784856200353362002a53565b50505b6020830194508093505050509295509295509295565b600060208284031215620035695780816200356662002a53565b50505b62000a888383620030db565b600080600080600060a08688031215620035985782836200359562002a53565b50505b620035a48787620030f5565b9450602086015193506040860151925060608601519150620035ca8760808801620030f5565b90509295509295909350565b60008151808452815b818110156200360057602080828601015186830190910152602001620035df565b81811115620036125782602083870101525b50601f01601f19169290920160200192915050565b6001600160a01b0391909116815260200190565b600060018060a01b0380871683526020818716818501526040608081860152620036696080860188620035d6565b85810360608701528087518083528885019285019150865b81811015620036ae5783518781511684528681015115158488015250928501929184019160010162003681565b50909b9a5050505050505050505050565b600060018060a01b038088168352861515602084015260a06040840152620036eb60a0840187620035d6565b8381036060850152620036ff8187620035d6565b9250508084166080840152509695505050505050565b6001600160a01b038981168252881515602083015261010060408301819052600091620037458483018b620035d6565b915083820360608501526200375b828a620035d6565b97166080840152505060a081019390935260c083019190915260e090910152949350505050565b6001600160a01b0384168152606060208201819052600090620037a890830185620035d6565b905060ff83166040830152949350505050565b901515815260200190565b90815260200190565b6020808252601290820152712737ba1030903837b7b61036b0b730b3b2b960711b604082015260600190565b6020808252600e908201526d696e76616c696420626f756e647360901b604082015260600190565b60208082526026908201527f4f776e61626c653a206e6577206f776e657220697320746865207a65726f206160408201526564647265737360d01b606082015260800190565b6020808252601b908201527f536166654d6174683a206164646974696f6e206f766572666c6f770000000000604082015260600190565b6020808252600890820152676f6e6c792064616f60c01b604082015260600190565b6020808252600c908201526b19185d184b5a5b9d985b1a5960a21b604082015260600190565b6020808252601490820152730dac2dcc2cecae440cccaca40e8dede40d0d2ced60631b604082015260600190565b60208082526025908201527f5072696365436f6e73756d657256333a2061676772656761746f72206e6f7420604082015264199bdd5b9960da1b606082015260800190565b6020808252600e908201526d1d185c99d95d0b5a5b9d985b1a5960921b604082015260600190565b6020808252602a908201527f5072696365436f6e73756d657256333a20636861696e6c696e6b20616c726561604082015269191e48195b98589b195960b21b606082015260800190565b602080825260139082015272185cdcd95d08191bd95cdb89dd08195e1a5cdd606a1b604082015260600190565b60208082526010908201526f34b73b30b634b210333930b1ba34b7b760811b604082015260600190565b60208082526024908201527f5072696365436f6e73756d657256333a207072696365206e6f7420617661696c60408201526361626c6560e01b606082015260800190565b6020808252818101527f4f776e61626c653a2063616c6c6572206973206e6f7420746865206f776e6572604082015260600190565b6020808252602e908201527f436f6e747261637420696e7374616e63652068617320616c726561647920626560408201526d195b881a5b9a5d1a585b1a5e995960921b606082015260800190565b602080825260149082015273617373657420616c72656164792065786973747360601b604082015260600190565b60208082526028908201527f5072696365436f6e73756d657256333a20636861696e6c696e6b20707269636560408201526708195e1c1a5c995960c21b606082015260800190565b60208082526026908201527f5072696365436f6e73756d657256333a20636861696e6c696e6b206e6f7420656040820152651b98589b195960d21b606082015260800190565b6020808252601e908201527f737570706c6965642061646472657373206973206e6f74206120706f6f6c0000604082015260600190565b918252602082015260400190565b6000604051905081810181811067ffffffffffffffff8211171562003c1b5760008062003c1862002a53565b50505b604052919050565b600067ffffffffffffffff82111562003c4557808162003c4262002a53565b50505b5060209081020190565b6001600160a01b0381168114620009e95760008062000c2462002a53565b8015158114620009e95760008062000c2462002a5356fe60806040523480156100195760008061001661001f565b50505b5061008a565b632a2a7adb598160e01b8152600481016020815285602082015260005b8681101561005757808601518282016040015260200161003c565b506020828760640184336000905af158600e01573d6000803e3d6000fd5b3d6001141558600a015760016000f35b505050565b610728806100996000396000f3fe6080604052600436106100225760003560e01c8063e74a474a1461003957610031565b366100315761002f610117565b005b61002f610117565b61002f60048036036060811015610058576000806100556104ca565b50505b6001600160a01b03823516919081019060408101602082013564010000000081111561008c576000806100896104ca565b50505b8201836020820111156100a7576000806100a46104ca565b50505b803590602001918460018302840111640100000000831117156100d2576000806100cf6104ca565b50505b91908080601f01602080910402602001604051908101604052818152929190602084018383808284376000920191909152509295505050903560ff1691506101319050565b61011f61012f565b61012f61012a6102c3565b6103c4565b565b600061013b6102c3565b6001600160a01b03161461018e5760405162461bcd60e51b815260206004820152600d60248201526c496d706c206e6f74207a65726f60981b60448201526064016040518091039061018b6104ca565b50505b61019783610401565b6101a08161048e565b6000825111156102be5760006101b46102c3565b6001600160a01b0316836040518082805190602001908083835b602083106101ed5780518252601f1990920191602091820191016101ce565b6001836020036101000a038019825116818451168082178552505050505050905001915050600060405180830381855a610225610535565b50505050509150503d8060008114610259576040513d603f01601f191681016040523d815291503d6000602084013e61025e565b606091505b50509050806102bc5760405162461bcd60e51b815260206004820152601a60248201527f496d706c656d656e746174696f6e20696e6974206661696c65640000000000006044820152606401604051809103906102b96104ca565b50505b505b505050565b6000807f360894a13ba1a3210667c828492db98dca3e2076cc3735a920a3ca505d382bbc806102f0610622565b91506001600160a01b03821661030b576000925050506103c1565b816001600160a01b031663ecef89d561032261049d565b6040516001600160e01b031960e084901b16815260ff9091166004820152602401602060405180830381868061035661067d565b15801561036b576000806103686104ca565b50505b505a6103756106c9565b5050505050158015610394573d6000803e3d60006103916104ca565b50505b505050506040513d60208110156103b3576000806103b06104ca565b50505b810190808051955050505050505b90565b3660008037600080366000845a6103d9610535565b50505050503d6000803e8080156103ef573d6000f35b3d60006103fa6104ca565b5050505050565b61040a816104b5565b6104635760405162461bcd60e51b815260206004820181905260248201527f43616e6e6f742073657420696d706c656d656e746174696f6e20746f20454f416044820152606401604051809103906104606104ca565b50505b7f360894a13ba1a3210667c828492db98dca3e2076cc3735a920a3ca505d382bbc81816102bc6106da565b600160fc1b81816102bc6106da565b600080600160fc1b806104ae610622565b9250505090565b600080826104c161067d565b15159392505050565b632a2a7adb598160e01b8152600481016020815285602082015260005b868110156105025780860151828201604001526020016104e7565b506020828760640184336000905af158600e01573d6000803e3d6000fd5b3d6001141558600a015760016000f35b505050565b63ffe73914598160e01b8152610568565b80808311156105525750815b92915050565b8080831015610552575090919050565b836004820152846024820152606060448201528660648201526084810160005b888110156105a0578088015182820152602001610588565b506060828960a40184336000905af158600e01573d6000803e3d6000fd5b3d6001141558600a015760016000f35b815160408301513d6000853e8b8b82606087013350600060045af150596105f58d3d610558565b8c016106018187610546565b5b828110156106165760008152602001610602565b50929c50505050505050565b6303daa959598160e01b8152836004820152602081602483336000905af158600e01573d6000803e3d6000fd5b3d6001141558600a015760016000f35b8051935060005b60408110156102be57600082820152602001610666565b638435035b598160e01b8152836004820152602081602483336000905af158600e01573d6000803e3d6000fd5b3d6001141558600a015760016000f35b80516000825293506020610666565b638540661f598160e01b8152610568565b6322bd64c0598160e01b8152836004820152846024820152600081604483336000905af158600e01573d6000803e3d6000fd5b3d6001141558600a015760016000f35b60008152602061066656",
  "deployedBytecode": "0x60806040523480156200001c576000806200001962002a53565b50505b5060043610620002bb5760003560e01c80638da5cb5b116200017c578063bee37e5211620000e0578063e60eb412116200009e578063e60eb41214620005ba578063e99c0fa614620005d1578063ebee461d14620005e8578063ecef89d514620005f2578063eec16c441462000609578063f2fde38b146200062057620002bb565b8063bee37e521462000561578063bfeaf71d1462000578578063cc435bf31462000582578063d54e96d21462000599578063dc76d25414620005a357620002bb565b8063aa12ae4d116200013a578063aa12ae4d14620004f1578063aa7d664e14620004fb578063b193a5f41462000512578063b28060011462000529578063b7a545261462000533578063bcb01f44146200054a57620002bb565b80638da5cb5b146200049557806394d0d23b146200049f5780639a068bd614620004b95780639a3cac6a14620004d05780639cada6e414620004e757620002bb565b80635556ee551162000224578063742a96cd11620001e2578063742a96cd146200040b578063771d1baf146200042257806378a86e3a1462000439578063790fcf9f1462000450578063808ae5fb14620004675780638b2f0f4f146200047e57620002bb565b80635556ee5514620003a35780635b16ebb714620003ba5780635c9bfc2b14620003e05780637027ea6c14620003ea578063715018a6146200040157620002bb565b80631e666d13116200027e5780631e666d1314620003335780631e8e8bca146200034a578063227773ee14620003615780634501b088146200037857806345812ca5146200038257806349f7c02d146200039957620002bb565b8063046b72c414620002cb5780630bf99bd914620002e45780630f6559c4146200030657806310bf69dc14620003105780631d68702d146200031a575b600080620002c862002a53565b50505b620002e2620002dc3660046200324d565b62000637565b005b620002ee620007ab565b604051620002fd9190620037c6565b60405180910390f35b620002ee620007c0565b620002ee620007cf565b62000324620007db565b604051620002fd919062003627565b620002e2620003443660046200347d565b620007ff565b620002e26200035b366004620033cc565b62000970565b620002e26200037236600462003145565b620009ec565b620002ee62000a67565b6200032462000393366004620033f0565b62000a7a565b620002ee62000a91565b620002ee620003b43660046200311c565b62000a9f565b620003d1620003cb3660046200311c565b62000ab9565b604051620002fd9190620037bb565b620002ee62000ae2565b62000324620003fb3660046200311c565b62000af0565b620002e262000b2d565b620002e26200041c36600462003145565b62000c29565b620002e26200043336600462003450565b62000d5f565b620003246200044a366004620032af565b62000dd9565b620002e26200046136600462003189565b62001193565b620002e26200047836600462003145565b620013ff565b620002ee6200048f3660046200311c565b620014e3565b62000324620016d7565b620004a9620016e6565b604051620002fd92919062003bde565b62000324620004ca366004620033cc565b62001709565b620002e2620004e13660046200311c565b6200174b565b620004a9620017c4565b620002ee620017df565b620002e26200050c366004620033cc565b620017ed565b620003d1620005233660046200311c565b62001866565b620002e262001882565b620004a9620005443660046200311c565b6200194b565b620002e26200055b366004620033cc565b62001a02565b620002ee620005723660046200311c565b62001a84565b620002ee62001a9e565b620003d1620005933660046200311c565b62001aaa565b620002e262001ae0565b620002e2620005b43660046200311c565b62001bab565b620002ee620005cb3660046200311c565b62001cdb565b620002e2620005e2366004620033cc565b62001cf5565b620002ee62001d71565b62000324620006033660046200354c565b62001d7f565b620002e26200061a366004620033cc565b62001dc2565b620002e2620006313660046200311c565b62001e3b565b60d260005a6200064662002ac0565b6001600160a01b03166001600160a01b031681526020019081526020016000206000906200067362002b17565b906101000a900460ff1615156001151514620006b75760405162461bcd60e51b8152600401620006a390620037cf565b60405180910390620006b462002a53565b50505b6001600160a01b038216600090815260d160205260409020600090620006dc62002b17565b906101000a900460ff1615156001151514620007205760405162461bcd60e51b81526004016200070c9062003ba7565b604051809103906200071d62002a53565b50505b6200075960dd6200073062002b17565b6001600160a01b038416600090815260d5602052604090206200075262002b17565b9062001f77565b8111156200078f5760405162461bcd60e51b81526004016200077b90620038e8565b604051809103906200078c62002a53565b50505b620007a7828260d4620007a162002b17565b62001f9f565b5050565b600060cd80620007ba62002b17565b91505090565b60dc620007cc62002b17565b81565b60dd620007cc62002b17565b60008060ce620007ea62002b17565b906101000a90046001600160a01b0316905090565b620008096200203d565b6001600160a01b0316600060656200082062002b17565b906101000a90046001600160a01b03166001600160a01b0316146200086d5760405162461bcd60e51b8152600401620008599062003a68565b604051809103906200086a62002a53565b50505b8486111580156200088b575060cd806200088662002b17565b905086105b8015620008a5575060cd80620008a062002b17565b905085105b620008d85760405162461bcd60e51b8152600401620008c490620037fb565b60405180910390620008d562002a53565b50505b855b8581116200096757600060cd8281620008f262002b17565b8110620008fb57fe5b906000526020600020016000906200091262002b17565b6001600160a01b036101009290920a900416600081815260db6020529091508690604090206200094162002b17565b146200094e57506200095e565b6200095c818585886200204a565b505b600101620008da565b50505050505050565b6200097a6200203d565b6001600160a01b0316600060656200099162002b17565b906101000a90046001600160a01b03166001600160a01b031614620009de5760405162461bcd60e51b8152600401620009ca9062003a68565b60405180910390620009db62002a53565b50505b620009e981620021b2565b50565b600060ce620009fa62002b17565b906101000a90046001600160a01b03166001600160a01b03165a62000a1e62002ac0565b6001600160a01b03161462000a5b5760405162461bcd60e51b815260040162000a4790620038a0565b6040518091039062000a5862002a53565b50505b620007a78282620021c0565b600060d762000a7562002b17565b905090565b600062000a888383620021e7565b90505b92915050565b600060da62000a7562002b17565b60db6020528060005260406000209050620007cc62002b17565b60d16020528060005260406000206000915062000ad562002b17565b906101000a900460ff1681565b600060dd62000a7562002b17565b6001600160a01b038116600090815260df6020526040812060009062000b1562002b17565b906101000a90046001600160a01b031690505b919050565b62000b376200203d565b6001600160a01b03166000606562000b4e62002b17565b906101000a90046001600160a01b03166001600160a01b03161462000b9b5760405162461bcd60e51b815260040162000b879062003a68565b6040518091039062000b9862002a53565b50505b600080606562000baa62002b17565b906101000a90046001600160a01b03166001600160a01b03167f8be0079c531659141344cd1fd0a4f28419497f9722a3daafe3b4186f6b6457e060405160405180910390a36000606560018162000c0062002b17565b816001600160a01b0302191690836001600160a01b031602179062000c2462002b64565b505050565b600060ce62000c3762002b17565b906101000a90046001600160a01b03166001600160a01b03165a62000c5b62002ac0565b6001600160a01b03161462000c985760405162461bcd60e51b815260040162000c8490620038a0565b6040518091039062000c9562002a53565b50505b62000ca38262001aaa565b1562000cd75760405162461bcd60e51b815260040162000cc39062003aeb565b6040518091039062000cd462002a53565b50505b6001600160a01b038216600090815260d86020526001906040902060018162000cff62002b17565b8160ff0219169083151502179062000d1662002b64565b50505062000d25828262002324565b816001600160a01b03167fd63c302652b86334fe4eb891e7a01e61e836496485d9394f2c95b4222006ae5060405160405180910390a25050565b62000d696200203d565b6001600160a01b03166000606562000d8062002b17565b906101000a90046001600160a01b03166001600160a01b03161462000dcd5760405162461bcd60e51b815260040162000db99062003a68565b6040518091039062000dca62002a53565b50505b620007a782826200234b565b600060605a63996d79a5598160e01b8152602081600483336000905af158601d01573d60011458600c01573d6000803e3d621234565260ea61109c528051925060005b604081101562000e355760008282015260200162000e1c565b50505088888560405160240162000e5094939291906200363b565b604051601f19818303018152604091909152630a3df85f60e11b6020820180516001600160e01b031690911790529050600062000e8f82600162000a7a565b905060605a63996d79a5598160e01b8152602081600483336000905af158601d01573d60011458600c01573d6000803e3d621234565260ea61109c528051925060005b604081101562000eeb5760008282015260200162000ed2565b5050508b89898560405160240162000f08959493929190620036bf565b604051601f19818303018152604091909152630ccb30c760e01b6020820180516001600160e01b031690911790529050600062000f4782600262000a7a565b9050826001600160a01b0316638e10153d826040518263ffffffff1660e01b815260040162000f77919062003627565b6020604051808303816000878062000f8e62002bb3565b15801562000fa65760008062000fa362002a53565b50505b505a62000fb262002c00565b50505050505015801562000fd5573d6000803e3d600062000fd262002a53565b50505b50505050604051601f3d908101601f1916820160405262000ffa919081019062003285565b508060cd806001816200100c62002b17565b0180826200101962002b64565b5050600092835260001901916020915020016001816200103862002b17565b816001600160a01b0302191690836001600160a01b03160217906200105c62002b64565b5050506001600160a01b038116600090815260d1602052600190604090206001816200108762002b17565b8160ff021916908315150217906200109e62002b64565b5050506001600160a01b038316600090815260d260205260019060409020600181620010c962002b17565b8160ff02191690831515021790620010e062002b64565b50505060dc620010ef62002b17565b6001600160a01b038216600090815260db6020526040902081906200111362002b64565b50505062001128818860d4620007a162002b17565b7f73a0638fe578fc759744633aa170a433061ca2cc1bb855d116c506e04a29901f818d8b8d8f5a6200115962002cf6565b8d60d46200116662002b17565b6040516200117c98979695949392919062003715565b60405180910390a19b9a5050505050505050505050565b60016000620011a162002b17565b906101000a900460ff1680620011bc5750620011bc620023e4565b80620011dc5750600080620011d062002b17565b906101000a900460ff16155b6200120f5760405162461bcd60e51b8152600401620011fb9062003a9d565b604051809103906200120c62002a53565b50505b60006001816200121e62002b17565b906101000a900460ff1615905080156200128d5760016000610100816200124462002b17565b8160ff021916908315150217906200125b62002b64565b50505060016000806101000a816200127262002b17565b8160ff021916908315150217906200128962002b64565b5050505b62001299868662002459565b620012a48462002463565b620012b4611388612710620024d6565b620012c2600a60646200234b565b620012d0620151806200252d565b620012de6224ea0062001a02565b620012eb6103e862001cf5565b620012f7600a6200256f565b6200130b6544484544474560d01b620021b2565b60005b83518160ff161015620013c357600160d86000868460ff16815181106200133157fe5b60200260200101516001600160a01b03166001600160a01b031681526020019081526020016000206001816200136662002b17565b8160ff021916908315150217906200137d62002b64565b505050620013ba848260ff16815181106200139457fe5b6020026020010151848360ff1681518110620013ac57fe5b602002602001015162002324565b6001016200130e565b508015620013f75760008061010081620013dc62002b17565b8160ff02191690831515021790620013f362002b64565b5050505b505050505050565b620014096200203d565b6001600160a01b0316600060656200142062002b17565b906101000a90046001600160a01b03166001600160a01b0316146200146d5760405162461bcd60e51b8152600401620014599062003a68565b604051809103906200146a62002a53565b50505b8160976001816200147d62002b17565b816001600160a01b0302191690836001600160a01b0316021790620014a162002b64565b50505080609860006101000a81620014b862002b17565b816001600160a01b0302191690836001600160a01b0316021790620014dc62002b64565b5050505050565b6001600160a01b038116600090815260cc60205280604081206000906200150962002b17565b6001600160a01b036101009290920a900416905080620015515760405162461bcd60e51b81526004016200153d9062003916565b604051809103906200154e62002a53565b50505b60008060cb6200156062002b17565b906101000a900460ff166200169957816001600160a01b031663feaf968c6040518163ffffffff1660e01b815260040160a0604051808303818680620015a562002bb3565b158015620015bd57600080620015ba62002a53565b50505b505a620015c962002d3d565b5050505050925050508015620015fe5750604051601f3d908101601f19168201604052620015fb919081019062003575565b60015b620016365760405162461bcd60e51b81526004016200161d9062003a24565b604051809103906200162e62002a53565b505062001699565b5a6200164162002cf6565b620016508362015f9062001f77565b1015620016855760405162461bcd60e51b8152600401620016719062003b19565b604051809103906200168262002a53565b50505b600084131562001693578395505b50505050505b60008111620016d05760405162461bcd60e51b8152600401620016bc9062003a24565b60405180910390620016cd62002a53565b50505b9392505050565b6000806065620007ea62002b17565b60008060d3620016f562002b17565b60d46200170162002b17565b915091509091565b60cd81816200171762002b17565b81106200172057fe5b90600052602060002001600091506200173862002b17565b906101000a90046001600160a01b031681565b620017556200203d565b6001600160a01b0316600060656200176c62002b17565b906101000a90046001600160a01b03166001600160a01b031614620017b95760405162461bcd60e51b8152600401620017a59062003a68565b60405180910390620017b662002a53565b50505b620009e98162002463565b60008060cf620017d362002b17565b60d06200170162002b17565b600060d962000a7562002b17565b620017f76200203d565b6001600160a01b0316600060656200180e62002b17565b906101000a90046001600160a01b03166001600160a01b0316146200185b5760405162461bcd60e51b8152600401620018479062003a68565b604051809103906200185862002a53565b50505b620009e9816200252d565b60d26020528060005260406000206000915062000ad562002b17565b600060ce6200189062002b17565b906101000a90046001600160a01b03166001600160a01b03165a620018b462002ac0565b6001600160a01b031614620018f15760405162461bcd60e51b8152600401620018dd90620038a0565b60405180910390620018ee62002a53565b50505b600060cb620018ff62002b17565b60ff6101009290920a900416156200193f5760405162461bcd60e51b81526004016200192b9062003b61565b604051809103906200193c62002a53565b50505b62001949620025b1565b565b6001600160a01b038116600090815260d160205280604081206000906200197162002b17565b906101000a900460ff1615156001151514620019b55760405162461bcd60e51b8152600401620019a19062003ba7565b60405180910390620019b262002a53565b50505b6001600160a01b038316600090815260d560205260409020620019d762002b17565b6001600160a01b038416600090815260d660205260409020620019f962002b17565b91509150915091565b62001a0c6200203d565b6001600160a01b03166000606562001a2362002b17565b906101000a90046001600160a01b03166001600160a01b03161462001a705760405162461bcd60e51b815260040162001a5c9062003a68565b6040518091039062001a6d62002a53565b50505b808060de62001a7e62002b64565b50505050565b60d56020528060005260406000209050620007cc62002b17565b60de620007cc62002b17565b6001600160a01b038116600090815260d86020526040812060009062001acf62002b17565b906101000a900460ff169050919050565b600060ce62001aee62002b17565b906101000a90046001600160a01b03166001600160a01b03165a62001b1262002ac0565b6001600160a01b03161462001b4f5760405162461bcd60e51b815260040162001b3b90620038a0565b6040518091039062001b4c62002a53565b50505b600060cb62001b5d62002b17565b906101000a900460ff161515600115151462001ba15760405162461bcd60e51b815260040162001b8d9062003983565b6040518091039062001b9e62002a53565b50505b62001949620025d8565b600060ce62001bb962002b17565b906101000a90046001600160a01b03166001600160a01b03165a62001bdd62002ac0565b6001600160a01b03161462001c1a5760405162461bcd60e51b815260040162001c0690620038a0565b6040518091039062001c1762002a53565b50505b62001c258162001aaa565b62001c585760405162461bcd60e51b815260040162001c4490620039cd565b6040518091039062001c5562002a53565b50505b6001600160a01b038116600090815260d86020526040812060018162001c7d62002b17565b8160ff0219169083151502179062001c9462002b64565b50505062001ca281620025e9565b806001600160a01b03167fe8b3c469b395bfd934168e4b7d14590c9cd1a6740533df170dbe3c219ff5a67460405160405180910390a250565b60d66020528060005260406000209050620007cc62002b17565b62001cff6200203d565b6001600160a01b03166000606562001d1662002b17565b906101000a90046001600160a01b03166001600160a01b03161462001d635760405162461bcd60e51b815260040162001d4f9062003a68565b6040518091039062001d6062002a53565b50505b808060dd62001a7e62002b64565b600060de62000a7562002b17565b60008160ff166001141562001db4576000609862001d9c62002b17565b906101000a90046001600160a01b0316905062000b28565b6000609762001d9c62002b17565b62001dcc6200203d565b6001600160a01b03166000606562001de362002b17565b906101000a90046001600160a01b03166001600160a01b03161462001e305760405162461bcd60e51b815260040162001e1c9062003a68565b6040518091039062001e2d62002a53565b50505b620009e9816200256f565b62001e456200203d565b6001600160a01b03166000606562001e5c62002b17565b906101000a90046001600160a01b03166001600160a01b03161462001ea95760405162461bcd60e51b815260040162001e959062003a68565b6040518091039062001ea662002a53565b50505b6001600160a01b03811662001ee65760405162461bcd60e51b815260040162001ed29062003823565b6040518091039062001ee362002a53565b50505b6001600160a01b0381166000606562001efe62002b17565b906101000a90046001600160a01b03166001600160a01b03167f8be0079c531659141344cd1fd0a4f28419497f9722a3daafe3b4186f6b6457e060405160405180910390a380606560018162001f5362002b17565b816001600160a01b0302191690836001600160a01b031602179062001a7e62002b64565b60008282018381101562000a885760405162461bcd60e51b8152600401620016bc9062003869565b80821115801562001fbb575060d362001fb762002b17565b8211155b62001fee5760405162461bcd60e51b815260040162001fda90620039fa565b6040518091039062001feb62002a53565b50505b6001600160a01b038316600090815260d560205282906040902081906200201462002b64565b5050506001600160a01b038316600090815260d66020528190604090208190620013f762002b64565b60005a62000a7562002ac0565b6001600160a01b038416620020875760405162461bcd60e51b815260040162002073906200395b565b604051809103906200208462002a53565b50505b81620020bb5760405162461bcd60e51b8152600401620020a790620038c2565b60405180910390620020b862002a53565b50505b606083838080601f01602080910402602001604051908101604052818152929190602084018383808284376000920182905250939450839250849150505160208401885a6200210962002e0c565b50505050508015600181146200211f5762002136565b3d806000803e8060006200213262002a53565b5050505b5050846001600160a01b03165a6200214d62002ac0565b6001600160a01b03167f78a9b536049c39a00adaf57016b1376c99dd48a0faf2cef23690232f21ce42cc60405160405180910390a36001600160a01b038516600090815260db6020528290604090208190620021a862002b64565b5050505050505050565b808060da62001a7e62002b64565b6001600160a01b038216600090815260df602052819060409020600181620014b862002b17565b600080620021f46200260e565b90507efffc2da0b561cae30d9826d37709e9421c4725faebc226cbbb7ef5fc5e73498160405162002226919062003627565b60405180910390a1806001600160a01b031663e74a474a5a63996d79a5598160e01b8152602081600483336000905af158601d01573d60011458600c01573d6000803e3d621234565260ea61109c528051925060005b604081101562002295576000828201526020016200227c565b50505086866040518463ffffffff1660e01b8152600401620022ba9392919062003782565b60006040518083038160008780620022d162002bb3565b158015620022e957600080620022e662002a53565b50505b505a620022f562002c00565b50505050505015801562002318573d6000803e3d60006200231562002a53565b50505b50929695505050505050565b6001600160a01b038216600090815260cc602052819060409020600181620014b862002b17565b80821115620023825760405162461bcd60e51b81526004016200236e90620039fa565b604051809103906200237f62002a53565b50505b818060cf6200239062002b64565b5050508060d08190620023a262002b64565b5050507fb10da2958bf5ec1bff3164ff753a09e0460ed44d3abf73e79b817b500ed0f2f18282604051620023d892919062003bde565b60405180910390a15050565b6000805a63996d79a5598160e01b8152602081600483336000905af158601d01573d60011458600c01573d6000803e3d621234565260ea61109c528051925060005b60408110156200243f5760008282015260200162002426565b50505090506000816200245162002bb3565b159250505090565b6200146d62002675565b8060ce6001816200247362002b17565b816001600160a01b0302191690836001600160a01b03160217906200249762002b64565b5050507ff1034ad6b4d45dc33a4142b9c51c2b7f89bf4a410696e426cc0f3224869e0aca81604051620024cb919062003627565b60405180910390a150565b808211156200250d5760405162461bcd60e51b8152600401620024f990620039fa565b604051809103906200250a62002a53565b50505b818060d36200251b62002b64565b5050508060d48190620014dc62002b64565b808060d76200253b62002b64565b5050507f20d916c976f3971e8200089411b0b712ef4612d98380b8ad2e3d8a8a376d85c781604051620024cb9190620037c6565b808060d96200257d62002b64565b5050507f0cd8fcb5e08d7632af461f0ad793e5c63dc0d7595c301f5880650175e37a874881604051620024cb9190620037c6565b600160cb8181620025c162002b17565b8160ff0219169083151502179062000c2462002b64565b600060cb600181620025c162002b17565b6001600160a01b038116600090815260cc6020526040812060018162001f5362002b17565b6000806060604051620026246020820162002e1e565b601f1982820381018352601f90910116604052905080516020820160006200264b62002e2c565b50509150816200265a62002bb3565b6200266f576000806200266c62002a53565b50505b50905090565b600160006200268362002b17565b906101000a900460ff16806200269e57506200269e620023e4565b80620026be5750600080620026b262002b17565b906101000a900460ff16155b620026f15760405162461bcd60e51b8152600401620026dd9062003a9d565b60405180910390620026ee62002a53565b50505b60006001816200270062002b17565b906101000a900460ff1615905080156200276f5760016000610100816200272662002b17565b8160ff021916908315150217906200273d62002b64565b50505060016000806101000a816200275462002b17565b8160ff021916908315150217906200276b62002b64565b5050505b62002779620027b2565b62002783620028c3565b8015620009e957600080610100816200279b62002b17565b8160ff0219169083151502179062001a7e62002b64565b60016000620027c062002b17565b906101000a900460ff1680620027db5750620027db620023e4565b80620027fb5750600080620027ef62002b17565b906101000a900460ff16155b6200282e5760405162461bcd60e51b81526004016200281a9062003a9d565b604051809103906200282b62002a53565b50505b60006001816200283d62002b17565b906101000a900460ff161590508015620027835760016000610100816200286362002b17565b8160ff021916908315150217906200287a62002b64565b50505060016000806101000a816200289162002b17565b8160ff02191690831515021790620028a862002b64565b5050508015620009e957600080610100816200279b62002b17565b60016000620028d162002b17565b906101000a900460ff1680620028ec5750620028ec620023e4565b806200290c57506000806200290062002b17565b906101000a900460ff16155b6200293f5760405162461bcd60e51b81526004016200292b9062003a9d565b604051809103906200293c62002a53565b50505b60006001816200294e62002b17565b906101000a900460ff161590508015620029bd5760016000610100816200297462002b17565b8160ff021916908315150217906200298b62002b64565b50505060016000806101000a81620029a262002b17565b8160ff02191690831515021790620029b962002b64565b5050505b6000620029c96200203d565b9050806065600181620029db62002b17565b816001600160a01b0302191690836001600160a01b0316021790620029ff62002b64565b5050506001600160a01b03811660007f8be0079c531659141344cd1fd0a4f28419497f9722a3daafe3b4186f6b6457e060405160405180910390a3508015620009e957600080610100816200279b62002b17565b632a2a7adb598160e01b8152600481016020815285602082015260005b8681101562002a8d57808601518282016040015260200162002a70565b506020828760640184336000905af158601d01573d60011458600c01573d6000803e3d621234565260ea61109c52505050565b6373509064598160e01b8152602081600483336000905af158601d01573d60011458600c01573d6000803e3d621234565260ea61109c528051935060005b604081101562000c245760008282015260200162002afe565b6303daa959598160e01b8152836004820152602081602483336000905af158601d01573d60011458600c01573d6000803e3d621234565260ea61109c528051600082529350602062002afe565b6322bd64c0598160e01b8152836004820152846024820152600081604483336000905af158601d01573d60011458600c01573d6000803e3d621234565260ea61109c5260008152602062002afe565b638435035b598160e01b8152836004820152602081602483336000905af158601d01573d60011458600c01573d6000803e3d621234565260ea61109c528051600082529350602062002afe565b6385979f76598160e01b815262002c34565b808083111562000a8b575090919050565b808083101562000a8b575090919050565b836004820152846024820152606060448201528760648201526084810160005b8981101562002c6e57808901518282015260200162002c54565b506060828a60a40184336000905af158601d01573d60011458600c01573d6000803e3d621234565260ea61109c52815160408301513d6000853e8c8c82606087013350600060045af1505962002cc58e3d62002c23565b8d0162002cd3818762002c12565b5b8281101562002cea576000815260200162002cd4565b50929d50505050505050565b63bdbf8c36598160e01b8152602081600483336000905af158601d01573d60011458600c01573d6000803e3d621234565260ea61109c528051600082529350602062002afe565b638540661f598160e01b81525b836004820152846024820152606060448201528660648201526084810160005b8881101562002d8457808801518282015260200162002d6a565b506060828960a40184336000905af158601d01573d60011458600c01573d6000803e3d621234565260ea61109c52815160408301513d6000853e8b8b82606087013350600060045af1505962002ddb8d3d62002c23565b8c0162002de9818762002c12565b5b8281101562002e00576000815260200162002dea565b50929c50505050505050565b63ffe73914598160e01b815262002d4a565b6107c18062003c8583390190565b6314aa2ff7598160e01b8152600481016020815286602082015260005b8781101562002e6657808701518282016040015260200162002e49565b506020828860640184336000905af158601d01573d60011458600c01573d6000803e3d621234565260ea61109c528151965059825b81811015620014dc576000815260200162002e9b565b80356001600160a01b038116811462000a8b5760008062002ed162002a53565b505092915050565b600082601f83011262002ef557808162002ef262002a53565b50505b813562002f0c62002f068262003c23565b62003bec565b81815291506020808301908481018184028601820187101562002f395760008062002f3662002a53565b50505b60005b8481101562002f645762002f51888362002eb1565b8452928201929082019060010162002f3c565b505050505092915050565b600082601f83011262002f8b57808162002f8862002a53565b50505b813562002f9c62002f068262003c23565b818152915060208083019084810160408085028701830188101562002fcb5760008062002fc862002a53565b50505b6000805b86811015620030325782848b03121562002ff257818262002fef62002a53565b50505b62002ffd8362003bec565b84356200300a8162003c4f565b8152848601356200301b8162003c6d565b818701528652948401949282019260010162002fcf565b5050505050505092915050565b803562000a8b8162003c6d565b600082601f830112620030685780816200306562002a53565b50505b813567ffffffffffffffff8111156200308a5781826200308762002a53565b50505b6200309f601f8201601f191660200162003bec565b9150808252836020828501011115620030c257600080620030bf62002a53565b50505b8060208401602084013760009082016020015292915050565b803560ff8116811462000a8b5760008062002ed162002a53565b60008151905069ffffffffffffffffffff8116811462000a8b5760008062002ed162002a53565b600060208284031215620031395780816200313662002a53565b50505b62000a88838362002eb1565b60008060408385031215620031635780816200316062002a53565b50505b6200316f848462002eb1565b915062003180846020850162002eb1565b90509250929050565b600080600080600060a08688031215620031ac578081620031a962002a53565b50505b620031b8878762002eb1565b9450620031c9876020880162002eb1565b9350620031da876040880162002eb1565b9250606086013567ffffffffffffffff8082111562003202578283620031ff62002a53565b50505b6200321089838a0162002ed9565b93506080880135915080821115620032315782836200322e62002a53565b50505b50620032408882890162002ed9565b9150509295509295909350565b600080604083850312156200326b5781826200326862002a53565b50505b62003277848462002eb1565b946020939093013593505050565b600060208284031215620032a25780816200329f62002a53565b50505b815162000a888162003c6d565b600080600080600080600060e0888a031215620032d5578182620032d262002a53565b50505b620032e189896200303f565b9650620032f28960208a0162002eb1565b9550604088013567ffffffffffffffff808211156200331a5783846200331762002a53565b50505b620033288b838c016200304c565b965060608a0135915080821115620033495783846200334662002a53565b50505b620033578b838c016200304c565b955060808a0135915080821115620033785783846200337562002a53565b50505b620033868b838c016200304c565b945060a08a0135935060c08a0135915080821115620033ae578283620033ab62002a53565b50505b50620033bd8a828b0162002f6f565b91505092959891949750929550565b600060208284031215620033e9578081620033e662002a53565b50505b5035919050565b600080604083850312156200340e5781826200340b62002a53565b50505b823567ffffffffffffffff811115620034305782836200342d62002a53565b50505b6200343e858286016200304c565b925050620031808460208501620030db565b600080604083850312156200346e5781826200346b62002a53565b50505b50508035926020909101359150565b60008060008060008060a08789031215620034a15783846200349e62002a53565b50505b86359550602087013594506040870135935060608701359250608087013567ffffffffffffffff80821115620034e0578384620034dd62002a53565b50505b818901915089601f830112620034ff578384620034fc62002a53565b50505b813581811115620035195784856200351662002a53565b50505b8a6020828501011115620035365784856200353362002a53565b50505b6020830194508093505050509295509295509295565b600060208284031215620035695780816200356662002a53565b50505b62000a888383620030db565b600080600080600060a08688031215620035985782836200359562002a53565b50505b620035a48787620030f5565b9450602086015193506040860151925060608601519150620035ca8760808801620030f5565b90509295509295909350565b60008151808452815b818110156200360057602080828601015186830190910152602001620035df565b81811115620036125782602083870101525b50601f01601f19169290920160200192915050565b6001600160a01b0391909116815260200190565b600060018060a01b0380871683526020818716818501526040608081860152620036696080860188620035d6565b85810360608701528087518083528885019285019150865b81811015620036ae5783518781511684528681015115158488015250928501929184019160010162003681565b50909b9a5050505050505050505050565b600060018060a01b038088168352861515602084015260a06040840152620036eb60a0840187620035d6565b8381036060850152620036ff8187620035d6565b9250508084166080840152509695505050505050565b6001600160a01b038981168252881515602083015261010060408301819052600091620037458483018b620035d6565b915083820360608501526200375b828a620035d6565b97166080840152505060a081019390935260c083019190915260e090910152949350505050565b6001600160a01b0384168152606060208201819052600090620037a890830185620035d6565b905060ff83166040830152949350505050565b901515815260200190565b90815260200190565b6020808252601290820152712737ba1030903837b7b61036b0b730b3b2b960711b604082015260600190565b6020808252600e908201526d696e76616c696420626f756e647360901b604082015260600190565b60208082526026908201527f4f776e61626c653a206e6577206f776e657220697320746865207a65726f206160408201526564647265737360d01b606082015260800190565b6020808252601b908201527f536166654d6174683a206164646974696f6e206f766572666c6f770000000000604082015260600190565b6020808252600890820152676f6e6c792064616f60c01b604082015260600190565b6020808252600c908201526b19185d184b5a5b9d985b1a5960a21b604082015260600190565b6020808252601490820152730dac2dcc2cecae440cccaca40e8dede40d0d2ced60631b604082015260600190565b60208082526025908201527f5072696365436f6e73756d657256333a2061676772656761746f72206e6f7420604082015264199bdd5b9960da1b606082015260800190565b6020808252600e908201526d1d185c99d95d0b5a5b9d985b1a5960921b604082015260600190565b6020808252602a908201527f5072696365436f6e73756d657256333a20636861696e6c696e6b20616c726561604082015269191e48195b98589b195960b21b606082015260800190565b602080825260139082015272185cdcd95d08191bd95cdb89dd08195e1a5cdd606a1b604082015260600190565b60208082526010908201526f34b73b30b634b210333930b1ba34b7b760811b604082015260600190565b60208082526024908201527f5072696365436f6e73756d657256333a207072696365206e6f7420617661696c60408201526361626c6560e01b606082015260800190565b6020808252818101527f4f776e61626c653a2063616c6c6572206973206e6f7420746865206f776e6572604082015260600190565b6020808252602e908201527f436f6e747261637420696e7374616e63652068617320616c726561647920626560408201526d195b881a5b9a5d1a585b1a5e995960921b606082015260800190565b602080825260149082015273617373657420616c72656164792065786973747360601b604082015260600190565b60208082526028908201527f5072696365436f6e73756d657256333a20636861696e6c696e6b20707269636560408201526708195e1c1a5c995960c21b606082015260800190565b60208082526026908201527f5072696365436f6e73756d657256333a20636861696e6c696e6b206e6f7420656040820152651b98589b195960d21b606082015260800190565b6020808252601e908201527f737570706c6965642061646472657373206973206e6f74206120706f6f6c0000604082015260600190565b918252602082015260400190565b6000604051905081810181811067ffffffffffffffff8211171562003c1b5760008062003c1862002a53565b50505b604052919050565b600067ffffffffffffffff82111562003c4557808162003c4262002a53565b50505b5060209081020190565b6001600160a01b0381168114620009e95760008062000c2462002a53565b8015158114620009e95760008062000c2462002a5356fe60806040523480156100195760008061001661001f565b50505b5061008a565b632a2a7adb598160e01b8152600481016020815285602082015260005b8681101561005757808601518282016040015260200161003c565b506020828760640184336000905af158601d01573d60011458600c01573d6000803e3d621234565260ea61109c52505050565b610728806100996000396000f3fe6080604052600436106100225760003560e01c8063e74a474a1461003957610031565b366100315761002f610117565b005b61002f610117565b61002f60048036036060811015610058576000806100556104ca565b50505b6001600160a01b03823516919081019060408101602082013564010000000081111561008c576000806100896104ca565b50505b8201836020820111156100a7576000806100a46104ca565b50505b803590602001918460018302840111640100000000831117156100d2576000806100cf6104ca565b50505b91908080601f01602080910402602001604051908101604052818152929190602084018383808284376000920191909152509295505050903560ff1691506101319050565b61011f61012f565b61012f61012a6102c3565b6103c4565b565b600061013b6102c3565b6001600160a01b03161461018e5760405162461bcd60e51b815260206004820152600d60248201526c496d706c206e6f74207a65726f60981b60448201526064016040518091039061018b6104ca565b50505b61019783610401565b6101a08161048e565b6000825111156102be5760006101b46102c3565b6001600160a01b0316836040518082805190602001908083835b602083106101ed5780518252601f1990920191602091820191016101ce565b6001836020036101000a038019825116818451168082178552505050505050905001915050600060405180830381855a610225610535565b50505050509150503d8060008114610259576040513d603f01601f191681016040523d815291503d6000602084013e61025e565b606091505b50509050806102bc5760405162461bcd60e51b815260206004820152601a60248201527f496d706c656d656e746174696f6e20696e6974206661696c65640000000000006044820152606401604051809103906102b96104ca565b50505b505b505050565b6000807f360894a13ba1a3210667c828492db98dca3e2076cc3735a920a3ca505d382bbc806102f0610622565b91506001600160a01b03821661030b576000925050506103c1565b816001600160a01b031663ecef89d561032261049d565b6040516001600160e01b031960e084901b16815260ff9091166004820152602401602060405180830381868061035661067d565b15801561036b576000806103686104ca565b50505b505a6103756106c9565b5050505050158015610394573d6000803e3d60006103916104ca565b50505b505050506040513d60208110156103b3576000806103b06104ca565b50505b810190808051955050505050505b90565b3660008037600080366000845a6103d9610535565b50505050503d6000803e8080156103ef573d6000f35b3d60006103fa6104ca565b5050505050565b61040a816104b5565b6104635760405162461bcd60e51b815260206004820181905260248201527f43616e6e6f742073657420696d706c656d656e746174696f6e20746f20454f416044820152606401604051809103906104606104ca565b50505b7f360894a13ba1a3210667c828492db98dca3e2076cc3735a920a3ca505d382bbc81816102bc6106da565b600160fc1b81816102bc6106da565b600080600160fc1b806104ae610622565b9250505090565b600080826104c161067d565b15159392505050565b632a2a7adb598160e01b8152600481016020815285602082015260005b868110156105025780860151828201604001526020016104e7565b506020828760640184336000905af158601d01573d60011458600c01573d6000803e3d621234565260ea61109c52505050565b63ffe73914598160e01b8152610568565b80808311156105525750815b92915050565b8080831015610552575090919050565b836004820152846024820152606060448201528660648201526084810160005b888110156105a0578088015182820152602001610588565b506060828960a40184336000905af158601d01573d60011458600c01573d6000803e3d621234565260ea61109c52815160408301513d6000853e8b8b82606087013350600060045af150596105f58d3d610558565b8c016106018187610546565b5b828110156106165760008152602001610602565b50929c50505050505050565b6303daa959598160e01b8152836004820152602081602483336000905af158601d01573d60011458600c01573d6000803e3d621234565260ea61109c528051935060005b60408110156102be57600082820152602001610666565b638435035b598160e01b8152836004820152602081602483336000905af158601d01573d60011458600c01573d6000803e3d621234565260ea61109c5280516000825293506020610666565b638540661f598160e01b8152610568565b6322bd64c0598160e01b8152836004820152846024820152600081604483336000905af158601d01573d60011458600c01573d6000803e3d621234565260ea61109c5260008152602061066656",
  "linkReferences": {},
  "deployedLinkReferences": {}
}