{
  "_format": "hh-sol-artifact-1",
  "contractName": "PoolFactory",
  "sourceName": "contracts/PoolFactory.sol",
  "abi": [
    {
      "anonymous": false,
      "inputs": [
        {
          "indexed": false,
          "internalType": "address",
          "name": "dao",
          "type": "address"
        }
      ],
      "name": "DaoAddressSet",
      "type": "event"
    },
    {
      "anonymous": false,
      "inputs": [
        {
          "indexed": false,
          "internalType": "uint256",
          "name": "numerator",
          "type": "uint256"
        },
        {
          "indexed": false,
          "internalType": "uint256",
          "name": "denominator",
          "type": "uint256"
        }
      ],
      "name": "DaoFeeSet",
      "type": "event"
    },
    {
      "anonymous": false,
      "inputs": [
        {
          "indexed": false,
          "internalType": "uint256",
          "name": "cooldown",
          "type": "uint256"
        }
      ],
      "name": "ExitCooldownSet",
      "type": "event"
    },
    {
      "anonymous": false,
      "inputs": [
        {
          "indexed": false,
          "internalType": "uint256",
          "name": "numerator",
          "type": "uint256"
        },
        {
          "indexed": false,
          "internalType": "uint256",
          "name": "denominator",
          "type": "uint256"
        }
      ],
      "name": "ExitFeeSet",
      "type": "event"
    },
    {
      "anonymous": false,
      "inputs": [
        {
          "indexed": false,
          "internalType": "address",
          "name": "fundAddress",
          "type": "address"
        },
        {
          "indexed": false,
          "internalType": "bool",
          "name": "isPoolPrivate",
          "type": "bool"
        },
        {
          "indexed": false,
          "internalType": "string",
          "name": "fundName",
          "type": "string"
        },
        {
          "indexed": false,
          "internalType": "string",
          "name": "managerName",
          "type": "string"
        },
        {
          "indexed": false,
          "internalType": "address",
          "name": "manager",
          "type": "address"
        },
        {
          "indexed": false,
          "internalType": "uint256",
          "name": "time",
          "type": "uint256"
        },
        {
          "indexed": false,
          "internalType": "uint256",
          "name": "managerFeeNumerator",
          "type": "uint256"
        },
        {
          "indexed": false,
          "internalType": "uint256",
          "name": "managerFeeDenominator",
          "type": "uint256"
        }
      ],
      "name": "FundCreated",
      "type": "event"
    },
    {
      "anonymous": false,
      "inputs": [
        {
          "indexed": true,
          "internalType": "address",
          "name": "manager",
          "type": "address"
        },
        {
          "indexed": true,
          "internalType": "address",
          "name": "pool",
          "type": "address"
        }
      ],
      "name": "LogUpgrade",
      "type": "event"
    },
    {
      "anonymous": false,
      "inputs": [
        {
          "indexed": false,
          "internalType": "uint256",
          "name": "count",
          "type": "uint256"
        }
      ],
      "name": "MaximumSupportedAssetCountSet",
      "type": "event"
    },
    {
      "anonymous": false,
      "inputs": [
        {
          "indexed": true,
          "internalType": "address",
          "name": "previousOwner",
          "type": "address"
        },
        {
          "indexed": true,
          "internalType": "address",
          "name": "newOwner",
          "type": "address"
        }
      ],
      "name": "OwnershipTransferred",
      "type": "event"
    },
    {
      "anonymous": false,
      "inputs": [
        {
          "indexed": false,
          "internalType": "address",
          "name": "account",
          "type": "address"
        }
      ],
      "name": "Paused",
      "type": "event"
    },
    {
      "anonymous": false,
      "inputs": [
        {
          "indexed": false,
          "internalType": "address",
          "name": "proxy",
          "type": "address"
        }
      ],
      "name": "ProxyCreated",
      "type": "event"
    },
    {
      "anonymous": false,
      "inputs": [
        {
          "indexed": false,
          "internalType": "address",
          "name": "account",
          "type": "address"
        }
      ],
      "name": "Unpaused",
      "type": "event"
    },
    {
      "inputs": [
        {
          "internalType": "bool",
          "name": "_privatePool",
          "type": "bool"
        },
        {
          "internalType": "address",
          "name": "_manager",
          "type": "address"
        },
        {
          "internalType": "string",
          "name": "_managerName",
          "type": "string"
        },
        {
          "internalType": "string",
          "name": "_fundName",
          "type": "string"
        },
        {
          "internalType": "string",
          "name": "_fundSymbol",
          "type": "string"
        },
        {
          "internalType": "uint256",
          "name": "_managerFeeNumerator",
          "type": "uint256"
        },
        {
          "components": [
            {
              "internalType": "address",
              "name": "asset",
              "type": "address"
            },
            {
              "internalType": "bool",
              "name": "isDeposit",
              "type": "bool"
            }
          ],
          "internalType": "struct IPoolManagerLogic.Asset[]",
          "name": "_supportedAssets",
          "type": "tuple[]"
        }
      ],
      "name": "createFund",
      "outputs": [
        {
          "internalType": "address",
          "name": "",
          "type": "address"
        }
      ],
      "stateMutability": "nonpayable",
      "type": "function"
    },
    {
      "inputs": [
        {
          "internalType": "bytes",
          "name": "_data",
          "type": "bytes"
        },
        {
          "internalType": "uint8",
          "name": "_proxyType",
          "type": "uint8"
        }
      ],
      "name": "deploy",
      "outputs": [
        {
          "internalType": "address",
          "name": "",
          "type": "address"
        }
      ],
      "stateMutability": "nonpayable",
      "type": "function"
    },
    {
      "inputs": [
        {
          "internalType": "uint256",
          "name": "",
          "type": "uint256"
        }
      ],
      "name": "deployedFunds",
      "outputs": [
        {
          "internalType": "address",
          "name": "",
          "type": "address"
        }
      ],
      "stateMutability": "view",
      "type": "function"
    },
    {
      "inputs": [],
      "name": "deployedFundsLength",
      "outputs": [
        {
          "internalType": "uint256",
          "name": "",
          "type": "uint256"
        }
      ],
      "stateMutability": "view",
      "type": "function"
    },
    {
      "inputs": [],
      "name": "getAssetHandler",
      "outputs": [
        {
          "internalType": "address",
          "name": "",
          "type": "address"
        }
      ],
      "stateMutability": "view",
      "type": "function"
    },
    {
      "inputs": [
        {
          "internalType": "address",
          "name": "asset",
          "type": "address"
        }
      ],
      "name": "getAssetPrice",
      "outputs": [
        {
          "internalType": "uint256",
          "name": "",
          "type": "uint256"
        }
      ],
      "stateMutability": "view",
      "type": "function"
    },
    {
      "inputs": [],
      "name": "getDaoAddress",
      "outputs": [
        {
          "internalType": "address",
          "name": "",
          "type": "address"
        }
      ],
      "stateMutability": "view",
      "type": "function"
    },
    {
      "inputs": [],
      "name": "getDaoFee",
      "outputs": [
        {
          "internalType": "uint256",
          "name": "",
          "type": "uint256"
        },
        {
          "internalType": "uint256",
          "name": "",
          "type": "uint256"
        }
      ],
      "stateMutability": "view",
      "type": "function"
    },
    {
      "inputs": [],
      "name": "getExitCooldown",
      "outputs": [
        {
          "internalType": "uint256",
          "name": "",
          "type": "uint256"
        }
      ],
      "stateMutability": "view",
      "type": "function"
    },
    {
      "inputs": [
        {
          "internalType": "address",
          "name": "extContract",
          "type": "address"
        }
      ],
      "name": "getGuard",
      "outputs": [
        {
          "internalType": "address",
          "name": "",
          "type": "address"
        }
      ],
      "stateMutability": "view",
      "type": "function"
    },
    {
      "inputs": [
        {
          "internalType": "uint8",
          "name": "_proxyType",
          "type": "uint8"
        }
      ],
      "name": "getLogic",
      "outputs": [
        {
          "internalType": "address",
          "name": "",
          "type": "address"
        }
      ],
      "stateMutability": "view",
      "type": "function"
    },
    {
      "inputs": [],
      "name": "getManagerFeeNumeratorChangeDelay",
      "outputs": [
        {
          "internalType": "uint256",
          "name": "",
          "type": "uint256"
        }
      ],
      "stateMutability": "view",
      "type": "function"
    },
    {
      "inputs": [],
      "name": "getMaximumManagerFee",
      "outputs": [
        {
          "internalType": "uint256",
          "name": "",
          "type": "uint256"
        },
        {
          "internalType": "uint256",
          "name": "",
          "type": "uint256"
        }
      ],
      "stateMutability": "view",
      "type": "function"
    },
    {
      "inputs": [],
      "name": "getMaximumManagerFeeNumeratorChange",
      "outputs": [
        {
          "internalType": "uint256",
          "name": "",
          "type": "uint256"
        }
      ],
      "stateMutability": "view",
      "type": "function"
    },
    {
      "inputs": [],
      "name": "getMaximumSupportedAssetCount",
      "outputs": [
        {
          "internalType": "uint256",
          "name": "",
          "type": "uint256"
        }
      ],
      "stateMutability": "view",
      "type": "function"
    },
    {
      "inputs": [
        {
          "internalType": "address",
          "name": "pool",
          "type": "address"
        }
      ],
      "name": "getPoolManagerFee",
      "outputs": [
        {
          "internalType": "uint256",
          "name": "",
          "type": "uint256"
        },
        {
          "internalType": "uint256",
          "name": "",
          "type": "uint256"
        }
      ],
      "stateMutability": "view",
      "type": "function"
    },
    {
      "inputs": [],
      "name": "getTrackingCode",
      "outputs": [
        {
          "internalType": "bytes32",
          "name": "",
          "type": "bytes32"
        }
      ],
      "stateMutability": "view",
      "type": "function"
    },
    {
      "inputs": [
        {
          "internalType": "address",
          "name": "_poolLogic",
          "type": "address"
        },
        {
          "internalType": "address",
          "name": "_managerLogic",
          "type": "address"
        },
        {
          "internalType": "address",
          "name": "assetHandler",
          "type": "address"
        },
        {
          "internalType": "address",
          "name": "daoAddress",
          "type": "address"
        }
      ],
      "name": "initialize",
      "outputs": [],
      "stateMutability": "nonpayable",
      "type": "function"
    },
    {
      "inputs": [],
      "name": "isPaused",
      "outputs": [
        {
          "internalType": "bool",
          "name": "",
          "type": "bool"
        }
      ],
      "stateMutability": "view",
      "type": "function"
    },
    {
      "inputs": [
        {
          "internalType": "address",
          "name": "",
          "type": "address"
        }
      ],
      "name": "isPool",
      "outputs": [
        {
          "internalType": "bool",
          "name": "",
          "type": "bool"
        }
      ],
      "stateMutability": "view",
      "type": "function"
    },
    {
      "inputs": [
        {
          "internalType": "address",
          "name": "",
          "type": "address"
        }
      ],
      "name": "isPoolManager",
      "outputs": [
        {
          "internalType": "bool",
          "name": "",
          "type": "bool"
        }
      ],
      "stateMutability": "view",
      "type": "function"
    },
    {
      "inputs": [
        {
          "internalType": "address",
          "name": "asset",
          "type": "address"
        }
      ],
      "name": "isValidAsset",
      "outputs": [
        {
          "internalType": "bool",
          "name": "",
          "type": "bool"
        }
      ],
      "stateMutability": "view",
      "type": "function"
    },
    {
      "inputs": [],
      "name": "managerFeeNumeratorChangeDelay",
      "outputs": [
        {
          "internalType": "uint256",
          "name": "",
          "type": "uint256"
        }
      ],
      "stateMutability": "view",
      "type": "function"
    },
    {
      "inputs": [],
      "name": "maximumManagerFeeNumeratorChange",
      "outputs": [
        {
          "internalType": "uint256",
          "name": "",
          "type": "uint256"
        }
      ],
      "stateMutability": "view",
      "type": "function"
    },
    {
      "inputs": [],
      "name": "owner",
      "outputs": [
        {
          "internalType": "address",
          "name": "",
          "type": "address"
        }
      ],
      "stateMutability": "view",
      "type": "function"
    },
    {
      "inputs": [],
      "name": "pause",
      "outputs": [],
      "stateMutability": "nonpayable",
      "type": "function"
    },
    {
      "inputs": [],
      "name": "paused",
      "outputs": [
        {
          "internalType": "bool",
          "name": "",
          "type": "bool"
        }
      ],
      "stateMutability": "view",
      "type": "function"
    },
    {
      "inputs": [
        {
          "internalType": "address",
          "name": "",
          "type": "address"
        }
      ],
      "name": "poolManagerFeeDenominator",
      "outputs": [
        {
          "internalType": "uint256",
          "name": "",
          "type": "uint256"
        }
      ],
      "stateMutability": "view",
      "type": "function"
    },
    {
      "inputs": [
        {
          "internalType": "address",
          "name": "",
          "type": "address"
        }
      ],
      "name": "poolManagerFeeNumerator",
      "outputs": [
        {
          "internalType": "uint256",
          "name": "",
          "type": "uint256"
        }
      ],
      "stateMutability": "view",
      "type": "function"
    },
    {
      "inputs": [],
      "name": "poolStorageVersion",
      "outputs": [
        {
          "internalType": "uint256",
          "name": "",
          "type": "uint256"
        }
      ],
      "stateMutability": "view",
      "type": "function"
    },
    {
      "inputs": [
        {
          "internalType": "address",
          "name": "",
          "type": "address"
        }
      ],
      "name": "poolVersion",
      "outputs": [
        {
          "internalType": "uint256",
          "name": "",
          "type": "uint256"
        }
      ],
      "stateMutability": "view",
      "type": "function"
    },
    {
      "inputs": [],
      "name": "renounceOwnership",
      "outputs": [],
      "stateMutability": "nonpayable",
      "type": "function"
    },
    {
      "inputs": [
        {
          "internalType": "uint8",
          "name": "assetType",
          "type": "uint8"
        },
        {
          "internalType": "address",
          "name": "guardAddress",
          "type": "address"
        }
      ],
      "name": "setAssetGuard",
      "outputs": [],
      "stateMutability": "nonpayable",
      "type": "function"
    },
    {
      "inputs": [
        {
          "internalType": "address",
          "name": "assetHandler",
          "type": "address"
        }
      ],
      "name": "setAssetHandler",
      "outputs": [],
      "stateMutability": "nonpayable",
      "type": "function"
    },
    {
      "inputs": [
        {
          "internalType": "address",
          "name": "daoAddress",
          "type": "address"
        }
      ],
      "name": "setDaoAddress",
      "outputs": [],
      "stateMutability": "nonpayable",
      "type": "function"
    },
    {
      "inputs": [
        {
          "internalType": "uint256",
          "name": "numerator",
          "type": "uint256"
        },
        {
          "internalType": "uint256",
          "name": "denominator",
          "type": "uint256"
        }
      ],
      "name": "setDaoFee",
      "outputs": [],
      "stateMutability": "nonpayable",
      "type": "function"
    },
    {
      "inputs": [
        {
          "internalType": "uint256",
          "name": "cooldown",
          "type": "uint256"
        }
      ],
      "name": "setExitCooldown",
      "outputs": [],
      "stateMutability": "nonpayable",
      "type": "function"
    },
    {
      "inputs": [
        {
          "internalType": "address",
          "name": "extContract",
          "type": "address"
        },
        {
          "internalType": "address",
          "name": "guardAddress",
          "type": "address"
        }
      ],
      "name": "setGuard",
      "outputs": [],
      "stateMutability": "nonpayable",
      "type": "function"
    },
    {
      "inputs": [
        {
          "internalType": "address",
          "name": "_poolLogic",
          "type": "address"
        },
        {
          "internalType": "address",
          "name": "_poolManagerLogic",
          "type": "address"
        }
      ],
      "name": "setLogic",
      "outputs": [],
      "stateMutability": "nonpayable",
      "type": "function"
    },
    {
      "inputs": [
        {
          "internalType": "uint256",
          "name": "delay",
          "type": "uint256"
        }
      ],
      "name": "setManagerFeeNumeratorChangeDelay",
      "outputs": [],
      "stateMutability": "nonpayable",
      "type": "function"
    },
    {
      "inputs": [
        {
          "internalType": "uint256",
          "name": "amount",
          "type": "uint256"
        }
      ],
      "name": "setMaximumManagerFeeNumeratorChange",
      "outputs": [],
      "stateMutability": "nonpayable",
      "type": "function"
    },
    {
      "inputs": [
        {
          "internalType": "uint256",
          "name": "count",
          "type": "uint256"
        }
      ],
      "name": "setMaximumSupportedAssetCount",
      "outputs": [],
      "stateMutability": "nonpayable",
      "type": "function"
    },
    {
      "inputs": [
        {
          "internalType": "address",
          "name": "pool",
          "type": "address"
        },
        {
          "internalType": "uint256",
          "name": "numerator",
          "type": "uint256"
        }
      ],
      "name": "setPoolManagerFeeNumerator",
      "outputs": [],
      "stateMutability": "nonpayable",
      "type": "function"
    },
    {
      "inputs": [
        {
          "internalType": "bytes32",
          "name": "code",
          "type": "bytes32"
        }
      ],
      "name": "setTrackingCode",
      "outputs": [],
      "stateMutability": "nonpayable",
      "type": "function"
    },
    {
      "inputs": [
        {
          "internalType": "address",
          "name": "newOwner",
          "type": "address"
        }
      ],
      "name": "transferOwnership",
      "outputs": [],
      "stateMutability": "nonpayable",
      "type": "function"
    },
    {
      "inputs": [],
      "name": "unpause",
      "outputs": [],
      "stateMutability": "nonpayable",
      "type": "function"
    },
    {
      "inputs": [
        {
          "internalType": "uint256",
          "name": "startIndex",
          "type": "uint256"
        },
        {
          "internalType": "uint256",
          "name": "endIndex",
          "type": "uint256"
        },
        {
          "internalType": "uint256",
          "name": "sourceVersion",
          "type": "uint256"
        },
        {
          "internalType": "uint256",
          "name": "targetVersion",
          "type": "uint256"
        },
        {
          "internalType": "bytes",
          "name": "data",
          "type": "bytes"
        }
      ],
      "name": "upgradePoolBatch",
      "outputs": [],
      "stateMutability": "nonpayable",
      "type": "function"
    }
  ],
  "bytecode": "0x608060405234801561001057600080fd5b506128d8806100206000396000f3fe608060405234801561001057600080fd5b50600436106102955760003560e01c80638da5cb5b11610167578063bee37e52116100ce578063e99c0fa611610087578063e99c0fa61461051f578063ebee461d14610532578063ecef89d51461053a578063eec16c441461054d578063f2fde38b14610560578063f8c8765e1461057357610295565b8063bee37e52146104b8578063bfeaf71d146104cb578063cc435bf3146104d3578063d0500590146104e6578063e5ac13a9146104f9578063e60eb4121461050c57610295565b8063aa7d664e11610120578063aa7d664e14610451578063b187bd2614610464578063b193a5f41461046c578063b3596f071461047f578063b7a5452614610492578063bcb01f44146104a557610295565b80638da5cb5b146103fd57806394d0d23b146104055780639a068bd61461041b5780639a3cac6a1461042e5780639cada6e414610441578063aa12ae4d1461044957610295565b806345812ca51161020b5780637027ea6c116101c45780637027ea6c146103a1578063715018a6146103b4578063771d1baf146103bc57806378a86e3a146103cf578063808ae5fb146103e25780638456cb59146103f557610295565b806345812ca51461034357806349f7c02d146103565780635556ee551461035e5780635b16ebb7146103715780635c975abb146103915780635c9bfc2b1461039957610295565b80631d68702d1161025d5780631d68702d146102f25780631e666d13146102fa5780631e8e8bca1461030d578063227773ee146103205780633f4ba83a146103335780634501b0881461033b57610295565b8063046b72c41461029a57806309ed4893146102af5780630bf99bd9146102cd5780630f6559c4146102e257806310bf69dc146102ea575b600080fd5b6102ad6102a8366004611cc4565b610586565b005b6102b761065a565b6040516102c49190611fa9565b60405180910390f35b6102d5610669565b6040516102c49190612136565b6102d561066f565b6102d5610676565b6102b761067d565b6102ad610308366004611e76565b61068c565b6102ad61031b366004611de0565b610767565b6102ad61032e366004611c31565b6107a8565b6102ad6107dc565b6102d5610810565b6102b7610351366004611df8565b610817565b6102d561082c565b6102d561036c366004611bf9565b610833565b61038461037f366004611bf9565b610846565b6040516102c4919061212b565b61038461085c565b6102d5610865565b6102b76103af366004611bf9565b61086c565b6102ad610945565b6102ad6103ca366004611e55565b6109c4565b6102b76103dd366004611d0b565b610a03565b6102ad6103f0366004611c31565b610c2a565b6102ad610c8d565b6102b7610cbf565b61040d610cce565b6040516102c49291906123ea565b6102b7610429366004611de0565b610cda565b6102ad61043c366004611bf9565b610d01565b61040d610d3f565b6102d5610d4b565b6102ad61045f366004611de0565b610d52565b610384610d90565b61038461047a366004611bf9565b610d9f565b6102d561048d366004611bf9565b610db5565b61040d6104a0366004611bf9565b610e36565b6102ad6104b3366004611de0565b610ea2565b6102d56104c6366004611bf9565b610edd565b6102d5610ef0565b6103846104e1366004611bf9565b610ef7565b6102ad6104f4366004611f41565b610f8d565b6102ad610507366004611bf9565b610fc1565b6102d561051a366004611bf9565b610fff565b6102ad61052d366004611de0565b611012565b6102d561104d565b6102b7610548366004611f09565b611054565b6102ad61055b366004611de0565b611086565b6102ad61056e366004611bf9565b6110c4565b6102ad610581366004611c69565b61117b565b336000908152610103602052604090205460ff1615156001146105c45760405162461bcd60e51b81526004016105bb9061213f565b60405180910390fd5b6001600160a01b0382166000908152610102602052604090205460ff1615156001146106025760405162461bcd60e51b81526004016105bb906123b3565b61010d546001600160a01b038316600090815261010660205260409020546106299161127f565b8111156106485760405162461bcd60e51b81526004016105bb90612286565b6106568282610105546112a4565b5050565b60ff546001600160a01b031690565b60fd5490565b61010c5481565b61010d5481565b60fe546001600160a01b031690565b6106946112fd565b6097546001600160a01b039081169116146106c15760405162461bcd60e51b81526004016105bb90612330565b8486111580156106d2575060fd5486105b80156106df575060fd5485105b6106fb5760405162461bcd60e51b81526004016105bb90612199565b855b85811161075e57600060fd828154811061071357fe5b60009182526020808320909101546001600160a01b031680835261010b90915260409091205490915086146107485750610756565b61075481858588611301565b505b6001016106fd565b50505050505050565b61076f6112fd565b6097546001600160a01b0390811691161461079c5760405162461bcd60e51b81526004016105bb90612330565b6107a581611400565b50565b60fe546001600160a01b031633146107d25760405162461bcd60e51b81526004016105bb9061223e565b6106568282611406565b60fe546001600160a01b031633146108065760405162461bcd60e51b81526004016105bb9061223e565b61080e611435565b565b6101085490565b600061082383836114a1565b90505b92915050565b61010a5490565b61010b6020526000908152604090205481565b6101026020526000908152604090205460ff1681565b60655460ff1690565b61010d5490565b600061087782610ef7565b156109225760ff5460405163032c49ed60e01b81526000916001600160a01b03169063032c49ed906108ad908690600401611fa9565b60206040518083038186803b1580156108c557600080fd5b505afa1580156108d9573d6000803e3d6000fd5b505050506040513d601f19601f820116820180604052508101906108fd9190611f25565b60ff16600090815261011060205260409020546001600160a01b031691506109409050565b506001600160a01b03808216600090815261010f6020526040902054165b919050565b61094d6112fd565b6097546001600160a01b0390811691161461097a5760405162461bcd60e51b81526004016105bb90612330565b6097546040516000916001600160a01b0316907f8be0079c531659141344cd1fd0a4f28419497f9722a3daafe3b4186f6b6457e0908390a3609780546001600160a01b0319169055565b6109cc6112fd565b6097546001600160a01b039081169116146109f95760405162461bcd60e51b81526004016105bb90612330565b610656828261154e565b6000606030888885604051602401610a1e9493929190611fbd565b60408051601f198184030181529190526020810180516001600160e01b0316630a3df85f60e11b17905290506000610a57826001610817565b90506060308b898985604051602401610a74959493929190612039565b60408051601f198184030181529190526020810180516001600160e01b0316630ccb30c760e01b17905290506000610aad826002610817565b604051638e10153d60e01b81529091506001600160a01b03841690638e10153d90610adc908490600401611fa9565b602060405180830381600087803b158015610af657600080fd5b505af1158015610b0a573d6000803e3d6000fd5b505050506040513d601f19601f82011682018060405250810190610b2e9190611cef565b5060fd805460018082019092557f9346ac6dd7de6b96975fec380d4d994c4c12e6a8897544f22915316cc6cca2800180546001600160a01b0319166001600160a01b03848116918217909255600081815261010260209081526040808320805460ff19908116881790915594891683526101038252808320805490951690951790935561010c5491815261010b9092529190205561010554610bd390829089906112a4565b7f73a0638fe578fc759744633aa170a433061ca2cc1bb855d116c506e04a29901f818d8b8d8f428d61010554604051610c1398979695949392919061208b565b60405180910390a19b9a5050505050505050505050565b610c326112fd565b6097546001600160a01b03908116911614610c5f5760405162461bcd60e51b81526004016105bb90612330565b60c980546001600160a01b039384166001600160a01b03199182161790915560ca8054929093169116179055565b60fe546001600160a01b03163314610cb75760405162461bcd60e51b81526004016105bb9061223e565b61080e6115b8565b6097546001600160a01b031690565b61010454610105549091565b60fd8181548110610ce757fe5b6000918252602090912001546001600160a01b0316905081565b610d096112fd565b6097546001600160a01b03908116911614610d365760405162461bcd60e51b81526004016105bb90612330565b6107a581611611565b61010054610101549091565b6101095490565b610d5a6112fd565b6097546001600160a01b03908116911614610d875760405162461bcd60e51b81526004016105bb90612330565b6107a581611667565b6000610d9a61085c565b905090565b6101036020526000908152604090205460ff1681565b60ff54604051638b2f0f4f60e01b81526000916001600160a01b031690638b2f0f4f90610de6908590600401611fa9565b60206040518083038186803b158015610dfe57600080fd5b505afa158015610e12573d6000803e3d6000fd5b505050506040513d601f19601f820116820180604052508101906108269190611e3d565b6001600160a01b03811660009081526101026020526040812054819060ff161515600114610e765760405162461bcd60e51b81526004016105bb906123b3565b50506001600160a01b031660009081526101066020908152604080832054610107909252909120549091565b610eaa6112fd565b6097546001600160a01b03908116911614610ed75760405162461bcd60e51b81526004016105bb90612330565b61010e55565b6101066020526000908152604090205481565b61010e5481565b60ff546040516314d216ab60e11b815260009182916001600160a01b03909116906329a42d5690610f2c908690600401611fa9565b60206040518083038186803b158015610f4457600080fd5b505afa158015610f58573d6000803e3d6000fd5b505050506040513d601f19601f82011682018060405250810190610f7c9190611c15565b6001600160a01b0316141592915050565b60fe546001600160a01b03163314610fb75760405162461bcd60e51b81526004016105bb9061223e565b610656828261169d565b610fc96112fd565b6097546001600160a01b03908116911614610ff65760405162461bcd60e51b81526004016105bb90612330565b6107a5816116d1565b6101076020526000908152604090205481565b61101a6112fd565b6097546001600160a01b039081169116146110475760405162461bcd60e51b81526004016105bb90612330565b61010d55565b61010e5490565b60008160ff1660011415611074575060ca546001600160a01b0316610940565b5060c9546001600160a01b0316610940565b61108e6112fd565b6097546001600160a01b039081169116146110bb5760405162461bcd60e51b81526004016105bb90612330565b6107a5816116f3565b6110cc6112fd565b6097546001600160a01b039081169116146110f95760405162461bcd60e51b81526004016105bb90612330565b6001600160a01b03811661111f5760405162461bcd60e51b81526004016105bb906121c1565b6097546040516001600160a01b038084169216907f8be0079c531659141344cd1fd0a4f28419497f9722a3daafe3b4186f6b6457e090600090a3609780546001600160a01b0319166001600160a01b0392909216919091179055565b600054610100900460ff16806111945750611194611729565b806111a2575060005460ff16155b6111be5760405162461bcd60e51b81526004016105bb90612365565b600054610100900460ff161580156111e9576000805460ff1961ff0019909116610100171660011790555b6111f3858561172f565b6111fb611737565b611204836116d1565b61120d82611611565b61121b6113886127106117c9565b611227600a606461154e565b61123362015180611667565b61123f6224ea00610ea2565b61124a6103e8611012565b611254600a6116f3565b6112666544484544474560d01b611400565b8015611278576000805461ff00191690555b5050505050565b6000828201838110156108235760405162461bcd60e51b81526004016105bb90612207565b8082111580156112b75750610104548211155b6112d35760405162461bcd60e51b81526004016105bb90612306565b6001600160a01b039092166000908152610106602090815260408083209390935561010790522055565b3390565b6001600160a01b0384166113275760405162461bcd60e51b81526004016105bb906122de565b816113445760405162461bcd60e51b81526004016105bb90612260565b606083838080601f016020809104026020016040519081016040528093929190818152602001838380828437600092018290525084519495509384935091505060208401885af480156001811461139a576113a5565b3d806000803e806000fd5b50506040516001600160a01b0386169033907f78a9b536049c39a00adaf57016b1376c99dd48a0faf2cef23690232f21ce42cc90600090a3506001600160a01b03909316600090815261010b60205260409020929092555050565b61010a55565b6001600160a01b03918216600090815261010f6020526040902080546001600160a01b03191691909216179055565b60655460ff166114575760405162461bcd60e51b81526004016105bb9061216b565b6065805460ff191690557f5db9ee0a495bf2e6ff9c91a7834c1ba4fdd244a5e8aa4e537bd38aeae4b073aa61148a6112fd565b6040516114979190611fa9565b60405180910390a1565b6000806114ac6117f6565b90507efffc2da0b561cae30d9826d37709e9421c4725faebc226cbbb7ef5fc5e7349816040516114dc9190611fa9565b60405180910390a16040516373a523a560e11b81526001600160a01b0382169063e74a474a90611514903090889088906004016120f4565b600060405180830381600087803b15801561152e57600080fd5b505af1158015611542573d6000803e3d6000fd5b50929695505050505050565b8082111561156e5760405162461bcd60e51b81526004016105bb90612306565b6101008290556101018190556040517fb10da2958bf5ec1bff3164ff753a09e0460ed44d3abf73e79b817b500ed0f2f1906115ac90849084906123ea565b60405180910390a15050565b60655460ff16156115db5760405162461bcd60e51b81526004016105bb906122b4565b6065805460ff191660011790557f62e78cea01bee320cd4e420270b5ea74000d11b0c9f74754ebdbfc544b05a25861148a6112fd565b60fe80546001600160a01b0319166001600160a01b0383161790556040517ff1034ad6b4d45dc33a4142b9c51c2b7f89bf4a410696e426cc0f3224869e0aca9061165c908390611fa9565b60405180910390a150565b6101088190556040517f20d916c976f3971e8200089411b0b712ef4612d98380b8ad2e3d8a8a376d85c79061165c908390612136565b60ff9190911660009081526101106020526040902080546001600160a01b0319166001600160a01b03909216919091179055565b60ff80546001600160a01b0319166001600160a01b0392909216919091179055565b6101098190556040517f0cd8fcb5e08d7632af461f0ad793e5c63dc0d7595c301f5880650175e37a87489061165c908390612136565b303b1590565b610c5f61183d565b600054610100900460ff16806117505750611750611729565b8061175e575060005460ff16155b61177a5760405162461bcd60e51b81526004016105bb90612365565b600054610100900460ff161580156117a5576000805460ff1961ff0019909116610100171660011790555b6117ad6118bb565b6117b561193c565b80156107a5576000805461ff001916905550565b808211156117e95760405162461bcd60e51b81526004016105bb90612306565b6101049190915561010555565b60008060606040518060200161180b90611aa2565b6020820181038252601f19601f8201166040525090508051602082016000f09150813b61183757600080fd5b50905090565b600054610100900460ff16806118565750611856611729565b80611864575060005460ff16155b6118805760405162461bcd60e51b81526004016105bb90612365565b600054610100900460ff161580156118ab576000805460ff1961ff0019909116610100171660011790555b6118b36118bb565b6117b56119c8565b600054610100900460ff16806118d457506118d4611729565b806118e2575060005460ff16155b6118fe5760405162461bcd60e51b81526004016105bb90612365565b600054610100900460ff161580156117b5576000805460ff1961ff00199091166101001716600117905580156107a5576000805461ff001916905550565b600054610100900460ff16806119555750611955611729565b80611963575060005460ff16155b61197f5760405162461bcd60e51b81526004016105bb90612365565b600054610100900460ff161580156119aa576000805460ff1961ff0019909116610100171660011790555b6065805460ff1916905580156107a5576000805461ff001916905550565b600054610100900460ff16806119e157506119e1611729565b806119ef575060005460ff16155b611a0b5760405162461bcd60e51b81526004016105bb90612365565b600054610100900460ff16158015611a36576000805460ff1961ff0019909116610100171660011790555b6000611a406112fd565b609780546001600160a01b0319166001600160a01b038316908117909155604051919250906000907f8be0079c531659141344cd1fd0a4f28419497f9722a3daafe3b4186f6b6457e0908290a35080156107a5576000805461ff001916905550565b6104518061245283390190565b80356108268161241f565b600082601f830112611aca578081fd5b813567ffffffffffffffff811115611ae0578182fd5b6020611aef81828402016123f8565b8281529250808301848201604080850287018401881015611b0f57600080fd5b60005b85811015611b3657611b248984611bb6565b84529284019291810191600101611b12565b50505050505092915050565b803561082681612434565b600082601f830112611b5d578081fd5b813567ffffffffffffffff811115611b73578182fd5b611b86601f8201601f19166020016123f8565b9150808252836020828501011115611b9d57600080fd5b8060208401602084013760009082016020015292915050565b600060408284031215611bc7578081fd5b611bd160406123f8565b90508135611bde8161241f565b81526020820135611bee81612434565b602082015292915050565b600060208284031215611c0a578081fd5b81356108238161241f565b600060208284031215611c26578081fd5b81516108238161241f565b60008060408385031215611c43578081fd5b8235611c4e8161241f565b91506020830135611c5e8161241f565b809150509250929050565b60008060008060808587031215611c7e578182fd5b8435611c898161241f565b93506020850135611c998161241f565b92506040850135611ca98161241f565b91506060850135611cb98161241f565b939692955090935050565b60008060408385031215611cd6578182fd5b8235611ce18161241f565b946020939093013593505050565b600060208284031215611d00578081fd5b815161082381612434565b600080600080600080600060e0888a031215611d25578283fd5b611d2f8989611b42565b9650611d3e8960208a01611aaf565b9550604088013567ffffffffffffffff80821115611d5a578485fd5b611d668b838c01611b4d565b965060608a0135915080821115611d7b578485fd5b611d878b838c01611b4d565b955060808a0135915080821115611d9c578485fd5b611da88b838c01611b4d565b945060a08a0135935060c08a0135915080821115611dc4578283fd5b50611dd18a828b01611aba565b91505092959891949750929550565b600060208284031215611df1578081fd5b5035919050565b60008060408385031215611e0a578182fd5b823567ffffffffffffffff811115611e20578283fd5b611e2c85828601611b4d565b9250506020830135611c5e81612442565b600060208284031215611e4e578081fd5b5051919050565b60008060408385031215611e67578182fd5b50508035926020909101359150565b60008060008060008060a08789031215611e8e578384fd5b86359550602087013594506040870135935060608701359250608087013567ffffffffffffffff80821115611ec1578384fd5b818901915089601f830112611ed4578384fd5b813581811115611ee2578485fd5b8a6020828501011115611ef3578485fd5b6020830194508093505050509295509295509295565b600060208284031215611f1a578081fd5b813561082381612442565b600060208284031215611f36578081fd5b815161082381612442565b60008060408385031215611f53578182fd5b8235611c4e81612442565b60008151808452815b81811015611f8357602081850181015186830182015201611f67565b81811115611f945782602083870101525b50601f01601f19169290920160200192915050565b6001600160a01b0391909116815260200190565b600060018060a01b0380871683526020818716818501526040608081860152611fe96080860188611f5e565b8581036060870152865180825283880191840190865b818110156120285783518051881684528601511515868401529285019291840191600101611fff565b50909b9a5050505050505050505050565b600060018060a01b038088168352861515602084015260a0604084015261206360a0840187611f5e565b83810360608501526120758187611f5e565b9250508084166080840152509695505050505050565b6001600160a01b0389811682528815156020830152610100604083018190526000916120b98483018b611f5e565b915083820360608501526120cd828a611f5e565b97166080840152505060a081019390935260c083019190915260e090910152949350505050565b6001600160a01b038416815260606020820181905260009061211890830185611f5e565b905060ff83166040830152949350505050565b901515815260200190565b90815260200190565b6020808252601290820152712737ba1030903837b7b61036b0b730b3b2b960711b604082015260600190565b60208082526014908201527314185d5cd8589b194e881b9bdd081c185d5cd95960621b604082015260600190565b6020808252600e908201526d696e76616c696420626f756e647360901b604082015260600190565b60208082526026908201527f4f776e61626c653a206e6577206f776e657220697320746865207a65726f206160408201526564647265737360d01b606082015260800190565b6020808252601b908201527f536166654d6174683a206164646974696f6e206f766572666c6f770000000000604082015260600190565b6020808252600890820152676f6e6c792064616f60c01b604082015260600190565b6020808252600c908201526b19185d184b5a5b9d985b1a5960a21b604082015260600190565b6020808252601490820152730dac2dcc2cecae440cccaca40e8dede40d0d2ced60631b604082015260600190565b60208082526010908201526f14185d5cd8589b194e881c185d5cd95960821b604082015260600190565b6020808252600e908201526d1d185c99d95d0b5a5b9d985b1a5960921b604082015260600190565b60208082526010908201526f34b73b30b634b210333930b1ba34b7b760811b604082015260600190565b6020808252818101527f4f776e61626c653a2063616c6c6572206973206e6f7420746865206f776e6572604082015260600190565b6020808252602e908201527f436f6e747261637420696e7374616e63652068617320616c726561647920626560408201526d195b881a5b9a5d1a585b1a5e995960921b606082015260800190565b6020808252601e908201527f737570706c6965642061646472657373206973206e6f74206120706f6f6c0000604082015260600190565b918252602082015260400190565b60405181810167ffffffffffffffff8111828210171561241757600080fd5b604052919050565b6001600160a01b03811681146107a557600080fd5b80151581146107a557600080fd5b60ff811681146107a557600080fdfe608060405234801561001057600080fd5b50610431806100206000396000f3fe6080604052600436106100225760003560e01c8063e74a474a1461003957610031565b366100315761002f6100f4565b005b61002f6100f4565b61002f6004803603606081101561004f57600080fd5b6001600160a01b03823516919081019060408101602082013564010000000081111561007a57600080fd5b82018360208201111561008c57600080fd5b803590602001918460018302840111640100000000831117156100ae57600080fd5b91908080601f0160208091040260200160405190810160405280939291908181526020018383808284376000920191909152509295505050903560ff16915061010e9050565b6100fc61010c565b61010c610107610281565b610342565b565b6000610118610281565b6001600160a01b031614610163576040805162461bcd60e51b815260206004820152600d60248201526c496d706c206e6f74207a65726f60981b604482015290519081900360640190fd5b61016c83610366565b610175816103e4565b81511561027c576000610186610281565b6001600160a01b0316836040518082805190602001908083835b602083106101bf5780518252601f1990920191602091820191016101a0565b6001836020036101000a038019825116818451168082178552505050505050905001915050600060405180830381855af49150503d806000811461021f576040519150601f19603f3d011682016040523d82523d6000602084013e610224565b606091505b505090508061027a576040805162461bcd60e51b815260206004820152601a60248201527f496d706c656d656e746174696f6e20696e6974206661696c6564000000000000604482015290519081900360640190fd5b505b505050565b7f360894a13ba1a3210667c828492db98dca3e2076cc3735a920a3ca505d382bbc80546000916001600160a01b0382166102c05760009250505061033f565b816001600160a01b031663ecef89d56102d76103ec565b6040518263ffffffff1660e01b8152600401808260ff16815260200191505060206040518083038186803b15801561030e57600080fd5b505afa158015610322573d6000803e3d6000fd5b505050506040513d602081101561033857600080fd5b5051925050505b90565b3660008037600080366000845af43d6000803e808015610361573d6000f35b3d6000fd5b61036f816103f5565b6103c0576040805162461bcd60e51b815260206004820181905260248201527f43616e6e6f742073657420696d706c656d656e746174696f6e20746f20454f41604482015290519081900360640190fd5b7f360894a13ba1a3210667c828492db98dca3e2076cc3735a920a3ca505d382bbc55565b600160fc1b55565b600160fc1b5490565b3b15159056fea26469706673582212203edeb1d03514e6e92a8a8c7ce24b883b17066854543b30f94278d7683f54284c64736f6c634300060c0033a26469706673582212207e5de8b01c09a653298d3999fb3c50de131101822656cef679a7fbbd422a9ee864736f6c634300060c0033",
  "linkReferences": {},
  "deployedLinkReferences": {}
}