{
  "_format": "hh-sol-artifact-1",
  "contractName": "PoolFactory-ovm",
  "sourceName": "contracts/PoolFactory.sol",
  "abi": [
    {
      "anonymous": false,
      "inputs": [
        {
          "indexed": true,
          "internalType": "address",
          "name": "asset",
          "type": "address"
        }
      ],
      "name": "AddedValidAsset",
      "type": "event"
    },
    {
      "anonymous": false,
      "inputs": [
        {
          "indexed": false,
          "internalType": "address",
          "name": "dao",
          "type": "address"
        }
      ],
      "name": "DaoAddressSet",
      "type": "event"
    },
    {
      "anonymous": false,
      "inputs": [
        {
          "indexed": false,
          "internalType": "uint256",
          "name": "numerator",
          "type": "uint256"
        },
        {
          "indexed": false,
          "internalType": "uint256",
          "name": "denominator",
          "type": "uint256"
        }
      ],
      "name": "DaoFeeSet",
      "type": "event"
    },
    {
      "anonymous": false,
      "inputs": [
        {
          "indexed": false,
          "internalType": "uint256",
          "name": "cooldown",
          "type": "uint256"
        }
      ],
      "name": "ExitCooldownSet",
      "type": "event"
    },
    {
      "anonymous": false,
      "inputs": [
        {
          "indexed": false,
          "internalType": "uint256",
          "name": "numerator",
          "type": "uint256"
        },
        {
          "indexed": false,
          "internalType": "uint256",
          "name": "denominator",
          "type": "uint256"
        }
      ],
      "name": "ExitFeeSet",
      "type": "event"
    },
    {
      "anonymous": false,
      "inputs": [
        {
          "indexed": false,
          "internalType": "address",
          "name": "fundAddress",
          "type": "address"
        },
        {
          "indexed": false,
          "internalType": "bool",
          "name": "isPoolPrivate",
          "type": "bool"
        },
        {
          "indexed": false,
          "internalType": "string",
          "name": "fundName",
          "type": "string"
        },
        {
          "indexed": false,
          "internalType": "string",
          "name": "managerName",
          "type": "string"
        },
        {
          "indexed": false,
          "internalType": "address",
          "name": "manager",
          "type": "address"
        },
        {
          "indexed": false,
          "internalType": "uint256",
          "name": "time",
          "type": "uint256"
        },
        {
          "indexed": false,
          "internalType": "uint256",
          "name": "managerFeeNumerator",
          "type": "uint256"
        },
        {
          "indexed": false,
          "internalType": "uint256",
          "name": "managerFeeDenominator",
          "type": "uint256"
        }
      ],
      "name": "FundCreated",
      "type": "event"
    },
    {
      "anonymous": false,
      "inputs": [
        {
          "indexed": true,
          "internalType": "address",
          "name": "manager",
          "type": "address"
        },
        {
          "indexed": true,
          "internalType": "address",
          "name": "pool",
          "type": "address"
        }
      ],
      "name": "LogUpgrade",
      "type": "event"
    },
    {
      "anonymous": false,
      "inputs": [
        {
          "indexed": false,
          "internalType": "uint256",
          "name": "count",
          "type": "uint256"
        }
      ],
      "name": "MaximumSupportedAssetCountSet",
      "type": "event"
    },
    {
      "anonymous": false,
      "inputs": [
        {
          "indexed": true,
          "internalType": "address",
          "name": "previousOwner",
          "type": "address"
        },
        {
          "indexed": true,
          "internalType": "address",
          "name": "newOwner",
          "type": "address"
        }
      ],
      "name": "OwnershipTransferred",
      "type": "event"
    },
    {
      "anonymous": false,
      "inputs": [
        {
          "indexed": false,
          "internalType": "address",
          "name": "proxy",
          "type": "address"
        }
      ],
      "name": "ProxyCreated",
      "type": "event"
    },
    {
      "anonymous": false,
      "inputs": [
        {
          "indexed": true,
          "internalType": "address",
          "name": "asset",
          "type": "address"
        }
      ],
      "name": "RemovedValidAsset",
      "type": "event"
    },
    {
      "inputs": [
        {
          "internalType": "address",
          "name": "asset",
          "type": "address"
        },
        {
          "internalType": "uint8",
          "name": "assetType",
          "type": "uint8"
        },
        {
          "internalType": "address",
          "name": "aggregator",
          "type": "address"
        }
      ],
      "name": "addValidAsset",
      "outputs": [],
      "stateMutability": "nonpayable",
      "type": "function"
    },
    {
      "inputs": [
        {
          "internalType": "bool",
          "name": "_privatePool",
          "type": "bool"
        },
        {
          "internalType": "address",
          "name": "_manager",
          "type": "address"
        },
        {
          "internalType": "string",
          "name": "_managerName",
          "type": "string"
        },
        {
          "internalType": "string",
          "name": "_fundName",
          "type": "string"
        },
        {
          "internalType": "string",
          "name": "_fundSymbol",
          "type": "string"
        },
        {
          "internalType": "uint256",
          "name": "_managerFeeNumerator",
          "type": "uint256"
        },
        {
          "internalType": "address[]",
          "name": "_supportedAssets",
          "type": "address[]"
        }
      ],
      "name": "createFund",
      "outputs": [
        {
          "internalType": "address",
          "name": "",
          "type": "address"
        }
      ],
      "stateMutability": "nonpayable",
      "type": "function"
    },
    {
      "inputs": [
        {
          "internalType": "bytes",
          "name": "_data",
          "type": "bytes"
        },
        {
          "internalType": "uint8",
          "name": "_proxyType",
          "type": "uint8"
        }
      ],
      "name": "deploy",
      "outputs": [
        {
          "internalType": "address",
          "name": "",
          "type": "address"
        }
      ],
      "stateMutability": "nonpayable",
      "type": "function"
    },
    {
      "inputs": [
        {
          "internalType": "uint256",
          "name": "",
          "type": "uint256"
        }
      ],
      "name": "deployedFunds",
      "outputs": [
        {
          "internalType": "address",
          "name": "",
          "type": "address"
        }
      ],
      "stateMutability": "view",
      "type": "function"
    },
    {
      "inputs": [],
      "name": "deployedFundsLength",
      "outputs": [
        {
          "internalType": "uint256",
          "name": "",
          "type": "uint256"
        }
      ],
      "stateMutability": "view",
      "type": "function"
    },
    {
      "inputs": [
        {
          "internalType": "address",
          "name": "asset",
          "type": "address"
        }
      ],
      "name": "getAssetPrice",
      "outputs": [
        {
          "internalType": "uint256",
          "name": "",
          "type": "uint256"
        }
      ],
      "stateMutability": "view",
      "type": "function"
    },
    {
      "inputs": [],
      "name": "getDaoAddress",
      "outputs": [
        {
          "internalType": "address",
          "name": "",
          "type": "address"
        }
      ],
      "stateMutability": "view",
      "type": "function"
    },
    {
      "inputs": [],
      "name": "getDaoFee",
      "outputs": [
        {
          "internalType": "uint256",
          "name": "",
          "type": "uint256"
        },
        {
          "internalType": "uint256",
          "name": "",
          "type": "uint256"
        }
      ],
      "stateMutability": "view",
      "type": "function"
    },
    {
      "inputs": [],
      "name": "getExitCooldown",
      "outputs": [
        {
          "internalType": "uint256",
          "name": "",
          "type": "uint256"
        }
      ],
      "stateMutability": "view",
      "type": "function"
    },
    {
      "inputs": [
        {
          "internalType": "address",
          "name": "extContract",
          "type": "address"
        }
      ],
      "name": "getGuard",
      "outputs": [
        {
          "internalType": "address",
          "name": "",
          "type": "address"
        }
      ],
      "stateMutability": "view",
      "type": "function"
    },
    {
      "inputs": [
        {
          "internalType": "uint8",
          "name": "_proxyType",
          "type": "uint8"
        }
      ],
      "name": "getLogic",
      "outputs": [
        {
          "internalType": "address",
          "name": "",
          "type": "address"
        }
      ],
      "stateMutability": "view",
      "type": "function"
    },
    {
      "inputs": [],
      "name": "getManagerFeeNumeratorChangeDelay",
      "outputs": [
        {
          "internalType": "uint256",
          "name": "",
          "type": "uint256"
        }
      ],
      "stateMutability": "view",
      "type": "function"
    },
    {
      "inputs": [],
      "name": "getMaximumManagerFee",
      "outputs": [
        {
          "internalType": "uint256",
          "name": "",
          "type": "uint256"
        },
        {
          "internalType": "uint256",
          "name": "",
          "type": "uint256"
        }
      ],
      "stateMutability": "view",
      "type": "function"
    },
    {
      "inputs": [],
      "name": "getMaximumManagerFeeNumeratorChange",
      "outputs": [
        {
          "internalType": "uint256",
          "name": "",
          "type": "uint256"
        }
      ],
      "stateMutability": "view",
      "type": "function"
    },
    {
      "inputs": [],
      "name": "getMaximumSupportedAssetCount",
      "outputs": [
        {
          "internalType": "uint256",
          "name": "",
          "type": "uint256"
        }
      ],
      "stateMutability": "view",
      "type": "function"
    },
    {
      "inputs": [
        {
          "internalType": "address",
          "name": "pool",
          "type": "address"
        }
      ],
      "name": "getPoolManagerFee",
      "outputs": [
        {
          "internalType": "uint256",
          "name": "",
          "type": "uint256"
        },
        {
          "internalType": "uint256",
          "name": "",
          "type": "uint256"
        }
      ],
      "stateMutability": "view",
      "type": "function"
    },
    {
      "inputs": [],
      "name": "getPriceConsumer",
      "outputs": [
        {
          "internalType": "address",
          "name": "",
          "type": "address"
        }
      ],
      "stateMutability": "view",
      "type": "function"
    },
    {
      "inputs": [],
      "name": "getTrackingCode",
      "outputs": [
        {
          "internalType": "bytes32",
          "name": "",
          "type": "bytes32"
        }
      ],
      "stateMutability": "view",
      "type": "function"
    },
    {
      "inputs": [
        {
          "internalType": "address",
          "name": "_poolLogic",
          "type": "address"
        },
        {
          "internalType": "address",
          "name": "_managerLogic",
          "type": "address"
        },
        {
          "internalType": "address",
          "name": "priceConsumer",
          "type": "address"
        },
        {
          "internalType": "address",
          "name": "daoAddress",
          "type": "address"
        }
      ],
      "name": "initialize",
      "outputs": [],
      "stateMutability": "nonpayable",
      "type": "function"
    },
    {
      "inputs": [
        {
          "internalType": "address",
          "name": "",
          "type": "address"
        }
      ],
      "name": "isPool",
      "outputs": [
        {
          "internalType": "bool",
          "name": "",
          "type": "bool"
        }
      ],
      "stateMutability": "view",
      "type": "function"
    },
    {
      "inputs": [
        {
          "internalType": "address",
          "name": "",
          "type": "address"
        }
      ],
      "name": "isPoolManager",
      "outputs": [
        {
          "internalType": "bool",
          "name": "",
          "type": "bool"
        }
      ],
      "stateMutability": "view",
      "type": "function"
    },
    {
      "inputs": [
        {
          "internalType": "address",
          "name": "asset",
          "type": "address"
        }
      ],
      "name": "isValidAsset",
      "outputs": [
        {
          "internalType": "bool",
          "name": "",
          "type": "bool"
        }
      ],
      "stateMutability": "view",
      "type": "function"
    },
    {
      "inputs": [],
      "name": "managerFeeNumeratorChangeDelay",
      "outputs": [
        {
          "internalType": "uint256",
          "name": "",
          "type": "uint256"
        }
      ],
      "stateMutability": "view",
      "type": "function"
    },
    {
      "inputs": [],
      "name": "maximumManagerFeeNumeratorChange",
      "outputs": [
        {
          "internalType": "uint256",
          "name": "",
          "type": "uint256"
        }
      ],
      "stateMutability": "view",
      "type": "function"
    },
    {
      "inputs": [],
      "name": "owner",
      "outputs": [
        {
          "internalType": "address",
          "name": "",
          "type": "address"
        }
      ],
      "stateMutability": "view",
      "type": "function"
    },
    {
      "inputs": [
        {
          "internalType": "address",
          "name": "",
          "type": "address"
        }
      ],
      "name": "poolManagerFeeDenominator",
      "outputs": [
        {
          "internalType": "uint256",
          "name": "",
          "type": "uint256"
        }
      ],
      "stateMutability": "view",
      "type": "function"
    },
    {
      "inputs": [
        {
          "internalType": "address",
          "name": "",
          "type": "address"
        }
      ],
      "name": "poolManagerFeeNumerator",
      "outputs": [
        {
          "internalType": "uint256",
          "name": "",
          "type": "uint256"
        }
      ],
      "stateMutability": "view",
      "type": "function"
    },
    {
      "inputs": [],
      "name": "poolStorageVersion",
      "outputs": [
        {
          "internalType": "uint256",
          "name": "",
          "type": "uint256"
        }
      ],
      "stateMutability": "view",
      "type": "function"
    },
    {
      "inputs": [
        {
          "internalType": "address",
          "name": "",
          "type": "address"
        }
      ],
      "name": "poolVersion",
      "outputs": [
        {
          "internalType": "uint256",
          "name": "",
          "type": "uint256"
        }
      ],
      "stateMutability": "view",
      "type": "function"
    },
    {
      "inputs": [
        {
          "internalType": "address",
          "name": "asset",
          "type": "address"
        }
      ],
      "name": "removeValidAsset",
      "outputs": [],
      "stateMutability": "nonpayable",
      "type": "function"
    },
    {
      "inputs": [],
      "name": "renounceOwnership",
      "outputs": [],
      "stateMutability": "nonpayable",
      "type": "function"
    },
    {
      "inputs": [
        {
          "internalType": "address",
          "name": "daoAddress",
          "type": "address"
        }
      ],
      "name": "setDaoAddress",
      "outputs": [],
      "stateMutability": "nonpayable",
      "type": "function"
    },
    {
      "inputs": [
        {
          "internalType": "uint256",
          "name": "numerator",
          "type": "uint256"
        },
        {
          "internalType": "uint256",
          "name": "denominator",
          "type": "uint256"
        }
      ],
      "name": "setDaoFee",
      "outputs": [],
      "stateMutability": "nonpayable",
      "type": "function"
    },
    {
      "inputs": [
        {
          "internalType": "uint256",
          "name": "cooldown",
          "type": "uint256"
        }
      ],
      "name": "setExitCooldown",
      "outputs": [],
      "stateMutability": "nonpayable",
      "type": "function"
    },
    {
      "inputs": [
        {
          "internalType": "address",
          "name": "extContract",
          "type": "address"
        },
        {
          "internalType": "address",
          "name": "guardAddress",
          "type": "address"
        }
      ],
      "name": "setGuard",
      "outputs": [],
      "stateMutability": "nonpayable",
      "type": "function"
    },
    {
      "inputs": [
        {
          "internalType": "address",
          "name": "_poolLogic",
          "type": "address"
        },
        {
          "internalType": "address",
          "name": "_poolManagerLogic",
          "type": "address"
        }
      ],
      "name": "setLogic",
      "outputs": [],
      "stateMutability": "nonpayable",
      "type": "function"
    },
    {
      "inputs": [
        {
          "internalType": "uint256",
          "name": "delay",
          "type": "uint256"
        }
      ],
      "name": "setManagerFeeNumeratorChangeDelay",
      "outputs": [],
      "stateMutability": "nonpayable",
      "type": "function"
    },
    {
      "inputs": [
        {
          "internalType": "uint256",
          "name": "amount",
          "type": "uint256"
        }
      ],
      "name": "setMaximumManagerFeeNumeratorChange",
      "outputs": [],
      "stateMutability": "nonpayable",
      "type": "function"
    },
    {
      "inputs": [
        {
          "internalType": "uint256",
          "name": "count",
          "type": "uint256"
        }
      ],
      "name": "setMaximumSupportedAssetCount",
      "outputs": [],
      "stateMutability": "nonpayable",
      "type": "function"
    },
    {
      "inputs": [
        {
          "internalType": "address",
          "name": "pool",
          "type": "address"
        },
        {
          "internalType": "uint256",
          "name": "numerator",
          "type": "uint256"
        }
      ],
      "name": "setPoolManagerFeeNumerator",
      "outputs": [],
      "stateMutability": "nonpayable",
      "type": "function"
    },
    {
      "inputs": [
        {
          "internalType": "address",
          "name": "priceConsumer",
          "type": "address"
        }
      ],
      "name": "setPriceConsumer",
      "outputs": [],
      "stateMutability": "nonpayable",
      "type": "function"
    },
    {
      "inputs": [
        {
          "internalType": "bytes32",
          "name": "code",
          "type": "bytes32"
        }
      ],
      "name": "setTrackingCode",
      "outputs": [],
      "stateMutability": "nonpayable",
      "type": "function"
    },
    {
      "inputs": [
        {
          "internalType": "address",
          "name": "newOwner",
          "type": "address"
        }
      ],
      "name": "transferOwnership",
      "outputs": [],
      "stateMutability": "nonpayable",
      "type": "function"
    },
    {
      "inputs": [
        {
          "internalType": "uint256",
          "name": "startIndex",
          "type": "uint256"
        },
        {
          "internalType": "uint256",
          "name": "endIndex",
          "type": "uint256"
        },
        {
          "internalType": "uint256",
          "name": "sourceVersion",
          "type": "uint256"
        },
        {
          "internalType": "uint256",
          "name": "targetVersion",
          "type": "uint256"
        },
        {
          "internalType": "bytes",
          "name": "data",
          "type": "bytes"
        }
      ],
      "name": "upgradePoolBatch",
      "outputs": [],
      "stateMutability": "nonpayable",
      "type": "function"
    }
  ],
  "bytecode": "0x60806040523480156200001c576000806200001962000023565b50505b5062000090565b632a2a7adb598160e01b8152600481016020815285602082015260005b868110156200005d57808601518282016040015260200162000040565b506020828760640184336000905af158600e01573d6000803e3d6000fd5b3d6001141558600a015760016000f35b505050565b6142a280620000a06000396000f3fe60806040523480156200001c57600080620000196200360f565b50505b5060043610620002bb5760003560e01c80639a068bd6116200017c578063c4a2267711620000e0578063e99c0fa6116200009e578063e99c0fa61462000c75578063ebee461d1462000ca0578063ecef89d51462000caa578063eec16c441462000cd8578063f2fde38b1462000d03578063f8c8765e1462000d3757620002bb565b8063c4a226771462000b88578063cc435bf31462000bcf578063ce26e9ef1462000c03578063dc76d2541462000c0d578063e60eb4121462000c4157620002bb565b8063b193a5f4116200013a578063b193a5f41462000a83578063b3596f071462000ab7578063b7a545261462000aeb578063bcb01f441462000b1f578063bee37e521462000b4a578063bfeaf71d1462000b7e57620002bb565b80639a068bd614620009e55780639a3cac6a1462000a105780639cada6e41462000a44578063aa12ae4d1462000a4e578063aa7d664e1462000a5857620002bb565b806349f7c02d1162000224578063715018a611620001e2578063715018a6146200090e578063771d1baf1462000918578063808ae5fb146200094957806386e76f7314620009855780638da5cb5b14620009b957806394d0d23b14620009c357620002bb565b806349f7c02d146200084a5780635556ee5514620008545780635b16ebb714620008885780635c9bfc2b14620008d05780637027ea6c14620008da57620002bb565b80631e666d13116200027e5780631e666d13146200035d5780631e8e8bca1462000415578063227773ee1462000440578063391d348b146200047c5780634501b088146200076657806345812ca5146200077057620002bb565b8063046b72c414620002cb5780630bf99bd914620003075780630f6559c4146200032357806310bf69dc146200032d5780631d68702d1462000337575b600080620002c86200360f565b50505b6200030560048036036040811015620002ee57600080620002eb6200360f565b50505b506001600160a01b03813516906020013562000d83565b005b6200031162000f5e565b60405190815260200160405180910390f35b6200031162000f73565b6200031162000f82565b6200034162000f8e565b6040516001600160a01b03909116815260200160405180910390f35b62000305600480360360a081101562000380576000806200037d6200360f565b50505b81359160208101359160408201359160608101359181019060a081016080820135600160201b811115620003be57600080620003bb6200360f565b50505b820183602082011115620003dc57600080620003d96200360f565b50505b803590602001918460018302840111600160201b831117156200040957600080620004066200360f565b50505b50909250905062000fb2565b62000305600480360360208110156200043857600080620004356200360f565b50505b503562001155565b62000305600480360360408110156200046357600080620004606200360f565b50505b506001600160a01b0381358116916020013516620011e9565b62000341600480360360e08110156200049f576000806200049c6200360f565b50505b81351515916001600160a01b0360208201351691810190606081016040820135600160201b811115620004dc57600080620004d96200360f565b50505b820183602082011115620004fa57600080620004f76200360f565b50505b803590602001918460018302840111600160201b831117156200052757600080620005246200360f565b50505b91908080601f01602080910402602001604051908101604052818152929190602084018383808284376000920191909152509295949360208101935035915050600160201b8111156200058457600080620005816200360f565b50505b820183602082011115620005a2576000806200059f6200360f565b50505b803590602001918460018302840111600160201b83111715620005cf57600080620005cc6200360f565b50505b91908080601f01602080910402602001604051908101604052818152929190602084018383808284376000920191909152509295949360208101935035915050600160201b8111156200062c57600080620006296200360f565b50505b8201836020820111156200064a57600080620006476200360f565b50505b803590602001918460018302840111600160201b831117156200067757600080620006746200360f565b50505b91908080601f016020809104026020016040519081016040528181529291906020840183838082843760009201919091525092958435959094909350604081019250602001359050600160201b811115620006dc57600080620006d96200360f565b50505b820183602082011115620006fa57600080620006f76200360f565b50505b803590602001918460208302840111600160201b831117156200072757600080620007246200360f565b50505b91908080602002602001604051908101604052809392919081815260200183836020028082843760009201919091525092955062001278945050505050565b6200031162001841565b62000341600480360360408110156200079357600080620007906200360f565b50505b810190602081018135600160201b811115620007b957600080620007b66200360f565b50505b820183602082011115620007d757600080620007d46200360f565b50505b803590602001918460018302840111600160201b831117156200080457600080620008016200360f565b50505b91908080601f01602080910402602001604051908101604052818152929190602084018383808284376000920191909152509295505050903560ff169150620018549050565b620003116200186b565b62000311600480360360208110156200087757600080620008746200360f565b50505b50356001600160a01b031662001879565b620008bc60048036036020811015620008ab57600080620008a86200360f565b50505b50356001600160a01b031662001893565b604051901515815260200160405180910390f35b62000311620018bc565b6200034160048036036020811015620008fd57600080620008fa6200360f565b50505b50356001600160a01b0316620018ca565b6200030562001907565b62000305600480360360408110156200093b57600080620009386200360f565b50505b508035906020013562001a1b565b62000305600480360360408110156200096c57600080620009696200360f565b50505b506001600160a01b038135811691602001351662001aad565b6200030560048036036020811015620009a857600080620009a56200360f565b50505b50356001600160a01b031662001ba9565b6200034162001c3a565b620009cd62001c49565b60405191825260208201526040908101905180910390f35b620003416004803603602081101562000a085760008062000a056200360f565b50505b503562001c6c565b620003056004803603602081101562000a335760008062000a306200360f565b50505b50356001600160a01b031662001cae565b620009cd62001d3f565b6200031162001d5a565b620003056004803603602081101562000a7b5760008062000a786200360f565b50505b503562001d68565b620008bc6004803603602081101562000aa65760008062000aa36200360f565b50505b50356001600160a01b031662001df9565b620003116004803603602081101562000ada5760008062000ad76200360f565b50505b50356001600160a01b031662001e15565b620009cd6004803603602081101562000b0e5760008062000b0b6200360f565b50505b50356001600160a01b031662001ef6565b620003056004803603602081101562000b425760008062000b3f6200360f565b50505b503562001fd6565b620003116004803603602081101562000b6d5760008062000b6a6200360f565b50505b50356001600160a01b031662002070565b620003116200208a565b620003056004803603606081101562000bab5760008062000ba86200360f565b50505b506001600160a01b03813581169160ff602082013516916040909101351662002096565b620008bc6004803603602081101562000bf25760008062000bef6200360f565b50505b50356001600160a01b03166200227d565b620003416200236d565b620003056004803603602081101562000c305760008062000c2d6200360f565b50505b50356001600160a01b03166200237c565b620003116004803603602081101562000c645760008062000c616200360f565b50505b50356001600160a01b03166200254b565b620003056004803603602081101562000c985760008062000c956200360f565b50505b503562002565565b62000311620025f9565b620003416004803603602081101562000ccd5760008062000cca6200360f565b50505b503560ff1662002607565b620003056004803603602081101562000cfb5760008062000cf86200360f565b50505b50356200264a565b620003056004803603602081101562000d265760008062000d236200360f565b50505b50356001600160a01b0316620026db565b620003056004803603608081101562000d5a5760008062000d576200360f565b50505b506001600160a01b03813581169160208101358216916040820135811691606001351662002844565b60d160005a62000d926200367c565b6001600160a01b03166001600160a01b0316815260200190815260200160002060009062000dbf620036d3565b906101000a900460ff161515600115151462000e215760405162461bcd60e51b81526020600482015260126024820152712737ba1030903837b7b61036b0b730b3b2b960711b60448201526064016040518091039062000e1e6200360f565b50505b6001600160a01b038216600090815260d06020526040902060009062000e46620036d3565b906101000a900460ff161515600115151462000eb35760405162461bcd60e51b815260206004820152601e60248201527f737570706c6965642061646472657373206973206e6f74206120706f6f6c000060448201526064016040518091039062000eb06200360f565b50505b62000eec60db62000ec3620036d3565b6001600160a01b038416600090815260d46020526040902062000ee5620036d3565b9062002a15565b81111562000f425760405162461bcd60e51b81526020600482015260146024820152730dac2dcc2cecae440cccaca40e8dede40d0d2ced60631b60448201526064016040518091039062000f3f6200360f565b50505b62000f5a828260d362000f54620036d3565b62002a80565b5050565b600060cb8062000f6d620036d3565b91505090565b60da62000f7f620036d3565b81565b60db62000f7f620036d3565b60008060cc62000f9d620036d3565b906101000a90046001600160a01b0316905090565b62000fbc62002b42565b6001600160a01b03166000606562000fd3620036d3565b906101000a90046001600160a01b03166001600160a01b031614620010385760405162461bcd60e51b8152602060048201819052602482015260008051602062004254833981519152604482015260640160405180910390620010356200360f565b50505b84861115801562001056575060cb8062001051620036d3565b905086105b801562001070575060cb806200106b620036d3565b905085105b620010bd5760405162461bcd60e51b815260206004820152600e60248201526d696e76616c696420626f756e647360901b604482015260640160405180910390620010ba6200360f565b50505b855b8581116200114c57600060cb8281620010d7620036d3565b8110620010e057fe5b90600052602060002001600090620010f7620036d3565b6001600160a01b036101009290920a900416600081815260d960205290915086906040902062001126620036d3565b1462001133575062001143565b620011418185858862002b4f565b505b600101620010bf565b50505050505050565b6200115f62002b42565b6001600160a01b03166000606562001176620036d3565b906101000a90046001600160a01b03166001600160a01b031614620011db5760405162461bcd60e51b8152602060048201819052602482015260008051602062004254833981519152604482015260640160405180910390620011d86200360f565b50505b620011e68162002cdf565b50565b600060cc620011f7620036d3565b906101000a90046001600160a01b03166001600160a01b03165a6200121b6200367c565b6001600160a01b0316146200126c5760405162461bcd60e51b81526020600482015260086024820152676f6e6c792064616f60c01b604482015260640160405180910390620012696200360f565b50505b62000f5a828262002ced565b600060605a63996d79a5598160e01b8152602081600483336000905af158600e01573d6000803e3d6000fd5b3d6001141558600a015760016000f35b8051925060005b6040811015620012d457600082820152602001620012bb565b50505088888560405160240180856001600160a01b03168152602001846001600160a01b031681526020018060200180602001838103835285818151815260200191508051906020019080838360005b838110156200133e57808201518382015260200162001324565b50505050905090810190601f1680156200136c5780820380516001836020036101000a031916815260200191505b50838103825284818151815260200191508051906020019060200280838360005b83811015620013a75780820151838201526020016200138d565b505050509050019650505050505050604051601f198183030181526040919091526331a22a9960e21b6020820180516001600160e01b0316909117905290506000620013f582600162001854565b905060605a63996d79a5598160e01b8152602081600483336000905af158600e01573d6000803e3d6000fd5b3d6001141558600a015760016000f35b8051925060005b6040811015620014515760008282015260200162001438565b5050508b89898560405160240180866001600160a01b0316815260200185151581526020018060200180602001846001600160a01b03168152602001838103835286818151815260200191508051906020019080838360005b83811015620014c4578082015183820152602001620014aa565b50505050905090810190601f168015620014f25780820380516001836020036101000a031916815260200191505b50838103825285818151815260200191508051906020019080838360005b838110156200152a57808201518382015260200162001510565b50505050905090810190601f168015620015585780820380516001836020036101000a031916815260200191505b50975050505050505050604051601f19818303018152604091909152630ccb30c760e01b6020820180516001600160e01b0316909117905290506000620015a182600262001854565b90508060cb80600181620015b4620036d3565b018082620015c162003720565b505060009283526000190191602091502001600181620015e0620036d3565b816001600160a01b0302191690836001600160a01b03160217906200160462003720565b5050506001600160a01b038116600090815260d0602052600190604090206001816200162f620036d3565b8160ff021916908315150217906200164662003720565b5050506001600160a01b038316600090815260d16020526001906040902060018162001671620036d3565b8160ff021916908315150217906200168862003720565b50505060da62001697620036d3565b6001600160a01b038216600090815260d9602052604090208190620016bb62003720565b505050620016d0818860d362000f54620036d3565b7f73a0638fe578fc759744633aa170a433061ca2cc1bb855d116c506e04a29901f818d8b8d8f5a620017016200376f565b8d60d36200170e620036d3565b60405180896001600160a01b0316815260200188151581526020018060200180602001876001600160a01b03168152602001868152602001858152602001848152602001838103835289818151815260200191508051906020019080838360005b83811015620017895780820151838201526020016200176f565b50505050905090810190601f168015620017b75780820380516001836020036101000a031916815260200191505b50838103825288818151815260200191508051906020019080838360005b83811015620017ef578082015183820152602001620017d5565b50505050905090810190601f1680156200181d5780820380516001836020036101000a031916815260200191505b509a505050505050505050505060405180910390a19b9a5050505050505050505050565b600060d66200184f620036d3565b905090565b600062001862838362002d14565b90505b92915050565b600060d86200184f620036d3565b60d9602052806000526040600020905062000f7f620036d3565b60d060205280600052604060002060009150620018af620036d3565b906101000a900460ff1681565b600060db6200184f620036d3565b6001600160a01b038116600090815260dd60205260408120600090620018ef620036d3565b906101000a90046001600160a01b031690505b919050565b6200191162002b42565b6001600160a01b03166000606562001928620036d3565b906101000a90046001600160a01b03166001600160a01b0316146200198d5760405162461bcd60e51b81526020600482018190526024820152600080516020620042548339815191526044820152606401604051809103906200198a6200360f565b50505b60008060656200199c620036d3565b906101000a90046001600160a01b03166001600160a01b03167f8be0079c531659141344cd1fd0a4f28419497f9722a3daafe3b4186f6b6457e060405160405180910390a360006065600181620019f2620036d3565b816001600160a01b0302191690836001600160a01b031602179062001a1662003720565b505050565b62001a2562002b42565b6001600160a01b03166000606562001a3c620036d3565b906101000a90046001600160a01b03166001600160a01b03161462001aa15760405162461bcd60e51b815260206004820181905260248201526000805160206200425483398151915260448201526064016040518091039062001a9e6200360f565b50505b62000f5a828262002ed0565b62001ab762002b42565b6001600160a01b03166000606562001ace620036d3565b906101000a90046001600160a01b03166001600160a01b03161462001b335760405162461bcd60e51b815260206004820181905260248201526000805160206200425483398151915260448201526064016040518091039062001b306200360f565b50505b81609760018162001b43620036d3565b816001600160a01b0302191690836001600160a01b031602179062001b6762003720565b50505080609860006101000a8162001b7e620036d3565b816001600160a01b0302191690836001600160a01b031602179062001ba262003720565b5050505050565b62001bb362002b42565b6001600160a01b03166000606562001bca620036d3565b906101000a90046001600160a01b03166001600160a01b03161462001c2f5760405162461bcd60e51b815260206004820181905260248201526000805160206200425483398151915260448201526064016040518091039062001c2c6200360f565b50505b620011e68162002f84565b600080606562000f9d620036d3565b60008060d262001c58620036d3565b60d362001c64620036d3565b915091509091565b60cb818162001c7a620036d3565b811062001c8357fe5b906000526020600020016000915062001c9b620036d3565b906101000a90046001600160a01b031681565b62001cb862002b42565b6001600160a01b03166000606562001ccf620036d3565b906101000a90046001600160a01b03166001600160a01b03161462001d345760405162461bcd60e51b815260206004820181905260248201526000805160206200425483398151915260448201526064016040518091039062001d316200360f565b50505b620011e68162002f94565b60008060ce62001d4e620036d3565b60cf62001c64620036d3565b600060d76200184f620036d3565b62001d7262002b42565b6001600160a01b03166000606562001d89620036d3565b906101000a90046001600160a01b03166001600160a01b03161462001dee5760405162461bcd60e51b815260206004820181905260248201526000805160206200425483398151915260448201526064016040518091039062001deb6200360f565b50505b620011e6816200300b565b60d160205280600052604060002060009150620018af620036d3565b60008060cd62001e24620036d3565b906101000a90046001600160a01b03166001600160a01b0316638b2f0f4f836040516001600160e01b031960e084901b1681526001600160a01b039091166004820152602401602060405180830381868062001e7f620037b6565b15801562001e975760008062001e946200360f565b50505b505a62001ea362003803565b505050505015801562001ec5573d6000803e3d600062001ec26200360f565b50505b505050506040513d602081101562001ee75760008062001ee46200360f565b50505b81019080805195945050505050565b6001600160a01b038116600090815260d0602052806040812060009062001f1c620036d3565b906101000a900460ff161515600115151462001f895760405162461bcd60e51b815260206004820152601e60248201527f737570706c6965642061646472657373206973206e6f74206120706f6f6c000060448201526064016040518091039062001f866200360f565b50505b6001600160a01b038316600090815260d46020526040902062001fab620036d3565b6001600160a01b038416600090815260d56020526040902062001fcd620036d3565b91509150915091565b62001fe062002b42565b6001600160a01b03166000606562001ff7620036d3565b906101000a90046001600160a01b03166001600160a01b0316146200205c5760405162461bcd60e51b8152602060048201819052602482015260008051602062004254833981519152604482015260640160405180910390620020596200360f565b50505b808060dc6200206a62003720565b50505050565b60d4602052806000526040600020905062000f7f620036d3565b60dc62000f7f620036d3565b600060cc620020a4620036d3565b906101000a90046001600160a01b03166001600160a01b03165a620020c86200367c565b6001600160a01b031614620021195760405162461bcd60e51b81526020600482015260086024820152676f6e6c792064616f60c01b604482015260640160405180910390620021166200360f565b50505b62002124836200227d565b15620021785760405162461bcd60e51b8152602060048201526014602482015273617373657420616c72656164792065786973747360601b604482015260640160405180910390620021756200360f565b50505b600060cd62002186620036d3565b906101000a90046001600160a01b03166001600160a01b031663b91ba5488484846040516001600160e01b031960e086901b1681526001600160a01b03938416600482015260ff9092166024830152909116604482015260640160006040518083038160008780620021f7620037b6565b1580156200220f576000806200220c6200360f565b50505b505a6200221b620038f9565b5050505050501580156200223e573d6000803e3d60006200223b6200360f565b50505b50505050826001600160a01b03167fd63c302652b86334fe4eb891e7a01e61e836496485d9394f2c95b4222006ae5060405160405180910390a2505050565b6000808060cd6200228d620036d3565b906101000a90046001600160a01b03166001600160a01b03166329a42d56846040516001600160e01b031960e084901b1681526001600160a01b0390911660048201526024016020604051808303818680620022e8620037b6565b1580156200230057600080620022fd6200360f565b50505b505a6200230c62003803565b50505050501580156200232e573d6000803e3d60006200232b6200360f565b50505b505050506040513d602081101562002350576000806200234d6200360f565b50505b8101908080516001600160a01b0316939093141595945050505050565b60008060cd62000f9d620036d3565b600060cc6200238a620036d3565b906101000a90046001600160a01b03166001600160a01b03165a620023ae6200367c565b6001600160a01b031614620023ff5760405162461bcd60e51b81526020600482015260086024820152676f6e6c792064616f60c01b604482015260640160405180910390620023fc6200360f565b50505b6200240a816200227d565b6200245c5760405162461bcd60e51b8152602060048201526013602482015272185cdcd95d08191bd95cdb89dd08195e1a5cdd606a1b604482015260640160405180910390620024596200360f565b50505b600060cd6200246a620036d3565b906101000a90046001600160a01b03166001600160a01b0316634a5e42b1826040516001600160e01b031960e084901b1681526001600160a01b03909116600482015260240160006040518083038160008780620024c7620037b6565b158015620024df57600080620024dc6200360f565b50505b505a620024eb620038f9565b5050505050501580156200250e573d6000803e3d60006200250b6200360f565b50505b50505050806001600160a01b03167fe8b3c469b395bfd934168e4b7d14590c9cd1a6740533df170dbe3c219ff5a67460405160405180910390a250565b60d5602052806000526040600020905062000f7f620036d3565b6200256f62002b42565b6001600160a01b03166000606562002586620036d3565b906101000a90046001600160a01b03166001600160a01b031614620025eb5760405162461bcd60e51b8152602060048201819052602482015260008051602062004254833981519152604482015260640160405180910390620025e86200360f565b50505b808060db6200206a62003720565b600060dc6200184f620036d3565b60008160ff16600114156200263c576000609862002624620036d3565b906101000a90046001600160a01b0316905062001902565b6000609762002624620036d3565b6200265462002b42565b6001600160a01b0316600060656200266b620036d3565b906101000a90046001600160a01b03166001600160a01b031614620026d05760405162461bcd60e51b8152602060048201819052602482015260008051602062004254833981519152604482015260640160405180910390620026cd6200360f565b50505b620011e68162003052565b620026e562002b42565b6001600160a01b031660006065620026fc620036d3565b906101000a90046001600160a01b03166001600160a01b031614620027615760405162461bcd60e51b81526020600482018190526024820152600080516020620042548339815191526044820152606401604051809103906200275e6200360f565b50505b6001600160a01b038116620027b35760405162461bcd60e51b81526004018080602001828103825260268152602001806200422e6026913960400191505060405180910390620027b06200360f565b50505b6001600160a01b03811660006065620027cb620036d3565b906101000a90046001600160a01b03166001600160a01b03167f8be0079c531659141344cd1fd0a4f28419497f9722a3daafe3b4186f6b6457e060405160405180910390a380606560018162002820620036d3565b816001600160a01b0302191690836001600160a01b03160217906200206a62003720565b6001600062002852620036d3565b906101000a900460ff16806200286d57506200286d62003099565b806200288d575060008062002881620036d3565b906101000a900460ff16155b620028d55760405162461bcd60e51b815260040180806020018281038252602e81526020018062004274602e913960400191505060405180910390620028d26200360f565b50505b6000600181620028e4620036d3565b906101000a900460ff161590508015620029535760016000610100816200290a620036d3565b8160ff021916908315150217906200292162003720565b50505060016000806101000a8162002938620036d3565b8160ff021916908315150217906200294f62003720565b5050505b6200295f85856200310e565b6200296a8362002f84565b620029758262002f94565b6200298561138861271062003118565b62002993600a606462002ed0565b620029a1620151806200300b565b620029af6224ea0062001fd6565b620029bc6103e862002565565b620029c8600a62003052565b620029dc6544484544474560d01b62002cdf565b801562001ba25760008061010081620029f4620036d3565b8160ff0219169083151502179062002a0b62003720565b5050505050505050565b600082820183811015620018625760405162461bcd60e51b815260206004820152601b60248201527f536166654d6174683a206164646974696f6e206f766572666c6f77000000000060448201526064016040518091039062002a776200360f565b50509392505050565b80821115801562002a9c575060d262002a98620036d3565b8211155b62002aeb5760405162461bcd60e51b815260206004820152601060248201526f34b73b30b634b210333930b1ba34b7b760811b60448201526064016040518091039062002ae86200360f565b50505b6001600160a01b038316600090815260d4602052829060409020819062002b1162003720565b5050506001600160a01b038316600090815260d5602052819060409020819062002b3a62003720565b505050505050565b60005a6200184f6200367c565b6001600160a01b03841662002ba65760405162461bcd60e51b815260206004820152600e60248201526d1d185c99d95d0b5a5b9d985b1a5960921b60448201526064016040518091039062002ba36200360f565b50505b8162002bf25760405162461bcd60e51b815260206004820152600c60248201526b19185d184b5a5b9d985b1a5960a21b60448201526064016040518091039062002bef6200360f565b50505b606083838080601f01602080910402602001604051908101604052818152929190602084018383808284376000920182905250939450839250849150505160208401885a62002c40620039c7565b505050505080156001811462002c565762002c6d565b3d806000803e80600062002c696200360f565b5050505b5050846001600160a01b03165a62002c846200367c565b6001600160a01b03167f78a9b536049c39a00adaf57016b1376c99dd48a0faf2cef23690232f21ce42cc60405160405180910390a36001600160a01b038516600090815260d9602052829060409020819062002a0b62003720565b808060d86200206a62003720565b6001600160a01b038216600090815260dd60205281906040902060018162001b7e620036d3565b60008062002d216200318b565b90507efffc2da0b561cae30d9826d37709e9421c4725faebc226cbbb7ef5fc5e7349816040516001600160a01b03909116815260200160405180910390a1806001600160a01b031663e74a474a5a63996d79a5598160e01b8152602081600483336000905af158600e01573d6000803e3d6000fd5b3d6001141558600a015760016000f35b8051925060005b604081101562002dc65760008282015260200162002dad565b50505086866040518463ffffffff1660e01b815260040180846001600160a01b03168152602001806020018360ff168152602001828103825284818151815260200191508051906020019080838360005b8381101562002e3157808201518382015260200162002e17565b50505050905090810190601f16801562002e5f5780820380516001836020036101000a031916815260200191505b509450505050506000604051808303816000878062002e7d620037b6565b15801562002e955760008062002e926200360f565b50505b505a62002ea1620038f9565b50505050505015801562002ec4573d6000803e3d600062002ec16200360f565b50505b50929695505050505050565b8082111562002f235760405162461bcd60e51b815260206004820152601060248201526f34b73b30b634b210333930b1ba34b7b760811b60448201526064016040518091039062002f206200360f565b50505b818060ce62002f3162003720565b5050508060cf819062002f4362003720565b5050507fb10da2958bf5ec1bff3164ff753a09e0460ed44d3abf73e79b817b500ed0f2f1828260405191825260208201526040908101905180910390a15050565b8060cd60018162002820620036d3565b8060cc60018162002fa4620036d3565b816001600160a01b0302191690836001600160a01b031602179062002fc862003720565b5050507ff1034ad6b4d45dc33a4142b9c51c2b7f89bf4a410696e426cc0f3224869e0aca816040516001600160a01b03909116815260200160405180910390a150565b808060d66200301962003720565b5050507f20d916c976f3971e8200089411b0b712ef4612d98380b8ad2e3d8a8a376d85c78160405190815260200160405180910390a150565b808060d76200306062003720565b5050507f0cd8fcb5e08d7632af461f0ad793e5c63dc0d7595c301f5880650175e37a87488160405190815260200160405180910390a150565b6000805a63996d79a5598160e01b8152602081600483336000905af158600e01573d6000803e3d6000fd5b3d6001141558600a015760016000f35b8051925060005b6040811015620030f457600082820152602001620030db565b505050905060008162003106620037b6565b159250505090565b62001b33620031f2565b808211156200316b5760405162461bcd60e51b815260206004820152601060248201526f34b73b30b634b210333930b1ba34b7b760811b604482015260640160405180910390620031686200360f565b50505b818060d26200317962003720565b5050508060d3819062001ba262003720565b6000806060604051620031a160208201620039d9565b601f1982820381018352601f9091011660405290508051602082016000620031c8620039e7565b5050915081620031d7620037b6565b620031ec57600080620031e96200360f565b50505b50905090565b6001600062003200620036d3565b906101000a900460ff16806200321b57506200321b62003099565b806200323b57506000806200322f620036d3565b906101000a900460ff16155b620032835760405162461bcd60e51b815260040180806020018281038252602e81526020018062004274602e913960400191505060405180910390620032806200360f565b50505b600060018162003292620036d3565b906101000a900460ff16159050801562003301576001600061010081620032b8620036d3565b8160ff02191690831515021790620032cf62003720565b50505060016000806101000a81620032e6620036d3565b8160ff02191690831515021790620032fd62003720565b5050505b6200330b62003344565b620033156200346a565b8015620011e657600080610100816200332d620036d3565b8160ff021916908315150217906200206a62003720565b6001600062003352620036d3565b906101000a900460ff16806200336d57506200336d62003099565b806200338d575060008062003381620036d3565b906101000a900460ff16155b620033d55760405162461bcd60e51b815260040180806020018281038252602e81526020018062004274602e913960400191505060405180910390620033d26200360f565b50505b6000600181620033e4620036d3565b906101000a900460ff161590508015620033155760016000610100816200340a620036d3565b8160ff021916908315150217906200342162003720565b50505060016000806101000a8162003438620036d3565b8160ff021916908315150217906200344f62003720565b5050508015620011e657600080610100816200332d620036d3565b6001600062003478620036d3565b906101000a900460ff16806200349357506200349362003099565b80620034b35750600080620034a7620036d3565b906101000a900460ff16155b620034fb5760405162461bcd60e51b815260040180806020018281038252602e81526020018062004274602e913960400191505060405180910390620034f86200360f565b50505b60006001816200350a620036d3565b906101000a900460ff1615905080156200357957600160006101008162003530620036d3565b8160ff021916908315150217906200354762003720565b50505060016000806101000a816200355e620036d3565b8160ff021916908315150217906200357562003720565b5050505b60006200358562002b42565b905080606560018162003597620036d3565b816001600160a01b0302191690836001600160a01b0316021790620035bb62003720565b5050506001600160a01b03811660007f8be0079c531659141344cd1fd0a4f28419497f9722a3daafe3b4186f6b6457e060405160405180910390a3508015620011e657600080610100816200332d620036d3565b632a2a7adb598160e01b8152600481016020815285602082015260005b86811015620036495780860151828201604001526020016200362c565b506020828760640184336000905af158600e01573d6000803e3d6000fd5b3d6001141558600a015760016000f35b505050565b6373509064598160e01b8152602081600483336000905af158600e01573d6000803e3d6000fd5b3d6001141558600a015760016000f35b8051935060005b604081101562001a1657600082820152602001620036ba565b6303daa959598160e01b8152836004820152602081602483336000905af158600e01573d6000803e3d6000fd5b3d6001141558600a015760016000f35b80516000825293506020620036ba565b6322bd64c0598160e01b8152836004820152846024820152600081604483336000905af158600e01573d6000803e3d6000fd5b3d6001141558600a015760016000f35b600081526020620036ba565b63bdbf8c36598160e01b8152602081600483336000905af158600e01573d6000803e3d6000fd5b3d6001141558600a015760016000f35b80516000825293506020620036ba565b638435035b598160e01b8152836004820152602081602483336000905af158600e01573d6000803e3d6000fd5b3d6001141558600a015760016000f35b80516000825293506020620036ba565b638540661f598160e01b815262003837565b808083111562001865575090919050565b808083101562001865575090919050565b836004820152846024820152606060448201528660648201526084810160005b888110156200387157808801518282015260200162003857565b506060828960a40184336000905af158600e01573d6000803e3d6000fd5b3d6001141558600a015760016000f35b815160408301513d6000853e8b8b82606087013350600060045af15059620038c88d3d62003826565b8c01620038d6818762003815565b5b82811015620038ed5760008152602001620038d7565b50929c50505050505050565b6385979f76598160e01b8152836004820152846024820152606060448201528760648201526084810160005b898110156200393f57808901518282015260200162003925565b506060828a60a40184336000905af158600e01573d6000803e3d6000fd5b3d6001141558600a015760016000f35b815160408301513d6000853e8c8c82606087013350600060045af15059620039968e3d62003826565b8d01620039a4818762003815565b5b82811015620039bb5760008152602001620039a5565b50929d50505050505050565b63ffe73914598160e01b815262003837565b6107c18062003a6d83390190565b6314aa2ff7598160e01b8152600481016020815286602082015260005b8781101562003a2157808701518282016040015260200162003a04565b506020828860640184336000905af158600e01573d6000803e3d6000fd5b3d6001141558600a015760016000f35b8151965059825b8181101562001ba2576000815260200162003a5656fe60806040523480156100195760008061001661001f565b50505b5061008a565b632a2a7adb598160e01b8152600481016020815285602082015260005b8681101561005757808601518282016040015260200161003c565b506020828760640184336000905af158600e01573d6000803e3d6000fd5b3d6001141558600a015760016000f35b505050565b610728806100996000396000f3fe6080604052600436106100225760003560e01c8063e74a474a1461003957610031565b366100315761002f610117565b005b61002f610117565b61002f60048036036060811015610058576000806100556104ca565b50505b6001600160a01b03823516919081019060408101602082013564010000000081111561008c576000806100896104ca565b50505b8201836020820111156100a7576000806100a46104ca565b50505b803590602001918460018302840111640100000000831117156100d2576000806100cf6104ca565b50505b91908080601f01602080910402602001604051908101604052818152929190602084018383808284376000920191909152509295505050903560ff1691506101319050565b61011f61012f565b61012f61012a6102c3565b6103c4565b565b600061013b6102c3565b6001600160a01b03161461018e5760405162461bcd60e51b815260206004820152600d60248201526c496d706c206e6f74207a65726f60981b60448201526064016040518091039061018b6104ca565b50505b61019783610401565b6101a08161048e565b6000825111156102be5760006101b46102c3565b6001600160a01b0316836040518082805190602001908083835b602083106101ed5780518252601f1990920191602091820191016101ce565b6001836020036101000a038019825116818451168082178552505050505050905001915050600060405180830381855a610225610535565b50505050509150503d8060008114610259576040513d603f01601f191681016040523d815291503d6000602084013e61025e565b606091505b50509050806102bc5760405162461bcd60e51b815260206004820152601a60248201527f496d706c656d656e746174696f6e20696e6974206661696c65640000000000006044820152606401604051809103906102b96104ca565b50505b505b505050565b6000807f360894a13ba1a3210667c828492db98dca3e2076cc3735a920a3ca505d382bbc806102f0610622565b91506001600160a01b03821661030b576000925050506103c1565b816001600160a01b031663ecef89d561032261049d565b6040516001600160e01b031960e084901b16815260ff9091166004820152602401602060405180830381868061035661067d565b15801561036b576000806103686104ca565b50505b505a6103756106c9565b5050505050158015610394573d6000803e3d60006103916104ca565b50505b505050506040513d60208110156103b3576000806103b06104ca565b50505b810190808051955050505050505b90565b3660008037600080366000845a6103d9610535565b50505050503d6000803e8080156103ef573d6000f35b3d60006103fa6104ca565b5050505050565b61040a816104b5565b6104635760405162461bcd60e51b815260206004820181905260248201527f43616e6e6f742073657420696d706c656d656e746174696f6e20746f20454f416044820152606401604051809103906104606104ca565b50505b7f360894a13ba1a3210667c828492db98dca3e2076cc3735a920a3ca505d382bbc81816102bc6106da565b600160fc1b81816102bc6106da565b600080600160fc1b806104ae610622565b9250505090565b600080826104c161067d565b15159392505050565b632a2a7adb598160e01b8152600481016020815285602082015260005b868110156105025780860151828201604001526020016104e7565b506020828760640184336000905af158600e01573d6000803e3d6000fd5b3d6001141558600a015760016000f35b505050565b63ffe73914598160e01b8152610568565b80808311156105525750815b92915050565b8080831015610552575090919050565b836004820152846024820152606060448201528660648201526084810160005b888110156105a0578088015182820152602001610588565b506060828960a40184336000905af158600e01573d6000803e3d6000fd5b3d6001141558600a015760016000f35b815160408301513d6000853e8b8b82606087013350600060045af150596105f58d3d610558565b8c016106018187610546565b5b828110156106165760008152602001610602565b50929c50505050505050565b6303daa959598160e01b8152836004820152602081602483336000905af158600e01573d6000803e3d6000fd5b3d6001141558600a015760016000f35b8051935060005b60408110156102be57600082820152602001610666565b638435035b598160e01b8152836004820152602081602483336000905af158600e01573d6000803e3d6000fd5b3d6001141558600a015760016000f35b80516000825293506020610666565b638540661f598160e01b8152610568565b6322bd64c0598160e01b8152836004820152846024820152600081604483336000905af158600e01573d6000803e3d6000fd5b3d6001141558600a015760016000f35b600081526020610666564f776e61626c653a206e6577206f776e657220697320746865207a65726f20616464726573734f776e61626c653a2063616c6c6572206973206e6f7420746865206f776e6572436f6e747261637420696e7374616e63652068617320616c7265616479206265656e20696e697469616c697a6564",
  "deployedBytecode": "0x60806040523480156200001c57600080620000196200360f565b50505b5060043610620002bb5760003560e01c80639a068bd6116200017c578063c4a2267711620000e0578063e99c0fa6116200009e578063e99c0fa61462000c75578063ebee461d1462000ca0578063ecef89d51462000caa578063eec16c441462000cd8578063f2fde38b1462000d03578063f8c8765e1462000d3757620002bb565b8063c4a226771462000b88578063cc435bf31462000bcf578063ce26e9ef1462000c03578063dc76d2541462000c0d578063e60eb4121462000c4157620002bb565b8063b193a5f4116200013a578063b193a5f41462000a83578063b3596f071462000ab7578063b7a545261462000aeb578063bcb01f441462000b1f578063bee37e521462000b4a578063bfeaf71d1462000b7e57620002bb565b80639a068bd614620009e55780639a3cac6a1462000a105780639cada6e41462000a44578063aa12ae4d1462000a4e578063aa7d664e1462000a5857620002bb565b806349f7c02d1162000224578063715018a611620001e2578063715018a6146200090e578063771d1baf1462000918578063808ae5fb146200094957806386e76f7314620009855780638da5cb5b14620009b957806394d0d23b14620009c357620002bb565b806349f7c02d146200084a5780635556ee5514620008545780635b16ebb714620008885780635c9bfc2b14620008d05780637027ea6c14620008da57620002bb565b80631e666d13116200027e5780631e666d13146200035d5780631e8e8bca1462000415578063227773ee1462000440578063391d348b146200047c5780634501b088146200076657806345812ca5146200077057620002bb565b8063046b72c414620002cb5780630bf99bd914620003075780630f6559c4146200032357806310bf69dc146200032d5780631d68702d1462000337575b600080620002c86200360f565b50505b6200030560048036036040811015620002ee57600080620002eb6200360f565b50505b506001600160a01b03813516906020013562000d83565b005b6200031162000f5e565b60405190815260200160405180910390f35b6200031162000f73565b6200031162000f82565b6200034162000f8e565b6040516001600160a01b03909116815260200160405180910390f35b62000305600480360360a081101562000380576000806200037d6200360f565b50505b81359160208101359160408201359160608101359181019060a081016080820135600160201b811115620003be57600080620003bb6200360f565b50505b820183602082011115620003dc57600080620003d96200360f565b50505b803590602001918460018302840111600160201b831117156200040957600080620004066200360f565b50505b50909250905062000fb2565b62000305600480360360208110156200043857600080620004356200360f565b50505b503562001155565b62000305600480360360408110156200046357600080620004606200360f565b50505b506001600160a01b0381358116916020013516620011e9565b62000341600480360360e08110156200049f576000806200049c6200360f565b50505b81351515916001600160a01b0360208201351691810190606081016040820135600160201b811115620004dc57600080620004d96200360f565b50505b820183602082011115620004fa57600080620004f76200360f565b50505b803590602001918460018302840111600160201b831117156200052757600080620005246200360f565b50505b91908080601f01602080910402602001604051908101604052818152929190602084018383808284376000920191909152509295949360208101935035915050600160201b8111156200058457600080620005816200360f565b50505b820183602082011115620005a2576000806200059f6200360f565b50505b803590602001918460018302840111600160201b83111715620005cf57600080620005cc6200360f565b50505b91908080601f01602080910402602001604051908101604052818152929190602084018383808284376000920191909152509295949360208101935035915050600160201b8111156200062c57600080620006296200360f565b50505b8201836020820111156200064a57600080620006476200360f565b50505b803590602001918460018302840111600160201b831117156200067757600080620006746200360f565b50505b91908080601f016020809104026020016040519081016040528181529291906020840183838082843760009201919091525092958435959094909350604081019250602001359050600160201b811115620006dc57600080620006d96200360f565b50505b820183602082011115620006fa57600080620006f76200360f565b50505b803590602001918460208302840111600160201b831117156200072757600080620007246200360f565b50505b91908080602002602001604051908101604052809392919081815260200183836020028082843760009201919091525092955062001278945050505050565b6200031162001841565b62000341600480360360408110156200079357600080620007906200360f565b50505b810190602081018135600160201b811115620007b957600080620007b66200360f565b50505b820183602082011115620007d757600080620007d46200360f565b50505b803590602001918460018302840111600160201b831117156200080457600080620008016200360f565b50505b91908080601f01602080910402602001604051908101604052818152929190602084018383808284376000920191909152509295505050903560ff169150620018549050565b620003116200186b565b62000311600480360360208110156200087757600080620008746200360f565b50505b50356001600160a01b031662001879565b620008bc60048036036020811015620008ab57600080620008a86200360f565b50505b50356001600160a01b031662001893565b604051901515815260200160405180910390f35b62000311620018bc565b6200034160048036036020811015620008fd57600080620008fa6200360f565b50505b50356001600160a01b0316620018ca565b6200030562001907565b62000305600480360360408110156200093b57600080620009386200360f565b50505b508035906020013562001a1b565b62000305600480360360408110156200096c57600080620009696200360f565b50505b506001600160a01b038135811691602001351662001aad565b6200030560048036036020811015620009a857600080620009a56200360f565b50505b50356001600160a01b031662001ba9565b6200034162001c3a565b620009cd62001c49565b60405191825260208201526040908101905180910390f35b620003416004803603602081101562000a085760008062000a056200360f565b50505b503562001c6c565b620003056004803603602081101562000a335760008062000a306200360f565b50505b50356001600160a01b031662001cae565b620009cd62001d3f565b6200031162001d5a565b620003056004803603602081101562000a7b5760008062000a786200360f565b50505b503562001d68565b620008bc6004803603602081101562000aa65760008062000aa36200360f565b50505b50356001600160a01b031662001df9565b620003116004803603602081101562000ada5760008062000ad76200360f565b50505b50356001600160a01b031662001e15565b620009cd6004803603602081101562000b0e5760008062000b0b6200360f565b50505b50356001600160a01b031662001ef6565b620003056004803603602081101562000b425760008062000b3f6200360f565b50505b503562001fd6565b620003116004803603602081101562000b6d5760008062000b6a6200360f565b50505b50356001600160a01b031662002070565b620003116200208a565b620003056004803603606081101562000bab5760008062000ba86200360f565b50505b506001600160a01b03813581169160ff602082013516916040909101351662002096565b620008bc6004803603602081101562000bf25760008062000bef6200360f565b50505b50356001600160a01b03166200227d565b620003416200236d565b620003056004803603602081101562000c305760008062000c2d6200360f565b50505b50356001600160a01b03166200237c565b620003116004803603602081101562000c645760008062000c616200360f565b50505b50356001600160a01b03166200254b565b620003056004803603602081101562000c985760008062000c956200360f565b50505b503562002565565b62000311620025f9565b620003416004803603602081101562000ccd5760008062000cca6200360f565b50505b503560ff1662002607565b620003056004803603602081101562000cfb5760008062000cf86200360f565b50505b50356200264a565b620003056004803603602081101562000d265760008062000d236200360f565b50505b50356001600160a01b0316620026db565b620003056004803603608081101562000d5a5760008062000d576200360f565b50505b506001600160a01b03813581169160208101358216916040820135811691606001351662002844565b60d160005a62000d926200367c565b6001600160a01b03166001600160a01b0316815260200190815260200160002060009062000dbf620036d3565b906101000a900460ff161515600115151462000e215760405162461bcd60e51b81526020600482015260126024820152712737ba1030903837b7b61036b0b730b3b2b960711b60448201526064016040518091039062000e1e6200360f565b50505b6001600160a01b038216600090815260d06020526040902060009062000e46620036d3565b906101000a900460ff161515600115151462000eb35760405162461bcd60e51b815260206004820152601e60248201527f737570706c6965642061646472657373206973206e6f74206120706f6f6c000060448201526064016040518091039062000eb06200360f565b50505b62000eec60db62000ec3620036d3565b6001600160a01b038416600090815260d46020526040902062000ee5620036d3565b9062002a15565b81111562000f425760405162461bcd60e51b81526020600482015260146024820152730dac2dcc2cecae440cccaca40e8dede40d0d2ced60631b60448201526064016040518091039062000f3f6200360f565b50505b62000f5a828260d362000f54620036d3565b62002a80565b5050565b600060cb8062000f6d620036d3565b91505090565b60da62000f7f620036d3565b81565b60db62000f7f620036d3565b60008060cc62000f9d620036d3565b906101000a90046001600160a01b0316905090565b62000fbc62002b42565b6001600160a01b03166000606562000fd3620036d3565b906101000a90046001600160a01b03166001600160a01b031614620010385760405162461bcd60e51b8152602060048201819052602482015260008051602062004254833981519152604482015260640160405180910390620010356200360f565b50505b84861115801562001056575060cb8062001051620036d3565b905086105b801562001070575060cb806200106b620036d3565b905085105b620010bd5760405162461bcd60e51b815260206004820152600e60248201526d696e76616c696420626f756e647360901b604482015260640160405180910390620010ba6200360f565b50505b855b8581116200114c57600060cb8281620010d7620036d3565b8110620010e057fe5b90600052602060002001600090620010f7620036d3565b6001600160a01b036101009290920a900416600081815260d960205290915086906040902062001126620036d3565b1462001133575062001143565b620011418185858862002b4f565b505b600101620010bf565b50505050505050565b6200115f62002b42565b6001600160a01b03166000606562001176620036d3565b906101000a90046001600160a01b03166001600160a01b031614620011db5760405162461bcd60e51b8152602060048201819052602482015260008051602062004254833981519152604482015260640160405180910390620011d86200360f565b50505b620011e68162002cdf565b50565b600060cc620011f7620036d3565b906101000a90046001600160a01b03166001600160a01b03165a6200121b6200367c565b6001600160a01b0316146200126c5760405162461bcd60e51b81526020600482015260086024820152676f6e6c792064616f60c01b604482015260640160405180910390620012696200360f565b50505b62000f5a828262002ced565b600060605a63996d79a5598160e01b8152602081600483336000905af158601d01573d60011458600c01573d6000803e3d621234565260ea61109c528051925060005b6040811015620012d457600082820152602001620012bb565b50505088888560405160240180856001600160a01b03168152602001846001600160a01b031681526020018060200180602001838103835285818151815260200191508051906020019080838360005b838110156200133e57808201518382015260200162001324565b50505050905090810190601f1680156200136c5780820380516001836020036101000a031916815260200191505b50838103825284818151815260200191508051906020019060200280838360005b83811015620013a75780820151838201526020016200138d565b505050509050019650505050505050604051601f198183030181526040919091526331a22a9960e21b6020820180516001600160e01b0316909117905290506000620013f582600162001854565b905060605a63996d79a5598160e01b8152602081600483336000905af158601d01573d60011458600c01573d6000803e3d621234565260ea61109c528051925060005b6040811015620014515760008282015260200162001438565b5050508b89898560405160240180866001600160a01b0316815260200185151581526020018060200180602001846001600160a01b03168152602001838103835286818151815260200191508051906020019080838360005b83811015620014c4578082015183820152602001620014aa565b50505050905090810190601f168015620014f25780820380516001836020036101000a031916815260200191505b50838103825285818151815260200191508051906020019080838360005b838110156200152a57808201518382015260200162001510565b50505050905090810190601f168015620015585780820380516001836020036101000a031916815260200191505b50975050505050505050604051601f19818303018152604091909152630ccb30c760e01b6020820180516001600160e01b0316909117905290506000620015a182600262001854565b90508060cb80600181620015b4620036d3565b018082620015c162003720565b505060009283526000190191602091502001600181620015e0620036d3565b816001600160a01b0302191690836001600160a01b03160217906200160462003720565b5050506001600160a01b038116600090815260d0602052600190604090206001816200162f620036d3565b8160ff021916908315150217906200164662003720565b5050506001600160a01b038316600090815260d16020526001906040902060018162001671620036d3565b8160ff021916908315150217906200168862003720565b50505060da62001697620036d3565b6001600160a01b038216600090815260d9602052604090208190620016bb62003720565b505050620016d0818860d362000f54620036d3565b7f73a0638fe578fc759744633aa170a433061ca2cc1bb855d116c506e04a29901f818d8b8d8f5a620017016200376f565b8d60d36200170e620036d3565b60405180896001600160a01b0316815260200188151581526020018060200180602001876001600160a01b03168152602001868152602001858152602001848152602001838103835289818151815260200191508051906020019080838360005b83811015620017895780820151838201526020016200176f565b50505050905090810190601f168015620017b75780820380516001836020036101000a031916815260200191505b50838103825288818151815260200191508051906020019080838360005b83811015620017ef578082015183820152602001620017d5565b50505050905090810190601f1680156200181d5780820380516001836020036101000a031916815260200191505b509a505050505050505050505060405180910390a19b9a5050505050505050505050565b600060d66200184f620036d3565b905090565b600062001862838362002d14565b90505b92915050565b600060d86200184f620036d3565b60d9602052806000526040600020905062000f7f620036d3565b60d060205280600052604060002060009150620018af620036d3565b906101000a900460ff1681565b600060db6200184f620036d3565b6001600160a01b038116600090815260dd60205260408120600090620018ef620036d3565b906101000a90046001600160a01b031690505b919050565b6200191162002b42565b6001600160a01b03166000606562001928620036d3565b906101000a90046001600160a01b03166001600160a01b0316146200198d5760405162461bcd60e51b81526020600482018190526024820152600080516020620042548339815191526044820152606401604051809103906200198a6200360f565b50505b60008060656200199c620036d3565b906101000a90046001600160a01b03166001600160a01b03167f8be0079c531659141344cd1fd0a4f28419497f9722a3daafe3b4186f6b6457e060405160405180910390a360006065600181620019f2620036d3565b816001600160a01b0302191690836001600160a01b031602179062001a1662003720565b505050565b62001a2562002b42565b6001600160a01b03166000606562001a3c620036d3565b906101000a90046001600160a01b03166001600160a01b03161462001aa15760405162461bcd60e51b815260206004820181905260248201526000805160206200425483398151915260448201526064016040518091039062001a9e6200360f565b50505b62000f5a828262002ed0565b62001ab762002b42565b6001600160a01b03166000606562001ace620036d3565b906101000a90046001600160a01b03166001600160a01b03161462001b335760405162461bcd60e51b815260206004820181905260248201526000805160206200425483398151915260448201526064016040518091039062001b306200360f565b50505b81609760018162001b43620036d3565b816001600160a01b0302191690836001600160a01b031602179062001b6762003720565b50505080609860006101000a8162001b7e620036d3565b816001600160a01b0302191690836001600160a01b031602179062001ba262003720565b5050505050565b62001bb362002b42565b6001600160a01b03166000606562001bca620036d3565b906101000a90046001600160a01b03166001600160a01b03161462001c2f5760405162461bcd60e51b815260206004820181905260248201526000805160206200425483398151915260448201526064016040518091039062001c2c6200360f565b50505b620011e68162002f84565b600080606562000f9d620036d3565b60008060d262001c58620036d3565b60d362001c64620036d3565b915091509091565b60cb818162001c7a620036d3565b811062001c8357fe5b906000526020600020016000915062001c9b620036d3565b906101000a90046001600160a01b031681565b62001cb862002b42565b6001600160a01b03166000606562001ccf620036d3565b906101000a90046001600160a01b03166001600160a01b03161462001d345760405162461bcd60e51b815260206004820181905260248201526000805160206200425483398151915260448201526064016040518091039062001d316200360f565b50505b620011e68162002f94565b60008060ce62001d4e620036d3565b60cf62001c64620036d3565b600060d76200184f620036d3565b62001d7262002b42565b6001600160a01b03166000606562001d89620036d3565b906101000a90046001600160a01b03166001600160a01b03161462001dee5760405162461bcd60e51b815260206004820181905260248201526000805160206200425483398151915260448201526064016040518091039062001deb6200360f565b50505b620011e6816200300b565b60d160205280600052604060002060009150620018af620036d3565b60008060cd62001e24620036d3565b906101000a90046001600160a01b03166001600160a01b0316638b2f0f4f836040516001600160e01b031960e084901b1681526001600160a01b039091166004820152602401602060405180830381868062001e7f620037b6565b15801562001e975760008062001e946200360f565b50505b505a62001ea362003803565b505050505015801562001ec5573d6000803e3d600062001ec26200360f565b50505b505050506040513d602081101562001ee75760008062001ee46200360f565b50505b81019080805195945050505050565b6001600160a01b038116600090815260d0602052806040812060009062001f1c620036d3565b906101000a900460ff161515600115151462001f895760405162461bcd60e51b815260206004820152601e60248201527f737570706c6965642061646472657373206973206e6f74206120706f6f6c000060448201526064016040518091039062001f866200360f565b50505b6001600160a01b038316600090815260d46020526040902062001fab620036d3565b6001600160a01b038416600090815260d56020526040902062001fcd620036d3565b91509150915091565b62001fe062002b42565b6001600160a01b03166000606562001ff7620036d3565b906101000a90046001600160a01b03166001600160a01b0316146200205c5760405162461bcd60e51b8152602060048201819052602482015260008051602062004254833981519152604482015260640160405180910390620020596200360f565b50505b808060dc6200206a62003720565b50505050565b60d4602052806000526040600020905062000f7f620036d3565b60dc62000f7f620036d3565b600060cc620020a4620036d3565b906101000a90046001600160a01b03166001600160a01b03165a620020c86200367c565b6001600160a01b031614620021195760405162461bcd60e51b81526020600482015260086024820152676f6e6c792064616f60c01b604482015260640160405180910390620021166200360f565b50505b62002124836200227d565b15620021785760405162461bcd60e51b8152602060048201526014602482015273617373657420616c72656164792065786973747360601b604482015260640160405180910390620021756200360f565b50505b600060cd62002186620036d3565b906101000a90046001600160a01b03166001600160a01b031663b91ba5488484846040516001600160e01b031960e086901b1681526001600160a01b03938416600482015260ff9092166024830152909116604482015260640160006040518083038160008780620021f7620037b6565b1580156200220f576000806200220c6200360f565b50505b505a6200221b620038f9565b5050505050501580156200223e573d6000803e3d60006200223b6200360f565b50505b50505050826001600160a01b03167fd63c302652b86334fe4eb891e7a01e61e836496485d9394f2c95b4222006ae5060405160405180910390a2505050565b6000808060cd6200228d620036d3565b906101000a90046001600160a01b03166001600160a01b03166329a42d56846040516001600160e01b031960e084901b1681526001600160a01b0390911660048201526024016020604051808303818680620022e8620037b6565b1580156200230057600080620022fd6200360f565b50505b505a6200230c62003803565b50505050501580156200232e573d6000803e3d60006200232b6200360f565b50505b505050506040513d602081101562002350576000806200234d6200360f565b50505b8101908080516001600160a01b0316939093141595945050505050565b60008060cd62000f9d620036d3565b600060cc6200238a620036d3565b906101000a90046001600160a01b03166001600160a01b03165a620023ae6200367c565b6001600160a01b031614620023ff5760405162461bcd60e51b81526020600482015260086024820152676f6e6c792064616f60c01b604482015260640160405180910390620023fc6200360f565b50505b6200240a816200227d565b6200245c5760405162461bcd60e51b8152602060048201526013602482015272185cdcd95d08191bd95cdb89dd08195e1a5cdd606a1b604482015260640160405180910390620024596200360f565b50505b600060cd6200246a620036d3565b906101000a90046001600160a01b03166001600160a01b0316634a5e42b1826040516001600160e01b031960e084901b1681526001600160a01b03909116600482015260240160006040518083038160008780620024c7620037b6565b158015620024df57600080620024dc6200360f565b50505b505a620024eb620038f9565b5050505050501580156200250e573d6000803e3d60006200250b6200360f565b50505b50505050806001600160a01b03167fe8b3c469b395bfd934168e4b7d14590c9cd1a6740533df170dbe3c219ff5a67460405160405180910390a250565b60d5602052806000526040600020905062000f7f620036d3565b6200256f62002b42565b6001600160a01b03166000606562002586620036d3565b906101000a90046001600160a01b03166001600160a01b031614620025eb5760405162461bcd60e51b8152602060048201819052602482015260008051602062004254833981519152604482015260640160405180910390620025e86200360f565b50505b808060db6200206a62003720565b600060dc6200184f620036d3565b60008160ff16600114156200263c576000609862002624620036d3565b906101000a90046001600160a01b0316905062001902565b6000609762002624620036d3565b6200265462002b42565b6001600160a01b0316600060656200266b620036d3565b906101000a90046001600160a01b03166001600160a01b031614620026d05760405162461bcd60e51b8152602060048201819052602482015260008051602062004254833981519152604482015260640160405180910390620026cd6200360f565b50505b620011e68162003052565b620026e562002b42565b6001600160a01b031660006065620026fc620036d3565b906101000a90046001600160a01b03166001600160a01b031614620027615760405162461bcd60e51b81526020600482018190526024820152600080516020620042548339815191526044820152606401604051809103906200275e6200360f565b50505b6001600160a01b038116620027b35760405162461bcd60e51b81526004018080602001828103825260268152602001806200422e6026913960400191505060405180910390620027b06200360f565b50505b6001600160a01b03811660006065620027cb620036d3565b906101000a90046001600160a01b03166001600160a01b03167f8be0079c531659141344cd1fd0a4f28419497f9722a3daafe3b4186f6b6457e060405160405180910390a380606560018162002820620036d3565b816001600160a01b0302191690836001600160a01b03160217906200206a62003720565b6001600062002852620036d3565b906101000a900460ff16806200286d57506200286d62003099565b806200288d575060008062002881620036d3565b906101000a900460ff16155b620028d55760405162461bcd60e51b815260040180806020018281038252602e81526020018062004274602e913960400191505060405180910390620028d26200360f565b50505b6000600181620028e4620036d3565b906101000a900460ff161590508015620029535760016000610100816200290a620036d3565b8160ff021916908315150217906200292162003720565b50505060016000806101000a8162002938620036d3565b8160ff021916908315150217906200294f62003720565b5050505b6200295f85856200310e565b6200296a8362002f84565b620029758262002f94565b6200298561138861271062003118565b62002993600a606462002ed0565b620029a1620151806200300b565b620029af6224ea0062001fd6565b620029bc6103e862002565565b620029c8600a62003052565b620029dc6544484544474560d01b62002cdf565b801562001ba25760008061010081620029f4620036d3565b8160ff0219169083151502179062002a0b62003720565b5050505050505050565b600082820183811015620018625760405162461bcd60e51b815260206004820152601b60248201527f536166654d6174683a206164646974696f6e206f766572666c6f77000000000060448201526064016040518091039062002a776200360f565b50509392505050565b80821115801562002a9c575060d262002a98620036d3565b8211155b62002aeb5760405162461bcd60e51b815260206004820152601060248201526f34b73b30b634b210333930b1ba34b7b760811b60448201526064016040518091039062002ae86200360f565b50505b6001600160a01b038316600090815260d4602052829060409020819062002b1162003720565b5050506001600160a01b038316600090815260d5602052819060409020819062002b3a62003720565b505050505050565b60005a6200184f6200367c565b6001600160a01b03841662002ba65760405162461bcd60e51b815260206004820152600e60248201526d1d185c99d95d0b5a5b9d985b1a5960921b60448201526064016040518091039062002ba36200360f565b50505b8162002bf25760405162461bcd60e51b815260206004820152600c60248201526b19185d184b5a5b9d985b1a5960a21b60448201526064016040518091039062002bef6200360f565b50505b606083838080601f01602080910402602001604051908101604052818152929190602084018383808284376000920182905250939450839250849150505160208401885a62002c40620039c7565b505050505080156001811462002c565762002c6d565b3d806000803e80600062002c696200360f565b5050505b5050846001600160a01b03165a62002c846200367c565b6001600160a01b03167f78a9b536049c39a00adaf57016b1376c99dd48a0faf2cef23690232f21ce42cc60405160405180910390a36001600160a01b038516600090815260d9602052829060409020819062002a0b62003720565b808060d86200206a62003720565b6001600160a01b038216600090815260dd60205281906040902060018162001b7e620036d3565b60008062002d216200318b565b90507efffc2da0b561cae30d9826d37709e9421c4725faebc226cbbb7ef5fc5e7349816040516001600160a01b03909116815260200160405180910390a1806001600160a01b031663e74a474a5a63996d79a5598160e01b8152602081600483336000905af158601d01573d60011458600c01573d6000803e3d621234565260ea61109c528051925060005b604081101562002dc65760008282015260200162002dad565b50505086866040518463ffffffff1660e01b815260040180846001600160a01b03168152602001806020018360ff168152602001828103825284818151815260200191508051906020019080838360005b8381101562002e3157808201518382015260200162002e17565b50505050905090810190601f16801562002e5f5780820380516001836020036101000a031916815260200191505b509450505050506000604051808303816000878062002e7d620037b6565b15801562002e955760008062002e926200360f565b50505b505a62002ea1620038f9565b50505050505015801562002ec4573d6000803e3d600062002ec16200360f565b50505b50929695505050505050565b8082111562002f235760405162461bcd60e51b815260206004820152601060248201526f34b73b30b634b210333930b1ba34b7b760811b60448201526064016040518091039062002f206200360f565b50505b818060ce62002f3162003720565b5050508060cf819062002f4362003720565b5050507fb10da2958bf5ec1bff3164ff753a09e0460ed44d3abf73e79b817b500ed0f2f1828260405191825260208201526040908101905180910390a15050565b8060cd60018162002820620036d3565b8060cc60018162002fa4620036d3565b816001600160a01b0302191690836001600160a01b031602179062002fc862003720565b5050507ff1034ad6b4d45dc33a4142b9c51c2b7f89bf4a410696e426cc0f3224869e0aca816040516001600160a01b03909116815260200160405180910390a150565b808060d66200301962003720565b5050507f20d916c976f3971e8200089411b0b712ef4612d98380b8ad2e3d8a8a376d85c78160405190815260200160405180910390a150565b808060d76200306062003720565b5050507f0cd8fcb5e08d7632af461f0ad793e5c63dc0d7595c301f5880650175e37a87488160405190815260200160405180910390a150565b6000805a63996d79a5598160e01b8152602081600483336000905af158601d01573d60011458600c01573d6000803e3d621234565260ea61109c528051925060005b6040811015620030f457600082820152602001620030db565b505050905060008162003106620037b6565b159250505090565b62001b33620031f2565b808211156200316b5760405162461bcd60e51b815260206004820152601060248201526f34b73b30b634b210333930b1ba34b7b760811b604482015260640160405180910390620031686200360f565b50505b818060d26200317962003720565b5050508060d3819062001ba262003720565b6000806060604051620031a160208201620039d9565b601f1982820381018352601f9091011660405290508051602082016000620031c8620039e7565b5050915081620031d7620037b6565b620031ec57600080620031e96200360f565b50505b50905090565b6001600062003200620036d3565b906101000a900460ff16806200321b57506200321b62003099565b806200323b57506000806200322f620036d3565b906101000a900460ff16155b620032835760405162461bcd60e51b815260040180806020018281038252602e81526020018062004274602e913960400191505060405180910390620032806200360f565b50505b600060018162003292620036d3565b906101000a900460ff16159050801562003301576001600061010081620032b8620036d3565b8160ff02191690831515021790620032cf62003720565b50505060016000806101000a81620032e6620036d3565b8160ff02191690831515021790620032fd62003720565b5050505b6200330b62003344565b620033156200346a565b8015620011e657600080610100816200332d620036d3565b8160ff021916908315150217906200206a62003720565b6001600062003352620036d3565b906101000a900460ff16806200336d57506200336d62003099565b806200338d575060008062003381620036d3565b906101000a900460ff16155b620033d55760405162461bcd60e51b815260040180806020018281038252602e81526020018062004274602e913960400191505060405180910390620033d26200360f565b50505b6000600181620033e4620036d3565b906101000a900460ff161590508015620033155760016000610100816200340a620036d3565b8160ff021916908315150217906200342162003720565b50505060016000806101000a8162003438620036d3565b8160ff021916908315150217906200344f62003720565b5050508015620011e657600080610100816200332d620036d3565b6001600062003478620036d3565b906101000a900460ff16806200349357506200349362003099565b80620034b35750600080620034a7620036d3565b906101000a900460ff16155b620034fb5760405162461bcd60e51b815260040180806020018281038252602e81526020018062004274602e913960400191505060405180910390620034f86200360f565b50505b60006001816200350a620036d3565b906101000a900460ff1615905080156200357957600160006101008162003530620036d3565b8160ff021916908315150217906200354762003720565b50505060016000806101000a816200355e620036d3565b8160ff021916908315150217906200357562003720565b5050505b60006200358562002b42565b905080606560018162003597620036d3565b816001600160a01b0302191690836001600160a01b0316021790620035bb62003720565b5050506001600160a01b03811660007f8be0079c531659141344cd1fd0a4f28419497f9722a3daafe3b4186f6b6457e060405160405180910390a3508015620011e657600080610100816200332d620036d3565b632a2a7adb598160e01b8152600481016020815285602082015260005b86811015620036495780860151828201604001526020016200362c565b506020828760640184336000905af158601d01573d60011458600c01573d6000803e3d621234565260ea61109c52505050565b6373509064598160e01b8152602081600483336000905af158601d01573d60011458600c01573d6000803e3d621234565260ea61109c528051935060005b604081101562001a1657600082820152602001620036ba565b6303daa959598160e01b8152836004820152602081602483336000905af158601d01573d60011458600c01573d6000803e3d621234565260ea61109c5280516000825293506020620036ba565b6322bd64c0598160e01b8152836004820152846024820152600081604483336000905af158601d01573d60011458600c01573d6000803e3d621234565260ea61109c52600081526020620036ba565b63bdbf8c36598160e01b8152602081600483336000905af158601d01573d60011458600c01573d6000803e3d621234565260ea61109c5280516000825293506020620036ba565b638435035b598160e01b8152836004820152602081602483336000905af158601d01573d60011458600c01573d6000803e3d621234565260ea61109c5280516000825293506020620036ba565b638540661f598160e01b815262003837565b808083111562001865575090919050565b808083101562001865575090919050565b836004820152846024820152606060448201528660648201526084810160005b888110156200387157808801518282015260200162003857565b506060828960a40184336000905af158601d01573d60011458600c01573d6000803e3d621234565260ea61109c52815160408301513d6000853e8b8b82606087013350600060045af15059620038c88d3d62003826565b8c01620038d6818762003815565b5b82811015620038ed5760008152602001620038d7565b50929c50505050505050565b6385979f76598160e01b8152836004820152846024820152606060448201528760648201526084810160005b898110156200393f57808901518282015260200162003925565b506060828a60a40184336000905af158601d01573d60011458600c01573d6000803e3d621234565260ea61109c52815160408301513d6000853e8c8c82606087013350600060045af15059620039968e3d62003826565b8d01620039a4818762003815565b5b82811015620039bb5760008152602001620039a5565b50929d50505050505050565b63ffe73914598160e01b815262003837565b6107c18062003a6d83390190565b6314aa2ff7598160e01b8152600481016020815286602082015260005b8781101562003a2157808701518282016040015260200162003a04565b506020828860640184336000905af158601d01573d60011458600c01573d6000803e3d621234565260ea61109c528151965059825b8181101562001ba2576000815260200162003a5656fe60806040523480156100195760008061001661001f565b50505b5061008a565b632a2a7adb598160e01b8152600481016020815285602082015260005b8681101561005757808601518282016040015260200161003c565b506020828760640184336000905af158601d01573d60011458600c01573d6000803e3d621234565260ea61109c52505050565b610728806100996000396000f3fe6080604052600436106100225760003560e01c8063e74a474a1461003957610031565b366100315761002f610117565b005b61002f610117565b61002f60048036036060811015610058576000806100556104ca565b50505b6001600160a01b03823516919081019060408101602082013564010000000081111561008c576000806100896104ca565b50505b8201836020820111156100a7576000806100a46104ca565b50505b803590602001918460018302840111640100000000831117156100d2576000806100cf6104ca565b50505b91908080601f01602080910402602001604051908101604052818152929190602084018383808284376000920191909152509295505050903560ff1691506101319050565b61011f61012f565b61012f61012a6102c3565b6103c4565b565b600061013b6102c3565b6001600160a01b03161461018e5760405162461bcd60e51b815260206004820152600d60248201526c496d706c206e6f74207a65726f60981b60448201526064016040518091039061018b6104ca565b50505b61019783610401565b6101a08161048e565b6000825111156102be5760006101b46102c3565b6001600160a01b0316836040518082805190602001908083835b602083106101ed5780518252601f1990920191602091820191016101ce565b6001836020036101000a038019825116818451168082178552505050505050905001915050600060405180830381855a610225610535565b50505050509150503d8060008114610259576040513d603f01601f191681016040523d815291503d6000602084013e61025e565b606091505b50509050806102bc5760405162461bcd60e51b815260206004820152601a60248201527f496d706c656d656e746174696f6e20696e6974206661696c65640000000000006044820152606401604051809103906102b96104ca565b50505b505b505050565b6000807f360894a13ba1a3210667c828492db98dca3e2076cc3735a920a3ca505d382bbc806102f0610622565b91506001600160a01b03821661030b576000925050506103c1565b816001600160a01b031663ecef89d561032261049d565b6040516001600160e01b031960e084901b16815260ff9091166004820152602401602060405180830381868061035661067d565b15801561036b576000806103686104ca565b50505b505a6103756106c9565b5050505050158015610394573d6000803e3d60006103916104ca565b50505b505050506040513d60208110156103b3576000806103b06104ca565b50505b810190808051955050505050505b90565b3660008037600080366000845a6103d9610535565b50505050503d6000803e8080156103ef573d6000f35b3d60006103fa6104ca565b5050505050565b61040a816104b5565b6104635760405162461bcd60e51b815260206004820181905260248201527f43616e6e6f742073657420696d706c656d656e746174696f6e20746f20454f416044820152606401604051809103906104606104ca565b50505b7f360894a13ba1a3210667c828492db98dca3e2076cc3735a920a3ca505d382bbc81816102bc6106da565b600160fc1b81816102bc6106da565b600080600160fc1b806104ae610622565b9250505090565b600080826104c161067d565b15159392505050565b632a2a7adb598160e01b8152600481016020815285602082015260005b868110156105025780860151828201604001526020016104e7565b506020828760640184336000905af158601d01573d60011458600c01573d6000803e3d621234565260ea61109c52505050565b63ffe73914598160e01b8152610568565b80808311156105525750815b92915050565b8080831015610552575090919050565b836004820152846024820152606060448201528660648201526084810160005b888110156105a0578088015182820152602001610588565b506060828960a40184336000905af158601d01573d60011458600c01573d6000803e3d621234565260ea61109c52815160408301513d6000853e8b8b82606087013350600060045af150596105f58d3d610558565b8c016106018187610546565b5b828110156106165760008152602001610602565b50929c50505050505050565b6303daa959598160e01b8152836004820152602081602483336000905af158601d01573d60011458600c01573d6000803e3d621234565260ea61109c528051935060005b60408110156102be57600082820152602001610666565b638435035b598160e01b8152836004820152602081602483336000905af158601d01573d60011458600c01573d6000803e3d621234565260ea61109c5280516000825293506020610666565b638540661f598160e01b8152610568565b6322bd64c0598160e01b8152836004820152846024820152600081604483336000905af158601d01573d60011458600c01573d6000803e3d621234565260ea61109c52600081526020610666564f776e61626c653a206e6577206f776e657220697320746865207a65726f20616464726573734f776e61626c653a2063616c6c6572206973206e6f7420746865206f776e6572436f6e747261637420696e7374616e63652068617320616c7265616479206265656e20696e697469616c697a6564",
  "linkReferences": {},
  "deployedLinkReferences": {}
}