{
  "_format": "hh-sol-artifact-1",
  "contractName": "PoolFactory",
  "sourceName": "contracts/PoolFactory.sol",
  "abi": [
    {
      "anonymous": false,
      "inputs": [
        {
          "indexed": true,
          "internalType": "address",
          "name": "asset",
          "type": "address"
        }
      ],
      "name": "AddedValidAsset",
      "type": "event"
    },
    {
      "anonymous": false,
      "inputs": [
        {
          "indexed": false,
          "internalType": "address",
          "name": "dao",
          "type": "address"
        }
      ],
      "name": "DaoAddressSet",
      "type": "event"
    },
    {
      "anonymous": false,
      "inputs": [
        {
          "indexed": false,
          "internalType": "uint256",
          "name": "numerator",
          "type": "uint256"
        },
        {
          "indexed": false,
          "internalType": "uint256",
          "name": "denominator",
          "type": "uint256"
        }
      ],
      "name": "DaoFeeSet",
      "type": "event"
    },
    {
      "anonymous": false,
      "inputs": [
        {
          "indexed": false,
          "internalType": "uint256",
          "name": "cooldown",
          "type": "uint256"
        }
      ],
      "name": "ExitCooldownSet",
      "type": "event"
    },
    {
      "anonymous": false,
      "inputs": [
        {
          "indexed": false,
          "internalType": "uint256",
          "name": "numerator",
          "type": "uint256"
        },
        {
          "indexed": false,
          "internalType": "uint256",
          "name": "denominator",
          "type": "uint256"
        }
      ],
      "name": "ExitFeeSet",
      "type": "event"
    },
    {
      "anonymous": false,
      "inputs": [
        {
          "indexed": false,
          "internalType": "address",
          "name": "fundAddress",
          "type": "address"
        },
        {
          "indexed": false,
          "internalType": "bool",
          "name": "isPoolPrivate",
          "type": "bool"
        },
        {
          "indexed": false,
          "internalType": "string",
          "name": "fundName",
          "type": "string"
        },
        {
          "indexed": false,
          "internalType": "string",
          "name": "managerName",
          "type": "string"
        },
        {
          "indexed": false,
          "internalType": "address",
          "name": "manager",
          "type": "address"
        },
        {
          "indexed": false,
          "internalType": "uint256",
          "name": "time",
          "type": "uint256"
        },
        {
          "indexed": false,
          "internalType": "uint256",
          "name": "managerFeeNumerator",
          "type": "uint256"
        },
        {
          "indexed": false,
          "internalType": "uint256",
          "name": "managerFeeDenominator",
          "type": "uint256"
        }
      ],
      "name": "FundCreated",
      "type": "event"
    },
    {
      "anonymous": false,
      "inputs": [
        {
          "indexed": true,
          "internalType": "address",
          "name": "manager",
          "type": "address"
        },
        {
          "indexed": true,
          "internalType": "address",
          "name": "pool",
          "type": "address"
        }
      ],
      "name": "LogUpgrade",
      "type": "event"
    },
    {
      "anonymous": false,
      "inputs": [
        {
          "indexed": false,
          "internalType": "uint256",
          "name": "count",
          "type": "uint256"
        }
      ],
      "name": "MaximumSupportedAssetCountSet",
      "type": "event"
    },
    {
      "anonymous": false,
      "inputs": [
        {
          "indexed": true,
          "internalType": "address",
          "name": "previousOwner",
          "type": "address"
        },
        {
          "indexed": true,
          "internalType": "address",
          "name": "newOwner",
          "type": "address"
        }
      ],
      "name": "OwnershipTransferred",
      "type": "event"
    },
    {
      "anonymous": false,
      "inputs": [
        {
          "indexed": false,
          "internalType": "address",
          "name": "proxy",
          "type": "address"
        }
      ],
      "name": "ProxyCreated",
      "type": "event"
    },
    {
      "anonymous": false,
      "inputs": [
        {
          "indexed": true,
          "internalType": "address",
          "name": "asset",
          "type": "address"
        }
      ],
      "name": "RemovedValidAsset",
      "type": "event"
    },
    {
      "inputs": [
        {
          "internalType": "address",
          "name": "asset",
          "type": "address"
        },
        {
          "internalType": "uint8",
          "name": "assetType",
          "type": "uint8"
        },
        {
          "internalType": "address",
          "name": "aggregator",
          "type": "address"
        }
      ],
      "name": "addValidAsset",
      "outputs": [],
      "stateMutability": "nonpayable",
      "type": "function"
    },
    {
      "inputs": [
        {
          "internalType": "bool",
          "name": "_privatePool",
          "type": "bool"
        },
        {
          "internalType": "address",
          "name": "_manager",
          "type": "address"
        },
        {
          "internalType": "string",
          "name": "_managerName",
          "type": "string"
        },
        {
          "internalType": "string",
          "name": "_fundName",
          "type": "string"
        },
        {
          "internalType": "string",
          "name": "_fundSymbol",
          "type": "string"
        },
        {
          "internalType": "uint256",
          "name": "_managerFeeNumerator",
          "type": "uint256"
        },
        {
          "internalType": "address[]",
          "name": "_supportedAssets",
          "type": "address[]"
        }
      ],
      "name": "createFund",
      "outputs": [
        {
          "internalType": "address",
          "name": "",
          "type": "address"
        }
      ],
      "stateMutability": "nonpayable",
      "type": "function"
    },
    {
      "inputs": [
        {
          "internalType": "bytes",
          "name": "_data",
          "type": "bytes"
        },
        {
          "internalType": "uint8",
          "name": "_proxyType",
          "type": "uint8"
        }
      ],
      "name": "deploy",
      "outputs": [
        {
          "internalType": "address",
          "name": "",
          "type": "address"
        }
      ],
      "stateMutability": "nonpayable",
      "type": "function"
    },
    {
      "inputs": [
        {
          "internalType": "uint256",
          "name": "",
          "type": "uint256"
        }
      ],
      "name": "deployedFunds",
      "outputs": [
        {
          "internalType": "address",
          "name": "",
          "type": "address"
        }
      ],
      "stateMutability": "view",
      "type": "function"
    },
    {
      "inputs": [],
      "name": "deployedFundsLength",
      "outputs": [
        {
          "internalType": "uint256",
          "name": "",
          "type": "uint256"
        }
      ],
      "stateMutability": "view",
      "type": "function"
    },
    {
      "inputs": [
        {
          "internalType": "address",
          "name": "asset",
          "type": "address"
        }
      ],
      "name": "getAssetPrice",
      "outputs": [
        {
          "internalType": "uint256",
          "name": "",
          "type": "uint256"
        }
      ],
      "stateMutability": "view",
      "type": "function"
    },
    {
      "inputs": [],
      "name": "getDaoAddress",
      "outputs": [
        {
          "internalType": "address",
          "name": "",
          "type": "address"
        }
      ],
      "stateMutability": "view",
      "type": "function"
    },
    {
      "inputs": [],
      "name": "getDaoFee",
      "outputs": [
        {
          "internalType": "uint256",
          "name": "",
          "type": "uint256"
        },
        {
          "internalType": "uint256",
          "name": "",
          "type": "uint256"
        }
      ],
      "stateMutability": "view",
      "type": "function"
    },
    {
      "inputs": [],
      "name": "getExitCooldown",
      "outputs": [
        {
          "internalType": "uint256",
          "name": "",
          "type": "uint256"
        }
      ],
      "stateMutability": "view",
      "type": "function"
    },
    {
      "inputs": [
        {
          "internalType": "address",
          "name": "extContract",
          "type": "address"
        }
      ],
      "name": "getGuard",
      "outputs": [
        {
          "internalType": "address",
          "name": "",
          "type": "address"
        }
      ],
      "stateMutability": "view",
      "type": "function"
    },
    {
      "inputs": [
        {
          "internalType": "uint8",
          "name": "_proxyType",
          "type": "uint8"
        }
      ],
      "name": "getLogic",
      "outputs": [
        {
          "internalType": "address",
          "name": "",
          "type": "address"
        }
      ],
      "stateMutability": "view",
      "type": "function"
    },
    {
      "inputs": [],
      "name": "getManagerFeeNumeratorChangeDelay",
      "outputs": [
        {
          "internalType": "uint256",
          "name": "",
          "type": "uint256"
        }
      ],
      "stateMutability": "view",
      "type": "function"
    },
    {
      "inputs": [],
      "name": "getMaximumManagerFee",
      "outputs": [
        {
          "internalType": "uint256",
          "name": "",
          "type": "uint256"
        },
        {
          "internalType": "uint256",
          "name": "",
          "type": "uint256"
        }
      ],
      "stateMutability": "view",
      "type": "function"
    },
    {
      "inputs": [],
      "name": "getMaximumManagerFeeNumeratorChange",
      "outputs": [
        {
          "internalType": "uint256",
          "name": "",
          "type": "uint256"
        }
      ],
      "stateMutability": "view",
      "type": "function"
    },
    {
      "inputs": [],
      "name": "getMaximumSupportedAssetCount",
      "outputs": [
        {
          "internalType": "uint256",
          "name": "",
          "type": "uint256"
        }
      ],
      "stateMutability": "view",
      "type": "function"
    },
    {
      "inputs": [
        {
          "internalType": "address",
          "name": "pool",
          "type": "address"
        }
      ],
      "name": "getPoolManagerFee",
      "outputs": [
        {
          "internalType": "uint256",
          "name": "",
          "type": "uint256"
        },
        {
          "internalType": "uint256",
          "name": "",
          "type": "uint256"
        }
      ],
      "stateMutability": "view",
      "type": "function"
    },
    {
      "inputs": [],
      "name": "getPriceConsumer",
      "outputs": [
        {
          "internalType": "address",
          "name": "",
          "type": "address"
        }
      ],
      "stateMutability": "view",
      "type": "function"
    },
    {
      "inputs": [],
      "name": "getTrackingCode",
      "outputs": [
        {
          "internalType": "bytes32",
          "name": "",
          "type": "bytes32"
        }
      ],
      "stateMutability": "view",
      "type": "function"
    },
    {
      "inputs": [
        {
          "internalType": "address",
          "name": "_poolLogic",
          "type": "address"
        },
        {
          "internalType": "address",
          "name": "_managerLogic",
          "type": "address"
        },
        {
          "internalType": "address",
          "name": "priceConsumer",
          "type": "address"
        },
        {
          "internalType": "address",
          "name": "daoAddress",
          "type": "address"
        },
        {
          "internalType": "address[]",
          "name": "_validAssets",
          "type": "address[]"
        },
        {
          "internalType": "uint8[]",
          "name": "_assetTypes",
          "type": "uint8[]"
        },
        {
          "internalType": "address[]",
          "name": "_aggregators",
          "type": "address[]"
        }
      ],
      "name": "initialize",
      "outputs": [],
      "stateMutability": "nonpayable",
      "type": "function"
    },
    {
      "inputs": [
        {
          "internalType": "address",
          "name": "",
          "type": "address"
        }
      ],
      "name": "isPool",
      "outputs": [
        {
          "internalType": "bool",
          "name": "",
          "type": "bool"
        }
      ],
      "stateMutability": "view",
      "type": "function"
    },
    {
      "inputs": [
        {
          "internalType": "address",
          "name": "",
          "type": "address"
        }
      ],
      "name": "isPoolManager",
      "outputs": [
        {
          "internalType": "bool",
          "name": "",
          "type": "bool"
        }
      ],
      "stateMutability": "view",
      "type": "function"
    },
    {
      "inputs": [
        {
          "internalType": "address",
          "name": "asset",
          "type": "address"
        }
      ],
      "name": "isValidAsset",
      "outputs": [
        {
          "internalType": "bool",
          "name": "",
          "type": "bool"
        }
      ],
      "stateMutability": "view",
      "type": "function"
    },
    {
      "inputs": [],
      "name": "managerFeeNumeratorChangeDelay",
      "outputs": [
        {
          "internalType": "uint256",
          "name": "",
          "type": "uint256"
        }
      ],
      "stateMutability": "view",
      "type": "function"
    },
    {
      "inputs": [],
      "name": "maximumManagerFeeNumeratorChange",
      "outputs": [
        {
          "internalType": "uint256",
          "name": "",
          "type": "uint256"
        }
      ],
      "stateMutability": "view",
      "type": "function"
    },
    {
      "inputs": [],
      "name": "owner",
      "outputs": [
        {
          "internalType": "address",
          "name": "",
          "type": "address"
        }
      ],
      "stateMutability": "view",
      "type": "function"
    },
    {
      "inputs": [
        {
          "internalType": "address",
          "name": "",
          "type": "address"
        }
      ],
      "name": "poolManagerFeeDenominator",
      "outputs": [
        {
          "internalType": "uint256",
          "name": "",
          "type": "uint256"
        }
      ],
      "stateMutability": "view",
      "type": "function"
    },
    {
      "inputs": [
        {
          "internalType": "address",
          "name": "",
          "type": "address"
        }
      ],
      "name": "poolManagerFeeNumerator",
      "outputs": [
        {
          "internalType": "uint256",
          "name": "",
          "type": "uint256"
        }
      ],
      "stateMutability": "view",
      "type": "function"
    },
    {
      "inputs": [],
      "name": "poolStorageVersion",
      "outputs": [
        {
          "internalType": "uint256",
          "name": "",
          "type": "uint256"
        }
      ],
      "stateMutability": "view",
      "type": "function"
    },
    {
      "inputs": [
        {
          "internalType": "address",
          "name": "",
          "type": "address"
        }
      ],
      "name": "poolVersion",
      "outputs": [
        {
          "internalType": "uint256",
          "name": "",
          "type": "uint256"
        }
      ],
      "stateMutability": "view",
      "type": "function"
    },
    {
      "inputs": [
        {
          "internalType": "address",
          "name": "asset",
          "type": "address"
        }
      ],
      "name": "removeValidAsset",
      "outputs": [],
      "stateMutability": "nonpayable",
      "type": "function"
    },
    {
      "inputs": [],
      "name": "renounceOwnership",
      "outputs": [],
      "stateMutability": "nonpayable",
      "type": "function"
    },
    {
      "inputs": [
        {
          "internalType": "address",
          "name": "daoAddress",
          "type": "address"
        }
      ],
      "name": "setDaoAddress",
      "outputs": [],
      "stateMutability": "nonpayable",
      "type": "function"
    },
    {
      "inputs": [
        {
          "internalType": "uint256",
          "name": "numerator",
          "type": "uint256"
        },
        {
          "internalType": "uint256",
          "name": "denominator",
          "type": "uint256"
        }
      ],
      "name": "setDaoFee",
      "outputs": [],
      "stateMutability": "nonpayable",
      "type": "function"
    },
    {
      "inputs": [
        {
          "internalType": "uint256",
          "name": "cooldown",
          "type": "uint256"
        }
      ],
      "name": "setExitCooldown",
      "outputs": [],
      "stateMutability": "nonpayable",
      "type": "function"
    },
    {
      "inputs": [
        {
          "internalType": "address",
          "name": "extContract",
          "type": "address"
        },
        {
          "internalType": "address",
          "name": "guardAddress",
          "type": "address"
        }
      ],
      "name": "setGuard",
      "outputs": [],
      "stateMutability": "nonpayable",
      "type": "function"
    },
    {
      "inputs": [
        {
          "internalType": "address",
          "name": "_poolLogic",
          "type": "address"
        },
        {
          "internalType": "address",
          "name": "_poolManagerLogic",
          "type": "address"
        }
      ],
      "name": "setLogic",
      "outputs": [],
      "stateMutability": "nonpayable",
      "type": "function"
    },
    {
      "inputs": [
        {
          "internalType": "uint256",
          "name": "delay",
          "type": "uint256"
        }
      ],
      "name": "setManagerFeeNumeratorChangeDelay",
      "outputs": [],
      "stateMutability": "nonpayable",
      "type": "function"
    },
    {
      "inputs": [
        {
          "internalType": "uint256",
          "name": "amount",
          "type": "uint256"
        }
      ],
      "name": "setMaximumManagerFeeNumeratorChange",
      "outputs": [],
      "stateMutability": "nonpayable",
      "type": "function"
    },
    {
      "inputs": [
        {
          "internalType": "uint256",
          "name": "count",
          "type": "uint256"
        }
      ],
      "name": "setMaximumSupportedAssetCount",
      "outputs": [],
      "stateMutability": "nonpayable",
      "type": "function"
    },
    {
      "inputs": [
        {
          "internalType": "address",
          "name": "pool",
          "type": "address"
        },
        {
          "internalType": "uint256",
          "name": "numerator",
          "type": "uint256"
        }
      ],
      "name": "setPoolManagerFeeNumerator",
      "outputs": [],
      "stateMutability": "nonpayable",
      "type": "function"
    },
    {
      "inputs": [
        {
          "internalType": "address",
          "name": "priceConsumer",
          "type": "address"
        }
      ],
      "name": "setPriceConsumer",
      "outputs": [],
      "stateMutability": "nonpayable",
      "type": "function"
    },
    {
      "inputs": [
        {
          "internalType": "bytes32",
          "name": "code",
          "type": "bytes32"
        }
      ],
      "name": "setTrackingCode",
      "outputs": [],
      "stateMutability": "nonpayable",
      "type": "function"
    },
    {
      "inputs": [
        {
          "internalType": "address",
          "name": "newOwner",
          "type": "address"
        }
      ],
      "name": "transferOwnership",
      "outputs": [],
      "stateMutability": "nonpayable",
      "type": "function"
    },
    {
      "inputs": [
        {
          "internalType": "uint256",
          "name": "startIndex",
          "type": "uint256"
        },
        {
          "internalType": "uint256",
          "name": "endIndex",
          "type": "uint256"
        },
        {
          "internalType": "uint256",
          "name": "sourceVersion",
          "type": "uint256"
        },
        {
          "internalType": "uint256",
          "name": "targetVersion",
          "type": "uint256"
        },
        {
          "internalType": "bytes",
          "name": "data",
          "type": "bytes"
        }
      ],
      "name": "upgradePoolBatch",
      "outputs": [],
      "stateMutability": "nonpayable",
      "type": "function"
    }
  ],
  "bytecode": "0x608060405234801561001057600080fd5b50612d1c806100206000396000f3fe608060405234801561001057600080fd5b50600436106102745760003560e01c80639a068bd611610151578063c4a22677116100c3578063e60eb41211610087578063e60eb41214610b8b578063e99c0fa614610bb1578063ebee461d14610bce578063ecef89d514610bd6578063eec16c4414610bf6578063f2fde38b14610c1357610274565b8063c4a2267714610931578063cc435bf31461096a578063ce26e9ef14610990578063dc76d25414610998578063e527a104146109be57610274565b8063b193a5f411610115578063b193a5f414610874578063b3596f071461089a578063b7a54526146108c0578063bcb01f44146108e6578063bee37e5214610903578063bfeaf71d1461092957610274565b80639a068bd6146108045780639a3cac6a146108215780639cada6e414610847578063aa12ae4d1461084f578063aa7d664e1461085757610274565b806349f7c02d116101ea578063715018a6116101ae578063715018a61461075c578063771d1baf14610764578063808ae5fb1461078757806386e76f73146107b55780638da5cb5b146107db57806394d0d23b146107e357610274565b806349f7c02d146106c65780635556ee55146106ce5780635b16ebb7146106f45780635c9bfc2b1461072e5780637027ea6c1461073657610274565b80631e666d131161023c5780631e666d13146102f55780631e8e8bca1461037b578063227773ee14610398578063391d348b146103c65780634501b0881461061557806345812ca51461061d57610274565b8063046b72c4146102795780630bf99bd9146102a75780630f6559c4146102c157806310bf69dc146102c95780631d68702d146102d1575b600080fd5b6102a56004803603604081101561028f57600080fd5b506001600160a01b038135169060200135610c39565b005b6102af610d8a565b60408051918252519081900360200190f35b6102af610d90565b6102af610d96565b6102d9610d9c565b604080516001600160a01b039092168252519081900360200190f35b6102a5600480360360a081101561030b57600080fd5b81359160208101359160408201359160608101359181019060a081016080820135600160201b81111561033d57600080fd5b82018360208201111561034f57600080fd5b803590602001918460018302840111600160201b8311171561037057600080fd5b509092509050610dab565b6102a56004803603602081101561039157600080fd5b5035610ece565b6102a5600480360360408110156103ae57600080fd5b506001600160a01b0381358116916020013516610f32565b6102d9600480360360e08110156103dc57600080fd5b81351515916001600160a01b0360208201351691810190606081016040820135600160201b81111561040d57600080fd5b82018360208201111561041f57600080fd5b803590602001918460018302840111600160201b8311171561044057600080fd5b91908080601f0160208091040260200160405190810160405280939291908181526020018383808284376000920191909152509295949360208101935035915050600160201b81111561049257600080fd5b8201836020820111156104a457600080fd5b803590602001918460018302840111600160201b831117156104c557600080fd5b91908080601f0160208091040260200160405190810160405280939291908181526020018383808284376000920191909152509295949360208101935035915050600160201b81111561051757600080fd5b82018360208201111561052957600080fd5b803590602001918460018302840111600160201b8311171561054a57600080fd5b91908080601f01602080910402602001604051908101604052809392919081815260200183838082843760009201919091525092958435959094909350604081019250602001359050600160201b8111156105a457600080fd5b8201836020820111156105b657600080fd5b803590602001918460208302840111600160201b831117156105d757600080fd5b919080806020026020016040519081016040528093929190818152602001838360200280828437600092019190915250929550610f86945050505050565b6102af6113e8565b6102d96004803603604081101561063357600080fd5b810190602081018135600160201b81111561064d57600080fd5b82018360208201111561065f57600080fd5b803590602001918460018302840111600160201b8311171561068057600080fd5b91908080601f0160208091040260200160405190810160405280939291908181526020018383808284376000920191909152509295505050903560ff1691506113ee9050565b6102af611401565b6102af600480360360208110156106e457600080fd5b50356001600160a01b0316611407565b61071a6004803603602081101561070a57600080fd5b50356001600160a01b0316611419565b604080519115158252519081900360200190f35b6102af61142e565b6102d96004803603602081101561074c57600080fd5b50356001600160a01b0316611434565b6102a5611455565b6102a56004803603604081101561077a57600080fd5b50803590602001356114f7565b6102a56004803603604081101561079d57600080fd5b506001600160a01b0381358116916020013516611559565b6102a5600480360360208110156107cb57600080fd5b50356001600160a01b03166115df565b6102d9611640565b6107eb61164f565b6040805192835260208301919091528051918290030190f35b6102d96004803603602081101561081a57600080fd5b5035611659565b6102a56004803603602081101561083757600080fd5b50356001600160a01b0316611680565b6107eb6116e1565b6102af6116eb565b6102a56004803603602081101561086d57600080fd5b50356116f1565b61071a6004803603602081101561088a57600080fd5b50356001600160a01b0316611752565b6102af600480360360208110156108b057600080fd5b50356001600160a01b0316611767565b6107eb600480360360208110156108d657600080fd5b50356001600160a01b03166117ea565b6102a5600480360360208110156108fc57600080fd5b5035611888565b6102af6004803603602081101561091957600080fd5b50356001600160a01b03166118e5565b6102af6118f7565b6102a56004803603606081101561094757600080fd5b506001600160a01b03813581169160ff60208201351691604090910135166118fd565b61071a6004803603602081101561098057600080fd5b50356001600160a01b0316611a5f565b6102d9611a7d565b6102a5600480360360208110156109ae57600080fd5b50356001600160a01b0316611a8c565b6102a5600480360360e08110156109d457600080fd5b6001600160a01b03823581169260208101358216926040820135831692606083013516919081019060a081016080820135600160201b811115610a1657600080fd5b820183602082011115610a2857600080fd5b803590602001918460208302840111600160201b83111715610a4957600080fd5b9190808060200260200160405190810160405280939291908181526020018383602002808284376000920191909152509295949360208101935035915050600160201b811115610a9857600080fd5b820183602082011115610aaa57600080fd5b803590602001918460208302840111600160201b83111715610acb57600080fd5b9190808060200260200160405190810160405280939291908181526020018383602002808284376000920191909152509295949360208101935035915050600160201b811115610b1a57600080fd5b820183602082011115610b2c57600080fd5b803590602001918460208302840111600160201b83111715610b4d57600080fd5b919080806020026020016040519081016040528093929190818152602001838360200280828437600092019190915250929550611bd6945050505050565b6102af60048036036020811015610ba157600080fd5b50356001600160a01b0316611e1f565b6102a560048036036020811015610bc757600080fd5b5035611e31565b6102af611e8e565b6102d960048036036020811015610bec57600080fd5b503560ff16611e94565b6102a560048036036020811015610c0c57600080fd5b5035611ec6565b6102a560048036036020811015610c2957600080fd5b50356001600160a01b0316611f27565b33600090815260d1602052604090205460ff161515600114610c97576040805162461bcd60e51b81526020600482015260126024820152712737ba1030903837b7b61036b0b730b3b2b960711b604482015290519081900360640190fd5b6001600160a01b038216600090815260d0602052604090205460ff161515600114610d09576040805162461bcd60e51b815260206004820152601e60248201527f737570706c6965642061646472657373206973206e6f74206120706f6f6c0000604482015290519081900360640190fd5b60dc546001600160a01b038316600090815260d46020526040902054610d2e91612020565b811115610d79576040805162461bcd60e51b81526020600482015260146024820152730dac2dcc2cecae440cccaca40e8dede40d0d2ced60631b604482015290519081900360640190fd5b610d86828260d35461207a565b5050565b60cb5490565b60db5481565b60dc5481565b60cc546001600160a01b031690565b610db36120f8565b6065546001600160a01b03908116911614610e03576040805162461bcd60e51b81526020600482018190526024820152600080516020612c99833981519152604482015290519081900360640190fd5b848611158015610e14575060cb5486105b8015610e21575060cb5485105b610e63576040805162461bcd60e51b815260206004820152600e60248201526d696e76616c696420626f756e647360901b604482015290519081900360640190fd5b855b858111610ec557600060cb8281548110610e7b57fe5b60009182526020808320909101546001600160a01b031680835260da9091526040909120549091508614610eaf5750610ebd565b610ebb818585886120fc565b505b600101610e65565b50505050505050565b610ed66120f8565b6065546001600160a01b03908116911614610f26576040805162461bcd60e51b81526020600482018190526024820152600080516020612c99833981519152604482015290519081900360640190fd5b610f2f81612244565b50565b60cc546001600160a01b03163314610f7c576040805162461bcd60e51b81526020600482015260086024820152676f6e6c792064616f60c01b604482015290519081900360640190fd5b610d868282612249565b600060603088888560405160240180856001600160a01b03168152602001846001600160a01b031681526020018060200180602001838103835285818151815260200191508051906020019080838360005b83811015610ff0578181015183820152602001610fd8565b50505050905090810190601f16801561101d5780820380516001836020036101000a031916815260200191505b508381038252845181528451602091820191808701910280838360005b8381101561105257818101518382015260200161103a565b5050505090500196505050505050506040516020818303038152906040526331a22a9960e21b6001600160e01b0319166020820180516001600160e01b038381831617835250505050905060006110aa8260016113ee565b90506060308b89898560405160240180866001600160a01b0316815260200185151581526020018060200180602001846001600160a01b03168152602001838103835286818151815260200191508051906020019080838360005b8381101561111d578181015183820152602001611105565b50505050905090810190601f16801561114a5780820380516001836020036101000a031916815260200191505b50838103825285518152855160209182019187019080838360005b8381101561117d578181015183820152602001611165565b50505050905090810190601f1680156111aa5780820380516001836020036101000a031916815260200191505b5060408051601f198184030181529190526020810180516001600160e01b0316630ccb30c760e01b1790529850600097506111f19650889550600294506113ee9350505050565b60cb805460018082019092557fa7ce836d032b2bf62b7e2097a8e0a6d8aeb35405ad15271e96d3b0188a1d06fb0180546001600160a01b0319166001600160a01b03848116918217909255600081815260d060209081526040808320805460ff199081168817909155948a16835260d18252808320805490951690951790935560db5491815260da9092529190205560d354909150611293908290899061207a565b7f73a0638fe578fc759744633aa170a433061ca2cc1bb855d116c506e04a29901f818d8b8d8f428d60d35460405180896001600160a01b0316815260200188151581526020018060200180602001876001600160a01b03168152602001868152602001858152602001848152602001838103835289818151815260200191508051906020019080838360005b8381101561133757818101518382015260200161131f565b50505050905090810190601f1680156113645780820380516001836020036101000a031916815260200191505b5083810382528851815288516020918201918a019080838360005b8381101561139757818101518382015260200161137f565b50505050905090810190601f1680156113c45780820380516001836020036101000a031916815260200191505b509a505050505050505050505060405180910390a19b9a5050505050505050505050565b60d65490565b60006113fa8383612277565b9392505050565b60d95490565b60da6020526000908152604090205481565b60d06020526000908152604090205460ff1681565b60dc5490565b6001600160a01b03808216600090815260de6020526040902054165b919050565b61145d6120f8565b6065546001600160a01b039081169116146114ad576040805162461bcd60e51b81526020600482018190526024820152600080516020612c99833981519152604482015290519081900360640190fd5b6065546040516000916001600160a01b0316907f8be0079c531659141344cd1fd0a4f28419497f9722a3daafe3b4186f6b6457e0908390a3606580546001600160a01b0319169055565b6114ff6120f8565b6065546001600160a01b0390811691161461154f576040805162461bcd60e51b81526020600482018190526024820152600080516020612c99833981519152604482015290519081900360640190fd5b610d8682826123a5565b6115616120f8565b6065546001600160a01b039081169116146115b1576040805162461bcd60e51b81526020600482018190526024820152600080516020612c99833981519152604482015290519081900360640190fd5b609780546001600160a01b039384166001600160a01b03199182161790915560988054929093169116179055565b6115e76120f8565b6065546001600160a01b03908116911614611637576040805162461bcd60e51b81526020600482018190526024820152600080516020612c99833981519152604482015290519081900360640190fd5b610f2f81612436565b6065546001600160a01b031690565b60d25460d3549091565b60cb818154811061166657fe5b6000918252602090912001546001600160a01b0316905081565b6116886120f8565b6065546001600160a01b039081169116146116d8576040805162461bcd60e51b81526020600482018190526024820152600080516020612c99833981519152604482015290519081900360640190fd5b610f2f81612458565b60ce5460cf549091565b60d85490565b6116f96120f8565b6065546001600160a01b03908116911614611749576040805162461bcd60e51b81526020600482018190526024820152600080516020612c99833981519152604482015290519081900360640190fd5b610f2f816124ac565b60d16020526000908152604090205460ff1681565b60cd5460408051638b2f0f4f60e01b81526001600160a01b03848116600483015291516000939290921691638b2f0f4f91602480820192602092909190829003018186803b1580156117b857600080fd5b505afa1580156117cc573d6000803e3d6000fd5b505050506040513d60208110156117e257600080fd5b505192915050565b6001600160a01b038116600090815260d06020526040812054819060ff16151560011461185e576040805162461bcd60e51b815260206004820152601e60248201527f737570706c6965642061646472657373206973206e6f74206120706f6f6c0000604482015290519081900360640190fd5b50506001600160a01b0316600090815260d4602090815260408083205460d5909252909120549091565b6118906120f8565b6065546001600160a01b039081169116146118e0576040805162461bcd60e51b81526020600482018190526024820152600080516020612c99833981519152604482015290519081900360640190fd5b60dd55565b60d46020526000908152604090205481565b60dd5481565b60cc546001600160a01b03163314611947576040805162461bcd60e51b81526020600482015260086024820152676f6e6c792064616f60c01b604482015290519081900360640190fd5b61195083611a5f565b15611999576040805162461bcd60e51b8152602060048201526014602482015273617373657420616c72656164792065786973747360601b604482015290519081900360640190fd5b6001600160a01b03808416600081815260d76020526040808220805460ff1916600117905560cd54815163172374a960e31b8152600481019490945260ff871660248501528585166044850152905193169263b91ba54892606480820193929182900301818387803b158015611a0e57600080fd5b505af1158015611a22573d6000803e3d6000fd5b50506040516001600160a01b03861692507fd63c302652b86334fe4eb891e7a01e61e836496485d9394f2c95b4222006ae509150600090a2505050565b6001600160a01b0316600090815260d7602052604090205460ff1690565b60cd546001600160a01b031690565b60cc546001600160a01b03163314611ad6576040805162461bcd60e51b81526020600482015260086024820152676f6e6c792064616f60c01b604482015290519081900360640190fd5b611adf81611a5f565b611b26576040805162461bcd60e51b8152602060048201526013602482015272185cdcd95d08191bd95cdb89dd08195e1a5cdd606a1b604482015290519081900360640190fd5b6001600160a01b03808216600081815260d76020526040808220805460ff1916905560cd548151634a5e42b160e01b815260048101949094529051931692634a5e42b192602480820193929182900301818387803b158015611b8757600080fd5b505af1158015611b9b573d6000803e3d6000fd5b50506040516001600160a01b03841692507fe8b3c469b395bfd934168e4b7d14590c9cd1a6740533df170dbe3c219ff5a6749150600090a250565b600054610100900460ff1680611bef5750611bef6124e7565b80611bfd575060005460ff16155b611c385760405162461bcd60e51b815260040180806020018281038252602e815260200180612cb9602e913960400191505060405180910390fd5b600054610100900460ff16158015611c63576000805460ff1961ff0019909116610100171660011790555b611c6d88886124ed565b611c7686612436565b611c7f85612458565b611c8d6113886127106124f5565b611c99600a60646123a5565b611ca5620151806124ac565b611cb16224ea00611888565b611cbc6103e8611e31565b611cc6600a612548565b611cd86544484544474560d01b612244565b60005b84518160ff161015611e0257600160d76000878460ff1681518110611cfc57fe5b6020908102919091018101516001600160a01b03908116835290820192909252604001600020805460ff19169215159290921790915560cd54865191169063b91ba54890879060ff8516908110611d4f57fe5b6020026020010151868460ff1681518110611d6657fe5b6020026020010151868560ff1681518110611d7d57fe5b60200260200101516040518463ffffffff1660e01b815260040180846001600160a01b031681526020018360ff168152602001826001600160a01b031681526020019350505050600060405180830381600087803b158015611dde57600080fd5b505af1158015611df2573d6000803e3d6000fd5b505060019092019150611cdb9050565b508015611e15576000805461ff00191690555b5050505050505050565b60d56020526000908152604090205481565b611e396120f8565b6065546001600160a01b03908116911614611e89576040805162461bcd60e51b81526020600482018190526024820152600080516020612c99833981519152604482015290519081900360640190fd5b60dc55565b60dd5490565b60008160ff1660011415611eb457506098546001600160a01b0316611450565b506097546001600160a01b0316611450565b611ece6120f8565b6065546001600160a01b03908116911614611f1e576040805162461bcd60e51b81526020600482018190526024820152600080516020612c99833981519152604482015290519081900360640190fd5b610f2f81612548565b611f2f6120f8565b6065546001600160a01b03908116911614611f7f576040805162461bcd60e51b81526020600482018190526024820152600080516020612c99833981519152604482015290519081900360640190fd5b6001600160a01b038116611fc45760405162461bcd60e51b8152600401808060200182810382526026815260200180612c736026913960400191505060405180910390fd5b6065546040516001600160a01b038084169216907f8be0079c531659141344cd1fd0a4f28419497f9722a3daafe3b4186f6b6457e090600090a3606580546001600160a01b0319166001600160a01b0392909216919091179055565b6000828201838110156113fa576040805162461bcd60e51b815260206004820152601b60248201527f536166654d6174683a206164646974696f6e206f766572666c6f770000000000604482015290519081900360640190fd5b80821115801561208c575060d2548211155b6120d0576040805162461bcd60e51b815260206004820152601060248201526f34b73b30b634b210333930b1ba34b7b760811b604482015290519081900360640190fd5b6001600160a01b03909216600090815260d4602090815260408083209390935560d590522055565b3390565b6001600160a01b038416612148576040805162461bcd60e51b815260206004820152600e60248201526d1d185c99d95d0b5a5b9d985b1a5960921b604482015290519081900360640190fd5b81612189576040805162461bcd60e51b815260206004820152600c60248201526b19185d184b5a5b9d985b1a5960a21b604482015290519081900360640190fd5b606083838080601f016020809104026020016040519081016040528093929190818152602001838380828437600092018290525084519495509384935091505060208401885af48015600181146121df576121ea565b3d806000803e806000fd5b50506040516001600160a01b0386169033907f78a9b536049c39a00adaf57016b1376c99dd48a0faf2cef23690232f21ce42cc90600090a3506001600160a01b03909316600090815260da60205260409020929092555050565b60d955565b6001600160a01b03918216600090815260de6020526040902080546001600160a01b03191691909216179055565b600080612282612583565b604080516001600160a01b038316815290519192507efffc2da0b561cae30d9826d37709e9421c4725faebc226cbbb7ef5fc5e7349919081900360200190a1806001600160a01b031663e74a474a3086866040518463ffffffff1660e01b815260040180846001600160a01b03168152602001806020018360ff168152602001828103825284818151815260200191508051906020019080838360005b8381101561233757818101518382015260200161231f565b50505050905090810190601f1680156123645780820380516001836020036101000a031916815260200191505b50945050505050600060405180830381600087803b15801561238557600080fd5b505af1158015612399573d6000803e3d6000fd5b50929695505050505050565b808211156123ed576040805162461bcd60e51b815260206004820152601060248201526f34b73b30b634b210333930b1ba34b7b760811b604482015290519081900360640190fd5b60ce82905560cf819055604080518381526020810183905281517fb10da2958bf5ec1bff3164ff753a09e0460ed44d3abf73e79b817b500ed0f2f1929181900390910190a15050565b60cd80546001600160a01b0319166001600160a01b0392909216919091179055565b60cc80546001600160a01b0383166001600160a01b0319909116811790915560408051918252517ff1034ad6b4d45dc33a4142b9c51c2b7f89bf4a410696e426cc0f3224869e0aca9181900360200190a150565b60d68190556040805182815290517f20d916c976f3971e8200089411b0b712ef4612d98380b8ad2e3d8a8a376d85c79181900360200190a150565b303b1590565b6115b16125ca565b8082111561253d576040805162461bcd60e51b815260206004820152601060248201526f34b73b30b634b210333930b1ba34b7b760811b604482015290519081900360640190fd5b60d29190915560d355565b60d88190556040805182815290517f0cd8fcb5e08d7632af461f0ad793e5c63dc0d7595c301f5880650175e37a87489181900360200190a150565b60008060606040518060200161259890612814565b6020820181038252601f19601f8201166040525090508051602082016000f09150813b6125c457600080fd5b50905090565b600054610100900460ff16806125e357506125e36124e7565b806125f1575060005460ff16155b61262c5760405162461bcd60e51b815260040180806020018281038252602e815260200180612cb9602e913960400191505060405180910390fd5b600054610100900460ff16158015612657576000805460ff1961ff0019909116610100171660011790555b61265f61267b565b61266761271b565b8015610f2f576000805461ff001916905550565b600054610100900460ff168061269457506126946124e7565b806126a2575060005460ff16155b6126dd5760405162461bcd60e51b815260040180806020018281038252602e815260200180612cb9602e913960400191505060405180910390fd5b600054610100900460ff16158015612667576000805460ff1961ff0019909116610100171660011790558015610f2f576000805461ff001916905550565b600054610100900460ff168061273457506127346124e7565b80612742575060005460ff16155b61277d5760405162461bcd60e51b815260040180806020018281038252602e815260200180612cb9602e913960400191505060405180910390fd5b600054610100900460ff161580156127a8576000805460ff1961ff0019909116610100171660011790555b60006127b26120f8565b606580546001600160a01b0319166001600160a01b038316908117909155604051919250906000907f8be0079c531659141344cd1fd0a4f28419497f9722a3daafe3b4186f6b6457e0908290a3508015610f2f576000805461ff001916905550565b610451806128228339019056fe608060405234801561001057600080fd5b50610431806100206000396000f3fe6080604052600436106100225760003560e01c8063e74a474a1461003957610031565b366100315761002f6100f4565b005b61002f6100f4565b61002f6004803603606081101561004f57600080fd5b6001600160a01b03823516919081019060408101602082013564010000000081111561007a57600080fd5b82018360208201111561008c57600080fd5b803590602001918460018302840111640100000000831117156100ae57600080fd5b91908080601f0160208091040260200160405190810160405280939291908181526020018383808284376000920191909152509295505050903560ff16915061010e9050565b6100fc61010c565b61010c610107610281565b610342565b565b6000610118610281565b6001600160a01b031614610163576040805162461bcd60e51b815260206004820152600d60248201526c496d706c206e6f74207a65726f60981b604482015290519081900360640190fd5b61016c83610366565b610175816103e4565b81511561027c576000610186610281565b6001600160a01b0316836040518082805190602001908083835b602083106101bf5780518252601f1990920191602091820191016101a0565b6001836020036101000a038019825116818451168082178552505050505050905001915050600060405180830381855af49150503d806000811461021f576040519150601f19603f3d011682016040523d82523d6000602084013e610224565b606091505b505090508061027a576040805162461bcd60e51b815260206004820152601a60248201527f496d706c656d656e746174696f6e20696e6974206661696c6564000000000000604482015290519081900360640190fd5b505b505050565b7f360894a13ba1a3210667c828492db98dca3e2076cc3735a920a3ca505d382bbc80546000916001600160a01b0382166102c05760009250505061033f565b816001600160a01b031663ecef89d56102d76103ec565b6040518263ffffffff1660e01b8152600401808260ff16815260200191505060206040518083038186803b15801561030e57600080fd5b505afa158015610322573d6000803e3d6000fd5b505050506040513d602081101561033857600080fd5b5051925050505b90565b3660008037600080366000845af43d6000803e808015610361573d6000f35b3d6000fd5b61036f816103f5565b6103c0576040805162461bcd60e51b815260206004820181905260248201527f43616e6e6f742073657420696d706c656d656e746174696f6e20746f20454f41604482015290519081900360640190fd5b7f360894a13ba1a3210667c828492db98dca3e2076cc3735a920a3ca505d382bbc55565b600160fc1b55565b600160fc1b5490565b3b15159056fea26469706673582212203edeb1d03514e6e92a8a8c7ce24b883b17066854543b30f94278d7683f54284c64736f6c634300060c00334f776e61626c653a206e6577206f776e657220697320746865207a65726f20616464726573734f776e61626c653a2063616c6c6572206973206e6f7420746865206f776e6572436f6e747261637420696e7374616e63652068617320616c7265616479206265656e20696e697469616c697a6564a2646970667358221220f74955eb302c6538a7caaa141643a3efc2a133928a8dce6461aef9e2be0297ed64736f6c634300060c0033",
  "linkReferences": {},
  "deployedLinkReferences": {}
}