{
  "_format": "hh-sol-artifact-1",
  "contractName": "PoolFactory",
  "sourceName": "contracts/PoolFactory.sol",
  "abi": [
    {
      "anonymous": false,
      "inputs": [
        {
          "indexed": true,
          "internalType": "address",
          "name": "asset",
          "type": "address"
        }
      ],
      "name": "AddedValidAsset",
      "type": "event"
    },
    {
      "anonymous": false,
      "inputs": [
        {
          "indexed": false,
          "internalType": "address",
          "name": "dao",
          "type": "address"
        }
      ],
      "name": "DaoAddressSet",
      "type": "event"
    },
    {
      "anonymous": false,
      "inputs": [
        {
          "indexed": false,
          "internalType": "uint256",
          "name": "numerator",
          "type": "uint256"
        },
        {
          "indexed": false,
          "internalType": "uint256",
          "name": "denominator",
          "type": "uint256"
        }
      ],
      "name": "DaoFeeSet",
      "type": "event"
    },
    {
      "anonymous": false,
      "inputs": [
        {
          "indexed": false,
          "internalType": "uint256",
          "name": "cooldown",
          "type": "uint256"
        }
      ],
      "name": "ExitCooldownSet",
      "type": "event"
    },
    {
      "anonymous": false,
      "inputs": [
        {
          "indexed": false,
          "internalType": "uint256",
          "name": "numerator",
          "type": "uint256"
        },
        {
          "indexed": false,
          "internalType": "uint256",
          "name": "denominator",
          "type": "uint256"
        }
      ],
      "name": "ExitFeeSet",
      "type": "event"
    },
    {
      "anonymous": false,
      "inputs": [
        {
          "indexed": false,
          "internalType": "address",
          "name": "fundAddress",
          "type": "address"
        },
        {
          "indexed": false,
          "internalType": "bool",
          "name": "isPoolPrivate",
          "type": "bool"
        },
        {
          "indexed": false,
          "internalType": "string",
          "name": "fundName",
          "type": "string"
        },
        {
          "indexed": false,
          "internalType": "string",
          "name": "managerName",
          "type": "string"
        },
        {
          "indexed": false,
          "internalType": "address",
          "name": "manager",
          "type": "address"
        },
        {
          "indexed": false,
          "internalType": "uint256",
          "name": "time",
          "type": "uint256"
        },
        {
          "indexed": false,
          "internalType": "uint256",
          "name": "managerFeeNumerator",
          "type": "uint256"
        },
        {
          "indexed": false,
          "internalType": "uint256",
          "name": "managerFeeDenominator",
          "type": "uint256"
        }
      ],
      "name": "FundCreated",
      "type": "event"
    },
    {
      "anonymous": false,
      "inputs": [
        {
          "indexed": true,
          "internalType": "address",
          "name": "manager",
          "type": "address"
        },
        {
          "indexed": true,
          "internalType": "address",
          "name": "pool",
          "type": "address"
        }
      ],
      "name": "LogUpgrade",
      "type": "event"
    },
    {
      "anonymous": false,
      "inputs": [
        {
          "indexed": false,
          "internalType": "uint256",
          "name": "count",
          "type": "uint256"
        }
      ],
      "name": "MaximumSupportedAssetCountSet",
      "type": "event"
    },
    {
      "anonymous": false,
      "inputs": [
        {
          "indexed": true,
          "internalType": "address",
          "name": "previousOwner",
          "type": "address"
        },
        {
          "indexed": true,
          "internalType": "address",
          "name": "newOwner",
          "type": "address"
        }
      ],
      "name": "OwnershipTransferred",
      "type": "event"
    },
    {
      "anonymous": false,
      "inputs": [
        {
          "indexed": false,
          "internalType": "address",
          "name": "proxy",
          "type": "address"
        }
      ],
      "name": "ProxyCreated",
      "type": "event"
    },
    {
      "anonymous": false,
      "inputs": [
        {
          "indexed": true,
          "internalType": "address",
          "name": "asset",
          "type": "address"
        }
      ],
      "name": "RemovedValidAsset",
      "type": "event"
    },
    {
      "inputs": [
        {
          "internalType": "address",
          "name": "asset",
          "type": "address"
        },
        {
          "internalType": "uint8",
          "name": "assetType",
          "type": "uint8"
        },
        {
          "internalType": "address",
          "name": "aggregator",
          "type": "address"
        }
      ],
      "name": "addValidAsset",
      "outputs": [],
      "stateMutability": "nonpayable",
      "type": "function"
    },
    {
      "inputs": [
        {
          "internalType": "bool",
          "name": "_privatePool",
          "type": "bool"
        },
        {
          "internalType": "address",
          "name": "_manager",
          "type": "address"
        },
        {
          "internalType": "string",
          "name": "_managerName",
          "type": "string"
        },
        {
          "internalType": "string",
          "name": "_fundName",
          "type": "string"
        },
        {
          "internalType": "string",
          "name": "_fundSymbol",
          "type": "string"
        },
        {
          "internalType": "uint256",
          "name": "_managerFeeNumerator",
          "type": "uint256"
        },
        {
          "internalType": "address[]",
          "name": "_supportedAssets",
          "type": "address[]"
        }
      ],
      "name": "createFund",
      "outputs": [
        {
          "internalType": "address",
          "name": "",
          "type": "address"
        }
      ],
      "stateMutability": "nonpayable",
      "type": "function"
    },
    {
      "inputs": [
        {
          "internalType": "bytes",
          "name": "_data",
          "type": "bytes"
        },
        {
          "internalType": "uint8",
          "name": "_proxyType",
          "type": "uint8"
        }
      ],
      "name": "deploy",
      "outputs": [
        {
          "internalType": "address",
          "name": "",
          "type": "address"
        }
      ],
      "stateMutability": "nonpayable",
      "type": "function"
    },
    {
      "inputs": [
        {
          "internalType": "uint256",
          "name": "",
          "type": "uint256"
        }
      ],
      "name": "deployedFunds",
      "outputs": [
        {
          "internalType": "address",
          "name": "",
          "type": "address"
        }
      ],
      "stateMutability": "view",
      "type": "function"
    },
    {
      "inputs": [],
      "name": "deployedFundsLength",
      "outputs": [
        {
          "internalType": "uint256",
          "name": "",
          "type": "uint256"
        }
      ],
      "stateMutability": "view",
      "type": "function"
    },
    {
      "inputs": [
        {
          "internalType": "address",
          "name": "asset",
          "type": "address"
        }
      ],
      "name": "getAssetPrice",
      "outputs": [
        {
          "internalType": "uint256",
          "name": "",
          "type": "uint256"
        }
      ],
      "stateMutability": "view",
      "type": "function"
    },
    {
      "inputs": [],
      "name": "getDaoAddress",
      "outputs": [
        {
          "internalType": "address",
          "name": "",
          "type": "address"
        }
      ],
      "stateMutability": "view",
      "type": "function"
    },
    {
      "inputs": [],
      "name": "getDaoFee",
      "outputs": [
        {
          "internalType": "uint256",
          "name": "",
          "type": "uint256"
        },
        {
          "internalType": "uint256",
          "name": "",
          "type": "uint256"
        }
      ],
      "stateMutability": "view",
      "type": "function"
    },
    {
      "inputs": [],
      "name": "getExitCooldown",
      "outputs": [
        {
          "internalType": "uint256",
          "name": "",
          "type": "uint256"
        }
      ],
      "stateMutability": "view",
      "type": "function"
    },
    {
      "inputs": [
        {
          "internalType": "address",
          "name": "extContract",
          "type": "address"
        }
      ],
      "name": "getGuard",
      "outputs": [
        {
          "internalType": "address",
          "name": "",
          "type": "address"
        }
      ],
      "stateMutability": "view",
      "type": "function"
    },
    {
      "inputs": [
        {
          "internalType": "uint8",
          "name": "_proxyType",
          "type": "uint8"
        }
      ],
      "name": "getLogic",
      "outputs": [
        {
          "internalType": "address",
          "name": "",
          "type": "address"
        }
      ],
      "stateMutability": "view",
      "type": "function"
    },
    {
      "inputs": [],
      "name": "getManagerFeeNumeratorChangeDelay",
      "outputs": [
        {
          "internalType": "uint256",
          "name": "",
          "type": "uint256"
        }
      ],
      "stateMutability": "view",
      "type": "function"
    },
    {
      "inputs": [],
      "name": "getMaximumManagerFee",
      "outputs": [
        {
          "internalType": "uint256",
          "name": "",
          "type": "uint256"
        },
        {
          "internalType": "uint256",
          "name": "",
          "type": "uint256"
        }
      ],
      "stateMutability": "view",
      "type": "function"
    },
    {
      "inputs": [],
      "name": "getMaximumManagerFeeNumeratorChange",
      "outputs": [
        {
          "internalType": "uint256",
          "name": "",
          "type": "uint256"
        }
      ],
      "stateMutability": "view",
      "type": "function"
    },
    {
      "inputs": [],
      "name": "getMaximumSupportedAssetCount",
      "outputs": [
        {
          "internalType": "uint256",
          "name": "",
          "type": "uint256"
        }
      ],
      "stateMutability": "view",
      "type": "function"
    },
    {
      "inputs": [
        {
          "internalType": "address",
          "name": "pool",
          "type": "address"
        }
      ],
      "name": "getPoolManagerFee",
      "outputs": [
        {
          "internalType": "uint256",
          "name": "",
          "type": "uint256"
        },
        {
          "internalType": "uint256",
          "name": "",
          "type": "uint256"
        }
      ],
      "stateMutability": "view",
      "type": "function"
    },
    {
      "inputs": [],
      "name": "getPriceConsumer",
      "outputs": [
        {
          "internalType": "address",
          "name": "",
          "type": "address"
        }
      ],
      "stateMutability": "view",
      "type": "function"
    },
    {
      "inputs": [],
      "name": "getTrackingCode",
      "outputs": [
        {
          "internalType": "bytes32",
          "name": "",
          "type": "bytes32"
        }
      ],
      "stateMutability": "view",
      "type": "function"
    },
    {
      "inputs": [
        {
          "internalType": "address",
          "name": "_poolLogic",
          "type": "address"
        },
        {
          "internalType": "address",
          "name": "_managerLogic",
          "type": "address"
        },
        {
          "internalType": "address",
          "name": "priceConsumer",
          "type": "address"
        },
        {
          "internalType": "address",
          "name": "daoAddress",
          "type": "address"
        },
        {
          "components": [
            {
              "internalType": "address",
              "name": "asset",
              "type": "address"
            },
            {
              "internalType": "uint8",
              "name": "assetType",
              "type": "uint8"
            },
            {
              "internalType": "address",
              "name": "aggregator",
              "type": "address"
            }
          ],
          "internalType": "struct IHasAssetInfo.Asset[]",
          "name": "assets",
          "type": "tuple[]"
        }
      ],
      "name": "initialize",
      "outputs": [],
      "stateMutability": "nonpayable",
      "type": "function"
    },
    {
      "inputs": [
        {
          "internalType": "address",
          "name": "",
          "type": "address"
        }
      ],
      "name": "isPool",
      "outputs": [
        {
          "internalType": "bool",
          "name": "",
          "type": "bool"
        }
      ],
      "stateMutability": "view",
      "type": "function"
    },
    {
      "inputs": [
        {
          "internalType": "address",
          "name": "",
          "type": "address"
        }
      ],
      "name": "isPoolManager",
      "outputs": [
        {
          "internalType": "bool",
          "name": "",
          "type": "bool"
        }
      ],
      "stateMutability": "view",
      "type": "function"
    },
    {
      "inputs": [
        {
          "internalType": "address",
          "name": "asset",
          "type": "address"
        }
      ],
      "name": "isValidAsset",
      "outputs": [
        {
          "internalType": "bool",
          "name": "",
          "type": "bool"
        }
      ],
      "stateMutability": "view",
      "type": "function"
    },
    {
      "inputs": [],
      "name": "managerFeeNumeratorChangeDelay",
      "outputs": [
        {
          "internalType": "uint256",
          "name": "",
          "type": "uint256"
        }
      ],
      "stateMutability": "view",
      "type": "function"
    },
    {
      "inputs": [],
      "name": "maximumManagerFeeNumeratorChange",
      "outputs": [
        {
          "internalType": "uint256",
          "name": "",
          "type": "uint256"
        }
      ],
      "stateMutability": "view",
      "type": "function"
    },
    {
      "inputs": [],
      "name": "owner",
      "outputs": [
        {
          "internalType": "address",
          "name": "",
          "type": "address"
        }
      ],
      "stateMutability": "view",
      "type": "function"
    },
    {
      "inputs": [
        {
          "internalType": "address",
          "name": "",
          "type": "address"
        }
      ],
      "name": "poolManagerFeeDenominator",
      "outputs": [
        {
          "internalType": "uint256",
          "name": "",
          "type": "uint256"
        }
      ],
      "stateMutability": "view",
      "type": "function"
    },
    {
      "inputs": [
        {
          "internalType": "address",
          "name": "",
          "type": "address"
        }
      ],
      "name": "poolManagerFeeNumerator",
      "outputs": [
        {
          "internalType": "uint256",
          "name": "",
          "type": "uint256"
        }
      ],
      "stateMutability": "view",
      "type": "function"
    },
    {
      "inputs": [],
      "name": "poolStorageVersion",
      "outputs": [
        {
          "internalType": "uint256",
          "name": "",
          "type": "uint256"
        }
      ],
      "stateMutability": "view",
      "type": "function"
    },
    {
      "inputs": [
        {
          "internalType": "address",
          "name": "",
          "type": "address"
        }
      ],
      "name": "poolVersion",
      "outputs": [
        {
          "internalType": "uint256",
          "name": "",
          "type": "uint256"
        }
      ],
      "stateMutability": "view",
      "type": "function"
    },
    {
      "inputs": [
        {
          "internalType": "address",
          "name": "asset",
          "type": "address"
        }
      ],
      "name": "removeValidAsset",
      "outputs": [],
      "stateMutability": "nonpayable",
      "type": "function"
    },
    {
      "inputs": [],
      "name": "renounceOwnership",
      "outputs": [],
      "stateMutability": "nonpayable",
      "type": "function"
    },
    {
      "inputs": [
        {
          "internalType": "address",
          "name": "daoAddress",
          "type": "address"
        }
      ],
      "name": "setDaoAddress",
      "outputs": [],
      "stateMutability": "nonpayable",
      "type": "function"
    },
    {
      "inputs": [
        {
          "internalType": "uint256",
          "name": "numerator",
          "type": "uint256"
        },
        {
          "internalType": "uint256",
          "name": "denominator",
          "type": "uint256"
        }
      ],
      "name": "setDaoFee",
      "outputs": [],
      "stateMutability": "nonpayable",
      "type": "function"
    },
    {
      "inputs": [
        {
          "internalType": "uint256",
          "name": "cooldown",
          "type": "uint256"
        }
      ],
      "name": "setExitCooldown",
      "outputs": [],
      "stateMutability": "nonpayable",
      "type": "function"
    },
    {
      "inputs": [
        {
          "internalType": "address",
          "name": "extContract",
          "type": "address"
        },
        {
          "internalType": "address",
          "name": "guardAddress",
          "type": "address"
        }
      ],
      "name": "setGuard",
      "outputs": [],
      "stateMutability": "nonpayable",
      "type": "function"
    },
    {
      "inputs": [
        {
          "internalType": "address",
          "name": "_poolLogic",
          "type": "address"
        },
        {
          "internalType": "address",
          "name": "_poolManagerLogic",
          "type": "address"
        }
      ],
      "name": "setLogic",
      "outputs": [],
      "stateMutability": "nonpayable",
      "type": "function"
    },
    {
      "inputs": [
        {
          "internalType": "uint256",
          "name": "delay",
          "type": "uint256"
        }
      ],
      "name": "setManagerFeeNumeratorChangeDelay",
      "outputs": [],
      "stateMutability": "nonpayable",
      "type": "function"
    },
    {
      "inputs": [
        {
          "internalType": "uint256",
          "name": "amount",
          "type": "uint256"
        }
      ],
      "name": "setMaximumManagerFeeNumeratorChange",
      "outputs": [],
      "stateMutability": "nonpayable",
      "type": "function"
    },
    {
      "inputs": [
        {
          "internalType": "uint256",
          "name": "count",
          "type": "uint256"
        }
      ],
      "name": "setMaximumSupportedAssetCount",
      "outputs": [],
      "stateMutability": "nonpayable",
      "type": "function"
    },
    {
      "inputs": [
        {
          "internalType": "address",
          "name": "pool",
          "type": "address"
        },
        {
          "internalType": "uint256",
          "name": "numerator",
          "type": "uint256"
        }
      ],
      "name": "setPoolManagerFeeNumerator",
      "outputs": [],
      "stateMutability": "nonpayable",
      "type": "function"
    },
    {
      "inputs": [
        {
          "internalType": "address",
          "name": "priceConsumer",
          "type": "address"
        }
      ],
      "name": "setPriceConsumer",
      "outputs": [],
      "stateMutability": "nonpayable",
      "type": "function"
    },
    {
      "inputs": [
        {
          "internalType": "bytes32",
          "name": "code",
          "type": "bytes32"
        }
      ],
      "name": "setTrackingCode",
      "outputs": [],
      "stateMutability": "nonpayable",
      "type": "function"
    },
    {
      "inputs": [
        {
          "internalType": "address",
          "name": "newOwner",
          "type": "address"
        }
      ],
      "name": "transferOwnership",
      "outputs": [],
      "stateMutability": "nonpayable",
      "type": "function"
    },
    {
      "inputs": [
        {
          "internalType": "uint256",
          "name": "startIndex",
          "type": "uint256"
        },
        {
          "internalType": "uint256",
          "name": "endIndex",
          "type": "uint256"
        },
        {
          "internalType": "uint256",
          "name": "sourceVersion",
          "type": "uint256"
        },
        {
          "internalType": "uint256",
          "name": "targetVersion",
          "type": "uint256"
        },
        {
          "internalType": "bytes",
          "name": "data",
          "type": "bytes"
        }
      ],
      "name": "upgradePoolBatch",
      "outputs": [],
      "stateMutability": "nonpayable",
      "type": "function"
    }
  ],
  "bytecode": "0x608060405234801561001057600080fd5b506127b3806100206000396000f3fe608060405234801561001057600080fd5b50600436106102745760003560e01c80639a068bd611610151578063c4a22677116100c3578063e60eb41211610087578063e60eb412146104f1578063e99c0fa614610504578063ebee461d14610517578063ecef89d51461051f578063eec16c4414610532578063f2fde38b1461054557610274565b8063c4a226771461049d578063cc435bf3146104b0578063ce26e9ef146104c3578063d05b7669146104cb578063dc76d254146104de57610274565b8063b193a5f411610115578063b193a5f414610436578063b3596f0714610449578063b7a545261461045c578063bcb01f441461046f578063bee37e5214610482578063bfeaf71d1461049557610274565b80639a068bd6146103ed5780639a3cac6a146104005780639cada6e414610413578063aa12ae4d1461041b578063aa7d664e1461042357610274565b806349f7c02d116101ea578063715018a6116101ae578063715018a61461038e578063771d1baf14610396578063808ae5fb146103a957806386e76f73146103bc5780638da5cb5b146103cf57806394d0d23b146103d757610274565b806349f7c02d146103385780635556ee55146103405780635b16ebb7146103535780635c9bfc2b146103735780637027ea6c1461037b57610274565b80631e666d131161023c5780631e666d13146102d15780631e8e8bca146102e4578063227773ee146102f7578063391d348b1461030a5780634501b0881461031d57806345812ca51461032557610274565b8063046b72c4146102795780630bf99bd91461028e5780630f6559c4146102ac57806310bf69dc146102b45780631d68702d146102bc575b600080fd5b61028c610287366004611b93565b610558565b005b610296610627565b6040516102a3919061200b565b60405180910390f35b61029661062d565b610296610633565b6102c4610639565b6040516102a39190611e65565b61028c6102df366004611d6c565b610648565b61028c6102f2366004611cd7565b610722565b61028c610305366004611a3d565b610763565b6102c4610318366004611c02565b610797565b610296610939565b6102c4610333366004611cef565b61093f565b610296610954565b61029661034e366004611a22565b61095a565b610366610361366004611a22565b61096c565b6040516102a39190612000565b610296610981565b6102c4610389366004611a22565b610987565b61028c6109a8565b61028c6103a4366004611d4b565b610a27565b61028c6103b7366004611a3d565b610a66565b61028c6103ca366004611a22565b610ac9565b6102c4610b07565b6103df610b16565b6040516102a39291906122c2565b6102c46103fb366004611cd7565b610b20565b61028c61040e366004611a22565b610b47565b6103df610b85565b610296610b8f565b61028c610431366004611cd7565b610b95565b610366610444366004611a22565b610bd3565b610296610457366004611a22565b610be8565b6103df61046a366004611a22565b610c69565b61028c61047d366004611cd7565b610cd2565b610296610490366004611a22565b610d0c565b610296610d1e565b61028c6104ab366004611bbd565b610d24565b6103666104be366004611a22565b610e2f565b6102c4610e4d565b61028c6104d9366004611a71565b610e5c565b61028c6104ec366004611a22565b611070565b6102966104ff366004611a22565b611171565b61028c610512366004611cd7565b611183565b6102966111bd565b6102c461052d366004611dff565b6111c3565b61028c610540366004611cd7565b6111f5565b61028c610553366004611a22565b611233565b33600090815260d1602052604090205460ff1615156001146105955760405162461bcd60e51b815260040161058c90612014565b60405180910390fd5b6001600160a01b038216600090815260d0602052604090205460ff1615156001146105d25760405162461bcd60e51b815260040161058c9061228b565b60dc546001600160a01b038316600090815260d460205260409020546105f7916112ea565b8111156106165760405162461bcd60e51b815260040161058c9061212d565b610623828260d35461130f565b5050565b60cb5490565b60db5481565b60dc5481565b60cc546001600160a01b031690565b610650611365565b6065546001600160a01b0390811691161461067d5760405162461bcd60e51b815260040161058c906121da565b84861115801561068e575060cb5486105b801561069b575060cb5485105b6106b75760405162461bcd60e51b815260040161058c90612040565b855b85811161071957600060cb82815481106106cf57fe5b60009182526020808320909101546001600160a01b031680835260da90915260409091205490915086146107035750610711565b61070f81858588611369565b505b6001016106b9565b50505050505050565b61072a611365565b6065546001600160a01b039081169116146107575760405162461bcd60e51b815260040161058c906121da565b61076081611467565b50565b60cc546001600160a01b0316331461078d5760405162461bcd60e51b815260040161058c906120e5565b610623828261146c565b60006060308888856040516024016107b29493929190611e79565b60408051601f198184030181529190526020810180516001600160e01b03166331a22a9960e21b179052905060006107eb82600161093f565b90506060308b898985604051602401610808959493929190611ee8565b60408051601f198184030181529190526020810180516001600160e01b0316630ccb30c760e01b1790529050600061084182600261093f565b60cb805460018082019092557fa7ce836d032b2bf62b7e2097a8e0a6d8aeb35405ad15271e96d3b0188a1d06fb0180546001600160a01b0319166001600160a01b03848116918217909255600081815260d060209081526040808320805460ff199081168817909155948a16835260d18252808320805490951690951790935560db5491815260da9092529190205560d3549091506108e3908290899061130f565b7f73a0638fe578fc759744633aa170a433061ca2cc1bb855d116c506e04a29901f818d8b8d8f428d60d354604051610922989796959493929190611f3a565b60405180910390a19b9a5050505050505050505050565b60d65490565b600061094b838361149a565b90505b92915050565b60d95490565b60da6020526000908152604090205481565b60d06020526000908152604090205460ff1681565b60dc5490565b6001600160a01b03808216600090815260de6020526040902054165b919050565b6109b0611365565b6065546001600160a01b039081169116146109dd5760405162461bcd60e51b815260040161058c906121da565b6065546040516000916001600160a01b0316907f8be0079c531659141344cd1fd0a4f28419497f9722a3daafe3b4186f6b6457e0908390a3606580546001600160a01b0319169055565b610a2f611365565b6065546001600160a01b03908116911614610a5c5760405162461bcd60e51b815260040161058c906121da565b6106238282611547565b610a6e611365565b6065546001600160a01b03908116911614610a9b5760405162461bcd60e51b815260040161058c906121da565b609780546001600160a01b039384166001600160a01b03199182161790915560988054929093169116179055565b610ad1611365565b6065546001600160a01b03908116911614610afe5760405162461bcd60e51b815260040161058c906121da565b610760816115af565b6065546001600160a01b031690565b60d25460d3549091565b60cb8181548110610b2d57fe5b6000918252602090912001546001600160a01b0316905081565b610b4f611365565b6065546001600160a01b03908116911614610b7c5760405162461bcd60e51b815260040161058c906121da565b610760816115d1565b60ce5460cf549091565b60d85490565b610b9d611365565b6065546001600160a01b03908116911614610bca5760405162461bcd60e51b815260040161058c906121da565b61076081611627565b60d16020526000908152604090205460ff1681565b60cd54604051638b2f0f4f60e01b81526000916001600160a01b031690638b2f0f4f90610c19908590600401611e65565b60206040518083038186803b158015610c3157600080fd5b505afa158015610c45573d6000803e3d6000fd5b505050506040513d601f19601f8201168201806040525081019061094e9190611d33565b6001600160a01b038116600090815260d06020526040812054819060ff161515600114610ca85760405162461bcd60e51b815260040161058c9061228b565b50506001600160a01b0316600090815260d4602090815260408083205460d5909252909120549091565b610cda611365565b6065546001600160a01b03908116911614610d075760405162461bcd60e51b815260040161058c906121da565b60dd55565b60d46020526000908152604090205481565b60dd5481565b60cc546001600160a01b03163314610d4e5760405162461bcd60e51b815260040161058c906120e5565b610d5783610e2f565b15610d745760405162461bcd60e51b815260040161058c9061225d565b6001600160a01b03808416600090815260d7602052604090819020805460ff1916600117905560cd54905163172374a960e31b815291169063b91ba54890610dc490869086908690600401611fda565b600060405180830381600087803b158015610dde57600080fd5b505af1158015610df2573d6000803e3d6000fd5b50506040516001600160a01b03861692507fd63c302652b86334fe4eb891e7a01e61e836496485d9394f2c95b4222006ae509150600090a2505050565b6001600160a01b0316600090815260d7602052604090205460ff1690565b60cd546001600160a01b031690565b600054610100900460ff1680610e755750610e7561165c565b80610e83575060005460ff16155b610e9f5760405162461bcd60e51b815260040161058c9061220f565b600054610100900460ff16158015610eca576000805460ff1961ff0019909116610100171660011790555b610ed48686611662565b610edd846115af565b610ee6836115d1565b610ef461138861271061166a565b610f00600a6064611547565b610f0c62015180611627565b610f186224ea00610cd2565b610f236103e8611183565b610f2d600a611695565b610f3f6544484544474560d01b611467565b60005b82518160ff16101561105557600160d76000858460ff1681518110610f6357fe5b602090810291909101810151516001600160a01b03908116835290820192909252604001600020805460ff19169215159290921790915560cd54845191169063b91ba54890859060ff8516908110610fb757fe5b602002602001015160000151858460ff1681518110610fd257fe5b602002602001015160200151868560ff1681518110610fed57fe5b6020026020010151604001516040518463ffffffff1660e01b815260040161101793929190611fda565b600060405180830381600087803b15801561103157600080fd5b505af1158015611045573d6000803e3d6000fd5b505060019092019150610f429050565b508015611068576000805461ff00191690555b505050505050565b60cc546001600160a01b0316331461109a5760405162461bcd60e51b815260040161058c906120e5565b6110a381610e2f565b6110bf5760405162461bcd60e51b815260040161058c90612183565b6001600160a01b03808216600090815260d7602052604090819020805460ff1916905560cd549051634a5e42b160e01b8152911690634a5e42b190611108908490600401611e65565b600060405180830381600087803b15801561112257600080fd5b505af1158015611136573d6000803e3d6000fd5b50506040516001600160a01b03841692507fe8b3c469b395bfd934168e4b7d14590c9cd1a6740533df170dbe3c219ff5a6749150600090a250565b60d56020526000908152604090205481565b61118b611365565b6065546001600160a01b039081169116146111b85760405162461bcd60e51b815260040161058c906121da565b60dc55565b60dd5490565b60008160ff16600114156111e357506098546001600160a01b03166109a3565b506097546001600160a01b03166109a3565b6111fd611365565b6065546001600160a01b0390811691161461122a5760405162461bcd60e51b815260040161058c906121da565b61076081611695565b61123b611365565b6065546001600160a01b039081169116146112685760405162461bcd60e51b815260040161058c906121da565b6001600160a01b03811661128e5760405162461bcd60e51b815260040161058c90612068565b6065546040516001600160a01b038084169216907f8be0079c531659141344cd1fd0a4f28419497f9722a3daafe3b4186f6b6457e090600090a3606580546001600160a01b0319166001600160a01b0392909216919091179055565b60008282018381101561094b5760405162461bcd60e51b815260040161058c906120ae565b808211158015611321575060d2548211155b61133d5760405162461bcd60e51b815260040161058c906121b0565b6001600160a01b03909216600090815260d4602090815260408083209390935560d590522055565b3390565b6001600160a01b03841661138f5760405162461bcd60e51b815260040161058c9061215b565b816113ac5760405162461bcd60e51b815260040161058c90612107565b606083838080601f016020809104026020016040519081016040528093929190818152602001838380828437600092018290525084519495509384935091505060208401885af48015600181146114025761140d565b3d806000803e806000fd5b50506040516001600160a01b0386169033907f78a9b536049c39a00adaf57016b1376c99dd48a0faf2cef23690232f21ce42cc90600090a3506001600160a01b03909316600090815260da60205260409020929092555050565b60d955565b6001600160a01b03918216600090815260de6020526040902080546001600160a01b03191691909216179055565b6000806114a56116ca565b90507efffc2da0b561cae30d9826d37709e9421c4725faebc226cbbb7ef5fc5e7349816040516114d59190611e65565b60405180910390a16040516373a523a560e11b81526001600160a01b0382169063e74a474a9061150d90309088908890600401611fa3565b600060405180830381600087803b15801561152757600080fd5b505af115801561153b573d6000803e3d6000fd5b50929695505050505050565b808211156115675760405162461bcd60e51b815260040161058c906121b0565b60ce82905560cf8190556040517fb10da2958bf5ec1bff3164ff753a09e0460ed44d3abf73e79b817b500ed0f2f1906115a390849084906122c2565b60405180910390a15050565b60cd80546001600160a01b0319166001600160a01b0392909216919091179055565b60cc80546001600160a01b0319166001600160a01b0383161790556040517ff1034ad6b4d45dc33a4142b9c51c2b7f89bf4a410696e426cc0f3224869e0aca9061161c908390611e65565b60405180910390a150565b60d68190556040517f20d916c976f3971e8200089411b0b712ef4612d98380b8ad2e3d8a8a376d85c79061161c90839061200b565b303b1590565b610a9b611711565b8082111561168a5760405162461bcd60e51b815260040161058c906121b0565b60d29190915560d355565b60d88190556040517f0cd8fcb5e08d7632af461f0ad793e5c63dc0d7595c301f5880650175e37a87489061161c90839061200b565b6000806060604051806020016116df906118fe565b6020820181038252601f19601f8201166040525090508051602082016000f09150813b61170b57600080fd5b50905090565b600054610100900460ff168061172a575061172a61165c565b80611738575060005460ff16155b6117545760405162461bcd60e51b815260040161058c9061220f565b600054610100900460ff1615801561177f576000805460ff1961ff0019909116610100171660011790555b6117876117a3565b61178f611824565b8015610760576000805461ff001916905550565b600054610100900460ff16806117bc57506117bc61165c565b806117ca575060005460ff16155b6117e65760405162461bcd60e51b815260040161058c9061220f565b600054610100900460ff1615801561178f576000805460ff1961ff0019909116610100171660011790558015610760576000805461ff001916905550565b600054610100900460ff168061183d575061183d61165c565b8061184b575060005460ff16155b6118675760405162461bcd60e51b815260040161058c9061220f565b600054610100900460ff16158015611892576000805460ff1961ff0019909116610100171660011790555b600061189c611365565b606580546001600160a01b0319166001600160a01b038316908117909155604051919250906000907f8be0079c531659141344cd1fd0a4f28419497f9722a3daafe3b4186f6b6457e0908290a3508015610760576000805461ff001916905550565b6104518061232d83390190565b80356001600160a01b038116811461094e57600080fd5b600082601f830112611932578081fd5b8135611945611940826122f7565b6122d0565b81815291506020808301908481018184028601820187101561196657600080fd5b60005b8481101561198d5761197b888361190b565b84529282019290820190600101611969565b505050505092915050565b8035801515811461094e57600080fd5b600082601f8301126119b8578081fd5b813567ffffffffffffffff8111156119ce578182fd5b6119e1601f8201601f19166020016122d0565b91508082528360208285010111156119f857600080fd5b8060208401602084013760009082016020015292915050565b803560ff8116811461094e57600080fd5b600060208284031215611a33578081fd5b61094b838361190b565b60008060408385031215611a4f578081fd5b611a59848461190b565b9150611a68846020850161190b565b90509250929050565b600080600080600060a08688031215611a88578081fd5b8535611a9381612317565b9450602086810135611aa481612317565b94506040870135611ab481612317565b9350606087810135611ac581612317565b9350608088013567ffffffffffffffff811115611ae0578384fd5b8801601f81018a13611af0578384fd5b8035611afe611940826122f7565b81815284810190838601858402850187018e1015611b1a578788fd5b8794505b83851015611b7f5785818f031215611b34578788fd5b611b3d866122d0565b611b478f8361190b565b8152611b558f898401611a11565b88820152611b668f6040840161190b565b6040820152835260019490940193918601918501611b1e565b508096505050505050509295509295909350565b60008060408385031215611ba5578182fd5b611baf848461190b565b946020939093013593505050565b600080600060608486031215611bd1578283fd5b611bdb858561190b565b9250611bea8560208601611a11565b9150611bf9856040860161190b565b90509250925092565b600080600080600080600060e0888a031215611c1c578182fd5b611c268989611998565b9650611c358960208a0161190b565b9550604088013567ffffffffffffffff80821115611c51578384fd5b611c5d8b838c016119a8565b965060608a0135915080821115611c72578384fd5b611c7e8b838c016119a8565b955060808a0135915080821115611c93578384fd5b611c9f8b838c016119a8565b945060a08a0135935060c08a0135915080821115611cbb578283fd5b50611cc88a828b01611922565b91505092959891949750929550565b600060208284031215611ce8578081fd5b5035919050565b60008060408385031215611d01578182fd5b823567ffffffffffffffff811115611d17578283fd5b611d23858286016119a8565b925050611a688460208501611a11565b600060208284031215611d44578081fd5b5051919050565b60008060408385031215611d5d578182fd5b50508035926020909101359150565b60008060008060008060a08789031215611d84578384fd5b86359550602087013594506040870135935060608701359250608087013567ffffffffffffffff80821115611db7578384fd5b818901915089601f830112611dca578384fd5b813581811115611dd8578485fd5b8a6020828501011115611de9578485fd5b6020830194508093505050509295509295509295565b600060208284031215611e10578081fd5b61094b8383611a11565b60008151808452815b81811015611e3f57602081850181015186830182015201611e23565b81811115611e505782602083870101525b50601f01601f19169290920160200192915050565b6001600160a01b0391909116815260200190565b600060018060a01b03808716835260208187168185015260806040850152611ea46080850187611e1a565b8481036060860152855180825282870191830190855b81811015611ed8578351861683529284019291840191600101611eba565b50909a9950505050505050505050565b600060018060a01b038088168352861515602084015260a06040840152611f1260a0840187611e1a565b8381036060850152611f248187611e1a565b9250508084166080840152509695505050505050565b6001600160a01b038981168252881515602083015261010060408301819052600091611f688483018b611e1a565b91508382036060850152611f7c828a611e1a565b97166080840152505060a081019390935260c083019190915260e090910152949350505050565b6001600160a01b0384168152606060208201819052600090611fc790830185611e1a565b905060ff83166040830152949350505050565b6001600160a01b03938416815260ff929092166020830152909116604082015260600190565b901515815260200190565b90815260200190565b6020808252601290820152712737ba1030903837b7b61036b0b730b3b2b960711b604082015260600190565b6020808252600e908201526d696e76616c696420626f756e647360901b604082015260600190565b60208082526026908201527f4f776e61626c653a206e6577206f776e657220697320746865207a65726f206160408201526564647265737360d01b606082015260800190565b6020808252601b908201527f536166654d6174683a206164646974696f6e206f766572666c6f770000000000604082015260600190565b6020808252600890820152676f6e6c792064616f60c01b604082015260600190565b6020808252600c908201526b19185d184b5a5b9d985b1a5960a21b604082015260600190565b6020808252601490820152730dac2dcc2cecae440cccaca40e8dede40d0d2ced60631b604082015260600190565b6020808252600e908201526d1d185c99d95d0b5a5b9d985b1a5960921b604082015260600190565b602080825260139082015272185cdcd95d08191bd95cdb89dd08195e1a5cdd606a1b604082015260600190565b60208082526010908201526f34b73b30b634b210333930b1ba34b7b760811b604082015260600190565b6020808252818101527f4f776e61626c653a2063616c6c6572206973206e6f7420746865206f776e6572604082015260600190565b6020808252602e908201527f436f6e747261637420696e7374616e63652068617320616c726561647920626560408201526d195b881a5b9a5d1a585b1a5e995960921b606082015260800190565b602080825260149082015273617373657420616c72656164792065786973747360601b604082015260600190565b6020808252601e908201527f737570706c6965642061646472657373206973206e6f74206120706f6f6c0000604082015260600190565b918252602082015260400190565b60405181810167ffffffffffffffff811182821017156122ef57600080fd5b604052919050565b600067ffffffffffffffff82111561230d578081fd5b5060209081020190565b6001600160a01b038116811461076057600080fdfe608060405234801561001057600080fd5b50610431806100206000396000f3fe6080604052600436106100225760003560e01c8063e74a474a1461003957610031565b366100315761002f6100f4565b005b61002f6100f4565b61002f6004803603606081101561004f57600080fd5b6001600160a01b03823516919081019060408101602082013564010000000081111561007a57600080fd5b82018360208201111561008c57600080fd5b803590602001918460018302840111640100000000831117156100ae57600080fd5b91908080601f0160208091040260200160405190810160405280939291908181526020018383808284376000920191909152509295505050903560ff16915061010e9050565b6100fc61010c565b61010c610107610281565b610342565b565b6000610118610281565b6001600160a01b031614610163576040805162461bcd60e51b815260206004820152600d60248201526c496d706c206e6f74207a65726f60981b604482015290519081900360640190fd5b61016c83610366565b610175816103e4565b81511561027c576000610186610281565b6001600160a01b0316836040518082805190602001908083835b602083106101bf5780518252601f1990920191602091820191016101a0565b6001836020036101000a038019825116818451168082178552505050505050905001915050600060405180830381855af49150503d806000811461021f576040519150601f19603f3d011682016040523d82523d6000602084013e610224565b606091505b505090508061027a576040805162461bcd60e51b815260206004820152601a60248201527f496d706c656d656e746174696f6e20696e6974206661696c6564000000000000604482015290519081900360640190fd5b505b505050565b7f360894a13ba1a3210667c828492db98dca3e2076cc3735a920a3ca505d382bbc80546000916001600160a01b0382166102c05760009250505061033f565b816001600160a01b031663ecef89d56102d76103ec565b6040518263ffffffff1660e01b8152600401808260ff16815260200191505060206040518083038186803b15801561030e57600080fd5b505afa158015610322573d6000803e3d6000fd5b505050506040513d602081101561033857600080fd5b5051925050505b90565b3660008037600080366000845af43d6000803e808015610361573d6000f35b3d6000fd5b61036f816103f5565b6103c0576040805162461bcd60e51b815260206004820181905260248201527f43616e6e6f742073657420696d706c656d656e746174696f6e20746f20454f41604482015290519081900360640190fd5b7f360894a13ba1a3210667c828492db98dca3e2076cc3735a920a3ca505d382bbc55565b600160fc1b55565b600160fc1b5490565b3b15159056fea26469706673582212203edeb1d03514e6e92a8a8c7ce24b883b17066854543b30f94278d7683f54284c64736f6c634300060c0033a2646970667358221220eef9d49a6b6fbfcc0211477e0d862c06493de8e226d2d014b6e87e5105d32ad764736f6c634300060c0033",
  "linkReferences": {},
  "deployedLinkReferences": {}
}