{
  "_format": "hh-sol-artifact-1",
  "contractName": "PoolFactory-ovm",
  "sourceName": "contracts/PoolFactory.sol",
  "abi": [
    {
      "anonymous": false,
      "inputs": [
        {
          "indexed": true,
          "internalType": "address",
          "name": "asset",
          "type": "address"
        }
      ],
      "name": "AddedValidAsset",
      "type": "event"
    },
    {
      "anonymous": false,
      "inputs": [
        {
          "indexed": false,
          "internalType": "address",
          "name": "dao",
          "type": "address"
        }
      ],
      "name": "DaoAddressSet",
      "type": "event"
    },
    {
      "anonymous": false,
      "inputs": [
        {
          "indexed": false,
          "internalType": "uint256",
          "name": "numerator",
          "type": "uint256"
        },
        {
          "indexed": false,
          "internalType": "uint256",
          "name": "denominator",
          "type": "uint256"
        }
      ],
      "name": "DaoFeeSet",
      "type": "event"
    },
    {
      "anonymous": false,
      "inputs": [
        {
          "indexed": false,
          "internalType": "uint256",
          "name": "cooldown",
          "type": "uint256"
        }
      ],
      "name": "ExitCooldownSet",
      "type": "event"
    },
    {
      "anonymous": false,
      "inputs": [
        {
          "indexed": false,
          "internalType": "uint256",
          "name": "numerator",
          "type": "uint256"
        },
        {
          "indexed": false,
          "internalType": "uint256",
          "name": "denominator",
          "type": "uint256"
        }
      ],
      "name": "ExitFeeSet",
      "type": "event"
    },
    {
      "anonymous": false,
      "inputs": [
        {
          "indexed": false,
          "internalType": "address",
          "name": "fundAddress",
          "type": "address"
        },
        {
          "indexed": false,
          "internalType": "bool",
          "name": "isPoolPrivate",
          "type": "bool"
        },
        {
          "indexed": false,
          "internalType": "string",
          "name": "fundName",
          "type": "string"
        },
        {
          "indexed": false,
          "internalType": "string",
          "name": "managerName",
          "type": "string"
        },
        {
          "indexed": false,
          "internalType": "address",
          "name": "manager",
          "type": "address"
        },
        {
          "indexed": false,
          "internalType": "uint256",
          "name": "time",
          "type": "uint256"
        },
        {
          "indexed": false,
          "internalType": "uint256",
          "name": "managerFeeNumerator",
          "type": "uint256"
        },
        {
          "indexed": false,
          "internalType": "uint256",
          "name": "managerFeeDenominator",
          "type": "uint256"
        }
      ],
      "name": "FundCreated",
      "type": "event"
    },
    {
      "anonymous": false,
      "inputs": [
        {
          "indexed": true,
          "internalType": "address",
          "name": "manager",
          "type": "address"
        },
        {
          "indexed": true,
          "internalType": "address",
          "name": "pool",
          "type": "address"
        }
      ],
      "name": "LogUpgrade",
      "type": "event"
    },
    {
      "anonymous": false,
      "inputs": [
        {
          "indexed": false,
          "internalType": "uint256",
          "name": "count",
          "type": "uint256"
        }
      ],
      "name": "MaximumSupportedAssetCountSet",
      "type": "event"
    },
    {
      "anonymous": false,
      "inputs": [
        {
          "indexed": true,
          "internalType": "address",
          "name": "previousOwner",
          "type": "address"
        },
        {
          "indexed": true,
          "internalType": "address",
          "name": "newOwner",
          "type": "address"
        }
      ],
      "name": "OwnershipTransferred",
      "type": "event"
    },
    {
      "anonymous": false,
      "inputs": [
        {
          "indexed": false,
          "internalType": "address",
          "name": "proxy",
          "type": "address"
        }
      ],
      "name": "ProxyCreated",
      "type": "event"
    },
    {
      "anonymous": false,
      "inputs": [
        {
          "indexed": true,
          "internalType": "address",
          "name": "asset",
          "type": "address"
        }
      ],
      "name": "RemovedValidAsset",
      "type": "event"
    },
    {
      "inputs": [
        {
          "internalType": "address",
          "name": "asset",
          "type": "address"
        },
        {
          "internalType": "address",
          "name": "aggregator",
          "type": "address"
        }
      ],
      "name": "addValidAsset",
      "outputs": [],
      "stateMutability": "nonpayable",
      "type": "function"
    },
    {
      "inputs": [],
      "name": "addressResolver",
      "outputs": [
        {
          "internalType": "contract IAddressResolver",
          "name": "",
          "type": "address"
        }
      ],
      "stateMutability": "view",
      "type": "function"
    },
    {
      "inputs": [
        {
          "internalType": "bool",
          "name": "_privatePool",
          "type": "bool"
        },
        {
          "internalType": "address",
          "name": "_manager",
          "type": "address"
        },
        {
          "internalType": "string",
          "name": "_managerName",
          "type": "string"
        },
        {
          "internalType": "string",
          "name": "_fundName",
          "type": "string"
        },
        {
          "internalType": "string",
          "name": "_fundSymbol",
          "type": "string"
        },
        {
          "internalType": "uint256",
          "name": "_managerFeeNumerator",
          "type": "uint256"
        },
        {
          "internalType": "address[]",
          "name": "_supportedAssets",
          "type": "address[]"
        }
      ],
      "name": "createFund",
      "outputs": [
        {
          "internalType": "address",
          "name": "",
          "type": "address"
        }
      ],
      "stateMutability": "nonpayable",
      "type": "function"
    },
    {
      "inputs": [
        {
          "internalType": "bytes",
          "name": "_data",
          "type": "bytes"
        },
        {
          "internalType": "uint8",
          "name": "_proxyType",
          "type": "uint8"
        }
      ],
      "name": "deploy",
      "outputs": [
        {
          "internalType": "address",
          "name": "",
          "type": "address"
        }
      ],
      "stateMutability": "nonpayable",
      "type": "function"
    },
    {
      "inputs": [
        {
          "internalType": "uint256",
          "name": "",
          "type": "uint256"
        }
      ],
      "name": "deployedFunds",
      "outputs": [
        {
          "internalType": "address",
          "name": "",
          "type": "address"
        }
      ],
      "stateMutability": "view",
      "type": "function"
    },
    {
      "inputs": [],
      "name": "deployedFundsLength",
      "outputs": [
        {
          "internalType": "uint256",
          "name": "",
          "type": "uint256"
        }
      ],
      "stateMutability": "view",
      "type": "function"
    },
    {
      "inputs": [],
      "name": "disableChainlink",
      "outputs": [],
      "stateMutability": "nonpayable",
      "type": "function"
    },
    {
      "inputs": [],
      "name": "enableChainlink",
      "outputs": [],
      "stateMutability": "nonpayable",
      "type": "function"
    },
    {
      "inputs": [],
      "name": "getAddressResolver",
      "outputs": [
        {
          "internalType": "contract IAddressResolver",
          "name": "",
          "type": "address"
        }
      ],
      "stateMutability": "view",
      "type": "function"
    },
    {
      "inputs": [],
      "name": "getDaoAddress",
      "outputs": [
        {
          "internalType": "address",
          "name": "",
          "type": "address"
        }
      ],
      "stateMutability": "view",
      "type": "function"
    },
    {
      "inputs": [],
      "name": "getDaoFee",
      "outputs": [
        {
          "internalType": "uint256",
          "name": "",
          "type": "uint256"
        },
        {
          "internalType": "uint256",
          "name": "",
          "type": "uint256"
        }
      ],
      "stateMutability": "view",
      "type": "function"
    },
    {
      "inputs": [],
      "name": "getExitCooldown",
      "outputs": [
        {
          "internalType": "uint256",
          "name": "",
          "type": "uint256"
        }
      ],
      "stateMutability": "view",
      "type": "function"
    },
    {
      "inputs": [
        {
          "internalType": "address",
          "name": "extContract",
          "type": "address"
        }
      ],
      "name": "getGuard",
      "outputs": [
        {
          "internalType": "address",
          "name": "",
          "type": "address"
        }
      ],
      "stateMutability": "view",
      "type": "function"
    },
    {
      "inputs": [
        {
          "internalType": "uint8",
          "name": "_proxyType",
          "type": "uint8"
        }
      ],
      "name": "getLogic",
      "outputs": [
        {
          "internalType": "address",
          "name": "",
          "type": "address"
        }
      ],
      "stateMutability": "view",
      "type": "function"
    },
    {
      "inputs": [],
      "name": "getManagerFeeNumeratorChangeDelay",
      "outputs": [
        {
          "internalType": "uint256",
          "name": "",
          "type": "uint256"
        }
      ],
      "stateMutability": "view",
      "type": "function"
    },
    {
      "inputs": [],
      "name": "getMaximumManagerFee",
      "outputs": [
        {
          "internalType": "uint256",
          "name": "",
          "type": "uint256"
        },
        {
          "internalType": "uint256",
          "name": "",
          "type": "uint256"
        }
      ],
      "stateMutability": "view",
      "type": "function"
    },
    {
      "inputs": [],
      "name": "getMaximumManagerFeeNumeratorChange",
      "outputs": [
        {
          "internalType": "uint256",
          "name": "",
          "type": "uint256"
        }
      ],
      "stateMutability": "view",
      "type": "function"
    },
    {
      "inputs": [],
      "name": "getMaximumSupportedAssetCount",
      "outputs": [
        {
          "internalType": "uint256",
          "name": "",
          "type": "uint256"
        }
      ],
      "stateMutability": "view",
      "type": "function"
    },
    {
      "inputs": [
        {
          "internalType": "address",
          "name": "pool",
          "type": "address"
        }
      ],
      "name": "getPoolManagerFee",
      "outputs": [
        {
          "internalType": "uint256",
          "name": "",
          "type": "uint256"
        },
        {
          "internalType": "uint256",
          "name": "",
          "type": "uint256"
        }
      ],
      "stateMutability": "view",
      "type": "function"
    },
    {
      "inputs": [],
      "name": "getTrackingCode",
      "outputs": [
        {
          "internalType": "bytes32",
          "name": "",
          "type": "bytes32"
        }
      ],
      "stateMutability": "view",
      "type": "function"
    },
    {
      "inputs": [
        {
          "internalType": "address",
          "name": "_asset",
          "type": "address"
        }
      ],
      "name": "getUSDPrice",
      "outputs": [
        {
          "internalType": "uint256",
          "name": "",
          "type": "uint256"
        }
      ],
      "stateMutability": "view",
      "type": "function"
    },
    {
      "inputs": [
        {
          "internalType": "contract IAddressResolver",
          "name": "_addressResolver",
          "type": "address"
        },
        {
          "internalType": "address",
          "name": "_poolLogic",
          "type": "address"
        },
        {
          "internalType": "address",
          "name": "_managerLogic",
          "type": "address"
        },
        {
          "internalType": "address",
          "name": "daoAddress",
          "type": "address"
        },
        {
          "internalType": "address[]",
          "name": "_validAssets",
          "type": "address[]"
        },
        {
          "internalType": "address[]",
          "name": "_aggregators",
          "type": "address[]"
        }
      ],
      "name": "initialize",
      "outputs": [],
      "stateMutability": "nonpayable",
      "type": "function"
    },
    {
      "inputs": [
        {
          "internalType": "address",
          "name": "",
          "type": "address"
        }
      ],
      "name": "isPool",
      "outputs": [
        {
          "internalType": "bool",
          "name": "",
          "type": "bool"
        }
      ],
      "stateMutability": "view",
      "type": "function"
    },
    {
      "inputs": [
        {
          "internalType": "address",
          "name": "",
          "type": "address"
        }
      ],
      "name": "isPoolManager",
      "outputs": [
        {
          "internalType": "bool",
          "name": "",
          "type": "bool"
        }
      ],
      "stateMutability": "view",
      "type": "function"
    },
    {
      "inputs": [
        {
          "internalType": "address",
          "name": "asset",
          "type": "address"
        }
      ],
      "name": "isValidAsset",
      "outputs": [
        {
          "internalType": "bool",
          "name": "",
          "type": "bool"
        }
      ],
      "stateMutability": "view",
      "type": "function"
    },
    {
      "inputs": [],
      "name": "managerFeeNumeratorChangeDelay",
      "outputs": [
        {
          "internalType": "uint256",
          "name": "",
          "type": "uint256"
        }
      ],
      "stateMutability": "view",
      "type": "function"
    },
    {
      "inputs": [],
      "name": "maximumManagerFeeNumeratorChange",
      "outputs": [
        {
          "internalType": "uint256",
          "name": "",
          "type": "uint256"
        }
      ],
      "stateMutability": "view",
      "type": "function"
    },
    {
      "inputs": [],
      "name": "owner",
      "outputs": [
        {
          "internalType": "address",
          "name": "",
          "type": "address"
        }
      ],
      "stateMutability": "view",
      "type": "function"
    },
    {
      "inputs": [
        {
          "internalType": "address",
          "name": "",
          "type": "address"
        }
      ],
      "name": "poolManagerFeeDenominator",
      "outputs": [
        {
          "internalType": "uint256",
          "name": "",
          "type": "uint256"
        }
      ],
      "stateMutability": "view",
      "type": "function"
    },
    {
      "inputs": [
        {
          "internalType": "address",
          "name": "",
          "type": "address"
        }
      ],
      "name": "poolManagerFeeNumerator",
      "outputs": [
        {
          "internalType": "uint256",
          "name": "",
          "type": "uint256"
        }
      ],
      "stateMutability": "view",
      "type": "function"
    },
    {
      "inputs": [],
      "name": "poolStorageVersion",
      "outputs": [
        {
          "internalType": "uint256",
          "name": "",
          "type": "uint256"
        }
      ],
      "stateMutability": "view",
      "type": "function"
    },
    {
      "inputs": [
        {
          "internalType": "address",
          "name": "",
          "type": "address"
        }
      ],
      "name": "poolVersion",
      "outputs": [
        {
          "internalType": "uint256",
          "name": "",
          "type": "uint256"
        }
      ],
      "stateMutability": "view",
      "type": "function"
    },
    {
      "inputs": [
        {
          "internalType": "address",
          "name": "asset",
          "type": "address"
        }
      ],
      "name": "removeValidAsset",
      "outputs": [],
      "stateMutability": "nonpayable",
      "type": "function"
    },
    {
      "inputs": [],
      "name": "renounceOwnership",
      "outputs": [],
      "stateMutability": "nonpayable",
      "type": "function"
    },
    {
      "inputs": [
        {
          "internalType": "address",
          "name": "_addressResolver",
          "type": "address"
        }
      ],
      "name": "setAddressResolver",
      "outputs": [],
      "stateMutability": "nonpayable",
      "type": "function"
    },
    {
      "inputs": [
        {
          "internalType": "address",
          "name": "daoAddress",
          "type": "address"
        }
      ],
      "name": "setDaoAddress",
      "outputs": [],
      "stateMutability": "nonpayable",
      "type": "function"
    },
    {
      "inputs": [
        {
          "internalType": "uint256",
          "name": "numerator",
          "type": "uint256"
        },
        {
          "internalType": "uint256",
          "name": "denominator",
          "type": "uint256"
        }
      ],
      "name": "setDaoFee",
      "outputs": [],
      "stateMutability": "nonpayable",
      "type": "function"
    },
    {
      "inputs": [
        {
          "internalType": "uint256",
          "name": "cooldown",
          "type": "uint256"
        }
      ],
      "name": "setExitCooldown",
      "outputs": [],
      "stateMutability": "nonpayable",
      "type": "function"
    },
    {
      "inputs": [
        {
          "internalType": "address",
          "name": "extContract",
          "type": "address"
        },
        {
          "internalType": "address",
          "name": "guardAddress",
          "type": "address"
        }
      ],
      "name": "setGuard",
      "outputs": [],
      "stateMutability": "nonpayable",
      "type": "function"
    },
    {
      "inputs": [
        {
          "internalType": "address",
          "name": "_poolLogic",
          "type": "address"
        },
        {
          "internalType": "address",
          "name": "_poolManagerLogic",
          "type": "address"
        }
      ],
      "name": "setLogic",
      "outputs": [],
      "stateMutability": "nonpayable",
      "type": "function"
    },
    {
      "inputs": [
        {
          "internalType": "uint256",
          "name": "delay",
          "type": "uint256"
        }
      ],
      "name": "setManagerFeeNumeratorChangeDelay",
      "outputs": [],
      "stateMutability": "nonpayable",
      "type": "function"
    },
    {
      "inputs": [
        {
          "internalType": "uint256",
          "name": "amount",
          "type": "uint256"
        }
      ],
      "name": "setMaximumManagerFeeNumeratorChange",
      "outputs": [],
      "stateMutability": "nonpayable",
      "type": "function"
    },
    {
      "inputs": [
        {
          "internalType": "uint256",
          "name": "count",
          "type": "uint256"
        }
      ],
      "name": "setMaximumSupportedAssetCount",
      "outputs": [],
      "stateMutability": "nonpayable",
      "type": "function"
    },
    {
      "inputs": [
        {
          "internalType": "address",
          "name": "pool",
          "type": "address"
        },
        {
          "internalType": "uint256",
          "name": "numerator",
          "type": "uint256"
        }
      ],
      "name": "setPoolManagerFeeNumerator",
      "outputs": [],
      "stateMutability": "nonpayable",
      "type": "function"
    },
    {
      "inputs": [
        {
          "internalType": "bytes32",
          "name": "code",
          "type": "bytes32"
        }
      ],
      "name": "setTrackingCode",
      "outputs": [],
      "stateMutability": "nonpayable",
      "type": "function"
    },
    {
      "inputs": [
        {
          "internalType": "address",
          "name": "newOwner",
          "type": "address"
        }
      ],
      "name": "transferOwnership",
      "outputs": [],
      "stateMutability": "nonpayable",
      "type": "function"
    },
    {
      "inputs": [
        {
          "internalType": "uint256",
          "name": "startIndex",
          "type": "uint256"
        },
        {
          "internalType": "uint256",
          "name": "endIndex",
          "type": "uint256"
        },
        {
          "internalType": "uint256",
          "name": "sourceVersion",
          "type": "uint256"
        },
        {
          "internalType": "uint256",
          "name": "targetVersion",
          "type": "uint256"
        },
        {
          "internalType": "bytes",
          "name": "data",
          "type": "bytes"
        }
      ],
      "name": "upgradePoolBatch",
      "outputs": [],
      "stateMutability": "nonpayable",
      "type": "function"
    }
  ],
  "bytecode": "0x60806040523480156200001c576000806200001962000023565b50505b5062000090565b632a2a7adb598160e01b8152600481016020815285602082015260005b868110156200005d57808601518282016040015260200162000040565b506020828760640184336000905af158600e01573d6000803e3d6000fd5b3d6001141558600a015760016000f35b505050565b614b0680620000a06000396000f3fe60806040523480156200001c576000806200001962003d91565b50505b5060043610620002df5760003560e01c8063808ae5fb1162000194578063bcb01f4411620000ec578063e60eb412116200009e578063e60eb4121462000e19578063e99c0fa61462000e4d578063ebee461d1462000e78578063ecef89d51462000e82578063eec16c441462000eb0578063f2fde38b1462000edb57620002df565b8063bcb01f441462000d3e578063bee37e521462000d69578063bfeaf71d1462000d9d578063cc435bf31462000da7578063d54e96d21462000ddb578063dc76d2541462000de557620002df565b80639cada6e411620001465780639cada6e41462000c8d578063aa12ae4d1462000c97578063aa7d664e1462000ca1578063b193a5f41462000ccc578063b28060011462000d00578063b7a545261462000d0a57620002df565b8063808ae5fb1462000b925780638b2f0f4f1462000bce5780638da5cb5b1462000c0257806394d0d23b1462000c0c5780639a068bd61462000c2e5780639a3cac6a1462000c5957620002df565b80634501b08811620002485780635c9bfc2b11620001fa5780635c9bfc2b1462000ad35780637027ea6c1462000add578063715018a61462000b1157806371c1c5491462000b1b578063742a96cd1462000b25578063771d1baf1462000b6157620002df565b80634501b08814620007c857806345812ca514620007d257806349f7c02d14620008ac578063515bbf2c14620008b65780635556ee551462000a575780635b16ebb71462000a8b57620002df565b80631430238711620002a25780631430238714620003815780631d68702d14620003b55780631e666d1314620003bf5780631e8e8bca1462000477578063227773ee14620004a2578063391d348b14620004de57620002df565b8063046b72c414620002ef57806305a2ee2a146200032b5780630bf99bd914620003515780630f6559c4146200036d57806310bf69dc1462000377575b600080620002ec62003d91565b50505b620003296004803603604081101562000312576000806200030f62003d91565b50505b506001600160a01b03813516906020013562000f0f565b005b62000335620010ea565b6040516001600160a01b03909116815260200160405180910390f35b6200035b6200110b565b60405190815260200160405180910390f35b6200035b62001120565b6200035b6200112f565b6200032960048036036020811015620003a457600080620003a162003d91565b50505b50356001600160a01b03166200113b565b62000335620011fb565b62000329600480360360a0811015620003e257600080620003df62003d91565b50505b81359160208101359160408201359160608101359181019060a081016080820135600160201b81111562000420576000806200041d62003d91565b50505b8201836020820111156200043e576000806200043b62003d91565b50505b803590602001918460018302840111600160201b831117156200046b576000806200046862003d91565b50505b5090925090506200121f565b62000329600480360360208110156200049a576000806200049762003d91565b50505b5035620013c2565b6200032960048036036040811015620004c557600080620004c262003d91565b50505b506001600160a01b038135811691602001351662001456565b62000335600480360360e08110156200050157600080620004fe62003d91565b50505b81351515916001600160a01b0360208201351691810190606081016040820135600160201b8111156200053e576000806200053b62003d91565b50505b8201836020820111156200055c576000806200055962003d91565b50505b803590602001918460018302840111600160201b8311171562000589576000806200058662003d91565b50505b91908080601f01602080910402602001604051908101604052818152929190602084018383808284376000920191909152509295949360208101935035915050600160201b811115620005e657600080620005e362003d91565b50505b82018360208201111562000604576000806200060162003d91565b50505b803590602001918460018302840111600160201b8311171562000631576000806200062e62003d91565b50505b91908080601f01602080910402602001604051908101604052818152929190602084018383808284376000920191909152509295949360208101935035915050600160201b8111156200068e576000806200068b62003d91565b50505b820183602082011115620006ac57600080620006a962003d91565b50505b803590602001918460018302840111600160201b83111715620006d957600080620006d662003d91565b50505b91908080601f016020809104026020016040519081016040528181529291906020840183838082843760009201919091525092958435959094909350604081019250602001359050600160201b8111156200073e576000806200073b62003d91565b50505b8201836020820111156200075c576000806200075962003d91565b50505b803590602001918460208302840111600160201b8311171562000789576000806200078662003d91565b50505b919080806020026020016040519081016040528093929190818152602001838360200280828437600092019190915250929550620014e5945050505050565b6200035b62001b5b565b6200033560048036036040811015620007f557600080620007f262003d91565b50505b810190602081018135600160201b8111156200081b576000806200081862003d91565b50505b82018360208201111562000839576000806200083662003d91565b50505b803590602001918460018302840111600160201b8311171562000866576000806200086362003d91565b50505b91908080601f01602080910402602001604051908101604052818152929190602084018383808284376000920191909152509295505050903560ff16915062001b6e9050565b6200035b62001b85565b62000329600480360360c0811015620008d957600080620008d662003d91565b50505b6001600160a01b03823581169260208101358216926040820135831692606083013516919081019060a081016080820135600160201b81111562000927576000806200092462003d91565b50505b82018360208201111562000945576000806200094262003d91565b50505b803590602001918460208302840111600160201b8311171562000972576000806200096f62003d91565b50505b9190808060200260200160405190810160405280939291908181526020018383602002808284376000920191909152509295949360208101935035915050600160201b811115620009cd57600080620009ca62003d91565b50505b820183602082011115620009eb57600080620009e862003d91565b50505b803590602001918460208302840111600160201b8311171562000a185760008062000a1562003d91565b50505b91908080602002602001604051908101604052809392919081815260200183836020028082843760009201919091525092955062001b93945050505050565b6200035b6004803603602081101562000a7a5760008062000a7762003d91565b50505b50356001600160a01b031662001e4b565b62000abf6004803603602081101562000aae5760008062000aab62003d91565b50505b50356001600160a01b031662001e65565b604051901515815260200160405180910390f35b6200035b62001e8e565b620003356004803603602081101562000b005760008062000afd62003d91565b50505b50356001600160a01b031662001e9c565b6200032962001ed9565b6200033562001fed565b620003296004803603604081101562000b485760008062000b4562003d91565b50505b506001600160a01b038135811691602001351662001ffc565b620003296004803603604081101562000b845760008062000b8162003d91565b50505b508035906020013562002166565b620003296004803603604081101562000bb55760008062000bb262003d91565b50505b506001600160a01b0381358116916020013516620021f8565b6200035b6004803603602081101562000bf15760008062000bee62003d91565b50505b50356001600160a01b0316620022f4565b6200033562002609565b62000c1662002618565b60405191825260208201526040908101905180910390f35b620003356004803603602081101562000c515760008062000c4e62003d91565b50505b50356200263b565b620003296004803603602081101562000c7c5760008062000c7962003d91565b50505b50356001600160a01b03166200266a565b62000c16620026fb565b6200035b62002716565b620003296004803603602081101562000cc45760008062000cc162003d91565b50505b503562002724565b62000abf6004803603602081101562000cef5760008062000cec62003d91565b50505b50356001600160a01b0316620027b5565b62000329620027d1565b62000c166004803603602081101562000d2d5760008062000d2a62003d91565b50505b50356001600160a01b0316620028c3565b620003296004803603602081101562000d615760008062000d5e62003d91565b50505b5035620029a3565b6200035b6004803603602081101562000d8c5760008062000d8962003d91565b50505b50356001600160a01b031662002a37565b6200035b62002a51565b62000abf6004803603602081101562000dca5760008062000dc762003d91565b50505b50356001600160a01b031662002a5d565b6200032962002a93565b620003296004803603602081101562000e085760008062000e0562003d91565b50505b50356001600160a01b031662002b87565b6200035b6004803603602081101562000e3c5760008062000e3962003d91565b50505b50356001600160a01b031662002cea565b620003296004803603602081101562000e705760008062000e6d62003d91565b50505b503562002d04565b6200035b62002d98565b620003356004803603602081101562000ea55760008062000ea262003d91565b50505b503560ff1662002da6565b620003296004803603602081101562000ed35760008062000ed062003d91565b50505b503562002de9565b620003296004803603602081101562000efe5760008062000efb62003d91565b50505b50356001600160a01b031662002e7a565b60d360005a62000f1e62003dfe565b6001600160a01b03166001600160a01b0316815260200190815260200160002060009062000f4b62003e55565b906101000a900460ff161515600115151462000fad5760405162461bcd60e51b81526020600482015260126024820152712737ba1030903837b7b61036b0b730b3b2b960711b60448201526064016040518091039062000faa62003d91565b50505b6001600160a01b038216600090815260d26020526040902060009062000fd262003e55565b906101000a900460ff16151560011515146200103f5760405162461bcd60e51b815260206004820152601e60248201527f737570706c6965642061646472657373206973206e6f74206120706f6f6c00006044820152606401604051809103906200103c62003d91565b50505b6200107860de6200104f62003e55565b6001600160a01b038416600090815260d6602052604090206200107162003e55565b9062002fbf565b811115620010ce5760405162461bcd60e51b81526020600482015260146024820152730dac2dcc2cecae440cccaca40e8dede40d0d2ced60631b604482015260640160405180910390620010cb62003d91565b50505b620010e6828260d5620010e062003e55565b6200302a565b5050565b600060cd620010f862003e55565b906101000a90046001600160a01b031681565b600060ce806200111a62003e55565b91505090565b60dd6200112c62003e55565b81565b60de6200112c62003e55565b62001145620030ec565b6001600160a01b0316600060656200115c62003e55565b906101000a90046001600160a01b03166001600160a01b031614620011c15760405162461bcd60e51b8152602060048201819052602482015260008051602062004a6a833981519152604482015260640160405180910390620011be62003d91565b50505b8060cd600181620011d162003e55565b816001600160a01b0302191690836001600160a01b0316021790620011f562003ea2565b50505050565b60008060cf6200120a62003e55565b906101000a90046001600160a01b0316905090565b62001229620030ec565b6001600160a01b0316600060656200124062003e55565b906101000a90046001600160a01b03166001600160a01b031614620012a55760405162461bcd60e51b8152602060048201819052602482015260008051602062004a6a833981519152604482015260640160405180910390620012a262003d91565b50505b848611158015620012c3575060ce80620012be62003e55565b905086105b8015620012dd575060ce80620012d862003e55565b905085105b6200132a5760405162461bcd60e51b815260206004820152600e60248201526d696e76616c696420626f756e647360901b6044820152606401604051809103906200132762003d91565b50505b855b858111620013b957600060ce82816200134462003e55565b81106200134d57fe5b906000526020600020016000906200136462003e55565b6001600160a01b036101009290920a900416600081815260dc6020529091508690604090206200139362003e55565b14620013a05750620013b0565b620013ae81858588620030f9565b505b6001016200132c565b50505050505050565b620013cc620030ec565b6001600160a01b031660006065620013e362003e55565b906101000a90046001600160a01b03166001600160a01b031614620014485760405162461bcd60e51b8152602060048201819052602482015260008051602062004a6a8339815191526044820152606401604051809103906200144562003d91565b50505b620014538162003293565b50565b600060cf6200146462003e55565b906101000a90046001600160a01b03166001600160a01b03165a6200148862003dfe565b6001600160a01b031614620014d95760405162461bcd60e51b81526020600482015260086024820152676f6e6c792064616f60c01b604482015260640160405180910390620014d662003d91565b50505b620010e68282620032a1565b600060605a63996d79a5598160e01b8152602081600483336000905af158600e01573d6000803e3d6000fd5b3d6001141558600a015760016000f35b8051925060005b6040811015620015415760008282015260200162001528565b505050888860cd6000906200155562003e55565b906101000a90046001600160a01b03168660405160240180866001600160a01b03168152602001856001600160a01b0316815260200180602001846001600160a01b0316815260200180602001838103835286818151815260200191508051906020019080838360005b83811015620015d9578082015183820152602001620015bf565b50505050905090810190601f168015620016075780820380516001836020036101000a031916815260200191505b50838103825284818151815260200191508051906020019060200280838360005b838110156200164257808201518382015260200162001628565b50505050905001975050505050505050604051601f1981830301815260409190915263d346cc6560e01b6020820180516001600160e01b03169091179052905060006200169182600162001b6e565b905060605a63996d79a5598160e01b8152602081600483336000905af158600e01573d6000803e3d6000fd5b3d6001141558600a015760016000f35b8051925060005b6040811015620016ed57600082820152602001620016d4565b5050508b8b8b8b8b8760405160240180886001600160a01b031681526020018715158152602001866001600160a01b03168152602001806020018060200180602001856001600160a01b03168152602001848103845288818151815260200191508051906020019080838360005b83811015620017755780820151838201526020016200175b565b50505050905090810190601f168015620017a35780820380516001836020036101000a031916815260200191505b50848103835287818151815260200191508051906020019080838360005b83811015620017db578082015183820152602001620017c1565b50505050905090810190601f168015620018095780820380516001836020036101000a031916815260200191505b50848103825286818151815260200191508051906020019080838360005b838110156200184157808201518382015260200162001827565b50505050905090810190601f1680156200186f5780820380516001836020036101000a031916815260200191505b509a5050505050505050505050604051601f198183030181526040919091526366fd3ce960e11b6020820180516001600160e01b0316909117905290506000620018bb82600262001b6e565b90508060ce80600181620018ce62003e55565b018082620018db62003ea2565b505060009283526000190191602091502001600181620018fa62003e55565b816001600160a01b0302191690836001600160a01b03160217906200191e62003ea2565b5050506001600160a01b038116600090815260d2602052600190604090206001816200194962003e55565b8160ff021916908315150217906200196062003ea2565b5050506001600160a01b038316600090815260d3602052600190604090206001816200198b62003e55565b8160ff02191690831515021790620019a262003ea2565b50505060dd620019b162003e55565b6001600160a01b038216600090815260dc602052604090208190620019d562003ea2565b505050620019ea818860d5620010e062003e55565b7f73a0638fe578fc759744633aa170a433061ca2cc1bb855d116c506e04a29901f818d8b8d8f5a62001a1b62003ef1565b8d60d562001a2862003e55565b60405180896001600160a01b0316815260200188151581526020018060200180602001876001600160a01b03168152602001868152602001858152602001848152602001838103835289818151815260200191508051906020019080838360005b8381101562001aa357808201518382015260200162001a89565b50505050905090810190601f16801562001ad15780820380516001836020036101000a031916815260200191505b50838103825288818151815260200191508051906020019080838360005b8381101562001b0957808201518382015260200162001aef565b50505050905090810190601f16801562001b375780820380516001836020036101000a031916815260200191505b509a505050505050505050505060405180910390a19b9a5050505050505050505050565b600060d862001b6962003e55565b905090565b600062001b7c8383620032c8565b90505b92915050565b600060db62001b6962003e55565b6001600062001ba162003e55565b906101000a900460ff168062001bbc575062001bbc62003484565b8062001bdc575060008062001bd062003e55565b906101000a900460ff16155b62001c245760405162461bcd60e51b815260040180806020018281038252602e81526020018062004a8a602e91396040019150506040518091039062001c2162003d91565b50505b600060018162001c3362003e55565b906101000a900460ff16159050801562001ca257600160006101008162001c5962003e55565b8160ff0219169083151502179062001c7062003ea2565b50505060016000806101000a8162001c8762003e55565b8160ff0219169083151502179062001c9e62003ea2565b5050505b62001cae8686620034f9565b8660cd60018162001cbe62003e55565b816001600160a01b0302191690836001600160a01b031602179062001ce262003ea2565b50505062001cf08462003503565b62001d006113886127106200357a565b62001d0e600a6064620035ed565b62001d1c62015180620036a1565b62001d2a6224ea00620029a3565b62001d376103e862002d04565b62001d43600a620036e8565b62001d576544484544474560d01b62003293565b60005b83518160ff16101562001e0f57600160d96000868460ff168151811062001d7d57fe5b60200260200101516001600160a01b03166001600160a01b0316815260200190815260200160002060018162001db262003e55565b8160ff0219169083151502179062001dc962003ea2565b50505062001e06848260ff168151811062001de057fe5b6020026020010151848360ff168151811062001df857fe5b60200260200101516200372f565b60010162001d5a565b508015620013b9576000806101008162001e2862003e55565b8160ff0219169083151502179062001e3f62003ea2565b50505050505050505050565b60dc60205280600052604060002090506200112c62003e55565b60d26020528060005260406000206000915062001e8162003e55565b906101000a900460ff1681565b600060de62001b6962003e55565b6001600160a01b038116600090815260e06020526040812060009062001ec162003e55565b906101000a90046001600160a01b031690505b919050565b62001ee3620030ec565b6001600160a01b03166000606562001efa62003e55565b906101000a90046001600160a01b03166001600160a01b03161462001f5f5760405162461bcd60e51b8152602060048201819052602482015260008051602062004a6a83398151915260448201526064016040518091039062001f5c62003d91565b50505b600080606562001f6e62003e55565b906101000a90046001600160a01b03166001600160a01b03167f8be0079c531659141344cd1fd0a4f28419497f9722a3daafe3b4186f6b6457e060405160405180910390a36000606560018162001fc462003e55565b816001600160a01b0302191690836001600160a01b031602179062001fe862003ea2565b505050565b60008060cd6200120a62003e55565b600060cf6200200a62003e55565b906101000a90046001600160a01b03166001600160a01b03165a6200202e62003dfe565b6001600160a01b0316146200207f5760405162461bcd60e51b81526020600482015260086024820152676f6e6c792064616f60c01b6044820152606401604051809103906200207c62003d91565b50505b6200208a8262002a5d565b15620020de5760405162461bcd60e51b8152602060048201526014602482015273617373657420616c72656164792065786973747360601b604482015260640160405180910390620020db62003d91565b50505b6001600160a01b038216600090815260d9602052600190604090206001816200210662003e55565b8160ff021916908315150217906200211d62003ea2565b5050506200212c82826200372f565b816001600160a01b03167fd63c302652b86334fe4eb891e7a01e61e836496485d9394f2c95b4222006ae5060405160405180910390a25050565b62002170620030ec565b6001600160a01b0316600060656200218762003e55565b906101000a90046001600160a01b03166001600160a01b031614620021ec5760405162461bcd60e51b8152602060048201819052602482015260008051602062004a6a833981519152604482015260640160405180910390620021e962003d91565b50505b620010e68282620035ed565b62002202620030ec565b6001600160a01b0316600060656200221962003e55565b906101000a90046001600160a01b03166001600160a01b0316146200227e5760405162461bcd60e51b8152602060048201819052602482015260008051602062004a6a8339815191526044820152606401604051809103906200227b62003d91565b50505b8160976001816200228e62003e55565b816001600160a01b0302191690836001600160a01b0316021790620022b262003ea2565b50505080609860006101000a81620022c962003e55565b816001600160a01b0302191690836001600160a01b0316021790620022ed62003ea2565b5050505050565b6001600160a01b038116600090815260cc60205280604081206000906200231a62003e55565b6001600160a01b036101009290920a900416905080620023775760405162461bcd60e51b8152600401808060200182810382526025815260200180620049d660259139604001915050604051809103906200237462003d91565b50505b60008060cb6200238662003e55565b906101000a900460ff16620024dd57600080836001600160a01b031663feaf968c6040518163ffffffff1660e01b815260040160a0604051808303818680620023ce62003f38565b158015620023e657600080620023e362003d91565b50505b505a620023f262003f85565b505050505015801562002414573d6000803e3d60006200241162003d91565b50505b505050506040513d60a081101562002436576000806200243362003d91565b50505b81019080805192919060200180519291906020018051929190602001805192919060200180515094975091955050505050505a6200247362003ef1565b620024828262015f9062002fbf565b1015620024cc5760405162461bcd60e51b815260040180806020018281038252602881526020018062004ab86028913960400191505060405180910390620024c962003d91565b50505b6000821315620024da578192505b50505b60008111620025295760405162461bcd60e51b815260040180806020018281038252602481526020018062004a2560249139604001915050604051809103906200252662003d91565b50505b6000846001600160a01b031663313ce5676040518163ffffffff1660e01b815260040160206040518083038186806200256162003f38565b15801562002579576000806200257662003d91565b50505b505a6200258562003f85565b5050505050158015620025a7573d6000803e3d6000620025a462003d91565b50505b505050506040513d6020811015620025c957600080620025c662003d91565b50505b81019080805160ff1693506200260092505050600a82900a620025f9846b204fce5e3e2502611000000062003756565b90620037bc565b95945050505050565b60008060656200120a62003e55565b60008060d46200262762003e55565b60d56200263362003e55565b915091509091565b60ce81816200264962003e55565b81106200265257fe5b9060005260206000200160009150620010f862003e55565b62002674620030ec565b6001600160a01b0316600060656200268b62003e55565b906101000a90046001600160a01b03166001600160a01b031614620026f05760405162461bcd60e51b8152602060048201819052602482015260008051602062004a6a833981519152604482015260640160405180910390620026ed62003d91565b50505b620014538162003503565b60008060d06200270a62003e55565b60d16200263362003e55565b600060da62001b6962003e55565b6200272e620030ec565b6001600160a01b0316600060656200274562003e55565b906101000a90046001600160a01b03166001600160a01b031614620027aa5760405162461bcd60e51b8152602060048201819052602482015260008051602062004a6a833981519152604482015260640160405180910390620027a762003d91565b50505b6200145381620036a1565b60d36020528060005260406000206000915062001e8162003e55565b600060cf620027df62003e55565b906101000a90046001600160a01b03166001600160a01b03165a6200280362003dfe565b6001600160a01b031614620028545760405162461bcd60e51b81526020600482015260086024820152676f6e6c792064616f60c01b6044820152606401604051809103906200285162003d91565b50505b600060cb6200286262003e55565b60ff6101009290920a90041615620028b75760405162461bcd60e51b815260040180806020018281038252602681526020018062004ae06026913960400191505060405180910390620028b462003d91565b50505b620028c1620037fe565b565b6001600160a01b038116600090815260d26020528060408120600090620028e962003e55565b906101000a900460ff1615156001151514620029565760405162461bcd60e51b815260206004820152601e60248201527f737570706c6965642061646472657373206973206e6f74206120706f6f6c00006044820152606401604051809103906200295362003d91565b50505b6001600160a01b038316600090815260d6602052604090206200297862003e55565b6001600160a01b038416600090815260d7602052604090206200299a62003e55565b91509150915091565b620029ad620030ec565b6001600160a01b031660006065620029c462003e55565b906101000a90046001600160a01b03166001600160a01b03161462002a295760405162461bcd60e51b8152602060048201819052602482015260008051602062004a6a83398151915260448201526064016040518091039062002a2662003d91565b50505b808060df620011f562003ea2565b60d660205280600052604060002090506200112c62003e55565b60df6200112c62003e55565b6001600160a01b038116600090815260d96020526040812060009062002a8262003e55565b906101000a900460ff169050919050565b600060cf62002aa162003e55565b906101000a90046001600160a01b03166001600160a01b03165a62002ac562003dfe565b6001600160a01b03161462002b165760405162461bcd60e51b81526020600482015260086024820152676f6e6c792064616f60c01b60448201526064016040518091039062002b1362003d91565b50505b600060cb62002b2462003e55565b906101000a900460ff161515600115151462002b7d5760405162461bcd60e51b815260040180806020018281038252602a815260200180620049fb602a91396040019150506040518091039062002b7a62003d91565b50505b620028c162003825565b600060cf62002b9562003e55565b906101000a90046001600160a01b03166001600160a01b03165a62002bb962003dfe565b6001600160a01b03161462002c0a5760405162461bcd60e51b81526020600482015260086024820152676f6e6c792064616f60c01b60448201526064016040518091039062002c0762003d91565b50505b62002c158162002a5d565b62002c675760405162461bcd60e51b8152602060048201526013602482015272185cdcd95d08191bd95cdb89dd08195e1a5cdd606a1b60448201526064016040518091039062002c6462003d91565b50505b6001600160a01b038116600090815260d96020526040812060018162002c8c62003e55565b8160ff0219169083151502179062002ca362003ea2565b50505062002cb18162003836565b806001600160a01b03167fe8b3c469b395bfd934168e4b7d14590c9cd1a6740533df170dbe3c219ff5a67460405160405180910390a250565b60d760205280600052604060002090506200112c62003e55565b62002d0e620030ec565b6001600160a01b03166000606562002d2562003e55565b906101000a90046001600160a01b03166001600160a01b03161462002d8a5760405162461bcd60e51b8152602060048201819052602482015260008051602062004a6a83398151915260448201526064016040518091039062002d8762003d91565b50505b808060de620011f562003ea2565b600060df62001b6962003e55565b60008160ff166001141562002ddb576000609862002dc362003e55565b906101000a90046001600160a01b0316905062001ed4565b6000609762002dc362003e55565b62002df3620030ec565b6001600160a01b03166000606562002e0a62003e55565b906101000a90046001600160a01b03166001600160a01b03161462002e6f5760405162461bcd60e51b8152602060048201819052602482015260008051602062004a6a83398151915260448201526064016040518091039062002e6c62003d91565b50505b6200145381620036e8565b62002e84620030ec565b6001600160a01b03166000606562002e9b62003e55565b906101000a90046001600160a01b03166001600160a01b03161462002f005760405162461bcd60e51b8152602060048201819052602482015260008051602062004a6a83398151915260448201526064016040518091039062002efd62003d91565b50505b6001600160a01b03811662002f525760405162461bcd60e51b8152600401808060200182810382526026815260200180620049b0602691396040019150506040518091039062002f4f62003d91565b50505b6001600160a01b0381166000606562002f6a62003e55565b906101000a90046001600160a01b03166001600160a01b03167f8be0079c531659141344cd1fd0a4f28419497f9722a3daafe3b4186f6b6457e060405160405180910390a3806065600181620011d162003e55565b60008282018381101562001b7c5760405162461bcd60e51b815260206004820152601b60248201527f536166654d6174683a206164646974696f6e206f766572666c6f7700000000006044820152606401604051809103906200302162003d91565b50509392505050565b80821115801562003046575060d46200304262003e55565b8211155b620030955760405162461bcd60e51b815260206004820152601060248201526f34b73b30b634b210333930b1ba34b7b760811b6044820152606401604051809103906200309262003d91565b50505b6001600160a01b038316600090815260d66020528290604090208190620030bb62003ea2565b5050506001600160a01b038316600090815260d76020528190604090208190620030e462003ea2565b505050505050565b60005a62001b6962003dfe565b6001600160a01b038416620031505760405162461bcd60e51b815260206004820152600e60248201526d1d185c99d95d0b5a5b9d985b1a5960921b6044820152606401604051809103906200314d62003d91565b50505b816200319c5760405162461bcd60e51b815260206004820152600c60248201526b19185d184b5a5b9d985b1a5960a21b6044820152606401604051809103906200319962003d91565b50505b606083838080601f01602080910402602001604051908101604052818152929190602084018383808284376000920182905250939450839250849150505160208401885a620031ea6200407b565b5050505050801560018114620032005762003217565b3d806000803e8060006200321362003d91565b5050505b5050846001600160a01b03165a6200322e62003dfe565b6001600160a01b03167f78a9b536049c39a00adaf57016b1376c99dd48a0faf2cef23690232f21ce42cc60405160405180910390a36001600160a01b038516600090815260dc60205282906040902081906200328962003ea2565b5050505050505050565b808060db620011f562003ea2565b6001600160a01b038216600090815260e0602052819060409020600181620022c962003e55565b600080620032d56200385b565b90507efffc2da0b561cae30d9826d37709e9421c4725faebc226cbbb7ef5fc5e7349816040516001600160a01b03909116815260200160405180910390a1806001600160a01b031663e74a474a5a63996d79a5598160e01b8152602081600483336000905af158600e01573d6000803e3d6000fd5b3d6001141558600a015760016000f35b8051925060005b60408110156200337a5760008282015260200162003361565b50505086866040518463ffffffff1660e01b815260040180846001600160a01b03168152602001806020018360ff168152602001828103825284818151815260200191508051906020019080838360005b83811015620033e5578082015183820152602001620033cb565b50505050905090810190601f168015620034135780820380516001836020036101000a031916815260200191505b50945050505050600060405180830381600087806200343162003f38565b15801562003449576000806200344662003d91565b50505b505a620034556200408d565b50505050505015801562003478573d6000803e3d60006200347562003d91565b50505b50929695505050505050565b6000805a63996d79a5598160e01b8152602081600483336000905af158600e01573d6000803e3d6000fd5b3d6001141558600a015760016000f35b8051925060005b6040811015620034df57600082820152602001620034c6565b5050509050600081620034f162003f38565b159250505090565b6200227e620038c2565b8060cf6001816200351362003e55565b816001600160a01b0302191690836001600160a01b03160217906200353762003ea2565b5050507ff1034ad6b4d45dc33a4142b9c51c2b7f89bf4a410696e426cc0f3224869e0aca816040516001600160a01b03909116815260200160405180910390a150565b80821115620035cd5760405162461bcd60e51b815260206004820152601060248201526f34b73b30b634b210333930b1ba34b7b760811b604482015260640160405180910390620035ca62003d91565b50505b818060d4620035db62003ea2565b5050508060d58190620022ed62003ea2565b80821115620036405760405162461bcd60e51b815260206004820152601060248201526f34b73b30b634b210333930b1ba34b7b760811b6044820152606401604051809103906200363d62003d91565b50505b818060d06200364e62003ea2565b5050508060d181906200366062003ea2565b5050507fb10da2958bf5ec1bff3164ff753a09e0460ed44d3abf73e79b817b500ed0f2f1828260405191825260208201526040908101905180910390a15050565b808060d8620036af62003ea2565b5050507f20d916c976f3971e8200089411b0b712ef4612d98380b8ad2e3d8a8a376d85c78160405190815260200160405180910390a150565b808060da620036f662003ea2565b5050507f0cd8fcb5e08d7632af461f0ad793e5c63dc0d7595c301f5880650175e37a87488160405190815260200160405180910390a150565b6001600160a01b038216600090815260cc602052819060409020600181620022c962003e55565b600082620037675750600062001b7f565b828202828482816200377557fe5b041462001b7c5760405162461bcd60e51b815260040180806020018281038252602181526020018062004a4960219139604001915050604051809103906200302162003d91565b600062001b7c838360405160408082019052601a81527f536166654d6174683a206469766973696f6e206279207a65726f000000000000602082015262003a14565b600160cb81816200380e62003e55565b8160ff0219169083151502179062001fe862003ea2565b600060cb6001816200380e62003e55565b6001600160a01b038116600090815260cc60205260408120600181620011d162003e55565b600080606060405162003871602082016200415b565b601f1982820381018352601f90910116604052905080516020820160006200389862004169565b5050915081620038a762003f38565b620038bc57600080620038b962003d91565b50505b50905090565b60016000620038d062003e55565b906101000a900460ff1680620038eb5750620038eb62003484565b806200390b5750600080620038ff62003e55565b906101000a900460ff16155b620039535760405162461bcd60e51b815260040180806020018281038252602e81526020018062004a8a602e9139604001915050604051809103906200395062003d91565b50505b60006001816200396262003e55565b906101000a900460ff161590508015620039d15760016000610100816200398862003e55565b8160ff021916908315150217906200399f62003ea2565b50505060016000806101000a81620039b662003e55565b8160ff02191690831515021790620039cd62003ea2565b5050505b620039db62003ac6565b620039e562003bec565b8015620014535760008061010081620039fd62003e55565b8160ff02191690831515021790620011f562003ea2565b6000818362003aaf5760405162461bcd60e51b81526004018080602001828103825283818151815260200191508051906020019080838360005b8381101562003a6857808201518382015260200162003a4e565b50505050905090810190601f16801562003a965780820380516001836020036101000a031916815260200191505b50925050506040518091039062003aac62003d91565b50505b50600083858162003abc57fe5b0495945050505050565b6001600062003ad462003e55565b906101000a900460ff168062003aef575062003aef62003484565b8062003b0f575060008062003b0362003e55565b906101000a900460ff16155b62003b575760405162461bcd60e51b815260040180806020018281038252602e81526020018062004a8a602e91396040019150506040518091039062003b5462003d91565b50505b600060018162003b6662003e55565b906101000a900460ff161590508015620039e557600160006101008162003b8c62003e55565b8160ff0219169083151502179062003ba362003ea2565b50505060016000806101000a8162003bba62003e55565b8160ff0219169083151502179062003bd162003ea2565b5050508015620014535760008061010081620039fd62003e55565b6001600062003bfa62003e55565b906101000a900460ff168062003c15575062003c1562003484565b8062003c35575060008062003c2962003e55565b906101000a900460ff16155b62003c7d5760405162461bcd60e51b815260040180806020018281038252602e81526020018062004a8a602e91396040019150506040518091039062003c7a62003d91565b50505b600060018162003c8c62003e55565b906101000a900460ff16159050801562003cfb57600160006101008162003cb262003e55565b8160ff0219169083151502179062003cc962003ea2565b50505060016000806101000a8162003ce062003e55565b8160ff0219169083151502179062003cf762003ea2565b5050505b600062003d07620030ec565b905080606560018162003d1962003e55565b816001600160a01b0302191690836001600160a01b031602179062003d3d62003ea2565b5050506001600160a01b03811660007f8be0079c531659141344cd1fd0a4f28419497f9722a3daafe3b4186f6b6457e060405160405180910390a3508015620014535760008061010081620039fd62003e55565b632a2a7adb598160e01b8152600481016020815285602082015260005b8681101562003dcb57808601518282016040015260200162003dae565b506020828760640184336000905af158600e01573d6000803e3d6000fd5b3d6001141558600a015760016000f35b505050565b6373509064598160e01b8152602081600483336000905af158600e01573d6000803e3d6000fd5b3d6001141558600a015760016000f35b8051935060005b604081101562001fe85760008282015260200162003e3c565b6303daa959598160e01b8152836004820152602081602483336000905af158600e01573d6000803e3d6000fd5b3d6001141558600a015760016000f35b8051600082529350602062003e3c565b6322bd64c0598160e01b8152836004820152846024820152600081604483336000905af158600e01573d6000803e3d6000fd5b3d6001141558600a015760016000f35b60008152602062003e3c565b63bdbf8c36598160e01b8152602081600483336000905af158600e01573d6000803e3d6000fd5b3d6001141558600a015760016000f35b8051600082529350602062003e3c565b638435035b598160e01b8152836004820152602081602483336000905af158600e01573d6000803e3d6000fd5b3d6001141558600a015760016000f35b8051600082529350602062003e3c565b638540661f598160e01b815262003fb9565b808083111562001b7f575090919050565b808083101562001b7f575090919050565b836004820152846024820152606060448201528660648201526084810160005b8881101562003ff357808801518282015260200162003fd9565b506060828960a40184336000905af158600e01573d6000803e3d6000fd5b3d6001141558600a015760016000f35b815160408301513d6000853e8b8b82606087013350600060045af150596200404a8d3d62003fa8565b8c0162004058818762003f97565b5b828110156200406f576000815260200162004059565b50929c50505050505050565b63ffe73914598160e01b815262003fb9565b6385979f76598160e01b8152836004820152846024820152606060448201528760648201526084810160005b89811015620040d3578089015182820152602001620040b9565b506060828a60a40184336000905af158600e01573d6000803e3d6000fd5b3d6001141558600a015760016000f35b815160408301513d6000853e8c8c82606087013350600060045af150596200412a8e3d62003fa8565b8d0162004138818762003f97565b5b828110156200414f576000815260200162004139565b50929d50505050505050565b6107c180620041ef83390190565b6314aa2ff7598160e01b8152600481016020815286602082015260005b87811015620041a357808701518282016040015260200162004186565b506020828860640184336000905af158600e01573d6000803e3d6000fd5b3d6001141558600a015760016000f35b8151965059825b81811015620022ed5760008152602001620041d856fe60806040523480156100195760008061001661001f565b50505b5061008a565b632a2a7adb598160e01b8152600481016020815285602082015260005b8681101561005757808601518282016040015260200161003c565b506020828760640184336000905af158600e01573d6000803e3d6000fd5b3d6001141558600a015760016000f35b505050565b610728806100996000396000f3fe6080604052600436106100225760003560e01c8063e74a474a1461003957610031565b366100315761002f610117565b005b61002f610117565b61002f60048036036060811015610058576000806100556104ca565b50505b6001600160a01b03823516919081019060408101602082013564010000000081111561008c576000806100896104ca565b50505b8201836020820111156100a7576000806100a46104ca565b50505b803590602001918460018302840111640100000000831117156100d2576000806100cf6104ca565b50505b91908080601f01602080910402602001604051908101604052818152929190602084018383808284376000920191909152509295505050903560ff1691506101319050565b61011f61012f565b61012f61012a6102c3565b6103c4565b565b600061013b6102c3565b6001600160a01b03161461018e5760405162461bcd60e51b815260206004820152600d60248201526c496d706c206e6f74207a65726f60981b60448201526064016040518091039061018b6104ca565b50505b61019783610401565b6101a08161048e565b6000825111156102be5760006101b46102c3565b6001600160a01b0316836040518082805190602001908083835b602083106101ed5780518252601f1990920191602091820191016101ce565b6001836020036101000a038019825116818451168082178552505050505050905001915050600060405180830381855a610225610535565b50505050509150503d8060008114610259576040513d603f01601f191681016040523d815291503d6000602084013e61025e565b606091505b50509050806102bc5760405162461bcd60e51b815260206004820152601a60248201527f496d706c656d656e746174696f6e20696e6974206661696c65640000000000006044820152606401604051809103906102b96104ca565b50505b505b505050565b6000807f360894a13ba1a3210667c828492db98dca3e2076cc3735a920a3ca505d382bbc806102f0610622565b91506001600160a01b03821661030b576000925050506103c1565b816001600160a01b031663ecef89d561032261049d565b6040516001600160e01b031960e084901b16815260ff9091166004820152602401602060405180830381868061035661067d565b15801561036b576000806103686104ca565b50505b505a6103756106c9565b5050505050158015610394573d6000803e3d60006103916104ca565b50505b505050506040513d60208110156103b3576000806103b06104ca565b50505b810190808051955050505050505b90565b3660008037600080366000845a6103d9610535565b50505050503d6000803e8080156103ef573d6000f35b3d60006103fa6104ca565b5050505050565b61040a816104b5565b6104635760405162461bcd60e51b815260206004820181905260248201527f43616e6e6f742073657420696d706c656d656e746174696f6e20746f20454f416044820152606401604051809103906104606104ca565b50505b7f360894a13ba1a3210667c828492db98dca3e2076cc3735a920a3ca505d382bbc81816102bc6106da565b600160fc1b81816102bc6106da565b600080600160fc1b806104ae610622565b9250505090565b600080826104c161067d565b15159392505050565b632a2a7adb598160e01b8152600481016020815285602082015260005b868110156105025780860151828201604001526020016104e7565b506020828760640184336000905af158600e01573d6000803e3d6000fd5b3d6001141558600a015760016000f35b505050565b63ffe73914598160e01b8152610568565b80808311156105525750815b92915050565b8080831015610552575090919050565b836004820152846024820152606060448201528660648201526084810160005b888110156105a0578088015182820152602001610588565b506060828960a40184336000905af158600e01573d6000803e3d6000fd5b3d6001141558600a015760016000f35b815160408301513d6000853e8b8b82606087013350600060045af150596105f58d3d610558565b8c016106018187610546565b5b828110156106165760008152602001610602565b50929c50505050505050565b6303daa959598160e01b8152836004820152602081602483336000905af158600e01573d6000803e3d6000fd5b3d6001141558600a015760016000f35b8051935060005b60408110156102be57600082820152602001610666565b638435035b598160e01b8152836004820152602081602483336000905af158600e01573d6000803e3d6000fd5b3d6001141558600a015760016000f35b80516000825293506020610666565b638540661f598160e01b8152610568565b6322bd64c0598160e01b8152836004820152846024820152600081604483336000905af158600e01573d6000803e3d6000fd5b3d6001141558600a015760016000f35b600081526020610666564f776e61626c653a206e6577206f776e657220697320746865207a65726f20616464726573735072696365436f6e73756d657256333a2061676772656761746f72206e6f7420666f756e645072696365436f6e73756d657256333a20636861696e6c696e6b20616c726561647920656e61626c65645072696365436f6e73756d657256333a207072696365206e6f7420617661696c61626c65536166654d6174683a206d756c7469706c69636174696f6e206f766572666c6f774f776e61626c653a2063616c6c6572206973206e6f7420746865206f776e6572436f6e747261637420696e7374616e63652068617320616c7265616479206265656e20696e697469616c697a65645072696365436f6e73756d657256333a20636861696e6c696e6b20707269636520657870697265645072696365436f6e73756d657256333a20636861696e6c696e6b206e6f7420656e61626c6564",
  "deployedBytecode": "0x60806040523480156200001c576000806200001962003d91565b50505b5060043610620002df5760003560e01c8063808ae5fb1162000194578063bcb01f4411620000ec578063e60eb412116200009e578063e60eb4121462000e19578063e99c0fa61462000e4d578063ebee461d1462000e78578063ecef89d51462000e82578063eec16c441462000eb0578063f2fde38b1462000edb57620002df565b8063bcb01f441462000d3e578063bee37e521462000d69578063bfeaf71d1462000d9d578063cc435bf31462000da7578063d54e96d21462000ddb578063dc76d2541462000de557620002df565b80639cada6e411620001465780639cada6e41462000c8d578063aa12ae4d1462000c97578063aa7d664e1462000ca1578063b193a5f41462000ccc578063b28060011462000d00578063b7a545261462000d0a57620002df565b8063808ae5fb1462000b925780638b2f0f4f1462000bce5780638da5cb5b1462000c0257806394d0d23b1462000c0c5780639a068bd61462000c2e5780639a3cac6a1462000c5957620002df565b80634501b08811620002485780635c9bfc2b11620001fa5780635c9bfc2b1462000ad35780637027ea6c1462000add578063715018a61462000b1157806371c1c5491462000b1b578063742a96cd1462000b25578063771d1baf1462000b6157620002df565b80634501b08814620007c857806345812ca514620007d257806349f7c02d14620008ac578063515bbf2c14620008b65780635556ee551462000a575780635b16ebb71462000a8b57620002df565b80631430238711620002a25780631430238714620003815780631d68702d14620003b55780631e666d1314620003bf5780631e8e8bca1462000477578063227773ee14620004a2578063391d348b14620004de57620002df565b8063046b72c414620002ef57806305a2ee2a146200032b5780630bf99bd914620003515780630f6559c4146200036d57806310bf69dc1462000377575b600080620002ec62003d91565b50505b620003296004803603604081101562000312576000806200030f62003d91565b50505b506001600160a01b03813516906020013562000f0f565b005b62000335620010ea565b6040516001600160a01b03909116815260200160405180910390f35b6200035b6200110b565b60405190815260200160405180910390f35b6200035b62001120565b6200035b6200112f565b6200032960048036036020811015620003a457600080620003a162003d91565b50505b50356001600160a01b03166200113b565b62000335620011fb565b62000329600480360360a0811015620003e257600080620003df62003d91565b50505b81359160208101359160408201359160608101359181019060a081016080820135600160201b81111562000420576000806200041d62003d91565b50505b8201836020820111156200043e576000806200043b62003d91565b50505b803590602001918460018302840111600160201b831117156200046b576000806200046862003d91565b50505b5090925090506200121f565b62000329600480360360208110156200049a576000806200049762003d91565b50505b5035620013c2565b6200032960048036036040811015620004c557600080620004c262003d91565b50505b506001600160a01b038135811691602001351662001456565b62000335600480360360e08110156200050157600080620004fe62003d91565b50505b81351515916001600160a01b0360208201351691810190606081016040820135600160201b8111156200053e576000806200053b62003d91565b50505b8201836020820111156200055c576000806200055962003d91565b50505b803590602001918460018302840111600160201b8311171562000589576000806200058662003d91565b50505b91908080601f01602080910402602001604051908101604052818152929190602084018383808284376000920191909152509295949360208101935035915050600160201b811115620005e657600080620005e362003d91565b50505b82018360208201111562000604576000806200060162003d91565b50505b803590602001918460018302840111600160201b8311171562000631576000806200062e62003d91565b50505b91908080601f01602080910402602001604051908101604052818152929190602084018383808284376000920191909152509295949360208101935035915050600160201b8111156200068e576000806200068b62003d91565b50505b820183602082011115620006ac57600080620006a962003d91565b50505b803590602001918460018302840111600160201b83111715620006d957600080620006d662003d91565b50505b91908080601f016020809104026020016040519081016040528181529291906020840183838082843760009201919091525092958435959094909350604081019250602001359050600160201b8111156200073e576000806200073b62003d91565b50505b8201836020820111156200075c576000806200075962003d91565b50505b803590602001918460208302840111600160201b8311171562000789576000806200078662003d91565b50505b919080806020026020016040519081016040528093929190818152602001838360200280828437600092019190915250929550620014e5945050505050565b6200035b62001b5b565b6200033560048036036040811015620007f557600080620007f262003d91565b50505b810190602081018135600160201b8111156200081b576000806200081862003d91565b50505b82018360208201111562000839576000806200083662003d91565b50505b803590602001918460018302840111600160201b8311171562000866576000806200086362003d91565b50505b91908080601f01602080910402602001604051908101604052818152929190602084018383808284376000920191909152509295505050903560ff16915062001b6e9050565b6200035b62001b85565b62000329600480360360c0811015620008d957600080620008d662003d91565b50505b6001600160a01b03823581169260208101358216926040820135831692606083013516919081019060a081016080820135600160201b81111562000927576000806200092462003d91565b50505b82018360208201111562000945576000806200094262003d91565b50505b803590602001918460208302840111600160201b8311171562000972576000806200096f62003d91565b50505b9190808060200260200160405190810160405280939291908181526020018383602002808284376000920191909152509295949360208101935035915050600160201b811115620009cd57600080620009ca62003d91565b50505b820183602082011115620009eb57600080620009e862003d91565b50505b803590602001918460208302840111600160201b8311171562000a185760008062000a1562003d91565b50505b91908080602002602001604051908101604052809392919081815260200183836020028082843760009201919091525092955062001b93945050505050565b6200035b6004803603602081101562000a7a5760008062000a7762003d91565b50505b50356001600160a01b031662001e4b565b62000abf6004803603602081101562000aae5760008062000aab62003d91565b50505b50356001600160a01b031662001e65565b604051901515815260200160405180910390f35b6200035b62001e8e565b620003356004803603602081101562000b005760008062000afd62003d91565b50505b50356001600160a01b031662001e9c565b6200032962001ed9565b6200033562001fed565b620003296004803603604081101562000b485760008062000b4562003d91565b50505b506001600160a01b038135811691602001351662001ffc565b620003296004803603604081101562000b845760008062000b8162003d91565b50505b508035906020013562002166565b620003296004803603604081101562000bb55760008062000bb262003d91565b50505b506001600160a01b0381358116916020013516620021f8565b6200035b6004803603602081101562000bf15760008062000bee62003d91565b50505b50356001600160a01b0316620022f4565b6200033562002609565b62000c1662002618565b60405191825260208201526040908101905180910390f35b620003356004803603602081101562000c515760008062000c4e62003d91565b50505b50356200263b565b620003296004803603602081101562000c7c5760008062000c7962003d91565b50505b50356001600160a01b03166200266a565b62000c16620026fb565b6200035b62002716565b620003296004803603602081101562000cc45760008062000cc162003d91565b50505b503562002724565b62000abf6004803603602081101562000cef5760008062000cec62003d91565b50505b50356001600160a01b0316620027b5565b62000329620027d1565b62000c166004803603602081101562000d2d5760008062000d2a62003d91565b50505b50356001600160a01b0316620028c3565b620003296004803603602081101562000d615760008062000d5e62003d91565b50505b5035620029a3565b6200035b6004803603602081101562000d8c5760008062000d8962003d91565b50505b50356001600160a01b031662002a37565b6200035b62002a51565b62000abf6004803603602081101562000dca5760008062000dc762003d91565b50505b50356001600160a01b031662002a5d565b6200032962002a93565b620003296004803603602081101562000e085760008062000e0562003d91565b50505b50356001600160a01b031662002b87565b6200035b6004803603602081101562000e3c5760008062000e3962003d91565b50505b50356001600160a01b031662002cea565b620003296004803603602081101562000e705760008062000e6d62003d91565b50505b503562002d04565b6200035b62002d98565b620003356004803603602081101562000ea55760008062000ea262003d91565b50505b503560ff1662002da6565b620003296004803603602081101562000ed35760008062000ed062003d91565b50505b503562002de9565b620003296004803603602081101562000efe5760008062000efb62003d91565b50505b50356001600160a01b031662002e7a565b60d360005a62000f1e62003dfe565b6001600160a01b03166001600160a01b0316815260200190815260200160002060009062000f4b62003e55565b906101000a900460ff161515600115151462000fad5760405162461bcd60e51b81526020600482015260126024820152712737ba1030903837b7b61036b0b730b3b2b960711b60448201526064016040518091039062000faa62003d91565b50505b6001600160a01b038216600090815260d26020526040902060009062000fd262003e55565b906101000a900460ff16151560011515146200103f5760405162461bcd60e51b815260206004820152601e60248201527f737570706c6965642061646472657373206973206e6f74206120706f6f6c00006044820152606401604051809103906200103c62003d91565b50505b6200107860de6200104f62003e55565b6001600160a01b038416600090815260d6602052604090206200107162003e55565b9062002fbf565b811115620010ce5760405162461bcd60e51b81526020600482015260146024820152730dac2dcc2cecae440cccaca40e8dede40d0d2ced60631b604482015260640160405180910390620010cb62003d91565b50505b620010e6828260d5620010e062003e55565b6200302a565b5050565b600060cd620010f862003e55565b906101000a90046001600160a01b031681565b600060ce806200111a62003e55565b91505090565b60dd6200112c62003e55565b81565b60de6200112c62003e55565b62001145620030ec565b6001600160a01b0316600060656200115c62003e55565b906101000a90046001600160a01b03166001600160a01b031614620011c15760405162461bcd60e51b8152602060048201819052602482015260008051602062004a6a833981519152604482015260640160405180910390620011be62003d91565b50505b8060cd600181620011d162003e55565b816001600160a01b0302191690836001600160a01b0316021790620011f562003ea2565b50505050565b60008060cf6200120a62003e55565b906101000a90046001600160a01b0316905090565b62001229620030ec565b6001600160a01b0316600060656200124062003e55565b906101000a90046001600160a01b03166001600160a01b031614620012a55760405162461bcd60e51b8152602060048201819052602482015260008051602062004a6a833981519152604482015260640160405180910390620012a262003d91565b50505b848611158015620012c3575060ce80620012be62003e55565b905086105b8015620012dd575060ce80620012d862003e55565b905085105b6200132a5760405162461bcd60e51b815260206004820152600e60248201526d696e76616c696420626f756e647360901b6044820152606401604051809103906200132762003d91565b50505b855b858111620013b957600060ce82816200134462003e55565b81106200134d57fe5b906000526020600020016000906200136462003e55565b6001600160a01b036101009290920a900416600081815260dc6020529091508690604090206200139362003e55565b14620013a05750620013b0565b620013ae81858588620030f9565b505b6001016200132c565b50505050505050565b620013cc620030ec565b6001600160a01b031660006065620013e362003e55565b906101000a90046001600160a01b03166001600160a01b031614620014485760405162461bcd60e51b8152602060048201819052602482015260008051602062004a6a8339815191526044820152606401604051809103906200144562003d91565b50505b620014538162003293565b50565b600060cf6200146462003e55565b906101000a90046001600160a01b03166001600160a01b03165a6200148862003dfe565b6001600160a01b031614620014d95760405162461bcd60e51b81526020600482015260086024820152676f6e6c792064616f60c01b604482015260640160405180910390620014d662003d91565b50505b620010e68282620032a1565b600060605a63996d79a5598160e01b8152602081600483336000905af158601d01573d60011458600c01573d6000803e3d621234565260ea61109c528051925060005b6040811015620015415760008282015260200162001528565b505050888860cd6000906200155562003e55565b906101000a90046001600160a01b03168660405160240180866001600160a01b03168152602001856001600160a01b0316815260200180602001846001600160a01b0316815260200180602001838103835286818151815260200191508051906020019080838360005b83811015620015d9578082015183820152602001620015bf565b50505050905090810190601f168015620016075780820380516001836020036101000a031916815260200191505b50838103825284818151815260200191508051906020019060200280838360005b838110156200164257808201518382015260200162001628565b50505050905001975050505050505050604051601f1981830301815260409190915263d346cc6560e01b6020820180516001600160e01b03169091179052905060006200169182600162001b6e565b905060605a63996d79a5598160e01b8152602081600483336000905af158601d01573d60011458600c01573d6000803e3d621234565260ea61109c528051925060005b6040811015620016ed57600082820152602001620016d4565b5050508b8b8b8b8b8760405160240180886001600160a01b031681526020018715158152602001866001600160a01b03168152602001806020018060200180602001856001600160a01b03168152602001848103845288818151815260200191508051906020019080838360005b83811015620017755780820151838201526020016200175b565b50505050905090810190601f168015620017a35780820380516001836020036101000a031916815260200191505b50848103835287818151815260200191508051906020019080838360005b83811015620017db578082015183820152602001620017c1565b50505050905090810190601f168015620018095780820380516001836020036101000a031916815260200191505b50848103825286818151815260200191508051906020019080838360005b838110156200184157808201518382015260200162001827565b50505050905090810190601f1680156200186f5780820380516001836020036101000a031916815260200191505b509a5050505050505050505050604051601f198183030181526040919091526366fd3ce960e11b6020820180516001600160e01b0316909117905290506000620018bb82600262001b6e565b90508060ce80600181620018ce62003e55565b018082620018db62003ea2565b505060009283526000190191602091502001600181620018fa62003e55565b816001600160a01b0302191690836001600160a01b03160217906200191e62003ea2565b5050506001600160a01b038116600090815260d2602052600190604090206001816200194962003e55565b8160ff021916908315150217906200196062003ea2565b5050506001600160a01b038316600090815260d3602052600190604090206001816200198b62003e55565b8160ff02191690831515021790620019a262003ea2565b50505060dd620019b162003e55565b6001600160a01b038216600090815260dc602052604090208190620019d562003ea2565b505050620019ea818860d5620010e062003e55565b7f73a0638fe578fc759744633aa170a433061ca2cc1bb855d116c506e04a29901f818d8b8d8f5a62001a1b62003ef1565b8d60d562001a2862003e55565b60405180896001600160a01b0316815260200188151581526020018060200180602001876001600160a01b03168152602001868152602001858152602001848152602001838103835289818151815260200191508051906020019080838360005b8381101562001aa357808201518382015260200162001a89565b50505050905090810190601f16801562001ad15780820380516001836020036101000a031916815260200191505b50838103825288818151815260200191508051906020019080838360005b8381101562001b0957808201518382015260200162001aef565b50505050905090810190601f16801562001b375780820380516001836020036101000a031916815260200191505b509a505050505050505050505060405180910390a19b9a5050505050505050505050565b600060d862001b6962003e55565b905090565b600062001b7c8383620032c8565b90505b92915050565b600060db62001b6962003e55565b6001600062001ba162003e55565b906101000a900460ff168062001bbc575062001bbc62003484565b8062001bdc575060008062001bd062003e55565b906101000a900460ff16155b62001c245760405162461bcd60e51b815260040180806020018281038252602e81526020018062004a8a602e91396040019150506040518091039062001c2162003d91565b50505b600060018162001c3362003e55565b906101000a900460ff16159050801562001ca257600160006101008162001c5962003e55565b8160ff0219169083151502179062001c7062003ea2565b50505060016000806101000a8162001c8762003e55565b8160ff0219169083151502179062001c9e62003ea2565b5050505b62001cae8686620034f9565b8660cd60018162001cbe62003e55565b816001600160a01b0302191690836001600160a01b031602179062001ce262003ea2565b50505062001cf08462003503565b62001d006113886127106200357a565b62001d0e600a6064620035ed565b62001d1c62015180620036a1565b62001d2a6224ea00620029a3565b62001d376103e862002d04565b62001d43600a620036e8565b62001d576544484544474560d01b62003293565b60005b83518160ff16101562001e0f57600160d96000868460ff168151811062001d7d57fe5b60200260200101516001600160a01b03166001600160a01b0316815260200190815260200160002060018162001db262003e55565b8160ff0219169083151502179062001dc962003ea2565b50505062001e06848260ff168151811062001de057fe5b6020026020010151848360ff168151811062001df857fe5b60200260200101516200372f565b60010162001d5a565b508015620013b9576000806101008162001e2862003e55565b8160ff0219169083151502179062001e3f62003ea2565b50505050505050505050565b60dc60205280600052604060002090506200112c62003e55565b60d26020528060005260406000206000915062001e8162003e55565b906101000a900460ff1681565b600060de62001b6962003e55565b6001600160a01b038116600090815260e06020526040812060009062001ec162003e55565b906101000a90046001600160a01b031690505b919050565b62001ee3620030ec565b6001600160a01b03166000606562001efa62003e55565b906101000a90046001600160a01b03166001600160a01b03161462001f5f5760405162461bcd60e51b8152602060048201819052602482015260008051602062004a6a83398151915260448201526064016040518091039062001f5c62003d91565b50505b600080606562001f6e62003e55565b906101000a90046001600160a01b03166001600160a01b03167f8be0079c531659141344cd1fd0a4f28419497f9722a3daafe3b4186f6b6457e060405160405180910390a36000606560018162001fc462003e55565b816001600160a01b0302191690836001600160a01b031602179062001fe862003ea2565b505050565b60008060cd6200120a62003e55565b600060cf6200200a62003e55565b906101000a90046001600160a01b03166001600160a01b03165a6200202e62003dfe565b6001600160a01b0316146200207f5760405162461bcd60e51b81526020600482015260086024820152676f6e6c792064616f60c01b6044820152606401604051809103906200207c62003d91565b50505b6200208a8262002a5d565b15620020de5760405162461bcd60e51b8152602060048201526014602482015273617373657420616c72656164792065786973747360601b604482015260640160405180910390620020db62003d91565b50505b6001600160a01b038216600090815260d9602052600190604090206001816200210662003e55565b8160ff021916908315150217906200211d62003ea2565b5050506200212c82826200372f565b816001600160a01b03167fd63c302652b86334fe4eb891e7a01e61e836496485d9394f2c95b4222006ae5060405160405180910390a25050565b62002170620030ec565b6001600160a01b0316600060656200218762003e55565b906101000a90046001600160a01b03166001600160a01b031614620021ec5760405162461bcd60e51b8152602060048201819052602482015260008051602062004a6a833981519152604482015260640160405180910390620021e962003d91565b50505b620010e68282620035ed565b62002202620030ec565b6001600160a01b0316600060656200221962003e55565b906101000a90046001600160a01b03166001600160a01b0316146200227e5760405162461bcd60e51b8152602060048201819052602482015260008051602062004a6a8339815191526044820152606401604051809103906200227b62003d91565b50505b8160976001816200228e62003e55565b816001600160a01b0302191690836001600160a01b0316021790620022b262003ea2565b50505080609860006101000a81620022c962003e55565b816001600160a01b0302191690836001600160a01b0316021790620022ed62003ea2565b5050505050565b6001600160a01b038116600090815260cc60205280604081206000906200231a62003e55565b6001600160a01b036101009290920a900416905080620023775760405162461bcd60e51b8152600401808060200182810382526025815260200180620049d660259139604001915050604051809103906200237462003d91565b50505b60008060cb6200238662003e55565b906101000a900460ff16620024dd57600080836001600160a01b031663feaf968c6040518163ffffffff1660e01b815260040160a0604051808303818680620023ce62003f38565b158015620023e657600080620023e362003d91565b50505b505a620023f262003f85565b505050505015801562002414573d6000803e3d60006200241162003d91565b50505b505050506040513d60a081101562002436576000806200243362003d91565b50505b81019080805192919060200180519291906020018051929190602001805192919060200180515094975091955050505050505a6200247362003ef1565b620024828262015f9062002fbf565b1015620024cc5760405162461bcd60e51b815260040180806020018281038252602881526020018062004ab86028913960400191505060405180910390620024c962003d91565b50505b6000821315620024da578192505b50505b60008111620025295760405162461bcd60e51b815260040180806020018281038252602481526020018062004a2560249139604001915050604051809103906200252662003d91565b50505b6000846001600160a01b031663313ce5676040518163ffffffff1660e01b815260040160206040518083038186806200256162003f38565b15801562002579576000806200257662003d91565b50505b505a6200258562003f85565b5050505050158015620025a7573d6000803e3d6000620025a462003d91565b50505b505050506040513d6020811015620025c957600080620025c662003d91565b50505b81019080805160ff1693506200260092505050600a82900a620025f9846b204fce5e3e2502611000000062003756565b90620037bc565b95945050505050565b60008060656200120a62003e55565b60008060d46200262762003e55565b60d56200263362003e55565b915091509091565b60ce81816200264962003e55565b81106200265257fe5b9060005260206000200160009150620010f862003e55565b62002674620030ec565b6001600160a01b0316600060656200268b62003e55565b906101000a90046001600160a01b03166001600160a01b031614620026f05760405162461bcd60e51b8152602060048201819052602482015260008051602062004a6a833981519152604482015260640160405180910390620026ed62003d91565b50505b620014538162003503565b60008060d06200270a62003e55565b60d16200263362003e55565b600060da62001b6962003e55565b6200272e620030ec565b6001600160a01b0316600060656200274562003e55565b906101000a90046001600160a01b03166001600160a01b031614620027aa5760405162461bcd60e51b8152602060048201819052602482015260008051602062004a6a833981519152604482015260640160405180910390620027a762003d91565b50505b6200145381620036a1565b60d36020528060005260406000206000915062001e8162003e55565b600060cf620027df62003e55565b906101000a90046001600160a01b03166001600160a01b03165a6200280362003dfe565b6001600160a01b031614620028545760405162461bcd60e51b81526020600482015260086024820152676f6e6c792064616f60c01b6044820152606401604051809103906200285162003d91565b50505b600060cb6200286262003e55565b60ff6101009290920a90041615620028b75760405162461bcd60e51b815260040180806020018281038252602681526020018062004ae06026913960400191505060405180910390620028b462003d91565b50505b620028c1620037fe565b565b6001600160a01b038116600090815260d26020528060408120600090620028e962003e55565b906101000a900460ff1615156001151514620029565760405162461bcd60e51b815260206004820152601e60248201527f737570706c6965642061646472657373206973206e6f74206120706f6f6c00006044820152606401604051809103906200295362003d91565b50505b6001600160a01b038316600090815260d6602052604090206200297862003e55565b6001600160a01b038416600090815260d7602052604090206200299a62003e55565b91509150915091565b620029ad620030ec565b6001600160a01b031660006065620029c462003e55565b906101000a90046001600160a01b03166001600160a01b03161462002a295760405162461bcd60e51b8152602060048201819052602482015260008051602062004a6a83398151915260448201526064016040518091039062002a2662003d91565b50505b808060df620011f562003ea2565b60d660205280600052604060002090506200112c62003e55565b60df6200112c62003e55565b6001600160a01b038116600090815260d96020526040812060009062002a8262003e55565b906101000a900460ff169050919050565b600060cf62002aa162003e55565b906101000a90046001600160a01b03166001600160a01b03165a62002ac562003dfe565b6001600160a01b03161462002b165760405162461bcd60e51b81526020600482015260086024820152676f6e6c792064616f60c01b60448201526064016040518091039062002b1362003d91565b50505b600060cb62002b2462003e55565b906101000a900460ff161515600115151462002b7d5760405162461bcd60e51b815260040180806020018281038252602a815260200180620049fb602a91396040019150506040518091039062002b7a62003d91565b50505b620028c162003825565b600060cf62002b9562003e55565b906101000a90046001600160a01b03166001600160a01b03165a62002bb962003dfe565b6001600160a01b03161462002c0a5760405162461bcd60e51b81526020600482015260086024820152676f6e6c792064616f60c01b60448201526064016040518091039062002c0762003d91565b50505b62002c158162002a5d565b62002c675760405162461bcd60e51b8152602060048201526013602482015272185cdcd95d08191bd95cdb89dd08195e1a5cdd606a1b60448201526064016040518091039062002c6462003d91565b50505b6001600160a01b038116600090815260d96020526040812060018162002c8c62003e55565b8160ff0219169083151502179062002ca362003ea2565b50505062002cb18162003836565b806001600160a01b03167fe8b3c469b395bfd934168e4b7d14590c9cd1a6740533df170dbe3c219ff5a67460405160405180910390a250565b60d760205280600052604060002090506200112c62003e55565b62002d0e620030ec565b6001600160a01b03166000606562002d2562003e55565b906101000a90046001600160a01b03166001600160a01b03161462002d8a5760405162461bcd60e51b8152602060048201819052602482015260008051602062004a6a83398151915260448201526064016040518091039062002d8762003d91565b50505b808060de620011f562003ea2565b600060df62001b6962003e55565b60008160ff166001141562002ddb576000609862002dc362003e55565b906101000a90046001600160a01b0316905062001ed4565b6000609762002dc362003e55565b62002df3620030ec565b6001600160a01b03166000606562002e0a62003e55565b906101000a90046001600160a01b03166001600160a01b03161462002e6f5760405162461bcd60e51b8152602060048201819052602482015260008051602062004a6a83398151915260448201526064016040518091039062002e6c62003d91565b50505b6200145381620036e8565b62002e84620030ec565b6001600160a01b03166000606562002e9b62003e55565b906101000a90046001600160a01b03166001600160a01b03161462002f005760405162461bcd60e51b8152602060048201819052602482015260008051602062004a6a83398151915260448201526064016040518091039062002efd62003d91565b50505b6001600160a01b03811662002f525760405162461bcd60e51b8152600401808060200182810382526026815260200180620049b0602691396040019150506040518091039062002f4f62003d91565b50505b6001600160a01b0381166000606562002f6a62003e55565b906101000a90046001600160a01b03166001600160a01b03167f8be0079c531659141344cd1fd0a4f28419497f9722a3daafe3b4186f6b6457e060405160405180910390a3806065600181620011d162003e55565b60008282018381101562001b7c5760405162461bcd60e51b815260206004820152601b60248201527f536166654d6174683a206164646974696f6e206f766572666c6f7700000000006044820152606401604051809103906200302162003d91565b50509392505050565b80821115801562003046575060d46200304262003e55565b8211155b620030955760405162461bcd60e51b815260206004820152601060248201526f34b73b30b634b210333930b1ba34b7b760811b6044820152606401604051809103906200309262003d91565b50505b6001600160a01b038316600090815260d66020528290604090208190620030bb62003ea2565b5050506001600160a01b038316600090815260d76020528190604090208190620030e462003ea2565b505050505050565b60005a62001b6962003dfe565b6001600160a01b038416620031505760405162461bcd60e51b815260206004820152600e60248201526d1d185c99d95d0b5a5b9d985b1a5960921b6044820152606401604051809103906200314d62003d91565b50505b816200319c5760405162461bcd60e51b815260206004820152600c60248201526b19185d184b5a5b9d985b1a5960a21b6044820152606401604051809103906200319962003d91565b50505b606083838080601f01602080910402602001604051908101604052818152929190602084018383808284376000920182905250939450839250849150505160208401885a620031ea6200407b565b5050505050801560018114620032005762003217565b3d806000803e8060006200321362003d91565b5050505b5050846001600160a01b03165a6200322e62003dfe565b6001600160a01b03167f78a9b536049c39a00adaf57016b1376c99dd48a0faf2cef23690232f21ce42cc60405160405180910390a36001600160a01b038516600090815260dc60205282906040902081906200328962003ea2565b5050505050505050565b808060db620011f562003ea2565b6001600160a01b038216600090815260e0602052819060409020600181620022c962003e55565b600080620032d56200385b565b90507efffc2da0b561cae30d9826d37709e9421c4725faebc226cbbb7ef5fc5e7349816040516001600160a01b03909116815260200160405180910390a1806001600160a01b031663e74a474a5a63996d79a5598160e01b8152602081600483336000905af158601d01573d60011458600c01573d6000803e3d621234565260ea61109c528051925060005b60408110156200337a5760008282015260200162003361565b50505086866040518463ffffffff1660e01b815260040180846001600160a01b03168152602001806020018360ff168152602001828103825284818151815260200191508051906020019080838360005b83811015620033e5578082015183820152602001620033cb565b50505050905090810190601f168015620034135780820380516001836020036101000a031916815260200191505b50945050505050600060405180830381600087806200343162003f38565b15801562003449576000806200344662003d91565b50505b505a620034556200408d565b50505050505015801562003478573d6000803e3d60006200347562003d91565b50505b50929695505050505050565b6000805a63996d79a5598160e01b8152602081600483336000905af158601d01573d60011458600c01573d6000803e3d621234565260ea61109c528051925060005b6040811015620034df57600082820152602001620034c6565b5050509050600081620034f162003f38565b159250505090565b6200227e620038c2565b8060cf6001816200351362003e55565b816001600160a01b0302191690836001600160a01b03160217906200353762003ea2565b5050507ff1034ad6b4d45dc33a4142b9c51c2b7f89bf4a410696e426cc0f3224869e0aca816040516001600160a01b03909116815260200160405180910390a150565b80821115620035cd5760405162461bcd60e51b815260206004820152601060248201526f34b73b30b634b210333930b1ba34b7b760811b604482015260640160405180910390620035ca62003d91565b50505b818060d4620035db62003ea2565b5050508060d58190620022ed62003ea2565b80821115620036405760405162461bcd60e51b815260206004820152601060248201526f34b73b30b634b210333930b1ba34b7b760811b6044820152606401604051809103906200363d62003d91565b50505b818060d06200364e62003ea2565b5050508060d181906200366062003ea2565b5050507fb10da2958bf5ec1bff3164ff753a09e0460ed44d3abf73e79b817b500ed0f2f1828260405191825260208201526040908101905180910390a15050565b808060d8620036af62003ea2565b5050507f20d916c976f3971e8200089411b0b712ef4612d98380b8ad2e3d8a8a376d85c78160405190815260200160405180910390a150565b808060da620036f662003ea2565b5050507f0cd8fcb5e08d7632af461f0ad793e5c63dc0d7595c301f5880650175e37a87488160405190815260200160405180910390a150565b6001600160a01b038216600090815260cc602052819060409020600181620022c962003e55565b600082620037675750600062001b7f565b828202828482816200377557fe5b041462001b7c5760405162461bcd60e51b815260040180806020018281038252602181526020018062004a4960219139604001915050604051809103906200302162003d91565b600062001b7c838360405160408082019052601a81527f536166654d6174683a206469766973696f6e206279207a65726f000000000000602082015262003a14565b600160cb81816200380e62003e55565b8160ff0219169083151502179062001fe862003ea2565b600060cb6001816200380e62003e55565b6001600160a01b038116600090815260cc60205260408120600181620011d162003e55565b600080606060405162003871602082016200415b565b601f1982820381018352601f90910116604052905080516020820160006200389862004169565b5050915081620038a762003f38565b620038bc57600080620038b962003d91565b50505b50905090565b60016000620038d062003e55565b906101000a900460ff1680620038eb5750620038eb62003484565b806200390b5750600080620038ff62003e55565b906101000a900460ff16155b620039535760405162461bcd60e51b815260040180806020018281038252602e81526020018062004a8a602e9139604001915050604051809103906200395062003d91565b50505b60006001816200396262003e55565b906101000a900460ff161590508015620039d15760016000610100816200398862003e55565b8160ff021916908315150217906200399f62003ea2565b50505060016000806101000a81620039b662003e55565b8160ff02191690831515021790620039cd62003ea2565b5050505b620039db62003ac6565b620039e562003bec565b8015620014535760008061010081620039fd62003e55565b8160ff02191690831515021790620011f562003ea2565b6000818362003aaf5760405162461bcd60e51b81526004018080602001828103825283818151815260200191508051906020019080838360005b8381101562003a6857808201518382015260200162003a4e565b50505050905090810190601f16801562003a965780820380516001836020036101000a031916815260200191505b50925050506040518091039062003aac62003d91565b50505b50600083858162003abc57fe5b0495945050505050565b6001600062003ad462003e55565b906101000a900460ff168062003aef575062003aef62003484565b8062003b0f575060008062003b0362003e55565b906101000a900460ff16155b62003b575760405162461bcd60e51b815260040180806020018281038252602e81526020018062004a8a602e91396040019150506040518091039062003b5462003d91565b50505b600060018162003b6662003e55565b906101000a900460ff161590508015620039e557600160006101008162003b8c62003e55565b8160ff0219169083151502179062003ba362003ea2565b50505060016000806101000a8162003bba62003e55565b8160ff0219169083151502179062003bd162003ea2565b5050508015620014535760008061010081620039fd62003e55565b6001600062003bfa62003e55565b906101000a900460ff168062003c15575062003c1562003484565b8062003c35575060008062003c2962003e55565b906101000a900460ff16155b62003c7d5760405162461bcd60e51b815260040180806020018281038252602e81526020018062004a8a602e91396040019150506040518091039062003c7a62003d91565b50505b600060018162003c8c62003e55565b906101000a900460ff16159050801562003cfb57600160006101008162003cb262003e55565b8160ff0219169083151502179062003cc962003ea2565b50505060016000806101000a8162003ce062003e55565b8160ff0219169083151502179062003cf762003ea2565b5050505b600062003d07620030ec565b905080606560018162003d1962003e55565b816001600160a01b0302191690836001600160a01b031602179062003d3d62003ea2565b5050506001600160a01b03811660007f8be0079c531659141344cd1fd0a4f28419497f9722a3daafe3b4186f6b6457e060405160405180910390a3508015620014535760008061010081620039fd62003e55565b632a2a7adb598160e01b8152600481016020815285602082015260005b8681101562003dcb57808601518282016040015260200162003dae565b506020828760640184336000905af158601d01573d60011458600c01573d6000803e3d621234565260ea61109c52505050565b6373509064598160e01b8152602081600483336000905af158601d01573d60011458600c01573d6000803e3d621234565260ea61109c528051935060005b604081101562001fe85760008282015260200162003e3c565b6303daa959598160e01b8152836004820152602081602483336000905af158601d01573d60011458600c01573d6000803e3d621234565260ea61109c528051600082529350602062003e3c565b6322bd64c0598160e01b8152836004820152846024820152600081604483336000905af158601d01573d60011458600c01573d6000803e3d621234565260ea61109c5260008152602062003e3c565b63bdbf8c36598160e01b8152602081600483336000905af158601d01573d60011458600c01573d6000803e3d621234565260ea61109c528051600082529350602062003e3c565b638435035b598160e01b8152836004820152602081602483336000905af158601d01573d60011458600c01573d6000803e3d621234565260ea61109c528051600082529350602062003e3c565b638540661f598160e01b815262003fb9565b808083111562001b7f575090919050565b808083101562001b7f575090919050565b836004820152846024820152606060448201528660648201526084810160005b8881101562003ff357808801518282015260200162003fd9565b506060828960a40184336000905af158601d01573d60011458600c01573d6000803e3d621234565260ea61109c52815160408301513d6000853e8b8b82606087013350600060045af150596200404a8d3d62003fa8565b8c0162004058818762003f97565b5b828110156200406f576000815260200162004059565b50929c50505050505050565b63ffe73914598160e01b815262003fb9565b6385979f76598160e01b8152836004820152846024820152606060448201528760648201526084810160005b89811015620040d3578089015182820152602001620040b9565b506060828a60a40184336000905af158601d01573d60011458600c01573d6000803e3d621234565260ea61109c52815160408301513d6000853e8c8c82606087013350600060045af150596200412a8e3d62003fa8565b8d0162004138818762003f97565b5b828110156200414f576000815260200162004139565b50929d50505050505050565b6107c180620041ef83390190565b6314aa2ff7598160e01b8152600481016020815286602082015260005b87811015620041a357808701518282016040015260200162004186565b506020828860640184336000905af158601d01573d60011458600c01573d6000803e3d621234565260ea61109c528151965059825b81811015620022ed5760008152602001620041d856fe60806040523480156100195760008061001661001f565b50505b5061008a565b632a2a7adb598160e01b8152600481016020815285602082015260005b8681101561005757808601518282016040015260200161003c565b506020828760640184336000905af158601d01573d60011458600c01573d6000803e3d621234565260ea61109c52505050565b610728806100996000396000f3fe6080604052600436106100225760003560e01c8063e74a474a1461003957610031565b366100315761002f610117565b005b61002f610117565b61002f60048036036060811015610058576000806100556104ca565b50505b6001600160a01b03823516919081019060408101602082013564010000000081111561008c576000806100896104ca565b50505b8201836020820111156100a7576000806100a46104ca565b50505b803590602001918460018302840111640100000000831117156100d2576000806100cf6104ca565b50505b91908080601f01602080910402602001604051908101604052818152929190602084018383808284376000920191909152509295505050903560ff1691506101319050565b61011f61012f565b61012f61012a6102c3565b6103c4565b565b600061013b6102c3565b6001600160a01b03161461018e5760405162461bcd60e51b815260206004820152600d60248201526c496d706c206e6f74207a65726f60981b60448201526064016040518091039061018b6104ca565b50505b61019783610401565b6101a08161048e565b6000825111156102be5760006101b46102c3565b6001600160a01b0316836040518082805190602001908083835b602083106101ed5780518252601f1990920191602091820191016101ce565b6001836020036101000a038019825116818451168082178552505050505050905001915050600060405180830381855a610225610535565b50505050509150503d8060008114610259576040513d603f01601f191681016040523d815291503d6000602084013e61025e565b606091505b50509050806102bc5760405162461bcd60e51b815260206004820152601a60248201527f496d706c656d656e746174696f6e20696e6974206661696c65640000000000006044820152606401604051809103906102b96104ca565b50505b505b505050565b6000807f360894a13ba1a3210667c828492db98dca3e2076cc3735a920a3ca505d382bbc806102f0610622565b91506001600160a01b03821661030b576000925050506103c1565b816001600160a01b031663ecef89d561032261049d565b6040516001600160e01b031960e084901b16815260ff9091166004820152602401602060405180830381868061035661067d565b15801561036b576000806103686104ca565b50505b505a6103756106c9565b5050505050158015610394573d6000803e3d60006103916104ca565b50505b505050506040513d60208110156103b3576000806103b06104ca565b50505b810190808051955050505050505b90565b3660008037600080366000845a6103d9610535565b50505050503d6000803e8080156103ef573d6000f35b3d60006103fa6104ca565b5050505050565b61040a816104b5565b6104635760405162461bcd60e51b815260206004820181905260248201527f43616e6e6f742073657420696d706c656d656e746174696f6e20746f20454f416044820152606401604051809103906104606104ca565b50505b7f360894a13ba1a3210667c828492db98dca3e2076cc3735a920a3ca505d382bbc81816102bc6106da565b600160fc1b81816102bc6106da565b600080600160fc1b806104ae610622565b9250505090565b600080826104c161067d565b15159392505050565b632a2a7adb598160e01b8152600481016020815285602082015260005b868110156105025780860151828201604001526020016104e7565b506020828760640184336000905af158601d01573d60011458600c01573d6000803e3d621234565260ea61109c52505050565b63ffe73914598160e01b8152610568565b80808311156105525750815b92915050565b8080831015610552575090919050565b836004820152846024820152606060448201528660648201526084810160005b888110156105a0578088015182820152602001610588565b506060828960a40184336000905af158601d01573d60011458600c01573d6000803e3d621234565260ea61109c52815160408301513d6000853e8b8b82606087013350600060045af150596105f58d3d610558565b8c016106018187610546565b5b828110156106165760008152602001610602565b50929c50505050505050565b6303daa959598160e01b8152836004820152602081602483336000905af158601d01573d60011458600c01573d6000803e3d621234565260ea61109c528051935060005b60408110156102be57600082820152602001610666565b638435035b598160e01b8152836004820152602081602483336000905af158601d01573d60011458600c01573d6000803e3d621234565260ea61109c5280516000825293506020610666565b638540661f598160e01b8152610568565b6322bd64c0598160e01b8152836004820152846024820152600081604483336000905af158601d01573d60011458600c01573d6000803e3d621234565260ea61109c52600081526020610666564f776e61626c653a206e6577206f776e657220697320746865207a65726f20616464726573735072696365436f6e73756d657256333a2061676772656761746f72206e6f7420666f756e645072696365436f6e73756d657256333a20636861696e6c696e6b20616c726561647920656e61626c65645072696365436f6e73756d657256333a207072696365206e6f7420617661696c61626c65536166654d6174683a206d756c7469706c69636174696f6e206f766572666c6f774f776e61626c653a2063616c6c6572206973206e6f7420746865206f776e6572436f6e747261637420696e7374616e63652068617320616c7265616479206265656e20696e697469616c697a65645072696365436f6e73756d657256333a20636861696e6c696e6b20707269636520657870697265645072696365436f6e73756d657256333a20636861696e6c696e6b206e6f7420656e61626c6564",
  "linkReferences": {},
  "deployedLinkReferences": {}
}