{
  "_format": "hh-sol-artifact-1",
  "contractName": "PoolFactory",
  "sourceName": "contracts/PoolFactory.sol",
  "abi": [
    {
      "anonymous": false,
      "inputs": [
        {
          "indexed": false,
          "internalType": "address",
          "name": "dao",
          "type": "address"
        }
      ],
      "name": "DaoAddressSet",
      "type": "event"
    },
    {
      "anonymous": false,
      "inputs": [
        {
          "indexed": false,
          "internalType": "uint256",
          "name": "numerator",
          "type": "uint256"
        },
        {
          "indexed": false,
          "internalType": "uint256",
          "name": "denominator",
          "type": "uint256"
        }
      ],
      "name": "DaoFeeSet",
      "type": "event"
    },
    {
      "anonymous": false,
      "inputs": [
        {
          "indexed": false,
          "internalType": "uint256",
          "name": "cooldown",
          "type": "uint256"
        }
      ],
      "name": "ExitFeeCooldownSet",
      "type": "event"
    },
    {
      "anonymous": false,
      "inputs": [
        {
          "indexed": false,
          "internalType": "uint256",
          "name": "numerator",
          "type": "uint256"
        },
        {
          "indexed": false,
          "internalType": "uint256",
          "name": "denominator",
          "type": "uint256"
        }
      ],
      "name": "ExitFeeSet",
      "type": "event"
    },
    {
      "anonymous": false,
      "inputs": [
        {
          "indexed": false,
          "internalType": "address",
          "name": "fundAddress",
          "type": "address"
        },
        {
          "indexed": false,
          "internalType": "bool",
          "name": "isPoolPrivate",
          "type": "bool"
        },
        {
          "indexed": false,
          "internalType": "string",
          "name": "fundName",
          "type": "string"
        },
        {
          "indexed": false,
          "internalType": "string",
          "name": "managerName",
          "type": "string"
        },
        {
          "indexed": false,
          "internalType": "address",
          "name": "manager",
          "type": "address"
        },
        {
          "indexed": false,
          "internalType": "uint256",
          "name": "time",
          "type": "uint256"
        },
        {
          "indexed": false,
          "internalType": "uint256",
          "name": "managerFeeNumerator",
          "type": "uint256"
        },
        {
          "indexed": false,
          "internalType": "uint256",
          "name": "managerFeeDenominator",
          "type": "uint256"
        }
      ],
      "name": "FundCreated",
      "type": "event"
    },
    {
      "anonymous": false,
      "inputs": [
        {
          "indexed": false,
          "internalType": "uint256",
          "name": "count",
          "type": "uint256"
        }
      ],
      "name": "MaximumSupportedAssetCountSet",
      "type": "event"
    },
    {
      "anonymous": false,
      "inputs": [
        {
          "indexed": true,
          "internalType": "address",
          "name": "previousOwner",
          "type": "address"
        },
        {
          "indexed": true,
          "internalType": "address",
          "name": "newOwner",
          "type": "address"
        }
      ],
      "name": "OwnershipTransferred",
      "type": "event"
    },
    {
      "anonymous": false,
      "inputs": [
        {
          "indexed": false,
          "internalType": "address",
          "name": "proxy",
          "type": "address"
        }
      ],
      "name": "ProxyCreated",
      "type": "event"
    },
    {
      "inputs": [],
      "name": "addressResolver",
      "outputs": [
        {
          "internalType": "contract IAddressResolver",
          "name": "",
          "type": "address"
        }
      ],
      "stateMutability": "view",
      "type": "function"
    },
    {
      "inputs": [],
      "name": "addressResolverAddress",
      "outputs": [
        {
          "internalType": "address",
          "name": "",
          "type": "address"
        }
      ],
      "stateMutability": "view",
      "type": "function"
    },
    {
      "inputs": [
        {
          "internalType": "bool",
          "name": "_privatePool",
          "type": "bool"
        },
        {
          "internalType": "address",
          "name": "_manager",
          "type": "address"
        },
        {
          "internalType": "string",
          "name": "_managerName",
          "type": "string"
        },
        {
          "internalType": "string",
          "name": "_fundName",
          "type": "string"
        },
        {
          "internalType": "uint256",
          "name": "_managerFeeNumerator",
          "type": "uint256"
        },
        {
          "internalType": "bytes32[]",
          "name": "_supportedAssets",
          "type": "bytes32[]"
        }
      ],
      "name": "createFund",
      "outputs": [
        {
          "internalType": "address",
          "name": "",
          "type": "address"
        }
      ],
      "stateMutability": "nonpayable",
      "type": "function"
    },
    {
      "inputs": [
        {
          "internalType": "bytes",
          "name": "_data",
          "type": "bytes"
        },
        {
          "internalType": "uint8",
          "name": "_proxyType",
          "type": "uint8"
        }
      ],
      "name": "deploy",
      "outputs": [
        {
          "internalType": "address",
          "name": "",
          "type": "address"
        }
      ],
      "stateMutability": "nonpayable",
      "type": "function"
    },
    {
      "inputs": [
        {
          "internalType": "uint256",
          "name": "",
          "type": "uint256"
        }
      ],
      "name": "deployedFunds",
      "outputs": [
        {
          "internalType": "address",
          "name": "",
          "type": "address"
        }
      ],
      "stateMutability": "view",
      "type": "function"
    },
    {
      "inputs": [],
      "name": "deployedFundsLength",
      "outputs": [
        {
          "internalType": "uint256",
          "name": "",
          "type": "uint256"
        }
      ],
      "stateMutability": "view",
      "type": "function"
    },
    {
      "inputs": [],
      "name": "getDaoAddress",
      "outputs": [
        {
          "internalType": "address",
          "name": "",
          "type": "address"
        }
      ],
      "stateMutability": "view",
      "type": "function"
    },
    {
      "inputs": [],
      "name": "getDaoFee",
      "outputs": [
        {
          "internalType": "uint256",
          "name": "",
          "type": "uint256"
        },
        {
          "internalType": "uint256",
          "name": "",
          "type": "uint256"
        }
      ],
      "stateMutability": "view",
      "type": "function"
    },
    {
      "inputs": [],
      "name": "getExitFee",
      "outputs": [
        {
          "internalType": "uint256",
          "name": "",
          "type": "uint256"
        },
        {
          "internalType": "uint256",
          "name": "",
          "type": "uint256"
        }
      ],
      "stateMutability": "view",
      "type": "function"
    },
    {
      "inputs": [],
      "name": "getExitFeeCooldown",
      "outputs": [
        {
          "internalType": "uint256",
          "name": "",
          "type": "uint256"
        }
      ],
      "stateMutability": "view",
      "type": "function"
    },
    {
      "inputs": [
        {
          "internalType": "uint8",
          "name": "_proxyType",
          "type": "uint8"
        }
      ],
      "name": "getLogic",
      "outputs": [
        {
          "internalType": "address",
          "name": "",
          "type": "address"
        }
      ],
      "stateMutability": "view",
      "type": "function"
    },
    {
      "inputs": [],
      "name": "getMaximumManagerFee",
      "outputs": [
        {
          "internalType": "uint256",
          "name": "",
          "type": "uint256"
        },
        {
          "internalType": "uint256",
          "name": "",
          "type": "uint256"
        }
      ],
      "stateMutability": "view",
      "type": "function"
    },
    {
      "inputs": [],
      "name": "getMaximumSupportedAssetCount",
      "outputs": [
        {
          "internalType": "uint256",
          "name": "",
          "type": "uint256"
        }
      ],
      "stateMutability": "view",
      "type": "function"
    },
    {
      "inputs": [
        {
          "internalType": "address",
          "name": "pool",
          "type": "address"
        }
      ],
      "name": "getPoolManagerFee",
      "outputs": [
        {
          "internalType": "uint256",
          "name": "",
          "type": "uint256"
        },
        {
          "internalType": "uint256",
          "name": "",
          "type": "uint256"
        }
      ],
      "stateMutability": "view",
      "type": "function"
    },
    {
      "inputs": [],
      "name": "getTrackingCode",
      "outputs": [
        {
          "internalType": "bytes32",
          "name": "",
          "type": "bytes32"
        }
      ],
      "stateMutability": "view",
      "type": "function"
    },
    {
      "inputs": [
        {
          "internalType": "address",
          "name": "_addressResolver",
          "type": "address"
        },
        {
          "internalType": "address",
          "name": "_poolLogic",
          "type": "address"
        },
        {
          "internalType": "address",
          "name": "_managerLogic",
          "type": "address"
        },
        {
          "internalType": "address",
          "name": "daoAddress",
          "type": "address"
        }
      ],
      "name": "initialize",
      "outputs": [],
      "stateMutability": "nonpayable",
      "type": "function"
    },
    {
      "inputs": [
        {
          "internalType": "address",
          "name": "",
          "type": "address"
        }
      ],
      "name": "isPool",
      "outputs": [
        {
          "internalType": "bool",
          "name": "",
          "type": "bool"
        }
      ],
      "stateMutability": "view",
      "type": "function"
    },
    {
      "inputs": [],
      "name": "owner",
      "outputs": [
        {
          "internalType": "address",
          "name": "",
          "type": "address"
        }
      ],
      "stateMutability": "view",
      "type": "function"
    },
    {
      "inputs": [
        {
          "internalType": "address",
          "name": "",
          "type": "address"
        }
      ],
      "name": "poolManagerFeeDenominator",
      "outputs": [
        {
          "internalType": "uint256",
          "name": "",
          "type": "uint256"
        }
      ],
      "stateMutability": "view",
      "type": "function"
    },
    {
      "inputs": [
        {
          "internalType": "address",
          "name": "",
          "type": "address"
        }
      ],
      "name": "poolManagerFeeNumerator",
      "outputs": [
        {
          "internalType": "uint256",
          "name": "",
          "type": "uint256"
        }
      ],
      "stateMutability": "view",
      "type": "function"
    },
    {
      "inputs": [],
      "name": "renounceOwnership",
      "outputs": [],
      "stateMutability": "nonpayable",
      "type": "function"
    },
    {
      "inputs": [
        {
          "internalType": "address",
          "name": "daoAddress",
          "type": "address"
        }
      ],
      "name": "setDaoAddress",
      "outputs": [],
      "stateMutability": "nonpayable",
      "type": "function"
    },
    {
      "inputs": [
        {
          "internalType": "uint256",
          "name": "numerator",
          "type": "uint256"
        },
        {
          "internalType": "uint256",
          "name": "denominator",
          "type": "uint256"
        }
      ],
      "name": "setDaoFee",
      "outputs": [],
      "stateMutability": "nonpayable",
      "type": "function"
    },
    {
      "inputs": [
        {
          "internalType": "uint256",
          "name": "numerator",
          "type": "uint256"
        },
        {
          "internalType": "uint256",
          "name": "denominator",
          "type": "uint256"
        }
      ],
      "name": "setExitFee",
      "outputs": [],
      "stateMutability": "nonpayable",
      "type": "function"
    },
    {
      "inputs": [
        {
          "internalType": "uint256",
          "name": "cooldown",
          "type": "uint256"
        }
      ],
      "name": "setExitFeeCooldown",
      "outputs": [],
      "stateMutability": "nonpayable",
      "type": "function"
    },
    {
      "inputs": [
        {
          "internalType": "address",
          "name": "_poolLogic",
          "type": "address"
        },
        {
          "internalType": "address",
          "name": "_poolManagerLogic",
          "type": "address"
        }
      ],
      "name": "setLogic",
      "outputs": [],
      "stateMutability": "nonpayable",
      "type": "function"
    },
    {
      "inputs": [
        {
          "internalType": "uint256",
          "name": "count",
          "type": "uint256"
        }
      ],
      "name": "setMaximumSupportedAssetCount",
      "outputs": [],
      "stateMutability": "nonpayable",
      "type": "function"
    },
    {
      "inputs": [
        {
          "internalType": "address",
          "name": "pool",
          "type": "address"
        },
        {
          "internalType": "uint256",
          "name": "numerator",
          "type": "uint256"
        }
      ],
      "name": "setPoolManagerFeeNumerator",
      "outputs": [],
      "stateMutability": "nonpayable",
      "type": "function"
    },
    {
      "inputs": [
        {
          "internalType": "bytes32",
          "name": "code",
          "type": "bytes32"
        }
      ],
      "name": "setTrackingCode",
      "outputs": [],
      "stateMutability": "nonpayable",
      "type": "function"
    },
    {
      "inputs": [
        {
          "internalType": "address",
          "name": "newOwner",
          "type": "address"
        }
      ],
      "name": "transferOwnership",
      "outputs": [],
      "stateMutability": "nonpayable",
      "type": "function"
    }
  ],
  "bytecode": "0x608060405234801561001057600080fd5b5061203d806100206000396000f3fe608060405234801561001057600080fd5b50600436106101da5760003560e01c80639a3cac6a11610104578063bee37e52116100a2578063eda96ea911610071578063eda96ea9146106dc578063eec16c44146106e4578063f2fde38b14610701578063f8c8765e14610727576101da565b8063bee37e5214610668578063e60eb4121461068e578063ecb0116a146106b4578063ecef89d5146106bc576101da565b8063aa12ae4d116100de578063aa12ae4d14610453578063ad3905661461045b578063b064e65d14610478578063b7a5452614610642576101da565b80639a3cac6a146104025780639cada6e4146104285780639f49b60e14610430576101da565b806349f7c02d1161017c578063808ae5fb1161014b578063808ae5fb1461038e5780638da5cb5b146103bc57806394d0d23b146103c45780639a068bd6146103e5576101da565b806349f7c02d146103215780635b16ebb714610329578063715018a614610363578063771d1baf1461036b576101da565b80630e53b751116101b85780630e53b7511461024b5780631d68702d146102535780631e8e8bca1461025b57806345812ca514610278576101da565b8063046b72c4146101df57806305a2ee2a1461020d5780630bf99bd914610231575b600080fd5b61020b600480360360408110156101f557600080fd5b506001600160a01b038135169060200135610765565b005b6102156108c8565b604080516001600160a01b039092168252519081900360200190f35b6102396108d7565b60408051918252519081900360200190f35b6102156108dd565b6102156108ec565b61020b6004803603602081101561027157600080fd5b50356108fb565b6102156004803603604081101561028e57600080fd5b810190602081018135600160201b8111156102a857600080fd5b8201836020820111156102ba57600080fd5b803590602001918460018302840111600160201b831117156102db57600080fd5b91908080601f0160208091040260200160405190810160405280939291908181526020018383808284376000920191909152509295505050903560ff16915061095f9050565b610239610972565b61034f6004803603602081101561033f57600080fd5b50356001600160a01b0316610978565b604080519115158252519081900360200190f35b61020b61098d565b61020b6004803603604081101561038157600080fd5b5080359060200135610a2f565b61020b600480360360408110156103a457600080fd5b506001600160a01b0381358116916020013516610a91565b610215610b17565b6103cc610b26565b6040805192835260208301919091528051918290030190f35b610215600480360360208110156103fb57600080fd5b5035610b30565b61020b6004803603602081101561041857600080fd5b50356001600160a01b0316610b57565b6103cc610bb8565b61020b6004803603604081101561044657600080fd5b5080359060200135610bc2565b610239610c24565b61020b6004803603602081101561047157600080fd5b5035610c2a565b610215600480360360c081101561048e57600080fd5b81351515916001600160a01b0360208201351691810190606081016040820135600160201b8111156104bf57600080fd5b8201836020820111156104d157600080fd5b803590602001918460018302840111600160201b831117156104f257600080fd5b91908080601f0160208091040260200160405190810160405280939291908181526020018383808284376000920191909152509295949360208101935035915050600160201b81111561054457600080fd5b82018360208201111561055657600080fd5b803590602001918460018302840111600160201b8311171561057757600080fd5b91908080601f01602080910402602001604051908101604052809392919081815260200183838082843760009201919091525092958435959094909350604081019250602001359050600160201b8111156105d157600080fd5b8201836020820111156105e357600080fd5b803590602001918460208302840111600160201b8311171561060457600080fd5b919080806020026020016040519081016040528093929190818152602001838360200280828437600092019190915250929550610c8b945050505050565b6103cc6004803603602081101561065857600080fd5b50356001600160a01b03166110de565b6102396004803603602081101561067e57600080fd5b50356001600160a01b031661117c565b610239600480360360208110156106a457600080fd5b50356001600160a01b031661118e565b6103cc6111a0565b610215600480360360208110156106d257600080fd5b503560ff166111aa565b6102396111dd565b61020b600480360360208110156106fa57600080fd5b50356111e3565b61020b6004803603602081101561071757600080fd5b50356001600160a01b0316611244565b61020b6004803603608081101561073d57600080fd5b506001600160a01b03813581169160208101358216916040820135811691606001351661133d565b6001600160a01b03821633148015610791575033600090815260d1602052604090205460ff1615156001145b6107e2576040805162461bcd60e51b815260206004820152601e60248201527f6f6e6c79206120706f6f6c2063616e206368616e6765206f776e206665650000604482015290519081900360640190fd5b6001600160a01b038216600090815260d1602052604090205460ff161515600114610854576040805162461bcd60e51b815260206004820152601e60248201527f737570706c6965642061646472657373206973206e6f74206120706f6f6c0000604482015290519081900360640190fd5b6001600160a01b038216600090815260d4602052604090205481106108b7576040805162461bcd60e51b81526020600482015260146024820152730dac2dcc2cecae440cccaca40e8dede40d0d2ced60631b604482015290519081900360640190fd5b6108c4338260d354611470565b5050565b60cb546001600160a01b031681565b60cd5490565b60cc546001600160a01b031681565b60ce546001600160a01b031690565b6109036114ee565b6065546001600160a01b03908116911614610953576040805162461bcd60e51b81526020600482018190526024820152600080516020611fba833981519152604482015290519081900360640190fd5b61095c816114f2565b50565b600061096b83836114f7565b9392505050565b60da5490565b60d16020526000908152604090205460ff1681565b6109956114ee565b6065546001600160a01b039081169116146109e5576040805162461bcd60e51b81526020600482018190526024820152600080516020611fba833981519152604482015290519081900360640190fd5b6065546040516000916001600160a01b0316907f8be0079c531659141344cd1fd0a4f28419497f9722a3daafe3b4186f6b6457e0908390a3606580546001600160a01b0319169055565b610a376114ee565b6065546001600160a01b03908116911614610a87576040805162461bcd60e51b81526020600482018190526024820152600080516020611fba833981519152604482015290519081900360640190fd5b6108c48282611625565b610a996114ee565b6065546001600160a01b03908116911614610ae9576040805162461bcd60e51b81526020600482018190526024820152600080516020611fba833981519152604482015290519081900360640190fd5b609780546001600160a01b039384166001600160a01b03199182161790915560988054929093169116179055565b6065546001600160a01b031690565b60d25460d3549091565b60cd8181548110610b3d57fe5b6000918252602090912001546001600160a01b0316905081565b610b5f6114ee565b6065546001600160a01b03908116911614610baf576040805162461bcd60e51b81526020600482018190526024820152600080516020611fba833981519152604482015290519081900360640190fd5b61095c816116b6565b60cf5460d0549091565b610bca6114ee565b6065546001600160a01b03908116911614610c1a576040805162461bcd60e51b81526020600482018190526024820152600080516020611fba833981519152604482015290519081900360640190fd5b6108c4828261170a565b60d95490565b610c326114ee565b6065546001600160a01b03908116911614610c82576040805162461bcd60e51b81526020600482018190526024820152600080516020611fba833981519152604482015290519081900360640190fd5b61095c8161179b565b60cc5460405130602482018181526001600160a01b03808a1660448501529093166084830181905260a060648401908152885160c485015288516000956060958c948c9490938a939260a481019160e49091019060208801908083838f5b83811015610d01578181015183820152602001610ce9565b50505050905090810190601f168015610d2e5780820380516001836020036101000a031916815260200191505b508381038252845181528451602091820191808701910280838360005b83811015610d63578181015183820152602001610d4b565b5050505090500197505050505050505060405160208183030381529060405263eb94917d60e01b6001600160e01b0319166020820180516001600160e01b03838183161783525050505090506000610dbc82600161095f565b90506060308a8a8a8a8660405160240180876001600160a01b031681526020018615158152602001856001600160a01b031681526020018060200180602001846001600160a01b03168152602001838103835286818151815260200191508051906020019080838360005b83811015610e3f578181015183820152602001610e27565b50505050905090810190601f168015610e6c5780820380516001836020036101000a031916815260200191505b50838103825285518152855160209182019187019080838360005b83811015610e9f578181015183820152602001610e87565b50505050905090810190601f168015610ecc5780820380516001836020036101000a031916815260200191505b5060408051601f198184030181529190526020810180516001600160e01b03166302ce12f960e51b179052995060009850610f1497508996506002955061095f945050505050565b60cd805460018082019092557f83978b4c69c48dd978ab43fe30f077615294f938fb7f936d9eb340e51ea7db2e0180546001600160a01b0319166001600160a01b038416908117909155600090815260d160205260409020805460ff1916909117905560d354909150610f8a9082908990611470565b7f73a0638fe578fc759744633aa170a433061ca2cc1bb855d116c506e04a29901f818c8a8c8e428d60d35460405180896001600160a01b0316815260200188151581526020018060200180602001876001600160a01b03168152602001868152602001858152602001848152602001838103835289818151815260200191508051906020019080838360005b8381101561102e578181015183820152602001611016565b50505050905090810190601f16801561105b5780820380516001836020036101000a031916815260200191505b5083810382528851815288516020918201918a019080838360005b8381101561108e578181015183820152602001611076565b50505050905090810190601f1680156110bb5780820380516001836020036101000a031916815260200191505b509a505050505050505050505060405180910390a19a9950505050505050505050565b6001600160a01b038116600090815260d16020526040812054819060ff161515600114611152576040805162461bcd60e51b815260206004820152601e60248201527f737570706c6965642061646472657373206973206e6f74206120706f6f6c0000604482015290519081900360640190fd5b50506001600160a01b0316600090815260d4602090815260408083205460d5909252909120549091565b60d46020526000908152604090205481565b60d56020526000908152604090205481565b60d65460d7549091565b60008160ff16600114156111ca57506098546001600160a01b03166111d8565b506097546001600160a01b03165b919050565b60d85490565b6111eb6114ee565b6065546001600160a01b0390811691161461123b576040805162461bcd60e51b81526020600482018190526024820152600080516020611fba833981519152604482015290519081900360640190fd5b61095c816117d6565b61124c6114ee565b6065546001600160a01b0390811691161461129c576040805162461bcd60e51b81526020600482018190526024820152600080516020611fba833981519152604482015290519081900360640190fd5b6001600160a01b0381166112e15760405162461bcd60e51b8152600401808060200182810382526026815260200180611f946026913960400191505060405180910390fd5b6065546040516001600160a01b038084169216907f8be0079c531659141344cd1fd0a4f28419497f9722a3daafe3b4186f6b6457e090600090a3606580546001600160a01b0319166001600160a01b0392909216919091179055565b600054610100900460ff16806113565750611356611811565b80611364575060005460ff16155b61139f5760405162461bcd60e51b815260040180806020018281038252602e815260200180611fda602e913960400191505060405180910390fd5b600054610100900460ff161580156113ca576000805460ff1961ff0019909116610100171660011790555b6113d48484611817565b60cb80546001600160a01b0387166001600160a01b0319918216811790925560cc80549091169091179055611408826116b6565b61141661138861271061181f565b611422600a6064611625565b61142f60056103e861170a565b61143b6201518061179b565b611445600a6117d6565b6114576544484544474560d01b6114f2565b8015611469576000805461ff00191690555b5050505050565b808211158015611482575060d2548211155b6114c6576040805162461bcd60e51b815260206004820152601060248201526f34b73b30b634b210333930b1ba34b7b760811b604482015290519081900360640190fd5b6001600160a01b03909216600090815260d4602090815260408083209390935560d590522055565b3390565b60da55565b60008061150261187f565b604080516001600160a01b038316815290519192507efffc2da0b561cae30d9826d37709e9421c4725faebc226cbbb7ef5fc5e7349919081900360200190a1806001600160a01b031663e74a474a3086866040518463ffffffff1660e01b815260040180846001600160a01b03168152602001806020018360ff168152602001828103825284818151815260200191508051906020019080838360005b838110156115b757818101518382015260200161159f565b50505050905090810190601f1680156115e45780820380516001836020036101000a031916815260200191505b50945050505050600060405180830381600087803b15801561160557600080fd5b505af1158015611619573d6000803e3d6000fd5b50929695505050505050565b8082111561166d576040805162461bcd60e51b815260206004820152601060248201526f34b73b30b634b210333930b1ba34b7b760811b604482015290519081900360640190fd5b60cf82905560d0819055604080518381526020810183905281517fb10da2958bf5ec1bff3164ff753a09e0460ed44d3abf73e79b817b500ed0f2f1929181900390910190a15050565b60ce80546001600160a01b0383166001600160a01b0319909116811790915560408051918252517ff1034ad6b4d45dc33a4142b9c51c2b7f89bf4a410696e426cc0f3224869e0aca9181900360200190a150565b80821115611752576040805162461bcd60e51b815260206004820152601060248201526f34b73b30b634b210333930b1ba34b7b760811b604482015290519081900360640190fd5b60d682905560d7819055604080518381526020810183905281517fc84081a9c94a2300cdec20e3d60952b84e96e11edf24cb65ba26b7f8455f29db929181900390910190a15050565b60d88190556040805182815290517f3c6bcf0eff145e812fd913d4220f52c2a428932b0d2c196ab56e3e005ae2ace49181900360200190a150565b60d98190556040805182815290517f0cd8fcb5e08d7632af461f0ad793e5c63dc0d7595c301f5880650175e37a87489181900360200190a150565b303b1590565b610ae96118c6565b60008111611874576040805162461bcd60e51b815260206004820152601c60248201527f64656e6f6d696e61746f72206d75737420626520706f73697469766500000000604482015290519081900360640190fd5b60d29190915560d355565b60008060606040518060200161189490611b10565b6020820181038252601f19601f8201166040525090508051602082016000f09150813b6118c057600080fd5b50905090565b600054610100900460ff16806118df57506118df611811565b806118ed575060005460ff16155b6119285760405162461bcd60e51b815260040180806020018281038252602e815260200180611fda602e913960400191505060405180910390fd5b600054610100900460ff16158015611953576000805460ff1961ff0019909116610100171660011790555b61195b611977565b611963611a17565b801561095c576000805461ff001916905550565b600054610100900460ff16806119905750611990611811565b8061199e575060005460ff16155b6119d95760405162461bcd60e51b815260040180806020018281038252602e815260200180611fda602e913960400191505060405180910390fd5b600054610100900460ff16158015611963576000805460ff1961ff001990911661010017166001179055801561095c576000805461ff001916905550565b600054610100900460ff1680611a305750611a30611811565b80611a3e575060005460ff16155b611a795760405162461bcd60e51b815260040180806020018281038252602e815260200180611fda602e913960400191505060405180910390fd5b600054610100900460ff16158015611aa4576000805460ff1961ff0019909116610100171660011790555b6000611aae6114ee565b606580546001600160a01b0319166001600160a01b038316908117909155604051919250906000907f8be0079c531659141344cd1fd0a4f28419497f9722a3daafe3b4186f6b6457e0908290a350801561095c576000805461ff001916905550565b61047680611b1e8339019056fe608060405234801561001057600080fd5b50610456806100206000396000f3fe6080604052600436106100225760003560e01c8063e74a474a1461003957610031565b366100315761002f6100f4565b005b61002f6100f4565b61002f6004803603606081101561004f57600080fd5b6001600160a01b03823516919081019060408101602082013564010000000081111561007a57600080fd5b82018360208201111561008c57600080fd5b803590602001918460018302840111640100000000831117156100ae57600080fd5b91908080601f0160208091040260200160405190810160405280939291908181526020018383808284376000920191909152509295505050903560ff16915061010e9050565b6100fc61010c565b61010c610107610281565b610342565b565b6000610118610281565b6001600160a01b031614610163576040805162461bcd60e51b815260206004820152600d60248201526c496d706c206e6f74207a65726f60981b604482015290519081900360640190fd5b61016c83610366565b610175816103ce565b81511561027c576000610186610281565b6001600160a01b0316836040518082805190602001908083835b602083106101bf5780518252601f1990920191602091820191016101a0565b6001836020036101000a038019825116818451168082178552505050505050905001915050600060405180830381855af49150503d806000811461021f576040519150601f19603f3d011682016040523d82523d6000602084013e610224565b606091505b505090508061027a576040805162461bcd60e51b815260206004820152601a60248201527f496d706c656d656e746174696f6e20696e6974206661696c6564000000000000604482015290519081900360640190fd5b505b505050565b7f360894a13ba1a3210667c828492db98dca3e2076cc3735a920a3ca505d382bbc80546000916001600160a01b0382166102c05760009250505061033f565b816001600160a01b031663ecef89d56102d76103d6565b6040518263ffffffff1660e01b8152600401808260ff16815260200191505060206040518083038186803b15801561030e57600080fd5b505afa158015610322573d6000803e3d6000fd5b505050506040513d602081101561033857600080fd5b5051925050505b90565b3660008037600080366000845af43d6000803e808015610361573d6000f35b3d6000fd5b61036f816103df565b6103aa5760405162461bcd60e51b815260040180806020018281038252603b8152602001806103e6603b913960400191505060405180910390fd5b7f360894a13ba1a3210667c828492db98dca3e2076cc3735a920a3ca505d382bbc55565b600160fc1b55565b600160fc1b5490565b3b15159056fe43616e6e6f742073657420612070726f787920696d706c656d656e746174696f6e20746f2061206e6f6e2d636f6e74726163742061646472657373a264697066735822122074c59b121a2a0d1e02a85cb8ac366f5c31b6c267d5337204c70208ad502f448c64736f6c634300060c00334f776e61626c653a206e6577206f776e657220697320746865207a65726f20616464726573734f776e61626c653a2063616c6c6572206973206e6f7420746865206f776e6572436f6e747261637420696e7374616e63652068617320616c7265616479206265656e20696e697469616c697a6564a2646970667358221220c48fd2f3d8ec3a08aa703c70a99b9f9ee49fa3b9fef9ed7f72cce8c73883e47d64736f6c634300060c0033",
  "linkReferences": {},
  "deployedLinkReferences": {}
}