{
  "_format": "hh-sol-artifact-1",
  "contractName": "PoolFactory",
  "sourceName": "contracts/PoolFactory.sol",
  "abi": [
    {
      "anonymous": false,
      "inputs": [
        {
          "indexed": false,
          "internalType": "address",
          "name": "dao",
          "type": "address"
        }
      ],
      "name": "DaoAddressSet",
      "type": "event"
    },
    {
      "anonymous": false,
      "inputs": [
        {
          "indexed": false,
          "internalType": "uint256",
          "name": "numerator",
          "type": "uint256"
        },
        {
          "indexed": false,
          "internalType": "uint256",
          "name": "denominator",
          "type": "uint256"
        }
      ],
      "name": "DaoFeeSet",
      "type": "event"
    },
    {
      "anonymous": false,
      "inputs": [
        {
          "indexed": false,
          "internalType": "uint256",
          "name": "cooldown",
          "type": "uint256"
        }
      ],
      "name": "ExitCooldownSet",
      "type": "event"
    },
    {
      "anonymous": false,
      "inputs": [
        {
          "indexed": false,
          "internalType": "uint256",
          "name": "numerator",
          "type": "uint256"
        },
        {
          "indexed": false,
          "internalType": "uint256",
          "name": "denominator",
          "type": "uint256"
        }
      ],
      "name": "ExitFeeSet",
      "type": "event"
    },
    {
      "anonymous": false,
      "inputs": [
        {
          "indexed": false,
          "internalType": "address",
          "name": "fundAddress",
          "type": "address"
        },
        {
          "indexed": false,
          "internalType": "bool",
          "name": "isPoolPrivate",
          "type": "bool"
        },
        {
          "indexed": false,
          "internalType": "string",
          "name": "fundName",
          "type": "string"
        },
        {
          "indexed": false,
          "internalType": "string",
          "name": "managerName",
          "type": "string"
        },
        {
          "indexed": false,
          "internalType": "address",
          "name": "manager",
          "type": "address"
        },
        {
          "indexed": false,
          "internalType": "uint256",
          "name": "time",
          "type": "uint256"
        },
        {
          "indexed": false,
          "internalType": "uint256",
          "name": "managerFeeNumerator",
          "type": "uint256"
        },
        {
          "indexed": false,
          "internalType": "uint256",
          "name": "managerFeeDenominator",
          "type": "uint256"
        }
      ],
      "name": "FundCreated",
      "type": "event"
    },
    {
      "anonymous": false,
      "inputs": [
        {
          "indexed": true,
          "internalType": "address",
          "name": "manager",
          "type": "address"
        },
        {
          "indexed": true,
          "internalType": "address",
          "name": "pool",
          "type": "address"
        }
      ],
      "name": "LogUpgrade",
      "type": "event"
    },
    {
      "anonymous": false,
      "inputs": [
        {
          "indexed": false,
          "internalType": "uint256",
          "name": "count",
          "type": "uint256"
        }
      ],
      "name": "MaximumSupportedAssetCountSet",
      "type": "event"
    },
    {
      "anonymous": false,
      "inputs": [
        {
          "indexed": true,
          "internalType": "address",
          "name": "previousOwner",
          "type": "address"
        },
        {
          "indexed": true,
          "internalType": "address",
          "name": "newOwner",
          "type": "address"
        }
      ],
      "name": "OwnershipTransferred",
      "type": "event"
    },
    {
      "anonymous": false,
      "inputs": [
        {
          "indexed": false,
          "internalType": "address",
          "name": "account",
          "type": "address"
        }
      ],
      "name": "Paused",
      "type": "event"
    },
    {
      "anonymous": false,
      "inputs": [
        {
          "indexed": false,
          "internalType": "address",
          "name": "proxy",
          "type": "address"
        }
      ],
      "name": "ProxyCreated",
      "type": "event"
    },
    {
      "anonymous": false,
      "inputs": [
        {
          "indexed": false,
          "internalType": "address",
          "name": "account",
          "type": "address"
        }
      ],
      "name": "Unpaused",
      "type": "event"
    },
    {
      "inputs": [
        {
          "internalType": "bool",
          "name": "_privatePool",
          "type": "bool"
        },
        {
          "internalType": "address",
          "name": "_manager",
          "type": "address"
        },
        {
          "internalType": "string",
          "name": "_managerName",
          "type": "string"
        },
        {
          "internalType": "string",
          "name": "_fundName",
          "type": "string"
        },
        {
          "internalType": "string",
          "name": "_fundSymbol",
          "type": "string"
        },
        {
          "internalType": "uint256",
          "name": "_managerFeeNumerator",
          "type": "uint256"
        },
        {
          "components": [
            {
              "internalType": "address",
              "name": "asset",
              "type": "address"
            },
            {
              "internalType": "bool",
              "name": "isDeposit",
              "type": "bool"
            }
          ],
          "internalType": "struct IPoolManagerLogic.Asset[]",
          "name": "_supportedAssets",
          "type": "tuple[]"
        }
      ],
      "name": "createFund",
      "outputs": [
        {
          "internalType": "address",
          "name": "",
          "type": "address"
        }
      ],
      "stateMutability": "nonpayable",
      "type": "function"
    },
    {
      "inputs": [
        {
          "internalType": "bytes",
          "name": "_data",
          "type": "bytes"
        },
        {
          "internalType": "uint8",
          "name": "_proxyType",
          "type": "uint8"
        }
      ],
      "name": "deploy",
      "outputs": [
        {
          "internalType": "address",
          "name": "",
          "type": "address"
        }
      ],
      "stateMutability": "nonpayable",
      "type": "function"
    },
    {
      "inputs": [
        {
          "internalType": "uint256",
          "name": "",
          "type": "uint256"
        }
      ],
      "name": "deployedFunds",
      "outputs": [
        {
          "internalType": "address",
          "name": "",
          "type": "address"
        }
      ],
      "stateMutability": "view",
      "type": "function"
    },
    {
      "inputs": [],
      "name": "deployedFundsLength",
      "outputs": [
        {
          "internalType": "uint256",
          "name": "",
          "type": "uint256"
        }
      ],
      "stateMutability": "view",
      "type": "function"
    },
    {
      "inputs": [],
      "name": "erc20Guard",
      "outputs": [
        {
          "internalType": "address",
          "name": "",
          "type": "address"
        }
      ],
      "stateMutability": "view",
      "type": "function"
    },
    {
      "inputs": [
        {
          "internalType": "address",
          "name": "asset",
          "type": "address"
        }
      ],
      "name": "getAssetPrice",
      "outputs": [
        {
          "internalType": "uint256",
          "name": "",
          "type": "uint256"
        }
      ],
      "stateMutability": "view",
      "type": "function"
    },
    {
      "inputs": [],
      "name": "getDaoAddress",
      "outputs": [
        {
          "internalType": "address",
          "name": "",
          "type": "address"
        }
      ],
      "stateMutability": "view",
      "type": "function"
    },
    {
      "inputs": [],
      "name": "getDaoFee",
      "outputs": [
        {
          "internalType": "uint256",
          "name": "",
          "type": "uint256"
        },
        {
          "internalType": "uint256",
          "name": "",
          "type": "uint256"
        }
      ],
      "stateMutability": "view",
      "type": "function"
    },
    {
      "inputs": [],
      "name": "getExitCooldown",
      "outputs": [
        {
          "internalType": "uint256",
          "name": "",
          "type": "uint256"
        }
      ],
      "stateMutability": "view",
      "type": "function"
    },
    {
      "inputs": [
        {
          "internalType": "address",
          "name": "extContract",
          "type": "address"
        }
      ],
      "name": "getGuard",
      "outputs": [
        {
          "internalType": "address",
          "name": "",
          "type": "address"
        }
      ],
      "stateMutability": "view",
      "type": "function"
    },
    {
      "inputs": [
        {
          "internalType": "uint8",
          "name": "_proxyType",
          "type": "uint8"
        }
      ],
      "name": "getLogic",
      "outputs": [
        {
          "internalType": "address",
          "name": "",
          "type": "address"
        }
      ],
      "stateMutability": "view",
      "type": "function"
    },
    {
      "inputs": [],
      "name": "getManagerFeeNumeratorChangeDelay",
      "outputs": [
        {
          "internalType": "uint256",
          "name": "",
          "type": "uint256"
        }
      ],
      "stateMutability": "view",
      "type": "function"
    },
    {
      "inputs": [],
      "name": "getMaximumManagerFee",
      "outputs": [
        {
          "internalType": "uint256",
          "name": "",
          "type": "uint256"
        },
        {
          "internalType": "uint256",
          "name": "",
          "type": "uint256"
        }
      ],
      "stateMutability": "view",
      "type": "function"
    },
    {
      "inputs": [],
      "name": "getMaximumManagerFeeNumeratorChange",
      "outputs": [
        {
          "internalType": "uint256",
          "name": "",
          "type": "uint256"
        }
      ],
      "stateMutability": "view",
      "type": "function"
    },
    {
      "inputs": [],
      "name": "getMaximumSupportedAssetCount",
      "outputs": [
        {
          "internalType": "uint256",
          "name": "",
          "type": "uint256"
        }
      ],
      "stateMutability": "view",
      "type": "function"
    },
    {
      "inputs": [
        {
          "internalType": "address",
          "name": "pool",
          "type": "address"
        }
      ],
      "name": "getPoolManagerFee",
      "outputs": [
        {
          "internalType": "uint256",
          "name": "",
          "type": "uint256"
        },
        {
          "internalType": "uint256",
          "name": "",
          "type": "uint256"
        }
      ],
      "stateMutability": "view",
      "type": "function"
    },
    {
      "inputs": [],
      "name": "getPriceConsumer",
      "outputs": [
        {
          "internalType": "address",
          "name": "",
          "type": "address"
        }
      ],
      "stateMutability": "view",
      "type": "function"
    },
    {
      "inputs": [],
      "name": "getTrackingCode",
      "outputs": [
        {
          "internalType": "bytes32",
          "name": "",
          "type": "bytes32"
        }
      ],
      "stateMutability": "view",
      "type": "function"
    },
    {
      "inputs": [
        {
          "internalType": "address",
          "name": "_poolLogic",
          "type": "address"
        },
        {
          "internalType": "address",
          "name": "_managerLogic",
          "type": "address"
        },
        {
          "internalType": "address",
          "name": "priceConsumer",
          "type": "address"
        },
        {
          "internalType": "address",
          "name": "daoAddress",
          "type": "address"
        }
      ],
      "name": "initialize",
      "outputs": [],
      "stateMutability": "nonpayable",
      "type": "function"
    },
    {
      "inputs": [],
      "name": "isPaused",
      "outputs": [
        {
          "internalType": "bool",
          "name": "",
          "type": "bool"
        }
      ],
      "stateMutability": "view",
      "type": "function"
    },
    {
      "inputs": [
        {
          "internalType": "address",
          "name": "",
          "type": "address"
        }
      ],
      "name": "isPool",
      "outputs": [
        {
          "internalType": "bool",
          "name": "",
          "type": "bool"
        }
      ],
      "stateMutability": "view",
      "type": "function"
    },
    {
      "inputs": [
        {
          "internalType": "address",
          "name": "",
          "type": "address"
        }
      ],
      "name": "isPoolManager",
      "outputs": [
        {
          "internalType": "bool",
          "name": "",
          "type": "bool"
        }
      ],
      "stateMutability": "view",
      "type": "function"
    },
    {
      "inputs": [
        {
          "internalType": "address",
          "name": "asset",
          "type": "address"
        }
      ],
      "name": "isValidAsset",
      "outputs": [
        {
          "internalType": "bool",
          "name": "",
          "type": "bool"
        }
      ],
      "stateMutability": "view",
      "type": "function"
    },
    {
      "inputs": [],
      "name": "managerFeeNumeratorChangeDelay",
      "outputs": [
        {
          "internalType": "uint256",
          "name": "",
          "type": "uint256"
        }
      ],
      "stateMutability": "view",
      "type": "function"
    },
    {
      "inputs": [],
      "name": "maximumManagerFeeNumeratorChange",
      "outputs": [
        {
          "internalType": "uint256",
          "name": "",
          "type": "uint256"
        }
      ],
      "stateMutability": "view",
      "type": "function"
    },
    {
      "inputs": [],
      "name": "owner",
      "outputs": [
        {
          "internalType": "address",
          "name": "",
          "type": "address"
        }
      ],
      "stateMutability": "view",
      "type": "function"
    },
    {
      "inputs": [],
      "name": "pause",
      "outputs": [],
      "stateMutability": "nonpayable",
      "type": "function"
    },
    {
      "inputs": [],
      "name": "paused",
      "outputs": [
        {
          "internalType": "bool",
          "name": "",
          "type": "bool"
        }
      ],
      "stateMutability": "view",
      "type": "function"
    },
    {
      "inputs": [
        {
          "internalType": "address",
          "name": "",
          "type": "address"
        }
      ],
      "name": "poolManagerFeeDenominator",
      "outputs": [
        {
          "internalType": "uint256",
          "name": "",
          "type": "uint256"
        }
      ],
      "stateMutability": "view",
      "type": "function"
    },
    {
      "inputs": [
        {
          "internalType": "address",
          "name": "",
          "type": "address"
        }
      ],
      "name": "poolManagerFeeNumerator",
      "outputs": [
        {
          "internalType": "uint256",
          "name": "",
          "type": "uint256"
        }
      ],
      "stateMutability": "view",
      "type": "function"
    },
    {
      "inputs": [],
      "name": "poolStorageVersion",
      "outputs": [
        {
          "internalType": "uint256",
          "name": "",
          "type": "uint256"
        }
      ],
      "stateMutability": "view",
      "type": "function"
    },
    {
      "inputs": [
        {
          "internalType": "address",
          "name": "",
          "type": "address"
        }
      ],
      "name": "poolVersion",
      "outputs": [
        {
          "internalType": "uint256",
          "name": "",
          "type": "uint256"
        }
      ],
      "stateMutability": "view",
      "type": "function"
    },
    {
      "inputs": [],
      "name": "renounceOwnership",
      "outputs": [],
      "stateMutability": "nonpayable",
      "type": "function"
    },
    {
      "inputs": [
        {
          "internalType": "address",
          "name": "daoAddress",
          "type": "address"
        }
      ],
      "name": "setDaoAddress",
      "outputs": [],
      "stateMutability": "nonpayable",
      "type": "function"
    },
    {
      "inputs": [
        {
          "internalType": "uint256",
          "name": "numerator",
          "type": "uint256"
        },
        {
          "internalType": "uint256",
          "name": "denominator",
          "type": "uint256"
        }
      ],
      "name": "setDaoFee",
      "outputs": [],
      "stateMutability": "nonpayable",
      "type": "function"
    },
    {
      "inputs": [
        {
          "internalType": "address",
          "name": "_guard",
          "type": "address"
        }
      ],
      "name": "setERC20Guard",
      "outputs": [],
      "stateMutability": "nonpayable",
      "type": "function"
    },
    {
      "inputs": [
        {
          "internalType": "uint256",
          "name": "cooldown",
          "type": "uint256"
        }
      ],
      "name": "setExitCooldown",
      "outputs": [],
      "stateMutability": "nonpayable",
      "type": "function"
    },
    {
      "inputs": [
        {
          "internalType": "address",
          "name": "extContract",
          "type": "address"
        },
        {
          "internalType": "address",
          "name": "guardAddress",
          "type": "address"
        }
      ],
      "name": "setGuard",
      "outputs": [],
      "stateMutability": "nonpayable",
      "type": "function"
    },
    {
      "inputs": [
        {
          "internalType": "address",
          "name": "_poolLogic",
          "type": "address"
        },
        {
          "internalType": "address",
          "name": "_poolManagerLogic",
          "type": "address"
        }
      ],
      "name": "setLogic",
      "outputs": [],
      "stateMutability": "nonpayable",
      "type": "function"
    },
    {
      "inputs": [
        {
          "internalType": "uint256",
          "name": "delay",
          "type": "uint256"
        }
      ],
      "name": "setManagerFeeNumeratorChangeDelay",
      "outputs": [],
      "stateMutability": "nonpayable",
      "type": "function"
    },
    {
      "inputs": [
        {
          "internalType": "uint256",
          "name": "amount",
          "type": "uint256"
        }
      ],
      "name": "setMaximumManagerFeeNumeratorChange",
      "outputs": [],
      "stateMutability": "nonpayable",
      "type": "function"
    },
    {
      "inputs": [
        {
          "internalType": "uint256",
          "name": "count",
          "type": "uint256"
        }
      ],
      "name": "setMaximumSupportedAssetCount",
      "outputs": [],
      "stateMutability": "nonpayable",
      "type": "function"
    },
    {
      "inputs": [
        {
          "internalType": "address",
          "name": "pool",
          "type": "address"
        },
        {
          "internalType": "uint256",
          "name": "numerator",
          "type": "uint256"
        }
      ],
      "name": "setPoolManagerFeeNumerator",
      "outputs": [],
      "stateMutability": "nonpayable",
      "type": "function"
    },
    {
      "inputs": [
        {
          "internalType": "address",
          "name": "priceConsumer",
          "type": "address"
        }
      ],
      "name": "setPriceConsumer",
      "outputs": [],
      "stateMutability": "nonpayable",
      "type": "function"
    },
    {
      "inputs": [
        {
          "internalType": "bytes32",
          "name": "code",
          "type": "bytes32"
        }
      ],
      "name": "setTrackingCode",
      "outputs": [],
      "stateMutability": "nonpayable",
      "type": "function"
    },
    {
      "inputs": [
        {
          "internalType": "address",
          "name": "newOwner",
          "type": "address"
        }
      ],
      "name": "transferOwnership",
      "outputs": [],
      "stateMutability": "nonpayable",
      "type": "function"
    },
    {
      "inputs": [],
      "name": "unpause",
      "outputs": [],
      "stateMutability": "nonpayable",
      "type": "function"
    },
    {
      "inputs": [
        {
          "internalType": "uint256",
          "name": "startIndex",
          "type": "uint256"
        },
        {
          "internalType": "uint256",
          "name": "endIndex",
          "type": "uint256"
        },
        {
          "internalType": "uint256",
          "name": "sourceVersion",
          "type": "uint256"
        },
        {
          "internalType": "uint256",
          "name": "targetVersion",
          "type": "uint256"
        },
        {
          "internalType": "bytes",
          "name": "data",
          "type": "bytes"
        }
      ],
      "name": "upgradePoolBatch",
      "outputs": [],
      "stateMutability": "nonpayable",
      "type": "function"
    }
  ],
  "bytecode": "0x608060405234801561001057600080fd5b5061281d806100206000396000f3fe608060405234801561001057600080fd5b50600436106102a05760003560e01c80638da5cb5b11610167578063bee37e52116100ce578063e99c0fa611610087578063e99c0fa614610532578063ebee461d14610545578063ecef89d51461054d578063eec16c4414610560578063f2fde38b14610573578063f8c8765e14610586576102a0565b8063bee37e52146104d6578063bfeaf71d146104e9578063c8dc73a1146104f1578063cc435bf314610504578063ce26e9ef14610517578063e60eb4121461051f576102a0565b8063aa7d664e11610120578063aa7d664e1461046f578063b187bd2614610482578063b193a5f41461048a578063b3596f071461049d578063b7a54526146104b0578063bcb01f44146104c3576102a0565b80638da5cb5b1461041b57806394d0d23b146104235780639a068bd6146104395780639a3cac6a1461044c5780639cada6e41461045f578063aa12ae4d14610467576102a0565b80635556ee551161020b578063771d1baf116101c4578063771d1baf146103bf57806378a86e3a146103d2578063808ae5fb146103e55780638456cb59146103f857806386e76f73146104005780638d554cad14610413576102a0565b80635556ee55146103615780635b16ebb7146103745780635c975abb146103945780635c9bfc2b1461039c5780637027ea6c146103a4578063715018a6146103b7576102a0565b80631e8e8bca1161025d5780631e8e8bca14610310578063227773ee146103235780633f4ba83a146103365780634501b0881461033e57806345812ca51461034657806349f7c02d14610359576102a0565b8063046b72c4146102a55780630bf99bd9146102ba5780630f6559c4146102d857806310bf69dc146102e05780631d68702d146102e85780631e666d13146102fd575b600080fd5b6102b86102b3366004611c4a565b610599565b005b6102c261066d565b6040516102cf919061208a565b60405180910390f35b6102c2610673565b6102c261067a565b6102f0610681565b6040516102cf9190611efd565b6102b861030b366004611e04565b610690565b6102b861031e366004611d66565b61076b565b6102b8610331366004611bb7565b6107ac565b6102b86107e0565b6102c2610814565b6102f0610354366004611d7e565b61081b565b6102c2610830565b6102c261036f366004611b7f565b610837565b610387610382366004611b7f565b61084a565b6040516102cf919061207f565b610387610860565b6102c2610869565b6102f06103b2366004611b7f565b610870565b6102b86108b6565b6102b86103cd366004611de3565b610935565b6102f06103e0366004611c91565b610974565b6102b86103f3366004611bb7565b610b9b565b6102b8610bfe565b6102b861040e366004611b7f565b610c30565b6102f0610c6e565b6102f0610c7e565b61042b610c8d565b6040516102cf92919061233e565b6102f0610447366004611d66565b610c99565b6102b861045a366004611b7f565b610cc0565b61042b610cfe565b6102c2610d0a565b6102b861047d366004611d66565b610d11565b610387610d4f565b610387610498366004611b7f565b610d5e565b6102c26104ab366004611b7f565b610d74565b61042b6104be366004611b7f565b610df5565b6102b86104d1366004611d66565b610e61565b6102c26104e4366004611b7f565b610e9c565b6102c2610eaf565b6102b86104ff366004611b7f565b610eb6565b610387610512366004611b7f565b610f03565b6102f0610f99565b6102c261052d366004611b7f565b610fa8565b6102b8610540366004611d66565b610fbb565b6102c2610ff6565b6102f061055b366004611e97565b610ffd565b6102b861056e366004611d66565b61102f565b6102b8610581366004611b7f565b61106d565b6102b8610594366004611bef565b611124565b336000908152610103602052604090205460ff1615156001146105d75760405162461bcd60e51b81526004016105ce90612093565b60405180910390fd5b6001600160a01b0382166000908152610102602052604090205460ff1615156001146106155760405162461bcd60e51b81526004016105ce90612307565b61010d546001600160a01b0383166000908152610106602052604090205461063c91611228565b81111561065b5760405162461bcd60e51b81526004016105ce906121da565b61066982826101055461124d565b5050565b60fd5490565b61010c5481565b61010d5481565b60fe546001600160a01b031690565b6106986112a6565b6097546001600160a01b039081169116146106c55760405162461bcd60e51b81526004016105ce90612284565b8486111580156106d6575060fd5486105b80156106e3575060fd5485105b6106ff5760405162461bcd60e51b81526004016105ce906120ed565b855b85811161076257600060fd828154811061071757fe5b60009182526020808320909101546001600160a01b031680835261010b909152604090912054909150861461074c575061075a565b610758818585886112aa565b505b600101610701565b50505050505050565b6107736112a6565b6097546001600160a01b039081169116146107a05760405162461bcd60e51b81526004016105ce90612284565b6107a9816113a9565b50565b60fe546001600160a01b031633146107d65760405162461bcd60e51b81526004016105ce90612192565b61066982826113af565b60fe546001600160a01b0316331461080a5760405162461bcd60e51b81526004016105ce90612192565b6108126113de565b565b6101085490565b6000610827838361144a565b90505b92915050565b61010a5490565b61010b6020526000908152604090205481565b6101026020526000908152604090205460ff1681565b60655460ff1690565b61010d5490565b600061087b82610f03565b156108935750610110546001600160a01b03166108b1565b506001600160a01b03808216600090815261010f6020526040902054165b919050565b6108be6112a6565b6097546001600160a01b039081169116146108eb5760405162461bcd60e51b81526004016105ce90612284565b6097546040516000916001600160a01b0316907f8be0079c531659141344cd1fd0a4f28419497f9722a3daafe3b4186f6b6457e0908390a3609780546001600160a01b0319169055565b61093d6112a6565b6097546001600160a01b0390811691161461096a5760405162461bcd60e51b81526004016105ce90612284565b61066982826114f7565b600060603088888560405160240161098f9493929190611f11565b60408051601f198184030181529190526020810180516001600160e01b0316630a3df85f60e11b179052905060006109c882600161081b565b90506060308b8989856040516024016109e5959493929190611f8d565b60408051601f198184030181529190526020810180516001600160e01b0316630ccb30c760e01b17905290506000610a1e82600261081b565b604051638e10153d60e01b81529091506001600160a01b03841690638e10153d90610a4d908490600401611efd565b602060405180830381600087803b158015610a6757600080fd5b505af1158015610a7b573d6000803e3d6000fd5b505050506040513d601f19601f82011682018060405250810190610a9f9190611c75565b5060fd805460018082019092557f9346ac6dd7de6b96975fec380d4d994c4c12e6a8897544f22915316cc6cca2800180546001600160a01b0319166001600160a01b03848116918217909255600081815261010260209081526040808320805460ff19908116881790915594891683526101038252808320805490951690951790935561010c5491815261010b9092529190205561010554610b44908290899061124d565b7f73a0638fe578fc759744633aa170a433061ca2cc1bb855d116c506e04a29901f818d8b8d8f428d61010554604051610b84989796959493929190611fdf565b60405180910390a19b9a5050505050505050505050565b610ba36112a6565b6097546001600160a01b03908116911614610bd05760405162461bcd60e51b81526004016105ce90612284565b60c980546001600160a01b039384166001600160a01b03199182161790915560ca8054929093169116179055565b60fe546001600160a01b03163314610c285760405162461bcd60e51b81526004016105ce90612192565b610812611561565b610c386112a6565b6097546001600160a01b03908116911614610c655760405162461bcd60e51b81526004016105ce90612284565b6107a9816115ba565b610110546001600160a01b031681565b6097546001600160a01b031690565b61010454610105549091565b60fd8181548110610ca657fe5b6000918252602090912001546001600160a01b0316905081565b610cc86112a6565b6097546001600160a01b03908116911614610cf55760405162461bcd60e51b81526004016105ce90612284565b6107a9816115dc565b61010054610101549091565b6101095490565b610d196112a6565b6097546001600160a01b03908116911614610d465760405162461bcd60e51b81526004016105ce90612284565b6107a981611632565b6000610d59610860565b905090565b6101036020526000908152604090205460ff1681565b60ff54604051638b2f0f4f60e01b81526000916001600160a01b031690638b2f0f4f90610da5908590600401611efd565b60206040518083038186803b158015610dbd57600080fd5b505afa158015610dd1573d6000803e3d6000fd5b505050506040513d601f19601f8201168201806040525081019061082a9190611dcb565b6001600160a01b03811660009081526101026020526040812054819060ff161515600114610e355760405162461bcd60e51b81526004016105ce90612307565b50506001600160a01b031660009081526101066020908152604080832054610107909252909120549091565b610e696112a6565b6097546001600160a01b03908116911614610e965760405162461bcd60e51b81526004016105ce90612284565b61010e55565b6101066020526000908152604090205481565b61010e5481565b60fe546001600160a01b03163314610ee05760405162461bcd60e51b81526004016105ce90612192565b61011080546001600160a01b0319166001600160a01b0392909216919091179055565b60ff546040516314d216ab60e11b815260009182916001600160a01b03909116906329a42d5690610f38908690600401611efd565b60206040518083038186803b158015610f5057600080fd5b505afa158015610f64573d6000803e3d6000fd5b505050506040513d601f19601f82011682018060405250810190610f889190611b9b565b6001600160a01b0316141592915050565b60ff546001600160a01b031690565b6101076020526000908152604090205481565b610fc36112a6565b6097546001600160a01b03908116911614610ff05760405162461bcd60e51b81526004016105ce90612284565b61010d55565b61010e5490565b60008160ff166001141561101d575060ca546001600160a01b03166108b1565b5060c9546001600160a01b03166108b1565b6110376112a6565b6097546001600160a01b039081169116146110645760405162461bcd60e51b81526004016105ce90612284565b6107a981611668565b6110756112a6565b6097546001600160a01b039081169116146110a25760405162461bcd60e51b81526004016105ce90612284565b6001600160a01b0381166110c85760405162461bcd60e51b81526004016105ce90612115565b6097546040516001600160a01b038084169216907f8be0079c531659141344cd1fd0a4f28419497f9722a3daafe3b4186f6b6457e090600090a3609780546001600160a01b0319166001600160a01b0392909216919091179055565b600054610100900460ff168061113d575061113d61169e565b8061114b575060005460ff16155b6111675760405162461bcd60e51b81526004016105ce906122b9565b600054610100900460ff16158015611192576000805460ff1961ff0019909116610100171660011790555b61119c85856116a4565b6111a46116ac565b6111ad836115ba565b6111b6826115dc565b6111c461138861271061173e565b6111d0600a60646114f7565b6111dc62015180611632565b6111e86224ea00610e61565b6111f36103e8610fbb565b6111fd600a611668565b61120f6544484544474560d01b6113a9565b8015611221576000805461ff00191690555b5050505050565b6000828201838110156108275760405162461bcd60e51b81526004016105ce9061215b565b8082111580156112605750610104548211155b61127c5760405162461bcd60e51b81526004016105ce9061225a565b6001600160a01b039092166000908152610106602090815260408083209390935561010790522055565b3390565b6001600160a01b0384166112d05760405162461bcd60e51b81526004016105ce90612232565b816112ed5760405162461bcd60e51b81526004016105ce906121b4565b606083838080601f016020809104026020016040519081016040528093929190818152602001838380828437600092018290525084519495509384935091505060208401885af48015600181146113435761134e565b3d806000803e806000fd5b50506040516001600160a01b0386169033907f78a9b536049c39a00adaf57016b1376c99dd48a0faf2cef23690232f21ce42cc90600090a3506001600160a01b03909316600090815261010b60205260409020929092555050565b61010a55565b6001600160a01b03918216600090815261010f6020526040902080546001600160a01b03191691909216179055565b60655460ff166114005760405162461bcd60e51b81526004016105ce906120bf565b6065805460ff191690557f5db9ee0a495bf2e6ff9c91a7834c1ba4fdd244a5e8aa4e537bd38aeae4b073aa6114336112a6565b6040516114409190611efd565b60405180910390a1565b60008061145561176b565b90507efffc2da0b561cae30d9826d37709e9421c4725faebc226cbbb7ef5fc5e7349816040516114859190611efd565b60405180910390a16040516373a523a560e11b81526001600160a01b0382169063e74a474a906114bd90309088908890600401612048565b600060405180830381600087803b1580156114d757600080fd5b505af11580156114eb573d6000803e3d6000fd5b50929695505050505050565b808211156115175760405162461bcd60e51b81526004016105ce9061225a565b6101008290556101018190556040517fb10da2958bf5ec1bff3164ff753a09e0460ed44d3abf73e79b817b500ed0f2f190611555908490849061233e565b60405180910390a15050565b60655460ff16156115845760405162461bcd60e51b81526004016105ce90612208565b6065805460ff191660011790557f62e78cea01bee320cd4e420270b5ea74000d11b0c9f74754ebdbfc544b05a2586114336112a6565b60ff80546001600160a01b0319166001600160a01b0392909216919091179055565b60fe80546001600160a01b0319166001600160a01b0383161790556040517ff1034ad6b4d45dc33a4142b9c51c2b7f89bf4a410696e426cc0f3224869e0aca90611627908390611efd565b60405180910390a150565b6101088190556040517f20d916c976f3971e8200089411b0b712ef4612d98380b8ad2e3d8a8a376d85c79061162790839061208a565b6101098190556040517f0cd8fcb5e08d7632af461f0ad793e5c63dc0d7595c301f5880650175e37a87489061162790839061208a565b303b1590565b610bd06117b2565b600054610100900460ff16806116c557506116c561169e565b806116d3575060005460ff16155b6116ef5760405162461bcd60e51b81526004016105ce906122b9565b600054610100900460ff1615801561171a576000805460ff1961ff0019909116610100171660011790555b611722611830565b61172a6118b1565b80156107a9576000805461ff001916905550565b8082111561175e5760405162461bcd60e51b81526004016105ce9061225a565b6101049190915561010555565b60008060606040518060200161178090611a17565b6020820181038252601f19601f8201166040525090508051602082016000f09150813b6117ac57600080fd5b50905090565b600054610100900460ff16806117cb57506117cb61169e565b806117d9575060005460ff16155b6117f55760405162461bcd60e51b81526004016105ce906122b9565b600054610100900460ff16158015611820576000805460ff1961ff0019909116610100171660011790555b611828611830565b61172a61193d565b600054610100900460ff1680611849575061184961169e565b80611857575060005460ff16155b6118735760405162461bcd60e51b81526004016105ce906122b9565b600054610100900460ff1615801561172a576000805460ff1961ff00199091166101001716600117905580156107a9576000805461ff001916905550565b600054610100900460ff16806118ca57506118ca61169e565b806118d8575060005460ff16155b6118f45760405162461bcd60e51b81526004016105ce906122b9565b600054610100900460ff1615801561191f576000805460ff1961ff0019909116610100171660011790555b6065805460ff1916905580156107a9576000805461ff001916905550565b600054610100900460ff1680611956575061195661169e565b80611964575060005460ff16155b6119805760405162461bcd60e51b81526004016105ce906122b9565b600054610100900460ff161580156119ab576000805460ff1961ff0019909116610100171660011790555b60006119b56112a6565b609780546001600160a01b0319166001600160a01b038316908117909155604051919250906000907f8be0079c531659141344cd1fd0a4f28419497f9722a3daafe3b4186f6b6457e0908290a35080156107a9576000805461ff001916905550565b6104518061239783390190565b803561082a81612373565b600082601f830112611a3f578081fd5b813567ffffffffffffffff811115611a55578182fd5b6020611a64818284020161234c565b8281529250808301848201604080850287018401881015611a8457600080fd5b60005b85811015611aab57611a998984611b2b565b84529284019291810191600101611a87565b50505050505092915050565b803561082a81612388565b600082601f830112611ad2578081fd5b813567ffffffffffffffff811115611ae8578182fd5b611afb601f8201601f191660200161234c565b9150808252836020828501011115611b1257600080fd5b8060208401602084013760009082016020015292915050565b600060408284031215611b3c578081fd5b611b46604061234c565b90508135611b5381612373565b81526020820135611b6381612388565b602082015292915050565b803560ff8116811461082a57600080fd5b600060208284031215611b90578081fd5b813561082781612373565b600060208284031215611bac578081fd5b815161082781612373565b60008060408385031215611bc9578081fd5b8235611bd481612373565b91506020830135611be481612373565b809150509250929050565b60008060008060808587031215611c04578182fd5b8435611c0f81612373565b93506020850135611c1f81612373565b92506040850135611c2f81612373565b91506060850135611c3f81612373565b939692955090935050565b60008060408385031215611c5c578182fd5b8235611c6781612373565b946020939093013593505050565b600060208284031215611c86578081fd5b815161082781612388565b600080600080600080600060e0888a031215611cab578283fd5b611cb58989611ab7565b9650611cc48960208a01611a24565b9550604088013567ffffffffffffffff80821115611ce0578485fd5b611cec8b838c01611ac2565b965060608a0135915080821115611d01578485fd5b611d0d8b838c01611ac2565b955060808a0135915080821115611d22578485fd5b611d2e8b838c01611ac2565b945060a08a0135935060c08a0135915080821115611d4a578283fd5b50611d578a828b01611a2f565b91505092959891949750929550565b600060208284031215611d77578081fd5b5035919050565b60008060408385031215611d90578182fd5b823567ffffffffffffffff811115611da6578283fd5b611db285828601611ac2565b925050611dc28460208501611b6e565b90509250929050565b600060208284031215611ddc578081fd5b5051919050565b60008060408385031215611df5578182fd5b50508035926020909101359150565b60008060008060008060a08789031215611e1c578384fd5b86359550602087013594506040870135935060608701359250608087013567ffffffffffffffff80821115611e4f578384fd5b818901915089601f830112611e62578384fd5b813581811115611e70578485fd5b8a6020828501011115611e81578485fd5b6020830194508093505050509295509295509295565b600060208284031215611ea8578081fd5b6108278383611b6e565b60008151808452815b81811015611ed757602081850181015186830182015201611ebb565b81811115611ee85782602083870101525b50601f01601f19169290920160200192915050565b6001600160a01b0391909116815260200190565b600060018060a01b0380871683526020818716818501526040608081860152611f3d6080860188611eb2565b8581036060870152865180825283880191840190865b81811015611f7c5783518051881684528601511515868401529285019291840191600101611f53565b50909b9a5050505050505050505050565b600060018060a01b038088168352861515602084015260a06040840152611fb760a0840187611eb2565b8381036060850152611fc98187611eb2565b9250508084166080840152509695505050505050565b6001600160a01b03898116825288151560208301526101006040830181905260009161200d8483018b611eb2565b91508382036060850152612021828a611eb2565b97166080840152505060a081019390935260c083019190915260e090910152949350505050565b6001600160a01b038416815260606020820181905260009061206c90830185611eb2565b905060ff83166040830152949350505050565b901515815260200190565b90815260200190565b6020808252601290820152712737ba1030903837b7b61036b0b730b3b2b960711b604082015260600190565b60208082526014908201527314185d5cd8589b194e881b9bdd081c185d5cd95960621b604082015260600190565b6020808252600e908201526d696e76616c696420626f756e647360901b604082015260600190565b60208082526026908201527f4f776e61626c653a206e6577206f776e657220697320746865207a65726f206160408201526564647265737360d01b606082015260800190565b6020808252601b908201527f536166654d6174683a206164646974696f6e206f766572666c6f770000000000604082015260600190565b6020808252600890820152676f6e6c792064616f60c01b604082015260600190565b6020808252600c908201526b19185d184b5a5b9d985b1a5960a21b604082015260600190565b6020808252601490820152730dac2dcc2cecae440cccaca40e8dede40d0d2ced60631b604082015260600190565b60208082526010908201526f14185d5cd8589b194e881c185d5cd95960821b604082015260600190565b6020808252600e908201526d1d185c99d95d0b5a5b9d985b1a5960921b604082015260600190565b60208082526010908201526f34b73b30b634b210333930b1ba34b7b760811b604082015260600190565b6020808252818101527f4f776e61626c653a2063616c6c6572206973206e6f7420746865206f776e6572604082015260600190565b6020808252602e908201527f436f6e747261637420696e7374616e63652068617320616c726561647920626560408201526d195b881a5b9a5d1a585b1a5e995960921b606082015260800190565b6020808252601e908201527f737570706c6965642061646472657373206973206e6f74206120706f6f6c0000604082015260600190565b918252602082015260400190565b60405181810167ffffffffffffffff8111828210171561236b57600080fd5b604052919050565b6001600160a01b03811681146107a957600080fd5b80151581146107a957600080fdfe608060405234801561001057600080fd5b50610431806100206000396000f3fe6080604052600436106100225760003560e01c8063e74a474a1461003957610031565b366100315761002f6100f4565b005b61002f6100f4565b61002f6004803603606081101561004f57600080fd5b6001600160a01b03823516919081019060408101602082013564010000000081111561007a57600080fd5b82018360208201111561008c57600080fd5b803590602001918460018302840111640100000000831117156100ae57600080fd5b91908080601f0160208091040260200160405190810160405280939291908181526020018383808284376000920191909152509295505050903560ff16915061010e9050565b6100fc61010c565b61010c610107610281565b610342565b565b6000610118610281565b6001600160a01b031614610163576040805162461bcd60e51b815260206004820152600d60248201526c496d706c206e6f74207a65726f60981b604482015290519081900360640190fd5b61016c83610366565b610175816103e4565b81511561027c576000610186610281565b6001600160a01b0316836040518082805190602001908083835b602083106101bf5780518252601f1990920191602091820191016101a0565b6001836020036101000a038019825116818451168082178552505050505050905001915050600060405180830381855af49150503d806000811461021f576040519150601f19603f3d011682016040523d82523d6000602084013e610224565b606091505b505090508061027a576040805162461bcd60e51b815260206004820152601a60248201527f496d706c656d656e746174696f6e20696e6974206661696c6564000000000000604482015290519081900360640190fd5b505b505050565b7f360894a13ba1a3210667c828492db98dca3e2076cc3735a920a3ca505d382bbc80546000916001600160a01b0382166102c05760009250505061033f565b816001600160a01b031663ecef89d56102d76103ec565b6040518263ffffffff1660e01b8152600401808260ff16815260200191505060206040518083038186803b15801561030e57600080fd5b505afa158015610322573d6000803e3d6000fd5b505050506040513d602081101561033857600080fd5b5051925050505b90565b3660008037600080366000845af43d6000803e808015610361573d6000f35b3d6000fd5b61036f816103f5565b6103c0576040805162461bcd60e51b815260206004820181905260248201527f43616e6e6f742073657420696d706c656d656e746174696f6e20746f20454f41604482015290519081900360640190fd5b7f360894a13ba1a3210667c828492db98dca3e2076cc3735a920a3ca505d382bbc55565b600160fc1b55565b600160fc1b5490565b3b15159056fea26469706673582212203edeb1d03514e6e92a8a8c7ce24b883b17066854543b30f94278d7683f54284c64736f6c634300060c0033a26469706673582212207dd5482fe00af3a9f223c7bd4535bb95aabfdce963c3b61db9b22a52b5ed770d64736f6c634300060c0033",
  "linkReferences": {},
  "deployedLinkReferences": {}
}