{
  "_format": "hh-sol-artifact-1",
  "contractName": "PoolFactory-ovm",
  "sourceName": "contracts/PoolFactory.sol",
  "abi": [
    {
      "anonymous": false,
      "inputs": [
        {
          "indexed": true,
          "internalType": "address",
          "name": "asset",
          "type": "address"
        }
      ],
      "name": "AddedValidAsset",
      "type": "event"
    },
    {
      "anonymous": false,
      "inputs": [
        {
          "indexed": false,
          "internalType": "address",
          "name": "dao",
          "type": "address"
        }
      ],
      "name": "DaoAddressSet",
      "type": "event"
    },
    {
      "anonymous": false,
      "inputs": [
        {
          "indexed": false,
          "internalType": "uint256",
          "name": "numerator",
          "type": "uint256"
        },
        {
          "indexed": false,
          "internalType": "uint256",
          "name": "denominator",
          "type": "uint256"
        }
      ],
      "name": "DaoFeeSet",
      "type": "event"
    },
    {
      "anonymous": false,
      "inputs": [
        {
          "indexed": false,
          "internalType": "uint256",
          "name": "cooldown",
          "type": "uint256"
        }
      ],
      "name": "ExitCooldownSet",
      "type": "event"
    },
    {
      "anonymous": false,
      "inputs": [
        {
          "indexed": false,
          "internalType": "uint256",
          "name": "numerator",
          "type": "uint256"
        },
        {
          "indexed": false,
          "internalType": "uint256",
          "name": "denominator",
          "type": "uint256"
        }
      ],
      "name": "ExitFeeSet",
      "type": "event"
    },
    {
      "anonymous": false,
      "inputs": [
        {
          "indexed": false,
          "internalType": "address",
          "name": "fundAddress",
          "type": "address"
        },
        {
          "indexed": false,
          "internalType": "bool",
          "name": "isPoolPrivate",
          "type": "bool"
        },
        {
          "indexed": false,
          "internalType": "string",
          "name": "fundName",
          "type": "string"
        },
        {
          "indexed": false,
          "internalType": "string",
          "name": "managerName",
          "type": "string"
        },
        {
          "indexed": false,
          "internalType": "address",
          "name": "manager",
          "type": "address"
        },
        {
          "indexed": false,
          "internalType": "uint256",
          "name": "time",
          "type": "uint256"
        },
        {
          "indexed": false,
          "internalType": "uint256",
          "name": "managerFeeNumerator",
          "type": "uint256"
        },
        {
          "indexed": false,
          "internalType": "uint256",
          "name": "managerFeeDenominator",
          "type": "uint256"
        }
      ],
      "name": "FundCreated",
      "type": "event"
    },
    {
      "anonymous": false,
      "inputs": [
        {
          "indexed": true,
          "internalType": "address",
          "name": "manager",
          "type": "address"
        },
        {
          "indexed": true,
          "internalType": "address",
          "name": "pool",
          "type": "address"
        }
      ],
      "name": "LogUpgrade",
      "type": "event"
    },
    {
      "anonymous": false,
      "inputs": [
        {
          "indexed": false,
          "internalType": "uint256",
          "name": "count",
          "type": "uint256"
        }
      ],
      "name": "MaximumSupportedAssetCountSet",
      "type": "event"
    },
    {
      "anonymous": false,
      "inputs": [
        {
          "indexed": true,
          "internalType": "address",
          "name": "previousOwner",
          "type": "address"
        },
        {
          "indexed": true,
          "internalType": "address",
          "name": "newOwner",
          "type": "address"
        }
      ],
      "name": "OwnershipTransferred",
      "type": "event"
    },
    {
      "anonymous": false,
      "inputs": [
        {
          "indexed": false,
          "internalType": "address",
          "name": "proxy",
          "type": "address"
        }
      ],
      "name": "ProxyCreated",
      "type": "event"
    },
    {
      "anonymous": false,
      "inputs": [
        {
          "indexed": true,
          "internalType": "address",
          "name": "asset",
          "type": "address"
        }
      ],
      "name": "RemovedValidAsset",
      "type": "event"
    },
    {
      "inputs": [
        {
          "internalType": "address",
          "name": "asset",
          "type": "address"
        },
        {
          "internalType": "uint8",
          "name": "assetType",
          "type": "uint8"
        },
        {
          "internalType": "address",
          "name": "aggregator",
          "type": "address"
        }
      ],
      "name": "addValidAsset",
      "outputs": [],
      "stateMutability": "nonpayable",
      "type": "function"
    },
    {
      "inputs": [
        {
          "internalType": "bool",
          "name": "_privatePool",
          "type": "bool"
        },
        {
          "internalType": "address",
          "name": "_manager",
          "type": "address"
        },
        {
          "internalType": "string",
          "name": "_managerName",
          "type": "string"
        },
        {
          "internalType": "string",
          "name": "_fundName",
          "type": "string"
        },
        {
          "internalType": "string",
          "name": "_fundSymbol",
          "type": "string"
        },
        {
          "internalType": "uint256",
          "name": "_managerFeeNumerator",
          "type": "uint256"
        },
        {
          "internalType": "address[]",
          "name": "_supportedAssets",
          "type": "address[]"
        }
      ],
      "name": "createFund",
      "outputs": [
        {
          "internalType": "address",
          "name": "",
          "type": "address"
        }
      ],
      "stateMutability": "nonpayable",
      "type": "function"
    },
    {
      "inputs": [
        {
          "internalType": "bytes",
          "name": "_data",
          "type": "bytes"
        },
        {
          "internalType": "uint8",
          "name": "_proxyType",
          "type": "uint8"
        }
      ],
      "name": "deploy",
      "outputs": [
        {
          "internalType": "address",
          "name": "",
          "type": "address"
        }
      ],
      "stateMutability": "nonpayable",
      "type": "function"
    },
    {
      "inputs": [
        {
          "internalType": "uint256",
          "name": "",
          "type": "uint256"
        }
      ],
      "name": "deployedFunds",
      "outputs": [
        {
          "internalType": "address",
          "name": "",
          "type": "address"
        }
      ],
      "stateMutability": "view",
      "type": "function"
    },
    {
      "inputs": [],
      "name": "deployedFundsLength",
      "outputs": [
        {
          "internalType": "uint256",
          "name": "",
          "type": "uint256"
        }
      ],
      "stateMutability": "view",
      "type": "function"
    },
    {
      "inputs": [
        {
          "internalType": "address",
          "name": "asset",
          "type": "address"
        }
      ],
      "name": "getAssetPrice",
      "outputs": [
        {
          "internalType": "uint256",
          "name": "",
          "type": "uint256"
        }
      ],
      "stateMutability": "view",
      "type": "function"
    },
    {
      "inputs": [],
      "name": "getDaoAddress",
      "outputs": [
        {
          "internalType": "address",
          "name": "",
          "type": "address"
        }
      ],
      "stateMutability": "view",
      "type": "function"
    },
    {
      "inputs": [],
      "name": "getDaoFee",
      "outputs": [
        {
          "internalType": "uint256",
          "name": "",
          "type": "uint256"
        },
        {
          "internalType": "uint256",
          "name": "",
          "type": "uint256"
        }
      ],
      "stateMutability": "view",
      "type": "function"
    },
    {
      "inputs": [],
      "name": "getExitCooldown",
      "outputs": [
        {
          "internalType": "uint256",
          "name": "",
          "type": "uint256"
        }
      ],
      "stateMutability": "view",
      "type": "function"
    },
    {
      "inputs": [
        {
          "internalType": "address",
          "name": "extContract",
          "type": "address"
        }
      ],
      "name": "getGuard",
      "outputs": [
        {
          "internalType": "address",
          "name": "",
          "type": "address"
        }
      ],
      "stateMutability": "view",
      "type": "function"
    },
    {
      "inputs": [
        {
          "internalType": "uint8",
          "name": "_proxyType",
          "type": "uint8"
        }
      ],
      "name": "getLogic",
      "outputs": [
        {
          "internalType": "address",
          "name": "",
          "type": "address"
        }
      ],
      "stateMutability": "view",
      "type": "function"
    },
    {
      "inputs": [],
      "name": "getManagerFeeNumeratorChangeDelay",
      "outputs": [
        {
          "internalType": "uint256",
          "name": "",
          "type": "uint256"
        }
      ],
      "stateMutability": "view",
      "type": "function"
    },
    {
      "inputs": [],
      "name": "getMaximumManagerFee",
      "outputs": [
        {
          "internalType": "uint256",
          "name": "",
          "type": "uint256"
        },
        {
          "internalType": "uint256",
          "name": "",
          "type": "uint256"
        }
      ],
      "stateMutability": "view",
      "type": "function"
    },
    {
      "inputs": [],
      "name": "getMaximumManagerFeeNumeratorChange",
      "outputs": [
        {
          "internalType": "uint256",
          "name": "",
          "type": "uint256"
        }
      ],
      "stateMutability": "view",
      "type": "function"
    },
    {
      "inputs": [],
      "name": "getMaximumSupportedAssetCount",
      "outputs": [
        {
          "internalType": "uint256",
          "name": "",
          "type": "uint256"
        }
      ],
      "stateMutability": "view",
      "type": "function"
    },
    {
      "inputs": [
        {
          "internalType": "address",
          "name": "pool",
          "type": "address"
        }
      ],
      "name": "getPoolManagerFee",
      "outputs": [
        {
          "internalType": "uint256",
          "name": "",
          "type": "uint256"
        },
        {
          "internalType": "uint256",
          "name": "",
          "type": "uint256"
        }
      ],
      "stateMutability": "view",
      "type": "function"
    },
    {
      "inputs": [],
      "name": "getTrackingCode",
      "outputs": [
        {
          "internalType": "bytes32",
          "name": "",
          "type": "bytes32"
        }
      ],
      "stateMutability": "view",
      "type": "function"
    },
    {
      "inputs": [
        {
          "internalType": "address",
          "name": "_poolLogic",
          "type": "address"
        },
        {
          "internalType": "address",
          "name": "_managerLogic",
          "type": "address"
        },
        {
          "internalType": "address",
          "name": "_priceConsumer",
          "type": "address"
        },
        {
          "internalType": "address",
          "name": "daoAddress",
          "type": "address"
        },
        {
          "internalType": "address[]",
          "name": "_validAssets",
          "type": "address[]"
        },
        {
          "internalType": "uint8[]",
          "name": "_assetTypes",
          "type": "uint8[]"
        },
        {
          "internalType": "address[]",
          "name": "_aggregators",
          "type": "address[]"
        }
      ],
      "name": "initialize",
      "outputs": [],
      "stateMutability": "nonpayable",
      "type": "function"
    },
    {
      "inputs": [
        {
          "internalType": "address",
          "name": "",
          "type": "address"
        }
      ],
      "name": "isPool",
      "outputs": [
        {
          "internalType": "bool",
          "name": "",
          "type": "bool"
        }
      ],
      "stateMutability": "view",
      "type": "function"
    },
    {
      "inputs": [
        {
          "internalType": "address",
          "name": "",
          "type": "address"
        }
      ],
      "name": "isPoolManager",
      "outputs": [
        {
          "internalType": "bool",
          "name": "",
          "type": "bool"
        }
      ],
      "stateMutability": "view",
      "type": "function"
    },
    {
      "inputs": [
        {
          "internalType": "address",
          "name": "asset",
          "type": "address"
        }
      ],
      "name": "isValidAsset",
      "outputs": [
        {
          "internalType": "bool",
          "name": "",
          "type": "bool"
        }
      ],
      "stateMutability": "view",
      "type": "function"
    },
    {
      "inputs": [],
      "name": "managerFeeNumeratorChangeDelay",
      "outputs": [
        {
          "internalType": "uint256",
          "name": "",
          "type": "uint256"
        }
      ],
      "stateMutability": "view",
      "type": "function"
    },
    {
      "inputs": [],
      "name": "maximumManagerFeeNumeratorChange",
      "outputs": [
        {
          "internalType": "uint256",
          "name": "",
          "type": "uint256"
        }
      ],
      "stateMutability": "view",
      "type": "function"
    },
    {
      "inputs": [],
      "name": "owner",
      "outputs": [
        {
          "internalType": "address",
          "name": "",
          "type": "address"
        }
      ],
      "stateMutability": "view",
      "type": "function"
    },
    {
      "inputs": [
        {
          "internalType": "address",
          "name": "",
          "type": "address"
        }
      ],
      "name": "poolManagerFeeDenominator",
      "outputs": [
        {
          "internalType": "uint256",
          "name": "",
          "type": "uint256"
        }
      ],
      "stateMutability": "view",
      "type": "function"
    },
    {
      "inputs": [
        {
          "internalType": "address",
          "name": "",
          "type": "address"
        }
      ],
      "name": "poolManagerFeeNumerator",
      "outputs": [
        {
          "internalType": "uint256",
          "name": "",
          "type": "uint256"
        }
      ],
      "stateMutability": "view",
      "type": "function"
    },
    {
      "inputs": [],
      "name": "poolStorageVersion",
      "outputs": [
        {
          "internalType": "uint256",
          "name": "",
          "type": "uint256"
        }
      ],
      "stateMutability": "view",
      "type": "function"
    },
    {
      "inputs": [
        {
          "internalType": "address",
          "name": "",
          "type": "address"
        }
      ],
      "name": "poolVersion",
      "outputs": [
        {
          "internalType": "uint256",
          "name": "",
          "type": "uint256"
        }
      ],
      "stateMutability": "view",
      "type": "function"
    },
    {
      "inputs": [
        {
          "internalType": "address",
          "name": "asset",
          "type": "address"
        }
      ],
      "name": "removeValidAsset",
      "outputs": [],
      "stateMutability": "nonpayable",
      "type": "function"
    },
    {
      "inputs": [],
      "name": "renounceOwnership",
      "outputs": [],
      "stateMutability": "nonpayable",
      "type": "function"
    },
    {
      "inputs": [
        {
          "internalType": "address",
          "name": "daoAddress",
          "type": "address"
        }
      ],
      "name": "setDaoAddress",
      "outputs": [],
      "stateMutability": "nonpayable",
      "type": "function"
    },
    {
      "inputs": [
        {
          "internalType": "uint256",
          "name": "numerator",
          "type": "uint256"
        },
        {
          "internalType": "uint256",
          "name": "denominator",
          "type": "uint256"
        }
      ],
      "name": "setDaoFee",
      "outputs": [],
      "stateMutability": "nonpayable",
      "type": "function"
    },
    {
      "inputs": [
        {
          "internalType": "uint256",
          "name": "cooldown",
          "type": "uint256"
        }
      ],
      "name": "setExitCooldown",
      "outputs": [],
      "stateMutability": "nonpayable",
      "type": "function"
    },
    {
      "inputs": [
        {
          "internalType": "address",
          "name": "extContract",
          "type": "address"
        },
        {
          "internalType": "address",
          "name": "guardAddress",
          "type": "address"
        }
      ],
      "name": "setGuard",
      "outputs": [],
      "stateMutability": "nonpayable",
      "type": "function"
    },
    {
      "inputs": [
        {
          "internalType": "address",
          "name": "_poolLogic",
          "type": "address"
        },
        {
          "internalType": "address",
          "name": "_poolManagerLogic",
          "type": "address"
        }
      ],
      "name": "setLogic",
      "outputs": [],
      "stateMutability": "nonpayable",
      "type": "function"
    },
    {
      "inputs": [
        {
          "internalType": "uint256",
          "name": "delay",
          "type": "uint256"
        }
      ],
      "name": "setManagerFeeNumeratorChangeDelay",
      "outputs": [],
      "stateMutability": "nonpayable",
      "type": "function"
    },
    {
      "inputs": [
        {
          "internalType": "uint256",
          "name": "amount",
          "type": "uint256"
        }
      ],
      "name": "setMaximumManagerFeeNumeratorChange",
      "outputs": [],
      "stateMutability": "nonpayable",
      "type": "function"
    },
    {
      "inputs": [
        {
          "internalType": "uint256",
          "name": "count",
          "type": "uint256"
        }
      ],
      "name": "setMaximumSupportedAssetCount",
      "outputs": [],
      "stateMutability": "nonpayable",
      "type": "function"
    },
    {
      "inputs": [
        {
          "internalType": "address",
          "name": "pool",
          "type": "address"
        },
        {
          "internalType": "uint256",
          "name": "numerator",
          "type": "uint256"
        }
      ],
      "name": "setPoolManagerFeeNumerator",
      "outputs": [],
      "stateMutability": "nonpayable",
      "type": "function"
    },
    {
      "inputs": [
        {
          "internalType": "bytes32",
          "name": "code",
          "type": "bytes32"
        }
      ],
      "name": "setTrackingCode",
      "outputs": [],
      "stateMutability": "nonpayable",
      "type": "function"
    },
    {
      "inputs": [
        {
          "internalType": "address",
          "name": "newOwner",
          "type": "address"
        }
      ],
      "name": "transferOwnership",
      "outputs": [],
      "stateMutability": "nonpayable",
      "type": "function"
    },
    {
      "inputs": [
        {
          "internalType": "uint256",
          "name": "startIndex",
          "type": "uint256"
        },
        {
          "internalType": "uint256",
          "name": "endIndex",
          "type": "uint256"
        },
        {
          "internalType": "uint256",
          "name": "sourceVersion",
          "type": "uint256"
        },
        {
          "internalType": "uint256",
          "name": "targetVersion",
          "type": "uint256"
        },
        {
          "internalType": "bytes",
          "name": "data",
          "type": "bytes"
        }
      ],
      "name": "upgradePoolBatch",
      "outputs": [],
      "stateMutability": "nonpayable",
      "type": "function"
    }
  ],
  "bytecode": "0x60806040523480156200001c576000806200001962000023565b50505b5062000090565b632a2a7adb598160e01b8152600481016020815285602082015260005b868110156200005d57808601518282016040015260200162000040565b506020828760640184336000905af158600e01573d6000803e3d6000fd5b3d6001141558600a015760016000f35b505050565b6144ce80620000a06000396000f3fe60806040523480156200001c57600080620000196200383b565b50505b5060043610620002a35760003560e01c80639a068bd61162000170578063bfeaf71d11620000e0578063e60eb412116200009e578063e60eb4121462000e32578063e99c0fa61462000e66578063ebee461d1462000e91578063ecef89d51462000e9b578063eec16c441462000ec9578063f2fde38b1462000ef457620002a3565b8063bfeaf71d1462000b32578063c4a226771462000b3c578063cc435bf31462000b83578063dc76d2541462000bb7578063e527a1041462000beb57620002a3565b8063b193a5f4116200012e578063b193a5f41462000a37578063b3596f071462000a6b578063b7a545261462000a9f578063bcb01f441462000ad3578063bee37e521462000afe57620002a3565b80639a068bd614620009995780639a3cac6a14620009c45780639cada6e414620009f8578063aa12ae4d1462000a02578063aa7d664e1462000a0c57620002a3565b806345812ca511620002185780637027ea6c11620001d65780637027ea6c14620008c2578063715018a614620008f6578063771d1baf1462000900578063808ae5fb14620009315780638da5cb5b146200096d57806394d0d23b146200097757620002a3565b806345812ca5146200075857806349f7c02d14620008325780635556ee55146200083c5780635b16ebb714620008705780635c9bfc2b14620008b857620002a3565b80631e666d1311620002665780631e666d1314620003455780631e8e8bca14620003fd578063227773ee1462000428578063391d348b14620004645780634501b088146200074e57620002a3565b8063046b72c414620002b35780630bf99bd914620002ef5780630f6559c4146200030b57806310bf69dc14620003155780631d68702d146200031f575b600080620002b06200383b565b50505b620002ed60048036036040811015620002d657600080620002d36200383b565b50505b506001600160a01b03813516906020013562000f28565b005b620002f962001103565b60405190815260200160405180910390f35b620002f962001118565b620002f962001127565b6200032962001133565b6040516001600160a01b03909116815260200160405180910390f35b620002ed600480360360a08110156200036857600080620003656200383b565b50505b81359160208101359160408201359160608101359181019060a081016080820135600160201b811115620003a657600080620003a36200383b565b50505b820183602082011115620003c457600080620003c16200383b565b50505b803590602001918460018302840111600160201b83111715620003f157600080620003ee6200383b565b50505b50909250905062001157565b620002ed6004803603602081101562000420576000806200041d6200383b565b50505b5035620012fa565b620002ed600480360360408110156200044b57600080620004486200383b565b50505b506001600160a01b03813581169160200135166200138e565b62000329600480360360e08110156200048757600080620004846200383b565b50505b81351515916001600160a01b0360208201351691810190606081016040820135600160201b811115620004c457600080620004c16200383b565b50505b820183602082011115620004e257600080620004df6200383b565b50505b803590602001918460018302840111600160201b831117156200050f576000806200050c6200383b565b50505b91908080601f01602080910402602001604051908101604052818152929190602084018383808284376000920191909152509295949360208101935035915050600160201b8111156200056c57600080620005696200383b565b50505b8201836020820111156200058a57600080620005876200383b565b50505b803590602001918460018302840111600160201b83111715620005b757600080620005b46200383b565b50505b91908080601f01602080910402602001604051908101604052818152929190602084018383808284376000920191909152509295949360208101935035915050600160201b8111156200061457600080620006116200383b565b50505b82018360208201111562000632576000806200062f6200383b565b50505b803590602001918460018302840111600160201b831117156200065f576000806200065c6200383b565b50505b91908080601f016020809104026020016040519081016040528181529291906020840183838082843760009201919091525092958435959094909350604081019250602001359050600160201b811115620006c457600080620006c16200383b565b50505b820183602082011115620006e257600080620006df6200383b565b50505b803590602001918460208302840111600160201b831117156200070f576000806200070c6200383b565b50505b9190808060200260200160405190810160405280939291908181526020018383602002808284376000920191909152509295506200141d945050505050565b620002f9620019e6565b62000329600480360360408110156200077b57600080620007786200383b565b50505b810190602081018135600160201b811115620007a1576000806200079e6200383b565b50505b820183602082011115620007bf57600080620007bc6200383b565b50505b803590602001918460018302840111600160201b83111715620007ec57600080620007e96200383b565b50505b91908080601f01602080910402602001604051908101604052818152929190602084018383808284376000920191909152509295505050903560ff169150620019f99050565b620002f962001a10565b620002f9600480360360208110156200085f576000806200085c6200383b565b50505b50356001600160a01b031662001a1e565b620008a4600480360360208110156200089357600080620008906200383b565b50505b50356001600160a01b031662001a38565b604051901515815260200160405180910390f35b620002f962001a61565b6200032960048036036020811015620008e557600080620008e26200383b565b50505b50356001600160a01b031662001a6f565b620002ed62001aac565b620002ed600480360360408110156200092357600080620009206200383b565b50505b508035906020013562001bc0565b620002ed600480360360408110156200095457600080620009516200383b565b50505b506001600160a01b038135811691602001351662001c52565b6200032962001d4e565b6200098162001d5d565b60405191825260208201526040908101905180910390f35b6200032960048036036020811015620009bc57600080620009b96200383b565b50505b503562001d80565b620002ed60048036036020811015620009e757600080620009e46200383b565b50505b50356001600160a01b031662001dc2565b6200098162001e53565b620002f962001e6e565b620002ed6004803603602081101562000a2f5760008062000a2c6200383b565b50505b503562001e7c565b620008a46004803603602081101562000a5a5760008062000a576200383b565b50505b50356001600160a01b031662001f0d565b620002f96004803603602081101562000a8e5760008062000a8b6200383b565b50505b50356001600160a01b031662001f29565b620009816004803603602081101562000ac25760008062000abf6200383b565b50505b50356001600160a01b03166200200a565b620002ed6004803603602081101562000af65760008062000af36200383b565b50505b5035620020ea565b620002f96004803603602081101562000b215760008062000b1e6200383b565b50505b50356001600160a01b031662002184565b620002f96200219e565b620002ed6004803603606081101562000b5f5760008062000b5c6200383b565b50505b506001600160a01b03813581169160ff6020820135169160409091013516620021aa565b620008a46004803603602081101562000ba65760008062000ba36200383b565b50505b50356001600160a01b0316620023d4565b620002ed6004803603602081101562000bda5760008062000bd76200383b565b50505b50356001600160a01b03166200240a565b620002ed600480360360e081101562000c0e5760008062000c0b6200383b565b50505b6001600160a01b03823581169260208101358216926040820135831692606083013516919081019060a081016080820135600160201b81111562000c5c5760008062000c596200383b565b50505b82018360208201111562000c7a5760008062000c776200383b565b50505b803590602001918460208302840111600160201b8311171562000ca75760008062000ca46200383b565b50505b9190808060200260200160405190810160405280939291908181526020018383602002808284376000920191909152509295949360208101935035915050600160201b81111562000d025760008062000cff6200383b565b50505b82018360208201111562000d205760008062000d1d6200383b565b50505b803590602001918460208302840111600160201b8311171562000d4d5760008062000d4a6200383b565b50505b9190808060200260200160405190810160405280939291908181526020018383602002808284376000920191909152509295949360208101935035915050600160201b81111562000da85760008062000da56200383b565b50505b82018360208201111562000dc65760008062000dc36200383b565b50505b803590602001918460208302840111600160201b8311171562000df35760008062000df06200383b565b50505b91908080602002602001604051908101604052809392919081815260200183836020028082843760009201919091525092955062002619945050505050565b620002f96004803603602081101562000e555760008062000e526200383b565b50505b50356001600160a01b031662002958565b620002ed6004803603602081101562000e895760008062000e866200383b565b50505b503562002972565b620002f962002a06565b620003296004803603602081101562000ebe5760008062000ebb6200383b565b50505b503560ff1662002a14565b620002ed6004803603602081101562000eec5760008062000ee96200383b565b50505b503562002a57565b620002ed6004803603602081101562000f175760008062000f146200383b565b50505b50356001600160a01b031662002ae8565b60d160005a62000f37620038a8565b6001600160a01b03166001600160a01b0316815260200190815260200160002060009062000f64620038ff565b906101000a900460ff161515600115151462000fc65760405162461bcd60e51b81526020600482015260126024820152712737ba1030903837b7b61036b0b730b3b2b960711b60448201526064016040518091039062000fc36200383b565b50505b6001600160a01b038216600090815260d06020526040902060009062000feb620038ff565b906101000a900460ff1615156001151514620010585760405162461bcd60e51b815260206004820152601e60248201527f737570706c6965642061646472657373206973206e6f74206120706f6f6c0000604482015260640160405180910390620010556200383b565b50505b6200109160dc62001068620038ff565b6001600160a01b038416600090815260d4602052604090206200108a620038ff565b9062002c51565b811115620010e75760405162461bcd60e51b81526020600482015260146024820152730dac2dcc2cecae440cccaca40e8dede40d0d2ced60631b604482015260640160405180910390620010e46200383b565b50505b620010ff828260d3620010f9620038ff565b62002cbc565b5050565b600060cb8062001112620038ff565b91505090565b60db62001124620038ff565b81565b60dc62001124620038ff565b60008060cc62001142620038ff565b906101000a90046001600160a01b0316905090565b6200116162002d7e565b6001600160a01b03166000606562001178620038ff565b906101000a90046001600160a01b03166001600160a01b031614620011dd5760405162461bcd60e51b8152602060048201819052602482015260008051602062004480833981519152604482015260640160405180910390620011da6200383b565b50505b848611158015620011fb575060cb80620011f6620038ff565b905086105b801562001215575060cb8062001210620038ff565b905085105b620012625760405162461bcd60e51b815260206004820152600e60248201526d696e76616c696420626f756e647360901b6044820152606401604051809103906200125f6200383b565b50505b855b858111620012f157600060cb82816200127c620038ff565b81106200128557fe5b906000526020600020016000906200129c620038ff565b6001600160a01b036101009290920a900416600081815260da602052909150869060409020620012cb620038ff565b14620012d85750620012e8565b620012e68185858862002d8b565b505b60010162001264565b50505050505050565b6200130462002d7e565b6001600160a01b0316600060656200131b620038ff565b906101000a90046001600160a01b03166001600160a01b031614620013805760405162461bcd60e51b81526020600482018190526024820152600080516020620044808339815191526044820152606401604051809103906200137d6200383b565b50505b6200138b8162002f1b565b50565b600060cc6200139c620038ff565b906101000a90046001600160a01b03166001600160a01b03165a620013c0620038a8565b6001600160a01b031614620014115760405162461bcd60e51b81526020600482015260086024820152676f6e6c792064616f60c01b6044820152606401604051809103906200140e6200383b565b50505b620010ff828262002f29565b600060605a63996d79a5598160e01b8152602081600483336000905af158600e01573d6000803e3d6000fd5b3d6001141558600a015760016000f35b8051925060005b6040811015620014795760008282015260200162001460565b50505088888560405160240180856001600160a01b03168152602001846001600160a01b031681526020018060200180602001838103835285818151815260200191508051906020019080838360005b83811015620014e3578082015183820152602001620014c9565b50505050905090810190601f168015620015115780820380516001836020036101000a031916815260200191505b50838103825284818151815260200191508051906020019060200280838360005b838110156200154c57808201518382015260200162001532565b505050509050019650505050505050604051601f198183030181526040919091526331a22a9960e21b6020820180516001600160e01b03169091179052905060006200159a826001620019f9565b905060605a63996d79a5598160e01b8152602081600483336000905af158600e01573d6000803e3d6000fd5b3d6001141558600a015760016000f35b8051925060005b6040811015620015f657600082820152602001620015dd565b5050508b89898560405160240180866001600160a01b0316815260200185151581526020018060200180602001846001600160a01b03168152602001838103835286818151815260200191508051906020019080838360005b83811015620016695780820151838201526020016200164f565b50505050905090810190601f168015620016975780820380516001836020036101000a031916815260200191505b50838103825285818151815260200191508051906020019080838360005b83811015620016cf578082015183820152602001620016b5565b50505050905090810190601f168015620016fd5780820380516001836020036101000a031916815260200191505b50975050505050505050604051601f19818303018152604091909152630ccb30c760e01b6020820180516001600160e01b031690911790529050600062001746826002620019f9565b90508060cb8060018162001759620038ff565b018082620017666200394c565b50506000928352600019019160209150200160018162001785620038ff565b816001600160a01b0302191690836001600160a01b0316021790620017a96200394c565b5050506001600160a01b038116600090815260d060205260019060409020600181620017d4620038ff565b8160ff02191690831515021790620017eb6200394c565b5050506001600160a01b038316600090815260d16020526001906040902060018162001816620038ff565b8160ff021916908315150217906200182d6200394c565b50505060db6200183c620038ff565b6001600160a01b038216600090815260da602052604090208190620018606200394c565b50505062001875818860d3620010f9620038ff565b7f73a0638fe578fc759744633aa170a433061ca2cc1bb855d116c506e04a29901f818d8b8d8f5a620018a66200399b565b8d60d3620018b3620038ff565b60405180896001600160a01b0316815260200188151581526020018060200180602001876001600160a01b03168152602001868152602001858152602001848152602001838103835289818151815260200191508051906020019080838360005b838110156200192e57808201518382015260200162001914565b50505050905090810190601f1680156200195c5780820380516001836020036101000a031916815260200191505b50838103825288818151815260200191508051906020019080838360005b83811015620019945780820151838201526020016200197a565b50505050905090810190601f168015620019c25780820380516001836020036101000a031916815260200191505b509a505050505050505050505060405180910390a19b9a5050505050505050505050565b600060d6620019f4620038ff565b905090565b600062001a07838362002f50565b90505b92915050565b600060d9620019f4620038ff565b60da602052806000526040600020905062001124620038ff565b60d06020528060005260406000206000915062001a54620038ff565b906101000a900460ff1681565b600060dc620019f4620038ff565b6001600160a01b038116600090815260de6020526040812060009062001a94620038ff565b906101000a90046001600160a01b031690505b919050565b62001ab662002d7e565b6001600160a01b03166000606562001acd620038ff565b906101000a90046001600160a01b03166001600160a01b03161462001b325760405162461bcd60e51b815260206004820181905260248201526000805160206200448083398151915260448201526064016040518091039062001b2f6200383b565b50505b600080606562001b41620038ff565b906101000a90046001600160a01b03166001600160a01b03167f8be0079c531659141344cd1fd0a4f28419497f9722a3daafe3b4186f6b6457e060405160405180910390a36000606560018162001b97620038ff565b816001600160a01b0302191690836001600160a01b031602179062001bbb6200394c565b505050565b62001bca62002d7e565b6001600160a01b03166000606562001be1620038ff565b906101000a90046001600160a01b03166001600160a01b03161462001c465760405162461bcd60e51b815260206004820181905260248201526000805160206200448083398151915260448201526064016040518091039062001c436200383b565b50505b620010ff82826200310c565b62001c5c62002d7e565b6001600160a01b03166000606562001c73620038ff565b906101000a90046001600160a01b03166001600160a01b03161462001cd85760405162461bcd60e51b815260206004820181905260248201526000805160206200448083398151915260448201526064016040518091039062001cd56200383b565b50505b81609760018162001ce8620038ff565b816001600160a01b0302191690836001600160a01b031602179062001d0c6200394c565b50505080609860006101000a8162001d23620038ff565b816001600160a01b0302191690836001600160a01b031602179062001d476200394c565b5050505050565b600080606562001142620038ff565b60008060d262001d6c620038ff565b60d362001d78620038ff565b915091509091565b60cb818162001d8e620038ff565b811062001d9757fe5b906000526020600020016000915062001daf620038ff565b906101000a90046001600160a01b031681565b62001dcc62002d7e565b6001600160a01b03166000606562001de3620038ff565b906101000a90046001600160a01b03166001600160a01b03161462001e485760405162461bcd60e51b815260206004820181905260248201526000805160206200448083398151915260448201526064016040518091039062001e456200383b565b50505b6200138b81620031c0565b60008060ce62001e62620038ff565b60cf62001d78620038ff565b600060d8620019f4620038ff565b62001e8662002d7e565b6001600160a01b03166000606562001e9d620038ff565b906101000a90046001600160a01b03166001600160a01b03161462001f025760405162461bcd60e51b815260206004820181905260248201526000805160206200448083398151915260448201526064016040518091039062001eff6200383b565b50505b6200138b8162003237565b60d16020528060005260406000206000915062001a54620038ff565b60008060cd62001f38620038ff565b906101000a90046001600160a01b03166001600160a01b0316638b2f0f4f836040516001600160e01b031960e084901b1681526001600160a01b039091166004820152602401602060405180830381868062001f93620039e2565b15801562001fab5760008062001fa86200383b565b50505b505a62001fb762003a2f565b505050505015801562001fd9573d6000803e3d600062001fd66200383b565b50505b505050506040513d602081101562001ffb5760008062001ff86200383b565b50505b81019080805195945050505050565b6001600160a01b038116600090815260d0602052806040812060009062002030620038ff565b906101000a900460ff16151560011515146200209d5760405162461bcd60e51b815260206004820152601e60248201527f737570706c6965642061646472657373206973206e6f74206120706f6f6c00006044820152606401604051809103906200209a6200383b565b50505b6001600160a01b038316600090815260d460205260409020620020bf620038ff565b6001600160a01b038416600090815260d560205260409020620020e1620038ff565b91509150915091565b620020f462002d7e565b6001600160a01b0316600060656200210b620038ff565b906101000a90046001600160a01b03166001600160a01b031614620021705760405162461bcd60e51b81526020600482018190526024820152600080516020620044808339815191526044820152606401604051809103906200216d6200383b565b50505b808060dd6200217e6200394c565b50505050565b60d4602052806000526040600020905062001124620038ff565b60dd62001124620038ff565b600060cc620021b8620038ff565b906101000a90046001600160a01b03166001600160a01b03165a620021dc620038a8565b6001600160a01b0316146200222d5760405162461bcd60e51b81526020600482015260086024820152676f6e6c792064616f60c01b6044820152606401604051809103906200222a6200383b565b50505b6200223883620023d4565b156200228c5760405162461bcd60e51b8152602060048201526014602482015273617373657420616c72656164792065786973747360601b604482015260640160405180910390620022896200383b565b50505b6001600160a01b038316600090815260d760205260019060409020600181620022b4620038ff565b8160ff02191690831515021790620022cb6200394c565b50505060cd600090620022dd620038ff565b906101000a90046001600160a01b03166001600160a01b0316632c63812c8484846040516001600160e01b031960e086901b1681526001600160a01b03938416600482015260ff90921660248301529091166044820152606401600060405180830381600087806200234e620039e2565b1580156200236657600080620023636200383b565b50505b505a6200237262003b25565b50505050505015801562002395573d6000803e3d6000620023926200383b565b50505b50505050826001600160a01b03167fd63c302652b86334fe4eb891e7a01e61e836496485d9394f2c95b4222006ae5060405160405180910390a2505050565b6001600160a01b038116600090815260d760205260408120600090620023f9620038ff565b906101000a900460ff169050919050565b600060cc62002418620038ff565b906101000a90046001600160a01b03166001600160a01b03165a6200243c620038a8565b6001600160a01b0316146200248d5760405162461bcd60e51b81526020600482015260086024820152676f6e6c792064616f60c01b6044820152606401604051809103906200248a6200383b565b50505b6200249881620023d4565b620024ea5760405162461bcd60e51b8152602060048201526013602482015272185cdcd95d08191bd95cdb89dd08195e1a5cdd606a1b604482015260640160405180910390620024e76200383b565b50505b6001600160a01b038116600090815260d7602052604081206001816200250f620038ff565b8160ff02191690831515021790620025266200394c565b50505060cd60009062002538620038ff565b906101000a90046001600160a01b03166001600160a01b0316638c651f11826040516001600160e01b031960e084901b1681526001600160a01b0390911660048201526024016000604051808303816000878062002595620039e2565b158015620025ad57600080620025aa6200383b565b50505b505a620025b962003b25565b505050505050158015620025dc573d6000803e3d6000620025d96200383b565b50505b50505050806001600160a01b03167fe8b3c469b395bfd934168e4b7d14590c9cd1a6740533df170dbe3c219ff5a67460405160405180910390a250565b6001600062002627620038ff565b906101000a900460ff1680620026425750620026426200327e565b8062002662575060008062002656620038ff565b906101000a900460ff16155b620026aa5760405162461bcd60e51b815260040180806020018281038252602e815260200180620044a0602e913960400191505060405180910390620026a76200383b565b50505b6000600181620026b9620038ff565b906101000a900460ff16159050801562002728576001600061010081620026df620038ff565b8160ff02191690831515021790620026f66200394c565b50505060016000806101000a816200270d620038ff565b8160ff02191690831515021790620027246200394c565b5050505b620027348888620032f3565b6200273f85620031c0565b6200274f611388612710620032fd565b6200275d600a60646200310c565b6200276b6201518062003237565b620027796224ea00620020ea565b620027866103e862002972565b62002792600a62003370565b620027a66544484544474560d01b62002f1b565b60005b84518160ff1610156200291a57600160d76000878460ff1681518110620027cc57fe5b60200260200101516001600160a01b03166001600160a01b0316815260200190815260200160002060018162002801620038ff565b8160ff02191690831515021790620028186200394c565b505050866001600160a01b0316632c63812c868360ff16815181106200283a57fe5b6020026020010151868460ff16815181106200285257fe5b6020026020010151868560ff16815181106200286a57fe5b60200260200101516040516001600160e01b031960e086901b1681526001600160a01b03938416600482015260ff9092166024830152909116604482015260640160006040518083038160008780620028c2620039e2565b158015620028da57600080620028d76200383b565b50505b505a620028e662003b25565b50505050505015801562002909573d6000803e3d6000620029066200383b565b50505b505060019092019150620027a99050565b5080156200294e576000806101008162002933620038ff565b8160ff021916908315150217906200294a6200394c565b5050505b5050505050505050565b60d5602052806000526040600020905062001124620038ff565b6200297c62002d7e565b6001600160a01b03166000606562002993620038ff565b906101000a90046001600160a01b03166001600160a01b031614620029f85760405162461bcd60e51b8152602060048201819052602482015260008051602062004480833981519152604482015260640160405180910390620029f56200383b565b50505b808060dc6200217e6200394c565b600060dd620019f4620038ff565b60008160ff166001141562002a49576000609862002a31620038ff565b906101000a90046001600160a01b0316905062001aa7565b6000609762002a31620038ff565b62002a6162002d7e565b6001600160a01b03166000606562002a78620038ff565b906101000a90046001600160a01b03166001600160a01b03161462002add5760405162461bcd60e51b815260206004820181905260248201526000805160206200448083398151915260448201526064016040518091039062002ada6200383b565b50505b6200138b8162003370565b62002af262002d7e565b6001600160a01b03166000606562002b09620038ff565b906101000a90046001600160a01b03166001600160a01b03161462002b6e5760405162461bcd60e51b815260206004820181905260248201526000805160206200448083398151915260448201526064016040518091039062002b6b6200383b565b50505b6001600160a01b03811662002bc05760405162461bcd60e51b81526004018080602001828103825260268152602001806200445a602691396040019150506040518091039062002bbd6200383b565b50505b6001600160a01b0381166000606562002bd8620038ff565b906101000a90046001600160a01b03166001600160a01b03167f8be0079c531659141344cd1fd0a4f28419497f9722a3daafe3b4186f6b6457e060405160405180910390a380606560018162002c2d620038ff565b816001600160a01b0302191690836001600160a01b03160217906200217e6200394c565b60008282018381101562001a075760405162461bcd60e51b815260206004820152601b60248201527f536166654d6174683a206164646974696f6e206f766572666c6f77000000000060448201526064016040518091039062002cb36200383b565b50509392505050565b80821115801562002cd8575060d262002cd4620038ff565b8211155b62002d275760405162461bcd60e51b815260206004820152601060248201526f34b73b30b634b210333930b1ba34b7b760811b60448201526064016040518091039062002d246200383b565b50505b6001600160a01b038316600090815260d4602052829060409020819062002d4d6200394c565b5050506001600160a01b038316600090815260d5602052819060409020819062002d766200394c565b505050505050565b60005a620019f4620038a8565b6001600160a01b03841662002de25760405162461bcd60e51b815260206004820152600e60248201526d1d185c99d95d0b5a5b9d985b1a5960921b60448201526064016040518091039062002ddf6200383b565b50505b8162002e2e5760405162461bcd60e51b815260206004820152600c60248201526b19185d184b5a5b9d985b1a5960a21b60448201526064016040518091039062002e2b6200383b565b50505b606083838080601f01602080910402602001604051908101604052818152929190602084018383808284376000920182905250939450839250849150505160208401885a62002e7c62003bf3565b505050505080156001811462002e925762002ea9565b3d806000803e80600062002ea56200383b565b5050505b5050846001600160a01b03165a62002ec0620038a8565b6001600160a01b03167f78a9b536049c39a00adaf57016b1376c99dd48a0faf2cef23690232f21ce42cc60405160405180910390a36001600160a01b038516600090815260da60205282906040902081906200294e6200394c565b808060d96200217e6200394c565b6001600160a01b038216600090815260de60205281906040902060018162001d23620038ff565b60008062002f5d620033b7565b90507efffc2da0b561cae30d9826d37709e9421c4725faebc226cbbb7ef5fc5e7349816040516001600160a01b03909116815260200160405180910390a1806001600160a01b031663e74a474a5a63996d79a5598160e01b8152602081600483336000905af158600e01573d6000803e3d6000fd5b3d6001141558600a015760016000f35b8051925060005b6040811015620030025760008282015260200162002fe9565b50505086866040518463ffffffff1660e01b815260040180846001600160a01b03168152602001806020018360ff168152602001828103825284818151815260200191508051906020019080838360005b838110156200306d57808201518382015260200162003053565b50505050905090810190601f1680156200309b5780820380516001836020036101000a031916815260200191505b5094505050505060006040518083038160008780620030b9620039e2565b158015620030d157600080620030ce6200383b565b50505b505a620030dd62003b25565b50505050505015801562003100573d6000803e3d6000620030fd6200383b565b50505b50929695505050505050565b808211156200315f5760405162461bcd60e51b815260206004820152601060248201526f34b73b30b634b210333930b1ba34b7b760811b6044820152606401604051809103906200315c6200383b565b50505b818060ce6200316d6200394c565b5050508060cf81906200317f6200394c565b5050507fb10da2958bf5ec1bff3164ff753a09e0460ed44d3abf73e79b817b500ed0f2f1828260405191825260208201526040908101905180910390a15050565b8060cc600181620031d0620038ff565b816001600160a01b0302191690836001600160a01b0316021790620031f46200394c565b5050507ff1034ad6b4d45dc33a4142b9c51c2b7f89bf4a410696e426cc0f3224869e0aca816040516001600160a01b03909116815260200160405180910390a150565b808060d6620032456200394c565b5050507f20d916c976f3971e8200089411b0b712ef4612d98380b8ad2e3d8a8a376d85c78160405190815260200160405180910390a150565b6000805a63996d79a5598160e01b8152602081600483336000905af158600e01573d6000803e3d6000fd5b3d6001141558600a015760016000f35b8051925060005b6040811015620032d957600082820152602001620032c0565b5050509050600081620032eb620039e2565b159250505090565b62001cd86200341e565b80821115620033505760405162461bcd60e51b815260206004820152601060248201526f34b73b30b634b210333930b1ba34b7b760811b6044820152606401604051809103906200334d6200383b565b50505b818060d26200335e6200394c565b5050508060d3819062001d476200394c565b808060d86200337e6200394c565b5050507f0cd8fcb5e08d7632af461f0ad793e5c63dc0d7595c301f5880650175e37a87488160405190815260200160405180910390a150565b6000806060604051620033cd6020820162003c05565b601f1982820381018352601f9091011660405290508051602082016000620033f462003c13565b505091508162003403620039e2565b6200341857600080620034156200383b565b50505b50905090565b600160006200342c620038ff565b906101000a900460ff1680620034475750620034476200327e565b806200346757506000806200345b620038ff565b906101000a900460ff16155b620034af5760405162461bcd60e51b815260040180806020018281038252602e815260200180620044a0602e913960400191505060405180910390620034ac6200383b565b50505b6000600181620034be620038ff565b906101000a900460ff1615905080156200352d576001600061010081620034e4620038ff565b8160ff02191690831515021790620034fb6200394c565b50505060016000806101000a8162003512620038ff565b8160ff02191690831515021790620035296200394c565b5050505b6200353762003570565b6200354162003696565b80156200138b576000806101008162003559620038ff565b8160ff021916908315150217906200217e6200394c565b600160006200357e620038ff565b906101000a900460ff1680620035995750620035996200327e565b80620035b95750600080620035ad620038ff565b906101000a900460ff16155b620036015760405162461bcd60e51b815260040180806020018281038252602e815260200180620044a0602e913960400191505060405180910390620035fe6200383b565b50505b600060018162003610620038ff565b906101000a900460ff1615905080156200354157600160006101008162003636620038ff565b8160ff021916908315150217906200364d6200394c565b50505060016000806101000a8162003664620038ff565b8160ff021916908315150217906200367b6200394c565b50505080156200138b576000806101008162003559620038ff565b60016000620036a4620038ff565b906101000a900460ff1680620036bf5750620036bf6200327e565b80620036df5750600080620036d3620038ff565b906101000a900460ff16155b620037275760405162461bcd60e51b815260040180806020018281038252602e815260200180620044a0602e913960400191505060405180910390620037246200383b565b50505b600060018162003736620038ff565b906101000a900460ff161590508015620037a55760016000610100816200375c620038ff565b8160ff02191690831515021790620037736200394c565b50505060016000806101000a816200378a620038ff565b8160ff02191690831515021790620037a16200394c565b5050505b6000620037b162002d7e565b9050806065600181620037c3620038ff565b816001600160a01b0302191690836001600160a01b0316021790620037e76200394c565b5050506001600160a01b03811660007f8be0079c531659141344cd1fd0a4f28419497f9722a3daafe3b4186f6b6457e060405160405180910390a35080156200138b576000806101008162003559620038ff565b632a2a7adb598160e01b8152600481016020815285602082015260005b868110156200387557808601518282016040015260200162003858565b506020828760640184336000905af158600e01573d6000803e3d6000fd5b3d6001141558600a015760016000f35b505050565b6373509064598160e01b8152602081600483336000905af158600e01573d6000803e3d6000fd5b3d6001141558600a015760016000f35b8051935060005b604081101562001bbb57600082820152602001620038e6565b6303daa959598160e01b8152836004820152602081602483336000905af158600e01573d6000803e3d6000fd5b3d6001141558600a015760016000f35b80516000825293506020620038e6565b6322bd64c0598160e01b8152836004820152846024820152600081604483336000905af158600e01573d6000803e3d6000fd5b3d6001141558600a015760016000f35b600081526020620038e6565b63bdbf8c36598160e01b8152602081600483336000905af158600e01573d6000803e3d6000fd5b3d6001141558600a015760016000f35b80516000825293506020620038e6565b638435035b598160e01b8152836004820152602081602483336000905af158600e01573d6000803e3d6000fd5b3d6001141558600a015760016000f35b80516000825293506020620038e6565b638540661f598160e01b815262003a63565b808083111562001a0a575090919050565b808083101562001a0a575090919050565b836004820152846024820152606060448201528660648201526084810160005b8881101562003a9d57808801518282015260200162003a83565b506060828960a40184336000905af158600e01573d6000803e3d6000fd5b3d6001141558600a015760016000f35b815160408301513d6000853e8b8b82606087013350600060045af1505962003af48d3d62003a52565b8c0162003b02818762003a41565b5b8281101562003b19576000815260200162003b03565b50929c50505050505050565b6385979f76598160e01b8152836004820152846024820152606060448201528760648201526084810160005b8981101562003b6b57808901518282015260200162003b51565b506060828a60a40184336000905af158600e01573d6000803e3d6000fd5b3d6001141558600a015760016000f35b815160408301513d6000853e8c8c82606087013350600060045af1505962003bc28e3d62003a52565b8d0162003bd0818762003a41565b5b8281101562003be7576000815260200162003bd1565b50929d50505050505050565b63ffe73914598160e01b815262003a63565b6107c18062003c9983390190565b6314aa2ff7598160e01b8152600481016020815286602082015260005b8781101562003c4d57808701518282016040015260200162003c30565b506020828860640184336000905af158600e01573d6000803e3d6000fd5b3d6001141558600a015760016000f35b8151965059825b8181101562001d47576000815260200162003c8256fe60806040523480156100195760008061001661001f565b50505b5061008a565b632a2a7adb598160e01b8152600481016020815285602082015260005b8681101561005757808601518282016040015260200161003c565b506020828760640184336000905af158600e01573d6000803e3d6000fd5b3d6001141558600a015760016000f35b505050565b610728806100996000396000f3fe6080604052600436106100225760003560e01c8063e74a474a1461003957610031565b366100315761002f610117565b005b61002f610117565b61002f60048036036060811015610058576000806100556104ca565b50505b6001600160a01b03823516919081019060408101602082013564010000000081111561008c576000806100896104ca565b50505b8201836020820111156100a7576000806100a46104ca565b50505b803590602001918460018302840111640100000000831117156100d2576000806100cf6104ca565b50505b91908080601f01602080910402602001604051908101604052818152929190602084018383808284376000920191909152509295505050903560ff1691506101319050565b61011f61012f565b61012f61012a6102c3565b6103c4565b565b600061013b6102c3565b6001600160a01b03161461018e5760405162461bcd60e51b815260206004820152600d60248201526c496d706c206e6f74207a65726f60981b60448201526064016040518091039061018b6104ca565b50505b61019783610401565b6101a08161048e565b6000825111156102be5760006101b46102c3565b6001600160a01b0316836040518082805190602001908083835b602083106101ed5780518252601f1990920191602091820191016101ce565b6001836020036101000a038019825116818451168082178552505050505050905001915050600060405180830381855a610225610535565b50505050509150503d8060008114610259576040513d603f01601f191681016040523d815291503d6000602084013e61025e565b606091505b50509050806102bc5760405162461bcd60e51b815260206004820152601a60248201527f496d706c656d656e746174696f6e20696e6974206661696c65640000000000006044820152606401604051809103906102b96104ca565b50505b505b505050565b6000807f360894a13ba1a3210667c828492db98dca3e2076cc3735a920a3ca505d382bbc806102f0610622565b91506001600160a01b03821661030b576000925050506103c1565b816001600160a01b031663ecef89d561032261049d565b6040516001600160e01b031960e084901b16815260ff9091166004820152602401602060405180830381868061035661067d565b15801561036b576000806103686104ca565b50505b505a6103756106c9565b5050505050158015610394573d6000803e3d60006103916104ca565b50505b505050506040513d60208110156103b3576000806103b06104ca565b50505b810190808051955050505050505b90565b3660008037600080366000845a6103d9610535565b50505050503d6000803e8080156103ef573d6000f35b3d60006103fa6104ca565b5050505050565b61040a816104b5565b6104635760405162461bcd60e51b815260206004820181905260248201527f43616e6e6f742073657420696d706c656d656e746174696f6e20746f20454f416044820152606401604051809103906104606104ca565b50505b7f360894a13ba1a3210667c828492db98dca3e2076cc3735a920a3ca505d382bbc81816102bc6106da565b600160fc1b81816102bc6106da565b600080600160fc1b806104ae610622565b9250505090565b600080826104c161067d565b15159392505050565b632a2a7adb598160e01b8152600481016020815285602082015260005b868110156105025780860151828201604001526020016104e7565b506020828760640184336000905af158600e01573d6000803e3d6000fd5b3d6001141558600a015760016000f35b505050565b63ffe73914598160e01b8152610568565b80808311156105525750815b92915050565b8080831015610552575090919050565b836004820152846024820152606060448201528660648201526084810160005b888110156105a0578088015182820152602001610588565b506060828960a40184336000905af158600e01573d6000803e3d6000fd5b3d6001141558600a015760016000f35b815160408301513d6000853e8b8b82606087013350600060045af150596105f58d3d610558565b8c016106018187610546565b5b828110156106165760008152602001610602565b50929c50505050505050565b6303daa959598160e01b8152836004820152602081602483336000905af158600e01573d6000803e3d6000fd5b3d6001141558600a015760016000f35b8051935060005b60408110156102be57600082820152602001610666565b638435035b598160e01b8152836004820152602081602483336000905af158600e01573d6000803e3d6000fd5b3d6001141558600a015760016000f35b80516000825293506020610666565b638540661f598160e01b8152610568565b6322bd64c0598160e01b8152836004820152846024820152600081604483336000905af158600e01573d6000803e3d6000fd5b3d6001141558600a015760016000f35b600081526020610666564f776e61626c653a206e6577206f776e657220697320746865207a65726f20616464726573734f776e61626c653a2063616c6c6572206973206e6f7420746865206f776e6572436f6e747261637420696e7374616e63652068617320616c7265616479206265656e20696e697469616c697a6564",
  "deployedBytecode": "0x60806040523480156200001c57600080620000196200383b565b50505b5060043610620002a35760003560e01c80639a068bd61162000170578063bfeaf71d11620000e0578063e60eb412116200009e578063e60eb4121462000e32578063e99c0fa61462000e66578063ebee461d1462000e91578063ecef89d51462000e9b578063eec16c441462000ec9578063f2fde38b1462000ef457620002a3565b8063bfeaf71d1462000b32578063c4a226771462000b3c578063cc435bf31462000b83578063dc76d2541462000bb7578063e527a1041462000beb57620002a3565b8063b193a5f4116200012e578063b193a5f41462000a37578063b3596f071462000a6b578063b7a545261462000a9f578063bcb01f441462000ad3578063bee37e521462000afe57620002a3565b80639a068bd614620009995780639a3cac6a14620009c45780639cada6e414620009f8578063aa12ae4d1462000a02578063aa7d664e1462000a0c57620002a3565b806345812ca511620002185780637027ea6c11620001d65780637027ea6c14620008c2578063715018a614620008f6578063771d1baf1462000900578063808ae5fb14620009315780638da5cb5b146200096d57806394d0d23b146200097757620002a3565b806345812ca5146200075857806349f7c02d14620008325780635556ee55146200083c5780635b16ebb714620008705780635c9bfc2b14620008b857620002a3565b80631e666d1311620002665780631e666d1314620003455780631e8e8bca14620003fd578063227773ee1462000428578063391d348b14620004645780634501b088146200074e57620002a3565b8063046b72c414620002b35780630bf99bd914620002ef5780630f6559c4146200030b57806310bf69dc14620003155780631d68702d146200031f575b600080620002b06200383b565b50505b620002ed60048036036040811015620002d657600080620002d36200383b565b50505b506001600160a01b03813516906020013562000f28565b005b620002f962001103565b60405190815260200160405180910390f35b620002f962001118565b620002f962001127565b6200032962001133565b6040516001600160a01b03909116815260200160405180910390f35b620002ed600480360360a08110156200036857600080620003656200383b565b50505b81359160208101359160408201359160608101359181019060a081016080820135600160201b811115620003a657600080620003a36200383b565b50505b820183602082011115620003c457600080620003c16200383b565b50505b803590602001918460018302840111600160201b83111715620003f157600080620003ee6200383b565b50505b50909250905062001157565b620002ed6004803603602081101562000420576000806200041d6200383b565b50505b5035620012fa565b620002ed600480360360408110156200044b57600080620004486200383b565b50505b506001600160a01b03813581169160200135166200138e565b62000329600480360360e08110156200048757600080620004846200383b565b50505b81351515916001600160a01b0360208201351691810190606081016040820135600160201b811115620004c457600080620004c16200383b565b50505b820183602082011115620004e257600080620004df6200383b565b50505b803590602001918460018302840111600160201b831117156200050f576000806200050c6200383b565b50505b91908080601f01602080910402602001604051908101604052818152929190602084018383808284376000920191909152509295949360208101935035915050600160201b8111156200056c57600080620005696200383b565b50505b8201836020820111156200058a57600080620005876200383b565b50505b803590602001918460018302840111600160201b83111715620005b757600080620005b46200383b565b50505b91908080601f01602080910402602001604051908101604052818152929190602084018383808284376000920191909152509295949360208101935035915050600160201b8111156200061457600080620006116200383b565b50505b82018360208201111562000632576000806200062f6200383b565b50505b803590602001918460018302840111600160201b831117156200065f576000806200065c6200383b565b50505b91908080601f016020809104026020016040519081016040528181529291906020840183838082843760009201919091525092958435959094909350604081019250602001359050600160201b811115620006c457600080620006c16200383b565b50505b820183602082011115620006e257600080620006df6200383b565b50505b803590602001918460208302840111600160201b831117156200070f576000806200070c6200383b565b50505b9190808060200260200160405190810160405280939291908181526020018383602002808284376000920191909152509295506200141d945050505050565b620002f9620019e6565b62000329600480360360408110156200077b57600080620007786200383b565b50505b810190602081018135600160201b811115620007a1576000806200079e6200383b565b50505b820183602082011115620007bf57600080620007bc6200383b565b50505b803590602001918460018302840111600160201b83111715620007ec57600080620007e96200383b565b50505b91908080601f01602080910402602001604051908101604052818152929190602084018383808284376000920191909152509295505050903560ff169150620019f99050565b620002f962001a10565b620002f9600480360360208110156200085f576000806200085c6200383b565b50505b50356001600160a01b031662001a1e565b620008a4600480360360208110156200089357600080620008906200383b565b50505b50356001600160a01b031662001a38565b604051901515815260200160405180910390f35b620002f962001a61565b6200032960048036036020811015620008e557600080620008e26200383b565b50505b50356001600160a01b031662001a6f565b620002ed62001aac565b620002ed600480360360408110156200092357600080620009206200383b565b50505b508035906020013562001bc0565b620002ed600480360360408110156200095457600080620009516200383b565b50505b506001600160a01b038135811691602001351662001c52565b6200032962001d4e565b6200098162001d5d565b60405191825260208201526040908101905180910390f35b6200032960048036036020811015620009bc57600080620009b96200383b565b50505b503562001d80565b620002ed60048036036020811015620009e757600080620009e46200383b565b50505b50356001600160a01b031662001dc2565b6200098162001e53565b620002f962001e6e565b620002ed6004803603602081101562000a2f5760008062000a2c6200383b565b50505b503562001e7c565b620008a46004803603602081101562000a5a5760008062000a576200383b565b50505b50356001600160a01b031662001f0d565b620002f96004803603602081101562000a8e5760008062000a8b6200383b565b50505b50356001600160a01b031662001f29565b620009816004803603602081101562000ac25760008062000abf6200383b565b50505b50356001600160a01b03166200200a565b620002ed6004803603602081101562000af65760008062000af36200383b565b50505b5035620020ea565b620002f96004803603602081101562000b215760008062000b1e6200383b565b50505b50356001600160a01b031662002184565b620002f96200219e565b620002ed6004803603606081101562000b5f5760008062000b5c6200383b565b50505b506001600160a01b03813581169160ff6020820135169160409091013516620021aa565b620008a46004803603602081101562000ba65760008062000ba36200383b565b50505b50356001600160a01b0316620023d4565b620002ed6004803603602081101562000bda5760008062000bd76200383b565b50505b50356001600160a01b03166200240a565b620002ed600480360360e081101562000c0e5760008062000c0b6200383b565b50505b6001600160a01b03823581169260208101358216926040820135831692606083013516919081019060a081016080820135600160201b81111562000c5c5760008062000c596200383b565b50505b82018360208201111562000c7a5760008062000c776200383b565b50505b803590602001918460208302840111600160201b8311171562000ca75760008062000ca46200383b565b50505b9190808060200260200160405190810160405280939291908181526020018383602002808284376000920191909152509295949360208101935035915050600160201b81111562000d025760008062000cff6200383b565b50505b82018360208201111562000d205760008062000d1d6200383b565b50505b803590602001918460208302840111600160201b8311171562000d4d5760008062000d4a6200383b565b50505b9190808060200260200160405190810160405280939291908181526020018383602002808284376000920191909152509295949360208101935035915050600160201b81111562000da85760008062000da56200383b565b50505b82018360208201111562000dc65760008062000dc36200383b565b50505b803590602001918460208302840111600160201b8311171562000df35760008062000df06200383b565b50505b91908080602002602001604051908101604052809392919081815260200183836020028082843760009201919091525092955062002619945050505050565b620002f96004803603602081101562000e555760008062000e526200383b565b50505b50356001600160a01b031662002958565b620002ed6004803603602081101562000e895760008062000e866200383b565b50505b503562002972565b620002f962002a06565b620003296004803603602081101562000ebe5760008062000ebb6200383b565b50505b503560ff1662002a14565b620002ed6004803603602081101562000eec5760008062000ee96200383b565b50505b503562002a57565b620002ed6004803603602081101562000f175760008062000f146200383b565b50505b50356001600160a01b031662002ae8565b60d160005a62000f37620038a8565b6001600160a01b03166001600160a01b0316815260200190815260200160002060009062000f64620038ff565b906101000a900460ff161515600115151462000fc65760405162461bcd60e51b81526020600482015260126024820152712737ba1030903837b7b61036b0b730b3b2b960711b60448201526064016040518091039062000fc36200383b565b50505b6001600160a01b038216600090815260d06020526040902060009062000feb620038ff565b906101000a900460ff1615156001151514620010585760405162461bcd60e51b815260206004820152601e60248201527f737570706c6965642061646472657373206973206e6f74206120706f6f6c0000604482015260640160405180910390620010556200383b565b50505b6200109160dc62001068620038ff565b6001600160a01b038416600090815260d4602052604090206200108a620038ff565b9062002c51565b811115620010e75760405162461bcd60e51b81526020600482015260146024820152730dac2dcc2cecae440cccaca40e8dede40d0d2ced60631b604482015260640160405180910390620010e46200383b565b50505b620010ff828260d3620010f9620038ff565b62002cbc565b5050565b600060cb8062001112620038ff565b91505090565b60db62001124620038ff565b81565b60dc62001124620038ff565b60008060cc62001142620038ff565b906101000a90046001600160a01b0316905090565b6200116162002d7e565b6001600160a01b03166000606562001178620038ff565b906101000a90046001600160a01b03166001600160a01b031614620011dd5760405162461bcd60e51b8152602060048201819052602482015260008051602062004480833981519152604482015260640160405180910390620011da6200383b565b50505b848611158015620011fb575060cb80620011f6620038ff565b905086105b801562001215575060cb8062001210620038ff565b905085105b620012625760405162461bcd60e51b815260206004820152600e60248201526d696e76616c696420626f756e647360901b6044820152606401604051809103906200125f6200383b565b50505b855b858111620012f157600060cb82816200127c620038ff565b81106200128557fe5b906000526020600020016000906200129c620038ff565b6001600160a01b036101009290920a900416600081815260da602052909150869060409020620012cb620038ff565b14620012d85750620012e8565b620012e68185858862002d8b565b505b60010162001264565b50505050505050565b6200130462002d7e565b6001600160a01b0316600060656200131b620038ff565b906101000a90046001600160a01b03166001600160a01b031614620013805760405162461bcd60e51b81526020600482018190526024820152600080516020620044808339815191526044820152606401604051809103906200137d6200383b565b50505b6200138b8162002f1b565b50565b600060cc6200139c620038ff565b906101000a90046001600160a01b03166001600160a01b03165a620013c0620038a8565b6001600160a01b031614620014115760405162461bcd60e51b81526020600482015260086024820152676f6e6c792064616f60c01b6044820152606401604051809103906200140e6200383b565b50505b620010ff828262002f29565b600060605a63996d79a5598160e01b8152602081600483336000905af158601d01573d60011458600c01573d6000803e3d621234565260ea61109c528051925060005b6040811015620014795760008282015260200162001460565b50505088888560405160240180856001600160a01b03168152602001846001600160a01b031681526020018060200180602001838103835285818151815260200191508051906020019080838360005b83811015620014e3578082015183820152602001620014c9565b50505050905090810190601f168015620015115780820380516001836020036101000a031916815260200191505b50838103825284818151815260200191508051906020019060200280838360005b838110156200154c57808201518382015260200162001532565b505050509050019650505050505050604051601f198183030181526040919091526331a22a9960e21b6020820180516001600160e01b03169091179052905060006200159a826001620019f9565b905060605a63996d79a5598160e01b8152602081600483336000905af158601d01573d60011458600c01573d6000803e3d621234565260ea61109c528051925060005b6040811015620015f657600082820152602001620015dd565b5050508b89898560405160240180866001600160a01b0316815260200185151581526020018060200180602001846001600160a01b03168152602001838103835286818151815260200191508051906020019080838360005b83811015620016695780820151838201526020016200164f565b50505050905090810190601f168015620016975780820380516001836020036101000a031916815260200191505b50838103825285818151815260200191508051906020019080838360005b83811015620016cf578082015183820152602001620016b5565b50505050905090810190601f168015620016fd5780820380516001836020036101000a031916815260200191505b50975050505050505050604051601f19818303018152604091909152630ccb30c760e01b6020820180516001600160e01b031690911790529050600062001746826002620019f9565b90508060cb8060018162001759620038ff565b018082620017666200394c565b50506000928352600019019160209150200160018162001785620038ff565b816001600160a01b0302191690836001600160a01b0316021790620017a96200394c565b5050506001600160a01b038116600090815260d060205260019060409020600181620017d4620038ff565b8160ff02191690831515021790620017eb6200394c565b5050506001600160a01b038316600090815260d16020526001906040902060018162001816620038ff565b8160ff021916908315150217906200182d6200394c565b50505060db6200183c620038ff565b6001600160a01b038216600090815260da602052604090208190620018606200394c565b50505062001875818860d3620010f9620038ff565b7f73a0638fe578fc759744633aa170a433061ca2cc1bb855d116c506e04a29901f818d8b8d8f5a620018a66200399b565b8d60d3620018b3620038ff565b60405180896001600160a01b0316815260200188151581526020018060200180602001876001600160a01b03168152602001868152602001858152602001848152602001838103835289818151815260200191508051906020019080838360005b838110156200192e57808201518382015260200162001914565b50505050905090810190601f1680156200195c5780820380516001836020036101000a031916815260200191505b50838103825288818151815260200191508051906020019080838360005b83811015620019945780820151838201526020016200197a565b50505050905090810190601f168015620019c25780820380516001836020036101000a031916815260200191505b509a505050505050505050505060405180910390a19b9a5050505050505050505050565b600060d6620019f4620038ff565b905090565b600062001a07838362002f50565b90505b92915050565b600060d9620019f4620038ff565b60da602052806000526040600020905062001124620038ff565b60d06020528060005260406000206000915062001a54620038ff565b906101000a900460ff1681565b600060dc620019f4620038ff565b6001600160a01b038116600090815260de6020526040812060009062001a94620038ff565b906101000a90046001600160a01b031690505b919050565b62001ab662002d7e565b6001600160a01b03166000606562001acd620038ff565b906101000a90046001600160a01b03166001600160a01b03161462001b325760405162461bcd60e51b815260206004820181905260248201526000805160206200448083398151915260448201526064016040518091039062001b2f6200383b565b50505b600080606562001b41620038ff565b906101000a90046001600160a01b03166001600160a01b03167f8be0079c531659141344cd1fd0a4f28419497f9722a3daafe3b4186f6b6457e060405160405180910390a36000606560018162001b97620038ff565b816001600160a01b0302191690836001600160a01b031602179062001bbb6200394c565b505050565b62001bca62002d7e565b6001600160a01b03166000606562001be1620038ff565b906101000a90046001600160a01b03166001600160a01b03161462001c465760405162461bcd60e51b815260206004820181905260248201526000805160206200448083398151915260448201526064016040518091039062001c436200383b565b50505b620010ff82826200310c565b62001c5c62002d7e565b6001600160a01b03166000606562001c73620038ff565b906101000a90046001600160a01b03166001600160a01b03161462001cd85760405162461bcd60e51b815260206004820181905260248201526000805160206200448083398151915260448201526064016040518091039062001cd56200383b565b50505b81609760018162001ce8620038ff565b816001600160a01b0302191690836001600160a01b031602179062001d0c6200394c565b50505080609860006101000a8162001d23620038ff565b816001600160a01b0302191690836001600160a01b031602179062001d476200394c565b5050505050565b600080606562001142620038ff565b60008060d262001d6c620038ff565b60d362001d78620038ff565b915091509091565b60cb818162001d8e620038ff565b811062001d9757fe5b906000526020600020016000915062001daf620038ff565b906101000a90046001600160a01b031681565b62001dcc62002d7e565b6001600160a01b03166000606562001de3620038ff565b906101000a90046001600160a01b03166001600160a01b03161462001e485760405162461bcd60e51b815260206004820181905260248201526000805160206200448083398151915260448201526064016040518091039062001e456200383b565b50505b6200138b81620031c0565b60008060ce62001e62620038ff565b60cf62001d78620038ff565b600060d8620019f4620038ff565b62001e8662002d7e565b6001600160a01b03166000606562001e9d620038ff565b906101000a90046001600160a01b03166001600160a01b03161462001f025760405162461bcd60e51b815260206004820181905260248201526000805160206200448083398151915260448201526064016040518091039062001eff6200383b565b50505b6200138b8162003237565b60d16020528060005260406000206000915062001a54620038ff565b60008060cd62001f38620038ff565b906101000a90046001600160a01b03166001600160a01b0316638b2f0f4f836040516001600160e01b031960e084901b1681526001600160a01b039091166004820152602401602060405180830381868062001f93620039e2565b15801562001fab5760008062001fa86200383b565b50505b505a62001fb762003a2f565b505050505015801562001fd9573d6000803e3d600062001fd66200383b565b50505b505050506040513d602081101562001ffb5760008062001ff86200383b565b50505b81019080805195945050505050565b6001600160a01b038116600090815260d0602052806040812060009062002030620038ff565b906101000a900460ff16151560011515146200209d5760405162461bcd60e51b815260206004820152601e60248201527f737570706c6965642061646472657373206973206e6f74206120706f6f6c00006044820152606401604051809103906200209a6200383b565b50505b6001600160a01b038316600090815260d460205260409020620020bf620038ff565b6001600160a01b038416600090815260d560205260409020620020e1620038ff565b91509150915091565b620020f462002d7e565b6001600160a01b0316600060656200210b620038ff565b906101000a90046001600160a01b03166001600160a01b031614620021705760405162461bcd60e51b81526020600482018190526024820152600080516020620044808339815191526044820152606401604051809103906200216d6200383b565b50505b808060dd6200217e6200394c565b50505050565b60d4602052806000526040600020905062001124620038ff565b60dd62001124620038ff565b600060cc620021b8620038ff565b906101000a90046001600160a01b03166001600160a01b03165a620021dc620038a8565b6001600160a01b0316146200222d5760405162461bcd60e51b81526020600482015260086024820152676f6e6c792064616f60c01b6044820152606401604051809103906200222a6200383b565b50505b6200223883620023d4565b156200228c5760405162461bcd60e51b8152602060048201526014602482015273617373657420616c72656164792065786973747360601b604482015260640160405180910390620022896200383b565b50505b6001600160a01b038316600090815260d760205260019060409020600181620022b4620038ff565b8160ff02191690831515021790620022cb6200394c565b50505060cd600090620022dd620038ff565b906101000a90046001600160a01b03166001600160a01b0316632c63812c8484846040516001600160e01b031960e086901b1681526001600160a01b03938416600482015260ff90921660248301529091166044820152606401600060405180830381600087806200234e620039e2565b1580156200236657600080620023636200383b565b50505b505a6200237262003b25565b50505050505015801562002395573d6000803e3d6000620023926200383b565b50505b50505050826001600160a01b03167fd63c302652b86334fe4eb891e7a01e61e836496485d9394f2c95b4222006ae5060405160405180910390a2505050565b6001600160a01b038116600090815260d760205260408120600090620023f9620038ff565b906101000a900460ff169050919050565b600060cc62002418620038ff565b906101000a90046001600160a01b03166001600160a01b03165a6200243c620038a8565b6001600160a01b0316146200248d5760405162461bcd60e51b81526020600482015260086024820152676f6e6c792064616f60c01b6044820152606401604051809103906200248a6200383b565b50505b6200249881620023d4565b620024ea5760405162461bcd60e51b8152602060048201526013602482015272185cdcd95d08191bd95cdb89dd08195e1a5cdd606a1b604482015260640160405180910390620024e76200383b565b50505b6001600160a01b038116600090815260d7602052604081206001816200250f620038ff565b8160ff02191690831515021790620025266200394c565b50505060cd60009062002538620038ff565b906101000a90046001600160a01b03166001600160a01b0316638c651f11826040516001600160e01b031960e084901b1681526001600160a01b0390911660048201526024016000604051808303816000878062002595620039e2565b158015620025ad57600080620025aa6200383b565b50505b505a620025b962003b25565b505050505050158015620025dc573d6000803e3d6000620025d96200383b565b50505b50505050806001600160a01b03167fe8b3c469b395bfd934168e4b7d14590c9cd1a6740533df170dbe3c219ff5a67460405160405180910390a250565b6001600062002627620038ff565b906101000a900460ff1680620026425750620026426200327e565b8062002662575060008062002656620038ff565b906101000a900460ff16155b620026aa5760405162461bcd60e51b815260040180806020018281038252602e815260200180620044a0602e913960400191505060405180910390620026a76200383b565b50505b6000600181620026b9620038ff565b906101000a900460ff16159050801562002728576001600061010081620026df620038ff565b8160ff02191690831515021790620026f66200394c565b50505060016000806101000a816200270d620038ff565b8160ff02191690831515021790620027246200394c565b5050505b620027348888620032f3565b6200273f85620031c0565b6200274f611388612710620032fd565b6200275d600a60646200310c565b6200276b6201518062003237565b620027796224ea00620020ea565b620027866103e862002972565b62002792600a62003370565b620027a66544484544474560d01b62002f1b565b60005b84518160ff1610156200291a57600160d76000878460ff1681518110620027cc57fe5b60200260200101516001600160a01b03166001600160a01b0316815260200190815260200160002060018162002801620038ff565b8160ff02191690831515021790620028186200394c565b505050866001600160a01b0316632c63812c868360ff16815181106200283a57fe5b6020026020010151868460ff16815181106200285257fe5b6020026020010151868560ff16815181106200286a57fe5b60200260200101516040516001600160e01b031960e086901b1681526001600160a01b03938416600482015260ff9092166024830152909116604482015260640160006040518083038160008780620028c2620039e2565b158015620028da57600080620028d76200383b565b50505b505a620028e662003b25565b50505050505015801562002909573d6000803e3d6000620029066200383b565b50505b505060019092019150620027a99050565b5080156200294e576000806101008162002933620038ff565b8160ff021916908315150217906200294a6200394c565b5050505b5050505050505050565b60d5602052806000526040600020905062001124620038ff565b6200297c62002d7e565b6001600160a01b03166000606562002993620038ff565b906101000a90046001600160a01b03166001600160a01b031614620029f85760405162461bcd60e51b8152602060048201819052602482015260008051602062004480833981519152604482015260640160405180910390620029f56200383b565b50505b808060dc6200217e6200394c565b600060dd620019f4620038ff565b60008160ff166001141562002a49576000609862002a31620038ff565b906101000a90046001600160a01b0316905062001aa7565b6000609762002a31620038ff565b62002a6162002d7e565b6001600160a01b03166000606562002a78620038ff565b906101000a90046001600160a01b03166001600160a01b03161462002add5760405162461bcd60e51b815260206004820181905260248201526000805160206200448083398151915260448201526064016040518091039062002ada6200383b565b50505b6200138b8162003370565b62002af262002d7e565b6001600160a01b03166000606562002b09620038ff565b906101000a90046001600160a01b03166001600160a01b03161462002b6e5760405162461bcd60e51b815260206004820181905260248201526000805160206200448083398151915260448201526064016040518091039062002b6b6200383b565b50505b6001600160a01b03811662002bc05760405162461bcd60e51b81526004018080602001828103825260268152602001806200445a602691396040019150506040518091039062002bbd6200383b565b50505b6001600160a01b0381166000606562002bd8620038ff565b906101000a90046001600160a01b03166001600160a01b03167f8be0079c531659141344cd1fd0a4f28419497f9722a3daafe3b4186f6b6457e060405160405180910390a380606560018162002c2d620038ff565b816001600160a01b0302191690836001600160a01b03160217906200217e6200394c565b60008282018381101562001a075760405162461bcd60e51b815260206004820152601b60248201527f536166654d6174683a206164646974696f6e206f766572666c6f77000000000060448201526064016040518091039062002cb36200383b565b50509392505050565b80821115801562002cd8575060d262002cd4620038ff565b8211155b62002d275760405162461bcd60e51b815260206004820152601060248201526f34b73b30b634b210333930b1ba34b7b760811b60448201526064016040518091039062002d246200383b565b50505b6001600160a01b038316600090815260d4602052829060409020819062002d4d6200394c565b5050506001600160a01b038316600090815260d5602052819060409020819062002d766200394c565b505050505050565b60005a620019f4620038a8565b6001600160a01b03841662002de25760405162461bcd60e51b815260206004820152600e60248201526d1d185c99d95d0b5a5b9d985b1a5960921b60448201526064016040518091039062002ddf6200383b565b50505b8162002e2e5760405162461bcd60e51b815260206004820152600c60248201526b19185d184b5a5b9d985b1a5960a21b60448201526064016040518091039062002e2b6200383b565b50505b606083838080601f01602080910402602001604051908101604052818152929190602084018383808284376000920182905250939450839250849150505160208401885a62002e7c62003bf3565b505050505080156001811462002e925762002ea9565b3d806000803e80600062002ea56200383b565b5050505b5050846001600160a01b03165a62002ec0620038a8565b6001600160a01b03167f78a9b536049c39a00adaf57016b1376c99dd48a0faf2cef23690232f21ce42cc60405160405180910390a36001600160a01b038516600090815260da60205282906040902081906200294e6200394c565b808060d96200217e6200394c565b6001600160a01b038216600090815260de60205281906040902060018162001d23620038ff565b60008062002f5d620033b7565b90507efffc2da0b561cae30d9826d37709e9421c4725faebc226cbbb7ef5fc5e7349816040516001600160a01b03909116815260200160405180910390a1806001600160a01b031663e74a474a5a63996d79a5598160e01b8152602081600483336000905af158601d01573d60011458600c01573d6000803e3d621234565260ea61109c528051925060005b6040811015620030025760008282015260200162002fe9565b50505086866040518463ffffffff1660e01b815260040180846001600160a01b03168152602001806020018360ff168152602001828103825284818151815260200191508051906020019080838360005b838110156200306d57808201518382015260200162003053565b50505050905090810190601f1680156200309b5780820380516001836020036101000a031916815260200191505b5094505050505060006040518083038160008780620030b9620039e2565b158015620030d157600080620030ce6200383b565b50505b505a620030dd62003b25565b50505050505015801562003100573d6000803e3d6000620030fd6200383b565b50505b50929695505050505050565b808211156200315f5760405162461bcd60e51b815260206004820152601060248201526f34b73b30b634b210333930b1ba34b7b760811b6044820152606401604051809103906200315c6200383b565b50505b818060ce6200316d6200394c565b5050508060cf81906200317f6200394c565b5050507fb10da2958bf5ec1bff3164ff753a09e0460ed44d3abf73e79b817b500ed0f2f1828260405191825260208201526040908101905180910390a15050565b8060cc600181620031d0620038ff565b816001600160a01b0302191690836001600160a01b0316021790620031f46200394c565b5050507ff1034ad6b4d45dc33a4142b9c51c2b7f89bf4a410696e426cc0f3224869e0aca816040516001600160a01b03909116815260200160405180910390a150565b808060d6620032456200394c565b5050507f20d916c976f3971e8200089411b0b712ef4612d98380b8ad2e3d8a8a376d85c78160405190815260200160405180910390a150565b6000805a63996d79a5598160e01b8152602081600483336000905af158601d01573d60011458600c01573d6000803e3d621234565260ea61109c528051925060005b6040811015620032d957600082820152602001620032c0565b5050509050600081620032eb620039e2565b159250505090565b62001cd86200341e565b80821115620033505760405162461bcd60e51b815260206004820152601060248201526f34b73b30b634b210333930b1ba34b7b760811b6044820152606401604051809103906200334d6200383b565b50505b818060d26200335e6200394c565b5050508060d3819062001d476200394c565b808060d86200337e6200394c565b5050507f0cd8fcb5e08d7632af461f0ad793e5c63dc0d7595c301f5880650175e37a87488160405190815260200160405180910390a150565b6000806060604051620033cd6020820162003c05565b601f1982820381018352601f9091011660405290508051602082016000620033f462003c13565b505091508162003403620039e2565b6200341857600080620034156200383b565b50505b50905090565b600160006200342c620038ff565b906101000a900460ff1680620034475750620034476200327e565b806200346757506000806200345b620038ff565b906101000a900460ff16155b620034af5760405162461bcd60e51b815260040180806020018281038252602e815260200180620044a0602e913960400191505060405180910390620034ac6200383b565b50505b6000600181620034be620038ff565b906101000a900460ff1615905080156200352d576001600061010081620034e4620038ff565b8160ff02191690831515021790620034fb6200394c565b50505060016000806101000a8162003512620038ff565b8160ff02191690831515021790620035296200394c565b5050505b6200353762003570565b6200354162003696565b80156200138b576000806101008162003559620038ff565b8160ff021916908315150217906200217e6200394c565b600160006200357e620038ff565b906101000a900460ff1680620035995750620035996200327e565b80620035b95750600080620035ad620038ff565b906101000a900460ff16155b620036015760405162461bcd60e51b815260040180806020018281038252602e815260200180620044a0602e913960400191505060405180910390620035fe6200383b565b50505b600060018162003610620038ff565b906101000a900460ff1615905080156200354157600160006101008162003636620038ff565b8160ff021916908315150217906200364d6200394c565b50505060016000806101000a8162003664620038ff565b8160ff021916908315150217906200367b6200394c565b50505080156200138b576000806101008162003559620038ff565b60016000620036a4620038ff565b906101000a900460ff1680620036bf5750620036bf6200327e565b80620036df5750600080620036d3620038ff565b906101000a900460ff16155b620037275760405162461bcd60e51b815260040180806020018281038252602e815260200180620044a0602e913960400191505060405180910390620037246200383b565b50505b600060018162003736620038ff565b906101000a900460ff161590508015620037a55760016000610100816200375c620038ff565b8160ff02191690831515021790620037736200394c565b50505060016000806101000a816200378a620038ff565b8160ff02191690831515021790620037a16200394c565b5050505b6000620037b162002d7e565b9050806065600181620037c3620038ff565b816001600160a01b0302191690836001600160a01b0316021790620037e76200394c565b5050506001600160a01b03811660007f8be0079c531659141344cd1fd0a4f28419497f9722a3daafe3b4186f6b6457e060405160405180910390a35080156200138b576000806101008162003559620038ff565b632a2a7adb598160e01b8152600481016020815285602082015260005b868110156200387557808601518282016040015260200162003858565b506020828760640184336000905af158601d01573d60011458600c01573d6000803e3d621234565260ea61109c52505050565b6373509064598160e01b8152602081600483336000905af158601d01573d60011458600c01573d6000803e3d621234565260ea61109c528051935060005b604081101562001bbb57600082820152602001620038e6565b6303daa959598160e01b8152836004820152602081602483336000905af158601d01573d60011458600c01573d6000803e3d621234565260ea61109c5280516000825293506020620038e6565b6322bd64c0598160e01b8152836004820152846024820152600081604483336000905af158601d01573d60011458600c01573d6000803e3d621234565260ea61109c52600081526020620038e6565b63bdbf8c36598160e01b8152602081600483336000905af158601d01573d60011458600c01573d6000803e3d621234565260ea61109c5280516000825293506020620038e6565b638435035b598160e01b8152836004820152602081602483336000905af158601d01573d60011458600c01573d6000803e3d621234565260ea61109c5280516000825293506020620038e6565b638540661f598160e01b815262003a63565b808083111562001a0a575090919050565b808083101562001a0a575090919050565b836004820152846024820152606060448201528660648201526084810160005b8881101562003a9d57808801518282015260200162003a83565b506060828960a40184336000905af158601d01573d60011458600c01573d6000803e3d621234565260ea61109c52815160408301513d6000853e8b8b82606087013350600060045af1505962003af48d3d62003a52565b8c0162003b02818762003a41565b5b8281101562003b19576000815260200162003b03565b50929c50505050505050565b6385979f76598160e01b8152836004820152846024820152606060448201528760648201526084810160005b8981101562003b6b57808901518282015260200162003b51565b506060828a60a40184336000905af158601d01573d60011458600c01573d6000803e3d621234565260ea61109c52815160408301513d6000853e8c8c82606087013350600060045af1505962003bc28e3d62003a52565b8d0162003bd0818762003a41565b5b8281101562003be7576000815260200162003bd1565b50929d50505050505050565b63ffe73914598160e01b815262003a63565b6107c18062003c9983390190565b6314aa2ff7598160e01b8152600481016020815286602082015260005b8781101562003c4d57808701518282016040015260200162003c30565b506020828860640184336000905af158601d01573d60011458600c01573d6000803e3d621234565260ea61109c528151965059825b8181101562001d47576000815260200162003c8256fe60806040523480156100195760008061001661001f565b50505b5061008a565b632a2a7adb598160e01b8152600481016020815285602082015260005b8681101561005757808601518282016040015260200161003c565b506020828760640184336000905af158601d01573d60011458600c01573d6000803e3d621234565260ea61109c52505050565b610728806100996000396000f3fe6080604052600436106100225760003560e01c8063e74a474a1461003957610031565b366100315761002f610117565b005b61002f610117565b61002f60048036036060811015610058576000806100556104ca565b50505b6001600160a01b03823516919081019060408101602082013564010000000081111561008c576000806100896104ca565b50505b8201836020820111156100a7576000806100a46104ca565b50505b803590602001918460018302840111640100000000831117156100d2576000806100cf6104ca565b50505b91908080601f01602080910402602001604051908101604052818152929190602084018383808284376000920191909152509295505050903560ff1691506101319050565b61011f61012f565b61012f61012a6102c3565b6103c4565b565b600061013b6102c3565b6001600160a01b03161461018e5760405162461bcd60e51b815260206004820152600d60248201526c496d706c206e6f74207a65726f60981b60448201526064016040518091039061018b6104ca565b50505b61019783610401565b6101a08161048e565b6000825111156102be5760006101b46102c3565b6001600160a01b0316836040518082805190602001908083835b602083106101ed5780518252601f1990920191602091820191016101ce565b6001836020036101000a038019825116818451168082178552505050505050905001915050600060405180830381855a610225610535565b50505050509150503d8060008114610259576040513d603f01601f191681016040523d815291503d6000602084013e61025e565b606091505b50509050806102bc5760405162461bcd60e51b815260206004820152601a60248201527f496d706c656d656e746174696f6e20696e6974206661696c65640000000000006044820152606401604051809103906102b96104ca565b50505b505b505050565b6000807f360894a13ba1a3210667c828492db98dca3e2076cc3735a920a3ca505d382bbc806102f0610622565b91506001600160a01b03821661030b576000925050506103c1565b816001600160a01b031663ecef89d561032261049d565b6040516001600160e01b031960e084901b16815260ff9091166004820152602401602060405180830381868061035661067d565b15801561036b576000806103686104ca565b50505b505a6103756106c9565b5050505050158015610394573d6000803e3d60006103916104ca565b50505b505050506040513d60208110156103b3576000806103b06104ca565b50505b810190808051955050505050505b90565b3660008037600080366000845a6103d9610535565b50505050503d6000803e8080156103ef573d6000f35b3d60006103fa6104ca565b5050505050565b61040a816104b5565b6104635760405162461bcd60e51b815260206004820181905260248201527f43616e6e6f742073657420696d706c656d656e746174696f6e20746f20454f416044820152606401604051809103906104606104ca565b50505b7f360894a13ba1a3210667c828492db98dca3e2076cc3735a920a3ca505d382bbc81816102bc6106da565b600160fc1b81816102bc6106da565b600080600160fc1b806104ae610622565b9250505090565b600080826104c161067d565b15159392505050565b632a2a7adb598160e01b8152600481016020815285602082015260005b868110156105025780860151828201604001526020016104e7565b506020828760640184336000905af158601d01573d60011458600c01573d6000803e3d621234565260ea61109c52505050565b63ffe73914598160e01b8152610568565b80808311156105525750815b92915050565b8080831015610552575090919050565b836004820152846024820152606060448201528660648201526084810160005b888110156105a0578088015182820152602001610588565b506060828960a40184336000905af158601d01573d60011458600c01573d6000803e3d621234565260ea61109c52815160408301513d6000853e8b8b82606087013350600060045af150596105f58d3d610558565b8c016106018187610546565b5b828110156106165760008152602001610602565b50929c50505050505050565b6303daa959598160e01b8152836004820152602081602483336000905af158601d01573d60011458600c01573d6000803e3d621234565260ea61109c528051935060005b60408110156102be57600082820152602001610666565b638435035b598160e01b8152836004820152602081602483336000905af158601d01573d60011458600c01573d6000803e3d621234565260ea61109c5280516000825293506020610666565b638540661f598160e01b8152610568565b6322bd64c0598160e01b8152836004820152846024820152600081604483336000905af158601d01573d60011458600c01573d6000803e3d621234565260ea61109c52600081526020610666564f776e61626c653a206e6577206f776e657220697320746865207a65726f20616464726573734f776e61626c653a2063616c6c6572206973206e6f7420746865206f776e6572436f6e747261637420696e7374616e63652068617320616c7265616479206265656e20696e697469616c697a6564",
  "linkReferences": {},
  "deployedLinkReferences": {}
}