{
  "_format": "hh-sol-artifact-1",
  "contractName": "PoolFactory-ovm",
  "sourceName": "contracts/PoolFactory.sol",
  "abi": [
    {
      "anonymous": false,
      "inputs": [
        {
          "indexed": false,
          "internalType": "address",
          "name": "dao",
          "type": "address"
        }
      ],
      "name": "DaoAddressSet",
      "type": "event"
    },
    {
      "anonymous": false,
      "inputs": [
        {
          "indexed": false,
          "internalType": "uint256",
          "name": "numerator",
          "type": "uint256"
        },
        {
          "indexed": false,
          "internalType": "uint256",
          "name": "denominator",
          "type": "uint256"
        }
      ],
      "name": "DaoFeeSet",
      "type": "event"
    },
    {
      "anonymous": false,
      "inputs": [
        {
          "indexed": false,
          "internalType": "uint256",
          "name": "cooldown",
          "type": "uint256"
        }
      ],
      "name": "ExitCooldownSet",
      "type": "event"
    },
    {
      "anonymous": false,
      "inputs": [
        {
          "indexed": false,
          "internalType": "uint256",
          "name": "numerator",
          "type": "uint256"
        },
        {
          "indexed": false,
          "internalType": "uint256",
          "name": "denominator",
          "type": "uint256"
        }
      ],
      "name": "ExitFeeSet",
      "type": "event"
    },
    {
      "anonymous": false,
      "inputs": [
        {
          "indexed": false,
          "internalType": "address",
          "name": "fundAddress",
          "type": "address"
        },
        {
          "indexed": false,
          "internalType": "bool",
          "name": "isPoolPrivate",
          "type": "bool"
        },
        {
          "indexed": false,
          "internalType": "string",
          "name": "fundName",
          "type": "string"
        },
        {
          "indexed": false,
          "internalType": "string",
          "name": "managerName",
          "type": "string"
        },
        {
          "indexed": false,
          "internalType": "address",
          "name": "manager",
          "type": "address"
        },
        {
          "indexed": false,
          "internalType": "uint256",
          "name": "time",
          "type": "uint256"
        },
        {
          "indexed": false,
          "internalType": "uint256",
          "name": "managerFeeNumerator",
          "type": "uint256"
        },
        {
          "indexed": false,
          "internalType": "uint256",
          "name": "managerFeeDenominator",
          "type": "uint256"
        }
      ],
      "name": "FundCreated",
      "type": "event"
    },
    {
      "anonymous": false,
      "inputs": [
        {
          "indexed": true,
          "internalType": "address",
          "name": "manager",
          "type": "address"
        },
        {
          "indexed": true,
          "internalType": "address",
          "name": "pool",
          "type": "address"
        }
      ],
      "name": "LogUpgrade",
      "type": "event"
    },
    {
      "anonymous": false,
      "inputs": [
        {
          "indexed": false,
          "internalType": "uint256",
          "name": "count",
          "type": "uint256"
        }
      ],
      "name": "MaximumSupportedAssetCountSet",
      "type": "event"
    },
    {
      "anonymous": false,
      "inputs": [
        {
          "indexed": true,
          "internalType": "address",
          "name": "previousOwner",
          "type": "address"
        },
        {
          "indexed": true,
          "internalType": "address",
          "name": "newOwner",
          "type": "address"
        }
      ],
      "name": "OwnershipTransferred",
      "type": "event"
    },
    {
      "anonymous": false,
      "inputs": [
        {
          "indexed": false,
          "internalType": "address",
          "name": "account",
          "type": "address"
        }
      ],
      "name": "Paused",
      "type": "event"
    },
    {
      "anonymous": false,
      "inputs": [
        {
          "indexed": false,
          "internalType": "address",
          "name": "proxy",
          "type": "address"
        }
      ],
      "name": "ProxyCreated",
      "type": "event"
    },
    {
      "anonymous": false,
      "inputs": [
        {
          "indexed": false,
          "internalType": "address",
          "name": "account",
          "type": "address"
        }
      ],
      "name": "Unpaused",
      "type": "event"
    },
    {
      "inputs": [
        {
          "internalType": "bool",
          "name": "_privatePool",
          "type": "bool"
        },
        {
          "internalType": "address",
          "name": "_manager",
          "type": "address"
        },
        {
          "internalType": "string",
          "name": "_managerName",
          "type": "string"
        },
        {
          "internalType": "string",
          "name": "_fundName",
          "type": "string"
        },
        {
          "internalType": "string",
          "name": "_fundSymbol",
          "type": "string"
        },
        {
          "internalType": "uint256",
          "name": "_managerFeeNumerator",
          "type": "uint256"
        },
        {
          "components": [
            {
              "internalType": "address",
              "name": "asset",
              "type": "address"
            },
            {
              "internalType": "bool",
              "name": "isDeposit",
              "type": "bool"
            }
          ],
          "internalType": "struct IPoolManagerLogic.Asset[]",
          "name": "_supportedAssets",
          "type": "tuple[]"
        }
      ],
      "name": "createFund",
      "outputs": [
        {
          "internalType": "address",
          "name": "",
          "type": "address"
        }
      ],
      "stateMutability": "nonpayable",
      "type": "function"
    },
    {
      "inputs": [
        {
          "internalType": "bytes",
          "name": "_data",
          "type": "bytes"
        },
        {
          "internalType": "uint8",
          "name": "_proxyType",
          "type": "uint8"
        }
      ],
      "name": "deploy",
      "outputs": [
        {
          "internalType": "address",
          "name": "",
          "type": "address"
        }
      ],
      "stateMutability": "nonpayable",
      "type": "function"
    },
    {
      "inputs": [
        {
          "internalType": "uint256",
          "name": "",
          "type": "uint256"
        }
      ],
      "name": "deployedFunds",
      "outputs": [
        {
          "internalType": "address",
          "name": "",
          "type": "address"
        }
      ],
      "stateMutability": "view",
      "type": "function"
    },
    {
      "inputs": [],
      "name": "deployedFundsLength",
      "outputs": [
        {
          "internalType": "uint256",
          "name": "",
          "type": "uint256"
        }
      ],
      "stateMutability": "view",
      "type": "function"
    },
    {
      "inputs": [],
      "name": "erc20Guard",
      "outputs": [
        {
          "internalType": "address",
          "name": "",
          "type": "address"
        }
      ],
      "stateMutability": "view",
      "type": "function"
    },
    {
      "inputs": [
        {
          "internalType": "address",
          "name": "asset",
          "type": "address"
        }
      ],
      "name": "getAssetPrice",
      "outputs": [
        {
          "internalType": "uint256",
          "name": "",
          "type": "uint256"
        }
      ],
      "stateMutability": "view",
      "type": "function"
    },
    {
      "inputs": [],
      "name": "getDaoAddress",
      "outputs": [
        {
          "internalType": "address",
          "name": "",
          "type": "address"
        }
      ],
      "stateMutability": "view",
      "type": "function"
    },
    {
      "inputs": [],
      "name": "getDaoFee",
      "outputs": [
        {
          "internalType": "uint256",
          "name": "",
          "type": "uint256"
        },
        {
          "internalType": "uint256",
          "name": "",
          "type": "uint256"
        }
      ],
      "stateMutability": "view",
      "type": "function"
    },
    {
      "inputs": [],
      "name": "getExitCooldown",
      "outputs": [
        {
          "internalType": "uint256",
          "name": "",
          "type": "uint256"
        }
      ],
      "stateMutability": "view",
      "type": "function"
    },
    {
      "inputs": [
        {
          "internalType": "address",
          "name": "extContract",
          "type": "address"
        }
      ],
      "name": "getGuard",
      "outputs": [
        {
          "internalType": "address",
          "name": "",
          "type": "address"
        }
      ],
      "stateMutability": "view",
      "type": "function"
    },
    {
      "inputs": [
        {
          "internalType": "uint8",
          "name": "_proxyType",
          "type": "uint8"
        }
      ],
      "name": "getLogic",
      "outputs": [
        {
          "internalType": "address",
          "name": "",
          "type": "address"
        }
      ],
      "stateMutability": "view",
      "type": "function"
    },
    {
      "inputs": [],
      "name": "getManagerFeeNumeratorChangeDelay",
      "outputs": [
        {
          "internalType": "uint256",
          "name": "",
          "type": "uint256"
        }
      ],
      "stateMutability": "view",
      "type": "function"
    },
    {
      "inputs": [],
      "name": "getMaximumManagerFee",
      "outputs": [
        {
          "internalType": "uint256",
          "name": "",
          "type": "uint256"
        },
        {
          "internalType": "uint256",
          "name": "",
          "type": "uint256"
        }
      ],
      "stateMutability": "view",
      "type": "function"
    },
    {
      "inputs": [],
      "name": "getMaximumManagerFeeNumeratorChange",
      "outputs": [
        {
          "internalType": "uint256",
          "name": "",
          "type": "uint256"
        }
      ],
      "stateMutability": "view",
      "type": "function"
    },
    {
      "inputs": [],
      "name": "getMaximumSupportedAssetCount",
      "outputs": [
        {
          "internalType": "uint256",
          "name": "",
          "type": "uint256"
        }
      ],
      "stateMutability": "view",
      "type": "function"
    },
    {
      "inputs": [
        {
          "internalType": "address",
          "name": "pool",
          "type": "address"
        }
      ],
      "name": "getPoolManagerFee",
      "outputs": [
        {
          "internalType": "uint256",
          "name": "",
          "type": "uint256"
        },
        {
          "internalType": "uint256",
          "name": "",
          "type": "uint256"
        }
      ],
      "stateMutability": "view",
      "type": "function"
    },
    {
      "inputs": [],
      "name": "getPriceConsumer",
      "outputs": [
        {
          "internalType": "address",
          "name": "",
          "type": "address"
        }
      ],
      "stateMutability": "view",
      "type": "function"
    },
    {
      "inputs": [],
      "name": "getTrackingCode",
      "outputs": [
        {
          "internalType": "bytes32",
          "name": "",
          "type": "bytes32"
        }
      ],
      "stateMutability": "view",
      "type": "function"
    },
    {
      "inputs": [
        {
          "internalType": "address",
          "name": "_poolLogic",
          "type": "address"
        },
        {
          "internalType": "address",
          "name": "_managerLogic",
          "type": "address"
        },
        {
          "internalType": "address",
          "name": "priceConsumer",
          "type": "address"
        },
        {
          "internalType": "address",
          "name": "daoAddress",
          "type": "address"
        }
      ],
      "name": "initialize",
      "outputs": [],
      "stateMutability": "nonpayable",
      "type": "function"
    },
    {
      "inputs": [],
      "name": "isPaused",
      "outputs": [
        {
          "internalType": "bool",
          "name": "",
          "type": "bool"
        }
      ],
      "stateMutability": "view",
      "type": "function"
    },
    {
      "inputs": [
        {
          "internalType": "address",
          "name": "",
          "type": "address"
        }
      ],
      "name": "isPool",
      "outputs": [
        {
          "internalType": "bool",
          "name": "",
          "type": "bool"
        }
      ],
      "stateMutability": "view",
      "type": "function"
    },
    {
      "inputs": [
        {
          "internalType": "address",
          "name": "",
          "type": "address"
        }
      ],
      "name": "isPoolManager",
      "outputs": [
        {
          "internalType": "bool",
          "name": "",
          "type": "bool"
        }
      ],
      "stateMutability": "view",
      "type": "function"
    },
    {
      "inputs": [
        {
          "internalType": "address",
          "name": "asset",
          "type": "address"
        }
      ],
      "name": "isValidAsset",
      "outputs": [
        {
          "internalType": "bool",
          "name": "",
          "type": "bool"
        }
      ],
      "stateMutability": "view",
      "type": "function"
    },
    {
      "inputs": [],
      "name": "managerFeeNumeratorChangeDelay",
      "outputs": [
        {
          "internalType": "uint256",
          "name": "",
          "type": "uint256"
        }
      ],
      "stateMutability": "view",
      "type": "function"
    },
    {
      "inputs": [],
      "name": "maximumManagerFeeNumeratorChange",
      "outputs": [
        {
          "internalType": "uint256",
          "name": "",
          "type": "uint256"
        }
      ],
      "stateMutability": "view",
      "type": "function"
    },
    {
      "inputs": [],
      "name": "owner",
      "outputs": [
        {
          "internalType": "address",
          "name": "",
          "type": "address"
        }
      ],
      "stateMutability": "view",
      "type": "function"
    },
    {
      "inputs": [],
      "name": "pause",
      "outputs": [],
      "stateMutability": "nonpayable",
      "type": "function"
    },
    {
      "inputs": [],
      "name": "paused",
      "outputs": [
        {
          "internalType": "bool",
          "name": "",
          "type": "bool"
        }
      ],
      "stateMutability": "view",
      "type": "function"
    },
    {
      "inputs": [
        {
          "internalType": "address",
          "name": "",
          "type": "address"
        }
      ],
      "name": "poolManagerFeeDenominator",
      "outputs": [
        {
          "internalType": "uint256",
          "name": "",
          "type": "uint256"
        }
      ],
      "stateMutability": "view",
      "type": "function"
    },
    {
      "inputs": [
        {
          "internalType": "address",
          "name": "",
          "type": "address"
        }
      ],
      "name": "poolManagerFeeNumerator",
      "outputs": [
        {
          "internalType": "uint256",
          "name": "",
          "type": "uint256"
        }
      ],
      "stateMutability": "view",
      "type": "function"
    },
    {
      "inputs": [],
      "name": "poolStorageVersion",
      "outputs": [
        {
          "internalType": "uint256",
          "name": "",
          "type": "uint256"
        }
      ],
      "stateMutability": "view",
      "type": "function"
    },
    {
      "inputs": [
        {
          "internalType": "address",
          "name": "",
          "type": "address"
        }
      ],
      "name": "poolVersion",
      "outputs": [
        {
          "internalType": "uint256",
          "name": "",
          "type": "uint256"
        }
      ],
      "stateMutability": "view",
      "type": "function"
    },
    {
      "inputs": [],
      "name": "renounceOwnership",
      "outputs": [],
      "stateMutability": "nonpayable",
      "type": "function"
    },
    {
      "inputs": [
        {
          "internalType": "address",
          "name": "daoAddress",
          "type": "address"
        }
      ],
      "name": "setDaoAddress",
      "outputs": [],
      "stateMutability": "nonpayable",
      "type": "function"
    },
    {
      "inputs": [
        {
          "internalType": "uint256",
          "name": "numerator",
          "type": "uint256"
        },
        {
          "internalType": "uint256",
          "name": "denominator",
          "type": "uint256"
        }
      ],
      "name": "setDaoFee",
      "outputs": [],
      "stateMutability": "nonpayable",
      "type": "function"
    },
    {
      "inputs": [
        {
          "internalType": "address",
          "name": "_guard",
          "type": "address"
        }
      ],
      "name": "setERC20Guard",
      "outputs": [],
      "stateMutability": "nonpayable",
      "type": "function"
    },
    {
      "inputs": [
        {
          "internalType": "uint256",
          "name": "cooldown",
          "type": "uint256"
        }
      ],
      "name": "setExitCooldown",
      "outputs": [],
      "stateMutability": "nonpayable",
      "type": "function"
    },
    {
      "inputs": [
        {
          "internalType": "address",
          "name": "extContract",
          "type": "address"
        },
        {
          "internalType": "address",
          "name": "guardAddress",
          "type": "address"
        }
      ],
      "name": "setGuard",
      "outputs": [],
      "stateMutability": "nonpayable",
      "type": "function"
    },
    {
      "inputs": [
        {
          "internalType": "address",
          "name": "_poolLogic",
          "type": "address"
        },
        {
          "internalType": "address",
          "name": "_poolManagerLogic",
          "type": "address"
        }
      ],
      "name": "setLogic",
      "outputs": [],
      "stateMutability": "nonpayable",
      "type": "function"
    },
    {
      "inputs": [
        {
          "internalType": "uint256",
          "name": "delay",
          "type": "uint256"
        }
      ],
      "name": "setManagerFeeNumeratorChangeDelay",
      "outputs": [],
      "stateMutability": "nonpayable",
      "type": "function"
    },
    {
      "inputs": [
        {
          "internalType": "uint256",
          "name": "amount",
          "type": "uint256"
        }
      ],
      "name": "setMaximumManagerFeeNumeratorChange",
      "outputs": [],
      "stateMutability": "nonpayable",
      "type": "function"
    },
    {
      "inputs": [
        {
          "internalType": "uint256",
          "name": "count",
          "type": "uint256"
        }
      ],
      "name": "setMaximumSupportedAssetCount",
      "outputs": [],
      "stateMutability": "nonpayable",
      "type": "function"
    },
    {
      "inputs": [
        {
          "internalType": "address",
          "name": "pool",
          "type": "address"
        },
        {
          "internalType": "uint256",
          "name": "numerator",
          "type": "uint256"
        }
      ],
      "name": "setPoolManagerFeeNumerator",
      "outputs": [],
      "stateMutability": "nonpayable",
      "type": "function"
    },
    {
      "inputs": [
        {
          "internalType": "address",
          "name": "priceConsumer",
          "type": "address"
        }
      ],
      "name": "setPriceConsumer",
      "outputs": [],
      "stateMutability": "nonpayable",
      "type": "function"
    },
    {
      "inputs": [
        {
          "internalType": "bytes32",
          "name": "code",
          "type": "bytes32"
        }
      ],
      "name": "setTrackingCode",
      "outputs": [],
      "stateMutability": "nonpayable",
      "type": "function"
    },
    {
      "inputs": [
        {
          "internalType": "address",
          "name": "newOwner",
          "type": "address"
        }
      ],
      "name": "transferOwnership",
      "outputs": [],
      "stateMutability": "nonpayable",
      "type": "function"
    },
    {
      "inputs": [],
      "name": "unpause",
      "outputs": [],
      "stateMutability": "nonpayable",
      "type": "function"
    },
    {
      "inputs": [
        {
          "internalType": "uint256",
          "name": "startIndex",
          "type": "uint256"
        },
        {
          "internalType": "uint256",
          "name": "endIndex",
          "type": "uint256"
        },
        {
          "internalType": "uint256",
          "name": "sourceVersion",
          "type": "uint256"
        },
        {
          "internalType": "uint256",
          "name": "targetVersion",
          "type": "uint256"
        },
        {
          "internalType": "bytes",
          "name": "data",
          "type": "bytes"
        }
      ],
      "name": "upgradePoolBatch",
      "outputs": [],
      "stateMutability": "nonpayable",
      "type": "function"
    }
  ],
  "bytecode": "0x60806040523480156200001c576000806200001962000023565b50505b5062000090565b632a2a7adb598160e01b8152600481016020815285602082015260005b868110156200005d57808601518282016040015260200162000040565b506020828760640184336000905af158600e01573d6000803e3d6000fd5b3d6001141558600a015760016000f35b505050565b61429c80620000a06000396000f3fe60806040523480156200001c576000806200001962002b29565b50505b5060043610620002eb5760003560e01c80638da5cb5b1162000194578063bee37e5211620000ec578063e99c0fa6116200009e578063e99c0fa61462000612578063ebee461d1462000629578063ecef89d51462000633578063eec16c44146200064a578063f2fde38b1462000661578063f8c8765e146200067857620002eb565b8063bee37e5214620005a2578063bfeaf71d14620005b9578063c8dc73a114620005c3578063cc435bf314620005da578063ce26e9ef14620005f1578063e60eb41214620005fb57620002eb565b8063aa7d664e1162000146578063aa7d664e1462000525578063b187bd26146200053c578063b193a5f41462000546578063b3596f07146200055d578063b7a545261462000574578063bcb01f44146200058b57620002eb565b80638da5cb5b14620004bf57806394d0d23b14620004c95780639a068bd614620004e35780639a3cac6a14620004fa5780639cada6e41462000511578063aa12ae4d146200051b57620002eb565b80635556ee551162000248578063771d1baf11620001fa578063771d1baf146200044f57806378a86e3a1462000466578063808ae5fb146200047d5780638456cb59146200049457806386e76f73146200049e5780638d554cad14620004b557620002eb565b80635556ee5514620003dd5780635b16ebb714620003f45780635c975abb146200041a5780635c9bfc2b14620004245780637027ea6c146200042e578063715018a6146200044557620002eb565b80631e8e8bca11620002a25780631e8e8bca146200037a578063227773ee14620003915780633f4ba83a14620003a85780634501b08814620003b257806345812ca514620003bc57806349f7c02d14620003d357620002eb565b8063046b72c414620002fb5780630bf99bd914620003145780630f6559c4146200033657806310bf69dc14620003405780631d68702d146200034a5780631e666d131462000363575b600080620002f862002b29565b50505b620003126200030c36600462003264565b6200068f565b005b6200031e62000808565b6040516200032d9190620037ac565b60405180910390f35b6200031e6200081d565b6200031e6200082d565b620003546200083a565b6040516200032d91906200360d565b6200031262000374366004620034c4565b6200085e565b620003126200038b366004620033e4565b620009d0565b62000312620003a2366004620031ad565b62000a4c565b6200031262000ac7565b6200031e62000b42565b62000354620003cd36600462003408565b62000b56565b6200031e62000b6d565b6200031e620003ee36600462003159565b62000b7c565b6200040b6200040536600462003159565b62000b97565b6040516200032d9190620037a1565b6200040b62000bc1565b6200031e62000bdf565b620003546200043f36600462003159565b62000bee565b6200031262000c66565b620003126200046036600462003497565b62000d62565b6200035462000477366004620032c7565b62000ddc565b620003126200048e366004620031ad565b6200119c565b6200031262001280565b62000312620004af36600462003159565b620012f9565b6200035462001372565b6200035462001394565b620004d3620013a3565b6040516200032d92919062003a60565b62000354620004f4366004620033e4565b620013c8565b620003126200050b36600462003159565b620013f7565b620004d362001470565b6200031e6200148d565b6200031262000536366004620033e4565b6200149c565b6200040b62001515565b6200040b6200055736600462003159565b62001521565b6200031e6200056e36600462003159565b6200153e565b620004d36200058536600462003159565b6200160a565b620003126200059c366004620033e4565b620016c4565b6200031e620005b336600462003159565b62001747565b6200031e62001762565b62000312620005d436600462003159565b6200176f565b6200040b620005eb36600462003159565b62001813565b62000354620018f1565b6200031e6200060c36600462003159565b62001900565b6200031262000623366004620033e4565b6200191b565b6200031e62001998565b620003546200064436600462003593565b620019a7565b620003126200065b366004620033e4565b620019d2565b620003126200067236600462003159565b62001a4b565b6200031262000689366004620031f5565b62001b63565b61010360005a6200069f62002b96565b6001600160a01b03166001600160a01b03168152602001908152602001600020600090620006cc62002bed565b906101000a900460ff1615156001151514620007105760405162461bcd60e51b8152600401620006fc90620037b5565b604051809103906200070d62002b29565b50505b6001600160a01b0382166000908152610102602052604090206000906200073662002bed565b906101000a900460ff16151560011515146200077a5760405162461bcd60e51b8152600401620007669062003a29565b604051809103906200077762002b29565b50505b620007b561010d6200078b62002bed565b6001600160a01b038416600090815261010660205260409020620007ae62002bed565b9062001d29565b811115620007eb5760405162461bcd60e51b8152600401620007d790620038fc565b60405180910390620007e862002b29565b50505b620008048282610105620007fe62002bed565b62001d6b565b5050565b600060fd806200081762002bed565b91505090565b61010c6200082a62002bed565b81565b61010d6200082a62002bed565b60008060fe6200084962002bed565b906101000a90046001600160a01b0316905090565b6200086862001e14565b6001600160a01b0316600060976200087f62002bed565b906101000a90046001600160a01b03166001600160a01b031614620008cc5760405162461bcd60e51b8152600401620008b890620039a6565b60405180910390620008c962002b29565b50505b848611158015620008ea575060fd80620008e562002bed565b905086105b801562000904575060fd80620008ff62002bed565b905085105b620009375760405162461bcd60e51b815260040162000923906200380f565b604051809103906200093462002b29565b50505b855b858111620009c757600060fd82816200095162002bed565b81106200095a57fe5b906000526020600020016000906200097162002bed565b6001600160a01b036101009290920a900416600081815261010b602052909150869060409020620009a162002bed565b14620009ae5750620009be565b620009bc8185858862001e21565b505b60010162000939565b50505050505050565b620009da62001e14565b6001600160a01b031660006097620009f162002bed565b906101000a90046001600160a01b03166001600160a01b03161462000a3e5760405162461bcd60e51b815260040162000a2a90620039a6565b6040518091039062000a3b62002b29565b50505b62000a498162001f80565b50565b600060fe62000a5a62002bed565b906101000a90046001600160a01b03166001600160a01b03165a62000a7e62002b96565b6001600160a01b03161462000abb5760405162461bcd60e51b815260040162000aa790620038b4565b6040518091039062000ab862002b29565b50505b62000804828262001f8f565b600060fe62000ad562002bed565b906101000a90046001600160a01b03166001600160a01b03165a62000af962002b96565b6001600160a01b03161462000b365760405162461bcd60e51b815260040162000b2290620038b4565b6040518091039062000b3362002b29565b50505b62000b4062001fb7565b565b600061010862000b5162002bed565b905090565b600062000b64838362002071565b90505b92915050565b600061010a62000b5162002bed565b61010b60205280600052604060002090506200082a62002bed565b6101026020528060005260406000206000915062000bb462002bed565b906101000a900460ff1681565b600080606562000bd062002bed565b906101000a900460ff16905090565b600061010d62000b5162002bed565b600062000bfb8262001813565b1562000c2857600061011062000c1062002bed565b906101000a90046001600160a01b0316905062000c61565b6001600160a01b038216600090815261010f6020526040902060009062000c4e62002bed565b906101000a90046001600160a01b031690505b919050565b62000c7062001e14565b6001600160a01b03166000609762000c8762002bed565b906101000a90046001600160a01b03166001600160a01b03161462000cd45760405162461bcd60e51b815260040162000cc090620039a6565b6040518091039062000cd162002b29565b50505b600080609762000ce362002bed565b906101000a90046001600160a01b03166001600160a01b03167f8be0079c531659141344cd1fd0a4f28419497f9722a3daafe3b4186f6b6457e060405160405180910390a36000609760018162000d3962002bed565b816001600160a01b0302191690836001600160a01b031602179062000d5d62002c3a565b505050565b62000d6c62001e14565b6001600160a01b03166000609762000d8362002bed565b906101000a90046001600160a01b03166001600160a01b03161462000dd05760405162461bcd60e51b815260040162000dbc90620039a6565b6040518091039062000dcd62002b29565b50505b620008048282620021ae565b600060605a63996d79a5598160e01b8152602081600483336000905af158600e01573d6000803e3d6000fd5b3d6001141558600a015760016000f35b8051925060005b604081101562000e385760008282015260200162000e1f565b50505088888560405160240162000e53949392919062003621565b604051601f19818303018152604091909152630a3df85f60e11b6020820180516001600160e01b031690911790529050600062000e9282600162000b56565b905060605a63996d79a5598160e01b8152602081600483336000905af158600e01573d6000803e3d6000fd5b3d6001141558600a015760016000f35b8051925060005b604081101562000eee5760008282015260200162000ed5565b5050508b89898560405160240162000f0b959493929190620036a5565b604051601f19818303018152604091909152630ccb30c760e01b6020820180516001600160e01b031690911790529050600062000f4a82600262000b56565b9050826001600160a01b0316638e10153d826040518263ffffffff1660e01b815260040162000f7a91906200360d565b6020604051808303816000878062000f9162002c89565b15801562000fa95760008062000fa662002b29565b50505b505a62000fb562002cd6565b50505050505015801562000fd8573d6000803e3d600062000fd562002b29565b50505b50505050604051601f3d908101601f1916820160405262000ffd91908101906200329d565b508060fd806001816200100f62002bed565b0180826200101c62002c3a565b5050600092835260001901916020915020016001816200103b62002bed565b816001600160a01b0302191690836001600160a01b03160217906200105f62002c3a565b5050506001600160a01b0381166000908152610102602052600190604090206001816200108b62002bed565b8160ff02191690831515021790620010a262002c3a565b5050506001600160a01b038316600090815261010360205260019060409020600181620010ce62002bed565b8160ff02191690831515021790620010e562002c3a565b50505061010c620010f562002bed565b6001600160a01b038216600090815261010b6020526040902081906200111a62002c3a565b505050620011308188610105620007fe62002bed565b7f73a0638fe578fc759744633aa170a433061ca2cc1bb855d116c506e04a29901f818d8b8d8f5a6200116162002dcc565b8d6101056200116f62002bed565b60405162001185989796959493929190620036fb565b60405180910390a19b9a5050505050505050505050565b620011a662001e14565b6001600160a01b031660006097620011bd62002bed565b906101000a90046001600160a01b03166001600160a01b0316146200120a5760405162461bcd60e51b8152600401620011f690620039a6565b604051809103906200120762002b29565b50505b8160c96001816200121a62002bed565b816001600160a01b0302191690836001600160a01b03160217906200123e62002c3a565b5050508060ca60006101000a816200125562002bed565b816001600160a01b0302191690836001600160a01b03160217906200127962002c3a565b5050505050565b600060fe6200128e62002bed565b906101000a90046001600160a01b03166001600160a01b03165a620012b262002b96565b6001600160a01b031614620012ef5760405162461bcd60e51b8152600401620012db90620038b4565b60405180910390620012ec62002b29565b50505b62000b4062002249565b6200130362001e14565b6001600160a01b0316600060976200131a62002bed565b906101000a90046001600160a01b03166001600160a01b031614620013675760405162461bcd60e51b81526004016200135390620039a6565b604051809103906200136462002b29565b50505b62000a4981620022ea565b60006101106200138162002bed565b906101000a90046001600160a01b031681565b60008060976200084962002bed565b600080610104620013b362002bed565b610105620013c062002bed565b915091509091565b60fd8181620013d662002bed565b8110620013df57fe5b90600052602060002001600091506200138162002bed565b6200140162001e14565b6001600160a01b0316600060976200141862002bed565b906101000a90046001600160a01b03166001600160a01b031614620014655760405162461bcd60e51b81526004016200145190620039a6565b604051809103906200146262002b29565b50505b62000a4981620022fa565b6000806101006200148062002bed565b610101620013c062002bed565b600061010962000b5162002bed565b620014a662001e14565b6001600160a01b031660006097620014bd62002bed565b906101000a90046001600160a01b03166001600160a01b0316146200150a5760405162461bcd60e51b8152600401620014f690620039a6565b604051809103906200150762002b29565b50505b62000a49816200236d565b600062000b5162000bc1565b6101036020528060005260406000206000915062000bb462002bed565b60008060ff6200154d62002bed565b906101000a90046001600160a01b03166001600160a01b0316638b2f0f4f836040518263ffffffff1660e01b81526004016200158a91906200360d565b60206040518083038186806200159f62002c89565b158015620015b757600080620015b462002b29565b50505b505a620015c362002e13565b5050505050158015620015e5573d6000803e3d6000620015e262002b29565b50505b50505050604051601f3d908101601f1916820160405262000b67919081019062003471565b6001600160a01b038116600090815261010260205280604081206000906200163162002bed565b906101000a900460ff1615156001151514620016755760405162461bcd60e51b8152600401620016619062003a29565b604051809103906200167262002b29565b50505b6001600160a01b0383166000908152610106602052604090206200169862002bed565b6001600160a01b038416600090815261010760205260409020620016bb62002bed565b91509150915091565b620016ce62001e14565b6001600160a01b031660006097620016e562002bed565b906101000a90046001600160a01b03166001600160a01b031614620017325760405162461bcd60e51b81526004016200171e90620039a6565b604051809103906200172f62002b29565b50505b808061010e6200174162002c3a565b50505050565b61010660205280600052604060002090506200082a62002bed565b61010e6200082a62002bed565b600060fe6200177d62002bed565b906101000a90046001600160a01b03166001600160a01b03165a620017a162002b96565b6001600160a01b031614620017de5760405162461bcd60e51b8152600401620017ca90620038b4565b60405180910390620017db62002b29565b50505b80610110600181620017ef62002bed565b816001600160a01b0302191690836001600160a01b03160217906200174162002c3a565b6000808060ff6200182362002bed565b906101000a90046001600160a01b03166001600160a01b03166329a42d56846040518263ffffffff1660e01b81526004016200186091906200360d565b60206040518083038186806200187562002c89565b1580156200188d576000806200188a62002b29565b50505b505a6200189962002e13565b5050505050158015620018bb573d6000803e3d6000620018b862002b29565b50505b50505050604051601f3d908101601f19168201604052620018e0919081019062003183565b6001600160a01b0316141592915050565b60008060ff6200084962002bed565b61010760205280600052604060002090506200082a62002bed565b6200192562001e14565b6001600160a01b0316600060976200193c62002bed565b906101000a90046001600160a01b03166001600160a01b031614620019895760405162461bcd60e51b81526004016200197590620039a6565b604051809103906200198662002b29565b50505b808061010d6200174162002c3a565b600061010e62000b5162002bed565b60008160ff1660011415620019c457600060ca62000c1062002bed565b600060c962000c1062002bed565b620019dc62001e14565b6001600160a01b031660006097620019f362002bed565b906101000a90046001600160a01b03166001600160a01b03161462001a405760405162461bcd60e51b815260040162001a2c90620039a6565b6040518091039062001a3d62002b29565b50505b62000a4981620023b0565b62001a5562001e14565b6001600160a01b03166000609762001a6c62002bed565b906101000a90046001600160a01b03166001600160a01b03161462001ab95760405162461bcd60e51b815260040162001aa590620039a6565b6040518091039062001ab662002b29565b50505b6001600160a01b03811662001af65760405162461bcd60e51b815260040162001ae29062003837565b6040518091039062001af362002b29565b50505b6001600160a01b0381166000609762001b0e62002bed565b906101000a90046001600160a01b03166001600160a01b03167f8be0079c531659141344cd1fd0a4f28419497f9722a3daafe3b4186f6b6457e060405160405180910390a3806097600181620017ef62002bed565b6001600062001b7162002bed565b906101000a900460ff168062001b8c575062001b8c620023f3565b8062001bac575060008062001ba062002bed565b906101000a900460ff16155b62001bdf5760405162461bcd60e51b815260040162001bcb90620039db565b6040518091039062001bdc62002b29565b50505b600060018162001bee62002bed565b906101000a900460ff16159050801562001c5d57600160006101008162001c1462002bed565b8160ff0219169083151502179062001c2b62002c3a565b50505060016000806101000a8162001c4262002bed565b8160ff0219169083151502179062001c5962002c3a565b5050505b62001c69858562002468565b62001c7362002472565b62001c7e83620022ea565b62001c8982620022fa565b62001c99611388612710620025af565b62001ca7600a6064620021ae565b62001cb5620151806200236d565b62001cc36224ea00620016c4565b62001cd06103e86200191b565b62001cdc600a620023b0565b62001cf06544484544474560d01b62001f80565b801562001279576000806101008162001d0862002bed565b8160ff0219169083151502179062001d1f62002c3a565b5050505050505050565b60008282018381101562000b645760405162461bcd60e51b815260040162001d51906200387d565b6040518091039062001d6262002b29565b50509392505050565b80821115801562001d88575061010462001d8462002bed565b8211155b62001dbb5760405162461bcd60e51b815260040162001da7906200397c565b6040518091039062001db862002b29565b50505b6001600160a01b0383166000908152610106602052829060409020819062001de262002c3a565b5050506001600160a01b0383166000908152610107602052819060409020819062001e0c62002c3a565b505050505050565b60005a62000b5162002b96565b6001600160a01b03841662001e5e5760405162461bcd60e51b815260040162001e4a9062003954565b6040518091039062001e5b62002b29565b50505b8162001e925760405162461bcd60e51b815260040162001e7e90620038d6565b6040518091039062001e8f62002b29565b50505b606083838080601f01602080910402602001604051908101604052818152929190602084018383808284376000920182905250939450839250849150505160208401885a62001ee062002ee2565b505050505080156001811462001ef65762001f0d565b3d806000803e80600062001f0962002b29565b5050505b5050846001600160a01b03165a62001f2462002b96565b6001600160a01b03167f78a9b536049c39a00adaf57016b1376c99dd48a0faf2cef23690232f21ce42cc60405160405180910390a36001600160a01b038516600090815261010b602052829060409020819062001d1f62002c3a565b808061010a6200174162002c3a565b6001600160a01b038216600090815261010f6020528190604090206001816200125562002bed565b6000606562001fc562002bed565b906101000a900460ff16620020025760405162461bcd60e51b815260040162001fee90620037e1565b6040518091039062001fff62002b29565b50505b600060656001816200201362002bed565b8160ff021916908315150217906200202a62002c3a565b5050507f5db9ee0a495bf2e6ff9c91a7834c1ba4fdd244a5e8aa4e537bd38aeae4b073aa6200205862001e14565b6040516200206791906200360d565b60405180910390a1565b6000806200207e62002608565b90507efffc2da0b561cae30d9826d37709e9421c4725faebc226cbbb7ef5fc5e734981604051620020b091906200360d565b60405180910390a1806001600160a01b031663e74a474a5a63996d79a5598160e01b8152602081600483336000905af158600e01573d6000803e3d6000fd5b3d6001141558600a015760016000f35b8051925060005b60408110156200211f5760008282015260200162002106565b50505086866040518463ffffffff1660e01b8152600401620021449392919062003768565b600060405180830381600087806200215b62002c89565b15801562002173576000806200217062002b29565b50505b505a6200217f62002cd6565b505050505050158015620021a2573d6000803e3d60006200219f62002b29565b50505b50929695505050505050565b80821115620021e55760405162461bcd60e51b8152600401620021d1906200397c565b60405180910390620021e262002b29565b50505b8180610100620021f462002c3a565b5050508061010181906200220762002c3a565b5050507fb10da2958bf5ec1bff3164ff753a09e0460ed44d3abf73e79b817b500ed0f2f182826040516200223d92919062003a60565b60405180910390a15050565b600060656200225762002bed565b906101000a900460ff1615620022955760405162461bcd60e51b815260040162002281906200392a565b604051809103906200229262002b29565b50505b600160658181620022a562002bed565b8160ff02191690831515021790620022bc62002c3a565b5050507f62e78cea01bee320cd4e420270b5ea74000d11b0c9f74754ebdbfc544b05a2586200205862001e14565b8060ff600181620017ef62002bed565b8060fe6001816200230a62002bed565b816001600160a01b0302191690836001600160a01b03160217906200232e62002c3a565b5050507ff1034ad6b4d45dc33a4142b9c51c2b7f89bf4a410696e426cc0f3224869e0aca816040516200236291906200360d565b60405180910390a150565b80806101086200237c62002c3a565b5050507f20d916c976f3971e8200089411b0b712ef4612d98380b8ad2e3d8a8a376d85c781604051620023629190620037ac565b8080610109620023bf62002c3a565b5050507f0cd8fcb5e08d7632af461f0ad793e5c63dc0d7595c301f5880650175e37a874881604051620023629190620037ac565b6000805a63996d79a5598160e01b8152602081600483336000905af158600e01573d6000803e3d6000fd5b3d6001141558600a015760016000f35b8051925060005b60408110156200244e5760008282015260200162002435565b50505090506000816200246062002c89565b159250505090565b6200120a6200266f565b600160006200248062002bed565b906101000a900460ff16806200249b57506200249b620023f3565b80620024bb5750600080620024af62002bed565b906101000a900460ff16155b620024ee5760405162461bcd60e51b8152600401620024da90620039db565b60405180910390620024eb62002b29565b50505b6000600181620024fd62002bed565b906101000a900460ff1615905080156200256c5760016000610100816200252362002bed565b8160ff021916908315150217906200253a62002c3a565b50505060016000806101000a816200255162002bed565b8160ff021916908315150217906200256862002c3a565b5050505b620025766200277d565b620025806200288e565b801562000a4957600080610100816200259862002bed565b8160ff021916908315150217906200174162002c3a565b80821115620025e65760405162461bcd60e51b8152600401620025d2906200397c565b60405180910390620025e362002b29565b50505b8180610104620025f562002c3a565b5050508061010581906200127962002c3a565b60008060606040516200261e6020820162002ef4565b601f1982820381018352601f90910116604052905080516020820160006200264562002f02565b50509150816200265462002c89565b62002669576000806200266662002b29565b50505b50905090565b600160006200267d62002bed565b906101000a900460ff168062002698575062002698620023f3565b80620026b85750600080620026ac62002bed565b906101000a900460ff16155b620026eb5760405162461bcd60e51b8152600401620026d790620039db565b60405180910390620026e862002b29565b50505b6000600181620026fa62002bed565b906101000a900460ff161590508015620027695760016000610100816200272062002bed565b8160ff021916908315150217906200273762002c3a565b50505060016000806101000a816200274e62002bed565b8160ff021916908315150217906200276562002c3a565b5050505b620027736200277d565b6200258062002999565b600160006200278b62002bed565b906101000a900460ff1680620027a65750620027a6620023f3565b80620027c65750600080620027ba62002bed565b906101000a900460ff16155b620027f95760405162461bcd60e51b8152600401620027e590620039db565b60405180910390620027f662002b29565b50505b60006001816200280862002bed565b906101000a900460ff161590508015620025805760016000610100816200282e62002bed565b8160ff021916908315150217906200284562002c3a565b50505060016000806101000a816200285c62002bed565b8160ff021916908315150217906200287362002c3a565b505050801562000a4957600080610100816200259862002bed565b600160006200289c62002bed565b906101000a900460ff1680620028b75750620028b7620023f3565b80620028d75750600080620028cb62002bed565b906101000a900460ff16155b6200290a5760405162461bcd60e51b8152600401620028f690620039db565b604051809103906200290762002b29565b50505b60006001816200291962002bed565b906101000a900460ff161590508015620029885760016000610100816200293f62002bed565b8160ff021916908315150217906200295662002c3a565b50505060016000806101000a816200296d62002bed565b8160ff021916908315150217906200298462002c3a565b5050505b600060656001816200285c62002bed565b60016000620029a762002bed565b906101000a900460ff1680620029c25750620029c2620023f3565b80620029e25750600080620029d662002bed565b906101000a900460ff16155b62002a155760405162461bcd60e51b815260040162002a0190620039db565b6040518091039062002a1262002b29565b50505b600060018162002a2462002bed565b906101000a900460ff16159050801562002a9357600160006101008162002a4a62002bed565b8160ff0219169083151502179062002a6162002c3a565b50505060016000806101000a8162002a7862002bed565b8160ff0219169083151502179062002a8f62002c3a565b5050505b600062002a9f62001e14565b905080609760018162002ab162002bed565b816001600160a01b0302191690836001600160a01b031602179062002ad562002c3a565b5050506001600160a01b03811660007f8be0079c531659141344cd1fd0a4f28419497f9722a3daafe3b4186f6b6457e060405160405180910390a350801562000a4957600080610100816200259862002bed565b632a2a7adb598160e01b8152600481016020815285602082015260005b8681101562002b6357808601518282016040015260200162002b46565b506020828760640184336000905af158600e01573d6000803e3d6000fd5b3d6001141558600a015760016000f35b505050565b6373509064598160e01b8152602081600483336000905af158600e01573d6000803e3d6000fd5b3d6001141558600a015760016000f35b8051935060005b604081101562000d5d5760008282015260200162002bd4565b6303daa959598160e01b8152836004820152602081602483336000905af158600e01573d6000803e3d6000fd5b3d6001141558600a015760016000f35b8051600082529350602062002bd4565b6322bd64c0598160e01b8152836004820152846024820152600081604483336000905af158600e01573d6000803e3d6000fd5b3d6001141558600a015760016000f35b60008152602062002bd4565b638435035b598160e01b8152836004820152602081602483336000905af158600e01573d6000803e3d6000fd5b3d6001141558600a015760016000f35b8051600082529350602062002bd4565b6385979f76598160e01b815262002d0a565b808083111562000b67575090919050565b808083101562000b67575090919050565b836004820152846024820152606060448201528760648201526084810160005b8981101562002d4457808901518282015260200162002d2a565b506060828a60a40184336000905af158600e01573d6000803e3d6000fd5b3d6001141558600a015760016000f35b815160408301513d6000853e8c8c82606087013350600060045af1505962002d9b8e3d62002cf9565b8d0162002da9818762002ce8565b5b8281101562002dc0576000815260200162002daa565b50929d50505050505050565b63bdbf8c36598160e01b8152602081600483336000905af158600e01573d6000803e3d6000fd5b3d6001141558600a015760016000f35b8051600082529350602062002bd4565b638540661f598160e01b81525b836004820152846024820152606060448201528660648201526084810160005b8881101562002e5a57808801518282015260200162002e40565b506060828960a40184336000905af158600e01573d6000803e3d6000fd5b3d6001141558600a015760016000f35b815160408301513d6000853e8b8b82606087013350600060045af1505962002eb18d3d62002cf9565b8c0162002ebf818762002ce8565b5b8281101562002ed6576000815260200162002ec0565b50929c50505050505050565b63ffe73914598160e01b815262002e20565b6107c18062003adb83390190565b6314aa2ff7598160e01b8152600481016020815286602082015260005b8781101562002f3c57808701518282016040015260200162002f1f565b506020828860640184336000905af158600e01573d6000803e3d6000fd5b3d6001141558600a015760016000f35b8151965059825b8181101562001279576000815260200162002f71565b803562000b678162003aa5565b600082601f83011262002fb057808162002fad62002b29565b50505b813567ffffffffffffffff81111562002fd257818262002fcf62002b29565b50505b602062002fe3818284020162003a6e565b82815292508083018482016040808502870184018810156200300f576000806200300c62002b29565b50505b60005b858110156200303a57620030278984620030e2565b8452928401929181019160010162003012565b50505050505092915050565b803562000b678162003ac3565b600082601f8301126200306f5780816200306c62002b29565b50505b813567ffffffffffffffff811115620030915781826200308e62002b29565b50505b620030a6601f8201601f191660200162003a6e565b9150808252836020828501011115620030c957600080620030c662002b29565b50505b8060208401602084013760009082016020015292915050565b600060408284031215620030ff578081620030fc62002b29565b50505b6200310b604062003a6e565b905081356200311a8162003aa5565b815260208201356200312c8162003ac3565b602082015292915050565b803560ff8116811462000b67576000806200315162002b29565b505092915050565b600060208284031215620031765780816200317362002b29565b50505b813562000b648162003aa5565b600060208284031215620031a05780816200319d62002b29565b50505b815162000b648162003aa5565b60008060408385031215620031cb578081620031c862002b29565b50505b8235620031d88162003aa5565b91506020830135620031ea8162003aa5565b809150509250929050565b60008060008060808587031215620032165781826200321362002b29565b50505b8435620032238162003aa5565b93506020850135620032358162003aa5565b92506040850135620032478162003aa5565b91506060850135620032598162003aa5565b939692955090935050565b60008060408385031215620032825781826200327f62002b29565b50505b82356200328f8162003aa5565b946020939093013593505050565b600060208284031215620032ba578081620032b762002b29565b50505b815162000b648162003ac3565b600080600080600080600060e0888a031215620032ed578283620032ea62002b29565b50505b620032f9898962003046565b96506200330a8960208a0162002f87565b9550604088013567ffffffffffffffff80821115620033325784856200332f62002b29565b50505b620033408b838c0162003053565b965060608a0135915080821115620033615784856200335e62002b29565b50505b6200336f8b838c0162003053565b955060808a0135915080821115620033905784856200338d62002b29565b50505b6200339e8b838c0162003053565b945060a08a0135935060c08a0135915080821115620033c6578283620033c362002b29565b50505b50620033d58a828b0162002f94565b91505092959891949750929550565b60006020828403121562003401578081620033fe62002b29565b50505b5035919050565b60008060408385031215620034265781826200342362002b29565b50505b823567ffffffffffffffff811115620034485782836200344562002b29565b50505b620034568582860162003053565b92505062003468846020850162003137565b90509250929050565b6000602082840312156200348e5780816200348b62002b29565b50505b81519392505050565b60008060408385031215620034b5578182620034b262002b29565b50505b50508035926020909101359150565b60008060008060008060a08789031215620034e8578384620034e562002b29565b50505b86359550602087013594506040870135935060608701359250608087013567ffffffffffffffff80821115620035275783846200352462002b29565b50505b818901915089601f830112620035465783846200354362002b29565b50505b813581811115620035605784856200355d62002b29565b50505b8a60208285010111156200357d5784856200357a62002b29565b50505b6020830194508093505050509295509295509295565b600060208284031215620035b0578081620035ad62002b29565b50505b62000b64838362003137565b60008151808452815b81811015620035e657602080828601015186830190910152602001620035c5565b81811115620035f85782602083870101525b50601f01601f19169290920160200192915050565b6001600160a01b0391909116815260200190565b600060018060a01b03808716835260208187168185015260406080818601526200364f6080860188620035bc565b85810360608701528087518083528885019285019150865b81811015620036945783518781511684528681015115158488015250928501929184019160010162003667565b50909b9a5050505050505050505050565b600060018060a01b038088168352861515602084015260a06040840152620036d160a0840187620035bc565b8381036060850152620036e58187620035bc565b9250508084166080840152509695505050505050565b6001600160a01b0389811682528815156020830152610100604083018190526000916200372b8483018b620035bc565b9150838203606085015262003741828a620035bc565b97166080840152505060a081019390935260c083019190915260e090910152949350505050565b6001600160a01b03841681526060602082018190526000906200378e90830185620035bc565b905060ff83166040830152949350505050565b901515815260200190565b90815260200190565b6020808252601290820152712737ba1030903837b7b61036b0b730b3b2b960711b604082015260600190565b60208082526014908201527314185d5cd8589b194e881b9bdd081c185d5cd95960621b604082015260600190565b6020808252600e908201526d696e76616c696420626f756e647360901b604082015260600190565b60208082526026908201527f4f776e61626c653a206e6577206f776e657220697320746865207a65726f206160408201526564647265737360d01b606082015260800190565b6020808252601b908201527f536166654d6174683a206164646974696f6e206f766572666c6f770000000000604082015260600190565b6020808252600890820152676f6e6c792064616f60c01b604082015260600190565b6020808252600c908201526b19185d184b5a5b9d985b1a5960a21b604082015260600190565b6020808252601490820152730dac2dcc2cecae440cccaca40e8dede40d0d2ced60631b604082015260600190565b60208082526010908201526f14185d5cd8589b194e881c185d5cd95960821b604082015260600190565b6020808252600e908201526d1d185c99d95d0b5a5b9d985b1a5960921b604082015260600190565b60208082526010908201526f34b73b30b634b210333930b1ba34b7b760811b604082015260600190565b6020808252818101527f4f776e61626c653a2063616c6c6572206973206e6f7420746865206f776e6572604082015260600190565b6020808252602e908201527f436f6e747261637420696e7374616e63652068617320616c726561647920626560408201526d195b881a5b9a5d1a585b1a5e995960921b606082015260800190565b6020808252601e908201527f737570706c6965642061646472657373206973206e6f74206120706f6f6c0000604082015260600190565b918252602082015260400190565b6000604051905081810181811067ffffffffffffffff8211171562003a9d5760008062003a9a62002b29565b50505b604052919050565b6001600160a01b038116811462000a495760008062000d5d62002b29565b801515811462000a495760008062000d5d62002b2956fe60806040523480156100195760008061001661001f565b50505b5061008a565b632a2a7adb598160e01b8152600481016020815285602082015260005b8681101561005757808601518282016040015260200161003c565b506020828760640184336000905af158600e01573d6000803e3d6000fd5b3d6001141558600a015760016000f35b505050565b610728806100996000396000f3fe6080604052600436106100225760003560e01c8063e74a474a1461003957610031565b366100315761002f610117565b005b61002f610117565b61002f60048036036060811015610058576000806100556104ca565b50505b6001600160a01b03823516919081019060408101602082013564010000000081111561008c576000806100896104ca565b50505b8201836020820111156100a7576000806100a46104ca565b50505b803590602001918460018302840111640100000000831117156100d2576000806100cf6104ca565b50505b91908080601f01602080910402602001604051908101604052818152929190602084018383808284376000920191909152509295505050903560ff1691506101319050565b61011f61012f565b61012f61012a6102c3565b6103c4565b565b600061013b6102c3565b6001600160a01b03161461018e5760405162461bcd60e51b815260206004820152600d60248201526c496d706c206e6f74207a65726f60981b60448201526064016040518091039061018b6104ca565b50505b61019783610401565b6101a08161048e565b6000825111156102be5760006101b46102c3565b6001600160a01b0316836040518082805190602001908083835b602083106101ed5780518252601f1990920191602091820191016101ce565b6001836020036101000a038019825116818451168082178552505050505050905001915050600060405180830381855a610225610535565b50505050509150503d8060008114610259576040513d603f01601f191681016040523d815291503d6000602084013e61025e565b606091505b50509050806102bc5760405162461bcd60e51b815260206004820152601a60248201527f496d706c656d656e746174696f6e20696e6974206661696c65640000000000006044820152606401604051809103906102b96104ca565b50505b505b505050565b6000807f360894a13ba1a3210667c828492db98dca3e2076cc3735a920a3ca505d382bbc806102f0610622565b91506001600160a01b03821661030b576000925050506103c1565b816001600160a01b031663ecef89d561032261049d565b6040516001600160e01b031960e084901b16815260ff9091166004820152602401602060405180830381868061035661067d565b15801561036b576000806103686104ca565b50505b505a6103756106c9565b5050505050158015610394573d6000803e3d60006103916104ca565b50505b505050506040513d60208110156103b3576000806103b06104ca565b50505b810190808051955050505050505b90565b3660008037600080366000845a6103d9610535565b50505050503d6000803e8080156103ef573d6000f35b3d60006103fa6104ca565b5050505050565b61040a816104b5565b6104635760405162461bcd60e51b815260206004820181905260248201527f43616e6e6f742073657420696d706c656d656e746174696f6e20746f20454f416044820152606401604051809103906104606104ca565b50505b7f360894a13ba1a3210667c828492db98dca3e2076cc3735a920a3ca505d382bbc81816102bc6106da565b600160fc1b81816102bc6106da565b600080600160fc1b806104ae610622565b9250505090565b600080826104c161067d565b15159392505050565b632a2a7adb598160e01b8152600481016020815285602082015260005b868110156105025780860151828201604001526020016104e7565b506020828760640184336000905af158600e01573d6000803e3d6000fd5b3d6001141558600a015760016000f35b505050565b63ffe73914598160e01b8152610568565b80808311156105525750815b92915050565b8080831015610552575090919050565b836004820152846024820152606060448201528660648201526084810160005b888110156105a0578088015182820152602001610588565b506060828960a40184336000905af158600e01573d6000803e3d6000fd5b3d6001141558600a015760016000f35b815160408301513d6000853e8b8b82606087013350600060045af150596105f58d3d610558565b8c016106018187610546565b5b828110156106165760008152602001610602565b50929c50505050505050565b6303daa959598160e01b8152836004820152602081602483336000905af158600e01573d6000803e3d6000fd5b3d6001141558600a015760016000f35b8051935060005b60408110156102be57600082820152602001610666565b638435035b598160e01b8152836004820152602081602483336000905af158600e01573d6000803e3d6000fd5b3d6001141558600a015760016000f35b80516000825293506020610666565b638540661f598160e01b8152610568565b6322bd64c0598160e01b8152836004820152846024820152600081604483336000905af158600e01573d6000803e3d6000fd5b3d6001141558600a015760016000f35b60008152602061066656",
  "deployedBytecode": "0x60806040523480156200001c576000806200001962002b29565b50505b5060043610620002eb5760003560e01c80638da5cb5b1162000194578063bee37e5211620000ec578063e99c0fa6116200009e578063e99c0fa61462000612578063ebee461d1462000629578063ecef89d51462000633578063eec16c44146200064a578063f2fde38b1462000661578063f8c8765e146200067857620002eb565b8063bee37e5214620005a2578063bfeaf71d14620005b9578063c8dc73a114620005c3578063cc435bf314620005da578063ce26e9ef14620005f1578063e60eb41214620005fb57620002eb565b8063aa7d664e1162000146578063aa7d664e1462000525578063b187bd26146200053c578063b193a5f41462000546578063b3596f07146200055d578063b7a545261462000574578063bcb01f44146200058b57620002eb565b80638da5cb5b14620004bf57806394d0d23b14620004c95780639a068bd614620004e35780639a3cac6a14620004fa5780639cada6e41462000511578063aa12ae4d146200051b57620002eb565b80635556ee551162000248578063771d1baf11620001fa578063771d1baf146200044f57806378a86e3a1462000466578063808ae5fb146200047d5780638456cb59146200049457806386e76f73146200049e5780638d554cad14620004b557620002eb565b80635556ee5514620003dd5780635b16ebb714620003f45780635c975abb146200041a5780635c9bfc2b14620004245780637027ea6c146200042e578063715018a6146200044557620002eb565b80631e8e8bca11620002a25780631e8e8bca146200037a578063227773ee14620003915780633f4ba83a14620003a85780634501b08814620003b257806345812ca514620003bc57806349f7c02d14620003d357620002eb565b8063046b72c414620002fb5780630bf99bd914620003145780630f6559c4146200033657806310bf69dc14620003405780631d68702d146200034a5780631e666d131462000363575b600080620002f862002b29565b50505b620003126200030c36600462003264565b6200068f565b005b6200031e62000808565b6040516200032d9190620037ac565b60405180910390f35b6200031e6200081d565b6200031e6200082d565b620003546200083a565b6040516200032d91906200360d565b6200031262000374366004620034c4565b6200085e565b620003126200038b366004620033e4565b620009d0565b62000312620003a2366004620031ad565b62000a4c565b6200031262000ac7565b6200031e62000b42565b62000354620003cd36600462003408565b62000b56565b6200031e62000b6d565b6200031e620003ee36600462003159565b62000b7c565b6200040b6200040536600462003159565b62000b97565b6040516200032d9190620037a1565b6200040b62000bc1565b6200031e62000bdf565b620003546200043f36600462003159565b62000bee565b6200031262000c66565b620003126200046036600462003497565b62000d62565b6200035462000477366004620032c7565b62000ddc565b620003126200048e366004620031ad565b6200119c565b6200031262001280565b62000312620004af36600462003159565b620012f9565b6200035462001372565b6200035462001394565b620004d3620013a3565b6040516200032d92919062003a60565b62000354620004f4366004620033e4565b620013c8565b620003126200050b36600462003159565b620013f7565b620004d362001470565b6200031e6200148d565b6200031262000536366004620033e4565b6200149c565b6200040b62001515565b6200040b6200055736600462003159565b62001521565b6200031e6200056e36600462003159565b6200153e565b620004d36200058536600462003159565b6200160a565b620003126200059c366004620033e4565b620016c4565b6200031e620005b336600462003159565b62001747565b6200031e62001762565b62000312620005d436600462003159565b6200176f565b6200040b620005eb36600462003159565b62001813565b62000354620018f1565b6200031e6200060c36600462003159565b62001900565b6200031262000623366004620033e4565b6200191b565b6200031e62001998565b620003546200064436600462003593565b620019a7565b620003126200065b366004620033e4565b620019d2565b620003126200067236600462003159565b62001a4b565b6200031262000689366004620031f5565b62001b63565b61010360005a6200069f62002b96565b6001600160a01b03166001600160a01b03168152602001908152602001600020600090620006cc62002bed565b906101000a900460ff1615156001151514620007105760405162461bcd60e51b8152600401620006fc90620037b5565b604051809103906200070d62002b29565b50505b6001600160a01b0382166000908152610102602052604090206000906200073662002bed565b906101000a900460ff16151560011515146200077a5760405162461bcd60e51b8152600401620007669062003a29565b604051809103906200077762002b29565b50505b620007b561010d6200078b62002bed565b6001600160a01b038416600090815261010660205260409020620007ae62002bed565b9062001d29565b811115620007eb5760405162461bcd60e51b8152600401620007d790620038fc565b60405180910390620007e862002b29565b50505b620008048282610105620007fe62002bed565b62001d6b565b5050565b600060fd806200081762002bed565b91505090565b61010c6200082a62002bed565b81565b61010d6200082a62002bed565b60008060fe6200084962002bed565b906101000a90046001600160a01b0316905090565b6200086862001e14565b6001600160a01b0316600060976200087f62002bed565b906101000a90046001600160a01b03166001600160a01b031614620008cc5760405162461bcd60e51b8152600401620008b890620039a6565b60405180910390620008c962002b29565b50505b848611158015620008ea575060fd80620008e562002bed565b905086105b801562000904575060fd80620008ff62002bed565b905085105b620009375760405162461bcd60e51b815260040162000923906200380f565b604051809103906200093462002b29565b50505b855b858111620009c757600060fd82816200095162002bed565b81106200095a57fe5b906000526020600020016000906200097162002bed565b6001600160a01b036101009290920a900416600081815261010b602052909150869060409020620009a162002bed565b14620009ae5750620009be565b620009bc8185858862001e21565b505b60010162000939565b50505050505050565b620009da62001e14565b6001600160a01b031660006097620009f162002bed565b906101000a90046001600160a01b03166001600160a01b03161462000a3e5760405162461bcd60e51b815260040162000a2a90620039a6565b6040518091039062000a3b62002b29565b50505b62000a498162001f80565b50565b600060fe62000a5a62002bed565b906101000a90046001600160a01b03166001600160a01b03165a62000a7e62002b96565b6001600160a01b03161462000abb5760405162461bcd60e51b815260040162000aa790620038b4565b6040518091039062000ab862002b29565b50505b62000804828262001f8f565b600060fe62000ad562002bed565b906101000a90046001600160a01b03166001600160a01b03165a62000af962002b96565b6001600160a01b03161462000b365760405162461bcd60e51b815260040162000b2290620038b4565b6040518091039062000b3362002b29565b50505b62000b4062001fb7565b565b600061010862000b5162002bed565b905090565b600062000b64838362002071565b90505b92915050565b600061010a62000b5162002bed565b61010b60205280600052604060002090506200082a62002bed565b6101026020528060005260406000206000915062000bb462002bed565b906101000a900460ff1681565b600080606562000bd062002bed565b906101000a900460ff16905090565b600061010d62000b5162002bed565b600062000bfb8262001813565b1562000c2857600061011062000c1062002bed565b906101000a90046001600160a01b0316905062000c61565b6001600160a01b038216600090815261010f6020526040902060009062000c4e62002bed565b906101000a90046001600160a01b031690505b919050565b62000c7062001e14565b6001600160a01b03166000609762000c8762002bed565b906101000a90046001600160a01b03166001600160a01b03161462000cd45760405162461bcd60e51b815260040162000cc090620039a6565b6040518091039062000cd162002b29565b50505b600080609762000ce362002bed565b906101000a90046001600160a01b03166001600160a01b03167f8be0079c531659141344cd1fd0a4f28419497f9722a3daafe3b4186f6b6457e060405160405180910390a36000609760018162000d3962002bed565b816001600160a01b0302191690836001600160a01b031602179062000d5d62002c3a565b505050565b62000d6c62001e14565b6001600160a01b03166000609762000d8362002bed565b906101000a90046001600160a01b03166001600160a01b03161462000dd05760405162461bcd60e51b815260040162000dbc90620039a6565b6040518091039062000dcd62002b29565b50505b620008048282620021ae565b600060605a63996d79a5598160e01b8152602081600483336000905af158601d01573d60011458600c01573d6000803e3d621234565260ea61109c528051925060005b604081101562000e385760008282015260200162000e1f565b50505088888560405160240162000e53949392919062003621565b604051601f19818303018152604091909152630a3df85f60e11b6020820180516001600160e01b031690911790529050600062000e9282600162000b56565b905060605a63996d79a5598160e01b8152602081600483336000905af158601d01573d60011458600c01573d6000803e3d621234565260ea61109c528051925060005b604081101562000eee5760008282015260200162000ed5565b5050508b89898560405160240162000f0b959493929190620036a5565b604051601f19818303018152604091909152630ccb30c760e01b6020820180516001600160e01b031690911790529050600062000f4a82600262000b56565b9050826001600160a01b0316638e10153d826040518263ffffffff1660e01b815260040162000f7a91906200360d565b6020604051808303816000878062000f9162002c89565b15801562000fa95760008062000fa662002b29565b50505b505a62000fb562002cd6565b50505050505015801562000fd8573d6000803e3d600062000fd562002b29565b50505b50505050604051601f3d908101601f1916820160405262000ffd91908101906200329d565b508060fd806001816200100f62002bed565b0180826200101c62002c3a565b5050600092835260001901916020915020016001816200103b62002bed565b816001600160a01b0302191690836001600160a01b03160217906200105f62002c3a565b5050506001600160a01b0381166000908152610102602052600190604090206001816200108b62002bed565b8160ff02191690831515021790620010a262002c3a565b5050506001600160a01b038316600090815261010360205260019060409020600181620010ce62002bed565b8160ff02191690831515021790620010e562002c3a565b50505061010c620010f562002bed565b6001600160a01b038216600090815261010b6020526040902081906200111a62002c3a565b505050620011308188610105620007fe62002bed565b7f73a0638fe578fc759744633aa170a433061ca2cc1bb855d116c506e04a29901f818d8b8d8f5a6200116162002dcc565b8d6101056200116f62002bed565b60405162001185989796959493929190620036fb565b60405180910390a19b9a5050505050505050505050565b620011a662001e14565b6001600160a01b031660006097620011bd62002bed565b906101000a90046001600160a01b03166001600160a01b0316146200120a5760405162461bcd60e51b8152600401620011f690620039a6565b604051809103906200120762002b29565b50505b8160c96001816200121a62002bed565b816001600160a01b0302191690836001600160a01b03160217906200123e62002c3a565b5050508060ca60006101000a816200125562002bed565b816001600160a01b0302191690836001600160a01b03160217906200127962002c3a565b5050505050565b600060fe6200128e62002bed565b906101000a90046001600160a01b03166001600160a01b03165a620012b262002b96565b6001600160a01b031614620012ef5760405162461bcd60e51b8152600401620012db90620038b4565b60405180910390620012ec62002b29565b50505b62000b4062002249565b6200130362001e14565b6001600160a01b0316600060976200131a62002bed565b906101000a90046001600160a01b03166001600160a01b031614620013675760405162461bcd60e51b81526004016200135390620039a6565b604051809103906200136462002b29565b50505b62000a4981620022ea565b60006101106200138162002bed565b906101000a90046001600160a01b031681565b60008060976200084962002bed565b600080610104620013b362002bed565b610105620013c062002bed565b915091509091565b60fd8181620013d662002bed565b8110620013df57fe5b90600052602060002001600091506200138162002bed565b6200140162001e14565b6001600160a01b0316600060976200141862002bed565b906101000a90046001600160a01b03166001600160a01b031614620014655760405162461bcd60e51b81526004016200145190620039a6565b604051809103906200146262002b29565b50505b62000a4981620022fa565b6000806101006200148062002bed565b610101620013c062002bed565b600061010962000b5162002bed565b620014a662001e14565b6001600160a01b031660006097620014bd62002bed565b906101000a90046001600160a01b03166001600160a01b0316146200150a5760405162461bcd60e51b8152600401620014f690620039a6565b604051809103906200150762002b29565b50505b62000a49816200236d565b600062000b5162000bc1565b6101036020528060005260406000206000915062000bb462002bed565b60008060ff6200154d62002bed565b906101000a90046001600160a01b03166001600160a01b0316638b2f0f4f836040518263ffffffff1660e01b81526004016200158a91906200360d565b60206040518083038186806200159f62002c89565b158015620015b757600080620015b462002b29565b50505b505a620015c362002e13565b5050505050158015620015e5573d6000803e3d6000620015e262002b29565b50505b50505050604051601f3d908101601f1916820160405262000b67919081019062003471565b6001600160a01b038116600090815261010260205280604081206000906200163162002bed565b906101000a900460ff1615156001151514620016755760405162461bcd60e51b8152600401620016619062003a29565b604051809103906200167262002b29565b50505b6001600160a01b0383166000908152610106602052604090206200169862002bed565b6001600160a01b038416600090815261010760205260409020620016bb62002bed565b91509150915091565b620016ce62001e14565b6001600160a01b031660006097620016e562002bed565b906101000a90046001600160a01b03166001600160a01b031614620017325760405162461bcd60e51b81526004016200171e90620039a6565b604051809103906200172f62002b29565b50505b808061010e6200174162002c3a565b50505050565b61010660205280600052604060002090506200082a62002bed565b61010e6200082a62002bed565b600060fe6200177d62002bed565b906101000a90046001600160a01b03166001600160a01b03165a620017a162002b96565b6001600160a01b031614620017de5760405162461bcd60e51b8152600401620017ca90620038b4565b60405180910390620017db62002b29565b50505b80610110600181620017ef62002bed565b816001600160a01b0302191690836001600160a01b03160217906200174162002c3a565b6000808060ff6200182362002bed565b906101000a90046001600160a01b03166001600160a01b03166329a42d56846040518263ffffffff1660e01b81526004016200186091906200360d565b60206040518083038186806200187562002c89565b1580156200188d576000806200188a62002b29565b50505b505a6200189962002e13565b5050505050158015620018bb573d6000803e3d6000620018b862002b29565b50505b50505050604051601f3d908101601f19168201604052620018e0919081019062003183565b6001600160a01b0316141592915050565b60008060ff6200084962002bed565b61010760205280600052604060002090506200082a62002bed565b6200192562001e14565b6001600160a01b0316600060976200193c62002bed565b906101000a90046001600160a01b03166001600160a01b031614620019895760405162461bcd60e51b81526004016200197590620039a6565b604051809103906200198662002b29565b50505b808061010d6200174162002c3a565b600061010e62000b5162002bed565b60008160ff1660011415620019c457600060ca62000c1062002bed565b600060c962000c1062002bed565b620019dc62001e14565b6001600160a01b031660006097620019f362002bed565b906101000a90046001600160a01b03166001600160a01b03161462001a405760405162461bcd60e51b815260040162001a2c90620039a6565b6040518091039062001a3d62002b29565b50505b62000a4981620023b0565b62001a5562001e14565b6001600160a01b03166000609762001a6c62002bed565b906101000a90046001600160a01b03166001600160a01b03161462001ab95760405162461bcd60e51b815260040162001aa590620039a6565b6040518091039062001ab662002b29565b50505b6001600160a01b03811662001af65760405162461bcd60e51b815260040162001ae29062003837565b6040518091039062001af362002b29565b50505b6001600160a01b0381166000609762001b0e62002bed565b906101000a90046001600160a01b03166001600160a01b03167f8be0079c531659141344cd1fd0a4f28419497f9722a3daafe3b4186f6b6457e060405160405180910390a3806097600181620017ef62002bed565b6001600062001b7162002bed565b906101000a900460ff168062001b8c575062001b8c620023f3565b8062001bac575060008062001ba062002bed565b906101000a900460ff16155b62001bdf5760405162461bcd60e51b815260040162001bcb90620039db565b6040518091039062001bdc62002b29565b50505b600060018162001bee62002bed565b906101000a900460ff16159050801562001c5d57600160006101008162001c1462002bed565b8160ff0219169083151502179062001c2b62002c3a565b50505060016000806101000a8162001c4262002bed565b8160ff0219169083151502179062001c5962002c3a565b5050505b62001c69858562002468565b62001c7362002472565b62001c7e83620022ea565b62001c8982620022fa565b62001c99611388612710620025af565b62001ca7600a6064620021ae565b62001cb5620151806200236d565b62001cc36224ea00620016c4565b62001cd06103e86200191b565b62001cdc600a620023b0565b62001cf06544484544474560d01b62001f80565b801562001279576000806101008162001d0862002bed565b8160ff0219169083151502179062001d1f62002c3a565b5050505050505050565b60008282018381101562000b645760405162461bcd60e51b815260040162001d51906200387d565b6040518091039062001d6262002b29565b50509392505050565b80821115801562001d88575061010462001d8462002bed565b8211155b62001dbb5760405162461bcd60e51b815260040162001da7906200397c565b6040518091039062001db862002b29565b50505b6001600160a01b0383166000908152610106602052829060409020819062001de262002c3a565b5050506001600160a01b0383166000908152610107602052819060409020819062001e0c62002c3a565b505050505050565b60005a62000b5162002b96565b6001600160a01b03841662001e5e5760405162461bcd60e51b815260040162001e4a9062003954565b6040518091039062001e5b62002b29565b50505b8162001e925760405162461bcd60e51b815260040162001e7e90620038d6565b6040518091039062001e8f62002b29565b50505b606083838080601f01602080910402602001604051908101604052818152929190602084018383808284376000920182905250939450839250849150505160208401885a62001ee062002ee2565b505050505080156001811462001ef65762001f0d565b3d806000803e80600062001f0962002b29565b5050505b5050846001600160a01b03165a62001f2462002b96565b6001600160a01b03167f78a9b536049c39a00adaf57016b1376c99dd48a0faf2cef23690232f21ce42cc60405160405180910390a36001600160a01b038516600090815261010b602052829060409020819062001d1f62002c3a565b808061010a6200174162002c3a565b6001600160a01b038216600090815261010f6020528190604090206001816200125562002bed565b6000606562001fc562002bed565b906101000a900460ff16620020025760405162461bcd60e51b815260040162001fee90620037e1565b6040518091039062001fff62002b29565b50505b600060656001816200201362002bed565b8160ff021916908315150217906200202a62002c3a565b5050507f5db9ee0a495bf2e6ff9c91a7834c1ba4fdd244a5e8aa4e537bd38aeae4b073aa6200205862001e14565b6040516200206791906200360d565b60405180910390a1565b6000806200207e62002608565b90507efffc2da0b561cae30d9826d37709e9421c4725faebc226cbbb7ef5fc5e734981604051620020b091906200360d565b60405180910390a1806001600160a01b031663e74a474a5a63996d79a5598160e01b8152602081600483336000905af158601d01573d60011458600c01573d6000803e3d621234565260ea61109c528051925060005b60408110156200211f5760008282015260200162002106565b50505086866040518463ffffffff1660e01b8152600401620021449392919062003768565b600060405180830381600087806200215b62002c89565b15801562002173576000806200217062002b29565b50505b505a6200217f62002cd6565b505050505050158015620021a2573d6000803e3d60006200219f62002b29565b50505b50929695505050505050565b80821115620021e55760405162461bcd60e51b8152600401620021d1906200397c565b60405180910390620021e262002b29565b50505b8180610100620021f462002c3a565b5050508061010181906200220762002c3a565b5050507fb10da2958bf5ec1bff3164ff753a09e0460ed44d3abf73e79b817b500ed0f2f182826040516200223d92919062003a60565b60405180910390a15050565b600060656200225762002bed565b906101000a900460ff1615620022955760405162461bcd60e51b815260040162002281906200392a565b604051809103906200229262002b29565b50505b600160658181620022a562002bed565b8160ff02191690831515021790620022bc62002c3a565b5050507f62e78cea01bee320cd4e420270b5ea74000d11b0c9f74754ebdbfc544b05a2586200205862001e14565b8060ff600181620017ef62002bed565b8060fe6001816200230a62002bed565b816001600160a01b0302191690836001600160a01b03160217906200232e62002c3a565b5050507ff1034ad6b4d45dc33a4142b9c51c2b7f89bf4a410696e426cc0f3224869e0aca816040516200236291906200360d565b60405180910390a150565b80806101086200237c62002c3a565b5050507f20d916c976f3971e8200089411b0b712ef4612d98380b8ad2e3d8a8a376d85c781604051620023629190620037ac565b8080610109620023bf62002c3a565b5050507f0cd8fcb5e08d7632af461f0ad793e5c63dc0d7595c301f5880650175e37a874881604051620023629190620037ac565b6000805a63996d79a5598160e01b8152602081600483336000905af158601d01573d60011458600c01573d6000803e3d621234565260ea61109c528051925060005b60408110156200244e5760008282015260200162002435565b50505090506000816200246062002c89565b159250505090565b6200120a6200266f565b600160006200248062002bed565b906101000a900460ff16806200249b57506200249b620023f3565b80620024bb5750600080620024af62002bed565b906101000a900460ff16155b620024ee5760405162461bcd60e51b8152600401620024da90620039db565b60405180910390620024eb62002b29565b50505b6000600181620024fd62002bed565b906101000a900460ff1615905080156200256c5760016000610100816200252362002bed565b8160ff021916908315150217906200253a62002c3a565b50505060016000806101000a816200255162002bed565b8160ff021916908315150217906200256862002c3a565b5050505b620025766200277d565b620025806200288e565b801562000a4957600080610100816200259862002bed565b8160ff021916908315150217906200174162002c3a565b80821115620025e65760405162461bcd60e51b8152600401620025d2906200397c565b60405180910390620025e362002b29565b50505b8180610104620025f562002c3a565b5050508061010581906200127962002c3a565b60008060606040516200261e6020820162002ef4565b601f1982820381018352601f90910116604052905080516020820160006200264562002f02565b50509150816200265462002c89565b62002669576000806200266662002b29565b50505b50905090565b600160006200267d62002bed565b906101000a900460ff168062002698575062002698620023f3565b80620026b85750600080620026ac62002bed565b906101000a900460ff16155b620026eb5760405162461bcd60e51b8152600401620026d790620039db565b60405180910390620026e862002b29565b50505b6000600181620026fa62002bed565b906101000a900460ff161590508015620027695760016000610100816200272062002bed565b8160ff021916908315150217906200273762002c3a565b50505060016000806101000a816200274e62002bed565b8160ff021916908315150217906200276562002c3a565b5050505b620027736200277d565b6200258062002999565b600160006200278b62002bed565b906101000a900460ff1680620027a65750620027a6620023f3565b80620027c65750600080620027ba62002bed565b906101000a900460ff16155b620027f95760405162461bcd60e51b8152600401620027e590620039db565b60405180910390620027f662002b29565b50505b60006001816200280862002bed565b906101000a900460ff161590508015620025805760016000610100816200282e62002bed565b8160ff021916908315150217906200284562002c3a565b50505060016000806101000a816200285c62002bed565b8160ff021916908315150217906200287362002c3a565b505050801562000a4957600080610100816200259862002bed565b600160006200289c62002bed565b906101000a900460ff1680620028b75750620028b7620023f3565b80620028d75750600080620028cb62002bed565b906101000a900460ff16155b6200290a5760405162461bcd60e51b8152600401620028f690620039db565b604051809103906200290762002b29565b50505b60006001816200291962002bed565b906101000a900460ff161590508015620029885760016000610100816200293f62002bed565b8160ff021916908315150217906200295662002c3a565b50505060016000806101000a816200296d62002bed565b8160ff021916908315150217906200298462002c3a565b5050505b600060656001816200285c62002bed565b60016000620029a762002bed565b906101000a900460ff1680620029c25750620029c2620023f3565b80620029e25750600080620029d662002bed565b906101000a900460ff16155b62002a155760405162461bcd60e51b815260040162002a0190620039db565b6040518091039062002a1262002b29565b50505b600060018162002a2462002bed565b906101000a900460ff16159050801562002a9357600160006101008162002a4a62002bed565b8160ff0219169083151502179062002a6162002c3a565b50505060016000806101000a8162002a7862002bed565b8160ff0219169083151502179062002a8f62002c3a565b5050505b600062002a9f62001e14565b905080609760018162002ab162002bed565b816001600160a01b0302191690836001600160a01b031602179062002ad562002c3a565b5050506001600160a01b03811660007f8be0079c531659141344cd1fd0a4f28419497f9722a3daafe3b4186f6b6457e060405160405180910390a350801562000a4957600080610100816200259862002bed565b632a2a7adb598160e01b8152600481016020815285602082015260005b8681101562002b6357808601518282016040015260200162002b46565b506020828760640184336000905af158601d01573d60011458600c01573d6000803e3d621234565260ea61109c52505050565b6373509064598160e01b8152602081600483336000905af158601d01573d60011458600c01573d6000803e3d621234565260ea61109c528051935060005b604081101562000d5d5760008282015260200162002bd4565b6303daa959598160e01b8152836004820152602081602483336000905af158601d01573d60011458600c01573d6000803e3d621234565260ea61109c528051600082529350602062002bd4565b6322bd64c0598160e01b8152836004820152846024820152600081604483336000905af158601d01573d60011458600c01573d6000803e3d621234565260ea61109c5260008152602062002bd4565b638435035b598160e01b8152836004820152602081602483336000905af158601d01573d60011458600c01573d6000803e3d621234565260ea61109c528051600082529350602062002bd4565b6385979f76598160e01b815262002d0a565b808083111562000b67575090919050565b808083101562000b67575090919050565b836004820152846024820152606060448201528760648201526084810160005b8981101562002d4457808901518282015260200162002d2a565b506060828a60a40184336000905af158601d01573d60011458600c01573d6000803e3d621234565260ea61109c52815160408301513d6000853e8c8c82606087013350600060045af1505962002d9b8e3d62002cf9565b8d0162002da9818762002ce8565b5b8281101562002dc0576000815260200162002daa565b50929d50505050505050565b63bdbf8c36598160e01b8152602081600483336000905af158601d01573d60011458600c01573d6000803e3d621234565260ea61109c528051600082529350602062002bd4565b638540661f598160e01b81525b836004820152846024820152606060448201528660648201526084810160005b8881101562002e5a57808801518282015260200162002e40565b506060828960a40184336000905af158601d01573d60011458600c01573d6000803e3d621234565260ea61109c52815160408301513d6000853e8b8b82606087013350600060045af1505962002eb18d3d62002cf9565b8c0162002ebf818762002ce8565b5b8281101562002ed6576000815260200162002ec0565b50929c50505050505050565b63ffe73914598160e01b815262002e20565b6107c18062003adb83390190565b6314aa2ff7598160e01b8152600481016020815286602082015260005b8781101562002f3c57808701518282016040015260200162002f1f565b506020828860640184336000905af158601d01573d60011458600c01573d6000803e3d621234565260ea61109c528151965059825b8181101562001279576000815260200162002f71565b803562000b678162003aa5565b600082601f83011262002fb057808162002fad62002b29565b50505b813567ffffffffffffffff81111562002fd257818262002fcf62002b29565b50505b602062002fe3818284020162003a6e565b82815292508083018482016040808502870184018810156200300f576000806200300c62002b29565b50505b60005b858110156200303a57620030278984620030e2565b8452928401929181019160010162003012565b50505050505092915050565b803562000b678162003ac3565b600082601f8301126200306f5780816200306c62002b29565b50505b813567ffffffffffffffff811115620030915781826200308e62002b29565b50505b620030a6601f8201601f191660200162003a6e565b9150808252836020828501011115620030c957600080620030c662002b29565b50505b8060208401602084013760009082016020015292915050565b600060408284031215620030ff578081620030fc62002b29565b50505b6200310b604062003a6e565b905081356200311a8162003aa5565b815260208201356200312c8162003ac3565b602082015292915050565b803560ff8116811462000b67576000806200315162002b29565b505092915050565b600060208284031215620031765780816200317362002b29565b50505b813562000b648162003aa5565b600060208284031215620031a05780816200319d62002b29565b50505b815162000b648162003aa5565b60008060408385031215620031cb578081620031c862002b29565b50505b8235620031d88162003aa5565b91506020830135620031ea8162003aa5565b809150509250929050565b60008060008060808587031215620032165781826200321362002b29565b50505b8435620032238162003aa5565b93506020850135620032358162003aa5565b92506040850135620032478162003aa5565b91506060850135620032598162003aa5565b939692955090935050565b60008060408385031215620032825781826200327f62002b29565b50505b82356200328f8162003aa5565b946020939093013593505050565b600060208284031215620032ba578081620032b762002b29565b50505b815162000b648162003ac3565b600080600080600080600060e0888a031215620032ed578283620032ea62002b29565b50505b620032f9898962003046565b96506200330a8960208a0162002f87565b9550604088013567ffffffffffffffff80821115620033325784856200332f62002b29565b50505b620033408b838c0162003053565b965060608a0135915080821115620033615784856200335e62002b29565b50505b6200336f8b838c0162003053565b955060808a0135915080821115620033905784856200338d62002b29565b50505b6200339e8b838c0162003053565b945060a08a0135935060c08a0135915080821115620033c6578283620033c362002b29565b50505b50620033d58a828b0162002f94565b91505092959891949750929550565b60006020828403121562003401578081620033fe62002b29565b50505b5035919050565b60008060408385031215620034265781826200342362002b29565b50505b823567ffffffffffffffff811115620034485782836200344562002b29565b50505b620034568582860162003053565b92505062003468846020850162003137565b90509250929050565b6000602082840312156200348e5780816200348b62002b29565b50505b81519392505050565b60008060408385031215620034b5578182620034b262002b29565b50505b50508035926020909101359150565b60008060008060008060a08789031215620034e8578384620034e562002b29565b50505b86359550602087013594506040870135935060608701359250608087013567ffffffffffffffff80821115620035275783846200352462002b29565b50505b818901915089601f830112620035465783846200354362002b29565b50505b813581811115620035605784856200355d62002b29565b50505b8a60208285010111156200357d5784856200357a62002b29565b50505b6020830194508093505050509295509295509295565b600060208284031215620035b0578081620035ad62002b29565b50505b62000b64838362003137565b60008151808452815b81811015620035e657602080828601015186830190910152602001620035c5565b81811115620035f85782602083870101525b50601f01601f19169290920160200192915050565b6001600160a01b0391909116815260200190565b600060018060a01b03808716835260208187168185015260406080818601526200364f6080860188620035bc565b85810360608701528087518083528885019285019150865b81811015620036945783518781511684528681015115158488015250928501929184019160010162003667565b50909b9a5050505050505050505050565b600060018060a01b038088168352861515602084015260a06040840152620036d160a0840187620035bc565b8381036060850152620036e58187620035bc565b9250508084166080840152509695505050505050565b6001600160a01b0389811682528815156020830152610100604083018190526000916200372b8483018b620035bc565b9150838203606085015262003741828a620035bc565b97166080840152505060a081019390935260c083019190915260e090910152949350505050565b6001600160a01b03841681526060602082018190526000906200378e90830185620035bc565b905060ff83166040830152949350505050565b901515815260200190565b90815260200190565b6020808252601290820152712737ba1030903837b7b61036b0b730b3b2b960711b604082015260600190565b60208082526014908201527314185d5cd8589b194e881b9bdd081c185d5cd95960621b604082015260600190565b6020808252600e908201526d696e76616c696420626f756e647360901b604082015260600190565b60208082526026908201527f4f776e61626c653a206e6577206f776e657220697320746865207a65726f206160408201526564647265737360d01b606082015260800190565b6020808252601b908201527f536166654d6174683a206164646974696f6e206f766572666c6f770000000000604082015260600190565b6020808252600890820152676f6e6c792064616f60c01b604082015260600190565b6020808252600c908201526b19185d184b5a5b9d985b1a5960a21b604082015260600190565b6020808252601490820152730dac2dcc2cecae440cccaca40e8dede40d0d2ced60631b604082015260600190565b60208082526010908201526f14185d5cd8589b194e881c185d5cd95960821b604082015260600190565b6020808252600e908201526d1d185c99d95d0b5a5b9d985b1a5960921b604082015260600190565b60208082526010908201526f34b73b30b634b210333930b1ba34b7b760811b604082015260600190565b6020808252818101527f4f776e61626c653a2063616c6c6572206973206e6f7420746865206f776e6572604082015260600190565b6020808252602e908201527f436f6e747261637420696e7374616e63652068617320616c726561647920626560408201526d195b881a5b9a5d1a585b1a5e995960921b606082015260800190565b6020808252601e908201527f737570706c6965642061646472657373206973206e6f74206120706f6f6c0000604082015260600190565b918252602082015260400190565b6000604051905081810181811067ffffffffffffffff8211171562003a9d5760008062003a9a62002b29565b50505b604052919050565b6001600160a01b038116811462000a495760008062000d5d62002b29565b801515811462000a495760008062000d5d62002b2956fe60806040523480156100195760008061001661001f565b50505b5061008a565b632a2a7adb598160e01b8152600481016020815285602082015260005b8681101561005757808601518282016040015260200161003c565b506020828760640184336000905af158601d01573d60011458600c01573d6000803e3d621234565260ea61109c52505050565b610728806100996000396000f3fe6080604052600436106100225760003560e01c8063e74a474a1461003957610031565b366100315761002f610117565b005b61002f610117565b61002f60048036036060811015610058576000806100556104ca565b50505b6001600160a01b03823516919081019060408101602082013564010000000081111561008c576000806100896104ca565b50505b8201836020820111156100a7576000806100a46104ca565b50505b803590602001918460018302840111640100000000831117156100d2576000806100cf6104ca565b50505b91908080601f01602080910402602001604051908101604052818152929190602084018383808284376000920191909152509295505050903560ff1691506101319050565b61011f61012f565b61012f61012a6102c3565b6103c4565b565b600061013b6102c3565b6001600160a01b03161461018e5760405162461bcd60e51b815260206004820152600d60248201526c496d706c206e6f74207a65726f60981b60448201526064016040518091039061018b6104ca565b50505b61019783610401565b6101a08161048e565b6000825111156102be5760006101b46102c3565b6001600160a01b0316836040518082805190602001908083835b602083106101ed5780518252601f1990920191602091820191016101ce565b6001836020036101000a038019825116818451168082178552505050505050905001915050600060405180830381855a610225610535565b50505050509150503d8060008114610259576040513d603f01601f191681016040523d815291503d6000602084013e61025e565b606091505b50509050806102bc5760405162461bcd60e51b815260206004820152601a60248201527f496d706c656d656e746174696f6e20696e6974206661696c65640000000000006044820152606401604051809103906102b96104ca565b50505b505b505050565b6000807f360894a13ba1a3210667c828492db98dca3e2076cc3735a920a3ca505d382bbc806102f0610622565b91506001600160a01b03821661030b576000925050506103c1565b816001600160a01b031663ecef89d561032261049d565b6040516001600160e01b031960e084901b16815260ff9091166004820152602401602060405180830381868061035661067d565b15801561036b576000806103686104ca565b50505b505a6103756106c9565b5050505050158015610394573d6000803e3d60006103916104ca565b50505b505050506040513d60208110156103b3576000806103b06104ca565b50505b810190808051955050505050505b90565b3660008037600080366000845a6103d9610535565b50505050503d6000803e8080156103ef573d6000f35b3d60006103fa6104ca565b5050505050565b61040a816104b5565b6104635760405162461bcd60e51b815260206004820181905260248201527f43616e6e6f742073657420696d706c656d656e746174696f6e20746f20454f416044820152606401604051809103906104606104ca565b50505b7f360894a13ba1a3210667c828492db98dca3e2076cc3735a920a3ca505d382bbc81816102bc6106da565b600160fc1b81816102bc6106da565b600080600160fc1b806104ae610622565b9250505090565b600080826104c161067d565b15159392505050565b632a2a7adb598160e01b8152600481016020815285602082015260005b868110156105025780860151828201604001526020016104e7565b506020828760640184336000905af158601d01573d60011458600c01573d6000803e3d621234565260ea61109c52505050565b63ffe73914598160e01b8152610568565b80808311156105525750815b92915050565b8080831015610552575090919050565b836004820152846024820152606060448201528660648201526084810160005b888110156105a0578088015182820152602001610588565b506060828960a40184336000905af158601d01573d60011458600c01573d6000803e3d621234565260ea61109c52815160408301513d6000853e8b8b82606087013350600060045af150596105f58d3d610558565b8c016106018187610546565b5b828110156106165760008152602001610602565b50929c50505050505050565b6303daa959598160e01b8152836004820152602081602483336000905af158601d01573d60011458600c01573d6000803e3d621234565260ea61109c528051935060005b60408110156102be57600082820152602001610666565b638435035b598160e01b8152836004820152602081602483336000905af158601d01573d60011458600c01573d6000803e3d621234565260ea61109c5280516000825293506020610666565b638540661f598160e01b8152610568565b6322bd64c0598160e01b8152836004820152846024820152600081604483336000905af158601d01573d60011458600c01573d6000803e3d621234565260ea61109c5260008152602061066656",
  "linkReferences": {},
  "deployedLinkReferences": {}
}