{
  "_format": "hh-sol-artifact-1",
  "contractName": "PoolFactory",
  "sourceName": "contracts/PoolFactory.sol",
  "abi": [
    {
      "anonymous": false,
      "inputs": [
        {
          "indexed": true,
          "internalType": "address",
          "name": "asset",
          "type": "address"
        }
      ],
      "name": "AddedValidAsset",
      "type": "event"
    },
    {
      "anonymous": false,
      "inputs": [
        {
          "indexed": false,
          "internalType": "address",
          "name": "dao",
          "type": "address"
        }
      ],
      "name": "DaoAddressSet",
      "type": "event"
    },
    {
      "anonymous": false,
      "inputs": [
        {
          "indexed": false,
          "internalType": "uint256",
          "name": "numerator",
          "type": "uint256"
        },
        {
          "indexed": false,
          "internalType": "uint256",
          "name": "denominator",
          "type": "uint256"
        }
      ],
      "name": "DaoFeeSet",
      "type": "event"
    },
    {
      "anonymous": false,
      "inputs": [
        {
          "indexed": false,
          "internalType": "uint256",
          "name": "cooldown",
          "type": "uint256"
        }
      ],
      "name": "ExitCooldownSet",
      "type": "event"
    },
    {
      "anonymous": false,
      "inputs": [
        {
          "indexed": false,
          "internalType": "uint256",
          "name": "numerator",
          "type": "uint256"
        },
        {
          "indexed": false,
          "internalType": "uint256",
          "name": "denominator",
          "type": "uint256"
        }
      ],
      "name": "ExitFeeSet",
      "type": "event"
    },
    {
      "anonymous": false,
      "inputs": [
        {
          "indexed": false,
          "internalType": "address",
          "name": "fundAddress",
          "type": "address"
        },
        {
          "indexed": false,
          "internalType": "bool",
          "name": "isPoolPrivate",
          "type": "bool"
        },
        {
          "indexed": false,
          "internalType": "string",
          "name": "fundName",
          "type": "string"
        },
        {
          "indexed": false,
          "internalType": "string",
          "name": "managerName",
          "type": "string"
        },
        {
          "indexed": false,
          "internalType": "address",
          "name": "manager",
          "type": "address"
        },
        {
          "indexed": false,
          "internalType": "uint256",
          "name": "time",
          "type": "uint256"
        },
        {
          "indexed": false,
          "internalType": "uint256",
          "name": "managerFeeNumerator",
          "type": "uint256"
        },
        {
          "indexed": false,
          "internalType": "uint256",
          "name": "managerFeeDenominator",
          "type": "uint256"
        }
      ],
      "name": "FundCreated",
      "type": "event"
    },
    {
      "anonymous": false,
      "inputs": [
        {
          "indexed": true,
          "internalType": "address",
          "name": "manager",
          "type": "address"
        },
        {
          "indexed": true,
          "internalType": "address",
          "name": "pool",
          "type": "address"
        }
      ],
      "name": "LogUpgrade",
      "type": "event"
    },
    {
      "anonymous": false,
      "inputs": [
        {
          "indexed": false,
          "internalType": "uint256",
          "name": "count",
          "type": "uint256"
        }
      ],
      "name": "MaximumSupportedAssetCountSet",
      "type": "event"
    },
    {
      "anonymous": false,
      "inputs": [
        {
          "indexed": true,
          "internalType": "address",
          "name": "previousOwner",
          "type": "address"
        },
        {
          "indexed": true,
          "internalType": "address",
          "name": "newOwner",
          "type": "address"
        }
      ],
      "name": "OwnershipTransferred",
      "type": "event"
    },
    {
      "anonymous": false,
      "inputs": [
        {
          "indexed": false,
          "internalType": "address",
          "name": "proxy",
          "type": "address"
        }
      ],
      "name": "ProxyCreated",
      "type": "event"
    },
    {
      "anonymous": false,
      "inputs": [
        {
          "indexed": true,
          "internalType": "address",
          "name": "asset",
          "type": "address"
        }
      ],
      "name": "RemovedValidAsset",
      "type": "event"
    },
    {
      "inputs": [
        {
          "internalType": "address",
          "name": "asset",
          "type": "address"
        },
        {
          "internalType": "address",
          "name": "aggregator",
          "type": "address"
        }
      ],
      "name": "addValidAsset",
      "outputs": [],
      "stateMutability": "nonpayable",
      "type": "function"
    },
    {
      "inputs": [],
      "name": "addressResolver",
      "outputs": [
        {
          "internalType": "contract IAddressResolver",
          "name": "",
          "type": "address"
        }
      ],
      "stateMutability": "view",
      "type": "function"
    },
    {
      "inputs": [
        {
          "internalType": "bool",
          "name": "_privatePool",
          "type": "bool"
        },
        {
          "internalType": "address",
          "name": "_manager",
          "type": "address"
        },
        {
          "internalType": "string",
          "name": "_managerName",
          "type": "string"
        },
        {
          "internalType": "string",
          "name": "_fundName",
          "type": "string"
        },
        {
          "internalType": "string",
          "name": "_fundSymbol",
          "type": "string"
        },
        {
          "internalType": "uint256",
          "name": "_managerFeeNumerator",
          "type": "uint256"
        },
        {
          "internalType": "address[]",
          "name": "_supportedAssets",
          "type": "address[]"
        }
      ],
      "name": "createFund",
      "outputs": [
        {
          "internalType": "address",
          "name": "",
          "type": "address"
        }
      ],
      "stateMutability": "nonpayable",
      "type": "function"
    },
    {
      "inputs": [
        {
          "internalType": "bytes",
          "name": "_data",
          "type": "bytes"
        },
        {
          "internalType": "uint8",
          "name": "_proxyType",
          "type": "uint8"
        }
      ],
      "name": "deploy",
      "outputs": [
        {
          "internalType": "address",
          "name": "",
          "type": "address"
        }
      ],
      "stateMutability": "nonpayable",
      "type": "function"
    },
    {
      "inputs": [
        {
          "internalType": "uint256",
          "name": "",
          "type": "uint256"
        }
      ],
      "name": "deployedFunds",
      "outputs": [
        {
          "internalType": "address",
          "name": "",
          "type": "address"
        }
      ],
      "stateMutability": "view",
      "type": "function"
    },
    {
      "inputs": [],
      "name": "deployedFundsLength",
      "outputs": [
        {
          "internalType": "uint256",
          "name": "",
          "type": "uint256"
        }
      ],
      "stateMutability": "view",
      "type": "function"
    },
    {
      "inputs": [],
      "name": "disableChainlink",
      "outputs": [],
      "stateMutability": "nonpayable",
      "type": "function"
    },
    {
      "inputs": [],
      "name": "enableChainlink",
      "outputs": [],
      "stateMutability": "nonpayable",
      "type": "function"
    },
    {
      "inputs": [],
      "name": "getAddressResolver",
      "outputs": [
        {
          "internalType": "contract IAddressResolver",
          "name": "",
          "type": "address"
        }
      ],
      "stateMutability": "view",
      "type": "function"
    },
    {
      "inputs": [],
      "name": "getDaoAddress",
      "outputs": [
        {
          "internalType": "address",
          "name": "",
          "type": "address"
        }
      ],
      "stateMutability": "view",
      "type": "function"
    },
    {
      "inputs": [],
      "name": "getDaoFee",
      "outputs": [
        {
          "internalType": "uint256",
          "name": "",
          "type": "uint256"
        },
        {
          "internalType": "uint256",
          "name": "",
          "type": "uint256"
        }
      ],
      "stateMutability": "view",
      "type": "function"
    },
    {
      "inputs": [],
      "name": "getExitCooldown",
      "outputs": [
        {
          "internalType": "uint256",
          "name": "",
          "type": "uint256"
        }
      ],
      "stateMutability": "view",
      "type": "function"
    },
    {
      "inputs": [
        {
          "internalType": "address",
          "name": "extContract",
          "type": "address"
        }
      ],
      "name": "getGuard",
      "outputs": [
        {
          "internalType": "address",
          "name": "",
          "type": "address"
        }
      ],
      "stateMutability": "view",
      "type": "function"
    },
    {
      "inputs": [
        {
          "internalType": "uint8",
          "name": "_proxyType",
          "type": "uint8"
        }
      ],
      "name": "getLogic",
      "outputs": [
        {
          "internalType": "address",
          "name": "",
          "type": "address"
        }
      ],
      "stateMutability": "view",
      "type": "function"
    },
    {
      "inputs": [],
      "name": "getManagerFeeNumeratorChangeDelay",
      "outputs": [
        {
          "internalType": "uint256",
          "name": "",
          "type": "uint256"
        }
      ],
      "stateMutability": "view",
      "type": "function"
    },
    {
      "inputs": [],
      "name": "getMaximumManagerFee",
      "outputs": [
        {
          "internalType": "uint256",
          "name": "",
          "type": "uint256"
        },
        {
          "internalType": "uint256",
          "name": "",
          "type": "uint256"
        }
      ],
      "stateMutability": "view",
      "type": "function"
    },
    {
      "inputs": [],
      "name": "getMaximumManagerFeeNumeratorChange",
      "outputs": [
        {
          "internalType": "uint256",
          "name": "",
          "type": "uint256"
        }
      ],
      "stateMutability": "view",
      "type": "function"
    },
    {
      "inputs": [],
      "name": "getMaximumSupportedAssetCount",
      "outputs": [
        {
          "internalType": "uint256",
          "name": "",
          "type": "uint256"
        }
      ],
      "stateMutability": "view",
      "type": "function"
    },
    {
      "inputs": [
        {
          "internalType": "address",
          "name": "pool",
          "type": "address"
        }
      ],
      "name": "getPoolManagerFee",
      "outputs": [
        {
          "internalType": "uint256",
          "name": "",
          "type": "uint256"
        },
        {
          "internalType": "uint256",
          "name": "",
          "type": "uint256"
        }
      ],
      "stateMutability": "view",
      "type": "function"
    },
    {
      "inputs": [],
      "name": "getTrackingCode",
      "outputs": [
        {
          "internalType": "bytes32",
          "name": "",
          "type": "bytes32"
        }
      ],
      "stateMutability": "view",
      "type": "function"
    },
    {
      "inputs": [
        {
          "internalType": "address",
          "name": "_asset",
          "type": "address"
        }
      ],
      "name": "getUSDPrice",
      "outputs": [
        {
          "internalType": "uint256",
          "name": "",
          "type": "uint256"
        }
      ],
      "stateMutability": "view",
      "type": "function"
    },
    {
      "inputs": [
        {
          "internalType": "contract IAddressResolver",
          "name": "_addressResolver",
          "type": "address"
        },
        {
          "internalType": "address",
          "name": "_poolLogic",
          "type": "address"
        },
        {
          "internalType": "address",
          "name": "_managerLogic",
          "type": "address"
        },
        {
          "internalType": "address",
          "name": "daoAddress",
          "type": "address"
        },
        {
          "internalType": "address[]",
          "name": "_validAssets",
          "type": "address[]"
        },
        {
          "internalType": "address[]",
          "name": "_aggregators",
          "type": "address[]"
        }
      ],
      "name": "initialize",
      "outputs": [],
      "stateMutability": "nonpayable",
      "type": "function"
    },
    {
      "inputs": [
        {
          "internalType": "address",
          "name": "",
          "type": "address"
        }
      ],
      "name": "isPool",
      "outputs": [
        {
          "internalType": "bool",
          "name": "",
          "type": "bool"
        }
      ],
      "stateMutability": "view",
      "type": "function"
    },
    {
      "inputs": [
        {
          "internalType": "address",
          "name": "",
          "type": "address"
        }
      ],
      "name": "isPoolManager",
      "outputs": [
        {
          "internalType": "bool",
          "name": "",
          "type": "bool"
        }
      ],
      "stateMutability": "view",
      "type": "function"
    },
    {
      "inputs": [
        {
          "internalType": "address",
          "name": "asset",
          "type": "address"
        }
      ],
      "name": "isValidAsset",
      "outputs": [
        {
          "internalType": "bool",
          "name": "",
          "type": "bool"
        }
      ],
      "stateMutability": "view",
      "type": "function"
    },
    {
      "inputs": [],
      "name": "managerFeeNumeratorChangeDelay",
      "outputs": [
        {
          "internalType": "uint256",
          "name": "",
          "type": "uint256"
        }
      ],
      "stateMutability": "view",
      "type": "function"
    },
    {
      "inputs": [],
      "name": "maximumManagerFeeNumeratorChange",
      "outputs": [
        {
          "internalType": "uint256",
          "name": "",
          "type": "uint256"
        }
      ],
      "stateMutability": "view",
      "type": "function"
    },
    {
      "inputs": [],
      "name": "owner",
      "outputs": [
        {
          "internalType": "address",
          "name": "",
          "type": "address"
        }
      ],
      "stateMutability": "view",
      "type": "function"
    },
    {
      "inputs": [
        {
          "internalType": "address",
          "name": "",
          "type": "address"
        }
      ],
      "name": "poolManagerFeeDenominator",
      "outputs": [
        {
          "internalType": "uint256",
          "name": "",
          "type": "uint256"
        }
      ],
      "stateMutability": "view",
      "type": "function"
    },
    {
      "inputs": [
        {
          "internalType": "address",
          "name": "",
          "type": "address"
        }
      ],
      "name": "poolManagerFeeNumerator",
      "outputs": [
        {
          "internalType": "uint256",
          "name": "",
          "type": "uint256"
        }
      ],
      "stateMutability": "view",
      "type": "function"
    },
    {
      "inputs": [],
      "name": "poolStorageVersion",
      "outputs": [
        {
          "internalType": "uint256",
          "name": "",
          "type": "uint256"
        }
      ],
      "stateMutability": "view",
      "type": "function"
    },
    {
      "inputs": [
        {
          "internalType": "address",
          "name": "",
          "type": "address"
        }
      ],
      "name": "poolVersion",
      "outputs": [
        {
          "internalType": "uint256",
          "name": "",
          "type": "uint256"
        }
      ],
      "stateMutability": "view",
      "type": "function"
    },
    {
      "inputs": [
        {
          "internalType": "address",
          "name": "asset",
          "type": "address"
        }
      ],
      "name": "removeValidAsset",
      "outputs": [],
      "stateMutability": "nonpayable",
      "type": "function"
    },
    {
      "inputs": [],
      "name": "renounceOwnership",
      "outputs": [],
      "stateMutability": "nonpayable",
      "type": "function"
    },
    {
      "inputs": [
        {
          "internalType": "address",
          "name": "_addressResolver",
          "type": "address"
        }
      ],
      "name": "setAddressResolver",
      "outputs": [],
      "stateMutability": "nonpayable",
      "type": "function"
    },
    {
      "inputs": [
        {
          "internalType": "address",
          "name": "daoAddress",
          "type": "address"
        }
      ],
      "name": "setDaoAddress",
      "outputs": [],
      "stateMutability": "nonpayable",
      "type": "function"
    },
    {
      "inputs": [
        {
          "internalType": "uint256",
          "name": "numerator",
          "type": "uint256"
        },
        {
          "internalType": "uint256",
          "name": "denominator",
          "type": "uint256"
        }
      ],
      "name": "setDaoFee",
      "outputs": [],
      "stateMutability": "nonpayable",
      "type": "function"
    },
    {
      "inputs": [
        {
          "internalType": "uint256",
          "name": "cooldown",
          "type": "uint256"
        }
      ],
      "name": "setExitCooldown",
      "outputs": [],
      "stateMutability": "nonpayable",
      "type": "function"
    },
    {
      "inputs": [
        {
          "internalType": "address",
          "name": "extContract",
          "type": "address"
        },
        {
          "internalType": "address",
          "name": "guardAddress",
          "type": "address"
        }
      ],
      "name": "setGuard",
      "outputs": [],
      "stateMutability": "nonpayable",
      "type": "function"
    },
    {
      "inputs": [
        {
          "internalType": "address",
          "name": "_poolLogic",
          "type": "address"
        },
        {
          "internalType": "address",
          "name": "_poolManagerLogic",
          "type": "address"
        }
      ],
      "name": "setLogic",
      "outputs": [],
      "stateMutability": "nonpayable",
      "type": "function"
    },
    {
      "inputs": [
        {
          "internalType": "uint256",
          "name": "delay",
          "type": "uint256"
        }
      ],
      "name": "setManagerFeeNumeratorChangeDelay",
      "outputs": [],
      "stateMutability": "nonpayable",
      "type": "function"
    },
    {
      "inputs": [
        {
          "internalType": "uint256",
          "name": "amount",
          "type": "uint256"
        }
      ],
      "name": "setMaximumManagerFeeNumeratorChange",
      "outputs": [],
      "stateMutability": "nonpayable",
      "type": "function"
    },
    {
      "inputs": [
        {
          "internalType": "uint256",
          "name": "count",
          "type": "uint256"
        }
      ],
      "name": "setMaximumSupportedAssetCount",
      "outputs": [],
      "stateMutability": "nonpayable",
      "type": "function"
    },
    {
      "inputs": [
        {
          "internalType": "address",
          "name": "pool",
          "type": "address"
        },
        {
          "internalType": "uint256",
          "name": "numerator",
          "type": "uint256"
        }
      ],
      "name": "setPoolManagerFeeNumerator",
      "outputs": [],
      "stateMutability": "nonpayable",
      "type": "function"
    },
    {
      "inputs": [
        {
          "internalType": "bytes32",
          "name": "code",
          "type": "bytes32"
        }
      ],
      "name": "setTrackingCode",
      "outputs": [],
      "stateMutability": "nonpayable",
      "type": "function"
    },
    {
      "inputs": [
        {
          "internalType": "address",
          "name": "newOwner",
          "type": "address"
        }
      ],
      "name": "transferOwnership",
      "outputs": [],
      "stateMutability": "nonpayable",
      "type": "function"
    },
    {
      "inputs": [
        {
          "internalType": "uint256",
          "name": "startIndex",
          "type": "uint256"
        },
        {
          "internalType": "uint256",
          "name": "endIndex",
          "type": "uint256"
        },
        {
          "internalType": "uint256",
          "name": "sourceVersion",
          "type": "uint256"
        },
        {
          "internalType": "uint256",
          "name": "targetVersion",
          "type": "uint256"
        },
        {
          "internalType": "bytes",
          "name": "data",
          "type": "bytes"
        }
      ],
      "name": "upgradePoolBatch",
      "outputs": [],
      "stateMutability": "nonpayable",
      "type": "function"
    }
  ],
  "bytecode": "0x608060405234801561001057600080fd5b50613175806100206000396000f3fe608060405234801561001057600080fd5b50600436106102955760003560e01c8063808ae5fb11610167578063bcb01f44116100ce578063e60eb41211610087578063e60eb41214610b37578063e99c0fa614610b5d578063ebee461d14610b7a578063ecef89d514610b82578063eec16c4414610ba2578063f2fde38b14610bbf57610295565b8063bcb01f4414610a98578063bee37e5214610ab5578063bfeaf71d14610adb578063cc435bf314610ae3578063d54e96d214610b09578063dc76d25414610b1157610295565b80639cada6e4116101205780639cada6e414610a17578063aa12ae4d14610a1f578063aa7d664e14610a27578063b193a5f414610a44578063b280600114610a6a578063b7a5452614610a7257610295565b8063808ae5fb146109575780638b2f0f4f146109855780638da5cb5b146109ab57806394d0d23b146109b35780639a068bd6146109d45780639a3cac6a146109f157610295565b80634501b0881161020b5780635c9bfc2b116101c45780635c9bfc2b146108c85780637027ea6c146108d0578063715018a6146108f657806371c1c549146108fe578063742a96cd14610906578063771d1baf1461093457610295565b80634501b0881461066457806345812ca51461066c57806349f7c02d14610715578063515bbf2c1461071d5780635556ee55146108685780635b16ebb71461088e57610295565b8063143023871161025d57806314302387146103165780631d68702d1461033c5780631e666d13146103445780631e8e8bca146103ca578063227773ee146103e7578063391d348b1461041557610295565b8063046b72c41461029a57806305a2ee2a146102c85780630bf99bd9146102ec5780630f6559c41461030657806310bf69dc1461030e575b600080fd5b6102c6600480360360408110156102b057600080fd5b506001600160a01b038135169060200135610be5565b005b6102d0610d36565b604080516001600160a01b039092168252519081900360200190f35b6102f4610d45565b60408051918252519081900360200190f35b6102f4610d4b565b6102f4610d51565b6102c66004803603602081101561032c57600080fd5b50356001600160a01b0316610d57565b6102d0610dd1565b6102c6600480360360a081101561035a57600080fd5b81359160208101359160408201359160608101359181019060a081016080820135600160201b81111561038c57600080fd5b82018360208201111561039e57600080fd5b803590602001918460018302840111600160201b831117156103bf57600080fd5b509092509050610de0565b6102c6600480360360208110156103e057600080fd5b5035610f03565b6102c6600480360360408110156103fd57600080fd5b506001600160a01b0381358116916020013516610f67565b6102d0600480360360e081101561042b57600080fd5b81351515916001600160a01b0360208201351691810190606081016040820135600160201b81111561045c57600080fd5b82018360208201111561046e57600080fd5b803590602001918460018302840111600160201b8311171561048f57600080fd5b91908080601f0160208091040260200160405190810160405280939291908181526020018383808284376000920191909152509295949360208101935035915050600160201b8111156104e157600080fd5b8201836020820111156104f357600080fd5b803590602001918460018302840111600160201b8311171561051457600080fd5b91908080601f0160208091040260200160405190810160405280939291908181526020018383808284376000920191909152509295949360208101935035915050600160201b81111561056657600080fd5b82018360208201111561057857600080fd5b803590602001918460018302840111600160201b8311171561059957600080fd5b91908080601f01602080910402602001604051908101604052809392919081815260200183838082843760009201919091525092958435959094909350604081019250602001359050600160201b8111156105f357600080fd5b82018360208201111561060557600080fd5b803590602001918460208302840111600160201b8311171561062657600080fd5b919080806020026020016040519081016040528093929190818152602001838360200280828437600092019190915250929550610fbb945050505050565b6102f46114a2565b6102d06004803603604081101561068257600080fd5b810190602081018135600160201b81111561069c57600080fd5b8201836020820111156106ae57600080fd5b803590602001918460018302840111600160201b831117156106cf57600080fd5b91908080601f0160208091040260200160405190810160405280939291908181526020018383808284376000920191909152509295505050903560ff1691506114a89050565b6102f46114bd565b6102c6600480360360c081101561073357600080fd5b6001600160a01b03823581169260208101358216926040820135831692606083013516919081019060a081016080820135600160201b81111561077557600080fd5b82018360208201111561078757600080fd5b803590602001918460208302840111600160201b831117156107a857600080fd5b9190808060200260200160405190810160405280939291908181526020018383602002808284376000920191909152509295949360208101935035915050600160201b8111156107f757600080fd5b82018360208201111561080957600080fd5b803590602001918460208302840111600160201b8311171561082a57600080fd5b9190808060200260200160405190810160405280939291908181526020018383602002808284376000920191909152509295506114c3945050505050565b6102f46004803603602081101561087e57600080fd5b50356001600160a01b0316611693565b6108b4600480360360208110156108a457600080fd5b50356001600160a01b03166116a5565b604080519115158252519081900360200190f35b6102f46116ba565b6102d0600480360360208110156108e657600080fd5b50356001600160a01b03166116c0565b6102c66116e1565b6102d0611783565b6102c66004803603604081101561091c57600080fd5b506001600160a01b0381358116916020013516611792565b6102c66004803603604081101561094a57600080fd5b5080359060200135611893565b6102c66004803603604081101561096d57600080fd5b506001600160a01b03813581169160200135166118f5565b6102f46004803603602081101561099b57600080fd5b50356001600160a01b031661197b565b6102d0611b8b565b6109bb611b9a565b6040805192835260208301919091528051918290030190f35b6102d0600480360360208110156109ea57600080fd5b5035611ba4565b6102c660048036036020811015610a0757600080fd5b50356001600160a01b0316611bcb565b6109bb611c2c565b6102f4611c36565b6102c660048036036020811015610a3d57600080fd5b5035611c3c565b6108b460048036036020811015610a5a57600080fd5b50356001600160a01b0316611c9d565b6102c6611cb2565b6109bb60048036036020811015610a8857600080fd5b50356001600160a01b0316611d48565b6102c660048036036020811015610aae57600080fd5b5035611de6565b6102f460048036036020811015610acb57600080fd5b50356001600160a01b0316611e43565b6102f4611e55565b6108b460048036036020811015610af957600080fd5b50356001600160a01b0316611e5b565b6102c6611e79565b6102c660048036036020811015610b2757600080fd5b50356001600160a01b0316611f11565b6102f460048036036020811015610b4d57600080fd5b50356001600160a01b031661200b565b6102c660048036036020811015610b7357600080fd5b503561201d565b6102f461207a565b6102d060048036036020811015610b9857600080fd5b503560ff16612080565b6102c660048036036020811015610bb857600080fd5b50356120b2565b6102c660048036036020811015610bd557600080fd5b50356001600160a01b0316612113565b33600090815260d3602052604090205460ff161515600114610c43576040805162461bcd60e51b81526020600482015260126024820152712737ba1030903837b7b61036b0b730b3b2b960711b604482015290519081900360640190fd5b6001600160a01b038216600090815260d2602052604090205460ff161515600114610cb5576040805162461bcd60e51b815260206004820152601e60248201527f737570706c6965642061646472657373206973206e6f74206120706f6f6c0000604482015290519081900360640190fd5b60de546001600160a01b038316600090815260d66020526040902054610cda9161220c565b811115610d25576040805162461bcd60e51b81526020600482015260146024820152730dac2dcc2cecae440cccaca40e8dede40d0d2ced60631b604482015290519081900360640190fd5b610d32828260d554612266565b5050565b60cd546001600160a01b031681565b60ce5490565b60dd5481565b60de5481565b610d5f6122e4565b6065546001600160a01b03908116911614610daf576040805162461bcd60e51b815260206004820181905260248201526000805160206130a4833981519152604482015290519081900360640190fd5b60cd80546001600160a01b0319166001600160a01b0392909216919091179055565b60cf546001600160a01b031690565b610de86122e4565b6065546001600160a01b03908116911614610e38576040805162461bcd60e51b815260206004820181905260248201526000805160206130a4833981519152604482015290519081900360640190fd5b848611158015610e49575060ce5486105b8015610e56575060ce5485105b610e98576040805162461bcd60e51b815260206004820152600e60248201526d696e76616c696420626f756e647360901b604482015290519081900360640190fd5b855b858111610efa57600060ce8281548110610eb057fe5b60009182526020808320909101546001600160a01b031680835260dc9091526040909120549091508614610ee45750610ef2565b610ef0818585886122e8565b505b600101610e9a565b50505050505050565b610f0b6122e4565b6065546001600160a01b03908116911614610f5b576040805162461bcd60e51b815260206004820181905260248201526000805160206130a4833981519152604482015290519081900360640190fd5b610f6481612430565b50565b60cf546001600160a01b03163314610fb1576040805162461bcd60e51b81526020600482015260086024820152676f6e6c792064616f60c01b604482015290519081900360640190fd5b610d328282612435565b60cd5460405130602482018181526001600160a01b03808b1660448501529093166084830181905260a060648401908152895160c485015289516000956060958d948d9490938a939260a481019160e49091019060208801908083838f5b83811015611031578181015183820152602001611019565b50505050905090810190601f16801561105e5780820380516001836020036101000a031916815260200191505b508381038252845181528451602091820191808701910280838360005b8381101561109357818101518382015260200161107b565b5050505090500197505050505050505060405160208183030381529060405263d346cc6560e01b6001600160e01b0319166020820180516001600160e01b038381831617835250505050905060006110ec8260016114a8565b90506060308b8b8b8b8b8760405160240180886001600160a01b031681526020018715158152602001866001600160a01b03168152602001806020018060200180602001856001600160a01b03168152602001848103845288818151815260200191508051906020019080838360005b8381101561117457818101518382015260200161115c565b50505050905090810190601f1680156111a15780820380516001836020036101000a031916815260200191505b50848103835287518152875160209182019189019080838360005b838110156111d45781810151838201526020016111bc565b50505050905090810190601f1680156112015780820380516001836020036101000a031916815260200191505b50848103825286518152865160209182019188019080838360005b8381101561123457818101518382015260200161121c565b50505050905090810190601f1680156112615780820380516001836020036101000a031916815260200191505b5060408051601f198184030181529190526020810180516001600160e01b03166366fd3ce960e11b1790529b5060009a506112ab99508b9850600297506114a89650505050505050565b60ce805460018082019092557fd36cd1c74ef8d7326d8021b776c18fb5a5724b7f7bc93c2f42e43e10ef27d12a0180546001600160a01b0319166001600160a01b03848116918217909255600081815260d260209081526040808320805460ff199081168817909155948a16835260d38252808320805490951690951790935560dd5491815260dc9092529190205560d55490915061134d9082908990612266565b7f73a0638fe578fc759744633aa170a433061ca2cc1bb855d116c506e04a29901f818d8b8d8f428d60d55460405180896001600160a01b0316815260200188151581526020018060200180602001876001600160a01b03168152602001868152602001858152602001848152602001838103835289818151815260200191508051906020019080838360005b838110156113f15781810151838201526020016113d9565b50505050905090810190601f16801561141e5780820380516001836020036101000a031916815260200191505b5083810382528851815288516020918201918a019080838360005b83811015611451578181015183820152602001611439565b50505050905090810190601f16801561147e5780820380516001836020036101000a031916815260200191505b509a505050505050505050505060405180910390a19b9a5050505050505050505050565b60d85490565b60006114b48383612463565b90505b92915050565b60db5490565b600054610100900460ff16806114dc57506114dc612591565b806114ea575060005460ff16155b6115255760405162461bcd60e51b815260040180806020018281038252602e8152602001806130c4602e913960400191505060405180910390fd5b600054610100900460ff16158015611550576000805460ff1961ff0019909116610100171660011790555b61155a8686612597565b60cd80546001600160a01b0319166001600160a01b03891617905561157e8461259f565b61158c6113886127106125f3565b611598600a6064612646565b6115a4620151806126d7565b6115b06224ea00611de6565b6115bb6103e861201d565b6115c5600a612712565b6115d76544484544474560d01b612430565b60005b83518160ff16101561167857600160d96000868460ff16815181106115fb57fe5b60200260200101516001600160a01b03166001600160a01b0316815260200190815260200160002060006101000a81548160ff021916908315150217905550611670848260ff168151811061164c57fe5b6020026020010151848360ff168151811061166357fe5b602002602001015161274d565b6001016115da565b508015610efa576000805461ff001916905550505050505050565b60dc6020526000908152604090205481565b60d26020526000908152604090205460ff1681565b60de5490565b6001600160a01b03808216600090815260e06020526040902054165b919050565b6116e96122e4565b6065546001600160a01b03908116911614611739576040805162461bcd60e51b815260206004820181905260248201526000805160206130a4833981519152604482015290519081900360640190fd5b6065546040516000916001600160a01b0316907f8be0079c531659141344cd1fd0a4f28419497f9722a3daafe3b4186f6b6457e0908390a3606580546001600160a01b0319169055565b60cd546001600160a01b031690565b60cf546001600160a01b031633146117dc576040805162461bcd60e51b81526020600482015260086024820152676f6e6c792064616f60c01b604482015290519081900360640190fd5b6117e582611e5b565b1561182e576040805162461bcd60e51b8152602060048201526014602482015273617373657420616c72656164792065786973747360601b604482015290519081900360640190fd5b6001600160a01b038216600090815260d960205260409020805460ff1916600117905561185b828261274d565b6040516001600160a01b038316907fd63c302652b86334fe4eb891e7a01e61e836496485d9394f2c95b4222006ae5090600090a25050565b61189b6122e4565b6065546001600160a01b039081169116146118eb576040805162461bcd60e51b815260206004820181905260248201526000805160206130a4833981519152604482015290519081900360640190fd5b610d328282612646565b6118fd6122e4565b6065546001600160a01b0390811691161461194d576040805162461bcd60e51b815260206004820181905260248201526000805160206130a4833981519152604482015290519081900360640190fd5b609780546001600160a01b039384166001600160a01b03199182161790915560988054929093169116179055565b6001600160a01b03808216600090815260cc6020526040812054909116806119d45760405162461bcd60e51b81526004018080602001828103825260258152602001806130106025913960400191505060405180910390fd5b60cb5460009060ff16611ab357600080836001600160a01b031663feaf968c6040518163ffffffff1660e01b815260040160a06040518083038186803b158015611a1d57600080fd5b505afa158015611a31573d6000803e3d6000fd5b505050506040513d60a0811015611a4757600080fd5b506020810151606090910151909250905042611a668262015f9061220c565b1015611aa35760405162461bcd60e51b81526004018080602001828103825260288152602001806130f26028913960400191505060405180910390fd5b6000821315611ab0578192505b50505b60008111611af25760405162461bcd60e51b815260040180806020018281038252602481526020018061305f6024913960400191505060405180910390fd5b6000846001600160a01b031663313ce5676040518163ffffffff1660e01b815260040160206040518083038186803b158015611b2d57600080fd5b505afa158015611b41573d6000803e3d6000fd5b505050506040513d6020811015611b5757600080fd5b505160ff169050611b82600a82900a611b7c846b204fce5e3e2502611000000061277b565b906127d4565b95945050505050565b6065546001600160a01b031690565b60d45460d5549091565b60ce8181548110611bb157fe5b6000918252602090912001546001600160a01b0316905081565b611bd36122e4565b6065546001600160a01b03908116911614611c23576040805162461bcd60e51b815260206004820181905260248201526000805160206130a4833981519152604482015290519081900360640190fd5b610f648161259f565b60d05460d1549091565b60da5490565b611c446122e4565b6065546001600160a01b03908116911614611c94576040805162461bcd60e51b815260206004820181905260248201526000805160206130a4833981519152604482015290519081900360640190fd5b610f64816126d7565b60d36020526000908152604090205460ff1681565b60cf546001600160a01b03163314611cfc576040805162461bcd60e51b81526020600482015260086024820152676f6e6c792064616f60c01b604482015290519081900360640190fd5b60cb5460ff1615611d3e5760405162461bcd60e51b815260040180806020018281038252602681526020018061311a6026913960400191505060405180910390fd5b611d46612816565b565b6001600160a01b038116600090815260d26020526040812054819060ff161515600114611dbc576040805162461bcd60e51b815260206004820152601e60248201527f737570706c6965642061646472657373206973206e6f74206120706f6f6c0000604482015290519081900360640190fd5b50506001600160a01b0316600090815260d6602090815260408083205460d7909252909120549091565b611dee6122e4565b6065546001600160a01b03908116911614611e3e576040805162461bcd60e51b815260206004820181905260248201526000805160206130a4833981519152604482015290519081900360640190fd5b60df55565b60d66020526000908152604090205481565b60df5481565b6001600160a01b0316600090815260d9602052604090205460ff1690565b60cf546001600160a01b03163314611ec3576040805162461bcd60e51b81526020600482015260086024820152676f6e6c792064616f60c01b604482015290519081900360640190fd5b60cb5460ff161515600114611f095760405162461bcd60e51b815260040180806020018281038252602a815260200180613035602a913960400191505060405180910390fd5b611d46612825565b60cf546001600160a01b03163314611f5b576040805162461bcd60e51b81526020600482015260086024820152676f6e6c792064616f60c01b604482015290519081900360640190fd5b611f6481611e5b565b611fab576040805162461bcd60e51b8152602060048201526013602482015272185cdcd95d08191bd95cdb89dd08195e1a5cdd606a1b604482015290519081900360640190fd5b6001600160a01b038116600090815260d960205260409020805460ff19169055611fd481612831565b6040516001600160a01b038216907fe8b3c469b395bfd934168e4b7d14590c9cd1a6740533df170dbe3c219ff5a67490600090a250565b60d76020526000908152604090205481565b6120256122e4565b6065546001600160a01b03908116911614612075576040805162461bcd60e51b815260206004820181905260248201526000805160206130a4833981519152604482015290519081900360640190fd5b60de55565b60df5490565b60008160ff16600114156120a057506098546001600160a01b03166116dc565b506097546001600160a01b03166116dc565b6120ba6122e4565b6065546001600160a01b0390811691161461210a576040805162461bcd60e51b815260206004820181905260248201526000805160206130a4833981519152604482015290519081900360640190fd5b610f6481612712565b61211b6122e4565b6065546001600160a01b0390811691161461216b576040805162461bcd60e51b815260206004820181905260248201526000805160206130a4833981519152604482015290519081900360640190fd5b6001600160a01b0381166121b05760405162461bcd60e51b8152600401808060200182810382526026815260200180612fea6026913960400191505060405180910390fd5b6065546040516001600160a01b038084169216907f8be0079c531659141344cd1fd0a4f28419497f9722a3daafe3b4186f6b6457e090600090a3606580546001600160a01b0319166001600160a01b0392909216919091179055565b6000828201838110156114b4576040805162461bcd60e51b815260206004820152601b60248201527f536166654d6174683a206164646974696f6e206f766572666c6f770000000000604482015290519081900360640190fd5b808211158015612278575060d4548211155b6122bc576040805162461bcd60e51b815260206004820152601060248201526f34b73b30b634b210333930b1ba34b7b760811b604482015290519081900360640190fd5b6001600160a01b03909216600090815260d6602090815260408083209390935560d790522055565b3390565b6001600160a01b038416612334576040805162461bcd60e51b815260206004820152600e60248201526d1d185c99d95d0b5a5b9d985b1a5960921b604482015290519081900360640190fd5b81612375576040805162461bcd60e51b815260206004820152600c60248201526b19185d184b5a5b9d985b1a5960a21b604482015290519081900360640190fd5b606083838080601f016020809104026020016040519081016040528093929190818152602001838380828437600092018290525084519495509384935091505060208401885af48015600181146123cb576123d6565b3d806000803e806000fd5b50506040516001600160a01b0386169033907f78a9b536049c39a00adaf57016b1376c99dd48a0faf2cef23690232f21ce42cc90600090a3506001600160a01b03909316600090815260dc60205260409020929092555050565b60db55565b6001600160a01b03918216600090815260e06020526040902080546001600160a01b03191691909216179055565b60008061246e612858565b604080516001600160a01b038316815290519192507efffc2da0b561cae30d9826d37709e9421c4725faebc226cbbb7ef5fc5e7349919081900360200190a1806001600160a01b031663e74a474a3086866040518463ffffffff1660e01b815260040180846001600160a01b03168152602001806020018360ff168152602001828103825284818151815260200191508051906020019080838360005b8381101561252357818101518382015260200161250b565b50505050905090810190601f1680156125505780820380516001836020036101000a031916815260200191505b50945050505050600060405180830381600087803b15801561257157600080fd5b505af1158015612585573d6000803e3d6000fd5b50929695505050505050565b303b1590565b61194d61289f565b60cf80546001600160a01b0383166001600160a01b0319909116811790915560408051918252517ff1034ad6b4d45dc33a4142b9c51c2b7f89bf4a410696e426cc0f3224869e0aca9181900360200190a150565b8082111561263b576040805162461bcd60e51b815260206004820152601060248201526f34b73b30b634b210333930b1ba34b7b760811b604482015290519081900360640190fd5b60d49190915560d555565b8082111561268e576040805162461bcd60e51b815260206004820152601060248201526f34b73b30b634b210333930b1ba34b7b760811b604482015290519081900360640190fd5b60d082905560d1819055604080518381526020810183905281517fb10da2958bf5ec1bff3164ff753a09e0460ed44d3abf73e79b817b500ed0f2f1929181900390910190a15050565b60d88190556040805182815290517f20d916c976f3971e8200089411b0b712ef4612d98380b8ad2e3d8a8a376d85c79181900360200190a150565b60da8190556040805182815290517f0cd8fcb5e08d7632af461f0ad793e5c63dc0d7595c301f5880650175e37a87489181900360200190a150565b6001600160a01b03918216600090815260cc6020526040902080546001600160a01b03191691909216179055565b60008261278a575060006114b7565b8282028284828161279757fe5b04146114b45760405162461bcd60e51b81526004018080602001828103825260218152602001806130836021913960400191505060405180910390fd5b60006114b483836040518060400160405280601a81526020017f536166654d6174683a206469766973696f6e206279207a65726f000000000000815250612950565b60cb805460ff19166001179055565b60cb805460ff19169055565b6001600160a01b0316600090815260cc6020526040902080546001600160a01b0319169055565b60008060606040518060200161286d90612b8b565b6020820181038252601f19601f8201166040525090508051602082016000f09150813b61289957600080fd5b50905090565b600054610100900460ff16806128b857506128b8612591565b806128c6575060005460ff16155b6129015760405162461bcd60e51b815260040180806020018281038252602e8152602001806130c4602e913960400191505060405180910390fd5b600054610100900460ff1615801561292c576000805460ff1961ff0019909116610100171660011790555b6129346129f2565b61293c612a92565b8015610f64576000805461ff001916905550565b600081836129dc5760405162461bcd60e51b81526004018080602001828103825283818151815260200191508051906020019080838360005b838110156129a1578181015183820152602001612989565b50505050905090810190601f1680156129ce5780820380516001836020036101000a031916815260200191505b509250505060405180910390fd5b5060008385816129e857fe5b0495945050505050565b600054610100900460ff1680612a0b5750612a0b612591565b80612a19575060005460ff16155b612a545760405162461bcd60e51b815260040180806020018281038252602e8152602001806130c4602e913960400191505060405180910390fd5b600054610100900460ff1615801561293c576000805460ff1961ff0019909116610100171660011790558015610f64576000805461ff001916905550565b600054610100900460ff1680612aab5750612aab612591565b80612ab9575060005460ff16155b612af45760405162461bcd60e51b815260040180806020018281038252602e8152602001806130c4602e913960400191505060405180910390fd5b600054610100900460ff16158015612b1f576000805460ff1961ff0019909116610100171660011790555b6000612b296122e4565b606580546001600160a01b0319166001600160a01b038316908117909155604051919250906000907f8be0079c531659141344cd1fd0a4f28419497f9722a3daafe3b4186f6b6457e0908290a3508015610f64576000805461ff001916905550565b61045180612b998339019056fe608060405234801561001057600080fd5b50610431806100206000396000f3fe6080604052600436106100225760003560e01c8063e74a474a1461003957610031565b366100315761002f6100f4565b005b61002f6100f4565b61002f6004803603606081101561004f57600080fd5b6001600160a01b03823516919081019060408101602082013564010000000081111561007a57600080fd5b82018360208201111561008c57600080fd5b803590602001918460018302840111640100000000831117156100ae57600080fd5b91908080601f0160208091040260200160405190810160405280939291908181526020018383808284376000920191909152509295505050903560ff16915061010e9050565b6100fc61010c565b61010c610107610281565b610342565b565b6000610118610281565b6001600160a01b031614610163576040805162461bcd60e51b815260206004820152600d60248201526c496d706c206e6f74207a65726f60981b604482015290519081900360640190fd5b61016c83610366565b610175816103e4565b81511561027c576000610186610281565b6001600160a01b0316836040518082805190602001908083835b602083106101bf5780518252601f1990920191602091820191016101a0565b6001836020036101000a038019825116818451168082178552505050505050905001915050600060405180830381855af49150503d806000811461021f576040519150601f19603f3d011682016040523d82523d6000602084013e610224565b606091505b505090508061027a576040805162461bcd60e51b815260206004820152601a60248201527f496d706c656d656e746174696f6e20696e6974206661696c6564000000000000604482015290519081900360640190fd5b505b505050565b7f360894a13ba1a3210667c828492db98dca3e2076cc3735a920a3ca505d382bbc80546000916001600160a01b0382166102c05760009250505061033f565b816001600160a01b031663ecef89d56102d76103ec565b6040518263ffffffff1660e01b8152600401808260ff16815260200191505060206040518083038186803b15801561030e57600080fd5b505afa158015610322573d6000803e3d6000fd5b505050506040513d602081101561033857600080fd5b5051925050505b90565b3660008037600080366000845af43d6000803e808015610361573d6000f35b3d6000fd5b61036f816103f5565b6103c0576040805162461bcd60e51b815260206004820181905260248201527f43616e6e6f742073657420696d706c656d656e746174696f6e20746f20454f41604482015290519081900360640190fd5b7f360894a13ba1a3210667c828492db98dca3e2076cc3735a920a3ca505d382bbc55565b600160fc1b55565b600160fc1b5490565b3b15159056fea26469706673582212208fb46f65a29ee18e860904dd11c61ab753d42dbb0a06704c916403fc4559feef64736f6c634300060c00334f776e61626c653a206e6577206f776e657220697320746865207a65726f20616464726573735072696365436f6e73756d657256333a2061676772656761746f72206e6f7420666f756e645072696365436f6e73756d657256333a20636861696e6c696e6b20616c726561647920656e61626c65645072696365436f6e73756d657256333a207072696365206e6f7420617661696c61626c65536166654d6174683a206d756c7469706c69636174696f6e206f766572666c6f774f776e61626c653a2063616c6c6572206973206e6f7420746865206f776e6572436f6e747261637420696e7374616e63652068617320616c7265616479206265656e20696e697469616c697a65645072696365436f6e73756d657256333a20636861696e6c696e6b20707269636520657870697265645072696365436f6e73756d657256333a20636861696e6c696e6b206e6f7420656e61626c6564a26469706673582212207e518c60cbf172172c1d2dd87938be9fab5c726ad1830a4cb2e48e0e82ae72b364736f6c634300060c0033",
  "linkReferences": {},
  "deployedLinkReferences": {}
}