{
  "_format": "hh-sol-artifact-1",
  "contractName": "PoolFactory-ovm",
  "sourceName": "contracts/PoolFactory.sol",
  "abi": [
    {
      "anonymous": false,
      "inputs": [
        {
          "indexed": false,
          "internalType": "address",
          "name": "dao",
          "type": "address"
        }
      ],
      "name": "DaoAddressSet",
      "type": "event"
    },
    {
      "anonymous": false,
      "inputs": [
        {
          "indexed": false,
          "internalType": "uint256",
          "name": "numerator",
          "type": "uint256"
        },
        {
          "indexed": false,
          "internalType": "uint256",
          "name": "denominator",
          "type": "uint256"
        }
      ],
      "name": "DaoFeeSet",
      "type": "event"
    },
    {
      "anonymous": false,
      "inputs": [
        {
          "indexed": false,
          "internalType": "uint256",
          "name": "cooldown",
          "type": "uint256"
        }
      ],
      "name": "ExitCooldownSet",
      "type": "event"
    },
    {
      "anonymous": false,
      "inputs": [
        {
          "indexed": false,
          "internalType": "uint256",
          "name": "numerator",
          "type": "uint256"
        },
        {
          "indexed": false,
          "internalType": "uint256",
          "name": "denominator",
          "type": "uint256"
        }
      ],
      "name": "ExitFeeSet",
      "type": "event"
    },
    {
      "anonymous": false,
      "inputs": [
        {
          "indexed": false,
          "internalType": "address",
          "name": "fundAddress",
          "type": "address"
        },
        {
          "indexed": false,
          "internalType": "bool",
          "name": "isPoolPrivate",
          "type": "bool"
        },
        {
          "indexed": false,
          "internalType": "string",
          "name": "fundName",
          "type": "string"
        },
        {
          "indexed": false,
          "internalType": "string",
          "name": "managerName",
          "type": "string"
        },
        {
          "indexed": false,
          "internalType": "address",
          "name": "manager",
          "type": "address"
        },
        {
          "indexed": false,
          "internalType": "uint256",
          "name": "time",
          "type": "uint256"
        },
        {
          "indexed": false,
          "internalType": "uint256",
          "name": "managerFeeNumerator",
          "type": "uint256"
        },
        {
          "indexed": false,
          "internalType": "uint256",
          "name": "managerFeeDenominator",
          "type": "uint256"
        }
      ],
      "name": "FundCreated",
      "type": "event"
    },
    {
      "anonymous": false,
      "inputs": [
        {
          "indexed": true,
          "internalType": "address",
          "name": "manager",
          "type": "address"
        },
        {
          "indexed": true,
          "internalType": "address",
          "name": "pool",
          "type": "address"
        }
      ],
      "name": "LogUpgrade",
      "type": "event"
    },
    {
      "anonymous": false,
      "inputs": [
        {
          "indexed": false,
          "internalType": "uint256",
          "name": "count",
          "type": "uint256"
        }
      ],
      "name": "MaximumSupportedAssetCountSet",
      "type": "event"
    },
    {
      "anonymous": false,
      "inputs": [
        {
          "indexed": true,
          "internalType": "address",
          "name": "previousOwner",
          "type": "address"
        },
        {
          "indexed": true,
          "internalType": "address",
          "name": "newOwner",
          "type": "address"
        }
      ],
      "name": "OwnershipTransferred",
      "type": "event"
    },
    {
      "anonymous": false,
      "inputs": [
        {
          "indexed": false,
          "internalType": "address",
          "name": "account",
          "type": "address"
        }
      ],
      "name": "Paused",
      "type": "event"
    },
    {
      "anonymous": false,
      "inputs": [
        {
          "indexed": false,
          "internalType": "address",
          "name": "proxy",
          "type": "address"
        }
      ],
      "name": "ProxyCreated",
      "type": "event"
    },
    {
      "anonymous": false,
      "inputs": [
        {
          "indexed": false,
          "internalType": "address",
          "name": "account",
          "type": "address"
        }
      ],
      "name": "Unpaused",
      "type": "event"
    },
    {
      "inputs": [
        {
          "internalType": "bool",
          "name": "_privatePool",
          "type": "bool"
        },
        {
          "internalType": "address",
          "name": "_manager",
          "type": "address"
        },
        {
          "internalType": "string",
          "name": "_managerName",
          "type": "string"
        },
        {
          "internalType": "string",
          "name": "_fundName",
          "type": "string"
        },
        {
          "internalType": "string",
          "name": "_fundSymbol",
          "type": "string"
        },
        {
          "internalType": "uint256",
          "name": "_managerFeeNumerator",
          "type": "uint256"
        },
        {
          "components": [
            {
              "internalType": "address",
              "name": "asset",
              "type": "address"
            },
            {
              "internalType": "bool",
              "name": "isDeposit",
              "type": "bool"
            }
          ],
          "internalType": "struct IPoolManagerLogic.Asset[]",
          "name": "_supportedAssets",
          "type": "tuple[]"
        }
      ],
      "name": "createFund",
      "outputs": [
        {
          "internalType": "address",
          "name": "",
          "type": "address"
        }
      ],
      "stateMutability": "nonpayable",
      "type": "function"
    },
    {
      "inputs": [
        {
          "internalType": "bytes",
          "name": "_data",
          "type": "bytes"
        },
        {
          "internalType": "uint8",
          "name": "_proxyType",
          "type": "uint8"
        }
      ],
      "name": "deploy",
      "outputs": [
        {
          "internalType": "address",
          "name": "",
          "type": "address"
        }
      ],
      "stateMutability": "nonpayable",
      "type": "function"
    },
    {
      "inputs": [
        {
          "internalType": "uint256",
          "name": "",
          "type": "uint256"
        }
      ],
      "name": "deployedFunds",
      "outputs": [
        {
          "internalType": "address",
          "name": "",
          "type": "address"
        }
      ],
      "stateMutability": "view",
      "type": "function"
    },
    {
      "inputs": [],
      "name": "deployedFundsLength",
      "outputs": [
        {
          "internalType": "uint256",
          "name": "",
          "type": "uint256"
        }
      ],
      "stateMutability": "view",
      "type": "function"
    },
    {
      "inputs": [],
      "name": "getAssetHandler",
      "outputs": [
        {
          "internalType": "address",
          "name": "",
          "type": "address"
        }
      ],
      "stateMutability": "view",
      "type": "function"
    },
    {
      "inputs": [
        {
          "internalType": "address",
          "name": "asset",
          "type": "address"
        }
      ],
      "name": "getAssetPrice",
      "outputs": [
        {
          "internalType": "uint256",
          "name": "",
          "type": "uint256"
        }
      ],
      "stateMutability": "view",
      "type": "function"
    },
    {
      "inputs": [],
      "name": "getDaoAddress",
      "outputs": [
        {
          "internalType": "address",
          "name": "",
          "type": "address"
        }
      ],
      "stateMutability": "view",
      "type": "function"
    },
    {
      "inputs": [],
      "name": "getDaoFee",
      "outputs": [
        {
          "internalType": "uint256",
          "name": "",
          "type": "uint256"
        },
        {
          "internalType": "uint256",
          "name": "",
          "type": "uint256"
        }
      ],
      "stateMutability": "view",
      "type": "function"
    },
    {
      "inputs": [],
      "name": "getExitCooldown",
      "outputs": [
        {
          "internalType": "uint256",
          "name": "",
          "type": "uint256"
        }
      ],
      "stateMutability": "view",
      "type": "function"
    },
    {
      "inputs": [
        {
          "internalType": "address",
          "name": "extContract",
          "type": "address"
        }
      ],
      "name": "getGuard",
      "outputs": [
        {
          "internalType": "address",
          "name": "",
          "type": "address"
        }
      ],
      "stateMutability": "view",
      "type": "function"
    },
    {
      "inputs": [
        {
          "internalType": "uint8",
          "name": "_proxyType",
          "type": "uint8"
        }
      ],
      "name": "getLogic",
      "outputs": [
        {
          "internalType": "address",
          "name": "",
          "type": "address"
        }
      ],
      "stateMutability": "view",
      "type": "function"
    },
    {
      "inputs": [],
      "name": "getManagerFeeNumeratorChangeDelay",
      "outputs": [
        {
          "internalType": "uint256",
          "name": "",
          "type": "uint256"
        }
      ],
      "stateMutability": "view",
      "type": "function"
    },
    {
      "inputs": [],
      "name": "getMaximumManagerFee",
      "outputs": [
        {
          "internalType": "uint256",
          "name": "",
          "type": "uint256"
        },
        {
          "internalType": "uint256",
          "name": "",
          "type": "uint256"
        }
      ],
      "stateMutability": "view",
      "type": "function"
    },
    {
      "inputs": [],
      "name": "getMaximumManagerFeeNumeratorChange",
      "outputs": [
        {
          "internalType": "uint256",
          "name": "",
          "type": "uint256"
        }
      ],
      "stateMutability": "view",
      "type": "function"
    },
    {
      "inputs": [],
      "name": "getMaximumSupportedAssetCount",
      "outputs": [
        {
          "internalType": "uint256",
          "name": "",
          "type": "uint256"
        }
      ],
      "stateMutability": "view",
      "type": "function"
    },
    {
      "inputs": [
        {
          "internalType": "address",
          "name": "pool",
          "type": "address"
        }
      ],
      "name": "getPoolManagerFee",
      "outputs": [
        {
          "internalType": "uint256",
          "name": "",
          "type": "uint256"
        },
        {
          "internalType": "uint256",
          "name": "",
          "type": "uint256"
        }
      ],
      "stateMutability": "view",
      "type": "function"
    },
    {
      "inputs": [],
      "name": "getTrackingCode",
      "outputs": [
        {
          "internalType": "bytes32",
          "name": "",
          "type": "bytes32"
        }
      ],
      "stateMutability": "view",
      "type": "function"
    },
    {
      "inputs": [
        {
          "internalType": "address",
          "name": "_poolLogic",
          "type": "address"
        },
        {
          "internalType": "address",
          "name": "_managerLogic",
          "type": "address"
        },
        {
          "internalType": "address",
          "name": "assetHandler",
          "type": "address"
        },
        {
          "internalType": "address",
          "name": "daoAddress",
          "type": "address"
        }
      ],
      "name": "initialize",
      "outputs": [],
      "stateMutability": "nonpayable",
      "type": "function"
    },
    {
      "inputs": [],
      "name": "isPaused",
      "outputs": [
        {
          "internalType": "bool",
          "name": "",
          "type": "bool"
        }
      ],
      "stateMutability": "view",
      "type": "function"
    },
    {
      "inputs": [
        {
          "internalType": "address",
          "name": "",
          "type": "address"
        }
      ],
      "name": "isPool",
      "outputs": [
        {
          "internalType": "bool",
          "name": "",
          "type": "bool"
        }
      ],
      "stateMutability": "view",
      "type": "function"
    },
    {
      "inputs": [
        {
          "internalType": "address",
          "name": "",
          "type": "address"
        }
      ],
      "name": "isPoolManager",
      "outputs": [
        {
          "internalType": "bool",
          "name": "",
          "type": "bool"
        }
      ],
      "stateMutability": "view",
      "type": "function"
    },
    {
      "inputs": [
        {
          "internalType": "address",
          "name": "asset",
          "type": "address"
        }
      ],
      "name": "isValidAsset",
      "outputs": [
        {
          "internalType": "bool",
          "name": "",
          "type": "bool"
        }
      ],
      "stateMutability": "view",
      "type": "function"
    },
    {
      "inputs": [],
      "name": "managerFeeNumeratorChangeDelay",
      "outputs": [
        {
          "internalType": "uint256",
          "name": "",
          "type": "uint256"
        }
      ],
      "stateMutability": "view",
      "type": "function"
    },
    {
      "inputs": [],
      "name": "maximumManagerFeeNumeratorChange",
      "outputs": [
        {
          "internalType": "uint256",
          "name": "",
          "type": "uint256"
        }
      ],
      "stateMutability": "view",
      "type": "function"
    },
    {
      "inputs": [],
      "name": "owner",
      "outputs": [
        {
          "internalType": "address",
          "name": "",
          "type": "address"
        }
      ],
      "stateMutability": "view",
      "type": "function"
    },
    {
      "inputs": [],
      "name": "pause",
      "outputs": [],
      "stateMutability": "nonpayable",
      "type": "function"
    },
    {
      "inputs": [],
      "name": "paused",
      "outputs": [
        {
          "internalType": "bool",
          "name": "",
          "type": "bool"
        }
      ],
      "stateMutability": "view",
      "type": "function"
    },
    {
      "inputs": [
        {
          "internalType": "address",
          "name": "",
          "type": "address"
        }
      ],
      "name": "poolManagerFeeDenominator",
      "outputs": [
        {
          "internalType": "uint256",
          "name": "",
          "type": "uint256"
        }
      ],
      "stateMutability": "view",
      "type": "function"
    },
    {
      "inputs": [
        {
          "internalType": "address",
          "name": "",
          "type": "address"
        }
      ],
      "name": "poolManagerFeeNumerator",
      "outputs": [
        {
          "internalType": "uint256",
          "name": "",
          "type": "uint256"
        }
      ],
      "stateMutability": "view",
      "type": "function"
    },
    {
      "inputs": [],
      "name": "poolStorageVersion",
      "outputs": [
        {
          "internalType": "uint256",
          "name": "",
          "type": "uint256"
        }
      ],
      "stateMutability": "view",
      "type": "function"
    },
    {
      "inputs": [
        {
          "internalType": "address",
          "name": "",
          "type": "address"
        }
      ],
      "name": "poolVersion",
      "outputs": [
        {
          "internalType": "uint256",
          "name": "",
          "type": "uint256"
        }
      ],
      "stateMutability": "view",
      "type": "function"
    },
    {
      "inputs": [],
      "name": "renounceOwnership",
      "outputs": [],
      "stateMutability": "nonpayable",
      "type": "function"
    },
    {
      "inputs": [
        {
          "internalType": "uint8",
          "name": "assetType",
          "type": "uint8"
        },
        {
          "internalType": "address",
          "name": "guardAddress",
          "type": "address"
        }
      ],
      "name": "setAssetGuard",
      "outputs": [],
      "stateMutability": "nonpayable",
      "type": "function"
    },
    {
      "inputs": [
        {
          "internalType": "address",
          "name": "assetHandler",
          "type": "address"
        }
      ],
      "name": "setAssetHandler",
      "outputs": [],
      "stateMutability": "nonpayable",
      "type": "function"
    },
    {
      "inputs": [
        {
          "internalType": "address",
          "name": "daoAddress",
          "type": "address"
        }
      ],
      "name": "setDaoAddress",
      "outputs": [],
      "stateMutability": "nonpayable",
      "type": "function"
    },
    {
      "inputs": [
        {
          "internalType": "uint256",
          "name": "numerator",
          "type": "uint256"
        },
        {
          "internalType": "uint256",
          "name": "denominator",
          "type": "uint256"
        }
      ],
      "name": "setDaoFee",
      "outputs": [],
      "stateMutability": "nonpayable",
      "type": "function"
    },
    {
      "inputs": [
        {
          "internalType": "uint256",
          "name": "cooldown",
          "type": "uint256"
        }
      ],
      "name": "setExitCooldown",
      "outputs": [],
      "stateMutability": "nonpayable",
      "type": "function"
    },
    {
      "inputs": [
        {
          "internalType": "address",
          "name": "extContract",
          "type": "address"
        },
        {
          "internalType": "address",
          "name": "guardAddress",
          "type": "address"
        }
      ],
      "name": "setGuard",
      "outputs": [],
      "stateMutability": "nonpayable",
      "type": "function"
    },
    {
      "inputs": [
        {
          "internalType": "address",
          "name": "_poolLogic",
          "type": "address"
        },
        {
          "internalType": "address",
          "name": "_poolManagerLogic",
          "type": "address"
        }
      ],
      "name": "setLogic",
      "outputs": [],
      "stateMutability": "nonpayable",
      "type": "function"
    },
    {
      "inputs": [
        {
          "internalType": "uint256",
          "name": "delay",
          "type": "uint256"
        }
      ],
      "name": "setManagerFeeNumeratorChangeDelay",
      "outputs": [],
      "stateMutability": "nonpayable",
      "type": "function"
    },
    {
      "inputs": [
        {
          "internalType": "uint256",
          "name": "amount",
          "type": "uint256"
        }
      ],
      "name": "setMaximumManagerFeeNumeratorChange",
      "outputs": [],
      "stateMutability": "nonpayable",
      "type": "function"
    },
    {
      "inputs": [
        {
          "internalType": "uint256",
          "name": "count",
          "type": "uint256"
        }
      ],
      "name": "setMaximumSupportedAssetCount",
      "outputs": [],
      "stateMutability": "nonpayable",
      "type": "function"
    },
    {
      "inputs": [
        {
          "internalType": "address",
          "name": "pool",
          "type": "address"
        },
        {
          "internalType": "uint256",
          "name": "numerator",
          "type": "uint256"
        }
      ],
      "name": "setPoolManagerFeeNumerator",
      "outputs": [],
      "stateMutability": "nonpayable",
      "type": "function"
    },
    {
      "inputs": [
        {
          "internalType": "bytes32",
          "name": "code",
          "type": "bytes32"
        }
      ],
      "name": "setTrackingCode",
      "outputs": [],
      "stateMutability": "nonpayable",
      "type": "function"
    },
    {
      "inputs": [
        {
          "internalType": "address",
          "name": "newOwner",
          "type": "address"
        }
      ],
      "name": "transferOwnership",
      "outputs": [],
      "stateMutability": "nonpayable",
      "type": "function"
    },
    {
      "inputs": [],
      "name": "unpause",
      "outputs": [],
      "stateMutability": "nonpayable",
      "type": "function"
    },
    {
      "inputs": [
        {
          "internalType": "uint256",
          "name": "startIndex",
          "type": "uint256"
        },
        {
          "internalType": "uint256",
          "name": "endIndex",
          "type": "uint256"
        },
        {
          "internalType": "uint256",
          "name": "sourceVersion",
          "type": "uint256"
        },
        {
          "internalType": "uint256",
          "name": "targetVersion",
          "type": "uint256"
        },
        {
          "internalType": "bytes",
          "name": "data",
          "type": "bytes"
        }
      ],
      "name": "upgradePoolBatch",
      "outputs": [],
      "stateMutability": "nonpayable",
      "type": "function"
    }
  ],
  "bytecode": "0x60806040523480156200001c576000806200001962000023565b50505b5062000090565b632a2a7adb598160e01b8152600481016020815285602082015260005b868110156200005d57808601518282016040015260200162000040565b506020828760640184336000905af158600e01573d6000803e3d6000fd5b3d6001141558600a015760016000f35b505050565b6143d080620000a06000396000f3fe60806040523480156200001c576000806200001962002c1a565b50505b5060043610620002df5760003560e01c80638da5cb5b1162000194578063bee37e5211620000ec578063e99c0fa6116200009e578063e99c0fa614620005fc578063ebee461d1462000613578063ecef89d5146200061d578063eec16c441462000634578063f2fde38b146200064b578063f8c8765e146200066257620002df565b8063bee37e52146200057f578063bfeaf71d1462000596578063cc435bf314620005a0578063d050059014620005b7578063e5ac13a914620005ce578063e60eb41214620005e557620002df565b8063aa7d664e1162000146578063aa7d664e1462000502578063b187bd261462000519578063b193a5f41462000523578063b3596f07146200053a578063b7a545261462000551578063bcb01f44146200056857620002df565b80638da5cb5b146200049c57806394d0d23b14620004a65780639a068bd614620004c05780639a3cac6a14620004d75780639cada6e414620004ee578063aa12ae4d14620004f857620002df565b806345812ca511620002485780637027ea6c11620001fa5780637027ea6c146200042c578063715018a61462000443578063771d1baf146200044d57806378a86e3a1462000464578063808ae5fb146200047b5780638456cb59146200049257620002df565b806345812ca514620003ba57806349f7c02d14620003d15780635556ee5514620003db5780635b16ebb714620003f25780635c975abb14620004185780635c9bfc2b146200042257620002df565b80631d68702d11620002a25780631d68702d14620003575780631e666d1314620003615780631e8e8bca1462000378578063227773ee146200038f5780633f4ba83a14620003a65780634501b08814620003b057620002df565b8063046b72c414620002ef57806309ed489314620003085780630bf99bd9146200032a5780630f6559c4146200034357806310bf69dc146200034d575b600080620002ec62002c1a565b50505b620003066200030036600462003332565b62000679565b005b62000312620007f2565b60405162000321919062003729565b60405180910390f35b6200033462000816565b604051620003219190620038c8565b620003346200082b565b620003346200083b565b6200031262000848565b62000306620003723660046200358a565b62000857565b6200030662000389366004620034b2565b620009c9565b62000306620003a03660046200327b565b62000a45565b6200030662000ac0565b6200033462000b3b565b62000312620003cb366004620034d6565b62000b4f565b6200033462000b66565b62000334620003ec36600462003227565b62000b75565b620004096200040336600462003227565b62000b90565b604051620003219190620038bd565b6200040962000bba565b6200033462000bd8565b620003126200043d36600462003227565b62000be7565b6200030662000d40565b620003066200045e3660046200355d565b62000e3c565b620003126200047536600462003395565b62000eb6565b620003066200048c3660046200327b565b62001276565b620003066200135a565b62000312620013d3565b620004b0620013e2565b6040516200032192919062003b7c565b62000312620004d1366004620034b2565b62001407565b62000306620004e836600462003227565b62001449565b620004b0620014c2565b62000334620014df565b6200030662000513366004620034b2565b620014ee565b6200040962001567565b620004096200053436600462003227565b62001573565b620003346200054b36600462003227565b62001590565b620004b06200056236600462003227565b6200165c565b6200030662000579366004620034b2565b62001716565b620003346200059036600462003227565b62001799565b62000334620017b4565b62000409620005b136600462003227565b620017c1565b62000306620005c8366004620036ad565b6200189f565b62000306620005df36600462003227565b6200191a565b62000334620005f636600462003227565b62001993565b620003066200060d366004620034b2565b620019ae565b6200033462001a2b565b620003126200062e36600462003659565b62001a3a565b6200030662000645366004620034b2565b62001a7d565b620003066200065c36600462003227565b62001af6565b6200030662000673366004620032c3565b62001c32565b61010360005a6200068962002c87565b6001600160a01b03166001600160a01b03168152602001908152602001600020600090620006b662002cde565b906101000a900460ff1615156001151514620006fa5760405162461bcd60e51b8152600401620006e690620038d1565b60405180910390620006f762002c1a565b50505b6001600160a01b0382166000908152610102602052604090206000906200072062002cde565b906101000a900460ff1615156001151514620007645760405162461bcd60e51b8152600401620007509062003b45565b604051809103906200076162002c1a565b50505b6200079f61010d6200077562002cde565b6001600160a01b0384166000908152610106602052604090206200079862002cde565b9062001df8565b811115620007d55760405162461bcd60e51b8152600401620007c19062003a18565b60405180910390620007d262002c1a565b50505b620007ee8282610105620007e862002cde565b62001e3a565b5050565b60008060ff6200080162002cde565b906101000a90046001600160a01b0316905090565b600060fd806200082562002cde565b91505090565b61010c6200083862002cde565b81565b61010d6200083862002cde565b60008060fe6200080162002cde565b6200086162001ee3565b6001600160a01b0316600060976200087862002cde565b906101000a90046001600160a01b03166001600160a01b031614620008c55760405162461bcd60e51b8152600401620008b19062003ac2565b60405180910390620008c262002c1a565b50505b848611158015620008e3575060fd80620008de62002cde565b905086105b8015620008fd575060fd80620008f862002cde565b905085105b620009305760405162461bcd60e51b81526004016200091c906200392b565b604051809103906200092d62002c1a565b50505b855b858111620009c057600060fd82816200094a62002cde565b81106200095357fe5b906000526020600020016000906200096a62002cde565b6001600160a01b036101009290920a900416600081815261010b6020529091508690604090206200099a62002cde565b14620009a75750620009b7565b620009b58185858862001ef0565b505b60010162000932565b50505050505050565b620009d362001ee3565b6001600160a01b031660006097620009ea62002cde565b906101000a90046001600160a01b03166001600160a01b03161462000a375760405162461bcd60e51b815260040162000a239062003ac2565b6040518091039062000a3462002c1a565b50505b62000a42816200204f565b50565b600060fe62000a5362002cde565b906101000a90046001600160a01b03166001600160a01b03165a62000a7762002c87565b6001600160a01b03161462000ab45760405162461bcd60e51b815260040162000aa090620039d0565b6040518091039062000ab162002c1a565b50505b620007ee82826200205e565b600060fe62000ace62002cde565b906101000a90046001600160a01b03166001600160a01b03165a62000af262002c87565b6001600160a01b03161462000b2f5760405162461bcd60e51b815260040162000b1b90620039d0565b6040518091039062000b2c62002c1a565b50505b62000b3962002086565b565b600061010862000b4a62002cde565b905090565b600062000b5d838362002140565b90505b92915050565b600061010a62000b4a62002cde565b61010b60205280600052604060002090506200083862002cde565b6101026020528060005260406000206000915062000bad62002cde565b906101000a900460ff1681565b600080606562000bc962002cde565b906101000a900460ff16905090565b600061010d62000b4a62002cde565b600062000bf482620017c1565b1562000d025760008060ff62000c0962002cde565b906101000a90046001600160a01b03166001600160a01b031663032c49ed846040518263ffffffff1660e01b815260040162000c46919062003729565b602060405180830381868062000c5b62002d2b565b15801562000c735760008062000c7062002c1a565b50505b505a62000c7f62002d78565b505050505015801562000ca1573d6000803e3d600062000c9e62002c1a565b50505b50505050604051601f3d908101601f1916820160405262000cc6919081019062003683565b60ff811660009081526101106020529091506040902060009062000ce962002cde565b906101000a90046001600160a01b031691505062000d3b565b6001600160a01b038216600090815261010f6020526040902060009062000d2862002cde565b906101000a90046001600160a01b031690505b919050565b62000d4a62001ee3565b6001600160a01b03166000609762000d6162002cde565b906101000a90046001600160a01b03166001600160a01b03161462000dae5760405162461bcd60e51b815260040162000d9a9062003ac2565b6040518091039062000dab62002c1a565b50505b600080609762000dbd62002cde565b906101000a90046001600160a01b03166001600160a01b03167f8be0079c531659141344cd1fd0a4f28419497f9722a3daafe3b4186f6b6457e060405160405180910390a36000609760018162000e1362002cde565b816001600160a01b0302191690836001600160a01b031602179062000e3762002e6e565b505050565b62000e4662001ee3565b6001600160a01b03166000609762000e5d62002cde565b906101000a90046001600160a01b03166001600160a01b03161462000eaa5760405162461bcd60e51b815260040162000e969062003ac2565b6040518091039062000ea762002c1a565b50505b620007ee82826200227d565b600060605a63996d79a5598160e01b8152602081600483336000905af158600e01573d6000803e3d6000fd5b3d6001141558600a015760016000f35b8051925060005b604081101562000f125760008282015260200162000ef9565b50505088888560405160240162000f2d94939291906200373d565b604051601f19818303018152604091909152630a3df85f60e11b6020820180516001600160e01b031690911790529050600062000f6c82600162000b4f565b905060605a63996d79a5598160e01b8152602081600483336000905af158600e01573d6000803e3d6000fd5b3d6001141558600a015760016000f35b8051925060005b604081101562000fc85760008282015260200162000faf565b5050508b89898560405160240162000fe5959493929190620037c1565b604051601f19818303018152604091909152630ccb30c760e01b6020820180516001600160e01b03169091179052905060006200102482600262000b4f565b9050826001600160a01b0316638e10153d826040518263ffffffff1660e01b815260040162001054919062003729565b602060405180830381600087806200106b62002d2b565b15801562001083576000806200108062002c1a565b50505b505a6200108f62002ebd565b505050505050158015620010b2573d6000803e3d6000620010af62002c1a565b50505b50505050604051601f3d908101601f19168201604052620010d791908101906200336b565b508060fd80600181620010e962002cde565b018082620010f662002e6e565b5050600092835260001901916020915020016001816200111562002cde565b816001600160a01b0302191690836001600160a01b03160217906200113962002e6e565b5050506001600160a01b0381166000908152610102602052600190604090206001816200116562002cde565b8160ff021916908315150217906200117c62002e6e565b5050506001600160a01b038316600090815261010360205260019060409020600181620011a862002cde565b8160ff02191690831515021790620011bf62002e6e565b50505061010c620011cf62002cde565b6001600160a01b038216600090815261010b602052604090208190620011f462002e6e565b5050506200120a8188610105620007e862002cde565b7f73a0638fe578fc759744633aa170a433061ca2cc1bb855d116c506e04a29901f818d8b8d8f5a6200123b62002f8b565b8d6101056200124962002cde565b6040516200125f98979695949392919062003817565b60405180910390a19b9a5050505050505050505050565b6200128062001ee3565b6001600160a01b0316600060976200129762002cde565b906101000a90046001600160a01b03166001600160a01b031614620012e45760405162461bcd60e51b8152600401620012d09062003ac2565b60405180910390620012e162002c1a565b50505b8160c9600181620012f462002cde565b816001600160a01b0302191690836001600160a01b03160217906200131862002e6e565b5050508060ca60006101000a816200132f62002cde565b816001600160a01b0302191690836001600160a01b03160217906200135362002e6e565b5050505050565b600060fe6200136862002cde565b906101000a90046001600160a01b03166001600160a01b03165a6200138c62002c87565b6001600160a01b031614620013c95760405162461bcd60e51b8152600401620013b590620039d0565b60405180910390620013c662002c1a565b50505b62000b3962002318565b60008060976200080162002cde565b600080610104620013f262002cde565b610105620013ff62002cde565b915091509091565b60fd81816200141562002cde565b81106200141e57fe5b90600052602060002001600091506200143662002cde565b906101000a90046001600160a01b031681565b6200145362001ee3565b6001600160a01b0316600060976200146a62002cde565b906101000a90046001600160a01b03166001600160a01b031614620014b75760405162461bcd60e51b8152600401620014a39062003ac2565b60405180910390620014b462002c1a565b50505b62000a4281620023b9565b600080610100620014d262002cde565b610101620013ff62002cde565b600061010962000b4a62002cde565b620014f862001ee3565b6001600160a01b0316600060976200150f62002cde565b906101000a90046001600160a01b03166001600160a01b0316146200155c5760405162461bcd60e51b8152600401620015489062003ac2565b604051809103906200155962002c1a565b50505b62000a42816200242c565b600062000b4a62000bba565b6101036020528060005260406000206000915062000bad62002cde565b60008060ff6200159f62002cde565b906101000a90046001600160a01b03166001600160a01b0316638b2f0f4f836040518263ffffffff1660e01b8152600401620015dc919062003729565b6020604051808303818680620015f162002d2b565b15801562001609576000806200160662002c1a565b50505b505a6200161562002d78565b505050505015801562001637573d6000803e3d60006200163462002c1a565b50505b50505050604051601f3d908101601f1916820160405262000b60919081019062003537565b6001600160a01b038116600090815261010260205280604081206000906200168362002cde565b906101000a900460ff1615156001151514620016c75760405162461bcd60e51b8152600401620016b39062003b45565b60405180910390620016c462002c1a565b50505b6001600160a01b038316600090815261010660205260409020620016ea62002cde565b6001600160a01b0384166000908152610107602052604090206200170d62002cde565b91509150915091565b6200172062001ee3565b6001600160a01b0316600060976200173762002cde565b906101000a90046001600160a01b03166001600160a01b031614620017845760405162461bcd60e51b8152600401620017709062003ac2565b604051809103906200178162002c1a565b50505b808061010e6200179362002e6e565b50505050565b61010660205280600052604060002090506200083862002cde565b61010e6200083862002cde565b6000808060ff620017d162002cde565b906101000a90046001600160a01b03166001600160a01b03166329a42d56846040518263ffffffff1660e01b81526004016200180e919062003729565b60206040518083038186806200182362002d2b565b1580156200183b576000806200183862002c1a565b50505b505a6200184762002d78565b505050505015801562001869573d6000803e3d60006200186662002c1a565b50505b50505050604051601f3d908101601f191682016040526200188e919081019062003251565b6001600160a01b0316141592915050565b600060fe620018ad62002cde565b906101000a90046001600160a01b03166001600160a01b03165a620018d162002c87565b6001600160a01b0316146200190e5760405162461bcd60e51b8152600401620018fa90620039d0565b604051809103906200190b62002c1a565b50505b620007ee82826200246f565b6200192462001ee3565b6001600160a01b0316600060976200193b62002cde565b906101000a90046001600160a01b03166001600160a01b031614620019885760405162461bcd60e51b8152600401620019749062003ac2565b604051809103906200198562002c1a565b50505b62000a428162002491565b61010760205280600052604060002090506200083862002cde565b620019b862001ee3565b6001600160a01b031660006097620019cf62002cde565b906101000a90046001600160a01b03166001600160a01b03161462001a1c5760405162461bcd60e51b815260040162001a089062003ac2565b6040518091039062001a1962002c1a565b50505b808061010d6200179362002e6e565b600061010e62000b4a62002cde565b60008160ff166001141562001a6f57600060ca62001a5762002cde565b906101000a90046001600160a01b0316905062000d3b565b600060c962001a5762002cde565b62001a8762001ee3565b6001600160a01b03166000609762001a9e62002cde565b906101000a90046001600160a01b03166001600160a01b03161462001aeb5760405162461bcd60e51b815260040162001ad79062003ac2565b6040518091039062001ae862002c1a565b50505b62000a4281620024a1565b62001b0062001ee3565b6001600160a01b03166000609762001b1762002cde565b906101000a90046001600160a01b03166001600160a01b03161462001b645760405162461bcd60e51b815260040162001b509062003ac2565b6040518091039062001b6162002c1a565b50505b6001600160a01b03811662001ba15760405162461bcd60e51b815260040162001b8d9062003953565b6040518091039062001b9e62002c1a565b50505b6001600160a01b0381166000609762001bb962002cde565b906101000a90046001600160a01b03166001600160a01b03167f8be0079c531659141344cd1fd0a4f28419497f9722a3daafe3b4186f6b6457e060405160405180910390a380609760018162001c0e62002cde565b816001600160a01b0302191690836001600160a01b03160217906200179362002e6e565b6001600062001c4062002cde565b906101000a900460ff168062001c5b575062001c5b620024e4565b8062001c7b575060008062001c6f62002cde565b906101000a900460ff16155b62001cae5760405162461bcd60e51b815260040162001c9a9062003af7565b6040518091039062001cab62002c1a565b50505b600060018162001cbd62002cde565b906101000a900460ff16159050801562001d2c57600160006101008162001ce362002cde565b8160ff0219169083151502179062001cfa62002e6e565b50505060016000806101000a8162001d1162002cde565b8160ff0219169083151502179062001d2862002e6e565b5050505b62001d38858562002559565b62001d4262002563565b62001d4d8362002491565b62001d5882620023b9565b62001d68611388612710620026a0565b62001d76600a60646200227d565b62001d84620151806200242c565b62001d926224ea0062001716565b62001d9f6103e8620019ae565b62001dab600a620024a1565b62001dbf6544484544474560d01b6200204f565b801562001353576000806101008162001dd762002cde565b8160ff0219169083151502179062001dee62002e6e565b5050505050505050565b60008282018381101562000b5d5760405162461bcd60e51b815260040162001e209062003999565b6040518091039062001e3162002c1a565b50509392505050565b80821115801562001e57575061010462001e5362002cde565b8211155b62001e8a5760405162461bcd60e51b815260040162001e769062003a98565b6040518091039062001e8762002c1a565b50505b6001600160a01b0383166000908152610106602052829060409020819062001eb162002e6e565b5050506001600160a01b0383166000908152610107602052819060409020819062001edb62002e6e565b505050505050565b60005a62000b4a62002c87565b6001600160a01b03841662001f2d5760405162461bcd60e51b815260040162001f199062003a70565b6040518091039062001f2a62002c1a565b50505b8162001f615760405162461bcd60e51b815260040162001f4d90620039f2565b6040518091039062001f5e62002c1a565b50505b606083838080601f01602080910402602001604051908101604052818152929190602084018383808284376000920182905250939450839250849150505160208401885a62001faf62002fd2565b505050505080156001811462001fc55762001fdc565b3d806000803e80600062001fd862002c1a565b5050505b5050846001600160a01b03165a62001ff362002c87565b6001600160a01b03167f78a9b536049c39a00adaf57016b1376c99dd48a0faf2cef23690232f21ce42cc60405160405180910390a36001600160a01b038516600090815261010b602052829060409020819062001dee62002e6e565b808061010a6200179362002e6e565b6001600160a01b038216600090815261010f6020528190604090206001816200132f62002cde565b600060656200209462002cde565b906101000a900460ff16620020d15760405162461bcd60e51b8152600401620020bd90620038fd565b60405180910390620020ce62002c1a565b50505b60006065600181620020e262002cde565b8160ff02191690831515021790620020f962002e6e565b5050507f5db9ee0a495bf2e6ff9c91a7834c1ba4fdd244a5e8aa4e537bd38aeae4b073aa6200212762001ee3565b60405162002136919062003729565b60405180910390a1565b6000806200214d620026f9565b90507efffc2da0b561cae30d9826d37709e9421c4725faebc226cbbb7ef5fc5e7349816040516200217f919062003729565b60405180910390a1806001600160a01b031663e74a474a5a63996d79a5598160e01b8152602081600483336000905af158600e01573d6000803e3d6000fd5b3d6001141558600a015760016000f35b8051925060005b6040811015620021ee57600082820152602001620021d5565b50505086866040518463ffffffff1660e01b8152600401620022139392919062003884565b600060405180830381600087806200222a62002d2b565b15801562002242576000806200223f62002c1a565b50505b505a6200224e62002ebd565b50505050505015801562002271573d6000803e3d60006200226e62002c1a565b50505b50929695505050505050565b80821115620022b45760405162461bcd60e51b8152600401620022a09062003a98565b60405180910390620022b162002c1a565b50505b8180610100620022c362002e6e565b505050806101018190620022d662002e6e565b5050507fb10da2958bf5ec1bff3164ff753a09e0460ed44d3abf73e79b817b500ed0f2f182826040516200230c92919062003b7c565b60405180910390a15050565b600060656200232662002cde565b906101000a900460ff1615620023645760405162461bcd60e51b8152600401620023509062003a46565b604051809103906200236162002c1a565b50505b6001606581816200237462002cde565b8160ff021916908315150217906200238b62002e6e565b5050507f62e78cea01bee320cd4e420270b5ea74000d11b0c9f74754ebdbfc544b05a2586200212762001ee3565b8060fe600181620023c962002cde565b816001600160a01b0302191690836001600160a01b0316021790620023ed62002e6e565b5050507ff1034ad6b4d45dc33a4142b9c51c2b7f89bf4a410696e426cc0f3224869e0aca8160405162002421919062003729565b60405180910390a150565b80806101086200243b62002e6e565b5050507f20d916c976f3971e8200089411b0b712ef4612d98380b8ad2e3d8a8a376d85c781604051620024219190620038c8565b60ff821660009081526101106020528190604090206001816200132f62002cde565b8060ff60018162001c0e62002cde565b8080610109620024b062002e6e565b5050507f0cd8fcb5e08d7632af461f0ad793e5c63dc0d7595c301f5880650175e37a874881604051620024219190620038c8565b6000805a63996d79a5598160e01b8152602081600483336000905af158600e01573d6000803e3d6000fd5b3d6001141558600a015760016000f35b8051925060005b60408110156200253f5760008282015260200162002526565b50505090506000816200255162002d2b565b159250505090565b620012e462002760565b600160006200257162002cde565b906101000a900460ff16806200258c57506200258c620024e4565b80620025ac5750600080620025a062002cde565b906101000a900460ff16155b620025df5760405162461bcd60e51b8152600401620025cb9062003af7565b60405180910390620025dc62002c1a565b50505b6000600181620025ee62002cde565b906101000a900460ff1615905080156200265d5760016000610100816200261462002cde565b8160ff021916908315150217906200262b62002e6e565b50505060016000806101000a816200264262002cde565b8160ff021916908315150217906200265962002e6e565b5050505b620026676200286e565b620026716200297f565b801562000a4257600080610100816200268962002cde565b8160ff021916908315150217906200179362002e6e565b80821115620026d75760405162461bcd60e51b8152600401620026c39062003a98565b60405180910390620026d462002c1a565b50505b8180610104620026e662002e6e565b5050508061010581906200135362002e6e565b60008060606040516200270f6020820162002fe4565b601f1982820381018352601f90910116604052905080516020820160006200273662002ff2565b50509150816200274562002d2b565b6200275a576000806200275762002c1a565b50505b50905090565b600160006200276e62002cde565b906101000a900460ff168062002789575062002789620024e4565b80620027a957506000806200279d62002cde565b906101000a900460ff16155b620027dc5760405162461bcd60e51b8152600401620027c89062003af7565b60405180910390620027d962002c1a565b50505b6000600181620027eb62002cde565b906101000a900460ff1615905080156200285a5760016000610100816200281162002cde565b8160ff021916908315150217906200282862002e6e565b50505060016000806101000a816200283f62002cde565b8160ff021916908315150217906200285662002e6e565b5050505b620028646200286e565b6200267162002a8a565b600160006200287c62002cde565b906101000a900460ff168062002897575062002897620024e4565b80620028b75750600080620028ab62002cde565b906101000a900460ff16155b620028ea5760405162461bcd60e51b8152600401620028d69062003af7565b60405180910390620028e762002c1a565b50505b6000600181620028f962002cde565b906101000a900460ff161590508015620026715760016000610100816200291f62002cde565b8160ff021916908315150217906200293662002e6e565b50505060016000806101000a816200294d62002cde565b8160ff021916908315150217906200296462002e6e565b505050801562000a4257600080610100816200268962002cde565b600160006200298d62002cde565b906101000a900460ff1680620029a85750620029a8620024e4565b80620029c85750600080620029bc62002cde565b906101000a900460ff16155b620029fb5760405162461bcd60e51b8152600401620029e79062003af7565b60405180910390620029f862002c1a565b50505b600060018162002a0a62002cde565b906101000a900460ff16159050801562002a7957600160006101008162002a3062002cde565b8160ff0219169083151502179062002a4762002e6e565b50505060016000806101000a8162002a5e62002cde565b8160ff0219169083151502179062002a7562002e6e565b5050505b600060656001816200294d62002cde565b6001600062002a9862002cde565b906101000a900460ff168062002ab3575062002ab3620024e4565b8062002ad3575060008062002ac762002cde565b906101000a900460ff16155b62002b065760405162461bcd60e51b815260040162002af29062003af7565b6040518091039062002b0362002c1a565b50505b600060018162002b1562002cde565b906101000a900460ff16159050801562002b8457600160006101008162002b3b62002cde565b8160ff0219169083151502179062002b5262002e6e565b50505060016000806101000a8162002b6962002cde565b8160ff0219169083151502179062002b8062002e6e565b5050505b600062002b9062001ee3565b905080609760018162002ba262002cde565b816001600160a01b0302191690836001600160a01b031602179062002bc662002e6e565b5050506001600160a01b03811660007f8be0079c531659141344cd1fd0a4f28419497f9722a3daafe3b4186f6b6457e060405160405180910390a350801562000a4257600080610100816200268962002cde565b632a2a7adb598160e01b8152600481016020815285602082015260005b8681101562002c5457808601518282016040015260200162002c37565b506020828760640184336000905af158600e01573d6000803e3d6000fd5b3d6001141558600a015760016000f35b505050565b6373509064598160e01b8152602081600483336000905af158600e01573d6000803e3d6000fd5b3d6001141558600a015760016000f35b8051935060005b604081101562000e375760008282015260200162002cc5565b6303daa959598160e01b8152836004820152602081602483336000905af158600e01573d6000803e3d6000fd5b3d6001141558600a015760016000f35b8051600082529350602062002cc5565b638435035b598160e01b8152836004820152602081602483336000905af158600e01573d6000803e3d6000fd5b3d6001141558600a015760016000f35b8051600082529350602062002cc5565b638540661f598160e01b815262002dac565b808083111562000b60575090919050565b808083101562000b60575090919050565b836004820152846024820152606060448201528660648201526084810160005b8881101562002de657808801518282015260200162002dcc565b506060828960a40184336000905af158600e01573d6000803e3d6000fd5b3d6001141558600a015760016000f35b815160408301513d6000853e8b8b82606087013350600060045af1505962002e3d8d3d62002d9b565b8c0162002e4b818762002d8a565b5b8281101562002e62576000815260200162002e4c565b50929c50505050505050565b6322bd64c0598160e01b8152836004820152846024820152600081604483336000905af158600e01573d6000803e3d6000fd5b3d6001141558600a015760016000f35b60008152602062002cc5565b6385979f76598160e01b8152836004820152846024820152606060448201528760648201526084810160005b8981101562002f0357808901518282015260200162002ee9565b506060828a60a40184336000905af158600e01573d6000803e3d6000fd5b3d6001141558600a015760016000f35b815160408301513d6000853e8c8c82606087013350600060045af1505962002f5a8e3d62002d9b565b8d0162002f68818762002d8a565b5b8281101562002f7f576000815260200162002f69565b50929d50505050505050565b63bdbf8c36598160e01b8152602081600483336000905af158600e01573d6000803e3d6000fd5b3d6001141558600a015760016000f35b8051600082529350602062002cc5565b63ffe73914598160e01b815262002dac565b6107c18062003c0f83390190565b6314aa2ff7598160e01b8152600481016020815286602082015260005b878110156200302c5780870151828201604001526020016200300f565b506020828860640184336000905af158600e01573d6000803e3d6000fd5b3d6001141558600a015760016000f35b8151965059825b8181101562001353576000815260200162003061565b803562000b608162003bc1565b600082601f830112620030a05780816200309d62002c1a565b50505b813567ffffffffffffffff811115620030c2578182620030bf62002c1a565b50505b6020620030d3818284020162003b8a565b8281529250808301848201604080850287018401881015620030ff57600080620030fc62002c1a565b50505b60005b858110156200312a57620031178984620031d2565b8452928401929181019160010162003102565b50505050505092915050565b803562000b608162003bdf565b600082601f8301126200315f5780816200315c62002c1a565b50505b813567ffffffffffffffff811115620031815781826200317e62002c1a565b50505b62003196601f8201601f191660200162003b8a565b9150808252836020828501011115620031b957600080620031b662002c1a565b50505b8060208401602084013760009082016020015292915050565b600060408284031215620031ef578081620031ec62002c1a565b50505b620031fb604062003b8a565b905081356200320a8162003bc1565b815260208201356200321c8162003bdf565b602082015292915050565b600060208284031215620032445780816200324162002c1a565b50505b813562000b5d8162003bc1565b6000602082840312156200326e5780816200326b62002c1a565b50505b815162000b5d8162003bc1565b60008060408385031215620032995780816200329662002c1a565b50505b8235620032a68162003bc1565b91506020830135620032b88162003bc1565b809150509250929050565b60008060008060808587031215620032e4578182620032e162002c1a565b50505b8435620032f18162003bc1565b93506020850135620033038162003bc1565b92506040850135620033158162003bc1565b91506060850135620033278162003bc1565b939692955090935050565b60008060408385031215620033505781826200334d62002c1a565b50505b82356200335d8162003bc1565b946020939093013593505050565b600060208284031215620033885780816200338562002c1a565b50505b815162000b5d8162003bdf565b600080600080600080600060e0888a031215620033bb578283620033b862002c1a565b50505b620033c7898962003136565b9650620033d88960208a0162003077565b9550604088013567ffffffffffffffff8082111562003400578485620033fd62002c1a565b50505b6200340e8b838c0162003143565b965060608a01359150808211156200342f5784856200342c62002c1a565b50505b6200343d8b838c0162003143565b955060808a01359150808211156200345e5784856200345b62002c1a565b50505b6200346c8b838c0162003143565b945060a08a0135935060c08a0135915080821115620034945782836200349162002c1a565b50505b50620034a38a828b0162003084565b91505092959891949750929550565b600060208284031215620034cf578081620034cc62002c1a565b50505b5035919050565b60008060408385031215620034f4578182620034f162002c1a565b50505b823567ffffffffffffffff811115620035165782836200351362002c1a565b50505b620035248582860162003143565b9250506020830135620032b88162003bf6565b600060208284031215620035545780816200355162002c1a565b50505b81519392505050565b600080604083850312156200357b5781826200357862002c1a565b50505b50508035926020909101359150565b60008060008060008060a08789031215620035ae578384620035ab62002c1a565b50505b86359550602087013594506040870135935060608701359250608087013567ffffffffffffffff80821115620035ed578384620035ea62002c1a565b50505b818901915089601f8301126200360c5783846200360962002c1a565b50505b813581811115620036265784856200362362002c1a565b50505b8a6020828501011115620036435784856200364062002c1a565b50505b6020830194508093505050509295509295509295565b600060208284031215620036765780816200367362002c1a565b50505b813562000b5d8162003bf6565b600060208284031215620036a05780816200369d62002c1a565b50505b815162000b5d8162003bf6565b60008060408385031215620036cb578182620036c862002c1a565b50505b8235620032a68162003bf6565b60008151808452815b818110156200370257602080828601015186830190910152602001620036e1565b81811115620037145782602083870101525b50601f01601f19169290920160200192915050565b6001600160a01b0391909116815260200190565b600060018060a01b03808716835260208187168185015260406080818601526200376b6080860188620036d8565b85810360608701528087518083528885019285019150865b81811015620037b05783518781511684528681015115158488015250928501929184019160010162003783565b50909b9a5050505050505050505050565b600060018060a01b038088168352861515602084015260a06040840152620037ed60a0840187620036d8565b8381036060850152620038018187620036d8565b9250508084166080840152509695505050505050565b6001600160a01b038981168252881515602083015261010060408301819052600091620038478483018b620036d8565b915083820360608501526200385d828a620036d8565b97166080840152505060a081019390935260c083019190915260e090910152949350505050565b6001600160a01b0384168152606060208201819052600090620038aa90830185620036d8565b905060ff83166040830152949350505050565b901515815260200190565b90815260200190565b6020808252601290820152712737ba1030903837b7b61036b0b730b3b2b960711b604082015260600190565b60208082526014908201527314185d5cd8589b194e881b9bdd081c185d5cd95960621b604082015260600190565b6020808252600e908201526d696e76616c696420626f756e647360901b604082015260600190565b60208082526026908201527f4f776e61626c653a206e6577206f776e657220697320746865207a65726f206160408201526564647265737360d01b606082015260800190565b6020808252601b908201527f536166654d6174683a206164646974696f6e206f766572666c6f770000000000604082015260600190565b6020808252600890820152676f6e6c792064616f60c01b604082015260600190565b6020808252600c908201526b19185d184b5a5b9d985b1a5960a21b604082015260600190565b6020808252601490820152730dac2dcc2cecae440cccaca40e8dede40d0d2ced60631b604082015260600190565b60208082526010908201526f14185d5cd8589b194e881c185d5cd95960821b604082015260600190565b6020808252600e908201526d1d185c99d95d0b5a5b9d985b1a5960921b604082015260600190565b60208082526010908201526f34b73b30b634b210333930b1ba34b7b760811b604082015260600190565b6020808252818101527f4f776e61626c653a2063616c6c6572206973206e6f7420746865206f776e6572604082015260600190565b6020808252602e908201527f436f6e747261637420696e7374616e63652068617320616c726561647920626560408201526d195b881a5b9a5d1a585b1a5e995960921b606082015260800190565b6020808252601e908201527f737570706c6965642061646472657373206973206e6f74206120706f6f6c0000604082015260600190565b918252602082015260400190565b6000604051905081810181811067ffffffffffffffff8211171562003bb95760008062003bb662002c1a565b50505b604052919050565b6001600160a01b038116811462000a425760008062000e3762002c1a565b801515811462000a425760008062000e3762002c1a565b60ff8116811462000a425760008062000e3762002c1a56fe60806040523480156100195760008061001661001f565b50505b5061008a565b632a2a7adb598160e01b8152600481016020815285602082015260005b8681101561005757808601518282016040015260200161003c565b506020828760640184336000905af158600e01573d6000803e3d6000fd5b3d6001141558600a015760016000f35b505050565b610728806100996000396000f3fe6080604052600436106100225760003560e01c8063e74a474a1461003957610031565b366100315761002f610117565b005b61002f610117565b61002f60048036036060811015610058576000806100556104ca565b50505b6001600160a01b03823516919081019060408101602082013564010000000081111561008c576000806100896104ca565b50505b8201836020820111156100a7576000806100a46104ca565b50505b803590602001918460018302840111640100000000831117156100d2576000806100cf6104ca565b50505b91908080601f01602080910402602001604051908101604052818152929190602084018383808284376000920191909152509295505050903560ff1691506101319050565b61011f61012f565b61012f61012a6102c3565b6103c4565b565b600061013b6102c3565b6001600160a01b03161461018e5760405162461bcd60e51b815260206004820152600d60248201526c496d706c206e6f74207a65726f60981b60448201526064016040518091039061018b6104ca565b50505b61019783610401565b6101a08161048e565b6000825111156102be5760006101b46102c3565b6001600160a01b0316836040518082805190602001908083835b602083106101ed5780518252601f1990920191602091820191016101ce565b6001836020036101000a038019825116818451168082178552505050505050905001915050600060405180830381855a610225610535565b50505050509150503d8060008114610259576040513d603f01601f191681016040523d815291503d6000602084013e61025e565b606091505b50509050806102bc5760405162461bcd60e51b815260206004820152601a60248201527f496d706c656d656e746174696f6e20696e6974206661696c65640000000000006044820152606401604051809103906102b96104ca565b50505b505b505050565b6000807f360894a13ba1a3210667c828492db98dca3e2076cc3735a920a3ca505d382bbc806102f0610622565b91506001600160a01b03821661030b576000925050506103c1565b816001600160a01b031663ecef89d561032261049d565b6040516001600160e01b031960e084901b16815260ff9091166004820152602401602060405180830381868061035661067d565b15801561036b576000806103686104ca565b50505b505a6103756106c9565b5050505050158015610394573d6000803e3d60006103916104ca565b50505b505050506040513d60208110156103b3576000806103b06104ca565b50505b810190808051955050505050505b90565b3660008037600080366000845a6103d9610535565b50505050503d6000803e8080156103ef573d6000f35b3d60006103fa6104ca565b5050505050565b61040a816104b5565b6104635760405162461bcd60e51b815260206004820181905260248201527f43616e6e6f742073657420696d706c656d656e746174696f6e20746f20454f416044820152606401604051809103906104606104ca565b50505b7f360894a13ba1a3210667c828492db98dca3e2076cc3735a920a3ca505d382bbc81816102bc6106da565b600160fc1b81816102bc6106da565b600080600160fc1b806104ae610622565b9250505090565b600080826104c161067d565b15159392505050565b632a2a7adb598160e01b8152600481016020815285602082015260005b868110156105025780860151828201604001526020016104e7565b506020828760640184336000905af158600e01573d6000803e3d6000fd5b3d6001141558600a015760016000f35b505050565b63ffe73914598160e01b8152610568565b80808311156105525750815b92915050565b8080831015610552575090919050565b836004820152846024820152606060448201528660648201526084810160005b888110156105a0578088015182820152602001610588565b506060828960a40184336000905af158600e01573d6000803e3d6000fd5b3d6001141558600a015760016000f35b815160408301513d6000853e8b8b82606087013350600060045af150596105f58d3d610558565b8c016106018187610546565b5b828110156106165760008152602001610602565b50929c50505050505050565b6303daa959598160e01b8152836004820152602081602483336000905af158600e01573d6000803e3d6000fd5b3d6001141558600a015760016000f35b8051935060005b60408110156102be57600082820152602001610666565b638435035b598160e01b8152836004820152602081602483336000905af158600e01573d6000803e3d6000fd5b3d6001141558600a015760016000f35b80516000825293506020610666565b638540661f598160e01b8152610568565b6322bd64c0598160e01b8152836004820152846024820152600081604483336000905af158600e01573d6000803e3d6000fd5b3d6001141558600a015760016000f35b60008152602061066656",
  "deployedBytecode": "0x60806040523480156200001c576000806200001962002c1a565b50505b5060043610620002df5760003560e01c80638da5cb5b1162000194578063bee37e5211620000ec578063e99c0fa6116200009e578063e99c0fa614620005fc578063ebee461d1462000613578063ecef89d5146200061d578063eec16c441462000634578063f2fde38b146200064b578063f8c8765e146200066257620002df565b8063bee37e52146200057f578063bfeaf71d1462000596578063cc435bf314620005a0578063d050059014620005b7578063e5ac13a914620005ce578063e60eb41214620005e557620002df565b8063aa7d664e1162000146578063aa7d664e1462000502578063b187bd261462000519578063b193a5f41462000523578063b3596f07146200053a578063b7a545261462000551578063bcb01f44146200056857620002df565b80638da5cb5b146200049c57806394d0d23b14620004a65780639a068bd614620004c05780639a3cac6a14620004d75780639cada6e414620004ee578063aa12ae4d14620004f857620002df565b806345812ca511620002485780637027ea6c11620001fa5780637027ea6c146200042c578063715018a61462000443578063771d1baf146200044d57806378a86e3a1462000464578063808ae5fb146200047b5780638456cb59146200049257620002df565b806345812ca514620003ba57806349f7c02d14620003d15780635556ee5514620003db5780635b16ebb714620003f25780635c975abb14620004185780635c9bfc2b146200042257620002df565b80631d68702d11620002a25780631d68702d14620003575780631e666d1314620003615780631e8e8bca1462000378578063227773ee146200038f5780633f4ba83a14620003a65780634501b08814620003b057620002df565b8063046b72c414620002ef57806309ed489314620003085780630bf99bd9146200032a5780630f6559c4146200034357806310bf69dc146200034d575b600080620002ec62002c1a565b50505b620003066200030036600462003332565b62000679565b005b62000312620007f2565b60405162000321919062003729565b60405180910390f35b6200033462000816565b604051620003219190620038c8565b620003346200082b565b620003346200083b565b6200031262000848565b62000306620003723660046200358a565b62000857565b6200030662000389366004620034b2565b620009c9565b62000306620003a03660046200327b565b62000a45565b6200030662000ac0565b6200033462000b3b565b62000312620003cb366004620034d6565b62000b4f565b6200033462000b66565b62000334620003ec36600462003227565b62000b75565b620004096200040336600462003227565b62000b90565b604051620003219190620038bd565b6200040962000bba565b6200033462000bd8565b620003126200043d36600462003227565b62000be7565b6200030662000d40565b620003066200045e3660046200355d565b62000e3c565b620003126200047536600462003395565b62000eb6565b620003066200048c3660046200327b565b62001276565b620003066200135a565b62000312620013d3565b620004b0620013e2565b6040516200032192919062003b7c565b62000312620004d1366004620034b2565b62001407565b62000306620004e836600462003227565b62001449565b620004b0620014c2565b62000334620014df565b6200030662000513366004620034b2565b620014ee565b6200040962001567565b620004096200053436600462003227565b62001573565b620003346200054b36600462003227565b62001590565b620004b06200056236600462003227565b6200165c565b6200030662000579366004620034b2565b62001716565b620003346200059036600462003227565b62001799565b62000334620017b4565b62000409620005b136600462003227565b620017c1565b62000306620005c8366004620036ad565b6200189f565b62000306620005df36600462003227565b6200191a565b62000334620005f636600462003227565b62001993565b620003066200060d366004620034b2565b620019ae565b6200033462001a2b565b620003126200062e36600462003659565b62001a3a565b6200030662000645366004620034b2565b62001a7d565b620003066200065c36600462003227565b62001af6565b6200030662000673366004620032c3565b62001c32565b61010360005a6200068962002c87565b6001600160a01b03166001600160a01b03168152602001908152602001600020600090620006b662002cde565b906101000a900460ff1615156001151514620006fa5760405162461bcd60e51b8152600401620006e690620038d1565b60405180910390620006f762002c1a565b50505b6001600160a01b0382166000908152610102602052604090206000906200072062002cde565b906101000a900460ff1615156001151514620007645760405162461bcd60e51b8152600401620007509062003b45565b604051809103906200076162002c1a565b50505b6200079f61010d6200077562002cde565b6001600160a01b0384166000908152610106602052604090206200079862002cde565b9062001df8565b811115620007d55760405162461bcd60e51b8152600401620007c19062003a18565b60405180910390620007d262002c1a565b50505b620007ee8282610105620007e862002cde565b62001e3a565b5050565b60008060ff6200080162002cde565b906101000a90046001600160a01b0316905090565b600060fd806200082562002cde565b91505090565b61010c6200083862002cde565b81565b61010d6200083862002cde565b60008060fe6200080162002cde565b6200086162001ee3565b6001600160a01b0316600060976200087862002cde565b906101000a90046001600160a01b03166001600160a01b031614620008c55760405162461bcd60e51b8152600401620008b19062003ac2565b60405180910390620008c262002c1a565b50505b848611158015620008e3575060fd80620008de62002cde565b905086105b8015620008fd575060fd80620008f862002cde565b905085105b620009305760405162461bcd60e51b81526004016200091c906200392b565b604051809103906200092d62002c1a565b50505b855b858111620009c057600060fd82816200094a62002cde565b81106200095357fe5b906000526020600020016000906200096a62002cde565b6001600160a01b036101009290920a900416600081815261010b6020529091508690604090206200099a62002cde565b14620009a75750620009b7565b620009b58185858862001ef0565b505b60010162000932565b50505050505050565b620009d362001ee3565b6001600160a01b031660006097620009ea62002cde565b906101000a90046001600160a01b03166001600160a01b03161462000a375760405162461bcd60e51b815260040162000a239062003ac2565b6040518091039062000a3462002c1a565b50505b62000a42816200204f565b50565b600060fe62000a5362002cde565b906101000a90046001600160a01b03166001600160a01b03165a62000a7762002c87565b6001600160a01b03161462000ab45760405162461bcd60e51b815260040162000aa090620039d0565b6040518091039062000ab162002c1a565b50505b620007ee82826200205e565b600060fe62000ace62002cde565b906101000a90046001600160a01b03166001600160a01b03165a62000af262002c87565b6001600160a01b03161462000b2f5760405162461bcd60e51b815260040162000b1b90620039d0565b6040518091039062000b2c62002c1a565b50505b62000b3962002086565b565b600061010862000b4a62002cde565b905090565b600062000b5d838362002140565b90505b92915050565b600061010a62000b4a62002cde565b61010b60205280600052604060002090506200083862002cde565b6101026020528060005260406000206000915062000bad62002cde565b906101000a900460ff1681565b600080606562000bc962002cde565b906101000a900460ff16905090565b600061010d62000b4a62002cde565b600062000bf482620017c1565b1562000d025760008060ff62000c0962002cde565b906101000a90046001600160a01b03166001600160a01b031663032c49ed846040518263ffffffff1660e01b815260040162000c46919062003729565b602060405180830381868062000c5b62002d2b565b15801562000c735760008062000c7062002c1a565b50505b505a62000c7f62002d78565b505050505015801562000ca1573d6000803e3d600062000c9e62002c1a565b50505b50505050604051601f3d908101601f1916820160405262000cc6919081019062003683565b60ff811660009081526101106020529091506040902060009062000ce962002cde565b906101000a90046001600160a01b031691505062000d3b565b6001600160a01b038216600090815261010f6020526040902060009062000d2862002cde565b906101000a90046001600160a01b031690505b919050565b62000d4a62001ee3565b6001600160a01b03166000609762000d6162002cde565b906101000a90046001600160a01b03166001600160a01b03161462000dae5760405162461bcd60e51b815260040162000d9a9062003ac2565b6040518091039062000dab62002c1a565b50505b600080609762000dbd62002cde565b906101000a90046001600160a01b03166001600160a01b03167f8be0079c531659141344cd1fd0a4f28419497f9722a3daafe3b4186f6b6457e060405160405180910390a36000609760018162000e1362002cde565b816001600160a01b0302191690836001600160a01b031602179062000e3762002e6e565b505050565b62000e4662001ee3565b6001600160a01b03166000609762000e5d62002cde565b906101000a90046001600160a01b03166001600160a01b03161462000eaa5760405162461bcd60e51b815260040162000e969062003ac2565b6040518091039062000ea762002c1a565b50505b620007ee82826200227d565b600060605a63996d79a5598160e01b8152602081600483336000905af158601d01573d60011458600c01573d6000803e3d621234565260ea61109c528051925060005b604081101562000f125760008282015260200162000ef9565b50505088888560405160240162000f2d94939291906200373d565b604051601f19818303018152604091909152630a3df85f60e11b6020820180516001600160e01b031690911790529050600062000f6c82600162000b4f565b905060605a63996d79a5598160e01b8152602081600483336000905af158601d01573d60011458600c01573d6000803e3d621234565260ea61109c528051925060005b604081101562000fc85760008282015260200162000faf565b5050508b89898560405160240162000fe5959493929190620037c1565b604051601f19818303018152604091909152630ccb30c760e01b6020820180516001600160e01b03169091179052905060006200102482600262000b4f565b9050826001600160a01b0316638e10153d826040518263ffffffff1660e01b815260040162001054919062003729565b602060405180830381600087806200106b62002d2b565b15801562001083576000806200108062002c1a565b50505b505a6200108f62002ebd565b505050505050158015620010b2573d6000803e3d6000620010af62002c1a565b50505b50505050604051601f3d908101601f19168201604052620010d791908101906200336b565b508060fd80600181620010e962002cde565b018082620010f662002e6e565b5050600092835260001901916020915020016001816200111562002cde565b816001600160a01b0302191690836001600160a01b03160217906200113962002e6e565b5050506001600160a01b0381166000908152610102602052600190604090206001816200116562002cde565b8160ff021916908315150217906200117c62002e6e565b5050506001600160a01b038316600090815261010360205260019060409020600181620011a862002cde565b8160ff02191690831515021790620011bf62002e6e565b50505061010c620011cf62002cde565b6001600160a01b038216600090815261010b602052604090208190620011f462002e6e565b5050506200120a8188610105620007e862002cde565b7f73a0638fe578fc759744633aa170a433061ca2cc1bb855d116c506e04a29901f818d8b8d8f5a6200123b62002f8b565b8d6101056200124962002cde565b6040516200125f98979695949392919062003817565b60405180910390a19b9a5050505050505050505050565b6200128062001ee3565b6001600160a01b0316600060976200129762002cde565b906101000a90046001600160a01b03166001600160a01b031614620012e45760405162461bcd60e51b8152600401620012d09062003ac2565b60405180910390620012e162002c1a565b50505b8160c9600181620012f462002cde565b816001600160a01b0302191690836001600160a01b03160217906200131862002e6e565b5050508060ca60006101000a816200132f62002cde565b816001600160a01b0302191690836001600160a01b03160217906200135362002e6e565b5050505050565b600060fe6200136862002cde565b906101000a90046001600160a01b03166001600160a01b03165a6200138c62002c87565b6001600160a01b031614620013c95760405162461bcd60e51b8152600401620013b590620039d0565b60405180910390620013c662002c1a565b50505b62000b3962002318565b60008060976200080162002cde565b600080610104620013f262002cde565b610105620013ff62002cde565b915091509091565b60fd81816200141562002cde565b81106200141e57fe5b90600052602060002001600091506200143662002cde565b906101000a90046001600160a01b031681565b6200145362001ee3565b6001600160a01b0316600060976200146a62002cde565b906101000a90046001600160a01b03166001600160a01b031614620014b75760405162461bcd60e51b8152600401620014a39062003ac2565b60405180910390620014b462002c1a565b50505b62000a4281620023b9565b600080610100620014d262002cde565b610101620013ff62002cde565b600061010962000b4a62002cde565b620014f862001ee3565b6001600160a01b0316600060976200150f62002cde565b906101000a90046001600160a01b03166001600160a01b0316146200155c5760405162461bcd60e51b8152600401620015489062003ac2565b604051809103906200155962002c1a565b50505b62000a42816200242c565b600062000b4a62000bba565b6101036020528060005260406000206000915062000bad62002cde565b60008060ff6200159f62002cde565b906101000a90046001600160a01b03166001600160a01b0316638b2f0f4f836040518263ffffffff1660e01b8152600401620015dc919062003729565b6020604051808303818680620015f162002d2b565b15801562001609576000806200160662002c1a565b50505b505a6200161562002d78565b505050505015801562001637573d6000803e3d60006200163462002c1a565b50505b50505050604051601f3d908101601f1916820160405262000b60919081019062003537565b6001600160a01b038116600090815261010260205280604081206000906200168362002cde565b906101000a900460ff1615156001151514620016c75760405162461bcd60e51b8152600401620016b39062003b45565b60405180910390620016c462002c1a565b50505b6001600160a01b038316600090815261010660205260409020620016ea62002cde565b6001600160a01b0384166000908152610107602052604090206200170d62002cde565b91509150915091565b6200172062001ee3565b6001600160a01b0316600060976200173762002cde565b906101000a90046001600160a01b03166001600160a01b031614620017845760405162461bcd60e51b8152600401620017709062003ac2565b604051809103906200178162002c1a565b50505b808061010e6200179362002e6e565b50505050565b61010660205280600052604060002090506200083862002cde565b61010e6200083862002cde565b6000808060ff620017d162002cde565b906101000a90046001600160a01b03166001600160a01b03166329a42d56846040518263ffffffff1660e01b81526004016200180e919062003729565b60206040518083038186806200182362002d2b565b1580156200183b576000806200183862002c1a565b50505b505a6200184762002d78565b505050505015801562001869573d6000803e3d60006200186662002c1a565b50505b50505050604051601f3d908101601f191682016040526200188e919081019062003251565b6001600160a01b0316141592915050565b600060fe620018ad62002cde565b906101000a90046001600160a01b03166001600160a01b03165a620018d162002c87565b6001600160a01b0316146200190e5760405162461bcd60e51b8152600401620018fa90620039d0565b604051809103906200190b62002c1a565b50505b620007ee82826200246f565b6200192462001ee3565b6001600160a01b0316600060976200193b62002cde565b906101000a90046001600160a01b03166001600160a01b031614620019885760405162461bcd60e51b8152600401620019749062003ac2565b604051809103906200198562002c1a565b50505b62000a428162002491565b61010760205280600052604060002090506200083862002cde565b620019b862001ee3565b6001600160a01b031660006097620019cf62002cde565b906101000a90046001600160a01b03166001600160a01b03161462001a1c5760405162461bcd60e51b815260040162001a089062003ac2565b6040518091039062001a1962002c1a565b50505b808061010d6200179362002e6e565b600061010e62000b4a62002cde565b60008160ff166001141562001a6f57600060ca62001a5762002cde565b906101000a90046001600160a01b0316905062000d3b565b600060c962001a5762002cde565b62001a8762001ee3565b6001600160a01b03166000609762001a9e62002cde565b906101000a90046001600160a01b03166001600160a01b03161462001aeb5760405162461bcd60e51b815260040162001ad79062003ac2565b6040518091039062001ae862002c1a565b50505b62000a4281620024a1565b62001b0062001ee3565b6001600160a01b03166000609762001b1762002cde565b906101000a90046001600160a01b03166001600160a01b03161462001b645760405162461bcd60e51b815260040162001b509062003ac2565b6040518091039062001b6162002c1a565b50505b6001600160a01b03811662001ba15760405162461bcd60e51b815260040162001b8d9062003953565b6040518091039062001b9e62002c1a565b50505b6001600160a01b0381166000609762001bb962002cde565b906101000a90046001600160a01b03166001600160a01b03167f8be0079c531659141344cd1fd0a4f28419497f9722a3daafe3b4186f6b6457e060405160405180910390a380609760018162001c0e62002cde565b816001600160a01b0302191690836001600160a01b03160217906200179362002e6e565b6001600062001c4062002cde565b906101000a900460ff168062001c5b575062001c5b620024e4565b8062001c7b575060008062001c6f62002cde565b906101000a900460ff16155b62001cae5760405162461bcd60e51b815260040162001c9a9062003af7565b6040518091039062001cab62002c1a565b50505b600060018162001cbd62002cde565b906101000a900460ff16159050801562001d2c57600160006101008162001ce362002cde565b8160ff0219169083151502179062001cfa62002e6e565b50505060016000806101000a8162001d1162002cde565b8160ff0219169083151502179062001d2862002e6e565b5050505b62001d38858562002559565b62001d4262002563565b62001d4d8362002491565b62001d5882620023b9565b62001d68611388612710620026a0565b62001d76600a60646200227d565b62001d84620151806200242c565b62001d926224ea0062001716565b62001d9f6103e8620019ae565b62001dab600a620024a1565b62001dbf6544484544474560d01b6200204f565b801562001353576000806101008162001dd762002cde565b8160ff0219169083151502179062001dee62002e6e565b5050505050505050565b60008282018381101562000b5d5760405162461bcd60e51b815260040162001e209062003999565b6040518091039062001e3162002c1a565b50509392505050565b80821115801562001e57575061010462001e5362002cde565b8211155b62001e8a5760405162461bcd60e51b815260040162001e769062003a98565b6040518091039062001e8762002c1a565b50505b6001600160a01b0383166000908152610106602052829060409020819062001eb162002e6e565b5050506001600160a01b0383166000908152610107602052819060409020819062001edb62002e6e565b505050505050565b60005a62000b4a62002c87565b6001600160a01b03841662001f2d5760405162461bcd60e51b815260040162001f199062003a70565b6040518091039062001f2a62002c1a565b50505b8162001f615760405162461bcd60e51b815260040162001f4d90620039f2565b6040518091039062001f5e62002c1a565b50505b606083838080601f01602080910402602001604051908101604052818152929190602084018383808284376000920182905250939450839250849150505160208401885a62001faf62002fd2565b505050505080156001811462001fc55762001fdc565b3d806000803e80600062001fd862002c1a565b5050505b5050846001600160a01b03165a62001ff362002c87565b6001600160a01b03167f78a9b536049c39a00adaf57016b1376c99dd48a0faf2cef23690232f21ce42cc60405160405180910390a36001600160a01b038516600090815261010b602052829060409020819062001dee62002e6e565b808061010a6200179362002e6e565b6001600160a01b038216600090815261010f6020528190604090206001816200132f62002cde565b600060656200209462002cde565b906101000a900460ff16620020d15760405162461bcd60e51b8152600401620020bd90620038fd565b60405180910390620020ce62002c1a565b50505b60006065600181620020e262002cde565b8160ff02191690831515021790620020f962002e6e565b5050507f5db9ee0a495bf2e6ff9c91a7834c1ba4fdd244a5e8aa4e537bd38aeae4b073aa6200212762001ee3565b60405162002136919062003729565b60405180910390a1565b6000806200214d620026f9565b90507efffc2da0b561cae30d9826d37709e9421c4725faebc226cbbb7ef5fc5e7349816040516200217f919062003729565b60405180910390a1806001600160a01b031663e74a474a5a63996d79a5598160e01b8152602081600483336000905af158601d01573d60011458600c01573d6000803e3d621234565260ea61109c528051925060005b6040811015620021ee57600082820152602001620021d5565b50505086866040518463ffffffff1660e01b8152600401620022139392919062003884565b600060405180830381600087806200222a62002d2b565b15801562002242576000806200223f62002c1a565b50505b505a6200224e62002ebd565b50505050505015801562002271573d6000803e3d60006200226e62002c1a565b50505b50929695505050505050565b80821115620022b45760405162461bcd60e51b8152600401620022a09062003a98565b60405180910390620022b162002c1a565b50505b8180610100620022c362002e6e565b505050806101018190620022d662002e6e565b5050507fb10da2958bf5ec1bff3164ff753a09e0460ed44d3abf73e79b817b500ed0f2f182826040516200230c92919062003b7c565b60405180910390a15050565b600060656200232662002cde565b906101000a900460ff1615620023645760405162461bcd60e51b8152600401620023509062003a46565b604051809103906200236162002c1a565b50505b6001606581816200237462002cde565b8160ff021916908315150217906200238b62002e6e565b5050507f62e78cea01bee320cd4e420270b5ea74000d11b0c9f74754ebdbfc544b05a2586200212762001ee3565b8060fe600181620023c962002cde565b816001600160a01b0302191690836001600160a01b0316021790620023ed62002e6e565b5050507ff1034ad6b4d45dc33a4142b9c51c2b7f89bf4a410696e426cc0f3224869e0aca8160405162002421919062003729565b60405180910390a150565b80806101086200243b62002e6e565b5050507f20d916c976f3971e8200089411b0b712ef4612d98380b8ad2e3d8a8a376d85c781604051620024219190620038c8565b60ff821660009081526101106020528190604090206001816200132f62002cde565b8060ff60018162001c0e62002cde565b8080610109620024b062002e6e565b5050507f0cd8fcb5e08d7632af461f0ad793e5c63dc0d7595c301f5880650175e37a874881604051620024219190620038c8565b6000805a63996d79a5598160e01b8152602081600483336000905af158601d01573d60011458600c01573d6000803e3d621234565260ea61109c528051925060005b60408110156200253f5760008282015260200162002526565b50505090506000816200255162002d2b565b159250505090565b620012e462002760565b600160006200257162002cde565b906101000a900460ff16806200258c57506200258c620024e4565b80620025ac5750600080620025a062002cde565b906101000a900460ff16155b620025df5760405162461bcd60e51b8152600401620025cb9062003af7565b60405180910390620025dc62002c1a565b50505b6000600181620025ee62002cde565b906101000a900460ff1615905080156200265d5760016000610100816200261462002cde565b8160ff021916908315150217906200262b62002e6e565b50505060016000806101000a816200264262002cde565b8160ff021916908315150217906200265962002e6e565b5050505b620026676200286e565b620026716200297f565b801562000a4257600080610100816200268962002cde565b8160ff021916908315150217906200179362002e6e565b80821115620026d75760405162461bcd60e51b8152600401620026c39062003a98565b60405180910390620026d462002c1a565b50505b8180610104620026e662002e6e565b5050508061010581906200135362002e6e565b60008060606040516200270f6020820162002fe4565b601f1982820381018352601f90910116604052905080516020820160006200273662002ff2565b50509150816200274562002d2b565b6200275a576000806200275762002c1a565b50505b50905090565b600160006200276e62002cde565b906101000a900460ff168062002789575062002789620024e4565b80620027a957506000806200279d62002cde565b906101000a900460ff16155b620027dc5760405162461bcd60e51b8152600401620027c89062003af7565b60405180910390620027d962002c1a565b50505b6000600181620027eb62002cde565b906101000a900460ff1615905080156200285a5760016000610100816200281162002cde565b8160ff021916908315150217906200282862002e6e565b50505060016000806101000a816200283f62002cde565b8160ff021916908315150217906200285662002e6e565b5050505b620028646200286e565b6200267162002a8a565b600160006200287c62002cde565b906101000a900460ff168062002897575062002897620024e4565b80620028b75750600080620028ab62002cde565b906101000a900460ff16155b620028ea5760405162461bcd60e51b8152600401620028d69062003af7565b60405180910390620028e762002c1a565b50505b6000600181620028f962002cde565b906101000a900460ff161590508015620026715760016000610100816200291f62002cde565b8160ff021916908315150217906200293662002e6e565b50505060016000806101000a816200294d62002cde565b8160ff021916908315150217906200296462002e6e565b505050801562000a4257600080610100816200268962002cde565b600160006200298d62002cde565b906101000a900460ff1680620029a85750620029a8620024e4565b80620029c85750600080620029bc62002cde565b906101000a900460ff16155b620029fb5760405162461bcd60e51b8152600401620029e79062003af7565b60405180910390620029f862002c1a565b50505b600060018162002a0a62002cde565b906101000a900460ff16159050801562002a7957600160006101008162002a3062002cde565b8160ff0219169083151502179062002a4762002e6e565b50505060016000806101000a8162002a5e62002cde565b8160ff0219169083151502179062002a7562002e6e565b5050505b600060656001816200294d62002cde565b6001600062002a9862002cde565b906101000a900460ff168062002ab3575062002ab3620024e4565b8062002ad3575060008062002ac762002cde565b906101000a900460ff16155b62002b065760405162461bcd60e51b815260040162002af29062003af7565b6040518091039062002b0362002c1a565b50505b600060018162002b1562002cde565b906101000a900460ff16159050801562002b8457600160006101008162002b3b62002cde565b8160ff0219169083151502179062002b5262002e6e565b50505060016000806101000a8162002b6962002cde565b8160ff0219169083151502179062002b8062002e6e565b5050505b600062002b9062001ee3565b905080609760018162002ba262002cde565b816001600160a01b0302191690836001600160a01b031602179062002bc662002e6e565b5050506001600160a01b03811660007f8be0079c531659141344cd1fd0a4f28419497f9722a3daafe3b4186f6b6457e060405160405180910390a350801562000a4257600080610100816200268962002cde565b632a2a7adb598160e01b8152600481016020815285602082015260005b8681101562002c5457808601518282016040015260200162002c37565b506020828760640184336000905af158601d01573d60011458600c01573d6000803e3d621234565260ea61109c52505050565b6373509064598160e01b8152602081600483336000905af158601d01573d60011458600c01573d6000803e3d621234565260ea61109c528051935060005b604081101562000e375760008282015260200162002cc5565b6303daa959598160e01b8152836004820152602081602483336000905af158601d01573d60011458600c01573d6000803e3d621234565260ea61109c528051600082529350602062002cc5565b638435035b598160e01b8152836004820152602081602483336000905af158601d01573d60011458600c01573d6000803e3d621234565260ea61109c528051600082529350602062002cc5565b638540661f598160e01b815262002dac565b808083111562000b60575090919050565b808083101562000b60575090919050565b836004820152846024820152606060448201528660648201526084810160005b8881101562002de657808801518282015260200162002dcc565b506060828960a40184336000905af158601d01573d60011458600c01573d6000803e3d621234565260ea61109c52815160408301513d6000853e8b8b82606087013350600060045af1505962002e3d8d3d62002d9b565b8c0162002e4b818762002d8a565b5b8281101562002e62576000815260200162002e4c565b50929c50505050505050565b6322bd64c0598160e01b8152836004820152846024820152600081604483336000905af158601d01573d60011458600c01573d6000803e3d621234565260ea61109c5260008152602062002cc5565b6385979f76598160e01b8152836004820152846024820152606060448201528760648201526084810160005b8981101562002f0357808901518282015260200162002ee9565b506060828a60a40184336000905af158601d01573d60011458600c01573d6000803e3d621234565260ea61109c52815160408301513d6000853e8c8c82606087013350600060045af1505962002f5a8e3d62002d9b565b8d0162002f68818762002d8a565b5b8281101562002f7f576000815260200162002f69565b50929d50505050505050565b63bdbf8c36598160e01b8152602081600483336000905af158601d01573d60011458600c01573d6000803e3d621234565260ea61109c528051600082529350602062002cc5565b63ffe73914598160e01b815262002dac565b6107c18062003c0f83390190565b6314aa2ff7598160e01b8152600481016020815286602082015260005b878110156200302c5780870151828201604001526020016200300f565b506020828860640184336000905af158601d01573d60011458600c01573d6000803e3d621234565260ea61109c528151965059825b8181101562001353576000815260200162003061565b803562000b608162003bc1565b600082601f830112620030a05780816200309d62002c1a565b50505b813567ffffffffffffffff811115620030c2578182620030bf62002c1a565b50505b6020620030d3818284020162003b8a565b8281529250808301848201604080850287018401881015620030ff57600080620030fc62002c1a565b50505b60005b858110156200312a57620031178984620031d2565b8452928401929181019160010162003102565b50505050505092915050565b803562000b608162003bdf565b600082601f8301126200315f5780816200315c62002c1a565b50505b813567ffffffffffffffff811115620031815781826200317e62002c1a565b50505b62003196601f8201601f191660200162003b8a565b9150808252836020828501011115620031b957600080620031b662002c1a565b50505b8060208401602084013760009082016020015292915050565b600060408284031215620031ef578081620031ec62002c1a565b50505b620031fb604062003b8a565b905081356200320a8162003bc1565b815260208201356200321c8162003bdf565b602082015292915050565b600060208284031215620032445780816200324162002c1a565b50505b813562000b5d8162003bc1565b6000602082840312156200326e5780816200326b62002c1a565b50505b815162000b5d8162003bc1565b60008060408385031215620032995780816200329662002c1a565b50505b8235620032a68162003bc1565b91506020830135620032b88162003bc1565b809150509250929050565b60008060008060808587031215620032e4578182620032e162002c1a565b50505b8435620032f18162003bc1565b93506020850135620033038162003bc1565b92506040850135620033158162003bc1565b91506060850135620033278162003bc1565b939692955090935050565b60008060408385031215620033505781826200334d62002c1a565b50505b82356200335d8162003bc1565b946020939093013593505050565b600060208284031215620033885780816200338562002c1a565b50505b815162000b5d8162003bdf565b600080600080600080600060e0888a031215620033bb578283620033b862002c1a565b50505b620033c7898962003136565b9650620033d88960208a0162003077565b9550604088013567ffffffffffffffff8082111562003400578485620033fd62002c1a565b50505b6200340e8b838c0162003143565b965060608a01359150808211156200342f5784856200342c62002c1a565b50505b6200343d8b838c0162003143565b955060808a01359150808211156200345e5784856200345b62002c1a565b50505b6200346c8b838c0162003143565b945060a08a0135935060c08a0135915080821115620034945782836200349162002c1a565b50505b50620034a38a828b0162003084565b91505092959891949750929550565b600060208284031215620034cf578081620034cc62002c1a565b50505b5035919050565b60008060408385031215620034f4578182620034f162002c1a565b50505b823567ffffffffffffffff811115620035165782836200351362002c1a565b50505b620035248582860162003143565b9250506020830135620032b88162003bf6565b600060208284031215620035545780816200355162002c1a565b50505b81519392505050565b600080604083850312156200357b5781826200357862002c1a565b50505b50508035926020909101359150565b60008060008060008060a08789031215620035ae578384620035ab62002c1a565b50505b86359550602087013594506040870135935060608701359250608087013567ffffffffffffffff80821115620035ed578384620035ea62002c1a565b50505b818901915089601f8301126200360c5783846200360962002c1a565b50505b813581811115620036265784856200362362002c1a565b50505b8a6020828501011115620036435784856200364062002c1a565b50505b6020830194508093505050509295509295509295565b600060208284031215620036765780816200367362002c1a565b50505b813562000b5d8162003bf6565b600060208284031215620036a05780816200369d62002c1a565b50505b815162000b5d8162003bf6565b60008060408385031215620036cb578182620036c862002c1a565b50505b8235620032a68162003bf6565b60008151808452815b818110156200370257602080828601015186830190910152602001620036e1565b81811115620037145782602083870101525b50601f01601f19169290920160200192915050565b6001600160a01b0391909116815260200190565b600060018060a01b03808716835260208187168185015260406080818601526200376b6080860188620036d8565b85810360608701528087518083528885019285019150865b81811015620037b05783518781511684528681015115158488015250928501929184019160010162003783565b50909b9a5050505050505050505050565b600060018060a01b038088168352861515602084015260a06040840152620037ed60a0840187620036d8565b8381036060850152620038018187620036d8565b9250508084166080840152509695505050505050565b6001600160a01b038981168252881515602083015261010060408301819052600091620038478483018b620036d8565b915083820360608501526200385d828a620036d8565b97166080840152505060a081019390935260c083019190915260e090910152949350505050565b6001600160a01b0384168152606060208201819052600090620038aa90830185620036d8565b905060ff83166040830152949350505050565b901515815260200190565b90815260200190565b6020808252601290820152712737ba1030903837b7b61036b0b730b3b2b960711b604082015260600190565b60208082526014908201527314185d5cd8589b194e881b9bdd081c185d5cd95960621b604082015260600190565b6020808252600e908201526d696e76616c696420626f756e647360901b604082015260600190565b60208082526026908201527f4f776e61626c653a206e6577206f776e657220697320746865207a65726f206160408201526564647265737360d01b606082015260800190565b6020808252601b908201527f536166654d6174683a206164646974696f6e206f766572666c6f770000000000604082015260600190565b6020808252600890820152676f6e6c792064616f60c01b604082015260600190565b6020808252600c908201526b19185d184b5a5b9d985b1a5960a21b604082015260600190565b6020808252601490820152730dac2dcc2cecae440cccaca40e8dede40d0d2ced60631b604082015260600190565b60208082526010908201526f14185d5cd8589b194e881c185d5cd95960821b604082015260600190565b6020808252600e908201526d1d185c99d95d0b5a5b9d985b1a5960921b604082015260600190565b60208082526010908201526f34b73b30b634b210333930b1ba34b7b760811b604082015260600190565b6020808252818101527f4f776e61626c653a2063616c6c6572206973206e6f7420746865206f776e6572604082015260600190565b6020808252602e908201527f436f6e747261637420696e7374616e63652068617320616c726561647920626560408201526d195b881a5b9a5d1a585b1a5e995960921b606082015260800190565b6020808252601e908201527f737570706c6965642061646472657373206973206e6f74206120706f6f6c0000604082015260600190565b918252602082015260400190565b6000604051905081810181811067ffffffffffffffff8211171562003bb95760008062003bb662002c1a565b50505b604052919050565b6001600160a01b038116811462000a425760008062000e3762002c1a565b801515811462000a425760008062000e3762002c1a565b60ff8116811462000a425760008062000e3762002c1a56fe60806040523480156100195760008061001661001f565b50505b5061008a565b632a2a7adb598160e01b8152600481016020815285602082015260005b8681101561005757808601518282016040015260200161003c565b506020828760640184336000905af158601d01573d60011458600c01573d6000803e3d621234565260ea61109c52505050565b610728806100996000396000f3fe6080604052600436106100225760003560e01c8063e74a474a1461003957610031565b366100315761002f610117565b005b61002f610117565b61002f60048036036060811015610058576000806100556104ca565b50505b6001600160a01b03823516919081019060408101602082013564010000000081111561008c576000806100896104ca565b50505b8201836020820111156100a7576000806100a46104ca565b50505b803590602001918460018302840111640100000000831117156100d2576000806100cf6104ca565b50505b91908080601f01602080910402602001604051908101604052818152929190602084018383808284376000920191909152509295505050903560ff1691506101319050565b61011f61012f565b61012f61012a6102c3565b6103c4565b565b600061013b6102c3565b6001600160a01b03161461018e5760405162461bcd60e51b815260206004820152600d60248201526c496d706c206e6f74207a65726f60981b60448201526064016040518091039061018b6104ca565b50505b61019783610401565b6101a08161048e565b6000825111156102be5760006101b46102c3565b6001600160a01b0316836040518082805190602001908083835b602083106101ed5780518252601f1990920191602091820191016101ce565b6001836020036101000a038019825116818451168082178552505050505050905001915050600060405180830381855a610225610535565b50505050509150503d8060008114610259576040513d603f01601f191681016040523d815291503d6000602084013e61025e565b606091505b50509050806102bc5760405162461bcd60e51b815260206004820152601a60248201527f496d706c656d656e746174696f6e20696e6974206661696c65640000000000006044820152606401604051809103906102b96104ca565b50505b505b505050565b6000807f360894a13ba1a3210667c828492db98dca3e2076cc3735a920a3ca505d382bbc806102f0610622565b91506001600160a01b03821661030b576000925050506103c1565b816001600160a01b031663ecef89d561032261049d565b6040516001600160e01b031960e084901b16815260ff9091166004820152602401602060405180830381868061035661067d565b15801561036b576000806103686104ca565b50505b505a6103756106c9565b5050505050158015610394573d6000803e3d60006103916104ca565b50505b505050506040513d60208110156103b3576000806103b06104ca565b50505b810190808051955050505050505b90565b3660008037600080366000845a6103d9610535565b50505050503d6000803e8080156103ef573d6000f35b3d60006103fa6104ca565b5050505050565b61040a816104b5565b6104635760405162461bcd60e51b815260206004820181905260248201527f43616e6e6f742073657420696d706c656d656e746174696f6e20746f20454f416044820152606401604051809103906104606104ca565b50505b7f360894a13ba1a3210667c828492db98dca3e2076cc3735a920a3ca505d382bbc81816102bc6106da565b600160fc1b81816102bc6106da565b600080600160fc1b806104ae610622565b9250505090565b600080826104c161067d565b15159392505050565b632a2a7adb598160e01b8152600481016020815285602082015260005b868110156105025780860151828201604001526020016104e7565b506020828760640184336000905af158601d01573d60011458600c01573d6000803e3d621234565260ea61109c52505050565b63ffe73914598160e01b8152610568565b80808311156105525750815b92915050565b8080831015610552575090919050565b836004820152846024820152606060448201528660648201526084810160005b888110156105a0578088015182820152602001610588565b506060828960a40184336000905af158601d01573d60011458600c01573d6000803e3d621234565260ea61109c52815160408301513d6000853e8b8b82606087013350600060045af150596105f58d3d610558565b8c016106018187610546565b5b828110156106165760008152602001610602565b50929c50505050505050565b6303daa959598160e01b8152836004820152602081602483336000905af158601d01573d60011458600c01573d6000803e3d621234565260ea61109c528051935060005b60408110156102be57600082820152602001610666565b638435035b598160e01b8152836004820152602081602483336000905af158601d01573d60011458600c01573d6000803e3d621234565260ea61109c5280516000825293506020610666565b638540661f598160e01b8152610568565b6322bd64c0598160e01b8152836004820152846024820152600081604483336000905af158601d01573d60011458600c01573d6000803e3d621234565260ea61109c5260008152602061066656",
  "linkReferences": {},
  "deployedLinkReferences": {}
}