{
  "_format": "hh-sol-artifact-1",
  "contractName": "PoolFactory",
  "sourceName": "contracts/PoolFactory.sol",
  "abi": [
    {
      "anonymous": false,
      "inputs": [
        {
          "indexed": true,
          "internalType": "address",
          "name": "asset",
          "type": "address"
        }
      ],
      "name": "AddedValidAsset",
      "type": "event"
    },
    {
      "anonymous": false,
      "inputs": [
        {
          "indexed": false,
          "internalType": "address",
          "name": "dao",
          "type": "address"
        }
      ],
      "name": "DaoAddressSet",
      "type": "event"
    },
    {
      "anonymous": false,
      "inputs": [
        {
          "indexed": false,
          "internalType": "uint256",
          "name": "numerator",
          "type": "uint256"
        },
        {
          "indexed": false,
          "internalType": "uint256",
          "name": "denominator",
          "type": "uint256"
        }
      ],
      "name": "DaoFeeSet",
      "type": "event"
    },
    {
      "anonymous": false,
      "inputs": [
        {
          "indexed": false,
          "internalType": "uint256",
          "name": "cooldown",
          "type": "uint256"
        }
      ],
      "name": "ExitCooldownSet",
      "type": "event"
    },
    {
      "anonymous": false,
      "inputs": [
        {
          "indexed": false,
          "internalType": "uint256",
          "name": "numerator",
          "type": "uint256"
        },
        {
          "indexed": false,
          "internalType": "uint256",
          "name": "denominator",
          "type": "uint256"
        }
      ],
      "name": "ExitFeeSet",
      "type": "event"
    },
    {
      "anonymous": false,
      "inputs": [
        {
          "indexed": false,
          "internalType": "address",
          "name": "fundAddress",
          "type": "address"
        },
        {
          "indexed": false,
          "internalType": "bool",
          "name": "isPoolPrivate",
          "type": "bool"
        },
        {
          "indexed": false,
          "internalType": "string",
          "name": "fundName",
          "type": "string"
        },
        {
          "indexed": false,
          "internalType": "string",
          "name": "managerName",
          "type": "string"
        },
        {
          "indexed": false,
          "internalType": "address",
          "name": "manager",
          "type": "address"
        },
        {
          "indexed": false,
          "internalType": "uint256",
          "name": "time",
          "type": "uint256"
        },
        {
          "indexed": false,
          "internalType": "uint256",
          "name": "managerFeeNumerator",
          "type": "uint256"
        },
        {
          "indexed": false,
          "internalType": "uint256",
          "name": "managerFeeDenominator",
          "type": "uint256"
        }
      ],
      "name": "FundCreated",
      "type": "event"
    },
    {
      "anonymous": false,
      "inputs": [
        {
          "indexed": true,
          "internalType": "address",
          "name": "manager",
          "type": "address"
        },
        {
          "indexed": true,
          "internalType": "address",
          "name": "pool",
          "type": "address"
        }
      ],
      "name": "LogUpgrade",
      "type": "event"
    },
    {
      "anonymous": false,
      "inputs": [
        {
          "indexed": false,
          "internalType": "uint256",
          "name": "count",
          "type": "uint256"
        }
      ],
      "name": "MaximumSupportedAssetCountSet",
      "type": "event"
    },
    {
      "anonymous": false,
      "inputs": [
        {
          "indexed": true,
          "internalType": "address",
          "name": "previousOwner",
          "type": "address"
        },
        {
          "indexed": true,
          "internalType": "address",
          "name": "newOwner",
          "type": "address"
        }
      ],
      "name": "OwnershipTransferred",
      "type": "event"
    },
    {
      "anonymous": false,
      "inputs": [
        {
          "indexed": false,
          "internalType": "address",
          "name": "proxy",
          "type": "address"
        }
      ],
      "name": "ProxyCreated",
      "type": "event"
    },
    {
      "anonymous": false,
      "inputs": [
        {
          "indexed": true,
          "internalType": "address",
          "name": "asset",
          "type": "address"
        }
      ],
      "name": "RemovedValidAsset",
      "type": "event"
    },
    {
      "inputs": [
        {
          "internalType": "address",
          "name": "asset",
          "type": "address"
        },
        {
          "internalType": "address",
          "name": "aggregator",
          "type": "address"
        }
      ],
      "name": "addValidAsset",
      "outputs": [],
      "stateMutability": "nonpayable",
      "type": "function"
    },
    {
      "inputs": [
        {
          "internalType": "bytes32",
          "name": "c__0x963a8c0f",
          "type": "bytes32"
        }
      ],
      "name": "c_0x963a8c0f",
      "outputs": [],
      "stateMutability": "pure",
      "type": "function"
    },
    {
      "inputs": [
        {
          "internalType": "bytes32",
          "name": "c__0x9cbb386d",
          "type": "bytes32"
        }
      ],
      "name": "c_0x9cbb386d",
      "outputs": [],
      "stateMutability": "pure",
      "type": "function"
    },
    {
      "inputs": [
        {
          "internalType": "bytes32",
          "name": "c__0xfcdc832b",
          "type": "bytes32"
        }
      ],
      "name": "c_0xfcdc832b",
      "outputs": [],
      "stateMutability": "pure",
      "type": "function"
    },
    {
      "inputs": [
        {
          "internalType": "bool",
          "name": "_privatePool",
          "type": "bool"
        },
        {
          "internalType": "address",
          "name": "_manager",
          "type": "address"
        },
        {
          "internalType": "string",
          "name": "_managerName",
          "type": "string"
        },
        {
          "internalType": "string",
          "name": "_fundName",
          "type": "string"
        },
        {
          "internalType": "string",
          "name": "_fundSymbol",
          "type": "string"
        },
        {
          "internalType": "uint256",
          "name": "_managerFeeNumerator",
          "type": "uint256"
        },
        {
          "components": [
            {
              "internalType": "address",
              "name": "asset",
              "type": "address"
            },
            {
              "internalType": "bool",
              "name": "isDeposit",
              "type": "bool"
            }
          ],
          "internalType": "struct IPoolManagerLogic.Asset[]",
          "name": "_supportedAssets",
          "type": "tuple[]"
        }
      ],
      "name": "createFund",
      "outputs": [
        {
          "internalType": "address",
          "name": "",
          "type": "address"
        }
      ],
      "stateMutability": "nonpayable",
      "type": "function"
    },
    {
      "inputs": [
        {
          "internalType": "bytes",
          "name": "_data",
          "type": "bytes"
        },
        {
          "internalType": "uint8",
          "name": "_proxyType",
          "type": "uint8"
        }
      ],
      "name": "deploy",
      "outputs": [
        {
          "internalType": "address",
          "name": "",
          "type": "address"
        }
      ],
      "stateMutability": "nonpayable",
      "type": "function"
    },
    {
      "inputs": [
        {
          "internalType": "uint256",
          "name": "",
          "type": "uint256"
        }
      ],
      "name": "deployedFunds",
      "outputs": [
        {
          "internalType": "address",
          "name": "",
          "type": "address"
        }
      ],
      "stateMutability": "view",
      "type": "function"
    },
    {
      "inputs": [],
      "name": "deployedFundsLength",
      "outputs": [
        {
          "internalType": "uint256",
          "name": "",
          "type": "uint256"
        }
      ],
      "stateMutability": "view",
      "type": "function"
    },
    {
      "inputs": [],
      "name": "disableChainlink",
      "outputs": [],
      "stateMutability": "nonpayable",
      "type": "function"
    },
    {
      "inputs": [],
      "name": "enableChainlink",
      "outputs": [],
      "stateMutability": "nonpayable",
      "type": "function"
    },
    {
      "inputs": [],
      "name": "getDaoAddress",
      "outputs": [
        {
          "internalType": "address",
          "name": "",
          "type": "address"
        }
      ],
      "stateMutability": "view",
      "type": "function"
    },
    {
      "inputs": [],
      "name": "getDaoFee",
      "outputs": [
        {
          "internalType": "uint256",
          "name": "",
          "type": "uint256"
        },
        {
          "internalType": "uint256",
          "name": "",
          "type": "uint256"
        }
      ],
      "stateMutability": "view",
      "type": "function"
    },
    {
      "inputs": [],
      "name": "getExitCooldown",
      "outputs": [
        {
          "internalType": "uint256",
          "name": "",
          "type": "uint256"
        }
      ],
      "stateMutability": "view",
      "type": "function"
    },
    {
      "inputs": [
        {
          "internalType": "address",
          "name": "extContract",
          "type": "address"
        }
      ],
      "name": "getGuard",
      "outputs": [
        {
          "internalType": "address",
          "name": "",
          "type": "address"
        }
      ],
      "stateMutability": "view",
      "type": "function"
    },
    {
      "inputs": [
        {
          "internalType": "uint8",
          "name": "_proxyType",
          "type": "uint8"
        }
      ],
      "name": "getLogic",
      "outputs": [
        {
          "internalType": "address",
          "name": "",
          "type": "address"
        }
      ],
      "stateMutability": "view",
      "type": "function"
    },
    {
      "inputs": [],
      "name": "getManagerFeeNumeratorChangeDelay",
      "outputs": [
        {
          "internalType": "uint256",
          "name": "",
          "type": "uint256"
        }
      ],
      "stateMutability": "view",
      "type": "function"
    },
    {
      "inputs": [],
      "name": "getMaximumManagerFee",
      "outputs": [
        {
          "internalType": "uint256",
          "name": "",
          "type": "uint256"
        },
        {
          "internalType": "uint256",
          "name": "",
          "type": "uint256"
        }
      ],
      "stateMutability": "view",
      "type": "function"
    },
    {
      "inputs": [],
      "name": "getMaximumManagerFeeNumeratorChange",
      "outputs": [
        {
          "internalType": "uint256",
          "name": "",
          "type": "uint256"
        }
      ],
      "stateMutability": "view",
      "type": "function"
    },
    {
      "inputs": [],
      "name": "getMaximumSupportedAssetCount",
      "outputs": [
        {
          "internalType": "uint256",
          "name": "",
          "type": "uint256"
        }
      ],
      "stateMutability": "view",
      "type": "function"
    },
    {
      "inputs": [
        {
          "internalType": "address",
          "name": "pool",
          "type": "address"
        }
      ],
      "name": "getPoolManagerFee",
      "outputs": [
        {
          "internalType": "uint256",
          "name": "",
          "type": "uint256"
        },
        {
          "internalType": "uint256",
          "name": "",
          "type": "uint256"
        }
      ],
      "stateMutability": "view",
      "type": "function"
    },
    {
      "inputs": [],
      "name": "getTrackingCode",
      "outputs": [
        {
          "internalType": "bytes32",
          "name": "",
          "type": "bytes32"
        }
      ],
      "stateMutability": "view",
      "type": "function"
    },
    {
      "inputs": [
        {
          "internalType": "address",
          "name": "_asset",
          "type": "address"
        }
      ],
      "name": "getUSDPrice",
      "outputs": [
        {
          "internalType": "uint256",
          "name": "",
          "type": "uint256"
        }
      ],
      "stateMutability": "view",
      "type": "function"
    },
    {
      "inputs": [
        {
          "internalType": "address",
          "name": "_poolLogic",
          "type": "address"
        },
        {
          "internalType": "address",
          "name": "_managerLogic",
          "type": "address"
        },
        {
          "internalType": "address",
          "name": "daoAddress",
          "type": "address"
        },
        {
          "internalType": "address[]",
          "name": "_validAssets",
          "type": "address[]"
        },
        {
          "internalType": "address[]",
          "name": "_aggregators",
          "type": "address[]"
        }
      ],
      "name": "initialize",
      "outputs": [],
      "stateMutability": "nonpayable",
      "type": "function"
    },
    {
      "inputs": [
        {
          "internalType": "address",
          "name": "",
          "type": "address"
        }
      ],
      "name": "isPool",
      "outputs": [
        {
          "internalType": "bool",
          "name": "",
          "type": "bool"
        }
      ],
      "stateMutability": "view",
      "type": "function"
    },
    {
      "inputs": [
        {
          "internalType": "address",
          "name": "",
          "type": "address"
        }
      ],
      "name": "isPoolManager",
      "outputs": [
        {
          "internalType": "bool",
          "name": "",
          "type": "bool"
        }
      ],
      "stateMutability": "view",
      "type": "function"
    },
    {
      "inputs": [
        {
          "internalType": "address",
          "name": "asset",
          "type": "address"
        }
      ],
      "name": "isValidAsset",
      "outputs": [
        {
          "internalType": "bool",
          "name": "",
          "type": "bool"
        }
      ],
      "stateMutability": "view",
      "type": "function"
    },
    {
      "inputs": [],
      "name": "managerFeeNumeratorChangeDelay",
      "outputs": [
        {
          "internalType": "uint256",
          "name": "",
          "type": "uint256"
        }
      ],
      "stateMutability": "view",
      "type": "function"
    },
    {
      "inputs": [],
      "name": "maximumManagerFeeNumeratorChange",
      "outputs": [
        {
          "internalType": "uint256",
          "name": "",
          "type": "uint256"
        }
      ],
      "stateMutability": "view",
      "type": "function"
    },
    {
      "inputs": [],
      "name": "owner",
      "outputs": [
        {
          "internalType": "address",
          "name": "",
          "type": "address"
        }
      ],
      "stateMutability": "view",
      "type": "function"
    },
    {
      "inputs": [
        {
          "internalType": "address",
          "name": "",
          "type": "address"
        }
      ],
      "name": "poolManagerFeeDenominator",
      "outputs": [
        {
          "internalType": "uint256",
          "name": "",
          "type": "uint256"
        }
      ],
      "stateMutability": "view",
      "type": "function"
    },
    {
      "inputs": [
        {
          "internalType": "address",
          "name": "",
          "type": "address"
        }
      ],
      "name": "poolManagerFeeNumerator",
      "outputs": [
        {
          "internalType": "uint256",
          "name": "",
          "type": "uint256"
        }
      ],
      "stateMutability": "view",
      "type": "function"
    },
    {
      "inputs": [],
      "name": "poolStorageVersion",
      "outputs": [
        {
          "internalType": "uint256",
          "name": "",
          "type": "uint256"
        }
      ],
      "stateMutability": "view",
      "type": "function"
    },
    {
      "inputs": [
        {
          "internalType": "address",
          "name": "",
          "type": "address"
        }
      ],
      "name": "poolVersion",
      "outputs": [
        {
          "internalType": "uint256",
          "name": "",
          "type": "uint256"
        }
      ],
      "stateMutability": "view",
      "type": "function"
    },
    {
      "inputs": [
        {
          "internalType": "address",
          "name": "asset",
          "type": "address"
        }
      ],
      "name": "removeValidAsset",
      "outputs": [],
      "stateMutability": "nonpayable",
      "type": "function"
    },
    {
      "inputs": [],
      "name": "renounceOwnership",
      "outputs": [],
      "stateMutability": "nonpayable",
      "type": "function"
    },
    {
      "inputs": [
        {
          "internalType": "address",
          "name": "daoAddress",
          "type": "address"
        }
      ],
      "name": "setDaoAddress",
      "outputs": [],
      "stateMutability": "nonpayable",
      "type": "function"
    },
    {
      "inputs": [
        {
          "internalType": "uint256",
          "name": "numerator",
          "type": "uint256"
        },
        {
          "internalType": "uint256",
          "name": "denominator",
          "type": "uint256"
        }
      ],
      "name": "setDaoFee",
      "outputs": [],
      "stateMutability": "nonpayable",
      "type": "function"
    },
    {
      "inputs": [
        {
          "internalType": "uint256",
          "name": "cooldown",
          "type": "uint256"
        }
      ],
      "name": "setExitCooldown",
      "outputs": [],
      "stateMutability": "nonpayable",
      "type": "function"
    },
    {
      "inputs": [
        {
          "internalType": "address",
          "name": "extContract",
          "type": "address"
        },
        {
          "internalType": "address",
          "name": "guardAddress",
          "type": "address"
        }
      ],
      "name": "setGuard",
      "outputs": [],
      "stateMutability": "nonpayable",
      "type": "function"
    },
    {
      "inputs": [
        {
          "internalType": "address",
          "name": "_poolLogic",
          "type": "address"
        },
        {
          "internalType": "address",
          "name": "_poolManagerLogic",
          "type": "address"
        }
      ],
      "name": "setLogic",
      "outputs": [],
      "stateMutability": "nonpayable",
      "type": "function"
    },
    {
      "inputs": [
        {
          "internalType": "uint256",
          "name": "delay",
          "type": "uint256"
        }
      ],
      "name": "setManagerFeeNumeratorChangeDelay",
      "outputs": [],
      "stateMutability": "nonpayable",
      "type": "function"
    },
    {
      "inputs": [
        {
          "internalType": "uint256",
          "name": "amount",
          "type": "uint256"
        }
      ],
      "name": "setMaximumManagerFeeNumeratorChange",
      "outputs": [],
      "stateMutability": "nonpayable",
      "type": "function"
    },
    {
      "inputs": [
        {
          "internalType": "uint256",
          "name": "count",
          "type": "uint256"
        }
      ],
      "name": "setMaximumSupportedAssetCount",
      "outputs": [],
      "stateMutability": "nonpayable",
      "type": "function"
    },
    {
      "inputs": [
        {
          "internalType": "address",
          "name": "pool",
          "type": "address"
        },
        {
          "internalType": "uint256",
          "name": "numerator",
          "type": "uint256"
        }
      ],
      "name": "setPoolManagerFeeNumerator",
      "outputs": [],
      "stateMutability": "nonpayable",
      "type": "function"
    },
    {
      "inputs": [
        {
          "internalType": "bytes32",
          "name": "code",
          "type": "bytes32"
        }
      ],
      "name": "setTrackingCode",
      "outputs": [],
      "stateMutability": "nonpayable",
      "type": "function"
    },
    {
      "inputs": [
        {
          "internalType": "address",
          "name": "newOwner",
          "type": "address"
        }
      ],
      "name": "transferOwnership",
      "outputs": [],
      "stateMutability": "nonpayable",
      "type": "function"
    },
    {
      "inputs": [
        {
          "internalType": "uint256",
          "name": "startIndex",
          "type": "uint256"
        },
        {
          "internalType": "uint256",
          "name": "endIndex",
          "type": "uint256"
        },
        {
          "internalType": "uint256",
          "name": "sourceVersion",
          "type": "uint256"
        },
        {
          "internalType": "uint256",
          "name": "targetVersion",
          "type": "uint256"
        },
        {
          "internalType": "bytes",
          "name": "data",
          "type": "bytes"
        }
      ],
      "name": "upgradePoolBatch",
      "outputs": [],
      "stateMutability": "nonpayable",
      "type": "function"
    }
  ],
  "bytecode": "0x60806040523480156200001157600080fd5b50620000467f6fcd44f92f19ab4ae7b5941dda288659c1ad1e97a5b1612e7486fb3705feb69560001b6200004c60201b60201c565b6200004f565b50565b619af0806200005f6000396000f3fe608060405234801561001057600080fd5b50600436106102955760003560e01c80638b2f0f4f11610167578063bcb01f44116100ce578063e60eb41211610087578063e60eb412146107d7578063e99c0fa614610807578063ebee461d14610823578063ecef89d514610841578063eec16c4414610871578063f2fde38b1461088d57610295565b8063bcb01f4414610717578063bee37e5214610733578063bfeaf71d14610763578063cc435bf314610781578063d54e96d2146107b1578063dc76d254146107bb57610295565b80639cada6e4116101205780639cada6e414610653578063aa12ae4d14610672578063aa7d664e14610690578063b193a5f4146106ac578063b2806001146106dc578063b7a54526146106e657610295565b80638b2f0f4f1461057e5780638da5cb5b146105ae57806393eff36c146105cc57806394d0d23b146105e85780639a068bd6146106075780639a3cac6a1461063757610295565b806349f7c02d1161020b578063742a96cd116101c4578063742a96cd146104c2578063771d1baf146104de57806378a86e3a146104fa578063790fcf9f1461052a57806379aa658114610546578063808ae5fb1461056257610295565b806349f7c02d146103ec5780635556ee551461040a5780635b16ebb71461043a5780635c9bfc2b1461046a5780637027ea6c14610488578063715018a6146104b857610295565b80631e666d131161025d5780631e666d131461032e5780631e8e8bca1461034a578063227773ee1461036657806338158ac0146103825780634501b0881461039e57806345812ca5146103bc57610295565b8063046b72c41461029a5780630bf99bd9146102b65780630f6559c4146102d457806310bf69dc146102f25780631d68702d14610310575b600080fd5b6102b460048036038101906102af91906174eb565b6108a9565b005b6102be610d62565b6040516102cb9190618405565b60405180910390f35b6102dc610df3565b6040516102e99190618405565b60405180910390f35b6102fa610df9565b6040516103079190618405565b60405180910390f35b610318610dff565b6040516103259190617fbb565b60405180910390f35b61034860048036038101906103439190617730565b610ead565b005b610364600480360381019061035f919061764e565b6112f4565b005b610380600480360381019061037b9190617408565b61141b565b005b61039c6004803603810190610397919061764e565b611645565b005b6103a6611648565b6040516103b39190618405565b60405180910390f35b6103d660048036038101906103d19190617677565b6116d6565b6040516103e39190617fbb565b60405180910390f35b6103f461176e565b604051610401919061818a565b60405180910390f35b610424600480360381019061041f91906173df565b6117fc565b6040516104319190618405565b60405180910390f35b610454600480360381019061044f91906173df565b611814565b604051610461919061816f565b60405180910390f35b610472611834565b60405161047f9190618405565b60405180910390f35b6104a2600480360381019061049d91906173df565b6118c2565b6040516104af9190617fbb565b60405180910390f35b6104c06119af565b005b6104dc60048036038101906104d79190617408565b611b07565b005b6104f860048036038101906104f391906176f4565b611f75565b005b610514600480360381019061050f9190617550565b61209e565b6040516105219190617fbb565b60405180910390f35b610544600480360381019061053f9190617444565b612886565b005b610560600480360381019061055b919061764e565b612f06565b005b61057c60048036038101906105779190617408565b612f09565b005b610598600480360381019061059391906173df565b613102565b6040516105a59190618405565b60405180910390f35b6105b6613911565b6040516105c39190617fbb565b60405180910390f35b6105e660048036038101906105e1919061764e565b61393b565b005b6105f061393e565b6040516105fe929190618420565b60405180910390f35b610621600480360381019061061c91906176cb565b6139d3565b60405161062e9190617fbb565b60405180910390f35b610651600480360381019061064c91906173df565b613a0f565b005b61065b613b36565b604051610669929190618420565b60405180910390f35b61067a613bcb565b6040516106879190618405565b60405180910390f35b6106aa60048036038101906106a591906176cb565b613c59565b005b6106c660048036038101906106c191906173df565b613d80565b6040516106d3919061816f565b60405180910390f35b6106e4613da0565b005b61070060048036038101906106fb91906173df565b6140cc565b60405161070e929190618420565b60405180910390f35b610731600480360381019061072c91906176cb565b61431f565b005b61074d600480360381019061074891906173df565b614444565b60405161075a9190618405565b60405180910390f35b61076b61445c565b6040516107789190618405565b60405180910390f35b61079b600480360381019061079691906173df565b614462565b6040516107a8919061816f565b60405180910390f35b6107b961453c565b005b6107d560048036038101906107d091906173df565b614868565b005b6107f160048036038101906107ec91906173df565b614cd3565b6040516107fe9190618405565b60405180910390f35b610821600480360381019061081c91906176cb565b614ceb565b005b61082b614e10565b6040516108389190618405565b60405180910390f35b61085b600480360381019061085691906177c2565b614e9e565b6040516108689190617fbb565b60405180910390f35b61088b600480360381019061088691906176cb565b61508d565b005b6108a760048036038101906108a291906173df565b6151b4565b005b6108d57f3d8df8da9e35c965a03b043256b8a925d0b861a0ba4d7a75090878b629958b2d60001b612f06565b6109017ff68a12be795b177f9f963168a149bf8834a59675853d703d3cbc57f75a9db33660001b612f06565b61092d7f59a71adee5406bc649eb5f8046c861ec62f9b879c4cc6468843b8287ecff240860001b612f06565b6109597f6f92bfa86e7ac6bb54109d4eb16b34a31c4b5b89ba24f8c37e5ca275629cc4bd60001b612f06565b6001151560d260003373ffffffffffffffffffffffffffffffffffffffff1673ffffffffffffffffffffffffffffffffffffffff16815260200190815260200160002060009054906101000a900460ff161515146109ec576040517f08c379a00000000000000000000000000000000000000000000000000000000081526004016109e3906181a5565b60405180910390fd5b610a187f4ad4aa0c51a8ac83bff3ed6d3135c7aa6cd0c74967488ba67923478b56294afd60001b612f06565b610a447ff9a64c1968411810c7e8a508ae06be36146d91da74577ef2cf137298d4608ba760001b612f06565b610a707f0142c7e42adf975c168608204a7e1e3307ee4056767f23ee76fd23551dc1c1eb60001b612f06565b610a9c7f62f1ce7dd5029c61f97e134d30781d761c0b687fd4c8b522c9a6098647629cc360001b612f06565b610ac87f70ec1e08d152b554ce0e096c7c7b5262e991ba60ce04038e735014227f90d44260001b612f06565b610af47f926ca7a9ff0d96b3853668d9409fa5adfd96cf551eddf798817ce7c140be46b460001b612f06565b6001151560d160008473ffffffffffffffffffffffffffffffffffffffff1673ffffffffffffffffffffffffffffffffffffffff16815260200190815260200160002060009054906101000a900460ff16151514610b87576040517f08c379a0000000000000000000000000000000000000000000000000000000008152600401610b7e906183e5565b60405180910390fd5b610bb37fc760a3a0174cc35012cad1c00c22bd3b1579cd9ac294a8975e37dc07b276b5cc60001b612f06565b610bdf7f5c23856bdce131dc830f6f5eae0b426697e37d6a9b745a1ca7e743047967612560001b612f06565b610c0b7f0d2d1b78b35ec7138994f91eec4119f22abc0dc4a3d72f5d277561cea625787c60001b612f06565b610c377f4c2b5c36e9fb307b3e35ca2b1b3f6cd3ac1904c745a14f4abc369ef4fe069f1960001b612f06565b610c8b60dd5460d560008573ffffffffffffffffffffffffffffffffffffffff1673ffffffffffffffffffffffffffffffffffffffff1681526020019081526020016000205461537b90919063ffffffff16565b811115610ccd576040517f08c379a0000000000000000000000000000000000000000000000000000000008152600401610cc490618265565b60405180910390fd5b610cf97fc65e99c79d84d8c19eb4cc09b2b5c5349b54084f1ce34546f51449c3727662df60001b612f06565b610d257f429225c60d30b00d39b8969df597172713f00c9e3164ee5f6f268cb11fb4536760001b612f06565b610d517f0d08e30e5f76c320cbf5e6127037bdf95d94e6621543a4789d31a88a827aaf8460001b612f06565b610d5e828260d4546153d0565b5050565b6000610d907ff0f6e00f4808c8978c39d936231c9b252c4fa1d26c56f93238f10947d72b39de60001b612f06565b610dbc7f7fe9feedbbce51402de92f798c9f091654dff462959266533bcb06520444053460001b612f06565b610de87f594a5e9dc0f99888975bd78ece77b879cd649f4a8e17dff20af2d1cd2f421c5160001b612f06565b60cd80549050905090565b60dc5481565b60dd5481565b6000610e2d7f279dd1779bca0bb6cd743213a5c4f6a5e05610730ae9fe08c2ff16c65a0261ab60001b612f06565b610e597fe5ee42d6707d731aa1c71f294e15bf05416d9e2481795545d7482a5d96810d7760001b612f06565b610e857fc9f1f7b952adc798affda60690233bb0bcb66a20b17f27a29e3cee783882faa160001b612f06565b60ce60009054906101000a900473ffffffffffffffffffffffffffffffffffffffff16905090565b610eb561563a565b73ffffffffffffffffffffffffffffffffffffffff16606560009054906101000a900473ffffffffffffffffffffffffffffffffffffffff1673ffffffffffffffffffffffffffffffffffffffff1614610f44576040517f08c379a0000000000000000000000000000000000000000000000000000000008152600401610f3b90618345565b60405180910390fd5b610f707f17f327a153b3b30ef1a6f669e4014e10c8215b576202888074ad1b8518b5041460001b612f06565b610f9c7f77ef7e9e970a9d15c9fc99e38d0e14077e1f36127693b21159df4faf8a1cfe9360001b612f06565b610fc87fef8cbcb7441e78162bdf01f33f3bd7a1bc4fcd87d57e49f3e2e4ce8c1fb9803460001b612f06565b610ff47f804ddf9bf93c0eb5b196357f55a28420289271c0842e147ae7c69a6fcdef51c460001b612f06565b848611158015611008575060cd8054905086105b8015611018575060cd8054905085105b611057576040517f08c379a000000000000000000000000000000000000000000000000000000000815260040161104e906181c5565b60405180910390fd5b6110837f6867e033f3189c6f485a1d44dcae048b75c004420cab4d3de9889a49d06c6cc860001b612f06565b6110af7f79a0427298e0e75996b765b2ca99a0af4ba9f0c2698c4c4a3f6d57805db5addc60001b612f06565b6110db7f5bfe48d734cf1d13108bea7bce3de52f8eb3b10d56d400fda668ec5d88573df260001b612f06565b60008690505b8581116112eb576111147f7cbf563246ecc98729c82fafab647b9b5d0571a78eba30f9efcd6cdda1a56eba60001b612f06565b6111407f154fd0a4670b6d9f2d9d886f0f8058349a8690d2348d9cf6313e915c6ad2292c60001b612f06565b600060cd828154811061114f57fe5b9060005260206000200160009054906101000a900473ffffffffffffffffffffffffffffffffffffffff1690506111a87f21d3b733e742181f74c0003cf81ec0a3451fc40e9406f395e0e7ee7627761b0b60001b612f06565b6111d47fc5ff6fe9cdaee709d78a8ca953e321b1cf51058c271aefe56c23024beb5bd2bb60001b612f06565b8560db60008373ffffffffffffffffffffffffffffffffffffffff1673ffffffffffffffffffffffffffffffffffffffff168152602001908152602001600020541461124c576112467faf8b574a07bd91f782725e5a7933569c06387dc8fb23f0f47e47eea971130a7b60001b612f06565b506112de565b6112787f3695f8cf547b44aac75949b095cd0f7d71d8867edecfff3cbcd9ee2f5e2eab9560001b612f06565b6112a47ff80384c2c5a78e027472edb4532676920dcdd156fc6f84e4daade81b6e712fa460001b612f06565b6112d07f9858f3a3b1d9665fe5ba7445d3cd0f0209a78de08e4b2883c408439871891bf060001b612f06565b6112dc81858588615642565b505b80806001019150506110e1565b50505050505050565b6112fc61563a565b73ffffffffffffffffffffffffffffffffffffffff16606560009054906101000a900473ffffffffffffffffffffffffffffffffffffffff1673ffffffffffffffffffffffffffffffffffffffff161461138b576040517f08c379a000000000000000000000000000000000000000000000000000000000815260040161138290618345565b60405180910390fd5b6113b77ff5f6e6ec809c94c1f26827b5e37f496af42d8c5e8e52fccc705deb908b5fd69f60001b612f06565b6113e37f23df8ed0c933bb548208501cfbfb796ddcac1dbaaff610076c7140eb1fb84a1060001b612f06565b61140f7ffed0a5cd88ce0ea82b88cfec5561b79b96150e41385100fecde00bc5f92138e760001b612f06565b61141881615ace565b50565b6114477f7400efbb2983ce0b07a712161471985f43e80154251418c1f14e54cc824fa5d960001b612f06565b6114737fe2108c9b510e6bc9bbf2aacdf4637dda5f5ba1f43acb055c9a10a0bc521c72a260001b612f06565b61149f7f3a213bbc07145fb75bbd14143d2eeff7c56b658fc983177df249f141738ee29360001b612f06565b6114cb7f1945d12ae1ab28f2e3ed7a2b3a42fa6b85340a8581b323cb284396f92165c24a60001b612f06565b60ce60009054906101000a900473ffffffffffffffffffffffffffffffffffffffff1673ffffffffffffffffffffffffffffffffffffffff163373ffffffffffffffffffffffffffffffffffffffff161461155b576040517f08c379a000000000000000000000000000000000000000000000000000000000815260040161155290618225565b60405180910390fd5b6115877f59f49f62777915626c19d20f727a888eecbfc2bd28f7f94e1cdc47dfdf26250660001b612f06565b6115b37f43baf121f6188585c3dc7cebf1d3115d2ce4e6e42d952ff65479a4fca131363860001b612f06565b6115df7fe63b6da9f8fb518d30844238f3be0cb5c81722eb4a1a04b59ed66caf6390a1a160001b612f06565b61160b7f8cd872f9b35d91349f1aba2a973fb203f06c9c056860379b2eac23b2218622db60001b612f06565b6116377f1a56517d22b91c0bcddc85f8adaf8a060a82c7e2ac35b65a8f12b2f1b91b8ee760001b612f06565b6116418282615b5c565b5050565b50565b60006116767f13e11f0d73d76f4f77f3d7be339f6e90b3bf41e1910572746d191d405f45285460001b612f06565b6116a27f5f22194267ee56ea4a87de1fb3fbc5ba62a5bc23c39aad24554443ec35d706f960001b612f06565b6116ce7f91d67a67511ec55a9c20f81a5836393da8e770c2a54bee6e54e5a422c35918c260001b612f06565b60d754905090565b60006117047f33f15f7d0565552c240ba3980dca20e9417603bc622b4db6502532b2cf143adf60001b611645565b6117307fd28665c1a74c6e4b3c9498428d3a105b919193a3c1dd68a4c21277abaa41ed2e60001b611645565b61175c7fcd90c37ee61942ee9d71ff17ccb12b8d3ed593d687642d288c787960686c829360001b611645565b6117668383615c62565b905092915050565b600061179c7fc9c6a38518c05aef06ae86d6ad2e4965ea5f9c87c6d3955fe3e543a42a88217460001b612f06565b6117c87f5fadc9cd7b2e26f8488a0f0e7874cc84b499743cce43744873597553bc46d5d560001b612f06565b6117f47ffe2c9ba9d29ea4e15cff8ef514b19bcfec50ee80dc03999a72501d7f9fd9531760001b612f06565b60da54905090565b60db6020528060005260406000206000915090505481565b60d16020528060005260406000206000915054906101000a900460ff1681565b60006118627f9dc4ed7512879ab1048e4cc88bb46ed459d284bc11830202411ed47c48791b1660001b612f06565b61188e7ff1a194115db702370c5c763e27c90a7a9b39412351168e4a1bd1111ede1ccf5c60001b612f06565b6118ba7faf3edb49ee4d9844c88d1e3b8dd7c250d8175b49e91f692250cf93bf28b2d03860001b612f06565b60dd54905090565b60006118f07ffc0892fe845f8795b311aa8fbc631da17fc68d16733f6fccf02540e2c922fd6660001b612f06565b61191c7ff487d998248da2ff10fef3995f6682c15ce6aa08589a3610bbd32c2f48eba8fa60001b612f06565b6119487f3f50e4ba6bc154b20d18499040afbb9310eb4b7059dc19f900f3f710e70d450b60001b612f06565b60df60008373ffffffffffffffffffffffffffffffffffffffff1673ffffffffffffffffffffffffffffffffffffffff16815260200190815260200160002060009054906101000a900473ffffffffffffffffffffffffffffffffffffffff169050919050565b6119b761563a565b73ffffffffffffffffffffffffffffffffffffffff16606560009054906101000a900473ffffffffffffffffffffffffffffffffffffffff1673ffffffffffffffffffffffffffffffffffffffff1614611a46576040517f08c379a0000000000000000000000000000000000000000000000000000000008152600401611a3d90618345565b60405180910390fd5b600073ffffffffffffffffffffffffffffffffffffffff16606560009054906101000a900473ffffffffffffffffffffffffffffffffffffffff1673ffffffffffffffffffffffffffffffffffffffff167f8be0079c531659141344cd1fd0a4f28419497f9722a3daafe3b4186f6b6457e060405160405180910390a36000606560006101000a81548173ffffffffffffffffffffffffffffffffffffffff021916908373ffffffffffffffffffffffffffffffffffffffff160217905550565b611b337f7400efbb2983ce0b07a712161471985f43e80154251418c1f14e54cc824fa5d960001b612f06565b611b5f7fe2108c9b510e6bc9bbf2aacdf4637dda5f5ba1f43acb055c9a10a0bc521c72a260001b612f06565b611b8b7f3a213bbc07145fb75bbd14143d2eeff7c56b658fc983177df249f141738ee29360001b612f06565b611bb77f1945d12ae1ab28f2e3ed7a2b3a42fa6b85340a8581b323cb284396f92165c24a60001b612f06565b60ce60009054906101000a900473ffffffffffffffffffffffffffffffffffffffff1673ffffffffffffffffffffffffffffffffffffffff163373ffffffffffffffffffffffffffffffffffffffff1614611c47576040517f08c379a0000000000000000000000000000000000000000000000000000000008152600401611c3e90618225565b60405180910390fd5b611c737f59f49f62777915626c19d20f727a888eecbfc2bd28f7f94e1cdc47dfdf26250660001b612f06565b611c9f7f43baf121f6188585c3dc7cebf1d3115d2ce4e6e42d952ff65479a4fca131363860001b612f06565b611ccb7f58c50d8ad31813d7d99c3a8bbf755547aff93ff6f0c6b23d76a035de7a6c179560001b612f06565b611cf77f0e3044b9dd0050761070d84ce56536c60f6f2c2eeabeecaf67f832404d22553160001b612f06565b611d237fb383b28e2318a0846e55a598660b1e6862921674a5db7719c8edb3a062522f9560001b612f06565b611d4f7ff1f8c062a635447e28ae5ffe2ee64e982b94d4383878b73406dc8b5c1cd8f8dd60001b612f06565b611d5882614462565b15611d98576040517f08c379a0000000000000000000000000000000000000000000000000000000008152600401611d8f90618385565b60405180910390fd5b611dc47fe4f1746dc2fa197337da3ea2652f9c38381400225b93a2d2e1c8e984f5fdac9d60001b612f06565b611df07f3bfe5de6d37dca67f0c6ef3af3b87b237318a719af68711f4fe3300d1e1d5c3c60001b612f06565b611e1c7fa02f770dd690c142290fec1ebcc25e4cf5df9c7bb526e94d8baecb55da22d6ae60001b612f06565b600160d860008473ffffffffffffffffffffffffffffffffffffffff1673ffffffffffffffffffffffffffffffffffffffff16815260200190815260200160002060006101000a81548160ff021916908315150217905550611ea07f0edeb4e2657271a886f513794a722aee2206b14cc11c8fb26ede20dc9324532560001b612f06565b611ecc7f2c49defb59200d50444d74463ab81bf314c39b271e7b1ce3a142c8efacd8b76860001b612f06565b611ed68282615eab565b611f027f5b4d7a8bb8b9c99cb0b425e8d8291764effbf552a3bb7a42bc30c6ae5e986e7460001b612f06565b611f2e7f818a5bf1fcd0d5d6f82a87049e84cd5aa03f0177f3ee44196996ace58a6a146860001b612f06565b8173ffffffffffffffffffffffffffffffffffffffff167fd63c302652b86334fe4eb891e7a01e61e836496485d9394f2c95b4222006ae5060405160405180910390a25050565b611f7d61563a565b73ffffffffffffffffffffffffffffffffffffffff16606560009054906101000a900473ffffffffffffffffffffffffffffffffffffffff1673ffffffffffffffffffffffffffffffffffffffff161461200c576040517f08c379a000000000000000000000000000000000000000000000000000000000815260040161200390618345565b60405180910390fd5b6120387f055b465ccbbfe1385b246c3b1888cc4189599f82b3f852f3a6fa8951786c9c0c60001b612f06565b6120647f874c3659c636586c907200bf86d744f925ddfc959593f19d3c8ee7ca25d06aa260001b612f06565b6120907fb6149f908b95284a63753159e8a401881db05582bba1a5581330ce19651b2ad260001b612f06565b61209a8282615fb1565b5050565b60006120cb7e4652eecefa63d4c68225ba4c7cd0ac0943751f45b7bb8e8b7d58413d85957960001b612f06565b6120f77faf5feb3d596b6d1fafadcfe6b9cc9bee3cc2499175ac7ff9045dafcd2d8009dc60001b612f06565b6121237fab1d79638d438e682b7ac7979661dbbf7a134cccb200d03f4e3d86686fff248060001b612f06565b60603088888560405160240161213c9493929190617ff1565b6040516020818303038152906040527f147bf0be000000000000000000000000000000000000000000000000000000007bffffffffffffffffffffffffffffffffffffffffffffffffffffffff19166020820180517bffffffffffffffffffffffffffffffffffffffffffffffffffffffff838183161783525050505090506121e77f94dd0bc43c074d1a7f0555329e3397f81cd9af941f1917db261eaf461e6189ec60001b612f06565b6122137f7c1535069693b986f1e54bfc6f885cd8d330c7240e804afd13cad25279ffddd060001b612f06565b60006122208260016116d6565b905061224e7fbccc9cced9e978ef3e31ec9a8d77a28a1f24c816e1e41f41541b5fe337e29fe560001b612f06565b61227a7f41348a0cfadc29fae0fbea16ea800ba3432cdaa01426486ac4de7f4e38a1725160001b612f06565b6060308b898985604051602401612295959493929190618044565b6040516020818303038152906040527f0ccb30c7000000000000000000000000000000000000000000000000000000007bffffffffffffffffffffffffffffffffffffffffffffffffffffffff19166020820180517bffffffffffffffffffffffffffffffffffffffffffffffffffffffff838183161783525050505090506123407f78c6c09625c8c181c09f571daebd6b5d1a9fbbd85dc58bac510d11e778b86bf460001b612f06565b61236c7fef6f4d7ad4550de83b7f430a49490d845ae18e3063b153566fe4b8e03d8bf73f60001b612f06565b60006123798260026116d6565b90506123a77fba9c8f1800678b3fba06f55d15584e231e8fb0c01b82e4fbc0b7c4c9807b244960001b612f06565b6123d37f2b1d00cc47871dc6268aa5b5cfc6c776bd045c2dbd37975af7704f3c8f08fa1960001b612f06565b8273ffffffffffffffffffffffffffffffffffffffff16638e10153d826040518263ffffffff1660e01b815260040161240c9190617fbb565b602060405180830381600087803b15801561242657600080fd5b505af115801561243a573d6000803e3d6000fd5b505050506040513d601f19601f8201168201806040525081019061245e9190617527565b5061248b7f9d7a63e7fcf20676c659e71f7b6427bf16efd9b38da4e1c9f19adb81270f609660001b612f06565b6124b77f851c9e960698698415d9dede09dadaa8631b6cfe5f0b50bc3ab32f01bd48117960001b612f06565b60cd819080600181540180825580915050600190039060005260206000200160009091909190916101000a81548173ffffffffffffffffffffffffffffffffffffffff021916908373ffffffffffffffffffffffffffffffffffffffff1602179055506125467fbce737bf5a8acf4adae42363e4d7e9991e25f8402287ac3044a89a47e0151a6a60001b612f06565b6125727fd1bfcc1ae2e7e6e08b94ec8102ed7523c863b4f289555ecceeaab91ed367647860001b612f06565b600160d160008373ffffffffffffffffffffffffffffffffffffffff1673ffffffffffffffffffffffffffffffffffffffff16815260200190815260200160002060006101000a81548160ff0219169083151502179055506125f67f69f9c1e866b80d5966065f81d922ab47fe683e694ca59e783d48a94d6998462360001b612f06565b6126227f711d3f55836b172aaa474056bac11c3b64466b5841b0deb4c018bad211a51b0c60001b612f06565b600160d260008573ffffffffffffffffffffffffffffffffffffffff1673ffffffffffffffffffffffffffffffffffffffff16815260200190815260200160002060006101000a81548160ff0219169083151502179055506126a67f21a749f60b4811dd9c299b03ba00ec5c2eecd2b0721788eff9399de7879acb7760001b612f06565b6126d27fb26474e3316f4ac3e4cb61183633ea9832fe123a87c862bd4f0d8f107820283a60001b612f06565b60dc5460db60008373ffffffffffffffffffffffffffffffffffffffff1673ffffffffffffffffffffffffffffffffffffffff168152602001908152602001600020819055506127447f6040413eada179dd87512f8f880099a7bc17548ee52e1e500400ffa33ce9cae160001b612f06565b6127707f8c3c3e94e4de9b5ec022eefc45138a90e22fd43e4d32a939c80497558dbeeb7c60001b612f06565b61277d818860d4546153d0565b6127a97ffa092cae00ed102f56cd4647dca7db562fcfd600082c9aa0728d6a9b4b1870a360001b612f06565b6127d57fab42002b5183f81931c33961e01328e2072190ae3977c653765c9340a839ddd260001b612f06565b7f73a0638fe578fc759744633aa170a433061ca2cc1bb855d116c506e04a29901f818d8b8d8f428d60d4546040516128149897969594939291906180a5565b60405180910390a16128487f4ecec2062c623ab9703ff1707d10291b09ec8443e0d8fa83421e69c2e677450760001b612f06565b6128747f2200c946d824a8a4372f64936e4b0ba5bcdc29a480995db7cacd6885ad27db9860001b612f06565b80945050505050979650505050505050565b600060019054906101000a900460ff16806128a557506128a4616223565b5b806128bb575060008054906101000a900460ff16155b6128fa576040517f08c379a00000000000000000000000000000000000000000000000000000000081526004016128f190618365565b60405180910390fd5b60008060019054906101000a900460ff16159050801561294a576001600060016101000a81548160ff02191690831515021790555060016000806101000a81548160ff0219169083151502179055505b6129767fc68bb870e46827edc72aeeb0eb74d44816286195aa27c7aac1244cded38a721560001b612f06565b6129a27fc763b96017a4306ad4c5107c5478ef7f79ecc8e289afe2d4c612daca28efb6e860001b612f06565b6129ce7ffa8826bb42af6c6f207828cd73a31d623b62c9a32d49838fa115012ddb450fd260001b612f06565b6129d8868661623a565b612a047f6a6839cd7a17e637a2477a914690ad46d3953ab07e530aadac1be9363e71693f60001b612f06565b612a307fb4f47aa91e3af72c836b5216c9d9267def4239c1df14f2ec801a95cd8105872960001b612f06565b612a39846163fc565b612a657f46d8d5744b1b7ea011b12b1d1c0c6982fbe7e33e47a3dc6c2f30ec928e3d251e60001b612f06565b612a917f9c4efb1d204426dedbd4b43c7ac6896abdf9a4dfa67afb356002f3e194a779f860001b612f06565b612a9f611388612710616553565b612acb7fcd44fab5e8dd0fd0be79836dcafb24b7cd0a4f42d0c27990c44112bf63fa014060001b612f06565b612af77f288347419c054230ed12c0bb9fdd503290a1e907bcf8cd25794e66467409bb2960001b612f06565b612b03600a6064615fb1565b612b2f7fd4694f095538c1e65699220115cacdc2e48ad6ca0c23974573305029be5bd9b660001b612f06565b612b5b7fa5561a7ce4c567b90d5a406d0e58051b3f0718e0748e735e45a176f468c5c63960001b612f06565b612b6762015180616734565b612b937fa6e15973f56018a8e8e0eb94d022c0ebc0ebf2834ce92f8e36057e34d4712b4760001b612f06565b612bbf7f50500f02194b5ac4f626ffbac7b3e37f78ef807a9a77ca2d35d448262d7a0ff460001b612f06565b612bcb6224ea0061431f565b612bf77fa0f8243dcce257062c608715f39b68a4d304c51aa572f967a28194700484996760001b612f06565b612c237fe5f47c2a7f2d45eb1988db8aac45ca5cdfbc31722e8fe2d7b6180f3d58221e6660001b612f06565b612c2e6103e8614ceb565b612c5a7f42fa08d61d0f7c1c4719e320e7f80f84c37066dfb71999e3cff4614755d68d2b60001b612f06565b612c867ff877799c7d19ac9edc65d86c34cb169881346942a6069a32f234f3069d38de4160001b612f06565b612c90600a616851565b612cbc7fe70161783b8fa9b96d7c1d680341448c4aed2423257c961ccd14470b14f57b4b60001b612f06565b612ce87f7b4e61386ef80d45c93b0dabef781b300cb1677e10c762dbcc84e257565ecb4660001b612f06565b612d147f444845444745000000000000000000000000000000000000000000000000000060001b615ace565b612d407f4f0121d1fdceecba8e21877006bd2aabe7394e4ef6b050d83f2db995b587aef160001b612f06565b612d6c7fd17c109f6bf5f413d4a66b19a10d7b8ed61f2ed76edb7d94b971a8d285003b1960001b612f06565b60005b83518160ff161015612edc57612da77fe785833698e4e078e5cf9f51154a85d65ec61c55bf2b86ee2124e30b5e45c81660001b612f06565b612dd37f3df4c924312bc92b8492f3e27279699a6211904fba2a707d7b8077526da20aa760001b612f06565b600160d86000868460ff1681518110612de857fe5b602002602001015173ffffffffffffffffffffffffffffffffffffffff1673ffffffffffffffffffffffffffffffffffffffff16815260200190815260200160002060006101000a81548160ff021916908315150217905550612e6d7ffbaa366691e42314ff93f6d4ab1f8782fbc44d887f33fa8c367eeac5de7fcbc960001b612f06565b612e997f0f313f44849769e1cbcc37513d0193d55f714d7c103cecdf1cfb27768bfcadac60001b612f06565b612ecf848260ff1681518110612eab57fe5b6020026020010151848360ff1681518110612ec257fe5b6020026020010151615eab565b8080600101915050612d6f565b508015612efe5760008060016101000a81548160ff0219169083151502179055505b505050505050565b50565b612f1161563a565b73ffffffffffffffffffffffffffffffffffffffff16606560009054906101000a900473ffffffffffffffffffffffffffffffffffffffff1673ffffffffffffffffffffffffffffffffffffffff1614612fa0576040517f08c379a0000000000000000000000000000000000000000000000000000000008152600401612f9790618345565b60405180910390fd5b612fcc7f01343b48bbbfb1506e4f6a3c5fca05ef25de5a6e576958d5921d5980f10697ad60001b611645565b612ff87f22ef14946b68c2cbd000714372a1fdba889aef4017882173c418c6c196f461cf60001b611645565b6130247fcc2206faa513a1d6bb0596b36f4e479b1c9ad0a8d5bd4f42fac32943d6d2db4660001b611645565b81609760006101000a81548173ffffffffffffffffffffffffffffffffffffffff021916908373ffffffffffffffffffffffffffffffffffffffff1602179055506130917f5b379c61cbcd57b1542962fae91dd43a826ebfa5f7e4921e5cc82ed7a1d1539660001b611645565b6130bd7f683034d185de591103e45001d186297f3448b16bb273cf53ca47bad669cc3b1160001b611645565b80609860006101000a81548173ffffffffffffffffffffffffffffffffffffffff021916908373ffffffffffffffffffffffffffffffffffffffff1602179055505050565b60006131307ff67f2417b3e31f5e2cbad4f04eba4902377630cd90d26f257646545a2bf84f8460001b61393b565b61315c7f99398754977caf85639e96b210e04976c6abdcbf656093cad55c02aee69f542b60001b61393b565b6131887f14edc2f00070db217712b1d5a066a22b6da264b3eeabee8fe1113b93b62dc3f660001b61393b565b600060cc60008473ffffffffffffffffffffffffffffffffffffffff1673ffffffffffffffffffffffffffffffffffffffff16815260200190815260200160002060009054906101000a900473ffffffffffffffffffffffffffffffffffffffff1690506132177e49b963a7204d11bd6192994399773ff9941728a05382e023f0d7f8e9f4ce7760001b61393b565b6132437f7ac4ff0090418571bff0a30fa14a7fb65daf8cc5e4e857ba967d8c9989d4246660001b61393b565b61326f7f7e39a546a99d56abe41ebc3b601576de2dca5a5e555efc8eb10f9b372b7710c360001b61393b565b600073ffffffffffffffffffffffffffffffffffffffff168173ffffffffffffffffffffffffffffffffffffffff1614156132df576040517f08c379a00000000000000000000000000000000000000000000000000000000081526004016132d690618285565b60405180910390fd5b61330b7f23e0bb287645e47bb882854280519143416c6e0a4b950fbd3755a04c8fd930a560001b61393b565b6133377f54cb56bf6453b720b41b9a19ad3f4df89a0b2ff0fcb4835e0760cb5cb0e6b6e560001b61393b565b6133637f77e5894f2e29688300cafc369817a88d4df05aa12da0fba6ebd80cb1a4edccec60001b61393b565b60006133917fb89baaa79829ac26e19e2f6b5be841fa4130f9de8a1ef0618d4f558a11d6d59760001b61393b565b6133bd7f29a423fff5deb2a4fa5462e7006f43f416a06143e16639d7794383358bcac41160001b61393b565b60cb60009054906101000a900460ff1661378f576133fd7f5f1d27f3b0d401fd5bab36c4a24e62ec3f5d0045659c56fe1e257308befe267560001b61393b565b6134297f64efdaaf3dabce3750a666d1e73291d77817ab109f5b6762b26e021519c9ae6560001b61393b565b6134557f785197ff24291e0c6f07cb52bb03b679998995b9e4239c645b5ea5f15c81e12960001b61393b565b8173ffffffffffffffffffffffffffffffffffffffff1663feaf968c6040518163ffffffff1660e01b815260040160a06040518083038186803b15801561349b57600080fd5b505afa9250505080156134cc57506040513d601f19601f820116820180604052508101906134c991906177eb565b60015b613563576134fc7f0876bee710acfe84eb418ce9c631a3abf81f3f3afc0805868ec5021e30307d2660001b61393b565b6135287f340082257eccd5f8b78c4014a92ba9826f6b24555950e527d1b6abc06a81754260001b61393b565b6040517f08c379a000000000000000000000000000000000000000000000000000000000815260040161355a90618325565b60405180910390fd5b61358f7fcf3a3ffc0a1c8829a33aab23ebdcd53722dc846bceef25ecf4a4c177579af1fe60001b61393b565b6135bb7fa1e96a03716f9222f105fbfffa14ce67c5369772c9db53cae423bb8bdc15023060001b61393b565b6135e77f30aa93cba7cefea8918aac32d387725c21558139c87462d20eb91408d23c420060001b61393b565b426135fe62015f908461537b90919063ffffffff16565b101561363f576040517f08c379a0000000000000000000000000000000000000000000000000000000008152600401613636906183a5565b60405180910390fd5b61366b7f11fba02caa6044c0257eb224cfcbb8cf7721b3dc1a9286f502c00db4d424ea6e60001b61393b565b6136977fd2c5b87629deafa9dc752957d58435e7cc9dd96257976bbd76fb9ce4297807af60001b61393b565b6136c37fca9471dfcec4893cdce4fb7dd0b7a7e0971d761a1a2e9c1768b8adf5d4321f1f60001b61393b565b6000841315613758576136f87fba132eb20588196a6950c3783f9ddfef93f958351497d5e052852411caaf57a560001b61393b565b6137247f16e3329179f6bcea42713406963fe5cb316f71109007113266dc73eaaf3410e460001b61393b565b6137507f017f70c97a727ca5b282ca419cd55fa361adedb24d1d8a39d863c796997c178060001b61393b565b839550613785565b6137847fe6878e3790eac00ec483beb14444ecc8c3c4958ae79cf5cc9c6eb0eea4b3607960001b61393b565b5b50505050506137bc565b6137bb7fc2373b3d8ef5baa0e03e89d6f143a6f380aaa47cdd394a5776bfc6dedd47196e60001b61393b565b5b6137e87f4e2e93e35253551079e1eb62032ccad994369be21a78620ed63fe4261c1f0a5b60001b61393b565b6138147fd6c289f94ffcd31e7fde1033c34cf4cd1e3e2a54d2d0809aad571daa9d851f0e60001b61393b565b6138407f87e60872230e8b2c310ed78894dc28078fee73a946acffbd2ddcc286549a591b60001b61393b565b60008111613883576040517f08c379a000000000000000000000000000000000000000000000000000000000815260040161387a90618325565b60405180910390fd5b6138af7f6308e4abcbe6fda9bc7e95aa628401eea08313b8a18abfb2cc396e35b93d295c60001b61393b565b6138db7fb2463499ada00ae36c561403e716987771939734f19ad1ec2c76d71a49e33f5260001b61393b565b6139077fff4806b626a5582df1c50b0b644c04877473b2f77ee2ff42de5564fe8861a72260001b61393b565b8092505050919050565b6000606560009054906101000a900473ffffffffffffffffffffffffffffffffffffffff16905090565b50565b60008061396d7fd628497fc0cd9f79fa694641c3cf07b667e1d6b3c07558e23ed79e24c898038d60001b612f06565b6139997fa4ef3ebc8e36cfc50e61d3b19d359986fe214ab64f8a3d926735b02bcfe992ce60001b612f06565b6139c57fb852a35c31dfbda5481bd0ae2208d8a73b2c6b0a7ddc06359300fcb2456f8cf860001b612f06565b60d35460d454915091509091565b60cd81815481106139e057fe5b906000526020600020016000915054906101000a900473ffffffffffffffffffffffffffffffffffffffff1681565b613a1761563a565b73ffffffffffffffffffffffffffffffffffffffff16606560009054906101000a900473ffffffffffffffffffffffffffffffffffffffff1673ffffffffffffffffffffffffffffffffffffffff1614613aa6576040517f08c379a0000000000000000000000000000000000000000000000000000000008152600401613a9d90618345565b60405180910390fd5b613ad27fa35d36d72e3b1b411a4a15705abd80e9b35787e3796254501881fe9832b8644660001b612f06565b613afe7fabf7e2adf8b7d0db369c34c2fac7a2fe8eed0d2d6eb38dccebb015a9eb9ec42960001b612f06565b613b2a7fc08a1dcd013c919a4fbe860c9c80781e11875a5c5dc956bee48f27714af1bd2060001b612f06565b613b33816163fc565b50565b600080613b657ff8444c09f2f9a424b92e19e02e3a0bb9bf296052221379a9931458feaa4932a860001b612f06565b613b917fa3df9213f1871cbe08c4a2b3fe5ac7ac20dc765d5771bffc3d203422f703419560001b612f06565b613bbd7f6a8b5f896bff494dcdd8f3260292e22a0266f14000a61e499001616841de570960001b612f06565b60cf5460d054915091509091565b6000613bf97fd5742d56ce5b835fd585bb2fc168bcc37b550da4fd42422817a1699fdadd33de60001b612f06565b613c257f3bda71dcf6b7b8f4679ef720b5e7b43f994d70e3cac937c9634d7bbe54cef09760001b612f06565b613c517f9fc22338451ccfd3c24c911386f84fbacb4f7202dbc201f23c1f604ab8fdaef260001b612f06565b60d954905090565b613c6161563a565b73ffffffffffffffffffffffffffffffffffffffff16606560009054906101000a900473ffffffffffffffffffffffffffffffffffffffff1673ffffffffffffffffffffffffffffffffffffffff1614613cf0576040517f08c379a0000000000000000000000000000000000000000000000000000000008152600401613ce790618345565b60405180910390fd5b613d1c7f1d5f721cb35f75d4ac51fa022cc8afdca3a8409e177213a43c8f9f72b045d71b60001b612f06565b613d487f2a7757bcb330834002f9c79f8f7dd22d9e510a146351e94c968228ba9b642a0360001b612f06565b613d747f6eb0721f29a863854d58df728b2bf9c1c4ee35b2ed2b87bb714874494246801f60001b612f06565b613d7d81616734565b50565b60d26020528060005260406000206000915054906101000a900460ff1681565b613dcc7f7400efbb2983ce0b07a712161471985f43e80154251418c1f14e54cc824fa5d960001b612f06565b613df87fe2108c9b510e6bc9bbf2aacdf4637dda5f5ba1f43acb055c9a10a0bc521c72a260001b612f06565b613e247f3a213bbc07145fb75bbd14143d2eeff7c56b658fc983177df249f141738ee29360001b612f06565b613e507f1945d12ae1ab28f2e3ed7a2b3a42fa6b85340a8581b323cb284396f92165c24a60001b612f06565b60ce60009054906101000a900473ffffffffffffffffffffffffffffffffffffffff1673ffffffffffffffffffffffffffffffffffffffff163373ffffffffffffffffffffffffffffffffffffffff1614613ee0576040517f08c379a0000000000000000000000000000000000000000000000000000000008152600401613ed790618225565b60405180910390fd5b613f0c7f59f49f62777915626c19d20f727a888eecbfc2bd28f7f94e1cdc47dfdf26250660001b612f06565b613f387f43baf121f6188585c3dc7cebf1d3115d2ce4e6e42d952ff65479a4fca131363860001b612f06565b613f647f13d7a33142b637726639bb2876267f6238d39856efcb76373bf6d16c47517ef960001b612f06565b613f907f27a67e4ab6e33ac3b0bec2ce60ee308b028b7b1ce542f6e699da03056625619f60001b612f06565b613fbc7f8dda48255a53c4ffa50b32331c7fd6561ee0d65bd76f96152f457fae81e6b5ba60001b612f06565b613fe87f74fa3e6a2f49524988844564daa7f8c2aaf263bb038a6ff1a9204478048d5a5e60001b612f06565b6000151560cb60009054906101000a900460ff1615151461403e576040517f08c379a0000000000000000000000000000000000000000000000000000000008152600401614035906183c5565b60405180910390fd5b61406a7f1d191c946081ba42551c3f3c3bd0ee2a9f3ae982831aed86ecbf9f367edd23c560001b612f06565b6140967fb6bfcc58b2d9248f148ad4c82a20c64235f96afe8c7723084e3a07fe04e8048d60001b612f06565b6140c27f6c52c8488bcbc093dc55a29ec68b75551c095a32ad213bec50dce23494ac94d260001b612f06565b6140ca61696e565b565b6000806140fb7f2fb68855087a3d1c739ac9f9500aad867a60b4edbf6b2e68ae2b9cf19aa68f1160001b612f06565b6141277fba140009ad85b5dea791a9885e4ce46afb7645aec25a436f04b1a77e1516e1c760001b612f06565b6141537fd99e6496d25fa777a1b6918ddf0f299e9b2524269b732699a5c50a2dfd78f10860001b612f06565b61417f7f747f4fdcb146fabe3bff72b502c41967b5639b0310994ceef3173348072b41a160001b612f06565b6001151560d160008573ffffffffffffffffffffffffffffffffffffffff1673ffffffffffffffffffffffffffffffffffffffff16815260200190815260200160002060009054906101000a900460ff16151514614212576040517f08c379a0000000000000000000000000000000000000000000000000000000008152600401614209906183e5565b60405180910390fd5b61423e7f625bc37b98fdb076d324111c0ed6d969ff2301b2b228db56d13ccd2bf2b6d1cf60001b612f06565b61426a7f4831bc7af27cdd740acc7a657914897f5c9e410f499a47d2d93d033ffb5734b360001b612f06565b6142967f9397bb153a0b3d3ad04fc58bd7fadcbd519f7dcefc7cc2df21565c758798aaab60001b612f06565b60d560008473ffffffffffffffffffffffffffffffffffffffff1673ffffffffffffffffffffffffffffffffffffffff1681526020019081526020016000205460d660008573ffffffffffffffffffffffffffffffffffffffff1673ffffffffffffffffffffffffffffffffffffffff1681526020019081526020016000205491509150915091565b61432761563a565b73ffffffffffffffffffffffffffffffffffffffff16606560009054906101000a900473ffffffffffffffffffffffffffffffffffffffff1673ffffffffffffffffffffffffffffffffffffffff16146143b6576040517f08c379a00000000000000000000000000000000000000000000000000000000081526004016143ad90618345565b60405180910390fd5b6143e27f5dcc8037e8f767a9a5e63f0004a9fe736f3a10e1aba4229b433e80014625302a60001b612f06565b61440e7fd89339c2ef71d0f88ce7ee93f5deda3691d0939a0cfe46cbb3c9e8538ac4af0e60001b612f06565b61443a7f54341bcefa6e50e2f251891366b1b302b4917d79591a41f92c7efafe570e46b260001b612f06565b8060de8190555050565b60d56020528060005260406000206000915090505481565b60de5481565b60006144907fe122b26ce3286ccec5649654011d6658fc4adefd08afea94cd8b7e778a09b14660001b612f06565b6144bc7fdf5f6b71eee917259bdd3f4c657737152b1b0419677aaff5e59af3dbcc439a1260001b612f06565b6144e87f5f63579ecdd56933452980a1b8f7782e49c7af1c2db09268c4b905293701e3d060001b612f06565b60d860008373ffffffffffffffffffffffffffffffffffffffff1673ffffffffffffffffffffffffffffffffffffffff16815260200190815260200160002060009054906101000a900460ff169050919050565b6145687f7400efbb2983ce0b07a712161471985f43e80154251418c1f14e54cc824fa5d960001b612f06565b6145947fe2108c9b510e6bc9bbf2aacdf4637dda5f5ba1f43acb055c9a10a0bc521c72a260001b612f06565b6145c07f3a213bbc07145fb75bbd14143d2eeff7c56b658fc983177df249f141738ee29360001b612f06565b6145ec7f1945d12ae1ab28f2e3ed7a2b3a42fa6b85340a8581b323cb284396f92165c24a60001b612f06565b60ce60009054906101000a900473ffffffffffffffffffffffffffffffffffffffff1673ffffffffffffffffffffffffffffffffffffffff163373ffffffffffffffffffffffffffffffffffffffff161461467c576040517f08c379a000000000000000000000000000000000000000000000000000000000815260040161467390618225565b60405180910390fd5b6146a87f59f49f62777915626c19d20f727a888eecbfc2bd28f7f94e1cdc47dfdf26250660001b612f06565b6146d47f43baf121f6188585c3dc7cebf1d3115d2ce4e6e42d952ff65479a4fca131363860001b612f06565b6147007f2647a793579c93e9b7d0e22a9d28195f212730f9623c82f8f41856e7bbd9e69160001b612f06565b61472c7fe9af8458dea5317047e3fa99535992e9e1d7895da1e7bd16076ea5d16d5ac42a60001b612f06565b6147587ff0d47eeef7efc63a72f40c4911355585ff645ede53b5aaa5c787a1e701edcd6760001b612f06565b6147847f93a0de4f72c078d93ace5131dac3d2031e05a6601decaeb6d69c3f52f5ff5e9460001b612f06565b6001151560cb60009054906101000a900460ff161515146147da576040517f08c379a00000000000000000000000000000000000000000000000000000000081526004016147d1906182c5565b60405180910390fd5b6148067f85019d4d0e3d847f7187583362850e44ad9275183aae86feedfd795a3270d20360001b612f06565b6148327fe5c186c12b1537ed26ca49c9850ef2b751d4e6818328feacb3a538f6b2ab86b960001b612f06565b61485e7f99d6ed0a090d369b1ffd0645ca1f1aeb3df12f5b3a2477ebe5c0b00c1ba8387360001b612f06565b614866616a0f565b565b6148947f7400efbb2983ce0b07a712161471985f43e80154251418c1f14e54cc824fa5d960001b612f06565b6148c07fe2108c9b510e6bc9bbf2aacdf4637dda5f5ba1f43acb055c9a10a0bc521c72a260001b612f06565b6148ec7f3a213bbc07145fb75bbd14143d2eeff7c56b658fc983177df249f141738ee29360001b612f06565b6149187f1945d12ae1ab28f2e3ed7a2b3a42fa6b85340a8581b323cb284396f92165c24a60001b612f06565b60ce60009054906101000a900473ffffffffffffffffffffffffffffffffffffffff1673ffffffffffffffffffffffffffffffffffffffff163373ffffffffffffffffffffffffffffffffffffffff16146149a8576040517f08c379a000000000000000000000000000000000000000000000000000000000815260040161499f90618225565b60405180910390fd5b6149d47f59f49f62777915626c19d20f727a888eecbfc2bd28f7f94e1cdc47dfdf26250660001b612f06565b614a007f43baf121f6188585c3dc7cebf1d3115d2ce4e6e42d952ff65479a4fca131363860001b612f06565b614a2c7f60eec5f23273f27c312660047f2e4cbd91b5674ed835d92336a958f0b6e0936460001b612f06565b614a587f50f70e34f373ef51c069e6a20166f8551c2e4b2c2ca84b3a6b829777d917d2b960001b612f06565b614a847f594fe9e2857f4c4445b8ca15e41e2a9505a6b3b02d3158221360d5416c94ac0960001b612f06565b614ab07faa5eb1325ebf7174f3444bb0cf9f14d5bba3be76a3ed4c095abbae2e35f4c7cd60001b612f06565b614ab981614462565b614af8576040517f08c379a0000000000000000000000000000000000000000000000000000000008152600401614aef906182e5565b60405180910390fd5b614b247fd14744a9e1e8cc648a5d5546cfa678aa15db715413eb3b55f08fadc145f961b960001b612f06565b614b507fe918f33c94e027b5698d91be9c8b92658ee0037a1bf7859baa4617d9a4f6684660001b612f06565b614b7c7fc1476bc91885b8dbfcd492e237d148bb940d1fb4c70a9613c78a20007b71d86f60001b612f06565b600060d860008373ffffffffffffffffffffffffffffffffffffffff1673ffffffffffffffffffffffffffffffffffffffff16815260200190815260200160002060006101000a81548160ff021916908315150217905550614c007f1e3dc160d044135719edcee90509a08afe781e706c58204eccf2a6ad58fe595a60001b612f06565b614c2c7fa6bac91ebfe687ddff605154f99b383550dfb729eb183993ab1fd6c0f27e73a660001b612f06565b614c3581616ab0565b614c617f1f6874fcb8b5771d174832e6a87efa8c779d0eb3a4c9a0e2d9787da8b7ca35db60001b612f06565b614c8d7f6b20f1dec7efee54c9cd61e681d2bad0e59abf882ae865ce2a15a463d253c1a360001b612f06565b8073ffffffffffffffffffffffffffffffffffffffff167fe8b3c469b395bfd934168e4b7d14590c9cd1a6740533df170dbe3c219ff5a67460405160405180910390a250565b60d66020528060005260406000206000915090505481565b614cf361563a565b73ffffffffffffffffffffffffffffffffffffffff16606560009054906101000a900473ffffffffffffffffffffffffffffffffffffffff1673ffffffffffffffffffffffffffffffffffffffff1614614d82576040517f08c379a0000000000000000000000000000000000000000000000000000000008152600401614d7990618345565b60405180910390fd5b614dae7fbae7377326630552aa132a43ba747db05601c6177e0d135eb8f5b5ad2a1ae75f60001b612f06565b614dda7ff1cf5ed285b50ea54657ecccd0e7df1cbe8bb13bd6d16e7789f78c6fa5e1a63a60001b612f06565b614e067f31ee7d980eaa78223f08e6b178e100885eae3f882a745821345aed0147cf569460001b612f06565b8060dd8190555050565b6000614e3e7fb6acdc3dfcba07016032834a4b7715a32848cee4f5d6cbcd87a8670019a869ad60001b612f06565b614e6a7f3e4d7c7ae0c721521cd25c197c270671fb55b11e44aa46bc77a12d6592b0c55d60001b612f06565b614e967f1a08c17e0943d07be54ed09d32b51b7b756f59f4deb13ab4bbd4802d3ab7b38260001b612f06565b60de54905090565b6000614ecc7f1143d5a1b4591aa159b84662f43173a42b145e05554c722179cebd0301c1bc7860001b611645565b614ef87f7fb7737fb45c1821b07c557fb20a85aadb74abfd7f3aded638b0611c3878f6d060001b611645565b614f247f07f7be0cc03938e4a6c9d302d53effe0e7eae1a64d4b1edf5979abc9b339a86360001b611645565b60018260ff161415614fde57614f5c7f3bfd26995be6062183f721e38810e2c9bfebc7ad890b3e816674514dfbd4ce0460001b611645565b614f887fa4bc4e8958b80529b950c944abce515a6833102afc7d29546e084ceaeeac2fa360001b611645565b614fb47f766415bd328a2e95a18338562c7168b19c4dd1b548a40d49e53abbd30ca9a62e60001b611645565b609860009054906101000a900473ffffffffffffffffffffffffffffffffffffffff169050615088565b61500a7f5d679e34a2aad8f74e73e7ab55dfc78793cff6530c8b4b8dc405aa4adad233f760001b611645565b6150367f71457a6ea18b3c979da1914061e140dc0c949de3f35c9b0a628acbb763d8accd60001b611645565b6150627f8401e39548639acf85c7c4cdec175f887d2872c6f9f12027c85ed88bef40f80060001b611645565b609760009054906101000a900473ffffffffffffffffffffffffffffffffffffffff1690505b919050565b61509561563a565b73ffffffffffffffffffffffffffffffffffffffff16606560009054906101000a900473ffffffffffffffffffffffffffffffffffffffff1673ffffffffffffffffffffffffffffffffffffffff1614615124576040517f08c379a000000000000000000000000000000000000000000000000000000000815260040161511b90618345565b60405180910390fd5b6151507f57c128d68e26037704a4c70a7507652efb195e3234f69ef68beaafe0f2e11fac60001b612f06565b61517c7f415bd2ea1845c56d9d414e18d387fde8b1ba7884d900c176d6ad30947bab667060001b612f06565b6151a87f25bd85c0f645e25b54aa342745dac1e80492f22598d8c6f28eec67600fbbf46460001b612f06565b6151b181616851565b50565b6151bc61563a565b73ffffffffffffffffffffffffffffffffffffffff16606560009054906101000a900473ffffffffffffffffffffffffffffffffffffffff1673ffffffffffffffffffffffffffffffffffffffff161461524b576040517f08c379a000000000000000000000000000000000000000000000000000000000815260040161524290618345565b60405180910390fd5b600073ffffffffffffffffffffffffffffffffffffffff168173ffffffffffffffffffffffffffffffffffffffff1614156152bb576040517f08c379a00000000000000000000000000000000000000000000000000000000081526004016152b2906181e5565b60405180910390fd5b8073ffffffffffffffffffffffffffffffffffffffff16606560009054906101000a900473ffffffffffffffffffffffffffffffffffffffff1673ffffffffffffffffffffffffffffffffffffffff167f8be0079c531659141344cd1fd0a4f28419497f9722a3daafe3b4186f6b6457e060405160405180910390a380606560006101000a81548173ffffffffffffffffffffffffffffffffffffffff021916908373ffffffffffffffffffffffffffffffffffffffff16021790555050565b6000808284019050838110156153c6576040517f08c379a00000000000000000000000000000000000000000000000000000000081526004016153bd90618205565b60405180910390fd5b8091505092915050565b6153fc7f342406e69494bb0e255a51ff57aa24575af3e59588c1dfc132acd36b41261b1b60001b612f06565b6154287f44b4c1485369eb7fb283a1bc9e08913b6034e1d639d5f15e4cf6d31395f2f54360001b612f06565b6154547f680b997295f2acedd9e8489bdc7b13fe056aaa7c299a54174e294d57319e02c160001b612f06565b6154807faefd123c3c5ef44ce7645f65dffeaf18cc09658ddac57bc40ac1090ae677ecb160001b612f06565b808211158015615492575060d3548211155b6154d1576040517f08c379a00000000000000000000000000000000000000000000000000000000081526004016154c890618305565b60405180910390fd5b6154fd7f415058a19439964fb977d03516ada01b90de066445e88d9dc66b8aceacef114560001b612f06565b6155297f655b6311a09e4029ec12d0da7b8599dc6056825a3a56866652576eba454e146360001b612f06565b6155557fbb4335a27bb3ef6ee5ef6d3f41152524abf87b588ba50c074ce90cca9955320660001b612f06565b8160d560008573ffffffffffffffffffffffffffffffffffffffff1673ffffffffffffffffffffffffffffffffffffffff168152602001908152602001600020819055506155c57f56969d6062e79b43f1429dc0248554d64a2d54ead25a9bd4b3b27f594c2bd2ea60001b612f06565b6155f17f6851d7029cb0a91f7c4b526c1c51b8665f983d9054fbb302409f3e967d56175660001b612f06565b8060d660008573ffffffffffffffffffffffffffffffffffffffff1673ffffffffffffffffffffffffffffffffffffffff16815260200190815260200160002081905550505050565b600033905090565b61566e7f855d763aef1b39257dcae983dd04987b5ff9866dd6905f3b104e1792ece84f6e60001b612f06565b61569a7f435db111e98734e0aefa4906d679f669f8666f8bb00371c06dbbc38f2fd7089d60001b612f06565b6156c67fb1863b11234e1bd3eee0e9b1973cc81b9c8ef44a89cd8e3f728fb89ada9f3b2260001b612f06565b6156f27f0a61b69b2911146fe6be3390b5cb103172f4a0651380f29f62b8c556a2899b4c60001b612f06565b600073ffffffffffffffffffffffffffffffffffffffff168473ffffffffffffffffffffffffffffffffffffffff161415615762576040517f08c379a0000000000000000000000000000000000000000000000000000000008152600401615759906182a5565b60405180910390fd5b61578e7fbb6a3a3b0546de76d2c9028dbf90836d08cfb3a63f165cb566b43107f0071b2c60001b612f06565b6157ba7fcb521a197cbdcf55f8fe0569a292d42542085549a4e443f724edc9c3cf419dc660001b612f06565b6157e67f10f54a8c712ce9287f074d3a4bdc52c3873e09e74aea3de150ab0b19e4d662a760001b612f06565b6158127f93cf3df28d10c77ae46dbd7a6ea3b676667d2c391eff3fbb3b032be7385491d660001b612f06565b60008383905011615858576040517f08c379a000000000000000000000000000000000000000000000000000000000815260040161584f90618245565b60405180910390fd5b6158847fc178d8b74cf04c836a8487c51ac4e66d7651bfbc58d5daea89cf2165ecaa0e1d60001b612f06565b6158b07fe2a35425f0567d7b74c7e042d4a30bb9ba4d96134fa4d7568ad4a5708e88fe7360001b612f06565b6158dc7f2745a0a3a4b32985f3e01b73f8e3740c72556ca9d3776a36c4a57d0f78bae4b160001b612f06565b606083838080601f016020809104026020016040519081016040528093929190818152602001838380828437600081840152601f19601f8201169050808301925050505050505090506159517fe7b4734b876cc6d676d89c05466d4ba28b58a4de4722f5b1452085f4ea1222f860001b612f06565b600080825160208401885af480156001811461596c57615977565b3d806000803e806000fd5b50506159a57f79c928ffbfeb122b155f5053cedffff99979f29afbb4b8fe2dfbe513cdbb4e4f60001b612f06565b6159d17f127ce5edf3b958530701de780e4d15517ccd754ee54d8875ccc889a36cadbc8760001b612f06565b8473ffffffffffffffffffffffffffffffffffffffff163373ffffffffffffffffffffffffffffffffffffffff167f78a9b536049c39a00adaf57016b1376c99dd48a0faf2cef23690232f21ce42cc60405160405180910390a3615a577f168911cd8d9446d3e3f10ad19cf117bb9eb5a1c62d06f45480ed33fb22fcf7c560001b612f06565b615a837fdccc1d4aef95164b4302d30bf27751844f482e57aec2e1e4fd0553637b5e9bd760001b612f06565b8160db60008773ffffffffffffffffffffffffffffffffffffffff1673ffffffffffffffffffffffffffffffffffffffff168152602001908152602001600020819055505050505050565b615afa7fe8903023a9fbeec754866a76ca67a78026dcc57ae058ce6bfa4637873c95468c60001b612f06565b615b267ff167642ff75d69b90cc0ffe784a739194100d0d78e92dd2fc75722006cf1dc4660001b612f06565b615b527f86195f918053d52c56d84ae41aced262feab0e4b966b2ed014c75a49b33ea2ca60001b612f06565b8060da8190555050565b615b887f1fb4ba669140d0e681751e780f11d51c806e2446224f797560dfc320b9fcab0460001b612f06565b615bb47faa360f633d68197ddf3312d4a465f46b19739f9c38f308fcc9fbe7ce4f03786560001b612f06565b615be07fa288fa9738442feb5a02ef3f1cee0ca39e7ced25dd098a8b64c93df6bf17630b60001b612f06565b8060df60008473ffffffffffffffffffffffffffffffffffffffff1673ffffffffffffffffffffffffffffffffffffffff16815260200190815260200160002060006101000a81548173ffffffffffffffffffffffffffffffffffffffff021916908373ffffffffffffffffffffffffffffffffffffffff1602179055505050565b6000615c907ff10185cd0d32b01e55ffad919700e420ebf45969f802dd4844b6adb9fe4245ff60001b611645565b615cbc7f452575f3dbc9b055907c1454b851e41d0a58d1ec5c0cca63eacfb6f8e0af594c60001b611645565b615ce87fd97cd8becc495d079ac1b24a8cdf886194dbc38095e15c1bc1f75230e6327b8b60001b611645565b6000615cf2616bb6565b9050615d207ffd7c25c5bb6de2e5149ea08c68ad5b056b4385130e4b820e2a7d815e94e10d7460001b611645565b615d4c7fa162ebabde26d8833b815c37ddaada19180822b340532793441b6e1fb74cb64a60001b611645565b7efffc2da0b561cae30d9826d37709e9421c4725faebc226cbbb7ef5fc5e734981604051615d7a9190617fd6565b60405180910390a1615dae7f03752cdd70fa4705bf713a5479875c8eea8ff77194d53a57aa714213d233851d60001b611645565b615dda7f2de4b0d1e3c0ea5b6cdabed25b05a31291a99ee19833dc6a10e3ad021f4e22fa60001b611645565b8073ffffffffffffffffffffffffffffffffffffffff1663e74a474a3086866040518463ffffffff1660e01b8152600401615e1793929190618131565b600060405180830381600087803b158015615e3157600080fd5b505af1158015615e45573d6000803e3d6000fd5b50505050615e757fca4c6424b11b303816a57c74574b8e2d69588b2fa9e7538dd5ff0001fa08303b60001b611645565b615ea17f9ce465b2199eb0deac7ad9b2e2ecfc4186c9182be82cd7110104867d42e46f3e60001b611645565b8091505092915050565b615ed77f65b8ba13a3ff3c3ac945ab7e5304bae5605e9b1fb403a075ba7d8ee1dc811f4960001b61393b565b615f037f41a7384b83fa4f8430527df521307a530950e2cde55b87d52b4015bc5132106360001b61393b565b615f2f7fd3904c2e4697610125791b77cbb4d45f2925909c57ffa4ce7f64013bcddd02d960001b61393b565b8060cc60008473ffffffffffffffffffffffffffffffffffffffff1673ffffffffffffffffffffffffffffffffffffffff16815260200190815260200160002060006101000a81548173ffffffffffffffffffffffffffffffffffffffff021916908373ffffffffffffffffffffffffffffffffffffffff1602179055505050565b615fdd7f36a679ea840c895120a2e5b2efd588f82d5c63292af4a2d3f07ce50d9166fb5560001b612f06565b6160097f70dbfb1c381b954cff847bb53ad2cbcaf2d1bc778cce1275c6f8c34833e023d860001b612f06565b6160357f48b3ae19671452f27b15c62556d50159fa992b459ec31eec19d32e16e6aa707d60001b612f06565b6160617faac6a4febde600e3cb62b5a4e20b2ab4c512350a0f34d225d858eb28382ea2ad60001b612f06565b808211156160a4576040517f08c379a000000000000000000000000000000000000000000000000000000000815260040161609b90618305565b60405180910390fd5b6160d07fa2a942ea703b68df76acaf78efdf3b89c4b823264f4d5a78cbf30aba63ef2b0c60001b612f06565b6160fc7f4d54a6565ca1bcfb4c481c6af51a8345ccc6b53ff6b27d8eea4f15d18423a55660001b612f06565b6161287f721c6adca17a27be9de9a6d4b369b28bcdea2bfc0364626c80d4fae8c1ae7dff60001b612f06565b8160cf8190555061615b7f6bfe09a8251838c030b10ecd8a681ae011d65fcdf07bf735178f0dbad99c096a60001b612f06565b6161877f0baf920f00970ad967f1dd72eb61cb61c352104b17227ec8f65060b4f37b018160001b612f06565b8060d0819055506161ba7f852689c4c1c033178ade5673be84b01a8bef02568253fd866d55ed05306204ac60001b612f06565b6161e67f9ca022657cd2e9a430ce49285b6d552bc278e3aa350825804b223d49b75fc59660001b612f06565b7fb10da2958bf5ec1bff3164ff753a09e0460ed44d3abf73e79b817b500ed0f2f18282604051616217929190618420565b60405180910390a15050565b6000803090506000813b9050600081149250505090565b6162667fb9cb73f0f1dc764c2853ad1b65ee338105d0109104c42b321091a6f8b1694f1c60001b611645565b6162927f2e6d3f297656381ff53916f1621b8d18b343157b4e197ecc6eddf64334e59a0260001b611645565b6162be7fae688c57ebecca526117ae635d1834de0a5d61d9e9843a02b28a8308f9be631860001b611645565b6162c6616d60565b6162f27fe1b47dc8732dfcba0907aae1c1ee71bd45af4f1063050be9e12fe0fdbddc7d5160001b611645565b61631e7f82ac6b6154aea0b9f4fe594ab0dee8d836fcf58efca81278bd58858ed96526ba60001b611645565b81609760006101000a81548173ffffffffffffffffffffffffffffffffffffffff021916908373ffffffffffffffffffffffffffffffffffffffff16021790555061638b7f7a065f23de9cd33361faaef687297c5fc76ad4f7836265087b5a027d5330213d60001b611645565b6163b77f7b7fe28aa5caeac4859b2f2489c983990bebb2b9b257ab47b2e79abd3a8ff09160001b611645565b80609860006101000a81548173ffffffffffffffffffffffffffffffffffffffff021916908373ffffffffffffffffffffffffffffffffffffffff1602179055505050565b6164287f10ef6a2510f74c6f22fb2baceca42c01d35aad779a621771443b7c3260d78b6660001b612f06565b6164547f9a064c295d231f678a5e1187b475c2358548dca5fd217e8d2d26ac7db1e075db60001b612f06565b6164807fac74234fdfd93144b7ae515f62c06f360e62b2668a29b22a763ae0f73ca589e360001b612f06565b8060ce60006101000a81548173ffffffffffffffffffffffffffffffffffffffff021916908373ffffffffffffffffffffffffffffffffffffffff1602179055506164ed7f2091c26ef2d789c26d3304643e600d0e1b4dedfb501a446ef32fc7934a1a676660001b612f06565b6165197fc436fed5490101d0e2ee4051d87e48fc1ada1293a36acd538d243833b944482160001b612f06565b7ff1034ad6b4d45dc33a4142b9c51c2b7f89bf4a410696e426cc0f3224869e0aca816040516165489190617fbb565b60405180910390a150565b61657f7f1c575746af7e540e79ee85b032758a21536a189f89213b3a85e066dc52b584a460001b612f06565b6165ab7ff1f920a307a50a36537b60d3e1c042f7b5cbcaeb5693ff3f159af2adb05b194560001b612f06565b6165d77f61ba8e81e777423d00e5f67eb9e284267d1d53343273addc0fc94106f158de6360001b612f06565b6166037f61c93a27ac7596e5f97d1b4edd90e38d7e91da65fe8f66d8111b0fe35e67e8ff60001b612f06565b80821115616646576040517f08c379a000000000000000000000000000000000000000000000000000000000815260040161663d90618305565b60405180910390fd5b6166727f67e1d051d3c327450c6503f595b95e7a6565f18691fc98b49629af779ac00bfb60001b612f06565b61669e7f60269d4aeb359878c7ebbb3f8c344a394957371fbc04e4a67b0f139d80a2571f60001b612f06565b6166ca7fdf17c3f71d656f18557810364eeb2ae93e784f9429026cd1d62337425531449960001b612f06565b8160d3819055506166fd7f4933be021fd2adc709912cdafb27dd5649f844b4bd922722deb4e6b83f3182cd60001b612f06565b6167297fa39dc92616864639644a3b46e19bbdba1bad9ff078fd5522fd1fe365ad98d04260001b612f06565b8060d4819055505050565b6167607fe7fa6a0317205cdf803a379b89b2fc4e599804b8df8c13dcc9e0d14567be2dc660001b612f06565b61678c7f60030e53a650617adea526f25af8c82f6ac5fe68541685c241042a363743d4ca60001b612f06565b6167b87f347994dfdc5276dbc554301fb187bd464bc39e3c2628b26657435ff8312dc27960001b612f06565b8060d7819055506167eb7f7763f9f62ad19bbc718b177b3d272ab010056a399855da20459f69567fb714dd60001b612f06565b6168177f251d1de899117aa1d7ab3f7bd793c31406d588b348bf8a5e35e2d461790076ca60001b612f06565b7f20d916c976f3971e8200089411b0b712ef4612d98380b8ad2e3d8a8a376d85c7816040516168469190618405565b60405180910390a150565b61687d7fc1bfae458180838daca9cd4267d8b7b242304c4b1ac52539f9955fe5f1bb42cb60001b612f06565b6168a97fdaeb5f78b873ba8e5db3d7d7f35e549d84048dee19babf2f4eaa1d97de77e5dd60001b612f06565b6168d57f9fb1cc00577c4aeef30eaf9a60f5b13460dd02001b51589722d2250a1770842c60001b612f06565b8060d9819055506169087f34883371b518cb8cfd96f62b66378a9690b490cf6d528d108de618f95079413860001b612f06565b6169347fcb17074d2e829f42d3c0dc5be1f219401ef0d35240da0605d7515254a6df161760001b612f06565b7f0cd8fcb5e08d7632af461f0ad793e5c63dc0d7595c301f5880650175e37a8748816040516169639190618405565b60405180910390a150565b61699a7fea35926461ee1cef215cda88aa0d6256f19710d3cebacabc5c8898b89036424160001b61393b565b6169c67f74d2362fc219b82d2b228efbbac9abd1fe838e27a21038af24eb7acd580acce960001b61393b565b6169f27f16bfa8786b9c8f92d47960522d778a68e6e3ef71d541ad5611365c3e3d47c3d160001b61393b565b600160cb60006101000a81548160ff021916908315150217905550565b616a3b7fb2d4461d33186f530feb6a7e5978fd288d6f74d06c64fc39ed663a8e8cf7909c60001b61393b565b616a677fd365d4d343587d482ec7d412e51fc04a10fe789507c4d8a79ef93e191f0df90560001b61393b565b616a937f2d2c3636722eb6fbdcebab6ed6475aae28dc2df5484eeaf47c28cb5f0127999660001b61393b565b600060cb60006101000a81548160ff021916908315150217905550565b616adc7fd54aceb568470500091af65a65817031c94887d30944addaef45d1577d99794b60001b61393b565b616b087f5771cdf3db0ec96c3fbbd46a59ebaf4988f408568b52a5383ae4b877e5c143ca60001b61393b565b616b347f1428afb59d854d21b50a9869194f7bb9002fd6ca9bee3733ecf70576a824b93960001b61393b565b600060cc60008373ffffffffffffffffffffffffffffffffffffffff1673ffffffffffffffffffffffffffffffffffffffff16815260200190815260200160002060006101000a81548173ffffffffffffffffffffffffffffffffffffffff021916908373ffffffffffffffffffffffffffffffffffffffff16021790555050565b6000616be47f3940190827eb558ad6b1d44ff82221168c39bc44f403fc3d529f8aba2386ab4d60001b611645565b616c107f1b259310ef1e70abab4c1e844ede1bb0fbb8ffabcd5e2f70da239bad98510f5a60001b611645565b616c3c7fafbab21fbc899c98449f981ef31500b08a1af01372472eaf018580f45d551f8660001b611645565b6000616c6a7fdb9fff4fde73c1ed0f8680713417bb0f0568630f45cfce917973d1c59088cae660001b611645565b616c967fd828a6341362111ddb6024665e6aeac0a88623dfe906a0a3cb76e56e575034e360001b611645565b606060405180602001616ca8906170d1565b6020820181038252601f19601f820116604052509050616cea7fa62261015c41296292b88cf310529fd06a5417b12e68e6bb5edcbc0f61786dcb60001b611645565b8051602082016000f09150813b616d0057600080fd5b616d2c7f2eb81550b2aacc241edeac9aac683667606473939fc8d0154cb0462199cecc0960001b611645565b616d587f2f53c8c2fd6b635e81554cee9203f211c91a7ab1c31532db6164bd9b1ea3fab460001b611645565b819250505090565b600060019054906101000a900460ff1680616d7f5750616d7e616223565b5b80616d95575060008054906101000a900460ff16155b616dd4576040517f08c379a0000000000000000000000000000000000000000000000000000000008152600401616dcb90618365565b60405180910390fd5b60008060019054906101000a900460ff161590508015616e24576001600060016101000a81548160ff02191690831515021790555060016000806101000a81548160ff0219169083151502179055505b616e2c616e58565b616e34616f40565b8015616e555760008060016101000a81548160ff0219169083151502179055505b50565b600060019054906101000a900460ff1680616e775750616e76616223565b5b80616e8d575060008054906101000a900460ff16155b616ecc576040517f08c379a0000000000000000000000000000000000000000000000000000000008152600401616ec390618365565b60405180910390fd5b60008060019054906101000a900460ff161590508015616f1c576001600060016101000a81548160ff02191690831515021790555060016000806101000a81548160ff0219169083151502179055505b8015616f3d5760008060016101000a81548160ff0219169083151502179055505b50565b600060019054906101000a900460ff1680616f5f5750616f5e616223565b5b80616f75575060008054906101000a900460ff16155b616fb4576040517f08c379a0000000000000000000000000000000000000000000000000000000008152600401616fab90618365565b60405180910390fd5b60008060019054906101000a900460ff161590508015617004576001600060016101000a81548160ff02191690831515021790555060016000806101000a81548160ff0219169083151502179055505b600061700e61563a565b905080606560006101000a81548173ffffffffffffffffffffffffffffffffffffffff021916908373ffffffffffffffffffffffffffffffffffffffff1602179055508073ffffffffffffffffffffffffffffffffffffffff16600073ffffffffffffffffffffffffffffffffffffffff167f8be0079c531659141344cd1fd0a4f28419497f9722a3daafe3b4186f6b6457e060405160405180910390a35080156170ce5760008060016101000a81548160ff0219169083151502179055505b50565b6113828061873983390190565b6000813590506170ed81618697565b92915050565b600082601f83011261710457600080fd5b813561711761711282618476565b618449565b9150818183526020840193506020810190508385602084028201111561713c57600080fd5b60005b8381101561716c578161715288826170de565b84526020840193506020830192505060018101905061713f565b5050505092915050565b600082601f83011261718757600080fd5b813561719a6171958261849e565b618449565b915081818352602084019350602081019050838560408402820111156171bf57600080fd5b60005b838110156171ef57816171d5888261733f565b8452602084019350604083019250506001810190506171c2565b5050505092915050565b600081359050617208816186ae565b92915050565b60008151905061721d816186ae565b92915050565b600081359050617232816186c5565b92915050565b60008083601f84011261724a57600080fd5b8235905067ffffffffffffffff81111561726357600080fd5b60208301915083600182028301111561727b57600080fd5b9250929050565b600082601f83011261729357600080fd5b81356172a66172a1826184c6565b618449565b915080825260208301602083018583830111156172c257600080fd5b6172cd838284618644565b50505092915050565b6000815190506172e5816186dc565b92915050565b600082601f8301126172fc57600080fd5b813561730f61730a826184f2565b618449565b9150808252602083016020830185838301111561732b57600080fd5b617336838284618644565b50505092915050565b60006040828403121561735157600080fd5b61735b6040618449565b9050600061736b848285016170de565b600083015250602061737f848285016171f9565b60208301525092915050565b60008135905061739a816186f3565b92915050565b6000815190506173af816186f3565b92915050565b6000813590506173c48161870a565b92915050565b6000815190506173d981618721565b92915050565b6000602082840312156173f157600080fd5b60006173ff848285016170de565b91505092915050565b6000806040838503121561741b57600080fd5b6000617429858286016170de565b925050602061743a858286016170de565b9150509250929050565b600080600080600060a0868803121561745c57600080fd5b600061746a888289016170de565b955050602061747b888289016170de565b945050604061748c888289016170de565b935050606086013567ffffffffffffffff8111156174a957600080fd5b6174b5888289016170f3565b925050608086013567ffffffffffffffff8111156174d257600080fd5b6174de888289016170f3565b9150509295509295909350565b600080604083850312156174fe57600080fd5b600061750c858286016170de565b925050602061751d8582860161738b565b9150509250929050565b60006020828403121561753957600080fd5b60006175478482850161720e565b91505092915050565b600080600080600080600060e0888a03121561756b57600080fd5b60006175798a828b016171f9565b975050602061758a8a828b016170de565b965050604088013567ffffffffffffffff8111156175a757600080fd5b6175b38a828b016172eb565b955050606088013567ffffffffffffffff8111156175d057600080fd5b6175dc8a828b016172eb565b945050608088013567ffffffffffffffff8111156175f957600080fd5b6176058a828b016172eb565b93505060a06176168a828b0161738b565b92505060c088013567ffffffffffffffff81111561763357600080fd5b61763f8a828b01617176565b91505092959891949750929550565b60006020828403121561766057600080fd5b600061766e84828501617223565b91505092915050565b6000806040838503121561768a57600080fd5b600083013567ffffffffffffffff8111156176a457600080fd5b6176b085828601617282565b92505060206176c1858286016173b5565b9150509250929050565b6000602082840312156176dd57600080fd5b60006176eb8482850161738b565b91505092915050565b6000806040838503121561770757600080fd5b60006177158582860161738b565b92505060206177268582860161738b565b9150509250929050565b60008060008060008060a0878903121561774957600080fd5b600061775789828a0161738b565b965050602061776889828a0161738b565b955050604061777989828a0161738b565b945050606061778a89828a0161738b565b935050608087013567ffffffffffffffff8111156177a757600080fd5b6177b389828a01617238565b92509250509295509295509295565b6000602082840312156177d457600080fd5b60006177e2848285016173b5565b91505092915050565b600080600080600060a0868803121561780357600080fd5b6000617811888289016173ca565b9550506020617822888289016172d6565b9450506040617833888289016173a0565b9350506060617844888289016173a0565b9250506080617855888289016173ca565b9150509295509295909350565b600061786e8383617f6e565b60408301905092915050565b6178838161860e565b82525050565b6178928161858f565b82525050565b6178a18161858f565b82525050565b60006178b28261852e565b6178bc818561855c565b93506178c78361851e565b8060005b838110156178f85781516178df8882617862565b97506178ea8361854f565b9250506001810190506178cb565b5085935050505092915050565b61790e816185a1565b82525050565b61791d816185a1565b82525050565b61792c816185ad565b82525050565b600061793d82618539565b617947818561856d565b9350617957818560208601618653565b61796081618686565b840191505092915050565b600061797682618544565b617980818561857e565b9350617990818560208601618653565b61799981618686565b840191505092915050565b60006179b160128361857e565b91507f4e6f74206120706f6f6c206d616e6167657200000000000000000000000000006000830152602082019050919050565b60006179f1600e8361857e565b91507f696e76616c696420626f756e64730000000000000000000000000000000000006000830152602082019050919050565b6000617a3160268361857e565b91507f4f776e61626c653a206e6577206f776e657220697320746865207a65726f206160008301527f64647265737300000000000000000000000000000000000000000000000000006020830152604082019050919050565b6000617a97601b8361857e565b91507f536166654d6174683a206164646974696f6e206f766572666c6f7700000000006000830152602082019050919050565b6000617ad760088361857e565b91507f6f6e6c792064616f0000000000000000000000000000000000000000000000006000830152602082019050919050565b6000617b17600c8361857e565b91507f646174612d696e76616c696400000000000000000000000000000000000000006000830152602082019050919050565b6000617b5760148361857e565b91507f6d616e616765722066656520746f6f20686967680000000000000000000000006000830152602082019050919050565b6000617b9760258361857e565b91507f5072696365436f6e73756d657256333a2061676772656761746f72206e6f742060008301527f666f756e640000000000000000000000000000000000000000000000000000006020830152604082019050919050565b6000617bfd600e8361857e565b91507f7461726765742d696e76616c69640000000000000000000000000000000000006000830152602082019050919050565b6000617c3d602a8361857e565b91507f5072696365436f6e73756d657256333a20636861696e6c696e6b20616c72656160008301527f647920656e61626c6564000000000000000000000000000000000000000000006020830152604082019050919050565b6000617ca360138361857e565b91507f617373657420646f65736e2774206578697374000000000000000000000000006000830152602082019050919050565b6000617ce360108361857e565b91507f696e76616c6964206672616374696f6e000000000000000000000000000000006000830152602082019050919050565b6000617d2360248361857e565b91507f5072696365436f6e73756d657256333a207072696365206e6f7420617661696c60008301527f61626c65000000000000000000000000000000000000000000000000000000006020830152604082019050919050565b6000617d8960208361857e565b91507f4f776e61626c653a2063616c6c6572206973206e6f7420746865206f776e65726000830152602082019050919050565b6000617dc9602e8361857e565b91507f436f6e747261637420696e7374616e63652068617320616c726561647920626560008301527f656e20696e697469616c697a65640000000000000000000000000000000000006020830152604082019050919050565b6000617e2f60148361857e565b91507f617373657420616c7265616479206578697374730000000000000000000000006000830152602082019050919050565b6000617e6f60288361857e565b91507f5072696365436f6e73756d657256333a20636861696e6c696e6b20707269636560008301527f20657870697265640000000000000000000000000000000000000000000000006020830152604082019050919050565b6000617ed560268361857e565b91507f5072696365436f6e73756d657256333a20636861696e6c696e6b206e6f74206560008301527f6e61626c656400000000000000000000000000000000000000000000000000006020830152604082019050919050565b6000617f3b601e8361857e565b91507f737570706c6965642061646472657373206973206e6f74206120706f6f6c00006000830152602082019050919050565b604082016000820151617f846000850182617889565b506020820151617f976020850182617905565b50505050565b617fa6816185e1565b82525050565b617fb5816185eb565b82525050565b6000602082019050617fd06000830184617898565b92915050565b6000602082019050617feb600083018461787a565b92915050565b60006080820190506180066000830187617898565b6180136020830186617898565b8181036040830152618025818561796b565b9050818103606083015261803981846178a7565b905095945050505050565b600060a0820190506180596000830188617898565b6180666020830187617914565b8181036040830152618078818661796b565b9050818103606083015261808c818561796b565b905061809b6080830184617898565b9695505050505050565b6000610100820190506180bb600083018b617898565b6180c8602083018a617914565b81810360408301526180da818961796b565b905081810360608301526180ee818861796b565b90506180fd6080830187617898565b61810a60a0830186617f9d565b61811760c0830185617f9d565b61812460e0830184617f9d565b9998505050505050505050565b60006060820190506181466000830186617898565b81810360208301526181588185617932565b90506181676040830184617fac565b949350505050565b60006020820190506181846000830184617914565b92915050565b600060208201905061819f6000830184617923565b92915050565b600060208201905081810360008301526181be816179a4565b9050919050565b600060208201905081810360008301526181de816179e4565b9050919050565b600060208201905081810360008301526181fe81617a24565b9050919050565b6000602082019050818103600083015261821e81617a8a565b9050919050565b6000602082019050818103600083015261823e81617aca565b9050919050565b6000602082019050818103600083015261825e81617b0a565b9050919050565b6000602082019050818103600083015261827e81617b4a565b9050919050565b6000602082019050818103600083015261829e81617b8a565b9050919050565b600060208201905081810360008301526182be81617bf0565b9050919050565b600060208201905081810360008301526182de81617c30565b9050919050565b600060208201905081810360008301526182fe81617c96565b9050919050565b6000602082019050818103600083015261831e81617cd6565b9050919050565b6000602082019050818103600083015261833e81617d16565b9050919050565b6000602082019050818103600083015261835e81617d7c565b9050919050565b6000602082019050818103600083015261837e81617dbc565b9050919050565b6000602082019050818103600083015261839e81617e22565b9050919050565b600060208201905081810360008301526183be81617e62565b9050919050565b600060208201905081810360008301526183de81617ec8565b9050919050565b600060208201905081810360008301526183fe81617f2e565b9050919050565b600060208201905061841a6000830184617f9d565b92915050565b60006040820190506184356000830185617f9d565b6184426020830184617f9d565b9392505050565b6000604051905081810181811067ffffffffffffffff8211171561846c57600080fd5b8060405250919050565b600067ffffffffffffffff82111561848d57600080fd5b602082029050602081019050919050565b600067ffffffffffffffff8211156184b557600080fd5b602082029050602081019050919050565b600067ffffffffffffffff8211156184dd57600080fd5b601f19601f8301169050602081019050919050565b600067ffffffffffffffff82111561850957600080fd5b601f19601f8301169050602081019050919050565b6000819050602082019050919050565b600081519050919050565b600081519050919050565b600081519050919050565b6000602082019050919050565b600082825260208201905092915050565b600082825260208201905092915050565b600082825260208201905092915050565b600061859a826185c1565b9050919050565b60008115159050919050565b6000819050919050565b6000819050919050565b600073ffffffffffffffffffffffffffffffffffffffff82169050919050565b6000819050919050565b600060ff82169050919050565b600069ffffffffffffffffffff82169050919050565b600061861982618620565b9050919050565b600061862b82618632565b9050919050565b600061863d826185c1565b9050919050565b82818337600083830152505050565b60005b83811015618671578082015181840152602081019050618656565b83811115618680576000848401525b50505050565b6000601f19601f8301169050919050565b6186a08161858f565b81146186ab57600080fd5b50565b6186b7816185a1565b81146186c257600080fd5b50565b6186ce816185ad565b81146186d957600080fd5b50565b6186e5816185b7565b81146186f057600080fd5b50565b6186fc816185e1565b811461870757600080fd5b50565b618713816185eb565b811461871e57600080fd5b50565b61872a816185f8565b811461873557600080fd5b5056fe608060405234801561001057600080fd5b50611362806100206000396000f3fe6080604052600436106100435760003560e01c806399fcc3af1461010c5780639fca148914610147578063a4d57bee14610182578063e74a474a146101bd5761007e565b3661007e576100747fc6b4e05c8886da748779e3730e8c17790f4949c297c98f69c0e25769046b382860001b6102a5565b61007c6102a8565b005b6100aa7f7cac60e495c25cc9e216dd3d679b6fd06d90acd829d30d51b0b95c15961f9ce860001b6102a5565b6100d67fa498bb8916b0b37a35deaa8b1accf938c042e340ce4efc8012c9bc9f2d9a158260001b6102a5565b6101027fb98f83d464d19b3956a82d774c19111c6b015ef12927ca07b8c336ee6ed5c83260001b6102a5565b61010a6102a8565b005b34801561011857600080fd5b506101456004803603602081101561012f57600080fd5b81019080803590602001909291905050506102a5565b005b34801561015357600080fd5b506101806004803603602081101561016a57600080fd5b810190808035906020019092919050505061039e565b005b34801561018e57600080fd5b506101bb600480360360208110156101a557600080fd5b81019080803590602001909291905050506103a1565b005b6102a3600480360360608110156101d357600080fd5b81019080803573ffffffffffffffffffffffffffffffffffffffff1690602001909291908035906020019064010000000081111561021057600080fd5b82018360208201111561022257600080fd5b8035906020019184600183028401116401000000008311171561024457600080fd5b91908080601f016020809104026020016040519081016040528093929190818152602001838380828437600081840152601f19601f820116905080830192505050505050509192919290803560ff1690602001909291905050506103a4565b005b50565b6102d47fcc50f323444403c69b72c742f10568fd580356f98ea0b8a61244432b4b8329aa60001b6102a5565b6103007f91459de950b72cb048d7c2381f9b9aa525ffd2583f54ee2b5d56207fdd63c5f260001b6102a5565b61032c7f2a63a560972ad1e96b63734e142fb213f07cc296632536b43fa61424677948a660001b6102a5565b610334610996565b6103607f77edd1b383a85548630fa7bfd95f57342f38b1ebd03fe4ad3dbba6c3b573793560001b6102a5565b61038c7fb07c5e61b7983b69d2f2e8e63be5cea8d7d53b55b03a0cf98e73a5d19bd6ae6e60001b6102a5565b61039c6103976109c4565b610d0e565b565b50565b50565b6103d07f3a2cb568b5f0c02143f547f22155e22d641ae73b092cf7be91b2a48baf5d27b660001b6103a1565b6103fc7f77b59016394b667c232007d5d7f351405335dadba38fd8efce4f3dfb78997e1d60001b6103a1565b6104287f4808f7f9c1c39002a44520b8cdbe298ebcfcd1cebba3ddda7c3c306fca2cba8060001b6103a1565b6104547f7a97ee10ea7a8eda5e03c8bc7e3f193cb948f9814608c10ad1de4b1b88f60c3760001b6103a1565b600073ffffffffffffffffffffffffffffffffffffffff166104746109c4565b73ffffffffffffffffffffffffffffffffffffffff16146104fd576040517f08c379a000000000000000000000000000000000000000000000000000000000815260040180806020018281038252600d8152602001807f496d706c206e6f74207a65726f0000000000000000000000000000000000000081525060200191505060405180910390fd5b6105297f3a215253b6e6c1dba9e36d7e09433efb0eaab4fbd542af9a2ad7275c15ea576a60001b6103a1565b6105557f8e03d80b97a7e1e6eb80137f094a73f60a308817bab257efd2f68722745dcaea60001b6103a1565b6105817f8de64bd6bbf8d5a366f32c7e120e3cc8c821adb94ed23cb745cfd0bf7f90fff560001b6103a1565b60017f360894a13ba1a3210667c828492db98dca3e2076cc3735a920a3ca505d382bbd60001c0360001b7f360894a13ba1a3210667c828492db98dca3e2076cc3735a920a3ca505d382bbc60001b146105d657fe5b6106027f1bfe6fc8a642589c190af97973b30fc181f621e68ea3fc530134f2c9960d66c760001b6103a1565b61062e7f26da551a6a926ba9dba93b2820059c1008c782601820a25d21c2a8ee4b4d024560001b6103a1565b61063783610d8c565b6106637f062aa06dbe01d194bba31b85e273757d6336e6bf1e87409032d1fc917f1a731760001b6103a1565b61068f7f7e21962afbd4b7de92ac7eeae1bb8c663e2b123195c725e12fb5d71f3863a03160001b6103a1565b61069881610f96565b6106c47ff6e6b478580a83b05883b3e7feb1d09ce95b547c04198ba48de5aee8183acc5e60001b6103a1565b6106f07f8965cdf8c1d2f0888f33a3d43c74902372c94e17b01677d6a81c030f4671307b60001b6103a1565b600082511115610964576107267f115c9352b821f67eac063ff66d255887a6023e7ed2a2043aca73dbe8fb47bd8360001b6103a1565b6107527fbff092917c7b1f4508c4411509a64a2e7be6129d44ca4eb9111fb0e4a900910f60001b6103a1565b61077e7f3f21e28976af0f6f8446da03b470231c7db787d35cec72dc33011588a197501660001b6103a1565b60006107886109c4565b73ffffffffffffffffffffffffffffffffffffffff16836040518082805190602001908083835b602083106107d257805182526020820191506020810190506020830392506107af565b6001836020036101000a038019825116818451168082178552505050505050905001915050600060405180830381855af49150503d8060008114610832576040519150601f19603f3d011682016040523d82523d6000602084013e610837565b606091505b505090506108677f23de363b5e338d9543c99d138b972416e84bfdbb99e884708202df8ce169a3c960001b6103a1565b6108937f015f525def9afaa0242af4bbb13399182ea70edcc69e6160e0f3222180acf68460001b6103a1565b6108bf7f1cc7ae8bc4414ecccd28794dbd32704e951176f54b750d298ea49ccaf9afa56060001b6103a1565b80610932576040517f08c379a000000000000000000000000000000000000000000000000000000000815260040180806020018281038252601a8152602001807f496d706c656d656e746174696f6e20696e6974206661696c656400000000000081525060200191505060405180910390fd5b61095e7f0851853b63f6d8b4dbb98458c7ed10f33f41bb03b22e873c1091d57429c6e39360001b6103a1565b50610991565b6109907f4e41306208c109d267c3db0a422978c4db16e863c7ebbc6603365e29c547b5b060001b6103a1565b5b505050565b6109c27f276b633fb1946cc03b9c844674afbbfa8f3e77bc0ffafeb39b77dabc1886667560001b6102a5565b565b60006109f27f077de034f5c7298f11d849c35541287460ab2175e9265eed7f948784b84b95e260001b61039e565b610a1e7feb5666e3ff94584d3f43ed9d4226fb55c9d5fd656f201fc448d94a7cce59b0fd60001b61039e565b610a4a7fec433353424e2aa184bc7059a893e4fab799c68e834318eccef10e441687f7f360001b61039e565b6000610a787f53ce0dd4617f9997965c4e7a52f203163a3f5c80d8f29d8c471110aca611c11660001b61039e565b610aa47f76c6db1ab825a57a577f977ff80e0f30540ebcfa89671fe345afaa15aff79ae960001b61039e565b60007f360894a13ba1a3210667c828492db98dca3e2076cc3735a920a3ca505d382bbc60001b9050610af87fa5793ed3e454c6da632434d6ad8ba3e21aadb69ec0eaaf4673ec86a9b565275560001b61039e565b80549150610b287fdd8e92d4de16353bc86e626af17fe8b09f1a11017635c855fb0a7fadc4baf2dd60001b61039e565b610b547f3f022d8f69f42c34354a868b842611bc7e9f34010c7962d6223657785b28042860001b61039e565b600073ffffffffffffffffffffffffffffffffffffffff168273ffffffffffffffffffffffffffffffffffffffff161415610bec57610bb57f173b1db32db0581166a1cec716d6f825d30035adb4043fa1faf667f6e1ba39f460001b61039e565b610be17f1b2cc020f945581b6d8d02f38ca4e6283cf5fa2b06ac14a640cb20689274816760001b61039e565b600092505050610d0b565b610c187fbea1bee21992abdd1abf0c189d41f808e091c05595bbba731a69bc489fdcf68e60001b61039e565b610c447f6f9f753bde1a19cfbaba68d5a9e501237dec3e9ffd52d9f8cd9263cdec9ad2b560001b61039e565b610c707fc3f9a96809e79305f42491aae649f233d7b0c9bf585bb625e37e63514c3507c860001b61039e565b8173ffffffffffffffffffffffffffffffffffffffff1663ecef89d5610c94611075565b6040518263ffffffff1660e01b8152600401808260ff16815260200191505060206040518083038186803b158015610ccb57600080fd5b505afa158015610cdf573d6000803e3d6000fd5b505050506040513d6020811015610cf557600080fd5b8101908080519060200190929190505050925050505b90565b610d3a7f6553b3bbf61b84602ae382fedcbbf6290bc154e245b87926d62e3f86240a4bf260001b6102a5565b610d667fde788fbfc1fb399d6b655d570b484725b445d3bb4cf78879e20863a893557b0060001b6102a5565b3660008037600080366000845af43d6000803e8060008114610d87573d6000f35b3d6000fd5b610db87f91eb2693086155afa1a63324ebcb4f2967f172d990060602d776bb717f04d54660001b61039e565b610de47f629ad5a2c2f16cfad67fc9298c8549c3b857d49865451687ff0926b6fa8885c660001b61039e565b610e107fe1c0a344e7e819566bfd4ab41d97f31d1409abbc35ee34d7b4f5161435de78e560001b61039e565b610e3c7f7ab470c380fc0752790480bda347ca04794e83e6222fc0021fccf1cc82a7f62560001b61039e565b610e458161120d565b610eb7576040517f08c379a00000000000000000000000000000000000000000000000000000000081526004018080602001828103825260208152602001807f43616e6e6f742073657420696d706c656d656e746174696f6e20746f20454f4181525060200191505060405180910390fd5b610ee37f70accb29c12468c14362f4b65efb2efa6adf4a1a2aab7e801bde3a803939c05560001b61039e565b610f0f7f6455548ba1bb40a10c79cb9b45afb5f85aea883cd4416e069ce504078869386160001b61039e565b610f3b7f9dde5da54c56e76ac05f69b0d6cfc5337cb767b4473dbbf71901fd6fed42972f60001b61039e565b60007f360894a13ba1a3210667c828492db98dca3e2076cc3735a920a3ca505d382bbc60001b9050610f8f7fee9707930db6602f53581706bde146ff5c1089a64af5fbb50c5be9e9b7f96ab960001b61039e565b8181555050565b610fc27fbc81e88c2edd168034892c20512aa682a4868d292d05737b3dffa83cad7037dc60001b61039e565b610fee7f987d71e7dc06ab5c788f4c9a0129e58572dd551161646eadafc6681843482b3860001b61039e565b61101a7f64f8535121c0c8606762fc4f486ebb7f5b493d79a2c012479e94427203f1aa3460001b61039e565b60007f100000000000000000000000000000000000000000000000000000000000000060001b905061106e7f6824280e261c39488edbfa7a475a691b312d5c522dfa40bf9f6ae2b79bd6840f60001b61039e565b8181555050565b60006110a37f9678d93bcdb7e8ebd2d49fa07be99cbcb83c3977ae8ad3058c2ea2daaefab51e60001b61039e565b6110cf7ff18a944a5a9a44a81768adb2f6707f7dc7b98dad5f0f42f84fb5f333a3acf1b360001b61039e565b6110fb7f3faeaf931136d7c21b99a41ba1c4022c5eef76d609e347679d6dfbf3d117b0ec60001b61039e565b60006111297f9e8b25b038102415cca03a970994a70109eeef5e5be0f613784662482e2e19c660001b61039e565b6111557fdd8cdda75d04b380d725cdb7fa79f7cc8829c6d1df58515e90bfa757016b8a5a60001b61039e565b60007f100000000000000000000000000000000000000000000000000000000000000060001b90506111a97f45c698179387c7d3079bd5738e6b04085f039528bec62a361fcd921001601bae60001b61039e565b805491506111d97f1e9bce0245cc028ace68fe7e6ef5e100315b0879da647cb93eb9c121d3d832b760001b61039e565b6112057f0ec1f28fb7f1c508d86cd00feb7f41ae8d18bfa0c5d0ac20d867bce5a8fccc6460001b61039e565b819250505090565b600061123b7f17b6a0c44ed2f5553cfcbcfdac44c59dff4727457b669adb5d55bd0063077d8b60001b611329565b6112677f2748d44997f6bf7fba63b3249775817425de6f3bc535ba457f02b96c476714e660001b611329565b6112937f4d9960f45a6cd5d5a67ffbf0fec1c641e98a7a63e9fd82635c7d94436118ceb260001b611329565b60006112c17f2da09769987cc7b599e1411a5c3604dd9825e89e29a9890444d270d86d9121b260001b611329565b823b90506112f17fb8684c3fbea589324b71d8ac61740117361d861f5b224982f3a2d46349b3a39060001b611329565b61131d7f2ba6b82a203e9740df351b6f679eff0e15187876af68dd271196c030bd5660d260001b611329565b60008111915050919050565b5056fea2646970667358221220daa7272fbf5803787d0c555b353a611732cd24c163067a780cc8f9a824ef4ac164736f6c634300060c0033a264697066735822122054966ccada6be9dcae31c29b7d660c1705534b00eebf36f394e59109f62e15c364736f6c634300060c0033",
  "linkReferences": {},
  "deployedLinkReferences": {}
}