{
  "_format": "hh-sol-artifact-1",
  "contractName": "PoolFactory-ovm",
  "sourceName": "contracts/PoolFactory.sol",
  "abi": [
    {
      "anonymous": false,
      "inputs": [
        {
          "indexed": false,
          "internalType": "address",
          "name": "dao",
          "type": "address"
        }
      ],
      "name": "DaoAddressSet",
      "type": "event"
    },
    {
      "anonymous": false,
      "inputs": [
        {
          "indexed": false,
          "internalType": "uint256",
          "name": "numerator",
          "type": "uint256"
        },
        {
          "indexed": false,
          "internalType": "uint256",
          "name": "denominator",
          "type": "uint256"
        }
      ],
      "name": "DaoFeeSet",
      "type": "event"
    },
    {
      "anonymous": false,
      "inputs": [
        {
          "indexed": false,
          "internalType": "uint256",
          "name": "cooldown",
          "type": "uint256"
        }
      ],
      "name": "ExitCooldownSet",
      "type": "event"
    },
    {
      "anonymous": false,
      "inputs": [
        {
          "indexed": false,
          "internalType": "uint256",
          "name": "numerator",
          "type": "uint256"
        },
        {
          "indexed": false,
          "internalType": "uint256",
          "name": "denominator",
          "type": "uint256"
        }
      ],
      "name": "ExitFeeSet",
      "type": "event"
    },
    {
      "anonymous": false,
      "inputs": [
        {
          "indexed": false,
          "internalType": "address",
          "name": "fundAddress",
          "type": "address"
        },
        {
          "indexed": false,
          "internalType": "bool",
          "name": "isPoolPrivate",
          "type": "bool"
        },
        {
          "indexed": false,
          "internalType": "string",
          "name": "fundName",
          "type": "string"
        },
        {
          "indexed": false,
          "internalType": "string",
          "name": "managerName",
          "type": "string"
        },
        {
          "indexed": false,
          "internalType": "address",
          "name": "manager",
          "type": "address"
        },
        {
          "indexed": false,
          "internalType": "uint256",
          "name": "time",
          "type": "uint256"
        },
        {
          "indexed": false,
          "internalType": "uint256",
          "name": "managerFeeNumerator",
          "type": "uint256"
        },
        {
          "indexed": false,
          "internalType": "uint256",
          "name": "managerFeeDenominator",
          "type": "uint256"
        }
      ],
      "name": "FundCreated",
      "type": "event"
    },
    {
      "anonymous": false,
      "inputs": [
        {
          "indexed": true,
          "internalType": "address",
          "name": "manager",
          "type": "address"
        },
        {
          "indexed": true,
          "internalType": "address",
          "name": "pool",
          "type": "address"
        }
      ],
      "name": "LogUpgrade",
      "type": "event"
    },
    {
      "anonymous": false,
      "inputs": [
        {
          "indexed": false,
          "internalType": "uint256",
          "name": "count",
          "type": "uint256"
        }
      ],
      "name": "MaximumSupportedAssetCountSet",
      "type": "event"
    },
    {
      "anonymous": false,
      "inputs": [
        {
          "indexed": true,
          "internalType": "address",
          "name": "previousOwner",
          "type": "address"
        },
        {
          "indexed": true,
          "internalType": "address",
          "name": "newOwner",
          "type": "address"
        }
      ],
      "name": "OwnershipTransferred",
      "type": "event"
    },
    {
      "anonymous": false,
      "inputs": [
        {
          "indexed": false,
          "internalType": "address",
          "name": "proxy",
          "type": "address"
        }
      ],
      "name": "ProxyCreated",
      "type": "event"
    },
    {
      "inputs": [],
      "name": "addressResolver",
      "outputs": [
        {
          "internalType": "contract IAddressResolver",
          "name": "",
          "type": "address"
        }
      ],
      "stateMutability": "view",
      "type": "function"
    },
    {
      "inputs": [
        {
          "internalType": "bool",
          "name": "_privatePool",
          "type": "bool"
        },
        {
          "internalType": "address",
          "name": "_manager",
          "type": "address"
        },
        {
          "internalType": "string",
          "name": "_managerName",
          "type": "string"
        },
        {
          "internalType": "string",
          "name": "_fundName",
          "type": "string"
        },
        {
          "internalType": "string",
          "name": "_fundSymbol",
          "type": "string"
        },
        {
          "internalType": "uint256",
          "name": "_managerFeeNumerator",
          "type": "uint256"
        },
        {
          "internalType": "bytes32[]",
          "name": "_supportedAssets",
          "type": "bytes32[]"
        }
      ],
      "name": "createFund",
      "outputs": [
        {
          "internalType": "address",
          "name": "",
          "type": "address"
        }
      ],
      "stateMutability": "nonpayable",
      "type": "function"
    },
    {
      "inputs": [
        {
          "internalType": "bytes",
          "name": "_data",
          "type": "bytes"
        },
        {
          "internalType": "uint8",
          "name": "_proxyType",
          "type": "uint8"
        }
      ],
      "name": "deploy",
      "outputs": [
        {
          "internalType": "address",
          "name": "",
          "type": "address"
        }
      ],
      "stateMutability": "nonpayable",
      "type": "function"
    },
    {
      "inputs": [
        {
          "internalType": "uint256",
          "name": "",
          "type": "uint256"
        }
      ],
      "name": "deployedFunds",
      "outputs": [
        {
          "internalType": "address",
          "name": "",
          "type": "address"
        }
      ],
      "stateMutability": "view",
      "type": "function"
    },
    {
      "inputs": [],
      "name": "deployedFundsLength",
      "outputs": [
        {
          "internalType": "uint256",
          "name": "",
          "type": "uint256"
        }
      ],
      "stateMutability": "view",
      "type": "function"
    },
    {
      "inputs": [],
      "name": "getAddressResolver",
      "outputs": [
        {
          "internalType": "contract IAddressResolver",
          "name": "",
          "type": "address"
        }
      ],
      "stateMutability": "view",
      "type": "function"
    },
    {
      "inputs": [],
      "name": "getDaoAddress",
      "outputs": [
        {
          "internalType": "address",
          "name": "",
          "type": "address"
        }
      ],
      "stateMutability": "view",
      "type": "function"
    },
    {
      "inputs": [],
      "name": "getDaoFee",
      "outputs": [
        {
          "internalType": "uint256",
          "name": "",
          "type": "uint256"
        },
        {
          "internalType": "uint256",
          "name": "",
          "type": "uint256"
        }
      ],
      "stateMutability": "view",
      "type": "function"
    },
    {
      "inputs": [],
      "name": "getExitCooldown",
      "outputs": [
        {
          "internalType": "uint256",
          "name": "",
          "type": "uint256"
        }
      ],
      "stateMutability": "view",
      "type": "function"
    },
    {
      "inputs": [
        {
          "internalType": "uint8",
          "name": "_proxyType",
          "type": "uint8"
        }
      ],
      "name": "getLogic",
      "outputs": [
        {
          "internalType": "address",
          "name": "",
          "type": "address"
        }
      ],
      "stateMutability": "view",
      "type": "function"
    },
    {
      "inputs": [],
      "name": "getManagerFeeNumeratorChangeDelay",
      "outputs": [
        {
          "internalType": "uint256",
          "name": "",
          "type": "uint256"
        }
      ],
      "stateMutability": "view",
      "type": "function"
    },
    {
      "inputs": [],
      "name": "getMaximumManagerFee",
      "outputs": [
        {
          "internalType": "uint256",
          "name": "",
          "type": "uint256"
        },
        {
          "internalType": "uint256",
          "name": "",
          "type": "uint256"
        }
      ],
      "stateMutability": "view",
      "type": "function"
    },
    {
      "inputs": [],
      "name": "getMaximumManagerFeeNumeratorChange",
      "outputs": [
        {
          "internalType": "uint256",
          "name": "",
          "type": "uint256"
        }
      ],
      "stateMutability": "view",
      "type": "function"
    },
    {
      "inputs": [],
      "name": "getMaximumSupportedAssetCount",
      "outputs": [
        {
          "internalType": "uint256",
          "name": "",
          "type": "uint256"
        }
      ],
      "stateMutability": "view",
      "type": "function"
    },
    {
      "inputs": [
        {
          "internalType": "address",
          "name": "pool",
          "type": "address"
        }
      ],
      "name": "getPoolManagerFee",
      "outputs": [
        {
          "internalType": "uint256",
          "name": "",
          "type": "uint256"
        },
        {
          "internalType": "uint256",
          "name": "",
          "type": "uint256"
        }
      ],
      "stateMutability": "view",
      "type": "function"
    },
    {
      "inputs": [],
      "name": "getTrackingCode",
      "outputs": [
        {
          "internalType": "bytes32",
          "name": "",
          "type": "bytes32"
        }
      ],
      "stateMutability": "view",
      "type": "function"
    },
    {
      "inputs": [
        {
          "internalType": "contract IAddressResolver",
          "name": "_addressResolver",
          "type": "address"
        },
        {
          "internalType": "address",
          "name": "_poolLogic",
          "type": "address"
        },
        {
          "internalType": "address",
          "name": "_managerLogic",
          "type": "address"
        },
        {
          "internalType": "address",
          "name": "daoAddress",
          "type": "address"
        }
      ],
      "name": "initialize",
      "outputs": [],
      "stateMutability": "nonpayable",
      "type": "function"
    },
    {
      "inputs": [
        {
          "internalType": "address",
          "name": "",
          "type": "address"
        }
      ],
      "name": "isPool",
      "outputs": [
        {
          "internalType": "bool",
          "name": "",
          "type": "bool"
        }
      ],
      "stateMutability": "view",
      "type": "function"
    },
    {
      "inputs": [],
      "name": "managerFeeNumeratorChangeDelay",
      "outputs": [
        {
          "internalType": "uint256",
          "name": "",
          "type": "uint256"
        }
      ],
      "stateMutability": "view",
      "type": "function"
    },
    {
      "inputs": [],
      "name": "maximumManagerFeeNumeratorChange",
      "outputs": [
        {
          "internalType": "uint256",
          "name": "",
          "type": "uint256"
        }
      ],
      "stateMutability": "view",
      "type": "function"
    },
    {
      "inputs": [],
      "name": "owner",
      "outputs": [
        {
          "internalType": "address",
          "name": "",
          "type": "address"
        }
      ],
      "stateMutability": "view",
      "type": "function"
    },
    {
      "inputs": [
        {
          "internalType": "address",
          "name": "",
          "type": "address"
        }
      ],
      "name": "poolManagerFeeDenominator",
      "outputs": [
        {
          "internalType": "uint256",
          "name": "",
          "type": "uint256"
        }
      ],
      "stateMutability": "view",
      "type": "function"
    },
    {
      "inputs": [
        {
          "internalType": "address",
          "name": "",
          "type": "address"
        }
      ],
      "name": "poolManagerFeeNumerator",
      "outputs": [
        {
          "internalType": "uint256",
          "name": "",
          "type": "uint256"
        }
      ],
      "stateMutability": "view",
      "type": "function"
    },
    {
      "inputs": [],
      "name": "poolStorageVersion",
      "outputs": [
        {
          "internalType": "uint256",
          "name": "",
          "type": "uint256"
        }
      ],
      "stateMutability": "view",
      "type": "function"
    },
    {
      "inputs": [
        {
          "internalType": "address",
          "name": "",
          "type": "address"
        }
      ],
      "name": "poolVersion",
      "outputs": [
        {
          "internalType": "uint256",
          "name": "",
          "type": "uint256"
        }
      ],
      "stateMutability": "view",
      "type": "function"
    },
    {
      "inputs": [],
      "name": "renounceOwnership",
      "outputs": [],
      "stateMutability": "nonpayable",
      "type": "function"
    },
    {
      "inputs": [
        {
          "internalType": "address",
          "name": "_addressResolver",
          "type": "address"
        }
      ],
      "name": "setAddressResolver",
      "outputs": [],
      "stateMutability": "nonpayable",
      "type": "function"
    },
    {
      "inputs": [
        {
          "internalType": "address",
          "name": "daoAddress",
          "type": "address"
        }
      ],
      "name": "setDaoAddress",
      "outputs": [],
      "stateMutability": "nonpayable",
      "type": "function"
    },
    {
      "inputs": [
        {
          "internalType": "uint256",
          "name": "numerator",
          "type": "uint256"
        },
        {
          "internalType": "uint256",
          "name": "denominator",
          "type": "uint256"
        }
      ],
      "name": "setDaoFee",
      "outputs": [],
      "stateMutability": "nonpayable",
      "type": "function"
    },
    {
      "inputs": [
        {
          "internalType": "uint256",
          "name": "cooldown",
          "type": "uint256"
        }
      ],
      "name": "setExitCooldown",
      "outputs": [],
      "stateMutability": "nonpayable",
      "type": "function"
    },
    {
      "inputs": [
        {
          "internalType": "address",
          "name": "_poolLogic",
          "type": "address"
        },
        {
          "internalType": "address",
          "name": "_poolManagerLogic",
          "type": "address"
        }
      ],
      "name": "setLogic",
      "outputs": [],
      "stateMutability": "nonpayable",
      "type": "function"
    },
    {
      "inputs": [
        {
          "internalType": "uint256",
          "name": "delay",
          "type": "uint256"
        }
      ],
      "name": "setManagerFeeNumeratorChangeDelay",
      "outputs": [],
      "stateMutability": "nonpayable",
      "type": "function"
    },
    {
      "inputs": [
        {
          "internalType": "uint256",
          "name": "amount",
          "type": "uint256"
        }
      ],
      "name": "setMaximumManagerFeeNumeratorChange",
      "outputs": [],
      "stateMutability": "nonpayable",
      "type": "function"
    },
    {
      "inputs": [
        {
          "internalType": "uint256",
          "name": "count",
          "type": "uint256"
        }
      ],
      "name": "setMaximumSupportedAssetCount",
      "outputs": [],
      "stateMutability": "nonpayable",
      "type": "function"
    },
    {
      "inputs": [
        {
          "internalType": "address",
          "name": "pool",
          "type": "address"
        },
        {
          "internalType": "uint256",
          "name": "numerator",
          "type": "uint256"
        }
      ],
      "name": "setPoolManagerFeeNumerator",
      "outputs": [],
      "stateMutability": "nonpayable",
      "type": "function"
    },
    {
      "inputs": [
        {
          "internalType": "bytes32",
          "name": "code",
          "type": "bytes32"
        }
      ],
      "name": "setTrackingCode",
      "outputs": [],
      "stateMutability": "nonpayable",
      "type": "function"
    },
    {
      "inputs": [
        {
          "internalType": "address",
          "name": "newOwner",
          "type": "address"
        }
      ],
      "name": "transferOwnership",
      "outputs": [],
      "stateMutability": "nonpayable",
      "type": "function"
    },
    {
      "inputs": [
        {
          "internalType": "uint256",
          "name": "startIndex",
          "type": "uint256"
        },
        {
          "internalType": "uint256",
          "name": "endIndex",
          "type": "uint256"
        },
        {
          "internalType": "uint256",
          "name": "sourceVersion",
          "type": "uint256"
        },
        {
          "internalType": "uint256",
          "name": "targetVersion",
          "type": "uint256"
        },
        {
          "internalType": "bytes",
          "name": "data",
          "type": "bytes"
        }
      ],
      "name": "upgradePoolBatch",
      "outputs": [],
      "stateMutability": "nonpayable",
      "type": "function"
    }
  ],
  "bytecode": "0x60806040523480156200001c576000806200001962000023565b50505b5062000090565b632a2a7adb598160e01b8152600481016020815285602082015260005b868110156200005d57808601518282016040015260200162000040565b506020828760640184336000905af158600e01573d6000803e3d6000fd5b3d6001141558600a015760016000f35b505050565b613b2a80620000a06000396000f3fe60806040523480156200001c576000806200001962002e82565b50505b5060043610620002735760003560e01c8063808ae5fb1162000158578063bcb01f4411620000d4578063ebee461d1162000092578063ebee461d1462000adb578063ecef89d51462000ae5578063eec16c441462000b13578063f2fde38b1462000b3e578063f8c8765e1462000b725762000273565b8063bcb01f441462000a13578063bee37e521462000a3e578063bfeaf71d1462000a72578063e60eb4121462000a7c578063e99c0fa61462000ab05762000273565b80639a3cac6a11620001225780639a3cac6a146200096c5780639cada6e414620009a0578063aa12ae4d14620009aa578063aa7d664e14620009b4578063b7a5452614620009df5762000273565b8063808ae5fb14620008d95780638da5cb5b146200091557806394d0d23b146200091f5780639a068bd614620009415762000273565b80634501b08811620001f45780635b16ebb711620001b25780635b16ebb714620008425780635c9bfc2b146200088a578063715018a6146200089457806371c1c549146200089e578063771d1baf14620008a85762000273565b80634501b088146200043657806345812ca5146200044057806348281272146200051a57806349f7c02d14620008045780635556ee55146200080e5762000273565b806310bf69dc116200024257806310bf69dc146200030b5780631430238714620003155780631d68702d14620003495780631e666d1314620003535780631e8e8bca146200040b5762000273565b8063046b72c4146200028357806305a2ee2a14620002bf5780630bf99bd914620002e55780630f6559c41462000301575b6000806200028062002e82565b50505b620002bd60048036036040811015620002a657600080620002a362002e82565b50505b506001600160a01b03813516906020013562000bbe565b005b620002c962000dd6565b6040516001600160a01b03909116815260200160405180910390f35b620002ef62000df7565b60405190815260200160405180910390f35b620002ef62000e0c565b620002ef62000e1b565b620002bd6004803603602081101562000338576000806200033562002e82565b50505b50356001600160a01b031662000e27565b620002c962000ee7565b620002bd600480360360a081101562000376576000806200037362002e82565b50505b81359160208101359160408201359160608101359181019060a081016080820135600160201b811115620003b457600080620003b162002e82565b50505b820183602082011115620003d257600080620003cf62002e82565b50505b803590602001918460018302840111600160201b83111715620003ff57600080620003fc62002e82565b50505b50909250905062000f0b565b620002bd600480360360208110156200042e576000806200042b62002e82565b50505b5035620010ae565b620002ef62001142565b620002c96004803603604081101562000463576000806200046062002e82565b50505b810190602081018135600160201b81111562000489576000806200048662002e82565b50505b820183602082011115620004a757600080620004a462002e82565b50505b803590602001918460018302840111600160201b83111715620004d457600080620004d162002e82565b50505b91908080601f01602080910402602001604051908101604052818152929190602084018383808284376000920191909152509295505050903560ff169150620011559050565b620002c9600480360360e08110156200053d576000806200053a62002e82565b50505b81351515916001600160a01b0360208201351691810190606081016040820135600160201b8111156200057a576000806200057762002e82565b50505b82018360208201111562000598576000806200059562002e82565b50505b803590602001918460018302840111600160201b83111715620005c557600080620005c262002e82565b50505b91908080601f01602080910402602001604051908101604052818152929190602084018383808284376000920191909152509295949360208101935035915050600160201b81111562000622576000806200061f62002e82565b50505b82018360208201111562000640576000806200063d62002e82565b50505b803590602001918460018302840111600160201b831117156200066d576000806200066a62002e82565b50505b91908080601f01602080910402602001604051908101604052818152929190602084018383808284376000920191909152509295949360208101935035915050600160201b811115620006ca57600080620006c762002e82565b50505b820183602082011115620006e857600080620006e562002e82565b50505b803590602001918460018302840111600160201b8311171562000715576000806200071262002e82565b50505b91908080601f016020809104026020016040519081016040528181529291906020840183838082843760009201919091525092958435959094909350604081019250602001359050600160201b8111156200077a576000806200077762002e82565b50505b82018360208201111562000798576000806200079562002e82565b50505b803590602001918460208302840111600160201b83111715620007c557600080620007c262002e82565b50505b9190808060200260200160405190810160405280939291908181526020018383602002808284376000920191909152509295506200116c945050505050565b620002ef620017a0565b620002ef6004803603602081101562000831576000806200082e62002e82565b50505b50356001600160a01b0316620017ae565b620008766004803603602081101562000865576000806200086262002e82565b50505b50356001600160a01b0316620017c8565b604051901515815260200160405180910390f35b620002ef620017f1565b620002bd620017ff565b620002c962001913565b620002bd60048036036040811015620008cb57600080620008c862002e82565b50505b508035906020013562001922565b620002bd60048036036040811015620008fc57600080620008f962002e82565b50505b506001600160a01b0381358116916020013516620019b4565b620002c962001ab0565b6200092962001abf565b60405191825260208201526040908101905180910390f35b620002c96004803603602081101562000964576000806200096162002e82565b50505b503562001ae2565b620002bd600480360360208110156200098f576000806200098c62002e82565b50505b50356001600160a01b031662001b11565b6200092962001ba2565b620002ef62001bbd565b620002bd60048036036020811015620009d757600080620009d462002e82565b50505b503562001bcb565b620009296004803603602081101562000a0257600080620009ff62002e82565b50505b50356001600160a01b031662001c5c565b620002bd6004803603602081101562000a365760008062000a3362002e82565b50505b503562001d3c565b620002ef6004803603602081101562000a615760008062000a5e62002e82565b50505b50356001600160a01b031662001dd0565b620002ef62001dea565b620002ef6004803603602081101562000a9f5760008062000a9c62002e82565b50505b50356001600160a01b031662001df6565b620002bd6004803603602081101562000ad35760008062000ad062002e82565b50505b503562001e10565b620002ef62001ea4565b620002c96004803603602081101562000b085760008062000b0562002e82565b50505b503560ff1662001eb2565b620002bd6004803603602081101562000b365760008062000b3362002e82565b50505b503562001efa565b620002bd6004803603602081101562000b615760008062000b5e62002e82565b50505b50356001600160a01b031662001f8b565b620002bd6004803603608081101562000b955760008062000b9262002e82565b50505b506001600160a01b038135811691602081013582169160408201358116916060013516620020d0565b5a62000bc962002eef565b6001600160a01b0316826001600160a01b031614801562000c33575060d060005a62000bf462002eef565b6001600160a01b03166001600160a01b0316815260200190815260200160002060009062000c2162002f46565b906101000a900460ff16151560011515145b62000c8f5760405162461bcd60e51b815260206004820152601e60248201527f6f6e6c79206120706f6f6c2063616e206368616e6765206f776e20666565000060448201526064016040518091039062000c8c62002e82565b50505b6001600160a01b038216600090815260d06020526040902060009062000cb462002f46565b906101000a900460ff161515600115151462000d215760405162461bcd60e51b815260206004820152601e60248201527f737570706c6965642061646472657373206973206e6f74206120706f6f6c000060448201526064016040518091039062000d1e62002e82565b50505b62000d5a60da62000d3162002f46565b6001600160a01b038416600090815260d36020526040902062000d5362002f46565b90620022b2565b81111562000db05760405162461bcd60e51b81526020600482015260146024820152730dac2dcc2cecae440cccaca40e8dede40d0d2ced60631b60448201526064016040518091039062000dad62002e82565b50505b62000dd25a62000dbf62002eef565b8260d262000dcc62002f46565b6200231d565b5050565b600060cb62000de462002f46565b906101000a90046001600160a01b031681565b600060cc8062000e0662002f46565b91505090565b60d962000e1862002f46565b81565b60da62000e1862002f46565b62000e31620023df565b6001600160a01b03166000606562000e4862002f46565b906101000a90046001600160a01b03166001600160a01b03161462000ead5760405162461bcd60e51b8152602060048201819052602482015260008051602062003adc83398151915260448201526064016040518091039062000eaa62002e82565b50505b8060cb60018162000ebd62002f46565b816001600160a01b0302191690836001600160a01b031602179062000ee162002f93565b50505050565b60008060cd62000ef662002f46565b906101000a90046001600160a01b0316905090565b62000f15620023df565b6001600160a01b03166000606562000f2c62002f46565b906101000a90046001600160a01b03166001600160a01b03161462000f915760405162461bcd60e51b8152602060048201819052602482015260008051602062003adc83398151915260448201526064016040518091039062000f8e62002e82565b50505b84861115801562000faf575060cc8062000faa62002f46565b905086105b801562000fc9575060cc8062000fc462002f46565b905085105b620010165760405162461bcd60e51b815260206004820152600e60248201526d696e76616c696420626f756e647360901b6044820152606401604051809103906200101362002e82565b50505b855b858111620010a557600060cc82816200103062002f46565b81106200103957fe5b906000526020600020016000906200105062002f46565b6001600160a01b036101009290920a900416600081815260d86020529091508690604090206200107f62002f46565b146200108c57506200109c565b6200109a81858588620023ec565b505b60010162001018565b50505050505050565b620010b8620023df565b6001600160a01b031660006065620010cf62002f46565b906101000a90046001600160a01b03166001600160a01b031614620011345760405162461bcd60e51b8152602060048201819052602482015260008051602062003adc8339815191526044820152606401604051809103906200113162002e82565b50505b6200113f816200257c565b50565b600060d56200115062002f46565b905090565b60006200116383836200258a565b90505b92915050565b600060605a63996d79a5598160e01b8152602081600483336000905af158600e01573d6000803e3d6000fd5b3d6001141558600a015760016000f35b8051925060005b6040811015620011c857600082820152602001620011af565b505050888860cb600090620011dc62002f46565b906101000a90046001600160a01b03168660405160240180866001600160a01b03168152602001856001600160a01b0316815260200180602001846001600160a01b0316815260200180602001838103835286818151815260200191508051906020019080838360005b838110156200126057808201518382015260200162001246565b50505050905090810190601f1680156200128e5780820380516001836020036101000a031916815260200191505b50838103825284818151815260200191508051906020019060200280838360005b83811015620012c9578082015183820152602001620012af565b50505050905001975050505050505050604051601f1981830301815260409190915263eb94917d60e01b6020820180516001600160e01b03169091179052905060006200131882600162001155565b905060605a63996d79a5598160e01b8152602081600483336000905af158600e01573d6000803e3d6000fd5b3d6001141558600a015760016000f35b8051925060005b604081101562001374576000828201526020016200135b565b5050508b8b8b8b8b8760405160240180886001600160a01b031681526020018715158152602001866001600160a01b03168152602001806020018060200180602001856001600160a01b03168152602001848103845288818151815260200191508051906020019080838360005b83811015620013fc578082015183820152602001620013e2565b50505050905090810190601f1680156200142a5780820380516001836020036101000a031916815260200191505b50848103835287818151815260200191508051906020019080838360005b838110156200146257808201518382015260200162001448565b50505050905090810190601f168015620014905780820380516001836020036101000a031916815260200191505b50848103825286818151815260200191508051906020019080838360005b83811015620014c8578082015183820152602001620014ae565b50505050905090810190601f168015620014f65780820380516001836020036101000a031916815260200191505b509a5050505050505050505050604051601f198183030181526040919091526366fd3ce960e11b6020820180516001600160e01b03169091179052905060006200154282600262001155565b90508060cc806001816200155562002f46565b0180826200156262002f93565b5050600092835260001901916020915020016001816200158162002f46565b816001600160a01b0302191690836001600160a01b0316021790620015a562002f93565b5050506001600160a01b038116600090815260d060205260019060409020600181620015d062002f46565b8160ff02191690831515021790620015e762002f93565b50505060d9620015f662002f46565b6001600160a01b038216600090815260d86020526040902081906200161a62002f93565b5050506200162f818860d262000dcc62002f46565b7f73a0638fe578fc759744633aa170a433061ca2cc1bb855d116c506e04a29901f818d8b8d8f5a6200166062002fe2565b8d60d26200166d62002f46565b60405180896001600160a01b0316815260200188151581526020018060200180602001876001600160a01b03168152602001868152602001858152602001848152602001838103835289818151815260200191508051906020019080838360005b83811015620016e8578082015183820152602001620016ce565b50505050905090810190601f168015620017165780820380516001836020036101000a031916815260200191505b50838103825288818151815260200191508051906020019080838360005b838110156200174e57808201518382015260200162001734565b50505050905090810190601f1680156200177c5780820380516001836020036101000a031916815260200191505b509a505050505050505050505060405180910390a19b9a5050505050505050505050565b600060d76200115062002f46565b60d8602052806000526040600020905062000e1862002f46565b60d060205280600052604060002060009150620017e462002f46565b906101000a900460ff1681565b600060da6200115062002f46565b62001809620023df565b6001600160a01b0316600060656200182062002f46565b906101000a90046001600160a01b03166001600160a01b031614620018855760405162461bcd60e51b8152602060048201819052602482015260008051602062003adc8339815191526044820152606401604051809103906200188262002e82565b50505b60008060656200189462002f46565b906101000a90046001600160a01b03166001600160a01b03167f8be0079c531659141344cd1fd0a4f28419497f9722a3daafe3b4186f6b6457e060405160405180910390a360006065600181620018ea62002f46565b816001600160a01b0302191690836001600160a01b03160217906200190e62002f93565b505050565b60008060cb62000ef662002f46565b6200192c620023df565b6001600160a01b0316600060656200194362002f46565b906101000a90046001600160a01b03166001600160a01b031614620019a85760405162461bcd60e51b8152602060048201819052602482015260008051602062003adc833981519152604482015260640160405180910390620019a562002e82565b50505b62000dd2828262002746565b620019be620023df565b6001600160a01b031660006065620019d562002f46565b906101000a90046001600160a01b03166001600160a01b03161462001a3a5760405162461bcd60e51b8152602060048201819052602482015260008051602062003adc83398151915260448201526064016040518091039062001a3762002e82565b50505b81609760018162001a4a62002f46565b816001600160a01b0302191690836001600160a01b031602179062001a6e62002f93565b50505080609860006101000a8162001a8562002f46565b816001600160a01b0302191690836001600160a01b031602179062001aa962002f93565b5050505050565b600080606562000ef662002f46565b60008060d162001ace62002f46565b60d262001ada62002f46565b915091509091565b60cc818162001af062002f46565b811062001af957fe5b906000526020600020016000915062000de462002f46565b62001b1b620023df565b6001600160a01b03166000606562001b3262002f46565b906101000a90046001600160a01b03166001600160a01b03161462001b975760405162461bcd60e51b8152602060048201819052602482015260008051602062003adc83398151915260448201526064016040518091039062001b9462002e82565b50505b6200113f81620027fa565b60008060ce62001bb162002f46565b60cf62001ada62002f46565b600060d66200115062002f46565b62001bd5620023df565b6001600160a01b03166000606562001bec62002f46565b906101000a90046001600160a01b03166001600160a01b03161462001c515760405162461bcd60e51b8152602060048201819052602482015260008051602062003adc83398151915260448201526064016040518091039062001c4e62002e82565b50505b6200113f8162002871565b6001600160a01b038116600090815260d0602052806040812060009062001c8262002f46565b906101000a900460ff161515600115151462001cef5760405162461bcd60e51b815260206004820152601e60248201527f737570706c6965642061646472657373206973206e6f74206120706f6f6c000060448201526064016040518091039062001cec62002e82565b50505b6001600160a01b038316600090815260d36020526040902062001d1162002f46565b6001600160a01b038416600090815260d46020526040902062001d3362002f46565b91509150915091565b62001d46620023df565b6001600160a01b03166000606562001d5d62002f46565b906101000a90046001600160a01b03166001600160a01b03161462001dc25760405162461bcd60e51b8152602060048201819052602482015260008051602062003adc83398151915260448201526064016040518091039062001dbf62002e82565b50505b808060db62000ee162002f93565b60d3602052806000526040600020905062000e1862002f46565b60db62000e1862002f46565b60d4602052806000526040600020905062000e1862002f46565b62001e1a620023df565b6001600160a01b03166000606562001e3162002f46565b906101000a90046001600160a01b03166001600160a01b03161462001e965760405162461bcd60e51b8152602060048201819052602482015260008051602062003adc83398151915260448201526064016040518091039062001e9362002e82565b50505b808060da62000ee162002f93565b600060db6200115062002f46565b60008160ff166001141562001ee7576000609862001ecf62002f46565b906101000a90046001600160a01b0316905062001ef5565b6000609762001ecf62002f46565b919050565b62001f04620023df565b6001600160a01b03166000606562001f1b62002f46565b906101000a90046001600160a01b03166001600160a01b03161462001f805760405162461bcd60e51b8152602060048201819052602482015260008051602062003adc83398151915260448201526064016040518091039062001f7d62002e82565b50505b6200113f81620028b8565b62001f95620023df565b6001600160a01b03166000606562001fac62002f46565b906101000a90046001600160a01b03166001600160a01b031614620020115760405162461bcd60e51b8152602060048201819052602482015260008051602062003adc8339815191526044820152606401604051809103906200200e62002e82565b50505b6001600160a01b038116620020635760405162461bcd60e51b815260040180806020018281038252602681526020018062003ab660269139604001915050604051809103906200206062002e82565b50505b6001600160a01b038116600060656200207b62002f46565b906101000a90046001600160a01b03166001600160a01b03167f8be0079c531659141344cd1fd0a4f28419497f9722a3daafe3b4186f6b6457e060405160405180910390a380606560018162000ebd62002f46565b60016000620020de62002f46565b906101000a900460ff1680620020f95750620020f9620028ff565b806200211957506000806200210d62002f46565b906101000a900460ff16155b620021615760405162461bcd60e51b815260040180806020018281038252602e81526020018062003afc602e9139604001915050604051809103906200215e62002e82565b50505b60006001816200217062002f46565b906101000a900460ff161590508015620021df5760016000610100816200219662002f46565b8160ff02191690831515021790620021ad62002f93565b50505060016000806101000a81620021c462002f46565b8160ff02191690831515021790620021db62002f93565b5050505b620021eb848462002974565b8460cb600181620021fb62002f46565b816001600160a01b0302191690836001600160a01b03160217906200221f62002f93565b5050506200222d82620027fa565b6200223d6113886127106200297e565b6200224b600a606462002746565b620022596201518062002871565b62002265600a620028b8565b620022796544484544474560d01b6200257c565b801562001aa957600080610100816200229162002f46565b8160ff02191690831515021790620022a862002f93565b5050505050505050565b600082820183811015620011635760405162461bcd60e51b815260206004820152601b60248201527f536166654d6174683a206164646974696f6e206f766572666c6f7700000000006044820152606401604051809103906200231462002e82565b50509392505050565b80821115801562002339575060d16200233562002f46565b8211155b620023885760405162461bcd60e51b815260206004820152601060248201526f34b73b30b634b210333930b1ba34b7b760811b6044820152606401604051809103906200238562002e82565b50505b6001600160a01b038316600090815260d36020528290604090208190620023ae62002f93565b5050506001600160a01b038316600090815260d46020528190604090208190620023d762002f93565b505050505050565b60005a6200115062002eef565b6001600160a01b038416620024435760405162461bcd60e51b815260206004820152600e60248201526d1d185c99d95d0b5a5b9d985b1a5960921b6044820152606401604051809103906200244062002e82565b50505b816200248f5760405162461bcd60e51b815260206004820152600c60248201526b19185d184b5a5b9d985b1a5960a21b6044820152606401604051809103906200248c62002e82565b50505b606083838080601f01602080910402602001604051908101604052818152929190602084018383808284376000920182905250939450839250849150505160208401885a620024dd62003029565b5050505050801560018114620024f3576200250a565b3d806000803e8060006200250662002e82565b5050505b5050846001600160a01b03165a6200252162002eef565b6001600160a01b03167f78a9b536049c39a00adaf57016b1376c99dd48a0faf2cef23690232f21ce42cc60405160405180910390a36001600160a01b038516600090815260d86020528290604090208190620022a862002f93565b808060d762000ee162002f93565b60008062002597620029fe565b90507efffc2da0b561cae30d9826d37709e9421c4725faebc226cbbb7ef5fc5e7349816040516001600160a01b03909116815260200160405180910390a1806001600160a01b031663e74a474a5a63996d79a5598160e01b8152602081600483336000905af158600e01573d6000803e3d6000fd5b3d6001141558600a015760016000f35b8051925060005b60408110156200263c5760008282015260200162002623565b50505086866040518463ffffffff1660e01b815260040180846001600160a01b03168152602001806020018360ff168152602001828103825284818151815260200191508051906020019080838360005b83811015620026a75780820151838201526020016200268d565b50505050905090810190601f168015620026d55780820380516001836020036101000a031916815260200191505b5094505050505060006040518083038160008780620026f36200311f565b1580156200270b576000806200270862002e82565b50505b505a620027176200316c565b5050505050501580156200273a573d6000803e3d60006200273762002e82565b50505b50929695505050505050565b80821115620027995760405162461bcd60e51b815260206004820152601060248201526f34b73b30b634b210333930b1ba34b7b760811b6044820152606401604051809103906200279662002e82565b50505b818060ce620027a762002f93565b5050508060cf8190620027b962002f93565b5050507fb10da2958bf5ec1bff3164ff753a09e0460ed44d3abf73e79b817b500ed0f2f1828260405191825260208201526040908101905180910390a15050565b8060cd6001816200280a62002f46565b816001600160a01b0302191690836001600160a01b03160217906200282e62002f93565b5050507ff1034ad6b4d45dc33a4142b9c51c2b7f89bf4a410696e426cc0f3224869e0aca816040516001600160a01b03909116815260200160405180910390a150565b808060d56200287f62002f93565b5050507f20d916c976f3971e8200089411b0b712ef4612d98380b8ad2e3d8a8a376d85c78160405190815260200160405180910390a150565b808060d6620028c662002f93565b5050507f0cd8fcb5e08d7632af461f0ad793e5c63dc0d7595c301f5880650175e37a87488160405190815260200160405180910390a150565b6000805a63996d79a5598160e01b8152602081600483336000905af158600e01573d6000803e3d6000fd5b3d6001141558600a015760016000f35b8051925060005b60408110156200295a5760008282015260200162002941565b50505090506000816200296c6200311f565b159250505090565b62001a3a62002a65565b60008111620029de5760405162461bcd60e51b815260206004820152601c60248201527f64656e6f6d696e61746f72206d75737420626520706f73697469766500000000604482015260640160405180910390620029db62002e82565b50505b818060d1620029ec62002f93565b5050508060d2819062001aa962002f93565b600080606060405162002a14602082016200323a565b601f1982820381018352601f909101166040529050805160208201600062002a3b62003248565b505091508162002a4a6200311f565b62002a5f5760008062002a5c62002e82565b50505b50905090565b6001600062002a7362002f46565b906101000a900460ff168062002a8e575062002a8e620028ff565b8062002aae575060008062002aa262002f46565b906101000a900460ff16155b62002af65760405162461bcd60e51b815260040180806020018281038252602e81526020018062003afc602e91396040019150506040518091039062002af362002e82565b50505b600060018162002b0562002f46565b906101000a900460ff16159050801562002b7457600160006101008162002b2b62002f46565b8160ff0219169083151502179062002b4262002f93565b50505060016000806101000a8162002b5962002f46565b8160ff0219169083151502179062002b7062002f93565b5050505b62002b7e62002bb7565b62002b8862002cdd565b80156200113f576000806101008162002ba062002f46565b8160ff0219169083151502179062000ee162002f93565b6001600062002bc562002f46565b906101000a900460ff168062002be0575062002be0620028ff565b8062002c00575060008062002bf462002f46565b906101000a900460ff16155b62002c485760405162461bcd60e51b815260040180806020018281038252602e81526020018062003afc602e91396040019150506040518091039062002c4562002e82565b50505b600060018162002c5762002f46565b906101000a900460ff16159050801562002b8857600160006101008162002c7d62002f46565b8160ff0219169083151502179062002c9462002f93565b50505060016000806101000a8162002cab62002f46565b8160ff0219169083151502179062002cc262002f93565b50505080156200113f576000806101008162002ba062002f46565b6001600062002ceb62002f46565b906101000a900460ff168062002d06575062002d06620028ff565b8062002d26575060008062002d1a62002f46565b906101000a900460ff16155b62002d6e5760405162461bcd60e51b815260040180806020018281038252602e81526020018062003afc602e91396040019150506040518091039062002d6b62002e82565b50505b600060018162002d7d62002f46565b906101000a900460ff16159050801562002dec57600160006101008162002da362002f46565b8160ff0219169083151502179062002dba62002f93565b50505060016000806101000a8162002dd162002f46565b8160ff0219169083151502179062002de862002f93565b5050505b600062002df8620023df565b905080606560018162002e0a62002f46565b816001600160a01b0302191690836001600160a01b031602179062002e2e62002f93565b5050506001600160a01b03811660007f8be0079c531659141344cd1fd0a4f28419497f9722a3daafe3b4186f6b6457e060405160405180910390a35080156200113f576000806101008162002ba062002f46565b632a2a7adb598160e01b8152600481016020815285602082015260005b8681101562002ebc57808601518282016040015260200162002e9f565b506020828760640184336000905af158600e01573d6000803e3d6000fd5b3d6001141558600a015760016000f35b505050565b6373509064598160e01b8152602081600483336000905af158600e01573d6000803e3d6000fd5b3d6001141558600a015760016000f35b8051935060005b60408110156200190e5760008282015260200162002f2d565b6303daa959598160e01b8152836004820152602081602483336000905af158600e01573d6000803e3d6000fd5b3d6001141558600a015760016000f35b8051600082529350602062002f2d565b6322bd64c0598160e01b8152836004820152846024820152600081604483336000905af158600e01573d6000803e3d6000fd5b3d6001141558600a015760016000f35b60008152602062002f2d565b63bdbf8c36598160e01b8152602081600483336000905af158600e01573d6000803e3d6000fd5b3d6001141558600a015760016000f35b8051600082529350602062002f2d565b63ffe73914598160e01b81526200305d565b808083111562001166575090919050565b808083101562001166575090919050565b836004820152846024820152606060448201528660648201526084810160005b88811015620030975780880151828201526020016200307d565b506060828960a40184336000905af158600e01573d6000803e3d6000fd5b3d6001141558600a015760016000f35b815160408301513d6000853e8b8b82606087013350600060045af15059620030ee8d3d6200304c565b8c01620030fc81876200303b565b5b82811015620031135760008152602001620030fd565b50929c50505050505050565b638435035b598160e01b8152836004820152602081602483336000905af158600e01573d6000803e3d6000fd5b3d6001141558600a015760016000f35b8051600082529350602062002f2d565b6385979f76598160e01b8152836004820152846024820152606060448201528760648201526084810160005b89811015620031b257808901518282015260200162003198565b506060828a60a40184336000905af158600e01573d6000803e3d6000fd5b3d6001141558600a015760016000f35b815160408301513d6000853e8c8c82606087013350600060045af15059620032098e3d6200304c565b8d016200321781876200303b565b5b828110156200322e576000815260200162003218565b50929d50505050505050565b6107e880620032ce83390190565b6314aa2ff7598160e01b8152600481016020815286602082015260005b878110156200328257808701518282016040015260200162003265565b506020828860640184336000905af158600e01573d6000803e3d6000fd5b3d6001141558600a015760016000f35b8151965059825b8181101562001aa95760008152602001620032b756fe60806040523480156100195760008061001661001f565b50505b5061008a565b632a2a7adb598160e01b8152600481016020815285602082015260005b8681101561005757808601518282016040015260200161003c565b506020828760640184336000905af158600e01573d6000803e3d6000fd5b3d6001141558600a015760016000f35b505050565b61074f806100996000396000f3fe6080604052600436106100225760003560e01c8063e74a474a1461003957610031565b366100315761002f610117565b005b61002f610117565b61002f60048036036060811015610058576000806100556104b5565b50505b6001600160a01b03823516919081019060408101602082013564010000000081111561008c576000806100896104b5565b50505b8201836020820111156100a7576000806100a46104b5565b50505b803590602001918460018302840111640100000000831117156100d2576000806100cf6104b5565b50505b91908080601f01602080910402602001604051908101604052818152929190602084018383808284376000920191909152509295505050903560ff1691506101319050565b61011f61012f565b61012f61012a6102c3565b6103c4565b565b600061013b6102c3565b6001600160a01b03161461018e5760405162461bcd60e51b815260206004820152600d60248201526c496d706c206e6f74207a65726f60981b60448201526064016040518091039061018b6104b5565b50505b61019783610401565b6101a081610479565b6000825111156102be5760006101b46102c3565b6001600160a01b0316836040518082805190602001908083835b602083106101ed5780518252601f1990920191602091820191016101ce565b6001836020036101000a038019825116818451168082178552505050505050905001915050600060405180830381855a610225610520565b50505050509150503d8060008114610259576040513d603f01601f191681016040523d815291503d6000602084013e61025e565b606091505b50509050806102bc5760405162461bcd60e51b815260206004820152601a60248201527f496d706c656d656e746174696f6e20696e6974206661696c65640000000000006044820152606401604051809103906102b96104b5565b50505b505b505050565b6000807f360894a13ba1a3210667c828492db98dca3e2076cc3735a920a3ca505d382bbc806102f061060d565b91506001600160a01b03821661030b576000925050506103c1565b816001600160a01b031663ecef89d5610322610488565b6040516001600160e01b031960e084901b16815260ff90911660048201526024016020604051808303818680610356610668565b15801561036b576000806103686104b5565b50505b505a6103756106b4565b5050505050158015610394573d6000803e3d60006103916104b5565b50505b505050506040513d60208110156103b3576000806103b06104b5565b50505b810190808051955050505050505b90565b3660008037600080366000845a6103d9610520565b50505050503d6000803e8080156103ef573d6000f35b3d60006103fa6104b5565b5050505050565b61040a816104a0565b61044e5760405162461bcd60e51b815260040180806020018281038252603b815260200180610714603b91396040019150506040518091039061044b6104b5565b50505b7f360894a13ba1a3210667c828492db98dca3e2076cc3735a920a3ca505d382bbc81816102bc6106c5565b600160fc1b81816102bc6106c5565b600080600160fc1b8061049961060d565b9250505090565b600080826104ac610668565b15159392505050565b632a2a7adb598160e01b8152600481016020815285602082015260005b868110156104ed5780860151828201604001526020016104d2565b506020828760640184336000905af158600e01573d6000803e3d6000fd5b3d6001141558600a015760016000f35b505050565b63ffe73914598160e01b8152610553565b808083111561053d5750815b92915050565b808083101561053d575090919050565b836004820152846024820152606060448201528660648201526084810160005b8881101561058b578088015182820152602001610573565b506060828960a40184336000905af158600e01573d6000803e3d6000fd5b3d6001141558600a015760016000f35b815160408301513d6000853e8b8b82606087013350600060045af150596105e08d3d610543565b8c016105ec8187610531565b5b8281101561060157600081526020016105ed565b50929c50505050505050565b6303daa959598160e01b8152836004820152602081602483336000905af158600e01573d6000803e3d6000fd5b3d6001141558600a015760016000f35b8051935060005b60408110156102be57600082820152602001610651565b638435035b598160e01b8152836004820152602081602483336000905af158600e01573d6000803e3d6000fd5b3d6001141558600a015760016000f35b80516000825293506020610651565b638540661f598160e01b8152610553565b6322bd64c0598160e01b8152836004820152846024820152600081604483336000905af158600e01573d6000803e3d6000fd5b3d6001141558600a015760016000f35b60008152602061065156fe43616e6e6f742073657420612070726f787920696d706c656d656e746174696f6e20746f2061206e6f6e2d636f6e747261637420616464726573734f776e61626c653a206e6577206f776e657220697320746865207a65726f20616464726573734f776e61626c653a2063616c6c6572206973206e6f7420746865206f776e6572436f6e747261637420696e7374616e63652068617320616c7265616479206265656e20696e697469616c697a6564",
  "deployedBytecode": "0x60806040523480156200001c576000806200001962002e82565b50505b5060043610620002735760003560e01c8063808ae5fb1162000158578063bcb01f4411620000d4578063ebee461d1162000092578063ebee461d1462000adb578063ecef89d51462000ae5578063eec16c441462000b13578063f2fde38b1462000b3e578063f8c8765e1462000b725762000273565b8063bcb01f441462000a13578063bee37e521462000a3e578063bfeaf71d1462000a72578063e60eb4121462000a7c578063e99c0fa61462000ab05762000273565b80639a3cac6a11620001225780639a3cac6a146200096c5780639cada6e414620009a0578063aa12ae4d14620009aa578063aa7d664e14620009b4578063b7a5452614620009df5762000273565b8063808ae5fb14620008d95780638da5cb5b146200091557806394d0d23b146200091f5780639a068bd614620009415762000273565b80634501b08811620001f45780635b16ebb711620001b25780635b16ebb714620008425780635c9bfc2b146200088a578063715018a6146200089457806371c1c549146200089e578063771d1baf14620008a85762000273565b80634501b088146200043657806345812ca5146200044057806348281272146200051a57806349f7c02d14620008045780635556ee55146200080e5762000273565b806310bf69dc116200024257806310bf69dc146200030b5780631430238714620003155780631d68702d14620003495780631e666d1314620003535780631e8e8bca146200040b5762000273565b8063046b72c4146200028357806305a2ee2a14620002bf5780630bf99bd914620002e55780630f6559c41462000301575b6000806200028062002e82565b50505b620002bd60048036036040811015620002a657600080620002a362002e82565b50505b506001600160a01b03813516906020013562000bbe565b005b620002c962000dd6565b6040516001600160a01b03909116815260200160405180910390f35b620002ef62000df7565b60405190815260200160405180910390f35b620002ef62000e0c565b620002ef62000e1b565b620002bd6004803603602081101562000338576000806200033562002e82565b50505b50356001600160a01b031662000e27565b620002c962000ee7565b620002bd600480360360a081101562000376576000806200037362002e82565b50505b81359160208101359160408201359160608101359181019060a081016080820135600160201b811115620003b457600080620003b162002e82565b50505b820183602082011115620003d257600080620003cf62002e82565b50505b803590602001918460018302840111600160201b83111715620003ff57600080620003fc62002e82565b50505b50909250905062000f0b565b620002bd600480360360208110156200042e576000806200042b62002e82565b50505b5035620010ae565b620002ef62001142565b620002c96004803603604081101562000463576000806200046062002e82565b50505b810190602081018135600160201b81111562000489576000806200048662002e82565b50505b820183602082011115620004a757600080620004a462002e82565b50505b803590602001918460018302840111600160201b83111715620004d457600080620004d162002e82565b50505b91908080601f01602080910402602001604051908101604052818152929190602084018383808284376000920191909152509295505050903560ff169150620011559050565b620002c9600480360360e08110156200053d576000806200053a62002e82565b50505b81351515916001600160a01b0360208201351691810190606081016040820135600160201b8111156200057a576000806200057762002e82565b50505b82018360208201111562000598576000806200059562002e82565b50505b803590602001918460018302840111600160201b83111715620005c557600080620005c262002e82565b50505b91908080601f01602080910402602001604051908101604052818152929190602084018383808284376000920191909152509295949360208101935035915050600160201b81111562000622576000806200061f62002e82565b50505b82018360208201111562000640576000806200063d62002e82565b50505b803590602001918460018302840111600160201b831117156200066d576000806200066a62002e82565b50505b91908080601f01602080910402602001604051908101604052818152929190602084018383808284376000920191909152509295949360208101935035915050600160201b811115620006ca57600080620006c762002e82565b50505b820183602082011115620006e857600080620006e562002e82565b50505b803590602001918460018302840111600160201b8311171562000715576000806200071262002e82565b50505b91908080601f016020809104026020016040519081016040528181529291906020840183838082843760009201919091525092958435959094909350604081019250602001359050600160201b8111156200077a576000806200077762002e82565b50505b82018360208201111562000798576000806200079562002e82565b50505b803590602001918460208302840111600160201b83111715620007c557600080620007c262002e82565b50505b9190808060200260200160405190810160405280939291908181526020018383602002808284376000920191909152509295506200116c945050505050565b620002ef620017a0565b620002ef6004803603602081101562000831576000806200082e62002e82565b50505b50356001600160a01b0316620017ae565b620008766004803603602081101562000865576000806200086262002e82565b50505b50356001600160a01b0316620017c8565b604051901515815260200160405180910390f35b620002ef620017f1565b620002bd620017ff565b620002c962001913565b620002bd60048036036040811015620008cb57600080620008c862002e82565b50505b508035906020013562001922565b620002bd60048036036040811015620008fc57600080620008f962002e82565b50505b506001600160a01b0381358116916020013516620019b4565b620002c962001ab0565b6200092962001abf565b60405191825260208201526040908101905180910390f35b620002c96004803603602081101562000964576000806200096162002e82565b50505b503562001ae2565b620002bd600480360360208110156200098f576000806200098c62002e82565b50505b50356001600160a01b031662001b11565b6200092962001ba2565b620002ef62001bbd565b620002bd60048036036020811015620009d757600080620009d462002e82565b50505b503562001bcb565b620009296004803603602081101562000a0257600080620009ff62002e82565b50505b50356001600160a01b031662001c5c565b620002bd6004803603602081101562000a365760008062000a3362002e82565b50505b503562001d3c565b620002ef6004803603602081101562000a615760008062000a5e62002e82565b50505b50356001600160a01b031662001dd0565b620002ef62001dea565b620002ef6004803603602081101562000a9f5760008062000a9c62002e82565b50505b50356001600160a01b031662001df6565b620002bd6004803603602081101562000ad35760008062000ad062002e82565b50505b503562001e10565b620002ef62001ea4565b620002c96004803603602081101562000b085760008062000b0562002e82565b50505b503560ff1662001eb2565b620002bd6004803603602081101562000b365760008062000b3362002e82565b50505b503562001efa565b620002bd6004803603602081101562000b615760008062000b5e62002e82565b50505b50356001600160a01b031662001f8b565b620002bd6004803603608081101562000b955760008062000b9262002e82565b50505b506001600160a01b038135811691602081013582169160408201358116916060013516620020d0565b5a62000bc962002eef565b6001600160a01b0316826001600160a01b031614801562000c33575060d060005a62000bf462002eef565b6001600160a01b03166001600160a01b0316815260200190815260200160002060009062000c2162002f46565b906101000a900460ff16151560011515145b62000c8f5760405162461bcd60e51b815260206004820152601e60248201527f6f6e6c79206120706f6f6c2063616e206368616e6765206f776e20666565000060448201526064016040518091039062000c8c62002e82565b50505b6001600160a01b038216600090815260d06020526040902060009062000cb462002f46565b906101000a900460ff161515600115151462000d215760405162461bcd60e51b815260206004820152601e60248201527f737570706c6965642061646472657373206973206e6f74206120706f6f6c000060448201526064016040518091039062000d1e62002e82565b50505b62000d5a60da62000d3162002f46565b6001600160a01b038416600090815260d36020526040902062000d5362002f46565b90620022b2565b81111562000db05760405162461bcd60e51b81526020600482015260146024820152730dac2dcc2cecae440cccaca40e8dede40d0d2ced60631b60448201526064016040518091039062000dad62002e82565b50505b62000dd25a62000dbf62002eef565b8260d262000dcc62002f46565b6200231d565b5050565b600060cb62000de462002f46565b906101000a90046001600160a01b031681565b600060cc8062000e0662002f46565b91505090565b60d962000e1862002f46565b81565b60da62000e1862002f46565b62000e31620023df565b6001600160a01b03166000606562000e4862002f46565b906101000a90046001600160a01b03166001600160a01b03161462000ead5760405162461bcd60e51b8152602060048201819052602482015260008051602062003adc83398151915260448201526064016040518091039062000eaa62002e82565b50505b8060cb60018162000ebd62002f46565b816001600160a01b0302191690836001600160a01b031602179062000ee162002f93565b50505050565b60008060cd62000ef662002f46565b906101000a90046001600160a01b0316905090565b62000f15620023df565b6001600160a01b03166000606562000f2c62002f46565b906101000a90046001600160a01b03166001600160a01b03161462000f915760405162461bcd60e51b8152602060048201819052602482015260008051602062003adc83398151915260448201526064016040518091039062000f8e62002e82565b50505b84861115801562000faf575060cc8062000faa62002f46565b905086105b801562000fc9575060cc8062000fc462002f46565b905085105b620010165760405162461bcd60e51b815260206004820152600e60248201526d696e76616c696420626f756e647360901b6044820152606401604051809103906200101362002e82565b50505b855b858111620010a557600060cc82816200103062002f46565b81106200103957fe5b906000526020600020016000906200105062002f46565b6001600160a01b036101009290920a900416600081815260d86020529091508690604090206200107f62002f46565b146200108c57506200109c565b6200109a81858588620023ec565b505b60010162001018565b50505050505050565b620010b8620023df565b6001600160a01b031660006065620010cf62002f46565b906101000a90046001600160a01b03166001600160a01b031614620011345760405162461bcd60e51b8152602060048201819052602482015260008051602062003adc8339815191526044820152606401604051809103906200113162002e82565b50505b6200113f816200257c565b50565b600060d56200115062002f46565b905090565b60006200116383836200258a565b90505b92915050565b600060605a63996d79a5598160e01b8152602081600483336000905af158601d01573d60011458600c01573d6000803e3d621234565260ea61109c528051925060005b6040811015620011c857600082820152602001620011af565b505050888860cb600090620011dc62002f46565b906101000a90046001600160a01b03168660405160240180866001600160a01b03168152602001856001600160a01b0316815260200180602001846001600160a01b0316815260200180602001838103835286818151815260200191508051906020019080838360005b838110156200126057808201518382015260200162001246565b50505050905090810190601f1680156200128e5780820380516001836020036101000a031916815260200191505b50838103825284818151815260200191508051906020019060200280838360005b83811015620012c9578082015183820152602001620012af565b50505050905001975050505050505050604051601f1981830301815260409190915263eb94917d60e01b6020820180516001600160e01b03169091179052905060006200131882600162001155565b905060605a63996d79a5598160e01b8152602081600483336000905af158601d01573d60011458600c01573d6000803e3d621234565260ea61109c528051925060005b604081101562001374576000828201526020016200135b565b5050508b8b8b8b8b8760405160240180886001600160a01b031681526020018715158152602001866001600160a01b03168152602001806020018060200180602001856001600160a01b03168152602001848103845288818151815260200191508051906020019080838360005b83811015620013fc578082015183820152602001620013e2565b50505050905090810190601f1680156200142a5780820380516001836020036101000a031916815260200191505b50848103835287818151815260200191508051906020019080838360005b838110156200146257808201518382015260200162001448565b50505050905090810190601f168015620014905780820380516001836020036101000a031916815260200191505b50848103825286818151815260200191508051906020019080838360005b83811015620014c8578082015183820152602001620014ae565b50505050905090810190601f168015620014f65780820380516001836020036101000a031916815260200191505b509a5050505050505050505050604051601f198183030181526040919091526366fd3ce960e11b6020820180516001600160e01b03169091179052905060006200154282600262001155565b90508060cc806001816200155562002f46565b0180826200156262002f93565b5050600092835260001901916020915020016001816200158162002f46565b816001600160a01b0302191690836001600160a01b0316021790620015a562002f93565b5050506001600160a01b038116600090815260d060205260019060409020600181620015d062002f46565b8160ff02191690831515021790620015e762002f93565b50505060d9620015f662002f46565b6001600160a01b038216600090815260d86020526040902081906200161a62002f93565b5050506200162f818860d262000dcc62002f46565b7f73a0638fe578fc759744633aa170a433061ca2cc1bb855d116c506e04a29901f818d8b8d8f5a6200166062002fe2565b8d60d26200166d62002f46565b60405180896001600160a01b0316815260200188151581526020018060200180602001876001600160a01b03168152602001868152602001858152602001848152602001838103835289818151815260200191508051906020019080838360005b83811015620016e8578082015183820152602001620016ce565b50505050905090810190601f168015620017165780820380516001836020036101000a031916815260200191505b50838103825288818151815260200191508051906020019080838360005b838110156200174e57808201518382015260200162001734565b50505050905090810190601f1680156200177c5780820380516001836020036101000a031916815260200191505b509a505050505050505050505060405180910390a19b9a5050505050505050505050565b600060d76200115062002f46565b60d8602052806000526040600020905062000e1862002f46565b60d060205280600052604060002060009150620017e462002f46565b906101000a900460ff1681565b600060da6200115062002f46565b62001809620023df565b6001600160a01b0316600060656200182062002f46565b906101000a90046001600160a01b03166001600160a01b031614620018855760405162461bcd60e51b8152602060048201819052602482015260008051602062003adc8339815191526044820152606401604051809103906200188262002e82565b50505b60008060656200189462002f46565b906101000a90046001600160a01b03166001600160a01b03167f8be0079c531659141344cd1fd0a4f28419497f9722a3daafe3b4186f6b6457e060405160405180910390a360006065600181620018ea62002f46565b816001600160a01b0302191690836001600160a01b03160217906200190e62002f93565b505050565b60008060cb62000ef662002f46565b6200192c620023df565b6001600160a01b0316600060656200194362002f46565b906101000a90046001600160a01b03166001600160a01b031614620019a85760405162461bcd60e51b8152602060048201819052602482015260008051602062003adc833981519152604482015260640160405180910390620019a562002e82565b50505b62000dd2828262002746565b620019be620023df565b6001600160a01b031660006065620019d562002f46565b906101000a90046001600160a01b03166001600160a01b03161462001a3a5760405162461bcd60e51b8152602060048201819052602482015260008051602062003adc83398151915260448201526064016040518091039062001a3762002e82565b50505b81609760018162001a4a62002f46565b816001600160a01b0302191690836001600160a01b031602179062001a6e62002f93565b50505080609860006101000a8162001a8562002f46565b816001600160a01b0302191690836001600160a01b031602179062001aa962002f93565b5050505050565b600080606562000ef662002f46565b60008060d162001ace62002f46565b60d262001ada62002f46565b915091509091565b60cc818162001af062002f46565b811062001af957fe5b906000526020600020016000915062000de462002f46565b62001b1b620023df565b6001600160a01b03166000606562001b3262002f46565b906101000a90046001600160a01b03166001600160a01b03161462001b975760405162461bcd60e51b8152602060048201819052602482015260008051602062003adc83398151915260448201526064016040518091039062001b9462002e82565b50505b6200113f81620027fa565b60008060ce62001bb162002f46565b60cf62001ada62002f46565b600060d66200115062002f46565b62001bd5620023df565b6001600160a01b03166000606562001bec62002f46565b906101000a90046001600160a01b03166001600160a01b03161462001c515760405162461bcd60e51b8152602060048201819052602482015260008051602062003adc83398151915260448201526064016040518091039062001c4e62002e82565b50505b6200113f8162002871565b6001600160a01b038116600090815260d0602052806040812060009062001c8262002f46565b906101000a900460ff161515600115151462001cef5760405162461bcd60e51b815260206004820152601e60248201527f737570706c6965642061646472657373206973206e6f74206120706f6f6c000060448201526064016040518091039062001cec62002e82565b50505b6001600160a01b038316600090815260d36020526040902062001d1162002f46565b6001600160a01b038416600090815260d46020526040902062001d3362002f46565b91509150915091565b62001d46620023df565b6001600160a01b03166000606562001d5d62002f46565b906101000a90046001600160a01b03166001600160a01b03161462001dc25760405162461bcd60e51b8152602060048201819052602482015260008051602062003adc83398151915260448201526064016040518091039062001dbf62002e82565b50505b808060db62000ee162002f93565b60d3602052806000526040600020905062000e1862002f46565b60db62000e1862002f46565b60d4602052806000526040600020905062000e1862002f46565b62001e1a620023df565b6001600160a01b03166000606562001e3162002f46565b906101000a90046001600160a01b03166001600160a01b03161462001e965760405162461bcd60e51b8152602060048201819052602482015260008051602062003adc83398151915260448201526064016040518091039062001e9362002e82565b50505b808060da62000ee162002f93565b600060db6200115062002f46565b60008160ff166001141562001ee7576000609862001ecf62002f46565b906101000a90046001600160a01b0316905062001ef5565b6000609762001ecf62002f46565b919050565b62001f04620023df565b6001600160a01b03166000606562001f1b62002f46565b906101000a90046001600160a01b03166001600160a01b03161462001f805760405162461bcd60e51b8152602060048201819052602482015260008051602062003adc83398151915260448201526064016040518091039062001f7d62002e82565b50505b6200113f81620028b8565b62001f95620023df565b6001600160a01b03166000606562001fac62002f46565b906101000a90046001600160a01b03166001600160a01b031614620020115760405162461bcd60e51b8152602060048201819052602482015260008051602062003adc8339815191526044820152606401604051809103906200200e62002e82565b50505b6001600160a01b038116620020635760405162461bcd60e51b815260040180806020018281038252602681526020018062003ab660269139604001915050604051809103906200206062002e82565b50505b6001600160a01b038116600060656200207b62002f46565b906101000a90046001600160a01b03166001600160a01b03167f8be0079c531659141344cd1fd0a4f28419497f9722a3daafe3b4186f6b6457e060405160405180910390a380606560018162000ebd62002f46565b60016000620020de62002f46565b906101000a900460ff1680620020f95750620020f9620028ff565b806200211957506000806200210d62002f46565b906101000a900460ff16155b620021615760405162461bcd60e51b815260040180806020018281038252602e81526020018062003afc602e9139604001915050604051809103906200215e62002e82565b50505b60006001816200217062002f46565b906101000a900460ff161590508015620021df5760016000610100816200219662002f46565b8160ff02191690831515021790620021ad62002f93565b50505060016000806101000a81620021c462002f46565b8160ff02191690831515021790620021db62002f93565b5050505b620021eb848462002974565b8460cb600181620021fb62002f46565b816001600160a01b0302191690836001600160a01b03160217906200221f62002f93565b5050506200222d82620027fa565b6200223d6113886127106200297e565b6200224b600a606462002746565b620022596201518062002871565b62002265600a620028b8565b620022796544484544474560d01b6200257c565b801562001aa957600080610100816200229162002f46565b8160ff02191690831515021790620022a862002f93565b5050505050505050565b600082820183811015620011635760405162461bcd60e51b815260206004820152601b60248201527f536166654d6174683a206164646974696f6e206f766572666c6f7700000000006044820152606401604051809103906200231462002e82565b50509392505050565b80821115801562002339575060d16200233562002f46565b8211155b620023885760405162461bcd60e51b815260206004820152601060248201526f34b73b30b634b210333930b1ba34b7b760811b6044820152606401604051809103906200238562002e82565b50505b6001600160a01b038316600090815260d36020528290604090208190620023ae62002f93565b5050506001600160a01b038316600090815260d46020528190604090208190620023d762002f93565b505050505050565b60005a6200115062002eef565b6001600160a01b038416620024435760405162461bcd60e51b815260206004820152600e60248201526d1d185c99d95d0b5a5b9d985b1a5960921b6044820152606401604051809103906200244062002e82565b50505b816200248f5760405162461bcd60e51b815260206004820152600c60248201526b19185d184b5a5b9d985b1a5960a21b6044820152606401604051809103906200248c62002e82565b50505b606083838080601f01602080910402602001604051908101604052818152929190602084018383808284376000920182905250939450839250849150505160208401885a620024dd62003029565b5050505050801560018114620024f3576200250a565b3d806000803e8060006200250662002e82565b5050505b5050846001600160a01b03165a6200252162002eef565b6001600160a01b03167f78a9b536049c39a00adaf57016b1376c99dd48a0faf2cef23690232f21ce42cc60405160405180910390a36001600160a01b038516600090815260d86020528290604090208190620022a862002f93565b808060d762000ee162002f93565b60008062002597620029fe565b90507efffc2da0b561cae30d9826d37709e9421c4725faebc226cbbb7ef5fc5e7349816040516001600160a01b03909116815260200160405180910390a1806001600160a01b031663e74a474a5a63996d79a5598160e01b8152602081600483336000905af158601d01573d60011458600c01573d6000803e3d621234565260ea61109c528051925060005b60408110156200263c5760008282015260200162002623565b50505086866040518463ffffffff1660e01b815260040180846001600160a01b03168152602001806020018360ff168152602001828103825284818151815260200191508051906020019080838360005b83811015620026a75780820151838201526020016200268d565b50505050905090810190601f168015620026d55780820380516001836020036101000a031916815260200191505b5094505050505060006040518083038160008780620026f36200311f565b1580156200270b576000806200270862002e82565b50505b505a620027176200316c565b5050505050501580156200273a573d6000803e3d60006200273762002e82565b50505b50929695505050505050565b80821115620027995760405162461bcd60e51b815260206004820152601060248201526f34b73b30b634b210333930b1ba34b7b760811b6044820152606401604051809103906200279662002e82565b50505b818060ce620027a762002f93565b5050508060cf8190620027b962002f93565b5050507fb10da2958bf5ec1bff3164ff753a09e0460ed44d3abf73e79b817b500ed0f2f1828260405191825260208201526040908101905180910390a15050565b8060cd6001816200280a62002f46565b816001600160a01b0302191690836001600160a01b03160217906200282e62002f93565b5050507ff1034ad6b4d45dc33a4142b9c51c2b7f89bf4a410696e426cc0f3224869e0aca816040516001600160a01b03909116815260200160405180910390a150565b808060d56200287f62002f93565b5050507f20d916c976f3971e8200089411b0b712ef4612d98380b8ad2e3d8a8a376d85c78160405190815260200160405180910390a150565b808060d6620028c662002f93565b5050507f0cd8fcb5e08d7632af461f0ad793e5c63dc0d7595c301f5880650175e37a87488160405190815260200160405180910390a150565b6000805a63996d79a5598160e01b8152602081600483336000905af158601d01573d60011458600c01573d6000803e3d621234565260ea61109c528051925060005b60408110156200295a5760008282015260200162002941565b50505090506000816200296c6200311f565b159250505090565b62001a3a62002a65565b60008111620029de5760405162461bcd60e51b815260206004820152601c60248201527f64656e6f6d696e61746f72206d75737420626520706f73697469766500000000604482015260640160405180910390620029db62002e82565b50505b818060d1620029ec62002f93565b5050508060d2819062001aa962002f93565b600080606060405162002a14602082016200323a565b601f1982820381018352601f909101166040529050805160208201600062002a3b62003248565b505091508162002a4a6200311f565b62002a5f5760008062002a5c62002e82565b50505b50905090565b6001600062002a7362002f46565b906101000a900460ff168062002a8e575062002a8e620028ff565b8062002aae575060008062002aa262002f46565b906101000a900460ff16155b62002af65760405162461bcd60e51b815260040180806020018281038252602e81526020018062003afc602e91396040019150506040518091039062002af362002e82565b50505b600060018162002b0562002f46565b906101000a900460ff16159050801562002b7457600160006101008162002b2b62002f46565b8160ff0219169083151502179062002b4262002f93565b50505060016000806101000a8162002b5962002f46565b8160ff0219169083151502179062002b7062002f93565b5050505b62002b7e62002bb7565b62002b8862002cdd565b80156200113f576000806101008162002ba062002f46565b8160ff0219169083151502179062000ee162002f93565b6001600062002bc562002f46565b906101000a900460ff168062002be0575062002be0620028ff565b8062002c00575060008062002bf462002f46565b906101000a900460ff16155b62002c485760405162461bcd60e51b815260040180806020018281038252602e81526020018062003afc602e91396040019150506040518091039062002c4562002e82565b50505b600060018162002c5762002f46565b906101000a900460ff16159050801562002b8857600160006101008162002c7d62002f46565b8160ff0219169083151502179062002c9462002f93565b50505060016000806101000a8162002cab62002f46565b8160ff0219169083151502179062002cc262002f93565b50505080156200113f576000806101008162002ba062002f46565b6001600062002ceb62002f46565b906101000a900460ff168062002d06575062002d06620028ff565b8062002d26575060008062002d1a62002f46565b906101000a900460ff16155b62002d6e5760405162461bcd60e51b815260040180806020018281038252602e81526020018062003afc602e91396040019150506040518091039062002d6b62002e82565b50505b600060018162002d7d62002f46565b906101000a900460ff16159050801562002dec57600160006101008162002da362002f46565b8160ff0219169083151502179062002dba62002f93565b50505060016000806101000a8162002dd162002f46565b8160ff0219169083151502179062002de862002f93565b5050505b600062002df8620023df565b905080606560018162002e0a62002f46565b816001600160a01b0302191690836001600160a01b031602179062002e2e62002f93565b5050506001600160a01b03811660007f8be0079c531659141344cd1fd0a4f28419497f9722a3daafe3b4186f6b6457e060405160405180910390a35080156200113f576000806101008162002ba062002f46565b632a2a7adb598160e01b8152600481016020815285602082015260005b8681101562002ebc57808601518282016040015260200162002e9f565b506020828760640184336000905af158601d01573d60011458600c01573d6000803e3d621234565260ea61109c52505050565b6373509064598160e01b8152602081600483336000905af158601d01573d60011458600c01573d6000803e3d621234565260ea61109c528051935060005b60408110156200190e5760008282015260200162002f2d565b6303daa959598160e01b8152836004820152602081602483336000905af158601d01573d60011458600c01573d6000803e3d621234565260ea61109c528051600082529350602062002f2d565b6322bd64c0598160e01b8152836004820152846024820152600081604483336000905af158601d01573d60011458600c01573d6000803e3d621234565260ea61109c5260008152602062002f2d565b63bdbf8c36598160e01b8152602081600483336000905af158601d01573d60011458600c01573d6000803e3d621234565260ea61109c528051600082529350602062002f2d565b63ffe73914598160e01b81526200305d565b808083111562001166575090919050565b808083101562001166575090919050565b836004820152846024820152606060448201528660648201526084810160005b88811015620030975780880151828201526020016200307d565b506060828960a40184336000905af158601d01573d60011458600c01573d6000803e3d621234565260ea61109c52815160408301513d6000853e8b8b82606087013350600060045af15059620030ee8d3d6200304c565b8c01620030fc81876200303b565b5b82811015620031135760008152602001620030fd565b50929c50505050505050565b638435035b598160e01b8152836004820152602081602483336000905af158601d01573d60011458600c01573d6000803e3d621234565260ea61109c528051600082529350602062002f2d565b6385979f76598160e01b8152836004820152846024820152606060448201528760648201526084810160005b89811015620031b257808901518282015260200162003198565b506060828a60a40184336000905af158601d01573d60011458600c01573d6000803e3d621234565260ea61109c52815160408301513d6000853e8c8c82606087013350600060045af15059620032098e3d6200304c565b8d016200321781876200303b565b5b828110156200322e576000815260200162003218565b50929d50505050505050565b6107e880620032ce83390190565b6314aa2ff7598160e01b8152600481016020815286602082015260005b878110156200328257808701518282016040015260200162003265565b506020828860640184336000905af158601d01573d60011458600c01573d6000803e3d621234565260ea61109c528151965059825b8181101562001aa95760008152602001620032b756fe60806040523480156100195760008061001661001f565b50505b5061008a565b632a2a7adb598160e01b8152600481016020815285602082015260005b8681101561005757808601518282016040015260200161003c565b506020828760640184336000905af158601d01573d60011458600c01573d6000803e3d621234565260ea61109c52505050565b61074f806100996000396000f3fe6080604052600436106100225760003560e01c8063e74a474a1461003957610031565b366100315761002f610117565b005b61002f610117565b61002f60048036036060811015610058576000806100556104b5565b50505b6001600160a01b03823516919081019060408101602082013564010000000081111561008c576000806100896104b5565b50505b8201836020820111156100a7576000806100a46104b5565b50505b803590602001918460018302840111640100000000831117156100d2576000806100cf6104b5565b50505b91908080601f01602080910402602001604051908101604052818152929190602084018383808284376000920191909152509295505050903560ff1691506101319050565b61011f61012f565b61012f61012a6102c3565b6103c4565b565b600061013b6102c3565b6001600160a01b03161461018e5760405162461bcd60e51b815260206004820152600d60248201526c496d706c206e6f74207a65726f60981b60448201526064016040518091039061018b6104b5565b50505b61019783610401565b6101a081610479565b6000825111156102be5760006101b46102c3565b6001600160a01b0316836040518082805190602001908083835b602083106101ed5780518252601f1990920191602091820191016101ce565b6001836020036101000a038019825116818451168082178552505050505050905001915050600060405180830381855a610225610520565b50505050509150503d8060008114610259576040513d603f01601f191681016040523d815291503d6000602084013e61025e565b606091505b50509050806102bc5760405162461bcd60e51b815260206004820152601a60248201527f496d706c656d656e746174696f6e20696e6974206661696c65640000000000006044820152606401604051809103906102b96104b5565b50505b505b505050565b6000807f360894a13ba1a3210667c828492db98dca3e2076cc3735a920a3ca505d382bbc806102f061060d565b91506001600160a01b03821661030b576000925050506103c1565b816001600160a01b031663ecef89d5610322610488565b6040516001600160e01b031960e084901b16815260ff90911660048201526024016020604051808303818680610356610668565b15801561036b576000806103686104b5565b50505b505a6103756106b4565b5050505050158015610394573d6000803e3d60006103916104b5565b50505b505050506040513d60208110156103b3576000806103b06104b5565b50505b810190808051955050505050505b90565b3660008037600080366000845a6103d9610520565b50505050503d6000803e8080156103ef573d6000f35b3d60006103fa6104b5565b5050505050565b61040a816104a0565b61044e5760405162461bcd60e51b815260040180806020018281038252603b815260200180610714603b91396040019150506040518091039061044b6104b5565b50505b7f360894a13ba1a3210667c828492db98dca3e2076cc3735a920a3ca505d382bbc81816102bc6106c5565b600160fc1b81816102bc6106c5565b600080600160fc1b8061049961060d565b9250505090565b600080826104ac610668565b15159392505050565b632a2a7adb598160e01b8152600481016020815285602082015260005b868110156104ed5780860151828201604001526020016104d2565b506020828760640184336000905af158601d01573d60011458600c01573d6000803e3d621234565260ea61109c52505050565b63ffe73914598160e01b8152610553565b808083111561053d5750815b92915050565b808083101561053d575090919050565b836004820152846024820152606060448201528660648201526084810160005b8881101561058b578088015182820152602001610573565b506060828960a40184336000905af158601d01573d60011458600c01573d6000803e3d621234565260ea61109c52815160408301513d6000853e8b8b82606087013350600060045af150596105e08d3d610543565b8c016105ec8187610531565b5b8281101561060157600081526020016105ed565b50929c50505050505050565b6303daa959598160e01b8152836004820152602081602483336000905af158601d01573d60011458600c01573d6000803e3d621234565260ea61109c528051935060005b60408110156102be57600082820152602001610651565b638435035b598160e01b8152836004820152602081602483336000905af158601d01573d60011458600c01573d6000803e3d621234565260ea61109c5280516000825293506020610651565b638540661f598160e01b8152610553565b6322bd64c0598160e01b8152836004820152846024820152600081604483336000905af158601d01573d60011458600c01573d6000803e3d621234565260ea61109c5260008152602061065156fe43616e6e6f742073657420612070726f787920696d706c656d656e746174696f6e20746f2061206e6f6e2d636f6e747261637420616464726573734f776e61626c653a206e6577206f776e657220697320746865207a65726f20616464726573734f776e61626c653a2063616c6c6572206973206e6f7420746865206f776e6572436f6e747261637420696e7374616e63652068617320616c7265616479206265656e20696e697469616c697a6564",
  "linkReferences": {},
  "deployedLinkReferences": {}
}