{
  "_format": "hh-sol-artifact-1",
  "contractName": "PoolFactory-ovm",
  "sourceName": "contracts/PoolFactory.sol",
  "abi": [
    {
      "anonymous": false,
      "inputs": [
        {
          "indexed": false,
          "internalType": "address",
          "name": "dao",
          "type": "address"
        }
      ],
      "name": "DaoAddressSet",
      "type": "event"
    },
    {
      "anonymous": false,
      "inputs": [
        {
          "indexed": false,
          "internalType": "uint256",
          "name": "numerator",
          "type": "uint256"
        },
        {
          "indexed": false,
          "internalType": "uint256",
          "name": "denominator",
          "type": "uint256"
        }
      ],
      "name": "DaoFeeSet",
      "type": "event"
    },
    {
      "anonymous": false,
      "inputs": [
        {
          "indexed": false,
          "internalType": "uint256",
          "name": "cooldown",
          "type": "uint256"
        }
      ],
      "name": "ExitFeeCooldownSet",
      "type": "event"
    },
    {
      "anonymous": false,
      "inputs": [
        {
          "indexed": false,
          "internalType": "uint256",
          "name": "numerator",
          "type": "uint256"
        },
        {
          "indexed": false,
          "internalType": "uint256",
          "name": "denominator",
          "type": "uint256"
        }
      ],
      "name": "ExitFeeSet",
      "type": "event"
    },
    {
      "anonymous": false,
      "inputs": [
        {
          "indexed": false,
          "internalType": "address",
          "name": "fundAddress",
          "type": "address"
        },
        {
          "indexed": false,
          "internalType": "bool",
          "name": "isPoolPrivate",
          "type": "bool"
        },
        {
          "indexed": false,
          "internalType": "string",
          "name": "fundName",
          "type": "string"
        },
        {
          "indexed": false,
          "internalType": "string",
          "name": "managerName",
          "type": "string"
        },
        {
          "indexed": false,
          "internalType": "address",
          "name": "manager",
          "type": "address"
        },
        {
          "indexed": false,
          "internalType": "uint256",
          "name": "time",
          "type": "uint256"
        },
        {
          "indexed": false,
          "internalType": "uint256",
          "name": "managerFeeNumerator",
          "type": "uint256"
        },
        {
          "indexed": false,
          "internalType": "uint256",
          "name": "managerFeeDenominator",
          "type": "uint256"
        }
      ],
      "name": "FundCreated",
      "type": "event"
    },
    {
      "anonymous": false,
      "inputs": [
        {
          "indexed": false,
          "internalType": "uint256",
          "name": "count",
          "type": "uint256"
        }
      ],
      "name": "MaximumSupportedAssetCountSet",
      "type": "event"
    },
    {
      "anonymous": false,
      "inputs": [
        {
          "indexed": true,
          "internalType": "address",
          "name": "previousOwner",
          "type": "address"
        },
        {
          "indexed": true,
          "internalType": "address",
          "name": "newOwner",
          "type": "address"
        }
      ],
      "name": "OwnershipTransferred",
      "type": "event"
    },
    {
      "anonymous": false,
      "inputs": [
        {
          "indexed": false,
          "internalType": "address",
          "name": "proxy",
          "type": "address"
        }
      ],
      "name": "ProxyCreated",
      "type": "event"
    },
    {
      "inputs": [],
      "name": "addressResolver",
      "outputs": [
        {
          "internalType": "contract IAddressResolver",
          "name": "",
          "type": "address"
        }
      ],
      "stateMutability": "view",
      "type": "function"
    },
    {
      "inputs": [],
      "name": "addressResolverAddress",
      "outputs": [
        {
          "internalType": "address",
          "name": "",
          "type": "address"
        }
      ],
      "stateMutability": "view",
      "type": "function"
    },
    {
      "inputs": [
        {
          "internalType": "bool",
          "name": "_privatePool",
          "type": "bool"
        },
        {
          "internalType": "address",
          "name": "_manager",
          "type": "address"
        },
        {
          "internalType": "string",
          "name": "_managerName",
          "type": "string"
        },
        {
          "internalType": "string",
          "name": "_fundName",
          "type": "string"
        },
        {
          "internalType": "uint256",
          "name": "_managerFeeNumerator",
          "type": "uint256"
        },
        {
          "internalType": "bytes32[]",
          "name": "_supportedAssets",
          "type": "bytes32[]"
        }
      ],
      "name": "createFund",
      "outputs": [
        {
          "internalType": "address",
          "name": "",
          "type": "address"
        }
      ],
      "stateMutability": "nonpayable",
      "type": "function"
    },
    {
      "inputs": [
        {
          "internalType": "bytes",
          "name": "_data",
          "type": "bytes"
        },
        {
          "internalType": "uint8",
          "name": "_proxyType",
          "type": "uint8"
        }
      ],
      "name": "deploy",
      "outputs": [
        {
          "internalType": "address",
          "name": "",
          "type": "address"
        }
      ],
      "stateMutability": "nonpayable",
      "type": "function"
    },
    {
      "inputs": [
        {
          "internalType": "uint256",
          "name": "",
          "type": "uint256"
        }
      ],
      "name": "deployedFunds",
      "outputs": [
        {
          "internalType": "address",
          "name": "",
          "type": "address"
        }
      ],
      "stateMutability": "view",
      "type": "function"
    },
    {
      "inputs": [],
      "name": "deployedFundsLength",
      "outputs": [
        {
          "internalType": "uint256",
          "name": "",
          "type": "uint256"
        }
      ],
      "stateMutability": "view",
      "type": "function"
    },
    {
      "inputs": [],
      "name": "getDaoAddress",
      "outputs": [
        {
          "internalType": "address",
          "name": "",
          "type": "address"
        }
      ],
      "stateMutability": "view",
      "type": "function"
    },
    {
      "inputs": [],
      "name": "getDaoFee",
      "outputs": [
        {
          "internalType": "uint256",
          "name": "",
          "type": "uint256"
        },
        {
          "internalType": "uint256",
          "name": "",
          "type": "uint256"
        }
      ],
      "stateMutability": "view",
      "type": "function"
    },
    {
      "inputs": [],
      "name": "getExitFee",
      "outputs": [
        {
          "internalType": "uint256",
          "name": "",
          "type": "uint256"
        },
        {
          "internalType": "uint256",
          "name": "",
          "type": "uint256"
        }
      ],
      "stateMutability": "view",
      "type": "function"
    },
    {
      "inputs": [],
      "name": "getExitFeeCooldown",
      "outputs": [
        {
          "internalType": "uint256",
          "name": "",
          "type": "uint256"
        }
      ],
      "stateMutability": "view",
      "type": "function"
    },
    {
      "inputs": [
        {
          "internalType": "uint8",
          "name": "_proxyType",
          "type": "uint8"
        }
      ],
      "name": "getLogic",
      "outputs": [
        {
          "internalType": "address",
          "name": "",
          "type": "address"
        }
      ],
      "stateMutability": "view",
      "type": "function"
    },
    {
      "inputs": [],
      "name": "getMaximumManagerFee",
      "outputs": [
        {
          "internalType": "uint256",
          "name": "",
          "type": "uint256"
        },
        {
          "internalType": "uint256",
          "name": "",
          "type": "uint256"
        }
      ],
      "stateMutability": "view",
      "type": "function"
    },
    {
      "inputs": [],
      "name": "getMaximumSupportedAssetCount",
      "outputs": [
        {
          "internalType": "uint256",
          "name": "",
          "type": "uint256"
        }
      ],
      "stateMutability": "view",
      "type": "function"
    },
    {
      "inputs": [
        {
          "internalType": "address",
          "name": "pool",
          "type": "address"
        }
      ],
      "name": "getPoolManagerFee",
      "outputs": [
        {
          "internalType": "uint256",
          "name": "",
          "type": "uint256"
        },
        {
          "internalType": "uint256",
          "name": "",
          "type": "uint256"
        }
      ],
      "stateMutability": "view",
      "type": "function"
    },
    {
      "inputs": [],
      "name": "getTrackingCode",
      "outputs": [
        {
          "internalType": "bytes32",
          "name": "",
          "type": "bytes32"
        }
      ],
      "stateMutability": "view",
      "type": "function"
    },
    {
      "inputs": [
        {
          "internalType": "address",
          "name": "_addressResolver",
          "type": "address"
        },
        {
          "internalType": "address",
          "name": "_poolLogic",
          "type": "address"
        },
        {
          "internalType": "address",
          "name": "_managerLogic",
          "type": "address"
        },
        {
          "internalType": "address",
          "name": "daoAddress",
          "type": "address"
        }
      ],
      "name": "initialize",
      "outputs": [],
      "stateMutability": "nonpayable",
      "type": "function"
    },
    {
      "inputs": [
        {
          "internalType": "address",
          "name": "",
          "type": "address"
        }
      ],
      "name": "isPool",
      "outputs": [
        {
          "internalType": "bool",
          "name": "",
          "type": "bool"
        }
      ],
      "stateMutability": "view",
      "type": "function"
    },
    {
      "inputs": [],
      "name": "owner",
      "outputs": [
        {
          "internalType": "address",
          "name": "",
          "type": "address"
        }
      ],
      "stateMutability": "view",
      "type": "function"
    },
    {
      "inputs": [
        {
          "internalType": "address",
          "name": "",
          "type": "address"
        }
      ],
      "name": "poolManagerFeeDenominator",
      "outputs": [
        {
          "internalType": "uint256",
          "name": "",
          "type": "uint256"
        }
      ],
      "stateMutability": "view",
      "type": "function"
    },
    {
      "inputs": [
        {
          "internalType": "address",
          "name": "",
          "type": "address"
        }
      ],
      "name": "poolManagerFeeNumerator",
      "outputs": [
        {
          "internalType": "uint256",
          "name": "",
          "type": "uint256"
        }
      ],
      "stateMutability": "view",
      "type": "function"
    },
    {
      "inputs": [],
      "name": "renounceOwnership",
      "outputs": [],
      "stateMutability": "nonpayable",
      "type": "function"
    },
    {
      "inputs": [
        {
          "internalType": "address",
          "name": "daoAddress",
          "type": "address"
        }
      ],
      "name": "setDaoAddress",
      "outputs": [],
      "stateMutability": "nonpayable",
      "type": "function"
    },
    {
      "inputs": [
        {
          "internalType": "uint256",
          "name": "numerator",
          "type": "uint256"
        },
        {
          "internalType": "uint256",
          "name": "denominator",
          "type": "uint256"
        }
      ],
      "name": "setDaoFee",
      "outputs": [],
      "stateMutability": "nonpayable",
      "type": "function"
    },
    {
      "inputs": [
        {
          "internalType": "uint256",
          "name": "numerator",
          "type": "uint256"
        },
        {
          "internalType": "uint256",
          "name": "denominator",
          "type": "uint256"
        }
      ],
      "name": "setExitFee",
      "outputs": [],
      "stateMutability": "nonpayable",
      "type": "function"
    },
    {
      "inputs": [
        {
          "internalType": "uint256",
          "name": "cooldown",
          "type": "uint256"
        }
      ],
      "name": "setExitFeeCooldown",
      "outputs": [],
      "stateMutability": "nonpayable",
      "type": "function"
    },
    {
      "inputs": [
        {
          "internalType": "address",
          "name": "_poolLogic",
          "type": "address"
        },
        {
          "internalType": "address",
          "name": "_poolManagerLogic",
          "type": "address"
        }
      ],
      "name": "setLogic",
      "outputs": [],
      "stateMutability": "nonpayable",
      "type": "function"
    },
    {
      "inputs": [
        {
          "internalType": "uint256",
          "name": "count",
          "type": "uint256"
        }
      ],
      "name": "setMaximumSupportedAssetCount",
      "outputs": [],
      "stateMutability": "nonpayable",
      "type": "function"
    },
    {
      "inputs": [
        {
          "internalType": "address",
          "name": "pool",
          "type": "address"
        },
        {
          "internalType": "uint256",
          "name": "numerator",
          "type": "uint256"
        }
      ],
      "name": "setPoolManagerFeeNumerator",
      "outputs": [],
      "stateMutability": "nonpayable",
      "type": "function"
    },
    {
      "inputs": [
        {
          "internalType": "bytes32",
          "name": "code",
          "type": "bytes32"
        }
      ],
      "name": "setTrackingCode",
      "outputs": [],
      "stateMutability": "nonpayable",
      "type": "function"
    },
    {
      "inputs": [
        {
          "internalType": "address",
          "name": "newOwner",
          "type": "address"
        }
      ],
      "name": "transferOwnership",
      "outputs": [],
      "stateMutability": "nonpayable",
      "type": "function"
    }
  ],
  "bytecode": "0x60806040523480156200001c576000806200001962000023565b50505b5062000090565b632a2a7adb598160e01b8152600481016020815285602082015260005b868110156200005d57808601518282016040015260200162000040565b506020828760640184336000905af158600e01573d6000803e3d6000fd5b3d6001141558600a015760016000f35b505050565b61332280620000a06000396000f3fe60806040523480156200001c576000806200001962002748565b50505b5060043610620002135760003560e01c80639a3cac6a1162000128578063bee37e5211620000bc578063eda96ea91162000086578063eda96ea91462000894578063eec16c44146200089e578063f2fde38b14620008c9578063f8c8765e14620008fd5762000213565b8063bee37e5214620007f4578063e60eb4121462000828578063ecb0116a146200085c578063ecef89d514620008665762000213565b8063aa12ae4d11620000fe578063aa12ae4d1462000549578063ad3905661462000553578063b064e65d146200057e578063b7a5452614620007c05762000213565b80639a3cac6a14620004da5780639cada6e4146200050e5780639f49b60e14620005185762000213565b806349f7c02d11620001ac578063808ae5fb1162000176578063808ae5fb14620004475780638da5cb5b146200048357806394d0d23b146200048d5780639a068bd614620004af5762000213565b806349f7c02d14620003ba5780635b16ebb714620003c4578063715018a6146200040c578063771d1baf14620004165762000213565b80630e53b75111620001ee5780630e53b75114620002a15780631d68702d14620002ab5780631e8e8bca14620002b557806345812ca514620002e05762000213565b8063046b72c4146200022357806305a2ee2a146200025f5780630bf99bd91462000285575b6000806200022062002748565b50505b6200025d6004803603604081101562000246576000806200024362002748565b50505b506001600160a01b03813516906020013562000949565b005b6200026962000b49565b6040516001600160a01b03909116815260200160405180910390f35b6200028f62000b6a565b60405190815260200160405180910390f35b6200026962000b7f565b6200026962000b8d565b6200025d60048036036020811015620002d857600080620002d562002748565b50505b503562000bb1565b620002696004803603604081101562000303576000806200030062002748565b50505b810190602081018135600160201b81111562000329576000806200032662002748565b50505b82018360208201111562000347576000806200034462002748565b50505b803590602001918460018302840111600160201b8311171562000374576000806200037162002748565b50505b91908080601f01602080910402602001604051908101604052818152929190602084018383808284376000920191909152509295505050903560ff16915062000c459050565b6200028f62000c5c565b620003f860048036036020811015620003e757600080620003e462002748565b50505b50356001600160a01b031662000c6f565b604051901515815260200160405180910390f35b6200025d62000c98565b6200025d6004803603604081101562000439576000806200043662002748565b50505b508035906020013562000dac565b6200025d600480360360408110156200046a576000806200046762002748565b50505b506001600160a01b038135811691602001351662000e3e565b6200026962000f3a565b6200049762000f49565b60405191825260208201526040908101905180910390f35b6200026960048036036020811015620004d257600080620004cf62002748565b50505b503562000f6c565b6200025d60048036036020811015620004fd57600080620004fa62002748565b50505b50356001600160a01b031662000f9b565b620004976200102c565b6200025d600480360360408110156200053b576000806200053862002748565b50505b508035906020013562001047565b6200028f620010d9565b6200025d6004803603602081101562000576576000806200057362002748565b50505b5035620010e7565b62000269600480360360c0811015620005a1576000806200059e62002748565b50505b81351515916001600160a01b0360208201351691810190606081016040820135600160201b811115620005de57600080620005db62002748565b50505b820183602082011115620005fc57600080620005f962002748565b50505b803590602001918460018302840111600160201b8311171562000629576000806200062662002748565b50505b91908080601f01602080910402602001604051908101604052818152929190602084018383808284376000920191909152509295949360208101935035915050600160201b81111562000686576000806200068362002748565b50505b820183602082011115620006a457600080620006a162002748565b50505b803590602001918460018302840111600160201b83111715620006d157600080620006ce62002748565b50505b91908080601f016020809104026020016040519081016040528181529291906020840183838082843760009201919091525092958435959094909350604081019250602001359050600160201b81111562000736576000806200073362002748565b50505b82018360208201111562000754576000806200075162002748565b50505b803590602001918460208302840111600160201b8311171562000781576000806200077e62002748565b50505b91908080602002602001604051908101604052809392919081815260200183836020028082843760009201919091525092955062001178945050505050565b6200049760048036036020811015620007e357600080620007e062002748565b50505b50356001600160a01b03166200170b565b6200028f6004803603602081101562000817576000806200081462002748565b50505b50356001600160a01b0316620017eb565b6200028f600480360360208110156200084b576000806200084862002748565b50505b50356001600160a01b031662001808565b6200049762001822565b620002696004803603602081101562000889576000806200088662002748565b50505b503560ff166200183d565b6200028f62001885565b6200025d60048036036020811015620008c157600080620008be62002748565b50505b503562001893565b6200025d60048036036020811015620008ec57600080620008e962002748565b50505b50356001600160a01b031662001924565b6200025d6004803603608081101562000920576000806200091d62002748565b50505b506001600160a01b03813581169160208101358216916040820135811691606001351662001a93565b5a62000954620027b5565b6001600160a01b0316826001600160a01b0316148015620009be575060d160005a6200097f620027b5565b6001600160a01b03166001600160a01b03168152602001908152602001600020600090620009ac6200280c565b906101000a900460ff16151560011515145b62000a1a5760405162461bcd60e51b815260206004820152601e60248201527f6f6e6c79206120706f6f6c2063616e206368616e6765206f776e20666565000060448201526064016040518091039062000a1762002748565b50505b6001600160a01b038216600090815260d16020526040902060009062000a3f6200280c565b906101000a900460ff161515600115151462000aac5760405162461bcd60e51b815260206004820152601e60248201527f737570706c6965642061646472657373206973206e6f74206120706f6f6c000060448201526064016040518091039062000aa962002748565b50505b6001600160a01b038216600090815260d46020526040902062000ace6200280c565b811062000b235760405162461bcd60e51b81526020600482015260146024820152730dac2dcc2cecae440cccaca40e8dede40d0d2ced60631b60448201526064016040518091039062000b2062002748565b50505b62000b455a62000b32620027b5565b8260d362000b3f6200280c565b62001cbf565b5050565b600060cb62000b576200280c565b906101000a90046001600160a01b031681565b600060cd8062000b796200280c565b91505090565b600060cc62000b576200280c565b60008060ce62000b9c6200280c565b906101000a90046001600160a01b0316905090565b62000bbb62001d81565b6001600160a01b03166000606562000bd26200280c565b906101000a90046001600160a01b03166001600160a01b03161462000c375760405162461bcd60e51b81526020600482018190526024820152600080516020620032d483398151915260448201526064016040518091039062000c3462002748565b50505b62000c428162001d8e565b50565b600062000c53838362001d9c565b90505b92915050565b600060da62000c6a6200280c565b905090565b60d16020528060005260406000206000915062000c8b6200280c565b906101000a900460ff1681565b62000ca262001d81565b6001600160a01b03166000606562000cb96200280c565b906101000a90046001600160a01b03166001600160a01b03161462000d1e5760405162461bcd60e51b81526020600482018190526024820152600080516020620032d483398151915260448201526064016040518091039062000d1b62002748565b50505b600080606562000d2d6200280c565b906101000a90046001600160a01b03166001600160a01b03167f8be0079c531659141344cd1fd0a4f28419497f9722a3daafe3b4186f6b6457e060405160405180910390a36000606560018162000d836200280c565b816001600160a01b0302191690836001600160a01b031602179062000da762002859565b505050565b62000db662001d81565b6001600160a01b03166000606562000dcd6200280c565b906101000a90046001600160a01b03166001600160a01b03161462000e325760405162461bcd60e51b81526020600482018190526024820152600080516020620032d483398151915260448201526064016040518091039062000e2f62002748565b50505b62000b45828262001f58565b62000e4862001d81565b6001600160a01b03166000606562000e5f6200280c565b906101000a90046001600160a01b03166001600160a01b03161462000ec45760405162461bcd60e51b81526020600482018190526024820152600080516020620032d483398151915260448201526064016040518091039062000ec162002748565b50505b81609760018162000ed46200280c565b816001600160a01b0302191690836001600160a01b031602179062000ef862002859565b50505080609860006101000a8162000f0f6200280c565b816001600160a01b0302191690836001600160a01b031602179062000f3362002859565b5050505050565b600080606562000b9c6200280c565b60008060d262000f586200280c565b60d362000f646200280c565b915091509091565b60cd818162000f7a6200280c565b811062000f8357fe5b906000526020600020016000915062000b576200280c565b62000fa562001d81565b6001600160a01b03166000606562000fbc6200280c565b906101000a90046001600160a01b03166001600160a01b031614620010215760405162461bcd60e51b81526020600482018190526024820152600080516020620032d48339815191526044820152606401604051809103906200101e62002748565b50505b62000c42816200200c565b60008060cf6200103b6200280c565b60d062000f646200280c565b6200105162001d81565b6001600160a01b031660006065620010686200280c565b906101000a90046001600160a01b03166001600160a01b031614620010cd5760405162461bcd60e51b81526020600482018190526024820152600080516020620032d4833981519152604482015260640160405180910390620010ca62002748565b50505b62000b45828262002083565b600060d962000c6a6200280c565b620010f162001d81565b6001600160a01b031660006065620011086200280c565b906101000a90046001600160a01b03166001600160a01b0316146200116d5760405162461bcd60e51b81526020600482018190526024820152600080516020620032d48339815191526044820152606401604051809103906200116a62002748565b50505b62000c428162002137565b600060605a63996d79a5598160e01b8152602081600483336000905af158600e01573d6000803e3d6000fd5b3d6001141558600a015760016000f35b8051925060005b6040811015620011d457600082820152602001620011bb565b505050878760cc600090620011e86200280c565b906101000a90046001600160a01b03168660405160240180866001600160a01b03168152602001856001600160a01b0316815260200180602001846001600160a01b0316815260200180602001838103835286818151815260200191508051906020019080838360005b838110156200126c57808201518382015260200162001252565b50505050905090810190601f1680156200129a5780820380516001836020036101000a031916815260200191505b50838103825284818151815260200191508051906020019060200280838360005b83811015620012d5578082015183820152602001620012bb565b50505050905001975050505050505050604051601f1981830301815260409190915263eb94917d60e01b6020820180516001600160e01b03169091179052905060006200132482600162000c45565b905060605a63996d79a5598160e01b8152602081600483336000905af158600e01573d6000803e3d6000fd5b3d6001141558600a015760016000f35b8051925060005b6040811015620013805760008282015260200162001367565b5050508a8a8a8a8660405160240180876001600160a01b031681526020018615158152602001856001600160a01b031681526020018060200180602001846001600160a01b03168152602001838103835286818151815260200191508051906020019080838360005b8381101562001403578082015183820152602001620013e9565b50505050905090810190601f168015620014315780820380516001836020036101000a031916815260200191505b50838103825285818151815260200191508051906020019080838360005b83811015620014695780820151838201526020016200144f565b50505050905090810190601f168015620014975780820380516001836020036101000a031916815260200191505b5098505050505050505050604051601f198183030181526040919091526302ce12f960e51b6020820180516001600160e01b0316909117905290506000620014e182600262000c45565b90508060cd80600181620014f46200280c565b0180826200150162002859565b505060009283526000190191602091502001600181620015206200280c565b816001600160a01b0302191690836001600160a01b03160217906200154462002859565b5050506001600160a01b038116600090815260d1602052600190604090206001816200156f6200280c565b8160ff021916908315150217906200158662002859565b5050506200159b818860d362000b3f6200280c565b7f73a0638fe578fc759744633aa170a433061ca2cc1bb855d116c506e04a29901f818c8a8c8e5a620015cc620028a8565b8d60d3620015d96200280c565b60405180896001600160a01b0316815260200188151581526020018060200180602001876001600160a01b03168152602001868152602001858152602001848152602001838103835289818151815260200191508051906020019080838360005b83811015620016545780820151838201526020016200163a565b50505050905090810190601f168015620016825780820380516001836020036101000a031916815260200191505b50838103825288818151815260200191508051906020019080838360005b83811015620016ba578082015183820152602001620016a0565b50505050905090810190601f168015620016e85780820380516001836020036101000a031916815260200191505b509a505050505050505050505060405180910390a19a9950505050505050505050565b6001600160a01b038116600090815260d16020528060408120600090620017316200280c565b906101000a900460ff16151560011515146200179e5760405162461bcd60e51b815260206004820152601e60248201527f737570706c6965642061646472657373206973206e6f74206120706f6f6c00006044820152606401604051809103906200179b62002748565b50505b6001600160a01b038316600090815260d460205260409020620017c06200280c565b6001600160a01b038416600090815260d560205260409020620017e26200280c565b91509150915091565b60d46020528060005260406000209050620018056200280c565b81565b60d56020528060005260406000209050620018056200280c565b60008060d6620018316200280c565b60d762000f646200280c565b60008160ff16600114156200187257600060986200185a6200280c565b906101000a90046001600160a01b0316905062001880565b600060976200185a6200280c565b919050565b600060d862000c6a6200280c565b6200189d62001d81565b6001600160a01b031660006065620018b46200280c565b906101000a90046001600160a01b03166001600160a01b031614620019195760405162461bcd60e51b81526020600482018190526024820152600080516020620032d48339815191526044820152606401604051809103906200191662002748565b50505b62000c42816200217e565b6200192e62001d81565b6001600160a01b031660006065620019456200280c565b906101000a90046001600160a01b03166001600160a01b031614620019aa5760405162461bcd60e51b81526020600482018190526024820152600080516020620032d4833981519152604482015260640160405180910390620019a762002748565b50505b6001600160a01b038116620019fc5760405162461bcd60e51b8152600401808060200182810382526026815260200180620032ae6026913960400191505060405180910390620019f962002748565b50505b6001600160a01b0381166000606562001a146200280c565b906101000a90046001600160a01b03166001600160a01b03167f8be0079c531659141344cd1fd0a4f28419497f9722a3daafe3b4186f6b6457e060405160405180910390a380606560018162001a696200280c565b816001600160a01b0302191690836001600160a01b031602179062001a8d62002859565b50505050565b6001600062001aa16200280c565b906101000a900460ff168062001abc575062001abc620021c5565b8062001adc575060008062001ad06200280c565b906101000a900460ff16155b62001b245760405162461bcd60e51b815260040180806020018281038252602e815260200180620032f4602e91396040019150506040518091039062001b2162002748565b50505b600060018162001b336200280c565b906101000a900460ff16159050801562001ba257600160006101008162001b596200280c565b8160ff0219169083151502179062001b7062002859565b50505060016000806101000a8162001b876200280c565b8160ff0219169083151502179062001b9e62002859565b5050505b62001bae84846200223a565b8460cb60018162001bbe6200280c565b816001600160a01b0302191690836001600160a01b031602179062001be262002859565b5050508460cc60006101000a8162001bf96200280c565b816001600160a01b0302191690836001600160a01b031602179062001c1d62002859565b50505062001c2b826200200c565b62001c3b61138861271062002244565b62001c49600a606462001f58565b62001c5860056103e862002083565b62001c666201518062002137565b62001c72600a6200217e565b62001c866544484544474560d01b62001d8e565b801562000f33576000806101008162001c9e6200280c565b8160ff0219169083151502179062001cb562002859565b5050505050505050565b80821115801562001cdb575060d262001cd76200280c565b8211155b62001d2a5760405162461bcd60e51b815260206004820152601060248201526f34b73b30b634b210333930b1ba34b7b760811b60448201526064016040518091039062001d2762002748565b50505b6001600160a01b038316600090815260d4602052829060409020819062001d5062002859565b5050506001600160a01b038316600090815260d5602052819060409020819062001d7962002859565b505050505050565b60005a62000c6a620027b5565b808060da62001a8d62002859565b60008062001da9620022c4565b90507efffc2da0b561cae30d9826d37709e9421c4725faebc226cbbb7ef5fc5e7349816040516001600160a01b03909116815260200160405180910390a1806001600160a01b031663e74a474a5a63996d79a5598160e01b8152602081600483336000905af158600e01573d6000803e3d6000fd5b3d6001141558600a015760016000f35b8051925060005b604081101562001e4e5760008282015260200162001e35565b50505086866040518463ffffffff1660e01b815260040180846001600160a01b03168152602001806020018360ff168152602001828103825284818151815260200191508051906020019080838360005b8381101562001eb957808201518382015260200162001e9f565b50505050905090810190601f16801562001ee75780820380516001836020036101000a031916815260200191505b509450505050506000604051808303816000878062001f05620028ef565b15801562001f1d5760008062001f1a62002748565b50505b505a62001f296200293c565b50505050505015801562001f4c573d6000803e3d600062001f4962002748565b50505b50929695505050505050565b8082111562001fab5760405162461bcd60e51b815260206004820152601060248201526f34b73b30b634b210333930b1ba34b7b760811b60448201526064016040518091039062001fa862002748565b50505b818060cf62001fb962002859565b5050508060d0819062001fcb62002859565b5050507fb10da2958bf5ec1bff3164ff753a09e0460ed44d3abf73e79b817b500ed0f2f1828260405191825260208201526040908101905180910390a15050565b8060ce6001816200201c6200280c565b816001600160a01b0302191690836001600160a01b03160217906200204062002859565b5050507ff1034ad6b4d45dc33a4142b9c51c2b7f89bf4a410696e426cc0f3224869e0aca816040516001600160a01b03909116815260200160405180910390a150565b80821115620020d65760405162461bcd60e51b815260206004820152601060248201526f34b73b30b634b210333930b1ba34b7b760811b604482015260640160405180910390620020d362002748565b50505b818060d6620020e462002859565b5050508060d78190620020f662002859565b5050507fc84081a9c94a2300cdec20e3d60952b84e96e11edf24cb65ba26b7f8455f29db828260405191825260208201526040908101905180910390a15050565b808060d86200214562002859565b5050507f3c6bcf0eff145e812fd913d4220f52c2a428932b0d2c196ab56e3e005ae2ace48160405190815260200160405180910390a150565b808060d96200218c62002859565b5050507f0cd8fcb5e08d7632af461f0ad793e5c63dc0d7595c301f5880650175e37a87488160405190815260200160405180910390a150565b6000805a63996d79a5598160e01b8152602081600483336000905af158600e01573d6000803e3d6000fd5b3d6001141558600a015760016000f35b8051925060005b6040811015620022205760008282015260200162002207565b505050905060008162002232620028ef565b159250505090565b62000ec46200232b565b60008111620022a45760405162461bcd60e51b815260206004820152601c60248201527f64656e6f6d696e61746f72206d75737420626520706f73697469766500000000604482015260640160405180910390620022a162002748565b50505b818060d2620022b262002859565b5050508060d3819062000f3362002859565b6000806060604051620022da6020820162002a32565b601f1982820381018352601f90910116604052905080516020820160006200230162002a40565b505091508162002310620028ef565b62002325576000806200232262002748565b50505b50905090565b60016000620023396200280c565b906101000a900460ff168062002354575062002354620021c5565b80620023745750600080620023686200280c565b906101000a900460ff16155b620023bc5760405162461bcd60e51b815260040180806020018281038252602e815260200180620032f4602e913960400191505060405180910390620023b962002748565b50505b6000600181620023cb6200280c565b906101000a900460ff1615905080156200243a576001600061010081620023f16200280c565b8160ff021916908315150217906200240862002859565b50505060016000806101000a816200241f6200280c565b8160ff021916908315150217906200243662002859565b5050505b620024446200247d565b6200244e620025a3565b801562000c425760008061010081620024666200280c565b8160ff0219169083151502179062001a8d62002859565b600160006200248b6200280c565b906101000a900460ff1680620024a65750620024a6620021c5565b80620024c65750600080620024ba6200280c565b906101000a900460ff16155b6200250e5760405162461bcd60e51b815260040180806020018281038252602e815260200180620032f4602e9139604001915050604051809103906200250b62002748565b50505b60006001816200251d6200280c565b906101000a900460ff1615905080156200244e576001600061010081620025436200280c565b8160ff021916908315150217906200255a62002859565b50505060016000806101000a81620025716200280c565b8160ff021916908315150217906200258862002859565b505050801562000c425760008061010081620024666200280c565b60016000620025b16200280c565b906101000a900460ff1680620025cc5750620025cc620021c5565b80620025ec5750600080620025e06200280c565b906101000a900460ff16155b620026345760405162461bcd60e51b815260040180806020018281038252602e815260200180620032f4602e9139604001915050604051809103906200263162002748565b50505b6000600181620026436200280c565b906101000a900460ff161590508015620026b2576001600061010081620026696200280c565b8160ff021916908315150217906200268062002859565b50505060016000806101000a81620026976200280c565b8160ff02191690831515021790620026ae62002859565b5050505b6000620026be62001d81565b9050806065600181620026d06200280c565b816001600160a01b0302191690836001600160a01b0316021790620026f462002859565b5050506001600160a01b03811660007f8be0079c531659141344cd1fd0a4f28419497f9722a3daafe3b4186f6b6457e060405160405180910390a350801562000c425760008061010081620024666200280c565b632a2a7adb598160e01b8152600481016020815285602082015260005b868110156200278257808601518282016040015260200162002765565b506020828760640184336000905af158600e01573d6000803e3d6000fd5b3d6001141558600a015760016000f35b505050565b6373509064598160e01b8152602081600483336000905af158600e01573d6000803e3d6000fd5b3d6001141558600a015760016000f35b8051935060005b604081101562000da757600082820152602001620027f3565b6303daa959598160e01b8152836004820152602081602483336000905af158600e01573d6000803e3d6000fd5b3d6001141558600a015760016000f35b80516000825293506020620027f3565b6322bd64c0598160e01b8152836004820152846024820152600081604483336000905af158600e01573d6000803e3d6000fd5b3d6001141558600a015760016000f35b600081526020620027f3565b63bdbf8c36598160e01b8152602081600483336000905af158600e01573d6000803e3d6000fd5b3d6001141558600a015760016000f35b80516000825293506020620027f3565b638435035b598160e01b8152836004820152602081602483336000905af158600e01573d6000803e3d6000fd5b3d6001141558600a015760016000f35b80516000825293506020620027f3565b6385979f76598160e01b815262002970565b808083111562000c56575090919050565b808083101562000c56575090919050565b836004820152846024820152606060448201528760648201526084810160005b89811015620029aa57808901518282015260200162002990565b506060828a60a40184336000905af158600e01573d6000803e3d6000fd5b3d6001141558600a015760016000f35b815160408301513d6000853e8c8c82606087013350600060045af1505962002a018e3d6200295f565b8d0162002a0f81876200294e565b5b8281101562002a26576000815260200162002a10565b50929d50505050505050565b6107e88062002ac683390190565b6314aa2ff7598160e01b8152600481016020815286602082015260005b8781101562002a7a57808701518282016040015260200162002a5d565b506020828860640184336000905af158600e01573d6000803e3d6000fd5b3d6001141558600a015760016000f35b8151965059825b8181101562000f33576000815260200162002aaf56fe60806040523480156100195760008061001661001f565b50505b5061008a565b632a2a7adb598160e01b8152600481016020815285602082015260005b8681101561005757808601518282016040015260200161003c565b506020828760640184336000905af158600e01573d6000803e3d6000fd5b3d6001141558600a015760016000f35b505050565b61074f806100996000396000f3fe6080604052600436106100225760003560e01c8063e74a474a1461003957610031565b366100315761002f610117565b005b61002f610117565b61002f60048036036060811015610058576000806100556104b5565b50505b6001600160a01b03823516919081019060408101602082013564010000000081111561008c576000806100896104b5565b50505b8201836020820111156100a7576000806100a46104b5565b50505b803590602001918460018302840111640100000000831117156100d2576000806100cf6104b5565b50505b91908080601f01602080910402602001604051908101604052818152929190602084018383808284376000920191909152509295505050903560ff1691506101319050565b61011f61012f565b61012f61012a6102c3565b6103c4565b565b600061013b6102c3565b6001600160a01b03161461018e5760405162461bcd60e51b815260206004820152600d60248201526c496d706c206e6f74207a65726f60981b60448201526064016040518091039061018b6104b5565b50505b61019783610401565b6101a081610479565b6000825111156102be5760006101b46102c3565b6001600160a01b0316836040518082805190602001908083835b602083106101ed5780518252601f1990920191602091820191016101ce565b6001836020036101000a038019825116818451168082178552505050505050905001915050600060405180830381855a610225610520565b50505050509150503d8060008114610259576040513d603f01601f191681016040523d815291503d6000602084013e61025e565b606091505b50509050806102bc5760405162461bcd60e51b815260206004820152601a60248201527f496d706c656d656e746174696f6e20696e6974206661696c65640000000000006044820152606401604051809103906102b96104b5565b50505b505b505050565b6000807f360894a13ba1a3210667c828492db98dca3e2076cc3735a920a3ca505d382bbc806102f061060d565b91506001600160a01b03821661030b576000925050506103c1565b816001600160a01b031663ecef89d5610322610488565b6040516001600160e01b031960e084901b16815260ff90911660048201526024016020604051808303818680610356610668565b15801561036b576000806103686104b5565b50505b505a6103756106b4565b5050505050158015610394573d6000803e3d60006103916104b5565b50505b505050506040513d60208110156103b3576000806103b06104b5565b50505b810190808051955050505050505b90565b3660008037600080366000845a6103d9610520565b50505050503d6000803e8080156103ef573d6000f35b3d60006103fa6104b5565b5050505050565b61040a816104a0565b61044e5760405162461bcd60e51b815260040180806020018281038252603b815260200180610714603b91396040019150506040518091039061044b6104b5565b50505b7f360894a13ba1a3210667c828492db98dca3e2076cc3735a920a3ca505d382bbc81816102bc6106c5565b600160fc1b81816102bc6106c5565b600080600160fc1b8061049961060d565b9250505090565b600080826104ac610668565b15159392505050565b632a2a7adb598160e01b8152600481016020815285602082015260005b868110156104ed5780860151828201604001526020016104d2565b506020828760640184336000905af158600e01573d6000803e3d6000fd5b3d6001141558600a015760016000f35b505050565b63ffe73914598160e01b8152610553565b808083111561053d5750815b92915050565b808083101561053d575090919050565b836004820152846024820152606060448201528660648201526084810160005b8881101561058b578088015182820152602001610573565b506060828960a40184336000905af158600e01573d6000803e3d6000fd5b3d6001141558600a015760016000f35b815160408301513d6000853e8b8b82606087013350600060045af150596105e08d3d610543565b8c016105ec8187610531565b5b8281101561060157600081526020016105ed565b50929c50505050505050565b6303daa959598160e01b8152836004820152602081602483336000905af158600e01573d6000803e3d6000fd5b3d6001141558600a015760016000f35b8051935060005b60408110156102be57600082820152602001610651565b638435035b598160e01b8152836004820152602081602483336000905af158600e01573d6000803e3d6000fd5b3d6001141558600a015760016000f35b80516000825293506020610651565b638540661f598160e01b8152610553565b6322bd64c0598160e01b8152836004820152846024820152600081604483336000905af158600e01573d6000803e3d6000fd5b3d6001141558600a015760016000f35b60008152602061065156fe43616e6e6f742073657420612070726f787920696d706c656d656e746174696f6e20746f2061206e6f6e2d636f6e747261637420616464726573734f776e61626c653a206e6577206f776e657220697320746865207a65726f20616464726573734f776e61626c653a2063616c6c6572206973206e6f7420746865206f776e6572436f6e747261637420696e7374616e63652068617320616c7265616479206265656e20696e697469616c697a6564",
  "deployedBytecode": "0x60806040523480156200001c576000806200001962002748565b50505b5060043610620002135760003560e01c80639a3cac6a1162000128578063bee37e5211620000bc578063eda96ea91162000086578063eda96ea91462000894578063eec16c44146200089e578063f2fde38b14620008c9578063f8c8765e14620008fd5762000213565b8063bee37e5214620007f4578063e60eb4121462000828578063ecb0116a146200085c578063ecef89d514620008665762000213565b8063aa12ae4d11620000fe578063aa12ae4d1462000549578063ad3905661462000553578063b064e65d146200057e578063b7a5452614620007c05762000213565b80639a3cac6a14620004da5780639cada6e4146200050e5780639f49b60e14620005185762000213565b806349f7c02d11620001ac578063808ae5fb1162000176578063808ae5fb14620004475780638da5cb5b146200048357806394d0d23b146200048d5780639a068bd614620004af5762000213565b806349f7c02d14620003ba5780635b16ebb714620003c4578063715018a6146200040c578063771d1baf14620004165762000213565b80630e53b75111620001ee5780630e53b75114620002a15780631d68702d14620002ab5780631e8e8bca14620002b557806345812ca514620002e05762000213565b8063046b72c4146200022357806305a2ee2a146200025f5780630bf99bd91462000285575b6000806200022062002748565b50505b6200025d6004803603604081101562000246576000806200024362002748565b50505b506001600160a01b03813516906020013562000949565b005b6200026962000b49565b6040516001600160a01b03909116815260200160405180910390f35b6200028f62000b6a565b60405190815260200160405180910390f35b6200026962000b7f565b6200026962000b8d565b6200025d60048036036020811015620002d857600080620002d562002748565b50505b503562000bb1565b620002696004803603604081101562000303576000806200030062002748565b50505b810190602081018135600160201b81111562000329576000806200032662002748565b50505b82018360208201111562000347576000806200034462002748565b50505b803590602001918460018302840111600160201b8311171562000374576000806200037162002748565b50505b91908080601f01602080910402602001604051908101604052818152929190602084018383808284376000920191909152509295505050903560ff16915062000c459050565b6200028f62000c5c565b620003f860048036036020811015620003e757600080620003e462002748565b50505b50356001600160a01b031662000c6f565b604051901515815260200160405180910390f35b6200025d62000c98565b6200025d6004803603604081101562000439576000806200043662002748565b50505b508035906020013562000dac565b6200025d600480360360408110156200046a576000806200046762002748565b50505b506001600160a01b038135811691602001351662000e3e565b6200026962000f3a565b6200049762000f49565b60405191825260208201526040908101905180910390f35b6200026960048036036020811015620004d257600080620004cf62002748565b50505b503562000f6c565b6200025d60048036036020811015620004fd57600080620004fa62002748565b50505b50356001600160a01b031662000f9b565b620004976200102c565b6200025d600480360360408110156200053b576000806200053862002748565b50505b508035906020013562001047565b6200028f620010d9565b6200025d6004803603602081101562000576576000806200057362002748565b50505b5035620010e7565b62000269600480360360c0811015620005a1576000806200059e62002748565b50505b81351515916001600160a01b0360208201351691810190606081016040820135600160201b811115620005de57600080620005db62002748565b50505b820183602082011115620005fc57600080620005f962002748565b50505b803590602001918460018302840111600160201b8311171562000629576000806200062662002748565b50505b91908080601f01602080910402602001604051908101604052818152929190602084018383808284376000920191909152509295949360208101935035915050600160201b81111562000686576000806200068362002748565b50505b820183602082011115620006a457600080620006a162002748565b50505b803590602001918460018302840111600160201b83111715620006d157600080620006ce62002748565b50505b91908080601f016020809104026020016040519081016040528181529291906020840183838082843760009201919091525092958435959094909350604081019250602001359050600160201b81111562000736576000806200073362002748565b50505b82018360208201111562000754576000806200075162002748565b50505b803590602001918460208302840111600160201b8311171562000781576000806200077e62002748565b50505b91908080602002602001604051908101604052809392919081815260200183836020028082843760009201919091525092955062001178945050505050565b6200049760048036036020811015620007e357600080620007e062002748565b50505b50356001600160a01b03166200170b565b6200028f6004803603602081101562000817576000806200081462002748565b50505b50356001600160a01b0316620017eb565b6200028f600480360360208110156200084b576000806200084862002748565b50505b50356001600160a01b031662001808565b6200049762001822565b620002696004803603602081101562000889576000806200088662002748565b50505b503560ff166200183d565b6200028f62001885565b6200025d60048036036020811015620008c157600080620008be62002748565b50505b503562001893565b6200025d60048036036020811015620008ec57600080620008e962002748565b50505b50356001600160a01b031662001924565b6200025d6004803603608081101562000920576000806200091d62002748565b50505b506001600160a01b03813581169160208101358216916040820135811691606001351662001a93565b5a62000954620027b5565b6001600160a01b0316826001600160a01b0316148015620009be575060d160005a6200097f620027b5565b6001600160a01b03166001600160a01b03168152602001908152602001600020600090620009ac6200280c565b906101000a900460ff16151560011515145b62000a1a5760405162461bcd60e51b815260206004820152601e60248201527f6f6e6c79206120706f6f6c2063616e206368616e6765206f776e20666565000060448201526064016040518091039062000a1762002748565b50505b6001600160a01b038216600090815260d16020526040902060009062000a3f6200280c565b906101000a900460ff161515600115151462000aac5760405162461bcd60e51b815260206004820152601e60248201527f737570706c6965642061646472657373206973206e6f74206120706f6f6c000060448201526064016040518091039062000aa962002748565b50505b6001600160a01b038216600090815260d46020526040902062000ace6200280c565b811062000b235760405162461bcd60e51b81526020600482015260146024820152730dac2dcc2cecae440cccaca40e8dede40d0d2ced60631b60448201526064016040518091039062000b2062002748565b50505b62000b455a62000b32620027b5565b8260d362000b3f6200280c565b62001cbf565b5050565b600060cb62000b576200280c565b906101000a90046001600160a01b031681565b600060cd8062000b796200280c565b91505090565b600060cc62000b576200280c565b60008060ce62000b9c6200280c565b906101000a90046001600160a01b0316905090565b62000bbb62001d81565b6001600160a01b03166000606562000bd26200280c565b906101000a90046001600160a01b03166001600160a01b03161462000c375760405162461bcd60e51b81526020600482018190526024820152600080516020620032d483398151915260448201526064016040518091039062000c3462002748565b50505b62000c428162001d8e565b50565b600062000c53838362001d9c565b90505b92915050565b600060da62000c6a6200280c565b905090565b60d16020528060005260406000206000915062000c8b6200280c565b906101000a900460ff1681565b62000ca262001d81565b6001600160a01b03166000606562000cb96200280c565b906101000a90046001600160a01b03166001600160a01b03161462000d1e5760405162461bcd60e51b81526020600482018190526024820152600080516020620032d483398151915260448201526064016040518091039062000d1b62002748565b50505b600080606562000d2d6200280c565b906101000a90046001600160a01b03166001600160a01b03167f8be0079c531659141344cd1fd0a4f28419497f9722a3daafe3b4186f6b6457e060405160405180910390a36000606560018162000d836200280c565b816001600160a01b0302191690836001600160a01b031602179062000da762002859565b505050565b62000db662001d81565b6001600160a01b03166000606562000dcd6200280c565b906101000a90046001600160a01b03166001600160a01b03161462000e325760405162461bcd60e51b81526020600482018190526024820152600080516020620032d483398151915260448201526064016040518091039062000e2f62002748565b50505b62000b45828262001f58565b62000e4862001d81565b6001600160a01b03166000606562000e5f6200280c565b906101000a90046001600160a01b03166001600160a01b03161462000ec45760405162461bcd60e51b81526020600482018190526024820152600080516020620032d483398151915260448201526064016040518091039062000ec162002748565b50505b81609760018162000ed46200280c565b816001600160a01b0302191690836001600160a01b031602179062000ef862002859565b50505080609860006101000a8162000f0f6200280c565b816001600160a01b0302191690836001600160a01b031602179062000f3362002859565b5050505050565b600080606562000b9c6200280c565b60008060d262000f586200280c565b60d362000f646200280c565b915091509091565b60cd818162000f7a6200280c565b811062000f8357fe5b906000526020600020016000915062000b576200280c565b62000fa562001d81565b6001600160a01b03166000606562000fbc6200280c565b906101000a90046001600160a01b03166001600160a01b031614620010215760405162461bcd60e51b81526020600482018190526024820152600080516020620032d48339815191526044820152606401604051809103906200101e62002748565b50505b62000c42816200200c565b60008060cf6200103b6200280c565b60d062000f646200280c565b6200105162001d81565b6001600160a01b031660006065620010686200280c565b906101000a90046001600160a01b03166001600160a01b031614620010cd5760405162461bcd60e51b81526020600482018190526024820152600080516020620032d4833981519152604482015260640160405180910390620010ca62002748565b50505b62000b45828262002083565b600060d962000c6a6200280c565b620010f162001d81565b6001600160a01b031660006065620011086200280c565b906101000a90046001600160a01b03166001600160a01b0316146200116d5760405162461bcd60e51b81526020600482018190526024820152600080516020620032d48339815191526044820152606401604051809103906200116a62002748565b50505b62000c428162002137565b600060605a63996d79a5598160e01b8152602081600483336000905af158601d01573d60011458600c01573d6000803e3d621234565260ea61109c528051925060005b6040811015620011d457600082820152602001620011bb565b505050878760cc600090620011e86200280c565b906101000a90046001600160a01b03168660405160240180866001600160a01b03168152602001856001600160a01b0316815260200180602001846001600160a01b0316815260200180602001838103835286818151815260200191508051906020019080838360005b838110156200126c57808201518382015260200162001252565b50505050905090810190601f1680156200129a5780820380516001836020036101000a031916815260200191505b50838103825284818151815260200191508051906020019060200280838360005b83811015620012d5578082015183820152602001620012bb565b50505050905001975050505050505050604051601f1981830301815260409190915263eb94917d60e01b6020820180516001600160e01b03169091179052905060006200132482600162000c45565b905060605a63996d79a5598160e01b8152602081600483336000905af158601d01573d60011458600c01573d6000803e3d621234565260ea61109c528051925060005b6040811015620013805760008282015260200162001367565b5050508a8a8a8a8660405160240180876001600160a01b031681526020018615158152602001856001600160a01b031681526020018060200180602001846001600160a01b03168152602001838103835286818151815260200191508051906020019080838360005b8381101562001403578082015183820152602001620013e9565b50505050905090810190601f168015620014315780820380516001836020036101000a031916815260200191505b50838103825285818151815260200191508051906020019080838360005b83811015620014695780820151838201526020016200144f565b50505050905090810190601f168015620014975780820380516001836020036101000a031916815260200191505b5098505050505050505050604051601f198183030181526040919091526302ce12f960e51b6020820180516001600160e01b0316909117905290506000620014e182600262000c45565b90508060cd80600181620014f46200280c565b0180826200150162002859565b505060009283526000190191602091502001600181620015206200280c565b816001600160a01b0302191690836001600160a01b03160217906200154462002859565b5050506001600160a01b038116600090815260d1602052600190604090206001816200156f6200280c565b8160ff021916908315150217906200158662002859565b5050506200159b818860d362000b3f6200280c565b7f73a0638fe578fc759744633aa170a433061ca2cc1bb855d116c506e04a29901f818c8a8c8e5a620015cc620028a8565b8d60d3620015d96200280c565b60405180896001600160a01b0316815260200188151581526020018060200180602001876001600160a01b03168152602001868152602001858152602001848152602001838103835289818151815260200191508051906020019080838360005b83811015620016545780820151838201526020016200163a565b50505050905090810190601f168015620016825780820380516001836020036101000a031916815260200191505b50838103825288818151815260200191508051906020019080838360005b83811015620016ba578082015183820152602001620016a0565b50505050905090810190601f168015620016e85780820380516001836020036101000a031916815260200191505b509a505050505050505050505060405180910390a19a9950505050505050505050565b6001600160a01b038116600090815260d16020528060408120600090620017316200280c565b906101000a900460ff16151560011515146200179e5760405162461bcd60e51b815260206004820152601e60248201527f737570706c6965642061646472657373206973206e6f74206120706f6f6c00006044820152606401604051809103906200179b62002748565b50505b6001600160a01b038316600090815260d460205260409020620017c06200280c565b6001600160a01b038416600090815260d560205260409020620017e26200280c565b91509150915091565b60d46020528060005260406000209050620018056200280c565b81565b60d56020528060005260406000209050620018056200280c565b60008060d6620018316200280c565b60d762000f646200280c565b60008160ff16600114156200187257600060986200185a6200280c565b906101000a90046001600160a01b0316905062001880565b600060976200185a6200280c565b919050565b600060d862000c6a6200280c565b6200189d62001d81565b6001600160a01b031660006065620018b46200280c565b906101000a90046001600160a01b03166001600160a01b031614620019195760405162461bcd60e51b81526020600482018190526024820152600080516020620032d48339815191526044820152606401604051809103906200191662002748565b50505b62000c42816200217e565b6200192e62001d81565b6001600160a01b031660006065620019456200280c565b906101000a90046001600160a01b03166001600160a01b031614620019aa5760405162461bcd60e51b81526020600482018190526024820152600080516020620032d4833981519152604482015260640160405180910390620019a762002748565b50505b6001600160a01b038116620019fc5760405162461bcd60e51b8152600401808060200182810382526026815260200180620032ae6026913960400191505060405180910390620019f962002748565b50505b6001600160a01b0381166000606562001a146200280c565b906101000a90046001600160a01b03166001600160a01b03167f8be0079c531659141344cd1fd0a4f28419497f9722a3daafe3b4186f6b6457e060405160405180910390a380606560018162001a696200280c565b816001600160a01b0302191690836001600160a01b031602179062001a8d62002859565b50505050565b6001600062001aa16200280c565b906101000a900460ff168062001abc575062001abc620021c5565b8062001adc575060008062001ad06200280c565b906101000a900460ff16155b62001b245760405162461bcd60e51b815260040180806020018281038252602e815260200180620032f4602e91396040019150506040518091039062001b2162002748565b50505b600060018162001b336200280c565b906101000a900460ff16159050801562001ba257600160006101008162001b596200280c565b8160ff0219169083151502179062001b7062002859565b50505060016000806101000a8162001b876200280c565b8160ff0219169083151502179062001b9e62002859565b5050505b62001bae84846200223a565b8460cb60018162001bbe6200280c565b816001600160a01b0302191690836001600160a01b031602179062001be262002859565b5050508460cc60006101000a8162001bf96200280c565b816001600160a01b0302191690836001600160a01b031602179062001c1d62002859565b50505062001c2b826200200c565b62001c3b61138861271062002244565b62001c49600a606462001f58565b62001c5860056103e862002083565b62001c666201518062002137565b62001c72600a6200217e565b62001c866544484544474560d01b62001d8e565b801562000f33576000806101008162001c9e6200280c565b8160ff0219169083151502179062001cb562002859565b5050505050505050565b80821115801562001cdb575060d262001cd76200280c565b8211155b62001d2a5760405162461bcd60e51b815260206004820152601060248201526f34b73b30b634b210333930b1ba34b7b760811b60448201526064016040518091039062001d2762002748565b50505b6001600160a01b038316600090815260d4602052829060409020819062001d5062002859565b5050506001600160a01b038316600090815260d5602052819060409020819062001d7962002859565b505050505050565b60005a62000c6a620027b5565b808060da62001a8d62002859565b60008062001da9620022c4565b90507efffc2da0b561cae30d9826d37709e9421c4725faebc226cbbb7ef5fc5e7349816040516001600160a01b03909116815260200160405180910390a1806001600160a01b031663e74a474a5a63996d79a5598160e01b8152602081600483336000905af158601d01573d60011458600c01573d6000803e3d621234565260ea61109c528051925060005b604081101562001e4e5760008282015260200162001e35565b50505086866040518463ffffffff1660e01b815260040180846001600160a01b03168152602001806020018360ff168152602001828103825284818151815260200191508051906020019080838360005b8381101562001eb957808201518382015260200162001e9f565b50505050905090810190601f16801562001ee75780820380516001836020036101000a031916815260200191505b509450505050506000604051808303816000878062001f05620028ef565b15801562001f1d5760008062001f1a62002748565b50505b505a62001f296200293c565b50505050505015801562001f4c573d6000803e3d600062001f4962002748565b50505b50929695505050505050565b8082111562001fab5760405162461bcd60e51b815260206004820152601060248201526f34b73b30b634b210333930b1ba34b7b760811b60448201526064016040518091039062001fa862002748565b50505b818060cf62001fb962002859565b5050508060d0819062001fcb62002859565b5050507fb10da2958bf5ec1bff3164ff753a09e0460ed44d3abf73e79b817b500ed0f2f1828260405191825260208201526040908101905180910390a15050565b8060ce6001816200201c6200280c565b816001600160a01b0302191690836001600160a01b03160217906200204062002859565b5050507ff1034ad6b4d45dc33a4142b9c51c2b7f89bf4a410696e426cc0f3224869e0aca816040516001600160a01b03909116815260200160405180910390a150565b80821115620020d65760405162461bcd60e51b815260206004820152601060248201526f34b73b30b634b210333930b1ba34b7b760811b604482015260640160405180910390620020d362002748565b50505b818060d6620020e462002859565b5050508060d78190620020f662002859565b5050507fc84081a9c94a2300cdec20e3d60952b84e96e11edf24cb65ba26b7f8455f29db828260405191825260208201526040908101905180910390a15050565b808060d86200214562002859565b5050507f3c6bcf0eff145e812fd913d4220f52c2a428932b0d2c196ab56e3e005ae2ace48160405190815260200160405180910390a150565b808060d96200218c62002859565b5050507f0cd8fcb5e08d7632af461f0ad793e5c63dc0d7595c301f5880650175e37a87488160405190815260200160405180910390a150565b6000805a63996d79a5598160e01b8152602081600483336000905af158601d01573d60011458600c01573d6000803e3d621234565260ea61109c528051925060005b6040811015620022205760008282015260200162002207565b505050905060008162002232620028ef565b159250505090565b62000ec46200232b565b60008111620022a45760405162461bcd60e51b815260206004820152601c60248201527f64656e6f6d696e61746f72206d75737420626520706f73697469766500000000604482015260640160405180910390620022a162002748565b50505b818060d2620022b262002859565b5050508060d3819062000f3362002859565b6000806060604051620022da6020820162002a32565b601f1982820381018352601f90910116604052905080516020820160006200230162002a40565b505091508162002310620028ef565b62002325576000806200232262002748565b50505b50905090565b60016000620023396200280c565b906101000a900460ff168062002354575062002354620021c5565b80620023745750600080620023686200280c565b906101000a900460ff16155b620023bc5760405162461bcd60e51b815260040180806020018281038252602e815260200180620032f4602e913960400191505060405180910390620023b962002748565b50505b6000600181620023cb6200280c565b906101000a900460ff1615905080156200243a576001600061010081620023f16200280c565b8160ff021916908315150217906200240862002859565b50505060016000806101000a816200241f6200280c565b8160ff021916908315150217906200243662002859565b5050505b620024446200247d565b6200244e620025a3565b801562000c425760008061010081620024666200280c565b8160ff0219169083151502179062001a8d62002859565b600160006200248b6200280c565b906101000a900460ff1680620024a65750620024a6620021c5565b80620024c65750600080620024ba6200280c565b906101000a900460ff16155b6200250e5760405162461bcd60e51b815260040180806020018281038252602e815260200180620032f4602e9139604001915050604051809103906200250b62002748565b50505b60006001816200251d6200280c565b906101000a900460ff1615905080156200244e576001600061010081620025436200280c565b8160ff021916908315150217906200255a62002859565b50505060016000806101000a81620025716200280c565b8160ff021916908315150217906200258862002859565b505050801562000c425760008061010081620024666200280c565b60016000620025b16200280c565b906101000a900460ff1680620025cc5750620025cc620021c5565b80620025ec5750600080620025e06200280c565b906101000a900460ff16155b620026345760405162461bcd60e51b815260040180806020018281038252602e815260200180620032f4602e9139604001915050604051809103906200263162002748565b50505b6000600181620026436200280c565b906101000a900460ff161590508015620026b2576001600061010081620026696200280c565b8160ff021916908315150217906200268062002859565b50505060016000806101000a81620026976200280c565b8160ff02191690831515021790620026ae62002859565b5050505b6000620026be62001d81565b9050806065600181620026d06200280c565b816001600160a01b0302191690836001600160a01b0316021790620026f462002859565b5050506001600160a01b03811660007f8be0079c531659141344cd1fd0a4f28419497f9722a3daafe3b4186f6b6457e060405160405180910390a350801562000c425760008061010081620024666200280c565b632a2a7adb598160e01b8152600481016020815285602082015260005b868110156200278257808601518282016040015260200162002765565b506020828760640184336000905af158601d01573d60011458600c01573d6000803e3d621234565260ea61109c52505050565b6373509064598160e01b8152602081600483336000905af158601d01573d60011458600c01573d6000803e3d621234565260ea61109c528051935060005b604081101562000da757600082820152602001620027f3565b6303daa959598160e01b8152836004820152602081602483336000905af158601d01573d60011458600c01573d6000803e3d621234565260ea61109c5280516000825293506020620027f3565b6322bd64c0598160e01b8152836004820152846024820152600081604483336000905af158601d01573d60011458600c01573d6000803e3d621234565260ea61109c52600081526020620027f3565b63bdbf8c36598160e01b8152602081600483336000905af158601d01573d60011458600c01573d6000803e3d621234565260ea61109c5280516000825293506020620027f3565b638435035b598160e01b8152836004820152602081602483336000905af158601d01573d60011458600c01573d6000803e3d621234565260ea61109c5280516000825293506020620027f3565b6385979f76598160e01b815262002970565b808083111562000c56575090919050565b808083101562000c56575090919050565b836004820152846024820152606060448201528760648201526084810160005b89811015620029aa57808901518282015260200162002990565b506060828a60a40184336000905af158601d01573d60011458600c01573d6000803e3d621234565260ea61109c52815160408301513d6000853e8c8c82606087013350600060045af1505962002a018e3d6200295f565b8d0162002a0f81876200294e565b5b8281101562002a26576000815260200162002a10565b50929d50505050505050565b6107e88062002ac683390190565b6314aa2ff7598160e01b8152600481016020815286602082015260005b8781101562002a7a57808701518282016040015260200162002a5d565b506020828860640184336000905af158601d01573d60011458600c01573d6000803e3d621234565260ea61109c528151965059825b8181101562000f33576000815260200162002aaf56fe60806040523480156100195760008061001661001f565b50505b5061008a565b632a2a7adb598160e01b8152600481016020815285602082015260005b8681101561005757808601518282016040015260200161003c565b506020828760640184336000905af158601d01573d60011458600c01573d6000803e3d621234565260ea61109c52505050565b61074f806100996000396000f3fe6080604052600436106100225760003560e01c8063e74a474a1461003957610031565b366100315761002f610117565b005b61002f610117565b61002f60048036036060811015610058576000806100556104b5565b50505b6001600160a01b03823516919081019060408101602082013564010000000081111561008c576000806100896104b5565b50505b8201836020820111156100a7576000806100a46104b5565b50505b803590602001918460018302840111640100000000831117156100d2576000806100cf6104b5565b50505b91908080601f01602080910402602001604051908101604052818152929190602084018383808284376000920191909152509295505050903560ff1691506101319050565b61011f61012f565b61012f61012a6102c3565b6103c4565b565b600061013b6102c3565b6001600160a01b03161461018e5760405162461bcd60e51b815260206004820152600d60248201526c496d706c206e6f74207a65726f60981b60448201526064016040518091039061018b6104b5565b50505b61019783610401565b6101a081610479565b6000825111156102be5760006101b46102c3565b6001600160a01b0316836040518082805190602001908083835b602083106101ed5780518252601f1990920191602091820191016101ce565b6001836020036101000a038019825116818451168082178552505050505050905001915050600060405180830381855a610225610520565b50505050509150503d8060008114610259576040513d603f01601f191681016040523d815291503d6000602084013e61025e565b606091505b50509050806102bc5760405162461bcd60e51b815260206004820152601a60248201527f496d706c656d656e746174696f6e20696e6974206661696c65640000000000006044820152606401604051809103906102b96104b5565b50505b505b505050565b6000807f360894a13ba1a3210667c828492db98dca3e2076cc3735a920a3ca505d382bbc806102f061060d565b91506001600160a01b03821661030b576000925050506103c1565b816001600160a01b031663ecef89d5610322610488565b6040516001600160e01b031960e084901b16815260ff90911660048201526024016020604051808303818680610356610668565b15801561036b576000806103686104b5565b50505b505a6103756106b4565b5050505050158015610394573d6000803e3d60006103916104b5565b50505b505050506040513d60208110156103b3576000806103b06104b5565b50505b810190808051955050505050505b90565b3660008037600080366000845a6103d9610520565b50505050503d6000803e8080156103ef573d6000f35b3d60006103fa6104b5565b5050505050565b61040a816104a0565b61044e5760405162461bcd60e51b815260040180806020018281038252603b815260200180610714603b91396040019150506040518091039061044b6104b5565b50505b7f360894a13ba1a3210667c828492db98dca3e2076cc3735a920a3ca505d382bbc81816102bc6106c5565b600160fc1b81816102bc6106c5565b600080600160fc1b8061049961060d565b9250505090565b600080826104ac610668565b15159392505050565b632a2a7adb598160e01b8152600481016020815285602082015260005b868110156104ed5780860151828201604001526020016104d2565b506020828760640184336000905af158601d01573d60011458600c01573d6000803e3d621234565260ea61109c52505050565b63ffe73914598160e01b8152610553565b808083111561053d5750815b92915050565b808083101561053d575090919050565b836004820152846024820152606060448201528660648201526084810160005b8881101561058b578088015182820152602001610573565b506060828960a40184336000905af158601d01573d60011458600c01573d6000803e3d621234565260ea61109c52815160408301513d6000853e8b8b82606087013350600060045af150596105e08d3d610543565b8c016105ec8187610531565b5b8281101561060157600081526020016105ed565b50929c50505050505050565b6303daa959598160e01b8152836004820152602081602483336000905af158601d01573d60011458600c01573d6000803e3d621234565260ea61109c528051935060005b60408110156102be57600082820152602001610651565b638435035b598160e01b8152836004820152602081602483336000905af158601d01573d60011458600c01573d6000803e3d621234565260ea61109c5280516000825293506020610651565b638540661f598160e01b8152610553565b6322bd64c0598160e01b8152836004820152846024820152600081604483336000905af158601d01573d60011458600c01573d6000803e3d621234565260ea61109c5260008152602061065156fe43616e6e6f742073657420612070726f787920696d706c656d656e746174696f6e20746f2061206e6f6e2d636f6e747261637420616464726573734f776e61626c653a206e6577206f776e657220697320746865207a65726f20616464726573734f776e61626c653a2063616c6c6572206973206e6f7420746865206f776e6572436f6e747261637420696e7374616e63652068617320616c7265616479206265656e20696e697469616c697a6564",
  "linkReferences": {},
  "deployedLinkReferences": {}
}