{
  "_format": "hh-sol-artifact-1",
  "contractName": "PoolFactory",
  "sourceName": "contracts/PoolFactory.sol",
  "abi": [
    {
      "anonymous": false,
      "inputs": [
        {
          "indexed": true,
          "internalType": "address",
          "name": "asset",
          "type": "address"
        }
      ],
      "name": "AddedValidAsset",
      "type": "event"
    },
    {
      "anonymous": false,
      "inputs": [
        {
          "indexed": false,
          "internalType": "address",
          "name": "dao",
          "type": "address"
        }
      ],
      "name": "DaoAddressSet",
      "type": "event"
    },
    {
      "anonymous": false,
      "inputs": [
        {
          "indexed": false,
          "internalType": "uint256",
          "name": "numerator",
          "type": "uint256"
        },
        {
          "indexed": false,
          "internalType": "uint256",
          "name": "denominator",
          "type": "uint256"
        }
      ],
      "name": "DaoFeeSet",
      "type": "event"
    },
    {
      "anonymous": false,
      "inputs": [
        {
          "indexed": false,
          "internalType": "uint256",
          "name": "cooldown",
          "type": "uint256"
        }
      ],
      "name": "ExitCooldownSet",
      "type": "event"
    },
    {
      "anonymous": false,
      "inputs": [
        {
          "indexed": false,
          "internalType": "uint256",
          "name": "numerator",
          "type": "uint256"
        },
        {
          "indexed": false,
          "internalType": "uint256",
          "name": "denominator",
          "type": "uint256"
        }
      ],
      "name": "ExitFeeSet",
      "type": "event"
    },
    {
      "anonymous": false,
      "inputs": [
        {
          "indexed": false,
          "internalType": "address",
          "name": "fundAddress",
          "type": "address"
        },
        {
          "indexed": false,
          "internalType": "bool",
          "name": "isPoolPrivate",
          "type": "bool"
        },
        {
          "indexed": false,
          "internalType": "string",
          "name": "fundName",
          "type": "string"
        },
        {
          "indexed": false,
          "internalType": "string",
          "name": "managerName",
          "type": "string"
        },
        {
          "indexed": false,
          "internalType": "address",
          "name": "manager",
          "type": "address"
        },
        {
          "indexed": false,
          "internalType": "uint256",
          "name": "time",
          "type": "uint256"
        },
        {
          "indexed": false,
          "internalType": "uint256",
          "name": "managerFeeNumerator",
          "type": "uint256"
        },
        {
          "indexed": false,
          "internalType": "uint256",
          "name": "managerFeeDenominator",
          "type": "uint256"
        }
      ],
      "name": "FundCreated",
      "type": "event"
    },
    {
      "anonymous": false,
      "inputs": [
        {
          "indexed": true,
          "internalType": "address",
          "name": "manager",
          "type": "address"
        },
        {
          "indexed": true,
          "internalType": "address",
          "name": "pool",
          "type": "address"
        }
      ],
      "name": "LogUpgrade",
      "type": "event"
    },
    {
      "anonymous": false,
      "inputs": [
        {
          "indexed": false,
          "internalType": "uint256",
          "name": "count",
          "type": "uint256"
        }
      ],
      "name": "MaximumSupportedAssetCountSet",
      "type": "event"
    },
    {
      "anonymous": false,
      "inputs": [
        {
          "indexed": true,
          "internalType": "address",
          "name": "previousOwner",
          "type": "address"
        },
        {
          "indexed": true,
          "internalType": "address",
          "name": "newOwner",
          "type": "address"
        }
      ],
      "name": "OwnershipTransferred",
      "type": "event"
    },
    {
      "anonymous": false,
      "inputs": [
        {
          "indexed": false,
          "internalType": "address",
          "name": "proxy",
          "type": "address"
        }
      ],
      "name": "ProxyCreated",
      "type": "event"
    },
    {
      "anonymous": false,
      "inputs": [
        {
          "indexed": true,
          "internalType": "address",
          "name": "asset",
          "type": "address"
        }
      ],
      "name": "RemovedValidAsset",
      "type": "event"
    },
    {
      "inputs": [
        {
          "internalType": "address",
          "name": "asset",
          "type": "address"
        },
        {
          "internalType": "address",
          "name": "aggregator",
          "type": "address"
        }
      ],
      "name": "addValidAsset",
      "outputs": [],
      "stateMutability": "nonpayable",
      "type": "function"
    },
    {
      "inputs": [
        {
          "internalType": "bool",
          "name": "_privatePool",
          "type": "bool"
        },
        {
          "internalType": "address",
          "name": "_manager",
          "type": "address"
        },
        {
          "internalType": "string",
          "name": "_managerName",
          "type": "string"
        },
        {
          "internalType": "string",
          "name": "_fundName",
          "type": "string"
        },
        {
          "internalType": "string",
          "name": "_fundSymbol",
          "type": "string"
        },
        {
          "internalType": "uint256",
          "name": "_managerFeeNumerator",
          "type": "uint256"
        },
        {
          "components": [
            {
              "internalType": "address",
              "name": "asset",
              "type": "address"
            },
            {
              "internalType": "bool",
              "name": "isDeposit",
              "type": "bool"
            }
          ],
          "internalType": "struct IPoolManagerLogic.Asset[]",
          "name": "_supportedAssets",
          "type": "tuple[]"
        }
      ],
      "name": "createFund",
      "outputs": [
        {
          "internalType": "address",
          "name": "",
          "type": "address"
        }
      ],
      "stateMutability": "nonpayable",
      "type": "function"
    },
    {
      "inputs": [
        {
          "internalType": "bytes",
          "name": "_data",
          "type": "bytes"
        },
        {
          "internalType": "uint8",
          "name": "_proxyType",
          "type": "uint8"
        }
      ],
      "name": "deploy",
      "outputs": [
        {
          "internalType": "address",
          "name": "",
          "type": "address"
        }
      ],
      "stateMutability": "nonpayable",
      "type": "function"
    },
    {
      "inputs": [
        {
          "internalType": "uint256",
          "name": "",
          "type": "uint256"
        }
      ],
      "name": "deployedFunds",
      "outputs": [
        {
          "internalType": "address",
          "name": "",
          "type": "address"
        }
      ],
      "stateMutability": "view",
      "type": "function"
    },
    {
      "inputs": [],
      "name": "deployedFundsLength",
      "outputs": [
        {
          "internalType": "uint256",
          "name": "",
          "type": "uint256"
        }
      ],
      "stateMutability": "view",
      "type": "function"
    },
    {
      "inputs": [],
      "name": "disableChainlink",
      "outputs": [],
      "stateMutability": "nonpayable",
      "type": "function"
    },
    {
      "inputs": [],
      "name": "enableChainlink",
      "outputs": [],
      "stateMutability": "nonpayable",
      "type": "function"
    },
    {
      "inputs": [],
      "name": "getDaoAddress",
      "outputs": [
        {
          "internalType": "address",
          "name": "",
          "type": "address"
        }
      ],
      "stateMutability": "view",
      "type": "function"
    },
    {
      "inputs": [],
      "name": "getDaoFee",
      "outputs": [
        {
          "internalType": "uint256",
          "name": "",
          "type": "uint256"
        },
        {
          "internalType": "uint256",
          "name": "",
          "type": "uint256"
        }
      ],
      "stateMutability": "view",
      "type": "function"
    },
    {
      "inputs": [],
      "name": "getExitCooldown",
      "outputs": [
        {
          "internalType": "uint256",
          "name": "",
          "type": "uint256"
        }
      ],
      "stateMutability": "view",
      "type": "function"
    },
    {
      "inputs": [
        {
          "internalType": "address",
          "name": "extContract",
          "type": "address"
        }
      ],
      "name": "getGuard",
      "outputs": [
        {
          "internalType": "address",
          "name": "",
          "type": "address"
        }
      ],
      "stateMutability": "view",
      "type": "function"
    },
    {
      "inputs": [
        {
          "internalType": "uint8",
          "name": "_proxyType",
          "type": "uint8"
        }
      ],
      "name": "getLogic",
      "outputs": [
        {
          "internalType": "address",
          "name": "",
          "type": "address"
        }
      ],
      "stateMutability": "view",
      "type": "function"
    },
    {
      "inputs": [],
      "name": "getManagerFeeNumeratorChangeDelay",
      "outputs": [
        {
          "internalType": "uint256",
          "name": "",
          "type": "uint256"
        }
      ],
      "stateMutability": "view",
      "type": "function"
    },
    {
      "inputs": [],
      "name": "getMaximumManagerFee",
      "outputs": [
        {
          "internalType": "uint256",
          "name": "",
          "type": "uint256"
        },
        {
          "internalType": "uint256",
          "name": "",
          "type": "uint256"
        }
      ],
      "stateMutability": "view",
      "type": "function"
    },
    {
      "inputs": [],
      "name": "getMaximumManagerFeeNumeratorChange",
      "outputs": [
        {
          "internalType": "uint256",
          "name": "",
          "type": "uint256"
        }
      ],
      "stateMutability": "view",
      "type": "function"
    },
    {
      "inputs": [],
      "name": "getMaximumSupportedAssetCount",
      "outputs": [
        {
          "internalType": "uint256",
          "name": "",
          "type": "uint256"
        }
      ],
      "stateMutability": "view",
      "type": "function"
    },
    {
      "inputs": [
        {
          "internalType": "address",
          "name": "pool",
          "type": "address"
        }
      ],
      "name": "getPoolManagerFee",
      "outputs": [
        {
          "internalType": "uint256",
          "name": "",
          "type": "uint256"
        },
        {
          "internalType": "uint256",
          "name": "",
          "type": "uint256"
        }
      ],
      "stateMutability": "view",
      "type": "function"
    },
    {
      "inputs": [],
      "name": "getTrackingCode",
      "outputs": [
        {
          "internalType": "bytes32",
          "name": "",
          "type": "bytes32"
        }
      ],
      "stateMutability": "view",
      "type": "function"
    },
    {
      "inputs": [
        {
          "internalType": "address",
          "name": "_asset",
          "type": "address"
        }
      ],
      "name": "getUSDPrice",
      "outputs": [
        {
          "internalType": "uint256",
          "name": "",
          "type": "uint256"
        }
      ],
      "stateMutability": "view",
      "type": "function"
    },
    {
      "inputs": [
        {
          "internalType": "address",
          "name": "_poolLogic",
          "type": "address"
        },
        {
          "internalType": "address",
          "name": "_managerLogic",
          "type": "address"
        },
        {
          "internalType": "address",
          "name": "daoAddress",
          "type": "address"
        },
        {
          "internalType": "address[]",
          "name": "_validAssets",
          "type": "address[]"
        },
        {
          "internalType": "address[]",
          "name": "_aggregators",
          "type": "address[]"
        }
      ],
      "name": "initialize",
      "outputs": [],
      "stateMutability": "nonpayable",
      "type": "function"
    },
    {
      "inputs": [
        {
          "internalType": "address",
          "name": "",
          "type": "address"
        }
      ],
      "name": "isPool",
      "outputs": [
        {
          "internalType": "bool",
          "name": "",
          "type": "bool"
        }
      ],
      "stateMutability": "view",
      "type": "function"
    },
    {
      "inputs": [
        {
          "internalType": "address",
          "name": "",
          "type": "address"
        }
      ],
      "name": "isPoolManager",
      "outputs": [
        {
          "internalType": "bool",
          "name": "",
          "type": "bool"
        }
      ],
      "stateMutability": "view",
      "type": "function"
    },
    {
      "inputs": [
        {
          "internalType": "address",
          "name": "asset",
          "type": "address"
        }
      ],
      "name": "isValidAsset",
      "outputs": [
        {
          "internalType": "bool",
          "name": "",
          "type": "bool"
        }
      ],
      "stateMutability": "view",
      "type": "function"
    },
    {
      "inputs": [],
      "name": "managerFeeNumeratorChangeDelay",
      "outputs": [
        {
          "internalType": "uint256",
          "name": "",
          "type": "uint256"
        }
      ],
      "stateMutability": "view",
      "type": "function"
    },
    {
      "inputs": [],
      "name": "maximumManagerFeeNumeratorChange",
      "outputs": [
        {
          "internalType": "uint256",
          "name": "",
          "type": "uint256"
        }
      ],
      "stateMutability": "view",
      "type": "function"
    },
    {
      "inputs": [],
      "name": "owner",
      "outputs": [
        {
          "internalType": "address",
          "name": "",
          "type": "address"
        }
      ],
      "stateMutability": "view",
      "type": "function"
    },
    {
      "inputs": [
        {
          "internalType": "address",
          "name": "",
          "type": "address"
        }
      ],
      "name": "poolManagerFeeDenominator",
      "outputs": [
        {
          "internalType": "uint256",
          "name": "",
          "type": "uint256"
        }
      ],
      "stateMutability": "view",
      "type": "function"
    },
    {
      "inputs": [
        {
          "internalType": "address",
          "name": "",
          "type": "address"
        }
      ],
      "name": "poolManagerFeeNumerator",
      "outputs": [
        {
          "internalType": "uint256",
          "name": "",
          "type": "uint256"
        }
      ],
      "stateMutability": "view",
      "type": "function"
    },
    {
      "inputs": [],
      "name": "poolStorageVersion",
      "outputs": [
        {
          "internalType": "uint256",
          "name": "",
          "type": "uint256"
        }
      ],
      "stateMutability": "view",
      "type": "function"
    },
    {
      "inputs": [
        {
          "internalType": "address",
          "name": "",
          "type": "address"
        }
      ],
      "name": "poolVersion",
      "outputs": [
        {
          "internalType": "uint256",
          "name": "",
          "type": "uint256"
        }
      ],
      "stateMutability": "view",
      "type": "function"
    },
    {
      "inputs": [
        {
          "internalType": "address",
          "name": "asset",
          "type": "address"
        }
      ],
      "name": "removeValidAsset",
      "outputs": [],
      "stateMutability": "nonpayable",
      "type": "function"
    },
    {
      "inputs": [],
      "name": "renounceOwnership",
      "outputs": [],
      "stateMutability": "nonpayable",
      "type": "function"
    },
    {
      "inputs": [
        {
          "internalType": "address",
          "name": "daoAddress",
          "type": "address"
        }
      ],
      "name": "setDaoAddress",
      "outputs": [],
      "stateMutability": "nonpayable",
      "type": "function"
    },
    {
      "inputs": [
        {
          "internalType": "uint256",
          "name": "numerator",
          "type": "uint256"
        },
        {
          "internalType": "uint256",
          "name": "denominator",
          "type": "uint256"
        }
      ],
      "name": "setDaoFee",
      "outputs": [],
      "stateMutability": "nonpayable",
      "type": "function"
    },
    {
      "inputs": [
        {
          "internalType": "uint256",
          "name": "cooldown",
          "type": "uint256"
        }
      ],
      "name": "setExitCooldown",
      "outputs": [],
      "stateMutability": "nonpayable",
      "type": "function"
    },
    {
      "inputs": [
        {
          "internalType": "address",
          "name": "extContract",
          "type": "address"
        },
        {
          "internalType": "address",
          "name": "guardAddress",
          "type": "address"
        }
      ],
      "name": "setGuard",
      "outputs": [],
      "stateMutability": "nonpayable",
      "type": "function"
    },
    {
      "inputs": [
        {
          "internalType": "address",
          "name": "_poolLogic",
          "type": "address"
        },
        {
          "internalType": "address",
          "name": "_poolManagerLogic",
          "type": "address"
        }
      ],
      "name": "setLogic",
      "outputs": [],
      "stateMutability": "nonpayable",
      "type": "function"
    },
    {
      "inputs": [
        {
          "internalType": "uint256",
          "name": "delay",
          "type": "uint256"
        }
      ],
      "name": "setManagerFeeNumeratorChangeDelay",
      "outputs": [],
      "stateMutability": "nonpayable",
      "type": "function"
    },
    {
      "inputs": [
        {
          "internalType": "uint256",
          "name": "amount",
          "type": "uint256"
        }
      ],
      "name": "setMaximumManagerFeeNumeratorChange",
      "outputs": [],
      "stateMutability": "nonpayable",
      "type": "function"
    },
    {
      "inputs": [
        {
          "internalType": "uint256",
          "name": "count",
          "type": "uint256"
        }
      ],
      "name": "setMaximumSupportedAssetCount",
      "outputs": [],
      "stateMutability": "nonpayable",
      "type": "function"
    },
    {
      "inputs": [
        {
          "internalType": "address",
          "name": "pool",
          "type": "address"
        },
        {
          "internalType": "uint256",
          "name": "numerator",
          "type": "uint256"
        }
      ],
      "name": "setPoolManagerFeeNumerator",
      "outputs": [],
      "stateMutability": "nonpayable",
      "type": "function"
    },
    {
      "inputs": [
        {
          "internalType": "bytes32",
          "name": "code",
          "type": "bytes32"
        }
      ],
      "name": "setTrackingCode",
      "outputs": [],
      "stateMutability": "nonpayable",
      "type": "function"
    },
    {
      "inputs": [
        {
          "internalType": "address",
          "name": "newOwner",
          "type": "address"
        }
      ],
      "name": "transferOwnership",
      "outputs": [],
      "stateMutability": "nonpayable",
      "type": "function"
    },
    {
      "inputs": [
        {
          "internalType": "uint256",
          "name": "startIndex",
          "type": "uint256"
        },
        {
          "internalType": "uint256",
          "name": "endIndex",
          "type": "uint256"
        },
        {
          "internalType": "uint256",
          "name": "sourceVersion",
          "type": "uint256"
        },
        {
          "internalType": "uint256",
          "name": "targetVersion",
          "type": "uint256"
        },
        {
          "internalType": "bytes",
          "name": "data",
          "type": "bytes"
        }
      ],
      "name": "upgradePoolBatch",
      "outputs": [],
      "stateMutability": "nonpayable",
      "type": "function"
    }
  ],
  "bytecode": "0x608060405234801561001057600080fd5b506129f3806100206000396000f3fe608060405234801561001057600080fd5b50600436106102745760003560e01c80638da5cb5b11610151578063bee37e52116100c3578063e60eb41211610087578063e60eb412146104e6578063e99c0fa6146104f9578063ebee461d1461050c578063ecef89d514610514578063eec16c4414610527578063f2fde38b1461053a57610274565b8063bee37e521461049d578063bfeaf71d146104b0578063cc435bf3146104b8578063d54e96d2146104cb578063dc76d254146104d357610274565b8063aa12ae4d11610115578063aa12ae4d14610441578063aa7d664e14610449578063b193a5f41461045c578063b28060011461046f578063b7a5452614610477578063bcb01f441461048a57610274565b80638da5cb5b146103f557806394d0d23b146103fd5780639a068bd6146104135780639a3cac6a146104265780639cada6e41461043957610274565b80635556ee55116101ea578063742a96cd116101ae578063742a96cd14610383578063771d1baf1461039657806378a86e3a146103a9578063790fcf9f146103bc578063808ae5fb146103cf5780638b2f0f4f146103e257610274565b80635556ee551461032d5780635b16ebb7146103405780635c9bfc2b146103605780637027ea6c14610368578063715018a61461037b57610274565b80631e666d131161023c5780631e666d13146102d15780631e8e8bca146102e4578063227773ee146102f75780634501b0881461030a57806345812ca51461031257806349f7c02d1461032557610274565b8063046b72c4146102795780630bf99bd91461028e5780630f6559c4146102ac57806310bf69dc146102b45780631d68702d146102bc575b600080fd5b61028c610287366004611c6d565b61054d565b005b61029661061c565b6040516102a391906120dc565b60405180910390f35b610296610622565b610296610628565b6102c461062e565b6040516102a39190611f4f565b61028c6102df366004611e05565b61063d565b61028c6102f2366004611d88565b610717565b61028c610305366004611ba3565b610758565b61029661078c565b6102c4610320366004611da0565b610792565b6102966107a7565b61029661033b366004611b88565b6107ad565b61035361034e366004611b88565b6107bf565b6040516102a391906120d1565b6102966107d4565b6102c4610376366004611b88565b6107da565b61028c6107fb565b61028c610391366004611ba3565b61087a565b61028c6103a4366004611de4565b61092f565b6102c46103b7366004611cb3565b61096e565b61028c6103ca366004611bd7565b610b8f565b61028c6103dd366004611ba3565b610d25565b6102966103f0366004611b88565b610d88565b6102c4610eba565b610405610ec9565b6040516102a39291906124f4565b6102c4610421366004611d88565b610ed3565b61028c610434366004611b88565b610efa565b610405610f38565b610296610f42565b61028c610457366004611d88565b610f48565b61035361046a366004611b88565b610f86565b61028c610f9b565b610405610485366004611b88565b610ff2565b61028c610498366004611d88565b61105b565b6102966104ab366004611b88565b611095565b6102966110a7565b6103536104c6366004611b88565b6110ad565b61028c6110cb565b61028c6104e1366004611b88565b611124565b6102966104f4366004611b88565b6111d3565b61028c610507366004611d88565b6111e5565b61029661121f565b6102c4610522366004611e98565b611225565b61028c610535366004611d88565b611257565b61028c610548366004611b88565b611295565b33600090815260d2602052604090205460ff16151560011461058a5760405162461bcd60e51b8152600401610581906120e5565b60405180910390fd5b6001600160a01b038216600090815260d1602052604090205460ff1615156001146105c75760405162461bcd60e51b8152600401610581906124bd565b60dd546001600160a01b038316600090815260d560205260409020546105ec9161134c565b81111561060b5760405162461bcd60e51b8152600401610581906121fe565b610618828260d454611371565b5050565b60cd5490565b60dc5481565b60dd5481565b60ce546001600160a01b031690565b6106456113c7565b6065546001600160a01b039081169116146106725760405162461bcd60e51b81526004016105819061237e565b848611158015610683575060cd5486105b8015610690575060cd5485105b6106ac5760405162461bcd60e51b815260040161058190612111565b855b85811161070e57600060cd82815481106106c457fe5b60009182526020808320909101546001600160a01b031680835260db90915260409091205490915086146106f85750610706565b610704818585886113cb565b505b6001016106ae565b50505050505050565b61071f6113c7565b6065546001600160a01b0390811691161461074c5760405162461bcd60e51b81526004016105819061237e565b610755816114c9565b50565b60ce546001600160a01b031633146107825760405162461bcd60e51b8152600401610581906121b6565b61061882826114ce565b60d75490565b600061079e83836114fc565b90505b92915050565b60da5490565b60db6020526000908152604090205481565b60d16020526000908152604090205460ff1681565b60dd5490565b6001600160a01b03808216600090815260df6020526040902054165b919050565b6108036113c7565b6065546001600160a01b039081169116146108305760405162461bcd60e51b81526004016105819061237e565b6065546040516000916001600160a01b0316907f8be0079c531659141344cd1fd0a4f28419497f9722a3daafe3b4186f6b6457e0908390a3606580546001600160a01b0319169055565b60ce546001600160a01b031633146108a45760405162461bcd60e51b8152600401610581906121b6565b6108ad826110ad565b156108ca5760405162461bcd60e51b815260040161058190612401565b6001600160a01b038216600090815260d860205260409020805460ff191660011790556108f782826115a9565b6040516001600160a01b038316907fd63c302652b86334fe4eb891e7a01e61e836496485d9394f2c95b4222006ae5090600090a25050565b6109376113c7565b6065546001600160a01b039081169116146109645760405162461bcd60e51b81526004016105819061237e565b61061882826115d7565b60006060308888856040516024016109899493929190611f63565b60408051601f198184030181529190526020810180516001600160e01b0316630a3df85f60e11b179052905060006109c2826001610792565b90506060308b8989856040516024016109df959493929190611fdf565b60408051601f198184030181529190526020810180516001600160e01b0316630ccb30c760e01b17905290506000610a18826002610792565b604051638e10153d60e01b81529091506001600160a01b03841690638e10153d90610a47908490600401611f4f565b602060405180830381600087803b158015610a6157600080fd5b505af1158015610a75573d6000803e3d6000fd5b505050506040513d601f19601f82011682018060405250810190610a999190611c97565b5060cd805460018082019092557f83978b4c69c48dd978ab43fe30f077615294f938fb7f936d9eb340e51ea7db2e0180546001600160a01b0319166001600160a01b03848116918217909255600081815260d160209081526040808320805460ff199081168817909155948916835260d28252808320805490951690951790935560dc5491815260db9092529190205560d454610b399082908990611371565b7f73a0638fe578fc759744633aa170a433061ca2cc1bb855d116c506e04a29901f818d8b8d8f428d60d454604051610b78989796959493929190612031565b60405180910390a19b9a5050505050505050505050565b600054610100900460ff1680610ba85750610ba861163f565b80610bb6575060005460ff16155b610bd25760405162461bcd60e51b8152600401610581906123b3565b600054610100900460ff16158015610bfd576000805460ff1961ff0019909116610100171660011790555b610c078686611645565b610c108461164d565b610c1e6113886127106116a3565b610c2a600a60646115d7565b610c36620151806116ce565b610c426224ea0061105b565b610c4d6103e86111e5565b610c57600a611703565b610c696544484544474560d01b6114c9565b60005b83518160ff161015610d0a57600160d86000868460ff1681518110610c8d57fe5b60200260200101516001600160a01b03166001600160a01b0316815260200190815260200160002060006101000a81548160ff021916908315150217905550610d02848260ff1681518110610cde57fe5b6020026020010151848360ff1681518110610cf557fe5b60200260200101516115a9565b600101610c6c565b508015610d1d576000805461ff00191690555b505050505050565b610d2d6113c7565b6065546001600160a01b03908116911614610d5a5760405162461bcd60e51b81526004016105819061237e565b609780546001600160a01b039384166001600160a01b03199182161790915560988054929093169116179055565b6001600160a01b03808216600090815260cc602052604081205490911680610dc25760405162461bcd60e51b81526004016105819061222c565b60cb5460009060ff16610e9357816001600160a01b031663feaf968c6040518163ffffffff1660e01b815260040160a06040518083038186803b158015610e0857600080fd5b505afa925050508015610e38575060408051601f3d908101601f19168201909252610e3591810190611eb3565b60015b610e545760405162461bcd60e51b81526004016105819061233a565b42610e628362015f9061134c565b1015610e805760405162461bcd60e51b81526004016105819061242f565b6000841315610e8d578395505b50505050505b60008111610eb35760405162461bcd60e51b81526004016105819061233a565b9392505050565b6065546001600160a01b031690565b60d35460d4549091565b60cd8181548110610ee057fe5b6000918252602090912001546001600160a01b0316905081565b610f026113c7565b6065546001600160a01b03908116911614610f2f5760405162461bcd60e51b81526004016105819061237e565b6107558161164d565b60cf5460d0549091565b60d95490565b610f506113c7565b6065546001600160a01b03908116911614610f7d5760405162461bcd60e51b81526004016105819061237e565b610755816116ce565b60d26020526000908152604090205460ff1681565b60ce546001600160a01b03163314610fc55760405162461bcd60e51b8152600401610581906121b6565b60cb5460ff1615610fe85760405162461bcd60e51b815260040161058190612477565b610ff0611738565b565b6001600160a01b038116600090815260d16020526040812054819060ff1615156001146110315760405162461bcd60e51b8152600401610581906124bd565b50506001600160a01b0316600090815260d5602090815260408083205460d6909252909120549091565b6110636113c7565b6065546001600160a01b039081169116146110905760405162461bcd60e51b81526004016105819061237e565b60de55565b60d56020526000908152604090205481565b60de5481565b6001600160a01b0316600090815260d8602052604090205460ff1690565b60ce546001600160a01b031633146110f55760405162461bcd60e51b8152600401610581906121b6565b60cb5460ff16151560011461111c5760405162461bcd60e51b815260040161058190612299565b610ff0611747565b60ce546001600160a01b0316331461114e5760405162461bcd60e51b8152600401610581906121b6565b611157816110ad565b6111735760405162461bcd60e51b8152600401610581906122e3565b6001600160a01b038116600090815260d860205260409020805460ff1916905561119c81611753565b6040516001600160a01b038216907fe8b3c469b395bfd934168e4b7d14590c9cd1a6740533df170dbe3c219ff5a67490600090a250565b60d66020526000908152604090205481565b6111ed6113c7565b6065546001600160a01b0390811691161461121a5760405162461bcd60e51b81526004016105819061237e565b60dd55565b60de5490565b60008160ff166001141561124557506098546001600160a01b03166107f6565b506097546001600160a01b03166107f6565b61125f6113c7565b6065546001600160a01b0390811691161461128c5760405162461bcd60e51b81526004016105819061237e565b61075581611703565b61129d6113c7565b6065546001600160a01b039081169116146112ca5760405162461bcd60e51b81526004016105819061237e565b6001600160a01b0381166112f05760405162461bcd60e51b815260040161058190612139565b6065546040516001600160a01b038084169216907f8be0079c531659141344cd1fd0a4f28419497f9722a3daafe3b4186f6b6457e090600090a3606580546001600160a01b0319166001600160a01b0392909216919091179055565b60008282018381101561079e5760405162461bcd60e51b81526004016105819061217f565b808211158015611383575060d3548211155b61139f5760405162461bcd60e51b815260040161058190612310565b6001600160a01b03909216600090815260d5602090815260408083209390935560d690522055565b3390565b6001600160a01b0384166113f15760405162461bcd60e51b815260040161058190612271565b8161140e5760405162461bcd60e51b8152600401610581906121d8565b606083838080601f016020809104026020016040519081016040528093929190818152602001838380828437600092018290525084519495509384935091505060208401885af48015600181146114645761146f565b3d806000803e806000fd5b50506040516001600160a01b0386169033907f78a9b536049c39a00adaf57016b1376c99dd48a0faf2cef23690232f21ce42cc90600090a3506001600160a01b03909316600090815260db60205260409020929092555050565b60da55565b6001600160a01b03918216600090815260df6020526040902080546001600160a01b03191691909216179055565b60008061150761177a565b90507efffc2da0b561cae30d9826d37709e9421c4725faebc226cbbb7ef5fc5e7349816040516115379190611f4f565b60405180910390a16040516373a523a560e11b81526001600160a01b0382169063e74a474a9061156f9030908890889060040161209a565b600060405180830381600087803b15801561158957600080fd5b505af115801561159d573d6000803e3d6000fd5b50929695505050505050565b6001600160a01b03918216600090815260cc6020526040902080546001600160a01b03191691909216179055565b808211156115f75760405162461bcd60e51b815260040161058190612310565b60cf82905560d08190556040517fb10da2958bf5ec1bff3164ff753a09e0460ed44d3abf73e79b817b500ed0f2f19061163390849084906124f4565b60405180910390a15050565b303b1590565b610d5a6117c1565b60ce80546001600160a01b0319166001600160a01b0383161790556040517ff1034ad6b4d45dc33a4142b9c51c2b7f89bf4a410696e426cc0f3224869e0aca90611698908390611f4f565b60405180910390a150565b808211156116c35760405162461bcd60e51b815260040161058190612310565b60d39190915560d455565b60d78190556040517f20d916c976f3971e8200089411b0b712ef4612d98380b8ad2e3d8a8a376d85c7906116989083906120dc565b60d98190556040517f0cd8fcb5e08d7632af461f0ad793e5c63dc0d7595c301f5880650175e37a8748906116989083906120dc565b60cb805460ff19166001179055565b60cb805460ff19169055565b6001600160a01b0316600090815260cc6020526040902080546001600160a01b0319169055565b60008060606040518060200161178f906119ae565b6020820181038252601f19601f8201166040525090508051602082016000f09150813b6117bb57600080fd5b50905090565b600054610100900460ff16806117da57506117da61163f565b806117e8575060005460ff16155b6118045760405162461bcd60e51b8152600401610581906123b3565b600054610100900460ff1615801561182f576000805460ff1961ff0019909116610100171660011790555b611837611853565b61183f6118d4565b8015610755576000805461ff001916905550565b600054610100900460ff168061186c575061186c61163f565b8061187a575060005460ff16155b6118965760405162461bcd60e51b8152600401610581906123b3565b600054610100900460ff1615801561183f576000805460ff1961ff0019909116610100171660011790558015610755576000805461ff001916905550565b600054610100900460ff16806118ed57506118ed61163f565b806118fb575060005460ff16155b6119175760405162461bcd60e51b8152600401610581906123b3565b600054610100900460ff16158015611942576000805460ff1961ff0019909116610100171660011790555b600061194c6113c7565b606580546001600160a01b0319166001600160a01b038316908117909155604051919250906000907f8be0079c531659141344cd1fd0a4f28419497f9722a3daafe3b4186f6b6457e0908290a3508015610755576000805461ff001916905550565b6104518061256d83390190565b80356001600160a01b03811681146107a157600080fd5b600082601f8301126119e2578081fd5b81356119f56119f082612529565b612502565b818152915060208083019084810181840286018201871015611a1657600080fd5b60005b84811015611a3d57611a2b88836119bb565b84529282019290820190600101611a19565b505050505092915050565b600082601f830112611a58578081fd5b8135611a666119f082612529565b8181529150602080830190848101604080850287018301881015611a8957600080fd5b6000805b86811015611adc5782848b031215611aa3578182fd5b611aac83612502565b8435611ab781612549565b815284860135611ac68161255e565b8187015286529484019492820192600101611a8d565b5050505050505092915050565b80356107a18161255e565b600082601f830112611b04578081fd5b813567ffffffffffffffff811115611b1a578182fd5b611b2d601f8201601f1916602001612502565b9150808252836020828501011115611b4457600080fd5b8060208401602084013760009082016020015292915050565b803560ff811681146107a157600080fd5b805169ffffffffffffffffffff811681146107a157600080fd5b600060208284031215611b99578081fd5b61079e83836119bb565b60008060408385031215611bb5578081fd5b611bbf84846119bb565b9150611bce84602085016119bb565b90509250929050565b600080600080600060a08688031215611bee578081fd5b611bf887876119bb565b9450611c0787602088016119bb565b9350611c1687604088016119bb565b9250606086013567ffffffffffffffff80821115611c32578283fd5b611c3e89838a016119d2565b93506080880135915080821115611c53578283fd5b50611c60888289016119d2565b9150509295509295909350565b60008060408385031215611c7f578182fd5b611c8984846119bb565b946020939093013593505050565b600060208284031215611ca8578081fd5b815161079e8161255e565b600080600080600080600060e0888a031215611ccd578182fd5b611cd78989611ae9565b9650611ce68960208a016119bb565b9550604088013567ffffffffffffffff80821115611d02578384fd5b611d0e8b838c01611af4565b965060608a0135915080821115611d23578384fd5b611d2f8b838c01611af4565b955060808a0135915080821115611d44578384fd5b611d508b838c01611af4565b945060a08a0135935060c08a0135915080821115611d6c578283fd5b50611d798a828b01611a48565b91505092959891949750929550565b600060208284031215611d99578081fd5b5035919050565b60008060408385031215611db2578182fd5b823567ffffffffffffffff811115611dc8578283fd5b611dd485828601611af4565b925050611bce8460208501611b5d565b60008060408385031215611df6578182fd5b50508035926020909101359150565b60008060008060008060a08789031215611e1d578384fd5b86359550602087013594506040870135935060608701359250608087013567ffffffffffffffff80821115611e50578384fd5b818901915089601f830112611e63578384fd5b813581811115611e71578485fd5b8a6020828501011115611e82578485fd5b6020830194508093505050509295509295509295565b600060208284031215611ea9578081fd5b61079e8383611b5d565b600080600080600060a08688031215611eca578283fd5b611ed48787611b6e565b9450602086015193506040860151925060608601519150611ef88760808801611b6e565b90509295509295909350565b60008151808452815b81811015611f2957602081850181015186830182015201611f0d565b81811115611f3a5782602083870101525b50601f01601f19169290920160200192915050565b6001600160a01b0391909116815260200190565b600060018060a01b0380871683526020818716818501526040608081860152611f8f6080860188611f04565b8581036060870152865180825283880191840190865b81811015611fce5783518051881684528601511515868401529285019291840191600101611fa5565b50909b9a5050505050505050505050565b600060018060a01b038088168352861515602084015260a0604084015261200960a0840187611f04565b838103606085015261201b8187611f04565b9250508084166080840152509695505050505050565b6001600160a01b03898116825288151560208301526101006040830181905260009161205f8483018b611f04565b91508382036060850152612073828a611f04565b97166080840152505060a081019390935260c083019190915260e090910152949350505050565b6001600160a01b03841681526060602082018190526000906120be90830185611f04565b905060ff83166040830152949350505050565b901515815260200190565b90815260200190565b6020808252601290820152712737ba1030903837b7b61036b0b730b3b2b960711b604082015260600190565b6020808252600e908201526d696e76616c696420626f756e647360901b604082015260600190565b60208082526026908201527f4f776e61626c653a206e6577206f776e657220697320746865207a65726f206160408201526564647265737360d01b606082015260800190565b6020808252601b908201527f536166654d6174683a206164646974696f6e206f766572666c6f770000000000604082015260600190565b6020808252600890820152676f6e6c792064616f60c01b604082015260600190565b6020808252600c908201526b19185d184b5a5b9d985b1a5960a21b604082015260600190565b6020808252601490820152730dac2dcc2cecae440cccaca40e8dede40d0d2ced60631b604082015260600190565b60208082526025908201527f5072696365436f6e73756d657256333a2061676772656761746f72206e6f7420604082015264199bdd5b9960da1b606082015260800190565b6020808252600e908201526d1d185c99d95d0b5a5b9d985b1a5960921b604082015260600190565b6020808252602a908201527f5072696365436f6e73756d657256333a20636861696e6c696e6b20616c726561604082015269191e48195b98589b195960b21b606082015260800190565b602080825260139082015272185cdcd95d08191bd95cdb89dd08195e1a5cdd606a1b604082015260600190565b60208082526010908201526f34b73b30b634b210333930b1ba34b7b760811b604082015260600190565b60208082526024908201527f5072696365436f6e73756d657256333a207072696365206e6f7420617661696c60408201526361626c6560e01b606082015260800190565b6020808252818101527f4f776e61626c653a2063616c6c6572206973206e6f7420746865206f776e6572604082015260600190565b6020808252602e908201527f436f6e747261637420696e7374616e63652068617320616c726561647920626560408201526d195b881a5b9a5d1a585b1a5e995960921b606082015260800190565b602080825260149082015273617373657420616c72656164792065786973747360601b604082015260600190565b60208082526028908201527f5072696365436f6e73756d657256333a20636861696e6c696e6b20707269636560408201526708195e1c1a5c995960c21b606082015260800190565b60208082526026908201527f5072696365436f6e73756d657256333a20636861696e6c696e6b206e6f7420656040820152651b98589b195960d21b606082015260800190565b6020808252601e908201527f737570706c6965642061646472657373206973206e6f74206120706f6f6c0000604082015260600190565b918252602082015260400190565b60405181810167ffffffffffffffff8111828210171561252157600080fd5b604052919050565b600067ffffffffffffffff82111561253f578081fd5b5060209081020190565b6001600160a01b038116811461075557600080fd5b801515811461075557600080fdfe608060405234801561001057600080fd5b50610431806100206000396000f3fe6080604052600436106100225760003560e01c8063e74a474a1461003957610031565b366100315761002f6100f4565b005b61002f6100f4565b61002f6004803603606081101561004f57600080fd5b6001600160a01b03823516919081019060408101602082013564010000000081111561007a57600080fd5b82018360208201111561008c57600080fd5b803590602001918460018302840111640100000000831117156100ae57600080fd5b91908080601f0160208091040260200160405190810160405280939291908181526020018383808284376000920191909152509295505050903560ff16915061010e9050565b6100fc61010c565b61010c610107610281565b610342565b565b6000610118610281565b6001600160a01b031614610163576040805162461bcd60e51b815260206004820152600d60248201526c496d706c206e6f74207a65726f60981b604482015290519081900360640190fd5b61016c83610366565b610175816103e4565b81511561027c576000610186610281565b6001600160a01b0316836040518082805190602001908083835b602083106101bf5780518252601f1990920191602091820191016101a0565b6001836020036101000a038019825116818451168082178552505050505050905001915050600060405180830381855af49150503d806000811461021f576040519150601f19603f3d011682016040523d82523d6000602084013e610224565b606091505b505090508061027a576040805162461bcd60e51b815260206004820152601a60248201527f496d706c656d656e746174696f6e20696e6974206661696c6564000000000000604482015290519081900360640190fd5b505b505050565b7f360894a13ba1a3210667c828492db98dca3e2076cc3735a920a3ca505d382bbc80546000916001600160a01b0382166102c05760009250505061033f565b816001600160a01b031663ecef89d56102d76103ec565b6040518263ffffffff1660e01b8152600401808260ff16815260200191505060206040518083038186803b15801561030e57600080fd5b505afa158015610322573d6000803e3d6000fd5b505050506040513d602081101561033857600080fd5b5051925050505b90565b3660008037600080366000845af43d6000803e808015610361573d6000f35b3d6000fd5b61036f816103f5565b6103c0576040805162461bcd60e51b815260206004820181905260248201527f43616e6e6f742073657420696d706c656d656e746174696f6e20746f20454f41604482015290519081900360640190fd5b7f360894a13ba1a3210667c828492db98dca3e2076cc3735a920a3ca505d382bbc55565b600160fc1b55565b600160fc1b5490565b3b15159056fea26469706673582212208fb46f65a29ee18e860904dd11c61ab753d42dbb0a06704c916403fc4559feef64736f6c634300060c0033a26469706673582212202860512d00fe5c8a71187dafc1c4f845eafb3e960f5191321d35c16aca67b61c64736f6c634300060c0033",
  "linkReferences": {},
  "deployedLinkReferences": {}
}