{
  "_format": "hh-sol-artifact-1",
  "contractName": "PoolFactory-ovm",
  "sourceName": "contracts/PoolFactory.sol",
  "abi": [
    {
      "anonymous": false,
      "inputs": [
        {
          "indexed": true,
          "internalType": "address",
          "name": "asset",
          "type": "address"
        }
      ],
      "name": "AddedValidAsset",
      "type": "event"
    },
    {
      "anonymous": false,
      "inputs": [
        {
          "indexed": false,
          "internalType": "address",
          "name": "dao",
          "type": "address"
        }
      ],
      "name": "DaoAddressSet",
      "type": "event"
    },
    {
      "anonymous": false,
      "inputs": [
        {
          "indexed": false,
          "internalType": "uint256",
          "name": "numerator",
          "type": "uint256"
        },
        {
          "indexed": false,
          "internalType": "uint256",
          "name": "denominator",
          "type": "uint256"
        }
      ],
      "name": "DaoFeeSet",
      "type": "event"
    },
    {
      "anonymous": false,
      "inputs": [
        {
          "indexed": false,
          "internalType": "uint256",
          "name": "cooldown",
          "type": "uint256"
        }
      ],
      "name": "ExitCooldownSet",
      "type": "event"
    },
    {
      "anonymous": false,
      "inputs": [
        {
          "indexed": false,
          "internalType": "uint256",
          "name": "numerator",
          "type": "uint256"
        },
        {
          "indexed": false,
          "internalType": "uint256",
          "name": "denominator",
          "type": "uint256"
        }
      ],
      "name": "ExitFeeSet",
      "type": "event"
    },
    {
      "anonymous": false,
      "inputs": [
        {
          "indexed": false,
          "internalType": "address",
          "name": "fundAddress",
          "type": "address"
        },
        {
          "indexed": false,
          "internalType": "bool",
          "name": "isPoolPrivate",
          "type": "bool"
        },
        {
          "indexed": false,
          "internalType": "string",
          "name": "fundName",
          "type": "string"
        },
        {
          "indexed": false,
          "internalType": "string",
          "name": "managerName",
          "type": "string"
        },
        {
          "indexed": false,
          "internalType": "address",
          "name": "manager",
          "type": "address"
        },
        {
          "indexed": false,
          "internalType": "uint256",
          "name": "time",
          "type": "uint256"
        },
        {
          "indexed": false,
          "internalType": "uint256",
          "name": "managerFeeNumerator",
          "type": "uint256"
        },
        {
          "indexed": false,
          "internalType": "uint256",
          "name": "managerFeeDenominator",
          "type": "uint256"
        }
      ],
      "name": "FundCreated",
      "type": "event"
    },
    {
      "anonymous": false,
      "inputs": [
        {
          "indexed": true,
          "internalType": "address",
          "name": "manager",
          "type": "address"
        },
        {
          "indexed": true,
          "internalType": "address",
          "name": "pool",
          "type": "address"
        }
      ],
      "name": "LogUpgrade",
      "type": "event"
    },
    {
      "anonymous": false,
      "inputs": [
        {
          "indexed": false,
          "internalType": "uint256",
          "name": "count",
          "type": "uint256"
        }
      ],
      "name": "MaximumSupportedAssetCountSet",
      "type": "event"
    },
    {
      "anonymous": false,
      "inputs": [
        {
          "indexed": true,
          "internalType": "address",
          "name": "previousOwner",
          "type": "address"
        },
        {
          "indexed": true,
          "internalType": "address",
          "name": "newOwner",
          "type": "address"
        }
      ],
      "name": "OwnershipTransferred",
      "type": "event"
    },
    {
      "anonymous": false,
      "inputs": [
        {
          "indexed": false,
          "internalType": "address",
          "name": "proxy",
          "type": "address"
        }
      ],
      "name": "ProxyCreated",
      "type": "event"
    },
    {
      "anonymous": false,
      "inputs": [
        {
          "indexed": true,
          "internalType": "address",
          "name": "asset",
          "type": "address"
        }
      ],
      "name": "RemovedValidAsset",
      "type": "event"
    },
    {
      "inputs": [
        {
          "internalType": "address",
          "name": "asset",
          "type": "address"
        },
        {
          "internalType": "address",
          "name": "aggregator",
          "type": "address"
        }
      ],
      "name": "addValidAsset",
      "outputs": [],
      "stateMutability": "nonpayable",
      "type": "function"
    },
    {
      "inputs": [
        {
          "internalType": "bytes32",
          "name": "c__0x963a8c0f",
          "type": "bytes32"
        }
      ],
      "name": "c_0x963a8c0f",
      "outputs": [],
      "stateMutability": "pure",
      "type": "function"
    },
    {
      "inputs": [
        {
          "internalType": "bytes32",
          "name": "c__0x9cbb386d",
          "type": "bytes32"
        }
      ],
      "name": "c_0x9cbb386d",
      "outputs": [],
      "stateMutability": "pure",
      "type": "function"
    },
    {
      "inputs": [
        {
          "internalType": "bytes32",
          "name": "c__0xfcdc832b",
          "type": "bytes32"
        }
      ],
      "name": "c_0xfcdc832b",
      "outputs": [],
      "stateMutability": "pure",
      "type": "function"
    },
    {
      "inputs": [
        {
          "internalType": "bool",
          "name": "_privatePool",
          "type": "bool"
        },
        {
          "internalType": "address",
          "name": "_manager",
          "type": "address"
        },
        {
          "internalType": "string",
          "name": "_managerName",
          "type": "string"
        },
        {
          "internalType": "string",
          "name": "_fundName",
          "type": "string"
        },
        {
          "internalType": "string",
          "name": "_fundSymbol",
          "type": "string"
        },
        {
          "internalType": "uint256",
          "name": "_managerFeeNumerator",
          "type": "uint256"
        },
        {
          "components": [
            {
              "internalType": "address",
              "name": "asset",
              "type": "address"
            },
            {
              "internalType": "bool",
              "name": "isDeposit",
              "type": "bool"
            }
          ],
          "internalType": "struct IPoolManagerLogic.Asset[]",
          "name": "_supportedAssets",
          "type": "tuple[]"
        }
      ],
      "name": "createFund",
      "outputs": [
        {
          "internalType": "address",
          "name": "",
          "type": "address"
        }
      ],
      "stateMutability": "nonpayable",
      "type": "function"
    },
    {
      "inputs": [
        {
          "internalType": "bytes",
          "name": "_data",
          "type": "bytes"
        },
        {
          "internalType": "uint8",
          "name": "_proxyType",
          "type": "uint8"
        }
      ],
      "name": "deploy",
      "outputs": [
        {
          "internalType": "address",
          "name": "",
          "type": "address"
        }
      ],
      "stateMutability": "nonpayable",
      "type": "function"
    },
    {
      "inputs": [
        {
          "internalType": "uint256",
          "name": "",
          "type": "uint256"
        }
      ],
      "name": "deployedFunds",
      "outputs": [
        {
          "internalType": "address",
          "name": "",
          "type": "address"
        }
      ],
      "stateMutability": "view",
      "type": "function"
    },
    {
      "inputs": [],
      "name": "deployedFundsLength",
      "outputs": [
        {
          "internalType": "uint256",
          "name": "",
          "type": "uint256"
        }
      ],
      "stateMutability": "view",
      "type": "function"
    },
    {
      "inputs": [],
      "name": "disableChainlink",
      "outputs": [],
      "stateMutability": "nonpayable",
      "type": "function"
    },
    {
      "inputs": [],
      "name": "enableChainlink",
      "outputs": [],
      "stateMutability": "nonpayable",
      "type": "function"
    },
    {
      "inputs": [],
      "name": "getDaoAddress",
      "outputs": [
        {
          "internalType": "address",
          "name": "",
          "type": "address"
        }
      ],
      "stateMutability": "view",
      "type": "function"
    },
    {
      "inputs": [],
      "name": "getDaoFee",
      "outputs": [
        {
          "internalType": "uint256",
          "name": "",
          "type": "uint256"
        },
        {
          "internalType": "uint256",
          "name": "",
          "type": "uint256"
        }
      ],
      "stateMutability": "view",
      "type": "function"
    },
    {
      "inputs": [],
      "name": "getExitCooldown",
      "outputs": [
        {
          "internalType": "uint256",
          "name": "",
          "type": "uint256"
        }
      ],
      "stateMutability": "view",
      "type": "function"
    },
    {
      "inputs": [
        {
          "internalType": "address",
          "name": "extContract",
          "type": "address"
        }
      ],
      "name": "getGuard",
      "outputs": [
        {
          "internalType": "address",
          "name": "",
          "type": "address"
        }
      ],
      "stateMutability": "view",
      "type": "function"
    },
    {
      "inputs": [
        {
          "internalType": "uint8",
          "name": "_proxyType",
          "type": "uint8"
        }
      ],
      "name": "getLogic",
      "outputs": [
        {
          "internalType": "address",
          "name": "",
          "type": "address"
        }
      ],
      "stateMutability": "view",
      "type": "function"
    },
    {
      "inputs": [],
      "name": "getManagerFeeNumeratorChangeDelay",
      "outputs": [
        {
          "internalType": "uint256",
          "name": "",
          "type": "uint256"
        }
      ],
      "stateMutability": "view",
      "type": "function"
    },
    {
      "inputs": [],
      "name": "getMaximumManagerFee",
      "outputs": [
        {
          "internalType": "uint256",
          "name": "",
          "type": "uint256"
        },
        {
          "internalType": "uint256",
          "name": "",
          "type": "uint256"
        }
      ],
      "stateMutability": "view",
      "type": "function"
    },
    {
      "inputs": [],
      "name": "getMaximumManagerFeeNumeratorChange",
      "outputs": [
        {
          "internalType": "uint256",
          "name": "",
          "type": "uint256"
        }
      ],
      "stateMutability": "view",
      "type": "function"
    },
    {
      "inputs": [],
      "name": "getMaximumSupportedAssetCount",
      "outputs": [
        {
          "internalType": "uint256",
          "name": "",
          "type": "uint256"
        }
      ],
      "stateMutability": "view",
      "type": "function"
    },
    {
      "inputs": [
        {
          "internalType": "address",
          "name": "pool",
          "type": "address"
        }
      ],
      "name": "getPoolManagerFee",
      "outputs": [
        {
          "internalType": "uint256",
          "name": "",
          "type": "uint256"
        },
        {
          "internalType": "uint256",
          "name": "",
          "type": "uint256"
        }
      ],
      "stateMutability": "view",
      "type": "function"
    },
    {
      "inputs": [],
      "name": "getTrackingCode",
      "outputs": [
        {
          "internalType": "bytes32",
          "name": "",
          "type": "bytes32"
        }
      ],
      "stateMutability": "view",
      "type": "function"
    },
    {
      "inputs": [
        {
          "internalType": "address",
          "name": "_asset",
          "type": "address"
        }
      ],
      "name": "getUSDPrice",
      "outputs": [
        {
          "internalType": "uint256",
          "name": "",
          "type": "uint256"
        }
      ],
      "stateMutability": "view",
      "type": "function"
    },
    {
      "inputs": [
        {
          "internalType": "address",
          "name": "_poolLogic",
          "type": "address"
        },
        {
          "internalType": "address",
          "name": "_managerLogic",
          "type": "address"
        },
        {
          "internalType": "address",
          "name": "daoAddress",
          "type": "address"
        },
        {
          "internalType": "address[]",
          "name": "_validAssets",
          "type": "address[]"
        },
        {
          "internalType": "address[]",
          "name": "_aggregators",
          "type": "address[]"
        }
      ],
      "name": "initialize",
      "outputs": [],
      "stateMutability": "nonpayable",
      "type": "function"
    },
    {
      "inputs": [
        {
          "internalType": "address",
          "name": "",
          "type": "address"
        }
      ],
      "name": "isPool",
      "outputs": [
        {
          "internalType": "bool",
          "name": "",
          "type": "bool"
        }
      ],
      "stateMutability": "view",
      "type": "function"
    },
    {
      "inputs": [
        {
          "internalType": "address",
          "name": "",
          "type": "address"
        }
      ],
      "name": "isPoolManager",
      "outputs": [
        {
          "internalType": "bool",
          "name": "",
          "type": "bool"
        }
      ],
      "stateMutability": "view",
      "type": "function"
    },
    {
      "inputs": [
        {
          "internalType": "address",
          "name": "asset",
          "type": "address"
        }
      ],
      "name": "isValidAsset",
      "outputs": [
        {
          "internalType": "bool",
          "name": "",
          "type": "bool"
        }
      ],
      "stateMutability": "view",
      "type": "function"
    },
    {
      "inputs": [],
      "name": "managerFeeNumeratorChangeDelay",
      "outputs": [
        {
          "internalType": "uint256",
          "name": "",
          "type": "uint256"
        }
      ],
      "stateMutability": "view",
      "type": "function"
    },
    {
      "inputs": [],
      "name": "maximumManagerFeeNumeratorChange",
      "outputs": [
        {
          "internalType": "uint256",
          "name": "",
          "type": "uint256"
        }
      ],
      "stateMutability": "view",
      "type": "function"
    },
    {
      "inputs": [],
      "name": "owner",
      "outputs": [
        {
          "internalType": "address",
          "name": "",
          "type": "address"
        }
      ],
      "stateMutability": "view",
      "type": "function"
    },
    {
      "inputs": [
        {
          "internalType": "address",
          "name": "",
          "type": "address"
        }
      ],
      "name": "poolManagerFeeDenominator",
      "outputs": [
        {
          "internalType": "uint256",
          "name": "",
          "type": "uint256"
        }
      ],
      "stateMutability": "view",
      "type": "function"
    },
    {
      "inputs": [
        {
          "internalType": "address",
          "name": "",
          "type": "address"
        }
      ],
      "name": "poolManagerFeeNumerator",
      "outputs": [
        {
          "internalType": "uint256",
          "name": "",
          "type": "uint256"
        }
      ],
      "stateMutability": "view",
      "type": "function"
    },
    {
      "inputs": [],
      "name": "poolStorageVersion",
      "outputs": [
        {
          "internalType": "uint256",
          "name": "",
          "type": "uint256"
        }
      ],
      "stateMutability": "view",
      "type": "function"
    },
    {
      "inputs": [
        {
          "internalType": "address",
          "name": "",
          "type": "address"
        }
      ],
      "name": "poolVersion",
      "outputs": [
        {
          "internalType": "uint256",
          "name": "",
          "type": "uint256"
        }
      ],
      "stateMutability": "view",
      "type": "function"
    },
    {
      "inputs": [
        {
          "internalType": "address",
          "name": "asset",
          "type": "address"
        }
      ],
      "name": "removeValidAsset",
      "outputs": [],
      "stateMutability": "nonpayable",
      "type": "function"
    },
    {
      "inputs": [],
      "name": "renounceOwnership",
      "outputs": [],
      "stateMutability": "nonpayable",
      "type": "function"
    },
    {
      "inputs": [
        {
          "internalType": "address",
          "name": "daoAddress",
          "type": "address"
        }
      ],
      "name": "setDaoAddress",
      "outputs": [],
      "stateMutability": "nonpayable",
      "type": "function"
    },
    {
      "inputs": [
        {
          "internalType": "uint256",
          "name": "numerator",
          "type": "uint256"
        },
        {
          "internalType": "uint256",
          "name": "denominator",
          "type": "uint256"
        }
      ],
      "name": "setDaoFee",
      "outputs": [],
      "stateMutability": "nonpayable",
      "type": "function"
    },
    {
      "inputs": [
        {
          "internalType": "uint256",
          "name": "cooldown",
          "type": "uint256"
        }
      ],
      "name": "setExitCooldown",
      "outputs": [],
      "stateMutability": "nonpayable",
      "type": "function"
    },
    {
      "inputs": [
        {
          "internalType": "address",
          "name": "extContract",
          "type": "address"
        },
        {
          "internalType": "address",
          "name": "guardAddress",
          "type": "address"
        }
      ],
      "name": "setGuard",
      "outputs": [],
      "stateMutability": "nonpayable",
      "type": "function"
    },
    {
      "inputs": [
        {
          "internalType": "address",
          "name": "_poolLogic",
          "type": "address"
        },
        {
          "internalType": "address",
          "name": "_poolManagerLogic",
          "type": "address"
        }
      ],
      "name": "setLogic",
      "outputs": [],
      "stateMutability": "nonpayable",
      "type": "function"
    },
    {
      "inputs": [
        {
          "internalType": "uint256",
          "name": "delay",
          "type": "uint256"
        }
      ],
      "name": "setManagerFeeNumeratorChangeDelay",
      "outputs": [],
      "stateMutability": "nonpayable",
      "type": "function"
    },
    {
      "inputs": [
        {
          "internalType": "uint256",
          "name": "amount",
          "type": "uint256"
        }
      ],
      "name": "setMaximumManagerFeeNumeratorChange",
      "outputs": [],
      "stateMutability": "nonpayable",
      "type": "function"
    },
    {
      "inputs": [
        {
          "internalType": "uint256",
          "name": "count",
          "type": "uint256"
        }
      ],
      "name": "setMaximumSupportedAssetCount",
      "outputs": [],
      "stateMutability": "nonpayable",
      "type": "function"
    },
    {
      "inputs": [
        {
          "internalType": "address",
          "name": "pool",
          "type": "address"
        },
        {
          "internalType": "uint256",
          "name": "numerator",
          "type": "uint256"
        }
      ],
      "name": "setPoolManagerFeeNumerator",
      "outputs": [],
      "stateMutability": "nonpayable",
      "type": "function"
    },
    {
      "inputs": [
        {
          "internalType": "bytes32",
          "name": "code",
          "type": "bytes32"
        }
      ],
      "name": "setTrackingCode",
      "outputs": [],
      "stateMutability": "nonpayable",
      "type": "function"
    },
    {
      "inputs": [
        {
          "internalType": "address",
          "name": "newOwner",
          "type": "address"
        }
      ],
      "name": "transferOwnership",
      "outputs": [],
      "stateMutability": "nonpayable",
      "type": "function"
    },
    {
      "inputs": [
        {
          "internalType": "uint256",
          "name": "startIndex",
          "type": "uint256"
        },
        {
          "internalType": "uint256",
          "name": "endIndex",
          "type": "uint256"
        },
        {
          "internalType": "uint256",
          "name": "sourceVersion",
          "type": "uint256"
        },
        {
          "internalType": "uint256",
          "name": "targetVersion",
          "type": "uint256"
        },
        {
          "internalType": "bytes",
          "name": "data",
          "type": "bytes"
        }
      ],
      "name": "upgradePoolBatch",
      "outputs": [],
      "stateMutability": "nonpayable",
      "type": "function"
    }
  ],
  "bytecode": "0x60806040523480156200001c57600080620000196200005a565b50505b50620000517f6fcd44f92f19ab4ae7b5941dda288659c1ad1e97a5b1612e7486fb3705feb69560001b6200005760201b60201c565b620000ca565b50565b632a2a7adb598160e01b8152600481016020815285602082015260005b868110156200009757808601518160408401015260208101905062000077565b506020828760640184336000905af158600e01573d6000803e3d6000fd5b3d6001141558600a015760016000f35b505050565b61b83980620000da6000396000f3fe60806040523480156200001c57600080620000196200800b565b50505b5060043610620002df5760003560e01c80638b2f0f4f1162000194578063bcb01f4411620000ec578063e60eb412116200009e578063e60eb41214620008e0578063e99c0fa61462000916578063ebee461d1462000936578063ecef89d51462000958578063eec16c44146200098e578063f2fde38b14620009ae57620002df565b8063bcb01f441462000806578063bee37e521462000826578063bfeaf71d146200085c578063cc435bf3146200087e578063d54e96d214620008b4578063dc76d25414620008c057620002df565b80639cada6e411620001465780639cada6e41462000728578063aa12ae4d146200074b578063aa7d664e146200076d578063b193a5f4146200078d578063b280600114620007c3578063b7a5452614620007cf57620002df565b80638b2f0f4f14620006375780638da5cb5b146200066d57806393eff36c146200068f57806394d0d23b14620006af5780639a068bd614620006d25780639a3cac6a146200070857620002df565b806349f7c02d1162000248578063742a96cd11620001fa578063742a96cd1462000561578063771d1baf146200058157806378a86e3a14620005a1578063790fcf9f14620005d757806379aa658114620005f7578063808ae5fb146200061757620002df565b806349f7c02d146200046f5780635556ee5514620004915780635b16ebb714620004c75780635c9bfc2b14620004fd5780637027ea6c146200051f578063715018a6146200055557620002df565b80631e666d1311620002a25780631e666d1314620003975780631e8e8bca14620003b7578063227773ee14620003d757806338158ac014620003f75780634501b088146200041757806345812ca5146200043957620002df565b8063046b72c414620002ef5780630bf99bd9146200030f5780630f6559c4146200033157806310bf69dc14620003535780631d68702d1462000375575b600080620002ec6200800b565b50505b6200030d600480360381019062000307919062008b48565b620009ce565b005b6200031962000f0e565b60405162000328919062009c06565b60405180910390f35b6200033b62000fae565b6040516200034a919062009c06565b60405180910390f35b6200035d62000fbd565b6040516200036c919062009c06565b60405180910390f35b6200037f62000fcc565b6040516200038e919062009766565b60405180910390f35b620003b56004803603810190620003af919062008e3d565b62001089565b005b620003d56004803603810190620003cf919062008d13565b6200154b565b005b620003f56004803603810190620003ef919062008a27565b62001693565b005b6200041560048036038101906200040f919062008d13565b620018f2565b005b62000421620018f5565b60405162000430919062009c06565b60405180910390f35b62000457600480360381019062000451919062008d4a565b62001992565b60405162000466919062009766565b60405180910390f35b6200047962001a32565b60405162000488919062009963565b60405180910390f35b620004af6004803603810190620004a99190620089f0565b62001acf565b604051620004be919062009c06565b60405180910390f35b620004e56004803603810190620004df9190620089f0565b62001af0565b604051620004f4919062009946565b60405180910390f35b6200050762001b19565b60405162000516919062009c06565b60405180910390f35b6200053d6004803603810190620005379190620089f0565b62001bb6565b6040516200054c919062009766565b60405180910390f35b6200055f62001cb2565b005b6200057f600480360381019062000579919062008a27565b62001e40565b005b6200059f600480360381019062000599919062008df1565b62002317565b005b620005bf6004803603810190620005b9919062008bcb565b62002461565b604051620005ce919062009766565b60405180910390f35b620005f56004803603810190620005ef919062008a73565b62002df5565b005b6200061560048036038101906200060f919062008d13565b6200353f565b005b6200063560048036038101906200062f919062008a27565b62003542565b005b6200065560048036038101906200064f9190620089f0565b62003786565b60405162000664919062009c06565b60405180910390f35b620006776200405d565b60405162000686919062009766565b60405180910390f35b620006ad6004803603810190620006a7919062008d13565b62004090565b005b620006b962004093565b604051620006c992919062009c23565b60405180910390f35b620006f06004803603810190620006ea919062008dba565b62004140565b604051620006ff919062009766565b60405180910390f35b620007266004803603810190620007209190620089f0565b6200418f565b005b62000732620042d7565b6040516200074292919062009c23565b60405180910390f35b6200075562004384565b60405162000764919062009c06565b60405180910390f35b6200078b600480360381019062000785919062008dba565b62004421565b005b620007ab6004803603810190620007a59190620089f0565b62004569565b604051620007ba919062009946565b60405180910390f35b620007cd62004592565b005b620007ed6004803603810190620007e79190620089f0565b62004912565b604051620007fd92919062009c23565b60405180910390f35b6200082460048036038101906200081e919062008dba565b62004b9c565b005b6200084460048036038101906200083e9190620089f0565b62004ceb565b60405162000853919062009c06565b60405180910390f35b6200086662004d0c565b60405162000875919062009c06565b60405180910390f35b6200089c6004803603810190620008969190620089f0565b62004d1b565b604051620008ab919062009946565b60405180910390f35b620008be62004e04565b005b620008de6004803603810190620008d89190620089f0565b62005184565b005b620008fe6004803603810190620008f89190620089f0565b62005658565b6040516200090d919062009c06565b60405180910390f35b6200093460048036038101906200092e919062008dba565b62005679565b005b62000940620057c8565b6040516200094f919062009c06565b60405180910390f35b62000976600480360381019062000970919062008ef1565b62005865565b60405162000985919062009766565b60405180910390f35b620009ac6004803603810190620009a6919062008dba565b62005a7a565b005b620009cc6004803603810190620009c69190620089f0565b62005bc2565b005b620009fc7f3d8df8da9e35c965a03b043256b8a925d0b861a0ba4d7a75090878b629958b2d60001b6200353f565b62000a2a7ff68a12be795b177f9f963168a149bf8834a59675853d703d3cbc57f75a9db33660001b6200353f565b62000a587f59a71adee5406bc649eb5f8046c861ec62f9b879c4cc6468843b8287ecff240860001b6200353f565b62000a867f6f92bfa86e7ac6bb54109d4eb16b34a31c4b5b89ba24f8c37e5ca275629cc4bd60001b6200353f565b6001151560d260005a62000a996200807b565b73ffffffffffffffffffffffffffffffffffffffff1673ffffffffffffffffffffffffffffffffffffffff16815260200190815260200160002060009062000ae0620080da565b906101000a900460ff1615151462000b3a576040517f08c379a000000000000000000000000000000000000000000000000000000000815260040162000b269062009980565b6040518091039062000b376200800b565b50505b62000b687f4ad4aa0c51a8ac83bff3ed6d3135c7aa6cd0c74967488ba67923478b56294afd60001b6200353f565b62000b967ff9a64c1968411810c7e8a508ae06be36146d91da74577ef2cf137298d4608ba760001b6200353f565b62000bc47f0142c7e42adf975c168608204a7e1e3307ee4056767f23ee76fd23551dc1c1eb60001b6200353f565b62000bf27f62f1ce7dd5029c61f97e134d30781d761c0b687fd4c8b522c9a6098647629cc360001b6200353f565b62000c207f70ec1e08d152b554ce0e096c7c7b5262e991ba60ce04038e735014227f90d44260001b6200353f565b62000c4e7f926ca7a9ff0d96b3853668d9409fa5adfd96cf551eddf798817ce7c140be46b460001b6200353f565b6001151560d160008473ffffffffffffffffffffffffffffffffffffffff1673ffffffffffffffffffffffffffffffffffffffff16815260200190815260200160002060009062000c9e620080da565b906101000a900460ff1615151462000cf8576040517f08c379a000000000000000000000000000000000000000000000000000000000815260040162000ce49062009be4565b6040518091039062000cf56200800b565b50505b62000d267fc760a3a0174cc35012cad1c00c22bd3b1579cd9ac294a8975e37dc07b276b5cc60001b6200353f565b62000d547f5c23856bdce131dc830f6f5eae0b426697e37d6a9b745a1ca7e743047967612560001b6200353f565b62000d827f0d2d1b78b35ec7138994f91eec4119f22abc0dc4a3d72f5d277561cea625787c60001b6200353f565b62000db07f4c2b5c36e9fb307b3e35ca2b1b3f6cd3ac1904c745a14f4abc369ef4fe069f1960001b6200353f565b62000e1860dd62000dc0620080da565b60d560008573ffffffffffffffffffffffffffffffffffffffff1673ffffffffffffffffffffffffffffffffffffffff16815260200190815260200160002062000e09620080da565b62005dcd90919063ffffffff16565b81111562000e68576040517f08c379a000000000000000000000000000000000000000000000000000000000815260040162000e549062009a4c565b6040518091039062000e656200800b565b50505b62000e967fc65e99c79d84d8c19eb4cc09b2b5c5349b54084f1ce34546f51449c3727662df60001b6200353f565b62000ec47f429225c60d30b00d39b8969df597172713f00c9e3164ee5f6f268cb11fb4536760001b6200353f565b62000ef27f0d08e30e5f76c320cbf5e6127037bdf95d94e6621543a4789d31a88a827aaf8460001b6200353f565b62000f0a828260d462000f04620080da565b62005e30565b5050565b600062000f3e7ff0f6e00f4808c8978c39d936231c9b252c4fa1d26c56f93238f10947d72b39de60001b6200353f565b62000f6c7f7fe9feedbbce51402de92f798c9f091654dff462959266533bcb06520444053460001b6200353f565b62000f9a7f594a5e9dc0f99888975bd78ece77b879cd649f4a8e17dff20af2d1cd2f421c5160001b6200353f565b60cd8062000fa7620080da565b9050905090565b60dc62000fba620080da565b81565b60dd62000fc9620080da565b81565b600062000ffc7f279dd1779bca0bb6cd743213a5c4f6a5e05610730ae9fe08c2ff16c65a0261ab60001b6200353f565b6200102a7fe5ee42d6707d731aa1c71f294e15bf05416d9e2481795545d7482a5d96810d7760001b6200353f565b620010587fc9f1f7b952adc798affda60690233bb0bcb66a20b17f27a29e3cee783882faa160001b6200353f565b60ce60009062001067620080da565b906101000a900473ffffffffffffffffffffffffffffffffffffffff16905090565b62001093620060da565b73ffffffffffffffffffffffffffffffffffffffff166065600090620010b8620080da565b906101000a900473ffffffffffffffffffffffffffffffffffffffff1673ffffffffffffffffffffffffffffffffffffffff161462001139576040517f08c379a0000000000000000000000000000000000000000000000000000000008152600401620011259062009b3a565b60405180910390620011366200800b565b50505b620011677f17f327a153b3b30ef1a6f669e4014e10c8215b576202888074ad1b8518b5041460001b6200353f565b620011957f77ef7e9e970a9d15c9fc99e38d0e14077e1f36127693b21159df4faf8a1cfe9360001b6200353f565b620011c37fef8cbcb7441e78162bdf01f33f3bd7a1bc4fcd87d57e49f3e2e4ce8c1fb9803460001b6200353f565b620011f17f804ddf9bf93c0eb5b196357f55a28420289271c0842e147ae7c69a6fcdef51c460001b6200353f565b8486111580156200120f575060cd806200120a620080da565b905086105b801562001229575060cd8062001224620080da565b905085105b62001276576040517f08c379a00000000000000000000000000000000000000000000000000000000081526004016200126290620099a2565b60405180910390620012736200800b565b50505b620012a47f6867e033f3189c6f485a1d44dcae048b75c004420cab4d3de9889a49d06c6cc860001b6200353f565b620012d27f79a0427298e0e75996b765b2ca99a0af4ba9f0c2698c4c4a3f6d57805db5addc60001b6200353f565b620013007f5bfe48d734cf1d13108bea7bce3de52f8eb3b10d56d400fda668ec5d88573df260001b6200353f565b60008690505b85811162001542576200133c7f7cbf563246ecc98729c82fafab647b9b5d0571a78eba30f9efcd6cdda1a56eba60001b6200353f565b6200136a7f154fd0a4670b6d9f2d9d886f0f8058349a8690d2348d9cf6313e915c6ad2292c60001b6200353f565b600060cd82816200137a620080da565b81106200138357fe5b906000526020600020016000906200139a620080da565b906101000a900473ffffffffffffffffffffffffffffffffffffffff169050620013e77f21d3b733e742181f74c0003cf81ec0a3451fc40e9406f395e0e7ee7627761b0b60001b6200353f565b620014157fc5ff6fe9cdaee709d78a8ca953e321b1cf51058c271aefe56c23024beb5bd2bb60001b6200353f565b8560db60008373ffffffffffffffffffffffffffffffffffffffff1673ffffffffffffffffffffffffffffffffffffffff1681526020019081526020016000206200145f620080da565b146200149a57620014937faf8b574a07bd91f782725e5a7933569c06387dc8fb23f0f47e47eea971130a7b60001b6200353f565b5062001534565b620014c87f3695f8cf547b44aac75949b095cd0f7d71d8867edecfff3cbcd9ee2f5e2eab9560001b6200353f565b620014f67ff80384c2c5a78e027472edb4532676920dcdd156fc6f84e4daade81b6e712fa460001b6200353f565b620015247f9858f3a3b1d9665fe5ba7445d3cd0f0209a78de08e4b2883c408439871891bf060001b6200353f565b6200153281858588620060ec565b505b808060010191505062001306565b50505050505050565b62001555620060da565b73ffffffffffffffffffffffffffffffffffffffff1660656000906200157a620080da565b906101000a900473ffffffffffffffffffffffffffffffffffffffff1673ffffffffffffffffffffffffffffffffffffffff1614620015fb576040517f08c379a0000000000000000000000000000000000000000000000000000000008152600401620015e79062009b3a565b60405180910390620015f86200800b565b50505b620016297ff5f6e6ec809c94c1f26827b5e37f496af42d8c5e8e52fccc705deb908b5fd69f60001b6200353f565b620016577f23df8ed0c933bb548208501cfbfb796ddcac1dbaaff610076c7140eb1fb84a1060001b6200353f565b620016857ffed0a5cd88ce0ea82b88cfec5561b79b96150e41385100fecde00bc5f92138e760001b6200353f565b6200169081620065e5565b50565b620016c17f7400efbb2983ce0b07a712161471985f43e80154251418c1f14e54cc824fa5d960001b6200353f565b620016ef7fe2108c9b510e6bc9bbf2aacdf4637dda5f5ba1f43acb055c9a10a0bc521c72a260001b6200353f565b6200171d7f3a213bbc07145fb75bbd14143d2eeff7c56b658fc983177df249f141738ee29360001b6200353f565b6200174b7f1945d12ae1ab28f2e3ed7a2b3a42fa6b85340a8581b323cb284396f92165c24a60001b6200353f565b60ce6000906200175a620080da565b906101000a900473ffffffffffffffffffffffffffffffffffffffff1673ffffffffffffffffffffffffffffffffffffffff165a620017986200807b565b73ffffffffffffffffffffffffffffffffffffffff1614620017fc576040517f08c379a0000000000000000000000000000000000000000000000000000000008152600401620017e89062009a08565b60405180910390620017f96200800b565b50505b6200182a7f59f49f62777915626c19d20f727a888eecbfc2bd28f7f94e1cdc47dfdf26250660001b6200353f565b620018587f43baf121f6188585c3dc7cebf1d3115d2ce4e6e42d952ff65479a4fca131363860001b6200353f565b620018867fe63b6da9f8fb518d30844238f3be0cb5c81722eb4a1a04b59ed66caf6390a1a160001b6200353f565b620018b47f8cd872f9b35d91349f1aba2a973fb203f06c9c056860379b2eac23b2218622db60001b6200353f565b620018e27f1a56517d22b91c0bcddc85f8adaf8a060a82c7e2ac35b65a8f12b2f1b91b8ee760001b6200353f565b620018ee828262006684565b5050565b50565b6000620019257f13e11f0d73d76f4f77f3d7be339f6e90b3bf41e1910572746d191d405f45285460001b6200353f565b620019537f5f22194267ee56ea4a87de1fb3fbc5ba62a5bc23c39aad24554443ec35d706f960001b6200353f565b620019817f91d67a67511ec55a9c20f81a5836393da8e770c2a54bee6e54e5a422c35918c260001b6200353f565b60d76200198d620080da565b905090565b6000620019c27f33f15f7d0565552c240ba3980dca20e9417603bc622b4db6502532b2cf143adf60001b620018f2565b620019f07fd28665c1a74c6e4b3c9498428d3a105b919193a3c1dd68a4c21277abaa41ed2e60001b620018f2565b62001a1e7fcd90c37ee61942ee9d71ff17ccb12b8d3ed593d687642d288c787960686c829360001b620018f2565b62001a2a8383620067a4565b905092915050565b600062001a627fc9c6a38518c05aef06ae86d6ad2e4965ea5f9c87c6d3955fe3e543a42a88217460001b6200353f565b62001a907f5fadc9cd7b2e26f8488a0f0e7874cc84b499743cce43744873597553bc46d5d560001b6200353f565b62001abe7ffe2c9ba9d29ea4e15cff8ef514b19bcfec50ee80dc03999a72501d7f9fd9531760001b6200353f565b60da62001aca620080da565b905090565b60db60205280600052604060002060009150905062001aed620080da565b81565b60d16020528060005260406000206000915062001b0c620080da565b906101000a900460ff1681565b600062001b497f9dc4ed7512879ab1048e4cc88bb46ed459d284bc11830202411ed47c48791b1660001b6200353f565b62001b777ff1a194115db702370c5c763e27c90a7a9b39412351168e4a1bd1111ede1ccf5c60001b6200353f565b62001ba57faf3edb49ee4d9844c88d1e3b8dd7c250d8175b49e91f692250cf93bf28b2d03860001b6200353f565b60dd62001bb1620080da565b905090565b600062001be67ffc0892fe845f8795b311aa8fbc631da17fc68d16733f6fccf02540e2c922fd6660001b6200353f565b62001c147ff487d998248da2ff10fef3995f6682c15ce6aa08589a3610bbd32c2f48eba8fa60001b6200353f565b62001c427f3f50e4ba6bc154b20d18499040afbb9310eb4b7059dc19f900f3f710e70d450b60001b6200353f565b60df60008373ffffffffffffffffffffffffffffffffffffffff1673ffffffffffffffffffffffffffffffffffffffff16815260200190815260200160002060009062001c8e620080da565b906101000a900473ffffffffffffffffffffffffffffffffffffffff169050919050565b62001cbc620060da565b73ffffffffffffffffffffffffffffffffffffffff16606560009062001ce1620080da565b906101000a900473ffffffffffffffffffffffffffffffffffffffff1673ffffffffffffffffffffffffffffffffffffffff161462001d62576040517f08c379a000000000000000000000000000000000000000000000000000000000815260040162001d4e9062009b3a565b6040518091039062001d5f6200800b565b50505b600073ffffffffffffffffffffffffffffffffffffffff16606560009062001d89620080da565b906101000a900473ffffffffffffffffffffffffffffffffffffffff1673ffffffffffffffffffffffffffffffffffffffff167f8be0079c531659141344cd1fd0a4f28419497f9722a3daafe3b4186f6b6457e060405160405180910390a36000606560006101000a8162001dfd620080da565b8173ffffffffffffffffffffffffffffffffffffffff021916908373ffffffffffffffffffffffffffffffffffffffff1602179062001e3b6200813f565b505050565b62001e6e7f7400efbb2983ce0b07a712161471985f43e80154251418c1f14e54cc824fa5d960001b6200353f565b62001e9c7fe2108c9b510e6bc9bbf2aacdf4637dda5f5ba1f43acb055c9a10a0bc521c72a260001b6200353f565b62001eca7f3a213bbc07145fb75bbd14143d2eeff7c56b658fc983177df249f141738ee29360001b6200353f565b62001ef87f1945d12ae1ab28f2e3ed7a2b3a42fa6b85340a8581b323cb284396f92165c24a60001b6200353f565b60ce60009062001f07620080da565b906101000a900473ffffffffffffffffffffffffffffffffffffffff1673ffffffffffffffffffffffffffffffffffffffff165a62001f456200807b565b73ffffffffffffffffffffffffffffffffffffffff161462001fa9576040517f08c379a000000000000000000000000000000000000000000000000000000000815260040162001f959062009a08565b6040518091039062001fa66200800b565b50505b62001fd77f59f49f62777915626c19d20f727a888eecbfc2bd28f7f94e1cdc47dfdf26250660001b6200353f565b620020057f43baf121f6188585c3dc7cebf1d3115d2ce4e6e42d952ff65479a4fca131363860001b6200353f565b620020337f58c50d8ad31813d7d99c3a8bbf755547aff93ff6f0c6b23d76a035de7a6c179560001b6200353f565b620020617f0e3044b9dd0050761070d84ce56536c60f6f2c2eeabeecaf67f832404d22553160001b6200353f565b6200208f7fb383b28e2318a0846e55a598660b1e6862921674a5db7719c8edb3a062522f9560001b6200353f565b620020bd7ff1f8c062a635447e28ae5ffe2ee64e982b94d4383878b73406dc8b5c1cd8f8dd60001b6200353f565b620020c88262004d1b565b1562002116576040517f08c379a0000000000000000000000000000000000000000000000000000000008152600401620021029062009b7e565b60405180910390620021136200800b565b50505b620021447fe4f1746dc2fa197337da3ea2652f9c38381400225b93a2d2e1c8e984f5fdac9d60001b6200353f565b620021727f3bfe5de6d37dca67f0c6ef3af3b87b237318a719af68711f4fe3300d1e1d5c3c60001b6200353f565b620021a07fa02f770dd690c142290fec1ebcc25e4cf5df9c7bb526e94d8baecb55da22d6ae60001b6200353f565b600160d860008473ffffffffffffffffffffffffffffffffffffffff1673ffffffffffffffffffffffffffffffffffffffff16815260200190815260200160002060006101000a81620021f2620080da565b8160ff02191690831515021790620022096200813f565b5050506200223a7f0edeb4e2657271a886f513794a722aee2206b14cc11c8fb26ede20dc9324532560001b6200353f565b620022687f2c49defb59200d50444d74463ab81bf314c39b271e7b1ce3a142c8efacd8b76860001b6200353f565b62002274828262006a92565b620022a27f5b4d7a8bb8b9c99cb0b425e8d8291764effbf552a3bb7a42bc30c6ae5e986e7460001b6200353f565b620022d07f818a5bf1fcd0d5d6f82a87049e84cd5aa03f0177f3ee44196996ace58a6a146860001b6200353f565b8173ffffffffffffffffffffffffffffffffffffffff167fd63c302652b86334fe4eb891e7a01e61e836496485d9394f2c95b4222006ae5060405160405180910390a25050565b62002321620060da565b73ffffffffffffffffffffffffffffffffffffffff16606560009062002346620080da565b906101000a900473ffffffffffffffffffffffffffffffffffffffff1673ffffffffffffffffffffffffffffffffffffffff1614620023c7576040517f08c379a0000000000000000000000000000000000000000000000000000000008152600401620023b39062009b3a565b60405180910390620023c46200800b565b50505b620023f57f055b465ccbbfe1385b246c3b1888cc4189599f82b3f852f3a6fa8951786c9c0c60001b6200353f565b620024237f874c3659c636586c907200bf86d744f925ddfc959593f19d3c8ee7ca25d06aa260001b6200353f565b620024517fb6149f908b95284a63753159e8a401881db05582bba1a5581330ce19651b2ad260001b6200353f565b6200245d828262006bb2565b5050565b6000620024907e4652eecefa63d4c68225ba4c7cd0ac0943751f45b7bb8e8b7d58413d85957960001b6200353f565b620024be7faf5feb3d596b6d1fafadcfe6b9cc9bee3cc2499175ac7ff9045dafcd2d8009dc60001b6200353f565b620024ec7fab1d79638d438e682b7ac7979661dbbf7a134cccb200d03f4e3d86686fff248060001b6200353f565b60605a63996d79a5598160e01b8152602081600483336000905af158600e01573d6000803e3d6000fd5b3d6001141558600a015760016000f35b8051925060005b604081101562002549576000818301526020810190506200252d565b505050888885604051602401620025649493929190620097a0565b6040516020818303038152906040527f147bf0be000000000000000000000000000000000000000000000000000000007bffffffffffffffffffffffffffffffffffffffffffffffffffffffff19166020820180517bffffffffffffffffffffffffffffffffffffffffffffffffffffffff83818316178352505050509050620026117f94dd0bc43c074d1a7f0555329e3397f81cd9af941f1917db261eaf461e6189ec60001b6200353f565b6200263f7f7c1535069693b986f1e54bfc6f885cd8d330c7240e804afd13cad25279ffddd060001b6200353f565b60006200264e82600162001992565b90506200267e7fbccc9cced9e978ef3e31ec9a8d77a28a1f24c816e1e41f41541b5fe337e29fe560001b6200353f565b620026ac7f41348a0cfadc29fae0fbea16ea800ba3432cdaa01426486ac4de7f4e38a1725160001b6200353f565b60605a63996d79a5598160e01b8152602081600483336000905af158600e01573d6000803e3d6000fd5b3d6001141558600a015760016000f35b8051925060005b60408110156200270957600081830152602081019050620026ed565b5050508b89898560405160240162002726959493929190620097fb565b6040516020818303038152906040527f0ccb30c7000000000000000000000000000000000000000000000000000000007bffffffffffffffffffffffffffffffffffffffffffffffffffffffff19166020820180517bffffffffffffffffffffffffffffffffffffffffffffffffffffffff83818316178352505050509050620027d37f78c6c09625c8c181c09f571daebd6b5d1a9fbbd85dc58bac510d11e778b86bf460001b6200353f565b620028017fef6f4d7ad4550de83b7f430a49490d845ae18e3063b153566fe4b8e03d8bf73f60001b6200353f565b60006200281082600262001992565b9050620028407fba9c8f1800678b3fba06f55d15584e231e8fb0c01b82e4fbc0b7c4c9807b244960001b6200353f565b6200286e7f2b1d00cc47871dc6268aa5b5cfc6c776bd045c2dbd37975af7704f3c8f08fa1960001b6200353f565b8273ffffffffffffffffffffffffffffffffffffffff16638e10153d826040518263ffffffff1660e01b8152600401620028a9919062009766565b60206040518083038160008780620028c0620081a6565b158015620028d857600080620028d56200800b565b50505b505a620028e46200820b565b50505050505015801562002907573d6000803e3d6000620029046200800b565b50505b505050506040513d601f19601f820116820180604052508101906200292d919062008b94565b506200295c7f9d7a63e7fcf20676c659e71f7b6427bf16efd9b38da4e1c9f19adb81270f609660001b6200353f565b6200298a7f851c9e960698698415d9dede09dadaa8631b6cfe5f0b50bc3ab32f01bd48117960001b6200353f565b60cd8190806001816200299c620080da565b018082620029a96200813f565b505080915050600190039060005260206000200160009091909190916101000a81620029d4620080da565b8173ffffffffffffffffffffffffffffffffffffffff021916908373ffffffffffffffffffffffffffffffffffffffff1602179062002a126200813f565b50505062002a437fbce737bf5a8acf4adae42363e4d7e9991e25f8402287ac3044a89a47e0151a6a60001b6200353f565b62002a717fd1bfcc1ae2e7e6e08b94ec8102ed7523c863b4f289555ecceeaab91ed367647860001b6200353f565b600160d160008373ffffffffffffffffffffffffffffffffffffffff1673ffffffffffffffffffffffffffffffffffffffff16815260200190815260200160002060006101000a8162002ac3620080da565b8160ff0219169083151502179062002ada6200813f565b50505062002b0b7f69f9c1e866b80d5966065f81d922ab47fe683e694ca59e783d48a94d6998462360001b6200353f565b62002b397f711d3f55836b172aaa474056bac11c3b64466b5841b0deb4c018bad211a51b0c60001b6200353f565b600160d260008573ffffffffffffffffffffffffffffffffffffffff1673ffffffffffffffffffffffffffffffffffffffff16815260200190815260200160002060006101000a8162002b8b620080da565b8160ff0219169083151502179062002ba26200813f565b50505062002bd37f21a749f60b4811dd9c299b03ba00ec5c2eecd2b0721788eff9399de7879acb7760001b6200353f565b62002c017fb26474e3316f4ac3e4cb61183633ea9832fe123a87c862bd4f0d8f107820283a60001b6200353f565b60dc62002c0d620080da565b60db60008373ffffffffffffffffffffffffffffffffffffffff1673ffffffffffffffffffffffffffffffffffffffff168152602001908152602001600020819062002c586200813f565b50505062002c897f6040413eada179dd87512f8f880099a7bc17548ee52e1e500400ffa33ce9cae160001b6200353f565b62002cb77f8c3c3e94e4de9b5ec022eefc45138a90e22fd43e4d32a939c80497558dbeeb7c60001b6200353f565b62002ccf818860d462002cc9620080da565b62005e30565b62002cfd7ffa092cae00ed102f56cd4647dca7db562fcfd600082c9aa0728d6a9b4b1870a360001b6200353f565b62002d2b7fab42002b5183f81931c33961e01328e2072190ae3977c653765c9340a839ddd260001b6200353f565b7f73a0638fe578fc759744633aa170a433061ca2cc1bb855d116c506e04a29901f818d8b8d8f5a62002d5c62008316565b8d60d462002d69620080da565b60405162002d7f98979695949392919062009866565b60405180910390a162002db57f4ecec2062c623ab9703ff1707d10291b09ec8443e0d8fa83421e69c2e677450760001b6200353f565b62002de37f2200c946d824a8a4372f64936e4b0ba5bcdc29a480995db7cacd6885ad27db9860001b6200353f565b80945050505050979650505050505050565b600060019062002e04620080da565b906101000a900460ff168062002e20575062002e1f62006e60565b5b8062002e40575060008062002e34620080da565b906101000a900460ff16155b62002e8d576040517f08c379a000000000000000000000000000000000000000000000000000000000815260040162002e799062009b5c565b6040518091039062002e8a6200800b565b50505b60008060019062002e9d620080da565b906101000a900460ff16159050801562002f0f576001600060016101000a8162002ec6620080da565b8160ff0219169083151502179062002edd6200813f565b50505060016000806101000a8162002ef4620080da565b8160ff0219169083151502179062002f0b6200813f565b5050505b62002f3d7fc68bb870e46827edc72aeeb0eb74d44816286195aa27c7aac1244cded38a721560001b6200353f565b62002f6b7fc763b96017a4306ad4c5107c5478ef7f79ecc8e289afe2d4c612daca28efb6e860001b6200353f565b62002f997ffa8826bb42af6c6f207828cd73a31d623b62c9a32d49838fa115012ddb450fd260001b6200353f565b62002fa5868662006edd565b62002fd37f6a6839cd7a17e637a2477a914690ad46d3953ab07e530aadac1be9363e71693f60001b6200353f565b620030017fb4f47aa91e3af72c836b5216c9d9267def4239c1df14f2ec801a95cd8105872960001b6200353f565b6200300c84620070d7565b6200303a7f46d8d5744b1b7ea011b12b1d1c0c6982fbe7e33e47a3dc6c2f30ec928e3d251e60001b6200353f565b620030687f9c4efb1d204426dedbd4b43c7ac6896abdf9a4dfa67afb356002f3e194a779f860001b6200353f565b620030786113886127106200724e565b620030a67fcd44fab5e8dd0fd0be79836dcafb24b7cd0a4f42d0c27990c44112bf63fa014060001b6200353f565b620030d47f288347419c054230ed12c0bb9fdd503290a1e907bcf8cd25794e66467409bb2960001b6200353f565b620030e2600a606462006bb2565b620031107fd4694f095538c1e65699220115cacdc2e48ad6ca0c23974573305029be5bd9b660001b6200353f565b6200313e7fa5561a7ce4c567b90d5a406d0e58051b3f0718e0748e735e45a176f468c5c63960001b6200353f565b6200314c6201518062007465565b6200317a7fa6e15973f56018a8e8e0eb94d022c0ebc0ebf2834ce92f8e36057e34d4712b4760001b6200353f565b620031a87f50500f02194b5ac4f626ffbac7b3e37f78ef807a9a77ca2d35d448262d7a0ff460001b6200353f565b620031b66224ea0062004b9c565b620031e47fa0f8243dcce257062c608715f39b68a4d304c51aa572f967a28194700484996760001b6200353f565b620032127fe5f47c2a7f2d45eb1988db8aac45ca5cdfbc31722e8fe2d7b6180f3d58221e6660001b6200353f565b6200321f6103e862005679565b6200324d7f42fa08d61d0f7c1c4719e320e7f80f84c37066dfb71999e3cff4614755d68d2b60001b6200353f565b6200327b7ff877799c7d19ac9edc65d86c34cb169881346942a6069a32f234f3069d38de4160001b6200353f565b62003287600a62007599565b620032b57fe70161783b8fa9b96d7c1d680341448c4aed2423257c961ccd14470b14f57b4b60001b6200353f565b620032e37f7b4e61386ef80d45c93b0dabef781b300cb1677e10c762dbcc84e257565ecb4660001b6200353f565b620033117f444845444745000000000000000000000000000000000000000000000000000060001b620065e5565b6200333f7f4f0121d1fdceecba8e21877006bd2aabe7394e4ef6b050d83f2db995b587aef160001b6200353f565b6200336d7fd17c109f6bf5f413d4a66b19a10d7b8ed61f2ed76edb7d94b971a8d285003b1960001b6200353f565b60005b83518160ff1610156200350057620033ab7fe785833698e4e078e5cf9f51154a85d65ec61c55bf2b86ee2124e30b5e45c81660001b6200353f565b620033d97f3df4c924312bc92b8492f3e27279699a6211904fba2a707d7b8077526da20aa760001b6200353f565b600160d86000868460ff1681518110620033ef57fe5b602002602001015173ffffffffffffffffffffffffffffffffffffffff1673ffffffffffffffffffffffffffffffffffffffff16815260200190815260200160002060006101000a8162003442620080da565b8160ff02191690831515021790620034596200813f565b5050506200348a7ffbaa366691e42314ff93f6d4ab1f8782fbc44d887f33fa8c367eeac5de7fcbc960001b6200353f565b620034b87f0f313f44849769e1cbcc37513d0193d55f714d7c103cecdf1cfb27768bfcadac60001b6200353f565b620034f2848260ff1681518110620034cc57fe5b6020026020010151848360ff1681518110620034e457fe5b602002602001015162006a92565b808060010191505062003370565b508015620035375760008060016101000a816200351c620080da565b8160ff02191690831515021790620035336200813f565b5050505b505050505050565b50565b6200354c620060da565b73ffffffffffffffffffffffffffffffffffffffff16606560009062003571620080da565b906101000a900473ffffffffffffffffffffffffffffffffffffffff1673ffffffffffffffffffffffffffffffffffffffff1614620035f2576040517f08c379a0000000000000000000000000000000000000000000000000000000008152600401620035de9062009b3a565b60405180910390620035ef6200800b565b50505b620036207f01343b48bbbfb1506e4f6a3c5fca05ef25de5a6e576958d5921d5980f10697ad60001b620018f2565b6200364e7f22ef14946b68c2cbd000714372a1fdba889aef4017882173c418c6c196f461cf60001b620018f2565b6200367c7fcc2206faa513a1d6bb0596b36f4e479b1c9ad0a8d5bd4f42fac32943d6d2db4660001b620018f2565b81609760006101000a8162003690620080da565b8173ffffffffffffffffffffffffffffffffffffffff021916908373ffffffffffffffffffffffffffffffffffffffff16021790620036ce6200813f565b505050620036ff7f5b379c61cbcd57b1542962fae91dd43a826ebfa5f7e4921e5cc82ed7a1d1539660001b620018f2565b6200372d7f683034d185de591103e45001d186297f3448b16bb273cf53ca47bad669cc3b1160001b620018f2565b80609860006101000a8162003741620080da565b8173ffffffffffffffffffffffffffffffffffffffff021916908373ffffffffffffffffffffffffffffffffffffffff160217906200377f6200813f565b5050505050565b6000620037b67ff67f2417b3e31f5e2cbad4f04eba4902377630cd90d26f257646545a2bf84f8460001b62004090565b620037e47f99398754977caf85639e96b210e04976c6abdcbf656093cad55c02aee69f542b60001b62004090565b620038127f14edc2f00070db217712b1d5a066a22b6da264b3eeabee8fe1113b93b62dc3f660001b62004090565b600060cc60008473ffffffffffffffffffffffffffffffffffffffff1673ffffffffffffffffffffffffffffffffffffffff16815260200190815260200160002060009062003860620080da565b906101000a900473ffffffffffffffffffffffffffffffffffffffff169050620038ac7e49b963a7204d11bd6192994399773ff9941728a05382e023f0d7f8e9f4ce7760001b62004090565b620038da7f7ac4ff0090418571bff0a30fa14a7fb65daf8cc5e4e857ba967d8c9989d4246660001b62004090565b620039087f7e39a546a99d56abe41ebc3b601576de2dca5a5e555efc8eb10f9b372b7710c360001b62004090565b600073ffffffffffffffffffffffffffffffffffffffff168173ffffffffffffffffffffffffffffffffffffffff16141562003986576040517f08c379a0000000000000000000000000000000000000000000000000000000008152600401620039729062009a6e565b60405180910390620039836200800b565b50505b620039b47f23e0bb287645e47bb882854280519143416c6e0a4b950fbd3755a04c8fd930a560001b62004090565b620039e27f54cb56bf6453b720b41b9a19ad3f4df89a0b2ff0fcb4835e0760cb5cb0e6b6e560001b62004090565b62003a107f77e5894f2e29688300cafc369817a88d4df05aa12da0fba6ebd80cb1a4edccec60001b62004090565b600062003a407fb89baaa79829ac26e19e2f6b5be841fa4130f9de8a1ef0618d4f558a11d6d59760001b62004090565b62003a6e7f29a423fff5deb2a4fa5462e7006f43f416a06143e16639d7794383358bcac41160001b62004090565b60cb60009062003a7d620080da565b906101000a900460ff1662003ebf5762003aba7f5f1d27f3b0d401fd5bab36c4a24e62ec3f5d0045659c56fe1e257308befe267560001b62004090565b62003ae87f64efdaaf3dabce3750a666d1e73291d77817ab109f5b6762b26e021519c9ae6560001b62004090565b62003b167f785197ff24291e0c6f07cb52bb03b679998995b9e4239c645b5ea5f15c81e12960001b62004090565b8173ffffffffffffffffffffffffffffffffffffffff1663feaf968c6040518163ffffffff1660e01b815260040160a060405180830381868062003b59620081a6565b15801562003b715760008062003b6e6200800b565b50505b505a62003b7d62008375565b505050505092505050801562003bb357506040513d601f19601f8201168201806040525081019062003bb0919062008f28565b60015b62003c615762003be67f0876bee710acfe84eb418ce9c631a3abf81f3f3afc0805868ec5021e30307d2660001b62004090565b62003c147f340082257eccd5f8b78c4014a92ba9826f6b24555950e527d1b6abc06a81754260001b62004090565b6040517f08c379a000000000000000000000000000000000000000000000000000000000815260040162003c489062009b18565b6040518091039062003c596200800b565b505062003eb9565b62003c8f7fcf3a3ffc0a1c8829a33aab23ebdcd53722dc846bceef25ecf4a4c177579af1fe60001b62004090565b62003cbd7fa1e96a03716f9222f105fbfffa14ce67c5369772c9db53cae423bb8bdc15023060001b62004090565b62003ceb7f30aa93cba7cefea8918aac32d387725c21558139c87462d20eb91408d23c420060001b62004090565b5a62003cf662008316565b62003d0e62015f908462005dcd90919063ffffffff16565b101562003d5d576040517f08c379a000000000000000000000000000000000000000000000000000000000815260040162003d499062009ba0565b6040518091039062003d5a6200800b565b50505b62003d8b7f11fba02caa6044c0257eb224cfcbb8cf7721b3dc1a9286f502c00db4d424ea6e60001b62004090565b62003db97fd2c5b87629deafa9dc752957d58435e7cc9dd96257976bbd76fb9ce4297807af60001b62004090565b62003de77fca9471dfcec4893cdce4fb7dd0b7a7e0971d761a1a2e9c1768b8adf5d4321f1f60001b62004090565b600084131562003e845762003e1f7fba132eb20588196a6950c3783f9ddfef93f958351497d5e052852411caaf57a560001b62004090565b62003e4d7f16e3329179f6bcea42713406963fe5cb316f71109007113266dc73eaaf3410e460001b62004090565b62003e7b7f017f70c97a727ca5b282ca419cd55fa361adedb24d1d8a39d863c796997c178060001b62004090565b83955062003eb3565b62003eb27fe6878e3790eac00ec483beb14444ecc8c3c4958ae79cf5cc9c6eb0eea4b3607960001b62004090565b5b50505050505b62003eee565b62003eed7fc2373b3d8ef5baa0e03e89d6f143a6f380aaa47cdd394a5776bfc6dedd47196e60001b62004090565b5b62003f1c7f4e2e93e35253551079e1eb62032ccad994369be21a78620ed63fe4261c1f0a5b60001b62004090565b62003f4a7fd6c289f94ffcd31e7fde1033c34cf4cd1e3e2a54d2d0809aad571daa9d851f0e60001b62004090565b62003f787f87e60872230e8b2c310ed78894dc28078fee73a946acffbd2ddcc286549a591b60001b62004090565b6000811162003fc9576040517f08c379a000000000000000000000000000000000000000000000000000000000815260040162003fb59062009b18565b6040518091039062003fc66200800b565b50505b62003ff77f6308e4abcbe6fda9bc7e95aa628401eea08313b8a18abfb2cc396e35b93d295c60001b62004090565b620040257fb2463499ada00ae36c561403e716987771939734f19ad1ec2c76d71a49e33f5260001b62004090565b620040537fff4806b626a5582df1c50b0b644c04877473b2f77ee2ff42de5564fe8861a72260001b62004090565b8092505050919050565b600060656000906200406e620080da565b906101000a900473ffffffffffffffffffffffffffffffffffffffff16905090565b50565b600080620040c47fd628497fc0cd9f79fa694641c3cf07b667e1d6b3c07558e23ed79e24c898038d60001b6200353f565b620040f27fa4ef3ebc8e36cfc50e61d3b19d359986fe214ab64f8a3d926735b02bcfe992ce60001b6200353f565b620041207fb852a35c31dfbda5481bd0ae2208d8a73b2c6b0a7ddc06359300fcb2456f8cf860001b6200353f565b60d36200412c620080da565b60d462004138620080da565b915091509091565b60cd81816200414e620080da565b81106200415757fe5b90600052602060002001600091506200416f620080da565b906101000a900473ffffffffffffffffffffffffffffffffffffffff1681565b62004199620060da565b73ffffffffffffffffffffffffffffffffffffffff166065600090620041be620080da565b906101000a900473ffffffffffffffffffffffffffffffffffffffff1673ffffffffffffffffffffffffffffffffffffffff16146200423f576040517f08c379a00000000000000000000000000000000000000000000000000000000081526004016200422b9062009b3a565b604051809103906200423c6200800b565b50505b6200426d7fa35d36d72e3b1b411a4a15705abd80e9b35787e3796254501881fe9832b8644660001b6200353f565b6200429b7fabf7e2adf8b7d0db369c34c2fac7a2fe8eed0d2d6eb38dccebb015a9eb9ec42960001b6200353f565b620042c97fc08a1dcd013c919a4fbe860c9c80781e11875a5c5dc956bee48f27714af1bd2060001b6200353f565b620042d481620070d7565b50565b600080620043087ff8444c09f2f9a424b92e19e02e3a0bb9bf296052221379a9931458feaa4932a860001b6200353f565b620043367fa3df9213f1871cbe08c4a2b3fe5ac7ac20dc765d5771bffc3d203422f703419560001b6200353f565b620043647f6a8b5f896bff494dcdd8f3260292e22a0266f14000a61e499001616841de570960001b6200353f565b60cf62004370620080da565b60d06200437c620080da565b915091509091565b6000620043b47fd5742d56ce5b835fd585bb2fc168bcc37b550da4fd42422817a1699fdadd33de60001b6200353f565b620043e27f3bda71dcf6b7b8f4679ef720b5e7b43f994d70e3cac937c9634d7bbe54cef09760001b6200353f565b620044107f9fc22338451ccfd3c24c911386f84fbacb4f7202dbc201f23c1f604ab8fdaef260001b6200353f565b60d96200441c620080da565b905090565b6200442b620060da565b73ffffffffffffffffffffffffffffffffffffffff16606560009062004450620080da565b906101000a900473ffffffffffffffffffffffffffffffffffffffff1673ffffffffffffffffffffffffffffffffffffffff1614620044d1576040517f08c379a0000000000000000000000000000000000000000000000000000000008152600401620044bd9062009b3a565b60405180910390620044ce6200800b565b50505b620044ff7f1d5f721cb35f75d4ac51fa022cc8afdca3a8409e177213a43c8f9f72b045d71b60001b6200353f565b6200452d7f2a7757bcb330834002f9c79f8f7dd22d9e510a146351e94c968228ba9b642a0360001b6200353f565b6200455b7f6eb0721f29a863854d58df728b2bf9c1c4ee35b2ed2b87bb714874494246801f60001b6200353f565b620045668162007465565b50565b60d26020528060005260406000206000915062004585620080da565b906101000a900460ff1681565b620045c07f7400efbb2983ce0b07a712161471985f43e80154251418c1f14e54cc824fa5d960001b6200353f565b620045ee7fe2108c9b510e6bc9bbf2aacdf4637dda5f5ba1f43acb055c9a10a0bc521c72a260001b6200353f565b6200461c7f3a213bbc07145fb75bbd14143d2eeff7c56b658fc983177df249f141738ee29360001b6200353f565b6200464a7f1945d12ae1ab28f2e3ed7a2b3a42fa6b85340a8581b323cb284396f92165c24a60001b6200353f565b60ce60009062004659620080da565b906101000a900473ffffffffffffffffffffffffffffffffffffffff1673ffffffffffffffffffffffffffffffffffffffff165a620046976200807b565b73ffffffffffffffffffffffffffffffffffffffff1614620046fb576040517f08c379a0000000000000000000000000000000000000000000000000000000008152600401620046e79062009a08565b60405180910390620046f86200800b565b50505b620047297f59f49f62777915626c19d20f727a888eecbfc2bd28f7f94e1cdc47dfdf26250660001b6200353f565b620047577f43baf121f6188585c3dc7cebf1d3115d2ce4e6e42d952ff65479a4fca131363860001b6200353f565b620047857f13d7a33142b637726639bb2876267f6238d39856efcb76373bf6d16c47517ef960001b6200353f565b620047b37f27a67e4ab6e33ac3b0bec2ce60ee308b028b7b1ce542f6e699da03056625619f60001b6200353f565b620047e17f8dda48255a53c4ffa50b32331c7fd6561ee0d65bd76f96152f457fae81e6b5ba60001b6200353f565b6200480f7f74fa3e6a2f49524988844564daa7f8c2aaf263bb038a6ff1a9204478048d5a5e60001b6200353f565b6000151560cb60009062004822620080da565b906101000a900460ff161515146200487c576040517f08c379a0000000000000000000000000000000000000000000000000000000008152600401620048689062009bc2565b60405180910390620048796200800b565b50505b620048aa7f1d191c946081ba42551c3f3c3bd0ee2a9f3ae982831aed86ecbf9f367edd23c560001b6200353f565b620048d87fb6bfcc58b2d9248f148ad4c82a20c64235f96afe8c7723084e3a07fe04e8048d60001b6200353f565b620049067f6c52c8488bcbc093dc55a29ec68b75551c095a32ad213bec50dce23494ac94d260001b6200353f565b62004910620076cd565b565b600080620049437f2fb68855087a3d1c739ac9f9500aad867a60b4edbf6b2e68ae2b9cf19aa68f1160001b6200353f565b620049717fba140009ad85b5dea791a9885e4ce46afb7645aec25a436f04b1a77e1516e1c760001b6200353f565b6200499f7fd99e6496d25fa777a1b6918ddf0f299e9b2524269b732699a5c50a2dfd78f10860001b6200353f565b620049cd7f747f4fdcb146fabe3bff72b502c41967b5639b0310994ceef3173348072b41a160001b6200353f565b6001151560d160008573ffffffffffffffffffffffffffffffffffffffff1673ffffffffffffffffffffffffffffffffffffffff16815260200190815260200160002060009062004a1d620080da565b906101000a900460ff1615151462004a77576040517f08c379a000000000000000000000000000000000000000000000000000000000815260040162004a639062009be4565b6040518091039062004a746200800b565b50505b62004aa57f625bc37b98fdb076d324111c0ed6d969ff2301b2b228db56d13ccd2bf2b6d1cf60001b6200353f565b62004ad37f4831bc7af27cdd740acc7a657914897f5c9e410f499a47d2d93d033ffb5734b360001b6200353f565b62004b017f9397bb153a0b3d3ad04fc58bd7fadcbd519f7dcefc7cc2df21565c758798aaab60001b6200353f565b60d560008473ffffffffffffffffffffffffffffffffffffffff1673ffffffffffffffffffffffffffffffffffffffff16815260200190815260200160002062004b4a620080da565b60d660008573ffffffffffffffffffffffffffffffffffffffff1673ffffffffffffffffffffffffffffffffffffffff16815260200190815260200160002062004b93620080da565b91509150915091565b62004ba6620060da565b73ffffffffffffffffffffffffffffffffffffffff16606560009062004bcb620080da565b906101000a900473ffffffffffffffffffffffffffffffffffffffff1673ffffffffffffffffffffffffffffffffffffffff161462004c4c576040517f08c379a000000000000000000000000000000000000000000000000000000000815260040162004c389062009b3a565b6040518091039062004c496200800b565b50505b62004c7a7f5dcc8037e8f767a9a5e63f0004a9fe736f3a10e1aba4229b433e80014625302a60001b6200353f565b62004ca87fd89339c2ef71d0f88ce7ee93f5deda3691d0939a0cfe46cbb3c9e8538ac4af0e60001b6200353f565b62004cd67f54341bcefa6e50e2f251891366b1b302b4917d79591a41f92c7efafe570e46b260001b6200353f565b8060de819062004ce56200813f565b50505050565b60d560205280600052604060002060009150905062004d09620080da565b81565b60de62004d18620080da565b81565b600062004d4b7fe122b26ce3286ccec5649654011d6658fc4adefd08afea94cd8b7e778a09b14660001b6200353f565b62004d797fdf5f6b71eee917259bdd3f4c657737152b1b0419677aaff5e59af3dbcc439a1260001b6200353f565b62004da77f5f63579ecdd56933452980a1b8f7782e49c7af1c2db09268c4b905293701e3d060001b6200353f565b60d860008373ffffffffffffffffffffffffffffffffffffffff1673ffffffffffffffffffffffffffffffffffffffff16815260200190815260200160002060009062004df3620080da565b906101000a900460ff169050919050565b62004e327f7400efbb2983ce0b07a712161471985f43e80154251418c1f14e54cc824fa5d960001b6200353f565b62004e607fe2108c9b510e6bc9bbf2aacdf4637dda5f5ba1f43acb055c9a10a0bc521c72a260001b6200353f565b62004e8e7f3a213bbc07145fb75bbd14143d2eeff7c56b658fc983177df249f141738ee29360001b6200353f565b62004ebc7f1945d12ae1ab28f2e3ed7a2b3a42fa6b85340a8581b323cb284396f92165c24a60001b6200353f565b60ce60009062004ecb620080da565b906101000a900473ffffffffffffffffffffffffffffffffffffffff1673ffffffffffffffffffffffffffffffffffffffff165a62004f096200807b565b73ffffffffffffffffffffffffffffffffffffffff161462004f6d576040517f08c379a000000000000000000000000000000000000000000000000000000000815260040162004f599062009a08565b6040518091039062004f6a6200800b565b50505b62004f9b7f59f49f62777915626c19d20f727a888eecbfc2bd28f7f94e1cdc47dfdf26250660001b6200353f565b62004fc97f43baf121f6188585c3dc7cebf1d3115d2ce4e6e42d952ff65479a4fca131363860001b6200353f565b62004ff77f2647a793579c93e9b7d0e22a9d28195f212730f9623c82f8f41856e7bbd9e69160001b6200353f565b620050257fe9af8458dea5317047e3fa99535992e9e1d7895da1e7bd16076ea5d16d5ac42a60001b6200353f565b620050537ff0d47eeef7efc63a72f40c4911355585ff645ede53b5aaa5c787a1e701edcd6760001b6200353f565b620050817f93a0de4f72c078d93ace5131dac3d2031e05a6601decaeb6d69c3f52f5ff5e9460001b6200353f565b6001151560cb60009062005094620080da565b906101000a900460ff16151514620050ee576040517f08c379a0000000000000000000000000000000000000000000000000000000008152600401620050da9062009ab2565b60405180910390620050eb6200800b565b50505b6200511c7f85019d4d0e3d847f7187583362850e44ad9275183aae86feedfd795a3270d20360001b6200353f565b6200514a7fe5c186c12b1537ed26ca49c9850ef2b751d4e6818328feacb3a538f6b2ab86b960001b6200353f565b620051787f99d6ed0a090d369b1ffd0645ca1f1aeb3df12f5b3a2477ebe5c0b00c1ba8387360001b6200353f565b6200518262007788565b565b620051b27f7400efbb2983ce0b07a712161471985f43e80154251418c1f14e54cc824fa5d960001b6200353f565b620051e07fe2108c9b510e6bc9bbf2aacdf4637dda5f5ba1f43acb055c9a10a0bc521c72a260001b6200353f565b6200520e7f3a213bbc07145fb75bbd14143d2eeff7c56b658fc983177df249f141738ee29360001b6200353f565b6200523c7f1945d12ae1ab28f2e3ed7a2b3a42fa6b85340a8581b323cb284396f92165c24a60001b6200353f565b60ce6000906200524b620080da565b906101000a900473ffffffffffffffffffffffffffffffffffffffff1673ffffffffffffffffffffffffffffffffffffffff165a620052896200807b565b73ffffffffffffffffffffffffffffffffffffffff1614620052ed576040517f08c379a0000000000000000000000000000000000000000000000000000000008152600401620052d99062009a08565b60405180910390620052ea6200800b565b50505b6200531b7f59f49f62777915626c19d20f727a888eecbfc2bd28f7f94e1cdc47dfdf26250660001b6200353f565b620053497f43baf121f6188585c3dc7cebf1d3115d2ce4e6e42d952ff65479a4fca131363860001b6200353f565b620053777f60eec5f23273f27c312660047f2e4cbd91b5674ed835d92336a958f0b6e0936460001b6200353f565b620053a57f50f70e34f373ef51c069e6a20166f8551c2e4b2c2ca84b3a6b829777d917d2b960001b6200353f565b620053d37f594fe9e2857f4c4445b8ca15e41e2a9505a6b3b02d3158221360d5416c94ac0960001b6200353f565b620054017faa5eb1325ebf7174f3444bb0cf9f14d5bba3be76a3ed4c095abbae2e35f4c7cd60001b6200353f565b6200540c8162004d1b565b62005459576040517f08c379a0000000000000000000000000000000000000000000000000000000008152600401620054459062009ad4565b60405180910390620054566200800b565b50505b620054877fd14744a9e1e8cc648a5d5546cfa678aa15db715413eb3b55f08fadc145f961b960001b6200353f565b620054b57fe918f33c94e027b5698d91be9c8b92658ee0037a1bf7859baa4617d9a4f6684660001b6200353f565b620054e37fc1476bc91885b8dbfcd492e237d148bb940d1fb4c70a9613c78a20007b71d86f60001b6200353f565b600060d860008373ffffffffffffffffffffffffffffffffffffffff1673ffffffffffffffffffffffffffffffffffffffff16815260200190815260200160002060006101000a8162005535620080da565b8160ff021916908315150217906200554c6200813f565b5050506200557d7f1e3dc160d044135719edcee90509a08afe781e706c58204eccf2a6ad58fe595a60001b6200353f565b620055ab7fa6bac91ebfe687ddff605154f99b383550dfb729eb183993ab1fd6c0f27e73a660001b6200353f565b620055b68162007843565b620055e47f1f6874fcb8b5771d174832e6a87efa8c779d0eb3a4c9a0e2d9787da8b7ca35db60001b6200353f565b620056127f6b20f1dec7efee54c9cd61e681d2bad0e59abf882ae865ce2a15a463d253c1a360001b6200353f565b8073ffffffffffffffffffffffffffffffffffffffff167fe8b3c469b395bfd934168e4b7d14590c9cd1a6740533df170dbe3c219ff5a67460405160405180910390a250565b60d660205280600052604060002060009150905062005676620080da565b81565b62005683620060da565b73ffffffffffffffffffffffffffffffffffffffff166065600090620056a8620080da565b906101000a900473ffffffffffffffffffffffffffffffffffffffff1673ffffffffffffffffffffffffffffffffffffffff161462005729576040517f08c379a0000000000000000000000000000000000000000000000000000000008152600401620057159062009b3a565b60405180910390620057266200800b565b50505b620057577fbae7377326630552aa132a43ba747db05601c6177e0d135eb8f5b5ad2a1ae75f60001b6200353f565b620057857ff1cf5ed285b50ea54657ecccd0e7df1cbe8bb13bd6d16e7789f78c6fa5e1a63a60001b6200353f565b620057b37f31ee7d980eaa78223f08e6b178e100885eae3f882a745821345aed0147cf569460001b6200353f565b8060dd8190620057c26200813f565b50505050565b6000620057f87fb6acdc3dfcba07016032834a4b7715a32848cee4f5d6cbcd87a8670019a869ad60001b6200353f565b620058267f3e4d7c7ae0c721521cd25c197c270671fb55b11e44aa46bc77a12d6592b0c55d60001b6200353f565b620058547f1a08c17e0943d07be54ed09d32b51b7b756f59f4deb13ab4bbd4802d3ab7b38260001b6200353f565b60de62005860620080da565b905090565b6000620058957f1143d5a1b4591aa159b84662f43173a42b145e05554c722179cebd0301c1bc7860001b620018f2565b620058c37f7fb7737fb45c1821b07c557fb20a85aadb74abfd7f3aded638b0611c3878f6d060001b620018f2565b620058f17f07f7be0cc03938e4a6c9d302d53effe0e7eae1a64d4b1edf5979abc9b339a86360001b620018f2565b60018260ff161415620059bc576200592c7f3bfd26995be6062183f721e38810e2c9bfebc7ad890b3e816674514dfbd4ce0460001b620018f2565b6200595a7fa4bc4e8958b80529b950c944abce515a6833102afc7d29546e084ceaeeac2fa360001b620018f2565b620059887f766415bd328a2e95a18338562c7168b19c4dd1b548a40d49e53abbd30ca9a62e60001b620018f2565b609860009062005997620080da565b906101000a900473ffffffffffffffffffffffffffffffffffffffff16905062005a75565b620059ea7f5d679e34a2aad8f74e73e7ab55dfc78793cff6530c8b4b8dc405aa4adad233f760001b620018f2565b62005a187f71457a6ea18b3c979da1914061e140dc0c949de3f35c9b0a628acbb763d8accd60001b620018f2565b62005a467f8401e39548639acf85c7c4cdec175f887d2872c6f9f12027c85ed88bef40f80060001b620018f2565b609760009062005a55620080da565b906101000a900473ffffffffffffffffffffffffffffffffffffffff1690505b919050565b62005a84620060da565b73ffffffffffffffffffffffffffffffffffffffff16606560009062005aa9620080da565b906101000a900473ffffffffffffffffffffffffffffffffffffffff1673ffffffffffffffffffffffffffffffffffffffff161462005b2a576040517f08c379a000000000000000000000000000000000000000000000000000000000815260040162005b169062009b3a565b6040518091039062005b276200800b565b50505b62005b587f57c128d68e26037704a4c70a7507652efb195e3234f69ef68beaafe0f2e11fac60001b6200353f565b62005b867f415bd2ea1845c56d9d414e18d387fde8b1ba7884d900c176d6ad30947bab667060001b6200353f565b62005bb47f25bd85c0f645e25b54aa342745dac1e80492f22598d8c6f28eec67600fbbf46460001b6200353f565b62005bbf8162007599565b50565b62005bcc620060da565b73ffffffffffffffffffffffffffffffffffffffff16606560009062005bf1620080da565b906101000a900473ffffffffffffffffffffffffffffffffffffffff1673ffffffffffffffffffffffffffffffffffffffff161462005c72576040517f08c379a000000000000000000000000000000000000000000000000000000000815260040162005c5e9062009b3a565b6040518091039062005c6f6200800b565b50505b600073ffffffffffffffffffffffffffffffffffffffff168173ffffffffffffffffffffffffffffffffffffffff16141562005cf0576040517f08c379a000000000000000000000000000000000000000000000000000000000815260040162005cdc90620099c4565b6040518091039062005ced6200800b565b50505b8073ffffffffffffffffffffffffffffffffffffffff16606560009062005d16620080da565b906101000a900473ffffffffffffffffffffffffffffffffffffffff1673ffffffffffffffffffffffffffffffffffffffff167f8be0079c531659141344cd1fd0a4f28419497f9722a3daafe3b4186f6b6457e060405160405180910390a380606560006101000a8162005d89620080da565b8173ffffffffffffffffffffffffffffffffffffffff021916908373ffffffffffffffffffffffffffffffffffffffff1602179062005dc76200813f565b50505050565b60008082840190508381101562005e26576040517f08c379a000000000000000000000000000000000000000000000000000000000815260040162005e1290620099e6565b6040518091039062005e236200800b565b50505b8091505092915050565b62005e5e7f342406e69494bb0e255a51ff57aa24575af3e59588c1dfc132acd36b41261b1b60001b6200353f565b62005e8c7f44b4c1485369eb7fb283a1bc9e08913b6034e1d639d5f15e4cf6d31395f2f54360001b6200353f565b62005eba7f680b997295f2acedd9e8489bdc7b13fe056aaa7c299a54174e294d57319e02c160001b6200353f565b62005ee87faefd123c3c5ef44ce7645f65dffeaf18cc09658ddac57bc40ac1090ae677ecb160001b6200353f565b80821115801562005f04575060d362005f00620080da565b8211155b62005f51576040517f08c379a000000000000000000000000000000000000000000000000000000000815260040162005f3d9062009af6565b6040518091039062005f4e6200800b565b50505b62005f7f7f415058a19439964fb977d03516ada01b90de066445e88d9dc66b8aceacef114560001b6200353f565b62005fad7f655b6311a09e4029ec12d0da7b8599dc6056825a3a56866652576eba454e146360001b6200353f565b62005fdb7fbb4335a27bb3ef6ee5ef6d3f41152524abf87b588ba50c074ce90cca9955320660001b6200353f565b8160d560008573ffffffffffffffffffffffffffffffffffffffff1673ffffffffffffffffffffffffffffffffffffffff1681526020019081526020016000208190620060276200813f565b505050620060587f56969d6062e79b43f1429dc0248554d64a2d54ead25a9bd4b3b27f594c2bd2ea60001b6200353f565b620060867f6851d7029cb0a91f7c4b526c1c51b8665f983d9054fbb302409f3e967d56175660001b6200353f565b8060d660008573ffffffffffffffffffffffffffffffffffffffff1673ffffffffffffffffffffffffffffffffffffffff1681526020019081526020016000208190620060d26200813f565b505050505050565b60005a620060e76200807b565b905090565b6200611a7f855d763aef1b39257dcae983dd04987b5ff9866dd6905f3b104e1792ece84f6e60001b6200353f565b620061487f435db111e98734e0aefa4906d679f669f8666f8bb00371c06dbbc38f2fd7089d60001b6200353f565b620061767fb1863b11234e1bd3eee0e9b1973cc81b9c8ef44a89cd8e3f728fb89ada9f3b2260001b6200353f565b620061a47f0a61b69b2911146fe6be3390b5cb103172f4a0651380f29f62b8c556a2899b4c60001b6200353f565b600073ffffffffffffffffffffffffffffffffffffffff168473ffffffffffffffffffffffffffffffffffffffff16141562006222576040517f08c379a00000000000000000000000000000000000000000000000000000000081526004016200620e9062009a90565b604051809103906200621f6200800b565b50505b620062507fbb6a3a3b0546de76d2c9028dbf90836d08cfb3a63f165cb566b43107f0071b2c60001b6200353f565b6200627e7fcb521a197cbdcf55f8fe0569a292d42542085549a4e443f724edc9c3cf419dc660001b6200353f565b620062ac7f10f54a8c712ce9287f074d3a4bdc52c3873e09e74aea3de150ab0b19e4d662a760001b6200353f565b620062da7f93cf3df28d10c77ae46dbd7a6ea3b676667d2c391eff3fbb3b032be7385491d660001b6200353f565b600083839050116200632e576040517f08c379a00000000000000000000000000000000000000000000000000000000081526004016200631a9062009a2a565b604051809103906200632b6200800b565b50505b6200635c7fc178d8b74cf04c836a8487c51ac4e66d7651bfbc58d5daea89cf2165ecaa0e1d60001b6200353f565b6200638a7fe2a35425f0567d7b74c7e042d4a30bb9ba4d96134fa4d7568ad4a5708e88fe7360001b6200353f565b620063b87f2745a0a3a4b32985f3e01b73f8e3740c72556ca9d3776a36c4a57d0f78bae4b160001b6200353f565b606083838080601f016020809104026020016040519081016040528093929190818152602001838380828437600081840152601f19601f8201169050808301925050505050505090506200642f7fe7b4734b876cc6d676d89c05466d4ba28b58a4de4722f5b1452085f4ea1222f860001b6200353f565b600080825160208401885a6200644462008480565b50505050508015600181146200645a5762006471565b3d806000803e8060006200646d6200800b565b5050505b5050620064a17f79c928ffbfeb122b155f5053cedffff99979f29afbb4b8fe2dfbe513cdbb4e4f60001b6200353f565b620064cf7f127ce5edf3b958530701de780e4d15517ccd754ee54d8875ccc889a36cadbc8760001b6200353f565b8473ffffffffffffffffffffffffffffffffffffffff165a620064f16200807b565b73ffffffffffffffffffffffffffffffffffffffff167f78a9b536049c39a00adaf57016b1376c99dd48a0faf2cef23690232f21ce42cc60405160405180910390a3620065617f168911cd8d9446d3e3f10ad19cf117bb9eb5a1c62d06f45480ed33fb22fcf7c560001b6200353f565b6200658f7fdccc1d4aef95164b4302d30bf27751844f482e57aec2e1e4fd0553637b5e9bd760001b6200353f565b8160db60008773ffffffffffffffffffffffffffffffffffffffff1673ffffffffffffffffffffffffffffffffffffffff1681526020019081526020016000208190620065db6200813f565b5050505050505050565b620066137fe8903023a9fbeec754866a76ca67a78026dcc57ae058ce6bfa4637873c95468c60001b6200353f565b620066417ff167642ff75d69b90cc0ffe784a739194100d0d78e92dd2fc75722006cf1dc4660001b6200353f565b6200666f7f86195f918053d52c56d84ae41aced262feab0e4b966b2ed014c75a49b33ea2ca60001b6200353f565b8060da81906200667e6200813f565b50505050565b620066b27f1fb4ba669140d0e681751e780f11d51c806e2446224f797560dfc320b9fcab0460001b6200353f565b620066e07faa360f633d68197ddf3312d4a465f46b19739f9c38f308fcc9fbe7ce4f03786560001b6200353f565b6200670e7fa288fa9738442feb5a02ef3f1cee0ca39e7ced25dd098a8b64c93df6bf17630b60001b6200353f565b8060df60008473ffffffffffffffffffffffffffffffffffffffff1673ffffffffffffffffffffffffffffffffffffffff16815260200190815260200160002060006101000a816200675f620080da565b8173ffffffffffffffffffffffffffffffffffffffff021916908373ffffffffffffffffffffffffffffffffffffffff160217906200679d6200813f565b5050505050565b6000620067d47ff10185cd0d32b01e55ffad919700e420ebf45969f802dd4844b6adb9fe4245ff60001b620018f2565b620068027f452575f3dbc9b055907c1454b851e41d0a58d1ec5c0cca63eacfb6f8e0af594c60001b620018f2565b620068307fd97cd8becc495d079ac1b24a8cdf886194dbc38095e15c1bc1f75230e6327b8b60001b620018f2565b60006200683c62007963565b90506200686c7ffd7c25c5bb6de2e5149ea08c68ad5b056b4385130e4b820e2a7d815e94e10d7460001b620018f2565b6200689a7fa162ebabde26d8833b815c37ddaada19180822b340532793441b6e1fb74cb64a60001b620018f2565b7efffc2da0b561cae30d9826d37709e9421c4725faebc226cbbb7ef5fc5e734981604051620068ca919062009783565b60405180910390a1620069007f03752cdd70fa4705bf713a5479875c8eea8ff77194d53a57aa714213d233851d60001b620018f2565b6200692e7f2de4b0d1e3c0ea5b6cdabed25b05a31291a99ee19833dc6a10e3ad021f4e22fa60001b620018f2565b8073ffffffffffffffffffffffffffffffffffffffff1663e74a474a5a63996d79a5598160e01b8152602081600483336000905af158600e01573d6000803e3d6000fd5b3d6001141558600a015760016000f35b8051925060005b6040811015620069a55760008183015260208101905062006989565b50505086866040518463ffffffff1660e01b8152600401620069ca9392919062009902565b60006040518083038160008780620069e1620081a6565b158015620069f957600080620069f66200800b565b50505b505a62006a056200820b565b50505050505015801562006a28573d6000803e3d600062006a256200800b565b50505b5050505062006a5a7fca4c6424b11b303816a57c74574b8e2d69588b2fa9e7538dd5ff0001fa08303b60001b620018f2565b62006a887f9ce465b2199eb0deac7ad9b2e2ecfc4186c9182be82cd7110104867d42e46f3e60001b620018f2565b8091505092915050565b62006ac07f65b8ba13a3ff3c3ac945ab7e5304bae5605e9b1fb403a075ba7d8ee1dc811f4960001b62004090565b62006aee7f41a7384b83fa4f8430527df521307a530950e2cde55b87d52b4015bc5132106360001b62004090565b62006b1c7fd3904c2e4697610125791b77cbb4d45f2925909c57ffa4ce7f64013bcddd02d960001b62004090565b8060cc60008473ffffffffffffffffffffffffffffffffffffffff1673ffffffffffffffffffffffffffffffffffffffff16815260200190815260200160002060006101000a8162006b6d620080da565b8173ffffffffffffffffffffffffffffffffffffffff021916908373ffffffffffffffffffffffffffffffffffffffff1602179062006bab6200813f565b5050505050565b62006be07f36a679ea840c895120a2e5b2efd588f82d5c63292af4a2d3f07ce50d9166fb5560001b6200353f565b62006c0e7f70dbfb1c381b954cff847bb53ad2cbcaf2d1bc778cce1275c6f8c34833e023d860001b6200353f565b62006c3c7f48b3ae19671452f27b15c62556d50159fa992b459ec31eec19d32e16e6aa707d60001b6200353f565b62006c6a7faac6a4febde600e3cb62b5a4e20b2ab4c512350a0f34d225d858eb28382ea2ad60001b6200353f565b8082111562006cbb576040517f08c379a000000000000000000000000000000000000000000000000000000000815260040162006ca79062009af6565b6040518091039062006cb86200800b565b50505b62006ce97fa2a942ea703b68df76acaf78efdf3b89c4b823264f4d5a78cbf30aba63ef2b0c60001b6200353f565b62006d177f4d54a6565ca1bcfb4c481c6af51a8345ccc6b53ff6b27d8eea4f15d18423a55660001b6200353f565b62006d457f721c6adca17a27be9de9a6d4b369b28bcdea2bfc0364626c80d4fae8c1ae7dff60001b6200353f565b8160cf819062006d546200813f565b50505062006d857f6bfe09a8251838c030b10ecd8a681ae011d65fcdf07bf735178f0dbad99c096a60001b6200353f565b62006db37f0baf920f00970ad967f1dd72eb61cb61c352104b17227ec8f65060b4f37b018160001b6200353f565b8060d0819062006dc26200813f565b50505062006df37f852689c4c1c033178ade5673be84b01a8bef02568253fd866d55ed05306204ac60001b6200353f565b62006e217f9ca022657cd2e9a430ce49285b6d552bc278e3aa350825804b223d49b75fc59660001b6200353f565b7fb10da2958bf5ec1bff3164ff753a09e0460ed44d3abf73e79b817b500ed0f2f1828260405162006e5492919062009c23565b60405180910390a15050565b6000805a63996d79a5598160e01b8152602081600483336000905af158600e01573d6000803e3d6000fd5b3d6001141558600a015760016000f35b8051925060005b604081101562006ebe5760008183015260208101905062006ea2565b505050905060008162006ed0620081a6565b9050600081149250505090565b62006f0b7fb9cb73f0f1dc764c2853ad1b65ee338105d0109104c42b321091a6f8b1694f1c60001b620018f2565b62006f397f2e6d3f297656381ff53916f1621b8d18b343157b4e197ecc6eddf64334e59a0260001b620018f2565b62006f677fae688c57ebecca526117ae635d1834de0a5d61d9e9843a02b28a8308f9be631860001b620018f2565b62006f7162007b3f565b62006f9f7fe1b47dc8732dfcba0907aae1c1ee71bd45af4f1063050be9e12fe0fdbddc7d5160001b620018f2565b62006fcd7f82ac6b6154aea0b9f4fe594ab0dee8d836fcf58efca81278bd58858ed96526ba60001b620018f2565b81609760006101000a8162006fe1620080da565b8173ffffffffffffffffffffffffffffffffffffffff021916908373ffffffffffffffffffffffffffffffffffffffff160217906200701f6200813f565b505050620070507f7a065f23de9cd33361faaef687297c5fc76ad4f7836265087b5a027d5330213d60001b620018f2565b6200707e7f7b7fe28aa5caeac4859b2f2489c983990bebb2b9b257ab47b2e79abd3a8ff09160001b620018f2565b80609860006101000a8162007092620080da565b8173ffffffffffffffffffffffffffffffffffffffff021916908373ffffffffffffffffffffffffffffffffffffffff16021790620070d06200813f565b5050505050565b620071057f10ef6a2510f74c6f22fb2baceca42c01d35aad779a621771443b7c3260d78b6660001b6200353f565b620071337f9a064c295d231f678a5e1187b475c2358548dca5fd217e8d2d26ac7db1e075db60001b6200353f565b620071617fac74234fdfd93144b7ae515f62c06f360e62b2668a29b22a763ae0f73ca589e360001b6200353f565b8060ce60006101000a8162007175620080da565b8173ffffffffffffffffffffffffffffffffffffffff021916908373ffffffffffffffffffffffffffffffffffffffff16021790620071b36200813f565b505050620071e47f2091c26ef2d789c26d3304643e600d0e1b4dedfb501a446ef32fc7934a1a676660001b6200353f565b620072127fc436fed5490101d0e2ee4051d87e48fc1ada1293a36acd538d243833b944482160001b6200353f565b7ff1034ad6b4d45dc33a4142b9c51c2b7f89bf4a410696e426cc0f3224869e0aca8160405162007243919062009766565b60405180910390a150565b6200727c7f1c575746af7e540e79ee85b032758a21536a189f89213b3a85e066dc52b584a460001b6200353f565b620072aa7ff1f920a307a50a36537b60d3e1c042f7b5cbcaeb5693ff3f159af2adb05b194560001b6200353f565b620072d87f61ba8e81e777423d00e5f67eb9e284267d1d53343273addc0fc94106f158de6360001b6200353f565b620073067f61c93a27ac7596e5f97d1b4edd90e38d7e91da65fe8f66d8111b0fe35e67e8ff60001b6200353f565b8082111562007357576040517f08c379a0000000000000000000000000000000000000000000000000000000008152600401620073439062009af6565b60405180910390620073546200800b565b50505b620073857f67e1d051d3c327450c6503f595b95e7a6565f18691fc98b49629af779ac00bfb60001b6200353f565b620073b37f60269d4aeb359878c7ebbb3f8c344a394957371fbc04e4a67b0f139d80a2571f60001b6200353f565b620073e17fdf17c3f71d656f18557810364eeb2ae93e784f9429026cd1d62337425531449960001b6200353f565b8160d38190620073f06200813f565b505050620074217f4933be021fd2adc709912cdafb27dd5649f844b4bd922722deb4e6b83f3182cd60001b6200353f565b6200744f7fa39dc92616864639644a3b46e19bbdba1bad9ff078fd5522fd1fe365ad98d04260001b6200353f565b8060d481906200745e6200813f565b5050505050565b620074937fe7fa6a0317205cdf803a379b89b2fc4e599804b8df8c13dcc9e0d14567be2dc660001b6200353f565b620074c17f60030e53a650617adea526f25af8c82f6ac5fe68541685c241042a363743d4ca60001b6200353f565b620074ef7f347994dfdc5276dbc554301fb187bd464bc39e3c2628b26657435ff8312dc27960001b6200353f565b8060d78190620074fe6200813f565b5050506200752f7f7763f9f62ad19bbc718b177b3d272ab010056a399855da20459f69567fb714dd60001b6200353f565b6200755d7f251d1de899117aa1d7ab3f7bd793c31406d588b348bf8a5e35e2d461790076ca60001b6200353f565b7f20d916c976f3971e8200089411b0b712ef4612d98380b8ad2e3d8a8a376d85c7816040516200758e919062009c06565b60405180910390a150565b620075c77fc1bfae458180838daca9cd4267d8b7b242304c4b1ac52539f9955fe5f1bb42cb60001b6200353f565b620075f57fdaeb5f78b873ba8e5db3d7d7f35e549d84048dee19babf2f4eaa1d97de77e5dd60001b6200353f565b620076237f9fb1cc00577c4aeef30eaf9a60f5b13460dd02001b51589722d2250a1770842c60001b6200353f565b8060d98190620076326200813f565b505050620076637f34883371b518cb8cfd96f62b66378a9690b490cf6d528d108de618f95079413860001b6200353f565b620076917fcb17074d2e829f42d3c0dc5be1f219401ef0d35240da0605d7515254a6df161760001b6200353f565b7f0cd8fcb5e08d7632af461f0ad793e5c63dc0d7595c301f5880650175e37a874881604051620076c2919062009c06565b60405180910390a150565b620076fb7fea35926461ee1cef215cda88aa0d6256f19710d3cebacabc5c8898b89036424160001b62004090565b620077297f74d2362fc219b82d2b228efbbac9abd1fe838e27a21038af24eb7acd580acce960001b62004090565b620077577f16bfa8786b9c8f92d47960522d778a68e6e3ef71d541ad5611365c3e3d47c3d160001b62004090565b600160cb60006101000a816200776c620080da565b8160ff02191690831515021790620077836200813f565b505050565b620077b67fb2d4461d33186f530feb6a7e5978fd288d6f74d06c64fc39ed663a8e8cf7909c60001b62004090565b620077e47fd365d4d343587d482ec7d412e51fc04a10fe789507c4d8a79ef93e191f0df90560001b62004090565b620078127f2d2c3636722eb6fbdcebab6ed6475aae28dc2df5484eeaf47c28cb5f0127999660001b62004090565b600060cb60006101000a8162007827620080da565b8160ff021916908315150217906200783e6200813f565b505050565b620078717fd54aceb568470500091af65a65817031c94887d30944addaef45d1577d99794b60001b62004090565b6200789f7f5771cdf3db0ec96c3fbbd46a59ebaf4988f408568b52a5383ae4b877e5c143ca60001b62004090565b620078cd7f1428afb59d854d21b50a9869194f7bb9002fd6ca9bee3733ecf70576a824b93960001b62004090565b600060cc60008373ffffffffffffffffffffffffffffffffffffffff1673ffffffffffffffffffffffffffffffffffffffff16815260200190815260200160002060006101000a816200791f620080da565b8173ffffffffffffffffffffffffffffffffffffffff021916908373ffffffffffffffffffffffffffffffffffffffff160217906200795d6200813f565b50505050565b6000620079937f3940190827eb558ad6b1d44ff82221168c39bc44f403fc3d529f8aba2386ab4d60001b620018f2565b620079c17f1b259310ef1e70abab4c1e844ede1bb0fbb8ffabcd5e2f70da239bad98510f5a60001b620018f2565b620079ef7fafbab21fbc899c98449f981ef31500b08a1af01372472eaf018580f45d551f8660001b620018f2565b600062007a1f7fdb9fff4fde73c1ed0f8680713417bb0f0568630f45cfce917973d1c59088cae660001b620018f2565b62007a4d7fd828a6341362111ddb6024665e6aeac0a88623dfe906a0a3cb76e56e575034e360001b620018f2565b60606040518060200162007a61906200858b565b6020820181038252601f19601f82011660405250905062007aa57fa62261015c41296292b88cf310529fd06a5417b12e68e6bb5edcbc0f61786dcb60001b620018f2565b805160208201600062007ab762008599565b505091508162007ac6620081a6565b62007adb5760008062007ad86200800b565b50505b62007b097f2eb81550b2aacc241edeac9aac683667606473939fc8d0154cb0462199cecc0960001b620018f2565b62007b377f2f53c8c2fd6b635e81554cee9203f211c91a7ab1c31532db6164bd9b1ea3fab460001b620018f2565b819250505090565b600060019062007b4e620080da565b906101000a900460ff168062007b6a575062007b6962006e60565b5b8062007b8a575060008062007b7e620080da565b906101000a900460ff16155b62007bd7576040517f08c379a000000000000000000000000000000000000000000000000000000000815260040162007bc39062009b5c565b6040518091039062007bd46200800b565b50505b60008060019062007be7620080da565b906101000a900460ff16159050801562007c59576001600060016101000a8162007c10620080da565b8160ff0219169083151502179062007c276200813f565b50505060016000806101000a8162007c3e620080da565b8160ff0219169083151502179062007c556200813f565b5050505b62007c6362007ca6565b62007c6d62007df9565b801562007ca35760008060016101000a8162007c88620080da565b8160ff0219169083151502179062007c9f6200813f565b5050505b50565b600060019062007cb5620080da565b906101000a900460ff168062007cd1575062007cd062006e60565b5b8062007cf1575060008062007ce5620080da565b906101000a900460ff16155b62007d3e576040517f08c379a000000000000000000000000000000000000000000000000000000000815260040162007d2a9062009b5c565b6040518091039062007d3b6200800b565b50505b60008060019062007d4e620080da565b906101000a900460ff16159050801562007dc0576001600060016101000a8162007d77620080da565b8160ff0219169083151502179062007d8e6200813f565b50505060016000806101000a8162007da5620080da565b8160ff0219169083151502179062007dbc6200813f565b5050505b801562007df65760008060016101000a8162007ddb620080da565b8160ff0219169083151502179062007df26200813f565b5050505b50565b600060019062007e08620080da565b906101000a900460ff168062007e24575062007e2362006e60565b5b8062007e44575060008062007e38620080da565b906101000a900460ff16155b62007e91576040517f08c379a000000000000000000000000000000000000000000000000000000000815260040162007e7d9062009b5c565b6040518091039062007e8e6200800b565b50505b60008060019062007ea1620080da565b906101000a900460ff16159050801562007f13576001600060016101000a8162007eca620080da565b8160ff0219169083151502179062007ee16200813f565b50505060016000806101000a8162007ef8620080da565b8160ff0219169083151502179062007f0f6200813f565b5050505b600062007f1f620060da565b905080606560006101000a8162007f35620080da565b8173ffffffffffffffffffffffffffffffffffffffff021916908373ffffffffffffffffffffffffffffffffffffffff1602179062007f736200813f565b5050508073ffffffffffffffffffffffffffffffffffffffff16600073ffffffffffffffffffffffffffffffffffffffff167f8be0079c531659141344cd1fd0a4f28419497f9722a3daafe3b4186f6b6457e060405160405180910390a3508015620080085760008060016101000a8162007fed620080da565b8160ff02191690831515021790620080046200813f565b5050505b50565b632a2a7adb598160e01b8152600481016020815285602082015260005b868110156200804857808601518160408401015260208101905062008028565b506020828760640184336000905af158600e01573d6000803e3d6000fd5b3d6001141558600a015760016000f35b505050565b6373509064598160e01b8152602081600483336000905af158600e01573d6000803e3d6000fd5b3d6001141558600a015760016000f35b8051935060005b6040811015620080d557600081830152602081019050620080b9565b505050565b6303daa959598160e01b8152836004820152602081602483336000905af158600e01573d6000803e3d6000fd5b3d6001141558600a015760016000f35b8051935060005b60408110156200813a576000818301526020810190506200811e565b505050565b6322bd64c0598160e01b8152836004820152846024820152600081604483336000905af158600e01573d6000803e3d6000fd5b3d6001141558600a015760016000f35b60005b6040811015620081a15760008183015260208101905062008185565b505050565b638435035b598160e01b8152836004820152602081602483336000905af158600e01573d6000803e3d6000fd5b3d6001141558600a015760016000f35b8051935060005b60408110156200820657600081830152602081019050620081ea565b505050565b6385979f76598160e01b81526200824d565b6000819050818311156200822f578290505b92915050565b60008190508183101562008247578290505b92915050565b836004820152846024820152606060448201528760648201526084810160005b898110156200828a5780890151818301526020810190506200826d565b506060828a60a40184336000905af158600e01573d6000803e3d6000fd5b3d6001141558600a015760016000f35b815160408301513d6000853e8c8c82606087013350600060045af15059620082e18e3d62008235565b8d01620082ef81876200821d565b5b82811015620083095760008152602081019050620082f0565b50839e5050505050505050565b63bdbf8c36598160e01b8152602081600483336000905af158600e01573d6000803e3d6000fd5b3d6001141558600a015760016000f35b8051935060005b6040811015620083705760008183015260208101905062008354565b505050565b638540661f598160e01b8152620083b7565b60008190508183111562008399578290505b92915050565b600081905081831015620083b1578290505b92915050565b836004820152846024820152606060448201528660648201526084810160005b88811015620083f4578088015181830152602081019050620083d7565b506060828960a40184336000905af158600e01573d6000803e3d6000fd5b3d6001141558600a015760016000f35b815160408301513d6000853e8b8b82606087013350600060045af150596200844b8d3d6200839f565b8c0162008459818762008387565b5b828110156200847357600081526020810190506200845a565b50839d5050505050505050565b63ffe73914598160e01b8152620084c2565b600081905081831115620084a4578290505b92915050565b600081905081831015620084bc578290505b92915050565b836004820152846024820152606060448201528660648201526084810160005b88811015620084ff578088015181830152602081019050620084e2565b506060828960a40184336000905af158600e01573d6000803e3d6000fd5b3d6001141558600a015760016000f35b815160408301513d6000853e8b8b82606087013350600060045af15059620085568d3d620084aa565b8c0162008564818762008492565b5b828110156200857e576000815260208101905062008565565b50839d5050505050505050565b6118508062009fe983390190565b6314aa2ff7598160e01b8152600481016020815286602082015260005b87811015620085d6578087015181604084010152602081019050620085b6565b506020828860640184336000905af158600e01573d6000803e3d6000fd5b3d6001141558600a015760016000f35b8151965059825b818110156200862457600081526020810190506200860b565b5050505050565b6000813590506200863c8162009ee5565b92915050565b600082601f8301126200865f576000806200865c6200800b565b50505b813562008676620086708262009c89565b62009c50565b91508181835260208401935060208101905083856020840282011115620086a757600080620086a46200800b565b50505b60005b83811015620086db5781620086c088826200862b565b845260208401935060208301925050600181019050620086aa565b5050505092915050565b600082601f8301126200870257600080620086ff6200800b565b50505b813562008719620087138262009cbd565b62009c50565b915081818352602084019350602081019050838560408402820111156200874a57600080620087476200800b565b50505b60005b838110156200877e578162008763888262008936565b8452602084019350604083019250506001810190506200874d565b5050505092915050565b600081359050620087998162009f0a565b92915050565b600081519050620087b08162009f0a565b92915050565b600081359050620087c78162009f2f565b92915050565b60008083601f840112620087eb57600080620087e86200800b565b50505b8235905067ffffffffffffffff81111562008810576000806200880d6200800b565b50505b6020830191508360018202830111156200883457600080620088316200800b565b50505b9250929050565b600082601f8301126200885857600080620088556200800b565b50505b81356200886f620088698262009cf1565b62009c50565b915080825260208301602083018583830111156200889757600080620088946200800b565b50505b620088a483828462009e8f565b50505092915050565b600081519050620088be8162009f54565b92915050565b600082601f830112620088e157600080620088de6200800b565b50505b8135620088f8620088f28262009d29565b62009c50565b9150808252602083016020830185838301111562008920576000806200891d6200800b565b50505b6200892d83828462009e8f565b50505092915050565b6000604082840312156200895457600080620089516200800b565b50505b62008960604062009c50565b9050600062008972848285016200862b565b6000830152506020620089888482850162008788565b60208301525092915050565b600081359050620089a58162009f79565b92915050565b600081519050620089bc8162009f79565b92915050565b600081359050620089d38162009f9e565b92915050565b600081519050620089ea8162009fc3565b92915050565b60006020828403121562008a0e5760008062008a0b6200800b565b50505b600062008a1e848285016200862b565b91505092915050565b6000806040838503121562008a465760008062008a436200800b565b50505b600062008a56858286016200862b565b925050602062008a69858286016200862b565b9150509250929050565b600080600080600060a0868803121562008a975760008062008a946200800b565b50505b600062008aa7888289016200862b565b955050602062008aba888289016200862b565b945050604062008acd888289016200862b565b935050606086013567ffffffffffffffff81111562008af65760008062008af36200800b565b50505b62008b048882890162008642565b925050608086013567ffffffffffffffff81111562008b2d5760008062008b2a6200800b565b50505b62008b3b8882890162008642565b9150509295509295909350565b6000806040838503121562008b675760008062008b646200800b565b50505b600062008b77858286016200862b565b925050602062008b8a8582860162008994565b9150509250929050565b60006020828403121562008bb25760008062008baf6200800b565b50505b600062008bc2848285016200879f565b91505092915050565b600080600080600080600060e0888a03121562008bf25760008062008bef6200800b565b50505b600062008c028a828b0162008788565b975050602062008c158a828b016200862b565b965050604088013567ffffffffffffffff81111562008c3e5760008062008c3b6200800b565b50505b62008c4c8a828b01620088c4565b955050606088013567ffffffffffffffff81111562008c755760008062008c726200800b565b50505b62008c838a828b01620088c4565b945050608088013567ffffffffffffffff81111562008cac5760008062008ca96200800b565b50505b62008cba8a828b01620088c4565b93505060a062008ccd8a828b0162008994565b92505060c088013567ffffffffffffffff81111562008cf65760008062008cf36200800b565b50505b62008d048a828b01620086e5565b91505092959891949750929550565b60006020828403121562008d315760008062008d2e6200800b565b50505b600062008d4184828501620087b6565b91505092915050565b6000806040838503121562008d695760008062008d666200800b565b50505b600083013567ffffffffffffffff81111562008d8f5760008062008d8c6200800b565b50505b62008d9d858286016200883b565b925050602062008db085828601620089c2565b9150509250929050565b60006020828403121562008dd85760008062008dd56200800b565b50505b600062008de88482850162008994565b91505092915050565b6000806040838503121562008e105760008062008e0d6200800b565b50505b600062008e208582860162008994565b925050602062008e338582860162008994565b9150509250929050565b60008060008060008060a0878903121562008e625760008062008e5f6200800b565b50505b600062008e7289828a0162008994565b965050602062008e8589828a0162008994565b955050604062008e9889828a0162008994565b945050606062008eab89828a0162008994565b935050608087013567ffffffffffffffff81111562008ed45760008062008ed16200800b565b50505b62008ee289828a01620087cd565b92509250509295509295509295565b60006020828403121562008f0f5760008062008f0c6200800b565b50505b600062008f1f84828501620089c2565b91505092915050565b600080600080600060a0868803121562008f4c5760008062008f496200800b565b50505b600062008f5c88828901620089d9565b955050602062008f6f88828901620088ad565b945050604062008f8288828901620089ab565b935050606062008f9588828901620089ab565b925050608062008fa888828901620089d9565b9150509295509295909350565b600062008fc3838362009711565b60408301905092915050565b62008fda8162009e53565b82525050565b62008feb8162009dd2565b82525050565b62008ffc8162009dd2565b82525050565b60006200900f8262009d71565b6200901b818562009d9f565b9350620090288362009d61565b8060005b838110156200905f57815162009043888262008fb5565b9750620090508362009d92565b9250506001810190506200902c565b5085935050505092915050565b620090778162009de6565b82525050565b620090888162009de6565b82525050565b620090998162009df2565b82525050565b6000620090ac8262009d7c565b620090b8818562009db0565b9350620090ca81856020860162009e9e565b620090d58162009ed4565b840191505092915050565b6000620090ed8262009d87565b620090f9818562009dc1565b93506200910b81856020860162009e9e565b620091168162009ed4565b840191505092915050565b60006200913060128362009dc1565b91507f4e6f74206120706f6f6c206d616e6167657200000000000000000000000000006000830152602082019050919050565b600062009172600e8362009dc1565b91507f696e76616c696420626f756e64730000000000000000000000000000000000006000830152602082019050919050565b6000620091b460268362009dc1565b91507f4f776e61626c653a206e6577206f776e657220697320746865207a65726f206160008301527f64647265737300000000000000000000000000000000000000000000000000006020830152604082019050919050565b60006200921c601b8362009dc1565b91507f536166654d6174683a206164646974696f6e206f766572666c6f7700000000006000830152602082019050919050565b60006200925e60088362009dc1565b91507f6f6e6c792064616f0000000000000000000000000000000000000000000000006000830152602082019050919050565b6000620092a0600c8362009dc1565b91507f646174612d696e76616c696400000000000000000000000000000000000000006000830152602082019050919050565b6000620092e260148362009dc1565b91507f6d616e616765722066656520746f6f20686967680000000000000000000000006000830152602082019050919050565b60006200932460258362009dc1565b91507f5072696365436f6e73756d657256333a2061676772656761746f72206e6f742060008301527f666f756e640000000000000000000000000000000000000000000000000000006020830152604082019050919050565b60006200938c600e8362009dc1565b91507f7461726765742d696e76616c69640000000000000000000000000000000000006000830152602082019050919050565b6000620093ce602a8362009dc1565b91507f5072696365436f6e73756d657256333a20636861696e6c696e6b20616c72656160008301527f647920656e61626c6564000000000000000000000000000000000000000000006020830152604082019050919050565b60006200943660138362009dc1565b91507f617373657420646f65736e2774206578697374000000000000000000000000006000830152602082019050919050565b60006200947860108362009dc1565b91507f696e76616c6964206672616374696f6e000000000000000000000000000000006000830152602082019050919050565b6000620094ba60248362009dc1565b91507f5072696365436f6e73756d657256333a207072696365206e6f7420617661696c60008301527f61626c65000000000000000000000000000000000000000000000000000000006020830152604082019050919050565b60006200952260208362009dc1565b91507f4f776e61626c653a2063616c6c6572206973206e6f7420746865206f776e65726000830152602082019050919050565b600062009564602e8362009dc1565b91507f436f6e747261637420696e7374616e63652068617320616c726561647920626560008301527f656e20696e697469616c697a65640000000000000000000000000000000000006020830152604082019050919050565b6000620095cc60148362009dc1565b91507f617373657420616c7265616479206578697374730000000000000000000000006000830152602082019050919050565b60006200960e60288362009dc1565b91507f5072696365436f6e73756d657256333a20636861696e6c696e6b20707269636560008301527f20657870697265640000000000000000000000000000000000000000000000006020830152604082019050919050565b60006200967660268362009dc1565b91507f5072696365436f6e73756d657256333a20636861696e6c696e6b206e6f74206560008301527f6e61626c656400000000000000000000000000000000000000000000000000006020830152604082019050919050565b6000620096de601e8362009dc1565b91507f737570706c6965642061646472657373206973206e6f74206120706f6f6c00006000830152602082019050919050565b60408201600082015162009729600085018262008fe0565b5060208201516200973e60208501826200906c565b50505050565b6200974f8162009e26565b82525050565b620097608162009e30565b82525050565b60006020820190506200977d600083018462008ff1565b92915050565b60006020820190506200979a600083018462008fcf565b92915050565b6000608082019050620097b7600083018762008ff1565b620097c6602083018662008ff1565b8181036040830152620097da8185620090e0565b90508181036060830152620097f0818462009002565b905095945050505050565b600060a08201905062009812600083018862008ff1565b6200982160208301876200907d565b8181036040830152620098358186620090e0565b905081810360608301526200984b8185620090e0565b90506200985c608083018462008ff1565b9695505050505050565b6000610100820190506200987e600083018b62008ff1565b6200988d602083018a6200907d565b8181036040830152620098a18189620090e0565b90508181036060830152620098b78188620090e0565b9050620098c8608083018762008ff1565b620098d760a083018662009744565b620098e660c083018562009744565b620098f560e083018462009744565b9998505050505050505050565b600060608201905062009919600083018662008ff1565b81810360208301526200992d81856200909f565b90506200993e604083018462009755565b949350505050565b60006020820190506200995d60008301846200907d565b92915050565b60006020820190506200997a60008301846200908e565b92915050565b600060208201905081810360008301526200999b8162009121565b9050919050565b60006020820190508181036000830152620099bd8162009163565b9050919050565b60006020820190508181036000830152620099df81620091a5565b9050919050565b6000602082019050818103600083015262009a01816200920d565b9050919050565b6000602082019050818103600083015262009a23816200924f565b9050919050565b6000602082019050818103600083015262009a458162009291565b9050919050565b6000602082019050818103600083015262009a6781620092d3565b9050919050565b6000602082019050818103600083015262009a898162009315565b9050919050565b6000602082019050818103600083015262009aab816200937d565b9050919050565b6000602082019050818103600083015262009acd81620093bf565b9050919050565b6000602082019050818103600083015262009aef8162009427565b9050919050565b6000602082019050818103600083015262009b118162009469565b9050919050565b6000602082019050818103600083015262009b3381620094ab565b9050919050565b6000602082019050818103600083015262009b558162009513565b9050919050565b6000602082019050818103600083015262009b778162009555565b9050919050565b6000602082019050818103600083015262009b9981620095bd565b9050919050565b6000602082019050818103600083015262009bbb81620095ff565b9050919050565b6000602082019050818103600083015262009bdd8162009667565b9050919050565b6000602082019050818103600083015262009bff81620096cf565b9050919050565b600060208201905062009c1d600083018462009744565b92915050565b600060408201905062009c3a600083018562009744565b62009c49602083018462009744565b9392505050565b6000604051905081810181811067ffffffffffffffff8211171562009c7f5760008062009c7c6200800b565b50505b8060405250919050565b600067ffffffffffffffff82111562009cac5760008062009ca96200800b565b50505b602082029050602081019050919050565b600067ffffffffffffffff82111562009ce05760008062009cdd6200800b565b50505b602082029050602081019050919050565b600067ffffffffffffffff82111562009d145760008062009d116200800b565b50505b601f19601f8301169050602081019050919050565b600067ffffffffffffffff82111562009d4c5760008062009d496200800b565b50505b601f19601f8301169050602081019050919050565b6000819050602082019050919050565b600081519050919050565b600081519050919050565b600081519050919050565b6000602082019050919050565b600082825260208201905092915050565b600082825260208201905092915050565b600082825260208201905092915050565b600062009ddf8262009e06565b9050919050565b60008115159050919050565b6000819050919050565b6000819050919050565b600073ffffffffffffffffffffffffffffffffffffffff82169050919050565b6000819050919050565b600060ff82169050919050565b600069ffffffffffffffffffff82169050919050565b600062009e608262009e67565b9050919050565b600062009e748262009e7b565b9050919050565b600062009e888262009e06565b9050919050565b82818337600083830152505050565b60005b8381101562009ebe57808201518184015260208101905062009ea1565b8381111562009ece576000848401525b50505050565b6000601f19601f8301169050919050565b62009ef08162009dd2565b811462009f075760008062009f046200800b565b50505b50565b62009f158162009de6565b811462009f2c5760008062009f296200800b565b50505b50565b62009f3a8162009df2565b811462009f515760008062009f4e6200800b565b50505b50565b62009f5f8162009dfc565b811462009f765760008062009f736200800b565b50505b50565b62009f848162009e26565b811462009f9b5760008062009f986200800b565b50505b50565b62009fa98162009e30565b811462009fc05760008062009fbd6200800b565b50505b50565b62009fce8162009e3d565b811462009fe55760008062009fe26200800b565b50505b5056fe60806040523480156100195760008061001661001f565b50505b5061008d565b632a2a7adb598160e01b8152600481016020815285602082015260005b8681101561005a57808601518160408401015260208101905061003c565b506020828760640184336000905af158600e01573d6000803e3d6000fd5b3d6001141558600a015760016000f35b505050565b6117b48061009c6000396000f3fe6080604052600436106100435760003560e01c806399fcc3af1461010c5780639fca148914610159578063a4d57bee146101a6578063e74a474a146101f35761007e565b3661007e576100747fc6b4e05c8886da748779e3730e8c17790f4949c297c98f69c0e25769046b382860001b6102ff565b61007c610302565b005b6100aa7f7cac60e495c25cc9e216dd3d679b6fd06d90acd829d30d51b0b95c15961f9ce860001b6102ff565b6100d67fa498bb8916b0b37a35deaa8b1accf938c042e340ce4efc8012c9bc9f2d9a158260001b6102ff565b6101027fb98f83d464d19b3956a82d774c19111c6b015ef12927ca07b8c336ee6ed5c83260001b6102ff565b61010a610302565b005b3480156101215760008061011e61141b565b50505b50610157600480360360208110156101415760008061013e61141b565b50505b81019080803590602001909291905050506102ff565b005b34801561016e5760008061016b61141b565b50505b506101a46004803603602081101561018e5760008061018b61141b565b50505b81019080803590602001909291905050506103f8565b005b3480156101bb576000806101b861141b565b50505b506101f1600480360360208110156101db576000806101d861141b565b50505b81019080803590602001909291905050506103fb565b005b6102fd600480360360608110156102125760008061020f61141b565b50505b81019080803573ffffffffffffffffffffffffffffffffffffffff169060200190929190803590602001906401000000008111156102585760008061025561141b565b50505b8201836020820111156102735760008061027061141b565b50505b8035906020019184600183028401116401000000008311171561029e5760008061029b61141b565b50505b91908080601f016020809104026020016040519081016040528093929190818152602001838380828437600081840152601f19601f820116905080830192505050505050509192919290803560ff1690602001909291905050506103fe565b005b50565b61032e7fcc50f323444403c69b72c742f10568fd580356f98ea0b8a61244432b4b8329aa60001b6102ff565b61035a7f91459de950b72cb048d7c2381f9b9aa525ffd2583f54ee2b5d56207fdd63c5f260001b6102ff565b6103867f2a63a560972ad1e96b63734e142fb213f07cc296632536b43fa61424677948a660001b6102ff565b61038e610a0e565b6103ba7f77edd1b383a85548630fa7bfd95f57342f38b1ebd03fe4ad3dbba6c3b573793560001b6102ff565b6103e67fb07c5e61b7983b69d2f2e8e63be5cea8d7d53b55b03a0cf98e73a5d19bd6ae6e60001b6102ff565b6103f66103f1610a3c565b610dbb565b565b50565b50565b61042a7f3a2cb568b5f0c02143f547f22155e22d641ae73b092cf7be91b2a48baf5d27b660001b6103fb565b6104567f77b59016394b667c232007d5d7f351405335dadba38fd8efce4f3dfb78997e1d60001b6103fb565b6104827f4808f7f9c1c39002a44520b8cdbe298ebcfcd1cebba3ddda7c3c306fca2cba8060001b6103fb565b6104ae7f7a97ee10ea7a8eda5e03c8bc7e3f193cb948f9814608c10ad1de4b1b88f60c3760001b6103fb565b600073ffffffffffffffffffffffffffffffffffffffff166104ce610a3c565b73ffffffffffffffffffffffffffffffffffffffff1614610560576040517f08c379a000000000000000000000000000000000000000000000000000000000815260040180806020018281038252600d8152602001807f496d706c206e6f74207a65726f000000000000000000000000000000000000008152506020019150506040518091039061055d61141b565b50505b61058c7f3a215253b6e6c1dba9e36d7e09433efb0eaab4fbd542af9a2ad7275c15ea576a60001b6103fb565b6105b87f8e03d80b97a7e1e6eb80137f094a73f60a308817bab257efd2f68722745dcaea60001b6103fb565b6105e47f8de64bd6bbf8d5a366f32c7e120e3cc8c821adb94ed23cb745cfd0bf7f90fff560001b6103fb565b60017f360894a13ba1a3210667c828492db98dca3e2076cc3735a920a3ca505d382bbd60001c0360001b7f360894a13ba1a3210667c828492db98dca3e2076cc3735a920a3ca505d382bbc60001b1461063957fe5b6106657f1bfe6fc8a642589c190af97973b30fc181f621e68ea3fc530134f2c9960d66c760001b6103fb565b6106917f26da551a6a926ba9dba93b2820059c1008c782601820a25d21c2a8ee4b4d024560001b6103fb565b61069a83610e52565b6106c67f062aa06dbe01d194bba31b85e273757d6336e6bf1e87409032d1fc917f1a731760001b6103fb565b6106f27f7e21962afbd4b7de92ac7eeae1bb8c663e2b123195c725e12fb5d71f3863a03160001b6103fb565b6106fb8161106e565b6107277ff6e6b478580a83b05883b3e7feb1d09ce95b547c04198ba48de5aee8183acc5e60001b6103fb565b6107537f8965cdf8c1d2f0888f33a3d43c74902372c94e17b01677d6a81c030f4671307b60001b6103fb565b6000825111156109dc576107897f115c9352b821f67eac063ff66d255887a6023e7ed2a2043aca73dbe8fb47bd8360001b6103fb565b6107b57fbff092917c7b1f4508c4411509a64a2e7be6129d44ca4eb9111fb0e4a900910f60001b6103fb565b6107e17f3f21e28976af0f6f8446da03b470231c7db787d35cec72dc33011588a197501660001b6103fb565b60006107eb610a3c565b73ffffffffffffffffffffffffffffffffffffffff16836040518082805190602001908083835b602083106108355780518252602082019150602081019050602083039250610812565b6001836020036101000a038019825116818451168082178552505050505050905001915050600060405180830381855a61086d611489565b50505050509150503d80600081146108a1576040519150601f19603f3d011682016040523d82523d6000602084013e6108a6565b606091505b505090506108d67f23de363b5e338d9543c99d138b972416e84bfdbb99e884708202df8ce169a3c960001b6103fb565b6109027f015f525def9afaa0242af4bbb13399182ea70edcc69e6160e0f3222180acf68460001b6103fb565b61092e7f1cc7ae8bc4414ecccd28794dbd32704e951176f54b750d298ea49ccaf9afa56060001b6103fb565b806109aa576040517f08c379a000000000000000000000000000000000000000000000000000000000815260040180806020018281038252601a8152602001807f496d706c656d656e746174696f6e20696e6974206661696c6564000000000000815250602001915050604051809103906109a761141b565b50505b6109d67f0851853b63f6d8b4dbb98458c7ed10f33f41bb03b22e873c1091d57429c6e39360001b6103fb565b50610a09565b610a087f4e41306208c109d267c3db0a422978c4db16e863c7ebbc6603365e29c547b5b060001b6103fb565b5b505050565b610a3a7f276b633fb1946cc03b9c844674afbbfa8f3e77bc0ffafeb39b77dabc1886667560001b6102ff565b565b6000610a6a7f077de034f5c7298f11d849c35541287460ab2175e9265eed7f948784b84b95e260001b6103f8565b610a967feb5666e3ff94584d3f43ed9d4226fb55c9d5fd656f201fc448d94a7cce59b0fd60001b6103f8565b610ac27fec433353424e2aa184bc7059a893e4fab799c68e834318eccef10e441687f7f360001b6103f8565b6000610af07f53ce0dd4617f9997965c4e7a52f203163a3f5c80d8f29d8c471110aca611c11660001b6103f8565b610b1c7f76c6db1ab825a57a577f977ff80e0f30540ebcfa89671fe345afaa15aff79ae960001b6103f8565b60007f360894a13ba1a3210667c828492db98dca3e2076cc3735a920a3ca505d382bbc60001b9050610b707fa5793ed3e454c6da632434d6ad8ba3e21aadb69ec0eaaf4673ec86a9b565275560001b6103f8565b80610b79611589565b9150610ba77fdd8e92d4de16353bc86e626af17fe8b09f1a11017635c855fb0a7fadc4baf2dd60001b6103f8565b610bd37f3f022d8f69f42c34354a868b842611bc7e9f34010c7962d6223657785b28042860001b6103f8565b600073ffffffffffffffffffffffffffffffffffffffff168273ffffffffffffffffffffffffffffffffffffffff161415610c6b57610c347f173b1db32db0581166a1cec716d6f825d30035adb4043fa1faf667f6e1ba39f460001b6103f8565b610c607f1b2cc020f945581b6d8d02f38ca4e6283cf5fa2b06ac14a640cb20689274816760001b6103f8565b600092505050610db8565b610c977fbea1bee21992abdd1abf0c189d41f808e091c05595bbba731a69bc489fdcf68e60001b6103f8565b610cc37f6f9f753bde1a19cfbaba68d5a9e501237dec3e9ffd52d9f8cd9263cdec9ad2b560001b6103f8565b610cef7fc3f9a96809e79305f42491aae649f233d7b0c9bf585bb625e37e63514c3507c860001b6103f8565b8173ffffffffffffffffffffffffffffffffffffffff1663ecef89d5610d13611156565b6040518263ffffffff1660e01b8152600401808260ff1681526020019150506020604051808303818680610d456115ec565b158015610d5a57600080610d5761141b565b50505b505a610d6461164f565b5050505050158015610d83573d6000803e3d6000610d8061141b565b50505b505050506040513d6020811015610da257600080610d9f61141b565b50505b8101908080519060200190929190505050925050505b90565b610de77f6553b3bbf61b84602ae382fedcbbf6290bc154e245b87926d62e3f86240a4bf260001b6102ff565b610e137fde788fbfc1fb399d6b655d570b484725b445d3bb4cf78879e20863a893557b0060001b6102ff565b3660008037600080366000845a610e28611489565b50505050503d6000803e8060008114610e40573d6000f35b3d6000610e4b61141b565b5050505050565b610e7e7f91eb2693086155afa1a63324ebcb4f2967f172d990060602d776bb717f04d54660001b6103f8565b610eaa7f629ad5a2c2f16cfad67fc9298c8549c3b857d49865451687ff0926b6fa8885c660001b6103f8565b610ed67fe1c0a344e7e819566bfd4ab41d97f31d1409abbc35ee34d7b4f5161435de78e560001b6103f8565b610f027f7ab470c380fc0752790480bda347ca04794e83e6222fc0021fccf1cc82a7f62560001b6103f8565b610f0b816112f5565b610f86576040517f08c379a00000000000000000000000000000000000000000000000000000000081526004018080602001828103825260208152602001807f43616e6e6f742073657420696d706c656d656e746174696f6e20746f20454f4181525060200191505060405180910390610f8361141b565b50505b610fb27f70accb29c12468c14362f4b65efb2efa6adf4a1a2aab7e801bde3a803939c05560001b6103f8565b610fde7f6455548ba1bb40a10c79cb9b45afb5f85aea883cd4416e069ce504078869386160001b6103f8565b61100a7f9dde5da54c56e76ac05f69b0d6cfc5337cb767b4473dbbf71901fd6fed42972f60001b6103f8565b60007f360894a13ba1a3210667c828492db98dca3e2076cc3735a920a3ca505d382bbc60001b905061105e7fee9707930db6602f53581706bde146ff5c1089a64af5fbb50c5be9e9b7f96ab960001b6103f8565b818161106861174f565b50505050565b61109a7fbc81e88c2edd168034892c20512aa682a4868d292d05737b3dffa83cad7037dc60001b6103f8565b6110c67f987d71e7dc06ab5c788f4c9a0129e58572dd551161646eadafc6681843482b3860001b6103f8565b6110f27f64f8535121c0c8606762fc4f486ebb7f5b493d79a2c012479e94427203f1aa3460001b6103f8565b60007f100000000000000000000000000000000000000000000000000000000000000060001b90506111467f6824280e261c39488edbfa7a475a691b312d5c522dfa40bf9f6ae2b79bd6840f60001b6103f8565b818161115061174f565b50505050565b60006111847f9678d93bcdb7e8ebd2d49fa07be99cbcb83c3977ae8ad3058c2ea2daaefab51e60001b6103f8565b6111b07ff18a944a5a9a44a81768adb2f6707f7dc7b98dad5f0f42f84fb5f333a3acf1b360001b6103f8565b6111dc7f3faeaf931136d7c21b99a41ba1c4022c5eef76d609e347679d6dfbf3d117b0ec60001b6103f8565b600061120a7f9e8b25b038102415cca03a970994a70109eeef5e5be0f613784662482e2e19c660001b6103f8565b6112367fdd8cdda75d04b380d725cdb7fa79f7cc8829c6d1df58515e90bfa757016b8a5a60001b6103f8565b60007f100000000000000000000000000000000000000000000000000000000000000060001b905061128a7f45c698179387c7d3079bd5738e6b04085f039528bec62a361fcd921001601bae60001b6103f8565b80611293611589565b91506112c17f1e9bce0245cc028ace68fe7e6ef5e100315b0879da647cb93eb9c121d3d832b760001b6103f8565b6112ed7f0ec1f28fb7f1c508d86cd00feb7f41ae8d18bfa0c5d0ac20d867bce5a8fccc6460001b6103f8565b819250505090565b60006113237f17b6a0c44ed2f5553cfcbcfdac44c59dff4727457b669adb5d55bd0063077d8b60001b611418565b61134f7f2748d44997f6bf7fba63b3249775817425de6f3bc535ba457f02b96c476714e660001b611418565b61137b7f4d9960f45a6cd5d5a67ffbf0fec1c641e98a7a63e9fd82635c7d94436118ceb260001b611418565b60006113a97f2da09769987cc7b599e1411a5c3604dd9825e89e29a9890444d270d86d9121b260001b611418565b826113b26115ec565b90506113e07fb8684c3fbea589324b71d8ac61740117361d861f5b224982f3a2d46349b3a39060001b611418565b61140c7f2ba6b82a203e9740df351b6f679eff0e15187876af68dd271196c030bd5660d260001b611418565b60008111915050919050565b50565b632a2a7adb598160e01b8152600481016020815285602082015260005b86811015611456578086015181604084010152602081019050611438565b506020828760640184336000905af158600e01573d6000803e3d6000fd5b3d6001141558600a015760016000f35b505050565b63ffe73914598160e01b81526114c8565b6000819050818311156114ab578290505b92915050565b6000819050818310156114c2578290505b92915050565b836004820152846024820152606060448201528660648201526084810160005b888110156115035780880151818301526020810190506114e8565b506060828960a40184336000905af158600e01573d6000803e3d6000fd5b3d6001141558600a015760016000f35b815160408301513d6000853e8b8b82606087013350600060045af150596115588d3d6114b1565b8c01611564818761149a565b5b8281101561157c5760008152602081019050611565565b50839d5050505050505050565b6303daa959598160e01b8152836004820152602081602483336000905af158600e01573d6000803e3d6000fd5b3d6001141558600a015760016000f35b8051935060005b60408110156115e7576000818301526020810190506115cd565b505050565b638435035b598160e01b8152836004820152602081602483336000905af158600e01573d6000803e3d6000fd5b3d6001141558600a015760016000f35b8051935060005b604081101561164a57600081830152602081019050611630565b505050565b638540661f598160e01b815261168e565b600081905081831115611671578290505b92915050565b600081905081831015611688578290505b92915050565b836004820152846024820152606060448201528660648201526084810160005b888110156116c95780880151818301526020810190506116ae565b506060828960a40184336000905af158600e01573d6000803e3d6000fd5b3d6001141558600a015760016000f35b815160408301513d6000853e8b8b82606087013350600060045af1505961171e8d3d611677565b8c0161172a8187611660565b5b82811015611742576000815260208101905061172b565b50839d5050505050505050565b6322bd64c0598160e01b8152836004820152846024820152600081604483336000905af158600e01573d6000803e3d6000fd5b3d6001141558600a015760016000f35b60005b60408110156117af57600081830152602081019050611795565b50505056",
  "deployedBytecode": "0x60806040523480156200001c57600080620000196200800b565b50505b5060043610620002df5760003560e01c80638b2f0f4f1162000194578063bcb01f4411620000ec578063e60eb412116200009e578063e60eb41214620008e0578063e99c0fa61462000916578063ebee461d1462000936578063ecef89d51462000958578063eec16c44146200098e578063f2fde38b14620009ae57620002df565b8063bcb01f441462000806578063bee37e521462000826578063bfeaf71d146200085c578063cc435bf3146200087e578063d54e96d214620008b4578063dc76d25414620008c057620002df565b80639cada6e411620001465780639cada6e41462000728578063aa12ae4d146200074b578063aa7d664e146200076d578063b193a5f4146200078d578063b280600114620007c3578063b7a5452614620007cf57620002df565b80638b2f0f4f14620006375780638da5cb5b146200066d57806393eff36c146200068f57806394d0d23b14620006af5780639a068bd614620006d25780639a3cac6a146200070857620002df565b806349f7c02d1162000248578063742a96cd11620001fa578063742a96cd1462000561578063771d1baf146200058157806378a86e3a14620005a1578063790fcf9f14620005d757806379aa658114620005f7578063808ae5fb146200061757620002df565b806349f7c02d146200046f5780635556ee5514620004915780635b16ebb714620004c75780635c9bfc2b14620004fd5780637027ea6c146200051f578063715018a6146200055557620002df565b80631e666d1311620002a25780631e666d1314620003975780631e8e8bca14620003b7578063227773ee14620003d757806338158ac014620003f75780634501b088146200041757806345812ca5146200043957620002df565b8063046b72c414620002ef5780630bf99bd9146200030f5780630f6559c4146200033157806310bf69dc14620003535780631d68702d1462000375575b600080620002ec6200800b565b50505b6200030d600480360381019062000307919062008b48565b620009ce565b005b6200031962000f0e565b60405162000328919062009c06565b60405180910390f35b6200033b62000fae565b6040516200034a919062009c06565b60405180910390f35b6200035d62000fbd565b6040516200036c919062009c06565b60405180910390f35b6200037f62000fcc565b6040516200038e919062009766565b60405180910390f35b620003b56004803603810190620003af919062008e3d565b62001089565b005b620003d56004803603810190620003cf919062008d13565b6200154b565b005b620003f56004803603810190620003ef919062008a27565b62001693565b005b6200041560048036038101906200040f919062008d13565b620018f2565b005b62000421620018f5565b60405162000430919062009c06565b60405180910390f35b62000457600480360381019062000451919062008d4a565b62001992565b60405162000466919062009766565b60405180910390f35b6200047962001a32565b60405162000488919062009963565b60405180910390f35b620004af6004803603810190620004a99190620089f0565b62001acf565b604051620004be919062009c06565b60405180910390f35b620004e56004803603810190620004df9190620089f0565b62001af0565b604051620004f4919062009946565b60405180910390f35b6200050762001b19565b60405162000516919062009c06565b60405180910390f35b6200053d6004803603810190620005379190620089f0565b62001bb6565b6040516200054c919062009766565b60405180910390f35b6200055f62001cb2565b005b6200057f600480360381019062000579919062008a27565b62001e40565b005b6200059f600480360381019062000599919062008df1565b62002317565b005b620005bf6004803603810190620005b9919062008bcb565b62002461565b604051620005ce919062009766565b60405180910390f35b620005f56004803603810190620005ef919062008a73565b62002df5565b005b6200061560048036038101906200060f919062008d13565b6200353f565b005b6200063560048036038101906200062f919062008a27565b62003542565b005b6200065560048036038101906200064f9190620089f0565b62003786565b60405162000664919062009c06565b60405180910390f35b620006776200405d565b60405162000686919062009766565b60405180910390f35b620006ad6004803603810190620006a7919062008d13565b62004090565b005b620006b962004093565b604051620006c992919062009c23565b60405180910390f35b620006f06004803603810190620006ea919062008dba565b62004140565b604051620006ff919062009766565b60405180910390f35b620007266004803603810190620007209190620089f0565b6200418f565b005b62000732620042d7565b6040516200074292919062009c23565b60405180910390f35b6200075562004384565b60405162000764919062009c06565b60405180910390f35b6200078b600480360381019062000785919062008dba565b62004421565b005b620007ab6004803603810190620007a59190620089f0565b62004569565b604051620007ba919062009946565b60405180910390f35b620007cd62004592565b005b620007ed6004803603810190620007e79190620089f0565b62004912565b604051620007fd92919062009c23565b60405180910390f35b6200082460048036038101906200081e919062008dba565b62004b9c565b005b6200084460048036038101906200083e9190620089f0565b62004ceb565b60405162000853919062009c06565b60405180910390f35b6200086662004d0c565b60405162000875919062009c06565b60405180910390f35b6200089c6004803603810190620008969190620089f0565b62004d1b565b604051620008ab919062009946565b60405180910390f35b620008be62004e04565b005b620008de6004803603810190620008d89190620089f0565b62005184565b005b620008fe6004803603810190620008f89190620089f0565b62005658565b6040516200090d919062009c06565b60405180910390f35b6200093460048036038101906200092e919062008dba565b62005679565b005b62000940620057c8565b6040516200094f919062009c06565b60405180910390f35b62000976600480360381019062000970919062008ef1565b62005865565b60405162000985919062009766565b60405180910390f35b620009ac6004803603810190620009a6919062008dba565b62005a7a565b005b620009cc6004803603810190620009c69190620089f0565b62005bc2565b005b620009fc7f3d8df8da9e35c965a03b043256b8a925d0b861a0ba4d7a75090878b629958b2d60001b6200353f565b62000a2a7ff68a12be795b177f9f963168a149bf8834a59675853d703d3cbc57f75a9db33660001b6200353f565b62000a587f59a71adee5406bc649eb5f8046c861ec62f9b879c4cc6468843b8287ecff240860001b6200353f565b62000a867f6f92bfa86e7ac6bb54109d4eb16b34a31c4b5b89ba24f8c37e5ca275629cc4bd60001b6200353f565b6001151560d260005a62000a996200807b565b73ffffffffffffffffffffffffffffffffffffffff1673ffffffffffffffffffffffffffffffffffffffff16815260200190815260200160002060009062000ae0620080da565b906101000a900460ff1615151462000b3a576040517f08c379a000000000000000000000000000000000000000000000000000000000815260040162000b269062009980565b6040518091039062000b376200800b565b50505b62000b687f4ad4aa0c51a8ac83bff3ed6d3135c7aa6cd0c74967488ba67923478b56294afd60001b6200353f565b62000b967ff9a64c1968411810c7e8a508ae06be36146d91da74577ef2cf137298d4608ba760001b6200353f565b62000bc47f0142c7e42adf975c168608204a7e1e3307ee4056767f23ee76fd23551dc1c1eb60001b6200353f565b62000bf27f62f1ce7dd5029c61f97e134d30781d761c0b687fd4c8b522c9a6098647629cc360001b6200353f565b62000c207f70ec1e08d152b554ce0e096c7c7b5262e991ba60ce04038e735014227f90d44260001b6200353f565b62000c4e7f926ca7a9ff0d96b3853668d9409fa5adfd96cf551eddf798817ce7c140be46b460001b6200353f565b6001151560d160008473ffffffffffffffffffffffffffffffffffffffff1673ffffffffffffffffffffffffffffffffffffffff16815260200190815260200160002060009062000c9e620080da565b906101000a900460ff1615151462000cf8576040517f08c379a000000000000000000000000000000000000000000000000000000000815260040162000ce49062009be4565b6040518091039062000cf56200800b565b50505b62000d267fc760a3a0174cc35012cad1c00c22bd3b1579cd9ac294a8975e37dc07b276b5cc60001b6200353f565b62000d547f5c23856bdce131dc830f6f5eae0b426697e37d6a9b745a1ca7e743047967612560001b6200353f565b62000d827f0d2d1b78b35ec7138994f91eec4119f22abc0dc4a3d72f5d277561cea625787c60001b6200353f565b62000db07f4c2b5c36e9fb307b3e35ca2b1b3f6cd3ac1904c745a14f4abc369ef4fe069f1960001b6200353f565b62000e1860dd62000dc0620080da565b60d560008573ffffffffffffffffffffffffffffffffffffffff1673ffffffffffffffffffffffffffffffffffffffff16815260200190815260200160002062000e09620080da565b62005dcd90919063ffffffff16565b81111562000e68576040517f08c379a000000000000000000000000000000000000000000000000000000000815260040162000e549062009a4c565b6040518091039062000e656200800b565b50505b62000e967fc65e99c79d84d8c19eb4cc09b2b5c5349b54084f1ce34546f51449c3727662df60001b6200353f565b62000ec47f429225c60d30b00d39b8969df597172713f00c9e3164ee5f6f268cb11fb4536760001b6200353f565b62000ef27f0d08e30e5f76c320cbf5e6127037bdf95d94e6621543a4789d31a88a827aaf8460001b6200353f565b62000f0a828260d462000f04620080da565b62005e30565b5050565b600062000f3e7ff0f6e00f4808c8978c39d936231c9b252c4fa1d26c56f93238f10947d72b39de60001b6200353f565b62000f6c7f7fe9feedbbce51402de92f798c9f091654dff462959266533bcb06520444053460001b6200353f565b62000f9a7f594a5e9dc0f99888975bd78ece77b879cd649f4a8e17dff20af2d1cd2f421c5160001b6200353f565b60cd8062000fa7620080da565b9050905090565b60dc62000fba620080da565b81565b60dd62000fc9620080da565b81565b600062000ffc7f279dd1779bca0bb6cd743213a5c4f6a5e05610730ae9fe08c2ff16c65a0261ab60001b6200353f565b6200102a7fe5ee42d6707d731aa1c71f294e15bf05416d9e2481795545d7482a5d96810d7760001b6200353f565b620010587fc9f1f7b952adc798affda60690233bb0bcb66a20b17f27a29e3cee783882faa160001b6200353f565b60ce60009062001067620080da565b906101000a900473ffffffffffffffffffffffffffffffffffffffff16905090565b62001093620060da565b73ffffffffffffffffffffffffffffffffffffffff166065600090620010b8620080da565b906101000a900473ffffffffffffffffffffffffffffffffffffffff1673ffffffffffffffffffffffffffffffffffffffff161462001139576040517f08c379a0000000000000000000000000000000000000000000000000000000008152600401620011259062009b3a565b60405180910390620011366200800b565b50505b620011677f17f327a153b3b30ef1a6f669e4014e10c8215b576202888074ad1b8518b5041460001b6200353f565b620011957f77ef7e9e970a9d15c9fc99e38d0e14077e1f36127693b21159df4faf8a1cfe9360001b6200353f565b620011c37fef8cbcb7441e78162bdf01f33f3bd7a1bc4fcd87d57e49f3e2e4ce8c1fb9803460001b6200353f565b620011f17f804ddf9bf93c0eb5b196357f55a28420289271c0842e147ae7c69a6fcdef51c460001b6200353f565b8486111580156200120f575060cd806200120a620080da565b905086105b801562001229575060cd8062001224620080da565b905085105b62001276576040517f08c379a00000000000000000000000000000000000000000000000000000000081526004016200126290620099a2565b60405180910390620012736200800b565b50505b620012a47f6867e033f3189c6f485a1d44dcae048b75c004420cab4d3de9889a49d06c6cc860001b6200353f565b620012d27f79a0427298e0e75996b765b2ca99a0af4ba9f0c2698c4c4a3f6d57805db5addc60001b6200353f565b620013007f5bfe48d734cf1d13108bea7bce3de52f8eb3b10d56d400fda668ec5d88573df260001b6200353f565b60008690505b85811162001542576200133c7f7cbf563246ecc98729c82fafab647b9b5d0571a78eba30f9efcd6cdda1a56eba60001b6200353f565b6200136a7f154fd0a4670b6d9f2d9d886f0f8058349a8690d2348d9cf6313e915c6ad2292c60001b6200353f565b600060cd82816200137a620080da565b81106200138357fe5b906000526020600020016000906200139a620080da565b906101000a900473ffffffffffffffffffffffffffffffffffffffff169050620013e77f21d3b733e742181f74c0003cf81ec0a3451fc40e9406f395e0e7ee7627761b0b60001b6200353f565b620014157fc5ff6fe9cdaee709d78a8ca953e321b1cf51058c271aefe56c23024beb5bd2bb60001b6200353f565b8560db60008373ffffffffffffffffffffffffffffffffffffffff1673ffffffffffffffffffffffffffffffffffffffff1681526020019081526020016000206200145f620080da565b146200149a57620014937faf8b574a07bd91f782725e5a7933569c06387dc8fb23f0f47e47eea971130a7b60001b6200353f565b5062001534565b620014c87f3695f8cf547b44aac75949b095cd0f7d71d8867edecfff3cbcd9ee2f5e2eab9560001b6200353f565b620014f67ff80384c2c5a78e027472edb4532676920dcdd156fc6f84e4daade81b6e712fa460001b6200353f565b620015247f9858f3a3b1d9665fe5ba7445d3cd0f0209a78de08e4b2883c408439871891bf060001b6200353f565b6200153281858588620060ec565b505b808060010191505062001306565b50505050505050565b62001555620060da565b73ffffffffffffffffffffffffffffffffffffffff1660656000906200157a620080da565b906101000a900473ffffffffffffffffffffffffffffffffffffffff1673ffffffffffffffffffffffffffffffffffffffff1614620015fb576040517f08c379a0000000000000000000000000000000000000000000000000000000008152600401620015e79062009b3a565b60405180910390620015f86200800b565b50505b620016297ff5f6e6ec809c94c1f26827b5e37f496af42d8c5e8e52fccc705deb908b5fd69f60001b6200353f565b620016577f23df8ed0c933bb548208501cfbfb796ddcac1dbaaff610076c7140eb1fb84a1060001b6200353f565b620016857ffed0a5cd88ce0ea82b88cfec5561b79b96150e41385100fecde00bc5f92138e760001b6200353f565b6200169081620065e5565b50565b620016c17f7400efbb2983ce0b07a712161471985f43e80154251418c1f14e54cc824fa5d960001b6200353f565b620016ef7fe2108c9b510e6bc9bbf2aacdf4637dda5f5ba1f43acb055c9a10a0bc521c72a260001b6200353f565b6200171d7f3a213bbc07145fb75bbd14143d2eeff7c56b658fc983177df249f141738ee29360001b6200353f565b6200174b7f1945d12ae1ab28f2e3ed7a2b3a42fa6b85340a8581b323cb284396f92165c24a60001b6200353f565b60ce6000906200175a620080da565b906101000a900473ffffffffffffffffffffffffffffffffffffffff1673ffffffffffffffffffffffffffffffffffffffff165a620017986200807b565b73ffffffffffffffffffffffffffffffffffffffff1614620017fc576040517f08c379a0000000000000000000000000000000000000000000000000000000008152600401620017e89062009a08565b60405180910390620017f96200800b565b50505b6200182a7f59f49f62777915626c19d20f727a888eecbfc2bd28f7f94e1cdc47dfdf26250660001b6200353f565b620018587f43baf121f6188585c3dc7cebf1d3115d2ce4e6e42d952ff65479a4fca131363860001b6200353f565b620018867fe63b6da9f8fb518d30844238f3be0cb5c81722eb4a1a04b59ed66caf6390a1a160001b6200353f565b620018b47f8cd872f9b35d91349f1aba2a973fb203f06c9c056860379b2eac23b2218622db60001b6200353f565b620018e27f1a56517d22b91c0bcddc85f8adaf8a060a82c7e2ac35b65a8f12b2f1b91b8ee760001b6200353f565b620018ee828262006684565b5050565b50565b6000620019257f13e11f0d73d76f4f77f3d7be339f6e90b3bf41e1910572746d191d405f45285460001b6200353f565b620019537f5f22194267ee56ea4a87de1fb3fbc5ba62a5bc23c39aad24554443ec35d706f960001b6200353f565b620019817f91d67a67511ec55a9c20f81a5836393da8e770c2a54bee6e54e5a422c35918c260001b6200353f565b60d76200198d620080da565b905090565b6000620019c27f33f15f7d0565552c240ba3980dca20e9417603bc622b4db6502532b2cf143adf60001b620018f2565b620019f07fd28665c1a74c6e4b3c9498428d3a105b919193a3c1dd68a4c21277abaa41ed2e60001b620018f2565b62001a1e7fcd90c37ee61942ee9d71ff17ccb12b8d3ed593d687642d288c787960686c829360001b620018f2565b62001a2a8383620067a4565b905092915050565b600062001a627fc9c6a38518c05aef06ae86d6ad2e4965ea5f9c87c6d3955fe3e543a42a88217460001b6200353f565b62001a907f5fadc9cd7b2e26f8488a0f0e7874cc84b499743cce43744873597553bc46d5d560001b6200353f565b62001abe7ffe2c9ba9d29ea4e15cff8ef514b19bcfec50ee80dc03999a72501d7f9fd9531760001b6200353f565b60da62001aca620080da565b905090565b60db60205280600052604060002060009150905062001aed620080da565b81565b60d16020528060005260406000206000915062001b0c620080da565b906101000a900460ff1681565b600062001b497f9dc4ed7512879ab1048e4cc88bb46ed459d284bc11830202411ed47c48791b1660001b6200353f565b62001b777ff1a194115db702370c5c763e27c90a7a9b39412351168e4a1bd1111ede1ccf5c60001b6200353f565b62001ba57faf3edb49ee4d9844c88d1e3b8dd7c250d8175b49e91f692250cf93bf28b2d03860001b6200353f565b60dd62001bb1620080da565b905090565b600062001be67ffc0892fe845f8795b311aa8fbc631da17fc68d16733f6fccf02540e2c922fd6660001b6200353f565b62001c147ff487d998248da2ff10fef3995f6682c15ce6aa08589a3610bbd32c2f48eba8fa60001b6200353f565b62001c427f3f50e4ba6bc154b20d18499040afbb9310eb4b7059dc19f900f3f710e70d450b60001b6200353f565b60df60008373ffffffffffffffffffffffffffffffffffffffff1673ffffffffffffffffffffffffffffffffffffffff16815260200190815260200160002060009062001c8e620080da565b906101000a900473ffffffffffffffffffffffffffffffffffffffff169050919050565b62001cbc620060da565b73ffffffffffffffffffffffffffffffffffffffff16606560009062001ce1620080da565b906101000a900473ffffffffffffffffffffffffffffffffffffffff1673ffffffffffffffffffffffffffffffffffffffff161462001d62576040517f08c379a000000000000000000000000000000000000000000000000000000000815260040162001d4e9062009b3a565b6040518091039062001d5f6200800b565b50505b600073ffffffffffffffffffffffffffffffffffffffff16606560009062001d89620080da565b906101000a900473ffffffffffffffffffffffffffffffffffffffff1673ffffffffffffffffffffffffffffffffffffffff167f8be0079c531659141344cd1fd0a4f28419497f9722a3daafe3b4186f6b6457e060405160405180910390a36000606560006101000a8162001dfd620080da565b8173ffffffffffffffffffffffffffffffffffffffff021916908373ffffffffffffffffffffffffffffffffffffffff1602179062001e3b6200813f565b505050565b62001e6e7f7400efbb2983ce0b07a712161471985f43e80154251418c1f14e54cc824fa5d960001b6200353f565b62001e9c7fe2108c9b510e6bc9bbf2aacdf4637dda5f5ba1f43acb055c9a10a0bc521c72a260001b6200353f565b62001eca7f3a213bbc07145fb75bbd14143d2eeff7c56b658fc983177df249f141738ee29360001b6200353f565b62001ef87f1945d12ae1ab28f2e3ed7a2b3a42fa6b85340a8581b323cb284396f92165c24a60001b6200353f565b60ce60009062001f07620080da565b906101000a900473ffffffffffffffffffffffffffffffffffffffff1673ffffffffffffffffffffffffffffffffffffffff165a62001f456200807b565b73ffffffffffffffffffffffffffffffffffffffff161462001fa9576040517f08c379a000000000000000000000000000000000000000000000000000000000815260040162001f959062009a08565b6040518091039062001fa66200800b565b50505b62001fd77f59f49f62777915626c19d20f727a888eecbfc2bd28f7f94e1cdc47dfdf26250660001b6200353f565b620020057f43baf121f6188585c3dc7cebf1d3115d2ce4e6e42d952ff65479a4fca131363860001b6200353f565b620020337f58c50d8ad31813d7d99c3a8bbf755547aff93ff6f0c6b23d76a035de7a6c179560001b6200353f565b620020617f0e3044b9dd0050761070d84ce56536c60f6f2c2eeabeecaf67f832404d22553160001b6200353f565b6200208f7fb383b28e2318a0846e55a598660b1e6862921674a5db7719c8edb3a062522f9560001b6200353f565b620020bd7ff1f8c062a635447e28ae5ffe2ee64e982b94d4383878b73406dc8b5c1cd8f8dd60001b6200353f565b620020c88262004d1b565b1562002116576040517f08c379a0000000000000000000000000000000000000000000000000000000008152600401620021029062009b7e565b60405180910390620021136200800b565b50505b620021447fe4f1746dc2fa197337da3ea2652f9c38381400225b93a2d2e1c8e984f5fdac9d60001b6200353f565b620021727f3bfe5de6d37dca67f0c6ef3af3b87b237318a719af68711f4fe3300d1e1d5c3c60001b6200353f565b620021a07fa02f770dd690c142290fec1ebcc25e4cf5df9c7bb526e94d8baecb55da22d6ae60001b6200353f565b600160d860008473ffffffffffffffffffffffffffffffffffffffff1673ffffffffffffffffffffffffffffffffffffffff16815260200190815260200160002060006101000a81620021f2620080da565b8160ff02191690831515021790620022096200813f565b5050506200223a7f0edeb4e2657271a886f513794a722aee2206b14cc11c8fb26ede20dc9324532560001b6200353f565b620022687f2c49defb59200d50444d74463ab81bf314c39b271e7b1ce3a142c8efacd8b76860001b6200353f565b62002274828262006a92565b620022a27f5b4d7a8bb8b9c99cb0b425e8d8291764effbf552a3bb7a42bc30c6ae5e986e7460001b6200353f565b620022d07f818a5bf1fcd0d5d6f82a87049e84cd5aa03f0177f3ee44196996ace58a6a146860001b6200353f565b8173ffffffffffffffffffffffffffffffffffffffff167fd63c302652b86334fe4eb891e7a01e61e836496485d9394f2c95b4222006ae5060405160405180910390a25050565b62002321620060da565b73ffffffffffffffffffffffffffffffffffffffff16606560009062002346620080da565b906101000a900473ffffffffffffffffffffffffffffffffffffffff1673ffffffffffffffffffffffffffffffffffffffff1614620023c7576040517f08c379a0000000000000000000000000000000000000000000000000000000008152600401620023b39062009b3a565b60405180910390620023c46200800b565b50505b620023f57f055b465ccbbfe1385b246c3b1888cc4189599f82b3f852f3a6fa8951786c9c0c60001b6200353f565b620024237f874c3659c636586c907200bf86d744f925ddfc959593f19d3c8ee7ca25d06aa260001b6200353f565b620024517fb6149f908b95284a63753159e8a401881db05582bba1a5581330ce19651b2ad260001b6200353f565b6200245d828262006bb2565b5050565b6000620024907e4652eecefa63d4c68225ba4c7cd0ac0943751f45b7bb8e8b7d58413d85957960001b6200353f565b620024be7faf5feb3d596b6d1fafadcfe6b9cc9bee3cc2499175ac7ff9045dafcd2d8009dc60001b6200353f565b620024ec7fab1d79638d438e682b7ac7979661dbbf7a134cccb200d03f4e3d86686fff248060001b6200353f565b60605a63996d79a5598160e01b8152602081600483336000905af158601d01573d60011458600c01573d6000803e3d621234565260ea61109c528051925060005b604081101562002549576000818301526020810190506200252d565b505050888885604051602401620025649493929190620097a0565b6040516020818303038152906040527f147bf0be000000000000000000000000000000000000000000000000000000007bffffffffffffffffffffffffffffffffffffffffffffffffffffffff19166020820180517bffffffffffffffffffffffffffffffffffffffffffffffffffffffff83818316178352505050509050620026117f94dd0bc43c074d1a7f0555329e3397f81cd9af941f1917db261eaf461e6189ec60001b6200353f565b6200263f7f7c1535069693b986f1e54bfc6f885cd8d330c7240e804afd13cad25279ffddd060001b6200353f565b60006200264e82600162001992565b90506200267e7fbccc9cced9e978ef3e31ec9a8d77a28a1f24c816e1e41f41541b5fe337e29fe560001b6200353f565b620026ac7f41348a0cfadc29fae0fbea16ea800ba3432cdaa01426486ac4de7f4e38a1725160001b6200353f565b60605a63996d79a5598160e01b8152602081600483336000905af158601d01573d60011458600c01573d6000803e3d621234565260ea61109c528051925060005b60408110156200270957600081830152602081019050620026ed565b5050508b89898560405160240162002726959493929190620097fb565b6040516020818303038152906040527f0ccb30c7000000000000000000000000000000000000000000000000000000007bffffffffffffffffffffffffffffffffffffffffffffffffffffffff19166020820180517bffffffffffffffffffffffffffffffffffffffffffffffffffffffff83818316178352505050509050620027d37f78c6c09625c8c181c09f571daebd6b5d1a9fbbd85dc58bac510d11e778b86bf460001b6200353f565b620028017fef6f4d7ad4550de83b7f430a49490d845ae18e3063b153566fe4b8e03d8bf73f60001b6200353f565b60006200281082600262001992565b9050620028407fba9c8f1800678b3fba06f55d15584e231e8fb0c01b82e4fbc0b7c4c9807b244960001b6200353f565b6200286e7f2b1d00cc47871dc6268aa5b5cfc6c776bd045c2dbd37975af7704f3c8f08fa1960001b6200353f565b8273ffffffffffffffffffffffffffffffffffffffff16638e10153d826040518263ffffffff1660e01b8152600401620028a9919062009766565b60206040518083038160008780620028c0620081a6565b158015620028d857600080620028d56200800b565b50505b505a620028e46200820b565b50505050505015801562002907573d6000803e3d6000620029046200800b565b50505b505050506040513d601f19601f820116820180604052508101906200292d919062008b94565b506200295c7f9d7a63e7fcf20676c659e71f7b6427bf16efd9b38da4e1c9f19adb81270f609660001b6200353f565b6200298a7f851c9e960698698415d9dede09dadaa8631b6cfe5f0b50bc3ab32f01bd48117960001b6200353f565b60cd8190806001816200299c620080da565b018082620029a96200813f565b505080915050600190039060005260206000200160009091909190916101000a81620029d4620080da565b8173ffffffffffffffffffffffffffffffffffffffff021916908373ffffffffffffffffffffffffffffffffffffffff1602179062002a126200813f565b50505062002a437fbce737bf5a8acf4adae42363e4d7e9991e25f8402287ac3044a89a47e0151a6a60001b6200353f565b62002a717fd1bfcc1ae2e7e6e08b94ec8102ed7523c863b4f289555ecceeaab91ed367647860001b6200353f565b600160d160008373ffffffffffffffffffffffffffffffffffffffff1673ffffffffffffffffffffffffffffffffffffffff16815260200190815260200160002060006101000a8162002ac3620080da565b8160ff0219169083151502179062002ada6200813f565b50505062002b0b7f69f9c1e866b80d5966065f81d922ab47fe683e694ca59e783d48a94d6998462360001b6200353f565b62002b397f711d3f55836b172aaa474056bac11c3b64466b5841b0deb4c018bad211a51b0c60001b6200353f565b600160d260008573ffffffffffffffffffffffffffffffffffffffff1673ffffffffffffffffffffffffffffffffffffffff16815260200190815260200160002060006101000a8162002b8b620080da565b8160ff0219169083151502179062002ba26200813f565b50505062002bd37f21a749f60b4811dd9c299b03ba00ec5c2eecd2b0721788eff9399de7879acb7760001b6200353f565b62002c017fb26474e3316f4ac3e4cb61183633ea9832fe123a87c862bd4f0d8f107820283a60001b6200353f565b60dc62002c0d620080da565b60db60008373ffffffffffffffffffffffffffffffffffffffff1673ffffffffffffffffffffffffffffffffffffffff168152602001908152602001600020819062002c586200813f565b50505062002c897f6040413eada179dd87512f8f880099a7bc17548ee52e1e500400ffa33ce9cae160001b6200353f565b62002cb77f8c3c3e94e4de9b5ec022eefc45138a90e22fd43e4d32a939c80497558dbeeb7c60001b6200353f565b62002ccf818860d462002cc9620080da565b62005e30565b62002cfd7ffa092cae00ed102f56cd4647dca7db562fcfd600082c9aa0728d6a9b4b1870a360001b6200353f565b62002d2b7fab42002b5183f81931c33961e01328e2072190ae3977c653765c9340a839ddd260001b6200353f565b7f73a0638fe578fc759744633aa170a433061ca2cc1bb855d116c506e04a29901f818d8b8d8f5a62002d5c62008316565b8d60d462002d69620080da565b60405162002d7f98979695949392919062009866565b60405180910390a162002db57f4ecec2062c623ab9703ff1707d10291b09ec8443e0d8fa83421e69c2e677450760001b6200353f565b62002de37f2200c946d824a8a4372f64936e4b0ba5bcdc29a480995db7cacd6885ad27db9860001b6200353f565b80945050505050979650505050505050565b600060019062002e04620080da565b906101000a900460ff168062002e20575062002e1f62006e60565b5b8062002e40575060008062002e34620080da565b906101000a900460ff16155b62002e8d576040517f08c379a000000000000000000000000000000000000000000000000000000000815260040162002e799062009b5c565b6040518091039062002e8a6200800b565b50505b60008060019062002e9d620080da565b906101000a900460ff16159050801562002f0f576001600060016101000a8162002ec6620080da565b8160ff0219169083151502179062002edd6200813f565b50505060016000806101000a8162002ef4620080da565b8160ff0219169083151502179062002f0b6200813f565b5050505b62002f3d7fc68bb870e46827edc72aeeb0eb74d44816286195aa27c7aac1244cded38a721560001b6200353f565b62002f6b7fc763b96017a4306ad4c5107c5478ef7f79ecc8e289afe2d4c612daca28efb6e860001b6200353f565b62002f997ffa8826bb42af6c6f207828cd73a31d623b62c9a32d49838fa115012ddb450fd260001b6200353f565b62002fa5868662006edd565b62002fd37f6a6839cd7a17e637a2477a914690ad46d3953ab07e530aadac1be9363e71693f60001b6200353f565b620030017fb4f47aa91e3af72c836b5216c9d9267def4239c1df14f2ec801a95cd8105872960001b6200353f565b6200300c84620070d7565b6200303a7f46d8d5744b1b7ea011b12b1d1c0c6982fbe7e33e47a3dc6c2f30ec928e3d251e60001b6200353f565b620030687f9c4efb1d204426dedbd4b43c7ac6896abdf9a4dfa67afb356002f3e194a779f860001b6200353f565b620030786113886127106200724e565b620030a67fcd44fab5e8dd0fd0be79836dcafb24b7cd0a4f42d0c27990c44112bf63fa014060001b6200353f565b620030d47f288347419c054230ed12c0bb9fdd503290a1e907bcf8cd25794e66467409bb2960001b6200353f565b620030e2600a606462006bb2565b620031107fd4694f095538c1e65699220115cacdc2e48ad6ca0c23974573305029be5bd9b660001b6200353f565b6200313e7fa5561a7ce4c567b90d5a406d0e58051b3f0718e0748e735e45a176f468c5c63960001b6200353f565b6200314c6201518062007465565b6200317a7fa6e15973f56018a8e8e0eb94d022c0ebc0ebf2834ce92f8e36057e34d4712b4760001b6200353f565b620031a87f50500f02194b5ac4f626ffbac7b3e37f78ef807a9a77ca2d35d448262d7a0ff460001b6200353f565b620031b66224ea0062004b9c565b620031e47fa0f8243dcce257062c608715f39b68a4d304c51aa572f967a28194700484996760001b6200353f565b620032127fe5f47c2a7f2d45eb1988db8aac45ca5cdfbc31722e8fe2d7b6180f3d58221e6660001b6200353f565b6200321f6103e862005679565b6200324d7f42fa08d61d0f7c1c4719e320e7f80f84c37066dfb71999e3cff4614755d68d2b60001b6200353f565b6200327b7ff877799c7d19ac9edc65d86c34cb169881346942a6069a32f234f3069d38de4160001b6200353f565b62003287600a62007599565b620032b57fe70161783b8fa9b96d7c1d680341448c4aed2423257c961ccd14470b14f57b4b60001b6200353f565b620032e37f7b4e61386ef80d45c93b0dabef781b300cb1677e10c762dbcc84e257565ecb4660001b6200353f565b620033117f444845444745000000000000000000000000000000000000000000000000000060001b620065e5565b6200333f7f4f0121d1fdceecba8e21877006bd2aabe7394e4ef6b050d83f2db995b587aef160001b6200353f565b6200336d7fd17c109f6bf5f413d4a66b19a10d7b8ed61f2ed76edb7d94b971a8d285003b1960001b6200353f565b60005b83518160ff1610156200350057620033ab7fe785833698e4e078e5cf9f51154a85d65ec61c55bf2b86ee2124e30b5e45c81660001b6200353f565b620033d97f3df4c924312bc92b8492f3e27279699a6211904fba2a707d7b8077526da20aa760001b6200353f565b600160d86000868460ff1681518110620033ef57fe5b602002602001015173ffffffffffffffffffffffffffffffffffffffff1673ffffffffffffffffffffffffffffffffffffffff16815260200190815260200160002060006101000a8162003442620080da565b8160ff02191690831515021790620034596200813f565b5050506200348a7ffbaa366691e42314ff93f6d4ab1f8782fbc44d887f33fa8c367eeac5de7fcbc960001b6200353f565b620034b87f0f313f44849769e1cbcc37513d0193d55f714d7c103cecdf1cfb27768bfcadac60001b6200353f565b620034f2848260ff1681518110620034cc57fe5b6020026020010151848360ff1681518110620034e457fe5b602002602001015162006a92565b808060010191505062003370565b508015620035375760008060016101000a816200351c620080da565b8160ff02191690831515021790620035336200813f565b5050505b505050505050565b50565b6200354c620060da565b73ffffffffffffffffffffffffffffffffffffffff16606560009062003571620080da565b906101000a900473ffffffffffffffffffffffffffffffffffffffff1673ffffffffffffffffffffffffffffffffffffffff1614620035f2576040517f08c379a0000000000000000000000000000000000000000000000000000000008152600401620035de9062009b3a565b60405180910390620035ef6200800b565b50505b620036207f01343b48bbbfb1506e4f6a3c5fca05ef25de5a6e576958d5921d5980f10697ad60001b620018f2565b6200364e7f22ef14946b68c2cbd000714372a1fdba889aef4017882173c418c6c196f461cf60001b620018f2565b6200367c7fcc2206faa513a1d6bb0596b36f4e479b1c9ad0a8d5bd4f42fac32943d6d2db4660001b620018f2565b81609760006101000a8162003690620080da565b8173ffffffffffffffffffffffffffffffffffffffff021916908373ffffffffffffffffffffffffffffffffffffffff16021790620036ce6200813f565b505050620036ff7f5b379c61cbcd57b1542962fae91dd43a826ebfa5f7e4921e5cc82ed7a1d1539660001b620018f2565b6200372d7f683034d185de591103e45001d186297f3448b16bb273cf53ca47bad669cc3b1160001b620018f2565b80609860006101000a8162003741620080da565b8173ffffffffffffffffffffffffffffffffffffffff021916908373ffffffffffffffffffffffffffffffffffffffff160217906200377f6200813f565b5050505050565b6000620037b67ff67f2417b3e31f5e2cbad4f04eba4902377630cd90d26f257646545a2bf84f8460001b62004090565b620037e47f99398754977caf85639e96b210e04976c6abdcbf656093cad55c02aee69f542b60001b62004090565b620038127f14edc2f00070db217712b1d5a066a22b6da264b3eeabee8fe1113b93b62dc3f660001b62004090565b600060cc60008473ffffffffffffffffffffffffffffffffffffffff1673ffffffffffffffffffffffffffffffffffffffff16815260200190815260200160002060009062003860620080da565b906101000a900473ffffffffffffffffffffffffffffffffffffffff169050620038ac7e49b963a7204d11bd6192994399773ff9941728a05382e023f0d7f8e9f4ce7760001b62004090565b620038da7f7ac4ff0090418571bff0a30fa14a7fb65daf8cc5e4e857ba967d8c9989d4246660001b62004090565b620039087f7e39a546a99d56abe41ebc3b601576de2dca5a5e555efc8eb10f9b372b7710c360001b62004090565b600073ffffffffffffffffffffffffffffffffffffffff168173ffffffffffffffffffffffffffffffffffffffff16141562003986576040517f08c379a0000000000000000000000000000000000000000000000000000000008152600401620039729062009a6e565b60405180910390620039836200800b565b50505b620039b47f23e0bb287645e47bb882854280519143416c6e0a4b950fbd3755a04c8fd930a560001b62004090565b620039e27f54cb56bf6453b720b41b9a19ad3f4df89a0b2ff0fcb4835e0760cb5cb0e6b6e560001b62004090565b62003a107f77e5894f2e29688300cafc369817a88d4df05aa12da0fba6ebd80cb1a4edccec60001b62004090565b600062003a407fb89baaa79829ac26e19e2f6b5be841fa4130f9de8a1ef0618d4f558a11d6d59760001b62004090565b62003a6e7f29a423fff5deb2a4fa5462e7006f43f416a06143e16639d7794383358bcac41160001b62004090565b60cb60009062003a7d620080da565b906101000a900460ff1662003ebf5762003aba7f5f1d27f3b0d401fd5bab36c4a24e62ec3f5d0045659c56fe1e257308befe267560001b62004090565b62003ae87f64efdaaf3dabce3750a666d1e73291d77817ab109f5b6762b26e021519c9ae6560001b62004090565b62003b167f785197ff24291e0c6f07cb52bb03b679998995b9e4239c645b5ea5f15c81e12960001b62004090565b8173ffffffffffffffffffffffffffffffffffffffff1663feaf968c6040518163ffffffff1660e01b815260040160a060405180830381868062003b59620081a6565b15801562003b715760008062003b6e6200800b565b50505b505a62003b7d62008375565b505050505092505050801562003bb357506040513d601f19601f8201168201806040525081019062003bb0919062008f28565b60015b62003c615762003be67f0876bee710acfe84eb418ce9c631a3abf81f3f3afc0805868ec5021e30307d2660001b62004090565b62003c147f340082257eccd5f8b78c4014a92ba9826f6b24555950e527d1b6abc06a81754260001b62004090565b6040517f08c379a000000000000000000000000000000000000000000000000000000000815260040162003c489062009b18565b6040518091039062003c596200800b565b505062003eb9565b62003c8f7fcf3a3ffc0a1c8829a33aab23ebdcd53722dc846bceef25ecf4a4c177579af1fe60001b62004090565b62003cbd7fa1e96a03716f9222f105fbfffa14ce67c5369772c9db53cae423bb8bdc15023060001b62004090565b62003ceb7f30aa93cba7cefea8918aac32d387725c21558139c87462d20eb91408d23c420060001b62004090565b5a62003cf662008316565b62003d0e62015f908462005dcd90919063ffffffff16565b101562003d5d576040517f08c379a000000000000000000000000000000000000000000000000000000000815260040162003d499062009ba0565b6040518091039062003d5a6200800b565b50505b62003d8b7f11fba02caa6044c0257eb224cfcbb8cf7721b3dc1a9286f502c00db4d424ea6e60001b62004090565b62003db97fd2c5b87629deafa9dc752957d58435e7cc9dd96257976bbd76fb9ce4297807af60001b62004090565b62003de77fca9471dfcec4893cdce4fb7dd0b7a7e0971d761a1a2e9c1768b8adf5d4321f1f60001b62004090565b600084131562003e845762003e1f7fba132eb20588196a6950c3783f9ddfef93f958351497d5e052852411caaf57a560001b62004090565b62003e4d7f16e3329179f6bcea42713406963fe5cb316f71109007113266dc73eaaf3410e460001b62004090565b62003e7b7f017f70c97a727ca5b282ca419cd55fa361adedb24d1d8a39d863c796997c178060001b62004090565b83955062003eb3565b62003eb27fe6878e3790eac00ec483beb14444ecc8c3c4958ae79cf5cc9c6eb0eea4b3607960001b62004090565b5b50505050505b62003eee565b62003eed7fc2373b3d8ef5baa0e03e89d6f143a6f380aaa47cdd394a5776bfc6dedd47196e60001b62004090565b5b62003f1c7f4e2e93e35253551079e1eb62032ccad994369be21a78620ed63fe4261c1f0a5b60001b62004090565b62003f4a7fd6c289f94ffcd31e7fde1033c34cf4cd1e3e2a54d2d0809aad571daa9d851f0e60001b62004090565b62003f787f87e60872230e8b2c310ed78894dc28078fee73a946acffbd2ddcc286549a591b60001b62004090565b6000811162003fc9576040517f08c379a000000000000000000000000000000000000000000000000000000000815260040162003fb59062009b18565b6040518091039062003fc66200800b565b50505b62003ff77f6308e4abcbe6fda9bc7e95aa628401eea08313b8a18abfb2cc396e35b93d295c60001b62004090565b620040257fb2463499ada00ae36c561403e716987771939734f19ad1ec2c76d71a49e33f5260001b62004090565b620040537fff4806b626a5582df1c50b0b644c04877473b2f77ee2ff42de5564fe8861a72260001b62004090565b8092505050919050565b600060656000906200406e620080da565b906101000a900473ffffffffffffffffffffffffffffffffffffffff16905090565b50565b600080620040c47fd628497fc0cd9f79fa694641c3cf07b667e1d6b3c07558e23ed79e24c898038d60001b6200353f565b620040f27fa4ef3ebc8e36cfc50e61d3b19d359986fe214ab64f8a3d926735b02bcfe992ce60001b6200353f565b620041207fb852a35c31dfbda5481bd0ae2208d8a73b2c6b0a7ddc06359300fcb2456f8cf860001b6200353f565b60d36200412c620080da565b60d462004138620080da565b915091509091565b60cd81816200414e620080da565b81106200415757fe5b90600052602060002001600091506200416f620080da565b906101000a900473ffffffffffffffffffffffffffffffffffffffff1681565b62004199620060da565b73ffffffffffffffffffffffffffffffffffffffff166065600090620041be620080da565b906101000a900473ffffffffffffffffffffffffffffffffffffffff1673ffffffffffffffffffffffffffffffffffffffff16146200423f576040517f08c379a00000000000000000000000000000000000000000000000000000000081526004016200422b9062009b3a565b604051809103906200423c6200800b565b50505b6200426d7fa35d36d72e3b1b411a4a15705abd80e9b35787e3796254501881fe9832b8644660001b6200353f565b6200429b7fabf7e2adf8b7d0db369c34c2fac7a2fe8eed0d2d6eb38dccebb015a9eb9ec42960001b6200353f565b620042c97fc08a1dcd013c919a4fbe860c9c80781e11875a5c5dc956bee48f27714af1bd2060001b6200353f565b620042d481620070d7565b50565b600080620043087ff8444c09f2f9a424b92e19e02e3a0bb9bf296052221379a9931458feaa4932a860001b6200353f565b620043367fa3df9213f1871cbe08c4a2b3fe5ac7ac20dc765d5771bffc3d203422f703419560001b6200353f565b620043647f6a8b5f896bff494dcdd8f3260292e22a0266f14000a61e499001616841de570960001b6200353f565b60cf62004370620080da565b60d06200437c620080da565b915091509091565b6000620043b47fd5742d56ce5b835fd585bb2fc168bcc37b550da4fd42422817a1699fdadd33de60001b6200353f565b620043e27f3bda71dcf6b7b8f4679ef720b5e7b43f994d70e3cac937c9634d7bbe54cef09760001b6200353f565b620044107f9fc22338451ccfd3c24c911386f84fbacb4f7202dbc201f23c1f604ab8fdaef260001b6200353f565b60d96200441c620080da565b905090565b6200442b620060da565b73ffffffffffffffffffffffffffffffffffffffff16606560009062004450620080da565b906101000a900473ffffffffffffffffffffffffffffffffffffffff1673ffffffffffffffffffffffffffffffffffffffff1614620044d1576040517f08c379a0000000000000000000000000000000000000000000000000000000008152600401620044bd9062009b3a565b60405180910390620044ce6200800b565b50505b620044ff7f1d5f721cb35f75d4ac51fa022cc8afdca3a8409e177213a43c8f9f72b045d71b60001b6200353f565b6200452d7f2a7757bcb330834002f9c79f8f7dd22d9e510a146351e94c968228ba9b642a0360001b6200353f565b6200455b7f6eb0721f29a863854d58df728b2bf9c1c4ee35b2ed2b87bb714874494246801f60001b6200353f565b620045668162007465565b50565b60d26020528060005260406000206000915062004585620080da565b906101000a900460ff1681565b620045c07f7400efbb2983ce0b07a712161471985f43e80154251418c1f14e54cc824fa5d960001b6200353f565b620045ee7fe2108c9b510e6bc9bbf2aacdf4637dda5f5ba1f43acb055c9a10a0bc521c72a260001b6200353f565b6200461c7f3a213bbc07145fb75bbd14143d2eeff7c56b658fc983177df249f141738ee29360001b6200353f565b6200464a7f1945d12ae1ab28f2e3ed7a2b3a42fa6b85340a8581b323cb284396f92165c24a60001b6200353f565b60ce60009062004659620080da565b906101000a900473ffffffffffffffffffffffffffffffffffffffff1673ffffffffffffffffffffffffffffffffffffffff165a620046976200807b565b73ffffffffffffffffffffffffffffffffffffffff1614620046fb576040517f08c379a0000000000000000000000000000000000000000000000000000000008152600401620046e79062009a08565b60405180910390620046f86200800b565b50505b620047297f59f49f62777915626c19d20f727a888eecbfc2bd28f7f94e1cdc47dfdf26250660001b6200353f565b620047577f43baf121f6188585c3dc7cebf1d3115d2ce4e6e42d952ff65479a4fca131363860001b6200353f565b620047857f13d7a33142b637726639bb2876267f6238d39856efcb76373bf6d16c47517ef960001b6200353f565b620047b37f27a67e4ab6e33ac3b0bec2ce60ee308b028b7b1ce542f6e699da03056625619f60001b6200353f565b620047e17f8dda48255a53c4ffa50b32331c7fd6561ee0d65bd76f96152f457fae81e6b5ba60001b6200353f565b6200480f7f74fa3e6a2f49524988844564daa7f8c2aaf263bb038a6ff1a9204478048d5a5e60001b6200353f565b6000151560cb60009062004822620080da565b906101000a900460ff161515146200487c576040517f08c379a0000000000000000000000000000000000000000000000000000000008152600401620048689062009bc2565b60405180910390620048796200800b565b50505b620048aa7f1d191c946081ba42551c3f3c3bd0ee2a9f3ae982831aed86ecbf9f367edd23c560001b6200353f565b620048d87fb6bfcc58b2d9248f148ad4c82a20c64235f96afe8c7723084e3a07fe04e8048d60001b6200353f565b620049067f6c52c8488bcbc093dc55a29ec68b75551c095a32ad213bec50dce23494ac94d260001b6200353f565b62004910620076cd565b565b600080620049437f2fb68855087a3d1c739ac9f9500aad867a60b4edbf6b2e68ae2b9cf19aa68f1160001b6200353f565b620049717fba140009ad85b5dea791a9885e4ce46afb7645aec25a436f04b1a77e1516e1c760001b6200353f565b6200499f7fd99e6496d25fa777a1b6918ddf0f299e9b2524269b732699a5c50a2dfd78f10860001b6200353f565b620049cd7f747f4fdcb146fabe3bff72b502c41967b5639b0310994ceef3173348072b41a160001b6200353f565b6001151560d160008573ffffffffffffffffffffffffffffffffffffffff1673ffffffffffffffffffffffffffffffffffffffff16815260200190815260200160002060009062004a1d620080da565b906101000a900460ff1615151462004a77576040517f08c379a000000000000000000000000000000000000000000000000000000000815260040162004a639062009be4565b6040518091039062004a746200800b565b50505b62004aa57f625bc37b98fdb076d324111c0ed6d969ff2301b2b228db56d13ccd2bf2b6d1cf60001b6200353f565b62004ad37f4831bc7af27cdd740acc7a657914897f5c9e410f499a47d2d93d033ffb5734b360001b6200353f565b62004b017f9397bb153a0b3d3ad04fc58bd7fadcbd519f7dcefc7cc2df21565c758798aaab60001b6200353f565b60d560008473ffffffffffffffffffffffffffffffffffffffff1673ffffffffffffffffffffffffffffffffffffffff16815260200190815260200160002062004b4a620080da565b60d660008573ffffffffffffffffffffffffffffffffffffffff1673ffffffffffffffffffffffffffffffffffffffff16815260200190815260200160002062004b93620080da565b91509150915091565b62004ba6620060da565b73ffffffffffffffffffffffffffffffffffffffff16606560009062004bcb620080da565b906101000a900473ffffffffffffffffffffffffffffffffffffffff1673ffffffffffffffffffffffffffffffffffffffff161462004c4c576040517f08c379a000000000000000000000000000000000000000000000000000000000815260040162004c389062009b3a565b6040518091039062004c496200800b565b50505b62004c7a7f5dcc8037e8f767a9a5e63f0004a9fe736f3a10e1aba4229b433e80014625302a60001b6200353f565b62004ca87fd89339c2ef71d0f88ce7ee93f5deda3691d0939a0cfe46cbb3c9e8538ac4af0e60001b6200353f565b62004cd67f54341bcefa6e50e2f251891366b1b302b4917d79591a41f92c7efafe570e46b260001b6200353f565b8060de819062004ce56200813f565b50505050565b60d560205280600052604060002060009150905062004d09620080da565b81565b60de62004d18620080da565b81565b600062004d4b7fe122b26ce3286ccec5649654011d6658fc4adefd08afea94cd8b7e778a09b14660001b6200353f565b62004d797fdf5f6b71eee917259bdd3f4c657737152b1b0419677aaff5e59af3dbcc439a1260001b6200353f565b62004da77f5f63579ecdd56933452980a1b8f7782e49c7af1c2db09268c4b905293701e3d060001b6200353f565b60d860008373ffffffffffffffffffffffffffffffffffffffff1673ffffffffffffffffffffffffffffffffffffffff16815260200190815260200160002060009062004df3620080da565b906101000a900460ff169050919050565b62004e327f7400efbb2983ce0b07a712161471985f43e80154251418c1f14e54cc824fa5d960001b6200353f565b62004e607fe2108c9b510e6bc9bbf2aacdf4637dda5f5ba1f43acb055c9a10a0bc521c72a260001b6200353f565b62004e8e7f3a213bbc07145fb75bbd14143d2eeff7c56b658fc983177df249f141738ee29360001b6200353f565b62004ebc7f1945d12ae1ab28f2e3ed7a2b3a42fa6b85340a8581b323cb284396f92165c24a60001b6200353f565b60ce60009062004ecb620080da565b906101000a900473ffffffffffffffffffffffffffffffffffffffff1673ffffffffffffffffffffffffffffffffffffffff165a62004f096200807b565b73ffffffffffffffffffffffffffffffffffffffff161462004f6d576040517f08c379a000000000000000000000000000000000000000000000000000000000815260040162004f599062009a08565b6040518091039062004f6a6200800b565b50505b62004f9b7f59f49f62777915626c19d20f727a888eecbfc2bd28f7f94e1cdc47dfdf26250660001b6200353f565b62004fc97f43baf121f6188585c3dc7cebf1d3115d2ce4e6e42d952ff65479a4fca131363860001b6200353f565b62004ff77f2647a793579c93e9b7d0e22a9d28195f212730f9623c82f8f41856e7bbd9e69160001b6200353f565b620050257fe9af8458dea5317047e3fa99535992e9e1d7895da1e7bd16076ea5d16d5ac42a60001b6200353f565b620050537ff0d47eeef7efc63a72f40c4911355585ff645ede53b5aaa5c787a1e701edcd6760001b6200353f565b620050817f93a0de4f72c078d93ace5131dac3d2031e05a6601decaeb6d69c3f52f5ff5e9460001b6200353f565b6001151560cb60009062005094620080da565b906101000a900460ff16151514620050ee576040517f08c379a0000000000000000000000000000000000000000000000000000000008152600401620050da9062009ab2565b60405180910390620050eb6200800b565b50505b6200511c7f85019d4d0e3d847f7187583362850e44ad9275183aae86feedfd795a3270d20360001b6200353f565b6200514a7fe5c186c12b1537ed26ca49c9850ef2b751d4e6818328feacb3a538f6b2ab86b960001b6200353f565b620051787f99d6ed0a090d369b1ffd0645ca1f1aeb3df12f5b3a2477ebe5c0b00c1ba8387360001b6200353f565b6200518262007788565b565b620051b27f7400efbb2983ce0b07a712161471985f43e80154251418c1f14e54cc824fa5d960001b6200353f565b620051e07fe2108c9b510e6bc9bbf2aacdf4637dda5f5ba1f43acb055c9a10a0bc521c72a260001b6200353f565b6200520e7f3a213bbc07145fb75bbd14143d2eeff7c56b658fc983177df249f141738ee29360001b6200353f565b6200523c7f1945d12ae1ab28f2e3ed7a2b3a42fa6b85340a8581b323cb284396f92165c24a60001b6200353f565b60ce6000906200524b620080da565b906101000a900473ffffffffffffffffffffffffffffffffffffffff1673ffffffffffffffffffffffffffffffffffffffff165a620052896200807b565b73ffffffffffffffffffffffffffffffffffffffff1614620052ed576040517f08c379a0000000000000000000000000000000000000000000000000000000008152600401620052d99062009a08565b60405180910390620052ea6200800b565b50505b6200531b7f59f49f62777915626c19d20f727a888eecbfc2bd28f7f94e1cdc47dfdf26250660001b6200353f565b620053497f43baf121f6188585c3dc7cebf1d3115d2ce4e6e42d952ff65479a4fca131363860001b6200353f565b620053777f60eec5f23273f27c312660047f2e4cbd91b5674ed835d92336a958f0b6e0936460001b6200353f565b620053a57f50f70e34f373ef51c069e6a20166f8551c2e4b2c2ca84b3a6b829777d917d2b960001b6200353f565b620053d37f594fe9e2857f4c4445b8ca15e41e2a9505a6b3b02d3158221360d5416c94ac0960001b6200353f565b620054017faa5eb1325ebf7174f3444bb0cf9f14d5bba3be76a3ed4c095abbae2e35f4c7cd60001b6200353f565b6200540c8162004d1b565b62005459576040517f08c379a0000000000000000000000000000000000000000000000000000000008152600401620054459062009ad4565b60405180910390620054566200800b565b50505b620054877fd14744a9e1e8cc648a5d5546cfa678aa15db715413eb3b55f08fadc145f961b960001b6200353f565b620054b57fe918f33c94e027b5698d91be9c8b92658ee0037a1bf7859baa4617d9a4f6684660001b6200353f565b620054e37fc1476bc91885b8dbfcd492e237d148bb940d1fb4c70a9613c78a20007b71d86f60001b6200353f565b600060d860008373ffffffffffffffffffffffffffffffffffffffff1673ffffffffffffffffffffffffffffffffffffffff16815260200190815260200160002060006101000a8162005535620080da565b8160ff021916908315150217906200554c6200813f565b5050506200557d7f1e3dc160d044135719edcee90509a08afe781e706c58204eccf2a6ad58fe595a60001b6200353f565b620055ab7fa6bac91ebfe687ddff605154f99b383550dfb729eb183993ab1fd6c0f27e73a660001b6200353f565b620055b68162007843565b620055e47f1f6874fcb8b5771d174832e6a87efa8c779d0eb3a4c9a0e2d9787da8b7ca35db60001b6200353f565b620056127f6b20f1dec7efee54c9cd61e681d2bad0e59abf882ae865ce2a15a463d253c1a360001b6200353f565b8073ffffffffffffffffffffffffffffffffffffffff167fe8b3c469b395bfd934168e4b7d14590c9cd1a6740533df170dbe3c219ff5a67460405160405180910390a250565b60d660205280600052604060002060009150905062005676620080da565b81565b62005683620060da565b73ffffffffffffffffffffffffffffffffffffffff166065600090620056a8620080da565b906101000a900473ffffffffffffffffffffffffffffffffffffffff1673ffffffffffffffffffffffffffffffffffffffff161462005729576040517f08c379a0000000000000000000000000000000000000000000000000000000008152600401620057159062009b3a565b60405180910390620057266200800b565b50505b620057577fbae7377326630552aa132a43ba747db05601c6177e0d135eb8f5b5ad2a1ae75f60001b6200353f565b620057857ff1cf5ed285b50ea54657ecccd0e7df1cbe8bb13bd6d16e7789f78c6fa5e1a63a60001b6200353f565b620057b37f31ee7d980eaa78223f08e6b178e100885eae3f882a745821345aed0147cf569460001b6200353f565b8060dd8190620057c26200813f565b50505050565b6000620057f87fb6acdc3dfcba07016032834a4b7715a32848cee4f5d6cbcd87a8670019a869ad60001b6200353f565b620058267f3e4d7c7ae0c721521cd25c197c270671fb55b11e44aa46bc77a12d6592b0c55d60001b6200353f565b620058547f1a08c17e0943d07be54ed09d32b51b7b756f59f4deb13ab4bbd4802d3ab7b38260001b6200353f565b60de62005860620080da565b905090565b6000620058957f1143d5a1b4591aa159b84662f43173a42b145e05554c722179cebd0301c1bc7860001b620018f2565b620058c37f7fb7737fb45c1821b07c557fb20a85aadb74abfd7f3aded638b0611c3878f6d060001b620018f2565b620058f17f07f7be0cc03938e4a6c9d302d53effe0e7eae1a64d4b1edf5979abc9b339a86360001b620018f2565b60018260ff161415620059bc576200592c7f3bfd26995be6062183f721e38810e2c9bfebc7ad890b3e816674514dfbd4ce0460001b620018f2565b6200595a7fa4bc4e8958b80529b950c944abce515a6833102afc7d29546e084ceaeeac2fa360001b620018f2565b620059887f766415bd328a2e95a18338562c7168b19c4dd1b548a40d49e53abbd30ca9a62e60001b620018f2565b609860009062005997620080da565b906101000a900473ffffffffffffffffffffffffffffffffffffffff16905062005a75565b620059ea7f5d679e34a2aad8f74e73e7ab55dfc78793cff6530c8b4b8dc405aa4adad233f760001b620018f2565b62005a187f71457a6ea18b3c979da1914061e140dc0c949de3f35c9b0a628acbb763d8accd60001b620018f2565b62005a467f8401e39548639acf85c7c4cdec175f887d2872c6f9f12027c85ed88bef40f80060001b620018f2565b609760009062005a55620080da565b906101000a900473ffffffffffffffffffffffffffffffffffffffff1690505b919050565b62005a84620060da565b73ffffffffffffffffffffffffffffffffffffffff16606560009062005aa9620080da565b906101000a900473ffffffffffffffffffffffffffffffffffffffff1673ffffffffffffffffffffffffffffffffffffffff161462005b2a576040517f08c379a000000000000000000000000000000000000000000000000000000000815260040162005b169062009b3a565b6040518091039062005b276200800b565b50505b62005b587f57c128d68e26037704a4c70a7507652efb195e3234f69ef68beaafe0f2e11fac60001b6200353f565b62005b867f415bd2ea1845c56d9d414e18d387fde8b1ba7884d900c176d6ad30947bab667060001b6200353f565b62005bb47f25bd85c0f645e25b54aa342745dac1e80492f22598d8c6f28eec67600fbbf46460001b6200353f565b62005bbf8162007599565b50565b62005bcc620060da565b73ffffffffffffffffffffffffffffffffffffffff16606560009062005bf1620080da565b906101000a900473ffffffffffffffffffffffffffffffffffffffff1673ffffffffffffffffffffffffffffffffffffffff161462005c72576040517f08c379a000000000000000000000000000000000000000000000000000000000815260040162005c5e9062009b3a565b6040518091039062005c6f6200800b565b50505b600073ffffffffffffffffffffffffffffffffffffffff168173ffffffffffffffffffffffffffffffffffffffff16141562005cf0576040517f08c379a000000000000000000000000000000000000000000000000000000000815260040162005cdc90620099c4565b6040518091039062005ced6200800b565b50505b8073ffffffffffffffffffffffffffffffffffffffff16606560009062005d16620080da565b906101000a900473ffffffffffffffffffffffffffffffffffffffff1673ffffffffffffffffffffffffffffffffffffffff167f8be0079c531659141344cd1fd0a4f28419497f9722a3daafe3b4186f6b6457e060405160405180910390a380606560006101000a8162005d89620080da565b8173ffffffffffffffffffffffffffffffffffffffff021916908373ffffffffffffffffffffffffffffffffffffffff1602179062005dc76200813f565b50505050565b60008082840190508381101562005e26576040517f08c379a000000000000000000000000000000000000000000000000000000000815260040162005e1290620099e6565b6040518091039062005e236200800b565b50505b8091505092915050565b62005e5e7f342406e69494bb0e255a51ff57aa24575af3e59588c1dfc132acd36b41261b1b60001b6200353f565b62005e8c7f44b4c1485369eb7fb283a1bc9e08913b6034e1d639d5f15e4cf6d31395f2f54360001b6200353f565b62005eba7f680b997295f2acedd9e8489bdc7b13fe056aaa7c299a54174e294d57319e02c160001b6200353f565b62005ee87faefd123c3c5ef44ce7645f65dffeaf18cc09658ddac57bc40ac1090ae677ecb160001b6200353f565b80821115801562005f04575060d362005f00620080da565b8211155b62005f51576040517f08c379a000000000000000000000000000000000000000000000000000000000815260040162005f3d9062009af6565b6040518091039062005f4e6200800b565b50505b62005f7f7f415058a19439964fb977d03516ada01b90de066445e88d9dc66b8aceacef114560001b6200353f565b62005fad7f655b6311a09e4029ec12d0da7b8599dc6056825a3a56866652576eba454e146360001b6200353f565b62005fdb7fbb4335a27bb3ef6ee5ef6d3f41152524abf87b588ba50c074ce90cca9955320660001b6200353f565b8160d560008573ffffffffffffffffffffffffffffffffffffffff1673ffffffffffffffffffffffffffffffffffffffff1681526020019081526020016000208190620060276200813f565b505050620060587f56969d6062e79b43f1429dc0248554d64a2d54ead25a9bd4b3b27f594c2bd2ea60001b6200353f565b620060867f6851d7029cb0a91f7c4b526c1c51b8665f983d9054fbb302409f3e967d56175660001b6200353f565b8060d660008573ffffffffffffffffffffffffffffffffffffffff1673ffffffffffffffffffffffffffffffffffffffff1681526020019081526020016000208190620060d26200813f565b505050505050565b60005a620060e76200807b565b905090565b6200611a7f855d763aef1b39257dcae983dd04987b5ff9866dd6905f3b104e1792ece84f6e60001b6200353f565b620061487f435db111e98734e0aefa4906d679f669f8666f8bb00371c06dbbc38f2fd7089d60001b6200353f565b620061767fb1863b11234e1bd3eee0e9b1973cc81b9c8ef44a89cd8e3f728fb89ada9f3b2260001b6200353f565b620061a47f0a61b69b2911146fe6be3390b5cb103172f4a0651380f29f62b8c556a2899b4c60001b6200353f565b600073ffffffffffffffffffffffffffffffffffffffff168473ffffffffffffffffffffffffffffffffffffffff16141562006222576040517f08c379a00000000000000000000000000000000000000000000000000000000081526004016200620e9062009a90565b604051809103906200621f6200800b565b50505b620062507fbb6a3a3b0546de76d2c9028dbf90836d08cfb3a63f165cb566b43107f0071b2c60001b6200353f565b6200627e7fcb521a197cbdcf55f8fe0569a292d42542085549a4e443f724edc9c3cf419dc660001b6200353f565b620062ac7f10f54a8c712ce9287f074d3a4bdc52c3873e09e74aea3de150ab0b19e4d662a760001b6200353f565b620062da7f93cf3df28d10c77ae46dbd7a6ea3b676667d2c391eff3fbb3b032be7385491d660001b6200353f565b600083839050116200632e576040517f08c379a00000000000000000000000000000000000000000000000000000000081526004016200631a9062009a2a565b604051809103906200632b6200800b565b50505b6200635c7fc178d8b74cf04c836a8487c51ac4e66d7651bfbc58d5daea89cf2165ecaa0e1d60001b6200353f565b6200638a7fe2a35425f0567d7b74c7e042d4a30bb9ba4d96134fa4d7568ad4a5708e88fe7360001b6200353f565b620063b87f2745a0a3a4b32985f3e01b73f8e3740c72556ca9d3776a36c4a57d0f78bae4b160001b6200353f565b606083838080601f016020809104026020016040519081016040528093929190818152602001838380828437600081840152601f19601f8201169050808301925050505050505090506200642f7fe7b4734b876cc6d676d89c05466d4ba28b58a4de4722f5b1452085f4ea1222f860001b6200353f565b600080825160208401885a6200644462008480565b50505050508015600181146200645a5762006471565b3d806000803e8060006200646d6200800b565b5050505b5050620064a17f79c928ffbfeb122b155f5053cedffff99979f29afbb4b8fe2dfbe513cdbb4e4f60001b6200353f565b620064cf7f127ce5edf3b958530701de780e4d15517ccd754ee54d8875ccc889a36cadbc8760001b6200353f565b8473ffffffffffffffffffffffffffffffffffffffff165a620064f16200807b565b73ffffffffffffffffffffffffffffffffffffffff167f78a9b536049c39a00adaf57016b1376c99dd48a0faf2cef23690232f21ce42cc60405160405180910390a3620065617f168911cd8d9446d3e3f10ad19cf117bb9eb5a1c62d06f45480ed33fb22fcf7c560001b6200353f565b6200658f7fdccc1d4aef95164b4302d30bf27751844f482e57aec2e1e4fd0553637b5e9bd760001b6200353f565b8160db60008773ffffffffffffffffffffffffffffffffffffffff1673ffffffffffffffffffffffffffffffffffffffff1681526020019081526020016000208190620065db6200813f565b5050505050505050565b620066137fe8903023a9fbeec754866a76ca67a78026dcc57ae058ce6bfa4637873c95468c60001b6200353f565b620066417ff167642ff75d69b90cc0ffe784a739194100d0d78e92dd2fc75722006cf1dc4660001b6200353f565b6200666f7f86195f918053d52c56d84ae41aced262feab0e4b966b2ed014c75a49b33ea2ca60001b6200353f565b8060da81906200667e6200813f565b50505050565b620066b27f1fb4ba669140d0e681751e780f11d51c806e2446224f797560dfc320b9fcab0460001b6200353f565b620066e07faa360f633d68197ddf3312d4a465f46b19739f9c38f308fcc9fbe7ce4f03786560001b6200353f565b6200670e7fa288fa9738442feb5a02ef3f1cee0ca39e7ced25dd098a8b64c93df6bf17630b60001b6200353f565b8060df60008473ffffffffffffffffffffffffffffffffffffffff1673ffffffffffffffffffffffffffffffffffffffff16815260200190815260200160002060006101000a816200675f620080da565b8173ffffffffffffffffffffffffffffffffffffffff021916908373ffffffffffffffffffffffffffffffffffffffff160217906200679d6200813f565b5050505050565b6000620067d47ff10185cd0d32b01e55ffad919700e420ebf45969f802dd4844b6adb9fe4245ff60001b620018f2565b620068027f452575f3dbc9b055907c1454b851e41d0a58d1ec5c0cca63eacfb6f8e0af594c60001b620018f2565b620068307fd97cd8becc495d079ac1b24a8cdf886194dbc38095e15c1bc1f75230e6327b8b60001b620018f2565b60006200683c62007963565b90506200686c7ffd7c25c5bb6de2e5149ea08c68ad5b056b4385130e4b820e2a7d815e94e10d7460001b620018f2565b6200689a7fa162ebabde26d8833b815c37ddaada19180822b340532793441b6e1fb74cb64a60001b620018f2565b7efffc2da0b561cae30d9826d37709e9421c4725faebc226cbbb7ef5fc5e734981604051620068ca919062009783565b60405180910390a1620069007f03752cdd70fa4705bf713a5479875c8eea8ff77194d53a57aa714213d233851d60001b620018f2565b6200692e7f2de4b0d1e3c0ea5b6cdabed25b05a31291a99ee19833dc6a10e3ad021f4e22fa60001b620018f2565b8073ffffffffffffffffffffffffffffffffffffffff1663e74a474a5a63996d79a5598160e01b8152602081600483336000905af158601d01573d60011458600c01573d6000803e3d621234565260ea61109c528051925060005b6040811015620069a55760008183015260208101905062006989565b50505086866040518463ffffffff1660e01b8152600401620069ca9392919062009902565b60006040518083038160008780620069e1620081a6565b158015620069f957600080620069f66200800b565b50505b505a62006a056200820b565b50505050505015801562006a28573d6000803e3d600062006a256200800b565b50505b5050505062006a5a7fca4c6424b11b303816a57c74574b8e2d69588b2fa9e7538dd5ff0001fa08303b60001b620018f2565b62006a887f9ce465b2199eb0deac7ad9b2e2ecfc4186c9182be82cd7110104867d42e46f3e60001b620018f2565b8091505092915050565b62006ac07f65b8ba13a3ff3c3ac945ab7e5304bae5605e9b1fb403a075ba7d8ee1dc811f4960001b62004090565b62006aee7f41a7384b83fa4f8430527df521307a530950e2cde55b87d52b4015bc5132106360001b62004090565b62006b1c7fd3904c2e4697610125791b77cbb4d45f2925909c57ffa4ce7f64013bcddd02d960001b62004090565b8060cc60008473ffffffffffffffffffffffffffffffffffffffff1673ffffffffffffffffffffffffffffffffffffffff16815260200190815260200160002060006101000a8162006b6d620080da565b8173ffffffffffffffffffffffffffffffffffffffff021916908373ffffffffffffffffffffffffffffffffffffffff1602179062006bab6200813f565b5050505050565b62006be07f36a679ea840c895120a2e5b2efd588f82d5c63292af4a2d3f07ce50d9166fb5560001b6200353f565b62006c0e7f70dbfb1c381b954cff847bb53ad2cbcaf2d1bc778cce1275c6f8c34833e023d860001b6200353f565b62006c3c7f48b3ae19671452f27b15c62556d50159fa992b459ec31eec19d32e16e6aa707d60001b6200353f565b62006c6a7faac6a4febde600e3cb62b5a4e20b2ab4c512350a0f34d225d858eb28382ea2ad60001b6200353f565b8082111562006cbb576040517f08c379a000000000000000000000000000000000000000000000000000000000815260040162006ca79062009af6565b6040518091039062006cb86200800b565b50505b62006ce97fa2a942ea703b68df76acaf78efdf3b89c4b823264f4d5a78cbf30aba63ef2b0c60001b6200353f565b62006d177f4d54a6565ca1bcfb4c481c6af51a8345ccc6b53ff6b27d8eea4f15d18423a55660001b6200353f565b62006d457f721c6adca17a27be9de9a6d4b369b28bcdea2bfc0364626c80d4fae8c1ae7dff60001b6200353f565b8160cf819062006d546200813f565b50505062006d857f6bfe09a8251838c030b10ecd8a681ae011d65fcdf07bf735178f0dbad99c096a60001b6200353f565b62006db37f0baf920f00970ad967f1dd72eb61cb61c352104b17227ec8f65060b4f37b018160001b6200353f565b8060d0819062006dc26200813f565b50505062006df37f852689c4c1c033178ade5673be84b01a8bef02568253fd866d55ed05306204ac60001b6200353f565b62006e217f9ca022657cd2e9a430ce49285b6d552bc278e3aa350825804b223d49b75fc59660001b6200353f565b7fb10da2958bf5ec1bff3164ff753a09e0460ed44d3abf73e79b817b500ed0f2f1828260405162006e5492919062009c23565b60405180910390a15050565b6000805a63996d79a5598160e01b8152602081600483336000905af158601d01573d60011458600c01573d6000803e3d621234565260ea61109c528051925060005b604081101562006ebe5760008183015260208101905062006ea2565b505050905060008162006ed0620081a6565b9050600081149250505090565b62006f0b7fb9cb73f0f1dc764c2853ad1b65ee338105d0109104c42b321091a6f8b1694f1c60001b620018f2565b62006f397f2e6d3f297656381ff53916f1621b8d18b343157b4e197ecc6eddf64334e59a0260001b620018f2565b62006f677fae688c57ebecca526117ae635d1834de0a5d61d9e9843a02b28a8308f9be631860001b620018f2565b62006f7162007b3f565b62006f9f7fe1b47dc8732dfcba0907aae1c1ee71bd45af4f1063050be9e12fe0fdbddc7d5160001b620018f2565b62006fcd7f82ac6b6154aea0b9f4fe594ab0dee8d836fcf58efca81278bd58858ed96526ba60001b620018f2565b81609760006101000a8162006fe1620080da565b8173ffffffffffffffffffffffffffffffffffffffff021916908373ffffffffffffffffffffffffffffffffffffffff160217906200701f6200813f565b505050620070507f7a065f23de9cd33361faaef687297c5fc76ad4f7836265087b5a027d5330213d60001b620018f2565b6200707e7f7b7fe28aa5caeac4859b2f2489c983990bebb2b9b257ab47b2e79abd3a8ff09160001b620018f2565b80609860006101000a8162007092620080da565b8173ffffffffffffffffffffffffffffffffffffffff021916908373ffffffffffffffffffffffffffffffffffffffff16021790620070d06200813f565b5050505050565b620071057f10ef6a2510f74c6f22fb2baceca42c01d35aad779a621771443b7c3260d78b6660001b6200353f565b620071337f9a064c295d231f678a5e1187b475c2358548dca5fd217e8d2d26ac7db1e075db60001b6200353f565b620071617fac74234fdfd93144b7ae515f62c06f360e62b2668a29b22a763ae0f73ca589e360001b6200353f565b8060ce60006101000a8162007175620080da565b8173ffffffffffffffffffffffffffffffffffffffff021916908373ffffffffffffffffffffffffffffffffffffffff16021790620071b36200813f565b505050620071e47f2091c26ef2d789c26d3304643e600d0e1b4dedfb501a446ef32fc7934a1a676660001b6200353f565b620072127fc436fed5490101d0e2ee4051d87e48fc1ada1293a36acd538d243833b944482160001b6200353f565b7ff1034ad6b4d45dc33a4142b9c51c2b7f89bf4a410696e426cc0f3224869e0aca8160405162007243919062009766565b60405180910390a150565b6200727c7f1c575746af7e540e79ee85b032758a21536a189f89213b3a85e066dc52b584a460001b6200353f565b620072aa7ff1f920a307a50a36537b60d3e1c042f7b5cbcaeb5693ff3f159af2adb05b194560001b6200353f565b620072d87f61ba8e81e777423d00e5f67eb9e284267d1d53343273addc0fc94106f158de6360001b6200353f565b620073067f61c93a27ac7596e5f97d1b4edd90e38d7e91da65fe8f66d8111b0fe35e67e8ff60001b6200353f565b8082111562007357576040517f08c379a0000000000000000000000000000000000000000000000000000000008152600401620073439062009af6565b60405180910390620073546200800b565b50505b620073857f67e1d051d3c327450c6503f595b95e7a6565f18691fc98b49629af779ac00bfb60001b6200353f565b620073b37f60269d4aeb359878c7ebbb3f8c344a394957371fbc04e4a67b0f139d80a2571f60001b6200353f565b620073e17fdf17c3f71d656f18557810364eeb2ae93e784f9429026cd1d62337425531449960001b6200353f565b8160d38190620073f06200813f565b505050620074217f4933be021fd2adc709912cdafb27dd5649f844b4bd922722deb4e6b83f3182cd60001b6200353f565b6200744f7fa39dc92616864639644a3b46e19bbdba1bad9ff078fd5522fd1fe365ad98d04260001b6200353f565b8060d481906200745e6200813f565b5050505050565b620074937fe7fa6a0317205cdf803a379b89b2fc4e599804b8df8c13dcc9e0d14567be2dc660001b6200353f565b620074c17f60030e53a650617adea526f25af8c82f6ac5fe68541685c241042a363743d4ca60001b6200353f565b620074ef7f347994dfdc5276dbc554301fb187bd464bc39e3c2628b26657435ff8312dc27960001b6200353f565b8060d78190620074fe6200813f565b5050506200752f7f7763f9f62ad19bbc718b177b3d272ab010056a399855da20459f69567fb714dd60001b6200353f565b6200755d7f251d1de899117aa1d7ab3f7bd793c31406d588b348bf8a5e35e2d461790076ca60001b6200353f565b7f20d916c976f3971e8200089411b0b712ef4612d98380b8ad2e3d8a8a376d85c7816040516200758e919062009c06565b60405180910390a150565b620075c77fc1bfae458180838daca9cd4267d8b7b242304c4b1ac52539f9955fe5f1bb42cb60001b6200353f565b620075f57fdaeb5f78b873ba8e5db3d7d7f35e549d84048dee19babf2f4eaa1d97de77e5dd60001b6200353f565b620076237f9fb1cc00577c4aeef30eaf9a60f5b13460dd02001b51589722d2250a1770842c60001b6200353f565b8060d98190620076326200813f565b505050620076637f34883371b518cb8cfd96f62b66378a9690b490cf6d528d108de618f95079413860001b6200353f565b620076917fcb17074d2e829f42d3c0dc5be1f219401ef0d35240da0605d7515254a6df161760001b6200353f565b7f0cd8fcb5e08d7632af461f0ad793e5c63dc0d7595c301f5880650175e37a874881604051620076c2919062009c06565b60405180910390a150565b620076fb7fea35926461ee1cef215cda88aa0d6256f19710d3cebacabc5c8898b89036424160001b62004090565b620077297f74d2362fc219b82d2b228efbbac9abd1fe838e27a21038af24eb7acd580acce960001b62004090565b620077577f16bfa8786b9c8f92d47960522d778a68e6e3ef71d541ad5611365c3e3d47c3d160001b62004090565b600160cb60006101000a816200776c620080da565b8160ff02191690831515021790620077836200813f565b505050565b620077b67fb2d4461d33186f530feb6a7e5978fd288d6f74d06c64fc39ed663a8e8cf7909c60001b62004090565b620077e47fd365d4d343587d482ec7d412e51fc04a10fe789507c4d8a79ef93e191f0df90560001b62004090565b620078127f2d2c3636722eb6fbdcebab6ed6475aae28dc2df5484eeaf47c28cb5f0127999660001b62004090565b600060cb60006101000a8162007827620080da565b8160ff021916908315150217906200783e6200813f565b505050565b620078717fd54aceb568470500091af65a65817031c94887d30944addaef45d1577d99794b60001b62004090565b6200789f7f5771cdf3db0ec96c3fbbd46a59ebaf4988f408568b52a5383ae4b877e5c143ca60001b62004090565b620078cd7f1428afb59d854d21b50a9869194f7bb9002fd6ca9bee3733ecf70576a824b93960001b62004090565b600060cc60008373ffffffffffffffffffffffffffffffffffffffff1673ffffffffffffffffffffffffffffffffffffffff16815260200190815260200160002060006101000a816200791f620080da565b8173ffffffffffffffffffffffffffffffffffffffff021916908373ffffffffffffffffffffffffffffffffffffffff160217906200795d6200813f565b50505050565b6000620079937f3940190827eb558ad6b1d44ff82221168c39bc44f403fc3d529f8aba2386ab4d60001b620018f2565b620079c17f1b259310ef1e70abab4c1e844ede1bb0fbb8ffabcd5e2f70da239bad98510f5a60001b620018f2565b620079ef7fafbab21fbc899c98449f981ef31500b08a1af01372472eaf018580f45d551f8660001b620018f2565b600062007a1f7fdb9fff4fde73c1ed0f8680713417bb0f0568630f45cfce917973d1c59088cae660001b620018f2565b62007a4d7fd828a6341362111ddb6024665e6aeac0a88623dfe906a0a3cb76e56e575034e360001b620018f2565b60606040518060200162007a61906200858b565b6020820181038252601f19601f82011660405250905062007aa57fa62261015c41296292b88cf310529fd06a5417b12e68e6bb5edcbc0f61786dcb60001b620018f2565b805160208201600062007ab762008599565b505091508162007ac6620081a6565b62007adb5760008062007ad86200800b565b50505b62007b097f2eb81550b2aacc241edeac9aac683667606473939fc8d0154cb0462199cecc0960001b620018f2565b62007b377f2f53c8c2fd6b635e81554cee9203f211c91a7ab1c31532db6164bd9b1ea3fab460001b620018f2565b819250505090565b600060019062007b4e620080da565b906101000a900460ff168062007b6a575062007b6962006e60565b5b8062007b8a575060008062007b7e620080da565b906101000a900460ff16155b62007bd7576040517f08c379a000000000000000000000000000000000000000000000000000000000815260040162007bc39062009b5c565b6040518091039062007bd46200800b565b50505b60008060019062007be7620080da565b906101000a900460ff16159050801562007c59576001600060016101000a8162007c10620080da565b8160ff0219169083151502179062007c276200813f565b50505060016000806101000a8162007c3e620080da565b8160ff0219169083151502179062007c556200813f565b5050505b62007c6362007ca6565b62007c6d62007df9565b801562007ca35760008060016101000a8162007c88620080da565b8160ff0219169083151502179062007c9f6200813f565b5050505b50565b600060019062007cb5620080da565b906101000a900460ff168062007cd1575062007cd062006e60565b5b8062007cf1575060008062007ce5620080da565b906101000a900460ff16155b62007d3e576040517f08c379a000000000000000000000000000000000000000000000000000000000815260040162007d2a9062009b5c565b6040518091039062007d3b6200800b565b50505b60008060019062007d4e620080da565b906101000a900460ff16159050801562007dc0576001600060016101000a8162007d77620080da565b8160ff0219169083151502179062007d8e6200813f565b50505060016000806101000a8162007da5620080da565b8160ff0219169083151502179062007dbc6200813f565b5050505b801562007df65760008060016101000a8162007ddb620080da565b8160ff0219169083151502179062007df26200813f565b5050505b50565b600060019062007e08620080da565b906101000a900460ff168062007e24575062007e2362006e60565b5b8062007e44575060008062007e38620080da565b906101000a900460ff16155b62007e91576040517f08c379a000000000000000000000000000000000000000000000000000000000815260040162007e7d9062009b5c565b6040518091039062007e8e6200800b565b50505b60008060019062007ea1620080da565b906101000a900460ff16159050801562007f13576001600060016101000a8162007eca620080da565b8160ff0219169083151502179062007ee16200813f565b50505060016000806101000a8162007ef8620080da565b8160ff0219169083151502179062007f0f6200813f565b5050505b600062007f1f620060da565b905080606560006101000a8162007f35620080da565b8173ffffffffffffffffffffffffffffffffffffffff021916908373ffffffffffffffffffffffffffffffffffffffff1602179062007f736200813f565b5050508073ffffffffffffffffffffffffffffffffffffffff16600073ffffffffffffffffffffffffffffffffffffffff167f8be0079c531659141344cd1fd0a4f28419497f9722a3daafe3b4186f6b6457e060405160405180910390a3508015620080085760008060016101000a8162007fed620080da565b8160ff02191690831515021790620080046200813f565b5050505b50565b632a2a7adb598160e01b8152600481016020815285602082015260005b868110156200804857808601518160408401015260208101905062008028565b506020828760640184336000905af158601d01573d60011458600c01573d6000803e3d621234565260ea61109c52505050565b6373509064598160e01b8152602081600483336000905af158601d01573d60011458600c01573d6000803e3d621234565260ea61109c528051935060005b6040811015620080d557600081830152602081019050620080b9565b505050565b6303daa959598160e01b8152836004820152602081602483336000905af158601d01573d60011458600c01573d6000803e3d621234565260ea61109c528051935060005b60408110156200813a576000818301526020810190506200811e565b505050565b6322bd64c0598160e01b8152836004820152846024820152600081604483336000905af158601d01573d60011458600c01573d6000803e3d621234565260ea61109c5260005b6040811015620081a15760008183015260208101905062008185565b505050565b638435035b598160e01b8152836004820152602081602483336000905af158601d01573d60011458600c01573d6000803e3d621234565260ea61109c528051935060005b60408110156200820657600081830152602081019050620081ea565b505050565b6385979f76598160e01b81526200824d565b6000819050818311156200822f578290505b92915050565b60008190508183101562008247578290505b92915050565b836004820152846024820152606060448201528760648201526084810160005b898110156200828a5780890151818301526020810190506200826d565b506060828a60a40184336000905af158601d01573d60011458600c01573d6000803e3d621234565260ea61109c52815160408301513d6000853e8c8c82606087013350600060045af15059620082e18e3d62008235565b8d01620082ef81876200821d565b5b82811015620083095760008152602081019050620082f0565b50839e5050505050505050565b63bdbf8c36598160e01b8152602081600483336000905af158601d01573d60011458600c01573d6000803e3d621234565260ea61109c528051935060005b6040811015620083705760008183015260208101905062008354565b505050565b638540661f598160e01b8152620083b7565b60008190508183111562008399578290505b92915050565b600081905081831015620083b1578290505b92915050565b836004820152846024820152606060448201528660648201526084810160005b88811015620083f4578088015181830152602081019050620083d7565b506060828960a40184336000905af158601d01573d60011458600c01573d6000803e3d621234565260ea61109c52815160408301513d6000853e8b8b82606087013350600060045af150596200844b8d3d6200839f565b8c0162008459818762008387565b5b828110156200847357600081526020810190506200845a565b50839d5050505050505050565b63ffe73914598160e01b8152620084c2565b600081905081831115620084a4578290505b92915050565b600081905081831015620084bc578290505b92915050565b836004820152846024820152606060448201528660648201526084810160005b88811015620084ff578088015181830152602081019050620084e2565b506060828960a40184336000905af158601d01573d60011458600c01573d6000803e3d621234565260ea61109c52815160408301513d6000853e8b8b82606087013350600060045af15059620085568d3d620084aa565b8c0162008564818762008492565b5b828110156200857e576000815260208101905062008565565b50839d5050505050505050565b6118508062009fe983390190565b6314aa2ff7598160e01b8152600481016020815286602082015260005b87811015620085d6578087015181604084010152602081019050620085b6565b506020828860640184336000905af158601d01573d60011458600c01573d6000803e3d621234565260ea61109c528151965059825b818110156200862457600081526020810190506200860b565b5050505050565b6000813590506200863c8162009ee5565b92915050565b600082601f8301126200865f576000806200865c6200800b565b50505b813562008676620086708262009c89565b62009c50565b91508181835260208401935060208101905083856020840282011115620086a757600080620086a46200800b565b50505b60005b83811015620086db5781620086c088826200862b565b845260208401935060208301925050600181019050620086aa565b5050505092915050565b600082601f8301126200870257600080620086ff6200800b565b50505b813562008719620087138262009cbd565b62009c50565b915081818352602084019350602081019050838560408402820111156200874a57600080620087476200800b565b50505b60005b838110156200877e578162008763888262008936565b8452602084019350604083019250506001810190506200874d565b5050505092915050565b600081359050620087998162009f0a565b92915050565b600081519050620087b08162009f0a565b92915050565b600081359050620087c78162009f2f565b92915050565b60008083601f840112620087eb57600080620087e86200800b565b50505b8235905067ffffffffffffffff81111562008810576000806200880d6200800b565b50505b6020830191508360018202830111156200883457600080620088316200800b565b50505b9250929050565b600082601f8301126200885857600080620088556200800b565b50505b81356200886f620088698262009cf1565b62009c50565b915080825260208301602083018583830111156200889757600080620088946200800b565b50505b620088a483828462009e8f565b50505092915050565b600081519050620088be8162009f54565b92915050565b600082601f830112620088e157600080620088de6200800b565b50505b8135620088f8620088f28262009d29565b62009c50565b9150808252602083016020830185838301111562008920576000806200891d6200800b565b50505b6200892d83828462009e8f565b50505092915050565b6000604082840312156200895457600080620089516200800b565b50505b62008960604062009c50565b9050600062008972848285016200862b565b6000830152506020620089888482850162008788565b60208301525092915050565b600081359050620089a58162009f79565b92915050565b600081519050620089bc8162009f79565b92915050565b600081359050620089d38162009f9e565b92915050565b600081519050620089ea8162009fc3565b92915050565b60006020828403121562008a0e5760008062008a0b6200800b565b50505b600062008a1e848285016200862b565b91505092915050565b6000806040838503121562008a465760008062008a436200800b565b50505b600062008a56858286016200862b565b925050602062008a69858286016200862b565b9150509250929050565b600080600080600060a0868803121562008a975760008062008a946200800b565b50505b600062008aa7888289016200862b565b955050602062008aba888289016200862b565b945050604062008acd888289016200862b565b935050606086013567ffffffffffffffff81111562008af65760008062008af36200800b565b50505b62008b048882890162008642565b925050608086013567ffffffffffffffff81111562008b2d5760008062008b2a6200800b565b50505b62008b3b8882890162008642565b9150509295509295909350565b6000806040838503121562008b675760008062008b646200800b565b50505b600062008b77858286016200862b565b925050602062008b8a8582860162008994565b9150509250929050565b60006020828403121562008bb25760008062008baf6200800b565b50505b600062008bc2848285016200879f565b91505092915050565b600080600080600080600060e0888a03121562008bf25760008062008bef6200800b565b50505b600062008c028a828b0162008788565b975050602062008c158a828b016200862b565b965050604088013567ffffffffffffffff81111562008c3e5760008062008c3b6200800b565b50505b62008c4c8a828b01620088c4565b955050606088013567ffffffffffffffff81111562008c755760008062008c726200800b565b50505b62008c838a828b01620088c4565b945050608088013567ffffffffffffffff81111562008cac5760008062008ca96200800b565b50505b62008cba8a828b01620088c4565b93505060a062008ccd8a828b0162008994565b92505060c088013567ffffffffffffffff81111562008cf65760008062008cf36200800b565b50505b62008d048a828b01620086e5565b91505092959891949750929550565b60006020828403121562008d315760008062008d2e6200800b565b50505b600062008d4184828501620087b6565b91505092915050565b6000806040838503121562008d695760008062008d666200800b565b50505b600083013567ffffffffffffffff81111562008d8f5760008062008d8c6200800b565b50505b62008d9d858286016200883b565b925050602062008db085828601620089c2565b9150509250929050565b60006020828403121562008dd85760008062008dd56200800b565b50505b600062008de88482850162008994565b91505092915050565b6000806040838503121562008e105760008062008e0d6200800b565b50505b600062008e208582860162008994565b925050602062008e338582860162008994565b9150509250929050565b60008060008060008060a0878903121562008e625760008062008e5f6200800b565b50505b600062008e7289828a0162008994565b965050602062008e8589828a0162008994565b955050604062008e9889828a0162008994565b945050606062008eab89828a0162008994565b935050608087013567ffffffffffffffff81111562008ed45760008062008ed16200800b565b50505b62008ee289828a01620087cd565b92509250509295509295509295565b60006020828403121562008f0f5760008062008f0c6200800b565b50505b600062008f1f84828501620089c2565b91505092915050565b600080600080600060a0868803121562008f4c5760008062008f496200800b565b50505b600062008f5c88828901620089d9565b955050602062008f6f88828901620088ad565b945050604062008f8288828901620089ab565b935050606062008f9588828901620089ab565b925050608062008fa888828901620089d9565b9150509295509295909350565b600062008fc3838362009711565b60408301905092915050565b62008fda8162009e53565b82525050565b62008feb8162009dd2565b82525050565b62008ffc8162009dd2565b82525050565b60006200900f8262009d71565b6200901b818562009d9f565b9350620090288362009d61565b8060005b838110156200905f57815162009043888262008fb5565b9750620090508362009d92565b9250506001810190506200902c565b5085935050505092915050565b620090778162009de6565b82525050565b620090888162009de6565b82525050565b620090998162009df2565b82525050565b6000620090ac8262009d7c565b620090b8818562009db0565b9350620090ca81856020860162009e9e565b620090d58162009ed4565b840191505092915050565b6000620090ed8262009d87565b620090f9818562009dc1565b93506200910b81856020860162009e9e565b620091168162009ed4565b840191505092915050565b60006200913060128362009dc1565b91507f4e6f74206120706f6f6c206d616e6167657200000000000000000000000000006000830152602082019050919050565b600062009172600e8362009dc1565b91507f696e76616c696420626f756e64730000000000000000000000000000000000006000830152602082019050919050565b6000620091b460268362009dc1565b91507f4f776e61626c653a206e6577206f776e657220697320746865207a65726f206160008301527f64647265737300000000000000000000000000000000000000000000000000006020830152604082019050919050565b60006200921c601b8362009dc1565b91507f536166654d6174683a206164646974696f6e206f766572666c6f7700000000006000830152602082019050919050565b60006200925e60088362009dc1565b91507f6f6e6c792064616f0000000000000000000000000000000000000000000000006000830152602082019050919050565b6000620092a0600c8362009dc1565b91507f646174612d696e76616c696400000000000000000000000000000000000000006000830152602082019050919050565b6000620092e260148362009dc1565b91507f6d616e616765722066656520746f6f20686967680000000000000000000000006000830152602082019050919050565b60006200932460258362009dc1565b91507f5072696365436f6e73756d657256333a2061676772656761746f72206e6f742060008301527f666f756e640000000000000000000000000000000000000000000000000000006020830152604082019050919050565b60006200938c600e8362009dc1565b91507f7461726765742d696e76616c69640000000000000000000000000000000000006000830152602082019050919050565b6000620093ce602a8362009dc1565b91507f5072696365436f6e73756d657256333a20636861696e6c696e6b20616c72656160008301527f647920656e61626c6564000000000000000000000000000000000000000000006020830152604082019050919050565b60006200943660138362009dc1565b91507f617373657420646f65736e2774206578697374000000000000000000000000006000830152602082019050919050565b60006200947860108362009dc1565b91507f696e76616c6964206672616374696f6e000000000000000000000000000000006000830152602082019050919050565b6000620094ba60248362009dc1565b91507f5072696365436f6e73756d657256333a207072696365206e6f7420617661696c60008301527f61626c65000000000000000000000000000000000000000000000000000000006020830152604082019050919050565b60006200952260208362009dc1565b91507f4f776e61626c653a2063616c6c6572206973206e6f7420746865206f776e65726000830152602082019050919050565b600062009564602e8362009dc1565b91507f436f6e747261637420696e7374616e63652068617320616c726561647920626560008301527f656e20696e697469616c697a65640000000000000000000000000000000000006020830152604082019050919050565b6000620095cc60148362009dc1565b91507f617373657420616c7265616479206578697374730000000000000000000000006000830152602082019050919050565b60006200960e60288362009dc1565b91507f5072696365436f6e73756d657256333a20636861696e6c696e6b20707269636560008301527f20657870697265640000000000000000000000000000000000000000000000006020830152604082019050919050565b60006200967660268362009dc1565b91507f5072696365436f6e73756d657256333a20636861696e6c696e6b206e6f74206560008301527f6e61626c656400000000000000000000000000000000000000000000000000006020830152604082019050919050565b6000620096de601e8362009dc1565b91507f737570706c6965642061646472657373206973206e6f74206120706f6f6c00006000830152602082019050919050565b60408201600082015162009729600085018262008fe0565b5060208201516200973e60208501826200906c565b50505050565b6200974f8162009e26565b82525050565b620097608162009e30565b82525050565b60006020820190506200977d600083018462008ff1565b92915050565b60006020820190506200979a600083018462008fcf565b92915050565b6000608082019050620097b7600083018762008ff1565b620097c6602083018662008ff1565b8181036040830152620097da8185620090e0565b90508181036060830152620097f0818462009002565b905095945050505050565b600060a08201905062009812600083018862008ff1565b6200982160208301876200907d565b8181036040830152620098358186620090e0565b905081810360608301526200984b8185620090e0565b90506200985c608083018462008ff1565b9695505050505050565b6000610100820190506200987e600083018b62008ff1565b6200988d602083018a6200907d565b8181036040830152620098a18189620090e0565b90508181036060830152620098b78188620090e0565b9050620098c8608083018762008ff1565b620098d760a083018662009744565b620098e660c083018562009744565b620098f560e083018462009744565b9998505050505050505050565b600060608201905062009919600083018662008ff1565b81810360208301526200992d81856200909f565b90506200993e604083018462009755565b949350505050565b60006020820190506200995d60008301846200907d565b92915050565b60006020820190506200997a60008301846200908e565b92915050565b600060208201905081810360008301526200999b8162009121565b9050919050565b60006020820190508181036000830152620099bd8162009163565b9050919050565b60006020820190508181036000830152620099df81620091a5565b9050919050565b6000602082019050818103600083015262009a01816200920d565b9050919050565b6000602082019050818103600083015262009a23816200924f565b9050919050565b6000602082019050818103600083015262009a458162009291565b9050919050565b6000602082019050818103600083015262009a6781620092d3565b9050919050565b6000602082019050818103600083015262009a898162009315565b9050919050565b6000602082019050818103600083015262009aab816200937d565b9050919050565b6000602082019050818103600083015262009acd81620093bf565b9050919050565b6000602082019050818103600083015262009aef8162009427565b9050919050565b6000602082019050818103600083015262009b118162009469565b9050919050565b6000602082019050818103600083015262009b3381620094ab565b9050919050565b6000602082019050818103600083015262009b558162009513565b9050919050565b6000602082019050818103600083015262009b778162009555565b9050919050565b6000602082019050818103600083015262009b9981620095bd565b9050919050565b6000602082019050818103600083015262009bbb81620095ff565b9050919050565b6000602082019050818103600083015262009bdd8162009667565b9050919050565b6000602082019050818103600083015262009bff81620096cf565b9050919050565b600060208201905062009c1d600083018462009744565b92915050565b600060408201905062009c3a600083018562009744565b62009c49602083018462009744565b9392505050565b6000604051905081810181811067ffffffffffffffff8211171562009c7f5760008062009c7c6200800b565b50505b8060405250919050565b600067ffffffffffffffff82111562009cac5760008062009ca96200800b565b50505b602082029050602081019050919050565b600067ffffffffffffffff82111562009ce05760008062009cdd6200800b565b50505b602082029050602081019050919050565b600067ffffffffffffffff82111562009d145760008062009d116200800b565b50505b601f19601f8301169050602081019050919050565b600067ffffffffffffffff82111562009d4c5760008062009d496200800b565b50505b601f19601f8301169050602081019050919050565b6000819050602082019050919050565b600081519050919050565b600081519050919050565b600081519050919050565b6000602082019050919050565b600082825260208201905092915050565b600082825260208201905092915050565b600082825260208201905092915050565b600062009ddf8262009e06565b9050919050565b60008115159050919050565b6000819050919050565b6000819050919050565b600073ffffffffffffffffffffffffffffffffffffffff82169050919050565b6000819050919050565b600060ff82169050919050565b600069ffffffffffffffffffff82169050919050565b600062009e608262009e67565b9050919050565b600062009e748262009e7b565b9050919050565b600062009e888262009e06565b9050919050565b82818337600083830152505050565b60005b8381101562009ebe57808201518184015260208101905062009ea1565b8381111562009ece576000848401525b50505050565b6000601f19601f8301169050919050565b62009ef08162009dd2565b811462009f075760008062009f046200800b565b50505b50565b62009f158162009de6565b811462009f2c5760008062009f296200800b565b50505b50565b62009f3a8162009df2565b811462009f515760008062009f4e6200800b565b50505b50565b62009f5f8162009dfc565b811462009f765760008062009f736200800b565b50505b50565b62009f848162009e26565b811462009f9b5760008062009f986200800b565b50505b50565b62009fa98162009e30565b811462009fc05760008062009fbd6200800b565b50505b50565b62009fce8162009e3d565b811462009fe55760008062009fe26200800b565b50505b5056fe60806040523480156100195760008061001661001f565b50505b5061008d565b632a2a7adb598160e01b8152600481016020815285602082015260005b8681101561005a57808601518160408401015260208101905061003c565b506020828760640184336000905af158601d01573d60011458600c01573d6000803e3d621234565260ea61109c52505050565b6117b48061009c6000396000f3fe6080604052600436106100435760003560e01c806399fcc3af1461010c5780639fca148914610159578063a4d57bee146101a6578063e74a474a146101f35761007e565b3661007e576100747fc6b4e05c8886da748779e3730e8c17790f4949c297c98f69c0e25769046b382860001b6102ff565b61007c610302565b005b6100aa7f7cac60e495c25cc9e216dd3d679b6fd06d90acd829d30d51b0b95c15961f9ce860001b6102ff565b6100d67fa498bb8916b0b37a35deaa8b1accf938c042e340ce4efc8012c9bc9f2d9a158260001b6102ff565b6101027fb98f83d464d19b3956a82d774c19111c6b015ef12927ca07b8c336ee6ed5c83260001b6102ff565b61010a610302565b005b3480156101215760008061011e61141b565b50505b50610157600480360360208110156101415760008061013e61141b565b50505b81019080803590602001909291905050506102ff565b005b34801561016e5760008061016b61141b565b50505b506101a46004803603602081101561018e5760008061018b61141b565b50505b81019080803590602001909291905050506103f8565b005b3480156101bb576000806101b861141b565b50505b506101f1600480360360208110156101db576000806101d861141b565b50505b81019080803590602001909291905050506103fb565b005b6102fd600480360360608110156102125760008061020f61141b565b50505b81019080803573ffffffffffffffffffffffffffffffffffffffff169060200190929190803590602001906401000000008111156102585760008061025561141b565b50505b8201836020820111156102735760008061027061141b565b50505b8035906020019184600183028401116401000000008311171561029e5760008061029b61141b565b50505b91908080601f016020809104026020016040519081016040528093929190818152602001838380828437600081840152601f19601f820116905080830192505050505050509192919290803560ff1690602001909291905050506103fe565b005b50565b61032e7fcc50f323444403c69b72c742f10568fd580356f98ea0b8a61244432b4b8329aa60001b6102ff565b61035a7f91459de950b72cb048d7c2381f9b9aa525ffd2583f54ee2b5d56207fdd63c5f260001b6102ff565b6103867f2a63a560972ad1e96b63734e142fb213f07cc296632536b43fa61424677948a660001b6102ff565b61038e610a0e565b6103ba7f77edd1b383a85548630fa7bfd95f57342f38b1ebd03fe4ad3dbba6c3b573793560001b6102ff565b6103e67fb07c5e61b7983b69d2f2e8e63be5cea8d7d53b55b03a0cf98e73a5d19bd6ae6e60001b6102ff565b6103f66103f1610a3c565b610dbb565b565b50565b50565b61042a7f3a2cb568b5f0c02143f547f22155e22d641ae73b092cf7be91b2a48baf5d27b660001b6103fb565b6104567f77b59016394b667c232007d5d7f351405335dadba38fd8efce4f3dfb78997e1d60001b6103fb565b6104827f4808f7f9c1c39002a44520b8cdbe298ebcfcd1cebba3ddda7c3c306fca2cba8060001b6103fb565b6104ae7f7a97ee10ea7a8eda5e03c8bc7e3f193cb948f9814608c10ad1de4b1b88f60c3760001b6103fb565b600073ffffffffffffffffffffffffffffffffffffffff166104ce610a3c565b73ffffffffffffffffffffffffffffffffffffffff1614610560576040517f08c379a000000000000000000000000000000000000000000000000000000000815260040180806020018281038252600d8152602001807f496d706c206e6f74207a65726f000000000000000000000000000000000000008152506020019150506040518091039061055d61141b565b50505b61058c7f3a215253b6e6c1dba9e36d7e09433efb0eaab4fbd542af9a2ad7275c15ea576a60001b6103fb565b6105b87f8e03d80b97a7e1e6eb80137f094a73f60a308817bab257efd2f68722745dcaea60001b6103fb565b6105e47f8de64bd6bbf8d5a366f32c7e120e3cc8c821adb94ed23cb745cfd0bf7f90fff560001b6103fb565b60017f360894a13ba1a3210667c828492db98dca3e2076cc3735a920a3ca505d382bbd60001c0360001b7f360894a13ba1a3210667c828492db98dca3e2076cc3735a920a3ca505d382bbc60001b1461063957fe5b6106657f1bfe6fc8a642589c190af97973b30fc181f621e68ea3fc530134f2c9960d66c760001b6103fb565b6106917f26da551a6a926ba9dba93b2820059c1008c782601820a25d21c2a8ee4b4d024560001b6103fb565b61069a83610e52565b6106c67f062aa06dbe01d194bba31b85e273757d6336e6bf1e87409032d1fc917f1a731760001b6103fb565b6106f27f7e21962afbd4b7de92ac7eeae1bb8c663e2b123195c725e12fb5d71f3863a03160001b6103fb565b6106fb8161106e565b6107277ff6e6b478580a83b05883b3e7feb1d09ce95b547c04198ba48de5aee8183acc5e60001b6103fb565b6107537f8965cdf8c1d2f0888f33a3d43c74902372c94e17b01677d6a81c030f4671307b60001b6103fb565b6000825111156109dc576107897f115c9352b821f67eac063ff66d255887a6023e7ed2a2043aca73dbe8fb47bd8360001b6103fb565b6107b57fbff092917c7b1f4508c4411509a64a2e7be6129d44ca4eb9111fb0e4a900910f60001b6103fb565b6107e17f3f21e28976af0f6f8446da03b470231c7db787d35cec72dc33011588a197501660001b6103fb565b60006107eb610a3c565b73ffffffffffffffffffffffffffffffffffffffff16836040518082805190602001908083835b602083106108355780518252602082019150602081019050602083039250610812565b6001836020036101000a038019825116818451168082178552505050505050905001915050600060405180830381855a61086d611489565b50505050509150503d80600081146108a1576040519150601f19603f3d011682016040523d82523d6000602084013e6108a6565b606091505b505090506108d67f23de363b5e338d9543c99d138b972416e84bfdbb99e884708202df8ce169a3c960001b6103fb565b6109027f015f525def9afaa0242af4bbb13399182ea70edcc69e6160e0f3222180acf68460001b6103fb565b61092e7f1cc7ae8bc4414ecccd28794dbd32704e951176f54b750d298ea49ccaf9afa56060001b6103fb565b806109aa576040517f08c379a000000000000000000000000000000000000000000000000000000000815260040180806020018281038252601a8152602001807f496d706c656d656e746174696f6e20696e6974206661696c6564000000000000815250602001915050604051809103906109a761141b565b50505b6109d67f0851853b63f6d8b4dbb98458c7ed10f33f41bb03b22e873c1091d57429c6e39360001b6103fb565b50610a09565b610a087f4e41306208c109d267c3db0a422978c4db16e863c7ebbc6603365e29c547b5b060001b6103fb565b5b505050565b610a3a7f276b633fb1946cc03b9c844674afbbfa8f3e77bc0ffafeb39b77dabc1886667560001b6102ff565b565b6000610a6a7f077de034f5c7298f11d849c35541287460ab2175e9265eed7f948784b84b95e260001b6103f8565b610a967feb5666e3ff94584d3f43ed9d4226fb55c9d5fd656f201fc448d94a7cce59b0fd60001b6103f8565b610ac27fec433353424e2aa184bc7059a893e4fab799c68e834318eccef10e441687f7f360001b6103f8565b6000610af07f53ce0dd4617f9997965c4e7a52f203163a3f5c80d8f29d8c471110aca611c11660001b6103f8565b610b1c7f76c6db1ab825a57a577f977ff80e0f30540ebcfa89671fe345afaa15aff79ae960001b6103f8565b60007f360894a13ba1a3210667c828492db98dca3e2076cc3735a920a3ca505d382bbc60001b9050610b707fa5793ed3e454c6da632434d6ad8ba3e21aadb69ec0eaaf4673ec86a9b565275560001b6103f8565b80610b79611589565b9150610ba77fdd8e92d4de16353bc86e626af17fe8b09f1a11017635c855fb0a7fadc4baf2dd60001b6103f8565b610bd37f3f022d8f69f42c34354a868b842611bc7e9f34010c7962d6223657785b28042860001b6103f8565b600073ffffffffffffffffffffffffffffffffffffffff168273ffffffffffffffffffffffffffffffffffffffff161415610c6b57610c347f173b1db32db0581166a1cec716d6f825d30035adb4043fa1faf667f6e1ba39f460001b6103f8565b610c607f1b2cc020f945581b6d8d02f38ca4e6283cf5fa2b06ac14a640cb20689274816760001b6103f8565b600092505050610db8565b610c977fbea1bee21992abdd1abf0c189d41f808e091c05595bbba731a69bc489fdcf68e60001b6103f8565b610cc37f6f9f753bde1a19cfbaba68d5a9e501237dec3e9ffd52d9f8cd9263cdec9ad2b560001b6103f8565b610cef7fc3f9a96809e79305f42491aae649f233d7b0c9bf585bb625e37e63514c3507c860001b6103f8565b8173ffffffffffffffffffffffffffffffffffffffff1663ecef89d5610d13611156565b6040518263ffffffff1660e01b8152600401808260ff1681526020019150506020604051808303818680610d456115ec565b158015610d5a57600080610d5761141b565b50505b505a610d6461164f565b5050505050158015610d83573d6000803e3d6000610d8061141b565b50505b505050506040513d6020811015610da257600080610d9f61141b565b50505b8101908080519060200190929190505050925050505b90565b610de77f6553b3bbf61b84602ae382fedcbbf6290bc154e245b87926d62e3f86240a4bf260001b6102ff565b610e137fde788fbfc1fb399d6b655d570b484725b445d3bb4cf78879e20863a893557b0060001b6102ff565b3660008037600080366000845a610e28611489565b50505050503d6000803e8060008114610e40573d6000f35b3d6000610e4b61141b565b5050505050565b610e7e7f91eb2693086155afa1a63324ebcb4f2967f172d990060602d776bb717f04d54660001b6103f8565b610eaa7f629ad5a2c2f16cfad67fc9298c8549c3b857d49865451687ff0926b6fa8885c660001b6103f8565b610ed67fe1c0a344e7e819566bfd4ab41d97f31d1409abbc35ee34d7b4f5161435de78e560001b6103f8565b610f027f7ab470c380fc0752790480bda347ca04794e83e6222fc0021fccf1cc82a7f62560001b6103f8565b610f0b816112f5565b610f86576040517f08c379a00000000000000000000000000000000000000000000000000000000081526004018080602001828103825260208152602001807f43616e6e6f742073657420696d706c656d656e746174696f6e20746f20454f4181525060200191505060405180910390610f8361141b565b50505b610fb27f70accb29c12468c14362f4b65efb2efa6adf4a1a2aab7e801bde3a803939c05560001b6103f8565b610fde7f6455548ba1bb40a10c79cb9b45afb5f85aea883cd4416e069ce504078869386160001b6103f8565b61100a7f9dde5da54c56e76ac05f69b0d6cfc5337cb767b4473dbbf71901fd6fed42972f60001b6103f8565b60007f360894a13ba1a3210667c828492db98dca3e2076cc3735a920a3ca505d382bbc60001b905061105e7fee9707930db6602f53581706bde146ff5c1089a64af5fbb50c5be9e9b7f96ab960001b6103f8565b818161106861174f565b50505050565b61109a7fbc81e88c2edd168034892c20512aa682a4868d292d05737b3dffa83cad7037dc60001b6103f8565b6110c67f987d71e7dc06ab5c788f4c9a0129e58572dd551161646eadafc6681843482b3860001b6103f8565b6110f27f64f8535121c0c8606762fc4f486ebb7f5b493d79a2c012479e94427203f1aa3460001b6103f8565b60007f100000000000000000000000000000000000000000000000000000000000000060001b90506111467f6824280e261c39488edbfa7a475a691b312d5c522dfa40bf9f6ae2b79bd6840f60001b6103f8565b818161115061174f565b50505050565b60006111847f9678d93bcdb7e8ebd2d49fa07be99cbcb83c3977ae8ad3058c2ea2daaefab51e60001b6103f8565b6111b07ff18a944a5a9a44a81768adb2f6707f7dc7b98dad5f0f42f84fb5f333a3acf1b360001b6103f8565b6111dc7f3faeaf931136d7c21b99a41ba1c4022c5eef76d609e347679d6dfbf3d117b0ec60001b6103f8565b600061120a7f9e8b25b038102415cca03a970994a70109eeef5e5be0f613784662482e2e19c660001b6103f8565b6112367fdd8cdda75d04b380d725cdb7fa79f7cc8829c6d1df58515e90bfa757016b8a5a60001b6103f8565b60007f100000000000000000000000000000000000000000000000000000000000000060001b905061128a7f45c698179387c7d3079bd5738e6b04085f039528bec62a361fcd921001601bae60001b6103f8565b80611293611589565b91506112c17f1e9bce0245cc028ace68fe7e6ef5e100315b0879da647cb93eb9c121d3d832b760001b6103f8565b6112ed7f0ec1f28fb7f1c508d86cd00feb7f41ae8d18bfa0c5d0ac20d867bce5a8fccc6460001b6103f8565b819250505090565b60006113237f17b6a0c44ed2f5553cfcbcfdac44c59dff4727457b669adb5d55bd0063077d8b60001b611418565b61134f7f2748d44997f6bf7fba63b3249775817425de6f3bc535ba457f02b96c476714e660001b611418565b61137b7f4d9960f45a6cd5d5a67ffbf0fec1c641e98a7a63e9fd82635c7d94436118ceb260001b611418565b60006113a97f2da09769987cc7b599e1411a5c3604dd9825e89e29a9890444d270d86d9121b260001b611418565b826113b26115ec565b90506113e07fb8684c3fbea589324b71d8ac61740117361d861f5b224982f3a2d46349b3a39060001b611418565b61140c7f2ba6b82a203e9740df351b6f679eff0e15187876af68dd271196c030bd5660d260001b611418565b60008111915050919050565b50565b632a2a7adb598160e01b8152600481016020815285602082015260005b86811015611456578086015181604084010152602081019050611438565b506020828760640184336000905af158601d01573d60011458600c01573d6000803e3d621234565260ea61109c52505050565b63ffe73914598160e01b81526114c8565b6000819050818311156114ab578290505b92915050565b6000819050818310156114c2578290505b92915050565b836004820152846024820152606060448201528660648201526084810160005b888110156115035780880151818301526020810190506114e8565b506060828960a40184336000905af158601d01573d60011458600c01573d6000803e3d621234565260ea61109c52815160408301513d6000853e8b8b82606087013350600060045af150596115588d3d6114b1565b8c01611564818761149a565b5b8281101561157c5760008152602081019050611565565b50839d5050505050505050565b6303daa959598160e01b8152836004820152602081602483336000905af158601d01573d60011458600c01573d6000803e3d621234565260ea61109c528051935060005b60408110156115e7576000818301526020810190506115cd565b505050565b638435035b598160e01b8152836004820152602081602483336000905af158601d01573d60011458600c01573d6000803e3d621234565260ea61109c528051935060005b604081101561164a57600081830152602081019050611630565b505050565b638540661f598160e01b815261168e565b600081905081831115611671578290505b92915050565b600081905081831015611688578290505b92915050565b836004820152846024820152606060448201528660648201526084810160005b888110156116c95780880151818301526020810190506116ae565b506060828960a40184336000905af158601d01573d60011458600c01573d6000803e3d621234565260ea61109c52815160408301513d6000853e8b8b82606087013350600060045af1505961171e8d3d611677565b8c0161172a8187611660565b5b82811015611742576000815260208101905061172b565b50839d5050505050505050565b6322bd64c0598160e01b8152836004820152846024820152600081604483336000905af158601d01573d60011458600c01573d6000803e3d621234565260ea61109c5260005b60408110156117af57600081830152602081019050611795565b50505056",
  "linkReferences": {},
  "deployedLinkReferences": {}
}