{
  "_format": "hh-sol-artifact-1",
  "contractName": "PoolFactory-ovm",
  "sourceName": "contracts/PoolFactory.sol",
  "abi": [
    {
      "anonymous": false,
      "inputs": [
        {
          "indexed": true,
          "internalType": "address",
          "name": "asset",
          "type": "address"
        }
      ],
      "name": "AddedValidAsset",
      "type": "event"
    },
    {
      "anonymous": false,
      "inputs": [
        {
          "indexed": false,
          "internalType": "address",
          "name": "dao",
          "type": "address"
        }
      ],
      "name": "DaoAddressSet",
      "type": "event"
    },
    {
      "anonymous": false,
      "inputs": [
        {
          "indexed": false,
          "internalType": "uint256",
          "name": "numerator",
          "type": "uint256"
        },
        {
          "indexed": false,
          "internalType": "uint256",
          "name": "denominator",
          "type": "uint256"
        }
      ],
      "name": "DaoFeeSet",
      "type": "event"
    },
    {
      "anonymous": false,
      "inputs": [
        {
          "indexed": false,
          "internalType": "uint256",
          "name": "cooldown",
          "type": "uint256"
        }
      ],
      "name": "ExitCooldownSet",
      "type": "event"
    },
    {
      "anonymous": false,
      "inputs": [
        {
          "indexed": false,
          "internalType": "uint256",
          "name": "numerator",
          "type": "uint256"
        },
        {
          "indexed": false,
          "internalType": "uint256",
          "name": "denominator",
          "type": "uint256"
        }
      ],
      "name": "ExitFeeSet",
      "type": "event"
    },
    {
      "anonymous": false,
      "inputs": [
        {
          "indexed": false,
          "internalType": "address",
          "name": "fundAddress",
          "type": "address"
        },
        {
          "indexed": false,
          "internalType": "bool",
          "name": "isPoolPrivate",
          "type": "bool"
        },
        {
          "indexed": false,
          "internalType": "string",
          "name": "fundName",
          "type": "string"
        },
        {
          "indexed": false,
          "internalType": "string",
          "name": "managerName",
          "type": "string"
        },
        {
          "indexed": false,
          "internalType": "address",
          "name": "manager",
          "type": "address"
        },
        {
          "indexed": false,
          "internalType": "uint256",
          "name": "time",
          "type": "uint256"
        },
        {
          "indexed": false,
          "internalType": "uint256",
          "name": "managerFeeNumerator",
          "type": "uint256"
        },
        {
          "indexed": false,
          "internalType": "uint256",
          "name": "managerFeeDenominator",
          "type": "uint256"
        }
      ],
      "name": "FundCreated",
      "type": "event"
    },
    {
      "anonymous": false,
      "inputs": [
        {
          "indexed": true,
          "internalType": "address",
          "name": "manager",
          "type": "address"
        },
        {
          "indexed": true,
          "internalType": "address",
          "name": "pool",
          "type": "address"
        }
      ],
      "name": "LogUpgrade",
      "type": "event"
    },
    {
      "anonymous": false,
      "inputs": [
        {
          "indexed": false,
          "internalType": "uint256",
          "name": "count",
          "type": "uint256"
        }
      ],
      "name": "MaximumSupportedAssetCountSet",
      "type": "event"
    },
    {
      "anonymous": false,
      "inputs": [
        {
          "indexed": true,
          "internalType": "address",
          "name": "previousOwner",
          "type": "address"
        },
        {
          "indexed": true,
          "internalType": "address",
          "name": "newOwner",
          "type": "address"
        }
      ],
      "name": "OwnershipTransferred",
      "type": "event"
    },
    {
      "anonymous": false,
      "inputs": [
        {
          "indexed": false,
          "internalType": "address",
          "name": "proxy",
          "type": "address"
        }
      ],
      "name": "ProxyCreated",
      "type": "event"
    },
    {
      "anonymous": false,
      "inputs": [
        {
          "indexed": true,
          "internalType": "address",
          "name": "asset",
          "type": "address"
        }
      ],
      "name": "RemovedValidAsset",
      "type": "event"
    },
    {
      "inputs": [
        {
          "internalType": "address",
          "name": "asset",
          "type": "address"
        },
        {
          "internalType": "uint8",
          "name": "assetType",
          "type": "uint8"
        },
        {
          "internalType": "address",
          "name": "aggregator",
          "type": "address"
        }
      ],
      "name": "addValidAsset",
      "outputs": [],
      "stateMutability": "nonpayable",
      "type": "function"
    },
    {
      "inputs": [
        {
          "internalType": "bool",
          "name": "_privatePool",
          "type": "bool"
        },
        {
          "internalType": "address",
          "name": "_manager",
          "type": "address"
        },
        {
          "internalType": "string",
          "name": "_managerName",
          "type": "string"
        },
        {
          "internalType": "string",
          "name": "_fundName",
          "type": "string"
        },
        {
          "internalType": "string",
          "name": "_fundSymbol",
          "type": "string"
        },
        {
          "internalType": "uint256",
          "name": "_managerFeeNumerator",
          "type": "uint256"
        },
        {
          "internalType": "address[]",
          "name": "_supportedAssets",
          "type": "address[]"
        }
      ],
      "name": "createFund",
      "outputs": [
        {
          "internalType": "address",
          "name": "",
          "type": "address"
        }
      ],
      "stateMutability": "nonpayable",
      "type": "function"
    },
    {
      "inputs": [
        {
          "internalType": "bytes",
          "name": "_data",
          "type": "bytes"
        },
        {
          "internalType": "uint8",
          "name": "_proxyType",
          "type": "uint8"
        }
      ],
      "name": "deploy",
      "outputs": [
        {
          "internalType": "address",
          "name": "",
          "type": "address"
        }
      ],
      "stateMutability": "nonpayable",
      "type": "function"
    },
    {
      "inputs": [
        {
          "internalType": "uint256",
          "name": "",
          "type": "uint256"
        }
      ],
      "name": "deployedFunds",
      "outputs": [
        {
          "internalType": "address",
          "name": "",
          "type": "address"
        }
      ],
      "stateMutability": "view",
      "type": "function"
    },
    {
      "inputs": [],
      "name": "deployedFundsLength",
      "outputs": [
        {
          "internalType": "uint256",
          "name": "",
          "type": "uint256"
        }
      ],
      "stateMutability": "view",
      "type": "function"
    },
    {
      "inputs": [
        {
          "internalType": "address",
          "name": "asset",
          "type": "address"
        }
      ],
      "name": "getAssetPrice",
      "outputs": [
        {
          "internalType": "uint256",
          "name": "",
          "type": "uint256"
        }
      ],
      "stateMutability": "view",
      "type": "function"
    },
    {
      "inputs": [],
      "name": "getDaoAddress",
      "outputs": [
        {
          "internalType": "address",
          "name": "",
          "type": "address"
        }
      ],
      "stateMutability": "view",
      "type": "function"
    },
    {
      "inputs": [],
      "name": "getDaoFee",
      "outputs": [
        {
          "internalType": "uint256",
          "name": "",
          "type": "uint256"
        },
        {
          "internalType": "uint256",
          "name": "",
          "type": "uint256"
        }
      ],
      "stateMutability": "view",
      "type": "function"
    },
    {
      "inputs": [],
      "name": "getExitCooldown",
      "outputs": [
        {
          "internalType": "uint256",
          "name": "",
          "type": "uint256"
        }
      ],
      "stateMutability": "view",
      "type": "function"
    },
    {
      "inputs": [
        {
          "internalType": "address",
          "name": "extContract",
          "type": "address"
        }
      ],
      "name": "getGuard",
      "outputs": [
        {
          "internalType": "address",
          "name": "",
          "type": "address"
        }
      ],
      "stateMutability": "view",
      "type": "function"
    },
    {
      "inputs": [
        {
          "internalType": "uint8",
          "name": "_proxyType",
          "type": "uint8"
        }
      ],
      "name": "getLogic",
      "outputs": [
        {
          "internalType": "address",
          "name": "",
          "type": "address"
        }
      ],
      "stateMutability": "view",
      "type": "function"
    },
    {
      "inputs": [],
      "name": "getManagerFeeNumeratorChangeDelay",
      "outputs": [
        {
          "internalType": "uint256",
          "name": "",
          "type": "uint256"
        }
      ],
      "stateMutability": "view",
      "type": "function"
    },
    {
      "inputs": [],
      "name": "getMaximumManagerFee",
      "outputs": [
        {
          "internalType": "uint256",
          "name": "",
          "type": "uint256"
        },
        {
          "internalType": "uint256",
          "name": "",
          "type": "uint256"
        }
      ],
      "stateMutability": "view",
      "type": "function"
    },
    {
      "inputs": [],
      "name": "getMaximumManagerFeeNumeratorChange",
      "outputs": [
        {
          "internalType": "uint256",
          "name": "",
          "type": "uint256"
        }
      ],
      "stateMutability": "view",
      "type": "function"
    },
    {
      "inputs": [],
      "name": "getMaximumSupportedAssetCount",
      "outputs": [
        {
          "internalType": "uint256",
          "name": "",
          "type": "uint256"
        }
      ],
      "stateMutability": "view",
      "type": "function"
    },
    {
      "inputs": [
        {
          "internalType": "address",
          "name": "pool",
          "type": "address"
        }
      ],
      "name": "getPoolManagerFee",
      "outputs": [
        {
          "internalType": "uint256",
          "name": "",
          "type": "uint256"
        },
        {
          "internalType": "uint256",
          "name": "",
          "type": "uint256"
        }
      ],
      "stateMutability": "view",
      "type": "function"
    },
    {
      "inputs": [],
      "name": "getPriceConsumer",
      "outputs": [
        {
          "internalType": "address",
          "name": "",
          "type": "address"
        }
      ],
      "stateMutability": "view",
      "type": "function"
    },
    {
      "inputs": [],
      "name": "getTrackingCode",
      "outputs": [
        {
          "internalType": "bytes32",
          "name": "",
          "type": "bytes32"
        }
      ],
      "stateMutability": "view",
      "type": "function"
    },
    {
      "inputs": [
        {
          "internalType": "address",
          "name": "_poolLogic",
          "type": "address"
        },
        {
          "internalType": "address",
          "name": "_managerLogic",
          "type": "address"
        },
        {
          "internalType": "address",
          "name": "priceConsumer",
          "type": "address"
        },
        {
          "internalType": "address",
          "name": "daoAddress",
          "type": "address"
        },
        {
          "components": [
            {
              "internalType": "address",
              "name": "asset",
              "type": "address"
            },
            {
              "internalType": "uint8",
              "name": "assetType",
              "type": "uint8"
            },
            {
              "internalType": "address",
              "name": "aggregator",
              "type": "address"
            }
          ],
          "internalType": "struct IHasAssetInfo.Asset[]",
          "name": "assets",
          "type": "tuple[]"
        }
      ],
      "name": "initialize",
      "outputs": [],
      "stateMutability": "nonpayable",
      "type": "function"
    },
    {
      "inputs": [
        {
          "internalType": "address",
          "name": "",
          "type": "address"
        }
      ],
      "name": "isPool",
      "outputs": [
        {
          "internalType": "bool",
          "name": "",
          "type": "bool"
        }
      ],
      "stateMutability": "view",
      "type": "function"
    },
    {
      "inputs": [
        {
          "internalType": "address",
          "name": "",
          "type": "address"
        }
      ],
      "name": "isPoolManager",
      "outputs": [
        {
          "internalType": "bool",
          "name": "",
          "type": "bool"
        }
      ],
      "stateMutability": "view",
      "type": "function"
    },
    {
      "inputs": [
        {
          "internalType": "address",
          "name": "asset",
          "type": "address"
        }
      ],
      "name": "isValidAsset",
      "outputs": [
        {
          "internalType": "bool",
          "name": "",
          "type": "bool"
        }
      ],
      "stateMutability": "view",
      "type": "function"
    },
    {
      "inputs": [],
      "name": "managerFeeNumeratorChangeDelay",
      "outputs": [
        {
          "internalType": "uint256",
          "name": "",
          "type": "uint256"
        }
      ],
      "stateMutability": "view",
      "type": "function"
    },
    {
      "inputs": [],
      "name": "maximumManagerFeeNumeratorChange",
      "outputs": [
        {
          "internalType": "uint256",
          "name": "",
          "type": "uint256"
        }
      ],
      "stateMutability": "view",
      "type": "function"
    },
    {
      "inputs": [],
      "name": "owner",
      "outputs": [
        {
          "internalType": "address",
          "name": "",
          "type": "address"
        }
      ],
      "stateMutability": "view",
      "type": "function"
    },
    {
      "inputs": [
        {
          "internalType": "address",
          "name": "",
          "type": "address"
        }
      ],
      "name": "poolManagerFeeDenominator",
      "outputs": [
        {
          "internalType": "uint256",
          "name": "",
          "type": "uint256"
        }
      ],
      "stateMutability": "view",
      "type": "function"
    },
    {
      "inputs": [
        {
          "internalType": "address",
          "name": "",
          "type": "address"
        }
      ],
      "name": "poolManagerFeeNumerator",
      "outputs": [
        {
          "internalType": "uint256",
          "name": "",
          "type": "uint256"
        }
      ],
      "stateMutability": "view",
      "type": "function"
    },
    {
      "inputs": [],
      "name": "poolStorageVersion",
      "outputs": [
        {
          "internalType": "uint256",
          "name": "",
          "type": "uint256"
        }
      ],
      "stateMutability": "view",
      "type": "function"
    },
    {
      "inputs": [
        {
          "internalType": "address",
          "name": "",
          "type": "address"
        }
      ],
      "name": "poolVersion",
      "outputs": [
        {
          "internalType": "uint256",
          "name": "",
          "type": "uint256"
        }
      ],
      "stateMutability": "view",
      "type": "function"
    },
    {
      "inputs": [
        {
          "internalType": "address",
          "name": "asset",
          "type": "address"
        }
      ],
      "name": "removeValidAsset",
      "outputs": [],
      "stateMutability": "nonpayable",
      "type": "function"
    },
    {
      "inputs": [],
      "name": "renounceOwnership",
      "outputs": [],
      "stateMutability": "nonpayable",
      "type": "function"
    },
    {
      "inputs": [
        {
          "internalType": "address",
          "name": "daoAddress",
          "type": "address"
        }
      ],
      "name": "setDaoAddress",
      "outputs": [],
      "stateMutability": "nonpayable",
      "type": "function"
    },
    {
      "inputs": [
        {
          "internalType": "uint256",
          "name": "numerator",
          "type": "uint256"
        },
        {
          "internalType": "uint256",
          "name": "denominator",
          "type": "uint256"
        }
      ],
      "name": "setDaoFee",
      "outputs": [],
      "stateMutability": "nonpayable",
      "type": "function"
    },
    {
      "inputs": [
        {
          "internalType": "uint256",
          "name": "cooldown",
          "type": "uint256"
        }
      ],
      "name": "setExitCooldown",
      "outputs": [],
      "stateMutability": "nonpayable",
      "type": "function"
    },
    {
      "inputs": [
        {
          "internalType": "address",
          "name": "extContract",
          "type": "address"
        },
        {
          "internalType": "address",
          "name": "guardAddress",
          "type": "address"
        }
      ],
      "name": "setGuard",
      "outputs": [],
      "stateMutability": "nonpayable",
      "type": "function"
    },
    {
      "inputs": [
        {
          "internalType": "address",
          "name": "_poolLogic",
          "type": "address"
        },
        {
          "internalType": "address",
          "name": "_poolManagerLogic",
          "type": "address"
        }
      ],
      "name": "setLogic",
      "outputs": [],
      "stateMutability": "nonpayable",
      "type": "function"
    },
    {
      "inputs": [
        {
          "internalType": "uint256",
          "name": "delay",
          "type": "uint256"
        }
      ],
      "name": "setManagerFeeNumeratorChangeDelay",
      "outputs": [],
      "stateMutability": "nonpayable",
      "type": "function"
    },
    {
      "inputs": [
        {
          "internalType": "uint256",
          "name": "amount",
          "type": "uint256"
        }
      ],
      "name": "setMaximumManagerFeeNumeratorChange",
      "outputs": [],
      "stateMutability": "nonpayable",
      "type": "function"
    },
    {
      "inputs": [
        {
          "internalType": "uint256",
          "name": "count",
          "type": "uint256"
        }
      ],
      "name": "setMaximumSupportedAssetCount",
      "outputs": [],
      "stateMutability": "nonpayable",
      "type": "function"
    },
    {
      "inputs": [
        {
          "internalType": "address",
          "name": "pool",
          "type": "address"
        },
        {
          "internalType": "uint256",
          "name": "numerator",
          "type": "uint256"
        }
      ],
      "name": "setPoolManagerFeeNumerator",
      "outputs": [],
      "stateMutability": "nonpayable",
      "type": "function"
    },
    {
      "inputs": [
        {
          "internalType": "address",
          "name": "priceConsumer",
          "type": "address"
        }
      ],
      "name": "setPriceConsumer",
      "outputs": [],
      "stateMutability": "nonpayable",
      "type": "function"
    },
    {
      "inputs": [
        {
          "internalType": "bytes32",
          "name": "code",
          "type": "bytes32"
        }
      ],
      "name": "setTrackingCode",
      "outputs": [],
      "stateMutability": "nonpayable",
      "type": "function"
    },
    {
      "inputs": [
        {
          "internalType": "address",
          "name": "newOwner",
          "type": "address"
        }
      ],
      "name": "transferOwnership",
      "outputs": [],
      "stateMutability": "nonpayable",
      "type": "function"
    },
    {
      "inputs": [
        {
          "internalType": "uint256",
          "name": "startIndex",
          "type": "uint256"
        },
        {
          "internalType": "uint256",
          "name": "endIndex",
          "type": "uint256"
        },
        {
          "internalType": "uint256",
          "name": "sourceVersion",
          "type": "uint256"
        },
        {
          "internalType": "uint256",
          "name": "targetVersion",
          "type": "uint256"
        },
        {
          "internalType": "bytes",
          "name": "data",
          "type": "bytes"
        }
      ],
      "name": "upgradePoolBatch",
      "outputs": [],
      "stateMutability": "nonpayable",
      "type": "function"
    }
  ],
  "bytecode": "0x60806040523480156200001c576000806200001962000023565b50505b5062000090565b632a2a7adb598160e01b8152600481016020815285602082015260005b868110156200005d57808601518282016040015260200162000040565b506020828760640184336000905af158600e01573d6000803e3d6000fd5b3d6001141558600a015760016000f35b505050565b61418780620000a06000396000f3fe60806040523480156200001c576000806200001962002940565b50505b5060043610620002bb5760003560e01c80639a068bd6116200017c578063c4a2267711620000e0578063e60eb412116200009e578063e60eb41214620005c7578063e99c0fa614620005de578063ebee461d14620005f5578063ecef89d514620005ff578063eec16c441462000616578063f2fde38b146200062d57620002bb565b8063c4a226771462000561578063cc435bf31462000578578063ce26e9ef146200058f578063d05b76691462000599578063dc76d25414620005b057620002bb565b8063b193a5f4116200013a578063b193a5f414620004e4578063b3596f0714620004fb578063b7a545261462000512578063bcb01f441462000529578063bee37e521462000540578063bfeaf71d146200055757620002bb565b80639a068bd6146200048b5780639a3cac6a14620004a25780639cada6e414620004b9578063aa12ae4d14620004c3578063aa7d664e14620004cd57620002bb565b806349f7c02d1162000224578063715018a611620001e2578063715018a61462000418578063771d1baf1462000422578063808ae5fb146200043957806386e76f7314620004505780638da5cb5b146200046757806394d0d23b146200047157620002bb565b806349f7c02d14620003b05780635556ee5514620003ba5780635b16ebb714620003d15780635c9bfc2b14620003f75780637027ea6c146200040157620002bb565b80631e666d13116200027e5780631e666d1314620003335780631e8e8bca146200034a578063227773ee1462000361578063391d348b14620003785780634501b088146200038f57806345812ca5146200039957620002bb565b8063046b72c414620002cb5780630bf99bd914620002e45780630f6559c4146200030657806310bf69dc14620003105780631d68702d146200031a575b600080620002c862002940565b50505b620002e2620002dc366004620030fd565b62000644565b005b620002ee620007b8565b604051620002fd91906200367f565b60405180910390f35b620002ee620007cd565b620002ee620007dc565b62000324620007e8565b604051620002fd9190620034c9565b620002e26200034436600462003380565b6200080c565b620002e26200035b366004620032a9565b6200097d565b620002e26200037236600462002f46565b620009f9565b62000324620003893660046200318c565b62000a74565b620002ee62000d7c565b62000324620003aa366004620032cd565b62000d8f565b620002ee62000da6565b620002ee620003cb36600462002f1d565b62000db4565b620003e8620003e236600462002f1d565b62000dce565b604051620002fd919062003674565b620002ee62000df7565b620003246200041236600462002f1d565b62000e05565b620002e262000e42565b620002e26200043336600462003353565b62000f3e565b620002e26200044a36600462002f46565b62000fb8565b620002e26200046136600462002f1d565b6200109c565b6200032462001115565b6200047b62001124565b604051620002fd92919062003936565b620003246200049c366004620032a9565b62001147565b620002e2620004b336600462002f1d565b62001189565b6200047b62001202565b620002ee6200121d565b620002e2620004de366004620032a9565b6200122b565b620003e8620004f536600462002f1d565b620012a4565b620002ee6200050c36600462002f1d565b620012c0565b6200047b6200052336600462002f1d565b6200138c565b620002e26200053a366004620032a9565b62001443565b620002ee6200055136600462002f1d565b620014c5565b620002ee620014df565b620002e26200057236600462003135565b620014eb565b620003e86200058936600462002f1d565b620016c8565b62000324620016fe565b620002e2620005aa36600462002f8a565b6200170d565b620002e2620005c136600462002f1d565b62001a4f565b620002ee620005d836600462002f1d565b62001c22565b620002e2620005ef366004620032a9565b62001c3c565b620002ee62001cb8565b62000324620006103660046200344f565b62001cc6565b620002e262000627366004620032a9565b62001d09565b620002e26200063e36600462002f1d565b62001d82565b60d160005a62000653620029ad565b6001600160a01b03166001600160a01b031681526020019081526020016000206000906200068062002a04565b906101000a900460ff1615156001151514620006c45760405162461bcd60e51b8152600401620006b09062003688565b60405180910390620006c162002940565b50505b6001600160a01b038216600090815260d060205260409020600090620006e962002a04565b906101000a900460ff16151560011515146200072d5760405162461bcd60e51b81526004016200071990620038ff565b604051809103906200072a62002940565b50505b6200076660dc6200073d62002a04565b6001600160a01b038416600090815260d4602052604090206200075f62002a04565b9062001ebe565b8111156200079c5760405162461bcd60e51b81526004016200078890620037a1565b604051809103906200079962002940565b50505b620007b4828260d3620007ae62002a04565b62001f00565b5050565b600060cb80620007c762002a04565b91505090565b60db620007d962002a04565b81565b60dc620007d962002a04565b60008060cc620007f762002a04565b906101000a90046001600160a01b0316905090565b6200081662001f9e565b6001600160a01b0316600060656200082d62002a04565b906101000a90046001600160a01b03166001600160a01b0316146200087a5760405162461bcd60e51b815260040162000866906200384e565b604051809103906200087762002940565b50505b84861115801562000898575060cb806200089362002a04565b905086105b8015620008b2575060cb80620008ad62002a04565b905085105b620008e55760405162461bcd60e51b8152600401620008d190620036b4565b60405180910390620008e262002940565b50505b855b8581116200097457600060cb8281620008ff62002a04565b81106200090857fe5b906000526020600020016000906200091f62002a04565b6001600160a01b036101009290920a900416600081815260da6020529091508690604090206200094e62002a04565b146200095b57506200096b565b620009698185858862001fab565b505b600101620008e7565b50505050505050565b6200098762001f9e565b6001600160a01b0316600060656200099e62002a04565b906101000a90046001600160a01b03166001600160a01b031614620009eb5760405162461bcd60e51b8152600401620009d7906200384e565b60405180910390620009e862002940565b50505b620009f68162002113565b50565b600060cc62000a0762002a04565b906101000a90046001600160a01b03166001600160a01b03165a62000a2b620029ad565b6001600160a01b03161462000a685760405162461bcd60e51b815260040162000a549062003759565b6040518091039062000a6562002940565b50505b620007b4828262002121565b600060605a63996d79a5598160e01b8152602081600483336000905af158600e01573d6000803e3d6000fd5b3d6001141558600a015760016000f35b8051925060005b604081101562000ad05760008282015260200162000ab7565b50505088888560405160240162000aeb9493929190620034dd565b604051601f198183030181526040919091526331a22a9960e21b6020820180516001600160e01b031690911790529050600062000b2a82600162000d8f565b905060605a63996d79a5598160e01b8152602081600483336000905af158600e01573d6000803e3d6000fd5b3d6001141558600a015760016000f35b8051925060005b604081101562000b865760008282015260200162000b6d565b5050508b89898560405160240162000ba395949392919062003552565b604051601f19818303018152604091909152630ccb30c760e01b6020820180516001600160e01b031690911790529050600062000be282600262000d8f565b90508060cb8060018162000bf562002a04565b01808262000c0262002a51565b50506000928352600019019160209150200160018162000c2162002a04565b816001600160a01b0302191690836001600160a01b031602179062000c4562002a51565b5050506001600160a01b038116600090815260d06020526001906040902060018162000c7062002a04565b8160ff0219169083151502179062000c8762002a51565b5050506001600160a01b038316600090815260d16020526001906040902060018162000cb262002a04565b8160ff0219169083151502179062000cc962002a51565b50505060db62000cd862002a04565b6001600160a01b038216600090815260da60205260409020819062000cfc62002a51565b50505062000d11818860d3620007ae62002a04565b7f73a0638fe578fc759744633aa170a433061ca2cc1bb855d116c506e04a29901f818d8b8d8f5a62000d4262002aa0565b8d60d362000d4f62002a04565b60405162000d65989796959493929190620035a8565b60405180910390a19b9a5050505050505050505050565b600060d662000d8a62002a04565b905090565b600062000d9d838362002148565b90505b92915050565b600060d962000d8a62002a04565b60da6020528060005260406000209050620007d962002a04565b60d06020528060005260406000206000915062000dea62002a04565b906101000a900460ff1681565b600060dc62000d8a62002a04565b6001600160a01b038116600090815260de6020526040812060009062000e2a62002a04565b906101000a90046001600160a01b031690505b919050565b62000e4c62001f9e565b6001600160a01b03166000606562000e6362002a04565b906101000a90046001600160a01b03166001600160a01b03161462000eb05760405162461bcd60e51b815260040162000e9c906200384e565b6040518091039062000ead62002940565b50505b600080606562000ebf62002a04565b906101000a90046001600160a01b03166001600160a01b03167f8be0079c531659141344cd1fd0a4f28419497f9722a3daafe3b4186f6b6457e060405160405180910390a36000606560018162000f1562002a04565b816001600160a01b0302191690836001600160a01b031602179062000f3962002a51565b505050565b62000f4862001f9e565b6001600160a01b03166000606562000f5f62002a04565b906101000a90046001600160a01b03166001600160a01b03161462000fac5760405162461bcd60e51b815260040162000f98906200384e565b6040518091039062000fa962002940565b50505b620007b4828262002285565b62000fc262001f9e565b6001600160a01b03166000606562000fd962002a04565b906101000a90046001600160a01b03166001600160a01b031614620010265760405162461bcd60e51b815260040162001012906200384e565b604051809103906200102362002940565b50505b8160976001816200103662002a04565b816001600160a01b0302191690836001600160a01b03160217906200105a62002a51565b50505080609860006101000a816200107162002a04565b816001600160a01b0302191690836001600160a01b03160217906200109562002a51565b5050505050565b620010a662001f9e565b6001600160a01b031660006065620010bd62002a04565b906101000a90046001600160a01b03166001600160a01b0316146200110a5760405162461bcd60e51b8152600401620010f6906200384e565b604051809103906200110762002940565b50505b620009f6816200231e565b6000806065620007f762002a04565b60008060d26200113362002a04565b60d36200113f62002a04565b915091509091565b60cb81816200115562002a04565b81106200115e57fe5b90600052602060002001600091506200117662002a04565b906101000a90046001600160a01b031681565b6200119362001f9e565b6001600160a01b031660006065620011aa62002a04565b906101000a90046001600160a01b03166001600160a01b031614620011f75760405162461bcd60e51b8152600401620011e3906200384e565b60405180910390620011f462002940565b50505b620009f6816200232e565b60008060ce6200121162002a04565b60cf6200113f62002a04565b600060d862000d8a62002a04565b6200123562001f9e565b6001600160a01b0316600060656200124c62002a04565b906101000a90046001600160a01b03166001600160a01b031614620012995760405162461bcd60e51b815260040162001285906200384e565b604051809103906200129662002940565b50505b620009f681620023a1565b60d16020528060005260406000206000915062000dea62002a04565b60008060cd620012cf62002a04565b906101000a90046001600160a01b03166001600160a01b0316638b2f0f4f836040518263ffffffff1660e01b81526004016200130c9190620034c9565b60206040518083038186806200132162002ae7565b15801562001339576000806200133662002940565b50505b505a6200134562002b34565b505050505015801562001367573d6000803e3d60006200136462002940565b50505b50505050604051601f3d908101601f1916820160405262000da091908101906200332d565b6001600160a01b038116600090815260d06020528060408120600090620013b262002a04565b906101000a900460ff1615156001151514620013f65760405162461bcd60e51b8152600401620013e290620038ff565b60405180910390620013f362002940565b50505b6001600160a01b038316600090815260d4602052604090206200141862002a04565b6001600160a01b038416600090815260d5602052604090206200143a62002a04565b91509150915091565b6200144d62001f9e565b6001600160a01b0316600060656200146462002a04565b906101000a90046001600160a01b03166001600160a01b031614620014b15760405162461bcd60e51b81526004016200149d906200384e565b60405180910390620014ae62002940565b50505b808060dd620014bf62002a51565b50505050565b60d46020528060005260406000209050620007d962002a04565b60dd620007d962002a04565b600060cc620014f962002a04565b906101000a90046001600160a01b03166001600160a01b03165a6200151d620029ad565b6001600160a01b0316146200155a5760405162461bcd60e51b8152600401620015469062003759565b604051809103906200155762002940565b50505b6200156583620016c8565b15620015995760405162461bcd60e51b81526004016200158590620038d1565b604051809103906200159662002940565b50505b6001600160a01b038316600090815260d760205260019060409020600181620015c162002a04565b8160ff02191690831515021790620015d862002a51565b50505060cd600090620015ea62002a04565b906101000a90046001600160a01b03166001600160a01b031663b91ba5488484846040518463ffffffff1660e01b81526004016200162b939291906200364e565b600060405180830381600087806200164262002ae7565b1580156200165a576000806200165762002940565b50505b505a6200166662002c2a565b50505050505015801562001689573d6000803e3d60006200168662002940565b50505b50505050826001600160a01b03167fd63c302652b86334fe4eb891e7a01e61e836496485d9394f2c95b4222006ae5060405160405180910390a2505050565b6001600160a01b038116600090815260d760205260408120600090620016ed62002a04565b906101000a900460ff169050919050565b60008060cd620007f762002a04565b600160006200171b62002a04565b906101000a900460ff168062001736575062001736620023e3565b806200175657506000806200174a62002a04565b906101000a900460ff16155b620017895760405162461bcd60e51b8152600401620017759062003883565b604051809103906200178662002940565b50505b60006001816200179862002a04565b906101000a900460ff16159050801562001807576001600061010081620017be62002a04565b8160ff02191690831515021790620017d562002a51565b50505060016000806101000a81620017ec62002a04565b8160ff021916908315150217906200180362002a51565b5050505b62001813868662002458565b6200181e846200231e565b62001829836200232e565b6200183961138861271062002462565b62001847600a606462002285565b6200185562015180620023a1565b620018636224ea0062001443565b620018706103e862001c3c565b6200187c600a620024b9565b620018906544484544474560d01b62002113565b60005b82518160ff16101562001a1357600160d76000858460ff1681518110620018b657fe5b6020026020010151516001600160a01b03166001600160a01b03168152602001908152602001600020600181620018ec62002a04565b8160ff021916908315150217906200190362002a51565b50505060cd6000906200191562002a04565b906101000a90046001600160a01b03166001600160a01b031663b91ba548848360ff16815181106200194357fe5b602002602001015151858460ff16815181106200195c57fe5b602002602001015160200151868560ff16815181106200197857fe5b6020026020010151604001516040518463ffffffff1660e01b8152600401620019a4939291906200364e565b60006040518083038160008780620019bb62002ae7565b158015620019d357600080620019d062002940565b50505b505a620019df62002c2a565b50505050505015801562001a02573d6000803e3d6000620019ff62002940565b50505b505060019092019150620018939050565b50801562001a47576000806101008162001a2c62002a04565b8160ff0219169083151502179062001a4362002a51565b5050505b505050505050565b600060cc62001a5d62002a04565b906101000a90046001600160a01b03166001600160a01b03165a62001a81620029ad565b6001600160a01b03161462001abe5760405162461bcd60e51b815260040162001aaa9062003759565b6040518091039062001abb62002940565b50505b62001ac981620016c8565b62001afc5760405162461bcd60e51b815260040162001ae890620037f7565b6040518091039062001af962002940565b50505b6001600160a01b038116600090815260d76020526040812060018162001b2162002a04565b8160ff0219169083151502179062001b3862002a51565b50505060cd60009062001b4a62002a04565b906101000a90046001600160a01b03166001600160a01b0316634a5e42b1826040518263ffffffff1660e01b815260040162001b879190620034c9565b6000604051808303816000878062001b9e62002ae7565b15801562001bb65760008062001bb362002940565b50505b505a62001bc262002c2a565b50505050505015801562001be5573d6000803e3d600062001be262002940565b50505b50505050806001600160a01b03167fe8b3c469b395bfd934168e4b7d14590c9cd1a6740533df170dbe3c219ff5a67460405160405180910390a250565b60d56020528060005260406000209050620007d962002a04565b62001c4662001f9e565b6001600160a01b03166000606562001c5d62002a04565b906101000a90046001600160a01b03166001600160a01b03161462001caa5760405162461bcd60e51b815260040162001c96906200384e565b6040518091039062001ca762002940565b50505b808060dc620014bf62002a51565b600060dd62000d8a62002a04565b60008160ff166001141562001cfb576000609862001ce362002a04565b906101000a90046001600160a01b0316905062000e3d565b6000609762001ce362002a04565b62001d1362001f9e565b6001600160a01b03166000606562001d2a62002a04565b906101000a90046001600160a01b03166001600160a01b03161462001d775760405162461bcd60e51b815260040162001d63906200384e565b6040518091039062001d7462002940565b50505b620009f681620024b9565b62001d8c62001f9e565b6001600160a01b03166000606562001da362002a04565b906101000a90046001600160a01b03166001600160a01b03161462001df05760405162461bcd60e51b815260040162001ddc906200384e565b6040518091039062001ded62002940565b50505b6001600160a01b03811662001e2d5760405162461bcd60e51b815260040162001e1990620036dc565b6040518091039062001e2a62002940565b50505b6001600160a01b0381166000606562001e4562002a04565b906101000a90046001600160a01b03166001600160a01b03167f8be0079c531659141344cd1fd0a4f28419497f9722a3daafe3b4186f6b6457e060405160405180910390a380606560018162001e9a62002a04565b816001600160a01b0302191690836001600160a01b0316021790620014bf62002a51565b60008282018381101562000d9d5760405162461bcd60e51b815260040162001ee69062003722565b6040518091039062001ef762002940565b50509392505050565b80821115801562001f1c575060d262001f1862002a04565b8211155b62001f4f5760405162461bcd60e51b815260040162001f3b9062003824565b6040518091039062001f4c62002940565b50505b6001600160a01b038316600090815260d4602052829060409020819062001f7562002a51565b5050506001600160a01b038316600090815260d5602052819060409020819062001a4762002a51565b60005a62000d8a620029ad565b6001600160a01b03841662001fe85760405162461bcd60e51b815260040162001fd490620037cf565b6040518091039062001fe562002940565b50505b816200201c5760405162461bcd60e51b815260040162002008906200377b565b604051809103906200201962002940565b50505b606083838080601f01602080910402602001604051908101604052818152929190602084018383808284376000920182905250939450839250849150505160208401885a6200206a62002cf8565b5050505050801560018114620020805762002097565b3d806000803e8060006200209362002940565b5050505b5050846001600160a01b03165a620020ae620029ad565b6001600160a01b03167f78a9b536049c39a00adaf57016b1376c99dd48a0faf2cef23690232f21ce42cc60405160405180910390a36001600160a01b038516600090815260da60205282906040902081906200210962002a51565b5050505050505050565b808060d9620014bf62002a51565b6001600160a01b038216600090815260de6020528190604090206001816200107162002a04565b60008062002155620024fb565b90507efffc2da0b561cae30d9826d37709e9421c4725faebc226cbbb7ef5fc5e734981604051620021879190620034c9565b60405180910390a1806001600160a01b031663e74a474a5a63996d79a5598160e01b8152602081600483336000905af158600e01573d6000803e3d6000fd5b3d6001141558600a015760016000f35b8051925060005b6040811015620021f657600082820152602001620021dd565b50505086866040518463ffffffff1660e01b81526004016200221b9392919062003615565b600060405180830381600087806200223262002ae7565b1580156200224a576000806200224762002940565b50505b505a6200225662002c2a565b50505050505015801562002279573d6000803e3d60006200227662002940565b50505b50929695505050505050565b80821115620022bc5760405162461bcd60e51b8152600401620022a89062003824565b60405180910390620022b962002940565b50505b818060ce620022ca62002a51565b5050508060cf8190620022dc62002a51565b5050507fb10da2958bf5ec1bff3164ff753a09e0460ed44d3abf73e79b817b500ed0f2f182826040516200231292919062003936565b60405180910390a15050565b8060cd60018162001e9a62002a04565b8060cc6001816200233e62002a04565b816001600160a01b0302191690836001600160a01b03160217906200236262002a51565b5050507ff1034ad6b4d45dc33a4142b9c51c2b7f89bf4a410696e426cc0f3224869e0aca81604051620023969190620034c9565b60405180910390a150565b808060d6620023af62002a51565b5050507f20d916c976f3971e8200089411b0b712ef4612d98380b8ad2e3d8a8a376d85c7816040516200239691906200367f565b6000805a63996d79a5598160e01b8152602081600483336000905af158600e01573d6000803e3d6000fd5b3d6001141558600a015760016000f35b8051925060005b60408110156200243e5760008282015260200162002425565b50505090506000816200245062002ae7565b159250505090565b6200102662002562565b80821115620024995760405162461bcd60e51b8152600401620024859062003824565b604051809103906200249662002940565b50505b818060d2620024a762002a51565b5050508060d381906200109562002a51565b808060d8620024c762002a51565b5050507f0cd8fcb5e08d7632af461f0ad793e5c63dc0d7595c301f5880650175e37a8748816040516200239691906200367f565b6000806060604051620025116020820162002d0a565b601f1982820381018352601f90910116604052905080516020820160006200253862002d18565b50509150816200254762002ae7565b6200255c576000806200255962002940565b50505b50905090565b600160006200257062002a04565b906101000a900460ff16806200258b57506200258b620023e3565b80620025ab57506000806200259f62002a04565b906101000a900460ff16155b620025de5760405162461bcd60e51b8152600401620025ca9062003883565b60405180910390620025db62002940565b50505b6000600181620025ed62002a04565b906101000a900460ff1615905080156200265c5760016000610100816200261362002a04565b8160ff021916908315150217906200262a62002a51565b50505060016000806101000a816200264162002a04565b8160ff021916908315150217906200265862002a51565b5050505b620026666200269f565b62002670620027b0565b8015620009f657600080610100816200268862002a04565b8160ff02191690831515021790620014bf62002a51565b60016000620026ad62002a04565b906101000a900460ff1680620026c85750620026c8620023e3565b80620026e85750600080620026dc62002a04565b906101000a900460ff16155b6200271b5760405162461bcd60e51b8152600401620027079062003883565b604051809103906200271862002940565b50505b60006001816200272a62002a04565b906101000a900460ff161590508015620026705760016000610100816200275062002a04565b8160ff021916908315150217906200276762002a51565b50505060016000806101000a816200277e62002a04565b8160ff021916908315150217906200279562002a51565b5050508015620009f657600080610100816200268862002a04565b60016000620027be62002a04565b906101000a900460ff1680620027d95750620027d9620023e3565b80620027f95750600080620027ed62002a04565b906101000a900460ff16155b6200282c5760405162461bcd60e51b8152600401620028189062003883565b604051809103906200282962002940565b50505b60006001816200283b62002a04565b906101000a900460ff161590508015620028aa5760016000610100816200286162002a04565b8160ff021916908315150217906200287862002a51565b50505060016000806101000a816200288f62002a04565b8160ff02191690831515021790620028a662002a51565b5050505b6000620028b662001f9e565b9050806065600181620028c862002a04565b816001600160a01b0302191690836001600160a01b0316021790620028ec62002a51565b5050506001600160a01b03811660007f8be0079c531659141344cd1fd0a4f28419497f9722a3daafe3b4186f6b6457e060405160405180910390a3508015620009f657600080610100816200268862002a04565b632a2a7adb598160e01b8152600481016020815285602082015260005b868110156200297a5780860151828201604001526020016200295d565b506020828760640184336000905af158600e01573d6000803e3d6000fd5b3d6001141558600a015760016000f35b505050565b6373509064598160e01b8152602081600483336000905af158600e01573d6000803e3d6000fd5b3d6001141558600a015760016000f35b8051935060005b604081101562000f3957600082820152602001620029eb565b6303daa959598160e01b8152836004820152602081602483336000905af158600e01573d6000803e3d6000fd5b3d6001141558600a015760016000f35b80516000825293506020620029eb565b6322bd64c0598160e01b8152836004820152846024820152600081604483336000905af158600e01573d6000803e3d6000fd5b3d6001141558600a015760016000f35b600081526020620029eb565b63bdbf8c36598160e01b8152602081600483336000905af158600e01573d6000803e3d6000fd5b3d6001141558600a015760016000f35b80516000825293506020620029eb565b638435035b598160e01b8152836004820152602081602483336000905af158600e01573d6000803e3d6000fd5b3d6001141558600a015760016000f35b80516000825293506020620029eb565b638540661f598160e01b815262002b68565b808083111562000da0575090919050565b808083101562000da0575090919050565b836004820152846024820152606060448201528660648201526084810160005b8881101562002ba257808801518282015260200162002b88565b506060828960a40184336000905af158600e01573d6000803e3d6000fd5b3d6001141558600a015760016000f35b815160408301513d6000853e8b8b82606087013350600060045af1505962002bf98d3d62002b57565b8c0162002c07818762002b46565b5b8281101562002c1e576000815260200162002c08565b50929c50505050505050565b6385979f76598160e01b8152836004820152846024820152606060448201528760648201526084810160005b8981101562002c7057808901518282015260200162002c56565b506060828a60a40184336000905af158600e01573d6000803e3d6000fd5b3d6001141558600a015760016000f35b815160408301513d6000853e8c8c82606087013350600060045af1505962002cc78e3d62002b57565b8d0162002cd5818762002b46565b5b8281101562002cec576000815260200162002cd6565b50929d50505050505050565b63ffe73914598160e01b815262002b68565b6107c180620039c683390190565b6314aa2ff7598160e01b8152600481016020815286602082015260005b8781101562002d5257808701518282016040015260200162002d35565b506020828860640184336000905af158600e01573d6000803e3d6000fd5b3d6001141558600a015760016000f35b8151965059825b8181101562001095576000815260200162002d87565b80356001600160a01b038116811462000da05760008062002dbd62002940565b505092915050565b600082601f83011262002de157808162002dde62002940565b50505b813562002df862002df2826200397b565b62003944565b81815291506020808301908481018184028601820187101562002e255760008062002e2262002940565b50505b60005b8481101562002e505762002e3d888362002d9d565b8452928201929082019060010162002e28565b505050505092915050565b8035801515811462000da05760008062002dbd62002940565b600082601f83011262002e9057808162002e8d62002940565b50505b813567ffffffffffffffff81111562002eb257818262002eaf62002940565b50505b62002ec7601f8201601f191660200162003944565b915080825283602082850101111562002eea5760008062002ee762002940565b50505b8060208401602084013760009082016020015292915050565b803560ff8116811462000da05760008062002dbd62002940565b60006020828403121562002f3a57808162002f3762002940565b50505b62000d9d838362002d9d565b6000806040838503121562002f6457808162002f6162002940565b50505b62002f70848462002d9d565b915062002f81846020850162002d9d565b90509250929050565b600080600080600060a0868803121562002fad57808162002faa62002940565b50505b853562002fba81620039a7565b945060208681013562002fcd81620039a7565b9450604087013562002fdf81620039a7565b935060608781013562002ff281620039a7565b9350608088013567ffffffffffffffff811115620030195783846200301662002940565b50505b8801601f81018a13620030355783846200303262002940565b50505b80356200304662002df2826200397b565b81815284810190838601858402850187018e10156200306e5787886200306b62002940565b50505b8794505b83851015620030e95785818f031215620030955787886200309262002940565b50505b620030a08662003944565b620030ac8f8362002d9d565b8152620030bc8f89840162002f03565b88820152620030cf8f6040840162002d9d565b604082015283526001949094019391860191850162003072565b508096505050505050509295509295909350565b600080604083850312156200311b5781826200311862002940565b50505b62003127848462002d9d565b946020939093013593505050565b600080600060608486031215620031555782836200315262002940565b50505b62003161858562002d9d565b925062003172856020860162002f03565b915062003183856040860162002d9d565b90509250925092565b600080600080600080600060e0888a031215620031b2578182620031af62002940565b50505b620031be898962002e5b565b9650620031cf8960208a0162002d9d565b9550604088013567ffffffffffffffff80821115620031f7578384620031f462002940565b50505b620032058b838c0162002e74565b965060608a0135915080821115620032265783846200322362002940565b50505b620032348b838c0162002e74565b955060808a0135915080821115620032555783846200325262002940565b50505b620032638b838c0162002e74565b945060a08a0135935060c08a01359150808211156200328b5782836200328862002940565b50505b506200329a8a828b0162002dc5565b91505092959891949750929550565b600060208284031215620032c6578081620032c362002940565b50505b5035919050565b60008060408385031215620032eb578182620032e862002940565b50505b823567ffffffffffffffff8111156200330d5782836200330a62002940565b50505b6200331b8582860162002e74565b92505062002f81846020850162002f03565b6000602082840312156200334a5780816200334762002940565b50505b81519392505050565b60008060408385031215620033715781826200336e62002940565b50505b50508035926020909101359150565b60008060008060008060a08789031215620033a4578384620033a162002940565b50505b86359550602087013594506040870135935060608701359250608087013567ffffffffffffffff80821115620033e3578384620033e062002940565b50505b818901915089601f83011262003402578384620033ff62002940565b50505b8135818111156200341c5784856200341962002940565b50505b8a6020828501011115620034395784856200343662002940565b50505b6020830194508093505050509295509295509295565b6000602082840312156200346c5780816200346962002940565b50505b62000d9d838362002f03565b60008151808452815b81811015620034a25760208082860101518683019091015260200162003481565b81811115620034b45782602083870101525b50601f01601f19169290920160200192915050565b6001600160a01b0391909116815260200190565b600060018060a01b038087168352602081871681850152608060408501526200350a608085018762003478565b84810360608601528086518083528784019284019150855b818110156200354257858451168352928401929184019160010162003522565b50909a9950505050505050505050565b600060018060a01b038088168352861515602084015260a060408401526200357e60a084018762003478565b838103606085015262003592818762003478565b9250508084166080840152509695505050505050565b6001600160a01b038981168252881515602083015261010060408301819052600091620035d88483018b62003478565b91508382036060850152620035ee828a62003478565b97166080840152505060a081019390935260c083019190915260e090910152949350505050565b6001600160a01b03841681526060602082018190526000906200363b9083018562003478565b905060ff83166040830152949350505050565b6001600160a01b03938416815260ff929092166020830152909116604082015260600190565b901515815260200190565b90815260200190565b6020808252601290820152712737ba1030903837b7b61036b0b730b3b2b960711b604082015260600190565b6020808252600e908201526d696e76616c696420626f756e647360901b604082015260600190565b60208082526026908201527f4f776e61626c653a206e6577206f776e657220697320746865207a65726f206160408201526564647265737360d01b606082015260800190565b6020808252601b908201527f536166654d6174683a206164646974696f6e206f766572666c6f770000000000604082015260600190565b6020808252600890820152676f6e6c792064616f60c01b604082015260600190565b6020808252600c908201526b19185d184b5a5b9d985b1a5960a21b604082015260600190565b6020808252601490820152730dac2dcc2cecae440cccaca40e8dede40d0d2ced60631b604082015260600190565b6020808252600e908201526d1d185c99d95d0b5a5b9d985b1a5960921b604082015260600190565b602080825260139082015272185cdcd95d08191bd95cdb89dd08195e1a5cdd606a1b604082015260600190565b60208082526010908201526f34b73b30b634b210333930b1ba34b7b760811b604082015260600190565b6020808252818101527f4f776e61626c653a2063616c6c6572206973206e6f7420746865206f776e6572604082015260600190565b6020808252602e908201527f436f6e747261637420696e7374616e63652068617320616c726561647920626560408201526d195b881a5b9a5d1a585b1a5e995960921b606082015260800190565b602080825260149082015273617373657420616c72656164792065786973747360601b604082015260600190565b6020808252601e908201527f737570706c6965642061646472657373206973206e6f74206120706f6f6c0000604082015260600190565b918252602082015260400190565b6000604051905081810181811067ffffffffffffffff8211171562003973576000806200397062002940565b50505b604052919050565b600067ffffffffffffffff8211156200399d5780816200399a62002940565b50505b5060209081020190565b6001600160a01b0381168114620009f65760008062000f396200294056fe60806040523480156100195760008061001661001f565b50505b5061008a565b632a2a7adb598160e01b8152600481016020815285602082015260005b8681101561005757808601518282016040015260200161003c565b506020828760640184336000905af158600e01573d6000803e3d6000fd5b3d6001141558600a015760016000f35b505050565b610728806100996000396000f3fe6080604052600436106100225760003560e01c8063e74a474a1461003957610031565b366100315761002f610117565b005b61002f610117565b61002f60048036036060811015610058576000806100556104ca565b50505b6001600160a01b03823516919081019060408101602082013564010000000081111561008c576000806100896104ca565b50505b8201836020820111156100a7576000806100a46104ca565b50505b803590602001918460018302840111640100000000831117156100d2576000806100cf6104ca565b50505b91908080601f01602080910402602001604051908101604052818152929190602084018383808284376000920191909152509295505050903560ff1691506101319050565b61011f61012f565b61012f61012a6102c3565b6103c4565b565b600061013b6102c3565b6001600160a01b03161461018e5760405162461bcd60e51b815260206004820152600d60248201526c496d706c206e6f74207a65726f60981b60448201526064016040518091039061018b6104ca565b50505b61019783610401565b6101a08161048e565b6000825111156102be5760006101b46102c3565b6001600160a01b0316836040518082805190602001908083835b602083106101ed5780518252601f1990920191602091820191016101ce565b6001836020036101000a038019825116818451168082178552505050505050905001915050600060405180830381855a610225610535565b50505050509150503d8060008114610259576040513d603f01601f191681016040523d815291503d6000602084013e61025e565b606091505b50509050806102bc5760405162461bcd60e51b815260206004820152601a60248201527f496d706c656d656e746174696f6e20696e6974206661696c65640000000000006044820152606401604051809103906102b96104ca565b50505b505b505050565b6000807f360894a13ba1a3210667c828492db98dca3e2076cc3735a920a3ca505d382bbc806102f0610622565b91506001600160a01b03821661030b576000925050506103c1565b816001600160a01b031663ecef89d561032261049d565b6040516001600160e01b031960e084901b16815260ff9091166004820152602401602060405180830381868061035661067d565b15801561036b576000806103686104ca565b50505b505a6103756106c9565b5050505050158015610394573d6000803e3d60006103916104ca565b50505b505050506040513d60208110156103b3576000806103b06104ca565b50505b810190808051955050505050505b90565b3660008037600080366000845a6103d9610535565b50505050503d6000803e8080156103ef573d6000f35b3d60006103fa6104ca565b5050505050565b61040a816104b5565b6104635760405162461bcd60e51b815260206004820181905260248201527f43616e6e6f742073657420696d706c656d656e746174696f6e20746f20454f416044820152606401604051809103906104606104ca565b50505b7f360894a13ba1a3210667c828492db98dca3e2076cc3735a920a3ca505d382bbc81816102bc6106da565b600160fc1b81816102bc6106da565b600080600160fc1b806104ae610622565b9250505090565b600080826104c161067d565b15159392505050565b632a2a7adb598160e01b8152600481016020815285602082015260005b868110156105025780860151828201604001526020016104e7565b506020828760640184336000905af158600e01573d6000803e3d6000fd5b3d6001141558600a015760016000f35b505050565b63ffe73914598160e01b8152610568565b80808311156105525750815b92915050565b8080831015610552575090919050565b836004820152846024820152606060448201528660648201526084810160005b888110156105a0578088015182820152602001610588565b506060828960a40184336000905af158600e01573d6000803e3d6000fd5b3d6001141558600a015760016000f35b815160408301513d6000853e8b8b82606087013350600060045af150596105f58d3d610558565b8c016106018187610546565b5b828110156106165760008152602001610602565b50929c50505050505050565b6303daa959598160e01b8152836004820152602081602483336000905af158600e01573d6000803e3d6000fd5b3d6001141558600a015760016000f35b8051935060005b60408110156102be57600082820152602001610666565b638435035b598160e01b8152836004820152602081602483336000905af158600e01573d6000803e3d6000fd5b3d6001141558600a015760016000f35b80516000825293506020610666565b638540661f598160e01b8152610568565b6322bd64c0598160e01b8152836004820152846024820152600081604483336000905af158600e01573d6000803e3d6000fd5b3d6001141558600a015760016000f35b60008152602061066656",
  "deployedBytecode": "0x60806040523480156200001c576000806200001962002940565b50505b5060043610620002bb5760003560e01c80639a068bd6116200017c578063c4a2267711620000e0578063e60eb412116200009e578063e60eb41214620005c7578063e99c0fa614620005de578063ebee461d14620005f5578063ecef89d514620005ff578063eec16c441462000616578063f2fde38b146200062d57620002bb565b8063c4a226771462000561578063cc435bf31462000578578063ce26e9ef146200058f578063d05b76691462000599578063dc76d25414620005b057620002bb565b8063b193a5f4116200013a578063b193a5f414620004e4578063b3596f0714620004fb578063b7a545261462000512578063bcb01f441462000529578063bee37e521462000540578063bfeaf71d146200055757620002bb565b80639a068bd6146200048b5780639a3cac6a14620004a25780639cada6e414620004b9578063aa12ae4d14620004c3578063aa7d664e14620004cd57620002bb565b806349f7c02d1162000224578063715018a611620001e2578063715018a61462000418578063771d1baf1462000422578063808ae5fb146200043957806386e76f7314620004505780638da5cb5b146200046757806394d0d23b146200047157620002bb565b806349f7c02d14620003b05780635556ee5514620003ba5780635b16ebb714620003d15780635c9bfc2b14620003f75780637027ea6c146200040157620002bb565b80631e666d13116200027e5780631e666d1314620003335780631e8e8bca146200034a578063227773ee1462000361578063391d348b14620003785780634501b088146200038f57806345812ca5146200039957620002bb565b8063046b72c414620002cb5780630bf99bd914620002e45780630f6559c4146200030657806310bf69dc14620003105780631d68702d146200031a575b600080620002c862002940565b50505b620002e2620002dc366004620030fd565b62000644565b005b620002ee620007b8565b604051620002fd91906200367f565b60405180910390f35b620002ee620007cd565b620002ee620007dc565b62000324620007e8565b604051620002fd9190620034c9565b620002e26200034436600462003380565b6200080c565b620002e26200035b366004620032a9565b6200097d565b620002e26200037236600462002f46565b620009f9565b62000324620003893660046200318c565b62000a74565b620002ee62000d7c565b62000324620003aa366004620032cd565b62000d8f565b620002ee62000da6565b620002ee620003cb36600462002f1d565b62000db4565b620003e8620003e236600462002f1d565b62000dce565b604051620002fd919062003674565b620002ee62000df7565b620003246200041236600462002f1d565b62000e05565b620002e262000e42565b620002e26200043336600462003353565b62000f3e565b620002e26200044a36600462002f46565b62000fb8565b620002e26200046136600462002f1d565b6200109c565b6200032462001115565b6200047b62001124565b604051620002fd92919062003936565b620003246200049c366004620032a9565b62001147565b620002e2620004b336600462002f1d565b62001189565b6200047b62001202565b620002ee6200121d565b620002e2620004de366004620032a9565b6200122b565b620003e8620004f536600462002f1d565b620012a4565b620002ee6200050c36600462002f1d565b620012c0565b6200047b6200052336600462002f1d565b6200138c565b620002e26200053a366004620032a9565b62001443565b620002ee6200055136600462002f1d565b620014c5565b620002ee620014df565b620002e26200057236600462003135565b620014eb565b620003e86200058936600462002f1d565b620016c8565b62000324620016fe565b620002e2620005aa36600462002f8a565b6200170d565b620002e2620005c136600462002f1d565b62001a4f565b620002ee620005d836600462002f1d565b62001c22565b620002e2620005ef366004620032a9565b62001c3c565b620002ee62001cb8565b62000324620006103660046200344f565b62001cc6565b620002e262000627366004620032a9565b62001d09565b620002e26200063e36600462002f1d565b62001d82565b60d160005a62000653620029ad565b6001600160a01b03166001600160a01b031681526020019081526020016000206000906200068062002a04565b906101000a900460ff1615156001151514620006c45760405162461bcd60e51b8152600401620006b09062003688565b60405180910390620006c162002940565b50505b6001600160a01b038216600090815260d060205260409020600090620006e962002a04565b906101000a900460ff16151560011515146200072d5760405162461bcd60e51b81526004016200071990620038ff565b604051809103906200072a62002940565b50505b6200076660dc6200073d62002a04565b6001600160a01b038416600090815260d4602052604090206200075f62002a04565b9062001ebe565b8111156200079c5760405162461bcd60e51b81526004016200078890620037a1565b604051809103906200079962002940565b50505b620007b4828260d3620007ae62002a04565b62001f00565b5050565b600060cb80620007c762002a04565b91505090565b60db620007d962002a04565b81565b60dc620007d962002a04565b60008060cc620007f762002a04565b906101000a90046001600160a01b0316905090565b6200081662001f9e565b6001600160a01b0316600060656200082d62002a04565b906101000a90046001600160a01b03166001600160a01b0316146200087a5760405162461bcd60e51b815260040162000866906200384e565b604051809103906200087762002940565b50505b84861115801562000898575060cb806200089362002a04565b905086105b8015620008b2575060cb80620008ad62002a04565b905085105b620008e55760405162461bcd60e51b8152600401620008d190620036b4565b60405180910390620008e262002940565b50505b855b8581116200097457600060cb8281620008ff62002a04565b81106200090857fe5b906000526020600020016000906200091f62002a04565b6001600160a01b036101009290920a900416600081815260da6020529091508690604090206200094e62002a04565b146200095b57506200096b565b620009698185858862001fab565b505b600101620008e7565b50505050505050565b6200098762001f9e565b6001600160a01b0316600060656200099e62002a04565b906101000a90046001600160a01b03166001600160a01b031614620009eb5760405162461bcd60e51b8152600401620009d7906200384e565b60405180910390620009e862002940565b50505b620009f68162002113565b50565b600060cc62000a0762002a04565b906101000a90046001600160a01b03166001600160a01b03165a62000a2b620029ad565b6001600160a01b03161462000a685760405162461bcd60e51b815260040162000a549062003759565b6040518091039062000a6562002940565b50505b620007b4828262002121565b600060605a63996d79a5598160e01b8152602081600483336000905af158601d01573d60011458600c01573d6000803e3d621234565260ea61109c528051925060005b604081101562000ad05760008282015260200162000ab7565b50505088888560405160240162000aeb9493929190620034dd565b604051601f198183030181526040919091526331a22a9960e21b6020820180516001600160e01b031690911790529050600062000b2a82600162000d8f565b905060605a63996d79a5598160e01b8152602081600483336000905af158601d01573d60011458600c01573d6000803e3d621234565260ea61109c528051925060005b604081101562000b865760008282015260200162000b6d565b5050508b89898560405160240162000ba395949392919062003552565b604051601f19818303018152604091909152630ccb30c760e01b6020820180516001600160e01b031690911790529050600062000be282600262000d8f565b90508060cb8060018162000bf562002a04565b01808262000c0262002a51565b50506000928352600019019160209150200160018162000c2162002a04565b816001600160a01b0302191690836001600160a01b031602179062000c4562002a51565b5050506001600160a01b038116600090815260d06020526001906040902060018162000c7062002a04565b8160ff0219169083151502179062000c8762002a51565b5050506001600160a01b038316600090815260d16020526001906040902060018162000cb262002a04565b8160ff0219169083151502179062000cc962002a51565b50505060db62000cd862002a04565b6001600160a01b038216600090815260da60205260409020819062000cfc62002a51565b50505062000d11818860d3620007ae62002a04565b7f73a0638fe578fc759744633aa170a433061ca2cc1bb855d116c506e04a29901f818d8b8d8f5a62000d4262002aa0565b8d60d362000d4f62002a04565b60405162000d65989796959493929190620035a8565b60405180910390a19b9a5050505050505050505050565b600060d662000d8a62002a04565b905090565b600062000d9d838362002148565b90505b92915050565b600060d962000d8a62002a04565b60da6020528060005260406000209050620007d962002a04565b60d06020528060005260406000206000915062000dea62002a04565b906101000a900460ff1681565b600060dc62000d8a62002a04565b6001600160a01b038116600090815260de6020526040812060009062000e2a62002a04565b906101000a90046001600160a01b031690505b919050565b62000e4c62001f9e565b6001600160a01b03166000606562000e6362002a04565b906101000a90046001600160a01b03166001600160a01b03161462000eb05760405162461bcd60e51b815260040162000e9c906200384e565b6040518091039062000ead62002940565b50505b600080606562000ebf62002a04565b906101000a90046001600160a01b03166001600160a01b03167f8be0079c531659141344cd1fd0a4f28419497f9722a3daafe3b4186f6b6457e060405160405180910390a36000606560018162000f1562002a04565b816001600160a01b0302191690836001600160a01b031602179062000f3962002a51565b505050565b62000f4862001f9e565b6001600160a01b03166000606562000f5f62002a04565b906101000a90046001600160a01b03166001600160a01b03161462000fac5760405162461bcd60e51b815260040162000f98906200384e565b6040518091039062000fa962002940565b50505b620007b4828262002285565b62000fc262001f9e565b6001600160a01b03166000606562000fd962002a04565b906101000a90046001600160a01b03166001600160a01b031614620010265760405162461bcd60e51b815260040162001012906200384e565b604051809103906200102362002940565b50505b8160976001816200103662002a04565b816001600160a01b0302191690836001600160a01b03160217906200105a62002a51565b50505080609860006101000a816200107162002a04565b816001600160a01b0302191690836001600160a01b03160217906200109562002a51565b5050505050565b620010a662001f9e565b6001600160a01b031660006065620010bd62002a04565b906101000a90046001600160a01b03166001600160a01b0316146200110a5760405162461bcd60e51b8152600401620010f6906200384e565b604051809103906200110762002940565b50505b620009f6816200231e565b6000806065620007f762002a04565b60008060d26200113362002a04565b60d36200113f62002a04565b915091509091565b60cb81816200115562002a04565b81106200115e57fe5b90600052602060002001600091506200117662002a04565b906101000a90046001600160a01b031681565b6200119362001f9e565b6001600160a01b031660006065620011aa62002a04565b906101000a90046001600160a01b03166001600160a01b031614620011f75760405162461bcd60e51b8152600401620011e3906200384e565b60405180910390620011f462002940565b50505b620009f6816200232e565b60008060ce6200121162002a04565b60cf6200113f62002a04565b600060d862000d8a62002a04565b6200123562001f9e565b6001600160a01b0316600060656200124c62002a04565b906101000a90046001600160a01b03166001600160a01b031614620012995760405162461bcd60e51b815260040162001285906200384e565b604051809103906200129662002940565b50505b620009f681620023a1565b60d16020528060005260406000206000915062000dea62002a04565b60008060cd620012cf62002a04565b906101000a90046001600160a01b03166001600160a01b0316638b2f0f4f836040518263ffffffff1660e01b81526004016200130c9190620034c9565b60206040518083038186806200132162002ae7565b15801562001339576000806200133662002940565b50505b505a6200134562002b34565b505050505015801562001367573d6000803e3d60006200136462002940565b50505b50505050604051601f3d908101601f1916820160405262000da091908101906200332d565b6001600160a01b038116600090815260d06020528060408120600090620013b262002a04565b906101000a900460ff1615156001151514620013f65760405162461bcd60e51b8152600401620013e290620038ff565b60405180910390620013f362002940565b50505b6001600160a01b038316600090815260d4602052604090206200141862002a04565b6001600160a01b038416600090815260d5602052604090206200143a62002a04565b91509150915091565b6200144d62001f9e565b6001600160a01b0316600060656200146462002a04565b906101000a90046001600160a01b03166001600160a01b031614620014b15760405162461bcd60e51b81526004016200149d906200384e565b60405180910390620014ae62002940565b50505b808060dd620014bf62002a51565b50505050565b60d46020528060005260406000209050620007d962002a04565b60dd620007d962002a04565b600060cc620014f962002a04565b906101000a90046001600160a01b03166001600160a01b03165a6200151d620029ad565b6001600160a01b0316146200155a5760405162461bcd60e51b8152600401620015469062003759565b604051809103906200155762002940565b50505b6200156583620016c8565b15620015995760405162461bcd60e51b81526004016200158590620038d1565b604051809103906200159662002940565b50505b6001600160a01b038316600090815260d760205260019060409020600181620015c162002a04565b8160ff02191690831515021790620015d862002a51565b50505060cd600090620015ea62002a04565b906101000a90046001600160a01b03166001600160a01b031663b91ba5488484846040518463ffffffff1660e01b81526004016200162b939291906200364e565b600060405180830381600087806200164262002ae7565b1580156200165a576000806200165762002940565b50505b505a6200166662002c2a565b50505050505015801562001689573d6000803e3d60006200168662002940565b50505b50505050826001600160a01b03167fd63c302652b86334fe4eb891e7a01e61e836496485d9394f2c95b4222006ae5060405160405180910390a2505050565b6001600160a01b038116600090815260d760205260408120600090620016ed62002a04565b906101000a900460ff169050919050565b60008060cd620007f762002a04565b600160006200171b62002a04565b906101000a900460ff168062001736575062001736620023e3565b806200175657506000806200174a62002a04565b906101000a900460ff16155b620017895760405162461bcd60e51b8152600401620017759062003883565b604051809103906200178662002940565b50505b60006001816200179862002a04565b906101000a900460ff16159050801562001807576001600061010081620017be62002a04565b8160ff02191690831515021790620017d562002a51565b50505060016000806101000a81620017ec62002a04565b8160ff021916908315150217906200180362002a51565b5050505b62001813868662002458565b6200181e846200231e565b62001829836200232e565b6200183961138861271062002462565b62001847600a606462002285565b6200185562015180620023a1565b620018636224ea0062001443565b620018706103e862001c3c565b6200187c600a620024b9565b620018906544484544474560d01b62002113565b60005b82518160ff16101562001a1357600160d76000858460ff1681518110620018b657fe5b6020026020010151516001600160a01b03166001600160a01b03168152602001908152602001600020600181620018ec62002a04565b8160ff021916908315150217906200190362002a51565b50505060cd6000906200191562002a04565b906101000a90046001600160a01b03166001600160a01b031663b91ba548848360ff16815181106200194357fe5b602002602001015151858460ff16815181106200195c57fe5b602002602001015160200151868560ff16815181106200197857fe5b6020026020010151604001516040518463ffffffff1660e01b8152600401620019a4939291906200364e565b60006040518083038160008780620019bb62002ae7565b158015620019d357600080620019d062002940565b50505b505a620019df62002c2a565b50505050505015801562001a02573d6000803e3d6000620019ff62002940565b50505b505060019092019150620018939050565b50801562001a47576000806101008162001a2c62002a04565b8160ff0219169083151502179062001a4362002a51565b5050505b505050505050565b600060cc62001a5d62002a04565b906101000a90046001600160a01b03166001600160a01b03165a62001a81620029ad565b6001600160a01b03161462001abe5760405162461bcd60e51b815260040162001aaa9062003759565b6040518091039062001abb62002940565b50505b62001ac981620016c8565b62001afc5760405162461bcd60e51b815260040162001ae890620037f7565b6040518091039062001af962002940565b50505b6001600160a01b038116600090815260d76020526040812060018162001b2162002a04565b8160ff0219169083151502179062001b3862002a51565b50505060cd60009062001b4a62002a04565b906101000a90046001600160a01b03166001600160a01b0316634a5e42b1826040518263ffffffff1660e01b815260040162001b879190620034c9565b6000604051808303816000878062001b9e62002ae7565b15801562001bb65760008062001bb362002940565b50505b505a62001bc262002c2a565b50505050505015801562001be5573d6000803e3d600062001be262002940565b50505b50505050806001600160a01b03167fe8b3c469b395bfd934168e4b7d14590c9cd1a6740533df170dbe3c219ff5a67460405160405180910390a250565b60d56020528060005260406000209050620007d962002a04565b62001c4662001f9e565b6001600160a01b03166000606562001c5d62002a04565b906101000a90046001600160a01b03166001600160a01b03161462001caa5760405162461bcd60e51b815260040162001c96906200384e565b6040518091039062001ca762002940565b50505b808060dc620014bf62002a51565b600060dd62000d8a62002a04565b60008160ff166001141562001cfb576000609862001ce362002a04565b906101000a90046001600160a01b0316905062000e3d565b6000609762001ce362002a04565b62001d1362001f9e565b6001600160a01b03166000606562001d2a62002a04565b906101000a90046001600160a01b03166001600160a01b03161462001d775760405162461bcd60e51b815260040162001d63906200384e565b6040518091039062001d7462002940565b50505b620009f681620024b9565b62001d8c62001f9e565b6001600160a01b03166000606562001da362002a04565b906101000a90046001600160a01b03166001600160a01b03161462001df05760405162461bcd60e51b815260040162001ddc906200384e565b6040518091039062001ded62002940565b50505b6001600160a01b03811662001e2d5760405162461bcd60e51b815260040162001e1990620036dc565b6040518091039062001e2a62002940565b50505b6001600160a01b0381166000606562001e4562002a04565b906101000a90046001600160a01b03166001600160a01b03167f8be0079c531659141344cd1fd0a4f28419497f9722a3daafe3b4186f6b6457e060405160405180910390a380606560018162001e9a62002a04565b816001600160a01b0302191690836001600160a01b0316021790620014bf62002a51565b60008282018381101562000d9d5760405162461bcd60e51b815260040162001ee69062003722565b6040518091039062001ef762002940565b50509392505050565b80821115801562001f1c575060d262001f1862002a04565b8211155b62001f4f5760405162461bcd60e51b815260040162001f3b9062003824565b6040518091039062001f4c62002940565b50505b6001600160a01b038316600090815260d4602052829060409020819062001f7562002a51565b5050506001600160a01b038316600090815260d5602052819060409020819062001a4762002a51565b60005a62000d8a620029ad565b6001600160a01b03841662001fe85760405162461bcd60e51b815260040162001fd490620037cf565b6040518091039062001fe562002940565b50505b816200201c5760405162461bcd60e51b815260040162002008906200377b565b604051809103906200201962002940565b50505b606083838080601f01602080910402602001604051908101604052818152929190602084018383808284376000920182905250939450839250849150505160208401885a6200206a62002cf8565b5050505050801560018114620020805762002097565b3d806000803e8060006200209362002940565b5050505b5050846001600160a01b03165a620020ae620029ad565b6001600160a01b03167f78a9b536049c39a00adaf57016b1376c99dd48a0faf2cef23690232f21ce42cc60405160405180910390a36001600160a01b038516600090815260da60205282906040902081906200210962002a51565b5050505050505050565b808060d9620014bf62002a51565b6001600160a01b038216600090815260de6020528190604090206001816200107162002a04565b60008062002155620024fb565b90507efffc2da0b561cae30d9826d37709e9421c4725faebc226cbbb7ef5fc5e734981604051620021879190620034c9565b60405180910390a1806001600160a01b031663e74a474a5a63996d79a5598160e01b8152602081600483336000905af158601d01573d60011458600c01573d6000803e3d621234565260ea61109c528051925060005b6040811015620021f657600082820152602001620021dd565b50505086866040518463ffffffff1660e01b81526004016200221b9392919062003615565b600060405180830381600087806200223262002ae7565b1580156200224a576000806200224762002940565b50505b505a6200225662002c2a565b50505050505015801562002279573d6000803e3d60006200227662002940565b50505b50929695505050505050565b80821115620022bc5760405162461bcd60e51b8152600401620022a89062003824565b60405180910390620022b962002940565b50505b818060ce620022ca62002a51565b5050508060cf8190620022dc62002a51565b5050507fb10da2958bf5ec1bff3164ff753a09e0460ed44d3abf73e79b817b500ed0f2f182826040516200231292919062003936565b60405180910390a15050565b8060cd60018162001e9a62002a04565b8060cc6001816200233e62002a04565b816001600160a01b0302191690836001600160a01b03160217906200236262002a51565b5050507ff1034ad6b4d45dc33a4142b9c51c2b7f89bf4a410696e426cc0f3224869e0aca81604051620023969190620034c9565b60405180910390a150565b808060d6620023af62002a51565b5050507f20d916c976f3971e8200089411b0b712ef4612d98380b8ad2e3d8a8a376d85c7816040516200239691906200367f565b6000805a63996d79a5598160e01b8152602081600483336000905af158601d01573d60011458600c01573d6000803e3d621234565260ea61109c528051925060005b60408110156200243e5760008282015260200162002425565b50505090506000816200245062002ae7565b159250505090565b6200102662002562565b80821115620024995760405162461bcd60e51b8152600401620024859062003824565b604051809103906200249662002940565b50505b818060d2620024a762002a51565b5050508060d381906200109562002a51565b808060d8620024c762002a51565b5050507f0cd8fcb5e08d7632af461f0ad793e5c63dc0d7595c301f5880650175e37a8748816040516200239691906200367f565b6000806060604051620025116020820162002d0a565b601f1982820381018352601f90910116604052905080516020820160006200253862002d18565b50509150816200254762002ae7565b6200255c576000806200255962002940565b50505b50905090565b600160006200257062002a04565b906101000a900460ff16806200258b57506200258b620023e3565b80620025ab57506000806200259f62002a04565b906101000a900460ff16155b620025de5760405162461bcd60e51b8152600401620025ca9062003883565b60405180910390620025db62002940565b50505b6000600181620025ed62002a04565b906101000a900460ff1615905080156200265c5760016000610100816200261362002a04565b8160ff021916908315150217906200262a62002a51565b50505060016000806101000a816200264162002a04565b8160ff021916908315150217906200265862002a51565b5050505b620026666200269f565b62002670620027b0565b8015620009f657600080610100816200268862002a04565b8160ff02191690831515021790620014bf62002a51565b60016000620026ad62002a04565b906101000a900460ff1680620026c85750620026c8620023e3565b80620026e85750600080620026dc62002a04565b906101000a900460ff16155b6200271b5760405162461bcd60e51b8152600401620027079062003883565b604051809103906200271862002940565b50505b60006001816200272a62002a04565b906101000a900460ff161590508015620026705760016000610100816200275062002a04565b8160ff021916908315150217906200276762002a51565b50505060016000806101000a816200277e62002a04565b8160ff021916908315150217906200279562002a51565b5050508015620009f657600080610100816200268862002a04565b60016000620027be62002a04565b906101000a900460ff1680620027d95750620027d9620023e3565b80620027f95750600080620027ed62002a04565b906101000a900460ff16155b6200282c5760405162461bcd60e51b8152600401620028189062003883565b604051809103906200282962002940565b50505b60006001816200283b62002a04565b906101000a900460ff161590508015620028aa5760016000610100816200286162002a04565b8160ff021916908315150217906200287862002a51565b50505060016000806101000a816200288f62002a04565b8160ff02191690831515021790620028a662002a51565b5050505b6000620028b662001f9e565b9050806065600181620028c862002a04565b816001600160a01b0302191690836001600160a01b0316021790620028ec62002a51565b5050506001600160a01b03811660007f8be0079c531659141344cd1fd0a4f28419497f9722a3daafe3b4186f6b6457e060405160405180910390a3508015620009f657600080610100816200268862002a04565b632a2a7adb598160e01b8152600481016020815285602082015260005b868110156200297a5780860151828201604001526020016200295d565b506020828760640184336000905af158601d01573d60011458600c01573d6000803e3d621234565260ea61109c52505050565b6373509064598160e01b8152602081600483336000905af158601d01573d60011458600c01573d6000803e3d621234565260ea61109c528051935060005b604081101562000f3957600082820152602001620029eb565b6303daa959598160e01b8152836004820152602081602483336000905af158601d01573d60011458600c01573d6000803e3d621234565260ea61109c5280516000825293506020620029eb565b6322bd64c0598160e01b8152836004820152846024820152600081604483336000905af158601d01573d60011458600c01573d6000803e3d621234565260ea61109c52600081526020620029eb565b63bdbf8c36598160e01b8152602081600483336000905af158601d01573d60011458600c01573d6000803e3d621234565260ea61109c5280516000825293506020620029eb565b638435035b598160e01b8152836004820152602081602483336000905af158601d01573d60011458600c01573d6000803e3d621234565260ea61109c5280516000825293506020620029eb565b638540661f598160e01b815262002b68565b808083111562000da0575090919050565b808083101562000da0575090919050565b836004820152846024820152606060448201528660648201526084810160005b8881101562002ba257808801518282015260200162002b88565b506060828960a40184336000905af158601d01573d60011458600c01573d6000803e3d621234565260ea61109c52815160408301513d6000853e8b8b82606087013350600060045af1505962002bf98d3d62002b57565b8c0162002c07818762002b46565b5b8281101562002c1e576000815260200162002c08565b50929c50505050505050565b6385979f76598160e01b8152836004820152846024820152606060448201528760648201526084810160005b8981101562002c7057808901518282015260200162002c56565b506060828a60a40184336000905af158601d01573d60011458600c01573d6000803e3d621234565260ea61109c52815160408301513d6000853e8c8c82606087013350600060045af1505962002cc78e3d62002b57565b8d0162002cd5818762002b46565b5b8281101562002cec576000815260200162002cd6565b50929d50505050505050565b63ffe73914598160e01b815262002b68565b6107c180620039c683390190565b6314aa2ff7598160e01b8152600481016020815286602082015260005b8781101562002d5257808701518282016040015260200162002d35565b506020828860640184336000905af158601d01573d60011458600c01573d6000803e3d621234565260ea61109c528151965059825b8181101562001095576000815260200162002d87565b80356001600160a01b038116811462000da05760008062002dbd62002940565b505092915050565b600082601f83011262002de157808162002dde62002940565b50505b813562002df862002df2826200397b565b62003944565b81815291506020808301908481018184028601820187101562002e255760008062002e2262002940565b50505b60005b8481101562002e505762002e3d888362002d9d565b8452928201929082019060010162002e28565b505050505092915050565b8035801515811462000da05760008062002dbd62002940565b600082601f83011262002e9057808162002e8d62002940565b50505b813567ffffffffffffffff81111562002eb257818262002eaf62002940565b50505b62002ec7601f8201601f191660200162003944565b915080825283602082850101111562002eea5760008062002ee762002940565b50505b8060208401602084013760009082016020015292915050565b803560ff8116811462000da05760008062002dbd62002940565b60006020828403121562002f3a57808162002f3762002940565b50505b62000d9d838362002d9d565b6000806040838503121562002f6457808162002f6162002940565b50505b62002f70848462002d9d565b915062002f81846020850162002d9d565b90509250929050565b600080600080600060a0868803121562002fad57808162002faa62002940565b50505b853562002fba81620039a7565b945060208681013562002fcd81620039a7565b9450604087013562002fdf81620039a7565b935060608781013562002ff281620039a7565b9350608088013567ffffffffffffffff811115620030195783846200301662002940565b50505b8801601f81018a13620030355783846200303262002940565b50505b80356200304662002df2826200397b565b81815284810190838601858402850187018e10156200306e5787886200306b62002940565b50505b8794505b83851015620030e95785818f031215620030955787886200309262002940565b50505b620030a08662003944565b620030ac8f8362002d9d565b8152620030bc8f89840162002f03565b88820152620030cf8f6040840162002d9d565b604082015283526001949094019391860191850162003072565b508096505050505050509295509295909350565b600080604083850312156200311b5781826200311862002940565b50505b62003127848462002d9d565b946020939093013593505050565b600080600060608486031215620031555782836200315262002940565b50505b62003161858562002d9d565b925062003172856020860162002f03565b915062003183856040860162002d9d565b90509250925092565b600080600080600080600060e0888a031215620031b2578182620031af62002940565b50505b620031be898962002e5b565b9650620031cf8960208a0162002d9d565b9550604088013567ffffffffffffffff80821115620031f7578384620031f462002940565b50505b620032058b838c0162002e74565b965060608a0135915080821115620032265783846200322362002940565b50505b620032348b838c0162002e74565b955060808a0135915080821115620032555783846200325262002940565b50505b620032638b838c0162002e74565b945060a08a0135935060c08a01359150808211156200328b5782836200328862002940565b50505b506200329a8a828b0162002dc5565b91505092959891949750929550565b600060208284031215620032c6578081620032c362002940565b50505b5035919050565b60008060408385031215620032eb578182620032e862002940565b50505b823567ffffffffffffffff8111156200330d5782836200330a62002940565b50505b6200331b8582860162002e74565b92505062002f81846020850162002f03565b6000602082840312156200334a5780816200334762002940565b50505b81519392505050565b60008060408385031215620033715781826200336e62002940565b50505b50508035926020909101359150565b60008060008060008060a08789031215620033a4578384620033a162002940565b50505b86359550602087013594506040870135935060608701359250608087013567ffffffffffffffff80821115620033e3578384620033e062002940565b50505b818901915089601f83011262003402578384620033ff62002940565b50505b8135818111156200341c5784856200341962002940565b50505b8a6020828501011115620034395784856200343662002940565b50505b6020830194508093505050509295509295509295565b6000602082840312156200346c5780816200346962002940565b50505b62000d9d838362002f03565b60008151808452815b81811015620034a25760208082860101518683019091015260200162003481565b81811115620034b45782602083870101525b50601f01601f19169290920160200192915050565b6001600160a01b0391909116815260200190565b600060018060a01b038087168352602081871681850152608060408501526200350a608085018762003478565b84810360608601528086518083528784019284019150855b818110156200354257858451168352928401929184019160010162003522565b50909a9950505050505050505050565b600060018060a01b038088168352861515602084015260a060408401526200357e60a084018762003478565b838103606085015262003592818762003478565b9250508084166080840152509695505050505050565b6001600160a01b038981168252881515602083015261010060408301819052600091620035d88483018b62003478565b91508382036060850152620035ee828a62003478565b97166080840152505060a081019390935260c083019190915260e090910152949350505050565b6001600160a01b03841681526060602082018190526000906200363b9083018562003478565b905060ff83166040830152949350505050565b6001600160a01b03938416815260ff929092166020830152909116604082015260600190565b901515815260200190565b90815260200190565b6020808252601290820152712737ba1030903837b7b61036b0b730b3b2b960711b604082015260600190565b6020808252600e908201526d696e76616c696420626f756e647360901b604082015260600190565b60208082526026908201527f4f776e61626c653a206e6577206f776e657220697320746865207a65726f206160408201526564647265737360d01b606082015260800190565b6020808252601b908201527f536166654d6174683a206164646974696f6e206f766572666c6f770000000000604082015260600190565b6020808252600890820152676f6e6c792064616f60c01b604082015260600190565b6020808252600c908201526b19185d184b5a5b9d985b1a5960a21b604082015260600190565b6020808252601490820152730dac2dcc2cecae440cccaca40e8dede40d0d2ced60631b604082015260600190565b6020808252600e908201526d1d185c99d95d0b5a5b9d985b1a5960921b604082015260600190565b602080825260139082015272185cdcd95d08191bd95cdb89dd08195e1a5cdd606a1b604082015260600190565b60208082526010908201526f34b73b30b634b210333930b1ba34b7b760811b604082015260600190565b6020808252818101527f4f776e61626c653a2063616c6c6572206973206e6f7420746865206f776e6572604082015260600190565b6020808252602e908201527f436f6e747261637420696e7374616e63652068617320616c726561647920626560408201526d195b881a5b9a5d1a585b1a5e995960921b606082015260800190565b602080825260149082015273617373657420616c72656164792065786973747360601b604082015260600190565b6020808252601e908201527f737570706c6965642061646472657373206973206e6f74206120706f6f6c0000604082015260600190565b918252602082015260400190565b6000604051905081810181811067ffffffffffffffff8211171562003973576000806200397062002940565b50505b604052919050565b600067ffffffffffffffff8211156200399d5780816200399a62002940565b50505b5060209081020190565b6001600160a01b0381168114620009f65760008062000f396200294056fe60806040523480156100195760008061001661001f565b50505b5061008a565b632a2a7adb598160e01b8152600481016020815285602082015260005b8681101561005757808601518282016040015260200161003c565b506020828760640184336000905af158601d01573d60011458600c01573d6000803e3d621234565260ea61109c52505050565b610728806100996000396000f3fe6080604052600436106100225760003560e01c8063e74a474a1461003957610031565b366100315761002f610117565b005b61002f610117565b61002f60048036036060811015610058576000806100556104ca565b50505b6001600160a01b03823516919081019060408101602082013564010000000081111561008c576000806100896104ca565b50505b8201836020820111156100a7576000806100a46104ca565b50505b803590602001918460018302840111640100000000831117156100d2576000806100cf6104ca565b50505b91908080601f01602080910402602001604051908101604052818152929190602084018383808284376000920191909152509295505050903560ff1691506101319050565b61011f61012f565b61012f61012a6102c3565b6103c4565b565b600061013b6102c3565b6001600160a01b03161461018e5760405162461bcd60e51b815260206004820152600d60248201526c496d706c206e6f74207a65726f60981b60448201526064016040518091039061018b6104ca565b50505b61019783610401565b6101a08161048e565b6000825111156102be5760006101b46102c3565b6001600160a01b0316836040518082805190602001908083835b602083106101ed5780518252601f1990920191602091820191016101ce565b6001836020036101000a038019825116818451168082178552505050505050905001915050600060405180830381855a610225610535565b50505050509150503d8060008114610259576040513d603f01601f191681016040523d815291503d6000602084013e61025e565b606091505b50509050806102bc5760405162461bcd60e51b815260206004820152601a60248201527f496d706c656d656e746174696f6e20696e6974206661696c65640000000000006044820152606401604051809103906102b96104ca565b50505b505b505050565b6000807f360894a13ba1a3210667c828492db98dca3e2076cc3735a920a3ca505d382bbc806102f0610622565b91506001600160a01b03821661030b576000925050506103c1565b816001600160a01b031663ecef89d561032261049d565b6040516001600160e01b031960e084901b16815260ff9091166004820152602401602060405180830381868061035661067d565b15801561036b576000806103686104ca565b50505b505a6103756106c9565b5050505050158015610394573d6000803e3d60006103916104ca565b50505b505050506040513d60208110156103b3576000806103b06104ca565b50505b810190808051955050505050505b90565b3660008037600080366000845a6103d9610535565b50505050503d6000803e8080156103ef573d6000f35b3d60006103fa6104ca565b5050505050565b61040a816104b5565b6104635760405162461bcd60e51b815260206004820181905260248201527f43616e6e6f742073657420696d706c656d656e746174696f6e20746f20454f416044820152606401604051809103906104606104ca565b50505b7f360894a13ba1a3210667c828492db98dca3e2076cc3735a920a3ca505d382bbc81816102bc6106da565b600160fc1b81816102bc6106da565b600080600160fc1b806104ae610622565b9250505090565b600080826104c161067d565b15159392505050565b632a2a7adb598160e01b8152600481016020815285602082015260005b868110156105025780860151828201604001526020016104e7565b506020828760640184336000905af158601d01573d60011458600c01573d6000803e3d621234565260ea61109c52505050565b63ffe73914598160e01b8152610568565b80808311156105525750815b92915050565b8080831015610552575090919050565b836004820152846024820152606060448201528660648201526084810160005b888110156105a0578088015182820152602001610588565b506060828960a40184336000905af158601d01573d60011458600c01573d6000803e3d621234565260ea61109c52815160408301513d6000853e8b8b82606087013350600060045af150596105f58d3d610558565b8c016106018187610546565b5b828110156106165760008152602001610602565b50929c50505050505050565b6303daa959598160e01b8152836004820152602081602483336000905af158601d01573d60011458600c01573d6000803e3d621234565260ea61109c528051935060005b60408110156102be57600082820152602001610666565b638435035b598160e01b8152836004820152602081602483336000905af158601d01573d60011458600c01573d6000803e3d621234565260ea61109c5280516000825293506020610666565b638540661f598160e01b8152610568565b6322bd64c0598160e01b8152836004820152846024820152600081604483336000905af158601d01573d60011458600c01573d6000803e3d621234565260ea61109c5260008152602061066656",
  "linkReferences": {},
  "deployedLinkReferences": {}
}