{
  "_format": "hh-sol-artifact-1",
  "contractName": "PoolFactory",
  "sourceName": "contracts/PoolFactory.sol",
  "abi": [
    {
      "anonymous": false,
      "inputs": [
        {
          "indexed": true,
          "internalType": "address",
          "name": "asset",
          "type": "address"
        }
      ],
      "name": "AddedValidAsset",
      "type": "event"
    },
    {
      "anonymous": false,
      "inputs": [
        {
          "indexed": false,
          "internalType": "address",
          "name": "dao",
          "type": "address"
        }
      ],
      "name": "DaoAddressSet",
      "type": "event"
    },
    {
      "anonymous": false,
      "inputs": [
        {
          "indexed": false,
          "internalType": "uint256",
          "name": "numerator",
          "type": "uint256"
        },
        {
          "indexed": false,
          "internalType": "uint256",
          "name": "denominator",
          "type": "uint256"
        }
      ],
      "name": "DaoFeeSet",
      "type": "event"
    },
    {
      "anonymous": false,
      "inputs": [
        {
          "indexed": false,
          "internalType": "uint256",
          "name": "cooldown",
          "type": "uint256"
        }
      ],
      "name": "ExitCooldownSet",
      "type": "event"
    },
    {
      "anonymous": false,
      "inputs": [
        {
          "indexed": false,
          "internalType": "uint256",
          "name": "numerator",
          "type": "uint256"
        },
        {
          "indexed": false,
          "internalType": "uint256",
          "name": "denominator",
          "type": "uint256"
        }
      ],
      "name": "ExitFeeSet",
      "type": "event"
    },
    {
      "anonymous": false,
      "inputs": [
        {
          "indexed": false,
          "internalType": "address",
          "name": "fundAddress",
          "type": "address"
        },
        {
          "indexed": false,
          "internalType": "bool",
          "name": "isPoolPrivate",
          "type": "bool"
        },
        {
          "indexed": false,
          "internalType": "string",
          "name": "fundName",
          "type": "string"
        },
        {
          "indexed": false,
          "internalType": "string",
          "name": "managerName",
          "type": "string"
        },
        {
          "indexed": false,
          "internalType": "address",
          "name": "manager",
          "type": "address"
        },
        {
          "indexed": false,
          "internalType": "uint256",
          "name": "time",
          "type": "uint256"
        },
        {
          "indexed": false,
          "internalType": "uint256",
          "name": "managerFeeNumerator",
          "type": "uint256"
        },
        {
          "indexed": false,
          "internalType": "uint256",
          "name": "managerFeeDenominator",
          "type": "uint256"
        }
      ],
      "name": "FundCreated",
      "type": "event"
    },
    {
      "anonymous": false,
      "inputs": [
        {
          "indexed": true,
          "internalType": "address",
          "name": "manager",
          "type": "address"
        },
        {
          "indexed": true,
          "internalType": "address",
          "name": "pool",
          "type": "address"
        }
      ],
      "name": "LogUpgrade",
      "type": "event"
    },
    {
      "anonymous": false,
      "inputs": [
        {
          "indexed": false,
          "internalType": "uint256",
          "name": "count",
          "type": "uint256"
        }
      ],
      "name": "MaximumSupportedAssetCountSet",
      "type": "event"
    },
    {
      "anonymous": false,
      "inputs": [
        {
          "indexed": true,
          "internalType": "address",
          "name": "previousOwner",
          "type": "address"
        },
        {
          "indexed": true,
          "internalType": "address",
          "name": "newOwner",
          "type": "address"
        }
      ],
      "name": "OwnershipTransferred",
      "type": "event"
    },
    {
      "anonymous": false,
      "inputs": [
        {
          "indexed": false,
          "internalType": "address",
          "name": "account",
          "type": "address"
        }
      ],
      "name": "Paused",
      "type": "event"
    },
    {
      "anonymous": false,
      "inputs": [
        {
          "indexed": false,
          "internalType": "address",
          "name": "proxy",
          "type": "address"
        }
      ],
      "name": "ProxyCreated",
      "type": "event"
    },
    {
      "anonymous": false,
      "inputs": [
        {
          "indexed": true,
          "internalType": "address",
          "name": "asset",
          "type": "address"
        }
      ],
      "name": "RemovedValidAsset",
      "type": "event"
    },
    {
      "anonymous": false,
      "inputs": [
        {
          "indexed": false,
          "internalType": "address",
          "name": "account",
          "type": "address"
        }
      ],
      "name": "Unpaused",
      "type": "event"
    },
    {
      "inputs": [
        {
          "internalType": "address",
          "name": "asset",
          "type": "address"
        },
        {
          "internalType": "address",
          "name": "aggregator",
          "type": "address"
        }
      ],
      "name": "addValidAsset",
      "outputs": [],
      "stateMutability": "nonpayable",
      "type": "function"
    },
    {
      "inputs": [
        {
          "internalType": "bool",
          "name": "_privatePool",
          "type": "bool"
        },
        {
          "internalType": "address",
          "name": "_manager",
          "type": "address"
        },
        {
          "internalType": "string",
          "name": "_managerName",
          "type": "string"
        },
        {
          "internalType": "string",
          "name": "_fundName",
          "type": "string"
        },
        {
          "internalType": "string",
          "name": "_fundSymbol",
          "type": "string"
        },
        {
          "internalType": "uint256",
          "name": "_managerFeeNumerator",
          "type": "uint256"
        },
        {
          "components": [
            {
              "internalType": "address",
              "name": "asset",
              "type": "address"
            },
            {
              "internalType": "bool",
              "name": "isDeposit",
              "type": "bool"
            }
          ],
          "internalType": "struct IPoolManagerLogic.Asset[]",
          "name": "_supportedAssets",
          "type": "tuple[]"
        }
      ],
      "name": "createFund",
      "outputs": [
        {
          "internalType": "address",
          "name": "",
          "type": "address"
        }
      ],
      "stateMutability": "nonpayable",
      "type": "function"
    },
    {
      "inputs": [
        {
          "internalType": "bytes",
          "name": "_data",
          "type": "bytes"
        },
        {
          "internalType": "uint8",
          "name": "_proxyType",
          "type": "uint8"
        }
      ],
      "name": "deploy",
      "outputs": [
        {
          "internalType": "address",
          "name": "",
          "type": "address"
        }
      ],
      "stateMutability": "nonpayable",
      "type": "function"
    },
    {
      "inputs": [
        {
          "internalType": "uint256",
          "name": "",
          "type": "uint256"
        }
      ],
      "name": "deployedFunds",
      "outputs": [
        {
          "internalType": "address",
          "name": "",
          "type": "address"
        }
      ],
      "stateMutability": "view",
      "type": "function"
    },
    {
      "inputs": [],
      "name": "deployedFundsLength",
      "outputs": [
        {
          "internalType": "uint256",
          "name": "",
          "type": "uint256"
        }
      ],
      "stateMutability": "view",
      "type": "function"
    },
    {
      "inputs": [],
      "name": "disableChainlink",
      "outputs": [],
      "stateMutability": "nonpayable",
      "type": "function"
    },
    {
      "inputs": [],
      "name": "enableChainlink",
      "outputs": [],
      "stateMutability": "nonpayable",
      "type": "function"
    },
    {
      "inputs": [],
      "name": "erc20Guard",
      "outputs": [
        {
          "internalType": "address",
          "name": "",
          "type": "address"
        }
      ],
      "stateMutability": "view",
      "type": "function"
    },
    {
      "inputs": [],
      "name": "getDaoAddress",
      "outputs": [
        {
          "internalType": "address",
          "name": "",
          "type": "address"
        }
      ],
      "stateMutability": "view",
      "type": "function"
    },
    {
      "inputs": [],
      "name": "getDaoFee",
      "outputs": [
        {
          "internalType": "uint256",
          "name": "",
          "type": "uint256"
        },
        {
          "internalType": "uint256",
          "name": "",
          "type": "uint256"
        }
      ],
      "stateMutability": "view",
      "type": "function"
    },
    {
      "inputs": [],
      "name": "getExitCooldown",
      "outputs": [
        {
          "internalType": "uint256",
          "name": "",
          "type": "uint256"
        }
      ],
      "stateMutability": "view",
      "type": "function"
    },
    {
      "inputs": [
        {
          "internalType": "address",
          "name": "extContract",
          "type": "address"
        }
      ],
      "name": "getGuard",
      "outputs": [
        {
          "internalType": "address",
          "name": "",
          "type": "address"
        }
      ],
      "stateMutability": "view",
      "type": "function"
    },
    {
      "inputs": [
        {
          "internalType": "uint8",
          "name": "_proxyType",
          "type": "uint8"
        }
      ],
      "name": "getLogic",
      "outputs": [
        {
          "internalType": "address",
          "name": "",
          "type": "address"
        }
      ],
      "stateMutability": "view",
      "type": "function"
    },
    {
      "inputs": [],
      "name": "getManagerFeeNumeratorChangeDelay",
      "outputs": [
        {
          "internalType": "uint256",
          "name": "",
          "type": "uint256"
        }
      ],
      "stateMutability": "view",
      "type": "function"
    },
    {
      "inputs": [],
      "name": "getMaximumManagerFee",
      "outputs": [
        {
          "internalType": "uint256",
          "name": "",
          "type": "uint256"
        },
        {
          "internalType": "uint256",
          "name": "",
          "type": "uint256"
        }
      ],
      "stateMutability": "view",
      "type": "function"
    },
    {
      "inputs": [],
      "name": "getMaximumManagerFeeNumeratorChange",
      "outputs": [
        {
          "internalType": "uint256",
          "name": "",
          "type": "uint256"
        }
      ],
      "stateMutability": "view",
      "type": "function"
    },
    {
      "inputs": [],
      "name": "getMaximumSupportedAssetCount",
      "outputs": [
        {
          "internalType": "uint256",
          "name": "",
          "type": "uint256"
        }
      ],
      "stateMutability": "view",
      "type": "function"
    },
    {
      "inputs": [
        {
          "internalType": "address",
          "name": "pool",
          "type": "address"
        }
      ],
      "name": "getPoolManagerFee",
      "outputs": [
        {
          "internalType": "uint256",
          "name": "",
          "type": "uint256"
        },
        {
          "internalType": "uint256",
          "name": "",
          "type": "uint256"
        }
      ],
      "stateMutability": "view",
      "type": "function"
    },
    {
      "inputs": [],
      "name": "getTrackingCode",
      "outputs": [
        {
          "internalType": "bytes32",
          "name": "",
          "type": "bytes32"
        }
      ],
      "stateMutability": "view",
      "type": "function"
    },
    {
      "inputs": [
        {
          "internalType": "address",
          "name": "_asset",
          "type": "address"
        }
      ],
      "name": "getUSDPrice",
      "outputs": [
        {
          "internalType": "uint256",
          "name": "",
          "type": "uint256"
        }
      ],
      "stateMutability": "view",
      "type": "function"
    },
    {
      "inputs": [
        {
          "internalType": "address",
          "name": "_poolLogic",
          "type": "address"
        },
        {
          "internalType": "address",
          "name": "_managerLogic",
          "type": "address"
        },
        {
          "internalType": "address",
          "name": "daoAddress",
          "type": "address"
        },
        {
          "internalType": "address[]",
          "name": "_validAssets",
          "type": "address[]"
        },
        {
          "internalType": "address[]",
          "name": "_aggregators",
          "type": "address[]"
        }
      ],
      "name": "initialize",
      "outputs": [],
      "stateMutability": "nonpayable",
      "type": "function"
    },
    {
      "inputs": [],
      "name": "isPaused",
      "outputs": [
        {
          "internalType": "bool",
          "name": "",
          "type": "bool"
        }
      ],
      "stateMutability": "view",
      "type": "function"
    },
    {
      "inputs": [
        {
          "internalType": "address",
          "name": "",
          "type": "address"
        }
      ],
      "name": "isPool",
      "outputs": [
        {
          "internalType": "bool",
          "name": "",
          "type": "bool"
        }
      ],
      "stateMutability": "view",
      "type": "function"
    },
    {
      "inputs": [
        {
          "internalType": "address",
          "name": "",
          "type": "address"
        }
      ],
      "name": "isPoolManager",
      "outputs": [
        {
          "internalType": "bool",
          "name": "",
          "type": "bool"
        }
      ],
      "stateMutability": "view",
      "type": "function"
    },
    {
      "inputs": [
        {
          "internalType": "address",
          "name": "asset",
          "type": "address"
        }
      ],
      "name": "isValidAsset",
      "outputs": [
        {
          "internalType": "bool",
          "name": "",
          "type": "bool"
        }
      ],
      "stateMutability": "view",
      "type": "function"
    },
    {
      "inputs": [],
      "name": "managerFeeNumeratorChangeDelay",
      "outputs": [
        {
          "internalType": "uint256",
          "name": "",
          "type": "uint256"
        }
      ],
      "stateMutability": "view",
      "type": "function"
    },
    {
      "inputs": [],
      "name": "maximumManagerFeeNumeratorChange",
      "outputs": [
        {
          "internalType": "uint256",
          "name": "",
          "type": "uint256"
        }
      ],
      "stateMutability": "view",
      "type": "function"
    },
    {
      "inputs": [],
      "name": "owner",
      "outputs": [
        {
          "internalType": "address",
          "name": "",
          "type": "address"
        }
      ],
      "stateMutability": "view",
      "type": "function"
    },
    {
      "inputs": [],
      "name": "pause",
      "outputs": [],
      "stateMutability": "nonpayable",
      "type": "function"
    },
    {
      "inputs": [],
      "name": "paused",
      "outputs": [
        {
          "internalType": "bool",
          "name": "",
          "type": "bool"
        }
      ],
      "stateMutability": "view",
      "type": "function"
    },
    {
      "inputs": [
        {
          "internalType": "address",
          "name": "",
          "type": "address"
        }
      ],
      "name": "poolManagerFeeDenominator",
      "outputs": [
        {
          "internalType": "uint256",
          "name": "",
          "type": "uint256"
        }
      ],
      "stateMutability": "view",
      "type": "function"
    },
    {
      "inputs": [
        {
          "internalType": "address",
          "name": "",
          "type": "address"
        }
      ],
      "name": "poolManagerFeeNumerator",
      "outputs": [
        {
          "internalType": "uint256",
          "name": "",
          "type": "uint256"
        }
      ],
      "stateMutability": "view",
      "type": "function"
    },
    {
      "inputs": [],
      "name": "poolStorageVersion",
      "outputs": [
        {
          "internalType": "uint256",
          "name": "",
          "type": "uint256"
        }
      ],
      "stateMutability": "view",
      "type": "function"
    },
    {
      "inputs": [
        {
          "internalType": "address",
          "name": "",
          "type": "address"
        }
      ],
      "name": "poolVersion",
      "outputs": [
        {
          "internalType": "uint256",
          "name": "",
          "type": "uint256"
        }
      ],
      "stateMutability": "view",
      "type": "function"
    },
    {
      "inputs": [
        {
          "internalType": "address",
          "name": "asset",
          "type": "address"
        }
      ],
      "name": "removeValidAsset",
      "outputs": [],
      "stateMutability": "nonpayable",
      "type": "function"
    },
    {
      "inputs": [],
      "name": "renounceOwnership",
      "outputs": [],
      "stateMutability": "nonpayable",
      "type": "function"
    },
    {
      "inputs": [
        {
          "internalType": "address",
          "name": "daoAddress",
          "type": "address"
        }
      ],
      "name": "setDaoAddress",
      "outputs": [],
      "stateMutability": "nonpayable",
      "type": "function"
    },
    {
      "inputs": [
        {
          "internalType": "uint256",
          "name": "numerator",
          "type": "uint256"
        },
        {
          "internalType": "uint256",
          "name": "denominator",
          "type": "uint256"
        }
      ],
      "name": "setDaoFee",
      "outputs": [],
      "stateMutability": "nonpayable",
      "type": "function"
    },
    {
      "inputs": [
        {
          "internalType": "address",
          "name": "_guard",
          "type": "address"
        }
      ],
      "name": "setERC20Guard",
      "outputs": [],
      "stateMutability": "nonpayable",
      "type": "function"
    },
    {
      "inputs": [
        {
          "internalType": "uint256",
          "name": "cooldown",
          "type": "uint256"
        }
      ],
      "name": "setExitCooldown",
      "outputs": [],
      "stateMutability": "nonpayable",
      "type": "function"
    },
    {
      "inputs": [
        {
          "internalType": "address",
          "name": "extContract",
          "type": "address"
        },
        {
          "internalType": "address",
          "name": "guardAddress",
          "type": "address"
        }
      ],
      "name": "setGuard",
      "outputs": [],
      "stateMutability": "nonpayable",
      "type": "function"
    },
    {
      "inputs": [
        {
          "internalType": "address",
          "name": "_poolLogic",
          "type": "address"
        },
        {
          "internalType": "address",
          "name": "_poolManagerLogic",
          "type": "address"
        }
      ],
      "name": "setLogic",
      "outputs": [],
      "stateMutability": "nonpayable",
      "type": "function"
    },
    {
      "inputs": [
        {
          "internalType": "uint256",
          "name": "delay",
          "type": "uint256"
        }
      ],
      "name": "setManagerFeeNumeratorChangeDelay",
      "outputs": [],
      "stateMutability": "nonpayable",
      "type": "function"
    },
    {
      "inputs": [
        {
          "internalType": "uint256",
          "name": "amount",
          "type": "uint256"
        }
      ],
      "name": "setMaximumManagerFeeNumeratorChange",
      "outputs": [],
      "stateMutability": "nonpayable",
      "type": "function"
    },
    {
      "inputs": [
        {
          "internalType": "uint256",
          "name": "count",
          "type": "uint256"
        }
      ],
      "name": "setMaximumSupportedAssetCount",
      "outputs": [],
      "stateMutability": "nonpayable",
      "type": "function"
    },
    {
      "inputs": [
        {
          "internalType": "address",
          "name": "pool",
          "type": "address"
        },
        {
          "internalType": "uint256",
          "name": "numerator",
          "type": "uint256"
        }
      ],
      "name": "setPoolManagerFeeNumerator",
      "outputs": [],
      "stateMutability": "nonpayable",
      "type": "function"
    },
    {
      "inputs": [
        {
          "internalType": "bytes32",
          "name": "code",
          "type": "bytes32"
        }
      ],
      "name": "setTrackingCode",
      "outputs": [],
      "stateMutability": "nonpayable",
      "type": "function"
    },
    {
      "inputs": [
        {
          "internalType": "address",
          "name": "newOwner",
          "type": "address"
        }
      ],
      "name": "transferOwnership",
      "outputs": [],
      "stateMutability": "nonpayable",
      "type": "function"
    },
    {
      "inputs": [],
      "name": "unpause",
      "outputs": [],
      "stateMutability": "nonpayable",
      "type": "function"
    },
    {
      "inputs": [
        {
          "internalType": "uint256",
          "name": "startIndex",
          "type": "uint256"
        },
        {
          "internalType": "uint256",
          "name": "endIndex",
          "type": "uint256"
        },
        {
          "internalType": "uint256",
          "name": "sourceVersion",
          "type": "uint256"
        },
        {
          "internalType": "uint256",
          "name": "targetVersion",
          "type": "uint256"
        },
        {
          "internalType": "bytes",
          "name": "data",
          "type": "bytes"
        }
      ],
      "name": "upgradePoolBatch",
      "outputs": [],
      "stateMutability": "nonpayable",
      "type": "function"
    }
  ],
  "bytecode": "0x608060405234801561001057600080fd5b50613255806100206000396000f3fe608060405234801561001057600080fd5b50600436106102a05760003560e01c80638b2f0f4f11610167578063bcb01f44116100ce578063e60eb41211610087578063e60eb41214610b25578063e99c0fa614610b4b578063ebee461d14610b68578063ecef89d514610b70578063eec16c4414610b90578063f2fde38b14610bad576102a0565b8063bcb01f4414610a86578063bee37e5214610aa3578063bfeaf71d14610ac9578063cc435bf314610ad1578063d54e96d214610af7578063dc76d25414610aff576102a0565b8063aa12ae4d11610120578063aa12ae4d14610a05578063aa7d664e14610a0d578063b187bd2614610a2a578063b193a5f414610a32578063b280600114610a58578063b7a5452614610a60576102a0565b80638b2f0f4f1461096b5780638da5cb5b1461099157806394d0d23b146109995780639a068bd6146109ba5780639a3cac6a146109d75780639cada6e4146109fd576102a0565b806349f7c02d1161020b578063715018a6116101c4578063715018a614610798578063742a96cd146107a0578063771d1baf146107ce578063790fcf9f146107f1578063808ae5fb146109355780638456cb5914610963576102a0565b806349f7c02d146106fa5780635556ee55146107025780635b16ebb7146107285780635c975abb146107625780635c9bfc2b1461076a5780637027ea6c14610772576102a0565b80631e8e8bca1161025d5780631e8e8bca146103a7578063227773ee146103c4578063391d348b146103f25780633f4ba83a146106415780634501b0881461064957806345812ca514610651576102a0565b8063046b72c4146102a55780630bf99bd9146102d35780630f6559c4146102ed57806310bf69dc146102f55780631d68702d146102fd5780631e666d1314610321575b600080fd5b6102d1600480360360408110156102bb57600080fd5b506001600160a01b038135169060200135610bd3565b005b6102db610d29565b60408051918252519081900360200190f35b6102db610d2f565b6102db610d36565b610305610d3d565b604080516001600160a01b039092168252519081900360200190f35b6102d1600480360360a081101561033757600080fd5b81359160208101359160408201359160608101359181019060a081016080820135600160201b81111561036957600080fd5b82018360208201111561037b57600080fd5b803590602001918460018302840111600160201b8311171561039c57600080fd5b509092509050610d4d565b6102d1600480360360208110156103bd57600080fd5b5035610e71565b6102d1600480360360408110156103da57600080fd5b506001600160a01b0381358116916020013516610ed5565b610305600480360360e081101561040857600080fd5b81351515916001600160a01b0360208201351691810190606081016040820135600160201b81111561043957600080fd5b82018360208201111561044b57600080fd5b803590602001918460018302840111600160201b8311171561046c57600080fd5b91908080601f0160208091040260200160405190810160405280939291908181526020018383808284376000920191909152509295949360208101935035915050600160201b8111156104be57600080fd5b8201836020820111156104d057600080fd5b803590602001918460018302840111600160201b831117156104f157600080fd5b91908080601f0160208091040260200160405190810160405280939291908181526020018383808284376000920191909152509295949360208101935035915050600160201b81111561054357600080fd5b82018360208201111561055557600080fd5b803590602001918460018302840111600160201b8311171561057657600080fd5b91908080601f01602080910402602001604051908101604052809392919081815260200183838082843760009201919091525092958435959094909350604081019250602001359050600160201b8111156105d057600080fd5b8201836020820111156105e257600080fd5b803590602001918460208302840111600160201b8311171561060357600080fd5b919080806020026020016040519081016040528093929190818152602001838360200280828437600092019190915250929550610f2a945050505050565b6102d161140c565b6102db611461565b6103056004803603604081101561066757600080fd5b810190602081018135600160201b81111561068157600080fd5b82018360208201111561069357600080fd5b803590602001918460018302840111600160201b831117156106b457600080fd5b91908080601f0160208091040260200160405190810160405280939291908181526020018383808284376000920191909152509295505050903560ff1691506114689050565b6102db61147b565b6102db6004803603602081101561071857600080fd5b50356001600160a01b0316611482565b61074e6004803603602081101561073e57600080fd5b50356001600160a01b0316611495565b604080519115158252519081900360200190f35b61074e6114ab565b6102db6114b4565b6103056004803603602081101561078857600080fd5b50356001600160a01b03166114bb565b6102d16114dd565b6102d1600480360360408110156107b657600080fd5b506001600160a01b038135811691602001351661157f565b6102d1600480360360408110156107e457600080fd5b5080359060200135611682565b6102d1600480360360a081101561080757600080fd5b6001600160a01b0382358116926020810135821692604082013590921691810190608081016060820135600160201b81111561084257600080fd5b82018360208201111561085457600080fd5b803590602001918460208302840111600160201b8311171561087557600080fd5b9190808060200260200160405190810160405280939291908181526020018383602002808284376000920191909152509295949360208101935035915050600160201b8111156108c457600080fd5b8201836020820111156108d657600080fd5b803590602001918460208302840111600160201b831117156108f757600080fd5b9190808060200260200160405190810160405280939291908181526020018383602002808284376000920191909152509295506116e4945050505050565b6102d16004803603604081101561094b57600080fd5b506001600160a01b03813581169160200135166118a2565b6102d1611928565b6102db6004803603602081101561098157600080fd5b50356001600160a01b031661197b565b610305611b34565b6109a1611b43565b6040805192835260208301919091528051918290030190f35b610305600480360360208110156109d057600080fd5b5035611b4f565b6102d1600480360360208110156109ed57600080fd5b50356001600160a01b0316611b76565b6109a1611bd7565b6102db611be3565b6102d160048036036020811015610a2357600080fd5b5035611bea565b61074e611c4b565b61074e60048036036020811015610a4857600080fd5b50356001600160a01b0316611c5a565b6102d1611c70565b6109a160048036036020811015610a7657600080fd5b50356001600160a01b0316611d05565b6102d160048036036020811015610a9c57600080fd5b5035611da6565b6102db60048036036020811015610ab957600080fd5b50356001600160a01b0316611e04565b6102db611e17565b61074e60048036036020811015610ae757600080fd5b50356001600160a01b0316611e1e565b6102d1611e3d565b6102d160048036036020811015610b1557600080fd5b50356001600160a01b0316611ed6565b6102db60048036036020811015610b3b57600080fd5b50356001600160a01b0316611fd2565b6102d160048036036020811015610b6157600080fd5b5035611fe5565b6102db612043565b61030560048036036020811015610b8657600080fd5b503560ff1661204a565b6102d160048036036020811015610ba657600080fd5b503561207c565b6102d160048036036020811015610bc357600080fd5b50356001600160a01b03166120dd565b336000908152610104602052604090205460ff161515600114610c32576040805162461bcd60e51b81526020600482015260126024820152712737ba1030903837b7b61036b0b730b3b2b960711b604482015290519081900360640190fd5b6001600160a01b0382166000908152610103602052604090205460ff161515600114610ca5576040805162461bcd60e51b815260206004820152601e60248201527f737570706c6965642061646472657373206973206e6f74206120706f6f6c0000604482015290519081900360640190fd5b61010f546001600160a01b03831660009081526101076020526040902054610ccc916121d6565b811115610d17576040805162461bcd60e51b81526020600482015260146024820152730dac2dcc2cecae440cccaca40e8dede40d0d2ced60631b604482015290519081900360640190fd5b610d25828261010654612230565b5050565b60ff5490565b61010e5481565b61010f5481565b610100546001600160a01b031690565b610d556122b1565b6097546001600160a01b03908116911614610da5576040805162461bcd60e51b81526020600482018190526024820152600080516020613184833981519152604482015290519081900360640190fd5b848611158015610db6575060ff5486105b8015610dc3575060ff5485105b610e05576040805162461bcd60e51b815260206004820152600e60248201526d696e76616c696420626f756e647360901b604482015290519081900360640190fd5b855b858111610e6857600060ff8281548110610e1d57fe5b60009182526020808320909101546001600160a01b031680835261010d9091526040909120549091508614610e525750610e60565b610e5e818585886122b5565b505b600101610e07565b50505050505050565b610e796122b1565b6097546001600160a01b03908116911614610ec9576040805162461bcd60e51b81526020600482018190526024820152600080516020613184833981519152604482015290519081900360640190fd5b610ed2816123fe565b50565b610100546001600160a01b03163314610f20576040805162461bcd60e51b81526020600482015260086024820152676f6e6c792064616f60c01b604482015290519081900360640190fd5b610d258282612404565b600060603088888560405160240180856001600160a01b03168152602001846001600160a01b031681526020018060200180602001838103835285818151815260200191508051906020019080838360005b83811015610f94578181015183820152602001610f7c565b50505050905090810190601f168015610fc15780820380516001836020036101000a031916815260200191505b508381038252845181528451602091820191808701910280838360005b83811015610ff6578181015183820152602001610fde565b5050505090500196505050505050506040516020818303038152906040526331a22a9960e21b6001600160e01b0319166020820180516001600160e01b0383818316178352505050509050600061104e826001611468565b90506060308b89898560405160240180866001600160a01b0316815260200185151581526020018060200180602001846001600160a01b03168152602001838103835286818151815260200191508051906020019080838360005b838110156110c15781810151838201526020016110a9565b50505050905090810190601f1680156110ee5780820380516001836020036101000a031916815260200191505b50838103825285518152855160209182019187019080838360005b83811015611121578181015183820152602001611109565b50505050905090810190601f16801561114e5780820380516001836020036101000a031916815260200191505b5060408051601f198184030181529190526020810180516001600160e01b0316630ccb30c760e01b1790529850600097506111959650889550600294506114689350505050565b9050826001600160a01b0316638e10153d826040518263ffffffff1660e01b815260040180826001600160a01b03168152602001915050602060405180830381600087803b1580156111e657600080fd5b505af11580156111fa573d6000803e3d6000fd5b505050506040513d602081101561121057600080fd5b505060ff805460018082019092557fe08ec2af2cfc251225e1968fd6ca21e4044f129bffa95bac3503be8bdb30a3670180546001600160a01b0319166001600160a01b03848116918217909255600081815261010360209081526040808320805460ff19908116881790915594891683526101048252808320805490951690951790935561010e5491815261010d90925291902055610106546112b69082908990612230565b7f73a0638fe578fc759744633aa170a433061ca2cc1bb855d116c506e04a29901f818d8b8d8f428d6101065460405180896001600160a01b0316815260200188151581526020018060200180602001876001600160a01b03168152602001868152602001858152602001848152602001838103835289818151815260200191508051906020019080838360005b8381101561135b578181015183820152602001611343565b50505050905090810190601f1680156113885780820380516001836020036101000a031916815260200191505b5083810382528851815288516020918201918a019080838360005b838110156113bb5781810151838201526020016113a3565b50505050905090810190601f1680156113e85780820380516001836020036101000a031916815260200191505b509a505050505050505050505060405180910390a19b9a5050505050505050505050565b610100546001600160a01b03163314611457576040805162461bcd60e51b81526020600482015260086024820152676f6e6c792064616f60c01b604482015290519081900360640190fd5b61145f612433565b565b6101095490565b600061147483836124d1565b9392505050565b61010c5490565b61010d6020526000908152604090205481565b6101036020526000908152604090205460ff1681565b60655460ff1690565b61010f5490565b6001600160a01b0380821660009081526101116020526040902054165b919050565b6114e56122b1565b6097546001600160a01b03908116911614611535576040805162461bcd60e51b81526020600482018190526024820152600080516020613184833981519152604482015290519081900360640190fd5b6097546040516000916001600160a01b0316907f8be0079c531659141344cd1fd0a4f28419497f9722a3daafe3b4186f6b6457e0908390a3609780546001600160a01b0319169055565b610100546001600160a01b031633146115ca576040805162461bcd60e51b81526020600482015260086024820152676f6e6c792064616f60c01b604482015290519081900360640190fd5b6115d382611e1e565b1561161c576040805162461bcd60e51b8152602060048201526014602482015273617373657420616c72656164792065786973747360601b604482015290519081900360640190fd5b6001600160a01b038216600090815261010a60205260409020805460ff1916600117905561164a82826125ff565b6040516001600160a01b038316907fd63c302652b86334fe4eb891e7a01e61e836496485d9394f2c95b4222006ae5090600090a25050565b61168a6122b1565b6097546001600160a01b039081169116146116da576040805162461bcd60e51b81526020600482018190526024820152600080516020613184833981519152604482015290519081900360640190fd5b610d25828261262d565b600054610100900460ff16806116fd57506116fd6126c0565b8061170b575060005460ff16155b6117465760405162461bcd60e51b815260040180806020018281038252602e8152602001806131a4602e913960400191505060405180910390fd5b600054610100900460ff16158015611771576000805460ff1961ff0019909116610100171660011790555b61177b86866126c6565b6117836126ce565b61178c8461277f565b61179a6113886127106127d4565b6117a6600a606461262d565b6117b262015180612829565b6117be6224ea00611da6565b6117c96103e8611fe5565b6117d3600a612865565b6117e56544484544474560d01b6123fe565b60005b83518160ff16101561188757600161010a6000868460ff168151811061180a57fe5b60200260200101516001600160a01b03166001600160a01b0316815260200190815260200160002060006101000a81548160ff02191690831515021790555061187f848260ff168151811061185b57fe5b6020026020010151848360ff168151811061187257fe5b60200260200101516125ff565b6001016117e8565b50801561189a576000805461ff00191690555b505050505050565b6118aa6122b1565b6097546001600160a01b039081169116146118fa576040805162461bcd60e51b81526020600482018190526024820152600080516020613184833981519152604482015290519081900360640190fd5b60c980546001600160a01b039384166001600160a01b03199182161790915560ca8054929093169116179055565b610100546001600160a01b03163314611973576040805162461bcd60e51b81526020600482015260086024820152676f6e6c792064616f60c01b604482015290519081900360640190fd5b61145f6128a1565b6001600160a01b03808216600090815260fe6020526040812054909116806119d45760405162461bcd60e51b81526004018080602001828103825260258152602001806131116025913960400191505060405180910390fd5b60fd5460009060ff16611af557816001600160a01b031663feaf968c6040518163ffffffff1660e01b815260040160a06040518083038186803b158015611a1a57600080fd5b505afa925050508015611a5c57506040513d60a0811015611a3a57600080fd5b5080516020820151604083015160608401516080909401519293919290919060015b611a975760405162461bcd60e51b81526004018080602001828103825260248152602001806131606024913960400191505060405180910390fd5b42611aa58362015f906121d6565b1015611ae25760405162461bcd60e51b81526004018080602001828103825260288152602001806131d26028913960400191505060405180910390fd5b6000841315611aef578395505b50505050505b600081116114745760405162461bcd60e51b81526004018080602001828103825260248152602001806131606024913960400191505060405180910390fd5b6097546001600160a01b031690565b61010554610106549091565b60ff8181548110611b5c57fe5b6000918252602090912001546001600160a01b0316905081565b611b7e6122b1565b6097546001600160a01b03908116911614611bce576040805162461bcd60e51b81526020600482018190526024820152600080516020613184833981519152604482015290519081900360640190fd5b610ed28161277f565b61010154610102549091565b61010b5490565b611bf26122b1565b6097546001600160a01b03908116911614611c42576040805162461bcd60e51b81526020600482018190526024820152600080516020613184833981519152604482015290519081900360640190fd5b610ed281612829565b6000611c556114ab565b905090565b6101046020526000908152604090205460ff1681565b610100546001600160a01b03163314611cbb576040805162461bcd60e51b81526020600482015260086024820152676f6e6c792064616f60c01b604482015290519081900360640190fd5b60fd5460ff1615611cfd5760405162461bcd60e51b81526004018080602001828103825260268152602001806131fa6026913960400191505060405180910390fd5b61145f612922565b6001600160a01b03811660009081526101036020526040812054819060ff161515600114611d7a576040805162461bcd60e51b815260206004820152601e60248201527f737570706c6965642061646472657373206973206e6f74206120706f6f6c0000604482015290519081900360640190fd5b50506001600160a01b031660009081526101076020908152604080832054610108909252909120549091565b611dae6122b1565b6097546001600160a01b03908116911614611dfe576040805162461bcd60e51b81526020600482018190526024820152600080516020613184833981519152604482015290519081900360640190fd5b61011055565b6101076020526000908152604090205481565b6101105481565b6001600160a01b0316600090815261010a602052604090205460ff1690565b610100546001600160a01b03163314611e88576040805162461bcd60e51b81526020600482015260086024820152676f6e6c792064616f60c01b604482015290519081900360640190fd5b60fd5460ff161515600114611ece5760405162461bcd60e51b815260040180806020018281038252602a815260200180613136602a913960400191505060405180910390fd5b61145f612931565b610100546001600160a01b03163314611f21576040805162461bcd60e51b81526020600482015260086024820152676f6e6c792064616f60c01b604482015290519081900360640190fd5b611f2a81611e1e565b611f71576040805162461bcd60e51b8152602060048201526013602482015272185cdcd95d08191bd95cdb89dd08195e1a5cdd606a1b604482015290519081900360640190fd5b6001600160a01b038116600090815261010a60205260409020805460ff19169055611f9b8161293d565b6040516001600160a01b038216907fe8b3c469b395bfd934168e4b7d14590c9cd1a6740533df170dbe3c219ff5a67490600090a250565b6101086020526000908152604090205481565b611fed6122b1565b6097546001600160a01b0390811691161461203d576040805162461bcd60e51b81526020600482018190526024820152600080516020613184833981519152604482015290519081900360640190fd5b61010f55565b6101105490565b60008160ff166001141561206a575060ca546001600160a01b03166114d8565b5060c9546001600160a01b03166114d8565b6120846122b1565b6097546001600160a01b039081169116146120d4576040805162461bcd60e51b81526020600482018190526024820152600080516020613184833981519152604482015290519081900360640190fd5b610ed281612865565b6120e56122b1565b6097546001600160a01b03908116911614612135576040805162461bcd60e51b81526020600482018190526024820152600080516020613184833981519152604482015290519081900360640190fd5b6001600160a01b03811661217a5760405162461bcd60e51b81526004018080602001828103825260268152602001806130eb6026913960400191505060405180910390fd5b6097546040516001600160a01b038084169216907f8be0079c531659141344cd1fd0a4f28419497f9722a3daafe3b4186f6b6457e090600090a3609780546001600160a01b0319166001600160a01b0392909216919091179055565b600082820183811015611474576040805162461bcd60e51b815260206004820152601b60248201527f536166654d6174683a206164646974696f6e206f766572666c6f770000000000604482015290519081900360640190fd5b8082111580156122435750610105548211155b612287576040805162461bcd60e51b815260206004820152601060248201526f34b73b30b634b210333930b1ba34b7b760811b604482015290519081900360640190fd5b6001600160a01b039092166000908152610107602090815260408083209390935561010890522055565b3390565b6001600160a01b038416612301576040805162461bcd60e51b815260206004820152600e60248201526d1d185c99d95d0b5a5b9d985b1a5960921b604482015290519081900360640190fd5b81612342576040805162461bcd60e51b815260206004820152600c60248201526b19185d184b5a5b9d985b1a5960a21b604482015290519081900360640190fd5b606083838080601f016020809104026020016040519081016040528093929190818152602001838380828437600092018290525084519495509384935091505060208401885af4801560018114612398576123a3565b3d806000803e806000fd5b50506040516001600160a01b0386169033907f78a9b536049c39a00adaf57016b1376c99dd48a0faf2cef23690232f21ce42cc90600090a3506001600160a01b03909316600090815261010d60205260409020929092555050565b61010c55565b6001600160a01b0391821660009081526101116020526040902080546001600160a01b03191691909216179055565b60655460ff16612481576040805162461bcd60e51b815260206004820152601460248201527314185d5cd8589b194e881b9bdd081c185d5cd95960621b604482015290519081900360640190fd5b6065805460ff191690557f5db9ee0a495bf2e6ff9c91a7834c1ba4fdd244a5e8aa4e537bd38aeae4b073aa6124b46122b1565b604080516001600160a01b039092168252519081900360200190a1565b6000806124dc612964565b604080516001600160a01b038316815290519192507efffc2da0b561cae30d9826d37709e9421c4725faebc226cbbb7ef5fc5e7349919081900360200190a1806001600160a01b031663e74a474a3086866040518463ffffffff1660e01b815260040180846001600160a01b03168152602001806020018360ff168152602001828103825284818151815260200191508051906020019080838360005b83811015612591578181015183820152602001612579565b50505050905090810190601f1680156125be5780820380516001836020036101000a031916815260200191505b50945050505050600060405180830381600087803b1580156125df57600080fd5b505af11580156125f3573d6000803e3d6000fd5b50929695505050505050565b6001600160a01b03918216600090815260fe6020526040902080546001600160a01b03191691909216179055565b80821115612675576040805162461bcd60e51b815260206004820152601060248201526f34b73b30b634b210333930b1ba34b7b760811b604482015290519081900360640190fd5b610101829055610102819055604080518381526020810183905281517fb10da2958bf5ec1bff3164ff753a09e0460ed44d3abf73e79b817b500ed0f2f1929181900390910190a15050565b303b1590565b6118fa6129ab565b600054610100900460ff16806126e757506126e76126c0565b806126f5575060005460ff16155b6127305760405162461bcd60e51b815260040180806020018281038252602e8152602001806131a4602e913960400191505060405180910390fd5b600054610100900460ff1615801561275b576000805460ff1961ff0019909116610100171660011790555b612763612a48565b61276b612ae8565b8015610ed2576000805461ff001916905550565b61010080546001600160a01b0383166001600160a01b0319909116811790915560408051918252517ff1034ad6b4d45dc33a4142b9c51c2b7f89bf4a410696e426cc0f3224869e0aca9181900360200190a150565b8082111561281c576040805162461bcd60e51b815260206004820152601060248201526f34b73b30b634b210333930b1ba34b7b760811b604482015290519081900360640190fd5b6101059190915561010655565b6101098190556040805182815290517f20d916c976f3971e8200089411b0b712ef4612d98380b8ad2e3d8a8a376d85c79181900360200190a150565b61010b8190556040805182815290517f0cd8fcb5e08d7632af461f0ad793e5c63dc0d7595c301f5880650175e37a87489181900360200190a150565b60655460ff16156128ec576040805162461bcd60e51b815260206004820152601060248201526f14185d5cd8589b194e881c185d5cd95960821b604482015290519081900360640190fd5b6065805460ff191660011790557f62e78cea01bee320cd4e420270b5ea74000d11b0c9f74754ebdbfc544b05a2586124b46122b1565b60fd805460ff19166001179055565b60fd805460ff19169055565b6001600160a01b0316600090815260fe6020526040902080546001600160a01b0319169055565b60008060606040518060200161297990612c8c565b6020820181038252601f19601f8201166040525090508051602082016000f09150813b6129a557600080fd5b50905090565b600054610100900460ff16806129c457506129c46126c0565b806129d2575060005460ff16155b612a0d5760405162461bcd60e51b815260040180806020018281038252602e8152602001806131a4602e913960400191505060405180910390fd5b600054610100900460ff16158015612a38576000805460ff1961ff0019909116610100171660011790555b612a40612a48565b61276b612b93565b600054610100900460ff1680612a615750612a616126c0565b80612a6f575060005460ff16155b612aaa5760405162461bcd60e51b815260040180806020018281038252602e8152602001806131a4602e913960400191505060405180910390fd5b600054610100900460ff1615801561276b576000805460ff1961ff0019909116610100171660011790558015610ed2576000805461ff001916905550565b600054610100900460ff1680612b015750612b016126c0565b80612b0f575060005460ff16155b612b4a5760405162461bcd60e51b815260040180806020018281038252602e8152602001806131a4602e913960400191505060405180910390fd5b600054610100900460ff16158015612b75576000805460ff1961ff0019909116610100171660011790555b6065805460ff191690558015610ed2576000805461ff001916905550565b600054610100900460ff1680612bac5750612bac6126c0565b80612bba575060005460ff16155b612bf55760405162461bcd60e51b815260040180806020018281038252602e8152602001806131a4602e913960400191505060405180910390fd5b600054610100900460ff16158015612c20576000805460ff1961ff0019909116610100171660011790555b6000612c2a6122b1565b609780546001600160a01b0319166001600160a01b038316908117909155604051919250906000907f8be0079c531659141344cd1fd0a4f28419497f9722a3daafe3b4186f6b6457e0908290a3508015610ed2576000805461ff001916905550565b61045180612c9a8339019056fe608060405234801561001057600080fd5b50610431806100206000396000f3fe6080604052600436106100225760003560e01c8063e74a474a1461003957610031565b366100315761002f6100f4565b005b61002f6100f4565b61002f6004803603606081101561004f57600080fd5b6001600160a01b03823516919081019060408101602082013564010000000081111561007a57600080fd5b82018360208201111561008c57600080fd5b803590602001918460018302840111640100000000831117156100ae57600080fd5b91908080601f0160208091040260200160405190810160405280939291908181526020018383808284376000920191909152509295505050903560ff16915061010e9050565b6100fc61010c565b61010c610107610281565b610342565b565b6000610118610281565b6001600160a01b031614610163576040805162461bcd60e51b815260206004820152600d60248201526c496d706c206e6f74207a65726f60981b604482015290519081900360640190fd5b61016c83610366565b610175816103e4565b81511561027c576000610186610281565b6001600160a01b0316836040518082805190602001908083835b602083106101bf5780518252601f1990920191602091820191016101a0565b6001836020036101000a038019825116818451168082178552505050505050905001915050600060405180830381855af49150503d806000811461021f576040519150601f19603f3d011682016040523d82523d6000602084013e610224565b606091505b505090508061027a576040805162461bcd60e51b815260206004820152601a60248201527f496d706c656d656e746174696f6e20696e6974206661696c6564000000000000604482015290519081900360640190fd5b505b505050565b7f360894a13ba1a3210667c828492db98dca3e2076cc3735a920a3ca505d382bbc80546000916001600160a01b0382166102c05760009250505061033f565b816001600160a01b031663ecef89d56102d76103ec565b6040518263ffffffff1660e01b8152600401808260ff16815260200191505060206040518083038186803b15801561030e57600080fd5b505afa158015610322573d6000803e3d6000fd5b505050506040513d602081101561033857600080fd5b5051925050505b90565b3660008037600080366000845af43d6000803e808015610361573d6000f35b3d6000fd5b61036f816103f5565b6103c0576040805162461bcd60e51b815260206004820181905260248201527f43616e6e6f742073657420696d706c656d656e746174696f6e20746f20454f41604482015290519081900360640190fd5b7f360894a13ba1a3210667c828492db98dca3e2076cc3735a920a3ca505d382bbc55565b600160fc1b55565b600160fc1b5490565b3b15159056fea26469706673582212208fb46f65a29ee18e860904dd11c61ab753d42dbb0a06704c916403fc4559feef64736f6c634300060c00334f776e61626c653a206e6577206f776e657220697320746865207a65726f20616464726573735072696365436f6e73756d657256333a2061676772656761746f72206e6f7420666f756e645072696365436f6e73756d657256333a20636861696e6c696e6b20616c726561647920656e61626c65645072696365436f6e73756d657256333a207072696365206e6f7420617661696c61626c654f776e61626c653a2063616c6c6572206973206e6f7420746865206f776e6572436f6e747261637420696e7374616e63652068617320616c7265616479206265656e20696e697469616c697a65645072696365436f6e73756d657256333a20636861696e6c696e6b20707269636520657870697265645072696365436f6e73756d657256333a20636861696e6c696e6b206e6f7420656e61626c6564a26469706673582212203c0c3b09c6c7c818c7b60661fa92c470084201f0c528378c4d347c1a0273610e64736f6c634300060c0033",
  "linkReferences": {},
  "deployedLinkReferences": {}
}