{
  "_format": "hh-sol-artifact-1",
  "contractName": "PoolFactory-ovm",
  "sourceName": "contracts/PoolFactory.sol",
  "abi": [
    {
      "anonymous": false,
      "inputs": [
        {
          "indexed": false,
          "internalType": "address",
          "name": "dao",
          "type": "address"
        }
      ],
      "name": "DaoAddressSet",
      "type": "event"
    },
    {
      "anonymous": false,
      "inputs": [
        {
          "indexed": false,
          "internalType": "uint256",
          "name": "numerator",
          "type": "uint256"
        },
        {
          "indexed": false,
          "internalType": "uint256",
          "name": "denominator",
          "type": "uint256"
        }
      ],
      "name": "DaoFeeSet",
      "type": "event"
    },
    {
      "anonymous": false,
      "inputs": [
        {
          "indexed": false,
          "internalType": "uint256",
          "name": "cooldown",
          "type": "uint256"
        }
      ],
      "name": "ExitCooldownSet",
      "type": "event"
    },
    {
      "anonymous": false,
      "inputs": [
        {
          "indexed": false,
          "internalType": "uint256",
          "name": "numerator",
          "type": "uint256"
        },
        {
          "indexed": false,
          "internalType": "uint256",
          "name": "denominator",
          "type": "uint256"
        }
      ],
      "name": "ExitFeeSet",
      "type": "event"
    },
    {
      "anonymous": false,
      "inputs": [
        {
          "indexed": false,
          "internalType": "address",
          "name": "fundAddress",
          "type": "address"
        },
        {
          "indexed": false,
          "internalType": "bool",
          "name": "isPoolPrivate",
          "type": "bool"
        },
        {
          "indexed": false,
          "internalType": "string",
          "name": "fundName",
          "type": "string"
        },
        {
          "indexed": false,
          "internalType": "string",
          "name": "managerName",
          "type": "string"
        },
        {
          "indexed": false,
          "internalType": "address",
          "name": "manager",
          "type": "address"
        },
        {
          "indexed": false,
          "internalType": "uint256",
          "name": "time",
          "type": "uint256"
        },
        {
          "indexed": false,
          "internalType": "uint256",
          "name": "managerFeeNumerator",
          "type": "uint256"
        },
        {
          "indexed": false,
          "internalType": "uint256",
          "name": "managerFeeDenominator",
          "type": "uint256"
        }
      ],
      "name": "FundCreated",
      "type": "event"
    },
    {
      "anonymous": false,
      "inputs": [
        {
          "indexed": true,
          "internalType": "address",
          "name": "manager",
          "type": "address"
        },
        {
          "indexed": true,
          "internalType": "address",
          "name": "pool",
          "type": "address"
        }
      ],
      "name": "LogUpgrade",
      "type": "event"
    },
    {
      "anonymous": false,
      "inputs": [
        {
          "indexed": false,
          "internalType": "uint256",
          "name": "count",
          "type": "uint256"
        }
      ],
      "name": "MaximumSupportedAssetCountSet",
      "type": "event"
    },
    {
      "anonymous": false,
      "inputs": [
        {
          "indexed": true,
          "internalType": "address",
          "name": "previousOwner",
          "type": "address"
        },
        {
          "indexed": true,
          "internalType": "address",
          "name": "newOwner",
          "type": "address"
        }
      ],
      "name": "OwnershipTransferred",
      "type": "event"
    },
    {
      "anonymous": false,
      "inputs": [
        {
          "indexed": false,
          "internalType": "address",
          "name": "proxy",
          "type": "address"
        }
      ],
      "name": "ProxyCreated",
      "type": "event"
    },
    {
      "inputs": [],
      "name": "addressResolver",
      "outputs": [
        {
          "internalType": "contract IAddressResolver",
          "name": "",
          "type": "address"
        }
      ],
      "stateMutability": "view",
      "type": "function"
    },
    {
      "inputs": [
        {
          "internalType": "bool",
          "name": "_privatePool",
          "type": "bool"
        },
        {
          "internalType": "address",
          "name": "_manager",
          "type": "address"
        },
        {
          "internalType": "string",
          "name": "_managerName",
          "type": "string"
        },
        {
          "internalType": "string",
          "name": "_fundName",
          "type": "string"
        },
        {
          "internalType": "string",
          "name": "_fundSymbol",
          "type": "string"
        },
        {
          "internalType": "uint256",
          "name": "_managerFeeNumerator",
          "type": "uint256"
        },
        {
          "internalType": "address[]",
          "name": "_supportedAssets",
          "type": "address[]"
        }
      ],
      "name": "createFund",
      "outputs": [
        {
          "internalType": "address",
          "name": "",
          "type": "address"
        }
      ],
      "stateMutability": "nonpayable",
      "type": "function"
    },
    {
      "inputs": [
        {
          "internalType": "bytes",
          "name": "_data",
          "type": "bytes"
        },
        {
          "internalType": "uint8",
          "name": "_proxyType",
          "type": "uint8"
        }
      ],
      "name": "deploy",
      "outputs": [
        {
          "internalType": "address",
          "name": "",
          "type": "address"
        }
      ],
      "stateMutability": "nonpayable",
      "type": "function"
    },
    {
      "inputs": [
        {
          "internalType": "uint256",
          "name": "",
          "type": "uint256"
        }
      ],
      "name": "deployedFunds",
      "outputs": [
        {
          "internalType": "address",
          "name": "",
          "type": "address"
        }
      ],
      "stateMutability": "view",
      "type": "function"
    },
    {
      "inputs": [],
      "name": "deployedFundsLength",
      "outputs": [
        {
          "internalType": "uint256",
          "name": "",
          "type": "uint256"
        }
      ],
      "stateMutability": "view",
      "type": "function"
    },
    {
      "inputs": [],
      "name": "getAddressResolver",
      "outputs": [
        {
          "internalType": "contract IAddressResolver",
          "name": "",
          "type": "address"
        }
      ],
      "stateMutability": "view",
      "type": "function"
    },
    {
      "inputs": [],
      "name": "getDaoAddress",
      "outputs": [
        {
          "internalType": "address",
          "name": "",
          "type": "address"
        }
      ],
      "stateMutability": "view",
      "type": "function"
    },
    {
      "inputs": [],
      "name": "getDaoFee",
      "outputs": [
        {
          "internalType": "uint256",
          "name": "",
          "type": "uint256"
        },
        {
          "internalType": "uint256",
          "name": "",
          "type": "uint256"
        }
      ],
      "stateMutability": "view",
      "type": "function"
    },
    {
      "inputs": [],
      "name": "getExitCooldown",
      "outputs": [
        {
          "internalType": "uint256",
          "name": "",
          "type": "uint256"
        }
      ],
      "stateMutability": "view",
      "type": "function"
    },
    {
      "inputs": [
        {
          "internalType": "address",
          "name": "extContract",
          "type": "address"
        }
      ],
      "name": "getGuard",
      "outputs": [
        {
          "internalType": "address",
          "name": "",
          "type": "address"
        }
      ],
      "stateMutability": "view",
      "type": "function"
    },
    {
      "inputs": [
        {
          "internalType": "uint8",
          "name": "_proxyType",
          "type": "uint8"
        }
      ],
      "name": "getLogic",
      "outputs": [
        {
          "internalType": "address",
          "name": "",
          "type": "address"
        }
      ],
      "stateMutability": "view",
      "type": "function"
    },
    {
      "inputs": [],
      "name": "getManagerFeeNumeratorChangeDelay",
      "outputs": [
        {
          "internalType": "uint256",
          "name": "",
          "type": "uint256"
        }
      ],
      "stateMutability": "view",
      "type": "function"
    },
    {
      "inputs": [],
      "name": "getMaximumManagerFee",
      "outputs": [
        {
          "internalType": "uint256",
          "name": "",
          "type": "uint256"
        },
        {
          "internalType": "uint256",
          "name": "",
          "type": "uint256"
        }
      ],
      "stateMutability": "view",
      "type": "function"
    },
    {
      "inputs": [],
      "name": "getMaximumManagerFeeNumeratorChange",
      "outputs": [
        {
          "internalType": "uint256",
          "name": "",
          "type": "uint256"
        }
      ],
      "stateMutability": "view",
      "type": "function"
    },
    {
      "inputs": [],
      "name": "getMaximumSupportedAssetCount",
      "outputs": [
        {
          "internalType": "uint256",
          "name": "",
          "type": "uint256"
        }
      ],
      "stateMutability": "view",
      "type": "function"
    },
    {
      "inputs": [
        {
          "internalType": "address",
          "name": "pool",
          "type": "address"
        }
      ],
      "name": "getPoolManagerFee",
      "outputs": [
        {
          "internalType": "uint256",
          "name": "",
          "type": "uint256"
        },
        {
          "internalType": "uint256",
          "name": "",
          "type": "uint256"
        }
      ],
      "stateMutability": "view",
      "type": "function"
    },
    {
      "inputs": [],
      "name": "getTrackingCode",
      "outputs": [
        {
          "internalType": "bytes32",
          "name": "",
          "type": "bytes32"
        }
      ],
      "stateMutability": "view",
      "type": "function"
    },
    {
      "inputs": [
        {
          "internalType": "contract IAddressResolver",
          "name": "_addressResolver",
          "type": "address"
        },
        {
          "internalType": "address",
          "name": "_poolLogic",
          "type": "address"
        },
        {
          "internalType": "address",
          "name": "_managerLogic",
          "type": "address"
        },
        {
          "internalType": "address",
          "name": "daoAddress",
          "type": "address"
        }
      ],
      "name": "initialize",
      "outputs": [],
      "stateMutability": "nonpayable",
      "type": "function"
    },
    {
      "inputs": [
        {
          "internalType": "address",
          "name": "",
          "type": "address"
        }
      ],
      "name": "isPool",
      "outputs": [
        {
          "internalType": "bool",
          "name": "",
          "type": "bool"
        }
      ],
      "stateMutability": "view",
      "type": "function"
    },
    {
      "inputs": [
        {
          "internalType": "address",
          "name": "",
          "type": "address"
        }
      ],
      "name": "isPoolManager",
      "outputs": [
        {
          "internalType": "bool",
          "name": "",
          "type": "bool"
        }
      ],
      "stateMutability": "view",
      "type": "function"
    },
    {
      "inputs": [],
      "name": "managerFeeNumeratorChangeDelay",
      "outputs": [
        {
          "internalType": "uint256",
          "name": "",
          "type": "uint256"
        }
      ],
      "stateMutability": "view",
      "type": "function"
    },
    {
      "inputs": [],
      "name": "maximumManagerFeeNumeratorChange",
      "outputs": [
        {
          "internalType": "uint256",
          "name": "",
          "type": "uint256"
        }
      ],
      "stateMutability": "view",
      "type": "function"
    },
    {
      "inputs": [],
      "name": "owner",
      "outputs": [
        {
          "internalType": "address",
          "name": "",
          "type": "address"
        }
      ],
      "stateMutability": "view",
      "type": "function"
    },
    {
      "inputs": [
        {
          "internalType": "address",
          "name": "",
          "type": "address"
        }
      ],
      "name": "poolManagerFeeDenominator",
      "outputs": [
        {
          "internalType": "uint256",
          "name": "",
          "type": "uint256"
        }
      ],
      "stateMutability": "view",
      "type": "function"
    },
    {
      "inputs": [
        {
          "internalType": "address",
          "name": "",
          "type": "address"
        }
      ],
      "name": "poolManagerFeeNumerator",
      "outputs": [
        {
          "internalType": "uint256",
          "name": "",
          "type": "uint256"
        }
      ],
      "stateMutability": "view",
      "type": "function"
    },
    {
      "inputs": [],
      "name": "poolStorageVersion",
      "outputs": [
        {
          "internalType": "uint256",
          "name": "",
          "type": "uint256"
        }
      ],
      "stateMutability": "view",
      "type": "function"
    },
    {
      "inputs": [
        {
          "internalType": "address",
          "name": "",
          "type": "address"
        }
      ],
      "name": "poolVersion",
      "outputs": [
        {
          "internalType": "uint256",
          "name": "",
          "type": "uint256"
        }
      ],
      "stateMutability": "view",
      "type": "function"
    },
    {
      "inputs": [],
      "name": "renounceOwnership",
      "outputs": [],
      "stateMutability": "nonpayable",
      "type": "function"
    },
    {
      "inputs": [
        {
          "internalType": "address",
          "name": "_addressResolver",
          "type": "address"
        }
      ],
      "name": "setAddressResolver",
      "outputs": [],
      "stateMutability": "nonpayable",
      "type": "function"
    },
    {
      "inputs": [
        {
          "internalType": "address",
          "name": "daoAddress",
          "type": "address"
        }
      ],
      "name": "setDaoAddress",
      "outputs": [],
      "stateMutability": "nonpayable",
      "type": "function"
    },
    {
      "inputs": [
        {
          "internalType": "uint256",
          "name": "numerator",
          "type": "uint256"
        },
        {
          "internalType": "uint256",
          "name": "denominator",
          "type": "uint256"
        }
      ],
      "name": "setDaoFee",
      "outputs": [],
      "stateMutability": "nonpayable",
      "type": "function"
    },
    {
      "inputs": [
        {
          "internalType": "uint256",
          "name": "cooldown",
          "type": "uint256"
        }
      ],
      "name": "setExitCooldown",
      "outputs": [],
      "stateMutability": "nonpayable",
      "type": "function"
    },
    {
      "inputs": [
        {
          "internalType": "address",
          "name": "extContract",
          "type": "address"
        },
        {
          "internalType": "address",
          "name": "guardAddress",
          "type": "address"
        }
      ],
      "name": "setGuard",
      "outputs": [],
      "stateMutability": "nonpayable",
      "type": "function"
    },
    {
      "inputs": [
        {
          "internalType": "address",
          "name": "_poolLogic",
          "type": "address"
        },
        {
          "internalType": "address",
          "name": "_poolManagerLogic",
          "type": "address"
        }
      ],
      "name": "setLogic",
      "outputs": [],
      "stateMutability": "nonpayable",
      "type": "function"
    },
    {
      "inputs": [
        {
          "internalType": "uint256",
          "name": "delay",
          "type": "uint256"
        }
      ],
      "name": "setManagerFeeNumeratorChangeDelay",
      "outputs": [],
      "stateMutability": "nonpayable",
      "type": "function"
    },
    {
      "inputs": [
        {
          "internalType": "uint256",
          "name": "amount",
          "type": "uint256"
        }
      ],
      "name": "setMaximumManagerFeeNumeratorChange",
      "outputs": [],
      "stateMutability": "nonpayable",
      "type": "function"
    },
    {
      "inputs": [
        {
          "internalType": "uint256",
          "name": "count",
          "type": "uint256"
        }
      ],
      "name": "setMaximumSupportedAssetCount",
      "outputs": [],
      "stateMutability": "nonpayable",
      "type": "function"
    },
    {
      "inputs": [
        {
          "internalType": "address",
          "name": "pool",
          "type": "address"
        },
        {
          "internalType": "uint256",
          "name": "numerator",
          "type": "uint256"
        }
      ],
      "name": "setPoolManagerFeeNumerator",
      "outputs": [],
      "stateMutability": "nonpayable",
      "type": "function"
    },
    {
      "inputs": [
        {
          "internalType": "bytes32",
          "name": "code",
          "type": "bytes32"
        }
      ],
      "name": "setTrackingCode",
      "outputs": [],
      "stateMutability": "nonpayable",
      "type": "function"
    },
    {
      "inputs": [
        {
          "internalType": "address",
          "name": "newOwner",
          "type": "address"
        }
      ],
      "name": "transferOwnership",
      "outputs": [],
      "stateMutability": "nonpayable",
      "type": "function"
    },
    {
      "inputs": [
        {
          "internalType": "uint256",
          "name": "startIndex",
          "type": "uint256"
        },
        {
          "internalType": "uint256",
          "name": "endIndex",
          "type": "uint256"
        },
        {
          "internalType": "uint256",
          "name": "sourceVersion",
          "type": "uint256"
        },
        {
          "internalType": "uint256",
          "name": "targetVersion",
          "type": "uint256"
        },
        {
          "internalType": "bytes",
          "name": "data",
          "type": "bytes"
        }
      ],
      "name": "upgradePoolBatch",
      "outputs": [],
      "stateMutability": "nonpayable",
      "type": "function"
    }
  ],
  "bytecode": "0x60806040523480156200001c576000806200001962000023565b50505b5062000090565b632a2a7adb598160e01b8152600481016020815285602082015260005b868110156200005d57808601518282016040015260200162000040565b506020828760640184336000905af158600e01573d6000803e3d6000fd5b3d6001141558600a015760016000f35b505050565b613ceb80620000a06000396000f3fe60806040523480156200001c57600080620000196200306a565b50505b5060043610620002975760003560e01c8063771d1baf1162000170578063b7a5452611620000e0578063e99c0fa6116200009e578063e99c0fa61462000b78578063ebee461d1462000ba3578063ecef89d51462000bad578063eec16c441462000bdb578063f2fde38b1462000c06578063f8c8765e1462000c3a5762000297565b8063b7a545261462000aa7578063bcb01f441462000adb578063bee37e521462000b06578063bfeaf71d1462000b3a578063e60eb4121462000b445762000297565b80639a3cac6a116200012e5780639a3cac6a1462000a005780639cada6e41462000a34578063aa12ae4d1462000a3e578063aa7d664e1462000a48578063b193a5f41462000a735762000297565b8063771d1baf146200093c578063808ae5fb146200096d5780638da5cb5b14620009a957806394d0d23b14620009b35780639a068bd614620009d55762000297565b8063391d348b116200020c5780635b16ebb711620001ca5780635b16ebb714620008a25780635c9bfc2b14620008ea5780637027ea6c14620008f4578063715018a6146200092857806371c1c54914620009325762000297565b8063391d348b14620004965780634501b088146200078057806345812ca5146200078a57806349f7c02d14620008645780635556ee55146200086e5762000297565b806314302387116200025a5780631430238714620003395780631d68702d146200036d5780631e666d1314620003775780631e8e8bca146200042f578063227773ee146200045a5762000297565b8063046b72c414620002a757806305a2ee2a14620002e35780630bf99bd914620003095780630f6559c4146200032557806310bf69dc146200032f575b600080620002a46200306a565b50505b620002e160048036036040811015620002ca57600080620002c76200306a565b50505b506001600160a01b03813516906020013562000c86565b005b620002ed62000e61565b6040516001600160a01b03909116815260200160405180910390f35b6200031362000e82565b60405190815260200160405180910390f35b6200031362000e97565b6200031362000ea6565b620002e1600480360360208110156200035c57600080620003596200306a565b50505b50356001600160a01b031662000eb2565b620002ed62000f72565b620002e1600480360360a08110156200039a57600080620003976200306a565b50505b81359160208101359160408201359160608101359181019060a081016080820135600160201b811115620003d857600080620003d56200306a565b50505b820183602082011115620003f657600080620003f36200306a565b50505b803590602001918460018302840111600160201b831117156200042357600080620004206200306a565b50505b50909250905062000f96565b620002e16004803603602081101562000452576000806200044f6200306a565b50505b503562001139565b620002e1600480360360408110156200047d576000806200047a6200306a565b50505b506001600160a01b0381358116916020013516620011cd565b620002ed600480360360e0811015620004b957600080620004b66200306a565b50505b81351515916001600160a01b0360208201351691810190606081016040820135600160201b811115620004f657600080620004f36200306a565b50505b8201836020820111156200051457600080620005116200306a565b50505b803590602001918460018302840111600160201b8311171562000541576000806200053e6200306a565b50505b91908080601f01602080910402602001604051908101604052818152929190602084018383808284376000920191909152509295949360208101935035915050600160201b8111156200059e576000806200059b6200306a565b50505b820183602082011115620005bc57600080620005b96200306a565b50505b803590602001918460018302840111600160201b83111715620005e957600080620005e66200306a565b50505b91908080601f01602080910402602001604051908101604052818152929190602084018383808284376000920191909152509295949360208101935035915050600160201b8111156200064657600080620006436200306a565b50505b8201836020820111156200066457600080620006616200306a565b50505b803590602001918460018302840111600160201b8311171562000691576000806200068e6200306a565b50505b91908080601f016020809104026020016040519081016040528181529291906020840183838082843760009201919091525092958435959094909350604081019250602001359050600160201b811115620006f657600080620006f36200306a565b50505b8201836020820111156200071457600080620007116200306a565b50505b803590602001918460208302840111600160201b8311171562000741576000806200073e6200306a565b50505b9190808060200260200160405190810160405280939291908181526020018383602002808284376000920191909152509295506200125f945050505050565b62000313620018d5565b620002ed60048036036040811015620007ad57600080620007aa6200306a565b50505b810190602081018135600160201b811115620007d357600080620007d06200306a565b50505b820183602082011115620007f157600080620007ee6200306a565b50505b803590602001918460018302840111600160201b831117156200081e576000806200081b6200306a565b50505b91908080601f01602080910402602001604051908101604052818152929190602084018383808284376000920191909152509295505050903560ff169150620018e89050565b62000313620018ff565b620003136004803603602081101562000891576000806200088e6200306a565b50505b50356001600160a01b03166200190d565b620008d660048036036020811015620008c557600080620008c26200306a565b50505b50356001600160a01b031662001927565b604051901515815260200160405180910390f35b6200031362001950565b620002ed600480360360208110156200091757600080620009146200306a565b50505b50356001600160a01b03166200195e565b620002e16200199b565b620002ed62001aaf565b620002e1600480360360408110156200095f576000806200095c6200306a565b50505b508035906020013562001abe565b620002e16004803603604081101562000990576000806200098d6200306a565b50505b506001600160a01b038135811691602001351662001b50565b620002ed62001c4c565b620009bd62001c5b565b60405191825260208201526040908101905180910390f35b620002ed60048036036020811015620009f857600080620009f56200306a565b50505b503562001c7e565b620002e16004803603602081101562000a235760008062000a206200306a565b50505b50356001600160a01b031662001cad565b620009bd62001d3e565b6200031362001d59565b620002e16004803603602081101562000a6b5760008062000a686200306a565b50505b503562001d67565b620008d66004803603602081101562000a965760008062000a936200306a565b50505b50356001600160a01b031662001df8565b620009bd6004803603602081101562000aca5760008062000ac76200306a565b50505b50356001600160a01b031662001e14565b620002e16004803603602081101562000afe5760008062000afb6200306a565b50505b503562001ef4565b620003136004803603602081101562000b295760008062000b266200306a565b50505b50356001600160a01b031662001f88565b6200031362001fa2565b620003136004803603602081101562000b675760008062000b646200306a565b50505b50356001600160a01b031662001fae565b620002e16004803603602081101562000b9b5760008062000b986200306a565b50505b503562001fc8565b620003136200205c565b620002ed6004803603602081101562000bd05760008062000bcd6200306a565b50505b503560ff166200206a565b620002e16004803603602081101562000bfe5760008062000bfb6200306a565b50505b5035620020ad565b620002e16004803603602081101562000c295760008062000c266200306a565b50505b50356001600160a01b03166200213e565b620002e16004803603608081101562000c5d5760008062000c5a6200306a565b50505b506001600160a01b03813581169160208101358216916040820135811691606001351662002283565b60d160005a62000c95620030d7565b6001600160a01b03166001600160a01b0316815260200190815260200160002060009062000cc26200312e565b906101000a900460ff161515600115151462000d245760405162461bcd60e51b81526020600482015260126024820152712737ba1030903837b7b61036b0b730b3b2b960711b60448201526064016040518091039062000d216200306a565b50505b6001600160a01b038216600090815260d06020526040902060009062000d496200312e565b906101000a900460ff161515600115151462000db65760405162461bcd60e51b815260206004820152601e60248201527f737570706c6965642061646472657373206973206e6f74206120706f6f6c000060448201526064016040518091039062000db36200306a565b50505b62000def60db62000dc66200312e565b6001600160a01b038416600090815260d46020526040902062000de86200312e565b9062002480565b81111562000e455760405162461bcd60e51b81526020600482015260146024820152730dac2dcc2cecae440cccaca40e8dede40d0d2ced60631b60448201526064016040518091039062000e426200306a565b50505b62000e5d828260d362000e576200312e565b620024eb565b5050565b600060cb62000e6f6200312e565b906101000a90046001600160a01b031681565b600060cc8062000e916200312e565b91505090565b60da62000ea36200312e565b81565b60db62000ea36200312e565b62000ebc620025ad565b6001600160a01b03166000606562000ed36200312e565b906101000a90046001600160a01b03166001600160a01b03161462000f385760405162461bcd60e51b8152602060048201819052602482015260008051602062003c9d83398151915260448201526064016040518091039062000f356200306a565b50505b8060cb60018162000f486200312e565b816001600160a01b0302191690836001600160a01b031602179062000f6c6200317b565b50505050565b60008060cd62000f816200312e565b906101000a90046001600160a01b0316905090565b62000fa0620025ad565b6001600160a01b03166000606562000fb76200312e565b906101000a90046001600160a01b03166001600160a01b0316146200101c5760405162461bcd60e51b8152602060048201819052602482015260008051602062003c9d833981519152604482015260640160405180910390620010196200306a565b50505b8486111580156200103a575060cc80620010356200312e565b905086105b801562001054575060cc806200104f6200312e565b905085105b620010a15760405162461bcd60e51b815260206004820152600e60248201526d696e76616c696420626f756e647360901b6044820152606401604051809103906200109e6200306a565b50505b855b8581116200113057600060cc8281620010bb6200312e565b8110620010c457fe5b90600052602060002001600090620010db6200312e565b6001600160a01b036101009290920a900416600081815260d96020529091508690604090206200110a6200312e565b1462001117575062001127565b6200112581858588620025ba565b505b600101620010a3565b50505050505050565b62001143620025ad565b6001600160a01b0316600060656200115a6200312e565b906101000a90046001600160a01b03166001600160a01b031614620011bf5760405162461bcd60e51b8152602060048201819052602482015260008051602062003c9d833981519152604482015260640160405180910390620011bc6200306a565b50505b620011ca816200274a565b50565b620011d7620025ad565b6001600160a01b031660006065620011ee6200312e565b906101000a90046001600160a01b03166001600160a01b031614620012535760405162461bcd60e51b8152602060048201819052602482015260008051602062003c9d833981519152604482015260640160405180910390620012506200306a565b50505b62000e5d828262002758565b600060605a63996d79a5598160e01b8152602081600483336000905af158600e01573d6000803e3d6000fd5b3d6001141558600a015760016000f35b8051925060005b6040811015620012bb57600082820152602001620012a2565b505050888860cb600090620012cf6200312e565b906101000a90046001600160a01b03168660405160240180866001600160a01b03168152602001856001600160a01b0316815260200180602001846001600160a01b0316815260200180602001838103835286818151815260200191508051906020019080838360005b838110156200135357808201518382015260200162001339565b50505050905090810190601f168015620013815780820380516001836020036101000a031916815260200191505b50838103825284818151815260200191508051906020019060200280838360005b83811015620013bc578082015183820152602001620013a2565b50505050905001975050505050505050604051601f1981830301815260409190915263d346cc6560e01b6020820180516001600160e01b03169091179052905060006200140b826001620018e8565b905060605a63996d79a5598160e01b8152602081600483336000905af158600e01573d6000803e3d6000fd5b3d6001141558600a015760016000f35b8051925060005b604081101562001467576000828201526020016200144e565b5050508b8b8b8b8b8760405160240180886001600160a01b031681526020018715158152602001866001600160a01b03168152602001806020018060200180602001856001600160a01b03168152602001848103845288818151815260200191508051906020019080838360005b83811015620014ef578082015183820152602001620014d5565b50505050905090810190601f1680156200151d5780820380516001836020036101000a031916815260200191505b50848103835287818151815260200191508051906020019080838360005b83811015620015555780820151838201526020016200153b565b50505050905090810190601f168015620015835780820380516001836020036101000a031916815260200191505b50848103825286818151815260200191508051906020019080838360005b83811015620015bb578082015183820152602001620015a1565b50505050905090810190601f168015620015e95780820380516001836020036101000a031916815260200191505b509a5050505050505050505050604051601f198183030181526040919091526366fd3ce960e11b6020820180516001600160e01b031690911790529050600062001635826002620018e8565b90508060cc80600181620016486200312e565b018082620016556200317b565b505060009283526000190191602091502001600181620016746200312e565b816001600160a01b0302191690836001600160a01b0316021790620016986200317b565b5050506001600160a01b038116600090815260d060205260019060409020600181620016c36200312e565b8160ff02191690831515021790620016da6200317b565b5050506001600160a01b038316600090815260d160205260019060409020600181620017056200312e565b8160ff021916908315150217906200171c6200317b565b50505060da6200172b6200312e565b6001600160a01b038216600090815260d96020526040902081906200174f6200317b565b50505062001764818860d362000e576200312e565b7f73a0638fe578fc759744633aa170a433061ca2cc1bb855d116c506e04a29901f818d8b8d8f5a62001795620031ca565b8d60d3620017a26200312e565b60405180896001600160a01b0316815260200188151581526020018060200180602001876001600160a01b03168152602001868152602001858152602001848152602001838103835289818151815260200191508051906020019080838360005b838110156200181d57808201518382015260200162001803565b50505050905090810190601f1680156200184b5780820380516001836020036101000a031916815260200191505b50838103825288818151815260200191508051906020019080838360005b838110156200188357808201518382015260200162001869565b50505050905090810190601f168015620018b15780820380516001836020036101000a031916815260200191505b509a505050505050505050505060405180910390a19b9a5050505050505050505050565b600060d6620018e36200312e565b905090565b6000620018f683836200277f565b90505b92915050565b600060d8620018e36200312e565b60d9602052806000526040600020905062000ea36200312e565b60d060205280600052604060002060009150620019436200312e565b906101000a900460ff1681565b600060db620018e36200312e565b6001600160a01b038116600090815260dd60205260408120600090620019836200312e565b906101000a90046001600160a01b031690505b919050565b620019a5620025ad565b6001600160a01b031660006065620019bc6200312e565b906101000a90046001600160a01b03166001600160a01b03161462001a215760405162461bcd60e51b8152602060048201819052602482015260008051602062003c9d83398151915260448201526064016040518091039062001a1e6200306a565b50505b600080606562001a306200312e565b906101000a90046001600160a01b03166001600160a01b03167f8be0079c531659141344cd1fd0a4f28419497f9722a3daafe3b4186f6b6457e060405160405180910390a36000606560018162001a866200312e565b816001600160a01b0302191690836001600160a01b031602179062001aaa6200317b565b505050565b60008060cb62000f816200312e565b62001ac8620025ad565b6001600160a01b03166000606562001adf6200312e565b906101000a90046001600160a01b03166001600160a01b03161462001b445760405162461bcd60e51b8152602060048201819052602482015260008051602062003c9d83398151915260448201526064016040518091039062001b416200306a565b50505b62000e5d82826200293b565b62001b5a620025ad565b6001600160a01b03166000606562001b716200312e565b906101000a90046001600160a01b03166001600160a01b03161462001bd65760405162461bcd60e51b8152602060048201819052602482015260008051602062003c9d83398151915260448201526064016040518091039062001bd36200306a565b50505b81609760018162001be66200312e565b816001600160a01b0302191690836001600160a01b031602179062001c0a6200317b565b50505080609860006101000a8162001c216200312e565b816001600160a01b0302191690836001600160a01b031602179062001c456200317b565b5050505050565b600080606562000f816200312e565b60008060d262001c6a6200312e565b60d362001c766200312e565b915091509091565b60cc818162001c8c6200312e565b811062001c9557fe5b906000526020600020016000915062000e6f6200312e565b62001cb7620025ad565b6001600160a01b03166000606562001cce6200312e565b906101000a90046001600160a01b03166001600160a01b03161462001d335760405162461bcd60e51b8152602060048201819052602482015260008051602062003c9d83398151915260448201526064016040518091039062001d306200306a565b50505b620011ca81620029ef565b60008060ce62001d4d6200312e565b60cf62001c766200312e565b600060d7620018e36200312e565b62001d71620025ad565b6001600160a01b03166000606562001d886200312e565b906101000a90046001600160a01b03166001600160a01b03161462001ded5760405162461bcd60e51b8152602060048201819052602482015260008051602062003c9d83398151915260448201526064016040518091039062001dea6200306a565b50505b620011ca8162002a66565b60d160205280600052604060002060009150620019436200312e565b6001600160a01b038116600090815260d0602052806040812060009062001e3a6200312e565b906101000a900460ff161515600115151462001ea75760405162461bcd60e51b815260206004820152601e60248201527f737570706c6965642061646472657373206973206e6f74206120706f6f6c000060448201526064016040518091039062001ea46200306a565b50505b6001600160a01b038316600090815260d46020526040902062001ec96200312e565b6001600160a01b038416600090815260d56020526040902062001eeb6200312e565b91509150915091565b62001efe620025ad565b6001600160a01b03166000606562001f156200312e565b906101000a90046001600160a01b03166001600160a01b03161462001f7a5760405162461bcd60e51b8152602060048201819052602482015260008051602062003c9d83398151915260448201526064016040518091039062001f776200306a565b50505b808060dc62000f6c6200317b565b60d4602052806000526040600020905062000ea36200312e565b60dc62000ea36200312e565b60d5602052806000526040600020905062000ea36200312e565b62001fd2620025ad565b6001600160a01b03166000606562001fe96200312e565b906101000a90046001600160a01b03166001600160a01b0316146200204e5760405162461bcd60e51b8152602060048201819052602482015260008051602062003c9d8339815191526044820152606401604051809103906200204b6200306a565b50505b808060db62000f6c6200317b565b600060dc620018e36200312e565b60008160ff16600114156200209f5760006098620020876200312e565b906101000a90046001600160a01b0316905062001996565b60006097620020876200312e565b620020b7620025ad565b6001600160a01b031660006065620020ce6200312e565b906101000a90046001600160a01b03166001600160a01b031614620021335760405162461bcd60e51b8152602060048201819052602482015260008051602062003c9d833981519152604482015260640160405180910390620021306200306a565b50505b620011ca8162002aad565b62002148620025ad565b6001600160a01b0316600060656200215f6200312e565b906101000a90046001600160a01b03166001600160a01b031614620021c45760405162461bcd60e51b8152602060048201819052602482015260008051602062003c9d833981519152604482015260640160405180910390620021c16200306a565b50505b6001600160a01b038116620022165760405162461bcd60e51b815260040180806020018281038252602681526020018062003c776026913960400191505060405180910390620022136200306a565b50505b6001600160a01b038116600060656200222e6200312e565b906101000a90046001600160a01b03166001600160a01b03167f8be0079c531659141344cd1fd0a4f28419497f9722a3daafe3b4186f6b6457e060405160405180910390a380606560018162000f486200312e565b60016000620022916200312e565b906101000a900460ff1680620022ac5750620022ac62002af4565b80620022cc5750600080620022c06200312e565b906101000a900460ff16155b620023145760405162461bcd60e51b815260040180806020018281038252602e81526020018062003cbd602e913960400191505060405180910390620023116200306a565b50505b6000600181620023236200312e565b906101000a900460ff16159050801562002392576001600061010081620023496200312e565b8160ff02191690831515021790620023606200317b565b50505060016000806101000a81620023776200312e565b8160ff021916908315150217906200238e6200317b565b5050505b6200239e848462002b69565b8460cb600181620023ae6200312e565b816001600160a01b0302191690836001600160a01b0316021790620023d26200317b565b505050620023e082620029ef565b620023f061138861271062002b73565b620023fe600a60646200293b565b6200240c6201518062002a66565b6200241a6224ea0062001ef4565b620024276103e862001fc8565b62002433600a62002aad565b620024476544484544474560d01b6200274a565b801562001c4557600080610100816200245f6200312e565b8160ff02191690831515021790620024766200317b565b5050505050505050565b600082820183811015620018f65760405162461bcd60e51b815260206004820152601b60248201527f536166654d6174683a206164646974696f6e206f766572666c6f770000000000604482015260640160405180910390620024e26200306a565b50509392505050565b80821115801562002507575060d2620025036200312e565b8211155b620025565760405162461bcd60e51b815260206004820152601060248201526f34b73b30b634b210333930b1ba34b7b760811b604482015260640160405180910390620025536200306a565b50505b6001600160a01b038316600090815260d460205282906040902081906200257c6200317b565b5050506001600160a01b038316600090815260d56020528190604090208190620025a56200317b565b505050505050565b60005a620018e3620030d7565b6001600160a01b038416620026115760405162461bcd60e51b815260206004820152600e60248201526d1d185c99d95d0b5a5b9d985b1a5960921b6044820152606401604051809103906200260e6200306a565b50505b816200265d5760405162461bcd60e51b815260206004820152600c60248201526b19185d184b5a5b9d985b1a5960a21b6044820152606401604051809103906200265a6200306a565b50505b606083838080601f01602080910402602001604051908101604052818152929190602084018383808284376000920182905250939450839250849150505160208401885a620026ab62003211565b5050505050801560018114620026c157620026d8565b3d806000803e806000620026d46200306a565b5050505b5050846001600160a01b03165a620026ef620030d7565b6001600160a01b03167f78a9b536049c39a00adaf57016b1376c99dd48a0faf2cef23690232f21ce42cc60405160405180910390a36001600160a01b038516600090815260d96020528290604090208190620024766200317b565b808060d862000f6c6200317b565b6001600160a01b038216600090815260dd60205281906040902060018162001c216200312e565b6000806200278c62002be6565b90507efffc2da0b561cae30d9826d37709e9421c4725faebc226cbbb7ef5fc5e7349816040516001600160a01b03909116815260200160405180910390a1806001600160a01b031663e74a474a5a63996d79a5598160e01b8152602081600483336000905af158600e01573d6000803e3d6000fd5b3d6001141558600a015760016000f35b8051925060005b6040811015620028315760008282015260200162002818565b50505086866040518463ffffffff1660e01b815260040180846001600160a01b03168152602001806020018360ff168152602001828103825284818151815260200191508051906020019080838360005b838110156200289c57808201518382015260200162002882565b50505050905090810190601f168015620028ca5780820380516001836020036101000a031916815260200191505b5094505050505060006040518083038160008780620028e862003307565b1580156200290057600080620028fd6200306a565b50505b505a6200290c62003354565b5050505050501580156200292f573d6000803e3d60006200292c6200306a565b50505b50929695505050505050565b808211156200298e5760405162461bcd60e51b815260206004820152601060248201526f34b73b30b634b210333930b1ba34b7b760811b6044820152606401604051809103906200298b6200306a565b50505b818060ce6200299c6200317b565b5050508060cf8190620029ae6200317b565b5050507fb10da2958bf5ec1bff3164ff753a09e0460ed44d3abf73e79b817b500ed0f2f1828260405191825260208201526040908101905180910390a15050565b8060cd600181620029ff6200312e565b816001600160a01b0302191690836001600160a01b031602179062002a236200317b565b5050507ff1034ad6b4d45dc33a4142b9c51c2b7f89bf4a410696e426cc0f3224869e0aca816040516001600160a01b03909116815260200160405180910390a150565b808060d662002a746200317b565b5050507f20d916c976f3971e8200089411b0b712ef4612d98380b8ad2e3d8a8a376d85c78160405190815260200160405180910390a150565b808060d762002abb6200317b565b5050507f0cd8fcb5e08d7632af461f0ad793e5c63dc0d7595c301f5880650175e37a87488160405190815260200160405180910390a150565b6000805a63996d79a5598160e01b8152602081600483336000905af158600e01573d6000803e3d6000fd5b3d6001141558600a015760016000f35b8051925060005b604081101562002b4f5760008282015260200162002b36565b505050905060008162002b6162003307565b159250505090565b62001bd662002c4d565b8082111562002bc65760405162461bcd60e51b815260206004820152601060248201526f34b73b30b634b210333930b1ba34b7b760811b60448201526064016040518091039062002bc36200306a565b50505b818060d262002bd46200317b565b5050508060d3819062001c456200317b565b600080606060405162002bfc6020820162003422565b601f1982820381018352601f909101166040529050805160208201600062002c2362003430565b505091508162002c3262003307565b62002c475760008062002c446200306a565b50505b50905090565b6001600062002c5b6200312e565b906101000a900460ff168062002c76575062002c7662002af4565b8062002c96575060008062002c8a6200312e565b906101000a900460ff16155b62002cde5760405162461bcd60e51b815260040180806020018281038252602e81526020018062003cbd602e91396040019150506040518091039062002cdb6200306a565b50505b600060018162002ced6200312e565b906101000a900460ff16159050801562002d5c57600160006101008162002d136200312e565b8160ff0219169083151502179062002d2a6200317b565b50505060016000806101000a8162002d416200312e565b8160ff0219169083151502179062002d586200317b565b5050505b62002d6662002d9f565b62002d7062002ec5565b8015620011ca576000806101008162002d886200312e565b8160ff0219169083151502179062000f6c6200317b565b6001600062002dad6200312e565b906101000a900460ff168062002dc8575062002dc862002af4565b8062002de8575060008062002ddc6200312e565b906101000a900460ff16155b62002e305760405162461bcd60e51b815260040180806020018281038252602e81526020018062003cbd602e91396040019150506040518091039062002e2d6200306a565b50505b600060018162002e3f6200312e565b906101000a900460ff16159050801562002d7057600160006101008162002e656200312e565b8160ff0219169083151502179062002e7c6200317b565b50505060016000806101000a8162002e936200312e565b8160ff0219169083151502179062002eaa6200317b565b5050508015620011ca576000806101008162002d886200312e565b6001600062002ed36200312e565b906101000a900460ff168062002eee575062002eee62002af4565b8062002f0e575060008062002f026200312e565b906101000a900460ff16155b62002f565760405162461bcd60e51b815260040180806020018281038252602e81526020018062003cbd602e91396040019150506040518091039062002f536200306a565b50505b600060018162002f656200312e565b906101000a900460ff16159050801562002fd457600160006101008162002f8b6200312e565b8160ff0219169083151502179062002fa26200317b565b50505060016000806101000a8162002fb96200312e565b8160ff0219169083151502179062002fd06200317b565b5050505b600062002fe0620025ad565b905080606560018162002ff26200312e565b816001600160a01b0302191690836001600160a01b0316021790620030166200317b565b5050506001600160a01b03811660007f8be0079c531659141344cd1fd0a4f28419497f9722a3daafe3b4186f6b6457e060405160405180910390a3508015620011ca576000806101008162002d886200312e565b632a2a7adb598160e01b8152600481016020815285602082015260005b86811015620030a457808601518282016040015260200162003087565b506020828760640184336000905af158600e01573d6000803e3d6000fd5b3d6001141558600a015760016000f35b505050565b6373509064598160e01b8152602081600483336000905af158600e01573d6000803e3d6000fd5b3d6001141558600a015760016000f35b8051935060005b604081101562001aaa5760008282015260200162003115565b6303daa959598160e01b8152836004820152602081602483336000905af158600e01573d6000803e3d6000fd5b3d6001141558600a015760016000f35b8051600082529350602062003115565b6322bd64c0598160e01b8152836004820152846024820152600081604483336000905af158600e01573d6000803e3d6000fd5b3d6001141558600a015760016000f35b60008152602062003115565b63bdbf8c36598160e01b8152602081600483336000905af158600e01573d6000803e3d6000fd5b3d6001141558600a015760016000f35b8051600082529350602062003115565b63ffe73914598160e01b815262003245565b8080831115620018f9575090919050565b8080831015620018f9575090919050565b836004820152846024820152606060448201528660648201526084810160005b888110156200327f57808801518282015260200162003265565b506060828960a40184336000905af158600e01573d6000803e3d6000fd5b3d6001141558600a015760016000f35b815160408301513d6000853e8b8b82606087013350600060045af15059620032d68d3d62003234565b8c01620032e4818762003223565b5b82811015620032fb5760008152602001620032e5565b50929c50505050505050565b638435035b598160e01b8152836004820152602081602483336000905af158600e01573d6000803e3d6000fd5b3d6001141558600a015760016000f35b8051600082529350602062003115565b6385979f76598160e01b8152836004820152846024820152606060448201528760648201526084810160005b898110156200339a57808901518282015260200162003380565b506060828a60a40184336000905af158600e01573d6000803e3d6000fd5b3d6001141558600a015760016000f35b815160408301513d6000853e8c8c82606087013350600060045af15059620033f18e3d62003234565b8d01620033ff818762003223565b5b8281101562003416576000815260200162003400565b50929d50505050505050565b6107c180620034b683390190565b6314aa2ff7598160e01b8152600481016020815286602082015260005b878110156200346a5780870151828201604001526020016200344d565b506020828860640184336000905af158600e01573d6000803e3d6000fd5b3d6001141558600a015760016000f35b8151965059825b8181101562001c4557600081526020016200349f56fe60806040523480156100195760008061001661001f565b50505b5061008a565b632a2a7adb598160e01b8152600481016020815285602082015260005b8681101561005757808601518282016040015260200161003c565b506020828760640184336000905af158600e01573d6000803e3d6000fd5b3d6001141558600a015760016000f35b505050565b610728806100996000396000f3fe6080604052600436106100225760003560e01c8063e74a474a1461003957610031565b366100315761002f610117565b005b61002f610117565b61002f60048036036060811015610058576000806100556104ca565b50505b6001600160a01b03823516919081019060408101602082013564010000000081111561008c576000806100896104ca565b50505b8201836020820111156100a7576000806100a46104ca565b50505b803590602001918460018302840111640100000000831117156100d2576000806100cf6104ca565b50505b91908080601f01602080910402602001604051908101604052818152929190602084018383808284376000920191909152509295505050903560ff1691506101319050565b61011f61012f565b61012f61012a6102c3565b6103c4565b565b600061013b6102c3565b6001600160a01b03161461018e5760405162461bcd60e51b815260206004820152600d60248201526c496d706c206e6f74207a65726f60981b60448201526064016040518091039061018b6104ca565b50505b61019783610401565b6101a08161048e565b6000825111156102be5760006101b46102c3565b6001600160a01b0316836040518082805190602001908083835b602083106101ed5780518252601f1990920191602091820191016101ce565b6001836020036101000a038019825116818451168082178552505050505050905001915050600060405180830381855a610225610535565b50505050509150503d8060008114610259576040513d603f01601f191681016040523d815291503d6000602084013e61025e565b606091505b50509050806102bc5760405162461bcd60e51b815260206004820152601a60248201527f496d706c656d656e746174696f6e20696e6974206661696c65640000000000006044820152606401604051809103906102b96104ca565b50505b505b505050565b6000807f360894a13ba1a3210667c828492db98dca3e2076cc3735a920a3ca505d382bbc806102f0610622565b91506001600160a01b03821661030b576000925050506103c1565b816001600160a01b031663ecef89d561032261049d565b6040516001600160e01b031960e084901b16815260ff9091166004820152602401602060405180830381868061035661067d565b15801561036b576000806103686104ca565b50505b505a6103756106c9565b5050505050158015610394573d6000803e3d60006103916104ca565b50505b505050506040513d60208110156103b3576000806103b06104ca565b50505b810190808051955050505050505b90565b3660008037600080366000845a6103d9610535565b50505050503d6000803e8080156103ef573d6000f35b3d60006103fa6104ca565b5050505050565b61040a816104b5565b6104635760405162461bcd60e51b815260206004820181905260248201527f43616e6e6f742073657420696d706c656d656e746174696f6e20746f20454f416044820152606401604051809103906104606104ca565b50505b7f360894a13ba1a3210667c828492db98dca3e2076cc3735a920a3ca505d382bbc81816102bc6106da565b600160fc1b81816102bc6106da565b600080600160fc1b806104ae610622565b9250505090565b600080826104c161067d565b15159392505050565b632a2a7adb598160e01b8152600481016020815285602082015260005b868110156105025780860151828201604001526020016104e7565b506020828760640184336000905af158600e01573d6000803e3d6000fd5b3d6001141558600a015760016000f35b505050565b63ffe73914598160e01b8152610568565b80808311156105525750815b92915050565b8080831015610552575090919050565b836004820152846024820152606060448201528660648201526084810160005b888110156105a0578088015182820152602001610588565b506060828960a40184336000905af158600e01573d6000803e3d6000fd5b3d6001141558600a015760016000f35b815160408301513d6000853e8b8b82606087013350600060045af150596105f58d3d610558565b8c016106018187610546565b5b828110156106165760008152602001610602565b50929c50505050505050565b6303daa959598160e01b8152836004820152602081602483336000905af158600e01573d6000803e3d6000fd5b3d6001141558600a015760016000f35b8051935060005b60408110156102be57600082820152602001610666565b638435035b598160e01b8152836004820152602081602483336000905af158600e01573d6000803e3d6000fd5b3d6001141558600a015760016000f35b80516000825293506020610666565b638540661f598160e01b8152610568565b6322bd64c0598160e01b8152836004820152846024820152600081604483336000905af158600e01573d6000803e3d6000fd5b3d6001141558600a015760016000f35b600081526020610666564f776e61626c653a206e6577206f776e657220697320746865207a65726f20616464726573734f776e61626c653a2063616c6c6572206973206e6f7420746865206f776e6572436f6e747261637420696e7374616e63652068617320616c7265616479206265656e20696e697469616c697a6564",
  "deployedBytecode": "0x60806040523480156200001c57600080620000196200306a565b50505b5060043610620002975760003560e01c8063771d1baf1162000170578063b7a5452611620000e0578063e99c0fa6116200009e578063e99c0fa61462000b78578063ebee461d1462000ba3578063ecef89d51462000bad578063eec16c441462000bdb578063f2fde38b1462000c06578063f8c8765e1462000c3a5762000297565b8063b7a545261462000aa7578063bcb01f441462000adb578063bee37e521462000b06578063bfeaf71d1462000b3a578063e60eb4121462000b445762000297565b80639a3cac6a116200012e5780639a3cac6a1462000a005780639cada6e41462000a34578063aa12ae4d1462000a3e578063aa7d664e1462000a48578063b193a5f41462000a735762000297565b8063771d1baf146200093c578063808ae5fb146200096d5780638da5cb5b14620009a957806394d0d23b14620009b35780639a068bd614620009d55762000297565b8063391d348b116200020c5780635b16ebb711620001ca5780635b16ebb714620008a25780635c9bfc2b14620008ea5780637027ea6c14620008f4578063715018a6146200092857806371c1c54914620009325762000297565b8063391d348b14620004965780634501b088146200078057806345812ca5146200078a57806349f7c02d14620008645780635556ee55146200086e5762000297565b806314302387116200025a5780631430238714620003395780631d68702d146200036d5780631e666d1314620003775780631e8e8bca146200042f578063227773ee146200045a5762000297565b8063046b72c414620002a757806305a2ee2a14620002e35780630bf99bd914620003095780630f6559c4146200032557806310bf69dc146200032f575b600080620002a46200306a565b50505b620002e160048036036040811015620002ca57600080620002c76200306a565b50505b506001600160a01b03813516906020013562000c86565b005b620002ed62000e61565b6040516001600160a01b03909116815260200160405180910390f35b6200031362000e82565b60405190815260200160405180910390f35b6200031362000e97565b6200031362000ea6565b620002e1600480360360208110156200035c57600080620003596200306a565b50505b50356001600160a01b031662000eb2565b620002ed62000f72565b620002e1600480360360a08110156200039a57600080620003976200306a565b50505b81359160208101359160408201359160608101359181019060a081016080820135600160201b811115620003d857600080620003d56200306a565b50505b820183602082011115620003f657600080620003f36200306a565b50505b803590602001918460018302840111600160201b831117156200042357600080620004206200306a565b50505b50909250905062000f96565b620002e16004803603602081101562000452576000806200044f6200306a565b50505b503562001139565b620002e1600480360360408110156200047d576000806200047a6200306a565b50505b506001600160a01b0381358116916020013516620011cd565b620002ed600480360360e0811015620004b957600080620004b66200306a565b50505b81351515916001600160a01b0360208201351691810190606081016040820135600160201b811115620004f657600080620004f36200306a565b50505b8201836020820111156200051457600080620005116200306a565b50505b803590602001918460018302840111600160201b8311171562000541576000806200053e6200306a565b50505b91908080601f01602080910402602001604051908101604052818152929190602084018383808284376000920191909152509295949360208101935035915050600160201b8111156200059e576000806200059b6200306a565b50505b820183602082011115620005bc57600080620005b96200306a565b50505b803590602001918460018302840111600160201b83111715620005e957600080620005e66200306a565b50505b91908080601f01602080910402602001604051908101604052818152929190602084018383808284376000920191909152509295949360208101935035915050600160201b8111156200064657600080620006436200306a565b50505b8201836020820111156200066457600080620006616200306a565b50505b803590602001918460018302840111600160201b8311171562000691576000806200068e6200306a565b50505b91908080601f016020809104026020016040519081016040528181529291906020840183838082843760009201919091525092958435959094909350604081019250602001359050600160201b811115620006f657600080620006f36200306a565b50505b8201836020820111156200071457600080620007116200306a565b50505b803590602001918460208302840111600160201b8311171562000741576000806200073e6200306a565b50505b9190808060200260200160405190810160405280939291908181526020018383602002808284376000920191909152509295506200125f945050505050565b62000313620018d5565b620002ed60048036036040811015620007ad57600080620007aa6200306a565b50505b810190602081018135600160201b811115620007d357600080620007d06200306a565b50505b820183602082011115620007f157600080620007ee6200306a565b50505b803590602001918460018302840111600160201b831117156200081e576000806200081b6200306a565b50505b91908080601f01602080910402602001604051908101604052818152929190602084018383808284376000920191909152509295505050903560ff169150620018e89050565b62000313620018ff565b620003136004803603602081101562000891576000806200088e6200306a565b50505b50356001600160a01b03166200190d565b620008d660048036036020811015620008c557600080620008c26200306a565b50505b50356001600160a01b031662001927565b604051901515815260200160405180910390f35b6200031362001950565b620002ed600480360360208110156200091757600080620009146200306a565b50505b50356001600160a01b03166200195e565b620002e16200199b565b620002ed62001aaf565b620002e1600480360360408110156200095f576000806200095c6200306a565b50505b508035906020013562001abe565b620002e16004803603604081101562000990576000806200098d6200306a565b50505b506001600160a01b038135811691602001351662001b50565b620002ed62001c4c565b620009bd62001c5b565b60405191825260208201526040908101905180910390f35b620002ed60048036036020811015620009f857600080620009f56200306a565b50505b503562001c7e565b620002e16004803603602081101562000a235760008062000a206200306a565b50505b50356001600160a01b031662001cad565b620009bd62001d3e565b6200031362001d59565b620002e16004803603602081101562000a6b5760008062000a686200306a565b50505b503562001d67565b620008d66004803603602081101562000a965760008062000a936200306a565b50505b50356001600160a01b031662001df8565b620009bd6004803603602081101562000aca5760008062000ac76200306a565b50505b50356001600160a01b031662001e14565b620002e16004803603602081101562000afe5760008062000afb6200306a565b50505b503562001ef4565b620003136004803603602081101562000b295760008062000b266200306a565b50505b50356001600160a01b031662001f88565b6200031362001fa2565b620003136004803603602081101562000b675760008062000b646200306a565b50505b50356001600160a01b031662001fae565b620002e16004803603602081101562000b9b5760008062000b986200306a565b50505b503562001fc8565b620003136200205c565b620002ed6004803603602081101562000bd05760008062000bcd6200306a565b50505b503560ff166200206a565b620002e16004803603602081101562000bfe5760008062000bfb6200306a565b50505b5035620020ad565b620002e16004803603602081101562000c295760008062000c266200306a565b50505b50356001600160a01b03166200213e565b620002e16004803603608081101562000c5d5760008062000c5a6200306a565b50505b506001600160a01b03813581169160208101358216916040820135811691606001351662002283565b60d160005a62000c95620030d7565b6001600160a01b03166001600160a01b0316815260200190815260200160002060009062000cc26200312e565b906101000a900460ff161515600115151462000d245760405162461bcd60e51b81526020600482015260126024820152712737ba1030903837b7b61036b0b730b3b2b960711b60448201526064016040518091039062000d216200306a565b50505b6001600160a01b038216600090815260d06020526040902060009062000d496200312e565b906101000a900460ff161515600115151462000db65760405162461bcd60e51b815260206004820152601e60248201527f737570706c6965642061646472657373206973206e6f74206120706f6f6c000060448201526064016040518091039062000db36200306a565b50505b62000def60db62000dc66200312e565b6001600160a01b038416600090815260d46020526040902062000de86200312e565b9062002480565b81111562000e455760405162461bcd60e51b81526020600482015260146024820152730dac2dcc2cecae440cccaca40e8dede40d0d2ced60631b60448201526064016040518091039062000e426200306a565b50505b62000e5d828260d362000e576200312e565b620024eb565b5050565b600060cb62000e6f6200312e565b906101000a90046001600160a01b031681565b600060cc8062000e916200312e565b91505090565b60da62000ea36200312e565b81565b60db62000ea36200312e565b62000ebc620025ad565b6001600160a01b03166000606562000ed36200312e565b906101000a90046001600160a01b03166001600160a01b03161462000f385760405162461bcd60e51b8152602060048201819052602482015260008051602062003c9d83398151915260448201526064016040518091039062000f356200306a565b50505b8060cb60018162000f486200312e565b816001600160a01b0302191690836001600160a01b031602179062000f6c6200317b565b50505050565b60008060cd62000f816200312e565b906101000a90046001600160a01b0316905090565b62000fa0620025ad565b6001600160a01b03166000606562000fb76200312e565b906101000a90046001600160a01b03166001600160a01b0316146200101c5760405162461bcd60e51b8152602060048201819052602482015260008051602062003c9d833981519152604482015260640160405180910390620010196200306a565b50505b8486111580156200103a575060cc80620010356200312e565b905086105b801562001054575060cc806200104f6200312e565b905085105b620010a15760405162461bcd60e51b815260206004820152600e60248201526d696e76616c696420626f756e647360901b6044820152606401604051809103906200109e6200306a565b50505b855b8581116200113057600060cc8281620010bb6200312e565b8110620010c457fe5b90600052602060002001600090620010db6200312e565b6001600160a01b036101009290920a900416600081815260d96020529091508690604090206200110a6200312e565b1462001117575062001127565b6200112581858588620025ba565b505b600101620010a3565b50505050505050565b62001143620025ad565b6001600160a01b0316600060656200115a6200312e565b906101000a90046001600160a01b03166001600160a01b031614620011bf5760405162461bcd60e51b8152602060048201819052602482015260008051602062003c9d833981519152604482015260640160405180910390620011bc6200306a565b50505b620011ca816200274a565b50565b620011d7620025ad565b6001600160a01b031660006065620011ee6200312e565b906101000a90046001600160a01b03166001600160a01b031614620012535760405162461bcd60e51b8152602060048201819052602482015260008051602062003c9d833981519152604482015260640160405180910390620012506200306a565b50505b62000e5d828262002758565b600060605a63996d79a5598160e01b8152602081600483336000905af158601d01573d60011458600c01573d6000803e3d621234565260ea61109c528051925060005b6040811015620012bb57600082820152602001620012a2565b505050888860cb600090620012cf6200312e565b906101000a90046001600160a01b03168660405160240180866001600160a01b03168152602001856001600160a01b0316815260200180602001846001600160a01b0316815260200180602001838103835286818151815260200191508051906020019080838360005b838110156200135357808201518382015260200162001339565b50505050905090810190601f168015620013815780820380516001836020036101000a031916815260200191505b50838103825284818151815260200191508051906020019060200280838360005b83811015620013bc578082015183820152602001620013a2565b50505050905001975050505050505050604051601f1981830301815260409190915263d346cc6560e01b6020820180516001600160e01b03169091179052905060006200140b826001620018e8565b905060605a63996d79a5598160e01b8152602081600483336000905af158601d01573d60011458600c01573d6000803e3d621234565260ea61109c528051925060005b604081101562001467576000828201526020016200144e565b5050508b8b8b8b8b8760405160240180886001600160a01b031681526020018715158152602001866001600160a01b03168152602001806020018060200180602001856001600160a01b03168152602001848103845288818151815260200191508051906020019080838360005b83811015620014ef578082015183820152602001620014d5565b50505050905090810190601f1680156200151d5780820380516001836020036101000a031916815260200191505b50848103835287818151815260200191508051906020019080838360005b83811015620015555780820151838201526020016200153b565b50505050905090810190601f168015620015835780820380516001836020036101000a031916815260200191505b50848103825286818151815260200191508051906020019080838360005b83811015620015bb578082015183820152602001620015a1565b50505050905090810190601f168015620015e95780820380516001836020036101000a031916815260200191505b509a5050505050505050505050604051601f198183030181526040919091526366fd3ce960e11b6020820180516001600160e01b031690911790529050600062001635826002620018e8565b90508060cc80600181620016486200312e565b018082620016556200317b565b505060009283526000190191602091502001600181620016746200312e565b816001600160a01b0302191690836001600160a01b0316021790620016986200317b565b5050506001600160a01b038116600090815260d060205260019060409020600181620016c36200312e565b8160ff02191690831515021790620016da6200317b565b5050506001600160a01b038316600090815260d160205260019060409020600181620017056200312e565b8160ff021916908315150217906200171c6200317b565b50505060da6200172b6200312e565b6001600160a01b038216600090815260d96020526040902081906200174f6200317b565b50505062001764818860d362000e576200312e565b7f73a0638fe578fc759744633aa170a433061ca2cc1bb855d116c506e04a29901f818d8b8d8f5a62001795620031ca565b8d60d3620017a26200312e565b60405180896001600160a01b0316815260200188151581526020018060200180602001876001600160a01b03168152602001868152602001858152602001848152602001838103835289818151815260200191508051906020019080838360005b838110156200181d57808201518382015260200162001803565b50505050905090810190601f1680156200184b5780820380516001836020036101000a031916815260200191505b50838103825288818151815260200191508051906020019080838360005b838110156200188357808201518382015260200162001869565b50505050905090810190601f168015620018b15780820380516001836020036101000a031916815260200191505b509a505050505050505050505060405180910390a19b9a5050505050505050505050565b600060d6620018e36200312e565b905090565b6000620018f683836200277f565b90505b92915050565b600060d8620018e36200312e565b60d9602052806000526040600020905062000ea36200312e565b60d060205280600052604060002060009150620019436200312e565b906101000a900460ff1681565b600060db620018e36200312e565b6001600160a01b038116600090815260dd60205260408120600090620019836200312e565b906101000a90046001600160a01b031690505b919050565b620019a5620025ad565b6001600160a01b031660006065620019bc6200312e565b906101000a90046001600160a01b03166001600160a01b03161462001a215760405162461bcd60e51b8152602060048201819052602482015260008051602062003c9d83398151915260448201526064016040518091039062001a1e6200306a565b50505b600080606562001a306200312e565b906101000a90046001600160a01b03166001600160a01b03167f8be0079c531659141344cd1fd0a4f28419497f9722a3daafe3b4186f6b6457e060405160405180910390a36000606560018162001a866200312e565b816001600160a01b0302191690836001600160a01b031602179062001aaa6200317b565b505050565b60008060cb62000f816200312e565b62001ac8620025ad565b6001600160a01b03166000606562001adf6200312e565b906101000a90046001600160a01b03166001600160a01b03161462001b445760405162461bcd60e51b8152602060048201819052602482015260008051602062003c9d83398151915260448201526064016040518091039062001b416200306a565b50505b62000e5d82826200293b565b62001b5a620025ad565b6001600160a01b03166000606562001b716200312e565b906101000a90046001600160a01b03166001600160a01b03161462001bd65760405162461bcd60e51b8152602060048201819052602482015260008051602062003c9d83398151915260448201526064016040518091039062001bd36200306a565b50505b81609760018162001be66200312e565b816001600160a01b0302191690836001600160a01b031602179062001c0a6200317b565b50505080609860006101000a8162001c216200312e565b816001600160a01b0302191690836001600160a01b031602179062001c456200317b565b5050505050565b600080606562000f816200312e565b60008060d262001c6a6200312e565b60d362001c766200312e565b915091509091565b60cc818162001c8c6200312e565b811062001c9557fe5b906000526020600020016000915062000e6f6200312e565b62001cb7620025ad565b6001600160a01b03166000606562001cce6200312e565b906101000a90046001600160a01b03166001600160a01b03161462001d335760405162461bcd60e51b8152602060048201819052602482015260008051602062003c9d83398151915260448201526064016040518091039062001d306200306a565b50505b620011ca81620029ef565b60008060ce62001d4d6200312e565b60cf62001c766200312e565b600060d7620018e36200312e565b62001d71620025ad565b6001600160a01b03166000606562001d886200312e565b906101000a90046001600160a01b03166001600160a01b03161462001ded5760405162461bcd60e51b8152602060048201819052602482015260008051602062003c9d83398151915260448201526064016040518091039062001dea6200306a565b50505b620011ca8162002a66565b60d160205280600052604060002060009150620019436200312e565b6001600160a01b038116600090815260d0602052806040812060009062001e3a6200312e565b906101000a900460ff161515600115151462001ea75760405162461bcd60e51b815260206004820152601e60248201527f737570706c6965642061646472657373206973206e6f74206120706f6f6c000060448201526064016040518091039062001ea46200306a565b50505b6001600160a01b038316600090815260d46020526040902062001ec96200312e565b6001600160a01b038416600090815260d56020526040902062001eeb6200312e565b91509150915091565b62001efe620025ad565b6001600160a01b03166000606562001f156200312e565b906101000a90046001600160a01b03166001600160a01b03161462001f7a5760405162461bcd60e51b8152602060048201819052602482015260008051602062003c9d83398151915260448201526064016040518091039062001f776200306a565b50505b808060dc62000f6c6200317b565b60d4602052806000526040600020905062000ea36200312e565b60dc62000ea36200312e565b60d5602052806000526040600020905062000ea36200312e565b62001fd2620025ad565b6001600160a01b03166000606562001fe96200312e565b906101000a90046001600160a01b03166001600160a01b0316146200204e5760405162461bcd60e51b8152602060048201819052602482015260008051602062003c9d8339815191526044820152606401604051809103906200204b6200306a565b50505b808060db62000f6c6200317b565b600060dc620018e36200312e565b60008160ff16600114156200209f5760006098620020876200312e565b906101000a90046001600160a01b0316905062001996565b60006097620020876200312e565b620020b7620025ad565b6001600160a01b031660006065620020ce6200312e565b906101000a90046001600160a01b03166001600160a01b031614620021335760405162461bcd60e51b8152602060048201819052602482015260008051602062003c9d833981519152604482015260640160405180910390620021306200306a565b50505b620011ca8162002aad565b62002148620025ad565b6001600160a01b0316600060656200215f6200312e565b906101000a90046001600160a01b03166001600160a01b031614620021c45760405162461bcd60e51b8152602060048201819052602482015260008051602062003c9d833981519152604482015260640160405180910390620021c16200306a565b50505b6001600160a01b038116620022165760405162461bcd60e51b815260040180806020018281038252602681526020018062003c776026913960400191505060405180910390620022136200306a565b50505b6001600160a01b038116600060656200222e6200312e565b906101000a90046001600160a01b03166001600160a01b03167f8be0079c531659141344cd1fd0a4f28419497f9722a3daafe3b4186f6b6457e060405160405180910390a380606560018162000f486200312e565b60016000620022916200312e565b906101000a900460ff1680620022ac5750620022ac62002af4565b80620022cc5750600080620022c06200312e565b906101000a900460ff16155b620023145760405162461bcd60e51b815260040180806020018281038252602e81526020018062003cbd602e913960400191505060405180910390620023116200306a565b50505b6000600181620023236200312e565b906101000a900460ff16159050801562002392576001600061010081620023496200312e565b8160ff02191690831515021790620023606200317b565b50505060016000806101000a81620023776200312e565b8160ff021916908315150217906200238e6200317b565b5050505b6200239e848462002b69565b8460cb600181620023ae6200312e565b816001600160a01b0302191690836001600160a01b0316021790620023d26200317b565b505050620023e082620029ef565b620023f061138861271062002b73565b620023fe600a60646200293b565b6200240c6201518062002a66565b6200241a6224ea0062001ef4565b620024276103e862001fc8565b62002433600a62002aad565b620024476544484544474560d01b6200274a565b801562001c4557600080610100816200245f6200312e565b8160ff02191690831515021790620024766200317b565b5050505050505050565b600082820183811015620018f65760405162461bcd60e51b815260206004820152601b60248201527f536166654d6174683a206164646974696f6e206f766572666c6f770000000000604482015260640160405180910390620024e26200306a565b50509392505050565b80821115801562002507575060d2620025036200312e565b8211155b620025565760405162461bcd60e51b815260206004820152601060248201526f34b73b30b634b210333930b1ba34b7b760811b604482015260640160405180910390620025536200306a565b50505b6001600160a01b038316600090815260d460205282906040902081906200257c6200317b565b5050506001600160a01b038316600090815260d56020528190604090208190620025a56200317b565b505050505050565b60005a620018e3620030d7565b6001600160a01b038416620026115760405162461bcd60e51b815260206004820152600e60248201526d1d185c99d95d0b5a5b9d985b1a5960921b6044820152606401604051809103906200260e6200306a565b50505b816200265d5760405162461bcd60e51b815260206004820152600c60248201526b19185d184b5a5b9d985b1a5960a21b6044820152606401604051809103906200265a6200306a565b50505b606083838080601f01602080910402602001604051908101604052818152929190602084018383808284376000920182905250939450839250849150505160208401885a620026ab62003211565b5050505050801560018114620026c157620026d8565b3d806000803e806000620026d46200306a565b5050505b5050846001600160a01b03165a620026ef620030d7565b6001600160a01b03167f78a9b536049c39a00adaf57016b1376c99dd48a0faf2cef23690232f21ce42cc60405160405180910390a36001600160a01b038516600090815260d96020528290604090208190620024766200317b565b808060d862000f6c6200317b565b6001600160a01b038216600090815260dd60205281906040902060018162001c216200312e565b6000806200278c62002be6565b90507efffc2da0b561cae30d9826d37709e9421c4725faebc226cbbb7ef5fc5e7349816040516001600160a01b03909116815260200160405180910390a1806001600160a01b031663e74a474a5a63996d79a5598160e01b8152602081600483336000905af158601d01573d60011458600c01573d6000803e3d621234565260ea61109c528051925060005b6040811015620028315760008282015260200162002818565b50505086866040518463ffffffff1660e01b815260040180846001600160a01b03168152602001806020018360ff168152602001828103825284818151815260200191508051906020019080838360005b838110156200289c57808201518382015260200162002882565b50505050905090810190601f168015620028ca5780820380516001836020036101000a031916815260200191505b5094505050505060006040518083038160008780620028e862003307565b1580156200290057600080620028fd6200306a565b50505b505a6200290c62003354565b5050505050501580156200292f573d6000803e3d60006200292c6200306a565b50505b50929695505050505050565b808211156200298e5760405162461bcd60e51b815260206004820152601060248201526f34b73b30b634b210333930b1ba34b7b760811b6044820152606401604051809103906200298b6200306a565b50505b818060ce6200299c6200317b565b5050508060cf8190620029ae6200317b565b5050507fb10da2958bf5ec1bff3164ff753a09e0460ed44d3abf73e79b817b500ed0f2f1828260405191825260208201526040908101905180910390a15050565b8060cd600181620029ff6200312e565b816001600160a01b0302191690836001600160a01b031602179062002a236200317b565b5050507ff1034ad6b4d45dc33a4142b9c51c2b7f89bf4a410696e426cc0f3224869e0aca816040516001600160a01b03909116815260200160405180910390a150565b808060d662002a746200317b565b5050507f20d916c976f3971e8200089411b0b712ef4612d98380b8ad2e3d8a8a376d85c78160405190815260200160405180910390a150565b808060d762002abb6200317b565b5050507f0cd8fcb5e08d7632af461f0ad793e5c63dc0d7595c301f5880650175e37a87488160405190815260200160405180910390a150565b6000805a63996d79a5598160e01b8152602081600483336000905af158601d01573d60011458600c01573d6000803e3d621234565260ea61109c528051925060005b604081101562002b4f5760008282015260200162002b36565b505050905060008162002b6162003307565b159250505090565b62001bd662002c4d565b8082111562002bc65760405162461bcd60e51b815260206004820152601060248201526f34b73b30b634b210333930b1ba34b7b760811b60448201526064016040518091039062002bc36200306a565b50505b818060d262002bd46200317b565b5050508060d3819062001c456200317b565b600080606060405162002bfc6020820162003422565b601f1982820381018352601f909101166040529050805160208201600062002c2362003430565b505091508162002c3262003307565b62002c475760008062002c446200306a565b50505b50905090565b6001600062002c5b6200312e565b906101000a900460ff168062002c76575062002c7662002af4565b8062002c96575060008062002c8a6200312e565b906101000a900460ff16155b62002cde5760405162461bcd60e51b815260040180806020018281038252602e81526020018062003cbd602e91396040019150506040518091039062002cdb6200306a565b50505b600060018162002ced6200312e565b906101000a900460ff16159050801562002d5c57600160006101008162002d136200312e565b8160ff0219169083151502179062002d2a6200317b565b50505060016000806101000a8162002d416200312e565b8160ff0219169083151502179062002d586200317b565b5050505b62002d6662002d9f565b62002d7062002ec5565b8015620011ca576000806101008162002d886200312e565b8160ff0219169083151502179062000f6c6200317b565b6001600062002dad6200312e565b906101000a900460ff168062002dc8575062002dc862002af4565b8062002de8575060008062002ddc6200312e565b906101000a900460ff16155b62002e305760405162461bcd60e51b815260040180806020018281038252602e81526020018062003cbd602e91396040019150506040518091039062002e2d6200306a565b50505b600060018162002e3f6200312e565b906101000a900460ff16159050801562002d7057600160006101008162002e656200312e565b8160ff0219169083151502179062002e7c6200317b565b50505060016000806101000a8162002e936200312e565b8160ff0219169083151502179062002eaa6200317b565b5050508015620011ca576000806101008162002d886200312e565b6001600062002ed36200312e565b906101000a900460ff168062002eee575062002eee62002af4565b8062002f0e575060008062002f026200312e565b906101000a900460ff16155b62002f565760405162461bcd60e51b815260040180806020018281038252602e81526020018062003cbd602e91396040019150506040518091039062002f536200306a565b50505b600060018162002f656200312e565b906101000a900460ff16159050801562002fd457600160006101008162002f8b6200312e565b8160ff0219169083151502179062002fa26200317b565b50505060016000806101000a8162002fb96200312e565b8160ff0219169083151502179062002fd06200317b565b5050505b600062002fe0620025ad565b905080606560018162002ff26200312e565b816001600160a01b0302191690836001600160a01b0316021790620030166200317b565b5050506001600160a01b03811660007f8be0079c531659141344cd1fd0a4f28419497f9722a3daafe3b4186f6b6457e060405160405180910390a3508015620011ca576000806101008162002d886200312e565b632a2a7adb598160e01b8152600481016020815285602082015260005b86811015620030a457808601518282016040015260200162003087565b506020828760640184336000905af158601d01573d60011458600c01573d6000803e3d621234565260ea61109c52505050565b6373509064598160e01b8152602081600483336000905af158601d01573d60011458600c01573d6000803e3d621234565260ea61109c528051935060005b604081101562001aaa5760008282015260200162003115565b6303daa959598160e01b8152836004820152602081602483336000905af158601d01573d60011458600c01573d6000803e3d621234565260ea61109c528051600082529350602062003115565b6322bd64c0598160e01b8152836004820152846024820152600081604483336000905af158601d01573d60011458600c01573d6000803e3d621234565260ea61109c5260008152602062003115565b63bdbf8c36598160e01b8152602081600483336000905af158601d01573d60011458600c01573d6000803e3d621234565260ea61109c528051600082529350602062003115565b63ffe73914598160e01b815262003245565b8080831115620018f9575090919050565b8080831015620018f9575090919050565b836004820152846024820152606060448201528660648201526084810160005b888110156200327f57808801518282015260200162003265565b506060828960a40184336000905af158601d01573d60011458600c01573d6000803e3d621234565260ea61109c52815160408301513d6000853e8b8b82606087013350600060045af15059620032d68d3d62003234565b8c01620032e4818762003223565b5b82811015620032fb5760008152602001620032e5565b50929c50505050505050565b638435035b598160e01b8152836004820152602081602483336000905af158601d01573d60011458600c01573d6000803e3d621234565260ea61109c528051600082529350602062003115565b6385979f76598160e01b8152836004820152846024820152606060448201528760648201526084810160005b898110156200339a57808901518282015260200162003380565b506060828a60a40184336000905af158601d01573d60011458600c01573d6000803e3d621234565260ea61109c52815160408301513d6000853e8c8c82606087013350600060045af15059620033f18e3d62003234565b8d01620033ff818762003223565b5b8281101562003416576000815260200162003400565b50929d50505050505050565b6107c180620034b683390190565b6314aa2ff7598160e01b8152600481016020815286602082015260005b878110156200346a5780870151828201604001526020016200344d565b506020828860640184336000905af158601d01573d60011458600c01573d6000803e3d621234565260ea61109c528151965059825b8181101562001c4557600081526020016200349f56fe60806040523480156100195760008061001661001f565b50505b5061008a565b632a2a7adb598160e01b8152600481016020815285602082015260005b8681101561005757808601518282016040015260200161003c565b506020828760640184336000905af158601d01573d60011458600c01573d6000803e3d621234565260ea61109c52505050565b610728806100996000396000f3fe6080604052600436106100225760003560e01c8063e74a474a1461003957610031565b366100315761002f610117565b005b61002f610117565b61002f60048036036060811015610058576000806100556104ca565b50505b6001600160a01b03823516919081019060408101602082013564010000000081111561008c576000806100896104ca565b50505b8201836020820111156100a7576000806100a46104ca565b50505b803590602001918460018302840111640100000000831117156100d2576000806100cf6104ca565b50505b91908080601f01602080910402602001604051908101604052818152929190602084018383808284376000920191909152509295505050903560ff1691506101319050565b61011f61012f565b61012f61012a6102c3565b6103c4565b565b600061013b6102c3565b6001600160a01b03161461018e5760405162461bcd60e51b815260206004820152600d60248201526c496d706c206e6f74207a65726f60981b60448201526064016040518091039061018b6104ca565b50505b61019783610401565b6101a08161048e565b6000825111156102be5760006101b46102c3565b6001600160a01b0316836040518082805190602001908083835b602083106101ed5780518252601f1990920191602091820191016101ce565b6001836020036101000a038019825116818451168082178552505050505050905001915050600060405180830381855a610225610535565b50505050509150503d8060008114610259576040513d603f01601f191681016040523d815291503d6000602084013e61025e565b606091505b50509050806102bc5760405162461bcd60e51b815260206004820152601a60248201527f496d706c656d656e746174696f6e20696e6974206661696c65640000000000006044820152606401604051809103906102b96104ca565b50505b505b505050565b6000807f360894a13ba1a3210667c828492db98dca3e2076cc3735a920a3ca505d382bbc806102f0610622565b91506001600160a01b03821661030b576000925050506103c1565b816001600160a01b031663ecef89d561032261049d565b6040516001600160e01b031960e084901b16815260ff9091166004820152602401602060405180830381868061035661067d565b15801561036b576000806103686104ca565b50505b505a6103756106c9565b5050505050158015610394573d6000803e3d60006103916104ca565b50505b505050506040513d60208110156103b3576000806103b06104ca565b50505b810190808051955050505050505b90565b3660008037600080366000845a6103d9610535565b50505050503d6000803e8080156103ef573d6000f35b3d60006103fa6104ca565b5050505050565b61040a816104b5565b6104635760405162461bcd60e51b815260206004820181905260248201527f43616e6e6f742073657420696d706c656d656e746174696f6e20746f20454f416044820152606401604051809103906104606104ca565b50505b7f360894a13ba1a3210667c828492db98dca3e2076cc3735a920a3ca505d382bbc81816102bc6106da565b600160fc1b81816102bc6106da565b600080600160fc1b806104ae610622565b9250505090565b600080826104c161067d565b15159392505050565b632a2a7adb598160e01b8152600481016020815285602082015260005b868110156105025780860151828201604001526020016104e7565b506020828760640184336000905af158601d01573d60011458600c01573d6000803e3d621234565260ea61109c52505050565b63ffe73914598160e01b8152610568565b80808311156105525750815b92915050565b8080831015610552575090919050565b836004820152846024820152606060448201528660648201526084810160005b888110156105a0578088015182820152602001610588565b506060828960a40184336000905af158601d01573d60011458600c01573d6000803e3d621234565260ea61109c52815160408301513d6000853e8b8b82606087013350600060045af150596105f58d3d610558565b8c016106018187610546565b5b828110156106165760008152602001610602565b50929c50505050505050565b6303daa959598160e01b8152836004820152602081602483336000905af158601d01573d60011458600c01573d6000803e3d621234565260ea61109c528051935060005b60408110156102be57600082820152602001610666565b638435035b598160e01b8152836004820152602081602483336000905af158601d01573d60011458600c01573d6000803e3d621234565260ea61109c5280516000825293506020610666565b638540661f598160e01b8152610568565b6322bd64c0598160e01b8152836004820152846024820152600081604483336000905af158601d01573d60011458600c01573d6000803e3d621234565260ea61109c52600081526020610666564f776e61626c653a206e6577206f776e657220697320746865207a65726f20616464726573734f776e61626c653a2063616c6c6572206973206e6f7420746865206f776e6572436f6e747261637420696e7374616e63652068617320616c7265616479206265656e20696e697469616c697a6564",
  "linkReferences": {},
  "deployedLinkReferences": {}
}