{
  "_format": "hh-sol-artifact-1",
  "contractName": "PoolFactory",
  "sourceName": "contracts/PoolFactory.sol",
  "abi": [
    {
      "anonymous": false,
      "inputs": [
        {
          "indexed": false,
          "internalType": "address",
          "name": "dao",
          "type": "address"
        }
      ],
      "name": "DaoAddressSet",
      "type": "event"
    },
    {
      "anonymous": false,
      "inputs": [
        {
          "indexed": false,
          "internalType": "uint256",
          "name": "numerator",
          "type": "uint256"
        },
        {
          "indexed": false,
          "internalType": "uint256",
          "name": "denominator",
          "type": "uint256"
        }
      ],
      "name": "DaoFeeSet",
      "type": "event"
    },
    {
      "anonymous": false,
      "inputs": [
        {
          "indexed": false,
          "internalType": "uint256",
          "name": "cooldown",
          "type": "uint256"
        }
      ],
      "name": "ExitCooldownSet",
      "type": "event"
    },
    {
      "anonymous": false,
      "inputs": [
        {
          "indexed": false,
          "internalType": "uint256",
          "name": "numerator",
          "type": "uint256"
        },
        {
          "indexed": false,
          "internalType": "uint256",
          "name": "denominator",
          "type": "uint256"
        }
      ],
      "name": "ExitFeeSet",
      "type": "event"
    },
    {
      "anonymous": false,
      "inputs": [
        {
          "indexed": false,
          "internalType": "address",
          "name": "fundAddress",
          "type": "address"
        },
        {
          "indexed": false,
          "internalType": "bool",
          "name": "isPoolPrivate",
          "type": "bool"
        },
        {
          "indexed": false,
          "internalType": "string",
          "name": "fundName",
          "type": "string"
        },
        {
          "indexed": false,
          "internalType": "string",
          "name": "managerName",
          "type": "string"
        },
        {
          "indexed": false,
          "internalType": "address",
          "name": "manager",
          "type": "address"
        },
        {
          "indexed": false,
          "internalType": "uint256",
          "name": "time",
          "type": "uint256"
        },
        {
          "indexed": false,
          "internalType": "uint256",
          "name": "managerFeeNumerator",
          "type": "uint256"
        },
        {
          "indexed": false,
          "internalType": "uint256",
          "name": "managerFeeDenominator",
          "type": "uint256"
        }
      ],
      "name": "FundCreated",
      "type": "event"
    },
    {
      "anonymous": false,
      "inputs": [
        {
          "indexed": true,
          "internalType": "address",
          "name": "manager",
          "type": "address"
        },
        {
          "indexed": true,
          "internalType": "address",
          "name": "pool",
          "type": "address"
        }
      ],
      "name": "LogUpgrade",
      "type": "event"
    },
    {
      "anonymous": false,
      "inputs": [
        {
          "indexed": false,
          "internalType": "uint256",
          "name": "count",
          "type": "uint256"
        }
      ],
      "name": "MaximumSupportedAssetCountSet",
      "type": "event"
    },
    {
      "anonymous": false,
      "inputs": [
        {
          "indexed": true,
          "internalType": "address",
          "name": "previousOwner",
          "type": "address"
        },
        {
          "indexed": true,
          "internalType": "address",
          "name": "newOwner",
          "type": "address"
        }
      ],
      "name": "OwnershipTransferred",
      "type": "event"
    },
    {
      "anonymous": false,
      "inputs": [
        {
          "indexed": false,
          "internalType": "address",
          "name": "proxy",
          "type": "address"
        }
      ],
      "name": "ProxyCreated",
      "type": "event"
    },
    {
      "inputs": [
        {
          "internalType": "bool",
          "name": "_privatePool",
          "type": "bool"
        },
        {
          "internalType": "address",
          "name": "_manager",
          "type": "address"
        },
        {
          "internalType": "string",
          "name": "_managerName",
          "type": "string"
        },
        {
          "internalType": "string",
          "name": "_fundName",
          "type": "string"
        },
        {
          "internalType": "string",
          "name": "_fundSymbol",
          "type": "string"
        },
        {
          "internalType": "uint256",
          "name": "_managerFeeNumerator",
          "type": "uint256"
        },
        {
          "internalType": "address[]",
          "name": "_supportedAssets",
          "type": "address[]"
        }
      ],
      "name": "createFund",
      "outputs": [
        {
          "internalType": "address",
          "name": "",
          "type": "address"
        }
      ],
      "stateMutability": "nonpayable",
      "type": "function"
    },
    {
      "inputs": [
        {
          "internalType": "bytes",
          "name": "_data",
          "type": "bytes"
        },
        {
          "internalType": "uint8",
          "name": "_proxyType",
          "type": "uint8"
        }
      ],
      "name": "deploy",
      "outputs": [
        {
          "internalType": "address",
          "name": "",
          "type": "address"
        }
      ],
      "stateMutability": "nonpayable",
      "type": "function"
    },
    {
      "inputs": [
        {
          "internalType": "uint256",
          "name": "",
          "type": "uint256"
        }
      ],
      "name": "deployedFunds",
      "outputs": [
        {
          "internalType": "address",
          "name": "",
          "type": "address"
        }
      ],
      "stateMutability": "view",
      "type": "function"
    },
    {
      "inputs": [],
      "name": "deployedFundsLength",
      "outputs": [
        {
          "internalType": "uint256",
          "name": "",
          "type": "uint256"
        }
      ],
      "stateMutability": "view",
      "type": "function"
    },
    {
      "inputs": [
        {
          "internalType": "address",
          "name": "asset",
          "type": "address"
        }
      ],
      "name": "getAssetPrice",
      "outputs": [
        {
          "internalType": "uint256",
          "name": "",
          "type": "uint256"
        }
      ],
      "stateMutability": "view",
      "type": "function"
    },
    {
      "inputs": [],
      "name": "getDaoAddress",
      "outputs": [
        {
          "internalType": "address",
          "name": "",
          "type": "address"
        }
      ],
      "stateMutability": "view",
      "type": "function"
    },
    {
      "inputs": [],
      "name": "getDaoFee",
      "outputs": [
        {
          "internalType": "uint256",
          "name": "",
          "type": "uint256"
        },
        {
          "internalType": "uint256",
          "name": "",
          "type": "uint256"
        }
      ],
      "stateMutability": "view",
      "type": "function"
    },
    {
      "inputs": [],
      "name": "getExitCooldown",
      "outputs": [
        {
          "internalType": "uint256",
          "name": "",
          "type": "uint256"
        }
      ],
      "stateMutability": "view",
      "type": "function"
    },
    {
      "inputs": [
        {
          "internalType": "address",
          "name": "extContract",
          "type": "address"
        }
      ],
      "name": "getGuard",
      "outputs": [
        {
          "internalType": "address",
          "name": "",
          "type": "address"
        }
      ],
      "stateMutability": "view",
      "type": "function"
    },
    {
      "inputs": [
        {
          "internalType": "uint8",
          "name": "_proxyType",
          "type": "uint8"
        }
      ],
      "name": "getLogic",
      "outputs": [
        {
          "internalType": "address",
          "name": "",
          "type": "address"
        }
      ],
      "stateMutability": "view",
      "type": "function"
    },
    {
      "inputs": [],
      "name": "getManagerFeeNumeratorChangeDelay",
      "outputs": [
        {
          "internalType": "uint256",
          "name": "",
          "type": "uint256"
        }
      ],
      "stateMutability": "view",
      "type": "function"
    },
    {
      "inputs": [],
      "name": "getMaximumManagerFee",
      "outputs": [
        {
          "internalType": "uint256",
          "name": "",
          "type": "uint256"
        },
        {
          "internalType": "uint256",
          "name": "",
          "type": "uint256"
        }
      ],
      "stateMutability": "view",
      "type": "function"
    },
    {
      "inputs": [],
      "name": "getMaximumManagerFeeNumeratorChange",
      "outputs": [
        {
          "internalType": "uint256",
          "name": "",
          "type": "uint256"
        }
      ],
      "stateMutability": "view",
      "type": "function"
    },
    {
      "inputs": [],
      "name": "getMaximumSupportedAssetCount",
      "outputs": [
        {
          "internalType": "uint256",
          "name": "",
          "type": "uint256"
        }
      ],
      "stateMutability": "view",
      "type": "function"
    },
    {
      "inputs": [
        {
          "internalType": "address",
          "name": "pool",
          "type": "address"
        }
      ],
      "name": "getPoolManagerFee",
      "outputs": [
        {
          "internalType": "uint256",
          "name": "",
          "type": "uint256"
        },
        {
          "internalType": "uint256",
          "name": "",
          "type": "uint256"
        }
      ],
      "stateMutability": "view",
      "type": "function"
    },
    {
      "inputs": [],
      "name": "getPriceConsumer",
      "outputs": [
        {
          "internalType": "address",
          "name": "",
          "type": "address"
        }
      ],
      "stateMutability": "view",
      "type": "function"
    },
    {
      "inputs": [],
      "name": "getTrackingCode",
      "outputs": [
        {
          "internalType": "bytes32",
          "name": "",
          "type": "bytes32"
        }
      ],
      "stateMutability": "view",
      "type": "function"
    },
    {
      "inputs": [
        {
          "internalType": "address",
          "name": "_poolLogic",
          "type": "address"
        },
        {
          "internalType": "address",
          "name": "_managerLogic",
          "type": "address"
        },
        {
          "internalType": "address",
          "name": "priceConsumer",
          "type": "address"
        },
        {
          "internalType": "address",
          "name": "daoAddress",
          "type": "address"
        }
      ],
      "name": "initialize",
      "outputs": [],
      "stateMutability": "nonpayable",
      "type": "function"
    },
    {
      "inputs": [
        {
          "internalType": "address",
          "name": "",
          "type": "address"
        }
      ],
      "name": "isPool",
      "outputs": [
        {
          "internalType": "bool",
          "name": "",
          "type": "bool"
        }
      ],
      "stateMutability": "view",
      "type": "function"
    },
    {
      "inputs": [
        {
          "internalType": "address",
          "name": "",
          "type": "address"
        }
      ],
      "name": "isPoolManager",
      "outputs": [
        {
          "internalType": "bool",
          "name": "",
          "type": "bool"
        }
      ],
      "stateMutability": "view",
      "type": "function"
    },
    {
      "inputs": [
        {
          "internalType": "address",
          "name": "asset",
          "type": "address"
        }
      ],
      "name": "isValidAsset",
      "outputs": [
        {
          "internalType": "bool",
          "name": "",
          "type": "bool"
        }
      ],
      "stateMutability": "view",
      "type": "function"
    },
    {
      "inputs": [],
      "name": "managerFeeNumeratorChangeDelay",
      "outputs": [
        {
          "internalType": "uint256",
          "name": "",
          "type": "uint256"
        }
      ],
      "stateMutability": "view",
      "type": "function"
    },
    {
      "inputs": [],
      "name": "maximumManagerFeeNumeratorChange",
      "outputs": [
        {
          "internalType": "uint256",
          "name": "",
          "type": "uint256"
        }
      ],
      "stateMutability": "view",
      "type": "function"
    },
    {
      "inputs": [],
      "name": "owner",
      "outputs": [
        {
          "internalType": "address",
          "name": "",
          "type": "address"
        }
      ],
      "stateMutability": "view",
      "type": "function"
    },
    {
      "inputs": [
        {
          "internalType": "address",
          "name": "",
          "type": "address"
        }
      ],
      "name": "poolManagerFeeDenominator",
      "outputs": [
        {
          "internalType": "uint256",
          "name": "",
          "type": "uint256"
        }
      ],
      "stateMutability": "view",
      "type": "function"
    },
    {
      "inputs": [
        {
          "internalType": "address",
          "name": "",
          "type": "address"
        }
      ],
      "name": "poolManagerFeeNumerator",
      "outputs": [
        {
          "internalType": "uint256",
          "name": "",
          "type": "uint256"
        }
      ],
      "stateMutability": "view",
      "type": "function"
    },
    {
      "inputs": [],
      "name": "poolStorageVersion",
      "outputs": [
        {
          "internalType": "uint256",
          "name": "",
          "type": "uint256"
        }
      ],
      "stateMutability": "view",
      "type": "function"
    },
    {
      "inputs": [
        {
          "internalType": "address",
          "name": "",
          "type": "address"
        }
      ],
      "name": "poolVersion",
      "outputs": [
        {
          "internalType": "uint256",
          "name": "",
          "type": "uint256"
        }
      ],
      "stateMutability": "view",
      "type": "function"
    },
    {
      "inputs": [],
      "name": "renounceOwnership",
      "outputs": [],
      "stateMutability": "nonpayable",
      "type": "function"
    },
    {
      "inputs": [
        {
          "internalType": "address",
          "name": "daoAddress",
          "type": "address"
        }
      ],
      "name": "setDaoAddress",
      "outputs": [],
      "stateMutability": "nonpayable",
      "type": "function"
    },
    {
      "inputs": [
        {
          "internalType": "uint256",
          "name": "numerator",
          "type": "uint256"
        },
        {
          "internalType": "uint256",
          "name": "denominator",
          "type": "uint256"
        }
      ],
      "name": "setDaoFee",
      "outputs": [],
      "stateMutability": "nonpayable",
      "type": "function"
    },
    {
      "inputs": [
        {
          "internalType": "uint256",
          "name": "cooldown",
          "type": "uint256"
        }
      ],
      "name": "setExitCooldown",
      "outputs": [],
      "stateMutability": "nonpayable",
      "type": "function"
    },
    {
      "inputs": [
        {
          "internalType": "address",
          "name": "extContract",
          "type": "address"
        },
        {
          "internalType": "address",
          "name": "guardAddress",
          "type": "address"
        }
      ],
      "name": "setGuard",
      "outputs": [],
      "stateMutability": "nonpayable",
      "type": "function"
    },
    {
      "inputs": [
        {
          "internalType": "address",
          "name": "_poolLogic",
          "type": "address"
        },
        {
          "internalType": "address",
          "name": "_poolManagerLogic",
          "type": "address"
        }
      ],
      "name": "setLogic",
      "outputs": [],
      "stateMutability": "nonpayable",
      "type": "function"
    },
    {
      "inputs": [
        {
          "internalType": "uint256",
          "name": "delay",
          "type": "uint256"
        }
      ],
      "name": "setManagerFeeNumeratorChangeDelay",
      "outputs": [],
      "stateMutability": "nonpayable",
      "type": "function"
    },
    {
      "inputs": [
        {
          "internalType": "uint256",
          "name": "amount",
          "type": "uint256"
        }
      ],
      "name": "setMaximumManagerFeeNumeratorChange",
      "outputs": [],
      "stateMutability": "nonpayable",
      "type": "function"
    },
    {
      "inputs": [
        {
          "internalType": "uint256",
          "name": "count",
          "type": "uint256"
        }
      ],
      "name": "setMaximumSupportedAssetCount",
      "outputs": [],
      "stateMutability": "nonpayable",
      "type": "function"
    },
    {
      "inputs": [
        {
          "internalType": "address",
          "name": "pool",
          "type": "address"
        },
        {
          "internalType": "uint256",
          "name": "numerator",
          "type": "uint256"
        }
      ],
      "name": "setPoolManagerFeeNumerator",
      "outputs": [],
      "stateMutability": "nonpayable",
      "type": "function"
    },
    {
      "inputs": [
        {
          "internalType": "address",
          "name": "priceConsumer",
          "type": "address"
        }
      ],
      "name": "setPriceConsumer",
      "outputs": [],
      "stateMutability": "nonpayable",
      "type": "function"
    },
    {
      "inputs": [
        {
          "internalType": "bytes32",
          "name": "code",
          "type": "bytes32"
        }
      ],
      "name": "setTrackingCode",
      "outputs": [],
      "stateMutability": "nonpayable",
      "type": "function"
    },
    {
      "inputs": [
        {
          "internalType": "address",
          "name": "newOwner",
          "type": "address"
        }
      ],
      "name": "transferOwnership",
      "outputs": [],
      "stateMutability": "nonpayable",
      "type": "function"
    },
    {
      "inputs": [
        {
          "internalType": "uint256",
          "name": "startIndex",
          "type": "uint256"
        },
        {
          "internalType": "uint256",
          "name": "endIndex",
          "type": "uint256"
        },
        {
          "internalType": "uint256",
          "name": "sourceVersion",
          "type": "uint256"
        },
        {
          "internalType": "uint256",
          "name": "targetVersion",
          "type": "uint256"
        },
        {
          "internalType": "bytes",
          "name": "data",
          "type": "bytes"
        }
      ],
      "name": "upgradePoolBatch",
      "outputs": [],
      "stateMutability": "nonpayable",
      "type": "function"
    }
  ],
  "bytecode": "0x608060405234801561001057600080fd5b506127ac806100206000396000f3fe608060405234801561001057600080fd5b506004361061025e5760003560e01c806394d0d23b11610146578063bee37e52116100c3578063e99c0fa611610087578063e99c0fa61461096f578063ebee461d1461098c578063ecef89d514610994578063eec16c44146109b4578063f2fde38b146109d1578063f8c8765e146109f75761025e565b8063bee37e52146108ed578063bfeaf71d14610913578063cc435bf31461091b578063ce26e9ef14610941578063e60eb412146109495761025e565b8063aa7d664e1161010a578063aa7d664e14610841578063b193a5f41461085e578063b3596f0714610884578063b7a54526146108aa578063bcb01f44146108d05761025e565b806394d0d23b146107cd5780639a068bd6146107ee5780639a3cac6a1461080b5780639cada6e414610831578063aa12ae4d146108395761025e565b806345812ca5116101df5780637027ea6c116101a35780637027ea6c14610720578063715018a614610746578063771d1baf1461074e578063808ae5fb1461077157806386e76f731461079f5780638da5cb5b146107c55761025e565b806345812ca51461060757806349f7c02d146106b05780635556ee55146106b85780635b16ebb7146106de5780635c9bfc2b146107185761025e565b80631e666d13116102265780631e666d13146102df5780631e8e8bca14610365578063227773ee14610382578063391d348b146103b05780634501b088146105ff5761025e565b8063046b72c4146102635780630bf99bd9146102915780630f6559c4146102ab57806310bf69dc146102b35780631d68702d146102bb575b600080fd5b61028f6004803603604081101561027957600080fd5b506001600160a01b038135169060200135610a35565b005b610299610b86565b60408051918252519081900360200190f35b610299610b8c565b610299610b92565b6102c3610b98565b604080516001600160a01b039092168252519081900360200190f35b61028f600480360360a08110156102f557600080fd5b81359160208101359160408201359160608101359181019060a081016080820135600160201b81111561032757600080fd5b82018360208201111561033957600080fd5b803590602001918460018302840111600160201b8311171561035a57600080fd5b509092509050610ba7565b61028f6004803603602081101561037b57600080fd5b5035610cca565b61028f6004803603604081101561039857600080fd5b506001600160a01b0381358116916020013516610d2e565b6102c3600480360360e08110156103c657600080fd5b81351515916001600160a01b0360208201351691810190606081016040820135600160201b8111156103f757600080fd5b82018360208201111561040957600080fd5b803590602001918460018302840111600160201b8311171561042a57600080fd5b91908080601f0160208091040260200160405190810160405280939291908181526020018383808284376000920191909152509295949360208101935035915050600160201b81111561047c57600080fd5b82018360208201111561048e57600080fd5b803590602001918460018302840111600160201b831117156104af57600080fd5b91908080601f0160208091040260200160405190810160405280939291908181526020018383808284376000920191909152509295949360208101935035915050600160201b81111561050157600080fd5b82018360208201111561051357600080fd5b803590602001918460018302840111600160201b8311171561053457600080fd5b91908080601f01602080910402602001604051908101604052809392919081815260200183838082843760009201919091525092958435959094909350604081019250602001359050600160201b81111561058e57600080fd5b8201836020820111156105a057600080fd5b803590602001918460208302840111600160201b831117156105c157600080fd5b919080806020026020016040519081016040528093929190818152602001838360200280828437600092019190915250929550610d82945050505050565b6102996111e4565b6102c36004803603604081101561061d57600080fd5b810190602081018135600160201b81111561063757600080fd5b82018360208201111561064957600080fd5b803590602001918460018302840111600160201b8311171561066a57600080fd5b91908080601f0160208091040260200160405190810160405280939291908181526020018383808284376000920191909152509295505050903560ff1691506111ea9050565b6102996111fd565b610299600480360360208110156106ce57600080fd5b50356001600160a01b0316611203565b610704600480360360208110156106f457600080fd5b50356001600160a01b0316611215565b604080519115158252519081900360200190f35b61029961122a565b6102c36004803603602081101561073657600080fd5b50356001600160a01b0316611230565b61028f611251565b61028f6004803603604081101561076457600080fd5b50803590602001356112f3565b61028f6004803603604081101561078757600080fd5b506001600160a01b0381358116916020013516611355565b61028f600480360360208110156107b557600080fd5b50356001600160a01b03166113db565b6102c361143c565b6107d561144b565b6040805192835260208301919091528051918290030190f35b6102c36004803603602081101561080457600080fd5b5035611455565b61028f6004803603602081101561082157600080fd5b50356001600160a01b031661147c565b6107d56114dd565b6102996114e7565b61028f6004803603602081101561085757600080fd5b50356114ed565b6107046004803603602081101561087457600080fd5b50356001600160a01b031661154e565b6102996004803603602081101561089a57600080fd5b50356001600160a01b0316611563565b6107d5600480360360208110156108c057600080fd5b50356001600160a01b03166115e6565b61028f600480360360208110156108e657600080fd5b5035611684565b6102996004803603602081101561090357600080fd5b50356001600160a01b03166116e1565b6102996116f3565b6107046004803603602081101561093157600080fd5b50356001600160a01b03166116f9565b6102c3611785565b6102996004803603602081101561095f57600080fd5b50356001600160a01b0316611794565b61028f6004803603602081101561098557600080fd5b50356117a6565b610299611803565b6102c3600480360360208110156109aa57600080fd5b503560ff16611809565b61028f600480360360208110156109ca57600080fd5b503561183b565b61028f600480360360208110156109e757600080fd5b50356001600160a01b031661189c565b61028f60048036036080811015610a0d57600080fd5b506001600160a01b038135811691602081013582169160408201358116916060013516611995565b33600090815260d1602052604090205460ff161515600114610a93576040805162461bcd60e51b81526020600482015260126024820152712737ba1030903837b7b61036b0b730b3b2b960711b604482015290519081900360640190fd5b6001600160a01b038216600090815260d0602052604090205460ff161515600114610b05576040805162461bcd60e51b815260206004820152601e60248201527f737570706c6965642061646472657373206973206e6f74206120706f6f6c0000604482015290519081900360640190fd5b60db546001600160a01b038316600090815260d46020526040902054610b2a91611ab0565b811115610b75576040805162461bcd60e51b81526020600482015260146024820152730dac2dcc2cecae440cccaca40e8dede40d0d2ced60631b604482015290519081900360640190fd5b610b82828260d354611b0a565b5050565b60cb5490565b60da5481565b60db5481565b60cc546001600160a01b031690565b610baf611b88565b6065546001600160a01b03908116911614610bff576040805162461bcd60e51b81526020600482018190526024820152600080516020612729833981519152604482015290519081900360640190fd5b848611158015610c10575060cb5486105b8015610c1d575060cb5485105b610c5f576040805162461bcd60e51b815260206004820152600e60248201526d696e76616c696420626f756e647360901b604482015290519081900360640190fd5b855b858111610cc157600060cb8281548110610c7757fe5b60009182526020808320909101546001600160a01b031680835260d99091526040909120549091508614610cab5750610cb9565b610cb781858588611b8c565b505b600101610c61565b50505050505050565b610cd2611b88565b6065546001600160a01b03908116911614610d22576040805162461bcd60e51b81526020600482018190526024820152600080516020612729833981519152604482015290519081900360640190fd5b610d2b81611cd4565b50565b60cc546001600160a01b03163314610d78576040805162461bcd60e51b81526020600482015260086024820152676f6e6c792064616f60c01b604482015290519081900360640190fd5b610b828282611cd9565b600060603088888560405160240180856001600160a01b03168152602001846001600160a01b031681526020018060200180602001838103835285818151815260200191508051906020019080838360005b83811015610dec578181015183820152602001610dd4565b50505050905090810190601f168015610e195780820380516001836020036101000a031916815260200191505b508381038252845181528451602091820191808701910280838360005b83811015610e4e578181015183820152602001610e36565b5050505090500196505050505050506040516020818303038152906040526331a22a9960e21b6001600160e01b0319166020820180516001600160e01b03838183161783525050505090506000610ea68260016111ea565b90506060308b89898560405160240180866001600160a01b0316815260200185151581526020018060200180602001846001600160a01b03168152602001838103835286818151815260200191508051906020019080838360005b83811015610f19578181015183820152602001610f01565b50505050905090810190601f168015610f465780820380516001836020036101000a031916815260200191505b50838103825285518152855160209182019187019080838360005b83811015610f79578181015183820152602001610f61565b50505050905090810190601f168015610fa65780820380516001836020036101000a031916815260200191505b5060408051601f198184030181529190526020810180516001600160e01b0316630ccb30c760e01b179052985060009750610fed9650889550600294506111ea9350505050565b60cb805460018082019092557fa7ce836d032b2bf62b7e2097a8e0a6d8aeb35405ad15271e96d3b0188a1d06fb0180546001600160a01b0319166001600160a01b03848116918217909255600081815260d060209081526040808320805460ff199081168817909155948a16835260d18252808320805490951690951790935560da5491815260d99092529190205560d35490915061108f9082908990611b0a565b7f73a0638fe578fc759744633aa170a433061ca2cc1bb855d116c506e04a29901f818d8b8d8f428d60d35460405180896001600160a01b0316815260200188151581526020018060200180602001876001600160a01b03168152602001868152602001858152602001848152602001838103835289818151815260200191508051906020019080838360005b8381101561113357818101518382015260200161111b565b50505050905090810190601f1680156111605780820380516001836020036101000a031916815260200191505b5083810382528851815288516020918201918a019080838360005b8381101561119357818101518382015260200161117b565b50505050905090810190601f1680156111c05780820380516001836020036101000a031916815260200191505b509a505050505050505050505060405180910390a19b9a5050505050505050505050565b60d65490565b60006111f68383611d07565b9392505050565b60d85490565b60d96020526000908152604090205481565b60d06020526000908152604090205460ff1681565b60db5490565b6001600160a01b03808216600090815260dd6020526040902054165b919050565b611259611b88565b6065546001600160a01b039081169116146112a9576040805162461bcd60e51b81526020600482018190526024820152600080516020612729833981519152604482015290519081900360640190fd5b6065546040516000916001600160a01b0316907f8be0079c531659141344cd1fd0a4f28419497f9722a3daafe3b4186f6b6457e0908390a3606580546001600160a01b0319169055565b6112fb611b88565b6065546001600160a01b0390811691161461134b576040805162461bcd60e51b81526020600482018190526024820152600080516020612729833981519152604482015290519081900360640190fd5b610b828282611e35565b61135d611b88565b6065546001600160a01b039081169116146113ad576040805162461bcd60e51b81526020600482018190526024820152600080516020612729833981519152604482015290519081900360640190fd5b609780546001600160a01b039384166001600160a01b03199182161790915560988054929093169116179055565b6113e3611b88565b6065546001600160a01b03908116911614611433576040805162461bcd60e51b81526020600482018190526024820152600080516020612729833981519152604482015290519081900360640190fd5b610d2b81611ec6565b6065546001600160a01b031690565b60d25460d3549091565b60cb818154811061146257fe5b6000918252602090912001546001600160a01b0316905081565b611484611b88565b6065546001600160a01b039081169116146114d4576040805162461bcd60e51b81526020600482018190526024820152600080516020612729833981519152604482015290519081900360640190fd5b610d2b81611ee8565b60ce5460cf549091565b60d75490565b6114f5611b88565b6065546001600160a01b03908116911614611545576040805162461bcd60e51b81526020600482018190526024820152600080516020612729833981519152604482015290519081900360640190fd5b610d2b81611f3c565b60d16020526000908152604090205460ff1681565b60cd5460408051638b2f0f4f60e01b81526001600160a01b03848116600483015291516000939290921691638b2f0f4f91602480820192602092909190829003018186803b1580156115b457600080fd5b505afa1580156115c8573d6000803e3d6000fd5b505050506040513d60208110156115de57600080fd5b505192915050565b6001600160a01b038116600090815260d06020526040812054819060ff16151560011461165a576040805162461bcd60e51b815260206004820152601e60248201527f737570706c6965642061646472657373206973206e6f74206120706f6f6c0000604482015290519081900360640190fd5b50506001600160a01b0316600090815260d4602090815260408083205460d5909252909120549091565b61168c611b88565b6065546001600160a01b039081169116146116dc576040805162461bcd60e51b81526020600482018190526024820152600080516020612729833981519152604482015290519081900360640190fd5b60dc55565b60d46020526000908152604090205481565b60dc5481565b60cd54604080516314d216ab60e11b81526001600160a01b0384811660048301529151600093849316916329a42d56916024808301926020929190829003018186803b15801561174857600080fd5b505afa15801561175c573d6000803e3d6000fd5b505050506040513d602081101561177257600080fd5b50516001600160a01b0316141592915050565b60cd546001600160a01b031690565b60d56020526000908152604090205481565b6117ae611b88565b6065546001600160a01b039081169116146117fe576040805162461bcd60e51b81526020600482018190526024820152600080516020612729833981519152604482015290519081900360640190fd5b60db55565b60dc5490565b60008160ff166001141561182957506098546001600160a01b031661124c565b506097546001600160a01b031661124c565b611843611b88565b6065546001600160a01b03908116911614611893576040805162461bcd60e51b81526020600482018190526024820152600080516020612729833981519152604482015290519081900360640190fd5b610d2b81611f77565b6118a4611b88565b6065546001600160a01b039081169116146118f4576040805162461bcd60e51b81526020600482018190526024820152600080516020612729833981519152604482015290519081900360640190fd5b6001600160a01b0381166119395760405162461bcd60e51b81526004018080602001828103825260268152602001806127036026913960400191505060405180910390fd5b6065546040516001600160a01b038084169216907f8be0079c531659141344cd1fd0a4f28419497f9722a3daafe3b4186f6b6457e090600090a3606580546001600160a01b0319166001600160a01b0392909216919091179055565b600054610100900460ff16806119ae57506119ae611fb2565b806119bc575060005460ff16155b6119f75760405162461bcd60e51b815260040180806020018281038252602e815260200180612749602e913960400191505060405180910390fd5b600054610100900460ff16158015611a22576000805460ff1961ff0019909116610100171660011790555b611a2c8585611fb8565b611a3583611ec6565b611a3e82611ee8565b611a4c611388612710611fc0565b611a58600a6064611e35565b611a6462015180611f3c565b611a706224ea00611684565b611a7b6103e86117a6565b611a85600a611f77565b611a976544484544474560d01b611cd4565b8015611aa9576000805461ff00191690555b5050505050565b6000828201838110156111f6576040805162461bcd60e51b815260206004820152601b60248201527f536166654d6174683a206164646974696f6e206f766572666c6f770000000000604482015290519081900360640190fd5b808211158015611b1c575060d2548211155b611b60576040805162461bcd60e51b815260206004820152601060248201526f34b73b30b634b210333930b1ba34b7b760811b604482015290519081900360640190fd5b6001600160a01b03909216600090815260d4602090815260408083209390935560d590522055565b3390565b6001600160a01b038416611bd8576040805162461bcd60e51b815260206004820152600e60248201526d1d185c99d95d0b5a5b9d985b1a5960921b604482015290519081900360640190fd5b81611c19576040805162461bcd60e51b815260206004820152600c60248201526b19185d184b5a5b9d985b1a5960a21b604482015290519081900360640190fd5b606083838080601f016020809104026020016040519081016040528093929190818152602001838380828437600092018290525084519495509384935091505060208401885af4801560018114611c6f57611c7a565b3d806000803e806000fd5b50506040516001600160a01b0386169033907f78a9b536049c39a00adaf57016b1376c99dd48a0faf2cef23690232f21ce42cc90600090a3506001600160a01b03909316600090815260d960205260409020929092555050565b60d855565b6001600160a01b03918216600090815260dd6020526040902080546001600160a01b03191691909216179055565b600080611d12612013565b604080516001600160a01b038316815290519192507efffc2da0b561cae30d9826d37709e9421c4725faebc226cbbb7ef5fc5e7349919081900360200190a1806001600160a01b031663e74a474a3086866040518463ffffffff1660e01b815260040180846001600160a01b03168152602001806020018360ff168152602001828103825284818151815260200191508051906020019080838360005b83811015611dc7578181015183820152602001611daf565b50505050905090810190601f168015611df45780820380516001836020036101000a031916815260200191505b50945050505050600060405180830381600087803b158015611e1557600080fd5b505af1158015611e29573d6000803e3d6000fd5b50929695505050505050565b80821115611e7d576040805162461bcd60e51b815260206004820152601060248201526f34b73b30b634b210333930b1ba34b7b760811b604482015290519081900360640190fd5b60ce82905560cf819055604080518381526020810183905281517fb10da2958bf5ec1bff3164ff753a09e0460ed44d3abf73e79b817b500ed0f2f1929181900390910190a15050565b60cd80546001600160a01b0319166001600160a01b0392909216919091179055565b60cc80546001600160a01b0383166001600160a01b0319909116811790915560408051918252517ff1034ad6b4d45dc33a4142b9c51c2b7f89bf4a410696e426cc0f3224869e0aca9181900360200190a150565b60d68190556040805182815290517f20d916c976f3971e8200089411b0b712ef4612d98380b8ad2e3d8a8a376d85c79181900360200190a150565b60d78190556040805182815290517f0cd8fcb5e08d7632af461f0ad793e5c63dc0d7595c301f5880650175e37a87489181900360200190a150565b303b1590565b6113ad61205a565b80821115612008576040805162461bcd60e51b815260206004820152601060248201526f34b73b30b634b210333930b1ba34b7b760811b604482015290519081900360640190fd5b60d29190915560d355565b600080606060405180602001612028906122a4565b6020820181038252601f19601f8201166040525090508051602082016000f09150813b61205457600080fd5b50905090565b600054610100900460ff16806120735750612073611fb2565b80612081575060005460ff16155b6120bc5760405162461bcd60e51b815260040180806020018281038252602e815260200180612749602e913960400191505060405180910390fd5b600054610100900460ff161580156120e7576000805460ff1961ff0019909116610100171660011790555b6120ef61210b565b6120f76121ab565b8015610d2b576000805461ff001916905550565b600054610100900460ff16806121245750612124611fb2565b80612132575060005460ff16155b61216d5760405162461bcd60e51b815260040180806020018281038252602e815260200180612749602e913960400191505060405180910390fd5b600054610100900460ff161580156120f7576000805460ff1961ff0019909116610100171660011790558015610d2b576000805461ff001916905550565b600054610100900460ff16806121c457506121c4611fb2565b806121d2575060005460ff16155b61220d5760405162461bcd60e51b815260040180806020018281038252602e815260200180612749602e913960400191505060405180910390fd5b600054610100900460ff16158015612238576000805460ff1961ff0019909116610100171660011790555b6000612242611b88565b606580546001600160a01b0319166001600160a01b038316908117909155604051919250906000907f8be0079c531659141344cd1fd0a4f28419497f9722a3daafe3b4186f6b6457e0908290a3508015610d2b576000805461ff001916905550565b610451806122b28339019056fe608060405234801561001057600080fd5b50610431806100206000396000f3fe6080604052600436106100225760003560e01c8063e74a474a1461003957610031565b366100315761002f6100f4565b005b61002f6100f4565b61002f6004803603606081101561004f57600080fd5b6001600160a01b03823516919081019060408101602082013564010000000081111561007a57600080fd5b82018360208201111561008c57600080fd5b803590602001918460018302840111640100000000831117156100ae57600080fd5b91908080601f0160208091040260200160405190810160405280939291908181526020018383808284376000920191909152509295505050903560ff16915061010e9050565b6100fc61010c565b61010c610107610281565b610342565b565b6000610118610281565b6001600160a01b031614610163576040805162461bcd60e51b815260206004820152600d60248201526c496d706c206e6f74207a65726f60981b604482015290519081900360640190fd5b61016c83610366565b610175816103e4565b81511561027c576000610186610281565b6001600160a01b0316836040518082805190602001908083835b602083106101bf5780518252601f1990920191602091820191016101a0565b6001836020036101000a038019825116818451168082178552505050505050905001915050600060405180830381855af49150503d806000811461021f576040519150601f19603f3d011682016040523d82523d6000602084013e610224565b606091505b505090508061027a576040805162461bcd60e51b815260206004820152601a60248201527f496d706c656d656e746174696f6e20696e6974206661696c6564000000000000604482015290519081900360640190fd5b505b505050565b7f360894a13ba1a3210667c828492db98dca3e2076cc3735a920a3ca505d382bbc80546000916001600160a01b0382166102c05760009250505061033f565b816001600160a01b031663ecef89d56102d76103ec565b6040518263ffffffff1660e01b8152600401808260ff16815260200191505060206040518083038186803b15801561030e57600080fd5b505afa158015610322573d6000803e3d6000fd5b505050506040513d602081101561033857600080fd5b5051925050505b90565b3660008037600080366000845af43d6000803e808015610361573d6000f35b3d6000fd5b61036f816103f5565b6103c0576040805162461bcd60e51b815260206004820181905260248201527f43616e6e6f742073657420696d706c656d656e746174696f6e20746f20454f41604482015290519081900360640190fd5b7f360894a13ba1a3210667c828492db98dca3e2076cc3735a920a3ca505d382bbc55565b600160fc1b55565b600160fc1b5490565b3b15159056fea26469706673582212203edeb1d03514e6e92a8a8c7ce24b883b17066854543b30f94278d7683f54284c64736f6c634300060c00334f776e61626c653a206e6577206f776e657220697320746865207a65726f20616464726573734f776e61626c653a2063616c6c6572206973206e6f7420746865206f776e6572436f6e747261637420696e7374616e63652068617320616c7265616479206265656e20696e697469616c697a6564a2646970667358221220486ae321c55bec9d61d8b1e127af1a48a4505f89e37c27550d72c07a49a4440964736f6c634300060c0033",
  "linkReferences": {},
  "deployedLinkReferences": {}
}