{
  "_format": "hh-sol-artifact-1",
  "contractName": "PoolFactory-ovm",
  "sourceName": "contracts/PoolFactory.sol",
  "abi": [
    {
      "anonymous": false,
      "inputs": [
        {
          "indexed": false,
          "internalType": "address",
          "name": "dao",
          "type": "address"
        }
      ],
      "name": "DaoAddressSet",
      "type": "event"
    },
    {
      "anonymous": false,
      "inputs": [
        {
          "indexed": false,
          "internalType": "uint256",
          "name": "numerator",
          "type": "uint256"
        },
        {
          "indexed": false,
          "internalType": "uint256",
          "name": "denominator",
          "type": "uint256"
        }
      ],
      "name": "DaoFeeSet",
      "type": "event"
    },
    {
      "anonymous": false,
      "inputs": [
        {
          "indexed": false,
          "internalType": "uint256",
          "name": "cooldown",
          "type": "uint256"
        }
      ],
      "name": "ExitCooldownSet",
      "type": "event"
    },
    {
      "anonymous": false,
      "inputs": [
        {
          "indexed": false,
          "internalType": "uint256",
          "name": "numerator",
          "type": "uint256"
        },
        {
          "indexed": false,
          "internalType": "uint256",
          "name": "denominator",
          "type": "uint256"
        }
      ],
      "name": "ExitFeeSet",
      "type": "event"
    },
    {
      "anonymous": false,
      "inputs": [
        {
          "indexed": false,
          "internalType": "address",
          "name": "fundAddress",
          "type": "address"
        },
        {
          "indexed": false,
          "internalType": "bool",
          "name": "isPoolPrivate",
          "type": "bool"
        },
        {
          "indexed": false,
          "internalType": "string",
          "name": "fundName",
          "type": "string"
        },
        {
          "indexed": false,
          "internalType": "string",
          "name": "managerName",
          "type": "string"
        },
        {
          "indexed": false,
          "internalType": "address",
          "name": "manager",
          "type": "address"
        },
        {
          "indexed": false,
          "internalType": "uint256",
          "name": "time",
          "type": "uint256"
        },
        {
          "indexed": false,
          "internalType": "uint256",
          "name": "managerFeeNumerator",
          "type": "uint256"
        },
        {
          "indexed": false,
          "internalType": "uint256",
          "name": "managerFeeDenominator",
          "type": "uint256"
        }
      ],
      "name": "FundCreated",
      "type": "event"
    },
    {
      "anonymous": false,
      "inputs": [
        {
          "indexed": true,
          "internalType": "address",
          "name": "manager",
          "type": "address"
        },
        {
          "indexed": true,
          "internalType": "address",
          "name": "pool",
          "type": "address"
        }
      ],
      "name": "LogUpgrade",
      "type": "event"
    },
    {
      "anonymous": false,
      "inputs": [
        {
          "indexed": false,
          "internalType": "uint256",
          "name": "count",
          "type": "uint256"
        }
      ],
      "name": "MaximumSupportedAssetCountSet",
      "type": "event"
    },
    {
      "anonymous": false,
      "inputs": [
        {
          "indexed": true,
          "internalType": "address",
          "name": "previousOwner",
          "type": "address"
        },
        {
          "indexed": true,
          "internalType": "address",
          "name": "newOwner",
          "type": "address"
        }
      ],
      "name": "OwnershipTransferred",
      "type": "event"
    },
    {
      "anonymous": false,
      "inputs": [
        {
          "indexed": false,
          "internalType": "address",
          "name": "proxy",
          "type": "address"
        }
      ],
      "name": "ProxyCreated",
      "type": "event"
    },
    {
      "inputs": [
        {
          "internalType": "bool",
          "name": "_privatePool",
          "type": "bool"
        },
        {
          "internalType": "address",
          "name": "_manager",
          "type": "address"
        },
        {
          "internalType": "string",
          "name": "_managerName",
          "type": "string"
        },
        {
          "internalType": "string",
          "name": "_fundName",
          "type": "string"
        },
        {
          "internalType": "string",
          "name": "_fundSymbol",
          "type": "string"
        },
        {
          "internalType": "uint256",
          "name": "_managerFeeNumerator",
          "type": "uint256"
        },
        {
          "internalType": "address[]",
          "name": "_supportedAssets",
          "type": "address[]"
        }
      ],
      "name": "createFund",
      "outputs": [
        {
          "internalType": "address",
          "name": "",
          "type": "address"
        }
      ],
      "stateMutability": "nonpayable",
      "type": "function"
    },
    {
      "inputs": [
        {
          "internalType": "bytes",
          "name": "_data",
          "type": "bytes"
        },
        {
          "internalType": "uint8",
          "name": "_proxyType",
          "type": "uint8"
        }
      ],
      "name": "deploy",
      "outputs": [
        {
          "internalType": "address",
          "name": "",
          "type": "address"
        }
      ],
      "stateMutability": "nonpayable",
      "type": "function"
    },
    {
      "inputs": [
        {
          "internalType": "uint256",
          "name": "",
          "type": "uint256"
        }
      ],
      "name": "deployedFunds",
      "outputs": [
        {
          "internalType": "address",
          "name": "",
          "type": "address"
        }
      ],
      "stateMutability": "view",
      "type": "function"
    },
    {
      "inputs": [],
      "name": "deployedFundsLength",
      "outputs": [
        {
          "internalType": "uint256",
          "name": "",
          "type": "uint256"
        }
      ],
      "stateMutability": "view",
      "type": "function"
    },
    {
      "inputs": [
        {
          "internalType": "address",
          "name": "asset",
          "type": "address"
        }
      ],
      "name": "getAssetPrice",
      "outputs": [
        {
          "internalType": "uint256",
          "name": "",
          "type": "uint256"
        }
      ],
      "stateMutability": "view",
      "type": "function"
    },
    {
      "inputs": [],
      "name": "getDaoAddress",
      "outputs": [
        {
          "internalType": "address",
          "name": "",
          "type": "address"
        }
      ],
      "stateMutability": "view",
      "type": "function"
    },
    {
      "inputs": [],
      "name": "getDaoFee",
      "outputs": [
        {
          "internalType": "uint256",
          "name": "",
          "type": "uint256"
        },
        {
          "internalType": "uint256",
          "name": "",
          "type": "uint256"
        }
      ],
      "stateMutability": "view",
      "type": "function"
    },
    {
      "inputs": [],
      "name": "getExitCooldown",
      "outputs": [
        {
          "internalType": "uint256",
          "name": "",
          "type": "uint256"
        }
      ],
      "stateMutability": "view",
      "type": "function"
    },
    {
      "inputs": [
        {
          "internalType": "address",
          "name": "extContract",
          "type": "address"
        }
      ],
      "name": "getGuard",
      "outputs": [
        {
          "internalType": "address",
          "name": "",
          "type": "address"
        }
      ],
      "stateMutability": "view",
      "type": "function"
    },
    {
      "inputs": [
        {
          "internalType": "uint8",
          "name": "_proxyType",
          "type": "uint8"
        }
      ],
      "name": "getLogic",
      "outputs": [
        {
          "internalType": "address",
          "name": "",
          "type": "address"
        }
      ],
      "stateMutability": "view",
      "type": "function"
    },
    {
      "inputs": [],
      "name": "getManagerFeeNumeratorChangeDelay",
      "outputs": [
        {
          "internalType": "uint256",
          "name": "",
          "type": "uint256"
        }
      ],
      "stateMutability": "view",
      "type": "function"
    },
    {
      "inputs": [],
      "name": "getMaximumManagerFee",
      "outputs": [
        {
          "internalType": "uint256",
          "name": "",
          "type": "uint256"
        },
        {
          "internalType": "uint256",
          "name": "",
          "type": "uint256"
        }
      ],
      "stateMutability": "view",
      "type": "function"
    },
    {
      "inputs": [],
      "name": "getMaximumManagerFeeNumeratorChange",
      "outputs": [
        {
          "internalType": "uint256",
          "name": "",
          "type": "uint256"
        }
      ],
      "stateMutability": "view",
      "type": "function"
    },
    {
      "inputs": [],
      "name": "getMaximumSupportedAssetCount",
      "outputs": [
        {
          "internalType": "uint256",
          "name": "",
          "type": "uint256"
        }
      ],
      "stateMutability": "view",
      "type": "function"
    },
    {
      "inputs": [
        {
          "internalType": "address",
          "name": "pool",
          "type": "address"
        }
      ],
      "name": "getPoolManagerFee",
      "outputs": [
        {
          "internalType": "uint256",
          "name": "",
          "type": "uint256"
        },
        {
          "internalType": "uint256",
          "name": "",
          "type": "uint256"
        }
      ],
      "stateMutability": "view",
      "type": "function"
    },
    {
      "inputs": [],
      "name": "getPriceConsumer",
      "outputs": [
        {
          "internalType": "address",
          "name": "",
          "type": "address"
        }
      ],
      "stateMutability": "view",
      "type": "function"
    },
    {
      "inputs": [],
      "name": "getTrackingCode",
      "outputs": [
        {
          "internalType": "bytes32",
          "name": "",
          "type": "bytes32"
        }
      ],
      "stateMutability": "view",
      "type": "function"
    },
    {
      "inputs": [
        {
          "internalType": "address",
          "name": "_poolLogic",
          "type": "address"
        },
        {
          "internalType": "address",
          "name": "_managerLogic",
          "type": "address"
        },
        {
          "internalType": "address",
          "name": "priceConsumer",
          "type": "address"
        },
        {
          "internalType": "address",
          "name": "daoAddress",
          "type": "address"
        }
      ],
      "name": "initialize",
      "outputs": [],
      "stateMutability": "nonpayable",
      "type": "function"
    },
    {
      "inputs": [
        {
          "internalType": "address",
          "name": "",
          "type": "address"
        }
      ],
      "name": "isPool",
      "outputs": [
        {
          "internalType": "bool",
          "name": "",
          "type": "bool"
        }
      ],
      "stateMutability": "view",
      "type": "function"
    },
    {
      "inputs": [
        {
          "internalType": "address",
          "name": "",
          "type": "address"
        }
      ],
      "name": "isPoolManager",
      "outputs": [
        {
          "internalType": "bool",
          "name": "",
          "type": "bool"
        }
      ],
      "stateMutability": "view",
      "type": "function"
    },
    {
      "inputs": [
        {
          "internalType": "address",
          "name": "asset",
          "type": "address"
        }
      ],
      "name": "isValidAsset",
      "outputs": [
        {
          "internalType": "bool",
          "name": "",
          "type": "bool"
        }
      ],
      "stateMutability": "view",
      "type": "function"
    },
    {
      "inputs": [],
      "name": "managerFeeNumeratorChangeDelay",
      "outputs": [
        {
          "internalType": "uint256",
          "name": "",
          "type": "uint256"
        }
      ],
      "stateMutability": "view",
      "type": "function"
    },
    {
      "inputs": [],
      "name": "maximumManagerFeeNumeratorChange",
      "outputs": [
        {
          "internalType": "uint256",
          "name": "",
          "type": "uint256"
        }
      ],
      "stateMutability": "view",
      "type": "function"
    },
    {
      "inputs": [],
      "name": "owner",
      "outputs": [
        {
          "internalType": "address",
          "name": "",
          "type": "address"
        }
      ],
      "stateMutability": "view",
      "type": "function"
    },
    {
      "inputs": [
        {
          "internalType": "address",
          "name": "",
          "type": "address"
        }
      ],
      "name": "poolManagerFeeDenominator",
      "outputs": [
        {
          "internalType": "uint256",
          "name": "",
          "type": "uint256"
        }
      ],
      "stateMutability": "view",
      "type": "function"
    },
    {
      "inputs": [
        {
          "internalType": "address",
          "name": "",
          "type": "address"
        }
      ],
      "name": "poolManagerFeeNumerator",
      "outputs": [
        {
          "internalType": "uint256",
          "name": "",
          "type": "uint256"
        }
      ],
      "stateMutability": "view",
      "type": "function"
    },
    {
      "inputs": [],
      "name": "poolStorageVersion",
      "outputs": [
        {
          "internalType": "uint256",
          "name": "",
          "type": "uint256"
        }
      ],
      "stateMutability": "view",
      "type": "function"
    },
    {
      "inputs": [
        {
          "internalType": "address",
          "name": "",
          "type": "address"
        }
      ],
      "name": "poolVersion",
      "outputs": [
        {
          "internalType": "uint256",
          "name": "",
          "type": "uint256"
        }
      ],
      "stateMutability": "view",
      "type": "function"
    },
    {
      "inputs": [],
      "name": "renounceOwnership",
      "outputs": [],
      "stateMutability": "nonpayable",
      "type": "function"
    },
    {
      "inputs": [
        {
          "internalType": "address",
          "name": "daoAddress",
          "type": "address"
        }
      ],
      "name": "setDaoAddress",
      "outputs": [],
      "stateMutability": "nonpayable",
      "type": "function"
    },
    {
      "inputs": [
        {
          "internalType": "uint256",
          "name": "numerator",
          "type": "uint256"
        },
        {
          "internalType": "uint256",
          "name": "denominator",
          "type": "uint256"
        }
      ],
      "name": "setDaoFee",
      "outputs": [],
      "stateMutability": "nonpayable",
      "type": "function"
    },
    {
      "inputs": [
        {
          "internalType": "uint256",
          "name": "cooldown",
          "type": "uint256"
        }
      ],
      "name": "setExitCooldown",
      "outputs": [],
      "stateMutability": "nonpayable",
      "type": "function"
    },
    {
      "inputs": [
        {
          "internalType": "address",
          "name": "extContract",
          "type": "address"
        },
        {
          "internalType": "address",
          "name": "guardAddress",
          "type": "address"
        }
      ],
      "name": "setGuard",
      "outputs": [],
      "stateMutability": "nonpayable",
      "type": "function"
    },
    {
      "inputs": [
        {
          "internalType": "address",
          "name": "_poolLogic",
          "type": "address"
        },
        {
          "internalType": "address",
          "name": "_poolManagerLogic",
          "type": "address"
        }
      ],
      "name": "setLogic",
      "outputs": [],
      "stateMutability": "nonpayable",
      "type": "function"
    },
    {
      "inputs": [
        {
          "internalType": "uint256",
          "name": "delay",
          "type": "uint256"
        }
      ],
      "name": "setManagerFeeNumeratorChangeDelay",
      "outputs": [],
      "stateMutability": "nonpayable",
      "type": "function"
    },
    {
      "inputs": [
        {
          "internalType": "uint256",
          "name": "amount",
          "type": "uint256"
        }
      ],
      "name": "setMaximumManagerFeeNumeratorChange",
      "outputs": [],
      "stateMutability": "nonpayable",
      "type": "function"
    },
    {
      "inputs": [
        {
          "internalType": "uint256",
          "name": "count",
          "type": "uint256"
        }
      ],
      "name": "setMaximumSupportedAssetCount",
      "outputs": [],
      "stateMutability": "nonpayable",
      "type": "function"
    },
    {
      "inputs": [
        {
          "internalType": "address",
          "name": "pool",
          "type": "address"
        },
        {
          "internalType": "uint256",
          "name": "numerator",
          "type": "uint256"
        }
      ],
      "name": "setPoolManagerFeeNumerator",
      "outputs": [],
      "stateMutability": "nonpayable",
      "type": "function"
    },
    {
      "inputs": [
        {
          "internalType": "address",
          "name": "priceConsumer",
          "type": "address"
        }
      ],
      "name": "setPriceConsumer",
      "outputs": [],
      "stateMutability": "nonpayable",
      "type": "function"
    },
    {
      "inputs": [
        {
          "internalType": "bytes32",
          "name": "code",
          "type": "bytes32"
        }
      ],
      "name": "setTrackingCode",
      "outputs": [],
      "stateMutability": "nonpayable",
      "type": "function"
    },
    {
      "inputs": [
        {
          "internalType": "address",
          "name": "newOwner",
          "type": "address"
        }
      ],
      "name": "transferOwnership",
      "outputs": [],
      "stateMutability": "nonpayable",
      "type": "function"
    },
    {
      "inputs": [
        {
          "internalType": "uint256",
          "name": "startIndex",
          "type": "uint256"
        },
        {
          "internalType": "uint256",
          "name": "endIndex",
          "type": "uint256"
        },
        {
          "internalType": "uint256",
          "name": "sourceVersion",
          "type": "uint256"
        },
        {
          "internalType": "uint256",
          "name": "targetVersion",
          "type": "uint256"
        },
        {
          "internalType": "bytes",
          "name": "data",
          "type": "bytes"
        }
      ],
      "name": "upgradePoolBatch",
      "outputs": [],
      "stateMutability": "nonpayable",
      "type": "function"
    }
  ],
  "bytecode": "0x60806040523480156200001c576000806200001962000023565b50505b5062000090565b632a2a7adb598160e01b8152600481016020815285602082015260005b868110156200005d57808601518282016040015260200162000040565b506020828760640184336000905af158600e01573d6000803e3d6000fd5b3d6001141558600a015760016000f35b505050565b613e5980620000a06000396000f3fe60806040523480156200001c5760008062000019620031c6565b50505b5060043610620002a35760003560e01c806394d0d23b1162000170578063bee37e5211620000e0578063e99c0fa6116200009e578063e99c0fa61462000be2578063ebee461d1462000c0d578063ecef89d51462000c17578063eec16c441462000c45578063f2fde38b1462000c70578063f8c8765e1462000ca457620002a3565b8063bee37e521462000b32578063bfeaf71d1462000b66578063cc435bf31462000b70578063ce26e9ef1462000ba4578063e60eb4121462000bae57620002a3565b8063aa7d664e116200012e578063aa7d664e1462000a40578063b193a5f41462000a6b578063b3596f071462000a9f578063b7a545261462000ad3578063bcb01f441462000b0757620002a3565b806394d0d23b14620009ab5780639a068bd614620009cd5780639a3cac6a14620009f85780639cada6e41462000a2c578063aa12ae4d1462000a3657620002a3565b806345812ca511620002185780637027ea6c11620001d65780637027ea6c14620008c2578063715018a614620008f6578063771d1baf1462000900578063808ae5fb146200093157806386e76f73146200096d5780638da5cb5b14620009a157620002a3565b806345812ca5146200075857806349f7c02d14620008325780635556ee55146200083c5780635b16ebb714620008705780635c9bfc2b14620008b857620002a3565b80631e666d1311620002665780631e666d1314620003455780631e8e8bca14620003fd578063227773ee1462000428578063391d348b14620004645780634501b088146200074e57620002a3565b8063046b72c414620002b35780630bf99bd914620002ef5780630f6559c4146200030b57806310bf69dc14620003155780631d68702d146200031f575b600080620002b0620031c6565b50505b620002ed60048036036040811015620002d657600080620002d3620031c6565b50505b506001600160a01b03813516906020013562000cf0565b005b620002f962000ecb565b60405190815260200160405180910390f35b620002f962000ee0565b620002f962000eef565b6200032962000efb565b6040516001600160a01b03909116815260200160405180910390f35b620002ed600480360360a0811015620003685760008062000365620031c6565b50505b81359160208101359160408201359160608101359181019060a081016080820135600160201b811115620003a657600080620003a3620031c6565b50505b820183602082011115620003c457600080620003c1620031c6565b50505b803590602001918460018302840111600160201b83111715620003f157600080620003ee620031c6565b50505b50909250905062000f1f565b620002ed6004803603602081101562000420576000806200041d620031c6565b50505b5035620010c2565b620002ed600480360360408110156200044b5760008062000448620031c6565b50505b506001600160a01b038135811691602001351662001156565b62000329600480360360e0811015620004875760008062000484620031c6565b50505b81351515916001600160a01b0360208201351691810190606081016040820135600160201b811115620004c457600080620004c1620031c6565b50505b820183602082011115620004e257600080620004df620031c6565b50505b803590602001918460018302840111600160201b831117156200050f576000806200050c620031c6565b50505b91908080601f01602080910402602001604051908101604052818152929190602084018383808284376000920191909152509295949360208101935035915050600160201b8111156200056c5760008062000569620031c6565b50505b8201836020820111156200058a5760008062000587620031c6565b50505b803590602001918460018302840111600160201b83111715620005b757600080620005b4620031c6565b50505b91908080601f01602080910402602001604051908101604052818152929190602084018383808284376000920191909152509295949360208101935035915050600160201b811115620006145760008062000611620031c6565b50505b82018360208201111562000632576000806200062f620031c6565b50505b803590602001918460018302840111600160201b831117156200065f576000806200065c620031c6565b50505b91908080601f016020809104026020016040519081016040528181529291906020840183838082843760009201919091525092958435959094909350604081019250602001359050600160201b811115620006c457600080620006c1620031c6565b50505b820183602082011115620006e257600080620006df620031c6565b50505b803590602001918460208302840111600160201b831117156200070f576000806200070c620031c6565b50505b919080806020026020016040519081016040528093929190818152602001838360200280828437600092019190915250929550620011e5945050505050565b620002f9620017ae565b62000329600480360360408110156200077b5760008062000778620031c6565b50505b810190602081018135600160201b811115620007a1576000806200079e620031c6565b50505b820183602082011115620007bf57600080620007bc620031c6565b50505b803590602001918460018302840111600160201b83111715620007ec57600080620007e9620031c6565b50505b91908080601f01602080910402602001604051908101604052818152929190602084018383808284376000920191909152509295505050903560ff169150620017c19050565b620002f9620017d8565b620002f9600480360360208110156200085f576000806200085c620031c6565b50505b50356001600160a01b0316620017e6565b620008a460048036036020811015620008935760008062000890620031c6565b50505b50356001600160a01b031662001800565b604051901515815260200160405180910390f35b620002f962001829565b6200032960048036036020811015620008e557600080620008e2620031c6565b50505b50356001600160a01b031662001837565b620002ed62001874565b620002ed60048036036040811015620009235760008062000920620031c6565b50505b508035906020013562001988565b620002ed60048036036040811015620009545760008062000951620031c6565b50505b506001600160a01b038135811691602001351662001a1a565b620002ed6004803603602081101562000990576000806200098d620031c6565b50505b50356001600160a01b031662001b16565b6200032962001ba7565b620009b562001bb6565b60405191825260208201526040908101905180910390f35b6200032960048036036020811015620009f057600080620009ed620031c6565b50505b503562001bd9565b620002ed6004803603602081101562000a1b5760008062000a18620031c6565b50505b50356001600160a01b031662001c1b565b620009b562001cac565b620002f962001cc7565b620002ed6004803603602081101562000a635760008062000a60620031c6565b50505b503562001cd5565b620008a46004803603602081101562000a8e5760008062000a8b620031c6565b50505b50356001600160a01b031662001d66565b620002f96004803603602081101562000ac25760008062000abf620031c6565b50505b50356001600160a01b031662001d82565b620009b56004803603602081101562000af65760008062000af3620031c6565b50505b50356001600160a01b031662001e63565b620002ed6004803603602081101562000b2a5760008062000b27620031c6565b50505b503562001f43565b620002f96004803603602081101562000b555760008062000b52620031c6565b50505b50356001600160a01b031662001fdd565b620002f962001ff7565b620008a46004803603602081101562000b935760008062000b90620031c6565b50505b50356001600160a01b031662002003565b62000329620020f3565b620002f96004803603602081101562000bd15760008062000bce620031c6565b50505b50356001600160a01b031662002102565b620002ed6004803603602081101562000c055760008062000c02620031c6565b50505b50356200211c565b620002f9620021b0565b620003296004803603602081101562000c3a5760008062000c37620031c6565b50505b503560ff16620021be565b620002ed6004803603602081101562000c685760008062000c65620031c6565b50505b503562002201565b620002ed6004803603602081101562000c935760008062000c90620031c6565b50505b50356001600160a01b031662002292565b620002ed6004803603608081101562000cc75760008062000cc4620031c6565b50505b506001600160a01b038135811691602081013582169160408201358116916060013516620023fb565b60d160005a62000cff62003233565b6001600160a01b03166001600160a01b0316815260200190815260200160002060009062000d2c6200328a565b906101000a900460ff161515600115151462000d8e5760405162461bcd60e51b81526020600482015260126024820152712737ba1030903837b7b61036b0b730b3b2b960711b60448201526064016040518091039062000d8b620031c6565b50505b6001600160a01b038216600090815260d06020526040902060009062000db36200328a565b906101000a900460ff161515600115151462000e205760405162461bcd60e51b815260206004820152601e60248201527f737570706c6965642061646472657373206973206e6f74206120706f6f6c000060448201526064016040518091039062000e1d620031c6565b50505b62000e5960db62000e306200328a565b6001600160a01b038416600090815260d46020526040902062000e526200328a565b90620025cc565b81111562000eaf5760405162461bcd60e51b81526020600482015260146024820152730dac2dcc2cecae440cccaca40e8dede40d0d2ced60631b60448201526064016040518091039062000eac620031c6565b50505b62000ec7828260d362000ec16200328a565b62002637565b5050565b600060cb8062000eda6200328a565b91505090565b60da62000eec6200328a565b81565b60db62000eec6200328a565b60008060cc62000f0a6200328a565b906101000a90046001600160a01b0316905090565b62000f29620026f9565b6001600160a01b03166000606562000f406200328a565b906101000a90046001600160a01b03166001600160a01b03161462000fa55760405162461bcd60e51b8152602060048201819052602482015260008051602062003e0b83398151915260448201526064016040518091039062000fa2620031c6565b50505b84861115801562000fc3575060cb8062000fbe6200328a565b905086105b801562000fdd575060cb8062000fd86200328a565b905085105b6200102a5760405162461bcd60e51b815260206004820152600e60248201526d696e76616c696420626f756e647360901b60448201526064016040518091039062001027620031c6565b50505b855b858111620010b957600060cb8281620010446200328a565b81106200104d57fe5b90600052602060002001600090620010646200328a565b6001600160a01b036101009290920a900416600081815260d9602052909150869060409020620010936200328a565b14620010a05750620010b0565b620010ae8185858862002706565b505b6001016200102c565b50505050505050565b620010cc620026f9565b6001600160a01b031660006065620010e36200328a565b906101000a90046001600160a01b03166001600160a01b031614620011485760405162461bcd60e51b8152602060048201819052602482015260008051602062003e0b83398151915260448201526064016040518091039062001145620031c6565b50505b620011538162002896565b50565b600060cc620011646200328a565b906101000a90046001600160a01b03166001600160a01b03165a6200118862003233565b6001600160a01b031614620011d95760405162461bcd60e51b81526020600482015260086024820152676f6e6c792064616f60c01b604482015260640160405180910390620011d6620031c6565b50505b62000ec78282620028a4565b600060605a63996d79a5598160e01b8152602081600483336000905af158600e01573d6000803e3d6000fd5b3d6001141558600a015760016000f35b8051925060005b6040811015620012415760008282015260200162001228565b50505088888560405160240180856001600160a01b03168152602001846001600160a01b031681526020018060200180602001838103835285818151815260200191508051906020019080838360005b83811015620012ab57808201518382015260200162001291565b50505050905090810190601f168015620012d95780820380516001836020036101000a031916815260200191505b50838103825284818151815260200191508051906020019060200280838360005b8381101562001314578082015183820152602001620012fa565b505050509050019650505050505050604051601f198183030181526040919091526331a22a9960e21b6020820180516001600160e01b031690911790529050600062001362826001620017c1565b905060605a63996d79a5598160e01b8152602081600483336000905af158600e01573d6000803e3d6000fd5b3d6001141558600a015760016000f35b8051925060005b6040811015620013be57600082820152602001620013a5565b5050508b89898560405160240180866001600160a01b0316815260200185151581526020018060200180602001846001600160a01b03168152602001838103835286818151815260200191508051906020019080838360005b838110156200143157808201518382015260200162001417565b50505050905090810190601f1680156200145f5780820380516001836020036101000a031916815260200191505b50838103825285818151815260200191508051906020019080838360005b83811015620014975780820151838201526020016200147d565b50505050905090810190601f168015620014c55780820380516001836020036101000a031916815260200191505b50975050505050505050604051601f19818303018152604091909152630ccb30c760e01b6020820180516001600160e01b03169091179052905060006200150e826002620017c1565b90508060cb80600181620015216200328a565b0180826200152e620032d7565b5050600092835260001901916020915020016001816200154d6200328a565b816001600160a01b0302191690836001600160a01b031602179062001571620032d7565b5050506001600160a01b038116600090815260d0602052600190604090206001816200159c6200328a565b8160ff02191690831515021790620015b3620032d7565b5050506001600160a01b038316600090815260d160205260019060409020600181620015de6200328a565b8160ff02191690831515021790620015f5620032d7565b50505060da620016046200328a565b6001600160a01b038216600090815260d960205260409020819062001628620032d7565b5050506200163d818860d362000ec16200328a565b7f73a0638fe578fc759744633aa170a433061ca2cc1bb855d116c506e04a29901f818d8b8d8f5a6200166e62003326565b8d60d36200167b6200328a565b60405180896001600160a01b0316815260200188151581526020018060200180602001876001600160a01b03168152602001868152602001858152602001848152602001838103835289818151815260200191508051906020019080838360005b83811015620016f6578082015183820152602001620016dc565b50505050905090810190601f168015620017245780820380516001836020036101000a031916815260200191505b50838103825288818151815260200191508051906020019080838360005b838110156200175c57808201518382015260200162001742565b50505050905090810190601f1680156200178a5780820380516001836020036101000a031916815260200191505b509a505050505050505050505060405180910390a19b9a5050505050505050505050565b600060d6620017bc6200328a565b905090565b6000620017cf8383620028cb565b90505b92915050565b600060d8620017bc6200328a565b60d9602052806000526040600020905062000eec6200328a565b60d0602052806000526040600020600091506200181c6200328a565b906101000a900460ff1681565b600060db620017bc6200328a565b6001600160a01b038116600090815260dd602052604081206000906200185c6200328a565b906101000a90046001600160a01b031690505b919050565b6200187e620026f9565b6001600160a01b031660006065620018956200328a565b906101000a90046001600160a01b03166001600160a01b031614620018fa5760405162461bcd60e51b8152602060048201819052602482015260008051602062003e0b833981519152604482015260640160405180910390620018f7620031c6565b50505b6000806065620019096200328a565b906101000a90046001600160a01b03166001600160a01b03167f8be0079c531659141344cd1fd0a4f28419497f9722a3daafe3b4186f6b6457e060405160405180910390a3600060656001816200195f6200328a565b816001600160a01b0302191690836001600160a01b031602179062001983620032d7565b505050565b62001992620026f9565b6001600160a01b031660006065620019a96200328a565b906101000a90046001600160a01b03166001600160a01b03161462001a0e5760405162461bcd60e51b8152602060048201819052602482015260008051602062003e0b83398151915260448201526064016040518091039062001a0b620031c6565b50505b62000ec7828262002a87565b62001a24620026f9565b6001600160a01b03166000606562001a3b6200328a565b906101000a90046001600160a01b03166001600160a01b03161462001aa05760405162461bcd60e51b8152602060048201819052602482015260008051602062003e0b83398151915260448201526064016040518091039062001a9d620031c6565b50505b81609760018162001ab06200328a565b816001600160a01b0302191690836001600160a01b031602179062001ad4620032d7565b50505080609860006101000a8162001aeb6200328a565b816001600160a01b0302191690836001600160a01b031602179062001b0f620032d7565b5050505050565b62001b20620026f9565b6001600160a01b03166000606562001b376200328a565b906101000a90046001600160a01b03166001600160a01b03161462001b9c5760405162461bcd60e51b8152602060048201819052602482015260008051602062003e0b83398151915260448201526064016040518091039062001b99620031c6565b50505b620011538162002b3b565b600080606562000f0a6200328a565b60008060d262001bc56200328a565b60d362001bd16200328a565b915091509091565b60cb818162001be76200328a565b811062001bf057fe5b906000526020600020016000915062001c086200328a565b906101000a90046001600160a01b031681565b62001c25620026f9565b6001600160a01b03166000606562001c3c6200328a565b906101000a90046001600160a01b03166001600160a01b03161462001ca15760405162461bcd60e51b8152602060048201819052602482015260008051602062003e0b83398151915260448201526064016040518091039062001c9e620031c6565b50505b620011538162002b4b565b60008060ce62001cbb6200328a565b60cf62001bd16200328a565b600060d7620017bc6200328a565b62001cdf620026f9565b6001600160a01b03166000606562001cf66200328a565b906101000a90046001600160a01b03166001600160a01b03161462001d5b5760405162461bcd60e51b8152602060048201819052602482015260008051602062003e0b83398151915260448201526064016040518091039062001d58620031c6565b50505b620011538162002bc2565b60d1602052806000526040600020600091506200181c6200328a565b60008060cd62001d916200328a565b906101000a90046001600160a01b03166001600160a01b0316638b2f0f4f836040516001600160e01b031960e084901b1681526001600160a01b039091166004820152602401602060405180830381868062001dec6200336d565b15801562001e045760008062001e01620031c6565b50505b505a62001e10620033ba565b505050505015801562001e32573d6000803e3d600062001e2f620031c6565b50505b505050506040513d602081101562001e545760008062001e51620031c6565b50505b81019080805195945050505050565b6001600160a01b038116600090815260d0602052806040812060009062001e896200328a565b906101000a900460ff161515600115151462001ef65760405162461bcd60e51b815260206004820152601e60248201527f737570706c6965642061646472657373206973206e6f74206120706f6f6c000060448201526064016040518091039062001ef3620031c6565b50505b6001600160a01b038316600090815260d46020526040902062001f186200328a565b6001600160a01b038416600090815260d56020526040902062001f3a6200328a565b91509150915091565b62001f4d620026f9565b6001600160a01b03166000606562001f646200328a565b906101000a90046001600160a01b03166001600160a01b03161462001fc95760405162461bcd60e51b8152602060048201819052602482015260008051602062003e0b83398151915260448201526064016040518091039062001fc6620031c6565b50505b808060dc62001fd7620032d7565b50505050565b60d4602052806000526040600020905062000eec6200328a565b60dc62000eec6200328a565b6000808060cd620020136200328a565b906101000a90046001600160a01b03166001600160a01b03166329a42d56846040516001600160e01b031960e084901b1681526001600160a01b03909116600482015260240160206040518083038186806200206e6200336d565b158015620020865760008062002083620031c6565b50505b505a62002092620033ba565b5050505050158015620020b4573d6000803e3d6000620020b1620031c6565b50505b505050506040513d6020811015620020d657600080620020d3620031c6565b50505b8101908080516001600160a01b0316939093141595945050505050565b60008060cd62000f0a6200328a565b60d5602052806000526040600020905062000eec6200328a565b62002126620026f9565b6001600160a01b0316600060656200213d6200328a565b906101000a90046001600160a01b03166001600160a01b031614620021a25760405162461bcd60e51b8152602060048201819052602482015260008051602062003e0b8339815191526044820152606401604051809103906200219f620031c6565b50505b808060db62001fd7620032d7565b600060dc620017bc6200328a565b60008160ff1660011415620021f35760006098620021db6200328a565b906101000a90046001600160a01b031690506200186f565b60006097620021db6200328a565b6200220b620026f9565b6001600160a01b031660006065620022226200328a565b906101000a90046001600160a01b03166001600160a01b031614620022875760405162461bcd60e51b8152602060048201819052602482015260008051602062003e0b83398151915260448201526064016040518091039062002284620031c6565b50505b620011538162002c09565b6200229c620026f9565b6001600160a01b031660006065620022b36200328a565b906101000a90046001600160a01b03166001600160a01b031614620023185760405162461bcd60e51b8152602060048201819052602482015260008051602062003e0b83398151915260448201526064016040518091039062002315620031c6565b50505b6001600160a01b0381166200236a5760405162461bcd60e51b815260040180806020018281038252602681526020018062003de5602691396040019150506040518091039062002367620031c6565b50505b6001600160a01b03811660006065620023826200328a565b906101000a90046001600160a01b03166001600160a01b03167f8be0079c531659141344cd1fd0a4f28419497f9722a3daafe3b4186f6b6457e060405160405180910390a3806065600181620023d76200328a565b816001600160a01b0302191690836001600160a01b031602179062001fd7620032d7565b60016000620024096200328a565b906101000a900460ff16806200242457506200242462002c50565b80620024445750600080620024386200328a565b906101000a900460ff16155b6200248c5760405162461bcd60e51b815260040180806020018281038252602e81526020018062003e2b602e91396040019150506040518091039062002489620031c6565b50505b60006001816200249b6200328a565b906101000a900460ff1615905080156200250a576001600061010081620024c16200328a565b8160ff02191690831515021790620024d8620032d7565b50505060016000806101000a81620024ef6200328a565b8160ff0219169083151502179062002506620032d7565b5050505b62002516858562002cc5565b620025218362002b3b565b6200252c8262002b4b565b6200253c61138861271062002ccf565b6200254a600a606462002a87565b620025586201518062002bc2565b620025666224ea0062001f43565b620025736103e86200211c565b6200257f600a62002c09565b620025936544484544474560d01b62002896565b801562001b0f5760008061010081620025ab6200328a565b8160ff02191690831515021790620025c2620032d7565b5050505050505050565b600082820183811015620017cf5760405162461bcd60e51b815260206004820152601b60248201527f536166654d6174683a206164646974696f6e206f766572666c6f7700000000006044820152606401604051809103906200262e620031c6565b50509392505050565b80821115801562002653575060d26200264f6200328a565b8211155b620026a25760405162461bcd60e51b815260206004820152601060248201526f34b73b30b634b210333930b1ba34b7b760811b6044820152606401604051809103906200269f620031c6565b50505b6001600160a01b038316600090815260d46020528290604090208190620026c8620032d7565b5050506001600160a01b038316600090815260d56020528190604090208190620026f1620032d7565b505050505050565b60005a620017bc62003233565b6001600160a01b0384166200275d5760405162461bcd60e51b815260206004820152600e60248201526d1d185c99d95d0b5a5b9d985b1a5960921b6044820152606401604051809103906200275a620031c6565b50505b81620027a95760405162461bcd60e51b815260206004820152600c60248201526b19185d184b5a5b9d985b1a5960a21b604482015260640160405180910390620027a6620031c6565b50505b606083838080601f01602080910402602001604051908101604052818152929190602084018383808284376000920182905250939450839250849150505160208401885a620027f7620034b0565b50505050508015600181146200280d5762002824565b3d806000803e80600062002820620031c6565b5050505b5050846001600160a01b03165a6200283b62003233565b6001600160a01b03167f78a9b536049c39a00adaf57016b1376c99dd48a0faf2cef23690232f21ce42cc60405160405180910390a36001600160a01b038516600090815260d96020528290604090208190620025c2620032d7565b808060d862001fd7620032d7565b6001600160a01b038216600090815260dd60205281906040902060018162001aeb6200328a565b600080620028d862002d42565b90507efffc2da0b561cae30d9826d37709e9421c4725faebc226cbbb7ef5fc5e7349816040516001600160a01b03909116815260200160405180910390a1806001600160a01b031663e74a474a5a63996d79a5598160e01b8152602081600483336000905af158600e01573d6000803e3d6000fd5b3d6001141558600a015760016000f35b8051925060005b60408110156200297d5760008282015260200162002964565b50505086866040518463ffffffff1660e01b815260040180846001600160a01b03168152602001806020018360ff168152602001828103825284818151815260200191508051906020019080838360005b83811015620029e8578082015183820152602001620029ce565b50505050905090810190601f16801562002a165780820380516001836020036101000a031916815260200191505b509450505050506000604051808303816000878062002a346200336d565b15801562002a4c5760008062002a49620031c6565b50505b505a62002a58620034c2565b50505050505015801562002a7b573d6000803e3d600062002a78620031c6565b50505b50929695505050505050565b8082111562002ada5760405162461bcd60e51b815260206004820152601060248201526f34b73b30b634b210333930b1ba34b7b760811b60448201526064016040518091039062002ad7620031c6565b50505b818060ce62002ae8620032d7565b5050508060cf819062002afa620032d7565b5050507fb10da2958bf5ec1bff3164ff753a09e0460ed44d3abf73e79b817b500ed0f2f1828260405191825260208201526040908101905180910390a15050565b8060cd600181620023d76200328a565b8060cc60018162002b5b6200328a565b816001600160a01b0302191690836001600160a01b031602179062002b7f620032d7565b5050507ff1034ad6b4d45dc33a4142b9c51c2b7f89bf4a410696e426cc0f3224869e0aca816040516001600160a01b03909116815260200160405180910390a150565b808060d662002bd0620032d7565b5050507f20d916c976f3971e8200089411b0b712ef4612d98380b8ad2e3d8a8a376d85c78160405190815260200160405180910390a150565b808060d762002c17620032d7565b5050507f0cd8fcb5e08d7632af461f0ad793e5c63dc0d7595c301f5880650175e37a87488160405190815260200160405180910390a150565b6000805a63996d79a5598160e01b8152602081600483336000905af158600e01573d6000803e3d6000fd5b3d6001141558600a015760016000f35b8051925060005b604081101562002cab5760008282015260200162002c92565b505050905060008162002cbd6200336d565b159250505090565b62001aa062002da9565b8082111562002d225760405162461bcd60e51b815260206004820152601060248201526f34b73b30b634b210333930b1ba34b7b760811b60448201526064016040518091039062002d1f620031c6565b50505b818060d262002d30620032d7565b5050508060d3819062001b0f620032d7565b600080606060405162002d586020820162003590565b601f1982820381018352601f909101166040529050805160208201600062002d7f6200359e565b505091508162002d8e6200336d565b62002da35760008062002da0620031c6565b50505b50905090565b6001600062002db76200328a565b906101000a900460ff168062002dd2575062002dd262002c50565b8062002df2575060008062002de66200328a565b906101000a900460ff16155b62002e3a5760405162461bcd60e51b815260040180806020018281038252602e81526020018062003e2b602e91396040019150506040518091039062002e37620031c6565b50505b600060018162002e496200328a565b906101000a900460ff16159050801562002eb857600160006101008162002e6f6200328a565b8160ff0219169083151502179062002e86620032d7565b50505060016000806101000a8162002e9d6200328a565b8160ff0219169083151502179062002eb4620032d7565b5050505b62002ec262002efb565b62002ecc62003021565b801562001153576000806101008162002ee46200328a565b8160ff0219169083151502179062001fd7620032d7565b6001600062002f096200328a565b906101000a900460ff168062002f24575062002f2462002c50565b8062002f44575060008062002f386200328a565b906101000a900460ff16155b62002f8c5760405162461bcd60e51b815260040180806020018281038252602e81526020018062003e2b602e91396040019150506040518091039062002f89620031c6565b50505b600060018162002f9b6200328a565b906101000a900460ff16159050801562002ecc57600160006101008162002fc16200328a565b8160ff0219169083151502179062002fd8620032d7565b50505060016000806101000a8162002fef6200328a565b8160ff0219169083151502179062003006620032d7565b505050801562001153576000806101008162002ee46200328a565b600160006200302f6200328a565b906101000a900460ff16806200304a57506200304a62002c50565b806200306a57506000806200305e6200328a565b906101000a900460ff16155b620030b25760405162461bcd60e51b815260040180806020018281038252602e81526020018062003e2b602e913960400191505060405180910390620030af620031c6565b50505b6000600181620030c16200328a565b906101000a900460ff16159050801562003130576001600061010081620030e76200328a565b8160ff02191690831515021790620030fe620032d7565b50505060016000806101000a81620031156200328a565b8160ff021916908315150217906200312c620032d7565b5050505b60006200313c620026f9565b90508060656001816200314e6200328a565b816001600160a01b0302191690836001600160a01b031602179062003172620032d7565b5050506001600160a01b03811660007f8be0079c531659141344cd1fd0a4f28419497f9722a3daafe3b4186f6b6457e060405160405180910390a350801562001153576000806101008162002ee46200328a565b632a2a7adb598160e01b8152600481016020815285602082015260005b8681101562003200578086015182820160400152602001620031e3565b506020828760640184336000905af158600e01573d6000803e3d6000fd5b3d6001141558600a015760016000f35b505050565b6373509064598160e01b8152602081600483336000905af158600e01573d6000803e3d6000fd5b3d6001141558600a015760016000f35b8051935060005b6040811015620019835760008282015260200162003271565b6303daa959598160e01b8152836004820152602081602483336000905af158600e01573d6000803e3d6000fd5b3d6001141558600a015760016000f35b8051600082529350602062003271565b6322bd64c0598160e01b8152836004820152846024820152600081604483336000905af158600e01573d6000803e3d6000fd5b3d6001141558600a015760016000f35b60008152602062003271565b63bdbf8c36598160e01b8152602081600483336000905af158600e01573d6000803e3d6000fd5b3d6001141558600a015760016000f35b8051600082529350602062003271565b638435035b598160e01b8152836004820152602081602483336000905af158600e01573d6000803e3d6000fd5b3d6001141558600a015760016000f35b8051600082529350602062003271565b638540661f598160e01b8152620033ee565b8080831115620017d2575090919050565b8080831015620017d2575090919050565b836004820152846024820152606060448201528660648201526084810160005b88811015620034285780880151828201526020016200340e565b506060828960a40184336000905af158600e01573d6000803e3d6000fd5b3d6001141558600a015760016000f35b815160408301513d6000853e8b8b82606087013350600060045af150596200347f8d3d620033dd565b8c016200348d8187620033cc565b5b82811015620034a457600081526020016200348e565b50929c50505050505050565b63ffe73914598160e01b8152620033ee565b6385979f76598160e01b8152836004820152846024820152606060448201528760648201526084810160005b8981101562003508578089015182820152602001620034ee565b506060828a60a40184336000905af158600e01573d6000803e3d6000fd5b3d6001141558600a015760016000f35b815160408301513d6000853e8c8c82606087013350600060045af150596200355f8e3d620033dd565b8d016200356d8187620033cc565b5b828110156200358457600081526020016200356e565b50929d50505050505050565b6107c1806200362483390190565b6314aa2ff7598160e01b8152600481016020815286602082015260005b87811015620035d8578087015182820160400152602001620035bb565b506020828860640184336000905af158600e01573d6000803e3d6000fd5b3d6001141558600a015760016000f35b8151965059825b8181101562001b0f57600081526020016200360d56fe60806040523480156100195760008061001661001f565b50505b5061008a565b632a2a7adb598160e01b8152600481016020815285602082015260005b8681101561005757808601518282016040015260200161003c565b506020828760640184336000905af158600e01573d6000803e3d6000fd5b3d6001141558600a015760016000f35b505050565b610728806100996000396000f3fe6080604052600436106100225760003560e01c8063e74a474a1461003957610031565b366100315761002f610117565b005b61002f610117565b61002f60048036036060811015610058576000806100556104ca565b50505b6001600160a01b03823516919081019060408101602082013564010000000081111561008c576000806100896104ca565b50505b8201836020820111156100a7576000806100a46104ca565b50505b803590602001918460018302840111640100000000831117156100d2576000806100cf6104ca565b50505b91908080601f01602080910402602001604051908101604052818152929190602084018383808284376000920191909152509295505050903560ff1691506101319050565b61011f61012f565b61012f61012a6102c3565b6103c4565b565b600061013b6102c3565b6001600160a01b03161461018e5760405162461bcd60e51b815260206004820152600d60248201526c496d706c206e6f74207a65726f60981b60448201526064016040518091039061018b6104ca565b50505b61019783610401565b6101a08161048e565b6000825111156102be5760006101b46102c3565b6001600160a01b0316836040518082805190602001908083835b602083106101ed5780518252601f1990920191602091820191016101ce565b6001836020036101000a038019825116818451168082178552505050505050905001915050600060405180830381855a610225610535565b50505050509150503d8060008114610259576040513d603f01601f191681016040523d815291503d6000602084013e61025e565b606091505b50509050806102bc5760405162461bcd60e51b815260206004820152601a60248201527f496d706c656d656e746174696f6e20696e6974206661696c65640000000000006044820152606401604051809103906102b96104ca565b50505b505b505050565b6000807f360894a13ba1a3210667c828492db98dca3e2076cc3735a920a3ca505d382bbc806102f0610622565b91506001600160a01b03821661030b576000925050506103c1565b816001600160a01b031663ecef89d561032261049d565b6040516001600160e01b031960e084901b16815260ff9091166004820152602401602060405180830381868061035661067d565b15801561036b576000806103686104ca565b50505b505a6103756106c9565b5050505050158015610394573d6000803e3d60006103916104ca565b50505b505050506040513d60208110156103b3576000806103b06104ca565b50505b810190808051955050505050505b90565b3660008037600080366000845a6103d9610535565b50505050503d6000803e8080156103ef573d6000f35b3d60006103fa6104ca565b5050505050565b61040a816104b5565b6104635760405162461bcd60e51b815260206004820181905260248201527f43616e6e6f742073657420696d706c656d656e746174696f6e20746f20454f416044820152606401604051809103906104606104ca565b50505b7f360894a13ba1a3210667c828492db98dca3e2076cc3735a920a3ca505d382bbc81816102bc6106da565b600160fc1b81816102bc6106da565b600080600160fc1b806104ae610622565b9250505090565b600080826104c161067d565b15159392505050565b632a2a7adb598160e01b8152600481016020815285602082015260005b868110156105025780860151828201604001526020016104e7565b506020828760640184336000905af158600e01573d6000803e3d6000fd5b3d6001141558600a015760016000f35b505050565b63ffe73914598160e01b8152610568565b80808311156105525750815b92915050565b8080831015610552575090919050565b836004820152846024820152606060448201528660648201526084810160005b888110156105a0578088015182820152602001610588565b506060828960a40184336000905af158600e01573d6000803e3d6000fd5b3d6001141558600a015760016000f35b815160408301513d6000853e8b8b82606087013350600060045af150596105f58d3d610558565b8c016106018187610546565b5b828110156106165760008152602001610602565b50929c50505050505050565b6303daa959598160e01b8152836004820152602081602483336000905af158600e01573d6000803e3d6000fd5b3d6001141558600a015760016000f35b8051935060005b60408110156102be57600082820152602001610666565b638435035b598160e01b8152836004820152602081602483336000905af158600e01573d6000803e3d6000fd5b3d6001141558600a015760016000f35b80516000825293506020610666565b638540661f598160e01b8152610568565b6322bd64c0598160e01b8152836004820152846024820152600081604483336000905af158600e01573d6000803e3d6000fd5b3d6001141558600a015760016000f35b600081526020610666564f776e61626c653a206e6577206f776e657220697320746865207a65726f20616464726573734f776e61626c653a2063616c6c6572206973206e6f7420746865206f776e6572436f6e747261637420696e7374616e63652068617320616c7265616479206265656e20696e697469616c697a6564",
  "deployedBytecode": "0x60806040523480156200001c5760008062000019620031c6565b50505b5060043610620002a35760003560e01c806394d0d23b1162000170578063bee37e5211620000e0578063e99c0fa6116200009e578063e99c0fa61462000be2578063ebee461d1462000c0d578063ecef89d51462000c17578063eec16c441462000c45578063f2fde38b1462000c70578063f8c8765e1462000ca457620002a3565b8063bee37e521462000b32578063bfeaf71d1462000b66578063cc435bf31462000b70578063ce26e9ef1462000ba4578063e60eb4121462000bae57620002a3565b8063aa7d664e116200012e578063aa7d664e1462000a40578063b193a5f41462000a6b578063b3596f071462000a9f578063b7a545261462000ad3578063bcb01f441462000b0757620002a3565b806394d0d23b14620009ab5780639a068bd614620009cd5780639a3cac6a14620009f85780639cada6e41462000a2c578063aa12ae4d1462000a3657620002a3565b806345812ca511620002185780637027ea6c11620001d65780637027ea6c14620008c2578063715018a614620008f6578063771d1baf1462000900578063808ae5fb146200093157806386e76f73146200096d5780638da5cb5b14620009a157620002a3565b806345812ca5146200075857806349f7c02d14620008325780635556ee55146200083c5780635b16ebb714620008705780635c9bfc2b14620008b857620002a3565b80631e666d1311620002665780631e666d1314620003455780631e8e8bca14620003fd578063227773ee1462000428578063391d348b14620004645780634501b088146200074e57620002a3565b8063046b72c414620002b35780630bf99bd914620002ef5780630f6559c4146200030b57806310bf69dc14620003155780631d68702d146200031f575b600080620002b0620031c6565b50505b620002ed60048036036040811015620002d657600080620002d3620031c6565b50505b506001600160a01b03813516906020013562000cf0565b005b620002f962000ecb565b60405190815260200160405180910390f35b620002f962000ee0565b620002f962000eef565b6200032962000efb565b6040516001600160a01b03909116815260200160405180910390f35b620002ed600480360360a0811015620003685760008062000365620031c6565b50505b81359160208101359160408201359160608101359181019060a081016080820135600160201b811115620003a657600080620003a3620031c6565b50505b820183602082011115620003c457600080620003c1620031c6565b50505b803590602001918460018302840111600160201b83111715620003f157600080620003ee620031c6565b50505b50909250905062000f1f565b620002ed6004803603602081101562000420576000806200041d620031c6565b50505b5035620010c2565b620002ed600480360360408110156200044b5760008062000448620031c6565b50505b506001600160a01b038135811691602001351662001156565b62000329600480360360e0811015620004875760008062000484620031c6565b50505b81351515916001600160a01b0360208201351691810190606081016040820135600160201b811115620004c457600080620004c1620031c6565b50505b820183602082011115620004e257600080620004df620031c6565b50505b803590602001918460018302840111600160201b831117156200050f576000806200050c620031c6565b50505b91908080601f01602080910402602001604051908101604052818152929190602084018383808284376000920191909152509295949360208101935035915050600160201b8111156200056c5760008062000569620031c6565b50505b8201836020820111156200058a5760008062000587620031c6565b50505b803590602001918460018302840111600160201b83111715620005b757600080620005b4620031c6565b50505b91908080601f01602080910402602001604051908101604052818152929190602084018383808284376000920191909152509295949360208101935035915050600160201b811115620006145760008062000611620031c6565b50505b82018360208201111562000632576000806200062f620031c6565b50505b803590602001918460018302840111600160201b831117156200065f576000806200065c620031c6565b50505b91908080601f016020809104026020016040519081016040528181529291906020840183838082843760009201919091525092958435959094909350604081019250602001359050600160201b811115620006c457600080620006c1620031c6565b50505b820183602082011115620006e257600080620006df620031c6565b50505b803590602001918460208302840111600160201b831117156200070f576000806200070c620031c6565b50505b919080806020026020016040519081016040528093929190818152602001838360200280828437600092019190915250929550620011e5945050505050565b620002f9620017ae565b62000329600480360360408110156200077b5760008062000778620031c6565b50505b810190602081018135600160201b811115620007a1576000806200079e620031c6565b50505b820183602082011115620007bf57600080620007bc620031c6565b50505b803590602001918460018302840111600160201b83111715620007ec57600080620007e9620031c6565b50505b91908080601f01602080910402602001604051908101604052818152929190602084018383808284376000920191909152509295505050903560ff169150620017c19050565b620002f9620017d8565b620002f9600480360360208110156200085f576000806200085c620031c6565b50505b50356001600160a01b0316620017e6565b620008a460048036036020811015620008935760008062000890620031c6565b50505b50356001600160a01b031662001800565b604051901515815260200160405180910390f35b620002f962001829565b6200032960048036036020811015620008e557600080620008e2620031c6565b50505b50356001600160a01b031662001837565b620002ed62001874565b620002ed60048036036040811015620009235760008062000920620031c6565b50505b508035906020013562001988565b620002ed60048036036040811015620009545760008062000951620031c6565b50505b506001600160a01b038135811691602001351662001a1a565b620002ed6004803603602081101562000990576000806200098d620031c6565b50505b50356001600160a01b031662001b16565b6200032962001ba7565b620009b562001bb6565b60405191825260208201526040908101905180910390f35b6200032960048036036020811015620009f057600080620009ed620031c6565b50505b503562001bd9565b620002ed6004803603602081101562000a1b5760008062000a18620031c6565b50505b50356001600160a01b031662001c1b565b620009b562001cac565b620002f962001cc7565b620002ed6004803603602081101562000a635760008062000a60620031c6565b50505b503562001cd5565b620008a46004803603602081101562000a8e5760008062000a8b620031c6565b50505b50356001600160a01b031662001d66565b620002f96004803603602081101562000ac25760008062000abf620031c6565b50505b50356001600160a01b031662001d82565b620009b56004803603602081101562000af65760008062000af3620031c6565b50505b50356001600160a01b031662001e63565b620002ed6004803603602081101562000b2a5760008062000b27620031c6565b50505b503562001f43565b620002f96004803603602081101562000b555760008062000b52620031c6565b50505b50356001600160a01b031662001fdd565b620002f962001ff7565b620008a46004803603602081101562000b935760008062000b90620031c6565b50505b50356001600160a01b031662002003565b62000329620020f3565b620002f96004803603602081101562000bd15760008062000bce620031c6565b50505b50356001600160a01b031662002102565b620002ed6004803603602081101562000c055760008062000c02620031c6565b50505b50356200211c565b620002f9620021b0565b620003296004803603602081101562000c3a5760008062000c37620031c6565b50505b503560ff16620021be565b620002ed6004803603602081101562000c685760008062000c65620031c6565b50505b503562002201565b620002ed6004803603602081101562000c935760008062000c90620031c6565b50505b50356001600160a01b031662002292565b620002ed6004803603608081101562000cc75760008062000cc4620031c6565b50505b506001600160a01b038135811691602081013582169160408201358116916060013516620023fb565b60d160005a62000cff62003233565b6001600160a01b03166001600160a01b0316815260200190815260200160002060009062000d2c6200328a565b906101000a900460ff161515600115151462000d8e5760405162461bcd60e51b81526020600482015260126024820152712737ba1030903837b7b61036b0b730b3b2b960711b60448201526064016040518091039062000d8b620031c6565b50505b6001600160a01b038216600090815260d06020526040902060009062000db36200328a565b906101000a900460ff161515600115151462000e205760405162461bcd60e51b815260206004820152601e60248201527f737570706c6965642061646472657373206973206e6f74206120706f6f6c000060448201526064016040518091039062000e1d620031c6565b50505b62000e5960db62000e306200328a565b6001600160a01b038416600090815260d46020526040902062000e526200328a565b90620025cc565b81111562000eaf5760405162461bcd60e51b81526020600482015260146024820152730dac2dcc2cecae440cccaca40e8dede40d0d2ced60631b60448201526064016040518091039062000eac620031c6565b50505b62000ec7828260d362000ec16200328a565b62002637565b5050565b600060cb8062000eda6200328a565b91505090565b60da62000eec6200328a565b81565b60db62000eec6200328a565b60008060cc62000f0a6200328a565b906101000a90046001600160a01b0316905090565b62000f29620026f9565b6001600160a01b03166000606562000f406200328a565b906101000a90046001600160a01b03166001600160a01b03161462000fa55760405162461bcd60e51b8152602060048201819052602482015260008051602062003e0b83398151915260448201526064016040518091039062000fa2620031c6565b50505b84861115801562000fc3575060cb8062000fbe6200328a565b905086105b801562000fdd575060cb8062000fd86200328a565b905085105b6200102a5760405162461bcd60e51b815260206004820152600e60248201526d696e76616c696420626f756e647360901b60448201526064016040518091039062001027620031c6565b50505b855b858111620010b957600060cb8281620010446200328a565b81106200104d57fe5b90600052602060002001600090620010646200328a565b6001600160a01b036101009290920a900416600081815260d9602052909150869060409020620010936200328a565b14620010a05750620010b0565b620010ae8185858862002706565b505b6001016200102c565b50505050505050565b620010cc620026f9565b6001600160a01b031660006065620010e36200328a565b906101000a90046001600160a01b03166001600160a01b031614620011485760405162461bcd60e51b8152602060048201819052602482015260008051602062003e0b83398151915260448201526064016040518091039062001145620031c6565b50505b620011538162002896565b50565b600060cc620011646200328a565b906101000a90046001600160a01b03166001600160a01b03165a6200118862003233565b6001600160a01b031614620011d95760405162461bcd60e51b81526020600482015260086024820152676f6e6c792064616f60c01b604482015260640160405180910390620011d6620031c6565b50505b62000ec78282620028a4565b600060605a63996d79a5598160e01b8152602081600483336000905af158601d01573d60011458600c01573d6000803e3d621234565260ea61109c528051925060005b6040811015620012415760008282015260200162001228565b50505088888560405160240180856001600160a01b03168152602001846001600160a01b031681526020018060200180602001838103835285818151815260200191508051906020019080838360005b83811015620012ab57808201518382015260200162001291565b50505050905090810190601f168015620012d95780820380516001836020036101000a031916815260200191505b50838103825284818151815260200191508051906020019060200280838360005b8381101562001314578082015183820152602001620012fa565b505050509050019650505050505050604051601f198183030181526040919091526331a22a9960e21b6020820180516001600160e01b031690911790529050600062001362826001620017c1565b905060605a63996d79a5598160e01b8152602081600483336000905af158601d01573d60011458600c01573d6000803e3d621234565260ea61109c528051925060005b6040811015620013be57600082820152602001620013a5565b5050508b89898560405160240180866001600160a01b0316815260200185151581526020018060200180602001846001600160a01b03168152602001838103835286818151815260200191508051906020019080838360005b838110156200143157808201518382015260200162001417565b50505050905090810190601f1680156200145f5780820380516001836020036101000a031916815260200191505b50838103825285818151815260200191508051906020019080838360005b83811015620014975780820151838201526020016200147d565b50505050905090810190601f168015620014c55780820380516001836020036101000a031916815260200191505b50975050505050505050604051601f19818303018152604091909152630ccb30c760e01b6020820180516001600160e01b03169091179052905060006200150e826002620017c1565b90508060cb80600181620015216200328a565b0180826200152e620032d7565b5050600092835260001901916020915020016001816200154d6200328a565b816001600160a01b0302191690836001600160a01b031602179062001571620032d7565b5050506001600160a01b038116600090815260d0602052600190604090206001816200159c6200328a565b8160ff02191690831515021790620015b3620032d7565b5050506001600160a01b038316600090815260d160205260019060409020600181620015de6200328a565b8160ff02191690831515021790620015f5620032d7565b50505060da620016046200328a565b6001600160a01b038216600090815260d960205260409020819062001628620032d7565b5050506200163d818860d362000ec16200328a565b7f73a0638fe578fc759744633aa170a433061ca2cc1bb855d116c506e04a29901f818d8b8d8f5a6200166e62003326565b8d60d36200167b6200328a565b60405180896001600160a01b0316815260200188151581526020018060200180602001876001600160a01b03168152602001868152602001858152602001848152602001838103835289818151815260200191508051906020019080838360005b83811015620016f6578082015183820152602001620016dc565b50505050905090810190601f168015620017245780820380516001836020036101000a031916815260200191505b50838103825288818151815260200191508051906020019080838360005b838110156200175c57808201518382015260200162001742565b50505050905090810190601f1680156200178a5780820380516001836020036101000a031916815260200191505b509a505050505050505050505060405180910390a19b9a5050505050505050505050565b600060d6620017bc6200328a565b905090565b6000620017cf8383620028cb565b90505b92915050565b600060d8620017bc6200328a565b60d9602052806000526040600020905062000eec6200328a565b60d0602052806000526040600020600091506200181c6200328a565b906101000a900460ff1681565b600060db620017bc6200328a565b6001600160a01b038116600090815260dd602052604081206000906200185c6200328a565b906101000a90046001600160a01b031690505b919050565b6200187e620026f9565b6001600160a01b031660006065620018956200328a565b906101000a90046001600160a01b03166001600160a01b031614620018fa5760405162461bcd60e51b8152602060048201819052602482015260008051602062003e0b833981519152604482015260640160405180910390620018f7620031c6565b50505b6000806065620019096200328a565b906101000a90046001600160a01b03166001600160a01b03167f8be0079c531659141344cd1fd0a4f28419497f9722a3daafe3b4186f6b6457e060405160405180910390a3600060656001816200195f6200328a565b816001600160a01b0302191690836001600160a01b031602179062001983620032d7565b505050565b62001992620026f9565b6001600160a01b031660006065620019a96200328a565b906101000a90046001600160a01b03166001600160a01b03161462001a0e5760405162461bcd60e51b8152602060048201819052602482015260008051602062003e0b83398151915260448201526064016040518091039062001a0b620031c6565b50505b62000ec7828262002a87565b62001a24620026f9565b6001600160a01b03166000606562001a3b6200328a565b906101000a90046001600160a01b03166001600160a01b03161462001aa05760405162461bcd60e51b8152602060048201819052602482015260008051602062003e0b83398151915260448201526064016040518091039062001a9d620031c6565b50505b81609760018162001ab06200328a565b816001600160a01b0302191690836001600160a01b031602179062001ad4620032d7565b50505080609860006101000a8162001aeb6200328a565b816001600160a01b0302191690836001600160a01b031602179062001b0f620032d7565b5050505050565b62001b20620026f9565b6001600160a01b03166000606562001b376200328a565b906101000a90046001600160a01b03166001600160a01b03161462001b9c5760405162461bcd60e51b8152602060048201819052602482015260008051602062003e0b83398151915260448201526064016040518091039062001b99620031c6565b50505b620011538162002b3b565b600080606562000f0a6200328a565b60008060d262001bc56200328a565b60d362001bd16200328a565b915091509091565b60cb818162001be76200328a565b811062001bf057fe5b906000526020600020016000915062001c086200328a565b906101000a90046001600160a01b031681565b62001c25620026f9565b6001600160a01b03166000606562001c3c6200328a565b906101000a90046001600160a01b03166001600160a01b03161462001ca15760405162461bcd60e51b8152602060048201819052602482015260008051602062003e0b83398151915260448201526064016040518091039062001c9e620031c6565b50505b620011538162002b4b565b60008060ce62001cbb6200328a565b60cf62001bd16200328a565b600060d7620017bc6200328a565b62001cdf620026f9565b6001600160a01b03166000606562001cf66200328a565b906101000a90046001600160a01b03166001600160a01b03161462001d5b5760405162461bcd60e51b8152602060048201819052602482015260008051602062003e0b83398151915260448201526064016040518091039062001d58620031c6565b50505b620011538162002bc2565b60d1602052806000526040600020600091506200181c6200328a565b60008060cd62001d916200328a565b906101000a90046001600160a01b03166001600160a01b0316638b2f0f4f836040516001600160e01b031960e084901b1681526001600160a01b039091166004820152602401602060405180830381868062001dec6200336d565b15801562001e045760008062001e01620031c6565b50505b505a62001e10620033ba565b505050505015801562001e32573d6000803e3d600062001e2f620031c6565b50505b505050506040513d602081101562001e545760008062001e51620031c6565b50505b81019080805195945050505050565b6001600160a01b038116600090815260d0602052806040812060009062001e896200328a565b906101000a900460ff161515600115151462001ef65760405162461bcd60e51b815260206004820152601e60248201527f737570706c6965642061646472657373206973206e6f74206120706f6f6c000060448201526064016040518091039062001ef3620031c6565b50505b6001600160a01b038316600090815260d46020526040902062001f186200328a565b6001600160a01b038416600090815260d56020526040902062001f3a6200328a565b91509150915091565b62001f4d620026f9565b6001600160a01b03166000606562001f646200328a565b906101000a90046001600160a01b03166001600160a01b03161462001fc95760405162461bcd60e51b8152602060048201819052602482015260008051602062003e0b83398151915260448201526064016040518091039062001fc6620031c6565b50505b808060dc62001fd7620032d7565b50505050565b60d4602052806000526040600020905062000eec6200328a565b60dc62000eec6200328a565b6000808060cd620020136200328a565b906101000a90046001600160a01b03166001600160a01b03166329a42d56846040516001600160e01b031960e084901b1681526001600160a01b03909116600482015260240160206040518083038186806200206e6200336d565b158015620020865760008062002083620031c6565b50505b505a62002092620033ba565b5050505050158015620020b4573d6000803e3d6000620020b1620031c6565b50505b505050506040513d6020811015620020d657600080620020d3620031c6565b50505b8101908080516001600160a01b0316939093141595945050505050565b60008060cd62000f0a6200328a565b60d5602052806000526040600020905062000eec6200328a565b62002126620026f9565b6001600160a01b0316600060656200213d6200328a565b906101000a90046001600160a01b03166001600160a01b031614620021a25760405162461bcd60e51b8152602060048201819052602482015260008051602062003e0b8339815191526044820152606401604051809103906200219f620031c6565b50505b808060db62001fd7620032d7565b600060dc620017bc6200328a565b60008160ff1660011415620021f35760006098620021db6200328a565b906101000a90046001600160a01b031690506200186f565b60006097620021db6200328a565b6200220b620026f9565b6001600160a01b031660006065620022226200328a565b906101000a90046001600160a01b03166001600160a01b031614620022875760405162461bcd60e51b8152602060048201819052602482015260008051602062003e0b83398151915260448201526064016040518091039062002284620031c6565b50505b620011538162002c09565b6200229c620026f9565b6001600160a01b031660006065620022b36200328a565b906101000a90046001600160a01b03166001600160a01b031614620023185760405162461bcd60e51b8152602060048201819052602482015260008051602062003e0b83398151915260448201526064016040518091039062002315620031c6565b50505b6001600160a01b0381166200236a5760405162461bcd60e51b815260040180806020018281038252602681526020018062003de5602691396040019150506040518091039062002367620031c6565b50505b6001600160a01b03811660006065620023826200328a565b906101000a90046001600160a01b03166001600160a01b03167f8be0079c531659141344cd1fd0a4f28419497f9722a3daafe3b4186f6b6457e060405160405180910390a3806065600181620023d76200328a565b816001600160a01b0302191690836001600160a01b031602179062001fd7620032d7565b60016000620024096200328a565b906101000a900460ff16806200242457506200242462002c50565b80620024445750600080620024386200328a565b906101000a900460ff16155b6200248c5760405162461bcd60e51b815260040180806020018281038252602e81526020018062003e2b602e91396040019150506040518091039062002489620031c6565b50505b60006001816200249b6200328a565b906101000a900460ff1615905080156200250a576001600061010081620024c16200328a565b8160ff02191690831515021790620024d8620032d7565b50505060016000806101000a81620024ef6200328a565b8160ff0219169083151502179062002506620032d7565b5050505b62002516858562002cc5565b620025218362002b3b565b6200252c8262002b4b565b6200253c61138861271062002ccf565b6200254a600a606462002a87565b620025586201518062002bc2565b620025666224ea0062001f43565b620025736103e86200211c565b6200257f600a62002c09565b620025936544484544474560d01b62002896565b801562001b0f5760008061010081620025ab6200328a565b8160ff02191690831515021790620025c2620032d7565b5050505050505050565b600082820183811015620017cf5760405162461bcd60e51b815260206004820152601b60248201527f536166654d6174683a206164646974696f6e206f766572666c6f7700000000006044820152606401604051809103906200262e620031c6565b50509392505050565b80821115801562002653575060d26200264f6200328a565b8211155b620026a25760405162461bcd60e51b815260206004820152601060248201526f34b73b30b634b210333930b1ba34b7b760811b6044820152606401604051809103906200269f620031c6565b50505b6001600160a01b038316600090815260d46020528290604090208190620026c8620032d7565b5050506001600160a01b038316600090815260d56020528190604090208190620026f1620032d7565b505050505050565b60005a620017bc62003233565b6001600160a01b0384166200275d5760405162461bcd60e51b815260206004820152600e60248201526d1d185c99d95d0b5a5b9d985b1a5960921b6044820152606401604051809103906200275a620031c6565b50505b81620027a95760405162461bcd60e51b815260206004820152600c60248201526b19185d184b5a5b9d985b1a5960a21b604482015260640160405180910390620027a6620031c6565b50505b606083838080601f01602080910402602001604051908101604052818152929190602084018383808284376000920182905250939450839250849150505160208401885a620027f7620034b0565b50505050508015600181146200280d5762002824565b3d806000803e80600062002820620031c6565b5050505b5050846001600160a01b03165a6200283b62003233565b6001600160a01b03167f78a9b536049c39a00adaf57016b1376c99dd48a0faf2cef23690232f21ce42cc60405160405180910390a36001600160a01b038516600090815260d96020528290604090208190620025c2620032d7565b808060d862001fd7620032d7565b6001600160a01b038216600090815260dd60205281906040902060018162001aeb6200328a565b600080620028d862002d42565b90507efffc2da0b561cae30d9826d37709e9421c4725faebc226cbbb7ef5fc5e7349816040516001600160a01b03909116815260200160405180910390a1806001600160a01b031663e74a474a5a63996d79a5598160e01b8152602081600483336000905af158601d01573d60011458600c01573d6000803e3d621234565260ea61109c528051925060005b60408110156200297d5760008282015260200162002964565b50505086866040518463ffffffff1660e01b815260040180846001600160a01b03168152602001806020018360ff168152602001828103825284818151815260200191508051906020019080838360005b83811015620029e8578082015183820152602001620029ce565b50505050905090810190601f16801562002a165780820380516001836020036101000a031916815260200191505b509450505050506000604051808303816000878062002a346200336d565b15801562002a4c5760008062002a49620031c6565b50505b505a62002a58620034c2565b50505050505015801562002a7b573d6000803e3d600062002a78620031c6565b50505b50929695505050505050565b8082111562002ada5760405162461bcd60e51b815260206004820152601060248201526f34b73b30b634b210333930b1ba34b7b760811b60448201526064016040518091039062002ad7620031c6565b50505b818060ce62002ae8620032d7565b5050508060cf819062002afa620032d7565b5050507fb10da2958bf5ec1bff3164ff753a09e0460ed44d3abf73e79b817b500ed0f2f1828260405191825260208201526040908101905180910390a15050565b8060cd600181620023d76200328a565b8060cc60018162002b5b6200328a565b816001600160a01b0302191690836001600160a01b031602179062002b7f620032d7565b5050507ff1034ad6b4d45dc33a4142b9c51c2b7f89bf4a410696e426cc0f3224869e0aca816040516001600160a01b03909116815260200160405180910390a150565b808060d662002bd0620032d7565b5050507f20d916c976f3971e8200089411b0b712ef4612d98380b8ad2e3d8a8a376d85c78160405190815260200160405180910390a150565b808060d762002c17620032d7565b5050507f0cd8fcb5e08d7632af461f0ad793e5c63dc0d7595c301f5880650175e37a87488160405190815260200160405180910390a150565b6000805a63996d79a5598160e01b8152602081600483336000905af158601d01573d60011458600c01573d6000803e3d621234565260ea61109c528051925060005b604081101562002cab5760008282015260200162002c92565b505050905060008162002cbd6200336d565b159250505090565b62001aa062002da9565b8082111562002d225760405162461bcd60e51b815260206004820152601060248201526f34b73b30b634b210333930b1ba34b7b760811b60448201526064016040518091039062002d1f620031c6565b50505b818060d262002d30620032d7565b5050508060d3819062001b0f620032d7565b600080606060405162002d586020820162003590565b601f1982820381018352601f909101166040529050805160208201600062002d7f6200359e565b505091508162002d8e6200336d565b62002da35760008062002da0620031c6565b50505b50905090565b6001600062002db76200328a565b906101000a900460ff168062002dd2575062002dd262002c50565b8062002df2575060008062002de66200328a565b906101000a900460ff16155b62002e3a5760405162461bcd60e51b815260040180806020018281038252602e81526020018062003e2b602e91396040019150506040518091039062002e37620031c6565b50505b600060018162002e496200328a565b906101000a900460ff16159050801562002eb857600160006101008162002e6f6200328a565b8160ff0219169083151502179062002e86620032d7565b50505060016000806101000a8162002e9d6200328a565b8160ff0219169083151502179062002eb4620032d7565b5050505b62002ec262002efb565b62002ecc62003021565b801562001153576000806101008162002ee46200328a565b8160ff0219169083151502179062001fd7620032d7565b6001600062002f096200328a565b906101000a900460ff168062002f24575062002f2462002c50565b8062002f44575060008062002f386200328a565b906101000a900460ff16155b62002f8c5760405162461bcd60e51b815260040180806020018281038252602e81526020018062003e2b602e91396040019150506040518091039062002f89620031c6565b50505b600060018162002f9b6200328a565b906101000a900460ff16159050801562002ecc57600160006101008162002fc16200328a565b8160ff0219169083151502179062002fd8620032d7565b50505060016000806101000a8162002fef6200328a565b8160ff0219169083151502179062003006620032d7565b505050801562001153576000806101008162002ee46200328a565b600160006200302f6200328a565b906101000a900460ff16806200304a57506200304a62002c50565b806200306a57506000806200305e6200328a565b906101000a900460ff16155b620030b25760405162461bcd60e51b815260040180806020018281038252602e81526020018062003e2b602e913960400191505060405180910390620030af620031c6565b50505b6000600181620030c16200328a565b906101000a900460ff16159050801562003130576001600061010081620030e76200328a565b8160ff02191690831515021790620030fe620032d7565b50505060016000806101000a81620031156200328a565b8160ff021916908315150217906200312c620032d7565b5050505b60006200313c620026f9565b90508060656001816200314e6200328a565b816001600160a01b0302191690836001600160a01b031602179062003172620032d7565b5050506001600160a01b03811660007f8be0079c531659141344cd1fd0a4f28419497f9722a3daafe3b4186f6b6457e060405160405180910390a350801562001153576000806101008162002ee46200328a565b632a2a7adb598160e01b8152600481016020815285602082015260005b8681101562003200578086015182820160400152602001620031e3565b506020828760640184336000905af158601d01573d60011458600c01573d6000803e3d621234565260ea61109c52505050565b6373509064598160e01b8152602081600483336000905af158601d01573d60011458600c01573d6000803e3d621234565260ea61109c528051935060005b6040811015620019835760008282015260200162003271565b6303daa959598160e01b8152836004820152602081602483336000905af158601d01573d60011458600c01573d6000803e3d621234565260ea61109c528051600082529350602062003271565b6322bd64c0598160e01b8152836004820152846024820152600081604483336000905af158601d01573d60011458600c01573d6000803e3d621234565260ea61109c5260008152602062003271565b63bdbf8c36598160e01b8152602081600483336000905af158601d01573d60011458600c01573d6000803e3d621234565260ea61109c528051600082529350602062003271565b638435035b598160e01b8152836004820152602081602483336000905af158601d01573d60011458600c01573d6000803e3d621234565260ea61109c528051600082529350602062003271565b638540661f598160e01b8152620033ee565b8080831115620017d2575090919050565b8080831015620017d2575090919050565b836004820152846024820152606060448201528660648201526084810160005b88811015620034285780880151828201526020016200340e565b506060828960a40184336000905af158601d01573d60011458600c01573d6000803e3d621234565260ea61109c52815160408301513d6000853e8b8b82606087013350600060045af150596200347f8d3d620033dd565b8c016200348d8187620033cc565b5b82811015620034a457600081526020016200348e565b50929c50505050505050565b63ffe73914598160e01b8152620033ee565b6385979f76598160e01b8152836004820152846024820152606060448201528760648201526084810160005b8981101562003508578089015182820152602001620034ee565b506060828a60a40184336000905af158601d01573d60011458600c01573d6000803e3d621234565260ea61109c52815160408301513d6000853e8c8c82606087013350600060045af150596200355f8e3d620033dd565b8d016200356d8187620033cc565b5b828110156200358457600081526020016200356e565b50929d50505050505050565b6107c1806200362483390190565b6314aa2ff7598160e01b8152600481016020815286602082015260005b87811015620035d8578087015182820160400152602001620035bb565b506020828860640184336000905af158601d01573d60011458600c01573d6000803e3d621234565260ea61109c528151965059825b8181101562001b0f57600081526020016200360d56fe60806040523480156100195760008061001661001f565b50505b5061008a565b632a2a7adb598160e01b8152600481016020815285602082015260005b8681101561005757808601518282016040015260200161003c565b506020828760640184336000905af158601d01573d60011458600c01573d6000803e3d621234565260ea61109c52505050565b610728806100996000396000f3fe6080604052600436106100225760003560e01c8063e74a474a1461003957610031565b366100315761002f610117565b005b61002f610117565b61002f60048036036060811015610058576000806100556104ca565b50505b6001600160a01b03823516919081019060408101602082013564010000000081111561008c576000806100896104ca565b50505b8201836020820111156100a7576000806100a46104ca565b50505b803590602001918460018302840111640100000000831117156100d2576000806100cf6104ca565b50505b91908080601f01602080910402602001604051908101604052818152929190602084018383808284376000920191909152509295505050903560ff1691506101319050565b61011f61012f565b61012f61012a6102c3565b6103c4565b565b600061013b6102c3565b6001600160a01b03161461018e5760405162461bcd60e51b815260206004820152600d60248201526c496d706c206e6f74207a65726f60981b60448201526064016040518091039061018b6104ca565b50505b61019783610401565b6101a08161048e565b6000825111156102be5760006101b46102c3565b6001600160a01b0316836040518082805190602001908083835b602083106101ed5780518252601f1990920191602091820191016101ce565b6001836020036101000a038019825116818451168082178552505050505050905001915050600060405180830381855a610225610535565b50505050509150503d8060008114610259576040513d603f01601f191681016040523d815291503d6000602084013e61025e565b606091505b50509050806102bc5760405162461bcd60e51b815260206004820152601a60248201527f496d706c656d656e746174696f6e20696e6974206661696c65640000000000006044820152606401604051809103906102b96104ca565b50505b505b505050565b6000807f360894a13ba1a3210667c828492db98dca3e2076cc3735a920a3ca505d382bbc806102f0610622565b91506001600160a01b03821661030b576000925050506103c1565b816001600160a01b031663ecef89d561032261049d565b6040516001600160e01b031960e084901b16815260ff9091166004820152602401602060405180830381868061035661067d565b15801561036b576000806103686104ca565b50505b505a6103756106c9565b5050505050158015610394573d6000803e3d60006103916104ca565b50505b505050506040513d60208110156103b3576000806103b06104ca565b50505b810190808051955050505050505b90565b3660008037600080366000845a6103d9610535565b50505050503d6000803e8080156103ef573d6000f35b3d60006103fa6104ca565b5050505050565b61040a816104b5565b6104635760405162461bcd60e51b815260206004820181905260248201527f43616e6e6f742073657420696d706c656d656e746174696f6e20746f20454f416044820152606401604051809103906104606104ca565b50505b7f360894a13ba1a3210667c828492db98dca3e2076cc3735a920a3ca505d382bbc81816102bc6106da565b600160fc1b81816102bc6106da565b600080600160fc1b806104ae610622565b9250505090565b600080826104c161067d565b15159392505050565b632a2a7adb598160e01b8152600481016020815285602082015260005b868110156105025780860151828201604001526020016104e7565b506020828760640184336000905af158601d01573d60011458600c01573d6000803e3d621234565260ea61109c52505050565b63ffe73914598160e01b8152610568565b80808311156105525750815b92915050565b8080831015610552575090919050565b836004820152846024820152606060448201528660648201526084810160005b888110156105a0578088015182820152602001610588565b506060828960a40184336000905af158601d01573d60011458600c01573d6000803e3d621234565260ea61109c52815160408301513d6000853e8b8b82606087013350600060045af150596105f58d3d610558565b8c016106018187610546565b5b828110156106165760008152602001610602565b50929c50505050505050565b6303daa959598160e01b8152836004820152602081602483336000905af158601d01573d60011458600c01573d6000803e3d621234565260ea61109c528051935060005b60408110156102be57600082820152602001610666565b638435035b598160e01b8152836004820152602081602483336000905af158601d01573d60011458600c01573d6000803e3d621234565260ea61109c5280516000825293506020610666565b638540661f598160e01b8152610568565b6322bd64c0598160e01b8152836004820152846024820152600081604483336000905af158601d01573d60011458600c01573d6000803e3d621234565260ea61109c52600081526020610666564f776e61626c653a206e6577206f776e657220697320746865207a65726f20616464726573734f776e61626c653a2063616c6c6572206973206e6f7420746865206f776e6572436f6e747261637420696e7374616e63652068617320616c7265616479206265656e20696e697469616c697a6564",
  "linkReferences": {},
  "deployedLinkReferences": {}
}