{
  "_format": "hh-sol-artifact-1",
  "contractName": "PoolFactory",
  "sourceName": "contracts/PoolFactory.sol",
  "abi": [
    {
      "anonymous": false,
      "inputs": [
        {
          "indexed": false,
          "internalType": "address",
          "name": "dao",
          "type": "address"
        }
      ],
      "name": "DaoAddressSet",
      "type": "event"
    },
    {
      "anonymous": false,
      "inputs": [
        {
          "indexed": false,
          "internalType": "uint256",
          "name": "numerator",
          "type": "uint256"
        },
        {
          "indexed": false,
          "internalType": "uint256",
          "name": "denominator",
          "type": "uint256"
        }
      ],
      "name": "DaoFeeSet",
      "type": "event"
    },
    {
      "anonymous": false,
      "inputs": [
        {
          "indexed": false,
          "internalType": "uint256",
          "name": "cooldown",
          "type": "uint256"
        }
      ],
      "name": "ExitCooldownSet",
      "type": "event"
    },
    {
      "anonymous": false,
      "inputs": [
        {
          "indexed": false,
          "internalType": "uint256",
          "name": "numerator",
          "type": "uint256"
        },
        {
          "indexed": false,
          "internalType": "uint256",
          "name": "denominator",
          "type": "uint256"
        }
      ],
      "name": "ExitFeeSet",
      "type": "event"
    },
    {
      "anonymous": false,
      "inputs": [
        {
          "indexed": false,
          "internalType": "address",
          "name": "fundAddress",
          "type": "address"
        },
        {
          "indexed": false,
          "internalType": "bool",
          "name": "isPoolPrivate",
          "type": "bool"
        },
        {
          "indexed": false,
          "internalType": "string",
          "name": "fundName",
          "type": "string"
        },
        {
          "indexed": false,
          "internalType": "string",
          "name": "managerName",
          "type": "string"
        },
        {
          "indexed": false,
          "internalType": "address",
          "name": "manager",
          "type": "address"
        },
        {
          "indexed": false,
          "internalType": "uint256",
          "name": "time",
          "type": "uint256"
        },
        {
          "indexed": false,
          "internalType": "uint256",
          "name": "managerFeeNumerator",
          "type": "uint256"
        },
        {
          "indexed": false,
          "internalType": "uint256",
          "name": "managerFeeDenominator",
          "type": "uint256"
        }
      ],
      "name": "FundCreated",
      "type": "event"
    },
    {
      "anonymous": false,
      "inputs": [
        {
          "indexed": true,
          "internalType": "address",
          "name": "manager",
          "type": "address"
        },
        {
          "indexed": true,
          "internalType": "address",
          "name": "pool",
          "type": "address"
        }
      ],
      "name": "LogUpgrade",
      "type": "event"
    },
    {
      "anonymous": false,
      "inputs": [
        {
          "indexed": false,
          "internalType": "uint256",
          "name": "count",
          "type": "uint256"
        }
      ],
      "name": "MaximumSupportedAssetCountSet",
      "type": "event"
    },
    {
      "anonymous": false,
      "inputs": [
        {
          "indexed": true,
          "internalType": "address",
          "name": "previousOwner",
          "type": "address"
        },
        {
          "indexed": true,
          "internalType": "address",
          "name": "newOwner",
          "type": "address"
        }
      ],
      "name": "OwnershipTransferred",
      "type": "event"
    },
    {
      "anonymous": false,
      "inputs": [
        {
          "indexed": false,
          "internalType": "address",
          "name": "proxy",
          "type": "address"
        }
      ],
      "name": "ProxyCreated",
      "type": "event"
    },
    {
      "inputs": [],
      "name": "addressResolver",
      "outputs": [
        {
          "internalType": "contract IAddressResolver",
          "name": "",
          "type": "address"
        }
      ],
      "stateMutability": "view",
      "type": "function"
    },
    {
      "inputs": [
        {
          "internalType": "bool",
          "name": "_privatePool",
          "type": "bool"
        },
        {
          "internalType": "address",
          "name": "_manager",
          "type": "address"
        },
        {
          "internalType": "string",
          "name": "_managerName",
          "type": "string"
        },
        {
          "internalType": "string",
          "name": "_fundName",
          "type": "string"
        },
        {
          "internalType": "string",
          "name": "_fundSymbol",
          "type": "string"
        },
        {
          "internalType": "uint256",
          "name": "_managerFeeNumerator",
          "type": "uint256"
        },
        {
          "internalType": "bytes32[]",
          "name": "_supportedAssets",
          "type": "bytes32[]"
        }
      ],
      "name": "createFund",
      "outputs": [
        {
          "internalType": "address",
          "name": "",
          "type": "address"
        }
      ],
      "stateMutability": "nonpayable",
      "type": "function"
    },
    {
      "inputs": [
        {
          "internalType": "bytes",
          "name": "_data",
          "type": "bytes"
        },
        {
          "internalType": "uint8",
          "name": "_proxyType",
          "type": "uint8"
        }
      ],
      "name": "deploy",
      "outputs": [
        {
          "internalType": "address",
          "name": "",
          "type": "address"
        }
      ],
      "stateMutability": "nonpayable",
      "type": "function"
    },
    {
      "inputs": [
        {
          "internalType": "uint256",
          "name": "",
          "type": "uint256"
        }
      ],
      "name": "deployedFunds",
      "outputs": [
        {
          "internalType": "address",
          "name": "",
          "type": "address"
        }
      ],
      "stateMutability": "view",
      "type": "function"
    },
    {
      "inputs": [],
      "name": "deployedFundsLength",
      "outputs": [
        {
          "internalType": "uint256",
          "name": "",
          "type": "uint256"
        }
      ],
      "stateMutability": "view",
      "type": "function"
    },
    {
      "inputs": [],
      "name": "getAddressResolver",
      "outputs": [
        {
          "internalType": "contract IAddressResolver",
          "name": "",
          "type": "address"
        }
      ],
      "stateMutability": "view",
      "type": "function"
    },
    {
      "inputs": [],
      "name": "getDaoAddress",
      "outputs": [
        {
          "internalType": "address",
          "name": "",
          "type": "address"
        }
      ],
      "stateMutability": "view",
      "type": "function"
    },
    {
      "inputs": [],
      "name": "getDaoFee",
      "outputs": [
        {
          "internalType": "uint256",
          "name": "",
          "type": "uint256"
        },
        {
          "internalType": "uint256",
          "name": "",
          "type": "uint256"
        }
      ],
      "stateMutability": "view",
      "type": "function"
    },
    {
      "inputs": [],
      "name": "getExitCooldown",
      "outputs": [
        {
          "internalType": "uint256",
          "name": "",
          "type": "uint256"
        }
      ],
      "stateMutability": "view",
      "type": "function"
    },
    {
      "inputs": [
        {
          "internalType": "uint8",
          "name": "_proxyType",
          "type": "uint8"
        }
      ],
      "name": "getLogic",
      "outputs": [
        {
          "internalType": "address",
          "name": "",
          "type": "address"
        }
      ],
      "stateMutability": "view",
      "type": "function"
    },
    {
      "inputs": [],
      "name": "getManagerFeeNumeratorChangeDelay",
      "outputs": [
        {
          "internalType": "uint256",
          "name": "",
          "type": "uint256"
        }
      ],
      "stateMutability": "view",
      "type": "function"
    },
    {
      "inputs": [],
      "name": "getMaximumManagerFee",
      "outputs": [
        {
          "internalType": "uint256",
          "name": "",
          "type": "uint256"
        },
        {
          "internalType": "uint256",
          "name": "",
          "type": "uint256"
        }
      ],
      "stateMutability": "view",
      "type": "function"
    },
    {
      "inputs": [],
      "name": "getMaximumManagerFeeNumeratorChange",
      "outputs": [
        {
          "internalType": "uint256",
          "name": "",
          "type": "uint256"
        }
      ],
      "stateMutability": "view",
      "type": "function"
    },
    {
      "inputs": [],
      "name": "getMaximumSupportedAssetCount",
      "outputs": [
        {
          "internalType": "uint256",
          "name": "",
          "type": "uint256"
        }
      ],
      "stateMutability": "view",
      "type": "function"
    },
    {
      "inputs": [
        {
          "internalType": "address",
          "name": "pool",
          "type": "address"
        }
      ],
      "name": "getPoolManagerFee",
      "outputs": [
        {
          "internalType": "uint256",
          "name": "",
          "type": "uint256"
        },
        {
          "internalType": "uint256",
          "name": "",
          "type": "uint256"
        }
      ],
      "stateMutability": "view",
      "type": "function"
    },
    {
      "inputs": [],
      "name": "getTrackingCode",
      "outputs": [
        {
          "internalType": "bytes32",
          "name": "",
          "type": "bytes32"
        }
      ],
      "stateMutability": "view",
      "type": "function"
    },
    {
      "inputs": [
        {
          "internalType": "contract IAddressResolver",
          "name": "_addressResolver",
          "type": "address"
        },
        {
          "internalType": "address",
          "name": "_poolLogic",
          "type": "address"
        },
        {
          "internalType": "address",
          "name": "_managerLogic",
          "type": "address"
        },
        {
          "internalType": "address",
          "name": "daoAddress",
          "type": "address"
        }
      ],
      "name": "initialize",
      "outputs": [],
      "stateMutability": "nonpayable",
      "type": "function"
    },
    {
      "inputs": [
        {
          "internalType": "address",
          "name": "",
          "type": "address"
        }
      ],
      "name": "isPool",
      "outputs": [
        {
          "internalType": "bool",
          "name": "",
          "type": "bool"
        }
      ],
      "stateMutability": "view",
      "type": "function"
    },
    {
      "inputs": [
        {
          "internalType": "address",
          "name": "",
          "type": "address"
        }
      ],
      "name": "isPoolManager",
      "outputs": [
        {
          "internalType": "bool",
          "name": "",
          "type": "bool"
        }
      ],
      "stateMutability": "view",
      "type": "function"
    },
    {
      "inputs": [],
      "name": "managerFeeNumeratorChangeDelay",
      "outputs": [
        {
          "internalType": "uint256",
          "name": "",
          "type": "uint256"
        }
      ],
      "stateMutability": "view",
      "type": "function"
    },
    {
      "inputs": [],
      "name": "maximumManagerFeeNumeratorChange",
      "outputs": [
        {
          "internalType": "uint256",
          "name": "",
          "type": "uint256"
        }
      ],
      "stateMutability": "view",
      "type": "function"
    },
    {
      "inputs": [],
      "name": "owner",
      "outputs": [
        {
          "internalType": "address",
          "name": "",
          "type": "address"
        }
      ],
      "stateMutability": "view",
      "type": "function"
    },
    {
      "inputs": [
        {
          "internalType": "address",
          "name": "",
          "type": "address"
        }
      ],
      "name": "poolManagerFeeDenominator",
      "outputs": [
        {
          "internalType": "uint256",
          "name": "",
          "type": "uint256"
        }
      ],
      "stateMutability": "view",
      "type": "function"
    },
    {
      "inputs": [
        {
          "internalType": "address",
          "name": "",
          "type": "address"
        }
      ],
      "name": "poolManagerFeeNumerator",
      "outputs": [
        {
          "internalType": "uint256",
          "name": "",
          "type": "uint256"
        }
      ],
      "stateMutability": "view",
      "type": "function"
    },
    {
      "inputs": [],
      "name": "poolStorageVersion",
      "outputs": [
        {
          "internalType": "uint256",
          "name": "",
          "type": "uint256"
        }
      ],
      "stateMutability": "view",
      "type": "function"
    },
    {
      "inputs": [
        {
          "internalType": "address",
          "name": "",
          "type": "address"
        }
      ],
      "name": "poolVersion",
      "outputs": [
        {
          "internalType": "uint256",
          "name": "",
          "type": "uint256"
        }
      ],
      "stateMutability": "view",
      "type": "function"
    },
    {
      "inputs": [],
      "name": "renounceOwnership",
      "outputs": [],
      "stateMutability": "nonpayable",
      "type": "function"
    },
    {
      "inputs": [
        {
          "internalType": "address",
          "name": "_addressResolver",
          "type": "address"
        }
      ],
      "name": "setAddressResolver",
      "outputs": [],
      "stateMutability": "nonpayable",
      "type": "function"
    },
    {
      "inputs": [
        {
          "internalType": "address",
          "name": "daoAddress",
          "type": "address"
        }
      ],
      "name": "setDaoAddress",
      "outputs": [],
      "stateMutability": "nonpayable",
      "type": "function"
    },
    {
      "inputs": [
        {
          "internalType": "uint256",
          "name": "numerator",
          "type": "uint256"
        },
        {
          "internalType": "uint256",
          "name": "denominator",
          "type": "uint256"
        }
      ],
      "name": "setDaoFee",
      "outputs": [],
      "stateMutability": "nonpayable",
      "type": "function"
    },
    {
      "inputs": [
        {
          "internalType": "uint256",
          "name": "cooldown",
          "type": "uint256"
        }
      ],
      "name": "setExitCooldown",
      "outputs": [],
      "stateMutability": "nonpayable",
      "type": "function"
    },
    {
      "inputs": [
        {
          "internalType": "address",
          "name": "_poolLogic",
          "type": "address"
        },
        {
          "internalType": "address",
          "name": "_poolManagerLogic",
          "type": "address"
        }
      ],
      "name": "setLogic",
      "outputs": [],
      "stateMutability": "nonpayable",
      "type": "function"
    },
    {
      "inputs": [
        {
          "internalType": "uint256",
          "name": "delay",
          "type": "uint256"
        }
      ],
      "name": "setManagerFeeNumeratorChangeDelay",
      "outputs": [],
      "stateMutability": "nonpayable",
      "type": "function"
    },
    {
      "inputs": [
        {
          "internalType": "uint256",
          "name": "amount",
          "type": "uint256"
        }
      ],
      "name": "setMaximumManagerFeeNumeratorChange",
      "outputs": [],
      "stateMutability": "nonpayable",
      "type": "function"
    },
    {
      "inputs": [
        {
          "internalType": "uint256",
          "name": "count",
          "type": "uint256"
        }
      ],
      "name": "setMaximumSupportedAssetCount",
      "outputs": [],
      "stateMutability": "nonpayable",
      "type": "function"
    },
    {
      "inputs": [
        {
          "internalType": "address",
          "name": "pool",
          "type": "address"
        },
        {
          "internalType": "uint256",
          "name": "numerator",
          "type": "uint256"
        }
      ],
      "name": "setPoolManagerFeeNumerator",
      "outputs": [],
      "stateMutability": "nonpayable",
      "type": "function"
    },
    {
      "inputs": [
        {
          "internalType": "bytes32",
          "name": "code",
          "type": "bytes32"
        }
      ],
      "name": "setTrackingCode",
      "outputs": [],
      "stateMutability": "nonpayable",
      "type": "function"
    },
    {
      "inputs": [
        {
          "internalType": "address",
          "name": "newOwner",
          "type": "address"
        }
      ],
      "name": "transferOwnership",
      "outputs": [],
      "stateMutability": "nonpayable",
      "type": "function"
    },
    {
      "inputs": [
        {
          "internalType": "uint256",
          "name": "startIndex",
          "type": "uint256"
        },
        {
          "internalType": "uint256",
          "name": "endIndex",
          "type": "uint256"
        },
        {
          "internalType": "uint256",
          "name": "sourceVersion",
          "type": "uint256"
        },
        {
          "internalType": "uint256",
          "name": "targetVersion",
          "type": "uint256"
        },
        {
          "internalType": "bytes",
          "name": "data",
          "type": "bytes"
        }
      ],
      "name": "upgradePoolBatch",
      "outputs": [],
      "stateMutability": "nonpayable",
      "type": "function"
    }
  ],
  "bytecode": "0x608060405234801561001057600080fd5b50612622806100206000396000f3fe608060405234801561001057600080fd5b506004361061023d5760003560e01c8063808ae5fb1161013b578063bcb01f44116100b8578063ebee461d1161007c578063ebee461d146108d3578063ecef89d5146108db578063eec16c44146108fb578063f2fde38b14610918578063f8c8765e1461093e5761023d565b8063bcb01f4414610845578063bee37e5214610862578063bfeaf71d14610888578063e60eb41214610890578063e99c0fa6146108b65761023d565b80639cada6e4116100ff5780639cada6e4146107cc578063aa12ae4d146107d4578063aa7d664e146107dc578063b193a5f4146107f9578063b7a545261461081f5761023d565b8063808ae5fb146107325780638da5cb5b1461076057806394d0d23b146107685780639a068bd6146107895780639a3cac6a146107a65761023d565b80634501b088116101c95780635b16ebb71161018d5780635b16ebb7146106bd5780635c9bfc2b146106f7578063715018a6146106ff57806371c1c54914610707578063771d1baf1461070f5761023d565b80634501b0881461038f57806345812ca514610397578063482812721461044057806349f7c02d1461068f5780635556ee55146106975761023d565b806310bf69dc1161021057806310bf69dc146102b657806314302387146102be5780631d68702d146102e45780631e666d13146102ec5780631e8e8bca146103725761023d565b8063046b72c41461024257806305a2ee2a146102705780630bf99bd9146102945780630f6559c4146102ae575b600080fd5b61026e6004803603604081101561025857600080fd5b506001600160a01b03813516906020013561097c565b005b610278610ac2565b604080516001600160a01b039092168252519081900360200190f35b61029c610ad1565b60408051918252519081900360200190f35b61029c610ad7565b61029c610add565b61026e600480360360208110156102d457600080fd5b50356001600160a01b0316610ae3565b610278610b5d565b61026e600480360360a081101561030257600080fd5b81359160208101359160408201359160608101359181019060a081016080820135600160201b81111561033457600080fd5b82018360208201111561034657600080fd5b803590602001918460018302840111600160201b8311171561036757600080fd5b509092509050610b6c565b61026e6004803603602081101561038857600080fd5b5035610c8f565b61029c610cf3565b610278600480360360408110156103ad57600080fd5b810190602081018135600160201b8111156103c757600080fd5b8201836020820111156103d957600080fd5b803590602001918460018302840111600160201b831117156103fa57600080fd5b91908080601f0160208091040260200160405190810160405280939291908181526020018383808284376000920191909152509295505050903560ff169150610cf99050565b610278600480360360e081101561045657600080fd5b81351515916001600160a01b0360208201351691810190606081016040820135600160201b81111561048757600080fd5b82018360208201111561049957600080fd5b803590602001918460018302840111600160201b831117156104ba57600080fd5b91908080601f0160208091040260200160405190810160405280939291908181526020018383808284376000920191909152509295949360208101935035915050600160201b81111561050c57600080fd5b82018360208201111561051e57600080fd5b803590602001918460018302840111600160201b8311171561053f57600080fd5b91908080601f0160208091040260200160405190810160405280939291908181526020018383808284376000920191909152509295949360208101935035915050600160201b81111561059157600080fd5b8201836020820111156105a357600080fd5b803590602001918460018302840111600160201b831117156105c457600080fd5b91908080601f01602080910402602001604051908101604052809392919081815260200183838082843760009201919091525092958435959094909350604081019250602001359050600160201b81111561061e57600080fd5b82018360208201111561063057600080fd5b803590602001918460208302840111600160201b8311171561065157600080fd5b919080806020026020016040519081016040528093929190818152602001838360200280828437600092019190915250929550610d0c945050505050565b61029c6111f3565b61029c600480360360208110156106ad57600080fd5b50356001600160a01b03166111f9565b6106e3600480360360208110156106d357600080fd5b50356001600160a01b031661120b565b604080519115158252519081900360200190f35b61029c611220565b61026e611226565b6102786112c8565b61026e6004803603604081101561072557600080fd5b50803590602001356112d7565b61026e6004803603604081101561074857600080fd5b506001600160a01b0381358116916020013516611339565b6102786113bf565b6107706113ce565b6040805192835260208301919091528051918290030190f35b6102786004803603602081101561079f57600080fd5b50356113d8565b61026e600480360360208110156107bc57600080fd5b50356001600160a01b03166113ff565b610770611460565b61029c61146a565b61026e600480360360208110156107f257600080fd5b5035611470565b6106e36004803603602081101561080f57600080fd5b50356001600160a01b03166114d1565b6107706004803603602081101561083557600080fd5b50356001600160a01b03166114e6565b61026e6004803603602081101561085b57600080fd5b5035611584565b61029c6004803603602081101561087857600080fd5b50356001600160a01b03166115e1565b61029c6115f3565b61029c600480360360208110156108a657600080fd5b50356001600160a01b03166115f9565b61026e600480360360208110156108cc57600080fd5b503561160b565b61029c611668565b610278600480360360208110156108f157600080fd5b503560ff1661166e565b61026e6004803603602081101561091157600080fd5b50356116a1565b61026e6004803603602081101561092e57600080fd5b50356001600160a01b0316611702565b61026e6004803603608081101561095457600080fd5b506001600160a01b0381358116916020810135821691604082013581169160600135166117fb565b33600090815260d1602052604090205460ff1615156001146109cf5760405162461bcd60e51b81526004018080602001828103825260348152602001806125b96034913960400191505060405180910390fd5b6001600160a01b038216600090815260d0602052604090205460ff161515600114610a41576040805162461bcd60e51b815260206004820152601e60248201527f737570706c6965642061646472657373206973206e6f74206120706f6f6c0000604482015290519081900360640190fd5b60db546001600160a01b038316600090815260d46020526040902054610a669161191d565b811115610ab1576040805162461bcd60e51b81526020600482015260146024820152730dac2dcc2cecae440cccaca40e8dede40d0d2ced60631b604482015290519081900360640190fd5b610abe828260d354611977565b5050565b60cb546001600160a01b031681565b60cc5490565b60da5481565b60db5481565b610aeb6119f5565b6065546001600160a01b03908116911614610b3b576040805162461bcd60e51b8152602060048201819052602482015260008051602061256b833981519152604482015290519081900360640190fd5b60cb80546001600160a01b0319166001600160a01b0392909216919091179055565b60cd546001600160a01b031690565b610b746119f5565b6065546001600160a01b03908116911614610bc4576040805162461bcd60e51b8152602060048201819052602482015260008051602061256b833981519152604482015290519081900360640190fd5b848611158015610bd5575060cc5486105b8015610be2575060cc5485105b610c24576040805162461bcd60e51b815260206004820152600e60248201526d696e76616c696420626f756e647360901b604482015290519081900360640190fd5b855b858111610c8657600060cc8281548110610c3c57fe5b60009182526020808320909101546001600160a01b031680835260d99091526040909120549091508614610c705750610c7e565b610c7c818585886119f9565b505b600101610c26565b50505050505050565b610c976119f5565b6065546001600160a01b03908116911614610ce7576040805162461bcd60e51b8152602060048201819052602482015260008051602061256b833981519152604482015290519081900360640190fd5b610cf081611b41565b50565b60d65490565b6000610d058383611b46565b9392505050565b60cb5460405130602482018181526001600160a01b03808b1660448501529093166084830181905260a060648401908152895160c485015289516000956060958d948d9490938a939260a481019160e49091019060208801908083838f5b83811015610d82578181015183820152602001610d6a565b50505050905090810190601f168015610daf5780820380516001836020036101000a031916815260200191505b508381038252845181528451602091820191808701910280838360005b83811015610de4578181015183820152602001610dcc565b5050505090500197505050505050505060405160208183030381529060405263eb94917d60e01b6001600160e01b0319166020820180516001600160e01b03838183161783525050505090506000610e3d826001610cf9565b90506060308b8b8b8b8b8760405160240180886001600160a01b031681526020018715158152602001866001600160a01b03168152602001806020018060200180602001856001600160a01b03168152602001848103845288818151815260200191508051906020019080838360005b83811015610ec5578181015183820152602001610ead565b50505050905090810190601f168015610ef25780820380516001836020036101000a031916815260200191505b50848103835287518152875160209182019189019080838360005b83811015610f25578181015183820152602001610f0d565b50505050905090810190601f168015610f525780820380516001836020036101000a031916815260200191505b50848103825286518152865160209182019188019080838360005b83811015610f85578181015183820152602001610f6d565b50505050905090810190601f168015610fb25780820380516001836020036101000a031916815260200191505b5060408051601f198184030181529190526020810180516001600160e01b03166366fd3ce960e11b1790529b5060009a50610ffc99508b985060029750610cf99650505050505050565b60cc805460018082019092557f47197230e1e4b29fc0bd84d7d78966c0925452aff72a2a121538b102457e9ebe0180546001600160a01b0319166001600160a01b03848116918217909255600081815260d060209081526040808320805460ff199081168817909155948a16835260d18252808320805490951690951790935560da5491815260d99092529190205560d35490915061109e9082908990611977565b7f73a0638fe578fc759744633aa170a433061ca2cc1bb855d116c506e04a29901f818d8b8d8f428d60d35460405180896001600160a01b0316815260200188151581526020018060200180602001876001600160a01b03168152602001868152602001858152602001848152602001838103835289818151815260200191508051906020019080838360005b8381101561114257818101518382015260200161112a565b50505050905090810190601f16801561116f5780820380516001836020036101000a031916815260200191505b5083810382528851815288516020918201918a019080838360005b838110156111a257818101518382015260200161118a565b50505050905090810190601f1680156111cf5780820380516001836020036101000a031916815260200191505b509a505050505050505050505060405180910390a19b9a5050505050505050505050565b60d85490565b60d96020526000908152604090205481565b60d06020526000908152604090205460ff1681565b60db5490565b61122e6119f5565b6065546001600160a01b0390811691161461127e576040805162461bcd60e51b8152602060048201819052602482015260008051602061256b833981519152604482015290519081900360640190fd5b6065546040516000916001600160a01b0316907f8be0079c531659141344cd1fd0a4f28419497f9722a3daafe3b4186f6b6457e0908390a3606580546001600160a01b0319169055565b60cb546001600160a01b031690565b6112df6119f5565b6065546001600160a01b0390811691161461132f576040805162461bcd60e51b8152602060048201819052602482015260008051602061256b833981519152604482015290519081900360640190fd5b610abe8282611c74565b6113416119f5565b6065546001600160a01b03908116911614611391576040805162461bcd60e51b8152602060048201819052602482015260008051602061256b833981519152604482015290519081900360640190fd5b609780546001600160a01b039384166001600160a01b03199182161790915560988054929093169116179055565b6065546001600160a01b031690565b60d25460d3549091565b60cc81815481106113e557fe5b6000918252602090912001546001600160a01b0316905081565b6114076119f5565b6065546001600160a01b03908116911614611457576040805162461bcd60e51b8152602060048201819052602482015260008051602061256b833981519152604482015290519081900360640190fd5b610cf081611d05565b60ce5460cf549091565b60d75490565b6114786119f5565b6065546001600160a01b039081169116146114c8576040805162461bcd60e51b8152602060048201819052602482015260008051602061256b833981519152604482015290519081900360640190fd5b610cf081611d59565b60d16020526000908152604090205460ff1681565b6001600160a01b038116600090815260d06020526040812054819060ff16151560011461155a576040805162461bcd60e51b815260206004820152601e60248201527f737570706c6965642061646472657373206973206e6f74206120706f6f6c0000604482015290519081900360640190fd5b50506001600160a01b0316600090815260d4602090815260408083205460d5909252909120549091565b61158c6119f5565b6065546001600160a01b039081169116146115dc576040805162461bcd60e51b8152602060048201819052602482015260008051602061256b833981519152604482015290519081900360640190fd5b60dc55565b60d46020526000908152604090205481565b60dc5481565b60d56020526000908152604090205481565b6116136119f5565b6065546001600160a01b03908116911614611663576040805162461bcd60e51b8152602060048201819052602482015260008051602061256b833981519152604482015290519081900360640190fd5b60db55565b60dc5490565b60008160ff166001141561168e57506098546001600160a01b031661169c565b506097546001600160a01b03165b919050565b6116a96119f5565b6065546001600160a01b039081169116146116f9576040805162461bcd60e51b8152602060048201819052602482015260008051602061256b833981519152604482015290519081900360640190fd5b610cf081611d94565b61170a6119f5565b6065546001600160a01b0390811691161461175a576040805162461bcd60e51b8152602060048201819052602482015260008051602061256b833981519152604482015290519081900360640190fd5b6001600160a01b03811661179f5760405162461bcd60e51b81526004018080602001828103825260268152602001806125456026913960400191505060405180910390fd5b6065546040516001600160a01b038084169216907f8be0079c531659141344cd1fd0a4f28419497f9722a3daafe3b4186f6b6457e090600090a3606580546001600160a01b0319166001600160a01b0392909216919091179055565b600054610100900460ff16806118145750611814611dcf565b80611822575060005460ff16155b61185d5760405162461bcd60e51b815260040180806020018281038252602e81526020018061258b602e913960400191505060405180910390fd5b600054610100900460ff16158015611888576000805460ff1961ff0019909116610100171660011790555b6118928484611dd5565b60cb80546001600160a01b0319166001600160a01b0387161790556118b682611d05565b6118c4611388612710611ddd565b6118d0600a6064611c74565b6118dc62015180611d59565b6118e862015180611584565b6118f2600a611d94565b6119046544484544474560d01b611b41565b8015611916576000805461ff00191690555b5050505050565b600082820183811015610d05576040805162461bcd60e51b815260206004820152601b60248201527f536166654d6174683a206164646974696f6e206f766572666c6f770000000000604482015290519081900360640190fd5b808211158015611989575060d2548211155b6119cd576040805162461bcd60e51b815260206004820152601060248201526f34b73b30b634b210333930b1ba34b7b760811b604482015290519081900360640190fd5b6001600160a01b03909216600090815260d4602090815260408083209390935560d590522055565b3390565b6001600160a01b038416611a45576040805162461bcd60e51b815260206004820152600e60248201526d1d185c99d95d0b5a5b9d985b1a5960921b604482015290519081900360640190fd5b81611a86576040805162461bcd60e51b815260206004820152600c60248201526b19185d184b5a5b9d985b1a5960a21b604482015290519081900360640190fd5b606083838080601f016020809104026020016040519081016040528093929190818152602001838380828437600092018290525084519495509384935091505060208401885af4801560018114611adc57611ae7565b3d806000803e806000fd5b50506040516001600160a01b0386169033907f78a9b536049c39a00adaf57016b1376c99dd48a0faf2cef23690232f21ce42cc90600090a3506001600160a01b03909316600090815260d960205260409020929092555050565b60d855565b600080611b51611e30565b604080516001600160a01b038316815290519192507efffc2da0b561cae30d9826d37709e9421c4725faebc226cbbb7ef5fc5e7349919081900360200190a1806001600160a01b031663e74a474a3086866040518463ffffffff1660e01b815260040180846001600160a01b03168152602001806020018360ff168152602001828103825284818151815260200191508051906020019080838360005b83811015611c06578181015183820152602001611bee565b50505050905090810190601f168015611c335780820380516001836020036101000a031916815260200191505b50945050505050600060405180830381600087803b158015611c5457600080fd5b505af1158015611c68573d6000803e3d6000fd5b50929695505050505050565b80821115611cbc576040805162461bcd60e51b815260206004820152601060248201526f34b73b30b634b210333930b1ba34b7b760811b604482015290519081900360640190fd5b60ce82905560cf819055604080518381526020810183905281517fb10da2958bf5ec1bff3164ff753a09e0460ed44d3abf73e79b817b500ed0f2f1929181900390910190a15050565b60cd80546001600160a01b0383166001600160a01b0319909116811790915560408051918252517ff1034ad6b4d45dc33a4142b9c51c2b7f89bf4a410696e426cc0f3224869e0aca9181900360200190a150565b60d68190556040805182815290517f20d916c976f3971e8200089411b0b712ef4612d98380b8ad2e3d8a8a376d85c79181900360200190a150565b60d78190556040805182815290517f0cd8fcb5e08d7632af461f0ad793e5c63dc0d7595c301f5880650175e37a87489181900360200190a150565b303b1590565b611391611e77565b80821115611e25576040805162461bcd60e51b815260206004820152601060248201526f34b73b30b634b210333930b1ba34b7b760811b604482015290519081900360640190fd5b60d29190915560d355565b600080606060405180602001611e45906120c1565b6020820181038252601f19601f8201166040525090508051602082016000f09150813b611e7157600080fd5b50905090565b600054610100900460ff1680611e905750611e90611dcf565b80611e9e575060005460ff16155b611ed95760405162461bcd60e51b815260040180806020018281038252602e81526020018061258b602e913960400191505060405180910390fd5b600054610100900460ff16158015611f04576000805460ff1961ff0019909116610100171660011790555b611f0c611f28565b611f14611fc8565b8015610cf0576000805461ff001916905550565b600054610100900460ff1680611f415750611f41611dcf565b80611f4f575060005460ff16155b611f8a5760405162461bcd60e51b815260040180806020018281038252602e81526020018061258b602e913960400191505060405180910390fd5b600054610100900460ff16158015611f14576000805460ff1961ff0019909116610100171660011790558015610cf0576000805461ff001916905550565b600054610100900460ff1680611fe15750611fe1611dcf565b80611fef575060005460ff16155b61202a5760405162461bcd60e51b815260040180806020018281038252602e81526020018061258b602e913960400191505060405180910390fd5b600054610100900460ff16158015612055576000805460ff1961ff0019909116610100171660011790555b600061205f6119f5565b606580546001600160a01b0319166001600160a01b038316908117909155604051919250906000907f8be0079c531659141344cd1fd0a4f28419497f9722a3daafe3b4186f6b6457e0908290a3508015610cf0576000805461ff001916905550565b610476806120cf8339019056fe608060405234801561001057600080fd5b50610456806100206000396000f3fe6080604052600436106100225760003560e01c8063e74a474a1461003957610031565b366100315761002f6100f4565b005b61002f6100f4565b61002f6004803603606081101561004f57600080fd5b6001600160a01b03823516919081019060408101602082013564010000000081111561007a57600080fd5b82018360208201111561008c57600080fd5b803590602001918460018302840111640100000000831117156100ae57600080fd5b91908080601f0160208091040260200160405190810160405280939291908181526020018383808284376000920191909152509295505050903560ff16915061010e9050565b6100fc61010c565b61010c610107610281565b610342565b565b6000610118610281565b6001600160a01b031614610163576040805162461bcd60e51b815260206004820152600d60248201526c496d706c206e6f74207a65726f60981b604482015290519081900360640190fd5b61016c83610366565b610175816103ce565b81511561027c576000610186610281565b6001600160a01b0316836040518082805190602001908083835b602083106101bf5780518252601f1990920191602091820191016101a0565b6001836020036101000a038019825116818451168082178552505050505050905001915050600060405180830381855af49150503d806000811461021f576040519150601f19603f3d011682016040523d82523d6000602084013e610224565b606091505b505090508061027a576040805162461bcd60e51b815260206004820152601a60248201527f496d706c656d656e746174696f6e20696e6974206661696c6564000000000000604482015290519081900360640190fd5b505b505050565b7f360894a13ba1a3210667c828492db98dca3e2076cc3735a920a3ca505d382bbc80546000916001600160a01b0382166102c05760009250505061033f565b816001600160a01b031663ecef89d56102d76103d6565b6040518263ffffffff1660e01b8152600401808260ff16815260200191505060206040518083038186803b15801561030e57600080fd5b505afa158015610322573d6000803e3d6000fd5b505050506040513d602081101561033857600080fd5b5051925050505b90565b3660008037600080366000845af43d6000803e808015610361573d6000f35b3d6000fd5b61036f816103df565b6103aa5760405162461bcd60e51b815260040180806020018281038252603b8152602001806103e6603b913960400191505060405180910390fd5b7f360894a13ba1a3210667c828492db98dca3e2076cc3735a920a3ca505d382bbc55565b600160fc1b55565b600160fc1b5490565b3b15159056fe43616e6e6f742073657420612070726f787920696d706c656d656e746174696f6e20746f2061206e6f6e2d636f6e74726163742061646472657373a264697066735822122074c59b121a2a0d1e02a85cb8ac366f5c31b6c267d5337204c70208ad502f448c64736f6c634300060c00334f776e61626c653a206e6577206f776e657220697320746865207a65726f20616464726573734f776e61626c653a2063616c6c6572206973206e6f7420746865206f776e6572436f6e747261637420696e7374616e63652068617320616c7265616479206265656e20696e697469616c697a65644f6e6c79206120706f6f6c206d616e6167657220636f6e74726163742063616e20706572666f726d207468697320616374696f6ea2646970667358221220098f14e0b7b6ea9c98f137ddcaf5f5f63e1acc5f6fc3a3168df553c00d5249dd64736f6c634300060c0033",
  "linkReferences": {},
  "deployedLinkReferences": {}
}