{
  "_format": "hh-sol-artifact-1",
  "contractName": "PoolFactory",
  "sourceName": "contracts/PoolFactory.sol",
  "abi": [
    {
      "anonymous": false,
      "inputs": [
        {
          "indexed": true,
          "internalType": "address",
          "name": "asset",
          "type": "address"
        }
      ],
      "name": "AddedValidAsset",
      "type": "event"
    },
    {
      "anonymous": false,
      "inputs": [
        {
          "indexed": false,
          "internalType": "address",
          "name": "dao",
          "type": "address"
        }
      ],
      "name": "DaoAddressSet",
      "type": "event"
    },
    {
      "anonymous": false,
      "inputs": [
        {
          "indexed": false,
          "internalType": "uint256",
          "name": "numerator",
          "type": "uint256"
        },
        {
          "indexed": false,
          "internalType": "uint256",
          "name": "denominator",
          "type": "uint256"
        }
      ],
      "name": "DaoFeeSet",
      "type": "event"
    },
    {
      "anonymous": false,
      "inputs": [
        {
          "indexed": false,
          "internalType": "uint256",
          "name": "cooldown",
          "type": "uint256"
        }
      ],
      "name": "ExitCooldownSet",
      "type": "event"
    },
    {
      "anonymous": false,
      "inputs": [
        {
          "indexed": false,
          "internalType": "uint256",
          "name": "numerator",
          "type": "uint256"
        },
        {
          "indexed": false,
          "internalType": "uint256",
          "name": "denominator",
          "type": "uint256"
        }
      ],
      "name": "ExitFeeSet",
      "type": "event"
    },
    {
      "anonymous": false,
      "inputs": [
        {
          "indexed": false,
          "internalType": "address",
          "name": "fundAddress",
          "type": "address"
        },
        {
          "indexed": false,
          "internalType": "bool",
          "name": "isPoolPrivate",
          "type": "bool"
        },
        {
          "indexed": false,
          "internalType": "string",
          "name": "fundName",
          "type": "string"
        },
        {
          "indexed": false,
          "internalType": "string",
          "name": "managerName",
          "type": "string"
        },
        {
          "indexed": false,
          "internalType": "address",
          "name": "manager",
          "type": "address"
        },
        {
          "indexed": false,
          "internalType": "uint256",
          "name": "time",
          "type": "uint256"
        },
        {
          "indexed": false,
          "internalType": "uint256",
          "name": "managerFeeNumerator",
          "type": "uint256"
        },
        {
          "indexed": false,
          "internalType": "uint256",
          "name": "managerFeeDenominator",
          "type": "uint256"
        }
      ],
      "name": "FundCreated",
      "type": "event"
    },
    {
      "anonymous": false,
      "inputs": [
        {
          "indexed": true,
          "internalType": "address",
          "name": "manager",
          "type": "address"
        },
        {
          "indexed": true,
          "internalType": "address",
          "name": "pool",
          "type": "address"
        }
      ],
      "name": "LogUpgrade",
      "type": "event"
    },
    {
      "anonymous": false,
      "inputs": [
        {
          "indexed": false,
          "internalType": "uint256",
          "name": "count",
          "type": "uint256"
        }
      ],
      "name": "MaximumSupportedAssetCountSet",
      "type": "event"
    },
    {
      "anonymous": false,
      "inputs": [
        {
          "indexed": true,
          "internalType": "address",
          "name": "previousOwner",
          "type": "address"
        },
        {
          "indexed": true,
          "internalType": "address",
          "name": "newOwner",
          "type": "address"
        }
      ],
      "name": "OwnershipTransferred",
      "type": "event"
    },
    {
      "anonymous": false,
      "inputs": [
        {
          "indexed": false,
          "internalType": "address",
          "name": "proxy",
          "type": "address"
        }
      ],
      "name": "ProxyCreated",
      "type": "event"
    },
    {
      "anonymous": false,
      "inputs": [
        {
          "indexed": true,
          "internalType": "address",
          "name": "asset",
          "type": "address"
        }
      ],
      "name": "RemovedValidAsset",
      "type": "event"
    },
    {
      "inputs": [
        {
          "internalType": "address",
          "name": "asset",
          "type": "address"
        },
        {
          "internalType": "address",
          "name": "aggregator",
          "type": "address"
        }
      ],
      "name": "addValidAsset",
      "outputs": [],
      "stateMutability": "nonpayable",
      "type": "function"
    },
    {
      "inputs": [
        {
          "internalType": "bool",
          "name": "_privatePool",
          "type": "bool"
        },
        {
          "internalType": "address",
          "name": "_manager",
          "type": "address"
        },
        {
          "internalType": "string",
          "name": "_managerName",
          "type": "string"
        },
        {
          "internalType": "string",
          "name": "_fundName",
          "type": "string"
        },
        {
          "internalType": "string",
          "name": "_fundSymbol",
          "type": "string"
        },
        {
          "internalType": "uint256",
          "name": "_managerFeeNumerator",
          "type": "uint256"
        },
        {
          "components": [
            {
              "internalType": "address",
              "name": "asset",
              "type": "address"
            },
            {
              "internalType": "bool",
              "name": "isDeposit",
              "type": "bool"
            }
          ],
          "internalType": "struct IPoolManagerLogic.Asset[]",
          "name": "_supportedAssets",
          "type": "tuple[]"
        }
      ],
      "name": "createFund",
      "outputs": [
        {
          "internalType": "address",
          "name": "",
          "type": "address"
        }
      ],
      "stateMutability": "nonpayable",
      "type": "function"
    },
    {
      "inputs": [
        {
          "internalType": "bytes",
          "name": "_data",
          "type": "bytes"
        },
        {
          "internalType": "uint8",
          "name": "_proxyType",
          "type": "uint8"
        }
      ],
      "name": "deploy",
      "outputs": [
        {
          "internalType": "address",
          "name": "",
          "type": "address"
        }
      ],
      "stateMutability": "nonpayable",
      "type": "function"
    },
    {
      "inputs": [
        {
          "internalType": "uint256",
          "name": "",
          "type": "uint256"
        }
      ],
      "name": "deployedFunds",
      "outputs": [
        {
          "internalType": "address",
          "name": "",
          "type": "address"
        }
      ],
      "stateMutability": "view",
      "type": "function"
    },
    {
      "inputs": [],
      "name": "deployedFundsLength",
      "outputs": [
        {
          "internalType": "uint256",
          "name": "",
          "type": "uint256"
        }
      ],
      "stateMutability": "view",
      "type": "function"
    },
    {
      "inputs": [],
      "name": "disableChainlink",
      "outputs": [],
      "stateMutability": "nonpayable",
      "type": "function"
    },
    {
      "inputs": [],
      "name": "enableChainlink",
      "outputs": [],
      "stateMutability": "nonpayable",
      "type": "function"
    },
    {
      "inputs": [],
      "name": "erc20Guard",
      "outputs": [
        {
          "internalType": "address",
          "name": "",
          "type": "address"
        }
      ],
      "stateMutability": "view",
      "type": "function"
    },
    {
      "inputs": [],
      "name": "getDaoAddress",
      "outputs": [
        {
          "internalType": "address",
          "name": "",
          "type": "address"
        }
      ],
      "stateMutability": "view",
      "type": "function"
    },
    {
      "inputs": [],
      "name": "getDaoFee",
      "outputs": [
        {
          "internalType": "uint256",
          "name": "",
          "type": "uint256"
        },
        {
          "internalType": "uint256",
          "name": "",
          "type": "uint256"
        }
      ],
      "stateMutability": "view",
      "type": "function"
    },
    {
      "inputs": [],
      "name": "getExitCooldown",
      "outputs": [
        {
          "internalType": "uint256",
          "name": "",
          "type": "uint256"
        }
      ],
      "stateMutability": "view",
      "type": "function"
    },
    {
      "inputs": [
        {
          "internalType": "address",
          "name": "extContract",
          "type": "address"
        }
      ],
      "name": "getGuard",
      "outputs": [
        {
          "internalType": "address",
          "name": "",
          "type": "address"
        }
      ],
      "stateMutability": "view",
      "type": "function"
    },
    {
      "inputs": [
        {
          "internalType": "uint8",
          "name": "_proxyType",
          "type": "uint8"
        }
      ],
      "name": "getLogic",
      "outputs": [
        {
          "internalType": "address",
          "name": "",
          "type": "address"
        }
      ],
      "stateMutability": "view",
      "type": "function"
    },
    {
      "inputs": [],
      "name": "getManagerFeeNumeratorChangeDelay",
      "outputs": [
        {
          "internalType": "uint256",
          "name": "",
          "type": "uint256"
        }
      ],
      "stateMutability": "view",
      "type": "function"
    },
    {
      "inputs": [],
      "name": "getMaximumManagerFee",
      "outputs": [
        {
          "internalType": "uint256",
          "name": "",
          "type": "uint256"
        },
        {
          "internalType": "uint256",
          "name": "",
          "type": "uint256"
        }
      ],
      "stateMutability": "view",
      "type": "function"
    },
    {
      "inputs": [],
      "name": "getMaximumManagerFeeNumeratorChange",
      "outputs": [
        {
          "internalType": "uint256",
          "name": "",
          "type": "uint256"
        }
      ],
      "stateMutability": "view",
      "type": "function"
    },
    {
      "inputs": [],
      "name": "getMaximumSupportedAssetCount",
      "outputs": [
        {
          "internalType": "uint256",
          "name": "",
          "type": "uint256"
        }
      ],
      "stateMutability": "view",
      "type": "function"
    },
    {
      "inputs": [
        {
          "internalType": "address",
          "name": "pool",
          "type": "address"
        }
      ],
      "name": "getPoolManagerFee",
      "outputs": [
        {
          "internalType": "uint256",
          "name": "",
          "type": "uint256"
        },
        {
          "internalType": "uint256",
          "name": "",
          "type": "uint256"
        }
      ],
      "stateMutability": "view",
      "type": "function"
    },
    {
      "inputs": [],
      "name": "getTrackingCode",
      "outputs": [
        {
          "internalType": "bytes32",
          "name": "",
          "type": "bytes32"
        }
      ],
      "stateMutability": "view",
      "type": "function"
    },
    {
      "inputs": [
        {
          "internalType": "address",
          "name": "_asset",
          "type": "address"
        }
      ],
      "name": "getUSDPrice",
      "outputs": [
        {
          "internalType": "uint256",
          "name": "",
          "type": "uint256"
        }
      ],
      "stateMutability": "view",
      "type": "function"
    },
    {
      "inputs": [
        {
          "internalType": "address",
          "name": "_poolLogic",
          "type": "address"
        },
        {
          "internalType": "address",
          "name": "_managerLogic",
          "type": "address"
        },
        {
          "internalType": "address",
          "name": "daoAddress",
          "type": "address"
        },
        {
          "internalType": "address[]",
          "name": "_validAssets",
          "type": "address[]"
        },
        {
          "internalType": "address[]",
          "name": "_aggregators",
          "type": "address[]"
        }
      ],
      "name": "initialize",
      "outputs": [],
      "stateMutability": "nonpayable",
      "type": "function"
    },
    {
      "inputs": [
        {
          "internalType": "address",
          "name": "",
          "type": "address"
        }
      ],
      "name": "isPool",
      "outputs": [
        {
          "internalType": "bool",
          "name": "",
          "type": "bool"
        }
      ],
      "stateMutability": "view",
      "type": "function"
    },
    {
      "inputs": [
        {
          "internalType": "address",
          "name": "",
          "type": "address"
        }
      ],
      "name": "isPoolManager",
      "outputs": [
        {
          "internalType": "bool",
          "name": "",
          "type": "bool"
        }
      ],
      "stateMutability": "view",
      "type": "function"
    },
    {
      "inputs": [
        {
          "internalType": "address",
          "name": "asset",
          "type": "address"
        }
      ],
      "name": "isValidAsset",
      "outputs": [
        {
          "internalType": "bool",
          "name": "",
          "type": "bool"
        }
      ],
      "stateMutability": "view",
      "type": "function"
    },
    {
      "inputs": [],
      "name": "managerFeeNumeratorChangeDelay",
      "outputs": [
        {
          "internalType": "uint256",
          "name": "",
          "type": "uint256"
        }
      ],
      "stateMutability": "view",
      "type": "function"
    },
    {
      "inputs": [],
      "name": "maximumManagerFeeNumeratorChange",
      "outputs": [
        {
          "internalType": "uint256",
          "name": "",
          "type": "uint256"
        }
      ],
      "stateMutability": "view",
      "type": "function"
    },
    {
      "inputs": [],
      "name": "owner",
      "outputs": [
        {
          "internalType": "address",
          "name": "",
          "type": "address"
        }
      ],
      "stateMutability": "view",
      "type": "function"
    },
    {
      "inputs": [
        {
          "internalType": "address",
          "name": "",
          "type": "address"
        }
      ],
      "name": "poolManagerFeeDenominator",
      "outputs": [
        {
          "internalType": "uint256",
          "name": "",
          "type": "uint256"
        }
      ],
      "stateMutability": "view",
      "type": "function"
    },
    {
      "inputs": [
        {
          "internalType": "address",
          "name": "",
          "type": "address"
        }
      ],
      "name": "poolManagerFeeNumerator",
      "outputs": [
        {
          "internalType": "uint256",
          "name": "",
          "type": "uint256"
        }
      ],
      "stateMutability": "view",
      "type": "function"
    },
    {
      "inputs": [],
      "name": "poolStorageVersion",
      "outputs": [
        {
          "internalType": "uint256",
          "name": "",
          "type": "uint256"
        }
      ],
      "stateMutability": "view",
      "type": "function"
    },
    {
      "inputs": [
        {
          "internalType": "address",
          "name": "",
          "type": "address"
        }
      ],
      "name": "poolVersion",
      "outputs": [
        {
          "internalType": "uint256",
          "name": "",
          "type": "uint256"
        }
      ],
      "stateMutability": "view",
      "type": "function"
    },
    {
      "inputs": [
        {
          "internalType": "address",
          "name": "asset",
          "type": "address"
        }
      ],
      "name": "removeValidAsset",
      "outputs": [],
      "stateMutability": "nonpayable",
      "type": "function"
    },
    {
      "inputs": [],
      "name": "renounceOwnership",
      "outputs": [],
      "stateMutability": "nonpayable",
      "type": "function"
    },
    {
      "inputs": [
        {
          "internalType": "address",
          "name": "daoAddress",
          "type": "address"
        }
      ],
      "name": "setDaoAddress",
      "outputs": [],
      "stateMutability": "nonpayable",
      "type": "function"
    },
    {
      "inputs": [
        {
          "internalType": "uint256",
          "name": "numerator",
          "type": "uint256"
        },
        {
          "internalType": "uint256",
          "name": "denominator",
          "type": "uint256"
        }
      ],
      "name": "setDaoFee",
      "outputs": [],
      "stateMutability": "nonpayable",
      "type": "function"
    },
    {
      "inputs": [
        {
          "internalType": "address",
          "name": "_guard",
          "type": "address"
        }
      ],
      "name": "setERC20Guard",
      "outputs": [],
      "stateMutability": "nonpayable",
      "type": "function"
    },
    {
      "inputs": [
        {
          "internalType": "uint256",
          "name": "cooldown",
          "type": "uint256"
        }
      ],
      "name": "setExitCooldown",
      "outputs": [],
      "stateMutability": "nonpayable",
      "type": "function"
    },
    {
      "inputs": [
        {
          "internalType": "address",
          "name": "extContract",
          "type": "address"
        },
        {
          "internalType": "address",
          "name": "guardAddress",
          "type": "address"
        }
      ],
      "name": "setGuard",
      "outputs": [],
      "stateMutability": "nonpayable",
      "type": "function"
    },
    {
      "inputs": [
        {
          "internalType": "address",
          "name": "_poolLogic",
          "type": "address"
        },
        {
          "internalType": "address",
          "name": "_poolManagerLogic",
          "type": "address"
        }
      ],
      "name": "setLogic",
      "outputs": [],
      "stateMutability": "nonpayable",
      "type": "function"
    },
    {
      "inputs": [
        {
          "internalType": "uint256",
          "name": "delay",
          "type": "uint256"
        }
      ],
      "name": "setManagerFeeNumeratorChangeDelay",
      "outputs": [],
      "stateMutability": "nonpayable",
      "type": "function"
    },
    {
      "inputs": [
        {
          "internalType": "uint256",
          "name": "amount",
          "type": "uint256"
        }
      ],
      "name": "setMaximumManagerFeeNumeratorChange",
      "outputs": [],
      "stateMutability": "nonpayable",
      "type": "function"
    },
    {
      "inputs": [
        {
          "internalType": "uint256",
          "name": "count",
          "type": "uint256"
        }
      ],
      "name": "setMaximumSupportedAssetCount",
      "outputs": [],
      "stateMutability": "nonpayable",
      "type": "function"
    },
    {
      "inputs": [
        {
          "internalType": "address",
          "name": "pool",
          "type": "address"
        },
        {
          "internalType": "uint256",
          "name": "numerator",
          "type": "uint256"
        }
      ],
      "name": "setPoolManagerFeeNumerator",
      "outputs": [],
      "stateMutability": "nonpayable",
      "type": "function"
    },
    {
      "inputs": [
        {
          "internalType": "bytes32",
          "name": "code",
          "type": "bytes32"
        }
      ],
      "name": "setTrackingCode",
      "outputs": [],
      "stateMutability": "nonpayable",
      "type": "function"
    },
    {
      "inputs": [
        {
          "internalType": "address",
          "name": "newOwner",
          "type": "address"
        }
      ],
      "name": "transferOwnership",
      "outputs": [],
      "stateMutability": "nonpayable",
      "type": "function"
    },
    {
      "inputs": [
        {
          "internalType": "uint256",
          "name": "startIndex",
          "type": "uint256"
        },
        {
          "internalType": "uint256",
          "name": "endIndex",
          "type": "uint256"
        },
        {
          "internalType": "uint256",
          "name": "sourceVersion",
          "type": "uint256"
        },
        {
          "internalType": "uint256",
          "name": "targetVersion",
          "type": "uint256"
        },
        {
          "internalType": "bytes",
          "name": "data",
          "type": "bytes"
        }
      ],
      "name": "upgradePoolBatch",
      "outputs": [],
      "stateMutability": "nonpayable",
      "type": "function"
    }
  ],
  "bytecode": "0x608060405234801561001057600080fd5b50612a8b806100206000396000f3fe608060405234801561001057600080fd5b506004361061028a5760003560e01c80638da5cb5b1161015c578063bee37e52116100ce578063e60eb41211610087578063e60eb41214610517578063e99c0fa61461052a578063ebee461d1461053d578063ecef89d514610545578063eec16c4414610558578063f2fde38b1461056b5761028a565b8063bee37e52146104bb578063bfeaf71d146104ce578063c8dc73a1146104d6578063cc435bf3146104e9578063d54e96d2146104fc578063dc76d254146105045761028a565b8063aa12ae4d11610120578063aa12ae4d1461045f578063aa7d664e14610467578063b193a5f41461047a578063b28060011461048d578063b7a5452614610495578063bcb01f44146104a85761028a565b80638da5cb5b1461041357806394d0d23b1461041b5780639a068bd6146104315780639a3cac6a146104445780639cada6e4146104575761028a565b80635556ee5511610200578063771d1baf116101b9578063771d1baf146103ac57806378a86e3a146103bf578063790fcf9f146103d2578063808ae5fb146103e55780638b2f0f4f146103f85780638d554cad1461040b5761028a565b80635556ee55146103435780635b16ebb7146103565780635c9bfc2b146103765780637027ea6c1461037e578063715018a614610391578063742a96cd146103995761028a565b80631e666d13116102525780631e666d13146102e75780631e8e8bca146102fa578063227773ee1461030d5780634501b0881461032057806345812ca51461032857806349f7c02d1461033b5761028a565b8063046b72c41461028f5780630bf99bd9146102a45780630f6559c4146102c257806310bf69dc146102ca5780631d68702d146102d2575b600080fd5b6102a261029d366004611d1a565b61057e565b005b6102ac61064d565b6040516102b99190612189565b60405180910390f35b6102ac610653565b6102ac610659565b6102da61065f565b6040516102b99190611ffc565b6102a26102f5366004611eb2565b61066e565b6102a2610308366004611e35565b610748565b6102a261031b366004611c50565b610789565b6102ac6107bd565b6102da610336366004611e4d565b6107c3565b6102ac6107d8565b6102ac610351366004611c35565b6107de565b610369610364366004611c35565b6107f0565b6040516102b9919061217e565b6102ac610805565b6102da61038c366004611c35565b61080b565b6102a261084f565b6102a26103a7366004611c50565b6108ce565b6102a26103ba366004611e91565b610983565b6102da6103cd366004611d60565b6109c2565b6102a26103e0366004611c84565b610be3565b6102a26103f3366004611c50565b610d79565b6102ac610406366004611c35565b610ddc565b6102da610f0e565b6102da610f1d565b610423610f2c565b6040516102b99291906125a1565b6102da61043f366004611e35565b610f36565b6102a2610452366004611c35565b610f5d565b610423610f9b565b6102ac610fa5565b6102a2610475366004611e35565b610fab565b610369610488366004611c35565b610fe9565b6102a2610ffe565b6104236104a3366004611c35565b611055565b6102a26104b6366004611e35565b6110be565b6102ac6104c9366004611c35565b6110f8565b6102ac61110a565b6102a26104e4366004611c35565b611110565b6103696104f7366004611c35565b61115c565b6102a261117a565b6102a2610512366004611c35565b6111d3565b6102ac610525366004611c35565b611282565b6102a2610538366004611e35565b611294565b6102ac6112ce565b6102da610553366004611f45565b6112d4565b6102a2610566366004611e35565b611306565b6102a2610579366004611c35565b611344565b33600090815260d2602052604090205460ff1615156001146105bb5760405162461bcd60e51b81526004016105b290612192565b60405180910390fd5b6001600160a01b038216600090815260d1602052604090205460ff1615156001146105f85760405162461bcd60e51b81526004016105b29061256a565b60dd546001600160a01b038316600090815260d5602052604090205461061d916113fb565b81111561063c5760405162461bcd60e51b81526004016105b2906122ab565b610649828260d454611420565b5050565b60cd5490565b60dc5481565b60dd5481565b60ce546001600160a01b031690565b610676611476565b6065546001600160a01b039081169116146106a35760405162461bcd60e51b81526004016105b29061242b565b8486111580156106b4575060cd5486105b80156106c1575060cd5485105b6106dd5760405162461bcd60e51b81526004016105b2906121be565b855b85811161073f57600060cd82815481106106f557fe5b60009182526020808320909101546001600160a01b031680835260db90915260409091205490915086146107295750610737565b6107358185858861147a565b505b6001016106df565b50505050505050565b610750611476565b6065546001600160a01b0390811691161461077d5760405162461bcd60e51b81526004016105b29061242b565b61078681611578565b50565b60ce546001600160a01b031633146107b35760405162461bcd60e51b81526004016105b290612263565b610649828261157d565b60d75490565b60006107cf83836115ab565b90505b92915050565b60da5490565b60db6020526000908152604090205481565b60d16020526000908152604090205460ff1681565b60dd5490565b60006108168261115c565b1561082d575060e0546001600160a01b031661084a565b506001600160a01b03808216600090815260df6020526040902054165b919050565b610857611476565b6065546001600160a01b039081169116146108845760405162461bcd60e51b81526004016105b29061242b565b6065546040516000916001600160a01b0316907f8be0079c531659141344cd1fd0a4f28419497f9722a3daafe3b4186f6b6457e0908390a3606580546001600160a01b0319169055565b60ce546001600160a01b031633146108f85760405162461bcd60e51b81526004016105b290612263565b6109018261115c565b1561091e5760405162461bcd60e51b81526004016105b2906124ae565b6001600160a01b038216600090815260d860205260409020805460ff1916600117905561094b8282611658565b6040516001600160a01b038316907fd63c302652b86334fe4eb891e7a01e61e836496485d9394f2c95b4222006ae5090600090a25050565b61098b611476565b6065546001600160a01b039081169116146109b85760405162461bcd60e51b81526004016105b29061242b565b6106498282611686565b60006060308888856040516024016109dd9493929190612010565b60408051601f198184030181529190526020810180516001600160e01b0316630a3df85f60e11b17905290506000610a168260016107c3565b90506060308b898985604051602401610a3395949392919061208c565b60408051601f198184030181529190526020810180516001600160e01b0316630ccb30c760e01b17905290506000610a6c8260026107c3565b604051638e10153d60e01b81529091506001600160a01b03841690638e10153d90610a9b908490600401611ffc565b602060405180830381600087803b158015610ab557600080fd5b505af1158015610ac9573d6000803e3d6000fd5b505050506040513d601f19601f82011682018060405250810190610aed9190611d44565b5060cd805460018082019092557f83978b4c69c48dd978ab43fe30f077615294f938fb7f936d9eb340e51ea7db2e0180546001600160a01b0319166001600160a01b03848116918217909255600081815260d160209081526040808320805460ff199081168817909155948916835260d28252808320805490951690951790935560dc5491815260db9092529190205560d454610b8d9082908990611420565b7f73a0638fe578fc759744633aa170a433061ca2cc1bb855d116c506e04a29901f818d8b8d8f428d60d454604051610bcc9897969594939291906120de565b60405180910390a19b9a5050505050505050505050565b600054610100900460ff1680610bfc5750610bfc6116ee565b80610c0a575060005460ff16155b610c265760405162461bcd60e51b81526004016105b290612460565b600054610100900460ff16158015610c51576000805460ff1961ff0019909116610100171660011790555b610c5b86866116f4565b610c64846116fc565b610c72611388612710611752565b610c7e600a6064611686565b610c8a6201518061177d565b610c966224ea006110be565b610ca16103e8611294565b610cab600a6117b2565b610cbd6544484544474560d01b611578565b60005b83518160ff161015610d5e57600160d86000868460ff1681518110610ce157fe5b60200260200101516001600160a01b03166001600160a01b0316815260200190815260200160002060006101000a81548160ff021916908315150217905550610d56848260ff1681518110610d3257fe5b6020026020010151848360ff1681518110610d4957fe5b6020026020010151611658565b600101610cc0565b508015610d71576000805461ff00191690555b505050505050565b610d81611476565b6065546001600160a01b03908116911614610dae5760405162461bcd60e51b81526004016105b29061242b565b609780546001600160a01b039384166001600160a01b03199182161790915560988054929093169116179055565b6001600160a01b03808216600090815260cc602052604081205490911680610e165760405162461bcd60e51b81526004016105b2906122d9565b60cb5460009060ff16610ee757816001600160a01b031663feaf968c6040518163ffffffff1660e01b815260040160a06040518083038186803b158015610e5c57600080fd5b505afa925050508015610e8c575060408051601f3d908101601f19168201909252610e8991810190611f60565b60015b610ea85760405162461bcd60e51b81526004016105b2906123e7565b42610eb68362015f906113fb565b1015610ed45760405162461bcd60e51b81526004016105b2906124dc565b6000841315610ee1578395505b50505050505b60008111610f075760405162461bcd60e51b81526004016105b2906123e7565b9392505050565b60e0546001600160a01b031681565b6065546001600160a01b031690565b60d35460d4549091565b60cd8181548110610f4357fe5b6000918252602090912001546001600160a01b0316905081565b610f65611476565b6065546001600160a01b03908116911614610f925760405162461bcd60e51b81526004016105b29061242b565b610786816116fc565b60cf5460d0549091565b60d95490565b610fb3611476565b6065546001600160a01b03908116911614610fe05760405162461bcd60e51b81526004016105b29061242b565b6107868161177d565b60d26020526000908152604090205460ff1681565b60ce546001600160a01b031633146110285760405162461bcd60e51b81526004016105b290612263565b60cb5460ff161561104b5760405162461bcd60e51b81526004016105b290612524565b6110536117e7565b565b6001600160a01b038116600090815260d16020526040812054819060ff1615156001146110945760405162461bcd60e51b81526004016105b29061256a565b50506001600160a01b0316600090815260d5602090815260408083205460d6909252909120549091565b6110c6611476565b6065546001600160a01b039081169116146110f35760405162461bcd60e51b81526004016105b29061242b565b60de55565b60d56020526000908152604090205481565b60de5481565b60ce546001600160a01b0316331461113a5760405162461bcd60e51b81526004016105b290612263565b60e080546001600160a01b0319166001600160a01b0392909216919091179055565b6001600160a01b0316600090815260d8602052604090205460ff1690565b60ce546001600160a01b031633146111a45760405162461bcd60e51b81526004016105b290612263565b60cb5460ff1615156001146111cb5760405162461bcd60e51b81526004016105b290612346565b6110536117f6565b60ce546001600160a01b031633146111fd5760405162461bcd60e51b81526004016105b290612263565b6112068161115c565b6112225760405162461bcd60e51b81526004016105b290612390565b6001600160a01b038116600090815260d860205260409020805460ff1916905561124b81611802565b6040516001600160a01b038216907fe8b3c469b395bfd934168e4b7d14590c9cd1a6740533df170dbe3c219ff5a67490600090a250565b60d66020526000908152604090205481565b61129c611476565b6065546001600160a01b039081169116146112c95760405162461bcd60e51b81526004016105b29061242b565b60dd55565b60de5490565b60008160ff16600114156112f457506098546001600160a01b031661084a565b506097546001600160a01b031661084a565b61130e611476565b6065546001600160a01b0390811691161461133b5760405162461bcd60e51b81526004016105b29061242b565b610786816117b2565b61134c611476565b6065546001600160a01b039081169116146113795760405162461bcd60e51b81526004016105b29061242b565b6001600160a01b03811661139f5760405162461bcd60e51b81526004016105b2906121e6565b6065546040516001600160a01b038084169216907f8be0079c531659141344cd1fd0a4f28419497f9722a3daafe3b4186f6b6457e090600090a3606580546001600160a01b0319166001600160a01b0392909216919091179055565b6000828201838110156107cf5760405162461bcd60e51b81526004016105b29061222c565b808211158015611432575060d3548211155b61144e5760405162461bcd60e51b81526004016105b2906123bd565b6001600160a01b03909216600090815260d5602090815260408083209390935560d690522055565b3390565b6001600160a01b0384166114a05760405162461bcd60e51b81526004016105b29061231e565b816114bd5760405162461bcd60e51b81526004016105b290612285565b606083838080601f016020809104026020016040519081016040528093929190818152602001838380828437600092018290525084519495509384935091505060208401885af48015600181146115135761151e565b3d806000803e806000fd5b50506040516001600160a01b0386169033907f78a9b536049c39a00adaf57016b1376c99dd48a0faf2cef23690232f21ce42cc90600090a3506001600160a01b03909316600090815260db60205260409020929092555050565b60da55565b6001600160a01b03918216600090815260df6020526040902080546001600160a01b03191691909216179055565b6000806115b6611829565b90507efffc2da0b561cae30d9826d37709e9421c4725faebc226cbbb7ef5fc5e7349816040516115e69190611ffc565b60405180910390a16040516373a523a560e11b81526001600160a01b0382169063e74a474a9061161e90309088908890600401612147565b600060405180830381600087803b15801561163857600080fd5b505af115801561164c573d6000803e3d6000fd5b50929695505050505050565b6001600160a01b03918216600090815260cc6020526040902080546001600160a01b03191691909216179055565b808211156116a65760405162461bcd60e51b81526004016105b2906123bd565b60cf82905560d08190556040517fb10da2958bf5ec1bff3164ff753a09e0460ed44d3abf73e79b817b500ed0f2f1906116e290849084906125a1565b60405180910390a15050565b303b1590565b610dae611870565b60ce80546001600160a01b0319166001600160a01b0383161790556040517ff1034ad6b4d45dc33a4142b9c51c2b7f89bf4a410696e426cc0f3224869e0aca90611747908390611ffc565b60405180910390a150565b808211156117725760405162461bcd60e51b81526004016105b2906123bd565b60d39190915560d455565b60d78190556040517f20d916c976f3971e8200089411b0b712ef4612d98380b8ad2e3d8a8a376d85c790611747908390612189565b60d98190556040517f0cd8fcb5e08d7632af461f0ad793e5c63dc0d7595c301f5880650175e37a874890611747908390612189565b60cb805460ff19166001179055565b60cb805460ff19169055565b6001600160a01b0316600090815260cc6020526040902080546001600160a01b0319169055565b60008060606040518060200161183e90611a5d565b6020820181038252601f19601f8201166040525090508051602082016000f09150813b61186a57600080fd5b50905090565b600054610100900460ff168061188957506118896116ee565b80611897575060005460ff16155b6118b35760405162461bcd60e51b81526004016105b290612460565b600054610100900460ff161580156118de576000805460ff1961ff0019909116610100171660011790555b6118e6611902565b6118ee611983565b8015610786576000805461ff001916905550565b600054610100900460ff168061191b575061191b6116ee565b80611929575060005460ff16155b6119455760405162461bcd60e51b81526004016105b290612460565b600054610100900460ff161580156118ee576000805460ff1961ff0019909116610100171660011790558015610786576000805461ff001916905550565b600054610100900460ff168061199c575061199c6116ee565b806119aa575060005460ff16155b6119c65760405162461bcd60e51b81526004016105b290612460565b600054610100900460ff161580156119f1576000805460ff1961ff0019909116610100171660011790555b60006119fb611476565b606580546001600160a01b0319166001600160a01b038316908117909155604051919250906000907f8be0079c531659141344cd1fd0a4f28419497f9722a3daafe3b4186f6b6457e0908290a3508015610786576000805461ff001916905550565b6104518061260583390190565b80356001600160a01b03811681146107d257600080fd5b600082601f830112611a91578081fd5b8135611aa4611a9f826125d6565b6125af565b818152915060208083019084810181840286018201871015611ac557600080fd5b60005b84811015611aec57611ada8883611a6a565b84529282019290820190600101611ac8565b505050505092915050565b600082601f830112611b07578081fd5b8135611b15611a9f826125d6565b8181529150602080830190848101604080850287018301881015611b3857600080fd5b6000805b86811015611b895782848b031215611b52578182fd5b611b5b836125af565b611b658b86611a6a565b8152611b738b878701611b96565b8187015286529484019492820192600101611b3c565b5050505050505092915050565b80356107d2816125f6565b600082601f830112611bb1578081fd5b813567ffffffffffffffff811115611bc7578182fd5b611bda601f8201601f19166020016125af565b9150808252836020828501011115611bf157600080fd5b8060208401602084013760009082016020015292915050565b803560ff811681146107d257600080fd5b805169ffffffffffffffffffff811681146107d257600080fd5b600060208284031215611c46578081fd5b6107cf8383611a6a565b60008060408385031215611c62578081fd5b611c6c8484611a6a565b9150611c7b8460208501611a6a565b90509250929050565b600080600080600060a08688031215611c9b578081fd5b611ca58787611a6a565b9450611cb48760208801611a6a565b9350611cc38760408801611a6a565b9250606086013567ffffffffffffffff80821115611cdf578283fd5b611ceb89838a01611a81565b93506080880135915080821115611d00578283fd5b50611d0d88828901611a81565b9150509295509295909350565b60008060408385031215611d2c578182fd5b611d368484611a6a565b946020939093013593505050565b600060208284031215611d55578081fd5b81516107cf816125f6565b600080600080600080600060e0888a031215611d7a578182fd5b611d848989611b96565b9650611d938960208a01611a6a565b9550604088013567ffffffffffffffff80821115611daf578384fd5b611dbb8b838c01611ba1565b965060608a0135915080821115611dd0578384fd5b611ddc8b838c01611ba1565b955060808a0135915080821115611df1578384fd5b611dfd8b838c01611ba1565b945060a08a0135935060c08a0135915080821115611e19578283fd5b50611e268a828b01611af7565b91505092959891949750929550565b600060208284031215611e46578081fd5b5035919050565b60008060408385031215611e5f578182fd5b823567ffffffffffffffff811115611e75578283fd5b611e8185828601611ba1565b925050611c7b8460208501611c0a565b60008060408385031215611ea3578182fd5b50508035926020909101359150565b60008060008060008060a08789031215611eca578384fd5b86359550602087013594506040870135935060608701359250608087013567ffffffffffffffff80821115611efd578384fd5b818901915089601f830112611f10578384fd5b813581811115611f1e578485fd5b8a6020828501011115611f2f578485fd5b6020830194508093505050509295509295509295565b600060208284031215611f56578081fd5b6107cf8383611c0a565b600080600080600060a08688031215611f77578283fd5b611f818787611c1b565b9450602086015193506040860151925060608601519150611fa58760808801611c1b565b90509295509295909350565b60008151808452815b81811015611fd657602081850181015186830182015201611fba565b81811115611fe75782602083870101525b50601f01601f19169290920160200192915050565b6001600160a01b0391909116815260200190565b600060018060a01b038087168352602081871681850152604060808186015261203c6080860188611fb1565b8581036060870152865180825283880191840190865b8181101561207b5783518051881684528601511515868401529285019291840191600101612052565b50909b9a5050505050505050505050565b600060018060a01b038088168352861515602084015260a060408401526120b660a0840187611fb1565b83810360608501526120c88187611fb1565b9250508084166080840152509695505050505050565b6001600160a01b03898116825288151560208301526101006040830181905260009161210c8483018b611fb1565b91508382036060850152612120828a611fb1565b97166080840152505060a081019390935260c083019190915260e090910152949350505050565b6001600160a01b038416815260606020820181905260009061216b90830185611fb1565b905060ff83166040830152949350505050565b901515815260200190565b90815260200190565b6020808252601290820152712737ba1030903837b7b61036b0b730b3b2b960711b604082015260600190565b6020808252600e908201526d696e76616c696420626f756e647360901b604082015260600190565b60208082526026908201527f4f776e61626c653a206e6577206f776e657220697320746865207a65726f206160408201526564647265737360d01b606082015260800190565b6020808252601b908201527f536166654d6174683a206164646974696f6e206f766572666c6f770000000000604082015260600190565b6020808252600890820152676f6e6c792064616f60c01b604082015260600190565b6020808252600c908201526b19185d184b5a5b9d985b1a5960a21b604082015260600190565b6020808252601490820152730dac2dcc2cecae440cccaca40e8dede40d0d2ced60631b604082015260600190565b60208082526025908201527f5072696365436f6e73756d657256333a2061676772656761746f72206e6f7420604082015264199bdd5b9960da1b606082015260800190565b6020808252600e908201526d1d185c99d95d0b5a5b9d985b1a5960921b604082015260600190565b6020808252602a908201527f5072696365436f6e73756d657256333a20636861696e6c696e6b20616c726561604082015269191e48195b98589b195960b21b606082015260800190565b602080825260139082015272185cdcd95d08191bd95cdb89dd08195e1a5cdd606a1b604082015260600190565b60208082526010908201526f34b73b30b634b210333930b1ba34b7b760811b604082015260600190565b60208082526024908201527f5072696365436f6e73756d657256333a207072696365206e6f7420617661696c60408201526361626c6560e01b606082015260800190565b6020808252818101527f4f776e61626c653a2063616c6c6572206973206e6f7420746865206f776e6572604082015260600190565b6020808252602e908201527f436f6e747261637420696e7374616e63652068617320616c726561647920626560408201526d195b881a5b9a5d1a585b1a5e995960921b606082015260800190565b602080825260149082015273617373657420616c72656164792065786973747360601b604082015260600190565b60208082526028908201527f5072696365436f6e73756d657256333a20636861696e6c696e6b20707269636560408201526708195e1c1a5c995960c21b606082015260800190565b60208082526026908201527f5072696365436f6e73756d657256333a20636861696e6c696e6b206e6f7420656040820152651b98589b195960d21b606082015260800190565b6020808252601e908201527f737570706c6965642061646472657373206973206e6f74206120706f6f6c0000604082015260600190565b918252602082015260400190565b60405181810167ffffffffffffffff811182821017156125ce57600080fd5b604052919050565b600067ffffffffffffffff8211156125ec578081fd5b5060209081020190565b801515811461078657600080fdfe608060405234801561001057600080fd5b50610431806100206000396000f3fe6080604052600436106100225760003560e01c8063e74a474a1461003957610031565b366100315761002f6100f4565b005b61002f6100f4565b61002f6004803603606081101561004f57600080fd5b6001600160a01b03823516919081019060408101602082013564010000000081111561007a57600080fd5b82018360208201111561008c57600080fd5b803590602001918460018302840111640100000000831117156100ae57600080fd5b91908080601f0160208091040260200160405190810160405280939291908181526020018383808284376000920191909152509295505050903560ff16915061010e9050565b6100fc61010c565b61010c610107610281565b610342565b565b6000610118610281565b6001600160a01b031614610163576040805162461bcd60e51b815260206004820152600d60248201526c496d706c206e6f74207a65726f60981b604482015290519081900360640190fd5b61016c83610366565b610175816103e4565b81511561027c576000610186610281565b6001600160a01b0316836040518082805190602001908083835b602083106101bf5780518252601f1990920191602091820191016101a0565b6001836020036101000a038019825116818451168082178552505050505050905001915050600060405180830381855af49150503d806000811461021f576040519150601f19603f3d011682016040523d82523d6000602084013e610224565b606091505b505090508061027a576040805162461bcd60e51b815260206004820152601a60248201527f496d706c656d656e746174696f6e20696e6974206661696c6564000000000000604482015290519081900360640190fd5b505b505050565b7f360894a13ba1a3210667c828492db98dca3e2076cc3735a920a3ca505d382bbc80546000916001600160a01b0382166102c05760009250505061033f565b816001600160a01b031663ecef89d56102d76103ec565b6040518263ffffffff1660e01b8152600401808260ff16815260200191505060206040518083038186803b15801561030e57600080fd5b505afa158015610322573d6000803e3d6000fd5b505050506040513d602081101561033857600080fd5b5051925050505b90565b3660008037600080366000845af43d6000803e808015610361573d6000f35b3d6000fd5b61036f816103f5565b6103c0576040805162461bcd60e51b815260206004820181905260248201527f43616e6e6f742073657420696d706c656d656e746174696f6e20746f20454f41604482015290519081900360640190fd5b7f360894a13ba1a3210667c828492db98dca3e2076cc3735a920a3ca505d382bbc55565b600160fc1b55565b600160fc1b5490565b3b15159056fea26469706673582212208fb46f65a29ee18e860904dd11c61ab753d42dbb0a06704c916403fc4559feef64736f6c634300060c0033a2646970667358221220908e452d77d4d3645f4477233f79198a266e66c9d00661adac2bd2c0d27b527564736f6c634300060c0033",
  "linkReferences": {},
  "deployedLinkReferences": {}
}