{
  "_format": "hh-sol-artifact-1",
  "contractName": "PoolFactory-ovm",
  "sourceName": "contracts/PoolFactory.sol",
  "abi": [
    {
      "anonymous": false,
      "inputs": [
        {
          "indexed": true,
          "internalType": "address",
          "name": "asset",
          "type": "address"
        }
      ],
      "name": "AddedValidAsset",
      "type": "event"
    },
    {
      "anonymous": false,
      "inputs": [
        {
          "indexed": false,
          "internalType": "address",
          "name": "dao",
          "type": "address"
        }
      ],
      "name": "DaoAddressSet",
      "type": "event"
    },
    {
      "anonymous": false,
      "inputs": [
        {
          "indexed": false,
          "internalType": "uint256",
          "name": "numerator",
          "type": "uint256"
        },
        {
          "indexed": false,
          "internalType": "uint256",
          "name": "denominator",
          "type": "uint256"
        }
      ],
      "name": "DaoFeeSet",
      "type": "event"
    },
    {
      "anonymous": false,
      "inputs": [
        {
          "indexed": false,
          "internalType": "uint256",
          "name": "cooldown",
          "type": "uint256"
        }
      ],
      "name": "ExitCooldownSet",
      "type": "event"
    },
    {
      "anonymous": false,
      "inputs": [
        {
          "indexed": false,
          "internalType": "uint256",
          "name": "numerator",
          "type": "uint256"
        },
        {
          "indexed": false,
          "internalType": "uint256",
          "name": "denominator",
          "type": "uint256"
        }
      ],
      "name": "ExitFeeSet",
      "type": "event"
    },
    {
      "anonymous": false,
      "inputs": [
        {
          "indexed": false,
          "internalType": "address",
          "name": "fundAddress",
          "type": "address"
        },
        {
          "indexed": false,
          "internalType": "bool",
          "name": "isPoolPrivate",
          "type": "bool"
        },
        {
          "indexed": false,
          "internalType": "string",
          "name": "fundName",
          "type": "string"
        },
        {
          "indexed": false,
          "internalType": "string",
          "name": "managerName",
          "type": "string"
        },
        {
          "indexed": false,
          "internalType": "address",
          "name": "manager",
          "type": "address"
        },
        {
          "indexed": false,
          "internalType": "uint256",
          "name": "time",
          "type": "uint256"
        },
        {
          "indexed": false,
          "internalType": "uint256",
          "name": "managerFeeNumerator",
          "type": "uint256"
        },
        {
          "indexed": false,
          "internalType": "uint256",
          "name": "managerFeeDenominator",
          "type": "uint256"
        }
      ],
      "name": "FundCreated",
      "type": "event"
    },
    {
      "anonymous": false,
      "inputs": [
        {
          "indexed": true,
          "internalType": "address",
          "name": "manager",
          "type": "address"
        },
        {
          "indexed": true,
          "internalType": "address",
          "name": "pool",
          "type": "address"
        }
      ],
      "name": "LogUpgrade",
      "type": "event"
    },
    {
      "anonymous": false,
      "inputs": [
        {
          "indexed": false,
          "internalType": "uint256",
          "name": "count",
          "type": "uint256"
        }
      ],
      "name": "MaximumSupportedAssetCountSet",
      "type": "event"
    },
    {
      "anonymous": false,
      "inputs": [
        {
          "indexed": true,
          "internalType": "address",
          "name": "previousOwner",
          "type": "address"
        },
        {
          "indexed": true,
          "internalType": "address",
          "name": "newOwner",
          "type": "address"
        }
      ],
      "name": "OwnershipTransferred",
      "type": "event"
    },
    {
      "anonymous": false,
      "inputs": [
        {
          "indexed": false,
          "internalType": "address",
          "name": "account",
          "type": "address"
        }
      ],
      "name": "Paused",
      "type": "event"
    },
    {
      "anonymous": false,
      "inputs": [
        {
          "indexed": false,
          "internalType": "address",
          "name": "proxy",
          "type": "address"
        }
      ],
      "name": "ProxyCreated",
      "type": "event"
    },
    {
      "anonymous": false,
      "inputs": [
        {
          "indexed": true,
          "internalType": "address",
          "name": "asset",
          "type": "address"
        }
      ],
      "name": "RemovedValidAsset",
      "type": "event"
    },
    {
      "anonymous": false,
      "inputs": [
        {
          "indexed": false,
          "internalType": "address",
          "name": "account",
          "type": "address"
        }
      ],
      "name": "Unpaused",
      "type": "event"
    },
    {
      "inputs": [
        {
          "internalType": "address",
          "name": "asset",
          "type": "address"
        },
        {
          "internalType": "address",
          "name": "aggregator",
          "type": "address"
        }
      ],
      "name": "addValidAsset",
      "outputs": [],
      "stateMutability": "nonpayable",
      "type": "function"
    },
    {
      "inputs": [
        {
          "internalType": "bool",
          "name": "_privatePool",
          "type": "bool"
        },
        {
          "internalType": "address",
          "name": "_manager",
          "type": "address"
        },
        {
          "internalType": "string",
          "name": "_managerName",
          "type": "string"
        },
        {
          "internalType": "string",
          "name": "_fundName",
          "type": "string"
        },
        {
          "internalType": "string",
          "name": "_fundSymbol",
          "type": "string"
        },
        {
          "internalType": "uint256",
          "name": "_managerFeeNumerator",
          "type": "uint256"
        },
        {
          "components": [
            {
              "internalType": "address",
              "name": "asset",
              "type": "address"
            },
            {
              "internalType": "bool",
              "name": "isDeposit",
              "type": "bool"
            }
          ],
          "internalType": "struct IPoolManagerLogic.Asset[]",
          "name": "_supportedAssets",
          "type": "tuple[]"
        }
      ],
      "name": "createFund",
      "outputs": [
        {
          "internalType": "address",
          "name": "",
          "type": "address"
        }
      ],
      "stateMutability": "nonpayable",
      "type": "function"
    },
    {
      "inputs": [
        {
          "internalType": "bytes",
          "name": "_data",
          "type": "bytes"
        },
        {
          "internalType": "uint8",
          "name": "_proxyType",
          "type": "uint8"
        }
      ],
      "name": "deploy",
      "outputs": [
        {
          "internalType": "address",
          "name": "",
          "type": "address"
        }
      ],
      "stateMutability": "nonpayable",
      "type": "function"
    },
    {
      "inputs": [
        {
          "internalType": "uint256",
          "name": "",
          "type": "uint256"
        }
      ],
      "name": "deployedFunds",
      "outputs": [
        {
          "internalType": "address",
          "name": "",
          "type": "address"
        }
      ],
      "stateMutability": "view",
      "type": "function"
    },
    {
      "inputs": [],
      "name": "deployedFundsLength",
      "outputs": [
        {
          "internalType": "uint256",
          "name": "",
          "type": "uint256"
        }
      ],
      "stateMutability": "view",
      "type": "function"
    },
    {
      "inputs": [],
      "name": "disableChainlink",
      "outputs": [],
      "stateMutability": "nonpayable",
      "type": "function"
    },
    {
      "inputs": [],
      "name": "enableChainlink",
      "outputs": [],
      "stateMutability": "nonpayable",
      "type": "function"
    },
    {
      "inputs": [],
      "name": "erc20Guard",
      "outputs": [
        {
          "internalType": "address",
          "name": "",
          "type": "address"
        }
      ],
      "stateMutability": "view",
      "type": "function"
    },
    {
      "inputs": [],
      "name": "getDaoAddress",
      "outputs": [
        {
          "internalType": "address",
          "name": "",
          "type": "address"
        }
      ],
      "stateMutability": "view",
      "type": "function"
    },
    {
      "inputs": [],
      "name": "getDaoFee",
      "outputs": [
        {
          "internalType": "uint256",
          "name": "",
          "type": "uint256"
        },
        {
          "internalType": "uint256",
          "name": "",
          "type": "uint256"
        }
      ],
      "stateMutability": "view",
      "type": "function"
    },
    {
      "inputs": [],
      "name": "getExitCooldown",
      "outputs": [
        {
          "internalType": "uint256",
          "name": "",
          "type": "uint256"
        }
      ],
      "stateMutability": "view",
      "type": "function"
    },
    {
      "inputs": [
        {
          "internalType": "address",
          "name": "extContract",
          "type": "address"
        }
      ],
      "name": "getGuard",
      "outputs": [
        {
          "internalType": "address",
          "name": "",
          "type": "address"
        }
      ],
      "stateMutability": "view",
      "type": "function"
    },
    {
      "inputs": [
        {
          "internalType": "uint8",
          "name": "_proxyType",
          "type": "uint8"
        }
      ],
      "name": "getLogic",
      "outputs": [
        {
          "internalType": "address",
          "name": "",
          "type": "address"
        }
      ],
      "stateMutability": "view",
      "type": "function"
    },
    {
      "inputs": [],
      "name": "getManagerFeeNumeratorChangeDelay",
      "outputs": [
        {
          "internalType": "uint256",
          "name": "",
          "type": "uint256"
        }
      ],
      "stateMutability": "view",
      "type": "function"
    },
    {
      "inputs": [],
      "name": "getMaximumManagerFee",
      "outputs": [
        {
          "internalType": "uint256",
          "name": "",
          "type": "uint256"
        },
        {
          "internalType": "uint256",
          "name": "",
          "type": "uint256"
        }
      ],
      "stateMutability": "view",
      "type": "function"
    },
    {
      "inputs": [],
      "name": "getMaximumManagerFeeNumeratorChange",
      "outputs": [
        {
          "internalType": "uint256",
          "name": "",
          "type": "uint256"
        }
      ],
      "stateMutability": "view",
      "type": "function"
    },
    {
      "inputs": [],
      "name": "getMaximumSupportedAssetCount",
      "outputs": [
        {
          "internalType": "uint256",
          "name": "",
          "type": "uint256"
        }
      ],
      "stateMutability": "view",
      "type": "function"
    },
    {
      "inputs": [
        {
          "internalType": "address",
          "name": "pool",
          "type": "address"
        }
      ],
      "name": "getPoolManagerFee",
      "outputs": [
        {
          "internalType": "uint256",
          "name": "",
          "type": "uint256"
        },
        {
          "internalType": "uint256",
          "name": "",
          "type": "uint256"
        }
      ],
      "stateMutability": "view",
      "type": "function"
    },
    {
      "inputs": [],
      "name": "getTrackingCode",
      "outputs": [
        {
          "internalType": "bytes32",
          "name": "",
          "type": "bytes32"
        }
      ],
      "stateMutability": "view",
      "type": "function"
    },
    {
      "inputs": [
        {
          "internalType": "address",
          "name": "_asset",
          "type": "address"
        }
      ],
      "name": "getUSDPrice",
      "outputs": [
        {
          "internalType": "uint256",
          "name": "",
          "type": "uint256"
        }
      ],
      "stateMutability": "view",
      "type": "function"
    },
    {
      "inputs": [
        {
          "internalType": "address",
          "name": "_poolLogic",
          "type": "address"
        },
        {
          "internalType": "address",
          "name": "_managerLogic",
          "type": "address"
        },
        {
          "internalType": "address",
          "name": "daoAddress",
          "type": "address"
        },
        {
          "internalType": "address[]",
          "name": "_validAssets",
          "type": "address[]"
        },
        {
          "internalType": "address[]",
          "name": "_aggregators",
          "type": "address[]"
        }
      ],
      "name": "initialize",
      "outputs": [],
      "stateMutability": "nonpayable",
      "type": "function"
    },
    {
      "inputs": [],
      "name": "isPaused",
      "outputs": [
        {
          "internalType": "bool",
          "name": "",
          "type": "bool"
        }
      ],
      "stateMutability": "view",
      "type": "function"
    },
    {
      "inputs": [
        {
          "internalType": "address",
          "name": "",
          "type": "address"
        }
      ],
      "name": "isPool",
      "outputs": [
        {
          "internalType": "bool",
          "name": "",
          "type": "bool"
        }
      ],
      "stateMutability": "view",
      "type": "function"
    },
    {
      "inputs": [
        {
          "internalType": "address",
          "name": "",
          "type": "address"
        }
      ],
      "name": "isPoolManager",
      "outputs": [
        {
          "internalType": "bool",
          "name": "",
          "type": "bool"
        }
      ],
      "stateMutability": "view",
      "type": "function"
    },
    {
      "inputs": [
        {
          "internalType": "address",
          "name": "asset",
          "type": "address"
        }
      ],
      "name": "isValidAsset",
      "outputs": [
        {
          "internalType": "bool",
          "name": "",
          "type": "bool"
        }
      ],
      "stateMutability": "view",
      "type": "function"
    },
    {
      "inputs": [],
      "name": "managerFeeNumeratorChangeDelay",
      "outputs": [
        {
          "internalType": "uint256",
          "name": "",
          "type": "uint256"
        }
      ],
      "stateMutability": "view",
      "type": "function"
    },
    {
      "inputs": [],
      "name": "maximumManagerFeeNumeratorChange",
      "outputs": [
        {
          "internalType": "uint256",
          "name": "",
          "type": "uint256"
        }
      ],
      "stateMutability": "view",
      "type": "function"
    },
    {
      "inputs": [],
      "name": "owner",
      "outputs": [
        {
          "internalType": "address",
          "name": "",
          "type": "address"
        }
      ],
      "stateMutability": "view",
      "type": "function"
    },
    {
      "inputs": [],
      "name": "pause",
      "outputs": [],
      "stateMutability": "nonpayable",
      "type": "function"
    },
    {
      "inputs": [],
      "name": "paused",
      "outputs": [
        {
          "internalType": "bool",
          "name": "",
          "type": "bool"
        }
      ],
      "stateMutability": "view",
      "type": "function"
    },
    {
      "inputs": [
        {
          "internalType": "address",
          "name": "",
          "type": "address"
        }
      ],
      "name": "poolManagerFeeDenominator",
      "outputs": [
        {
          "internalType": "uint256",
          "name": "",
          "type": "uint256"
        }
      ],
      "stateMutability": "view",
      "type": "function"
    },
    {
      "inputs": [
        {
          "internalType": "address",
          "name": "",
          "type": "address"
        }
      ],
      "name": "poolManagerFeeNumerator",
      "outputs": [
        {
          "internalType": "uint256",
          "name": "",
          "type": "uint256"
        }
      ],
      "stateMutability": "view",
      "type": "function"
    },
    {
      "inputs": [],
      "name": "poolStorageVersion",
      "outputs": [
        {
          "internalType": "uint256",
          "name": "",
          "type": "uint256"
        }
      ],
      "stateMutability": "view",
      "type": "function"
    },
    {
      "inputs": [
        {
          "internalType": "address",
          "name": "",
          "type": "address"
        }
      ],
      "name": "poolVersion",
      "outputs": [
        {
          "internalType": "uint256",
          "name": "",
          "type": "uint256"
        }
      ],
      "stateMutability": "view",
      "type": "function"
    },
    {
      "inputs": [
        {
          "internalType": "address",
          "name": "asset",
          "type": "address"
        }
      ],
      "name": "removeValidAsset",
      "outputs": [],
      "stateMutability": "nonpayable",
      "type": "function"
    },
    {
      "inputs": [],
      "name": "renounceOwnership",
      "outputs": [],
      "stateMutability": "nonpayable",
      "type": "function"
    },
    {
      "inputs": [
        {
          "internalType": "address",
          "name": "daoAddress",
          "type": "address"
        }
      ],
      "name": "setDaoAddress",
      "outputs": [],
      "stateMutability": "nonpayable",
      "type": "function"
    },
    {
      "inputs": [
        {
          "internalType": "uint256",
          "name": "numerator",
          "type": "uint256"
        },
        {
          "internalType": "uint256",
          "name": "denominator",
          "type": "uint256"
        }
      ],
      "name": "setDaoFee",
      "outputs": [],
      "stateMutability": "nonpayable",
      "type": "function"
    },
    {
      "inputs": [
        {
          "internalType": "address",
          "name": "_guard",
          "type": "address"
        }
      ],
      "name": "setERC20Guard",
      "outputs": [],
      "stateMutability": "nonpayable",
      "type": "function"
    },
    {
      "inputs": [
        {
          "internalType": "uint256",
          "name": "cooldown",
          "type": "uint256"
        }
      ],
      "name": "setExitCooldown",
      "outputs": [],
      "stateMutability": "nonpayable",
      "type": "function"
    },
    {
      "inputs": [
        {
          "internalType": "address",
          "name": "extContract",
          "type": "address"
        },
        {
          "internalType": "address",
          "name": "guardAddress",
          "type": "address"
        }
      ],
      "name": "setGuard",
      "outputs": [],
      "stateMutability": "nonpayable",
      "type": "function"
    },
    {
      "inputs": [
        {
          "internalType": "address",
          "name": "_poolLogic",
          "type": "address"
        },
        {
          "internalType": "address",
          "name": "_poolManagerLogic",
          "type": "address"
        }
      ],
      "name": "setLogic",
      "outputs": [],
      "stateMutability": "nonpayable",
      "type": "function"
    },
    {
      "inputs": [
        {
          "internalType": "uint256",
          "name": "delay",
          "type": "uint256"
        }
      ],
      "name": "setManagerFeeNumeratorChangeDelay",
      "outputs": [],
      "stateMutability": "nonpayable",
      "type": "function"
    },
    {
      "inputs": [
        {
          "internalType": "uint256",
          "name": "amount",
          "type": "uint256"
        }
      ],
      "name": "setMaximumManagerFeeNumeratorChange",
      "outputs": [],
      "stateMutability": "nonpayable",
      "type": "function"
    },
    {
      "inputs": [
        {
          "internalType": "uint256",
          "name": "count",
          "type": "uint256"
        }
      ],
      "name": "setMaximumSupportedAssetCount",
      "outputs": [],
      "stateMutability": "nonpayable",
      "type": "function"
    },
    {
      "inputs": [
        {
          "internalType": "address",
          "name": "pool",
          "type": "address"
        },
        {
          "internalType": "uint256",
          "name": "numerator",
          "type": "uint256"
        }
      ],
      "name": "setPoolManagerFeeNumerator",
      "outputs": [],
      "stateMutability": "nonpayable",
      "type": "function"
    },
    {
      "inputs": [
        {
          "internalType": "bytes32",
          "name": "code",
          "type": "bytes32"
        }
      ],
      "name": "setTrackingCode",
      "outputs": [],
      "stateMutability": "nonpayable",
      "type": "function"
    },
    {
      "inputs": [
        {
          "internalType": "address",
          "name": "newOwner",
          "type": "address"
        }
      ],
      "name": "transferOwnership",
      "outputs": [],
      "stateMutability": "nonpayable",
      "type": "function"
    },
    {
      "inputs": [],
      "name": "unpause",
      "outputs": [],
      "stateMutability": "nonpayable",
      "type": "function"
    },
    {
      "inputs": [
        {
          "internalType": "uint256",
          "name": "startIndex",
          "type": "uint256"
        },
        {
          "internalType": "uint256",
          "name": "endIndex",
          "type": "uint256"
        },
        {
          "internalType": "uint256",
          "name": "sourceVersion",
          "type": "uint256"
        },
        {
          "internalType": "uint256",
          "name": "targetVersion",
          "type": "uint256"
        },
        {
          "internalType": "bytes",
          "name": "data",
          "type": "bytes"
        }
      ],
      "name": "upgradePoolBatch",
      "outputs": [],
      "stateMutability": "nonpayable",
      "type": "function"
    }
  ],
  "bytecode": "0x60806040523480156200001c576000806200001962000023565b50505b5062000090565b632a2a7adb598160e01b8152600481016020815285602082015260005b868110156200005d57808601518282016040015260200162000040565b506020828760640184336000905af158600e01573d6000803e3d6000fd5b3d6001141558600a015760016000f35b505050565b6149ac80620000a06000396000f3fe60806040523480156200001c576000806200001962002f81565b50505b5060043610620002eb5760003560e01c80638b2f0f4f1162000194578063bcb01f4411620000ec578063e60eb412116200009e578063e60eb4121462000612578063e99c0fa61462000629578063ebee461d1462000640578063ecef89d5146200064a578063eec16c441462000661578063f2fde38b146200067857620002eb565b8063bcb01f4414620005a2578063bee37e5214620005b9578063bfeaf71d14620005d0578063cc435bf314620005da578063d54e96d214620005f1578063dc76d25414620005fb57620002eb565b8063aa12ae4d1162000146578063aa12ae4d146200053f578063aa7d664e1462000549578063b187bd261462000560578063b193a5f4146200056a578063b28060011462000581578063b7a54526146200058b57620002eb565b80638b2f0f4f14620004cc5780638da5cb5b14620004e357806394d0d23b14620004ed5780639a068bd614620005075780639a3cac6a146200051e5780639cada6e4146200053557620002eb565b80635556ee551162000248578063742a96cd11620001fa578063742a96cd146200044f578063771d1baf146200046657806378a86e3a146200047d578063790fcf9f1462000494578063808ae5fb14620004ab5780638456cb5914620004c257620002eb565b80635556ee5514620003dd5780635b16ebb714620003f45780635c975abb146200041a5780635c9bfc2b14620004245780637027ea6c146200042e578063715018a6146200044557620002eb565b80631e8e8bca11620002a25780631e8e8bca146200037a578063227773ee14620003915780633f4ba83a14620003a85780634501b08814620003b257806345812ca514620003bc57806349f7c02d14620003d357620002eb565b8063046b72c414620002fb5780630bf99bd914620003145780630f6559c4146200033657806310bf69dc14620003405780631d68702d146200034a5780631e666d131462000363575b600080620002f862002f81565b50505b620003126200030c36600462003779565b6200068f565b005b6200031e62000808565b6040516200032d919062003cf2565b60405180910390f35b6200031e6200081d565b6200031e6200082d565b620003546200083a565b6040516200032d919062003b53565b6200031262000374366004620039a9565b6200085f565b620003126200038b366004620038f8565b620009d1565b62000312620003a236600462003671565b62000a4d565b6200031262000ac9565b6200031e62000b45565b62000354620003cd3660046200391c565b62000b59565b6200031e62000b70565b6200031e620003ee36600462003648565b62000b7f565b6200040b6200040536600462003648565b62000b9a565b6040516200032d919062003ce7565b6200040b62000bc4565b6200031e62000be2565b620003546200043f36600462003648565b62000bf1565b6200031262000c2f565b620003126200046036600462003671565b62000d2b565b62000312620004773660046200397c565b62000e63565b620003546200048e366004620037db565b62000edd565b62000312620004a5366004620036b5565b6200129d565b62000312620004bc36600462003671565b62001514565b62000312620015f8565b6200031e620004dd36600462003648565b62001672565b6200035462001866565b620004f762001875565b6040516200032d92919062004162565b6200035462000518366004620038f8565b6200189a565b620003126200052f36600462003648565b620018dc565b620004f762001955565b6200031e62001972565b620003126200055a366004620038f8565b62001981565b6200040b620019fa565b6200040b6200057b36600462003648565b62001a06565b6200031262001a23565b620004f76200059c36600462003648565b62001aeb565b62000312620005b3366004620038f8565b62001ba5565b6200031e620005ca36600462003648565b62001c28565b6200031e62001c43565b6200040b620005eb36600462003648565b62001c50565b6200031262001c87565b620003126200060c36600462003648565b62001d53565b6200031e6200062336600462003648565b62001e85565b620003126200063a366004620038f8565b62001ea0565b6200031e62001f1d565b620003546200065b36600462003a78565b62001f2c565b6200031262000672366004620038f8565b62001f6f565b620003126200068936600462003648565b62001fe8565b61010460005a6200069f62002fee565b6001600160a01b03166001600160a01b03168152602001908152602001600020600090620006cc62003045565b906101000a900460ff1615156001151514620007105760405162461bcd60e51b8152600401620006fc9062003cfb565b604051809103906200070d62002f81565b50505b6001600160a01b0382166000908152610103602052604090206000906200073662003045565b906101000a900460ff16151560011515146200077a5760405162461bcd60e51b815260040162000766906200412b565b604051809103906200077762002f81565b50505b620007b561010f6200078b62003045565b6001600160a01b038416600090815261010760205260409020620007ae62003045565b9062002124565b811115620007eb5760405162461bcd60e51b8152600401620007d79062003e42565b60405180910390620007e862002f81565b50505b620008048282610106620007fe62003045565b6200214c565b5050565b600060ff806200081762003045565b91505090565b61010e6200082a62003045565b81565b61010f6200082a62003045565b6000806101006200084a62003045565b906101000a90046001600160a01b0316905090565b62000869620021ed565b6001600160a01b0316600060976200088062003045565b906101000a90046001600160a01b03166001600160a01b031614620008cd5760405162461bcd60e51b8152600401620008b99062003fec565b60405180910390620008ca62002f81565b50505b848611158015620008eb575060ff80620008e662003045565b905086105b801562000905575060ff806200090062003045565b905085105b620009385760405162461bcd60e51b8152600401620009249062003d55565b604051809103906200093562002f81565b50505b855b858111620009c857600060ff82816200095262003045565b81106200095b57fe5b906000526020600020016000906200097262003045565b6001600160a01b036101009290920a900416600081815261010d602052909150869060409020620009a262003045565b14620009af5750620009bf565b620009bd81858588620021fa565b505b6001016200093a565b50505050505050565b620009db620021ed565b6001600160a01b031660006097620009f262003045565b906101000a90046001600160a01b03166001600160a01b03161462000a3f5760405162461bcd60e51b815260040162000a2b9062003fec565b6040518091039062000a3c62002f81565b50505b62000a4a8162002363565b50565b600061010062000a5c62003045565b906101000a90046001600160a01b03166001600160a01b03165a62000a8062002fee565b6001600160a01b03161462000abd5760405162461bcd60e51b815260040162000aa99062003dfa565b6040518091039062000aba62002f81565b50505b62000804828262002372565b600061010062000ad862003045565b906101000a90046001600160a01b03166001600160a01b03165a62000afc62002fee565b6001600160a01b03161462000b395760405162461bcd60e51b815260040162000b259062003dfa565b6040518091039062000b3662002f81565b50505b62000b436200239a565b565b600061010962000b5462003045565b905090565b600062000b67838362002454565b90505b92915050565b600061010c62000b5462003045565b61010d60205280600052604060002090506200082a62003045565b6101036020528060005260406000206000915062000bb762003045565b906101000a900460ff1681565b600080606562000bd362003045565b906101000a900460ff16905090565b600061010f62000b5462003045565b6001600160a01b03811660009081526101116020526040812060009062000c1762003045565b906101000a90046001600160a01b031690505b919050565b62000c39620021ed565b6001600160a01b03166000609762000c5062003045565b906101000a90046001600160a01b03166001600160a01b03161462000c9d5760405162461bcd60e51b815260040162000c899062003fec565b6040518091039062000c9a62002f81565b50505b600080609762000cac62003045565b906101000a90046001600160a01b03166001600160a01b03167f8be0079c531659141344cd1fd0a4f28419497f9722a3daafe3b4186f6b6457e060405160405180910390a36000609760018162000d0262003045565b816001600160a01b0302191690836001600160a01b031602179062000d2662003092565b505050565b600061010062000d3a62003045565b906101000a90046001600160a01b03166001600160a01b03165a62000d5e62002fee565b6001600160a01b03161462000d9b5760405162461bcd60e51b815260040162000d879062003dfa565b6040518091039062000d9862002f81565b50505b62000da68262001c50565b1562000dda5760405162461bcd60e51b815260040162000dc6906200406f565b6040518091039062000dd762002f81565b50505b6001600160a01b038216600090815261010a6020526001906040902060018162000e0362003045565b8160ff0219169083151502179062000e1a62003092565b50505062000e29828262002591565b816001600160a01b03167fd63c302652b86334fe4eb891e7a01e61e836496485d9394f2c95b4222006ae5060405160405180910390a25050565b62000e6d620021ed565b6001600160a01b03166000609762000e8462003045565b906101000a90046001600160a01b03166001600160a01b03161462000ed15760405162461bcd60e51b815260040162000ebd9062003fec565b6040518091039062000ece62002f81565b50505b620008048282620025b8565b600060605a63996d79a5598160e01b8152602081600483336000905af158600e01573d6000803e3d6000fd5b3d6001141558600a015760016000f35b8051925060005b604081101562000f395760008282015260200162000f20565b50505088888560405160240162000f54949392919062003b67565b604051601f19818303018152604091909152630a3df85f60e11b6020820180516001600160e01b031690911790529050600062000f9382600162000b59565b905060605a63996d79a5598160e01b8152602081600483336000905af158600e01573d6000803e3d6000fd5b3d6001141558600a015760016000f35b8051925060005b604081101562000fef5760008282015260200162000fd6565b5050508b8989856040516024016200100c95949392919062003beb565b604051601f19818303018152604091909152630ccb30c760e01b6020820180516001600160e01b03169091179052905060006200104b82600262000b59565b9050826001600160a01b0316638e10153d826040518263ffffffff1660e01b81526004016200107b919062003b53565b6020604051808303816000878062001092620030e1565b158015620010aa57600080620010a762002f81565b50505b505a620010b66200312e565b505050505050158015620010d9573d6000803e3d6000620010d662002f81565b50505b50505050604051601f3d908101601f19168201604052620010fe9190810190620037b1565b508060ff806001816200111062003045565b0180826200111d62003092565b5050600092835260001901916020915020016001816200113c62003045565b816001600160a01b0302191690836001600160a01b03160217906200116062003092565b5050506001600160a01b0381166000908152610103602052600190604090206001816200118c62003045565b8160ff02191690831515021790620011a362003092565b5050506001600160a01b038316600090815261010460205260019060409020600181620011cf62003045565b8160ff02191690831515021790620011e662003092565b50505061010e620011f662003045565b6001600160a01b038216600090815261010d6020526040902081906200121b62003092565b505050620012318188610106620007fe62003045565b7f73a0638fe578fc759744633aa170a433061ca2cc1bb855d116c506e04a29901f818d8b8d8f5a6200126262003224565b8d6101066200127062003045565b6040516200128698979695949392919062003c41565b60405180910390a19b9a5050505050505050505050565b60016000620012ab62003045565b906101000a900460ff1680620012c65750620012c662002653565b80620012e65750600080620012da62003045565b906101000a900460ff16155b620013195760405162461bcd60e51b8152600401620013059062004021565b604051809103906200131662002f81565b50505b60006001816200132862003045565b906101000a900460ff161590508015620013975760016000610100816200134e62003045565b8160ff021916908315150217906200136562003092565b50505060016000806101000a816200137c62003045565b8160ff021916908315150217906200139362003092565b5050505b620013a38686620026c8565b620013ad620026d2565b620013b8846200280f565b620013c861138861271062002883565b620013d6600a6064620025b8565b620013e462015180620028dc565b620013f26224ea0062001ba5565b620013ff6103e862001ea0565b6200140b600a6200291f565b6200141f6544484544474560d01b62002363565b60005b83518160ff161015620014d857600161010a6000868460ff16815181106200144657fe5b60200260200101516001600160a01b03166001600160a01b031681526020019081526020016000206001816200147b62003045565b8160ff021916908315150217906200149262003092565b505050620014cf848260ff1681518110620014a957fe5b6020026020010151848360ff1681518110620014c157fe5b602002602001015162002591565b60010162001422565b5080156200150c5760008061010081620014f162003045565b8160ff021916908315150217906200150862003092565b5050505b505050505050565b6200151e620021ed565b6001600160a01b0316600060976200153562003045565b906101000a90046001600160a01b03166001600160a01b031614620015825760405162461bcd60e51b81526004016200156e9062003fec565b604051809103906200157f62002f81565b50505b8160c96001816200159262003045565b816001600160a01b0302191690836001600160a01b0316021790620015b662003092565b5050508060ca60006101000a81620015cd62003045565b816001600160a01b0302191690836001600160a01b0316021790620015f162003092565b5050505050565b60006101006200160762003045565b906101000a90046001600160a01b03166001600160a01b03165a6200162b62002fee565b6001600160a01b031614620016685760405162461bcd60e51b8152600401620016549062003dfa565b604051809103906200166562002f81565b50505b62000b4362002962565b6001600160a01b038116600090815260fe60205280604081206000906200169862003045565b6001600160a01b036101009290920a900416905080620016e05760405162461bcd60e51b8152600401620016cc9062003e70565b60405180910390620016dd62002f81565b50505b60008060fd620016ef62003045565b906101000a900460ff166200182857816001600160a01b031663feaf968c6040518163ffffffff1660e01b815260040160a060405180830381868062001734620030e1565b1580156200174c576000806200174962002f81565b50505b505a620017586200326b565b50505050509250505080156200178d5750604051601f3d908101601f191682016040526200178a919081019062003aa1565b60015b620017c55760405162461bcd60e51b8152600401620017ac9062003fa8565b60405180910390620017bd62002f81565b505062001828565b5a620017d062003224565b620017df8362015f9062002124565b1015620018145760405162461bcd60e51b815260040162001800906200409d565b604051809103906200181162002f81565b50505b600084131562001822578395505b50505050505b600081116200185f5760405162461bcd60e51b81526004016200184b9062003fa8565b604051809103906200185c62002f81565b50505b9392505050565b60008060976200084a62003045565b6000806101056200188562003045565b6101066200189262003045565b915091509091565b60ff8181620018a862003045565b8110620018b157fe5b9060005260206000200160009150620018c962003045565b906101000a90046001600160a01b031681565b620018e6620021ed565b6001600160a01b031660006097620018fd62003045565b906101000a90046001600160a01b03166001600160a01b0316146200194a5760405162461bcd60e51b8152600401620019369062003fec565b604051809103906200194762002f81565b50505b62000a4a816200280f565b6000806101016200196562003045565b6101026200189262003045565b600061010b62000b5462003045565b6200198b620021ed565b6001600160a01b031660006097620019a262003045565b906101000a90046001600160a01b03166001600160a01b031614620019ef5760405162461bcd60e51b8152600401620019db9062003fec565b60405180910390620019ec62002f81565b50505b62000a4a81620028dc565b600062000b5462000bc4565b6101046020528060005260406000206000915062000bb762003045565b600061010062001a3262003045565b906101000a90046001600160a01b03166001600160a01b03165a62001a5662002fee565b6001600160a01b03161462001a935760405162461bcd60e51b815260040162001a7f9062003dfa565b6040518091039062001a9062002f81565b50505b600060fd62001aa162003045565b60ff6101009290920a9004161562001ae15760405162461bcd60e51b815260040162001acd90620040e5565b6040518091039062001ade62002f81565b50505b62000b4362002a03565b6001600160a01b0381166000908152610103602052806040812060009062001b1262003045565b906101000a900460ff161515600115151462001b565760405162461bcd60e51b815260040162001b42906200412b565b6040518091039062001b5362002f81565b50505b6001600160a01b03831660009081526101076020526040902062001b7962003045565b6001600160a01b03841660009081526101086020526040902062001b9c62003045565b91509150915091565b62001baf620021ed565b6001600160a01b03166000609762001bc662003045565b906101000a90046001600160a01b03166001600160a01b03161462001c135760405162461bcd60e51b815260040162001bff9062003fec565b6040518091039062001c1062002f81565b50505b808061011062001c2262003092565b50505050565b61010760205280600052604060002090506200082a62003045565b6101106200082a62003045565b6001600160a01b038116600090815261010a6020526040812060009062001c7662003045565b906101000a900460ff169050919050565b600061010062001c9662003045565b906101000a90046001600160a01b03166001600160a01b03165a62001cba62002fee565b6001600160a01b03161462001cf75760405162461bcd60e51b815260040162001ce39062003dfa565b6040518091039062001cf462002f81565b50505b600060fd62001d0562003045565b906101000a900460ff161515600115151462001d495760405162461bcd60e51b815260040162001d359062003f07565b6040518091039062001d4662002f81565b50505b62000b4362002a2a565b600061010062001d6262003045565b906101000a90046001600160a01b03166001600160a01b03165a62001d8662002fee565b6001600160a01b03161462001dc35760405162461bcd60e51b815260040162001daf9062003dfa565b6040518091039062001dc062002f81565b50505b62001dce8162001c50565b62001e015760405162461bcd60e51b815260040162001ded9062003f51565b6040518091039062001dfe62002f81565b50505b6001600160a01b038116600090815261010a6020526040812060018162001e2762003045565b8160ff0219169083151502179062001e3e62003092565b50505062001e4c8162002a3b565b806001600160a01b03167fe8b3c469b395bfd934168e4b7d14590c9cd1a6740533df170dbe3c219ff5a67460405160405180910390a250565b61010860205280600052604060002090506200082a62003045565b62001eaa620021ed565b6001600160a01b03166000609762001ec162003045565b906101000a90046001600160a01b03166001600160a01b03161462001f0e5760405162461bcd60e51b815260040162001efa9062003fec565b6040518091039062001f0b62002f81565b50505b808061010f62001c2262003092565b600061011062000b5462003045565b60008160ff166001141562001f6157600060ca62001f4962003045565b906101000a90046001600160a01b0316905062000c2a565b600060c962001f4962003045565b62001f79620021ed565b6001600160a01b03166000609762001f9062003045565b906101000a90046001600160a01b03166001600160a01b03161462001fdd5760405162461bcd60e51b815260040162001fc99062003fec565b6040518091039062001fda62002f81565b50505b62000a4a816200291f565b62001ff2620021ed565b6001600160a01b0316600060976200200962003045565b906101000a90046001600160a01b03166001600160a01b031614620020565760405162461bcd60e51b8152600401620020429062003fec565b604051809103906200205362002f81565b50505b6001600160a01b038116620020935760405162461bcd60e51b81526004016200207f9062003d7d565b604051809103906200209062002f81565b50505b6001600160a01b03811660006097620020ab62003045565b906101000a90046001600160a01b03166001600160a01b03167f8be0079c531659141344cd1fd0a4f28419497f9722a3daafe3b4186f6b6457e060405160405180910390a38060976001816200210062003045565b816001600160a01b0302191690836001600160a01b031602179062001c2262003092565b60008282018381101562000b675760405162461bcd60e51b81526004016200184b9062003dc3565b8082111580156200216957506101056200216562003045565b8211155b6200219c5760405162461bcd60e51b8152600401620021889062003f7e565b604051809103906200219962002f81565b50505b6001600160a01b03831660009081526101076020528290604090208190620021c362003092565b5050506001600160a01b038316600090815261010860205281906040902081906200150c62003092565b60005a62000b5462002fee565b6001600160a01b038416620022375760405162461bcd60e51b8152600401620022239062003edf565b604051809103906200223462002f81565b50505b816200226b5760405162461bcd60e51b8152600401620022579062003e1c565b604051809103906200226862002f81565b50505b606083838080601f01602080910402602001604051908101604052818152929190602084018383808284376000920182905250939450839250849150505160208401885a620022b96200333a565b5050505050801560018114620022cf57620022e6565b3d806000803e806000620022e262002f81565b5050505b5050846001600160a01b03165a620022fd62002fee565b6001600160a01b03167f78a9b536049c39a00adaf57016b1376c99dd48a0faf2cef23690232f21ce42cc60405160405180910390a36001600160a01b038516600090815261010d60205282906040902081906200235962003092565b5050505050505050565b808061010c62001c2262003092565b6001600160a01b0382166000908152610111602052819060409020600181620015cd62003045565b60006065620023a862003045565b906101000a900460ff16620023e55760405162461bcd60e51b8152600401620023d19062003d27565b60405180910390620023e262002f81565b50505b60006065600181620023f662003045565b8160ff021916908315150217906200240d62003092565b5050507f5db9ee0a495bf2e6ff9c91a7834c1ba4fdd244a5e8aa4e537bd38aeae4b073aa6200243b620021ed565b6040516200244a919062003b53565b60405180910390a1565b6000806200246162002a60565b90507efffc2da0b561cae30d9826d37709e9421c4725faebc226cbbb7ef5fc5e73498160405162002493919062003b53565b60405180910390a1806001600160a01b031663e74a474a5a63996d79a5598160e01b8152602081600483336000905af158600e01573d6000803e3d6000fd5b3d6001141558600a015760016000f35b8051925060005b60408110156200250257600082820152602001620024e9565b50505086866040518463ffffffff1660e01b8152600401620025279392919062003cae565b600060405180830381600087806200253e620030e1565b15801562002556576000806200255362002f81565b50505b505a620025626200312e565b50505050505015801562002585573d6000803e3d60006200258262002f81565b50505b50929695505050505050565b6001600160a01b038216600090815260fe602052819060409020600181620015cd62003045565b80821115620025ef5760405162461bcd60e51b8152600401620025db9062003f7e565b60405180910390620025ec62002f81565b50505b8180610101620025fe62003092565b5050508061010281906200261162003092565b5050507fb10da2958bf5ec1bff3164ff753a09e0460ed44d3abf73e79b817b500ed0f2f182826040516200264792919062004162565b60405180910390a15050565b6000805a63996d79a5598160e01b8152602081600483336000905af158600e01573d6000803e3d6000fd5b3d6001141558600a015760016000f35b8051925060005b6040811015620026ae5760008282015260200162002695565b5050509050600081620026c0620030e1565b159250505090565b6200158262002ac7565b60016000620026e062003045565b906101000a900460ff1680620026fb5750620026fb62002653565b806200271b57506000806200270f62003045565b906101000a900460ff16155b6200274e5760405162461bcd60e51b81526004016200273a9062004021565b604051809103906200274b62002f81565b50505b60006001816200275d62003045565b906101000a900460ff161590508015620027cc5760016000610100816200278362003045565b8160ff021916908315150217906200279a62003092565b50505060016000806101000a81620027b162003045565b8160ff02191690831515021790620027c862003092565b5050505b620027d662002bd5565b620027e062002ce6565b801562000a4a5760008061010081620027f862003045565b8160ff0219169083151502179062001c2262003092565b806101006001816200282062003045565b816001600160a01b0302191690836001600160a01b03160217906200284462003092565b5050507ff1034ad6b4d45dc33a4142b9c51c2b7f89bf4a410696e426cc0f3224869e0aca8160405162002878919062003b53565b60405180910390a150565b80821115620028ba5760405162461bcd60e51b8152600401620028a69062003f7e565b60405180910390620028b762002f81565b50505b8180610105620028c962003092565b505050806101068190620015f162003092565b8080610109620028eb62003092565b5050507f20d916c976f3971e8200089411b0b712ef4612d98380b8ad2e3d8a8a376d85c78160405162002878919062003cf2565b808061010b6200292e62003092565b5050507f0cd8fcb5e08d7632af461f0ad793e5c63dc0d7595c301f5880650175e37a87488160405162002878919062003cf2565b600060656200297062003045565b906101000a900460ff1615620029ae5760405162461bcd60e51b81526004016200299a9062003eb5565b60405180910390620029ab62002f81565b50505b600160658181620029be62003045565b8160ff02191690831515021790620029d562003092565b5050507f62e78cea01bee320cd4e420270b5ea74000d11b0c9f74754ebdbfc544b05a2586200243b620021ed565b600160fd818162002a1362003045565b8160ff0219169083151502179062000d2662003092565b600060fd60018162002a1362003045565b6001600160a01b038116600090815260fe602052604081206001816200210062003045565b600080606060405162002a76602082016200334c565b601f1982820381018352601f909101166040529050805160208201600062002a9d6200335a565b505091508162002aac620030e1565b62002ac15760008062002abe62002f81565b50505b50905090565b6001600062002ad562003045565b906101000a900460ff168062002af0575062002af062002653565b8062002b10575060008062002b0462003045565b906101000a900460ff16155b62002b435760405162461bcd60e51b815260040162002b2f9062004021565b6040518091039062002b4062002f81565b50505b600060018162002b5262003045565b906101000a900460ff16159050801562002bc157600160006101008162002b7862003045565b8160ff0219169083151502179062002b8f62003092565b50505060016000806101000a8162002ba662003045565b8160ff0219169083151502179062002bbd62003092565b5050505b62002bcb62002bd5565b620027e062002df1565b6001600062002be362003045565b906101000a900460ff168062002bfe575062002bfe62002653565b8062002c1e575060008062002c1262003045565b906101000a900460ff16155b62002c515760405162461bcd60e51b815260040162002c3d9062004021565b6040518091039062002c4e62002f81565b50505b600060018162002c6062003045565b906101000a900460ff161590508015620027e057600160006101008162002c8662003045565b8160ff0219169083151502179062002c9d62003092565b50505060016000806101000a8162002cb462003045565b8160ff0219169083151502179062002ccb62003092565b505050801562000a4a5760008061010081620027f862003045565b6001600062002cf462003045565b906101000a900460ff168062002d0f575062002d0f62002653565b8062002d2f575060008062002d2362003045565b906101000a900460ff16155b62002d625760405162461bcd60e51b815260040162002d4e9062004021565b6040518091039062002d5f62002f81565b50505b600060018162002d7162003045565b906101000a900460ff16159050801562002de057600160006101008162002d9762003045565b8160ff0219169083151502179062002dae62003092565b50505060016000806101000a8162002dc562003045565b8160ff0219169083151502179062002ddc62003092565b5050505b6000606560018162002cb462003045565b6001600062002dff62003045565b906101000a900460ff168062002e1a575062002e1a62002653565b8062002e3a575060008062002e2e62003045565b906101000a900460ff16155b62002e6d5760405162461bcd60e51b815260040162002e599062004021565b6040518091039062002e6a62002f81565b50505b600060018162002e7c62003045565b906101000a900460ff16159050801562002eeb57600160006101008162002ea262003045565b8160ff0219169083151502179062002eb962003092565b50505060016000806101000a8162002ed062003045565b8160ff0219169083151502179062002ee762003092565b5050505b600062002ef7620021ed565b905080609760018162002f0962003045565b816001600160a01b0302191690836001600160a01b031602179062002f2d62003092565b5050506001600160a01b03811660007f8be0079c531659141344cd1fd0a4f28419497f9722a3daafe3b4186f6b6457e060405160405180910390a350801562000a4a5760008061010081620027f862003045565b632a2a7adb598160e01b8152600481016020815285602082015260005b8681101562002fbb57808601518282016040015260200162002f9e565b506020828760640184336000905af158600e01573d6000803e3d6000fd5b3d6001141558600a015760016000f35b505050565b6373509064598160e01b8152602081600483336000905af158600e01573d6000803e3d6000fd5b3d6001141558600a015760016000f35b8051935060005b604081101562000d26576000828201526020016200302c565b6303daa959598160e01b8152836004820152602081602483336000905af158600e01573d6000803e3d6000fd5b3d6001141558600a015760016000f35b805160008252935060206200302c565b6322bd64c0598160e01b8152836004820152846024820152600081604483336000905af158600e01573d6000803e3d6000fd5b3d6001141558600a015760016000f35b6000815260206200302c565b638435035b598160e01b8152836004820152602081602483336000905af158600e01573d6000803e3d6000fd5b3d6001141558600a015760016000f35b805160008252935060206200302c565b6385979f76598160e01b815262003162565b808083111562000b6a575090919050565b808083101562000b6a575090919050565b836004820152846024820152606060448201528760648201526084810160005b898110156200319c57808901518282015260200162003182565b506060828a60a40184336000905af158600e01573d6000803e3d6000fd5b3d6001141558600a015760016000f35b815160408301513d6000853e8c8c82606087013350600060045af15059620031f38e3d62003151565b8d0162003201818762003140565b5b8281101562003218576000815260200162003202565b50929d50505050505050565b63bdbf8c36598160e01b8152602081600483336000905af158600e01573d6000803e3d6000fd5b3d6001141558600a015760016000f35b805160008252935060206200302c565b638540661f598160e01b81525b836004820152846024820152606060448201528660648201526084810160005b88811015620032b257808801518282015260200162003298565b506060828960a40184336000905af158600e01573d6000803e3d6000fd5b3d6001141558600a015760016000f35b815160408301513d6000853e8b8b82606087013350600060045af15059620033098d3d62003151565b8c0162003317818762003140565b5b828110156200332e576000815260200162003318565b50929c50505050505050565b63ffe73914598160e01b815262003278565b6107c180620041eb83390190565b6314aa2ff7598160e01b8152600481016020815286602082015260005b878110156200339457808701518282016040015260200162003377565b506020828860640184336000905af158600e01573d6000803e3d6000fd5b3d6001141558600a015760016000f35b8151965059825b81811015620015f15760008152602001620033c9565b80356001600160a01b038116811462000b6a57600080620033ff62002f81565b505092915050565b600082601f830112620034235780816200342062002f81565b50505b81356200343a6200343482620041a7565b62004170565b81815291506020808301908481018184028601820187101562003467576000806200346462002f81565b50505b60005b8481101562003492576200347f8883620033df565b845292820192908201906001016200346a565b505050505092915050565b600082601f830112620034b9578081620034b662002f81565b50505b8135620034ca6200343482620041a7565b8181529150602080830190848101604080850287018301881015620034f957600080620034f662002f81565b50505b6000805b868110156200355e5782848b031215620035205781826200351d62002f81565b50505b6200352b8362004170565b620035378b86620033df565b8152620035478b8787016200356b565b8187015286529484019492820192600101620034fd565b5050505050505092915050565b803562000b6a81620041d3565b600082601f830112620035945780816200359162002f81565b50505b813567ffffffffffffffff811115620035b6578182620035b362002f81565b50505b620035cb601f8201601f191660200162004170565b9150808252836020828501011115620035ee57600080620035eb62002f81565b50505b8060208401602084013760009082016020015292915050565b803560ff8116811462000b6a57600080620033ff62002f81565b60008151905069ffffffffffffffffffff8116811462000b6a57600080620033ff62002f81565b600060208284031215620036655780816200366262002f81565b50505b62000b678383620033df565b600080604083850312156200368f5780816200368c62002f81565b50505b6200369b8484620033df565b9150620036ac8460208501620033df565b90509250929050565b600080600080600060a08688031215620036d8578081620036d562002f81565b50505b620036e48787620033df565b9450620036f58760208801620033df565b9350620037068760408801620033df565b9250606086013567ffffffffffffffff808211156200372e5782836200372b62002f81565b50505b6200373c89838a0162003407565b935060808801359150808211156200375d5782836200375a62002f81565b50505b506200376c8882890162003407565b9150509295509295909350565b60008060408385031215620037975781826200379462002f81565b50505b620037a38484620033df565b946020939093013593505050565b600060208284031215620037ce578081620037cb62002f81565b50505b815162000b6781620041d3565b600080600080600080600060e0888a03121562003801578182620037fe62002f81565b50505b6200380d89896200356b565b96506200381e8960208a01620033df565b9550604088013567ffffffffffffffff80821115620038465783846200384362002f81565b50505b620038548b838c0162003578565b965060608a0135915080821115620038755783846200387262002f81565b50505b620038838b838c0162003578565b955060808a0135915080821115620038a4578384620038a162002f81565b50505b620038b28b838c0162003578565b945060a08a0135935060c08a0135915080821115620038da578283620038d762002f81565b50505b50620038e98a828b016200349d565b91505092959891949750929550565b600060208284031215620039155780816200391262002f81565b50505b5035919050565b600080604083850312156200393a5781826200393762002f81565b50505b823567ffffffffffffffff8111156200395c5782836200395962002f81565b50505b6200396a8582860162003578565b925050620036ac846020850162003607565b600080604083850312156200399a5781826200399762002f81565b50505b50508035926020909101359150565b60008060008060008060a08789031215620039cd578384620039ca62002f81565b50505b86359550602087013594506040870135935060608701359250608087013567ffffffffffffffff8082111562003a0c57838462003a0962002f81565b50505b818901915089601f83011262003a2b57838462003a2862002f81565b50505b81358181111562003a4557848562003a4262002f81565b50505b8a602082850101111562003a6257848562003a5f62002f81565b50505b6020830194508093505050509295509295509295565b60006020828403121562003a9557808162003a9262002f81565b50505b62000b67838362003607565b600080600080600060a0868803121562003ac457828362003ac162002f81565b50505b62003ad0878762003621565b945060208601519350604086015192506060860151915062003af6876080880162003621565b90509295509295909350565b60008151808452815b8181101562003b2c5760208082860101518683019091015260200162003b0b565b8181111562003b3e5782602083870101525b50601f01601f19169290920160200192915050565b6001600160a01b0391909116815260200190565b600060018060a01b038087168352602081871681850152604060808186015262003b95608086018862003b02565b85810360608701528087518083528885019285019150865b8181101562003bda5783518781511684528681015115158488015250928501929184019160010162003bad565b50909b9a5050505050505050505050565b600060018060a01b038088168352861515602084015260a0604084015262003c1760a084018762003b02565b838103606085015262003c2b818762003b02565b9250508084166080840152509695505050505050565b6001600160a01b03898116825288151560208301526101006040830181905260009162003c718483018b62003b02565b9150838203606085015262003c87828a62003b02565b97166080840152505060a081019390935260c083019190915260e090910152949350505050565b6001600160a01b038416815260606020820181905260009062003cd49083018562003b02565b905060ff83166040830152949350505050565b901515815260200190565b90815260200190565b6020808252601290820152712737ba1030903837b7b61036b0b730b3b2b960711b604082015260600190565b60208082526014908201527314185d5cd8589b194e881b9bdd081c185d5cd95960621b604082015260600190565b6020808252600e908201526d696e76616c696420626f756e647360901b604082015260600190565b60208082526026908201527f4f776e61626c653a206e6577206f776e657220697320746865207a65726f206160408201526564647265737360d01b606082015260800190565b6020808252601b908201527f536166654d6174683a206164646974696f6e206f766572666c6f770000000000604082015260600190565b6020808252600890820152676f6e6c792064616f60c01b604082015260600190565b6020808252600c908201526b19185d184b5a5b9d985b1a5960a21b604082015260600190565b6020808252601490820152730dac2dcc2cecae440cccaca40e8dede40d0d2ced60631b604082015260600190565b60208082526025908201527f5072696365436f6e73756d657256333a2061676772656761746f72206e6f7420604082015264199bdd5b9960da1b606082015260800190565b60208082526010908201526f14185d5cd8589b194e881c185d5cd95960821b604082015260600190565b6020808252600e908201526d1d185c99d95d0b5a5b9d985b1a5960921b604082015260600190565b6020808252602a908201527f5072696365436f6e73756d657256333a20636861696e6c696e6b20616c726561604082015269191e48195b98589b195960b21b606082015260800190565b602080825260139082015272185cdcd95d08191bd95cdb89dd08195e1a5cdd606a1b604082015260600190565b60208082526010908201526f34b73b30b634b210333930b1ba34b7b760811b604082015260600190565b60208082526024908201527f5072696365436f6e73756d657256333a207072696365206e6f7420617661696c60408201526361626c6560e01b606082015260800190565b6020808252818101527f4f776e61626c653a2063616c6c6572206973206e6f7420746865206f776e6572604082015260600190565b6020808252602e908201527f436f6e747261637420696e7374616e63652068617320616c726561647920626560408201526d195b881a5b9a5d1a585b1a5e995960921b606082015260800190565b602080825260149082015273617373657420616c72656164792065786973747360601b604082015260600190565b60208082526028908201527f5072696365436f6e73756d657256333a20636861696e6c696e6b20707269636560408201526708195e1c1a5c995960c21b606082015260800190565b60208082526026908201527f5072696365436f6e73756d657256333a20636861696e6c696e6b206e6f7420656040820152651b98589b195960d21b606082015260800190565b6020808252601e908201527f737570706c6965642061646472657373206973206e6f74206120706f6f6c0000604082015260600190565b918252602082015260400190565b6000604051905081810181811067ffffffffffffffff821117156200419f576000806200419c62002f81565b50505b604052919050565b600067ffffffffffffffff821115620041c9578081620041c662002f81565b50505b5060209081020190565b801515811462000a4a5760008062000d2662002f8156fe60806040523480156100195760008061001661001f565b50505b5061008a565b632a2a7adb598160e01b8152600481016020815285602082015260005b8681101561005757808601518282016040015260200161003c565b506020828760640184336000905af158600e01573d6000803e3d6000fd5b3d6001141558600a015760016000f35b505050565b610728806100996000396000f3fe6080604052600436106100225760003560e01c8063e74a474a1461003957610031565b366100315761002f610117565b005b61002f610117565b61002f60048036036060811015610058576000806100556104ca565b50505b6001600160a01b03823516919081019060408101602082013564010000000081111561008c576000806100896104ca565b50505b8201836020820111156100a7576000806100a46104ca565b50505b803590602001918460018302840111640100000000831117156100d2576000806100cf6104ca565b50505b91908080601f01602080910402602001604051908101604052818152929190602084018383808284376000920191909152509295505050903560ff1691506101319050565b61011f61012f565b61012f61012a6102c3565b6103c4565b565b600061013b6102c3565b6001600160a01b03161461018e5760405162461bcd60e51b815260206004820152600d60248201526c496d706c206e6f74207a65726f60981b60448201526064016040518091039061018b6104ca565b50505b61019783610401565b6101a08161048e565b6000825111156102be5760006101b46102c3565b6001600160a01b0316836040518082805190602001908083835b602083106101ed5780518252601f1990920191602091820191016101ce565b6001836020036101000a038019825116818451168082178552505050505050905001915050600060405180830381855a610225610535565b50505050509150503d8060008114610259576040513d603f01601f191681016040523d815291503d6000602084013e61025e565b606091505b50509050806102bc5760405162461bcd60e51b815260206004820152601a60248201527f496d706c656d656e746174696f6e20696e6974206661696c65640000000000006044820152606401604051809103906102b96104ca565b50505b505b505050565b6000807f360894a13ba1a3210667c828492db98dca3e2076cc3735a920a3ca505d382bbc806102f0610622565b91506001600160a01b03821661030b576000925050506103c1565b816001600160a01b031663ecef89d561032261049d565b6040516001600160e01b031960e084901b16815260ff9091166004820152602401602060405180830381868061035661067d565b15801561036b576000806103686104ca565b50505b505a6103756106c9565b5050505050158015610394573d6000803e3d60006103916104ca565b50505b505050506040513d60208110156103b3576000806103b06104ca565b50505b810190808051955050505050505b90565b3660008037600080366000845a6103d9610535565b50505050503d6000803e8080156103ef573d6000f35b3d60006103fa6104ca565b5050505050565b61040a816104b5565b6104635760405162461bcd60e51b815260206004820181905260248201527f43616e6e6f742073657420696d706c656d656e746174696f6e20746f20454f416044820152606401604051809103906104606104ca565b50505b7f360894a13ba1a3210667c828492db98dca3e2076cc3735a920a3ca505d382bbc81816102bc6106da565b600160fc1b81816102bc6106da565b600080600160fc1b806104ae610622565b9250505090565b600080826104c161067d565b15159392505050565b632a2a7adb598160e01b8152600481016020815285602082015260005b868110156105025780860151828201604001526020016104e7565b506020828760640184336000905af158600e01573d6000803e3d6000fd5b3d6001141558600a015760016000f35b505050565b63ffe73914598160e01b8152610568565b80808311156105525750815b92915050565b8080831015610552575090919050565b836004820152846024820152606060448201528660648201526084810160005b888110156105a0578088015182820152602001610588565b506060828960a40184336000905af158600e01573d6000803e3d6000fd5b3d6001141558600a015760016000f35b815160408301513d6000853e8b8b82606087013350600060045af150596105f58d3d610558565b8c016106018187610546565b5b828110156106165760008152602001610602565b50929c50505050505050565b6303daa959598160e01b8152836004820152602081602483336000905af158600e01573d6000803e3d6000fd5b3d6001141558600a015760016000f35b8051935060005b60408110156102be57600082820152602001610666565b638435035b598160e01b8152836004820152602081602483336000905af158600e01573d6000803e3d6000fd5b3d6001141558600a015760016000f35b80516000825293506020610666565b638540661f598160e01b8152610568565b6322bd64c0598160e01b8152836004820152846024820152600081604483336000905af158600e01573d6000803e3d6000fd5b3d6001141558600a015760016000f35b60008152602061066656",
  "deployedBytecode": "0x60806040523480156200001c576000806200001962002f81565b50505b5060043610620002eb5760003560e01c80638b2f0f4f1162000194578063bcb01f4411620000ec578063e60eb412116200009e578063e60eb4121462000612578063e99c0fa61462000629578063ebee461d1462000640578063ecef89d5146200064a578063eec16c441462000661578063f2fde38b146200067857620002eb565b8063bcb01f4414620005a2578063bee37e5214620005b9578063bfeaf71d14620005d0578063cc435bf314620005da578063d54e96d214620005f1578063dc76d25414620005fb57620002eb565b8063aa12ae4d1162000146578063aa12ae4d146200053f578063aa7d664e1462000549578063b187bd261462000560578063b193a5f4146200056a578063b28060011462000581578063b7a54526146200058b57620002eb565b80638b2f0f4f14620004cc5780638da5cb5b14620004e357806394d0d23b14620004ed5780639a068bd614620005075780639a3cac6a146200051e5780639cada6e4146200053557620002eb565b80635556ee551162000248578063742a96cd11620001fa578063742a96cd146200044f578063771d1baf146200046657806378a86e3a146200047d578063790fcf9f1462000494578063808ae5fb14620004ab5780638456cb5914620004c257620002eb565b80635556ee5514620003dd5780635b16ebb714620003f45780635c975abb146200041a5780635c9bfc2b14620004245780637027ea6c146200042e578063715018a6146200044557620002eb565b80631e8e8bca11620002a25780631e8e8bca146200037a578063227773ee14620003915780633f4ba83a14620003a85780634501b08814620003b257806345812ca514620003bc57806349f7c02d14620003d357620002eb565b8063046b72c414620002fb5780630bf99bd914620003145780630f6559c4146200033657806310bf69dc14620003405780631d68702d146200034a5780631e666d131462000363575b600080620002f862002f81565b50505b620003126200030c36600462003779565b6200068f565b005b6200031e62000808565b6040516200032d919062003cf2565b60405180910390f35b6200031e6200081d565b6200031e6200082d565b620003546200083a565b6040516200032d919062003b53565b6200031262000374366004620039a9565b6200085f565b620003126200038b366004620038f8565b620009d1565b62000312620003a236600462003671565b62000a4d565b6200031262000ac9565b6200031e62000b45565b62000354620003cd3660046200391c565b62000b59565b6200031e62000b70565b6200031e620003ee36600462003648565b62000b7f565b6200040b6200040536600462003648565b62000b9a565b6040516200032d919062003ce7565b6200040b62000bc4565b6200031e62000be2565b620003546200043f36600462003648565b62000bf1565b6200031262000c2f565b620003126200046036600462003671565b62000d2b565b62000312620004773660046200397c565b62000e63565b620003546200048e366004620037db565b62000edd565b62000312620004a5366004620036b5565b6200129d565b62000312620004bc36600462003671565b62001514565b62000312620015f8565b6200031e620004dd36600462003648565b62001672565b6200035462001866565b620004f762001875565b6040516200032d92919062004162565b6200035462000518366004620038f8565b6200189a565b620003126200052f36600462003648565b620018dc565b620004f762001955565b6200031e62001972565b620003126200055a366004620038f8565b62001981565b6200040b620019fa565b6200040b6200057b36600462003648565b62001a06565b6200031262001a23565b620004f76200059c36600462003648565b62001aeb565b62000312620005b3366004620038f8565b62001ba5565b6200031e620005ca36600462003648565b62001c28565b6200031e62001c43565b6200040b620005eb36600462003648565b62001c50565b6200031262001c87565b620003126200060c36600462003648565b62001d53565b6200031e6200062336600462003648565b62001e85565b620003126200063a366004620038f8565b62001ea0565b6200031e62001f1d565b620003546200065b36600462003a78565b62001f2c565b6200031262000672366004620038f8565b62001f6f565b620003126200068936600462003648565b62001fe8565b61010460005a6200069f62002fee565b6001600160a01b03166001600160a01b03168152602001908152602001600020600090620006cc62003045565b906101000a900460ff1615156001151514620007105760405162461bcd60e51b8152600401620006fc9062003cfb565b604051809103906200070d62002f81565b50505b6001600160a01b0382166000908152610103602052604090206000906200073662003045565b906101000a900460ff16151560011515146200077a5760405162461bcd60e51b815260040162000766906200412b565b604051809103906200077762002f81565b50505b620007b561010f6200078b62003045565b6001600160a01b038416600090815261010760205260409020620007ae62003045565b9062002124565b811115620007eb5760405162461bcd60e51b8152600401620007d79062003e42565b60405180910390620007e862002f81565b50505b620008048282610106620007fe62003045565b6200214c565b5050565b600060ff806200081762003045565b91505090565b61010e6200082a62003045565b81565b61010f6200082a62003045565b6000806101006200084a62003045565b906101000a90046001600160a01b0316905090565b62000869620021ed565b6001600160a01b0316600060976200088062003045565b906101000a90046001600160a01b03166001600160a01b031614620008cd5760405162461bcd60e51b8152600401620008b99062003fec565b60405180910390620008ca62002f81565b50505b848611158015620008eb575060ff80620008e662003045565b905086105b801562000905575060ff806200090062003045565b905085105b620009385760405162461bcd60e51b8152600401620009249062003d55565b604051809103906200093562002f81565b50505b855b858111620009c857600060ff82816200095262003045565b81106200095b57fe5b906000526020600020016000906200097262003045565b6001600160a01b036101009290920a900416600081815261010d602052909150869060409020620009a262003045565b14620009af5750620009bf565b620009bd81858588620021fa565b505b6001016200093a565b50505050505050565b620009db620021ed565b6001600160a01b031660006097620009f262003045565b906101000a90046001600160a01b03166001600160a01b03161462000a3f5760405162461bcd60e51b815260040162000a2b9062003fec565b6040518091039062000a3c62002f81565b50505b62000a4a8162002363565b50565b600061010062000a5c62003045565b906101000a90046001600160a01b03166001600160a01b03165a62000a8062002fee565b6001600160a01b03161462000abd5760405162461bcd60e51b815260040162000aa99062003dfa565b6040518091039062000aba62002f81565b50505b62000804828262002372565b600061010062000ad862003045565b906101000a90046001600160a01b03166001600160a01b03165a62000afc62002fee565b6001600160a01b03161462000b395760405162461bcd60e51b815260040162000b259062003dfa565b6040518091039062000b3662002f81565b50505b62000b436200239a565b565b600061010962000b5462003045565b905090565b600062000b67838362002454565b90505b92915050565b600061010c62000b5462003045565b61010d60205280600052604060002090506200082a62003045565b6101036020528060005260406000206000915062000bb762003045565b906101000a900460ff1681565b600080606562000bd362003045565b906101000a900460ff16905090565b600061010f62000b5462003045565b6001600160a01b03811660009081526101116020526040812060009062000c1762003045565b906101000a90046001600160a01b031690505b919050565b62000c39620021ed565b6001600160a01b03166000609762000c5062003045565b906101000a90046001600160a01b03166001600160a01b03161462000c9d5760405162461bcd60e51b815260040162000c899062003fec565b6040518091039062000c9a62002f81565b50505b600080609762000cac62003045565b906101000a90046001600160a01b03166001600160a01b03167f8be0079c531659141344cd1fd0a4f28419497f9722a3daafe3b4186f6b6457e060405160405180910390a36000609760018162000d0262003045565b816001600160a01b0302191690836001600160a01b031602179062000d2662003092565b505050565b600061010062000d3a62003045565b906101000a90046001600160a01b03166001600160a01b03165a62000d5e62002fee565b6001600160a01b03161462000d9b5760405162461bcd60e51b815260040162000d879062003dfa565b6040518091039062000d9862002f81565b50505b62000da68262001c50565b1562000dda5760405162461bcd60e51b815260040162000dc6906200406f565b6040518091039062000dd762002f81565b50505b6001600160a01b038216600090815261010a6020526001906040902060018162000e0362003045565b8160ff0219169083151502179062000e1a62003092565b50505062000e29828262002591565b816001600160a01b03167fd63c302652b86334fe4eb891e7a01e61e836496485d9394f2c95b4222006ae5060405160405180910390a25050565b62000e6d620021ed565b6001600160a01b03166000609762000e8462003045565b906101000a90046001600160a01b03166001600160a01b03161462000ed15760405162461bcd60e51b815260040162000ebd9062003fec565b6040518091039062000ece62002f81565b50505b620008048282620025b8565b600060605a63996d79a5598160e01b8152602081600483336000905af158601d01573d60011458600c01573d6000803e3d621234565260ea61109c528051925060005b604081101562000f395760008282015260200162000f20565b50505088888560405160240162000f54949392919062003b67565b604051601f19818303018152604091909152630a3df85f60e11b6020820180516001600160e01b031690911790529050600062000f9382600162000b59565b905060605a63996d79a5598160e01b8152602081600483336000905af158601d01573d60011458600c01573d6000803e3d621234565260ea61109c528051925060005b604081101562000fef5760008282015260200162000fd6565b5050508b8989856040516024016200100c95949392919062003beb565b604051601f19818303018152604091909152630ccb30c760e01b6020820180516001600160e01b03169091179052905060006200104b82600262000b59565b9050826001600160a01b0316638e10153d826040518263ffffffff1660e01b81526004016200107b919062003b53565b6020604051808303816000878062001092620030e1565b158015620010aa57600080620010a762002f81565b50505b505a620010b66200312e565b505050505050158015620010d9573d6000803e3d6000620010d662002f81565b50505b50505050604051601f3d908101601f19168201604052620010fe9190810190620037b1565b508060ff806001816200111062003045565b0180826200111d62003092565b5050600092835260001901916020915020016001816200113c62003045565b816001600160a01b0302191690836001600160a01b03160217906200116062003092565b5050506001600160a01b0381166000908152610103602052600190604090206001816200118c62003045565b8160ff02191690831515021790620011a362003092565b5050506001600160a01b038316600090815261010460205260019060409020600181620011cf62003045565b8160ff02191690831515021790620011e662003092565b50505061010e620011f662003045565b6001600160a01b038216600090815261010d6020526040902081906200121b62003092565b505050620012318188610106620007fe62003045565b7f73a0638fe578fc759744633aa170a433061ca2cc1bb855d116c506e04a29901f818d8b8d8f5a6200126262003224565b8d6101066200127062003045565b6040516200128698979695949392919062003c41565b60405180910390a19b9a5050505050505050505050565b60016000620012ab62003045565b906101000a900460ff1680620012c65750620012c662002653565b80620012e65750600080620012da62003045565b906101000a900460ff16155b620013195760405162461bcd60e51b8152600401620013059062004021565b604051809103906200131662002f81565b50505b60006001816200132862003045565b906101000a900460ff161590508015620013975760016000610100816200134e62003045565b8160ff021916908315150217906200136562003092565b50505060016000806101000a816200137c62003045565b8160ff021916908315150217906200139362003092565b5050505b620013a38686620026c8565b620013ad620026d2565b620013b8846200280f565b620013c861138861271062002883565b620013d6600a6064620025b8565b620013e462015180620028dc565b620013f26224ea0062001ba5565b620013ff6103e862001ea0565b6200140b600a6200291f565b6200141f6544484544474560d01b62002363565b60005b83518160ff161015620014d857600161010a6000868460ff16815181106200144657fe5b60200260200101516001600160a01b03166001600160a01b031681526020019081526020016000206001816200147b62003045565b8160ff021916908315150217906200149262003092565b505050620014cf848260ff1681518110620014a957fe5b6020026020010151848360ff1681518110620014c157fe5b602002602001015162002591565b60010162001422565b5080156200150c5760008061010081620014f162003045565b8160ff021916908315150217906200150862003092565b5050505b505050505050565b6200151e620021ed565b6001600160a01b0316600060976200153562003045565b906101000a90046001600160a01b03166001600160a01b031614620015825760405162461bcd60e51b81526004016200156e9062003fec565b604051809103906200157f62002f81565b50505b8160c96001816200159262003045565b816001600160a01b0302191690836001600160a01b0316021790620015b662003092565b5050508060ca60006101000a81620015cd62003045565b816001600160a01b0302191690836001600160a01b0316021790620015f162003092565b5050505050565b60006101006200160762003045565b906101000a90046001600160a01b03166001600160a01b03165a6200162b62002fee565b6001600160a01b031614620016685760405162461bcd60e51b8152600401620016549062003dfa565b604051809103906200166562002f81565b50505b62000b4362002962565b6001600160a01b038116600090815260fe60205280604081206000906200169862003045565b6001600160a01b036101009290920a900416905080620016e05760405162461bcd60e51b8152600401620016cc9062003e70565b60405180910390620016dd62002f81565b50505b60008060fd620016ef62003045565b906101000a900460ff166200182857816001600160a01b031663feaf968c6040518163ffffffff1660e01b815260040160a060405180830381868062001734620030e1565b1580156200174c576000806200174962002f81565b50505b505a620017586200326b565b50505050509250505080156200178d5750604051601f3d908101601f191682016040526200178a919081019062003aa1565b60015b620017c55760405162461bcd60e51b8152600401620017ac9062003fa8565b60405180910390620017bd62002f81565b505062001828565b5a620017d062003224565b620017df8362015f9062002124565b1015620018145760405162461bcd60e51b815260040162001800906200409d565b604051809103906200181162002f81565b50505b600084131562001822578395505b50505050505b600081116200185f5760405162461bcd60e51b81526004016200184b9062003fa8565b604051809103906200185c62002f81565b50505b9392505050565b60008060976200084a62003045565b6000806101056200188562003045565b6101066200189262003045565b915091509091565b60ff8181620018a862003045565b8110620018b157fe5b9060005260206000200160009150620018c962003045565b906101000a90046001600160a01b031681565b620018e6620021ed565b6001600160a01b031660006097620018fd62003045565b906101000a90046001600160a01b03166001600160a01b0316146200194a5760405162461bcd60e51b8152600401620019369062003fec565b604051809103906200194762002f81565b50505b62000a4a816200280f565b6000806101016200196562003045565b6101026200189262003045565b600061010b62000b5462003045565b6200198b620021ed565b6001600160a01b031660006097620019a262003045565b906101000a90046001600160a01b03166001600160a01b031614620019ef5760405162461bcd60e51b8152600401620019db9062003fec565b60405180910390620019ec62002f81565b50505b62000a4a81620028dc565b600062000b5462000bc4565b6101046020528060005260406000206000915062000bb762003045565b600061010062001a3262003045565b906101000a90046001600160a01b03166001600160a01b03165a62001a5662002fee565b6001600160a01b03161462001a935760405162461bcd60e51b815260040162001a7f9062003dfa565b6040518091039062001a9062002f81565b50505b600060fd62001aa162003045565b60ff6101009290920a9004161562001ae15760405162461bcd60e51b815260040162001acd90620040e5565b6040518091039062001ade62002f81565b50505b62000b4362002a03565b6001600160a01b0381166000908152610103602052806040812060009062001b1262003045565b906101000a900460ff161515600115151462001b565760405162461bcd60e51b815260040162001b42906200412b565b6040518091039062001b5362002f81565b50505b6001600160a01b03831660009081526101076020526040902062001b7962003045565b6001600160a01b03841660009081526101086020526040902062001b9c62003045565b91509150915091565b62001baf620021ed565b6001600160a01b03166000609762001bc662003045565b906101000a90046001600160a01b03166001600160a01b03161462001c135760405162461bcd60e51b815260040162001bff9062003fec565b6040518091039062001c1062002f81565b50505b808061011062001c2262003092565b50505050565b61010760205280600052604060002090506200082a62003045565b6101106200082a62003045565b6001600160a01b038116600090815261010a6020526040812060009062001c7662003045565b906101000a900460ff169050919050565b600061010062001c9662003045565b906101000a90046001600160a01b03166001600160a01b03165a62001cba62002fee565b6001600160a01b03161462001cf75760405162461bcd60e51b815260040162001ce39062003dfa565b6040518091039062001cf462002f81565b50505b600060fd62001d0562003045565b906101000a900460ff161515600115151462001d495760405162461bcd60e51b815260040162001d359062003f07565b6040518091039062001d4662002f81565b50505b62000b4362002a2a565b600061010062001d6262003045565b906101000a90046001600160a01b03166001600160a01b03165a62001d8662002fee565b6001600160a01b03161462001dc35760405162461bcd60e51b815260040162001daf9062003dfa565b6040518091039062001dc062002f81565b50505b62001dce8162001c50565b62001e015760405162461bcd60e51b815260040162001ded9062003f51565b6040518091039062001dfe62002f81565b50505b6001600160a01b038116600090815261010a6020526040812060018162001e2762003045565b8160ff0219169083151502179062001e3e62003092565b50505062001e4c8162002a3b565b806001600160a01b03167fe8b3c469b395bfd934168e4b7d14590c9cd1a6740533df170dbe3c219ff5a67460405160405180910390a250565b61010860205280600052604060002090506200082a62003045565b62001eaa620021ed565b6001600160a01b03166000609762001ec162003045565b906101000a90046001600160a01b03166001600160a01b03161462001f0e5760405162461bcd60e51b815260040162001efa9062003fec565b6040518091039062001f0b62002f81565b50505b808061010f62001c2262003092565b600061011062000b5462003045565b60008160ff166001141562001f6157600060ca62001f4962003045565b906101000a90046001600160a01b0316905062000c2a565b600060c962001f4962003045565b62001f79620021ed565b6001600160a01b03166000609762001f9062003045565b906101000a90046001600160a01b03166001600160a01b03161462001fdd5760405162461bcd60e51b815260040162001fc99062003fec565b6040518091039062001fda62002f81565b50505b62000a4a816200291f565b62001ff2620021ed565b6001600160a01b0316600060976200200962003045565b906101000a90046001600160a01b03166001600160a01b031614620020565760405162461bcd60e51b8152600401620020429062003fec565b604051809103906200205362002f81565b50505b6001600160a01b038116620020935760405162461bcd60e51b81526004016200207f9062003d7d565b604051809103906200209062002f81565b50505b6001600160a01b03811660006097620020ab62003045565b906101000a90046001600160a01b03166001600160a01b03167f8be0079c531659141344cd1fd0a4f28419497f9722a3daafe3b4186f6b6457e060405160405180910390a38060976001816200210062003045565b816001600160a01b0302191690836001600160a01b031602179062001c2262003092565b60008282018381101562000b675760405162461bcd60e51b81526004016200184b9062003dc3565b8082111580156200216957506101056200216562003045565b8211155b6200219c5760405162461bcd60e51b8152600401620021889062003f7e565b604051809103906200219962002f81565b50505b6001600160a01b03831660009081526101076020528290604090208190620021c362003092565b5050506001600160a01b038316600090815261010860205281906040902081906200150c62003092565b60005a62000b5462002fee565b6001600160a01b038416620022375760405162461bcd60e51b8152600401620022239062003edf565b604051809103906200223462002f81565b50505b816200226b5760405162461bcd60e51b8152600401620022579062003e1c565b604051809103906200226862002f81565b50505b606083838080601f01602080910402602001604051908101604052818152929190602084018383808284376000920182905250939450839250849150505160208401885a620022b96200333a565b5050505050801560018114620022cf57620022e6565b3d806000803e806000620022e262002f81565b5050505b5050846001600160a01b03165a620022fd62002fee565b6001600160a01b03167f78a9b536049c39a00adaf57016b1376c99dd48a0faf2cef23690232f21ce42cc60405160405180910390a36001600160a01b038516600090815261010d60205282906040902081906200235962003092565b5050505050505050565b808061010c62001c2262003092565b6001600160a01b0382166000908152610111602052819060409020600181620015cd62003045565b60006065620023a862003045565b906101000a900460ff16620023e55760405162461bcd60e51b8152600401620023d19062003d27565b60405180910390620023e262002f81565b50505b60006065600181620023f662003045565b8160ff021916908315150217906200240d62003092565b5050507f5db9ee0a495bf2e6ff9c91a7834c1ba4fdd244a5e8aa4e537bd38aeae4b073aa6200243b620021ed565b6040516200244a919062003b53565b60405180910390a1565b6000806200246162002a60565b90507efffc2da0b561cae30d9826d37709e9421c4725faebc226cbbb7ef5fc5e73498160405162002493919062003b53565b60405180910390a1806001600160a01b031663e74a474a5a63996d79a5598160e01b8152602081600483336000905af158601d01573d60011458600c01573d6000803e3d621234565260ea61109c528051925060005b60408110156200250257600082820152602001620024e9565b50505086866040518463ffffffff1660e01b8152600401620025279392919062003cae565b600060405180830381600087806200253e620030e1565b15801562002556576000806200255362002f81565b50505b505a620025626200312e565b50505050505015801562002585573d6000803e3d60006200258262002f81565b50505b50929695505050505050565b6001600160a01b038216600090815260fe602052819060409020600181620015cd62003045565b80821115620025ef5760405162461bcd60e51b8152600401620025db9062003f7e565b60405180910390620025ec62002f81565b50505b8180610101620025fe62003092565b5050508061010281906200261162003092565b5050507fb10da2958bf5ec1bff3164ff753a09e0460ed44d3abf73e79b817b500ed0f2f182826040516200264792919062004162565b60405180910390a15050565b6000805a63996d79a5598160e01b8152602081600483336000905af158601d01573d60011458600c01573d6000803e3d621234565260ea61109c528051925060005b6040811015620026ae5760008282015260200162002695565b5050509050600081620026c0620030e1565b159250505090565b6200158262002ac7565b60016000620026e062003045565b906101000a900460ff1680620026fb5750620026fb62002653565b806200271b57506000806200270f62003045565b906101000a900460ff16155b6200274e5760405162461bcd60e51b81526004016200273a9062004021565b604051809103906200274b62002f81565b50505b60006001816200275d62003045565b906101000a900460ff161590508015620027cc5760016000610100816200278362003045565b8160ff021916908315150217906200279a62003092565b50505060016000806101000a81620027b162003045565b8160ff02191690831515021790620027c862003092565b5050505b620027d662002bd5565b620027e062002ce6565b801562000a4a5760008061010081620027f862003045565b8160ff0219169083151502179062001c2262003092565b806101006001816200282062003045565b816001600160a01b0302191690836001600160a01b03160217906200284462003092565b5050507ff1034ad6b4d45dc33a4142b9c51c2b7f89bf4a410696e426cc0f3224869e0aca8160405162002878919062003b53565b60405180910390a150565b80821115620028ba5760405162461bcd60e51b8152600401620028a69062003f7e565b60405180910390620028b762002f81565b50505b8180610105620028c962003092565b505050806101068190620015f162003092565b8080610109620028eb62003092565b5050507f20d916c976f3971e8200089411b0b712ef4612d98380b8ad2e3d8a8a376d85c78160405162002878919062003cf2565b808061010b6200292e62003092565b5050507f0cd8fcb5e08d7632af461f0ad793e5c63dc0d7595c301f5880650175e37a87488160405162002878919062003cf2565b600060656200297062003045565b906101000a900460ff1615620029ae5760405162461bcd60e51b81526004016200299a9062003eb5565b60405180910390620029ab62002f81565b50505b600160658181620029be62003045565b8160ff02191690831515021790620029d562003092565b5050507f62e78cea01bee320cd4e420270b5ea74000d11b0c9f74754ebdbfc544b05a2586200243b620021ed565b600160fd818162002a1362003045565b8160ff0219169083151502179062000d2662003092565b600060fd60018162002a1362003045565b6001600160a01b038116600090815260fe602052604081206001816200210062003045565b600080606060405162002a76602082016200334c565b601f1982820381018352601f909101166040529050805160208201600062002a9d6200335a565b505091508162002aac620030e1565b62002ac15760008062002abe62002f81565b50505b50905090565b6001600062002ad562003045565b906101000a900460ff168062002af0575062002af062002653565b8062002b10575060008062002b0462003045565b906101000a900460ff16155b62002b435760405162461bcd60e51b815260040162002b2f9062004021565b6040518091039062002b4062002f81565b50505b600060018162002b5262003045565b906101000a900460ff16159050801562002bc157600160006101008162002b7862003045565b8160ff0219169083151502179062002b8f62003092565b50505060016000806101000a8162002ba662003045565b8160ff0219169083151502179062002bbd62003092565b5050505b62002bcb62002bd5565b620027e062002df1565b6001600062002be362003045565b906101000a900460ff168062002bfe575062002bfe62002653565b8062002c1e575060008062002c1262003045565b906101000a900460ff16155b62002c515760405162461bcd60e51b815260040162002c3d9062004021565b6040518091039062002c4e62002f81565b50505b600060018162002c6062003045565b906101000a900460ff161590508015620027e057600160006101008162002c8662003045565b8160ff0219169083151502179062002c9d62003092565b50505060016000806101000a8162002cb462003045565b8160ff0219169083151502179062002ccb62003092565b505050801562000a4a5760008061010081620027f862003045565b6001600062002cf462003045565b906101000a900460ff168062002d0f575062002d0f62002653565b8062002d2f575060008062002d2362003045565b906101000a900460ff16155b62002d625760405162461bcd60e51b815260040162002d4e9062004021565b6040518091039062002d5f62002f81565b50505b600060018162002d7162003045565b906101000a900460ff16159050801562002de057600160006101008162002d9762003045565b8160ff0219169083151502179062002dae62003092565b50505060016000806101000a8162002dc562003045565b8160ff0219169083151502179062002ddc62003092565b5050505b6000606560018162002cb462003045565b6001600062002dff62003045565b906101000a900460ff168062002e1a575062002e1a62002653565b8062002e3a575060008062002e2e62003045565b906101000a900460ff16155b62002e6d5760405162461bcd60e51b815260040162002e599062004021565b6040518091039062002e6a62002f81565b50505b600060018162002e7c62003045565b906101000a900460ff16159050801562002eeb57600160006101008162002ea262003045565b8160ff0219169083151502179062002eb962003092565b50505060016000806101000a8162002ed062003045565b8160ff0219169083151502179062002ee762003092565b5050505b600062002ef7620021ed565b905080609760018162002f0962003045565b816001600160a01b0302191690836001600160a01b031602179062002f2d62003092565b5050506001600160a01b03811660007f8be0079c531659141344cd1fd0a4f28419497f9722a3daafe3b4186f6b6457e060405160405180910390a350801562000a4a5760008061010081620027f862003045565b632a2a7adb598160e01b8152600481016020815285602082015260005b8681101562002fbb57808601518282016040015260200162002f9e565b506020828760640184336000905af158601d01573d60011458600c01573d6000803e3d621234565260ea61109c52505050565b6373509064598160e01b8152602081600483336000905af158601d01573d60011458600c01573d6000803e3d621234565260ea61109c528051935060005b604081101562000d26576000828201526020016200302c565b6303daa959598160e01b8152836004820152602081602483336000905af158601d01573d60011458600c01573d6000803e3d621234565260ea61109c52805160008252935060206200302c565b6322bd64c0598160e01b8152836004820152846024820152600081604483336000905af158601d01573d60011458600c01573d6000803e3d621234565260ea61109c526000815260206200302c565b638435035b598160e01b8152836004820152602081602483336000905af158601d01573d60011458600c01573d6000803e3d621234565260ea61109c52805160008252935060206200302c565b6385979f76598160e01b815262003162565b808083111562000b6a575090919050565b808083101562000b6a575090919050565b836004820152846024820152606060448201528760648201526084810160005b898110156200319c57808901518282015260200162003182565b506060828a60a40184336000905af158601d01573d60011458600c01573d6000803e3d621234565260ea61109c52815160408301513d6000853e8c8c82606087013350600060045af15059620031f38e3d62003151565b8d0162003201818762003140565b5b8281101562003218576000815260200162003202565b50929d50505050505050565b63bdbf8c36598160e01b8152602081600483336000905af158601d01573d60011458600c01573d6000803e3d621234565260ea61109c52805160008252935060206200302c565b638540661f598160e01b81525b836004820152846024820152606060448201528660648201526084810160005b88811015620032b257808801518282015260200162003298565b506060828960a40184336000905af158601d01573d60011458600c01573d6000803e3d621234565260ea61109c52815160408301513d6000853e8b8b82606087013350600060045af15059620033098d3d62003151565b8c0162003317818762003140565b5b828110156200332e576000815260200162003318565b50929c50505050505050565b63ffe73914598160e01b815262003278565b6107c180620041eb83390190565b6314aa2ff7598160e01b8152600481016020815286602082015260005b878110156200339457808701518282016040015260200162003377565b506020828860640184336000905af158601d01573d60011458600c01573d6000803e3d621234565260ea61109c528151965059825b81811015620015f15760008152602001620033c9565b80356001600160a01b038116811462000b6a57600080620033ff62002f81565b505092915050565b600082601f830112620034235780816200342062002f81565b50505b81356200343a6200343482620041a7565b62004170565b81815291506020808301908481018184028601820187101562003467576000806200346462002f81565b50505b60005b8481101562003492576200347f8883620033df565b845292820192908201906001016200346a565b505050505092915050565b600082601f830112620034b9578081620034b662002f81565b50505b8135620034ca6200343482620041a7565b8181529150602080830190848101604080850287018301881015620034f957600080620034f662002f81565b50505b6000805b868110156200355e5782848b031215620035205781826200351d62002f81565b50505b6200352b8362004170565b620035378b86620033df565b8152620035478b8787016200356b565b8187015286529484019492820192600101620034fd565b5050505050505092915050565b803562000b6a81620041d3565b600082601f830112620035945780816200359162002f81565b50505b813567ffffffffffffffff811115620035b6578182620035b362002f81565b50505b620035cb601f8201601f191660200162004170565b9150808252836020828501011115620035ee57600080620035eb62002f81565b50505b8060208401602084013760009082016020015292915050565b803560ff8116811462000b6a57600080620033ff62002f81565b60008151905069ffffffffffffffffffff8116811462000b6a57600080620033ff62002f81565b600060208284031215620036655780816200366262002f81565b50505b62000b678383620033df565b600080604083850312156200368f5780816200368c62002f81565b50505b6200369b8484620033df565b9150620036ac8460208501620033df565b90509250929050565b600080600080600060a08688031215620036d8578081620036d562002f81565b50505b620036e48787620033df565b9450620036f58760208801620033df565b9350620037068760408801620033df565b9250606086013567ffffffffffffffff808211156200372e5782836200372b62002f81565b50505b6200373c89838a0162003407565b935060808801359150808211156200375d5782836200375a62002f81565b50505b506200376c8882890162003407565b9150509295509295909350565b60008060408385031215620037975781826200379462002f81565b50505b620037a38484620033df565b946020939093013593505050565b600060208284031215620037ce578081620037cb62002f81565b50505b815162000b6781620041d3565b600080600080600080600060e0888a03121562003801578182620037fe62002f81565b50505b6200380d89896200356b565b96506200381e8960208a01620033df565b9550604088013567ffffffffffffffff80821115620038465783846200384362002f81565b50505b620038548b838c0162003578565b965060608a0135915080821115620038755783846200387262002f81565b50505b620038838b838c0162003578565b955060808a0135915080821115620038a4578384620038a162002f81565b50505b620038b28b838c0162003578565b945060a08a0135935060c08a0135915080821115620038da578283620038d762002f81565b50505b50620038e98a828b016200349d565b91505092959891949750929550565b600060208284031215620039155780816200391262002f81565b50505b5035919050565b600080604083850312156200393a5781826200393762002f81565b50505b823567ffffffffffffffff8111156200395c5782836200395962002f81565b50505b6200396a8582860162003578565b925050620036ac846020850162003607565b600080604083850312156200399a5781826200399762002f81565b50505b50508035926020909101359150565b60008060008060008060a08789031215620039cd578384620039ca62002f81565b50505b86359550602087013594506040870135935060608701359250608087013567ffffffffffffffff8082111562003a0c57838462003a0962002f81565b50505b818901915089601f83011262003a2b57838462003a2862002f81565b50505b81358181111562003a4557848562003a4262002f81565b50505b8a602082850101111562003a6257848562003a5f62002f81565b50505b6020830194508093505050509295509295509295565b60006020828403121562003a9557808162003a9262002f81565b50505b62000b67838362003607565b600080600080600060a0868803121562003ac457828362003ac162002f81565b50505b62003ad0878762003621565b945060208601519350604086015192506060860151915062003af6876080880162003621565b90509295509295909350565b60008151808452815b8181101562003b2c5760208082860101518683019091015260200162003b0b565b8181111562003b3e5782602083870101525b50601f01601f19169290920160200192915050565b6001600160a01b0391909116815260200190565b600060018060a01b038087168352602081871681850152604060808186015262003b95608086018862003b02565b85810360608701528087518083528885019285019150865b8181101562003bda5783518781511684528681015115158488015250928501929184019160010162003bad565b50909b9a5050505050505050505050565b600060018060a01b038088168352861515602084015260a0604084015262003c1760a084018762003b02565b838103606085015262003c2b818762003b02565b9250508084166080840152509695505050505050565b6001600160a01b03898116825288151560208301526101006040830181905260009162003c718483018b62003b02565b9150838203606085015262003c87828a62003b02565b97166080840152505060a081019390935260c083019190915260e090910152949350505050565b6001600160a01b038416815260606020820181905260009062003cd49083018562003b02565b905060ff83166040830152949350505050565b901515815260200190565b90815260200190565b6020808252601290820152712737ba1030903837b7b61036b0b730b3b2b960711b604082015260600190565b60208082526014908201527314185d5cd8589b194e881b9bdd081c185d5cd95960621b604082015260600190565b6020808252600e908201526d696e76616c696420626f756e647360901b604082015260600190565b60208082526026908201527f4f776e61626c653a206e6577206f776e657220697320746865207a65726f206160408201526564647265737360d01b606082015260800190565b6020808252601b908201527f536166654d6174683a206164646974696f6e206f766572666c6f770000000000604082015260600190565b6020808252600890820152676f6e6c792064616f60c01b604082015260600190565b6020808252600c908201526b19185d184b5a5b9d985b1a5960a21b604082015260600190565b6020808252601490820152730dac2dcc2cecae440cccaca40e8dede40d0d2ced60631b604082015260600190565b60208082526025908201527f5072696365436f6e73756d657256333a2061676772656761746f72206e6f7420604082015264199bdd5b9960da1b606082015260800190565b60208082526010908201526f14185d5cd8589b194e881c185d5cd95960821b604082015260600190565b6020808252600e908201526d1d185c99d95d0b5a5b9d985b1a5960921b604082015260600190565b6020808252602a908201527f5072696365436f6e73756d657256333a20636861696e6c696e6b20616c726561604082015269191e48195b98589b195960b21b606082015260800190565b602080825260139082015272185cdcd95d08191bd95cdb89dd08195e1a5cdd606a1b604082015260600190565b60208082526010908201526f34b73b30b634b210333930b1ba34b7b760811b604082015260600190565b60208082526024908201527f5072696365436f6e73756d657256333a207072696365206e6f7420617661696c60408201526361626c6560e01b606082015260800190565b6020808252818101527f4f776e61626c653a2063616c6c6572206973206e6f7420746865206f776e6572604082015260600190565b6020808252602e908201527f436f6e747261637420696e7374616e63652068617320616c726561647920626560408201526d195b881a5b9a5d1a585b1a5e995960921b606082015260800190565b602080825260149082015273617373657420616c72656164792065786973747360601b604082015260600190565b60208082526028908201527f5072696365436f6e73756d657256333a20636861696e6c696e6b20707269636560408201526708195e1c1a5c995960c21b606082015260800190565b60208082526026908201527f5072696365436f6e73756d657256333a20636861696e6c696e6b206e6f7420656040820152651b98589b195960d21b606082015260800190565b6020808252601e908201527f737570706c6965642061646472657373206973206e6f74206120706f6f6c0000604082015260600190565b918252602082015260400190565b6000604051905081810181811067ffffffffffffffff821117156200419f576000806200419c62002f81565b50505b604052919050565b600067ffffffffffffffff821115620041c9578081620041c662002f81565b50505b5060209081020190565b801515811462000a4a5760008062000d2662002f8156fe60806040523480156100195760008061001661001f565b50505b5061008a565b632a2a7adb598160e01b8152600481016020815285602082015260005b8681101561005757808601518282016040015260200161003c565b506020828760640184336000905af158601d01573d60011458600c01573d6000803e3d621234565260ea61109c52505050565b610728806100996000396000f3fe6080604052600436106100225760003560e01c8063e74a474a1461003957610031565b366100315761002f610117565b005b61002f610117565b61002f60048036036060811015610058576000806100556104ca565b50505b6001600160a01b03823516919081019060408101602082013564010000000081111561008c576000806100896104ca565b50505b8201836020820111156100a7576000806100a46104ca565b50505b803590602001918460018302840111640100000000831117156100d2576000806100cf6104ca565b50505b91908080601f01602080910402602001604051908101604052818152929190602084018383808284376000920191909152509295505050903560ff1691506101319050565b61011f61012f565b61012f61012a6102c3565b6103c4565b565b600061013b6102c3565b6001600160a01b03161461018e5760405162461bcd60e51b815260206004820152600d60248201526c496d706c206e6f74207a65726f60981b60448201526064016040518091039061018b6104ca565b50505b61019783610401565b6101a08161048e565b6000825111156102be5760006101b46102c3565b6001600160a01b0316836040518082805190602001908083835b602083106101ed5780518252601f1990920191602091820191016101ce565b6001836020036101000a038019825116818451168082178552505050505050905001915050600060405180830381855a610225610535565b50505050509150503d8060008114610259576040513d603f01601f191681016040523d815291503d6000602084013e61025e565b606091505b50509050806102bc5760405162461bcd60e51b815260206004820152601a60248201527f496d706c656d656e746174696f6e20696e6974206661696c65640000000000006044820152606401604051809103906102b96104ca565b50505b505b505050565b6000807f360894a13ba1a3210667c828492db98dca3e2076cc3735a920a3ca505d382bbc806102f0610622565b91506001600160a01b03821661030b576000925050506103c1565b816001600160a01b031663ecef89d561032261049d565b6040516001600160e01b031960e084901b16815260ff9091166004820152602401602060405180830381868061035661067d565b15801561036b576000806103686104ca565b50505b505a6103756106c9565b5050505050158015610394573d6000803e3d60006103916104ca565b50505b505050506040513d60208110156103b3576000806103b06104ca565b50505b810190808051955050505050505b90565b3660008037600080366000845a6103d9610535565b50505050503d6000803e8080156103ef573d6000f35b3d60006103fa6104ca565b5050505050565b61040a816104b5565b6104635760405162461bcd60e51b815260206004820181905260248201527f43616e6e6f742073657420696d706c656d656e746174696f6e20746f20454f416044820152606401604051809103906104606104ca565b50505b7f360894a13ba1a3210667c828492db98dca3e2076cc3735a920a3ca505d382bbc81816102bc6106da565b600160fc1b81816102bc6106da565b600080600160fc1b806104ae610622565b9250505090565b600080826104c161067d565b15159392505050565b632a2a7adb598160e01b8152600481016020815285602082015260005b868110156105025780860151828201604001526020016104e7565b506020828760640184336000905af158601d01573d60011458600c01573d6000803e3d621234565260ea61109c52505050565b63ffe73914598160e01b8152610568565b80808311156105525750815b92915050565b8080831015610552575090919050565b836004820152846024820152606060448201528660648201526084810160005b888110156105a0578088015182820152602001610588565b506060828960a40184336000905af158601d01573d60011458600c01573d6000803e3d621234565260ea61109c52815160408301513d6000853e8b8b82606087013350600060045af150596105f58d3d610558565b8c016106018187610546565b5b828110156106165760008152602001610602565b50929c50505050505050565b6303daa959598160e01b8152836004820152602081602483336000905af158601d01573d60011458600c01573d6000803e3d621234565260ea61109c528051935060005b60408110156102be57600082820152602001610666565b638435035b598160e01b8152836004820152602081602483336000905af158601d01573d60011458600c01573d6000803e3d621234565260ea61109c5280516000825293506020610666565b638540661f598160e01b8152610568565b6322bd64c0598160e01b8152836004820152846024820152600081604483336000905af158601d01573d60011458600c01573d6000803e3d621234565260ea61109c5260008152602061066656",
  "linkReferences": {},
  "deployedLinkReferences": {}
}