{
  "_format": "hh-sol-artifact-1",
  "contractName": "PoolFactory",
  "sourceName": "contracts/PoolFactory.sol",
  "abi": [
    {
      "anonymous": false,
      "inputs": [
        {
          "indexed": true,
          "internalType": "address",
          "name": "asset",
          "type": "address"
        }
      ],
      "name": "AddedValidAsset",
      "type": "event"
    },
    {
      "anonymous": false,
      "inputs": [
        {
          "indexed": false,
          "internalType": "address",
          "name": "dao",
          "type": "address"
        }
      ],
      "name": "DaoAddressSet",
      "type": "event"
    },
    {
      "anonymous": false,
      "inputs": [
        {
          "indexed": false,
          "internalType": "uint256",
          "name": "numerator",
          "type": "uint256"
        },
        {
          "indexed": false,
          "internalType": "uint256",
          "name": "denominator",
          "type": "uint256"
        }
      ],
      "name": "DaoFeeSet",
      "type": "event"
    },
    {
      "anonymous": false,
      "inputs": [
        {
          "indexed": false,
          "internalType": "uint256",
          "name": "cooldown",
          "type": "uint256"
        }
      ],
      "name": "ExitCooldownSet",
      "type": "event"
    },
    {
      "anonymous": false,
      "inputs": [
        {
          "indexed": false,
          "internalType": "uint256",
          "name": "numerator",
          "type": "uint256"
        },
        {
          "indexed": false,
          "internalType": "uint256",
          "name": "denominator",
          "type": "uint256"
        }
      ],
      "name": "ExitFeeSet",
      "type": "event"
    },
    {
      "anonymous": false,
      "inputs": [
        {
          "indexed": false,
          "internalType": "address",
          "name": "fundAddress",
          "type": "address"
        },
        {
          "indexed": false,
          "internalType": "bool",
          "name": "isPoolPrivate",
          "type": "bool"
        },
        {
          "indexed": false,
          "internalType": "string",
          "name": "fundName",
          "type": "string"
        },
        {
          "indexed": false,
          "internalType": "string",
          "name": "managerName",
          "type": "string"
        },
        {
          "indexed": false,
          "internalType": "address",
          "name": "manager",
          "type": "address"
        },
        {
          "indexed": false,
          "internalType": "uint256",
          "name": "time",
          "type": "uint256"
        },
        {
          "indexed": false,
          "internalType": "uint256",
          "name": "managerFeeNumerator",
          "type": "uint256"
        },
        {
          "indexed": false,
          "internalType": "uint256",
          "name": "managerFeeDenominator",
          "type": "uint256"
        }
      ],
      "name": "FundCreated",
      "type": "event"
    },
    {
      "anonymous": false,
      "inputs": [
        {
          "indexed": true,
          "internalType": "address",
          "name": "manager",
          "type": "address"
        },
        {
          "indexed": true,
          "internalType": "address",
          "name": "pool",
          "type": "address"
        }
      ],
      "name": "LogUpgrade",
      "type": "event"
    },
    {
      "anonymous": false,
      "inputs": [
        {
          "indexed": false,
          "internalType": "uint256",
          "name": "count",
          "type": "uint256"
        }
      ],
      "name": "MaximumSupportedAssetCountSet",
      "type": "event"
    },
    {
      "anonymous": false,
      "inputs": [
        {
          "indexed": true,
          "internalType": "address",
          "name": "previousOwner",
          "type": "address"
        },
        {
          "indexed": true,
          "internalType": "address",
          "name": "newOwner",
          "type": "address"
        }
      ],
      "name": "OwnershipTransferred",
      "type": "event"
    },
    {
      "anonymous": false,
      "inputs": [
        {
          "indexed": false,
          "internalType": "address",
          "name": "proxy",
          "type": "address"
        }
      ],
      "name": "ProxyCreated",
      "type": "event"
    },
    {
      "anonymous": false,
      "inputs": [
        {
          "indexed": true,
          "internalType": "address",
          "name": "asset",
          "type": "address"
        }
      ],
      "name": "RemovedValidAsset",
      "type": "event"
    },
    {
      "inputs": [
        {
          "internalType": "address",
          "name": "asset",
          "type": "address"
        },
        {
          "internalType": "address",
          "name": "aggregator",
          "type": "address"
        }
      ],
      "name": "addValidAsset",
      "outputs": [],
      "stateMutability": "nonpayable",
      "type": "function"
    },
    {
      "inputs": [
        {
          "internalType": "bool",
          "name": "_privatePool",
          "type": "bool"
        },
        {
          "internalType": "address",
          "name": "_manager",
          "type": "address"
        },
        {
          "internalType": "string",
          "name": "_managerName",
          "type": "string"
        },
        {
          "internalType": "string",
          "name": "_fundName",
          "type": "string"
        },
        {
          "internalType": "string",
          "name": "_fundSymbol",
          "type": "string"
        },
        {
          "internalType": "uint256",
          "name": "_managerFeeNumerator",
          "type": "uint256"
        },
        {
          "components": [
            {
              "internalType": "address",
              "name": "asset",
              "type": "address"
            },
            {
              "internalType": "bool",
              "name": "isDeposit",
              "type": "bool"
            }
          ],
          "internalType": "struct IPoolManagerLogic.Asset[]",
          "name": "_supportedAssets",
          "type": "tuple[]"
        }
      ],
      "name": "createFund",
      "outputs": [
        {
          "internalType": "address",
          "name": "",
          "type": "address"
        }
      ],
      "stateMutability": "nonpayable",
      "type": "function"
    },
    {
      "inputs": [
        {
          "internalType": "bytes",
          "name": "_data",
          "type": "bytes"
        },
        {
          "internalType": "uint8",
          "name": "_proxyType",
          "type": "uint8"
        }
      ],
      "name": "deploy",
      "outputs": [
        {
          "internalType": "address",
          "name": "",
          "type": "address"
        }
      ],
      "stateMutability": "nonpayable",
      "type": "function"
    },
    {
      "inputs": [
        {
          "internalType": "uint256",
          "name": "",
          "type": "uint256"
        }
      ],
      "name": "deployedFunds",
      "outputs": [
        {
          "internalType": "address",
          "name": "",
          "type": "address"
        }
      ],
      "stateMutability": "view",
      "type": "function"
    },
    {
      "inputs": [],
      "name": "deployedFundsLength",
      "outputs": [
        {
          "internalType": "uint256",
          "name": "",
          "type": "uint256"
        }
      ],
      "stateMutability": "view",
      "type": "function"
    },
    {
      "inputs": [],
      "name": "disableChainlink",
      "outputs": [],
      "stateMutability": "nonpayable",
      "type": "function"
    },
    {
      "inputs": [],
      "name": "enableChainlink",
      "outputs": [],
      "stateMutability": "nonpayable",
      "type": "function"
    },
    {
      "inputs": [],
      "name": "erc20Guard",
      "outputs": [
        {
          "internalType": "address",
          "name": "",
          "type": "address"
        }
      ],
      "stateMutability": "view",
      "type": "function"
    },
    {
      "inputs": [],
      "name": "getDaoAddress",
      "outputs": [
        {
          "internalType": "address",
          "name": "",
          "type": "address"
        }
      ],
      "stateMutability": "view",
      "type": "function"
    },
    {
      "inputs": [],
      "name": "getDaoFee",
      "outputs": [
        {
          "internalType": "uint256",
          "name": "",
          "type": "uint256"
        },
        {
          "internalType": "uint256",
          "name": "",
          "type": "uint256"
        }
      ],
      "stateMutability": "view",
      "type": "function"
    },
    {
      "inputs": [],
      "name": "getExitCooldown",
      "outputs": [
        {
          "internalType": "uint256",
          "name": "",
          "type": "uint256"
        }
      ],
      "stateMutability": "view",
      "type": "function"
    },
    {
      "inputs": [
        {
          "internalType": "address",
          "name": "extContract",
          "type": "address"
        }
      ],
      "name": "getGuard",
      "outputs": [
        {
          "internalType": "address",
          "name": "",
          "type": "address"
        }
      ],
      "stateMutability": "view",
      "type": "function"
    },
    {
      "inputs": [
        {
          "internalType": "uint8",
          "name": "_proxyType",
          "type": "uint8"
        }
      ],
      "name": "getLogic",
      "outputs": [
        {
          "internalType": "address",
          "name": "",
          "type": "address"
        }
      ],
      "stateMutability": "view",
      "type": "function"
    },
    {
      "inputs": [],
      "name": "getManagerFeeNumeratorChangeDelay",
      "outputs": [
        {
          "internalType": "uint256",
          "name": "",
          "type": "uint256"
        }
      ],
      "stateMutability": "view",
      "type": "function"
    },
    {
      "inputs": [],
      "name": "getMaximumManagerFee",
      "outputs": [
        {
          "internalType": "uint256",
          "name": "",
          "type": "uint256"
        },
        {
          "internalType": "uint256",
          "name": "",
          "type": "uint256"
        }
      ],
      "stateMutability": "view",
      "type": "function"
    },
    {
      "inputs": [],
      "name": "getMaximumManagerFeeNumeratorChange",
      "outputs": [
        {
          "internalType": "uint256",
          "name": "",
          "type": "uint256"
        }
      ],
      "stateMutability": "view",
      "type": "function"
    },
    {
      "inputs": [],
      "name": "getMaximumSupportedAssetCount",
      "outputs": [
        {
          "internalType": "uint256",
          "name": "",
          "type": "uint256"
        }
      ],
      "stateMutability": "view",
      "type": "function"
    },
    {
      "inputs": [
        {
          "internalType": "address",
          "name": "pool",
          "type": "address"
        }
      ],
      "name": "getPoolManagerFee",
      "outputs": [
        {
          "internalType": "uint256",
          "name": "",
          "type": "uint256"
        },
        {
          "internalType": "uint256",
          "name": "",
          "type": "uint256"
        }
      ],
      "stateMutability": "view",
      "type": "function"
    },
    {
      "inputs": [],
      "name": "getTrackingCode",
      "outputs": [
        {
          "internalType": "bytes32",
          "name": "",
          "type": "bytes32"
        }
      ],
      "stateMutability": "view",
      "type": "function"
    },
    {
      "inputs": [
        {
          "internalType": "address",
          "name": "_asset",
          "type": "address"
        }
      ],
      "name": "getUSDPrice",
      "outputs": [
        {
          "internalType": "uint256",
          "name": "",
          "type": "uint256"
        }
      ],
      "stateMutability": "view",
      "type": "function"
    },
    {
      "inputs": [
        {
          "internalType": "address",
          "name": "_poolLogic",
          "type": "address"
        },
        {
          "internalType": "address",
          "name": "_managerLogic",
          "type": "address"
        },
        {
          "internalType": "address",
          "name": "daoAddress",
          "type": "address"
        },
        {
          "internalType": "address[]",
          "name": "_validAssets",
          "type": "address[]"
        },
        {
          "internalType": "address[]",
          "name": "_aggregators",
          "type": "address[]"
        }
      ],
      "name": "initialize",
      "outputs": [],
      "stateMutability": "nonpayable",
      "type": "function"
    },
    {
      "inputs": [
        {
          "internalType": "address",
          "name": "",
          "type": "address"
        }
      ],
      "name": "isPool",
      "outputs": [
        {
          "internalType": "bool",
          "name": "",
          "type": "bool"
        }
      ],
      "stateMutability": "view",
      "type": "function"
    },
    {
      "inputs": [
        {
          "internalType": "address",
          "name": "",
          "type": "address"
        }
      ],
      "name": "isPoolManager",
      "outputs": [
        {
          "internalType": "bool",
          "name": "",
          "type": "bool"
        }
      ],
      "stateMutability": "view",
      "type": "function"
    },
    {
      "inputs": [
        {
          "internalType": "address",
          "name": "asset",
          "type": "address"
        }
      ],
      "name": "isValidAsset",
      "outputs": [
        {
          "internalType": "bool",
          "name": "",
          "type": "bool"
        }
      ],
      "stateMutability": "view",
      "type": "function"
    },
    {
      "inputs": [],
      "name": "managerFeeNumeratorChangeDelay",
      "outputs": [
        {
          "internalType": "uint256",
          "name": "",
          "type": "uint256"
        }
      ],
      "stateMutability": "view",
      "type": "function"
    },
    {
      "inputs": [],
      "name": "maximumManagerFeeNumeratorChange",
      "outputs": [
        {
          "internalType": "uint256",
          "name": "",
          "type": "uint256"
        }
      ],
      "stateMutability": "view",
      "type": "function"
    },
    {
      "inputs": [],
      "name": "owner",
      "outputs": [
        {
          "internalType": "address",
          "name": "",
          "type": "address"
        }
      ],
      "stateMutability": "view",
      "type": "function"
    },
    {
      "inputs": [
        {
          "internalType": "address",
          "name": "",
          "type": "address"
        }
      ],
      "name": "poolManagerFeeDenominator",
      "outputs": [
        {
          "internalType": "uint256",
          "name": "",
          "type": "uint256"
        }
      ],
      "stateMutability": "view",
      "type": "function"
    },
    {
      "inputs": [
        {
          "internalType": "address",
          "name": "",
          "type": "address"
        }
      ],
      "name": "poolManagerFeeNumerator",
      "outputs": [
        {
          "internalType": "uint256",
          "name": "",
          "type": "uint256"
        }
      ],
      "stateMutability": "view",
      "type": "function"
    },
    {
      "inputs": [],
      "name": "poolStorageVersion",
      "outputs": [
        {
          "internalType": "uint256",
          "name": "",
          "type": "uint256"
        }
      ],
      "stateMutability": "view",
      "type": "function"
    },
    {
      "inputs": [
        {
          "internalType": "address",
          "name": "",
          "type": "address"
        }
      ],
      "name": "poolVersion",
      "outputs": [
        {
          "internalType": "uint256",
          "name": "",
          "type": "uint256"
        }
      ],
      "stateMutability": "view",
      "type": "function"
    },
    {
      "inputs": [
        {
          "internalType": "address",
          "name": "asset",
          "type": "address"
        }
      ],
      "name": "removeValidAsset",
      "outputs": [],
      "stateMutability": "nonpayable",
      "type": "function"
    },
    {
      "inputs": [],
      "name": "renounceOwnership",
      "outputs": [],
      "stateMutability": "nonpayable",
      "type": "function"
    },
    {
      "inputs": [
        {
          "internalType": "address",
          "name": "daoAddress",
          "type": "address"
        }
      ],
      "name": "setDaoAddress",
      "outputs": [],
      "stateMutability": "nonpayable",
      "type": "function"
    },
    {
      "inputs": [
        {
          "internalType": "uint256",
          "name": "numerator",
          "type": "uint256"
        },
        {
          "internalType": "uint256",
          "name": "denominator",
          "type": "uint256"
        }
      ],
      "name": "setDaoFee",
      "outputs": [],
      "stateMutability": "nonpayable",
      "type": "function"
    },
    {
      "inputs": [
        {
          "internalType": "address",
          "name": "_guard",
          "type": "address"
        }
      ],
      "name": "setERC20Guard",
      "outputs": [],
      "stateMutability": "nonpayable",
      "type": "function"
    },
    {
      "inputs": [
        {
          "internalType": "uint256",
          "name": "cooldown",
          "type": "uint256"
        }
      ],
      "name": "setExitCooldown",
      "outputs": [],
      "stateMutability": "nonpayable",
      "type": "function"
    },
    {
      "inputs": [
        {
          "internalType": "address",
          "name": "extContract",
          "type": "address"
        },
        {
          "internalType": "address",
          "name": "guardAddress",
          "type": "address"
        }
      ],
      "name": "setGuard",
      "outputs": [],
      "stateMutability": "nonpayable",
      "type": "function"
    },
    {
      "inputs": [
        {
          "internalType": "address",
          "name": "_poolLogic",
          "type": "address"
        },
        {
          "internalType": "address",
          "name": "_poolManagerLogic",
          "type": "address"
        }
      ],
      "name": "setLogic",
      "outputs": [],
      "stateMutability": "nonpayable",
      "type": "function"
    },
    {
      "inputs": [
        {
          "internalType": "uint256",
          "name": "delay",
          "type": "uint256"
        }
      ],
      "name": "setManagerFeeNumeratorChangeDelay",
      "outputs": [],
      "stateMutability": "nonpayable",
      "type": "function"
    },
    {
      "inputs": [
        {
          "internalType": "uint256",
          "name": "amount",
          "type": "uint256"
        }
      ],
      "name": "setMaximumManagerFeeNumeratorChange",
      "outputs": [],
      "stateMutability": "nonpayable",
      "type": "function"
    },
    {
      "inputs": [
        {
          "internalType": "uint256",
          "name": "count",
          "type": "uint256"
        }
      ],
      "name": "setMaximumSupportedAssetCount",
      "outputs": [],
      "stateMutability": "nonpayable",
      "type": "function"
    },
    {
      "inputs": [
        {
          "internalType": "address",
          "name": "pool",
          "type": "address"
        },
        {
          "internalType": "uint256",
          "name": "numerator",
          "type": "uint256"
        }
      ],
      "name": "setPoolManagerFeeNumerator",
      "outputs": [],
      "stateMutability": "nonpayable",
      "type": "function"
    },
    {
      "inputs": [
        {
          "internalType": "bytes32",
          "name": "code",
          "type": "bytes32"
        }
      ],
      "name": "setTrackingCode",
      "outputs": [],
      "stateMutability": "nonpayable",
      "type": "function"
    },
    {
      "inputs": [
        {
          "internalType": "address",
          "name": "newOwner",
          "type": "address"
        }
      ],
      "name": "transferOwnership",
      "outputs": [],
      "stateMutability": "nonpayable",
      "type": "function"
    },
    {
      "inputs": [
        {
          "internalType": "uint256",
          "name": "startIndex",
          "type": "uint256"
        },
        {
          "internalType": "uint256",
          "name": "endIndex",
          "type": "uint256"
        },
        {
          "internalType": "uint256",
          "name": "sourceVersion",
          "type": "uint256"
        },
        {
          "internalType": "uint256",
          "name": "targetVersion",
          "type": "uint256"
        },
        {
          "internalType": "bytes",
          "name": "data",
          "type": "bytes"
        }
      ],
      "name": "upgradePoolBatch",
      "outputs": [],
      "stateMutability": "nonpayable",
      "type": "function"
    }
  ],
  "bytecode": "0x608060405234801561001057600080fd5b50612ea2806100206000396000f3fe608060405234801561001057600080fd5b50600436106102745760003560e01c80638da5cb5b11610151578063bee37e52116100c3578063e60eb41211610087578063e60eb41214610ad9578063e99c0fa614610aff578063ebee461d14610b1c578063ecef89d514610b24578063eec16c4414610b44578063f2fde38b14610b6157610274565b8063bee37e5214610a57578063bfeaf71d14610a7d578063cc435bf314610a85578063d54e96d214610aab578063dc76d25414610ab357610274565b8063aa12ae4d11610115578063aa12ae4d146109c1578063aa7d664e146109c9578063b193a5f4146109e6578063b280600114610a0c578063b7a5452614610a14578063bcb01f4414610a3a57610274565b80638da5cb5b1461094d57806394d0d23b146109555780639a068bd6146109765780639a3cac6a146109935780639cada6e4146109b957610274565b806349f7c02d116101ea578063715018a6116101ae578063715018a61461075c578063742a96cd14610764578063771d1baf14610792578063790fcf9f146107b5578063808ae5fb146108f95780638b2f0f4f1461092757610274565b806349f7c02d146106c65780635556ee55146106ce5780635b16ebb7146106f45780635c9bfc2b1461072e5780637027ea6c1461073657610274565b80631e666d131161023c5780631e666d13146102f55780631e8e8bca1461037b578063227773ee14610398578063391d348b146103c65780634501b0881461061557806345812ca51461061d57610274565b8063046b72c4146102795780630bf99bd9146102a75780630f6559c4146102c157806310bf69dc146102c95780631d68702d146102d1575b600080fd5b6102a56004803603604081101561028f57600080fd5b506001600160a01b038135169060200135610b87565b005b6102af610cd8565b60408051918252519081900360200190f35b6102af610cde565b6102af610ce4565b6102d9610cea565b604080516001600160a01b039092168252519081900360200190f35b6102a5600480360360a081101561030b57600080fd5b81359160208101359160408201359160608101359181019060a081016080820135600160201b81111561033d57600080fd5b82018360208201111561034f57600080fd5b803590602001918460018302840111600160201b8311171561037057600080fd5b509092509050610cf9565b6102a56004803603602081101561039157600080fd5b5035610e1c565b6102a5600480360360408110156103ae57600080fd5b506001600160a01b0381358116916020013516610e80565b6102d9600480360360e08110156103dc57600080fd5b81351515916001600160a01b0360208201351691810190606081016040820135600160201b81111561040d57600080fd5b82018360208201111561041f57600080fd5b803590602001918460018302840111600160201b8311171561044057600080fd5b91908080601f0160208091040260200160405190810160405280939291908181526020018383808284376000920191909152509295949360208101935035915050600160201b81111561049257600080fd5b8201836020820111156104a457600080fd5b803590602001918460018302840111600160201b831117156104c557600080fd5b91908080601f0160208091040260200160405190810160405280939291908181526020018383808284376000920191909152509295949360208101935035915050600160201b81111561051757600080fd5b82018360208201111561052957600080fd5b803590602001918460018302840111600160201b8311171561054a57600080fd5b91908080601f01602080910402602001604051908101604052809392919081815260200183838082843760009201919091525092958435959094909350604081019250602001359050600160201b8111156105a457600080fd5b8201836020820111156105b657600080fd5b803590602001918460208302840111600160201b831117156105d757600080fd5b919080806020026020016040519081016040528093929190818152602001838360200280828437600092019190915250929550610ed4945050505050565b6102af6113b0565b6102d96004803603604081101561063357600080fd5b810190602081018135600160201b81111561064d57600080fd5b82018360208201111561065f57600080fd5b803590602001918460018302840111600160201b8311171561068057600080fd5b91908080601f0160208091040260200160405190810160405280939291908181526020018383808284376000920191909152509295505050903560ff1691506113b69050565b6102af6113c9565b6102af600480360360208110156106e457600080fd5b50356001600160a01b03166113cf565b61071a6004803603602081101561070a57600080fd5b50356001600160a01b03166113e1565b604080519115158252519081900360200190f35b6102af6113f6565b6102d96004803603602081101561074c57600080fd5b50356001600160a01b03166113fc565b6102a561141d565b6102a56004803603604081101561077a57600080fd5b506001600160a01b03813581169160200135166114bf565b6102a5600480360360408110156107a857600080fd5b50803590602001356115c0565b6102a5600480360360a08110156107cb57600080fd5b6001600160a01b0382358116926020810135821692604082013590921691810190608081016060820135600160201b81111561080657600080fd5b82018360208201111561081857600080fd5b803590602001918460208302840111600160201b8311171561083957600080fd5b9190808060200260200160405190810160405280939291908181526020018383602002808284376000920191909152509295949360208101935035915050600160201b81111561088857600080fd5b82018360208201111561089a57600080fd5b803590602001918460208302840111600160201b831117156108bb57600080fd5b919080806020026020016040519081016040528093929190818152602001838360200280828437600092019190915250929550611622945050505050565b6102a56004803603604081101561090f57600080fd5b506001600160a01b03813581169160200135166117d7565b6102af6004803603602081101561093d57600080fd5b50356001600160a01b031661185d565b6102d9611a16565b61095d611a25565b6040805192835260208301919091528051918290030190f35b6102d96004803603602081101561098c57600080fd5b5035611a2f565b6102a5600480360360208110156109a957600080fd5b50356001600160a01b0316611a56565b61095d611ab7565b6102af611ac1565b6102a5600480360360208110156109df57600080fd5b5035611ac7565b61071a600480360360208110156109fc57600080fd5b50356001600160a01b0316611b28565b6102a5611b3d565b61095d60048036036020811015610a2a57600080fd5b50356001600160a01b0316611bd3565b6102a560048036036020811015610a5057600080fd5b5035611c71565b6102af60048036036020811015610a6d57600080fd5b50356001600160a01b0316611cce565b6102af611ce0565b61071a60048036036020811015610a9b57600080fd5b50356001600160a01b0316611ce6565b6102a5611d04565b6102a560048036036020811015610ac957600080fd5b50356001600160a01b0316611d9c565b6102af60048036036020811015610aef57600080fd5b50356001600160a01b0316611e96565b6102a560048036036020811015610b1557600080fd5b5035611ea8565b6102af611f05565b6102d960048036036020811015610b3a57600080fd5b503560ff16611f0b565b6102a560048036036020811015610b5a57600080fd5b5035611f3d565b6102a560048036036020811015610b7757600080fd5b50356001600160a01b0316611f9e565b33600090815260d2602052604090205460ff161515600114610be5576040805162461bcd60e51b81526020600482015260126024820152712737ba1030903837b7b61036b0b730b3b2b960711b604482015290519081900360640190fd5b6001600160a01b038216600090815260d1602052604090205460ff161515600114610c57576040805162461bcd60e51b815260206004820152601e60248201527f737570706c6965642061646472657373206973206e6f74206120706f6f6c0000604482015290519081900360640190fd5b60dd546001600160a01b038316600090815260d56020526040902054610c7c91612097565b811115610cc7576040805162461bcd60e51b81526020600482015260146024820152730dac2dcc2cecae440cccaca40e8dede40d0d2ced60631b604482015290519081900360640190fd5b610cd4828260d4546120f1565b5050565b60cd5490565b60dc5481565b60dd5481565b60ce546001600160a01b031690565b610d0161216f565b6065546001600160a01b03908116911614610d51576040805162461bcd60e51b81526020600482018190526024820152600080516020612dd1833981519152604482015290519081900360640190fd5b848611158015610d62575060cd5486105b8015610d6f575060cd5485105b610db1576040805162461bcd60e51b815260206004820152600e60248201526d696e76616c696420626f756e647360901b604482015290519081900360640190fd5b855b858111610e1357600060cd8281548110610dc957fe5b60009182526020808320909101546001600160a01b031680835260db9091526040909120549091508614610dfd5750610e0b565b610e0981858588612173565b505b600101610db3565b50505050505050565b610e2461216f565b6065546001600160a01b03908116911614610e74576040805162461bcd60e51b81526020600482018190526024820152600080516020612dd1833981519152604482015290519081900360640190fd5b610e7d816122bb565b50565b60ce546001600160a01b03163314610eca576040805162461bcd60e51b81526020600482015260086024820152676f6e6c792064616f60c01b604482015290519081900360640190fd5b610cd482826122c0565b600060603088888560405160240180856001600160a01b03168152602001846001600160a01b031681526020018060200180602001838103835285818151815260200191508051906020019080838360005b83811015610f3e578181015183820152602001610f26565b50505050905090810190601f168015610f6b5780820380516001836020036101000a031916815260200191505b508381038252845181528451602091820191808701910280838360005b83811015610fa0578181015183820152602001610f88565b5050505090500196505050505050506040516020818303038152906040526331a22a9960e21b6001600160e01b0319166020820180516001600160e01b03838183161783525050505090506000610ff88260016113b6565b90506060308b89898560405160240180866001600160a01b0316815260200185151581526020018060200180602001846001600160a01b03168152602001838103835286818151815260200191508051906020019080838360005b8381101561106b578181015183820152602001611053565b50505050905090810190601f1680156110985780820380516001836020036101000a031916815260200191505b50838103825285518152855160209182019187019080838360005b838110156110cb5781810151838201526020016110b3565b50505050905090810190601f1680156110f85780820380516001836020036101000a031916815260200191505b5060408051601f198184030181529190526020810180516001600160e01b0316630ccb30c760e01b17905298506000975061113f9650889550600294506113b69350505050565b9050826001600160a01b0316638e10153d826040518263ffffffff1660e01b815260040180826001600160a01b03168152602001915050602060405180830381600087803b15801561119057600080fd5b505af11580156111a4573d6000803e3d6000fd5b505050506040513d60208110156111ba57600080fd5b505060cd805460018082019092557f83978b4c69c48dd978ab43fe30f077615294f938fb7f936d9eb340e51ea7db2e0180546001600160a01b0319166001600160a01b03848116918217909255600081815260d160209081526040808320805460ff199081168817909155948916835260d28252808320805490951690951790935560dc5491815260db9092529190205560d45461125b90829089906120f1565b7f73a0638fe578fc759744633aa170a433061ca2cc1bb855d116c506e04a29901f818d8b8d8f428d60d45460405180896001600160a01b0316815260200188151581526020018060200180602001876001600160a01b03168152602001868152602001858152602001848152602001838103835289818151815260200191508051906020019080838360005b838110156112ff5781810151838201526020016112e7565b50505050905090810190601f16801561132c5780820380516001836020036101000a031916815260200191505b5083810382528851815288516020918201918a019080838360005b8381101561135f578181015183820152602001611347565b50505050905090810190601f16801561138c5780820380516001836020036101000a031916815260200191505b509a505050505050505050505060405180910390a19b9a5050505050505050505050565b60d75490565b60006113c283836122ee565b9392505050565b60da5490565b60db6020526000908152604090205481565b60d16020526000908152604090205460ff1681565b60dd5490565b6001600160a01b03808216600090815260df6020526040902054165b919050565b61142561216f565b6065546001600160a01b03908116911614611475576040805162461bcd60e51b81526020600482018190526024820152600080516020612dd1833981519152604482015290519081900360640190fd5b6065546040516000916001600160a01b0316907f8be0079c531659141344cd1fd0a4f28419497f9722a3daafe3b4186f6b6457e0908390a3606580546001600160a01b0319169055565b60ce546001600160a01b03163314611509576040805162461bcd60e51b81526020600482015260086024820152676f6e6c792064616f60c01b604482015290519081900360640190fd5b61151282611ce6565b1561155b576040805162461bcd60e51b8152602060048201526014602482015273617373657420616c72656164792065786973747360601b604482015290519081900360640190fd5b6001600160a01b038216600090815260d860205260409020805460ff19166001179055611588828261241c565b6040516001600160a01b038316907fd63c302652b86334fe4eb891e7a01e61e836496485d9394f2c95b4222006ae5090600090a25050565b6115c861216f565b6065546001600160a01b03908116911614611618576040805162461bcd60e51b81526020600482018190526024820152600080516020612dd1833981519152604482015290519081900360640190fd5b610cd4828261244a565b600054610100900460ff168061163b575061163b6124db565b80611649575060005460ff16155b6116845760405162461bcd60e51b815260040180806020018281038252602e815260200180612df1602e913960400191505060405180910390fd5b600054610100900460ff161580156116af576000805460ff1961ff0019909116610100171660011790555b6116b986866124e1565b6116c2846124e9565b6116d061138861271061253d565b6116dc600a606461244a565b6116e862015180612590565b6116f46224ea00611c71565b6116ff6103e8611ea8565b611709600a6125cb565b61171b6544484544474560d01b6122bb565b60005b83518160ff1610156117bc57600160d86000868460ff168151811061173f57fe5b60200260200101516001600160a01b03166001600160a01b0316815260200190815260200160002060006101000a81548160ff0219169083151502179055506117b4848260ff168151811061179057fe5b6020026020010151848360ff16815181106117a757fe5b602002602001015161241c565b60010161171e565b5080156117cf576000805461ff00191690555b505050505050565b6117df61216f565b6065546001600160a01b0390811691161461182f576040805162461bcd60e51b81526020600482018190526024820152600080516020612dd1833981519152604482015290519081900360640190fd5b609780546001600160a01b039384166001600160a01b03199182161790915560988054929093169116179055565b6001600160a01b03808216600090815260cc6020526040812054909116806118b65760405162461bcd60e51b8152600401808060200182810382526025815260200180612d5e6025913960400191505060405180910390fd5b60cb5460009060ff166119d757816001600160a01b031663feaf968c6040518163ffffffff1660e01b815260040160a06040518083038186803b1580156118fc57600080fd5b505afa92505050801561193e57506040513d60a081101561191c57600080fd5b5080516020820151604083015160608401516080909401519293919290919060015b6119795760405162461bcd60e51b8152600401808060200182810382526024815260200180612dad6024913960400191505060405180910390fd5b426119878362015f90612097565b10156119c45760405162461bcd60e51b8152600401808060200182810382526028815260200180612e1f6028913960400191505060405180910390fd5b60008413156119d1578395505b50505050505b600081116113c25760405162461bcd60e51b8152600401808060200182810382526024815260200180612dad6024913960400191505060405180910390fd5b6065546001600160a01b031690565b60d35460d4549091565b60cd8181548110611a3c57fe5b6000918252602090912001546001600160a01b0316905081565b611a5e61216f565b6065546001600160a01b03908116911614611aae576040805162461bcd60e51b81526020600482018190526024820152600080516020612dd1833981519152604482015290519081900360640190fd5b610e7d816124e9565b60cf5460d0549091565b60d95490565b611acf61216f565b6065546001600160a01b03908116911614611b1f576040805162461bcd60e51b81526020600482018190526024820152600080516020612dd1833981519152604482015290519081900360640190fd5b610e7d81612590565b60d26020526000908152604090205460ff1681565b60ce546001600160a01b03163314611b87576040805162461bcd60e51b81526020600482015260086024820152676f6e6c792064616f60c01b604482015290519081900360640190fd5b60cb5460ff1615611bc95760405162461bcd60e51b8152600401808060200182810382526026815260200180612e476026913960400191505060405180910390fd5b611bd1612606565b565b6001600160a01b038116600090815260d16020526040812054819060ff161515600114611c47576040805162461bcd60e51b815260206004820152601e60248201527f737570706c6965642061646472657373206973206e6f74206120706f6f6c0000604482015290519081900360640190fd5b50506001600160a01b0316600090815260d5602090815260408083205460d6909252909120549091565b611c7961216f565b6065546001600160a01b03908116911614611cc9576040805162461bcd60e51b81526020600482018190526024820152600080516020612dd1833981519152604482015290519081900360640190fd5b60de55565b60d56020526000908152604090205481565b60de5481565b6001600160a01b0316600090815260d8602052604090205460ff1690565b60ce546001600160a01b03163314611d4e576040805162461bcd60e51b81526020600482015260086024820152676f6e6c792064616f60c01b604482015290519081900360640190fd5b60cb5460ff161515600114611d945760405162461bcd60e51b815260040180806020018281038252602a815260200180612d83602a913960400191505060405180910390fd5b611bd1612615565b60ce546001600160a01b03163314611de6576040805162461bcd60e51b81526020600482015260086024820152676f6e6c792064616f60c01b604482015290519081900360640190fd5b611def81611ce6565b611e36576040805162461bcd60e51b8152602060048201526013602482015272185cdcd95d08191bd95cdb89dd08195e1a5cdd606a1b604482015290519081900360640190fd5b6001600160a01b038116600090815260d860205260409020805460ff19169055611e5f81612621565b6040516001600160a01b038216907fe8b3c469b395bfd934168e4b7d14590c9cd1a6740533df170dbe3c219ff5a67490600090a250565b60d66020526000908152604090205481565b611eb061216f565b6065546001600160a01b03908116911614611f00576040805162461bcd60e51b81526020600482018190526024820152600080516020612dd1833981519152604482015290519081900360640190fd5b60dd55565b60de5490565b60008160ff1660011415611f2b57506098546001600160a01b0316611418565b506097546001600160a01b0316611418565b611f4561216f565b6065546001600160a01b03908116911614611f95576040805162461bcd60e51b81526020600482018190526024820152600080516020612dd1833981519152604482015290519081900360640190fd5b610e7d816125cb565b611fa661216f565b6065546001600160a01b03908116911614611ff6576040805162461bcd60e51b81526020600482018190526024820152600080516020612dd1833981519152604482015290519081900360640190fd5b6001600160a01b03811661203b5760405162461bcd60e51b8152600401808060200182810382526026815260200180612d386026913960400191505060405180910390fd5b6065546040516001600160a01b038084169216907f8be0079c531659141344cd1fd0a4f28419497f9722a3daafe3b4186f6b6457e090600090a3606580546001600160a01b0319166001600160a01b0392909216919091179055565b6000828201838110156113c2576040805162461bcd60e51b815260206004820152601b60248201527f536166654d6174683a206164646974696f6e206f766572666c6f770000000000604482015290519081900360640190fd5b808211158015612103575060d3548211155b612147576040805162461bcd60e51b815260206004820152601060248201526f34b73b30b634b210333930b1ba34b7b760811b604482015290519081900360640190fd5b6001600160a01b03909216600090815260d5602090815260408083209390935560d690522055565b3390565b6001600160a01b0384166121bf576040805162461bcd60e51b815260206004820152600e60248201526d1d185c99d95d0b5a5b9d985b1a5960921b604482015290519081900360640190fd5b81612200576040805162461bcd60e51b815260206004820152600c60248201526b19185d184b5a5b9d985b1a5960a21b604482015290519081900360640190fd5b606083838080601f016020809104026020016040519081016040528093929190818152602001838380828437600092018290525084519495509384935091505060208401885af480156001811461225657612261565b3d806000803e806000fd5b50506040516001600160a01b0386169033907f78a9b536049c39a00adaf57016b1376c99dd48a0faf2cef23690232f21ce42cc90600090a3506001600160a01b03909316600090815260db60205260409020929092555050565b60da55565b6001600160a01b03918216600090815260df6020526040902080546001600160a01b03191691909216179055565b6000806122f9612648565b604080516001600160a01b038316815290519192507efffc2da0b561cae30d9826d37709e9421c4725faebc226cbbb7ef5fc5e7349919081900360200190a1806001600160a01b031663e74a474a3086866040518463ffffffff1660e01b815260040180846001600160a01b03168152602001806020018360ff168152602001828103825284818151815260200191508051906020019080838360005b838110156123ae578181015183820152602001612396565b50505050905090810190601f1680156123db5780820380516001836020036101000a031916815260200191505b50945050505050600060405180830381600087803b1580156123fc57600080fd5b505af1158015612410573d6000803e3d6000fd5b50929695505050505050565b6001600160a01b03918216600090815260cc6020526040902080546001600160a01b03191691909216179055565b80821115612492576040805162461bcd60e51b815260206004820152601060248201526f34b73b30b634b210333930b1ba34b7b760811b604482015290519081900360640190fd5b60cf82905560d0819055604080518381526020810183905281517fb10da2958bf5ec1bff3164ff753a09e0460ed44d3abf73e79b817b500ed0f2f1929181900390910190a15050565b303b1590565b61182f61268f565b60ce80546001600160a01b0383166001600160a01b0319909116811790915560408051918252517ff1034ad6b4d45dc33a4142b9c51c2b7f89bf4a410696e426cc0f3224869e0aca9181900360200190a150565b80821115612585576040805162461bcd60e51b815260206004820152601060248201526f34b73b30b634b210333930b1ba34b7b760811b604482015290519081900360640190fd5b60d39190915560d455565b60d78190556040805182815290517f20d916c976f3971e8200089411b0b712ef4612d98380b8ad2e3d8a8a376d85c79181900360200190a150565b60d98190556040805182815290517f0cd8fcb5e08d7632af461f0ad793e5c63dc0d7595c301f5880650175e37a87489181900360200190a150565b60cb805460ff19166001179055565b60cb805460ff19169055565b6001600160a01b0316600090815260cc6020526040902080546001600160a01b0319169055565b60008060606040518060200161265d906128d9565b6020820181038252601f19601f8201166040525090508051602082016000f09150813b61268957600080fd5b50905090565b600054610100900460ff16806126a857506126a86124db565b806126b6575060005460ff16155b6126f15760405162461bcd60e51b815260040180806020018281038252602e815260200180612df1602e913960400191505060405180910390fd5b600054610100900460ff1615801561271c576000805460ff1961ff0019909116610100171660011790555b612724612740565b61272c6127e0565b8015610e7d576000805461ff001916905550565b600054610100900460ff168061275957506127596124db565b80612767575060005460ff16155b6127a25760405162461bcd60e51b815260040180806020018281038252602e815260200180612df1602e913960400191505060405180910390fd5b600054610100900460ff1615801561272c576000805460ff1961ff0019909116610100171660011790558015610e7d576000805461ff001916905550565b600054610100900460ff16806127f957506127f96124db565b80612807575060005460ff16155b6128425760405162461bcd60e51b815260040180806020018281038252602e815260200180612df1602e913960400191505060405180910390fd5b600054610100900460ff1615801561286d576000805460ff1961ff0019909116610100171660011790555b600061287761216f565b606580546001600160a01b0319166001600160a01b038316908117909155604051919250906000907f8be0079c531659141344cd1fd0a4f28419497f9722a3daafe3b4186f6b6457e0908290a3508015610e7d576000805461ff001916905550565b610451806128e78339019056fe608060405234801561001057600080fd5b50610431806100206000396000f3fe6080604052600436106100225760003560e01c8063e74a474a1461003957610031565b366100315761002f6100f4565b005b61002f6100f4565b61002f6004803603606081101561004f57600080fd5b6001600160a01b03823516919081019060408101602082013564010000000081111561007a57600080fd5b82018360208201111561008c57600080fd5b803590602001918460018302840111640100000000831117156100ae57600080fd5b91908080601f0160208091040260200160405190810160405280939291908181526020018383808284376000920191909152509295505050903560ff16915061010e9050565b6100fc61010c565b61010c610107610281565b610342565b565b6000610118610281565b6001600160a01b031614610163576040805162461bcd60e51b815260206004820152600d60248201526c496d706c206e6f74207a65726f60981b604482015290519081900360640190fd5b61016c83610366565b610175816103e4565b81511561027c576000610186610281565b6001600160a01b0316836040518082805190602001908083835b602083106101bf5780518252601f1990920191602091820191016101a0565b6001836020036101000a038019825116818451168082178552505050505050905001915050600060405180830381855af49150503d806000811461021f576040519150601f19603f3d011682016040523d82523d6000602084013e610224565b606091505b505090508061027a576040805162461bcd60e51b815260206004820152601a60248201527f496d706c656d656e746174696f6e20696e6974206661696c6564000000000000604482015290519081900360640190fd5b505b505050565b7f360894a13ba1a3210667c828492db98dca3e2076cc3735a920a3ca505d382bbc80546000916001600160a01b0382166102c05760009250505061033f565b816001600160a01b031663ecef89d56102d76103ec565b6040518263ffffffff1660e01b8152600401808260ff16815260200191505060206040518083038186803b15801561030e57600080fd5b505afa158015610322573d6000803e3d6000fd5b505050506040513d602081101561033857600080fd5b5051925050505b90565b3660008037600080366000845af43d6000803e808015610361573d6000f35b3d6000fd5b61036f816103f5565b6103c0576040805162461bcd60e51b815260206004820181905260248201527f43616e6e6f742073657420696d706c656d656e746174696f6e20746f20454f41604482015290519081900360640190fd5b7f360894a13ba1a3210667c828492db98dca3e2076cc3735a920a3ca505d382bbc55565b600160fc1b55565b600160fc1b5490565b3b15159056fea26469706673582212208fb46f65a29ee18e860904dd11c61ab753d42dbb0a06704c916403fc4559feef64736f6c634300060c00334f776e61626c653a206e6577206f776e657220697320746865207a65726f20616464726573735072696365436f6e73756d657256333a2061676772656761746f72206e6f7420666f756e645072696365436f6e73756d657256333a20636861696e6c696e6b20616c726561647920656e61626c65645072696365436f6e73756d657256333a207072696365206e6f7420617661696c61626c654f776e61626c653a2063616c6c6572206973206e6f7420746865206f776e6572436f6e747261637420696e7374616e63652068617320616c7265616479206265656e20696e697469616c697a65645072696365436f6e73756d657256333a20636861696e6c696e6b20707269636520657870697265645072696365436f6e73756d657256333a20636861696e6c696e6b206e6f7420656e61626c6564a2646970667358221220305115e8151a4295d3cffcbd29c70ad3d63065f2c260d0569c1ff56d43c4cc8564736f6c634300060c0033",
  "linkReferences": {},
  "deployedLinkReferences": {}
}