{
  "_format": "hh-sol-artifact-1",
  "contractName": "PoolFactory",
  "sourceName": "contracts/PoolFactory.sol",
  "abi": [
    {
      "anonymous": false,
      "inputs": [
        {
          "indexed": false,
          "internalType": "address",
          "name": "dao",
          "type": "address"
        }
      ],
      "name": "DaoAddressSet",
      "type": "event"
    },
    {
      "anonymous": false,
      "inputs": [
        {
          "indexed": false,
          "internalType": "uint256",
          "name": "numerator",
          "type": "uint256"
        },
        {
          "indexed": false,
          "internalType": "uint256",
          "name": "denominator",
          "type": "uint256"
        }
      ],
      "name": "DaoFeeSet",
      "type": "event"
    },
    {
      "anonymous": false,
      "inputs": [
        {
          "indexed": false,
          "internalType": "uint256",
          "name": "cooldown",
          "type": "uint256"
        }
      ],
      "name": "ExitCooldownSet",
      "type": "event"
    },
    {
      "anonymous": false,
      "inputs": [
        {
          "indexed": false,
          "internalType": "uint256",
          "name": "numerator",
          "type": "uint256"
        },
        {
          "indexed": false,
          "internalType": "uint256",
          "name": "denominator",
          "type": "uint256"
        }
      ],
      "name": "ExitFeeSet",
      "type": "event"
    },
    {
      "anonymous": false,
      "inputs": [
        {
          "indexed": false,
          "internalType": "address",
          "name": "fundAddress",
          "type": "address"
        },
        {
          "indexed": false,
          "internalType": "bool",
          "name": "isPoolPrivate",
          "type": "bool"
        },
        {
          "indexed": false,
          "internalType": "string",
          "name": "fundName",
          "type": "string"
        },
        {
          "indexed": false,
          "internalType": "string",
          "name": "managerName",
          "type": "string"
        },
        {
          "indexed": false,
          "internalType": "address",
          "name": "manager",
          "type": "address"
        },
        {
          "indexed": false,
          "internalType": "uint256",
          "name": "time",
          "type": "uint256"
        },
        {
          "indexed": false,
          "internalType": "uint256",
          "name": "managerFeeNumerator",
          "type": "uint256"
        },
        {
          "indexed": false,
          "internalType": "uint256",
          "name": "managerFeeDenominator",
          "type": "uint256"
        }
      ],
      "name": "FundCreated",
      "type": "event"
    },
    {
      "anonymous": false,
      "inputs": [
        {
          "indexed": true,
          "internalType": "address",
          "name": "manager",
          "type": "address"
        },
        {
          "indexed": true,
          "internalType": "address",
          "name": "pool",
          "type": "address"
        }
      ],
      "name": "LogUpgrade",
      "type": "event"
    },
    {
      "anonymous": false,
      "inputs": [
        {
          "indexed": false,
          "internalType": "uint256",
          "name": "count",
          "type": "uint256"
        }
      ],
      "name": "MaximumSupportedAssetCountSet",
      "type": "event"
    },
    {
      "anonymous": false,
      "inputs": [
        {
          "indexed": true,
          "internalType": "address",
          "name": "previousOwner",
          "type": "address"
        },
        {
          "indexed": true,
          "internalType": "address",
          "name": "newOwner",
          "type": "address"
        }
      ],
      "name": "OwnershipTransferred",
      "type": "event"
    },
    {
      "anonymous": false,
      "inputs": [
        {
          "indexed": false,
          "internalType": "address",
          "name": "proxy",
          "type": "address"
        }
      ],
      "name": "ProxyCreated",
      "type": "event"
    },
    {
      "inputs": [],
      "name": "addressResolver",
      "outputs": [
        {
          "internalType": "contract IAddressResolver",
          "name": "",
          "type": "address"
        }
      ],
      "stateMutability": "view",
      "type": "function"
    },
    {
      "inputs": [
        {
          "internalType": "bool",
          "name": "_privatePool",
          "type": "bool"
        },
        {
          "internalType": "address",
          "name": "_manager",
          "type": "address"
        },
        {
          "internalType": "string",
          "name": "_managerName",
          "type": "string"
        },
        {
          "internalType": "string",
          "name": "_fundName",
          "type": "string"
        },
        {
          "internalType": "string",
          "name": "_fundSymbol",
          "type": "string"
        },
        {
          "internalType": "uint256",
          "name": "_managerFeeNumerator",
          "type": "uint256"
        },
        {
          "internalType": "bytes32[]",
          "name": "_supportedAssets",
          "type": "bytes32[]"
        }
      ],
      "name": "createFund",
      "outputs": [
        {
          "internalType": "address",
          "name": "",
          "type": "address"
        }
      ],
      "stateMutability": "nonpayable",
      "type": "function"
    },
    {
      "inputs": [
        {
          "internalType": "bytes",
          "name": "_data",
          "type": "bytes"
        },
        {
          "internalType": "uint8",
          "name": "_proxyType",
          "type": "uint8"
        }
      ],
      "name": "deploy",
      "outputs": [
        {
          "internalType": "address",
          "name": "",
          "type": "address"
        }
      ],
      "stateMutability": "nonpayable",
      "type": "function"
    },
    {
      "inputs": [
        {
          "internalType": "uint256",
          "name": "",
          "type": "uint256"
        }
      ],
      "name": "deployedFunds",
      "outputs": [
        {
          "internalType": "address",
          "name": "",
          "type": "address"
        }
      ],
      "stateMutability": "view",
      "type": "function"
    },
    {
      "inputs": [],
      "name": "deployedFundsLength",
      "outputs": [
        {
          "internalType": "uint256",
          "name": "",
          "type": "uint256"
        }
      ],
      "stateMutability": "view",
      "type": "function"
    },
    {
      "inputs": [],
      "name": "getAddressResolver",
      "outputs": [
        {
          "internalType": "contract IAddressResolver",
          "name": "",
          "type": "address"
        }
      ],
      "stateMutability": "view",
      "type": "function"
    },
    {
      "inputs": [],
      "name": "getDaoAddress",
      "outputs": [
        {
          "internalType": "address",
          "name": "",
          "type": "address"
        }
      ],
      "stateMutability": "view",
      "type": "function"
    },
    {
      "inputs": [],
      "name": "getDaoFee",
      "outputs": [
        {
          "internalType": "uint256",
          "name": "",
          "type": "uint256"
        },
        {
          "internalType": "uint256",
          "name": "",
          "type": "uint256"
        }
      ],
      "stateMutability": "view",
      "type": "function"
    },
    {
      "inputs": [],
      "name": "getExitCooldown",
      "outputs": [
        {
          "internalType": "uint256",
          "name": "",
          "type": "uint256"
        }
      ],
      "stateMutability": "view",
      "type": "function"
    },
    {
      "inputs": [
        {
          "internalType": "address",
          "name": "extContract",
          "type": "address"
        }
      ],
      "name": "getGuard",
      "outputs": [
        {
          "internalType": "address",
          "name": "",
          "type": "address"
        }
      ],
      "stateMutability": "view",
      "type": "function"
    },
    {
      "inputs": [
        {
          "internalType": "uint8",
          "name": "_proxyType",
          "type": "uint8"
        }
      ],
      "name": "getLogic",
      "outputs": [
        {
          "internalType": "address",
          "name": "",
          "type": "address"
        }
      ],
      "stateMutability": "view",
      "type": "function"
    },
    {
      "inputs": [],
      "name": "getManagerFeeNumeratorChangeDelay",
      "outputs": [
        {
          "internalType": "uint256",
          "name": "",
          "type": "uint256"
        }
      ],
      "stateMutability": "view",
      "type": "function"
    },
    {
      "inputs": [],
      "name": "getMaximumManagerFee",
      "outputs": [
        {
          "internalType": "uint256",
          "name": "",
          "type": "uint256"
        },
        {
          "internalType": "uint256",
          "name": "",
          "type": "uint256"
        }
      ],
      "stateMutability": "view",
      "type": "function"
    },
    {
      "inputs": [],
      "name": "getMaximumManagerFeeNumeratorChange",
      "outputs": [
        {
          "internalType": "uint256",
          "name": "",
          "type": "uint256"
        }
      ],
      "stateMutability": "view",
      "type": "function"
    },
    {
      "inputs": [],
      "name": "getMaximumSupportedAssetCount",
      "outputs": [
        {
          "internalType": "uint256",
          "name": "",
          "type": "uint256"
        }
      ],
      "stateMutability": "view",
      "type": "function"
    },
    {
      "inputs": [
        {
          "internalType": "address",
          "name": "pool",
          "type": "address"
        }
      ],
      "name": "getPoolManagerFee",
      "outputs": [
        {
          "internalType": "uint256",
          "name": "",
          "type": "uint256"
        },
        {
          "internalType": "uint256",
          "name": "",
          "type": "uint256"
        }
      ],
      "stateMutability": "view",
      "type": "function"
    },
    {
      "inputs": [],
      "name": "getTrackingCode",
      "outputs": [
        {
          "internalType": "bytes32",
          "name": "",
          "type": "bytes32"
        }
      ],
      "stateMutability": "view",
      "type": "function"
    },
    {
      "inputs": [
        {
          "internalType": "contract IAddressResolver",
          "name": "_addressResolver",
          "type": "address"
        },
        {
          "internalType": "address",
          "name": "_poolLogic",
          "type": "address"
        },
        {
          "internalType": "address",
          "name": "_managerLogic",
          "type": "address"
        },
        {
          "internalType": "address",
          "name": "daoAddress",
          "type": "address"
        }
      ],
      "name": "initialize",
      "outputs": [],
      "stateMutability": "nonpayable",
      "type": "function"
    },
    {
      "inputs": [
        {
          "internalType": "address",
          "name": "",
          "type": "address"
        }
      ],
      "name": "isPool",
      "outputs": [
        {
          "internalType": "bool",
          "name": "",
          "type": "bool"
        }
      ],
      "stateMutability": "view",
      "type": "function"
    },
    {
      "inputs": [
        {
          "internalType": "address",
          "name": "",
          "type": "address"
        }
      ],
      "name": "isPoolManager",
      "outputs": [
        {
          "internalType": "bool",
          "name": "",
          "type": "bool"
        }
      ],
      "stateMutability": "view",
      "type": "function"
    },
    {
      "inputs": [],
      "name": "managerFeeNumeratorChangeDelay",
      "outputs": [
        {
          "internalType": "uint256",
          "name": "",
          "type": "uint256"
        }
      ],
      "stateMutability": "view",
      "type": "function"
    },
    {
      "inputs": [],
      "name": "maximumManagerFeeNumeratorChange",
      "outputs": [
        {
          "internalType": "uint256",
          "name": "",
          "type": "uint256"
        }
      ],
      "stateMutability": "view",
      "type": "function"
    },
    {
      "inputs": [],
      "name": "owner",
      "outputs": [
        {
          "internalType": "address",
          "name": "",
          "type": "address"
        }
      ],
      "stateMutability": "view",
      "type": "function"
    },
    {
      "inputs": [
        {
          "internalType": "address",
          "name": "",
          "type": "address"
        }
      ],
      "name": "poolManagerFeeDenominator",
      "outputs": [
        {
          "internalType": "uint256",
          "name": "",
          "type": "uint256"
        }
      ],
      "stateMutability": "view",
      "type": "function"
    },
    {
      "inputs": [
        {
          "internalType": "address",
          "name": "",
          "type": "address"
        }
      ],
      "name": "poolManagerFeeNumerator",
      "outputs": [
        {
          "internalType": "uint256",
          "name": "",
          "type": "uint256"
        }
      ],
      "stateMutability": "view",
      "type": "function"
    },
    {
      "inputs": [],
      "name": "poolStorageVersion",
      "outputs": [
        {
          "internalType": "uint256",
          "name": "",
          "type": "uint256"
        }
      ],
      "stateMutability": "view",
      "type": "function"
    },
    {
      "inputs": [
        {
          "internalType": "address",
          "name": "",
          "type": "address"
        }
      ],
      "name": "poolVersion",
      "outputs": [
        {
          "internalType": "uint256",
          "name": "",
          "type": "uint256"
        }
      ],
      "stateMutability": "view",
      "type": "function"
    },
    {
      "inputs": [],
      "name": "renounceOwnership",
      "outputs": [],
      "stateMutability": "nonpayable",
      "type": "function"
    },
    {
      "inputs": [
        {
          "internalType": "address",
          "name": "_addressResolver",
          "type": "address"
        }
      ],
      "name": "setAddressResolver",
      "outputs": [],
      "stateMutability": "nonpayable",
      "type": "function"
    },
    {
      "inputs": [
        {
          "internalType": "address",
          "name": "daoAddress",
          "type": "address"
        }
      ],
      "name": "setDaoAddress",
      "outputs": [],
      "stateMutability": "nonpayable",
      "type": "function"
    },
    {
      "inputs": [
        {
          "internalType": "uint256",
          "name": "numerator",
          "type": "uint256"
        },
        {
          "internalType": "uint256",
          "name": "denominator",
          "type": "uint256"
        }
      ],
      "name": "setDaoFee",
      "outputs": [],
      "stateMutability": "nonpayable",
      "type": "function"
    },
    {
      "inputs": [
        {
          "internalType": "uint256",
          "name": "cooldown",
          "type": "uint256"
        }
      ],
      "name": "setExitCooldown",
      "outputs": [],
      "stateMutability": "nonpayable",
      "type": "function"
    },
    {
      "inputs": [
        {
          "internalType": "address",
          "name": "extContract",
          "type": "address"
        },
        {
          "internalType": "address",
          "name": "guardAddress",
          "type": "address"
        }
      ],
      "name": "setGuard",
      "outputs": [],
      "stateMutability": "nonpayable",
      "type": "function"
    },
    {
      "inputs": [
        {
          "internalType": "address",
          "name": "_poolLogic",
          "type": "address"
        },
        {
          "internalType": "address",
          "name": "_poolManagerLogic",
          "type": "address"
        }
      ],
      "name": "setLogic",
      "outputs": [],
      "stateMutability": "nonpayable",
      "type": "function"
    },
    {
      "inputs": [
        {
          "internalType": "uint256",
          "name": "delay",
          "type": "uint256"
        }
      ],
      "name": "setManagerFeeNumeratorChangeDelay",
      "outputs": [],
      "stateMutability": "nonpayable",
      "type": "function"
    },
    {
      "inputs": [
        {
          "internalType": "uint256",
          "name": "amount",
          "type": "uint256"
        }
      ],
      "name": "setMaximumManagerFeeNumeratorChange",
      "outputs": [],
      "stateMutability": "nonpayable",
      "type": "function"
    },
    {
      "inputs": [
        {
          "internalType": "uint256",
          "name": "count",
          "type": "uint256"
        }
      ],
      "name": "setMaximumSupportedAssetCount",
      "outputs": [],
      "stateMutability": "nonpayable",
      "type": "function"
    },
    {
      "inputs": [
        {
          "internalType": "address",
          "name": "pool",
          "type": "address"
        },
        {
          "internalType": "uint256",
          "name": "numerator",
          "type": "uint256"
        }
      ],
      "name": "setPoolManagerFeeNumerator",
      "outputs": [],
      "stateMutability": "nonpayable",
      "type": "function"
    },
    {
      "inputs": [
        {
          "internalType": "bytes32",
          "name": "code",
          "type": "bytes32"
        }
      ],
      "name": "setTrackingCode",
      "outputs": [],
      "stateMutability": "nonpayable",
      "type": "function"
    },
    {
      "inputs": [
        {
          "internalType": "address",
          "name": "newOwner",
          "type": "address"
        }
      ],
      "name": "transferOwnership",
      "outputs": [],
      "stateMutability": "nonpayable",
      "type": "function"
    },
    {
      "inputs": [
        {
          "internalType": "uint256",
          "name": "startIndex",
          "type": "uint256"
        },
        {
          "internalType": "uint256",
          "name": "endIndex",
          "type": "uint256"
        },
        {
          "internalType": "uint256",
          "name": "sourceVersion",
          "type": "uint256"
        },
        {
          "internalType": "uint256",
          "name": "targetVersion",
          "type": "uint256"
        },
        {
          "internalType": "bytes",
          "name": "data",
          "type": "bytes"
        }
      ],
      "name": "upgradePoolBatch",
      "outputs": [],
      "stateMutability": "nonpayable",
      "type": "function"
    }
  ],
  "bytecode": "0x608060405234801561001057600080fd5b506126f9806100206000396000f3fe608060405234801561001057600080fd5b50600436106102535760003560e01c8063771d1baf11610146578063b7a54526116100c3578063e99c0fa611610087578063e99c0fa614610920578063ebee461d1461093d578063ecef89d514610945578063eec16c4414610965578063f2fde38b14610982578063f8c8765e146109a857610253565b8063b7a5452614610889578063bcb01f44146108af578063bee37e52146108cc578063bfeaf71d146108f2578063e60eb412146108fa57610253565b80639a3cac6a1161010a5780639a3cac6a146108105780639cada6e414610836578063aa12ae4d1461083e578063aa7d664e14610846578063b193a5f41461086357610253565b8063771d1baf14610779578063808ae5fb1461079c5780638da5cb5b146107ca57806394d0d23b146107d25780639a068bd6146107f357610253565b80634501b088116101d45780635b16ebb7116101985780635b16ebb7146107015780635c9bfc2b1461073b5780637027ea6c14610743578063715018a61461076957806371c1c5491461077157610253565b80634501b088146103d357806345812ca5146103db578063482812721461048457806349f7c02d146106d35780635556ee55146106db57610253565b8063143023871161021b57806314302387146102d45780631d68702d146102fa5780631e666d13146103025780631e8e8bca14610388578063227773ee146103a557610253565b8063046b72c41461025857806305a2ee2a146102865780630bf99bd9146102aa5780630f6559c4146102c457806310bf69dc146102cc575b600080fd5b6102846004803603604081101561026e57600080fd5b506001600160a01b0381351690602001356109e6565b005b61028e610b37565b604080516001600160a01b039092168252519081900360200190f35b6102b2610b46565b60408051918252519081900360200190f35b6102b2610b4c565b6102b2610b52565b610284600480360360208110156102ea57600080fd5b50356001600160a01b0316610b58565b61028e610bd2565b610284600480360360a081101561031857600080fd5b81359160208101359160408201359160608101359181019060a081016080820135600160201b81111561034a57600080fd5b82018360208201111561035c57600080fd5b803590602001918460018302840111600160201b8311171561037d57600080fd5b509092509050610be1565b6102846004803603602081101561039e57600080fd5b5035610d04565b610284600480360360408110156103bb57600080fd5b506001600160a01b0381358116916020013516610d68565b6102b2610dca565b61028e600480360360408110156103f157600080fd5b810190602081018135600160201b81111561040b57600080fd5b82018360208201111561041d57600080fd5b803590602001918460018302840111600160201b8311171561043e57600080fd5b91908080601f0160208091040260200160405190810160405280939291908181526020018383808284376000920191909152509295505050903560ff169150610dd09050565b61028e600480360360e081101561049a57600080fd5b81351515916001600160a01b0360208201351691810190606081016040820135600160201b8111156104cb57600080fd5b8201836020820111156104dd57600080fd5b803590602001918460018302840111600160201b831117156104fe57600080fd5b91908080601f0160208091040260200160405190810160405280939291908181526020018383808284376000920191909152509295949360208101935035915050600160201b81111561055057600080fd5b82018360208201111561056257600080fd5b803590602001918460018302840111600160201b8311171561058357600080fd5b91908080601f0160208091040260200160405190810160405280939291908181526020018383808284376000920191909152509295949360208101935035915050600160201b8111156105d557600080fd5b8201836020820111156105e757600080fd5b803590602001918460018302840111600160201b8311171561060857600080fd5b91908080601f01602080910402602001604051908101604052809392919081815260200183838082843760009201919091525092958435959094909350604081019250602001359050600160201b81111561066257600080fd5b82018360208201111561067457600080fd5b803590602001918460208302840111600160201b8311171561069557600080fd5b919080806020026020016040519081016040528093929190818152602001838360200280828437600092019190915250929550610de3945050505050565b6102b26112ca565b6102b2600480360360208110156106f157600080fd5b50356001600160a01b03166112d0565b6107276004803603602081101561071757600080fd5b50356001600160a01b03166112e2565b604080519115158252519081900360200190f35b6102b26112f7565b61028e6004803603602081101561075957600080fd5b50356001600160a01b03166112fd565b61028461131e565b61028e6113c0565b6102846004803603604081101561078f57600080fd5b50803590602001356113cf565b610284600480360360408110156107b257600080fd5b506001600160a01b0381358116916020013516611431565b61028e6114b7565b6107da6114c6565b6040805192835260208301919091528051918290030190f35b61028e6004803603602081101561080957600080fd5b50356114d0565b6102846004803603602081101561082657600080fd5b50356001600160a01b03166114f7565b6107da611558565b6102b2611562565b6102846004803603602081101561085c57600080fd5b5035611568565b6107276004803603602081101561087957600080fd5b50356001600160a01b03166115c9565b6107da6004803603602081101561089f57600080fd5b50356001600160a01b03166115de565b610284600480360360208110156108c557600080fd5b503561167c565b6102b2600480360360208110156108e257600080fd5b50356001600160a01b03166116d9565b6102b26116eb565b6102b26004803603602081101561091057600080fd5b50356001600160a01b03166116f1565b6102846004803603602081101561093657600080fd5b5035611703565b6102b2611760565b61028e6004803603602081101561095b57600080fd5b503560ff16611766565b6102846004803603602081101561097b57600080fd5b5035611798565b6102846004803603602081101561099857600080fd5b50356001600160a01b03166117f9565b610284600480360360808110156109be57600080fd5b506001600160a01b0381358116916020810135821691604082013581169160600135166118f2565b33600090815260d1602052604090205460ff161515600114610a44576040805162461bcd60e51b81526020600482015260126024820152712737ba1030903837b7b61036b0b730b3b2b960711b604482015290519081900360640190fd5b6001600160a01b038216600090815260d0602052604090205460ff161515600114610ab6576040805162461bcd60e51b815260206004820152601e60248201527f737570706c6965642061646472657373206973206e6f74206120706f6f6c0000604482015290519081900360640190fd5b60db546001600160a01b038316600090815260d46020526040902054610adb91611a1f565b811115610b26576040805162461bcd60e51b81526020600482015260146024820152730dac2dcc2cecae440cccaca40e8dede40d0d2ced60631b604482015290519081900360640190fd5b610b33828260d354611a79565b5050565b60cb546001600160a01b031681565b60cc5490565b60da5481565b60db5481565b610b60611af7565b6065546001600160a01b03908116911614610bb0576040805162461bcd60e51b81526020600482018190526024820152600080516020612676833981519152604482015290519081900360640190fd5b60cb80546001600160a01b0319166001600160a01b0392909216919091179055565b60cd546001600160a01b031690565b610be9611af7565b6065546001600160a01b03908116911614610c39576040805162461bcd60e51b81526020600482018190526024820152600080516020612676833981519152604482015290519081900360640190fd5b848611158015610c4a575060cc5486105b8015610c57575060cc5485105b610c99576040805162461bcd60e51b815260206004820152600e60248201526d696e76616c696420626f756e647360901b604482015290519081900360640190fd5b855b858111610cfb57600060cc8281548110610cb157fe5b60009182526020808320909101546001600160a01b031680835260d99091526040909120549091508614610ce55750610cf3565b610cf181858588611afb565b505b600101610c9b565b50505050505050565b610d0c611af7565b6065546001600160a01b03908116911614610d5c576040805162461bcd60e51b81526020600482018190526024820152600080516020612676833981519152604482015290519081900360640190fd5b610d6581611c43565b50565b610d70611af7565b6065546001600160a01b03908116911614610dc0576040805162461bcd60e51b81526020600482018190526024820152600080516020612676833981519152604482015290519081900360640190fd5b610b338282611c48565b60d65490565b6000610ddc8383611c76565b9392505050565b60cb5460405130602482018181526001600160a01b03808b1660448501529093166084830181905260a060648401908152895160c485015289516000956060958d948d9490938a939260a481019160e49091019060208801908083838f5b83811015610e59578181015183820152602001610e41565b50505050905090810190601f168015610e865780820380516001836020036101000a031916815260200191505b508381038252845181528451602091820191808701910280838360005b83811015610ebb578181015183820152602001610ea3565b5050505090500197505050505050505060405160208183030381529060405263eb94917d60e01b6001600160e01b0319166020820180516001600160e01b03838183161783525050505090506000610f14826001610dd0565b90506060308b8b8b8b8b8760405160240180886001600160a01b031681526020018715158152602001866001600160a01b03168152602001806020018060200180602001856001600160a01b03168152602001848103845288818151815260200191508051906020019080838360005b83811015610f9c578181015183820152602001610f84565b50505050905090810190601f168015610fc95780820380516001836020036101000a031916815260200191505b50848103835287518152875160209182019189019080838360005b83811015610ffc578181015183820152602001610fe4565b50505050905090810190601f1680156110295780820380516001836020036101000a031916815260200191505b50848103825286518152865160209182019188019080838360005b8381101561105c578181015183820152602001611044565b50505050905090810190601f1680156110895780820380516001836020036101000a031916815260200191505b5060408051601f198184030181529190526020810180516001600160e01b03166366fd3ce960e11b1790529b5060009a506110d399508b985060029750610dd09650505050505050565b60cc805460018082019092557f47197230e1e4b29fc0bd84d7d78966c0925452aff72a2a121538b102457e9ebe0180546001600160a01b0319166001600160a01b03848116918217909255600081815260d060209081526040808320805460ff199081168817909155948a16835260d18252808320805490951690951790935560da5491815260d99092529190205560d3549091506111759082908990611a79565b7f73a0638fe578fc759744633aa170a433061ca2cc1bb855d116c506e04a29901f818d8b8d8f428d60d35460405180896001600160a01b0316815260200188151581526020018060200180602001876001600160a01b03168152602001868152602001858152602001848152602001838103835289818151815260200191508051906020019080838360005b83811015611219578181015183820152602001611201565b50505050905090810190601f1680156112465780820380516001836020036101000a031916815260200191505b5083810382528851815288516020918201918a019080838360005b83811015611279578181015183820152602001611261565b50505050905090810190601f1680156112a65780820380516001836020036101000a031916815260200191505b509a505050505050505050505060405180910390a19b9a5050505050505050505050565b60d85490565b60d96020526000908152604090205481565b60d06020526000908152604090205460ff1681565b60db5490565b6001600160a01b03808216600090815260dd6020526040902054165b919050565b611326611af7565b6065546001600160a01b03908116911614611376576040805162461bcd60e51b81526020600482018190526024820152600080516020612676833981519152604482015290519081900360640190fd5b6065546040516000916001600160a01b0316907f8be0079c531659141344cd1fd0a4f28419497f9722a3daafe3b4186f6b6457e0908390a3606580546001600160a01b0319169055565b60cb546001600160a01b031690565b6113d7611af7565b6065546001600160a01b03908116911614611427576040805162461bcd60e51b81526020600482018190526024820152600080516020612676833981519152604482015290519081900360640190fd5b610b338282611da4565b611439611af7565b6065546001600160a01b03908116911614611489576040805162461bcd60e51b81526020600482018190526024820152600080516020612676833981519152604482015290519081900360640190fd5b609780546001600160a01b039384166001600160a01b03199182161790915560988054929093169116179055565b6065546001600160a01b031690565b60d25460d3549091565b60cc81815481106114dd57fe5b6000918252602090912001546001600160a01b0316905081565b6114ff611af7565b6065546001600160a01b0390811691161461154f576040805162461bcd60e51b81526020600482018190526024820152600080516020612676833981519152604482015290519081900360640190fd5b610d6581611e35565b60ce5460cf549091565b60d75490565b611570611af7565b6065546001600160a01b039081169116146115c0576040805162461bcd60e51b81526020600482018190526024820152600080516020612676833981519152604482015290519081900360640190fd5b610d6581611e89565b60d16020526000908152604090205460ff1681565b6001600160a01b038116600090815260d06020526040812054819060ff161515600114611652576040805162461bcd60e51b815260206004820152601e60248201527f737570706c6965642061646472657373206973206e6f74206120706f6f6c0000604482015290519081900360640190fd5b50506001600160a01b0316600090815260d4602090815260408083205460d5909252909120549091565b611684611af7565b6065546001600160a01b039081169116146116d4576040805162461bcd60e51b81526020600482018190526024820152600080516020612676833981519152604482015290519081900360640190fd5b60dc55565b60d46020526000908152604090205481565b60dc5481565b60d56020526000908152604090205481565b61170b611af7565b6065546001600160a01b0390811691161461175b576040805162461bcd60e51b81526020600482018190526024820152600080516020612676833981519152604482015290519081900360640190fd5b60db55565b60dc5490565b60008160ff166001141561178657506098546001600160a01b0316611319565b506097546001600160a01b0316611319565b6117a0611af7565b6065546001600160a01b039081169116146117f0576040805162461bcd60e51b81526020600482018190526024820152600080516020612676833981519152604482015290519081900360640190fd5b610d6581611ec4565b611801611af7565b6065546001600160a01b03908116911614611851576040805162461bcd60e51b81526020600482018190526024820152600080516020612676833981519152604482015290519081900360640190fd5b6001600160a01b0381166118965760405162461bcd60e51b81526004018080602001828103825260268152602001806126506026913960400191505060405180910390fd5b6065546040516001600160a01b038084169216907f8be0079c531659141344cd1fd0a4f28419497f9722a3daafe3b4186f6b6457e090600090a3606580546001600160a01b0319166001600160a01b0392909216919091179055565b600054610100900460ff168061190b575061190b611eff565b80611919575060005460ff16155b6119545760405162461bcd60e51b815260040180806020018281038252602e815260200180612696602e913960400191505060405180910390fd5b600054610100900460ff1615801561197f576000805460ff1961ff0019909116610100171660011790555b6119898484611f05565b60cb80546001600160a01b0319166001600160a01b0387161790556119ad82611e35565b6119bb611388612710611f0d565b6119c7600a6064611da4565b6119d362015180611e89565b6119df6224ea0061167c565b6119ea6103e8611703565b6119f4600a611ec4565b611a066544484544474560d01b611c43565b8015611a18576000805461ff00191690555b5050505050565b600082820183811015610ddc576040805162461bcd60e51b815260206004820152601b60248201527f536166654d6174683a206164646974696f6e206f766572666c6f770000000000604482015290519081900360640190fd5b808211158015611a8b575060d2548211155b611acf576040805162461bcd60e51b815260206004820152601060248201526f34b73b30b634b210333930b1ba34b7b760811b604482015290519081900360640190fd5b6001600160a01b03909216600090815260d4602090815260408083209390935560d590522055565b3390565b6001600160a01b038416611b47576040805162461bcd60e51b815260206004820152600e60248201526d1d185c99d95d0b5a5b9d985b1a5960921b604482015290519081900360640190fd5b81611b88576040805162461bcd60e51b815260206004820152600c60248201526b19185d184b5a5b9d985b1a5960a21b604482015290519081900360640190fd5b606083838080601f016020809104026020016040519081016040528093929190818152602001838380828437600092018290525084519495509384935091505060208401885af4801560018114611bde57611be9565b3d806000803e806000fd5b50506040516001600160a01b0386169033907f78a9b536049c39a00adaf57016b1376c99dd48a0faf2cef23690232f21ce42cc90600090a3506001600160a01b03909316600090815260d960205260409020929092555050565b60d855565b6001600160a01b03918216600090815260dd6020526040902080546001600160a01b03191691909216179055565b600080611c81611f60565b604080516001600160a01b038316815290519192507efffc2da0b561cae30d9826d37709e9421c4725faebc226cbbb7ef5fc5e7349919081900360200190a1806001600160a01b031663e74a474a3086866040518463ffffffff1660e01b815260040180846001600160a01b03168152602001806020018360ff168152602001828103825284818151815260200191508051906020019080838360005b83811015611d36578181015183820152602001611d1e565b50505050905090810190601f168015611d635780820380516001836020036101000a031916815260200191505b50945050505050600060405180830381600087803b158015611d8457600080fd5b505af1158015611d98573d6000803e3d6000fd5b50929695505050505050565b80821115611dec576040805162461bcd60e51b815260206004820152601060248201526f34b73b30b634b210333930b1ba34b7b760811b604482015290519081900360640190fd5b60ce82905560cf819055604080518381526020810183905281517fb10da2958bf5ec1bff3164ff753a09e0460ed44d3abf73e79b817b500ed0f2f1929181900390910190a15050565b60cd80546001600160a01b0383166001600160a01b0319909116811790915560408051918252517ff1034ad6b4d45dc33a4142b9c51c2b7f89bf4a410696e426cc0f3224869e0aca9181900360200190a150565b60d68190556040805182815290517f20d916c976f3971e8200089411b0b712ef4612d98380b8ad2e3d8a8a376d85c79181900360200190a150565b60d78190556040805182815290517f0cd8fcb5e08d7632af461f0ad793e5c63dc0d7595c301f5880650175e37a87489181900360200190a150565b303b1590565b611489611fa7565b80821115611f55576040805162461bcd60e51b815260206004820152601060248201526f34b73b30b634b210333930b1ba34b7b760811b604482015290519081900360640190fd5b60d29190915560d355565b600080606060405180602001611f75906121f1565b6020820181038252601f19601f8201166040525090508051602082016000f09150813b611fa157600080fd5b50905090565b600054610100900460ff1680611fc05750611fc0611eff565b80611fce575060005460ff16155b6120095760405162461bcd60e51b815260040180806020018281038252602e815260200180612696602e913960400191505060405180910390fd5b600054610100900460ff16158015612034576000805460ff1961ff0019909116610100171660011790555b61203c612058565b6120446120f8565b8015610d65576000805461ff001916905550565b600054610100900460ff16806120715750612071611eff565b8061207f575060005460ff16155b6120ba5760405162461bcd60e51b815260040180806020018281038252602e815260200180612696602e913960400191505060405180910390fd5b600054610100900460ff16158015612044576000805460ff1961ff0019909116610100171660011790558015610d65576000805461ff001916905550565b600054610100900460ff16806121115750612111611eff565b8061211f575060005460ff16155b61215a5760405162461bcd60e51b815260040180806020018281038252602e815260200180612696602e913960400191505060405180910390fd5b600054610100900460ff16158015612185576000805460ff1961ff0019909116610100171660011790555b600061218f611af7565b606580546001600160a01b0319166001600160a01b038316908117909155604051919250906000907f8be0079c531659141344cd1fd0a4f28419497f9722a3daafe3b4186f6b6457e0908290a3508015610d65576000805461ff001916905550565b610451806121ff8339019056fe608060405234801561001057600080fd5b50610431806100206000396000f3fe6080604052600436106100225760003560e01c8063e74a474a1461003957610031565b366100315761002f6100f4565b005b61002f6100f4565b61002f6004803603606081101561004f57600080fd5b6001600160a01b03823516919081019060408101602082013564010000000081111561007a57600080fd5b82018360208201111561008c57600080fd5b803590602001918460018302840111640100000000831117156100ae57600080fd5b91908080601f0160208091040260200160405190810160405280939291908181526020018383808284376000920191909152509295505050903560ff16915061010e9050565b6100fc61010c565b61010c610107610281565b610342565b565b6000610118610281565b6001600160a01b031614610163576040805162461bcd60e51b815260206004820152600d60248201526c496d706c206e6f74207a65726f60981b604482015290519081900360640190fd5b61016c83610366565b610175816103e4565b81511561027c576000610186610281565b6001600160a01b0316836040518082805190602001908083835b602083106101bf5780518252601f1990920191602091820191016101a0565b6001836020036101000a038019825116818451168082178552505050505050905001915050600060405180830381855af49150503d806000811461021f576040519150601f19603f3d011682016040523d82523d6000602084013e610224565b606091505b505090508061027a576040805162461bcd60e51b815260206004820152601a60248201527f496d706c656d656e746174696f6e20696e6974206661696c6564000000000000604482015290519081900360640190fd5b505b505050565b7f360894a13ba1a3210667c828492db98dca3e2076cc3735a920a3ca505d382bbc80546000916001600160a01b0382166102c05760009250505061033f565b816001600160a01b031663ecef89d56102d76103ec565b6040518263ffffffff1660e01b8152600401808260ff16815260200191505060206040518083038186803b15801561030e57600080fd5b505afa158015610322573d6000803e3d6000fd5b505050506040513d602081101561033857600080fd5b5051925050505b90565b3660008037600080366000845af43d6000803e808015610361573d6000f35b3d6000fd5b61036f816103f5565b6103c0576040805162461bcd60e51b815260206004820181905260248201527f43616e6e6f742073657420696d706c656d656e746174696f6e20746f20454f41604482015290519081900360640190fd5b7f360894a13ba1a3210667c828492db98dca3e2076cc3735a920a3ca505d382bbc55565b600160fc1b55565b600160fc1b5490565b3b15159056fea26469706673582212208fb46f65a29ee18e860904dd11c61ab753d42dbb0a06704c916403fc4559feef64736f6c634300060c00334f776e61626c653a206e6577206f776e657220697320746865207a65726f20616464726573734f776e61626c653a2063616c6c6572206973206e6f7420746865206f776e6572436f6e747261637420696e7374616e63652068617320616c7265616479206265656e20696e697469616c697a6564a2646970667358221220ee24abc6d113eae977b47f73df1d614e0275281583a40bf7c41db9c7ccb221d764736f6c634300060c0033",
  "linkReferences": {},
  "deployedLinkReferences": {}
}