{
  "_format": "hh-sol-artifact-1",
  "contractName": "Managed",
  "sourceName": "contracts/Managed.sol",
  "abi": [
    {
      "anonymous": false,
      "inputs": [
        {
          "indexed": false,
          "internalType": "address",
          "name": "newManager",
          "type": "address"
        },
        {
          "indexed": false,
          "internalType": "string",
          "name": "newManagerName",
          "type": "string"
        }
      ],
      "name": "ManagerUpdated",
      "type": "event"
    },
    {
      "inputs": [
        {
          "internalType": "address",
          "name": "member",
          "type": "address"
        }
      ],
      "name": "addMember",
      "outputs": [],
      "stateMutability": "nonpayable",
      "type": "function"
    },
    {
      "inputs": [
        {
          "internalType": "address[]",
          "name": "members",
          "type": "address[]"
        }
      ],
      "name": "addMembers",
      "outputs": [],
      "stateMutability": "nonpayable",
      "type": "function"
    },
    {
      "inputs": [
        {
          "internalType": "address",
          "name": "newManager",
          "type": "address"
        },
        {
          "internalType": "string",
          "name": "newManagerName",
          "type": "string"
        }
      ],
      "name": "changeManager",
      "outputs": [],
      "stateMutability": "nonpayable",
      "type": "function"
    },
    {
      "inputs": [],
      "name": "getMembers",
      "outputs": [
        {
          "internalType": "address[]",
          "name": "",
          "type": "address[]"
        }
      ],
      "stateMutability": "view",
      "type": "function"
    },
    {
      "inputs": [
        {
          "internalType": "address",
          "name": "member",
          "type": "address"
        }
      ],
      "name": "isMemberAllowed",
      "outputs": [
        {
          "internalType": "bool",
          "name": "",
          "type": "bool"
        }
      ],
      "stateMutability": "view",
      "type": "function"
    },
    {
      "inputs": [],
      "name": "manager",
      "outputs": [
        {
          "internalType": "address",
          "name": "",
          "type": "address"
        }
      ],
      "stateMutability": "view",
      "type": "function"
    },
    {
      "inputs": [],
      "name": "managerName",
      "outputs": [
        {
          "internalType": "string",
          "name": "",
          "type": "string"
        }
      ],
      "stateMutability": "view",
      "type": "function"
    },
    {
      "inputs": [],
      "name": "numberOfMembers",
      "outputs": [
        {
          "internalType": "uint256",
          "name": "",
          "type": "uint256"
        }
      ],
      "stateMutability": "view",
      "type": "function"
    },
    {
      "inputs": [
        {
          "internalType": "address",
          "name": "member",
          "type": "address"
        }
      ],
      "name": "removeMember",
      "outputs": [],
      "stateMutability": "nonpayable",
      "type": "function"
    },
    {
      "inputs": [
        {
          "internalType": "address[]",
          "name": "members",
          "type": "address[]"
        }
      ],
      "name": "removeMembers",
      "outputs": [],
      "stateMutability": "nonpayable",
      "type": "function"
    }
  ],
  "bytecode": "0x608060405234801561001057600080fd5b50610bf1806100206000396000f3fe608060405234801561001057600080fd5b506004361061009e5760003560e01c80639eab5253116100665780639eab5253146102eb578063a30e3fa914610343578063bbbf725b1461035d578063ca6d56dc14610397578063fed4416a146103bd5761009e565b80630b1ca49a146100a357806346ee84b0146100cb578063481c6a751461016e57806352213663146101925780636f4d469b14610248575b600080fd5b6100c9600480360360208110156100b957600080fd5b50356001600160a01b031661043a565b005b6100c9600480360360208110156100e157600080fd5b8101906020810181356401000000008111156100fc57600080fd5b82018360208201111561010e57600080fd5b8035906020019184602083028401116401000000008311171561013057600080fd5b9190808060200260200160405190810160405280939291908181526020018383602002808284376000920191909152509295506104a6945050505050565b61017661054d565b604080516001600160a01b039092168252519081900360200190f35b6100c9600480360360408110156101a857600080fd5b6001600160a01b0382351691908101906040810160208201356401000000008111156101d357600080fd5b8201836020820111156101e557600080fd5b8035906020019184600183028401116401000000008311171561020757600080fd5b91908080601f01602080910402602001604051908101604052809392919081815260200183838082843760009201919091525092955061055c945050505050565b6100c96004803603602081101561025e57600080fd5b81019060208101813564010000000081111561027957600080fd5b82018360208201111561028b57600080fd5b803590602001918460208302840111640100000000831117156102ad57600080fd5b919080806020026020016040519081016040528093929190818152602001838360200280828437600092019190915250929550610687945050505050565b6102f361071e565b60408051602080825283518183015283519192839290830191858101910280838360005b8381101561032f578181015183820152602001610317565b505050509050019250505060405180910390f35b61034b610780565b60408051918252519081900360200190f35b6103836004803603602081101561037357600080fd5b50356001600160a01b0316610786565b604080519115158252519081900360200190f35b6100c9600480360360208110156103ad57600080fd5b50356001600160a01b03166107a3565b6103c561080d565b6040805160208082528351818301528351919283929083019185019080838360005b838110156103ff5781810151838201526020016103e7565b50505050905090810190601f16801561042c5780820380516001836020036101000a031916815260200191505b509250505060405180910390f35b6000546001600160a01b03163314610488576040805162461bcd60e51b815260206004820152600c60248201526b37b7363c9036b0b730b3b2b960a11b604482015290519081900360640190fd5b61049181610786565b61049a576104a3565b6104a381610899565b50565b6000546001600160a01b031633146104f4576040805162461bcd60e51b815260206004820152600c60248201526b37b7363c9036b0b730b3b2b960a11b604482015290519081900360640190fd5b60005b81518110156105495761051c82828151811061050f57fe5b6020026020010151610786565b61052557610541565b61054182828151811061053457fe5b6020026020010151610899565b6001016104f7565b5050565b6000546001600160a01b031690565b6000546001600160a01b031633146105aa576040805162461bcd60e51b815260206004820152600c60248201526b37b7363c9036b0b730b3b2b960a11b604482015290519081900360640190fd5b600080546001600160a01b0319166001600160a01b03841617905580516105d8906001906020840190610b28565b507f6ed15082ad038474841528b5badca105106d4463e44b5d434130dfb299aa3669828260405180836001600160a01b0316815260200180602001828103825283818151815260200191508051906020019080838360005b83811015610648578181015183820152602001610630565b50505050905090810190601f1680156106755780820380516001836020036101000a031916815260200191505b50935050505060405180910390a15050565b6000546001600160a01b031633146106d5576040805162461bcd60e51b815260206004820152600c60248201526b37b7363c9036b0b730b3b2b960a11b604482015290519081900360640190fd5b60005b8151811015610549576106f082828151811061050f57fe5b156106fa57610716565b61071682828151811061070957fe5b6020026020010151610992565b6001016106d8565b6060600280548060200260200160405190810160405280929190818152602001828054801561077657602002820191906000526020600020905b81546001600160a01b03168152600190910190602001808311610758575b5050505050905090565b60025490565b6001600160a01b0316600090815260036020526040902054151590565b6000546001600160a01b031633146107f1576040805162461bcd60e51b815260206004820152600c60248201526b37b7363c9036b0b730b3b2b960a11b604482015290519081900360640190fd5b6107fa81610786565b15610804576104a3565b6104a381610992565b60018054604080516020601f600260001961010087891615020190951694909404938401819004810282018101909252828152606093909290918301828280156107765780601f1061086d57610100808354040283529160200191610776565b820191906000526020600020905b81548152906001019060200180831161087b57509395945050505050565b6002546001600160a01b0382166000908152600360205260408120546108c09060016109ee565b9050600060026108d18460016109ee565b815481106108db57fe5b600091825260209091200154600280546001600160a01b03909216925082918490811061090457fe5b600091825260209091200180546001600160a01b0319166001600160a01b0392909216919091179055610938826001610a37565b6001600160a01b0380831660009081526003602052604080822093909355908616815290812055600280548061096a57fe5b600082815260209020810160001990810180546001600160a01b031916905501905550505050565b600280546001810182557f405787fa12a823e0f2b7631cc41b3ba8828b3321ca811111fa75cd3aa3bb5ace0180546001600160a01b039093166001600160a01b0319909316831790555460009182526003602052604090912055565b6000610a3083836040518060400160405280601e81526020017f536166654d6174683a207375627472616374696f6e206f766572666c6f770000815250610a91565b9392505050565b600082820183811015610a30576040805162461bcd60e51b815260206004820152601b60248201527f536166654d6174683a206164646974696f6e206f766572666c6f770000000000604482015290519081900360640190fd5b60008184841115610b205760405162461bcd60e51b81526004018080602001828103825283818151815260200191508051906020019080838360005b83811015610ae5578181015183820152602001610acd565b50505050905090810190601f168015610b125780820380516001836020036101000a031916815260200191505b509250505060405180910390fd5b505050900390565b828054600181600116156101000203166002900490600052602060002090601f016020900481019282601f10610b6957805160ff1916838001178555610b96565b82800160010185558215610b96579182015b82811115610b96578251825591602001919060010190610b7b565b50610ba2929150610ba6565b5090565b5b80821115610ba25760008155600101610ba756fea26469706673582212206595467f10bd111635723cb19a3ff91529b0b865a20ac92826c32526d816af7664736f6c634300060c0033",
  "linkReferences": {},
  "deployedLinkReferences": {}
}