{
  "_format": "hh-sol-artifact-1",
  "contractName": "Managed",
  "sourceName": "contracts/Managed.sol",
  "abi": [
    {
      "anonymous": false,
      "inputs": [
        {
          "indexed": false,
          "internalType": "address",
          "name": "newManager",
          "type": "address"
        },
        {
          "indexed": false,
          "internalType": "string",
          "name": "newManagerName",
          "type": "string"
        }
      ],
      "name": "ManagerUpdated",
      "type": "event"
    },
    {
      "inputs": [
        {
          "internalType": "address",
          "name": "member",
          "type": "address"
        }
      ],
      "name": "addMember",
      "outputs": [],
      "stateMutability": "nonpayable",
      "type": "function"
    },
    {
      "inputs": [
        {
          "internalType": "address[]",
          "name": "members",
          "type": "address[]"
        }
      ],
      "name": "addMembers",
      "outputs": [],
      "stateMutability": "nonpayable",
      "type": "function"
    },
    {
      "inputs": [
        {
          "internalType": "address",
          "name": "newManager",
          "type": "address"
        },
        {
          "internalType": "string",
          "name": "newManagerName",
          "type": "string"
        }
      ],
      "name": "changeManager",
      "outputs": [],
      "stateMutability": "nonpayable",
      "type": "function"
    },
    {
      "inputs": [],
      "name": "getMembers",
      "outputs": [
        {
          "internalType": "address[]",
          "name": "",
          "type": "address[]"
        }
      ],
      "stateMutability": "view",
      "type": "function"
    },
    {
      "inputs": [
        {
          "internalType": "address",
          "name": "member",
          "type": "address"
        }
      ],
      "name": "isMemberAllowed",
      "outputs": [
        {
          "internalType": "bool",
          "name": "",
          "type": "bool"
        }
      ],
      "stateMutability": "view",
      "type": "function"
    },
    {
      "inputs": [],
      "name": "manager",
      "outputs": [
        {
          "internalType": "address",
          "name": "",
          "type": "address"
        }
      ],
      "stateMutability": "view",
      "type": "function"
    },
    {
      "inputs": [],
      "name": "managerName",
      "outputs": [
        {
          "internalType": "string",
          "name": "",
          "type": "string"
        }
      ],
      "stateMutability": "view",
      "type": "function"
    },
    {
      "inputs": [],
      "name": "numberOfMembers",
      "outputs": [
        {
          "internalType": "uint256",
          "name": "",
          "type": "uint256"
        }
      ],
      "stateMutability": "view",
      "type": "function"
    },
    {
      "inputs": [
        {
          "internalType": "address",
          "name": "member",
          "type": "address"
        }
      ],
      "name": "removeMember",
      "outputs": [],
      "stateMutability": "nonpayable",
      "type": "function"
    },
    {
      "inputs": [
        {
          "internalType": "address[]",
          "name": "members",
          "type": "address[]"
        }
      ],
      "name": "removeMembers",
      "outputs": [],
      "stateMutability": "nonpayable",
      "type": "function"
    },
    {
      "inputs": [],
      "name": "removeTrader",
      "outputs": [],
      "stateMutability": "nonpayable",
      "type": "function"
    },
    {
      "inputs": [
        {
          "internalType": "address",
          "name": "newTrader",
          "type": "address"
        }
      ],
      "name": "setTrader",
      "outputs": [],
      "stateMutability": "nonpayable",
      "type": "function"
    },
    {
      "inputs": [],
      "name": "trader",
      "outputs": [
        {
          "internalType": "address",
          "name": "",
          "type": "address"
        }
      ],
      "stateMutability": "view",
      "type": "function"
    }
  ],
  "bytecode": "0x608060405234801561001057600080fd5b50610d37806100206000396000f3fe608060405234801561001057600080fd5b50600436106100cf5760003560e01c80637c8afd511161008c578063a6bc18f911610066578063a6bc18f91461039e578063bbbf725b146103c4578063ca6d56dc146103fe578063fed4416a14610424576100cf565b80637c8afd51146103245780639eab52531461032c578063a30e3fa914610384576100cf565b80630b1ca49a146100d45780631758078b146100fc57806346ee84b014610120578063481c6a75146101c357806352213663146101cb5780636f4d469b14610281575b600080fd5b6100fa600480360360208110156100ea57600080fd5b50356001600160a01b03166104a1565b005b61010461050d565b604080516001600160a01b039092168252519081900360200190f35b6100fa6004803603602081101561013657600080fd5b81019060208101813564010000000081111561015157600080fd5b82018360208201111561016357600080fd5b8035906020019184602083028401116401000000008311171561018557600080fd5b91908080602002602001604051908101604052809392919081815260200183836020028082843760009201919091525092955061051c945050505050565b6101046105c3565b6100fa600480360360408110156101e157600080fd5b6001600160a01b03823516919081019060408101602082013564010000000081111561020c57600080fd5b82018360208201111561021e57600080fd5b8035906020019184600183028401116401000000008311171561024057600080fd5b91908080601f0160208091040260200160405190810160405280939291908181526020018383808284376000920191909152509295506105d2945050505050565b6100fa6004803603602081101561029757600080fd5b8101906020810181356401000000008111156102b257600080fd5b8201836020820111156102c457600080fd5b803590602001918460208302840111640100000000831117156102e657600080fd5b9190808060200260200160405190810160405280939291908181526020018383602002808284376000920191909152509295506106fd945050505050565b6100fa610794565b6103346107f4565b60408051602080825283518183015283519192839290830191858101910280838360005b83811015610370578181015183820152602001610358565b505050509050019250505060405180910390f35b61038c610856565b60408051918252519081900360200190f35b6100fa600480360360208110156103b457600080fd5b50356001600160a01b031661085c565b6103ea600480360360208110156103da57600080fd5b50356001600160a01b03166108cc565b604080519115158252519081900360200190f35b6100fa6004803603602081101561041457600080fd5b50356001600160a01b03166108e9565b61042c610953565b6040805160208082528351818301528351919283929083019185019080838360005b8381101561046657818101518382015260200161044e565b50505050905090810190601f1680156104935780820380516001836020036101000a031916815260200191505b509250505060405180910390f35b6000546001600160a01b031633146104ef576040805162461bcd60e51b815260206004820152600c60248201526b37b7363c9036b0b730b3b2b960a11b604482015290519081900360640190fd5b6104f8816108cc565b6105015761050a565b61050a816109df565b50565b6004546001600160a01b031690565b6000546001600160a01b0316331461056a576040805162461bcd60e51b815260206004820152600c60248201526b37b7363c9036b0b730b3b2b960a11b604482015290519081900360640190fd5b60005b81518110156105bf5761059282828151811061058557fe5b60200260200101516108cc565b61059b576105b7565b6105b78282815181106105aa57fe5b60200260200101516109df565b60010161056d565b5050565b6000546001600160a01b031690565b6000546001600160a01b03163314610620576040805162461bcd60e51b815260206004820152600c60248201526b37b7363c9036b0b730b3b2b960a11b604482015290519081900360640190fd5b600080546001600160a01b0319166001600160a01b038416179055805161064e906001906020840190610c6e565b507f6ed15082ad038474841528b5badca105106d4463e44b5d434130dfb299aa3669828260405180836001600160a01b0316815260200180602001828103825283818151815260200191508051906020019080838360005b838110156106be5781810151838201526020016106a6565b50505050905090810190601f1680156106eb5780820380516001836020036101000a031916815260200191505b50935050505060405180910390a15050565b6000546001600160a01b0316331461074b576040805162461bcd60e51b815260206004820152600c60248201526b37b7363c9036b0b730b3b2b960a11b604482015290519081900360640190fd5b60005b81518110156105bf5761076682828151811061058557fe5b156107705761078c565b61078c82828151811061077f57fe5b6020026020010151610ad8565b60010161074e565b6000546001600160a01b031633146107e2576040805162461bcd60e51b815260206004820152600c60248201526b37b7363c9036b0b730b3b2b960a11b604482015290519081900360640190fd5b600480546001600160a01b0319169055565b6060600280548060200260200160405190810160405280929190818152602001828054801561084c57602002820191906000526020600020905b81546001600160a01b0316815260019091019060200180831161082e575b5050505050905090565b60025490565b6000546001600160a01b031633146108aa576040805162461bcd60e51b815260206004820152600c60248201526b37b7363c9036b0b730b3b2b960a11b604482015290519081900360640190fd5b600480546001600160a01b0319166001600160a01b0392909216919091179055565b6001600160a01b0316600090815260036020526040902054151590565b6000546001600160a01b03163314610937576040805162461bcd60e51b815260206004820152600c60248201526b37b7363c9036b0b730b3b2b960a11b604482015290519081900360640190fd5b610940816108cc565b1561094a5761050a565b61050a81610ad8565b60018054604080516020601f6002600019610100878916150201909516949094049384018190048102820181019092528281526060939092909183018282801561084c5780601f106109b35761010080835404028352916020019161084c565b820191906000526020600020905b8154815290600101906020018083116109c157509395945050505050565b6002546001600160a01b038216600090815260036020526040812054610a06906001610b34565b905060006002610a17846001610b34565b81548110610a2157fe5b600091825260209091200154600280546001600160a01b039092169250829184908110610a4a57fe5b600091825260209091200180546001600160a01b0319166001600160a01b0392909216919091179055610a7e826001610b7d565b6001600160a01b03808316600090815260036020526040808220939093559086168152908120556002805480610ab057fe5b600082815260209020810160001990810180546001600160a01b031916905501905550505050565b600280546001810182557f405787fa12a823e0f2b7631cc41b3ba8828b3321ca811111fa75cd3aa3bb5ace0180546001600160a01b039093166001600160a01b0319909316831790555460009182526003602052604090912055565b6000610b7683836040518060400160405280601e81526020017f536166654d6174683a207375627472616374696f6e206f766572666c6f770000815250610bd7565b9392505050565b600082820183811015610b76576040805162461bcd60e51b815260206004820152601b60248201527f536166654d6174683a206164646974696f6e206f766572666c6f770000000000604482015290519081900360640190fd5b60008184841115610c665760405162461bcd60e51b81526004018080602001828103825283818151815260200191508051906020019080838360005b83811015610c2b578181015183820152602001610c13565b50505050905090810190601f168015610c585780820380516001836020036101000a031916815260200191505b509250505060405180910390fd5b505050900390565b828054600181600116156101000203166002900490600052602060002090601f016020900481019282601f10610caf57805160ff1916838001178555610cdc565b82800160010185558215610cdc579182015b82811115610cdc578251825591602001919060010190610cc1565b50610ce8929150610cec565b5090565b5b80821115610ce85760008155600101610ced56fea264697066735822122050da6badd5b0ec80d4c66f0908145bfd3b6e02921454c377deea17d001b5009e64736f6c634300060c0033",
  "linkReferences": {},
  "deployedLinkReferences": {}
}