{
  "_format": "hh-sol-artifact-1",
  "contractName": "Managed",
  "sourceName": "contracts/Managed.sol",
  "abi": [
    {
      "anonymous": false,
      "inputs": [
        {
          "indexed": false,
          "internalType": "address",
          "name": "newManager",
          "type": "address"
        },
        {
          "indexed": false,
          "internalType": "string",
          "name": "newManagerName",
          "type": "string"
        }
      ],
      "name": "ManagerUpdated",
      "type": "event"
    },
    {
      "inputs": [
        {
          "internalType": "address",
          "name": "member",
          "type": "address"
        }
      ],
      "name": "addMember",
      "outputs": [],
      "stateMutability": "nonpayable",
      "type": "function"
    },
    {
      "inputs": [
        {
          "internalType": "address[]",
          "name": "members",
          "type": "address[]"
        }
      ],
      "name": "addMembers",
      "outputs": [],
      "stateMutability": "nonpayable",
      "type": "function"
    },
    {
      "inputs": [
        {
          "internalType": "bytes32",
          "name": "c__0x8cd9e52a",
          "type": "bytes32"
        }
      ],
      "name": "c_0x8cd9e52a",
      "outputs": [],
      "stateMutability": "pure",
      "type": "function"
    },
    {
      "inputs": [
        {
          "internalType": "address",
          "name": "newManager",
          "type": "address"
        },
        {
          "internalType": "string",
          "name": "newManagerName",
          "type": "string"
        }
      ],
      "name": "changeManager",
      "outputs": [],
      "stateMutability": "nonpayable",
      "type": "function"
    },
    {
      "inputs": [],
      "name": "getMembers",
      "outputs": [
        {
          "internalType": "address[]",
          "name": "",
          "type": "address[]"
        }
      ],
      "stateMutability": "view",
      "type": "function"
    },
    {
      "inputs": [
        {
          "internalType": "address",
          "name": "member",
          "type": "address"
        }
      ],
      "name": "isMemberAllowed",
      "outputs": [
        {
          "internalType": "bool",
          "name": "",
          "type": "bool"
        }
      ],
      "stateMutability": "view",
      "type": "function"
    },
    {
      "inputs": [],
      "name": "manager",
      "outputs": [
        {
          "internalType": "address",
          "name": "",
          "type": "address"
        }
      ],
      "stateMutability": "view",
      "type": "function"
    },
    {
      "inputs": [],
      "name": "managerName",
      "outputs": [
        {
          "internalType": "string",
          "name": "",
          "type": "string"
        }
      ],
      "stateMutability": "view",
      "type": "function"
    },
    {
      "inputs": [],
      "name": "numberOfMembers",
      "outputs": [
        {
          "internalType": "uint256",
          "name": "",
          "type": "uint256"
        }
      ],
      "stateMutability": "view",
      "type": "function"
    },
    {
      "inputs": [
        {
          "internalType": "address",
          "name": "member",
          "type": "address"
        }
      ],
      "name": "removeMember",
      "outputs": [],
      "stateMutability": "nonpayable",
      "type": "function"
    },
    {
      "inputs": [
        {
          "internalType": "address[]",
          "name": "members",
          "type": "address[]"
        }
      ],
      "name": "removeMembers",
      "outputs": [],
      "stateMutability": "nonpayable",
      "type": "function"
    },
    {
      "inputs": [],
      "name": "removeTrader",
      "outputs": [],
      "stateMutability": "nonpayable",
      "type": "function"
    },
    {
      "inputs": [
        {
          "internalType": "address",
          "name": "newTrader",
          "type": "address"
        }
      ],
      "name": "setTrader",
      "outputs": [],
      "stateMutability": "nonpayable",
      "type": "function"
    },
    {
      "inputs": [],
      "name": "trader",
      "outputs": [
        {
          "internalType": "address",
          "name": "",
          "type": "address"
        }
      ],
      "stateMutability": "view",
      "type": "function"
    }
  ],
  "bytecode": "0x608060405234801561001057600080fd5b50612a91806100206000396000f3fe608060405234801561001057600080fd5b50600436106100ea5760003560e01c80637c8afd511161008c578063a6bc18f911610066578063a6bc18f91461049b578063bbbf725b146104df578063ca6d56dc14610539578063fed4416a1461057d576100ea565b80637c8afd51146104145780639eab52531461041e578063a30e3fa91461047d576100ea565b806346ee84b0116100c857806346ee84b014610195578063481c6a751461024d57806352213663146102815780636f4d469b1461035c576100ea565b806307f83a5f146100ef5780630b1ca49a1461011d5780631758078b14610161575b600080fd5b61011b6004803603602081101561010557600080fd5b8101908080359060200190929190505050610600565b005b61015f6004803603602081101561013357600080fd5b81019080803573ffffffffffffffffffffffffffffffffffffffff169060200190929190505050610603565b005b61016961094b565b604051808273ffffffffffffffffffffffffffffffffffffffff16815260200191505060405180910390f35b61024b600480360360208110156101ab57600080fd5b81019080803590602001906401000000008111156101c857600080fd5b8201836020820111156101da57600080fd5b803590602001918460208302840111640100000000831117156101fc57600080fd5b919080806020026020016040519081016040528093929190818152602001838360200280828437600081840152601f19601f8201169050808301925050505050505091929192905050506109f9565b005b610255610dad565b604051808273ffffffffffffffffffffffffffffffffffffffff16815260200191505060405180910390f35b61035a6004803603604081101561029757600080fd5b81019080803573ffffffffffffffffffffffffffffffffffffffff169060200190929190803590602001906401000000008111156102d457600080fd5b8201836020820111156102e657600080fd5b8035906020019184600183028401116401000000008311171561030857600080fd5b91908080601f016020809104026020016040519081016040528093929190818152602001838380828437600081840152601f19601f820116905080830192505050505050509192919290505050610e59565b005b6104126004803603602081101561037257600080fd5b810190808035906020019064010000000081111561038f57600080fd5b8201836020820111156103a157600080fd5b803590602001918460208302840111640100000000831117156103c357600080fd5b919080806020026020016040519081016040528093929190818152602001838360200280828437600081840152601f19601f82011690508083019250505050505050919291929050505061126b565b005b61041c611620565b005b6104266118b1565b6040518080602001828103825283818151815260200191508051906020019060200280838360005b8381101561046957808201518184015260208101905061044e565b505050509050019250505060405180910390f35b6104856119c3565b6040518082815260200191505060405180910390f35b6104dd600480360360208110156104b157600080fd5b81019080803573ffffffffffffffffffffffffffffffffffffffff169060200190929190505050611a54565b005b610521600480360360208110156104f557600080fd5b81019080803573ffffffffffffffffffffffffffffffffffffffff169060200190929190505050611ce5565b60405180821515815260200191505060405180910390f35b61057b6004803603602081101561054f57600080fd5b81019080803573ffffffffffffffffffffffffffffffffffffffff169060200190929190505050611db6565b005b6105856120ff565b6040518080602001828103825283818151815260200191508051906020019080838360005b838110156105c55780820151818401526020810190506105aa565b50505050905090810190601f1680156105f25780820380516001836020036101000a031916815260200191505b509250505060405180910390f35b50565b61062f7ff726fc88418c0a3484479f3aad53d8027d0e2163703da4e11695846a8ecf323960001b610600565b61065b7f684725bd78b70c3fb2cf13b500bfd22c1cd461220ef6c85b59f31f1043c5de1f60001b610600565b6106877f66ea293273b42d90ad1edbe377e4882daf414bd29b0dcec70a1119a20e4da60760001b610600565b6106b37fbba45401a87b3041ecdfeb8ba6cdf9dec1a86b5dc1ad9312274f3d920df5ec4460001b610600565b60008054906101000a900473ffffffffffffffffffffffffffffffffffffffff1673ffffffffffffffffffffffffffffffffffffffff163373ffffffffffffffffffffffffffffffffffffffff1614610774576040517f08c379a000000000000000000000000000000000000000000000000000000000815260040180806020018281038252600c8152602001807f6f6e6c79206d616e61676572000000000000000000000000000000000000000081525060200191505060405180910390fd5b6107a07fe84730383f7e358d6eb5424a73f82ebabefe25dbfc6cacd9a33efe47980ed6a060001b610600565b6107cc7f1e8080af53826ea93c0834314df776ac304bf425dcb83719abb60873fded05d360001b610600565b6107f87fea1757305949ed706951fb794bd2551514c6efdb2d7679c5d85b078142ffe2b260001b610600565b6108247f1ffc6b134d15c295e5f995b3f82b5a0cb18ad84f314a2d960c81c8d81184722e60001b610600565b6108507f3c92deefafc01aaaabda23cc392d833acabe18b8cb00e63048de8ce6998a50d160001b610600565b61085981611ce5565b6108ba576108897fe426072b40d42570f2a371006c4849244b036fcfab927292797340fc1dfd4f2860001b610600565b6108b57fa87fcaab10e3f72cae704058c7741c3c14bf2347c4ed9f4cf29e77c38f1fd7ec60001b610600565b610948565b6108e67fb95ad00e9df5485a45b440c3dbdda7a5c12dc7d5b9a67813420d09bea2d0d5e360001b610600565b6109127fd6dd051f93c0416ce28a333b5248bf159f01391c2d334ad25964076d30e5c14f60001b610600565b61093e7fb71ec9708481e1cb8db1808117b3292284c7507d570cf24576d2cc1110d10c0760001b610600565b61094781612225565b5b50565b60006109797f3aca4bfed5bca6bb4a7952d9916be14f80d41a88cb22b235f78122ad6e4440d360001b610600565b6109a57f0d2afb8ca427495817d996651401041f2a8ab28d5256db0743a91af8ea8627ed60001b610600565b6109d17f6d976131b13215f2dcfb2c190b142557b0a055ae766dec008e5ce2e06a5903fc60001b610600565b600460009054906101000a900473ffffffffffffffffffffffffffffffffffffffff16905090565b610a257ff726fc88418c0a3484479f3aad53d8027d0e2163703da4e11695846a8ecf323960001b610600565b610a517f684725bd78b70c3fb2cf13b500bfd22c1cd461220ef6c85b59f31f1043c5de1f60001b610600565b610a7d7f66ea293273b42d90ad1edbe377e4882daf414bd29b0dcec70a1119a20e4da60760001b610600565b610aa97fbba45401a87b3041ecdfeb8ba6cdf9dec1a86b5dc1ad9312274f3d920df5ec4460001b610600565b60008054906101000a900473ffffffffffffffffffffffffffffffffffffffff1673ffffffffffffffffffffffffffffffffffffffff163373ffffffffffffffffffffffffffffffffffffffff1614610b6a576040517f08c379a000000000000000000000000000000000000000000000000000000000815260040180806020018281038252600c8152602001807f6f6e6c79206d616e61676572000000000000000000000000000000000000000081525060200191505060405180910390fd5b610b967fe84730383f7e358d6eb5424a73f82ebabefe25dbfc6cacd9a33efe47980ed6a060001b610600565b610bc27f1e8080af53826ea93c0834314df776ac304bf425dcb83719abb60873fded05d360001b610600565b610bee7fc6d07b0e83c40b72565fd3474fca46c407f6de8c82037d955827819ab972195260001b610600565b610c1a7f26769fe5ebee2b76e34a63895ab43d409672ad60d9b2755c7de02300820208ed60001b610600565b610c467f4d8cfa7afb76b08a12448582f35c146769f30bdd1d5db7c143c2befb31bca2a660001b610600565b60005b8151811015610da957610c7e7f7ea9cc9b523311f807b540bd8e9e396ae855b639cde9a015207f324636c69fe160001b610600565b610caa7f01617bcb9958929a8467a5175123be7b9691af9514194a67b05c29563283893d60001b610600565b610cc6828281518110610cb957fe5b6020026020010151611ce5565b610cfb57610cf67f82c7c45be74131f8e447c732657e121e77b9532aa09134f13eb7470fd7501e4f60001b610600565b610d9c565b610d277f89a08829e0370111a9a3a659be41f5857cf43cfbb23e711c5855b4c7da2fe67860001b610600565b610d537fad00ecdc0b3b8746773d999187984e71c22bff6ec0a2c10dfe65f023ddb95e0b60001b610600565b610d7f7fbc65408770e0bc90d5f74397619a31b62c42c12ae3d25d3cfdaaf6a116352a0060001b610600565b610d9b828281518110610d8e57fe5b6020026020010151612225565b5b8080600101915050610c49565b5050565b6000610ddb7fde4bef5b1a10104dfb102cbba245db1187511edcfe701d03a84f93e19528fd5760001b610600565b610e077f9a03cddc5c815574fd1412424527aa1728a2f941a016da83fbe4746b459c0bcc60001b610600565b610e337f652db2c58b82533a98d3829c46f05f55a14d070a33fbdb20e662bb3c22e8649360001b610600565b60008054906101000a900473ffffffffffffffffffffffffffffffffffffffff16905090565b610e857ff726fc88418c0a3484479f3aad53d8027d0e2163703da4e11695846a8ecf323960001b610600565b610eb17f684725bd78b70c3fb2cf13b500bfd22c1cd461220ef6c85b59f31f1043c5de1f60001b610600565b610edd7f66ea293273b42d90ad1edbe377e4882daf414bd29b0dcec70a1119a20e4da60760001b610600565b610f097fbba45401a87b3041ecdfeb8ba6cdf9dec1a86b5dc1ad9312274f3d920df5ec4460001b610600565b60008054906101000a900473ffffffffffffffffffffffffffffffffffffffff1673ffffffffffffffffffffffffffffffffffffffff163373ffffffffffffffffffffffffffffffffffffffff1614610fca576040517f08c379a000000000000000000000000000000000000000000000000000000000815260040180806020018281038252600c8152602001807f6f6e6c79206d616e61676572000000000000000000000000000000000000000081525060200191505060405180910390fd5b610ff67fe84730383f7e358d6eb5424a73f82ebabefe25dbfc6cacd9a33efe47980ed6a060001b610600565b6110227f1e8080af53826ea93c0834314df776ac304bf425dcb83719abb60873fded05d360001b610600565b61104e7f05ee09d98595e06fc5a4608c638f04358e61e9d181a59179d2f93069b2117fac60001b610600565b61107a7fb4833cbd64d89313613117a4fc34fce0f62e7bfd670ee93da9aba1ee1ee4586d60001b610600565b6110a67f2d88291758d54b6773dec5516b3661c137bfc881a2a9608292cbf832b3260c2860001b610600565b816000806101000a81548173ffffffffffffffffffffffffffffffffffffffff021916908373ffffffffffffffffffffffffffffffffffffffff1602179055506111127f774972c16bfebd604693d0392cbf1007b58033d47e3ff75ae5d03fcf1a073fef60001b610600565b61113e7f1697602808093fbbac294b5c863fdb742a5d480c4016c073e99d70b9e999ce0460001b610600565b80600190805190602001906111549291906129be565b506111817fc5759183963137b34820ce6561b6912e6acd940bcfc29dc1306bf55a68e8b3cb60001b610600565b6111ad7f37ecb20db872e47571ee95480fabf4fb5cef32145934449f070cea721eeb698660001b610600565b7f6ed15082ad038474841528b5badca105106d4463e44b5d434130dfb299aa36698282604051808373ffffffffffffffffffffffffffffffffffffffff16815260200180602001828103825283818151815260200191508051906020019080838360005b8381101561122c578082015181840152602081019050611211565b50505050905090810190601f1680156112595780820380516001836020036101000a031916815260200191505b50935050505060405180910390a15050565b6112977ff726fc88418c0a3484479f3aad53d8027d0e2163703da4e11695846a8ecf323960001b610600565b6112c37f684725bd78b70c3fb2cf13b500bfd22c1cd461220ef6c85b59f31f1043c5de1f60001b610600565b6112ef7f66ea293273b42d90ad1edbe377e4882daf414bd29b0dcec70a1119a20e4da60760001b610600565b61131b7fbba45401a87b3041ecdfeb8ba6cdf9dec1a86b5dc1ad9312274f3d920df5ec4460001b610600565b60008054906101000a900473ffffffffffffffffffffffffffffffffffffffff1673ffffffffffffffffffffffffffffffffffffffff163373ffffffffffffffffffffffffffffffffffffffff16146113dc576040517f08c379a000000000000000000000000000000000000000000000000000000000815260040180806020018281038252600c8152602001807f6f6e6c79206d616e61676572000000000000000000000000000000000000000081525060200191505060405180910390fd5b6114087fe84730383f7e358d6eb5424a73f82ebabefe25dbfc6cacd9a33efe47980ed6a060001b610600565b6114347f1e8080af53826ea93c0834314df776ac304bf425dcb83719abb60873fded05d360001b610600565b6114607fca3b0b6a8f0568d214a013263a65c9483dba7aa815bd0585a82fcb6e01b44e4260001b610600565b61148c7f32a3f81f40bb087c7fd38d5dcb5c29f487af7b6230e95b2acd83a8141b6ef76160001b610600565b6114b87f9f1a6c81fd7ccf33f78b471b0320d8b00b85dda096a45429cf89835a066ff67d60001b610600565b60005b815181101561161c576114f07f7ae0a1ae04f92781454c373617fd96d4c9ab5fb9828a61d367bf00640648c33460001b610600565b61151c7f8dfa20da60ba28b5cf6e6b094b34a50c8c27b4e1efa56d9a9013613e395b454c60001b610600565b61153882828151811061152b57fe5b6020026020010151611ce5565b1561156e576115697f1bce9586341e7e0f103cc61df037ac5c651216e8a53aebe2b8316b0dfe13a21560001b610600565b61160f565b61159a7fa87f7eb0f11b25a4f28d761815fd69c2ac6e783657f1be3d8a92a6c8e7691e3060001b610600565b6115c67ffe1fe1a4bae1838cbdef812094bc9bf6a37b3a1b68cd54d8dc58310eec925add60001b610600565b6115f27ff9c6e6aeebb90b2fd8d734adf26bebb0b4a46cfb0a98ed5d1c527b059e5cf19660001b610600565b61160e82828151811061160157fe5b60200260200101516126a1565b5b80806001019150506114bb565b5050565b61164c7ff726fc88418c0a3484479f3aad53d8027d0e2163703da4e11695846a8ecf323960001b610600565b6116787f684725bd78b70c3fb2cf13b500bfd22c1cd461220ef6c85b59f31f1043c5de1f60001b610600565b6116a47f66ea293273b42d90ad1edbe377e4882daf414bd29b0dcec70a1119a20e4da60760001b610600565b6116d07fbba45401a87b3041ecdfeb8ba6cdf9dec1a86b5dc1ad9312274f3d920df5ec4460001b610600565b60008054906101000a900473ffffffffffffffffffffffffffffffffffffffff1673ffffffffffffffffffffffffffffffffffffffff163373ffffffffffffffffffffffffffffffffffffffff1614611791576040517f08c379a000000000000000000000000000000000000000000000000000000000815260040180806020018281038252600c8152602001807f6f6e6c79206d616e61676572000000000000000000000000000000000000000081525060200191505060405180910390fd5b6117bd7fe84730383f7e358d6eb5424a73f82ebabefe25dbfc6cacd9a33efe47980ed6a060001b610600565b6117e97f1e8080af53826ea93c0834314df776ac304bf425dcb83719abb60873fded05d360001b610600565b6118157ffa543b6f107045bf9c2087163c37dcfab98a23c4a624261978c06a9eca09d75860001b610600565b6118417f82fb810c0be715dc0d93fe45e4b3a95b91e18835f3f3ca0fa8447a053d3902a760001b610600565b61186d7ff819c58381b02ea27fb2e0c25d6dd614b7b856ae0a9cac81bc172816adf45f4660001b610600565b6000600460006101000a81548173ffffffffffffffffffffffffffffffffffffffff021916908373ffffffffffffffffffffffffffffffffffffffff160217905550565b60606118df7f2ed9a800c6e07ab375323e4e1b0434d34b8c38ec279ba4963f47788acfe8c13d60001b610600565b61190b7fd5271b2106a2b6b81360a695af0acfd076f10b58c416fca6fb4c2c4d4a66a94360001b610600565b6119377f6e567f3752e55b17556beeed4082fe27184f8d2629d21114383aa0ea894a70b760001b610600565b60028054806020026020016040519081016040528092919081815260200182805480156119b957602002820191906000526020600020905b8160009054906101000a900473ffffffffffffffffffffffffffffffffffffffff1673ffffffffffffffffffffffffffffffffffffffff168152602001906001019080831161196f575b5050505050905090565b60006119f17fb7631d099694a00ad219758cf924c237e53cf23ca4a9e085b9509716e095fb7260001b610600565b611a1d7f1ac44fbaaf227ab2643b07a1ead07ba59b6efee2e01890ca6c3c8eb663480c5b60001b610600565b611a497f9a3ff978878e4f6fc1f75cc42031941c8b2b821a789f51a48ee1f5a5a295543f60001b610600565b600280549050905090565b611a807ff726fc88418c0a3484479f3aad53d8027d0e2163703da4e11695846a8ecf323960001b610600565b611aac7f684725bd78b70c3fb2cf13b500bfd22c1cd461220ef6c85b59f31f1043c5de1f60001b610600565b611ad87f66ea293273b42d90ad1edbe377e4882daf414bd29b0dcec70a1119a20e4da60760001b610600565b611b047fbba45401a87b3041ecdfeb8ba6cdf9dec1a86b5dc1ad9312274f3d920df5ec4460001b610600565b60008054906101000a900473ffffffffffffffffffffffffffffffffffffffff1673ffffffffffffffffffffffffffffffffffffffff163373ffffffffffffffffffffffffffffffffffffffff1614611bc5576040517f08c379a000000000000000000000000000000000000000000000000000000000815260040180806020018281038252600c8152602001807f6f6e6c79206d616e61676572000000000000000000000000000000000000000081525060200191505060405180910390fd5b611bf17fe84730383f7e358d6eb5424a73f82ebabefe25dbfc6cacd9a33efe47980ed6a060001b610600565b611c1d7f1e8080af53826ea93c0834314df776ac304bf425dcb83719abb60873fded05d360001b610600565b611c497fa9c54cfd6f30dea6afcf1f9dd7f07ffff37728fe01f0e5a40f5096f606a13c7160001b610600565b611c757f0af02d0f2eb7557c62178a54ab63f9dc59095fafde4b296939f7412ba772544860001b610600565b611ca17f2298149c6c1d75e262236031617e1bc7933b0658b5158cf017376769c15bb39b60001b610600565b80600460006101000a81548173ffffffffffffffffffffffffffffffffffffffff021916908373ffffffffffffffffffffffffffffffffffffffff16021790555050565b6000611d137f93bced7c6681af6c6d03eb68ab915229f26fad5feb1af98189749dbeb8a77d6b60001b610600565b611d3f7feb16ffe1c44dd3fa467685a7961c9da0f9967e47a0da90e288000ce0c2de65e760001b610600565b611d6b7f4f088eeed859d895cbfaa9949df5c86833ec2c751d2ed1f39a62549b72574cc160001b610600565b6000600360008473ffffffffffffffffffffffffffffffffffffffff1673ffffffffffffffffffffffffffffffffffffffff1681526020019081526020016000205414159050919050565b611de27ff726fc88418c0a3484479f3aad53d8027d0e2163703da4e11695846a8ecf323960001b610600565b611e0e7f684725bd78b70c3fb2cf13b500bfd22c1cd461220ef6c85b59f31f1043c5de1f60001b610600565b611e3a7f66ea293273b42d90ad1edbe377e4882daf414bd29b0dcec70a1119a20e4da60760001b610600565b611e667fbba45401a87b3041ecdfeb8ba6cdf9dec1a86b5dc1ad9312274f3d920df5ec4460001b610600565b60008054906101000a900473ffffffffffffffffffffffffffffffffffffffff1673ffffffffffffffffffffffffffffffffffffffff163373ffffffffffffffffffffffffffffffffffffffff1614611f27576040517f08c379a000000000000000000000000000000000000000000000000000000000815260040180806020018281038252600c8152602001807f6f6e6c79206d616e61676572000000000000000000000000000000000000000081525060200191505060405180910390fd5b611f537fe84730383f7e358d6eb5424a73f82ebabefe25dbfc6cacd9a33efe47980ed6a060001b610600565b611f7f7f1e8080af53826ea93c0834314df776ac304bf425dcb83719abb60873fded05d360001b610600565b611fab7fca7a2cabde565574087071fe1607587d54e9e4133febff955ce26370d56e3ade60001b610600565b611fd77f4ae3bf1ec5df71fa19b4106be830080cd878ca1570b66601524259dfbf1fd26e60001b610600565b6120037f3838976ed10281aed5556e0ea1a9a9d902617371c45c8baa61360d5bed3477cf60001b610600565b61200c81611ce5565b1561206e5761203d7f9e044fc86a21d5bea6729c5c16aa15fd506f956dfdb708ba65d9e8a7beac4f6f60001b610600565b6120697fd20a97c35c6e3960f640bed6bcf30b3b89d45a7f1e1cd929e6c3af489665defb60001b610600565b6120fc565b61209a7fe05601f46dfa4021edf6bb0b2c9f2cf613f1681fffcc7fb98c6d0c830d769bd360001b610600565b6120c67f34bbbad5e06ddcd395174303e2003f6303d14e382aefe8484f63907b9abe0d7f60001b610600565b6120f27f83b37c54dbaea8c77bfadc63f8f606565b9dc8564774a7e836bab8707586de0860001b610600565b6120fb816126a1565b5b50565b606061212d7fe7ded372597b04070dc23b8073f76f16369afe1ba9bb655212499ca4c89078f060001b610600565b6121597f01ec58831db98f33618ad51b08b94ed3a3a6b0622fcfb23a3be0f3c3909ecf1c60001b610600565b6121857f9cab5560c48acff3bdc66326ea997f6ec4889edc87b772b7ec0867872efa8b0b60001b610600565b60018054600181600116156101000203166002900480601f01602080910402602001604051908101604052809291908181526020018280546001816001161561010002031660029004801561221b5780601f106121f05761010080835404028352916020019161221b565b820191906000526020600020905b8154815290600101906020018083116121fe57829003601f168201915b5050505050905090565b6122517f43d4d67dc7f967cc97563907b86c2519d42dcc126e20c1f02c04390ace2db7d960001b610600565b61227d7f9a33241be8ddde47c507c09ca66ad831c8dff917b40a1657dd3f1f7160faa37a60001b610600565b6122a97fd976149b1269705ae23cacedb5a8a0d8cf214428935148b777fd1e2437b701e560001b610600565b600060028054905090506122df7f0be28d4891fc3d9806bb2f98a38c5ded5aaf8a95e3656f5059d7c3c51cc7161560001b610600565b61230b7f982408f60d6d6df50dc0350c15c812b70faf6b72c73c1f7d4ee3b420355975d260001b610600565b60006123606001600360008673ffffffffffffffffffffffffffffffffffffffff1673ffffffffffffffffffffffffffffffffffffffff1681526020019081526020016000205461282c90919063ffffffff16565b905061238e7fd23a7fca9f4d6905f8ef0768ea2e240a0f20482a65e1a39a997147409e71e54760001b610600565b6123ba7fc12ef148a50437be9c6c3fe2886c3fa010931c5b6d7cdf9403f213763e80a2c260001b610600565b600060026123d260018561282c90919063ffffffff16565b815481106123dc57fe5b9060005260206000200160009054906101000a900473ffffffffffffffffffffffffffffffffffffffff1690506124357f417697173a7e5a834c2b335e9ad87be0f0870d0ce953cde7d1746d7c20393a3660001b610600565b6124617f797aa45c850cf8a13ebf5e0692ce4233c1ca36547a673b9667aa0ef542e6204b60001b610600565b806002838154811061246f57fe5b9060005260206000200160006101000a81548173ffffffffffffffffffffffffffffffffffffffff021916908373ffffffffffffffffffffffffffffffffffffffff1602179055506124e37f904707040d9ebaf87a4ba18a853b7f7bfbfb7cc74efbba90b546b2b527e7d77b60001b610600565b61250f7fa36e670d734c079531017080326060167c11cc6330c00467364d94e3901260d060001b610600565b61252360018361287690919063ffffffff16565b600360008373ffffffffffffffffffffffffffffffffffffffff1673ffffffffffffffffffffffffffffffffffffffff168152602001908152602001600020819055506125927f6cef904dfc8e44bc602f22936344c33e18e8f32de8130f62b6ac3e044feef62360001b610600565b6125be7f148ba67878f02304e3e32d635da24799fb83800211723c864a28b0e14b0e946260001b610600565b6000600360008673ffffffffffffffffffffffffffffffffffffffff1673ffffffffffffffffffffffffffffffffffffffff1681526020019081526020016000208190555061262f7f37cbd5cc2380c7027b945e93e7b84b8577e206e5bca9a39c21c51c2aebbd3f8c60001b610600565b61265b7f4731067e33b609595a4497107bfa3cec3fa3eca7626a916057ddc4b5a31456c560001b610600565b600280548061266657fe5b6001900381819060005260206000200160006101000a81549073ffffffffffffffffffffffffffffffffffffffff0219169055905550505050565b6126cd7f120d4ada38bb5617d62f237f475d91361f9986899c218eb39368b795730a9ad260001b610600565b6126f97ff876760b2cad024af551c4ea79575243fb2b3818ef8518cb46e1dc3035c15f3760001b610600565b6127257f7726f68d522d3254d6528922abd286c5555ff4b7e4f68c51afcd636d246f5abd60001b610600565b6002819080600181540180825580915050600190039060005260206000200160009091909190916101000a81548173ffffffffffffffffffffffffffffffffffffffff021916908373ffffffffffffffffffffffffffffffffffffffff1602179055506127b47fb5d83ba033c4b78376e5d2d9da6133c97d5063d821e0ad0aa5af2f3781cf308560001b610600565b6127e07f89ab2a8e5e1b48c265e8ca3f5097a80099abbe2dbed6e5ffee0f376db28a5d9660001b610600565b600280549050600360008373ffffffffffffffffffffffffffffffffffffffff1673ffffffffffffffffffffffffffffffffffffffff1681526020019081526020016000208190555050565b600061286e83836040518060400160405280601e81526020017f536166654d6174683a207375627472616374696f6e206f766572666c6f7700008152506128fe565b905092915050565b6000808284019050838110156128f4576040517f08c379a000000000000000000000000000000000000000000000000000000000815260040180806020018281038252601b8152602001807f536166654d6174683a206164646974696f6e206f766572666c6f77000000000081525060200191505060405180910390fd5b8091505092915050565b60008383111582906129ab576040517f08c379a00000000000000000000000000000000000000000000000000000000081526004018080602001828103825283818151815260200191508051906020019080838360005b83811015612970578082015181840152602081019050612955565b50505050905090810190601f16801561299d5780820380516001836020036101000a031916815260200191505b509250505060405180910390fd5b5060008385039050809150509392505050565b828054600181600116156101000203166002900490600052602060002090601f016020900481019282601f106129ff57805160ff1916838001178555612a2d565b82800160010185558215612a2d579182015b82811115612a2c578251825591602001919060010190612a11565b5b509050612a3a9190612a3e565b5090565b5b80821115612a57576000816000905550600101612a3f565b509056fea2646970667358221220bb41b130355702dc777b6cdc23d501339229b4ffb8e70dc83a1fa9430613b96164736f6c634300060c0033",
  "linkReferences": {},
  "deployedLinkReferences": {}
}