{
  "_format": "hh-sol-artifact-1",
  "contractName": "Managed-ovm",
  "sourceName": "contracts/Managed.sol",
  "abi": [
    {
      "anonymous": false,
      "inputs": [
        {
          "indexed": false,
          "internalType": "address",
          "name": "newManager",
          "type": "address"
        },
        {
          "indexed": false,
          "internalType": "string",
          "name": "newManagerName",
          "type": "string"
        }
      ],
      "name": "ManagerUpdated",
      "type": "event"
    },
    {
      "inputs": [
        {
          "internalType": "address",
          "name": "member",
          "type": "address"
        }
      ],
      "name": "addMember",
      "outputs": [],
      "stateMutability": "nonpayable",
      "type": "function"
    },
    {
      "inputs": [
        {
          "internalType": "address[]",
          "name": "members",
          "type": "address[]"
        }
      ],
      "name": "addMembers",
      "outputs": [],
      "stateMutability": "nonpayable",
      "type": "function"
    },
    {
      "inputs": [
        {
          "internalType": "bytes32",
          "name": "c__0x8cd9e52a",
          "type": "bytes32"
        }
      ],
      "name": "c_0x8cd9e52a",
      "outputs": [],
      "stateMutability": "pure",
      "type": "function"
    },
    {
      "inputs": [
        {
          "internalType": "address",
          "name": "newManager",
          "type": "address"
        },
        {
          "internalType": "string",
          "name": "newManagerName",
          "type": "string"
        }
      ],
      "name": "changeManager",
      "outputs": [],
      "stateMutability": "nonpayable",
      "type": "function"
    },
    {
      "inputs": [],
      "name": "getMembers",
      "outputs": [
        {
          "internalType": "address[]",
          "name": "",
          "type": "address[]"
        }
      ],
      "stateMutability": "view",
      "type": "function"
    },
    {
      "inputs": [
        {
          "internalType": "address",
          "name": "member",
          "type": "address"
        }
      ],
      "name": "isMemberAllowed",
      "outputs": [
        {
          "internalType": "bool",
          "name": "",
          "type": "bool"
        }
      ],
      "stateMutability": "view",
      "type": "function"
    },
    {
      "inputs": [],
      "name": "manager",
      "outputs": [
        {
          "internalType": "address",
          "name": "",
          "type": "address"
        }
      ],
      "stateMutability": "view",
      "type": "function"
    },
    {
      "inputs": [],
      "name": "managerName",
      "outputs": [
        {
          "internalType": "string",
          "name": "",
          "type": "string"
        }
      ],
      "stateMutability": "view",
      "type": "function"
    },
    {
      "inputs": [],
      "name": "numberOfMembers",
      "outputs": [
        {
          "internalType": "uint256",
          "name": "",
          "type": "uint256"
        }
      ],
      "stateMutability": "view",
      "type": "function"
    },
    {
      "inputs": [
        {
          "internalType": "address",
          "name": "member",
          "type": "address"
        }
      ],
      "name": "removeMember",
      "outputs": [],
      "stateMutability": "nonpayable",
      "type": "function"
    },
    {
      "inputs": [
        {
          "internalType": "address[]",
          "name": "members",
          "type": "address[]"
        }
      ],
      "name": "removeMembers",
      "outputs": [],
      "stateMutability": "nonpayable",
      "type": "function"
    },
    {
      "inputs": [],
      "name": "removeTrader",
      "outputs": [],
      "stateMutability": "nonpayable",
      "type": "function"
    },
    {
      "inputs": [
        {
          "internalType": "address",
          "name": "newTrader",
          "type": "address"
        }
      ],
      "name": "setTrader",
      "outputs": [],
      "stateMutability": "nonpayable",
      "type": "function"
    },
    {
      "inputs": [],
      "name": "trader",
      "outputs": [
        {
          "internalType": "address",
          "name": "",
          "type": "address"
        }
      ],
      "stateMutability": "view",
      "type": "function"
    }
  ],
  "bytecode": "0x60806040523480156200001c576000806200001962000023565b50505b5062000093565b632a2a7adb598160e01b8152600481016020815285602082015260005b868110156200006057808601518160408401015260208101905062000040565b506020828760640184336000905af158600e01573d6000803e3d6000fd5b3d6001141558600a015760016000f35b505050565b612e9080620000a36000396000f3fe608060405234801561001957600080610016612c35565b50505b50600436106100f35760003560e01c80637c8afd5111610095578063a6bc18f91161006f578063a6bc18f91461052b578063bbbf725b14610578578063ca6d56dc146105db578063fed4416a14610628576100f3565b80637c8afd51146104a45780639eab5253146104ae578063a30e3fa91461050d576100f3565b806346ee84b0116100d157806346ee84b0146101b9578063481c6a751461029557806352213663146102c95780636f4d469b146103c8576100f3565b806307f83a5f146101015780630b1ca49a146101385780631758078b14610185575b6000806100fe612c35565b50505b610136600480360360208110156101205760008061011d612c35565b50505b81019080803590602001909291905050506106ab565b005b6101836004803603602081101561015757600080610154612c35565b50505b81019080803573ffffffffffffffffffffffffffffffffffffffff1690602001909291905050506106ae565b005b61018d610a0e565b604051808273ffffffffffffffffffffffffffffffffffffffff16815260200191505060405180910390f35b610293600480360360208110156101d8576000806101d5612c35565b50505b81019080803590602001906401000000008111156101fe576000806101fb612c35565b50505b82018360208201111561021957600080610216612c35565b50505b8035906020019184602083028401116401000000008311171561024457600080610241612c35565b50505b919080806020026020016040519081016040528093929190818152602001838360200280828437600081840152601f19601f820116905080830192505050505050509192919290505050610ac3565b005b61029d610e8f565b604051808273ffffffffffffffffffffffffffffffffffffffff16815260200191505060405180910390f35b6103c6600480360360408110156102e8576000806102e5612c35565b50505b81019080803573ffffffffffffffffffffffffffffffffffffffff1690602001909291908035906020019064010000000081111561032e5760008061032b612c35565b50505b82018360208201111561034957600080610346612c35565b50505b8035906020019184600183028401116401000000008311171561037457600080610371612c35565b50505b91908080601f016020809104026020016040519081016040528093929190818152602001838380828437600081840152601f19601f820116905080830192505050505050509192919290505050610f42565b005b6104a2600480360360208110156103e7576000806103e4612c35565b50505b810190808035906020019064010000000081111561040d5760008061040a612c35565b50505b82018360208201111561042857600080610425612c35565b50505b8035906020019184602083028401116401000000008311171561045357600080610450612c35565b50505b919080806020026020016040519081016040528093929190818152602001838360200280828437600081840152601f19601f82011690508083019250505050505050919291929050505061137c565b005b6104ac611749565b005b6104b6611a02565b6040518080602001828103825283818151815260200191508051906020019060200280838360005b838110156104f95780820151818401526020810190506104de565b505050509050019250505060405180910390f35b610515611b29565b6040518082815260200191505060405180910390f35b6105766004803603602081101561054a57600080610547612c35565b50505b81019080803573ffffffffffffffffffffffffffffffffffffffff169060200190929190505050611bc1565b005b6105c36004803603602081101561059757600080610594612c35565b50505b81019080803573ffffffffffffffffffffffffffffffffffffffff169060200190929190505050611e7a565b60405180821515815260200191505060405180910390f35b610626600480360360208110156105fa576000806105f7612c35565b50505b81019080803573ffffffffffffffffffffffffffffffffffffffff169060200190929190505050611f52565b005b6106306122b3565b6040518080602001828103825283818151815260200191508051906020019080838360005b83811015610670578082015181840152602081019050610655565b50505050905090810190601f16801561069d5780820380516001836020036101000a031916815260200191505b509250505060405180910390f35b50565b6106da7ff726fc88418c0a3484479f3aad53d8027d0e2163703da4e11695846a8ecf323960001b6106ab565b6107067f684725bd78b70c3fb2cf13b500bfd22c1cd461220ef6c85b59f31f1043c5de1f60001b6106ab565b6107327f66ea293273b42d90ad1edbe377e4882daf414bd29b0dcec70a1119a20e4da60760001b6106ab565b61075e7fbba45401a87b3041ecdfeb8ba6cdf9dec1a86b5dc1ad9312274f3d920df5ec4460001b6106ab565b600080610769612ca3565b906101000a900473ffffffffffffffffffffffffffffffffffffffff1673ffffffffffffffffffffffffffffffffffffffff165a6107a5612d06565b73ffffffffffffffffffffffffffffffffffffffff1614610837576040517f08c379a000000000000000000000000000000000000000000000000000000000815260040180806020018281038252600c8152602001807f6f6e6c79206d616e61676572000000000000000000000000000000000000000081525060200191505060405180910390610834612c35565b50505b6108637fe84730383f7e358d6eb5424a73f82ebabefe25dbfc6cacd9a33efe47980ed6a060001b6106ab565b61088f7f1e8080af53826ea93c0834314df776ac304bf425dcb83719abb60873fded05d360001b6106ab565b6108bb7fea1757305949ed706951fb794bd2551514c6efdb2d7679c5d85b078142ffe2b260001b6106ab565b6108e77f1ffc6b134d15c295e5f995b3f82b5a0cb18ad84f314a2d960c81c8d81184722e60001b6106ab565b6109137f3c92deefafc01aaaabda23cc392d833acabe18b8cb00e63048de8ce6998a50d160001b6106ab565b61091c81611e7a565b61097d5761094c7fe426072b40d42570f2a371006c4849244b036fcfab927292797340fc1dfd4f2860001b6106ab565b6109787fa87fcaab10e3f72cae704058c7741c3c14bf2347c4ed9f4cf29e77c38f1fd7ec60001b6106ab565b610a0b565b6109a97fb95ad00e9df5485a45b440c3dbdda7a5c12dc7d5b9a67813420d09bea2d0d5e360001b6106ab565b6109d57fd6dd051f93c0416ce28a333b5248bf159f01391c2d334ad25964076d30e5c14f60001b6106ab565b610a017fb71ec9708481e1cb8db1808117b3292284c7507d570cf24576d2cc1110d10c0760001b6106ab565b610a0a816123f5565b5b50565b6000610a3c7f3aca4bfed5bca6bb4a7952d9916be14f80d41a88cb22b235f78122ad6e4440d360001b6106ab565b610a687f0d2afb8ca427495817d996651401041f2a8ab28d5256db0743a91af8ea8627ed60001b6106ab565b610a947f6d976131b13215f2dcfb2c190b142557b0a055ae766dec008e5ce2e06a5903fc60001b6106ab565b6004600090610aa1612ca3565b906101000a900473ffffffffffffffffffffffffffffffffffffffff16905090565b610aef7ff726fc88418c0a3484479f3aad53d8027d0e2163703da4e11695846a8ecf323960001b6106ab565b610b1b7f684725bd78b70c3fb2cf13b500bfd22c1cd461220ef6c85b59f31f1043c5de1f60001b6106ab565b610b477f66ea293273b42d90ad1edbe377e4882daf414bd29b0dcec70a1119a20e4da60760001b6106ab565b610b737fbba45401a87b3041ecdfeb8ba6cdf9dec1a86b5dc1ad9312274f3d920df5ec4460001b6106ab565b600080610b7e612ca3565b906101000a900473ffffffffffffffffffffffffffffffffffffffff1673ffffffffffffffffffffffffffffffffffffffff165a610bba612d06565b73ffffffffffffffffffffffffffffffffffffffff1614610c4c576040517f08c379a000000000000000000000000000000000000000000000000000000000815260040180806020018281038252600c8152602001807f6f6e6c79206d616e61676572000000000000000000000000000000000000000081525060200191505060405180910390610c49612c35565b50505b610c787fe84730383f7e358d6eb5424a73f82ebabefe25dbfc6cacd9a33efe47980ed6a060001b6106ab565b610ca47f1e8080af53826ea93c0834314df776ac304bf425dcb83719abb60873fded05d360001b6106ab565b610cd07fc6d07b0e83c40b72565fd3474fca46c407f6de8c82037d955827819ab972195260001b6106ab565b610cfc7f26769fe5ebee2b76e34a63895ab43d409672ad60d9b2755c7de02300820208ed60001b6106ab565b610d287f4d8cfa7afb76b08a12448582f35c146769f30bdd1d5db7c143c2befb31bca2a660001b6106ab565b60005b8151811015610e8b57610d607f7ea9cc9b523311f807b540bd8e9e396ae855b639cde9a015207f324636c69fe160001b6106ab565b610d8c7f01617bcb9958929a8467a5175123be7b9691af9514194a67b05c29563283893d60001b6106ab565b610da8828281518110610d9b57fe5b6020026020010151611e7a565b610ddd57610dd87f82c7c45be74131f8e447c732657e121e77b9532aa09134f13eb7470fd7501e4f60001b6106ab565b610e7e565b610e097f89a08829e0370111a9a3a659be41f5857cf43cfbb23e711c5855b4c7da2fe67860001b6106ab565b610e357fad00ecdc0b3b8746773d999187984e71c22bff6ec0a2c10dfe65f023ddb95e0b60001b6106ab565b610e617fbc65408770e0bc90d5f74397619a31b62c42c12ae3d25d3cfdaaf6a116352a0060001b6106ab565b610e7d828281518110610e7057fe5b60200260200101516123f5565b5b8080600101915050610d2b565b5050565b6000610ebd7fde4bef5b1a10104dfb102cbba245db1187511edcfe701d03a84f93e19528fd5760001b6106ab565b610ee97f9a03cddc5c815574fd1412424527aa1728a2f941a016da83fbe4746b459c0bcc60001b6106ab565b610f157f652db2c58b82533a98d3829c46f05f55a14d070a33fbdb20e662bb3c22e8649360001b6106ab565b600080610f20612ca3565b906101000a900473ffffffffffffffffffffffffffffffffffffffff16905090565b610f6e7ff726fc88418c0a3484479f3aad53d8027d0e2163703da4e11695846a8ecf323960001b6106ab565b610f9a7f684725bd78b70c3fb2cf13b500bfd22c1cd461220ef6c85b59f31f1043c5de1f60001b6106ab565b610fc67f66ea293273b42d90ad1edbe377e4882daf414bd29b0dcec70a1119a20e4da60760001b6106ab565b610ff27fbba45401a87b3041ecdfeb8ba6cdf9dec1a86b5dc1ad9312274f3d920df5ec4460001b6106ab565b600080610ffd612ca3565b906101000a900473ffffffffffffffffffffffffffffffffffffffff1673ffffffffffffffffffffffffffffffffffffffff165a611039612d06565b73ffffffffffffffffffffffffffffffffffffffff16146110cb576040517f08c379a000000000000000000000000000000000000000000000000000000000815260040180806020018281038252600c8152602001807f6f6e6c79206d616e616765720000000000000000000000000000000000000000815250602001915050604051809103906110c8612c35565b50505b6110f77fe84730383f7e358d6eb5424a73f82ebabefe25dbfc6cacd9a33efe47980ed6a060001b6106ab565b6111237f1e8080af53826ea93c0834314df776ac304bf425dcb83719abb60873fded05d360001b6106ab565b61114f7f05ee09d98595e06fc5a4608c638f04358e61e9d181a59179d2f93069b2117fac60001b6106ab565b61117b7fb4833cbd64d89313613117a4fc34fce0f62e7bfd670ee93da9aba1ee1ee4586d60001b6106ab565b6111a77f2d88291758d54b6773dec5516b3661c137bfc881a2a9608292cbf832b3260c2860001b6106ab565b816000806101000a816111b8612ca3565b8173ffffffffffffffffffffffffffffffffffffffff021916908373ffffffffffffffffffffffffffffffffffffffff160217906111f4612d63565b5050506112237f774972c16bfebd604693d0392cbf1007b58033d47e3ff75ae5d03fcf1a073fef60001b6106ab565b61124f7f1697602808093fbbac294b5c863fdb742a5d480c4016c073e99d70b9e999ce0460001b6106ab565b8060019080519060200190611265929190612dc8565b506112927fc5759183963137b34820ce6561b6912e6acd940bcfc29dc1306bf55a68e8b3cb60001b6106ab565b6112be7f37ecb20db872e47571ee95480fabf4fb5cef32145934449f070cea721eeb698660001b6106ab565b7f6ed15082ad038474841528b5badca105106d4463e44b5d434130dfb299aa36698282604051808373ffffffffffffffffffffffffffffffffffffffff16815260200180602001828103825283818151815260200191508051906020019080838360005b8381101561133d578082015181840152602081019050611322565b50505050905090810190601f16801561136a5780820380516001836020036101000a031916815260200191505b50935050505060405180910390a15050565b6113a87ff726fc88418c0a3484479f3aad53d8027d0e2163703da4e11695846a8ecf323960001b6106ab565b6113d47f684725bd78b70c3fb2cf13b500bfd22c1cd461220ef6c85b59f31f1043c5de1f60001b6106ab565b6114007f66ea293273b42d90ad1edbe377e4882daf414bd29b0dcec70a1119a20e4da60760001b6106ab565b61142c7fbba45401a87b3041ecdfeb8ba6cdf9dec1a86b5dc1ad9312274f3d920df5ec4460001b6106ab565b600080611437612ca3565b906101000a900473ffffffffffffffffffffffffffffffffffffffff1673ffffffffffffffffffffffffffffffffffffffff165a611473612d06565b73ffffffffffffffffffffffffffffffffffffffff1614611505576040517f08c379a000000000000000000000000000000000000000000000000000000000815260040180806020018281038252600c8152602001807f6f6e6c79206d616e61676572000000000000000000000000000000000000000081525060200191505060405180910390611502612c35565b50505b6115317fe84730383f7e358d6eb5424a73f82ebabefe25dbfc6cacd9a33efe47980ed6a060001b6106ab565b61155d7f1e8080af53826ea93c0834314df776ac304bf425dcb83719abb60873fded05d360001b6106ab565b6115897fca3b0b6a8f0568d214a013263a65c9483dba7aa815bd0585a82fcb6e01b44e4260001b6106ab565b6115b57f32a3f81f40bb087c7fd38d5dcb5c29f487af7b6230e95b2acd83a8141b6ef76160001b6106ab565b6115e17f9f1a6c81fd7ccf33f78b471b0320d8b00b85dda096a45429cf89835a066ff67d60001b6106ab565b60005b8151811015611745576116197f7ae0a1ae04f92781454c373617fd96d4c9ab5fb9828a61d367bf00640648c33460001b6106ab565b6116457f8dfa20da60ba28b5cf6e6b094b34a50c8c27b4e1efa56d9a9013613e395b454c60001b6106ab565b61166182828151811061165457fe5b6020026020010151611e7a565b15611697576116927f1bce9586341e7e0f103cc61df037ac5c651216e8a53aebe2b8316b0dfe13a21560001b6106ab565b611738565b6116c37fa87f7eb0f11b25a4f28d761815fd69c2ac6e783657f1be3d8a92a6c8e7691e3060001b6106ab565b6116ef7ffe1fe1a4bae1838cbdef812094bc9bf6a37b3a1b68cd54d8dc58310eec925add60001b6106ab565b61171b7ff9c6e6aeebb90b2fd8d734adf26bebb0b4a46cfb0a98ed5d1c527b059e5cf19660001b6106ab565b61173782828151811061172a57fe5b60200260200101516128d6565b5b80806001019150506115e4565b5050565b6117757ff726fc88418c0a3484479f3aad53d8027d0e2163703da4e11695846a8ecf323960001b6106ab565b6117a17f684725bd78b70c3fb2cf13b500bfd22c1cd461220ef6c85b59f31f1043c5de1f60001b6106ab565b6117cd7f66ea293273b42d90ad1edbe377e4882daf414bd29b0dcec70a1119a20e4da60760001b6106ab565b6117f97fbba45401a87b3041ecdfeb8ba6cdf9dec1a86b5dc1ad9312274f3d920df5ec4460001b6106ab565b600080611804612ca3565b906101000a900473ffffffffffffffffffffffffffffffffffffffff1673ffffffffffffffffffffffffffffffffffffffff165a611840612d06565b73ffffffffffffffffffffffffffffffffffffffff16146118d2576040517f08c379a000000000000000000000000000000000000000000000000000000000815260040180806020018281038252600c8152602001807f6f6e6c79206d616e616765720000000000000000000000000000000000000000815250602001915050604051809103906118cf612c35565b50505b6118fe7fe84730383f7e358d6eb5424a73f82ebabefe25dbfc6cacd9a33efe47980ed6a060001b6106ab565b61192a7f1e8080af53826ea93c0834314df776ac304bf425dcb83719abb60873fded05d360001b6106ab565b6119567ffa543b6f107045bf9c2087163c37dcfab98a23c4a624261978c06a9eca09d75860001b6106ab565b6119827f82fb810c0be715dc0d93fe45e4b3a95b91e18835f3f3ca0fa8447a053d3902a760001b6106ab565b6119ae7ff819c58381b02ea27fb2e0c25d6dd614b7b856ae0a9cac81bc172816adf45f4660001b6106ab565b6000600460006101000a816119c1612ca3565b8173ffffffffffffffffffffffffffffffffffffffff021916908373ffffffffffffffffffffffffffffffffffffffff160217906119fd612d63565b505050565b6060611a307f2ed9a800c6e07ab375323e4e1b0434d34b8c38ec279ba4963f47788acfe8c13d60001b6106ab565b611a5c7fd5271b2106a2b6b81360a695af0acfd076f10b58c416fca6fb4c2c4d4a66a94360001b6106ab565b611a887f6e567f3752e55b17556beeed4082fe27184f8d2629d21114383aa0ea894a70b760001b6106ab565b600280611a93612ca3565b80602002602001604051908101604052809291908181526020018280611ab7612ca3565b8015611b1f57602002820191906000526020600020905b81600090611ada612ca3565b906101000a900473ffffffffffffffffffffffffffffffffffffffff1673ffffffffffffffffffffffffffffffffffffffff1681526020019060010190808311611ace575b5050505050905090565b6000611b577fb7631d099694a00ad219758cf924c237e53cf23ca4a9e085b9509716e095fb7260001b6106ab565b611b837f1ac44fbaaf227ab2643b07a1ead07ba59b6efee2e01890ca6c3c8eb663480c5b60001b6106ab565b611baf7f9a3ff978878e4f6fc1f75cc42031941c8b2b821a789f51a48ee1f5a5a295543f60001b6106ab565b600280611bba612ca3565b9050905090565b611bed7ff726fc88418c0a3484479f3aad53d8027d0e2163703da4e11695846a8ecf323960001b6106ab565b611c197f684725bd78b70c3fb2cf13b500bfd22c1cd461220ef6c85b59f31f1043c5de1f60001b6106ab565b611c457f66ea293273b42d90ad1edbe377e4882daf414bd29b0dcec70a1119a20e4da60760001b6106ab565b611c717fbba45401a87b3041ecdfeb8ba6cdf9dec1a86b5dc1ad9312274f3d920df5ec4460001b6106ab565b600080611c7c612ca3565b906101000a900473ffffffffffffffffffffffffffffffffffffffff1673ffffffffffffffffffffffffffffffffffffffff165a611cb8612d06565b73ffffffffffffffffffffffffffffffffffffffff1614611d4a576040517f08c379a000000000000000000000000000000000000000000000000000000000815260040180806020018281038252600c8152602001807f6f6e6c79206d616e61676572000000000000000000000000000000000000000081525060200191505060405180910390611d47612c35565b50505b611d767fe84730383f7e358d6eb5424a73f82ebabefe25dbfc6cacd9a33efe47980ed6a060001b6106ab565b611da27f1e8080af53826ea93c0834314df776ac304bf425dcb83719abb60873fded05d360001b6106ab565b611dce7fa9c54cfd6f30dea6afcf1f9dd7f07ffff37728fe01f0e5a40f5096f606a13c7160001b6106ab565b611dfa7f0af02d0f2eb7557c62178a54ab63f9dc59095fafde4b296939f7412ba772544860001b6106ab565b611e267f2298149c6c1d75e262236031617e1bc7933b0658b5158cf017376769c15bb39b60001b6106ab565b80600460006101000a81611e38612ca3565b8173ffffffffffffffffffffffffffffffffffffffff021916908373ffffffffffffffffffffffffffffffffffffffff16021790611e74612d63565b50505050565b6000611ea87f93bced7c6681af6c6d03eb68ab915229f26fad5feb1af98189749dbeb8a77d6b60001b6106ab565b611ed47feb16ffe1c44dd3fa467685a7961c9da0f9967e47a0da90e288000ce0c2de65e760001b6106ab565b611f007f4f088eeed859d895cbfaa9949df5c86833ec2c751d2ed1f39a62549b72574cc160001b6106ab565b6000600360008473ffffffffffffffffffffffffffffffffffffffff1673ffffffffffffffffffffffffffffffffffffffff168152602001908152602001600020611f49612ca3565b14159050919050565b611f7e7ff726fc88418c0a3484479f3aad53d8027d0e2163703da4e11695846a8ecf323960001b6106ab565b611faa7f684725bd78b70c3fb2cf13b500bfd22c1cd461220ef6c85b59f31f1043c5de1f60001b6106ab565b611fd67f66ea293273b42d90ad1edbe377e4882daf414bd29b0dcec70a1119a20e4da60760001b6106ab565b6120027fbba45401a87b3041ecdfeb8ba6cdf9dec1a86b5dc1ad9312274f3d920df5ec4460001b6106ab565b60008061200d612ca3565b906101000a900473ffffffffffffffffffffffffffffffffffffffff1673ffffffffffffffffffffffffffffffffffffffff165a612049612d06565b73ffffffffffffffffffffffffffffffffffffffff16146120db576040517f08c379a000000000000000000000000000000000000000000000000000000000815260040180806020018281038252600c8152602001807f6f6e6c79206d616e616765720000000000000000000000000000000000000000815250602001915050604051809103906120d8612c35565b50505b6121077fe84730383f7e358d6eb5424a73f82ebabefe25dbfc6cacd9a33efe47980ed6a060001b6106ab565b6121337f1e8080af53826ea93c0834314df776ac304bf425dcb83719abb60873fded05d360001b6106ab565b61215f7fca7a2cabde565574087071fe1607587d54e9e4133febff955ce26370d56e3ade60001b6106ab565b61218b7f4ae3bf1ec5df71fa19b4106be830080cd878ca1570b66601524259dfbf1fd26e60001b6106ab565b6121b77f3838976ed10281aed5556e0ea1a9a9d902617371c45c8baa61360d5bed3477cf60001b6106ab565b6121c081611e7a565b15612222576121f17f9e044fc86a21d5bea6729c5c16aa15fd506f956dfdb708ba65d9e8a7beac4f6f60001b6106ab565b61221d7fd20a97c35c6e3960f640bed6bcf30b3b89d45a7f1e1cd929e6c3af489665defb60001b6106ab565b6122b0565b61224e7fe05601f46dfa4021edf6bb0b2c9f2cf613f1681fffcc7fb98c6d0c830d769bd360001b6106ab565b61227a7f34bbbad5e06ddcd395174303e2003f6303d14e382aefe8484f63907b9abe0d7f60001b6106ab565b6122a67f83b37c54dbaea8c77bfadc63f8f606565b9dc8564774a7e836bab8707586de0860001b6106ab565b6122af816128d6565b5b50565b60606122e17fe7ded372597b04070dc23b8073f76f16369afe1ba9bb655212499ca4c89078f060001b6106ab565b61230d7f01ec58831db98f33618ad51b08b94ed3a3a6b0622fcfb23a3be0f3c3909ecf1c60001b6106ab565b6123397f9cab5560c48acff3bdc66326ea997f6ec4889edc87b772b7ec0867872efa8b0b60001b6106ab565b600180612344612ca3565b600181600116156101000203166002900480601f0160208091040260200160405190810160405280929190818152602001828061237f612ca3565b600181600116156101000203166002900480156123eb5780601f106123b95761010080836123ab612ca3565b0402835291602001916123eb565b820191906000526020600020905b816123d0612ca3565b815290600101906020018083116123c757829003601f168201915b5050505050905090565b6124217f43d4d67dc7f967cc97563907b86c2519d42dcc126e20c1f02c04390ace2db7d960001b6106ab565b61244d7f9a33241be8ddde47c507c09ca66ad831c8dff917b40a1657dd3f1f7160faa37a60001b6106ab565b6124797fd976149b1269705ae23cacedb5a8a0d8cf214428935148b777fd1e2437b701e560001b6106ab565b6000600280612486612ca3565b905090506124b67f0be28d4891fc3d9806bb2f98a38c5ded5aaf8a95e3656f5059d7c3c51cc7161560001b6106ab565b6124e27f982408f60d6d6df50dc0350c15c812b70faf6b72c73c1f7d4ee3b420355975d260001b6106ab565b600061253e6001600360008673ffffffffffffffffffffffffffffffffffffffff1673ffffffffffffffffffffffffffffffffffffffff168152602001908152602001600020612530612ca3565b612a9190919063ffffffff16565b905061256c7fd23a7fca9f4d6905f8ef0768ea2e240a0f20482a65e1a39a997147409e71e54760001b6106ab565b6125987fc12ef148a50437be9c6c3fe2886c3fa010931c5b6d7cdf9403f213763e80a2c260001b6106ab565b600060026125b0600185612a9190919063ffffffff16565b816125b9612ca3565b81106125c157fe5b906000526020600020016000906125d6612ca3565b906101000a900473ffffffffffffffffffffffffffffffffffffffff1690506126217f417697173a7e5a834c2b335e9ad87be0f0870d0ce953cde7d1746d7c20393a3660001b6106ab565b61264d7f797aa45c850cf8a13ebf5e0692ce4233c1ca36547a673b9667aa0ef542e6204b60001b6106ab565b806002838161265a612ca3565b811061266257fe5b9060005260206000200160006101000a8161267b612ca3565b8173ffffffffffffffffffffffffffffffffffffffff021916908373ffffffffffffffffffffffffffffffffffffffff160217906126b7612d63565b5050506126e67f904707040d9ebaf87a4ba18a853b7f7bfbfb7cc74efbba90b546b2b527e7d77b60001b6106ab565b6127127fa36e670d734c079531017080326060167c11cc6330c00467364d94e3901260d060001b6106ab565b612726600183612adb90919063ffffffff16565b600360008373ffffffffffffffffffffffffffffffffffffffff1673ffffffffffffffffffffffffffffffffffffffff168152602001908152602001600020819061276f612d63565b50505061279e7f6cef904dfc8e44bc602f22936344c33e18e8f32de8130f62b6ac3e044feef62360001b6106ab565b6127ca7f148ba67878f02304e3e32d635da24799fb83800211723c864a28b0e14b0e946260001b6106ab565b6000600360008673ffffffffffffffffffffffffffffffffffffffff1673ffffffffffffffffffffffffffffffffffffffff1681526020019081526020016000208190612815612d63565b5050506128447f37cbd5cc2380c7027b945e93e7b84b8577e206e5bca9a39c21c51c2aebbd3f8c60001b6106ab565b6128707f4731067e33b609595a4497107bfa3cec3fa3eca7626a916057ddc4b5a31456c560001b6106ab565b60028061287b612ca3565b8061288257fe5b6001900381819060005260206000200160006101000a816128a1612ca3565b9073ffffffffffffffffffffffffffffffffffffffff021916906128c3612d63565b5050906128ce612d63565b505050505050565b6129027f120d4ada38bb5617d62f237f475d91361f9986899c218eb39368b795730a9ad260001b6106ab565b61292e7ff876760b2cad024af551c4ea79575243fb2b3818ef8518cb46e1dc3035c15f3760001b6106ab565b61295a7f7726f68d522d3254d6528922abd286c5555ff4b7e4f68c51afcd636d246f5abd60001b6106ab565b600281908060018161296a612ca3565b018082612975612d63565b505080915050600190039060005260206000200160009091909190916101000a8161299e612ca3565b8173ffffffffffffffffffffffffffffffffffffffff021916908373ffffffffffffffffffffffffffffffffffffffff160217906129da612d63565b505050612a097fb5d83ba033c4b78376e5d2d9da6133c97d5063d821e0ad0aa5af2f3781cf308560001b6106ab565b612a357f89ab2a8e5e1b48c265e8ca3f5097a80099abbe2dbed6e5ffee0f376db28a5d9660001b6106ab565b600280612a40612ca3565b9050600360008373ffffffffffffffffffffffffffffffffffffffff1673ffffffffffffffffffffffffffffffffffffffff1681526020019081526020016000208190612a8b612d63565b50505050565b6000612ad383836040518060400160405280601e81526020017f536166654d6174683a207375627472616374696f6e206f766572666c6f770000815250612b6c565b905092915050565b600080828401905083811015612b62576040517f08c379a000000000000000000000000000000000000000000000000000000000815260040180806020018281038252601b8152602001807f536166654d6174683a206164646974696f6e206f766572666c6f77000000000081525060200191505060405180910390612b5f612c35565b50505b8091505092915050565b6000838311158290612c22576040517f08c379a00000000000000000000000000000000000000000000000000000000081526004018080602001828103825283818151815260200191508051906020019080838360005b83811015612bde578082015181840152602081019050612bc3565b50505050905090810190601f168015612c0b5780820380516001836020036101000a031916815260200191505b509250505060405180910390612c1f612c35565b50505b5060008385039050809150509392505050565b632a2a7adb598160e01b8152600481016020815285602082015260005b86811015612c70578086015181604084010152602081019050612c52565b506020828760640184336000905af158600e01573d6000803e3d6000fd5b3d6001141558600a015760016000f35b505050565b6303daa959598160e01b8152836004820152602081602483336000905af158600e01573d6000803e3d6000fd5b3d6001141558600a015760016000f35b8051935060005b6040811015612d0157600081830152602081019050612ce7565b505050565b6373509064598160e01b8152602081600483336000905af158600e01573d6000803e3d6000fd5b3d6001141558600a015760016000f35b8051935060005b6040811015612d5e57600081830152602081019050612d44565b505050565b6322bd64c0598160e01b8152836004820152846024820152600081604483336000905af158600e01573d6000803e3d6000fd5b3d6001141558600a015760016000f35b60005b6040811015612dc357600081830152602081019050612da9565b505050565b8280612dd2612ca3565b600181600116156101000203166002900490600052602060002090601f016020900481019282601f10612e1957805160ff19168380011785612e12612d63565b5050612e59565b82800160010185612e28612d63565b50508215612e59579182015b82811115612e5857825182612e47612d63565b505091602001919060010190612e34565b5b509050612e669190612e6a565b5090565b5b80821115612e8c57600081600090612e81612d63565b505050600101612e6b565b509056",
  "deployedBytecode": "0x608060405234801561001957600080610016612c35565b50505b50600436106100f35760003560e01c80637c8afd5111610095578063a6bc18f91161006f578063a6bc18f91461052b578063bbbf725b14610578578063ca6d56dc146105db578063fed4416a14610628576100f3565b80637c8afd51146104a45780639eab5253146104ae578063a30e3fa91461050d576100f3565b806346ee84b0116100d157806346ee84b0146101b9578063481c6a751461029557806352213663146102c95780636f4d469b146103c8576100f3565b806307f83a5f146101015780630b1ca49a146101385780631758078b14610185575b6000806100fe612c35565b50505b610136600480360360208110156101205760008061011d612c35565b50505b81019080803590602001909291905050506106ab565b005b6101836004803603602081101561015757600080610154612c35565b50505b81019080803573ffffffffffffffffffffffffffffffffffffffff1690602001909291905050506106ae565b005b61018d610a0e565b604051808273ffffffffffffffffffffffffffffffffffffffff16815260200191505060405180910390f35b610293600480360360208110156101d8576000806101d5612c35565b50505b81019080803590602001906401000000008111156101fe576000806101fb612c35565b50505b82018360208201111561021957600080610216612c35565b50505b8035906020019184602083028401116401000000008311171561024457600080610241612c35565b50505b919080806020026020016040519081016040528093929190818152602001838360200280828437600081840152601f19601f820116905080830192505050505050509192919290505050610ac3565b005b61029d610e8f565b604051808273ffffffffffffffffffffffffffffffffffffffff16815260200191505060405180910390f35b6103c6600480360360408110156102e8576000806102e5612c35565b50505b81019080803573ffffffffffffffffffffffffffffffffffffffff1690602001909291908035906020019064010000000081111561032e5760008061032b612c35565b50505b82018360208201111561034957600080610346612c35565b50505b8035906020019184600183028401116401000000008311171561037457600080610371612c35565b50505b91908080601f016020809104026020016040519081016040528093929190818152602001838380828437600081840152601f19601f820116905080830192505050505050509192919290505050610f42565b005b6104a2600480360360208110156103e7576000806103e4612c35565b50505b810190808035906020019064010000000081111561040d5760008061040a612c35565b50505b82018360208201111561042857600080610425612c35565b50505b8035906020019184602083028401116401000000008311171561045357600080610450612c35565b50505b919080806020026020016040519081016040528093929190818152602001838360200280828437600081840152601f19601f82011690508083019250505050505050919291929050505061137c565b005b6104ac611749565b005b6104b6611a02565b6040518080602001828103825283818151815260200191508051906020019060200280838360005b838110156104f95780820151818401526020810190506104de565b505050509050019250505060405180910390f35b610515611b29565b6040518082815260200191505060405180910390f35b6105766004803603602081101561054a57600080610547612c35565b50505b81019080803573ffffffffffffffffffffffffffffffffffffffff169060200190929190505050611bc1565b005b6105c36004803603602081101561059757600080610594612c35565b50505b81019080803573ffffffffffffffffffffffffffffffffffffffff169060200190929190505050611e7a565b60405180821515815260200191505060405180910390f35b610626600480360360208110156105fa576000806105f7612c35565b50505b81019080803573ffffffffffffffffffffffffffffffffffffffff169060200190929190505050611f52565b005b6106306122b3565b6040518080602001828103825283818151815260200191508051906020019080838360005b83811015610670578082015181840152602081019050610655565b50505050905090810190601f16801561069d5780820380516001836020036101000a031916815260200191505b509250505060405180910390f35b50565b6106da7ff726fc88418c0a3484479f3aad53d8027d0e2163703da4e11695846a8ecf323960001b6106ab565b6107067f684725bd78b70c3fb2cf13b500bfd22c1cd461220ef6c85b59f31f1043c5de1f60001b6106ab565b6107327f66ea293273b42d90ad1edbe377e4882daf414bd29b0dcec70a1119a20e4da60760001b6106ab565b61075e7fbba45401a87b3041ecdfeb8ba6cdf9dec1a86b5dc1ad9312274f3d920df5ec4460001b6106ab565b600080610769612ca3565b906101000a900473ffffffffffffffffffffffffffffffffffffffff1673ffffffffffffffffffffffffffffffffffffffff165a6107a5612d06565b73ffffffffffffffffffffffffffffffffffffffff1614610837576040517f08c379a000000000000000000000000000000000000000000000000000000000815260040180806020018281038252600c8152602001807f6f6e6c79206d616e61676572000000000000000000000000000000000000000081525060200191505060405180910390610834612c35565b50505b6108637fe84730383f7e358d6eb5424a73f82ebabefe25dbfc6cacd9a33efe47980ed6a060001b6106ab565b61088f7f1e8080af53826ea93c0834314df776ac304bf425dcb83719abb60873fded05d360001b6106ab565b6108bb7fea1757305949ed706951fb794bd2551514c6efdb2d7679c5d85b078142ffe2b260001b6106ab565b6108e77f1ffc6b134d15c295e5f995b3f82b5a0cb18ad84f314a2d960c81c8d81184722e60001b6106ab565b6109137f3c92deefafc01aaaabda23cc392d833acabe18b8cb00e63048de8ce6998a50d160001b6106ab565b61091c81611e7a565b61097d5761094c7fe426072b40d42570f2a371006c4849244b036fcfab927292797340fc1dfd4f2860001b6106ab565b6109787fa87fcaab10e3f72cae704058c7741c3c14bf2347c4ed9f4cf29e77c38f1fd7ec60001b6106ab565b610a0b565b6109a97fb95ad00e9df5485a45b440c3dbdda7a5c12dc7d5b9a67813420d09bea2d0d5e360001b6106ab565b6109d57fd6dd051f93c0416ce28a333b5248bf159f01391c2d334ad25964076d30e5c14f60001b6106ab565b610a017fb71ec9708481e1cb8db1808117b3292284c7507d570cf24576d2cc1110d10c0760001b6106ab565b610a0a816123f5565b5b50565b6000610a3c7f3aca4bfed5bca6bb4a7952d9916be14f80d41a88cb22b235f78122ad6e4440d360001b6106ab565b610a687f0d2afb8ca427495817d996651401041f2a8ab28d5256db0743a91af8ea8627ed60001b6106ab565b610a947f6d976131b13215f2dcfb2c190b142557b0a055ae766dec008e5ce2e06a5903fc60001b6106ab565b6004600090610aa1612ca3565b906101000a900473ffffffffffffffffffffffffffffffffffffffff16905090565b610aef7ff726fc88418c0a3484479f3aad53d8027d0e2163703da4e11695846a8ecf323960001b6106ab565b610b1b7f684725bd78b70c3fb2cf13b500bfd22c1cd461220ef6c85b59f31f1043c5de1f60001b6106ab565b610b477f66ea293273b42d90ad1edbe377e4882daf414bd29b0dcec70a1119a20e4da60760001b6106ab565b610b737fbba45401a87b3041ecdfeb8ba6cdf9dec1a86b5dc1ad9312274f3d920df5ec4460001b6106ab565b600080610b7e612ca3565b906101000a900473ffffffffffffffffffffffffffffffffffffffff1673ffffffffffffffffffffffffffffffffffffffff165a610bba612d06565b73ffffffffffffffffffffffffffffffffffffffff1614610c4c576040517f08c379a000000000000000000000000000000000000000000000000000000000815260040180806020018281038252600c8152602001807f6f6e6c79206d616e61676572000000000000000000000000000000000000000081525060200191505060405180910390610c49612c35565b50505b610c787fe84730383f7e358d6eb5424a73f82ebabefe25dbfc6cacd9a33efe47980ed6a060001b6106ab565b610ca47f1e8080af53826ea93c0834314df776ac304bf425dcb83719abb60873fded05d360001b6106ab565b610cd07fc6d07b0e83c40b72565fd3474fca46c407f6de8c82037d955827819ab972195260001b6106ab565b610cfc7f26769fe5ebee2b76e34a63895ab43d409672ad60d9b2755c7de02300820208ed60001b6106ab565b610d287f4d8cfa7afb76b08a12448582f35c146769f30bdd1d5db7c143c2befb31bca2a660001b6106ab565b60005b8151811015610e8b57610d607f7ea9cc9b523311f807b540bd8e9e396ae855b639cde9a015207f324636c69fe160001b6106ab565b610d8c7f01617bcb9958929a8467a5175123be7b9691af9514194a67b05c29563283893d60001b6106ab565b610da8828281518110610d9b57fe5b6020026020010151611e7a565b610ddd57610dd87f82c7c45be74131f8e447c732657e121e77b9532aa09134f13eb7470fd7501e4f60001b6106ab565b610e7e565b610e097f89a08829e0370111a9a3a659be41f5857cf43cfbb23e711c5855b4c7da2fe67860001b6106ab565b610e357fad00ecdc0b3b8746773d999187984e71c22bff6ec0a2c10dfe65f023ddb95e0b60001b6106ab565b610e617fbc65408770e0bc90d5f74397619a31b62c42c12ae3d25d3cfdaaf6a116352a0060001b6106ab565b610e7d828281518110610e7057fe5b60200260200101516123f5565b5b8080600101915050610d2b565b5050565b6000610ebd7fde4bef5b1a10104dfb102cbba245db1187511edcfe701d03a84f93e19528fd5760001b6106ab565b610ee97f9a03cddc5c815574fd1412424527aa1728a2f941a016da83fbe4746b459c0bcc60001b6106ab565b610f157f652db2c58b82533a98d3829c46f05f55a14d070a33fbdb20e662bb3c22e8649360001b6106ab565b600080610f20612ca3565b906101000a900473ffffffffffffffffffffffffffffffffffffffff16905090565b610f6e7ff726fc88418c0a3484479f3aad53d8027d0e2163703da4e11695846a8ecf323960001b6106ab565b610f9a7f684725bd78b70c3fb2cf13b500bfd22c1cd461220ef6c85b59f31f1043c5de1f60001b6106ab565b610fc67f66ea293273b42d90ad1edbe377e4882daf414bd29b0dcec70a1119a20e4da60760001b6106ab565b610ff27fbba45401a87b3041ecdfeb8ba6cdf9dec1a86b5dc1ad9312274f3d920df5ec4460001b6106ab565b600080610ffd612ca3565b906101000a900473ffffffffffffffffffffffffffffffffffffffff1673ffffffffffffffffffffffffffffffffffffffff165a611039612d06565b73ffffffffffffffffffffffffffffffffffffffff16146110cb576040517f08c379a000000000000000000000000000000000000000000000000000000000815260040180806020018281038252600c8152602001807f6f6e6c79206d616e616765720000000000000000000000000000000000000000815250602001915050604051809103906110c8612c35565b50505b6110f77fe84730383f7e358d6eb5424a73f82ebabefe25dbfc6cacd9a33efe47980ed6a060001b6106ab565b6111237f1e8080af53826ea93c0834314df776ac304bf425dcb83719abb60873fded05d360001b6106ab565b61114f7f05ee09d98595e06fc5a4608c638f04358e61e9d181a59179d2f93069b2117fac60001b6106ab565b61117b7fb4833cbd64d89313613117a4fc34fce0f62e7bfd670ee93da9aba1ee1ee4586d60001b6106ab565b6111a77f2d88291758d54b6773dec5516b3661c137bfc881a2a9608292cbf832b3260c2860001b6106ab565b816000806101000a816111b8612ca3565b8173ffffffffffffffffffffffffffffffffffffffff021916908373ffffffffffffffffffffffffffffffffffffffff160217906111f4612d63565b5050506112237f774972c16bfebd604693d0392cbf1007b58033d47e3ff75ae5d03fcf1a073fef60001b6106ab565b61124f7f1697602808093fbbac294b5c863fdb742a5d480c4016c073e99d70b9e999ce0460001b6106ab565b8060019080519060200190611265929190612dc8565b506112927fc5759183963137b34820ce6561b6912e6acd940bcfc29dc1306bf55a68e8b3cb60001b6106ab565b6112be7f37ecb20db872e47571ee95480fabf4fb5cef32145934449f070cea721eeb698660001b6106ab565b7f6ed15082ad038474841528b5badca105106d4463e44b5d434130dfb299aa36698282604051808373ffffffffffffffffffffffffffffffffffffffff16815260200180602001828103825283818151815260200191508051906020019080838360005b8381101561133d578082015181840152602081019050611322565b50505050905090810190601f16801561136a5780820380516001836020036101000a031916815260200191505b50935050505060405180910390a15050565b6113a87ff726fc88418c0a3484479f3aad53d8027d0e2163703da4e11695846a8ecf323960001b6106ab565b6113d47f684725bd78b70c3fb2cf13b500bfd22c1cd461220ef6c85b59f31f1043c5de1f60001b6106ab565b6114007f66ea293273b42d90ad1edbe377e4882daf414bd29b0dcec70a1119a20e4da60760001b6106ab565b61142c7fbba45401a87b3041ecdfeb8ba6cdf9dec1a86b5dc1ad9312274f3d920df5ec4460001b6106ab565b600080611437612ca3565b906101000a900473ffffffffffffffffffffffffffffffffffffffff1673ffffffffffffffffffffffffffffffffffffffff165a611473612d06565b73ffffffffffffffffffffffffffffffffffffffff1614611505576040517f08c379a000000000000000000000000000000000000000000000000000000000815260040180806020018281038252600c8152602001807f6f6e6c79206d616e61676572000000000000000000000000000000000000000081525060200191505060405180910390611502612c35565b50505b6115317fe84730383f7e358d6eb5424a73f82ebabefe25dbfc6cacd9a33efe47980ed6a060001b6106ab565b61155d7f1e8080af53826ea93c0834314df776ac304bf425dcb83719abb60873fded05d360001b6106ab565b6115897fca3b0b6a8f0568d214a013263a65c9483dba7aa815bd0585a82fcb6e01b44e4260001b6106ab565b6115b57f32a3f81f40bb087c7fd38d5dcb5c29f487af7b6230e95b2acd83a8141b6ef76160001b6106ab565b6115e17f9f1a6c81fd7ccf33f78b471b0320d8b00b85dda096a45429cf89835a066ff67d60001b6106ab565b60005b8151811015611745576116197f7ae0a1ae04f92781454c373617fd96d4c9ab5fb9828a61d367bf00640648c33460001b6106ab565b6116457f8dfa20da60ba28b5cf6e6b094b34a50c8c27b4e1efa56d9a9013613e395b454c60001b6106ab565b61166182828151811061165457fe5b6020026020010151611e7a565b15611697576116927f1bce9586341e7e0f103cc61df037ac5c651216e8a53aebe2b8316b0dfe13a21560001b6106ab565b611738565b6116c37fa87f7eb0f11b25a4f28d761815fd69c2ac6e783657f1be3d8a92a6c8e7691e3060001b6106ab565b6116ef7ffe1fe1a4bae1838cbdef812094bc9bf6a37b3a1b68cd54d8dc58310eec925add60001b6106ab565b61171b7ff9c6e6aeebb90b2fd8d734adf26bebb0b4a46cfb0a98ed5d1c527b059e5cf19660001b6106ab565b61173782828151811061172a57fe5b60200260200101516128d6565b5b80806001019150506115e4565b5050565b6117757ff726fc88418c0a3484479f3aad53d8027d0e2163703da4e11695846a8ecf323960001b6106ab565b6117a17f684725bd78b70c3fb2cf13b500bfd22c1cd461220ef6c85b59f31f1043c5de1f60001b6106ab565b6117cd7f66ea293273b42d90ad1edbe377e4882daf414bd29b0dcec70a1119a20e4da60760001b6106ab565b6117f97fbba45401a87b3041ecdfeb8ba6cdf9dec1a86b5dc1ad9312274f3d920df5ec4460001b6106ab565b600080611804612ca3565b906101000a900473ffffffffffffffffffffffffffffffffffffffff1673ffffffffffffffffffffffffffffffffffffffff165a611840612d06565b73ffffffffffffffffffffffffffffffffffffffff16146118d2576040517f08c379a000000000000000000000000000000000000000000000000000000000815260040180806020018281038252600c8152602001807f6f6e6c79206d616e616765720000000000000000000000000000000000000000815250602001915050604051809103906118cf612c35565b50505b6118fe7fe84730383f7e358d6eb5424a73f82ebabefe25dbfc6cacd9a33efe47980ed6a060001b6106ab565b61192a7f1e8080af53826ea93c0834314df776ac304bf425dcb83719abb60873fded05d360001b6106ab565b6119567ffa543b6f107045bf9c2087163c37dcfab98a23c4a624261978c06a9eca09d75860001b6106ab565b6119827f82fb810c0be715dc0d93fe45e4b3a95b91e18835f3f3ca0fa8447a053d3902a760001b6106ab565b6119ae7ff819c58381b02ea27fb2e0c25d6dd614b7b856ae0a9cac81bc172816adf45f4660001b6106ab565b6000600460006101000a816119c1612ca3565b8173ffffffffffffffffffffffffffffffffffffffff021916908373ffffffffffffffffffffffffffffffffffffffff160217906119fd612d63565b505050565b6060611a307f2ed9a800c6e07ab375323e4e1b0434d34b8c38ec279ba4963f47788acfe8c13d60001b6106ab565b611a5c7fd5271b2106a2b6b81360a695af0acfd076f10b58c416fca6fb4c2c4d4a66a94360001b6106ab565b611a887f6e567f3752e55b17556beeed4082fe27184f8d2629d21114383aa0ea894a70b760001b6106ab565b600280611a93612ca3565b80602002602001604051908101604052809291908181526020018280611ab7612ca3565b8015611b1f57602002820191906000526020600020905b81600090611ada612ca3565b906101000a900473ffffffffffffffffffffffffffffffffffffffff1673ffffffffffffffffffffffffffffffffffffffff1681526020019060010190808311611ace575b5050505050905090565b6000611b577fb7631d099694a00ad219758cf924c237e53cf23ca4a9e085b9509716e095fb7260001b6106ab565b611b837f1ac44fbaaf227ab2643b07a1ead07ba59b6efee2e01890ca6c3c8eb663480c5b60001b6106ab565b611baf7f9a3ff978878e4f6fc1f75cc42031941c8b2b821a789f51a48ee1f5a5a295543f60001b6106ab565b600280611bba612ca3565b9050905090565b611bed7ff726fc88418c0a3484479f3aad53d8027d0e2163703da4e11695846a8ecf323960001b6106ab565b611c197f684725bd78b70c3fb2cf13b500bfd22c1cd461220ef6c85b59f31f1043c5de1f60001b6106ab565b611c457f66ea293273b42d90ad1edbe377e4882daf414bd29b0dcec70a1119a20e4da60760001b6106ab565b611c717fbba45401a87b3041ecdfeb8ba6cdf9dec1a86b5dc1ad9312274f3d920df5ec4460001b6106ab565b600080611c7c612ca3565b906101000a900473ffffffffffffffffffffffffffffffffffffffff1673ffffffffffffffffffffffffffffffffffffffff165a611cb8612d06565b73ffffffffffffffffffffffffffffffffffffffff1614611d4a576040517f08c379a000000000000000000000000000000000000000000000000000000000815260040180806020018281038252600c8152602001807f6f6e6c79206d616e61676572000000000000000000000000000000000000000081525060200191505060405180910390611d47612c35565b50505b611d767fe84730383f7e358d6eb5424a73f82ebabefe25dbfc6cacd9a33efe47980ed6a060001b6106ab565b611da27f1e8080af53826ea93c0834314df776ac304bf425dcb83719abb60873fded05d360001b6106ab565b611dce7fa9c54cfd6f30dea6afcf1f9dd7f07ffff37728fe01f0e5a40f5096f606a13c7160001b6106ab565b611dfa7f0af02d0f2eb7557c62178a54ab63f9dc59095fafde4b296939f7412ba772544860001b6106ab565b611e267f2298149c6c1d75e262236031617e1bc7933b0658b5158cf017376769c15bb39b60001b6106ab565b80600460006101000a81611e38612ca3565b8173ffffffffffffffffffffffffffffffffffffffff021916908373ffffffffffffffffffffffffffffffffffffffff16021790611e74612d63565b50505050565b6000611ea87f93bced7c6681af6c6d03eb68ab915229f26fad5feb1af98189749dbeb8a77d6b60001b6106ab565b611ed47feb16ffe1c44dd3fa467685a7961c9da0f9967e47a0da90e288000ce0c2de65e760001b6106ab565b611f007f4f088eeed859d895cbfaa9949df5c86833ec2c751d2ed1f39a62549b72574cc160001b6106ab565b6000600360008473ffffffffffffffffffffffffffffffffffffffff1673ffffffffffffffffffffffffffffffffffffffff168152602001908152602001600020611f49612ca3565b14159050919050565b611f7e7ff726fc88418c0a3484479f3aad53d8027d0e2163703da4e11695846a8ecf323960001b6106ab565b611faa7f684725bd78b70c3fb2cf13b500bfd22c1cd461220ef6c85b59f31f1043c5de1f60001b6106ab565b611fd67f66ea293273b42d90ad1edbe377e4882daf414bd29b0dcec70a1119a20e4da60760001b6106ab565b6120027fbba45401a87b3041ecdfeb8ba6cdf9dec1a86b5dc1ad9312274f3d920df5ec4460001b6106ab565b60008061200d612ca3565b906101000a900473ffffffffffffffffffffffffffffffffffffffff1673ffffffffffffffffffffffffffffffffffffffff165a612049612d06565b73ffffffffffffffffffffffffffffffffffffffff16146120db576040517f08c379a000000000000000000000000000000000000000000000000000000000815260040180806020018281038252600c8152602001807f6f6e6c79206d616e616765720000000000000000000000000000000000000000815250602001915050604051809103906120d8612c35565b50505b6121077fe84730383f7e358d6eb5424a73f82ebabefe25dbfc6cacd9a33efe47980ed6a060001b6106ab565b6121337f1e8080af53826ea93c0834314df776ac304bf425dcb83719abb60873fded05d360001b6106ab565b61215f7fca7a2cabde565574087071fe1607587d54e9e4133febff955ce26370d56e3ade60001b6106ab565b61218b7f4ae3bf1ec5df71fa19b4106be830080cd878ca1570b66601524259dfbf1fd26e60001b6106ab565b6121b77f3838976ed10281aed5556e0ea1a9a9d902617371c45c8baa61360d5bed3477cf60001b6106ab565b6121c081611e7a565b15612222576121f17f9e044fc86a21d5bea6729c5c16aa15fd506f956dfdb708ba65d9e8a7beac4f6f60001b6106ab565b61221d7fd20a97c35c6e3960f640bed6bcf30b3b89d45a7f1e1cd929e6c3af489665defb60001b6106ab565b6122b0565b61224e7fe05601f46dfa4021edf6bb0b2c9f2cf613f1681fffcc7fb98c6d0c830d769bd360001b6106ab565b61227a7f34bbbad5e06ddcd395174303e2003f6303d14e382aefe8484f63907b9abe0d7f60001b6106ab565b6122a67f83b37c54dbaea8c77bfadc63f8f606565b9dc8564774a7e836bab8707586de0860001b6106ab565b6122af816128d6565b5b50565b60606122e17fe7ded372597b04070dc23b8073f76f16369afe1ba9bb655212499ca4c89078f060001b6106ab565b61230d7f01ec58831db98f33618ad51b08b94ed3a3a6b0622fcfb23a3be0f3c3909ecf1c60001b6106ab565b6123397f9cab5560c48acff3bdc66326ea997f6ec4889edc87b772b7ec0867872efa8b0b60001b6106ab565b600180612344612ca3565b600181600116156101000203166002900480601f0160208091040260200160405190810160405280929190818152602001828061237f612ca3565b600181600116156101000203166002900480156123eb5780601f106123b95761010080836123ab612ca3565b0402835291602001916123eb565b820191906000526020600020905b816123d0612ca3565b815290600101906020018083116123c757829003601f168201915b5050505050905090565b6124217f43d4d67dc7f967cc97563907b86c2519d42dcc126e20c1f02c04390ace2db7d960001b6106ab565b61244d7f9a33241be8ddde47c507c09ca66ad831c8dff917b40a1657dd3f1f7160faa37a60001b6106ab565b6124797fd976149b1269705ae23cacedb5a8a0d8cf214428935148b777fd1e2437b701e560001b6106ab565b6000600280612486612ca3565b905090506124b67f0be28d4891fc3d9806bb2f98a38c5ded5aaf8a95e3656f5059d7c3c51cc7161560001b6106ab565b6124e27f982408f60d6d6df50dc0350c15c812b70faf6b72c73c1f7d4ee3b420355975d260001b6106ab565b600061253e6001600360008673ffffffffffffffffffffffffffffffffffffffff1673ffffffffffffffffffffffffffffffffffffffff168152602001908152602001600020612530612ca3565b612a9190919063ffffffff16565b905061256c7fd23a7fca9f4d6905f8ef0768ea2e240a0f20482a65e1a39a997147409e71e54760001b6106ab565b6125987fc12ef148a50437be9c6c3fe2886c3fa010931c5b6d7cdf9403f213763e80a2c260001b6106ab565b600060026125b0600185612a9190919063ffffffff16565b816125b9612ca3565b81106125c157fe5b906000526020600020016000906125d6612ca3565b906101000a900473ffffffffffffffffffffffffffffffffffffffff1690506126217f417697173a7e5a834c2b335e9ad87be0f0870d0ce953cde7d1746d7c20393a3660001b6106ab565b61264d7f797aa45c850cf8a13ebf5e0692ce4233c1ca36547a673b9667aa0ef542e6204b60001b6106ab565b806002838161265a612ca3565b811061266257fe5b9060005260206000200160006101000a8161267b612ca3565b8173ffffffffffffffffffffffffffffffffffffffff021916908373ffffffffffffffffffffffffffffffffffffffff160217906126b7612d63565b5050506126e67f904707040d9ebaf87a4ba18a853b7f7bfbfb7cc74efbba90b546b2b527e7d77b60001b6106ab565b6127127fa36e670d734c079531017080326060167c11cc6330c00467364d94e3901260d060001b6106ab565b612726600183612adb90919063ffffffff16565b600360008373ffffffffffffffffffffffffffffffffffffffff1673ffffffffffffffffffffffffffffffffffffffff168152602001908152602001600020819061276f612d63565b50505061279e7f6cef904dfc8e44bc602f22936344c33e18e8f32de8130f62b6ac3e044feef62360001b6106ab565b6127ca7f148ba67878f02304e3e32d635da24799fb83800211723c864a28b0e14b0e946260001b6106ab565b6000600360008673ffffffffffffffffffffffffffffffffffffffff1673ffffffffffffffffffffffffffffffffffffffff1681526020019081526020016000208190612815612d63565b5050506128447f37cbd5cc2380c7027b945e93e7b84b8577e206e5bca9a39c21c51c2aebbd3f8c60001b6106ab565b6128707f4731067e33b609595a4497107bfa3cec3fa3eca7626a916057ddc4b5a31456c560001b6106ab565b60028061287b612ca3565b8061288257fe5b6001900381819060005260206000200160006101000a816128a1612ca3565b9073ffffffffffffffffffffffffffffffffffffffff021916906128c3612d63565b5050906128ce612d63565b505050505050565b6129027f120d4ada38bb5617d62f237f475d91361f9986899c218eb39368b795730a9ad260001b6106ab565b61292e7ff876760b2cad024af551c4ea79575243fb2b3818ef8518cb46e1dc3035c15f3760001b6106ab565b61295a7f7726f68d522d3254d6528922abd286c5555ff4b7e4f68c51afcd636d246f5abd60001b6106ab565b600281908060018161296a612ca3565b018082612975612d63565b505080915050600190039060005260206000200160009091909190916101000a8161299e612ca3565b8173ffffffffffffffffffffffffffffffffffffffff021916908373ffffffffffffffffffffffffffffffffffffffff160217906129da612d63565b505050612a097fb5d83ba033c4b78376e5d2d9da6133c97d5063d821e0ad0aa5af2f3781cf308560001b6106ab565b612a357f89ab2a8e5e1b48c265e8ca3f5097a80099abbe2dbed6e5ffee0f376db28a5d9660001b6106ab565b600280612a40612ca3565b9050600360008373ffffffffffffffffffffffffffffffffffffffff1673ffffffffffffffffffffffffffffffffffffffff1681526020019081526020016000208190612a8b612d63565b50505050565b6000612ad383836040518060400160405280601e81526020017f536166654d6174683a207375627472616374696f6e206f766572666c6f770000815250612b6c565b905092915050565b600080828401905083811015612b62576040517f08c379a000000000000000000000000000000000000000000000000000000000815260040180806020018281038252601b8152602001807f536166654d6174683a206164646974696f6e206f766572666c6f77000000000081525060200191505060405180910390612b5f612c35565b50505b8091505092915050565b6000838311158290612c22576040517f08c379a00000000000000000000000000000000000000000000000000000000081526004018080602001828103825283818151815260200191508051906020019080838360005b83811015612bde578082015181840152602081019050612bc3565b50505050905090810190601f168015612c0b5780820380516001836020036101000a031916815260200191505b509250505060405180910390612c1f612c35565b50505b5060008385039050809150509392505050565b632a2a7adb598160e01b8152600481016020815285602082015260005b86811015612c70578086015181604084010152602081019050612c52565b506020828760640184336000905af158601d01573d60011458600c01573d6000803e3d621234565260ea61109c52505050565b6303daa959598160e01b8152836004820152602081602483336000905af158601d01573d60011458600c01573d6000803e3d621234565260ea61109c528051935060005b6040811015612d0157600081830152602081019050612ce7565b505050565b6373509064598160e01b8152602081600483336000905af158601d01573d60011458600c01573d6000803e3d621234565260ea61109c528051935060005b6040811015612d5e57600081830152602081019050612d44565b505050565b6322bd64c0598160e01b8152836004820152846024820152600081604483336000905af158601d01573d60011458600c01573d6000803e3d621234565260ea61109c5260005b6040811015612dc357600081830152602081019050612da9565b505050565b8280612dd2612ca3565b600181600116156101000203166002900490600052602060002090601f016020900481019282601f10612e1957805160ff19168380011785612e12612d63565b5050612e59565b82800160010185612e28612d63565b50508215612e59579182015b82811115612e5857825182612e47612d63565b505091602001919060010190612e34565b5b509050612e669190612e6a565b5090565b5b80821115612e8c57600081600090612e81612d63565b505050600101612e6b565b509056",
  "linkReferences": {},
  "deployedLinkReferences": {}
}