{
  "_format": "hh-sol-artifact-1",
  "contractName": "Managed-ovm",
  "sourceName": "contracts/Managed.sol",
  "abi": [
    {
      "anonymous": false,
      "inputs": [
        {
          "indexed": false,
          "internalType": "address",
          "name": "newManager",
          "type": "address"
        },
        {
          "indexed": false,
          "internalType": "string",
          "name": "newManagerName",
          "type": "string"
        }
      ],
      "name": "ManagerUpdated",
      "type": "event"
    },
    {
      "inputs": [
        {
          "internalType": "address",
          "name": "member",
          "type": "address"
        }
      ],
      "name": "addMember",
      "outputs": [],
      "stateMutability": "nonpayable",
      "type": "function"
    },
    {
      "inputs": [
        {
          "internalType": "address[]",
          "name": "members",
          "type": "address[]"
        }
      ],
      "name": "addMembers",
      "outputs": [],
      "stateMutability": "nonpayable",
      "type": "function"
    },
    {
      "inputs": [
        {
          "internalType": "address",
          "name": "newManager",
          "type": "address"
        },
        {
          "internalType": "string",
          "name": "newManagerName",
          "type": "string"
        }
      ],
      "name": "changeManager",
      "outputs": [],
      "stateMutability": "nonpayable",
      "type": "function"
    },
    {
      "inputs": [],
      "name": "getMembers",
      "outputs": [
        {
          "internalType": "address[]",
          "name": "",
          "type": "address[]"
        }
      ],
      "stateMutability": "view",
      "type": "function"
    },
    {
      "inputs": [
        {
          "internalType": "address",
          "name": "member",
          "type": "address"
        }
      ],
      "name": "isMemberAllowed",
      "outputs": [
        {
          "internalType": "bool",
          "name": "",
          "type": "bool"
        }
      ],
      "stateMutability": "view",
      "type": "function"
    },
    {
      "inputs": [],
      "name": "manager",
      "outputs": [
        {
          "internalType": "address",
          "name": "",
          "type": "address"
        }
      ],
      "stateMutability": "view",
      "type": "function"
    },
    {
      "inputs": [],
      "name": "managerName",
      "outputs": [
        {
          "internalType": "string",
          "name": "",
          "type": "string"
        }
      ],
      "stateMutability": "view",
      "type": "function"
    },
    {
      "inputs": [],
      "name": "numberOfMembers",
      "outputs": [
        {
          "internalType": "uint256",
          "name": "",
          "type": "uint256"
        }
      ],
      "stateMutability": "view",
      "type": "function"
    },
    {
      "inputs": [
        {
          "internalType": "address",
          "name": "member",
          "type": "address"
        }
      ],
      "name": "removeMember",
      "outputs": [],
      "stateMutability": "nonpayable",
      "type": "function"
    },
    {
      "inputs": [
        {
          "internalType": "address[]",
          "name": "members",
          "type": "address[]"
        }
      ],
      "name": "removeMembers",
      "outputs": [],
      "stateMutability": "nonpayable",
      "type": "function"
    }
  ],
  "bytecode": "0x60806040523480156100195760008061001661001f565b50505b5061008a565b632a2a7adb598160e01b8152600481016020815285602082015260005b8681101561005757808601518282016040015260200161003c565b506020828760640184336000905af158600e01573d6000803e3d6000fd5b3d6001141558600a015760016000f35b505050565b61103a806100996000396000f3fe608060405234801561001957600080610016610e1c565b50505b50600436106100a75760003560e01c80639eab52531161006f5780639eab525314610371578063a30e3fa9146103cc578063bbbf725b146103e6578063ca6d56dc14610429578063fed4416a14610458576100a7565b80630b1ca49a146100b557806346ee84b0146100e6578063481c6a75146101ad57806352213663146101d15780636f4d469b146102aa575b6000806100b2610e1c565b50505b6100e4600480360360208110156100d4576000806100d1610e1c565b50505b50356001600160a01b03166104d7565b005b6100e46004803603602081101561010557600080610102610e1c565b50505b81019060208101813564010000000081111561012957600080610126610e1c565b50505b82018360208201111561014457600080610141610e1c565b50505b8035906020019184602083028401116401000000008311171561016f5760008061016c610e1c565b50505b919080806020026020016040519081016040528093929190818152602001838360200280828437600092019190915250929550610574945050505050565b6101b561064c565b6040516001600160a01b03909116815260200160405180910390f35b6100e4600480360360408110156101f0576000806101ed610e1c565b50505b6001600160a01b03823516919081019060408101602082013564010000000081111561022457600080610221610e1c565b50505b82018360208201111561023f5760008061023c610e1c565b50505b8035906020019184600183028401116401000000008311171561026a57600080610267610e1c565b50505b91908080601f016020809104026020016040519081016040528181529291906020840183838082843760009201919091525092955061066d945050505050565b6100e4600480360360208110156102c9576000806102c6610e1c565b50505b8101906020810181356401000000008111156102ed576000806102ea610e1c565b50505b82018360208201111561030857600080610305610e1c565b50505b8035906020019184602083028401116401000000008311171561033357600080610330610e1c565b50505b9190808060200260200160405190810160405280939291908181526020018383602002808284376000920191909152509295506107e1945050505050565b6103796108a9565b60405160208082528190810183818151815260200191508051906020019060200280838360005b838110156103b85780820151838201526020016103a0565b505050509050019250505060405180910390f35b6103d4610930565b60405190815260200160405180910390f35b6104156004803603602081101561040557600080610402610e1c565b50505b50356001600160a01b0316610943565b604051901515815260200160405180910390f35b6100e46004803603602081101561044857600080610445610e1c565b50505b50356001600160a01b031661096b565b610460610a06565b60405160208082528190810183818151815260200191508051906020019080838360005b8381101561049c578082015183820152602001610484565b50505050905090810190601f1680156104c95780820380516001836020036101000a031916815260200191505b509250505060405180910390f35b6000806104e2610e87565b906101000a90046001600160a01b03166001600160a01b03165a610504610ee7565b6001600160a01b0316146105565760405162461bcd60e51b815260206004820152600c60248201526b37b7363c9036b0b730b3b2b960a11b604482015260640160405180910390610553610e1c565b50505b61055f81610943565b61056857610571565b61057181610aba565b50565b60008061057f610e87565b906101000a90046001600160a01b03166001600160a01b03165a6105a1610ee7565b6001600160a01b0316146105f35760405162461bcd60e51b815260206004820152600c60248201526b37b7363c9036b0b730b3b2b960a11b6044820152606401604051809103906105f0610e1c565b50505b60005b81518110156106485761061b82828151811061060e57fe5b6020026020010151610943565b61062457610640565b61064082828151811061063357fe5b6020026020010151610aba565b6001016105f6565b5050565b60008080610658610e87565b906101000a90046001600160a01b0316905090565b600080610678610e87565b906101000a90046001600160a01b03166001600160a01b03165a61069a610ee7565b6001600160a01b0316146106ec5760405162461bcd60e51b815260206004820152600c60248201526b37b7363c9036b0b730b3b2b960a11b6044820152606401604051809103906106e9610e1c565b50505b8160006001816106fa610e87565b816001600160a01b0302191690836001600160a01b031602179061071c610f2d565b505050806001908051610733929160200190610f7b565b507f6ed15082ad038474841528b5badca105106d4463e44b5d434130dfb299aa366982826040516001600160a01b038316815260406020820181815290820183818151815260200191508051906020019080838360005b838110156107a257808201518382015260200161078a565b50505050905090810190601f1680156107cf5780820380516001836020036101000a031916815260200191505b50935050505060405180910390a15050565b6000806107ec610e87565b906101000a90046001600160a01b03166001600160a01b03165a61080e610ee7565b6001600160a01b0316146108605760405162461bcd60e51b815260206004820152600c60248201526b37b7363c9036b0b730b3b2b960a11b60448201526064016040518091039061085d610e1c565b50505b60005b81518110156106485761087b82828151811061060e57fe5b15610885576108a1565b6108a182828151811061089457fe5b6020026020010151610c3b565b600101610863565b60606002806108b6610e87565b8060200260200160405190810160405281815291906020830182806108d9610e87565b801561092657602002820191906000526020600020905b6000826108fb610e87565b906101000a90046001600160a01b03166001600160a01b0316815260200190600101908083116108f0575b5050505050905090565b600060028061093d610e87565b91505090565b6001600160a01b0381166000908152600360205260408120610963610e87565b151592915050565b600080610976610e87565b906101000a90046001600160a01b03166001600160a01b03165a610998610ee7565b6001600160a01b0316146109ea5760405162461bcd60e51b815260206004820152600c60248201526b37b7363c9036b0b730b3b2b960a11b6044820152606401604051809103906109e7610e1c565b50505b6109f381610943565b156109fd57610571565b61057181610c3b565b6060600180610a13610e87565b600181600116156101000203166002900480601f016020809104026020016040519081016040528181529190602083018280610a4d610e87565b600181600116156101000203166002900480156109265780601f10610a87576101008083610a79610e87565b040283529160200191610926565b820191906000526020600020905b81610a9e610e87565b81529060010190602001808311610a9557509395945050505050565b6000600280610ac7610e87565b6001600160a01b038416600090815260036020529092509050610af7600160408320610af1610e87565b90610ccd565b905060006002610b08846001610ccd565b81610b11610e87565b8110610b1957fe5b90600052602060002001600090610b2e610e87565b906101000a90046001600160a01b031690508060028381610b4d610e87565b8110610b5557fe5b90600052602060002001600181610b6a610e87565b816001600160a01b0302191690836001600160a01b0316021790610b8c610f2d565b50610b9c91508390506001610d14565b6001600160a01b03821660009081526003602052604090208190610bbe610f2d565b5050506001600160a01b03841660009081526003602052604081208190610be3610f2d565b505050600280610bf1610e87565b80610bf857fe5b60019003818190600052602060002001600181610c13610e87565b906001600160a01b0302191690610c28610f2d565b505090610c33610f2d565b505050505050565b80600280600181610c4a610e87565b018082610c55610f2d565b505060009283526000190191602091502001600181610c72610e87565b816001600160a01b0302191690836001600160a01b0316021790610c94610f2d565b505050600280610ca2610e87565b6001600160a01b03831660009081526003602052909150604090208190610cc7610f2d565b50505050565b6000610d0d838360405160408082019052601e81527f536166654d6174683a207375627472616374696f6e206f766572666c6f7700006020820152610d7c565b9392505050565b600082820183811015610d0d5760405162461bcd60e51b815260206004820152601b60248201527f536166654d6174683a206164646974696f6e206f766572666c6f770000000000604482015260640160405180910390610d73610e1c565b50509392505050565b60008184841115610e145760405162461bcd60e51b81526004018080602001828103825283818151815260200191508051906020019080838360005b83811015610dd0578082015183820152602001610db8565b50505050905090810190601f168015610dfd5780820380516001836020036101000a031916815260200191505b509250505060405180910390610e11610e1c565b50505b505050900390565b632a2a7adb598160e01b8152600481016020815285602082015260005b86811015610e54578086015182820160400152602001610e39565b506020828760640184336000905af158600e01573d6000803e3d6000fd5b3d6001141558600a015760016000f35b505050565b6303daa959598160e01b8152836004820152602081602483336000905af158600e01573d6000803e3d6000fd5b3d6001141558600a015760016000f35b8051935060005b6040811015610ee257600082820152602001610ecb565b505050565b6373509064598160e01b8152602081600483336000905af158600e01573d6000803e3d6000fd5b3d6001141558600a015760016000f35b80516000825293506020610ecb565b6322bd64c0598160e01b8152836004820152846024820152600081604483336000905af158600e01573d6000803e3d6000fd5b3d6001141558600a015760016000f35b600081526020610ecb565b8280610f85610e87565b600181600116156101000203166002900490600052602060002090601f016020900481019282601f10610fcc57805160ff19168380011785610fc5610f2d565b505061100b565b82800160010185610fdb610f2d565b5050821561100b579182015b8281111561100b57825182610ffa610f2d565b505091602001919060010190610fe7565b5061101792915061101b565b5090565b80821115611017576000808261102f610f2d565b50505060010161101b56",
  "deployedBytecode": "0x608060405234801561001957600080610016610e1c565b50505b50600436106100a75760003560e01c80639eab52531161006f5780639eab525314610371578063a30e3fa9146103cc578063bbbf725b146103e6578063ca6d56dc14610429578063fed4416a14610458576100a7565b80630b1ca49a146100b557806346ee84b0146100e6578063481c6a75146101ad57806352213663146101d15780636f4d469b146102aa575b6000806100b2610e1c565b50505b6100e4600480360360208110156100d4576000806100d1610e1c565b50505b50356001600160a01b03166104d7565b005b6100e46004803603602081101561010557600080610102610e1c565b50505b81019060208101813564010000000081111561012957600080610126610e1c565b50505b82018360208201111561014457600080610141610e1c565b50505b8035906020019184602083028401116401000000008311171561016f5760008061016c610e1c565b50505b919080806020026020016040519081016040528093929190818152602001838360200280828437600092019190915250929550610574945050505050565b6101b561064c565b6040516001600160a01b03909116815260200160405180910390f35b6100e4600480360360408110156101f0576000806101ed610e1c565b50505b6001600160a01b03823516919081019060408101602082013564010000000081111561022457600080610221610e1c565b50505b82018360208201111561023f5760008061023c610e1c565b50505b8035906020019184600183028401116401000000008311171561026a57600080610267610e1c565b50505b91908080601f016020809104026020016040519081016040528181529291906020840183838082843760009201919091525092955061066d945050505050565b6100e4600480360360208110156102c9576000806102c6610e1c565b50505b8101906020810181356401000000008111156102ed576000806102ea610e1c565b50505b82018360208201111561030857600080610305610e1c565b50505b8035906020019184602083028401116401000000008311171561033357600080610330610e1c565b50505b9190808060200260200160405190810160405280939291908181526020018383602002808284376000920191909152509295506107e1945050505050565b6103796108a9565b60405160208082528190810183818151815260200191508051906020019060200280838360005b838110156103b85780820151838201526020016103a0565b505050509050019250505060405180910390f35b6103d4610930565b60405190815260200160405180910390f35b6104156004803603602081101561040557600080610402610e1c565b50505b50356001600160a01b0316610943565b604051901515815260200160405180910390f35b6100e46004803603602081101561044857600080610445610e1c565b50505b50356001600160a01b031661096b565b610460610a06565b60405160208082528190810183818151815260200191508051906020019080838360005b8381101561049c578082015183820152602001610484565b50505050905090810190601f1680156104c95780820380516001836020036101000a031916815260200191505b509250505060405180910390f35b6000806104e2610e87565b906101000a90046001600160a01b03166001600160a01b03165a610504610ee7565b6001600160a01b0316146105565760405162461bcd60e51b815260206004820152600c60248201526b37b7363c9036b0b730b3b2b960a11b604482015260640160405180910390610553610e1c565b50505b61055f81610943565b61056857610571565b61057181610aba565b50565b60008061057f610e87565b906101000a90046001600160a01b03166001600160a01b03165a6105a1610ee7565b6001600160a01b0316146105f35760405162461bcd60e51b815260206004820152600c60248201526b37b7363c9036b0b730b3b2b960a11b6044820152606401604051809103906105f0610e1c565b50505b60005b81518110156106485761061b82828151811061060e57fe5b6020026020010151610943565b61062457610640565b61064082828151811061063357fe5b6020026020010151610aba565b6001016105f6565b5050565b60008080610658610e87565b906101000a90046001600160a01b0316905090565b600080610678610e87565b906101000a90046001600160a01b03166001600160a01b03165a61069a610ee7565b6001600160a01b0316146106ec5760405162461bcd60e51b815260206004820152600c60248201526b37b7363c9036b0b730b3b2b960a11b6044820152606401604051809103906106e9610e1c565b50505b8160006001816106fa610e87565b816001600160a01b0302191690836001600160a01b031602179061071c610f2d565b505050806001908051610733929160200190610f7b565b507f6ed15082ad038474841528b5badca105106d4463e44b5d434130dfb299aa366982826040516001600160a01b038316815260406020820181815290820183818151815260200191508051906020019080838360005b838110156107a257808201518382015260200161078a565b50505050905090810190601f1680156107cf5780820380516001836020036101000a031916815260200191505b50935050505060405180910390a15050565b6000806107ec610e87565b906101000a90046001600160a01b03166001600160a01b03165a61080e610ee7565b6001600160a01b0316146108605760405162461bcd60e51b815260206004820152600c60248201526b37b7363c9036b0b730b3b2b960a11b60448201526064016040518091039061085d610e1c565b50505b60005b81518110156106485761087b82828151811061060e57fe5b15610885576108a1565b6108a182828151811061089457fe5b6020026020010151610c3b565b600101610863565b60606002806108b6610e87565b8060200260200160405190810160405281815291906020830182806108d9610e87565b801561092657602002820191906000526020600020905b6000826108fb610e87565b906101000a90046001600160a01b03166001600160a01b0316815260200190600101908083116108f0575b5050505050905090565b600060028061093d610e87565b91505090565b6001600160a01b0381166000908152600360205260408120610963610e87565b151592915050565b600080610976610e87565b906101000a90046001600160a01b03166001600160a01b03165a610998610ee7565b6001600160a01b0316146109ea5760405162461bcd60e51b815260206004820152600c60248201526b37b7363c9036b0b730b3b2b960a11b6044820152606401604051809103906109e7610e1c565b50505b6109f381610943565b156109fd57610571565b61057181610c3b565b6060600180610a13610e87565b600181600116156101000203166002900480601f016020809104026020016040519081016040528181529190602083018280610a4d610e87565b600181600116156101000203166002900480156109265780601f10610a87576101008083610a79610e87565b040283529160200191610926565b820191906000526020600020905b81610a9e610e87565b81529060010190602001808311610a9557509395945050505050565b6000600280610ac7610e87565b6001600160a01b038416600090815260036020529092509050610af7600160408320610af1610e87565b90610ccd565b905060006002610b08846001610ccd565b81610b11610e87565b8110610b1957fe5b90600052602060002001600090610b2e610e87565b906101000a90046001600160a01b031690508060028381610b4d610e87565b8110610b5557fe5b90600052602060002001600181610b6a610e87565b816001600160a01b0302191690836001600160a01b0316021790610b8c610f2d565b50610b9c91508390506001610d14565b6001600160a01b03821660009081526003602052604090208190610bbe610f2d565b5050506001600160a01b03841660009081526003602052604081208190610be3610f2d565b505050600280610bf1610e87565b80610bf857fe5b60019003818190600052602060002001600181610c13610e87565b906001600160a01b0302191690610c28610f2d565b505090610c33610f2d565b505050505050565b80600280600181610c4a610e87565b018082610c55610f2d565b505060009283526000190191602091502001600181610c72610e87565b816001600160a01b0302191690836001600160a01b0316021790610c94610f2d565b505050600280610ca2610e87565b6001600160a01b03831660009081526003602052909150604090208190610cc7610f2d565b50505050565b6000610d0d838360405160408082019052601e81527f536166654d6174683a207375627472616374696f6e206f766572666c6f7700006020820152610d7c565b9392505050565b600082820183811015610d0d5760405162461bcd60e51b815260206004820152601b60248201527f536166654d6174683a206164646974696f6e206f766572666c6f770000000000604482015260640160405180910390610d73610e1c565b50509392505050565b60008184841115610e145760405162461bcd60e51b81526004018080602001828103825283818151815260200191508051906020019080838360005b83811015610dd0578082015183820152602001610db8565b50505050905090810190601f168015610dfd5780820380516001836020036101000a031916815260200191505b509250505060405180910390610e11610e1c565b50505b505050900390565b632a2a7adb598160e01b8152600481016020815285602082015260005b86811015610e54578086015182820160400152602001610e39565b506020828760640184336000905af158601d01573d60011458600c01573d6000803e3d621234565260ea61109c52505050565b6303daa959598160e01b8152836004820152602081602483336000905af158601d01573d60011458600c01573d6000803e3d621234565260ea61109c528051935060005b6040811015610ee257600082820152602001610ecb565b505050565b6373509064598160e01b8152602081600483336000905af158601d01573d60011458600c01573d6000803e3d621234565260ea61109c5280516000825293506020610ecb565b6322bd64c0598160e01b8152836004820152846024820152600081604483336000905af158601d01573d60011458600c01573d6000803e3d621234565260ea61109c52600081526020610ecb565b8280610f85610e87565b600181600116156101000203166002900490600052602060002090601f016020900481019282601f10610fcc57805160ff19168380011785610fc5610f2d565b505061100b565b82800160010185610fdb610f2d565b5050821561100b579182015b8281111561100b57825182610ffa610f2d565b505091602001919060010190610fe7565b5061101792915061101b565b5090565b80821115611017576000808261102f610f2d565b50505060010161101b56",
  "linkReferences": {},
  "deployedLinkReferences": {}
}