{
  "_format": "hh-sol-artifact-1",
  "contractName": "Managed-ovm",
  "sourceName": "contracts/Managed.sol",
  "abi": [
    {
      "anonymous": false,
      "inputs": [
        {
          "indexed": false,
          "internalType": "address",
          "name": "newManager",
          "type": "address"
        },
        {
          "indexed": false,
          "internalType": "string",
          "name": "newManagerName",
          "type": "string"
        }
      ],
      "name": "ManagerUpdated",
      "type": "event"
    },
    {
      "inputs": [
        {
          "internalType": "address",
          "name": "member",
          "type": "address"
        }
      ],
      "name": "addMember",
      "outputs": [],
      "stateMutability": "nonpayable",
      "type": "function"
    },
    {
      "inputs": [
        {
          "internalType": "address[]",
          "name": "members",
          "type": "address[]"
        }
      ],
      "name": "addMembers",
      "outputs": [],
      "stateMutability": "nonpayable",
      "type": "function"
    },
    {
      "inputs": [
        {
          "internalType": "address",
          "name": "newManager",
          "type": "address"
        },
        {
          "internalType": "string",
          "name": "newManagerName",
          "type": "string"
        }
      ],
      "name": "changeManager",
      "outputs": [],
      "stateMutability": "nonpayable",
      "type": "function"
    },
    {
      "inputs": [],
      "name": "getMembers",
      "outputs": [
        {
          "internalType": "address[]",
          "name": "",
          "type": "address[]"
        }
      ],
      "stateMutability": "view",
      "type": "function"
    },
    {
      "inputs": [
        {
          "internalType": "address",
          "name": "member",
          "type": "address"
        }
      ],
      "name": "isMemberAllowed",
      "outputs": [
        {
          "internalType": "bool",
          "name": "",
          "type": "bool"
        }
      ],
      "stateMutability": "view",
      "type": "function"
    },
    {
      "inputs": [],
      "name": "manager",
      "outputs": [
        {
          "internalType": "address",
          "name": "",
          "type": "address"
        }
      ],
      "stateMutability": "view",
      "type": "function"
    },
    {
      "inputs": [],
      "name": "managerName",
      "outputs": [
        {
          "internalType": "string",
          "name": "",
          "type": "string"
        }
      ],
      "stateMutability": "view",
      "type": "function"
    },
    {
      "inputs": [],
      "name": "numberOfMembers",
      "outputs": [
        {
          "internalType": "uint256",
          "name": "",
          "type": "uint256"
        }
      ],
      "stateMutability": "view",
      "type": "function"
    },
    {
      "inputs": [
        {
          "internalType": "address",
          "name": "member",
          "type": "address"
        }
      ],
      "name": "removeMember",
      "outputs": [],
      "stateMutability": "nonpayable",
      "type": "function"
    },
    {
      "inputs": [
        {
          "internalType": "address[]",
          "name": "members",
          "type": "address[]"
        }
      ],
      "name": "removeMembers",
      "outputs": [],
      "stateMutability": "nonpayable",
      "type": "function"
    },
    {
      "inputs": [],
      "name": "removeTrader",
      "outputs": [],
      "stateMutability": "nonpayable",
      "type": "function"
    },
    {
      "inputs": [
        {
          "internalType": "address",
          "name": "newTrader",
          "type": "address"
        }
      ],
      "name": "setTrader",
      "outputs": [],
      "stateMutability": "nonpayable",
      "type": "function"
    },
    {
      "inputs": [],
      "name": "trader",
      "outputs": [
        {
          "internalType": "address",
          "name": "",
          "type": "address"
        }
      ],
      "stateMutability": "view",
      "type": "function"
    }
  ],
  "bytecode": "0x60806040523480156100195760008061001661001f565b50505b5061008a565b632a2a7adb598160e01b8152600481016020815285602082015260005b8681101561005757808601518282016040015260200161003c565b506020828760640184336000905af158600e01573d6000803e3d6000fd5b3d6001141558600a015760016000f35b505050565b611216806100996000396000f3fe608060405234801561001957600080610016610ffd565b50505b50600436106100d85760003560e01c80637c8afd5111610095578063a6bc18f91161006f578063a6bc18f914610427578063bbbf725b14610456578063ca6d56dc14610499578063fed4416a146104c8576100d8565b80637c8afd51146103aa5780639eab5253146103b2578063a30e3fa91461040d576100d8565b80630b1ca49a146100e65780631758078b1461011757806346ee84b01461013b578063481c6a7514610202578063522136631461020a5780636f4d469b146102e3575b6000806100e3610ffd565b50505b6101156004803603602081101561010557600080610102610ffd565b50505b50356001600160a01b0316610547565b005b61011f6105e4565b6040516001600160a01b03909116815260200160405180910390f35b6101156004803603602081101561015a57600080610157610ffd565b50505b81019060208101813564010000000081111561017e5760008061017b610ffd565b50505b82018360208201111561019957600080610196610ffd565b50505b803590602001918460208302840111640100000000831117156101c4576000806101c1610ffd565b50505b919080806020026020016040519081016040528093929190818152602001838360200280828437600092019190915250929550610606945050505050565b61011f6106de565b6101156004803603604081101561022957600080610226610ffd565b50505b6001600160a01b03823516919081019060408101602082013564010000000081111561025d5760008061025a610ffd565b50505b82018360208201111561027857600080610275610ffd565b50505b803590602001918460018302840111640100000000831117156102a3576000806102a0610ffd565b50505b91908080601f01602080910402602001604051908101604052818152929190602084018383808284376000920191909152509295506106ea945050505050565b61011560048036036020811015610302576000806102ff610ffd565b50505b81019060208101813564010000000081111561032657600080610323610ffd565b50505b8201836020820111156103415760008061033e610ffd565b50505b8035906020019184602083028401116401000000008311171561036c57600080610369610ffd565b50505b91908080602002602001604051908101604052809392919081815260200183836020028082843760009201919091525092955061085e945050505050565b610115610926565b6103ba6109db565b60405160208082528190810183818151815260200191508051906020019060200280838360005b838110156103f95780820151838201526020016103e1565b505050509050019250505060405180910390f35b610415610a62565b60405190815260200160405180910390f35b6101156004803603602081101561044657600080610443610ffd565b50505b50356001600160a01b0316610a75565b6104856004803603602081101561047557600080610472610ffd565b50505b50356001600160a01b0316610b2a565b604051901515815260200160405180910390f35b610115600480360360208110156104b8576000806104b5610ffd565b50505b50356001600160a01b0316610b52565b6104d0610bed565b60405160208082528190810183818151815260200191508051906020019080838360005b8381101561050c5780820151838201526020016104f4565b50505050905090810190601f1680156105395780820380516001836020036101000a031916815260200191505b509250505060405180910390f35b600080610552611068565b906101000a90046001600160a01b03166001600160a01b03165a6105746110c3565b6001600160a01b0316146105c65760405162461bcd60e51b815260206004820152600c60248201526b37b7363c9036b0b730b3b2b960a11b6044820152606401604051809103906105c3610ffd565b50505b6105cf81610b2a565b6105d8576105e1565b6105e181610ca1565b50565b60008060046105f1611068565b906101000a90046001600160a01b0316905090565b600080610611611068565b906101000a90046001600160a01b03166001600160a01b03165a6106336110c3565b6001600160a01b0316146106855760405162461bcd60e51b815260206004820152600c60248201526b37b7363c9036b0b730b3b2b960a11b604482015260640160405180910390610682610ffd565b50505b60005b81518110156106da576106ad8282815181106106a057fe5b6020026020010151610b2a565b6106b6576106d2565b6106d28282815181106106c557fe5b6020026020010151610ca1565b600101610688565b5050565b600080806105f1611068565b6000806106f5611068565b906101000a90046001600160a01b03166001600160a01b03165a6107176110c3565b6001600160a01b0316146107695760405162461bcd60e51b815260206004820152600c60248201526b37b7363c9036b0b730b3b2b960a11b604482015260640160405180910390610766610ffd565b50505b816000600181610777611068565b816001600160a01b0302191690836001600160a01b0316021790610799611109565b5050508060019080516107b0929160200190611157565b507f6ed15082ad038474841528b5badca105106d4463e44b5d434130dfb299aa366982826040516001600160a01b038316815260406020820181815290820183818151815260200191508051906020019080838360005b8381101561081f578082015183820152602001610807565b50505050905090810190601f16801561084c5780820380516001836020036101000a031916815260200191505b50935050505060405180910390a15050565b600080610869611068565b906101000a90046001600160a01b03166001600160a01b03165a61088b6110c3565b6001600160a01b0316146108dd5760405162461bcd60e51b815260206004820152600c60248201526b37b7363c9036b0b730b3b2b960a11b6044820152606401604051809103906108da610ffd565b50505b60005b81518110156106da576108f88282815181106106a057fe5b156109025761091e565b61091e82828151811061091157fe5b6020026020010151610e22565b6001016108e0565b600080610931611068565b906101000a90046001600160a01b03166001600160a01b03165a6109536110c3565b6001600160a01b0316146109a55760405162461bcd60e51b815260206004820152600c60248201526b37b7363c9036b0b730b3b2b960a11b6044820152606401604051809103906109a2610ffd565b50505b600060046001816109b4611068565b816001600160a01b0302191690836001600160a01b03160217906109d6611109565b505050565b60606002806109e8611068565b806020026020016040519081016040528181529190602083018280610a0b611068565b8015610a5857602002820191906000526020600020905b600082610a2d611068565b906101000a90046001600160a01b03166001600160a01b031681526020019060010190808311610a22575b5050505050905090565b6000600280610a6f611068565b91505090565b600080610a80611068565b906101000a90046001600160a01b03166001600160a01b03165a610aa26110c3565b6001600160a01b031614610af45760405162461bcd60e51b815260206004820152600c60248201526b37b7363c9036b0b730b3b2b960a11b604482015260640160405180910390610af1610ffd565b50505b806004600181610b02611068565b816001600160a01b0302191690836001600160a01b0316021790610b24611109565b50505050565b6001600160a01b0381166000908152600360205260408120610b4a611068565b151592915050565b600080610b5d611068565b906101000a90046001600160a01b03166001600160a01b03165a610b7f6110c3565b6001600160a01b031614610bd15760405162461bcd60e51b815260206004820152600c60248201526b37b7363c9036b0b730b3b2b960a11b604482015260640160405180910390610bce610ffd565b50505b610bda81610b2a565b15610be4576105e1565b6105e181610e22565b6060600180610bfa611068565b600181600116156101000203166002900480601f016020809104026020016040519081016040528181529190602083018280610c34611068565b60018160011615610100020316600290048015610a585780601f10610c6e576101008083610c60611068565b040283529160200191610a58565b820191906000526020600020905b81610c85611068565b81529060010190602001808311610c7c57509395945050505050565b6000600280610cae611068565b6001600160a01b038416600090815260036020529092509050610cde600160408320610cd8611068565b90610eae565b905060006002610cef846001610eae565b81610cf8611068565b8110610d0057fe5b90600052602060002001600090610d15611068565b906101000a90046001600160a01b031690508060028381610d34611068565b8110610d3c57fe5b90600052602060002001600181610d51611068565b816001600160a01b0302191690836001600160a01b0316021790610d73611109565b50610d8391508390506001610ef5565b6001600160a01b03821660009081526003602052604090208190610da5611109565b5050506001600160a01b03841660009081526003602052604081208190610dca611109565b505050600280610dd8611068565b80610ddf57fe5b60019003818190600052602060002001600181610dfa611068565b906001600160a01b0302191690610e0f611109565b505090610e1a611109565b505050505050565b80600280600181610e31611068565b018082610e3c611109565b505060009283526000190191602091502001600181610e59611068565b816001600160a01b0302191690836001600160a01b0316021790610e7b611109565b505050600280610e89611068565b6001600160a01b03831660009081526003602052909150604090208190610b24611109565b6000610eee838360405160408082019052601e81527f536166654d6174683a207375627472616374696f6e206f766572666c6f7700006020820152610f5d565b9392505050565b600082820183811015610eee5760405162461bcd60e51b815260206004820152601b60248201527f536166654d6174683a206164646974696f6e206f766572666c6f770000000000604482015260640160405180910390610f54610ffd565b50509392505050565b60008184841115610ff55760405162461bcd60e51b81526004018080602001828103825283818151815260200191508051906020019080838360005b83811015610fb1578082015183820152602001610f99565b50505050905090810190601f168015610fde5780820380516001836020036101000a031916815260200191505b509250505060405180910390610ff2610ffd565b50505b505050900390565b632a2a7adb598160e01b8152600481016020815285602082015260005b8681101561103557808601518282016040015260200161101a565b506020828760640184336000905af158600e01573d6000803e3d6000fd5b3d6001141558600a015760016000f35b505050565b6303daa959598160e01b8152836004820152602081602483336000905af158600e01573d6000803e3d6000fd5b3d6001141558600a015760016000f35b8051935060005b60408110156109d6576000828201526020016110ac565b6373509064598160e01b8152602081600483336000905af158600e01573d6000803e3d6000fd5b3d6001141558600a015760016000f35b805160008252935060206110ac565b6322bd64c0598160e01b8152836004820152846024820152600081604483336000905af158600e01573d6000803e3d6000fd5b3d6001141558600a015760016000f35b6000815260206110ac565b8280611161611068565b600181600116156101000203166002900490600052602060002090601f016020900481019282601f106111a857805160ff191683800117856111a1611109565b50506111e7565b828001600101856111b7611109565b505082156111e7579182015b828111156111e7578251826111d6611109565b5050916020019190600101906111c3565b506111f39291506111f7565b5090565b808211156111f3576000808261120b611109565b5050506001016111f756",
  "deployedBytecode": "0x608060405234801561001957600080610016610ffd565b50505b50600436106100d85760003560e01c80637c8afd5111610095578063a6bc18f91161006f578063a6bc18f914610427578063bbbf725b14610456578063ca6d56dc14610499578063fed4416a146104c8576100d8565b80637c8afd51146103aa5780639eab5253146103b2578063a30e3fa91461040d576100d8565b80630b1ca49a146100e65780631758078b1461011757806346ee84b01461013b578063481c6a7514610202578063522136631461020a5780636f4d469b146102e3575b6000806100e3610ffd565b50505b6101156004803603602081101561010557600080610102610ffd565b50505b50356001600160a01b0316610547565b005b61011f6105e4565b6040516001600160a01b03909116815260200160405180910390f35b6101156004803603602081101561015a57600080610157610ffd565b50505b81019060208101813564010000000081111561017e5760008061017b610ffd565b50505b82018360208201111561019957600080610196610ffd565b50505b803590602001918460208302840111640100000000831117156101c4576000806101c1610ffd565b50505b919080806020026020016040519081016040528093929190818152602001838360200280828437600092019190915250929550610606945050505050565b61011f6106de565b6101156004803603604081101561022957600080610226610ffd565b50505b6001600160a01b03823516919081019060408101602082013564010000000081111561025d5760008061025a610ffd565b50505b82018360208201111561027857600080610275610ffd565b50505b803590602001918460018302840111640100000000831117156102a3576000806102a0610ffd565b50505b91908080601f01602080910402602001604051908101604052818152929190602084018383808284376000920191909152509295506106ea945050505050565b61011560048036036020811015610302576000806102ff610ffd565b50505b81019060208101813564010000000081111561032657600080610323610ffd565b50505b8201836020820111156103415760008061033e610ffd565b50505b8035906020019184602083028401116401000000008311171561036c57600080610369610ffd565b50505b91908080602002602001604051908101604052809392919081815260200183836020028082843760009201919091525092955061085e945050505050565b610115610926565b6103ba6109db565b60405160208082528190810183818151815260200191508051906020019060200280838360005b838110156103f95780820151838201526020016103e1565b505050509050019250505060405180910390f35b610415610a62565b60405190815260200160405180910390f35b6101156004803603602081101561044657600080610443610ffd565b50505b50356001600160a01b0316610a75565b6104856004803603602081101561047557600080610472610ffd565b50505b50356001600160a01b0316610b2a565b604051901515815260200160405180910390f35b610115600480360360208110156104b8576000806104b5610ffd565b50505b50356001600160a01b0316610b52565b6104d0610bed565b60405160208082528190810183818151815260200191508051906020019080838360005b8381101561050c5780820151838201526020016104f4565b50505050905090810190601f1680156105395780820380516001836020036101000a031916815260200191505b509250505060405180910390f35b600080610552611068565b906101000a90046001600160a01b03166001600160a01b03165a6105746110c3565b6001600160a01b0316146105c65760405162461bcd60e51b815260206004820152600c60248201526b37b7363c9036b0b730b3b2b960a11b6044820152606401604051809103906105c3610ffd565b50505b6105cf81610b2a565b6105d8576105e1565b6105e181610ca1565b50565b60008060046105f1611068565b906101000a90046001600160a01b0316905090565b600080610611611068565b906101000a90046001600160a01b03166001600160a01b03165a6106336110c3565b6001600160a01b0316146106855760405162461bcd60e51b815260206004820152600c60248201526b37b7363c9036b0b730b3b2b960a11b604482015260640160405180910390610682610ffd565b50505b60005b81518110156106da576106ad8282815181106106a057fe5b6020026020010151610b2a565b6106b6576106d2565b6106d28282815181106106c557fe5b6020026020010151610ca1565b600101610688565b5050565b600080806105f1611068565b6000806106f5611068565b906101000a90046001600160a01b03166001600160a01b03165a6107176110c3565b6001600160a01b0316146107695760405162461bcd60e51b815260206004820152600c60248201526b37b7363c9036b0b730b3b2b960a11b604482015260640160405180910390610766610ffd565b50505b816000600181610777611068565b816001600160a01b0302191690836001600160a01b0316021790610799611109565b5050508060019080516107b0929160200190611157565b507f6ed15082ad038474841528b5badca105106d4463e44b5d434130dfb299aa366982826040516001600160a01b038316815260406020820181815290820183818151815260200191508051906020019080838360005b8381101561081f578082015183820152602001610807565b50505050905090810190601f16801561084c5780820380516001836020036101000a031916815260200191505b50935050505060405180910390a15050565b600080610869611068565b906101000a90046001600160a01b03166001600160a01b03165a61088b6110c3565b6001600160a01b0316146108dd5760405162461bcd60e51b815260206004820152600c60248201526b37b7363c9036b0b730b3b2b960a11b6044820152606401604051809103906108da610ffd565b50505b60005b81518110156106da576108f88282815181106106a057fe5b156109025761091e565b61091e82828151811061091157fe5b6020026020010151610e22565b6001016108e0565b600080610931611068565b906101000a90046001600160a01b03166001600160a01b03165a6109536110c3565b6001600160a01b0316146109a55760405162461bcd60e51b815260206004820152600c60248201526b37b7363c9036b0b730b3b2b960a11b6044820152606401604051809103906109a2610ffd565b50505b600060046001816109b4611068565b816001600160a01b0302191690836001600160a01b03160217906109d6611109565b505050565b60606002806109e8611068565b806020026020016040519081016040528181529190602083018280610a0b611068565b8015610a5857602002820191906000526020600020905b600082610a2d611068565b906101000a90046001600160a01b03166001600160a01b031681526020019060010190808311610a22575b5050505050905090565b6000600280610a6f611068565b91505090565b600080610a80611068565b906101000a90046001600160a01b03166001600160a01b03165a610aa26110c3565b6001600160a01b031614610af45760405162461bcd60e51b815260206004820152600c60248201526b37b7363c9036b0b730b3b2b960a11b604482015260640160405180910390610af1610ffd565b50505b806004600181610b02611068565b816001600160a01b0302191690836001600160a01b0316021790610b24611109565b50505050565b6001600160a01b0381166000908152600360205260408120610b4a611068565b151592915050565b600080610b5d611068565b906101000a90046001600160a01b03166001600160a01b03165a610b7f6110c3565b6001600160a01b031614610bd15760405162461bcd60e51b815260206004820152600c60248201526b37b7363c9036b0b730b3b2b960a11b604482015260640160405180910390610bce610ffd565b50505b610bda81610b2a565b15610be4576105e1565b6105e181610e22565b6060600180610bfa611068565b600181600116156101000203166002900480601f016020809104026020016040519081016040528181529190602083018280610c34611068565b60018160011615610100020316600290048015610a585780601f10610c6e576101008083610c60611068565b040283529160200191610a58565b820191906000526020600020905b81610c85611068565b81529060010190602001808311610c7c57509395945050505050565b6000600280610cae611068565b6001600160a01b038416600090815260036020529092509050610cde600160408320610cd8611068565b90610eae565b905060006002610cef846001610eae565b81610cf8611068565b8110610d0057fe5b90600052602060002001600090610d15611068565b906101000a90046001600160a01b031690508060028381610d34611068565b8110610d3c57fe5b90600052602060002001600181610d51611068565b816001600160a01b0302191690836001600160a01b0316021790610d73611109565b50610d8391508390506001610ef5565b6001600160a01b03821660009081526003602052604090208190610da5611109565b5050506001600160a01b03841660009081526003602052604081208190610dca611109565b505050600280610dd8611068565b80610ddf57fe5b60019003818190600052602060002001600181610dfa611068565b906001600160a01b0302191690610e0f611109565b505090610e1a611109565b505050505050565b80600280600181610e31611068565b018082610e3c611109565b505060009283526000190191602091502001600181610e59611068565b816001600160a01b0302191690836001600160a01b0316021790610e7b611109565b505050600280610e89611068565b6001600160a01b03831660009081526003602052909150604090208190610b24611109565b6000610eee838360405160408082019052601e81527f536166654d6174683a207375627472616374696f6e206f766572666c6f7700006020820152610f5d565b9392505050565b600082820183811015610eee5760405162461bcd60e51b815260206004820152601b60248201527f536166654d6174683a206164646974696f6e206f766572666c6f770000000000604482015260640160405180910390610f54610ffd565b50509392505050565b60008184841115610ff55760405162461bcd60e51b81526004018080602001828103825283818151815260200191508051906020019080838360005b83811015610fb1578082015183820152602001610f99565b50505050905090810190601f168015610fde5780820380516001836020036101000a031916815260200191505b509250505060405180910390610ff2610ffd565b50505b505050900390565b632a2a7adb598160e01b8152600481016020815285602082015260005b8681101561103557808601518282016040015260200161101a565b506020828760640184336000905af158601d01573d60011458600c01573d6000803e3d621234565260ea61109c52505050565b6303daa959598160e01b8152836004820152602081602483336000905af158601d01573d60011458600c01573d6000803e3d621234565260ea61109c528051935060005b60408110156109d6576000828201526020016110ac565b6373509064598160e01b8152602081600483336000905af158601d01573d60011458600c01573d6000803e3d621234565260ea61109c52805160008252935060206110ac565b6322bd64c0598160e01b8152836004820152846024820152600081604483336000905af158601d01573d60011458600c01573d6000803e3d621234565260ea61109c526000815260206110ac565b8280611161611068565b600181600116156101000203166002900490600052602060002090601f016020900481019282601f106111a857805160ff191683800117856111a1611109565b50506111e7565b828001600101856111b7611109565b505082156111e7579182015b828111156111e7578251826111d6611109565b5050916020019190600101906111c3565b506111f39291506111f7565b5090565b808211156111f3576000808261120b611109565b5050506001016111f756",
  "linkReferences": {},
  "deployedLinkReferences": {}
}