{
  "_format": "hh-sol-artifact-1",
  "contractName": "ERC20Guard-ovm",
  "sourceName": "contracts/guards/ERC20Guard.sol",
  "abi": [
    {
      "anonymous": false,
      "inputs": [
        {
          "indexed": false,
          "internalType": "address",
          "name": "fundAddress",
          "type": "address"
        },
        {
          "indexed": false,
          "internalType": "address",
          "name": "manager",
          "type": "address"
        },
        {
          "indexed": false,
          "internalType": "address",
          "name": "spender",
          "type": "address"
        },
        {
          "indexed": false,
          "internalType": "uint256",
          "name": "amount",
          "type": "uint256"
        },
        {
          "indexed": false,
          "internalType": "uint256",
          "name": "time",
          "type": "uint256"
        }
      ],
      "name": "Approve",
      "type": "event"
    },
    {
      "anonymous": false,
      "inputs": [
        {
          "indexed": false,
          "internalType": "address",
          "name": "fundAddress",
          "type": "address"
        },
        {
          "indexed": false,
          "internalType": "address",
          "name": "sourceAsset",
          "type": "address"
        },
        {
          "indexed": false,
          "internalType": "uint256",
          "name": "sourceAmount",
          "type": "uint256"
        },
        {
          "indexed": false,
          "internalType": "address",
          "name": "destinationAddress",
          "type": "address"
        },
        {
          "indexed": false,
          "internalType": "uint256",
          "name": "time",
          "type": "uint256"
        }
      ],
      "name": "Exchange",
      "type": "event"
    },
    {
      "inputs": [
        {
          "internalType": "bytes32",
          "name": "data",
          "type": "bytes32"
        }
      ],
      "name": "convert32toAddress",
      "outputs": [
        {
          "internalType": "address",
          "name": "o",
          "type": "address"
        }
      ],
      "stateMutability": "pure",
      "type": "function"
    },
    {
      "inputs": [
        {
          "internalType": "bytes",
          "name": "data",
          "type": "bytes"
        },
        {
          "internalType": "uint8",
          "name": "inputNum",
          "type": "uint8"
        },
        {
          "internalType": "uint8",
          "name": "arrayIndex",
          "type": "uint8"
        }
      ],
      "name": "getArrayIndex",
      "outputs": [
        {
          "internalType": "bytes32",
          "name": "",
          "type": "bytes32"
        }
      ],
      "stateMutability": "pure",
      "type": "function"
    },
    {
      "inputs": [
        {
          "internalType": "bytes",
          "name": "data",
          "type": "bytes"
        },
        {
          "internalType": "uint8",
          "name": "inputNum",
          "type": "uint8"
        }
      ],
      "name": "getArrayLast",
      "outputs": [
        {
          "internalType": "bytes32",
          "name": "",
          "type": "bytes32"
        }
      ],
      "stateMutability": "pure",
      "type": "function"
    },
    {
      "inputs": [
        {
          "internalType": "bytes",
          "name": "data",
          "type": "bytes"
        },
        {
          "internalType": "uint8",
          "name": "inputNum",
          "type": "uint8"
        }
      ],
      "name": "getArrayLength",
      "outputs": [
        {
          "internalType": "uint256",
          "name": "",
          "type": "uint256"
        }
      ],
      "stateMutability": "pure",
      "type": "function"
    },
    {
      "inputs": [
        {
          "internalType": "bytes",
          "name": "data",
          "type": "bytes"
        },
        {
          "internalType": "uint8",
          "name": "inputNum",
          "type": "uint8"
        },
        {
          "internalType": "uint256",
          "name": "offset",
          "type": "uint256"
        }
      ],
      "name": "getBytes",
      "outputs": [
        {
          "internalType": "bytes",
          "name": "",
          "type": "bytes"
        }
      ],
      "stateMutability": "pure",
      "type": "function"
    },
    {
      "inputs": [
        {
          "internalType": "bytes",
          "name": "data",
          "type": "bytes"
        },
        {
          "internalType": "uint8",
          "name": "inputNum",
          "type": "uint8"
        }
      ],
      "name": "getInput",
      "outputs": [
        {
          "internalType": "bytes32",
          "name": "",
          "type": "bytes32"
        }
      ],
      "stateMutability": "pure",
      "type": "function"
    },
    {
      "inputs": [
        {
          "internalType": "bytes",
          "name": "data",
          "type": "bytes"
        }
      ],
      "name": "getMethod",
      "outputs": [
        {
          "internalType": "bytes4",
          "name": "",
          "type": "bytes4"
        }
      ],
      "stateMutability": "pure",
      "type": "function"
    },
    {
      "inputs": [
        {
          "internalType": "bytes",
          "name": "data",
          "type": "bytes"
        }
      ],
      "name": "getParams",
      "outputs": [
        {
          "internalType": "bytes",
          "name": "",
          "type": "bytes"
        }
      ],
      "stateMutability": "pure",
      "type": "function"
    },
    {
      "inputs": [
        {
          "internalType": "bytes",
          "name": "data",
          "type": "bytes"
        },
        {
          "internalType": "uint256",
          "name": "offset",
          "type": "uint256"
        },
        {
          "internalType": "uint256",
          "name": "length",
          "type": "uint256"
        }
      ],
      "name": "read32",
      "outputs": [
        {
          "internalType": "bytes32",
          "name": "o",
          "type": "bytes32"
        }
      ],
      "stateMutability": "pure",
      "type": "function"
    },
    {
      "inputs": [
        {
          "internalType": "bytes",
          "name": "data",
          "type": "bytes"
        },
        {
          "internalType": "uint256",
          "name": "offset",
          "type": "uint256"
        }
      ],
      "name": "read4left",
      "outputs": [
        {
          "internalType": "bytes4",
          "name": "o",
          "type": "bytes4"
        }
      ],
      "stateMutability": "pure",
      "type": "function"
    },
    {
      "inputs": [
        {
          "internalType": "address",
          "name": "pool",
          "type": "address"
        },
        {
          "internalType": "bytes",
          "name": "data",
          "type": "bytes"
        }
      ],
      "name": "txGuard",
      "outputs": [
        {
          "internalType": "bool",
          "name": "",
          "type": "bool"
        }
      ],
      "stateMutability": "nonpayable",
      "type": "function"
    }
  ],
  "bytecode": "0x60806040523480156100195760008061001661001f565b50505b5061008a565b632a2a7adb598160e01b8152600481016020815285602082015260005b8681101561005757808601518282016040015260200161003c565b506020828760640184336000905af158600e01573d6000803e3d6000fd5b3d6001141558600a015760016000f35b505050565b6114bc806100996000396000f3fe6080604052348015610019576000806100166112c0565b50505b50600436106100b25760003560e01c8063689015131161007a57806368901513146104e357806382f86acc146105aa578063998546e314610676578063c3c6279f14610742578063db896b5714610809578063e23ff437146108d5576100b2565b806309ff5c7d146100c05780631053f9521461019e5780631eba3077146102e4578063293d80631461032657806341dc16c31461040c575b6000806100bd6112c0565b50505b61018c600480360360408110156100df576000806100dc6112c0565b50505b810190602081018135600160201b811115610102576000806100ff6112c0565b50505b82018360208201111561011d5760008061011a6112c0565b50505b803590602001918460018302840111600160201b83111715610147576000806101446112c0565b50505b91908080601f01602080910402602001604051908101604052818152929190602084018383808284376000920191909152509295505050903560ff16915061098b9050565b60405190815260200160405180910390f35b61026d600480360360608110156101bd576000806101ba6112c0565b50505b810190602081018135600160201b8111156101e0576000806101dd6112c0565b50505b8201836020820111156101fb576000806101f86112c0565b50505b803590602001918460018302840111600160201b83111715610225576000806102226112c0565b50505b91908080601f01602080910402602001604051908101604052818152929190602084018383808284376000920191909152509295505060ff8335169350505060200135610a26565b60405160208082528190810183818151815260200191508051906020019080838360005b838110156102a9578082015183820152602001610291565b50505050905090810190601f1680156102d65780820380516001836020036101000a031916815260200191505b509250505060405180910390f35b61030a60048036036020811015610303576000806103006112c0565b50505b5035610ac8565b6040516001600160a01b03909116815260200160405180910390f35b6103ef60048036036040811015610345576000806103426112c0565b50505b810190602081018135600160201b811115610368576000806103656112c0565b50505b820183602082011115610383576000806103806112c0565b50505b803590602001918460018302840111600160201b831117156103ad576000806103aa6112c0565b50505b91908080601f01602080910402602001604051908101604052818152929190602084018383808284376000920191909152509295505091359250610acb915050565b6040516001600160e01b0319909116815260200160405180910390f35b61018c6004803603606081101561042b576000806104286112c0565b50505b810190602081018135600160201b81111561044e5760008061044b6112c0565b50505b820183602082011115610469576000806104666112c0565b50505b803590602001918460018302840111600160201b83111715610493576000806104906112c0565b50505b91908080601f01602080910402602001604051908101604052818152929190602084018383808284376000920191909152509295505060ff8335811694506020909301359092169150610b3c9050565b61026d60048036036020811015610502576000806104ff6112c0565b50505b810190602081018135600160201b811115610525576000806105226112c0565b50505b8201836020820111156105405760008061053d6112c0565b50505b803590602001918460018302840111600160201b8311171561056a576000806105676112c0565b50505b91908080601f0160208091040260200160405190810160405281815292919060208401838380828437600092019190915250929550610c2a945050505050565b61018c600480360360408110156105c9576000806105c66112c0565b50505b810190602081018135600160201b8111156105ec576000806105e96112c0565b50505b820183602082011115610607576000806106046112c0565b50505b803590602001918460018302840111600160201b831117156106315760008061062e6112c0565b50505b91908080601f01602080910402602001604051908101604052818152929190602084018383808284376000920191909152509295505050903560ff169150610c3e9050565b61018c60048036036040811015610695576000806106926112c0565b50505b810190602081018135600160201b8111156106b8576000806106b56112c0565b50505b8201836020820111156106d3576000806106d06112c0565b50505b803590602001918460018302840111600160201b831117156106fd576000806106fa6112c0565b50505b91908080601f01602080910402602001604051908101604052818152929190602084018383808284376000920191909152509295505050903560ff169150610c559050565b6103ef600480360360208110156107615760008061075e6112c0565b50505b810190602081018135600160201b811115610784576000806107816112c0565b50505b82018360208201111561079f5760008061079c6112c0565b50505b803590602001918460018302840111600160201b831117156107c9576000806107c66112c0565b50505b91908080601f0160208091040260200160405190810160405281815292919060208401838380828437600092019190915250929550610c86945050505050565b61018c60048036036060811015610828576000806108256112c0565b50505b810190602081018135600160201b81111561084b576000806108486112c0565b50505b820183602082011115610866576000806108636112c0565b50505b803590602001918460018302840111600160201b831117156108905760008061088d6112c0565b50505b91908080601f01602080910402602001604051908101604052818152929190602084018383808284376000920191909152509295505082359350505060200135610c93565b610977600480360360408110156108f4576000806108f16112c0565b50505b6001600160a01b038235169190810190604081016020820135600160201b811115610927576000806109246112c0565b50505b8201836020820111156109425760008061093f6112c0565b50505b803590602001918460018302840111600160201b8311171561096c576000806109696112c0565b50505b509092509050610d1c565b604051901515815260200160405180910390f35b6000806109a3848460200260040160ff166020610c93565b905060006109b685600484016020610c93565b905080610a075760405162461bcd60e51b8152602060048201526012602482015271696e707574206973206e6f7420617272617960701b604482015260640160405180910390610a046112c0565b50505b610a1b856020808402850160040190610c93565b925050505b92915050565b606060148210610a765760405162461bcd60e51b815260206004820152600e60248201526d1a5b9d985b1a59081bd9999cd95d60921b604482015260640160405180910390610a736112c0565b50505b8160200291506000610a9585848660200260040160ff16016020610c93565b90506000610aaa868584016004016020610c93565b9050610abc8660248487010183611157565b925050505b9392505050565b90565b60008160040183511015610b2e5760405162461bcd60e51b815260206004820152601b60248201527f52656164696e67206279746573206f7574206f6620626f756e64730000000000604482015260640160405180910390610b2b6112c0565b50505b816020018301519392505050565b600080610b54858560200260040160ff166020610c93565b90506000610b6786600484016020610c93565b905080610bb85760405162461bcd60e51b8152602060048201526012602482015271696e707574206973206e6f7420617272617960701b604482015260640160405180910390610bb56112c0565b50505b60ff84168111610c105760405162461bcd60e51b815260206004820152601660248201527534b73b30b634b21030b93930bc903837b9b4ba34b7b760511b604482015260640160405180910390610c0d6112c0565b50505b610abc866020600160ff8816018102850160040190610c93565b6060610a2060048084518592919003611157565b6000610ac1838360200260040160ff166020610c93565b600080610c6d848460200260040160ff166020610c93565b9050610c7e84600483016020610c93565b949350505050565b6000610a20826000610acb565b600081830184511015610cf55760405162461bcd60e51b815260206004820152601b60248201527f52656164696e67206279746573206f7574206f6620626f756e64730000000000604482015260640160405180910390610cf26112c0565b50505b826020018401519050816020038015610d14576008810260020a820491505b509392505050565b600080610d5d84848080601f0160208091040260200160405190810160405281815292919060208401838380828437600092019190915250610c8692505050565b90506001600160e01b0319811663095ea7b360e01b141561114c576000610dc0610dbb86868080601f016020809104026020016040519081016040528181529291906020840183838082843760009201829052509250610c3e915050565b610ac8565b90506000610e0586868080601f016020809104026020016040519081016040528181529291906020840183838082843760009201919091525060019250610c3e915050565b90508660006001600160a01b03821663c45a01556040518163ffffffff1660e01b81526004016020604051808303818680610e3e61132b565b158015610e5357600080610e506112c0565b50505b505a610e5d61138b565b5050505050158015610e7c573d6000803e3d6000610e796112c0565b50505b505050506040513d6020811015610e9b57600080610e986112c0565b50505b810190808051935060009250506001600160a01b0383169050637027ea6c866040516001600160e01b031960e084901b1681526001600160a01b0390911660048201526024016020604051808303818680610ef461132b565b158015610f0957600080610f066112c0565b50505b505a610f1361138b565b5050505050158015610f32573d6000803e3d6000610f2f6112c0565b50505b505050506040513d6020811015610f5157600080610f4e6112c0565b50505b81019080805193505050506001600160a01b03811615801590610fde57505a63996d79a5598160e01b8152602081600483336000905af158600e01573d6000803e3d6000fd5b3d6001141558600a015760016000f35b8051925060005b6040811015610fc557600082820152602001610fae565b5050506001600160a01b0316816001600160a01b031614155b6110375760405162461bcd60e51b815260206004820152601c60248201527f756e737570706f72746564207370656e64657220617070726f76616c000000006044820152606401604051809103906110346112c0565b50505b7f5343b378d69227c1bc2016fd44e8104f0ffa7729f4f4f4110e349a2db0a0d0c8838b6001600160a01b031663481c6a756040518163ffffffff1660e01b8152600401602060405180830381868061108d61132b565b1580156110a25760008061109f6112c0565b50505b505a6110ac61138b565b50505050501580156110cb573d6000803e3d60006110c86112c0565b50505b505050506040513d60208110156110ea576000806110e76112c0565b50505b81019080805192508991508890505a611101611476565b6040516001600160a01b0395861681529385166020850152919093166040808401919091526060830193909352608082015260a001905180910390a160019650505050505050610ac1565b506000949350505050565b60608182601f0110156111aa5760405162461bcd60e51b815260206004820152600e60248201526d736c6963655f6f766572666c6f7760901b6044820152606401604051809103906111a76112c0565b50505b8282840110156111fa5760405162461bcd60e51b815260206004820152600e60248201526d736c6963655f6f766572666c6f7760901b6044820152606401604051809103906111f76112c0565b50505b8183018451101561124e5760405162461bcd60e51b8152602060048201526011602482015270736c6963655f6f75744f66426f756e647360781b60448201526064016040518091039061124b6112c0565b50505b60608215801561126d57604051915060008252602082016040526112b7565b6040519150601f8416801560200281840101858101878315602002848b0101015b818310156112a657805183526020928301920161128e565b5050858452601f01601f1916604052505b50949350505050565b632a2a7adb598160e01b8152600481016020815285602082015260005b868110156112f85780860151828201604001526020016112dd565b506020828760640184336000905af158600e01573d6000803e3d6000fd5b3d6001141558600a015760016000f35b505050565b638435035b598160e01b8152836004820152602081602483336000905af158600e01573d6000803e3d6000fd5b3d6001141558600a015760016000f35b8051935060005b60408110156113865760008282015260200161136f565b505050565b638540661f598160e01b81526113bc565b8080831115610a20575090919050565b8080831015610a20575090919050565b836004820152846024820152606060448201528660648201526084810160005b888110156113f45780880151828201526020016113dc565b506060828960a40184336000905af158600e01573d6000803e3d6000fd5b3d6001141558600a015760016000f35b815160408301513d6000853e8b8b82606087013350600060045af150596114498d3d6113ac565b8c01611455818761139c565b5b8281101561146a5760008152602001611456565b50929c50505050505050565b63bdbf8c36598160e01b8152602081600483336000905af158600e01573d6000803e3d6000fd5b3d6001141558600a015760016000f35b8051600082529350602061136f56",
  "deployedBytecode": "0x6080604052348015610019576000806100166112c0565b50505b50600436106100b25760003560e01c8063689015131161007a57806368901513146104e357806382f86acc146105aa578063998546e314610676578063c3c6279f14610742578063db896b5714610809578063e23ff437146108d5576100b2565b806309ff5c7d146100c05780631053f9521461019e5780631eba3077146102e4578063293d80631461032657806341dc16c31461040c575b6000806100bd6112c0565b50505b61018c600480360360408110156100df576000806100dc6112c0565b50505b810190602081018135600160201b811115610102576000806100ff6112c0565b50505b82018360208201111561011d5760008061011a6112c0565b50505b803590602001918460018302840111600160201b83111715610147576000806101446112c0565b50505b91908080601f01602080910402602001604051908101604052818152929190602084018383808284376000920191909152509295505050903560ff16915061098b9050565b60405190815260200160405180910390f35b61026d600480360360608110156101bd576000806101ba6112c0565b50505b810190602081018135600160201b8111156101e0576000806101dd6112c0565b50505b8201836020820111156101fb576000806101f86112c0565b50505b803590602001918460018302840111600160201b83111715610225576000806102226112c0565b50505b91908080601f01602080910402602001604051908101604052818152929190602084018383808284376000920191909152509295505060ff8335169350505060200135610a26565b60405160208082528190810183818151815260200191508051906020019080838360005b838110156102a9578082015183820152602001610291565b50505050905090810190601f1680156102d65780820380516001836020036101000a031916815260200191505b509250505060405180910390f35b61030a60048036036020811015610303576000806103006112c0565b50505b5035610ac8565b6040516001600160a01b03909116815260200160405180910390f35b6103ef60048036036040811015610345576000806103426112c0565b50505b810190602081018135600160201b811115610368576000806103656112c0565b50505b820183602082011115610383576000806103806112c0565b50505b803590602001918460018302840111600160201b831117156103ad576000806103aa6112c0565b50505b91908080601f01602080910402602001604051908101604052818152929190602084018383808284376000920191909152509295505091359250610acb915050565b6040516001600160e01b0319909116815260200160405180910390f35b61018c6004803603606081101561042b576000806104286112c0565b50505b810190602081018135600160201b81111561044e5760008061044b6112c0565b50505b820183602082011115610469576000806104666112c0565b50505b803590602001918460018302840111600160201b83111715610493576000806104906112c0565b50505b91908080601f01602080910402602001604051908101604052818152929190602084018383808284376000920191909152509295505060ff8335811694506020909301359092169150610b3c9050565b61026d60048036036020811015610502576000806104ff6112c0565b50505b810190602081018135600160201b811115610525576000806105226112c0565b50505b8201836020820111156105405760008061053d6112c0565b50505b803590602001918460018302840111600160201b8311171561056a576000806105676112c0565b50505b91908080601f0160208091040260200160405190810160405281815292919060208401838380828437600092019190915250929550610c2a945050505050565b61018c600480360360408110156105c9576000806105c66112c0565b50505b810190602081018135600160201b8111156105ec576000806105e96112c0565b50505b820183602082011115610607576000806106046112c0565b50505b803590602001918460018302840111600160201b831117156106315760008061062e6112c0565b50505b91908080601f01602080910402602001604051908101604052818152929190602084018383808284376000920191909152509295505050903560ff169150610c3e9050565b61018c60048036036040811015610695576000806106926112c0565b50505b810190602081018135600160201b8111156106b8576000806106b56112c0565b50505b8201836020820111156106d3576000806106d06112c0565b50505b803590602001918460018302840111600160201b831117156106fd576000806106fa6112c0565b50505b91908080601f01602080910402602001604051908101604052818152929190602084018383808284376000920191909152509295505050903560ff169150610c559050565b6103ef600480360360208110156107615760008061075e6112c0565b50505b810190602081018135600160201b811115610784576000806107816112c0565b50505b82018360208201111561079f5760008061079c6112c0565b50505b803590602001918460018302840111600160201b831117156107c9576000806107c66112c0565b50505b91908080601f0160208091040260200160405190810160405281815292919060208401838380828437600092019190915250929550610c86945050505050565b61018c60048036036060811015610828576000806108256112c0565b50505b810190602081018135600160201b81111561084b576000806108486112c0565b50505b820183602082011115610866576000806108636112c0565b50505b803590602001918460018302840111600160201b831117156108905760008061088d6112c0565b50505b91908080601f01602080910402602001604051908101604052818152929190602084018383808284376000920191909152509295505082359350505060200135610c93565b610977600480360360408110156108f4576000806108f16112c0565b50505b6001600160a01b038235169190810190604081016020820135600160201b811115610927576000806109246112c0565b50505b8201836020820111156109425760008061093f6112c0565b50505b803590602001918460018302840111600160201b8311171561096c576000806109696112c0565b50505b509092509050610d1c565b604051901515815260200160405180910390f35b6000806109a3848460200260040160ff166020610c93565b905060006109b685600484016020610c93565b905080610a075760405162461bcd60e51b8152602060048201526012602482015271696e707574206973206e6f7420617272617960701b604482015260640160405180910390610a046112c0565b50505b610a1b856020808402850160040190610c93565b925050505b92915050565b606060148210610a765760405162461bcd60e51b815260206004820152600e60248201526d1a5b9d985b1a59081bd9999cd95d60921b604482015260640160405180910390610a736112c0565b50505b8160200291506000610a9585848660200260040160ff16016020610c93565b90506000610aaa868584016004016020610c93565b9050610abc8660248487010183611157565b925050505b9392505050565b90565b60008160040183511015610b2e5760405162461bcd60e51b815260206004820152601b60248201527f52656164696e67206279746573206f7574206f6620626f756e64730000000000604482015260640160405180910390610b2b6112c0565b50505b816020018301519392505050565b600080610b54858560200260040160ff166020610c93565b90506000610b6786600484016020610c93565b905080610bb85760405162461bcd60e51b8152602060048201526012602482015271696e707574206973206e6f7420617272617960701b604482015260640160405180910390610bb56112c0565b50505b60ff84168111610c105760405162461bcd60e51b815260206004820152601660248201527534b73b30b634b21030b93930bc903837b9b4ba34b7b760511b604482015260640160405180910390610c0d6112c0565b50505b610abc866020600160ff8816018102850160040190610c93565b6060610a2060048084518592919003611157565b6000610ac1838360200260040160ff166020610c93565b600080610c6d848460200260040160ff166020610c93565b9050610c7e84600483016020610c93565b949350505050565b6000610a20826000610acb565b600081830184511015610cf55760405162461bcd60e51b815260206004820152601b60248201527f52656164696e67206279746573206f7574206f6620626f756e64730000000000604482015260640160405180910390610cf26112c0565b50505b826020018401519050816020038015610d14576008810260020a820491505b509392505050565b600080610d5d84848080601f0160208091040260200160405190810160405281815292919060208401838380828437600092019190915250610c8692505050565b90506001600160e01b0319811663095ea7b360e01b141561114c576000610dc0610dbb86868080601f016020809104026020016040519081016040528181529291906020840183838082843760009201829052509250610c3e915050565b610ac8565b90506000610e0586868080601f016020809104026020016040519081016040528181529291906020840183838082843760009201919091525060019250610c3e915050565b90508660006001600160a01b03821663c45a01556040518163ffffffff1660e01b81526004016020604051808303818680610e3e61132b565b158015610e5357600080610e506112c0565b50505b505a610e5d61138b565b5050505050158015610e7c573d6000803e3d6000610e796112c0565b50505b505050506040513d6020811015610e9b57600080610e986112c0565b50505b810190808051935060009250506001600160a01b0383169050637027ea6c866040516001600160e01b031960e084901b1681526001600160a01b0390911660048201526024016020604051808303818680610ef461132b565b158015610f0957600080610f066112c0565b50505b505a610f1361138b565b5050505050158015610f32573d6000803e3d6000610f2f6112c0565b50505b505050506040513d6020811015610f5157600080610f4e6112c0565b50505b81019080805193505050506001600160a01b03811615801590610fde57505a63996d79a5598160e01b8152602081600483336000905af158601d01573d60011458600c01573d6000803e3d621234565260ea61109c528051925060005b6040811015610fc557600082820152602001610fae565b5050506001600160a01b0316816001600160a01b031614155b6110375760405162461bcd60e51b815260206004820152601c60248201527f756e737570706f72746564207370656e64657220617070726f76616c000000006044820152606401604051809103906110346112c0565b50505b7f5343b378d69227c1bc2016fd44e8104f0ffa7729f4f4f4110e349a2db0a0d0c8838b6001600160a01b031663481c6a756040518163ffffffff1660e01b8152600401602060405180830381868061108d61132b565b1580156110a25760008061109f6112c0565b50505b505a6110ac61138b565b50505050501580156110cb573d6000803e3d60006110c86112c0565b50505b505050506040513d60208110156110ea576000806110e76112c0565b50505b81019080805192508991508890505a611101611476565b6040516001600160a01b0395861681529385166020850152919093166040808401919091526060830193909352608082015260a001905180910390a160019650505050505050610ac1565b506000949350505050565b60608182601f0110156111aa5760405162461bcd60e51b815260206004820152600e60248201526d736c6963655f6f766572666c6f7760901b6044820152606401604051809103906111a76112c0565b50505b8282840110156111fa5760405162461bcd60e51b815260206004820152600e60248201526d736c6963655f6f766572666c6f7760901b6044820152606401604051809103906111f76112c0565b50505b8183018451101561124e5760405162461bcd60e51b8152602060048201526011602482015270736c6963655f6f75744f66426f756e647360781b60448201526064016040518091039061124b6112c0565b50505b60608215801561126d57604051915060008252602082016040526112b7565b6040519150601f8416801560200281840101858101878315602002848b0101015b818310156112a657805183526020928301920161128e565b5050858452601f01601f1916604052505b50949350505050565b632a2a7adb598160e01b8152600481016020815285602082015260005b868110156112f85780860151828201604001526020016112dd565b506020828760640184336000905af158601d01573d60011458600c01573d6000803e3d621234565260ea61109c52505050565b638435035b598160e01b8152836004820152602081602483336000905af158601d01573d60011458600c01573d6000803e3d621234565260ea61109c528051935060005b60408110156113865760008282015260200161136f565b505050565b638540661f598160e01b81526113bc565b8080831115610a20575090919050565b8080831015610a20575090919050565b836004820152846024820152606060448201528660648201526084810160005b888110156113f45780880151828201526020016113dc565b506060828960a40184336000905af158601d01573d60011458600c01573d6000803e3d621234565260ea61109c52815160408301513d6000853e8b8b82606087013350600060045af150596114498d3d6113ac565b8c01611455818761139c565b5b8281101561146a5760008152602001611456565b50929c50505050505050565b63bdbf8c36598160e01b8152602081600483336000905af158601d01573d60011458600c01573d6000803e3d621234565260ea61109c528051600082529350602061136f56",
  "linkReferences": {},
  "deployedLinkReferences": {}
}